CC0000000162131H202100000555146900000555146930/10/20210520     3300009237421964250000S2BA0100000468160000000000000                                                                          SOLU-CORTEF SNL INY 100 MGVAL     1
CC0000000162131H202100000555146900000555146930/10/20210520     3300009237421964250000B1AB1200003939350000000000000                 ENOXAPARINA SODICA 80MG/0.8ML(100MG/ML) SOL INY INST CAJ X 2JERPREL X 0.8ML TECHDOWJRP     1
CC0000000162131H202100000555146900000555146930/10/20210520     3300009237421964250000C3CA0100001278130000000000000                                                                                     LASIX TAB 40 MGTAB     1
CC0000000162131H202100000555146900000555146930/10/20211118     3300009237421964250000C7AB1500001277290000000000000                                                                        BETALOC ZOK TAB LM 50 MG /R/TAB     1
CC0000000162131H202100000555146900000555146930/10/20210519     3300009237421964250000C7FA0200001277980000000000000                                                                                    NORVAS TAB 10 MGTAB     1
CC0000000162131H202100000555146900000555146930/10/20211118     3300009237421964250000S2BA0500001278470000000000000                                                                                MEDROL TAB 16 MG /R/TAB     1
CC0000000162131H202100000555146900000555146930/10/20211432     3300009237421964250000J1CB1800001134180000000000000                                                                             TAZOCIN Polvo Iny 4.5 gVAL     1
CC0000000162131H202100000555146900000555146930/10/20210310     3300009237421964250000J1CB1800001134180000000000000                                                                             TAZOCIN Polvo Iny 4.5 gVAL     1
CC0000000162131H202100000555146900000555146930/10/20211403    31902225237421964250000E1BA0100000198890000000000000                                                                   AGUA ESTERIL USP SLN INY X 500 MLBIN     1
CC0000000162131H202100000555146900000555146930/10/20211638    31903290237421964250000V07A1300000502600000000000000                                                                                AGUA ESTERIL x 10 mlAMP    10
