CC0000072270118H202100015052707600015052707630/10/20212018    3190163423742196425000001956000001620610000000000000                                                                      CONECTOR MICRO CLAVE LAT-MC100SOB     1
CC0000003893524H202100015052707600015052707630/10/20212018    3190163423742196425000001956000001620610000000000000                                                                      CONECTOR MICRO CLAVE LAT-MC100SOB     1
CC0000072270118H202100015052707600015052707630/10/20212018    31901634237421964250000Q1AA7300000610640000000000000                                                            CATETER PERIFE INTROCAN # 22G 4251628-04SIN     1
CC0000003893524H202100015052707600015052707630/10/20212018    31901634237421964250000Q1AA7300000610640000000000000                                                            CATETER PERIFE INTROCAN # 22G 4251628-04SIN     1
CC0000072270118H202100015052707600015052707630/10/20212018    3190163423742196425000016830000000970620000000000000                                                             SIST FIJACION CAT PERIFERICO 6.5X7 1683SOB     1
CC0000003893524H202100015052707600015052707630/10/20212018    3190163423742196425000016830000000970620000000000000                                                             SIST FIJACION CAT PERIFERICO 6.5X7 1683SOB     1
CC0000072297175H202100015052707600015052707630/10/20212018    31901634237421964250000E1AB0300003888390000000000000                                                            SOLUCION SALINA 0.9% SLN INY BO X 500 MLBOL     3
RC0001043711220H202100015052707600015052707630/10/20212018    31901634237421964250000E1AB0300003888390000000000000                                                            SOLUCION SALINA 0.9% SLN INY BO X 500 MLBOL     1
RC0001063188067H202100015052707600015052707630/10/20212018    31901634237421964250000E1AB0300003888390000000000000                                                            SOLUCION SALINA 0.9% SLN INY BO X 500 MLBOL     1
RC0001221987309H202100015052707600015052707630/10/20212018    31901634237421964250000E1AB0300003888390000000000000                                                            SOLUCION SALINA 0.9% SLN INY BO X 500 MLBOL     1
CC0000072270118H202100015052707600015052707630/10/20212018    31901634237421964250000E1AB0300003888390000000000000                                                            SOLUCION SALINA 0.9% SLN INY BO X 500 MLBOL     1
CC0001143129463H202100015052707600015052707630/10/20212018    31901634237421964250000E1AB0300003888390000000000000                                                            SOLUCION SALINA 0.9% SLN INY BO X 500 MLBOL     2
CC0000003893524H202100015052707600015052707630/10/20212018    31901634237421964250000E1AB0300003888390000000000000                                                            SOLUCION SALINA 0.9% SLN INY BO X 500 MLBOL     2
