CC0000051960635H202100000555177600000555177630/10/20211747     3300009237421964250000A4AD0200000202990000000000000                                                                     PLITICAN HCL Sln Iny 50 mg/2 mlAMP     3
CC0000051960635H202100000555177600000555177630/10/20211748     3300009237421964250000J01D1300001469600000000000000                                                                               POZINEG POLVO INY 1 GVAL     2
CC0000051960635H202100000555177600000555177630/10/20211747     3300009237421964250000J01D1300001469600000000000000                                                                               POZINEG POLVO INY 1 GVAL     1
CC0000051960635H202100000555177600000555177630/10/20211748     3300009237421964250000J01XA400001212420000000000000                                                               VANCOMICINA POLVO LIOF SLN INY 500 MGVAL     4
CC0000051960635H202100000555177600000555177630/10/20211748     3300009237421964250000M1AB0900001019600000000000000                                                                              VOLTAREN Sln Iny 75 mgAMP     3
CC0000051960635H202100000555177600000555177630/10/20211748     3300009237421964250000N02B1100001169680000000000000                              PARACETAMOL 1000MG/100ML(10MG/ML) SOL INY  VIAL X 100ML FRESENIUS KABIVAL     3
