CC0000003893524H202100000555162700000555162730/10/20211259     3300009237421964250000B1AB0200003939510000000000000                 ENOXAPARINA SODICA 40MG/0.4ML(100MG/ML) SOL INY INST CAJ X 2JERPREL X 0.4ML TECHDOWJRP     1
CC0000003893524H202100000555162700000555162730/10/20211736    31500531237421964250000E1AA0800000322190000000000000                                                                          DEXTROSA 5% Sln Iny 250 mlBIN     2
CC0000003893524H202100000555162700000555162730/10/20212113    31901634237421964250000E1AB0300003888390000000000000                                                            SOLUCION SALINA 0.9% SLN INY BO X 500 MLBOL     2
CC0000003893524H202100000555162700000555162730/10/20211110    31500531237421964250000E1AB0500003888400000000000000                                                              SOLUCION SALINA 0.9% SLN INY X 1000 MLBOL     3
CC0000003893524H202100000555162700000555162730/10/20211259     3300009237421964250000A2BC0700001335700000000000000                                                                                 OMEPRAZOL CAP 40 MGCAP     1
CC0000003893524H202100000555162700000555162730/10/20211259     3300009237421964250000C02C0100001316210000000000000                                                                                     PRATEN TAB 1 MGTAB     7
CC0000003893524H202100000555162700000555162730/10/20211259     3300009237421964250000C03C0100001672000000000000000                                                                       FUROSEMIDA SLN INY 20 MG/2 MLAMP     2
CC0000003893524H202100000555162700000555162730/10/20211259     3300009237421964250000C08CA300001313930000000000000                                                                                AMLODIPINO TAB 10 MGTAB     1
CC0000003893524H202100000555162700000555162730/10/20211731    31500531237421964250000V07A1300000502600000000000000                                                                                AGUA ESTERIL x 10 mlAMP     5
