CC0000026715307H202100015032582700015032582730/10/20210719    3190148523742196425000001956000001620610000000000000                                                                      CONECTOR MICRO CLAVE LAT-MC100SOB     1
CC0000026715307H202100015032582700015032582730/10/20210719    31901485237421964250000Q1AA7300000610640000000000000                                                            CATETER PERIFE INTROCAN # 22G 4251628-04SIN     1
CC0000026715307H202100015032582700015032582730/10/20210719    31901485237421964250000Q1AA7400003911720000000000000                                                            CATETER PERIFE INTROCAN # 24G 4251601-04SOB     1
RC0001048088138H202100015032582700015032582730/10/20210719    3190148523742196425000000602600001259280000000000000                                                             APOSITO TEGADERM IV PD 1610 5CM X 5.7CMSOB     1
CC0000026715307H202100015032582700015032582730/10/20210719    3190148523742196425000016830000000970620000000000000                                                             SIST FIJACION CAT PERIFERICO 6.5X7 1683SOB     1
