RC0001042267121U202100050131436300050131436330/10/20211308    3190101223942196432000012475500000232250000000000000                                                                 SUTURA ETHILON 5-0 PS-2 45CM P1666TSIN     1
RC0001042267121U202100050131436300050131436330/10/20211308    3190101223942196432000024674000000220660000000000000                             JERINGA A 3 PARTES CON AGUJA  SOB X 1 RYMCO  10ML BN EXENTO-DC.417/2020SIN     1
RC0001042267121U202100050131436300050131436330/10/20211308    3190101223942196432000011047900000223010000000000000                                                                            JERINGA X 1ML REF 302579SIN     1
RC0001042267121U202100050131436300050131436330/10/20211308    3190101223942196432000011089300001083990000000000000                                                              GUANTE ESTERIL LATEX S/POLVO TALLA 7.5SOB     2
RC0001042267121U202100050131436300050131436330/10/20211308    3190101223942196432000013077800000471960000000000000                                                             GASA NO TEJIDA EST 7.5 X 7.5 SOB X 3 UNSOB     6
RC0001042267121U202100050131436300050131436330/10/20211308    31901012239421964320000E1AB0200000199290000000000000                                                            SOLUCION SALINA 0.9% SLN INY BO X 100 MLBIN     1
