CC0001140828821H202100015032584100015032584130/10/20212036    3190115623742196425000022426800001140510000000000000                                                                    EQUIPO MACROGOTEO BAXTER MRC0001SOB     1
CC0000032894571H202100015032584100015032584130/10/20212036    3190115623742196425000011082700001620070000000000000                                                               EQUIPO SET PRIMARIO C/CLAVE REF 14001BOL     1
CC0000005029363H202100015032584100015032584130/10/20212036    3190115623742196425000011082700001620070000000000000                                                               EQUIPO SET PRIMARIO C/CLAVE REF 14001BOL     1
CC0001140828821H202100015032584100015032584130/10/20212036    3190115623742196425000001956000001620610000000000000                                                                      CONECTOR MICRO CLAVE LAT-MC100SOB     1
CC0001140828821H202100015032584100015032584130/10/20212036    31901156237421964250000Q1AA7300000610640000000000000                                                            CATETER PERIFE INTROCAN # 22G 4251628-04SIN     2
CC0000032894571H202100015032584100015032584130/10/20212036    3190115623742196425000030936900001431840000000000000                                                                                              BURETABOL     1
CC0000005029363H202100015032584100015032584130/10/20212036    3190115623742196425000030936900001431840000000000000                                                                                              BURETABOL     1
CC0001140828821H202100015032584100015032584130/10/20212036    3190115623742196425000016830000000970620000000000000                                                             SIST FIJACION CAT PERIFERICO 6.5X7 1683SOB     1
PA0000PA0448885H202100015032584100015032584130/10/20212036    31901156237421964250000E1AD0300000199490000000000000                                         LACTATO RINGER USP (HARTMANN)  SOL INY  BOL X 1000ML BAXTERBIN     3
CC0000032894571H202100015032584100015032584130/10/20212036    31901156237421964250000E1AD0300000199490000000000000                                         LACTATO RINGER USP (HARTMANN)  SOL INY  BOL X 1000ML BAXTERBIN     1
TI0001044223160H202100015032584100015032584130/10/20212036    31901156237421964250000E1AD0300000199490000000000000                                         LACTATO RINGER USP (HARTMANN)  SOL INY  BOL X 1000ML BAXTERBIN     2
PA0000143921688H202100015032584100015032584130/10/20212036    31901156237421964250000E1AD0300000199490000000000000                                         LACTATO RINGER USP (HARTMANN)  SOL INY  BOL X 1000ML BAXTERBIN     3
CC0000005029363H202100015032584100015032584130/10/20212036    31901156237421964250000E1AD0300000199490000000000000                                         LACTATO RINGER USP (HARTMANN)  SOL INY  BOL X 1000ML BAXTERBIN     2
CC0000064541334H202100015032584100015032584130/10/20212036    31901156237421964250000E1AD0300000199490000000000000                                         LACTATO RINGER USP (HARTMANN)  SOL INY  BOL X 1000ML BAXTERBIN     2
RC0001048088138H202100015032584100015032584130/10/20212036    31901156237421964250000E1AB0300003888390000000000000                                                            SOLUCION SALINA 0.9% SLN INY BO X 500 MLBOL     1
CC0000026715307H202100015032584100015032584130/10/20212036    31901156237421964250000E1AB0300003888390000000000000                                                            SOLUCION SALINA 0.9% SLN INY BO X 500 MLBOL     1
TI0001097116528H202100015032584100015032584130/10/20212036    31901156237421964250000E1AC0100000199400000000000000                                                                          SUERO MIXTO Sln Iny 500 mlBIN     2
