CC0001065132676H202100015042510100015042510130/10/20211258    3150008223742196425000036441300000236540000000000000                                                                    JERINGA 1 ML GASES ARTERIAL 9023SIN     2
CC0001065132676H202100015042510100015042510130/10/20211258    3150008223742196425000000602700001197200000000000000                                                              APOSITO TRANSP  1655 IV 8.5CM X 11.5CMSOB     1
RC0001043710353H202100015042510100015042510130/10/20211258    3150008223742196425000016830000000970620000000000000                                                             SIST FIJACION CAT PERIFERICO 6.5X7 1683SOB     1
