CC0000044150179H202100000555167700000555167730/10/20211726     3300009237421964250000A6AC07000000#N/A0000000000000                                                                                 LACTULAX Jbe 240 ml FR     1
CC0000044150179H202100000555167700000555167730/10/20211218    31903272237421964250000E1AD0300000199490000000000000                                         LACTATO RINGER USP (HARTMANN)  SOL INY  BOL X 1000ML BAXTERBIN     1
CC0000044150179H202100000555167700000555167730/10/20211358     3300009237421964250000H03AA400001315380000000000000                                                                               SYNTHROID TAB 100 MCGTAB     1
CC0000044150179H202100000555167700000555167730/10/20211726     3300009237421964250000J3CA0200001208130000000000000                                                                      FLAGYL SLN INY 500 MG X 100 MLBOL     3
CC0000044150179H202100000555167700000555167730/10/20211726     3300009237421964250000N2BB0500000217140000000000000                                                                          NOVALGINA Sln Iny 1 g/2 mlAMP     4
CC0000044150179H202100000555167700000555167730/10/20211726     3300009237421964250000N02B1100001169680000000000000                              PARACETAMOL 1000MG/100ML(10MG/ML) SOL INY  VIAL X 100ML FRESENIUS KABIVAL     2
CC0000044150179H202100000555167700000555167730/10/20211726     3300009237421964250000N03A0800001278440000000000000                                                                                LYRICA CAP 75 MG /R/CAP     2
