CC0001143227023H202100015052706400015052706430/10/20211012    3190323923742196425000030161400001459220000000000000                                                                       MANGUERA SUCCION 6 MM*3.1 MTSSOB     2
CC0000022438763H202100015052706400015052706430/10/20211012    3190323923742196425000038569400000256750000000000000                                                                        SONDA ASPIRACION CONTROL #14SIN     7
CC0001143227023H202100015052706400015052706430/10/20211012    3190323923742196425000038569400000256750000000000000                                                                        SONDA ASPIRACION CONTROL #14SIN     7
CC0000022438763H202100015052706400015052706430/10/20211012    3190323923742196425000036441300000236540000000000000                                                                    JERINGA 1 ML GASES ARTERIAL 9023SIN     4
CC0001143227023H202100015052706400015052706430/10/20211012    3190323923742196425000036441300000236540000000000000                                                                    JERINGA 1 ML GASES ARTERIAL 9023SIN     2
CC0000022438763H202100015052706400015052706430/10/20211012    3190323923742196425000024674000000220660000000000000                             JERINGA A 3 PARTES CON AGUJA  SOB X 1 RYMCO  10ML BN EXENTO-DC.417/2020SIN     2
CC0001143227023H202100015052706400015052706430/10/20211012    3190323923742196425000024674000000220660000000000000                             JERINGA A 3 PARTES CON AGUJA  SOB X 1 RYMCO  10ML BN EXENTO-DC.417/2020SIN     2
CC0001143227023H202100015052706400015052706430/10/20211012    3190323923742196425000020816000001096410000000000000                                                                          LINER PARED DELGADA 1500CCBOL     1
