CC0000008604995H202100911089103000911089103030/10/20212201    3150005223742196425000011082700001620070000000000000                                                               EQUIPO SET PRIMARIO C/CLAVE REF 14001BOL     1
CC0000008604995H202100911089103000911089103030/10/20212201    3150005223742196425000030936900001431840000000000000                                                                                              BURETABOL     1
CC0000008604995H202100911089103000911089103030/10/20212201    3150005223742196425000001956000001620610000000000000                                                                      CONECTOR MICRO CLAVE LAT-MC100SOB     1
CC0000008604995H202100911089103000911089103030/10/20212201    31500052237421964250000E1AB0500003888400000000000000                                                              SOLUCION SALINA 0.9% SLN INY X 1000 MLBOL     1
