CC0000007143570H202100015042509700015042509730/10/20210138    31500213237421964250000V07A1300000502600000000000000                                                                                AGUA ESTERIL x 10 mlAMP     5
CC0000007143570H202100015042509700015042509730/10/20210138    3150021323742196425000024674000000220660000000000000                             JERINGA A 3 PARTES CON AGUJA  SOB X 1 RYMCO  10ML BN EXENTO-DC.417/2020SIN     5
CC0000007143570H202100015042509700015042509730/10/20210138    3150021323742196425000022426800001140510000000000000                                                                    EQUIPO MACROGOTEO BAXTER MRC0001SOB     1
CC0000007143570H202100015042509700015042509730/10/20210138    31500213237421964250000E1AD0200003888320000000000000                                                                              HARTMAN SLN INY 500 MLBOL     3
CC0001129523937H202100015042509700015042509730/10/20210138    31500213237421964250000E1AB0700003888350000000000000                                                            SOLUCION SALINA 0.9% SLN INY BO X 250 MLBOL     1
TI0001047048202H202100015042509700015042509730/10/20210138    31500213237421964250000E1AB0700003888350000000000000                                                            SOLUCION SALINA 0.9% SLN INY BO X 250 MLBOL     1
CC0001065132676H202100015042509700015042509730/10/20210138    31500213237421964250000E1AB0700003888350000000000000                                                            SOLUCION SALINA 0.9% SLN INY BO X 250 MLBOL     1
