CC0000008753953H202100000555149000000555149030/10/20211811     3300009237421964250000A3BA0100001109400000000000000                                                                          ATROPINA SLN INY 1 MG / MLAMP     1
CC0000008753953H202100000555149000000555149030/10/20212325    31901827237421964250000E1AB0200000199290000000000000                                                            SOLUCION SALINA 0.9% SLN INY BO X 100 MLBIN    13
CC0000008753953H202100000555149000000555149030/10/20211727    31500531237421964250000E1AB0200000199290000000000000                                                            SOLUCION SALINA 0.9% SLN INY BO X 100 MLBIN     3
CC0000008753953H202100000555149000000555149030/10/20211738    31500531237421964250000E1AD0300000199490000000000000                                         LACTATO RINGER USP (HARTMANN)  SOL INY  BOL X 1000ML BAXTERBIN     1
CC0000008753953H202100000555149000000555149030/10/20211727    31500531237421964250000E1AD0300000199490000000000000                                         LACTATO RINGER USP (HARTMANN)  SOL INY  BOL X 1000ML BAXTERBIN     2
CC0000008753953H202100000555149000000555149030/10/20212323    31901827237421964250000E1AA0400003888560000000000000                                                                         DEXTROSA 10% SLN INY 500 MLBOL     1
CC0000008753953H202100000555149000000555149030/10/20211601     3300009237421964250000C7AB1000001382030000000000000                                                                   NOREPINEFRINA SLN INY 4 MG / 4 MLAMP    18
CC0000008753953H202100000555149000000555149030/10/20211152     3300009237421964250000J01XA400001212420000000000000                                                               VANCOMICINA POLVO LIOF SLN INY 500 MGVAL     2
CC0000008753953H202100000555149000000555149030/10/20211152     3300009237421964250000V6DF5300000302770000000000000                                                                        ENSURE PLUS HN LCP X 1000 MLFCO     1
CC0000008753953H202100000555149000000555149030/10/20211602     3300009237421964250000N1AH0200003906560000000000000                                                                     FENTANIL Iny 0.05 mg/ml x 10 mlAMP     2
CC0000008753953H202100000555149000000555149030/10/20211811     3300009237421964250000R3CA0100001051880000000000000                                                               ADRENALINA HCL SLN INY 1 MG / ML ECARAMP     1
CC0000008753953H202100000555149000000555149030/10/20211152     3300009237421964250000J01DH400001317770000000000000                                                                MEROPENEM POLVO LIOF SLN INY 1 G /R/CAJ     2
CC0000008753953H202100000555149000000555149030/10/20211152     3300009237421964250000A02BC700001684270000000000000                                                            OMEPRAZOL 40MG POLVO LIOFILIZADO AMPOLLAVAL     1
CC0000008753953H202100000555149000000555149030/10/20211738    31500531237421964250000V07A1300000502600000000000000                                                                                AGUA ESTERIL x 10 mlAMP     5
CC0000008753953H202100000555149000000555149030/10/20211727    31500531237421964250000V07A1300000502600000000000000                                                                                AGUA ESTERIL x 10 mlAMP     5
