CC0001129577696U202100050131441000050131441030/10/20211939    3190315823942196432000024674000000220660000000000000                             JERINGA A 3 PARTES CON AGUJA  SOB X 1 RYMCO  10ML BN EXENTO-DC.417/2020SIN     1
CC0001129577696U202100050131441000050131441030/10/20211939    3190315823942196432000022426800001140510000000000000                                                                    EQUIPO MACROGOTEO BAXTER MRC0001SOB     1
CC0001129577696U202100050131441000050131441030/10/20211939    3190315823942196432000020056600001101530000000000000                                                                AGUJA HIPODERMICA DESECH 18G X 1 1/2SOB     1
CC0001129577696U202100050131441000050131441030/10/20211939    31903158239421964320000E1AB0700003888350000000000000                                                            SOLUCION SALINA 0.9% SLN INY BO X 250 MLBOL     1
