CC0001140822240U202100050131438500050131438530/10/20211615    3190318023942196432000024674000000220660000000000000                             JERINGA A 3 PARTES CON AGUJA  SOB X 1 RYMCO  10ML BN EXENTO-DC.417/2020SIN     1
CC0001140822240U202100050131438500050131438530/10/20211615    3190318023942196432000022426800001140510000000000000                                                                    EQUIPO MACROGOTEO BAXTER MRC0001SOB     1
CC0001140822240U202100050131438500050131438530/10/20211615    3190318023942196432000001956000001620610000000000000                                                                      CONECTOR MICRO CLAVE LAT-MC100SOB     1
CC0001140822240U202100050131438500050131438530/10/20211615    31903180239421964320000Q1AA7300000610640000000000000                                                            CATETER PERIFE INTROCAN # 22G 4251628-04SIN     1
CC0001140822240U202100050131438500050131438530/10/20211615    3190318023942196432000016830000000970620000000000000                                                             SIST FIJACION CAT PERIFERICO 6.5X7 1683SOB     1
CC0001140822240U202100050131438500050131438530/10/20211615    31903180239421964320000E1AB0200000199290000000000000                                                            SOLUCION SALINA 0.9% SLN INY BO X 100 MLBIN     1
