CC0000008565480H202100015012572100015012572130/10/20212127    3150005223742196425000045136100001419300000000000000                                                                            LANCETA DEXTROMETER X UNPZA     5
CC0000019308734H202100015012572100015012572130/10/20212127    3150005223742196425000045136100001419300000000000000                                                                            LANCETA DEXTROMETER X UNPZA     5
PA0000597549720H202100015012572100015012572130/10/20212127    3150005223742196425000022426800001140510000000000000                                                                    EQUIPO MACROGOTEO BAXTER MRC0001SOB     1
CC0000022354690H202100015012572100015012572130/10/20212127    3150005223742196425000022426800001140510000000000000                                                                    EQUIPO MACROGOTEO BAXTER MRC0001SOB     1
PA0000669271942H202100015012572100015012572130/10/20212127    3150005223742196425000022426800001140510000000000000                                                                    EQUIPO MACROGOTEO BAXTER MRC0001SOB     1
CC0000008604995H202100015012572100015012572130/10/20212127    3150005223742196425000011082700001620070000000000000                                                               EQUIPO SET PRIMARIO C/CLAVE REF 14001BOL     1
CC0000008604995H202100015012572100015012572130/10/20212127    3150005223742196425000001956000001620610000000000000                                                                      CONECTOR MICRO CLAVE LAT-MC100SOB     1
CC0000008604995H202100015012572100015012572130/10/20212127    3150005223742196425000030936900001431840000000000000                                                                                              BURETABOL     1
CC0000008565480H202100015012572100015012572130/10/20212127    31500052237421964250000E1AB0500003888400000000000000                                                              SOLUCION SALINA 0.9% SLN INY X 1000 MLBOL     1
CC0000008604995H202100015012572100015012572130/10/20212127    31500052237421964250000E1AB0500003888400000000000000                                                              SOLUCION SALINA 0.9% SLN INY X 1000 MLBOL     1
CC0000019308734H202100015012572100015012572130/10/20212127    31500052237421964250000E1AB0500003888400000000000000                                                              SOLUCION SALINA 0.9% SLN INY X 1000 MLBOL     1
CC0000008565480H202100015012572100015012572130/10/20212127    3150005223742196425000011137100001419310000000000000                                                               TIRA GLUCOMETRIA FREESTYLE H OPTIUM .PZA     5
CC0000019308734H202100015012572100015012572130/10/20212127    3150005223742196425000011137100001419310000000000000                                                               TIRA GLUCOMETRIA FREESTYLE H OPTIUM .PZA     5
CC0000008565480H202100015012572100015012572130/10/20212127    3150005223742196425000011127400001413910000000000000                                                            EQUIPO ADMINIST NUTR PUNZON REF 674669 BBOL     1
