PA0000F35806072H202100015022526400015022526430/10/20211841    31901151237421964250000V07A1300000502600000000000000                                                                                AGUA ESTERIL x 10 mlAMP     8
PA0000F35806072H202100015022526400015022526430/10/20211841    3190115123742196425000024674000000220660000000000000                             JERINGA A 3 PARTES CON AGUJA  SOB X 1 RYMCO  10ML BN EXENTO-DC.417/2020SIN     8
PA0000F35806072H202100015022526400015022526430/10/20211841    3190115123742196425000030936900001431840000000000000                                                                                              BURETABOL     1
PA0000F35806072H202100015022526400015022526430/10/20211841    31901151237421964250000E1AD0300000199490000000000000                                         LACTATO RINGER USP (HARTMANN)  SOL INY  BOL X 1000ML BAXTERBIN     2
