RC0001146544739H202100015032584400015032584430/10/20212300    3190240923742196425000001956000001620610000000000000                                                                      CONECTOR MICRO CLAVE LAT-MC100SOB     1
CC0001044430826H202100015032584400015032584430/10/20212300    3190240923742196425000001956000001620610000000000000                                                                      CONECTOR MICRO CLAVE LAT-MC100SOB     1
CC0001143106272H202100015032584400015032584430/10/20212300    3190240923742196425000030936900001431840000000000000                                                                                              BURETABOL     1
