PA00000AN613775H202100000555162100000555162130/10/20211039    31903290237421964250000A2BC0900000200150000000000000                                                                               ORAZOLE Sln Iny 40 mgCIN     1
PA00000AN613775H202100000555162100000555162130/10/20211039    31903290237421964250000A03F0300001626860000000000000                                                                   METOCLOPRAMIDA SLN INY 10 MG/2 MLAMP     3
PA00000AN613775H202100000555162100000555162130/10/20211039    31903290237421964250000H02AB500001664950000000000000                                                            DEXAMETASONA SLN INY 8 MG/2 ML AMP /CDS/AMP     2
PA00000AN613775H202100000555162100000555162130/10/20211039    31903290237421964250000N2BB1100000217160000000000000                                                                      NOVALGINA Sln Iny 2.5 g x 5 mlAMP     2
PA00000AN613775H202100000555162100000555162130/10/20211039    31903290237421964250000N02B1100001169680000000000000                              PARACETAMOL 1000MG/100ML(10MG/ML) SOL INY  VIAL X 100ML FRESENIUS KABIVAL     2
