CC0000032611702H202100000555158700000555158730/10/20210842    31903308237421964250000J1CB0600000468340000000000000                                                           UNASYN IM-IV (1+0.5)GR POLV INY INST VIALVAL     1
CC0000032611702H202100000555158700000555158730/10/20210842    31903308237421964250000N2BB0500000217140000000000000                                                                          NOVALGINA Sln Iny 1 g/2 mlAMP     1
CC0000032611702H202100000555158700000555158730/10/20210842    31903308237421964250000N02B1100001169680000000000000                              PARACETAMOL 1000MG/100ML(10MG/ML) SOL INY  VIAL X 100ML FRESENIUS KABIVAL     1
