CC0001045684571H202100000555152000000555152030/10/20210526     3300009237421964250000A3BA0100001109400000000000000                                                                          ATROPINA SLN INY 1 MG / MLAMP     1
CC0001045684571H202100000555152000000555152030/10/20211127     3300009237421964250000B1AB0100001227270000000000000                                             HEPAMAX 25000UI/5ML(5000UI/ML) SOL INY  CAJ X 25AMPX5MLAMP     7
CC0001045684571H202100000555152000000555152030/10/20210526     3300009237421964250000B1AB0100001227270000000000000                                             HEPAMAX 25000UI/5ML(5000UI/ML) SOL INY  CAJ X 25AMPX5MLAMP     4
CC0001045684571H202100000555152000000555152030/10/20212020    31900995237421964250000E1AA0600003888150000000000000                                                                 DEXTROSA 50% EN AGUA Sln Iny 500 mlBOL     1
CC0001045684571H202100000555152000000555152030/10/20212020    31900995237421964250000E1AA0200000198980000000000000                                                                          DEXTROSA 5% Sln Iny 100 mlBIN     4
CC0001045684571H202100000555152000000555152030/10/20210623    31902703237421964250000E1AB1100003888280000000000000                                                                        SOLUCION SALINA 0.9% X 50 mlBOL    10
CC0001045684571H202100000555152000000555152030/10/20210535    31902897237421964250000E1AB1100003888280000000000000                                                                        SOLUCION SALINA 0.9% X 50 mlBOL     6
CC0001045684571H202100000555152000000555152030/10/20212324    31901827237421964250000E1AB0200000199290000000000000                                                            SOLUCION SALINA 0.9% SLN INY BO X 100 MLBIN    12
CC0001045684571H202100000555152000000555152030/10/20212021    31900995237421964250000E1AB0200000199290000000000000                                                            SOLUCION SALINA 0.9% SLN INY BO X 100 MLBIN    10
CC0001045684571H202100000555152000000555152030/10/20210623    31902703237421964250000E1AB0200000199290000000000000                                                            SOLUCION SALINA 0.9% SLN INY BO X 100 MLBIN    10
CC0001045684571H202100000555152000000555152030/10/20212020    31900995237421964250000E1AB0700003888350000000000000                                                            SOLUCION SALINA 0.9% SLN INY BO X 250 MLBOL     1
CC0001045684571H202100000555152000000555152030/10/20210623    31902703237421964250000E1AB0700003888350000000000000                                                            SOLUCION SALINA 0.9% SLN INY BO X 250 MLBOL     2
CC0001045684571H202100000555152000000555152030/10/20210532    31902897237421964250000E1AD0300000199490000000000000                                         LACTATO RINGER USP (HARTMANN)  SOL INY  BOL X 1000ML BAXTERBIN     3
CC0001045684571H202100000555152000000555152030/10/20211127     3300009237421964250000A12BA100000552980000000000000                                                            CLORURO POTASIO Sln Iny AMP 20 MEQ/10 MLAMP     3
CC0001045684571H202100000555152000000555152030/10/20210623    31902703237421964250000B05B1400001012740000000000000                                                                SOLUCION SALINA 0.45% Sln Iny 500 mlBOL     5
CC0001045684571H202100000555152000000555152030/10/20212309     3300009237421964250000C1BD0200000201790000000000000                                                                      CORDARONE SLN INY 150 MG/ 3 MLAMP     2
CC0001045684571H202100000555152000000555152030/10/20212132     3300009237421964250000C1BD0200000201790000000000000                                                                      CORDARONE SLN INY 150 MG/ 3 MLAMP     2
CC0001045684571H202100000555152000000555152030/10/20211959     3300009237421964250000C1BD0200000201790000000000000                                                                      CORDARONE SLN INY 150 MG/ 3 MLAMP     2
CC0001045684571H202100000555152000000555152030/10/20212127     3300009237421964250000C7AB1000001382030000000000000                                                                   NOREPINEFRINA SLN INY 4 MG / 4 MLAMP    16
CC0001045684571H202100000555152000000555152030/10/20211128     3300009237421964250000C7AB1000001382030000000000000                                                                   NOREPINEFRINA SLN INY 4 MG / 4 MLAMP    10
CC0001045684571H202100000555152000000555152030/10/20210527     3300009237421964250000C7AB1000001382030000000000000                                                                   NOREPINEFRINA SLN INY 4 MG / 4 MLAMP    10
CC0001045684571H202100000555152000000555152030/10/20211127     3300009237421964250000J01DD400001669980000000000000                                                                ZAVICEFTA POLVO LIOF SLN INY 2500 MGVAL     1
CC0001045684571H202100000555152000000555152030/10/20210526     3300009237421964250000J01DD400001669980000000000000                                                                ZAVICEFTA POLVO LIOF SLN INY 2500 MGVAL     4
CC0001045684571H202100000555152000000555152030/10/20211129     3300009237421964250000M03AC100000197200000000000000                                                                   TRACURION SLN INY 10 MG /5 ML /R/AMP     1
CC0001045684571H202100000555152000000555152030/10/20211128     3300009237421964250000M03AC100000197200000000000000                                                                   TRACURION SLN INY 10 MG /5 ML /R/AMP     4
CC0001045684571H202100000555152000000555152030/10/20211949     3300009237421964250000H01B0100001390610000000000000                                                                   VASOPRESINA SLN INY 20 UI/ ML /R/VAL     5
CC0001045684571H202100000555152000000555152030/10/20211127     3300009237421964250000H01B0100001390610000000000000                                                                   VASOPRESINA SLN INY 20 UI/ ML /R/VAL     1
CC0001045684571H202100000555152000000555152030/10/20210526     3300009237421964250000H01B0100001390610000000000000                                                                   VASOPRESINA SLN INY 20 UI/ ML /R/VAL     3
CC0001045684571H202100000555152000000555152030/10/20210623    31902703237421964250000E1BA0100000198890000000000000                                                                   AGUA ESTERIL USP SLN INY X 500 MLBIN    20
CC0001045684571H202100000555152000000555152030/10/20210524     3300009237421964250000V6DF2000001629900000000000000                                                                     ENSURE PLUS HN LIQUIDO X 237 MLFCO     3
CC0001045684571H202100000555152000000555152030/10/20211130     3300009237421964250000N1AH0200003906560000000000000                                                                     FENTANIL Iny 0.05 mg/ml x 10 mlAMP     8
CC0001045684571H202100000555152000000555152030/10/20211129     3300009237421964250000N1AH0200003906560000000000000                                                                     FENTANIL Iny 0.05 mg/ml x 10 mlAMP     2
CC0001045684571H202100000555152000000555152030/10/20211130     3300009237421964250000N5CD0300000218170000000000000                                                                          DORMICUM Sln Iny 5 mg/5 mlAMP    60
CC0001045684571H202100000555152000000555152030/10/20212128     3300009237421964250000H02AB700000585860000000000000                                                                HIDROCORTISONA SUCCI POL LIOF 100 MGVAL     4
CC0001045684571H202100000555152000000555152030/10/20210527     3300009237421964250000R3CA0100001051880000000000000                                                               ADRENALINA HCL SLN INY 1 MG / ML ECARAMP     8
CC0001045684571H202100000555152000000555152030/10/20210523     3300009237421964250000C03C0100001672000000000000000                                                                       FUROSEMIDA SLN INY 20 MG/2 MLAMP     1
CC0001045684571H202100000555152000000555152030/10/20212126     3300009237421964250000J01EE300001398810000000000000                                                                  TRIMETOPR/SULFAM 80/400MG /5ML AMPAMP    10
CC0001045684571H202100000555152000000555152030/10/20211700     3300009237421964250000J01EE300001398810000000000000                                                                  TRIMETOPR/SULFAM 80/400MG /5ML AMPAMP    10
CC0001045684571H202100000555152000000555152030/10/20211127     3300009237421964250000N2BE2200001252930000000000000                                                                             ACETAMINOFEN Tab 500 MGTAB     2
CC0001045684571H202100000555152000000555152030/10/20210524     3300009237421964250000N2BE2200001252930000000000000                                                                             ACETAMINOFEN Tab 500 MGTAB     4
CC0001045684571H202100000555152000000555152030/10/20212128     3300009237421964250000N05A1700001278300000000000000                                                                            QUETIAPINA TAB 25 MG /R/TAB     2
CC0001045684571H202100000555152000000555152030/10/20210522     3300009237421964250000N05A1700001278300000000000000                                                                            QUETIAPINA TAB 25 MG /R/TAB     2
CC0001045684571H202100000555152000000555152030/10/20210523     3300009237421964250000A02BC700001684270000000000000                                                            OMEPRAZOL 40MG POLVO LIOFILIZADO AMPOLLAVAL     1
CC0001045684571H202100000555152000000555152030/10/20212021    31900995237421964250000V07A1300000502600000000000000                                                                                AGUA ESTERIL x 10 mlAMP     5
