TI0001044646343H202100000555180900000555180930/10/20212243     3300009237421964250000A02BX300001378440000000000000                                                                    DIP SUSP ORAL 1 G /5 ML X 200 MLFCO     1
TI0001044646343H202100000555180900000555180930/10/20212309    31500244237421964250000E1AD0300000199490000000000000                                         LACTATO RINGER USP (HARTMANN)  SOL INY  BOL X 1000ML BAXTERBIN     4
TI0001044646343H202100000555180900000555180930/10/20212243     3300009237421964250000N2BE1100001156170000000000000                                                              ACETAMINOFEN JBE 150 MG / 5 ML X 60 MLFCO     1
TI0001044646343H202100000555180900000555180930/10/20212243     3300009237421964250000A02BC700001684270000000000000                                                            OMEPRAZOL 40MG POLVO LIOFILIZADO AMPOLLAVAL     1
