CC0000064541334H202100000555153600000555153630/10/20211815     3300009237421964250000R05CB200001128220000000000000                                                                    N-ACETILCISTEINA GRANUL 200mg/V/SOB     1
CC0000064541334H202100000555153600000555153630/10/20210559     3300009237421964250000A02BC100001677520000000000000                                                                ESOMEPRAZOL POLVO LIOF INY 40 MG /R/VAL     1
CC0000064541334H202100000555153600000555153630/10/20210559     3300009237421964250000A4AD0200000202990000000000000                                                                     PLITICAN HCL Sln Iny 50 mg/2 mlAMP     3
CC0000064541334H202100000555153600000555153630/10/20212301    31901156237421964250000E1AD0300000199490000000000000                                         LACTATO RINGER USP (HARTMANN)  SOL INY  BOL X 1000ML BAXTERBIN     2
CC0000064541334H202100000555153600000555153630/10/20210559     3300009237421964250000C2DE1400001277050000000000000                                                                         NIFEDIPINO CAPSULA LM 30 MGCAP     1
CC0000064541334H202100000555153600000555153630/10/20210559     3300009237421964250000N2AX0400001204140000000000000                                                                             TRAMAL Sln Iny 50 mg/mlAMP     2
CC0000064541334H202100000555153600000555153630/10/20210559     3300009237421964250000N2BB0500000217140000000000000                                                                          NOVALGINA Sln Iny 1 g/2 mlAMP     2
CC0000064541334H202100000555153600000555153630/10/20210559     3300009237421964250000N03A0800001278440000000000000                                                                                LYRICA CAP 75 MG /R/CAP     1
CC0000064541334H202100000555153600000555153630/10/20211637    31903290237421964250000V07A1300000502600000000000000                                                                                AGUA ESTERIL x 10 mlAMP    10
