CC0000022440074H202100914446103000914446103030/10/20210949    3190099723742196425000001956000001620610000000000000                                                                      CONECTOR MICRO CLAVE LAT-MC100SOB     1
CC0000022440074H202100914446103000914446103030/10/20210949    31900997237421964250000E1AB0300003888390000000000000                                                            SOLUCION SALINA 0.9% SLN INY BO X 500 MLBOL     1
CC0000022440074H202100914446103000914446103030/10/20211102    3190224223742196425000001956000001620610000000000000                                                                      CONECTOR MICRO CLAVE LAT-MC100SOB     1
CC0000022440074H202100914446103000914446103030/10/20211102    31902242237421964250000E1AB0300003888390000000000000                                                            SOLUCION SALINA 0.9% SLN INY BO X 500 MLBOL     1
