CC0001140905585U202100050131432300050131432330/10/20210753    3190101223942196432000011085100001082120000000000000                                                                           GUANTE QUIRURGICO TALLA 7SOB     1
CC0001140905585U202100050131432300050131432330/10/20210753    3190101223942196432000013077800000471960000000000000                                                             GASA NO TEJIDA EST 7.5 X 7.5 SOB X 3 UNSOB     6
CC0001140905585U202100050131432300050131432330/10/20210753    3190101223942196432000042743200003929860000000000000                   GASA ADHESIVA STRETCH REF 02038-00 ROL X 10MT FIXOMULL 15CM BN EXENTO-DC.417/2020CMT    30
CC0001140905585U202100050131432300050131432330/10/20210753    31901012239421964320000E1AB0200000199290000000000000                                                            SOLUCION SALINA 0.9% SLN INY BO X 100 MLBIN     1
