CC0000007467947H202100000555165200000555165230/10/20211837     3300009237421964250000A2BC0900000200150000000000000                                                                               ORAZOLE Sln Iny 40 mgCIN     1
CC0000007467947H202100000555165200000555165230/10/20211620     3300009237421964250000B1AB0200003939510000000000000                 ENOXAPARINA SODICA 40MG/0.4ML(100MG/ML) SOL INY INST CAJ X 2JERPREL X 0.4ML TECHDOWJRP     1
CC0000007467947H202100000555165200000555165230/10/20211145     3300009237421964250000B1AB0200003939510000000000000                 ENOXAPARINA SODICA 40MG/0.4ML(100MG/ML) SOL INY INST CAJ X 2JERPREL X 0.4ML TECHDOWJRP     1
CC0000007467947H202100000555165200000555165230/10/20211145     3300009237421964250000N2AX0400001204140000000000000                                                                             TRAMAL Sln Iny 50 mg/mlAMP     1
CC0000007467947H202100000555165200000555165230/10/20211144     3300009237421964250000N2AX0400001204140000000000000                                                                             TRAMAL Sln Iny 50 mg/mlAMP     4
CC0000007467947H202100000555165200000555165230/10/20211145     3300009237421964250000N2BE0100001276930000000000000                                                                                    DOLEX TAB 500 MGTAB    10
CC0000007467947H202100000555165200000555165230/10/20211635     3300009237421964250000R03BB100000840150000000000000                                                            ATROVENT INH ORAL 20 MCG/DO X 200 DO /R/FCO     1
