TI0001146538030U202100050131435200050131435230/10/20211154    3190280023942196432000024674000000220660000000000000                             JERINGA A 3 PARTES CON AGUJA  SOB X 1 RYMCO  10ML BN EXENTO-DC.417/2020SIN     2
RC0001043492763U202100050131435200050131435230/10/20211154    3190280023942196432000042743200003929860000000000000                   GASA ADHESIVA STRETCH REF 02038-00 ROL X 10MT FIXOMULL 15CM BN EXENTO-DC.417/2020CMT    20
TI0001146538030U202100050131435200050131435230/10/20211154    3190280023942196432000011082700001620070000000000000                                                               EQUIPO SET PRIMARIO C/CLAVE REF 14001BOL     1
RC0001043492763U202100050131435200050131435230/10/20211154    3190280023942196432000001956000001620610000000000000                                                                      CONECTOR MICRO CLAVE LAT-MC100SOB     1
TI0001146538030U202100050131435200050131435230/10/20211154    3190280023942196432000001956000001620610000000000000                                                                      CONECTOR MICRO CLAVE LAT-MC100SOB     1
RC0001043492763U202100050131435200050131435230/10/20211154    31902800239421964320000Q1AA7400003911720000000000000                                                            CATETER PERIFE INTROCAN # 24G 4251601-04SOB     1
TI0001146538030U202100050131435200050131435230/10/20211154    31902800239421964320000Q1AA7400003911720000000000000                                                            CATETER PERIFE INTROCAN # 24G 4251601-04SOB     1
TI0001146538030U202100050131435200050131435230/10/20211154    3190280023942196432000030936900001431840000000000000                                                                                              BURETABOL     1
TI0001146538030U202100050131435200050131435230/10/20211154    3190280023942196432000000602600001259280000000000000                                                             APOSITO TEGADERM IV PD 1610 5CM X 5.7CMSOB     1
TI0001146538030U202100050131435200050131435230/10/20211154    31902800239421964320000E1AC0100000199400000000000000                                                                          SUERO MIXTO Sln Iny 500 mlBIN     1
