CC0000064541334A202100000027642500000027642530/10/20211413    3190333624042196419000040515800000228670000000000000                                                                        BOLSA COLOSTOMIA CONVATEC 70PZA     1
CC0000064541334A202100000027642500000027642530/10/20211413    31903336240421964190000B02B3400001270570000000000000                                                                  EVICEL TROMB 5 ML/FRIBRIN 5 ML /R/PAQ     1
CC0000064541334A202100000027642500000027642530/10/20211413    31903336240421964190000C7AB1000001382030000000000000                                                                   NOREPINEFRINA SLN INY 4 MG / 4 MLAMP     1
CC0000064541334A202100000027642500000027642530/10/20211413    3190333624042196419000011082900001233450000000000000                                                               EQUIPO LC 5000 PRIMARIO FOTOPRO 0L218SOB     1
CC0000064541334A202100000027642500000027642530/10/20211413    3190333624042196419000011031900001135570000000000000                                                            SUT TI-CRON BL 90CM Y5 2/0 DA 8886321251PZA     4
CC0000064541334A202100000027642500000027642530/10/20211413    3190333624042196419000047373400000228840000000000000                                                                             PINZA COLOSTOMIA 175635PZA     1
CC0000064541334A202100000027642500000027642530/10/20211413    3190333624042196419000040514400000228730000000000000                                                               BARRERA COLOSTOMIA CONVATEC 70 400949PZA     1
CC0000064541334A202100000027642500000027642530/10/20211413    3190333624042196419000031188000000236790000000000000                                                                                     CISTOFLO ADULTOSIN     1
CC0000064541334A202100000027642500000027642530/10/20211413    3190333624042196419000038569900001124970000000000000                                                                              SONDA FOLEY #14 2 VIASSOB     1
CC0000064541334A202100000027642500000027642530/10/20211413    3190333624042196419000019488700000753270000000000000                                                                              VICRYL 3-0 SH1 VCP311HSOB     4
CC0000064541334A202100000027642500000027642530/10/20211413    31903336240421964190000M03AB100001371510000000000000                                                            ADECUAC SUCCINILCOLINA  100mg/mL SOL INYVAL     1
CC0000064541334A202100000027642500000027642530/10/20211413    3190333624042196419000062750100001405910000000000000                                                                 INFOVAC CANISTER 1000 ML M8275093/5SOB     1
CC0000064541334A202100000027642500000027642530/10/20211413    3190333624042196419000030161400001459220000000000000                                                                       MANGUERA SUCCION 6 MM*3.1 MTSSOB     1
CC0000064541334A202100000027642500000027642530/10/20211413    3190333624042196419000017565400000232590000000000000                                                                             PROLENE 1 75 CT-1 8425HSIN     2
CC0000064541334A202100000027642500000027642530/10/20211413    3190333624042196419000043879400001138170000000000000                                                                  HOJA BISTURI # 10 CSSB 10 01002000SOB     1
CC0000064541334A202100000027642500000027642530/10/20211413    31903336240421964190000E1AB0300003888390000000000000                                                            SOLUCION SALINA 0.9% SLN INY BO X 500 MLBOL     1
CC0000064541334A202100000027642500000027642530/10/20211413    3190333624042196419000022425200000548240000000000000                       EXTENSION DE ANESTESIA REF 1139 SOB X 1 SHERLEG  ADULTO BN EXENTO-DC.417/2020SIN     1
CC0000064541334A202100000027642500000027642530/10/20211413    3190333624042196419000035356500003919000000000000000                                                                                        LLAVE 3 VIASSOB     2
CC0000064541334A202100000027642500000027642530/10/20211413    3190333624042196419000022426800001140510000000000000                                                                    EQUIPO MACROGOTEO BAXTER MRC0001SOB     1
CC0000064541334A202100000027642500000027642530/10/20211413    3190333624042196419000011073300001096420000000000000                                                                BOLSA DE SUCCION DE FLUIDOS x 2500mLBOL     1
CC0000064541334A202100000027642500000027642530/10/20211413    3190333624042196419000053074400000607910000000000000                                                               GASA ESTERIL 10*10 SOBRE X 3 UNIDADESSOB     3
CC0000064541334A202100000027642500000027642530/10/20211413    3190333624042196419000011085400001083360000000000000                                                                       GUANTE QUIRURGICO TALLA 8 1/2SOB     1
CC0000064541334A202100000027642500000027642530/10/20211413    3190333624042196419000011085300001082140000000000000                                                                           GUANTE QUIRURGICO TALLA 8SOB     3
CC0000064541334A202100000027642500000027642530/10/20211413    3190333624042196419000011085200001585390000000000000                                                                       GUANTE QUIRURGICO TALLA 7 1/2SOB     3
CC0000064541334A202100000027642500000027642530/10/20211413    3190333624042196419000011085100001082120000000000000                                                                           GUANTE QUIRURGICO TALLA 7SOB     3
CC0000064541334A202100000027642500000027642530/10/20211413    3190333624042196419000043485100001618510000000000000                GUANTE QUIRURGICO DE LATEX REF 2D72N65X CAJ X 50 PROTEXIS  6.5 BN EXENTO-DC.417/2020SOB     2
CC0000064541334A202100000027642500000027642530/10/20211413    3190333624042196419000051515500000598160000000000000                                                                            MASCARILLA ANESTESIA # 5SIN     1
CC0000064541334A202100000027642500000027642530/10/20211413    3190333624042196419000038568100000258050000000000000                                                                         CANULA OXIGENO NASAL ADULTOSIN     1
CC0000064541334A202100000027642500000027642530/10/20211413    3190333624042196419000011099300000777780000000000000                                                                     FILTRO BACTERIANO VIRICO ADULTOBOL     1
CC0000064541334A202100000027642500000027642530/10/20211413    3190333624042196419000031010900000762730000000000000                                                                          CANULA GUEDEL # 4 (100 MM)SOB     1
CC0000064541334A202100000027642500000027642530/10/20211413    3190333624042196419000039175000001072050000000000000                                                                           TUBO ENDOTRAQUEAL C/B 7.0SOB     1
CC0000064541334A202100000027642500000027642530/10/20211413    3190333624042196419000024673000001411210000000000000                                                                  JERINGA DESECHABLE 3 ML 21 X 1 1/2SOB     1
CC0000064541334A202100000027642500000027642530/10/20211413    3190333624042196419000024673600000222980000000000000                                                                     JERINGA DESECHABLE 5 ml 27*11/2SIN     3
CC0000064541334A202100000027642500000027642530/10/20211413    3190333624042196419000024674000000220660000000000000                             JERINGA A 3 PARTES CON AGUJA  SOB X 1 RYMCO  10ML BN EXENTO-DC.417/2020SIN     6
CC0000064541334A202100000027642500000027642530/10/20211413    31903336240421964190000E1AD0200003888320000000000000                                                                              HARTMAN SLN INY 500 MLBOL     1
CC0000064541334A202100000027642500000027642530/10/20211413    31903336240421964190000E1AB0700003888350000000000000                                                            SOLUCION SALINA 0.9% SLN INY BO X 250 MLBOL     1
CC0000064541334A202100000027642500000027642530/10/20211413    31903336240421964190000E1AB0200000199290000000000000                                                            SOLUCION SALINA 0.9% SLN INY BO X 100 MLBIN     1
CC0000064541334A202100000027642500000027642530/10/20211413    31903336240421964190000N02B1100001169680000000000000                              PARACETAMOL 1000MG/100ML(10MG/ML) SOL INY  VIAL X 100ML FRESENIUS KABIVAL     1
CC0000064541334A202100000027642500000027642530/10/20211413    31903336240421964190000A2BC0900000200150000000000000                                                                               ORAZOLE Sln Iny 40 mgCIN     1
CC0000064541334A202100000027642500000027642530/10/20211413    31903336240421964190000M1AX0200001569410000000000000                                                                         KETRON SLN INY 30 MG / 2 MLAMP     1
CC0000064541334A202100000027642500000027642530/10/20211413    31903336240421964190000N01A0400003939010000000000000                                               MAYOPROFOL 200MG/20ML(1%) EMUL INY CAJ X 1VIAL X 20MLVAL     1
CC0000064541334A202100000027642500000027642530/10/20211413    31903336240421964190000N2BB1100000217160000000000000                                                                      NOVALGINA Sln Iny 2.5 g x 5 mlAMP     1
CC0000064541334A202100000027642500000027642530/10/20211413    31903336240421964190000A4AD0200000202990000000000000                                                                     PLITICAN HCL Sln Iny 50 mg/2 mlAMP     1
CC0000064541334A202100000027642500000027642530/10/20211413    31903336240421964190000H02AB500001664950000000000000                                                            DEXAMETASONA SLN INY 8 MG/2 ML AMP /CDS/AMP     1
CC0000064541334A202100000027642500000027642530/10/20211413    31903336240421964190000N1BA2400001195280000000000000                                                                    LIDOCAINA 2% S/E Sln Iny x 10 mlAMP     2
CC0000064541334A202100000027642500000027642530/10/20211413    31903336240421964190000N2AA0700001587170000000000000                                                                                 ULTIVA Sln Iny 2 mgVAL     1
CC0000064541334A202100000027642500000027642530/10/20211413    31903336240421964190000N1AH0200003906560000000000000                                                                     FENTANIL Iny 0.05 mg/ml x 10 mlAMP     1
CC0000064541334A202100000027642500000027642530/10/20211413    31903336240421964190000K5800100001455290000000000000                                                             APOSITO INCISION PREVENA 20CM PRE1055USSOB     1
CC0000064541334A202100000027642500000027642530/10/20211413    31903336240421964190000J1CB0600000468340000000000000                                                           UNASYN IM-IV (1+0.5)GR POLV INY INST VIALVAL     2
