CC0000064541334H202100000555176800000555176830/10/20211722    31903290237421964250000A4AD0200000202990000000000000                                                                     PLITICAN HCL Sln Iny 50 mg/2 mlAMP     3
CC0000064541334H202100000555176800000555176830/10/20211722    31903290237421964250000B1AB0200003939510000000000000                 ENOXAPARINA SODICA 40MG/0.4ML(100MG/ML) SOL INY INST CAJ X 2JERPREL X 0.4ML TECHDOWJRP     2
CC0000064541334H202100000555176800000555176830/10/20211722    31903290237421964250000C2DE1400001277050000000000000                                                                         NIFEDIPINO CAPSULA LM 30 MGCAP     1
CC0000064541334H202100000555176800000555176830/10/20211722    31903290237421964250000N2AX0400001204140000000000000                                                                             TRAMAL Sln Iny 50 mg/mlAMP     3
CC0000064541334H202100000555176800000555176830/10/20211722    31903290237421964250000N03A0800001278440000000000000                                                                                LYRICA CAP 75 MG /R/CAP     1
