CC0000051960635U202100000555158500000555158530/10/20210918     3300004239421964320000A02BC100001677520000000000000                                                                ESOMEPRAZOL POLVO LIOF INY 40 MG /R/VAL     1
CC0000051960635U202100000555158500000555158530/10/20211619     3300004239421964320000A4AD0200000202990000000000000                                                                     PLITICAN HCL Sln Iny 50 mg/2 mlAMP     1
CC0000051960635U202100000555158500000555158530/10/20210918     3300004239421964320000A4AD0200000202990000000000000                                                                     PLITICAN HCL Sln Iny 50 mg/2 mlAMP     1
CC0000051960635U202100000555158500000555158530/10/20211646    31902336239421964320000E1AB0500003888400000000000000                                                              SOLUCION SALINA 0.9% SLN INY X 1000 MLBOL     1
CC0000051960635U202100000555158500000555158530/10/20210835    31902336239421964320000E1AB0500003888400000000000000                                                              SOLUCION SALINA 0.9% SLN INY X 1000 MLBOL     1
CC0000051960635U202100000555158500000555158530/10/20211619     3300004239421964320000J01D1300001469600000000000000                                                                               POZINEG POLVO INY 1 GVAL     1
CC0000051960635U202100000555158500000555158530/10/20211010     3300004239421964320000J01D1300001469600000000000000                                                                               POZINEG POLVO INY 1 GVAL     1
CC0000051960635U202100000555158500000555158530/10/20211010     3300004239421964320000J01XA400001212420000000000000                                                               VANCOMICINA POLVO LIOF SLN INY 500 MGVAL     2
CC0000051960635U202100000555158500000555158530/10/20210918     3300004239421964320000M1AB0900001019600000000000000                                                                              VOLTAREN Sln Iny 75 mgAMP     1
CC0000051960635U202100000555158500000555158530/10/20211619     3300004239421964320000N02B1100001169680000000000000                              PARACETAMOL 1000MG/100ML(10MG/ML) SOL INY  VIAL X 100ML FRESENIUS KABIVAL     1
CC0000051960635U202100000555158500000555158530/10/20210918     3300004239421964320000N02B1100001169680000000000000                              PARACETAMOL 1000MG/100ML(10MG/ML) SOL INY  VIAL X 100ML FRESENIUS KABIVAL     1
