CC0001002182946U202100050131438100050131438130/10/20211549    3190271223942196432000049428300000860750000000000000                                                                       VENDA ELASTICA 4*5 NO ESTERILBOL     1
CC0001002182946U202100050131438100050131438130/10/20211549    3190271223942196432000049419600001679900000000000000                                                                        VENDA ALGODON 4*5 NO ESTERILSOB     1
CC0001143233677U202100050131438100050131438130/10/20211549    3190271223942196432000011048600000223020000000000000                                                                 JERINGA VACUNACION 3ML C/AGU 302542SIN     2
