CC0000027001478H202100000555169500000555169530/10/20211309    31500192237421964250000A02BC100001677520000000000000                                                                ESOMEPRAZOL POLVO LIOF INY 40 MG /R/VAL     1
CC0000027001478H202100000555169500000555169530/10/20211309    31500192237421964250000A03A0800001177800000000000000                                                                      COLYPAN SLN INY 50 MG/5 ML /R/AMP     2
CC0000027001478H202100000555169500000555169530/10/20211309    31500192237421964250000J1CB0600000468340000000000000                                                           UNASYN IM-IV (1+0.5)GR POLV INY INST VIALVAL     6
CC0000027001478H202100000555169500000555169530/10/20211309    31500192237421964250000N02B1100001169680000000000000                              PARACETAMOL 1000MG/100ML(10MG/ML) SOL INY  VIAL X 100ML FRESENIUS KABIVAL     3
CC0000027001478H202100000555169500000555169530/10/20211309    31500192237421964250000A3BB0300000512950000000000000                                                             BUSCAPINA COMP Sln Iny 20 mg+2.5 g/5 mlAMP     3
CC0000027001478H202100000555169500000555169530/10/20211309    31500192237421964250000N05C0800001314910000000000000                                                                                ISOKLON TAB 3 MG /R/TAB     2
