RC0001043195507U202100050131442500050131442530/10/20212143    3190016523942196432000024674000000220660000000000000                             JERINGA A 3 PARTES CON AGUJA  SOB X 1 RYMCO  10ML BN EXENTO-DC.417/2020SIN     2
RC0001043195507U202100050131442500050131442530/10/20212143    31900165239421964320000Q0000200000473250000000000000                                                                             INHALOCAMARA PEDIATRICACIN     1
RC0001043195507U202100050131442500050131442530/10/20212143    31900165239421964320000E1AB0200000199290000000000000                                                            SOLUCION SALINA 0.9% SLN INY BO X 100 MLBIN     1
