CC0000044150179A202100000027656900000027656930/10/20210811    31903336240421964190000N07X0300003913670000000000000                                    DEXMEDETOMIDINA 400MCG/100ML(4MCG/ML) SOL INY BOL X 100ML BAXTERBOL     1
CC0000044150179A202100000027656900000027656930/10/20210811    31903336240421964190000K6700400000233790000000000000                                                                   SPONGOSTAN ANAL MS0004  3CM X 8CMSIN     1
CC0000044150179A202100000027656900000027656930/10/20210811    3190333624042196419000045138000001413890000000000000                                                                       LAPIZ ELECTROBISTURI  SOB X 1SOB     1
CC0000044150179A202100000027656900000027656930/10/20210811    31903336240421964190000N1BA1900000554750000000000000                                                                     ROXICAINA JALEA 2% TUBO X 30 MLTUB     1
CC0000044150179A202100000027656900000027656930/10/20210811    31903336240421964190000E1AB0300003888390000000000000                                                            SOLUCION SALINA 0.9% SLN INY BO X 500 MLBOL     1
CC0000044150179A202100000027656900000027656930/10/20210811    3190333624042196419000022425200000548240000000000000                       EXTENSION DE ANESTESIA REF 1139 SOB X 1 SHERLEG  ADULTO BN EXENTO-DC.417/2020SIN     1
CC0000044150179A202100000027656900000027656930/10/20210811    3190333624042196419000035356500003919000000000000000                                                                                        LLAVE 3 VIASSOB     2
CC0000044150179A202100000027656900000027656930/10/20210811    3190333624042196419000022426800001140510000000000000                                                                    EQUIPO MACROGOTEO BAXTER MRC0001SOB     1
CC0000044150179A202100000027656900000027656930/10/20210811    31903336240421964190000J01DA300001239950000000000000                                                            CEFAZOLINA SODICA POLVO LIOF SLN INY 1 GVAL     2
CC0000044150179A202100000027656900000027656930/10/20210811    3190333624042196419000011073300001096420000000000000                                                                BOLSA DE SUCCION DE FLUIDOS x 2500mLBOL     1
CC0000044150179A202100000027656900000027656930/10/20210811    3190333624042196419000024674000000220660000000000000                             JERINGA A 3 PARTES CON AGUJA  SOB X 1 RYMCO  10ML BN EXENTO-DC.417/2020SIN     4
CC0000044150179A202100000027656900000027656930/10/20210811    3190333624042196419000024674500000322810000000000000                                                                   JERINGA DESECHABLE 20 ml 21*1 1/2SIN     2
CC0000044150179A202100000027656900000027656930/10/20210811    3190333624042196419000020750600000296780000000000000                                                                PLACA ELECTRO RETORNO PACIENTE E7506SIN     1
CC0000044150179A202100000027656900000027656930/10/20210811    3190333624042196419000011082700001620070000000000000                                                               EQUIPO SET PRIMARIO C/CLAVE REF 14001BOL     1
CC0000044150179A202100000027656900000027656930/10/20210811    3190333624042196419000053074400000607910000000000000                                                               GASA ESTERIL 10*10 SOBRE X 3 UNIDADESSOB     3
CC0000044150179A202100000027656900000027656930/10/20210811    3190333624042196419000011085300001082140000000000000                                                                           GUANTE QUIRURGICO TALLA 8SOB     3
CC0000044150179A202100000027656900000027656930/10/20210811    3190333624042196419000011085100001082120000000000000                                                                           GUANTE QUIRURGICO TALLA 7SOB     2
CC0000044150179A202100000027656900000027656930/10/20210811    3190333624042196419000043485100001618510000000000000                GUANTE QUIRURGICO DE LATEX REF 2D72N65X CAJ X 50 PROTEXIS  6.5 BN EXENTO-DC.417/2020SOB     2
CC0000044150179A202100000027656900000027656930/10/20210811    3190333624042196419000038568100000258050000000000000                                                                         CANULA OXIGENO NASAL ADULTOSIN     1
CC0000044150179A202100000027656900000027656930/10/20210811    3190333624042196419000027292100000224750000000000000                                                                                  AGUJA PERICAN G-18SIN     1
CC0000044150179A202100000027656900000027656930/10/20210811    31903336240421964190000E1AD0200003888320000000000000                                                                              HARTMAN SLN INY 500 MLBOL     2
CC0000044150179A202100000027656900000027656930/10/20210811    31903336240421964190000N02B1100001169680000000000000                              PARACETAMOL 1000MG/100ML(10MG/ML) SOL INY  VIAL X 100ML FRESENIUS KABIVAL     1
CC0000044150179A202100000027656900000027656930/10/20210811    31903336240421964190000A4AD0200000202990000000000000                                                                     PLITICAN HCL Sln Iny 50 mg/2 mlAMP     1
CC0000044150179A202100000027656900000027656930/10/20210811    31903336240421964190000A2BC0900000200150000000000000                                                                               ORAZOLE Sln Iny 40 mgCIN     1
CC0000044150179A202100000027656900000027656930/10/20210811    31903336240421964190000M1AX0200001569410000000000000                                                                         KETRON SLN INY 30 MG / 2 MLAMP     1
CC0000044150179A202100000027656900000027656930/10/20210811    31903336240421964190000H02AB500001664950000000000000                                                            DEXAMETASONA SLN INY 8 MG/2 ML AMP /CDS/AMP     2
CC0000044150179A202100000027656900000027656930/10/20210811    31903336240421964190000N01B0600003888900000000000000                                                    BUPINEST 75MG/10ML(0.75%) SOL INY CAJ X 24AMPACKAPC     2
CC0000044150179A202100000027656900000027656930/10/20210811    31903336240421964190000N1BA2400001195280000000000000                                                                    LIDOCAINA 2% S/E Sln Iny x 10 mlAMP     2
CC0000044150179A202100000027656900000027656930/10/20210811    31903336240421964190000N01B0200003888110000000000000                                           ROXICAINA SE 100MG/10ML(1%) SOL INY CAJ X 24AMPACK X 10MLAPC     1
CC0000044150179A202100000027656900000027656930/10/20210811    31903336240421964190000N1AH0200003906560000000000000                                                                     FENTANIL Iny 0.05 mg/ml x 10 mlAMP     1
