RC0001044671880U202100050131430900050131430930/10/20210345    3150054723942196432000038568200000257000000000000000                                                                                   SONDA NELATON #06SIN     1
RC0001044671880U202100050131430900050131430930/10/20210345    3150054723942196432000011048600000223020000000000000                                                                 JERINGA VACUNACION 3ML C/AGU 302542SIN     2
RC0001044671880U202100050131430900050131430930/10/20210345    3150054723942196432000011085100001082120000000000000                                                                           GUANTE QUIRURGICO TALLA 7SOB     2
RC0001044671880U202100050131430900050131430930/10/20210345    3150054723942196432000013077800000471960000000000000                                                             GASA NO TEJIDA EST 7.5 X 7.5 SOB X 3 UNSOB     4
