CC0000022354690H202100000555177300000555177330/10/20212159     3300009237421964250000A02BC100001677520000000000000                                                                ESOMEPRAZOL POLVO LIOF INY 40 MG /R/VAL     1
CC0000022354690H202100000555177300000555177330/10/20212159     3300009237421964250000C3DA0500001278910000000000000                                                                               GLUCOPHAGE TAB 850 MGTAB     1
CC0000022354690H202100000555177300000555177330/10/20212159     3300009237421964250000H03A0900001278900000000000000                                                                                   EUTIROX TB 75 MCGTAB     1
CC0000022354690H202100000555177300000555177330/10/20212159     3300009237421964250000J1CB1800001134180000000000000                                                                             TAZOCIN Polvo Iny 4.5 gVAL     1
CC0000022354690H202100000555177300000555177330/10/20211745     3300009237421964250000J1CB1800001134180000000000000                                                                             TAZOCIN Polvo Iny 4.5 gVAL     3
CC0000022354690H202100000555177300000555177330/10/20212159     3300009237421964250000N2BB0500000217140000000000000                                                                          NOVALGINA Sln Iny 1 g/2 mlAMP     4
CC0000022354690H202100000555177300000555177330/10/20212159     3300009237421964250000N02B1100001169680000000000000                              PARACETAMOL 1000MG/100ML(10MG/ML) SOL INY  VIAL X 100ML FRESENIUS KABIVAL     3
