RC0001201286345H202100015052706500015052706530/10/20211031    3190182623742196425000038568300000257010000000000000                                                                                   SONDA NELATON #08SIN     1
RC0001201286345H202100015052706500015052706530/10/20211031    3190182623742196425000038568200000257000000000000000                                                                                   SONDA NELATON #06SIN     1
RC0001201286345H202100015052706500015052706530/10/20211031    3190182623742196425000043485100001618510000000000000                GUANTE QUIRURGICO DE LATEX REF 2D72N65X CAJ X 50 PROTEXIS  6.5 BN EXENTO-DC.417/2020SOB     1
RC0001201286345H202100015052706500015052706530/10/20211031    3190182623742196425000013077800000471960000000000000                                                             GASA NO TEJIDA EST 7.5 X 7.5 SOB X 3 UNSOB     3
