RC0001140714746H202100015122511600015122511630/10/20210259    3190307023742196425000011060400001010330000000000000                                                            SENSOR PULSOX SPO2 LNCS NEONATAL MP00792PZA     1
RC0001140714746H202100015122511600015122511630/10/20210259    3190307023742196425000045136100001419300000000000000                                                                            LANCETA DEXTROMETER X UNPZA     2
RC0001140714746H202100015122511600015122511630/10/20210259    3190307023742196425000024674000000220660000000000000                             JERINGA A 3 PARTES CON AGUJA  SOB X 1 RYMCO  10ML BN EXENTO-DC.417/2020SIN    10
RC0001140714746H202100015122511600015122511630/10/20210259    3190307023742196425000011082700001620070000000000000                                                               EQUIPO SET PRIMARIO C/CLAVE REF 14001BOL     1
RC0001140714746H202100015122511600015122511630/10/20210259    3190307023742196425000030936900001431840000000000000                                                                                              BURETABOL     1
RC0001140714746H202100015122511600015122511630/10/20210259    31903070237421964250000E1AC0100000199400000000000000                                                                          SUERO MIXTO Sln Iny 500 mlBIN     1
RC0001140714746H202100015122511600015122511630/10/20210259    3190307023742196425000011137100001419310000000000000                                                               TIRA GLUCOMETRIA FREESTYLE H OPTIUM .PZA     2
