CC0000026812268H202100015052706300015052706330/10/20210937    3190099723742196425000001956000001620610000000000000                                                                      CONECTOR MICRO CLAVE LAT-MC100SOB     1
CC0000022440074H202100015052706300015052706330/10/20210937    3190099723742196425000001956000001620610000000000000                                                                      CONECTOR MICRO CLAVE LAT-MC100SOB     1
TI0001073826213H202100015052706300015052706330/10/20210937    31900997237421964250000E1AD0200003888320000000000000                                                                              HARTMAN SLN INY 500 MLBOL     2
CC0001143227023H202100015052706300015052706330/10/20210937    31900997237421964250000E1AD0200003888320000000000000                                                                              HARTMAN SLN INY 500 MLBOL     1
CC0000009137445H202100015052706300015052706330/10/20210937    31900997237421964250000E1AD0200003888320000000000000                                                                              HARTMAN SLN INY 500 MLBOL     1
CC0000022543387H202100015052706300015052706330/10/20210937    31900997237421964250000E1AD0200003888320000000000000                                                                              HARTMAN SLN INY 500 MLBOL     1
CC0000022440074H202100015052706300015052706330/10/20210937    31900997237421964250000E1AB0300003888390000000000000                                                            SOLUCION SALINA 0.9% SLN INY BO X 500 MLBOL     1
CC0000003951629H202100015052706300015052706330/10/20210937    31900997237421964250000E1AB0300003888390000000000000                                                            SOLUCION SALINA 0.9% SLN INY BO X 500 MLBOL     1
CC0001002182810H202100015052706300015052706330/10/20210937    31900997237421964250000E1AB0300003888390000000000000                                                            SOLUCION SALINA 0.9% SLN INY BO X 500 MLBOL     1
