CC0000008683889H202100000555150800000555150830/10/20210512     3300009237421964250000A04A1400001467560000000000000                                                                      ONDANSETRON SLN INY 8 MG/ 4 MLVAL     1
CC0000008683889H202100000555150800000555150830/10/20211017    31500192237421964250000E1AB0300003888390000000000000                                                            SOLUCION SALINA 0.9% SLN INY BO X 500 MLBOL     1
CC0000008683889H202100000555150800000555150830/10/20210513     3300009237421964250000H03A0400001278890000000000000                                                                                  EUTIROX TAB 50 MCGTAB     2
CC0000008683889H202100000555150800000555150830/10/20210512     3300009237421964250000N2BB0500000217140000000000000                                                                          NOVALGINA Sln Iny 1 g/2 mlAMP     2
CC0000008683889H202100000555150800000555150830/10/20210513     3300009237421964250000N02B1100001169680000000000000                              PARACETAMOL 1000MG/100ML(10MG/ML) SOL INY  VIAL X 100ML FRESENIUS KABIVAL     3
CC0000008683889H202100000555150800000555150830/10/20210513     3300009237421964250000A02BC700001684270000000000000                                                            OMEPRAZOL 40MG POLVO LIOFILIZADO AMPOLLAVAL     1
