CC0000008697210H202100000555145600000555145630/10/20210806     3300009237421964250000N06DX300001335230000000000000                                                                MEMANTINA 10MG TABLETA RECUBIERTA/R/TAB     2
CC0000008697210H202100000555145600000555145630/10/20211718     3300009237421964250000B1AB0200003939510000000000000                 ENOXAPARINA SODICA 40MG/0.4ML(100MG/ML) SOL INY INST CAJ X 2JERPREL X 0.4ML TECHDOWJRP     1
CC0000008697210H202100000555145600000555145630/10/20210805     3300009237421964250000J01DA300001239950000000000000                                                            CEFAZOLINA SODICA POLVO LIOF SLN INY 1 GVAL     6
CC0000008697210H202100000555145600000555145630/10/20210805     3300009237421964250000N2AX0900001672040000000000000                                                                              TRAMADOL SLN INY 50 MGAMP     2
CC0000008697210H202100000555145600000555145630/10/20210805     3300009237421964250000N03AB200001168090000000000000                                                                       FENITOINA Sln Iny 250 mg/5 mlAMP     1
CC0000008697210H202100000555145600000555145630/10/20210416     3300009237421964250000N03AB200001168090000000000000                                                                       FENITOINA Sln Iny 250 mg/5 mlAMP     1
