CC0000008565480H202100015012571300015012571330/10/20211013    3190323923742196425000038569400000256750000000000000                                                                        SONDA ASPIRACION CONTROL #14SIN     7
CC0000008565480H202100015012571300015012571330/10/20211013    3190323923742196425000036441300000236540000000000000                                                                    JERINGA 1 ML GASES ARTERIAL 9023SIN     2
CC0000008565480H202100015012571300015012571330/10/20211013    3190323923742196425000024674000000220660000000000000                             JERINGA A 3 PARTES CON AGUJA  SOB X 1 RYMCO  10ML BN EXENTO-DC.417/2020SIN     2
CC0000008565480H202100015012571300015012571330/10/20211013    3190323923742196425000011085100001082120000000000000                                                                           GUANTE QUIRURGICO TALLA 7SOB     7
