CC0001143120182H202100015112655800015112655830/10/20211147    31902357237421964250000V07A1300000502600000000000000                                                                                AGUA ESTERIL x 10 mlAMP     5
CC0001045684571H202100015112655800015112655830/10/20211147    31902357237421964250000V07A1300000502600000000000000                                                                                AGUA ESTERIL x 10 mlAMP     5
CC0000077185534H202100015112655800015112655830/10/20211147    31902357237421964250000V07A1300000502600000000000000                                                                                AGUA ESTERIL x 10 mlAMP     5
CC0001143120182H202100015112655800015112655830/10/20211147    3190235723742196425000045136100001419300000000000000                                                                            LANCETA DEXTROMETER X UNPZA     3
CC0001045684571H202100015112655800015112655830/10/20211147    3190235723742196425000045136100001419300000000000000                                                                            LANCETA DEXTROMETER X UNPZA     3
CC0000077185534H202100015112655800015112655830/10/20211147    3190235723742196425000045136100001419300000000000000                                                                            LANCETA DEXTROMETER X UNPZA     3
CC0001143120182H202100015112655800015112655830/10/20211147    3190235723742196425000024674000000220660000000000000                             JERINGA A 3 PARTES CON AGUJA  SOB X 1 RYMCO  10ML BN EXENTO-DC.417/2020SIN    20
CC0001045684571H202100015112655800015112655830/10/20211147    3190235723742196425000024674000000220660000000000000                             JERINGA A 3 PARTES CON AGUJA  SOB X 1 RYMCO  10ML BN EXENTO-DC.417/2020SIN    20
CC0000077185534H202100015112655800015112655830/10/20211147    3190235723742196425000024674000000220660000000000000                             JERINGA A 3 PARTES CON AGUJA  SOB X 1 RYMCO  10ML BN EXENTO-DC.417/2020SIN    20
CC0001143120182H202100015112655800015112655830/10/20211147    3190235723742196425000011081700001413910000000000000                                                                EQUIPO ADM NUTRICIONES 673662 BAXTERBOL     1
CC0001045684571H202100015112655800015112655830/10/20211147    3190235723742196425000011081700001413910000000000000                                                                EQUIPO ADM NUTRICIONES 673662 BAXTERBOL     1
CC0001045684571H202100015112655800015112655830/10/20211147    3190235723742196425000001956000001620610000000000000                                                                      CONECTOR MICRO CLAVE LAT-MC100SOB     2
CC0001143120182H202100015112655800015112655830/10/20211147    31902357237421964250000E1AB0300003888390000000000000                                                            SOLUCION SALINA 0.9% SLN INY BO X 500 MLBOL     1
CC0001045684571H202100015112655800015112655830/10/20211147    31902357237421964250000E1AB0700003888350000000000000                                                            SOLUCION SALINA 0.9% SLN INY BO X 250 MLBOL     1
CC0001143120182H202100015112655800015112655830/10/20211147    3190235723742196425000011137100001419310000000000000                                                               TIRA GLUCOMETRIA FREESTYLE H OPTIUM .PZA     3
CC0001045684571H202100015112655800015112655830/10/20211147    3190235723742196425000011137100001419310000000000000                                                               TIRA GLUCOMETRIA FREESTYLE H OPTIUM .PZA     3
CC0000077185534H202100015112655800015112655830/10/20211147    3190235723742196425000011137100001419310000000000000                                                               TIRA GLUCOMETRIA FREESTYLE H OPTIUM .PZA     3
