CC0001140828821H202100000555151600000555151630/10/20211430     3300009237421964250000A2AH0200001128980000000000000                                                                           MILPAX SUSP ORAL X 360 MLFCO     1
CC0001140828821H202100000555151600000555151630/10/20210517     3300009237421964250000A02BC100001677520000000000000                                                                ESOMEPRAZOL POLVO LIOF INY 40 MG /R/VAL     1
CC0001140828821H202100000555151600000555151630/10/20210517     3300009237421964250000A4AD0200000202990000000000000                                                                     PLITICAN HCL Sln Iny 50 mg/2 mlAMP     2
CC0001140828821H202100000555151600000555151630/10/20211430     3300009237421964250000A6AC0200001467010000000000000                                                             LACTULAX JARABE 66.7G/100ML SOX15ML /R/SOB     1
CC0001140828821H202100000555151600000555151630/10/20210517     3300009237421964250000B1AB0200003939510000000000000                 ENOXAPARINA SODICA 40MG/0.4ML(100MG/ML) SOL INY INST CAJ X 2JERPREL X 0.4ML TECHDOWJRP     1
CC0001140828821H202100000555151600000555151630/10/20211119     3300009237421964250000C3CA0200000195520000000000000                                                                           LASIX SLN INY 20 MG/ 2 MLAMP     2
CC0001140828821H202100000555151600000555151630/10/20210517     3300009237421964250000H03AA500001315460000000000000                                                                                SYNTHROID TAB 50 MCGTAB     1
CC0001140828821H202100000555151600000555151630/10/20210517     3300009237421964250000N2BB0200000513030000000000000                                                                           LISALGIL Sln Iny 2 g/5 mlAMP     2
CC0001140828821H202100000555151600000555151630/10/20210517     3300009237421964250000N02B1100001169680000000000000                              PARACETAMOL 1000MG/100ML(10MG/ML) SOL INY  VIAL X 100ML FRESENIUS KABIVAL     1
CC0001140828821H202100000555151600000555151630/10/20211637    31903290237421964250000V07A1300000502600000000000000                                                                                AGUA ESTERIL x 10 mlAMP    10
