CC0000022438763H202100000555145100000555145130/10/20211344     3300009237421964250000A03F0300001626860000000000000                                                                   METOCLOPRAMIDA SLN INY 10 MG/2 MLAMP     4
CC0000022438763H202100000555145100000555145130/10/20211345     3300009237421964250000A10B1200001334790000000000000                                                                          JANUMET TAB 50/1000 MG /R/TAB     1
CC0000022438763H202100000555145100000555145130/10/20211408    31500519237421964250000E1AD0300000199490000000000000                                         LACTATO RINGER USP (HARTMANN)  SOL INY  BOL X 1000ML BAXTERBIN     1
CC0000022438763H202100000555145100000555145130/10/20211527     3300009237421964250000H02AB700000585860000000000000                                                                HIDROCORTISONA SUCCI POL LIOF 100 MGVAL     1
CC0000022438763H202100000555145100000555145130/10/20211344     3300009237421964250000H02AB700000585860000000000000                                                                HIDROCORTISONA SUCCI POL LIOF 100 MGVAL     2
CC0000022438763H202100000555145100000555145130/10/20210737     3300009237421964250000A02B1700001314860000000000000                                                                               ESOMEPRAZOL TAB 20 MGTAB     1
CC0000022438763H202100000555145100000555145130/10/20210152     3300009237421964250000A02B1700001314860000000000000                                                                               ESOMEPRAZOL TAB 20 MGTAB     1
CC0000022438763H202100000555145100000555145130/10/20210737     3300009237421964250000B01AB400000513360000000000000                                                                        CLENOX SLN INY 60 MG/ 0.6 MLJRP     1
CC0000022438763H202100000555145100000555145130/10/20210152     3300009237421964250000B01AB400000513360000000000000                                                                        CLENOX SLN INY 60 MG/ 0.6 MLJRP     1
CC0000022438763H202100000555145100000555145130/10/20211344     3300009237421964250000N2BE2200001252930000000000000                                                                             ACETAMINOFEN Tab 500 MGTAB    10
CC0000022438763H202100000555145100000555145130/10/20211345     3300009237421964250000N2BB0100000787510000000000000                                                                    DIPIRONA SODICA Sln Iny 1 g/2 mlAMP     9
CC0000022438763H202100000555145100000555145130/10/20211344     3300009237421964250000N2BB0100000787510000000000000                                                                    DIPIRONA SODICA Sln Iny 1 g/2 mlAMP     1
