CC0000008703888H202100000555147300000555147330/10/20211730     3300009237421964250000A02B0700001277010000000000000                                                                                NEXIUM Tab 20 mg /R/TAB     1
CC0000008703888H202100000555147300000555147330/10/20211029     3300009237421964250000A10A1600000795730000000000000                                                                      LEVEMIR JERINGA 300 UI/3 ML/R/CAR     1
CC0000008703888H202100000555147300000555147330/10/20211029     3300009237421964250000A10A1900000601020000000000000                                                                   APIDRA CARTU 100 UI/ML X 3 ML /R/CAR     1
CC0000008703888H202100000555147300000555147330/10/20211028     3300009237421964250000A10B1600001336910000000000000                                                                               TRAYENTA TAB 5 MG /R/TAB     2
CC0000008703888H202100000555147300000555147330/10/20211027     3300009237421964250000A12AA500001379260000000000000                                                                             OSTEOCAL TAB 600 MG /R/TAB     2
CC0000008703888H202100000555147300000555147330/10/20211218    31903272237421964250000E1AB0500003888400000000000000                                                              SOLUCION SALINA 0.9% SLN INY X 1000 MLBOL     1
CC0000008703888H202100000555147300000555147330/10/20210327    31900630237421964250000E1AB0500003888400000000000000                                                              SOLUCION SALINA 0.9% SLN INY X 1000 MLBOL     1
CC0000008703888H202100000555147300000555147330/10/20211437     3300009237421964250000C2AC0100001277460000000000000                                                                              CATAPRESAN TAB 150 MCGCOM     1
CC0000008703888H202100000555147300000555147330/10/20211028     3300009237421964250000C2AC0100001277460000000000000                                                                              CATAPRESAN TAB 150 MCGCOM     3
CC0000008703888H202100000555147300000555147330/10/20211028     3300009237421964250000C02C0300001277330000000000000                                                                                  PRAZOSINA TAB 1 MGTAB     1
CC0000008703888H202100000555147300000555147330/10/20211027     3300009237421964250000C02C0300001277330000000000000                                                                                  PRAZOSINA TAB 1 MGTAB     1
CC0000008703888H202100000555147300000555147330/10/20211028     3300009237421964250000C3CA0100001278130000000000000                                                                                     LASIX TAB 40 MGTAB     1
CC0000008703888H202100000555147300000555147330/10/20211437     3300009237421964250000C7AB1500001277290000000000000                                                                        BETALOC ZOK TAB LM 50 MG /R/TAB     1
CC0000008703888H202100000555147300000555147330/10/20211028     3300009237421964250000C7AB1500001277290000000000000                                                                        BETALOC ZOK TAB LM 50 MG /R/TAB     2
CC0000008703888H202100000555147300000555147330/10/20211028     3300009237421964250000C7FA0100001277270000000000000                                                                                     NORVAS TAB 5 MGTAB     2
CC0000008703888H202100000555147300000555147330/10/20211027     3300009237421964250000C10AA400001301110000000000000                                                                                   LIPITOR TAB 40 MGTAB     1
CC0000008703888H202100000555147300000555147330/10/20210828     3300009237421964250000J1CB1800001134180000000000000                                                                             TAZOCIN Polvo Iny 4.5 gVAL     1
CC0000008703888H202100000555147300000555147330/10/20210323     3300009237421964250000J1CB1800001134180000000000000                                                                             TAZOCIN Polvo Iny 4.5 gVAL     2
CC0000008703888H202100000555147300000555147330/10/20211437     3300009237421964250000N02B1100001169680000000000000                              PARACETAMOL 1000MG/100ML(10MG/ML) SOL INY  VIAL X 100ML FRESENIUS KABIVAL     1
CC0000008703888H202100000555147300000555147330/10/20210828     3300009237421964250000N02B1100001169680000000000000                              PARACETAMOL 1000MG/100ML(10MG/ML) SOL INY  VIAL X 100ML FRESENIUS KABIVAL     3
CC0000008703888H202100000555147300000555147330/10/20210323     3300009237421964250000N02B1100001169680000000000000                              PARACETAMOL 1000MG/100ML(10MG/ML) SOL INY  VIAL X 100ML FRESENIUS KABIVAL     3
CC0000008703888H202100000555147300000555147330/10/20211348    31903308237421964250000V07A1300000502600000000000000                                                                                AGUA ESTERIL x 10 mlAMP     6
