CC0000032683043H202100000555175900000555175930/10/20211632    31500170237421964250000B1AB1200003939350000000000000                 ENOXAPARINA SODICA 80MG/0.8ML(100MG/ML) SOL INY INST CAJ X 2JERPREL X 0.8ML TECHDOWJRP     1
CC0000032683043H202100000555175900000555175930/10/20211653    31500120237421964250000N1BA2400001195280000000000000                                                                    LIDOCAINA 2% S/E Sln Iny x 10 mlAMP     1
CC0000032683043H202100000555175900000555175930/10/20211632    31500170237421964250000A02B0800001276960000000000000                                                                                 OMEPRAZOL CAP 20 MGCAP     1
CC0000032683043H202100000555175900000555175930/10/20211632    31500170237421964250000A06A1700001333140000000000000                                                                                 BISACODILO TAB 5 MGTAB     3
CC0000032683043H202100000555175900000555175930/10/20211632    31500170237421964250000J01CR300001659480000000000000                                                                  DELBACTAM POLVO LIOF SLN INY 4.5 GVAL     3
CC0000032683043H202100000555175900000555175930/10/20211632    31500170237421964250000N2BE2200001252930000000000000                                                                             ACETAMINOFEN Tab 500 MGTAB     4
