CC0001140826602H202100915976103000915976103030/10/20211822    3150023523742196425000016830000000970620000000000000                                                             SIST FIJACION CAT PERIFERICO 6.5X7 1683SOB     1
CC0001140826602H202100915976103000915976103030/10/20211822    31500235237421964250000Q1AA7300000610640000000000000                                                            CATETER PERIFE INTROCAN # 22G 4251628-04SIN     1
CC0001140826602H202100915976103000915976103030/10/20211822    3150023523742196425000001956000001620610000000000000                                                                      CONECTOR MICRO CLAVE LAT-MC100SOB     1
CC0001140826602H202100915976103000915976103030/10/20212010    31900627237421964250000E1AB0300003888390000000000000                                                            SOLUCION SALINA 0.9% SLN INY BO X 500 MLBOL     1
