CC0000022570819U202100050131439700050131439730/10/20211751    3190232723942196432000024674000000220660000000000000                             JERINGA A 3 PARTES CON AGUJA  SOB X 1 RYMCO  10ML BN EXENTO-DC.417/2020SIN     3
CC0000022570819U202100050131439700050131439730/10/20211751    31902327239421964320000Q1AA7200000610630000000000000                                                            CATETER PERIFE INTROCAN # 20G 4251644-04SIN     1
CC0000022570819U202100050131439700050131439730/10/20211751    3190232723942196432000030936900001431840000000000000                                                                                              BURETABOL     1
CC0000022570819U202100050131439700050131439730/10/20211751    3190232723942196432000016830000000970620000000000000                                                             SIST FIJACION CAT PERIFERICO 6.5X7 1683SOB     1
CC0000022570819U202100050131439700050131439730/10/20211751    31902327239421964320000E1AB1100003888280000000000000                                                                        SOLUCION SALINA 0.9% X 50 mlBOL     1
