RC0001234099873U202100050131438200050131438230/10/20211557    3150040623942196432000024674000000220660000000000000                             JERINGA A 3 PARTES CON AGUJA  SOB X 1 RYMCO  10ML BN EXENTO-DC.417/2020SIN     2
RC0001234099873U202100050131438200050131438230/10/20211557    31500406239421964320000Q0000200000473250000000000000                                                                             INHALOCAMARA PEDIATRICACIN     1
RC0001234099873U202100050131438200050131438230/10/20211557    31500406239421964320000E1AB1100003888280000000000000                                                                        SOLUCION SALINA 0.9% X 50 mlBOL     1
