RC0001103757159H202100000555142600000555142630/10/20211104    31903307237421964250000E1AB1100003888280000000000000                                                                        SOLUCION SALINA 0.9% X 50 mlBOL     2
RC0001103757159H202100000555142600000555142630/10/20211104    31903307237421964250000E1AD0300000199490000000000000                                         LACTATO RINGER USP (HARTMANN)  SOL INY  BOL X 1000ML BAXTERBIN     1
RC0001103757159H202100000555142600000555142630/10/20210045     3300009237421964250000N2BB0100000787510000000000000                                                                    DIPIRONA SODICA Sln Iny 1 g/2 mlAMP     1
