RC0001146544739U202100000555166300000555166330/10/20212137    31902171239421964320000E1AC0100000199400000000000000                                                                          SUERO MIXTO Sln Iny 500 mlBIN     1
RC0001146544739U202100000555166300000555166330/10/20211309    31902336239421964320000E1AC0100000199400000000000000                                                                          SUERO MIXTO Sln Iny 500 mlBIN     1
RC0001146544739U202100000555166300000555166330/10/20212137    31902171239421964320000E1AB0700003888350000000000000                                                            SOLUCION SALINA 0.9% SLN INY BO X 250 MLBOL     1
RC0001146544739U202100000555166300000555166330/10/20211205    31901012239421964320000E1AD0200003888320000000000000                                                                              HARTMAN SLN INY 500 MLBOL     1
RC0001146544739U202100000555166300000555166330/10/20212133     3300004239421964320000A12BA100000552980000000000000                                                            CLORURO POTASIO Sln Iny AMP 20 MEQ/10 MLAMP     1
RC0001146544739U202100000555166300000555166330/10/20211303     3300004239421964320000A12BA100000552980000000000000                                                            CLORURO POTASIO Sln Iny AMP 20 MEQ/10 MLAMP     1
RC0001146544739U202100000555166300000555166330/10/20212108     3300004239421964320000J1CB0600000468340000000000000                                                           UNASYN IM-IV (1+0.5)GR POLV INY INST VIALVAL     1
RC0001146544739U202100000555166300000555166330/10/20212108     3300004239421964320000N2BB0500000217140000000000000                                                                          NOVALGINA Sln Iny 1 g/2 mlAMP     1
RC0001146544739U202100000555166300000555166330/10/20211842     3300004239421964320000N2BB0500000217140000000000000                                                                          NOVALGINA Sln Iny 1 g/2 mlAMP     1
RC0001146544739U202100000555166300000555166330/10/20212108     3300004239421964320000N02B1100001169680000000000000                              PARACETAMOL 1000MG/100ML(10MG/ML) SOL INY  VIAL X 100ML FRESENIUS KABIVAL     1
RC0001146544739U202100000555166300000555166330/10/20211155     3300004239421964320000N02B1100001169680000000000000                              PARACETAMOL 1000MG/100ML(10MG/ML) SOL INY  VIAL X 100ML FRESENIUS KABIVAL     1
