RC0001084070572H202100015022525900015022525930/10/20210840    31903308237421964250000V07A1300000502600000000000000                                                                                AGUA ESTERIL x 10 mlAMP     8
RC0001146542960H202100015022525900015022525930/10/20210840    31903308237421964250000V07A1300000502600000000000000                                                                                AGUA ESTERIL x 10 mlAMP    10
CC0000036724804H202100015022525900015022525930/10/20210840    31903308237421964250000V07A1300000502600000000000000                                                                                AGUA ESTERIL x 10 mlAMP     8
CC0000008703888H202100015022525900015022525930/10/20210840    31903308237421964250000V07A1300000502600000000000000                                                                                AGUA ESTERIL x 10 mlAMP     6
CC0000032734764H202100015022525900015022525930/10/20210840    31903308237421964250000V07A1300000502600000000000000                                                                                AGUA ESTERIL x 10 mlAMP     6
CC0000008703888H202100015022525900015022525930/10/20210840    3190330823742196425000045136100001419300000000000000                                                                            LANCETA DEXTROMETER X UNPZA     6
TI0001066284726H202100015022525900015022525930/10/20210840    3190330823742196425000024674000000220660000000000000                             JERINGA A 3 PARTES CON AGUJA  SOB X 1 RYMCO  10ML BN EXENTO-DC.417/2020SIN     4
RC0001084070572H202100015022525900015022525930/10/20210840    3190330823742196425000024674000000220660000000000000                             JERINGA A 3 PARTES CON AGUJA  SOB X 1 RYMCO  10ML BN EXENTO-DC.417/2020SIN    10
RC0001146542960H202100015022525900015022525930/10/20210840    3190330823742196425000024674000000220660000000000000                             JERINGA A 3 PARTES CON AGUJA  SOB X 1 RYMCO  10ML BN EXENTO-DC.417/2020SIN    10
CC0000036724804H202100015022525900015022525930/10/20210840    3190330823742196425000024674000000220660000000000000                             JERINGA A 3 PARTES CON AGUJA  SOB X 1 RYMCO  10ML BN EXENTO-DC.417/2020SIN    10
CC0000008703888H202100015022525900015022525930/10/20210840    3190330823742196425000024674000000220660000000000000                             JERINGA A 3 PARTES CON AGUJA  SOB X 1 RYMCO  10ML BN EXENTO-DC.417/2020SIN     8
TI0001084454864H202100015022525900015022525930/10/20210840    3190330823742196425000024674000000220660000000000000                             JERINGA A 3 PARTES CON AGUJA  SOB X 1 RYMCO  10ML BN EXENTO-DC.417/2020SIN     6
CC0000032734764H202100015022525900015022525930/10/20210840    3190330823742196425000024674000000220660000000000000                             JERINGA A 3 PARTES CON AGUJA  SOB X 1 RYMCO  10ML BN EXENTO-DC.417/2020SIN     8
CC0000008703888H202100015022525900015022525930/10/20210840    3190330823742196425000011137100001419310000000000000                                                               TIRA GLUCOMETRIA FREESTYLE H OPTIUM .PZA     6
