CE0000000373941U202100000555140800000555140830/10/20210639     3300004239421964320000B1AB1200003939350000000000000                 ENOXAPARINA SODICA 80MG/0.8ML(100MG/ML) SOL INY INST CAJ X 2JERPREL X 0.8ML TECHDOWJRP     1
CE0000000373941U202100000555140800000555140830/10/20211646    31902336239421964320000E1AB0500003888400000000000000                                                              SOLUCION SALINA 0.9% SLN INY X 1000 MLBOL     1
CE0000000373941U202100000555140800000555140830/10/20210639     3300004239421964320000C03D0200001334290000000000000                                                                           ESPIRONOLACTONA TAB 25 MGTAB     1
CE0000000373941U202100000555140800000555140830/10/20211406     3300004239421964320000C03C0100001672000000000000000                                                                       FUROSEMIDA SLN INY 20 MG/2 MLAMP     1
CE0000000373941U202100000555140800000555140830/10/20210639     3300004239421964320000C03C0100001672000000000000000                                                                       FUROSEMIDA SLN INY 20 MG/2 MLAMP     1
CE0000000373941U202100000555140800000555140830/10/20210639     3300004239421964320000C09AA300001353220000000000000                                                                                   ENALAPRIL TAB 5MGTAB     1
CE0000000373941U202100000555140800000555140830/10/20212041     3300004239421964320000C10AA500001314010000000000000                                                                             ATORVASTATINA TAB 40 MGTAB     1
CE0000000373941U202100000555140800000555140830/10/20211137     3300004239421964320000N02BA100001276940000000000000                                                                  ACIDO ACETIL SALIC?LICO TAB 100 MGTAB     1
