PA0000F35806072H202100000555179000000555179030/10/20212156    31902796237421964250000E1AD0300000199490000000000000                                         LACTATO RINGER USP (HARTMANN)  SOL INY  BOL X 1000ML BAXTERBIN     2
PA0000F35806072H202100000555179000000555179030/10/20211854     3300009237421964250000J01DA300001239950000000000000                                                            CEFAZOLINA SODICA POLVO LIOF SLN INY 1 GVAL     4
PA0000F35806072H202100000555179000000555179030/10/20211854     3300009237421964250000M01A0400001341250000000000000                                                                              DYNASTAT AMP 40 MG /R/VAL     2
PA0000F35806072H202100000555179000000555179030/10/20211854     3300009237421964250000N2BB1100000217160000000000000                                                                      NOVALGINA Sln Iny 2.5 g x 5 mlAMP     3
PA0000F35806072H202100000555179000000555179030/10/20211854     3300009237421964250000N02B1100001169680000000000000                              PARACETAMOL 1000MG/100ML(10MG/ML) SOL INY  VIAL X 100ML FRESENIUS KABIVAL     3
PA0000F35806072H202100000555179000000555179030/10/20211854     3300009237421964250000A02BC700001684270000000000000                                                            OMEPRAZOL 40MG POLVO LIOFILIZADO AMPOLLAVAL     1
PA0000F35806072H202100000555179000000555179030/10/20212156    31902796237421964250000V07A1300000502600000000000000                                                                                AGUA ESTERIL x 10 mlAMP     8
