RC0001043714288H202100000555142700000555142730/10/20210636     3300009237421964250000H02AB400001140460000000000000                                                              SUCCINA METILPREDNISOLONA 500MG VIA/R/VAL     1
RC0001043714288H202100000555142700000555142730/10/20210046     3300009237421964250000H02AB400001140460000000000000                                                              SUCCINA METILPREDNISOLONA 500MG VIA/R/VAL     1
RC0001043714288H202100000555142700000555142730/10/20211107    31903307237421964250000E1AB1100003888280000000000000                                                                        SOLUCION SALINA 0.9% X 50 mlBOL     2
RC0001043714288H202100000555142700000555142730/10/20211107    31903307237421964250000E1AB0700003888350000000000000                                                            SOLUCION SALINA 0.9% SLN INY BO X 250 MLBOL     2
RC0001043714288H202100000555142700000555142730/10/20211544     3300009237421964250000A12CA100001109460000000000000                                                              CLORURO SODIO SLN INY 2 MEQ/ML X 10 MLAMP     6
RC0001043714288H202100000555142700000555142730/10/20211544     3300009237421964250000A12BA100000552980000000000000                                                            CLORURO POTASIO Sln Iny AMP 20 MEQ/10 MLAMP     4
RC0001043714288H202100000555142700000555142730/10/20211544     3300009237421964250000N03AB100000467620000000000000                                                               EPAMIN SUSP ORAL 125 MG/5 ML X 240 MLFCO     1
RC0001043714288H202100000555142700000555142730/10/20211110     3300009237421964250000N03AA200001302630000000000000                                                                              FENOBARBITAL TAB 50 MGTAB     1
RC0001043714288H202100000555142700000555142730/10/20210046     3300009237421964250000N03AA200001302630000000000000                                                                              FENOBARBITAL TAB 50 MGTAB     1
RC0001043714288H202100000555142700000555142730/10/20211806     3300009237421964250000J01D1200001239960000000000000                                                                              CEFEPIME POLVO INY 1 GVAL     1
RC0001043714288H202100000555142700000555142730/10/20210636     3300009237421964250000J01D1200001239960000000000000                                                                              CEFEPIME POLVO INY 1 GVAL     1
RC0001043714288H202100000555142700000555142730/10/20210046     3300009237421964250000J01D1200001239960000000000000                                                                              CEFEPIME POLVO INY 1 GVAL     1
