CC0000008683889H202100000555159900000555159930/10/20211010    31903331237421964250000A04A1400001467560000000000000                                                                      ONDANSETRON SLN INY 8 MG/ 4 MLVAL     1
CC0000008683889H202100000555159900000555159930/10/20211010    31903331237421964250000A12AA500001379260000000000000                                                                             OSTEOCAL TAB 600 MG /R/TAB     3
CC0000008683889H202100000555159900000555159930/10/20211010    31903331237421964250000V3AB2200000614150000000000000                                                            GLUCONATO CALCIO SLN INY 10% AMP X 10 MLAPC     2
CC0000008683889H202100000555159900000555159930/10/20211010    31903331237421964250000H03A0400001278890000000000000                                                                                  EUTIROX TAB 50 MCGTAB     2
CC0000008683889H202100000555159900000555159930/10/20211010    31903331237421964250000N2BB0500000217140000000000000                                                                          NOVALGINA Sln Iny 1 g/2 mlAMP     2
CC0000008683889H202100000555159900000555159930/10/20211010    31903331237421964250000N02B1100001169680000000000000                              PARACETAMOL 1000MG/100ML(10MG/ML) SOL INY  VIAL X 100ML FRESENIUS KABIVAL     3
CC0000008683889H202100000555159900000555159930/10/20211010    31903331237421964250000A02BC700001684270000000000000                                                            OMEPRAZOL 40MG POLVO LIOFILIZADO AMPOLLAVAL     1
