CC0001045684571H202100015112654800015112654830/10/20210539    3190270323742196425000018354100000232880000000000000                                                                  SUTURA SEDA NEGRA 3-0 KS 75CM 622HSIN     1
CC0001045684571H202100015112654800015112654830/10/20210539    3190270323742196425000024675000001585130000000000000                                                                    JERINGA DESECHABLE 50 ml S/AGUJASOB     1
CC0001045684571H202100015112654800015112654830/10/20210539    3190270323742196425000024674500000322810000000000000                                                                   JERINGA DESECHABLE 20 ml 21*1 1/2SIN     5
CC0001045684571H202100015112654800015112654830/10/20210539    3190270323742196425000024674000000220660000000000000                             JERINGA A 3 PARTES CON AGUJA  SOB X 1 RYMCO  10ML BN EXENTO-DC.417/2020SIN    40
CC0001045684571H202100015112654800015112654830/10/20210539    3190270323742196425000024672100001609890000000000000                                                            JERINGA INSULINA 1ML TAPA NARANJA JEI013SOB    10
CC0001045684571H202100015112654800015112654830/10/20210539    3190270323742196425000043879200001138180000000000000                                                                                   HOJA BISTURI # 11SOB     1
CC0001045684571H202100015112654800015112654830/10/20210539    3190270323742196425000011085100001082120000000000000                                                                           GUANTE QUIRURGICO TALLA 7SOB     2
CC0001045684571H202100015112654800015112654830/10/20210539    3190270323742196425000013077800000471960000000000000                                                             GASA NO TEJIDA EST 7.5 X 7.5 SOB X 3 UNSOB    50
CC0001045684571H202100015112654800015112654830/10/20210539    3190270323742196425000001956000001620610000000000000                                                                      CONECTOR MICRO CLAVE LAT-MC100SOB     3
CC0001045684571H202100015112654800015112654830/10/20210539    3190270323742196425000000301900000227730000000000000                                                               CATETER TRILUMEN AD CS14703E 7FR*30CMSIN     1
CC0001045684571H202100015112654800015112654830/10/20210539    31902703237421964250000Q1AA7100000610620000000000000                                                            CATETER PERIFE INTROCAN # 18G 4251687-04SIN     2
CC0001045684571H202100015112654800015112654830/10/20210539    31902703237421964250000E1BA0100000198890000000000000                                                                   AGUA ESTERIL USP SLN INY X 500 MLBIN    20
CC0001045684571H202100015112654800015112654830/10/20210539    31902703237421964250000B05B1400001012740000000000000                                                                SOLUCION SALINA 0.45% Sln Iny 500 mlBOL     5
CC0001045684571H202100015112654800015112654830/10/20210539    31902703237421964250000E1AB0700003888350000000000000                                                            SOLUCION SALINA 0.9% SLN INY BO X 250 MLBOL     2
CC0001045684571H202100015112654800015112654830/10/20210539    31902703237421964250000E1AB0200000199290000000000000                                                            SOLUCION SALINA 0.9% SLN INY BO X 100 MLBIN    10
CC0001045684571H202100015112654800015112654830/10/20210539    31902703237421964250000E1AB1100003888280000000000000                                                                        SOLUCION SALINA 0.9% X 50 mlBOL    10
CC0001045684571H202100015112654800015112654830/10/20210539    3190270323742196425000011137100001419310000000000000                                                               TIRA GLUCOMETRIA FREESTYLE H OPTIUM .PZA     3
