CC0000072278313U202100050131440800050131440830/10/20211933    3190100523942196432000038573000000256870000000000000                                                                                 SONDA NSG LEVIN #16SIN     1
CC0000072278313U202100050131440800050131440830/10/20211933    3190100523942196432000024674000000220660000000000000                             JERINGA A 3 PARTES CON AGUJA  SOB X 1 RYMCO  10ML BN EXENTO-DC.417/2020SIN     4
CC0000072278313U202100050131440800050131440830/10/20211933    31901005239421964320000Q1A13500001585200000000000000                        JERINGA PUNTA CAT SIN AGUJA REF 309620 CAJ X 40   50ML BN EXENTO-DC.417/2020SOB     1
CC0000072278313U202100050131440800050131440830/10/20211933    3190100523942196432000042743200003929860000000000000                   GASA ADHESIVA STRETCH REF 02038-00 ROL X 10MT FIXOMULL 15CM BN EXENTO-DC.417/2020CMT    15
CC0000072278313U202100050131440800050131440830/10/20211933    31901005239421964320000Q1AA5900000236800000000000000                                                                            CISTOFLO PEDIAT X 500 mlSIN     1
CC0000072278313U202100050131440800050131440830/10/20211933    31901005239421964320000E1AB0500003888400000000000000                                                              SOLUCION SALINA 0.9% SLN INY X 1000 MLBOL     1
