NV0000169332059H202100916106103000916106103030/10/20210726    3190213923742196425000011060400001010330000000000000                                                            SENSOR PULSOX SPO2 LNCS NEONATAL MP00792PZA     1
NV0000169332059H202100916106103000916106103030/10/20210726    3190213923742196425000011082700001620070000000000000                                                               EQUIPO SET PRIMARIO C/CLAVE REF 14001BOL     1
NV0000169332059H202100916106103000916106103030/10/20210726    3190213923742196425000011137100001419310000000000000                                                               TIRA GLUCOMETRIA FREESTYLE H OPTIUM .PZA     4
NV0000169332059H202100916106103000916106103030/10/20210726    3190213923742196425000013077800000471960000000000000                                                             GASA NO TEJIDA EST 7.5 X 7.5 SOB X 3 UNSOB     6
NV0000169332059H202100916106103000916106103030/10/20210726    3190213923742196425000036441300000236540000000000000                                                                    JERINGA 1 ML GASES ARTERIAL 9023SIN     4
NV0000169332059H202100916106103000916106103030/10/20210726    3190213923742196425000038568300000257010000000000000                                                                                   SONDA NELATON #08SIN     1
NV0000169332059H202100916106103000916106103030/10/20210726    3190213923742196425000045136100001419300000000000000                                                                            LANCETA DEXTROMETER X UNPZA     4
NV0000169332059H202100916106103000916106103030/10/20210726    31902139237421964250000V07A1300000502600000000000000                                                                                AGUA ESTERIL x 10 mlAMP     6
NV0000169332059H202100916106103000916106103030/10/20210726    31902139237421964250000Q1AA7400003911720000000000000                                                            CATETER PERIFE INTROCAN # 24G 4251601-04SOB     1
NV0000169332059H202100916106103000916106103030/10/20210819    3190330923742196425000011137100001419310000000000000                                                               TIRA GLUCOMETRIA FREESTYLE H OPTIUM .PZA     2
NV0000169332059H202100916106103000916106103030/10/20210819    3190330923742196425000045136100001419300000000000000                                                                            LANCETA DEXTROMETER X UNPZA     2
