CC0001143120182H202100015112654700015112654730/10/20210255    3190189623742196425000030161400001459220000000000000                                                                       MANGUERA SUCCION 6 MM*3.1 MTSSOB     1
CC0001143120182H202100015112654700015112654730/10/20210255    3190189623742196425000038569400000256750000000000000                                                                        SONDA ASPIRACION CONTROL #14SIN     7
CC0001143120182H202100015112654700015112654730/10/20210255    3190189623742196425000022108000003906060000000000000                                                            SIST CERRAD ASPIRAC TRACH  22108-5 14 FRSOB     1
CC0001143120182H202100015112654700015112654730/10/20210255    3190189623742196425000036441300000236540000000000000                                                                    JERINGA 1 ML GASES ARTERIAL 9023SIN     4
CC0001045684571H202100015112654700015112654730/10/20210255    3190189623742196425000036441300000236540000000000000                                                                    JERINGA 1 ML GASES ARTERIAL 9023SIN     7
CC0001143120182H202100015112654700015112654730/10/20210255    3190189623742196425000024674000000220660000000000000                             JERINGA A 3 PARTES CON AGUJA  SOB X 1 RYMCO  10ML BN EXENTO-DC.417/2020SIN     5
CC0001143120182H202100015112654700015112654730/10/20210255    3190189623742196425000043485100001618510000000000000                GUANTE QUIRURGICO DE LATEX REF 2D72N65X CAJ X 50 PROTEXIS  6.5 BN EXENTO-DC.417/2020SOB     5
CC0001143120182H202100015112654700015112654730/10/20210255    3190189623742196425000020816000001096410000000000000                                                                          LINER PARED DELGADA 1500CCBOL     1
CC0001143120182H202100015112654700015112654730/10/20210255    31901896237421964250000E1AB0200000199290000000000000                                                            SOLUCION SALINA 0.9% SLN INY BO X 100 MLBIN     3
