TI0001047047240H202100000555143900000555143930/10/20211013     3300009237421964250000A04A1400001467560000000000000                                                                      ONDANSETRON SLN INY 8 MG/ 4 MLVAL     4
TI0001047047240H202100000555143900000555143930/10/20211012     3300009237421964250000A6AC0200001467010000000000000                                                             LACTULAX JARABE 66.7G/100ML SOX15ML /R/SOB     1
TI0001047047240H202100000555143900000555143930/10/20211013     3300009237421964250000A12BA100000552980000000000000                                                            CLORURO POTASIO Sln Iny AMP 20 MEQ/10 MLAMP     1
TI0001047047240H202100000555143900000555143930/10/20211013     3300009237421964250000L1BC7300001675600000000000000                                                                                MESNA Sln Iny 400 mgAMP     4
TI0001047047240H202100000555143900000555143930/10/20211012     3300009237421964250000L1BC7300001675600000000000000                                                                                MESNA Sln Iny 400 mgAMP     3
TI0001047047240H202100000555143900000555143930/10/20210126     3300009237421964250000L1BC7300001675600000000000000                                                                                MESNA Sln Iny 400 mgAMP     5
TI0001047047240H202100000555143900000555143930/10/20211013     3300009237421964250000C03C0100001672000000000000000                                                                       FUROSEMIDA SLN INY 20 MG/2 MLAMP     2
TI0001047047240H202100000555143900000555143930/10/20211014     3300009237421964250000H2AB0200001276910000000000000                                                                               PREDNISOLONA TAB 5 MGTAB     8
TI0001047047240H202100000555143900000555143930/10/20211013     3300009237421964250000H2AB0200001276910000000000000                                                                               PREDNISOLONA TAB 5 MGTAB     4
TI0001047047240H202100000555143900000555143930/10/20211251    31500082237421964250000V07A1300000502600000000000000                                                                                AGUA ESTERIL x 10 mlAMP     5
