CC0000073429942U202100050131439300050131439330/10/20211647    3190180623942196432000024674000000220660000000000000                             JERINGA A 3 PARTES CON AGUJA  SOB X 1 RYMCO  10ML BN EXENTO-DC.417/2020SIN     2
CC0000073429942U202100050131439300050131439330/10/20211647    3190180623942196432000013077800000471960000000000000                                                             GASA NO TEJIDA EST 7.5 X 7.5 SOB X 3 UNSOB     5
CC0000073429942U202100050131439300050131439330/10/20211647    3190180623942196432000011082700001620070000000000000                                                               EQUIPO SET PRIMARIO C/CLAVE REF 14001BOL     1
CC0000073429942U202100050131439300050131439330/10/20211647    31901806239421964320000Q1AA7100000610620000000000000                                                            CATETER PERIFE INTROCAN # 18G 4251687-04SIN     1
CC0000073429942U202100050131439300050131439330/10/20211647    3190180623942196432000030936900001431840000000000000                                                                                              BURETABOL     1
CC0000073429942U202100050131439300050131439330/10/20211647    3190180623942196432000016830000000970620000000000000                                                             SIST FIJACION CAT PERIFERICO 6.5X7 1683SOB     1
CC0000073429942U202100050131439300050131439330/10/20211647    31901806239421964320000E1BA0100000198890000000000000                                                                   AGUA ESTERIL USP SLN INY X 500 MLBIN     1
