CC0000072133553H202100015052707400015052707430/10/20212002    3190249123742196425000011082700001620070000000000000                                                               EQUIPO SET PRIMARIO C/CLAVE REF 14001BOL     1
CC0000072133553H202100015052707400015052707430/10/20212002    3190249123742196425000001956000001620610000000000000                                                                      CONECTOR MICRO CLAVE LAT-MC100SOB     1
CC0000072133553H202100015052707400015052707430/10/20212002    31902491237421964250000Q1AA7100000610620000000000000                                                            CATETER PERIFE INTROCAN # 18G 4251687-04SIN     2
CC0000032875135H202100015052707400015052707430/10/20212002    3190249123742196425000030936900001431840000000000000                                                                                              BURETABOL     1
CC0000072133553H202100015052707400015052707430/10/20212002    3190249123742196425000030936900001431840000000000000                                                                                              BURETABOL     1
CC0000072133553H202100015052707400015052707430/10/20212002    3190249123742196425000016830000000970620000000000000                                                             SIST FIJACION CAT PERIFERICO 6.5X7 1683SOB     1
RC0001158467183H202100015052707400015052707430/10/20212002    31902491237421964250000E1AD0300000199490000000000000                                         LACTATO RINGER USP (HARTMANN)  SOL INY  BOL X 1000ML BAXTERBIN     1
CC0000032875135H202100015052707400015052707430/10/20212002    31902491237421964250000E1AD0300000199490000000000000                                         LACTATO RINGER USP (HARTMANN)  SOL INY  BOL X 1000ML BAXTERBIN     2
CC0001132234000H202100015052707400015052707430/10/20212002    31902491237421964250000E1AB0300003888390000000000000                                                            SOLUCION SALINA 0.9% SLN INY BO X 500 MLBOL     3
CC0001129528161H202100015052707400015052707430/10/20212002    31902491237421964250000E1AB0300003888390000000000000                                                            SOLUCION SALINA 0.9% SLN INY BO X 500 MLBOL     1
CC0000072133553H202100015052707400015052707430/10/20212002    31902491237421964250000E1AB0300003888390000000000000                                                            SOLUCION SALINA 0.9% SLN INY BO X 500 MLBOL     1
CC0000022458394H202100015052707400015052707430/10/20212002    31902491237421964250000E1AB0300003888390000000000000                                                            SOLUCION SALINA 0.9% SLN INY BO X 500 MLBOL     1
