RC0001187466818H202100015122511900015122511930/10/20211040    31500221237421964250000Q1AA1000000256790000000000000                                                                         SONDA ASPIRACION CONTROL #8SIN     6
RC0001187466818H202100015122511900015122511930/10/20211040    3150022123742196425000036441300000236540000000000000                                                                    JERINGA 1 ML GASES ARTERIAL 9023SIN     2
RC0001187466818H202100015122511900015122511930/10/20211040    31500221237421964250000E1BA0100000198890000000000000                                                                   AGUA ESTERIL USP SLN INY X 500 MLBIN     1
