CC0000072133553H202100000555154400000555154430/10/20211508     3300009237421964250000A6AC0200001467010000000000000                                                             LACTULAX JARABE 66.7G/100ML SOX15ML /R/SOB     1
CC0000072133553H202100000555154400000555154430/10/20211507     3300009237421964250000A6AC0200001467010000000000000                                                             LACTULAX JARABE 66.7G/100ML SOX15ML /R/SOB     1
CC0000072133553H202100000555154400000555154430/10/20210730     3300009237421964250000A6AC0200001467010000000000000                                                             LACTULAX JARABE 66.7G/100ML SOX15ML /R/SOB     2
CC0000072133553H202100000555154400000555154430/10/20211912    31902242237421964250000E1AB0700003888350000000000000                                                            SOLUCION SALINA 0.9% SLN INY BO X 250 MLBOL     2
CC0000072133553H202100000555154400000555154430/10/20212140    31902491237421964250000E1AB0300003888390000000000000                                                            SOLUCION SALINA 0.9% SLN INY BO X 500 MLBOL     1
CC0000072133553H202100000555154400000555154430/10/20211507     3300009237421964250000J01XA400001212420000000000000                                                               VANCOMICINA POLVO LIOF SLN INY 500 MGVAL     4
CC0000072133553H202100000555154400000555154430/10/20210730     3300009237421964250000B01AB200000513350000000000000                                                                        CLENOX SLN INY 40 MG/ 0.4 MLJRP     1
CC0000072133553H202100000555154400000555154430/10/20211508     3300009237421964250000C07A1200001304880000000000000                                                                           PROPRANOLOL HCL TAB 40 MGTAB     1
CC0000072133553H202100000555154400000555154430/10/20211518     3300009237421964250000J01CR300001659480000000000000                                                                  DELBACTAM POLVO LIOF SLN INY 4.5 GVAL     5
CC0000072133553H202100000555154400000555154430/10/20210730     3300009237421964250000J01F0200001689390000000000000                                                                        CLINDAMICINA INY 600 MG/4 MLAMP     2
