CC0001129573045U202100050131429800050131429830/10/20210009    3150061723942196432000024674000000220660000000000000                             JERINGA A 3 PARTES CON AGUJA  SOB X 1 RYMCO  10ML BN EXENTO-DC.417/2020SIN     2
CC0001129573045U202100050131429800050131429830/10/20210009    3150061723942196432000011082700001620070000000000000                                                               EQUIPO SET PRIMARIO C/CLAVE REF 14001BOL     1
CC0001045738801U202100050131429800050131429830/10/20210009    31500617239421964320000Q1AA7300000610640000000000000                                                            CATETER PERIFE INTROCAN # 22G 4251628-04SIN     1
CC0001045738801U202100050131429800050131429830/10/20210009    3150061723942196432000030936900001431840000000000000                                                                                              BURETABOL     1
CC0001129573045U202100050131429800050131429830/10/20210009    3150061723942196432000030936900001431840000000000000                                                                                              BURETABOL     1
CC0001129573045U202100050131429800050131429830/10/20210009    31500617239421964320000E1AB0300003888390000000000000                                                            SOLUCION SALINA 0.9% SLN INY BO X 500 MLBOL     1
