RC0001046723141H202100015052707900015052707930/10/20212122    3190115823742196425000047373400000228840000000000000                                                                             PINZA COLOSTOMIA 175635PZA     1
CC0000032875135H202100015052707900015052707930/10/20212122    3190115823742196425000013077800000471960000000000000                                                             GASA NO TEJIDA EST 7.5 X 7.5 SOB X 3 UNSOB    20
CC0000022458394H202100015052707900015052707930/10/20212122    3190115823742196425000013077800000471960000000000000                                                             GASA NO TEJIDA EST 7.5 X 7.5 SOB X 3 UNSOB    10
RC0001046723141H202100015052707900015052707930/10/20212122    3190115823742196425000013077800000471960000000000000                                                             GASA NO TEJIDA EST 7.5 X 7.5 SOB X 3 UNSOB    20
CC0000036592610H202100015052707900015052707930/10/20212122    3190115823742196425000013077800000471960000000000000                                                             GASA NO TEJIDA EST 7.5 X 7.5 SOB X 3 UNSOB    10
CC0000032875135H202100015052707900015052707930/10/20212122    3190115823742196425000042753100003929850000000000000                   GASA ADHESIVA STRETCH REF 02037-00 ROL X 10MT FIXOMULL 10CM BN EXENTO-DC.417/2020CMT    40
CC0000022458394H202100015052707900015052707930/10/20212122    3190115823742196425000042753100003929850000000000000                   GASA ADHESIVA STRETCH REF 02037-00 ROL X 10MT FIXOMULL 10CM BN EXENTO-DC.417/2020CMT    40
RC0001046723141H202100015052707900015052707930/10/20212122    3190115823742196425000042753100003929850000000000000                   GASA ADHESIVA STRETCH REF 02037-00 ROL X 10MT FIXOMULL 10CM BN EXENTO-DC.417/2020CMT    60
CC0000036592610H202100015052707900015052707930/10/20212122    3190115823742196425000042753100003929850000000000000                   GASA ADHESIVA STRETCH REF 02037-00 ROL X 10MT FIXOMULL 10CM BN EXENTO-DC.417/2020CMT    60
RC0001046723141H202100015052707900015052707930/10/20212122    3190115823742196425000040515200000228650000000000000                                                                        BOLSA COLOSTOMIA CONVATEC 45PZA     1
RC0001046723141H202100015052707900015052707930/10/20212122    3190115823742196425000011024800000228770000000000000                                                               BARRERA COLOSTOMIA CONVATEC 45 125144PZA     1
