PA0000PA0448885H202100015032583800015032583830/10/20211512    31903290237421964250000V07A1300000502600000000000000                                                                                AGUA ESTERIL x 10 mlAMP    10
CC0000032718053H202100015032583800015032583830/10/20211512    31903290237421964250000V07A1300000502600000000000000                                                                                AGUA ESTERIL x 10 mlAMP    10
CC0001047359950H202100015032583800015032583830/10/20211512    31903290237421964250000V07A1300000502600000000000000                                                                                AGUA ESTERIL x 10 mlAMP    10
RC0001048088138H202100015032583800015032583830/10/20211512    31903290237421964250000V07A1300000502600000000000000                                                                                AGUA ESTERIL x 10 mlAMP    10
CC0000026715307H202100015032583800015032583830/10/20211512    31903290237421964250000V07A1300000502600000000000000                                                                                AGUA ESTERIL x 10 mlAMP    10
PA0000117017010H202100015032583800015032583830/10/20211512    31903290237421964250000V07A1300000502600000000000000                                                                                AGUA ESTERIL x 10 mlAMP    10
CC0001140828821H202100015032583800015032583830/10/20211512    31903290237421964250000V07A1300000502600000000000000                                                                                AGUA ESTERIL x 10 mlAMP    10
CC0000032894571H202100015032583800015032583830/10/20211512    31903290237421964250000V07A1300000502600000000000000                                                                                AGUA ESTERIL x 10 mlAMP     1
TI0001044223160H202100015032583800015032583830/10/20211512    31903290237421964250000V07A1300000502600000000000000                                                                                AGUA ESTERIL x 10 mlAMP    10
PA0000143921688H202100015032583800015032583830/10/20211512    31903290237421964250000V07A1300000502600000000000000                                                                                AGUA ESTERIL x 10 mlAMP    10
CC0000000162131H202100015032583800015032583830/10/20211512    31903290237421964250000V07A1300000502600000000000000                                                                                AGUA ESTERIL x 10 mlAMP    10
CC0000005029363H202100015032583800015032583830/10/20211512    31903290237421964250000V07A1300000502600000000000000                                                                                AGUA ESTERIL x 10 mlAMP    10
CC0000064541334H202100015032583800015032583830/10/20211512    31903290237421964250000V07A1300000502600000000000000                                                                                AGUA ESTERIL x 10 mlAMP    10
PA0000PA0448885H202100015032583800015032583830/10/20211512    3190329023742196425000024674000000220660000000000000                             JERINGA A 3 PARTES CON AGUJA  SOB X 1 RYMCO  10ML BN EXENTO-DC.417/2020SIN    10
CC0000032718053H202100015032583800015032583830/10/20211512    3190329023742196425000024674000000220660000000000000                             JERINGA A 3 PARTES CON AGUJA  SOB X 1 RYMCO  10ML BN EXENTO-DC.417/2020SIN    10
CC0001047359950H202100015032583800015032583830/10/20211512    3190329023742196425000024674000000220660000000000000                             JERINGA A 3 PARTES CON AGUJA  SOB X 1 RYMCO  10ML BN EXENTO-DC.417/2020SIN    10
RC0001048088138H202100015032583800015032583830/10/20211512    3190329023742196425000024674000000220660000000000000                             JERINGA A 3 PARTES CON AGUJA  SOB X 1 RYMCO  10ML BN EXENTO-DC.417/2020SIN    10
CC0000026715307H202100015032583800015032583830/10/20211512    3190329023742196425000024674000000220660000000000000                             JERINGA A 3 PARTES CON AGUJA  SOB X 1 RYMCO  10ML BN EXENTO-DC.417/2020SIN    10
PA0000117017010H202100015032583800015032583830/10/20211512    3190329023742196425000024674000000220660000000000000                             JERINGA A 3 PARTES CON AGUJA  SOB X 1 RYMCO  10ML BN EXENTO-DC.417/2020SIN    10
CC0001140828821H202100015032583800015032583830/10/20211512    3190329023742196425000024674000000220660000000000000                             JERINGA A 3 PARTES CON AGUJA  SOB X 1 RYMCO  10ML BN EXENTO-DC.417/2020SIN    10
CC0000032894571H202100015032583800015032583830/10/20211512    3190329023742196425000024674000000220660000000000000                             JERINGA A 3 PARTES CON AGUJA  SOB X 1 RYMCO  10ML BN EXENTO-DC.417/2020SIN    10
TI0001044223160H202100015032583800015032583830/10/20211512    3190329023742196425000024674000000220660000000000000                             JERINGA A 3 PARTES CON AGUJA  SOB X 1 RYMCO  10ML BN EXENTO-DC.417/2020SIN    10
PA0000143921688H202100015032583800015032583830/10/20211512    3190329023742196425000024674000000220660000000000000                             JERINGA A 3 PARTES CON AGUJA  SOB X 1 RYMCO  10ML BN EXENTO-DC.417/2020SIN    10
CC0000000162131H202100015032583800015032583830/10/20211512    3190329023742196425000024674000000220660000000000000                             JERINGA A 3 PARTES CON AGUJA  SOB X 1 RYMCO  10ML BN EXENTO-DC.417/2020SIN    10
CC0000005029363H202100015032583800015032583830/10/20211512    3190329023742196425000024674000000220660000000000000                             JERINGA A 3 PARTES CON AGUJA  SOB X 1 RYMCO  10ML BN EXENTO-DC.417/2020SIN    10
CC0000064541334H202100015032583800015032583830/10/20211512    3190329023742196425000024674000000220660000000000000                             JERINGA A 3 PARTES CON AGUJA  SOB X 1 RYMCO  10ML BN EXENTO-DC.417/2020SIN    10
PA0000143921688H202100015032583800015032583830/10/20211512    3190329023742196425000030936900001431840000000000000                                                                                              BURETABOL     1
