PA0000PA0448885H202100015032582900015032582930/10/20210942    31902977237421964250000V07A1300000502600000000000000                                                                                AGUA ESTERIL x 10 mlAMP    10
PA0000117017010H202100015032582900015032582930/10/20210942    31902977237421964250000V07A1300000502600000000000000                                                                                AGUA ESTERIL x 10 mlAMP    10
PA0000PA0448885H202100015032582900015032582930/10/20210942    3190297723742196425000024674000000220660000000000000                             JERINGA A 3 PARTES CON AGUJA  SOB X 1 RYMCO  10ML BN EXENTO-DC.417/2020SIN    10
PA0000117017010H202100015032582900015032582930/10/20210942    3190297723742196425000024674000000220660000000000000                             JERINGA A 3 PARTES CON AGUJA  SOB X 1 RYMCO  10ML BN EXENTO-DC.417/2020SIN    10
PA0000PA0448885H202100015032582900015032582930/10/20210942    3190297723742196425000022426800001140510000000000000                                                                    EQUIPO MACROGOTEO BAXTER MRC0001SOB     1
PA0000117017010H202100015032582900015032582930/10/20210942    3190297723742196425000022426800001140510000000000000                                                                    EQUIPO MACROGOTEO BAXTER MRC0001SOB     1
PA0000PA0448885H202100015032582900015032582930/10/20210942    3190297723742196425000030936900001431840000000000000                                                                                              BURETABOL     1
PA0000117017010H202100015032582900015032582930/10/20210942    3190297723742196425000030936900001431840000000000000                                                                                              BURETABOL     1
PA0000PA0448885H202100015032582900015032582930/10/20210942    31902977237421964250000E1AD0300000199490000000000000                                         LACTATO RINGER USP (HARTMANN)  SOL INY  BOL X 1000ML BAXTERBIN     3
PA0000117017010H202100015032582900015032582930/10/20210942    31902977237421964250000E1AD0300000199490000000000000                                         LACTATO RINGER USP (HARTMANN)  SOL INY  BOL X 1000ML BAXTERBIN     3
