CC0000000162131H202100915370103000915370103030/10/20211335    3190306023742196425000016830000000970620000000000000                                                             SIST FIJACION CAT PERIFERICO 6.5X7 1683SOB     3
CC0000000162131H202100915370103000915370103030/10/20211335    31903060237421964250000Q1AA7300000610640000000000000                                                            CATETER PERIFE INTROCAN # 22G 4251628-04SIN     2
CC0000000162131H202100915370103000915370103030/10/20211335    3190306023742196425000001956000001620610000000000000                                                                      CONECTOR MICRO CLAVE LAT-MC100SOB     3
CC0000000162131H202100915370103000915370103030/10/20211335    31903060237421964250000Q1AA7400003911720000000000000                                                            CATETER PERIFE INTROCAN # 24G 4251601-04SOB     2
