CC0001045742577U202100000555144200000555144230/10/20210818     3300004239421964320000H02AB400001140460000000000000                                                              SUCCINA METILPREDNISOLONA 500MG VIA/R/VAL     1
CC0001045742577U202100000555144200000555144230/10/20211606     3300004239421964320000B3BB0200001315040000000000000                                                                               ACIDO FOLICO Tab 5 mgTAB     1
CC0001045742577U202100000555144200000555144230/10/20210736    31500246239421964320000E1AB0300003888390000000000000                                                            SOLUCION SALINA 0.9% SLN INY BO X 500 MLBOL     1
CC0001045742577U202100000555144200000555144230/10/20211646    31902336239421964320000E1AB0500003888400000000000000                                                              SOLUCION SALINA 0.9% SLN INY X 1000 MLBOL     1
CC0001045742577U202100000555144200000555144230/10/20211812     3300004239421964320000C2DE1400001277050000000000000                                                                         NIFEDIPINO CAPSULA LM 30 MGCAP     1
CC0001045742577U202100000555144200000555144230/10/20211205     3300004239421964320000C2DE1400001277050000000000000                                                                         NIFEDIPINO CAPSULA LM 30 MGCAP     1
CC0001045742577U202100000555144200000555144230/10/20210639     3300004239421964320000C2DE1400001277050000000000000                                                                         NIFEDIPINO CAPSULA LM 30 MGCAP     1
CC0001045742577U202100000555144200000555144230/10/20210143     3300004239421964320000C2DE1400001277050000000000000                                                                         NIFEDIPINO CAPSULA LM 30 MGCAP     1
CC0001045742577U202100000555144200000555144230/10/20212211     3300004239421964320000A03BB100003889180000000000000                                      HIOSCINA BUTIL BROMURO 20MG/ML SOL INY CAJ X 100AMP X 1ML RYANAMP     1
CC0001045742577U202100000555144200000555144230/10/20211413     3300004239421964320000A03BB100003889180000000000000                                      HIOSCINA BUTIL BROMURO 20MG/ML SOL INY CAJ X 100AMP X 1ML RYANAMP     1
CC0001045742577U202100000555144200000555144230/10/20210143     3300004239421964320000A03BB100003889180000000000000                                      HIOSCINA BUTIL BROMURO 20MG/ML SOL INY CAJ X 100AMP X 1ML RYANAMP     1
CC0001045742577U202100000555144200000555144230/10/20212043     3300004239421964320000C09CA700001315590000000000000                                                                                 LOSARTAN TAB 100 MGTAB     1
CC0001045742577U202100000555144200000555144230/10/20210818     3300004239421964320000C09CA700001315590000000000000                                                                                 LOSARTAN TAB 100 MGTAB     1
CC0001045742577U202100000555144200000555144230/10/20212043     3300004239421964320000N2AX0900001672040000000000000                                                                              TRAMADOL SLN INY 50 MGAMP     1
CC0001045742577U202100000555144200000555144230/10/20211205     3300004239421964320000N2AX0900001672040000000000000                                                                              TRAMADOL SLN INY 50 MGAMP     1
CC0001045742577U202100000555144200000555144230/10/20210143     3300004239421964320000N2AX0900001672040000000000000                                                                              TRAMADOL SLN INY 50 MGAMP     1
