CC0000022657062A202100000027651300000027651330/10/20210814    31903336240421964190000E1AB0200000199290000000000000                                                            SOLUCION SALINA 0.9% SLN INY BO X 100 MLBIN     1
CC0000022657062A202100000027651300000027651330/10/20210814    3190333624042196419000011065700003914100000000000000                                                                 TAPON HEPARINIZADO 4238010  B BRAUNSOB     1
CC0000022657062A202100000027651300000027651330/10/20210814    31903336240421964190000Q1AA7200000610630000000000000                                                            CATETER PERIFE INTROCAN # 20G 4251644-04SIN     1
CC0000022657062A202100000027651300000027651330/10/20210814    3190333624042196419000016830000000970620000000000000                                                             SIST FIJACION CAT PERIFERICO 6.5X7 1683SOB     1
CC0000022657062A202100000027651300000027651330/10/20210814    3190333624042196419000020059500000225210000000000000                                                               AGUJA RAQUI SPINOCAN #20 REF. 4509900SIN     1
CC0000022657062A202100000027651300000027651330/10/20210814    3190333624042196419000038568100000258050000000000000                                                                         CANULA OXIGENO NASAL ADULTOSIN     1
CC0000022657062A202100000027651300000027651330/10/20210814    3190333624042196419000053074400000607910000000000000                                                               GASA ESTERIL 10*10 SOBRE X 3 UNIDADESSOB     1
CC0000022657062A202100000027651300000027651330/10/20210814    3190333624042196419000011085200001585390000000000000                                                                       GUANTE QUIRURGICO TALLA 7 1/2SOB     1
CC0000022657062A202100000027651300000027651330/10/20210814    3190333624042196419000024673000001411210000000000000                                                                  JERINGA DESECHABLE 3 ML 21 X 1 1/2SOB     1
CC0000022657062A202100000027651300000027651330/10/20210814    3190333624042196419000024674000000220660000000000000                             JERINGA A 3 PARTES CON AGUJA  SOB X 1 RYMCO  10ML BN EXENTO-DC.417/2020SIN     4
CC0000022657062A202100000027651300000027651330/10/20210814    31903336240421964190000N01A0400003939010000000000000                                               MAYOPROFOL 200MG/20ML(1%) EMUL INY CAJ X 1VIAL X 20MLVAL     1
CC0000022657062A202100000027651300000027651330/10/20210814    31903336240421964190000S2BA1200000467480000000000000                                                             DEPO MEDROL SUSP INY 40mg/ml X 1 ML /R/CIN     2
CC0000022657062A202100000027651300000027651330/10/20210814    31903336240421964190000N01B0200003888110000000000000                                           ROXICAINA SE 100MG/10ML(1%) SOL INY CAJ X 24AMPACK X 10MLAPC     2
