CC0000008565480H202100000555151700000555151730/10/20212153     3300009237421964250000B1AB0200003939510000000000000                 ENOXAPARINA SODICA 40MG/0.4ML(100MG/ML) SOL INY INST CAJ X 2JERPREL X 0.4ML TECHDOWJRP     1
CC0000008565480H202100000555151700000555151730/10/20210519     3300009237421964250000B1AB0200003939510000000000000                 ENOXAPARINA SODICA 40MG/0.4ML(100MG/ML) SOL INY INST CAJ X 2JERPREL X 0.4ML TECHDOWJRP     1
CC0000008565480H202100000555151700000555151730/10/20212300    31500347237421964250000E1AB0500003888400000000000000                                                              SOLUCION SALINA 0.9% SLN INY X 1000 MLBOL     1
CC0000008565480H202100000555151700000555151730/10/20210519     3300009237421964250000A12BA100000552980000000000000                                                            CLORURO POTASIO Sln Iny AMP 20 MEQ/10 MLAMP     1
CC0000008565480H202100000555151700000555151730/10/20211419     3300009237421964250000J01DD400001669980000000000000                                                                ZAVICEFTA POLVO LIOF SLN INY 2500 MGVAL     1
CC0000008565480H202100000555151700000555151730/10/20211420     3300009237421964250000J02A0700001337120000000000000                                                                                VFEND TAB 200 MG /R/TAB     2
CC0000008565480H202100000555151700000555151730/10/20212153     3300009237421964250000A11A2600000303300000000000000                                                                 GLUCERNA LIQUIDO 1.0 KCAL X 1500 MLFCO     1
CC0000008565480H202100000555151700000555151730/10/20211419     3300009237421964250000C03C0100001672000000000000000                                                                       FUROSEMIDA SLN INY 20 MG/2 MLAMP     1
CC0000008565480H202100000555151700000555151730/10/20210519     3300009237421964250000C03C0100001672000000000000000                                                                       FUROSEMIDA SLN INY 20 MG/2 MLAMP     3
CC0000008565480H202100000555151700000555151730/10/20211419     3300009237421964250000N03AX600001334940000000000000                                                                        LEVETIRACETAM TAB 500 MG /R/TAB     1
CC0000008565480H202100000555151700000555151730/10/20210518     3300009237421964250000N03AX600001334940000000000000                                                                        LEVETIRACETAM TAB 500 MG /R/TAB     2
CC0000008565480H202100000555151700000555151730/10/20210519     3300009237421964250000A02BC700001684270000000000000                                                            OMEPRAZOL 40MG POLVO LIOFILIZADO AMPOLLAVAL     1
