CC0000008703888A202100000027661900000027661930/10/20210902    3190333624042196419000011073300001096420000000000000                                                                BOLSA DE SUCCION DE FLUIDOS x 2500mLBOL     1
CC0000008703888A202100000027661900000027661930/10/20210902    31903336240421964190000N1BA1900000554750000000000000                                                                     ROXICAINA JALEA 2% TUBO X 30 MLTUB     1
CC0000008703888A202100000027661900000027661930/10/20210902    3190333624042196419000011085300001082140000000000000                                                                           GUANTE QUIRURGICO TALLA 8SOB     3
CC0000008703888A202100000027661900000027661930/10/20210902    3190333624042196419000045138000001413890000000000000                                                                       LAPIZ ELECTROBISTURI  SOB X 1SOB     1
CC0000008703888A202100000027661900000027661930/10/20210902    3190333624042196419000027292100000224750000000000000                                                                                  AGUJA PERICAN G-18SIN     1
CC0000008703888A202100000027661900000027661930/10/20210902    3190333624042196419000045136100001419300000000000000                                                                            LANCETA DEXTROMETER X UNPZA     1
CC0000008703888A202100000027661900000027661930/10/20210902    3190333624042196419000011137100001419310000000000000                                                               TIRA GLUCOMETRIA FREESTYLE H OPTIUM .PZA     1
CC0000008703888A202100000027661900000027661930/10/20210902    3190333624042196419000043879100001138200000000000000                                                                  HOJA BISTURI # 15 CSSB 15 01002003SOB     1
CC0000008703888A202100000027661900000027661930/10/20210902    3190333624042196419000035356500003919000000000000000                                                                                        LLAVE 3 VIASSOB     1
CC0000008703888A202100000027661900000027661930/10/20210902    3190333624042196419000022425200000548240000000000000                       EXTENSION DE ANESTESIA REF 1139 SOB X 1 SHERLEG  ADULTO BN EXENTO-DC.417/2020SIN     1
CC0000008703888A202100000027661900000027661930/10/20210902    3190333624042196419000022426800001140510000000000000                                                                    EQUIPO MACROGOTEO BAXTER MRC0001SOB     1
CC0000008703888A202100000027661900000027661930/10/20210902    3190333624042196419000024673000001411210000000000000                                                                  JERINGA DESECHABLE 3 ML 21 X 1 1/2SOB     1
CC0000008703888A202100000027661900000027661930/10/20210902    3190333624042196419000020750600000296780000000000000                                                                PLACA ELECTRO RETORNO PACIENTE E7506SIN     1
CC0000008703888A202100000027661900000027661930/10/20210902    3190333624042196419000024674000000220660000000000000                             JERINGA A 3 PARTES CON AGUJA  SOB X 1 RYMCO  10ML BN EXENTO-DC.417/2020SIN     2
CC0000008703888A202100000027661900000027661930/10/20210902    3190333624042196419000024673600000222980000000000000                                                                     JERINGA DESECHABLE 5 ml 27*11/2SIN     1
CC0000008703888A202100000027661900000027661930/10/20210902    3190333624042196419000043485100001618510000000000000                GUANTE QUIRURGICO DE LATEX REF 2D72N65X CAJ X 50 PROTEXIS  6.5 BN EXENTO-DC.417/2020SOB     4
CC0000008703888A202100000027661900000027661930/10/20210902    3190333624042196419000011085200001585390000000000000                                                                       GUANTE QUIRURGICO TALLA 7 1/2SOB     4
CC0000008703888A202100000027661900000027661930/10/20210902    3190333624042196419000053074400000607910000000000000                                                               GASA ESTERIL 10*10 SOBRE X 3 UNIDADESSOB     2
CC0000008703888A202100000027661900000027661930/10/20210902    31903336240421964190000E1AB0300003888390000000000000                                                            SOLUCION SALINA 0.9% SLN INY BO X 500 MLBOL     1
CC0000008703888A202100000027661900000027661930/10/20210902    31903336240421964190000E1AB0200000199290000000000000                                                            SOLUCION SALINA 0.9% SLN INY BO X 100 MLBIN     1
CC0000008703888A202100000027661900000027661930/10/20210902    31903336240421964190000N02B1100001169680000000000000                              PARACETAMOL 1000MG/100ML(10MG/ML) SOL INY  VIAL X 100ML FRESENIUS KABIVAL     1
CC0000008703888A202100000027661900000027661930/10/20210902    31903336240421964190000H02AB500001664950000000000000                                                            DEXAMETASONA SLN INY 8 MG/2 ML AMP /CDS/AMP     2
CC0000008703888A202100000027661900000027661930/10/20210902    31903336240421964190000N01A0400003939010000000000000                                               MAYOPROFOL 200MG/20ML(1%) EMUL INY CAJ X 1VIAL X 20MLVAL     1
CC0000008703888A202100000027661900000027661930/10/20210902    31903336240421964190000N1BA2400001195280000000000000                                                                    LIDOCAINA 2% S/E Sln Iny x 10 mlAMP     1
