RC0001046723141H202100000555144900000555144930/10/20210735     3300009237421964250000V06C1000000303870000000000000                                                                    PEPTAMEN JUNIOR Liquido x 250 MLLAT     1
RC0001046723141H202100000555144900000555144930/10/20211408    31500519237421964250000E1AC0100000199400000000000000                                                                          SUERO MIXTO Sln Iny 500 mlBIN     1
RC0001046723141H202100000555144900000555144930/10/20210736     3300009237421964250000J02A0200000191070000000000000                                                            CANCIDAS POLVO LIOF SLN INY AMP 50MG /R/VAL     1
RC0001046723141H202100000555144900000555144930/10/20210736     3300009237421964250000N2BE1100001156170000000000000                                                              ACETAMINOFEN JBE 150 MG / 5 ML X 60 MLFCO     1
RC0001046723141H202100000555144900000555144930/10/20211342     3300009237421964250000N03AG200001590870000000000000                                                            PROVALNOVA SLN INY 100MG/ML VIALX5ML /R/VAL     1
RC0001046723141H202100000555144900000555144930/10/20210151     3300009237421964250000N03AG200001590870000000000000                                                            PROVALNOVA SLN INY 100MG/ML VIALX5ML /R/VAL     2
RC0001046723141H202100000555144900000555144930/10/20210735     3300009237421964250000N03AX200001063780000000000000                                                                      KEPPRA SLN INY 500 MG/5 ML /R/VAL     1
RC0001046723141H202100000555144900000555144930/10/20210151     3300009237421964250000N03AX200001063780000000000000                                                                      KEPPRA SLN INY 500 MG/5 ML /R/VAL     1
RC0001046723141H202100000555144900000555144930/10/20210735     3300009237421964250000A02BC700001684270000000000000                                                            OMEPRAZOL 40MG POLVO LIOFILIZADO AMPOLLAVAL     1
