CC0000019308734U202100000555162200000555162230/10/20211620     3300004239421964320000A10B1600001336910000000000000                                                                               TRAYENTA TAB 5 MG /R/TAB     1
CC0000019308734U202100000555162200000555162230/10/20211620     3300004239421964320000A12BA500003864190000000000000                                                   ION-K 1.56GR/5ML(31.2%) SOL ORAL INST FCO X 180MLFCO     1
CC0000019308734U202100000555162200000555162230/10/20211620     3300004239421964320000B1AB1200003939350000000000000                 ENOXAPARINA SODICA 80MG/0.8ML(100MG/ML) SOL INY INST CAJ X 2JERPREL X 0.8ML TECHDOWJRP     1
CC0000019308734U202100000555162200000555162230/10/20211620     3300004239421964320000N02B0300001277700000000000000                                                                           CARDIOASPIRINA TAB 100 MGTAB     1
CC0000019308734U202100000555162200000555162230/10/20211112    31902864239421964320000E1AB0300003888390000000000000                                                            SOLUCION SALINA 0.9% SLN INY BO X 500 MLBOL     1
CC0000019308734U202100000555162200000555162230/10/20211620     3300004239421964320000C3CA0100001278130000000000000                                                                                     LASIX TAB 40 MGTAB     2
CC0000019308734U202100000555162200000555162230/10/20211620     3300004239421964320000C07A0100001277830000000000000                                                                           DILATREND TAB 12.5 MG /R/TAB     1
CC0000019308734U202100000555162200000555162230/10/20211620     3300004239421964320000C09B0100001316960000000000000                                                                       DIOVAN HCT TAB 80/12.5 MG /R/COM     1
CC0000019308734U202100000555162200000555162230/10/20211304     3300004239421964320000J01DB300000553200000000000000                                                                         CEFALOTINA SLN INY 1 G VIALVAL     1
CC0000019308734U202100000555162200000555162230/10/20211048     3300004239421964320000N2AX0400001204140000000000000                                                                             TRAMAL Sln Iny 50 mg/mlAMP     1
