RC0001044671880U202100050131439800050131439830/10/20211810    3190280023942196432000011048600000223020000000000000                                                                 JERINGA VACUNACION 3ML C/AGU 302542SIN     1
TI0001043689130U202100050131439800050131439830/10/20211810    3190280023942196432000011048600000223020000000000000                                                                 JERINGA VACUNACION 3ML C/AGU 302542SIN     1
CC0000022736540U202100050131439800050131439830/10/20211810    3190280023942196432000024674000000220660000000000000                             JERINGA A 3 PARTES CON AGUJA  SOB X 1 RYMCO  10ML BN EXENTO-DC.417/2020SIN     1
RC0001044671880U202100050131439800050131439830/10/20211810    3190280023942196432000042743200003929860000000000000                   GASA ADHESIVA STRETCH REF 02038-00 ROL X 10MT FIXOMULL 15CM BN EXENTO-DC.417/2020CMT    15
RC0001044671880U202100050131439800050131439830/10/20211810    3190280023942196432000001956000001620610000000000000                                                                      CONECTOR MICRO CLAVE LAT-MC100SOB     1
RC0001044671880U202100050131439800050131439830/10/20211810    31902800239421964320000Q1AA7400003911720000000000000                                                            CATETER PERIFE INTROCAN # 24G 4251601-04SOB     2
CC0000022736540U202100050131439800050131439830/10/20211810    3190280023942196432000030936900001431840000000000000                                                                                              BURETABOL     1
