CC0000022435654H202100000555154800000555154830/10/20211045    31500065237421964250000A11C0600001389430000000000000                                                                             CALCITRIOL CAP 0.25 MCGCAP     2
CC0000022435654H202100000555154800000555154830/10/20211045    31500065237421964250000A12AA500001379260000000000000                                                                             OSTEOCAL TAB 600 MG /R/TAB     6
CC0000022435654H202100000555154800000555154830/10/20211045    31500065237421964250000V3AB2200000614150000000000000                                                            GLUCONATO CALCIO SLN INY 10% AMP X 10 MLAPC     1
CC0000022435654H202100000555154800000555154830/10/20210659    31902949237421964250000V3AB2200000614150000000000000                                                            GLUCONATO CALCIO SLN INY 10% AMP X 10 MLAPC     2
CC0000022435654H202100000555154800000555154830/10/20211045    31500065237421964250000H03A0900001278900000000000000                                                                                   EUTIROX TB 75 MCGTAB     1
CC0000022435654H202100000555154800000555154830/10/20211045    31500065237421964250000N02B1100001169680000000000000                              PARACETAMOL 1000MG/100ML(10MG/ML) SOL INY  VIAL X 100ML FRESENIUS KABIVAL     3
