TI0001097116528U202100000555166800000555166830/10/20211200     3300004239421964320000A2BC0900000200150000000000000                                                                               ORAZOLE Sln Iny 40 mgCIN     1
TI0001097116528U202100000555166800000555166830/10/20211716    31500263239421964320000E1AC0100000199400000000000000                                                                          SUERO MIXTO Sln Iny 500 mlBIN     1
TI0001097116528U202100000555166800000555166830/10/20211247    31901806239421964320000E1AD0200003888320000000000000                                                                              HARTMAN SLN INY 500 MLBOL     1
TI0001097116528U202100000555166800000555166830/10/20211646    31901806239421964320000E1AD0300000199490000000000000                                         LACTATO RINGER USP (HARTMANN)  SOL INY  BOL X 1000ML BAXTERBIN     1
TI0001097116528U202100000555166800000555166830/10/20211735     3300004239421964320000A12BA100000552980000000000000                                                            CLORURO POTASIO Sln Iny AMP 20 MEQ/10 MLAMP     1
TI0001097116528U202100000555166800000555166830/10/20211636     3300004239421964320000J1CB0600000468340000000000000                                                           UNASYN IM-IV (1+0.5)GR POLV INY INST VIALVAL     1
TI0001097116528U202100000555166800000555166830/10/20211244     3300004239421964320000J1CB0600000468340000000000000                                                           UNASYN IM-IV (1+0.5)GR POLV INY INST VIALVAL     1
