RC0001041702816H202100015132504100015132504130/10/20210733    31903309237421964250000V07A1300000502600000000000000                                                                                AGUA ESTERIL x 10 mlAMP     3
NV0000169306826H202100015132504100015132504130/10/20210733    31903309237421964250000V07A1300000502600000000000000                                                                                AGUA ESTERIL x 10 mlAMP     2
RC0001240294513H202100015132504100015132504130/10/20210733    31903309237421964250000V07A1300000502600000000000000                                                                                AGUA ESTERIL x 10 mlAMP     4
RC0001043198450H202100015132504100015132504130/10/20210733    31903309237421964250000V07A1300000502600000000000000                                                                                AGUA ESTERIL x 10 mlAMP     5
RC0001048091851H202100015132504100015132504130/10/20210733    31903309237421964250000V07A1300000502600000000000000                                                                                AGUA ESTERIL x 10 mlAMP     5
RC0001048091909H202100015132504100015132504130/10/20210733    31903309237421964250000V07A1300000502600000000000000                                                                                AGUA ESTERIL x 10 mlAMP     5
NV0000169331968H202100015132504100015132504130/10/20210733    31903309237421964250000V07A1300000502600000000000000                                                                                AGUA ESTERIL x 10 mlAMP     2
RC0001053013307H202100015132504100015132504130/10/20210733    31903309237421964250000V07A1300000502600000000000000                                                                                AGUA ESTERIL x 10 mlAMP     4
RC0001048091952H202100015132504100015132504130/10/20210733    31903309237421964250000V07A1300000502600000000000000                                                                                AGUA ESTERIL x 10 mlAMP     4
NV0000169332760H202100015132504100015132504130/10/20210733    3190330923742196425000011060400001010330000000000000                                                            SENSOR PULSOX SPO2 LNCS NEONATAL MP00792PZA     1
RC0001043198450H202100015132504100015132504130/10/20210733    3190330923742196425000035356500003919000000000000000                                                                                        LLAVE 3 VIASSOB     2
RC0001048091909H202100015132504100015132504130/10/20210733    3190330923742196425000035356500003919000000000000000                                                                                        LLAVE 3 VIASSOB     2
RC0001048091952H202100015132504100015132504130/10/20210733    3190330923742196425000035356500003919000000000000000                                                                                        LLAVE 3 VIASSOB     2
RC0001041702816H202100015132504100015132504130/10/20210733    3190330923742196425000045136100001419300000000000000                                                                            LANCETA DEXTROMETER X UNPZA     2
NV0000169306826H202100015132504100015132504130/10/20210733    3190330923742196425000045136100001419300000000000000                                                                            LANCETA DEXTROMETER X UNPZA     1
RC0001240294513H202100015132504100015132504130/10/20210733    3190330923742196425000045136100001419300000000000000                                                                            LANCETA DEXTROMETER X UNPZA     1
RC0001043198450H202100015132504100015132504130/10/20210733    3190330923742196425000045136100001419300000000000000                                                                            LANCETA DEXTROMETER X UNPZA     2
NV0000169332059H202100015132504100015132504130/10/20210733    3190330923742196425000045136100001419300000000000000                                                                            LANCETA DEXTROMETER X UNPZA     3
RC0001048091851H202100015132504100015132504130/10/20210733    3190330923742196425000045136100001419300000000000000                                                                            LANCETA DEXTROMETER X UNPZA     1
RC0001048091909H202100015132504100015132504130/10/20210733    3190330923742196425000045136100001419300000000000000                                                                            LANCETA DEXTROMETER X UNPZA     2
NV0000169331968H202100015132504100015132504130/10/20210733    3190330923742196425000045136100001419300000000000000                                                                            LANCETA DEXTROMETER X UNPZA     2
NV0000169332760H202100015132504100015132504130/10/20210733    3190330923742196425000045136100001419300000000000000                                                                            LANCETA DEXTROMETER X UNPZA     1
RC0001053013307H202100015132504100015132504130/10/20210733    3190330923742196425000045136100001419300000000000000                                                                            LANCETA DEXTROMETER X UNPZA     2
RC0001048091952H202100015132504100015132504130/10/20210733    3190330923742196425000045136100001419300000000000000                                                                            LANCETA DEXTROMETER X UNPZA     2
RC0001048091909H202100015132504100015132504130/10/20210733    3190330923742196425000036441300000236540000000000000                                                                    JERINGA 1 ML GASES ARTERIAL 9023SIN     1
RC0001041702816H202100015132504100015132504130/10/20210733    3190330923742196425000024674000000220660000000000000                             JERINGA A 3 PARTES CON AGUJA  SOB X 1 RYMCO  10ML BN EXENTO-DC.417/2020SIN     3
NV0000169306826H202100015132504100015132504130/10/20210733    3190330923742196425000024674000000220660000000000000                             JERINGA A 3 PARTES CON AGUJA  SOB X 1 RYMCO  10ML BN EXENTO-DC.417/2020SIN     2
RC0001240294513H202100015132504100015132504130/10/20210733    3190330923742196425000024674000000220660000000000000                             JERINGA A 3 PARTES CON AGUJA  SOB X 1 RYMCO  10ML BN EXENTO-DC.417/2020SIN     6
RC0001043198450H202100015132504100015132504130/10/20210733    3190330923742196425000024674000000220660000000000000                             JERINGA A 3 PARTES CON AGUJA  SOB X 1 RYMCO  10ML BN EXENTO-DC.417/2020SIN     6
NV0000169332059H202100015132504100015132504130/10/20210733    3190330923742196425000024674000000220660000000000000                             JERINGA A 3 PARTES CON AGUJA  SOB X 1 RYMCO  10ML BN EXENTO-DC.417/2020SIN     2
RC0001048091851H202100015132504100015132504130/10/20210733    3190330923742196425000024674000000220660000000000000                             JERINGA A 3 PARTES CON AGUJA  SOB X 1 RYMCO  10ML BN EXENTO-DC.417/2020SIN     6
RC0001048091909H202100015132504100015132504130/10/20210733    3190330923742196425000024674000000220660000000000000                             JERINGA A 3 PARTES CON AGUJA  SOB X 1 RYMCO  10ML BN EXENTO-DC.417/2020SIN     6
NV0000169331968H202100015132504100015132504130/10/20210733    3190330923742196425000024674000000220660000000000000                             JERINGA A 3 PARTES CON AGUJA  SOB X 1 RYMCO  10ML BN EXENTO-DC.417/2020SIN     2
NV0000169332760H202100015132504100015132504130/10/20210733    3190330923742196425000024674000000220660000000000000                             JERINGA A 3 PARTES CON AGUJA  SOB X 1 RYMCO  10ML BN EXENTO-DC.417/2020SIN     1
RC0001053013307H202100015132504100015132504130/10/20210733    3190330923742196425000024674000000220660000000000000                             JERINGA A 3 PARTES CON AGUJA  SOB X 1 RYMCO  10ML BN EXENTO-DC.417/2020SIN     6
RC0001048091952H202100015132504100015132504130/10/20210733    3190330923742196425000024674000000220660000000000000                             JERINGA A 3 PARTES CON AGUJA  SOB X 1 RYMCO  10ML BN EXENTO-DC.417/2020SIN     4
RC0001041702816H202100015132504100015132504130/10/20210733    3190330923742196425000011047900000223010000000000000                                                                            JERINGA X 1ML REF 302579SIN     1
NV0000169306826H202100015132504100015132504130/10/20210733    3190330923742196425000011047900000223010000000000000                                                                            JERINGA X 1ML REF 302579SIN     1
RC0001240294513H202100015132504100015132504130/10/20210733    3190330923742196425000011047900000223010000000000000                                                                            JERINGA X 1ML REF 302579SIN     1
RC0001043198450H202100015132504100015132504130/10/20210733    3190330923742196425000011047900000223010000000000000                                                                            JERINGA X 1ML REF 302579SIN     1
NV0000169332059H202100015132504100015132504130/10/20210733    3190330923742196425000011047900000223010000000000000                                                                            JERINGA X 1ML REF 302579SIN     1
RC0001048091851H202100015132504100015132504130/10/20210733    3190330923742196425000011047900000223010000000000000                                                                            JERINGA X 1ML REF 302579SIN     1
RC0001048091909H202100015132504100015132504130/10/20210733    3190330923742196425000011047900000223010000000000000                                                                            JERINGA X 1ML REF 302579SIN     1
NV0000169331968H202100015132504100015132504130/10/20210733    3190330923742196425000011047900000223010000000000000                                                                            JERINGA X 1ML REF 302579SIN     1
RC0001053013307H202100015132504100015132504130/10/20210733    3190330923742196425000011047900000223010000000000000                                                                            JERINGA X 1ML REF 302579SIN     1
RC0001048091952H202100015132504100015132504130/10/20210733    3190330923742196425000011047900000223010000000000000                                                                            JERINGA X 1ML REF 302579SIN     1
RC0001043198450H202100015132504100015132504130/10/20210733    3190330923742196425000043485100001618510000000000000                GUANTE QUIRURGICO DE LATEX REF 2D72N65X CAJ X 50 PROTEXIS  6.5 BN EXENTO-DC.417/2020SOB     2
RC0001048091909H202100015132504100015132504130/10/20210733    3190330923742196425000043485100001618510000000000000                GUANTE QUIRURGICO DE LATEX REF 2D72N65X CAJ X 50 PROTEXIS  6.5 BN EXENTO-DC.417/2020SOB     2
RC0001048091952H202100015132504100015132504130/10/20210733    3190330923742196425000043485100001618510000000000000                GUANTE QUIRURGICO DE LATEX REF 2D72N65X CAJ X 50 PROTEXIS  6.5 BN EXENTO-DC.417/2020SOB     2
RC0001043198450H202100015132504100015132504130/10/20210733    3190330923742196425000011085100001082120000000000000                                                                           GUANTE QUIRURGICO TALLA 7SOB     2
RC0001048091909H202100015132504100015132504130/10/20210733    3190330923742196425000011085100001082120000000000000                                                                           GUANTE QUIRURGICO TALLA 7SOB     2
RC0001048091952H202100015132504100015132504130/10/20210733    3190330923742196425000011085100001082120000000000000                                                                           GUANTE QUIRURGICO TALLA 7SOB     2
RC0001043198450H202100015132504100015132504130/10/20210733    3190330923742196425000000602600001259280000000000000                                                             APOSITO TEGADERM IV PD 1610 5CM X 5.7CMSOB     1
NV0000169332059H202100015132504100015132504130/10/20210733    3190330923742196425000037180800001271920000000000000                                                                   APOSITO DUODERM EXTR TH 10*10 187SOB     1
NV0000169332760H202100015132504100015132504130/10/20210733    3190330923742196425000037180800001271920000000000000                                                                   APOSITO DUODERM EXTR TH 10*10 187SOB     1
NV0000169332059H202100015132504100015132504130/10/20210733    31903309237421964250000E1BA0100000198890000000000000                                                                   AGUA ESTERIL USP SLN INY X 500 MLBIN     1
NV0000169306826H202100015132504100015132504130/10/20210733    31903309237421964250000E1AA0400003888560000000000000                                                                         DEXTROSA 10% SLN INY 500 MLBOL     1
NV0000169306826H202100015132504100015132504130/10/20210733    31903309237421964250000E1AB0200000199290000000000000                                                            SOLUCION SALINA 0.9% SLN INY BO X 100 MLBIN     1
RC0001240294513H202100015132504100015132504130/10/20210733    31903309237421964250000E1AB0200000199290000000000000                                                            SOLUCION SALINA 0.9% SLN INY BO X 100 MLBIN     1
RC0001043198450H202100015132504100015132504130/10/20210733    31903309237421964250000E1AB0200000199290000000000000                                                            SOLUCION SALINA 0.9% SLN INY BO X 100 MLBIN     1
RC0001048091909H202100015132504100015132504130/10/20210733    31903309237421964250000E1AB0200000199290000000000000                                                            SOLUCION SALINA 0.9% SLN INY BO X 100 MLBIN     1
RC0001048091952H202100015132504100015132504130/10/20210733    31903309237421964250000E1AB0200000199290000000000000                                                            SOLUCION SALINA 0.9% SLN INY BO X 100 MLBIN     1
RC0001041702816H202100015132504100015132504130/10/20210733    3190330923742196425000011137100001419310000000000000                                                               TIRA GLUCOMETRIA FREESTYLE H OPTIUM .PZA     2
NV0000169306826H202100015132504100015132504130/10/20210733    3190330923742196425000011137100001419310000000000000                                                               TIRA GLUCOMETRIA FREESTYLE H OPTIUM .PZA     1
RC0001240294513H202100015132504100015132504130/10/20210733    3190330923742196425000011137100001419310000000000000                                                               TIRA GLUCOMETRIA FREESTYLE H OPTIUM .PZA     1
RC0001043198450H202100015132504100015132504130/10/20210733    3190330923742196425000011137100001419310000000000000                                                               TIRA GLUCOMETRIA FREESTYLE H OPTIUM .PZA     2
NV0000169332059H202100015132504100015132504130/10/20210733    3190330923742196425000011137100001419310000000000000                                                               TIRA GLUCOMETRIA FREESTYLE H OPTIUM .PZA     3
RC0001048091851H202100015132504100015132504130/10/20210733    3190330923742196425000011137100001419310000000000000                                                               TIRA GLUCOMETRIA FREESTYLE H OPTIUM .PZA     1
RC0001048091909H202100015132504100015132504130/10/20210733    3190330923742196425000011137100001419310000000000000                                                               TIRA GLUCOMETRIA FREESTYLE H OPTIUM .PZA     2
NV0000169331968H202100015132504100015132504130/10/20210733    3190330923742196425000011137100001419310000000000000                                                               TIRA GLUCOMETRIA FREESTYLE H OPTIUM .PZA     2
NV0000169332760H202100015132504100015132504130/10/20210733    3190330923742196425000011137100001419310000000000000                                                               TIRA GLUCOMETRIA FREESTYLE H OPTIUM .PZA     1
RC0001053013307H202100015132504100015132504130/10/20210733    3190330923742196425000011137100001419310000000000000                                                               TIRA GLUCOMETRIA FREESTYLE H OPTIUM .PZA     2
RC0001048091952H202100015132504100015132504130/10/20210733    3190330923742196425000011137100001419310000000000000                                                               TIRA GLUCOMETRIA FREESTYLE H OPTIUM .PZA     2
