RC0001049327683U202100050131433600050131433630/10/20210945    3150036223942196432000011048600000223020000000000000                                                                 JERINGA VACUNACION 3ML C/AGU 302542SIN     4
RC0001049327683U202100050131433600050131433630/10/20210945    3150036223942196432000024673600000222980000000000000                                                                     JERINGA DESECHABLE 5 ml 27*11/2SIN     2
RC0001049327683U202100050131433600050131433630/10/20210945    3150036223942196432000011085100001082120000000000000                                                                           GUANTE QUIRURGICO TALLA 7SOB     4
RC0001049327683U202100050131433600050131433630/10/20210945    3150036223942196432000013077800000471960000000000000                                                             GASA NO TEJIDA EST 7.5 X 7.5 SOB X 3 UNSOB     4
