CC0000055228428U202100000555159300000555159330/10/20211259    31903180239421964320000E1AD0200003888320000000000000                                                                              HARTMAN SLN INY 500 MLBOL     1
CC0000055228428U202100000555159300000555159330/10/20212045     3300004239421964320000B01AB200000513350000000000000                                                                        CLENOX SLN INY 40 MG/ 0.4 MLJRP     1
CC0000055228428U202100000555159300000555159330/10/20211721     3300004239421964320000M04AC100001333690000000000000                                                                               COLCHICINA TAB 0.5 MGTAB     3
CC0000055228428U202100000555159300000555159330/10/20210921     3300004239421964320000N2BE2200001252930000000000000                                                                             ACETAMINOFEN Tab 500 MGTAB     2
CC0000055228428U202100000555159300000555159330/10/20211721     3300004239421964320000N02AA700000979510000000000000                                                            DIHIDROCODEINA SLN ORAL 2.42 MG/ML X 120FCO     1
CC0000055228428U202100000555159300000555159330/10/20211257     3300004239421964320000N2BB0100000787510000000000000                                                                    DIPIRONA SODICA Sln Iny 1 g/2 mlAMP     1
CC0000055228428U202100000555159300000555159330/10/20211221     3300004239421964320000N2BB0100000787510000000000000                                                                    DIPIRONA SODICA Sln Iny 1 g/2 mlAMP     1
