CC0001047339570A202100000027650700000027650730/10/20210924    31903336240421964190000E1AB0700003888350000000000000                                                            SOLUCION SALINA 0.9% SLN INY BO X 250 MLBOL     1
CC0001047339570A202100000027650700000027650730/10/20210924    31903336240421964190000E1AB0200000199290000000000000                                                            SOLUCION SALINA 0.9% SLN INY BO X 100 MLBIN     1
CC0001047339570A202100000027650700000027650730/10/20210924    31903336240421964190000N02B1100001169680000000000000                              PARACETAMOL 1000MG/100ML(10MG/ML) SOL INY  VIAL X 100ML FRESENIUS KABIVAL     1
CC0001047339570A202100000027650700000027650730/10/20210924    31903336240421964190000A3BB0200000512940000000000000                                                                          BUSCAPINA SIMPLE Iny 20 mgAMP     1
CC0001047339570A202100000027650700000027650730/10/20210924    31903336240421964190000A2BC0900000200150000000000000                                                                               ORAZOLE Sln Iny 40 mgCIN     1
CC0001047339570A202100000027650700000027650730/10/20210924    31903336240421964190000M1AX0200001569410000000000000                                                                         KETRON SLN INY 30 MG / 2 MLAMP     1
CC0001047339570A202100000027650700000027650730/10/20210924    31903336240421964190000N2BB1100000217160000000000000                                                                      NOVALGINA Sln Iny 2.5 g x 5 mlAMP     1
CC0001047339570A202100000027650700000027650730/10/20210924    31903336240421964190000A4AD0200000202990000000000000                                                                     PLITICAN HCL Sln Iny 50 mg/2 mlAMP     1
CC0001047339570A202100000027650700000027650730/10/20210924    31903336240421964190000H02AB500001664950000000000000                                                            DEXAMETASONA SLN INY 8 MG/2 ML AMP /CDS/AMP     1
CC0001047339570A202100000027650700000027650730/10/20210924    31903336240421964190000M3AC0600000720540000000000000                                                                         ESMERON SLN INY 50 MG /5 MLVAL     1
CC0001047339570A202100000027650700000027650730/10/20210924    31903336240421964190000N2AA0700001587170000000000000                                                                                 ULTIVA Sln Iny 2 mgVAL     1
CC0001047339570A202100000027650700000027650730/10/20210924    3190333624042196419000038569900001124970000000000000                                                                              SONDA FOLEY #14 2 VIASSOB     1
CC0001047339570A202100000027650700000027650730/10/20210924    3190333624042196419000001202300001454590000000000000                                                            CANULA UNIVERSA FIJACION 12MM UNVCA12STFSOB     1
CC0001047339570A202100000027650700000027650730/10/20210924    3190333624042196419000024675000001585130000000000000                                                                    JERINGA DESECHABLE 50 ml S/AGUJASOB     2
CC0001047339570A202100000027650700000027650730/10/20210924    31903336240421964190000N01A0400003939010000000000000                                               MAYOPROFOL 200MG/20ML(1%) EMUL INY CAJ X 1VIAL X 20MLVAL     3
CC0001047339570A202100000027650700000027650730/10/20210924    3190333624042196419000011055600000349930000000000000                                                             MEDIA ANTIEMBOLICA MUSLO T.V.P 98 ( XL)BOL     1
CC0001047339570A202100000027650700000027650730/10/20210924    31903336240421964190000N1BA3200000520850000000000000                                                                    BUPIROP 0.5% C/E Sln Iny x 10 mlAPC     1
CC0001047339570A202100000027650700000027650730/10/20210924    3190333624042196419000011082600000265810000000000000                                                              EQUIPO IRRIGACION URINARIA REF MRC4002SOB     1
CC0001047339570A202100000027650700000027650730/10/20210924    3190333624042196419000000501000000526920000000000000                                                                   POLYSORB 2/0 GU46 REF UL878  TYCOSIN     1
CC0001047339570A202100000027650700000027650730/10/20210924    3190333624042196419000013077800000471960000000000000                                                             GASA NO TEJIDA EST 7.5 X 7.5 SOB X 3 UNSOB     1
CC0001047339570A202100000027650700000027650730/10/20210924    3190333624042196419000031188000000236790000000000000                                                                                     CISTOFLO ADULTOSIN     1
CC0001047339570A202100000027650700000027650730/10/20210924    3190333624042196419000043879200001138180000000000000                                                                                   HOJA BISTURI # 11SOB     1
CC0001047339570A202100000027650700000027650730/10/20210924    3190333624042196419000038568600000256960000000000000                                                                                   SONDA NELATON #14SIN     1
CC0001047339570A202100000027650700000027650730/10/20210924    3190333624042196419000000501300000223570000000000000                                                                     STERI-STRIP 6 X 100 REF 1546 3MSIN     1
CC0001047339570A202100000027650700000027650730/10/20210924    3190333624042196419000015994600000632480000000000000                                                                          MONOCRYL 4-0 PS-2 45 Y496GSIN     1
CC0001047339570A202100000027650700000027650730/10/20210924    3190333624042196419000030161400001459220000000000000                                                                       MANGUERA SUCCION 6 MM*3.1 MTSSOB     1
CC0001047339570A202100000027650700000027650730/10/20210924    3190333624042196419000022425200000548240000000000000                       EXTENSION DE ANESTESIA REF 1139 SOB X 1 SHERLEG  ADULTO BN EXENTO-DC.417/2020SIN     3
CC0001047339570A202100000027650700000027650730/10/20210924    3190333624042196419000035356500003919000000000000000                                                                                        LLAVE 3 VIASSOB     3
CC0001047339570A202100000027650700000027650730/10/20210924    31903336240421964190000Q1AA7100000610620000000000000                                                            CATETER PERIFE INTROCAN # 18G 4251687-04SIN     1
CC0001047339570A202100000027650700000027650730/10/20210924    3190333624042196419000022426800001140510000000000000                                                                    EQUIPO MACROGOTEO BAXTER MRC0001SOB     1
CC0001047339570A202100000027650700000027650730/10/20210924    3190333624042196419000016830000000970620000000000000                                                             SIST FIJACION CAT PERIFERICO 6.5X7 1683SOB     1
CC0001047339570A202100000027650700000027650730/10/20210924    31903336240421964190000J01DA300001239950000000000000                                                            CEFAZOLINA SODICA POLVO LIOF SLN INY 1 GVAL     2
CC0001047339570A202100000027650700000027650730/10/20210924    3190333624042196419000011073300001096420000000000000                                                                BOLSA DE SUCCION DE FLUIDOS x 2500mLBOL     1
CC0001047339570A202100000027650700000027650730/10/20210924    3190333624042196419000020750600000296780000000000000                                                                PLACA ELECTRO RETORNO PACIENTE E7506SIN     1
CC0001047339570A202100000027650700000027650730/10/20210924    3190333624042196419000011082700001620070000000000000                                                               EQUIPO SET PRIMARIO C/CLAVE REF 14001BOL     2
CC0001047339570A202100000027650700000027650730/10/20210924    3190333624042196419000053074400000607910000000000000                                                               GASA ESTERIL 10*10 SOBRE X 3 UNIDADESSOB     3
CC0001047339570A202100000027650700000027650730/10/20210924    3190333624042196419000011085400001083360000000000000                                                                       GUANTE QUIRURGICO TALLA 8 1/2SOB     1
CC0001047339570A202100000027650700000027650730/10/20210924    3190333624042196419000011085300001082140000000000000                                                                           GUANTE QUIRURGICO TALLA 8SOB     2
CC0001047339570A202100000027650700000027650730/10/20210924    3190333624042196419000011085200001585390000000000000                                                                       GUANTE QUIRURGICO TALLA 7 1/2SOB     1
CC0001047339570A202100000027650700000027650730/10/20210924    3190333624042196419000011085100001082120000000000000                                                                           GUANTE QUIRURGICO TALLA 7SOB     2
CC0001047339570A202100000027650700000027650730/10/20210924    3190333624042196419000043485100001618510000000000000                GUANTE QUIRURGICO DE LATEX REF 2D72N65X CAJ X 50 PROTEXIS  6.5 BN EXENTO-DC.417/2020SOB     1
CC0001047339570A202100000027650700000027650730/10/20210924    3190333624042196419000051515500000598160000000000000                                                                            MASCARILLA ANESTESIA # 5SIN     1
CC0001047339570A202100000027650700000027650730/10/20210924    3190333624042196419000038568100000258050000000000000                                                                         CANULA OXIGENO NASAL ADULTOSIN     1
CC0001047339570A202100000027650700000027650730/10/20210924    3190333624042196419000011099300000777780000000000000                                                                     FILTRO BACTERIANO VIRICO ADULTOBOL     1
CC0001047339570A202100000027650700000027650730/10/20210924    3190333624042196419000020056600001101530000000000000                                                                AGUJA HIPODERMICA DESECH 18G X 1 1/2SOB     2
CC0001047339570A202100000027650700000027650730/10/20210924    3190333624042196419000039175000001072050000000000000                                                                           TUBO ENDOTRAQUEAL C/B 7.0SOB     1
CC0001047339570A202100000027650700000027650730/10/20210924    3190333624042196419000024673600000222980000000000000                                                                     JERINGA DESECHABLE 5 ml 27*11/2SIN     2
CC0001047339570A202100000027650700000027650730/10/20210924    3190333624042196419000024674000000220660000000000000                             JERINGA A 3 PARTES CON AGUJA  SOB X 1 RYMCO  10ML BN EXENTO-DC.417/2020SIN     5
CC0001047339570A202100000027650700000027650730/10/20210924    3190333624042196419000024674500000322810000000000000                                                                   JERINGA DESECHABLE 20 ml 21*1 1/2SIN     1
CC0001047339570A202100000027650700000027650730/10/20210924    31903336240421964190000E1AB0500003888400000000000000                                                              SOLUCION SALINA 0.9% SLN INY X 1000 MLBOL     1
CC0001047339570A202100000027650700000027650730/10/20210924    31903336240421964190000E1AB0300003888390000000000000                                                            SOLUCION SALINA 0.9% SLN INY BO X 500 MLBOL     3
