PA0000117017010A202100000027651000000027651030/10/20210810    31903336240421964190000Q1A13800003907920000000000000AGUJA HOPODERMICA DESECHABLE REF 305111 CAJ X 100 BD PRECISION GLIDE 26G X 1/2PULG BN EXENTO-DC.417/SOB     1
PA0000117017010A202100000027651000000027651030/10/20210810    31903336240421964190000M01A0600000178090000000000000                                                                     KETOROLACO SLN INY 30 MG/ML /R/AMP     1
PA0000117017010A202100000027651000000027651030/10/20210810    31903336240421964190000N02B1100001169680000000000000                              PARACETAMOL 1000MG/100ML(10MG/ML) SOL INY  VIAL X 100ML FRESENIUS KABIVAL     1
PA0000117017010A202100000027651000000027651030/10/20210810    3190333624042196419000000504400000232770000000000000                                                                 SUTURA SEDA NEGRA 0 10 X 75CM SA86TSIN     1
PA0000117017010A202100000027651000000027651030/10/20210810    31903336240421964190000A3BB0200000512940000000000000                                                                          BUSCAPINA SIMPLE Iny 20 mgAMP     1
PA0000117017010A202100000027651000000027651030/10/20210810    3190333624042196419000019487800001585180000000000000                                                                    VICRYL 1 PLUS 70 CM CT-1 VCP341HSOB     1
PA0000117017010A202100000027651000000027651030/10/20210810    31903336240421964190000K0960000001052020000000000000                                                            RECARGA ARTICULABLE 60 PURPURA EGIA60AMTPZA     4
PA0000117017010A202100000027651000000027651030/10/20210810    3190333624042196419000000502000001136060000000000000                                                                   SURGIPRO 2/0 V- 20-75CM REF VP833PZA     1
PA0000117017010A202100000027651000000027651030/10/20210810    3190333624042196419000043879200001138180000000000000                                                                                   HOJA BISTURI # 11SOB     1
PA0000117017010A202100000027651000000027651030/10/20210810    3190333624042196419000045138000001413890000000000000                                                                       LAPIZ ELECTROBISTURI  SOB X 1SOB     1
PA0000117017010A202100000027651000000027651030/10/20210810    3190333624042196419000013077800000471960000000000000                                                             GASA NO TEJIDA EST 7.5 X 7.5 SOB X 3 UNSOB     1
PA0000117017010A202100000027651000000027651030/10/20210810    31903336240421964190000N1BA0300000217900000000000000                                                                    BUPIROP 0.5% C/E Sln Iny x 20 mlVAL     1
PA0000117017010A202100000027651000000027651030/10/20210810    3190333624042196419000011055600000349930000000000000                                                             MEDIA ANTIEMBOLICA MUSLO T.V.P 98 ( XL)BOL     1
PA0000117017010A202100000027651000000027651030/10/20210810    31903336240421964190000J01DA300001239950000000000000                                                            CEFAZOLINA SODICA POLVO LIOF SLN INY 1 GVAL     2
PA0000117017010A202100000027651000000027651030/10/20210810    3190333624042196419000016830000000970620000000000000                                                             SIST FIJACION CAT PERIFERICO 6.5X7 1683SOB     1
PA0000117017010A202100000027651000000027651030/10/20210810    31903336240421964190000Q1AA7100000610620000000000000                                                            CATETER PERIFE INTROCAN # 18G 4251687-04SIN     1
PA0000117017010A202100000027651000000027651030/10/20210810    3190333624042196419000035356500003919000000000000000                                                                                        LLAVE 3 VIASSOB     2
PA0000117017010A202100000027651000000027651030/10/20210810    3190333624042196419000022425200000548240000000000000                       EXTENSION DE ANESTESIA REF 1139 SOB X 1 SHERLEG  ADULTO BN EXENTO-DC.417/2020SIN     2
PA0000117017010A202100000027651000000027651030/10/20210810    3190333624042196419000022426800001140510000000000000                                                                    EQUIPO MACROGOTEO BAXTER MRC0001SOB     1
PA0000117017010A202100000027651000000027651030/10/20210810    3190333624042196419000020750600000296780000000000000                                                                PLACA ELECTRO RETORNO PACIENTE E7506SIN     1
PA0000117017010A202100000027651000000027651030/10/20210810    3190333624042196419000024673000001411210000000000000                                                                  JERINGA DESECHABLE 3 ML 21 X 1 1/2SOB     2
PA0000117017010A202100000027651000000027651030/10/20210810    3190333624042196419000024673600000222980000000000000                                                                     JERINGA DESECHABLE 5 ml 27*11/2SIN     2
PA0000117017010A202100000027651000000027651030/10/20210810    3190333624042196419000024674500000322810000000000000                                                                   JERINGA DESECHABLE 20 ml 21*1 1/2SIN     2
PA0000117017010A202100000027651000000027651030/10/20210810    3190333624042196419000024674000000220660000000000000                             JERINGA A 3 PARTES CON AGUJA  SOB X 1 RYMCO  10ML BN EXENTO-DC.417/2020SIN     5
PA0000117017010A202100000027651000000027651030/10/20210810    3190333624042196419000011085300001082140000000000000                                                                           GUANTE QUIRURGICO TALLA 8SOB     2
PA0000117017010A202100000027651000000027651030/10/20210810    3190333624042196419000011085100001082120000000000000                                                                           GUANTE QUIRURGICO TALLA 7SOB     2
PA0000117017010A202100000027651000000027651030/10/20210810    3190333624042196419000011085200001585390000000000000                                                                       GUANTE QUIRURGICO TALLA 7 1/2SOB     2
PA0000117017010A202100000027651000000027651030/10/20210810    3190333624042196419000043485100001618510000000000000                GUANTE QUIRURGICO DE LATEX REF 2D72N65X CAJ X 50 PROTEXIS  6.5 BN EXENTO-DC.417/2020SOB     3
PA0000117017010A202100000027651000000027651030/10/20210810    3190333624042196419000053074400000607910000000000000                                                               GASA ESTERIL 10*10 SOBRE X 3 UNIDADESSOB     1
PA0000117017010A202100000027651000000027651030/10/20210810    3190333624042196419000011073300001096420000000000000                                                                BOLSA DE SUCCION DE FLUIDOS x 2500mLBOL     1
PA0000117017010A202100000027651000000027651030/10/20210810    3190333624042196419000030161400001459220000000000000                                                                       MANGUERA SUCCION 6 MM*3.1 MTSSOB     2
PA0000117017010A202100000027651000000027651030/10/20210810    3190333624042196419000011099300000777780000000000000                                                                     FILTRO BACTERIANO VIRICO ADULTOBOL     1
PA0000117017010A202100000027651000000027651030/10/20210810    3190333624042196419000039175100001072060000000000000                                                                           TUBO ENDOTRAQUEAL C/B 7.5SOB     1
PA0000117017010A202100000027651000000027651030/10/20210810    3190333624042196419000051515500000598160000000000000                                                                            MASCARILLA ANESTESIA # 5SIN     1
PA0000117017010A202100000027651000000027651030/10/20210810    3190333624042196419000001200400000530690000000000000                                                                          CANULA DE MAYO # 5 (100MM)SIN     1
PA0000117017010A202100000027651000000027651030/10/20210810    3190333624042196419000038568100000258050000000000000                                                                         CANULA OXIGENO NASAL ADULTOSIN     1
PA0000117017010A202100000027651000000027651030/10/20210810    31903336240421964190000E1AB0300003888390000000000000                                                            SOLUCION SALINA 0.9% SLN INY BO X 500 MLBOL     6
PA0000117017010A202100000027651000000027651030/10/20210810    31903336240421964190000E1AB0200000199290000000000000                                                            SOLUCION SALINA 0.9% SLN INY BO X 100 MLBIN     1
PA0000117017010A202100000027651000000027651030/10/20210810    31903336240421964190000V3AB1900001177870000000000000                                                                      PROSTIGMINE Sln Iny 0.5 mg/ mlAMP     4
PA0000117017010A202100000027651000000027651030/10/20210810    31903336240421964190000N2BB1100000217160000000000000                                                                      NOVALGINA Sln Iny 2.5 g x 5 mlAMP     1
PA0000117017010A202100000027651000000027651030/10/20210810    31903336240421964190000H02AB500001664950000000000000                                                            DEXAMETASONA SLN INY 8 MG/2 ML AMP /CDS/AMP     1
PA0000117017010A202100000027651000000027651030/10/20210810    31903336240421964190000A04A1400001467560000000000000                                                                      ONDANSETRON SLN INY 8 MG/ 4 MLVAL     1
PA0000117017010A202100000027651000000027651030/10/20210810    31903336240421964190000C01C0300001261020000000000000                                                               ETILEFRINA HCL SLN INY 10 MG/1 ML /R/AMP     1
PA0000117017010A202100000027651000000027651030/10/20210810    31903336240421964190000A3BA0100001109400000000000000                                                                          ATROPINA SLN INY 1 MG / MLAMP     1
PA0000117017010A202100000027651000000027651030/10/20210810    31903336240421964190000N01B1300001195250000000000000                                                                         BUPIROP 0.5% S/EPIN X 10 MLAMP     2
PA0000117017010A202100000027651000000027651030/10/20210810    31903336240421964190000N1BA2400001195280000000000000                                                                    LIDOCAINA 2% S/E Sln Iny x 10 mlAMP     1
PA0000117017010A202100000027651000000027651030/10/20210810    31903336240421964190000N01A0400003939010000000000000                                               MAYOPROFOL 200MG/20ML(1%) EMUL INY CAJ X 1VIAL X 20MLVAL     1
PA0000117017010A202100000027651000000027651030/10/20210810    31903336240421964190000M3AC0600000720540000000000000                                                                         ESMERON SLN INY 50 MG /5 MLVAL     1
PA0000117017010A202100000027651000000027651030/10/20210810    31903336240421964190000N2AA0100000301640000000000000                                                                            MORFINA Sln Iny 10 mg/mlAMP     1
PA0000117017010A202100000027651000000027651030/10/20210810    31903336240421964190000N5CD0300000218170000000000000                                                                          DORMICUM Sln Iny 5 mg/5 mlAMP     1
