RC0001146544739U202100050131442100050131442130/10/20212116    3190118123942196432000024674000000220660000000000000                             JERINGA A 3 PARTES CON AGUJA  SOB X 1 RYMCO  10ML BN EXENTO-DC.417/2020SIN     3
RC0001146544739U202100050131442100050131442130/10/20212116    3190118123942196432000022426900000236750000000000000                                                                EQUIPO MACROGOTEO CON AGUJA (MRC001)SOB     1
RC0001146544739U202100050131442100050131442130/10/20212116    3190118123942196432000030936900001431840000000000000                                                                                              BURETABOL     1
RC0001146544739U202100050131442100050131442130/10/20212116    31901181239421964320000E1AB0700003888350000000000000                                                            SOLUCION SALINA 0.9% SLN INY BO X 250 MLBOL     1
