CC0001042970504H202100000555154100000555154130/10/20211428    31902651237421964250000E1AB0200000199290000000000000                                                            SOLUCION SALINA 0.9% SLN INY BO X 100 MLBIN     3
CC0001042970504H202100000555154100000555154130/10/20211428    31902651237421964250000E1AD0300000199490000000000000                                         LACTATO RINGER USP (HARTMANN)  SOL INY  BOL X 1000ML BAXTERBIN     2
CC0001042970504H202100000555154100000555154130/10/20211428    31902651237421964250000B5BC0200003889280000000000000                                                                 OSMORIN MANITOL 20 % Bolsa X 500 mlBOL     2
CC0001042970504H202100000555154100000555154130/10/20212149     3300010237421964250000N07X0300003913670000000000000                                    DEXMEDETOMIDINA 400MCG/100ML(4MCG/ML) SOL INY BOL X 100ML BAXTERBOL     1
CC0001042970504H202100000555154100000555154130/10/20212148     3300010237421964250000N07X0300003913670000000000000                                    DEXMEDETOMIDINA 400MCG/100ML(4MCG/ML) SOL INY BOL X 100ML BAXTERBOL     4
CC0001042970504H202100000555154100000555154130/10/20211137     3300009237421964250000N07X0300003913670000000000000                                    DEXMEDETOMIDINA 400MCG/100ML(4MCG/ML) SOL INY BOL X 100ML BAXTERBOL     2
CC0001042970504H202100000555154100000555154130/10/20212146     3300010237421964250000V6DF5300000302770000000000000                                                                        ENSURE PLUS HN LCP X 1000 MLFCO     1
CC0001042970504H202100000555154100000555154130/10/20211141     3300009237421964250000V6DF5300000302770000000000000                                                                        ENSURE PLUS HN LCP X 1000 MLFCO     1
CC0001042970504H202100000555154100000555154130/10/20211155     3300009237421964250000N1AH0200003906560000000000000                                                                     FENTANIL Iny 0.05 mg/ml x 10 mlAMP    10
CC0001042970504H202100000555154100000555154130/10/20211155     3300009237421964250000N5CD0300000218170000000000000                                                                          DORMICUM Sln Iny 5 mg/5 mlAMP    40
CC0001042970504H202100000555154100000555154130/10/20211137     3300009237421964250000J01CR200000947130000000000000                                                              AMPICILINA /SULBACTAN POLVO LIOF 1.5 GAMP     4
CC0001042970504H202100000555154100000555154130/10/20211138     3300009237421964250000N2BB0100000787510000000000000                                                                    DIPIRONA SODICA Sln Iny 1 g/2 mlAMP     1
CC0001042970504H202100000555154100000555154130/10/20212146     3300010237421964250000N03AB200001168090000000000000                                                                       FENITOINA Sln Iny 250 mg/5 mlAMP     1
CC0001042970504H202100000555154100000555154130/10/20211137     3300009237421964250000N03AB200001168090000000000000                                                                       FENITOINA Sln Iny 250 mg/5 mlAMP     1
CC0001042970504H202100000555154100000555154130/10/20212146     3300010237421964250000N05A1300000614370000000000000                                                                       HALOPERIDOL SLN INY 5 MG / MLAMP     2
CC0001042970504H202100000555154100000555154130/10/20211141     3300009237421964250000N05A1300000614370000000000000                                                                       HALOPERIDOL SLN INY 5 MG / MLAMP     1
CC0001042970504H202100000555154100000555154130/10/20211140     3300009237421964250000N05A1300000614370000000000000                                                                       HALOPERIDOL SLN INY 5 MG / MLAMP     1
CC0001042970504H202100000555154100000555154130/10/20211141     3300009237421964250000N05A1700001278300000000000000                                                                            QUETIAPINA TAB 25 MG /R/TAB     3
CC0001042970504H202100000555154100000555154130/10/20211137     3300009237421964250000N05A1700001278300000000000000                                                                            QUETIAPINA TAB 25 MG /R/TAB     1
CC0001042970504H202100000555154100000555154130/10/20211138     3300009237421964250000A02BC700001684270000000000000                                                            OMEPRAZOL 40MG POLVO LIOFILIZADO AMPOLLAVAL     1
CC0001042970504H202100000555154100000555154130/10/20211428    31902651237421964250000V07A1300000502600000000000000                                                                                AGUA ESTERIL x 10 mlAMP     5
