CC0000055163818H202100000555171600000555171630/10/20211403    31500192237421964250000A2BC0900000200150000000000000                                                                               ORAZOLE Sln Iny 40 mgCIN     1
CC0000055163818H202100000555171600000555171630/10/20211458    31500192237421964250000B1AB0200003939510000000000000                 ENOXAPARINA SODICA 40MG/0.4ML(100MG/ML) SOL INY INST CAJ X 2JERPREL X 0.4ML TECHDOWJRP     1
CC0000055163818H202100000555171600000555171630/10/20211403    31500192237421964250000B1AB0200003939510000000000000                 ENOXAPARINA SODICA 40MG/0.4ML(100MG/ML) SOL INY INST CAJ X 2JERPREL X 0.4ML TECHDOWJRP     1
CC0000055163818H202100000555171600000555171630/10/20212137    31902940237421964250000J1CB1800001134180000000000000                                                                             TAZOCIN Polvo Iny 4.5 gVAL     3
CC0000055163818H202100000555171600000555171630/10/20211458    31500192237421964250000J1CB1800001134180000000000000                                                                             TAZOCIN Polvo Iny 4.5 gVAL     1
CC0000055163818H202100000555171600000555171630/10/20211403    31500192237421964250000J1CB1800001134180000000000000                                                                             TAZOCIN Polvo Iny 4.5 gVAL     3
CC0000055163818H202100000555171600000555171630/10/20211458    31500192237421964250000J3CA0200001208130000000000000                                                                      FLAGYL SLN INY 500 MG X 100 MLBOL     2
CC0000055163818H202100000555171600000555171630/10/20211403    31500192237421964250000J3CA0200001208130000000000000                                                                      FLAGYL SLN INY 500 MG X 100 MLBOL     3
CC0000055163818H202100000555171600000555171630/10/20211403    31500192237421964250000N2BB0500000217140000000000000                                                                          NOVALGINA Sln Iny 1 g/2 mlAMP     3
CC0000055163818H202100000555171600000555171630/10/20211403    31500192237421964250000N05C0800001314910000000000000                                                                                ISOKLON TAB 3 MG /R/TAB     1
