CC0000036724804H202100015022526100015022526130/10/20211026    3190115123742196425000041997500001271900000000000000                                                              APOSITO DUODERM EXTRA THIN 15CM X 15CMSOB     1
CC0000036724804H202100015022526100015022526130/10/20211026    3190115123742196425000000601300001271960000000000000                                                               APOSITO DUODERM CGF  187661 (15X15)CMSOB     1
CC0000036724804H202100015022526100015022526130/10/20211026    3190115123742196425000011133500001585140000000000000                                                              APOSITO TEGADERM REF 9536HP SOB X 1 3MSOB     1
