CC0000019308734H202100000555177400000555177430/10/20211746     3300009237421964250000A10A1900000601020000000000000                                                                   APIDRA CARTU 100 UI/ML X 3 ML /R/CAR     1
CC0000019308734H202100000555177400000555177430/10/20211746     3300009237421964250000A10B1600001336910000000000000                                                                               TRAYENTA TAB 5 MG /R/TAB     2
CC0000019308734H202100000555177400000555177430/10/20211746     3300009237421964250000A12BA500003864190000000000000                                                   ION-K 1.56GR/5ML(31.2%) SOL ORAL INST FCO X 180MLFCO     1
CC0000019308734H202100000555177400000555177430/10/20211746     3300009237421964250000B1AB1200003939350000000000000                 ENOXAPARINA SODICA 80MG/0.8ML(100MG/ML) SOL INY INST CAJ X 2JERPREL X 0.8ML TECHDOWJRP     1
CC0000019308734H202100000555177400000555177430/10/20211746     3300009237421964250000N02B0300001277700000000000000                                                                           CARDIOASPIRINA TAB 100 MGTAB     1
CC0000019308734H202100000555177400000555177430/10/20212301    31500347237421964250000E1AB0500003888400000000000000                                                              SOLUCION SALINA 0.9% SLN INY X 1000 MLBOL     1
CC0000019308734H202100000555177400000555177430/10/20211746     3300009237421964250000C3CA0100001278130000000000000                                                                                     LASIX TAB 40 MGTAB     1
CC0000019308734H202100000555177400000555177430/10/20211746     3300009237421964250000C07A0100001277830000000000000                                                                           DILATREND TAB 12.5 MG /R/TAB     1
CC0000019308734H202100000555177400000555177430/10/20211746     3300009237421964250000C09B0100001316960000000000000                                                                       DIOVAN HCT TAB 80/12.5 MG /R/COM     1
CC0000019308734H202100000555177400000555177430/10/20211746     3300009237421964250000C10AA400001301110000000000000                                                                                   LIPITOR TAB 40 MGTAB     1
CC0000019308734H202100000555177400000555177430/10/20211746     3300009237421964250000J01DB300000553200000000000000                                                                         CEFALOTINA SLN INY 1 G VIALVAL     3
