CC0000027001478H202100015012571500015012571530/10/20211057    3150023523742196425000001956000001620610000000000000                                                                      CONECTOR MICRO CLAVE LAT-MC100SOB     1
CC0000027001478H202100015012571500015012571530/10/20211057    31500235237421964250000Q1AA7300000610640000000000000                                                            CATETER PERIFE INTROCAN # 22G 4251628-04SIN     1
CC0000027001478H202100015012571500015012571530/10/20211057    3150023523742196425000016830000000970620000000000000                                                             SIST FIJACION CAT PERIFERICO 6.5X7 1683SOB     1
TI0001044216267H202100015012571500015012571530/10/20211057    31500235237421964250000E1AD0300000199490000000000000                                         LACTATO RINGER USP (HARTMANN)  SOL INY  BOL X 1000ML BAXTERBIN     1
