RC0001043198450H202100015132504400015132504430/10/20211304    3190194023742196425000024675000001585130000000000000                                                                    JERINGA DESECHABLE 50 ml S/AGUJASOB     3
NV0000169332059H202100015132504400015132504430/10/20211304    3190194023742196425000024675000001585130000000000000                                                                    JERINGA DESECHABLE 50 ml S/AGUJASOB     3
RC0001048091909H202100015132504400015132504430/10/20211304    3190194023742196425000024675000001585130000000000000                                                                    JERINGA DESECHABLE 50 ml S/AGUJASOB     3
RC0001048091952H202100015132504400015132504430/10/20211304    3190194023742196425000024675000001585130000000000000                                                                    JERINGA DESECHABLE 50 ml S/AGUJASOB     3
RC0001043198450H202100015132504400015132504430/10/20211304    3190194023742196425000024674500000322810000000000000                                                                   JERINGA DESECHABLE 20 ml 21*1 1/2SIN     3
NV0000169332059H202100015132504400015132504430/10/20211304    3190194023742196425000024674500000322810000000000000                                                                   JERINGA DESECHABLE 20 ml 21*1 1/2SIN     3
RC0001048091909H202100015132504400015132504430/10/20211304    3190194023742196425000024674500000322810000000000000                                                                   JERINGA DESECHABLE 20 ml 21*1 1/2SIN     3
RC0001048091952H202100015132504400015132504430/10/20211304    3190194023742196425000024674500000322810000000000000                                                                   JERINGA DESECHABLE 20 ml 21*1 1/2SIN     3
RC0001043198450H202100015132504400015132504430/10/20211304    3190194023742196425000024674000000220660000000000000                             JERINGA A 3 PARTES CON AGUJA  SOB X 1 RYMCO  10ML BN EXENTO-DC.417/2020SIN     3
NV0000169332059H202100015132504400015132504430/10/20211304    3190194023742196425000024674000000220660000000000000                             JERINGA A 3 PARTES CON AGUJA  SOB X 1 RYMCO  10ML BN EXENTO-DC.417/2020SIN     3
RC0001048091909H202100015132504400015132504430/10/20211304    3190194023742196425000024674000000220660000000000000                             JERINGA A 3 PARTES CON AGUJA  SOB X 1 RYMCO  10ML BN EXENTO-DC.417/2020SIN     3
RC0001048091952H202100015132504400015132504430/10/20211304    3190194023742196425000024674000000220660000000000000                             JERINGA A 3 PARTES CON AGUJA  SOB X 1 RYMCO  10ML BN EXENTO-DC.417/2020SIN     3
RC0001043198450H202100015132504400015132504430/10/20211304    3190194023742196425000011085400001083360000000000000                                                                       GUANTE QUIRURGICO TALLA 8 1/2SOB     4
NV0000169332059H202100015132504400015132504430/10/20211304    3190194023742196425000011085400001083360000000000000                                                                       GUANTE QUIRURGICO TALLA 8 1/2SOB     4
RC0001048091909H202100015132504400015132504430/10/20211304    3190194023742196425000011085400001083360000000000000                                                                       GUANTE QUIRURGICO TALLA 8 1/2SOB     4
RC0001048091952H202100015132504400015132504430/10/20211304    3190194023742196425000011085400001083360000000000000                                                                       GUANTE QUIRURGICO TALLA 8 1/2SOB     4
RC0001043198450H202100015132504400015132504430/10/20211304    3190194023742196425000013077800000471960000000000000                                                             GASA NO TEJIDA EST 7.5 X 7.5 SOB X 3 UNSOB     4
NV0000169332059H202100015132504400015132504430/10/20211304    3190194023742196425000013077800000471960000000000000                                                             GASA NO TEJIDA EST 7.5 X 7.5 SOB X 3 UNSOB     4
RC0001048091909H202100015132504400015132504430/10/20211304    3190194023742196425000013077800000471960000000000000                                                             GASA NO TEJIDA EST 7.5 X 7.5 SOB X 3 UNSOB     4
RC0001048091952H202100015132504400015132504430/10/20211304    3190194023742196425000013077800000471960000000000000                                                             GASA NO TEJIDA EST 7.5 X 7.5 SOB X 3 UNSOB     4
RC0001043198450H202100015132504400015132504430/10/20211304    3190194023742196425000011082900001233450000000000000                                                               EQUIPO LC 5000 PRIMARIO FOTOPRO 0L218SOB     3
NV0000169332059H202100015132504400015132504430/10/20211304    3190194023742196425000011082900001233450000000000000                                                               EQUIPO LC 5000 PRIMARIO FOTOPRO 0L218SOB     3
RC0001048091909H202100015132504400015132504430/10/20211304    3190194023742196425000011082900001233450000000000000                                                               EQUIPO LC 5000 PRIMARIO FOTOPRO 0L218SOB     3
RC0001048091952H202100015132504400015132504430/10/20211304    3190194023742196425000011082900001233450000000000000                                                               EQUIPO LC 5000 PRIMARIO FOTOPRO 0L218SOB     3
RC0001043198450H202100015132504400015132504430/10/20211304    31901940237421964250000Q1AA7600000543420000000000000                                                             BOLSA VACIA EVA R HRB8102P BAXTER 150MLBIN     3
NV0000169332059H202100015132504400015132504430/10/20211304    31901940237421964250000Q1AA7600000543420000000000000                                                             BOLSA VACIA EVA R HRB8102P BAXTER 150MLBIN     3
RC0001048091909H202100015132504400015132504430/10/20211304    31901940237421964250000Q1AA7600000543420000000000000                                                             BOLSA VACIA EVA R HRB8102P BAXTER 150MLBIN     2
RC0001048091952H202100015132504400015132504430/10/20211304    31901940237421964250000Q1AA7600000543420000000000000                                                             BOLSA VACIA EVA R HRB8102P BAXTER 150MLBIN     2
RC0001048091909H202100015132504400015132504430/10/20211304    31901940237421964250000Q1BB0100000236920000000000000                                                             BOLSA EVA NPT PINNACLE X 500 ML 2112347BOL     1
RC0001048091952H202100015132504400015132504430/10/20211304    31901940237421964250000Q1BB0100000236920000000000000                                                             BOLSA EVA NPT PINNACLE X 500 ML 2112347BOL     1
RC0001043198450H202100015132504400015132504430/10/20211304    3190194023742196425000000100600000223090000000000000                                                                      AGUJA DESECHABLE 18G X 1 1/2 PSIN     4
NV0000169332059H202100015132504400015132504430/10/20211304    3190194023742196425000000100600000223090000000000000                                                                      AGUJA DESECHABLE 18G X 1 1/2 PSIN     4
RC0001048091909H202100015132504400015132504430/10/20211304    3190194023742196425000000100600000223090000000000000                                                                      AGUJA DESECHABLE 18G X 1 1/2 PSIN     4
RC0001048091952H202100015132504400015132504430/10/20211304    3190194023742196425000000100600000223090000000000000                                                                      AGUJA DESECHABLE 18G X 1 1/2 PSIN     4
