RC0001046723141A202100000027656300000027656330/10/20210811    3190333624042196419000042743200003929860000000000000                   GASA ADHESIVA STRETCH REF 02038-00 ROL X 10MT FIXOMULL 15CM BN EXENTO-DC.417/2020CMT    25
RC0001046723141A202100000027656300000027656330/10/20210811    3190333624042196419000017803600000228850000000000000                                                                            PASTA STOMAHESIVE 56.7 gCAJ     1
RC0001046723141A202100000027656300000027656330/10/20210811    3190333624042196419000040512700000228750000000000000                                                            BARRERA COLOSTOMIA CONVATEC 32 MM 125016PZA     1
RC0001046723141A202100000027656300000027656330/10/20210811    3190333624042196419000040516900000228620000000000000                                                                     BOLSA COLOSTOMIA CONVATEC 32 MMPZA     1
RC0001046723141A202100000027656300000027656330/10/20210811    3190333624042196419000000503900000296270000000000000                                                                  SUTURA POLYSORB 3-0 75CM V20 GL122SIN     1
RC0001046723141A202100000027656300000027656330/10/20210811    3190333624042196419000019488400000599300000000000000                                                                               VICRYL 2-0 SH VCP317HSIN     1
RC0001046723141A202100000027656300000027656330/10/20210811    3190333624042196419000047373400000228840000000000000                                                                             PINZA COLOSTOMIA 175635PZA     1
RC0001046723141A202100000027656300000027656330/10/20210811    3190333624042196419000020750600000296780000000000000                                                                PLACA ELECTRO RETORNO PACIENTE E7506SIN     1
RC0001046723141A202100000027656300000027656330/10/20210811    31903336240421964190000E1AB0500003888400000000000000                                                              SOLUCION SALINA 0.9% SLN INY X 1000 MLBOL     2
RC0001046723141A202100000027656300000027656330/10/20210811    31903336240421964190000N01A0400003939010000000000000                                               MAYOPROFOL 200MG/20ML(1%) EMUL INY CAJ X 1VIAL X 20MLVAL     1
RC0001046723141A202100000027656300000027656330/10/20210811    3190333624042196419000022425200000548240000000000000                       EXTENSION DE ANESTESIA REF 1139 SOB X 1 SHERLEG  ADULTO BN EXENTO-DC.417/2020SIN     1
RC0001046723141A202100000027656300000027656330/10/20210811    3190333624042196419000022425100001392880000000000000             EQUIPO MICROGOTEO SIN AGUJA REF 201000 PAQ X 100 SOB GOTHAPLAST   BN EXENTO-DC.417/2020BOL     1
RC0001046723141A202100000027656300000027656330/10/20210811    3190333624042196419000030161400001459220000000000000                                                                       MANGUERA SUCCION 6 MM*3.1 MTSSOB     1
RC0001046723141A202100000027656300000027656330/10/20210811    3190333624042196419000011073300001096420000000000000                                                                BOLSA DE SUCCION DE FLUIDOS x 2500mLBOL     1
RC0001046723141A202100000027656300000027656330/10/20210811    3190333624042196419000053074400000607910000000000000                                                               GASA ESTERIL 10*10 SOBRE X 3 UNIDADESSOB     3
RC0001046723141A202100000027656300000027656330/10/20210811    3190333624042196419000011085300001082140000000000000                                                                           GUANTE QUIRURGICO TALLA 8SOB     1
RC0001046723141A202100000027656300000027656330/10/20210811    3190333624042196419000011085100001082120000000000000                                                                           GUANTE QUIRURGICO TALLA 7SOB     3
RC0001046723141A202100000027656300000027656330/10/20210811    3190333624042196419000043485100001618510000000000000                GUANTE QUIRURGICO DE LATEX REF 2D72N65X CAJ X 50 PROTEXIS  6.5 BN EXENTO-DC.417/2020SOB     1
RC0001046723141A202100000027656300000027656330/10/20210811    3190333624042196419000035612500000331850000000000000                                                                          MASCARA OXIGENO PEDIATRICOBIN     1
RC0001046723141A202100000027656300000027656330/10/20210811    3190333624042196419000035356500003919000000000000000                                                                                        LLAVE 3 VIASSOB     2
RC0001046723141A202100000027656300000027656330/10/20210811    3190333624042196419000011099300000777780000000000000                                                                     FILTRO BACTERIANO VIRICO ADULTOBOL     1
RC0001046723141A202100000027656300000027656330/10/20210811    3190333624042196419000031011300000762710000000000000                                                                            CANULA GUEDEL #2 (80 MM)SOB     1
RC0001046723141A202100000027656300000027656330/10/20210811    3190333624042196419000024674000000220660000000000000                             JERINGA A 3 PARTES CON AGUJA  SOB X 1 RYMCO  10ML BN EXENTO-DC.417/2020SIN     3
RC0001046723141A202100000027656300000027656330/10/20210811    31903336240421964190000E1AB0700003888350000000000000                                                            SOLUCION SALINA 0.9% SLN INY BO X 250 MLBOL     2
RC0001046723141A202100000027656300000027656330/10/20210811    31903336240421964190000N01B0200003888110000000000000                                           ROXICAINA SE 100MG/10ML(1%) SOL INY CAJ X 24AMPACK X 10MLAPC     1
RC0001046723141A202100000027656300000027656330/10/20210811    31903336240421964190000N1BA2400001195280000000000000                                                                    LIDOCAINA 2% S/E Sln Iny x 10 mlAMP     2
RC0001046723141A202100000027656300000027656330/10/20210811    31903336240421964190000N02BB100000777810000000000000                                                               DIPIRONA MAGNESICA SLN INY 2.5 G/5 MLAMP     1
RC0001046723141A202100000027656300000027656330/10/20210811    31903336240421964190000N2AA0100000301640000000000000                                                                            MORFINA Sln Iny 10 mg/mlAMP     1
