TI0001146537318H202100015122511800015122511830/10/20210900    3190330723742196425000024675000001585130000000000000                                                                    JERINGA DESECHABLE 50 ml S/AGUJASOB     1
RC0001187466818H202100015122511800015122511830/10/20210900    3190330723742196425000024675000001585130000000000000                                                                    JERINGA DESECHABLE 50 ml S/AGUJASOB     1
RC0001046736821H202100015122511800015122511830/10/20210900    3190330723742196425000024675000001585130000000000000                                                                    JERINGA DESECHABLE 50 ml S/AGUJASOB     1
RC0001140714746H202100015122511800015122511830/10/20210900    3190330723742196425000024675000001585130000000000000                                                                    JERINGA DESECHABLE 50 ml S/AGUJASOB     1
RC0001103757159H202100015122511800015122511830/10/20210900    3190330723742196425000024675000001585130000000000000                                                                    JERINGA DESECHABLE 50 ml S/AGUJASOB     1
TI0001146537318H202100015122511800015122511830/10/20210900    3190330723742196425000024673000001411210000000000000                                                                  JERINGA DESECHABLE 3 ML 21 X 1 1/2SOB     5
RC0001187466818H202100015122511800015122511830/10/20210900    3190330723742196425000024673000001411210000000000000                                                                  JERINGA DESECHABLE 3 ML 21 X 1 1/2SOB     5
RC0001046736821H202100015122511800015122511830/10/20210900    3190330723742196425000024673000001411210000000000000                                                                  JERINGA DESECHABLE 3 ML 21 X 1 1/2SOB     5
RC0001140714746H202100015122511800015122511830/10/20210900    3190330723742196425000024673000001411210000000000000                                                                  JERINGA DESECHABLE 3 ML 21 X 1 1/2SOB     5
RC0001103757159H202100015122511800015122511830/10/20210900    3190330723742196425000024673000001411210000000000000                                                                  JERINGA DESECHABLE 3 ML 21 X 1 1/2SOB     5
TI0001130268767H202100015122511800015122511830/10/20210900    3190330723742196425000024673000001411210000000000000                                                                  JERINGA DESECHABLE 3 ML 21 X 1 1/2SOB     5
RC0001043714288H202100015122511800015122511830/10/20210900    3190330723742196425000024673000001411210000000000000                                                                  JERINGA DESECHABLE 3 ML 21 X 1 1/2SOB     5
TI0001072108867H202100015122511800015122511830/10/20210900    3190330723742196425000024673000001411210000000000000                                                                  JERINGA DESECHABLE 3 ML 21 X 1 1/2SOB     5
TI0001146537318H202100015122511800015122511830/10/20210900    3190330723742196425000024674500000322810000000000000                                                                   JERINGA DESECHABLE 20 ml 21*1 1/2SIN     5
RC0001187466818H202100015122511800015122511830/10/20210900    3190330723742196425000024674500000322810000000000000                                                                   JERINGA DESECHABLE 20 ml 21*1 1/2SIN     5
RC0001046736821H202100015122511800015122511830/10/20210900    3190330723742196425000024674500000322810000000000000                                                                   JERINGA DESECHABLE 20 ml 21*1 1/2SIN     5
RC0001140714746H202100015122511800015122511830/10/20210900    3190330723742196425000024674500000322810000000000000                                                                   JERINGA DESECHABLE 20 ml 21*1 1/2SIN     5
RC0001103757159H202100015122511800015122511830/10/20210900    3190330723742196425000024674500000322810000000000000                                                                   JERINGA DESECHABLE 20 ml 21*1 1/2SIN     5
TI0001130268767H202100015122511800015122511830/10/20210900    3190330723742196425000024674500000322810000000000000                                                                   JERINGA DESECHABLE 20 ml 21*1 1/2SIN     5
RC0001043714288H202100015122511800015122511830/10/20210900    3190330723742196425000024674500000322810000000000000                                                                   JERINGA DESECHABLE 20 ml 21*1 1/2SIN     5
TI0001072108867H202100015122511800015122511830/10/20210900    3190330723742196425000024674500000322810000000000000                                                                   JERINGA DESECHABLE 20 ml 21*1 1/2SIN     5
TI0001146537318H202100015122511800015122511830/10/20210900    3190330723742196425000013077800000471960000000000000                                                             GASA NO TEJIDA EST 7.5 X 7.5 SOB X 3 UNSOB     2
RC0001187466818H202100015122511800015122511830/10/20210900    3190330723742196425000013077800000471960000000000000                                                             GASA NO TEJIDA EST 7.5 X 7.5 SOB X 3 UNSOB     2
RC0001046736821H202100015122511800015122511830/10/20210900    3190330723742196425000013077800000471960000000000000                                                             GASA NO TEJIDA EST 7.5 X 7.5 SOB X 3 UNSOB     2
RC0001140714746H202100015122511800015122511830/10/20210900    3190330723742196425000013077800000471960000000000000                                                             GASA NO TEJIDA EST 7.5 X 7.5 SOB X 3 UNSOB     2
RC0001103757159H202100015122511800015122511830/10/20210900    3190330723742196425000013077800000471960000000000000                                                             GASA NO TEJIDA EST 7.5 X 7.5 SOB X 3 UNSOB     2
TI0001130268767H202100015122511800015122511830/10/20210900    3190330723742196425000013077800000471960000000000000                                                             GASA NO TEJIDA EST 7.5 X 7.5 SOB X 3 UNSOB     2
RC0001043714288H202100015122511800015122511830/10/20210900    3190330723742196425000013077800000471960000000000000                                                             GASA NO TEJIDA EST 7.5 X 7.5 SOB X 3 UNSOB     2
TI0001072108867H202100015122511800015122511830/10/20210900    3190330723742196425000013077800000471960000000000000                                                             GASA NO TEJIDA EST 7.5 X 7.5 SOB X 3 UNSOB     2
TI0001146537318H202100015122511800015122511830/10/20210900    3190330723742196425000011082700001620070000000000000                                                               EQUIPO SET PRIMARIO C/CLAVE REF 14001BOL     1
RC0001187466818H202100015122511800015122511830/10/20210900    3190330723742196425000011082700001620070000000000000                                                               EQUIPO SET PRIMARIO C/CLAVE REF 14001BOL     3
TI0001146537318H202100015122511800015122511830/10/20210900    3190330723742196425000030936900001431840000000000000                                                                                              BURETABOL     1
RC0001187466818H202100015122511800015122511830/10/20210900    3190330723742196425000030936900001431840000000000000                                                                                              BURETABOL     1
TI0001072108867H202100015122511800015122511830/10/20210900    3190330723742196425000030936900001431840000000000000                                                                                              BURETABOL     1
TI0001146537318H202100015122511800015122511830/10/20210900    3190330723742196425000000602600001259280000000000000                                                             APOSITO TEGADERM IV PD 1610 5CM X 5.7CMSOB     1
RC0001187466818H202100015122511800015122511830/10/20210900    3190330723742196425000000602600001259280000000000000                                                             APOSITO TEGADERM IV PD 1610 5CM X 5.7CMSOB     1
RC0001043714288H202100015122511800015122511830/10/20210900    3190330723742196425000000602600001259280000000000000                                                             APOSITO TEGADERM IV PD 1610 5CM X 5.7CMSOB     1
TI0001146537318H202100015122511800015122511830/10/20210900    3190330723742196425000000101000001101640000000000000                                                                  AGUJA DESECHABLE  23G X 1 1/2 PULGSOB     3
RC0001187466818H202100015122511800015122511830/10/20210900    3190330723742196425000000101000001101640000000000000                                                                  AGUJA DESECHABLE  23G X 1 1/2 PULGSOB     3
RC0001046736821H202100015122511800015122511830/10/20210900    3190330723742196425000000101000001101640000000000000                                                                  AGUJA DESECHABLE  23G X 1 1/2 PULGSOB     3
RC0001140714746H202100015122511800015122511830/10/20210900    3190330723742196425000000101000001101640000000000000                                                                  AGUJA DESECHABLE  23G X 1 1/2 PULGSOB     3
RC0001103757159H202100015122511800015122511830/10/20210900    3190330723742196425000000101000001101640000000000000                                                                  AGUJA DESECHABLE  23G X 1 1/2 PULGSOB     3
TI0001130268767H202100015122511800015122511830/10/20210900    3190330723742196425000000101000001101640000000000000                                                                  AGUJA DESECHABLE  23G X 1 1/2 PULGSOB     3
RC0001043714288H202100015122511800015122511830/10/20210900    3190330723742196425000000101000001101640000000000000                                                                  AGUJA DESECHABLE  23G X 1 1/2 PULGSOB     3
TI0001072108867H202100015122511800015122511830/10/20210900    3190330723742196425000000101000001101640000000000000                                                                  AGUJA DESECHABLE  23G X 1 1/2 PULGSOB     3
TI0001146537318H202100015122511800015122511830/10/20210900    31903307237421964250000E1BA0100000198890000000000000                                                                   AGUA ESTERIL USP SLN INY X 500 MLBIN     1
RC0001187466818H202100015122511800015122511830/10/20210900    31903307237421964250000E1BA0100000198890000000000000                                                                   AGUA ESTERIL USP SLN INY X 500 MLBIN     1
RC0001046736821H202100015122511800015122511830/10/20210900    31903307237421964250000E1BA0100000198890000000000000                                                                   AGUA ESTERIL USP SLN INY X 500 MLBIN     1
RC0001103757159H202100015122511800015122511830/10/20210900    31903307237421964250000E1AD0300000199490000000000000                                         LACTATO RINGER USP (HARTMANN)  SOL INY  BOL X 1000ML BAXTERBIN     1
RC0001043714288H202100015122511800015122511830/10/20210900    31903307237421964250000E1AB0700003888350000000000000                                                            SOLUCION SALINA 0.9% SLN INY BO X 250 MLBOL     2
TI0001146537318H202100015122511800015122511830/10/20210900    31903307237421964250000E1AB1100003888280000000000000                                                                        SOLUCION SALINA 0.9% X 50 mlBOL     2
RC0001187466818H202100015122511800015122511830/10/20210900    31903307237421964250000E1AB1100003888280000000000000                                                                        SOLUCION SALINA 0.9% X 50 mlBOL     2
RC0001046736821H202100015122511800015122511830/10/20210900    31903307237421964250000E1AB1100003888280000000000000                                                                        SOLUCION SALINA 0.9% X 50 mlBOL     2
RC0001140714746H202100015122511800015122511830/10/20210900    31903307237421964250000E1AB1100003888280000000000000                                                                        SOLUCION SALINA 0.9% X 50 mlBOL     2
RC0001103757159H202100015122511800015122511830/10/20210900    31903307237421964250000E1AB1100003888280000000000000                                                                        SOLUCION SALINA 0.9% X 50 mlBOL     2
TI0001130268767H202100015122511800015122511830/10/20210900    31903307237421964250000E1AB1100003888280000000000000                                                                        SOLUCION SALINA 0.9% X 50 mlBOL     2
RC0001043714288H202100015122511800015122511830/10/20210900    31903307237421964250000E1AB1100003888280000000000000                                                                        SOLUCION SALINA 0.9% X 50 mlBOL     2
TI0001072108867H202100015122511800015122511830/10/20210900    31903307237421964250000E1AB1100003888280000000000000                                                                        SOLUCION SALINA 0.9% X 50 mlBOL     2
RC0001140714746H202100015122511800015122511830/10/20210900    31903307237421964250000E1AC0100000199400000000000000                                                                          SUERO MIXTO Sln Iny 500 mlBIN     1
