CC0001045684571H202100914530103000914530103030/10/20210628    3190189623742196425000036441300000236540000000000000                                                                    JERINGA 1 ML GASES ARTERIAL 9023SIN     7
CC0001045684571H202100914530103000914530103030/10/20210647    3190270323742196425000021221000000226640000000000000                                                                                 CARTUCHO ACT 402-03PZA    10
CC0001045684571H202100914530103000914530103030/10/20211203    3190235723742196425000011081700001413910000000000000                                                                EQUIPO ADM NUTRICIONES 673662 BAXTERBOL     1
CC0001045684571H202100914530103000914530103030/10/20211203    3190235723742196425000011137100001419310000000000000                                                               TIRA GLUCOMETRIA FREESTYLE H OPTIUM .PZA     3
CC0001045684571H202100914530103000914530103030/10/20211203    3190235723742196425000024674000000220660000000000000                             JERINGA A 3 PARTES CON AGUJA  SOB X 1 RYMCO  10ML BN EXENTO-DC.417/2020SIN    20
CC0001045684571H202100914530103000914530103030/10/20211203    3190235723742196425000045136100001419300000000000000                                                                            LANCETA DEXTROMETER X UNPZA     3
CC0001045684571H202100914530103000914530103030/10/20211203    31902357237421964250000E1AB0700003888350000000000000                                                            SOLUCION SALINA 0.9% SLN INY BO X 250 MLBOL     1
CC0001045684571H202100914530103000914530103030/10/20211203    31902357237421964250000V07A1300000502600000000000000                                                                                AGUA ESTERIL x 10 mlAMP     5
CC0001045684571H202100914530103000914530103030/10/20211203    3190235723742196425000001956000001620610000000000000                                                                      CONECTOR MICRO CLAVE LAT-MC100SOB     2
CC0001045684571H202100914530103000914530103030/10/20211556    31902357237421964250000E1AA0600003888150000000000000                                                                 DEXTROSA 50% EN AGUA Sln Iny 500 mlBOL     1
CC0001045684571H202100914530103000914530103030/10/20211810    31500531237421964250000E1AB0200000199290000000000000                                                            SOLUCION SALINA 0.9% SLN INY BO X 100 MLBIN    12
