CC0000000862908U202100050131440500050131440530/10/20211903    3190101223942196432000011085100001082120000000000000                                                                           GUANTE QUIRURGICO TALLA 7SOB     1
CC0000000862908U202100050131440500050131440530/10/20211903    3190101223942196432000013077800000471960000000000000                                                             GASA NO TEJIDA EST 7.5 X 7.5 SOB X 3 UNSOB     4
CC0000000862908U202100050131440500050131440530/10/20211903    3190101223942196432000042743200003929860000000000000                   GASA ADHESIVA STRETCH REF 02038-00 ROL X 10MT FIXOMULL 15CM BN EXENTO-DC.417/2020CMT    20
CC0000000862908U202100050131440500050131440530/10/20211903    31901012239421964320000E1AB1100003888280000000000000                                                                        SOLUCION SALINA 0.9% X 50 mlBOL     1
