CC0001065132676H202100000555142000000555142030/10/20211018     3300009237421964250000A07A0400001270530000000000000                                                            HONGISTINA SUSP ORA 100000 UI/ML X 60 MLFCO     1
CC0001065132676H202100000555142000000555142030/10/20211414     3300009237421964250000A02AF100001566240000000000000                                                                    PEPSAMAR PLUS Susp Oral X 150 MLFCO     1
CC0001065132676H202100000555142000000555142030/10/20211253    31500082237421964250000E1AB0700003888350000000000000                                                            SOLUCION SALINA 0.9% SLN INY BO X 250 MLBOL     2
CC0001065132676H202100000555142000000555142030/10/20210152    31500213237421964250000E1AB0700003888350000000000000                                                            SOLUCION SALINA 0.9% SLN INY BO X 250 MLBOL     1
CC0001065132676H202100000555142000000555142030/10/20211253    31500082237421964250000E1AB0500003888400000000000000                                                              SOLUCION SALINA 0.9% SLN INY X 1000 MLBOL     1
CC0001065132676H202100000555142000000555142030/10/20211018     3300009237421964250000A12CA200001239800000000000000                     BICARBONATO SODIO 10MEQ/10ML(1MEQ/ML) SOL INY  CAJ X 100AMPX10ML FRESENIUS KABIAMP     3
CC0001065132676H202100000555142000000555142030/10/20211018     3300009237421964250000A12BA100000552980000000000000                                                            CLORURO POTASIO Sln Iny AMP 20 MEQ/10 MLAMP     6
CC0001065132676H202100000555142000000555142030/10/20211018     3300009237421964250000J01XA400001212420000000000000                                                               VANCOMICINA POLVO LIOF SLN INY 500 MGVAL     4
CC0001065132676H202100000555142000000555142030/10/20211409     3300009237421964250000J02A0200000191070000000000000                                                            CANCIDAS POLVO LIOF SLN INY AMP 50MG /R/VAL     1
CC0001065132676H202100000555142000000555142030/10/20211410     3300009237421964250000J02A0300000191080000000000000                                                              CANCIDAS POLVO LIOF SLN INY 70 MG  /R/VAL     1
CC0001065132676H202100000555142000000555142030/10/20211019     3300009237421964250000A2BC0700001335700000000000000                                                                                 OMEPRAZOL CAP 40 MGCAP     1
CC0001065132676H202100000555142000000555142030/10/20211018     3300009237421964250000A2BC0700001335700000000000000                                                                                 OMEPRAZOL CAP 40 MGCAP     1
CC0001065132676H202100000555142000000555142030/10/20211018     3300009237421964250000L03AA100001067620000000000000                                                             ZARZIO SLN INY 30.000.000 UI/0.5 ML /R/JRP     2
CC0001065132676H202100000555142000000555142030/10/20211018     3300009237421964250000J01D1200001239960000000000000                                                                              CEFEPIME POLVO INY 1 GVAL     2
CC0001065132676H202100000555142000000555142030/10/20210124     3300009237421964250000J01D1200001239960000000000000                                                                              CEFEPIME POLVO INY 1 GVAL     8
CC0001065132676H202100000555142000000555142030/10/20211411     3300009237421964250000J01DH400001317770000000000000                                                                MEROPENEM POLVO LIOF SLN INY 1 G /R/CAJ     2
CC0001065132676H202100000555142000000555142030/10/20211410     3300009237421964250000J01DH400001317770000000000000                                                                MEROPENEM POLVO LIOF SLN INY 1 G /R/CAJ     6
CC0001065132676H202100000555142000000555142030/10/20211018     3300009237421964250000N2AX0900001672040000000000000                                                                              TRAMADOL SLN INY 50 MGAMP     3
CC0001065132676H202100000555142000000555142030/10/20211253    31500082237421964250000V07A1300000502600000000000000                                                                                AGUA ESTERIL x 10 mlAMP     5
CC0001065132676H202100000555142000000555142030/10/20210037    31500213237421964250000V07A1300000502600000000000000                                                                                AGUA ESTERIL x 10 mlAMP     3
