CC0000008604995H202100000555161600000555161630/10/20211749     3300009237421964250000A6AC0200001467010000000000000                                                             LACTULAX JARABE 66.7G/100ML SOX15ML /R/SOB     1
CC0000008604995H202100000555161600000555161630/10/20211748     3300009237421964250000A6AC0200001467010000000000000                                                             LACTULAX JARABE 66.7G/100ML SOX15ML /R/SOB     1
CC0000008604995H202100000555161600000555161630/10/20212300    31500347237421964250000E1AB0500003888400000000000000                                                              SOLUCION SALINA 0.9% SLN INY X 1000 MLBOL     1
CC0000008604995H202100000555161600000555161630/10/20212154     3300009237421964250000N03AX700001335170000000000000                                                                                LYRICA CAP 50 MG /R/CAP     3
CC0000008604995H202100000555161600000555161630/10/20212155     3300009237421964250000N03A2200001335150000000000000                                                                                LYRICA Cap 25 mg /R/CAP     1
CC0000008604995H202100000555161600000555161630/10/20212154     3300009237421964250000N03A2200001335150000000000000                                                                                LYRICA Cap 25 mg /R/CAP     2
CC0000008604995H202100000555161600000555161630/10/20212155     3300009237421964250000J3CA0300000471830000000000000                                                                METRONIDAZOL SLN INY 500 MG / 100 MLBIN     4
CC0000008604995H202100000555161600000555161630/10/20212155     3300009237421964250000N2BE2200001252930000000000000                                                                             ACETAMINOFEN Tab 500 MGTAB     5
CC0000008604995H202100000555161600000555161630/10/20212155     3300009237421964250000N2BB0100000787510000000000000                                                                    DIPIRONA SODICA Sln Iny 1 g/2 mlAMP     5
CC0000008604995H202100000555161600000555161630/10/20212243     3300009237421964250000N03AX800001334920000000000000                                                                               LEGABIN CAP 75 MG /R/CAP     2
