CC0000070353436H202100000555143400000555143430/10/20211416     3300009237421964250000N2BB0200000513030000000000000                                                                           LISALGIL Sln Iny 2 g/5 mlAMP     2
CC0000070353436H202100000555143400000555143430/10/20210514     3300009237421964250000N2BB0200000513030000000000000                                                                           LISALGIL Sln Iny 2 g/5 mlAMP     1
CC0000070353436H202100000555143400000555143430/10/20210108     3300009237421964250000N2BB0200000513030000000000000                                                                           LISALGIL Sln Iny 2 g/5 mlAMP     1
CC0000070353436H202100000555143400000555143430/10/20211416     3300009237421964250000A03BB100003889180000000000000                                      HIOSCINA BUTIL BROMURO 20MG/ML SOL INY CAJ X 100AMP X 1ML RYANAMP     1
CC0000070353436H202100000555143400000555143430/10/20210108     3300009237421964250000A03BB100003889180000000000000                                      HIOSCINA BUTIL BROMURO 20MG/ML SOL INY CAJ X 100AMP X 1ML RYANAMP     2
CC0000070353436H202100000555143400000555143430/10/20211416     3300009237421964250000J01CR300001659480000000000000                                                                  DELBACTAM POLVO LIOF SLN INY 4.5 GVAL     1
CC0000070353436H202100000555143400000555143430/10/20210514     3300009237421964250000J01CR300001659480000000000000                                                                  DELBACTAM POLVO LIOF SLN INY 4.5 GVAL     1
CC0000070353436H202100000555143400000555143430/10/20210108     3300009237421964250000J01CR300001659480000000000000                                                                  DELBACTAM POLVO LIOF SLN INY 4.5 GVAL     1
CC0000070353436H202100000555143400000555143430/10/20212157     3300009237421964250000J3CA0300000471830000000000000                                                                METRONIDAZOL SLN INY 500 MG / 100 MLBIN     1
CC0000070353436H202100000555143400000555143430/10/20210108     3300009237421964250000J3CA0300000471830000000000000                                                                METRONIDAZOL SLN INY 500 MG / 100 MLBIN     1
CC0000070353436H202100000555143400000555143430/10/20210514     3300009237421964250000A02BC700001684270000000000000                                                            OMEPRAZOL 40MG POLVO LIOFILIZADO AMPOLLAVAL     1
