CC0000017138066H202100015112655000015112655030/10/20210636    3190182723742196425000022426800001140510000000000000                                                                    EQUIPO MACROGOTEO BAXTER MRC0001SOB     1
CC0000093407512H202100015112655000015112655030/10/20210636    3190182723742196425000011081700001413910000000000000                                                                EQUIPO ADM NUTRICIONES 673662 BAXTERBOL     1
CC0001042970504H202100015112655000015112655030/10/20210636    3190182723742196425000030936900001431840000000000000                                                                                              BURETABOL     1
