CC0001129498209H202100015052706700015052706730/10/20211230    3190244523742196425000001956000001620610000000000000                                                                      CONECTOR MICRO CLAVE LAT-MC100SOB     1
CC0000008697210H202100015052706700015052706730/10/20211230    3190244523742196425000001956000001620610000000000000                                                                      CONECTOR MICRO CLAVE LAT-MC100SOB     1
CC0001129498209H202100015052706700015052706730/10/20211230    31902445237421964250000Q1AA7200000610630000000000000                                                            CATETER PERIFE INTROCAN # 20G 4251644-04SIN     1
CC0000008697210H202100015052706700015052706730/10/20211230    31902445237421964250000Q1AA7200000610630000000000000                                                            CATETER PERIFE INTROCAN # 20G 4251644-04SIN     2
CC0001129498209H202100015052706700015052706730/10/20211230    3190244523742196425000016830000000970620000000000000                                                             SIST FIJACION CAT PERIFERICO 6.5X7 1683SOB     1
CC0000008697210H202100015052706700015052706730/10/20211230    3190244523742196425000016830000000970620000000000000                                                             SIST FIJACION CAT PERIFERICO 6.5X7 1683SOB     1
