CC0000022467890H202100015112655200015112655230/10/20210810    31500387237421964250000V07A1300000502600000000000000                                                                                AGUA ESTERIL x 10 mlAMP    10
CC0000008761530H202100015112655200015112655230/10/20210810    31500387237421964250000V07A1300000502600000000000000                                                                                AGUA ESTERIL x 10 mlAMP    10
CC0000007467947H202100015112655200015112655230/10/20210810    31500387237421964250000V07A1300000502600000000000000                                                                                AGUA ESTERIL x 10 mlAMP    10
CC0000022467890H202100015112655200015112655230/10/20210810    3150038723742196425000045136100001419300000000000000                                                                            LANCETA DEXTROMETER X UNPZA     4
CC0000008761530H202100015112655200015112655230/10/20210810    3150038723742196425000045136100001419300000000000000                                                                            LANCETA DEXTROMETER X UNPZA     4
CC0000007467947H202100015112655200015112655230/10/20210810    3150038723742196425000045136100001419300000000000000                                                                            LANCETA DEXTROMETER X UNPZA     4
CC0000022467890H202100015112655200015112655230/10/20210810    3150038723742196425000024674500000322810000000000000                                                                   JERINGA DESECHABLE 20 ml 21*1 1/2SIN     1
CC0000008761530H202100015112655200015112655230/10/20210810    3150038723742196425000024674500000322810000000000000                                                                   JERINGA DESECHABLE 20 ml 21*1 1/2SIN     1
CC0000007467947H202100015112655200015112655230/10/20210810    3150038723742196425000024674500000322810000000000000                                                                   JERINGA DESECHABLE 20 ml 21*1 1/2SIN     1
CC0000022467890H202100015112655200015112655230/10/20210810    3150038723742196425000024674000000220660000000000000                             JERINGA A 3 PARTES CON AGUJA  SOB X 1 RYMCO  10ML BN EXENTO-DC.417/2020SIN    10
CC0000008761530H202100015112655200015112655230/10/20210810    3150038723742196425000024674000000220660000000000000                             JERINGA A 3 PARTES CON AGUJA  SOB X 1 RYMCO  10ML BN EXENTO-DC.417/2020SIN    10
CC0000007467947H202100015112655200015112655230/10/20210810    3150038723742196425000024674000000220660000000000000                             JERINGA A 3 PARTES CON AGUJA  SOB X 1 RYMCO  10ML BN EXENTO-DC.417/2020SIN    10
CC0000022467890H202100015112655200015112655230/10/20210810    3150038723742196425000024672100001609890000000000000                                                            JERINGA INSULINA 1ML TAPA NARANJA JEI013SOB     4
CC0000008761530H202100015112655200015112655230/10/20210810    3150038723742196425000024672100001609890000000000000                                                            JERINGA INSULINA 1ML TAPA NARANJA JEI013SOB     4
CC0000007467947H202100015112655200015112655230/10/20210810    3150038723742196425000024672100001609890000000000000                                                            JERINGA INSULINA 1ML TAPA NARANJA JEI013SOB     4
CC0000022467890H202100015112655200015112655230/10/20210810    31500387237421964250000E1AB0200000199290000000000000                                                            SOLUCION SALINA 0.9% SLN INY BO X 100 MLBIN     4
CC0000008761530H202100015112655200015112655230/10/20210810    31500387237421964250000E1AB0200000199290000000000000                                                            SOLUCION SALINA 0.9% SLN INY BO X 100 MLBIN     4
CC0000007467947H202100015112655200015112655230/10/20210810    31500387237421964250000E1AB0200000199290000000000000                                                            SOLUCION SALINA 0.9% SLN INY BO X 100 MLBIN    10
CC0000022467890H202100015112655200015112655230/10/20210810    3150038723742196425000011137100001419310000000000000                                                               TIRA GLUCOMETRIA FREESTYLE H OPTIUM .PZA     4
CC0000008761530H202100015112655200015112655230/10/20210810    3150038723742196425000011137100001419310000000000000                                                               TIRA GLUCOMETRIA FREESTYLE H OPTIUM .PZA     4
CC0000007467947H202100015112655200015112655230/10/20210810    3150038723742196425000011137100001419310000000000000                                                               TIRA GLUCOMETRIA FREESTYLE H OPTIUM .PZA     4
