TI0001047229284H202100015052707300015052707330/10/20211939    3190093223742196425000011082700001620070000000000000                                                               EQUIPO SET PRIMARIO C/CLAVE REF 14001BOL     1
TI0001047229284H202100015052707300015052707330/10/20211939    3190093223742196425000030936900001431840000000000000                                                                                              BURETABOL     1
CE0000V28051252H202100015052707300015052707330/10/20211939    31900932237421964250000E1AB0300003888390000000000000                                                            SOLUCION SALINA 0.9% SLN INY BO X 500 MLBOL     1
TI0001047229284H202100015052707300015052707330/10/20211939    31900932237421964250000E1AB0300003888390000000000000                                                            SOLUCION SALINA 0.9% SLN INY BO X 500 MLBOL     1
TI0001042848386H202100015052707300015052707330/10/20211939    31900932237421964250000E1AC0100000199400000000000000                                                                          SUERO MIXTO Sln Iny 500 mlBIN     2
