CE0000000358913A202100000027650600000027650630/10/20210834    31903336240421964190000N2AX0400001204140000000000000                                                                             TRAMAL Sln Iny 50 mg/mlAMP     1
CE0000000358913A202100000027650600000027650630/10/20210834    31903336240421964190000M03AB100001371510000000000000                                                            ADECUAC SUCCINILCOLINA  100mg/mL SOL INYVAL     1
CE0000000358913A202100000027650600000027650630/10/20210834    3190333624042196419000039175100001072060000000000000                                                                           TUBO ENDOTRAQUEAL C/B 7.5SOB     1
CE0000000358913A202100000027650600000027650630/10/20210834    3190333624042196419000011099300000777780000000000000                                                                     FILTRO BACTERIANO VIRICO ADULTOBOL     1
CE0000000358913A202100000027650600000027650630/10/20210834    3190333624042196419000001200400000530690000000000000                                                                          CANULA DE MAYO # 5 (100MM)SIN     1
CE0000000358913A202100000027650600000027650630/10/20210834    3190333624042196419000011065300001196560000000000000                                                            STENT URETERAL UNIVERSAL REF USH-624 UNDPZA     1
CE0000000358913A202100000027650600000027650630/10/20210834    3190333624042196419000022424500000236720000000000000                                                                     EQUIPO EN Y IRRIGA ARC4005 4006SOB     1
CE0000000358913A202100000027650600000027650630/10/20210834    31903336240421964190000E1BA0700000198910000000000000                                                                   UROMATIC Sln IRRIGACION X 3000 MLBIN     1
CE0000000358913A202100000027650600000027650630/10/20210834    31903336240421964190000N1BA1900000554750000000000000                                                                     ROXICAINA JALEA 2% TUBO X 30 MLTUB     1
CE0000000358913A202100000027650600000027650630/10/20210834    3190333624042196419000022425200000548240000000000000                       EXTENSION DE ANESTESIA REF 1139 SOB X 1 SHERLEG  ADULTO BN EXENTO-DC.417/2020SIN     1
CE0000000358913A202100000027650600000027650630/10/20210834    3190333624042196419000035356500003919000000000000000                                                                                        LLAVE 3 VIASSOB     2
CE0000000358913A202100000027650600000027650630/10/20210834    3190333624042196419000022426800001140510000000000000                                                                    EQUIPO MACROGOTEO BAXTER MRC0001SOB     1
CE0000000358913A202100000027650600000027650630/10/20210834    3190333624042196419000016830000000970620000000000000                                                             SIST FIJACION CAT PERIFERICO 6.5X7 1683SOB     1
CE0000000358913A202100000027650600000027650630/10/20210834    31903336240421964190000J01DA300001239950000000000000                                                            CEFAZOLINA SODICA POLVO LIOF SLN INY 1 GVAL     2
CE0000000358913A202100000027650600000027650630/10/20210834    3190333624042196419000030161400001459220000000000000                                                                       MANGUERA SUCCION 6 MM*3.1 MTSSOB     1
CE0000000358913A202100000027650600000027650630/10/20210834    3190333624042196419000011082700001620070000000000000                                                               EQUIPO SET PRIMARIO C/CLAVE REF 14001BOL     1
CE0000000358913A202100000027650600000027650630/10/20210834    3190333624042196419000053074400000607910000000000000                                                               GASA ESTERIL 10*10 SOBRE X 3 UNIDADESSOB     3
CE0000000358913A202100000027650600000027650630/10/20210834    3190333624042196419000024673600000222980000000000000                                                                     JERINGA DESECHABLE 5 ml 27*11/2SIN     4
CE0000000358913A202100000027650600000027650630/10/20210834    3190333624042196419000024674000000220660000000000000                             JERINGA A 3 PARTES CON AGUJA  SOB X 1 RYMCO  10ML BN EXENTO-DC.417/2020SIN     2
CE0000000358913A202100000027650600000027650630/10/20210834    3190333624042196419000011085200001585390000000000000                                                                       GUANTE QUIRURGICO TALLA 7 1/2SOB     1
CE0000000358913A202100000027650600000027650630/10/20210834    3190333624042196419000011085100001082120000000000000                                                                           GUANTE QUIRURGICO TALLA 7SOB     2
CE0000000358913A202100000027650600000027650630/10/20210834    3190333624042196419000043485100001618510000000000000                GUANTE QUIRURGICO DE LATEX REF 2D72N65X CAJ X 50 PROTEXIS  6.5 BN EXENTO-DC.417/2020SOB     4
CE0000000358913A202100000027650600000027650630/10/20210834    3190333624042196419000051515500000598160000000000000                                                                            MASCARILLA ANESTESIA # 5SIN     1
CE0000000358913A202100000027650600000027650630/10/20210834    3190333624042196419000038568100000258050000000000000                                                                         CANULA OXIGENO NASAL ADULTOSIN     1
CE0000000358913A202100000027650600000027650630/10/20210834    31903336240421964190000E1AB0300003888390000000000000                                                            SOLUCION SALINA 0.9% SLN INY BO X 500 MLBOL     4
CE0000000358913A202100000027650600000027650630/10/20210834    31903336240421964190000E1AB0200000199290000000000000                                                            SOLUCION SALINA 0.9% SLN INY BO X 100 MLBIN     2
CE0000000358913A202100000027650600000027650630/10/20210834    31903336240421964190000A3BB0200000512940000000000000                                                                          BUSCAPINA SIMPLE Iny 20 mgAMP     1
CE0000000358913A202100000027650600000027650630/10/20210834    31903336240421964190000M01A0400001341250000000000000                                                                              DYNASTAT AMP 40 MG /R/VAL     1
CE0000000358913A202100000027650600000027650630/10/20210834    31903336240421964190000N02B1100001169680000000000000                              PARACETAMOL 1000MG/100ML(10MG/ML) SOL INY  VIAL X 100ML FRESENIUS KABIVAL     1
CE0000000358913A202100000027650600000027650630/10/20210834    31903336240421964190000N2BB1100000217160000000000000                                                                      NOVALGINA Sln Iny 2.5 g x 5 mlAMP     1
CE0000000358913A202100000027650600000027650630/10/20210834    31903336240421964190000H02AB500001664950000000000000                                                            DEXAMETASONA SLN INY 8 MG/2 ML AMP /CDS/AMP     1
CE0000000358913A202100000027650600000027650630/10/20210834    31903336240421964190000N01A0400003939010000000000000                                               MAYOPROFOL 200MG/20ML(1%) EMUL INY CAJ X 1VIAL X 20MLVAL     1
CE0000000358913A202100000027650600000027650630/10/20210834    31903336240421964190000N2AA0700001587170000000000000                                                                                 ULTIVA Sln Iny 2 mgVAL     1
CE0000000358913A202100000027650600000027650630/10/20210834    31903336240421964190000N1AH0200003906560000000000000                                                                     FENTANIL Iny 0.05 mg/ml x 10 mlAMP     1
CE0000000358913A202100000027650600000027650630/10/20210834    31903336240421964190000N5CD0300000218170000000000000                                                                          DORMICUM Sln Iny 5 mg/5 mlAMP     1
