TI0001042848386H202100000555156800000555156830/10/20210742     3300009237421964250000A03F0300001626860000000000000                                                                   METOCLOPRAMIDA SLN INY 10 MG/2 MLAMP     1
TI0001042848386H202100000555156800000555156830/10/20212358    31900932237421964250000E1AC0100000199400000000000000                                                                          SUERO MIXTO Sln Iny 500 mlBIN     2
TI0001042848386H202100000555156800000555156830/10/20211408    31500519237421964250000E1AC0100000199400000000000000                                                                          SUERO MIXTO Sln Iny 500 mlBIN     2
TI0001042848386H202100000555156800000555156830/10/20210740     3300009237421964250000A12BA100000552980000000000000                                                            CLORURO POTASIO Sln Iny AMP 20 MEQ/10 MLAMP     1
TI0001042848386H202100000555156800000555156830/10/20210739     3300009237421964250000A12BA100000552980000000000000                                                            CLORURO POTASIO Sln Iny AMP 20 MEQ/10 MLAMP     2
TI0001042848386H202100000555156800000555156830/10/20210739     3300009237421964250000A03BB100003889180000000000000                                      HIOSCINA BUTIL BROMURO 20MG/ML SOL INY CAJ X 100AMP X 1ML RYANAMP     1
TI0001042848386H202100000555156800000555156830/10/20210738     3300009237421964250000A03BB100003889180000000000000                                      HIOSCINA BUTIL BROMURO 20MG/ML SOL INY CAJ X 100AMP X 1ML RYANAMP     2
TI0001042848386H202100000555156800000555156830/10/20210739     3300009237421964250000J01G0500001109560000000000000                                                                       AMIKACINA SLN INY 500 MG/2 MLAMP     2
TI0001042848386H202100000555156800000555156830/10/20210740     3300009237421964250000N2BE2200001252930000000000000                                                                             ACETAMINOFEN Tab 500 MGTAB     6
TI0001042848386H202100000555156800000555156830/10/20210742     3300009237421964250000N2BB0100000787510000000000000                                                                    DIPIRONA SODICA Sln Iny 1 g/2 mlAMP     3
TI0001042848386H202100000555156800000555156830/10/20210742     3300009237421964250000A02BC700001684270000000000000                                                            OMEPRAZOL 40MG POLVO LIOFILIZADO AMPOLLAVAL     2
