CC0000022328269H202100000555154000000555154030/10/20211134     3300009237421964250000A2BX0100001277280000000000000                                                                                ALSUCRAL TAB 1 G /R/TAB     3
CC0000022328269H202100000555154000000555154030/10/20211134     3300009237421964250000B1AB0200003939510000000000000                 ENOXAPARINA SODICA 40MG/0.4ML(100MG/ML) SOL INY INST CAJ X 2JERPREL X 0.4ML TECHDOWJRP     1
CC0000022328269H202100000555154000000555154030/10/20211427    31902651237421964250000E1AB0200000199290000000000000                                                            SOLUCION SALINA 0.9% SLN INY BO X 100 MLBIN     3
CC0000022328269H202100000555154000000555154030/10/20211433    31902651237421964250000B05B1400001012740000000000000                                                                SOLUCION SALINA 0.45% Sln Iny 500 mlBOL     4
CC0000022328269H202100000555154000000555154030/10/20211133     3300009237421964250000C03DA100001334730000000000000                                                                      INSPRA TAB RECUBIERTA 25MG /R/TAB     1
CC0000022328269H202100000555154000000555154030/10/20211133     3300009237421964250000J01XA400001212420000000000000                                                               VANCOMICINA POLVO LIOF SLN INY 500 MGVAL     2
CC0000022328269H202100000555154000000555154030/10/20212145     3300010237421964250000J02A0200000191070000000000000                                                            CANCIDAS POLVO LIOF SLN INY AMP 50MG /R/VAL     1
CC0000022328269H202100000555154000000555154030/10/20211133     3300009237421964250000V06B1000001243520000000000000                                                                           NEPRO AP LIQUIDO X 237 MLFCO     4
CC0000022328269H202100000555154000000555154030/10/20212145     3300010237421964250000C03C0100001672000000000000000                                                                       FUROSEMIDA SLN INY 20 MG/2 MLAMP     1
CC0000022328269H202100000555154000000555154030/10/20211134     3300009237421964250000C03C0100001672000000000000000                                                                       FUROSEMIDA SLN INY 20 MG/2 MLAMP     1
CC0000022328269H202100000555154000000555154030/10/20211133     3300009237421964250000C10AA500001314010000000000000                                                                             ATORVASTATINA TAB 40 MGTAB     1
CC0000022328269H202100000555154000000555154030/10/20211133     3300009237421964250000J01DH400001317770000000000000                                                                MEROPENEM POLVO LIOF SLN INY 1 G /R/CAJ     3
CC0000022328269H202100000555154000000555154030/10/20211433    31902651237421964250000V07A1300000502600000000000000                                                                                AGUA ESTERIL x 10 mlAMP     2
CC0000022328269H202100000555154000000555154030/10/20211427    31902651237421964250000V07A1300000502600000000000000                                                                                AGUA ESTERIL x 10 mlAMP     5
