RC0001048090257A202100000027661600000027661630/10/20210857    3190333624042196419000045723600000271070000000000000                                                                          MECHA NASAL ESTERIL 3/8*24SOB     1
RC0001048090257A202100000027661600000027661630/10/20210857    3190333624042196419000038569400000256750000000000000                                                                        SONDA ASPIRACION CONTROL #14SIN     1
RC0001048090257A202100000027661600000027661630/10/20210857    3190333624042196419000000101000001101640000000000000                                                                  AGUJA DESECHABLE  23G X 1 1/2 PULGSOB     1
RC0001048090257A202100000027661600000027661630/10/20210857    3190333624042196419000019488700000753270000000000000                                                                              VICRYL 3-0 SH1 VCP311HSOB     1
RC0001048090257A202100000027661600000027661630/10/20210857    31903336240421964190000N01B1200000220020000000000000                                                                        ROXICAINA 1% C/E Iny x 20 mlFCO     1
RC0001048090257A202100000027661600000027661630/10/20210857    3190333624042196419000022425200000548240000000000000                       EXTENSION DE ANESTESIA REF 1139 SOB X 1 SHERLEG  ADULTO BN EXENTO-DC.417/2020SIN     1
RC0001048090257A202100000027661600000027661630/10/20210857    3190333624042196419000035356500003919000000000000000                                                                                        LLAVE 3 VIASSOB     1
RC0001048090257A202100000027661600000027661630/10/20210857    3190333624042196419000030161400001459220000000000000                                                                       MANGUERA SUCCION 6 MM*3.1 MTSSOB     2
RC0001048090257A202100000027661600000027661630/10/20210857    3190333624042196419000011073300001096420000000000000                                                                BOLSA DE SUCCION DE FLUIDOS x 2500mLBOL     1
RC0001048090257A202100000027661600000027661630/10/20210857    3190333624042196419000053074400000607910000000000000                                                               GASA ESTERIL 10*10 SOBRE X 3 UNIDADESSOB     1
RC0001048090257A202100000027661600000027661630/10/20210857    3190333624042196419000011085100001082120000000000000                                                                           GUANTE QUIRURGICO TALLA 7SOB     1
RC0001048090257A202100000027661600000027661630/10/20210857    3190333624042196419000043485100001618510000000000000                GUANTE QUIRURGICO DE LATEX REF 2D72N65X CAJ X 50 PROTEXIS  6.5 BN EXENTO-DC.417/2020SOB     2
RC0001048090257A202100000027661600000027661630/10/20210857    3190333624042196419000011082700001620070000000000000                                                               EQUIPO SET PRIMARIO C/CLAVE REF 14001BOL     1
RC0001048090257A202100000027661600000027661630/10/20210857    3190333624042196419000039175300001077530000000000000                                                                           TUBO ENDOTRAQUEAL C/B 4.0SOB     1
RC0001048090257A202100000027661600000027661630/10/20210857    3190333624042196419000051515200000598130000000000000                                                                            MASCARILLA ANESTESIA # 2SIN     1
RC0001048090257A202100000027661600000027661630/10/20210857    3190333624042196419000011099300000777780000000000000                                                                     FILTRO BACTERIANO VIRICO ADULTOBOL     1
RC0001048090257A202100000027661600000027661630/10/20210857    3190333624042196419000024673000001411210000000000000                                                                  JERINGA DESECHABLE 3 ML 21 X 1 1/2SOB     1
RC0001048090257A202100000027661600000027661630/10/20210857    3190333624042196419000024673600000222980000000000000                                                                     JERINGA DESECHABLE 5 ml 27*11/2SIN     1
RC0001048090257A202100000027661600000027661630/10/20210857    3190333624042196419000024674000000220660000000000000                             JERINGA A 3 PARTES CON AGUJA  SOB X 1 RYMCO  10ML BN EXENTO-DC.417/2020SIN     2
RC0001048090257A202100000027661600000027661630/10/20210857    31903336240421964190000E1AB0700003888350000000000000                                                            SOLUCION SALINA 0.9% SLN INY BO X 250 MLBOL     2
RC0001048090257A202100000027661600000027661630/10/20210857    31903336240421964190000E1AB0200000199290000000000000                                                            SOLUCION SALINA 0.9% SLN INY BO X 100 MLBIN     1
RC0001048090257A202100000027661600000027661630/10/20210857    31903336240421964190000N01B0200003888110000000000000                                           ROXICAINA SE 100MG/10ML(1%) SOL INY CAJ X 24AMPACK X 10MLAPC     1
RC0001048090257A202100000027661600000027661630/10/20210857    31903336240421964190000N2BB0100000787510000000000000                                                                    DIPIRONA SODICA Sln Iny 1 g/2 mlAMP     1
RC0001048090257A202100000027661600000027661630/10/20210857    31903336240421964190000A03F0300001626860000000000000                                                                   METOCLOPRAMIDA SLN INY 10 MG/2 MLAMP     1
RC0001048090257A202100000027661600000027661630/10/20210857    31903336240421964190000H02A0100001664960000000000000                                                                        DEXAMETASONA SLN INY 4 MG/MLAMP     1
