CC0000032718053H202100000555148300000555148330/10/20211816     3300009237421964250000A6AC0200001467010000000000000                                                             LACTULAX JARABE 66.7G/100ML SOX15ML /R/SOB     1
CC0000032718053H202100000555148300000555148330/10/20211815     3300009237421964250000A06AD100001193740000000000000                                                                      CONTUMAX 3350 SOBRE X 17 G /R/SOB     1
CC0000032718053H202100000555148300000555148330/10/20210420    31902335237421964250000E1AB0300003888390000000000000                                                            SOLUCION SALINA 0.9% SLN INY BO X 500 MLBOL     1
CC0000032718053H202100000555148300000555148330/10/20210417    31902335237421964250000E1AB0300003888390000000000000                                                            SOLUCION SALINA 0.9% SLN INY BO X 500 MLBOL     1
CC0000032718053H202100000555148300000555148330/10/20210510     3300009237421964250000N2AX0900001672040000000000000                                                                              TRAMADOL SLN INY 50 MGAMP     3
CC0000032718053H202100000555148300000555148330/10/20210509     3300009237421964250000N02BB100000777810000000000000                                                               DIPIRONA MAGNESICA SLN INY 2.5 G/5 MLAMP     4
CC0000032718053H202100000555148300000555148330/10/20211637    31903290237421964250000V07A1300000502600000000000000                                                                                AGUA ESTERIL x 10 mlAMP    10
