TI0001146537318H202100015012572200015012572230/10/20212153    31901879237421964250000E1AD0300000199490000000000000                                         LACTATO RINGER USP (HARTMANN)  SOL INY  BOL X 1000ML BAXTERBIN     1
PA0000597549720H202100015012572200015012572230/10/20212153    31901879237421964250000E1AD0300000199490000000000000                                         LACTATO RINGER USP (HARTMANN)  SOL INY  BOL X 1000ML BAXTERBIN     2
RC0001048091446H202100015012572200015012572230/10/20212153    31901879237421964250000E1AB0300003888390000000000000                                                            SOLUCION SALINA 0.9% SLN INY BO X 500 MLBOL     1
