CC0000022328269H202100015112655600015112655630/10/20211038    3150022123742196425000038569400000256750000000000000                                                                        SONDA ASPIRACION CONTROL #14SIN     6
CC0001042970504H202100015112655600015112655630/10/20211038    3150022123742196425000038569400000256750000000000000                                                                        SONDA ASPIRACION CONTROL #14SIN     6
CC0000022328269H202100015112655600015112655630/10/20211038    3150022123742196425000036441300000236540000000000000                                                                    JERINGA 1 ML GASES ARTERIAL 9023SIN     2
CC0001042970504H202100015112655600015112655630/10/20211038    3150022123742196425000036441300000236540000000000000                                                                    JERINGA 1 ML GASES ARTERIAL 9023SIN     2
CC0000022328269H202100015112655600015112655630/10/20211038    3150022123742196425000024674000000220660000000000000                             JERINGA A 3 PARTES CON AGUJA  SOB X 1 RYMCO  10ML BN EXENTO-DC.417/2020SIN     2
