CC0000007467947A202100000027662000000027662030/10/20211134    3190333624042196419000011180500001330530000000000000                                                            SURGISLEEVEWOUND PROTECTOR MEDIUM REF. WPZA     1
CC0000007467947A202100000027662000000027662030/10/20211134    3190333624042196419000031188000000236790000000000000                                                                                     CISTOFLO ADULTOSIN     1
CC0000007467947A202100000027662000000027662030/10/20211134    3190333624042196419000038569900001124970000000000000                                                                              SONDA FOLEY #14 2 VIASSOB     1
CC0000007467947A202100000027662000000027662030/10/20211134    31903336240421964190000C7AB1600001013300000000000000                                                                          BETOPROLOL SLN INY 5 MG/MLAPC     1
CC0000007467947A202100000027662000000027662030/10/20211134    31903336240421964190000V03A2300000865410000000000000                                                                         BRIDION Sln Iny 200 mg/2 mlVAL     1
CC0000007467947A202100000027662000000027662030/10/20211134    3190333624042196419000042743200003929860000000000000                   GASA ADHESIVA STRETCH REF 02038-00 ROL X 10MT FIXOMULL 15CM BN EXENTO-DC.417/2020CMT    50
CC0000007467947A202100000027662000000027662030/10/20211134    31903336240421964190000E1AB0500003888400000000000000                                                              SOLUCION SALINA 0.9% SLN INY X 1000 MLBOL     1
CC0000007467947A202100000027662000000027662030/10/20211134    3190333624042196419000017930300000295920000000000000                                                              TROCAR TORAX THORACOPORT 11.5MM 179303SOB     1
CC0000007467947A202100000027662000000027662030/10/20211134    3190333624042196419000020042600000633850000000000000                                                                                       ASEPTOJERINGASIN     1
CC0000007467947A202100000027662000000027662030/10/20211134    3190333624042196419000045138000001413890000000000000                                                                       LAPIZ ELECTROBISTURI  SOB X 1SOB     1
CC0000007467947A202100000027662000000027662030/10/20211134    3190333624042196419000043879500001138210000000000000                                                                                    HOJA BISTURI #20SOB     1
CC0000007467947A202100000027662000000027662030/10/20211134    31903336240421964190000N01B1300001195250000000000000                                                                         BUPIROP 0.5% S/EPIN X 10 MLAMP     1
CC0000007467947A202100000027662000000027662030/10/20211134    3190333624042196419000022425200000548240000000000000                       EXTENSION DE ANESTESIA REF 1139 SOB X 1 SHERLEG  ADULTO BN EXENTO-DC.417/2020SIN     1
CC0000007467947A202100000027662000000027662030/10/20211134    3190333624042196419000015944000000632490000000000000                                                                           MONOCRYL 3-0 PS2  MCP427HSIN     1
CC0000007467947A202100000027662000000027662030/10/20211134    3190333624042196419000011063900000296020000000000000                                                            SIST DRENAJE TORACICO 888571299  AQ-SEALBOL     1
CC0000007467947A202100000027662000000027662030/10/20211134    3190333624042196419000022310000000376030000000000000                                                                      DRENA BLAKE 1/4 19 FR 2231 J&JPZA     1
CC0000007467947A202100000027662000000027662030/10/20211134    3190333624042196419000019487600000599200000000000000                                                                                VICRYL 0 CT1 VCP346HSIN     2
CC0000007467947A202100000027662000000027662030/10/20211134    3190333624042196419000039180100000296180000000000000                                                                   TUBO ENDOBRONQUIAL IZQ 37F 125037CAJ     1
CC0000007467947A202100000027662000000027662030/10/20211134    3190333624042196419000011073300001096420000000000000                                                                BOLSA DE SUCCION DE FLUIDOS x 2500mLBOL     2
CC0000007467947A202100000027662000000027662030/10/20211134    3190333624042196419000030161400001459220000000000000                                                                       MANGUERA SUCCION 6 MM*3.1 MTSSOB     1
CC0000007467947A202100000027662000000027662030/10/20211134    3190333624042196419000020750600000296780000000000000                                                                PLACA ELECTRO RETORNO PACIENTE E7506SIN     1
CC0000007467947A202100000027662000000027662030/10/20211134    3190333624042196419000053074400000607910000000000000                                                               GASA ESTERIL 10*10 SOBRE X 3 UNIDADESSOB     4
CC0000007467947A202100000027662000000027662030/10/20211134    3190333624042196419000011085400001083360000000000000                                                                       GUANTE QUIRURGICO TALLA 8 1/2SOB     1
CC0000007467947A202100000027662000000027662030/10/20211134    3190333624042196419000011085300001082140000000000000                                                                           GUANTE QUIRURGICO TALLA 8SOB     5
CC0000007467947A202100000027662000000027662030/10/20211134    3190333624042196419000011085200001585390000000000000                                                                       GUANTE QUIRURGICO TALLA 7 1/2SOB     3
CC0000007467947A202100000027662000000027662030/10/20211134    3190333624042196419000011085100001082120000000000000                                                                           GUANTE QUIRURGICO TALLA 7SOB     5
CC0000007467947A202100000027662000000027662030/10/20211134    3190333624042196419000043485100001618510000000000000                GUANTE QUIRURGICO DE LATEX REF 2D72N65X CAJ X 50 PROTEXIS  6.5 BN EXENTO-DC.417/2020SOB     2
CC0000007467947A202100000027662000000027662030/10/20211134    3190333624042196419000051515500000598160000000000000                                                                            MASCARILLA ANESTESIA # 5SIN     1
CC0000007467947A202100000027662000000027662030/10/20211134    3190333624042196419000011099300000777780000000000000                                                                     FILTRO BACTERIANO VIRICO ADULTOBOL     1
CC0000007467947A202100000027662000000027662030/10/20211134    3190333624042196419000024673600000222980000000000000                                                                     JERINGA DESECHABLE 5 ml 27*11/2SIN     2
CC0000007467947A202100000027662000000027662030/10/20211134    3190333624042196419000024674000000220660000000000000                             JERINGA A 3 PARTES CON AGUJA  SOB X 1 RYMCO  10ML BN EXENTO-DC.417/2020SIN     6
CC0000007467947A202100000027662000000027662030/10/20211134    3190333624042196419000024674500000322810000000000000                                                                   JERINGA DESECHABLE 20 ml 21*1 1/2SIN     1
CC0000007467947A202100000027662000000027662030/10/20211134    31903336240421964190000E1AB0300003888390000000000000                                                            SOLUCION SALINA 0.9% SLN INY BO X 500 MLBOL     5
CC0000007467947A202100000027662000000027662030/10/20211134    31903336240421964190000E1AB0700003888350000000000000                                                            SOLUCION SALINA 0.9% SLN INY BO X 250 MLBOL     1
CC0000007467947A202100000027662000000027662030/10/20211134    31903336240421964190000E1AB0200000199290000000000000                                                            SOLUCION SALINA 0.9% SLN INY BO X 100 MLBIN     1
CC0000007467947A202100000027662000000027662030/10/20211134    31903336240421964190000N02B1100001169680000000000000                              PARACETAMOL 1000MG/100ML(10MG/ML) SOL INY  VIAL X 100ML FRESENIUS KABIVAL     1
CC0000007467947A202100000027662000000027662030/10/20211134    31903336240421964190000A2BC0900000200150000000000000                                                                               ORAZOLE Sln Iny 40 mgCIN     1
CC0000007467947A202100000027662000000027662030/10/20211134    31903336240421964190000N2BB1100000217160000000000000                                                                      NOVALGINA Sln Iny 2.5 g x 5 mlAMP     1
CC0000007467947A202100000027662000000027662030/10/20211134    31903336240421964190000N1BA2400001195280000000000000                                                                    LIDOCAINA 2% S/E Sln Iny x 10 mlAMP     1
CC0000007467947A202100000027662000000027662030/10/20211134    31903336240421964190000M3AC0600000720540000000000000                                                                         ESMERON SLN INY 50 MG /5 MLVAL     1
CC0000007467947A202100000027662000000027662030/10/20211134    31903336240421964190000N2AA0100000301640000000000000                                                                            MORFINA Sln Iny 10 mg/mlAMP     1
