TI0001044780282H202100015122512100015122512130/10/20212146    3150024423742196425000024674000000220660000000000000                             JERINGA A 3 PARTES CON AGUJA  SOB X 1 RYMCO  10ML BN EXENTO-DC.417/2020SIN     5
TI0001044646343H202100015122512100015122512130/10/20212146    3150024423742196425000024674000000220660000000000000                             JERINGA A 3 PARTES CON AGUJA  SOB X 1 RYMCO  10ML BN EXENTO-DC.417/2020SIN     5
RC0001140714746H202100015122512100015122512130/10/20212146    3150024423742196425000011082700001620070000000000000                                                               EQUIPO SET PRIMARIO C/CLAVE REF 14001BOL     1
TI0001044780282H202100015122512100015122512130/10/20212146    3150024423742196425000011082700001620070000000000000                                                               EQUIPO SET PRIMARIO C/CLAVE REF 14001BOL     1
TI0001044646343H202100015122512100015122512130/10/20212146    3150024423742196425000011082700001620070000000000000                                                               EQUIPO SET PRIMARIO C/CLAVE REF 14001BOL     1
TI0001044780282H202100015122512100015122512130/10/20212146    3150024423742196425000011082200001407940000000000000                                                              EQUIPO EXT MICROTUBO Y 2 VALVUL 2N8371SOB     1
TI0001044646343H202100015122512100015122512130/10/20212146    3150024423742196425000011082200001407940000000000000                                                              EQUIPO EXT MICROTUBO Y 2 VALVUL 2N8371SOB     1
TI0001072108867H202100015122512100015122512130/10/20212146    3150024423742196425000011082200001407940000000000000                                                              EQUIPO EXT MICROTUBO Y 2 VALVUL 2N8371SOB     1
TI0001072108867H202100015122512100015122512130/10/20212146    31500244237421964250000Q1AA7400003911720000000000000                                                            CATETER PERIFE INTROCAN # 24G 4251601-04SOB     1
RC0001187466818H202100015122512100015122512130/10/20212146    3150024423742196425000030936900001431840000000000000                                                                                              BURETABOL     1
TI0001044780282H202100015122512100015122512130/10/20212146    3150024423742196425000030936900001431840000000000000                                                                                              BURETABOL     1
TI0001044646343H202100015122512100015122512130/10/20212146    3150024423742196425000030936900001431840000000000000                                                                                              BURETABOL     1
TI0001044780282H202100015122512100015122512130/10/20212146    3150024423742196425000000602600001259280000000000000                                                             APOSITO TEGADERM IV PD 1610 5CM X 5.7CMSOB     1
TI0001044646343H202100015122512100015122512130/10/20212146    3150024423742196425000000602600001259280000000000000                                                             APOSITO TEGADERM IV PD 1610 5CM X 5.7CMSOB     1
TI0001044780282H202100015122512100015122512130/10/20212146    31500244237421964250000E1AD0300000199490000000000000                                         LACTATO RINGER USP (HARTMANN)  SOL INY  BOL X 1000ML BAXTERBIN     4
TI0001044646343H202100015122512100015122512130/10/20212146    31500244237421964250000E1AD0300000199490000000000000                                         LACTATO RINGER USP (HARTMANN)  SOL INY  BOL X 1000ML BAXTERBIN     4
