RC0001048091446A202100000027661800000027661830/10/20211429    3190333624042196419000011006500000227530000000000000                                                             CATETER BILUMEN 4F*8CM PEDIA 01CS15402ESIN     1
RC0001048091446A202100000027661800000027661830/10/20211429    3190333624042196419000018351500000232840000000000000                                                                                    SEDA 2-0 KS 623HSIN     1
RC0001048091446A202100000027661800000027661830/10/20211429    3190333624042196419000000602600001259280000000000000                                                             APOSITO TEGADERM IV PD 1610 5CM X 5.7CMSOB     1
RC0001048091446A202100000027661800000027661830/10/20211429    3190333624042196419000043879200001138180000000000000                                                                                   HOJA BISTURI # 11SOB     1
RC0001048091446A202100000027661800000027661830/10/20211429    3190333624042196419000053074400000607910000000000000                                                               GASA ESTERIL 10*10 SOBRE X 3 UNIDADESSOB     3
RC0001048091446A202100000027661800000027661830/10/20211429    3190333624042196419000011085200001585390000000000000                                                                       GUANTE QUIRURGICO TALLA 7 1/2SOB     1
RC0001048091446A202100000027661800000027661830/10/20211429    3190333624042196419000043485100001618510000000000000                GUANTE QUIRURGICO DE LATEX REF 2D72N65X CAJ X 50 PROTEXIS  6.5 BN EXENTO-DC.417/2020SOB     2
RC0001048091446A202100000027661800000027661830/10/20211429    3190333624042196419000051515200000598130000000000000                                                                            MASCARILLA ANESTESIA # 2SIN     1
RC0001048091446A202100000027661800000027661830/10/20211429    3190333624042196419000011099300000777780000000000000                                                                     FILTRO BACTERIANO VIRICO ADULTOBOL     1
RC0001048091446A202100000027661800000027661830/10/20211429    3190333624042196419000031011200001012590000000000000                                                                           CANULA GUEDEL # 1 (70 MM)SOB     1
RC0001048091446A202100000027661800000027661830/10/20211429    3190333624042196419000024674000000220660000000000000                             JERINGA A 3 PARTES CON AGUJA  SOB X 1 RYMCO  10ML BN EXENTO-DC.417/2020SIN     2
RC0001048091446A202100000027661800000027661830/10/20211429    31903336240421964190000E1AB0700003888350000000000000                                                            SOLUCION SALINA 0.9% SLN INY BO X 250 MLBOL     1
