RC0001048084425U202100000555158400000555158430/10/20210831     3300004239421964320000A2BC0900000200150000000000000                                                                               ORAZOLE Sln Iny 40 mgCIN     1
RC0001048084425U202100000555158400000555158430/10/20210831     3300004239421964320000A04A1400001467560000000000000                                                                      ONDANSETRON SLN INY 8 MG/ 4 MLVAL     1
RC0001048084425U202100000555158400000555158430/10/20210909    31500263239421964320000E1AD0300000199490000000000000                                         LACTATO RINGER USP (HARTMANN)  SOL INY  BOL X 1000ML BAXTERBIN     1
