RC0001048091952H202100915238102400915238102424/10/20211441    3190213923742196425000011137100001419310000000000000                                                               TIRA GLUCOMETRIA FREESTYLE H OPTIUM .PZA     2
RC0001048091952H202100915238102400915238102424/10/20211441    3190213923742196425000024674000000220660000000000000                             JERINGA A 3 PARTES CON AGUJA  SOB X 1 RYMCO  10ML BN EXENTO-DC.417/2020SIN     1
RC0001048091952H202100915238102400915238102424/10/20211441    3190213923742196425000036441300000236540000000000000                                                                    JERINGA 1 ML GASES ARTERIAL 9023SIN     2
RC0001048091952H202100915238102400915238102424/10/20211441    3190213923742196425000043485100001618510000000000000                GUANTE QUIRURGICO DE LATEX REF 2D72N65X CAJ X 50 PROTEXIS  6.5 BN EXENTO-DC.417/2020SOB     2
RC0001048091952H202100915238102400915238102424/10/20211441    3190213923742196425000045136100001419300000000000000                                                                            LANCETA DEXTROMETER X UNPZA     2
RC0001048091952H202100915238102400915238102424/10/20211724    3190311723742196425000011137100001419310000000000000                                                               TIRA GLUCOMETRIA FREESTYLE H OPTIUM .PZA     2
RC0001048091952H202100915238102400915238102424/10/20211724    3190311723742196425000024674000000220660000000000000                             JERINGA A 3 PARTES CON AGUJA  SOB X 1 RYMCO  10ML BN EXENTO-DC.417/2020SIN     1
RC0001048091952H202100915238102400915238102424/10/20211724    3190311723742196425000036441300000236540000000000000                                                                    JERINGA 1 ML GASES ARTERIAL 9023SIN     2
RC0001048091952H202100915238102400915238102424/10/20211724    3190311723742196425000043485100001618510000000000000                GUANTE QUIRURGICO DE LATEX REF 2D72N65X CAJ X 50 PROTEXIS  6.5 BN EXENTO-DC.417/2020SOB     2
RC0001048091952H202100915238102400915238102424/10/20211724    3190311723742196425000045136100001419300000000000000                                                                            LANCETA DEXTROMETER X UNPZA     2
