CC0001032470223H202100000554895700000554895724/10/20210514     3300010237421964250000A2BC0900000200150000000000000                                                                               ORAZOLE Sln Iny 40 mgCIN     1
CC0001032470223H202100000554895700000554895724/10/20210513     3300010237421964250000A4AD0200000202990000000000000                                                                     PLITICAN HCL Sln Iny 50 mg/2 mlAMP     1
CC0001032470223H202100000554895700000554895724/10/20210513     3300010237421964250000A3BB0200000512940000000000000                                                                          BUSCAPINA SIMPLE Iny 20 mgAMP     3
CC0001032470223H202100000554895700000554895724/10/20210513     3300010237421964250000C1DA0300001334760000000000000                                                                                   ISOCORD TAB 10 MGCOM     1
CC0001032470223H202100000554895700000554895724/10/20210513     3300010237421964250000M01A0400001341250000000000000                                                                              DYNASTAT AMP 40 MG /R/VAL     1
CC0001032470223H202100000554895700000554895724/10/20210513     3300010237421964250000N02B1100001169680000000000000                              PARACETAMOL 1000MG/100ML(10MG/ML) SOL INY  VIAL X 100ML FRESENIUS KABIVAL     2
CC0001032470223H202100000554895700000554895724/10/20211040    31903291237421964250000V07A1300000502600000000000000                                                                                AGUA ESTERIL x 10 mlAMP     5
