CC0000007453635U202100050131353800050131353824/10/20211759    3150054723942196432000019491700000233150000000000000                                                                      VICRYL 4-0 INC P3 PRIME JP494GSIN     2
CC0000007453635U202100050131353800050131353824/10/20211759    3150054723942196432000012475800000232220000000000000                                                                SUTURA ETHILON 4-0 PS-2  45CM P1667TSIN     2
CC0000007453635U202100050131353800050131353824/10/20211759    3150054723942196432000011048600000223020000000000000                                                                 JERINGA VACUNACION 3ML C/AGU 302542SIN     1
CC0000007453635U202100050131353800050131353824/10/20211759    3150054723942196432000011085100001082120000000000000                                                                           GUANTE QUIRURGICO TALLA 7SOB     2
CC0000007453635U202100050131353800050131353824/10/20211759    3150054723942196432000013077800000471960000000000000                                                             GASA NO TEJIDA EST 7.5 X 7.5 SOB X 3 UNSOB     5
