TI0001080436271H202100000554914700000554914724/10/20211710    31500453237421964250000E1AD0300000199490000000000000                                         LACTATO RINGER USP (HARTMANN)  SOL INY  BOL X 1000ML BAXTERBIN     5
TI0001080436271H202100000554914700000554914724/10/20211540     3300009237421964250000N2BE2200001252930000000000000                                                                             ACETAMINOFEN Tab 500 MGTAB     1
TI0001080436271H202100000554914700000554914724/10/20211541     3300009237421964250000A02BC700001684270000000000000                                                            OMEPRAZOL 40MG POLVO LIOFILIZADO AMPOLLAVAL     1
