CC0001140817076H202100000554911700000554911724/10/20211343    31901020237421964250000N2AX0400001204140000000000000                                                                             TRAMAL Sln Iny 50 mg/mlAMP     2
CC0001140817076H202100000554911700000554911724/10/20211343    31901020237421964250000N02B1100001169680000000000000                              PARACETAMOL 1000MG/100ML(10MG/ML) SOL INY  VIAL X 100ML FRESENIUS KABIVAL     5
CC0001140817076H202100000554911700000554911724/10/20211348    31901020237421964250000N3AF0400001315990000000000000                                                                            TRILEPTAL TAB 300 MG /R/TAB     2
CC0001140817076H202100000554911700000554911724/10/20211343    31901020237421964250000N5BA0600001278070000000000000                                                                                    XANAX Tab 0.5 mgTAB     1
