CC0000007469257H202100910832102400910832102424/10/20210952    3190092623742196425000011137100001419310000000000000                                                               TIRA GLUCOMETRIA FREESTYLE H OPTIUM .PZA     9
CC0000007469257H202100910832102400910832102424/10/20210952    3190092623742196425000024674000000220660000000000000                             JERINGA A 3 PARTES CON AGUJA  SOB X 1 RYMCO  10ML BN EXENTO-DC.417/2020SIN    30
CC0000007469257H202100910832102400910832102424/10/20211111    3190092623742196425000000602700001197200000000000000                                                              APOSITO TRANSP  1655 IV 8.5CM X 11.5CMSOB     1
CC0000007469257H202100910832102400910832102424/10/20211111    3190092623742196425000013077800000471960000000000000                                                             GASA NO TEJIDA EST 7.5 X 7.5 SOB X 3 UNSOB     8
CC0000007469257H202100910832102400910832102424/10/20211111    3190092623742196425000022426800001140510000000000000                                                                    EQUIPO MACROGOTEO BAXTER MRC0001SOB     1
CC0000007469257H202100910832102400910832102424/10/20211111    3190092623742196425000042743200003929860000000000000                   GASA ADHESIVA STRETCH REF 02038-00 ROL X 10MT FIXOMULL 15CM BN EXENTO-DC.417/2020CMT    80
CC0000007469257H202100910832102400910832102424/10/20211111    3190092623742196425000043485100001618510000000000000                GUANTE QUIRURGICO DE LATEX REF 2D72N65X CAJ X 50 PROTEXIS  6.5 BN EXENTO-DC.417/2020SOB     1
CC0000007469257H202100910832102400910832102424/10/20211117    3190092623742196425000045136100001419300000000000000                                                                            LANCETA DEXTROMETER X UNPZA     9
CC0000007469257H202100910832102400910832102424/10/20211117    31900926237421964250000E1AB0200000199290000000000000                                                            SOLUCION SALINA 0.9% SLN INY BO X 100 MLBIN    24
CC0000007469257H202100910832102400910832102424/10/20211117    3190092623742196425000043879100001138200000000000000                                                                  HOJA BISTURI # 15 CSSB 15 01002003SOB     3
CC0000007469257H202100910832102400910832102424/10/20211117    3190092623742196425000018354100000232880000000000000                                                                  SUTURA SEDA NEGRA 3-0 KS 75CM 622HSIN     3
CC0000007469257H202100910832102400910832102424/10/20211118    3150055523742196425000045136100001419300000000000000                                                                            LANCETA DEXTROMETER X UNPZA     9
CC0000007469257H202100910832102400910832102424/10/20211118    3150055523742196425000024674000000220660000000000000                             JERINGA A 3 PARTES CON AGUJA  SOB X 1 RYMCO  10ML BN EXENTO-DC.417/2020SIN    30
CC0000007469257H202100910832102400910832102424/10/20211118    3150055523742196425000018354100000232880000000000000                                                                  SUTURA SEDA NEGRA 3-0 KS 75CM 622HSIN     3
CC0000007469257H202100910832102400910832102424/10/20211118    3150055523742196425000043879100001138200000000000000                                                                  HOJA BISTURI # 15 CSSB 15 01002003SOB     3
CC0000007469257H202100910832102400910832102424/10/20211118    31500555237421964250000E1AB0200000199290000000000000                                                            SOLUCION SALINA 0.9% SLN INY BO X 100 MLBIN    24
CC0000007469257H202100910832102400910832102424/10/20211118    3150055523742196425000011137100001419310000000000000                                                               TIRA GLUCOMETRIA FREESTYLE H OPTIUM .PZA     9
