CC0001140817076H202100000554902600000554902624/10/20210724     3300009237421964250000J01DA300001239950000000000000                                                            CEFAZOLINA SODICA POLVO LIOF SLN INY 1 GVAL     1
CC0001140817076H202100000554902600000554902624/10/20210724     3300009237421964250000N2AX0400001204140000000000000                                                                             TRAMAL Sln Iny 50 mg/mlAMP     2
CC0001140817076H202100000554902600000554902624/10/20210724     3300009237421964250000N02B1100001169680000000000000                              PARACETAMOL 1000MG/100ML(10MG/ML) SOL INY  VIAL X 100ML FRESENIUS KABIVAL     3
CC0001140817076H202100000554902600000554902624/10/20210724     3300009237421964250000N3AF0400001315990000000000000                                                                            TRILEPTAL TAB 300 MG /R/TAB     1
CC0001140817076H202100000554902600000554902624/10/20211432    31903254237421964250000V07A1300000502600000000000000                                                                                AGUA ESTERIL x 10 mlAMP     2
