TI0001066290448U202100050131352500050131352524/10/20211613    3150024623942196432000045136100001419300000000000000                                                                            LANCETA DEXTROMETER X UNPZA     1
TI0001066290448U202100050131352500050131352524/10/20211613    3150024623942196432000011082700001620070000000000000                                                               EQUIPO SET PRIMARIO C/CLAVE REF 14001BOL     1
TI0001066290448U202100050131352500050131352524/10/20211613    31500246239421964320000Q1AA7300000610640000000000000                                                            CATETER PERIFE INTROCAN # 22G 4251628-04SIN     1
TI0001066290448U202100050131352500050131352524/10/20211613    3150024623942196432000030936900001431840000000000000                                                                                              BURETABOL     1
TI0001066290448U202100050131352500050131352524/10/20211613    3150024623942196432000016830000000970620000000000000                                                             SIST FIJACION CAT PERIFERICO 6.5X7 1683SOB     1
TI0001066290448U202100050131352500050131352524/10/20211613    31500246239421964320000E1AD0300000199490000000000000                                         LACTATO RINGER USP (HARTMANN)  SOL INY  BOL X 1000ML BAXTERBIN     1
TI0001066290448U202100050131352500050131352524/10/20211613    3150024623942196432000011137100001419310000000000000                                                               TIRA GLUCOMETRIA FREESTYLE H OPTIUM .PZA     1
