RC0001043493044H202100000554904400000554904424/10/20210812    31500206237421964250000A07F0600001089820000000000000                                                                     FLORATIL POLVO SOBRE 250 MG /R/SOB     2
RC0001043493044H202100000554904400000554904424/10/20210812    31500206237421964250000S2BA0200000468180000000000000                                                                   SOLU-MEDROL SLN INY 40 MG/ML  /R/VAL     1
RC0001043493044H202100000554904400000554904424/10/20210812    31500206237421964250000N02B1100001169680000000000000                              PARACETAMOL 1000MG/100ML(10MG/ML) SOL INY  VIAL X 100ML FRESENIUS KABIVAL     1
