RC0001146543342H202100909398102400909398102424/10/20210547    3150008223742196425000011048600000223020000000000000                                                                 JERINGA VACUNACION 3ML C/AGU 302542SIN     5
RC0001146543342H202100909398102400909398102424/10/20210547    3150008223742196425000024674000000220660000000000000                             JERINGA A 3 PARTES CON AGUJA  SOB X 1 RYMCO  10ML BN EXENTO-DC.417/2020SIN     3
RC0001146543342H202100909398102400909398102424/10/20210547    31500082237421964250000V07A1300000502600000000000000                                                                                AGUA ESTERIL x 10 mlAMP     5
