RC0001146543698A202100000027620600000027620624/10/20210844    3190333624042196419000038569600000778200000000000000                                                                        SONDA FOLEY #8 2 VIAS C/GUIABOL     1
RC0001146543698A202100000027620600000027620624/10/20210844    3190333624042196419000042753000003929870000000000000                    GASA ADHESIVA STRETCH REF 02036-00 ROL X 10MT FIXOMULL 5CM BN EXENTO-DC.417/2020CMT    15
RC0001146543698A202100000027620600000027620624/10/20210844    31903336240421964190000N02B1100001169680000000000000                              PARACETAMOL 1000MG/100ML(10MG/ML) SOL INY  VIAL X 100ML FRESENIUS KABIVAL     1
RC0001146543698A202100000027620600000027620624/10/20210844    3190333624042196419000045138000001413890000000000000                                                                       LAPIZ ELECTROBISTURI  SOB X 1SOB     1
RC0001146543698A202100000027620600000027620624/10/20210844    3190333624042196419000038569500000994340000000000000                                                             SONDA FOLEY 2 VIAS 6F MA-220603 UROTECHSOB     1
RC0001146543698A202100000027620600000027620624/10/20210844    31903336240421964190000Q1AA5900000236800000000000000                                                                            CISTOFLO PEDIAT X 500 mlSIN     1
RC0001146543698A202100000027620600000027620624/10/20210844    3190333624042196419000020750700000576830000000000000                                                                 PLACA QUIRURGICA  NEONATO REF E7512SIN     1
RC0001146543698A202100000027620600000027620624/10/20210844    3190333624042196419000021017400000227520000000000000                                                            KIT CAT BILUMEN PED CS14402E  4FR X 13CMSIN     2
RC0001146543698A202100000027620600000027620624/10/20210844    3190333624042196419000000602600001259280000000000000                                                             APOSITO TEGADERM IV PD 1610 5CM X 5.7CMSOB     1
RC0001146543698A202100000027620600000027620624/10/20210844    3190333624042196419000043879200001138180000000000000                                                                                   HOJA BISTURI # 11SOB     1
RC0001146543698A202100000027620600000027620624/10/20210844    3190333624042196419000018354100000232880000000000000                                                                  SUTURA SEDA NEGRA 3-0 KS 75CM 622HSIN     2
RC0001146543698A202100000027620600000027620624/10/20210844    31903336240421964190000M3AC0600000720540000000000000                                                                         ESMERON SLN INY 50 MG /5 MLVAL     1
RC0001146543698A202100000027620600000027620624/10/20210844    31903336240421964190000B02AA100001407470000000000000                                                                    CLINTRANEX SLN INY 500 MG / 5 MLAMP     1
RC0001146543698A202100000027620600000027620624/10/20210844    31903336240421964190000Q1A13500001585200000000000000                        JERINGA PUNTA CAT SIN AGUJA REF 309620 CAJ X 40   50ML BN EXENTO-DC.417/2020SOB     1
RC0001146543698A202100000027620600000027620624/10/20210844    3190333624042196419000011078800000517750000000000000                                                             COTONOIDE REF 801401 DE 1.91CM X 1.91CMSIN     1
RC0001146543698A202100000027620600000027620624/10/20210844    3190333624042196419000043879400001138170000000000000                                                                  HOJA BISTURI # 10 CSSB 10 01002000SOB     1
RC0001146543698A202100000027620600000027620624/10/20210844    3190333624042196419000038568400000256940000000000000                                                                                   SONDA NELATON #10SIN     1
RC0001146543698A202100000027620600000027620624/10/20210844    3190333624042196419000038568200000257000000000000000                                                                                   SONDA NELATON #06SIN     1
RC0001146543698A202100000027620600000027620624/10/20210844    31903336240421964190000N1BA0300000217900000000000000                                                                    BUPIROP 0.5% C/E Sln Iny x 20 mlVAL     1
RC0001146543698A202100000027620600000027620624/10/20210844    3190333624042196419000061196200000495170000000000000                                                                   SURGICEL FIBRILAR 5.1*10.2 411962SOB     1
RC0001146543698A202100000027620600000027620624/10/20210844    3190333624042196419000030161400001459220000000000000                                                                       MANGUERA SUCCION 6 MM*3.1 MTSSOB     1
RC0001146543698A202100000027620600000027620624/10/20210844    3190333624042196419000011078700000231410000000000000                                                             COTONOIDE REF 801400 DE 1.27CM X 1.27CMSOB     1
RC0001146543698A202100000027620600000027620624/10/20210844    3190333624042196419000011110600000231980000000000000                                                                       CERA HUESOS 25GM ESTERIL W31GSIN     1
RC0001146543698A202100000027620600000027620624/10/20210844    31903336240421964190000Q1AA6900000531340000000000000                                                            CATETER PERIFE INTROCAN # 14G 4251890-04SIN     1
RC0001146543698A202100000027620600000027620624/10/20210844    3190333624042196419000018351100000232850000000000000                                                                                 SEDA 2-0 SC-26 185TSIN     1
RC0001146543698A202100000027620600000027620624/10/20210844    3190333624042196419000019488400000599300000000000000                                                                               VICRYL 2-0 SH VCP317HSIN     1
RC0001146543698A202100000027620600000027620624/10/20210844    3190333624042196419000012473200000232210000000000000                                                                 SUTURA ETHILON 3-0 SC-24 45CM  163TSIN     1
RC0001146543698A202100000027620600000027620624/10/20210844    3190333624042196419000043879100001138200000000000000                                                                  HOJA BISTURI # 15 CSSB 15 01002003SOB     1
RC0001146543698A202100000027620600000027620624/10/20210844    3190333624042196419000011073300001096420000000000000                                                                BOLSA DE SUCCION DE FLUIDOS x 2500mLBOL     1
RC0001146543698A202100000027620600000027620624/10/20210844    3190333624042196419000024673000001411210000000000000                                                                  JERINGA DESECHABLE 3 ML 21 X 1 1/2SOB     4
RC0001146543698A202100000027620600000027620624/10/20210844    3190333624042196419000024674000000220660000000000000                             JERINGA A 3 PARTES CON AGUJA  SOB X 1 RYMCO  10ML BN EXENTO-DC.417/2020SIN     4
RC0001146543698A202100000027620600000027620624/10/20210844    3190333624042196419000024674500000322810000000000000                                                                   JERINGA DESECHABLE 20 ml 21*1 1/2SIN     3
RC0001146543698A202100000027620600000027620624/10/20210844    3190333624042196419000053074400000607910000000000000                                                               GASA ESTERIL 10*10 SOBRE X 3 UNIDADESSOB     4
RC0001146543698A202100000027620600000027620624/10/20210844    3190333624042196419000011085300001082140000000000000                                                                           GUANTE QUIRURGICO TALLA 8SOB     1
RC0001146543698A202100000027620600000027620624/10/20210844    3190333624042196419000011085200001585390000000000000                                                                       GUANTE QUIRURGICO TALLA 7 1/2SOB     4
RC0001146543698A202100000027620600000027620624/10/20210844    3190333624042196419000011085100001082120000000000000                                                                           GUANTE QUIRURGICO TALLA 7SOB     4
RC0001146543698A202100000027620600000027620624/10/20210844    3190333624042196419000043485100001618510000000000000                GUANTE QUIRURGICO DE LATEX REF 2D72N65X CAJ X 50 PROTEXIS  6.5 BN EXENTO-DC.417/2020SOB     4
RC0001146543698A202100000027620600000027620624/10/20210844    3190333624042196419000039174500001679380000000000000                                                                           TUBO ENDOTRAQUEAL C/B 4.5SOB     1
RC0001146543698A202100000027620600000027620624/10/20210844    3190333624042196419000051515200000598130000000000000                                                                            MASCARILLA ANESTESIA # 2SIN     1
RC0001146543698A202100000027620600000027620624/10/20210844    31903336240421964190000E1AB0300003888390000000000000                                                            SOLUCION SALINA 0.9% SLN INY BO X 500 MLBOL     2
RC0001146543698A202100000027620600000027620624/10/20210844    31903336240421964190000E1AB0200000199290000000000000                                                            SOLUCION SALINA 0.9% SLN INY BO X 100 MLBIN     1
RC0001146543698A202100000027620600000027620624/10/20210844    31903336240421964190000N01B1300001195250000000000000                                                                         BUPIROP 0.5% S/EPIN X 10 MLAMP     1
RC0001146543698A202100000027620600000027620624/10/20210844    31903336240421964190000N2BB0500000217140000000000000                                                                          NOVALGINA Sln Iny 1 g/2 mlAMP     1
RC0001146543698A202100000027620600000027620624/10/20210844    31903336240421964190000H02AB500001664950000000000000                                                            DEXAMETASONA SLN INY 8 MG/2 ML AMP /CDS/AMP     1
RC0001146543698A202100000027620600000027620624/10/20210844    31903336240421964190000N1AH0200003906560000000000000                                                                     FENTANIL Iny 0.05 mg/ml x 10 mlAMP     1
