RC0001048087619U202100050131350500050131350524/10/20211329    3150024623942196432000011048600000223020000000000000                                                                 JERINGA VACUNACION 3ML C/AGU 302542SIN     1
RC0001048087619U202100050131350500050131350524/10/20211329    3150024623942196432000024673000001411210000000000000                                                                  JERINGA DESECHABLE 3 ML 21 X 1 1/2SOB     1
RC0001236888030U202100050131350500050131350524/10/20211329    3150024623942196432000024673600000222980000000000000                                                                     JERINGA DESECHABLE 5 ml 27*11/2SIN     1
RC0001048087619U202100050131350500050131350524/10/20211329    3150024623942196432000042743200003929860000000000000                   GASA ADHESIVA STRETCH REF 02038-00 ROL X 10MT FIXOMULL 15CM BN EXENTO-DC.417/2020CMT    20
RC0001048087619U202100050131350500050131350524/10/20211329    3150024623942196432000011082700001620070000000000000                                                               EQUIPO SET PRIMARIO C/CLAVE REF 14001BOL     1
RC0001048087619U202100050131350500050131350524/10/20211329    31500246239421964320000Q1AA7400003911720000000000000                                                            CATETER PERIFE INTROCAN # 24G 4251601-04SOB     1
RC0001048087619U202100050131350500050131350524/10/20211329    3150024623942196432000030936900001431840000000000000                                                                                              BURETABOL     1
RC0001048087619U202100050131350500050131350524/10/20211329    31500246239421964320000E1AD0300000199490000000000000                                         LACTATO RINGER USP (HARTMANN)  SOL INY  BOL X 1000ML BAXTERBIN     1
RC0001236888030U202100050131350500050131350524/10/20211329    31500246239421964320000E1AC0100000199400000000000000                                                                          SUERO MIXTO Sln Iny 500 mlBIN     1
