CC0000008633435H202100906057102400906057102424/10/20211238    31902335237421964250000Q1AA7300000610640000000000000                                                            CATETER PERIFE INTROCAN # 22G 4251628-04SIN     1
CC0000008633435H202100906057102400906057102424/10/20211238    3190233523742196425000001956000001620610000000000000                                                                      CONECTOR MICRO CLAVE LAT-MC100SOB     1
CC0000008633435H202100906057102400906057102424/10/20211238    31902335237421964250000Q1AA7200000610630000000000000                                                            CATETER PERIFE INTROCAN # 20G 4251644-04SIN     1
