CC0000032700172A202100000027614900000027614924/10/20210859    3190333624042196419000051515500000598160000000000000                                                                            MASCARILLA ANESTESIA # 5SIN     1
CC0000032700172A202100000027614900000027614924/10/20210859    3190333624042196419000000901700000602680000000000000                                                                     MASCARA LARINGEA REUSABLE No. 3BIN     1
CC0000032700172A202100000027614900000027614924/10/20210859    3190333624042196419000045138000001413890000000000000                                                                       LAPIZ ELECTROBISTURI  SOB X 1SOB     1
CC0000032700172A202100000027614900000027614924/10/20210859    3190333624042196419000049059800000267410000000000000                                                                 MEDIA ANTIEMBOLICA TAL L 3634LF PARBOL     1
CC0000032700172A202100000027614900000027614924/10/20210859    3190333624042196419000020056600001101530000000000000                                                                AGUJA HIPODERMICA DESECH 18G X 1 1/2SOB     1
CC0000032700172A202100000027614900000027614924/10/20210859    3190333624042196419000019488400000599300000000000000                                                                               VICRYL 2-0 SH VCP317HSIN     1
CC0000032700172A202100000027614900000027614924/10/20210859    3190333624042196419000081008100000520710000000000000                                                                         SISTEMA SUSP TVT OBT 810081CIN     1
CC0000032700172A202100000027614900000027614924/10/20210859    3190333624042196419000030161400001459220000000000000                                                                       MANGUERA SUCCION 6 MM*3.1 MTSSOB     1
CC0000032700172A202100000027614900000027614924/10/20210859    31903336240421964190000N1BA1900000554750000000000000                                                                     ROXICAINA JALEA 2% TUBO X 30 MLTUB     1
CC0000032700172A202100000027614900000027614924/10/20210859    3190333624042196419000038570000001123500000000000000                                                                              SONDA FOLEY #16 2 VIASSOB     1
CC0000032700172A202100000027614900000027614924/10/20210859    3190333624042196419000031188000000236790000000000000                                                                                     CISTOFLO ADULTOSIN     1
CC0000032700172A202100000027614900000027614924/10/20210859    3190333624042196419000043879100001138200000000000000                                                                  HOJA BISTURI # 15 CSSB 15 01002003SOB     1
CC0000032700172A202100000027614900000027614924/10/20210859    3190333624042196419000019494500000458220000000000000                                                                                VICRYL RAPID INC 2-0SIN     1
CC0000032700172A202100000027614900000027614924/10/20210859    3190333624042196419000022425200000548240000000000000                       EXTENSION DE ANESTESIA REF 1139 SOB X 1 SHERLEG  ADULTO BN EXENTO-DC.417/2020SIN     1
CC0000032700172A202100000027614900000027614924/10/20210859    3190333624042196419000035356500003919000000000000000                                                                                        LLAVE 3 VIASSOB     1
CC0000032700172A202100000027614900000027614924/10/20210859    31903336240421964190000Q1AA7100000610620000000000000                                                            CATETER PERIFE INTROCAN # 18G 4251687-04SIN     1
CC0000032700172A202100000027614900000027614924/10/20210859    3190333624042196419000022426800001140510000000000000                                                                    EQUIPO MACROGOTEO BAXTER MRC0001SOB     1
CC0000032700172A202100000027614900000027614924/10/20210859    3190333624042196419000016830000000970620000000000000                                                             SIST FIJACION CAT PERIFERICO 6.5X7 1683SOB     1
CC0000032700172A202100000027614900000027614924/10/20210859    31903336240421964190000J01DA300001239950000000000000                                                            CEFAZOLINA SODICA POLVO LIOF SLN INY 1 GVAL     2
CC0000032700172A202100000027614900000027614924/10/20210859    3190333624042196419000011073300001096420000000000000                                                                BOLSA DE SUCCION DE FLUIDOS x 2500mLBOL     1
CC0000032700172A202100000027614900000027614924/10/20210859    3190333624042196419000020750600000296780000000000000                                                                PLACA ELECTRO RETORNO PACIENTE E7506SIN     1
CC0000032700172A202100000027614900000027614924/10/20210859    3190333624042196419000053074400000607910000000000000                                                               GASA ESTERIL 10*10 SOBRE X 3 UNIDADESSOB     4
CC0000032700172A202100000027614900000027614924/10/20210859    3190333624042196419000011085300001082140000000000000                                                                           GUANTE QUIRURGICO TALLA 8SOB     1
CC0000032700172A202100000027614900000027614924/10/20210859    3190333624042196419000011085200001585390000000000000                                                                       GUANTE QUIRURGICO TALLA 7 1/2SOB     2
CC0000032700172A202100000027614900000027614924/10/20210859    3190333624042196419000043485100001618510000000000000                GUANTE QUIRURGICO DE LATEX REF 2D72N65X CAJ X 50 PROTEXIS  6.5 BN EXENTO-DC.417/2020SOB     1
CC0000032700172A202100000027614900000027614924/10/20210859    3190333624042196419000038568100000258050000000000000                                                                         CANULA OXIGENO NASAL ADULTOSIN     1
CC0000032700172A202100000027614900000027614924/10/20210859    3190333624042196419000011099300000777780000000000000                                                                     FILTRO BACTERIANO VIRICO ADULTOBOL     1
CC0000032700172A202100000027614900000027614924/10/20210859    3190333624042196419000024674000000220660000000000000                             JERINGA A 3 PARTES CON AGUJA  SOB X 1 RYMCO  10ML BN EXENTO-DC.417/2020SIN     3
CC0000032700172A202100000027614900000027614924/10/20210859    3190333624042196419000024674500000322810000000000000                                                                   JERINGA DESECHABLE 20 ml 21*1 1/2SIN     1
CC0000032700172A202100000027614900000027614924/10/20210859    31903336240421964190000E1AD0200003888320000000000000                                                                              HARTMAN SLN INY 500 MLBOL     2
CC0000032700172A202100000027614900000027614924/10/20210859    31903336240421964190000E1AB0300003888390000000000000                                                            SOLUCION SALINA 0.9% SLN INY BO X 500 MLBOL     3
CC0000032700172A202100000027614900000027614924/10/20210859    31903336240421964190000N02B1100001169680000000000000                              PARACETAMOL 1000MG/100ML(10MG/ML) SOL INY  VIAL X 100ML FRESENIUS KABIVAL     1
CC0000032700172A202100000027614900000027614924/10/20210859    31903336240421964190000N01A0400003939010000000000000                                               MAYOPROFOL 200MG/20ML(1%) EMUL INY CAJ X 1VIAL X 20MLVAL     1
CC0000032700172A202100000027614900000027614924/10/20210859    31903336240421964190000A4AD0200000202990000000000000                                                                     PLITICAN HCL Sln Iny 50 mg/2 mlAMP     1
CC0000032700172A202100000027614900000027614924/10/20210859    31903336240421964190000H02AB500001664950000000000000                                                            DEXAMETASONA SLN INY 8 MG/2 ML AMP /CDS/AMP     1
CC0000032700172A202100000027614900000027614924/10/20210859    31903336240421964190000C01C0300001261020000000000000                                                               ETILEFRINA HCL SLN INY 10 MG/1 ML /R/AMP     1
CC0000032700172A202100000027614900000027614924/10/20210859    31903336240421964190000N1BA1400000220050000000000000                                                                 ROXICAINA 2% C/EPIN Sln Iny x 50 mlFCO     1
CC0000032700172A202100000027614900000027614924/10/20210859    31903336240421964190000N5CD0300000218170000000000000                                                                          DORMICUM Sln Iny 5 mg/5 mlAMP     1
CC0000032700172A202100000027614900000027614924/10/20210859    31903336240421964190000N2AA0700001587170000000000000                                                                                 ULTIVA Sln Iny 2 mgVAL     1
CC0000032700172A202100000027614900000027614924/10/20210859    31903336240421964190000N1AH0200003906560000000000000                                                                     FENTANIL Iny 0.05 mg/ml x 10 mlAMP     1
CC0000032700172A202100000027614900000027614924/10/20210859    31903336240421964190000N01B0200003888110000000000000                                           ROXICAINA SE 100MG/10ML(1%) SOL INY CAJ X 24AMPACK X 10MLAPC     1
