CC0000032605816H202100000554893100000554893124/10/20210012    31903303237421964250000E1AB0300003888390000000000000                                                            SOLUCION SALINA 0.9% SLN INY BO X 500 MLBOL     2
CC0000032605816H202100000554893100000554893124/10/20211606     3300009237421964250000A03BB100003889180000000000000                                      HIOSCINA BUTIL BROMURO 20MG/ML SOL INY CAJ X 100AMP X 1ML RYANAMP     1
CC0000032605816H202100000554893100000554893124/10/20210748     3300009237421964250000A03BB100003889180000000000000                                      HIOSCINA BUTIL BROMURO 20MG/ML SOL INY CAJ X 100AMP X 1ML RYANAMP     2
CC0000032605816H202100000554893100000554893124/10/20211607     3300009237421964250000J01DH500001414350000000000000                                                                ERTAPENEM POLVO LIOF SLN INY 1 G /R/VAL     2
CC0000032605816H202100000554893100000554893124/10/20210748     3300009237421964250000N2BB0100000787510000000000000                                                                    DIPIRONA SODICA Sln Iny 1 g/2 mlAMP     2
CC0000032605816H202100000554893100000554893124/10/20211607     3300009237421964250000P01AB400001278110000000000000                                                                             METRONIDAZOL TAB 500 MGTAB     1
CC0000032605816H202100000554893100000554893124/10/20210748     3300009237421964250000P01AB400001278110000000000000                                                                             METRONIDAZOL TAB 500 MGTAB     2
CC0000032605816H202100000554893100000554893124/10/20211435    31903254237421964250000V07A1300000502600000000000000                                                                                AGUA ESTERIL x 10 mlAMP     2
