CC0001129498209U202100000554894700000554894724/10/20211342     3300004239421964320000A03F0300001626860000000000000                                                                   METOCLOPRAMIDA SLN INY 10 MG/2 MLAMP     1
CC0001129498209U202100000554894700000554894724/10/20210713     3300004239421964320000A03F0300001626860000000000000                                                                   METOCLOPRAMIDA SLN INY 10 MG/2 MLAMP     1
CC0001129498209U202100000554894700000554894724/10/20210347     3300004239421964320000A03F0300001626860000000000000                                                                   METOCLOPRAMIDA SLN INY 10 MG/2 MLAMP     1
CC0001129498209U202100000554894700000554894724/10/20210713     3300004239421964320000B1AB0200003939510000000000000                 ENOXAPARINA SODICA 40MG/0.4ML(100MG/ML) SOL INY INST CAJ X 2JERPREL X 0.4ML TECHDOWJRP     1
CC0001129498209U202100000554894700000554894724/10/20211046     3300004239421964320000B1AB0100001227270000000000000                                             HEPAMAX 25000UI/5ML(5000UI/ML) SOL INY  CAJ X 25AMPX5MLAMP     1
CC0001129498209U202100000554894700000554894724/10/20211126    31500547239421964320000E1AD0300000199490000000000000                                         LACTATO RINGER USP (HARTMANN)  SOL INY  BOL X 1000ML BAXTERBIN     1
CC0001129498209U202100000554894700000554894724/10/20210710    31500177239421964320000E1AD0300000199490000000000000                                         LACTATO RINGER USP (HARTMANN)  SOL INY  BOL X 1000ML BAXTERBIN     1
CC0001129498209U202100000554894700000554894724/10/20210506    31500218239421964320000E1AD0300000199490000000000000                                         LACTATO RINGER USP (HARTMANN)  SOL INY  BOL X 1000ML BAXTERBIN     1
CC0001129498209U202100000554894700000554894724/10/20211046     3300004239421964320000A12BA100000552980000000000000                                                            CLORURO POTASIO Sln Iny AMP 20 MEQ/10 MLAMP     1
CC0001129498209U202100000554894700000554894724/10/20210855     3300004239421964320000C01DA100000176460000000000000                                                            NITROGLICERINA EN DEXTROSA VIAL X 250 MLFCO     1
CC0001129498209U202100000554894700000554894724/10/20211025     3300004239421964320000J3CB2100000547740000000000000                                                                      CIPRO IV SLN INY 400 Mg/200 MLFCO     1
CC0001129498209U202100000554894700000554894724/10/20210712     3300004239421964320000J3CB2100000547740000000000000                                                                      CIPRO IV SLN INY 400 Mg/200 MLFCO     1
CC0001129498209U202100000554894700000554894724/10/20210340     3300004239421964320000N2AA0100000301640000000000000                                                                            MORFINA Sln Iny 10 mg/mlAMP     1
CC0001129498209U202100000554894700000554894724/10/20211127     3300004239421964320000A02B0800001276960000000000000                                                                                 OMEPRAZOL CAP 20 MGCAP     1
CC0001129498209U202100000554894700000554894724/10/20211046     3300004239421964320000C02AC200001559150000000000000                                                                              CLONIDINA TAB 0.150 MGTAB     1
CC0001129498209U202100000554894700000554894724/10/20210340     3300004239421964320000C02AC200001559150000000000000                                                                              CLONIDINA TAB 0.150 MGTAB     1
CC0001129498209U202100000554894700000554894724/10/20211046     3300004239421964320000C02C0100001316210000000000000                                                                                     PRATEN TAB 1 MGTAB     1
CC0001129498209U202100000554894700000554894724/10/20211046     3300004239421964320000C08CA300001313930000000000000                                                                                AMLODIPINO TAB 10 MGTAB     1
CC0001129498209U202100000554894700000554894724/10/20210231     3300004239421964320000A03DH100001684240000000000000                                                            B HIOSCINA 20MG/DIPIRON 2.5G SLN INY 5MLAMP     1
CC0001129498209U202100000554894700000554894724/10/20210231     3300004239421964320000A02BC700001684270000000000000                                                            OMEPRAZOL 40MG POLVO LIOFILIZADO AMPOLLAVAL     1
