RC0001158467183H202100000554893800000554893824/10/20211015    31903307237421964250000E1AB1100003888280000000000000                                                                        SOLUCION SALINA 0.9% X 50 mlBOL     2
RC0001158467183H202100000554893800000554893824/10/20211015    31903307237421964250000E1AD0300000199490000000000000                                         LACTATO RINGER USP (HARTMANN)  SOL INY  BOL X 1000ML BAXTERBIN     3
RC0001158467183H202100000554893800000554893824/10/20210034     3300010237421964250000A06A1700001333140000000000000                                                                                 BISACODILO TAB 5 MGTAB     1
RC0001158467183H202100000554893800000554893824/10/20211822     3300009237421964250000B02BA100000561560000000000000                                                                           VITAMINA K1 SLN INY 10 MGAMP     2
RC0001158467183H202100000554893800000554893824/10/20211023     3300009237421964250000B02BA100000561560000000000000                                                                           VITAMINA K1 SLN INY 10 MGAMP     2
RC0001158467183H202100000554893800000554893824/10/20210622     3300010237421964250000J01DD500001239970000000000000                                                                  CEFTRIAXONA POLVO LIOF SLN INY 1 GVAL     1
RC0001158467183H202100000554893800000554893824/10/20211023     3300009237421964250000A02BC700001684270000000000000                                                            OMEPRAZOL 40MG POLVO LIOFILIZADO AMPOLLAVAL     1
