RC0001047059832U202100050131351000050131351024/10/20211350    3190271223942196432000011048600000223020000000000000                                                                 JERINGA VACUNACION 3ML C/AGU 302542SIN     1
CC0000032632681U202100050131351000050131351024/10/20211350    3190271223942196432000024674000000220660000000000000                             JERINGA A 3 PARTES CON AGUJA  SOB X 1 RYMCO  10ML BN EXENTO-DC.417/2020SIN     1
RC0001047059832U202100050131351000050131351024/10/20211350    3190271223942196432000024674000000220660000000000000                             JERINGA A 3 PARTES CON AGUJA  SOB X 1 RYMCO  10ML BN EXENTO-DC.417/2020SIN     1
CC0000032632681U202100050131351000050131351024/10/20211350    3190271223942196432000011082700001620070000000000000                                                               EQUIPO SET PRIMARIO C/CLAVE REF 14001BOL     1
CC0000032632681U202100050131351000050131351024/10/20211350    3190271223942196432000001956000001620610000000000000                                                                      CONECTOR MICRO CLAVE LAT-MC100SOB     1
CC0000032632681U202100050131351000050131351024/10/20211350    31902712239421964320000Q1AA7100000610620000000000000                                                            CATETER PERIFE INTROCAN # 18G 4251687-04SIN     1
CC0000032632681U202100050131351000050131351024/10/20211350    3190271223942196432000030936900001431840000000000000                                                                                              BURETABOL     1
CC0000032632681U202100050131351000050131351024/10/20211350    3190271223942196432000016830000000970620000000000000                                                             SIST FIJACION CAT PERIFERICO 6.5X7 1683SOB     1
CC0000032632681U202100050131351000050131351024/10/20211350    31902712239421964320000E1AB0500003888400000000000000                                                              SOLUCION SALINA 0.9% SLN INY X 1000 MLBOL     1
