CC0000008633435H202100000554893400000554893424/10/20210502     3300010237421964250000A2BC0900000200150000000000000                                                                               ORAZOLE Sln Iny 40 mgCIN     1
CC0000008633435H202100000554893400000554893424/10/20211537     3300009237421964250000A02AH100001003120000000000000                                                                         GAVISCON SUSP ORAL X 300 MLFCO     1
CC0000008633435H202100000554893400000554893424/10/20211951    31500367237421964250000E1AB0300003888390000000000000                                                            SOLUCION SALINA 0.9% SLN INY BO X 500 MLBOL     2
CC0000008633435H202100000554893400000554893424/10/20211411     3300009237421964250000J1DA3100000187510000000000000                                                                           ROCEFIN Polvo SLN INY 1 GCIN     1
CC0000008633435H202100000554893400000554893424/10/20210502     3300010237421964250000J1DA3100000187510000000000000                                                                           ROCEFIN Polvo SLN INY 1 GCIN     1
CC0000008633435H202100000554893400000554893424/10/20211411     3300009237421964250000N2BB1100000217160000000000000                                                                      NOVALGINA Sln Iny 2.5 g x 5 mlAMP     1
CC0000008633435H202100000554893400000554893424/10/20210502     3300010237421964250000N2BB1100000217160000000000000                                                                      NOVALGINA Sln Iny 2.5 g x 5 mlAMP     1
CC0000008633435H202100000554893400000554893424/10/20211411     3300009237421964250000N02B1100001169680000000000000                              PARACETAMOL 1000MG/100ML(10MG/ML) SOL INY  VIAL X 100ML FRESENIUS KABIVAL     1
CC0000008633435H202100000554893400000554893424/10/20210502     3300010237421964250000N02B1100001169680000000000000                              PARACETAMOL 1000MG/100ML(10MG/ML) SOL INY  VIAL X 100ML FRESENIUS KABIVAL     2
CC0000008633435H202100000554893400000554893424/10/20212324     3300009237421964250000N05A0500001336370000000000000                                                                              SEROQUEL TAB 25 MG /R/TAB     1
CC0000008633435H202100000554893400000554893424/10/20210026     3300010237421964250000N05A0500001336370000000000000                                                                              SEROQUEL TAB 25 MG /R/TAB     1
CC0000008633435H202100000554893400000554893424/10/20211041    31903291237421964250000V07A1300000502600000000000000                                                                                AGUA ESTERIL x 10 mlAMP     5
