CC0000073141990A202100000027622300000027622324/10/20210913    3190333624042196419000049059800000267410000000000000                                                                 MEDIA ANTIEMBOLICA TAL L 3634LF PARBOL     1
CC0000073141990A202100000027622300000027622324/10/20210913    31903336240421964190000B02AA100001407470000000000000                                                                    CLINTRANEX SLN INY 500 MG / 5 MLAMP     2
CC0000073141990A202100000027622300000027622324/10/20210913    31903336240421964190000M1AB0900001019600000000000000                                                                              VOLTAREN Sln Iny 75 mgAMP     1
CC0000073141990A202100000027622300000027622324/10/20210913    31903336240421964190000N2AX0500001204110000000000000                                                                          TRAMAL SLN INY 100 MG / MLAMP     1
CC0000073141990A202100000027622300000027622324/10/20210913    31903336240421964190000N1AX0100003889000000000000000                                                                       KETAMINA Iny 50 mg/ml x 10 mlVAL     1
CC0000073141990A202100000027622300000027622324/10/20210913    3190333624042196419000000016500000223580000000000000                                                                    STERI-STRIP 12 X 100 REF 1547 3MSIN     1
CC0000073141990A202100000027622300000027622324/10/20210913    3190333624042196419000000501000000526920000000000000                                                                   POLYSORB 2/0 GU46 REF UL878  TYCOSIN     1
CC0000073141990A202100000027622300000027622324/10/20210913    3190333624042196419000000500600000526900000000000000                                                                          BIOSYN 4/0 P-12 REF SM5627SIN     1
CC0000073141990A202100000027622300000027622324/10/20210913    3190333624042196419000045303900000232380000000000000                                                                   LIGACLIP MED/LARG LT300 VERDE X 6SIN     2
CC0000073141990A202100000027622300000027622324/10/20210913    3190333624042196419000011082600000265810000000000000                                                              EQUIPO IRRIGACION URINARIA REF MRC4002SOB     1
CC0000073141990A202100000027622300000027622324/10/20210913    3190333624042196419000045138000001413890000000000000                                                                       LAPIZ ELECTROBISTURI  SOB X 1SOB     1
CC0000073141990A202100000027622300000027622324/10/20210913    31903336240421964190000N1BA0300000217900000000000000                                                                    BUPIROP 0.5% C/E Sln Iny x 20 mlVAL     1
CC0000073141990A202100000027622300000027622324/10/20210913    3190333624042196419000013077800000471960000000000000                                                             GASA NO TEJIDA EST 7.5 X 7.5 SOB X 3 UNSOB     1
CC0000073141990A202100000027622300000027622324/10/20210913    3190333624042196419000030161400001459220000000000000                                                                       MANGUERA SUCCION 6 MM*3.1 MTSSOB     1
CC0000073141990A202100000027622300000027622324/10/20210913    3190333624042196419000043879200001138180000000000000                                                                                   HOJA BISTURI # 11SOB     1
CC0000073141990A202100000027622300000027622324/10/20210913    31903336240421964190000E1AB0300003888390000000000000                                                            SOLUCION SALINA 0.9% SLN INY BO X 500 MLBOL     1
CC0000073141990A202100000027622300000027622324/10/20210913    3190333624042196419000022425200000548240000000000000                       EXTENSION DE ANESTESIA REF 1139 SOB X 1 SHERLEG  ADULTO BN EXENTO-DC.417/2020SIN     1
CC0000073141990A202100000027622300000027622324/10/20210913    3190333624042196419000035356500003919000000000000000                                                                                        LLAVE 3 VIASSOB     2
CC0000073141990A202100000027622300000027622324/10/20210913    31903336240421964190000Q1AA7100000610620000000000000                                                            CATETER PERIFE INTROCAN # 18G 4251687-04SIN     1
CC0000073141990A202100000027622300000027622324/10/20210913    3190333624042196419000022426800001140510000000000000                                                                    EQUIPO MACROGOTEO BAXTER MRC0001SOB     1
CC0000073141990A202100000027622300000027622324/10/20210913    3190333624042196419000016830000000970620000000000000                                                             SIST FIJACION CAT PERIFERICO 6.5X7 1683SOB     1
CC0000073141990A202100000027622300000027622324/10/20210913    3190333624042196419000020750600000296780000000000000                                                                PLACA ELECTRO RETORNO PACIENTE E7506SIN     1
CC0000073141990A202100000027622300000027622324/10/20210913    3190333624042196419000053074400000607910000000000000                                                               GASA ESTERIL 10*10 SOBRE X 3 UNIDADESSOB     2
CC0000073141990A202100000027622300000027622324/10/20210913    3190333624042196419000011085300001082140000000000000                                                                           GUANTE QUIRURGICO TALLA 8SOB     2
CC0000073141990A202100000027622300000027622324/10/20210913    3190333624042196419000011085200001585390000000000000                                                                       GUANTE QUIRURGICO TALLA 7 1/2SOB     1
CC0000073141990A202100000027622300000027622324/10/20210913    3190333624042196419000043485100001618510000000000000                GUANTE QUIRURGICO DE LATEX REF 2D72N65X CAJ X 50 PROTEXIS  6.5 BN EXENTO-DC.417/2020SOB     2
CC0000073141990A202100000027622300000027622324/10/20210913    3190333624042196419000051515500000598160000000000000                                                                            MASCARILLA ANESTESIA # 5SIN     1
CC0000073141990A202100000027622300000027622324/10/20210913    3190333624042196419000038568100000258050000000000000                                                                         CANULA OXIGENO NASAL ADULTOSIN     1
CC0000073141990A202100000027622300000027622324/10/20210913    3190333624042196419000011099300000777780000000000000                                                                     FILTRO BACTERIANO VIRICO ADULTOBOL     1
CC0000073141990A202100000027622300000027622324/10/20210913    3190333624042196419000001200400000530690000000000000                                                                          CANULA DE MAYO # 5 (100MM)SIN     1
CC0000073141990A202100000027622300000027622324/10/20210913    3190333624042196419000020058100001101630000000000000                                                                     AGUJA HIPODERMICA DESECH 23 X 1SOB     1
CC0000073141990A202100000027622300000027622324/10/20210913    3190333624042196419000038569400000256750000000000000                                                                        SONDA ASPIRACION CONTROL #14SIN     1
CC0000073141990A202100000027622300000027622324/10/20210913    3190333624042196419000039175200001072070000000000000                                                                           TUBO ENDOTRAQUEAL C/B 8.0SOB     1
CC0000073141990A202100000027622300000027622324/10/20210913    3190333624042196419000024673000001411210000000000000                                                                  JERINGA DESECHABLE 3 ML 21 X 1 1/2SOB     1
CC0000073141990A202100000027622300000027622324/10/20210913    3190333624042196419000024674000000220660000000000000                             JERINGA A 3 PARTES CON AGUJA  SOB X 1 RYMCO  10ML BN EXENTO-DC.417/2020SIN     3
CC0000073141990A202100000027622300000027622324/10/20210913    3190333624042196419000024674500000322810000000000000                                                                   JERINGA DESECHABLE 20 ml 21*1 1/2SIN     2
CC0000073141990A202100000027622300000027622324/10/20210913    31903336240421964190000E1AD0200003888320000000000000                                                                              HARTMAN SLN INY 500 MLBOL     1
CC0000073141990A202100000027622300000027622324/10/20210913    31903336240421964190000E1AB0500003888400000000000000                                                              SOLUCION SALINA 0.9% SLN INY X 1000 MLBOL     1
CC0000073141990A202100000027622300000027622324/10/20210913    31903336240421964190000E1AB0700003888350000000000000                                                            SOLUCION SALINA 0.9% SLN INY BO X 250 MLBOL     1
CC0000073141990A202100000027622300000027622324/10/20210913    31903336240421964190000A04A1400001467560000000000000                                                                      ONDANSETRON SLN INY 8 MG/ 4 MLVAL     1
CC0000073141990A202100000027622300000027622324/10/20210913    31903336240421964190000N02B1100001169680000000000000                              PARACETAMOL 1000MG/100ML(10MG/ML) SOL INY  VIAL X 100ML FRESENIUS KABIVAL     1
CC0000073141990A202100000027622300000027622324/10/20210913    31903336240421964190000A2BC0900000200150000000000000                                                                               ORAZOLE Sln Iny 40 mgCIN     1
CC0000073141990A202100000027622300000027622324/10/20210913    31903336240421964190000N01A0400003939010000000000000                                               MAYOPROFOL 200MG/20ML(1%) EMUL INY CAJ X 1VIAL X 20MLVAL     1
CC0000073141990A202100000027622300000027622324/10/20210913    31903336240421964190000A03F0300001626860000000000000                                                                   METOCLOPRAMIDA SLN INY 10 MG/2 MLAMP     1
CC0000073141990A202100000027622300000027622324/10/20210913    31903336240421964190000N2BB1100000217160000000000000                                                                      NOVALGINA Sln Iny 2.5 g x 5 mlAMP     1
CC0000073141990A202100000027622300000027622324/10/20210913    31903336240421964190000H02AB500001664950000000000000                                                            DEXAMETASONA SLN INY 8 MG/2 ML AMP /CDS/AMP     1
CC0000073141990A202100000027622300000027622324/10/20210913    31903336240421964190000N1BA1400000220050000000000000                                                                 ROXICAINA 2% C/EPIN Sln Iny x 50 mlFCO     1
CC0000073141990A202100000027622300000027622324/10/20210913    31903336240421964190000N01B0600003888900000000000000                                                    BUPINEST 75MG/10ML(0.75%) SOL INY CAJ X 24AMPACKAPC     1
CC0000073141990A202100000027622300000027622324/10/20210913    31903336240421964190000M3AC0600000720540000000000000                                                                         ESMERON SLN INY 50 MG /5 MLVAL     1
CC0000073141990A202100000027622300000027622324/10/20210913    31903336240421964190000N2AA0100000301640000000000000                                                                            MORFINA Sln Iny 10 mg/mlAMP     1
CC0000073141990A202100000027622300000027622324/10/20210913    31903336240421964190000N2AA0700001587170000000000000                                                                                 ULTIVA Sln Iny 2 mgVAL     1
