CC0001022364779U202100050131350400050131350424/10/20211151    3190271223942196432000024674000000220660000000000000                             JERINGA A 3 PARTES CON AGUJA  SOB X 1 RYMCO  10ML BN EXENTO-DC.417/2020SIN     1
CC0001022364779U202100050131350400050131350424/10/20211151    3190271223942196432000024673600000222980000000000000                                                                     JERINGA DESECHABLE 5 ml 27*11/2SIN     1
CC0001022364779U202100050131350400050131350424/10/20211151    3190271223942196432000013077800000471960000000000000                                                             GASA NO TEJIDA EST 7.5 X 7.5 SOB X 3 UNSOB     5
CC0001022364779U202100050131350400050131350424/10/20211151    3190271223942196432000042753000003929870000000000000                    GASA ADHESIVA STRETCH REF 02036-00 ROL X 10MT FIXOMULL 5CM BN EXENTO-DC.417/2020CMT    30
CC0001022364779U202100050131350400050131350424/10/20211151    31902712239421964320000E1AB0200000199290000000000000                                                            SOLUCION SALINA 0.9% SLN INY BO X 100 MLBIN     1
