CC0000007454802H202100015112640900015112640924/10/20211054    3190099923742196425000001956000001620610000000000000                                                                      CONECTOR MICRO CLAVE LAT-MC100SOB     1
CC0000007454802H202100015112640900015112640924/10/20211054    31900999237421964250000Q1AA7200000610630000000000000                                                            CATETER PERIFE INTROCAN # 20G 4251644-04SIN     1
CC0000007454802H202100015112640900015112640924/10/20211054    3190099923742196425000016830000000970620000000000000                                                             SIST FIJACION CAT PERIFERICO 6.5X7 1683SOB     1
CC0000022467890H202100015112640900015112640924/10/20211054    3190099923742196425000011127400001413910000000000000                                                            EQUIPO ADMINIST NUTR PUNZON REF 674669 BBOL     2
CC0000072428894H202100015112640900015112640924/10/20211054    3190099923742196425000011127400001413910000000000000                                                            EQUIPO ADMINIST NUTR PUNZON REF 674669 BBOL     2
