CC0000009654659H202100015112641100015112641124/10/20211140    3190270323742196425000019487500000602970000000000000                                                                           VICRYL 2-0 CT1 90 VCP345HSIN     1
CC0000009654659H202100015112641100015112641124/10/20211140    3190270323742196425000013077800000471960000000000000                                                             GASA NO TEJIDA EST 7.5 X 7.5 SOB X 3 UNSOB    20
CC0000009654659H202100015112641100015112641124/10/20211140    3190270323742196425000044370800000224140000000000000                                                                                IOBAN 2 90 X 45 6650SIN     1
