CC0000008671780H202100015012562600015012562624/10/20210826    3190117723742196425000001956000001620610000000000000                                                                      CONECTOR MICRO CLAVE LAT-MC100SOB     1
CC0000008671780H202100015012562600015012562624/10/20210826    31901177237421964250000Q1AA7100000610620000000000000                                                            CATETER PERIFE INTROCAN # 18G 4251687-04SIN     1
CC0000008671780H202100015012562600015012562624/10/20210826    3190117723742196425000016830000000970620000000000000                                                             SIST FIJACION CAT PERIFERICO 6.5X7 1683SOB     1
