CC0000064541334H202100000554897900000554897924/10/20210516     3300010237421964250000A02BC100001677520000000000000                                                                ESOMEPRAZOL POLVO LIOF INY 40 MG /R/VAL     1
CC0000064541334H202100000554897900000554897924/10/20211432     3300009237421964250000A4AD0200000202990000000000000                                                                     PLITICAN HCL Sln Iny 50 mg/2 mlAMP     2
CC0000064541334H202100000554897900000554897924/10/20210516     3300010237421964250000A4AD0200000202990000000000000                                                                     PLITICAN HCL Sln Iny 50 mg/2 mlAMP     2
CC0000064541334H202100000554897900000554897924/10/20211126     3300009237421964250000A04A1400001467560000000000000                                                                      ONDANSETRON SLN INY 8 MG/ 4 MLVAL     1
CC0000064541334H202100000554897900000554897924/10/20212329     3300009237421964250000B1AB0200003939510000000000000                 ENOXAPARINA SODICA 40MG/0.4ML(100MG/ML) SOL INY INST CAJ X 2JERPREL X 0.4ML TECHDOWJRP     1
CC0000064541334H202100000554897900000554897924/10/20211952    31500367237421964250000E1AD0200003888320000000000000                                                                              HARTMAN SLN INY 500 MLBOL     2
CC0000064541334H202100000554897900000554897924/10/20211848    31901156237421964250000E1AD0300000199490000000000000                                         LACTATO RINGER USP (HARTMANN)  SOL INY  BOL X 1000ML BAXTERBIN     1
CC0000064541334H202100000554897900000554897924/10/20210516     3300010237421964250000C3AA0100001315100000000000000                                                                         HIDROCLOROTIAZIDA TAB 25 MGTAB     1
CC0000064541334H202100000554897900000554897924/10/20210516     3300010237421964250000C2DE1400001277050000000000000                                                                         NIFEDIPINO CAPSULA LM 30 MGCAP     1
CC0000064541334H202100000554897900000554897924/10/20211432     3300009237421964250000N2BB0500000217140000000000000                                                                          NOVALGINA Sln Iny 1 g/2 mlAMP     1
CC0000064541334H202100000554897900000554897924/10/20210516     3300010237421964250000N2BB0500000217140000000000000                                                                          NOVALGINA Sln Iny 1 g/2 mlAMP     2
CC0000064541334H202100000554897900000554897924/10/20210516     3300010237421964250000N03A0800001278440000000000000                                                                                LYRICA CAP 75 MG /R/CAP     1
CC0000064541334H202100000554897900000554897924/10/20211042    31903291237421964250000V07A1300000502600000000000000                                                                                AGUA ESTERIL x 10 mlAMP     5
CC0000064541334H202100000554897900000554897924/10/20212329     3300009237421964250000A04AA200003932460000000000000                                                 ONDAX 4MG/2ML(2MG/ML) SOL INY INST CAJ X 1AMP X 2MLAMP     2
