CC0000008509195H202100000554902200000554902224/10/20210722     3300009237421964250000N02B0400001430070000000000000                                                                      ZALDIAR TAB 325 MG/37.5 MG /R/TAB     2
CC0000008509195H202100000554902200000554902224/10/20210722     3300009237421964250000N02B1100001169680000000000000                              PARACETAMOL 1000MG/100ML(10MG/ML) SOL INY  VIAL X 100ML FRESENIUS KABIVAL     1
CC0000008509195H202100000554902200000554902224/10/20210722     3300009237421964250000N03A1500001316220000000000000                                                                               LYRICA CAP 150 MG /R/CAP     2
CC0000008509195H202100000554902200000554902224/10/20211434    31903254237421964250000V07A1300000502600000000000000                                                                                AGUA ESTERIL x 10 mlAMP     2
