CC0001140828821U202100000554893900000554893924/10/20210051     3300004239421964320000B1AB0900003939260000000000000                 ENOXAPARINA SODICA 60MG/0.6ML(100MG/ML) SOL INY INST CAJ X 2JERPREL X 0.6ML TECHDOWJRP     1
CC0001140828821U202100000554893900000554893924/10/20210051     3300004239421964320000J3BA0500001278190000000000000                                                                            BACTRIM F TAB 800/160 MGTAB     1
CC0001140828821U202100000554893900000554893924/10/20210051     3300004239421964320000J2AX0200001333950000000000000                                                                                 DIFLUCAN Cap 200 mgCAP     1
