CC0000022328269H202100015112641000015112641024/10/20211117    3150035023742196425000038569400000256750000000000000                                                                        SONDA ASPIRACION CONTROL #14SIN    10
CC0000032678618H202100015112641000015112641024/10/20211117    3150035023742196425000038569400000256750000000000000                                                                        SONDA ASPIRACION CONTROL #14SIN    10
CC0000022328269H202100015112641000015112641024/10/20211117    3150035023742196425000036441300000236540000000000000                                                                    JERINGA 1 ML GASES ARTERIAL 9023SIN     2
CC0000032678618H202100015112641000015112641024/10/20211117    3150035023742196425000011085100001082120000000000000                                                                           GUANTE QUIRURGICO TALLA 7SOB    10
CC0000032678618H202100015112641000015112641024/10/20211117    3150035023742196425000013077800000471960000000000000                                                             GASA NO TEJIDA EST 7.5 X 7.5 SOB X 3 UNSOB    10
CC0000022328269H202100015112641000015112641024/10/20211117    31500350237421964250000E1AB0200000199290000000000000                                                            SOLUCION SALINA 0.9% SLN INY BO X 100 MLBIN     2
CC0000032678618H202100015112641000015112641024/10/20211117    31500350237421964250000E1AB0200000199290000000000000                                                            SOLUCION SALINA 0.9% SLN INY BO X 100 MLBIN     2
