CC0000012549690H202100015052691900015052691924/10/20212030    3190296323742196425000049428300000860750000000000000                                                                       VENDA ELASTICA 4*5 NO ESTERILBOL     2
RC0001043612021H202100015052691900015052691924/10/20212030    3190296323742196425000013077800000471960000000000000                                                             GASA NO TEJIDA EST 7.5 X 7.5 SOB X 3 UNSOB     4
CC0001129508481H202100015052691900015052691924/10/20212030    3190296323742196425000013077800000471960000000000000                                                             GASA NO TEJIDA EST 7.5 X 7.5 SOB X 3 UNSOB     5
CC0001051418436H202100015052691900015052691924/10/20212030    3190296323742196425000013077800000471960000000000000                                                             GASA NO TEJIDA EST 7.5 X 7.5 SOB X 3 UNSOB     6
CC0000032768038H202100015052691900015052691924/10/20212030    3190296323742196425000013077800000471960000000000000                                                             GASA NO TEJIDA EST 7.5 X 7.5 SOB X 3 UNSOB     6
CC0001143227023H202100015052691900015052691924/10/20212030    3190296323742196425000013077800000471960000000000000                                                             GASA NO TEJIDA EST 7.5 X 7.5 SOB X 3 UNSOB     6
CC0000012549690H202100015052691900015052691924/10/20212030    3190296323742196425000013077800000471960000000000000                                                             GASA NO TEJIDA EST 7.5 X 7.5 SOB X 3 UNSOB     8
RC0001043612021H202100015052691900015052691924/10/20212030    3190296323742196425000042743200003929860000000000000                   GASA ADHESIVA STRETCH REF 02038-00 ROL X 10MT FIXOMULL 15CM BN EXENTO-DC.417/2020CMT    20
CC0001129508481H202100015052691900015052691924/10/20212030    3190296323742196425000042743200003929860000000000000                   GASA ADHESIVA STRETCH REF 02038-00 ROL X 10MT FIXOMULL 15CM BN EXENTO-DC.417/2020CMT    20
CC0001051418436H202100015052691900015052691924/10/20212030    3190296323742196425000042743200003929860000000000000                   GASA ADHESIVA STRETCH REF 02038-00 ROL X 10MT FIXOMULL 15CM BN EXENTO-DC.417/2020CMT    20
CC0000032768038H202100015052691900015052691924/10/20212030    3190296323742196425000042743200003929860000000000000                   GASA ADHESIVA STRETCH REF 02038-00 ROL X 10MT FIXOMULL 15CM BN EXENTO-DC.417/2020CMT    20
CC0001143227023H202100015052691900015052691924/10/20212030    3190296323742196425000042743200003929860000000000000                   GASA ADHESIVA STRETCH REF 02038-00 ROL X 10MT FIXOMULL 15CM BN EXENTO-DC.417/2020CMT    20
CC0000012549690H202100015052691900015052691924/10/20212030    3190296323742196425000042743200003929860000000000000                   GASA ADHESIVA STRETCH REF 02038-00 ROL X 10MT FIXOMULL 15CM BN EXENTO-DC.417/2020CMT    20
