CC0000022467890H202100015112640500015112640524/10/20210837    31900999237421964250000V07A1300000502600000000000000                                                                                AGUA ESTERIL x 10 mlAMP    10
CC0000072428894H202100015112640500015112640524/10/20210837    31900999237421964250000V07A1300000502600000000000000                                                                                AGUA ESTERIL x 10 mlAMP    10
CC0001045684571H202100015112640500015112640524/10/20210837    3190099923742196425000018351500000232840000000000000                                                                                    SEDA 2-0 KS 623HSIN     1
CC0000022467890H202100015112640500015112640524/10/20210837    3190099923742196425000045136100001419300000000000000                                                                            LANCETA DEXTROMETER X UNPZA     3
CC0000072428894H202100015112640500015112640524/10/20210837    3190099923742196425000045136100001419300000000000000                                                                            LANCETA DEXTROMETER X UNPZA     3
CC0000022467890H202100015112640500015112640524/10/20210837    3190099923742196425000024674000000220660000000000000                             JERINGA A 3 PARTES CON AGUJA  SOB X 1 RYMCO  10ML BN EXENTO-DC.417/2020SIN    10
CC0000072428894H202100015112640500015112640524/10/20210837    3190099923742196425000024674000000220660000000000000                             JERINGA A 3 PARTES CON AGUJA  SOB X 1 RYMCO  10ML BN EXENTO-DC.417/2020SIN    10
CC0001045684571H202100015112640500015112640524/10/20210837    3190099923742196425000011088900001318270000000000000                                                               GUANTE CIRUGIA NITRILO ALFASAFE 7 1/2SOB     2
CC0001045684571H202100015112640500015112640524/10/20210837    3190099923742196425000011085100001082120000000000000                                                                           GUANTE QUIRURGICO TALLA 7SOB     2
CC0000022467890H202100015112640500015112640524/10/20210837    3190099923742196425000011082700001620070000000000000                                                               EQUIPO SET PRIMARIO C/CLAVE REF 14001BOL     1
CC0000022467890H202100015112640500015112640524/10/20210837    31900999237421964250000E1AD0300000199490000000000000                                         LACTATO RINGER USP (HARTMANN)  SOL INY  BOL X 1000ML BAXTERBIN     2
CC0000022467890H202100015112640500015112640524/10/20210837    31900999237421964250000E1AB0200000199290000000000000                                                            SOLUCION SALINA 0.9% SLN INY BO X 100 MLBIN     5
CC0000072428894H202100015112640500015112640524/10/20210837    31900999237421964250000E1AB0200000199290000000000000                                                            SOLUCION SALINA 0.9% SLN INY BO X 100 MLBIN     5
CC0000022467890H202100015112640500015112640524/10/20210837    3190099923742196425000011137100001419310000000000000                                                               TIRA GLUCOMETRIA FREESTYLE H OPTIUM .PZA     3
CC0000072428894H202100015112640500015112640524/10/20210837    3190099923742196425000011137100001419310000000000000                                                               TIRA GLUCOMETRIA FREESTYLE H OPTIUM .PZA     3
