RC0001046738060U202100000554906000000554906024/10/20210910     3300004239421964320000A2BC0900000200150000000000000                                                                               ORAZOLE Sln Iny 40 mgCIN     1
RC0001046738060U202100000554906000000554906024/10/20211458     3300004239421964320000A4AD0200000202990000000000000                                                                     PLITICAN HCL Sln Iny 50 mg/2 mlAMP     1
RC0001046738060U202100000554906000000554906024/10/20211358     3300004239421964320000A07C0400000953120000000000000                                                            ENTEROLYTE SUERO ORAL 75 MEQ X 400ML /R/FCO     1
RC0001046738060U202100000554906000000554906024/10/20211839    31500617239421964320000E1AD0200003888320000000000000                                                                              HARTMAN SLN INY 500 MLBOL     1
RC0001046738060U202100000554906000000554906024/10/20210947    31500246239421964320000E1AD0200003888320000000000000                                                                              HARTMAN SLN INY 500 MLBOL     1
