CC0000051622521H202100904588102400904588102424/10/20210027    3190310723742196425000016830000000970620000000000000                                                             SIST FIJACION CAT PERIFERICO 6.5X7 1683SOB     1
CC0000051622521H202100904588102400904588102424/10/20210027    31903107237421964250000Q1AA7300000610640000000000000                                                            CATETER PERIFE INTROCAN # 22G 4251628-04SIN     1
CC0000051622521H202100904588102400904588102424/10/20210027    3190310723742196425000001956000001620610000000000000                                                                      CONECTOR MICRO CLAVE LAT-MC100SOB     1
