CC0000022467890H202100000554900700000554900724/10/20210854     3300009237421964250000B1AB0200003939510000000000000                 ENOXAPARINA SODICA 40MG/0.4ML(100MG/ML) SOL INY INST CAJ X 2JERPREL X 0.4ML TECHDOWJRP     1
CC0000022467890H202100000554900700000554900724/10/20211051    31900999237421964250000E1AB0200000199290000000000000                                                            SOLUCION SALINA 0.9% SLN INY BO X 100 MLBIN     5
CC0000022467890H202100000554900700000554900724/10/20211051    31900999237421964250000E1AD0300000199490000000000000                                         LACTATO RINGER USP (HARTMANN)  SOL INY  BOL X 1000ML BAXTERBIN     2
CC0000022467890H202100000554900700000554900724/10/20210854     3300009237421964250000V6DF5300000302770000000000000                                                                        ENSURE PLUS HN LCP X 1000 MLFCO     2
CC0000022467890H202100000554900700000554900724/10/20211656     3300009237421964250000N1AH0200003906560000000000000                                                                     FENTANIL Iny 0.05 mg/ml x 10 mlAMP     6
CC0000022467890H202100000554900700000554900724/10/20210546     3300010237421964250000C03C0100001672000000000000000                                                                       FUROSEMIDA SLN INY 20 MG/2 MLAMP     2
CC0000022467890H202100000554900700000554900724/10/20210854     3300009237421964250000A02BC700001684270000000000000                                                            OMEPRAZOL 40MG POLVO LIOFILIZADO AMPOLLAVAL     1
CC0000022467890H202100000554900700000554900724/10/20211051    31900999237421964250000V07A1300000502600000000000000                                                                                AGUA ESTERIL x 10 mlAMP    10
