TI0001073826213H202100015122505400015122505424/10/20210921    3150002223742196425000038576500000256730000000000000                                                                        SONDA ASPIRACION CONTROL #10SIN     6
RC0001187466818H202100015122505400015122505424/10/20210921    3150002223742196425000038576500000256730000000000000                                                                        SONDA ASPIRACION CONTROL #10SIN     6
TI0001073826213H202100015122505400015122505424/10/20210921    3150002223742196425000036441300000236540000000000000                                                                    JERINGA 1 ML GASES ARTERIAL 9023SIN     5
RC0001187466818H202100015122505400015122505424/10/20210921    3150002223742196425000036441300000236540000000000000                                                                    JERINGA 1 ML GASES ARTERIAL 9023SIN     5
TI0001073826213H202100015122505400015122505424/10/20210921    3150002223742196425000024674000000220660000000000000                             JERINGA A 3 PARTES CON AGUJA  SOB X 1 RYMCO  10ML BN EXENTO-DC.417/2020SIN     2
RC0001187466818H202100015122505400015122505424/10/20210921    3150002223742196425000024674000000220660000000000000                             JERINGA A 3 PARTES CON AGUJA  SOB X 1 RYMCO  10ML BN EXENTO-DC.417/2020SIN     2
RC0001063188067H202100015122505400015122505424/10/20210921    3150002223742196425000043995200000229010000000000000                                                               HUMIDIFICADOR PARA OXIGENO REF. H001BBOL     1
RC0001063188067H202100015122505400015122505424/10/20210921    31500022237421964250000Q1A11800000258040000000000000                                                                         CANULA OXIGENO NASAL PEDIATSIN     1
