CC0000051550414H202100000554904700000554904724/10/20210820    31903310237421964250000A2BC0900000200150000000000000                                                                               ORAZOLE Sln Iny 40 mgCIN     1
CC0000051550414H202100000554904700000554904724/10/20210820    31903310237421964250000C3DA0500001278910000000000000                                                                               GLUCOPHAGE TAB 850 MGTAB     1
CC0000051550414H202100000554904700000554904724/10/20210820    31903310237421964250000N02B1100001169680000000000000                              PARACETAMOL 1000MG/100ML(10MG/ML) SOL INY  VIAL X 100ML FRESENIUS KABIVAL     3
CC0000051550414H202100000554904700000554904724/10/20210820    31903310237421964250000A3BB0300000512950000000000000                                                             BUSCAPINA COMP Sln Iny 20 mg+2.5 g/5 mlAMP     3
