CC0000044156443H202100015032574500015032574524/10/20211937    3150036723742196425000022426800001140510000000000000                                                                    EQUIPO MACROGOTEO BAXTER MRC0001SOB     1
CC0000064549516H202100015032574500015032574524/10/20211937    3150036723742196425000022426800001140510000000000000                                                                    EQUIPO MACROGOTEO BAXTER MRC0001SOB     1
CC0000051622521H202100015032574500015032574524/10/20211937    3150036723742196425000022426800001140510000000000000                                                                    EQUIPO MACROGOTEO BAXTER MRC0001SOB     1
CC0000032894571H202100015032574500015032574524/10/20211937    3150036723742196425000011082700001620070000000000000                                                               EQUIPO SET PRIMARIO C/CLAVE REF 14001BOL     1
CC0000073141990H202100015032574500015032574524/10/20211937    3150036723742196425000011082700001620070000000000000                                                               EQUIPO SET PRIMARIO C/CLAVE REF 14001BOL     1
CC0000064541334H202100015032574500015032574524/10/20211937    3150036723742196425000011082700001620070000000000000                                                               EQUIPO SET PRIMARIO C/CLAVE REF 14001BOL     1
CC0000044156443H202100015032574500015032574524/10/20211937    3150036723742196425000001956000001620610000000000000                                                                      CONECTOR MICRO CLAVE LAT-MC100SOB     1
CC0000044156443H202100015032574500015032574524/10/20211937    31500367237421964250000Q1AA7200000610630000000000000                                                            CATETER PERIFE INTROCAN # 20G 4251644-04SIN     1
CC0000032894571H202100015032574500015032574524/10/20211937    3150036723742196425000030936900001431840000000000000                                                                                              BURETABOL     1
CC0000073141990H202100015032574500015032574524/10/20211937    3150036723742196425000030936900001431840000000000000                                                                                              BURETABOL     1
CC0000064541334H202100015032574500015032574524/10/20211937    3150036723742196425000030936900001431840000000000000                                                                                              BURETABOL     1
CC0000044156443H202100015032574500015032574524/10/20211937    3150036723742196425000016830000000970620000000000000                                                             SIST FIJACION CAT PERIFERICO 6.5X7 1683SOB     1
RC0001043480324H202100015032574500015032574524/10/20211937    31500367237421964250000E1AD0200003888320000000000000                                                                              HARTMAN SLN INY 500 MLBOL     1
CC0000032894571H202100015032574500015032574524/10/20211937    31500367237421964250000E1AD0200003888320000000000000                                                                              HARTMAN SLN INY 500 MLBOL     2
CC0000073141990H202100015032574500015032574524/10/20211937    31500367237421964250000E1AD0200003888320000000000000                                                                              HARTMAN SLN INY 500 MLBOL     1
CC0000064541334H202100015032574500015032574524/10/20211937    31500367237421964250000E1AD0200003888320000000000000                                                                              HARTMAN SLN INY 500 MLBOL     2
CC0000008633435H202100015032574500015032574524/10/20211937    31500367237421964250000E1AB0300003888390000000000000                                                            SOLUCION SALINA 0.9% SLN INY BO X 500 MLBOL     2
CC0000044156443H202100015032574500015032574524/10/20211937    31500367237421964250000E1AB0300003888390000000000000                                                            SOLUCION SALINA 0.9% SLN INY BO X 500 MLBOL     1
RC0001044652829H202100015032574500015032574524/10/20211937    31500367237421964250000E1AB0300003888390000000000000                                                            SOLUCION SALINA 0.9% SLN INY BO X 500 MLBOL     1
CC0000064549516H202100015032574500015032574524/10/20211937    31500367237421964250000E1AB0300003888390000000000000                                                            SOLUCION SALINA 0.9% SLN INY BO X 500 MLBOL     1
CC0000051622521H202100015032574500015032574524/10/20211937    31500367237421964250000E1AB0300003888390000000000000                                                            SOLUCION SALINA 0.9% SLN INY BO X 500 MLBOL     1
CC0000073070310H202100015032574500015032574524/10/20211937    31500367237421964250000E1AB0300003888390000000000000                                                            SOLUCION SALINA 0.9% SLN INY BO X 500 MLBOL     1
