TI0001080436271H202100015122505500015122505524/10/20211349    3150045323742196425000011060400001010330000000000000                                                            SENSOR PULSOX SPO2 LNCS NEONATAL MP00792PZA     1
RC0001187466818H202100015122505500015122505524/10/20211349    3150045323742196425000011082700001620070000000000000                                                               EQUIPO SET PRIMARIO C/CLAVE REF 14001BOL     1
TI0001080436271H202100015122505500015122505524/10/20211349    3150045323742196425000011082700001620070000000000000                                                               EQUIPO SET PRIMARIO C/CLAVE REF 14001BOL     1
TI0001080436271H202100015122505500015122505524/10/20211349    3150045323742196425000011082200001407940000000000000                                                              EQUIPO EXT MICROTUBO Y 2 VALVUL 2N8371SOB     1
TI0001080436271H202100015122505500015122505524/10/20211349    3150045323742196425000030936900001431840000000000000                                                                                              BURETABOL     1
TI0001080436271H202100015122505500015122505524/10/20211349    31500453237421964250000E1AD0300000199490000000000000                                         LACTATO RINGER USP (HARTMANN)  SOL INY  BOL X 1000ML BAXTERBIN     5
