TI0001046715547U202100050131350300050131350324/10/20211145    3150061723942196432000024674000000220660000000000000                             JERINGA A 3 PARTES CON AGUJA  SOB X 1 RYMCO  10ML BN EXENTO-DC.417/2020SIN     1
TI0001046715547U202100050131350300050131350324/10/20211145    3150061723942196432000011082700001620070000000000000                                                               EQUIPO SET PRIMARIO C/CLAVE REF 14001BOL     1
TI0001046715547U202100050131350300050131350324/10/20211145    31500617239421964320000Q1AA7300000610640000000000000                                                            CATETER PERIFE INTROCAN # 22G 4251628-04SIN     1
TI0001046715547U202100050131350300050131350324/10/20211145    31500617239421964320000Q1AA7400003911720000000000000                                                            CATETER PERIFE INTROCAN # 24G 4251601-04SOB     1
TI0001046715547U202100050131350300050131350324/10/20211145    3150061723942196432000030936900001431840000000000000                                                                                              BURETABOL     1
TI0001046715547U202100050131350300050131350324/10/20211145    3150061723942196432000000602600001259280000000000000                                                             APOSITO TEGADERM IV PD 1610 5CM X 5.7CMSOB     1
TI0001046715547U202100050131350300050131350324/10/20211145    31500617239421964320000E1AD0300000199490000000000000                                         LACTATO RINGER USP (HARTMANN)  SOL INY  BOL X 1000ML BAXTERBIN     1
