CC0000032768038H202100000554903700000554903724/10/20212357    31903184237421964250000E1AA0100003888590000000000000                                                                        DEXTROSA 5% Sln Iny X 500 mlBOL     1
CC0000032768038H202100000554903700000554903724/10/20210739     3300009237421964250000N5BB0800001334610000000000000                                                                                 HIDERAX S TAB 50 MGTAB     1
CC0000032768038H202100000554903700000554903724/10/20211617     3300009237421964250000N2AA0200000301600000000000000                                                                        HIDROMORFONA Sln Iny 2 mg/mlAMP     2
CC0000032768038H202100000554903700000554903724/10/20211617     3300009237421964250000A03BB100003889180000000000000                                      HIOSCINA BUTIL BROMURO 20MG/ML SOL INY CAJ X 100AMP X 1ML RYANAMP     1
CC0000032768038H202100000554903700000554903724/10/20210738     3300009237421964250000A03BB100003889180000000000000                                      HIOSCINA BUTIL BROMURO 20MG/ML SOL INY CAJ X 100AMP X 1ML RYANAMP     2
CC0000032768038H202100000554903700000554903724/10/20210738     3300009237421964250000B01AB200000513350000000000000                                                                        CLENOX SLN INY 40 MG/ 0.4 MLJRP     2
CC0000032768038H202100000554903700000554903724/10/20210738     3300009237421964250000N2BE2200001252930000000000000                                                                             ACETAMINOFEN Tab 500 MGTAB     6
CC0000032768038H202100000554903700000554903724/10/20210738     3300009237421964250000A02BC700001684270000000000000                                                            OMEPRAZOL 40MG POLVO LIOFILIZADO AMPOLLAVAL     1
CC0000032768038H202100000554903700000554903724/10/20211352    31903301237421964250000V07A1300000502600000000000000                                                                                AGUA ESTERIL x 10 mlAMP     5
