TI0001042592574H202100915144102400915144102424/10/20210548    3190224223742196425000011082200001407940000000000000                                                              EQUIPO EXT MICROTUBO Y 2 VALVUL 2N8371SOB     1
TI0001042592574H202100915144102400915144102424/10/20210548    31902242237421964250000Q1AA3300001585140000000000000                                                                         APOSITO TEGADERM 10*12 1626SOB     1
TI0001042592574H202100915144102400915144102424/10/20210548    31902242237421964250000Q1AA7300000610640000000000000                                                            CATETER PERIFE INTROCAN # 22G 4251628-04SIN     1
