CC0000007453635U202100050131353300050131353324/10/20211729    3150054723942196432000038570100001124990000000000000                                                                              SONDA FOLEY #18 2 VIASSOB     1
CC0000007453635U202100050131353300050131353324/10/20211729    3150054723942196432000024674000000220660000000000000                             JERINGA A 3 PARTES CON AGUJA  SOB X 1 RYMCO  10ML BN EXENTO-DC.417/2020SIN     3
CC0000007453635U202100050131353300050131353324/10/20211729    3150054723942196432000043485100001618510000000000000                GUANTE QUIRURGICO DE LATEX REF 2D72N65X CAJ X 50 PROTEXIS  6.5 BN EXENTO-DC.417/2020SOB     2
CC0000007453635U202100050131353300050131353324/10/20211729    3150054723942196432000011082700001620070000000000000                                                               EQUIPO SET PRIMARIO C/CLAVE REF 14001BOL     1
CC0000007453635U202100050131353300050131353324/10/20211729    3150054723942196432000031188000000236790000000000000                                                                                     CISTOFLO ADULTOSIN     1
CC0000007453635U202100050131353300050131353324/10/20211729    3150054723942196432000001956000001620610000000000000                                                                      CONECTOR MICRO CLAVE LAT-MC100SOB     2
CC0000007453635U202100050131353300050131353324/10/20211729    31500547239421964320000Q1AA7100000610620000000000000                                                            CATETER PERIFE INTROCAN # 18G 4251687-04SIN     2
CC0000007453635U202100050131353300050131353324/10/20211729    3150054723942196432000030936900001431840000000000000                                                                                              BURETABOL     1
CC0000007453635U202100050131353300050131353324/10/20211729    3150054723942196432000016830000000970620000000000000                                                             SIST FIJACION CAT PERIFERICO 6.5X7 1683SOB     2
CC0000007453635U202100050131353300050131353324/10/20211729    31500547239421964320000E1AB0500003888400000000000000                                                              SOLUCION SALINA 0.9% SLN INY X 1000 MLBOL     1
