TI0001047048202H202100000554899500000554899524/10/20210531    31500082237421964250000E1AC0100000199400000000000000                                                                          SUERO MIXTO Sln Iny 500 mlBIN     3
TI0001047048202H202100000554899500000554899524/10/20210531    31500082237421964250000E1AB0700003888350000000000000                                                            SOLUCION SALINA 0.9% SLN INY BO X 250 MLBOL     2
TI0001047048202H202100000554899500000554899524/10/20210816     3300009237421964250000A12CA200001239800000000000000                     BICARBONATO SODIO 10MEQ/10ML(1MEQ/ML) SOL INY  CAJ X 100AMPX10ML FRESENIUS KABIAMP     1
TI0001047048202H202100000554899500000554899524/10/20211331    31500213237421964250000E1AD0300000199490000000000000                                         LACTATO RINGER USP (HARTMANN)  SOL INY  BOL X 1000ML BAXTERBIN     3
TI0001047048202H202100000554899500000554899524/10/20211550     3300009237421964250000J01DA300001239950000000000000                                                            CEFAZOLINA SODICA POLVO LIOF SLN INY 1 GVAL     1
TI0001047048202H202100000554899500000554899524/10/20210815     3300009237421964250000J01DA300001239950000000000000                                                            CEFAZOLINA SODICA POLVO LIOF SLN INY 1 GVAL     4
TI0001047048202H202100000554899500000554899524/10/20211550     3300009237421964250000J1KF0200001677230000000000000                                                                      MERONEM POLVO SLN INY 1 G  /R/VAL     1
TI0001047048202H202100000554899500000554899524/10/20210815     3300009237421964250000J1KF0200001677230000000000000                                                                      MERONEM POLVO SLN INY 1 G  /R/VAL     3
TI0001047048202H202100000554899500000554899524/10/20211551     3300009237421964250000J02A0200000191070000000000000                                                            CANCIDAS POLVO LIOF SLN INY AMP 50MG /R/VAL     3
TI0001047048202H202100000554899500000554899524/10/20211550     3300009237421964250000J02A0300000191080000000000000                                                              CANCIDAS POLVO LIOF SLN INY 70 MG  /R/VAL     2
TI0001047048202H202100000554899500000554899524/10/20211550     3300009237421964250000L1BC1300000304160000000000000                                                                        NEUPOGEN Sln iny 300 mcg /R/JRP     1
TI0001047048202H202100000554899500000554899524/10/20210816     3300009237421964250000L1BC1300000304160000000000000                                                                        NEUPOGEN Sln iny 300 mcg /R/JRP     1
TI0001047048202H202100000554899500000554899524/10/20211550     3300009237421964250000N2BB0500000217140000000000000                                                                          NOVALGINA Sln Iny 1 g/2 mlAMP     1
TI0001047048202H202100000554899500000554899524/10/20210815     3300009237421964250000N2BB0500000217140000000000000                                                                          NOVALGINA Sln Iny 1 g/2 mlAMP     2
TI0001047048202H202100000554899500000554899524/10/20210816     3300009237421964250000N02B1100001169680000000000000                              PARACETAMOL 1000MG/100ML(10MG/ML) SOL INY  VIAL X 100ML FRESENIUS KABIVAL     2
TI0001047048202H202100000554899500000554899524/10/20211550     3300009237421964250000V6DB0800001286840000000000000                                                                          PEDIASURE LIQUIDO X 237 MLFCO     1
TI0001047048202H202100000554899500000554899524/10/20210816     3300009237421964250000V6DB0800001286840000000000000                                                                          PEDIASURE LIQUIDO X 237 MLFCO     2
TI0001047048202H202100000554899500000554899524/10/20211331    31500213237421964250000V07A1300000502600000000000000                                                                                AGUA ESTERIL x 10 mlAMP     7
