CC0000008671780H202100164828102400164828102424/10/20210835    3190117723742196425000016830000000970620000000000000                                                             SIST FIJACION CAT PERIFERICO 6.5X7 1683SOB     3
CC0000008671780H202100164828102400164828102424/10/20210835    3190117723742196425000001956000001620610000000000000                                                                      CONECTOR MICRO CLAVE LAT-MC100SOB     3
CC0000008671780H202100164828102400164828102424/10/20210835    31901177237421964250000Q1AA7100000610620000000000000                                                            CATETER PERIFE INTROCAN # 18G 4251687-04SIN     3
CC0000008671780H202100164828102400164828102424/10/20211210    3190093123742196425000001956000001620610000000000000                                                                      CONECTOR MICRO CLAVE LAT-MC100SOB     2
CC0000008671780H202100164828102400164828102424/10/20211210    3190093123742196425000016830000000970620000000000000                                                             SIST FIJACION CAT PERIFERICO 6.5X7 1683SOB     2
CC0000008671780H202100164828102400164828102424/10/20211210    31900931237421964250000Q1AA7100000610620000000000000                                                            CATETER PERIFE INTROCAN # 18G 4251687-04SIN     2
