TI0001073826213H202100015122505700015122505724/10/20211615    3190100923742196425000011077200001679930000000000000                                                                  CIRCUITO DESECHABLE AIRVO 900PT501BOL     1
TI0001073826213H202100015122505700015122505724/10/20211615    3190100923742196425000001200900001294660000000000000                                                                CANULA NASAL PED REF OPT318 OPTIFLOWPZA     1
TI0001073826213H202100015122505700015122505724/10/20211615    31901009237421964250000E1BA0100000198890000000000000                                                                   AGUA ESTERIL USP SLN INY X 500 MLBIN     1
