CC0001001943724A202100000027613400000027613424/10/20211013    3190333624042196419000000901900000229390000000000000                                                                  MASCARA PARA OXIGENO ADULTO (1041)BIN     1
CC0001001943724A202100000027613400000027613424/10/20211013    31903336240421964190000J01F0200001689390000000000000                                                                        CLINDAMICINA INY 600 MG/4 MLAMP     1
CC0001001943724A202100000027613400000027613424/10/20211013    31903336240421964190000N01A0500003844190000000000000                                                                          REMIFENTANILO SLN INY 2 MGVAL     1
CC0001001943724A202100000027613400000027613424/10/20211013    3190333624042196419000039176200000325450000000000000                                                             TUBO ENDOTRAQ 7.5 C/B Y ESPIRAL INTERNOSIN     1
CC0001001943724A202100000027613400000027613424/10/20211013    31903336240421964190000N01A0400003939010000000000000                                               MAYOPROFOL 200MG/20ML(1%) EMUL INY CAJ X 1VIAL X 20MLVAL     1
CC0001001943724A202100000027613400000027613424/10/20211013    3190333624042196419000011056000000228900000000000000                                                                   MEROCEL TAPON NASAL 8CM REF400402SIN     2
CC0001001943724A202100000027613400000027613424/10/20211013    31903336240421964190000N1BA1400000220050000000000000                                                                 ROXICAINA 2% C/EPIN Sln Iny x 50 mlFCO     1
CC0001001943724A202100000027613400000027613424/10/20211013    3190333624042196419000011019000000231900000000000000                                                                         CATGUT CROMADO 4-0 SH G121TSIN     1
CC0001001943724A202100000027613400000027613424/10/20211013    3190333624042196419000024674500000322810000000000000                                                                   JERINGA DESECHABLE 20 ml 21*1 1/2SIN     1
CC0001001943724A202100000027613400000027613424/10/20211013    3190333624042196419000030161400001459220000000000000                                                                       MANGUERA SUCCION 6 MM*3.1 MTSSOB     1
CC0001001943724A202100000027613400000027613424/10/20211013    3190333624042196419000043879100001138200000000000000                                                                  HOJA BISTURI # 15 CSSB 15 01002003SOB     1
CC0001001943724A202100000027613400000027613424/10/20211013    31903336240421964190000Q1AA6900000531340000000000000                                                            CATETER PERIFE INTROCAN # 14G 4251890-04SIN     1
CC0001001943724A202100000027613400000027613424/10/20211013    3190333624042196419000000101000001101640000000000000                                                                  AGUJA DESECHABLE  23G X 1 1/2 PULGSOB     1
CC0001001943724A202100000027613400000027613424/10/20211013    31903336240421964190000R01AA100001071000000000000000                                                               OXIMETAZOLINA SLN NASAL 0.05% X 15 MLFCO     1
CC0001001943724A202100000027613400000027613424/10/20211013    3190333624042196419000022425200000548240000000000000                       EXTENSION DE ANESTESIA REF 1139 SOB X 1 SHERLEG  ADULTO BN EXENTO-DC.417/2020SIN     1
CC0001001943724A202100000027613400000027613424/10/20211013    3190333624042196419000035356500003919000000000000000                                                                                        LLAVE 3 VIASSOB     1
CC0001001943724A202100000027613400000027613424/10/20211013    31903336240421964190000Q1AA7100000610620000000000000                                                            CATETER PERIFE INTROCAN # 18G 4251687-04SIN     1
CC0001001943724A202100000027613400000027613424/10/20211013    3190333624042196419000022426800001140510000000000000                                                                    EQUIPO MACROGOTEO BAXTER MRC0001SOB     1
CC0001001943724A202100000027613400000027613424/10/20211013    3190333624042196419000011073300001096420000000000000                                                                BOLSA DE SUCCION DE FLUIDOS x 2500mLBOL     2
CC0001001943724A202100000027613400000027613424/10/20211013    3190333624042196419000020750600000296780000000000000                                                                PLACA ELECTRO RETORNO PACIENTE E7506SIN     1
CC0001001943724A202100000027613400000027613424/10/20211013    3190333624042196419000011082700001620070000000000000                                                               EQUIPO SET PRIMARIO C/CLAVE REF 14001BOL     1
CC0001001943724A202100000027613400000027613424/10/20211013    3190333624042196419000053074400000607910000000000000                                                               GASA ESTERIL 10*10 SOBRE X 3 UNIDADESSOB     2
CC0001001943724A202100000027613400000027613424/10/20211013    3190333624042196419000024673000001411210000000000000                                                                  JERINGA DESECHABLE 3 ML 21 X 1 1/2SOB     2
CC0001001943724A202100000027613400000027613424/10/20211013    3190333624042196419000024674000000220660000000000000                             JERINGA A 3 PARTES CON AGUJA  SOB X 1 RYMCO  10ML BN EXENTO-DC.417/2020SIN     6
CC0001001943724A202100000027613400000027613424/10/20211013    3190333624042196419000051515500000598160000000000000                                                                            MASCARILLA ANESTESIA # 5SIN     1
CC0001001943724A202100000027613400000027613424/10/20211013    3190333624042196419000011085100001082120000000000000                                                                           GUANTE QUIRURGICO TALLA 7SOB     1
CC0001001943724A202100000027613400000027613424/10/20211013    3190333624042196419000043485100001618510000000000000                GUANTE QUIRURGICO DE LATEX REF 2D72N65X CAJ X 50 PROTEXIS  6.5 BN EXENTO-DC.417/2020SOB     2
CC0001001943724A202100000027613400000027613424/10/20211013    3190333624042196419000011099300000777780000000000000                                                                     FILTRO BACTERIANO VIRICO ADULTOBOL     1
CC0001001943724A202100000027613400000027613424/10/20211013    3190333624042196419000001200400000530690000000000000                                                                          CANULA DE MAYO # 5 (100MM)SIN     1
CC0001001943724A202100000027613400000027613424/10/20211013    31903336240421964190000E1AD0200003888320000000000000                                                                              HARTMAN SLN INY 500 MLBOL     1
CC0001001943724A202100000027613400000027613424/10/20211013    31903336240421964190000E1AB0300003888390000000000000                                                            SOLUCION SALINA 0.9% SLN INY BO X 500 MLBOL     2
CC0001001943724A202100000027613400000027613424/10/20211013    31903336240421964190000E1AB0700003888350000000000000                                                            SOLUCION SALINA 0.9% SLN INY BO X 250 MLBOL     1
CC0001001943724A202100000027613400000027613424/10/20211013    31903336240421964190000E1AB0200000199290000000000000                                                            SOLUCION SALINA 0.9% SLN INY BO X 100 MLBIN     1
CC0001001943724A202100000027613400000027613424/10/20211013    31903336240421964190000M03A0900001467590000000000000                                                                        ROCURONIO SLN INY 50 MG/5 MLVAL     1
CC0001001943724A202100000027613400000027613424/10/20211013    31903336240421964190000N07AA100001109450000000000000                                                            NEOSTIGMINA METILSULF SLN INY 0.5 MG/ MLAMP     3
CC0001001943724A202100000027613400000027613424/10/20211013    31903336240421964190000A03F0300001626860000000000000                                                                   METOCLOPRAMIDA SLN INY 10 MG/2 MLAMP     1
CC0001001943724A202100000027613400000027613424/10/20211013    31903336240421964190000N02BB100000777810000000000000                                                               DIPIRONA MAGNESICA SLN INY 2.5 G/5 MLAMP     1
CC0001001943724A202100000027613400000027613424/10/20211013    31903336240421964190000M01A2000001664970000000000000                                                               DICLOFENACO SODICO SLN INY 75 MG/3 MLAMP     1
CC0001001943724A202100000027613400000027613424/10/20211013    31903336240421964190000H02A0100001664960000000000000                                                                        DEXAMETASONA SLN INY 4 MG/MLAMP     1
CC0001001943724A202100000027613400000027613424/10/20211013    31903336240421964190000A3BA0100001109400000000000000                                                                          ATROPINA SLN INY 1 MG / MLAMP     1
CC0001001943724A202100000027613400000027613424/10/20211013    31903336240421964190000N2AA0100000301640000000000000                                                                            MORFINA Sln Iny 10 mg/mlAMP     1
