CC0001127226315H202100000554907700000554907724/10/20211023    31500206237421964250000A2BC0900000200150000000000000                                                                               ORAZOLE Sln Iny 40 mgCIN     1
CC0001127226315H202100000554907700000554907724/10/20211023    31500206237421964250000A4AD0200000202990000000000000                                                                     PLITICAN HCL Sln Iny 50 mg/2 mlAMP     3
CC0001127226315H202100000554907700000554907724/10/20211023    31500206237421964250000A3BB0200000512940000000000000                                                                          BUSCAPINA SIMPLE Iny 20 mgAMP     3
CC0001127226315H202100000554907700000554907724/10/20211023    31500206237421964250000M01A0400001341250000000000000                                                                              DYNASTAT AMP 40 MG /R/VAL     2
CC0001127226315H202100000554907700000554907724/10/20211023    31500206237421964250000N2AX0400001204140000000000000                                                                             TRAMAL Sln Iny 50 mg/mlAMP     3
CC0001127226315H202100000554907700000554907724/10/20211023    31500206237421964250000N02B1100001169680000000000000                              PARACETAMOL 1000MG/100ML(10MG/ML) SOL INY  VIAL X 100ML FRESENIUS KABIVAL     4
