CC0001045686959H202100000554900000000554900024/10/20210817     3300009237421964250000H02AB400001140460000000000000                                                              SUCCINA METILPREDNISOLONA 500MG VIA/R/VAL     1
CC0001045686959H202100000554900000000554900024/10/20210817     3300009237421964250000A03F0300001626860000000000000                                                                   METOCLOPRAMIDA SLN INY 10 MG/2 MLAMP     3
CC0001045686959H202100000554900000000554900024/10/20211553     3300009237421964250000B1AB1200003939350000000000000                 ENOXAPARINA SODICA 80MG/0.8ML(100MG/ML) SOL INY INST CAJ X 2JERPREL X 0.8ML TECHDOWJRP     1
CC0001045686959H202100000554900000000554900024/10/20211332    31500213237421964250000E1AA0100003888590000000000000                                                                        DEXTROSA 5% Sln Iny X 500 mlBOL     1
CC0001045686959H202100000554900000000554900024/10/20210532    31500082237421964250000E1AA0100003888590000000000000                                                                        DEXTROSA 5% Sln Iny X 500 mlBOL     3
CC0001045686959H202100000554900000000554900024/10/20211332    31500213237421964250000E1AB0200000199290000000000000                                                            SOLUCION SALINA 0.9% SLN INY BO X 100 MLBIN     2
CC0001045686959H202100000554900000000554900024/10/20210532    31500082237421964250000E1AB0200000199290000000000000                                                            SOLUCION SALINA 0.9% SLN INY BO X 100 MLBIN     4
CC0001045686959H202100000554900000000554900024/10/20211332    31500213237421964250000E1AB0300003888390000000000000                                                            SOLUCION SALINA 0.9% SLN INY BO X 500 MLBOL     2
CC0001045686959H202100000554900000000554900024/10/20211553     3300009237421964250000A12CA200001239800000000000000                     BICARBONATO SODIO 10MEQ/10ML(1MEQ/ML) SOL INY  CAJ X 100AMPX10ML FRESENIUS KABIAMP     5
CC0001045686959H202100000554900000000554900024/10/20211553     3300009237421964250000A12BA100000552980000000000000                                                            CLORURO POTASIO Sln Iny AMP 20 MEQ/10 MLAMP     2
CC0001045686959H202100000554900000000554900024/10/20210817     3300009237421964250000A12BA100000552980000000000000                                                            CLORURO POTASIO Sln Iny AMP 20 MEQ/10 MLAMP     1
CC0001045686959H202100000554900000000554900024/10/20211112     3300009237421964250000L1BC8600000553170000000000000                                                                  FOLINATO CALCIO SLN INY 50 MG/5 MLVAL     5
CC0001045686959H202100000554900000000554900024/10/20210817     3300009237421964250000V6DF2000001629900000000000000                                                                     ENSURE PLUS HN LIQUIDO X 237 MLFCO     2
CC0001045686959H202100000554900000000554900024/10/20211553     3300009237421964250000L03AA100001067620000000000000                                                             ZARZIO SLN INY 30.000.000 UI/0.5 ML /R/JRP     3
CC0001045686959H202100000554900000000554900024/10/20211553     3300009237421964250000J01D1200001239960000000000000                                                                              CEFEPIME POLVO INY 1 GVAL     6
CC0001045686959H202100000554900000000554900024/10/20211552     3300009237421964250000J01D1200001239960000000000000                                                                              CEFEPIME POLVO INY 1 GVAL     2
CC0001045686959H202100000554900000000554900024/10/20211552     3300009237421964250000J05AB000001277780000000000000                                                                                ACICLOVIR TAB 200 MGTAB     1
CC0001045686959H202100000554900000000554900024/10/20210817     3300009237421964250000J05AB000001277780000000000000                                                                                ACICLOVIR TAB 200 MGTAB     2
CC0001045686959H202100000554900000000554900024/10/20210817     3300009237421964250000A02BC700001684270000000000000                                                            OMEPRAZOL 40MG POLVO LIOFILIZADO AMPOLLAVAL     1
CC0001045686959H202100000554900000000554900024/10/20211624    31500213237421964250000V07A1300000502600000000000000                                                                                AGUA ESTERIL x 10 mlAMP     2
CC0001045686959H202100000554900000000554900024/10/20211332    31500213237421964250000V07A1300000502600000000000000                                                                                AGUA ESTERIL x 10 mlAMP    12
CC0001045686959H202100000554900000000554900024/10/20210817     3300009237421964250000A04AA200003932460000000000000                                                 ONDAX 4MG/2ML(2MG/ML) SOL INY INST CAJ X 1AMP X 2MLAMP     6
