CC0000032842949H202100000554892900000554892924/10/20210746     3300009237421964250000B1AB1200003939350000000000000                 ENOXAPARINA SODICA 80MG/0.8ML(100MG/ML) SOL INY INST CAJ X 2JERPREL X 0.8ML TECHDOWJRP     2
CC0000032842949H202100000554892900000554892924/10/20210010    31903303237421964250000E1AB0300003888390000000000000                                                            SOLUCION SALINA 0.9% SLN INY BO X 500 MLBOL     2
CC0000032842949H202100000554892900000554892924/10/20210949     3300009237421964250000N2AA0100000301640000000000000                                                                            MORFINA Sln Iny 10 mg/mlAMP     1
CC0000032842949H202100000554892900000554892924/10/20210746     3300009237421964250000A02B0800001276960000000000000                                                                                 OMEPRAZOL CAP 20 MGCAP     1
CC0000032842949H202100000554892900000554892924/10/20211601     3300009237421964250000B01AC200001333600000000000000                                                                               CLOPIDOGREL TAB 75 MGTAB     1
CC0000032842949H202100000554892900000554892924/10/20210745     3300009237421964250000C09CA700001315590000000000000                                                                                 LOSARTAN TAB 100 MGTAB     1
CC0000032842949H202100000554892900000554892924/10/20211831     3300009237421964250000C07A1400001333340000000000000                                                                          CARVEDILOL TAB 12.5 MG /R/TAB     1
CC0000032842949H202100000554892900000554892924/10/20210746     3300009237421964250000C07A1300001314300000000000000                                                                            CARVEDILOL TAB 25 MG /R/TAB     2
CC0000032842949H202100000554892900000554892924/10/20210745     3300009237421964250000C08CA200001277660000000000000                                                                                 AMLODIPINO TAB 5 MGTAB     2
CC0000032842949H202100000554892900000554892924/10/20210745     3300009237421964250000C10AA500001314010000000000000                                                                             ATORVASTATINA TAB 40 MGTAB     2
CC0000032842949H202100000554892900000554892924/10/20210746     3300009237421964250000N2BE2200001252930000000000000                                                                             ACETAMINOFEN Tab 500 MGTAB     4
CC0000032842949H202100000554892900000554892924/10/20211602     3300009237421964250000N02BA100001276940000000000000                                                                  ACIDO ACETIL SALIC?LICO TAB 100 MGTAB     1
CC0000032842949H202100000554892900000554892924/10/20211430    31903254237421964250000V07A1300000502600000000000000                                                                                AGUA ESTERIL x 10 mlAMP     2
