CC0001129498209H202100000554915800000554915824/10/20211724     3300009237421964250000A03F0300001626860000000000000                                                                   METOCLOPRAMIDA SLN INY 10 MG/2 MLAMP     3
CC0001129498209H202100000554915800000554915824/10/20211724     3300009237421964250000B1AB0100001227270000000000000                                             HEPAMAX 25000UI/5ML(5000UI/ML) SOL INY  CAJ X 25AMPX5MLAMP     1
CC0001129498209H202100000554915800000554915824/10/20211840    31500272237421964250000E1AB0300003888390000000000000                                                            SOLUCION SALINA 0.9% SLN INY BO X 500 MLBOL     1
CC0001129498209H202100000554915800000554915824/10/20211840    31500272237421964250000E1AD0200003888320000000000000                                                                              HARTMAN SLN INY 500 MLBOL     2
CC0001129498209H202100000554915800000554915824/10/20211724     3300009237421964250000A12BA100000552980000000000000                                                            CLORURO POTASIO Sln Iny AMP 20 MEQ/10 MLAMP     2
CC0001129498209H202100000554915800000554915824/10/20211724     3300009237421964250000J3CB2100000547740000000000000                                                                      CIPRO IV SLN INY 400 Mg/200 MLFCO     1
CC0001129498209H202100000554915800000554915824/10/20211724     3300009237421964250000A02B0800001276960000000000000                                                                                 OMEPRAZOL CAP 20 MGCAP     1
CC0001129498209H202100000554915800000554915824/10/20211723     3300009237421964250000C02AC200001559150000000000000                                                                              CLONIDINA TAB 0.150 MGTAB     3
CC0001129498209H202100000554915800000554915824/10/20211723     3300009237421964250000C02C0100001316210000000000000                                                                                     PRATEN TAB 1 MGTAB     4
CC0001129498209H202100000554915800000554915824/10/20211723     3300009237421964250000C08CA300001313930000000000000                                                                                AMLODIPINO TAB 10 MGTAB     1
