RC0001053013307H202100911773102400911773102424/10/20210755    3190311723742196425000011047900000223010000000000000                                                                            JERINGA X 1ML REF 302579SIN     2
RC0001053013307H202100911773102400911773102424/10/20210755    3190311723742196425000011048600000223020000000000000                                                                 JERINGA VACUNACION 3ML C/AGU 302542SIN     2
RC0001053013307H202100911773102400911773102424/10/20210755    3190311723742196425000024674000000220660000000000000                             JERINGA A 3 PARTES CON AGUJA  SOB X 1 RYMCO  10ML BN EXENTO-DC.417/2020SIN     4
