CC0001143157155A202100000027622400000027622424/10/20211008    3190333624042196419000011069000000212140000000000000                                                                      VASELINA QUIMIBEN POTE X 500 GTAR     1
CC0001143157155A202100000027622400000027622424/10/20211008    3190333624042196419000040185000001571620000000000000                                                                         APOSITO AQUACEL AG 15X15 CMSOB     1
CC0001143157155A202100000027622400000027622424/10/20211008    31903336240421964190000Q1AA7200000610630000000000000                                                            CATETER PERIFE INTROCAN # 20G 4251644-04SIN     1
CC0001143157155A202100000027622400000027622424/10/20211008    31903336240421964190000D08AF900000512990000000000000                                                            FURACIN POMADA 0.2 G/100 G TU X 40 G /R/TUB     1
CC0001143157155A202100000027622400000027622424/10/20211008    3190333624042196419000012474000000232230000000000000                                                                SUTURA ETHILON 4-0 SC-20 45CM 14502TSIN     5
CC0001143157155A202100000027622400000027622424/10/20211008    31903336240421964190000R3CA0400000777470000000000000                                                               ADRENALINA HCL SLN INY 1 MG / ML RYANAMP     1
CC0001143157155A202100000027622400000027622424/10/20211008    31903336240421964190000E1AB0500003888400000000000000                                                              SOLUCION SALINA 0.9% SLN INY X 1000 MLBOL     1
CC0001143157155A202100000027622400000027622424/10/20211008    3190333624042196419000019487500000602970000000000000                                                                           VICRYL 2-0 CT1 90 VCP345HSIN     1
CC0001143157155A202100000027622400000027622424/10/20211008    3190333624042196419000030161400001459220000000000000                                                                       MANGUERA SUCCION 6 MM*3.1 MTSSOB     1
CC0001143157155A202100000027622400000027622424/10/20211008    3190333624042196419000049428500000738570000000000000                                                                       VENDA ELASTICA 6*5 NO ESTERILSOB     2
CC0001143157155A202100000027622400000027622424/10/20211008    3190333624042196419000049419800001679910000000000000                                                                        VENDA ALGODON 6*5 NO ESTERILSOB     1
CC0001143157155A202100000027622400000027622424/10/20211008    3190333624042196419000022425200000548240000000000000                       EXTENSION DE ANESTESIA REF 1139 SOB X 1 SHERLEG  ADULTO BN EXENTO-DC.417/2020SIN     1
CC0001143157155A202100000027622400000027622424/10/20211008    3190333624042196419000035356500003919000000000000000                                                                                        LLAVE 3 VIASSOB     2
CC0001143157155A202100000027622400000027622424/10/20211008    31903336240421964190000Q1AA7100000610620000000000000                                                            CATETER PERIFE INTROCAN # 18G 4251687-04SIN     2
CC0001143157155A202100000027622400000027622424/10/20211008    3190333624042196419000022426800001140510000000000000                                                                    EQUIPO MACROGOTEO BAXTER MRC0001SOB     1
CC0001143157155A202100000027622400000027622424/10/20211008    31903336240421964190000J01DA300001239950000000000000                                                            CEFAZOLINA SODICA POLVO LIOF SLN INY 1 GVAL     2
CC0001143157155A202100000027622400000027622424/10/20211008    3190333624042196419000011073300001096420000000000000                                                                BOLSA DE SUCCION DE FLUIDOS x 2500mLBOL     1
CC0001143157155A202100000027622400000027622424/10/20211008    3190333624042196419000053074400000607910000000000000                                                               GASA ESTERIL 10*10 SOBRE X 3 UNIDADESSOB     5
CC0001143157155A202100000027622400000027622424/10/20211008    3190333624042196419000011047900000223010000000000000                                                                            JERINGA X 1ML REF 302579SIN     1
CC0001143157155A202100000027622400000027622424/10/20211008    3190333624042196419000024673000001411210000000000000                                                                  JERINGA DESECHABLE 3 ML 21 X 1 1/2SOB     2
CC0001143157155A202100000027622400000027622424/10/20211008    3190333624042196419000024674000000220660000000000000                             JERINGA A 3 PARTES CON AGUJA  SOB X 1 RYMCO  10ML BN EXENTO-DC.417/2020SIN     2
CC0001143157155A202100000027622400000027622424/10/20211008    3190333624042196419000011085200001585390000000000000                                                                       GUANTE QUIRURGICO TALLA 7 1/2SOB     2
CC0001143157155A202100000027622400000027622424/10/20211008    3190333624042196419000011085100001082120000000000000                                                                           GUANTE QUIRURGICO TALLA 7SOB     2
CC0001143157155A202100000027622400000027622424/10/20211008    3190333624042196419000043485100001618510000000000000                GUANTE QUIRURGICO DE LATEX REF 2D72N65X CAJ X 50 PROTEXIS  6.5 BN EXENTO-DC.417/2020SOB     2
CC0001143157155A202100000027622400000027622424/10/20211008    3190333624042196419000020060000000225230000000000000                                                               AGUJA SPINOCAN 27G X 3 1/2 PU 4503902SIN     1
CC0001143157155A202100000027622400000027622424/10/20211008    31903336240421964190000E1AD0200003888320000000000000                                                                              HARTMAN SLN INY 500 MLBOL     1
CC0001143157155A202100000027622400000027622424/10/20211008    31903336240421964190000E1AB0300003888390000000000000                                                            SOLUCION SALINA 0.9% SLN INY BO X 500 MLBOL     2
CC0001143157155A202100000027622400000027622424/10/20211008    31903336240421964190000E1AB0200000199290000000000000                                                            SOLUCION SALINA 0.9% SLN INY BO X 100 MLBIN     1
CC0001143157155A202100000027622400000027622424/10/20211008    31903336240421964190000N1BA0500000647360000000000000                                                                  BUPIROP 0.5% PESADO SLN INY X 4 MLAPC     1
CC0001143157155A202100000027622400000027622424/10/20211008    31903336240421964190000A2BC0900000200150000000000000                                                                               ORAZOLE Sln Iny 40 mgCIN     1
CC0001143157155A202100000027622400000027622424/10/20211008    31903336240421964190000H02A0100001664960000000000000                                                                        DEXAMETASONA SLN INY 4 MG/MLAMP     2
CC0001143157155A202100000027622400000027622424/10/20211008    31903336240421964190000M01A2000001664970000000000000                                                               DICLOFENACO SODICO SLN INY 75 MG/3 MLAMP     1
CC0001143157155A202100000027622400000027622424/10/20211008    31903336240421964190000N02BB100000777810000000000000                                                               DIPIRONA MAGNESICA SLN INY 2.5 G/5 MLAMP     1
CC0001143157155A202100000027622400000027622424/10/20211008    31903336240421964190000A03F0300001626860000000000000                                                                   METOCLOPRAMIDA SLN INY 10 MG/2 MLAMP     1
CC0001143157155A202100000027622400000027622424/10/20211008    31903336240421964190000N2AA0100000301640000000000000                                                                            MORFINA Sln Iny 10 mg/mlAMP     1
