CC0001128052385A202100000027617700000027617724/10/20210950    3190333624042196419000051515500000598160000000000000                                                                            MASCARILLA ANESTESIA # 5SIN     1
CC0001128052385A202100000027617700000027617724/10/20210950    3190333624042196419000011075600000235230000000000000                                                                CABESTRILLO ESPUMA UNIVERSAL  KM2200BOL     1
CC0001128052385A202100000027617700000027617724/10/20210950    3190333624042196419000042743200003929860000000000000                   GASA ADHESIVA STRETCH REF 02038-00 ROL X 10MT FIXOMULL 15CM BN EXENTO-DC.417/2020CMT    50
CC0001128052385A202100000027617700000027617724/10/20210950    3190333624042196419000017565800001585150000000000000                                                             SUTURA PROLENE 3-0 45CM PS1 PRIME 8663TSOB     5
CC0001128052385A202100000027617700000027617724/10/20210950    31903336240421964190000N02A3100001227160000000000000                                                                    OXYRAPID SLN INY 10 MG/ML X 1 MLAMP     1
CC0001128052385A202100000027617700000027617724/10/20210950    3190333624042196419000049419800001679910000000000000                                                                        VENDA ALGODON 6*5 NO ESTERILSOB     1
CC0001128052385A202100000027617700000027617724/10/20210950    3190333624042196419000000600800000258580000000000000                                                              APOSITO BACTIGRAS REF 7461 15CM X 20CMSIN     2
CC0001128052385A202100000027617700000027617724/10/20210950    31903336240421964190000B02B3300001270560000000000000                                                                EVICEL TROMBINA 2 ML/FIBRIN 2 ML /R/PAQ     2
CC0001128052385A202100000027617700000027617724/10/20210950    31903336240421964190000B02AA100001407470000000000000                                                                    CLINTRANEX SLN INY 500 MG / 5 MLAMP     2
CC0001128052385A202100000027617700000027617724/10/20210950    31903336240421964190000N1BA1900000554750000000000000                                                                     ROXICAINA JALEA 2% TUBO X 30 MLTUB     1
CC0001128052385A202100000027617700000027617724/10/20210950    3190333624042196419000038570000001123500000000000000                                                                              SONDA FOLEY #16 2 VIASSOB     1
CC0001128052385A202100000027617700000027617724/10/20210950    3190333624042196419000031188000000236790000000000000                                                                                     CISTOFLO ADULTOSIN     1
CC0001128052385A202100000027617700000027617724/10/20210950    3190333624042196419000049428400000738560000000000000                                                                       VENDA ELASTICA 5*5 NO ESTERILSOB     2
CC0001128052385A202100000027617700000027617724/10/20210950    31903336240421964190000M03AB100001371510000000000000                                                            ADECUAC SUCCINILCOLINA  100mg/mL SOL INYVAL     1
CC0001128052385A202100000027617700000027617724/10/20210950    31903336240421964190000Q1AA3300001585140000000000000                                                                         APOSITO TEGADERM 10*12 1626SOB     3
CC0001128052385A202100000027617700000027617724/10/20210950    3190333624042196419000042462700003929830000000000000                                                STOQUINETA ORTOPEDICA TUBULAR ROL X 25MT WINER 6PULGCMT     1
CC0001128052385A202100000027617700000027617724/10/20210950    31903336240421964190000R3CA0400000777470000000000000                                                               ADRENALINA HCL SLN INY 1 MG / ML RYANAMP     1
CC0001128052385A202100000027617700000027617724/10/20210950    31903336240421964190000N07X0300003913670000000000000                                    DEXMEDETOMIDINA 400MCG/100ML(4MCG/ML) SOL INY BOL X 100ML BAXTERBOL     1
CC0001128052385A202100000027617700000027617724/10/20210950    3190333624042196419000049419600001679900000000000000                                                                        VENDA ALGODON 4*5 NO ESTERILSOB     2
CC0001128052385A202100000027617700000027617724/10/20210950    3190333624042196419000049428300000860750000000000000                                                                       VENDA ELASTICA 4*5 NO ESTERILBOL     3
CC0001128052385A202100000027617700000027617724/10/20210950    3190333624042196419000038568300000257010000000000000                                                                                   SONDA NELATON #08SIN     1
CC0001128052385A202100000027617700000027617724/10/20210950    31903336240421964190000Q1AA7200000610630000000000000                                                            CATETER PERIFE INTROCAN # 20G 4251644-04SIN     2
CC0001128052385A202100000027617700000027617724/10/20210950    3190333624042196419000049430000001189880000000000000                                                                            IDENTI LOOP MINI 1001-81PAQ     1
CC0001128052385A202100000027617700000027617724/10/20210950    3190333624042196419000010500700001414140000000000000                                                              CINTA VASOS MINI  1001-76 SCANLAN ROJOPZA     1
CC0001128052385A202100000027617700000027617724/10/20210950    3190333624042196419000045138000001413890000000000000                                                                       LAPIZ ELECTROBISTURI  SOB X 1SOB     2
CC0001128052385A202100000027617700000027617724/10/20210950    3190333624042196419000000503900000296270000000000000                                                                  SUTURA POLYSORB 3-0 75CM V20 GL122SIN     3
CC0001128052385A202100000027617700000027617724/10/20210950    3190333624042196419000030825800000270990000000000000                                                                  ALGODON ESTERIL SOBRE X 3 TORUNDASPZA     8
CC0001128052385A202100000027617700000027617724/10/20210950    3190333624042196419000017566200001585160000000000000                                                                  PROLENE 4-0 AZ 45 PS2 PRIME P8682TSOB     2
CC0001128052385A202100000027617700000027617724/10/20210950    3190333624042196419000018350800000232800000000000000                                                                                 SEDA 0 S.H 75 K834HSIN     2
CC0001128052385A202100000027617700000027617724/10/20210950    3190333624042196419000000500800001353040000000000000                                                              HORIZON CLIP TITANI S AMARIL REF001200CAR     1
CC0001128052385A202100000027617700000027617724/10/20210950    3190333624042196419000043486000001353050000000000000                                                            HORIZON CLIP TITANI M AZUL X 6 REF002200CAR     5
CC0001128052385A202100000027617700000027617724/10/20210950    3190333624042196419000043879200001138180000000000000                                                                                   HOJA BISTURI # 11SOB     4
CC0001128052385A202100000027617700000027617724/10/20210950    3190333624042196419000043879100001138200000000000000                                                                  HOJA BISTURI # 15 CSSB 15 01002003SOB     4
CC0001128052385A202100000027617700000027617724/10/20210950    31903336240421964190000E1AB0300003888390000000000000                                                            SOLUCION SALINA 0.9% SLN INY BO X 500 MLBOL     2
CC0001128052385A202100000027617700000027617724/10/20210950    3190333624042196419000022425200000548240000000000000                       EXTENSION DE ANESTESIA REF 1139 SOB X 1 SHERLEG  ADULTO BN EXENTO-DC.417/2020SIN     1
CC0001128052385A202100000027617700000027617724/10/20210950    3190333624042196419000035356500003919000000000000000                                                                                        LLAVE 3 VIASSOB     2
CC0001128052385A202100000027617700000027617724/10/20210950    31903336240421964190000Q1AA7100000610620000000000000                                                            CATETER PERIFE INTROCAN # 18G 4251687-04SIN     1
CC0001128052385A202100000027617700000027617724/10/20210950    3190333624042196419000022426800001140510000000000000                                                                    EQUIPO MACROGOTEO BAXTER MRC0001SOB     1
CC0001128052385A202100000027617700000027617724/10/20210950    3190333624042196419000016830000000970620000000000000                                                             SIST FIJACION CAT PERIFERICO 6.5X7 1683SOB     1
CC0001128052385A202100000027617700000027617724/10/20210950    31903336240421964190000J01DA300001239950000000000000                                                            CEFAZOLINA SODICA POLVO LIOF SLN INY 1 GVAL     3
CC0001128052385A202100000027617700000027617724/10/20210950    3190333624042196419000011073300001096420000000000000                                                                BOLSA DE SUCCION DE FLUIDOS x 2500mLBOL     1
CC0001128052385A202100000027617700000027617724/10/20210950    3190333624042196419000030161400001459220000000000000                                                                       MANGUERA SUCCION 6 MM*3.1 MTSSOB     2
CC0001128052385A202100000027617700000027617724/10/20210950    3190333624042196419000020750600000296780000000000000                                                                PLACA ELECTRO RETORNO PACIENTE E7506SIN     1
CC0001128052385A202100000027617700000027617724/10/20210950    3190333624042196419000011082700001620070000000000000                                                               EQUIPO SET PRIMARIO C/CLAVE REF 14001BOL     1
CC0001128052385A202100000027617700000027617724/10/20210950    3190333624042196419000053074400000607910000000000000                                                               GASA ESTERIL 10*10 SOBRE X 3 UNIDADESSOB    14
CC0001128052385A202100000027617700000027617724/10/20210950    3190333624042196419000011085400001083360000000000000                                                                       GUANTE QUIRURGICO TALLA 8 1/2SOB     1
CC0001128052385A202100000027617700000027617724/10/20210950    3190333624042196419000011085300001082140000000000000                                                                           GUANTE QUIRURGICO TALLA 8SOB     7
CC0001128052385A202100000027617700000027617724/10/20210950    3190333624042196419000011085200001585390000000000000                                                                       GUANTE QUIRURGICO TALLA 7 1/2SOB     7
CC0001128052385A202100000027617700000027617724/10/20210950    3190333624042196419000011085100001082120000000000000                                                                           GUANTE QUIRURGICO TALLA 7SOB     4
CC0001128052385A202100000027617700000027617724/10/20210950    3190333624042196419000043485100001618510000000000000                GUANTE QUIRURGICO DE LATEX REF 2D72N65X CAJ X 50 PROTEXIS  6.5 BN EXENTO-DC.417/2020SOB     3
CC0001128052385A202100000027617700000027617724/10/20210950    3190333624042196419000051515400000598150000000000000                                                                            MASCARILLA ANESTESIA # 4SIN     1
CC0001128052385A202100000027617700000027617724/10/20210950    3190333624042196419000038568100000258050000000000000                                                                         CANULA OXIGENO NASAL ADULTOSIN     1
CC0001128052385A202100000027617700000027617724/10/20210950    3190333624042196419000011099300000777780000000000000                                                                     FILTRO BACTERIANO VIRICO ADULTOBOL     1
CC0001128052385A202100000027617700000027617724/10/20210950    3190333624042196419000001200400000530690000000000000                                                                          CANULA DE MAYO # 5 (100MM)SIN     1
CC0001128052385A202100000027617700000027617724/10/20210950    3190333624042196419000038569400000256750000000000000                                                                        SONDA ASPIRACION CONTROL #14SIN     1
CC0001128052385A202100000027617700000027617724/10/20210950    3190333624042196419000039175100001072060000000000000                                                                           TUBO ENDOTRAQUEAL C/B 7.5SOB     1
CC0001128052385A202100000027617700000027617724/10/20210950    3190333624042196419000024674000000220660000000000000                             JERINGA A 3 PARTES CON AGUJA  SOB X 1 RYMCO  10ML BN EXENTO-DC.417/2020SIN     7
CC0001128052385A202100000027617700000027617724/10/20210950    3190333624042196419000024674500000322810000000000000                                                                   JERINGA DESECHABLE 20 ml 21*1 1/2SIN     3
CC0001128052385A202100000027617700000027617724/10/20210950    31903336240421964190000E1AD0200003888320000000000000                                                                              HARTMAN SLN INY 500 MLBOL     2
CC0001128052385A202100000027617700000027617724/10/20210950    31903336240421964190000E1AB0500003888400000000000000                                                              SOLUCION SALINA 0.9% SLN INY X 1000 MLBOL     1
CC0001128052385A202100000027617700000027617724/10/20210950    31903336240421964190000E1AB0700003888350000000000000                                                            SOLUCION SALINA 0.9% SLN INY BO X 250 MLBOL     2
CC0001128052385A202100000027617700000027617724/10/20210950    31903336240421964190000E1AB0200000199290000000000000                                                            SOLUCION SALINA 0.9% SLN INY BO X 100 MLBIN     1
CC0001128052385A202100000027617700000027617724/10/20210950    31903336240421964190000A04A1400001467560000000000000                                                                      ONDANSETRON SLN INY 8 MG/ 4 MLVAL     1
CC0001128052385A202100000027617700000027617724/10/20210950    31903336240421964190000N02B1100001169680000000000000                              PARACETAMOL 1000MG/100ML(10MG/ML) SOL INY  VIAL X 100ML FRESENIUS KABIVAL     1
CC0001128052385A202100000027617700000027617724/10/20210950    31903336240421964190000A2BC0900000200150000000000000                                                                               ORAZOLE Sln Iny 40 mgCIN     1
CC0001128052385A202100000027617700000027617724/10/20210950    31903336240421964190000N01A0400003939010000000000000                                               MAYOPROFOL 200MG/20ML(1%) EMUL INY CAJ X 1VIAL X 20MLVAL     1
CC0001128052385A202100000027617700000027617724/10/20210950    31903336240421964190000M01A0400001341250000000000000                                                                              DYNASTAT AMP 40 MG /R/VAL     1
CC0001128052385A202100000027617700000027617724/10/20210950    31903336240421964190000N2BB1100000217160000000000000                                                                      NOVALGINA Sln Iny 2.5 g x 5 mlAMP     1
CC0001128052385A202100000027617700000027617724/10/20210950    31903336240421964190000A4AD0200000202990000000000000                                                                     PLITICAN HCL Sln Iny 50 mg/2 mlAMP     1
CC0001128052385A202100000027617700000027617724/10/20210950    31903336240421964190000H02AB500001664950000000000000                                                            DEXAMETASONA SLN INY 8 MG/2 ML AMP /CDS/AMP     1
CC0001128052385A202100000027617700000027617724/10/20210950    31903336240421964190000N1BA2400001195280000000000000                                                                    LIDOCAINA 2% S/E Sln Iny x 10 mlAMP     1
CC0001128052385A202100000027617700000027617724/10/20210950    31903336240421964190000N1BA1400000220050000000000000                                                                 ROXICAINA 2% C/EPIN Sln Iny x 50 mlFCO     1
CC0001128052385A202100000027617700000027617724/10/20210950    31903336240421964190000N5CD0300000218170000000000000                                                                          DORMICUM Sln Iny 5 mg/5 mlAMP     1
CC0001128052385A202100000027617700000027617724/10/20210950    31903336240421964190000N2AA0700001587170000000000000                                                                                 ULTIVA Sln Iny 2 mgVAL     2
