TI0001066290448U202100000554915400000554915424/10/20211619     3300004239421964320000A2BC0900000200150000000000000                                                                               ORAZOLE Sln Iny 40 mgCIN     1
TI0001066290448U202100000554915400000554915424/10/20212013     3300004239421964320000A3BB0200000512940000000000000                                                                          BUSCAPINA SIMPLE Iny 20 mgAMP     1
TI0001066290448U202100000554915400000554915424/10/20211641    31500246239421964320000E1AD0300000199490000000000000                                         LACTATO RINGER USP (HARTMANN)  SOL INY  BOL X 1000ML BAXTERBIN     1
TI0001066290448U202100000554915400000554915424/10/20211947     3300004239421964320000A07C0500001628790000000000000                                                                          PEDIALYTE 45 C/ZINC 500 mlFCO     1
