CC0000055243081U202100050131355700050131355724/10/20212211    3150017723942196432000001956000001620610000000000000                                                                      CONECTOR MICRO CLAVE LAT-MC100SOB     1
CC0000055243081U202100050131355700050131355724/10/20212211    31500177239421964320000Q1AA7100000610620000000000000                                                            CATETER PERIFE INTROCAN # 18G 4251687-04SIN     1
CC0000055243081U202100050131355700050131355724/10/20212211    3150017723942196432000016830000000970620000000000000                                                             SIST FIJACION CAT PERIFERICO 6.5X7 1683SOB     1
