CC0000055163818H202100015032573400015032573424/10/20210420    3190297723742196425000022426800001140510000000000000                                                                    EQUIPO MACROGOTEO BAXTER MRC0001SOB     1
CC0000064549516H202100015032573400015032573424/10/20210420    3190297723742196425000001956000001620610000000000000                                                                      CONECTOR MICRO CLAVE LAT-MC100SOB     1
CC0000064549516H202100015032573400015032573424/10/20210420    31902977237421964250000Q1AA7200000610630000000000000                                                            CATETER PERIFE INTROCAN # 20G 4251644-04SIN     1
CC0000064549516H202100015032573400015032573424/10/20210420    31902977237421964250000Q1AA7300000610640000000000000                                                            CATETER PERIFE INTROCAN # 22G 4251628-04SIN     1
CC0000064549516H202100015032573400015032573424/10/20210420    3190297723742196425000016830000000970620000000000000                                                             SIST FIJACION CAT PERIFERICO 6.5X7 1683SOB     1
