CC0001032470223H202100000554906700000554906724/10/20210948    31500478237421964250000A2BC0900000200150000000000000                                                                               ORAZOLE Sln Iny 40 mgCIN     1
CC0001032470223H202100000554906700000554906724/10/20210948    31500478237421964250000A3BB0200000512940000000000000                                                                          BUSCAPINA SIMPLE Iny 20 mgAMP     2
CC0001032470223H202100000554906700000554906724/10/20210948    31500478237421964250000C1DA0300001334760000000000000                                                                                   ISOCORD TAB 10 MGCOM     2
CC0001032470223H202100000554906700000554906724/10/20210948    31500478237421964250000M01A0400001341250000000000000                                                                              DYNASTAT AMP 40 MG /R/VAL     2
CC0001032470223H202100000554906700000554906724/10/20210948    31500478237421964250000N2AX0500001204110000000000000                                                                          TRAMAL SLN INY 100 MG / MLAMP     3
CC0001032470223H202100000554906700000554906724/10/20210948    31500478237421964250000N02B1100001169680000000000000                              PARACETAMOL 1000MG/100ML(10MG/ML) SOL INY  VIAL X 100ML FRESENIUS KABIVAL     4
