CC0000008753953H202100015042505200015042505224/10/20211459    3190194023742196425000024675000001585130000000000000                                                                    JERINGA DESECHABLE 50 ml S/AGUJASOB     3
CC0000008753953H202100015042505200015042505224/10/20211459    3190194023742196425000024674500000322810000000000000                                                                   JERINGA DESECHABLE 20 ml 21*1 1/2SIN     3
TI0001047047240H202100015042505200015042505224/10/20211459    3190194023742196425000024674500000322810000000000000                                                                   JERINGA DESECHABLE 20 ml 21*1 1/2SIN     1
CC0000008753953H202100015042505200015042505224/10/20211459    3190194023742196425000024674000000220660000000000000                             JERINGA A 3 PARTES CON AGUJA  SOB X 1 RYMCO  10ML BN EXENTO-DC.417/2020SIN     3
RC0001043709109H202100015042505200015042505224/10/20211459    3190194023742196425000024674000000220660000000000000                             JERINGA A 3 PARTES CON AGUJA  SOB X 1 RYMCO  10ML BN EXENTO-DC.417/2020SIN     1
RC0001043709109H202100015042505200015042505224/10/20211459    3190194023742196425000043485100001618510000000000000                GUANTE QUIRURGICO DE LATEX REF 2D72N65X CAJ X 50 PROTEXIS  6.5 BN EXENTO-DC.417/2020SOB     1
TI0001047047240H202100015042505200015042505224/10/20211459    3190194023742196425000043485100001618510000000000000                GUANTE QUIRURGICO DE LATEX REF 2D72N65X CAJ X 50 PROTEXIS  6.5 BN EXENTO-DC.417/2020SOB     1
CC0000008753953H202100015042505200015042505224/10/20211459    3190194023742196425000011085400001083360000000000000                                                                       GUANTE QUIRURGICO TALLA 8 1/2SOB     2
CC0000008753953H202100015042505200015042505224/10/20211459    3190194023742196425000013077800000471960000000000000                                                             GASA NO TEJIDA EST 7.5 X 7.5 SOB X 3 UNSOB     4
RC0001043709109H202100015042505200015042505224/10/20211459    3190194023742196425000013077800000471960000000000000                                                             GASA NO TEJIDA EST 7.5 X 7.5 SOB X 3 UNSOB     2
TI0001047047240H202100015042505200015042505224/10/20211459    3190194023742196425000013077800000471960000000000000                                                             GASA NO TEJIDA EST 7.5 X 7.5 SOB X 3 UNSOB     2
CC0000008753953H202100015042505200015042505224/10/20211459    3190194023742196425000011082900001233450000000000000                                                               EQUIPO LC 5000 PRIMARIO FOTOPRO 0L218SOB     1
RC0001043709109H202100015042505200015042505224/10/20211459    3190194023742196425000011082700001620070000000000000                                                               EQUIPO SET PRIMARIO C/CLAVE REF 14001BOL     1
TI0001047047240H202100015042505200015042505224/10/20211459    3190194023742196425000011082700001620070000000000000                                                               EQUIPO SET PRIMARIO C/CLAVE REF 14001BOL     1
CC0000008753953H202100015042505200015042505224/10/20211459    3190194023742196425000030936900001431840000000000000                                                                                              BURETABOL     2
CC0000008753953H202100015042505200015042505224/10/20211459    3190194023742196425000020009800000546950000000000000                                                                        BOLSA EVA PINNACLE X 2000 MLBOL     1
CC0000008753953H202100015042505200015042505224/10/20211459    3190194023742196425000000100600000223090000000000000                                                                      AGUJA DESECHABLE 18G X 1 1/2 PSIN     4
RC0001043709109H202100015042505200015042505224/10/20211459    3190194023742196425000000100600000223090000000000000                                                                      AGUJA DESECHABLE 18G X 1 1/2 PSIN     1
TI0001047047240H202100015042505200015042505224/10/20211459    3190194023742196425000000100600000223090000000000000                                                                      AGUJA DESECHABLE 18G X 1 1/2 PSIN     1
RC0001043709109H202100015042505200015042505224/10/20211459    31901940237421964250000E1AB0700003888350000000000000                                                            SOLUCION SALINA 0.9% SLN INY BO X 250 MLBOL     1
TI0001047047240H202100015042505200015042505224/10/20211459    31901940237421964250000E1AB0700003888350000000000000                                                            SOLUCION SALINA 0.9% SLN INY BO X 250 MLBOL     1
