CC0000036724804H202100000554898100000554898124/10/20210829     3300009237421964250000A2BC0100001277990000000000000                                                                                   ORAZOLE CAP 20 MGCAP     1
CC0000036724804H202100000554898100000554898124/10/20212032     3300009237421964250000A07F0300000547060000000000000                                                              ENTEROGERMINA SUSP ORAL AMP X 5 ML /R/VAL     2
CC0000036724804H202100000554898100000554898124/10/20211513     3300009237421964250000A07F0300000547060000000000000                                                              ENTEROGERMINA SUSP ORAL AMP X 5 ML /R/VAL     1
CC0000036724804H202100000554898100000554898124/10/20210829     3300009237421964250000A07F0300000547060000000000000                                                              ENTEROGERMINA SUSP ORAL AMP X 5 ML /R/VAL     2
CC0000036724804H202100000554898100000554898124/10/20211516     3300009237421964250000A2DA1400001333780000000000000                                                                         PANZYTRAT CAP 25.000 UI /R/CAP     3
CC0000036724804H202100000554898100000554898124/10/20210830     3300009237421964250000A11C0600001389430000000000000                                                                             CALCITRIOL CAP 0.25 MCGCAP     1
CC0000036724804H202100000554898100000554898124/10/20211513     3300009237421964250000V3AB2200000614150000000000000                                                            GLUCONATO CALCIO SLN INY 10% AMP X 10 MLAPC     2
CC0000036724804H202100000554898100000554898124/10/20210829     3300009237421964250000B03A0100001336630000000000000                                                                          SULFATO FERROSO Tab 200 mgTAB     1
CC0000036724804H202100000554898100000554898124/10/20211553    31903288237421964250000E1AB0200000199290000000000000                                                            SOLUCION SALINA 0.9% SLN INY BO X 100 MLBIN     4
CC0000036724804H202100000554898100000554898124/10/20211058    31903288237421964250000E1AB0300003888390000000000000                                                            SOLUCION SALINA 0.9% SLN INY BO X 500 MLBOL     1
CC0000036724804H202100000554898100000554898124/10/20210519    31902445237421964250000E1AB0300003888390000000000000                                                            SOLUCION SALINA 0.9% SLN INY BO X 500 MLBOL     1
CC0000036724804H202100000554898100000554898124/10/20210829     3300009237421964250000C3CA0200000195520000000000000                                                                           LASIX SLN INY 20 MG/ 2 MLAMP     2
CC0000036724804H202100000554898100000554898124/10/20211101     3300009237421964250000D04AX800000211800000000000000                                                                       PROCICAR NF CREMA TUBO X 60 GCIN     1
CC0000036724804H202100000554898100000554898124/10/20210829     3300009237421964250000S2BA1400000947290000000000000                                                            SOLU MEDROL POLVO SLN INY 500 MG/4 ML/R/VAL     1
CC0000036724804H202100000554898100000554898124/10/20210830     3300009237421964250000H03A0400001278890000000000000                                                                                  EUTIROX TAB 50 MCGTAB     1
CC0000036724804H202100000554898100000554898124/10/20211513     3300009237421964250000J1KF0200001677230000000000000                                                                      MERONEM POLVO SLN INY 1 G  /R/VAL     1
CC0000036724804H202100000554898100000554898124/10/20210829     3300009237421964250000J1KF0200001677230000000000000                                                                      MERONEM POLVO SLN INY 1 G  /R/VAL     2
CC0000036724804H202100000554898100000554898124/10/20210830     3300009237421964250000J02A0200000191070000000000000                                                            CANCIDAS POLVO LIOF SLN INY AMP 50MG /R/VAL     1
CC0000036724804H202100000554898100000554898124/10/20212243     3300009237421964250000N02B1100001169680000000000000                              PARACETAMOL 1000MG/100ML(10MG/ML) SOL INY  VIAL X 100ML FRESENIUS KABIVAL     1
CC0000036724804H202100000554898100000554898124/10/20212152     3300009237421964250000N05C0800001314910000000000000                                                                                ISOKLON TAB 3 MG /R/TAB     1
