CC0000032734764H202100911892102400911892102424/10/20212014    3150029523742196425000011082700001620070000000000000                                                               EQUIPO SET PRIMARIO C/CLAVE REF 14001BOL     1
CC0000032734764H202100911892102400911892102424/10/20212014    3150029523742196425000030936900001431840000000000000                                                                                              BURETABOL     1
CC0000032734764H202100911892102400911892102424/10/20212014    31500295237421964250000E1AD0200003888320000000000000                                                                              HARTMAN SLN INY 500 MLBOL     1
