CC0000022736638H202100000554919700000554919724/10/20212243     3300009237421964250000A2BC0900000200150000000000000                                                                               ORAZOLE Sln Iny 40 mgCIN     1
CC0000022736638H202100000554919700000554919724/10/20212242     3300009237421964250000A4AD0200000202990000000000000                                                                     PLITICAN HCL Sln Iny 50 mg/2 mlAMP     2
CC0000022736638H202100000554919700000554919724/10/20212243     3300009237421964250000B1AB0200003939510000000000000                 ENOXAPARINA SODICA 40MG/0.4ML(100MG/ML) SOL INY INST CAJ X 2JERPREL X 0.4ML TECHDOWJRP     1
CC0000022736638H202100000554919700000554919724/10/20212242     3300009237421964250000M01A0400001341250000000000000                                                                              DYNASTAT AMP 40 MG /R/VAL     2
CC0000022736638H202100000554919700000554919724/10/20212248     3300009237421964250000N2BB0500000217140000000000000                                                                          NOVALGINA Sln Iny 1 g/2 mlAMP     8
CC0000022736638H202100000554919700000554919724/10/20212243     3300009237421964250000N5BB0300000554910000000000000                                                                         HIDERAX SLN INY 100 MG/2 MLAMP     1
