RC0001063188067H202100015122505800015122505824/10/20212210    3190296023742196425000011082200001407940000000000000                                                              EQUIPO EXT MICROTUBO Y 2 VALVUL 2N8371SOB     1
RC0001063188067H202100015122505800015122505824/10/20212210    3190296023742196425000001956000001620610000000000000                                                                      CONECTOR MICRO CLAVE LAT-MC100SOB     1
RC0001063188067H202100015122505800015122505824/10/20212210    31902960237421964250000Q1AA7300000610640000000000000                                                            CATETER PERIFE INTROCAN # 22G 4251628-04SIN     1
RC0001063188067H202100015122505800015122505824/10/20212210    31902960237421964250000Q1AA7400003911720000000000000                                                            CATETER PERIFE INTROCAN # 24G 4251601-04SOB     2
TI0001080436271H202100015122505800015122505824/10/20212210    31902960237421964250000E1AD0200003888320000000000000                                                                              HARTMAN SLN INY 500 MLBOL     2
TI0001073826213H202100015122505800015122505824/10/20212210    31902960237421964250000E1AB0700003888350000000000000                                                            SOLUCION SALINA 0.9% SLN INY BO X 250 MLBOL     1
RC0001187466818H202100015122505800015122505824/10/20212210    31902960237421964250000E1AC0100000199400000000000000                                                                          SUERO MIXTO Sln Iny 500 mlBIN     1
