CC0000072428894H202100913494102400913494102424/10/20210057    3150038723742196425000021593100001571610000000000000                                                                    AQUACEL AG+ EXTRA 10*10CM 413567SOB     1
CC0000072428894H202100913494102400913494102424/10/20211117    31900926237421964250000Q1A13500001585200000000000000                        JERINGA PUNTA CAT SIN AGUJA REF 309620 CAJ X 40   50ML BN EXENTO-DC.417/2020SOB     3
CC0000072428894H202100913494102400913494102424/10/20211117    31900926237421964250000E1AD0300000199490000000000000                                         LACTATO RINGER USP (HARTMANN)  SOL INY  BOL X 1000ML BAXTERBIN     6
CC0000072428894H202100913494102400913494102424/10/20211117    31900926237421964250000E1AB0200000199290000000000000                                                            SOLUCION SALINA 0.9% SLN INY BO X 100 MLBIN    30
CC0000072428894H202100913494102400913494102424/10/20211117    3190092623742196425000011137100001419310000000000000                                                               TIRA GLUCOMETRIA FREESTYLE H OPTIUM .PZA     9
CC0000072428894H202100913494102400913494102424/10/20211117    3190092623742196425000045136100001419300000000000000                                                                            LANCETA DEXTROMETER X UNPZA     9
CC0000072428894H202100913494102400913494102424/10/20211117    3190092623742196425000024674000000220660000000000000                             JERINGA A 3 PARTES CON AGUJA  SOB X 1 RYMCO  10ML BN EXENTO-DC.417/2020SIN    45
CC0000072428894H202100913494102400913494102424/10/20211118    3150055523742196425000045136100001419300000000000000                                                                            LANCETA DEXTROMETER X UNPZA     9
CC0000072428894H202100913494102400913494102424/10/20211118    3150055523742196425000011137100001419310000000000000                                                               TIRA GLUCOMETRIA FREESTYLE H OPTIUM .PZA     9
CC0000072428894H202100913494102400913494102424/10/20211118    31500555237421964250000E1AB0200000199290000000000000                                                            SOLUCION SALINA 0.9% SLN INY BO X 100 MLBIN    30
CC0000072428894H202100913494102400913494102424/10/20211118    3150055523742196425000024674000000220660000000000000                             JERINGA A 3 PARTES CON AGUJA  SOB X 1 RYMCO  10ML BN EXENTO-DC.417/2020SIN    45
CC0000072428894H202100913494102400913494102424/10/20211118    31500555237421964250000E1AD0300000199490000000000000                                         LACTATO RINGER USP (HARTMANN)  SOL INY  BOL X 1000ML BAXTERBIN     6
CC0000072428894H202100913494102400913494102424/10/20211118    31500555237421964250000Q1A13500001585200000000000000                        JERINGA PUNTA CAT SIN AGUJA REF 309620 CAJ X 40   50ML BN EXENTO-DC.417/2020SOB     3
