RC0001046738060U202100050131348600050131348624/10/20210904    3150024623942196432000045136100001419300000000000000                                                                            LANCETA DEXTROMETER X UNPZA     1
RC0001046738060U202100050131348600050131348624/10/20210904    3150024623942196432000024673000001411210000000000000                                                                  JERINGA DESECHABLE 3 ML 21 X 1 1/2SOB     1
RC0001046738060U202100050131348600050131348624/10/20210904    3150024623942196432000042743200003929860000000000000                   GASA ADHESIVA STRETCH REF 02038-00 ROL X 10MT FIXOMULL 15CM BN EXENTO-DC.417/2020CMT    20
RC0001046738060U202100050131348600050131348624/10/20210904    3150024623942196432000011082700001620070000000000000                                                               EQUIPO SET PRIMARIO C/CLAVE REF 14001BOL     1
RC0001046738060U202100050131348600050131348624/10/20210904    31500246239421964320000Q1AA7400003911720000000000000                                                            CATETER PERIFE INTROCAN # 24G 4251601-04SOB     1
RC0001046738060U202100050131348600050131348624/10/20210904    3150024623942196432000030936900001431840000000000000                                                                                              BURETABOL     1
RC0001046738060U202100050131348600050131348624/10/20210904    31500246239421964320000E1AD0200003888320000000000000                                                                              HARTMAN SLN INY 500 MLBOL     1
RC0001046738060U202100050131348600050131348624/10/20210904    3150024623942196432000011137100001419310000000000000                                                               TIRA GLUCOMETRIA FREESTYLE H OPTIUM .PZA     1
