TI0001082997584H202100015052692000015052692024/10/20212102    3190182623742196425000043485100001618510000000000000                GUANTE QUIRURGICO DE LATEX REF 2D72N65X CAJ X 50 PROTEXIS  6.5 BN EXENTO-DC.417/2020SOB     1
CC0001143269433H202100015052692000015052692024/10/20212102    3190182623742196425000043485100001618510000000000000                GUANTE QUIRURGICO DE LATEX REF 2D72N65X CAJ X 50 PROTEXIS  6.5 BN EXENTO-DC.417/2020SOB     1
CC0001143250996H202100015052692000015052692024/10/20212102    3190182623742196425000011085100001082120000000000000                                                                           GUANTE QUIRURGICO TALLA 7SOB     1
CC0001045685077H202100015052692000015052692024/10/20212102    3190182623742196425000011085100001082120000000000000                                                                           GUANTE QUIRURGICO TALLA 7SOB     1
CC0000008757431H202100015052692000015052692024/10/20212102    3190182623742196425000011085100001082120000000000000                                                                           GUANTE QUIRURGICO TALLA 7SOB     1
