CC0001129567244U202100000554914500000554914524/10/20211623    31500617239421964320000E1AB0200000199290000000000000                                                            SOLUCION SALINA 0.9% SLN INY BO X 100 MLBIN     1
CC0001129567244U202100000554914500000554914524/10/20211644    31901143239421964320000E1AB0300003888390000000000000                                                            SOLUCION SALINA 0.9% SLN INY BO X 500 MLBOL     1
CC0001129567244U202100000554914500000554914524/10/20212040     3300004239421964320000J06B3000001332290000000000000                                                                RHOPHYLAC SLN INY 300 MCG X 2 ML /R/VAL     1
CC0001129567244U202100000554914500000554914524/10/20211525     3300004239421964320000A03F0500001692520000000000000                                                                   ALIZAPRIDA HCL SLN INY 50 MG/2 MLAMP     1
CC0001129567244U202100000554914500000554914524/10/20211525     3300004239421964320000A03BB100003889180000000000000                                      HIOSCINA BUTIL BROMURO 20MG/ML SOL INY CAJ X 100AMP X 1ML RYANAMP     1
