TI0001044214728U202100000554918600000554918624/10/20212126    31902864239421964320000E1AB0300003888390000000000000                                                            SOLUCION SALINA 0.9% SLN INY BO X 500 MLBOL     1
TI0001044214728U202100000554918600000554918624/10/20212051     3300004239421964320000H02AB500001664950000000000000                                                            DEXAMETASONA SLN INY 8 MG/2 ML AMP /CDS/AMP     1
TI0001044214728U202100000554918600000554918624/10/20212051     3300004239421964320000M1AB0900001019600000000000000                                                                              VOLTAREN Sln Iny 75 mgAMP     1
TI0001044214728U202100000554918600000554918624/10/20212253     3300004239421964320000N02B1100001169680000000000000                              PARACETAMOL 1000MG/100ML(10MG/ML) SOL INY  VIAL X 100ML FRESENIUS KABIVAL     1
