CC0000022372355H202100000554901800000554901824/10/20210641    31901151237421964250000C2AC0100001277460000000000000                                                                              CATAPRESAN TAB 150 MCGCOM     2
CC0000022372355H202100000554901800000554901824/10/20210642    31901151237421964250000C3AA0100001315100000000000000                                                                         HIDROCLOROTIAZIDA TAB 25 MGTAB     1
CC0000022372355H202100000554901800000554901824/10/20210642    31901151237421964250000C09C0200001335330000000000000                                                                              MICARDIS TAB 80 MG /R/COM     1
CC0000022372355H202100000554901800000554901824/10/20210642    31901151237421964250000J01DA300001239950000000000000                                                            CEFAZOLINA SODICA POLVO LIOF SLN INY 1 GVAL     2
CC0000022372355H202100000554901800000554901824/10/20210642    31901151237421964250000N2BB1100000217160000000000000                                                                      NOVALGINA Sln Iny 2.5 g x 5 mlAMP     3
CC0000022372355H202100000554901800000554901824/10/20210641    31901151237421964250000N02B1100001169680000000000000                              PARACETAMOL 1000MG/100ML(10MG/ML) SOL INY  VIAL X 100ML FRESENIUS KABIVAL     2
CC0000022372355H202100000554901800000554901824/10/20210642    31901151237421964250000M1AX0200001569410000000000000                                                                         KETRON SLN INY 30 MG / 2 MLAMP     2
CC0000022372355H202100000554901800000554901824/10/20210642    31901151237421964250000N2AA0100000301640000000000000                                                                            MORFINA Sln Iny 10 mg/mlAMP     1
CC0000022372355H202100000554901800000554901824/10/20210642    31901151237421964250000A04AA200003932460000000000000                                                 ONDAX 4MG/2ML(2MG/ML) SOL INY INST CAJ X 1AMP X 2MLAMP     4
