TI0001082997584U202100050131347000050131347024/10/20210225    3150017723942196432000024674000000220660000000000000                             JERINGA A 3 PARTES CON AGUJA  SOB X 1 RYMCO  10ML BN EXENTO-DC.417/2020SIN     2
CC0001129498209U202100050131347000050131347024/10/20210225    3150017723942196432000024674000000220660000000000000                             JERINGA A 3 PARTES CON AGUJA  SOB X 1 RYMCO  10ML BN EXENTO-DC.417/2020SIN     2
TI0001082997584U202100050131347000050131347024/10/20210225    3150017723942196432000011082700001620070000000000000                                                               EQUIPO SET PRIMARIO C/CLAVE REF 14001BOL     1
TI0001082997584U202100050131347000050131347024/10/20210225    31500177239421964320000Q1AA7300000610640000000000000                                                            CATETER PERIFE INTROCAN # 22G 4251628-04SIN     1
TI0001082997584U202100050131347000050131347024/10/20210225    3150017723942196432000030936900001431840000000000000                                                                                              BURETABOL     1
TI0001082997584U202100050131347000050131347024/10/20210225    3150017723942196432000000602600001259280000000000000                                                             APOSITO TEGADERM IV PD 1610 5CM X 5.7CMSOB     1
TI0001082997584U202100050131347000050131347024/10/20210225    31500177239421964320000E1AD0200003888320000000000000                                                                              HARTMAN SLN INY 500 MLBOL     1
