RC0001025077214U202100050131354800050131354824/10/20212102    3190100323942196432000011048600000223020000000000000                                                                 JERINGA VACUNACION 3ML C/AGU 302542SIN     1
RC0001025077214U202100050131354800050131354824/10/20212102    3190100323942196432000011082700001620070000000000000                                                               EQUIPO SET PRIMARIO C/CLAVE REF 14001BOL     1
RC0001025077214U202100050131354800050131354824/10/20212102    31901003239421964320000Q1AA7400003911720000000000000                                                            CATETER PERIFE INTROCAN # 24G 4251601-04SOB     1
RC0001025077214U202100050131354800050131354824/10/20212102    3190100323942196432000000602600001259280000000000000                                                             APOSITO TEGADERM IV PD 1610 5CM X 5.7CMSOB     1
RC0001025077214U202100050131354800050131354824/10/20212102    31901003239421964320000E1AD0200003888320000000000000                                                                              HARTMAN SLN INY 500 MLBOL     1
