CC0001143452132U202100000554919200000554919224/10/20212247    31902864239421964320000E1AB0300003888390000000000000                                                            SOLUCION SALINA 0.9% SLN INY BO X 500 MLBOL     1
CC0001143452132U202100000554919200000554919224/10/20212247     3300004239421964320000C2DE1400001277050000000000000                                                                         NIFEDIPINO CAPSULA LM 30 MGCAP     1
CC0001143452132U202100000554919200000554919224/10/20212247     3300004239421964320000H02AB900001434990000000000000                                                                      BETAMETASONA SLN INY 4 MG / MLAMP     3
CC0001143452132U202100000554919200000554919224/10/20212155     3300004239421964320000A03BB100003889180000000000000                                      HIOSCINA BUTIL BROMURO 20MG/ML SOL INY CAJ X 100AMP X 1ML RYANAMP     1
CC0001143452132U202100000554919200000554919224/10/20212248     3300004239421964320000N2BE2200001252930000000000000                                                                             ACETAMINOFEN Tab 500 MGTAB     2
