TI0001046715547H202100000554917200000554917224/10/20211804     3300009237421964250000A2BC0900000200150000000000000                                                                               ORAZOLE Sln Iny 40 mgCIN     1
TI0001046715547H202100000554917200000554917224/10/20211750    31500075237421964250000E1AD0300000199490000000000000                                         LACTATO RINGER USP (HARTMANN)  SOL INY  BOL X 1000ML BAXTERBIN     4
TI0001046715547H202100000554917200000554917224/10/20212122     3300009237421964250000N5BB0100001458430000000000000                                                                    HIDERAX Jbe 25 mg/10 ml x 120 mlFCO     1
