CC0000085373210A202100000027622800000027622824/10/20210000    31903336240421964190000N01A0400003939010000000000000                                               MAYOPROFOL 200MG/20ML(1%) EMUL INY CAJ X 1VIAL X 20MLVAL     1
CC0000085373210A202100000027622800000027622824/10/20210000    3190333624042196419000011075700000235270000000000000                                                                  CABESTRILLO SENC REF KM2000 ADULTOBOL     1
CC0000085373210A202100000027622800000027622824/10/20210000    31903336240421964190000E1AB0300003888390000000000000                                                            SOLUCION SALINA 0.9% SLN INY BO X 500 MLBOL     1
CC0000085373210A202100000027622800000027622824/10/20210000    3190333624042196419000022425200000548240000000000000                       EXTENSION DE ANESTESIA REF 1139 SOB X 1 SHERLEG  ADULTO BN EXENTO-DC.417/2020SIN     1
CC0000085373210A202100000027622800000027622824/10/20210000    3190333624042196419000035356500003919000000000000000                                                                                        LLAVE 3 VIASSOB     1
CC0000085373210A202100000027622800000027622824/10/20210000    3190333624042196419000022426800001140510000000000000                                                                    EQUIPO MACROGOTEO BAXTER MRC0001SOB     1
CC0000085373210A202100000027622800000027622824/10/20210000    3190333624042196419000038568100000258050000000000000                                                                         CANULA OXIGENO NASAL ADULTOSIN     1
CC0000085373210A202100000027622800000027622824/10/20210000    31903336240421964190000N1AH0200003906560000000000000                                                                     FENTANIL Iny 0.05 mg/ml x 10 mlAMP     1
