TI0001073826213H202100015122505300015122505324/10/20210739    3190330723742196425000024673000001411210000000000000                                                                  JERINGA DESECHABLE 3 ML 21 X 1 1/2SOB    10
RC0001063188067H202100015122505300015122505324/10/20210739    3190330723742196425000024673000001411210000000000000                                                                  JERINGA DESECHABLE 3 ML 21 X 1 1/2SOB    10
RC0001187466818H202100015122505300015122505324/10/20210739    3190330723742196425000024673000001411210000000000000                                                                  JERINGA DESECHABLE 3 ML 21 X 1 1/2SOB    10
RC0001158467183H202100015122505300015122505324/10/20210739    3190330723742196425000024673000001411210000000000000                                                                  JERINGA DESECHABLE 3 ML 21 X 1 1/2SOB    10
RC0001146543698H202100015122505300015122505324/10/20210739    3190330723742196425000024673000001411210000000000000                                                                  JERINGA DESECHABLE 3 ML 21 X 1 1/2SOB    10
TI0001042592574H202100015122505300015122505324/10/20210739    3190330723742196425000024673000001411210000000000000                                                                  JERINGA DESECHABLE 3 ML 21 X 1 1/2SOB    10
RC0001043714288H202100015122505300015122505324/10/20210739    3190330723742196425000024673000001411210000000000000                                                                  JERINGA DESECHABLE 3 ML 21 X 1 1/2SOB    10
RC0001046723141H202100015122505300015122505324/10/20210739    3190330723742196425000024673000001411210000000000000                                                                  JERINGA DESECHABLE 3 ML 21 X 1 1/2SOB    10
TI0001073826213H202100015122505300015122505324/10/20210739    3190330723742196425000024674000000220660000000000000                             JERINGA A 3 PARTES CON AGUJA  SOB X 1 RYMCO  10ML BN EXENTO-DC.417/2020SIN    10
RC0001063188067H202100015122505300015122505324/10/20210739    3190330723742196425000024674000000220660000000000000                             JERINGA A 3 PARTES CON AGUJA  SOB X 1 RYMCO  10ML BN EXENTO-DC.417/2020SIN    10
RC0001187466818H202100015122505300015122505324/10/20210739    3190330723742196425000024674000000220660000000000000                             JERINGA A 3 PARTES CON AGUJA  SOB X 1 RYMCO  10ML BN EXENTO-DC.417/2020SIN    10
RC0001158467183H202100015122505300015122505324/10/20210739    3190330723742196425000024674000000220660000000000000                             JERINGA A 3 PARTES CON AGUJA  SOB X 1 RYMCO  10ML BN EXENTO-DC.417/2020SIN    10
RC0001146543698H202100015122505300015122505324/10/20210739    3190330723742196425000024674000000220660000000000000                             JERINGA A 3 PARTES CON AGUJA  SOB X 1 RYMCO  10ML BN EXENTO-DC.417/2020SIN    10
TI0001042592574H202100015122505300015122505324/10/20210739    3190330723742196425000024674000000220660000000000000                             JERINGA A 3 PARTES CON AGUJA  SOB X 1 RYMCO  10ML BN EXENTO-DC.417/2020SIN    10
RC0001043714288H202100015122505300015122505324/10/20210739    3190330723742196425000024674000000220660000000000000                             JERINGA A 3 PARTES CON AGUJA  SOB X 1 RYMCO  10ML BN EXENTO-DC.417/2020SIN    10
RC0001046723141H202100015122505300015122505324/10/20210739    3190330723742196425000024674000000220660000000000000                             JERINGA A 3 PARTES CON AGUJA  SOB X 1 RYMCO  10ML BN EXENTO-DC.417/2020SIN    10
TI0001073826213H202100015122505300015122505324/10/20210739    3190330723742196425000013077800000471960000000000000                                                             GASA NO TEJIDA EST 7.5 X 7.5 SOB X 3 UNSOB     2
RC0001063188067H202100015122505300015122505324/10/20210739    3190330723742196425000013077800000471960000000000000                                                             GASA NO TEJIDA EST 7.5 X 7.5 SOB X 3 UNSOB     2
RC0001187466818H202100015122505300015122505324/10/20210739    3190330723742196425000013077800000471960000000000000                                                             GASA NO TEJIDA EST 7.5 X 7.5 SOB X 3 UNSOB     2
RC0001158467183H202100015122505300015122505324/10/20210739    3190330723742196425000013077800000471960000000000000                                                             GASA NO TEJIDA EST 7.5 X 7.5 SOB X 3 UNSOB     2
RC0001146543698H202100015122505300015122505324/10/20210739    3190330723742196425000013077800000471960000000000000                                                             GASA NO TEJIDA EST 7.5 X 7.5 SOB X 3 UNSOB     2
TI0001042592574H202100015122505300015122505324/10/20210739    3190330723742196425000013077800000471960000000000000                                                             GASA NO TEJIDA EST 7.5 X 7.5 SOB X 3 UNSOB     2
RC0001043714288H202100015122505300015122505324/10/20210739    3190330723742196425000013077800000471960000000000000                                                             GASA NO TEJIDA EST 7.5 X 7.5 SOB X 3 UNSOB     2
RC0001046723141H202100015122505300015122505324/10/20210739    3190330723742196425000013077800000471960000000000000                                                             GASA NO TEJIDA EST 7.5 X 7.5 SOB X 3 UNSOB     2
RC0001063188067H202100015122505300015122505324/10/20210739    3190330723742196425000011082700001620070000000000000                                                               EQUIPO SET PRIMARIO C/CLAVE REF 14001BOL     2
RC0001063188067H202100015122505300015122505324/10/20210739    3190330723742196425000030936900001431840000000000000                                                                                              BURETABOL     1
RC0001146543698H202100015122505300015122505324/10/20210739    3190330723742196425000030936900001431840000000000000                                                                                              BURETABOL     1
TI0001073826213H202100015122505300015122505324/10/20210739    3190330723742196425000000602600001259280000000000000                                                             APOSITO TEGADERM IV PD 1610 5CM X 5.7CMSOB     1
RC0001063188067H202100015122505300015122505324/10/20210739    3190330723742196425000000602600001259280000000000000                                                             APOSITO TEGADERM IV PD 1610 5CM X 5.7CMSOB     1
RC0001187466818H202100015122505300015122505324/10/20210739    3190330723742196425000000602600001259280000000000000                                                             APOSITO TEGADERM IV PD 1610 5CM X 5.7CMSOB     1
RC0001046723141H202100015122505300015122505324/10/20210739    3190330723742196425000000602600001259280000000000000                                                             APOSITO TEGADERM IV PD 1610 5CM X 5.7CMSOB     1
TI0001073826213H202100015122505300015122505324/10/20210739    31903307237421964250000E1BA0100000198890000000000000                                                                   AGUA ESTERIL USP SLN INY X 500 MLBIN     1
RC0001063188067H202100015122505300015122505324/10/20210739    31903307237421964250000E1BA0100000198890000000000000                                                                   AGUA ESTERIL USP SLN INY X 500 MLBIN     1
RC0001187466818H202100015122505300015122505324/10/20210739    31903307237421964250000E1BA0100000198890000000000000                                                                   AGUA ESTERIL USP SLN INY X 500 MLBIN     1
TI0001073826213H202100015122505300015122505324/10/20210739    31903307237421964250000E1AA1400003888550000000000000                                                                         DEXTROSA 10% SLN INY 250 MLBOL     1
TI0001073826213H202100015122505300015122505324/10/20210739    31903307237421964250000E1AD0300000199490000000000000                                         LACTATO RINGER USP (HARTMANN)  SOL INY  BOL X 1000ML BAXTERBIN     4
RC0001158467183H202100015122505300015122505324/10/20210739    31903307237421964250000E1AD0300000199490000000000000                                         LACTATO RINGER USP (HARTMANN)  SOL INY  BOL X 1000ML BAXTERBIN     3
TI0001042592574H202100015122505300015122505324/10/20210739    31903307237421964250000E1AD0300000199490000000000000                                         LACTATO RINGER USP (HARTMANN)  SOL INY  BOL X 1000ML BAXTERBIN     3
RC0001146543698H202100015122505300015122505324/10/20210739    31903307237421964250000E1AB0300003888390000000000000                                                            SOLUCION SALINA 0.9% SLN INY BO X 500 MLBOL     1
RC0001063188067H202100015122505300015122505324/10/20210739    31903307237421964250000E1AB0700003888350000000000000                                                            SOLUCION SALINA 0.9% SLN INY BO X 250 MLBOL     1
RC0001187466818H202100015122505300015122505324/10/20210739    31903307237421964250000E1AB0700003888350000000000000                                                            SOLUCION SALINA 0.9% SLN INY BO X 250 MLBOL     1
RC0001146543698H202100015122505300015122505324/10/20210739    31903307237421964250000E1AB0700003888350000000000000                                                            SOLUCION SALINA 0.9% SLN INY BO X 250 MLBOL     1
RC0001043714288H202100015122505300015122505324/10/20210739    31903307237421964250000E1AB0700003888350000000000000                                                            SOLUCION SALINA 0.9% SLN INY BO X 250 MLBOL     1
RC0001046723141H202100015122505300015122505324/10/20210739    31903307237421964250000E1AB0700003888350000000000000                                                            SOLUCION SALINA 0.9% SLN INY BO X 250 MLBOL     1
TI0001073826213H202100015122505300015122505324/10/20210739    31903307237421964250000E1AB1100003888280000000000000                                                                        SOLUCION SALINA 0.9% X 50 mlBOL     2
RC0001063188067H202100015122505300015122505324/10/20210739    31903307237421964250000E1AB1100003888280000000000000                                                                        SOLUCION SALINA 0.9% X 50 mlBOL     2
RC0001187466818H202100015122505300015122505324/10/20210739    31903307237421964250000E1AB1100003888280000000000000                                                                        SOLUCION SALINA 0.9% X 50 mlBOL     2
RC0001158467183H202100015122505300015122505324/10/20210739    31903307237421964250000E1AB1100003888280000000000000                                                                        SOLUCION SALINA 0.9% X 50 mlBOL     2
RC0001146543698H202100015122505300015122505324/10/20210739    31903307237421964250000E1AB1100003888280000000000000                                                                        SOLUCION SALINA 0.9% X 50 mlBOL     2
TI0001042592574H202100015122505300015122505324/10/20210739    31903307237421964250000E1AB1100003888280000000000000                                                                        SOLUCION SALINA 0.9% X 50 mlBOL     2
RC0001043714288H202100015122505300015122505324/10/20210739    31903307237421964250000E1AB1100003888280000000000000                                                                        SOLUCION SALINA 0.9% X 50 mlBOL     2
RC0001046723141H202100015122505300015122505324/10/20210739    31903307237421964250000E1AB1100003888280000000000000                                                                        SOLUCION SALINA 0.9% X 50 mlBOL     2
RC0001187466818H202100015122505300015122505324/10/20210739    31903307237421964250000E1AC0100000199400000000000000                                                                          SUERO MIXTO Sln Iny 500 mlBIN     1
RC0001046723141H202100015122505300015122505324/10/20210739    31903307237421964250000E1AC0100000199400000000000000                                                                          SUERO MIXTO Sln Iny 500 mlBIN     1
