CC0000009654659H202100912916102400912916102424/10/20211117    3190092623742196425000011127400001413910000000000000                                                            EQUIPO ADMINIST NUTR PUNZON REF 674669 BBOL     2
CC0000009654659H202100912916102400912916102424/10/20211117    3190092623742196425000011137100001419310000000000000                                                               TIRA GLUCOMETRIA FREESTYLE H OPTIUM .PZA     6
CC0000009654659H202100912916102400912916102424/10/20211117    31900926237421964250000Q1A13500001585200000000000000                        JERINGA PUNTA CAT SIN AGUJA REF 309620 CAJ X 40   50ML BN EXENTO-DC.417/2020SOB     2
CC0000009654659H202100912916102400912916102424/10/20211117    31900926237421964250000E1AB0200000199290000000000000                                                            SOLUCION SALINA 0.9% SLN INY BO X 100 MLBIN    20
CC0000009654659H202100912916102400912916102424/10/20211117    3190092623742196425000045136100001419300000000000000                                                                            LANCETA DEXTROMETER X UNPZA     6
CC0000009654659H202100912916102400912916102424/10/20211117    3190092623742196425000024674000000220660000000000000                             JERINGA A 3 PARTES CON AGUJA  SOB X 1 RYMCO  10ML BN EXENTO-DC.417/2020SIN    30
CC0000009654659H202100912916102400912916102424/10/20211118    3150055523742196425000011127400001413910000000000000                                                            EQUIPO ADMINIST NUTR PUNZON REF 674669 BBOL     2
CC0000009654659H202100912916102400912916102424/10/20211118    3150055523742196425000011137100001419310000000000000                                                               TIRA GLUCOMETRIA FREESTYLE H OPTIUM .PZA     6
CC0000009654659H202100912916102400912916102424/10/20211118    31500555237421964250000Q1A13500001585200000000000000                        JERINGA PUNTA CAT SIN AGUJA REF 309620 CAJ X 40   50ML BN EXENTO-DC.417/2020SOB     2
CC0000009654659H202100912916102400912916102424/10/20211118    31500555237421964250000E1AB0200000199290000000000000                                                            SOLUCION SALINA 0.9% SLN INY BO X 100 MLBIN    20
CC0000009654659H202100912916102400912916102424/10/20211118    3150055523742196425000045136100001419300000000000000                                                                            LANCETA DEXTROMETER X UNPZA     6
CC0000009654659H202100912916102400912916102424/10/20211118    3150055523742196425000024674000000220660000000000000                             JERINGA A 3 PARTES CON AGUJA  SOB X 1 RYMCO  10ML BN EXENTO-DC.417/2020SIN    30
