RC0001220469205H202100015012563300015012563324/10/20211921    3190327123742196425000011082700001620070000000000000                                                               EQUIPO SET PRIMARIO C/CLAVE REF 14001BOL     1
RC0001220469205H202100015012563300015012563324/10/20211921    3190327123742196425000030936900001431840000000000000                                                                                              BURETABOL     1
CC0001082861926H202100015012563300015012563324/10/20211921    31903271237421964250000E1AD0300000199490000000000000                                         LACTATO RINGER USP (HARTMANN)  SOL INY  BOL X 1000ML BAXTERBIN     1
RC0001220469205H202100015012563300015012563324/10/20211921    31903271237421964250000E1AB0500003888400000000000000                                                              SOLUCION SALINA 0.9% SLN INY X 1000 MLBOL     1
CC0001082861926H202100015012563300015012563324/10/20211921    31903271237421964250000E1AA0100003888590000000000000                                                                        DEXTROSA 5% Sln Iny X 500 mlBOL     1
