CC0000064541334H202100015032574900015032574924/10/20212342    3150024523742196425000043485100001618510000000000000                GUANTE QUIRURGICO DE LATEX REF 2D72N65X CAJ X 50 PROTEXIS  6.5 BN EXENTO-DC.417/2020SOB     1
CC0000064541334H202100015032574900015032574924/10/20212342    3150024523742196425000013077800000471960000000000000                                                             GASA NO TEJIDA EST 7.5 X 7.5 SOB X 3 UNSOB     4
CC0000064541334H202100015032574900015032574924/10/20212342    3150024523742196425000040516100000228660000000000000                                                                 BOLSA COLOSTOMIA CONVATEC 57 402534PZA     1
CC0000064541334H202100015032574900015032574924/10/20212342    3150024523742196425000011072500000228720000000000000                                                               BARRERa FLEXIB STOMAHESI 401612  57MMPZA     1
