RC0001048091909H202100015132500700015132500724/10/20211424    3190213923742196425000038568200000257000000000000000                                                                                   SONDA NELATON #06SIN     1
RC0001048091952H202100015132500700015132500724/10/20211424    3190213923742196425000011060400001010330000000000000                                                            SENSOR PULSOX SPO2 LNCS NEONATAL MP00792PZA     1
RC0001048091952H202100015132500700015132500724/10/20211424    3190213923742196425000045136100001419300000000000000                                                                            LANCETA DEXTROMETER X UNPZA     2
RC0001048091952H202100015132500700015132500724/10/20211424    3190213923742196425000011048600000223020000000000000                                                                 JERINGA VACUNACION 3ML C/AGU 302542SIN     3
RC0001048091952H202100015132500700015132500724/10/20211424    3190213923742196425000036441300000236540000000000000                                                                    JERINGA 1 ML GASES ARTERIAL 9023SIN     2
RC0001048091952H202100015132500700015132500724/10/20211424    3190213923742196425000024674000000220660000000000000                             JERINGA A 3 PARTES CON AGUJA  SOB X 1 RYMCO  10ML BN EXENTO-DC.417/2020SIN     5
RC0001048091952H202100015132500700015132500724/10/20211424    3190213923742196425000011047900000223010000000000000                                                                            JERINGA X 1ML REF 302579SIN     3
RC0001048091952H202100015132500700015132500724/10/20211424    3190213923742196425000043485100001618510000000000000                GUANTE QUIRURGICO DE LATEX REF 2D72N65X CAJ X 50 PROTEXIS  6.5 BN EXENTO-DC.417/2020SOB     5
RC0001048091952H202100015132500700015132500724/10/20211424    3190213923742196425000013077800000471960000000000000                                                             GASA NO TEJIDA EST 7.5 X 7.5 SOB X 3 UNSOB     5
RC0001048091952H202100015132500700015132500724/10/20211424    3190213923742196425000011082700001620070000000000000                                                               EQUIPO SET PRIMARIO C/CLAVE REF 14001BOL     1
RC0001048091952H202100015132500700015132500724/10/20211424    3190213923742196425000001956000001620610000000000000                                                                      CONECTOR MICRO CLAVE LAT-MC100SOB     1
RC0001048091952H202100015132500700015132500724/10/20211424    3190213923742196425000000301100000299670000000000000                                                            CAT EPICUTAN VENA CAVA 2F 24G*30 2184-00SIN     1
RC0001048091952H202100015132500700015132500724/10/20211424    3190213923742196425000000602600001259280000000000000                                                             APOSITO TEGADERM IV PD 1610 5CM X 5.7CMSOB     1
RC0001048091952H202100015132500700015132500724/10/20211424    3190213923742196425000011137100001419310000000000000                                                               TIRA GLUCOMETRIA FREESTYLE H OPTIUM .PZA     2
