CC0000008565480H202100906005102400906005102424/10/20211954    3190325923742196425000011082700001620070000000000000                                                               EQUIPO SET PRIMARIO C/CLAVE REF 14001BOL     1
CC0000008565480H202100906005102400906005102424/10/20211954    3190325923742196425000022426800001140510000000000000                                                                    EQUIPO MACROGOTEO BAXTER MRC0001SOB     1
CC0000008565480H202100906005102400906005102424/10/20211954    3190325923742196425000030936900001431840000000000000                                                                                              BURETABOL     1
CC0000008565480H202100906005102400906005102424/10/20211954    31903259237421964250000E1AB0300003888390000000000000                                                            SOLUCION SALINA 0.9% SLN INY BO X 500 MLBOL     1
