CC0001143431759U202100050131348700050131348724/10/20210904    3190217123942196432000024673600000222980000000000000                                                                     JERINGA DESECHABLE 5 ml 27*11/2SIN     3
CC0001143431759U202100050131348700050131348724/10/20210904    3190217123942196432000013077800000471960000000000000                                                             GASA NO TEJIDA EST 7.5 X 7.5 SOB X 3 UNSOB    10
CC0001143431759U202100050131348700050131348724/10/20210904    3190217123942196432000022426800001140510000000000000                                                                    EQUIPO MACROGOTEO BAXTER MRC0001SOB     1
CC0001143431759U202100050131348700050131348724/10/20210904    3190217123942196432000001956000001620610000000000000                                                                      CONECTOR MICRO CLAVE LAT-MC100SOB     1
CC0001143431759U202100050131348700050131348724/10/20210904    31902171239421964320000Q1AA7100000610620000000000000                                                            CATETER PERIFE INTROCAN # 18G 4251687-04SIN     1
CC0001143431759U202100050131348700050131348724/10/20210904    3190217123942196432000016830000000970620000000000000                                                             SIST FIJACION CAT PERIFERICO 6.5X7 1683SOB     1
CC0001143431759U202100050131348700050131348724/10/20210904    31902171239421964320000E1AB0700003888350000000000000                                                            SOLUCION SALINA 0.9% SLN INY BO X 250 MLBOL     1
CC0001143431759U202100050131348700050131348724/10/20210904    31902171239421964320000E1AB0200000199290000000000000                                                            SOLUCION SALINA 0.9% SLN INY BO X 100 MLBIN     3
