CC0000073070310H202100000554897800000554897824/10/20210515     3300010237421964250000A2BC0900000200150000000000000                                                                               ORAZOLE Sln Iny 40 mgCIN     1
CC0000073070310H202100000554897800000554897824/10/20212328     3300009237421964250000A6AB0200001278260000000000000                                                                                  DULCOLAX Grag 5 mgGRA     1
CC0000073070310H202100000554897800000554897824/10/20210515     3300010237421964250000A07F0300000547060000000000000                                                              ENTEROGERMINA SUSP ORAL AMP X 5 ML /R/VAL     2
CC0000073070310H202100000554897800000554897824/10/20211431     3300009237421964250000B1AB0200003939510000000000000                 ENOXAPARINA SODICA 40MG/0.4ML(100MG/ML) SOL INY INST CAJ X 2JERPREL X 0.4ML TECHDOWJRP     1
CC0000073070310H202100000554897800000554897824/10/20211951    31500367237421964250000E1AB0300003888390000000000000                                                            SOLUCION SALINA 0.9% SLN INY BO X 500 MLBOL     1
CC0000073070310H202100000554897800000554897824/10/20210515     3300010237421964250000C09C0100001316940000000000000                                                                               DIOVAN TAB 160 MG /R/TAB     1
CC0000073070310H202100000554897800000554897824/10/20210515     3300010237421964250000H03A0900001278900000000000000                                                                                   EUTIROX TB 75 MCGTAB     1
CC0000073070310H202100000554897800000554897824/10/20210515     3300010237421964250000H03A0400001278890000000000000                                                                                  EUTIROX TAB 50 MCGTAB     1
CC0000073070310H202100000554897800000554897824/10/20211431     3300009237421964250000J01XA400001212420000000000000                                                               VANCOMICINA POLVO LIOF SLN INY 500 MGVAL     2
CC0000073070310H202100000554897800000554897824/10/20210515     3300010237421964250000J01XA400001212420000000000000                                                               VANCOMICINA POLVO LIOF SLN INY 500 MGVAL     2
CC0000073070310H202100000554897800000554897824/10/20210515     3300010237421964250000V6DB4300000326520000000000000                                                                               OSMOLITE HN x 1500 mlFCO     1
