RC0001146543342H202100000554900200000554900224/10/20212253     3300009237421964250000A04A0600001277030000000000000                                                                                      ONDAX TAB 8 MGTAB     1
RC0001146543342H202100000554900200000554900224/10/20210812     3300009237421964250000A04A0600001277030000000000000                                                                                      ONDAX TAB 8 MGTAB     2
RC0001146543342H202100000554900200000554900224/10/20211333    31500213237421964250000E1AC0100000199400000000000000                                                                          SUERO MIXTO Sln Iny 500 mlBIN     1
RC0001146543342H202100000554900200000554900224/10/20210532    31500082237421964250000E1AC0100000199400000000000000                                                                          SUERO MIXTO Sln Iny 500 mlBIN     2
RC0001146543342H202100000554900200000554900224/10/20211636    31500213237421964250000E1AA0600003888150000000000000                                                                 DEXTROSA 50% EN AGUA Sln Iny 500 mlBOL     1
RC0001146543342H202100000554900200000554900224/10/20211604     3300009237421964250000A12BA100000552980000000000000                                                            CLORURO POTASIO Sln Iny AMP 20 MEQ/10 MLAMP     2
RC0001146543342H202100000554900200000554900224/10/20210812     3300009237421964250000A12BA100000552980000000000000                                                            CLORURO POTASIO Sln Iny AMP 20 MEQ/10 MLAMP     1
RC0001146543342H202100000554900200000554900224/10/20211759    31903313237421964250000E1AA0400003888560000000000000                                                                         DEXTROSA 10% SLN INY 500 MLBOL     1
RC0001146543342H202100000554900200000554900224/10/20211636    31500213237421964250000E1BA0100000198890000000000000                                                                   AGUA ESTERIL USP SLN INY X 500 MLBIN     1
RC0001146543342H202100000554900200000554900224/10/20210812     3300009237421964250000H02AB700000585860000000000000                                                                HIDROCORTISONA SUCCI POL LIOF 100 MGVAL     2
RC0001146543342H202100000554900200000554900224/10/20211647     3300009237421964250000A10AE200000199280000000000000                                                                 NOVOLIN N SUSP INY 100UI/ML X 10 MLVAL     1
RC0001146543342H202100000554900200000554900224/10/20211604     3300009237421964250000C03C0100001672000000000000000                                                                       FUROSEMIDA SLN INY 20 MG/2 MLAMP     1
RC0001146543342H202100000554900200000554900224/10/20210812     3300009237421964250000C03C0100001672000000000000000                                                                       FUROSEMIDA SLN INY 20 MG/2 MLAMP     1
RC0001146543342H202100000554900200000554900224/10/20211604     3300009237421964250000H2AB0200001276910000000000000                                                                               PREDNISOLONA TAB 5 MGTAB     2
RC0001146543342H202100000554900200000554900224/10/20210812     3300009237421964250000H2AB0200001276910000000000000                                                                               PREDNISOLONA TAB 5 MGTAB     6
RC0001146543342H202100000554900200000554900224/10/20211604     3300009237421964250000A02BC700001684270000000000000                                                            OMEPRAZOL 40MG POLVO LIOFILIZADO AMPOLLAVAL     1
RC0001146543342H202100000554900200000554900224/10/20211333    31500213237421964250000V07A1300000502600000000000000                                                                                AGUA ESTERIL x 10 mlAMP     3
