CC0000032651823H202100000554909600000554909624/10/20211732    31500305237421964250000E1AB0200000199290000000000000                                                            SOLUCION SALINA 0.9% SLN INY BO X 100 MLBIN     6
CC0000032651823H202100000554909600000554909624/10/20211732    31500305237421964250000E1AD0300000199490000000000000                                         LACTATO RINGER USP (HARTMANN)  SOL INY  BOL X 1000ML BAXTERBIN     4
CC0000032651823H202100000554909600000554909624/10/20211118     3300009237421964250000A12BA100000552980000000000000                                                            CLORURO POTASIO Sln Iny AMP 20 MEQ/10 MLAMP     2
CC0000032651823H202100000554909600000554909624/10/20211118     3300009237421964250000H02AB500001664950000000000000                                                            DEXAMETASONA SLN INY 8 MG/2 ML AMP /CDS/AMP     3
CC0000032651823H202100000554909600000554909624/10/20211836     3300009237421964250000H02A0100001664960000000000000                                                                        DEXAMETASONA SLN INY 4 MG/MLAMP     3
CC0000032651823H202100000554909600000554909624/10/20212223     3300009237421964250000N03AE100001165380000000000000                                                               COQUAN SLN Oral 2.5 MG/ML FCO x 2O MLFCO     1
CC0000032651823H202100000554909600000554909624/10/20211830     3300009237421964250000J01DD500001239970000000000000                                                                  CEFTRIAXONA POLVO LIOF SLN INY 1 GVAL     2
CC0000032651823H202100000554909600000554909624/10/20211118     3300009237421964250000J01DD500001239970000000000000                                                                  CEFTRIAXONA POLVO LIOF SLN INY 1 GVAL     3
CC0000032651823H202100000554909600000554909624/10/20211117     3300009237421964250000J01DD500001239970000000000000                                                                  CEFTRIAXONA POLVO LIOF SLN INY 1 GVAL     1
CC0000032651823H202100000554909600000554909624/10/20211118     3300009237421964250000N2BE2200001252930000000000000                                                                             ACETAMINOFEN Tab 500 MGTAB     8
CC0000032651823H202100000554909600000554909624/10/20211830     3300009237421964250000N2BB0100000787510000000000000                                                                    DIPIRONA SODICA Sln Iny 1 g/2 mlAMP     2
CC0000032651823H202100000554909600000554909624/10/20211118     3300009237421964250000N2BB0100000787510000000000000                                                                    DIPIRONA SODICA Sln Iny 1 g/2 mlAMP     1
CC0000032651823H202100000554909600000554909624/10/20211830     3300009237421964250000N03AB200001168090000000000000                                                                       FENITOINA Sln Iny 250 mg/5 mlAMP     1
CC0000032651823H202100000554909600000554909624/10/20211118     3300009237421964250000N03AB200001168090000000000000                                                                       FENITOINA Sln Iny 250 mg/5 mlAMP     2
CC0000032651823H202100000554909600000554909624/10/20211118     3300009237421964250000A02BC700001684270000000000000                                                            OMEPRAZOL 40MG POLVO LIOFILIZADO AMPOLLAVAL     1
CC0000032651823H202100000554909600000554909624/10/20211732    31500305237421964250000V07A1300000502600000000000000                                                                                AGUA ESTERIL x 10 mlAMP    10
