CC0000032700438H202100015052691700015052691724/10/20211933    3190318423742196425000011082700001620070000000000000                                                               EQUIPO SET PRIMARIO C/CLAVE REF 14001BOL     1
CC0000040786622H202100015052691700015052691724/10/20211933    3190318423742196425000011082700001620070000000000000                                                               EQUIPO SET PRIMARIO C/CLAVE REF 14001BOL     1
CC0000022543387H202100015052691700015052691724/10/20211933    3190318423742196425000011082700001620070000000000000                                                               EQUIPO SET PRIMARIO C/CLAVE REF 14001BOL     1
CC0000032700438H202100015052691700015052691724/10/20211933    3190318423742196425000001956000001620610000000000000                                                                      CONECTOR MICRO CLAVE LAT-MC100SOB     1
CC0000032804200H202100015052691700015052691724/10/20211933    3190318423742196425000001956000001620610000000000000                                                                      CONECTOR MICRO CLAVE LAT-MC100SOB     1
CC0000040786622H202100015052691700015052691724/10/20211933    3190318423742196425000001956000001620610000000000000                                                                      CONECTOR MICRO CLAVE LAT-MC100SOB     1
CC0000007443172H202100015052691700015052691724/10/20211933    3190318423742196425000001956000001620610000000000000                                                                      CONECTOR MICRO CLAVE LAT-MC100SOB     1
CC0000032804200H202100015052691700015052691724/10/20211933    31903184237421964250000Q1AA7300000610640000000000000                                                            CATETER PERIFE INTROCAN # 22G 4251628-04SIN     1
CC0000040786622H202100015052691700015052691724/10/20211933    31903184237421964250000Q1AA7300000610640000000000000                                                            CATETER PERIFE INTROCAN # 22G 4251628-04SIN     2
CC0000007443172H202100015052691700015052691724/10/20211933    31903184237421964250000Q1AA7300000610640000000000000                                                            CATETER PERIFE INTROCAN # 22G 4251628-04SIN     1
CC0000032804200H202100015052691700015052691724/10/20211933    31903184237421964250000Q1AA7400003911720000000000000                                                            CATETER PERIFE INTROCAN # 24G 4251601-04SOB     1
CC0000032700438H202100015052691700015052691724/10/20211933    3190318423742196425000030936900001431840000000000000                                                                                              BURETABOL     1
CC0000040786622H202100015052691700015052691724/10/20211933    3190318423742196425000030936900001431840000000000000                                                                                              BURETABOL     1
CC0000022543387H202100015052691700015052691724/10/20211933    3190318423742196425000030936900001431840000000000000                                                                                              BURETABOL     1
CC0000032700438H202100015052691700015052691724/10/20211933    3190318423742196425000016830000000970620000000000000                                                             SIST FIJACION CAT PERIFERICO 6.5X7 1683SOB     1
CC0000032804200H202100015052691700015052691724/10/20211933    3190318423742196425000016830000000970620000000000000                                                             SIST FIJACION CAT PERIFERICO 6.5X7 1683SOB     1
CC0000040786622H202100015052691700015052691724/10/20211933    3190318423742196425000016830000000970620000000000000                                                             SIST FIJACION CAT PERIFERICO 6.5X7 1683SOB     1
CC0000007443172H202100015052691700015052691724/10/20211933    3190318423742196425000016830000000970620000000000000                                                             SIST FIJACION CAT PERIFERICO 6.5X7 1683SOB     1
CC0000040786622H202100015052691700015052691724/10/20211933    31903184237421964250000E1AB0300003888390000000000000                                                            SOLUCION SALINA 0.9% SLN INY BO X 500 MLBOL     2
CC0001143227023H202100015052691700015052691724/10/20211933    31903184237421964250000E1AB0300003888390000000000000                                                            SOLUCION SALINA 0.9% SLN INY BO X 500 MLBOL     1
CC0000012549690H202100015052691700015052691724/10/20211933    31903184237421964250000E1AB0300003888390000000000000                                                            SOLUCION SALINA 0.9% SLN INY BO X 500 MLBOL     1
CC0000022543387H202100015052691700015052691724/10/20211933    31903184237421964250000E1AB0300003888390000000000000                                                            SOLUCION SALINA 0.9% SLN INY BO X 500 MLBOL     1
CC0000032700438H202100015052691700015052691724/10/20211933    31903184237421964250000E1AA0100003888590000000000000                                                                        DEXTROSA 5% Sln Iny X 500 mlBOL     2
CC0000032768038H202100015052691700015052691724/10/20211933    31903184237421964250000E1AA0100003888590000000000000                                                                        DEXTROSA 5% Sln Iny X 500 mlBOL     1
