CC0000008753953H202100000554900100000554900124/10/20210822     3300009237421964250000A04A1300001335720000000000000                                                                                      ONDAX TAB 4 MGTAB     6
CC0000008753953H202100000554900100000554900124/10/20210822     3300009237421964250000A6AC0200001467010000000000000                                                             LACTULAX JARABE 66.7G/100ML SOX15ML /R/SOB     2
CC0000008753953H202100000554900100000554900124/10/20211332    31500213237421964250000E1AB0300003888390000000000000                                                            SOLUCION SALINA 0.9% SLN INY BO X 500 MLBOL     1
CC0000008753953H202100000554900100000554900124/10/20211648     3300009237421964250000N1BA1900000554750000000000000                                                                     ROXICAINA JALEA 2% TUBO X 30 MLTUB     1
CC0000008753953H202100000554900100000554900124/10/20211600     3300009237421964250000V6DF2000001629900000000000000                                                                     ENSURE PLUS HN LIQUIDO X 237 MLFCO     1
CC0000008753953H202100000554900100000554900124/10/20210822     3300009237421964250000V6DF2000001629900000000000000                                                                     ENSURE PLUS HN LIQUIDO X 237 MLFCO     1
CC0000008753953H202100000554900100000554900124/10/20211600     3300009237421964250000C03C0100001672000000000000000                                                                       FUROSEMIDA SLN INY 20 MG/2 MLAMP     1
CC0000008753953H202100000554900100000554900124/10/20210822     3300009237421964250000C03C0100001672000000000000000                                                                       FUROSEMIDA SLN INY 20 MG/2 MLAMP     2
CC0000008753953H202100000554900100000554900124/10/20211600     3300009237421964250000N06AX200001277490000000000000                                                                                 TRAZODONA TAB 50 MGTAB     1
CC0000008753953H202100000554900100000554900124/10/20210822     3300009237421964250000A02BC700001684270000000000000                                                            OMEPRAZOL 40MG POLVO LIOFILIZADO AMPOLLAVAL     1
CC0000008753953H202100000554900100000554900124/10/20211332    31500213237421964250000V07A1300000502600000000000000                                                                                AGUA ESTERIL x 10 mlAMP     3
