TI0001048293018H202100015042504900015042504924/10/20210850    31500213237421964250000V07A1300000502600000000000000                                                                                AGUA ESTERIL x 10 mlAMP     3
CC0000085450634H202100015042504900015042504924/10/20210850    31500213237421964250000V07A1300000502600000000000000                                                                                AGUA ESTERIL x 10 mlAMP     6
RC0001046724217H202100015042504900015042504924/10/20210850    31500213237421964250000V07A1300000502600000000000000                                                                                AGUA ESTERIL x 10 mlAMP     6
RC0001146543342H202100015042504900015042504924/10/20210850    31500213237421964250000V07A1300000502600000000000000                                                                                AGUA ESTERIL x 10 mlAMP     3
TI0001047048202H202100015042504900015042504924/10/20210850    31500213237421964250000V07A1300000502600000000000000                                                                                AGUA ESTERIL x 10 mlAMP     7
CC0001045686959H202100015042504900015042504924/10/20210850    31500213237421964250000V07A1300000502600000000000000                                                                                AGUA ESTERIL x 10 mlAMP    12
TI0001139430724H202100015042504900015042504924/10/20210850    31500213237421964250000V07A1300000502600000000000000                                                                                AGUA ESTERIL x 10 mlAMP     6
RC0001044662561H202100015042504900015042504924/10/20210850    31500213237421964250000V07A1300000502600000000000000                                                                                AGUA ESTERIL x 10 mlAMP     5
TI0001081819374H202100015042504900015042504924/10/20210850    31500213237421964250000V07A1300000502600000000000000                                                                                AGUA ESTERIL x 10 mlAMP     6
RC0001043709109H202100015042504900015042504924/10/20210850    31500213237421964250000V07A1300000502600000000000000                                                                                AGUA ESTERIL x 10 mlAMP     9
TI0001047047240H202100015042504900015042504924/10/20210850    31500213237421964250000V07A1300000502600000000000000                                                                                AGUA ESTERIL x 10 mlAMP     6
CC0000008753953H202100015042504900015042504924/10/20210850    31500213237421964250000V07A1300000502600000000000000                                                                                AGUA ESTERIL x 10 mlAMP     3
CC0001065132676H202100015042504900015042504924/10/20210850    31500213237421964250000V07A1300000502600000000000000                                                                                AGUA ESTERIL x 10 mlAMP     3
RC0001043710353H202100015042504900015042504924/10/20210850    31500213237421964250000V07A1300000502600000000000000                                                                                AGUA ESTERIL x 10 mlAMP     4
TI0001048293018H202100015042504900015042504924/10/20210850    3150021323742196425000024674000000220660000000000000                             JERINGA A 3 PARTES CON AGUJA  SOB X 1 RYMCO  10ML BN EXENTO-DC.417/2020SIN     3
CC0000085450634H202100015042504900015042504924/10/20210850    3150021323742196425000024674000000220660000000000000                             JERINGA A 3 PARTES CON AGUJA  SOB X 1 RYMCO  10ML BN EXENTO-DC.417/2020SIN     6
RC0001046724217H202100015042504900015042504924/10/20210850    3150021323742196425000024674000000220660000000000000                             JERINGA A 3 PARTES CON AGUJA  SOB X 1 RYMCO  10ML BN EXENTO-DC.417/2020SIN     6
RC0001146543342H202100015042504900015042504924/10/20210850    3150021323742196425000024674000000220660000000000000                             JERINGA A 3 PARTES CON AGUJA  SOB X 1 RYMCO  10ML BN EXENTO-DC.417/2020SIN     3
TI0001047048202H202100015042504900015042504924/10/20210850    3150021323742196425000024674000000220660000000000000                             JERINGA A 3 PARTES CON AGUJA  SOB X 1 RYMCO  10ML BN EXENTO-DC.417/2020SIN    10
CC0001045686959H202100015042504900015042504924/10/20210850    3150021323742196425000024674000000220660000000000000                             JERINGA A 3 PARTES CON AGUJA  SOB X 1 RYMCO  10ML BN EXENTO-DC.417/2020SIN    12
TI0001139430724H202100015042504900015042504924/10/20210850    3150021323742196425000024674000000220660000000000000                             JERINGA A 3 PARTES CON AGUJA  SOB X 1 RYMCO  10ML BN EXENTO-DC.417/2020SIN     6
RC0001044662561H202100015042504900015042504924/10/20210850    3150021323742196425000024674000000220660000000000000                             JERINGA A 3 PARTES CON AGUJA  SOB X 1 RYMCO  10ML BN EXENTO-DC.417/2020SIN     5
TI0001081819374H202100015042504900015042504924/10/20210850    3150021323742196425000024674000000220660000000000000                             JERINGA A 3 PARTES CON AGUJA  SOB X 1 RYMCO  10ML BN EXENTO-DC.417/2020SIN     6
RC0001043709109H202100015042504900015042504924/10/20210850    3150021323742196425000024674000000220660000000000000                             JERINGA A 3 PARTES CON AGUJA  SOB X 1 RYMCO  10ML BN EXENTO-DC.417/2020SIN     9
TI0001047047240H202100015042504900015042504924/10/20210850    3150021323742196425000024674000000220660000000000000                             JERINGA A 3 PARTES CON AGUJA  SOB X 1 RYMCO  10ML BN EXENTO-DC.417/2020SIN     6
CC0000008753953H202100015042504900015042504924/10/20210850    3150021323742196425000024674000000220660000000000000                             JERINGA A 3 PARTES CON AGUJA  SOB X 1 RYMCO  10ML BN EXENTO-DC.417/2020SIN     3
CC0001065132676H202100015042504900015042504924/10/20210850    3150021323742196425000024674000000220660000000000000                             JERINGA A 3 PARTES CON AGUJA  SOB X 1 RYMCO  10ML BN EXENTO-DC.417/2020SIN     3
RC0001043710353H202100015042504900015042504924/10/20210850    3150021323742196425000024674000000220660000000000000                             JERINGA A 3 PARTES CON AGUJA  SOB X 1 RYMCO  10ML BN EXENTO-DC.417/2020SIN     4
TI0001047048202H202100015042504900015042504924/10/20210850    3150021323742196425000043485100001618510000000000000                GUANTE QUIRURGICO DE LATEX REF 2D72N65X CAJ X 50 PROTEXIS  6.5 BN EXENTO-DC.417/2020SOB     8
RC0001044662561H202100015042504900015042504924/10/20210850    3150021323742196425000043485100001618510000000000000                GUANTE QUIRURGICO DE LATEX REF 2D72N65X CAJ X 50 PROTEXIS  6.5 BN EXENTO-DC.417/2020SOB     2
TI0001047047240H202100015042504900015042504924/10/20210850    3150021323742196425000043485100001618510000000000000                GUANTE QUIRURGICO DE LATEX REF 2D72N65X CAJ X 50 PROTEXIS  6.5 BN EXENTO-DC.417/2020SOB     2
RC0001043710353H202100015042504900015042504924/10/20210850    3150021323742196425000043485100001618510000000000000                GUANTE QUIRURGICO DE LATEX REF 2D72N65X CAJ X 50 PROTEXIS  6.5 BN EXENTO-DC.417/2020SOB     2
TI0001047048202H202100015042504900015042504924/10/20210850    3150021323742196425000013077800000471960000000000000                                                             GASA NO TEJIDA EST 7.5 X 7.5 SOB X 3 UNSOB    15
RC0001044662561H202100015042504900015042504924/10/20210850    3150021323742196425000013077800000471960000000000000                                                             GASA NO TEJIDA EST 7.5 X 7.5 SOB X 3 UNSOB     4
TI0001047047240H202100015042504900015042504924/10/20210850    3150021323742196425000013077800000471960000000000000                                                             GASA NO TEJIDA EST 7.5 X 7.5 SOB X 3 UNSOB     4
RC0001043710353H202100015042504900015042504924/10/20210850    3150021323742196425000013077800000471960000000000000                                                             GASA NO TEJIDA EST 7.5 X 7.5 SOB X 3 UNSOB     4
TI0001047047240H202100015042504900015042504924/10/20210850    3150021323742196425000022426800001140510000000000000                                                                    EQUIPO MACROGOTEO BAXTER MRC0001SOB     1
RC0001044662561H202100015042504900015042504924/10/20210850    3150021323742196425000011082700001620070000000000000                                                               EQUIPO SET PRIMARIO C/CLAVE REF 14001BOL     1
TI0001047047240H202100015042504900015042504924/10/20210850    3150021323742196425000011082700001620070000000000000                                                               EQUIPO SET PRIMARIO C/CLAVE REF 14001BOL     1
RC0001043710353H202100015042504900015042504924/10/20210850    3150021323742196425000011082700001620070000000000000                                                               EQUIPO SET PRIMARIO C/CLAVE REF 14001BOL     1
RC0001044662561H202100015042504900015042504924/10/20210850    3150021323742196425000030936900001431840000000000000                                                                                              BURETABOL     1
TI0001047047240H202100015042504900015042504924/10/20210850    3150021323742196425000030936900001431840000000000000                                                                                              BURETABOL     1
TI0001047048202H202100015042504900015042504924/10/20210850    31500213237421964250000E1AD0300000199490000000000000                                         LACTATO RINGER USP (HARTMANN)  SOL INY  BOL X 1000ML BAXTERBIN     3
TI0001081819374H202100015042504900015042504924/10/20210850    31500213237421964250000E1AD0200003888320000000000000                                                                              HARTMAN SLN INY 500 MLBOL     2
CC0000085450634H202100015042504900015042504924/10/20210850    31500213237421964250000E1AB0500003888400000000000000                                                              SOLUCION SALINA 0.9% SLN INY X 1000 MLBOL     1
TI0001048293018H202100015042504900015042504924/10/20210850    31500213237421964250000E1AB0300003888390000000000000                                                            SOLUCION SALINA 0.9% SLN INY BO X 500 MLBOL     2
CC0001045686959H202100015042504900015042504924/10/20210850    31500213237421964250000E1AB0300003888390000000000000                                                            SOLUCION SALINA 0.9% SLN INY BO X 500 MLBOL     2
CC0000008753953H202100015042504900015042504924/10/20210850    31500213237421964250000E1AB0300003888390000000000000                                                            SOLUCION SALINA 0.9% SLN INY BO X 500 MLBOL     1
TI0001048293018H202100015042504900015042504924/10/20210850    31500213237421964250000E1AB0200000199290000000000000                                                            SOLUCION SALINA 0.9% SLN INY BO X 100 MLBIN     1
CC0001045686959H202100015042504900015042504924/10/20210850    31500213237421964250000E1AB0200000199290000000000000                                                            SOLUCION SALINA 0.9% SLN INY BO X 100 MLBIN     2
CC0001045686959H202100015042504900015042504924/10/20210850    31500213237421964250000E1AA0100003888590000000000000                                                                        DEXTROSA 5% Sln Iny X 500 mlBOL     1
RC0001146543342H202100015042504900015042504924/10/20210850    31500213237421964250000E1AC0100000199400000000000000                                                                          SUERO MIXTO Sln Iny 500 mlBIN     1
TI0001139430724H202100015042504900015042504924/10/20210850    31500213237421964250000E1AC0100000199400000000000000                                                                          SUERO MIXTO Sln Iny 500 mlBIN     1
RC0001044662561H202100015042504900015042504924/10/20210850    31500213237421964250000E1AC0100000199400000000000000                                                                          SUERO MIXTO Sln Iny 500 mlBIN     2
TI0001047047240H202100015042504900015042504924/10/20210850    31500213237421964250000E1AC0100000199400000000000000                                                                          SUERO MIXTO Sln Iny 500 mlBIN     2
