CC0000009654659H202100000554913300000554913324/10/20211437    31902703237421964250000A2BC0900000200150000000000000                                                                               ORAZOLE Sln Iny 40 mgCIN     1
CC0000009654659H202100000554913300000554913324/10/20211437    31902703237421964250000V3AB2200000614150000000000000                                                            GLUCONATO CALCIO SLN INY 10% AMP X 10 MLAPC     3
CC0000009654659H202100000554913300000554913324/10/20211437    31902703237421964250000B1AB0100001227270000000000000                                             HEPAMAX 25000UI/5ML(5000UI/ML) SOL INY  CAJ X 25AMPX5MLAMP     6
CC0000009654659H202100000554913300000554913324/10/20211437    31902703237421964250000C7AB1000001382030000000000000                                                                   NOREPINEFRINA SLN INY 4 MG / 4 MLAMP    22
CC0000009654659H202100000554913300000554913324/10/20211437    31902703237421964250000V6DF5300000302770000000000000                                                                        ENSURE PLUS HN LCP X 1000 MLFCO     1
