CC0001140828821H202100000554897000000554897024/10/20211457     3300009237421964250000A2AH0200001128980000000000000                                                                           MILPAX SUSP ORAL X 360 MLFCO     1
CC0001140828821H202100000554897000000554897024/10/20212321     3300009237421964250000A02BC100001677520000000000000                                                                ESOMEPRAZOL POLVO LIOF INY 40 MG /R/VAL     1
CC0001140828821H202100000554897000000554897024/10/20212321     3300009237421964250000A03A0800001177800000000000000                                                                      COLYPAN SLN INY 50 MG/5 ML /R/AMP     1
CC0001140828821H202100000554897000000554897024/10/20210509     3300010237421964250000B1AB0900003939260000000000000                 ENOXAPARINA SODICA 60MG/0.6ML(100MG/ML) SOL INY INST CAJ X 2JERPREL X 0.6ML TECHDOWJRP     2
CC0001140828821H202100000554897000000554897024/10/20212321     3300009237421964250000J3BA0500001278190000000000000                                                                            BACTRIM F TAB 800/160 MGTAB     1
CC0001140828821H202100000554897000000554897024/10/20210509     3300010237421964250000J3BA0500001278190000000000000                                                                            BACTRIM F TAB 800/160 MGTAB     1
CC0001140828821H202100000554897000000554897024/10/20212321     3300009237421964250000J2AX0200001333950000000000000                                                                                 DIFLUCAN Cap 200 mgCAP     1
CC0001140828821H202100000554897000000554897024/10/20210509     3300010237421964250000J2AX0200001333950000000000000                                                                                 DIFLUCAN Cap 200 mgCAP     1
CC0001140828821H202100000554897000000554897024/10/20211044    31903291237421964250000V07A1300000502600000000000000                                                                                AGUA ESTERIL x 10 mlAMP     5
