CC0001129508481H202100000554903400000554903424/10/20210734     3300009237421964250000D11A1100000749560000000000000                                                                       FITOSTIMOLINE GEL Tubo X 32 GTUB     1
CC0001129508481H202100000554903400000554903424/10/20210734     3300009237421964250000V6DF5300000302770000000000000                                                                        ENSURE PLUS HN LCP X 1000 MLFCO     1
CC0001129508481H202100000554903400000554903424/10/20211722     3300009237421964250000A03BB100003889180000000000000                                      HIOSCINA BUTIL BROMURO 20MG/ML SOL INY CAJ X 100AMP X 1ML RYANAMP     2
CC0001129508481H202100000554903400000554903424/10/20210734     3300009237421964250000A03BB100003889180000000000000                                      HIOSCINA BUTIL BROMURO 20MG/ML SOL INY CAJ X 100AMP X 1ML RYANAMP     2
CC0001129508481H202100000554903400000554903424/10/20210734     3300009237421964250000B01AB200000513350000000000000                                                                        CLENOX SLN INY 40 MG/ 0.4 MLJRP     1
CC0001129508481H202100000554903400000554903424/10/20210734     3300009237421964250000A02BC700001684270000000000000                                                            OMEPRAZOL 40MG POLVO LIOFILIZADO AMPOLLAVAL     1
CC0001129508481H202100000554903400000554903424/10/20211353    31903301237421964250000V07A1300000502600000000000000                                                                                AGUA ESTERIL x 10 mlAMP     5
