TI0001042592574H202100000554895900000554895924/10/20211024     3300009237421964250000A2BX0100001277280000000000000                                                                                ALSUCRAL TAB 1 G /R/TAB     1
TI0001042592574H202100000554895900000554895924/10/20210443     3300010237421964250000A2BX0100001277280000000000000                                                                                ALSUCRAL TAB 1 G /R/TAB     1
TI0001042592574H202100000554895900000554895924/10/20211010    31903307237421964250000E1AB1100003888280000000000000                                                                        SOLUCION SALINA 0.9% X 50 mlBOL     2
TI0001042592574H202100000554895900000554895924/10/20211010    31903307237421964250000E1AD0300000199490000000000000                                         LACTATO RINGER USP (HARTMANN)  SOL INY  BOL X 1000ML BAXTERBIN     3
TI0001042592574H202100000554895900000554895924/10/20211024     3300009237421964250000N2BE2200001252930000000000000                                                                             ACETAMINOFEN Tab 500 MGTAB     1
TI0001042592574H202100000554895900000554895924/10/20210443     3300010237421964250000N2BE2200001252930000000000000                                                                             ACETAMINOFEN Tab 500 MGTAB     3
