CC0001127248530H202100000554898600000554898624/10/20210522     3300010237421964250000A2BC0900000200150000000000000                                                                               ORAZOLE Sln Iny 40 mgCIN     1
CC0001127248530H202100000554898600000554898624/10/20211342     3300009237421964250000A4AD0200000202990000000000000                                                                     PLITICAN HCL Sln Iny 50 mg/2 mlAMP     1
CC0001127248530H202100000554898600000554898624/10/20210522     3300010237421964250000A4AD0200000202990000000000000                                                                     PLITICAN HCL Sln Iny 50 mg/2 mlAMP     2
CC0001127248530H202100000554898600000554898624/10/20211343     3300009237421964250000A04A1400001467560000000000000                                                                      ONDANSETRON SLN INY 8 MG/ 4 MLVAL     1
CC0001127248530H202100000554898600000554898624/10/20211342     3300009237421964250000A04A1400001467560000000000000                                                                      ONDANSETRON SLN INY 8 MG/ 4 MLVAL     1
CC0001127248530H202100000554898600000554898624/10/20210635    31902961237421964250000E1AB0300003888390000000000000                                                            SOLUCION SALINA 0.9% SLN INY BO X 500 MLBOL     1
CC0001127248530H202100000554898600000554898624/10/20211344     3300009237421964250000N2BB1100000217160000000000000                                                                      NOVALGINA Sln Iny 2.5 g x 5 mlAMP     1
CC0001127248530H202100000554898600000554898624/10/20211343     3300009237421964250000N2BB1100000217160000000000000                                                                      NOVALGINA Sln Iny 2.5 g x 5 mlAMP     1
CC0001127248530H202100000554898600000554898624/10/20212123     3300009237421964250000N02B1100001169680000000000000                              PARACETAMOL 1000MG/100ML(10MG/ML) SOL INY  VIAL X 100ML FRESENIUS KABIVAL     1
CC0001127248530H202100000554898600000554898624/10/20210522     3300010237421964250000A3BB0300000512950000000000000                                                             BUSCAPINA COMP Sln Iny 20 mg+2.5 g/5 mlAMP     1
CC0001127248530H202100000554898600000554898624/10/20211343     3300009237421964250000V06D1300001667500000000000000                                                                           GLUCERNA LIQUIDO X 237 MLFCO     2
