TI0001073826213H202100015122504800015122504824/10/20210016    3190166823742196425000038569900001124970000000000000                                                                              SONDA FOLEY #14 2 VIASSOB     1
TI0001073826213H202100015122504800015122504824/10/20210016    3190166823742196425000024673000001411210000000000000                                                                  JERINGA DESECHABLE 3 ML 21 X 1 1/2SOB    10
TI0001073826213H202100015122504800015122504824/10/20210016    3190166823742196425000043485100001618510000000000000                GUANTE QUIRURGICO DE LATEX REF 2D72N65X CAJ X 50 PROTEXIS  6.5 BN EXENTO-DC.417/2020SOB     4
TI0001073826213H202100015122504800015122504824/10/20210016    3190166823742196425000011082700001620070000000000000                                                               EQUIPO SET PRIMARIO C/CLAVE REF 14001BOL     3
TI0001073826213H202100015122504800015122504824/10/20210016    31901668237421964250000Q1AA5900000236800000000000000                                                                            CISTOFLO PEDIAT X 500 mlSIN     1
TI0001073826213H202100015122504800015122504824/10/20210016    3190166823742196425000031188000000236790000000000000                                                                                     CISTOFLO ADULTOSIN     1
TI0001073826213H202100015122504800015122504824/10/20210016    31901668237421964250000Q1AA7300000610640000000000000                                                            CATETER PERIFE INTROCAN # 22G 4251628-04SIN     3
TI0001073826213H202100015122504800015122504824/10/20210016    3190166823742196425000030936900001431840000000000000                                                                                              BURETABOL     1
TI0001073826213H202100015122504800015122504824/10/20210016    31901668237421964250000B05B1500001012750000000000000                                                                   SOLUCION SALINA 3% Sln Iny 500 mlBOL     2
TI0001073826213H202100015122504800015122504824/10/20210016    31901668237421964250000E1AD0300000199490000000000000                                         LACTATO RINGER USP (HARTMANN)  SOL INY  BOL X 1000ML BAXTERBIN     2
TI0001073826213H202100015122504800015122504824/10/20210016    31901668237421964250000E1AB0500003888400000000000000                                                              SOLUCION SALINA 0.9% SLN INY X 1000 MLBOL     1
TI0001073826213H202100015122504800015122504824/10/20210016    31901668237421964250000E1AB0700003888350000000000000                                                            SOLUCION SALINA 0.9% SLN INY BO X 250 MLBOL     1
