RC0001235543459U202100050131353000050131353024/10/20211718    3190271223942196432000024673000001411210000000000000                                                                  JERINGA DESECHABLE 3 ML 21 X 1 1/2SOB     1
RC0001048080597U202100050131353000050131353024/10/20211718    3190271223942196432000024673000001411210000000000000                                                                  JERINGA DESECHABLE 3 ML 21 X 1 1/2SOB     1
RC0001044233372U202100050131353000050131353024/10/20211718    3190271223942196432000024673000001411210000000000000                                                                  JERINGA DESECHABLE 3 ML 21 X 1 1/2SOB     1
RC0001044233372U202100050131353000050131353024/10/20211718    3190271223942196432000024674000000220660000000000000                             JERINGA A 3 PARTES CON AGUJA  SOB X 1 RYMCO  10ML BN EXENTO-DC.417/2020SIN     1
