CC0000008509195H202100015052692100015052692124/10/20212145    3150014823742196425000001956000001620610000000000000                                                                      CONECTOR MICRO CLAVE LAT-MC100SOB     1
CC0001143250996H202100015052692100015052692124/10/20212145    3150014823742196425000001956000001620610000000000000                                                                      CONECTOR MICRO CLAVE LAT-MC100SOB     1
CC0001143250996H202100015052692100015052692124/10/20212145    31500148237421964250000Q1AA7100000610620000000000000                                                            CATETER PERIFE INTROCAN # 18G 4251687-04SIN     1
CC0000008509195H202100015052692100015052692124/10/20212145    31500148237421964250000Q1AA7200000610630000000000000                                                            CATETER PERIFE INTROCAN # 20G 4251644-04SIN     1
CC0000008509195H202100015052692100015052692124/10/20212145    3150014823742196425000016830000000970620000000000000                                                             SIST FIJACION CAT PERIFERICO 6.5X7 1683SOB     1
CC0001143250996H202100015052692100015052692124/10/20212145    3150014823742196425000016830000000970620000000000000                                                             SIST FIJACION CAT PERIFERICO 6.5X7 1683SOB     1
