RC0001146543342H202100015042505300015042505324/10/20211628    3150021323742196425000045136100001419300000000000000                                                                            LANCETA DEXTROMETER X UNPZA     2
CC0000008753953H202100015042505300015042505324/10/20211628    3150021323742196425000045136100001419300000000000000                                                                            LANCETA DEXTROMETER X UNPZA     2
RC0001146543342H202100015042505300015042505324/10/20211628    3150021323742196425000000102400001411250000000000000                                                                           JERINGA DESECHABLE X 50MLSOB     1
RC0001146543342H202100015042505300015042505324/10/20211628    3150021323742196425000011047900000223010000000000000                                                                            JERINGA X 1ML REF 302579SIN     2
RC0001146543342H202100015042505300015042505324/10/20211628    3150021323742196425000022426800001140510000000000000                                                                    EQUIPO MACROGOTEO BAXTER MRC0001SOB     1
RC0001146543342H202100015042505300015042505324/10/20211628    3150021323742196425000030936900001431840000000000000                                                                                              BURETABOL     1
RC0001146543342H202100015042505300015042505324/10/20211628    31500213237421964250000E1BA0100000198890000000000000                                                                   AGUA ESTERIL USP SLN INY X 500 MLBIN     1
RC0001146543342H202100015042505300015042505324/10/20211628    31500213237421964250000E1AA0600003888150000000000000                                                                 DEXTROSA 50% EN AGUA Sln Iny 500 mlBOL     1
RC0001146543342H202100015042505300015042505324/10/20211628    3150021323742196425000011137100001419310000000000000                                                               TIRA GLUCOMETRIA FREESTYLE H OPTIUM .PZA     2
CC0000008753953H202100015042505300015042505324/10/20211628    3150021323742196425000011137100001419310000000000000                                                               TIRA GLUCOMETRIA FREESTYLE H OPTIUM .PZA     2
