CC0000022494506A202100000027614600000027614624/10/20210841    31903336240421964190000B02AA100001407470000000000000                                                                    CLINTRANEX SLN INY 500 MG / 5 MLAMP     2
CC0000022494506A202100000027614600000027614624/10/20210841    3190333624042196419000015944000000632490000000000000                                                                           MONOCRYL 3-0 PS2  MCP427HSIN     2
CC0000022494506A202100000027614600000027614624/10/20210841    3190333624042196419000024672100001609890000000000000                                                            JERINGA INSULINA 1ML TAPA NARANJA JEI013SOB     1
CC0000022494506A202100000027614600000027614624/10/20210841    3190333624042196419000045138000001413890000000000000                                                                       LAPIZ ELECTROBISTURI  SOB X 1SOB     1
CC0000022494506A202100000027614600000027614624/10/20210841    3190333624042196419000000601800000258500000000000000                                                            APOSITO OPSITE POST - OP0712  15CM X 8CMSIN     2
CC0000022494506A202100000027614600000027614624/10/20210841    3190333624042196419000038568300000257010000000000000                                                                                   SONDA NELATON #08SIN     1
CC0000022494506A202100000027614600000027614624/10/20210841    31903336240421964190000D08AF900000512990000000000000                                                            FURACIN POMADA 0.2 G/100 G TU X 40 G /R/TUB     1
CC0000022494506A202100000027614600000027614624/10/20210841    31903336240421964190000J01G0100000858000000000000000                                                                       GARAMICINA SLN INY 80 MG/2 MLAMP     2
CC0000022494506A202100000027614600000027614624/10/20210841    3190333624042196419000043879100001138200000000000000                                                                  HOJA BISTURI # 15 CSSB 15 01002003SOB     2
CC0000022494506A202100000027614600000027614624/10/20210841    3190333624042196419000015994600000632480000000000000                                                                          MONOCRYL 4-0 PS-2 45 Y496GSIN     1
CC0000022494506A202100000027614600000027614624/10/20210841    3190333624042196419000019488700000753270000000000000                                                                              VICRYL 3-0 SH1 VCP311HSOB     2
CC0000022494506A202100000027614600000027614624/10/20210841    3190333624042196419000019487500000602970000000000000                                                                           VICRYL 2-0 CT1 90 VCP345HSIN     4
CC0000022494506A202100000027614600000027614624/10/20210841    31903336240421964190000J01DA300001239950000000000000                                                            CEFAZOLINA SODICA POLVO LIOF SLN INY 1 GVAL     2
CC0000022494506A202100000027614600000027614624/10/20210841    3190333624042196419000016830000000970620000000000000                                                             SIST FIJACION CAT PERIFERICO 6.5X7 1683SOB     1
CC0000022494506A202100000027614600000027614624/10/20210841    31903336240421964190000Q1AA7100000610620000000000000                                                            CATETER PERIFE INTROCAN # 18G 4251687-04SIN     1
CC0000022494506A202100000027614600000027614624/10/20210841    3190333624042196419000035356500003919000000000000000                                                                                        LLAVE 3 VIASSOB     2
CC0000022494506A202100000027614600000027614624/10/20210841    3190333624042196419000022425200000548240000000000000                       EXTENSION DE ANESTESIA REF 1139 SOB X 1 SHERLEG  ADULTO BN EXENTO-DC.417/2020SIN     1
CC0000022494506A202100000027614600000027614624/10/20210841    3190333624042196419000022426800001140510000000000000                                                                    EQUIPO MACROGOTEO BAXTER MRC0001SOB     1
CC0000022494506A202100000027614600000027614624/10/20210841    3190333624042196419000020750600000296780000000000000                                                                PLACA ELECTRO RETORNO PACIENTE E7506SIN     1
CC0000022494506A202100000027614600000027614624/10/20210841    3190333624042196419000053300000000583500000000000000                                                               BOTA EXPRESS COMPRESOR VASCUL M 73012SIN     1
CC0000022494506A202100000027614600000027614624/10/20210841    3190333624042196419000011082700001620070000000000000                                                               EQUIPO SET PRIMARIO C/CLAVE REF 14001BOL     1
CC0000022494506A202100000027614600000027614624/10/20210841    3190333624042196419000024674500000322810000000000000                                                                   JERINGA DESECHABLE 20 ml 21*1 1/2SIN     2
CC0000022494506A202100000027614600000027614624/10/20210841    3190333624042196419000024674000000220660000000000000                             JERINGA A 3 PARTES CON AGUJA  SOB X 1 RYMCO  10ML BN EXENTO-DC.417/2020SIN     5
CC0000022494506A202100000027614600000027614624/10/20210841    3190333624042196419000024673000001411210000000000000                                                                  JERINGA DESECHABLE 3 ML 21 X 1 1/2SOB     1
CC0000022494506A202100000027614600000027614624/10/20210841    3190333624042196419000053074400000607910000000000000                                                               GASA ESTERIL 10*10 SOBRE X 3 UNIDADESSOB     3
CC0000022494506A202100000027614600000027614624/10/20210841    3190333624042196419000039175000001072050000000000000                                                                           TUBO ENDOTRAQUEAL C/B 7.0SOB     1
CC0000022494506A202100000027614600000027614624/10/20210841    3190333624042196419000051515500000598160000000000000                                                                            MASCARILLA ANESTESIA # 5SIN     1
CC0000022494506A202100000027614600000027614624/10/20210841    3190333624042196419000031010900000762730000000000000                                                                          CANULA GUEDEL # 4 (100 MM)SOB     1
CC0000022494506A202100000027614600000027614624/10/20210841    3190333624042196419000038568100000258050000000000000                                                                         CANULA OXIGENO NASAL ADULTOSIN     1
CC0000022494506A202100000027614600000027614624/10/20210841    3190333624042196419000011085200001585390000000000000                                                                       GUANTE QUIRURGICO TALLA 7 1/2SOB     2
CC0000022494506A202100000027614600000027614624/10/20210841    3190333624042196419000043485100001618510000000000000                GUANTE QUIRURGICO DE LATEX REF 2D72N65X CAJ X 50 PROTEXIS  6.5 BN EXENTO-DC.417/2020SOB     5
CC0000022494506A202100000027614600000027614624/10/20210841    3190333624042196419000033485000001049200000000000000                                                                           GUANTE QUIRURGICO TALLA 6SOB     1
CC0000022494506A202100000027614600000027614624/10/20210841    31903336240421964190000E1AB0300003888390000000000000                                                            SOLUCION SALINA 0.9% SLN INY BO X 500 MLBOL     4
CC0000022494506A202100000027614600000027614624/10/20210841    31903336240421964190000E1AB0700003888350000000000000                                                            SOLUCION SALINA 0.9% SLN INY BO X 250 MLBOL     1
CC0000022494506A202100000027614600000027614624/10/20210841    31903336240421964190000N02B1100001169680000000000000                              PARACETAMOL 1000MG/100ML(10MG/ML) SOL INY  VIAL X 100ML FRESENIUS KABIVAL     1
CC0000022494506A202100000027614600000027614624/10/20210841    31903336240421964190000N2BB1100000217160000000000000                                                                      NOVALGINA Sln Iny 2.5 g x 5 mlAMP     1
CC0000022494506A202100000027614600000027614624/10/20210841    31903336240421964190000A04A1400001467560000000000000                                                                      ONDANSETRON SLN INY 8 MG/ 4 MLVAL     1
CC0000022494506A202100000027614600000027614624/10/20210841    31903336240421964190000H02AB500001664950000000000000                                                            DEXAMETASONA SLN INY 8 MG/2 ML AMP /CDS/AMP     1
CC0000022494506A202100000027614600000027614624/10/20210841    31903336240421964190000N01A0400003939010000000000000                                               MAYOPROFOL 200MG/20ML(1%) EMUL INY CAJ X 1VIAL X 20MLVAL     1
CC0000022494506A202100000027614600000027614624/10/20210841    31903336240421964190000M3AC0600000720540000000000000                                                                         ESMERON SLN INY 50 MG /5 MLVAL     1
CC0000022494506A202100000027614600000027614624/10/20210841    31903336240421964190000N2AA0700001587170000000000000                                                                                 ULTIVA Sln Iny 2 mgVAL     1
CC0000022494506A202100000027614600000027614624/10/20210841    31903336240421964190000N1AH0200003906560000000000000                                                                     FENTANIL Iny 0.05 mg/ml x 10 mlAMP     1
CC0000022494506A202100000027614600000027614624/10/20210841    31903336240421964190000N5CD0300000218170000000000000                                                                          DORMICUM Sln Iny 5 mg/5 mlAMP     1
