TI0001034300920U202100050131347500050131347524/10/20210440    3190233623942196432000011082700001620070000000000000                                                               EQUIPO SET PRIMARIO C/CLAVE REF 14001BOL     1
TI0001034300920U202100050131347500050131347524/10/20210440    31902336239421964320000Q1AA7200000610630000000000000                                                            CATETER PERIFE INTROCAN # 20G 4251644-04SIN     1
RC0001236888030U202100050131347500050131347524/10/20210440    31902336239421964320000Q1AA7400003911720000000000000                                                            CATETER PERIFE INTROCAN # 24G 4251601-04SOB     1
TI0001034300920U202100050131347500050131347524/10/20210440    3190233623942196432000030936900001431840000000000000                                                                                              BURETABOL     1
TI0001034300920U202100050131347500050131347524/10/20210440    3190233623942196432000016830000000970620000000000000                                                             SIST FIJACION CAT PERIFERICO 6.5X7 1683SOB     1
TI0001034300920U202100050131347500050131347524/10/20210440    31902336239421964320000E1AB0500003888400000000000000                                                              SOLUCION SALINA 0.9% SLN INY X 1000 MLBOL     1
