RC0001048091740U202100050131346800050131346824/10/20210057    3150026323942196432000042753000003929870000000000000                    GASA ADHESIVA STRETCH REF 02036-00 ROL X 10MT FIXOMULL 5CM BN EXENTO-DC.417/2020CMT    20
RC0001048091740U202100050131346800050131346824/10/20210057    3150026323942196432000001956000001620610000000000000                                                                      CONECTOR MICRO CLAVE LAT-MC100SOB     1
RC0001048091740U202100050131346800050131346824/10/20210057    31500263239421964320000Q1AA7400003911720000000000000                                                            CATETER PERIFE INTROCAN # 24G 4251601-04SOB     1
