CC0000009137445H202100015052691200015052691224/10/20211021    3190099723742196425000011082700001620070000000000000                                                               EQUIPO SET PRIMARIO C/CLAVE REF 14001BOL     1
CC0000041782192H202100015052691200015052691224/10/20211021    3190099723742196425000011082700001620070000000000000                                                               EQUIPO SET PRIMARIO C/CLAVE REF 14001BOL     1
CC0001129508481H202100015052691200015052691224/10/20211021    3190099723742196425000011082700001620070000000000000                                                               EQUIPO SET PRIMARIO C/CLAVE REF 14001BOL     1
CE0000V28051252H202100015052691200015052691224/10/20211021    3190099723742196425000011082700001620070000000000000                                                               EQUIPO SET PRIMARIO C/CLAVE REF 14001BOL     1
CC0000022416968H202100015052691200015052691224/10/20211021    3190099723742196425000011082700001620070000000000000                                                               EQUIPO SET PRIMARIO C/CLAVE REF 14001BOL     1
CC0000009137445H202100015052691200015052691224/10/20211021    3190099723742196425000030936900001431840000000000000                                                                                              BURETABOL     1
CC0000041782192H202100015052691200015052691224/10/20211021    3190099723742196425000030936900001431840000000000000                                                                                              BURETABOL     1
CC0001129508481H202100015052691200015052691224/10/20211021    3190099723742196425000030936900001431840000000000000                                                                                              BURETABOL     1
CE0000V28051252H202100015052691200015052691224/10/20211021    3190099723742196425000030936900001431840000000000000                                                                                              BURETABOL     1
CC0000022416968H202100015052691200015052691224/10/20211021    3190099723742196425000030936900001431840000000000000                                                                                              BURETABOL     1
CC0000041782192H202100015052691200015052691224/10/20211021    31900997237421964250000E1AB0300003888390000000000000                                                            SOLUCION SALINA 0.9% SLN INY BO X 500 MLBOL     2
CC0001051418436H202100015052691200015052691224/10/20211021    31900997237421964250000E1AB0300003888390000000000000                                                            SOLUCION SALINA 0.9% SLN INY BO X 500 MLBOL     1
