CC0000051622521H202100000554896800000554896824/10/20211708     3300009237421964250000N07B0100001337250000000000000                                                                BUPROPION TAB.150mg WELLBUTRIN XL/R/TAB     1
CC0000051622521H202100000554896800000554896824/10/20211435     3300009237421964250000S2BA0100000468160000000000000                                                                          SOLU-CORTEF SNL INY 100 MGVAL     1
CC0000051622521H202100000554896800000554896824/10/20210507     3300010237421964250000S2BA0100000468160000000000000                                                                          SOLU-CORTEF SNL INY 100 MGVAL     1
CC0000051622521H202100000554896800000554896824/10/20210507     3300010237421964250000A02B0500001335110000000000000                                                                                LOSEC MUPS Tab 20 mgTAB     1
CC0000051622521H202100000554896800000554896824/10/20212320     3300009237421964250000B1AB0900003939260000000000000                 ENOXAPARINA SODICA 60MG/0.6ML(100MG/ML) SOL INY INST CAJ X 2JERPREL X 0.6ML TECHDOWJRP     1
CC0000051622521H202100000554896800000554896824/10/20210508     3300010237421964250000B1AB1200003939350000000000000                 ENOXAPARINA SODICA 80MG/0.8ML(100MG/ML) SOL INY INST CAJ X 2JERPREL X 0.8ML TECHDOWJRP     1
CC0000051622521H202100000554896800000554896824/10/20211950    31500367237421964250000E1AB0300003888390000000000000                                                            SOLUCION SALINA 0.9% SLN INY BO X 500 MLBOL     1
CC0000051622521H202100000554896800000554896824/10/20210508     3300010237421964250000H03AA400001315380000000000000                                                                               SYNTHROID TAB 100 MCGTAB     1
CC0000051622521H202100000554896800000554896824/10/20210507     3300010237421964250000H03AA400001315380000000000000                                                                               SYNTHROID TAB 100 MCGTAB     1
CC0000051622521H202100000554896800000554896824/10/20211434     3300009237421964250000J01FF200003888100000000000000                                                                             EUROCLIN SLN INY 600 MGAMP     1
CC0000051622521H202100000554896800000554896824/10/20210507     3300010237421964250000J01FF200003888100000000000000                                                                             EUROCLIN SLN INY 600 MGAMP     2
CC0000051622521H202100000554896800000554896824/10/20211434     3300009237421964250000N05AH400001447710000000000000                                                                              PROLANZ FAST TAB 10 MGTAB     1
CC0000051622521H202100000554896800000554896824/10/20211434     3300009237421964250000N06A0300001304010000000000000                                                                               REMERON Tab 30 mg /R/TAB     1
CC0000051622521H202100000554896800000554896824/10/20210507     3300010237421964250000V06D1400000968430000000000000                                                                              JEVITY iquido x 500 mlFCO     1
CC0000051622521H202100000554896800000554896824/10/20211041    31903291237421964250000V07A1300000502600000000000000                                                                                AGUA ESTERIL x 10 mlAMP     5
