TI0001073826213H202100000554893500000554893524/10/20211531     330000923742196425000011808300003906600000000000000                                                                MIDAZOLAM SOL INY 50mg/10mL/ VITALISAMP     1
TI0001073826213H202100000554893500000554893524/10/20211531     3300009237421964250000B1AB0200003939510000000000000                 ENOXAPARINA SODICA 40MG/0.4ML(100MG/ML) SOL INY INST CAJ X 2JERPREL X 0.4ML TECHDOWJRP     1
TI0001073826213H202100000554893500000554893524/10/20211011    31903307237421964250000E1AB1100003888280000000000000                                                                        SOLUCION SALINA 0.9% X 50 mlBOL     2
TI0001073826213H202100000554893500000554893524/10/20210030    31901668237421964250000E1AB0700003888350000000000000                                                            SOLUCION SALINA 0.9% SLN INY BO X 250 MLBOL     1
TI0001073826213H202100000554893500000554893524/10/20210030    31901668237421964250000E1AB0500003888400000000000000                                                              SOLUCION SALINA 0.9% SLN INY X 1000 MLBOL     1
TI0001073826213H202100000554893500000554893524/10/20211011    31903307237421964250000E1AD0300000199490000000000000                                         LACTATO RINGER USP (HARTMANN)  SOL INY  BOL X 1000ML BAXTERBIN     4
TI0001073826213H202100000554893500000554893524/10/20210030    31901668237421964250000E1AD0300000199490000000000000                                         LACTATO RINGER USP (HARTMANN)  SOL INY  BOL X 1000ML BAXTERBIN     2
TI0001073826213H202100000554893500000554893524/10/20211011    31903307237421964250000E1AA1400003888550000000000000                                                                         DEXTROSA 10% SLN INY 250 MLBOL     1
TI0001073826213H202100000554893500000554893524/10/20211530     3300009237421964250000B05X0800000547340000000000000                                                                GLYCOPHOS Iny 1 + 2 mmol/ ml x 20 mlVAL     1
TI0001073826213H202100000554893500000554893524/10/20211042     3300009237421964250000B05X0800000547340000000000000                                                                GLYCOPHOS Iny 1 + 2 mmol/ ml x 20 mlVAL     2
TI0001073826213H202100000554893500000554893524/10/20210030    31901668237421964250000B05B1500001012750000000000000                                                                   SOLUCION SALINA 3% Sln Iny 500 mlBOL     2
TI0001073826213H202100000554893500000554893524/10/20211531     3300009237421964250000H02A0100001664960000000000000                                                                        DEXAMETASONA SLN INY 4 MG/MLAMP     1
TI0001073826213H202100000554893500000554893524/10/20211043     3300009237421964250000H02A0100001664960000000000000                                                                        DEXAMETASONA SLN INY 4 MG/MLAMP     2
TI0001073826213H202100000554893500000554893524/10/20211819     3300009237421964250000J01XA400001212420000000000000                                                               VANCOMICINA POLVO LIOF SLN INY 500 MGVAL     1
TI0001073826213H202100000554893500000554893524/10/20211042     3300009237421964250000J01XA400001212420000000000000                                                               VANCOMICINA POLVO LIOF SLN INY 500 MGVAL     2
TI0001073826213H202100000554893500000554893524/10/20210031     3300010237421964250000J01XA400001212420000000000000                                                               VANCOMICINA POLVO LIOF SLN INY 500 MGVAL     4
TI0001073826213H202100000554893500000554893524/10/20211701    31901009237421964250000E1BA0100000198890000000000000                                                                   AGUA ESTERIL USP SLN INY X 500 MLBIN     1
TI0001073826213H202100000554893500000554893524/10/20211011    31903307237421964250000E1BA0100000198890000000000000                                                                   AGUA ESTERIL USP SLN INY X 500 MLBIN     1
TI0001073826213H202100000554893500000554893524/10/20211043     3300009237421964250000N1AH0200003906560000000000000                                                                     FENTANIL Iny 0.05 mg/ml x 10 mlAMP     2
TI0001073826213H202100000554893500000554893524/10/20210031     3300010237421964250000N1AH0200003906560000000000000                                                                     FENTANIL Iny 0.05 mg/ml x 10 mlAMP     4
TI0001073826213H202100000554893500000554893524/10/20211044     3300009237421964250000N5CD0300000218170000000000000                                                                          DORMICUM Sln Iny 5 mg/5 mlAMP     1
TI0001073826213H202100000554893500000554893524/10/20211525     3300009237421964250000R3CA0100001051880000000000000                                                               ADRENALINA HCL SLN INY 1 MG / ML ECARAMP     3
TI0001073826213H202100000554893500000554893524/10/20211044     3300009237421964250000C03C0100001672000000000000000                                                                       FUROSEMIDA SLN INY 20 MG/2 MLAMP     1
TI0001073826213H202100000554893500000554893524/10/20210032     3300010237421964250000C03C0100001672000000000000000                                                                       FUROSEMIDA SLN INY 20 MG/2 MLAMP     3
TI0001073826213H202100000554893500000554893524/10/20211530     3300009237421964250000J01D1200001239960000000000000                                                                              CEFEPIME POLVO INY 1 GVAL     1
TI0001073826213H202100000554893500000554893524/10/20211042     3300009237421964250000J01D1200001239960000000000000                                                                              CEFEPIME POLVO INY 1 GVAL     1
TI0001073826213H202100000554893500000554893524/10/20210031     3300010237421964250000J01D1200001239960000000000000                                                                              CEFEPIME POLVO INY 1 GVAL     4
TI0001073826213H202100000554893500000554893524/10/20211043     3300009237421964250000N2BB0100000787510000000000000                                                                    DIPIRONA SODICA Sln Iny 1 g/2 mlAMP     2
TI0001073826213H202100000554893500000554893524/10/20210032     3300010237421964250000N2BB0100000787510000000000000                                                                    DIPIRONA SODICA Sln Iny 1 g/2 mlAMP     1
TI0001073826213H202100000554893500000554893524/10/20210031     3300010237421964250000N2BB0100000787510000000000000                                                                    DIPIRONA SODICA Sln Iny 1 g/2 mlAMP     2
TI0001073826213H202100000554893500000554893524/10/20211530     3300009237421964250000N03AB200001168090000000000000                                                                       FENITOINA Sln Iny 250 mg/5 mlAMP     1
TI0001073826213H202100000554893500000554893524/10/20210621     3300010237421964250000N03AB200001168090000000000000                                                                       FENITOINA Sln Iny 250 mg/5 mlAMP     1
TI0001073826213H202100000554893500000554893524/10/20210031     3300010237421964250000N03AB200001168090000000000000                                                                       FENITOINA Sln Iny 250 mg/5 mlAMP     1
TI0001073826213H202100000554893500000554893524/10/20211044     3300009237421964250000A02BC700001684270000000000000                                                            OMEPRAZOL 40MG POLVO LIOFILIZADO AMPOLLAVAL     1
TI0001073826213H202100000554893500000554893524/10/20210032     3300010237421964250000A02BC700001684270000000000000                                                            OMEPRAZOL 40MG POLVO LIOFILIZADO AMPOLLAVAL     1
