CC0000007454802H202100015112640300015112640324/10/20210656    3150002223742196425000043995200000229010000000000000                                                               HUMIDIFICADOR PARA OXIGENO REF. H001BBOL     1
CC0000007469257H202100015112640300015112640324/10/20210656    3150002223742196425000043995200000229010000000000000                                                               HUMIDIFICADOR PARA OXIGENO REF. H001BBOL     1
CC0000007454802H202100015112640300015112640324/10/20210656    3150002223742196425000038568100000258050000000000000                                                                         CANULA OXIGENO NASAL ADULTOSIN     1
