CC0000008565480H202100015012563200015012563224/10/20211911    3190325923742196425000022426800001140510000000000000                                                                    EQUIPO MACROGOTEO BAXTER MRC0001SOB     1
CC0000008565480H202100015012563200015012563224/10/20211911    3190325923742196425000011082700001620070000000000000                                                               EQUIPO SET PRIMARIO C/CLAVE REF 14001BOL     1
CC0000008565480H202100015012563200015012563224/10/20211911    3190325923742196425000030936900001431840000000000000                                                                                              BURETABOL     1
PA0000666346022H202100015012563200015012563224/10/20211911    31903259237421964250000E1AD0300000199490000000000000                                         LACTATO RINGER USP (HARTMANN)  SOL INY  BOL X 1000ML BAXTERBIN     1
CC0001127248530H202100015012563200015012563224/10/20211911    31903259237421964250000E1AB0500003888400000000000000                                                              SOLUCION SALINA 0.9% SLN INY X 1000 MLBOL     1
CC0000044205440H202100015012563200015012563224/10/20211911    31903259237421964250000E1AB0500003888400000000000000                                                              SOLUCION SALINA 0.9% SLN INY X 1000 MLBOL     1
CC0000008565480H202100015012563200015012563224/10/20211911    31903259237421964250000E1AB0300003888390000000000000                                                            SOLUCION SALINA 0.9% SLN INY BO X 500 MLBOL     1
RC0001236888030H202100015012563200015012563224/10/20211911    31903259237421964250000E1AB0300003888390000000000000                                                            SOLUCION SALINA 0.9% SLN INY BO X 500 MLBOL     1
CC0000084078895H202100015012563200015012563224/10/20211911    31903259237421964250000E1AB0300003888390000000000000                                                            SOLUCION SALINA 0.9% SLN INY BO X 500 MLBOL     1
CC0001127248530H202100015012563200015012563224/10/20211911    31903259237421964250000E1AA0100003888590000000000000                                                                        DEXTROSA 5% Sln Iny X 500 mlBOL     1
RC0001236888030H202100015012563200015012563224/10/20211911    31903259237421964250000E1AC0100000199400000000000000                                                                          SUERO MIXTO Sln Iny 500 mlBIN     1
