CC0000032683043H202100015112640800015112640824/10/20210928    31500305237421964250000V07A1300000502600000000000000                                                                                AGUA ESTERIL x 10 mlAMP    10
CC0000022328269H202100015112640800015112640824/10/20210928    31500305237421964250000V07A1300000502600000000000000                                                                                AGUA ESTERIL x 10 mlAMP    10
CC0000032651823H202100015112640800015112640824/10/20210928    31500305237421964250000V07A1300000502600000000000000                                                                                AGUA ESTERIL x 10 mlAMP    10
CC0000032678618H202100015112640800015112640824/10/20210928    31500305237421964250000V07A1300000502600000000000000                                                                                AGUA ESTERIL x 10 mlAMP    10
CC0000022328269H202100015112640800015112640824/10/20210928    3150030523742196425000011051900000226360000000000000                                                               KIT TRANSDUCTOR SENCILLO S/VAMP PX260SOB     1
CC0000032683043H202100015112640800015112640824/10/20210928    3150030523742196425000024674000000220660000000000000                             JERINGA A 3 PARTES CON AGUJA  SOB X 1 RYMCO  10ML BN EXENTO-DC.417/2020SIN    15
CC0000022328269H202100015112640800015112640824/10/20210928    3150030523742196425000024674000000220660000000000000                             JERINGA A 3 PARTES CON AGUJA  SOB X 1 RYMCO  10ML BN EXENTO-DC.417/2020SIN    15
CC0000032651823H202100015112640800015112640824/10/20210928    3150030523742196425000024674000000220660000000000000                             JERINGA A 3 PARTES CON AGUJA  SOB X 1 RYMCO  10ML BN EXENTO-DC.417/2020SIN    15
CC0000032678618H202100015112640800015112640824/10/20210928    3150030523742196425000024674000000220660000000000000                             JERINGA A 3 PARTES CON AGUJA  SOB X 1 RYMCO  10ML BN EXENTO-DC.417/2020SIN    15
CC0000022328269H202100015112640800015112640824/10/20210928    3150030523742196425000043485100001618510000000000000                GUANTE QUIRURGICO DE LATEX REF 2D72N65X CAJ X 50 PROTEXIS  6.5 BN EXENTO-DC.417/2020SOB     2
CC0000022328269H202100015112640800015112640824/10/20210928    3150030523742196425000013077800000471960000000000000                                                             GASA NO TEJIDA EST 7.5 X 7.5 SOB X 3 UNSOB     8
CC0000022328269H202100015112640800015112640824/10/20210928    31500305237421964250000Q1A11500000331560000000000000                                                                     CATETER RADIAL #20 REF. 115.090SIN     1
CC0000022328269H202100015112640800015112640824/10/20210928    3150030523742196425000016830000000970620000000000000                                                             SIST FIJACION CAT PERIFERICO 6.5X7 1683SOB     1
CC0000032683043H202100015112640800015112640824/10/20210928    31500305237421964250000E1AD0300000199490000000000000                                         LACTATO RINGER USP (HARTMANN)  SOL INY  BOL X 1000ML BAXTERBIN     3
CC0000032651823H202100015112640800015112640824/10/20210928    31500305237421964250000E1AD0300000199490000000000000                                         LACTATO RINGER USP (HARTMANN)  SOL INY  BOL X 1000ML BAXTERBIN     4
CC0000022328269H202100015112640800015112640824/10/20210928    31500305237421964250000E1AB0300003888390000000000000                                                            SOLUCION SALINA 0.9% SLN INY BO X 500 MLBOL     2
CC0000032683043H202100015112640800015112640824/10/20210928    31500305237421964250000E1AB0200000199290000000000000                                                            SOLUCION SALINA 0.9% SLN INY BO X 100 MLBIN     8
CC0000022328269H202100015112640800015112640824/10/20210928    31500305237421964250000E1AB0200000199290000000000000                                                            SOLUCION SALINA 0.9% SLN INY BO X 100 MLBIN     8
CC0000032651823H202100015112640800015112640824/10/20210928    31500305237421964250000E1AB0200000199290000000000000                                                            SOLUCION SALINA 0.9% SLN INY BO X 100 MLBIN     6
CC0000032683043H202100015112640800015112640824/10/20210928    3150030523742196425000011137100001419310000000000000                                                               TIRA GLUCOMETRIA FREESTYLE H OPTIUM .PZA     6
CC0000022328269H202100015112640800015112640824/10/20210928    3150030523742196425000011137100001419310000000000000                                                               TIRA GLUCOMETRIA FREESTYLE H OPTIUM .PZA     6
CC0000032651823H202100015112640800015112640824/10/20210928    3150030523742196425000011137100001419310000000000000                                                               TIRA GLUCOMETRIA FREESTYLE H OPTIUM .PZA     6
CC0000032678618H202100015112640800015112640824/10/20210928    3150030523742196425000011137100001419310000000000000                                                               TIRA GLUCOMETRIA FREESTYLE H OPTIUM .PZA    10
