RC0001043709109H202100000554900500000554900524/10/20211558     3300009237421964250000S2BA0100000468160000000000000                                                                          SOLU-CORTEF SNL INY 100 MGVAL     1
RC0001043709109H202100000554900500000554900524/10/20210821     3300009237421964250000S2BA0100000468160000000000000                                                                          SOLU-CORTEF SNL INY 100 MGVAL     1
RC0001043709109H202100000554900500000554900524/10/20210820     3300009237421964250000A6AC0200001467010000000000000                                                             LACTULAX JARABE 66.7G/100ML SOX15ML /R/SOB     1
RC0001043709109H202100000554900500000554900524/10/20210533    31500082237421964250000E1AC0100000199400000000000000                                                                          SUERO MIXTO Sln Iny 500 mlBIN     3
RC0001043709109H202100000554900500000554900524/10/20211803    31901940237421964250000E1AB0700003888350000000000000                                                            SOLUCION SALINA 0.9% SLN INY BO X 250 MLBOL     1
RC0001043709109H202100000554900500000554900524/10/20211558     3300009237421964250000C3CA0200000195520000000000000                                                                           LASIX SLN INY 20 MG/ 2 MLAMP     1
RC0001043709109H202100000554900500000554900524/10/20210820     3300009237421964250000H02A0300001127720000000000000                                                                 FISOPRED SLN ORAL 1 MG /ML X 100 MLFCO     1
RC0001043709109H202100000554900500000554900524/10/20211121     3300009237421964250000L1BC2200001634310000000000000                                                                  ASPARAGINASA SLN INY 10.000 UI /R/VAL     1
RC0001043709109H202100000554900500000554900524/10/20211649     3300009237421964250000N5BB0100001458430000000000000                                                                    HIDERAX Jbe 25 mg/10 ml x 120 mlFCO     1
RC0001043709109H202100000554900500000554900524/10/20211558     3300009237421964250000V6DB0800001286840000000000000                                                                          PEDIASURE LIQUIDO X 237 MLFCO     1
RC0001043709109H202100000554900500000554900524/10/20210821     3300009237421964250000V6DB0800001286840000000000000                                                                          PEDIASURE LIQUIDO X 237 MLFCO     1
RC0001043709109H202100000554900500000554900524/10/20211334    31500213237421964250000V07A1300000502600000000000000                                                                                AGUA ESTERIL x 10 mlAMP     9
RC0001043709109H202100000554900500000554900524/10/20211558     3300009237421964250000A04AA200003932460000000000000                                                 ONDAX 4MG/2ML(2MG/ML) SOL INY INST CAJ X 1AMP X 2MLAMP     1
RC0001043709109H202100000554900500000554900524/10/20210820     3300009237421964250000A04AA200003932460000000000000                                                 ONDAX 4MG/2ML(2MG/ML) SOL INY INST CAJ X 1AMP X 2MLAMP     2
