RC0001048091909H202100913284102400913284102424/10/20210755    3190311723742196425000011137100001419310000000000000                                                               TIRA GLUCOMETRIA FREESTYLE H OPTIUM .PZA     2
RC0001048091909H202100913284102400913284102424/10/20210755    3190311723742196425000013077800000471960000000000000                                                             GASA NO TEJIDA EST 7.5 X 7.5 SOB X 3 UNSOB     2
RC0001048091909H202100913284102400913284102424/10/20210755    3190311723742196425000035356500003919000000000000000                                                                                        LLAVE 3 VIASSOB     2
RC0001048091909H202100913284102400913284102424/10/20210755    3190311723742196425000043485100001618510000000000000                GUANTE QUIRURGICO DE LATEX REF 2D72N65X CAJ X 50 PROTEXIS  6.5 BN EXENTO-DC.417/2020SOB     2
RC0001048091909H202100913284102400913284102424/10/20210755    3190311723742196425000045136100001419300000000000000                                                                            LANCETA DEXTROMETER X UNPZA     2
