CC0000022467890H202100905341102400905341102424/10/20211117    3190092623742196425000024674000000220660000000000000                             JERINGA A 3 PARTES CON AGUJA  SOB X 1 RYMCO  10ML BN EXENTO-DC.417/2020SIN    30
CC0000022467890H202100905341102400905341102424/10/20211117    3190092623742196425000011137100001419310000000000000                                                               TIRA GLUCOMETRIA FREESTYLE H OPTIUM .PZA     9
CC0000022467890H202100905341102400905341102424/10/20211117    3190092623742196425000045136100001419300000000000000                                                                            LANCETA DEXTROMETER X UNPZA     9
CC0000022467890H202100905341102400905341102424/10/20211117    31900926237421964250000E1AB0200000199290000000000000                                                            SOLUCION SALINA 0.9% SLN INY BO X 100 MLBIN    15
CC0000022467890H202100905341102400905341102424/10/20211118    3150055523742196425000024674000000220660000000000000                             JERINGA A 3 PARTES CON AGUJA  SOB X 1 RYMCO  10ML BN EXENTO-DC.417/2020SIN    30
CC0000022467890H202100905341102400905341102424/10/20211118    31500555237421964250000E1AB0200000199290000000000000                                                            SOLUCION SALINA 0.9% SLN INY BO X 100 MLBIN    15
CC0000022467890H202100905341102400905341102424/10/20211118    3150055523742196425000011137100001419310000000000000                                                               TIRA GLUCOMETRIA FREESTYLE H OPTIUM .PZA     9
CC0000022467890H202100905341102400905341102424/10/20211118    3150055523742196425000045136100001419300000000000000                                                                            LANCETA DEXTROMETER X UNPZA     9
