CC0000085155296U202100050131349100050131349124/10/20210938    3190118123942196432000000501300000223570000000000000                                                                     STERI-STRIP 6 X 100 REF 1546 3MSIN     1
CC0000085155296U202100050131349100050131349124/10/20210938    3190118123942196432000011048600000223020000000000000                                                                 JERINGA VACUNACION 3ML C/AGU 302542SIN     1
CC0000085155296U202100050131349100050131349124/10/20210938    3190118123942196432000043879200001138180000000000000                                                                                   HOJA BISTURI # 11SOB     1
