CC0000007454802H202100914240102400914240102424/10/20211117    3190092623742196425000024674000000220660000000000000                             JERINGA A 3 PARTES CON AGUJA  SOB X 1 RYMCO  10ML BN EXENTO-DC.417/2020SIN    30
CC0000007454802H202100914240102400914240102424/10/20211117    31900926237421964250000E1AD0300000199490000000000000                                         LACTATO RINGER USP (HARTMANN)  SOL INY  BOL X 1000ML BAXTERBIN     6
CC0000007454802H202100914240102400914240102424/10/20211117    31900926237421964250000E1AB0200000199290000000000000                                                            SOLUCION SALINA 0.9% SLN INY BO X 100 MLBIN    30
CC0000007454802H202100914240102400914240102424/10/20211117    3190092623742196425000045136100001419300000000000000                                                                            LANCETA DEXTROMETER X UNPZA     9
CC0000007454802H202100914240102400914240102424/10/20211117    3190092623742196425000011137100001419310000000000000                                                               TIRA GLUCOMETRIA FREESTYLE H OPTIUM .PZA     9
CC0000007454802H202100914240102400914240102424/10/20211118    3150055523742196425000011137100001419310000000000000                                                               TIRA GLUCOMETRIA FREESTYLE H OPTIUM .PZA     9
CC0000007454802H202100914240102400914240102424/10/20211118    31500555237421964250000E1AD0300000199490000000000000                                         LACTATO RINGER USP (HARTMANN)  SOL INY  BOL X 1000ML BAXTERBIN     6
CC0000007454802H202100914240102400914240102424/10/20211118    31500555237421964250000E1AB0200000199290000000000000                                                            SOLUCION SALINA 0.9% SLN INY BO X 100 MLBIN    30
CC0000007454802H202100914240102400914240102424/10/20211118    3150055523742196425000045136100001419300000000000000                                                                            LANCETA DEXTROMETER X UNPZA     9
CC0000007454802H202100914240102400914240102424/10/20211118    3150055523742196425000024674000000220660000000000000                             JERINGA A 3 PARTES CON AGUJA  SOB X 1 RYMCO  10ML BN EXENTO-DC.417/2020SIN    30
CC0000007454802H202100914240102400914240102424/10/20211129    3150002223742196425000038568100000258050000000000000                                                                         CANULA OXIGENO NASAL ADULTOSIN     1
CC0000007454802H202100914240102400914240102424/10/20211129    3150002223742196425000043995200000229010000000000000                                                               HUMIDIFICADOR PARA OXIGENO REF. H001BBOL     1
