CC0000010776876H202100000554897300000554897324/10/20211439     3300009237421964250000B1AB0200003939510000000000000                 ENOXAPARINA SODICA 40MG/0.4ML(100MG/ML) SOL INY INST CAJ X 2JERPREL X 0.4ML TECHDOWJRP     1
CC0000010776876H202100000554897300000554897324/10/20210511     3300010237421964250000A12BA100000552980000000000000                                                            CLORURO POTASIO Sln Iny AMP 20 MEQ/10 MLAMP     1
CC0000010776876H202100000554897300000554897324/10/20210510     3300010237421964250000C09CA400001277130000000000000                                                                                  LOSARTAN TAB 50 MGTAB     1
CC0000010776876H202100000554897300000554897324/10/20210511     3300010237421964250000V6DF5300000302770000000000000                                                                        ENSURE PLUS HN LCP X 1000 MLFCO     1
CC0000010776876H202100000554897300000554897324/10/20210510     3300010237421964250000C10AA500001314010000000000000                                                                             ATORVASTATINA TAB 40 MGTAB     1
CC0000010776876H202100000554897300000554897324/10/20212322     3300009237421964250000N2BB0100000787510000000000000                                                                    DIPIRONA SODICA Sln Iny 1 g/2 mlAMP     3
CC0000010776876H202100000554897300000554897324/10/20211439     3300009237421964250000N05A1700001278300000000000000                                                                            QUETIAPINA TAB 25 MG /R/TAB     2
CC0000010776876H202100000554897300000554897324/10/20210511     3300010237421964250000N05A1700001278300000000000000                                                                            QUETIAPINA TAB 25 MG /R/TAB     1
CC0000010776876H202100000554897300000554897324/10/20210510     3300010237421964250000N05A1700001278300000000000000                                                                            QUETIAPINA TAB 25 MG /R/TAB     1
CC0000010776876H202100000554897300000554897324/10/20210511     3300010237421964250000A02BC700001684270000000000000                                                            OMEPRAZOL 40MG POLVO LIOFILIZADO AMPOLLAVAL     1
