TI0001052089280A202100000027656100000027656103/11/20210936    3190333624042196419000038569400000256750000000000000                                                                        SONDA ASPIRACION CONTROL #14SIN     1
TI0001052089280A202100000027656100000027656103/11/20210936    3190333624042196419000020042600000633850000000000000                                                                                       ASEPTOJERINGASIN     1
TI0001052089280A202100000027656100000027656103/11/20210936    31903336240421964190000E1AB0500003888400000000000000                                                              SOLUCION SALINA 0.9% SLN INY X 1000 MLBOL     1
TI0001052089280A202100000027656100000027656103/11/20210936    3190333624042196419000039174800001072030000000000000                                                                           TUBO ENDOTRAQUEAL C/B 6.0SOB     1
TI0001052089280A202100000027656100000027656103/11/20210936    3190333624042196419000021016800000227920000000000000                                                                  CATETER TRILUM PEDIA 5.5F CS16553ESIN     1
TI0001052089280A202100000027656100000027656103/11/20210936    31903336240421964190000N01B0200003888110000000000000                                           ROXICAINA SE 100MG/10ML(1%) SOL INY CAJ X 24AMPACK X 10MLAPC     1
TI0001052089280A202100000027656100000027656103/11/20210936    3190333624042196419000022310000000376030000000000000                                                                      DRENA BLAKE 1/4 19 FR 2231 J&JPZA     2
TI0001052089280A202100000027656100000027656103/11/20210936    3190333624042196419000019487500000602970000000000000                                                                           VICRYL 2-0 CT1 90 VCP345HSIN     3
TI0001052089280A202100000027656100000027656103/11/20210936    3190333624042196419000039174700001072020000000000000                                                                           TUBO ENDOTRAQUEAL C/B 5.5SOB     1
TI0001052089280A202100000027656100000027656103/11/20210936    31903336240421964190000Q1A11500000331560000000000000                                                                     CATETER RADIAL #20 REF. 115.090SIN     1
TI0001052089280A202100000027656100000027656103/11/20210936    3190333624042196419000011063900000296020000000000000                                                            SIST DRENAJE TORACICO 888571299  AQ-SEALBOL     1
TI0001052089280A202100000027656100000027656103/11/20210936    3190333624042196419000045138000001413890000000000000                                                                       LAPIZ ELECTROBISTURI  SOB X 1SOB     1
TI0001052089280A202100000027656100000027656103/11/20210936    31903336240421964190000Q1AA3300001585140000000000000                                                                         APOSITO TEGADERM 10*12 1626SOB     2
TI0001052089280A202100000027656100000027656103/11/20210936    3190333624042196419000038568300000257010000000000000                                                                                   SONDA NELATON #08SIN     1
TI0001052089280A202100000027656100000027656103/11/20210936    3190333624042196419000043486000001353050000000000000                                                            HORIZON CLIP TITANI M AZUL X 6 REF002200CAR     1
TI0001052089280A202100000027656100000027656103/11/20210936    3190333624042196419000018351400000232860000000000000                                                                                   SEDA 2-0 SH K833HSIN     2
TI0001052089280A202100000027656100000027656103/11/20210936    3190333624042196419000018350800000232800000000000000                                                                                 SEDA 0 S.H 75 K834HSIN     2
TI0001052089280A202100000027656100000027656103/11/20210936    3190333624042196419000012481000001630330000000000000                                                            FLEXON SUTURA MULTIFILAME 2-0 8886261753SOB     1
TI0001052089280A202100000027656100000027656103/11/20210936    3190333624042196419000000500600004008630000000000000         SUTURA ABSORBIBLE MONOFIL P-12 REF SM-5627 CAJ X 12 BIOSYN 45CM - 4-0 BN EXENTO-DC.417/2020SIN     3
TI0001052089280A202100000027656100000027656103/11/20210936    3190333624042196419000000503900000296270000000000000                                                                  SUTURA POLYSORB 3-0 75CM V20 GL122SIN     4
TI0001052089280A202100000027656100000027656103/11/20210936    3190333624042196419000000501100000296260000000000000                                                                          POLYSORB 2/0 V20 REF GL123SIN     2
TI0001052089280A202100000027656100000027656103/11/20210936    3190333624042196419000017575900000367370000000000000                                                               SUTURA PROLENE 6-0 60CM BV1(2) M8805TSIN     2
TI0001052089280A202100000027656100000027656103/11/20210936    3190333624042196419000017576200000232750000000000000                                                                    PROLENE CARDIOV 6-0 60 2C-1 8726SIN     2
TI0001052089280A202100000027656100000027656103/11/20210936    3190333624042196419000017574800000232720000000000000                                                                               PROLENE 5-0 2C-1 8720SIN     2
TI0001052089280A202100000027656100000027656103/11/20210936    3190333624042196419000043879100001138200000000000000                                                                  HOJA BISTURI # 15 CSSB 15 01002003SOB     1
TI0001052089280A202100000027656100000027656103/11/20210936    3190333624042196419000022425200000548240000000000000                       EXTENSION DE ANESTESIA REF 1139 SOB X 1 SHERLEG  ADULTO BN EXENTO-DC.417/2020SIN     1
TI0001052089280A202100000027656100000027656103/11/20210936    3190333624042196419000022425100001392880000000000000             EQUIPO MICROGOTEO SIN AGUJA REF 201000 PAQ X 100 SOB GOTHAPLAST   BN EXENTO-DC.417/2020BOL     1
TI0001052089280A202100000027656100000027656103/11/20210936    31903336240421964190000Q1AA7400003911720000000000000                                                            CATETER PERIFE INTROCAN # 24G 4251601-04SOB     1
TI0001052089280A202100000027656100000027656103/11/20210936    31903336240421964190000J01DA300001239950000000000000                                                            CEFAZOLINA SODICA POLVO LIOF SLN INY 1 GVAL     1
TI0001052089280A202100000027656100000027656103/11/20210936    31903336240421964190000Q1AA5900000236800000000000000                                                                            CISTOFLO PEDIAT X 500 mlSIN     1
TI0001052089280A202100000027656100000027656103/11/20210936    3190333624042196419000030161400001459220000000000000                                                                       MANGUERA SUCCION 6 MM*3.1 MTSSOB     2
TI0001052089280A202100000027656100000027656103/11/20210936    3190333624042196419000018354100000232880000000000000                                                                  SUTURA SEDA NEGRA 3-0 KS 75CM 622HSIN     1
TI0001052089280A202100000027656100000027656103/11/20210936    3190333624042196419000038576600000256740000000000000                                                                        SONDA ASPIRACION CONTROL #12SIN     1
TI0001052089280A202100000027656100000027656103/11/20210936    3190333624042196419000038569500000994340000000000000                                                             SONDA FOLEY 2 VIAS 6F MA-220603 UROTECHSOB     1
TI0001052089280A202100000027656100000027656103/11/20210936    3190333624042196419000020750800000295830000000000000                                                                       PLACA RETORNO PEDIAT E7510-25SIN     1
TI0001052089280A202100000027656100000027656103/11/20210936    3190333624042196419000035639600001014740000000000000                                                                              MASCARA VENTURY ADULTOBOL     1
TI0001052089280A202100000027656100000027656103/11/20210936    3190333624042196419000035356500003919000000000000000                                                                                        LLAVE 3 VIASSOB     4
TI0001052089280A202100000027656100000027656103/11/20210936    3190333624042196419000011051900000226360000000000000                                                               KIT TRANSDUCTOR SENCILLO S/VAMP PX260SOB     1
TI0001052089280A202100000027656100000027656103/11/20210936    3190333624042196419000024674500000322810000000000000                                                                   JERINGA DESECHABLE 20 ml 21*1 1/2SIN     2
TI0001052089280A202100000027656100000027656103/11/20210936    3190333624042196419000011047900000223010000000000000                                                                            JERINGA X 1ML REF 302579SIN     1
TI0001052089280A202100000027656100000027656103/11/20210936    3190333624042196419000020057400001101600000000000000                                                                  AGUJA HIPODERMICA DESECH 21G X 1.5SOB     2
TI0001052089280A202100000027656100000027656103/11/20210936    3190333624042196419000024673600000222980000000000000                                                                     JERINGA DESECHABLE 5 ml 27*11/2SIN     4
TI0001052089280A202100000027656100000027656103/11/20210936    3190333624042196419000024674000000220660000000000000                             JERINGA A 3 PARTES CON AGUJA  SOB X 1 RYMCO  10ML BN EXENTO-DC.417/2020SIN     8
TI0001052089280A202100000027656100000027656103/11/20210936    3190333624042196419000043879200001138180000000000000                                                                                   HOJA BISTURI # 11SOB     2
TI0001052089280A202100000027656100000027656103/11/20210936    3190333624042196419000043485100001618510000000000000                GUANTE QUIRURGICO DE LATEX REF 2D72N65X CAJ X 50 PROTEXIS  6.5 BN EXENTO-DC.417/2020SOB    10
TI0001052089280A202100000027656100000027656103/11/20210936    3190333624042196419000011085200001585390000000000000                                                                       GUANTE QUIRURGICO TALLA 7 1/2SOB     5
TI0001052089280A202100000027656100000027656103/11/20210936    3190333624042196419000011085100001082120000000000000                                                                           GUANTE QUIRURGICO TALLA 7SOB     5
TI0001052089280A202100000027656100000027656103/11/20210936    3190333624042196419000053074400000607910000000000000                                                               GASA ESTERIL 10*10 SOBRE X 3 UNIDADESSOB    15
TI0001052089280A202100000027656100000027656103/11/20210936    3190333624042196419000011082700001620070000000000000                                                               EQUIPO SET PRIMARIO C/CLAVE REF 14001BOL     2
TI0001052089280A202100000027656100000027656103/11/20210936    3190333624042196419000051515300000598140000000000000                                                                            MASCARILLA ANESTESIA # 3SIN     1
TI0001052089280A202100000027656100000027656103/11/20210936    3190333624042196419000031011400000762720000000000000                                                                           CANULA GUEDEL # 3 (90 MM)SOB     1
TI0001052089280A202100000027656100000027656103/11/20210936    3190333624042196419000011073300001096420000000000000                                                                BOLSA DE SUCCION DE FLUIDOS x 2500mLBOL     1
TI0001052089280A202100000027656100000027656103/11/20210936    3190333624042196419000000602600001259280000000000000                                                             APOSITO TEGADERM IV PD 1610 5CM X 5.7CMSOB     5
TI0001052089280A202100000027656100000027656103/11/20210936    3190333624042196419000000101000001101640000000000000                                                                  AGUJA DESECHABLE  23G X 1 1/2 PULGSOB     1
TI0001052089280A202100000027656100000027656103/11/20210936    3190333624042196419000000100600000223090000000000000                                                                      AGUJA DESECHABLE 18G X 1 1/2 PSIN     1
TI0001052089280A202100000027656100000027656103/11/20210936    31903336240421964190000E1AD0200003888320000000000000                                                                              HARTMAN SLN INY 500 MLBOL     1
TI0001052089280A202100000027656100000027656103/11/20210936    31903336240421964190000E1AB0300003888390000000000000                                                            SOLUCION SALINA 0.9% SLN INY BO X 500 MLBOL     1
TI0001052089280A202100000027656100000027656103/11/20210936    31903336240421964190000E1AB0700003888350000000000000                                                            SOLUCION SALINA 0.9% SLN INY BO X 250 MLBOL     3
TI0001052089280A202100000027656100000027656103/11/20210936    31903336240421964190000E1AB0200000199290000000000000                                                            SOLUCION SALINA 0.9% SLN INY BO X 100 MLBIN     1
TI0001052089280A202100000027656100000027656103/11/20210936    3190333624042196419000011081600001317790000000000000                                                                EPOC BLOOD TEST CARD REF CT-10040000PZA     1
TI0001052089280A202100000027656100000027656103/11/20210936    31903336240421964190000B02AA100001407470000000000000                                                                    CLINTRANEX SLN INY 500 MG / 5 MLAMP     1
TI0001052089280A202100000027656100000027656103/11/20210936    31903336240421964190000N01A0400003939010000000000000                                               MAYOPROFOL 200MG/20ML(1%) EMUL INY CAJ X 1VIAL X 20MLVAL     1
TI0001052089280A202100000027656100000027656103/11/20210936    31903336240421964190000B1AB0100001227270000000000000                                             HEPAMAX 25000UI/5ML(5000UI/ML) SOL INY  CAJ X 25AMPX5MLAMP     1
TI0001052089280A202100000027656100000027656103/11/20210936    31903336240421964190000H02AB500001664950000000000000                                                            DEXAMETASONA SLN INY 8 MG/2 ML AMP /CDS/AMP     1
TI0001052089280A202100000027656100000027656103/11/20210936    31903336240421964190000A12CA200001239800000000000000                     BICARBONATO SODIO 10MEQ/10ML(1MEQ/ML) SOL INY  CAJ X 100AMPX10ML FRESENIUS KABIAMP     3
TI0001052089280A202100000027656100000027656103/11/20210936    31903336240421964190000R3CA0400000777470000000000000                                                               ADRENALINA HCL SLN INY 1 MG / ML RYANAMP     1
TI0001052089280A202100000027656100000027656103/11/20210936    31903336240421964190000N01A0500003844190000000000000                                                                          REMIFENTANILO SLN INY 2 MGVAL     1
TI0001052089280A202100000027656100000027656103/11/20210936    31903336240421964190000A10AA900000199170000000000000                                                                         HUMULIN R Sln Iny 100 UI/mlVAL     1
