CC0000022580641U202100000554420800000554420812/10/20211625    31902171239421964320000E1AB0500003888400000000000000                                                              SOLUCION SALINA 0.9% SLN INY X 1000 MLBOL     1
CC0000022580641U202100000554420800000554420812/10/20210805     3300004239421964320000C09CA500001335670000000000000                                                                            OLMESARTAN 20 MG TABLETATAB     2
CC0000022580641U202100000554420800000554420812/10/20210816     3300004239421964320000C7FA0100001277270000000000000                                                                                     NORVAS TAB 5 MGTAB     1
CC0000022580641U202100000554420800000554420812/10/20210712     3300004239421964320000H03A0400001278890000000000000                                                                                  EUTIROX TAB 50 MCGTAB     1
CC0000022580641U202100000554420800000554420812/10/20210805     3300004239421964320000N02B1100001169680000000000000                              PARACETAMOL 1000MG/100ML(10MG/ML) SOL INY  VIAL X 100ML FRESENIUS KABIVAL     1
CC0000022580641U202100000554420800000554420812/10/20210302     3300004239421964320000N02B1100001169680000000000000                              PARACETAMOL 1000MG/100ML(10MG/ML) SOL INY  VIAL X 100ML FRESENIUS KABIVAL     1
CC0000022580641U202100000554420800000554420812/10/20210816     3300004239421964320000R6AX0300001303580000000000000                                                                                 CLARITYNE TAB 10 MGTAB     1
