RC0001043468263A202100000027615100000027615123/10/20211014    3190333624042196419000001956000001620610000000000000                                                                      CONECTOR MICRO CLAVE LAT-MC100SOB     1
RC0001043468263A202100000027615100000027615123/10/20211014    3190333624042196419000045138000001413890000000000000                                                                       LAPIZ ELECTROBISTURI  SOB X 1SOB     1
RC0001043468263A202100000027615100000027615123/10/20211014    3190333624042196419000000503900000296270000000000000                                                                  SUTURA POLYSORB 3-0 75CM V20 GL122SIN     1
RC0001043468263A202100000027615100000027615123/10/20211014    3190333624042196419000015994600000632480000000000000                                                                          MONOCRYL 4-0 PS-2 45 Y496GSIN     1
RC0001043468263A202100000027615100000027615123/10/20211014    3190333624042196419000043879100001138200000000000000                                                                  HOJA BISTURI # 15 CSSB 15 01002003SOB     1
RC0001043468263A202100000027615100000027615123/10/20211014    31903336240421964190000Q1AA7300000610640000000000000                                                            CATETER PERIFE INTROCAN # 22G 4251628-04SIN     1
RC0001043468263A202100000027615100000027615123/10/20211014    31903336240421964190000Q1AA7400003911720000000000000                                                            CATETER PERIFE INTROCAN # 24G 4251601-04SOB     2
RC0001043468263A202100000027615100000027615123/10/20211014    3190333624042196419000030161400001459220000000000000                                                                       MANGUERA SUCCION 6 MM*3.1 MTSSOB     1
RC0001043468263A202100000027615100000027615123/10/20211014    3190333624042196419000011073300001096420000000000000                                                                BOLSA DE SUCCION DE FLUIDOS x 2500mLBOL     1
RC0001043468263A202100000027615100000027615123/10/20211014    3190333624042196419000053074400000607910000000000000                                                               GASA ESTERIL 10*10 SOBRE X 3 UNIDADESSOB     3
RC0001043468263A202100000027615100000027615123/10/20211014    3190333624042196419000011085200001585390000000000000                                                                       GUANTE QUIRURGICO TALLA 7 1/2SOB     1
RC0001043468263A202100000027615100000027615123/10/20211014    3190333624042196419000011085100001082120000000000000                                                                           GUANTE QUIRURGICO TALLA 7SOB     1
RC0001043468263A202100000027615100000027615123/10/20211014    3190333624042196419000043485100001618510000000000000                GUANTE QUIRURGICO DE LATEX REF 2D72N65X CAJ X 50 PROTEXIS  6.5 BN EXENTO-DC.417/2020SOB     1
RC0001043468263A202100000027615100000027615123/10/20211014    3190333624042196419000038576600000256740000000000000                                                                        SONDA ASPIRACION CONTROL #12SIN     1
RC0001043468263A202100000027615100000027615123/10/20211014    3190333624042196419000039174600001072010000000000000                                                                           TUBO ENDOTRAQUEAL C/B 5.0SOB     1
RC0001043468263A202100000027615100000027615123/10/20211014    3190333624042196419000051515300000598140000000000000                                                                            MASCARILLA ANESTESIA # 3SIN     1
RC0001043468263A202100000027615100000027615123/10/20211014    3190333624042196419000011099300000777780000000000000                                                                     FILTRO BACTERIANO VIRICO ADULTOBOL     1
RC0001043468263A202100000027615100000027615123/10/20211014    3190333624042196419000031011400000762720000000000000                                                                           CANULA GUEDEL # 3 (90 MM)SOB     1
RC0001043468263A202100000027615100000027615123/10/20211014    3190333624042196419000024673000001411210000000000000                                                                  JERINGA DESECHABLE 3 ML 21 X 1 1/2SOB     1
RC0001043468263A202100000027615100000027615123/10/20211014    3190333624042196419000024674000000220660000000000000                             JERINGA A 3 PARTES CON AGUJA  SOB X 1 RYMCO  10ML BN EXENTO-DC.417/2020SIN     1
RC0001043468263A202100000027615100000027615123/10/20211014    31903336240421964190000E1AB0200000199290000000000000                                                            SOLUCION SALINA 0.9% SLN INY BO X 100 MLBIN     1
RC0001043468263A202100000027615100000027615123/10/20211014    31903336240421964190000N01B1600003888910000000000000                                             BUPIROP SE S/P 50MG/10ML(5MG/ML) SOL INY CAJ X 24AMPACKAPC     1
RC0001043468263A202100000027615100000027615123/10/20211014    31903336240421964190000N2BB0100000787510000000000000                                                                    DIPIRONA SODICA Sln Iny 1 g/2 mlAMP     1
RC0001043468263A202100000027615100000027615123/10/20211014    31903336240421964190000H02A0100001664960000000000000                                                                        DEXAMETASONA SLN INY 4 MG/MLAMP     1
