CC0000042201170A202100000027574100000027574114/10/20211425    3190333624042196419000042753100003929850000000000000                   GASA ADHESIVA STRETCH REF 02037-00 ROL X 10MT FIXOMULL 10CM BN EXENTO-DC.417/2020CMT    40
CC0000042201170A202100000027574100000027574114/10/20211425    3190333624042196419000047373400000228840000000000000                                                                             PINZA COLOSTOMIA 175635PZA     1
CC0000042201170A202100000027574100000027574114/10/20211425    3190333624042196419000040514100000228740000000000000                                                               BARRERA COLOSTOMIA CONVATEC 57 125145PZA     1
CC0000042201170A202100000027574100000027574114/10/20211425    3190333624042196419000040516100000228660000000000000                                                                 BOLSA COLOSTOMIA CONVATEC 57 402534PZA     1
CC0000042201170A202100000027574100000027574114/10/20211425    3190333624042196419000000501100000296260000000000000                                                                          POLYSORB 2/0 V20 REF GL123SIN     1
CC0000042201170A202100000027574100000027574114/10/20211425    3190333624042196419000018351100000232850000000000000                                                                                 SEDA 2-0 SC-26 185TSIN     1
CC0000042201170A202100000027574100000027574114/10/20211425    3190333624042196419000013428900000967700000000000000                                                                      GRAPADORA CIRCULAR 29MM CDH29ACAJ     1
CC0000042201170A202100000027574100000027574114/10/20211425    31903336240421964190000A2BC0900000200150000000000000                                                                               ORAZOLE Sln Iny 40 mgCIN     1
CC0000042201170A202100000027574100000027574114/10/20211425    3190333624042196419000011099300000777780000000000000                                                                     FILTRO BACTERIANO VIRICO ADULTOBOL     1
CC0000042201170A202100000027574100000027574114/10/20211425    3190333624042196419000049428200000860740000000000000                                                                       VENDA ELASTICA 3*5 NO ESTERILBOL     1
CC0000042201170A202100000027574100000027574114/10/20211425    3190333624042196419000000102300000222960000000000000                                                                 JERINGA DESECHABLE SIN AGUJA X 20mLSIN     1
CC0000042201170A202100000027574100000027574114/10/20211425    31903336240421964190000K0960000001052020000000000000                                                            RECARGA ARTICULABLE 60 PURPURA EGIA60AMTPZA     5
CC0000042201170A202100000027574100000027574114/10/20211425    3190333624042196419000010900800001592080000000000000                                                                PINZA LIGASURE IMPACT REF LF4318 UNDPZA     1
CC0000042201170A202100000027574100000027574114/10/20211425    3190333624042196419000014581900000529900000000000000                                                            GRAPADORA CON GRAPAS PIEL 35W 8886803712PZA     1
CC0000042201170A202100000027574100000027574114/10/20211425    3190333624042196419000018349800000232820000000000000                                                                                  SEDA 2-0 S.A SA85TSIN     1
CC0000042201170A202100000027574100000027574114/10/20211425    3190333624042196419000012472400000232190000000000000                                                                 SUTURA ETHILON 2-0 SC-26 45CM  164TSIN     1
CC0000042201170A202100000027574100000027574114/10/20211425    3190333624042196419000019488700000753270000000000000                                                                              VICRYL 3-0 SH1 VCP311HSOB     4
CC0000042201170A202100000027574100000027574114/10/20211425    3190333624042196419000000503800004005430000000000000  SUTURA ABSORB TRENZADA GS-21 REF CL-923 CAJ X 36 POLYSORB 90CM - 2-0 VIOLETA BN EXENTO-DC.417/2020SIN     1
CC0000042201170A202100000027574100000027574114/10/20211425    3190333624042196419000019487800001585180000000000000                                                                    VICRYL 1 PLUS 70 CM CT-1 VCP341HSOB     1
CC0000042201170A202100000027574100000027574114/10/20211425    3190333624042196419000017565400000232590000000000000                                                                             PROLENE 1 75 CT-1 8425HSIN     1
CC0000042201170A202100000027574100000027574114/10/20211425    3190333624042196419000043879500001138210000000000000                                                                                    HOJA BISTURI #20SOB     1
CC0000042201170A202100000027574100000027574114/10/20211425    3190333624042196419000021052200000380370000000000000                                                                        RESERVORIO J-VAC 100 ml 2160PZA     2
CC0000042201170A202100000027574100000027574114/10/20211425    3190333624042196419000022310000000376030000000000000                                                                      DRENA BLAKE 1/4 19 FR 2231 J&JPZA     2
CC0000042201170A202100000027574100000027574114/10/20211425    3190333624042196419000045138000001413890000000000000                                                                       LAPIZ ELECTROBISTURI  SOB X 1SOB     1
CC0000042201170A202100000027574100000027574114/10/20211425    3190333624042196419000030161400001459220000000000000                                                                       MANGUERA SUCCION 6 MM*3.1 MTSSOB     1
CC0000042201170A202100000027574100000027574114/10/20211425    3190333624042196419000020042600000633850000000000000                                                                                       ASEPTOJERINGASIN     1
CC0000042201170A202100000027574100000027574114/10/20211425    3190333624042196419000049059800000267410000000000000                                                                 MEDIA ANTIEMBOLICA TAL L 3634LF PARBOL     1
CC0000042201170A202100000027574100000027574114/10/20211425    31903336240421964190000J01DA300001239950000000000000                                                            CEFAZOLINA SODICA POLVO LIOF SLN INY 1 GVAL     1
CC0000042201170A202100000027574100000027574114/10/20211425    3190333624042196419000022426800001140510000000000000                                                                    EQUIPO MACROGOTEO BAXTER MRC0001SOB     1
CC0000042201170A202100000027574100000027574114/10/20211425    3190333624042196419000016830000000970620000000000000                                                             SIST FIJACION CAT PERIFERICO 6.5X7 1683SOB     2
CC0000042201170A202100000027574100000027574114/10/20211425    3190333624042196419000036441300000236540000000000000                                                                    JERINGA 1 ML GASES ARTERIAL 9023SIN     1
CC0000042201170A202100000027574100000027574114/10/20211425    3190333624042196419000000300400000227490000000000000                                                             CAT ARTERIAL RADIAL  RA04120  ARROW 20GSIN     1
CC0000042201170A202100000027574100000027574114/10/20211425    3190333624042196419000011051700000226350000000000000                                                            KIT TRANSDUCTOR SENCILLO C/VAMP PXVMP260SOB     1
CC0000042201170A202100000027574100000027574114/10/20211425    31903336240421964190000Q1AA7100000610620000000000000                                                            CATETER PERIFE INTROCAN # 18G 4251687-04SIN     2
CC0000042201170A202100000027574100000027574114/10/20211425    3190333624042196419000011190100000259640000000000000                                                            CATETER INSYTE 16G X 1.14PULG REF 381254SIN     1
CC0000042201170A202100000027574100000027574114/10/20211425    3190333624042196419000035356500003919000000000000000                                                                                        LLAVE 3 VIASSOB     3
CC0000042201170A202100000027574100000027574114/10/20211425    3190333624042196419000022425200000548240000000000000                       EXTENSION DE ANESTESIA REF 1139 SOB X 1 SHERLEG  ADULTO BN EXENTO-DC.417/2020SIN     2
CC0000042201170A202100000027574100000027574114/10/20211425    3190333624042196419000020750600000296780000000000000                                                                PLACA ELECTRO RETORNO PACIENTE E7506SIN     1
CC0000042201170A202100000027574100000027574114/10/20211425    3190333624042196419000038570000001123500000000000000                                                                              SONDA FOLEY #16 2 VIASSOB     1
CC0000042201170A202100000027574100000027574114/10/20211425    3190333624042196419000031188000000236790000000000000                                                                                     CISTOFLO ADULTOSIN     1
CC0000042201170A202100000027574100000027574114/10/20211425    3190333624042196419000011073300001096420000000000000                                                                BOLSA DE SUCCION DE FLUIDOS x 2500mLBOL     1
CC0000042201170A202100000027574100000027574114/10/20211425    3190333624042196419000024674000000220660000000000000                             JERINGA A 3 PARTES CON AGUJA  SOB X 1 RYMCO  10ML BN EXENTO-DC.417/2020SIN     2
CC0000042201170A202100000027574100000027574114/10/20211425    3190333624042196419000024673600000222980000000000000                                                                     JERINGA DESECHABLE 5 ml 27*11/2SIN     2
CC0000042201170A202100000027574100000027574114/10/20211425    3190333624042196419000011085300001082140000000000000                                                                           GUANTE QUIRURGICO TALLA 8SOB     5
CC0000042201170A202100000027574100000027574114/10/20211425    3190333624042196419000011085200001585390000000000000                                                                       GUANTE QUIRURGICO TALLA 7 1/2SOB     5
CC0000042201170A202100000027574100000027574114/10/20211425    3190333624042196419000011085100001082120000000000000                                                                           GUANTE QUIRURGICO TALLA 7SOB     3
CC0000042201170A202100000027574100000027574114/10/20211425    3190333624042196419000043485100001618510000000000000                GUANTE QUIRURGICO DE LATEX REF 2D72N65X CAJ X 50 PROTEXIS  6.5 BN EXENTO-DC.417/2020SOB     5
CC0000042201170A202100000027574100000027574114/10/20211425    3190333624042196419000053074400000607910000000000000                                                               GASA ESTERIL 10*10 SOBRE X 3 UNIDADESSOB     7
CC0000042201170A202100000027574100000027574114/10/20211425    3190333624042196419000039175100001072060000000000000                                                                           TUBO ENDOTRAQUEAL C/B 7.5SOB     1
CC0000042201170A202100000027574100000027574114/10/20211425    3190333624042196419000051515500000598160000000000000                                                                            MASCARILLA ANESTESIA # 5SIN     1
CC0000042201170A202100000027574100000027574114/10/20211425    3190333624042196419000038568100000258050000000000000                                                                         CANULA OXIGENO NASAL ADULTOSIN     1
CC0000042201170A202100000027574100000027574114/10/20211425    3190333624042196419000000101000001101640000000000000                                                                  AGUJA DESECHABLE  23G X 1 1/2 PULGSOB     1
CC0000042201170A202100000027574100000027574114/10/20211425    3190333624042196419000000100600000223090000000000000                                                                      AGUJA DESECHABLE 18G X 1 1/2 PSIN     2
CC0000042201170A202100000027574100000027574114/10/20211425    31903336240421964190000E1AD0200003888320000000000000                                                                              HARTMAN SLN INY 500 MLBOL    16
CC0000042201170A202100000027574100000027574114/10/20211425    31903336240421964190000E1AB0500003888400000000000000                                                              SOLUCION SALINA 0.9% SLN INY X 1000 MLBOL     2
CC0000042201170A202100000027574100000027574114/10/20211425    31903336240421964190000E1AB0300003888390000000000000                                                            SOLUCION SALINA 0.9% SLN INY BO X 500 MLBOL     2
CC0000042201170A202100000027574100000027574114/10/20211425    31903336240421964190000E1AB0200000199290000000000000                                                            SOLUCION SALINA 0.9% SLN INY BO X 100 MLBIN     2
CC0000042201170A202100000027574100000027574114/10/20211425    31903336240421964190000N2AA0100000301640000000000000                                                                            MORFINA Sln Iny 10 mg/mlAMP     1
CC0000042201170A202100000027574100000027574114/10/20211425    31903336240421964190000N02B1100001169680000000000000                              PARACETAMOL 1000MG/100ML(10MG/ML) SOL INY  VIAL X 100ML FRESENIUS KABIVAL     1
CC0000042201170A202100000027574100000027574114/10/20211425    31903336240421964190000H02AB500001664950000000000000                                                            DEXAMETASONA SLN INY 8 MG/2 ML AMP /CDS/AMP     2
CC0000042201170A202100000027574100000027574114/10/20211425    31903336240421964190000A03F0300001626860000000000000                                                                   METOCLOPRAMIDA SLN INY 10 MG/2 MLAMP     2
CC0000042201170A202100000027574100000027574114/10/20211425    31903336240421964190000N1BA2400001195280000000000000                                                                    LIDOCAINA 2% S/E Sln Iny x 10 mlAMP     1
CC0000042201170A202100000027574100000027574114/10/20211425    31903336240421964190000N01A0400003939010000000000000                                               MAYOPROFOL 200MG/20ML(1%) EMUL INY CAJ X 1VIAL X 20MLVAL     1
CC0000042201170A202100000027574100000027574114/10/20211425    31903336240421964190000M3AC0600000720540000000000000                                                                         ESMERON SLN INY 50 MG /5 MLVAL     1
CC0000042201170A202100000027574100000027574114/10/20211425    31903336240421964190000N2AA0700001587170000000000000                                                                                 ULTIVA Sln Iny 2 mgVAL     1
