RC0001063188067A202100000027582600000027582615/10/20211440    3190333624042196419000019487800001585180000000000000                                                                    VICRYL 1 PLUS 70 CM CT-1 VCP341HSOB     2
RC0001063188067A202100000027582600000027582615/10/20211440    31903336240421964190000N1AH0200003906560000000000000                                                                     FENTANIL Iny 0.05 mg/ml x 10 mlAMP     1
RC0001063188067A202100000027582600000027582615/10/20211440    3190333624042196419000000500600004008630000000000000         SUTURA ABSORBIBLE MONOFIL P-12 REF SM-5627 CAJ X 12 BIOSYN 45CM - 4-0 BN EXENTO-DC.417/2020SIN     2
RC0001063188067A202100000027582600000027582615/10/20211440    3190333624042196419000000503900000296270000000000000                                                                  SUTURA POLYSORB 3-0 75CM V20 GL122SIN     1
RC0001063188067A202100000027582600000027582615/10/20211440    3190333624042196419000000501200001566080000000000000                                                            STEEL MONOFILAMENT 2.0 GS-13 88862420-83PZA     1
RC0001063188067A202100000027582600000027582615/10/20211440    31903336240421964190000Q1AA3300001585140000000000000                                                                         APOSITO TEGADERM 10*12 1626SOB     1
RC0001063188067A202100000027582600000027582615/10/20211440    31903336240421964190000E1AB0300003888390000000000000                                                            SOLUCION SALINA 0.9% SLN INY BO X 500 MLBOL     1
RC0001063188067A202100000027582600000027582615/10/20211440    3190333624042196419000045138000001413890000000000000                                                                       LAPIZ ELECTROBISTURI  SOB X 1SOB     1
RC0001063188067A202100000027582600000027582615/10/20211440    3190333624042196419000013077800000471960000000000000                                                             GASA NO TEJIDA EST 7.5 X 7.5 SOB X 3 UNSOB     1
RC0001063188067A202100000027582600000027582615/10/20211440    3190333624042196419000020042600000633850000000000000                                                                                       ASEPTOJERINGASIN     1
RC0001063188067A202100000027582600000027582615/10/20211440    3190333624042196419000030161400001459220000000000000                                                                       MANGUERA SUCCION 6 MM*3.1 MTSSOB     1
RC0001063188067A202100000027582600000027582615/10/20211440    3190333624042196419000043879100001138200000000000000                                                                  HOJA BISTURI # 15 CSSB 15 01002003SOB     1
RC0001063188067A202100000027582600000027582615/10/20211440    3190333624042196419000020750700000576830000000000000                                                                 PLACA QUIRURGICA  NEONATO REF E7512SIN     1
RC0001063188067A202100000027582600000027582615/10/20211440    3190333624042196419000053074400000607910000000000000                                                               GASA ESTERIL 10*10 SOBRE X 3 UNIDADESSOB     1
RC0001063188067A202100000027582600000027582615/10/20211440    3190333624042196419000011085200001585390000000000000                                                                       GUANTE QUIRURGICO TALLA 7 1/2SOB     1
RC0001063188067A202100000027582600000027582615/10/20211440    3190333624042196419000011085100001082120000000000000                                                                           GUANTE QUIRURGICO TALLA 7SOB     1
RC0001063188067A202100000027582600000027582615/10/20211440    3190333624042196419000043485100001618510000000000000                GUANTE QUIRURGICO DE LATEX REF 2D72N65X CAJ X 50 PROTEXIS  6.5 BN EXENTO-DC.417/2020SOB     1
RC0001063188067A202100000027582600000027582615/10/20211440    3190333624042196419000011047900000223010000000000000                                                                            JERINGA X 1ML REF 302579SIN     1
RC0001063188067A202100000027582600000027582615/10/20211440    3190333624042196419000024673600000222980000000000000                                                                     JERINGA DESECHABLE 5 ml 27*11/2SIN     2
RC0001063188067A202100000027582600000027582615/10/20211440    3190333624042196419000024674000000220660000000000000                             JERINGA A 3 PARTES CON AGUJA  SOB X 1 RYMCO  10ML BN EXENTO-DC.417/2020SIN     2
RC0001063188067A202100000027582600000027582615/10/20211440    3190333624042196419000024674500000322810000000000000                                                                   JERINGA DESECHABLE 20 ml 21*1 1/2SIN     1
RC0001063188067A202100000027582600000027582615/10/20211440    31903336240421964190000E1AB0200000199290000000000000                                                            SOLUCION SALINA 0.9% SLN INY BO X 100 MLBIN     1
RC0001063188067A202100000027582600000027582615/10/20211440    31903336240421964190000N01B0200003888110000000000000                                           ROXICAINA SE 100MG/10ML(1%) SOL INY CAJ X 24AMPACK X 10MLAPC     2
RC0001063188067A202100000027582600000027582615/10/20211440    31903336240421964190000N1BA2400001195280000000000000                                                                    LIDOCAINA 2% S/E Sln Iny x 10 mlAMP     1
RC0001063188067A202100000027582600000027582615/10/20211440    31903336240421964190000N05CD300000218170000000000000                                           DORMICUM IV-IM 5MG/5ML(1MG/ML) SOL INY  CAJ X 10AMP X 5MLAMP     1
