CC0000022543387A202100000027664800000027664802/11/20211844    31903336240421964190000M03AC100000197200000000000000                                                                   TRACURION SLN INY 10 MG /5 ML /R/AMP     1
CC0000022543387A202100000027664800000027664802/11/20211844    3190333624042196419000038570000001123500000000000000                                                                              SONDA FOLEY #16 2 VIASSOB     1
CC0000022543387A202100000027664800000027664802/11/20211844    3190333624042196419000031188000000236790000000000000                                                                                     CISTOFLO ADULTOSIN     1
CC0000022543387A202100000027664800000027664802/11/20211844    31903336240421964190000Q1AA7300000610640000000000000                                                            CATETER PERIFE INTROCAN # 22G 4251628-04SIN     4
CC0000022543387A202100000027664800000027664802/11/20211844    31903336240421964190000Q1AA7200000610630000000000000                                                            CATETER PERIFE INTROCAN # 20G 4251644-04SIN     2
CC0000022543387A202100000027664800000027664802/11/20211844    3190333624042196419000019487800001585180000000000000                                                                    VICRYL 1 PLUS 70 CM CT-1 VCP341HSOB     1
CC0000022543387A202100000027664800000027664802/11/20211844    3190333624042196419000043879100001138200000000000000                                                                  HOJA BISTURI # 15 CSSB 15 01002003SOB     1
CC0000022543387A202100000027664800000027664802/11/20211844    3190333624042196419000000503900000296270000000000000                                                                  SUTURA POLYSORB 3-0 75CM V20 GL122SIN     3
CC0000022543387A202100000027664800000027664802/11/20211844    3190333624042196419000047373400000228840000000000000                                                                             PINZA COLOSTOMIA 175635PZA     1
CC0000022543387A202100000027664800000027664802/11/20211844    3190333624042196419000011072500000228720000000000000                                                               BARRERa FLEXIB STOMAHESI 401612  57MMPZA     1
CC0000022543387A202100000027664800000027664802/11/20211844    3190333624042196419000040516100000228660000000000000                                                                 BOLSA COLOSTOMIA CONVATEC 57 402534PZA     1
CC0000022543387A202100000027664800000027664802/11/20211844    31903336240421964190000N01A0500003844190000000000000                                                                          REMIFENTANILO SLN INY 2 MGVAL     1
CC0000022543387A202100000027664800000027664802/11/20211844    3190333624042196419000045138000001413890000000000000                                                                       LAPIZ ELECTROBISTURI  SOB X 1SOB     1
CC0000022543387A202100000027664800000027664802/11/20211844    3190333624042196419000022425200000548240000000000000                       EXTENSION DE ANESTESIA REF 1139 SOB X 1 SHERLEG  ADULTO BN EXENTO-DC.417/2020SIN     1
CC0000022543387A202100000027664800000027664802/11/20211844    3190333624042196419000035356500003919000000000000000                                                                                        LLAVE 3 VIASSOB     2
CC0000022543387A202100000027664800000027664802/11/20211844    31903336240421964190000Q1AA7100000610620000000000000                                                            CATETER PERIFE INTROCAN # 18G 4251687-04SIN     1
CC0000022543387A202100000027664800000027664802/11/20211844    3190333624042196419000022426800001140510000000000000                                                                    EQUIPO MACROGOTEO BAXTER MRC0001SOB     1
CC0000022543387A202100000027664800000027664802/11/20211844    31903336240421964190000J01DA300001239950000000000000                                                            CEFAZOLINA SODICA POLVO LIOF SLN INY 1 GVAL     2
CC0000022543387A202100000027664800000027664802/11/20211844    3190333624042196419000011073300001096420000000000000                                                                BOLSA DE SUCCION DE FLUIDOS x 2500mLBOL     1
CC0000022543387A202100000027664800000027664802/11/20211844    3190333624042196419000020750600000296780000000000000                                                                PLACA ELECTRO RETORNO PACIENTE E7506SIN     1
CC0000022543387A202100000027664800000027664802/11/20211844    3190333624042196419000053074400000607910000000000000                                                               GASA ESTERIL 10*10 SOBRE X 3 UNIDADESSOB     3
CC0000022543387A202100000027664800000027664802/11/20211844    3190333624042196419000024673600000222980000000000000                                                                     JERINGA DESECHABLE 5 ml 27*11/2SIN     1
CC0000022543387A202100000027664800000027664802/11/20211844    3190333624042196419000024674000000220660000000000000                             JERINGA A 3 PARTES CON AGUJA  SOB X 1 RYMCO  10ML BN EXENTO-DC.417/2020SIN     2
CC0000022543387A202100000027664800000027664802/11/20211844    3190333624042196419000000102300000222960000000000000                                                                 JERINGA DESECHABLE SIN AGUJA X 20mLSIN     1
CC0000022543387A202100000027664800000027664802/11/20211844    3190333624042196419000051515500000598160000000000000                                                                            MASCARILLA ANESTESIA # 5SIN     1
CC0000022543387A202100000027664800000027664802/11/20211844    3190333624042196419000038568100000258050000000000000                                                                         CANULA OXIGENO NASAL ADULTOSIN     1
CC0000022543387A202100000027664800000027664802/11/20211844    3190333624042196419000011085300001082140000000000000                                                                           GUANTE QUIRURGICO TALLA 8SOB     3
CC0000022543387A202100000027664800000027664802/11/20211844    3190333624042196419000011085200001585390000000000000                                                                       GUANTE QUIRURGICO TALLA 7 1/2SOB     1
CC0000022543387A202100000027664800000027664802/11/20211844    3190333624042196419000011085100001082120000000000000                                                                           GUANTE QUIRURGICO TALLA 7SOB     2
CC0000022543387A202100000027664800000027664802/11/20211844    3190333624042196419000043485100001618510000000000000                GUANTE QUIRURGICO DE LATEX REF 2D72N65X CAJ X 50 PROTEXIS  6.5 BN EXENTO-DC.417/2020SOB     4
CC0000022543387A202100000027664800000027664802/11/20211844    3190333624042196419000039175100001072060000000000000                                                                           TUBO ENDOTRAQUEAL C/B 7.5SOB     1
CC0000022543387A202100000027664800000027664802/11/20211844    3190333624042196419000020056600001101530000000000000                                                                AGUJA HIPODERMICA DESECH 18G X 1 1/2SOB     1
CC0000022543387A202100000027664800000027664802/11/20211844    3190333624042196419000011099300000777780000000000000                                                                     FILTRO BACTERIANO VIRICO ADULTOBOL     1
CC0000022543387A202100000027664800000027664802/11/20211844    3190333624042196419000001200400000530690000000000000                                                                          CANULA DE MAYO # 5 (100MM)SIN     1
CC0000022543387A202100000027664800000027664802/11/20211844    31903336240421964190000E1AD0200003888320000000000000                                                                              HARTMAN SLN INY 500 MLBOL     1
CC0000022543387A202100000027664800000027664802/11/20211844    31903336240421964190000E1AB0300003888390000000000000                                                            SOLUCION SALINA 0.9% SLN INY BO X 500 MLBOL     4
CC0000022543387A202100000027664800000027664802/11/20211844    31903336240421964190000E1AB0700003888350000000000000                                                            SOLUCION SALINA 0.9% SLN INY BO X 250 MLBOL     1
CC0000022543387A202100000027664800000027664802/11/20211844    31903336240421964190000N01B0200003888110000000000000                                           ROXICAINA SE 100MG/10ML(1%) SOL INY CAJ X 24AMPACK X 10MLAPC     1
CC0000022543387A202100000027664800000027664802/11/20211844    31903336240421964190000A2BC0900000200150000000000000                                                                               ORAZOLE Sln Iny 40 mgCIN     1
CC0000022543387A202100000027664800000027664802/11/20211844    31903336240421964190000H02AB700000585860000000000000                                                                HIDROCORTISONA SUCCI POL LIOF 100 MGVAL     1
CC0000022543387A202100000027664800000027664802/11/20211844    31903336240421964190000N02BB100000777810000000000000                                                               DIPIRONA MAGNESICA SLN INY 2.5 G/5 MLAMP     1
CC0000022543387A202100000027664800000027664802/11/20211844    31903336240421964190000H02A0100001664960000000000000                                                                        DEXAMETASONA SLN INY 4 MG/MLAMP     2
