RC0001043198450A202100000027591900000027591919/10/20211128    3190333624042196419000000503900000296270000000000000                                                                  SUTURA POLYSORB 3-0 75CM V20 GL122SIN     3
RC0001043198450A202100000027591900000027591919/10/20211128    3190333624042196419000038575400000257130000000000000                                                                                     SONDA TORAX #20SIN     1
RC0001043198450A202100000027591900000027591919/10/20211128    3190333624042196419000038575300000257120000000000000                                                                                     SONDA TORAX #18SIN     1
RC0001043198450A202100000027591900000027591919/10/20211128    3190333624042196419000038568300000257010000000000000                                                                                   SONDA NELATON #08SIN     1
RC0001043198450A202100000027591900000027591919/10/20211128    3190333624042196419000038568400000256940000000000000                                                                                   SONDA NELATON #10SIN     1
RC0001043198450A202100000027591900000027591919/10/20211128    3190333624042196419000024673600000222980000000000000                                                                     JERINGA DESECHABLE 5 ml 27*11/2SIN     1
RC0001043198450A202100000027591900000027591919/10/20211128    31903336240421964190000Q1A11500000331560000000000000                                                                     CATETER RADIAL #20 REF. 115.090SIN     1
RC0001043198450A202100000027591900000027591919/10/20211128    3190333624042196419000021016800000227920000000000000                                                                  CATETER TRILUM PEDIA 5.5F CS16553ESIN     1
RC0001043198450A202100000027591900000027591919/10/20211128    31903336240421964190000B05A0300003888230000000000000                                                        VOLUVEN (6+0.9)% SOL INY CAJ X 20BOL X 500MLBOL     1
RC0001043198450A202100000027591900000027591919/10/20211128    31903336240421964190000S01A0500000503250000000000000                                                                   GENTAMICINA 0.3 % Sln Oft x 10 mlFCO     1
RC0001043198450A202100000027591900000027591919/10/20211128    3190333624042196419000038575200000257110000000000000                                                                          SONDA PARA TORAX TUBO 16FRSIN     1
RC0001043198450A202100000027591900000027591919/10/20211128    3190333624042196419000021194000000227810000000000000                                                                   CATETER BILUMEN PEDIAT 4F CS12402SIN     1
RC0001043198450A202100000027591900000027591919/10/20211128    3190333624042196419000018352000000232900000000000000                                                                                   SEDA 3-0 SH K832HSIN     2
RC0001043198450A202100000027591900000027591919/10/20211128    3190333624042196419000043879100001138200000000000000                                                                  HOJA BISTURI # 15 CSSB 15 01002003SOB     1
RC0001043198450A202100000027591900000027591919/10/20211128    3190333624042196419000011063900000296020000000000000                                                            SIST DRENAJE TORACICO 888571299  AQ-SEALBOL     1
RC0001043198450A202100000027591900000027591919/10/20211128    3190333624042196419000022426800001140510000000000000                                                                    EQUIPO MACROGOTEO BAXTER MRC0001SOB     1
RC0001043198450A202100000027591900000027591919/10/20211128    3190333624042196419000022425100001392880000000000000             EQUIPO MICROGOTEO SIN AGUJA REF 201000 PAQ X 100 SOB GOTHAPLAST   BN EXENTO-DC.417/2020BOL     1
RC0001043198450A202100000027591900000027591919/10/20211128    31903336240421964190000Q1AA7000001097160000000000000                                                            CATETER PERIFE INTROCAN # 16G 4251709-04SOB     1
RC0001043198450A202100000027591900000027591919/10/20211128    31903336240421964190000Q1AA6900000531340000000000000                                                            CATETER PERIFE INTROCAN # 14G 4251890-04SIN     1
RC0001043198450A202100000027591900000027591919/10/20211128    31903336240421964190000Q1AA7300000610640000000000000                                                            CATETER PERIFE INTROCAN # 22G 4251628-04SIN     2
RC0001043198450A202100000027591900000027591919/10/20211128    31903336240421964190000Q1AA7200000610630000000000000                                                            CATETER PERIFE INTROCAN # 20G 4251644-04SIN     2
RC0001043198450A202100000027591900000027591919/10/20211128    3190333624042196419000011006500000227530000000000000                                                             CATETER BILUMEN 4F*8CM PEDIA 01CS15402ESIN     1
RC0001043198450A202100000027591900000027591919/10/20211128    3190333624042196419000011051900000226360000000000000                                                               KIT TRANSDUCTOR SENCILLO S/VAMP PX260SOB     1
RC0001043198450A202100000027591900000027591919/10/20211128    3190333624042196419000043879200001138180000000000000                                                                                   HOJA BISTURI # 11SOB     2
RC0001043198450A202100000027591900000027591919/10/20211128    3190333624042196419000018354100000232880000000000000                                                                  SUTURA SEDA NEGRA 3-0 KS 75CM 622HSIN     1
RC0001043198450A202100000027591900000027591919/10/20211128    3190333624042196419000000602600001259280000000000000                                                             APOSITO TEGADERM IV PD 1610 5CM X 5.7CMSOB     1
RC0001043198450A202100000027591900000027591919/10/20211128    3190333624042196419000011085100001082120000000000000                                                                           GUANTE QUIRURGICO TALLA 7SOB     4
RC0001043198450A202100000027591900000027591919/10/20211128    31903336240421964190000B1AB0100001227270000000000000                                             HEPAMAX 25000UI/5ML(5000UI/ML) SOL INY  CAJ X 25AMPX5MLAMP     1
RC0001043198450A202100000027591900000027591919/10/20211128    31903336240421964190000N01B1300001195250000000000000                                                                         BUPIROP 0.5% S/EPIN X 10 MLAMP     1
RC0001043198450A202100000027591900000027591919/10/20211128    3190333624042196419000030161400001459220000000000000                                                                       MANGUERA SUCCION 6 MM*3.1 MTSSOB     1
RC0001043198450A202100000027591900000027591919/10/20211128    3190333624042196419000045138000001413890000000000000                                                                       LAPIZ ELECTROBISTURI  SOB X 1SOB     2
RC0001043198450A202100000027591900000027591919/10/20211128    3190333624042196419000012474000000232230000000000000                                                                SUTURA ETHILON 4-0 SC-20 45CM 14502TSIN     1
RC0001043198450A202100000027591900000027591919/10/20211128    3190333624042196419000029958500004018110000000000000  SUTURA MONOFIL ABSORBI (2)RB-1 REF W9108H CAJ X 36 PDS II 90CM - 5-0 VIOLETA BN EXENTO-DC.417/2020SOB     5
RC0001043198450A202100000027591900000027591919/10/20211128    3190333624042196419000098670000000785980000000000000                                                                             PDS 4-0 RB1 70  PDP304HSOB     2
RC0001043198450A202100000027591900000027591919/10/20211128    3190333624042196419000015994600000632480000000000000                                                                          MONOCRYL 4-0 PS-2 45 Y496GSIN     1
RC0001043198450A202100000027591900000027591919/10/20211128    3190333624042196419000020750700000576830000000000000                                                                 PLACA QUIRURGICA  NEONATO REF E7512SIN     1
RC0001043198450A202100000027591900000027591919/10/20211128    31903336240421964190000A3BB0200000512940000000000000                                                                          BUSCAPINA SIMPLE Iny 20 mgAMP     1
RC0001043198450A202100000027591900000027591919/10/20211128    31903336240421964190000C01C0300001261020000000000000                                                               ETILEFRINA HCL SLN INY 10 MG/1 ML /R/AMP     1
RC0001043198450A202100000027591900000027591919/10/20211128    3190333624042196419000049419700001679920000000000000                                                                        VENDA ALGODON 5*5 NO ESTERILSOB     1
RC0001043198450A202100000027591900000027591919/10/20211128    31903336240421964190000N01A0400003939010000000000000                                               MAYOPROFOL 200MG/20ML(1%) EMUL INY CAJ X 1VIAL X 20MLVAL     1
RC0001043198450A202100000027591900000027591919/10/20211128    3190333624042196419000000101000001101640000000000000                                                                  AGUJA DESECHABLE  23G X 1 1/2 PULGSOB     4
RC0001043198450A202100000027591900000027591919/10/20211128    3190333624042196419000039173700001618470000000000000                                                                           TUBO ENDOTRAQUEAL S/B 3.0SOB     1
RC0001043198450A202100000027591900000027591919/10/20211128    3190333624042196419000022425200000548240000000000000                       EXTENSION DE ANESTESIA REF 1139 SOB X 1 SHERLEG  ADULTO BN EXENTO-DC.417/2020SIN     2
RC0001043198450A202100000027591900000027591919/10/20211128    3190333624042196419000035356500003919000000000000000                                                                                        LLAVE 3 VIASSOB     3
RC0001043198450A202100000027591900000027591919/10/20211128    3190333624042196419000011073300001096420000000000000                                                                BOLSA DE SUCCION DE FLUIDOS x 2500mLBOL     1
RC0001043198450A202100000027591900000027591919/10/20211128    3190333624042196419000053074400000607910000000000000                                                               GASA ESTERIL 10*10 SOBRE X 3 UNIDADESSOB     6
RC0001043198450A202100000027591900000027591919/10/20211128    3190333624042196419000011085300001082140000000000000                                                                           GUANTE QUIRURGICO TALLA 8SOB     1
RC0001043198450A202100000027591900000027591919/10/20211128    3190333624042196419000011085200001585390000000000000                                                                       GUANTE QUIRURGICO TALLA 7 1/2SOB     9
RC0001043198450A202100000027591900000027591919/10/20211128    3190333624042196419000043485100001618510000000000000                GUANTE QUIRURGICO DE LATEX REF 2D72N65X CAJ X 50 PROTEXIS  6.5 BN EXENTO-DC.417/2020SOB    13
RC0001043198450A202100000027591900000027591919/10/20211128    3190333624042196419000011082700001620070000000000000                                                               EQUIPO SET PRIMARIO C/CLAVE REF 14001BOL     1
RC0001043198450A202100000027591900000027591919/10/20211128    3190333624042196419000038576600000256740000000000000                                                                        SONDA ASPIRACION CONTROL #12SIN     1
RC0001043198450A202100000027591900000027591919/10/20211128    3190333624042196419000020058100001101630000000000000                                                                     AGUJA HIPODERMICA DESECH 23 X 1SOB     1
RC0001043198450A202100000027591900000027591919/10/20211128    3190333624042196419000011047900000223010000000000000                                                                            JERINGA X 1ML REF 302579SIN     4
RC0001043198450A202100000027591900000027591919/10/20211128    3190333624042196419000024673000001411210000000000000                                                                  JERINGA DESECHABLE 3 ML 21 X 1 1/2SOB     3
RC0001043198450A202100000027591900000027591919/10/20211128    3190333624042196419000024674000000220660000000000000                             JERINGA A 3 PARTES CON AGUJA  SOB X 1 RYMCO  10ML BN EXENTO-DC.417/2020SIN     6
RC0001043198450A202100000027591900000027591919/10/20211128    3190333624042196419000024674500000322810000000000000                                                                   JERINGA DESECHABLE 20 ml 21*1 1/2SIN     2
RC0001043198450A202100000027591900000027591919/10/20211128    31903336240421964190000E1AD0200003888320000000000000                                                                              HARTMAN SLN INY 500 MLBOL     1
RC0001043198450A202100000027591900000027591919/10/20211128    31903336240421964190000E1AB0300003888390000000000000                                                            SOLUCION SALINA 0.9% SLN INY BO X 500 MLBOL     1
RC0001043198450A202100000027591900000027591919/10/20211128    31903336240421964190000E1AB0700003888350000000000000                                                            SOLUCION SALINA 0.9% SLN INY BO X 250 MLBOL     3
RC0001043198450A202100000027591900000027591919/10/20211128    31903336240421964190000E1AB0200000199290000000000000                                                            SOLUCION SALINA 0.9% SLN INY BO X 100 MLBIN     2
RC0001043198450A202100000027591900000027591919/10/20211128    31903336240421964190000N01B0200003888110000000000000                                           ROXICAINA SE 100MG/10ML(1%) SOL INY CAJ X 24AMPACK X 10MLAPC     1
RC0001043198450A202100000027591900000027591919/10/20211128    31903336240421964190000A3BA0100001109400000000000000                                                                          ATROPINA SLN INY 1 MG / MLAMP     1
RC0001043198450A202100000027591900000027591919/10/20211128    3190333624042196419000021018300000227500000000000000                                                                CAT ARTERIAL RADIALRA04122 ARROW 22GSIN     1
