CE0000000821677A202100000027556400000027556411/10/20211747    3190333624042196419000018351100000232850000000000000                                                                                 SEDA 2-0 SC-26 185TSIN     1
CE0000000821677A202100000027556400000027556411/10/20211747    3190333624042196419000017564700000232600000000000000                                                                               PROLENE 2-0 CT2 8411TSIN     1
CE0000000821677A202100000027556400000027556411/10/20211747    3190333624042196419000011087900000855820000000000000                                                             GRAPADORA HEMSTAPLER 33.4.8  REF HEM334CAJ     1
CE0000000821677A202100000027556400000027556411/10/20211747    3190333624042196419000019494500000458220000000000000                                                                                VICRYL RAPID INC 2-0SIN     1
CE0000000821677A202100000027556400000027556411/10/20211747    3190333624042196419000000503900000296270000000000000                                                                  SUTURA POLYSORB 3-0 75CM V20 GL122SIN     4
CE0000000821677A202100000027556400000027556411/10/20211747    31903336240421964190000K6700400000233790000000000000                                                                   SPONGOSTAN ANAL MS0004  3CM X 8CMSIN     1
CE0000000821677A202100000027556400000027556411/10/20211747    3190333624042196419000045138000001413890000000000000                                                                       LAPIZ ELECTROBISTURI  SOB X 1SOB     1
CE0000000821677A202100000027556400000027556411/10/20211747    3190333624042196419000030161400001459220000000000000                                                                       MANGUERA SUCCION 6 MM*3.1 MTSSOB     1
CE0000000821677A202100000027556400000027556411/10/20211747    31903336240421964190000N1BA1900000554750000000000000                                                                     ROXICAINA JALEA 2% TUBO X 30 MLTUB     1
CE0000000821677A202100000027556400000027556411/10/20211747    3190333624042196419000043879100001138200000000000000                                                                  HOJA BISTURI # 15 CSSB 15 01002003SOB     1
CE0000000821677A202100000027556400000027556411/10/20211747    3190333624042196419000022425200000548240000000000000                       EXTENSION DE ANESTESIA REF 1139 SOB X 1 SHERLEG  ADULTO BN EXENTO-DC.417/2020SIN     1
CE0000000821677A202100000027556400000027556411/10/20211747    3190333624042196419000035356500003919000000000000000                                                                                        LLAVE 3 VIASSOB     2
CE0000000821677A202100000027556400000027556411/10/20211747    31903336240421964190000Q1AA7100000610620000000000000                                                            CATETER PERIFE INTROCAN # 18G 4251687-04SIN     1
CE0000000821677A202100000027556400000027556411/10/20211747    3190333624042196419000022426800001140510000000000000                                                                    EQUIPO MACROGOTEO BAXTER MRC0001SOB     1
CE0000000821677A202100000027556400000027556411/10/20211747    3190333624042196419000016830000000970620000000000000                                                             SIST FIJACION CAT PERIFERICO 6.5X7 1683SOB     1
CE0000000821677A202100000027556400000027556411/10/20211747    31903336240421964190000J01DA300001239950000000000000                                                            CEFAZOLINA SODICA POLVO LIOF SLN INY 1 GVAL     2
CE0000000821677A202100000027556400000027556411/10/20211747    3190333624042196419000011073300001096420000000000000                                                                BOLSA DE SUCCION DE FLUIDOS x 2500mLBOL     1
CE0000000821677A202100000027556400000027556411/10/20211747    3190333624042196419000020750600000296780000000000000                                                                PLACA ELECTRO RETORNO PACIENTE E7506SIN     1
CE0000000821677A202100000027556400000027556411/10/20211747    3190333624042196419000053074400000607910000000000000                                                               GASA ESTERIL 10*10 SOBRE X 3 UNIDADESSOB     2
CE0000000821677A202100000027556400000027556411/10/20211747    3190333624042196419000011047900000223010000000000000                                                                            JERINGA X 1ML REF 302579SIN     1
CE0000000821677A202100000027556400000027556411/10/20211747    3190333624042196419000024673000001411210000000000000                                                                  JERINGA DESECHABLE 3 ML 21 X 1 1/2SOB     2
CE0000000821677A202100000027556400000027556411/10/20211747    3190333624042196419000024673600000222980000000000000                                                                     JERINGA DESECHABLE 5 ml 27*11/2SIN     2
CE0000000821677A202100000027556400000027556411/10/20211747    3190333624042196419000024674000000220660000000000000                             JERINGA A 3 PARTES CON AGUJA  SOB X 1 RYMCO  10ML BN EXENTO-DC.417/2020SIN     3
CE0000000821677A202100000027556400000027556411/10/20211747    3190333624042196419000024674500000322810000000000000                                                                   JERINGA DESECHABLE 20 ml 21*1 1/2SIN     2
CE0000000821677A202100000027556400000027556411/10/20211747    3190333624042196419000011085300001082140000000000000                                                                           GUANTE QUIRURGICO TALLA 8SOB     2
CE0000000821677A202100000027556400000027556411/10/20211747    3190333624042196419000011085200001585390000000000000                                                                       GUANTE QUIRURGICO TALLA 7 1/2SOB     4
CE0000000821677A202100000027556400000027556411/10/20211747    3190333624042196419000043485100001618510000000000000                GUANTE QUIRURGICO DE LATEX REF 2D72N65X CAJ X 50 PROTEXIS  6.5 BN EXENTO-DC.417/2020SOB     2
CE0000000821677A202100000027556400000027556411/10/20211747    3190333624042196419000038568100000258050000000000000                                                                         CANULA OXIGENO NASAL ADULTOSIN     1
CE0000000821677A202100000027556400000027556411/10/20211747    3190333624042196419000027292100000224750000000000000                                                                                  AGUJA PERICAN G-18SIN     1
CE0000000821677A202100000027556400000027556411/10/20211747    31903336240421964190000E1AD0200003888320000000000000                                                                              HARTMAN SLN INY 500 MLBOL     2
CE0000000821677A202100000027556400000027556411/10/20211747    31903336240421964190000E1AB0300003888390000000000000                                                            SOLUCION SALINA 0.9% SLN INY BO X 500 MLBOL     5
CE0000000821677A202100000027556400000027556411/10/20211747    31903336240421964190000M01A0400001341250000000000000                                                                              DYNASTAT AMP 40 MG /R/VAL     1
CE0000000821677A202100000027556400000027556411/10/20211747    31903336240421964190000N02B1100001169680000000000000                              PARACETAMOL 1000MG/100ML(10MG/ML) SOL INY  VIAL X 100ML FRESENIUS KABIVAL     1
CE0000000821677A202100000027556400000027556411/10/20211747    31903336240421964190000A4AD0200000202990000000000000                                                                     PLITICAN HCL Sln Iny 50 mg/2 mlAMP     1
CE0000000821677A202100000027556400000027556411/10/20211747    31903336240421964190000A2BC0900000200150000000000000                                                                               ORAZOLE Sln Iny 40 mgCIN     1
CE0000000821677A202100000027556400000027556411/10/20211747    31903336240421964190000N2BB1100000217160000000000000                                                                      NOVALGINA Sln Iny 2.5 g x 5 mlAMP     1
CE0000000821677A202100000027556400000027556411/10/20211747    31903336240421964190000M1AX0200001569410000000000000                                                                         KETRON SLN INY 30 MG / 2 MLAMP     1
CE0000000821677A202100000027556400000027556411/10/20211747    31903336240421964190000H02AB500001664950000000000000                                                            DEXAMETASONA SLN INY 8 MG/2 ML AMP /CDS/AMP     2
CE0000000821677A202100000027556400000027556411/10/20211747    31903336240421964190000N01B0600003888900000000000000                                                    BUPINEST 75MG/10ML(0.75%) SOL INY CAJ X 24AMPACKAPC     1
CE0000000821677A202100000027556400000027556411/10/20211747    31903336240421964190000N01B1600003888910000000000000                                             BUPIROP SE S/P 50MG/10ML(5MG/ML) SOL INY CAJ X 24AMPACKAPC     2
CE0000000821677A202100000027556400000027556411/10/20211747    31903336240421964190000N1BA2400001195280000000000000                                                                    LIDOCAINA 2% S/E Sln Iny x 10 mlAMP     1
CE0000000821677A202100000027556400000027556411/10/20211747    31903336240421964190000N1AH0200003906560000000000000                                                                     FENTANIL Iny 0.05 mg/ml x 10 mlAMP     1
