TI0001042265795H202100000555102600000555102629/10/20210953     3300009237421964250000A04A1400001467560000000000000                                                                      ONDANSETRON SLN INY 8 MG/ 4 MLVAL     2
TI0001042265795H202100000555102600000555102629/10/20210537     3300009237421964250000A04A1400001467560000000000000                                                                      ONDANSETRON SLN INY 8 MG/ 4 MLVAL     2
TI0001042265795H202100000555102600000555102629/10/20211154    31500107237421964250000E1AA0800000322190000000000000                                                                          DEXTROSA 5% Sln Iny 250 mlBIN     1
TI0001042265795H202100000555102600000555102629/10/20210953     3300009237421964250000A12CA200001239800000000000000                     BICARBONATO SODIO 10MEQ/10ML(1MEQ/ML) SOL INY  CAJ X 100AMPX10ML FRESENIUS KABIAMP     6
TI0001042265795H202100000555102600000555102629/10/20210954     3300009237421964250000A12CA100001109460000000000000                                                              CLORURO SODIO SLN INY 2 MEQ/ML X 10 MLAMP     7
TI0001042265795H202100000555102600000555102629/10/20210825     3300009237421964250000L04AX20PENDIENTE0000000000000                                                              METOTREXATO SLN INY 500 MG X 20 ML /R/VAL     2
TI0001042265795H202100000555102600000555102629/10/20210824     3300009237421964250000L04AX20PENDIENTE0000000000000                                                              METOTREXATO SLN INY 500 MG X 20 ML /R/VAL     2
TI0001042265795H202100000555102600000555102629/10/20210953     3300009237421964250000L1BC8600000553170000000000000                                                                  FOLINATO CALCIO SLN INY 50 MG/5 MLVAL     1
TI0001042265795H202100000555102600000555102629/10/20210954     3300009237421964250000C03C0100001672000000000000000                                                                       FUROSEMIDA SLN INY 20 MG/2 MLAMP     2
TI0001042265795H202100000555102600000555102629/10/20211154    31500107237421964250000V07A1300000502600000000000000                                                                                AGUA ESTERIL x 10 mlAMP     5
