RC0001053013307A202100000027655800000027655802/11/20211900    3190333624042196419000024672100001609890000000000000                                                            JERINGA INSULINA 1ML TAPA NARANJA JEI013SOB     8
RC0001053013307A202100000027655800000027655802/11/20211900    3190333624042196419000024673000001411210000000000000                                                                  JERINGA DESECHABLE 3 ML 21 X 1 1/2SOB     4
RC0001053013307A202100000027655800000027655802/11/20211900    3190333624042196419000039174000001618500000000000000                                                                           TUBO ENDOTRAQUEAL S/B 4.5SOB     1
RC0001053013307A202100000027655800000027655802/11/20211900    3190333624042196419000038568400000256940000000000000                                                                                   SONDA NELATON #10SIN     1
RC0001053013307A202100000027655800000027655802/11/20211900    31903336240421964190000J01XA400001212420000000000000                                                               VANCOMICINA POLVO LIOF SLN INY 500 MGVAL     1
RC0001053013307A202100000027655800000027655802/11/20211900    3190333624042196419000011083900000607700000000000000                                                               EXTENSION MONITOREO PRESION 1281  12"SIN     3
RC0001053013307A202100000027655800000027655802/11/20211900    3190333624042196419000011006500000227530000000000000                                                             CATETER BILUMEN 4F*8CM PEDIA 01CS15402ESIN     1
RC0001053013307A202100000027655800000027655802/11/20211900    31903336240421964190000Q1A11500000331560000000000000                                                                     CATETER RADIAL #20 REF. 115.090SIN     2
RC0001053013307A202100000027655800000027655802/11/20211900    3190333624042196419000020750700000576830000000000000                                                                 PLACA QUIRURGICA  NEONATO REF E7512SIN     1
RC0001053013307A202100000027655800000027655802/11/20211900    3190333624042196419000049419700001679920000000000000                                                                        VENDA ALGODON 5*5 NO ESTERILSOB     2
RC0001053013307A202100000027655800000027655802/11/20211900    3190333624042196419000011059800001410750000000000000                                                            SENSOR CEREBRAL-SOMATIC NEOINFAN CNN/SNNBOL     2
RC0001053013307A202100000027655800000027655802/11/20211900    3190333624042196419000010500700001414140000000000000                                                              CINTA VASOS MINI  1001-76 SCANLAN ROJOPZA     2
RC0001053013307A202100000027655800000027655802/11/20211900    3190333624042196419000019489000000599330000000000000                                                                           VICRYL 4-0 RB1 70 VCP304HSIN     1
RC0001053013307A202100000027655800000027655802/11/20211900    3190333624042196419000022310000000376030000000000000                                                                      DRENA BLAKE 1/4 19 FR 2231 J&JPZA     1
RC0001053013307A202100000027655800000027655802/11/20211900    3190333624042196419000011063900000296020000000000000                                                            SIST DRENAJE TORACICO 888571299  AQ-SEALBOL     1
RC0001053013307A202100000027655800000027655802/11/20211900    3190333624042196419000030161400001459220000000000000                                                                       MANGUERA SUCCION 6 MM*3.1 MTSSOB     1
RC0001053013307A202100000027655800000027655802/11/20211900    3190333624042196419000024674500000322810000000000000                                                                   JERINGA DESECHABLE 20 ml 21*1 1/2SIN     1
RC0001053013307A202100000027655800000027655802/11/20211900    3190333624042196419000045138000001413890000000000000                                                                       LAPIZ ELECTROBISTURI  SOB X 1SOB     1
RC0001053013307A202100000027655800000027655802/11/20211900    3190333624042196419000038568300000257010000000000000                                                                                   SONDA NELATON #08SIN     1
RC0001053013307A202100000027655800000027655802/11/20211900    3190333624042196419000043486000001353050000000000000                                                            HORIZON CLIP TITANI M AZUL X 6 REF002200CAR     1
RC0001053013307A202100000027655800000027655802/11/20211900    3190333624042196419000018351400000232860000000000000                                                                                   SEDA 2-0 SH K833HSIN     1
RC0001053013307A202100000027655800000027655802/11/20211900    3190333624042196419000000500600004008630000000000000         SUTURA ABSORBIBLE MONOFIL P-12 REF SM-5627 CAJ X 12 BIOSYN 45CM - 4-0 BN EXENTO-DC.417/2020SIN     1
RC0001053013307A202100000027655800000027655802/11/20211900    3190333624042196419000000503900000296270000000000000                                                                  SUTURA POLYSORB 3-0 75CM V20 GL122SIN     1
RC0001053013307A202100000027655800000027655802/11/20211900    3190333624042196419000017575900000367370000000000000                                                               SUTURA PROLENE 6-0 60CM BV1(2) M8805TSIN     8
RC0001053013307A202100000027655800000027655802/11/20211900    3190333624042196419000017576200000232750000000000000                                                                    PROLENE CARDIOV 6-0 60 2C-1 8726SIN     1
RC0001053013307A202100000027655800000027655802/11/20211900    3190333624042196419000018349500000232810000000000000                                                                                      SEDA 1 SA 87 TSIN     1
RC0001053013307A202100000027655800000027655802/11/20211900    3190333624042196419000043879100001138200000000000000                                                                  HOJA BISTURI # 15 CSSB 15 01002003SOB     1
RC0001053013307A202100000027655800000027655802/11/20211900    3190333624042196419000030936900001431840000000000000                                                                                              BURETABOL     2
RC0001053013307A202100000027655800000027655802/11/20211900    3190333624042196419000049130000000525220000000000000                                                                             TUBO PRESION ARTERIA 48SIN     1
RC0001053013307A202100000027655800000027655802/11/20211900    3190333624042196419000011082900001233450000000000000                                                               EQUIPO LC 5000 PRIMARIO FOTOPRO 0L218SOB     1
RC0001053013307A202100000027655800000027655802/11/20211900    3190333624042196419000018354100000232880000000000000                                                                  SUTURA SEDA NEGRA 3-0 KS 75CM 622HSIN     1
RC0001053013307A202100000027655800000027655802/11/20211900    31903336240421964190000N1BA1900000554750000000000000                                                                     ROXICAINA JALEA 2% TUBO X 30 MLTUB     1
RC0001053013307A202100000027655800000027655802/11/20211900    3190333624042196419000011059900000853370000000000000                                                            SENSOR PULSOX ADH LNCS PINE 462329 NEONASOB     1
RC0001053013307A202100000027655800000027655802/11/20211900    3190333624042196419000035356500003919000000000000000                                                                                        LLAVE 3 VIASSOB    11
RC0001053013307A202100000027655800000027655802/11/20211900    3190333624042196419000011051900000226360000000000000                                                               KIT TRANSDUCTOR SENCILLO S/VAMP PX260SOB     2
RC0001053013307A202100000027655800000027655802/11/20211900    3190333624042196419000000102300000222960000000000000                                                                 JERINGA DESECHABLE SIN AGUJA X 20mLSIN     2
RC0001053013307A202100000027655800000027655802/11/20211900    3190333624042196419000024673600000222980000000000000                                                                     JERINGA DESECHABLE 5 ml 27*11/2SIN     9
RC0001053013307A202100000027655800000027655802/11/20211900    3190333624042196419000024674000000220660000000000000                             JERINGA A 3 PARTES CON AGUJA  SOB X 1 RYMCO  10ML BN EXENTO-DC.417/2020SIN    10
RC0001053013307A202100000027655800000027655802/11/20211900    3190333624042196419000043879200001138180000000000000                                                                                   HOJA BISTURI # 11SOB     3
RC0001053013307A202100000027655800000027655802/11/20211900    3190333624042196419000043485100001618510000000000000                GUANTE QUIRURGICO DE LATEX REF 2D72N65X CAJ X 50 PROTEXIS  6.5 BN EXENTO-DC.417/2020SOB    10
RC0001053013307A202100000027655800000027655802/11/20211900    3190333624042196419000011085300001082140000000000000                                                                           GUANTE QUIRURGICO TALLA 8SOB     1
RC0001053013307A202100000027655800000027655802/11/20211900    3190333624042196419000011085200001585390000000000000                                                                       GUANTE QUIRURGICO TALLA 7 1/2SOB     4
RC0001053013307A202100000027655800000027655802/11/20211900    3190333624042196419000011085100001082120000000000000                                                                           GUANTE QUIRURGICO TALLA 7SOB     4
RC0001053013307A202100000027655800000027655802/11/20211900    3190333624042196419000053074400000607910000000000000                                                               GASA ESTERIL 10*10 SOBRE X 3 UNIDADESSOB    11
RC0001053013307A202100000027655800000027655802/11/20211900    3190333624042196419000011082700001620070000000000000                                                               EQUIPO SET PRIMARIO C/CLAVE REF 14001BOL     6
RC0001053013307A202100000027655800000027655802/11/20211900    3190333624042196419000051515100000598120000000000000                                                                            MASCARILLA ANESTESIA # 1SIN     1
RC0001053013307A202100000027655800000027655802/11/20211900    3190333624042196419000011073300001096420000000000000                                                                BOLSA DE SUCCION DE FLUIDOS x 2500mLBOL     1
RC0001053013307A202100000027655800000027655802/11/20211900    3190333624042196419000000602600001259280000000000000                                                             APOSITO TEGADERM IV PD 1610 5CM X 5.7CMSOB     4
RC0001053013307A202100000027655800000027655802/11/20211900    31903336240421964190000Q1AA3300001585140000000000000                                                                         APOSITO TEGADERM 10*12 1626SOB     2
RC0001053013307A202100000027655800000027655802/11/20211900    3190333624042196419000020058100001101630000000000000                                                                     AGUJA HIPODERMICA DESECH 23 X 1SOB     4
RC0001053013307A202100000027655800000027655802/11/20211900    3190333624042196419000000100600000223090000000000000                                                                      AGUJA DESECHABLE 18G X 1 1/2 PSIN     2
RC0001053013307A202100000027655800000027655802/11/20211900    31903336240421964190000E1AA0800000322190000000000000                                                                          DEXTROSA 5% Sln Iny 250 mlBIN     1
RC0001053013307A202100000027655800000027655802/11/20211900    31903336240421964190000E1AD0200003888320000000000000                                                                              HARTMAN SLN INY 500 MLBOL     2
RC0001053013307A202100000027655800000027655802/11/20211900    31903336240421964190000E1AB0300003888390000000000000                                                            SOLUCION SALINA 0.9% SLN INY BO X 500 MLBOL     3
RC0001053013307A202100000027655800000027655802/11/20211900    31903336240421964190000E1AB1100003888280000000000000                                                                        SOLUCION SALINA 0.9% X 50 mlBOL     4
RC0001053013307A202100000027655800000027655802/11/20211900    3190333624042196419000011081600001317790000000000000                                                                EPOC BLOOD TEST CARD REF CT-10040000PZA     3
RC0001053013307A202100000027655800000027655802/11/20211900    3190333624042196419000021221000000226640000000000000                                                                                 CARTUCHO ACT 402-03PZA     2
RC0001053013307A202100000027655800000027655802/11/20211900    31903336240421964190000B02AA100001407470000000000000                                                                    CLINTRANEX SLN INY 500 MG / 5 MLAMP     4
RC0001053013307A202100000027655800000027655802/11/20211900    31903336240421964190000C02DD100000777420000000000000                                      NITROPRUSIATO DE SODIO 50MG SOLUCION INYECTABLE  AMPOLLA X 2MLAMP     1
RC0001053013307A202100000027655800000027655802/11/20211900    31903336240421964190000M03AC100000197200000000000000                                                                   TRACURION SLN INY 10 MG /5 ML /R/AMP     3
RC0001053013307A202100000027655800000027655802/11/20211900    31903336240421964190000H02AB400001140460000000000000                                                              SUCCINA METILPREDNISOLONA 500MG VIA/R/VAL     1
RC0001053013307A202100000027655800000027655802/11/20211900    31903336240421964190000M03A0900001467590000000000000                                                                        ROCURONIO SLN INY 50 MG/5 MLVAL     1
RC0001053013307A202100000027655800000027655802/11/20211900    31903336240421964190000B1AB0100001227270000000000000                                             HEPAMAX 25000UI/5ML(5000UI/ML) SOL INY  CAJ X 25AMPX5MLAMP     1
RC0001053013307A202100000027655800000027655802/11/20211900    31903336240421964190000C1CE0200000202230000000000000                                                                       COROTROPE SLN INY 10 MG/10 MLCIN     1
RC0001053013307A202100000027655800000027655802/11/20211900    31903336240421964190000C7AB1600001013300000000000000                                                                          BETOPROLOL SLN INY 5 MG/MLAPC     1
RC0001053013307A202100000027655800000027655802/11/20211900    31903336240421964190000A12CA200001239800000000000000                     BICARBONATO SODIO 10MEQ/10ML(1MEQ/ML) SOL INY  CAJ X 100AMPX10ML FRESENIUS KABIAMP     1
RC0001053013307A202100000027655800000027655802/11/20211900    31903336240421964190000R3CA0400000777470000000000000                                                               ADRENALINA HCL SLN INY 1 MG / ML RYANAMP     2
RC0001053013307A202100000027655800000027655802/11/20211900    31903336240421964190000N1AX0100003889000000000000000                                                                       KETAMINA Iny 50 mg/ml x 10 mlVAL     1
RC0001053013307A202100000027655800000027655802/11/20211900    31903336240421964190000N1AH0200003906560000000000000                                                                     FENTANIL Iny 0.05 mg/ml x 10 mlAMP     6
RC0001053013307A202100000027655800000027655802/11/20211900    31903336240421964190000N5CD0300000218170000000000000                                                              DORMICUM IV-IM 5MG/5ML(1MG/ML) SOL INYAMP     1
RC0001053013307A202100000027655800000027655802/11/20211900    31903336240421964190000Q1AA7300000610640000000000000                                                            CATETER PERIFE INTROCAN # 22G 4251628-04SIN     4
RC0001053013307A202100000027655800000027655802/11/20211900    3190333624042196419000011048700001134860000000000000                                                                JUEGO TUBO PRUEBA REF 8290286 DRAGERPZA     1
RC0001053013307A202100000027655800000027655802/11/20211900    3190333624042196419000031011100003934700000000000000                              CANULA GUEDEL MAYO REF CGUE00 SOB X 1 MEDEX N. 0 BN EXENTO-DC.417/2020SOB     1
