CC0001129574648U202100150018102100150018102121/10/20211644    3190092023942196432000016830000000970620000000000000                                                             SIST FIJACION CAT PERIFERICO 6.5X7 1683SOB     1
CC0001129574648U202100150018102100150018102121/10/20211644    3190092023942196432000001956000001620610000000000000                                                                      CONECTOR MICRO CLAVE LAT-MC100SOB     1
CC0001129574648U202100150018102100150018102121/10/20211644    31900920239421964320000Q1AA7100000610620000000000000                                                            CATETER PERIFE INTROCAN # 18G 4251687-04SIN     1
