RC0001242488377A202100000027529400000027529405/10/20211903    3190333624042196419000028356000001410280000000000000                                                                           SENSOR ADULTO SAFB/INTL20SOB     2
RC0001242488377A202100000027529400000027529405/10/20211903    3190333624042196419000013077800000471960000000000000                                                             GASA NO TEJIDA EST 7.5 X 7.5 SOB X 3 UNSOB     1
RC0001242488377A202100000027529400000027529405/10/20211903    31903336240421964190000N1BA0300000217900000000000000                                                                    BUPIROP 0.5% C/E Sln Iny x 20 mlVAL     1
RC0001242488377A202100000027529400000027529405/10/20211903    3190333624042196419000019487600000599200000000000000                                                                                VICRYL 0 CT1 VCP346HSIN     1
RC0001242488377A202100000027529400000027529405/10/20211903    3190333624042196419000030825800000270990000000000000                                                                  ALGODON ESTERIL SOBRE X 3 TORUNDASPZA     4
RC0001242488377A202100000027529400000027529405/10/20211903    31903336240421964190000Q1A11500000331560000000000000                                                                     CATETER RADIAL #20 REF. 115.090SIN     2
RC0001242488377A202100000027529400000027529405/10/20211903    31903336240421964190000E1BA0100000198890000000000000                                                                   AGUA ESTERIL USP SLN INY X 500 MLBIN     1
RC0001242488377A202100000027529400000027529405/10/20211903    3190333624042196419000022310000000376030000000000000                                                                      DRENA BLAKE 1/4 19 FR 2231 J&JPZA     1
RC0001242488377A202100000027529400000027529405/10/20211903    31903336240421964190000J01XA400001212420000000000000                                                               VANCOMICINA POLVO LIOF SLN INY 500 MGVAL     1
RC0001242488377A202100000027529400000027529405/10/20211903    3190333624042196419000020750700000576830000000000000                                                                 PLACA QUIRURGICA  NEONATO REF E7512SIN     1
RC0001242488377A202100000027529400000027529405/10/20211903    3190333624042196419000039174100001072160000000000000                                                                           TUBO ENDOTRAQUEAL S/B 5.0SOB     1
RC0001242488377A202100000027529400000027529405/10/20211903    3190333624042196419000011083900000607700000000000000                                                               EXTENSION MONITOREO PRESION 1281  12"SIN     3
RC0001242488377A202100000027529400000027529405/10/20211903    3190333624042196419000011063900000296020000000000000                                                            SIST DRENAJE TORACICO 888571299  AQ-SEALBOL     1
RC0001242488377A202100000027529400000027529405/10/20211903    3190333624042196419000030161400001459220000000000000                                                                       MANGUERA SUCCION 6 MM*3.1 MTSSOB     1
RC0001242488377A202100000027529400000027529405/10/20211903    3190333624042196419000045138000001413890000000000000                                                                       LAPIZ ELECTROBISTURI  SOB X 1SOB     1
RC0001242488377A202100000027529400000027529405/10/20211903    31903336240421964190000Q1AA3300001585140000000000000                                                                         APOSITO TEGADERM 10*12 1626SOB     1
RC0001242488377A202100000027529400000027529405/10/20211903    3190333624042196419000038568300000257010000000000000                                                                                   SONDA NELATON #08SIN     1
RC0001242488377A202100000027529400000027529405/10/20211903    3190333624042196419000043486000001353050000000000000                                                            HORIZON CLIP TITANI M AZUL X 6 REF002200CAR     1
RC0001242488377A202100000027529400000027529405/10/20211903    3190333624042196419000000500800001353040000000000000                                                              HORIZON CLIP TITANI S AMARIL REF001200CAR     1
RC0001242488377A202100000027529400000027529405/10/20211903    3190333624042196419000018351400000232860000000000000                                                                                   SEDA 2-0 SH K833HSIN     6
RC0001242488377A202100000027529400000027529405/10/20211903    3190333624042196419000000500600004008630000000000000         SUTURA ABSORBIBLE MONOFIL P-12 REF SM-5627 CAJ X 12 BIOSYN 45CM - 4-0 BN EXENTO-DC.417/2020SIN     1
RC0001242488377A202100000027529400000027529405/10/20211903    3190333624042196419000000503900000296270000000000000                                                                  SUTURA POLYSORB 3-0 75CM V20 GL122SIN     1
RC0001242488377A202100000027529400000027529405/10/20211903    3190333624042196419000000501100000296260000000000000                                                                          POLYSORB 2/0 V20 REF GL123SIN     1
RC0001242488377A202100000027529400000027529405/10/20211903    3190333624042196419000017575900000367370000000000000                                                               SUTURA PROLENE 6-0 60CM BV1(2) M8805TSIN     6
RC0001242488377A202100000027529400000027529405/10/20211903    3190333624042196419000017576200000232750000000000000                                                                    PROLENE CARDIOV 6-0 60 2C-1 8726SIN     1
RC0001242488377A202100000027529400000027529405/10/20211903    3190333624042196419000018349500000232810000000000000                                                                                      SEDA 1 SA 87 TSIN     1
RC0001242488377A202100000027529400000027529405/10/20211903    3190333624042196419000043879100001138200000000000000                                                                  HOJA BISTURI # 15 CSSB 15 01002003SOB     1
RC0001242488377A202100000027529400000027529405/10/20211903    3190333624042196419000022425200000548240000000000000                       EXTENSION DE ANESTESIA REF 1139 SOB X 1 SHERLEG  ADULTO BN EXENTO-DC.417/2020SIN     1
RC0001242488377A202100000027529400000027529405/10/20211903    31903336240421964190000Q1AA7300000610640000000000000                                                            CATETER PERIFE INTROCAN # 22G 4251628-04SIN     1
RC0001242488377A202100000027529400000027529405/10/20211903    3190333624042196419000031188000000236790000000000000                                                                                     CISTOFLO ADULTOSIN     1
RC0001242488377A202100000027529400000027529405/10/20211903    3190333624042196419000030936900001431840000000000000                                                                                              BURETABOL     1
RC0001242488377A202100000027529400000027529405/10/20211903    3190333624042196419000049130000000525220000000000000                                                                             TUBO PRESION ARTERIA 48SIN     1
RC0001242488377A202100000027529400000027529405/10/20211903    3190333624042196419000011082900001233450000000000000                                                               EQUIPO LC 5000 PRIMARIO FOTOPRO 0L218SOB     1
RC0001242488377A202100000027529400000027529405/10/20211903    3190333624042196419000018354100000232880000000000000                                                                  SUTURA SEDA NEGRA 3-0 KS 75CM 622HSIN     2
RC0001242488377A202100000027529400000027529405/10/20211903    3190333624042196419000038569500000994340000000000000                                                             SONDA FOLEY 2 VIAS 6F MA-220603 UROTECHSOB     1
RC0001242488377A202100000027529400000027529405/10/20211903    3190333624042196419000011059900000853370000000000000                                                            SENSOR PULSOX ADH LNCS PINE 462329 NEONASOB     1
RC0001242488377A202100000027529400000027529405/10/20211903    3190333624042196419000035356500003919000000000000000                                                                                        LLAVE 3 VIASSOB     8
RC0001242488377A202100000027529400000027529405/10/20211903    3190333624042196419000011051900000226360000000000000                                                               KIT TRANSDUCTOR SENCILLO S/VAMP PX260SOB     1
RC0001242488377A202100000027529400000027529405/10/20211903    3190333624042196419000011006500000227530000000000000                                                             CATETER BILUMEN 4F*8CM PEDIA 01CS15402ESIN     1
RC0001242488377A202100000027529400000027529405/10/20211903    3190333624042196419000070707000000516720000000000000                                                                JUEGO DESECHABLE CALENTAMIENTO L70NISIN     1
RC0001242488377A202100000027529400000027529405/10/20211903    3190333624042196419000036441300000236540000000000000                                                                    JERINGA 1 ML GASES ARTERIAL 9023SIN     2
RC0001242488377A202100000027529400000027529405/10/20211903    3190333624042196419000024674500000322810000000000000                                                                   JERINGA DESECHABLE 20 ml 21*1 1/2SIN     2
RC0001242488377A202100000027529400000027529405/10/20211903    3190333624042196419000011047900000223010000000000000                                                                            JERINGA X 1ML REF 302579SIN     1
RC0001242488377A202100000027529400000027529405/10/20211903    3190333624042196419000020057400001101600000000000000                                                                  AGUJA HIPODERMICA DESECH 21G X 1.5SOB     3
RC0001242488377A202100000027529400000027529405/10/20211903    3190333624042196419000024673600000222980000000000000                                                                     JERINGA DESECHABLE 5 ml 27*11/2SIN     5
RC0001242488377A202100000027529400000027529405/10/20211903    3190333624042196419000024674000000220660000000000000                             JERINGA A 3 PARTES CON AGUJA  SOB X 1 RYMCO  10ML BN EXENTO-DC.417/2020SIN     7
RC0001242488377A202100000027529400000027529405/10/20211903    3190333624042196419000043879200001138180000000000000                                                                                   HOJA BISTURI # 11SOB     2
RC0001242488377A202100000027529400000027529405/10/20211903    3190333624042196419000043485100001618510000000000000                GUANTE QUIRURGICO DE LATEX REF 2D72N65X CAJ X 50 PROTEXIS  6.5 BN EXENTO-DC.417/2020SOB     7
RC0001242488377A202100000027529400000027529405/10/20211903    3190333624042196419000011085200001585390000000000000                                                                       GUANTE QUIRURGICO TALLA 7 1/2SOB     7
RC0001242488377A202100000027529400000027529405/10/20211903    3190333624042196419000053074400000607910000000000000                                                               GASA ESTERIL 10*10 SOBRE X 3 UNIDADESSOB     7
RC0001242488377A202100000027529400000027529405/10/20211903    3190333624042196419000011082700001620070000000000000                                                               EQUIPO SET PRIMARIO C/CLAVE REF 14001BOL     3
RC0001242488377A202100000027529400000027529405/10/20211903    3190333624042196419000022425100001392880000000000000             EQUIPO MICROGOTEO SIN AGUJA REF 201000 PAQ X 100 SOB GOTHAPLAST   BN EXENTO-DC.417/2020BOL     2
RC0001242488377A202100000027529400000027529405/10/20211903    3190333624042196419000051515200000598130000000000000                                                                            MASCARILLA ANESTESIA # 2SIN     1
RC0001242488377A202100000027529400000027529405/10/20211903    3190333624042196419000011073300001096420000000000000                                                                BOLSA DE SUCCION DE FLUIDOS x 2500mLBOL     1
RC0001242488377A202100000027529400000027529405/10/20211903    3190333624042196419000000602600001259280000000000000                                                             APOSITO TEGADERM IV PD 1610 5CM X 5.7CMSOB     5
RC0001242488377A202100000027529400000027529405/10/20211903    3190333624042196419000000101000001101640000000000000                                                                  AGUJA DESECHABLE  23G X 1 1/2 PULGSOB     1
RC0001242488377A202100000027529400000027529405/10/20211903    3190333624042196419000000100600000223090000000000000                                                                      AGUJA DESECHABLE 18G X 1 1/2 PSIN     1
RC0001242488377A202100000027529400000027529405/10/20211903    31903336240421964190000E1AD0200003888320000000000000                                                                              HARTMAN SLN INY 500 MLBOL     1
RC0001242488377A202100000027529400000027529405/10/20211903    31903336240421964190000E1AB0300003888390000000000000                                                            SOLUCION SALINA 0.9% SLN INY BO X 500 MLBOL     2
RC0001242488377A202100000027529400000027529405/10/20211903    31903336240421964190000E1AB0200000199290000000000000                                                            SOLUCION SALINA 0.9% SLN INY BO X 100 MLBIN     2
RC0001242488377A202100000027529400000027529405/10/20211903    31903336240421964190000B05X0400000319000000000000000                                                             CLORURO SODIO INY 20 MEQ/10 ML BOL X 50BOL     1
RC0001242488377A202100000027529400000027529405/10/20211903    31903336240421964190000B02AA100001407470000000000000                                                                    CLINTRANEX SLN INY 500 MG / 5 MLAMP     1
RC0001242488377A202100000027529400000027529405/10/20211903    31903336240421964190000N1BA2400001195280000000000000                                                                    LIDOCAINA 2% S/E Sln Iny x 10 mlAMP     1
RC0001242488377A202100000027529400000027529405/10/20211903    31903336240421964190000C02DD100000777420000000000000                                      NITROPRUSIATO DE SODIO 50MG SOLUCION INYECTABLE  AMPOLLA X 2MLAMP     1
RC0001242488377A202100000027529400000027529405/10/20211903    31903336240421964190000M03A0900001467590000000000000                                                                        ROCURONIO SLN INY 50 MG/5 MLVAL     1
RC0001242488377A202100000027529400000027529405/10/20211903    31903336240421964190000B1AB0100001227270000000000000                                             HEPAMAX 25000UI/5ML(5000UI/ML) SOL INY  CAJ X 25AMPX5MLAMP     1
RC0001242488377A202100000027529400000027529405/10/20211903    31903336240421964190000N2BB0100000787510000000000000                                                                    DIPIRONA SODICA Sln Iny 1 g/2 mlAMP     1
RC0001242488377A202100000027529400000027529405/10/20211903    31903336240421964190000H02AB500001664950000000000000                                                            DEXAMETASONA SLN INY 8 MG/2 ML AMP /CDS/AMP     1
RC0001242488377A202100000027529400000027529405/10/20211903    31903336240421964190000R3CA0400000777470000000000000                                                               ADRENALINA HCL SLN INY 1 MG / ML RYANAMP     4
RC0001242488377A202100000027529400000027529405/10/20211903    31903336240421964190000N2AA0700001587170000000000000                                                                                 ULTIVA Sln Iny 2 mgVAL     1
RC0001242488377A202100000027529400000027529405/10/20211903    31903336240421964190000N2AA0100000301640000000000000                                                                            MORFINA Sln Iny 10 mg/mlAMP     1
RC0001242488377A202100000027529400000027529405/10/20211903    31903336240421964190000N1AH0200003906560000000000000                                                                     FENTANIL Iny 0.05 mg/ml x 10 mlAMP     1
RC0001242488377A202100000027529400000027529405/10/20211903    31903336240421964190000N5CD0300000218170000000000000                                                              DORMICUM IV-IM 5MG/5ML(1MG/ML) SOL INYAMP     1
