CC0000064541334A202100000027664900000027664902/11/20210000    3190333624042196419000042743400003929880000000000000                                    CINTA ADHESIVA TRANSPARENT REF 72216-01 ROL X 10MT FIXOMULL 10CMCMT    40
CC0000064541334A202100000027664900000027664902/11/20210000    3190333624042196419000041997300001271950000000000000                                                                    APOSITO DUODERM CGF 10X10 187600SOB     2
CC0000064541334A202100000027664900000027664902/11/20210000    3190333624042196419000011068800001418370000000000000                                                              V.A.C. WHITEFOAM SMALL 10*7.5 M6275033PZA     1
CC0000064541334A202100000027664900000027664902/11/20210000    3190333624042196419000061196200000495170000000000000                                                                   SURGICEL FIBRILAR 5.1*10.2 411962SOB     1
CC0000064541334A202100000027664900000027664902/11/20210000    3190333624042196419000017803600000228850000000000000                                                                            PASTA STOMAHESIVE 56.7 gCAJ     1
CC0000064541334A202100000027664900000027664902/11/20210000    3190333624042196419000011058500001620430000000000000                                            POLVO PARA OSTOMIA REF 7906 FCO X 28.3GR ADAPT-HOLLISTERFCO     1
CC0000064541334A202100000027664900000027664902/11/20210000    3190333624042196419000012465900000232140000000000000                                                                        ETHIBOND 2-0 SH-SH 90 BP523TSIN     2
CC0000064541334A202100000027664900000027664902/11/20210000    3190333624042196419000000503900000296270000000000000                                                                  SUTURA POLYSORB 3-0 75CM V20 GL122SIN     2
CC0000064541334A202100000027664900000027664902/11/20210000    31903336240421964190000M03AB100001371510000000000000                                                            ADECUAC SUCCINILCOLINA  100mg/mL SOL INYVAL     1
CC0000064541334A202100000027664900000027664902/11/20210000    31903336240421964190000N01A0400003939010000000000000                                               MAYOPROFOL 200MG/20ML(1%) EMUL INY CAJ X 1VIAL X 20MLVAL     1
CC0000064541334A202100000027664900000027664902/11/20210000    3190333624042196419000047373400000228840000000000000                                                                             PINZA COLOSTOMIA 175635PZA     2
CC0000064541334A202100000027664900000027664902/11/20210000    3190333624042196419000040514400000228730000000000000                                                               BARRERA COLOSTOMIA CONVATEC 70 400949PZA     2
CC0000064541334A202100000027664900000027664902/11/20210000    3190333624042196419000040515800000228670000000000000                                                                        BOLSA COLOSTOMIA CONVATEC 70PZA     2
CC0000064541334A202100000027664900000027664902/11/20210000    31903336240421964190000N07X0300003913670000000000000                                    DEXMEDETOMIDINA 400MCG/100ML(4MCG/ML) SOL INY BOL X 100ML BAXTERBOL     1
CC0000064541334A202100000027664900000027664902/11/20210000    31903336240421964190000J1CB0600000468340000000000000                                                           UNASYN IM-IV (1+0.5)GR POLV INY INST VIALVAL     1
CC0000064541334A202100000027664900000027664902/11/20210000    3190333624042196419000062750100001405910000000000000                                                                 INFOVAC CANISTER 1000 ML M8275093/5SOB     1
CC0000064541334A202100000027664900000027664902/11/20210000    3190333624042196419000082750900001418360000000000000                                                            APOSITO VAC GRANUFOA SILVER M M8275096/5PZA     1
CC0000064541334A202100000027664900000027664902/11/20210000    3190333624042196419000062750300001405970000000000000                                                             APOSITO VAC WHITEFOAM LARGE M6275034/10SOB     1
CC0000064541334A202100000027664900000027664902/11/20210000    3190333624042196419000030161400001459220000000000000                                                                       MANGUERA SUCCION 6 MM*3.1 MTSSOB     1
CC0000064541334A202100000027664900000027664902/11/20210000    31903336240421964190000E1AB0300003888390000000000000                                                            SOLUCION SALINA 0.9% SLN INY BO X 500 MLBOL     1
CC0000064541334A202100000027664900000027664902/11/20210000    3190333624042196419000022425200000548240000000000000                       EXTENSION DE ANESTESIA REF 1139 SOB X 1 SHERLEG  ADULTO BN EXENTO-DC.417/2020SIN     1
CC0000064541334A202100000027664900000027664902/11/20210000    3190333624042196419000035356500003919000000000000000                                                                                        LLAVE 3 VIASSOB     2
CC0000064541334A202100000027664900000027664902/11/20210000    31903336240421964190000Q1AA7100000610620000000000000                                                            CATETER PERIFE INTROCAN # 18G 4251687-04SIN     2
CC0000064541334A202100000027664900000027664902/11/20210000    3190333624042196419000022426800001140510000000000000                                                                    EQUIPO MACROGOTEO BAXTER MRC0001SOB     1
CC0000064541334A202100000027664900000027664902/11/20210000    3190333624042196419000016830000000970620000000000000                                                             SIST FIJACION CAT PERIFERICO 6.5X7 1683SOB     1
CC0000064541334A202100000027664900000027664902/11/20210000    3190333624042196419000011073300001096420000000000000                                                                BOLSA DE SUCCION DE FLUIDOS x 2500mLBOL     2
CC0000064541334A202100000027664900000027664902/11/20210000    3190333624042196419000011082700001620070000000000000                                                               EQUIPO SET PRIMARIO C/CLAVE REF 14001BOL     1
CC0000064541334A202100000027664900000027664902/11/20210000    3190333624042196419000053074400000607910000000000000                                                               GASA ESTERIL 10*10 SOBRE X 3 UNIDADESSOB     2
CC0000064541334A202100000027664900000027664902/11/20210000    3190333624042196419000011085300001082140000000000000                                                                           GUANTE QUIRURGICO TALLA 8SOB     2
CC0000064541334A202100000027664900000027664902/11/20210000    3190333624042196419000011085200001585390000000000000                                                                       GUANTE QUIRURGICO TALLA 7 1/2SOB     3
CC0000064541334A202100000027664900000027664902/11/20210000    3190333624042196419000011085100001082120000000000000                                                                           GUANTE QUIRURGICO TALLA 7SOB     3
CC0000064541334A202100000027664900000027664902/11/20210000    3190333624042196419000043485100001618510000000000000                GUANTE QUIRURGICO DE LATEX REF 2D72N65X CAJ X 50 PROTEXIS  6.5 BN EXENTO-DC.417/2020SOB     3
CC0000064541334A202100000027664900000027664902/11/20210000    3190333624042196419000038568100000258050000000000000                                                                         CANULA OXIGENO NASAL ADULTOSIN     1
CC0000064541334A202100000027664900000027664902/11/20210000    3190333624042196419000024673000001411210000000000000                                                                  JERINGA DESECHABLE 3 ML 21 X 1 1/2SOB     1
CC0000064541334A202100000027664900000027664902/11/20210000    3190333624042196419000024674000000220660000000000000                             JERINGA A 3 PARTES CON AGUJA  SOB X 1 RYMCO  10ML BN EXENTO-DC.417/2020SIN     4
CC0000064541334A202100000027664900000027664902/11/20210000    31903336240421964190000E1AB0500003888400000000000000                                                              SOLUCION SALINA 0.9% SLN INY X 1000 MLBOL     2
CC0000064541334A202100000027664900000027664902/11/20210000    31903336240421964190000E1AB0200000199290000000000000                                                            SOLUCION SALINA 0.9% SLN INY BO X 100 MLBIN     1
CC0000064541334A202100000027664900000027664902/11/20210000    31903336240421964190000M1AX0200001569410000000000000                                                                         KETRON SLN INY 30 MG / 2 MLAMP     1
CC0000064541334A202100000027664900000027664902/11/20210000    31903336240421964190000N2BB1100000217160000000000000                                                                      NOVALGINA Sln Iny 2.5 g x 5 mlAMP     1
CC0000064541334A202100000027664900000027664902/11/20210000    31903336240421964190000N2AA0100000301640000000000000                                                                            MORFINA Sln Iny 10 mg/mlAMP     1
CC0000064541334A202100000027664900000027664902/11/20210000    31903336240421964190000N1AH0200003906560000000000000                                                                     FENTANIL Iny 0.05 mg/ml x 10 mlAMP     1
