TI0001042265795H202100000554973000000554973026/10/20211858     3300009237421964250000A04A1400001467560000000000000                                                                      ONDANSETRON SLN INY 8 MG/ 4 MLVAL     4
TI0001042265795H202100000554973000000554973026/10/20211716    31500082237421964250000E1AA0100003888590000000000000                                                                        DEXTROSA 5% Sln Iny X 500 mlBOL     5
TI0001042265795H202100000554973000000554973026/10/20210539    31500213237421964250000E1AB0200000199290000000000000                                                            SOLUCION SALINA 0.9% SLN INY BO X 100 MLBIN     2
TI0001042265795H202100000554973000000554973026/10/20210900     3300010237421964250000A12CA200001239800000000000000                     BICARBONATO SODIO 10MEQ/10ML(1MEQ/ML) SOL INY  CAJ X 100AMPX10ML FRESENIUS KABIAMP     8
TI0001042265795H202100000554973000000554973026/10/20210900     3300010237421964250000A12CA100001109460000000000000                                                              CLORURO SODIO SLN INY 2 MEQ/ML X 10 MLAMP     5
TI0001042265795H202100000554973000000554973026/10/20210859     3300010237421964250000A12CA100001109460000000000000                                                              CLORURO SODIO SLN INY 2 MEQ/ML X 10 MLAMP     5
TI0001042265795H202100000554973000000554973026/10/20211735     3300009237421964250000L04AX20PENDIENTE0000000000000                                                              METOTREXATO SLN INY 500 MG X 20 ML /R/VAL     2
TI0001042265795H202100000554973000000554973026/10/20211734     3300009237421964250000L04AX20PENDIENTE0000000000000                                                              METOTREXATO SLN INY 500 MG X 20 ML /R/VAL     2
TI0001042265795H202100000554973000000554973026/10/20211858     3300009237421964250000H02AB700000585860000000000000                                                                HIDROCORTISONA SUCCI POL LIOF 100 MGVAL     3
TI0001042265795H202100000554973000000554973026/10/20211858     3300009237421964250000R3CA0100001051880000000000000                                                               ADRENALINA HCL SLN INY 1 MG / ML ECARAMP     1
TI0001042265795H202100000554973000000554973026/10/20211858     3300009237421964250000C03C0100001672000000000000000                                                                       FUROSEMIDA SLN INY 20 MG/2 MLAMP     2
TI0001042265795H202100000554973000000554973026/10/20211859     3300009237421964250000N05B0500000603400000000000000                                                             HIDROXICINA JBE 250 MG /100 ML X 120 MLFCO     1
TI0001042265795H202100000554973000000554973026/10/20211716    31500082237421964250000V07A1300000502600000000000000                                                                                AGUA ESTERIL x 10 mlAMP     5
