PA0000PA0944504A202100000027675800000027675804/11/20210821    3190333624042196419000011079800004008720000000000000DISPOSITIVO CIERRE HERIDA V-20 REF VLOCL0604 CAJ X 12 V-LOC 180 15CM - 3-0 VERDE BN EXENTO-DC.417/20SOB     2
PA0000PA0944504A202100000027675800000027675804/11/20210821    3190333624042196419000000509900004005370000000000000         SUTURA ABSORBIBLE GS-21 REF CL-925 CAJ X 36 POLYSORB 90CM - 1 VIOLETA BN EXENTO-DC.417/2020SIN     1
PA0000PA0944504A202100000027675800000027675804/11/20210821    3190333624042196419000020042600000633850000000000000                                                                                       ASEPTOJERINGASIN     1
PA0000PA0944504A202100000027675800000027675804/11/20210821    3190333624042196419000045136100001419300000000000000                                                                            LANCETA DEXTROMETER X UNPZA     2
PA0000PA0944504A202100000027675800000027675804/11/20210821    3190333624042196419000011137100001419310000000000000                                                               TIRA GLUCOMETRIA FREESTYLE H OPTIUM .PZA     2
PA0000PA0944504A202100000027675800000027675804/11/20210821    31903336240421964190000K0960000001052020000000000000                                                            RECARGA ARTICULABLE 60 PURPURA EGIA60AMTPZA     2
PA0000PA0944504A202100000027675800000027675804/11/20210821    31903336240421964190000K0901100001054280000000000000                                                            RECARGA ARTICULABLE PURPURA 45 EGIA45AMTPZA     1
PA0000PA0944504A202100000027675800000027675804/11/20210821    31903336240421964190000K0945000001010990000000000000                                                              RECARGA ARTICULABLE 45 ARENA EGIA45AVMPZA     2
PA0000PA0944504A202100000027675800000027675804/11/20210821    3190333624042196419000001202200001460380000000000000                                                             CANULA UNIVERSA  5X100MM REF UNIVCA5STFSOB     1
PA0000PA0944504A202100000027675800000027675804/11/20210821    3190333624042196419000001202300001454590000000000000                                                            CANULA UNIVERSA FIJACION 12MM UNVCA12STFSOB     1
PA0000PA0944504A202100000027675800000027675804/11/20210821    3190333624042196419000019488700000753270000000000000                                                                              VICRYL 3-0 SH1 VCP311HSOB     1
PA0000PA0944504A202100000027675800000027675804/11/20210821    3190333624042196419000018351100000232850000000000000                                                                                 SEDA 2-0 SC-26 185TSIN     1
PA0000PA0944504A202100000027675800000027675804/11/20210821    3190333624042196419000000502000001136060000000000000                                                                   SURGIPRO 2/0 V- 20-75CM REF VP833PZA     2
PA0000PA0944504A202100000027675800000027675804/11/20210821    3190333624042196419000000501100000296260000000000000                                                                          POLYSORB 2/0 V20 REF GL123SIN     2
PA0000PA0944504A202100000027675800000027675804/11/20210821    3190333624042196419000012465900000232140000000000000                                                                        ETHIBOND 2-0 SH-SH 90 BP523TSIN     1
PA0000PA0944504A202100000027675800000027675804/11/20210821    3190333624042196419000025007100001670720000000000000                                                                     DERMABOND AHESIVO ETHICON 0.5MLCAR     1
PA0000PA0944504A202100000027675800000027675804/11/20210821    3190333624042196419000043879200001138180000000000000                                                                                   HOJA BISTURI # 11SOB     1
PA0000PA0944504A202100000027675800000027675804/11/20210821    3190333624042196419000045138000001413890000000000000                                                                       LAPIZ ELECTROBISTURI  SOB X 1SOB     1
PA0000PA0944504A202100000027675800000027675804/11/20210821    3190333624042196419000021052200000380370000000000000                                                                        RESERVORIO J-VAC 100 ml 2160PZA     1
PA0000PA0944504A202100000027675800000027675804/11/20210821    3190333624042196419000022310000000376030000000000000                                                                      DRENA BLAKE 1/4 19 FR 2231 J&JPZA     1
PA0000PA0944504A202100000027675800000027675804/11/20210821    3190333624042196419000045303900000232380000000000000                                                                   LIGACLIP MED/LARG LT300 VERDE X 6SIN     3
PA0000PA0944504A202100000027675800000027675804/11/20210821    3190333624042196419000013077800000471960000000000000                                                             GASA NO TEJIDA EST 7.5 X 7.5 SOB X 3 UNSOB     2
PA0000PA0944504A202100000027675800000027675804/11/20210821    31903336240421964190000N1BA0300000217900000000000000                                                                    BUPIROP 0.5% C/E Sln Iny x 20 mlVAL     1
PA0000PA0944504A202100000027675800000027675804/11/20210821    3190333624042196419000011055600000349930000000000000                                                             MEDIA ANTIEMBOLICA MUSLO T.V.P 98 ( XL)BOL     1
PA0000PA0944504A202100000027675800000027675804/11/20210821    31903336240421964190000J01DA300001239950000000000000                                                            CEFAZOLINA SODICA POLVO LIOF SLN INY 1 GVAL     2
PA0000PA0944504A202100000027675800000027675804/11/20210821    3190333624042196419000035356500003919000000000000000                                                                                        LLAVE 3 VIASSOB     2
PA0000PA0944504A202100000027675800000027675804/11/20210821    31903336240421964190000Q1AA7100000610620000000000000                                                            CATETER PERIFE INTROCAN # 18G 4251687-04SIN     1
PA0000PA0944504A202100000027675800000027675804/11/20210821    3190333624042196419000022425200000548240000000000000                       EXTENSION DE ANESTESIA REF 1139 SOB X 1 SHERLEG  ADULTO BN EXENTO-DC.417/2020SIN     1
PA0000PA0944504A202100000027675800000027675804/11/20210821    3190333624042196419000022426800001140510000000000000                                                                    EQUIPO MACROGOTEO BAXTER MRC0001SOB     1
PA0000PA0944504A202100000027675800000027675804/11/20210821    3190333624042196419000016830000000970620000000000000                                                             SIST FIJACION CAT PERIFERICO 6.5X7 1683SOB     1
PA0000PA0944504A202100000027675800000027675804/11/20210821    3190333624042196419000020750600000296780000000000000                                                                PLACA ELECTRO RETORNO PACIENTE E7506SIN     1
PA0000PA0944504A202100000027675800000027675804/11/20210821    3190333624042196419000024673000001411210000000000000                                                                  JERINGA DESECHABLE 3 ML 21 X 1 1/2SOB     1
PA0000PA0944504A202100000027675800000027675804/11/20210821    3190333624042196419000024673600000222980000000000000                                                                     JERINGA DESECHABLE 5 ml 27*11/2SIN     2
PA0000PA0944504A202100000027675800000027675804/11/20210821    3190333624042196419000024674500000322810000000000000                                                                   JERINGA DESECHABLE 20 ml 21*1 1/2SIN     2
PA0000PA0944504A202100000027675800000027675804/11/20210821    3190333624042196419000024674000000220660000000000000                             JERINGA A 3 PARTES CON AGUJA  SOB X 1 RYMCO  10ML BN EXENTO-DC.417/2020SIN     2
PA0000PA0944504A202100000027675800000027675804/11/20210821    3190333624042196419000011085300001082140000000000000                                                                           GUANTE QUIRURGICO TALLA 8SOB     2
PA0000PA0944504A202100000027675800000027675804/11/20210821    3190333624042196419000011085200001585390000000000000                                                                       GUANTE QUIRURGICO TALLA 7 1/2SOB     3
PA0000PA0944504A202100000027675800000027675804/11/20210821    3190333624042196419000053074400000607910000000000000                                                               GASA ESTERIL 10*10 SOBRE X 3 UNIDADESSOB     2
PA0000PA0944504A202100000027675800000027675804/11/20210821    3190333624042196419000011073300001096420000000000000                                                                BOLSA DE SUCCION DE FLUIDOS x 2500mLBOL     1
PA0000PA0944504A202100000027675800000027675804/11/20210821    3190333624042196419000030161400001459220000000000000                                                                       MANGUERA SUCCION 6 MM*3.1 MTSSOB     3
PA0000PA0944504A202100000027675800000027675804/11/20210821    3190333624042196419000011099300000777780000000000000                                                                     FILTRO BACTERIANO VIRICO ADULTOBOL     1
PA0000PA0944504A202100000027675800000027675804/11/20210821    3190333624042196419000039175100001072060000000000000                                                                           TUBO ENDOTRAQUEAL C/B 7.5SOB     1
PA0000PA0944504A202100000027675800000027675804/11/20210821    3190333624042196419000051515500000598160000000000000                                                                            MASCARILLA ANESTESIA # 5SIN     1
PA0000PA0944504A202100000027675800000027675804/11/20210821    3190333624042196419000038568100000258050000000000000                                                                         CANULA OXIGENO NASAL ADULTOSIN     1
PA0000PA0944504A202100000027675800000027675804/11/20210821    3190333624042196419000031010900000762730000000000000                                                                          CANULA GUEDEL # 4 (100 MM)SOB     1
PA0000PA0944504A202100000027675800000027675804/11/20210821    3190333624042196419000011082700001620070000000000000                                                               EQUIPO SET PRIMARIO C/CLAVE REF 14001BOL     2
PA0000PA0944504A202100000027675800000027675804/11/20210821    31903336240421964190000E1AD0200003888320000000000000                                                                              HARTMAN SLN INY 500 MLBOL     3
PA0000PA0944504A202100000027675800000027675804/11/20210821    31903336240421964190000E1AB0300003888390000000000000                                                            SOLUCION SALINA 0.9% SLN INY BO X 500 MLBOL     4
PA0000PA0944504A202100000027675800000027675804/11/20210821    31903336240421964190000E1AB0700003888350000000000000                                                            SOLUCION SALINA 0.9% SLN INY BO X 250 MLBOL     3
PA0000PA0944504A202100000027675800000027675804/11/20210821    31903336240421964190000E1AB0200000199290000000000000                                                            SOLUCION SALINA 0.9% SLN INY BO X 100 MLBIN     2
PA0000PA0944504A202100000027675800000027675804/11/20210821    31903336240421964190000V3AB1900001177870000000000000                                                                      PROSTIGMINE Sln Iny 0.5 mg/ mlAMP     4
PA0000PA0944504A202100000027675800000027675804/11/20210821    31903336240421964190000C7AB1600001013300000000000000                                                                          BETOPROLOL SLN INY 5 MG/MLAPC     1
PA0000PA0944504A202100000027675800000027675804/11/20210821    31903336240421964190000N02B1100001169680000000000000                              PARACETAMOL 1000MG/100ML(10MG/ML) SOL INY  VIAL X 100ML FRESENIUS KABIVAL     1
PA0000PA0944504A202100000027675800000027675804/11/20210821    31903336240421964190000M1AX0200001569410000000000000                                                                         KETRON SLN INY 30 MG / 2 MLAMP     1
PA0000PA0944504A202100000027675800000027675804/11/20210821    31903336240421964190000N2BB1100000217160000000000000                                                                      NOVALGINA Sln Iny 2.5 g x 5 mlAMP     1
PA0000PA0944504A202100000027675800000027675804/11/20210821    31903336240421964190000A04A1400001467560000000000000                                                                      ONDANSETRON SLN INY 8 MG/ 4 MLVAL     1
PA0000PA0944504A202100000027675800000027675804/11/20210821    31903336240421964190000A03F0300001626860000000000000                                                                   METOCLOPRAMIDA SLN INY 10 MG/2 MLAMP     1
PA0000PA0944504A202100000027675800000027675804/11/20210821    31903336240421964190000A3BA0100001109400000000000000                                                                          ATROPINA SLN INY 1 MG / MLAMP     1
PA0000PA0944504A202100000027675800000027675804/11/20210821    31903336240421964190000N1BA2400001195280000000000000                                                                    LIDOCAINA 2% S/E Sln Iny x 10 mlAMP     1
PA0000PA0944504A202100000027675800000027675804/11/20210821    31903336240421964190000N01A0400003939010000000000000                                               MAYOPROFOL 200MG/20ML(1%) EMUL INY CAJ X 1VIAL X 20MLVAL     1
PA0000PA0944504A202100000027675800000027675804/11/20210821    31903336240421964190000M3AC0600000720540000000000000                                                                         ESMERON SLN INY 50 MG /5 MLVAL     1
