CC0001140831830A202100000027593700000027593719/10/20211723    3190333624042196419000042743200003929860000000000000                   GASA ADHESIVA STRETCH REF 02038-00 ROL X 10MT FIXOMULL 15CM BN EXENTO-DC.417/2020CMT    20
CC0001140831830A202100000027593700000027593719/10/20211723    3190333624042196419000017565100000232570000000000000                                                                         PROLENE 0 ORT 75 CT-1 8424TSIN     1
CC0001140831830A202100000027593700000027593719/10/20211723    3190333624042196419000012472400000232190000000000000                                                                 SUTURA ETHILON 2-0 SC-26 45CM  164TSIN     1
CC0001140831830A202100000027593700000027593719/10/20211723    3190333624042196419000038573200000256890000000000000                                                                                 SONDA NSG LEVIN #20SIN     1
CC0001140831830A202100000027593700000027593719/10/20211723    3190333624042196419000000200900000256910000000000000                                                                        SONDA GASTRICA DE LEVIN # 24SIN     1
CC0001140831830A202100000027593700000027593719/10/20211723    3190333624042196419000043879400001138170000000000000                                                                  HOJA BISTURI # 10 CSSB 10 01002000SOB     1
CC0001140831830A202100000027593700000027593719/10/20211723    3190333624042196419000010900800001592080000000000000                                                                PINZA LIGASURE IMPACT REF LF4318 UNDPZA     1
CC0001140831830A202100000027593700000027593719/10/20211723    3190333624042196419000021052200000380370000000000000                                                                        RESERVORIO J-VAC 100 ml 2160PZA     1
CC0001140831830A202100000027593700000027593719/10/20211723    3190333624042196419000022310000000376030000000000000                                                                      DRENA BLAKE 1/4 19 FR 2231 J&JPZA     1
CC0001140831830A202100000027593700000027593719/10/20211723    3190333624042196419000014581900000529900000000000000                                                            GRAPADORA CON GRAPAS PIEL 35W 8886803712PZA     1
CC0001140831830A202100000027593700000027593719/10/20211723    3190333624042196419000000503900000296270000000000000                                                                  SUTURA POLYSORB 3-0 75CM V20 GL122SIN     3
CC0001140831830A202100000027593700000027593719/10/20211723    3190333624042196419000017565400000232590000000000000                                                                             PROLENE 1 75 CT-1 8425HSIN     2
CC0001140831830A202100000027593700000027593719/10/20211723    3190333624042196419000019487800001585180000000000000                                                                    VICRYL 1 PLUS 70 CM CT-1 VCP341HSOB     2
CC0001140831830A202100000027593700000027593719/10/20211723    31903336240421964190000K0960000001052020000000000000                                                            RECARGA ARTICULABLE 60 PURPURA EGIA60AMTPZA     4
CC0001140831830A202100000027593700000027593719/10/20211723    3190333624042196419000031188000000236790000000000000                                                                                     CISTOFLO ADULTOSIN     1
CC0001140831830A202100000027593700000027593719/10/20211723    3190333624042196419000038569900001124970000000000000                                                                              SONDA FOLEY #14 2 VIASSOB     1
CC0001140831830A202100000027593700000027593719/10/20211723    3190333624042196419000011069100001318210000000000000                                                            TROCAR VERSAPORT BLA OPTICAL 5MM ONB5STFPZA     1
CC0001140831830A202100000027593700000027593719/10/20211723    31903336240421964190000N1BA0300000217900000000000000                                                                    BUPIROP 0.5% C/E Sln Iny x 20 mlVAL     1
CC0001140831830A202100000027593700000027593719/10/20211723    3190333624042196419000045138000001413890000000000000                                                                       LAPIZ ELECTROBISTURI  SOB X 1SOB     1
CC0001140831830A202100000027593700000027593719/10/20211723    3190333624042196419000011082600000265810000000000000                                                              EQUIPO IRRIGACION URINARIA REF MRC4002SOB     1
CC0001140831830A202100000027593700000027593719/10/20211723    3190333624042196419000000501300000223570000000000000                                                                     STERI-STRIP 6 X 100 REF 1546 3MSIN     1
CC0001140831830A202100000027593700000027593719/10/20211723    3190333624042196419000013077800000471960000000000000                                                             GASA NO TEJIDA EST 7.5 X 7.5 SOB X 3 UNSOB     1
CC0001140831830A202100000027593700000027593719/10/20211723    3190333624042196419000015994600000632480000000000000                                                                          MONOCRYL 4-0 PS-2 45 Y496GSIN     1
CC0001140831830A202100000027593700000027593719/10/20211723    3190333624042196419000043879200001138180000000000000                                                                                   HOJA BISTURI # 11SOB     1
CC0001140831830A202100000027593700000027593719/10/20211723    3190333624042196419000022425200000548240000000000000                       EXTENSION DE ANESTESIA REF 1139 SOB X 1 SHERLEG  ADULTO BN EXENTO-DC.417/2020SIN     1
CC0001140831830A202100000027593700000027593719/10/20211723    3190333624042196419000035356500003919000000000000000                                                                                        LLAVE 3 VIASSOB     2
CC0001140831830A202100000027593700000027593719/10/20211723    3190333624042196419000022426800001140510000000000000                                                                    EQUIPO MACROGOTEO BAXTER MRC0001SOB     1
CC0001140831830A202100000027593700000027593719/10/20211723    3190333624042196419000016830000000970620000000000000                                                             SIST FIJACION CAT PERIFERICO 6.5X7 1683SOB     1
CC0001140831830A202100000027593700000027593719/10/20211723    3190333624042196419000011073300001096420000000000000                                                                BOLSA DE SUCCION DE FLUIDOS x 2500mLBOL     1
CC0001140831830A202100000027593700000027593719/10/20211723    3190333624042196419000030161400001459220000000000000                                                                       MANGUERA SUCCION 6 MM*3.1 MTSSOB     2
CC0001140831830A202100000027593700000027593719/10/20211723    3190333624042196419000020750600000296780000000000000                                                                PLACA ELECTRO RETORNO PACIENTE E7506SIN     1
CC0001140831830A202100000027593700000027593719/10/20211723    3190333624042196419000011082700001620070000000000000                                                               EQUIPO SET PRIMARIO C/CLAVE REF 14001BOL     1
CC0001140831830A202100000027593700000027593719/10/20211723    3190333624042196419000053074400000607910000000000000                                                               GASA ESTERIL 10*10 SOBRE X 3 UNIDADESSOB     2
CC0001140831830A202100000027593700000027593719/10/20211723    3190333624042196419000011085300001082140000000000000                                                                           GUANTE QUIRURGICO TALLA 8SOB     1
CC0001140831830A202100000027593700000027593719/10/20211723    3190333624042196419000011085200001585390000000000000                                                                       GUANTE QUIRURGICO TALLA 7 1/2SOB     3
CC0001140831830A202100000027593700000027593719/10/20211723    3190333624042196419000011085100001082120000000000000                                                                           GUANTE QUIRURGICO TALLA 7SOB     3
CC0001140831830A202100000027593700000027593719/10/20211723    3190333624042196419000043485100001618510000000000000                GUANTE QUIRURGICO DE LATEX REF 2D72N65X CAJ X 50 PROTEXIS  6.5 BN EXENTO-DC.417/2020SOB     3
CC0001140831830A202100000027593700000027593719/10/20211723    3190333624042196419000051515500000598160000000000000                                                                            MASCARILLA ANESTESIA # 5SIN     1
CC0001140831830A202100000027593700000027593719/10/20211723    3190333624042196419000038568100000258050000000000000                                                                         CANULA OXIGENO NASAL ADULTOSIN     1
CC0001140831830A202100000027593700000027593719/10/20211723    3190333624042196419000011099300000777780000000000000                                                                     FILTRO BACTERIANO VIRICO ADULTOBOL     2
CC0001140831830A202100000027593700000027593719/10/20211723    3190333624042196419000039175100001072060000000000000                                                                           TUBO ENDOTRAQUEAL C/B 7.5SOB     1
CC0001140831830A202100000027593700000027593719/10/20211723    3190333624042196419000039175000001072050000000000000                                                                           TUBO ENDOTRAQUEAL C/B 7.0SOB     1
CC0001140831830A202100000027593700000027593719/10/20211723    3190333624042196419000024673000001411210000000000000                                                                  JERINGA DESECHABLE 3 ML 21 X 1 1/2SOB     1
CC0001140831830A202100000027593700000027593719/10/20211723    3190333624042196419000024673600000222980000000000000                                                                     JERINGA DESECHABLE 5 ml 27*11/2SIN     4
CC0001140831830A202100000027593700000027593719/10/20211723    3190333624042196419000024674000000220660000000000000                             JERINGA A 3 PARTES CON AGUJA  SOB X 1 RYMCO  10ML BN EXENTO-DC.417/2020SIN     6
CC0001140831830A202100000027593700000027593719/10/20211723    3190333624042196419000024674500000322810000000000000                                                                   JERINGA DESECHABLE 20 ml 21*1 1/2SIN     4
CC0001140831830A202100000027593700000027593719/10/20211723    31903336240421964190000E1AD0200003888320000000000000                                                                              HARTMAN SLN INY 500 MLBOL     2
CC0001140831830A202100000027593700000027593719/10/20211723    31903336240421964190000E1AB0500003888400000000000000                                                              SOLUCION SALINA 0.9% SLN INY X 1000 MLBOL     4
CC0001140831830A202100000027593700000027593719/10/20211723    31903336240421964190000E1AB0300003888390000000000000                                                            SOLUCION SALINA 0.9% SLN INY BO X 500 MLBOL     4
CC0001140831830A202100000027593700000027593719/10/20211723    31903336240421964190000E1AB0200000199290000000000000                                                            SOLUCION SALINA 0.9% SLN INY BO X 100 MLBIN     1
CC0001140831830A202100000027593700000027593719/10/20211723    31903336240421964190000A04A1400001467560000000000000                                                                      ONDANSETRON SLN INY 8 MG/ 4 MLVAL     1
CC0001140831830A202100000027593700000027593719/10/20211723    31903336240421964190000N02B1100001169680000000000000                              PARACETAMOL 1000MG/100ML(10MG/ML) SOL INY  VIAL X 100ML FRESENIUS KABIVAL     1
CC0001140831830A202100000027593700000027593719/10/20211723    31903336240421964190000A2BC0900000200150000000000000                                                                               ORAZOLE Sln Iny 40 mgCIN     1
CC0001140831830A202100000027593700000027593719/10/20211723    31903336240421964190000N01A0400003939010000000000000                                               MAYOPROFOL 200MG/20ML(1%) EMUL INY CAJ X 1VIAL X 20MLVAL     1
CC0001140831830A202100000027593700000027593719/10/20211723    31903336240421964190000V3AB1900001177870000000000000                                                                      PROSTIGMINE Sln Iny 0.5 mg/ mlAMP     4
CC0001140831830A202100000027593700000027593719/10/20211723    31903336240421964190000N2BB1100000217160000000000000                                                                      NOVALGINA Sln Iny 2.5 g x 5 mlAMP     1
CC0001140831830A202100000027593700000027593719/10/20211723    31903336240421964190000H02AB500001664950000000000000                                                            DEXAMETASONA SLN INY 8 MG/2 ML AMP /CDS/AMP     2
CC0001140831830A202100000027593700000027593719/10/20211723    31903336240421964190000C01C0300001261020000000000000                                                               ETILEFRINA HCL SLN INY 10 MG/1 ML /R/AMP     1
CC0001140831830A202100000027593700000027593719/10/20211723    31903336240421964190000A3BA0100001109400000000000000                                                                          ATROPINA SLN INY 1 MG / MLAMP     1
CC0001140831830A202100000027593700000027593719/10/20211723    31903336240421964190000N1BA2400001195280000000000000                                                                    LIDOCAINA 2% S/E Sln Iny x 10 mlAMP     2
CC0001140831830A202100000027593700000027593719/10/20211723    31903336240421964190000M3AC0600000720540000000000000                                                                         ESMERON SLN INY 50 MG /5 MLVAL     2
CC0001140831830A202100000027593700000027593719/10/20211723    31903336240421964190000N2AA0700001587170000000000000                                                                                 ULTIVA Sln Iny 2 mgVAL     1
