CC0001110490397U202100050131172000050131172011/10/20210942    31500292239421964320000E1AB0200000199290000000000000                                                            SOLUCION SALINA 0.9% SLN INY BO X 100 MLBIN     1
CC0001110490397U202100050131172000050131172011/10/20210942    3150029223942196432000013077800000471960000000000000                                                             GASA NO TEJIDA EST 7.5 X 7.5 SOB X 3 UNSOB     5
CC0001110490397U202100050131172000050131172011/10/20210942    3150029223942196432000011089300001083990000000000000                                                              GUANTE ESTERIL LATEX S/POLVO TALLA 7.5SOB     1
CC0001110490397U202100050131172000050131172011/10/20210942    3150029223942196432000011048600000223020000000000000                                                                 JERINGA VACUNACION 3ML C/AGU 302542SIN     1
CC0001110490397U202100050131172000050131172011/10/20210942    3150029223942196432000081840000000333950000000000000                                                                  PROLENE 3-0 BLUE SC24  45 CM  8184SIN     2
