CC0000032887877A202100000027577200000027577215/10/20211627    31903336240421964190000M1AX0200001569410000000000000                                                                         KETRON SLN INY 30 MG / 2 MLAMP     1
CC0000032887877A202100000027577200000027577215/10/20211627    31903336240421964190000N01A0400003939010000000000000                                               MAYOPROFOL 200MG/20ML(1%) EMUL INY CAJ X 1VIAL X 20MLVAL     1
CC0000032887877A202100000027577200000027577215/10/20211627    3190333624042196419000000500600004008630000000000000         SUTURA ABSORBIBLE MONOFIL P-12 REF SM-5627 CAJ X 12 BIOSYN 45CM - 4-0 BN EXENTO-DC.417/2020SIN     2
CC0000032887877A202100000027577200000027577215/10/20211627    3190333624042196419000013077800000471960000000000000                                                             GASA NO TEJIDA EST 7.5 X 7.5 SOB X 3 UNSOB     1
CC0000032887877A202100000027577200000027577215/10/20211627    3190333624042196419000021052100000576790000000000000                                                                   DRENAJE BLAKE PLANO REF 2211  7MMSIN     1
CC0000032887877A202100000027577200000027577215/10/20211627    3190333624042196419000038568600000256960000000000000                                                                                   SONDA NELATON #14SIN     1
CC0000032887877A202100000027577200000027577215/10/20211627    3190333624042196419000000500800001353040000000000000                                                              HORIZON CLIP TITANI S AMARIL REF001200CAR     1
CC0000032887877A202100000027577200000027577215/10/20211627    3190333624042196419000018351100000232850000000000000                                                                                 SEDA 2-0 SC-26 185TSIN     1
CC0000032887877A202100000027577200000027577215/10/20211627    3190333624042196419000021052200000380370000000000000                                                                        RESERVORIO J-VAC 100 ml 2160PZA     1
CC0000032887877A202100000027577200000027577215/10/20211627    3190333624042196419000030161400001459220000000000000                                                                       MANGUERA SUCCION 6 MM*3.1 MTSSOB     1
CC0000032887877A202100000027577200000027577215/10/20211627    3190333624042196419000000503900000296270000000000000                                                                  SUTURA POLYSORB 3-0 75CM V20 GL122SIN     2
CC0000032887877A202100000027577200000027577215/10/20211627    3190333624042196419000045138000001413890000000000000                                                                       LAPIZ ELECTROBISTURI  SOB X 1SOB     1
CC0000032887877A202100000027577200000027577215/10/20211627    3190333624042196419000043879100001138200000000000000                                                                  HOJA BISTURI # 15 CSSB 15 01002003SOB     2
CC0000032887877A202100000027577200000027577215/10/20211627    3190333624042196419000022425200000548240000000000000                       EXTENSION DE ANESTESIA REF 1139 SOB X 1 SHERLEG  ADULTO BN EXENTO-DC.417/2020SIN     1
CC0000032887877A202100000027577200000027577215/10/20211627    3190333624042196419000035356500003919000000000000000                                                                                        LLAVE 3 VIASSOB     2
CC0000032887877A202100000027577200000027577215/10/20211627    31903336240421964190000Q1AA7100000610620000000000000                                                            CATETER PERIFE INTROCAN # 18G 4251687-04SIN     2
CC0000032887877A202100000027577200000027577215/10/20211627    3190333624042196419000022426800001140510000000000000                                                                    EQUIPO MACROGOTEO BAXTER MRC0001SOB     1
CC0000032887877A202100000027577200000027577215/10/20211627    31903336240421964190000J01DA300001239950000000000000                                                            CEFAZOLINA SODICA POLVO LIOF SLN INY 1 GVAL     2
CC0000032887877A202100000027577200000027577215/10/20211627    3190333624042196419000011073300001096420000000000000                                                                BOLSA DE SUCCION DE FLUIDOS x 2500mLBOL     1
CC0000032887877A202100000027577200000027577215/10/20211627    3190333624042196419000020750600000296780000000000000                                                                PLACA ELECTRO RETORNO PACIENTE E7506SIN     1
CC0000032887877A202100000027577200000027577215/10/20211627    3190333624042196419000053074400000607910000000000000                                                               GASA ESTERIL 10*10 SOBRE X 3 UNIDADESSOB     3
CC0000032887877A202100000027577200000027577215/10/20211627    3190333624042196419000024673000001411210000000000000                                                                  JERINGA DESECHABLE 3 ML 21 X 1 1/2SOB     1
CC0000032887877A202100000027577200000027577215/10/20211627    3190333624042196419000024673600000222980000000000000                                                                     JERINGA DESECHABLE 5 ml 27*11/2SIN     1
CC0000032887877A202100000027577200000027577215/10/20211627    3190333624042196419000024674000000220660000000000000                             JERINGA A 3 PARTES CON AGUJA  SOB X 1 RYMCO  10ML BN EXENTO-DC.417/2020SIN     5
CC0000032887877A202100000027577200000027577215/10/20211627    3190333624042196419000051515500000598160000000000000                                                                            MASCARILLA ANESTESIA # 5SIN     1
CC0000032887877A202100000027577200000027577215/10/20211627    3190333624042196419000038568100000258050000000000000                                                                         CANULA OXIGENO NASAL ADULTOSIN     1
CC0000032887877A202100000027577200000027577215/10/20211627    3190333624042196419000011085300001082140000000000000                                                                           GUANTE QUIRURGICO TALLA 8SOB     1
CC0000032887877A202100000027577200000027577215/10/20211627    3190333624042196419000011085100001082120000000000000                                                                           GUANTE QUIRURGICO TALLA 7SOB     3
CC0000032887877A202100000027577200000027577215/10/20211627    3190333624042196419000043485100001618510000000000000                GUANTE QUIRURGICO DE LATEX REF 2D72N65X CAJ X 50 PROTEXIS  6.5 BN EXENTO-DC.417/2020SOB     3
CC0000032887877A202100000027577200000027577215/10/20211627    3190333624042196419000011099300000777780000000000000                                                                     FILTRO BACTERIANO VIRICO ADULTOBOL     1
CC0000032887877A202100000027577200000027577215/10/20211627    3190333624042196419000031010900000762730000000000000                                                                          CANULA GUEDEL # 4 (100 MM)SOB     1
CC0000032887877A202100000027577200000027577215/10/20211627    31903336240421964190000E1AD0200003888320000000000000                                                                              HARTMAN SLN INY 500 MLBOL     1
CC0000032887877A202100000027577200000027577215/10/20211627    31903336240421964190000E1AB0500003888400000000000000                                                              SOLUCION SALINA 0.9% SLN INY X 1000 MLBOL     1
CC0000032887877A202100000027577200000027577215/10/20211627    31903336240421964190000E1AB0300003888390000000000000                                                            SOLUCION SALINA 0.9% SLN INY BO X 500 MLBOL     3
CC0000032887877A202100000027577200000027577215/10/20211627    31903336240421964190000E1AB0700003888350000000000000                                                            SOLUCION SALINA 0.9% SLN INY BO X 250 MLBOL     2
CC0000032887877A202100000027577200000027577215/10/20211627    31903336240421964190000E1AB0200000199290000000000000                                                            SOLUCION SALINA 0.9% SLN INY BO X 100 MLBIN     2
CC0000032887877A202100000027577200000027577215/10/20211627    31903336240421964190000A2BC0900000200150000000000000                                                                               ORAZOLE Sln Iny 40 mgCIN     1
CC0000032887877A202100000027577200000027577215/10/20211627    31903336240421964190000A03F0300001626860000000000000                                                                   METOCLOPRAMIDA SLN INY 10 MG/2 MLAMP     1
CC0000032887877A202100000027577200000027577215/10/20211627    31903336240421964190000A03BB100003889180000000000000                                      HIOSCINA BUTIL BROMURO 20MG/ML SOL INY CAJ X 100AMP X 1ML RYANAMP     1
CC0000032887877A202100000027577200000027577215/10/20211627    31903336240421964190000N2BB0100000787510000000000000                                                                    DIPIRONA SODICA Sln Iny 1 g/2 mlAMP     2
CC0000032887877A202100000027577200000027577215/10/20211627    31903336240421964190000H02A0100001664960000000000000                                                                        DEXAMETASONA SLN INY 4 MG/MLAMP     2
CC0000032887877A202100000027577200000027577215/10/20211627    31903336240421964190000N1AH0200003906560000000000000                                                                     FENTANIL Iny 0.05 mg/ml x 10 mlAMP     1
