RC0001049455461A202100000027567600000027567613/10/20211048    31903336240421964190000E1AA0800000322190000000000000                                                                          DEXTROSA 5% Sln Iny 250 mlBIN     1
RC0001049455461A202100000027567600000027567613/10/20211048    31903336240421964190000B5BC0100003889300000000000000                                                                        MANITOL SLN INY 20% X 500 MLBOL     1
RC0001049455461A202100000027567600000027567613/10/20211048    31903336240421964190000E1AD0200003888320000000000000                                                                              HARTMAN SLN INY 500 MLBOL     2
RC0001049455461A202100000027567600000027567613/10/20211048    31903336240421964190000E1AB0300003888390000000000000                                                            SOLUCION SALINA 0.9% SLN INY BO X 500 MLBOL     3
RC0001049455461A202100000027567600000027567613/10/20211048    31903336240421964190000E1AB0700003888350000000000000                                                            SOLUCION SALINA 0.9% SLN INY BO X 250 MLBOL     1
RC0001049455461A202100000027567600000027567613/10/20211048    31903336240421964190000E1AB0200000199290000000000000                                                            SOLUCION SALINA 0.9% SLN INY BO X 100 MLBIN     6
RC0001049455461A202100000027567600000027567613/10/20211048    3190333624042196419000021221000000226640000000000000                                                                                 CARTUCHO ACT 402-03PZA     5
RC0001049455461A202100000027567600000027567613/10/20211048    31903336240421964190000B02AA100001407470000000000000                                                                    CLINTRANEX SLN INY 500 MG / 5 MLAMP     3
RC0001049455461A202100000027567600000027567613/10/20211048    31903336240421964190000A12CC100001690470000000000000                                                                  MAGNESIO SULFATO 20% SLN INY 10 MLAMP     1
RC0001049455461A202100000027567600000027567613/10/20211048    31903336240421964190000B2BX0400001469550000000000000                                                                PROTAMINA Sln Iny 1000 UI/ ml x 5 mlAMP     1
RC0001049455461A202100000027567600000027567613/10/20211048    31903336240421964190000N1BA2400001195280000000000000                                                                    LIDOCAINA 2% S/E Sln Iny x 10 mlAMP     2
RC0001049455461A202100000027567600000027567613/10/20211048    31903336240421964190000M03AC100000197200000000000000                                                                   TRACURION SLN INY 10 MG /5 ML /R/AMP     3
RC0001049455461A202100000027567600000027567613/10/20211048    31903336240421964190000H02AB400001140460000000000000                                                              SUCCINA METILPREDNISOLONA 500MG VIA/R/VAL     2
RC0001049455461A202100000027567600000027567613/10/20211048    31903336240421964190000B1AB0100001227270000000000000                                             HEPAMAX 25000UI/5ML(5000UI/ML) SOL INY  CAJ X 25AMPX5MLAMP     1
RC0001049455461A202100000027567600000027567613/10/20211048    31903336240421964190000V3AB2200000614150000000000000                                                            GLUCONATO CALCIO SLN INY 10% AMP X 10 MLAPC     1
RC0001049455461A202100000027567600000027567613/10/20211048    31903336240421964190000J1KD0400000335010000000000000                                                                      GENTAMICINA SLN INY 80 MG/2 MLAMP     1
RC0001049455461A202100000027567600000027567613/10/20211048    31903336240421964190000B5AA0100000718790000000000000                                                                         FLEXBUMIN 20% Sln Iny 50 mlBOL     2
RC0001049455461A202100000027567600000027567613/10/20211048    31903336240421964190000C1CA0300000861740000000000000                                                                    DOPAMINA HCL SLN INY 200 MG/5 MLAMP     1
RC0001049455461A202100000027567600000027567613/10/20211048    31903336240421964190000C1CE0200000202230000000000000                                                                       COROTROPE SLN INY 10 MG/10 MLCIN     2
RC0001049455461A202100000027567600000027567613/10/20211048    31903336240421964190000A12BA100000552980000000000000                                                            CLORURO POTASIO Sln Iny AMP 20 MEQ/10 MLAMP     1
RC0001049455461A202100000027567600000027567613/10/20211048    31903336240421964190000J01DA300001239950000000000000                                                            CEFAZOLINA SODICA POLVO LIOF SLN INY 1 GVAL     3
RC0001049455461A202100000027567600000027567613/10/20211048    31903336240421964190000A12CA200001239800000000000000                     BICARBONATO SODIO 10MEQ/10ML(1MEQ/ML) SOL INY  CAJ X 100AMPX10ML FRESENIUS KABIAMP     4
RC0001049455461A202100000027567600000027567613/10/20211048    31903336240421964190000N01A0500003844190000000000000                                                                          REMIFENTANILO SLN INY 2 MGVAL     2
RC0001049455461A202100000027567600000027567613/10/20211048    3190333624042196419000053074400000607910000000000000                                                               GASA ESTERIL 10*10 SOBRE X 3 UNIDADESSOB     9
RC0001049455461A202100000027567600000027567613/10/20211048    3190333624042196419000011082700001620070000000000000                                                               EQUIPO SET PRIMARIO C/CLAVE REF 14001BOL     5
RC0001049455461A202100000027567600000027567613/10/20211048    3190333624042196419000000602600001259280000000000000                                                             APOSITO TEGADERM IV PD 1610 5CM X 5.7CMSOB     5
RC0001049455461A202100000027567600000027567613/10/20211048    3190333624042196419000000100600000223090000000000000                                                                      AGUJA DESECHABLE 18G X 1 1/2 PSIN     3
RC0001049455461A202100000027567600000027567613/10/20211048    3190333624042196419000024675000001585130000000000000                                                                    JERINGA DESECHABLE 50 ml S/AGUJASOB     1
RC0001049455461A202100000027567600000027567613/10/20211048    3190333624042196419000011047900000223010000000000000                                                                            JERINGA X 1ML REF 302579SIN     7
RC0001049455461A202100000027567600000027567613/10/20211048    3190333624042196419000024673000001411210000000000000                                                                  JERINGA DESECHABLE 3 ML 21 X 1 1/2SOB     7
RC0001049455461A202100000027567600000027567613/10/20211048    3190333624042196419000024673600000222980000000000000                                                                     JERINGA DESECHABLE 5 ml 27*11/2SIN     6
RC0001049455461A202100000027567600000027567613/10/20211048    3190333624042196419000024674000000220660000000000000                             JERINGA A 3 PARTES CON AGUJA  SOB X 1 RYMCO  10ML BN EXENTO-DC.417/2020SIN     9
RC0001049455461A202100000027567600000027567613/10/20211048    3190333624042196419000043879500001138210000000000000                                                                                    HOJA BISTURI #20SOB     1
RC0001049455461A202100000027567600000027567613/10/20211048    3190333624042196419000043879200001138180000000000000                                                                                   HOJA BISTURI # 11SOB     3
RC0001049455461A202100000027567600000027567613/10/20211048    3190333624042196419000043485100001618510000000000000                GUANTE QUIRURGICO DE LATEX REF 2D72N65X CAJ X 50 PROTEXIS  6.5 BN EXENTO-DC.417/2020SOB    10
RC0001049455461A202100000027567600000027567613/10/20211048    3190333624042196419000011085200001585390000000000000                                                                       GUANTE QUIRURGICO TALLA 7 1/2SOB     6
RC0001049455461A202100000027567600000027567613/10/20211048    3190333624042196419000038569500000994340000000000000                                                             SONDA FOLEY 2 VIAS 6F MA-220603 UROTECHSOB     1
RC0001049455461A202100000027567600000027567613/10/20211048    3190333624042196419000035356500003919000000000000000                                                                                        LLAVE 3 VIASSOB    11
RC0001049455461A202100000027567600000027567613/10/20211048    3190333624042196419000011051900000226360000000000000                                                               KIT TRANSDUCTOR SENCILLO S/VAMP PX260SOB     2
RC0001049455461A202100000027567600000027567613/10/20211048    3190333624042196419000011006500000227530000000000000                                                             CATETER BILUMEN 4F*8CM PEDIA 01CS15402ESIN     1
RC0001049455461A202100000027567600000027567613/10/20211048    3190333624042196419000036441300000236540000000000000                                                                    JERINGA 1 ML GASES ARTERIAL 9023SIN     7
RC0001049455461A202100000027567600000027567613/10/20211048    3190333624042196419000000503900000296270000000000000                                                                  SUTURA POLYSORB 3-0 75CM V20 GL122SIN     1
RC0001049455461A202100000027567600000027567613/10/20211048    3190333624042196419000017575900000367370000000000000                                                               SUTURA PROLENE 6-0 60CM BV1(2) M8805TSIN     8
RC0001049455461A202100000027567600000027567613/10/20211048    3190333624042196419000017576200000232750000000000000                                                                    PROLENE CARDIOV 6-0 60 2C-1 8726SIN     6
RC0001049455461A202100000027567600000027567613/10/20211048    3190333624042196419000018349500000232810000000000000                                                                                      SEDA 1 SA 87 TSIN     1
RC0001049455461A202100000027567600000027567613/10/20211048    3190333624042196419000043879100001138200000000000000                                                                  HOJA BISTURI # 15 CSSB 15 01002003SOB     1
RC0001049455461A202100000027567600000027567613/10/20211048    3190333624042196419000043879400001138170000000000000                                                                  HOJA BISTURI # 10 CSSB 10 01002000SOB     1
RC0001049455461A202100000027567600000027567613/10/20211048    3190333624042196419000030936900001431840000000000000                                                                                              BURETABOL     2
RC0001049455461A202100000027567600000027567613/10/20211048    3190333624042196419000018354100000232880000000000000                                                                  SUTURA SEDA NEGRA 3-0 KS 75CM 622HSIN     1
RC0001049455461A202100000027567600000027567613/10/20211048    3190333624042196419000024674500000322810000000000000                                                                   JERINGA DESECHABLE 20 ml 21*1 1/2SIN     1
RC0001049455461A202100000027567600000027567613/10/20211048    3190333624042196419000045138000001413890000000000000                                                                       LAPIZ ELECTROBISTURI  SOB X 1SOB     1
RC0001049455461A202100000027567600000027567613/10/20211048    31903336240421964190000Q1AA3300001585140000000000000                                                                         APOSITO TEGADERM 10*12 1626SOB     1
RC0001049455461A202100000027567600000027567613/10/20211048    3190333624042196419000038568300000257010000000000000                                                                                   SONDA NELATON #08SIN     1
RC0001049455461A202100000027567600000027567613/10/20211048    3190333624042196419000043486000001353050000000000000                                                            HORIZON CLIP TITANI M AZUL X 6 REF002200CAR     1
RC0001049455461A202100000027567600000027567613/10/20211048    3190333624042196419000018351400000232860000000000000                                                                                   SEDA 2-0 SH K833HSIN     5
RC0001049455461A202100000027567600000027567613/10/20211048    3190333624042196419000000500600004008630000000000000         SUTURA ABSORBIBLE MONOFIL P-12 REF SM-5627 CAJ X 12 BIOSYN 45CM - 4-0 BN EXENTO-DC.417/2020SIN     1
RC0001049455461A202100000027567600000027567613/10/20211048    3190333624042196419000012481000001630330000000000000                                                            FLEXON SUTURA MULTIFILAME 2-0 8886261753SOB     1
RC0001049455461A202100000027567600000027567613/10/20211048    3190333624042196419000000501200001566080000000000000                                                            STEEL MONOFILAMENT 2.0 GS-13 88862420-83PZA     1
RC0001049455461A202100000027567600000027567613/10/20211048    3190333624042196419000011063900000296020000000000000                                                            SIST DRENAJE TORACICO 888571299  AQ-SEALBOL     1
RC0001049455461A202100000027567600000027567613/10/20211048    3190333624042196419000022426800001140510000000000000                                                                    EQUIPO MACROGOTEO BAXTER MRC0001SOB     2
RC0001049455461A202100000027567600000027567613/10/20211048    3190333624042196419000030161400001459220000000000000                                                                       MANGUERA SUCCION 6 MM*3.1 MTSSOB     1
RC0001049455461A202100000027567600000027567613/10/20211048    31903336240421964190000B05BB100001414610000000000000                                                                        PLASMA LYTE SLN INY X 500 MLBOL     1
RC0001049455461A202100000027567600000027567613/10/20211048    3190333624042196419000031011100003934700000000000000                              CANULA GUEDEL MAYO REF CGUE00 SOB X 1 MEDEX N. 0 BN EXENTO-DC.417/2020SOB     1
RC0001049455461A202100000027567600000027567613/10/20211048    3190333624042196419000049419700001679920000000000000                                                                        VENDA ALGODON 5*5 NO ESTERILSOB     2
RC0001049455461A202100000027567600000027567613/10/20211048    3190333624042196419000039174000001618500000000000000                                                                           TUBO ENDOTRAQUEAL S/B 4.5SOB     1
RC0001049455461A202100000027567600000027567613/10/20211048    3190333624042196419000011059900000853370000000000000                                                            SENSOR PULSOX ADH LNCS PINE 462329 NEONASOB     2
RC0001049455461A202100000027567600000027567613/10/20211048    3190333624042196419000011083900000607700000000000000                                                               EXTENSION MONITOREO PRESION 1281  12"SIN     2
RC0001049455461A202100000027567600000027567613/10/20211048    3190333624042196419000011085100001082120000000000000                                                                           GUANTE QUIRURGICO TALLA 7SOB     5
RC0001049455461A202100000027567600000027567613/10/20211048    3190333624042196419000045303900000232380000000000000                                                                   LIGACLIP MED/LARG LT300 VERDE X 6SIN     1
RC0001049455461A202100000027567600000027567613/10/20211048    3190333624042196419000001200500001355200000000000000                                                            CANULA RAIZ  AORTICA 18 GA (4FR)   12218SOB     1
RC0001049455461A202100000027567600000027567613/10/20211048    3190333624042196419000013077800000471960000000000000                                                             GASA NO TEJIDA EST 7.5 X 7.5 SOB X 3 UNSOB     1
RC0001049455461A202100000027567600000027567613/10/20211048    3190333624042196419000022310000000376030000000000000                                                                      DRENA BLAKE 1/4 19 FR 2231 J&JPZA     2
RC0001049455461A202100000027567600000027567613/10/20211048    31903336240421964190000Q1A11500000331560000000000000                                                                     CATETER RADIAL #20 REF. 115.090SIN     1
RC0001049455461A202100000027567600000027567613/10/20211048    31903336240421964190000Q1AA7100000610620000000000000                                                            CATETER PERIFE INTROCAN # 18G 4251687-04SIN     1
RC0001049455461A202100000027567600000027567613/10/20211048    3190333624042196419000022425200000548240000000000000                       EXTENSION DE ANESTESIA REF 1139 SOB X 1 SHERLEG  ADULTO BN EXENTO-DC.417/2020SIN     1
