CC0000032711601A202100000027577900000027577916/10/20210859    31903336240421964190000N02A3100001227160000000000000                                                                    OXYRAPID SLN INY 10 MG/ML X 1 MLAMP     1
CC0000032711601A202100000027577900000027577916/10/20210859    3190333624042196419000049419700001679920000000000000                                                                        VENDA ALGODON 5*5 NO ESTERILSOB     2
CC0000032711601A202100000027577900000027577916/10/20210859    3190333624042196419000049428400000738560000000000000                                                                       VENDA ELASTICA 5*5 NO ESTERILSOB     2
CC0000032711601A202100000027577900000027577916/10/20210859    31903336240421964190000C01C0300001261020000000000000                                                               ETILEFRINA HCL SLN INY 10 MG/1 ML /R/AMP     1
CC0000032711601A202100000027577900000027577916/10/20210859    3190333624042196419000011857700001096350000000000000                                                              AGUJA SONOPLEX BLOQUEO 21*100 01185-77BOL     1
CC0000032711601A202100000027577900000027577916/10/20210859    31903336240421964190000N01B0200003888110000000000000                                           ROXICAINA SE 100MG/10ML(1%) SOL INY CAJ X 24AMPACK X 10MLAPC     2
CC0000032711601A202100000027577900000027577916/10/20210859    3190333624042196419000018610600000607940000000000000                                                               SENSOR ADULTO XP MONITOR 006-186-0106SIN     1
CC0000032711601A202100000027577900000027577916/10/20210859    31903336240421964190000B02AA100001407470000000000000                                                                    CLINTRANEX SLN INY 500 MG / 5 MLAMP     2
CC0000032711601A202100000027577900000027577916/10/20210859    3190333624042196419000070120200000508270000000000000                                                             PUNTA PALA ELECTROBISTURI LARGA E1551-6SIN     1
CC0000032711601A202100000027577900000027577916/10/20210859    3190333624042196419000038568600000256960000000000000                                                                                   SONDA NELATON #14SIN     1
CC0000032711601A202100000027577900000027577916/10/20210859    3190333624042196419000015944000000632490000000000000                                                                           MONOCRYL 3-0 PS2  MCP427HSIN     1
CC0000032711601A202100000027577900000027577916/10/20210859    3190333624042196419000017566600000232710000000000000                                                                       PROLENE 5-0 PS-2 45 CM P8686TSIN     1
CC0000032711601A202100000027577900000027577916/10/20210859    3190333624042196419000017566200001585160000000000000                                                                  PROLENE 4-0 AZ 45 PS2 PRIME P8682TSOB     1
CC0000032711601A202100000027577900000027577916/10/20210859    3190333624042196419000012473200000232210000000000000                                                                 SUTURA ETHILON 3-0 SC-24 45CM  163TSIN     2
CC0000032711601A202100000027577900000027577916/10/20210859    3190333624042196419000012472400000232190000000000000                                                                 SUTURA ETHILON 2-0 SC-26 45CM  164TSIN     3
CC0000032711601A202100000027577900000027577916/10/20210859    3190333624042196419000021052200000380370000000000000                                                                        RESERVORIO J-VAC 100 ml 2160PZA     1
CC0000032711601A202100000027577900000027577916/10/20210859    3190333624042196419000022310000000376030000000000000                                                                      DRENA BLAKE 1/4 19 FR 2231 J&JPZA     1
CC0000032711601A202100000027577900000027577916/10/20210859    3190333624042196419000030161400001459220000000000000                                                                       MANGUERA SUCCION 6 MM*3.1 MTSSOB     1
CC0000032711601A202100000027577900000027577916/10/20210859    3190333624042196419000018351100000232850000000000000                                                                                 SEDA 2-0 SC-26 185TSIN     1
CC0000032711601A202100000027577900000027577916/10/20210859    3190333624042196419000045138000001413890000000000000                                                                       LAPIZ ELECTROBISTURI  SOB X 1SOB     1
CC0000032711601A202100000027577900000027577916/10/20210859    3190333624042196419000018350200000232870000000000000                                                                                  SEDA 3-0 S.A SA84TSIN     1
CC0000032711601A202100000027577900000027577916/10/20210859    3190333624042196419000043879100001138200000000000000                                                                  HOJA BISTURI # 15 CSSB 15 01002003SOB     2
CC0000032711601A202100000027577900000027577916/10/20210859    3190333624042196419000000503900000296270000000000000                                                                  SUTURA POLYSORB 3-0 75CM V20 GL122SIN     1
CC0000032711601A202100000027577900000027577916/10/20210859    3190333624042196419000022425200000548240000000000000                       EXTENSION DE ANESTESIA REF 1139 SOB X 1 SHERLEG  ADULTO BN EXENTO-DC.417/2020SIN     1
CC0000032711601A202100000027577900000027577916/10/20210859    3190333624042196419000035356500003919000000000000000                                                                                        LLAVE 3 VIASSOB     1
CC0000032711601A202100000027577900000027577916/10/20210859    3190333624042196419000024674000000220660000000000000                             JERINGA A 3 PARTES CON AGUJA  SOB X 1 RYMCO  10ML BN EXENTO-DC.417/2020SIN     1
CC0000032711601A202100000027577900000027577916/10/20210859    31903336240421964190000Q1AA7100000610620000000000000                                                            CATETER PERIFE INTROCAN # 18G 4251687-04SIN     1
CC0000032711601A202100000027577900000027577916/10/20210859    3190333624042196419000022426800001140510000000000000                                                                    EQUIPO MACROGOTEO BAXTER MRC0001SOB     1
CC0000032711601A202100000027577900000027577916/10/20210859    3190333624042196419000016830000000970620000000000000                                                             SIST FIJACION CAT PERIFERICO 6.5X7 1683SOB     1
CC0000032711601A202100000027577900000027577916/10/20210859    31903336240421964190000J01DA300001239950000000000000                                                            CEFAZOLINA SODICA POLVO LIOF SLN INY 1 GVAL     2
CC0000032711601A202100000027577900000027577916/10/20210859    3190333624042196419000011073300001096420000000000000                                                                BOLSA DE SUCCION DE FLUIDOS x 2500mLBOL     1
CC0000032711601A202100000027577900000027577916/10/20210859    3190333624042196419000020750600000296780000000000000                                                                PLACA ELECTRO RETORNO PACIENTE E7506SIN     1
CC0000032711601A202100000027577900000027577916/10/20210859    3190333624042196419000011082700001620070000000000000                                                               EQUIPO SET PRIMARIO C/CLAVE REF 14001BOL     1
CC0000032711601A202100000027577900000027577916/10/20210859    3190333624042196419000053074400000607910000000000000                                                               GASA ESTERIL 10*10 SOBRE X 3 UNIDADESSOB     5
CC0000032711601A202100000027577900000027577916/10/20210859    3190333624042196419000011085300001082140000000000000                                                                           GUANTE QUIRURGICO TALLA 8SOB     2
CC0000032711601A202100000027577900000027577916/10/20210859    3190333624042196419000011085100001082120000000000000                                                                           GUANTE QUIRURGICO TALLA 7SOB     3
CC0000032711601A202100000027577900000027577916/10/20210859    3190333624042196419000043485100001618510000000000000                GUANTE QUIRURGICO DE LATEX REF 2D72N65X CAJ X 50 PROTEXIS  6.5 BN EXENTO-DC.417/2020SOB     3
CC0000032711601A202100000027577900000027577916/10/20210859    3190333624042196419000051515500000598160000000000000                                                                            MASCARILLA ANESTESIA # 5SIN     1
CC0000032711601A202100000027577900000027577916/10/20210859    3190333624042196419000038568100000258050000000000000                                                                         CANULA OXIGENO NASAL ADULTOSIN     1
CC0000032711601A202100000027577900000027577916/10/20210859    3190333624042196419000011099300000777780000000000000                                                                     FILTRO BACTERIANO VIRICO ADULTOBOL     1
CC0000032711601A202100000027577900000027577916/10/20210859    3190333624042196419000031010900000762730000000000000                                                                          CANULA GUEDEL # 4 (100 MM)SOB     1
CC0000032711601A202100000027577900000027577916/10/20210859    3190333624042196419000020056600001101530000000000000                                                                AGUJA HIPODERMICA DESECH 18G X 1 1/2SOB     2
CC0000032711601A202100000027577900000027577916/10/20210859    3190333624042196419000039175000001072050000000000000                                                                           TUBO ENDOTRAQUEAL C/B 7.0SOB     1
CC0000032711601A202100000027577900000027577916/10/20210859    3190333624042196419000024673600000222980000000000000                                                                     JERINGA DESECHABLE 5 ml 27*11/2SIN     4
CC0000032711601A202100000027577900000027577916/10/20210859    3190333624042196419000024674500000322810000000000000                                                                   JERINGA DESECHABLE 20 ml 21*1 1/2SIN     2
CC0000032711601A202100000027577900000027577916/10/20210859    31903336240421964190000E1AD0200003888320000000000000                                                                              HARTMAN SLN INY 500 MLBOL     2
CC0000032711601A202100000027577900000027577916/10/20210859    31903336240421964190000E1AB0500003888400000000000000                                                              SOLUCION SALINA 0.9% SLN INY X 1000 MLBOL     1
CC0000032711601A202100000027577900000027577916/10/20210859    31903336240421964190000E1AB0300003888390000000000000                                                            SOLUCION SALINA 0.9% SLN INY BO X 500 MLBOL     4
CC0000032711601A202100000027577900000027577916/10/20210859    31903336240421964190000E1AB0200000199290000000000000                                                            SOLUCION SALINA 0.9% SLN INY BO X 100 MLBIN     1
CC0000032711601A202100000027577900000027577916/10/20210859    31903336240421964190000A2BC0900000200150000000000000                                                                               ORAZOLE Sln Iny 40 mgCIN     1
CC0000032711601A202100000027577900000027577916/10/20210859    31903336240421964190000N01A0400003939010000000000000                                               MAYOPROFOL 200MG/20ML(1%) EMUL INY CAJ X 1VIAL X 20MLVAL     1
CC0000032711601A202100000027577900000027577916/10/20210859    31903336240421964190000M01A0400001341250000000000000                                                                              DYNASTAT AMP 40 MG /R/VAL     1
CC0000032711601A202100000027577900000027577916/10/20210859    31903336240421964190000N2BB1100000217160000000000000                                                                      NOVALGINA Sln Iny 2.5 g x 5 mlAMP     1
CC0000032711601A202100000027577900000027577916/10/20210859    31903336240421964190000A4AD0200000202990000000000000                                                                     PLITICAN HCL Sln Iny 50 mg/2 mlAMP     1
CC0000032711601A202100000027577900000027577916/10/20210859    31903336240421964190000H02AB500001664950000000000000                                                            DEXAMETASONA SLN INY 8 MG/2 ML AMP /CDS/AMP     1
CC0000032711601A202100000027577900000027577916/10/20210859    31903336240421964190000N1BA1400000220050000000000000                                                                 ROXICAINA 2% C/EPIN Sln Iny x 50 mlFCO     1
CC0000032711601A202100000027577900000027577916/10/20210859    31903336240421964190000N01B0600003888900000000000000                                                    BUPINEST 75MG/10ML(0.75%) SOL INY CAJ X 24AMPACKAPC     2
CC0000032711601A202100000027577900000027577916/10/20210859    31903336240421964190000M3AC0600000720540000000000000                                                                         ESMERON SLN INY 50 MG /5 MLVAL     1
