CC0000022269418A202100000027544900000027544908/10/20210846    3190333624042196419000030161400001459220000000000000                                                                       MANGUERA SUCCION 6 MM*3.1 MTSSOB     1
CC0000022269418A202100000027544900000027544908/10/20210846    31903336240421964190000N2BB0100000787510000000000000                                                                    DIPIRONA SODICA Sln Iny 1 g/2 mlAMP     1
CC0000022269418A202100000027544900000027544908/10/20210846    3190333624042196419000042743200003929860000000000000                   GASA ADHESIVA STRETCH REF 02038-00 ROL X 10MT FIXOMULL 15CM BN EXENTO-DC.417/2020CMT    30
CC0000022269418A202100000027544900000027544908/10/20210846    3190333624042196419000018351100000232850000000000000                                                                                 SEDA 2-0 SC-26 185TSIN     1
CC0000022269418A202100000027544900000027544908/10/20210846    3190333624042196419000021052200000380370000000000000                                                                        RESERVORIO J-VAC 100 ml 2160PZA     1
CC0000022269418A202100000027544900000027544908/10/20210846    3190333624042196419000022310200001001130000000000000                                                              DRENAJE SILICONA BLAKE 24 FR  S/CONECTPZA     1
CC0000022269418A202100000027544900000027544908/10/20210846    31903336240421964190000E1AA0400003888560000000000000                                                                         DEXTROSA 10% SLN INY 500 MLBOL     1
CC0000022269418A202100000027544900000027544908/10/20210846    3190333624042196419000011137100001419310000000000000                                                               TIRA GLUCOMETRIA FREESTYLE H OPTIUM .PZA     1
CC0000022269418A202100000027544900000027544908/10/20210846    31903336240421964190000R3CA0100001051880000000000000                                                               ADRENALINA HCL SLN INY 1 MG / ML ECARAMP     2
CC0000022269418A202100000027544900000027544908/10/20210846    3190333624042196419000036441300000236540000000000000                                                                    JERINGA 1 ML GASES ARTERIAL 9023SIN     1
CC0000022269418A202100000027544900000027544908/10/20210846    31903336240421964190000B05A0300003888230000000000000                                                        VOLUVEN (6+0.9)% SOL INY CAJ X 20BOL X 500MLBOL     2
CC0000022269418A202100000027544900000027544908/10/20210846    31903336240421964190000E1AB0500003888400000000000000                                                              SOLUCION SALINA 0.9% SLN INY X 1000 MLBOL     1
CC0000022269418A202100000027544900000027544908/10/20210846    3190333624042196419000017575000000232660000000000000                                                                             PROLENE 3-0 SH/SH 8522TSIN     1
CC0000022269418A202100000027544900000027544908/10/20210846    31903336240421964190000J01CR200000947130000000000000                                                              AMPICILINA /SULBACTAN POLVO LIOF 1.5 GAMP     1
CC0000022269418A202100000027544900000027544908/10/20210846    31903336240421964190000N01A0400003939010000000000000                                               MAYOPROFOL 200MG/20ML(1%) EMUL INY CAJ X 1VIAL X 20MLVAL     1
CC0000022269418A202100000027544900000027544908/10/20210846    3190333624042196419000011072500000228720000000000000                                                               BARRERa FLEXIB STOMAHESI 401612  57MMPZA     1
CC0000022269418A202100000027544900000027544908/10/20210846    3190333624042196419000040516100000228660000000000000                                                                 BOLSA COLOSTOMIA CONVATEC 57 402534PZA     1
CC0000022269418A202100000027544900000027544908/10/20210846    3190333624042196419000047373400000228840000000000000                                                                             PINZA COLOSTOMIA 175635PZA     1
CC0000022269418A202100000027544900000027544908/10/20210846    3190333624042196419000045138000001413890000000000000                                                                       LAPIZ ELECTROBISTURI  SOB X 1SOB     1
CC0000022269418A202100000027544900000027544908/10/20210846    3190333624042196419000018349800000232820000000000000                                                                                  SEDA 2-0 S.A SA85TSIN     1
CC0000022269418A202100000027544900000027544908/10/20210846    3190333624042196419000000503900000296270000000000000                                                                  SUTURA POLYSORB 3-0 75CM V20 GL122SIN     2
CC0000022269418A202100000027544900000027544908/10/20210846    3190333624042196419000000503300000266150000000000000                                                                SUTURA MONOCRYL 1 CT1 90CM REF Y347HSIN     1
CC0000022269418A202100000027544900000027544908/10/20210846    3190333624042196419000043879100001138200000000000000                                                                  HOJA BISTURI # 15 CSSB 15 01002003SOB     1
CC0000022269418A202100000027544900000027544908/10/20210846    3190333624042196419000043879500001138210000000000000                                                                                    HOJA BISTURI #20SOB     1
CC0000022269418A202100000027544900000027544908/10/20210846    31903336240421964190000E1AB0300003888390000000000000                                                            SOLUCION SALINA 0.9% SLN INY BO X 500 MLBOL     1
CC0000022269418A202100000027544900000027544908/10/20210846    3190333624042196419000022425200000548240000000000000                       EXTENSION DE ANESTESIA REF 1139 SOB X 1 SHERLEG  ADULTO BN EXENTO-DC.417/2020SIN     1
CC0000022269418A202100000027544900000027544908/10/20210846    3190333624042196419000035356500003919000000000000000                                                                                        LLAVE 3 VIASSOB     2
CC0000022269418A202100000027544900000027544908/10/20210846    3190333624042196419000022426800001140510000000000000                                                                    EQUIPO MACROGOTEO BAXTER MRC0001SOB     1
CC0000022269418A202100000027544900000027544908/10/20210846    3190333624042196419000011073300001096420000000000000                                                                BOLSA DE SUCCION DE FLUIDOS x 2500mLBOL     1
CC0000022269418A202100000027544900000027544908/10/20210846    3190333624042196419000020750600000296780000000000000                                                                PLACA ELECTRO RETORNO PACIENTE E7506SIN     1
CC0000022269418A202100000027544900000027544908/10/20210846    3190333624042196419000011082700001620070000000000000                                                               EQUIPO SET PRIMARIO C/CLAVE REF 14001BOL     1
CC0000022269418A202100000027544900000027544908/10/20210846    3190333624042196419000053074400000607910000000000000                                                               GASA ESTERIL 10*10 SOBRE X 3 UNIDADESSOB     3
CC0000022269418A202100000027544900000027544908/10/20210846    3190333624042196419000011047900000223010000000000000                                                                            JERINGA X 1ML REF 302579SIN     1
CC0000022269418A202100000027544900000027544908/10/20210846    3190333624042196419000024673000001411210000000000000                                                                  JERINGA DESECHABLE 3 ML 21 X 1 1/2SOB     1
CC0000022269418A202100000027544900000027544908/10/20210846    3190333624042196419000024673600000222980000000000000                                                                     JERINGA DESECHABLE 5 ml 27*11/2SIN     1
CC0000022269418A202100000027544900000027544908/10/20210846    3190333624042196419000024674000000220660000000000000                             JERINGA A 3 PARTES CON AGUJA  SOB X 1 RYMCO  10ML BN EXENTO-DC.417/2020SIN     6
CC0000022269418A202100000027544900000027544908/10/20210846    3190333624042196419000024674500000322810000000000000                                                                   JERINGA DESECHABLE 20 ml 21*1 1/2SIN     2
CC0000022269418A202100000027544900000027544908/10/20210846    3190333624042196419000051515500000598160000000000000                                                                            MASCARILLA ANESTESIA # 5SIN     1
CC0000022269418A202100000027544900000027544908/10/20210846    3190333624042196419000038568100000258050000000000000                                                                         CANULA OXIGENO NASAL ADULTOSIN     1
CC0000022269418A202100000027544900000027544908/10/20210846    3190333624042196419000011085300001082140000000000000                                                                           GUANTE QUIRURGICO TALLA 8SOB     1
CC0000022269418A202100000027544900000027544908/10/20210846    3190333624042196419000011085200001585390000000000000                                                                       GUANTE QUIRURGICO TALLA 7 1/2SOB     6
CC0000022269418A202100000027544900000027544908/10/20210846    3190333624042196419000043485100001618510000000000000                GUANTE QUIRURGICO DE LATEX REF 2D72N65X CAJ X 50 PROTEXIS  6.5 BN EXENTO-DC.417/2020SOB     2
CC0000022269418A202100000027544900000027544908/10/20210846    3190333624042196419000038569400000256750000000000000                                                                        SONDA ASPIRACION CONTROL #14SIN     1
CC0000022269418A202100000027544900000027544908/10/20210846    3190333624042196419000039174900001072040000000000000                                                                           TUBO ENDOTRAQUEAL C/B 6.5SOB     1
CC0000022269418A202100000027544900000027544908/10/20210846    3190333624042196419000031010900000762730000000000000                                                                          CANULA GUEDEL # 4 (100 MM)SOB     1
CC0000022269418A202100000027544900000027544908/10/20210846    3190333624042196419000001200400000530690000000000000                                                                          CANULA DE MAYO # 5 (100MM)SIN     1
CC0000022269418A202100000027544900000027544908/10/20210846    31903336240421964190000E1AB0200000199290000000000000                                                            SOLUCION SALINA 0.9% SLN INY BO X 100 MLBIN     1
CC0000022269418A202100000027544900000027544908/10/20210846    31903336240421964190000A2BC0900000200150000000000000                                                                               ORAZOLE Sln Iny 40 mgCIN     1
CC0000022269418A202100000027544900000027544908/10/20210846    31903336240421964190000N1AH0200003906560000000000000                                                                     FENTANIL Iny 0.05 mg/ml x 10 mlAMP     1
