CC0000044159143U202100154711102500154711102525/10/20211631    3190233723942196432000016830000000970620000000000000                                                             SIST FIJACION CAT PERIFERICO 6.5X7 1683SOB     1
CC0000044159143U202100154711102500154711102525/10/20211631    3190233723942196432000001956000001620610000000000000                                                                      CONECTOR MICRO CLAVE LAT-MC100SOB     1
CC0000044159143U202100154711102500154711102525/10/20211631    31902337239421964320000Q1AA7100000610620000000000000                                                            CATETER PERIFE INTROCAN # 18G 4251687-04SIN     1
