CC0000040786622U202100907297101600907297101616/10/20210154    3190280023942196432000042753000003929870000000000000                    GASA ADHESIVA STRETCH REF 02036-00 ROL X 10MT FIXOMULL 5CM BN EXENTO-DC.417/2020CMT    30
CC0000040786622U202100907297101600907297101616/10/20210917    3150025823942196432000024674000000220660000000000000                             JERINGA A 3 PARTES CON AGUJA  SOB X 1 RYMCO  10ML BN EXENTO-DC.417/2020SIN     2
CC0000040786622U202100907297101600907297101616/10/20212030    3150024623942196432000024674000000220660000000000000                             JERINGA A 3 PARTES CON AGUJA  SOB X 1 RYMCO  10ML BN EXENTO-DC.417/2020SIN     5
