CC0000007469257A202100000027586400000027586420/10/20211248    3190333624042196419000022425200000548240000000000000                       EXTENSION DE ANESTESIA REF 1139 SOB X 1 SHERLEG  ADULTO BN EXENTO-DC.417/2020SIN     1
CC0000007469257A202100000027586400000027586420/10/20211248    31903336240421964190000Q1AA7100000610620000000000000                                                            CATETER PERIFE INTROCAN # 18G 4251687-04SIN     1
CC0000007469257A202100000027586400000027586420/10/20211248    3190333624042196419000039175200001072070000000000000                                                                           TUBO ENDOTRAQUEAL C/B 8.0SOB     1
CC0000007469257A202100000027586400000027586420/10/20211248    3190333624042196419000018351500000232840000000000000                                                                                    SEDA 2-0 KS 623HSIN     2
CC0000007469257A202100000027586400000027586420/10/20211248    3190333624042196419000038570000001123500000000000000                                                                              SONDA FOLEY #16 2 VIASSOB     1
CC0000007469257A202100000027586400000027586420/10/20211248    3190333624042196419000018610600000607940000000000000                                                               SENSOR ADULTO XP MONITOR 006-186-0106SIN     1
CC0000007469257A202100000027586400000027586420/10/20211248    31903336240421964190000N1BA1900000554750000000000000                                                                     ROXICAINA JALEA 2% TUBO X 30 MLTUB     1
CC0000007469257A202100000027586400000027586420/10/20211248    3190333624042196419000020750600000296780000000000000                                                                PLACA ELECTRO RETORNO PACIENTE E7506SIN     1
CC0000007469257A202100000027586400000027586420/10/20211248    3190333624042196419000051515500000598160000000000000                                                                            MASCARILLA ANESTESIA # 5SIN     1
CC0000007469257A202100000027586400000027586420/10/20211248    3190333624042196419000035356500003919000000000000000                                                                                        LLAVE 3 VIASSOB    11
CC0000007469257A202100000027586400000027586420/10/20211248    3190333624042196419000021016900000227720000000000000                                                               CATETER TRILUMEN AD CS15703E 7FR*20CMSIN     1
CC0000007469257A202100000027586400000027586420/10/20211248    3190333624042196419000011190400001103400000000000000                                                            CONJUNTO RECEPTOR DE PRESION PICCO 5U/V/PAQ     1
CC0000007469257A202100000027586400000027586420/10/20211248    3190333624042196419000070707000000516720000000000000                                                                JUEGO DESECHABLE CALENTAMIENTO L70NISIN     1
CC0000007469257A202100000027586400000027586420/10/20211248    3190333624042196419000024673000001411210000000000000                                                                  JERINGA DESECHABLE 3 ML 21 X 1 1/2SOB     8
CC0000007469257A202100000027586400000027586420/10/20211248    3190333624042196419000036441300000236540000000000000                                                                    JERINGA 1 ML GASES ARTERIAL 9023SIN     5
CC0000007469257A202100000027586400000027586420/10/20211248    3190333624042196419000024675000001585130000000000000                                                                    JERINGA DESECHABLE 50 ml S/AGUJASOB     1
CC0000007469257A202100000027586400000027586420/10/20211248    3190333624042196419000024674500000322810000000000000                                                                   JERINGA DESECHABLE 20 ml 21*1 1/2SIN     4
CC0000007469257A202100000027586400000027586420/10/20211248    3190333624042196419000024673600000222980000000000000                                                                     JERINGA DESECHABLE 5 ml 27*11/2SIN     4
CC0000007469257A202100000027586400000027586420/10/20211248    3190333624042196419000024674000000220660000000000000                             JERINGA A 3 PARTES CON AGUJA  SOB X 1 RYMCO  10ML BN EXENTO-DC.417/2020SIN     9
CC0000007469257A202100000027586400000027586420/10/20211248    3190333624042196419000043879500001138210000000000000                                                                                    HOJA BISTURI #20SOB     2
CC0000007469257A202100000027586400000027586420/10/20211248    3190333624042196419000043879200001138180000000000000                                                                                   HOJA BISTURI # 11SOB     3
CC0000007469257A202100000027586400000027586420/10/20211248    3190333624042196419000043485100001618510000000000000                GUANTE QUIRURGICO DE LATEX REF 2D72N65X CAJ X 50 PROTEXIS  6.5 BN EXENTO-DC.417/2020SOB     4
CC0000007469257A202100000027586400000027586420/10/20211248    3190333624042196419000011085300001082140000000000000                                                                           GUANTE QUIRURGICO TALLA 8SOB     1
CC0000007469257A202100000027586400000027586420/10/20211248    3190333624042196419000011085200001585390000000000000                                                                       GUANTE QUIRURGICO TALLA 7 1/2SOB     7
CC0000007469257A202100000027586400000027586420/10/20211248    3190333624042196419000011085100001082120000000000000                                                                           GUANTE QUIRURGICO TALLA 7SOB     1
CC0000007469257A202100000027586400000027586420/10/20211248    3190333624042196419000053074400000607910000000000000                                                               GASA ESTERIL 10*10 SOBRE X 3 UNIDADESSOB     9
CC0000007469257A202100000027586400000027586420/10/20211248    3190333624042196419000011099300000777780000000000000                                                                     FILTRO BACTERIANO VIRICO ADULTOBOL     1
CC0000007469257A202100000027586400000027586420/10/20211248    3190333624042196419000011082700001620070000000000000                                                               EQUIPO SET PRIMARIO C/CLAVE REF 14001BOL     6
CC0000007469257A202100000027586400000027586420/10/20211248    3190333624042196419000022426800001140510000000000000                                                                    EQUIPO MACROGOTEO BAXTER MRC0001SOB     3
CC0000007469257A202100000027586400000027586420/10/20211248    3190333624042196419000031188000000236790000000000000                                                                                     CISTOFLO ADULTOSIN     1
CC0000007469257A202100000027586400000027586420/10/20211248    3190333624042196419000001200400000530690000000000000                                                                          CANULA DE MAYO # 5 (100MM)SIN     1
CC0000007469257A202100000027586400000027586420/10/20211248    3190333624042196419000011073300001096420000000000000                                                                BOLSA DE SUCCION DE FLUIDOS x 2500mLBOL     1
CC0000007469257A202100000027586400000027586420/10/20211248    31903336240421964190000Q1AA3300001585140000000000000                                                                         APOSITO TEGADERM 10*12 1626SOB     2
CC0000007469257A202100000027586400000027586420/10/20211248    3190333624042196419000000100600000223090000000000000                                                                      AGUJA DESECHABLE 18G X 1 1/2 PSIN     3
CC0000007469257A202100000027586400000027586420/10/20211248    31903336240421964190000B5BC0100003889300000000000000                                                                        MANITOL SLN INY 20% X 500 MLBOL     1
CC0000007469257A202100000027586400000027586420/10/20211248    31903336240421964190000E1AD0200003888320000000000000                                                                              HARTMAN SLN INY 500 MLBOL     6
CC0000007469257A202100000027586400000027586420/10/20211248    31903336240421964190000E1AB0300003888390000000000000                                                            SOLUCION SALINA 0.9% SLN INY BO X 500 MLBOL    11
CC0000007469257A202100000027586400000027586420/10/20211248    31903336240421964190000E1AB0200000199290000000000000                                                            SOLUCION SALINA 0.9% SLN INY BO X 100 MLBIN     6
CC0000007469257A202100000027586400000027586420/10/20211248    31903336240421964190000E1AB1100003888280000000000000                                                                        SOLUCION SALINA 0.9% X 50 mlBOL     1
CC0000007469257A202100000027586400000027586420/10/20211248    3190333624042196419000021221000000226640000000000000                                                                                 CARTUCHO ACT 402-03PZA     6
CC0000007469257A202100000027586400000027586420/10/20211248    31903336240421964190000B02AA100001407470000000000000                                                                    CLINTRANEX SLN INY 500 MG / 5 MLAMP     8
CC0000007469257A202100000027586400000027586420/10/20211248    31903336240421964190000A12CC100001690470000000000000                                                                  MAGNESIO SULFATO 20% SLN INY 10 MLAMP     4
CC0000007469257A202100000027586400000027586420/10/20211248    31903336240421964190000B2BX0400001469550000000000000                                                                PROTAMINA Sln Iny 1000 UI/ ml x 5 mlAMP     8
CC0000007469257A202100000027586400000027586420/10/20211248    31903336240421964190000N01A0400003939010000000000000                                               MAYOPROFOL 200MG/20ML(1%) EMUL INY CAJ X 1VIAL X 20MLVAL     1
CC0000007469257A202100000027586400000027586420/10/20211248    31903336240421964190000C7AB1000001382030000000000000                                                                   NOREPINEFRINA SLN INY 4 MG / 4 MLAMP     2
CC0000007469257A202100000027586400000027586420/10/20211248    31903336240421964190000M03AC100000197200000000000000                                                                   TRACURION SLN INY 10 MG /5 ML /R/AMP     4
CC0000007469257A202100000027586400000027586420/10/20211248    31903336240421964190000C01DA100000176460000000000000                                                            NITROGLICERINA EN DEXTROSA VIAL X 250 MLFCO     1
CC0000007469257A202100000027586400000027586420/10/20211248    31903336240421964190000H02AB400001140460000000000000                                                              SUCCINA METILPREDNISOLONA 500MG VIA/R/VAL     4
CC0000007469257A202100000027586400000027586420/10/20211248    31903336240421964190000B1AB0100001227270000000000000                                             HEPAMAX 25000UI/5ML(5000UI/ML) SOL INY  CAJ X 25AMPX5MLAMP     2
CC0000007469257A202100000027586400000027586420/10/20211248    31903336240421964190000V3AB2200000614150000000000000                                                            GLUCONATO CALCIO SLN INY 10% AMP X 10 MLAPC     1
CC0000007469257A202100000027586400000027586420/10/20211248    31903336240421964190000J1KD0400000335010000000000000                                                                      GENTAMICINA SLN INY 80 MG/2 MLAMP     2
CC0000007469257A202100000027586400000027586420/10/20211248    31903336240421964190000B5AA0100000718790000000000000                                                                         FLEXBUMIN 20% Sln Iny 50 mlBOL     2
CC0000007469257A202100000027586400000027586420/10/20211248    31903336240421964190000H02A0100001664960000000000000                                                                        DEXAMETASONA SLN INY 4 MG/MLAMP     2
CC0000007469257A202100000027586400000027586420/10/20211248    31903336240421964190000A12BA100000552980000000000000                                                            CLORURO POTASIO Sln Iny AMP 20 MEQ/10 MLAMP     4
CC0000007469257A202100000027586400000027586420/10/20211248    31903336240421964190000J01DA300001239950000000000000                                                            CEFAZOLINA SODICA POLVO LIOF SLN INY 1 GVAL     4
CC0000007469257A202100000027586400000027586420/10/20211248    31903336240421964190000A12CA200001239800000000000000                     BICARBONATO SODIO 10MEQ/10ML(1MEQ/ML) SOL INY  CAJ X 100AMPX10ML FRESENIUS KABIAMP     4
CC0000007469257A202100000027586400000027586420/10/20211248    31903336240421964190000N01A0500003844190000000000000                                                                          REMIFENTANILO SLN INY 2 MGVAL     2
CC0000007469257A202100000027586400000027586420/10/20211248    31903336240421964190000N2AA0100000301640000000000000                                                                            MORFINA Sln Iny 10 mg/mlAMP     1
CC0000007469257A202100000027586400000027586420/10/20211248    31903336240421964190000N1AH0200003906560000000000000                                                                     FENTANIL Iny 0.05 mg/ml x 10 mlAMP     2
CC0000007469257A202100000027586400000027586420/10/20211248    31903336240421964190000N5CD0300000218170000000000000                                                              DORMICUM IV-IM 5MG/5ML(1MG/ML) SOL INYAMP     2
CC0000007469257A202100000027586400000027586420/10/20211248    31903336240421964190000N01B0200003888110000000000000                                           ROXICAINA SE 100MG/10ML(1%) SOL INY CAJ X 24AMPACK X 10MLAPC     2
CC0000007469257A202100000027586400000027586420/10/20211248    31903336240421964190000E1AB0700003888350000000000000                                                            SOLUCION SALINA 0.9% SLN INY BO X 250 MLBOL     2
CC0000007469257A202100000027586400000027586420/10/20211248    3190333624042196419000000505100001136100000000000000                                                            TICRON 2/0 DA Y-5 BIC-PLEDGET 8886321356PZA     2
CC0000007469257A202100000027586400000027586420/10/20211248    3190333624042196419000043486000001353050000000000000                                                            HORIZON CLIP TITANI M AZUL X 6 REF002200CAR     1
CC0000007469257A202100000027586400000027586420/10/20211248    3190333624042196419000000500800001353040000000000000                                                              HORIZON CLIP TITANI S AMARIL REF001200CAR     1
CC0000007469257A202100000027586400000027586420/10/20211248    3190333624042196419000030161400001459220000000000000                                                                       MANGUERA SUCCION 6 MM*3.1 MTSSOB     1
CC0000007469257A202100000027586400000027586420/10/20211248    3190333624042196419000044370800000224140000000000000                                                                                IOBAN 2 90 X 45 6650SIN     1
CC0000007469257A202100000027586400000027586420/10/20211248    3190333624042196419000000500400000526890000000000000                                                                     BIOSYN 3/0 P-12 REF SM5638 TYCOSIN     1
CC0000007469257A202100000027586400000027586420/10/20211248    3190333624042196419000000505000001135560000000000000                                                               TICRON 2/0 DA Y-5 75CM REF 8886320251PZA     2
CC0000007469257A202100000027586400000027586420/10/20211248    3190333624042196419000045138000001413890000000000000                                                                       LAPIZ ELECTROBISTURI  SOB X 1SOB     1
CC0000007469257A202100000027586400000027586420/10/20211248    3190333624042196419000011068500000257220000000000000                                                                         TUBO PARA TORAX # 38F MEDEXSIN     2
CC0000007469257A202100000027586400000027586420/10/20211248    3190333624042196419000011063900000296020000000000000                                                            SIST DRENAJE TORACICO 888571299  AQ-SEALBOL     1
CC0000007469257A202100000027586400000027586420/10/20211248    3190333624042196419000018350800000232800000000000000                                                                                 SEDA 0 S.H 75 K834HSIN     2
CC0000007469257A202100000027586400000027586420/10/20211248    3190333624042196419000011110600000231980000000000000                                                                       CERA HUESOS 25GM ESTERIL W31GSIN     2
CC0000007469257A202100000027586400000027586420/10/20211248    3190333624042196419000000503500001270850000000000000                                                            SUTURA ETHILON BLACK 2-0 75CM 1AGKS 628HSOB     2
CC0000007469257A202100000027586400000027586420/10/20211248    3190333624042196419000000504600000729090000000000000                                                               SUTUR STEEL ACERO 5HOS-14 8886-241089SOB     1
CC0000007469257A202100000027586400000027586420/10/20211248    3190333624042196419000012481000001630330000000000000                                                            FLEXON SUTURA MULTIFILAME 2-0 8886261753SOB     2
CC0000007469257A202100000027586400000027586420/10/20211248    3190333624042196419000000509900004005370000000000000         SUTURA ABSORBIBLE GS-21 REF CL-925 CAJ X 36 POLYSORB 90CM - 1 VIOLETA BN EXENTO-DC.417/2020SIN     1
CC0000007469257A202100000027586400000027586420/10/20211248    3190333624042196419000000504200000232730000000000000                                                                   SUTURA PROLENE 5-0 RB1 75CM 9956TSIN     1
CC0000007469257A202100000027586400000027586420/10/20211248    3190333624042196419000017574600000232670000000000000                                                                               PROLENE 4-0 2RB1 9557SIN     5
CC0000007469257A202100000027586400000027586420/10/20211248    3190333624042196419000018349500000232810000000000000                                                                                      SEDA 1 SA 87 TSIN     1
