PE0080311350712U202100050131462500050131462501/11/20211802    3150024623942196432000001956000001620610000000000000                                                                      CONECTOR MICRO CLAVE LAT-MC100SOB     1
PE0080311350712U202100050131462500050131462501/11/20211802    3150024623942196432000016830000000970620000000000000                                                             SIST FIJACION CAT PERIFERICO 6.5X7 1683SOB     1
PE0080311350712U202100050131462500050131462501/11/20211802    31500246239421964320000Q1AA7100000610620000000000000                                                            CATETER PERIFE INTROCAN # 18G 4251687-04SIN     1
