RC0001125350619U202100050131334200050131334222/10/20212104    3190233723942196432000024673600000222980000000000000                                                                     JERINGA DESECHABLE 5 ml 27*11/2SIN     1
CC0000032827930U202100050131334200050131334222/10/20212104    3190233723942196432000024673600000222980000000000000                                                                     JERINGA DESECHABLE 5 ml 27*11/2SIN     1
CC0001005573354U202100050131334200050131334222/10/20212104    3190233723942196432000024673600000222980000000000000                                                                     JERINGA DESECHABLE 5 ml 27*11/2SIN     1
CC0000032827930U202100050131334200050131334222/10/20212104    3190233723942196432000024674000000220660000000000000                             JERINGA A 3 PARTES CON AGUJA  SOB X 1 RYMCO  10ML BN EXENTO-DC.417/2020SIN     1
CC0000008697210U202100050131334200050131334222/10/20212104    3190233723942196432000024674000000220660000000000000                             JERINGA A 3 PARTES CON AGUJA  SOB X 1 RYMCO  10ML BN EXENTO-DC.417/2020SIN     1
CC0000073271664U202100050131334200050131334222/10/20212104    3190233723942196432000024674000000220660000000000000                             JERINGA A 3 PARTES CON AGUJA  SOB X 1 RYMCO  10ML BN EXENTO-DC.417/2020SIN     2
CC0001007171288U202100050131334200050131334222/10/20212104    3190233723942196432000024674000000220660000000000000                             JERINGA A 3 PARTES CON AGUJA  SOB X 1 RYMCO  10ML BN EXENTO-DC.417/2020SIN     1
CC0001140817076U202100050131334200050131334222/10/20212104    3190233723942196432000024673000001411210000000000000                                                                  JERINGA DESECHABLE 3 ML 21 X 1 1/2SOB     2
CC0000032827930U202100050131334200050131334222/10/20212104    3190233723942196432000024673000001411210000000000000                                                                  JERINGA DESECHABLE 3 ML 21 X 1 1/2SOB     1
CC0000022397482U202100050131334200050131334222/10/20212104    3190233723942196432000024673000001411210000000000000                                                                  JERINGA DESECHABLE 3 ML 21 X 1 1/2SOB     4
CC0000022397482U202100050131334200050131334222/10/20212104    3190233723942196432000016830000000970620000000000000                                                             SIST FIJACION CAT PERIFERICO 6.5X7 1683SOB     1
CC0000008697210U202100050131334200050131334222/10/20212104    3190233723942196432000038568100000258050000000000000                                                                         CANULA OXIGENO NASAL ADULTOSIN     1
CC0000008697210U202100050131334200050131334222/10/20212104    31902337239421964320000E1AB1100003888280000000000000                                                                        SOLUCION SALINA 0.9% X 50 mlBOL     1
CC0000073271664U202100050131334200050131334222/10/20212104    31902337239421964320000E1AB1100003888280000000000000                                                                        SOLUCION SALINA 0.9% X 50 mlBOL     1
PE820343025052016U202100050131334200050131334222/10/20212104    31902337239421964320000E1AC0100000199400000000000000                                                                          SUERO MIXTO Sln Iny 500 mlBIN     1
CC0000008697210U202100050131334200050131334222/10/20212104    3190233723942196432000042753100003929850000000000000                   GASA ADHESIVA STRETCH REF 02037-00 ROL X 10MT FIXOMULL 10CM BN EXENTO-DC.417/2020CMT    10
CC0000073271664U202100050131334200050131334222/10/20212104    3190233723942196432000013077800000471960000000000000                                                             GASA NO TEJIDA EST 7.5 X 7.5 SOB X 3 UNSOB     4
CC0000022397482U202100050131334200050131334222/10/20212104    31902337239421964320000E1AB0500003888400000000000000                                                              SOLUCION SALINA 0.9% SLN INY X 1000 MLBOL     1
CC0000008697210U202100050131334200050131334222/10/20212104    3190233723942196432000031010900000762730000000000000                                                                          CANULA GUEDEL # 4 (100 MM)SOB     1
