CC0000022460675A202100000027527600000027527611/10/20211839    3190333624042196419000011087900000855820000000000000                                                             GRAPADORA HEMSTAPLER 33.4.8  REF HEM334CAJ     1
CC0000022460675A202100000027527600000027527611/10/20211839    3190333624042196419000018351100000232850000000000000                                                                                 SEDA 2-0 SC-26 185TSIN     1
CC0000022460675A202100000027527600000027527611/10/20211839    3190333624042196419000017564700000232600000000000000                                                                               PROLENE 2-0 CT2 8411TSIN     1
CC0000022460675A202100000027527600000027527611/10/20211839    3190333624042196419000019488700000753270000000000000                                                                              VICRYL 3-0 SH1 VCP311HSOB     2
CC0000022460675A202100000027527600000027527611/10/20211839    3190333624042196419000043879100001138200000000000000                                                                  HOJA BISTURI # 15 CSSB 15 01002003SOB     1
CC0000022460675A202100000027527600000027527611/10/20211839    3190333624042196419000000503900000296270000000000000                                                                  SUTURA POLYSORB 3-0 75CM V20 GL122SIN     2
CC0000022460675A202100000027527600000027527611/10/20211839    31903336240421964190000K6700400000233790000000000000                                                                   SPONGOSTAN ANAL MS0004  3CM X 8CMSIN     1
CC0000022460675A202100000027527600000027527611/10/20211839    3190333624042196419000045138000001413890000000000000                                                                       LAPIZ ELECTROBISTURI  SOB X 1SOB     1
CC0000022460675A202100000027527600000027527611/10/20211839    3190333624042196419000030161400001459220000000000000                                                                       MANGUERA SUCCION 6 MM*3.1 MTSSOB     1
CC0000022460675A202100000027527600000027527611/10/20211839    31903336240421964190000N1BA1900000554750000000000000                                                                     ROXICAINA JALEA 2% TUBO X 30 MLTUB     1
CC0000022460675A202100000027527600000027527611/10/20211839    3190333624042196419000022425200000548240000000000000                       EXTENSION DE ANESTESIA REF 1139 SOB X 1 SHERLEG  ADULTO BN EXENTO-DC.417/2020SIN     1
CC0000022460675A202100000027527600000027527611/10/20211839    3190333624042196419000035356500003919000000000000000                                                                                        LLAVE 3 VIASSOB     1
CC0000022460675A202100000027527600000027527611/10/20211839    3190333624042196419000024674000000220660000000000000                             JERINGA A 3 PARTES CON AGUJA  SOB X 1 RYMCO  10ML BN EXENTO-DC.417/2020SIN     1
CC0000022460675A202100000027527600000027527611/10/20211839    31903336240421964190000Q1AA7100000610620000000000000                                                            CATETER PERIFE INTROCAN # 18G 4251687-04SIN     1
CC0000022460675A202100000027527600000027527611/10/20211839    3190333624042196419000022426800001140510000000000000                                                                    EQUIPO MACROGOTEO BAXTER MRC0001SOB     1
CC0000022460675A202100000027527600000027527611/10/20211839    31903336240421964190000J01DA300001239950000000000000                                                            CEFAZOLINA SODICA POLVO LIOF SLN INY 1 GVAL     2
CC0000022460675A202100000027527600000027527611/10/20211839    3190333624042196419000038568500000256950000000000000                                                                                   SONDA NELATON #12SIN     1
CC0000022460675A202100000027527600000027527611/10/20211839    3190333624042196419000020750600000296780000000000000                                                                PLACA ELECTRO RETORNO PACIENTE E7506SIN     1
CC0000022460675A202100000027527600000027527611/10/20211839    3190333624042196419000011073300001096420000000000000                                                                BOLSA DE SUCCION DE FLUIDOS x 2500mLBOL     1
CC0000022460675A202100000027527600000027527611/10/20211839    3190333624042196419000053074400000607910000000000000                                                               GASA ESTERIL 10*10 SOBRE X 3 UNIDADESSOB     3
CC0000022460675A202100000027527600000027527611/10/20211839    3190333624042196419000011047900000223010000000000000                                                                            JERINGA X 1ML REF 302579SIN     1
CC0000022460675A202100000027527600000027527611/10/20211839    3190333624042196419000024673600000222980000000000000                                                                     JERINGA DESECHABLE 5 ml 27*11/2SIN     1
CC0000022460675A202100000027527600000027527611/10/20211839    3190333624042196419000024674500000322810000000000000                                                                   JERINGA DESECHABLE 20 ml 21*1 1/2SIN     1
CC0000022460675A202100000027527600000027527611/10/20211839    3190333624042196419000011085300001082140000000000000                                                                           GUANTE QUIRURGICO TALLA 8SOB     3
CC0000022460675A202100000027527600000027527611/10/20211839    3190333624042196419000011085200001585390000000000000                                                                       GUANTE QUIRURGICO TALLA 7 1/2SOB     2
CC0000022460675A202100000027527600000027527611/10/20211839    3190333624042196419000043485100001618510000000000000                GUANTE QUIRURGICO DE LATEX REF 2D72N65X CAJ X 50 PROTEXIS  6.5 BN EXENTO-DC.417/2020SOB     2
CC0000022460675A202100000027527600000027527611/10/20211839    3190333624042196419000020060000000225230000000000000                                                               AGUJA SPINOCAN 27G X 3 1/2 PU 4503902SIN     1
CC0000022460675A202100000027527600000027527611/10/20211839    31903336240421964190000E1AB0300003888390000000000000                                                            SOLUCION SALINA 0.9% SLN INY BO X 500 MLBOL     3
CC0000022460675A202100000027527600000027527611/10/20211839    31903336240421964190000N1BA0500000647360000000000000                                                                  BUPIROP 0.5% PESADO SLN INY X 4 MLAPC     1
CC0000022460675A202100000027527600000027527611/10/20211839    31903336240421964190000A12CA200001239800000000000000                     BICARBONATO SODIO 10MEQ/10ML(1MEQ/ML) SOL INY  CAJ X 100AMPX10ML FRESENIUS KABIAMP     1
CC0000022460675A202100000027527600000027527611/10/20211839    31903336240421964190000N01B1300001195250000000000000                                                                         BUPIROP 0.5% S/EPIN X 10 MLAMP     1
CC0000022460675A202100000027527600000027527611/10/20211839    31903336240421964190000H02A0100001664960000000000000                                                                        DEXAMETASONA SLN INY 4 MG/MLAMP     2
CC0000022460675A202100000027527600000027527611/10/20211839    31903336240421964190000N1AH0200003906560000000000000                                                                     FENTANIL Iny 0.05 mg/ml x 10 mlAMP     1
