PA0000666346022A202100000027615000000027615025/10/20210923    31903336240421964190000N2AA0700001587170000000000000                                                                                 ULTIVA Sln Iny 2 mgVAL     1
PA0000666346022A202100000027615000000027615025/10/20210923    3190333624042196419000020058100001101630000000000000                                                                     AGUJA HIPODERMICA DESECH 23 X 1SOB     1
PA0000666346022A202100000027615000000027615025/10/20210923    3190333624042196419000011085300001082140000000000000                                                                           GUANTE QUIRURGICO TALLA 8SOB     3
PA0000666346022A202100000027615000000027615025/10/20210923    3190333624042196419000011085200001585390000000000000                                                                       GUANTE QUIRURGICO TALLA 7 1/2SOB     5
PA0000666346022A202100000027615000000027615025/10/20210923    3190333624042196419000011085100001082120000000000000                                                                           GUANTE QUIRURGICO TALLA 7SOB     1
PA0000666346022A202100000027615000000027615025/10/20210923    3190333624042196419000043485100001618510000000000000                GUANTE QUIRURGICO DE LATEX REF 2D72N65X CAJ X 50 PROTEXIS  6.5 BN EXENTO-DC.417/2020SOB     1
PA0000666346022A202100000027615000000027615025/10/20210923    3190333624042196419000011073300001096420000000000000                                                                BOLSA DE SUCCION DE FLUIDOS x 2500mLBOL     1
PA0000666346022A202100000027615000000027615025/10/20210923    3190333624042196419000024673000001411210000000000000                                                                  JERINGA DESECHABLE 3 ML 21 X 1 1/2SOB     2
PA0000666346022A202100000027615000000027615025/10/20210923    3190333624042196419000024674000000220660000000000000                             JERINGA A 3 PARTES CON AGUJA  SOB X 1 RYMCO  10ML BN EXENTO-DC.417/2020SIN     6
PA0000666346022A202100000027615000000027615025/10/20210923    3190333624042196419000024674500000322810000000000000                                                                   JERINGA DESECHABLE 20 ml 21*1 1/2SIN     5
PA0000666346022A202100000027615000000027615025/10/20210923    3190333624042196419000053074400000607910000000000000                                                               GASA ESTERIL 10*10 SOBRE X 3 UNIDADESSOB    10
PA0000666346022A202100000027615000000027615025/10/20210923    31903336240421964190000E1AD0200003888320000000000000                                                                              HARTMAN SLN INY 500 MLBOL     2
PA0000666346022A202100000027615000000027615025/10/20210923    31903336240421964190000E1AB0500003888400000000000000                                                              SOLUCION SALINA 0.9% SLN INY X 1000 MLBOL     1
PA0000666346022A202100000027615000000027615025/10/20210923    31903336240421964190000E1AB0300003888390000000000000                                                            SOLUCION SALINA 0.9% SLN INY BO X 500 MLBOL     4
PA0000666346022A202100000027615000000027615025/10/20210923    31903336240421964190000E1AB0700003888350000000000000                                                            SOLUCION SALINA 0.9% SLN INY BO X 250 MLBOL     1
PA0000666346022A202100000027615000000027615025/10/20210923    31903336240421964190000E1AB0200000199290000000000000                                                            SOLUCION SALINA 0.9% SLN INY BO X 100 MLBIN     1
PA0000666346022A202100000027615000000027615025/10/20210923    31903336240421964190000N2AA0100000301640000000000000                                                                            MORFINA Sln Iny 10 mg/mlAMP     1
PA0000666346022A202100000027615000000027615025/10/20210923    31903336240421964190000N2BB1100000217160000000000000                                                                      NOVALGINA Sln Iny 2.5 g x 5 mlAMP     1
PA0000666346022A202100000027615000000027615025/10/20210923    31903336240421964190000N02B1100001169680000000000000                              PARACETAMOL 1000MG/100ML(10MG/ML) SOL INY  VIAL X 100ML FRESENIUS KABIVAL     1
PA0000666346022A202100000027615000000027615025/10/20210923    31903336240421964190000M01A0400001341250000000000000                                                                              DYNASTAT AMP 40 MG /R/VAL     1
PA0000666346022A202100000027615000000027615025/10/20210923    31903336240421964190000H02AB500001664950000000000000                                                            DEXAMETASONA SLN INY 8 MG/2 ML AMP /CDS/AMP     1
PA0000666346022A202100000027615000000027615025/10/20210923    31903336240421964190000A04A1400001467560000000000000                                                                      ONDANSETRON SLN INY 8 MG/ 4 MLVAL     1
PA0000666346022A202100000027615000000027615025/10/20210923    31903336240421964190000A03F0300001626860000000000000                                                                   METOCLOPRAMIDA SLN INY 10 MG/2 MLAMP     1
PA0000666346022A202100000027615000000027615025/10/20210923    31903336240421964190000C01C0300001261020000000000000                                                               ETILEFRINA HCL SLN INY 10 MG/1 ML /R/AMP     1
PA0000666346022A202100000027615000000027615025/10/20210923    31903336240421964190000N01B0600003888900000000000000                                                    BUPINEST 75MG/10ML(0.75%) SOL INY CAJ X 24AMPACKAPC     2
PA0000666346022A202100000027615000000027615025/10/20210923    31903336240421964190000N01A0400003939010000000000000                                               MAYOPROFOL 200MG/20ML(1%) EMUL INY CAJ X 1VIAL X 20MLVAL     1
PA0000666346022A202100000027615000000027615025/10/20210923    31903336240421964190000M3AC0600000720540000000000000                                                                         ESMERON SLN INY 50 MG /5 MLVAL     1
PA0000666346022A202100000027615000000027615025/10/20210923    3190333624042196419000022426800001140510000000000000                                                                    EQUIPO MACROGOTEO BAXTER MRC0001SOB     1
PA0000666346022A202100000027615000000027615025/10/20210923    3190333624042196419000011099300000777780000000000000                                                                     FILTRO BACTERIANO VIRICO ADULTOBOL     1
PA0000666346022A202100000027615000000027615025/10/20210923    3190333624042196419000039175100001072060000000000000                                                                           TUBO ENDOTRAQUEAL C/B 7.5SOB     1
PA0000666346022A202100000027615000000027615025/10/20210923    3190333624042196419000031010900000762730000000000000                                                                          CANULA GUEDEL # 4 (100 MM)SOB     1
PA0000666346022A202100000027615000000027615025/10/20210923    3190333624042196419000038568100000258050000000000000                                                                         CANULA OXIGENO NASAL ADULTOSIN     1
PA0000666346022A202100000027615000000027615025/10/20210923    3190333624042196419000020750600000296780000000000000                                                                PLACA ELECTRO RETORNO PACIENTE E7506SIN     1
PA0000666346022A202100000027615000000027615025/10/20210923    3190333624042196419000011082700001620070000000000000                                                               EQUIPO SET PRIMARIO C/CLAVE REF 14001BOL     1
PA0000666346022A202100000027615000000027615025/10/20210923    31903336240421964190000A2BC0900000200150000000000000                                                                               ORAZOLE Sln Iny 40 mgCIN     1
PA0000666346022A202100000027615000000027615025/10/20210923    31903336240421964190000B02AA100001407470000000000000                                                                    CLINTRANEX SLN INY 500 MG / 5 MLAMP     2
PA0000666346022A202100000027615000000027615025/10/20210923    31903336240421964190000Q1AA7200000610630000000000000                                                            CATETER PERIFE INTROCAN # 20G 4251644-04SIN     3
PA0000666346022A202100000027615000000027615025/10/20210923    31903336240421964190000N01B0200003888110000000000000                                           ROXICAINA SE 100MG/10ML(1%) SOL INY CAJ X 24AMPACK X 10MLAPC     1
PA0000666346022A202100000027615000000027615025/10/20210923    31903336240421964190000N1BA0500000647360000000000000                                                                  BUPIROP 0.5% PESADO SLN INY X 4 MLAPC     1
PA0000666346022A202100000027615000000027615025/10/20210923    31903336240421964190000Q1A15500001690750000000000000                                                            AGUJA ESPINAL WHITACRE 27*3 1/2  4502027SOB     1
PA0000666346022A202100000027615000000027615025/10/20210923    31903336240421964190000D08AF900000512990000000000000                                                            FURACIN POMADA 0.2 G/100 G TU X 40 G /R/TUB     1
PA0000666346022A202100000027615000000027615025/10/20210923    3190333624042196419000019992300000233100000000000000                                                             VICRYL RAPID INC 3-0 70CM PS2 (VR9923G)SIN     1
PA0000666346022A202100000027615000000027615025/10/20210923    3190333624042196419000019487600000599200000000000000                                                                                VICRYL 0 CT1 VCP346HSIN     1
PA0000666346022A202100000027615000000027615025/10/20210923    3190333624042196419000000501000004008660000000000000  SUTURA ABSORB TRENZADA GU-46 REF UL-878 CAJ X 36 POLYSORB 75CM - 2-0 VIOLETA BN EXENTO-DC.417/2020SIN     1
PA0000666346022A202100000027615000000027615025/10/20210923    3190333624042196419000011064200001181380000000000000                                                             SISTEM KOH-EFFICIENT C/BALON KC-RUMI-30PZA     1
PA0000666346022A202100000027615000000027615025/10/20210923    3190333624042196419000000504900001148610000000000000                                                            SUTURA V-LOC 180 GS21 37MM REF VLOCL0316PZA     1
PA0000666346022A202100000027615000000027615025/10/20210923    3190333624042196419000015944000000632490000000000000                                                                           MONOCRYL 3-0 PS2  MCP427HSIN     1
PA0000666346022A202100000027615000000027615025/10/20210923    3190333624042196419000012475500000232250000000000000                                                                 SUTURA ETHILON 5-0 PS-2 45CM P1666TSIN     1
PA0000666346022A202100000027615000000027615025/10/20210923    3190333624042196419000012474000000232230000000000000                                                                SUTURA ETHILON 4-0 SC-20 45CM 14502TSIN     1
PA0000666346022A202100000027615000000027615025/10/20210923    3190333624042196419000012472400000232190000000000000                                                                 SUTURA ETHILON 2-0 SC-26 45CM  164TSIN     3
PA0000666346022A202100000027615000000027615025/10/20210923    3190333624042196419000043879100001138200000000000000                                                                  HOJA BISTURI # 15 CSSB 15 01002003SOB     2
PA0000666346022A202100000027615000000027615025/10/20210923    3190333624042196419000043879400001138170000000000000                                                                  HOJA BISTURI # 10 CSSB 10 01002000SOB     1
PA0000666346022A202100000027615000000027615025/10/20210923    31903336240421964190000R3CA0400000777470000000000000                                                               ADRENALINA HCL SLN INY 1 MG / ML RYANAMP     1
PA0000666346022A202100000027615000000027615025/10/20210923    31903336240421964190000J01G0100000858000000000000000                                                                       GARAMICINA SLN INY 80 MG/2 MLAMP     2
PA0000666346022A202100000027615000000027615025/10/20210923    3190333624042196419000011058900000856640000000000000                                                                PUNTA MANIPULADOR 6.7MM X 8CM UMB678SOB     1
PA0000666346022A202100000027615000000027615025/10/20210923    31903336240421964190000N1BA1900000554750000000000000                                                                     ROXICAINA JALEA 2% TUBO X 30 MLTUB     1
PA0000666346022A202100000027615000000027615025/10/20210923    3190333624042196419000038570000001123500000000000000                                                                              SONDA FOLEY #16 2 VIASSOB     1
PA0000666346022A202100000027615000000027615025/10/20210923    3190333624042196419000031188000000236790000000000000                                                                                     CISTOFLO ADULTOSIN     1
PA0000666346022A202100000027615000000027615025/10/20210923    31903336240421964190000N1BA0300000217900000000000000                                                                    BUPIROP 0.5% C/E Sln Iny x 20 mlVAL     1
PA0000666346022A202100000027615000000027615025/10/20210923    3190333624042196419000045138000001413890000000000000                                                                       LAPIZ ELECTROBISTURI  SOB X 1SOB     2
PA0000666346022A202100000027615000000027615025/10/20210923    3190333624042196419000000016500000223580000000000000                                                                    STERI-STRIP 12 X 100 REF 1547 3MSIN     1
PA0000666346022A202100000027615000000027615025/10/20210923    3190333624042196419000015994600000632480000000000000                                                                          MONOCRYL 4-0 PS-2 45 Y496GSIN     4
PA0000666346022A202100000027615000000027615025/10/20210923    3190333624042196419000043879200001138180000000000000                                                                                   HOJA BISTURI # 11SOB     1
PA0000666346022A202100000027615000000027615025/10/20210923    3190333624042196419000030161400001459220000000000000                                                                       MANGUERA SUCCION 6 MM*3.1 MTSSOB     1
PA0000666346022A202100000027615000000027615025/10/20210923    3190333624042196419000049059900000267420000000000000                                                                 MEDIA ANTIEMBOLICA TAL M 3416LF PARBOL     1
PA0000666346022A202100000027615000000027615025/10/20210923    31903336240421964190000J01DA300001239950000000000000                                                            CEFAZOLINA SODICA POLVO LIOF SLN INY 1 GVAL     2
PA0000666346022A202100000027615000000027615025/10/20210923    3190333624042196419000016830000000970620000000000000                                                             SIST FIJACION CAT PERIFERICO 6.5X7 1683SOB     1
PA0000666346022A202100000027615000000027615025/10/20210923    3190333624042196419000035356500003919000000000000000                                                                                        LLAVE 3 VIASSOB     1
PA0000666346022A202100000027615000000027615025/10/20210923    31903336240421964190000Q1AA7100000610620000000000000                                                            CATETER PERIFE INTROCAN # 18G 4251687-04SIN     1
PA0000666346022A202100000027615000000027615025/10/20210923    3190333624042196419000022425200000548240000000000000                       EXTENSION DE ANESTESIA REF 1139 SOB X 1 SHERLEG  ADULTO BN EXENTO-DC.417/2020SIN     1
