CC0001084733304A202100000027664100000027664102/11/20211149    31903336240421964190000C01CA200001573670000000000000                                                               ETILEFRINA HCL SLN INY 10 MG/1 ML /R/AMP     2
CC0001084733304A202100000027664100000027664102/11/20211149    31903336240421964190000N2AX0900001672040000000000000                                                                              TRAMADOL SLN INY 50 MGAMP     2
CC0001084733304A202100000027664100000027664102/11/20211149    31903336240421964190000Q1A15500001690750000000000000                                                            AGUJA ESPINAL WHITACRE 27*3 1/2  4502027SOB     1
CC0001084733304A202100000027664100000027664102/11/20211149    31903336240421964190000B02AA100001407470000000000000                                                                    CLINTRANEX SLN INY 500 MG / 5 MLAMP     2
CC0001084733304A202100000027664100000027664102/11/20211149    3190333624042196419000011021400000231930000000000000                                                                          CATGUT SIMPLE 2-0 CT1 843TSIN     1
CC0001084733304A202100000027664100000027664102/11/20211149    3190333624042196419000045138000001413890000000000000                                                                       LAPIZ ELECTROBISTURI  SOB X 1SOB     1
CC0001084733304A202100000027664100000027664102/11/20211149    3190333624042196419000086220000000232640000000000000                                                              PROLENE 3/0 KS RECTA 8622H CIERRE PIELSIN     1
CC0001084733304A202100000027664100000027664102/11/20211149    3190333624042196419000011016600000231820000000000000                                                               SUTURA CATGUT CROMADO 1 CT1 90CM 925TSIN     1
CC0001084733304A202100000027664100000027664102/11/20211149    3190333624042196419000011017400000231840000000000000                                                                         CATGUT CROMADO 2-0 CT1 923TSIN     1
CC0001084733304A202100000027664100000027664102/11/20211149    3190333624042196419000000509900004005370000000000000         SUTURA ABSORBIBLE GS-21 REF CL-925 CAJ X 36 POLYSORB 90CM - 1 VIOLETA BN EXENTO-DC.417/2020SIN     1
CC0001084733304A202100000027664100000027664102/11/20211149    3190333624042196419000043879500001138210000000000000                                                                                    HOJA BISTURI #20SOB     1
CC0001084733304A202100000027664100000027664102/11/20211149    3190333624042196419000020816000001096410000000000000                                                                          LINER PARED DELGADA 1500CCBOL     1
CC0001084733304A202100000027664100000027664102/11/20211149    31903336240421964190000B2BA0300000215330000000000000                                                              KONAKION MM PEDIAT SLN INY 2 MG/0.2 MLAMP     1
CC0001084733304A202100000027664100000027664102/11/20211149    3190333624042196419000030161400001459220000000000000                                                                       MANGUERA SUCCION 6 MM*3.1 MTSSOB     2
CC0001084733304A202100000027664100000027664102/11/20211149    3190333624042196419000043879400001138170000000000000                                                                  HOJA BISTURI # 10 CSSB 10 01002000SOB     1
CC0001084733304A202100000027664100000027664102/11/20211149    31903336240421964190000Q1AA1000000256790000000000000                                                                         SONDA ASPIRACION CONTROL #8SIN     1
CC0001084733304A202100000027664100000027664102/11/20211149    3190333624042196419000072970000001147030000000000000                                                                                     CLAMP UMBILICALPZA     1
CC0001084733304A202100000027664100000027664102/11/20211149    3190333624042196419000013077800000471960000000000000                                                             GASA NO TEJIDA EST 7.5 X 7.5 SOB X 3 UNSOB     1
CC0001084733304A202100000027664100000027664102/11/20211149    3190333624042196419000038569900001124970000000000000                                                                              SONDA FOLEY #14 2 VIASSOB     1
CC0001084733304A202100000027664100000027664102/11/20211149    3190333624042196419000031188000000236790000000000000                                                                                     CISTOFLO ADULTOSIN     1
CC0001084733304A202100000027664100000027664102/11/20211149    3190333624042196419000020750600000296780000000000000                                                                PLACA ELECTRO RETORNO PACIENTE E7506SIN     1
CC0001084733304A202100000027664100000027664102/11/20211149    3190333624042196419000011047900000223010000000000000                                                                            JERINGA X 1ML REF 302579SIN     2
CC0001084733304A202100000027664100000027664102/11/20211149    3190333624042196419000024673000001411210000000000000                                                                  JERINGA DESECHABLE 3 ML 21 X 1 1/2SOB     2
CC0001084733304A202100000027664100000027664102/11/20211149    3190333624042196419000024673600000222980000000000000                                                                     JERINGA DESECHABLE 5 ml 27*11/2SIN     5
CC0001084733304A202100000027664100000027664102/11/20211149    3190333624042196419000024674000000220660000000000000                             JERINGA A 3 PARTES CON AGUJA  SOB X 1 RYMCO  10ML BN EXENTO-DC.417/2020SIN     6
CC0001084733304A202100000027664100000027664102/11/20211149    3190333624042196419000024674500000322810000000000000                                                                   JERINGA DESECHABLE 20 ml 21*1 1/2SIN     2
CC0001084733304A202100000027664100000027664102/11/20211149    3190333624042196419000053074400000607910000000000000                                                               GASA ESTERIL 10*10 SOBRE X 3 UNIDADESSOB     4
CC0001084733304A202100000027664100000027664102/11/20211149    3190333624042196419000011085400001083360000000000000                                                                       GUANTE QUIRURGICO TALLA 8 1/2SOB     1
CC0001084733304A202100000027664100000027664102/11/20211149    3190333624042196419000011085300001082140000000000000                                                                           GUANTE QUIRURGICO TALLA 8SOB     2
CC0001084733304A202100000027664100000027664102/11/20211149    3190333624042196419000011085100001082120000000000000                                                                           GUANTE QUIRURGICO TALLA 7SOB     7
CC0001084733304A202100000027664100000027664102/11/20211149    3190333624042196419000043485100001618510000000000000                GUANTE QUIRURGICO DE LATEX REF 2D72N65X CAJ X 50 PROTEXIS  6.5 BN EXENTO-DC.417/2020SOB     2
CC0001084733304A202100000027664100000027664102/11/20211149    3190333624042196419000038568100000258050000000000000                                                                         CANULA OXIGENO NASAL ADULTOSIN     1
CC0001084733304A202100000027664100000027664102/11/20211149    31903336240421964190000N1BA1900000554750000000000000                                                                     ROXICAINA JALEA 2% TUBO X 30 MLTUB     1
CC0001084733304A202100000027664100000027664102/11/20211149    3190333624042196419000011073300001096420000000000000                                                                BOLSA DE SUCCION DE FLUIDOS x 2500mLBOL     1
CC0001084733304A202100000027664100000027664102/11/20211149    31903336240421964190000E1AD0200003888320000000000000                                                                              HARTMAN SLN INY 500 MLBOL     2
CC0001084733304A202100000027664100000027664102/11/20211149    31903336240421964190000E1AB0300003888390000000000000                                                            SOLUCION SALINA 0.9% SLN INY BO X 500 MLBOL     5
CC0001084733304A202100000027664100000027664102/11/20211149    31903336240421964190000N1BA0500000647360000000000000                                                                  BUPIROP 0.5% PESADO SLN INY X 4 MLAPC     1
CC0001084733304A202100000027664100000027664102/11/20211149    31903336240421964190000N1BA2400001195280000000000000                                                                    LIDOCAINA 2% S/E Sln Iny x 10 mlAMP     1
CC0001084733304A202100000027664100000027664102/11/20211149    31903336240421964190000A03F0300001626860000000000000                                                                   METOCLOPRAMIDA SLN INY 10 MG/2 MLAMP     1
CC0001084733304A202100000027664100000027664102/11/20211149    31903336240421964190000M01A2000001664970000000000000                                                               DICLOFENACO SODICO SLN INY 75 MG/3 MLAMP     1
CC0001084733304A202100000027664100000027664102/11/20211149    31903336240421964190000H02A0100001664960000000000000                                                                        DEXAMETASONA SLN INY 4 MG/MLAMP     2
CC0001084733304A202100000027664100000027664102/11/20211149    31903336240421964190000N02BB100000777810000000000000                                                               DIPIRONA MAGNESICA SLN INY 2.5 G/5 MLAMP     1
CC0001084733304A202100000027664100000027664102/11/20211149    31903336240421964190000H1BB0200003888510000000000000                                                                         OXITOCINA SLN INY 10 UI /MLAMP     5
