CC0000032836379A202100000027644600000027644629/10/20210713    3190333624042196419000000504900001148610000000000000                                                            SUTURA V-LOC 180 GS21 37MM REF VLOCL0316PZA     1
CC0000032836379A202100000027644600000027644629/10/20210713    3190333624042196419000011082700001620070000000000000                                                               EQUIPO SET PRIMARIO C/CLAVE REF 14001BOL     2
CC0000032836379A202100000027644600000027644629/10/20210713    31903336240421964190000N01B0800001046180000000000000                                                                  BUPINEST PESADO 0.75% SLN INY 4 MLAPC     1
CC0000032836379A202100000027644600000027644629/10/20210713    31903336240421964190000N2AA0700001587170000000000000                                                                                 ULTIVA Sln Iny 2 mgVAL     1
CC0000032836379A202100000027644600000027644629/10/20210713    31903336240421964190000B02AA100001407470000000000000                                                                    CLINTRANEX SLN INY 500 MG / 5 MLAMP     2
CC0000032836379A202100000027644600000027644629/10/20210713    31903336240421964190000N1BA0500000647360000000000000                                                                  BUPIROP 0.5% PESADO SLN INY X 4 MLAPC     1
CC0000032836379A202100000027644600000027644629/10/20210713    3190333624042196419000020060000000225230000000000000                                                               AGUJA SPINOCAN 27G X 3 1/2 PU 4503902SIN     1
CC0000032836379A202100000027644600000027644629/10/20210713    31903336240421964190000H01B0100001390610000000000000                                                                   VASOPRESINA SLN INY 20 UI/ ML /R/VAL     1
CC0000032836379A202100000027644600000027644629/10/20210713    3190333624042196419000011078200001605710000000000000                                                                 CONECTOR FIBROBRONCOSCOPIO 9591 40CSOB     1
CC0000032836379A202100000027644600000027644629/10/20210713    3190333624042196419000011058900000856640000000000000                                                                PUNTA MANIPULADOR 6.7MM X 8CM UMB678SOB     1
CC0000032836379A202100000027644600000027644629/10/20210713    31903336240421964190000N1BA0300000217900000000000000                                                                    BUPIROP 0.5% C/E Sln Iny x 20 mlVAL     1
CC0000032836379A202100000027644600000027644629/10/20210713    3190333624042196419000045138000001413890000000000000                                                                       LAPIZ ELECTROBISTURI  SOB X 1SOB     1
CC0000032836379A202100000027644600000027644629/10/20210713    3190333624042196419000013077800000471960000000000000                                                             GASA NO TEJIDA EST 7.5 X 7.5 SOB X 3 UNSOB     1
CC0000032836379A202100000027644600000027644629/10/20210713    3190333624042196419000031188000000236790000000000000                                                                                     CISTOFLO ADULTOSIN     1
CC0000032836379A202100000027644600000027644629/10/20210713    3190333624042196419000038570000001123500000000000000                                                                              SONDA FOLEY #16 2 VIASSOB     1
CC0000032836379A202100000027644600000027644629/10/20210713    3190333624042196419000011082600000265810000000000000                                                              EQUIPO IRRIGACION URINARIA REF MRC4002SOB     1
CC0000032836379A202100000027644600000027644629/10/20210713    3190333624042196419000000501000004008660000000000000  SUTURA ABSORB TRENZADA GU-46 REF UL-878 CAJ X 36 POLYSORB 75CM - 2-0 VIOLETA BN EXENTO-DC.417/2020SIN     1
CC0000032836379A202100000027644600000027644629/10/20210713    3190333624042196419000043879200001138180000000000000                                                                                   HOJA BISTURI # 11SOB     1
CC0000032836379A202100000027644600000027644629/10/20210713    3190333624042196419000000501300000223570000000000000                                                                     STERI-STRIP 6 X 100 REF 1546 3MSIN     1
CC0000032836379A202100000027644600000027644629/10/20210713    3190333624042196419000015994600000632480000000000000                                                                          MONOCRYL 4-0 PS-2 45 Y496GSIN     2
CC0000032836379A202100000027644600000027644629/10/20210713    3190333624042196419000030161400001459220000000000000                                                                       MANGUERA SUCCION 6 MM*3.1 MTSSOB     1
CC0000032836379A202100000027644600000027644629/10/20210713    31903336240421964190000E1AB0300003888390000000000000                                                            SOLUCION SALINA 0.9% SLN INY BO X 500 MLBOL     1
CC0000032836379A202100000027644600000027644629/10/20210713    3190333624042196419000022425200000548240000000000000                       EXTENSION DE ANESTESIA REF 1139 SOB X 1 SHERLEG  ADULTO BN EXENTO-DC.417/2020SIN     1
CC0000032836379A202100000027644600000027644629/10/20210713    3190333624042196419000035356500003919000000000000000                                                                                        LLAVE 3 VIASSOB     2
CC0000032836379A202100000027644600000027644629/10/20210713    31903336240421964190000Q1AA7100000610620000000000000                                                            CATETER PERIFE INTROCAN # 18G 4251687-04SIN     1
CC0000032836379A202100000027644600000027644629/10/20210713    3190333624042196419000022426800001140510000000000000                                                                    EQUIPO MACROGOTEO BAXTER MRC0001SOB     1
CC0000032836379A202100000027644600000027644629/10/20210713    3190333624042196419000016830000000970620000000000000                                                             SIST FIJACION CAT PERIFERICO 6.5X7 1683SOB     1
CC0000032836379A202100000027644600000027644629/10/20210713    31903336240421964190000J01DA300001239950000000000000                                                            CEFAZOLINA SODICA POLVO LIOF SLN INY 1 GVAL     2
CC0000032836379A202100000027644600000027644629/10/20210713    3190333624042196419000011073300001096420000000000000                                                                BOLSA DE SUCCION DE FLUIDOS x 2500mLBOL     1
CC0000032836379A202100000027644600000027644629/10/20210713    3190333624042196419000020750600000296780000000000000                                                                PLACA ELECTRO RETORNO PACIENTE E7506SIN     1
CC0000032836379A202100000027644600000027644629/10/20210713    3190333624042196419000053074400000607910000000000000                                                               GASA ESTERIL 10*10 SOBRE X 3 UNIDADESSOB     3
CC0000032836379A202100000027644600000027644629/10/20210713    3190333624042196419000011085200001585390000000000000                                                                       GUANTE QUIRURGICO TALLA 7 1/2SOB     4
CC0000032836379A202100000027644600000027644629/10/20210713    3190333624042196419000011085100001082120000000000000                                                                           GUANTE QUIRURGICO TALLA 7SOB     2
CC0000032836379A202100000027644600000027644629/10/20210713    3190333624042196419000043485100001618510000000000000                GUANTE QUIRURGICO DE LATEX REF 2D72N65X CAJ X 50 PROTEXIS  6.5 BN EXENTO-DC.417/2020SOB     7
CC0000032836379A202100000027644600000027644629/10/20210713    3190333624042196419000038568100000258050000000000000                                                                         CANULA OXIGENO NASAL ADULTOSIN     1
CC0000032836379A202100000027644600000027644629/10/20210713    3190333624042196419000011099300000777780000000000000                                                                     FILTRO BACTERIANO VIRICO ADULTOBOL     2
CC0000032836379A202100000027644600000027644629/10/20210713    3190333624042196419000039175000001072050000000000000                                                                           TUBO ENDOTRAQUEAL C/B 7.0SOB     1
CC0000032836379A202100000027644600000027644629/10/20210713    3190333624042196419000024673000001411210000000000000                                                                  JERINGA DESECHABLE 3 ML 21 X 1 1/2SOB     1
CC0000032836379A202100000027644600000027644629/10/20210713    3190333624042196419000024673600000222980000000000000                                                                     JERINGA DESECHABLE 5 ml 27*11/2SIN     3
CC0000032836379A202100000027644600000027644629/10/20210713    3190333624042196419000024674000000220660000000000000                             JERINGA A 3 PARTES CON AGUJA  SOB X 1 RYMCO  10ML BN EXENTO-DC.417/2020SIN     3
CC0000032836379A202100000027644600000027644629/10/20210713    3190333624042196419000024674500000322810000000000000                                                                   JERINGA DESECHABLE 20 ml 21*1 1/2SIN     4
CC0000032836379A202100000027644600000027644629/10/20210713    31903336240421964190000E1AD0200003888320000000000000                                                                              HARTMAN SLN INY 500 MLBOL     3
CC0000032836379A202100000027644600000027644629/10/20210713    31903336240421964190000E1AB0500003888400000000000000                                                              SOLUCION SALINA 0.9% SLN INY X 1000 MLBOL     3
CC0000032836379A202100000027644600000027644629/10/20210713    31903336240421964190000E1AB0700003888350000000000000                                                            SOLUCION SALINA 0.9% SLN INY BO X 250 MLBOL     1
CC0000032836379A202100000027644600000027644629/10/20210713    31903336240421964190000E1AB0200000199290000000000000                                                            SOLUCION SALINA 0.9% SLN INY BO X 100 MLBIN     2
CC0000032836379A202100000027644600000027644629/10/20210713    31903336240421964190000N02B1100001169680000000000000                              PARACETAMOL 1000MG/100ML(10MG/ML) SOL INY  VIAL X 100ML FRESENIUS KABIVAL     1
CC0000032836379A202100000027644600000027644629/10/20210713    31903336240421964190000M01A0400001341250000000000000                                                                              DYNASTAT AMP 40 MG /R/VAL     1
CC0000032836379A202100000027644600000027644629/10/20210713    31903336240421964190000A4AD0200000202990000000000000                                                                     PLITICAN HCL Sln Iny 50 mg/2 mlAMP     1
CC0000032836379A202100000027644600000027644629/10/20210713    31903336240421964190000H02AB500001664950000000000000                                                            DEXAMETASONA SLN INY 8 MG/2 ML AMP /CDS/AMP     1
CC0000032836379A202100000027644600000027644629/10/20210713    31903336240421964190000N01B0600003888900000000000000                                                    BUPINEST 75MG/10ML(0.75%) SOL INY CAJ X 24AMPACKAPC     2
CC0000032836379A202100000027644600000027644629/10/20210713    31903336240421964190000M3AC0600000720540000000000000                                                                         ESMERON SLN INY 50 MG /5 MLVAL     1
CC0000032836379A202100000027644600000027644629/10/20210713    31903336240421964190000N2AA0100000301640000000000000                                                                            MORFINA Sln Iny 10 mg/mlAMP     1
CC0000032836379A202100000027644600000027644629/10/20210713    31903336240421964190000N5CD0300000218170000000000000                                                              DORMICUM IV-IM 5MG/5ML(1MG/ML) SOL INYAMP     1
