PE919467028021990U202100050131168200050131168211/10/20210029    3190100523942196432000030936900001431840000000000000                                                                                              BURETABOL     1
PE919467028021990U202100050131168200050131168211/10/20210029    3190100523942196432000024674000000220660000000000000                             JERINGA A 3 PARTES CON AGUJA  SOB X 1 RYMCO  10ML BN EXENTO-DC.417/2020SIN     1
PE919467028021990U202100050131168200050131168211/10/20210029    3190100523942196432000016830000000970620000000000000                                                             SIST FIJACION CAT PERIFERICO 6.5X7 1683SOB     1
PE919467028021990U202100050131168200050131168211/10/20210029    31901005239421964320000Q1AA7200000610630000000000000                                                            CATETER PERIFE INTROCAN # 20G 4251644-04SIN     1
PE919467028021990U202100050131168200050131168211/10/20210029    3190100523942196432000022426800001140510000000000000                                                                    EQUIPO MACROGOTEO BAXTER MRC0001SOB     1
PE919467028021990U202100050131168200050131168211/10/20210029    3190100523942196432000011082700001620070000000000000                                                               EQUIPO SET PRIMARIO C/CLAVE REF 14001BOL     1
PE919467028021990U202100050131168200050131168211/10/20210029    31901005239421964320000E1AB0500003888400000000000000                                                              SOLUCION SALINA 0.9% SLN INY X 1000 MLBOL     1
