CC0000032657679A202100000027597600000027597620/10/20210810    31903336240421964190000E1AB0300003888390000000000000                                                            SOLUCION SALINA 0.9% SLN INY BO X 500 MLBOL     1
CC0000032657679A202100000027597600000027597620/10/20210810    31903336240421964190000N5CD0300000218170000000000000                                                              DORMICUM IV-IM 5MG/5ML(1MG/ML) SOL INYAMP     1
CC0000032657679A202100000027597600000027597620/10/20210810    3190333624042196419000045138000001413890000000000000                                                                       LAPIZ ELECTROBISTURI  SOB X 1SOB     1
CC0000032657679A202100000027597600000027597620/10/20210810    3190333624042196419000049428300000860750000000000000                                                                       VENDA ELASTICA 4*5 NO ESTERILBOL     1
CC0000032657679A202100000027597600000027597620/10/20210810    3190333624042196419000042753100003929850000000000000                   GASA ADHESIVA STRETCH REF 02037-00 ROL X 10MT FIXOMULL 10CM BN EXENTO-DC.417/2020CMT   100
CC0000032657679A202100000027597600000027597620/10/20210810    3190333624042196419000017280100004015080000000000000 SUTURA MONOFIL ABSORBIBLE SH REF PDP316H CAJ X 36 PDS PLUS 70CM - 3-0 VIOLETA BN EXENTO-DC.417/2020SOB     1
CC0000032657679A202100000027597600000027597620/10/20210810    3190333624042196419000015994600000632480000000000000                                                                          MONOCRYL 4-0 PS-2 45 Y496GSIN     2
CC0000032657679A202100000027597600000027597620/10/20210810    3190333624042196419000015944000000632490000000000000                                                                           MONOCRYL 3-0 PS2  MCP427HSIN     1
CC0000032657679A202100000027597600000027597620/10/20210810    3190333624042196419000017566600000232710000000000000                                                                       PROLENE 5-0 PS-2 45 CM P8686TSIN     3
CC0000032657679A202100000027597600000027597620/10/20210810    3190333624042196419000017566200001585160000000000000                                                                  PROLENE 4-0 AZ 45 PS2 PRIME P8682TSOB     3
CC0000032657679A202100000027597600000027597620/10/20210810    3190333624042196419000018351100000232850000000000000                                                                                 SEDA 2-0 SC-26 185TSIN     2
CC0000032657679A202100000027597600000027597620/10/20210810    3190333624042196419000043879100001138200000000000000                                                                  HOJA BISTURI # 15 CSSB 15 01002003SOB     3
CC0000032657679A202100000027597600000027597620/10/20210810    3190333624042196419000000101000001101640000000000000                                                                  AGUJA DESECHABLE  23G X 1 1/2 PULGSOB     2
CC0000032657679A202100000027597600000027597620/10/20210810    3190333624042196419000030161400001459220000000000000                                                                       MANGUERA SUCCION 6 MM*3.1 MTSSOB     1
CC0000032657679A202100000027597600000027597620/10/20210810    31903336240421964190000E1AD0300000199490000000000000                                         LACTATO RINGER USP (HARTMANN)  SOL INY  BOL X 1000ML BAXTERBIN     1
CC0000032657679A202100000027597600000027597620/10/20210810    31903336240421964190000N01B1200000220020000000000000                                                                        ROXICAINA 1% C/E Iny x 20 mlFCO     2
CC0000032657679A202100000027597600000027597620/10/20210810    31903336240421964190000R3CA0400000777470000000000000                                                               ADRENALINA HCL SLN INY 1 MG / ML RYANAMP     1
CC0000032657679A202100000027597600000027597620/10/20210810    31903336240421964190000J01DA300001239950000000000000                                                            CEFAZOLINA SODICA POLVO LIOF SLN INY 1 GVAL     2
CC0000032657679A202100000027597600000027597620/10/20210810    3190333624042196419000016830000000970620000000000000                                                             SIST FIJACION CAT PERIFERICO 6.5X7 1683SOB     1
CC0000032657679A202100000027597600000027597620/10/20210810    31903336240421964190000Q1AA7100000610620000000000000                                                            CATETER PERIFE INTROCAN # 18G 4251687-04SIN     1
CC0000032657679A202100000027597600000027597620/10/20210810    3190333624042196419000035356500003919000000000000000                                                                                        LLAVE 3 VIASSOB     2
CC0000032657679A202100000027597600000027597620/10/20210810    3190333624042196419000022425200000548240000000000000                       EXTENSION DE ANESTESIA REF 1139 SOB X 1 SHERLEG  ADULTO BN EXENTO-DC.417/2020SIN     1
CC0000032657679A202100000027597600000027597620/10/20210810    3190333624042196419000022426800001140510000000000000                                                                    EQUIPO MACROGOTEO BAXTER MRC0001SOB     2
CC0000032657679A202100000027597600000027597620/10/20210810    3190333624042196419000020750600000296780000000000000                                                                PLACA ELECTRO RETORNO PACIENTE E7506SIN     1
CC0000032657679A202100000027597600000027597620/10/20210810    3190333624042196419000011082700001620070000000000000                                                               EQUIPO SET PRIMARIO C/CLAVE REF 14001BOL     2
CC0000032657679A202100000027597600000027597620/10/20210810    3190333624042196419000024674500000322810000000000000                                                                   JERINGA DESECHABLE 20 ml 21*1 1/2SIN     1
CC0000032657679A202100000027597600000027597620/10/20210810    3190333624042196419000024674000000220660000000000000                             JERINGA A 3 PARTES CON AGUJA  SOB X 1 RYMCO  10ML BN EXENTO-DC.417/2020SIN     8
CC0000032657679A202100000027597600000027597620/10/20210810    3190333624042196419000024673000001411210000000000000                                                                  JERINGA DESECHABLE 3 ML 21 X 1 1/2SOB     4
CC0000032657679A202100000027597600000027597620/10/20210810    3190333624042196419000038569400000256750000000000000                                                                        SONDA ASPIRACION CONTROL #14SIN     2
CC0000032657679A202100000027597600000027597620/10/20210810    3190333624042196419000011073300001096420000000000000                                                                BOLSA DE SUCCION DE FLUIDOS x 2500mLBOL     1
CC0000032657679A202100000027597600000027597620/10/20210810    3190333624042196419000053074400000607910000000000000                                                               GASA ESTERIL 10*10 SOBRE X 3 UNIDADESSOB     4
CC0000032657679A202100000027597600000027597620/10/20210810    3190333624042196419000029988800000516620000000000000                                                             TUBO ENDOTRAQ 6.5 C/B Y ESPIRAL INTERNASIN     1
CC0000032657679A202100000027597600000027597620/10/20210810    3190333624042196419000051515500000598160000000000000                                                                            MASCARILLA ANESTESIA # 5SIN     1
CC0000032657679A202100000027597600000027597620/10/20210810    3190333624042196419000038568100000258050000000000000                                                                         CANULA OXIGENO NASAL ADULTOSIN     1
CC0000032657679A202100000027597600000027597620/10/20210810    3190333624042196419000031010900000762730000000000000                                                                          CANULA GUEDEL # 4 (100 MM)SOB     1
CC0000032657679A202100000027597600000027597620/10/20210810    3190333624042196419000011099300000777780000000000000                                                                     FILTRO BACTERIANO VIRICO ADULTOBOL     1
CC0000032657679A202100000027597600000027597620/10/20210810    3190333624042196419000011085100001082120000000000000                                                                           GUANTE QUIRURGICO TALLA 7SOB     1
CC0000032657679A202100000027597600000027597620/10/20210810    3190333624042196419000043485100001618510000000000000                GUANTE QUIRURGICO DE LATEX REF 2D72N65X CAJ X 50 PROTEXIS  6.5 BN EXENTO-DC.417/2020SOB     8
CC0000032657679A202100000027597600000027597620/10/20210810    31903336240421964190000E1AD0200003888320000000000000                                                                              HARTMAN SLN INY 500 MLBOL     2
CC0000032657679A202100000027597600000027597620/10/20210810    31903336240421964190000E1AB0700003888350000000000000                                                            SOLUCION SALINA 0.9% SLN INY BO X 250 MLBOL     1
CC0000032657679A202100000027597600000027597620/10/20210810    31903336240421964190000E1AB0200000199290000000000000                                                            SOLUCION SALINA 0.9% SLN INY BO X 100 MLBIN     1
CC0000032657679A202100000027597600000027597620/10/20210810    31903336240421964190000N02B1100001169680000000000000                              PARACETAMOL 1000MG/100ML(10MG/ML) SOL INY  VIAL X 100ML FRESENIUS KABIVAL     1
CC0000032657679A202100000027597600000027597620/10/20210810    31903336240421964190000N2BB1100000217160000000000000                                                                      NOVALGINA Sln Iny 2.5 g x 5 mlAMP     1
CC0000032657679A202100000027597600000027597620/10/20210810    31903336240421964190000M1AX0200001569410000000000000                                                                         KETRON SLN INY 30 MG / 2 MLAMP     1
CC0000032657679A202100000027597600000027597620/10/20210810    31903336240421964190000C01C0300001261020000000000000                                                               ETILEFRINA HCL SLN INY 10 MG/1 ML /R/AMP     2
CC0000032657679A202100000027597600000027597620/10/20210810    31903336240421964190000H02AB500001664950000000000000                                                            DEXAMETASONA SLN INY 8 MG/2 ML AMP /CDS/AMP     1
CC0000032657679A202100000027597600000027597620/10/20210810    31903336240421964190000A2BC0900000200150000000000000                                                                               ORAZOLE Sln Iny 40 mgCIN     1
CC0000032657679A202100000027597600000027597620/10/20210810    31903336240421964190000A04A1400001467560000000000000                                                                      ONDANSETRON SLN INY 8 MG/ 4 MLVAL     1
CC0000032657679A202100000027597600000027597620/10/20210810    31903336240421964190000N01A0400003939010000000000000                                               MAYOPROFOL 200MG/20ML(1%) EMUL INY CAJ X 1VIAL X 20MLVAL     1
CC0000032657679A202100000027597600000027597620/10/20210810    31903336240421964190000M3AC0600000720540000000000000                                                                         ESMERON SLN INY 50 MG /5 MLVAL     1
CC0000032657679A202100000027597600000027597620/10/20210810    31903336240421964190000N2AA0700001587170000000000000                                                                                 ULTIVA Sln Iny 2 mgVAL     1
CC0000032657679A202100000027597600000027597620/10/20210810    31903336240421964190000N1AH0200003906560000000000000                                                                     FENTANIL Iny 0.05 mg/ml x 10 mlAMP     1
CC0000032657679A202100000027597600000027597620/10/20210810    31903336240421964190000C7AB1000001382030000000000000                                                                   NOREPINEFRINA SLN INY 4 MG / 4 MLAMP     1
CC0000032657679A202100000027597600000027597620/10/20210810    31903336240421964190000N1BA1900000554750000000000000                                                                     ROXICAINA JALEA 2% TUBO X 30 MLTUB     1
CC0000032657679A202100000027597600000027597620/10/20210810    3190333624042196419000038570000001123500000000000000                                                                              SONDA FOLEY #16 2 VIASSOB     1
CC0000032657679A202100000027597600000027597620/10/20210810    3190333624042196419000031188000000236790000000000000                                                                                     CISTOFLO ADULTOSIN     1
CC0000032657679A202100000027597600000027597620/10/20210810    31903336240421964190000N2AA0200000301600000000000000                                                                        HIDROMORFONA Sln Iny 2 mg/mlAMP     1
CC0000032657679A202100000027597600000027597620/10/20210810    3190333624042196419000081840000000333950000000000000                                                                  PROLENE 3-0 BLUE SC24  45 CM  8184SIN     1
CC0000032657679A202100000027597600000027597620/10/20210810    31903336240421964190000N01B0200003888110000000000000                                           ROXICAINA SE 100MG/10ML(1%) SOL INY CAJ X 24AMPACK X 10MLAPC     1
