CC0001051362987A202100000027657400000027657403/11/20210859    31903336240421964190000C01C0300001261020000000000000                                                               ETILEFRINA HCL SLN INY 10 MG/1 ML /R/AMP     1
CC0001051362987A202100000027657400000027657403/11/20210859    31903336240421964190000N01A0400003939010000000000000                                               MAYOPROFOL 200MG/20ML(1%) EMUL INY CAJ X 1VIAL X 20MLVAL     1
CC0001051362987A202100000027657400000027657403/11/20210859    3190333624042196419000000600800000258580000000000000                                                              APOSITO BACTIGRAS REF 7461 15CM X 20CMSIN     1
CC0001051362987A202100000027657400000027657403/11/20210859    3190333624042196419000049430000001189880000000000000                                                                            IDENTI LOOP MINI 1001-81PAQ     1
CC0001051362987A202100000027657400000027657403/11/20210859    3190333624042196419000010500700001414140000000000000                                                              CINTA VASOS MINI  1001-76 SCANLAN ROJOPZA     1
CC0001051362987A202100000027657400000027657403/11/20210859    3190333624042196419000012475000000265920000000000000                                                                           ETHILON 8-0 BV130-5 W2808SIN     1
CC0001051362987A202100000027657400000027657403/11/20210859    3190333624042196419000043879100001138200000000000000                                                                  HOJA BISTURI # 15 CSSB 15 01002003SOB     4
CC0001051362987A202100000027657400000027657403/11/20210859    3190333624042196419000053074400000607910000000000000                                                               GASA ESTERIL 10*10 SOBRE X 3 UNIDADESSOB     2
CC0001051362987A202100000027657400000027657403/11/20210859    3190333624042196419000018665600003929790000000000000                                                STOQUINETA ORTOPEDICA TUBULAR ROL X 25MT WINER 3PULGCMT     1
CC0001051362987A202100000027657400000027657403/11/20210859    3190333624042196419000049428300000860750000000000000                                                                       VENDA ELASTICA 4*5 NO ESTERILBOL     1
CC0001051362987A202100000027657400000027657403/11/20210859    3190333624042196419000049419600001679900000000000000                                                                        VENDA ALGODON 4*5 NO ESTERILSOB     1
CC0001051362987A202100000027657400000027657403/11/20210859    3190333624042196419000000503900000296270000000000000                                                                  SUTURA POLYSORB 3-0 75CM V20 GL122SIN     1
CC0001051362987A202100000027657400000027657403/11/20210859    3190333624042196419000043879400001138170000000000000                                                                  HOJA BISTURI # 10 CSSB 10 01002000SOB     1
CC0001051362987A202100000027657400000027657403/11/20210859    3190333624042196419000022425200000548240000000000000                       EXTENSION DE ANESTESIA REF 1139 SOB X 1 SHERLEG  ADULTO BN EXENTO-DC.417/2020SIN     1
CC0001051362987A202100000027657400000027657403/11/20210859    3190333624042196419000035356500003919000000000000000                                                                                        LLAVE 3 VIASSOB     2
CC0001051362987A202100000027657400000027657403/11/20210859    3190333624042196419000022426800001140510000000000000                                                                    EQUIPO MACROGOTEO BAXTER MRC0001SOB     1
CC0001051362987A202100000027657400000027657403/11/20210859    31903336240421964190000J01DA300001239950000000000000                                                            CEFAZOLINA SODICA POLVO LIOF SLN INY 1 GVAL     2
CC0001051362987A202100000027657400000027657403/11/20210859    3190333624042196419000011073300001096420000000000000                                                                BOLSA DE SUCCION DE FLUIDOS x 2500mLBOL     1
CC0001051362987A202100000027657400000027657403/11/20210859    3190333624042196419000020750600000296780000000000000                                                                PLACA ELECTRO RETORNO PACIENTE E7506SIN     1
CC0001051362987A202100000027657400000027657403/11/20210859    3190333624042196419000024673000001411210000000000000                                                                  JERINGA DESECHABLE 3 ML 21 X 1 1/2SOB     1
CC0001051362987A202100000027657400000027657403/11/20210859    3190333624042196419000024673600000222980000000000000                                                                     JERINGA DESECHABLE 5 ml 27*11/2SIN     1
CC0001051362987A202100000027657400000027657403/11/20210859    3190333624042196419000024674000000220660000000000000                             JERINGA A 3 PARTES CON AGUJA  SOB X 1 RYMCO  10ML BN EXENTO-DC.417/2020SIN     5
CC0001051362987A202100000027657400000027657403/11/20210859    3190333624042196419000024674500000322810000000000000                                                                   JERINGA DESECHABLE 20 ml 21*1 1/2SIN     1
CC0001051362987A202100000027657400000027657403/11/20210859    3190333624042196419000051515500000598160000000000000                                                                            MASCARILLA ANESTESIA # 5SIN     1
CC0001051362987A202100000027657400000027657403/11/20210859    3190333624042196419000038568100000258050000000000000                                                                         CANULA OXIGENO NASAL ADULTOSIN     1
CC0001051362987A202100000027657400000027657403/11/20210859    3190333624042196419000011085400001083360000000000000                                                                       GUANTE QUIRURGICO TALLA 8 1/2SOB     4
CC0001051362987A202100000027657400000027657403/11/20210859    3190333624042196419000011085300001082140000000000000                                                                           GUANTE QUIRURGICO TALLA 8SOB     7
CC0001051362987A202100000027657400000027657403/11/20210859    3190333624042196419000011085200001585390000000000000                                                                       GUANTE QUIRURGICO TALLA 7 1/2SOB     2
CC0001051362987A202100000027657400000027657403/11/20210859    3190333624042196419000011085100001082120000000000000                                                                           GUANTE QUIRURGICO TALLA 7SOB     4
CC0001051362987A202100000027657400000027657403/11/20210859    3190333624042196419000043485100001618510000000000000                GUANTE QUIRURGICO DE LATEX REF 2D72N65X CAJ X 50 PROTEXIS  6.5 BN EXENTO-DC.417/2020SOB     5
CC0001051362987A202100000027657400000027657403/11/20210859    3190333624042196419000020056600001101530000000000000                                                                AGUJA HIPODERMICA DESECH 18G X 1 1/2SOB     2
CC0001051362987A202100000027657400000027657403/11/20210859    3190333624042196419000011099300000777780000000000000                                                                     FILTRO BACTERIANO VIRICO ADULTOBOL     1
CC0001051362987A202100000027657400000027657403/11/20210859    3190333624042196419000001200400000530690000000000000                                                                          CANULA DE MAYO # 5 (100MM)SIN     1
CC0001051362987A202100000027657400000027657403/11/20210859    31903336240421964190000E1AD0200003888320000000000000                                                                              HARTMAN SLN INY 500 MLBOL     3
CC0001051362987A202100000027657400000027657403/11/20210859    31903336240421964190000E1AB0500003888400000000000000                                                              SOLUCION SALINA 0.9% SLN INY X 1000 MLBOL     1
CC0001051362987A202100000027657400000027657403/11/20210859    31903336240421964190000E1AB0300003888390000000000000                                                            SOLUCION SALINA 0.9% SLN INY BO X 500 MLBOL     4
CC0001051362987A202100000027657400000027657403/11/20210859    31903336240421964190000E1AB0700003888350000000000000                                                            SOLUCION SALINA 0.9% SLN INY BO X 250 MLBOL     1
CC0001051362987A202100000027657400000027657403/11/20210859    31903336240421964190000E1AB0200000199290000000000000                                                            SOLUCION SALINA 0.9% SLN INY BO X 100 MLBIN     1
CC0001051362987A202100000027657400000027657403/11/20210859    31903336240421964190000N01B0600003888900000000000000                                                    BUPINEST 75MG/10ML(0.75%) SOL INY CAJ X 24AMPACKAPC     2
CC0001051362987A202100000027657400000027657403/11/20210859    31903336240421964190000A2BC0900000200150000000000000                                                                               ORAZOLE Sln Iny 40 mgCIN     1
CC0001051362987A202100000027657400000027657403/11/20210859    31903336240421964190000A03F0300001626860000000000000                                                                   METOCLOPRAMIDA SLN INY 10 MG/2 MLAMP     1
CC0001051362987A202100000027657400000027657403/11/20210859    31903336240421964190000H02A0100001664960000000000000                                                                        DEXAMETASONA SLN INY 4 MG/MLAMP     2
CC0001051362987A202100000027657400000027657403/11/20210859    31903336240421964190000B1AB0100001227270000000000000                                             HEPAMAX 25000UI/5ML(5000UI/ML) SOL INY  CAJ X 25AMPX5MLAMP     1
CC0001051362987A202100000027657400000027657403/11/20210859    3190333624042196419000042743200003929860000000000000                   GASA ADHESIVA STRETCH REF 02038-00 ROL X 10MT FIXOMULL 15CM BN EXENTO-DC.417/2020CMT    95
CC0001051362987A202100000027657400000027657403/11/20210859    31903336240421964190000N1BA1400000220050000000000000                                                                 ROXICAINA 2% C/EPIN Sln Iny x 50 mlFCO     1
CC0001051362987A202100000027657400000027657403/11/20210859    3190333624042196419000017565800001585150000000000000                                                             SUTURA PROLENE 3-0 45CM PS1 PRIME 8663TSOB     3
CC0001051362987A202100000027657400000027657403/11/20210859    3190333624042196419000038569900001124970000000000000                                                                              SONDA FOLEY #14 2 VIASSOB     1
CC0001051362987A202100000027657400000027657403/11/20210859    3190333624042196419000045138000001413890000000000000                                                                       LAPIZ ELECTROBISTURI  SOB X 1SOB     1
CC0001051362987A202100000027657400000027657403/11/20210859    3190333624042196419000030161400001459220000000000000                                                                       MANGUERA SUCCION 6 MM*3.1 MTSSOB     1
CC0001051362987A202100000027657400000027657403/11/20210859    3190333624042196419000018630000000358130000000000000                                                                   DURAPREP Sln YODO APLICADOR 26 MLFCO     1
CC0001051362987A202100000027657400000027657403/11/20210859    31903336240421964190000N2AX1200001071490000000000000                                                                             TRAMADOL SLN INY 100 MGAMP     1
CC0001051362987A202100000027657400000027657403/11/20210859    31903336240421964190000B02B3400001270570000000000000                                                                  EVICEL TROMB 5 ML/FRIBRIN 5 ML /R/PAQ     1
CC0001051362987A202100000027657400000027657403/11/20210859    31903336240421964190000Q1AA7200000610630000000000000                                                            CATETER PERIFE INTROCAN # 20G 4251644-04SIN     1
CC0001051362987A202100000027657400000027657403/11/20210859    3190333624042196419000011857700001096350000000000000                                                              AGUJA SONOPLEX BLOQUEO 21*100 01185-77BOL     1
CC0001051362987A202100000027657400000027657403/11/20210859    31903336240421964190000B02AA100001407470000000000000                                                                    CLINTRANEX SLN INY 500 MG / 5 MLAMP     2
CC0001051362987A202100000027657400000027657403/11/20210859    31903336240421964190000R3CA0400000777470000000000000                                                               ADRENALINA HCL SLN INY 1 MG / ML RYANAMP     1
CC0001051362987A202100000027657400000027657403/11/20210859    3190333624042196419000019487500000602970000000000000                                                                           VICRYL 2-0 CT1 90 VCP345HSIN     1
CC0001051362987A202100000027657400000027657403/11/20210859    3190333624042196419000017566200001585160000000000000                                                                  PROLENE 4-0 AZ 45 PS2 PRIME P8682TSOB     2
CC0001051362987A202100000027657400000027657403/11/20210859    3190333624042196419000043879200001138180000000000000                                                                                   HOJA BISTURI # 11SOB     2
CC0001051362987A202100000027657400000027657403/11/20210859    3190333624042196419000029987800000325460000000000000                                                             TUBO ENDOTRAQ 8.0 C/B Y ESPIRAL INTERNASIN     1
CC0001051362987A202100000027657400000027657403/11/20210859    31903336240421964190000M03AB100001371510000000000000                                                            ADECUAC SUCCINILCOLINA  100mg/mL SOL INYVAL     1
CC0001051362987A202100000027657400000027657403/11/20210859    31903336240421964190000N2AA0700001587170000000000000                                                                                 ULTIVA Sln Iny 2 mgVAL     1
CC0001051362987A202100000027657400000027657403/11/20210859    31903336240421964190000N2BB1100000217160000000000000                                                                      NOVALGINA Sln Iny 2.5 g x 5 mlAMP     1
CC0001051362987A202100000027657400000027657403/11/20210859    31903336240421964190000M1AB0900001019600000000000000                                                                              VOLTAREN Sln Iny 75 mgAMP     1
