CC0000022324853H202100000554653000000554653018/10/20211638     3300009237421964250000A03A0800001177800000000000000                                                                      COLYPAN SLN INY 50 MG/5 ML /R/AMP     2
CC0000022324853H202100000554653000000554653018/10/20210536     3300009237421964250000A03A0800001177800000000000000                                                                      COLYPAN SLN INY 50 MG/5 ML /R/AMP     1
CC0000022324853H202100000554653000000554653018/10/20211638     3300009237421964250000A6AC0200001467010000000000000                                                             LACTULAX JARABE 66.7G/100ML SOX15ML /R/SOB     2
CC0000022324853H202100000554653000000554653018/10/20210536     3300009237421964250000A6AC07000000#N/A0000000000000                                                                                 LACTULAX Jbe 240 ml FR     1
CC0000022324853H202100000554653000000554653018/10/20211857     3300009237421964250000A10AB300000197870000000000000                                                            HUMALOG KWIKPEN 100 UI /ML JR X 3 ML /R/VAL     1
CC0000022324853H202100000554653000000554653018/10/20212224     3300009237421964250000B01A0600000216800000000000000                                                                   ARIXTRA SLN INY 2.5 MG/0.5 ML /R/SIN     2
CC0000022324853H202100000554653000000554653018/10/20211639     3300009237421964250000B01A0600000216800000000000000                                                                   ARIXTRA SLN INY 2.5 MG/0.5 ML /R/SIN     1
CC0000022324853H202100000554653000000554653018/10/20210536     3300009237421964250000C09C0100001316940000000000000                                                                               DIOVAN TAB 160 MG /R/TAB     1
CC0000022324853H202100000554653000000554653018/10/20210536     3300009237421964250000A11A2600000303300000000000000                                                                 GLUCERNA LIQUIDO 1.0 KCAL X 1500 MLFCO     1
CC0000022324853H202100000554653000000554653018/10/20212236     3300009237421964250000C02AC200001559150000000000000                                                                              CLONIDINA TAB 0.150 MGTAB     1
CC0000022324853H202100000554653000000554653018/10/20211637     3300009237421964250000C02AC200001559150000000000000                                                                              CLONIDINA TAB 0.150 MGTAB     1
CC0000022324853H202100000554653000000554653018/10/20210536     3300009237421964250000C02AC200001559150000000000000                                                                              CLONIDINA TAB 0.150 MGTAB     1
CC0000022324853H202100000554653000000554653018/10/20212224     3300009237421964250000C02C0100001316210000000000000                                                                                     PRATEN TAB 1 MGTAB     1
CC0000022324853H202100000554653000000554653018/10/20212018     3300010237421964250000C02C0100001316210000000000000                                                                                     PRATEN TAB 1 MGTAB     1
CC0000022324853H202100000554653000000554653018/10/20210536     3300009237421964250000C02C0100001316210000000000000                                                                                     PRATEN TAB 1 MGTAB     1
CC0000022324853H202100000554653000000554653018/10/20211637     3300009237421964250000C03D0200001334290000000000000                                                                           ESPIRONOLACTONA TAB 25 MGTAB     1
CC0000022324853H202100000554653000000554653018/10/20211637     3300009237421964250000C08CA200001277660000000000000                                                                                 AMLODIPINO TAB 5 MGTAB     1
CC0000022324853H202100000554653000000554653018/10/20210536     3300009237421964250000C08CA200001277660000000000000                                                                                 AMLODIPINO TAB 5 MGTAB     1
CC0000022324853H202100000554653000000554653018/10/20211637     3300009237421964250000J01DD500001239970000000000000                                                                  CEFTRIAXONA POLVO LIOF SLN INY 1 GVAL     2
CC0000022324853H202100000554653000000554653018/10/20210536     3300009237421964250000N02BA100001276940000000000000                                                                  ACIDO ACETIL SALIC?LICO TAB 100 MGTAB     1
CC0000022324853H202100000554653000000554653018/10/20211637     3300009237421964250000N2AX0900001672040000000000000                                                                              TRAMADOL SLN INY 50 MGAMP     1
CC0000022324853H202100000554653000000554653018/10/20210536     3300009237421964250000N2AX0900001672040000000000000                                                                              TRAMADOL SLN INY 50 MGAMP     1
CC0000022324853H202100000554653000000554653018/10/20210536     3300009237421964250000A02BC700001684270000000000000                                                            OMEPRAZOL 40MG POLVO LIOFILIZADO AMPOLLAVAL     1
CC0000022324853H202100000554653000000554653018/10/20211302    31500192237421964250000V07A1300000502600000000000000                                                                                AGUA ESTERIL x 10 mlAMP     5
