CC0001065618583U202100916717110300916717110303/11/20211543    3190101223942196432000012472400000232190000000000000                                                                 SUTURA ETHILON 2-0 SC-26 45CM  164TSIN     1
CC0001065618583U202100916717110300916717110303/11/20211543    3190101223942196432000013077800000471960000000000000                                                             GASA NO TEJIDA EST 7.5 X 7.5 SOB X 3 UNSOB     8
CC0001065618583U202100916717110300916717110303/11/20211543    3190101223942196432000021016900000227720000000000000                                                               CATETER TRILUMEN AD CS15703E 7FR*20CMSIN     1
CC0001065618583U202100916717110300916717110303/11/20211543    3190101223942196432000024674000000220660000000000000                             JERINGA A 3 PARTES CON AGUJA  SOB X 1 RYMCO  10ML BN EXENTO-DC.417/2020SIN     3
CC0001065618583U202100916717110300916717110303/11/20211543    3190101223942196432000043879200001138180000000000000                                                                                   HOJA BISTURI # 11SOB     1
CC0001065618583U202100916717110300916717110303/11/20211543    31901012239421964320000E1AB0200000199290000000000000                                                            SOLUCION SALINA 0.9% SLN INY BO X 100 MLBIN     1
CC0001065618583U202100916717110300916717110303/11/20211543    3190101223942196432000001956000001620610000000000000                                                                      CONECTOR MICRO CLAVE LAT-MC100SOB     3
CC0001065618583H202100916717110300916717110303/11/20212041    3190115823742196425000011082700001620070000000000000                                                               EQUIPO SET PRIMARIO C/CLAVE REF 14001BOL     1
CC0001065618583H202100916717110300916717110303/11/20212041    3190115823742196425000030936900001431840000000000000                                                                                              BURETABOL     1
