CC0001042436934U202100050131128100050131128107/10/20211956    3190180623942196432000024674500000322810000000000000                                                                   JERINGA DESECHABLE 20 ml 21*1 1/2SIN     2
PE996314819121987U202100050131128100050131128107/10/20211956    31901806239421964320000E1AB0200000199290000000000000                                                            SOLUCION SALINA 0.9% SLN INY BO X 100 MLBIN     1
PE996314819121987U202100050131128100050131128107/10/20211956    3190180623942196432000043485100001618510000000000000                GUANTE QUIRURGICO DE LATEX REF 2D72N65X CAJ X 50 PROTEXIS  6.5 BN EXENTO-DC.417/2020SOB     2
PE996314819121987U202100050131128100050131128107/10/20211956    3190180623942196432000013077800000471960000000000000                                                             GASA NO TEJIDA EST 7.5 X 7.5 SOB X 3 UNSOB     2
PE996314819121987U202100050131128100050131128107/10/20211956    3190180623942196432000011048600000223020000000000000                                                                 JERINGA VACUNACION 3ML C/AGU 302542SIN     2
