CC0000003951629A202100000027638000000027638029/10/20210855    3190333624042196419000011082700001620070000000000000                                                               EQUIPO SET PRIMARIO C/CLAVE REF 14001BOL     1
CC0000003951629A202100000027638000000027638029/10/20210855    3190333624042196419000042743200003929860000000000000                   GASA ADHESIVA STRETCH REF 02038-00 ROL X 10MT FIXOMULL 15CM BN EXENTO-DC.417/2020CMT    50
CC0000003951629A202100000027638000000027638029/10/20210855    3190333624042196419000012472400000232190000000000000                                                                 SUTURA ETHILON 2-0 SC-26 45CM  164TSIN     1
CC0000003951629A202100000027638000000027638029/10/20210855    31903336240421964190000E1BA0700000198910000000000000                                                                   UROMATIC Sln IRRIGACION X 3000 MLBIN     3
CC0000003951629A202100000027638000000027638029/10/20210855    31903336240421964190000B02AA100001407470000000000000                                                                    CLINTRANEX SLN INY 500 MG / 5 MLAMP     2
CC0000003951629A202100000027638000000027638029/10/20210855    3190333624042196419000038572000001123520000000000000                                                                              SONDA FOLEY #24 3 VIASSOB     1
CC0000003951629A202100000027638000000027638029/10/20210855    3190333624042196419000019487600000599200000000000000                                                                                VICRYL 0 CT1 VCP346HSIN     1
CC0000003951629A202100000027638000000027638029/10/20210855    3190333624042196419000038568600000256960000000000000                                                                                   SONDA NELATON #14SIN     1
CC0000003951629A202100000027638000000027638029/10/20210855    31903336240421964190000M1AB0900001019600000000000000                                                                              VOLTAREN Sln Iny 75 mgAMP     1
CC0000003951629A202100000027638000000027638029/10/20210855    3190333624042196419000011017400000231840000000000000                                                                         CATGUT CROMADO 2-0 CT1 923TSIN     1
CC0000003951629A202100000027638000000027638029/10/20210855    3190333624042196419000012473200000232210000000000000                                                                 SUTURA ETHILON 3-0 SC-24 45CM  163TSIN     1
CC0000003951629A202100000027638000000027638029/10/20210855    3190333624042196419000092492400000296330000000000000                                                                   SUTURA POLYSORB 0 90CM GS21 CL924SIN     2
CC0000003951629A202100000027638000000027638029/10/20210855    3190333624042196419000019487800001585180000000000000                                                                    VICRYL 1 PLUS 70 CM CT-1 VCP341HSOB     1
CC0000003951629A202100000027638000000027638029/10/20210855    3190333624042196419000030161400001459220000000000000                                                                       MANGUERA SUCCION 6 MM*3.1 MTSSOB     1
CC0000003951629A202100000027638000000027638029/10/20210855    31903336240421964190000N1BA1900000554750000000000000                                                                     ROXICAINA JALEA 2% TUBO X 30 MLTUB     1
CC0000003951629A202100000027638000000027638029/10/20210855    3190333624042196419000031188000000236790000000000000                                                                                     CISTOFLO ADULTOSIN     1
CC0000003951629A202100000027638000000027638029/10/20210855    3190333624042196419000011082600000265810000000000000                                                              EQUIPO IRRIGACION URINARIA REF MRC4002SOB     1
CC0000003951629A202100000027638000000027638029/10/20210855    3190333624042196419000045138000001413890000000000000                                                                       LAPIZ ELECTROBISTURI  SOB X 1SOB     1
CC0000003951629A202100000027638000000027638029/10/20210855    3190333624042196419000043879400001138170000000000000                                                                  HOJA BISTURI # 10 CSSB 10 01002000SOB     1
CC0000003951629A202100000027638000000027638029/10/20210855    3190333624042196419000043879100001138200000000000000                                                                  HOJA BISTURI # 15 CSSB 15 01002003SOB     1
CC0000003951629A202100000027638000000027638029/10/20210855    31903336240421964190000J01DA300001239950000000000000                                                            CEFAZOLINA SODICA POLVO LIOF SLN INY 1 GVAL     2
CC0000003951629A202100000027638000000027638029/10/20210855    3190333624042196419000022425200000548240000000000000                       EXTENSION DE ANESTESIA REF 1139 SOB X 1 SHERLEG  ADULTO BN EXENTO-DC.417/2020SIN     1
CC0000003951629A202100000027638000000027638029/10/20210855    3190333624042196419000000602700001197200000000000000                                                              APOSITO TRANSP  1655 IV 8.5CM X 11.5CMSOB     1
CC0000003951629A202100000027638000000027638029/10/20210855    3190333624042196419000035356500003919000000000000000                                                                                        LLAVE 3 VIASSOB     1
CC0000003951629A202100000027638000000027638029/10/20210855    3190333624042196419000022426800001140510000000000000                                                                    EQUIPO MACROGOTEO BAXTER MRC0001SOB     1
CC0000003951629A202100000027638000000027638029/10/20210855    31903336240421964190000Q1AA7100000610620000000000000                                                            CATETER PERIFE INTROCAN # 18G 4251687-04SIN     1
CC0000003951629A202100000027638000000027638029/10/20210855    3190333624042196419000024673000001411210000000000000                                                                  JERINGA DESECHABLE 3 ML 21 X 1 1/2SOB     1
CC0000003951629A202100000027638000000027638029/10/20210855    3190333624042196419000024673600000222980000000000000                                                                     JERINGA DESECHABLE 5 ml 27*11/2SIN     1
CC0000003951629A202100000027638000000027638029/10/20210855    3190333624042196419000024674000000220660000000000000                             JERINGA A 3 PARTES CON AGUJA  SOB X 1 RYMCO  10ML BN EXENTO-DC.417/2020SIN     3
CC0000003951629A202100000027638000000027638029/10/20210855    3190333624042196419000024674500000322810000000000000                                                                   JERINGA DESECHABLE 20 ml 21*1 1/2SIN     1
CC0000003951629A202100000027638000000027638029/10/20210855    3190333624042196419000043485100001618510000000000000                GUANTE QUIRURGICO DE LATEX REF 2D72N65X CAJ X 50 PROTEXIS  6.5 BN EXENTO-DC.417/2020SOB     4
CC0000003951629A202100000027638000000027638029/10/20210855    3190333624042196419000011085100001082120000000000000                                                                           GUANTE QUIRURGICO TALLA 7SOB     3
CC0000003951629A202100000027638000000027638029/10/20210855    3190333624042196419000011085200001585390000000000000                                                                       GUANTE QUIRURGICO TALLA 7 1/2SOB     3
CC0000003951629A202100000027638000000027638029/10/20210855    3190333624042196419000011085300001082140000000000000                                                                           GUANTE QUIRURGICO TALLA 8SOB     1
CC0000003951629A202100000027638000000027638029/10/20210855    3190333624042196419000053074400000607910000000000000                                                               GASA ESTERIL 10*10 SOBRE X 3 UNIDADESSOB     4
CC0000003951629A202100000027638000000027638029/10/20210855    3190333624042196419000011073300001096420000000000000                                                                BOLSA DE SUCCION DE FLUIDOS x 2500mLBOL     1
CC0000003951629A202100000027638000000027638029/10/20210855    3190333624042196419000038568100000258050000000000000                                                                         CANULA OXIGENO NASAL ADULTOSIN     1
CC0000003951629A202100000027638000000027638029/10/20210855    3190333624042196419000020060000000225230000000000000                                                               AGUJA SPINOCAN 27G X 3 1/2 PU 4503902SIN     1
CC0000003951629A202100000027638000000027638029/10/20210855    31903336240421964190000E1AB0300003888390000000000000                                                            SOLUCION SALINA 0.9% SLN INY BO X 500 MLBOL     6
CC0000003951629A202100000027638000000027638029/10/20210855    31903336240421964190000E1AB0200000199290000000000000                                                            SOLUCION SALINA 0.9% SLN INY BO X 100 MLBIN     1
CC0000003951629A202100000027638000000027638029/10/20210855    31903336240421964190000N1BA0500000647360000000000000                                                                  BUPIROP 0.5% PESADO SLN INY X 4 MLAPC     1
CC0000003951629A202100000027638000000027638029/10/20210855    31903336240421964190000N2AX1200001071490000000000000                                                                             TRAMADOL SLN INY 100 MGAMP     1
CC0000003951629A202100000027638000000027638029/10/20210855    31903336240421964190000N2BB1100000217160000000000000                                                                      NOVALGINA Sln Iny 2.5 g x 5 mlAMP     1
CC0000003951629A202100000027638000000027638029/10/20210855    31903336240421964190000N1AH0200003906560000000000000                                                                     FENTANIL Iny 0.05 mg/ml x 10 mlAMP     1
