CC0000072178503U202100914245101700914245101717/10/20211655    3190092023942196432000011082900001233450000000000000                                                               EQUIPO LC 5000 PRIMARIO FOTOPRO 0L218SOB     1
CC0000072178503U202100914245101700914245101717/10/20211655    3190092023942196432000024674500000322810000000000000                                                                   JERINGA DESECHABLE 20 ml 21*1 1/2SIN     3
CC0000072178503U202100914245101700914245101717/10/20211655    31900920239421964320000Q1AA3300001585140000000000000                                                                         APOSITO TEGADERM 10*12 1626SOB     1
