RC0001044658760U202100000554116400000554116404/10/20211720     3300004239421964320000N02BE100000000JP0000000000000                                                                ACETAMINOFEN 250MG/5ML JER PLLE JAB. JR     2
RC0001044658760U202100000554116400000554116404/10/20211325     3300004239421964320000A2BC0900000200150000000000000                                                                               ORAZOLE Sln Iny 40 mgCIN     1
RC0001044658760U202100000554116400000554116404/10/20211621     3300004239421964320000A07C0400000953120000000000000                                                            ENTEROLYTE SUERO ORAL 75 MEQ X 400ML /R/FCO     1
RC0001044658760U202100000554116400000554116404/10/20212022     3300004239421964320000A07F0300000547060000000000000                                                              ENTEROGERMINA SUSP ORAL AMP X 5 ML /R/VAL     1
RC0001044658760U202100000554116400000554116404/10/20212022     3300004239421964320000A12C0500000947840000000000000                                                               SULZINC SLN ORAL 2 MG/ML X 120 ML /R/FCO     1
RC0001044658760U202100000554116400000554116404/10/20212159    31500292239421964320000E1AD0200003888320000000000000                                                                              HARTMAN SLN INY 500 MLBOL     1
RC0001044658760U202100000554116400000554116404/10/20211314    31902331239421964320000E1AD0200003888320000000000000                                                                              HARTMAN SLN INY 500 MLBOL     1
