TI0001042252285U202100050131478700050131478702/11/20212041    3190114323942196432000016830000000970620000000000000                                                             SIST FIJACION CAT PERIFERICO 6.5X7 1683SOB     1
TI0001042252285U202100050131478700050131478702/11/20212041    31901143239421964320000Q1AA7200000610630000000000000                                                            CATETER PERIFE INTROCAN # 20G 4251644-04SIN     1
TI0001042252285U202100050131478700050131478702/11/20212041    3190114323942196432000011082700001620070000000000000                                                               EQUIPO SET PRIMARIO C/CLAVE REF 14001BOL     1
TI0001042252285U202100050131478700050131478702/11/20212041    31901143239421964320000E1AD0300000199490000000000000                                         LACTATO RINGER USP (HARTMANN)  SOL INY  BOL X 1000ML BAXTERBIN     1
PE0080311350712U202100050131478700050131478702/11/20212041    3190114323942196432000011048600000223020000000000000                                                                 JERINGA VACUNACION 3ML C/AGU 302542SIN     1
TI0001042252285U202100050131478700050131478702/11/20212041    3190114323942196432000030936900001431840000000000000                                                                                              BURETABOL     1
TI0001042252285U202100050131478700050131478702/11/20212041    3190114323942196432000024674000000220660000000000000                             JERINGA A 3 PARTES CON AGUJA  SOB X 1 RYMCO  10ML BN EXENTO-DC.417/2020SIN     1
