CC0000064541334A202100000027663100000027663131/10/20210934    3190333624042196419000011031900001135570000000000000                                                            SUT TI-CRON BL 90CM Y5 2/0 DA 8886321251PZA     1
CC0000064541334A202100000027663100000027663131/10/20210934    3190333624042196419000047373400000228840000000000000                                                                             PINZA COLOSTOMIA 175635PZA     1
CC0000064541334A202100000027663100000027663131/10/20210934    3190333624042196419000040515800000228670000000000000                                                                        BOLSA COLOSTOMIA CONVATEC 70PZA     1
CC0000064541334A202100000027663100000027663131/10/20210934    3190333624042196419000040514400000228730000000000000                                                               BARRERA COLOSTOMIA CONVATEC 70 400949PZA     1
CC0000064541334A202100000027663100000027663131/10/20210934    3190333624042196419000043879100001138200000000000000                                                                  HOJA BISTURI # 15 CSSB 15 01002003SOB     1
CC0000064541334A202100000027663100000027663131/10/20210934    3190333624042196419000000503900000296270000000000000                                                                  SUTURA POLYSORB 3-0 75CM V20 GL122SIN     1
CC0000064541334A202100000027663100000027663131/10/20210934    3190333624042196419000011085200001585390000000000000                                                                       GUANTE QUIRURGICO TALLA 7 1/2SOB     2
CC0000064541334A202100000027663100000027663131/10/20210934    3190333624042196419000082750200001405900000000000000                                                               ABTHERA SENSATRAC SIST VAC M8275026/5SOB     1
CC0000064541334A202100000027663100000027663131/10/20210934    3190333624042196419000062750100001405910000000000000                                                                 INFOVAC CANISTER 1000 ML M8275093/5SOB     1
CC0000064541334A202100000027663100000027663131/10/20210934    3190333624042196419000017565100000232570000000000000                                                                         PROLENE 0 ORT 75 CT-1 8424TSIN     2
CC0000064541334A202100000027663100000027663131/10/20210934    3190333624042196419000043879400001138170000000000000                                                                  HOJA BISTURI # 10 CSSB 10 01002000SOB     1
CC0000064541334A202100000027663100000027663131/10/20210934    3190333624042196419000022425200000548240000000000000                       EXTENSION DE ANESTESIA REF 1139 SOB X 1 SHERLEG  ADULTO BN EXENTO-DC.417/2020SIN     1
CC0000064541334A202100000027663100000027663131/10/20210934    3190333624042196419000035356500003919000000000000000                                                                                        LLAVE 3 VIASSOB     2
CC0000064541334A202100000027663100000027663131/10/20210934    3190333624042196419000022426800001140510000000000000                                                                    EQUIPO MACROGOTEO BAXTER MRC0001SOB     1
CC0000064541334A202100000027663100000027663131/10/20210934    31903336240421964190000J01DA300001239950000000000000                                                            CEFAZOLINA SODICA POLVO LIOF SLN INY 1 GVAL     2
CC0000064541334A202100000027663100000027663131/10/20210934    3190333624042196419000011073300001096420000000000000                                                                BOLSA DE SUCCION DE FLUIDOS x 2500mLBOL     1
CC0000064541334A202100000027663100000027663131/10/20210934    3190333624042196419000030161400001459220000000000000                                                                       MANGUERA SUCCION 6 MM*3.1 MTSSOB     2
CC0000064541334A202100000027663100000027663131/10/20210934    3190333624042196419000053074400000607910000000000000                                                               GASA ESTERIL 10*10 SOBRE X 3 UNIDADESSOB     2
CC0000064541334A202100000027663100000027663131/10/20210934    3190333624042196419000024673000001411210000000000000                                                                  JERINGA DESECHABLE 3 ML 21 X 1 1/2SOB     1
CC0000064541334A202100000027663100000027663131/10/20210934    3190333624042196419000024674000000220660000000000000                             JERINGA A 3 PARTES CON AGUJA  SOB X 1 RYMCO  10ML BN EXENTO-DC.417/2020SIN     3
CC0000064541334A202100000027663100000027663131/10/20210934    3190333624042196419000024674500000322810000000000000                                                                   JERINGA DESECHABLE 20 ml 21*1 1/2SIN     2
CC0000064541334A202100000027663100000027663131/10/20210934    3190333624042196419000011085300001082140000000000000                                                                           GUANTE QUIRURGICO TALLA 8SOB     6
CC0000064541334A202100000027663100000027663131/10/20210934    3190333624042196419000011085100001082120000000000000                                                                           GUANTE QUIRURGICO TALLA 7SOB     3
CC0000064541334A202100000027663100000027663131/10/20210934    3190333624042196419000043485100001618510000000000000                GUANTE QUIRURGICO DE LATEX REF 2D72N65X CAJ X 50 PROTEXIS  6.5 BN EXENTO-DC.417/2020SOB     1
CC0000064541334A202100000027663100000027663131/10/20210934    3190333624042196419000038568100000258050000000000000                                                                         CANULA OXIGENO NASAL ADULTOSIN     1
CC0000064541334A202100000027663100000027663131/10/20210934    31903336240421964190000E1AD0200003888320000000000000                                                                              HARTMAN SLN INY 500 MLBOL     2
CC0000064541334A202100000027663100000027663131/10/20210934    31903336240421964190000E1AB0500003888400000000000000                                                              SOLUCION SALINA 0.9% SLN INY X 1000 MLBOL     2
CC0000064541334A202100000027663100000027663131/10/20210934    31903336240421964190000E1AB0300003888390000000000000                                                            SOLUCION SALINA 0.9% SLN INY BO X 500 MLBOL     2
CC0000064541334A202100000027663100000027663131/10/20210934    31903336240421964190000N02B1100001169680000000000000                              PARACETAMOL 1000MG/100ML(10MG/ML) SOL INY  VIAL X 100ML FRESENIUS KABIVAL     1
CC0000064541334A202100000027663100000027663131/10/20210934    31903336240421964190000A4AD0200000202990000000000000                                                                     PLITICAN HCL Sln Iny 50 mg/2 mlAMP     1
CC0000064541334A202100000027663100000027663131/10/20210934    31903336240421964190000N2BB1100000217160000000000000                                                                      NOVALGINA Sln Iny 2.5 g x 5 mlAMP     2
CC0000064541334A202100000027663100000027663131/10/20210934    31903336240421964190000M1AX0200001569410000000000000                                                                         KETRON SLN INY 30 MG / 2 MLAMP     1
CC0000064541334A202100000027663100000027663131/10/20210934    31903336240421964190000H02AB500001664950000000000000                                                            DEXAMETASONA SLN INY 8 MG/2 ML AMP /CDS/AMP     1
CC0000064541334A202100000027663100000027663131/10/20210934    31903336240421964190000N1AH0200003906560000000000000                                                                     FENTANIL Iny 0.05 mg/ml x 10 mlAMP     1
