PE102014803111996U202100050131325700050131325722/10/20211110    31902336239421964320000E1AB0200000199290000000000000                                                            SOLUCION SALINA 0.9% SLN INY BO X 100 MLBIN     1
PE102014803111996U202100050131325700050131325722/10/20211110    3190233623942196432000001956000001620610000000000000                                                                      CONECTOR MICRO CLAVE LAT-MC100SOB     1
PE102014803111996U202100050131325700050131325722/10/20211110    3190233623942196432000024674000000220660000000000000                             JERINGA A 3 PARTES CON AGUJA  SOB X 1 RYMCO  10ML BN EXENTO-DC.417/2020SIN     1
PE102014803111996U202100050131325700050131325722/10/20211110    3190233623942196432000016830000000970620000000000000                                                             SIST FIJACION CAT PERIFERICO 6.5X7 1683SOB     1
PE102014803111996U202100050131325700050131325722/10/20211110    31902336239421964320000Q1AA7100000610620000000000000                                                            CATETER PERIFE INTROCAN # 18G 4251687-04SIN     1
PE102014803111996U202100050131325700050131325722/10/20211110    3190233623942196432000011082700001620070000000000000                                                               EQUIPO SET PRIMARIO C/CLAVE REF 14001BOL     1
