RC0001044652829A202100000027613100000027613123/10/20211304    3190333624042196419000000100600000223090000000000000                                                                      AGUJA DESECHABLE 18G X 1 1/2 PSIN     1
RC0001044652829A202100000027613100000027613123/10/20211304    3190333624042196419000011857700001096350000000000000                                                              AGUJA SONOPLEX BLOQUEO 21*100 01185-77BOL     1
RC0001044652829A202100000027613100000027613123/10/20211304    3190333624042196419000042743200003929860000000000000                   GASA ADHESIVA STRETCH REF 02038-00 ROL X 10MT FIXOMULL 15CM BN EXENTO-DC.417/2020CMT    20
RC0001044652829A202100000027613100000027613123/10/20211304    3190333624042196419000038572900000256860000000000000                                                                                 SONDA NSG LEVIN #14SIN     1
RC0001044652829A202100000027613100000027613123/10/20211304    3190333624042196419000018351100000232850000000000000                                                                                 SEDA 2-0 SC-26 185TSIN     1
RC0001044652829A202100000027613100000027613123/10/20211304    3190333624042196419000020750700000576830000000000000                                                                 PLACA QUIRURGICA  NEONATO REF E7512SIN     1
RC0001044652829A202100000027613100000027613123/10/20211304    3190333624042196419000015994600000632480000000000000                                                                          MONOCRYL 4-0 PS-2 45 Y496GSIN     1
RC0001044652829A202100000027613100000027613123/10/20211304    3190333624042196419000000503400004018660000000000000   SUTURA MONOFIL ABSORBIBLE P-1 REF MCP490G CAJ X 12 MONOCRYL PLUS 45CM - 5-0 BN EXENTO-DC.417/2020SOB     1
RC0001044652829A202100000027613100000027613123/10/20211304    31903336240421964190000Q1AA7300000610640000000000000                                                            CATETER PERIFE INTROCAN # 22G 4251628-04SIN     1
RC0001044652829A202100000027613100000027613123/10/20211304    3190333624042196419000038572800000256850000000000000                                                                                 SONDA NSG LEVIN #12SIN     1
RC0001044652829A202100000027613100000027613123/10/20211304    31903336240421964190000M03AB100001371510000000000000                                                            ADECUAC SUCCINILCOLINA  100mg/mL SOL INYVAL     1
RC0001044652829A202100000027613100000027613123/10/20211304    31903336240421964190000M3AC0600000720540000000000000                                                                         ESMERON SLN INY 50 MG /5 MLVAL     1
RC0001044652829A202100000027613100000027613123/10/20211304    3190333624042196419000024673000001411210000000000000                                                                  JERINGA DESECHABLE 3 ML 21 X 1 1/2SOB     2
RC0001044652829A202100000027613100000027613123/10/20211304    31903336240421964190000N2AX0400001204140000000000000                                                                             TRAMAL Sln Iny 50 mg/mlAMP     1
RC0001044652829A202100000027613100000027613123/10/20211304    3190333624042196419000030161400001459220000000000000                                                                       MANGUERA SUCCION 6 MM*3.1 MTSSOB     1
RC0001044652829A202100000027613100000027613123/10/20211304    3190333624042196419000045138000001413890000000000000                                                                       LAPIZ ELECTROBISTURI  SOB X 1SOB     1
RC0001044652829A202100000027613100000027613123/10/20211304    3190333624042196419000038575100000257100000000000000                                                                                     SONDA TORAX #14SIN     1
RC0001044652829A202100000027613100000027613123/10/20211304    3190333624042196419000011063900000296020000000000000                                                            SIST DRENAJE TORACICO 888571299  AQ-SEALBOL     1
RC0001044652829A202100000027613100000027613123/10/20211304    3190333624042196419000000503900000296270000000000000                                                                  SUTURA POLYSORB 3-0 75CM V20 GL122SIN     1
RC0001044652829A202100000027613100000027613123/10/20211304    3190333624042196419000043879200001138180000000000000                                                                                   HOJA BISTURI # 11SOB     1
RC0001044652829A202100000027613100000027613123/10/20211304    3190333624042196419000022425200000548240000000000000                       EXTENSION DE ANESTESIA REF 1139 SOB X 1 SHERLEG  ADULTO BN EXENTO-DC.417/2020SIN     2
RC0001044652829A202100000027613100000027613123/10/20211304    3190333624042196419000035356500003919000000000000000                                                                                        LLAVE 3 VIASSOB     3
RC0001044652829A202100000027613100000027613123/10/20211304    3190333624042196419000022425100001392880000000000000             EQUIPO MICROGOTEO SIN AGUJA REF 201000 PAQ X 100 SOB GOTHAPLAST   BN EXENTO-DC.417/2020BOL     2
RC0001044652829A202100000027613100000027613123/10/20211304    3190333624042196419000011073300001096420000000000000                                                                BOLSA DE SUCCION DE FLUIDOS x 2500mLBOL     1
RC0001044652829A202100000027613100000027613123/10/20211304    3190333624042196419000020750800000295830000000000000                                                                       PLACA RETORNO PEDIAT E7510-25SIN     1
RC0001044652829A202100000027613100000027613123/10/20211304    3190333624042196419000011082700001620070000000000000                                                               EQUIPO SET PRIMARIO C/CLAVE REF 14001BOL     2
RC0001044652829A202100000027613100000027613123/10/20211304    3190333624042196419000024674000000220660000000000000                             JERINGA A 3 PARTES CON AGUJA  SOB X 1 RYMCO  10ML BN EXENTO-DC.417/2020SIN     4
RC0001044652829A202100000027613100000027613123/10/20211304    3190333624042196419000024674500000322810000000000000                                                                   JERINGA DESECHABLE 20 ml 21*1 1/2SIN     2
RC0001044652829A202100000027613100000027613123/10/20211304    3190333624042196419000053074400000607910000000000000                                                               GASA ESTERIL 10*10 SOBRE X 3 UNIDADESSOB     3
RC0001044652829A202100000027613100000027613123/10/20211304    3190333624042196419000011085200001585390000000000000                                                                       GUANTE QUIRURGICO TALLA 7 1/2SOB     3
RC0001044652829A202100000027613100000027613123/10/20211304    3190333624042196419000011085100001082120000000000000                                                                           GUANTE QUIRURGICO TALLA 7SOB     2
RC0001044652829A202100000027613100000027613123/10/20211304    3190333624042196419000043485100001618510000000000000                GUANTE QUIRURGICO DE LATEX REF 2D72N65X CAJ X 50 PROTEXIS  6.5 BN EXENTO-DC.417/2020SOB     2
RC0001044652829A202100000027613100000027613123/10/20211304    3190333624042196419000039174700001072020000000000000                                                                           TUBO ENDOTRAQUEAL C/B 5.5SOB     1
RC0001044652829A202100000027613100000027613123/10/20211304    3190333624042196419000031011300000762710000000000000                                                                            CANULA GUEDEL #2 (80 MM)SOB     1
RC0001044652829A202100000027613100000027613123/10/20211304    3190333624042196419000051515300000598140000000000000                                                                            MASCARILLA ANESTESIA # 3SIN     1
RC0001044652829A202100000027613100000027613123/10/20211304    3190333624042196419000011099300000777780000000000000                                                                     FILTRO BACTERIANO VIRICO ADULTOBOL     1
RC0001044652829A202100000027613100000027613123/10/20211304    31903336240421964190000E1AB0300003888390000000000000                                                            SOLUCION SALINA 0.9% SLN INY BO X 500 MLBOL     1
RC0001044652829A202100000027613100000027613123/10/20211304    31903336240421964190000E1AB0700003888350000000000000                                                            SOLUCION SALINA 0.9% SLN INY BO X 250 MLBOL     3
RC0001044652829A202100000027613100000027613123/10/20211304    31903336240421964190000E1AB0200000199290000000000000                                                            SOLUCION SALINA 0.9% SLN INY BO X 100 MLBIN     2
RC0001044652829A202100000027613100000027613123/10/20211304    31903336240421964190000N1BA0300000217900000000000000                                                                    BUPIROP 0.5% C/E Sln Iny x 20 mlVAL     1
RC0001044652829A202100000027613100000027613123/10/20211304    31903336240421964190000N01A0400003939010000000000000                                               MAYOPROFOL 200MG/20ML(1%) EMUL INY CAJ X 1VIAL X 20MLVAL     1
RC0001044652829A202100000027613100000027613123/10/20211304    31903336240421964190000A4AD0200000202990000000000000                                                                     PLITICAN HCL Sln Iny 50 mg/2 mlAMP     1
RC0001044652829A202100000027613100000027613123/10/20211304    31903336240421964190000N2BB0500000217140000000000000                                                                          NOVALGINA Sln Iny 1 g/2 mlAMP     1
RC0001044652829A202100000027613100000027613123/10/20211304    31903336240421964190000H02AB500001664950000000000000                                                            DEXAMETASONA SLN INY 8 MG/2 ML AMP /CDS/AMP     1
RC0001044652829A202100000027613100000027613123/10/20211304    31903336240421964190000N2AA0700001587170000000000000                                                                                 ULTIVA Sln Iny 2 mgVAL     1
RC0001044652829A202100000027613100000027613123/10/20211304    31903336240421964190000N1AX0100003889000000000000000                                                                       KETAMINA Iny 50 mg/ml x 10 mlVAL     1
