RC0001146537958U202100915078102200915078102222/10/20212137    3190118123942196432000011048600000223020000000000000                                                                 JERINGA VACUNACION 3ML C/AGU 302542SIN     1
RC0001146537958U202100915078102200915078102222/10/20212137    3190118123942196432000011082700001620070000000000000                                                               EQUIPO SET PRIMARIO C/CLAVE REF 14001BOL     1
RC0001146537958U202100915078102200915078102222/10/20212137    3190118123942196432000011137100001419310000000000000                                                               TIRA GLUCOMETRIA FREESTYLE H OPTIUM .PZA     1
RC0001146537958U202100915078102200915078102222/10/20212137    3190118123942196432000016830000000970620000000000000                                                             SIST FIJACION CAT PERIFERICO 6.5X7 1683SOB     1
RC0001146537958U202100915078102200915078102222/10/20212137    3190118123942196432000030936900001431840000000000000                                                                                              BURETABOL     1
RC0001146537958U202100915078102200915078102222/10/20212137    3190118123942196432000045136100001419300000000000000                                                                            LANCETA DEXTROMETER X UNPZA     1
RC0001146537958U202100915078102200915078102222/10/20212137    31901181239421964320000Q1AA7400003911720000000000000                                                            CATETER PERIFE INTROCAN # 24G 4251601-04SOB     1
RC0001146537958U202100915078102200915078102222/10/20212137    31901181239421964320000E1AD0300000199490000000000000                                         LACTATO RINGER USP (HARTMANN)  SOL INY  BOL X 1000ML BAXTERBIN     1
