CC0001129577696H202100000556458700000556458702/12/20211408    31901484237421964250000E1AB1100003888280000000000000                                                                        SOLUCION SALINA 0.9% X 50 mlBOL     4
CC0001129577696H202100000556458700000556458702/12/20211420    31500082237421964250000E1AB0200000199290000000000000                                                            SOLUCION SALINA 0.9% SLN INY BO X 100 MLBIN     4
CC0001129577696H202100000556458700000556458702/12/20211420    31500082237421964250000E1AB0300003888390000000000000                                                            SOLUCION SALINA 0.9% SLN INY BO X 500 MLBOL     3
CC0001129577696H202100000556458700000556458702/12/20211408    31901484237421964250000E1AB0300003888390000000000000                                                            SOLUCION SALINA 0.9% SLN INY BO X 500 MLBOL     2
CC0001129577696H202100000556458700000556458702/12/20211128     3300009237421964250000H02A0100001664960000000000000                                                                        DEXAMETASONA SLN INY 4 MG/MLAMP     5
CC0001129577696H202100000556458700000556458702/12/20210850     3300009237421964250000L1BC0100001233210000000000000                                              FLUOROURACILO 500MG/10ML(50MG/ML) SOL INY  VIAL X 10MLVAL     8
CC0001129577696H202100000556458700000556458702/12/20210849     3300009237421964250000L1BC0100001233210000000000000                                              FLUOROURACILO 500MG/10ML(50MG/ML) SOL INY  VIAL X 10MLVAL     2
CC0001129577696H202100000556458700000556458702/12/20210849     3300009237421964250000L01A0800003913050000000000000                                              OXALIPLATINO 100MG POLV INY CAJ X 1VIAL GRUPO UNIPHARMVAL     2
CC0001129577696H202100000556458700000556458702/12/20211512     3300009237421964250000L1BC8600000553170000000000000                                                                  FOLINATO CALCIO SLN INY 50 MG/5 MLVAL    15
CC0001129577696H202100000556458700000556458702/12/20211129     3300009237421964250000A02B0800001276960000000000000                                                                                 OMEPRAZOL CAP 20 MGCAP     1
CC0001129577696H202100000556458700000556458702/12/20211128     3300009237421964250000J1KF0500001317760000000000000                                                                      MEROPENEM POLVO INY 500 MG /R/CAJ     1
CC0001129577696H202100000556458700000556458702/12/20211128     3300009237421964250000N2BE2200001252930000000000000                                                                             ACETAMINOFEN Tab 500 MGTAB     6
CC0001129577696H202100000556458700000556458702/12/20211655     3300009237421964250000N2AX0900001672040000000000000                                                                              TRAMADOL SLN INY 50 MGAMP     1
CC0001129577696H202100000556458700000556458702/12/20211128     3300009237421964250000N2AX0900001672040000000000000                                                                              TRAMADOL SLN INY 50 MGAMP     2
CC0001129577696H202100000556458700000556458702/12/20211045    31500082237421964250000V07A1300000502600000000000000                                                                                AGUA ESTERIL x 10 mlAMP    10
CC0001129577696H202100000556458700000556458702/12/20210031     3300009237421964250000A04AA200003932460000000000000                                                 ONDAX 4MG/2ML(2MG/ML) SOL INY INST CAJ X 1AMP X 2MLAMP     3
