CC0000012558189H202100000556479400000556479402/12/20211030    31903288237421964250000A02B0600001277230000000000000                                                                                NEXIUM Tab 40 mg /R/TAB     1
CC0000012558189H202100000556479400000556479402/12/20211030    31903288237421964250000A6AC0200001467010000000000000                                                             LACTULAX JARABE 66.7G/100ML SOX15ML /R/SOB     1
CC0000012558189H202100000556479400000556479402/12/20211030    31903288237421964250000J01DA300001239950000000000000                                                            CEFAZOLINA SODICA POLVO LIOF SLN INY 1 GVAL     4
CC0000012558189H202100000556479400000556479402/12/20211030    31903288237421964250000N2BE2200001252930000000000000                                                                             ACETAMINOFEN Tab 500 MGTAB     5
