RC0001048091952H202100000556468900000556468902/12/20211122     3300009237421964250000J01X0900001280300000000000000                                                         COLISTIMETHATE 150MG POLV INY  CAJ X 10VIALVAL     1
RC0001048091952H202100000556468900000556468902/12/20210819     3300009237421964250000J01X0900001280300000000000000                                                         COLISTIMETHATE 150MG POLV INY  CAJ X 10VIALVAL     1
RC0001048091952H202100000556468900000556468902/12/20211829     3300009237421964250000N3AA0500003889340000000000000                                                                       FENOBARBITAL SLN INY 40 MG/MLAMP     1
RC0001048091952H202100000556468900000556468902/12/20210820     3300009237421964250000N3AA0500003889340000000000000                                                                       FENOBARBITAL SLN INY 40 MG/MLAMP     1
RC0001048091952H202100000556468900000556468902/12/20211538     3300009237421964250000A03FA200000947820000000000000                                                               DOMPERIDONA SUSP ORAL 1 MG/ML X 60 MLFCO     1
RC0001048091952H202100000556468900000556468902/12/20210820     3300009237421964250000A03FA200000947820000000000000                                                               DOMPERIDONA SUSP ORAL 1 MG/ML X 60 MLFCO     1
RC0001048091952H202100000556468900000556468902/12/20211538     3300009237421964250000J1KF0500001317760000000000000                                                                      MEROPENEM POLVO INY 500 MG /R/CAJ     1
RC0001048091952H202100000556468900000556468902/12/20210819     3300009237421964250000J1KF0500001317760000000000000                                                                      MEROPENEM POLVO INY 500 MG /R/CAJ     1
