RC0001194981227A202100000027818100000027818102/12/20211131    3190333624042196419000011048700001134860000000000000                                                                JUEGO TUBO PRUEBA REF 8290286 DRAGERPZA     1
RC0001194981227A202100000027818100000027818102/12/20211131    31903336240421964190000M03AB100001371510000000000000                                                            ADECUAC SUCCINILCOLINA  100mg/mL SOL INYVAL     1
RC0001194981227A202100000027818100000027818102/12/20211131    31903336240421964190000N02B1100001464120000000000000                                           PARACETAMOL EP 1000MG/100ML(10MG/ML) SOL INY  CAJ X 10FCOVAL     1
RC0001194981227A202100000027818100000027818102/12/20211131    31903336240421964190000S1GA0900000858550000000000000                                                                      AFRIN 0.025% SLN NASAL X 15 MLFCO     1
RC0001194981227A202100000027818100000027818102/12/20211131    3190333624042196419000043879100001138200000000000000                                                                  HOJA BISTURI # 15 CSSB 15 01002003SOB     1
RC0001194981227A202100000027818100000027818102/12/20211131    31903336240421964190000N01B1200000220020000000000000                                                                        ROXICAINA 1% C/E Iny x 20 mlFCO     1
RC0001194981227A202100000027818100000027818102/12/20211131    3190333624042196419000000101000001101640000000000000                                                                  AGUJA DESECHABLE  23G X 1 1/2 PULGSOB     1
RC0001194981227A202100000027818100000027818102/12/20211131    3190333624042196419000030161400001459220000000000000                                                                       MANGUERA SUCCION 6 MM*3.1 MTSSOB     2
RC0001194981227A202100000027818100000027818102/12/20211131    31903336240421964190000Q1AA7300000610640000000000000                                                            CATETER PERIFE INTROCAN # 22G 4251628-04SIN     1
RC0001194981227A202100000027818100000027818102/12/20211131    3190333624042196419000000602600001259280000000000000                                                             APOSITO TEGADERM IV PD 1610 5CM X 5.7CMSOB     1
RC0001194981227A202100000027818100000027818102/12/20211131    3190333624042196419000011073300001096420000000000000                                                                BOLSA DE SUCCION DE FLUIDOS x 2500mLBOL     2
RC0001194981227A202100000027818100000027818102/12/20211131    3190333624042196419000011082700001620070000000000000                                                               EQUIPO SET PRIMARIO C/CLAVE REF 14001BOL     1
RC0001194981227A202100000027818100000027818102/12/20211131    3190333624042196419000024673000001411210000000000000                                                                  JERINGA DESECHABLE 3 ML 21 X 1 1/2SOB     1
RC0001194981227A202100000027818100000027818102/12/20211131    3190333624042196419000024673600000222980000000000000                                                                     JERINGA DESECHABLE 5 ml 27*11/2SIN     3
RC0001194981227A202100000027818100000027818102/12/20211131    3190333624042196419000024674000001138340000000000000   JERINGA 3PARTES C/A 10ML REF JEHL005 CAJ X 100 ALFASAFE  21GX1 PULG 1/2 PULG BN EXENTO-DC.417/202PZA     2
RC0001194981227A202100000027818100000027818102/12/20211131    3190333624042196419000024674500000322810000000000000                                                                   JERINGA DESECHABLE 20 ml 21*1 1/2SIN     1
RC0001194981227A202100000027818100000027818102/12/20211131    3190333624042196419000053074400000607910000000000000                                                               GASA ESTERIL 10*10 SOBRE X 3 UNIDADESSOB     2
RC0001194981227A202100000027818100000027818102/12/20211131    3190333624042196419000011085400001083360000000000000                                                                       GUANTE QUIRURGICO TALLA 8 1/2SOB     2
RC0001194981227A202100000027818100000027818102/12/20211131    3190333624042196419000011085200001585390000000000000                                                                       GUANTE QUIRURGICO TALLA 7 1/2SOB     1
RC0001194981227A202100000027818100000027818102/12/20211131    3190333624042196419000043485100001618510000000000000                GUANTE QUIRURGICO DE LATEX REF 2D72N65X CAJ X 50 PROTEXIS  6.5 BN EXENTO-DC.417/2020SOB     2
RC0001194981227A202100000027818100000027818102/12/20211131    3190333624042196419000039174500001679380000000000000                                                                           TUBO ENDOTRAQUEAL C/B 4.5SOB     1
RC0001194981227A202100000027818100000027818102/12/20211131    3190333624042196419000031011200001012590000000000000                                                                           CANULA GUEDEL # 1 (70 MM)SOB     1
RC0001194981227A202100000027818100000027818102/12/20211131    3190333624042196419000051515300000598140000000000000                                                                            MASCARILLA ANESTESIA # 3SIN     1
RC0001194981227A202100000027818100000027818102/12/20211131    3190333624042196419000011099300000777780000000000000                                                                     FILTRO BACTERIANO VIRICO ADULTOBOL     1
RC0001194981227A202100000027818100000027818102/12/20211131    3190333624042196419000011065700003914100000000000000                                                                 TAPON HEPARINIZADO 4238010  B BRAUNSOB     1
RC0001194981227A202100000027818100000027818102/12/20211131    31903336240421964190000E1AB0300003888390000000000000                                                            SOLUCION SALINA 0.9% SLN INY BO X 500 MLBOL     3
RC0001194981227A202100000027818100000027818102/12/20211131    31903336240421964190000E1AB0700003888350000000000000                                                            SOLUCION SALINA 0.9% SLN INY BO X 250 MLBOL     1
RC0001194981227A202100000027818100000027818102/12/20211131    31903336240421964190000A3BA0100001109400000000000000                                                                          ATROPINA SLN INY 1 MG / MLAMP     1
RC0001194981227A202100000027818100000027818102/12/20211131    31903336240421964190000N1AH0200003906560000000000000                                                                     FENTANIL Iny 0.05 mg/ml x 10 mlAMP     1
RC0001194981227A202100000027818100000027818102/12/20211131    31903336240421964190000N2AA0700001587170000000000000                                                                                 ULTIVA Sln Iny 2 mgVAL     1
