RC0001048085516H202100015052796500015052796502/12/20212102    3150053423742196425000013077800000471960000000000000                                                             GASA NO TEJIDA EST 7.5 X 7.5 SOB X 3 UNSOB    10
CC0001047339603H202100015052796500015052796502/12/20212102    3150053423742196425000013077800000471960000000000000                                                             GASA NO TEJIDA EST 7.5 X 7.5 SOB X 3 UNSOB    10
CC0001047339603H202100015052796500015052796502/12/20212102    3150053423742196425000042743200003929860000000000000                   GASA ADHESIVA STRETCH REF 02038-00 ROL X 10MT FIXOMULL 15CM BN EXENTO-DC.417/2020CMT    30
RC0001048085516H202100015052796500015052796502/12/20212102    3150053423742196425000000602600001259280000000000000                                                             APOSITO TEGADERM IV PD 1610 5CM X 5.7CMSOB     2
