CC0000016200301H202100015022559800015022559802/12/20211120    3190310223742196425000030161400001459220000000000000                                                                       MANGUERA SUCCION 6 MM*3.1 MTSSOB     1
CC0000016200301H202100015022559800015022559802/12/20211120    3190310223742196425000013077800000471960000000000000                                                             GASA NO TEJIDA EST 7.5 X 7.5 SOB X 3 UNSOB     3
CC0000016200301H202100015022559800015022559802/12/20211120    3190310223742196425000011069600001466740000000000000                                                                                      NIPLE PLASTICOPZA     1
CC0000016200301H202100015022559800015022559802/12/20211120    3190310223742196425000020816000001096410000000000000                                                                          LINER PARED DELGADA 1500CCBOL     1
CC0000016200301H202100015022559800015022559802/12/20211120    31903102237421964250000E1AB0200000199290000000000000                                                            SOLUCION SALINA 0.9% SLN INY BO X 100 MLBIN     1
