CC0001151478323U202100050131882100050131882102/12/20210458    3190100523942196432000038570100001124990000000000000                                                                              SONDA FOLEY #18 2 VIASSOB     1
CC0001151478323U202100050131882100050131882102/12/20210458    3190100523942196432000024674000001138340000000000000   JERINGA 3PARTES C/A 10ML REF JEHL005 CAJ X 100 ALFASAFE  21GX1 PULG 1/2 PULG BN EXENTO-DC.417/202PZA     5
CC0001151478323U202100050131882100050131882102/12/20210458    3190100523942196432000011085200001585390000000000000                                                                       GUANTE QUIRURGICO TALLA 7 1/2SOB     2
CC0001151478323U202100050131882100050131882102/12/20210458    3190100523942196432000013077800000471960000000000000                                                             GASA NO TEJIDA EST 7.5 X 7.5 SOB X 3 UNSOB     4
CC0001151478323U202100050131882100050131882102/12/20210458    3190100523942196432000031188000000236790000000000000                                                                                     CISTOFLO ADULTOSIN     1
CC0001151478323U202100050131882100050131882102/12/20210458    3190100523942196432000001956000001620610000000000000                                                                      CONECTOR MICRO CLAVE LAT-MC100SOB     1
CC0001151478323U202100050131882100050131882102/12/20210458    31901005239421964320000Q1AA7100000610620000000000000                                                            CATETER PERIFE INTROCAN # 18G 4251687-04SIN     1
CC0001151478323U202100050131882100050131882102/12/20210458    3190100523942196432000016830000000970620000000000000                                                             SIST FIJACION CAT PERIFERICO 6.5X7 1683SOB     1
CC0001151478323U202100050131882100050131882102/12/20210458    31901005239421964320000E1AB0500003888400000000000000                                                              SOLUCION SALINA 0.9% SLN INY X 1000 MLBOL     1
