RC0001044236218H202100015132527100015132527102/12/20212128    3150051523742196425000030161400001459220000000000000                                                                       MANGUERA SUCCION 6 MM*3.1 MTSSOB     1
RC0001044436459H202100015132527100015132527102/12/20212128    3150051523742196425000030161400001459220000000000000                                                                       MANGUERA SUCCION 6 MM*3.1 MTSSOB     1
RC0001044236218H202100015132527100015132527102/12/20212128    3150051523742196425000023486400001318040000000000000                                                               GUANTE CIRUGIA NITRILO ALFASAFE 6 1/2SOB     6
RC0001044236218H202100015132527100015132527102/12/20212128    3150051523742196425000020816000001096410000000000000                                                                          LINER PARED DELGADA 1500CCBOL     1
RC0001044436459H202100015132527100015132527102/12/20212128    3150051523742196425000020816000001096410000000000000                                                                          LINER PARED DELGADA 1500CCBOL     1
RC0001044436459H202100015132527100015132527102/12/20212128    3150051523742196425000011142100000972270000000000000                                                            GORRITO NEO BABY FLOW TALLA L REF 841853SOB     1
