NV0000170258691H202100015132526900015132526902/12/20211422    3190305023742196425000043995200000229010000000000000                                                               HUMIDIFICADOR PARA OXIGENO REF. H001BBOL     1
NV0000170258691H202100015132526900015132526902/12/20211422    31903050237421964250000Q1A14600000258030000000000000                                                                     CANULA OXIGENO NEONATAL GAFITASSIN     1
NV0000170258691H202100015132526900015132526902/12/20211422    31903050237421964250000E1BA0100000198890000000000000                                                                   AGUA ESTERIL USP SLN INY X 500 MLBIN     2
