CC0000042208823H202100000556465300000556465302/12/20211305     3300009237421964250000C09CA400001277130000000000000                                                                                  LOSARTAN TAB 50 MGTAB     4
CC0000042208823H202100000556465300000556465302/12/20211305     3300009237421964250000H02AB700000585860000000000000                                                                HIDROCORTISONA SUCCI POL LIOF 100 MGVAL     2
CC0000042208823H202100000556465300000556465302/12/20211305     3300009237421964250000J01DD500001239970000000000000                                                                  CEFTRIAXONA POLVO LIOF SLN INY 1 GVAL     2
CC0000042208823H202100000556465300000556465302/12/20211306     3300009237421964250000N2BB0100001672010000000000000                                  DIPIRONA 1GR/2ML(0.5GR/ML) SOL INY INST CAJ X 100AMP X 2ML VITALISAMP     3
CC0000042208823H202100000556465300000556465302/12/20211305     3300009237421964250000N2BB0100001672010000000000000                                  DIPIRONA 1GR/2ML(0.5GR/ML) SOL INY INST CAJ X 100AMP X 2ML VITALISAMP     3
CC0000042208823H202100000556465300000556465302/12/20211305     3300009237421964250000N06A1500001316440000000000000                                                                            SERTRALINA Tab 50 mg /R/TAB     1
CC0000042208823H202100000556465300000556465302/12/20210302     3300004237421964250000N05BA100001303610000000000000                                                                                  LORAZEPAM TAB 2 MGTAB     1
