CC0000002930060H202100015012621600015012621602/12/20211743    3190310223742196425000030161400001459220000000000000                                                                       MANGUERA SUCCION 6 MM*3.1 MTSSOB     1
CC0000002930060H202100015012621600015012621602/12/20211743    3190310223742196425000038569400000256750000000000000                                                                        SONDA ASPIRACION CONTROL #14SIN     4
CC0000002930060H202100015012621600015012621602/12/20211743    3190310223742196425000035802000001014670000000000000                                                                        NEBULIZADOR C/MASCARA ADULTOBOL     1
CC0000002930060H202100015012621600015012621602/12/20211743    3190310223742196425000024674000001138340000000000000   JERINGA 3PARTES C/A 10ML REF JEHL005 CAJ X 100 ALFASAFE  21GX1 PULG 1/2 PULG BN EXENTO-DC.417/202PZA     2
CC0000002930060H202100015012621600015012621602/12/20211743    3190310223742196425000011069600001466740000000000000                                                                                      NIPLE PLASTICOPZA     1
CC0000002930060H202100015012621600015012621602/12/20211743    3190310223742196425000020816000001096410000000000000                                                                          LINER PARED DELGADA 1500CCBOL     2
CC0000002930060H202100015012621600015012621602/12/20211743    31903102237421964250000E1AB0200000199290000000000000                                                            SOLUCION SALINA 0.9% SLN INY BO X 100 MLBIN     1
