RC0001140714746H202100000556486200000556486202/12/20211259    31903313237421964250000A7CA0200000552520000000000000                                                                        SALYDRAT ORAL SOBRE X 20.6 GSOB     4
RC0001140714746H202100000556486200000556486202/12/20211259    31903313237421964250000N2BE1100000836430000000000000                                             ACETAMINOFEN 150MG/5ML(3%) JBE INST FCO X 60ML AMER GENCAJ     1
RC0001140714746H202100000556486200000556486202/12/20211259    31903313237421964250000J01CR300003913920000000000000                                                     AUROTAZ-P (4+0.5)GR POLV INY CAJ X 1VIAL X 50MLVAL     1
RC0001140714746H202100000556486200000556486202/12/20211259    31903313237421964250000N2AX0900001672040000000000000                                                                              TRAMADOL SLN INY 50 MGAMP     1
