CC0001194968650U202100000556494200000556494202/12/20211646     3300010239421964320000A3BB0200000512940000000000000                                                                          BUSCAPINA SIMPLE Iny 20 mgAMP     1
CC0001194968650U202100000556494200000556494202/12/20211829    31903175239421964320000E1AD0300000199490000000000000                                         LACTATO RINGER USP (HARTMANN)  SOL INY  BOL X 1000ML BAXTERBIN     1
CC0001194968650U202100000556494200000556494202/12/20211646     3300010239421964320000N02B1100001464120000000000000                                           PARACETAMOL EP 1000MG/100ML(10MG/ML) SOL INY  CAJ X 10FCOVAL     1
