CC0001140828821H202100000556459200000556459202/12/20212254     3300004237421964250000A3BB0200000512940000000000000                                                                          BUSCAPINA SIMPLE Iny 20 mgAMP     1
CC0001140828821H202100000556459200000556459202/12/20211657     3300009237421964250000A06AD100001193740000000000000                                                                      CONTUMAX 3350 SOBRE X 17 G /R/SOB     2
CC0001140828821H202100000556459200000556459202/12/20212255     3300004237421964250000A03AX200001391380000000000000                                                                              ALEVIAN CAP 100/300 MGCAP     4
CC0001140828821H202100000556459200000556459202/12/20211658     3300009237421964250000B01A0600000216800000000000000                                                                   ARIXTRA SLN INY 2.5 MG/0.5 ML /R/SIN     1
CC0001140828821H202100000556459200000556459202/12/20211657     3300009237421964250000B01A0600000216800000000000000                                                                   ARIXTRA SLN INY 2.5 MG/0.5 ML /R/SIN     1
CC0001140828821H202100000556459200000556459202/12/20211806    31500082237421964250000E1AB0200000199290000000000000                                                            SOLUCION SALINA 0.9% SLN INY BO X 100 MLBIN     1
CC0001140828821H202100000556459200000556459202/12/20211048    31500082237421964250000E1AB0300003888390000000000000                                                            SOLUCION SALINA 0.9% SLN INY BO X 500 MLBOL     2
CC0001140828821H202100000556459200000556459202/12/20210038    31500107237421964250000E1AB0300003888390000000000000                                                            SOLUCION SALINA 0.9% SLN INY BO X 500 MLBOL     1
CC0001140828821H202100000556459200000556459202/12/20211907     3300009237421964250000C3CA0200000195520000000000000                                                                           LASIX SLN INY 20 MG/ 2 MLAMP     2
CC0001140828821H202100000556459200000556459202/12/20211658     3300009237421964250000C3DA0100001278020000000000000                                                                                 ALDACTONE TAB 25 MGTAB     1
CC0001140828821H202100000556459200000556459202/12/20211659     3300009237421964250000H03A0900001278900000000000000                                                                                   EUTIROX TB 75 MCGTAB     1
CC0001140828821H202100000556459200000556459202/12/20211656     3300009237421964250000J1KF0200001677230000000000000                                                                      MERONEM POLVO SLN INY 1 G  /R/VAL     3
CC0001140828821H202100000556459200000556459202/12/20210034     3300009237421964250000J1KF0200001677230000000000000                                                                      MERONEM POLVO SLN INY 1 G  /R/VAL     1
CC0001140828821H202100000556459200000556459202/12/20210034     3300009237421964250000J3BA0500001278190000000000000                                                                            BACTRIM F TAB 800/160 MGTAB     1
CC0001140828821H202100000556459200000556459202/12/20211656     3300009237421964250000J01XA400001212420000000000000                                                               VANCOMICINA POLVO LIOF SLN INY 500 MGVAL     4
CC0001140828821H202100000556459200000556459202/12/20212254     3300004237421964250000N2AX0400001204140000000000000                                                                             TRAMAL Sln Iny 50 mg/mlAMP     1
CC0001140828821H202100000556459200000556459202/12/20211658     3300009237421964250000N2AX0400001204140000000000000                                                                             TRAMAL Sln Iny 50 mg/mlAMP     1
CC0001140828821H202100000556459200000556459202/12/20211657     3300009237421964250000N2BB0200000513030000000000000                                                                           LISALGIL Sln Iny 2 g/5 mlAMP     2
CC0001140828821H202100000556459200000556459202/12/20211656     3300009237421964250000N2BB0200000513030000000000000                                                                           LISALGIL Sln Iny 2 g/5 mlAMP     4
CC0001140828821H202100000556459200000556459202/12/20211657     3300009237421964250000N02B1100001464120000000000000                                           PARACETAMOL EP 1000MG/100ML(10MG/ML) SOL INY  CAJ X 10FCOVAL     3
CC0001140828821H202100000556459200000556459202/12/20211657     3300009237421964250000N05A0500001336370000000000000                                                                              SEROQUEL TAB 25 MG /R/TAB     1
CC0001140828821H202100000556459200000556459202/12/20211048    31500082237421964250000V07A1300000502600000000000000                                                                                AGUA ESTERIL x 10 mlAMP    10
