CC0000022344320U202100050131882600050131882602/12/20210631    3150039423942196432000024674000001138340000000000000   JERINGA 3PARTES C/A 10ML REF JEHL005 CAJ X 100 ALFASAFE  21GX1 PULG 1/2 PULG BN EXENTO-DC.417/202PZA     2
CC0000022344320U202100050131882600050131882602/12/20210631    3150039423942196432000011082700001620070000000000000                                                               EQUIPO SET PRIMARIO C/CLAVE REF 14001BOL     2
CC0000022344320U202100050131882600050131882602/12/20210631    3150039423942196432000001956000001620610000000000000                                                                      CONECTOR MICRO CLAVE LAT-MC100SOB     2
CC0000022344320U202100050131882600050131882602/12/20210631    31500394239421964320000Q1AA7200000610630000000000000                                                            CATETER PERIFE INTROCAN # 20G 4251644-04SIN     2
CC0000022344320U202100050131882600050131882602/12/20210631    3150039423942196432000030936900001431840000000000000                                                                                              BURETABOL     2
CC0000022344320U202100050131882600050131882602/12/20210631    3150039423942196432000016830000000970620000000000000                                                             SIST FIJACION CAT PERIFERICO 6.5X7 1683SOB     2
CC0000022344320U202100050131882600050131882602/12/20210631    31500394239421964320000E1AD0300000199490000000000000                                         LACTATO RINGER USP (HARTMANN)  SOL INY  BOL X 1000ML BAXTERBIN     3
CC0000022344320U202100050131882600050131882602/12/20210631    3150039423942196432000011137100001419310000000000000                                                               TIRA GLUCOMETRIA FREESTYLE H OPTIUM .PZA     1
