CC0000000800641H202100000556480900000556480902/12/20211054     3300009237421964250000A2BC0900000200150000000000000                                                                               ORAZOLE Sln Iny 40 mgCIN     1
CC0000000800641H202100000556480900000556480902/12/20211054     3300009237421964250000B1AB0200003939510000000000000                 ENOXAPARINA SODICA 40MG/0.4ML(100MG/ML) SOL INY INST CAJ X 2JERPREL X 0.4ML TECHDOWJRP     1
CC0000000800641H202100000556480900000556480902/12/20211054     3300009237421964250000H03A0900001278900000000000000                                                                                   EUTIROX TB 75 MCGTAB     1
CC0000000800641H202100000556480900000556480902/12/20211054     3300009237421964250000N3AG0300001314710000000000000                                                                              VALCOTE TAB 250 MG /R/TAB     1
CC0000000800641H202100000556480900000556480902/12/20211054     3300009237421964250000N03A1200001277430000000000000                                                                               KEPPRA TAB 500 MG /R/TAB     2
CC0000000800641H202100000556480900000556480902/12/20211558     3300009237421964250000N03AX200001063780000000000000                                                                      KEPPRA SLN INY 500 MG/5 ML /R/VAL     2
CC0000000800641H202100000556480900000556480902/12/20211054     3300009237421964250000N03AX200001063780000000000000                                                                      KEPPRA SLN INY 500 MG/5 ML /R/VAL     1
CC0000000800641H202100000556480900000556480902/12/20211054     3300009237421964250000A11A2200001050880000000000000                                                                 GLUCERNA LIQUIDO 1.5 KCAL X 1000 MLFCO     1
CC0000000800641H202100000556480900000556480902/12/20211054     3300009237421964250000B05B2500001052320000000000000                                                                     PERIOLIMEL BOLSA X 1500 ML (N4)BOL     1
