CC0001045695154U202100000556472700000556472702/12/20211629    31500188239421964320000E1AB0300003888390000000000000                                                            SOLUCION SALINA 0.9% SLN INY BO X 500 MLBOL     1
CC0001045695154U202100000556472700000556472702/12/20210912    31903175239421964320000E1AB0300003888390000000000000                                                            SOLUCION SALINA 0.9% SLN INY BO X 500 MLBOL     1
CC0001045695154U202100000556472700000556472702/12/20211350     3300010239421964320000H2AB0100000562660000000000000                                                                    BETAMETASONA SLN INY 8 MG / 2 MLAMP     2
CC0001045695154U202100000556472700000556472702/12/20211350     3300010239421964320000A12CC100001690470000000000000                                                                  MAGNESIO SULFATO 20% SLN INY 10 MLAMP     5
CC0001045695154U202100000556472700000556472702/12/20210833     3300010239421964320000A03BB100003889180000000000000                                      HIOSCINA BUTIL BROMURO 20MG/ML SOL INY CAJ X 100AMP X 1ML RYANAMP     1
CC0001045695154U202100000556472700000556472702/12/20210833     3300010239421964320000N2BE2200001252930000000000000                                                                             ACETAMINOFEN Tab 500 MGTAB     2
