CC0001125639473A202100000027818200000027818202/12/20211846    3190333624042196419000001956000001620610000000000000                                                                      CONECTOR MICRO CLAVE LAT-MC100SOB     1
CC0001125639473A202100000027818200000027818202/12/20211846    31903336240421964190000Q1AA7200000610630000000000000                                                            CATETER PERIFE INTROCAN # 20G 4251644-04SIN     1
CC0001125639473A202100000027818200000027818202/12/20211846    3190333624042196419000031010900000762730000000000000                                                                          CANULA GUEDEL # 4 (100 MM)SOB     1
CC0001125639473A202100000027818200000027818202/12/20211846    31903336240421964190000A2BC0900000200150000000000000                                                                               ORAZOLE Sln Iny 40 mgCIN     1
CC0001125639473A202100000027818200000027818202/12/20211846    3190333624042196419000024675000001585130000000000000                                                                    JERINGA DESECHABLE 50 ml S/AGUJASOB     1
CC0001125639473A202100000027818200000027818202/12/20211846    31903336240421964190000E1AB0700003888350000000000000                                                            SOLUCION SALINA 0.9% SLN INY BO X 250 MLBOL     1
CC0001125639473A202100000027818200000027818202/12/20211846    31903336240421964190000A4AD0200000202990000000000000                                                                     PLITICAN HCL Sln Iny 50 mg/2 mlAMP     1
CC0001125639473A202100000027818200000027818202/12/20211846    3190333624042196419000011047900000223010000000000000                                                                            JERINGA X 1ML REF 302579SIN     1
CC0001125639473A202100000027818200000027818202/12/20211846    3190333624042196419000045138000001413890000000000000                                                                       LAPIZ ELECTROBISTURI  SOB X 1SOB     1
CC0001125639473A202100000027818200000027818202/12/20211846    3190333624042196419000015944100000233310000000000000                                                                              CAPROFYL 3/0 SH CF122TSIN     1
CC0001125639473A202100000027818200000027818202/12/20211846    3190333624042196419000015944000000632490000000000000                                                                           MONOCRYL 3-0 PS2  MCP427HSIN     1
CC0001125639473A202100000027818200000027818202/12/20211846    3190333624042196419000043879400001138170000000000000                                                                  HOJA BISTURI # 10 CSSB 10 01002000SOB     1
CC0001125639473A202100000027818200000027818202/12/20211846    3190333624042196419000020750600000296780000000000000                                                                PLACA ELECTRO RETORNO PACIENTE E7506SIN     1
CC0001125639473A202100000027818200000027818202/12/20211846    3190333624042196419000000101000001101640000000000000                                                                  AGUJA DESECHABLE  23G X 1 1/2 PULGSOB     1
CC0001125639473A202100000027818200000027818202/12/20211846    31903336240421964190000S1GA0800000858210000000000000                                                                       AFRIN 0.05% SLN NASAL X 15 MLFCO     1
CC0001125639473A202100000027818200000027818202/12/20211846    31903336240421964190000A12CA200001239800000000000000                     BICARBONATO SODIO 10MEQ/10ML(1MEQ/ML) SOL INY  CAJ X 100AMPX10ML FRESENIUS KABIAMP     1
CC0001125639473A202100000027818200000027818202/12/20211846    31903336240421964190000N1BA2400001687720000000000000                                                    LIDOCAINA 2% SOL INY  CAJ X 50AMP X 10ML CORPAULAMP     5
CC0001125639473A202100000027818200000027818202/12/20211846    3190333624042196419000012475500000232250000000000000                                                                 SUTURA ETHILON 5-0 PS-2 45CM P1666TSIN     1
CC0001125639473A202100000027818200000027818202/12/20211846    3190333624042196419000011018600000231910000000000000                                                                  CATGUT CROMADO 4-0 AGUJA RB1 U203TSIN     1
CC0001125639473A202100000027818200000027818202/12/20211846    3190333624042196419000045723600000271070000000000000                                                                          MECHA NASAL ESTERIL 3/8*24SOB     1
CC0001125639473A202100000027818200000027818202/12/20211846    3190333624042196419000043879100001138200000000000000                                                                  HOJA BISTURI # 15 CSSB 15 01002003SOB     1
CC0001125639473A202100000027818200000027818202/12/20211846    3190333624042196419000027298000003914660000000000000  CATETER ANESTESIA EPIDURAL REF 4513150 CAJ X 25 PERIFIX B BRAUN 18G X 1000MM BN EXENTO-DC.417/2020SOB     1
CC0001125639473A202100000027818200000027818202/12/20211846    31903336240421964190000Q1A13500001585200000000000000                        JERINGA PUNTA CAT SIN AGUJA REF 309620 CAJ X 40   50ML BN EXENTO-DC.417/2020SOB     1
CC0001125639473A202100000027818200000027818202/12/20211846    3190333624042196419000012474000000232230000000000000                                                                SUTURA ETHILON 4-0 SC-20 45CM 14502TSIN     2
CC0001125639473A202100000027818200000027818202/12/20211846    3190333624042196419000043879200001138180000000000000                                                                                   HOJA BISTURI # 11SOB     2
CC0001125639473A202100000027818200000027818202/12/20211846    31903336240421964190000R3CA0400000777470000000000000                                                               ADRENALINA HCL SLN INY 1 MG / ML RYANAMP     7
CC0001125639473A202100000027818200000027818202/12/20211846    3190333624042196419000016830000000970620000000000000                                                             SIST FIJACION CAT PERIFERICO 6.5X7 1683SOB     2
CC0001125639473A202100000027818200000027818202/12/20211846    31903336240421964190000Q1AA7100000610620000000000000                                                            CATETER PERIFE INTROCAN # 18G 4251687-04SIN     1
CC0001125639473A202100000027818200000027818202/12/20211846    3190333624042196419000035356500003919000000000000000                                                                                        LLAVE 3 VIASSOB     1
CC0001125639473A202100000027818200000027818202/12/20211846    3190333624042196419000022425200000548240000000000000                       EXTENSION DE ANESTESIA REF 1139 SOB X 1 SHERLEG  ADULTO BN EXENTO-DC.417/2020SIN     1
CC0001125639473A202100000027818200000027818202/12/20211846    3190333624042196419000022426800001140510000000000000                                                                    EQUIPO MACROGOTEO BAXTER MRC0001SOB     1
CC0001125639473A202100000027818200000027818202/12/20211846    3190333624042196419000024674000001138340000000000000   JERINGA 3PARTES C/A 10ML REF JEHL005 CAJ X 100 ALFASAFE  21GX1 PULG 1/2 PULG BN EXENTO-DC.417/202PZA     7
CC0001125639473A202100000027818200000027818202/12/20211846    3190333624042196419000024673600000222980000000000000                                                                     JERINGA DESECHABLE 5 ml 27*11/2SIN     3
CC0001125639473A202100000027818200000027818202/12/20211846    3190333624042196419000024673000001411210000000000000                                                                  JERINGA DESECHABLE 3 ML 21 X 1 1/2SOB     4
CC0001125639473A202100000027818200000027818202/12/20211846    3190333624042196419000053074400000607910000000000000                                                               GASA ESTERIL 10*10 SOBRE X 3 UNIDADESSOB     7
CC0001125639473A202100000027818200000027818202/12/20211846    3190333624042196419000038568100000258050000000000000                                                                         CANULA OXIGENO NASAL ADULTOSIN     1
CC0001125639473A202100000027818200000027818202/12/20211846    3190333624042196419000011085300001082140000000000000                                                                           GUANTE QUIRURGICO TALLA 8SOB     1
CC0001125639473A202100000027818200000027818202/12/20211846    3190333624042196419000011085200001585390000000000000                                                                       GUANTE QUIRURGICO TALLA 7 1/2SOB     2
CC0001125639473A202100000027818200000027818202/12/20211846    3190333624042196419000011085100001082120000000000000                                                                           GUANTE QUIRURGICO TALLA 7SOB     2
CC0001125639473A202100000027818200000027818202/12/20211846    3190333624042196419000043485100001618510000000000000                GUANTE QUIRURGICO DE LATEX REF 2D72N65X CAJ X 50 PROTEXIS  6.5 BN EXENTO-DC.417/2020SOB     5
CC0001125639473A202100000027818200000027818202/12/20211846    3190333624042196419000033485000001049200000000000000                                                                           GUANTE QUIRURGICO TALLA 6SOB     2
CC0001125639473A202100000027818200000027818202/12/20211846    3190333624042196419000020058100001101630000000000000                                                                     AGUJA HIPODERMICA DESECH 23 X 1SOB     1
CC0001125639473A202100000027818200000027818202/12/20211846    3190333624042196419000000100600000223090000000000000                                                                      AGUJA DESECHABLE 18G X 1 1/2 PSIN     2
CC0001125639473A202100000027818200000027818202/12/20211846    31903336240421964190000E1AD0200003888320000000000000                                                                              HARTMAN SLN INY 500 MLBOL     2
CC0001125639473A202100000027818200000027818202/12/20211846    31903336240421964190000E1AB0500003888400000000000000                                                              SOLUCION SALINA 0.9% SLN INY X 1000 MLBOL     5
CC0001125639473A202100000027818200000027818202/12/20211846    31903336240421964190000E1AB0300003888390000000000000                                                            SOLUCION SALINA 0.9% SLN INY BO X 500 MLBOL     6
CC0001125639473A202100000027818200000027818202/12/20211846    31903336240421964190000J01DA300001239950000000000000                                                            CEFAZOLINA SODICA POLVO LIOF SLN INY 1 GVAL     2
CC0001125639473A202100000027818200000027818202/12/20211846    31903336240421964190000B02AA100001407470000000000000                                                                    CLINTRANEX SLN INY 500 MG / 5 MLAMP     2
CC0001125639473A202100000027818200000027818202/12/20211846    31903336240421964190000N1AH0200003906560000000000000                                                                     FENTANIL Iny 0.05 mg/ml x 10 mlAMP     1
CC0001125639473A202100000027818200000027818202/12/20211846    31903336240421964190000N5CD0300000218170000000000000                                                              DORMICUM IV-IM 5MG/5ML(1MG/ML) SOL INYAMP     2
CC0001125639473A202100000027818200000027818202/12/20211846    31903336240421964190000M01A0400001341250000000000000                                                                              DYNASTAT AMP 40 MG /R/VAL     1
CC0001125639473A202100000027818200000027818202/12/20211846    31903336240421964190000H02AB500001664950000000000000                                                            DEXAMETASONA SLN INY 8 MG/2 ML AMP /CDS/AMP     1
CC0001125639473A202100000027818200000027818202/12/20211846    31903336240421964190000N01B0600003888900000000000000                                                    BUPINEST 75MG/10ML(0.75%) SOL INY CAJ X 24AMPACKAPC     2
CC0001125639473A202100000027818200000027818202/12/20211846    31903336240421964190000N01B0200003888110000000000000                                           ROXICAINA SE 100MG/10ML(1%) SOL INY CAJ X 24AMPACK X 10MLAPC     2
CC0001125639473A202100000027818200000027818202/12/20211846    31903336240421964190000A3BA0100001109400000000000000                                                                          ATROPINA SLN INY 1 MG / MLAMP     1
