CC0000013887621H202100015112729700015112729702/12/20210856    3190294123742196425000038569400000256750000000000000                                                                        SONDA ASPIRACION CONTROL #14SIN     8
CC0000019490174H202100015112729700015112729702/12/20210856    3190294123742196425000038569400000256750000000000000                                                                        SONDA ASPIRACION CONTROL #14SIN     8
CC0000013887621H202100015112729700015112729702/12/20210856    3190294123742196425000036441300000236540000000000000                                                                    JERINGA 1 ML GASES ARTERIAL 9023SIN     5
CC0000019490174H202100015112729700015112729702/12/20210856    3190294123742196425000036441300000236540000000000000                                                                    JERINGA 1 ML GASES ARTERIAL 9023SIN     5
CC0000008257979H202100015112729700015112729702/12/20210856    3190294123742196425000036441300000236540000000000000                                                                    JERINGA 1 ML GASES ARTERIAL 9023SIN     3
CC0000013887621H202100015112729700015112729702/12/20210856    3190294123742196425000024674000001138340000000000000   JERINGA 3PARTES C/A 10ML REF JEHL005 CAJ X 100 ALFASAFE  21GX1 PULG 1/2 PULG BN EXENTO-DC.417/202PZA     5
CC0000019490174H202100015112729700015112729702/12/20210856    3190294123742196425000024674000001138340000000000000   JERINGA 3PARTES C/A 10ML REF JEHL005 CAJ X 100 ALFASAFE  21GX1 PULG 1/2 PULG BN EXENTO-DC.417/202PZA     5
CC0000013887621H202100015112729700015112729702/12/20210856    3190294123742196425000011089100001083330000000000000                                                              GUANTE ESTERIL LATEX S/POLVO TALLA 6.5SOB     8
CC0000019490174H202100015112729700015112729702/12/20210856    3190294123742196425000011089100001083330000000000000                                                              GUANTE ESTERIL LATEX S/POLVO TALLA 6.5SOB     8
CC0000019490174H202100015112729700015112729702/12/20210856    3190294123742196425000013077800000471960000000000000                                                             GASA NO TEJIDA EST 7.5 X 7.5 SOB X 3 UNSOB     8
CC0000013887621H202100015112729700015112729702/12/20210856    3190294123742196425000011084700000516550000000000000                                                                FILTRO CALOR-HUMEDAD AD REF 352/5877SIN     1
CC0000019490174H202100015112729700015112729702/12/20210856    3190294123742196425000011084700000516550000000000000                                                                FILTRO CALOR-HUMEDAD AD REF 352/5877SIN     1
CC0000013887621H202100015112729700015112729702/12/20210856    31902941237421964250000E1AB0200000199290000000000000                                                            SOLUCION SALINA 0.9% SLN INY BO X 100 MLBIN     4
CC0000019490174H202100015112729700015112729702/12/20210856    31902941237421964250000E1AB0200000199290000000000000                                                            SOLUCION SALINA 0.9% SLN INY BO X 100 MLBIN     4
