TI0001013261854H202100000556492600000556492602/12/20211633     3300009237421964250000A4AD0200000202990000000000000                                                                     PLITICAN HCL Sln Iny 50 mg/2 mlAMP     4
TI0001013261854H202100000556492600000556492602/12/20211633     3300009237421964250000B1AB0300003939210000000000000                 ENOXAPARINA SODICA 20MG/0.2ML(100MG/ML) SOL INY INST CAJ X 2JERPREL X 0.2ML TECHDOWJRP     1
TI0001013261854H202100000556492600000556492602/12/20211902    31903259237421964250000E1AB0300003888390000000000000                                                            SOLUCION SALINA 0.9% SLN INY BO X 500 MLBOL     1
TI0001013261854H202100000556492600000556492602/12/20211607     3300009237421964250000A3BB0300000512950000000000000                                                             BUSCAPINA COMP Sln Iny 20 mg+2.5 g/5 mlAMP     4
TI0001013261854H202100000556492600000556492602/12/20211606     3300009237421964250000A3BB0300000512950000000000000                                                             BUSCAPINA COMP Sln Iny 20 mg+2.5 g/5 mlAMP     1
TI0001013261854H202100000556492600000556492602/12/20211633     3300009237421964250000A02BC700001684270000000000000                                                            OMEPRAZOL 40MG POLVO LIOFILIZADO AMPOLLAVAL     3
TI0001013261854H202100000556492600000556492602/12/20211630    31903310237421964250000V07A1300000502600000000000000                                                                                AGUA ESTERIL x 10 mlAMP     8
