CC0000028496269H202100015112731400015112731402/12/20211948    3190265123742196425000001956000001620610000000000000                                                                      CONECTOR MICRO CLAVE LAT-MC100SOB     1
CC0000028496269H202100015112731400015112731402/12/20211948    31902651237421964250000Q1AA7300000610640000000000000                                                            CATETER PERIFE INTROCAN # 22G 4251628-04SIN     2
CC0000028496269H202100015112731400015112731402/12/20211948    3190265123742196425000016830000000970620000000000000                                                             SIST FIJACION CAT PERIFERICO 6.5X7 1683SOB     1
CC0001066890191H202100015112731400015112731402/12/20211948    3190265123742196425000011127400001413910000000000000                                                            EQUIPO ADMINIST NUTR PUNZON REF 674669 BBOL     1
CC0000028496269H202100015112731400015112731402/12/20211948    3190265123742196425000011127400001413910000000000000                                                            EQUIPO ADMINIST NUTR PUNZON REF 674669 BBOL     1
