CC0000008783581H202100015012619700015012619702/12/20210212    3190294923742196425000045136100001419300000000000000                                                                            LANCETA DEXTROMETER X UNPZA     3
CC0000022548883H202100015012619700015012619702/12/20210212    3190294923742196425000024674000001138340000000000000   JERINGA 3PARTES C/A 10ML REF JEHL005 CAJ X 100 ALFASAFE  21GX1 PULG 1/2 PULG BN EXENTO-DC.417/202PZA     5
CC0000022548883H202100015012619700015012619702/12/20210212    3190294923742196425000022426800001140510000000000000                                                                    EQUIPO MACROGOTEO BAXTER MRC0001SOB     1
CC0000022548883H202100015012619700015012619702/12/20210212    3190294923742196425000030936900001431840000000000000                                                                                              BURETABOL     1
CC0000008783581H202100015012619700015012619702/12/20210212    31902949237421964250000E1AD0300000199490000000000000                                         LACTATO RINGER USP (HARTMANN)  SOL INY  BOL X 1000ML BAXTERBIN     1
CC0000022548883H202100015012619700015012619702/12/20210212    31902949237421964250000E1AB0300003888390000000000000                                                            SOLUCION SALINA 0.9% SLN INY BO X 500 MLBOL     1
CC0000008783581H202100015012619700015012619702/12/20210212    3190294923742196425000011137100001419310000000000000                                                               TIRA GLUCOMETRIA FREESTYLE H OPTIUM .PZA     3
