CC0000084070288U202100000556480400000556480402/12/20211048     3300010239421964320000J7AA0600001602890000000000000                                                            VACUNA ANTITETANICA SUSP INY 40 UI/0.5MLVAL     1
CC0000084070288U202100000556480400000556480402/12/20211052     3300010239421964320000M1AB4000000829860000000000000                                                                          MOBIC SLN INY 15 MG/1.5 MLAMP     1
CC0000084070288U202100000556480400000556480402/12/20211048     3300010239421964320000N01B0200003888110000000000000                                           ROXICAINA SE 100MG/10ML(1%) SOL INY CAJ X 24AMPACK X 10MLAPC     1
