TI0001066284726H202100000556459000000556459002/12/20211038    31500082237421964250000E1AC0100000199400000000000000                                                                          SUERO MIXTO Sln Iny 500 mlBIN     6
TI0001066284726H202100000556459000000556459002/12/20210039    31500107237421964250000E1AC0100000199400000000000000                                                                          SUERO MIXTO Sln Iny 500 mlBIN     1
TI0001066284726H202100000556459000000556459002/12/20211407    31902056237421964250000E1AB0300003888390000000000000                                                            SOLUCION SALINA 0.9% SLN INY BO X 500 MLBOL     2
TI0001066284726H202100000556459000000556459002/12/20211105     3300009237421964250000A12BA100000552980000000000000                                                            CLORURO POTASIO Sln Iny AMP 20 MEQ/10 MLAMP     5
TI0001066284726H202100000556459000000556459002/12/20211106     3300009237421964250000H02A0100001664960000000000000                                                                        DEXAMETASONA SLN INY 4 MG/MLAMP     2
TI0001066284726H202100000556459000000556459002/12/20211105     3300009237421964250000H02A0100001664960000000000000                                                                        DEXAMETASONA SLN INY 4 MG/MLAMP     4
TI0001066284726H202100000556459000000556459002/12/20210849     3300009237421964250000L1BC8000003907750000000000000                                           CITARABINA 500MG/5ML(100MG/ML) SOL INY VIAL X 5ML ROPSOHNVAL     1
TI0001066284726H202100000556459000000556459002/12/20210848     3300009237421964250000L1BC8000003907750000000000000                                           CITARABINA 500MG/5ML(100MG/ML) SOL INY VIAL X 5ML ROPSOHNVAL    11
TI0001066284726H202100000556459000000556459002/12/20211654     3300009237421964250000A04AA200003932460000000000000                                                 ONDAX 4MG/2ML(2MG/ML) SOL INY INST CAJ X 1AMP X 2MLAMP    11
TI0001066284726H202100000556459000000556459002/12/20210033     3300009237421964250000A04AA200003932460000000000000                                                 ONDAX 4MG/2ML(2MG/ML) SOL INY INST CAJ X 1AMP X 2MLAMP     2
