CC0000008530442H202100015112730300015112730302/12/20211443    3190311023742196425000030161400001459220000000000000                                                                       MANGUERA SUCCION 6 MM*3.1 MTSSOB     2
CC0000008530442H202100015112730300015112730302/12/20211443    3190311023742196425000039176700001029620000000000000                                                                    SUJETADOR TUBO ENDOTRAQUEAL 9799SOB     1
CC0000008530442H202100015112730300015112730302/12/20211443    3190311023742196425000038569400000256750000000000000                                                                        SONDA ASPIRACION CONTROL #14SIN    10
CC0000008530442H202100015112730300015112730302/12/20211443    3190311023742196425000022108000003906060000000000000                                                            SIST CERRAD ASPIRAC TRACH  22108-5 14 FRSOB     1
CC0000008530442H202100015112730300015112730302/12/20211443    3190311023742196425000055816100001138270000000000000                                                            SET VENTILACI BASIC AD MP00349 180CM*22MBOL     1
CC0000008530442H202100015112730300015112730302/12/20211443    3190311023742196425000010252000003981620000000000000                                                            RESUCITADOR MANUAL ADULTO BE - 2503 AMBUBOL     1
CC0000008530442H202100015112730300015112730302/12/20211443    3190311023742196425000036441300000236540000000000000                                                                    JERINGA 1 ML GASES ARTERIAL 9023SIN     8
CC0000008530442H202100015112730300015112730302/12/20211443    3190311023742196425000011084700000516550000000000000                                                                FILTRO CALOR-HUMEDAD AD REF 352/5877SIN     1
CC0000008530442H202100015112730300015112730302/12/20211443    3190311023742196425000020816000001096410000000000000                                                                          LINER PARED DELGADA 1500CCBOL     1
CC0000008530442H202100015112730300015112730302/12/20211443    3190311023742196425000000601300001271960000000000000                                                               APOSITO DUODERM CGF  187661 (15X15)CMSOB     1
