CC0000032861380H202100919433120200919433120202/12/20210528    3190302323742196425000049428400000738560000000000000                                                                       VENDA ELASTICA 5*5 NO ESTERILSOB     2
CC0000032861380H202100919433120200919433120202/12/20210956    3190325423742196425000011137100001419310000000000000                                                               TIRA GLUCOMETRIA FREESTYLE H OPTIUM .PZA     6
CC0000032861380H202100919433120200919433120202/12/20210956    3190325423742196425000024674000001138340000000000000   JERINGA 3PARTES C/A 10ML REF JEHL005 CAJ X 100 ALFASAFE  21GX1 PULG 1/2 PULG BN EXENTO-DC.417/202PZA     6
CC0000032861380H202100919433120200919433120202/12/20210956    3190325423742196425000045136100001419300000000000000                                                                            LANCETA DEXTROMETER X UNPZA     6
CC0000032861380H202100919433120200919433120202/12/20211136    3150012023742196425000024674000001138340000000000000   JERINGA 3PARTES C/A 10ML REF JEHL005 CAJ X 100 ALFASAFE  21GX1 PULG 1/2 PULG BN EXENTO-DC.417/202PZA     6
CC0000032861380H202100919433120200919433120202/12/20211136    3150012023742196425000011137100001419310000000000000                                                               TIRA GLUCOMETRIA FREESTYLE H OPTIUM .PZA     6
CC0000032861380H202100919433120200919433120202/12/20211136    3150012023742196425000045136100001419300000000000000                                                                            LANCETA DEXTROMETER X UNPZA     6
