CC0000007403900H202100000556461800000556461802/12/20211022     3300009237421964250000A02B0600001277230000000000000                                                                                NEXIUM Tab 40 mg /R/TAB     1
CC0000007403900H202100000556461800000556461802/12/20211023     3300009237421964250000A6AC0200001467010000000000000                                                             LACTULAX JARABE 66.7G/100ML SOX15ML /R/SOB     1
CC0000007403900H202100000556461800000556461802/12/20211023     3300009237421964250000C3DA0600001334560000000000000                                                                               GLUCOPHAGE Tab 500 mgTAB     2
CC0000007403900H202100000556461800000556461802/12/20210124     3300004237421964250000A10B1600001336910000000000000                                                                               TRAYENTA TAB 5 MG /R/TAB     1
CC0000007403900H202100000556461800000556461802/12/20211023     3300009237421964250000B3BB0100001351190000000000000                                                                               ACIDO FOLICO Tab 1 mgTAB     1
CC0000007403900H202100000556461800000556461802/12/20211022     3300009237421964250000B03A0100001336630000000000000                                                                          SULFATO FERROSO Tab 200 mgTAB     1
CC0000007403900H202100000556461800000556461802/12/20211023     3300009237421964250000C7AB0700001333100000000000000                                                                           BETOPROLOL TAB 100 MG /R/TAB     1
CC0000007403900H202100000556461800000556461802/12/20210123     3300004237421964250000C7AB0700001333100000000000000                                                                           BETOPROLOL TAB 100 MG /R/TAB     1
CC0000007403900H202100000556461800000556461802/12/20211023     3300009237421964250000C7FA0200001277980000000000000                                                                                    NORVAS TAB 10 MGTAB     1
CC0000007403900H202100000556461800000556461802/12/20211023     3300009237421964250000B4AD0700001277600000000000000                                                                                   LIPITOR TAB 20 MGTAB     1
CC0000007403900H202100000556461800000556461802/12/20211559     3300009237421964250000N2BE0100001276930000000000000                                                                                    DOLEX TAB 500 MGTAB     2
CC0000007403900H202100000556461800000556461802/12/20211023     3300009237421964250000N2BE0100001276930000000000000                                                                                    DOLEX TAB 500 MGTAB     8
CC0000007403900H202100000556461800000556461802/12/20211027    31903288237421964250000V07A1300000502600000000000000                                                                                AGUA ESTERIL x 10 mlAMP     4
