TI0001121302704H202100000556470400000556470402/12/20211520     3300009237421964250000A2BC0900000200150000000000000                                                                               ORAZOLE Sln Iny 40 mgCIN     1
TI0001121302704H202100000556470400000556470402/12/20210653    31500460237421964250000E1AD0300000199490000000000000                                         LACTATO RINGER USP (HARTMANN)  SOL INY  BOL X 1000ML BAXTERBIN     2
TI0001121302704H202100000556470400000556470402/12/20211520     3300009237421964250000L01XX500001336660000000000000                                                                              HYDROXYUREA CAP 500 MGCAP     1
TI0001121302704H202100000556470400000556470402/12/20212358     3300009237421964250000N02B1100001464120000000000000                                           PARACETAMOL EP 1000MG/100ML(10MG/ML) SOL INY  CAJ X 10FCOVAL     1
TI0001121302704H202100000556470400000556470402/12/20211404     3300009237421964250000N02B1100001464120000000000000                                           PARACETAMOL EP 1000MG/100ML(10MG/ML) SOL INY  CAJ X 10FCOVAL     2
TI0001121302704H202100000556470400000556470402/12/20211520     3300009237421964250000V6DB0800001286840000000000000                                                                          PEDIASURE LIQUIDO X 237 MLFCO     2
TI0001121302704H202100000556470400000556470402/12/20211044    31903291237421964250000V07A1300000502600000000000000                                                                                AGUA ESTERIL x 10 mlAMP     5
