CC0000019490174H202100000556474300000556474302/12/20212207     3300009237421964250000A7DA1400000203670000000000000                                                                          SMECTA POLVO SOBRE 3 G /R/SIN     1
CC0000019490174H202100000556474300000556474302/12/20210857     3300009237421964250000A7DA1400000203670000000000000                                                                          SMECTA POLVO SOBRE 3 G /R/SIN     2
CC0000019490174H202100000556474300000556474302/12/20210858     3300009237421964250000C3DA0500001278910000000000000                                                                               GLUCOPHAGE TAB 850 MGTAB     1
CC0000019490174H202100000556474300000556474302/12/20211513    31902941237421964250000E1AB0200000199290000000000000                                                            SOLUCION SALINA 0.9% SLN INY BO X 100 MLBIN     4
CC0000019490174H202100000556474300000556474302/12/20211130    31500128237421964250000E1AD0300000199490000000000000                                         LACTATO RINGER USP (HARTMANN)  SOL INY  BOL X 1000ML BAXTERBIN     3
CC0000019490174H202100000556474300000556474302/12/20210858     3300009237421964250000C2EA0400001278030000000000000                                                                                   RENITEC TAB 20 MGTAB     1
CC0000019490174H202100000556474300000556474302/12/20210858     3300009237421964250000N3AB1000001379310000000000000                                                                            NEURONTIN Cap 400 mg /R/CAP     1
CC0000019490174H202100000556474300000556474302/12/20212207     3300009237421964250000A11A2200001050880000000000000                                                                 GLUCERNA LIQUIDO 1.5 KCAL X 1000 MLFCO     1
CC0000019490174H202100000556474300000556474302/12/20210858     3300009237421964250000A02BC700001684270000000000000                                                            OMEPRAZOL 40MG POLVO LIOFILIZADO AMPOLLAVAL     1
CC0000019490174H202100000556474300000556474302/12/20211130    31500128237421964250000V07A1300000502600000000000000                                                                                AGUA ESTERIL x 10 mlAMP    10
