CC0001045734779U202100050131880600050131880602/12/20210146    3150039423942196432000018354100000232880000000000000                                                                  SUTURA SEDA NEGRA 3-0 KS 75CM 622HSIN     1
CC0001045734779U202100050131880600050131880602/12/20210146    3150039423942196432000038573000000256870000000000000                                                                                 SONDA NSG LEVIN #16SIN     1
CC0001045734779U202100050131880600050131880602/12/20210146    3150039423942196432000011522600000994390000000000000                                                                    SONDA FOLEY SILICONA # 18 2 VIASSOB     1
CC0001045734779U202100050131880600050131880602/12/20210146    3150039423942196432000024674000001138340000000000000   JERINGA 3PARTES C/A 10ML REF JEHL005 CAJ X 100 ALFASAFE  21GX1 PULG 1/2 PULG BN EXENTO-DC.417/202PZA    10
CC0001045734779U202100050131880600050131880602/12/20210146    3150039423942196432000043879200001138180000000000000                                                                                   HOJA BISTURI # 11SOB     1
CC0001045734779U202100050131880600050131880602/12/20210146    3150039423942196432000043485100001618510000000000000                GUANTE QUIRURGICO DE LATEX REF 2D72N65X CAJ X 50 PROTEXIS  6.5 BN EXENTO-DC.417/2020SOB     2
CC0001045734779U202100050131880600050131880602/12/20210146    3150039423942196432000011085200001585390000000000000                                                                       GUANTE QUIRURGICO TALLA 7 1/2SOB     3
CC0001045734779U202100050131880600050131880602/12/20210146    3150039423942196432000013077800000471960000000000000                                                             GASA NO TEJIDA EST 7.5 X 7.5 SOB X 3 UNSOB    20
CC0001045734779U202100050131880600050131880602/12/20210146    3150039423942196432000042753100003929850000000000000                   GASA ADHESIVA STRETCH REF 02037-00 ROL X 10MT FIXOMULL 10CM BN EXENTO-DC.417/2020CMT    10
CC0001045734779U202100050131880600050131880602/12/20210146    3150039423942196432000022426800001140510000000000000                                                                    EQUIPO MACROGOTEO BAXTER MRC0001SOB     1
CC0001045734779U202100050131880600050131880602/12/20210146    3150039423942196432000011082700001620070000000000000                                                               EQUIPO SET PRIMARIO C/CLAVE REF 14001BOL     2
CC0001045734779U202100050131880600050131880602/12/20210146    3150039423942196432000031188000000236790000000000000                                                                                     CISTOFLO ADULTOSIN     1
CC0001045734779U202100050131880600050131880602/12/20210146    3150039423942196432000001956000001620610000000000000                                                                      CONECTOR MICRO CLAVE LAT-MC100SOB     3
CC0001045734779U202100050131880600050131880602/12/20210146    3150039423942196432000021016900000227720000000000000                                                               CATETER TRILUMEN AD CS15703E 7FR*20CMSIN     1
CC0001045734779U202100050131880600050131880602/12/20210146    31500394239421964320000Q1AA7200000610630000000000000                                                            CATETER PERIFE INTROCAN # 20G 4251644-04SIN     1
CC0001045734779U202100050131880600050131880602/12/20210146    3150039423942196432000030936900001431840000000000000                                                                                              BURETABOL     1
CC0001045734779U202100050131880600050131880602/12/20210146    3150039423942196432000000602700001197200000000000000                                                              APOSITO TRANSP  1655 IV 8.5CM X 11.5CMSOB     1
CC0001045734779U202100050131880600050131880602/12/20210146    3150039423942196432000016830000000970620000000000000                                                             SIST FIJACION CAT PERIFERICO 6.5X7 1683SOB     2
CC0001045734779U202100050131880600050131880602/12/20210146    3150039423942196432000000100600000223090000000000000                                                                      AGUJA DESECHABLE 18G X 1 1/2 PSIN     1
CC0001045734779U202100050131880600050131880602/12/20210146    31500394239421964320000E1AB0300003888390000000000000                                                            SOLUCION SALINA 0.9% SLN INY BO X 500 MLBOL     1
CC0001045734779U202100050131880600050131880602/12/20210146    31500394239421964320000E1AB0200000199290000000000000                                                            SOLUCION SALINA 0.9% SLN INY BO X 100 MLBIN     5
