CC0000013887621H202100015112729900015112729902/12/20210952    31901450237421964250000V07A1300000502600000000000000                                                                                AGUA ESTERIL x 10 mlAMP    10
CC0001143115732H202100015112729900015112729902/12/20210952    31901450237421964250000V07A1300000502600000000000000                                                                                AGUA ESTERIL x 10 mlAMP    10
PE0082549771210H202100015112729900015112729902/12/20210952    31901450237421964250000V07A1300000502600000000000000                                                                                AGUA ESTERIL x 10 mlAMP    10
PE0082549771210H202100015112729900015112729902/12/20210952    3190145023742196425000000102400001411250000000000000                                                                           JERINGA DESECHABLE X 50MLSOB     1
CC0000013887621H202100015112729900015112729902/12/20210952    3190145023742196425000024674000001138340000000000000   JERINGA 3PARTES C/A 10ML REF JEHL005 CAJ X 100 ALFASAFE  21GX1 PULG 1/2 PULG BN EXENTO-DC.417/202PZA    10
CC0001143115732H202100015112729900015112729902/12/20210952    3190145023742196425000024674000001138340000000000000   JERINGA 3PARTES C/A 10ML REF JEHL005 CAJ X 100 ALFASAFE  21GX1 PULG 1/2 PULG BN EXENTO-DC.417/202PZA    10
PE0082549771210H202100015112729900015112729902/12/20210952    3190145023742196425000024674000001138340000000000000   JERINGA 3PARTES C/A 10ML REF JEHL005 CAJ X 100 ALFASAFE  21GX1 PULG 1/2 PULG BN EXENTO-DC.417/202PZA    10
CC0000013887621H202100015112729900015112729902/12/20210952    31901450237421964250000Q1A13500001585200000000000000                        JERINGA PUNTA CAT SIN AGUJA REF 309620 CAJ X 40   50ML BN EXENTO-DC.417/2020SOB     1
CC0000013887621H202100015112729900015112729902/12/20210952    3190145023742196425000043485100001618510000000000000                GUANTE QUIRURGICO DE LATEX REF 2D72N65X CAJ X 50 PROTEXIS  6.5 BN EXENTO-DC.417/2020SOB     2
CC0000013887621H202100015112729900015112729902/12/20210952    3190145023742196425000011089300001083990000000000000                                                              GUANTE ESTERIL LATEX S/POLVO TALLA 7.5SOB     1
CC0000013887621H202100015112729900015112729902/12/20210952    3190145023742196425000013077800000471960000000000000                                                             GASA NO TEJIDA EST 7.5 X 7.5 SOB X 3 UNSOB     6
CC0000013887621H202100015112729900015112729902/12/20210952    31901450237421964250000E1AD0300000199490000000000000                                         LACTATO RINGER USP (HARTMANN)  SOL INY  BOL X 1000ML BAXTERBIN     1
CC0001143115732H202100015112729900015112729902/12/20210952    31901450237421964250000E1AD0300000199490000000000000                                         LACTATO RINGER USP (HARTMANN)  SOL INY  BOL X 1000ML BAXTERBIN     2
PE0082549771210H202100015112729900015112729902/12/20210952    31901450237421964250000E1AD0300000199490000000000000                                         LACTATO RINGER USP (HARTMANN)  SOL INY  BOL X 1000ML BAXTERBIN     1
PE0082549771210H202100015112729900015112729902/12/20210952    31901450237421964250000E1AB0500003888400000000000000                                                              SOLUCION SALINA 0.9% SLN INY X 1000 MLBOL     4
