CC0001140816339H202100015032644500015032644502/12/20212231    3150056623742196425000022426800001140510000000000000                                                                    EQUIPO MACROGOTEO BAXTER MRC0001SOB     1
RC0001240292997H202100015032644500015032644502/12/20212231    3150056623742196425000011082700001620070000000000000                                                               EQUIPO SET PRIMARIO C/CLAVE REF 14001BOL     1
CC0001140816339H202100015032644500015032644502/12/20212231    3150056623742196425000030936900001431840000000000000                                                                                              BURETABOL     1
RC0001240292997H202100015032644500015032644502/12/20212231    3150056623742196425000030936900001431840000000000000                                                                                              BURETABOL     1
