CC0000008257979H202100015052796100015052796102/12/20212020    3150051923742196425000011082700001620070000000000000                                                               EQUIPO SET PRIMARIO C/CLAVE REF 14001BOL     1
CC0001140875648H202100015052796100015052796102/12/20212020    3150051923742196425000011082700001620070000000000000                                                               EQUIPO SET PRIMARIO C/CLAVE REF 14001BOL     1
CC0000008257979H202100015052796100015052796102/12/20212020    3150051923742196425000001956000001620610000000000000                                                                      CONECTOR MICRO CLAVE LAT-MC100SOB     1
CC0000022362807H202100015052796100015052796102/12/20212020    3150051923742196425000001956000001620610000000000000                                                                      CONECTOR MICRO CLAVE LAT-MC100SOB     1
CC0000022530541H202100015052796100015052796102/12/20212020    3150051923742196425000001956000001620610000000000000                                                                      CONECTOR MICRO CLAVE LAT-MC100SOB     1
CC0000008257979H202100015052796100015052796102/12/20212020    31500519237421964250000Q1AA7300000610640000000000000                                                            CATETER PERIFE INTROCAN # 22G 4251628-04SIN     1
CC0000022362807H202100015052796100015052796102/12/20212020    31500519237421964250000Q1AA7300000610640000000000000                                                            CATETER PERIFE INTROCAN # 22G 4251628-04SIN     1
CC0000022530541H202100015052796100015052796102/12/20212020    31500519237421964250000Q1AA7300000610640000000000000                                                            CATETER PERIFE INTROCAN # 22G 4251628-04SIN     1
CC0000008257979H202100015052796100015052796102/12/20212020    3150051923742196425000030936900001431840000000000000                                                                                              BURETABOL     1
CC0001140875648H202100015052796100015052796102/12/20212020    3150051923742196425000030936900001431840000000000000                                                                                              BURETABOL     1
CC0000008257979H202100015052796100015052796102/12/20212020    3150051923742196425000016830000000970620000000000000                                                             SIST FIJACION CAT PERIFERICO 6.5X7 1683SOB     1
CC0000022362807H202100015052796100015052796102/12/20212020    3150051923742196425000016830000000970620000000000000                                                             SIST FIJACION CAT PERIFERICO 6.5X7 1683SOB     1
CC0000022530541H202100015052796100015052796102/12/20212020    3150051923742196425000016830000000970620000000000000                                                             SIST FIJACION CAT PERIFERICO 6.5X7 1683SOB     1
CC0000022438763H202100015052796100015052796102/12/20212020    3150051923742196425000011137100001419310000000000000                                                               TIRA GLUCOMETRIA FREESTYLE H OPTIUM .PZA     3
CC0000022530541H202100015052796100015052796102/12/20212020    3150051923742196425000011137100001419310000000000000                                                               TIRA GLUCOMETRIA FREESTYLE H OPTIUM .PZA     3
