CC0000032838353A202100000027821000000027821002/12/20211306    3190333624042196419000000901900000229390000000000000                                                                  MASCARA PARA OXIGENO ADULTO (1041)BIN     1
CC0000032838353A202100000027821000000027821002/12/20211306    31903336240421964190000M03AB100001371510000000000000                                                            ADECUAC SUCCINILCOLINA  100mg/mL SOL INYVAL     1
CC0000032838353A202100000027821000000027821002/12/20211306    31903336240421964190000M1AB0900001019600000000000000                                                                              VOLTAREN Sln Iny 75 mgAMP     1
CC0000032838353A202100000027821000000027821002/12/20211306    31903336240421964190000N2AX0400001204140000000000000                                                                             TRAMAL Sln Iny 50 mg/mlAMP     1
CC0000032838353A202100000027821000000027821002/12/20211306    31903336240421964190000B02AA100001407470000000000000                                                                    CLINTRANEX SLN INY 500 MG / 5 MLAMP     2
CC0000032838353A202100000027821000000027821002/12/20211306    3190333624042196419000070120200000508270000000000000                                                             PUNTA PALA ELECTROBISTURI LARGA E1551-6SIN     1
CC0000032838353A202100000027821000000027821002/12/20211306    3190333624042196419000043879300001138190000000000000                                                                                HOJA DE BISTURI # 12SOB     1
CC0000032838353A202100000027821000000027821002/12/20211306    3190333624042196419000045138000001413890000000000000                                                                       LAPIZ ELECTROBISTURI  SOB X 1SOB     1
CC0000032838353A202100000027821000000027821002/12/20211306    31903336240421964190000N01B1200000220020000000000000                                                                        ROXICAINA 1% C/E Iny x 20 mlFCO     1
CC0000032838353A202100000027821000000027821002/12/20211306    3190333624042196419000019490800000233140000000000000                                                                        VICRYL 4-0 INC 70 SC20 J122HSIN     1
CC0000032838353A202100000027821000000027821002/12/20211306    31903336240421964190000E1BA0100000198890000000000000                                                                   AGUA ESTERIL USP SLN INY X 500 MLBIN     1
CC0000032838353A202100000027821000000027821002/12/20211306    3190333624042196419000030161400001459220000000000000                                                                       MANGUERA SUCCION 6 MM*3.1 MTSSOB     2
CC0000032838353A202100000027821000000027821002/12/20211306    3190333624042196419000043879100001138200000000000000                                                                  HOJA BISTURI # 15 CSSB 15 01002003SOB     1
CC0000032838353A202100000027821000000027821002/12/20211306    31903336240421964190000Q1AA6900000531340000000000000                                                            CATETER PERIFE INTROCAN # 14G 4251890-04SIN     1
CC0000032838353A202100000027821000000027821002/12/20211306    3190333624042196419000000101000001101640000000000000                                                                  AGUJA DESECHABLE  23G X 1 1/2 PULGSOB     1
CC0000032838353A202100000027821000000027821002/12/20211306    31903336240421964190000S1GA0800000858210000000000000                                                                       AFRIN 0.05% SLN NASAL X 15 MLFCO     2
CC0000032838353A202100000027821000000027821002/12/20211306    31903336240421964190000E1AB0300003888390000000000000                                                            SOLUCION SALINA 0.9% SLN INY BO X 500 MLBOL     1
CC0000032838353A202100000027821000000027821002/12/20211306    3190333624042196419000022425200000548240000000000000                       EXTENSION DE ANESTESIA REF 1139 SOB X 1 SHERLEG  ADULTO BN EXENTO-DC.417/2020SIN     1
CC0000032838353A202100000027821000000027821002/12/20211306    3190333624042196419000035356500003919000000000000000                                                                                        LLAVE 3 VIASSOB     1
CC0000032838353A202100000027821000000027821002/12/20211306    31903336240421964190000Q1AA7100000610620000000000000                                                            CATETER PERIFE INTROCAN # 18G 4251687-04SIN     1
CC0000032838353A202100000027821000000027821002/12/20211306    3190333624042196419000022426800001140510000000000000                                                                    EQUIPO MACROGOTEO BAXTER MRC0001SOB     1
CC0000032838353A202100000027821000000027821002/12/20211306    3190333624042196419000016830000000970620000000000000                                                             SIST FIJACION CAT PERIFERICO 6.5X7 1683SOB     1
CC0000032838353A202100000027821000000027821002/12/20211306    31903336240421964190000J01DA300001239950000000000000                                                            CEFAZOLINA SODICA POLVO LIOF SLN INY 1 GVAL     2
CC0000032838353A202100000027821000000027821002/12/20211306    3190333624042196419000011073300001096420000000000000                                                                BOLSA DE SUCCION DE FLUIDOS x 2500mLBOL     1
CC0000032838353A202100000027821000000027821002/12/20211306    3190333624042196419000020750600000296780000000000000                                                                PLACA ELECTRO RETORNO PACIENTE E7506SIN     1
CC0000032838353A202100000027821000000027821002/12/20211306    3190333624042196419000053074400000607910000000000000                                                               GASA ESTERIL 10*10 SOBRE X 3 UNIDADESSOB     3
CC0000032838353A202100000027821000000027821002/12/20211306    3190333624042196419000011085100001082120000000000000                                                                           GUANTE QUIRURGICO TALLA 7SOB     2
CC0000032838353A202100000027821000000027821002/12/20211306    3190333624042196419000043485100001618510000000000000                GUANTE QUIRURGICO DE LATEX REF 2D72N65X CAJ X 50 PROTEXIS  6.5 BN EXENTO-DC.417/2020SOB     2
CC0000032838353A202100000027821000000027821002/12/20211306    3190333624042196419000051515400000598150000000000000                                                                            MASCARILLA ANESTESIA # 4SIN     1
CC0000032838353A202100000027821000000027821002/12/20211306    3190333624042196419000011099300000777780000000000000                                                                     FILTRO BACTERIANO VIRICO ADULTOBOL     1
CC0000032838353A202100000027821000000027821002/12/20211306    3190333624042196419000031010900000762730000000000000                                                                          CANULA GUEDEL # 4 (100 MM)SOB     1
CC0000032838353A202100000027821000000027821002/12/20211306    3190333624042196419000039175000001072050000000000000                                                                           TUBO ENDOTRAQUEAL C/B 7.0SOB     1
CC0000032838353A202100000027821000000027821002/12/20211306    3190333624042196419000024674000001138340000000000000   JERINGA 3PARTES C/A 10ML REF JEHL005 CAJ X 100 ALFASAFE  21GX1 PULG 1/2 PULG BN EXENTO-DC.417/202PZA     4
CC0000032838353A202100000027821000000027821002/12/20211306    3190333624042196419000024674500000322810000000000000                                                                   JERINGA DESECHABLE 20 ml 21*1 1/2SIN     2
CC0000032838353A202100000027821000000027821002/12/20211306    31903336240421964190000E1AD0200003888320000000000000                                                                              HARTMAN SLN INY 500 MLBOL     2
CC0000032838353A202100000027821000000027821002/12/20211306    31903336240421964190000N02B1100001464120000000000000                                           PARACETAMOL EP 1000MG/100ML(10MG/ML) SOL INY  CAJ X 10FCOVAL     1
CC0000032838353A202100000027821000000027821002/12/20211306    31903336240421964190000A2BC0900000200150000000000000                                                                               ORAZOLE Sln Iny 40 mgCIN     1
CC0000032838353A202100000027821000000027821002/12/20211306    31903336240421964190000N01A0400003939010000000000000                                               MAYOPROFOL 200MG/20ML(1%) EMUL INY CAJ X 1VIAL X 20MLVAL     1
CC0000032838353A202100000027821000000027821002/12/20211306    31903336240421964190000A03F0300001626860000000000000                                                                   METOCLOPRAMIDA SLN INY 10 MG/2 MLAMP     1
CC0000032838353A202100000027821000000027821002/12/20211306    31903336240421964190000N2BB1100000217160000000000000                                                                      NOVALGINA Sln Iny 2.5 g x 5 mlAMP     1
CC0000032838353A202100000027821000000027821002/12/20211306    31903336240421964190000H02AB500001664950000000000000                                                            DEXAMETASONA SLN INY 8 MG/2 ML AMP /CDS/AMP     1
CC0000032838353A202100000027821000000027821002/12/20211306    31903336240421964190000N1BA2400001687720000000000000                                                    LIDOCAINA 2% SOL INY  CAJ X 50AMP X 10ML CORPAULAMP     1
CC0000032838353A202100000027821000000027821002/12/20211306    31903336240421964190000M3AC0600000720540000000000000                                                                         ESMERON SLN INY 50 MG /5 MLVAL     1
CC0000032838353A202100000027821000000027821002/12/20211306    31903336240421964190000N2AA0700001587170000000000000                                                                                 ULTIVA Sln Iny 2 mgVAL     1
