CC0000022590499H202100921233120200921233120202/12/20211739    3190294123742196425000011077500001287420000000000000                                                            CIRCUITO RESP VENTST 5703041 OXYLOG 3000BOL     1
CC0000022590499H202100921233120200921233120202/12/20211739    3190294123742196425000011078200001605710000000000000                                                                 CONECTOR FIBROBRONCOSCOPIO 9591 40CSOB     1
CC0000022590499H202100921233120200921233120202/12/20211739    3190294123742196425000011084700000516550000000000000                                                                FILTRO CALOR-HUMEDAD AD REF 352/5877SIN     3
CC0000022590499H202100921233120200921233120202/12/20211739    3190294123742196425000022108000003906060000000000000                                                            SIST CERRAD ASPIRAC TRACH  22108-5 14 FRSOB     1
CC0000022590499H202100921233120200921233120202/12/20211739    3190294123742196425000055816100001138270000000000000                                                            SET VENTILACI BASIC AD MP00349 180CM*22MBOL     1
CC0000022590499H202100921233120200921233120202/12/20211746    3190294123742196425000020816000001096410000000000000                                                                          LINER PARED DELGADA 1500CCBOL     1
CC0000022590499H202100921233120200921233120202/12/20211746    3190294123742196425000030161400001459220000000000000                                                                       MANGUERA SUCCION 6 MM*3.1 MTSSOB     1
CC0000022590499H202100921233120200921233120202/12/20212016    3150012823742196425000011082700001620070000000000000                                                               EQUIPO SET PRIMARIO C/CLAVE REF 14001BOL     1
CC0000022590499H202100921233120200921233120202/12/20212016    3150012823742196425000011082900001233450000000000000                                                               EQUIPO LC 5000 PRIMARIO FOTOPRO 0L218SOB     1
CC0000022590499H202100921233120200921233120202/12/20212016    3150012823742196425000011137100001419310000000000000                                                               TIRA GLUCOMETRIA FREESTYLE H OPTIUM .PZA     3
CC0000022590499H202100921233120200921233120202/12/20212016    3150012823742196425000024674000001138340000000000000   JERINGA 3PARTES C/A 10ML REF JEHL005 CAJ X 100 ALFASAFE  21GX1 PULG 1/2 PULG BN EXENTO-DC.417/202PZA    10
CC0000022590499H202100921233120200921233120202/12/20212016    31500128237421964250000E1AB0200000199290000000000000                                                            SOLUCION SALINA 0.9% SLN INY BO X 100 MLBIN     5
CC0000022590499H202100921233120200921233120202/12/20212016    3150012823742196425000001956000001620610000000000000                                                                      CONECTOR MICRO CLAVE LAT-MC100SOB     3
CC0000022590499H202100921233120200921233120202/12/20212016    31500128237421964250000E1AB0500003888400000000000000                                                              SOLUCION SALINA 0.9% SLN INY X 1000 MLBOL     3
CC0000022590499H202100921233120200921233120202/12/20212135    31500387237421964250000B05B1400001012740000000000000                                                                SOLUCION SALINA 0.45% Sln Iny 500 mlBOL     2
CC0000022590499H202100921233120200921233120202/12/20212249    3150038723742196425000011137100001419310000000000000                                                               TIRA GLUCOMETRIA FREESTYLE H OPTIUM .PZA     1
CC0000022590499H202100921233120200921233120202/12/20212249    3150038723742196425000024674000001138340000000000000   JERINGA 3PARTES C/A 10ML REF JEHL005 CAJ X 100 ALFASAFE  21GX1 PULG 1/2 PULG BN EXENTO-DC.417/202PZA     5
CC0000022590499H202100921233120200921233120202/12/20212249    31500387237421964250000E1AB0200000199290000000000000                                                            SOLUCION SALINA 0.9% SLN INY BO X 100 MLBIN     2
