TI0001134183559H202100000556463900000556463902/12/20210221    31900934237421964250000E1AD0200003888320000000000000                                                                              HARTMAN SLN INY 500 MLBOL     1
TI0001134183559H202100000556463900000556463902/12/20211048     3300009237421964250000N3AG0400001337010000000000000                                                                              VALCOTE TAB 500 MG /R/TAB     2
TI0001134183559H202100000556463900000556463902/12/20211048     3300009237421964250000N03AG200001590870000000000000                                                            PROVALNOVA SLN INY 100MG/ML VIALX5ML /R/VAL     2
TI0001134183559H202100000556463900000556463902/12/20211048     3300009237421964250000N03A0600001336860000000000000                                                                               TOPAMAC TAB 50 MG /R/TAB     1
TI0001134183559H202100000556463900000556463902/12/20211048     3300009237421964250000N03AX900001336840000000000000                                                                              TOPAMAC TAB 100 MG /R/TAB     2
TI0001134183559H202100000556463900000556463902/12/20211629     3300009237421964250000N03AX600001334940000000000000                                                                        LEVETIRACETAM TAB 500 MG /R/TAB     8
TI0001134183559H202100000556463900000556463902/12/20211405     3300009237421964250000N03AX600001334940000000000000                                                                        LEVETIRACETAM TAB 500 MG /R/TAB     8
TI0001134183559H202100000556463900000556463902/12/20211048     3300009237421964250000N03AX600001334940000000000000                                                                        LEVETIRACETAM TAB 500 MG /R/TAB     3
TI0001134183559H202100000556463900000556463902/12/20211047     3300009237421964250000N03AX600001334940000000000000                                                                        LEVETIRACETAM TAB 500 MG /R/TAB     3
TI0001134183559H202100000556463900000556463902/12/20211043    31903291237421964250000V07A1300000502600000000000000                                                                                AGUA ESTERIL x 10 mlAMP     5
