CC0001140846618A202100000027822300000027822302/12/20211519    31903336240421964190000A3BB0300000512950000000000000                                                             BUSCAPINA COMP Sln Iny 20 mg+2.5 g/5 mlAMP     1
CC0001140846618A202100000027822300000027822302/12/20211519    3190333624042196419000045136100001419300000000000000                                                                            LANCETA DEXTROMETER X UNPZA     1
CC0001140846618A202100000027822300000027822302/12/20211519    3190333624042196419000011137100001419310000000000000                                                               TIRA GLUCOMETRIA FREESTYLE H OPTIUM .PZA     1
CC0001140846618A202100000027822300000027822302/12/20211519    31903336240421964190000A2BC0900000200150000000000000                                                                               ORAZOLE Sln Iny 40 mgCIN     1
CC0001140846618A202100000027822300000027822302/12/20211519    31903336240421964190000G02AD000001277960000000000000                                                                                 CYTIL V TAB 200 MCGTAB     4
CC0001140846618A202100000027822300000027822302/12/20211519    31903336240421964190000E1AB0300003888390000000000000                                                            SOLUCION SALINA 0.9% SLN INY BO X 500 MLBOL     1
CC0001140846618A202100000027822300000027822302/12/20211519    3190333624042196419000022425200000548240000000000000                       EXTENSION DE ANESTESIA REF 1139 SOB X 1 SHERLEG  ADULTO BN EXENTO-DC.417/2020SIN     1
CC0001140846618A202100000027822300000027822302/12/20211519    3190333624042196419000035356500003919000000000000000                                                                                        LLAVE 3 VIASSOB     1
CC0001140846618A202100000027822300000027822302/12/20211519    31903336240421964190000Q1AA7100000610620000000000000                                                            CATETER PERIFE INTROCAN # 18G 4251687-04SIN     2
CC0001140846618A202100000027822300000027822302/12/20211519    3190333624042196419000022426800001140510000000000000                                                                    EQUIPO MACROGOTEO BAXTER MRC0001SOB     1
CC0001140846618A202100000027822300000027822302/12/20211519    3190333624042196419000016830000000970620000000000000                                                             SIST FIJACION CAT PERIFERICO 6.5X7 1683SOB     1
CC0001140846618A202100000027822300000027822302/12/20211519    31903336240421964190000J01DA300001239950000000000000                                                            CEFAZOLINA SODICA POLVO LIOF SLN INY 1 GVAL     2
CC0001140846618A202100000027822300000027822302/12/20211519    3190333624042196419000038568100000258050000000000000                                                                         CANULA OXIGENO NASAL ADULTOSIN     1
CC0001140846618A202100000027822300000027822302/12/20211519    3190333624042196419000053074400000607910000000000000                                                               GASA ESTERIL 10*10 SOBRE X 3 UNIDADESSOB     2
CC0001140846618A202100000027822300000027822302/12/20211519    3190333624042196419000011085200001585390000000000000                                                                       GUANTE QUIRURGICO TALLA 7 1/2SOB     1
CC0001140846618A202100000027822300000027822302/12/20211519    3190333624042196419000043485100001618510000000000000                GUANTE QUIRURGICO DE LATEX REF 2D72N65X CAJ X 50 PROTEXIS  6.5 BN EXENTO-DC.417/2020SOB     1
CC0001140846618A202100000027822300000027822302/12/20211519    3190333624042196419000024673600000222980000000000000                                                                     JERINGA DESECHABLE 5 ml 27*11/2SIN     1
CC0001140846618A202100000027822300000027822302/12/20211519    3190333624042196419000024674000001138340000000000000   JERINGA 3PARTES C/A 10ML REF JEHL005 CAJ X 100 ALFASAFE  21GX1 PULG 1/2 PULG BN EXENTO-DC.417/202PZA     3
CC0001140846618A202100000027822300000027822302/12/20211519    31903336240421964190000E1AD0200003888320000000000000                                                                              HARTMAN SLN INY 500 MLBOL     1
CC0001140846618A202100000027822300000027822302/12/20211519    31903336240421964190000M1AX0200001569410000000000000                                                                         KETRON SLN INY 30 MG / 2 MLAMP     1
CC0001140846618A202100000027822300000027822302/12/20211519    31903336240421964190000N1AH0200003906560000000000000                                                                     FENTANIL Iny 0.05 mg/ml x 10 mlAMP     1
CC0001140846618A202100000027822300000027822302/12/20211519    31903336240421964190000N5CD0300000218170000000000000                                                              DORMICUM IV-IM 5MG/5ML(1MG/ML) SOL INYAMP     1
