CC0000032747661U202100000556458100000556458102/12/20211629    31902864239421964320000E1AB0300003888390000000000000                                                            SOLUCION SALINA 0.9% SLN INY BO X 500 MLBOL     1
CC0000032747661U202100000556458100000556458102/12/20210120    31500194239421964320000E1AB0300003888390000000000000                                                            SOLUCION SALINA 0.9% SLN INY BO X 500 MLBOL     1
CC0000032747661U202100000556458100000556458102/12/20210120    31500194239421964320000E1AD0300000199490000000000000                                         LACTATO RINGER USP (HARTMANN)  SOL INY  BOL X 1000ML BAXTERBIN     1
CC0000032747661U202100000556458100000556458102/12/20211622     3300010239421964320000A12BA100000552980000000000000                                                            CLORURO POTASIO Sln Iny AMP 20 MEQ/10 MLAMP     1
CC0000032747661U202100000556458100000556458102/12/20210114     3300010239421964320000A12BA100000552980000000000000                                                            CLORURO POTASIO Sln Iny AMP 20 MEQ/10 MLAMP     1
CC0000032747661U202100000556458100000556458102/12/20211046     3300010239421964320000N2AA0200000301600000000000000                                                                        HIDROMORFONA Sln Iny 2 mg/mlAMP     1
CC0000032747661U202100000556458100000556458102/12/20211100     3300010239421964320000J01D1200001239960000000000000                                                                              CEFEPIME POLVO INY 1 GVAL     1
CC0000032747661U202100000556458100000556458102/12/20211045     3300010239421964320000J01D1200001239960000000000000                                                                              CEFEPIME POLVO INY 1 GVAL     1
CC0000032747661U202100000556458100000556458102/12/20210150     3300010239421964320000J01D1200001239960000000000000                                                                              CEFEPIME POLVO INY 1 GVAL     2
CC0000032747661U202100000556458100000556458102/12/20211622     3300010239421964320000N2BE2200001252930000000000000                                                                             ACETAMINOFEN Tab 500 MGTAB     2
CC0000032747661U202100000556458100000556458102/12/20210544     3300010239421964320000A02BC700001684270000000000000                                                            OMEPRAZOL 40MG POLVO LIOFILIZADO AMPOLLAVAL     1
