CC0001140838522U202100000556483800000556483802/12/20211518    31902864239421964320000E1AB0600003839280000000000000                                                            SOLUCION SALINA 0.9% SLN INY FCO X 250 MBOL     1
CC0001140838522U202100000556483800000556483802/12/20211535     3300010239421964320000H2AB0100000562660000000000000                                                                    BETAMETASONA SLN INY 8 MG / 2 MLAMP     2
CC0001140838522U202100000556483800000556483802/12/20211401     3300010239421964320000A03BB100003889180000000000000                                      HIOSCINA BUTIL BROMURO 20MG/ML SOL INY CAJ X 100AMP X 1ML RYANAMP     1
CC0001140838522U202100000556483800000556483802/12/20211310     3300010239421964320000A03BB100003889180000000000000                                      HIOSCINA BUTIL BROMURO 20MG/ML SOL INY CAJ X 100AMP X 1ML RYANAMP     2
CC0001140838522U202100000556483800000556483802/12/20211207     3300010239421964320000N2BE2200001252930000000000000                                                                             ACETAMINOFEN Tab 500 MGTAB     2
