CC0000008727169H202100015022560100015022560102/12/20211510    3190328823742196425000024674000001138340000000000000   JERINGA 3PARTES C/A 10ML REF JEHL005 CAJ X 100 ALFASAFE  21GX1 PULG 1/2 PULG BN EXENTO-DC.417/202PZA     7
CC0000008727169H202100015022560100015022560102/12/20211510    3190328823742196425000022426800001140510000000000000                                                                    EQUIPO MACROGOTEO BAXTER MRC0001SOB     1
CC0000008727169H202100015022560100015022560102/12/20211510    3190328823742196425000030936900001431840000000000000                                                                                              BURETABOL     1
CC0000008727169H202100015022560100015022560102/12/20211510    31903288237421964250000E1BA0700000198910000000000000                                                                   UROMATIC Sln IRRIGACION X 3000 MLBIN     4
