CC0000073136337H202100000556470100000556470102/12/20211044     3300009237421964250000N02B0300001277700000000000000                                                                           CARDIOASPIRINA TAB 100 MGTAB     1
CC0000073136337H202100000556470100000556470102/12/20210653    31500460237421964250000E1AB0300003888390000000000000                                                            SOLUCION SALINA 0.9% SLN INY BO X 500 MLBOL     2
CC0000073136337H202100000556470100000556470102/12/20211045     3300009237421964250000C07A0500001278660000000000000                                                                                NEBILET TAB 5 MG /R/TAB     1
CC0000073136337H202100000556470100000556470102/12/20211044     3300009237421964250000C09CA400001277130000000000000                                                                                  LOSARTAN TAB 50 MGTAB     2
CC0000073136337H202100000556470100000556470102/12/20211044     3300009237421964250000C10AA700001336240000000000000                                                                     ROSUVASTATINA CALCICA TAB 40 MGTAB     1
CC0000073136337H202100000556470100000556470102/12/20211045     3300009237421964250000J1DA3100000187510000000000000                                                                           ROCEFIN Polvo SLN INY 1 GCIN     1
CC0000073136337H202100000556470100000556470102/12/20211044     3300009237421964250000J1DA3100000187510000000000000                                                                           ROCEFIN Polvo SLN INY 1 GCIN     1
CC0000073136337H202100000556470100000556470102/12/20211045     3300009237421964250000N02B1100001464120000000000000                                           PARACETAMOL EP 1000MG/100ML(10MG/ML) SOL INY  CAJ X 10FCOVAL     1
