CC0001047339603A202100000027821800000027821802/12/20211847    3190333624042196419000000016500000223580000000000000                                                                    STERI-STRIP 12 X 100 REF 1547 3MSIN     1
CC0001047339603A202100000027821800000027821802/12/20211847    31903336240421964190000J1CB0600000468340000000000000                                                           UNASYN IM-IV (1+0.5)GR POLV INY INST VIALVAL     2
CC0001047339603A202100000027821800000027821802/12/20211847    3190333624042196419000011067000001404580000000000000                                                               TROCAR FIJACION 12MM X 100 MM  B12STFPZA     1
CC0001047339603A202100000027821800000027821802/12/20211847    3190333624042196419000011067500001404570000000000000                                                              TROCAR FIJACION 5MM X 100 MM REF B5STFPZA     2
CC0001047339603A202100000027821800000027821802/12/20211847    31903336240421964190000N1BA0300000217900000000000000                                                                    BUPIROP 0.5% C/E Sln Iny x 20 mlVAL     1
CC0001047339603A202100000027821800000027821802/12/20211847    3190333624042196419000045138000001413890000000000000                                                                       LAPIZ ELECTROBISTURI  SOB X 1SOB     1
CC0001047339603A202100000027821800000027821802/12/20211847    3190333624042196419000011081500001119460000000000000                                                               ENDOBAG SPECIMEN RETRIEV RF 25040 5X8PZA     1
CC0001047339603A202100000027821800000027821802/12/20211847    3190333624042196419000000502300001228180000000000000                                                            SURGITIE POLYSORB 2/0 * 4.5CM  REF EL20LSOB     2
CC0001047339603A202100000027821800000027821802/12/20211847    3190333624042196419000013077800000471960000000000000                                                             GASA NO TEJIDA EST 7.5 X 7.5 SOB X 3 UNSOB     1
CC0001047339603A202100000027821800000027821802/12/20211847    3190333624042196419000030161400001459220000000000000                                                                       MANGUERA SUCCION 6 MM*3.1 MTSSOB     1
CC0001047339603A202100000027821800000027821802/12/20211847    3190333624042196419000000504800004018100000000000000   SUTURA SINTETI ABSORBIBLE CT-2 REF J333H CAJ X 36 VICRYL 70CM - 2-0 VIOLETA BN EXENTO-DC.417/2020SOB     1
CC0001047339603A202100000027821800000027821802/12/20211847    3190333624042196419000015994600000632480000000000000                                                                          MONOCRYL 4-0 PS-2 45 Y496GSIN     1
CC0001047339603A202100000027821800000027821802/12/20211847    3190333624042196419000043879200001138180000000000000                                                                                   HOJA BISTURI # 11SOB     1
CC0001047339603A202100000027821800000027821802/12/20211847    3190333624042196419000022425200000548240000000000000                       EXTENSION DE ANESTESIA REF 1139 SOB X 1 SHERLEG  ADULTO BN EXENTO-DC.417/2020SIN     1
CC0001047339603A202100000027821800000027821802/12/20211847    3190333624042196419000035356500003919000000000000000                                                                                        LLAVE 3 VIASSOB     1
CC0001047339603A202100000027821800000027821802/12/20211847    31903336240421964190000Q1AA7100000610620000000000000                                                            CATETER PERIFE INTROCAN # 18G 4251687-04SIN     1
CC0001047339603A202100000027821800000027821802/12/20211847    3190333624042196419000022426800001140510000000000000                                                                    EQUIPO MACROGOTEO BAXTER MRC0001SOB     1
CC0001047339603A202100000027821800000027821802/12/20211847    3190333624042196419000016830000000970620000000000000                                                             SIST FIJACION CAT PERIFERICO 6.5X7 1683SOB     1
CC0001047339603A202100000027821800000027821802/12/20211847    3190333624042196419000011073300001096420000000000000                                                                BOLSA DE SUCCION DE FLUIDOS x 2500mLBOL     1
CC0001047339603A202100000027821800000027821802/12/20211847    3190333624042196419000020750600000296780000000000000                                                                PLACA ELECTRO RETORNO PACIENTE E7506SIN     1
CC0001047339603A202100000027821800000027821802/12/20211847    3190333624042196419000011082700001620070000000000000                                                               EQUIPO SET PRIMARIO C/CLAVE REF 14001BOL     2
CC0001047339603A202100000027821800000027821802/12/20211847    3190333624042196419000053074400000607910000000000000                                                               GASA ESTERIL 10*10 SOBRE X 3 UNIDADESSOB     2
CC0001047339603A202100000027821800000027821802/12/20211847    3190333624042196419000011085300001082140000000000000                                                                           GUANTE QUIRURGICO TALLA 8SOB     2
CC0001047339603A202100000027821800000027821802/12/20211847    3190333624042196419000011085200001585390000000000000                                                                       GUANTE QUIRURGICO TALLA 7 1/2SOB     1
CC0001047339603A202100000027821800000027821802/12/20211847    3190333624042196419000011085100001082120000000000000                                                                           GUANTE QUIRURGICO TALLA 7SOB     3
CC0001047339603A202100000027821800000027821802/12/20211847    3190333624042196419000043485100001618510000000000000                GUANTE QUIRURGICO DE LATEX REF 2D72N65X CAJ X 50 PROTEXIS  6.5 BN EXENTO-DC.417/2020SOB     4
CC0001047339603A202100000027821800000027821802/12/20211847    3190333624042196419000051515400000598150000000000000                                                                            MASCARILLA ANESTESIA # 4SIN     1
CC0001047339603A202100000027821800000027821802/12/20211847    3190333624042196419000038568100000258050000000000000                                                                         CANULA OXIGENO NASAL ADULTOSIN     1
CC0001047339603A202100000027821800000027821802/12/20211847    3190333624042196419000011099300000777780000000000000                                                                     FILTRO BACTERIANO VIRICO ADULTOBOL     1
CC0001047339603A202100000027821800000027821802/12/20211847    3190333624042196419000001200400000530690000000000000                                                                          CANULA DE MAYO # 5 (100MM)SIN     1
CC0001047339603A202100000027821800000027821802/12/20211847    3190333624042196419000038569400000256750000000000000                                                                        SONDA ASPIRACION CONTROL #14SIN     1
CC0001047339603A202100000027821800000027821802/12/20211847    3190333624042196419000039175100001072060000000000000                                                                           TUBO ENDOTRAQUEAL C/B 7.5SOB     1
CC0001047339603A202100000027821800000027821802/12/20211847    3190333624042196419000024673000001411210000000000000                                                                  JERINGA DESECHABLE 3 ML 21 X 1 1/2SOB     1
CC0001047339603A202100000027821800000027821802/12/20211847    3190333624042196419000024673600000222980000000000000                                                                     JERINGA DESECHABLE 5 ml 27*11/2SIN     1
CC0001047339603A202100000027821800000027821802/12/20211847    3190333624042196419000024674000001138340000000000000   JERINGA 3PARTES C/A 10ML REF JEHL005 CAJ X 100 ALFASAFE  21GX1 PULG 1/2 PULG BN EXENTO-DC.417/202PZA     2
CC0001047339603A202100000027821800000027821802/12/20211847    3190333624042196419000024674500000322810000000000000                                                                   JERINGA DESECHABLE 20 ml 21*1 1/2SIN     2
CC0001047339603A202100000027821800000027821802/12/20211847    31903336240421964190000E1AD0200003888320000000000000                                                                              HARTMAN SLN INY 500 MLBOL     1
CC0001047339603A202100000027821800000027821802/12/20211847    31903336240421964190000E1AB0300003888390000000000000                                                            SOLUCION SALINA 0.9% SLN INY BO X 500 MLBOL     3
CC0001047339603A202100000027821800000027821802/12/20211847    31903336240421964190000E1AB0700003888350000000000000                                                            SOLUCION SALINA 0.9% SLN INY BO X 250 MLBOL     1
CC0001047339603A202100000027821800000027821802/12/20211847    31903336240421964190000N02B1100001464120000000000000                                           PARACETAMOL EP 1000MG/100ML(10MG/ML) SOL INY  CAJ X 10FCOVAL     1
CC0001047339603A202100000027821800000027821802/12/20211847    31903336240421964190000A3BB0200000512940000000000000                                                                          BUSCAPINA SIMPLE Iny 20 mgAMP     1
CC0001047339603A202100000027821800000027821802/12/20211847    31903336240421964190000A2BC0900000200150000000000000                                                                               ORAZOLE Sln Iny 40 mgCIN     1
CC0001047339603A202100000027821800000027821802/12/20211847    31903336240421964190000V3AB1900001177870000000000000                                                                      PROSTIGMINE Sln Iny 0.5 mg/ mlAMP     5
CC0001047339603A202100000027821800000027821802/12/20211847    31903336240421964190000N2BB1100000217160000000000000                                                                      NOVALGINA Sln Iny 2.5 g x 5 mlAMP     1
CC0001047339603A202100000027821800000027821802/12/20211847    31903336240421964190000A4AD0200000202990000000000000                                                                     PLITICAN HCL Sln Iny 50 mg/2 mlAMP     1
CC0001047339603A202100000027821800000027821802/12/20211847    31903336240421964190000H02AB500001664950000000000000                                                            DEXAMETASONA SLN INY 8 MG/2 ML AMP /CDS/AMP     1
CC0001047339603A202100000027821800000027821802/12/20211847    31903336240421964190000M3AC0600000720540000000000000                                                                         ESMERON SLN INY 50 MG /5 MLVAL     1
CC0001047339603A202100000027821800000027821802/12/20211847    31903336240421964190000N5CD0300000218170000000000000                                                              DORMICUM IV-IM 5MG/5ML(1MG/ML) SOL INYAMP     1
CC0001047339603A202100000027821800000027821802/12/20211847    31903336240421964190000N2AA0700001587170000000000000                                                                                 ULTIVA Sln Iny 2 mgVAL     1
CC0001047339603A202100000027821800000027821802/12/20211847    31903336240421964190000N1AH0200003906560000000000000                                                                     FENTANIL Iny 0.05 mg/ml x 10 mlAMP     1
