CC0000075092837U202100000556496100000556496102/12/20211811    31902864239421964320000E1AB0200000199290000000000000                                                            SOLUCION SALINA 0.9% SLN INY BO X 100 MLBIN     1
CC0000075092837U202100000556496100000556496102/12/20211737     3300010239421964320000J1KA1100001337390000000000000                                                                             ZITROMAX TAB 500 MG /R/TAB     3
CC0000075092837U202100000556496100000556496102/12/20211738     3300010239421964320000J5AB2400001333710000000000000                                                                   COMBIVIR Tab 150/300 MG CAJA X 60TAB     1
CC0000075092837U202100000556496100000556496102/12/20211738     3300010239421964320000J7AA0600001602890000000000000                                                            VACUNA ANTITETANICA SUSP INY 40 UI/0.5MLVAL     1
CC0000075092837U202100000556496100000556496102/12/20211802     3300010239421964320000N01B0200003888110000000000000                                           ROXICAINA SE 100MG/10ML(1%) SOL INY CAJ X 24AMPACK X 10MLAPC     1
