CC0000022548883H202100000556474000000556474002/12/20210855    31901015237421964250000N6AA1700001278670000000000000                                                                                DIOVAN TAB 80 MG /R/TAB     1
CC0000022548883H202100000556474000000556474002/12/20210855    31901015237421964250000J01DB300000553200000000000000                                                                         CEFALOTINA SLN INY 1 G VIALVAL     2
CC0000022548883H202100000556474000000556474002/12/20210855    31901015237421964250000N02B1100001464120000000000000                                           PARACETAMOL EP 1000MG/100ML(10MG/ML) SOL INY  CAJ X 10FCOVAL     2
CC0000022548883H202100000556474000000556474002/12/20210855    31901015237421964250000R6AX0300001303580000000000000                                                                                 CLARITYNE TAB 10 MGTAB     1
