CC0001140828821H202100015042533700015042533702/12/20210902    31500082237421964250000V07A1300000502600000000000000                                                                                AGUA ESTERIL x 10 mlAMP    10
CC0000032736220H202100015042533700015042533702/12/20210902    31500082237421964250000V07A1300000502600000000000000                                                                                AGUA ESTERIL x 10 mlAMP    10
CC0000072277171H202100015042533700015042533702/12/20210902    31500082237421964250000V07A1300000502600000000000000                                                                                AGUA ESTERIL x 10 mlAMP    10
RC0001146543342H202100015042533700015042533702/12/20210902    31500082237421964250000V07A1300000502600000000000000                                                                                AGUA ESTERIL x 10 mlAMP    10
RC0001146542960H202100015042533700015042533702/12/20210902    31500082237421964250000V07A1300000502600000000000000                                                                                AGUA ESTERIL x 10 mlAMP    10
CC0001065132676H202100015042533700015042533702/12/20210902    31500082237421964250000V07A1300000502600000000000000                                                                                AGUA ESTERIL x 10 mlAMP    10
CC0000026695868H202100015042533700015042533702/12/20210902    31500082237421964250000V07A1300000502600000000000000                                                                                AGUA ESTERIL x 10 mlAMP    10
CC0001192925687H202100015042533700015042533702/12/20210902    31500082237421964250000V07A1300000502600000000000000                                                                                AGUA ESTERIL x 10 mlAMP    10
CC0000032688858H202100015042533700015042533702/12/20210902    31500082237421964250000V07A1300000502600000000000000                                                                                AGUA ESTERIL x 10 mlAMP    10
CC0001129577696H202100015042533700015042533702/12/20210902    31500082237421964250000V07A1300000502600000000000000                                                                                AGUA ESTERIL x 10 mlAMP    10
CC0000032632813H202100015042533700015042533702/12/20210902    31500082237421964250000V07A1300000502600000000000000                                                                                AGUA ESTERIL x 10 mlAMP    10
CC0000007411669H202100015042533700015042533702/12/20210902    31500082237421964250000V07A1300000502600000000000000                                                                                AGUA ESTERIL x 10 mlAMP    10
CC0000032688858H202100015042533700015042533702/12/20210902    3150008223742196425000045136100001419300000000000000                                                                            LANCETA DEXTROMETER X UNPZA     5
CC0001140828821H202100015042533700015042533702/12/20210902    3150008223742196425000011048600000223020000000000000                                                                 JERINGA VACUNACION 3ML C/AGU 302542SIN     5
RC0001146543342H202100015042533700015042533702/12/20210902    3150008223742196425000011048600000223020000000000000                                                                 JERINGA VACUNACION 3ML C/AGU 302542SIN     5
TI0001066284726H202100015042533700015042533702/12/20210902    3150008223742196425000011048600000223020000000000000                                                                 JERINGA VACUNACION 3ML C/AGU 302542SIN     5
CC0001140828821H202100015042533700015042533702/12/20210902    3150008223742196425000024674000001138340000000000000   JERINGA 3PARTES C/A 10ML REF JEHL005 CAJ X 100 ALFASAFE  21GX1 PULG 1/2 PULG BN EXENTO-DC.417/202PZA    10
CC0000032736220H202100015042533700015042533702/12/20210902    3150008223742196425000024674000001138340000000000000   JERINGA 3PARTES C/A 10ML REF JEHL005 CAJ X 100 ALFASAFE  21GX1 PULG 1/2 PULG BN EXENTO-DC.417/202PZA    10
CC0000072277171H202100015042533700015042533702/12/20210902    3150008223742196425000024674000001138340000000000000   JERINGA 3PARTES C/A 10ML REF JEHL005 CAJ X 100 ALFASAFE  21GX1 PULG 1/2 PULG BN EXENTO-DC.417/202PZA    10
RC0001146543342H202100015042533700015042533702/12/20210902    3150008223742196425000024674000001138340000000000000   JERINGA 3PARTES C/A 10ML REF JEHL005 CAJ X 100 ALFASAFE  21GX1 PULG 1/2 PULG BN EXENTO-DC.417/202PZA    10
TI0001066284726H202100015042533700015042533702/12/20210902    3150008223742196425000024674000001138340000000000000   JERINGA 3PARTES C/A 10ML REF JEHL005 CAJ X 100 ALFASAFE  21GX1 PULG 1/2 PULG BN EXENTO-DC.417/202PZA    10
CC0001065132676H202100015042533700015042533702/12/20210902    3150008223742196425000024674000001138340000000000000   JERINGA 3PARTES C/A 10ML REF JEHL005 CAJ X 100 ALFASAFE  21GX1 PULG 1/2 PULG BN EXENTO-DC.417/202PZA     5
CC0000026695868H202100015042533700015042533702/12/20210902    3150008223742196425000024674000001138340000000000000   JERINGA 3PARTES C/A 10ML REF JEHL005 CAJ X 100 ALFASAFE  21GX1 PULG 1/2 PULG BN EXENTO-DC.417/202PZA     5
CC0001192925687H202100015042533700015042533702/12/20210902    3150008223742196425000024674000001138340000000000000   JERINGA 3PARTES C/A 10ML REF JEHL005 CAJ X 100 ALFASAFE  21GX1 PULG 1/2 PULG BN EXENTO-DC.417/202PZA     5
CC0000032688858H202100015042533700015042533702/12/20210902    3150008223742196425000024674000001138340000000000000   JERINGA 3PARTES C/A 10ML REF JEHL005 CAJ X 100 ALFASAFE  21GX1 PULG 1/2 PULG BN EXENTO-DC.417/202PZA    10
CC0001129577696H202100015042533700015042533702/12/20210902    3150008223742196425000024674000001138340000000000000   JERINGA 3PARTES C/A 10ML REF JEHL005 CAJ X 100 ALFASAFE  21GX1 PULG 1/2 PULG BN EXENTO-DC.417/202PZA     5
CC0000032632813H202100015042533700015042533702/12/20210902    3150008223742196425000024674000001138340000000000000   JERINGA 3PARTES C/A 10ML REF JEHL005 CAJ X 100 ALFASAFE  21GX1 PULG 1/2 PULG BN EXENTO-DC.417/202PZA     5
CC0000007411669H202100015042533700015042533702/12/20210902    3150008223742196425000024674000001138340000000000000   JERINGA 3PARTES C/A 10ML REF JEHL005 CAJ X 100 ALFASAFE  21GX1 PULG 1/2 PULG BN EXENTO-DC.417/202PZA    10
CC0000032736220H202100015042533700015042533702/12/20210902    3150008223742196425000043485100001618510000000000000                GUANTE QUIRURGICO DE LATEX REF 2D72N65X CAJ X 50 PROTEXIS  6.5 BN EXENTO-DC.417/2020SOB     1
CC0001129577696H202100015042533700015042533702/12/20210902    3150008223742196425000043485100001618510000000000000                GUANTE QUIRURGICO DE LATEX REF 2D72N65X CAJ X 50 PROTEXIS  6.5 BN EXENTO-DC.417/2020SOB     1
CC0000072277171H202100015042533700015042533702/12/20210902    3150008223742196425000013077800000471960000000000000                                                             GASA NO TEJIDA EST 7.5 X 7.5 SOB X 3 UNSOB    10
CC0001129577696H202100015042533700015042533702/12/20210902    3150008223742196425000013077800000471960000000000000                                                             GASA NO TEJIDA EST 7.5 X 7.5 SOB X 3 UNSOB    10
CC0000072277171H202100015042533700015042533702/12/20210902    3150008223742196425000042743200003929860000000000000                   GASA ADHESIVA STRETCH REF 02038-00 ROL X 10MT FIXOMULL 15CM BN EXENTO-DC.417/2020CMT    30
CC0001129577696H202100015042533700015042533702/12/20210902    3150008223742196425000042743200003929860000000000000                   GASA ADHESIVA STRETCH REF 02038-00 ROL X 10MT FIXOMULL 15CM BN EXENTO-DC.417/2020CMT    30
CC0000032688858H202100015042533700015042533702/12/20210902    3150008223742196425000011086200001036580000000000000                                                              FLUORESCEINA SODICA TIRA OFTALMICA 10%PZA     5
CC0000007411669H202100015042533700015042533702/12/20210902    3150008223742196425000022426800001140510000000000000                                                                    EQUIPO MACROGOTEO BAXTER MRC0001SOB     1
CC0000007411669H202100015042533700015042533702/12/20210902    3150008223742196425000011082700001620070000000000000                                                               EQUIPO SET PRIMARIO C/CLAVE REF 14001BOL     1
CC0000007411669H202100015042533700015042533702/12/20210902    3150008223742196425000030936900001431840000000000000                                                                                              BURETABOL     1
CC0000026695868H202100015042533700015042533702/12/20210902    31500082237421964250000B05B1500001012750000000000000                                                                   SOLUCION SALINA 3% Sln Iny 500 mlBOL     1
CC0001140828821H202100015042533700015042533702/12/20210902    31500082237421964250000E1AB0300003888390000000000000                                                            SOLUCION SALINA 0.9% SLN INY BO X 500 MLBOL     2
CC0000072277171H202100015042533700015042533702/12/20210902    31500082237421964250000E1AB0300003888390000000000000                                                            SOLUCION SALINA 0.9% SLN INY BO X 500 MLBOL     2
CC0001065132676H202100015042533700015042533702/12/20210902    31500082237421964250000E1AB0300003888390000000000000                                                            SOLUCION SALINA 0.9% SLN INY BO X 500 MLBOL     2
CC0000026695868H202100015042533700015042533702/12/20210902    31500082237421964250000E1AB0300003888390000000000000                                                            SOLUCION SALINA 0.9% SLN INY BO X 500 MLBOL     2
CC0000032688858H202100015042533700015042533702/12/20210902    31500082237421964250000E1AB0300003888390000000000000                                                            SOLUCION SALINA 0.9% SLN INY BO X 500 MLBOL     2
CC0000007411669H202100015042533700015042533702/12/20210902    31500082237421964250000E1AB0300003888390000000000000                                                            SOLUCION SALINA 0.9% SLN INY BO X 500 MLBOL     2
CC0000007411669H202100015042533700015042533702/12/20210902    31500082237421964250000E1AB0700003888350000000000000                                                            SOLUCION SALINA 0.9% SLN INY BO X 250 MLBOL     1
CC0000007411669H202100015042533700015042533702/12/20210902    31500082237421964250000E1AB0200000199290000000000000                                                            SOLUCION SALINA 0.9% SLN INY BO X 100 MLBIN     4
CC0000072277171H202100015042533700015042533702/12/20210902    31500082237421964250000E1AB1100003888280000000000000                                                                        SOLUCION SALINA 0.9% X 50 mlBOL     5
RC0001146543342H202100015042533700015042533702/12/20210902    31500082237421964250000E1AC0100000199400000000000000                                                                          SUERO MIXTO Sln Iny 500 mlBIN     3
TI0001066284726H202100015042533700015042533702/12/20210902    31500082237421964250000E1AC0100000199400000000000000                                                                          SUERO MIXTO Sln Iny 500 mlBIN     6
