CC0000022629415H202100000556473200000556473202/12/20210850    31902978237421964250000C7AB1400001278150000000000000                                                                       BETALOC ZOK TAB LM 100 MG /R/TAB     1
CC0000022629415H202100000556473200000556473202/12/20210850    31902978237421964250000J01DA300001239950000000000000                                                            CEFAZOLINA SODICA POLVO LIOF SLN INY 1 GVAL     1
CC0000022629415H202100000556473200000556473202/12/20210850    31902978237421964250000N02B1100001464120000000000000                                           PARACETAMOL EP 1000MG/100ML(10MG/ML) SOL INY  CAJ X 10FCOVAL     1
