CC0000008682417U202100000556478900000556478902/12/20211359    31500177239421964320000E1AB0200000199290000000000000                                                            SOLUCION SALINA 0.9% SLN INY BO X 100 MLBIN     1
CC0000008682417U202100000556478900000556478902/12/20211359    31500177239421964320000E1AD0200003888320000000000000                                                                              HARTMAN SLN INY 500 MLBOL     1
CC0000008682417U202100000556478900000556478902/12/20211031    31900939239421964320000E1AD0300000199490000000000000                                         LACTATO RINGER USP (HARTMANN)  SOL INY  BOL X 1000ML BAXTERBIN     1
CC0000008682417U202100000556478900000556478902/12/20211016    31900939239421964320000E1AD0300000199490000000000000                                         LACTATO RINGER USP (HARTMANN)  SOL INY  BOL X 1000ML BAXTERBIN     1
CC0000008682417U202100000556478900000556478902/12/20211343     3300010239421964320000C7AB1000001382030000000000000                                                                   NOREPINEFRINA SLN INY 4 MG / 4 MLAMP     2
CC0000008682417U202100000556478900000556478902/12/20211343     3300010239421964320000N2AA0100000301640000000000000                                                                            MORFINA Sln Iny 10 mg/mlAMP     1
CC0000008682417U202100000556478900000556478902/12/20211020     3300010239421964320000A03BB100003889180000000000000                                      HIOSCINA BUTIL BROMURO 20MG/ML SOL INY CAJ X 100AMP X 1ML RYANAMP     1
CC0000008682417U202100000556478900000556478902/12/20211020     3300010239421964320000N02BB100000777810000000000000                                                               DIPIRONA MAGNESICA SLN INY 2.5 G/5 MLAMP     1
