CC0001042353509H202100015052796400015052796402/12/20212051    3190206423742196425000082508500000968690000000000000                                                                 EQUIPO INFUSOMAT C/PUNZON 8250857SPBOL     1
CC0001042353509H202100015052796400015052796402/12/20212051    3190206423742196425000022426800001140510000000000000                                                                    EQUIPO MACROGOTEO BAXTER MRC0001SOB     1
CC0000009240037H202100015052796400015052796402/12/20212051    3190206423742196425000011082700001620070000000000000                                                               EQUIPO SET PRIMARIO C/CLAVE REF 14001BOL     1
CC0000003719048H202100015052796400015052796402/12/20212051    3190206423742196425000011082700001620070000000000000                                                               EQUIPO SET PRIMARIO C/CLAVE REF 14001BOL     1
CC0001045685077H202100015052796400015052796402/12/20212051    3190206423742196425000011082700001620070000000000000                                                               EQUIPO SET PRIMARIO C/CLAVE REF 14001BOL     1
CC0000009240037H202100015052796400015052796402/12/20212051    3190206423742196425000001956000001620610000000000000                                                                      CONECTOR MICRO CLAVE LAT-MC100SOB     1
CC0000003719048H202100015052796400015052796402/12/20212051    3190206423742196425000001956000001620610000000000000                                                                      CONECTOR MICRO CLAVE LAT-MC100SOB     1
CC0000009240037H202100015052796400015052796402/12/20212051    31902064237421964250000Q1AA7300000610640000000000000                                                            CATETER PERIFE INTROCAN # 22G 4251628-04SIN     2
CC0001042353509H202100015052796400015052796402/12/20212051    31902064237421964250000Q1AA7300000610640000000000000                                                            CATETER PERIFE INTROCAN # 22G 4251628-04SIN     2
CC0000009240037H202100015052796400015052796402/12/20212051    3190206423742196425000030936900001431840000000000000                                                                                              BURETABOL     1
CC0000003719048H202100015052796400015052796402/12/20212051    3190206423742196425000030936900001431840000000000000                                                                                              BURETABOL     1
CC0001045685077H202100015052796400015052796402/12/20212051    3190206423742196425000030936900001431840000000000000                                                                                              BURETABOL     1
CC0000019068414H202100015052796400015052796402/12/20212051    3190206423742196425000030936900001431840000000000000                                                                                              BURETABOL     1
CC0000009240037H202100015052796400015052796402/12/20212051    3190206423742196425000016830000000970620000000000000                                                             SIST FIJACION CAT PERIFERICO 6.5X7 1683SOB     1
CC0000003719048H202100015052796400015052796402/12/20212051    3190206423742196425000016830000000970620000000000000                                                             SIST FIJACION CAT PERIFERICO 6.5X7 1683SOB     1
