CC0000042208823H202100015052796000015052796002/12/20211957    3190118923742196425000022426800001140510000000000000                                                                    EQUIPO MACROGOTEO BAXTER MRC0001SOB     1
TI0001043694182H202100015052796000015052796002/12/20211957    3190118923742196425000022426800001140510000000000000                                                                    EQUIPO MACROGOTEO BAXTER MRC0001SOB     1
CC0000079767241H202100015052796000015052796002/12/20211957    3190118923742196425000022426800001140510000000000000                                                                    EQUIPO MACROGOTEO BAXTER MRC0001SOB     1
CC0000072205914H202100015052796000015052796002/12/20211957    3190118923742196425000011082700001620070000000000000                                                               EQUIPO SET PRIMARIO C/CLAVE REF 14001BOL     1
CC0000072018971H202100015052796000015052796002/12/20211957    3190118923742196425000011082700001620070000000000000                                                               EQUIPO SET PRIMARIO C/CLAVE REF 14001BOL     1
CC0000042208823H202100015052796000015052796002/12/20211957    3190118923742196425000001956000001620610000000000000                                                                      CONECTOR MICRO CLAVE LAT-MC100SOB     1
CC0000072205914H202100015052796000015052796002/12/20211957    3190118923742196425000001956000001620610000000000000                                                                      CONECTOR MICRO CLAVE LAT-MC100SOB     1
CC0000072018971H202100015052796000015052796002/12/20211957    3190118923742196425000001956000001620610000000000000                                                                      CONECTOR MICRO CLAVE LAT-MC100SOB     1
CC0000079767241H202100015052796000015052796002/12/20211957    3190118923742196425000001956000001620610000000000000                                                                      CONECTOR MICRO CLAVE LAT-MC100SOB     1
CC0000042208823H202100015052796000015052796002/12/20211957    31901189237421964250000Q1AA7200000610630000000000000                                                            CATETER PERIFE INTROCAN # 20G 4251644-04SIN     1
CC0000072205914H202100015052796000015052796002/12/20211957    31901189237421964250000Q1AA7200000610630000000000000                                                            CATETER PERIFE INTROCAN # 20G 4251644-04SIN     1
CC0000072018971H202100015052796000015052796002/12/20211957    31901189237421964250000Q1AA7200000610630000000000000                                                            CATETER PERIFE INTROCAN # 20G 4251644-04SIN     1
CC0000079767241H202100015052796000015052796002/12/20211957    31901189237421964250000Q1AA7200000610630000000000000                                                            CATETER PERIFE INTROCAN # 20G 4251644-04SIN     1
CC0000042208823H202100015052796000015052796002/12/20211957    3190118923742196425000030936900001431840000000000000                                                                                              BURETABOL     1
CC0000072205914H202100015052796000015052796002/12/20211957    3190118923742196425000030936900001431840000000000000                                                                                              BURETABOL     1
CC0000072018971H202100015052796000015052796002/12/20211957    3190118923742196425000030936900001431840000000000000                                                                                              BURETABOL     1
CC0000042208823H202100015052796000015052796002/12/20211957    3190118923742196425000016830000000970620000000000000                                                             SIST FIJACION CAT PERIFERICO 6.5X7 1683SOB     1
CC0000072205914H202100015052796000015052796002/12/20211957    3190118923742196425000016830000000970620000000000000                                                             SIST FIJACION CAT PERIFERICO 6.5X7 1683SOB     1
CC0000072018971H202100015052796000015052796002/12/20211957    3190118923742196425000016830000000970620000000000000                                                             SIST FIJACION CAT PERIFERICO 6.5X7 1683SOB     1
CC0000079767241H202100015052796000015052796002/12/20211957    3190118923742196425000016830000000970620000000000000                                                             SIST FIJACION CAT PERIFERICO 6.5X7 1683SOB     1
