TI0001043694182H202100920528120200920528120202/12/20210036    3150058123742196425000001956000001620610000000000000                                                                      CONECTOR MICRO CLAVE LAT-MC100SOB     1
TI0001043694182H202100920528120200920528120202/12/20210036    31500581237421964250000Q1AA7400003911720000000000000                                                            CATETER PERIFE INTROCAN # 24G 4251601-04SOB     3
TI0001043694182H202100920528120200920528120202/12/20210138    3150058123742196425000030936900001431840000000000000                                                                                              BURETABOL     1
TI0001043694182H202100920528120200920528120202/12/20210956    3190325423742196425000024674000001138340000000000000   JERINGA 3PARTES C/A 10ML REF JEHL005 CAJ X 100 ALFASAFE  21GX1 PULG 1/2 PULG BN EXENTO-DC.417/202PZA     6
TI0001043694182H202100920528120200920528120202/12/20210956    31903254237421964250000E1AB0200000199290000000000000                                                            SOLUCION SALINA 0.9% SLN INY BO X 100 MLBIN     3
TI0001043694182H202100920528120200920528120202/12/20211136    3150012023742196425000024674000001138340000000000000   JERINGA 3PARTES C/A 10ML REF JEHL005 CAJ X 100 ALFASAFE  21GX1 PULG 1/2 PULG BN EXENTO-DC.417/202PZA     6
TI0001043694182H202100920528120200920528120202/12/20211136    31500120237421964250000E1AB0200000199290000000000000                                                            SOLUCION SALINA 0.9% SLN INY BO X 100 MLBIN     3
