CC0000003719048H202100000556482000000556482002/12/20211251     3300009237421964250000C7FA0200001277980000000000000                                                                                    NORVAS TAB 10 MGTAB     1
CC0000003719048H202100000556482000000556482002/12/20211251     3300009237421964250000C09CA400001277130000000000000                                                                                  LOSARTAN TAB 50 MGTAB     2
CC0000003719048H202100000556482000000556482002/12/20211251     3300009237421964250000J1KF0200001677230000000000000                                                                      MERONEM POLVO SLN INY 1 G  /R/VAL     1
CC0000003719048H202100000556482000000556482002/12/20211126     3300009237421964250000J1KF0200001677230000000000000                                                                      MERONEM POLVO SLN INY 1 G  /R/VAL     4
CC0000003719048H202100000556482000000556482002/12/20211251     3300009237421964250000N2AX0400001204140000000000000                                                                             TRAMAL Sln Iny 50 mg/mlAMP     3
CC0000003719048H202100000556482000000556482002/12/20211252     3300009237421964250000N02B1100001464120000000000000                                           PARACETAMOL EP 1000MG/100ML(10MG/ML) SOL INY  CAJ X 10FCOVAL     2
CC0000003719048H202100000556482000000556482002/12/20211251     3300009237421964250000N02B1100001464120000000000000                                           PARACETAMOL EP 1000MG/100ML(10MG/ML) SOL INY  CAJ X 10FCOVAL     1
CC0000003719048H202100000556482000000556482002/12/20211845    31903301237421964250000V07A1300000502600000000000000                                                                                AGUA ESTERIL x 10 mlAMP     3
