CC0001143115732H202100000556459800000556459802/12/20210044     3300009237421964250000A2BC0900000200150000000000000                                                                               ORAZOLE Sln Iny 40 mgCIN     2
CC0001143115732H202100000556459800000556459802/12/20210853     3300009237421964250000A4AD0200000202990000000000000                                                                     PLITICAN HCL Sln Iny 50 mg/2 mlAMP     1
CC0001143115732H202100000556459800000556459802/12/20210044     3300009237421964250000A4AD0200000202990000000000000                                                                     PLITICAN HCL Sln Iny 50 mg/2 mlAMP     4
CC0001143115732H202100000556459800000556459802/12/20210853     3300009237421964250000A3BB0200000512940000000000000                                                                          BUSCAPINA SIMPLE Iny 20 mgAMP     2
CC0001143115732H202100000556459800000556459802/12/20210114     3300004237421964250000A3BB0200000512940000000000000                                                                          BUSCAPINA SIMPLE Iny 20 mgAMP     1
CC0001143115732H202100000556459800000556459802/12/20210113     3300004237421964250000A3BB0200000512940000000000000                                                                          BUSCAPINA SIMPLE Iny 20 mgAMP     1
CC0001143115732H202100000556459800000556459802/12/20211351    31901450237421964250000E1AD0300000199490000000000000                                         LACTATO RINGER USP (HARTMANN)  SOL INY  BOL X 1000ML BAXTERBIN     2
CC0001143115732H202100000556459800000556459802/12/20211351    31901450237421964250000V07A1300000502600000000000000                                                                                AGUA ESTERIL x 10 mlAMP    10
