CC0000008301142H202100000556485200000556485202/12/20211241     3300009237421964250000B1AB1200003939350000000000000                 ENOXAPARINA SODICA 80MG/0.8ML(100MG/ML) SOL INY INST CAJ X 2JERPREL X 0.8ML TECHDOWJRP     1
CC0000008301142H202100000556485200000556485202/12/20211549     3300009237421964250000C07A1400001333340000000000000                                                                          CARVEDILOL TAB 12.5 MG /R/TAB     1
CC0000008301142H202100000556485200000556485202/12/20211240     3300009237421964250000C07A1400001333340000000000000                                                                          CARVEDILOL TAB 12.5 MG /R/TAB     1
CC0000008301142H202100000556485200000556485202/12/20212113     3300009237421964250000C07A1300001314300000000000000                                                                            CARVEDILOL TAB 25 MG /R/TAB     2
CC0000008301142H202100000556485200000556485202/12/20211550     3300009237421964250000C07A1300001314300000000000000                                                                            CARVEDILOL TAB 25 MG /R/TAB     1
CC0000008301142H202100000556485200000556485202/12/20211241     3300009237421964250000N2BE2200001252930000000000000                                                                             ACETAMINOFEN Tab 500 MGTAB     6
CC0000008301142H202100000556485200000556485202/12/20211240     3300009237421964250000N02BA100001276940000000000000                                                                  ACIDO ACETIL SALIC?LICO TAB 100 MGTAB     1
CC0000008301142H202100000556485200000556485202/12/20211241     3300009237421964250000A02BC700001684270000000000000                                                            OMEPRAZOL 40MG POLVO LIOFILIZADO AMPOLLAVAL     1
CC0000008301142H202100000556485200000556485202/12/20211320    31903301237421964250000V07A1300000502600000000000000                                                                                AGUA ESTERIL x 10 mlAMP     3
