CC0001042453584H202100000556485700000556485702/12/20211253     3300009237421964250000A03F0300001626860000000000000                                                                   METOCLOPRAMIDA SLN INY 10 MG/2 MLAMP     2
CC0001042453584H202100000556485700000556485702/12/20211252     3300009237421964250000J01DA300001239950000000000000                                                            CEFAZOLINA SODICA POLVO LIOF SLN INY 1 GVAL     4
CC0001042453584H202100000556485700000556485702/12/20211253     3300009237421964250000A02B1700001314860000000000000                                                                               ESOMEPRAZOL TAB 20 MGTAB     4
CC0001042453584H202100000556485700000556485702/12/20211253     3300009237421964250000A03BB100003889180000000000000                                      HIOSCINA BUTIL BROMURO 20MG/ML SOL INY CAJ X 100AMP X 1ML RYANAMP     1
CC0001042453584H202100000556485700000556485702/12/20211252     3300009237421964250000A03BB100003889180000000000000                                      HIOSCINA BUTIL BROMURO 20MG/ML SOL INY CAJ X 100AMP X 1ML RYANAMP     3
CC0001042453584H202100000556485700000556485702/12/20211253     3300009237421964250000N2BB0100001672010000000000000                                  DIPIRONA 1GR/2ML(0.5GR/ML) SOL INY INST CAJ X 100AMP X 2ML VITALISAMP     3
