CC0001007393082U202100050131886500050131886502/12/20211128    3190318023942196432000011082700001620070000000000000                                                               EQUIPO SET PRIMARIO C/CLAVE REF 14001BOL     1
CC0001007393082U202100050131886500050131886502/12/20211128    3190318023942196432000001956000001620610000000000000                                                                      CONECTOR MICRO CLAVE LAT-MC100SOB     1
CC0001007393082U202100050131886500050131886502/12/20211128    31903180239421964320000Q1AA7200000610630000000000000                                                            CATETER PERIFE INTROCAN # 20G 4251644-04SIN     1
CC0001007393082U202100050131886500050131886502/12/20211128    3190318023942196432000016830000000970620000000000000                                                             SIST FIJACION CAT PERIFERICO 6.5X7 1683SOB     1
CC0001007393082U202100050131886500050131886502/12/20211128    31903180239421964320000E1AB0200000199290000000000000                                                            SOLUCION SALINA 0.9% SLN INY BO X 100 MLBIN     1
