CC0000072339909H202100919896120200919896120202/12/20211143    3150053223742196425000011137100001419310000000000000                                                               TIRA GLUCOMETRIA FREESTYLE H OPTIUM .PZA     3
CC0000072339909H202100919896120200919896120202/12/20211143    3150053223742196425000024674000001138340000000000000   JERINGA 3PARTES C/A 10ML REF JEHL005 CAJ X 100 ALFASAFE  21GX1 PULG 1/2 PULG BN EXENTO-DC.417/202PZA    16
CC0000072339909H202100919896120200919896120202/12/20211143    3150053223742196425000045136100001419300000000000000                                                                            LANCETA DEXTROMETER X UNPZA     3
CC0000072339909H202100919896120200919896120202/12/20211143    31500532237421964250000E1AB0200000199290000000000000                                                            SOLUCION SALINA 0.9% SLN INY BO X 100 MLBIN    10
CC0000072339909H202100919896120200919896120202/12/20211143    31500532237421964250000E1AB0500003888400000000000000                                                              SOLUCION SALINA 0.9% SLN INY X 1000 MLBOL     3
CC0000072339909H202100919896120200919896120202/12/20211143    31500532237421964250000V07A1300000502600000000000000                                                                                AGUA ESTERIL x 10 mlAMP    10
CC0000072339909H202100919896120200919896120202/12/20212324    3190099823742196425000011081700001413910000000000000                                                                EQUIPO ADM NUTRICIONES 673662 BAXTERBOL     1
