CC0000008682417H202100015112731200015112731202/12/20211831    3190311023742196425000030161400001459220000000000000                                                                       MANGUERA SUCCION 6 MM*3.1 MTSSOB     1
CC0000008682417H202100015112731200015112731202/12/20211831    3190311023742196425000039175200001072070000000000000                                                                           TUBO ENDOTRAQUEAL C/B 8.0SOB     1
CC0000008682417H202100015112731200015112731202/12/20211831    3190311023742196425000039176700001029620000000000000                                                                    SUJETADOR TUBO ENDOTRAQUEAL 9799SOB     1
CC0000008682417H202100015112731200015112731202/12/20211831    3190311023742196425000022108000003906060000000000000                                                            SIST CERRAD ASPIRAC TRACH  22108-5 14 FRSOB     1
CC0000008682417H202100015112731200015112731202/12/20211831    3190311023742196425000055816100001138270000000000000                                                            SET VENTILACI BASIC AD MP00349 180CM*22MBOL     1
CC0000008682417H202100015112731200015112731202/12/20211831    3190311023742196425000010252000003981620000000000000                                                            RESUCITADOR MANUAL ADULTO BE - 2503 AMBUBOL     1
CC0000008682417H202100015112731200015112731202/12/20211831    3190311023742196425000043492400000516570000000000000                                                                   GUIA P/TUBO ENDOTRAQ ADULTO 85865SIN     1
CC0000008682417H202100015112731200015112731202/12/20211831    3190311023742196425000011084700000516550000000000000                                                                FILTRO CALOR-HUMEDAD AD REF 352/5877SIN     1
CC0000008682417H202100015112731200015112731202/12/20211831    3190311023742196425000020816000001096410000000000000                                                                          LINER PARED DELGADA 1500CCBOL     1
CC0000008682417H202100015112731200015112731202/12/20211831    3190311023742196425000000601300001271960000000000000                                                               APOSITO DUODERM CGF  187661 (15X15)CMSOB     1
