CC0000026695868H202100920889120200920889120202/12/20210754    3190099723742196425000016830000000970620000000000000                                                             SIST FIJACION CAT PERIFERICO 6.5X7 1683SOB     1
CC0000026695868H202100920889120200920889120202/12/20210754    3190099723742196425000001956000001620610000000000000                                                                      CONECTOR MICRO CLAVE LAT-MC100SOB     1
CC0000026695868H202100920889120200920889120202/12/20210754    31900997237421964250000Q1AA7400003911720000000000000                                                            CATETER PERIFE INTROCAN # 24G 4251601-04SOB     1
