RC0001027212292U202100050131888200050131888202/12/20211332    3190318023942196432000024674000001138340000000000000   JERINGA 3PARTES C/A 10ML REF JEHL005 CAJ X 100 ALFASAFE  21GX1 PULG 1/2 PULG BN EXENTO-DC.417/202PZA     2
CC0001045670902U202100050131888200050131888202/12/20211332    3190318023942196432000024674000001138340000000000000   JERINGA 3PARTES C/A 10ML REF JEHL005 CAJ X 100 ALFASAFE  21GX1 PULG 1/2 PULG BN EXENTO-DC.417/202PZA     2
RC0001027212292U202100050131888200050131888202/12/20211332    3190318023942196432000011082700001620070000000000000                                                               EQUIPO SET PRIMARIO C/CLAVE REF 14001BOL     1
CC0001045670902U202100050131888200050131888202/12/20211332    3190318023942196432000011082700001620070000000000000                                                               EQUIPO SET PRIMARIO C/CLAVE REF 14001BOL     1
RC0001027212292U202100050131888200050131888202/12/20211332    3190318023942196432000001956000001620610000000000000                                                                      CONECTOR MICRO CLAVE LAT-MC100SOB     1
CC0001045670902U202100050131888200050131888202/12/20211332    3190318023942196432000001956000001620610000000000000                                                                      CONECTOR MICRO CLAVE LAT-MC100SOB     1
CC0001045670902U202100050131888200050131888202/12/20211332    31903180239421964320000Q1AA7200000610630000000000000                                                            CATETER PERIFE INTROCAN # 20G 4251644-04SIN     1
RC0001027212292U202100050131888200050131888202/12/20211332    31903180239421964320000Q1AA7400003911720000000000000                                                            CATETER PERIFE INTROCAN # 24G 4251601-04SOB     1
RC0001027212292U202100050131888200050131888202/12/20211332    3190318023942196432000030936900001431840000000000000                                                                                              BURETABOL     1
CC0001045670902U202100050131888200050131888202/12/20211332    3190318023942196432000030936900001431840000000000000                                                                                              BURETABOL     1
RC0001027212292U202100050131888200050131888202/12/20211332    3190318023942196432000000602600001259280000000000000                                                             APOSITO TEGADERM IV PD 1610 5CM X 5.7CMSOB     1
CC0001045670902U202100050131888200050131888202/12/20211332    3190318023942196432000016830000000970620000000000000                                                             SIST FIJACION CAT PERIFERICO 6.5X7 1683SOB     1
RC0001027212292U202100050131888200050131888202/12/20211332    31903180239421964320000E1AD0200003888320000000000000                                                                              HARTMAN SLN INY 500 MLBOL     1
