CC0001045667313U202100050131891800050131891802/12/20211842    3150051423942196432000038568300000257010000000000000                                                                                   SONDA NELATON #08SIN     1
CC0001045667313U202100050131891800050131891802/12/20211842    31500514239421964320000B05C0200001339660000000000000                                                                        SOLUCION SALINA 0.9% X 10 MLJRP     1
NV0000169219848U202100050131891800050131891802/12/20211842    3150051423942196432000024674000001138340000000000000   JERINGA 3PARTES C/A 10ML REF JEHL005 CAJ X 100 ALFASAFE  21GX1 PULG 1/2 PULG BN EXENTO-DC.417/202PZA     1
NV0000169219848U202100050131891800050131891802/12/20211842    31500514239421964320000E1AB0200000199290000000000000                                                            SOLUCION SALINA 0.9% SLN INY BO X 100 MLBIN     1
