CC0000007411669H202100000556458600000556458602/12/20211130     3300009237421964250000A12BA500003864190000000000000                                                   ION-K 1.56GR/5ML(31.2%) SOL ORAL INST FCO X 180MLFCO     1
CC0000007411669H202100000556458600000556458602/12/20210031     3300009237421964250000B03AX100000518540000000000000                                                                RECORMON SLN INY 30000 UI/0.6 ML /R/JRP     1
CC0000007411669H202100000556458600000556458602/12/20211041    31500082237421964250000E1AB0200000199290000000000000                                                            SOLUCION SALINA 0.9% SLN INY BO X 100 MLBIN     4
CC0000007411669H202100000556458600000556458602/12/20211041    31500082237421964250000E1AB0700003888350000000000000                                                            SOLUCION SALINA 0.9% SLN INY BO X 250 MLBOL     1
CC0000007411669H202100000556458600000556458602/12/20210039    31500107237421964250000E1AB0700003888350000000000000                                                            SOLUCION SALINA 0.9% SLN INY BO X 250 MLBOL     2
CC0000007411669H202100000556458600000556458602/12/20211041    31500082237421964250000E1AB0300003888390000000000000                                                            SOLUCION SALINA 0.9% SLN INY BO X 500 MLBOL     2
CC0000007411669H202100000556458600000556458602/12/20211904     3300009237421964250000A12BA100000552980000000000000                                                            CLORURO POTASIO Sln Iny AMP 20 MEQ/10 MLAMP     1
CC0000007411669H202100000556458600000556458602/12/20211655     3300009237421964250000A12BA100000552980000000000000                                                            CLORURO POTASIO Sln Iny AMP 20 MEQ/10 MLAMP     2
CC0000007411669H202100000556458600000556458602/12/20211131     3300009237421964250000A12BA100000552980000000000000                                                            CLORURO POTASIO Sln Iny AMP 20 MEQ/10 MLAMP     2
CC0000007411669H202100000556458600000556458602/12/20211130     3300009237421964250000J01XA400001212420000000000000                                                               VANCOMICINA POLVO LIOF SLN INY 500 MGVAL     4
CC0000007411669H202100000556458600000556458602/12/20210056     3300004237421964250000J01XA400001212420000000000000                                                               VANCOMICINA POLVO LIOF SLN INY 500 MGVAL     4
CC0000007411669H202100000556458600000556458602/12/20211130     3300009237421964250000A2BC0700001335700000000000000                                                                                 OMEPRAZOL CAP 40 MGCAP     1
CC0000007411669H202100000556458600000556458602/12/20211130     3300009237421964250000B01AB200000513350000000000000                                                                        CLENOX SLN INY 40 MG/ 0.4 MLJRP     1
CC0000007411669H202100000556458600000556458602/12/20211131     3300009237421964250000C03D0200001334290000000000000                                                                           ESPIRONOLACTONA TAB 25 MGTAB     1
CC0000007411669H202100000556458600000556458602/12/20211130     3300009237421964250000J01CR300003913920000000000000                                                     AUROTAZ-P (4+0.5)GR POLV INY CAJ X 1VIAL X 50MLVAL     1
CC0000007411669H202100000556458600000556458602/12/20211041    31500082237421964250000V07A1300000502600000000000000                                                                                AGUA ESTERIL x 10 mlAMP    10
