CC0000022912921H202100000556495500000556495502/12/20211705    31902291237421964250000A2BX0100001277280000000000000                                                                                ALSUCRAL TAB 1 G /R/TAB     3
CC0000022912921H202100000556495500000556495502/12/20211705    31902291237421964250000A02BA300000594480000000000000                                                                         GASTRUM FAST TAB MAST 10 MGTAB     3
CC0000022912921H202100000556495500000556495502/12/20211705    31902291237421964250000B1AB0200003939510000000000000                 ENOXAPARINA SODICA 40MG/0.4ML(100MG/ML) SOL INY INST CAJ X 2JERPREL X 0.4ML TECHDOWJRP     1
CC0000022912921H202100000556495500000556495502/12/20211705    31902291237421964250000M1AE3400001335480000000000000                                                                                NAPROXENO TAB 250 MGTAB     4
CC0000022912921H202100000556495500000556495502/12/20211705    31902291237421964250000N2BE0100001276930000000000000                                                                                    DOLEX TAB 500 MGTAB     6
CC0000022912921H202100000556495500000556495502/12/20211705    31902291237421964250000A3BB0300000512950000000000000                                                             BUSCAPINA COMP Sln Iny 20 mg+2.5 g/5 mlAMP     1
CC0000022912921H202100000556495500000556495502/12/20211705    31902291237421964250000N05A0500001336370000000000000                                                                              SEROQUEL TAB 25 MG /R/TAB     1
CC0000022912921H202100000556495500000556495502/12/20211705    31902291237421964250000N6AB0200001335970000000000000                                                                                    PROZAC CAP 20 MGTAB     1
CC0000022912921H202100000556495500000556495502/12/20211705    31902291237421964250000N5BA0600001278070000000000000                                                                                    XANAX Tab 0.5 mgTAB     1
