CC0000022912921H202100000556482900000556482902/12/20211224     3300009237421964250000A2BX0100001277280000000000000                                                                                ALSUCRAL TAB 1 G /R/TAB     3
CC0000022912921H202100000556482900000556482902/12/20211225     3300009237421964250000A02BA300000594480000000000000                                                                         GASTRUM FAST TAB MAST 10 MGTAB     2
CC0000022912921H202100000556482900000556482902/12/20211224     3300009237421964250000B1AB0200003939510000000000000                 ENOXAPARINA SODICA 40MG/0.4ML(100MG/ML) SOL INY INST CAJ X 2JERPREL X 0.4ML TECHDOWJRP     1
CC0000022912921H202100000556482900000556482902/12/20211224     3300009237421964250000M1AE3400001335480000000000000                                                                                NAPROXENO TAB 250 MGTAB     2
CC0000022912921H202100000556482900000556482902/12/20211224     3300009237421964250000N05A0500001336370000000000000                                                                              SEROQUEL TAB 25 MG /R/TAB     1
CC0000022912921H202100000556482900000556482902/12/20211544     3300009237421964250000N5BA0600001278070000000000000                                                                                    XANAX Tab 0.5 mgTAB     1
