CC0000022590499H202100015112730700015112730702/12/20211715    3190294123742196425000022108000003906060000000000000                                                            SIST CERRAD ASPIRAC TRACH  22108-5 14 FRSOB     1
CC0000022590499H202100015112730700015112730702/12/20211715    3190294123742196425000055816100001138270000000000000                                                            SET VENTILACI BASIC AD MP00349 180CM*22MBOL     1
CC0000022590499H202100015112730700015112730702/12/20211715    3190294123742196425000011084700000516550000000000000                                                                FILTRO CALOR-HUMEDAD AD REF 352/5877SIN     3
CC0000022590499H202100015112730700015112730702/12/20211715    3190294123742196425000011078200001605710000000000000                                                                 CONECTOR FIBROBRONCOSCOPIO 9591 40CSOB     1
CC0000022590499H202100015112730700015112730702/12/20211715    3190294123742196425000011077500001287420000000000000                                                            CIRCUITO RESP VENTST 5703041 OXYLOG 3000BOL     1
