CC0000013825497H202100015112729500015112729502/12/20210556    3150055523742196425000043879200001138180000000000000                                                                                   HOJA BISTURI # 11SOB     1
CC0000013825497H202100015112729500015112729502/12/20210556    3150055523742196425000043485100001618510000000000000                GUANTE QUIRURGICO DE LATEX REF 2D72N65X CAJ X 50 PROTEXIS  6.5 BN EXENTO-DC.417/2020SOB     2
CC0000013825497H202100015112729500015112729502/12/20210556    3150055523742196425000011089400001083350000000000000                                                              GUANTE ESTERIL LATEX S/POLVO TALLA 8.0SOB     1
CC0000013825497H202100015112729500015112729502/12/20210556    3150055523742196425000013077800000471960000000000000                                                             GASA NO TEJIDA EST 7.5 X 7.5 SOB X 3 UNSOB     3
CC0001143115732H202100015112729500015112729502/12/20210556    3150055523742196425000022426800001140510000000000000                                                                    EQUIPO MACROGOTEO BAXTER MRC0001SOB     1
CC0000013825497H202100015112729500015112729502/12/20210556    3150055523742196425000000602700001197200000000000000                                                              APOSITO TRANSP  1655 IV 8.5CM X 11.5CMSOB     1
CC0000013825497H202100015112729500015112729502/12/20210556    3150055523742196425000016830000000970620000000000000                                                             SIST FIJACION CAT PERIFERICO 6.5X7 1683SOB     1
