CC0001083025649U202100050131883700050131883702/12/20210822    3200080323942196432000024674000001138340000000000000   JERINGA 3PARTES C/A 10ML REF JEHL005 CAJ X 100 ALFASAFE  21GX1 PULG 1/2 PULG BN EXENTO-DC.417/202PZA     1
CC0001083025649U202100050131883700050131883702/12/20210822    3200080323942196432000011082700001620070000000000000                                                               EQUIPO SET PRIMARIO C/CLAVE REF 14001BOL     1
CC0001083025649U202100050131883700050131883702/12/20210822    3200080323942196432000030936900001431840000000000000                                                                                              BURETABOL     1
CC0001083025649U202100050131883700050131883702/12/20210822    32000803239421964320000E1AB0500003888400000000000000                                                              SOLUCION SALINA 0.9% SLN INY X 1000 MLBOL     1
