CC0000019132127H202100000556476600000556476602/12/20210940     3300009237421964250000A2BC0100001277990000000000000                                                                                   ORAZOLE CAP 20 MGCAP     2
CC0000019132127H202100000556476600000556476602/12/20210939     3300009237421964250000C09CA500001335670000000000000                                                                            OLMESARTAN 20 MG TABLETATAB     2
CC0000019132127H202100000556476600000556476602/12/20210939     3300009237421964250000J01DA300001239950000000000000                                                            CEFAZOLINA SODICA POLVO LIOF SLN INY 1 GVAL     6
CC0000019132127H202100000556476600000556476602/12/20211241     3300009237421964250000N1BA1900000554750000000000000                                                                     ROXICAINA JALEA 2% TUBO X 30 MLTUB     1
CC0000019132127H202100000556476600000556476602/12/20210940     3300009237421964250000N02B1100001464120000000000000                                           PARACETAMOL EP 1000MG/100ML(10MG/ML) SOL INY  CAJ X 10FCOVAL     4
