RC0001042267521U202100050131894300050131894302/12/20212351    3190199223942196432000024674000001138340000000000000   JERINGA 3PARTES C/A 10ML REF JEHL005 CAJ X 100 ALFASAFE  21GX1 PULG 1/2 PULG BN EXENTO-DC.417/202PZA     1
RC0001043709423U202100050131894300050131894302/12/20212351    3190199223942196432000022426800001140510000000000000                                                                    EQUIPO MACROGOTEO BAXTER MRC0001SOB     1
RC0001043476962U202100050131894300050131894302/12/20212351    3190199223942196432000011082700001620070000000000000                                                               EQUIPO SET PRIMARIO C/CLAVE REF 14001BOL     1
RC0001043709423U202100050131894300050131894302/12/20212351    3190199223942196432000001956000001620610000000000000                                                                      CONECTOR MICRO CLAVE LAT-MC100SOB     1
RC0001043709423U202100050131894300050131894302/12/20212351    31901992239421964320000Q1AA7400003911720000000000000                                                            CATETER PERIFE INTROCAN # 24G 4251601-04SOB     1
RC0001043476962U202100050131894300050131894302/12/20212351    3190199223942196432000030936900001431840000000000000                                                                                              BURETABOL     1
RC0001043709423U202100050131894300050131894302/12/20212351    3190199223942196432000016830000000970620000000000000                                                             SIST FIJACION CAT PERIFERICO 6.5X7 1683SOB     1
RC0001043476962U202100050131894300050131894302/12/20212351    31901992239421964320000E1AD0200003888320000000000000                                                                              HARTMAN SLN INY 500 MLBOL     1
RC0001043709423U202100050131894300050131894302/12/20212351    31901992239421964320000E1AB1100003888280000000000000                                                                        SOLUCION SALINA 0.9% X 50 mlBOL     1
