RC0001042267521U202100000556459900000556459902/12/20212146    31901992239421964320000E1AA0800000322190000000000000                                                                          DEXTROSA 5% Sln Iny 250 mlBIN     1
RC0001042267521U202100000556459900000556459902/12/20211059    31900939239421964320000E1AA0800000322190000000000000                                                                          DEXTROSA 5% Sln Iny 250 mlBIN     1
RC0001042267521U202100000556459900000556459902/12/20211202    31900939239421964320000E1AA0100003888590000000000000                                                                        DEXTROSA 5% Sln Iny X 500 mlBOL     1
RC0001042267521U202100000556459900000556459902/12/20212142     3300010239421964320000S2BA0200000468180000000000000                                                                   SOLU-MEDROL SLN INY 40 MG/ML  /R/VAL     1
RC0001042267521U202100000556459900000556459902/12/20211404     3300010239421964320000S2BA0200000468180000000000000                                                                   SOLU-MEDROL SLN INY 40 MG/ML  /R/VAL     1
RC0001042267521U202100000556459900000556459902/12/20210554     3300010239421964320000S2BA0200000468180000000000000                                                                   SOLU-MEDROL SLN INY 40 MG/ML  /R/VAL     1
RC0001042267521U202100000556459900000556459902/12/20210553     3300010239421964320000S2BA0200000468180000000000000                                                                   SOLU-MEDROL SLN INY 40 MG/ML  /R/VAL     1
RC0001042267521U202100000556459900000556459902/12/20212142     3300010239421964320000J1FA1600001247370000000000000                                                                  KLARICID POLVO LIOF SLN INY 500 MGVAL     1
RC0001042267521U202100000556459900000556459902/12/20211023     3300010239421964320000J1FA1600001247370000000000000                                                                  KLARICID POLVO LIOF SLN INY 500 MGVAL     1
RC0001042267521U202100000556459900000556459902/12/20210115     3300010239421964320000J1FA1600001247370000000000000                                                                  KLARICID POLVO LIOF SLN INY 500 MGVAL     1
RC0001042267521U202100000556459900000556459902/12/20210354     3300010239421964320000N2BE1100000836430000000000000                                             ACETAMINOFEN 150MG/5ML(3%) JBE INST FCO X 60ML AMER GENCAJ     1
RC0001042267521U202100000556459900000556459902/12/20210048     3300010239421964320000R03BA800001396350000000000000                                                             BECLOMETASONA DIPROP INH ORAL 50 MCG/DOFCO     1
