CC0000008530442H202100000556460300000556460302/12/20211449     3300009237421964250000A2BC0900000200150000000000000                                                                               ORAZOLE Sln Iny 40 mgCIN     2
CC0000008530442H202100000556460300000556460302/12/20211613     3300009237421964250000A03F0300001626860000000000000                                                                   METOCLOPRAMIDA SLN INY 10 MG/2 MLAMP     4
CC0000008530442H202100000556460300000556460302/12/20211450     3300009237421964250000A10A1900000601020000000000000                                                                   APIDRA CARTU 100 UI/ML X 3 ML /R/CAR     1
CC0000008530442H202100000556460300000556460302/12/20211449     3300009237421964250000J01XA400001212420000000000000                                                               VANCOMICINA POLVO LIOF SLN INY 500 MGVAL     6
CC0000008530442H202100000556460300000556460302/12/20211751     3300009237421964250000N1AH0200003906560000000000000                                                                     FENTANIL Iny 0.05 mg/ml x 10 mlAMP     2
CC0000008530442H202100000556460300000556460302/12/20211751     3300009237421964250000N2AA0100000301640000000000000                                                                            MORFINA Sln Iny 10 mg/mlAMP     2
CC0000008530442H202100000556460300000556460302/12/20211450     3300009237421964250000C7AB0100001276990000000000000                                                                            BETOPROLOL TAB 50 MG /R/TAB     2
CC0000008530442H202100000556460300000556460302/12/20210057     3300004237421964250000C7AB0100001276990000000000000                                                                            BETOPROLOL TAB 50 MG /R/TAB     1
CC0000008530442H202100000556460300000556460302/12/20211449     3300009237421964250000C09AA300001353220000000000000                                                                                   ENALAPRIL TAB 5MGTAB     1
CC0000008530442H202100000556460300000556460302/12/20211449     3300009237421964250000C10AA500001314010000000000000                                                                             ATORVASTATINA TAB 40 MGTAB     2
CC0000008530442H202100000556460300000556460302/12/20211449     3300009237421964250000J1KD0400000335010000000000000                                                                      GENTAMICINA SLN INY 80 MG/2 MLAMP     3
CC0000008530442H202100000556460300000556460302/12/20211450     3300009237421964250000N2BE2200001252930000000000000                                                                             ACETAMINOFEN Tab 500 MGTAB     1
CC0000008530442H202100000556460300000556460302/12/20211449     3300009237421964250000N2BE2200001252930000000000000                                                                             ACETAMINOFEN Tab 500 MGTAB     1
CC0000008530442H202100000556460300000556460302/12/20211613     3300009237421964250000N2BB0100001672010000000000000                                  DIPIRONA 1GR/2ML(0.5GR/ML) SOL INY INST CAJ X 100AMP X 2ML VITALISAMP     4
