CC0000019490174H202100015112731500015112731502/12/20212008    3190010323742196425000030161400001459220000000000000                                                                       MANGUERA SUCCION 6 MM*3.1 MTSSOB     1
CC0000022590499H202100015112731500015112731502/12/20212008    3190010323742196425000030161400001459220000000000000                                                                       MANGUERA SUCCION 6 MM*3.1 MTSSOB     1
CC0000013887621H202100015112731500015112731502/12/20212008    3190010323742196425000022108000003906060000000000000                                                            SIST CERRAD ASPIRAC TRACH  22108-5 14 FRSOB     1
CC0000019490174H202100015112731500015112731502/12/20212008    3190010323742196425000022108000003906060000000000000                                                            SIST CERRAD ASPIRAC TRACH  22108-5 14 FRSOB     1
CC0000022590499H202100015112731500015112731502/12/20212008    3190010323742196425000022108000003906060000000000000                                                            SIST CERRAD ASPIRAC TRACH  22108-5 14 FRSOB     1
CC0000013887621H202100015112731500015112731502/12/20212008    3190010323742196425000011084700000516550000000000000                                                                FILTRO CALOR-HUMEDAD AD REF 352/5877SIN     1
CC0000019490174H202100015112731500015112731502/12/20212008    3190010323742196425000011084700000516550000000000000                                                                FILTRO CALOR-HUMEDAD AD REF 352/5877SIN     1
CC0000022590499H202100015112731500015112731502/12/20212008    3190010323742196425000011084700000516550000000000000                                                                FILTRO CALOR-HUMEDAD AD REF 352/5877SIN     1
CC0000019490174H202100015112731500015112731502/12/20212008    3190010323742196425000020816000001096410000000000000                                                                          LINER PARED DELGADA 1500CCBOL     1
CC0000022590499H202100015112731500015112731502/12/20212008    3190010323742196425000020816000001096410000000000000                                                                          LINER PARED DELGADA 1500CCBOL     1
