CC0000008530442A202100000027819300000027819302/12/20210813    3190333624042196419000042743200003929860000000000000                   GASA ADHESIVA STRETCH REF 02038-00 ROL X 10MT FIXOMULL 15CM BN EXENTO-DC.417/2020CMT    30
CC0000008530442A202100000027819300000027819302/12/20210813    3190333624042196419000049059900000267420000000000000                                                                 MEDIA ANTIEMBOLICA TAL M 3416LF PARBOL     1
CC0000008530442A202100000027819300000027819302/12/20210813    3190333624042196419000070120200000508270000000000000                                                             PUNTA PALA ELECTROBISTURI LARGA E1551-6SIN     1
CC0000008530442A202100000027819300000027819302/12/20210813    3190333624042196419000024675000001585130000000000000                                                                    JERINGA DESECHABLE 50 ml S/AGUJASOB     2
CC0000008530442A202100000027819300000027819302/12/20210813    3190333624042196419000018630000000358130000000000000                                                                   DURAPREP Sln YODO APLICADOR 26 MLFCO     3
CC0000008530442A202100000027819300000027819302/12/20210813    3190333624042196419000011065700003914100000000000000                                                                 TAPON HEPARINIZADO 4238010  B BRAUNSOB     1
CC0000008530442A202100000027819300000027819302/12/20210813    3190333624042196419000038572900000256860000000000000                                                                                 SONDA NSG LEVIN #14SIN     1
CC0000008530442A202100000027819300000027819302/12/20210813    3190333624042196419000038568500000256950000000000000                                                                                   SONDA NELATON #12SIN     1
CC0000008530442A202100000027819300000027819302/12/20210813    3190333624042196419000000601800000258500000000000000                                                            APOSITO OPSITE POST - OP0712  15CM X 8CMSIN     1
CC0000008530442A202100000027819300000027819302/12/20210813    3190333624042196419000000601900000258430000000000000                                                            APOSITO OPSIT POST -OP 0714  25CM X 10CMSIN     1
CC0000008530442A202100000027819300000027819302/12/20210813    3190333624042196419000018351100000232850000000000000                                                                                 SEDA 2-0 SC-26 185TSIN     2
CC0000008530442A202100000027819300000027819302/12/20210813    3190333624042196419000020042600000633850000000000000                                                                                       ASEPTOJERINGASIN     1
CC0000008530442A202100000027819300000027819302/12/20210813    31903336240421964190000A10AA900000199170000000000000                                                                         HUMULIN R Sln Iny 100 UI/mlVAL     1
CC0000008530442A202100000027819300000027819302/12/20210813    3190333624042196419000028356100001379770000000000000                                                                  SENSOR INVOS ADULTO SAFB-SM/INTL20PZA     2
CC0000008530442A202100000027819300000027819302/12/20210813    31903336240421964190000J01XA400001212420000000000000                                                               VANCOMICINA POLVO LIOF SLN INY 500 MGVAL     2
CC0000008530442A202100000027819300000027819302/12/20210813    31903336240421964190000E1AB0500003888400000000000000                                                              SOLUCION SALINA 0.9% SLN INY X 1000 MLBOL     1
CC0000008530442A202100000027819300000027819302/12/20210813    31903336240421964190000N01B0200003888110000000000000                                           ROXICAINA SE 100MG/10ML(1%) SOL INY CAJ X 24AMPACK X 10MLAPC     2
CC0000008530442A202100000027819300000027819302/12/20210813    3190333624042196419000013077800000471960000000000000                                                             GASA NO TEJIDA EST 7.5 X 7.5 SOB X 3 UNSOB     8
CC0000008530442A202100000027819300000027819302/12/20210813    3190333624042196419000045303900000232380000000000000                                                                   LIGACLIP MED/LARG LT300 VERDE X 6SIN     2
CC0000008530442A202100000027819300000027819302/12/20210813    3190333624042196419000019487800001585180000000000000                                                                    VICRYL 1 PLUS 70 CM CT-1 VCP341HSOB     2
CC0000008530442A202100000027819300000027819302/12/20210813    3190333624042196419000038575900000257180000000000000                                                                                     SONDA TORAX #30SIN     2
CC0000008530442A202100000027819300000027819302/12/20210813    3190333624042196419000045723200000438720000000000000                                                                                  MECHA GINECOLOGICABIN     1
CC0000008530442A202100000027819300000027819302/12/20210813    3190333624042196419000043486000001353050000000000000                                                            HORIZON CLIP TITANI M AZUL X 6 REF002200CAR     6
CC0000008530442A202100000027819300000027819302/12/20210813    3190333624042196419000000500800001353040000000000000                                                              HORIZON CLIP TITANI S AMARIL REF001200CAR    15
CC0000008530442A202100000027819300000027819302/12/20210813    3190333624042196419000030161400001459220000000000000                                                                       MANGUERA SUCCION 6 MM*3.1 MTSSOB     3
CC0000008530442A202100000027819300000027819302/12/20210813    3190333624042196419000044370800000224140000000000000                                                                                IOBAN 2 90 X 45 6650SIN     1
CC0000008530442A202100000027819300000027819302/12/20210813    3190333624042196419000000500400000526890000000000000                                                                     BIOSYN 3/0 P-12 REF SM5638 TYCOSIN     3
CC0000008530442A202100000027819300000027819302/12/20210813    3190333624042196419000018350200000232870000000000000                                                                                  SEDA 3-0 S.A SA84TSIN     2
CC0000008530442A202100000027819300000027819302/12/20210813    3190333624042196419000017575800000365820000000000000                                                                           PLEDGET TFE POLYMER PCP20SIN     1
CC0000008530442A202100000027819300000027819302/12/20210813    3190333624042196419000045138000001413890000000000000                                                                       LAPIZ ELECTROBISTURI  SOB X 1SOB     2
CC0000008530442A202100000027819300000027819302/12/20210813    3190333624042196419000017874700001052280000000000000                                                              PROLENE 7-0 (2)BV175-8 REF 8747H  60CMSOB     6
CC0000008530442A202100000027819300000027819302/12/20210813    3190333624042196419000011063900000296020000000000000                                                            SIST DRENAJE TORACICO 888571299  AQ-SEALBOL     1
CC0000008530442A202100000027819300000027819302/12/20210813    3190333624042196419000018350800000232800000000000000                                                                                 SEDA 0 S.H 75 K834HSIN     9
CC0000008530442A202100000027819300000027819302/12/20210813    3190333624042196419000011110600000231980000000000000                                                                       CERA HUESOS 25GM ESTERIL W31GSIN     2
CC0000008530442A202100000027819300000027819302/12/20210813    3190333624042196419000000504600000729090000000000000                                                               SUTUR STEEL ACERO 5HOS-14 8886-241089SOB     2
CC0000008530442A202100000027819300000027819302/12/20210813    3190333624042196419000012481000001630330000000000000                                                            FLEXON SUTURA MULTIFILAME 2-0 8886261753SOB     1
CC0000008530442A202100000027819300000027819302/12/20210813    3190333624042196419000000503800004005430000000000000  SUTURA ABSORB TRENZADA GS-21 REF CL-923 CAJ X 36 POLYSORB 90CM - 2-0 VIOLETA BN EXENTO-DC.417/2020SIN     2
CC0000008530442A202100000027819300000027819302/12/20210813    3190333624042196419000000509900004005370000000000000         SUTURA ABSORBIBLE GS-21 REF CL-925 CAJ X 36 POLYSORB 90CM - 1 VIOLETA BN EXENTO-DC.417/2020SOB     3
CC0000008530442A202100000027819300000027819302/12/20210813    3190333624042196419000017576200000232750000000000000                                                                    PROLENE CARDIOV 6-0 60 2C-1 8726SIN     3
CC0000008530442A202100000027819300000027819302/12/20210813    3190333624042196419000018349500000232810000000000000                                                                                      SEDA 1 SA 87 TSIN     1
CC0000008530442A202100000027819300000027819302/12/20210813    3190333624042196419000043879500001138210000000000000                                                                                    HOJA BISTURI #20SOB     2
CC0000008530442A202100000027819300000027819302/12/20210813    3190333624042196419000043879100001138200000000000000                                                                  HOJA BISTURI # 15 CSSB 15 01002003SOB     3
CC0000008530442A202100000027819300000027819302/12/20210813    31903336240421964190000J01DA300001239950000000000000                                                            CEFAZOLINA SODICA POLVO LIOF SLN INY 1 GVAL     2
CC0000008530442A202100000027819300000027819302/12/20210813    3190333624042196419000011082900001233450000000000000                                                               EQUIPO LC 5000 PRIMARIO FOTOPRO 0L218SOB     2
CC0000008530442A202100000027819300000027819302/12/20210813    3190333624042196419000039175200001072070000000000000                                                                           TUBO ENDOTRAQUEAL C/B 8.0SOB     1
CC0000008530442A202100000027819300000027819302/12/20210813    3190333624042196419000018351500000232840000000000000                                                                                    SEDA 2-0 KS 623HSIN     1
CC0000008530442A202100000027819300000027819302/12/20210813    3190333624042196419000038570000001123500000000000000                                                                              SONDA FOLEY #16 2 VIASSOB     1
CC0000008530442A202100000027819300000027819302/12/20210813    3190333624042196419000018610600000607940000000000000                                                               SENSOR ADULTO XP MONITOR 006-186-0106SIN     1
CC0000008530442A202100000027819300000027819302/12/20210813    3190333624042196419000020750600000296780000000000000                                                                PLACA ELECTRO RETORNO PACIENTE E7506SIN     2
CC0000008530442A202100000027819300000027819302/12/20210813    3190333624042196419000051515500000598160000000000000                                                                            MASCARILLA ANESTESIA # 5SIN     1
CC0000008530442A202100000027819300000027819302/12/20210813    3190333624042196419000035356500003919000000000000000                                                                                        LLAVE 3 VIASSOB     7
CC0000008530442A202100000027819300000027819302/12/20210813    3190333624042196419000011051900000226360000000000000                                                               KIT TRANSDUCTOR SENCILLO S/VAMP PX260SOB     2
CC0000008530442A202100000027819300000027819302/12/20210813    3190333624042196419000021016900000227720000000000000                                                               CATETER TRILUMEN AD CS15703E 7FR*20CMSIN     1
CC0000008530442A202100000027819300000027819302/12/20210813    3190333624042196419000070707000000516720000000000000                                                                JUEGO DESECHABLE CALENTAMIENTO L70NISIN     1
CC0000008530442A202100000027819300000027819302/12/20210813    3190333624042196419000011047900000223010000000000000                                                                            JERINGA X 1ML REF 302579SIN     1
CC0000008530442A202100000027819300000027819302/12/20210813    3190333624042196419000024673000001411210000000000000                                                                  JERINGA DESECHABLE 3 ML 21 X 1 1/2SOB     5
CC0000008530442A202100000027819300000027819302/12/20210813    3190333624042196419000036441300000236540000000000000                                                                    JERINGA 1 ML GASES ARTERIAL 9023SIN     3
CC0000008530442A202100000027819300000027819302/12/20210813    3190333624042196419000024674500000322810000000000000                                                                   JERINGA DESECHABLE 20 ml 21*1 1/2SIN     5
CC0000008530442A202100000027819300000027819302/12/20210813    3190333624042196419000024673600000222980000000000000                                                                     JERINGA DESECHABLE 5 ml 27*11/2SIN     4
CC0000008530442A202100000027819300000027819302/12/20210813    3190333624042196419000024674000001138340000000000000   JERINGA 3PARTES C/A 10ML REF JEHL005 CAJ X 100 ALFASAFE  21GX1 PULG 1/2 PULG BN EXENTO-DC.417/202PZA     8
CC0000008530442A202100000027819300000027819302/12/20210813    3190333624042196419000043879200001138180000000000000                                                                                   HOJA BISTURI # 11SOB     3
CC0000008530442A202100000027819300000027819302/12/20210813    3190333624042196419000043485100001618510000000000000                GUANTE QUIRURGICO DE LATEX REF 2D72N65X CAJ X 50 PROTEXIS  6.5 BN EXENTO-DC.417/2020SOB     7
CC0000008530442A202100000027819300000027819302/12/20210813    3190333624042196419000011085200001585390000000000000                                                                       GUANTE QUIRURGICO TALLA 7 1/2SOB     7
CC0000008530442A202100000027819300000027819302/12/20210813    3190333624042196419000011085100001082120000000000000                                                                           GUANTE QUIRURGICO TALLA 7SOB     5
CC0000008530442A202100000027819300000027819302/12/20210813    3190333624042196419000053074400000607910000000000000                                                               GASA ESTERIL 10*10 SOBRE X 3 UNIDADESSOB     7
CC0000008530442A202100000027819300000027819302/12/20210813    3190333624042196419000011099300000777780000000000000                                                                     FILTRO BACTERIANO VIRICO ADULTOBOL     1
CC0000008530442A202100000027819300000027819302/12/20210813    3190333624042196419000011082700001620070000000000000                                                               EQUIPO SET PRIMARIO C/CLAVE REF 14001BOL     3
CC0000008530442A202100000027819300000027819302/12/20210813    3190333624042196419000022426800001140510000000000000                                                                    EQUIPO MACROGOTEO BAXTER MRC0001SOB     2
CC0000008530442A202100000027819300000027819302/12/20210813    3190333624042196419000022425200000548240000000000000                       EXTENSION DE ANESTESIA REF 1139 SOB X 1 SHERLEG  ADULTO BN EXENTO-DC.417/2020SIN     4
CC0000008530442A202100000027819300000027819302/12/20210813    3190333624042196419000031188000000236790000000000000                                                                                     CISTOFLO ADULTOSIN     1
CC0000008530442A202100000027819300000027819302/12/20210813    31903336240421964190000Q1AA7100000610620000000000000                                                            CATETER PERIFE INTROCAN # 18G 4251687-04SIN     1
CC0000008530442A202100000027819300000027819302/12/20210813    31903336240421964190000Q1AA7200000610630000000000000                                                            CATETER PERIFE INTROCAN # 20G 4251644-04SIN     2
CC0000008530442A202100000027819300000027819302/12/20210813    31903336240421964190000Q1A11500000331560000000000000                                                                     CATETER RADIAL #20 REF. 115.090SIN     1
CC0000008530442A202100000027819300000027819302/12/20210813    31903336240421964190000Q1AA7000001097160000000000000                                                            CATETER PERIFE INTROCAN # 16G 4251709-04SOB     2
CC0000008530442A202100000027819300000027819302/12/20210813    3190333624042196419000011073300001096420000000000000                                                                BOLSA DE SUCCION DE FLUIDOS x 2500mLBOL     1
CC0000008530442A202100000027819300000027819302/12/20210813    3190333624042196419000016830000000970620000000000000                                                             SIST FIJACION CAT PERIFERICO 6.5X7 1683SOB     2
CC0000008530442A202100000027819300000027819302/12/20210813    3190333624042196419000000100600000223090000000000000                                                                      AGUJA DESECHABLE 18G X 1 1/2 PSIN     3
CC0000008530442A202100000027819300000027819302/12/20210813    31903336240421964190000E1AD0200003888320000000000000                                                                              HARTMAN SLN INY 500 MLBOL     6
CC0000008530442A202100000027819300000027819302/12/20210813    31903336240421964190000E1AB0300003888390000000000000                                                            SOLUCION SALINA 0.9% SLN INY BO X 500 MLBOL     5
CC0000008530442A202100000027819300000027819302/12/20210813    31903336240421964190000E1AB0700003888350000000000000                                                            SOLUCION SALINA 0.9% SLN INY BO X 250 MLBOL     5
CC0000008530442A202100000027819300000027819302/12/20210813    31903336240421964190000E1AB1100003888280000000000000                                                                        SOLUCION SALINA 0.9% X 50 mlBOL     2
CC0000008530442A202100000027819300000027819302/12/20210813    3190333624042196419000011081600001317790000000000000                                                                EPOC BLOOD TEST CARD REF CT-10040000PZA     2
CC0000008530442A202100000027819300000027819302/12/20210813    3190333624042196419000021221000000226640000000000000                                                                                 CARTUCHO ACT 402-03PZA     3
CC0000008530442A202100000027819300000027819302/12/20210813    31903336240421964190000B02AA100001407470000000000000                                                                    CLINTRANEX SLN INY 500 MG / 5 MLAMP    12
CC0000008530442A202100000027819300000027819302/12/20210813    31903336240421964190000B2BX0400001469550000000000000                                                                PROTAMINA Sln Iny 1000 UI/ ml x 5 mlAMP     6
CC0000008530442A202100000027819300000027819302/12/20210813    31903336240421964190000N1BA2400001687720000000000000                                                    LIDOCAINA 2% SOL INY  CAJ X 50AMP X 10ML CORPAULAMP     1
CC0000008530442A202100000027819300000027819302/12/20210813    31903336240421964190000N01A0400003939010000000000000                                               MAYOPROFOL 200MG/20ML(1%) EMUL INY CAJ X 1VIAL X 20MLVAL     1
CC0000008530442A202100000027819300000027819302/12/20210813    31903336240421964190000C7AB1000001382030000000000000                                                                   NOREPINEFRINA SLN INY 4 MG / 4 MLAMP     2
CC0000008530442A202100000027819300000027819302/12/20210813    31903336240421964190000M03A0900001467590000000000000                                                                        ROCURONIO SLN INY 50 MG/5 MLVAL     1
CC0000008530442A202100000027819300000027819302/12/20210813    31903336240421964190000C01DA100000176460000000000000                                                            NITROGLICERINA EN DEXTROSA VIAL X 250 MLFCO     1
CC0000008530442A202100000027819300000027819302/12/20210813    31903336240421964190000A03F0300001626860000000000000                                                                   METOCLOPRAMIDA SLN INY 10 MG/2 MLAMP     1
CC0000008530442A202100000027819300000027819302/12/20210813    31903336240421964190000H02AB700000585860000000000000                                                                HIDROCORTISONA SUCCI POL LIOF 100 MGVAL     1
CC0000008530442A202100000027819300000027819302/12/20210813    31903336240421964190000B1AB0100001227270000000000000                                             HEPAMAX 25000UI/5ML(5000UI/ML) SOL INY  CAJ X 25AMPX5MLAMP     2
CC0000008530442A202100000027819300000027819302/12/20210813    31903336240421964190000H02A0100001664960000000000000                                                                        DEXAMETASONA SLN INY 4 MG/MLAMP     2
CC0000008530442A202100000027819300000027819302/12/20210813    31903336240421964190000C7AB1600001013300000000000000                                                                          BETOPROLOL SLN INY 5 MG/MLAPC     2
CC0000008530442A202100000027819300000027819302/12/20210813    31903336240421964190000N01A0500003844190000000000000                                                                          REMIFENTANILO SLN INY 2 MGVAL     2
CC0000008530442A202100000027819300000027819302/12/20210813    31903336240421964190000N2AA0100000301640000000000000                                                                            MORFINA Sln Iny 10 mg/mlAMP     1
CC0000008530442A202100000027819300000027819302/12/20210813    31903336240421964190000N1AH0200003906560000000000000                                                                     FENTANIL Iny 0.05 mg/ml x 10 mlAMP     3
CC0000008530442A202100000027819300000027819302/12/20210813    31903336240421964190000N05CD300000218170000000000000                                           DORMICUM IV-IM 5MG/5ML(1MG/ML) SOL INY  CAJ X 10AMP X 5MLAMP     2
