CC0000012576309H202100000556461700000556461702/12/20211019     3300009237421964250000A02BC100001677520000000000000                                                                ESOMEPRAZOL POLVO LIOF INY 40 MG /R/VAL     1
CC0000012576309H202100000556461700000556461702/12/20211019     3300009237421964250000B1AB0200003939510000000000000                 ENOXAPARINA SODICA 40MG/0.4ML(100MG/ML) SOL INY INST CAJ X 2JERPREL X 0.4ML TECHDOWJRP     1
CC0000012576309H202100000556461700000556461702/12/20210650    31902202237421964250000E1AD0300000199490000000000000                                         LACTATO RINGER USP (HARTMANN)  SOL INY  BOL X 1000ML BAXTERBIN     2
CC0000012576309H202100000556461700000556461702/12/20211021     3300009237421964250000N03AG200001590870000000000000                                                            PROVALNOVA SLN INY 100MG/ML VIALX5ML /R/VAL     1
CC0000012576309H202100000556461700000556461702/12/20211020     3300009237421964250000N03AG200001590870000000000000                                                            PROVALNOVA SLN INY 100MG/ML VIALX5ML /R/VAL     5
CC0000012576309H202100000556461700000556461702/12/20210123     3300004237421964250000N03AG200001590870000000000000                                                            PROVALNOVA SLN INY 100MG/ML VIALX5ML /R/VAL     3
CC0000012576309H202100000556461700000556461702/12/20211558     3300009237421964250000N03AX200001063780000000000000                                                                      KEPPRA SLN INY 500 MG/5 ML /R/VAL     2
CC0000012576309H202100000556461700000556461702/12/20211019     3300009237421964250000N03AX200001063780000000000000                                                                      KEPPRA SLN INY 500 MG/5 ML /R/VAL     4
CC0000012576309H202100000556461700000556461702/12/20211019     3300009237421964250000N03A1800001024300000000000000                                                                 VIMPAT SLN INY 10 MG/ML AMP X 20 MLVAL     2
CC0000012576309H202100000556461700000556461702/12/20211020     3300009237421964250000V06D1400000968430000000000000                                                                              JEVITY iquido x 500 mlFCO     3
CC0000012576309H202100000556461700000556461702/12/20211027    31903288237421964250000V07A1300000502600000000000000                                                                                AGUA ESTERIL x 10 mlAMP     5
