CC0000072297175H202100000556478000000556478002/12/20210954     3300009237421964250000A2BC0100001277990000000000000                                                                                   ORAZOLE CAP 20 MGCAP     1
CC0000072297175H202100000556478000000556478002/12/20210954     3300009237421964250000B1AB0200003939510000000000000                 ENOXAPARINA SODICA 40MG/0.4ML(100MG/ML) SOL INY INST CAJ X 2JERPREL X 0.4ML TECHDOWJRP     1
CC0000072297175H202100000556478000000556478002/12/20210955     3300009237421964250000M03B0500001278430000000000000                                                                     DORIXINA RELAX Tab 125/5 MG /R/TAB     1
CC0000072297175H202100000556478000000556478002/12/20210954     3300009237421964250000N03A0800001278440000000000000                                                                                LYRICA CAP 75 MG /R/CAP     2
CC0000072297175H202100000556478000000556478002/12/20211606     3300009237421964250000N02A3100001227160000000000000                                                                    OXYRAPID SLN INY 10 MG/ML X 1 MLAMP     3
CC0000072297175H202100000556478000000556478002/12/20211042    31903291237421964250000V07A1300000502600000000000000                                                                                AGUA ESTERIL x 10 mlAMP     5
