CC0000013516047U202100000556473800000556473802/12/20210855     3300010239421964320000A2BC0900000200150000000000000                                                                               ORAZOLE Sln Iny 40 mgCIN     1
CC0000013516047U202100000556473800000556473802/12/20210956    31901181239421964320000E1AB0500003888400000000000000                                                              SOLUCION SALINA 0.9% SLN INY X 1000 MLBOL     1
CC0000013516047U202100000556473800000556473802/12/20210855     3300010239421964320000H02AB500001664950000000000000                                                            DEXAMETASONA SLN INY 8 MG/2 ML AMP /CDS/AMP     1
CC0000013516047U202100000556473800000556473802/12/20210855     3300010239421964320000M1AE2500000191550000000000000                                                            PROFENID POLVO LIOF SLN INY 100MG/2ML/R/AMP     1
CC0000013516047U202100000556473800000556473802/12/20210855     3300010239421964320000N2AX0500001204110000000000000                                                                          TRAMAL SLN INY 100 MG / MLAMP     1
CC0000013516047U202100000556473800000556473802/12/20210855     3300010239421964320000N3AF0200001277730000000000000                                                                      TEGRETOL RETARD TAB 200 MG /R/GRA     1
