CC0000022548883A202100000027814900000027814902/12/20211058    3190333624042196419000011082700001620070000000000000                                                               EQUIPO SET PRIMARIO C/CLAVE REF 14001BOL     1
CC0000022548883A202100000027814900000027814902/12/20211058    3190333624042196419000019429600000455480000000000000                                                                                      VENDA YESO 3*5BIN     1
CC0000022548883A202100000027814900000027814902/12/20211058    31903336240421964190000B02B2700001024490000000000000                                                                  TISSEEL FROZEN JERINGA X 10 ML /R/PAQ     1
CC0000022548883A202100000027814900000027814902/12/20211058    31903336240421964190000Q1A13800003907920000000000000AGUJA HOPODERMICA DESECHABLE REF 305111 CAJ X 100 BD PRECISION GLIDE 26G X 1/2PULG BN EXENTO-DC.417/SOB     1
CC0000022548883A202100000027814900000027814902/12/20211058    31903336240421964190000Q1AA7200000610630000000000000                                                            CATETER PERIFE INTROCAN # 20G 4251644-04SIN     2
CC0000022548883A202100000027814900000027814902/12/20211058    3190333624042196419000029958500004018110000000000000  SUTURA MONOFIL ABSORBI (2)RB-1 REF W9108H CAJ X 36 PDS II 90CM - 5-0 VIOLETA BN EXENTO-DC.417/2020SOB     1
CC0000022548883A202100000027814900000027814902/12/20211058    3190333624042196419000098670000000785980000000000000                                                                             PDS 4-0 RB1 70  PDP304HSOB     1
CC0000022548883A202100000027814900000027814902/12/20211058    31903336240421964190000N2AX0500001204110000000000000                                                                          TRAMAL SLN INY 100 MG / MLAMP     1
CC0000022548883A202100000027814900000027814902/12/20211058    31903336240421964190000N2AX0400001204140000000000000                                                                             TRAMAL Sln Iny 50 mg/mlAMP     1
CC0000022548883A202100000027814900000027814902/12/20211058    3190333624042196419000011127200000632630000000000000                                                            INFUSOR MULTIRATE REF 2C9961KP BOL X 1 BBIN     1
CC0000022548883A202100000027814900000027814902/12/20211058    31903336240421964190000B02AA100001407470000000000000                                                                    CLINTRANEX SLN INY 500 MG / 5 MLAMP     2
CC0000022548883A202100000027814900000027814902/12/20211058    3190333624042196419000029987500000325440000000000000                                                             TUBO ENDOTRAQ 7.0 C/B Y ESPIRAL INTERNASIN     1
CC0000022548883A202100000027814900000027814902/12/20211058    3190333624042196419000043879500001138210000000000000                                                                                    HOJA BISTURI #20SOB     1
CC0000022548883A202100000027814900000027814902/12/20211058    3190333624042196419000019487600000599200000000000000                                                                                VICRYL 0 CT1 VCP346HSIN     1
CC0000022548883A202100000027814900000027814902/12/20211058    3190333624042196419000000500400000526890000000000000                                                                     BIOSYN 3/0 P-12 REF SM5638 TYCOSIN     1
CC0000022548883A202100000027814900000027814902/12/20211058    3190333624042196419000000016100000314040000000000000                                                                ESPONJA HEMOSTATICA  GELFOAM ESPONJABOL     1
CC0000022548883A202100000027814900000027814902/12/20211058    3190333624042196419000011019300000231920000000000000                                                                        CATGUT CROMADO 5-0 RB1 U202TSIN     1
CC0000022548883A202100000027814900000027814902/12/20211058    3190333624042196419000019992300000233100000000000000                                                             VICRYL RAPID INC 3-0 70CM PS2 (VR9923G)SIN     1
CC0000022548883A202100000027814900000027814902/12/20211058    3190333624042196419000000101000001101640000000000000                                                                  AGUJA DESECHABLE  23G X 1 1/2 PULGSOB     1
CC0000022548883A202100000027814900000027814902/12/20211058    31903336240421964190000S1GA0800000858210000000000000                                                                       AFRIN 0.05% SLN NASAL X 15 MLFCO     2
CC0000022548883A202100000027814900000027814902/12/20211058    3190333624042196419000019488700000753270000000000000                                                                              VICRYL 3-0 SH1 VCP311HSOB     1
CC0000022548883A202100000027814900000027814902/12/20211058    31903336240421964190000S1GA0900000858550000000000000                                                                      AFRIN 0.025% SLN NASAL X 15 MLFCO     2
CC0000022548883A202100000027814900000027814902/12/20211058    3190333624042196419000022425200000548240000000000000                       EXTENSION DE ANESTESIA REF 1139 SOB X 1 SHERLEG  ADULTO BN EXENTO-DC.417/2020SIN     1
CC0000022548883A202100000027814900000027814902/12/20211058    3190333624042196419000035356500003919000000000000000                                                                                        LLAVE 3 VIASSOB     2
CC0000022548883A202100000027814900000027814902/12/20211058    3190333624042196419000022426800001140510000000000000                                                                    EQUIPO MACROGOTEO BAXTER MRC0001SOB     1
CC0000022548883A202100000027814900000027814902/12/20211058    3190333624042196419000016830000000970620000000000000                                                             SIST FIJACION CAT PERIFERICO 6.5X7 1683SOB     2
CC0000022548883A202100000027814900000027814902/12/20211058    31903336240421964190000J01DA300001239950000000000000                                                            CEFAZOLINA SODICA POLVO LIOF SLN INY 1 GVAL     2
CC0000022548883A202100000027814900000027814902/12/20211058    3190333624042196419000011073300001096420000000000000                                                                BOLSA DE SUCCION DE FLUIDOS x 2500mLBOL     1
CC0000022548883A202100000027814900000027814902/12/20211058    3190333624042196419000030161400001459220000000000000                                                                       MANGUERA SUCCION 6 MM*3.1 MTSSOB     2
CC0000022548883A202100000027814900000027814902/12/20211058    3190333624042196419000020750600000296780000000000000                                                                PLACA ELECTRO RETORNO PACIENTE E7506SIN     1
CC0000022548883A202100000027814900000027814902/12/20211058    3190333624042196419000053074400000607910000000000000                                                               GASA ESTERIL 10*10 SOBRE X 3 UNIDADESSOB     6
CC0000022548883A202100000027814900000027814902/12/20211058    3190333624042196419000011085200001585390000000000000                                                                       GUANTE QUIRURGICO TALLA 7 1/2SOB     1
CC0000022548883A202100000027814900000027814902/12/20211058    3190333624042196419000011085100001082120000000000000                                                                           GUANTE QUIRURGICO TALLA 7SOB     3
CC0000022548883A202100000027814900000027814902/12/20211058    3190333624042196419000043485100001618510000000000000                GUANTE QUIRURGICO DE LATEX REF 2D72N65X CAJ X 50 PROTEXIS  6.5 BN EXENTO-DC.417/2020SOB     3
CC0000022548883A202100000027814900000027814902/12/20211058    3190333624042196419000011099300000777780000000000000                                                                     FILTRO BACTERIANO VIRICO ADULTOBOL     1
CC0000022548883A202100000027814900000027814902/12/20211058    3190333624042196419000020058100001101630000000000000                                                                     AGUJA HIPODERMICA DESECH 23 X 1SOB     1
CC0000022548883A202100000027814900000027814902/12/20211058    3190333624042196419000020056600001101530000000000000                                                                AGUJA HIPODERMICA DESECH 18G X 1 1/2SOB     1
CC0000022548883A202100000027814900000027814902/12/20211058    3190333624042196419000024673000001411210000000000000                                                                  JERINGA DESECHABLE 3 ML 21 X 1 1/2SOB     2
CC0000022548883A202100000027814900000027814902/12/20211058    3190333624042196419000024673600000222980000000000000                                                                     JERINGA DESECHABLE 5 ml 27*11/2SIN     3
CC0000022548883A202100000027814900000027814902/12/20211058    3190333624042196419000024674000001138340000000000000   JERINGA 3PARTES C/A 10ML REF JEHL005 CAJ X 100 ALFASAFE  21GX1 PULG 1/2 PULG BN EXENTO-DC.417/202PZA     4
CC0000022548883A202100000027814900000027814902/12/20211058    3190333624042196419000024674500000322810000000000000                                                                   JERINGA DESECHABLE 20 ml 21*1 1/2SIN     2
CC0000022548883A202100000027814900000027814902/12/20211058    31903336240421964190000E1AD0200003888320000000000000                                                                              HARTMAN SLN INY 500 MLBOL     2
CC0000022548883A202100000027814900000027814902/12/20211058    31903336240421964190000E1AB0300003888390000000000000                                                            SOLUCION SALINA 0.9% SLN INY BO X 500 MLBOL     5
CC0000022548883A202100000027814900000027814902/12/20211058    31903336240421964190000E1AB0700003888350000000000000                                                            SOLUCION SALINA 0.9% SLN INY BO X 250 MLBOL     1
CC0000022548883A202100000027814900000027814902/12/20211058    31903336240421964190000E1AB0200000199290000000000000                                                            SOLUCION SALINA 0.9% SLN INY BO X 100 MLBIN     1
CC0000022548883A202100000027814900000027814902/12/20211058    31903336240421964190000N02B1100001464120000000000000                                           PARACETAMOL EP 1000MG/100ML(10MG/ML) SOL INY  CAJ X 10FCOVAL     1
CC0000022548883A202100000027814900000027814902/12/20211058    31903336240421964190000A2BC0900000200150000000000000                                                                               ORAZOLE Sln Iny 40 mgCIN     1
CC0000022548883A202100000027814900000027814902/12/20211058    31903336240421964190000N01A0400003939010000000000000                                               MAYOPROFOL 200MG/20ML(1%) EMUL INY CAJ X 1VIAL X 20MLVAL     1
CC0000022548883A202100000027814900000027814902/12/20211058    31903336240421964190000S2BA0100000468160000000000000                                                                          SOLU-CORTEF SNL INY 100 MGVAL     2
CC0000022548883A202100000027814900000027814902/12/20211058    31903336240421964190000M01A0400001341250000000000000                                                                              DYNASTAT AMP 40 MG /R/VAL     1
CC0000022548883A202100000027814900000027814902/12/20211058    31903336240421964190000N2BB1100000217160000000000000                                                                      NOVALGINA Sln Iny 2.5 g x 5 mlAMP     2
CC0000022548883A202100000027814900000027814902/12/20211058    31903336240421964190000A4AD0200000202990000000000000                                                                     PLITICAN HCL Sln Iny 50 mg/2 mlAMP     2
CC0000022548883A202100000027814900000027814902/12/20211058    31903336240421964190000H02AB500001664950000000000000                                                            DEXAMETASONA SLN INY 8 MG/2 ML AMP /CDS/AMP     2
CC0000022548883A202100000027814900000027814902/12/20211058    31903336240421964190000N1BA2400001687720000000000000                                                    LIDOCAINA 2% SOL INY  CAJ X 50AMP X 10ML CORPAULAMP     1
CC0000022548883A202100000027814900000027814902/12/20211058    31903336240421964190000N1BA0300000217900000000000000                                                                    BUPIROP 0.5% C/E Sln Iny x 20 mlVAL     1
CC0000022548883A202100000027814900000027814902/12/20211058    31903336240421964190000N01B0600003888900000000000000                                                    BUPINEST 75MG/10ML(0.75%) SOL INY CAJ X 24AMPACKAPC     1
CC0000022548883A202100000027814900000027814902/12/20211058    31903336240421964190000M3AC0600000720540000000000000                                                                         ESMERON SLN INY 50 MG /5 MLVAL     1
CC0000022548883A202100000027814900000027814902/12/20211058    31903336240421964190000N5CD0300000218170000000000000                                                              DORMICUM IV-IM 5MG/5ML(1MG/ML) SOL INYAMP     1
CC0000022548883A202100000027814900000027814902/12/20211058    31903336240421964190000N1AH0200003906560000000000000                                                                     FENTANIL Iny 0.05 mg/ml x 10 mlAMP     1
