CC0000016200301H202100015022560500015022560502/12/20212313    31500452237421964250000Q1A19500001451640000000000000                                                             BOLSA NUTRIC ENTERAL FREEGO 1.5 L  S810BOL     1
CC0000012576309H202100015022560500015022560502/12/20212313    31500452237421964250000Q1A19500001451640000000000000                                                             BOLSA NUTRIC ENTERAL FREEGO 1.5 L  S810BOL     1
CC0000033010055H202100015022560500015022560502/12/20212313    3150045223742196425000011082700001620070000000000000                                                               EQUIPO SET PRIMARIO C/CLAVE REF 14001BOL     1
CC0000033010055H202100015022560500015022560502/12/20212313    31500452237421964250000E1AB0300003888390000000000000                                                            SOLUCION SALINA 0.9% SLN INY BO X 500 MLBOL     1
