CC0001122407930H202100000556466600000556466602/12/20210928     3300009237421964250000A2BC0100001277990000000000000                                                                                   ORAZOLE CAP 20 MGCAP     1
CC0001122407930H202100000556466600000556466602/12/20210928     3300009237421964250000B1AB0200003939510000000000000                 ENOXAPARINA SODICA 40MG/0.4ML(100MG/ML) SOL INY INST CAJ X 2JERPREL X 0.4ML TECHDOWJRP     1
CC0001122407930H202100000556466600000556466602/12/20212346     3300009237421964250000M1AE3400001335480000000000000                                                                                NAPROXENO TAB 250 MGTAB     1
CC0001122407930H202100000556466600000556466602/12/20210928     3300009237421964250000M1AE3400001335480000000000000                                                                                NAPROXENO TAB 250 MGTAB     2
CC0001122407930H202100000556466600000556466602/12/20210928     3300009237421964250000N5BB0200001278580000000000000                                                                                   HIDERAX TAB 25 MGTAB     3
CC0001122407930H202100000556466600000556466602/12/20211629    31903310237421964250000V07A1300000502600000000000000                                                                                AGUA ESTERIL x 10 mlAMP     8
