CC0000045526245H202100000556489200000556489202/12/20211746    31900933237421964250000B1AB0900003939260000000000000                 ENOXAPARINA SODICA 60MG/0.6ML(100MG/ML) SOL INY INST CAJ X 2JERPREL X 0.6ML TECHDOWJRP     1
CC0000045526245H202100000556489200000556489202/12/20211746    31900933237421964250000J01DA300001239950000000000000                                                            CEFAZOLINA SODICA POLVO LIOF SLN INY 1 GVAL     5
CC0000045526245H202100000556489200000556489202/12/20211500    31900933237421964250000J01DA300001239950000000000000                                                            CEFAZOLINA SODICA POLVO LIOF SLN INY 1 GVAL     3
CC0000045526245H202100000556489200000556489202/12/20211746    31900933237421964250000N2BE0100001276930000000000000                                                                                    DOLEX TAB 500 MGTAB     5
CC0000045526245H202100000556489200000556489202/12/20211500    31900933237421964250000N2BE0100001276930000000000000                                                                                    DOLEX TAB 500 MGTAB     2
