TI0001046717069A202100000027820500000027820502/12/20210830    3190333624042196419000000101000001101640000000000000                                                                  AGUJA DESECHABLE  23G X 1 1/2 PULGSOB     1
TI0001046717069A202100000027820500000027820502/12/20210830    31903336240421964190000S1GA0900000858550000000000000                                                                      AFRIN 0.025% SLN NASAL X 15 MLFCO     1
TI0001046717069A202100000027820500000027820502/12/20210830    31903336240421964190000E1AB0700003888350000000000000                                                            SOLUCION SALINA 0.9% SLN INY BO X 250 MLBOL     1
TI0001046717069A202100000027820500000027820502/12/20210830    3190333624042196419000022425200000548240000000000000                       EXTENSION DE ANESTESIA REF 1139 SOB X 1 SHERLEG  ADULTO BN EXENTO-DC.417/2020SIN     1
TI0001046717069A202100000027820500000027820502/12/20210830    3190333624042196419000035356500003919000000000000000                                                                                        LLAVE 3 VIASSOB     1
TI0001046717069A202100000027820500000027820502/12/20210830    31903336240421964190000Q1AA7300000610640000000000000                                                            CATETER PERIFE INTROCAN # 22G 4251628-04SIN     1
TI0001046717069A202100000027820500000027820502/12/20210830    3190333624042196419000022425100001392880000000000000             EQUIPO MICROGOTEO SIN AGUJA REF 201000 PAQ X 100 SOB GOTHAPLAST   BN EXENTO-DC.417/2020BOL     1
TI0001046717069A202100000027820500000027820502/12/20210830    3190333624042196419000000602600001259280000000000000                                                             APOSITO TEGADERM IV PD 1610 5CM X 5.7CMSOB     1
TI0001046717069A202100000027820500000027820502/12/20210830    31903336240421964190000J01DA300001239950000000000000                                                            CEFAZOLINA SODICA POLVO LIOF SLN INY 1 GVAL     1
TI0001046717069A202100000027820500000027820502/12/20210830    3190333624042196419000011073300001096420000000000000                                                                BOLSA DE SUCCION DE FLUIDOS x 2500mLBOL     1
TI0001046717069A202100000027820500000027820502/12/20210830    3190333624042196419000030161400001459220000000000000                                                                       MANGUERA SUCCION 6 MM*3.1 MTSSOB     1
TI0001046717069A202100000027820500000027820502/12/20210830    3190333624042196419000024673000001411210000000000000                                                                  JERINGA DESECHABLE 3 ML 21 X 1 1/2SOB     1
TI0001046717069A202100000027820500000027820502/12/20210830    3190333624042196419000024674000001138340000000000000   JERINGA 3PARTES C/A 10ML REF JEHL005 CAJ X 100 ALFASAFE  21GX1 PULG 1/2 PULG BN EXENTO-DC.417/202PZA     3
TI0001046717069A202100000027820500000027820502/12/20210830    3190333624042196419000053074400000607910000000000000                                                               GASA ESTERIL 10*10 SOBRE X 3 UNIDADESSOB     6
TI0001046717069A202100000027820500000027820502/12/20210830    3190333624042196419000011085200001585390000000000000                                                                       GUANTE QUIRURGICO TALLA 7 1/2SOB     1
TI0001046717069A202100000027820500000027820502/12/20210830    3190333624042196419000011085100001082120000000000000                                                                           GUANTE QUIRURGICO TALLA 7SOB     1
TI0001046717069A202100000027820500000027820502/12/20210830    3190333624042196419000043485100001618510000000000000                GUANTE QUIRURGICO DE LATEX REF 2D72N65X CAJ X 50 PROTEXIS  6.5 BN EXENTO-DC.417/2020SOB     1
TI0001046717069A202100000027820500000027820502/12/20210830    3190333624042196419000038576600000256740000000000000                                                                        SONDA ASPIRACION CONTROL #12SIN     1
TI0001046717069A202100000027820500000027820502/12/20210830    3190333624042196419000039174600001072010000000000000                                                                           TUBO ENDOTRAQUEAL C/B 5.0SOB     1
TI0001046717069A202100000027820500000027820502/12/20210830    3190333624042196419000031011300000762710000000000000                                                                            CANULA GUEDEL #2 (80 MM)SOB     1
TI0001046717069A202100000027820500000027820502/12/20210830    31903336240421964190000E1AB0300003888390000000000000                                                            SOLUCION SALINA 0.9% SLN INY BO X 500 MLBOL     1
TI0001046717069A202100000027820500000027820502/12/20210830    31903336240421964190000E1AB0200000199290000000000000                                                            SOLUCION SALINA 0.9% SLN INY BO X 100 MLBIN     1
TI0001046717069A202100000027820500000027820502/12/20210830    31903336240421964190000N01B1200000220020000000000000                                                                        ROXICAINA 1% C/E Iny x 20 mlFCO     1
TI0001046717069A202100000027820500000027820502/12/20210830    31903336240421964190000N01B0200003888110000000000000                                           ROXICAINA SE 100MG/10ML(1%) SOL INY CAJ X 24AMPACK X 10MLAPC     1
TI0001046717069A202100000027820500000027820502/12/20210830    31903336240421964190000N01A0400003939010000000000000                                               MAYOPROFOL 200MG/20ML(1%) EMUL INY CAJ X 1VIAL X 20MLVAL     1
TI0001046717069A202100000027820500000027820502/12/20210830    31903336240421964190000N2BB0500000217140000000000000                                                                          NOVALGINA Sln Iny 1 g/2 mlAMP     1
