CC0000072007109U202100050131880900050131880902/12/20210212    3150019423942196432000012473300000232200000000000000                                                            SUTURA ETHILON 3-0 PS1 45CM NEGRA P1663TSIN     1
CC0000072007109U202100050131880900050131880902/12/20210212    3150019423942196432000011048600000223020000000000000                                                                 JERINGA VACUNACION 3ML C/AGU 302542SIN     2
CC0000072007109U202100050131880900050131880902/12/20210212    3150019423942196432000024673600000222980000000000000                                                                     JERINGA DESECHABLE 5 ml 27*11/2SIN     1
CC0000072007109U202100050131880900050131880902/12/20210212    3150019423942196432000043485100001618510000000000000                GUANTE QUIRURGICO DE LATEX REF 2D72N65X CAJ X 50 PROTEXIS  6.5 BN EXENTO-DC.417/2020SOB     1
CC0000072007109U202100050131880900050131880902/12/20210212    3150019423942196432000013077800000471960000000000000                                                             GASA NO TEJIDA EST 7.5 X 7.5 SOB X 3 UNSOB     6
CC0000072007109U202100050131880900050131880902/12/20210212    31500194239421964320000E1AB0200000199290000000000000                                                            SOLUCION SALINA 0.9% SLN INY BO X 100 MLBIN     1
