CC0000005561046H202100000556477300000556477302/12/20210947    31900933237421964250000A6AC0200001467010000000000000                                                             LACTULAX JARABE 66.7G/100ML SOX15ML /R/SOB     2
CC0000005561046H202100000556477300000556477302/12/20210947    31900933237421964250000C03DA100001334730000000000000                                                                      INSPRA TAB RECUBIERTA 25MG /R/TAB     1
CC0000005561046H202100000556477300000556477302/12/20210947    31900933237421964250000C7AB1500001277290000000000000                                                                        BETALOC ZOK TAB LM 50 MG /R/TAB     1
CC0000005561046H202100000556477300000556477302/12/20210947    31900933237421964250000N2BE0100001276930000000000000                                                                                    DOLEX TAB 500 MGTAB     2
