CC0001045734779U202100050131881400050131881402/12/20210303    3150061723942196432000024674000001138340000000000000   JERINGA 3PARTES C/A 10ML REF JEHL005 CAJ X 100 ALFASAFE  21GX1 PULG 1/2 PULG BN EXENTO-DC.417/202PZA     4
CC0001045734779U202100050131881400050131881402/12/20210303    3150061723942196432000031188000000236790000000000000                                                                                     CISTOFLO ADULTOSIN     1
CC0001045734779U202100050131881400050131881402/12/20210303    3150061723942196432000030936900001431840000000000000                                                                                              BURETABOL     1
CC0001045734779U202100050131881400050131881402/12/20210303    31500617239421964320000E1AB0500003888400000000000000                                                              SOLUCION SALINA 0.9% SLN INY X 1000 MLBOL     1
CC0001045734779U202100050131881400050131881402/12/20210303    31500617239421964320000E1AB0200000199290000000000000                                                            SOLUCION SALINA 0.9% SLN INY BO X 100 MLBIN     3
