CC0000002930060H202100909215120200909215120202/12/20210808    3150034723742196425000011081700001413910000000000000                                                                EQUIPO ADM NUTRICIONES 673662 BAXTERBOL     1
CC0000002930060H202100909215120200909215120202/12/20210924    3150053323742196425000011085100001082120000000000000                                                                           GUANTE QUIRURGICO TALLA 7SOB     4
CC0000002930060H202100909215120200909215120202/12/20210924    3150053323742196425000013077800000471960000000000000                                                             GASA NO TEJIDA EST 7.5 X 7.5 SOB X 3 UNSOB    10
CC0000002930060H202100909215120200909215120202/12/20210924    3150053323742196425000018351500000232840000000000000                                                                                    SEDA 2-0 KS 623HSIN     1
CC0000002930060H202100909215120200909215120202/12/20210924    3150053323742196425000042743200003929860000000000000                   GASA ADHESIVA STRETCH REF 02038-00 ROL X 10MT FIXOMULL 15CM BN EXENTO-DC.417/2020CMT   100
CC0000002930060H202100909215120200909215120202/12/20210924    3150053323742196425000043879200001138180000000000000                                                                                   HOJA BISTURI # 11SOB     1
CC0000002930060H202100909215120200909215120202/12/20210924    31500533237421964250000E1AB0200000199290000000000000                                                            SOLUCION SALINA 0.9% SLN INY BO X 100 MLBIN     1
CC0000002930060H202100909215120200909215120202/12/20210924    3150053323742196425000000300100001244120000000000000                                                                 CAT RECTO 2LUMEN+KIT DFXL148MTE UNDPZA     1
CC0000002930060H202100909215120200909215120202/12/20210924    31500533237421964250000N1BA2400001687720000000000000                                                    LIDOCAINA 2% SOL INY  CAJ X 50AMP X 10ML CORPAULAMP     1
CC0000002930060H202100909215120200909215120202/12/20211001    31903271237421964250000Q1AA7300000610640000000000000                                                            CATETER PERIFE INTROCAN # 22G 4251628-04SIN     1
CC0000002930060H202100909215120200909215120202/12/20211001    3190327123742196425000001956000001620610000000000000                                                                      CONECTOR MICRO CLAVE LAT-MC100SOB     1
CC0000002930060H202100909215120200909215120202/12/20211001    31903271237421964250000Q1AA7400003911720000000000000                                                            CATETER PERIFE INTROCAN # 24G 4251601-04SOB     2
CC0000002930060H202100909215120200909215120202/12/20211103    31901015237421964250000B05B1400001012740000000000000                                                                SOLUCION SALINA 0.45% Sln Iny 500 mlBOL     2
CC0000002930060H202100909215120200909215120202/12/20211206    3190101523742196425000000300100001244120000000000000                                                                 CAT RECTO 2LUMEN+KIT DFXL148MTE UNDPZA     1
CC0000002930060H202100909215120200909215120202/12/20211206    3190101523742196425000011085100001082120000000000000                                                                           GUANTE QUIRURGICO TALLA 7SOB     4
CC0000002930060H202100909215120200909215120202/12/20211206    3190101523742196425000013077800000471960000000000000                                                             GASA NO TEJIDA EST 7.5 X 7.5 SOB X 3 UNSOB    10
CC0000002930060H202100909215120200909215120202/12/20211206    3190101523742196425000018351500000232840000000000000                                                                                    SEDA 2-0 KS 623HSIN     1
CC0000002930060H202100909215120200909215120202/12/20211206    3190101523742196425000042743200003929860000000000000                   GASA ADHESIVA STRETCH REF 02038-00 ROL X 10MT FIXOMULL 15CM BN EXENTO-DC.417/2020CMT   100
CC0000002930060H202100909215120200909215120202/12/20211206    3190101523742196425000043879200001138180000000000000                                                                                   HOJA BISTURI # 11SOB     1
CC0000002930060H202100909215120200909215120202/12/20211206    31901015237421964250000E1AB0200000199290000000000000                                                            SOLUCION SALINA 0.9% SLN INY BO X 100 MLBIN     1
CC0000002930060H202100909215120200909215120202/12/20211206    31901015237421964250000N1BA2400001687720000000000000                                                    LIDOCAINA 2% SOL INY  CAJ X 50AMP X 10ML CORPAULAMP     1
CC0000002930060H202100909215120200909215120202/12/20211606    31500533237421964250000B05B1400001012740000000000000                                                                SOLUCION SALINA 0.45% Sln Iny 500 mlBOL     1
