CC0000000800641H202100000556484300000556484302/12/20211221    31900933237421964250000A6AC0200001467010000000000000                                                             LACTULAX JARABE 66.7G/100ML SOX15ML /R/SOB     3
CC0000000800641H202100000556484300000556484302/12/20211221    31900933237421964250000H03A0900001278900000000000000                                                                                   EUTIROX TB 75 MCGTAB     2
CC0000000800641H202100000556484300000556484302/12/20211221    31900933237421964250000N3AG0300001314710000000000000                                                                              VALCOTE TAB 250 MG /R/TAB     1
CC0000000800641H202100000556484300000556484302/12/20211221    31900933237421964250000N03A1200001277430000000000000                                                                               KEPPRA TAB 500 MG /R/TAB     3
CC0000000800641H202100000556484300000556484302/12/20211221    31900933237421964250000A11A2200001050880000000000000                                                                 GLUCERNA LIQUIDO 1.5 KCAL X 1000 MLFCO     1
