RC0001042865004H202100015032643600015032643602/12/20211139    3150038523742196425000001956000001620610000000000000                                                                      CONECTOR MICRO CLAVE LAT-MC100SOB     1
CC0000000800641H202100015032643600015032643602/12/20211139    3150038523742196425000001956000001620610000000000000                                                                      CONECTOR MICRO CLAVE LAT-MC100SOB     1
CC0000000800641H202100015032643600015032643602/12/20211139    31500385237421964250000Q1AA7200000610630000000000000                                                            CATETER PERIFE INTROCAN # 20G 4251644-04SIN     1
RC0001042865004H202100015032643600015032643602/12/20211139    31500385237421964250000Q1AA7400003911720000000000000                                                            CATETER PERIFE INTROCAN # 24G 4251601-04SOB     2
CC0000000800641H202100015032643600015032643602/12/20211139    31500385237421964250000Q1AA7400003911720000000000000                                                            CATETER PERIFE INTROCAN # 24G 4251601-04SOB     2
CC0000000800641H202100015032643600015032643602/12/20211139    3150038523742196425000016830000000970620000000000000                                                             SIST FIJACION CAT PERIFERICO 6.5X7 1683SOB     1
