CC0000035321737A202100000027821100000027821102/12/20211921    3190333624042196419000049428500000738570000000000000                                                                       VENDA ELASTICA 6*5 NO ESTERILSOB     1
CC0000035321737A202100000027821100000027821102/12/20211921    3190333624042196419000049419800001679910000000000000                                                                        VENDA ALGODON 6*5 NO ESTERILSOB     4
CC0000035321737A202100000027821100000027821102/12/20211921    3190333624042196419000019429800000455490000000000000                                                                                      VENDA YESO 5*5BIN     3
CC0000035321737A202100000027821100000027821102/12/20211921    3190333624042196419000049428300000860750000000000000                                                                       VENDA ELASTICA 4*5 NO ESTERILBOL     3
CC0000035321737A202100000027821100000027821102/12/20211921    3190333624042196419000048657700000223550000000000000                                                                  CAMPO QUIRUR STERI  DRAPE REF 1015SIN     1
CC0000035321737A202100000027821100000027821102/12/20211921    3190333624042196419000043879100001138200000000000000                                                                  HOJA BISTURI # 15 CSSB 15 01002003SOB     2
CC0000035321737A202100000027821100000027821102/12/20211921    3190333624042196419000019992300000233100000000000000                                                             VICRYL RAPID INC 3-0 70CM PS2 (VR9923G)SIN     1
CC0000035321737A202100000027821100000027821102/12/20211921    3190333624042196419000040511500000258400000000000000                                                               APOSITO BACTIGRAS REF 7456  5CM X 5CMSIN     2
CC0000035321737A202100000027821100000027821102/12/20211921    3190333624042196419000045138000001413890000000000000                                                                       LAPIZ ELECTROBISTURI  SOB X 1SOB     1
CC0000035321737A202100000027821100000027821102/12/20211921    3190333624042196419000042462700003929830000000000000                                                STOQUINETA ORTOPEDICA TUBULAR ROL X 25MT WINER 6PULGCMT     1
CC0000035321737A202100000027821100000027821102/12/20211921    3190333624042196419000030161400001459220000000000000                                                                       MANGUERA SUCCION 6 MM*3.1 MTSSOB     1
CC0000035321737A202100000027821100000027821102/12/20211921    3190333624042196419000012473200000232210000000000000                                                                 SUTURA ETHILON 3-0 SC-24 45CM  163TSIN     1
CC0000035321737A202100000027821100000027821102/12/20211921    3190333624042196419000022425200000548240000000000000                       EXTENSION DE ANESTESIA REF 1139 SOB X 1 SHERLEG  ADULTO BN EXENTO-DC.417/2020SIN     1
CC0000035321737A202100000027821100000027821102/12/20211921    3190333624042196419000035356500003919000000000000000                                                                                        LLAVE 3 VIASSOB     2
CC0000035321737A202100000027821100000027821102/12/20211921    31903336240421964190000Q1AA7100000610620000000000000                                                            CATETER PERIFE INTROCAN # 18G 4251687-04SIN     1
CC0000035321737A202100000027821100000027821102/12/20211921    3190333624042196419000022426800001140510000000000000                                                                    EQUIPO MACROGOTEO BAXTER MRC0001SOB     1
CC0000035321737A202100000027821100000027821102/12/20211921    3190333624042196419000016830000000970620000000000000                                                             SIST FIJACION CAT PERIFERICO 6.5X7 1683SOB     1
CC0000035321737A202100000027821100000027821102/12/20211921    31903336240421964190000J01DA300001239950000000000000                                                            CEFAZOLINA SODICA POLVO LIOF SLN INY 1 GVAL     2
CC0000035321737A202100000027821100000027821102/12/20211921    3190333624042196419000011073300001096420000000000000                                                                BOLSA DE SUCCION DE FLUIDOS x 2500mLBOL     1
CC0000035321737A202100000027821100000027821102/12/20211921    3190333624042196419000020750600000296780000000000000                                                                PLACA ELECTRO RETORNO PACIENTE E7506SIN     1
CC0000035321737A202100000027821100000027821102/12/20211921    3190333624042196419000011082700001620070000000000000                                                               EQUIPO SET PRIMARIO C/CLAVE REF 14001BOL     1
CC0000035321737A202100000027821100000027821102/12/20211921    3190333624042196419000053074400000607910000000000000                                                               GASA ESTERIL 10*10 SOBRE X 3 UNIDADESSOB     4
CC0000035321737A202100000027821100000027821102/12/20211921    3190333624042196419000024673600000222980000000000000                                                                     JERINGA DESECHABLE 5 ml 27*11/2SIN     1
CC0000035321737A202100000027821100000027821102/12/20211921    3190333624042196419000024674000001138340000000000000   JERINGA 3PARTES C/A 10ML REF JEHL005 CAJ X 100 ALFASAFE  21GX1 PULG 1/2 PULG BN EXENTO-DC.417/202PZA     3
CC0000035321737A202100000027821100000027821102/12/20211921    3190333624042196419000011085200001585390000000000000                                                                       GUANTE QUIRURGICO TALLA 7 1/2SOB     4
CC0000035321737A202100000027821100000027821102/12/20211921    3190333624042196419000043485100001618510000000000000                GUANTE QUIRURGICO DE LATEX REF 2D72N65X CAJ X 50 PROTEXIS  6.5 BN EXENTO-DC.417/2020SOB     2
CC0000035321737A202100000027821100000027821102/12/20211921    3190333624042196419000038568100000258050000000000000                                                                         CANULA OXIGENO NASAL ADULTOSIN     1
CC0000035321737A202100000027821100000027821102/12/20211921    3190333624042196419000020060000000225230000000000000                                                               AGUJA SPINOCAN 27G X 3 1/2 PU 4503902SIN     1
CC0000035321737A202100000027821100000027821102/12/20211921    31903336240421964190000E1AD0200003888320000000000000                                                                              HARTMAN SLN INY 500 MLBOL     1
CC0000035321737A202100000027821100000027821102/12/20211921    31903336240421964190000E1AB0500003888400000000000000                                                              SOLUCION SALINA 0.9% SLN INY X 1000 MLBOL     1
CC0000035321737A202100000027821100000027821102/12/20211921    31903336240421964190000E1AB0300003888390000000000000                                                            SOLUCION SALINA 0.9% SLN INY BO X 500 MLBOL     2
CC0000035321737A202100000027821100000027821102/12/20211921    31903336240421964190000M01A0400001341250000000000000                                                                              DYNASTAT AMP 40 MG /R/VAL     1
CC0000035321737A202100000027821100000027821102/12/20211921    31903336240421964190000N02B1100001464120000000000000                                           PARACETAMOL EP 1000MG/100ML(10MG/ML) SOL INY  CAJ X 10FCOVAL     1
CC0000035321737A202100000027821100000027821102/12/20211921    31903336240421964190000A4AD0200000202990000000000000                                                                     PLITICAN HCL Sln Iny 50 mg/2 mlAMP     1
CC0000035321737A202100000027821100000027821102/12/20211921    31903336240421964190000A2BC0900000200150000000000000                                                                               ORAZOLE Sln Iny 40 mgCIN     1
CC0000035321737A202100000027821100000027821102/12/20211921    31903336240421964190000H02AB500001664950000000000000                                                            DEXAMETASONA SLN INY 8 MG/2 ML AMP /CDS/AMP     1
CC0000035321737A202100000027821100000027821102/12/20211921    31903336240421964190000N1BA0500000647360000000000000                                                                  BUPIROP 0.5% PESADO SLN INY X 4 MLAPC     1
CC0000035321737A202100000027821100000027821102/12/20211921    31903336240421964190000N01B1600003888910000000000000                                             BUPIROP SE S/P 50MG/10ML(5MG/ML) SOL INY CAJ X 24AMPACKAPC     1
CC0000035321737A202100000027821100000027821102/12/20211921    31903336240421964190000N1BA2400001687720000000000000                                                    LIDOCAINA 2% SOL INY  CAJ X 50AMP X 10ML CORPAULAMP     1
CC0000035321737A202100000027821100000027821102/12/20211921    31903336240421964190000N5CD0300000218170000000000000                                                              DORMICUM IV-IM 5MG/5ML(1MG/ML) SOL INYAMP     1
