CC0001042453584A202100000027821300000027821302/12/20211846    3190333624042196419000011171400001148470000000000000                                                            GUIA UROL SENSOR STR TIP DUA F REF 670-3PZA     1
CC0001042453584A202100000027821300000027821302/12/20211846    31903336240421964190000E1AB0300003888390000000000000                                                            SOLUCION SALINA 0.9% SLN INY BO X 500 MLBOL     1
CC0001042453584A202100000027821300000027821302/12/20211846    3190333624042196419000011082700001620070000000000000                                                               EQUIPO SET PRIMARIO C/CLAVE REF 14001BOL     1
CC0001042453584A202100000027821300000027821302/12/20211846    31903336240421964190000K6062400001290450000000000000                                                                 STENT URETERAL BARD KIT REF. 787624PZA     1
CC0001042453584A202100000027821300000027821302/12/20211846    31903336240421964190000S2BA0100000468160000000000000                                                                          SOLU-CORTEF SNL INY 100 MGVAL     1
CC0001042453584A202100000027821300000027821302/12/20211846    31903336240421964190000M03AB100001371510000000000000                                                            ADECUAC SUCCINILCOLINA  100mg/mL SOL INYVAL     1
CC0001042453584A202100000027821300000027821302/12/20211846    3190333624042196419000039175000001072050000000000000                                                                           TUBO ENDOTRAQUEAL C/B 7.0SOB     1
CC0001042453584A202100000027821300000027821302/12/20211846    31903336240421964190000N2AA0700001587170000000000000                                                                                 ULTIVA Sln Iny 2 mgVAL     1
CC0001042453584A202100000027821300000027821302/12/20211846    3190333624042196419000011099300000777780000000000000                                                                     FILTRO BACTERIANO VIRICO ADULTOBOL     1
CC0001042453584A202100000027821300000027821302/12/20211846    3190333624042196419000000901800000598580000000000000                                                                     MASCARA LARINGEA REUSABLE No. 4SIN     1
CC0001042453584A202100000027821300000027821302/12/20211846    3190333624042196419000061254100001236570000000000000                                                            CAMISA ACCESO URETERAL 9.5F*35 FUS095035PZA     1
CC0001042453584A202100000027821300000027821302/12/20211846    3190333624042196419000011065300001196560000000000000                                                            STENT URETERAL UNIVERSAL REF USH-624 UNDPZA     1
CC0001042453584A202100000027821300000027821302/12/20211846    31903336240421964190000A2BC0900000200150000000000000                                                                               ORAZOLE Sln Iny 40 mgCIN     1
CC0001042453584A202100000027821300000027821302/12/20211846    31903336240421964190000N1BA1900000554750000000000000                                                                     ROXICAINA JALEA 2% TUBO X 30 MLTUB     2
CC0001042453584A202100000027821300000027821302/12/20211846    3190333624042196419000022424500000236720000000000000                                                                     EQUIPO EN Y IRRIGA ARC4005 4006SOB     1
CC0001042453584A202100000027821300000027821302/12/20211846    31903336240421964190000E1BA0700000198910000000000000                                                                   UROMATIC Sln IRRIGACION X 3000 MLBIN     2
CC0001042453584A202100000027821300000027821302/12/20211846    3190333624042196419000049059900000267420000000000000                                                                 MEDIA ANTIEMBOLICA TAL M 3416LF PARBOL     1
CC0001042453584A202100000027821300000027821302/12/20211846    3190333624042196419000022425200000548240000000000000                       EXTENSION DE ANESTESIA REF 1139 SOB X 1 SHERLEG  ADULTO BN EXENTO-DC.417/2020SIN     1
CC0001042453584A202100000027821300000027821302/12/20211846    3190333624042196419000016830000000970620000000000000                                                             SIST FIJACION CAT PERIFERICO 6.5X7 1683SOB     1
CC0001042453584A202100000027821300000027821302/12/20211846    3190333624042196419000035356500003919000000000000000                                                                                        LLAVE 3 VIASSOB     1
CC0001042453584A202100000027821300000027821302/12/20211846    3190333624042196419000022426800001140510000000000000                                                                    EQUIPO MACROGOTEO BAXTER MRC0001SOB     1
CC0001042453584A202100000027821300000027821302/12/20211846    31903336240421964190000Q1AA7100000610620000000000000                                                            CATETER PERIFE INTROCAN # 18G 4251687-04SIN     1
CC0001042453584A202100000027821300000027821302/12/20211846    31903336240421964190000J01DA300001239950000000000000                                                            CEFAZOLINA SODICA POLVO LIOF SLN INY 1 GVAL     2
CC0001042453584A202100000027821300000027821302/12/20211846    3190333624042196419000024674500000322810000000000000                                                                   JERINGA DESECHABLE 20 ml 21*1 1/2SIN     2
CC0001042453584A202100000027821300000027821302/12/20211846    3190333624042196419000024674000001138340000000000000   JERINGA 3PARTES C/A 10ML REF JEHL005 CAJ X 100 ALFASAFE  21GX1 PULG 1/2 PULG BN EXENTO-DC.417/202PZA     2
CC0001042453584A202100000027821300000027821302/12/20211846    3190333624042196419000053074400000607910000000000000                                                               GASA ESTERIL 10*10 SOBRE X 3 UNIDADESSOB     3
CC0001042453584A202100000027821300000027821302/12/20211846    3190333624042196419000011085100001082120000000000000                                                                           GUANTE QUIRURGICO TALLA 7SOB     1
CC0001042453584A202100000027821300000027821302/12/20211846    3190333624042196419000043485100001618510000000000000                GUANTE QUIRURGICO DE LATEX REF 2D72N65X CAJ X 50 PROTEXIS  6.5 BN EXENTO-DC.417/2020SOB     5
CC0001042453584A202100000027821300000027821302/12/20211846    31903336240421964190000E1AD0200003888320000000000000                                                                              HARTMAN SLN INY 500 MLBOL     3
CC0001042453584A202100000027821300000027821302/12/20211846    31903336240421964190000E1AB0700003888350000000000000                                                            SOLUCION SALINA 0.9% SLN INY BO X 250 MLBOL     1
CC0001042453584A202100000027821300000027821302/12/20211846    31903336240421964190000E1AB0200000199290000000000000                                                            SOLUCION SALINA 0.9% SLN INY BO X 100 MLBIN     1
CC0001042453584A202100000027821300000027821302/12/20211846    31903336240421964190000A03F0300001626860000000000000                                                                   METOCLOPRAMIDA SLN INY 10 MG/2 MLAMP     1
CC0001042453584A202100000027821300000027821302/12/20211846    31903336240421964190000M1AX0200001569410000000000000                                                                         KETRON SLN INY 30 MG / 2 MLAMP     1
CC0001042453584A202100000027821300000027821302/12/20211846    31903336240421964190000N2BB1100000217160000000000000                                                                      NOVALGINA Sln Iny 2.5 g x 5 mlAMP     1
CC0001042453584A202100000027821300000027821302/12/20211846    31903336240421964190000N1BA2400001687720000000000000                                                    LIDOCAINA 2% SOL INY  CAJ X 50AMP X 10ML CORPAULAMP     1
