NV0000170258691H202100015132526800015132526802/12/20211343    3190311723742196425000038568300000257010000000000000                                                                                   SONDA NELATON #08SIN     1
NV0000170258691H202100015132526800015132526802/12/20211343    3190311723742196425000011060400001010330000000000000                                                            SENSOR PULSOX SPO2 LNCS NEONATAL MP00792PZA     1
NV0000170258691H202100015132526800015132526802/12/20211343    3190311723742196425000045136100001419300000000000000                                                                            LANCETA DEXTROMETER X UNPZA     2
NV0000170258691H202100015132526800015132526802/12/20211343    3190311723742196425000011082700001620070000000000000                                                               EQUIPO SET PRIMARIO C/CLAVE REF 14001BOL     1
NV0000170258691H202100015132526800015132526802/12/20211343    31903117237421964250000Q1AA7400003911720000000000000                                                            CATETER PERIFE INTROCAN # 24G 4251601-04SOB     2
NV0000170258691H202100015132526800015132526802/12/20211343    3190311723742196425000000602600001259280000000000000                                                             APOSITO TEGADERM IV PD 1610 5CM X 5.7CMSOB     1
NV0000170258691H202100015132526800015132526802/12/20211343    31903117237421964250000E1AA1400003888550000000000000                                                                         DEXTROSA 10% SLN INY 250 MLBOL     1
NV0000170258691H202100015132526800015132526802/12/20211343    3190311723742196425000011137100001419310000000000000                                                               TIRA GLUCOMETRIA FREESTYLE H OPTIUM .PZA     2
