CC0000008678354U202100050131884100050131884102/12/20210843    3150051423942196432000038568300000257010000000000000                                                                                   SONDA NELATON #08SIN     1
CC0001140832954U202100050131884100050131884102/12/20210843    3150051423942196432000038568300000257010000000000000                                                                                   SONDA NELATON #08SIN     1
CC0000008678354U202100050131884100050131884102/12/20210843    3150051423942196432000024674000001138340000000000000   JERINGA 3PARTES C/A 10ML REF JEHL005 CAJ X 100 ALFASAFE  21GX1 PULG 1/2 PULG BN EXENTO-DC.417/202PZA     1
CC0001140832954U202100050131884100050131884102/12/20210843    3150051423942196432000024674000001138340000000000000   JERINGA 3PARTES C/A 10ML REF JEHL005 CAJ X 100 ALFASAFE  21GX1 PULG 1/2 PULG BN EXENTO-DC.417/202PZA     1
CC0000008678354U202100050131884100050131884102/12/20210843    31500514239421964320000E1AB1100003888280000000000000                                                                        SOLUCION SALINA 0.9% X 50 mlBOL     1
CC0001140832954U202100050131884100050131884102/12/20210843    31500514239421964320000E1AB1100003888280000000000000                                                                        SOLUCION SALINA 0.9% X 50 mlBOL     1
