RC0001146543342H202100000556479800000556479802/12/20211042    31500082237421964250000E1AC0100000199400000000000000                                                                          SUERO MIXTO Sln Iny 500 mlBIN     3
RC0001146543342H202100000556479800000556479802/12/20211104     3300009237421964250000A03BB100003889180000000000000                                      HIOSCINA BUTIL BROMURO 20MG/ML SOL INY CAJ X 100AMP X 1ML RYANAMP     1
RC0001146543342H202100000556479800000556479802/12/20211105     3300009237421964250000A02BC700001684270000000000000                                                            OMEPRAZOL 40MG POLVO LIOFILIZADO AMPOLLAVAL     1
RC0001146543342H202100000556479800000556479802/12/20211042    31500082237421964250000V07A1300000502600000000000000                                                                                AGUA ESTERIL x 10 mlAMP    10
RC0001146543342H202100000556479800000556479802/12/20211104     3300009237421964250000A04AA200003932460000000000000                                                 ONDAX 4MG/2ML(2MG/ML) SOL INY INST CAJ X 1AMP X 2MLAMP     1
