RC0001034521434H202100000556468100000556468102/12/20210632     3300009237421964250000A02BC100001677520000000000000                                                                ESOMEPRAZOL POLVO LIOF INY 40 MG /R/VAL     1
RC0001034521434H202100000556468100000556468102/12/20211542    31500343237421964250000E1AB0200000199290000000000000                                                            SOLUCION SALINA 0.9% SLN INY BO X 100 MLBIN     5
RC0001034521434H202100000556468100000556468102/12/20211542    31500343237421964250000E1AB0700003888350000000000000                                                            SOLUCION SALINA 0.9% SLN INY BO X 250 MLBOL     1
RC0001034521434H202100000556468100000556468102/12/20211542    31500343237421964250000E1AD0200003888320000000000000                                                                              HARTMAN SLN INY 500 MLBOL     1
RC0001034521434H202100000556468100000556468102/12/20211434     3300009237421964250000S2BA0200000468180000000000000                                                                   SOLU-MEDROL SLN INY 40 MG/ML  /R/VAL     1
RC0001034521434H202100000556468100000556468102/12/20210633     3300009237421964250000S2BA0200000468180000000000000                                                                   SOLU-MEDROL SLN INY 40 MG/ML  /R/VAL     1
RC0001034521434H202100000556468100000556468102/12/20211433     3300009237421964250000J1CB0600000468340000000000000                                                           UNASYN IM-IV (1+0.5)GR POLV INY INST VIALVAL     1
RC0001034521434H202100000556468100000556468102/12/20210632     3300009237421964250000J1CB0600000468340000000000000                                                           UNASYN IM-IV (1+0.5)GR POLV INY INST VIALVAL     2
RC0001034521434H202100000556468100000556468102/12/20210633     3300009237421964250000N02B1100001464120000000000000                                           PARACETAMOL EP 1000MG/100ML(10MG/ML) SOL INY  CAJ X 10FCOVAL     2
RC0001034521434H202100000556468100000556468102/12/20211434     3300009237421964250000N03AX200001063780000000000000                                                                      KEPPRA SLN INY 500 MG/5 ML /R/VAL     1
RC0001034521434H202100000556468100000556468102/12/20210633     3300009237421964250000N03AX200001063780000000000000                                                                      KEPPRA SLN INY 500 MG/5 ML /R/VAL     2
RC0001034521434H202100000556468100000556468102/12/20210633     3300009237421964250000N03A1800001024300000000000000                                                                 VIMPAT SLN INY 10 MG/ML AMP X 20 MLVAL     1
RC0001034521434H202100000556468100000556468102/12/20211544    31903110237421964250000E1BA0100000198890000000000000                                                                   AGUA ESTERIL USP SLN INY X 500 MLBIN     2
RC0001034521434H202100000556468100000556468102/12/20211433     3300009237421964250000A04AA200003932460000000000000                                                 ONDAX 4MG/2ML(2MG/ML) SOL INY INST CAJ X 1AMP X 2MLAMP     1
