CC0000013887621H202100920499120200920499120202/12/20211535    3190294123742196425000011078200001605710000000000000                                                                 CONECTOR FIBROBRONCOSCOPIO 9591 40CSOB     1
CC0000013887621H202100920499120200920499120202/12/20211535    3190294123742196425000030161400001459220000000000000                                                                       MANGUERA SUCCION 6 MM*3.1 MTSSOB     1
CC0000013887621H202100920499120200920499120202/12/20211746    3190294123742196425000020816000001096410000000000000                                                                          LINER PARED DELGADA 1500CCBOL     1
