CC0000019490174H202100015112731000015112731002/12/20211743    3190294123742196425000030161400001459220000000000000                                                                       MANGUERA SUCCION 6 MM*3.1 MTSSOB     1
CC0000022590499H202100015112731000015112731002/12/20211743    3190294123742196425000030161400001459220000000000000                                                                       MANGUERA SUCCION 6 MM*3.1 MTSSOB     1
CC0000013887621H202100015112731000015112731002/12/20211743    3190294123742196425000020816000001096410000000000000                                                                          LINER PARED DELGADA 1500CCBOL     1
CC0000022590499H202100015112731000015112731002/12/20211743    3190294123742196425000020816000001096410000000000000                                                                          LINER PARED DELGADA 1500CCBOL     1
