CC0000019490174H202100015112729800015112729802/12/20210859    31500128237421964250000V07A1300000502600000000000000                                                                                AGUA ESTERIL x 10 mlAMP    10
CC0000072218236H202100015112729800015112729802/12/20210859    31500128237421964250000V07A1300000502600000000000000                                                                                AGUA ESTERIL x 10 mlAMP     5
CC0000019490174H202100015112729800015112729802/12/20210859    3150012823742196425000045136100001419300000000000000                                                                            LANCETA DEXTROMETER X UNPZA     5
CC0000019490174H202100015112729800015112729802/12/20210859    3150012823742196425000024674000001138340000000000000   JERINGA 3PARTES C/A 10ML REF JEHL005 CAJ X 100 ALFASAFE  21GX1 PULG 1/2 PULG BN EXENTO-DC.417/202PZA    14
CC0000072218236H202100015112729800015112729802/12/20210859    3150012823742196425000024674000001138340000000000000   JERINGA 3PARTES C/A 10ML REF JEHL005 CAJ X 100 ALFASAFE  21GX1 PULG 1/2 PULG BN EXENTO-DC.417/202PZA    14
CC0000019490174H202100015112729800015112729802/12/20210859    31500128237421964250000Q1A13500001585200000000000000                        JERINGA PUNTA CAT SIN AGUJA REF 309620 CAJ X 40   50ML BN EXENTO-DC.417/2020SOB     1
CC0000019490174H202100015112729800015112729802/12/20210859    31500128237421964250000E1AD0300000199490000000000000                                         LACTATO RINGER USP (HARTMANN)  SOL INY  BOL X 1000ML BAXTERBIN     3
CC0000072218236H202100015112729800015112729802/12/20210859    31500128237421964250000E1AD0300000199490000000000000                                         LACTATO RINGER USP (HARTMANN)  SOL INY  BOL X 1000ML BAXTERBIN     3
CC0000019490174H202100015112729800015112729802/12/20210859    3150012823742196425000011137100001419310000000000000                                                               TIRA GLUCOMETRIA FREESTYLE H OPTIUM .PZA     5
CC0000019490174H202100015112729800015112729802/12/20210859    3150012823742196425000011127400001413910000000000000                                                            EQUIPO ADMINIST NUTR PUNZON REF 674669 BBOL     1
