CC0000008682417H202100921117120200921117120202/12/20211628    3190099823742196425000011082700001620070000000000000                                                               EQUIPO SET PRIMARIO C/CLAVE REF 14001BOL     2
CC0000008682417H202100921117120200921117120202/12/20211628    3190099823742196425000011137100001419310000000000000                                                               TIRA GLUCOMETRIA FREESTYLE H OPTIUM .PZA     3
CC0000008682417H202100921117120200921117120202/12/20211628    3190099823742196425000022426800001140510000000000000                                                                    EQUIPO MACROGOTEO BAXTER MRC0001SOB     2
CC0000008682417H202100921117120200921117120202/12/20211628    3190099823742196425000024674000001138340000000000000   JERINGA 3PARTES C/A 10ML REF JEHL005 CAJ X 100 ALFASAFE  21GX1 PULG 1/2 PULG BN EXENTO-DC.417/202PZA    15
CC0000008682417H202100921117120200921117120202/12/20211628    3190099823742196425000045136100001419300000000000000                                                                            LANCETA DEXTROMETER X UNPZA     3
CC0000008682417H202100921117120200921117120202/12/20211628    31900998237421964250000E1AB0200000199290000000000000                                                            SOLUCION SALINA 0.9% SLN INY BO X 100 MLBIN     6
CC0000008682417H202100921117120200921117120202/12/20211628    31900998237421964250000V07A1300000502600000000000000                                                                                AGUA ESTERIL x 10 mlAMP    10
CC0000008682417H202100921117120200921117120202/12/20211628    31900998237421964250000E1AD0300000199490000000000000                                         LACTATO RINGER USP (HARTMANN)  SOL INY  BOL X 1000ML BAXTERBIN     2
CC0000008682417H202100921117120200921117120202/12/20211628    31900998237421964250000E1AB0500003888400000000000000                                                              SOLUCION SALINA 0.9% SLN INY X 1000 MLBOL     2
CC0000008682417H202100921117120200921117120202/12/20211928    3190311023742196425000010252000003981620000000000000                                                            RESUCITADOR MANUAL ADULTO BE - 2503 AMBUBOL     1
CC0000008682417H202100921117120200921117120202/12/20211928    3190311023742196425000011084700000516550000000000000                                                                FILTRO CALOR-HUMEDAD AD REF 352/5877SIN     1
CC0000008682417H202100921117120200921117120202/12/20211928    3190311023742196425000020816000001096410000000000000                                                                          LINER PARED DELGADA 1500CCBOL     1
CC0000008682417H202100921117120200921117120202/12/20211928    3190311023742196425000022108000003906060000000000000                                                            SIST CERRAD ASPIRAC TRACH  22108-5 14 FRSOB     1
CC0000008682417H202100921117120200921117120202/12/20211928    3190311023742196425000030161400001459220000000000000                                                                       MANGUERA SUCCION 6 MM*3.1 MTSSOB     1
CC0000008682417H202100921117120200921117120202/12/20211928    3190311023742196425000039175200001072070000000000000                                                                           TUBO ENDOTRAQUEAL C/B 8.0SOB     1
CC0000008682417H202100921117120200921117120202/12/20211928    3190311023742196425000039176700001029620000000000000                                                                    SUJETADOR TUBO ENDOTRAQUEAL 9799SOB     1
CC0000008682417H202100921117120200921117120202/12/20211928    3190311023742196425000043492400000516570000000000000                                                                   GUIA P/TUBO ENDOTRAQ ADULTO 85865SIN     1
CC0000008682417H202100921117120200921117120202/12/20211928    3190311023742196425000055816100001138270000000000000                                                            SET VENTILACI BASIC AD MP00349 180CM*22MBOL     1
CC0000008682417H202100921117120200921117120202/12/20211928    3190311023742196425000000601300001271960000000000000                                                               APOSITO DUODERM CGF  187661 (15X15)CMSOB     1
CC0000008682417H202100921117120200921117120202/12/20212324    3190099823742196425000011051900000226360000000000000                                                               KIT TRANSDUCTOR SENCILLO S/VAMP PX260SOB     1
CC0000008682417H202100921117120200921117120202/12/20212324    3190099823742196425000011082900001233450000000000000                                                               EQUIPO LC 5000 PRIMARIO FOTOPRO 0L218SOB     1
CC0000008682417H202100921117120200921117120202/12/20212324    3190099823742196425000011085100001082120000000000000                                                                           GUANTE QUIRURGICO TALLA 7SOB     2
CC0000008682417H202100921117120200921117120202/12/20212324    3190099823742196425000013077800000471960000000000000                                                             GASA NO TEJIDA EST 7.5 X 7.5 SOB X 3 UNSOB    15
CC0000008682417H202100921117120200921117120202/12/20212324    3190099823742196425000016830000000970620000000000000                                                             SIST FIJACION CAT PERIFERICO 6.5X7 1683SOB     3
CC0000008682417H202100921117120200921117120202/12/20212324    3190099823742196425000018354100000232880000000000000                                                                  SUTURA SEDA NEGRA 3-0 KS 75CM 622HSIN     2
CC0000008682417H202100921117120200921117120202/12/20212324    3190099823742196425000021016900000227720000000000000                                                               CATETER TRILUMEN AD CS15703E 7FR*20CMSIN     1
CC0000008682417H202100921117120200921117120202/12/20212324    3190099823742196425000023486400001318040000000000000                                                               GUANTE CIRUGIA NITRILO ALFASAFE 6 1/2SOB     2
CC0000008682417H202100921117120200921117120202/12/20212324    3190099823742196425000031188000000236790000000000000                                                                                     CISTOFLO ADULTOSIN     1
CC0000008682417H202100921117120200921117120202/12/20212324    3190099823742196425000035356500003919000000000000000                                                                                        LLAVE 3 VIASSOB     1
CC0000008682417H202100921117120200921117120202/12/20212324    3190099823742196425000038570000001123500000000000000                                                                              SONDA FOLEY #16 2 VIASSOB     1
CC0000008682417H202100921117120200921117120202/12/20212324    3190099823742196425000038573100000256880000000000000                                                                                 SONDA NSG LEVIN #18SIN     1
CC0000008682417H202100921117120200921117120202/12/20212324    3190099823742196425000043485100001618510000000000000                GUANTE QUIRURGICO DE LATEX REF 2D72N65X CAJ X 50 PROTEXIS  6.5 BN EXENTO-DC.417/2020SOB     2
CC0000008682417H202100921117120200921117120202/12/20212324    3190099823742196425000043879200001138180000000000000                                                                                   HOJA BISTURI # 11SOB     2
CC0000008682417H202100921117120200921117120202/12/20212324    3190099823742196425000000302100000227700000000000000                                                               CAT CENTRAL MONOLUM ES04301 16FR *20MSIN     1
CC0000008682417H202100921117120200921117120202/12/20212324    31900998237421964250000N1BA2400001687720000000000000                                                    LIDOCAINA 2% SOL INY  CAJ X 50AMP X 10ML CORPAULAMP     2
CC0000008682417H202100921117120200921117120202/12/20212324    3190099823742196425000001956000001620610000000000000                                                                      CONECTOR MICRO CLAVE LAT-MC100SOB     4
CC0000008682417H202100921117120200921117120202/12/20212324    31900998237421964250000E1AB0300003888390000000000000                                                            SOLUCION SALINA 0.9% SLN INY BO X 500 MLBOL     1
CC0000008682417H202100921117120200921117120202/12/20212324    31900998237421964250000Q1AA7200000610630000000000000                                                            CATETER PERIFE INTROCAN # 20G 4251644-04SIN     2
CC0000008682417H202100921117120200921117120202/12/20212324    31900998237421964250000Q1A11500000331560000000000000                                                                     CATETER RADIAL #20 REF. 115.090SIN     1
CC0000008682417H202100921117120200921117120202/12/20212324    3190099823742196425000000301900000227730000000000000                                                               CATETER TRILUMEN AD CS14703E 7FR*30CMSIN     1
CC0000008682417H202100921117120200921117120202/12/20212324    3190099823742196425000000602700001197200000000000000                                                              APOSITO TRANSP  1655 IV 8.5CM X 11.5CMSOB     3
