CC0000002930060H202100015012621100015012621102/12/20211417    3190301623742196425000018351500000232840000000000000                                                                                    SEDA 2-0 KS 623HSIN     2
CC0000002930060H202100015012621100015012621102/12/20211417    3190301623742196425000043879200001138180000000000000                                                                                   HOJA BISTURI # 11SOB     1
CC0000002930060H202100015012621100015012621102/12/20211417    3190301623742196425000043485100001618510000000000000                GUANTE QUIRURGICO DE LATEX REF 2D72N65X CAJ X 50 PROTEXIS  6.5 BN EXENTO-DC.417/2020SOB     3
CC0000002930060H202100015012621100015012621102/12/20211417    3190301623742196425000011089300001083990000000000000                                                              GUANTE ESTERIL LATEX S/POLVO TALLA 7.5SOB     3
CC0000002930060H202100015012621100015012621102/12/20211417    3190301623742196425000013077800000471960000000000000                                                             GASA NO TEJIDA EST 7.5 X 7.5 SOB X 3 UNSOB     4
CC0000002930060H202100015012621100015012621102/12/20211417    31903016237421964250000N1BA2400001687720000000000000                                                    LIDOCAINA 2% SOL INY  CAJ X 50AMP X 10ML CORPAULAMP     2
CC0000002930060H202100015012621100015012621102/12/20211417    31903016237421964250000E1AB0200000199290000000000000                                                            SOLUCION SALINA 0.9% SLN INY BO X 100 MLBIN     1
