CC0000039491040H202100000556472500000556472502/12/20210827    31901015237421964250000A2BC0900000200150000000000000                                                                               ORAZOLE Sln Iny 40 mgCIN     1
CC0000039491040H202100000556472500000556472502/12/20210827    31901015237421964250000M1AB0900001019600000000000000                                                                              VOLTAREN Sln Iny 75 mgAMP     1
CC0000039491040H202100000556472500000556472502/12/20210827    31901015237421964250000N02B1100001464120000000000000                                           PARACETAMOL EP 1000MG/100ML(10MG/ML) SOL INY  CAJ X 10FCOVAL     1
