CC0000052051513H202100015022560000015022560002/12/20211344    3190328823742196425000024674000001138340000000000000   JERINGA 3PARTES C/A 10ML REF JEHL005 CAJ X 100 ALFASAFE  21GX1 PULG 1/2 PULG BN EXENTO-DC.417/202PZA    10
CC0000052051513H202100015022560000015022560002/12/20211344    3190328823742196425000022426800001140510000000000000                                                                    EQUIPO MACROGOTEO BAXTER MRC0001SOB     1
CC0000052051513H202100015022560000015022560002/12/20211344    3190328823742196425000030936900001431840000000000000                                                                                              BURETABOL     1
