CC0000003724288H202100921024120200921024120202/12/20210843    3150012023742196425000020042600000633850000000000000                                                                                       ASEPTOJERINGASIN     1
CC0000003724288H202100921024120200921024120202/12/20210956    3190325423742196425000024674000001138340000000000000   JERINGA 3PARTES C/A 10ML REF JEHL005 CAJ X 100 ALFASAFE  21GX1 PULG 1/2 PULG BN EXENTO-DC.417/202PZA     6
CC0000003724288H202100921024120200921024120202/12/20211136    3150012023742196425000024674000001138340000000000000   JERINGA 3PARTES C/A 10ML REF JEHL005 CAJ X 100 ALFASAFE  21GX1 PULG 1/2 PULG BN EXENTO-DC.417/202PZA     6
CC0000003724288H202100921024120200921024120202/12/20212033    31901634237421964250000E1BA0700000198910000000000000                                                                   UROMATIC Sln IRRIGACION X 3000 MLBIN     2
