RC0001146542960H202100000556485900000556485902/12/20211256    31903313237421964250000A12BA100000552980000000000000                                                            CLORURO POTASIO Sln Iny AMP 20 MEQ/10 MLAMP     3
RC0001146542960H202100000556485900000556485902/12/20211256    31903313237421964250000J01D1300001469600000000000000                                                                               POZINEG POLVO INY 1 GVAL     2
RC0001146542960H202100000556485900000556485902/12/20211256    31903313237421964250000N02B1100001464120000000000000                                           PARACETAMOL EP 1000MG/100ML(10MG/ML) SOL INY  CAJ X 10FCOVAL     1
