RC0001146544136H202100920203120200920203120202/12/20210957    31500343237421964250000E1AD0300000199490000000000000                                         LACTATO RINGER USP (HARTMANN)  SOL INY  BOL X 1000ML BAXTERBIN     1
RC0001146544136H202100920203120200920203120202/12/20211640    3190296023742196425000001200900001294660000000000000                                                                CANULA NASAL PED REF OPT318 OPTIFLOWPZA     1
RC0001146544136H202100920203120200920203120202/12/20211640    3190296023742196425000035801900001101780000000000000                                                                    NEBULIZADOR C/MASCARA PEDIATRICOSOB     1
RC0001146544136H202100920203120200920203120202/12/20211640    3190296023742196425000063153700001294640000000000000                                                            CIRCUITO TERAPIA ALTO FLUJO PEDIAT RT330PZA     1
RC0001146544136H202100920203120200920203120202/12/20211640    31902960237421964250000B05B1400001012740000000000000                                                                SOLUCION SALINA 0.45% Sln Iny 500 mlBOL     1
RC0001146544136H202100920203120200920203120202/12/20211640    31902960237421964250000Q0000200000473250000000000000                                                                             INHALOCAMARA PEDIATRICACIN     1
