CC0001045708512H202100015032644600015032644602/12/20212237    3150056623742196425000022426800001140510000000000000                                                                    EQUIPO MACROGOTEO BAXTER MRC0001SOB     1
CC0001045708512H202100015032644600015032644602/12/20212237    3150056623742196425000030936900001431840000000000000                                                                                              BURETABOL     1
CC0000022492166H202100015032644600015032644602/12/20212237    31500566237421964250000E1AD0300000199490000000000000                                         LACTATO RINGER USP (HARTMANN)  SOL INY  BOL X 1000ML BAXTERBIN     2
CC0000008151415H202100015032644600015032644602/12/20212237    31500566237421964250000E1AB0500003888400000000000000                                                              SOLUCION SALINA 0.9% SLN INY X 1000 MLBOL     2
CC0001140816339H202100015032644600015032644602/12/20212237    31500566237421964250000E1AB0500003888400000000000000                                                              SOLUCION SALINA 0.9% SLN INY X 1000 MLBOL     2
CC0000022621126H202100015032644600015032644602/12/20212237    31500566237421964250000E1AB0500003888400000000000000                                                              SOLUCION SALINA 0.9% SLN INY X 1000 MLBOL     2
CC0000022467890H202100015032644600015032644602/12/20212237    31500566237421964250000E1AB0500003888400000000000000                                                              SOLUCION SALINA 0.9% SLN INY X 1000 MLBOL     1
CC0001045708512H202100015032644600015032644602/12/20212237    31500566237421964250000E1AB0500003888400000000000000                                                              SOLUCION SALINA 0.9% SLN INY X 1000 MLBOL     2
TI0001134183559H202100015032644600015032644602/12/20212237    31500566237421964250000E1AB0300003888390000000000000                                                            SOLUCION SALINA 0.9% SLN INY BO X 500 MLBOL     1
RC0001240292997H202100015032644600015032644602/12/20212237    31500566237421964250000E1AB0300003888390000000000000                                                            SOLUCION SALINA 0.9% SLN INY BO X 500 MLBOL     1
