CC0000073070310H202100015012621800015012621802/12/20212101    3150023523742196425000011082700001620070000000000000                                                               EQUIPO SET PRIMARIO C/CLAVE REF 14001BOL     1
RC0001043471989H202100015012621800015012621802/12/20212101    3150023523742196425000011082700001620070000000000000                                                               EQUIPO SET PRIMARIO C/CLAVE REF 14001BOL     1
CC0000073070310H202100015012621800015012621802/12/20212101    3150023523742196425000030936900001431840000000000000                                                                                              BURETABOL     1
CC0000002930060H202100015012621800015012621802/12/20212101    31500235237421964250000B05B1400001012740000000000000                                                                SOLUCION SALINA 0.45% Sln Iny 500 mlBOL     1
CC0001010146343H202100015012621800015012621802/12/20212101    31500235237421964250000B05B1400001012740000000000000                                                                SOLUCION SALINA 0.45% Sln Iny 500 mlBOL     1
CC0000073070310H202100015012621800015012621802/12/20212101    31500235237421964250000E1AD0200003888320000000000000                                                                              HARTMAN SLN INY 500 MLBOL     2
RC0001043471989H202100015012621800015012621802/12/20212101    31500235237421964250000E1AD0200003888320000000000000                                                                              HARTMAN SLN INY 500 MLBOL     1
CC0000077012000H202100015012621800015012621802/12/20212101    31500235237421964250000E1AD0200003888320000000000000                                                                              HARTMAN SLN INY 500 MLBOL     1
TI0001046717475H202100015012621800015012621802/12/20212101    31500235237421964250000E1AD0200003888320000000000000                                                                              HARTMAN SLN INY 500 MLBOL     1
