CC0000032776593H202100015112731900015112731902/12/20212332    3150022123742196425000030161400001459220000000000000                                                                       MANGUERA SUCCION 6 MM*3.1 MTSSOB     1
CC0000032776593H202100015112731900015112731902/12/20212332    3150022123742196425000022108000003906060000000000000                                                            SIST CERRAD ASPIRAC TRACH  22108-5 14 FRSOB     1
CC0000032776593H202100015112731900015112731902/12/20212332    3150022123742196425000010252000003981620000000000000                                                            RESUCITADOR MANUAL ADULTO BE - 2503 AMBUBOL     1
CC0000022596813H202100015112731900015112731902/12/20212332    3150022123742196425000043995200000229010000000000000                                                               HUMIDIFICADOR PARA OXIGENO REF. H001BBOL     1
CC0000007444684H202100015112731900015112731902/12/20212332    3150022123742196425000043995200000229010000000000000                                                               HUMIDIFICADOR PARA OXIGENO REF. H001BBOL     1
CC0000032776593H202100015112731900015112731902/12/20212332    3150022123742196425000020816000001096410000000000000                                                                          LINER PARED DELGADA 1500CCBOL     1
