CC0000033010055U202100050131889200050131889202/12/20211500    31902327239421964320000Q1AA7200000610630000000000000                                                            CATETER PERIFE INTROCAN # 20G 4251644-04SIN     1
CC0001151478323U202100050131889200050131889202/12/20211500    31902327239421964320000E1AD0300000199490000000000000                                         LACTATO RINGER USP (HARTMANN)  SOL INY  BOL X 1000ML BAXTERBIN     1
CC0001151478323U202100050131889200050131889202/12/20211500    31902327239421964320000E1AD0200003888320000000000000                                                                              HARTMAN SLN INY 500 MLBOL     1
