CC0000028496269H202100000556474900000556474902/12/20211901    31900998237421964250000E1AB0200000199290000000000000                                                            SOLUCION SALINA 0.9% SLN INY BO X 100 MLBIN     6
CC0000028496269H202100000556474900000556474902/12/20211545    31903110237421964250000E1AB0200000199290000000000000                                                            SOLUCION SALINA 0.9% SLN INY BO X 100 MLBIN     2
CC0000028496269H202100000556474900000556474902/12/20211901    31900998237421964250000E1AD0300000199490000000000000                                         LACTATO RINGER USP (HARTMANN)  SOL INY  BOL X 1000ML BAXTERBIN     2
CC0000028496269H202100000556474900000556474902/12/20210903     3300009237421964250000C09CA400001277130000000000000                                                                                  LOSARTAN TAB 50 MGTAB     2
CC0000028496269H202100000556474900000556474902/12/20210904     3300009237421964250000V6DF5300000302770000000000000                                                                        ENSURE PLUS HN LCP X 1000 MLFCO     1
CC0000028496269H202100000556474900000556474902/12/20210903     3300009237421964250000B01AB400000513360000000000000                                                                        CLENOX SLN INY 60 MG/ 0.6 MLJRP     1
CC0000028496269H202100000556474900000556474902/12/20211616     3300009237421964250000C02AC200001559150000000000000                                                                              CLONIDINA TAB 0.150 MGTAB     1
CC0000028496269H202100000556474900000556474902/12/20210903     3300009237421964250000C02AC200001559150000000000000                                                                              CLONIDINA TAB 0.150 MGTAB     1
CC0000028496269H202100000556474900000556474902/12/20210902     3300009237421964250000C08CA300001313930000000000000                                                                                AMLODIPINO TAB 10 MGTAB     1
CC0000028496269H202100000556474900000556474902/12/20211616     3300009237421964250000J01CR200000947130000000000000                                                              AMPICILINA /SULBACTAN POLVO LIOF 1.5 GAMP     2
CC0000028496269H202100000556474900000556474902/12/20210903     3300009237421964250000J01CR200000947130000000000000                                                              AMPICILINA /SULBACTAN POLVO LIOF 1.5 GAMP     3
CC0000028496269H202100000556474900000556474902/12/20210902     3300009237421964250000J01CR200000947130000000000000                                                              AMPICILINA /SULBACTAN POLVO LIOF 1.5 GAMP     1
CC0000028496269H202100000556474900000556474902/12/20211616     3300009237421964250000N2BB0100001672010000000000000                                  DIPIRONA 1GR/2ML(0.5GR/ML) SOL INY INST CAJ X 100AMP X 2ML VITALISAMP     1
CC0000028496269H202100000556474900000556474902/12/20210903     3300009237421964250000N2BB0100001672010000000000000                                  DIPIRONA 1GR/2ML(0.5GR/ML) SOL INY INST CAJ X 100AMP X 2ML VITALISAMP     3
CC0000028496269H202100000556474900000556474902/12/20211616     3300009237421964250000N2AX0900001672040000000000000                                                                              TRAMADOL SLN INY 50 MGAMP     1
CC0000028496269H202100000556474900000556474902/12/20210904     3300009237421964250000N2AX0900001672040000000000000                                                                              TRAMADOL SLN INY 50 MGAMP     2
CC0000028496269H202100000556474900000556474902/12/20210903     3300009237421964250000A02BC700001684270000000000000                                                            OMEPRAZOL 40MG POLVO LIOFILIZADO AMPOLLAVAL     1
CC0000028496269H202100000556474900000556474902/12/20211901    31900998237421964250000V07A1300000502600000000000000                                                                                AGUA ESTERIL x 10 mlAMP    10
