TI0001194970957U202100050131887200050131887202/12/20211217    3150051423942196432000024674000001138340000000000000   JERINGA 3PARTES C/A 10ML REF JEHL005 CAJ X 100 ALFASAFE  21GX1 PULG 1/2 PULG BN EXENTO-DC.417/202PZA     1
NV0000169219848U202100050131887200050131887202/12/20211217    3150051423942196432000024674000001138340000000000000   JERINGA 3PARTES C/A 10ML REF JEHL005 CAJ X 100 ALFASAFE  21GX1 PULG 1/2 PULG BN EXENTO-DC.417/202PZA     1
NV0000169219848U202100050131887200050131887202/12/20211217    31500514239421964320000Q0000200000473250000000000000                                                                             INHALOCAMARA PEDIATRICACIN     1
NV0000169219848U202100050131887200050131887202/12/20211217    31500514239421964320000E1AB0200000199290000000000000                                                            SOLUCION SALINA 0.9% SLN INY BO X 100 MLBIN     1
