CC0000045526245H202100015032643200015032643202/12/20210314    3190240923742196425000001956000001620610000000000000                                                                      CONECTOR MICRO CLAVE LAT-MC100SOB     1
CC0000045526245H202100015032643200015032643202/12/20210314    31902409237421964250000Q1AA7200000610630000000000000                                                            CATETER PERIFE INTROCAN # 20G 4251644-04SIN     1
CC0000045526245H202100015032643200015032643202/12/20210314    3190240923742196425000016830000000970620000000000000                                                             SIST FIJACION CAT PERIFERICO 6.5X7 1683SOB     1
CC0000045526245H202100015032643200015032643202/12/20210314    31902409237421964250000E1AB0300003888390000000000000                                                            SOLUCION SALINA 0.9% SLN INY BO X 500 MLBOL     1
