PE0082549771210H202100000556473600000556473602/12/20211350    31901450237421964250000E1AB0500003888400000000000000                                                              SOLUCION SALINA 0.9% SLN INY X 1000 MLBOL     4
PE0082549771210H202100000556473600000556473602/12/20211350    31901450237421964250000E1AD0300000199490000000000000                                         LACTATO RINGER USP (HARTMANN)  SOL INY  BOL X 1000ML BAXTERBIN     1
PE0082549771210H202100000556473600000556473602/12/20210855     3300009237421964250000B5AA0100000718790000000000000                                                                         FLEXBUMIN 20% Sln Iny 50 mlBOL     1
PE0082549771210H202100000556473600000556473602/12/20210854     3300009237421964250000B5AA0100000718790000000000000                                                                         FLEXBUMIN 20% Sln Iny 50 mlBOL    15
PE0082549771210H202100000556473600000556473602/12/20210854     3300009237421964250000A02B0800001276960000000000000                                                                                 OMEPRAZOL CAP 20 MGCAP     1
PE0082549771210H202100000556473600000556473602/12/20210854     3300009237421964250000N2BE2200001252930000000000000                                                                             ACETAMINOFEN Tab 500 MGTAB     6
PE0082549771210H202100000556473600000556473602/12/20211350    31901450237421964250000V07A1300000502600000000000000                                                                                AGUA ESTERIL x 10 mlAMP    10
