CC0001129564191H202100015112731800015112731802/12/20212243    3190010323742196425000030161400001459220000000000000                                                                       MANGUERA SUCCION 6 MM*3.1 MTSSOB     1
CC0001129564191H202100015112731800015112731802/12/20212243    3190010323742196425000038569400000256750000000000000                                                                        SONDA ASPIRACION CONTROL #14SIN    12
CC0001129564191H202100015112731800015112731802/12/20212243    3190010323742196425000022108000003906060000000000000                                                            SIST CERRAD ASPIRAC TRACH  22108-5 14 FRSOB     1
CC0001129564191H202100015112731800015112731802/12/20212243    3190010323742196425000010252000003981620000000000000                                                            RESUCITADOR MANUAL ADULTO BE - 2503 AMBUBOL     1
CC0001129564191H202100015112731800015112731802/12/20212243    3190010323742196425000011057100000525810000000000000                                                                  NIPLE CONECTOR REF 001840 CARDINALPZA     1
CC0001129564191H202100015112731800015112731802/12/20212243    3190010323742196425000036441300000236540000000000000                                                                    JERINGA 1 ML GASES ARTERIAL 9023SIN    12
CC0001129564191H202100015112731800015112731802/12/20212243    3190010323742196425000024674000001138340000000000000   JERINGA 3PARTES C/A 10ML REF JEHL005 CAJ X 100 ALFASAFE  21GX1 PULG 1/2 PULG BN EXENTO-DC.417/202PZA    12
CC0001129564191H202100015112731800015112731802/12/20212243    3190010323742196425000013077800000471960000000000000                                                             GASA NO TEJIDA EST 7.5 X 7.5 SOB X 3 UNSOB    10
CC0001129564191H202100015112731800015112731802/12/20212243    3190010323742196425000011078200001605710000000000000                                                                 CONECTOR FIBROBRONCOSCOPIO 9591 40CSOB     1
CC0001129564191H202100015112731800015112731802/12/20212243    3190010323742196425000020816000001096410000000000000                                                                          LINER PARED DELGADA 1500CCBOL     1
CC0001129564191H202100015112731800015112731802/12/20212243    31900103237421964250000E1AB0200000199290000000000000                                                            SOLUCION SALINA 0.9% SLN INY BO X 100 MLBIN     2
