CC0001036641385U202100050131892900050131892902/12/20212118    3190199223942196432000022426800001140510000000000000                                                                    EQUIPO MACROGOTEO BAXTER MRC0001SOB     1
CC0001036641385U202100050131892900050131892902/12/20212118    3190199223942196432000001956000001620610000000000000                                                                      CONECTOR MICRO CLAVE LAT-MC100SOB     1
CC0001036641385U202100050131892900050131892902/12/20212118    31901992239421964320000Q1AA7200000610630000000000000                                                            CATETER PERIFE INTROCAN # 20G 4251644-04SIN     1
CC0001036641385U202100050131892900050131892902/12/20212118    3190199223942196432000016830000000970620000000000000                                                             SIST FIJACION CAT PERIFERICO 6.5X7 1683SOB     1
