RC0001146544136H202100000556463500000556463502/12/20211544    31500343237421964250000E1AB0700003888350000000000000                                                            SOLUCION SALINA 0.9% SLN INY BO X 250 MLBOL     1
RC0001146544136H202100000556463500000556463502/12/20211544    31500343237421964250000E1AB0300003888390000000000000                                                            SOLUCION SALINA 0.9% SLN INY BO X 500 MLBOL     1
RC0001146544136H202100000556463500000556463502/12/20210219    31500244237421964250000E1AD0200003888320000000000000                                                                              HARTMAN SLN INY 500 MLBOL     2
RC0001146544136H202100000556463500000556463502/12/20210219    31500244237421964250000E1AD0300000199490000000000000                                         LACTATO RINGER USP (HARTMANN)  SOL INY  BOL X 1000ML BAXTERBIN     1
RC0001146544136H202100000556463500000556463502/12/20210902     3300009237421964250000A12BA100000552980000000000000                                                            CLORURO POTASIO Sln Iny AMP 20 MEQ/10 MLAMP     1
RC0001146544136H202100000556463500000556463502/12/20211659    31903110237421964250000B05B1400001012740000000000000                                                                SOLUCION SALINA 0.45% Sln Iny 500 mlBOL     1
RC0001146544136H202100000556463500000556463502/12/20212108     3300009237421964250000J1FA1600001247370000000000000                                                                  KLARICID POLVO LIOF SLN INY 500 MGVAL     1
RC0001146544136H202100000556463500000556463502/12/20212108     3300009237421964250000C03C0100001672000000000000000                                                                       FUROSEMIDA SLN INY 20 MG/2 MLAMP     1
RC0001146544136H202100000556463500000556463502/12/20210902     3300009237421964250000C03C0100001672000000000000000                                                                       FUROSEMIDA SLN INY 20 MG/2 MLAMP     1
RC0001146544136H202100000556463500000556463502/12/20212108     3300009237421964250000J01CR200000947130000000000000                                                              AMPICILINA /SULBACTAN POLVO LIOF 1.5 GAMP     1
RC0001146544136H202100000556463500000556463502/12/20211429     3300009237421964250000J01CR200000947130000000000000                                                              AMPICILINA /SULBACTAN POLVO LIOF 1.5 GAMP     1
RC0001146544136H202100000556463500000556463502/12/20210859     3300009237421964250000J01CR200000947130000000000000                                                              AMPICILINA /SULBACTAN POLVO LIOF 1.5 GAMP     1
RC0001146544136H202100000556463500000556463502/12/20212108     3300009237421964250000A02BC700001684270000000000000                                                            OMEPRAZOL 40MG POLVO LIOFILIZADO AMPOLLAVAL     1
RC0001146544136H202100000556463500000556463502/12/20210902     3300009237421964250000A02BC700001684270000000000000                                                            OMEPRAZOL 40MG POLVO LIOFILIZADO AMPOLLAVAL     1
