CC0001118843398H202100000556465400000556465402/12/20210909    31903291237421964250000J01DA300001239950000000000000                                                            CEFAZOLINA SODICA POLVO LIOF SLN INY 1 GVAL     1
CC0001118843398H202100000556465400000556465402/12/20210909    31903291237421964250000M1AE2500000191550000000000000                                                            PROFENID POLVO LIOF SLN INY 100MG/2ML/R/AMP     2
CC0001118843398H202100000556465400000556465402/12/20210314    31902138237421964250000M1AE1400000191560000000000000                                                                    PROFENID SLN INY 100 MG/2 ML /R/AMP     3
CC0001118843398H202100000556465400000556465402/12/20210909    31903291237421964250000N2AX0400001204140000000000000                                                                             TRAMAL Sln Iny 50 mg/mlAMP     1
CC0001118843398H202100000556465400000556465402/12/20210909    31903291237421964250000N2BB0500000217140000000000000                                                                          NOVALGINA Sln Iny 1 g/2 mlAMP     2
