CC0001129577696H202100015042533600015042533602/12/20210747    3190148423742196425000024674000001138340000000000000   JERINGA 3PARTES C/A 10ML REF JEHL005 CAJ X 100 ALFASAFE  21GX1 PULG 1/2 PULG BN EXENTO-DC.417/202PZA     3
CC0001129577696H202100015042533600015042533602/12/20210747    3190148423742196425000043485100001618510000000000000                GUANTE QUIRURGICO DE LATEX REF 2D72N65X CAJ X 50 PROTEXIS  6.5 BN EXENTO-DC.417/2020SOB     3
CC0001129577696H202100015042533600015042533602/12/20210747    3190148423742196425000013077800000471960000000000000                                                             GASA NO TEJIDA EST 7.5 X 7.5 SOB X 3 UNSOB    10
CC0001129577696H202100015042533600015042533602/12/20210747    3190148423742196425000011082700001620070000000000000                                                               EQUIPO SET PRIMARIO C/CLAVE REF 14001BOL     1
CC0001129577696H202100015042533600015042533602/12/20210747    3190148423742196425000030936900001431840000000000000                                                                                              BURETABOL     1
CC0001129577696H202100015042533600015042533602/12/20210747    3190148423742196425000000602700001197200000000000000                                                              APOSITO TRANSP  1655 IV 8.5CM X 11.5CMSOB     1
CC0001129577696H202100015042533600015042533602/12/20210747    31901484237421964250000Q1A12700004018580000000000000       AGUJA HIPODERMIC PUERTO ACCESO REF 04448340 CAJ X 15 SURECAN 20G X 20MM BN EXENTO-DC.417/2020PAQ     1
CC0001129577696H202100015042533600015042533602/12/20210747    31901484237421964250000E1AB0300003888390000000000000                                                            SOLUCION SALINA 0.9% SLN INY BO X 500 MLBOL     2
CC0001129577696H202100015042533600015042533602/12/20210747    31901484237421964250000E1AB1100003888280000000000000                                                                        SOLUCION SALINA 0.9% X 50 mlBOL     4
