CC0000072271290H202100015032644400015032644402/12/20212209    3190297723742196425000022426800001140510000000000000                                                                    EQUIPO MACROGOTEO BAXTER MRC0001SOB     1
CC0001140816339H202100015032644400015032644402/12/20212209    3190297723742196425000022426800001140510000000000000                                                                    EQUIPO MACROGOTEO BAXTER MRC0001SOB     1
CC0001045708512H202100015032644400015032644402/12/20212209    3190297723742196425000022426800001140510000000000000                                                                    EQUIPO MACROGOTEO BAXTER MRC0001SOB     1
CC0001044392287H202100015032644400015032644402/12/20212209    3190297723742196425000022426800001140510000000000000                                                                    EQUIPO MACROGOTEO BAXTER MRC0001SOB     1
CC0000072271290H202100015032644400015032644402/12/20212209    3190297723742196425000030936900001431840000000000000                                                                                              BURETABOL     1
CC0001140816339H202100015032644400015032644402/12/20212209    3190297723742196425000030936900001431840000000000000                                                                                              BURETABOL     1
CC0001045708512H202100015032644400015032644402/12/20212209    3190297723742196425000030936900001431840000000000000                                                                                              BURETABOL     1
CC0001044392287H202100015032644400015032644402/12/20212209    3190297723742196425000030936900001431840000000000000                                                                                              BURETABOL     1
