CC0000002930060H202100015012620300015012620302/12/20210955    3190327123742196425000042753100003929850000000000000                   GASA ADHESIVA STRETCH REF 02037-00 ROL X 10MT FIXOMULL 10CM BN EXENTO-DC.417/2020CMT    30
CC0000002930060H202100015012620300015012620302/12/20210955    3190327123742196425000001956000001620610000000000000                                                                      CONECTOR MICRO CLAVE LAT-MC100SOB     1
CC0000002930060H202100015012620300015012620302/12/20210955    31903271237421964250000Q1AA7300000610640000000000000                                                            CATETER PERIFE INTROCAN # 22G 4251628-04SIN     1
CC0000002930060H202100015012620300015012620302/12/20210955    31903271237421964250000Q1AA7400003911720000000000000                                                            CATETER PERIFE INTROCAN # 24G 4251601-04SOB     2
