TI0001042248153H202100015022560200015022560202/12/20211736    3150029523742196425000001956000001620610000000000000                                                                      CONECTOR MICRO CLAVE LAT-MC100SOB     1
CC0000028005782H202100015022560200015022560202/12/20211736    3150029523742196425000001956000001620610000000000000                                                                      CONECTOR MICRO CLAVE LAT-MC100SOB     1
TI0001042248153H202100015022560200015022560202/12/20211736    31500295237421964250000Q1AA7200000610630000000000000                                                            CATETER PERIFE INTROCAN # 20G 4251644-04SIN     2
TI0001042248153H202100015022560200015022560202/12/20211736    3150029523742196425000016830000000970620000000000000                                                             SIST FIJACION CAT PERIFERICO 6.5X7 1683SOB     1
