CC0000008783581H202100000556465200000556465202/12/20211902    31903259237421964250000E1AD0300000199490000000000000                                         LACTATO RINGER USP (HARTMANN)  SOL INY  BOL X 1000ML BAXTERBIN     2
CC0000008783581H202100000556465200000556465202/12/20210301    31902949237421964250000E1AD0300000199490000000000000                                         LACTATO RINGER USP (HARTMANN)  SOL INY  BOL X 1000ML BAXTERBIN     1
CC0000008783581H202100000556465200000556465202/12/20210941     3300009237421964250000C09CA400001277130000000000000                                                                                  LOSARTAN TAB 50 MGTAB     1
CC0000008783581H202100000556465200000556465202/12/20210253     3300004237421964250000C09CA400001277130000000000000                                                                                  LOSARTAN TAB 50 MGTAB     2
CC0000008783581H202100000556465200000556465202/12/20210253     3300004237421964250000C10AA400001301110000000000000                                                                                   LIPITOR TAB 40 MGTAB     1
CC0000008783581H202100000556465200000556465202/12/20212344     3300009237421964250000N2BE0100001276930000000000000                                                                                    DOLEX TAB 500 MGTAB     2
CC0000008783581H202100000556465200000556465202/12/20210941     3300009237421964250000N2BE0100001276930000000000000                                                                                    DOLEX TAB 500 MGTAB     2
CC0000008783581H202100000556465200000556465202/12/20210253     3300004237421964250000N2BE0100001276930000000000000                                                                                    DOLEX TAB 500 MGTAB     6
CC0000008783581H202100000556465200000556465202/12/20211630    31903310237421964250000V07A1300000502600000000000000                                                                                AGUA ESTERIL x 10 mlAMP     8
