TI0001043694182H202100015052793700015052793702/12/20210130    31500581237421964250000Q1AA7400003911720000000000000                                                            CATETER PERIFE INTROCAN # 24G 4251601-04SOB     2
TI0001043694182H202100015052793700015052793702/12/20210130    3150058123742196425000030936900001431840000000000000                                                                                              BURETABOL     1
CC0001129489867H202100015052793700015052793702/12/20210130    31500581237421964250000B05B1500001012750000000000000                                                                   SOLUCION SALINA 3% Sln Iny 500 mlBOL     1
CC0000072018971H202100015052793700015052793702/12/20210130    31500581237421964250000B05B1500001012750000000000000                                                                   SOLUCION SALINA 3% Sln Iny 500 mlBOL     1
CC0000072205914H202100015052793700015052793702/12/20210130    31500581237421964250000E1AD0300000199490000000000000                                         LACTATO RINGER USP (HARTMANN)  SOL INY  BOL X 1000ML BAXTERBIN     1
