CC0000008525252U202100921247120200921247120202/12/20212259    3150058923942196432000011137100001419310000000000000                                                               TIRA GLUCOMETRIA FREESTYLE H OPTIUM .PZA     2
CC0000008525252U202100921247120200921247120202/12/20212259    3150058923942196432000016830000000970620000000000000                                                             SIST FIJACION CAT PERIFERICO 6.5X7 1683SOB     1
CC0000008525252U202100921247120200921247120202/12/20212259    3150058923942196432000024674000001138340000000000000   JERINGA 3PARTES C/A 10ML REF JEHL005 CAJ X 100 ALFASAFE  21GX1 PULG 1/2 PULG BN EXENTO-DC.417/202PZA     1
CC0000008525252U202100921247120200921247120202/12/20212259    3150058923942196432000045136100001419300000000000000                                                                            LANCETA DEXTROMETER X UNPZA     2
CC0000008525252U202100921247120200921247120202/12/20212259    3150058923942196432000001956000001620610000000000000                                                                      CONECTOR MICRO CLAVE LAT-MC100SOB     1
CC0000008525252U202100921247120200921247120202/12/20212259    31500589239421964320000Q1AA7100000610620000000000000                                                            CATETER PERIFE INTROCAN # 18G 4251687-04SIN     2
