CC0000072339909H202100000556473900000556473902/12/20211614     3300009237421964250000B1AB1400000718160000000000000                                                                  FRAXIPARINA SLN INY 3800 UI/0.4 MLJRP     1
CC0000072339909H202100000556473900000556473902/12/20211901    31900998237421964250000E1AB0200000199290000000000000                                                            SOLUCION SALINA 0.9% SLN INY BO X 100 MLBIN    10
CC0000072339909H202100000556473900000556473902/12/20211548    31903110237421964250000E1AB0200000199290000000000000                                                            SOLUCION SALINA 0.9% SLN INY BO X 100 MLBIN     2
CC0000072339909H202100000556473900000556473902/12/20211901    31900998237421964250000E1AB0500003888400000000000000                                                              SOLUCION SALINA 0.9% SLN INY X 1000 MLBOL     3
CC0000072339909H202100000556473900000556473902/12/20212304     3300009237421964250000C01DA100000176460000000000000                                                            NITROGLICERINA EN DEXTROSA VIAL X 250 MLFCO     2
CC0000072339909H202100000556473900000556473902/12/20210857     3300009237421964250000C01DA100000176460000000000000                                                            NITROGLICERINA EN DEXTROSA VIAL X 250 MLFCO     2
CC0000072339909H202100000556473900000556473902/12/20210856     3300009237421964250000N07X0300003913670000000000000                                    DEXMEDETOMIDINA 400MCG/100ML(4MCG/ML) SOL INY BOL X 100ML BAXTERBOL     6
CC0000072339909H202100000556473900000556473902/12/20211614     3300009237421964250000A11A2200001050880000000000000                                                                 GLUCERNA LIQUIDO 1.5 KCAL X 1000 MLFCO     1
CC0000072339909H202100000556473900000556473902/12/20212245     3300009237421964250000N1AH0200003906560000000000000                                                                     FENTANIL Iny 0.05 mg/ml x 10 mlAMP    20
CC0000072339909H202100000556473900000556473902/12/20210856     3300009237421964250000C10AA500001314010000000000000                                                                             ATORVASTATINA TAB 40 MGTAB     2
CC0000072339909H202100000556473900000556473902/12/20210856     3300009237421964250000J01DD500001239970000000000000                                                                  CEFTRIAXONA POLVO LIOF SLN INY 1 GVAL     1
CC0000072339909H202100000556473900000556473902/12/20210855     3300009237421964250000J01DD500001239970000000000000                                                                  CEFTRIAXONA POLVO LIOF SLN INY 1 GVAL     1
CC0000072339909H202100000556473900000556473902/12/20211614     3300009237421964250000N2BE2200001252930000000000000                                                                             ACETAMINOFEN Tab 500 MGTAB     2
CC0000072339909H202100000556473900000556473902/12/20210855     3300009237421964250000N2BE2200001252930000000000000                                                                             ACETAMINOFEN Tab 500 MGTAB     6
CC0000072339909H202100000556473900000556473902/12/20210855     3300009237421964250000N02BA100001276940000000000000                                                                  ACIDO ACETIL SALIC?LICO TAB 100 MGTAB     1
CC0000072339909H202100000556473900000556473902/12/20210857     3300009237421964250000N05A1700001278300000000000000                                                                            QUETIAPINA TAB 25 MG /R/TAB     3
CC0000072339909H202100000556473900000556473902/12/20210855     3300009237421964250000N05A1700001278300000000000000                                                                            QUETIAPINA TAB 25 MG /R/TAB     1
CC0000072339909H202100000556473900000556473902/12/20210855     3300009237421964250000A02BC700001684270000000000000                                                            OMEPRAZOL 40MG POLVO LIOFILIZADO AMPOLLAVAL     1
CC0000072339909H202100000556473900000556473902/12/20211901    31900998237421964250000V07A1300000502600000000000000                                                                                AGUA ESTERIL x 10 mlAMP    10
