CC0000022548883H202100000556465000000556465002/12/20210302    31902949237421964250000E1AB0300003888390000000000000                                                            SOLUCION SALINA 0.9% SLN INY BO X 500 MLBOL     1
CC0000022548883H202100000556465000000556465002/12/20210811     3300009237421964250000N6AA1700001278670000000000000                                                                                DIOVAN TAB 80 MG /R/TAB     2
CC0000022548883H202100000556465000000556465002/12/20210250     3300004237421964250000J01DB300000553200000000000000                                                                         CEFALOTINA SLN INY 1 G VIALVAL     4
CC0000022548883H202100000556465000000556465002/12/20210251     3300004237421964250000N02B1100001464120000000000000                                           PARACETAMOL EP 1000MG/100ML(10MG/ML) SOL INY  CAJ X 10FCOVAL     4
CC0000022548883H202100000556465000000556465002/12/20210251     3300004237421964250000R6AX0300001303580000000000000                                                                                 CLARITYNE TAB 10 MGTAB     3
