TI0001103512693H202100000556463300000556463302/12/20211413    31500343237421964250000E1AC0100000199400000000000000                                                                          SUERO MIXTO Sln Iny 500 mlBIN     2
TI0001103512693H202100000556463300000556463302/12/20211413    31500343237421964250000E1AB1100003888280000000000000                                                                        SOLUCION SALINA 0.9% X 50 mlBOL     5
TI0001103512693H202100000556463300000556463302/12/20211413    31500343237421964250000E1AB0700003888350000000000000                                                            SOLUCION SALINA 0.9% SLN INY BO X 250 MLBOL     1
TI0001103512693H202100000556463300000556463302/12/20211413    31500343237421964250000E1AB0300003888390000000000000                                                            SOLUCION SALINA 0.9% SLN INY BO X 500 MLBOL     1
TI0001103512693H202100000556463300000556463302/12/20211841     3300009237421964250000A12BA100000552980000000000000                                                            CLORURO POTASIO Sln Iny AMP 20 MEQ/10 MLAMP     2
TI0001103512693H202100000556463300000556463302/12/20210857     3300009237421964250000A12BA100000552980000000000000                                                            CLORURO POTASIO Sln Iny AMP 20 MEQ/10 MLAMP     2
TI0001103512693H202100000556463300000556463302/12/20210856     3300009237421964250000A12BA100000552980000000000000                                                            CLORURO POTASIO Sln Iny AMP 20 MEQ/10 MLAMP     3
TI0001103512693H202100000556463300000556463302/12/20210855     3300009237421964250000H02AB500001664950000000000000                                                            DEXAMETASONA SLN INY 8 MG/2 ML AMP /CDS/AMP     2
TI0001103512693H202100000556463300000556463302/12/20210857     3300009237421964250000V6DB0800001286840000000000000                                                                          PEDIASURE LIQUIDO X 237 MLFCO     3
TI0001103512693H202100000556463300000556463302/12/20210634     3300009237421964250000V6DB0800001286840000000000000                                                                          PEDIASURE LIQUIDO X 237 MLFCO     4
TI0001103512693H202100000556463300000556463302/12/20211424     3300009237421964250000J01DH400001317770000000000000                                                                MEROPENEM POLVO LIOF SLN INY 1 G /R/CAJ     1
TI0001103512693H202100000556463300000556463302/12/20210856     3300009237421964250000J01DH400001317770000000000000                                                                MEROPENEM POLVO LIOF SLN INY 1 G /R/CAJ     2
TI0001103512693H202100000556463300000556463302/12/20210855     3300009237421964250000J01DH400001317770000000000000                                                                MEROPENEM POLVO LIOF SLN INY 1 G /R/CAJ     1
TI0001103512693H202100000556463300000556463302/12/20211841     3300009237421964250000J01F0200001689390000000000000                                                                        CLINDAMICINA INY 600 MG/4 MLAMP     1
TI0001103512693H202100000556463300000556463302/12/20211425     3300009237421964250000J01F0200001689390000000000000                                                                        CLINDAMICINA INY 600 MG/4 MLAMP     1
TI0001103512693H202100000556463300000556463302/12/20210856     3300009237421964250000J01F0200001689390000000000000                                                                        CLINDAMICINA INY 600 MG/4 MLAMP     1
TI0001103512693H202100000556463300000556463302/12/20211841     3300009237421964250000J02AC100000553180000000000000                                                                   FLUCONAZOL SLN INY 200 MG/ 100 MLFCO     1
TI0001103512693H202100000556463300000556463302/12/20210855     3300009237421964250000J02AC100000553180000000000000                                                                   FLUCONAZOL SLN INY 200 MG/ 100 MLFCO     3
TI0001103512693H202100000556463300000556463302/12/20211425     3300009237421964250000N2BB0100001672010000000000000                                  DIPIRONA 1GR/2ML(0.5GR/ML) SOL INY INST CAJ X 100AMP X 2ML VITALISAMP     1
TI0001103512693H202100000556463300000556463302/12/20210857     3300009237421964250000N2BB0100001672010000000000000                                  DIPIRONA 1GR/2ML(0.5GR/ML) SOL INY INST CAJ X 100AMP X 2ML VITALISAMP     3
TI0001103512693H202100000556463300000556463302/12/20210857     3300009237421964250000A02BC700001684270000000000000                                                            OMEPRAZOL 40MG POLVO LIOFILIZADO AMPOLLAVAL     1
