CC0000028496269A202100000027819600000027819602/12/20211852    3190333624042196419000049428500000738570000000000000                                                                       VENDA ELASTICA 6*5 NO ESTERILSOB     1
CC0000028496269A202100000027819600000027819602/12/20211852    3190333624042196419000021593100001571610000000000000                                                                    AQUACEL AG+ EXTRA 10*10CM 413567SOB     1
CC0000028496269A202100000027819600000027819602/12/20211852    31903336240421964190000D08AF900000512990000000000000                                                            FURACIN POMADA 0.2 G/100 G TU X 40 G /R/TUB     1
CC0000028496269A202100000027819600000027819602/12/20211852    3190333624042196419000019429800000455490000000000000                                                                                      VENDA YESO 5*5BIN     1
CC0000028496269A202100000027819600000027819602/12/20211852    31903336240421964190000N01A0500003844190000000000000                                                                          REMIFENTANILO SLN INY 2 MGVAL     1
CC0000028496269A202100000027819600000027819602/12/20211852    3190333624042196419000018351400000232860000000000000                                                                                   SEDA 2-0 SH K833HSIN     1
CC0000028496269A202100000027819600000027819602/12/20211852    3190333624042196419000049419700001679920000000000000                                                                        VENDA ALGODON 5*5 NO ESTERILSOB     2
CC0000028496269A202100000027819600000027819602/12/20211852    3190333624042196419000049428300000860750000000000000                                                                       VENDA ELASTICA 4*5 NO ESTERILBOL     2
CC0000028496269A202100000027819600000027819602/12/20211852    31903336240421964190000C01C0300001261020000000000000                                                               ETILEFRINA HCL SLN INY 10 MG/1 ML /R/AMP     1
CC0000028496269A202100000027819600000027819602/12/20211852    31903336240421964190000N01A0400003939010000000000000                                               MAYOPROFOL 200MG/20ML(1%) EMUL INY CAJ X 1VIAL X 20MLVAL     1
CC0000028496269A202100000027819600000027819602/12/20211852    3190333624042196419000011069000000212140000000000000                                                                      VASELINA QUIMIBEN POTE X 500 GTAR     1
CC0000028496269A202100000027819600000027819602/12/20211852    3190333624042196419000015994600000632480000000000000                                                                          MONOCRYL 4-0 PS-2 45 Y496GSIN     2
CC0000028496269A202100000027819600000027819602/12/20211852    3190333624042196419000043879100001138200000000000000                                                                  HOJA BISTURI # 15 CSSB 15 01002003SOB     1
CC0000028496269A202100000027819600000027819602/12/20211852    3190333624042196419000043879400001138170000000000000                                                                  HOJA BISTURI # 10 CSSB 10 01002000SOB     1
CC0000028496269A202100000027819600000027819602/12/20211852    3190333624042196419000043879200001138180000000000000                                                                                   HOJA BISTURI # 11SOB     1
CC0000028496269A202100000027819600000027819602/12/20211852    3190333624042196419000022425200000548240000000000000                       EXTENSION DE ANESTESIA REF 1139 SOB X 1 SHERLEG  ADULTO BN EXENTO-DC.417/2020SIN     1
CC0000028496269A202100000027819600000027819602/12/20211852    3190333624042196419000035356500003919000000000000000                                                                                        LLAVE 3 VIASSOB     2
CC0000028496269A202100000027819600000027819602/12/20211852    3190333624042196419000022426800001140510000000000000                                                                    EQUIPO MACROGOTEO BAXTER MRC0001SOB     1
CC0000028496269A202100000027819600000027819602/12/20211852    3190333624042196419000020750600000296780000000000000                                                                PLACA ELECTRO RETORNO PACIENTE E7506SIN     1
CC0000028496269A202100000027819600000027819602/12/20211852    3190333624042196419000011082700001620070000000000000                                                               EQUIPO SET PRIMARIO C/CLAVE REF 14001BOL     1
CC0000028496269A202100000027819600000027819602/12/20211852    3190333624042196419000053074400000607910000000000000                                                               GASA ESTERIL 10*10 SOBRE X 3 UNIDADESSOB     5
CC0000028496269A202100000027819600000027819602/12/20211852    3190333624042196419000024673600000222980000000000000                                                                     JERINGA DESECHABLE 5 ml 27*11/2SIN     1
CC0000028496269A202100000027819600000027819602/12/20211852    3190333624042196419000024674000001138340000000000000   JERINGA 3PARTES C/A 10ML REF JEHL005 CAJ X 100 ALFASAFE  21GX1 PULG 1/2 PULG BN EXENTO-DC.417/202PZA     4
CC0000028496269A202100000027819600000027819602/12/20211852    3190333624042196419000011085200001585390000000000000                                                                       GUANTE QUIRURGICO TALLA 7 1/2SOB     2
CC0000028496269A202100000027819600000027819602/12/20211852    3190333624042196419000011085100001082120000000000000                                                                           GUANTE QUIRURGICO TALLA 7SOB     1
CC0000028496269A202100000027819600000027819602/12/20211852    3190333624042196419000043485100001618510000000000000                GUANTE QUIRURGICO DE LATEX REF 2D72N65X CAJ X 50 PROTEXIS  6.5 BN EXENTO-DC.417/2020SOB     3
CC0000028496269A202100000027819600000027819602/12/20211852    3190333624042196419000038569400000256750000000000000                                                                        SONDA ASPIRACION CONTROL #14SIN     1
CC0000028496269A202100000027819600000027819602/12/20211852    3190333624042196419000020056600001101530000000000000                                                                AGUJA HIPODERMICA DESECH 18G X 1 1/2SOB     1
CC0000028496269A202100000027819600000027819602/12/20211852    3190333624042196419000011099300000777780000000000000                                                                     FILTRO BACTERIANO VIRICO ADULTOBOL     1
CC0000028496269A202100000027819600000027819602/12/20211852    31903336240421964190000E1AB0300003888390000000000000                                                            SOLUCION SALINA 0.9% SLN INY BO X 500 MLBOL     4
CC0000028496269A202100000027819600000027819602/12/20211852    31903336240421964190000E1AB0700003888350000000000000                                                            SOLUCION SALINA 0.9% SLN INY BO X 250 MLBOL     1
CC0000028496269A202100000027819600000027819602/12/20211852    31903336240421964190000A2BC0900000200150000000000000                                                                               ORAZOLE Sln Iny 40 mgCIN     1
CC0000028496269A202100000027819600000027819602/12/20211852    31903336240421964190000A03F0300001626860000000000000                                                                   METOCLOPRAMIDA SLN INY 10 MG/2 MLAMP     1
CC0000028496269A202100000027819600000027819602/12/20211852    31903336240421964190000N2BB0100001672010000000000000                                  DIPIRONA 1GR/2ML(0.5GR/ML) SOL INY INST CAJ X 100AMP X 2ML VITALISAMP     3
CC0000028496269A202100000027819600000027819602/12/20211852    31903336240421964190000M01A2000001664970000000000000                                                               DICLOFENACO SODICO SLN INY 75 MG/3 MLAMP     1
CC0000028496269A202100000027819600000027819602/12/20211852    31903336240421964190000H02A0100001664960000000000000                                                                        DEXAMETASONA SLN INY 4 MG/MLAMP     2
