CC0000007411669H202100015042534300015042534302/12/20211727    3190063023742196425000001956000001620610000000000000                                                                      CONECTOR MICRO CLAVE LAT-MC100SOB     1
CC0000007411669H202100015042534300015042534302/12/20211727    31900630237421964250000Q1AA7400003911720000000000000                                                            CATETER PERIFE INTROCAN # 24G 4251601-04SOB     6
CC0000007411669H202100015042534300015042534302/12/20211727    3190063023742196425000016830000000970620000000000000                                                             SIST FIJACION CAT PERIFERICO 6.5X7 1683SOB     1
