CC0001048276232U202100050131888900050131888902/12/20211428    3190286423942196432000012475800000232220000000000000                                                                SUTURA ETHILON 4-0 PS-2  45CM P1667TSIN     1
CC0001048276232U202100050131888900050131888902/12/20211428    3190286423942196432000011048600000223020000000000000                                                                 JERINGA VACUNACION 3ML C/AGU 302542SIN     1
CC0001048276232U202100050131888900050131888902/12/20211428    3190286423942196432000011047900000223010000000000000                                                                            JERINGA X 1ML REF 302579SIN     1
CC0001048276232U202100050131888900050131888902/12/20211428    3190286423942196432000011089100001083330000000000000                                                              GUANTE ESTERIL LATEX S/POLVO TALLA 6.5SOB     1
CC0001048276232U202100050131888900050131888902/12/20211428    3190286423942196432000013077800000471960000000000000                                                             GASA NO TEJIDA EST 7.5 X 7.5 SOB X 3 UNSOB     8
CC0001048276232U202100050131888900050131888902/12/20211428    31902864239421964320000E1AB0200000199290000000000000                                                            SOLUCION SALINA 0.9% SLN INY BO X 100 MLBIN     1
