CC0000072297175U202100000556459700000556459702/12/20210604     3300010239421964320000A2BC0100001277990000000000000                                                                                   ORAZOLE CAP 20 MGCAP     1
CC0000072297175U202100000556459700000556459702/12/20210604     3300010239421964320000B1AB0200003939510000000000000                 ENOXAPARINA SODICA 40MG/0.4ML(100MG/ML) SOL INY INST CAJ X 2JERPREL X 0.4ML TECHDOWJRP     1
CC0000072297175U202100000556459700000556459702/12/20210043     3300010239421964320000M03B0500001278430000000000000                                                                     DORIXINA RELAX Tab 125/5 MG /R/TAB     1
CC0000072297175U202100000556459700000556459702/12/20210805     3300010239421964320000N03A0800001278440000000000000                                                                                LYRICA CAP 75 MG /R/CAP     1
CC0000072297175U202100000556459700000556459702/12/20210805     3300010239421964320000N02A3100001227160000000000000                                                                    OXYRAPID SLN INY 10 MG/ML X 1 MLAMP     1
