CC0000032753507H202100000556460600000556460602/12/20211243     3300009237421964250000A03F0300001626860000000000000                                                                   METOCLOPRAMIDA SLN INY 10 MG/2 MLAMP     4
CC0000032753507H202100000556460600000556460602/12/20210557    31902653237421964250000E1AD0300000199490000000000000                                         LACTATO RINGER USP (HARTMANN)  SOL INY  BOL X 1000ML BAXTERBIN     1
CC0000032753507H202100000556460600000556460602/12/20210110     3300004237421964250000V6DF5300000302770000000000000                                                                        ENSURE PLUS HN LCP X 1000 MLFCO     1
CC0000032753507H202100000556460600000556460602/12/20211242     3300009237421964250000B01AB200000513350000000000000                                                                        CLENOX SLN INY 40 MG/ 0.4 MLJRP     1
CC0000032753507H202100000556460600000556460602/12/20211242     3300009237421964250000N2BE2200001252930000000000000                                                                             ACETAMINOFEN Tab 500 MGTAB     4
CC0000032753507H202100000556460600000556460602/12/20210110     3300004237421964250000N2BE2200001252930000000000000                                                                             ACETAMINOFEN Tab 500 MGTAB     2
CC0000032753507H202100000556460600000556460602/12/20211242     3300009237421964250000N2BB0100001672010000000000000                                  DIPIRONA 1GR/2ML(0.5GR/ML) SOL INY INST CAJ X 100AMP X 2ML VITALISAMP     2
CC0000032753507H202100000556460600000556460602/12/20210110     3300004237421964250000N2BB0100001672010000000000000                                  DIPIRONA 1GR/2ML(0.5GR/ML) SOL INY INST CAJ X 100AMP X 2ML VITALISAMP     1
CC0000032753507H202100000556460600000556460602/12/20211242     3300009237421964250000N2AX0900001672040000000000000                                                                              TRAMADOL SLN INY 50 MGAMP     2
CC0000032753507H202100000556460600000556460602/12/20210110     3300004237421964250000N2AX0900001672040000000000000                                                                              TRAMADOL SLN INY 50 MGAMP     2
CC0000032753507H202100000556460600000556460602/12/20211243     3300009237421964250000A02BC700001684270000000000000                                                            OMEPRAZOL 40MG POLVO LIOFILIZADO AMPOLLAVAL     3
CC0000032753507H202100000556460600000556460602/12/20211846    31903301237421964250000V07A1300000502600000000000000                                                                                AGUA ESTERIL x 10 mlAMP     3
CC0000032753507H202100000556460600000556460602/12/20211243     3300009237421964250000N02BG100003889660000000000000                                                   ACUPAN 20MG/2ML(10MG/ML) SOL INY CAJ X 5AMP X 2MLAMP     2
CC0000032753507H202100000556460600000556460602/12/20210110     3300004237421964250000N02BG100003889660000000000000                                                   ACUPAN 20MG/2ML(10MG/ML) SOL INY CAJ X 5AMP X 2MLAMP     2
