CC0000073070310H202100015012619800015012619802/12/20210729    3190099523742196425000043879400001138170000000000000                                                                  HOJA BISTURI # 10 CSSB 10 01002000SOB     1
CC0000073070310H202100015012619800015012619802/12/20210729    3190099523742196425000043485100001618510000000000000                GUANTE QUIRURGICO DE LATEX REF 2D72N65X CAJ X 50 PROTEXIS  6.5 BN EXENTO-DC.417/2020SOB     2
CC0000073070310H202100015012619800015012619802/12/20210729    3190099523742196425000013077800000471960000000000000                                                             GASA NO TEJIDA EST 7.5 X 7.5 SOB X 3 UNSOB    15
CC0000073070310H202100015012619800015012619802/12/20210729    3190099523742196425000042753100003929850000000000000                   GASA ADHESIVA STRETCH REF 02037-00 ROL X 10MT FIXOMULL 10CM BN EXENTO-DC.417/2020CMT    70
CC0000073070310H202100015012619800015012619802/12/20210729    3190099523742196425000001633100001166650000000000000                                                                            CUTIMED SORBACT 7 X 9 CMSOB     1
CC0000073070310H202100015012619800015012619802/12/20210729    3190099523742196425000042743400003929880000000000000                                    CINTA ADHESIVA TRANSPARENT REF 72216-01 ROL X 10MT FIXOMULL 10CMCMT    80
CC0000073070310H202100015012619800015012619802/12/20210729    3190099523742196425000020056600001101530000000000000                                                                AGUJA HIPODERMICA DESECH 18G X 1 1/2SOB     1
CC0000073070310H202100015012619800015012619802/12/20210729    31900995237421964250000E1AB0700003888350000000000000                                                            SOLUCION SALINA 0.9% SLN INY BO X 250 MLBOL     1
