CC0001140858021H202100000556474500000556474502/12/20210953     3300009237421964250000A2BC0900000200150000000000000                                                                               ORAZOLE Sln Iny 40 mgCIN     1
CC0001140858021H202100000556474500000556474502/12/20211014    31500533237421964250000A4AD0200000202990000000000000                                                                     PLITICAN HCL Sln Iny 50 mg/2 mlAMP     2
CC0001140858021H202100000556474500000556474502/12/20210900    31901015237421964250000A4AD0200000202990000000000000                                                                     PLITICAN HCL Sln Iny 50 mg/2 mlAMP     2
CC0001140858021H202100000556474500000556474502/12/20211014    31500533237421964250000J1CB1800001134180000000000000                                                                             TAZOCIN Polvo Iny 4.5 gVAL     4
CC0001140858021H202100000556474500000556474502/12/20210900    31901015237421964250000J1CB1800001134180000000000000                                                                             TAZOCIN Polvo Iny 4.5 gVAL     1
CC0001140858021H202100000556474500000556474502/12/20211148    31903310237421964250000G4AG0500001315920000000000000                                                                             NORFLOXACINA TAB 400 MGTAB     2
CC0001140858021H202100000556474500000556474502/12/20211014    31500533237421964250000G4AG0500001315920000000000000                                                                             NORFLOXACINA TAB 400 MGTAB     4
CC0001140858021H202100000556474500000556474502/12/20211014    31500533237421964250000N02B1100001464120000000000000                                           PARACETAMOL EP 1000MG/100ML(10MG/ML) SOL INY  CAJ X 10FCOVAL     2
CC0001140858021H202100000556474500000556474502/12/20210900    31901015237421964250000N02B1100001464120000000000000                                           PARACETAMOL EP 1000MG/100ML(10MG/ML) SOL INY  CAJ X 10FCOVAL     2
