CC0000072161780U202100000556486500000556486502/12/20211406    31903175239421964320000E1AB0300003888390000000000000                                                            SOLUCION SALINA 0.9% SLN INY BO X 500 MLBOL     1
CC0000072161780U202100000556486500000556486502/12/20211303     3300010239421964320000M1AE2500000191550000000000000                                                            PROFENID POLVO LIOF SLN INY 100MG/2ML/R/AMP     1
CC0000072161780U202100000556486500000556486502/12/20211304     3300010239421964320000N02B1100001464120000000000000                                           PARACETAMOL EP 1000MG/100ML(10MG/ML) SOL INY  CAJ X 10FCOVAL     1
