CC0000019132127H202100920760120200920760120202/12/20211216    3150053323742196425000011088900001318270000000000000                                                               GUANTE CIRUGIA NITRILO ALFASAFE 7 1/2SOB     2
CC0000019132127H202100920760120200920760120202/12/20211216    3150053323742196425000013077800000471960000000000000                                                             GASA NO TEJIDA EST 7.5 X 7.5 SOB X 3 UNSOB     5
CC0000019132127H202100920760120200920760120202/12/20211216    3150053323742196425000031188000000236790000000000000                                                                                     CISTOFLO ADULTOSIN     1
CC0000019132127H202100920760120200920760120202/12/20211216    3150053323742196425000038570200001123300000000000000                                                                              SONDA FOLEY #20 2 VIASSOB     1
CC0000019132127H202100920760120200920760120202/12/20211216    31500533237421964250000Q1A13500001585200000000000000                        JERINGA PUNTA CAT SIN AGUJA REF 309620 CAJ X 40   50ML BN EXENTO-DC.417/2020SOB     1
CC0000019132127H202100920760120200920760120202/12/20211232    3150053323742196425000011089300001083990000000000000                                                              GUANTE ESTERIL LATEX S/POLVO TALLA 7.5SOB     2
