RC0001043476962U202100050131892600050131892602/12/20212037    3150026323942196432000038568200000257000000000000000                                                                                   SONDA NELATON #06SIN     1
RC0001042267521U202100050131892600050131892602/12/20212037    3150026323942196432000011048600000223020000000000000                                                                 JERINGA VACUNACION 3ML C/AGU 302542SIN     1
NV0000169219848U202100050131892600050131892602/12/20212037    3150026323942196432000011048600000223020000000000000                                                                 JERINGA VACUNACION 3ML C/AGU 302542SIN     1
RC0001043476962U202100050131892600050131892602/12/20212037    3150026323942196432000011048600000223020000000000000                                                                 JERINGA VACUNACION 3ML C/AGU 302542SIN     1
RC0001043476962U202100050131892600050131892602/12/20212037    3150026323942196432000011085100001082120000000000000                                                                           GUANTE QUIRURGICO TALLA 7SOB     2
RC0001043476962U202100050131892600050131892602/12/20212037    3150026323942196432000013077800000471960000000000000                                                             GASA NO TEJIDA EST 7.5 X 7.5 SOB X 3 UNSOB     3
