CC0000013887621H202100015112729400015112729402/12/20210003    3150007223742196425000013077800000471960000000000000                                                             GASA NO TEJIDA EST 7.5 X 7.5 SOB X 3 UNSOB     5
CC0000013887621H202100015112729400015112729402/12/20210003    3150007223742196425000021221000000226640000000000000                                                                                 CARTUCHO ACT 402-03PZA    20
CC0000013887621H202100015112729400015112729402/12/20210003    3150007223742196425000000602700001197200000000000000                                                              APOSITO TRANSP  1655 IV 8.5CM X 11.5CMSOB     1
CC0001143115935H202100015112729400015112729402/12/20210003    31500072237421964250000E1AD0300000199490000000000000                                         LACTATO RINGER USP (HARTMANN)  SOL INY  BOL X 1000ML BAXTERBIN     2
CC0001143115732H202100015112729400015112729402/12/20210003    31500072237421964250000E1AD0300000199490000000000000                                         LACTATO RINGER USP (HARTMANN)  SOL INY  BOL X 1000ML BAXTERBIN     5
CC0001143115732H202100015112729400015112729402/12/20210003    31500072237421964250000E1AD0200003888320000000000000                                                                              HARTMAN SLN INY 500 MLBOL     2
