CC0001045734779U202100050131880700050131880702/12/20210151    3190016523942196432000030161400001459220000000000000                                                                       MANGUERA SUCCION 6 MM*3.1 MTSSOB     1
CC0001045734779U202100050131880700050131880702/12/20210151    3190016523942196432000029987800000325460000000000000                                                             TUBO ENDOTRAQ 8.0 C/B Y ESPIRAL INTERNASIN     1
CC0001045734779U202100050131880700050131880702/12/20210151    3190016523942196432000039176700001029620000000000000                                                                    SUJETADOR TUBO ENDOTRAQUEAL 9799SOB     1
CC0001045734779U202100050131880700050131880702/12/20210151    3190016523942196432000055816100001138270000000000000                                                            SET VENTILACI BASIC AD MP00349 180CM*22MBOL     1
CC0001045734779U202100050131880700050131880702/12/20210151    3190016523942196432000010252000003981620000000000000                                                            RESUCITADOR MANUAL ADULTO BE - 2503 AMBUBOL     1
CC0001045734779U202100050131880700050131880702/12/20210151    3190016523942196432000035642900001014700000000000000                                                                 MASCARA NO REINHALACION ADULTO 1059BOL     1
CC0001045734779U202100050131880700050131880702/12/20210151    3190016523942196432000011053100000729040000000000000                                                             LINER CANISTER RIGIDO 1500CC REF 71-215PZA     1
CC0001045734779U202100050131880700050131880702/12/20210151    3190016523942196432000036441300000236540000000000000                                                                    JERINGA 1 ML GASES ARTERIAL 9023SIN     1
CC0001045734779U202100050131880700050131880702/12/20210151    3190016523942196432000024674000001138340000000000000   JERINGA 3PARTES C/A 10ML REF JEHL005 CAJ X 100 ALFASAFE  21GX1 PULG 1/2 PULG BN EXENTO-DC.417/202PZA     1
CC0001045734779U202100050131880700050131880702/12/20210151    3190016523942196432000043492400000516570000000000000                                                                   GUIA P/TUBO ENDOTRAQ ADULTO 85865SIN     1
CC0001045734779U202100050131880700050131880702/12/20210151    3190016523942196432000011084700000516550000000000000                                                                FILTRO CALOR-HUMEDAD AD REF 352/5877SIN     1
