CC0001151478323U202100000556461900000556461902/12/20211410     3300010239421964320000A03F0300001626860000000000000                                                                   METOCLOPRAMIDA SLN INY 10 MG/2 MLAMP     1
CC0001151478323U202100000556461900000556461902/12/20210138     3300010239421964320000A04A1400001467560000000000000                                                                      ONDANSETRON SLN INY 8 MG/ 4 MLVAL     1
CC0001151478323U202100000556461900000556461902/12/20212207    31902336239421964320000E1AB0200000199290000000000000                                                            SOLUCION SALINA 0.9% SLN INY BO X 100 MLBIN     1
CC0001151478323U202100000556461900000556461902/12/20211846    31901003239421964320000E1AB0300003888390000000000000                                                            SOLUCION SALINA 0.9% SLN INY BO X 500 MLBOL     1
CC0001151478323U202100000556461900000556461902/12/20212207    31902336239421964320000E1AB0500003888400000000000000                                                              SOLUCION SALINA 0.9% SLN INY X 1000 MLBOL     1
CC0001151478323U202100000556461900000556461902/12/20210903    31901005239421964320000E1AB0500003888400000000000000                                                              SOLUCION SALINA 0.9% SLN INY X 1000 MLBOL     1
CC0001151478323U202100000556461900000556461902/12/20210213    31500194239421964320000E1AB0500003888400000000000000                                                              SOLUCION SALINA 0.9% SLN INY X 1000 MLBOL     1
CC0001151478323U202100000556461900000556461902/12/20211545    31902327239421964320000E1AD0200003888320000000000000                                                                              HARTMAN SLN INY 500 MLBOL     1
CC0001151478323U202100000556461900000556461902/12/20211912    31900930239421964320000E1AD0300000199490000000000000                                         LACTATO RINGER USP (HARTMANN)  SOL INY  BOL X 1000ML BAXTERBIN     1
CC0001151478323U202100000556461900000556461902/12/20211545    31902327239421964320000E1AD0300000199490000000000000                                         LACTATO RINGER USP (HARTMANN)  SOL INY  BOL X 1000ML BAXTERBIN     1
CC0001151478323U202100000556461900000556461902/12/20212003     3300010239421964320000H02AB500001664950000000000000                                                            DEXAMETASONA SLN INY 8 MG/2 ML AMP /CDS/AMP     1
CC0001151478323U202100000556461900000556461902/12/20210515     3300010239421964320000H02AB500001664950000000000000                                                            DEXAMETASONA SLN INY 8 MG/2 ML AMP /CDS/AMP     2
CC0001151478323U202100000556461900000556461902/12/20210139     3300010239421964320000N2BB0200000513030000000000000                                                                           LISALGIL Sln Iny 2 g/5 mlAMP     1
CC0001151478323U202100000556461900000556461902/12/20212003     3300010239421964320000N02B1100001464120000000000000                                           PARACETAMOL EP 1000MG/100ML(10MG/ML) SOL INY  CAJ X 10FCOVAL     1
CC0001151478323U202100000556461900000556461902/12/20211009     3300010239421964320000N02B1100001464120000000000000                                           PARACETAMOL EP 1000MG/100ML(10MG/ML) SOL INY  CAJ X 10FCOVAL     2
CC0001151478323U202100000556461900000556461902/12/20210400     3300010239421964320000N02B1100001464120000000000000                                           PARACETAMOL EP 1000MG/100ML(10MG/ML) SOL INY  CAJ X 10FCOVAL     1
CC0001151478323U202100000556461900000556461902/12/20212016     3300010239421964320000N03AX200001063780000000000000                                                                      KEPPRA SLN INY 500 MG/5 ML /R/VAL     1
CC0001151478323U202100000556461900000556461902/12/20212003     3300010239421964320000N03AX200001063780000000000000                                                                      KEPPRA SLN INY 500 MG/5 ML /R/VAL     1
CC0001151478323U202100000556461900000556461902/12/20211009     3300010239421964320000N03AX200001063780000000000000                                                                      KEPPRA SLN INY 500 MG/5 ML /R/VAL     2
CC0001151478323U202100000556461900000556461902/12/20210516     3300010239421964320000N03AX200001063780000000000000                                                                      KEPPRA SLN INY 500 MG/5 ML /R/VAL     1
CC0001151478323U202100000556461900000556461902/12/20210515     3300010239421964320000N03AX200001063780000000000000                                                                      KEPPRA SLN INY 500 MG/5 ML /R/VAL     1
CC0001151478323U202100000556461900000556461902/12/20211957     3300010239421964320000N2AA0200000301600000000000000                                                                        HIDROMORFONA Sln Iny 2 mg/mlAMP     1
CC0001151478323U202100000556461900000556461902/12/20211009     3300010239421964320000N2AA0200000301600000000000000                                                                        HIDROMORFONA Sln Iny 2 mg/mlAMP     2
CC0001151478323U202100000556461900000556461902/12/20210516     3300010239421964320000N2AA0200000301600000000000000                                                                        HIDROMORFONA Sln Iny 2 mg/mlAMP     1
CC0001151478323U202100000556461900000556461902/12/20212129     3300010239421964320000B5BC0100003889300000000000000                                                                        MANITOL SLN INY 20% X 500 MLBOL     1
CC0001151478323U202100000556461900000556461902/12/20210515     3300010239421964320000B5BC0100003889300000000000000                                                                        MANITOL SLN INY 20% X 500 MLBOL     1
CC0001151478323U202100000556461900000556461902/12/20210516     3300010239421964320000A02BC700001684270000000000000                                                            OMEPRAZOL 40MG POLVO LIOFILIZADO AMPOLLAVAL     1
CC0001151478323U202100000556461900000556461902/12/20212003     3300010239421964320000A04AA200003932460000000000000                                                 ONDAX 4MG/2ML(2MG/ML) SOL INY INST CAJ X 1AMP X 2MLAMP     1
