CC0000032776593H202100000556501300000556501302/12/20212348    31500170237421964250000N2BE2200001252930000000000000                                                                             ACETAMINOFEN Tab 500 MGTAB     3
CC0000032776593H202100000556501300000556501302/12/20212348    31500170237421964250000N2BB0100001672010000000000000                                  DIPIRONA 1GR/2ML(0.5GR/ML) SOL INY INST CAJ X 100AMP X 2ML VITALISAMP     3
CC0000032776593H202100000556501300000556501302/12/20212348    31500170237421964250000N03AB200001168090000000000000                                                                       FENITOINA Sln Iny 250 mg/5 mlAMP     2
