NV0000169219848U202100050131888500050131888502/12/20211351    3190093923942196432000042743200003929860000000000000                   GASA ADHESIVA STRETCH REF 02038-00 ROL X 10MT FIXOMULL 15CM BN EXENTO-DC.417/2020CMT    30
NV0000169219848U202100050131888500050131888502/12/20211351    3190093923942196432000001956000001620610000000000000                                                                      CONECTOR MICRO CLAVE LAT-MC100SOB     1
NV0000169219848U202100050131888500050131888502/12/20211351    31900939239421964320000Q1AA7400003911720000000000000                                                            CATETER PERIFE INTROCAN # 24G 4251601-04SOB     1
