TI0001139427796U202100000556492200000556492202/12/20212302    31901806239421964320000E1AD0300000199490000000000000                                         LACTATO RINGER USP (HARTMANN)  SOL INY  BOL X 1000ML BAXTERBIN     2
TI0001139427796U202100000556492200000556492202/12/20211845    31903180239421964320000E1AD0300000199490000000000000                                         LACTATO RINGER USP (HARTMANN)  SOL INY  BOL X 1000ML BAXTERBIN     1
TI0001139427796U202100000556492200000556492202/12/20211741    31903180239421964320000E1AD0300000199490000000000000                                         LACTATO RINGER USP (HARTMANN)  SOL INY  BOL X 1000ML BAXTERBIN     1
TI0001139427796U202100000556492200000556492202/12/20212303     3300010239421964320000N2BE2200001252930000000000000                                                                             ACETAMINOFEN Tab 500 MGTAB     2
TI0001139427796U202100000556492200000556492202/12/20212252     3300010239421964320000N2BE2200001252930000000000000                                                                             ACETAMINOFEN Tab 500 MGTAB     2
TI0001139427796U202100000556492200000556492202/12/20212302     3300010239421964320000A02BC700001684270000000000000                                                            OMEPRAZOL 40MG POLVO LIOFILIZADO AMPOLLAVAL     1
TI0001139427796U202100000556492200000556492202/12/20211604     3300010239421964320000A02BC700001684270000000000000                                                            OMEPRAZOL 40MG POLVO LIOFILIZADO AMPOLLAVAL     1
