CC0000008682417H202100015112730900015112730902/12/20211733    3190099823742196425000018354100000232880000000000000                                                                  SUTURA SEDA NEGRA 3-0 KS 75CM 622HSIN     2
CC0000008682417H202100015112730900015112730902/12/20211733    3190099823742196425000038573100000256880000000000000                                                                                 SONDA NSG LEVIN #18SIN     1
CC0000008682417H202100015112730900015112730902/12/20211733    3190099823742196425000038570000001123500000000000000                                                                              SONDA FOLEY #16 2 VIASSOB     1
CC0000008682417H202100015112730900015112730902/12/20211733    3190099823742196425000035356500003919000000000000000                                                                                        LLAVE 3 VIASSOB     1
CC0000008682417H202100015112730900015112730902/12/20211733    3190099823742196425000011051900000226360000000000000                                                               KIT TRANSDUCTOR SENCILLO S/VAMP PX260SOB     1
CC0000008682417H202100015112730900015112730902/12/20211733    3190099823742196425000043879200001138180000000000000                                                                                   HOJA BISTURI # 11SOB     2
CC0000008682417H202100015112730900015112730902/12/20211733    3190099823742196425000043485100001618510000000000000                GUANTE QUIRURGICO DE LATEX REF 2D72N65X CAJ X 50 PROTEXIS  6.5 BN EXENTO-DC.417/2020SOB     2
CC0000008682417H202100015112730900015112730902/12/20211733    3190099823742196425000023486400001318040000000000000                                                               GUANTE CIRUGIA NITRILO ALFASAFE 6 1/2SOB     2
CC0000008682417H202100015112730900015112730902/12/20211733    3190099823742196425000011085100001082120000000000000                                                                           GUANTE QUIRURGICO TALLA 7SOB     2
CC0000008682417H202100015112730900015112730902/12/20211733    3190099823742196425000013077800000471960000000000000                                                             GASA NO TEJIDA EST 7.5 X 7.5 SOB X 3 UNSOB    15
CC0000008682417H202100015112730900015112730902/12/20211733    3190099823742196425000022426800001140510000000000000                                                                    EQUIPO MACROGOTEO BAXTER MRC0001SOB     1
CC0000008682417H202100015112730900015112730902/12/20211733    3190099823742196425000011082900001233450000000000000                                                               EQUIPO LC 5000 PRIMARIO FOTOPRO 0L218SOB     1
CC0000008682417H202100015112730900015112730902/12/20211733    3190099823742196425000011082700001620070000000000000                                                               EQUIPO SET PRIMARIO C/CLAVE REF 14001BOL     1
CC0000072339909H202100015112730900015112730902/12/20211733    3190099823742196425000011081700001413910000000000000                                                                EQUIPO ADM NUTRICIONES 673662 BAXTERBOL     1
CC0001066890191H202100015112730900015112730902/12/20211733    3190099823742196425000011081700001413910000000000000                                                                EQUIPO ADM NUTRICIONES 673662 BAXTERBOL     1
CC0000028496269H202100015112730900015112730902/12/20211733    3190099823742196425000011081700001413910000000000000                                                                EQUIPO ADM NUTRICIONES 673662 BAXTERBOL     1
CC0000008682417H202100015112730900015112730902/12/20211733    3190099823742196425000031188000000236790000000000000                                                                                     CISTOFLO ADULTOSIN     1
CC0000008682417H202100015112730900015112730902/12/20211733    3190099823742196425000001956000001620610000000000000                                                                      CONECTOR MICRO CLAVE LAT-MC100SOB     4
CC0000008682417H202100015112730900015112730902/12/20211733    3190099823742196425000000302100000227700000000000000                                                               CAT CENTRAL MONOLUM ES04301 16FR *20MSIN     1
CC0000008682417H202100015112730900015112730902/12/20211733    3190099823742196425000021016900000227720000000000000                                                               CATETER TRILUMEN AD CS15703E 7FR*20CMSIN     1
CC0000008682417H202100015112730900015112730902/12/20211733    3190099823742196425000000301900000227730000000000000                                                               CATETER TRILUMEN AD CS14703E 7FR*30CMSIN     1
CC0000008682417H202100015112730900015112730902/12/20211733    31900998237421964250000Q1AA7200000610630000000000000                                                            CATETER PERIFE INTROCAN # 20G 4251644-04SIN     2
CC0000008682417H202100015112730900015112730902/12/20211733    31900998237421964250000Q1A11500000331560000000000000                                                                     CATETER RADIAL #20 REF. 115.090SIN     1
CC0000008682417H202100015112730900015112730902/12/20211733    3190099823742196425000000602700001197200000000000000                                                              APOSITO TRANSP  1655 IV 8.5CM X 11.5CMSOB     3
CC0000008682417H202100015112730900015112730902/12/20211733    3190099823742196425000016830000000970620000000000000                                                             SIST FIJACION CAT PERIFERICO 6.5X7 1683SOB     3
CC0000008682417H202100015112730900015112730902/12/20211733    31900998237421964250000N1BA2400001687720000000000000                                                    LIDOCAINA 2% SOL INY  CAJ X 50AMP X 10ML CORPAULAMP     2
CC0000008682417H202100015112730900015112730902/12/20211733    31900998237421964250000E1AB0300003888390000000000000                                                            SOLUCION SALINA 0.9% SLN INY BO X 500 MLBOL     1
