CC0001045670902U202100000556487600000556487602/12/20212302    31901806239421964320000E1AD0300000199490000000000000                                         LACTATO RINGER USP (HARTMANN)  SOL INY  BOL X 1000ML BAXTERBIN     1
CC0001045670902U202100000556487600000556487602/12/20211959     3300010239421964320000C09CA400001277130000000000000                                                                                  LOSARTAN TAB 50 MGTAB     1
CC0001045670902U202100000556487600000556487602/12/20211959     3300010239421964320000J01CR200000947130000000000000                                                              AMPICILINA /SULBACTAN POLVO LIOF 1.5 GAMP     4
CC0001045670902U202100000556487600000556487602/12/20211340     3300010239421964320000J01CR200000947130000000000000                                                              AMPICILINA /SULBACTAN POLVO LIOF 1.5 GAMP     2
CC0001045670902U202100000556487600000556487602/12/20212000     3300010239421964320000J3CA0300001673190000000000000                               METRONIDAZOL 500MG/100ML(5MG/ML) SOL INY  CAJ X 84BOL X 100ML CORPAULBOL     2
CC0001045670902U202100000556487600000556487602/12/20211339     3300010239421964320000J3CA0300001673190000000000000                               METRONIDAZOL 500MG/100ML(5MG/ML) SOL INY  CAJ X 84BOL X 100ML CORPAULBOL     1
CC0001045670902U202100000556487600000556487602/12/20211340     3300010239421964320000M01A2000001664970000000000000                                                               DICLOFENACO SODICO SLN INY 75 MG/3 MLAMP     1
CC0001045670902U202100000556487600000556487602/12/20212000     3300010239421964320000N2BB0100001672010000000000000                                  DIPIRONA 1GR/2ML(0.5GR/ML) SOL INY INST CAJ X 100AMP X 2ML VITALISAMP     2
CC0001045670902U202100000556487600000556487602/12/20211339     3300010239421964320000N2BB0100001672010000000000000                                  DIPIRONA 1GR/2ML(0.5GR/ML) SOL INY INST CAJ X 100AMP X 2ML VITALISAMP     2
