CC0000032776593H202100015052796300015052796302/12/20212037    3190330323742196425000022426800001140510000000000000                                                                    EQUIPO MACROGOTEO BAXTER MRC0001SOB     1
CC0001047339603H202100015052796300015052796302/12/20212037    3190330323742196425000022426800001140510000000000000                                                                    EQUIPO MACROGOTEO BAXTER MRC0001SOB     1
CC0000032776593H202100015052796300015052796302/12/20212037    3190330323742196425000011082700001620070000000000000                                                               EQUIPO SET PRIMARIO C/CLAVE REF 14001BOL     1
CC0001047339603H202100015052796300015052796302/12/20212037    3190330323742196425000001956000001620610000000000000                                                                      CONECTOR MICRO CLAVE LAT-MC100SOB     1
CC0000032776593H202100015052796300015052796302/12/20212037    3190330323742196425000030936900001431840000000000000                                                                                              BURETABOL     1
CC0001047339603H202100015052796300015052796302/12/20212037    3190330323742196425000030936900001431840000000000000                                                                                              BURETABOL     1
CC0000032889993H202100015052796300015052796302/12/20212037    31903303237421964250000E1AB0300003888390000000000000                                                            SOLUCION SALINA 0.9% SLN INY BO X 500 MLBOL     2
CC0000032753507H202100015052796300015052796302/12/20212037    31903303237421964250000E1AB0300003888390000000000000                                                            SOLUCION SALINA 0.9% SLN INY BO X 500 MLBOL     2
CC0001047339603H202100015052796300015052796302/12/20212037    31903303237421964250000E1AB0300003888390000000000000                                                            SOLUCION SALINA 0.9% SLN INY BO X 500 MLBOL     2
RC0001048085516H202100015052796300015052796302/12/20212037    31903303237421964250000E1AC0100000199400000000000000                                                                          SUERO MIXTO Sln Iny 500 mlBIN     2
