CC0001047230087U202100916322120200916322120202/12/20212259    3150058923942196432000011060700001647330000000000000                                                               SET PRIMARIO INFUSION BOMBA REF 14015BOL     1
CC0001047230087U202100916322120200916322120202/12/20212259    3150058923942196432000013077800000471960000000000000                                                             GASA NO TEJIDA EST 7.5 X 7.5 SOB X 3 UNSOB     5
CC0001047230087U202100916322120200916322120202/12/20212259    3150058923942196432000016830000000970620000000000000                                                             SIST FIJACION CAT PERIFERICO 6.5X7 1683SOB     1
CC0001047230087U202100916322120200916322120202/12/20212259    3150058923942196432000024674000001138340000000000000   JERINGA 3PARTES C/A 10ML REF JEHL005 CAJ X 100 ALFASAFE  21GX1 PULG 1/2 PULG BN EXENTO-DC.417/202PZA     3
CC0001047230087U202100916322120200916322120202/12/20212259    3150058923942196432000030936900001431840000000000000                                                                                              BURETABOL     1
CC0001047230087U202100916322120200916322120202/12/20212259    31500589239421964320000Q1AA7100000610620000000000000                                                            CATETER PERIFE INTROCAN # 18G 4251687-04SIN     1
CC0001047230087U202100916322120200916322120202/12/20212259    31500589239421964320000E1AD0300000199490000000000000                                         LACTATO RINGER USP (HARTMANN)  SOL INY  BOL X 1000ML BAXTERBIN     1
CC0001047230087U202100916322120200916322120202/12/20212259    31500589239421964320000E1AB0500003888400000000000000                                                              SOLUCION SALINA 0.9% SLN INY X 1000 MLBOL     4
