CC0001140848017H202100921092120200921092120202/12/20211445    3190329123742196425000022426800001140510000000000000                                                                    EQUIPO MACROGOTEO BAXTER MRC0001SOB     1
CC0001140848017H202100921092120200921092120202/12/20211445    3190329123742196425000024674000001138340000000000000   JERINGA 3PARTES C/A 10ML REF JEHL005 CAJ X 100 ALFASAFE  21GX1 PULG 1/2 PULG BN EXENTO-DC.417/202PZA    10
CC0001140848017H202100921092120200921092120202/12/20211445    3190329123742196425000030936900001431840000000000000                                                                                              BURETABOL     1
