CC0000032672212H202100000556462200000556462202/12/20211236     3300009237421964250000A03F0300001626860000000000000                                                                   METOCLOPRAMIDA SLN INY 10 MG/2 MLAMP     3
CC0000032672212H202100000556462200000556462202/12/20210144     3300004237421964250000H03AA200001391520000000000000                                                                            LEVOTIROXINA TAB 100 MCGTAB     1
CC0000032672212H202100000556462200000556462202/12/20210144     3300004237421964250000H03AA300001315510000000000000                                                                             LEVOTIROXINA TAB 25 MCGTAB     1
CC0000032672212H202100000556462200000556462202/12/20211236     3300009237421964250000N2BB0100001672010000000000000                                  DIPIRONA 1GR/2ML(0.5GR/ML) SOL INY INST CAJ X 100AMP X 2ML VITALISAMP     2
CC0000032672212H202100000556462200000556462202/12/20211235     3300009237421964250000N2BB0100001672010000000000000                                  DIPIRONA 1GR/2ML(0.5GR/ML) SOL INY INST CAJ X 100AMP X 2ML VITALISAMP     4
