CC0000072007109U202100000556464300000556464302/12/20210517    31902968239421964320000E1AB0200000199290000000000000                                                            SOLUCION SALINA 0.9% SLN INY BO X 100 MLBIN     1
CC0000072007109U202100000556464300000556464302/12/20210223     3300010239421964320000J7AA0600001602890000000000000                                                            VACUNA ANTITETANICA SUSP INY 40 UI/0.5MLVAL     1
CC0000072007109U202100000556464300000556464302/12/20210223     3300010239421964320000N01B0200003888110000000000000                                           ROXICAINA SE 100MG/10ML(1%) SOL INY CAJ X 24AMPACK X 10MLAPC     1
CC0000072007109U202100000556464300000556464302/12/20210223     3300010239421964320000N2AX0900001672040000000000000                                                                              TRAMADOL SLN INY 50 MGAMP     1
