RC0001146544136H202100015122544400015122544402/12/20210814    31903110237421964250000Q1AA1000000256790000000000000                                                                         SONDA ASPIRACION CONTROL #8SIN     8
RC0001044671776H202100015122544400015122544402/12/20210814    31903110237421964250000Q1AA1000000256790000000000000                                                                         SONDA ASPIRACION CONTROL #8SIN    10
RC0001044671776H202100015122544400015122544402/12/20210814    3190311023742196425000038576500000256730000000000000                                                                        SONDA ASPIRACION CONTROL #10SIN     8
TI0001047050967H202100015122544400015122544402/12/20210814    3190311023742196425000036441300000236540000000000000                                                                    JERINGA 1 ML GASES ARTERIAL 9023SIN     8
RC0001044671776H202100015122544400015122544402/12/20210814    3190311023742196425000036441300000236540000000000000                                                                    JERINGA 1 ML GASES ARTERIAL 9023SIN     4
RC0001046723141H202100015122544400015122544402/12/20210814    3190311023742196425000036441300000236540000000000000                                                                    JERINGA 1 ML GASES ARTERIAL 9023SIN     2
RC0001034521434H202100015122544400015122544402/12/20210814    3190311023742196425000036441300000236540000000000000                                                                    JERINGA 1 ML GASES ARTERIAL 9023SIN     2
RC0001063188076H202100015122544400015122544402/12/20210814    3190311023742196425000036441300000236540000000000000                                                                    JERINGA 1 ML GASES ARTERIAL 9023SIN     2
RC0001044671776H202100015122544400015122544402/12/20210814    3190311023742196425000024674000001138340000000000000   JERINGA 3PARTES C/A 10ML REF JEHL005 CAJ X 100 ALFASAFE  21GX1 PULG 1/2 PULG BN EXENTO-DC.417/202PZA     4
RC0001046723141H202100015122544400015122544402/12/20210814    31903110237421964250000E1BA0100000198890000000000000                                                                   AGUA ESTERIL USP SLN INY X 500 MLBIN     2
RC0001034521434H202100015122544400015122544402/12/20210814    31903110237421964250000E1BA0100000198890000000000000                                                                   AGUA ESTERIL USP SLN INY X 500 MLBIN     2
RC0001063188076H202100015122544400015122544402/12/20210814    31903110237421964250000E1BA0100000198890000000000000                                                                   AGUA ESTERIL USP SLN INY X 500 MLBIN     2
RC0001044671776H202100015122544400015122544402/12/20210814    31903110237421964250000E1AB0200000199290000000000000                                                            SOLUCION SALINA 0.9% SLN INY BO X 100 MLBIN     2
