RC0001011109659H202100000556476300000556476302/12/20210937     3300009237421964250000A12BA100000552980000000000000                                                            CLORURO POTASIO Sln Iny AMP 20 MEQ/10 MLAMP     1
RC0001011109659H202100000556476300000556476302/12/20211322     3300009237421964250000J01GB500000552920000000000000                                                                       AMIKACINA SLN INY 500 MG/2 MLAMP     1
RC0001011109659H202100000556476300000556476302/12/20210937     3300009237421964250000J01GB500000552920000000000000                                                                       AMIKACINA SLN INY 500 MG/2 MLAMP     1
RC0001011109659H202100000556476300000556476302/12/20210937     3300009237421964250000N02B1100001464120000000000000                                           PARACETAMOL EP 1000MG/100ML(10MG/ML) SOL INY  CAJ X 10FCOVAL     1
RC0001011109659H202100000556476300000556476302/12/20211630    31903310237421964250000V07A1300000502600000000000000                                                                                AGUA ESTERIL x 10 mlAMP     8
