CC0000019132127H202100015012620900015012620902/12/20211210    3150053323742196425000038570200001123300000000000000                                                                              SONDA FOLEY #20 2 VIASSOB     1
CC0000019132127H202100015012620900015012620902/12/20211210    31500533237421964250000Q1A13500001585200000000000000                        JERINGA PUNTA CAT SIN AGUJA REF 309620 CAJ X 40   50ML BN EXENTO-DC.417/2020SOB     1
CC0000019132127H202100015012620900015012620902/12/20211210    3150053323742196425000011088900001318270000000000000                                                               GUANTE CIRUGIA NITRILO ALFASAFE 7 1/2SOB     2
CC0000019132127H202100015012620900015012620902/12/20211210    3150053323742196425000013077800000471960000000000000                                                             GASA NO TEJIDA EST 7.5 X 7.5 SOB X 3 UNSOB     5
CC0000019132127H202100015012620900015012620902/12/20211210    3150053323742196425000031188000000236790000000000000                                                                                     CISTOFLO ADULTOSIN     1
