CC0000002930060H202100000556463000000556463002/12/20210935     3300009237421964250000A2BC0900000200150000000000000                                                                               ORAZOLE Sln Iny 40 mgCIN     1
CC0000002930060H202100000556463000000556463002/12/20211855    31500533237421964250000E1AB0200000199290000000000000                                                            SOLUCION SALINA 0.9% SLN INY BO X 100 MLBIN     1
CC0000002930060H202100000556463000000556463002/12/20211821    31903102237421964250000E1AB0200000199290000000000000                                                            SOLUCION SALINA 0.9% SLN INY BO X 100 MLBIN     1
CC0000002930060H202100000556463000000556463002/12/20211512    31900995237421964250000E1AB0200000199290000000000000                                                            SOLUCION SALINA 0.9% SLN INY BO X 100 MLBIN     1
CC0000002930060H202100000556463000000556463002/12/20211501    31903016237421964250000E1AB0200000199290000000000000                                                            SOLUCION SALINA 0.9% SLN INY BO X 100 MLBIN     1
CC0000002930060H202100000556463000000556463002/12/20211710    31903259237421964250000E1AD0300000199490000000000000                                         LACTATO RINGER USP (HARTMANN)  SOL INY  BOL X 1000ML BAXTERBIN     2
CC0000002930060H202100000556463000000556463002/12/20210543    31902949237421964250000E1AD0300000199490000000000000                                         LACTATO RINGER USP (HARTMANN)  SOL INY  BOL X 1000ML BAXTERBIN     1
CC0000002930060H202100000556463000000556463002/12/20211855    31500533237421964250000B05B1400001012740000000000000                                                                SOLUCION SALINA 0.45% Sln Iny 500 mlBOL     1
CC0000002930060H202100000556463000000556463002/12/20210849     3300009237421964250000C3CA0200000195520000000000000                                                                           LASIX SLN INY 20 MG/ 2 MLAMP     2
CC0000002930060H202100000556463000000556463002/12/20210935     3300009237421964250000N1BA1900000554750000000000000                                                                     ROXICAINA JALEA 2% TUBO X 30 MLTUB     1
CC0000002930060H202100000556463000000556463002/12/20211855    31500533237421964250000N1BA2400001687720000000000000                                                    LIDOCAINA 2% SOL INY  CAJ X 50AMP X 10ML CORPAULAMP     1
CC0000002930060H202100000556463000000556463002/12/20211501    31903016237421964250000N1BA2400001687720000000000000                                                    LIDOCAINA 2% SOL INY  CAJ X 50AMP X 10ML CORPAULAMP     2
CC0000002930060H202100000556463000000556463002/12/20210935     3300009237421964250000N02B1100001464120000000000000                                           PARACETAMOL EP 1000MG/100ML(10MG/ML) SOL INY  CAJ X 10FCOVAL     3
CC0000002930060H202100000556463000000556463002/12/20210935     3300009237421964250000N05A0500001336370000000000000                                                                              SEROQUEL TAB 25 MG /R/TAB     1
CC0000002930060H202100000556463000000556463002/12/20211047     3300009237421964250000V6DB5200000303900000000000000                                                                    PULMOCARE Liquido Tarro x 237 mlLAT     3
CC0000002930060H202100000556463000000556463002/12/20210936     3300009237421964250000V6DB5200000303900000000000000                                                                    PULMOCARE Liquido Tarro x 237 mlLAT     3
CC0000002930060H202100000556463000000556463002/12/20210810     3300009237421964250000V6DB5200000303900000000000000                                                                    PULMOCARE Liquido Tarro x 237 mlLAT     3
CC0000002930060H202100000556463000000556463002/12/20211939     3300009237421964250000N2AA0200000301600000000000000                                                                        HIDROMORFONA Sln Iny 2 mg/mlAMP     1
CC0000002930060H202100000556463000000556463002/12/20211629    31903310237421964250000V07A1300000502600000000000000                                                                                AGUA ESTERIL x 10 mlAMP     8
