CC0001010146343H202100000556462900000556462902/12/20210543    31902949237421964250000E1AB0500003888400000000000000                                                              SOLUCION SALINA 0.9% SLN INY X 1000 MLBOL     1
CC0001010146343H202100000556462900000556462902/12/20210937     3300009237421964250000J01FF200003888100000000000000                                                                             EUROCLIN SLN INY 600 MGAMP     1
CC0001010146343H202100000556462900000556462902/12/20210936     3300009237421964250000J01FF200003888100000000000000                                                                             EUROCLIN SLN INY 600 MGAMP     1
CC0001010146343H202100000556462900000556462902/12/20211639     3300009237421964250000J1KD1200001361080000000000000                                                                     GENTAMICINA SLN INY 160 MG/2 MLAMP     1
CC0001010146343H202100000556462900000556462902/12/20211638     3300009237421964250000J1KD1200001361080000000000000                                                                     GENTAMICINA SLN INY 160 MG/2 MLAMP     1
CC0001010146343H202100000556462900000556462902/12/20210936     3300009237421964250000M01A1400001302580000000000000                                                                              ARCOXIA Tab 120 mg /R/TAB     1
CC0001010146343H202100000556462900000556462902/12/20212350     3300009237421964250000N02B1100001464120000000000000                                           PARACETAMOL EP 1000MG/100ML(10MG/ML) SOL INY  CAJ X 10FCOVAL     1
CC0001010146343H202100000556462900000556462902/12/20210936     3300009237421964250000N02B1100001464120000000000000                                           PARACETAMOL EP 1000MG/100ML(10MG/ML) SOL INY  CAJ X 10FCOVAL     2
CC0001010146343H202100000556462900000556462902/12/20211629    31903310237421964250000V07A1300000502600000000000000                                                                                AGUA ESTERIL x 10 mlAMP     8
