CC0000032688858H202100015042533800015042533802/12/20211149    3150008223742196425000043485100001618510000000000000                GUANTE QUIRURGICO DE LATEX REF 2D72N65X CAJ X 50 PROTEXIS  6.5 BN EXENTO-DC.417/2020SOB     1
CC0000032688858H202100015042533800015042533802/12/20211149    3150008223742196425000013077800000471960000000000000                                                             GASA NO TEJIDA EST 7.5 X 7.5 SOB X 3 UNSOB    10
CC0000032688858H202100015042533800015042533802/12/20211149    3150008223742196425000042743200003929860000000000000                   GASA ADHESIVA STRETCH REF 02038-00 ROL X 10MT FIXOMULL 15CM BN EXENTO-DC.417/2020CMT    30
CC0001129577696H202100015042533800015042533802/12/20211149    3150008223742196425000022426800001140510000000000000                                                                    EQUIPO MACROGOTEO BAXTER MRC0001SOB     1
CC0000032632813H202100015042533800015042533802/12/20211149    3150008223742196425000011082700001620070000000000000                                                               EQUIPO SET PRIMARIO C/CLAVE REF 14001BOL     1
CC0000032632813H202100015042533800015042533802/12/20211149    3150008223742196425000030936900001431840000000000000                                                                                              BURETABOL     1
CC0001129577696H202100015042533800015042533802/12/20211149    31500082237421964250000E1AB0300003888390000000000000                                                            SOLUCION SALINA 0.9% SLN INY BO X 500 MLBOL     3
CC0000032632813H202100015042533800015042533802/12/20211149    31500082237421964250000E1AB0300003888390000000000000                                                            SOLUCION SALINA 0.9% SLN INY BO X 500 MLBOL     3
CC0001129577696H202100015042533800015042533802/12/20211149    31500082237421964250000E1AB0200000199290000000000000                                                            SOLUCION SALINA 0.9% SLN INY BO X 100 MLBIN     4
