CC0000003724288H202100015052793400015052793402/12/20210016    31500624237421964250000Q1A13500001585200000000000000                        JERINGA PUNTA CAT SIN AGUJA REF 309620 CAJ X 40   50ML BN EXENTO-DC.417/2020SOB     1
CC0000022696914H202100015052793400015052793402/12/20210016    3150062423742196425000011082700001620070000000000000                                                               EQUIPO SET PRIMARIO C/CLAVE REF 14001BOL     1
CC0000032756421H202100015052793400015052793402/12/20210016    3150062423742196425000011082700001620070000000000000                                                               EQUIPO SET PRIMARIO C/CLAVE REF 14001BOL     1
CC0000022696914H202100015052793400015052793402/12/20210016    3150062423742196425000030936900001431840000000000000                                                                                              BURETABOL     1
CC0000032756421H202100015052793400015052793402/12/20210016    3150062423742196425000030936900001431840000000000000                                                                                              BURETABOL     1
CC0000003724288H202100015052793400015052793402/12/20210016    31500624237421964250000E1AD0300000199490000000000000                                         LACTATO RINGER USP (HARTMANN)  SOL INY  BOL X 1000ML BAXTERBIN     1
CC0000022696914H202100015052793400015052793402/12/20210016    31500624237421964250000E1AB0300003888390000000000000                                                            SOLUCION SALINA 0.9% SLN INY BO X 500 MLBOL     1
CC0000032756421H202100015052793400015052793402/12/20210016    31500624237421964250000E1AB0300003888390000000000000                                                            SOLUCION SALINA 0.9% SLN INY BO X 500 MLBOL     1
TI0001045251359H202100015052793400015052793402/12/20210016    31500624237421964250000E1AB0300003888390000000000000                                                            SOLUCION SALINA 0.9% SLN INY BO X 500 MLBOL     1
TI0001083002908H202100015052793400015052793402/12/20210016    31500624237421964250000E1AB0300003888390000000000000                                                            SOLUCION SALINA 0.9% SLN INY BO X 500 MLBOL     1
