RC0001125232601H202100000556464500000556464502/12/20211851     3300009237421964250000V4AF0700001193810000000000000                                                                   NULYTELY 3350 SOBRE X 110.1 G /R/SOB     1
RC0001125232601H202100000556464500000556464502/12/20211704    31903272237421964250000E1AA0100003888590000000000000                                                                        DEXTROSA 5% Sln Iny X 500 mlBOL     2
RC0001125232601H202100000556464500000556464502/12/20211605     3300009237421964250000J01GB300001109550000000000000                                                                      AMIKACINA SLN INY 100 MG/ 2 MLAMP     1
RC0001125232601H202100000556464500000556464502/12/20211052     3300009237421964250000J01GB300001109550000000000000                                                                      AMIKACINA SLN INY 100 MG/ 2 MLAMP     1
RC0001125232601H202100000556464500000556464502/12/20210234     3300004237421964250000N2BE1100000836430000000000000                                             ACETAMINOFEN 150MG/5ML(3%) JBE INST FCO X 60ML AMER GENCAJ     1
