RC0001146542960H202100015022527200015022527231/10/20211301    3190244523742196425000001956000001620610000000000000                                                                      CONECTOR MICRO CLAVE LAT-MC100SOB     1
CC0000044150179H202100015022527200015022527231/10/20211301    3190244523742196425000001956000001620610000000000000                                                                      CONECTOR MICRO CLAVE LAT-MC100SOB     1
PA0000F35806072H202100015022527200015022527231/10/20211301    3190244523742196425000001956000001620610000000000000                                                                      CONECTOR MICRO CLAVE LAT-MC100SOB     1
CC0000044150179H202100015022527200015022527231/10/20211301    31902445237421964250000Q1AA7200000610630000000000000                                                            CATETER PERIFE INTROCAN # 20G 4251644-04SIN     1
PA0000F35806072H202100015022527200015022527231/10/20211301    31902445237421964250000Q1AA7200000610630000000000000                                                            CATETER PERIFE INTROCAN # 20G 4251644-04SIN     1
RC0001146542960H202100015022527200015022527231/10/20211301    31902445237421964250000Q1AA7400003911720000000000000                                                            CATETER PERIFE INTROCAN # 24G 4251601-04SOB     2
RC0001146542960H202100015022527200015022527231/10/20211301    3190244523742196425000000602600001259280000000000000                                                             APOSITO TEGADERM IV PD 1610 5CM X 5.7CMSOB     1
CC0000044150179H202100015022527200015022527231/10/20211301    3190244523742196425000016830000000970620000000000000                                                             SIST FIJACION CAT PERIFERICO 6.5X7 1683SOB     1
PA0000F35806072H202100015022527200015022527231/10/20211301    3190244523742196425000016830000000970620000000000000                                                             SIST FIJACION CAT PERIFERICO 6.5X7 1683SOB     1
