RC0001046723141H202100015052709400015052709431/10/20210934    3190224223742196425000047373400000228840000000000000                                                                             PINZA COLOSTOMIA 175635PZA     1
RC0001046723141H202100015052709400015052709431/10/20210934    3190224223742196425000040516900000228620000000000000                                                                     BOLSA COLOSTOMIA CONVATEC 32 MMPZA     1
RC0001046723141H202100015052709400015052709431/10/20210934    3190224223742196425000040512700000228750000000000000                                                            BARRERA COLOSTOMIA CONVATEC 32 MM 125016PZA     1
RC0001046723141H202100015052709400015052709431/10/20210934    3190224223742196425000021593100001571610000000000000                                                                    AQUACEL AG+ EXTRA 10*10CM 413567SOB     1
