CC0001026277722U202100000555195500000555195531/10/20210745     3300004239421964320000A02BC100001677520000000000000                                                                ESOMEPRAZOL POLVO LIOF INY 40 MG /R/VAL     1
CC0001026277722U202100000555195500000555195531/10/20210745     3300004239421964320000A4AD0200000202990000000000000                                                                     PLITICAN HCL Sln Iny 50 mg/2 mlAMP     1
CC0001026277722U202100000555195500000555195531/10/20210744     3300004239421964320000A3BB0200000512940000000000000                                                                          BUSCAPINA SIMPLE Iny 20 mgAMP     1
CC0001026277722U202100000555195500000555195531/10/20210852    31902864239421964320000E1AD0300000199490000000000000                                         LACTATO RINGER USP (HARTMANN)  SOL INY  BOL X 1000ML BAXTERBIN     1
