CC0000022466267U202100050131448300050131448331/10/20211312    3150051423942196432000030161400001459220000000000000                                                                       MANGUERA SUCCION 6 MM*3.1 MTSSOB     1
CC0000022466267U202100050131448300050131448331/10/20211312    3150051423942196432000038569400000256750000000000000                                                                        SONDA ASPIRACION CONTROL #14SIN     1
CC0000022466267U202100050131448300050131448331/10/20211312    3150051423942196432000036441300000236540000000000000                                                                    JERINGA 1 ML GASES ARTERIAL 9023SIN     1
CC0000008276860U202100050131448300050131448331/10/20211312    3150051423942196432000036441300000236540000000000000                                                                    JERINGA 1 ML GASES ARTERIAL 9023SIN     1
CC0000022466267U202100050131448300050131448331/10/20211312    3150051423942196432000020816000001096410000000000000                                                                          LINER PARED DELGADA 1500CCBOL     1
