RC0001048084426U202100050131449800050131449831/10/20211532    3150039423942196432000024674000000220660000000000000                             JERINGA A 3 PARTES CON AGUJA  SOB X 1 RYMCO  10ML BN EXENTO-DC.417/2020SIN     2
RC0001048084426U202100050131449800050131449831/10/20211532    3150039423942196432000011082700001620070000000000000                                                               EQUIPO SET PRIMARIO C/CLAVE REF 14001BOL     1
RC0001048084426U202100050131449800050131449831/10/20211532    31500394239421964320000Q1AA7400003911720000000000000                                                            CATETER PERIFE INTROCAN # 24G 4251601-04SOB     1
RC0001048084426U202100050131449800050131449831/10/20211532    3150039423942196432000030936900001431840000000000000                                                                                              BURETABOL     1
RC0001048084426U202100050131449800050131449831/10/20211532    3150039423942196432000016830000000970620000000000000                                                             SIST FIJACION CAT PERIFERICO 6.5X7 1683SOB     1
RC0001048084426U202100050131449800050131449831/10/20211532    31500394239421964320000E1AD0200003888320000000000000                                                                              HARTMAN SLN INY 500 MLBOL     1
