CC0000008276860U202100000555207600000555207631/10/20211517     3300004239421964320000A2BC0900000200150000000000000                                                                               ORAZOLE Sln Iny 40 mgCIN     1
CC0000008276860U202100000555207600000555207631/10/20211517     3300004239421964320000B1AB1200003939350000000000000                 ENOXAPARINA SODICA 80MG/0.8ML(100MG/ML) SOL INY INST CAJ X 2JERPREL X 0.8ML TECHDOWJRP     1
CC0000008276860U202100000555207600000555207631/10/20211517     3300004239421964320000C1DA2600001277390000000000000                                                                                PLAVIX TAB 75 MG /R/TAB     1
CC0000008276860U202100000555207600000555207631/10/20211517     3300004239421964320000N02B0300001277700000000000000                                                                           CARDIOASPIRINA TAB 100 MGTAB     3
CC0000008276860U202100000555207600000555207631/10/20211600    31901010239421964320000E1AD0300000199490000000000000                                         LACTATO RINGER USP (HARTMANN)  SOL INY  BOL X 1000ML BAXTERBIN     1
