CC0000072302902U202100000555202300000555202331/10/20211821     3300004239421964320000A2BC0900000200150000000000000                                                                               ORAZOLE Sln Iny 40 mgCIN     1
CC0000072302902U202100000555202300000555202331/10/20211235     3300004239421964320000A02AF200000173970000000000000                                                                          CALYMAG SUSP ORAL X 360 MLFCO     1
CC0000072302902U202100000555202300000555202331/10/20211121     3300004239421964320000A3BB0200000512940000000000000                                                                          BUSCAPINA SIMPLE Iny 20 mgAMP     1
CC0000072302902U202100000555202300000555202331/10/20211121     3300004239421964320000A03A0800001177800000000000000                                                                      COLYPAN SLN INY 50 MG/5 ML /R/AMP     1
CC0000072302902U202100000555202300000555202331/10/20212058    31902336239421964320000E1AD0300000199490000000000000                                         LACTATO RINGER USP (HARTMANN)  SOL INY  BOL X 1000ML BAXTERBIN     1
CC0000072302902U202100000555202300000555202331/10/20211449    31500394239421964320000E1AD0300000199490000000000000                                         LACTATO RINGER USP (HARTMANN)  SOL INY  BOL X 1000ML BAXTERBIN     1
CC0000072302902U202100000555202300000555202331/10/20211238    31901003239421964320000E1AD0300000199490000000000000                                         LACTATO RINGER USP (HARTMANN)  SOL INY  BOL X 1000ML BAXTERBIN     1
CC0000072302902U202100000555202300000555202331/10/20211821     3300004239421964320000J1CB1800001134180000000000000                                                                             TAZOCIN Polvo Iny 4.5 gVAL     1
CC0000072302902U202100000555202300000555202331/10/20212107     3300004239421964320000J3CA0200001208130000000000000                                                                      FLAGYL SLN INY 500 MG X 100 MLBOL     1
CC0000072302902U202100000555202300000555202331/10/20211326     3300004239421964320000M1AB0900001019600000000000000                                                                              VOLTAREN Sln Iny 75 mgAMP     1
CC0000072302902U202100000555202300000555202331/10/20211325     3300004239421964320000N2BB1100000217160000000000000                                                                      NOVALGINA Sln Iny 2.5 g x 5 mlAMP     1
CC0000072302902U202100000555202300000555202331/10/20212107     3300004239421964320000A3BB0300000512950000000000000                                                             BUSCAPINA COMP Sln Iny 20 mg+2.5 g/5 mlAMP     1
