CC0001045742577H202100000555189800000555189831/10/20211814     3300009237421964250000B3BB0200001315040000000000000                                                                               ACIDO FOLICO Tab 5 mgTAB     1
CC0001045742577H202100000555189800000555189831/10/20210346     3300009237421964250000B3BB0200001315040000000000000                                                                               ACIDO FOLICO Tab 5 mgTAB     1
CC0001045742577H202100000555189800000555189831/10/20210754     3300009237421964250000C2DE1400001277050000000000000                                                                         NIFEDIPINO CAPSULA LM 30 MGCAP     1
CC0001045742577H202100000555189800000555189831/10/20210346     3300009237421964250000C2DE1400001277050000000000000                                                                         NIFEDIPINO CAPSULA LM 30 MGCAP     5
CC0001045742577H202100000555189800000555189831/10/20212313     3300009237421964250000H02A0900001277440000000000000                                                                                PREDNISONA TAB 50 MGTAB     2
CC0001045742577H202100000555189800000555189831/10/20212313     3300009237421964250000A02B0800001276960000000000000                                                                                 OMEPRAZOL CAP 20 MGCAP     2
CC0001045742577H202100000555189800000555189831/10/20210346     3300009237421964250000A03BB100003889180000000000000                                      HIOSCINA BUTIL BROMURO 20MG/ML SOL INY CAJ X 100AMP X 1ML RYANAMP     4
CC0001045742577H202100000555189800000555189831/10/20210754     3300009237421964250000C09CA700001315590000000000000                                                                                 LOSARTAN TAB 100 MGTAB     1
CC0001045742577H202100000555189800000555189831/10/20210346     3300009237421964250000C09CA700001315590000000000000                                                                                 LOSARTAN TAB 100 MGTAB     2
CC0001045742577H202100000555189800000555189831/10/20212314     3300009237421964250000L04AX100001333070000000000000                                                                               AZATIOPRINA TAB 50 MGTAB     3
CC0001045742577H202100000555189800000555189831/10/20210346     3300009237421964250000N2AX0900001672040000000000000                                                                              TRAMADOL SLN INY 50 MGAMP     4
CC0001045742577H202100000555189800000555189831/10/20211108    31903301237421964250000V07A1300000502600000000000000                                                                                AGUA ESTERIL x 10 mlAMP     4
