RC0001187466818H202100015122513000015122513031/10/20211236    3150034323742196425000038575000000259910000000000000                                                                                TUBO PARA TORAX # 12SIN     1
RC0001187466818H202100015122513000015122513031/10/20211236    3150034323742196425000018354100000232880000000000000                                                                  SUTURA SEDA NEGRA 3-0 KS 75CM 622HSIN     1
RC0001043714288H202100015122513000015122513031/10/20211236    3150034323742196425000011082700001620070000000000000                                                               EQUIPO SET PRIMARIO C/CLAVE REF 14001BOL     2
RC0001043714288H202100015122513000015122513031/10/20211236    31500343237421964250000E1BA0100000198890000000000000                                                                   AGUA ESTERIL USP SLN INY X 500 MLBIN     1
