CC0001143227023H202100000555185800000555185831/10/20210818     3300009237421964250000B1AB0200003939510000000000000                 ENOXAPARINA SODICA 40MG/0.4ML(100MG/ML) SOL INY INST CAJ X 2JERPREL X 0.4ML TECHDOWJRP     1
CC0001143227023H202100000555185800000555185831/10/20210932    31500502237421964250000E1AD0200003888320000000000000                                                                              HARTMAN SLN INY 500 MLBOL     1
CC0001143227023H202100000555185800000555185831/10/20210818     3300009237421964250000N2BB0100000787510000000000000                                                                    DIPIRONA SODICA Sln Iny 1 g/2 mlAMP     1
CC0001143227023H202100000555185800000555185831/10/20210119     3300009237421964250000N2BB0100000787510000000000000                                                                    DIPIRONA SODICA Sln Iny 1 g/2 mlAMP     1
CC0001143227023H202100000555185800000555185831/10/20212323     3300009237421964250000N03AB200001168090000000000000                                                                       FENITOINA Sln Iny 250 mg/5 mlAMP     1
CC0001143227023H202100000555185800000555185831/10/20211815     3300009237421964250000N03AB200001168090000000000000                                                                       FENITOINA Sln Iny 250 mg/5 mlAMP     1
CC0001143227023H202100000555185800000555185831/10/20210818     3300009237421964250000N03AB200001168090000000000000                                                                       FENITOINA Sln Iny 250 mg/5 mlAMP     1
CC0001143227023H202100000555185800000555185831/10/20211815     3300009237421964250000N05A1300000614370000000000000                                                                       HALOPERIDOL SLN INY 5 MG / MLAMP     1
CC0001143227023H202100000555185800000555185831/10/20210818     3300009237421964250000N05A1300000614370000000000000                                                                       HALOPERIDOL SLN INY 5 MG / MLAMP     1
CC0001143227023H202100000555185800000555185831/10/20212324     3300009237421964250000N05A1700001278300000000000000                                                                            QUETIAPINA TAB 25 MG /R/TAB     2
CC0001143227023H202100000555185800000555185831/10/20210818     3300009237421964250000A02BC700001684270000000000000                                                            OMEPRAZOL 40MG POLVO LIOFILIZADO AMPOLLAVAL     1
CC0001143227023H202100000555185800000555185831/10/20211105    31903301237421964250000V07A1300000502600000000000000                                                                                AGUA ESTERIL x 10 mlAMP     4
