CC0000003893524H202100000555189100000555189131/10/20211440     3300009237421964250000A2BX0100001277280000000000000                                                                                ALSUCRAL TAB 1 G /R/TAB     2
CC0000003893524H202100000555189100000555189131/10/20210728     3300009237421964250000B1AB0200003939510000000000000                 ENOXAPARINA SODICA 40MG/0.4ML(100MG/ML) SOL INY INST CAJ X 2JERPREL X 0.4ML TECHDOWJRP     1
CC0000003893524H202100000555189100000555189131/10/20210728     3300009237421964250000A2BC0700001335700000000000000                                                                                 OMEPRAZOL CAP 40 MGCAP     1
CC0000003893524H202100000555189100000555189131/10/20211440     3300009237421964250000C02C0100001316210000000000000                                                                                     PRATEN TAB 1 MGTAB     1
CC0000003893524H202100000555189100000555189131/10/20210728     3300009237421964250000C02C0100001316210000000000000                                                                                     PRATEN TAB 1 MGTAB     2
CC0000003893524H202100000555189100000555189131/10/20211440     3300009237421964250000C03C0100001672000000000000000                                                                       FUROSEMIDA SLN INY 20 MG/2 MLAMP     1
CC0000003893524H202100000555189100000555189131/10/20210728     3300009237421964250000C03C0100001672000000000000000                                                                       FUROSEMIDA SLN INY 20 MG/2 MLAMP     2
CC0000003893524H202100000555189100000555189131/10/20210727     3300009237421964250000C08CA300001313930000000000000                                                                                AMLODIPINO TAB 10 MGTAB     1
CC0000003893524H202100000555189100000555189131/10/20211440     3300009237421964250000N2BE2200001252930000000000000                                                                             ACETAMINOFEN Tab 500 MGTAB     2
CC0000003893524H202100000555189100000555189131/10/20211451    31903254237421964250000V07A1300000502600000000000000                                                                                AGUA ESTERIL x 10 mlAMP     4
