CC0000022669158H202100000555191900000555191931/10/20210605     3300009237421964250000A02B0700001277010000000000000                                                                                NEXIUM Tab 20 mg /R/TAB     1
CC0000022669158H202100000555191900000555191931/10/20210605     3300009237421964250000B1AB0200003939510000000000000                 ENOXAPARINA SODICA 40MG/0.4ML(100MG/ML) SOL INY INST CAJ X 2JERPREL X 0.4ML TECHDOWJRP     1
CC0000022669158H202100000555191900000555191931/10/20210605     3300009237421964250000C3CA0200000195520000000000000                                                                           LASIX SLN INY 20 MG/ 2 MLAMP     2
CC0000022669158H202100000555191900000555191931/10/20210605     3300009237421964250000H03A0400001278890000000000000                                                                                  EUTIROX TAB 50 MCGTAB     1
CC0000022669158H202100000555191900000555191931/10/20212011     3300009237421964250000N02B1100001169680000000000000                              PARACETAMOL 1000MG/100ML(10MG/ML) SOL INY  VIAL X 100ML FRESENIUS KABIVAL     1
CC0000022669158H202100000555191900000555191931/10/20211145    31900933237421964250000V07A1300000502600000000000000                                                                                AGUA ESTERIL x 10 mlAMP     5
