CC0000007469257H202100000555201800000555201831/10/20211058    31901150237421964250000B1AB1200003939350000000000000                 ENOXAPARINA SODICA 80MG/0.8ML(100MG/ML) SOL INY INST CAJ X 2JERPREL X 0.8ML TECHDOWJRP     1
CC0000007469257H202100000555201800000555201831/10/20211058    31901150237421964250000C09CA400001277130000000000000                                                                                  LOSARTAN TAB 50 MGTAB     2
CC0000007469257H202100000555201800000555201831/10/20211058    31901150237421964250000A02B0800001276960000000000000                                                                                 OMEPRAZOL CAP 20 MGCAP     1
CC0000007469257H202100000555201800000555201831/10/20211058    31901150237421964250000C01BD200001332790000000000000                                                                               AMIODARONA TAB 200 MGTAB     2
CC0000007469257H202100000555201800000555201831/10/20211058    31901150237421964250000C03C0100001672000000000000000                                                                       FUROSEMIDA SLN INY 20 MG/2 MLAMP     1
CC0000007469257H202100000555201800000555201831/10/20211058    31901150237421964250000C08CA300001313930000000000000                                                                                AMLODIPINO TAB 10 MGTAB     1
CC0000007469257H202100000555201800000555201831/10/20211058    31901150237421964250000N2BE2200001252930000000000000                                                                             ACETAMINOFEN Tab 500 MGTAB     8
