NV0000169306826H202100915785103100915785103131/10/20210809    3190311723742196425000011137100001419310000000000000                                                               TIRA GLUCOMETRIA FREESTYLE H OPTIUM .PZA     1
NV0000169306826H202100915785103100915785103131/10/20210809    3190311723742196425000024674000000220660000000000000                             JERINGA A 3 PARTES CON AGUJA  SOB X 1 RYMCO  10ML BN EXENTO-DC.417/2020SIN     4
NV0000169306826H202100915785103100915785103131/10/20210809    3190311723742196425000035356500003919000000000000000                                                                                        LLAVE 3 VIASSOB     2
NV0000169306826H202100915785103100915785103131/10/20210809    3190311723742196425000045136100001419300000000000000                                                                            LANCETA DEXTROMETER X UNPZA     1
NV0000169306826H202100915785103100915785103131/10/20210809    31903117237421964250000E1AA1400003888550000000000000                                                                         DEXTROSA 10% SLN INY 250 MLBOL     1
NV0000169306826H202100915785103100915785103131/10/20211803    3190145223742196425000011137100001419310000000000000                                                               TIRA GLUCOMETRIA FREESTYLE H OPTIUM .PZA     1
NV0000169306826H202100915785103100915785103131/10/20211803    3190145223742196425000024674000000220660000000000000                             JERINGA A 3 PARTES CON AGUJA  SOB X 1 RYMCO  10ML BN EXENTO-DC.417/2020SIN     4
NV0000169306826H202100915785103100915785103131/10/20211803    3190145223742196425000035356500003919000000000000000                                                                                        LLAVE 3 VIASSOB     2
NV0000169306826H202100915785103100915785103131/10/20211803    3190145223742196425000045136100001419300000000000000                                                                            LANCETA DEXTROMETER X UNPZA     1
