CC0000012576309H202100916174103100916174103131/10/20210208    3190294923742196425000011047900000223010000000000000                                                                            JERINGA X 1ML REF 302579SIN     5
CC0000012576309H202100916174103100916174103131/10/20210208    3190294923742196425000011085100001082120000000000000                                                                           GUANTE QUIRURGICO TALLA 7SOB     5
CC0000012576309H202100916174103100916174103131/10/20210208    3190294923742196425000020059500000225210000000000000                                                               AGUJA RAQUI SPINOCAN #20 REF. 4509900SIN     2
CC0000012576309H202100916174103100916174103131/10/20210208    3190294923742196425000024672100001609890000000000000                                                            JERINGA INSULINA 1ML TAPA NARANJA JEI013SOB     5
CC0000012576309H202100916174103100916174103131/10/20210208    3190294923742196425000042743200003929860000000000000                   GASA ADHESIVA STRETCH REF 02038-00 ROL X 10MT FIXOMULL 15CM BN EXENTO-DC.417/2020CMT    50
CC0000012576309H202100916174103100916174103131/10/20210644    31902949237421964250000E1AB0300003888390000000000000                                                            SOLUCION SALINA 0.9% SLN INY BO X 500 MLBOL     1
CC0000012576309H202100916174103100916174103131/10/20211710    31500075237421964250000E1AB0300003888390000000000000                                                            SOLUCION SALINA 0.9% SLN INY BO X 500 MLBOL     1
