RC0001043714288H202100914618103100914618103131/10/20210751    31500568237421964250000E1AA1400003888550000000000000                                                                         DEXTROSA 10% SLN INY 250 MLBOL     1
RC0001043714288H202100914618103100914618103131/10/20211504    3150034323742196425000022426800001140510000000000000                                                                    EQUIPO MACROGOTEO BAXTER MRC0001SOB     3
RC0001043714288H202100914618103100914618103131/10/20211504    31500343237421964250000E1AD0200003888320000000000000                                                                              HARTMAN SLN INY 500 MLBOL     1
