CC0000072251883U202100000555204700000555204731/10/20211328    31900982239421964320000E1AB0200000199290000000000000                                                            SOLUCION SALINA 0.9% SLN INY BO X 100 MLBIN     1
CC0000072251883U202100000555204700000555204731/10/20211322     3300004239421964320000J7AA0600001602890000000000000                                                            VACUNA ANTITETANICA SUSP INY 40 UI/0.5MLVAL     1
CC0000072251883U202100000555204700000555204731/10/20211321     3300004239421964320000M01A1400001302580000000000000                                                                              ARCOXIA Tab 120 mg /R/TAB     1
CC0000072251883U202100000555204700000555204731/10/20211321     3300004239421964320000N01B0200003888110000000000000                                           ROXICAINA SE 100MG/10ML(1%) SOL INY CAJ X 24AMPACK X 10MLAPC     1
