CC0000022354690H202100000555203100000555203131/10/20211203    31901015237421964250000H03A0900001278900000000000000                                                                                   EUTIROX TB 75 MCGTAB     1
CC0000022354690H202100000555203100000555203131/10/20211203    31901015237421964250000J1CB1800001134180000000000000                                                                             TAZOCIN Polvo Iny 4.5 gVAL     3
CC0000022354690H202100000555203100000555203131/10/20211203    31901015237421964250000N2BB0500000217140000000000000                                                                          NOVALGINA Sln Iny 1 g/2 mlAMP     4
CC0000022354690H202100000555203100000555203131/10/20211203    31901015237421964250000N02B1100001169680000000000000                              PARACETAMOL 1000MG/100ML(10MG/ML) SOL INY  VIAL X 100ML FRESENIUS KABIVAL     4
