CC0000044150179H202100000555185200000555185231/10/20211227    31903288237421964250000E1AD0200003888320000000000000                                                                              HARTMAN SLN INY 500 MLBOL     1
CC0000044150179H202100000555185200000555185231/10/20210116    31902202237421964250000E1AD0300000199490000000000000                                         LACTATO RINGER USP (HARTMANN)  SOL INY  BOL X 1000ML BAXTERBIN     1
CC0000044150179H202100000555185200000555185231/10/20210917     3300009237421964250000J3CA0200001208130000000000000                                                                      FLAGYL SLN INY 500 MG X 100 MLBOL     1
CC0000044150179H202100000555185200000555185231/10/20210132     3300009237421964250000J3CA0200001208130000000000000                                                                      FLAGYL SLN INY 500 MG X 100 MLBOL     1
CC0000044150179H202100000555185200000555185231/10/20210917     3300009237421964250000N02B1100001169680000000000000                              PARACETAMOL 1000MG/100ML(10MG/ML) SOL INY  VIAL X 100ML FRESENIUS KABIVAL     1
CC0000044150179H202100000555185200000555185231/10/20210132     3300009237421964250000N02B1100001169680000000000000                              PARACETAMOL 1000MG/100ML(10MG/ML) SOL INY  VIAL X 100ML FRESENIUS KABIVAL     1
CC0000044150179H202100000555185200000555185231/10/20210917     3300009237421964250000N03A0800001278440000000000000                                                                                LYRICA CAP 75 MG /R/CAP     2
