CC0000072141864U202100050131445700050131445731/10/20210812    3190100323942196432000011048600000223020000000000000                                                                 JERINGA VACUNACION 3ML C/AGU 302542SIN     1
CC0000072141864U202100050131445700050131445731/10/20210812    3190100323942196432000024672100001609890000000000000                                                            JERINGA INSULINA 1ML TAPA NARANJA JEI013SOB     1
CC0000072141864U202100050131445700050131445731/10/20210812    3190100323942196432000011085100001082120000000000000                                                                           GUANTE QUIRURGICO TALLA 7SOB     2
CC0000072141864U202100050131445700050131445731/10/20210812    3190100323942196432000013077800000471960000000000000                                                             GASA NO TEJIDA EST 7.5 X 7.5 SOB X 3 UNSOB     2
CC0000072141864U202100050131445700050131445731/10/20210812    3190100323942196432000042743200003929860000000000000                   GASA ADHESIVA STRETCH REF 02038-00 ROL X 10MT FIXOMULL 15CM BN EXENTO-DC.417/2020CMT    50
CC0000072141864U202100050131445700050131445731/10/20210812    3190100323942196432000020059500000225210000000000000                                                               AGUJA RAQUI SPINOCAN #20 REF. 4509900SIN     2
