TI0001146537318H202100015012573000015012573031/10/20211116    3190327123742196425000042753100003929850000000000000                   GASA ADHESIVA STRETCH REF 02037-00 ROL X 10MT FIXOMULL 10CM BN EXENTO-DC.417/2020CMT    30
TI0001146537318H202100015012573000015012573031/10/20211116    3190327123742196425000001956000001620610000000000000                                                                      CONECTOR MICRO CLAVE LAT-MC100SOB     1
TI0001146537318H202100015012573000015012573031/10/20211116    31903271237421964250000Q1AA7400003911720000000000000                                                            CATETER PERIFE INTROCAN # 24G 4251601-04SOB     2
