RC0001048084426U202100000555183500000555183531/10/20210107     3300004239421964320000A4AD0200000202990000000000000                                                                     PLITICAN HCL Sln Iny 50 mg/2 mlAMP     1
RC0001048084426U202100000555183500000555183531/10/20210304    31901181239421964320000E1AD0300000199490000000000000                                         LACTATO RINGER USP (HARTMANN)  SOL INY  BOL X 1000ML BAXTERBIN     1
RC0001048084426U202100000555183500000555183531/10/20210111     3300004239421964320000N02B1100001169680000000000000                              PARACETAMOL 1000MG/100ML(10MG/ML) SOL INY  VIAL X 100ML FRESENIUS KABIVAL     1
