CC0001143106272H202100015032585100015032585131/10/20210928    3190115623742196425000001956000001620610000000000000                                                                      CONECTOR MICRO CLAVE LAT-MC100SOB     1
TI0001097116528H202100015032585100015032585131/10/20210928    3190115623742196425000001956000001620610000000000000                                                                      CONECTOR MICRO CLAVE LAT-MC100SOB     1
CC0001143106272H202100015032585100015032585131/10/20210928    31901156237421964250000Q1AA7300000610640000000000000                                                            CATETER PERIFE INTROCAN # 22G 4251628-04SIN     1
TI0001097116528H202100015032585100015032585131/10/20210928    31901156237421964250000Q1AA7300000610640000000000000                                                            CATETER PERIFE INTROCAN # 22G 4251628-04SIN     1
CC0001143106272H202100015032585100015032585131/10/20210928    3190115623742196425000000602600001259280000000000000                                                             APOSITO TEGADERM IV PD 1610 5CM X 5.7CMSOB     1
TI0001097116528H202100015032585100015032585131/10/20210928    3190115623742196425000000602600001259280000000000000                                                             APOSITO TEGADERM IV PD 1610 5CM X 5.7CMSOB     1
