CC0000036148059U202100050131446700050131446731/10/20211008    3190101023942196432000045136100001419300000000000000                                                                            LANCETA DEXTROMETER X UNPZA     2
CC0000036148059U202100050131446700050131446731/10/20211008    3190101023942196432000024674000000220660000000000000                             JERINGA A 3 PARTES CON AGUJA  SOB X 1 RYMCO  10ML BN EXENTO-DC.417/2020SIN     1
CC0000032738706U202100050131446700050131446731/10/20211008    3190101023942196432000024674000000220660000000000000                             JERINGA A 3 PARTES CON AGUJA  SOB X 1 RYMCO  10ML BN EXENTO-DC.417/2020SIN     1
CC0000036148059U202100050131446700050131446731/10/20211008    3190101023942196432000011137100001419310000000000000                                                               TIRA GLUCOMETRIA FREESTYLE H OPTIUM .PZA     2
