CC0000044150179H202100000555203700000555203731/10/20211232    31903288237421964250000J3CA0200001208130000000000000                                                                      FLAGYL SLN INY 500 MG X 100 MLBOL     2
CC0000044150179H202100000555203700000555203731/10/20211232    31903288237421964250000N02B1100001169680000000000000                              PARACETAMOL 1000MG/100ML(10MG/ML) SOL INY  VIAL X 100ML FRESENIUS KABIVAL     2
CC0000044150179H202100000555203700000555203731/10/20211232    31903288237421964250000N03A0800001278440000000000000                                                                                LYRICA CAP 75 MG /R/CAP     2
