CC0000038603284U202100000555210900000555210931/10/20211924     3300004239421964320000A03F0300001626860000000000000                                                                   METOCLOPRAMIDA SLN INY 10 MG/2 MLAMP     1
CC0000038603284U202100000555210900000555210931/10/20212003    31500355239421964320000E1AD0300000199490000000000000                                         LACTATO RINGER USP (HARTMANN)  SOL INY  BOL X 1000ML BAXTERBIN     2
CC0000038603284U202100000555210900000555210931/10/20211924     3300004239421964320000A03DH100001684240000000000000                                                            B HIOSCINA 20MG/DIPIRON 2.5G SLN INY 5MLAMP     1
CC0000038603284U202100000555210900000555210931/10/20212118     3300004239421964320000N2AX0900001672040000000000000                                                                              TRAMADOL SLN INY 50 MGAMP     1
CC0000038603284U202100000555210900000555210931/10/20211924     3300004239421964320000A02BC700001684270000000000000                                                            OMEPRAZOL 40MG POLVO LIOFILIZADO AMPOLLAVAL     1
