PA00000A4369555U202100000555210000000555210031/10/20211942     3300004239421964320000A03F0300001626860000000000000                                                                   METOCLOPRAMIDA SLN INY 10 MG/2 MLAMP     1
PA00000A4369555U202100000555210000000555210031/10/20211837    31500394239421964320000E1AB0200000199290000000000000                                                            SOLUCION SALINA 0.9% SLN INY BO X 100 MLBIN     1
PA00000A4369555U202100000555210000000555210031/10/20211746     3300004239421964320000H02AB500001664950000000000000                                                            DEXAMETASONA SLN INY 8 MG/2 ML AMP /CDS/AMP     1
PA00000A4369555U202100000555210000000555210031/10/20211746     3300004239421964320000N02C0200001358240000000000000                                                                               IMIGRAN FDT Tab 50 mgTAB     1
PA00000A4369555U202100000555210000000555210031/10/20211942     3300004239421964320000N02C0400001567430000000000000                                                                            FENCAFEN Tab 100 mg/1 mgTAB     1
PA00000A4369555U202100000555210000000555210031/10/20211746     3300004239421964320000N02B1100001169680000000000000                              PARACETAMOL 1000MG/100ML(10MG/ML) SOL INY  VIAL X 100ML FRESENIUS KABIVAL     1
