RC0001158467183H202100015052710200015052710231/10/20211926    3190264423742196425000038572600000256930000000000000                                                                                 SONDA NSG LEVIN #08SIN     1
RC0001158467183H202100015052710200015052710231/10/20211926    3190264423742196425000038572700000256840000000000000                                                                                 SONDA NSG LEVIN #10SIN     1
RC0001046723141H202100015052710200015052710231/10/20211926    3190264423742196425000043485100001618510000000000000                GUANTE QUIRURGICO DE LATEX REF 2D72N65X CAJ X 50 PROTEXIS  6.5 BN EXENTO-DC.417/2020SOB     1
CC0000022458394H202100015052710200015052710231/10/20211926    3190264423742196425000013077800000471960000000000000                                                             GASA NO TEJIDA EST 7.5 X 7.5 SOB X 3 UNSOB     5
RC0001046723141H202100015052710200015052710231/10/20211926    3190264423742196425000013077800000471960000000000000                                                             GASA NO TEJIDA EST 7.5 X 7.5 SOB X 3 UNSOB     6
CC0000017138066H202100015052710200015052710231/10/20211926    3190264423742196425000013077800000471960000000000000                                                             GASA NO TEJIDA EST 7.5 X 7.5 SOB X 3 UNSOB     5
CC0001002182810H202100015052710200015052710231/10/20211926    3190264423742196425000013077800000471960000000000000                                                             GASA NO TEJIDA EST 7.5 X 7.5 SOB X 3 UNSOB     5
CC0000022458394H202100015052710200015052710231/10/20211926    3190264423742196425000042753100003929850000000000000                   GASA ADHESIVA STRETCH REF 02037-00 ROL X 10MT FIXOMULL 10CM BN EXENTO-DC.417/2020CMT    30
RC0001046723141H202100015052710200015052710231/10/20211926    3190264423742196425000042753100003929850000000000000                   GASA ADHESIVA STRETCH REF 02037-00 ROL X 10MT FIXOMULL 10CM BN EXENTO-DC.417/2020CMT    60
CC0001143227023H202100015052710200015052710231/10/20211926    3190264423742196425000042753100003929850000000000000                   GASA ADHESIVA STRETCH REF 02037-00 ROL X 10MT FIXOMULL 10CM BN EXENTO-DC.417/2020CMT    30
CC0000017138066H202100015052710200015052710231/10/20211926    3190264423742196425000042753100003929850000000000000                   GASA ADHESIVA STRETCH REF 02037-00 ROL X 10MT FIXOMULL 10CM BN EXENTO-DC.417/2020CMT    30
RC0001046723141H202100015052710200015052710231/10/20211926    3190264423742196425000021593100001571610000000000000                                                                    AQUACEL AG+ EXTRA 10*10CM 413567SOB     1
