RC0001048088138H202100015032586400015032586431/10/20212330    3150038523742196425000001956000001620610000000000000                                                                      CONECTOR MICRO CLAVE LAT-MC100SOB     1
CC0001044430826H202100015032586400015032586431/10/20212330    3150038523742196425000001956000001620610000000000000                                                                      CONECTOR MICRO CLAVE LAT-MC100SOB     1
CC0001044430826H202100015032586400015032586431/10/20212330    31500385237421964250000Q1AA7200000610630000000000000                                                            CATETER PERIFE INTROCAN # 20G 4251644-04SIN     1
CC0001044430826H202100015032586400015032586431/10/20212330    3150038523742196425000016830000000970620000000000000                                                             SIST FIJACION CAT PERIFERICO 6.5X7 1683SOB     1
