RC0001048091446H202100015012572700015012572731/10/20210844    3190327123742196425000013077800000471960000000000000                                                             GASA NO TEJIDA EST 7.5 X 7.5 SOB X 3 UNSOB     5
RC0001048091446H202100015012572700015012572731/10/20210844    3190327123742196425000001956000001620610000000000000                                                                      CONECTOR MICRO CLAVE LAT-MC100SOB     1
RC0001048091446H202100015012572700015012572731/10/20210844    3190327123742196425000000602600001259280000000000000                                                             APOSITO TEGADERM IV PD 1610 5CM X 5.7CMSOB     1
RC0001048091446H202100015012572700015012572731/10/20210844    3190327123742196425000016830000000970620000000000000                                                             SIST FIJACION CAT PERIFERICO 6.5X7 1683SOB     1
