RC0001048091952H202100015132504700015132504731/10/20210720    3190229623742196425000030161400001459220000000000000                                                                       MANGUERA SUCCION 6 MM*3.1 MTSSOB     1
RC0001048091952H202100015132504700015132504731/10/20210720    3190229623742196425000019819800000259860000000000000                                                                           SONDA TRACH CARE 8F 198-5SIN     1
RC0001048091952H202100015132504700015132504731/10/20210720    31902296237421964250000Q1AA1000000256790000000000000                                                                         SONDA ASPIRACION CONTROL #8SIN     5
RC0001048091952H202100015132504700015132504731/10/20210720    3190229623742196425000024674000000220660000000000000                             JERINGA A 3 PARTES CON AGUJA  SOB X 1 RYMCO  10ML BN EXENTO-DC.417/2020SIN     1
RC0001048091952H202100015132504700015132504731/10/20210720    3190229623742196425000025830800001081100000000000000                                                            CIRCUITO VENTILACIÓN NEONATO MVC1774/171BOL     1
RC0001048091952H202100015132504700015132504731/10/20210720    3190229623742196425000020816000001096410000000000000                                                                          LINER PARED DELGADA 1500CCBOL     1
RC0001048091952H202100015132504700015132504731/10/20210720    31902296237421964250000E1BA0100000198890000000000000                                                                   AGUA ESTERIL USP SLN INY X 500 MLBIN     1
RC0001048091952H202100015132504700015132504731/10/20210720    31902296237421964250000E1AB0200000199290000000000000                                                            SOLUCION SALINA 0.9% SLN INY BO X 100 MLBIN     1
