CC0000003893524H202100000555202700000555202731/10/20211142    31901826237421964250000B1AB0200003939510000000000000                 ENOXAPARINA SODICA 40MG/0.4ML(100MG/ML) SOL INY INST CAJ X 2JERPREL X 0.4ML TECHDOWJRP     1
CC0000003893524H202100000555202700000555202731/10/20211142    31901826237421964250000A2BC0700001335700000000000000                                                                                 OMEPRAZOL CAP 40 MGCAP     1
CC0000003893524H202100000555202700000555202731/10/20211904    31901826237421964250000C03C0100001672000000000000000                                                                       FUROSEMIDA SLN INY 20 MG/2 MLAMP     1
