TI0001043153192H202100015052709800015052709831/10/20211300    3190330323742196425000045136100001419300000000000000                                                                            LANCETA DEXTROMETER X UNPZA     3
RC0001043711220H202100015052709800015052709831/10/20211300    3190330323742196425000022426800001140510000000000000                                                                    EQUIPO MACROGOTEO BAXTER MRC0001SOB     1
RC0001221987309H202100015052709800015052709831/10/20211300    3190330323742196425000022426800001140510000000000000                                                                    EQUIPO MACROGOTEO BAXTER MRC0001SOB     1
RC0001043711220H202100015052709800015052709831/10/20211300    3190330323742196425000011082700001620070000000000000                                                               EQUIPO SET PRIMARIO C/CLAVE REF 14001BOL     1
RC0001221987309H202100015052709800015052709831/10/20211300    3190330323742196425000011082700001620070000000000000                                                               EQUIPO SET PRIMARIO C/CLAVE REF 14001BOL     1
RC0001043711220H202100015052709800015052709831/10/20211300    3190330323742196425000030936900001431840000000000000                                                                                              BURETABOL     1
RC0001221987309H202100015052709800015052709831/10/20211300    3190330323742196425000030936900001431840000000000000                                                                                              BURETABOL     1
TI0001044615199H202100015052709800015052709831/10/20211300    31903303237421964250000E1AD0300000199490000000000000                                         LACTATO RINGER USP (HARTMANN)  SOL INY  BOL X 1000ML BAXTERBIN     2
TI0001043153192H202100015052709800015052709831/10/20211300    3190330323742196425000011137100001419310000000000000                                                               TIRA GLUCOMETRIA FREESTYLE H OPTIUM .PZA     3
