CC0000008565480H202100015012572800015012572831/10/20211025    3190101523742196425000011047900000223010000000000000                                                                            JERINGA X 1ML REF 302579SIN     6
CC0000019308734H202100015012572800015012572831/10/20211025    3190101523742196425000011047900000223010000000000000                                                                            JERINGA X 1ML REF 302579SIN     6
CC0000012576309H202100015012572800015012572831/10/20211025    3190101523742196425000011047900000223010000000000000                                                                            JERINGA X 1ML REF 302579SIN     4
