CC0000032675307H202100015052708900015052708931/10/20210627    3190315623742196425000011082700001620070000000000000                                                               EQUIPO SET PRIMARIO C/CLAVE REF 14001BOL     1
CC0001045739587H202100015052708900015052708931/10/20210627    3190315623742196425000011082700001620070000000000000                                                               EQUIPO SET PRIMARIO C/CLAVE REF 14001BOL     1
CC0001129508481H202100015052708900015052708931/10/20210627    3190315623742196425000030936900001431840000000000000                                                                                              BURETABOL     1
CC0001045739587H202100015052708900015052708931/10/20210627    3190315623742196425000030936900001431840000000000000                                                                                              BURETABOL     1
CC0001129508481H202100015052708900015052708931/10/20210627    3190315623742196425000011127400001413910000000000000                                                            EQUIPO ADMINIST NUTR PUNZON REF 674669 BBOL     1
