CC0000022669158U202100050131444400050131444431/10/20210400    3190118123942196432000024674000000220660000000000000                             JERINGA A 3 PARTES CON AGUJA  SOB X 1 RYMCO  10ML BN EXENTO-DC.417/2020SIN     2
CC0000022669158U202100050131444400050131444431/10/20210400    3190118123942196432000011082700001620070000000000000                                                               EQUIPO SET PRIMARIO C/CLAVE REF 14001BOL     1
CC0000022669158U202100050131444400050131444431/10/20210400    31901181239421964320000Q1A13600000223200000000000000                                                                    AGUJA HIPODERMICA DESECH 21G X 1SIN     1
CC0000022669158U202100050131444400050131444431/10/20210400    31901181239421964320000E1AB1100003888280000000000000                                                                        SOLUCION SALINA 0.9% X 50 mlBOL     2
