RC0001046729891H202100015042510600015042510631/10/20211502    31902941237421964250000Q0000200000473250000000000000                                                                             INHALOCAMARA PEDIATRICACIN     1
RC0001046729891H202100015042510600015042510631/10/20211502    3190294123742196425000043995200000229010000000000000                                                               HUMIDIFICADOR PARA OXIGENO REF. H001BBOL     1
RC0001046729891H202100015042510600015042510631/10/20211502    31902941237421964250000Q1A11800000258040000000000000                                                                         CANULA OXIGENO NASAL PEDIATSIN     1
