CC0000022467890H202100015112659100015112659131/10/20212051    3190235723742196425000047373400000228840000000000000                                                                             PINZA COLOSTOMIA 175635PZA     2
CC0000022467890H202100015112659100015112659131/10/20212051    3190235723742196425000040515800000228670000000000000                                                                        BOLSA COLOSTOMIA CONVATEC 70PZA     1
CC0000022467890H202100015112659100015112659131/10/20212051    3190235723742196425000040516100000228660000000000000                                                                 BOLSA COLOSTOMIA CONVATEC 57 402534PZA     1
CC0000022467890H202100015112659100015112659131/10/20212051    3190235723742196425000040514100000228740000000000000                                                               BARRERA COLOSTOMIA CONVATEC 57 125145PZA     1
CC0000022467890H202100015112659100015112659131/10/20212051    3190235723742196425000040514400000228730000000000000                                                               BARRERA COLOSTOMIA CONVATEC 70 400949PZA     1
