RC0001046735365U202100050131446500050131446531/10/20210955    3150029223942196432000011048600000223020000000000000                                                                 JERINGA VACUNACION 3ML C/AGU 302542SIN     1
TI0001046711362U202100050131446500050131446531/10/20210955    3150029223942196432000012460100001656630000000000000                                                                ESPECULO OTOSCOPIO REF 52432  2.75MMPZA     1
RC0001046735365U202100050131446500050131446531/10/20210955    31500292239421964320000Q1AA7400003911720000000000000                                                            CATETER PERIFE INTROCAN # 24G 4251601-04SOB     2
RC0001046735365U202100050131446500050131446531/10/20210955    3150029223942196432000000602600001259280000000000000                                                             APOSITO TEGADERM IV PD 1610 5CM X 5.7CMSOB     1
RC0001046735365U202100050131446500050131446531/10/20210955    31500292239421964320000E1AB0200000199290000000000000                                                            SOLUCION SALINA 0.9% SLN INY BO X 100 MLBIN     1
