CC0001044430826H202100000555182000000555182031/10/20211301     3300009237421964250000A02B0800001276960000000000000                                                                                 OMEPRAZOL CAP 20 MGCAP     2
CC0001044430826H202100000555182000000555182031/10/20212329     3300009237421964250000A03BB100003889180000000000000                                      HIOSCINA BUTIL BROMURO 20MG/ML SOL INY CAJ X 100AMP X 1ML RYANAMP     1
CC0001044430826H202100000555182000000555182031/10/20210607     3300009237421964250000A03BB100003889180000000000000                                      HIOSCINA BUTIL BROMURO 20MG/ML SOL INY CAJ X 100AMP X 1ML RYANAMP     1
CC0001044430826H202100000555182000000555182031/10/20210024     3300009237421964250000A03BB100003889180000000000000                                      HIOSCINA BUTIL BROMURO 20MG/ML SOL INY CAJ X 100AMP X 1ML RYANAMP     4
CC0001044430826H202100000555182000000555182031/10/20211301     3300009237421964250000B01AB200000513350000000000000                                                                        CLENOX SLN INY 40 MG/ 0.4 MLJRP     2
CC0001044430826H202100000555182000000555182031/10/20212329     3300009237421964250000J01DD500001239970000000000000                                                                  CEFTRIAXONA POLVO LIOF SLN INY 1 GVAL     2
CC0001044430826H202100000555182000000555182031/10/20210024     3300009237421964250000J01DD500001239970000000000000                                                                  CEFTRIAXONA POLVO LIOF SLN INY 1 GVAL     2
CC0001044430826H202100000555182000000555182031/10/20212329     3300009237421964250000N2BE2200001252930000000000000                                                                             ACETAMINOFEN Tab 500 MGTAB     2
CC0001044430826H202100000555182000000555182031/10/20210024     3300009237421964250000N2BE2200001252930000000000000                                                                             ACETAMINOFEN Tab 500 MGTAB    12
CC0001044430826H202100000555182000000555182031/10/20211140    31900933237421964250000V07A1300000502600000000000000                                                                                AGUA ESTERIL x 10 mlAMP     5
