CC0001143120182H202100000555190100000555190131/10/20211011     3300009237421964250000A07A0400001270530000000000000                                                            HONGISTINA SUSP ORA 100000 UI/ML X 60 MLFCO     1
CC0001143120182H202100000555190100000555190131/10/20211014     3300009237421964250000B1AB0200003939510000000000000                 ENOXAPARINA SODICA 40MG/0.4ML(100MG/ML) SOL INY INST CAJ X 2JERPREL X 0.4ML TECHDOWJRP     1
CC0001143120182H202100000555190100000555190131/10/20210736    31903110237421964250000E1AB0200000199290000000000000                                                            SOLUCION SALINA 0.9% SLN INY BO X 100 MLBIN     3
CC0001143120182H202100000555190100000555190131/10/20211014     3300009237421964250000C7AB1000001382030000000000000                                                                   NOREPINEFRINA SLN INY 4 MG / 4 MLAMP     8
CC0001143120182H202100000555190100000555190131/10/20211514     3300009237421964250000J01EE200001192730000000000000                                                               BACTRIM F SUSP 400/80 MG/5ML X 100 MLFCO    19
CC0001143120182H202100000555190100000555190131/10/20211011     3300009237421964250000J01XA400001212420000000000000                                                               VANCOMICINA POLVO LIOF SLN INY 500 MGVAL     2
CC0001143120182H202100000555190100000555190131/10/20211011     3300009237421964250000V6DF5300000302770000000000000                                                                        ENSURE PLUS HN LCP X 1000 MLFCO     1
CC0001143120182H202100000555190100000555190131/10/20211404     3300009237421964250000N1AH0200003906560000000000000                                                                     FENTANIL Iny 0.05 mg/ml x 10 mlAMP    10
CC0001143120182H202100000555190100000555190131/10/20211404     3300009237421964250000N5CD0300000218170000000000000                                                                          DORMICUM Sln Iny 5 mg/5 mlAMP    40
CC0001143120182H202100000555190100000555190131/10/20211011     3300009237421964250000J01DH400001317770000000000000                                                                MEROPENEM POLVO LIOF SLN INY 1 G /R/CAJ     4
CC0001143120182H202100000555190100000555190131/10/20211011     3300009237421964250000J02AC100000553180000000000000                                                                   FLUCONAZOL SLN INY 200 MG/ 100 MLFCO     2
CC0001143120182H202100000555190100000555190131/10/20211011     3300009237421964250000J02AA100000834240000000000000                                                              AMFOTERICINA B POLVO LIOFI AMP X 50 MGAMP     1
CC0001143120182H202100000555190100000555190131/10/20211249     3300009237421964250000M03A0900001467590000000000000                                                                        ROCURONIO SLN INY 50 MG/5 MLVAL     1
CC0001143120182H202100000555190100000555190131/10/20211015     3300009237421964250000N2BB0100000787510000000000000                                                                    DIPIRONA SODICA Sln Iny 1 g/2 mlAMP     4
CC0001143120182H202100000555190100000555190131/10/20210355     3300009237421964250000N2BB0100000787510000000000000                                                                    DIPIRONA SODICA Sln Iny 1 g/2 mlAMP     1
CC0001143120182H202100000555190100000555190131/10/20211015     3300009237421964250000A02BC700001684270000000000000                                                            OMEPRAZOL 40MG POLVO LIOFILIZADO AMPOLLAVAL     1
