CC0000017138066H202100015052709300015052709331/10/20210853    3150050223742196425000030936900001431840000000000000                                                                                              BURETABOL     1
CC0000036592610H202100015052709300015052709331/10/20210853    31500502237421964250000E1AD0300000199490000000000000                                         LACTATO RINGER USP (HARTMANN)  SOL INY  BOL X 1000ML BAXTERBIN     1
CC0000057445026H202100015052709300015052709331/10/20210853    31500502237421964250000E1AD0300000199490000000000000                                         LACTATO RINGER USP (HARTMANN)  SOL INY  BOL X 1000ML BAXTERBIN     1
TI0001073826213H202100015052709300015052709331/10/20210853    31500502237421964250000E1AD0300000199490000000000000                                         LACTATO RINGER USP (HARTMANN)  SOL INY  BOL X 1000ML BAXTERBIN     1
CC0000017138066H202100015052709300015052709331/10/20210853    31500502237421964250000E1AD0300000199490000000000000                                         LACTATO RINGER USP (HARTMANN)  SOL INY  BOL X 1000ML BAXTERBIN     1
CC0001143227023H202100015052709300015052709331/10/20210853    31500502237421964250000E1AD0200003888320000000000000                                                                              HARTMAN SLN INY 500 MLBOL     1
CC0000022543387H202100015052709300015052709331/10/20210853    31500502237421964250000E1AB0300003888390000000000000                                                            SOLUCION SALINA 0.9% SLN INY BO X 500 MLBOL     1
