CC0000022399506U202100000555207400000555207431/10/20211611    31500394239421964320000E1AB1100003888280000000000000                                                                        SOLUCION SALINA 0.9% X 50 mlBOL     1
CC0000022399506U202100000555207400000555207431/10/20212154    31500263239421964320000E1AD0300000199490000000000000                                         LACTATO RINGER USP (HARTMANN)  SOL INY  BOL X 1000ML BAXTERBIN     1
CC0000022399506U202100000555207400000555207431/10/20212147     3300004239421964320000N02B1100001169680000000000000                              PARACETAMOL 1000MG/100ML(10MG/ML) SOL INY  VIAL X 100ML FRESENIUS KABIVAL     1
CC0000022399506U202100000555207400000555207431/10/20211515     3300004239421964320000N02B1100001169680000000000000                              PARACETAMOL 1000MG/100ML(10MG/ML) SOL INY  VIAL X 100ML FRESENIUS KABIVAL     1
CC0000022399506U202100000555207400000555207431/10/20211515     3300004239421964320000N2AA0100000301640000000000000                                                                            MORFINA Sln Iny 10 mg/mlAMP     1
