RC0001048091909H202100913284103100913284103131/10/20210809    3190311723742196425000011137100001419310000000000000                                                               TIRA GLUCOMETRIA FREESTYLE H OPTIUM .PZA     1
RC0001048091909H202100913284103100913284103131/10/20210809    3190311723742196425000013077800000471960000000000000                                                             GASA NO TEJIDA EST 7.5 X 7.5 SOB X 3 UNSOB     2
RC0001048091909H202100913284103100913284103131/10/20210809    3190311723742196425000024674000000220660000000000000                             JERINGA A 3 PARTES CON AGUJA  SOB X 1 RYMCO  10ML BN EXENTO-DC.417/2020SIN     4
RC0001048091909H202100913284103100913284103131/10/20210809    3190311723742196425000035356500003919000000000000000                                                                                        LLAVE 3 VIASSOB     2
RC0001048091909H202100913284103100913284103131/10/20210809    3190311723742196425000045136100001419300000000000000                                                                            LANCETA DEXTROMETER X UNPZA     1
RC0001048091909H202100913284103100913284103131/10/20211803    3190145223742196425000045136100001419300000000000000                                                                            LANCETA DEXTROMETER X UNPZA     1
RC0001048091909H202100913284103100913284103131/10/20211803    3190145223742196425000035356500003919000000000000000                                                                                        LLAVE 3 VIASSOB     2
RC0001048091909H202100913284103100913284103131/10/20211803    3190145223742196425000024674000000220660000000000000                             JERINGA A 3 PARTES CON AGUJA  SOB X 1 RYMCO  10ML BN EXENTO-DC.417/2020SIN     4
RC0001048091909H202100913284103100913284103131/10/20211803    3190145223742196425000013077800000471960000000000000                                                             GASA NO TEJIDA EST 7.5 X 7.5 SOB X 3 UNSOB     2
RC0001048091909H202100913284103100913284103131/10/20211803    3190145223742196425000011137100001419310000000000000                                                               TIRA GLUCOMETRIA FREESTYLE H OPTIUM .PZA     1
