CC0001129533798H202100000555210700000555210731/10/20211842     3300009237421964250000B1AB0100001227270000000000000                                             HEPAMAX 25000UI/5ML(5000UI/ML) SOL INY  CAJ X 25AMPX5MLAMP     1
CC0001129533798H202100000555210700000555210731/10/20212154    31903260237421964250000E1AB0300003888390000000000000                                                            SOLUCION SALINA 0.9% SLN INY BO X 500 MLBOL     1
CC0001129533798H202100000555210700000555210731/10/20211853    31903288237421964250000E1AB0300003888390000000000000                                                            SOLUCION SALINA 0.9% SLN INY BO X 500 MLBOL     1
CC0001129533798H202100000555210700000555210731/10/20211842     3300009237421964250000C02DC100001304000000000000000                                                                                VAXDIL TAB 10 MG /R/TAB     1
CC0001129533798H202100000555210700000555210731/10/20211841     3300009237421964250000C02AC200001559150000000000000                                                                              CLONIDINA TAB 0.150 MGTAB     3
CC0001129533798H202100000555210700000555210731/10/20211842     3300009237421964250000J1KF0500001317760000000000000                                                                      MEROPENEM POLVO INY 500 MG /R/CAJ     1
CC0001129533798H202100000555210700000555210731/10/20211853    31903288237421964250000V07A1300000502600000000000000                                                                                AGUA ESTERIL x 10 mlAMP     4
