CC0000008716890U202100050131454000050131454031/10/20212302    3190101223942196432000038570000001123500000000000000                                                                              SONDA FOLEY #16 2 VIASSOB     1
CC0000008716890U202100050131454000050131454031/10/20212302    3190101223942196432000024674000000220660000000000000                             JERINGA A 3 PARTES CON AGUJA  SOB X 1 RYMCO  10ML BN EXENTO-DC.417/2020SIN     2
CC0000008716890U202100050131454000050131454031/10/20212302    3190101223942196432000011085100001082120000000000000                                                                           GUANTE QUIRURGICO TALLA 7SOB     2
CC0000008716890U202100050131454000050131454031/10/20212302    3190101223942196432000013077800000471960000000000000                                                             GASA NO TEJIDA EST 7.5 X 7.5 SOB X 3 UNSOB     5
CC0000008716890U202100050131454000050131454031/10/20212302    3190101223942196432000011082700001620070000000000000                                                               EQUIPO SET PRIMARIO C/CLAVE REF 14001BOL     1
CC0000008716890U202100050131454000050131454031/10/20212302    3190101223942196432000031188000000236790000000000000                                                                                     CISTOFLO ADULTOSIN     1
CC0000008716890U202100050131454000050131454031/10/20212302    31901012239421964320000Q1AA7100000610620000000000000                                                            CATETER PERIFE INTROCAN # 18G 4251687-04SIN     1
CC0000008716890U202100050131454000050131454031/10/20212302    3190101223942196432000030936900001431840000000000000                                                                                              BURETABOL     1
CC0000008716890U202100050131454000050131454031/10/20212302    31901012239421964320000E1AB0300003888390000000000000                                                            SOLUCION SALINA 0.9% SLN INY BO X 500 MLBOL     1
CC0000008716890U202100050131454000050131454031/10/20212302    31901012239421964320000E1AB0200000199290000000000000                                                            SOLUCION SALINA 0.9% SLN INY BO X 100 MLBIN     1
