CC0000055163818H202100000555200100000555200131/10/20211016     3300009237421964250000A2BC0900000200150000000000000                                                                               ORAZOLE Sln Iny 40 mgCIN     1
CC0000055163818H202100000555200100000555200131/10/20211016     3300009237421964250000A03A0800001177800000000000000                                                                      COLYPAN SLN INY 50 MG/5 ML /R/AMP     1
CC0000055163818H202100000555200100000555200131/10/20211634    31500305237421964250000E1AD0300000199490000000000000                                         LACTATO RINGER USP (HARTMANN)  SOL INY  BOL X 1000ML BAXTERBIN     2
CC0000055163818H202100000555200100000555200131/10/20211016     3300009237421964250000J1KF0200001677230000000000000                                                                      MERONEM POLVO SLN INY 1 G  /R/VAL     3
CC0000055163818H202100000555200100000555200131/10/20211758     3300009237421964250000J3CA0200001208130000000000000                                                                      FLAGYL SLN INY 500 MG X 100 MLBOL     3
CC0000055163818H202100000555200100000555200131/10/20211656     3300009237421964250000J02A0500000467570000000000000                                                                      DIFLUCAN SLN INY 200 MG/100 MLFCO     2
CC0000055163818H202100000555200100000555200131/10/20211016     3300009237421964250000J02A0500000467570000000000000                                                                      DIFLUCAN SLN INY 200 MG/100 MLFCO     2
CC0000055163818H202100000555200100000555200131/10/20211656     3300009237421964250000N02B1100001169680000000000000                              PARACETAMOL 1000MG/100ML(10MG/ML) SOL INY  VIAL X 100ML FRESENIUS KABIVAL     1
CC0000055163818H202100000555200100000555200131/10/20211016     3300009237421964250000N02B1100001169680000000000000                              PARACETAMOL 1000MG/100ML(10MG/ML) SOL INY  VIAL X 100ML FRESENIUS KABIVAL     3
CC0000055163818H202100000555200100000555200131/10/20211016     3300009237421964250000N05C0800001314910000000000000                                                                                ISOKLON TAB 3 MG /R/TAB     1
CC0000055163818H202100000555200100000555200131/10/20211634    31500305237421964250000V07A1300000502600000000000000                                                                                AGUA ESTERIL x 10 mlAMP     5
