CC0000022438763H202100015052709500015052709531/10/20211114    3190294123742196425000038569400000256750000000000000                                                                        SONDA ASPIRACION CONTROL #14SIN     8
CC0001143227023H202100015052709500015052709531/10/20211114    3190294123742196425000038569400000256750000000000000                                                                        SONDA ASPIRACION CONTROL #14SIN     8
CC0000036592610H202100015052709500015052709531/10/20211114    3190294123742196425000043995200000229010000000000000                                                               HUMIDIFICADOR PARA OXIGENO REF. H001BBOL     1
TI0001073826213H202100015052709500015052709531/10/20211114    3190294123742196425000043995200000229010000000000000                                                               HUMIDIFICADOR PARA OXIGENO REF. H001BBOL     1
CC0000022438763H202100015052709500015052709531/10/20211114    3190294123742196425000011085100001082120000000000000                                                                           GUANTE QUIRURGICO TALLA 7SOB     4
CC0001143227023H202100015052709500015052709531/10/20211114    3190294123742196425000011085100001082120000000000000                                                                           GUANTE QUIRURGICO TALLA 7SOB     4
CC0000022438763H202100015052709500015052709531/10/20211114    3190294123742196425000013077800000471960000000000000                                                             GASA NO TEJIDA EST 7.5 X 7.5 SOB X 3 UNSOB     6
CC0001143227023H202100015052709500015052709531/10/20211114    3190294123742196425000013077800000471960000000000000                                                             GASA NO TEJIDA EST 7.5 X 7.5 SOB X 3 UNSOB     6
RC0001046723141H202100015052709500015052709531/10/20211114    3190294123742196425000011069600001466740000000000000                                                                                      NIPLE PLASTICOPZA     1
CC0000036592610H202100015052709500015052709531/10/20211114    3190294123742196425000011069600001466740000000000000                                                                                      NIPLE PLASTICOPZA     1
TI0001073826213H202100015052709500015052709531/10/20211114    31902941237421964250000Q1A11800000258040000000000000                                                                         CANULA OXIGENO NASAL PEDIATSIN     1
CC0000036592610H202100015052709500015052709531/10/20211114    3190294123742196425000038568100000258050000000000000                                                                         CANULA OXIGENO NASAL ADULTOSIN     1
CC0000022438763H202100015052709500015052709531/10/20211114    3190294123742196425000020816000001096410000000000000                                                                          LINER PARED DELGADA 1500CCBOL     1
CC0001143227023H202100015052709500015052709531/10/20211114    3190294123742196425000020816000001096410000000000000                                                                          LINER PARED DELGADA 1500CCBOL     1
