RC0001048088138H202100903679103100903679103131/10/20210925    3190329123742196425000024674000000220660000000000000                             JERINGA A 3 PARTES CON AGUJA  SOB X 1 RYMCO  10ML BN EXENTO-DC.417/2020SIN    10
RC0001048088138H202100903679103100903679103131/10/20210925    31903291237421964250000V07A1300000502600000000000000                                                                                AGUA ESTERIL x 10 mlAMP     5
RC0001048088138H202100903679103100903679103131/10/20211503    31500385237421964250000Q1AA7400003911720000000000000                                                            CATETER PERIFE INTROCAN # 24G 4251601-04SOB     1
