RC0001063188067H202100015122512500015122512531/10/20210202    3150024423742196425000038572700000256840000000000000                                                                                 SONDA NSG LEVIN #10SIN     1
RC0001063188067H202100015122512500015122512531/10/20210202    3150024423742196425000011060400001010330000000000000                                                            SENSOR PULSOX SPO2 LNCS NEONATAL MP00792PZA     1
TI0001044611069H202100015122512500015122512531/10/20210202    3150024423742196425000024674000000220660000000000000                             JERINGA A 3 PARTES CON AGUJA  SOB X 1 RYMCO  10ML BN EXENTO-DC.417/2020SIN     5
RC0001063188067H202100015122512500015122512531/10/20210202    3150024423742196425000024674000000220660000000000000                             JERINGA A 3 PARTES CON AGUJA  SOB X 1 RYMCO  10ML BN EXENTO-DC.417/2020SIN     6
RC0001063188067H202100015122512500015122512531/10/20210202    3150024423742196425000011085100001082120000000000000                                                                           GUANTE QUIRURGICO TALLA 7SOB     2
RC0001063188067H202100015122512500015122512531/10/20210202    3150024423742196425000013077800000471960000000000000                                                             GASA NO TEJIDA EST 7.5 X 7.5 SOB X 3 UNSOB     5
TI0001044611069H202100015122512500015122512531/10/20210202    3150024423742196425000011082700001620070000000000000                                                               EQUIPO SET PRIMARIO C/CLAVE REF 14001BOL     1
TI0001044611069H202100015122512500015122512531/10/20210202    3150024423742196425000011082200001407940000000000000                                                              EQUIPO EXT MICROTUBO Y 2 VALVUL 2N8371SOB     1
TI0001044611069H202100015122512500015122512531/10/20210202    3150024423742196425000030936900001431840000000000000                                                                                              BURETABOL     1
TI0001044611069H202100015122512500015122512531/10/20210202    3150024423742196425000000602600001259280000000000000                                                             APOSITO TEGADERM IV PD 1610 5CM X 5.7CMSOB     1
TI0001044611069H202100015122512500015122512531/10/20210202    31500244237421964250000E1AD0300000199490000000000000                                         LACTATO RINGER USP (HARTMANN)  SOL INY  BOL X 1000ML BAXTERBIN     4
RC0001063188067H202100015122512500015122512531/10/20210202    31500244237421964250000E1AC0100000199400000000000000                                                                          SUERO MIXTO Sln Iny 500 mlBIN     2
TI0001044611069H202100015122512500015122512531/10/20210202    3150024423742196425000011137100001419310000000000000                                                               TIRA GLUCOMETRIA FREESTYLE H OPTIUM .PZA     1
