CC0000032889993H202100015052710400015052710431/10/20212041    3150038323742196425000011082700001620070000000000000                                                               EQUIPO SET PRIMARIO C/CLAVE REF 14001BOL     1
RC0001158467183H202100015052710400015052710431/10/20212041    3150038323742196425000011082700001620070000000000000                                                               EQUIPO SET PRIMARIO C/CLAVE REF 14001BOL     1
CC0001132234000H202100015052710400015052710431/10/20212041    3150038323742196425000011082700001620070000000000000                                                               EQUIPO SET PRIMARIO C/CLAVE REF 14001BOL     1
CC0000032889993H202100015052710400015052710431/10/20212041    3150038323742196425000001956000001620610000000000000                                                                      CONECTOR MICRO CLAVE LAT-MC100SOB     1
CC0000032889993H202100015052710400015052710431/10/20212041    31500383237421964250000Q1AA7300000610640000000000000                                                            CATETER PERIFE INTROCAN # 22G 4251628-04SIN     1
CC0000032889993H202100015052710400015052710431/10/20212041    3150038323742196425000030936900001431840000000000000                                                                                              BURETABOL     1
RC0001158467183H202100015052710400015052710431/10/20212041    3150038323742196425000030936900001431840000000000000                                                                                              BURETABOL     1
CC0001132234000H202100015052710400015052710431/10/20212041    3150038323742196425000030936900001431840000000000000                                                                                              BURETABOL     1
CC0000032889993H202100015052710400015052710431/10/20212041    3150038323742196425000016830000000970620000000000000                                                             SIST FIJACION CAT PERIFERICO 6.5X7 1683SOB     1
