CC0000032718053H202100000555181800000555181831/10/20210526     3300009237421964250000A6AC0200001467010000000000000                                                             LACTULAX JARABE 66.7G/100ML SOX15ML /R/SOB     2
CC0000032718053H202100000555181800000555181831/10/20210022     3300009237421964250000A6AC0200001467010000000000000                                                             LACTULAX JARABE 66.7G/100ML SOX15ML /R/SOB     1
CC0000032718053H202100000555181800000555181831/10/20211412     3300009237421964250000A06A1700001333140000000000000                                                                                 BISACODILO TAB 5 MGTAB     4
CC0000032718053H202100000555181800000555181831/10/20211412     3300009237421964250000N2BE2200001252930000000000000                                                                             ACETAMINOFEN Tab 500 MGTAB     8
CC0000032718053H202100000555181800000555181831/10/20210022     3300009237421964250000N2AX0900001672040000000000000                                                                              TRAMADOL SLN INY 50 MGAMP     1
CC0000032718053H202100000555181800000555181831/10/20211542     3300009237421964250000N02BB100000777810000000000000                                                               DIPIRONA MAGNESICA SLN INY 2.5 G/5 MLAMP     1
CC0000032718053H202100000555181800000555181831/10/20210526     3300009237421964250000N02BB100000777810000000000000                                                               DIPIRONA MAGNESICA SLN INY 2.5 G/5 MLAMP     3
CC0000032718053H202100000555181800000555181831/10/20210022     3300009237421964250000N02BB100000777810000000000000                                                               DIPIRONA MAGNESICA SLN INY 2.5 G/5 MLAMP     1
CC0000032718053H202100000555181800000555181831/10/20211139    31900933237421964250000V07A1300000502600000000000000                                                                                AGUA ESTERIL x 10 mlAMP     5
