RC0001187466818H202100000555205200000555205231/10/20211733    31903302237421964250000M03A1000000553280000000000000                                                                     VECURONIO BROMURO SLN INY 10 MGVAL     2
RC0001187466818H202100000555205200000555205231/10/20211356    31903302237421964250000M03A1000000553280000000000000                                                                     VECURONIO BROMURO SLN INY 10 MGVAL     3
RC0001187466818H202100000555205200000555205231/10/20211356    31903302237421964250000N07X0300003913670000000000000                                    DEXMEDETOMIDINA 400MCG/100ML(4MCG/ML) SOL INY BOL X 100ML BAXTERBOL     2
