CC0001129533798U202100050131444900050131444931/10/20210612    3190315823942196432000024674000000220660000000000000                             JERINGA A 3 PARTES CON AGUJA  SOB X 1 RYMCO  10ML BN EXENTO-DC.417/2020SIN     1
CC0001129533798U202100050131444900050131444931/10/20210612    3190315823942196432000022426900000236750000000000000                                                                EQUIPO MACROGOTEO CON AGUJA (MRC001)SOB     1
CC0001129533798U202100050131444900050131444931/10/20210612    31903158239421964320000B05X0400000319000000000000000                                                             CLORURO SODIO INY 20 MEQ/10 ML BOL X 50BOL     1
