CC0000022466267U202100050131448600050131448631/10/20211326    3190101023942196432000045136100001419300000000000000                                                                            LANCETA DEXTROMETER X UNPZA     1
CC0000022466267U202100050131448600050131448631/10/20211326    3190101023942196432000024674000000220660000000000000                             JERINGA A 3 PARTES CON AGUJA  SOB X 1 RYMCO  10ML BN EXENTO-DC.417/2020SIN     2
CC0000008276860U202100050131448600050131448631/10/20211326    3190101023942196432000011082700001620070000000000000                                                               EQUIPO SET PRIMARIO C/CLAVE REF 14001BOL     1
CC0000022466267U202100050131448600050131448631/10/20211326    3190101023942196432000011082700001620070000000000000                                                               EQUIPO SET PRIMARIO C/CLAVE REF 14001BOL     1
CC0000008276860U202100050131448600050131448631/10/20211326    31901010239421964320000Q1AA7100000610620000000000000                                                            CATETER PERIFE INTROCAN # 18G 4251687-04SIN     1
CC0000022466267U202100050131448600050131448631/10/20211326    31901010239421964320000Q1AA7200000610630000000000000                                                            CATETER PERIFE INTROCAN # 20G 4251644-04SIN     1
CC0000008276860U202100050131448600050131448631/10/20211326    3190101023942196432000030936900001431840000000000000                                                                                              BURETABOL     1
CC0000022466267U202100050131448600050131448631/10/20211326    3190101023942196432000030936900001431840000000000000                                                                                              BURETABOL     1
CC0000008276860U202100050131448600050131448631/10/20211326    3190101023942196432000016830000000970620000000000000                                                             SIST FIJACION CAT PERIFERICO 6.5X7 1683SOB     1
CC0000022466267U202100050131448600050131448631/10/20211326    3190101023942196432000016830000000970620000000000000                                                             SIST FIJACION CAT PERIFERICO 6.5X7 1683SOB     1
CC0000008276860U202100050131448600050131448631/10/20211326    31901010239421964320000E1AD0300000199490000000000000                                         LACTATO RINGER USP (HARTMANN)  SOL INY  BOL X 1000ML BAXTERBIN     1
CC0000022466267U202100050131448600050131448631/10/20211326    31901010239421964320000E1AB0500003888400000000000000                                                              SOLUCION SALINA 0.9% SLN INY X 1000 MLBOL     1
CC0000022466267U202100050131448600050131448631/10/20211326    3190101023942196432000011137100001419310000000000000                                                               TIRA GLUCOMETRIA FREESTYLE H OPTIUM .PZA     1
