CC0000022580436U202100000555206800000555206831/10/20211500     3300004239421964320000A2BC0900000200150000000000000                                                                               ORAZOLE Sln Iny 40 mgCIN     1
CC0000022580436U202100000555206800000555206831/10/20211500     3300004239421964320000A03A0800001177800000000000000                                                                      COLYPAN SLN INY 50 MG/5 ML /R/AMP     1
CC0000022580436U202100000555206800000555206831/10/20211521    31901003239421964320000E1AD0300000199490000000000000                                         LACTATO RINGER USP (HARTMANN)  SOL INY  BOL X 1000ML BAXTERBIN     1
CC0000022580436U202100000555206800000555206831/10/20211500     3300004239421964320000M1AE2500000191550000000000000                                                            PROFENID POLVO LIOF SLN INY 100MG/2ML/R/AMP     1
