CC0000012576309H202100015012572600015012572631/10/20210121    3190294923742196425000024672100001609890000000000000                                                            JERINGA INSULINA 1ML TAPA NARANJA JEI013SOB     5
CC0000012576309H202100015012572600015012572631/10/20210121    3190294923742196425000011047900000223010000000000000                                                                            JERINGA X 1ML REF 302579SIN     5
CC0000012576309H202100015012572600015012572631/10/20210121    3190294923742196425000011085100001082120000000000000                                                                           GUANTE QUIRURGICO TALLA 7SOB     5
CC0000012576309H202100015012572600015012572631/10/20210121    3190294923742196425000042743200003929860000000000000                   GASA ADHESIVA STRETCH REF 02038-00 ROL X 10MT FIXOMULL 15CM BN EXENTO-DC.417/2020CMT    50
CC0000012576309H202100015012572600015012572631/10/20210121    3190294923742196425000020059500000225210000000000000                                                               AGUJA RAQUI SPINOCAN #20 REF. 4509900SIN     2
