RC0001187466818H202100015122512800015122512831/10/20211035    3150002223742196425000024161400000259870000000000000                                                                          SONDA TRACH CARE # 10 (MT)SIN     1
RC0001187466818H202100015122512800015122512831/10/20211035    3150002223742196425000038576500000256730000000000000                                                                        SONDA ASPIRACION CONTROL #10SIN     5
RC0001063188067H202100015122512800015122512831/10/20211035    3150002223742196425000036441300000236540000000000000                                                                    JERINGA 1 ML GASES ARTERIAL 9023SIN     2
RC0001187466818H202100015122512800015122512831/10/20211035    3150002223742196425000036441300000236540000000000000                                                                    JERINGA 1 ML GASES ARTERIAL 9023SIN     4
RC0001187466818H202100015122512800015122512831/10/20211035    3150002223742196425000024674000000220660000000000000                             JERINGA A 3 PARTES CON AGUJA  SOB X 1 RYMCO  10ML BN EXENTO-DC.417/2020SIN     2
RC0001187466818H202100015122512800015122512831/10/20211035    31500022237421964250000E1AB0200000199290000000000000                                                            SOLUCION SALINA 0.9% SLN INY BO X 100 MLBIN     1
