CC0001044430826H202100015032585500015032585531/10/20211427    3190093323742196425000022426800001140510000000000000                                                                    EQUIPO MACROGOTEO BAXTER MRC0001SOB     1
RC0001046735365H202100015032585500015032585531/10/20211427    31900933237421964250000E1AD0300000199490000000000000                                         LACTATO RINGER USP (HARTMANN)  SOL INY  BOL X 1000ML BAXTERBIN     1
TI0001042848386H202100015032585500015032585531/10/20211427    31900933237421964250000E1AA0100003888590000000000000                                                                        DEXTROSA 5% Sln Iny X 500 mlBOL     2
