TI0001042848386H202100000555205800000555205831/10/20211413    31903291237421964250000A03BB100003889180000000000000                                      HIOSCINA BUTIL BROMURO 20MG/ML SOL INY CAJ X 100AMP X 1ML RYANAMP     4
TI0001042848386H202100000555205800000555205831/10/20211620    31903291237421964250000J01G0500001109560000000000000                                                                       AMIKACINA SLN INY 500 MG/2 MLAMP     2
TI0001042848386H202100000555205800000555205831/10/20211413    31903291237421964250000N2BE2200001252930000000000000                                                                             ACETAMINOFEN Tab 500 MGTAB    12
