CC0000072251883U202100050131448400050131448431/10/20211316    3190098223942196432000012475800000232220000000000000                                                                SUTURA ETHILON 4-0 PS-2  45CM P1667TSIN     1
CC0000072251883U202100050131448400050131448431/10/20211316    3190098223942196432000011048600000223020000000000000                                                                 JERINGA VACUNACION 3ML C/AGU 302542SIN     2
CC0000072251883U202100050131448400050131448431/10/20211316    3190098223942196432000024674000000220660000000000000                             JERINGA A 3 PARTES CON AGUJA  SOB X 1 RYMCO  10ML BN EXENTO-DC.417/2020SIN     1
CC0000072251883U202100050131448400050131448431/10/20211316    3190098223942196432000011047900000223010000000000000                                                                            JERINGA X 1ML REF 302579SIN     1
CC0000072251883U202100050131448400050131448431/10/20211316    3190098223942196432000011089300001083990000000000000                                                              GUANTE ESTERIL LATEX S/POLVO TALLA 7.5SOB     1
CC0000072251883U202100050131448400050131448431/10/20211316    3190098223942196432000013077800000471960000000000000                                                             GASA NO TEJIDA EST 7.5 X 7.5 SOB X 3 UNSOB     7
CC0000072251883U202100050131448400050131448431/10/20211316    31900982239421964320000E1AB0200000199290000000000000                                                            SOLUCION SALINA 0.9% SLN INY BO X 100 MLBIN     1
