CC0000051960635H202100015012574100015012574131/10/20212305    3150008823742196425000001956000001620610000000000000                                                                      CONECTOR MICRO CLAVE LAT-MC100SOB     1
CC0000051960635H202100015012574100015012574131/10/20212305    31500088237421964250000Q1AA7200000610630000000000000                                                            CATETER PERIFE INTROCAN # 20G 4251644-04SIN     1
CC0000051960635H202100015012574100015012574131/10/20212305    31500088237421964250000Q1AA3300001585140000000000000                                                                         APOSITO TEGADERM 10*12 1626SOB     1
