RC0001063188067H202100015122512400015122512431/10/20210023    3190315723742196425000011059500001646260000000000000                                                              RESUCITADOR MANUAL NEONATAL LMI86-8086BOL     1
RC0001063188067H202100015122512400015122512431/10/20210023    3190315723742196425000036441300000236540000000000000                                                                    JERINGA 1 ML GASES ARTERIAL 9023SIN     5
RC0001063188067H202100015122512400015122512431/10/20210023    3190315723742196425000011077200001679930000000000000                                                                  CIRCUITO DESECHABLE AIRVO 900PT501BOL     1
RC0001063188067H202100015122512400015122512431/10/20210023    3190315723742196425000001201000001287650000000000000                                                               CANULA NASALPREMATUR OPT312  OPTIFLOWPZA     1
RC0001063188067H202100015122512400015122512431/10/20210023    31903157237421964250000E1BA0100000198890000000000000                                                                   AGUA ESTERIL USP SLN INY X 500 MLBIN     3
