CC0000043518328U202100000555186300000555186331/10/20210126    31902865239421964320000E1AB0500003888400000000000000                                                              SOLUCION SALINA 0.9% SLN INY X 1000 MLBOL     1
CC0000043518328U202100000555186300000555186331/10/20210126     3300004239421964320000A03BB100003889180000000000000                                      HIOSCINA BUTIL BROMURO 20MG/ML SOL INY CAJ X 100AMP X 1ML RYANAMP     1
CC0000043518328U202100000555186300000555186331/10/20212112     3300004239421964320000J01DD500001239970000000000000                                                                  CEFTRIAXONA POLVO LIOF SLN INY 1 GVAL     2
CC0000043518328U202100000555186300000555186331/10/20210126     3300004239421964320000N2BB0100000787510000000000000                                                                    DIPIRONA SODICA Sln Iny 1 g/2 mlAMP     1
