RC0001046729891H202100015122513300015122513331/10/20212119    3150022123742196425000030161400001459220000000000000                                                                       MANGUERA SUCCION 6 MM*3.1 MTSSOB     1
RC0001046729891H202100015122513300015122513331/10/20212119    3150022123742196425000011077200001679930000000000000                                                                  CIRCUITO DESECHABLE AIRVO 900PT501BOL     1
RC0001046729891H202100015122513300015122513331/10/20212119    3150022123742196425000001200900001294660000000000000                                                                CANULA NASAL PED REF OPT318 OPTIFLOWPZA     1
RC0001046729891H202100015122513300015122513331/10/20212119    3150022123742196425000020816000001096410000000000000                                                                          LINER PARED DELGADA 1500CCBOL     1
RC0001046729891H202100015122513300015122513331/10/20212119    31500221237421964250000E1BA0100000198890000000000000                                                                   AGUA ESTERIL USP SLN INY X 500 MLBIN     1
