RC0001043714288H202100000555191300000555191331/10/20211624     3300009237421964250000V3AB2200000614150000000000000                                                            GLUCONATO CALCIO SLN INY 10% AMP X 10 MLAPC     1
RC0001043714288H202100000555191300000555191331/10/20211208     3300009237421964250000V3AB2200000614150000000000000                                                            GLUCONATO CALCIO SLN INY 10% AMP X 10 MLAPC     1
RC0001043714288H202100000555191300000555191331/10/20211624     3300009237421964250000A12CA200001239800000000000000                     BICARBONATO SODIO 10MEQ/10ML(1MEQ/ML) SOL INY  CAJ X 100AMPX10ML FRESENIUS KABIAMP     1
RC0001043714288H202100000555191300000555191331/10/20211734    31902960237421964250000E1AD0200003888320000000000000                                                                              HARTMAN SLN INY 500 MLBOL     1
RC0001043714288H202100000555191300000555191331/10/20211625     3300009237421964250000A12CA100001109460000000000000                                                              CLORURO SODIO SLN INY 2 MEQ/ML X 10 MLAMP     1
RC0001043714288H202100000555191300000555191331/10/20211209     3300009237421964250000A12CA100001109460000000000000                                                              CLORURO SODIO SLN INY 2 MEQ/ML X 10 MLAMP     1
RC0001043714288H202100000555191300000555191331/10/20211208     3300009237421964250000A12BA100000552980000000000000                                                            CLORURO POTASIO Sln Iny AMP 20 MEQ/10 MLAMP     3
RC0001043714288H202100000555191300000555191331/10/20211244    31500343237421964250000E1AA1400003888550000000000000                                                                         DEXTROSA 10% SLN INY 250 MLBOL     1
RC0001043714288H202100000555191300000555191331/10/20211239    31500343237421964250000E1AA1400003888550000000000000                                                                         DEXTROSA 10% SLN INY 250 MLBOL     2
RC0001043714288H202100000555191300000555191331/10/20211624     3300009237421964250000C1CA0300000861740000000000000                                                                    DOPAMINA HCL SLN INY 200 MG/5 MLAMP     1
RC0001043714288H202100000555191300000555191331/10/20211625     3300009237421964250000J01XA400001212420000000000000                                                               VANCOMICINA POLVO LIOF SLN INY 500 MGVAL     1
RC0001043714288H202100000555191300000555191331/10/20211207     3300009237421964250000J01XA400001212420000000000000                                                               VANCOMICINA POLVO LIOF SLN INY 500 MGVAL     1
RC0001043714288H202100000555191300000555191331/10/20211430    31500343237421964250000E1BA0100000198890000000000000                                                                   AGUA ESTERIL USP SLN INY X 500 MLBIN     1
RC0001043714288H202100000555191300000555191331/10/20211624     3300009237421964250000R3CA0100001051880000000000000                                                               ADRENALINA HCL SLN INY 1 MG / ML ECARAMP     3
RC0001043714288H202100000555191300000555191331/10/20211208     3300009237421964250000R3CA0100001051880000000000000                                                               ADRENALINA HCL SLN INY 1 MG / ML ECARAMP     1
RC0001043714288H202100000555191300000555191331/10/20211207     3300009237421964250000J01D1200001239960000000000000                                                                              CEFEPIME POLVO INY 1 GVAL     1
RC0001043714288H202100000555191300000555191331/10/20210549     3300009237421964250000R03BB300001364640000000000000                                                            BROMURO IPRATROPIO INH ORAL 20 MCG/DO /RFCO     1
RC0001043714288H202100000555191300000555191331/10/20211239    31500343237421964250000V07A1300000502600000000000000                                                                                AGUA ESTERIL x 10 mlAMP    10
