CC0000022467890H202100015112659000015112659031/10/20211940    3190235723742196425000062750300001405970000000000000                                                             APOSITO VAC WHITEFOAM LARGE M6275034/10SOB     1
CC0000022467890H202100015112659000015112659031/10/20211940    3190235723742196425000082750900001418360000000000000                                                            APOSITO VAC GRANUFOA SILVER M M8275096/5PZA     1
CC0000022467890H202100015112659000015112659031/10/20211940    3190235723742196425000062750100001405910000000000000                                                                 INFOVAC CANISTER 1000 ML M8275093/5SOB     1
CC0000022467890H202100015112659000015112659031/10/20211940    3190235723742196425000043485100001618510000000000000                GUANTE QUIRURGICO DE LATEX REF 2D72N65X CAJ X 50 PROTEXIS  6.5 BN EXENTO-DC.417/2020SOB     4
CC0000022467890H202100015112659000015112659031/10/20211940    3190235723742196425000013077800000471960000000000000                                                             GASA NO TEJIDA EST 7.5 X 7.5 SOB X 3 UNSOB    20
CC0000022467890H202100015112659000015112659031/10/20211940    31902357237421964250000E1AB0300003888390000000000000                                                            SOLUCION SALINA 0.9% SLN INY BO X 500 MLBOL     1
