CC0000008604995H202100000555207800000555207831/10/20211523     3300009237421964250000A6AC0200001467010000000000000                                                             LACTULAX JARABE 66.7G/100ML SOX15ML /R/SOB     1
CC0000008604995H202100000555207800000555207831/10/20211525     3300009237421964250000J3CA0300000471830000000000000                                                                METRONIDAZOL SLN INY 500 MG / 100 MLBIN     1
CC0000008604995H202100000555207800000555207831/10/20211522     3300009237421964250000N2BE2200001252930000000000000                                                                             ACETAMINOFEN Tab 500 MGTAB     2
CC0000008604995H202100000555207800000555207831/10/20211523     3300009237421964250000N2BB0100000787510000000000000                                                                    DIPIRONA SODICA Sln Iny 1 g/2 mlAMP     3
CC0000008604995H202100000555207800000555207831/10/20211523     3300009237421964250000N03AX800001334920000000000000                                                                               LEGABIN CAP 75 MG /R/CAP     2
