TI0001073826213H202100000555184800000555184831/10/20210817     3300009237421964250000B1AB0200003939510000000000000                 ENOXAPARINA SODICA 40MG/0.4ML(100MG/ML) SOL INY INST CAJ X 2JERPREL X 0.4ML TECHDOWJRP     1
TI0001073826213H202100000555184800000555184831/10/20210116     3300009237421964250000B1AB0200003939510000000000000                 ENOXAPARINA SODICA 40MG/0.4ML(100MG/ML) SOL INY INST CAJ X 2JERPREL X 0.4ML TECHDOWJRP     1
TI0001073826213H202100000555184800000555184831/10/20210933    31500502237421964250000E1AD0300000199490000000000000                                         LACTATO RINGER USP (HARTMANN)  SOL INY  BOL X 1000ML BAXTERBIN     1
TI0001073826213H202100000555184800000555184831/10/20212323     3300009237421964250000C08C0800001277870000000000000                                                                                NIFEDIPINO CAP 10 MGTAB     1
TI0001073826213H202100000555184800000555184831/10/20211815     3300009237421964250000C08C0800001277870000000000000                                                                                NIFEDIPINO CAP 10 MGTAB     1
TI0001073826213H202100000555184800000555184831/10/20210817     3300009237421964250000C08C0800001277870000000000000                                                                                NIFEDIPINO CAP 10 MGTAB     1
TI0001073826213H202100000555184800000555184831/10/20210115     3300009237421964250000C08C0800001277870000000000000                                                                                NIFEDIPINO CAP 10 MGTAB     2
TI0001073826213H202100000555184800000555184831/10/20210116     3300009237421964250000C03C0100001672000000000000000                                                                       FUROSEMIDA SLN INY 20 MG/2 MLAMP     1
TI0001073826213H202100000555184800000555184831/10/20212323     3300009237421964250000N2BB0100000787510000000000000                                                                    DIPIRONA SODICA Sln Iny 1 g/2 mlAMP     1
TI0001073826213H202100000555184800000555184831/10/20210817     3300009237421964250000N2BB0100000787510000000000000                                                                    DIPIRONA SODICA Sln Iny 1 g/2 mlAMP     1
TI0001073826213H202100000555184800000555184831/10/20210116     3300009237421964250000N2BB0100000787510000000000000                                                                    DIPIRONA SODICA Sln Iny 1 g/2 mlAMP     2
TI0001073826213H202100000555184800000555184831/10/20211815     3300009237421964250000N03AB200001168090000000000000                                                                       FENITOINA Sln Iny 250 mg/5 mlAMP     1
TI0001073826213H202100000555184800000555184831/10/20210221     3300009237421964250000N03AB200001168090000000000000                                                                       FENITOINA Sln Iny 250 mg/5 mlAMP     1
TI0001073826213H202100000555184800000555184831/10/20210817     3300009237421964250000A02BC700001684270000000000000                                                            OMEPRAZOL 40MG POLVO LIOFILIZADO AMPOLLAVAL     1
TI0001073826213H202100000555184800000555184831/10/20211106    31903301237421964250000V07A1300000502600000000000000                                                                                AGUA ESTERIL x 10 mlAMP     4
