CC0000000162131H202100000555202400000555202431/10/20211130    31900933237421964250000S2BA0100000468160000000000000                                                                          SOLU-CORTEF SNL INY 100 MGVAL     1
CC0000000162131H202100000555202400000555202431/10/20211128    31900933237421964250000B1AB1200003939350000000000000                 ENOXAPARINA SODICA 80MG/0.8ML(100MG/ML) SOL INY INST CAJ X 2JERPREL X 0.8ML TECHDOWJRP     2
CC0000000162131H202100000555202400000555202431/10/20211128    31900933237421964250000C3CA0100001278130000000000000                                                                                     LASIX TAB 40 MGTAB     1
CC0000000162131H202100000555202400000555202431/10/20211128    31900933237421964250000C7AB1500001277290000000000000                                                                        BETALOC ZOK TAB LM 50 MG /R/TAB     1
CC0000000162131H202100000555202400000555202431/10/20211128    31900933237421964250000C7FA0200001277980000000000000                                                                                    NORVAS TAB 10 MGTAB     1
CC0000000162131H202100000555202400000555202431/10/20211128    31900933237421964250000S2BA0500001278470000000000000                                                                                MEDROL TAB 16 MG /R/TAB     1
