RC0001046735365U202100914575103100914575103131/10/20211008    31500292239421964320000Q1AA7400003911720000000000000                                                            CATETER PERIFE INTROCAN # 24G 4251601-04SOB     1
RC0001046735365U202100914575103100914575103131/10/20211133    3150051423942196432000024674000000220660000000000000                             JERINGA A 3 PARTES CON AGUJA  SOB X 1 RYMCO  10ML BN EXENTO-DC.417/2020SIN     2
RC0001046735365U202100914575103100914575103131/10/20211133    3150051423942196432000035801900001101780000000000000                                                                    NEBULIZADOR C/MASCARA PEDIATRICOSOB     1
RC0001046735365U202100914575103100914575103131/10/20211133    3150051423942196432000038568200000257000000000000000                                                                                   SONDA NELATON #06SIN     1
RC0001046735365U202100914575103100914575103131/10/20211133    31500514239421964320000E1AB0200000199290000000000000                                                            SOLUCION SALINA 0.9% SLN INY BO X 100 MLBIN     1
RC0001046735365U202100914575103100914575103131/10/20211133    31500514239421964320000B05C0200001339660000000000000                                                                        SOLUCION SALINA 0.9% X 10 MLJRP     1
RC0001046735365H202100914575103100914575103131/10/20211617    3190305023742196425000024674000000220660000000000000                             JERINGA A 3 PARTES CON AGUJA  SOB X 1 RYMCO  10ML BN EXENTO-DC.417/2020SIN     1
RC0001046735365H202100914575103100914575103131/10/20211617    3190305023742196425000035801900001101780000000000000                                                                    NEBULIZADOR C/MASCARA PEDIATRICOSOB     1
RC0001046735365H202100914575103100914575103131/10/20211617    31903050237421964250000E1AB0200000199290000000000000                                                            SOLUCION SALINA 0.9% SLN INY BO X 100 MLBIN     1
