CC0001132234000H202100915422103100915422103131/10/20212112    3150038323742196425000011082700001620070000000000000                                                               EQUIPO SET PRIMARIO C/CLAVE REF 14001BOL     1
CC0001132234000H202100915422103100915422103131/10/20212112    3150038323742196425000030936900001431840000000000000                                                                                              BURETABOL     1
CC0001132234000H202100915422103100915422103131/10/20212121    31500383237421964250000E1AB0300003888390000000000000                                                            SOLUCION SALINA 0.9% SLN INY BO X 500 MLBOL     1
