CC0001143120182H202100015112657800015112657831/10/20211116    3190311023742196425000039175200001072070000000000000                                                                           TUBO ENDOTRAQUEAL C/B 8.0SOB     1
CC0001143120182H202100015112657800015112657831/10/20211116    3190311023742196425000039176700001029620000000000000                                                                    SUJETADOR TUBO ENDOTRAQUEAL 9799SOB     1
CC0001143120182H202100015112657800015112657831/10/20211116    3190311023742196425000038569400000256750000000000000                                                                        SONDA ASPIRACION CONTROL #14SIN    10
CC0000022467890H202100015112657800015112657831/10/20211116    3190311023742196425000038569400000256750000000000000                                                                        SONDA ASPIRACION CONTROL #14SIN    10
CC0000022361987H202100015112657800015112657831/10/20211116    3190311023742196425000038569400000256750000000000000                                                                        SONDA ASPIRACION CONTROL #14SIN    10
CC0000022361987H202100015112657800015112657831/10/20211116    3190311023742196425000022108000003906060000000000000                                                            SIST CERRAD ASPIRAC TRACH  22108-5 14 FRSOB     1
CC0000007467947H202100015112657800015112657831/10/20211116    3190311023742196425000035639600001014740000000000000                                                                              MASCARA VENTURY ADULTOBOL     1
CC0001143120182H202100015112657800015112657831/10/20211116    3190311023742196425000036441300000236540000000000000                                                                    JERINGA 1 ML GASES ARTERIAL 9023SIN     4
CC0000022467890H202100015112657800015112657831/10/20211116    3190311023742196425000036441300000236540000000000000                                                                    JERINGA 1 ML GASES ARTERIAL 9023SIN     4
CC0000007467947H202100015112657800015112657831/10/20211116    3190311023742196425000036441300000236540000000000000                                                                    JERINGA 1 ML GASES ARTERIAL 9023SIN     4
CC0000022361987H202100015112657800015112657831/10/20211116    3190311023742196425000036441300000236540000000000000                                                                    JERINGA 1 ML GASES ARTERIAL 9023SIN     4
CC0001143120182H202100015112657800015112657831/10/20211116    3190311023742196425000024674000000220660000000000000                             JERINGA A 3 PARTES CON AGUJA  SOB X 1 RYMCO  10ML BN EXENTO-DC.417/2020SIN     5
CC0000022467890H202100015112657800015112657831/10/20211116    3190311023742196425000024674000000220660000000000000                             JERINGA A 3 PARTES CON AGUJA  SOB X 1 RYMCO  10ML BN EXENTO-DC.417/2020SIN     5
CC0000022361987H202100015112657800015112657831/10/20211116    3190311023742196425000024674000000220660000000000000                             JERINGA A 3 PARTES CON AGUJA  SOB X 1 RYMCO  10ML BN EXENTO-DC.417/2020SIN     5
CC0000007467947H202100015112657800015112657831/10/20211116    3190311023742196425000035640900001022840000000000000                                                              INTERFAZ NASAL MASCARA REF 8418619 (L)SOB     1
CC0001143120182H202100015112657800015112657831/10/20211116    3190311023742196425000043492400000516570000000000000                                                                   GUIA P/TUBO ENDOTRAQ ADULTO 85865SIN     1
CC0001143120182H202100015112657800015112657831/10/20211116    3190311023742196425000000601300001271960000000000000                                                               APOSITO DUODERM CGF  187661 (15X15)CMSOB     1
