RC0001047058108U202100000555211100000555211131/10/20212007     3300004239421964320000A2BC0900000200150000000000000                                                                               ORAZOLE Sln Iny 40 mgCIN     1
RC0001047058108U202100000555211100000555211131/10/20212007     3300004239421964320000A4AD0200000202990000000000000                                                                     PLITICAN HCL Sln Iny 50 mg/2 mlAMP     1
RC0001047058108U202100000555211100000555211131/10/20212007     3300004239421964320000A03A0800001177800000000000000                                                                      COLYPAN SLN INY 50 MG/5 ML /R/AMP     1
RC0001047058108U202100000555211100000555211131/10/20212307     3300004239421964320000A07C0400000953120000000000000                                                            ENTEROLYTE SUERO ORAL 75 MEQ X 400ML /R/FCO     1
RC0001047058108U202100000555211100000555211131/10/20212028    31902336239421964320000E1AD0200003888320000000000000                                                                              HARTMAN SLN INY 500 MLBOL     1
