RC0001084070572H202100015022527300015022527331/10/20211553    3190328823742196425000024672100001609890000000000000                                                            JERINGA INSULINA 1ML TAPA NARANJA JEI013SOB     5
RC0001146542960H202100015022527300015022527331/10/20211553    3190328823742196425000024672100001609890000000000000                                                            JERINGA INSULINA 1ML TAPA NARANJA JEI013SOB     5
RC0001146542960H202100015022527300015022527331/10/20211553    3190328823742196425000011089100001083330000000000000                                                              GUANTE ESTERIL LATEX S/POLVO TALLA 6.5SOB     5
RC0001146542960H202100015022527300015022527331/10/20211553    3190328823742196425000013077800000471960000000000000                                                             GASA NO TEJIDA EST 7.5 X 7.5 SOB X 3 UNSOB    10
CC0000036724804H202100015022527300015022527331/10/20211553    3190328823742196425000011082900001233450000000000000                                                               EQUIPO LC 5000 PRIMARIO FOTOPRO 0L218SOB     2
