PA0000669271942H202100000555204200000555204231/10/20211252    31901015237421964250000A03F0300001626860000000000000                                                                   METOCLOPRAMIDA SLN INY 10 MG/2 MLAMP     2
PA0000669271942H202100000555204200000555204231/10/20211252    31901015237421964250000A04A1400001467560000000000000                                                                      ONDANSETRON SLN INY 8 MG/ 4 MLVAL     1
PA0000669271942H202100000555204200000555204231/10/20211252    31901015237421964250000C7FA0200001277980000000000000                                                                                    NORVAS TAB 10 MGTAB     1
PA0000669271942H202100000555204200000555204231/10/20211252    31901015237421964250000C09AA500001314270000000000000                                                                                 CAPTOPRIL TAB 25 MGTAB     1
PA0000669271942H202100000555204200000555204231/10/20211252    31901015237421964250000H02AB500001664950000000000000                                                            DEXAMETASONA SLN INY 8 MG/2 ML AMP /CDS/AMP     1
PA0000669271942H202100000555204200000555204231/10/20211252    31901015237421964250000N2BB1100000217160000000000000                                                                      NOVALGINA Sln Iny 2.5 g x 5 mlAMP     2
PA0000669271942H202100000555204200000555204231/10/20211252    31901015237421964250000N02B1100001169680000000000000                              PARACETAMOL 1000MG/100ML(10MG/ML) SOL INY  VIAL X 100ML FRESENIUS KABIVAL     3
PA0000669271942H202100000555204200000555204231/10/20211252    31901015237421964250000A02BC700001684270000000000000                                                            OMEPRAZOL 40MG POLVO LIOFILIZADO AMPOLLAVAL     2
