RC0001084070572H202100000555184500000555184531/10/20211225     3300009237421964250000J01GB100001163250000000000000                                                                  TOBRAMICINA SOL  INHA 300MG/5ML/R/VAL     5
RC0001084070572H202100000555184500000555184531/10/20211225     3300009237421964250000R05C0300000214880000000000000                                                               DORNASA ALFA SOL  INHA 2 5mg/2 5mL/R/AMP     1
RC0001084070572H202100000555184500000555184531/10/20210907     3300009237421964250000A2DA1400001333780000000000000                                                                         PANZYTRAT CAP 25.000 UI /R/CAP     1
RC0001084070572H202100000555184500000555184531/10/20212154    31903260237421964250000E1AB0300003888390000000000000                                                            SOLUCION SALINA 0.9% SLN INY BO X 500 MLBOL     1
RC0001084070572H202100000555184500000555184531/10/20211226    31903288237421964250000E1AB0300003888390000000000000                                                            SOLUCION SALINA 0.9% SLN INY BO X 500 MLBOL     1
RC0001084070572H202100000555184500000555184531/10/20210115    31902202237421964250000E1AB0300003888390000000000000                                                            SOLUCION SALINA 0.9% SLN INY BO X 500 MLBOL     1
RC0001084070572H202100000555184500000555184531/10/20210908     3300009237421964250000A12BA100000552980000000000000                                                            CLORURO POTASIO Sln Iny AMP 20 MEQ/10 MLAMP     4
RC0001084070572H202100000555184500000555184531/10/20210907     3300009237421964250000A12BA100000552980000000000000                                                            CLORURO POTASIO Sln Iny AMP 20 MEQ/10 MLAMP     1
RC0001084070572H202100000555184500000555184531/10/20211607     3300009237421964250000S2BA0200000468180000000000000                                                                   SOLU-MEDROL SLN INY 40 MG/ML  /R/VAL     1
RC0001084070572H202100000555184500000555184531/10/20210703     3300009237421964250000S2BA0200000468180000000000000                                                                   SOLU-MEDROL SLN INY 40 MG/ML  /R/VAL     1
RC0001084070572H202100000555184500000555184531/10/20211226    31903288237421964250000V07A1300000502600000000000000                                                                                AGUA ESTERIL x 10 mlAMP     6
