CC0000022669158U202100000555183200000555183231/10/20210420     3300004239421964320000A02B0700001277010000000000000                                                                                NEXIUM Tab 20 mg /R/TAB     1
CC0000022669158U202100000555183200000555183231/10/20210410     3300004239421964320000A02B0700001277010000000000000                                                                                NEXIUM Tab 20 mg /R/TAB     1
CC0000022669158U202100000555183200000555183231/10/20210410     3300004239421964320000B1AB0200003939510000000000000                 ENOXAPARINA SODICA 40MG/0.4ML(100MG/ML) SOL INY INST CAJ X 2JERPREL X 0.4ML TECHDOWJRP     1
CC0000022669158U202100000555183200000555183231/10/20210410    31902171239421964320000E1AB1100003888280000000000000                                                                        SOLUCION SALINA 0.9% X 50 mlBOL     2
CC0000022669158U202100000555183200000555183231/10/20210410     3300004239421964320000C3CA0200000195520000000000000                                                                           LASIX SLN INY 20 MG/ 2 MLAMP     1
CC0000022669158U202100000555183200000555183231/10/20210419     3300004239421964320000H03A0400001278890000000000000                                                                                  EUTIROX TAB 50 MCGTAB     1
CC0000022669158U202100000555183200000555183231/10/20210410     3300004239421964320000H03A0400001278890000000000000                                                                                  EUTIROX TAB 50 MCGTAB     1
