CC0001045684571H202100000555192400000555192431/10/20210641    31900995237421964250000B1AB0100001227270000000000000                                             HEPAMAX 25000UI/5ML(5000UI/ML) SOL INY  CAJ X 25AMPX5MLAMP     3
CC0001045684571H202100000555192400000555192431/10/20210641    31900995237421964250000C7AB1000001382030000000000000                                                                   NOREPINEFRINA SLN INY 4 MG / 4 MLAMP    18
CC0001045684571H202100000555192400000555192431/10/20210641    31900995237421964250000J01DD400001669980000000000000                                                                ZAVICEFTA POLVO LIOF SLN INY 2500 MGVAL     2
CC0001045684571H202100000555192400000555192431/10/20210641    31900995237421964250000M03AC100000197200000000000000                                                                   TRACURION SLN INY 10 MG /5 ML /R/AMP     5
CC0001045684571H202100000555192400000555192431/10/20210641    31900995237421964250000H01B0100001390610000000000000                                                                   VASOPRESINA SLN INY 20 UI/ ML /R/VAL     6
CC0001045684571H202100000555192400000555192431/10/20210641    31900995237421964250000V6DF2000001629900000000000000                                                                     ENSURE PLUS HN LIQUIDO X 237 MLFCO     4
CC0001045684571H202100000555192400000555192431/10/20210641    31900995237421964250000N1AH0200003906560000000000000                                                                     FENTANIL Iny 0.05 mg/ml x 10 mlAMP     6
CC0001045684571H202100000555192400000555192431/10/20210641    31900995237421964250000N5CD0300000218170000000000000                                                                          DORMICUM Sln Iny 5 mg/5 mlAMP    80
CC0001045684571H202100000555192400000555192431/10/20210641    31900995237421964250000H02AB700000585860000000000000                                                                HIDROCORTISONA SUCCI POL LIOF 100 MGVAL     2
CC0001045684571H202100000555192400000555192431/10/20210641    31900995237421964250000J01EE300001398810000000000000                                                                  TRIMETOPR/SULFAM 80/400MG /5ML AMPAMP    10
CC0001045684571H202100000555192400000555192431/10/20210641    31900995237421964250000N2BE2200001252930000000000000                                                                             ACETAMINOFEN Tab 500 MGTAB     4
CC0001045684571H202100000555192400000555192431/10/20210641    31900995237421964250000N05A1700001278300000000000000                                                                            QUETIAPINA TAB 25 MG /R/TAB     4
CC0001045684571H202100000555192400000555192431/10/20210641    31900995237421964250000A02BC700001684270000000000000                                                            OMEPRAZOL 40MG POLVO LIOFILIZADO AMPOLLAVAL     1
