CC0000030391278U202100000555203300000555203331/10/20212018     3300004239421964320000A03F0300001626860000000000000                                                                   METOCLOPRAMIDA SLN INY 10 MG/2 MLAMP     1
CC0000030391278U202100000555203300000555203331/10/20211810    31902327239421964320000E1AB0300003888390000000000000                                                            SOLUCION SALINA 0.9% SLN INY BO X 500 MLBOL     1
CC0000030391278U202100000555203300000555203331/10/20211810    31902327239421964320000E1AD0200003888320000000000000                                                                              HARTMAN SLN INY 500 MLBOL     1
CC0000030391278U202100000555203300000555203331/10/20211312    31902327239421964320000E1AD0300000199490000000000000                                         LACTATO RINGER USP (HARTMANN)  SOL INY  BOL X 1000ML BAXTERBIN     1
CC0000030391278U202100000555203300000555203331/10/20212018     3300004239421964320000N07CA400001335820000000000000                                                                                   PASEDOL TAB 50 MGTAB     1
CC0000030391278U202100000555203300000555203331/10/20211220     3300004239421964320000N07CA400001335820000000000000                                                                                   PASEDOL TAB 50 MGTAB     2
CC0000030391278U202100000555203300000555203331/10/20211220     3300004239421964320000A03F0500001692520000000000000                                                                   ALIZAPRIDA HCL SLN INY 50 MG/2 MLAMP     1
CC0000030391278U202100000555203300000555203331/10/20211847     3300004239421964320000N02BA100001276940000000000000                                                                  ACIDO ACETIL SALIC?LICO TAB 100 MGTAB     1
CC0000030391278U202100000555203300000555203331/10/20212113     3300004239421964320000N2BB0100000787510000000000000                                                                    DIPIRONA SODICA Sln Iny 1 g/2 mlAMP     1
CC0000030391278U202100000555203300000555203331/10/20211219     3300004239421964320000N02BB100000777810000000000000                                                               DIPIRONA MAGNESICA SLN INY 2.5 G/5 MLAMP     1
