PA0000F35806072A202100000027660700000027660731/10/20210852    3190333624042196419000011082700001620070000000000000                                                               EQUIPO SET PRIMARIO C/CLAVE REF 14001BOL     1
PA0000F35806072A202100000027660700000027660731/10/20210852    31903336240421964190000E1AD0300000199490000000000000                                         LACTATO RINGER USP (HARTMANN)  SOL INY  BOL X 1000ML BAXTERBIN     1
PA0000F35806072A202100000027660700000027660731/10/20210852    31903336240421964190000A3BB0200000512940000000000000                                                                          BUSCAPINA SIMPLE Iny 20 mgAMP     1
PA0000F35806072A202100000027660700000027660731/10/20210852    31903336240421964190000N1AX0100003889000000000000000                                                                       KETAMINA Iny 50 mg/ml x 10 mlVAL     1
PA0000F35806072A202100000027660700000027660731/10/20210852    3190333624042196419000038568600000256960000000000000                                                                                   SONDA NELATON #14SIN     1
PA0000F35806072A202100000027660700000027660731/10/20210852    31903336240421964190000E1AB0300003888390000000000000                                                            SOLUCION SALINA 0.9% SLN INY BO X 500 MLBOL     1
PA0000F35806072A202100000027660700000027660731/10/20210852    31903336240421964190000D08AF900000512990000000000000                                                            FURACIN POMADA 0.2 G/100 G TU X 40 G /R/TUB     1
PA0000F35806072A202100000027660700000027660731/10/20210852    3190333624042196419000000601900000258430000000000000                                                            APOSITO OPSIT POST -OP 0714  25CM X 10CMSIN     3
PA0000F35806072A202100000027660700000027660731/10/20210852    3190333624042196419000042535700000222070000000000000                                                              SISTEMA SUCCION EXOVAC 1/4PULG (6.4MM)CAJ     1
PA0000F35806072A202100000027660700000027660731/10/20210852    3190333624042196419000015994600000632480000000000000                                                                          MONOCRYL 4-0 PS-2 45 Y496GSIN     5
PA0000F35806072A202100000027660700000027660731/10/20210852    3190333624042196419000015944000000632490000000000000                                                                           MONOCRYL 3-0 PS2  MCP427HSIN     4
PA0000F35806072A202100000027660700000027660731/10/20210852    3190333624042196419000017565400000232590000000000000                                                                             PROLENE 1 75 CT-1 8425HSIN     2
PA0000F35806072A202100000027660700000027660731/10/20210852    3190333624042196419000019487500000602970000000000000                                                                           VICRYL 2-0 CT1 90 VCP345HSIN     8
PA0000F35806072A202100000027660700000027660731/10/20210852    3190333624042196419000012474000000232230000000000000                                                                SUTURA ETHILON 4-0 SC-20 45CM 14502TSIN     2
PA0000F35806072A202100000027660700000027660731/10/20210852    3190333624042196419000012472400000232190000000000000                                                                 SUTURA ETHILON 2-0 SC-26 45CM  164TSIN     2
PA0000F35806072A202100000027660700000027660731/10/20210852    3190333624042196419000043879200001138180000000000000                                                                                   HOJA BISTURI # 11SOB     1
PA0000F35806072A202100000027660700000027660731/10/20210852    3190333624042196419000043879400001138170000000000000                                                                  HOJA BISTURI # 10 CSSB 10 01002000SOB     2
PA0000F35806072A202100000027660700000027660731/10/20210852    3190333624042196419000043879100001138200000000000000                                                                  HOJA BISTURI # 15 CSSB 15 01002003SOB     2
PA0000F35806072A202100000027660700000027660731/10/20210852    3190333624042196419000043879500001138210000000000000                                                                                    HOJA BISTURI #20SOB     2
PA0000F35806072A202100000027660700000027660731/10/20210852    31903336240421964190000Q1A13500001585200000000000000                        JERINGA PUNTA CAT SIN AGUJA REF 309620 CAJ X 40   50ML BN EXENTO-DC.417/2020SOB     4
PA0000F35806072A202100000027660700000027660731/10/20210852    3190333624042196419000045138000001413890000000000000                                                                       LAPIZ ELECTROBISTURI  SOB X 1SOB     2
PA0000F35806072A202100000027660700000027660731/10/20210852    31903336240421964190000R3CA0400000777470000000000000                                                               ADRENALINA HCL SLN INY 1 MG / ML RYANAMP     5
PA0000F35806072A202100000027660700000027660731/10/20210852    31903336240421964190000N1BA1900000554750000000000000                                                                     ROXICAINA JALEA 2% TUBO X 30 MLTUB     1
PA0000F35806072A202100000027660700000027660731/10/20210852    3190333624042196419000011055600000349930000000000000                                                             MEDIA ANTIEMBOLICA MUSLO T.V.P 98 ( XL)BOL     1
PA0000F35806072A202100000027660700000027660731/10/20210852    31903336240421964190000J01DA300001239950000000000000                                                            CEFAZOLINA SODICA POLVO LIOF SLN INY 1 GVAL     2
PA0000F35806072A202100000027660700000027660731/10/20210852    3190333624042196419000016830000000970620000000000000                                                             SIST FIJACION CAT PERIFERICO 6.5X7 1683SOB     1
PA0000F35806072A202100000027660700000027660731/10/20210852    31903336240421964190000Q1AA7100000610620000000000000                                                            CATETER PERIFE INTROCAN # 18G 4251687-04SIN     1
PA0000F35806072A202100000027660700000027660731/10/20210852    3190333624042196419000022425200000548240000000000000                       EXTENSION DE ANESTESIA REF 1139 SOB X 1 SHERLEG  ADULTO BN EXENTO-DC.417/2020SIN     1
PA0000F35806072A202100000027660700000027660731/10/20210852    3190333624042196419000022426800001140510000000000000                                                                    EQUIPO MACROGOTEO BAXTER MRC0001SOB     1
PA0000F35806072A202100000027660700000027660731/10/20210852    3190333624042196419000020750600000296780000000000000                                                                PLACA ELECTRO RETORNO PACIENTE E7506SIN     2
PA0000F35806072A202100000027660700000027660731/10/20210852    3190333624042196419000031188000000236790000000000000                                                                                     CISTOFLO ADULTOSIN     1
PA0000F35806072A202100000027660700000027660731/10/20210852    3190333624042196419000038569900001124970000000000000                                                                              SONDA FOLEY #14 2 VIASSOB     1
PA0000F35806072A202100000027660700000027660731/10/20210852    3190333624042196419000030161400001459220000000000000                                                                       MANGUERA SUCCION 6 MM*3.1 MTSSOB     1
PA0000F35806072A202100000027660700000027660731/10/20210852    3190333624042196419000020038600000256760000000000000                                                                SONDA SUCCION NELATON C/CONTROL # 16SIN     1
PA0000F35806072A202100000027660700000027660731/10/20210852    3190333624042196419000011073300001096420000000000000                                                                BOLSA DE SUCCION DE FLUIDOS x 2500mLBOL     1
PA0000F35806072A202100000027660700000027660731/10/20210852    3190333624042196419000035356500003919000000000000000                                                                                        LLAVE 3 VIASSOB     3
PA0000F35806072A202100000027660700000027660731/10/20210852    3190333624042196419000029987800000325460000000000000                                                             TUBO ENDOTRAQ 8.0 C/B Y ESPIRAL INTERNASIN     1
PA0000F35806072A202100000027660700000027660731/10/20210852    3190333624042196419000051515500000598160000000000000                                                                            MASCARILLA ANESTESIA # 5SIN     1
PA0000F35806072A202100000027660700000027660731/10/20210852    3190333624042196419000031010900000762730000000000000                                                                          CANULA GUEDEL # 4 (100 MM)SOB     1
PA0000F35806072A202100000027660700000027660731/10/20210852    3190333624042196419000053074400000607910000000000000                                                               GASA ESTERIL 10*10 SOBRE X 3 UNIDADESSOB     7
PA0000F35806072A202100000027660700000027660731/10/20210852    3190333624042196419000013077800000471960000000000000                                                             GASA NO TEJIDA EST 7.5 X 7.5 SOB X 3 UNSOB     1
PA0000F35806072A202100000027660700000027660731/10/20210852    3190333624042196419000011085200001585390000000000000                                                                       GUANTE QUIRURGICO TALLA 7 1/2SOB     2
PA0000F35806072A202100000027660700000027660731/10/20210852    3190333624042196419000011085100001082120000000000000                                                                           GUANTE QUIRURGICO TALLA 7SOB     8
PA0000F35806072A202100000027660700000027660731/10/20210852    3190333624042196419000043485100001618510000000000000                GUANTE QUIRURGICO DE LATEX REF 2D72N65X CAJ X 50 PROTEXIS  6.5 BN EXENTO-DC.417/2020SOB    11
PA0000F35806072A202100000027660700000027660731/10/20210852    3190333624042196419000024674000000220660000000000000                             JERINGA A 3 PARTES CON AGUJA  SOB X 1 RYMCO  10ML BN EXENTO-DC.417/2020SIN     7
PA0000F35806072A202100000027660700000027660731/10/20210852    3190333624042196419000024673600000222980000000000000                                                                     JERINGA DESECHABLE 5 ml 27*11/2SIN     2
PA0000F35806072A202100000027660700000027660731/10/20210852    3190333624042196419000024673000001411210000000000000                                                                  JERINGA DESECHABLE 3 ML 21 X 1 1/2SOB     2
PA0000F35806072A202100000027660700000027660731/10/20210852    31903336240421964190000E1AB0500003888400000000000000                                                              SOLUCION SALINA 0.9% SLN INY X 1000 MLBOL     5
PA0000F35806072A202100000027660700000027660731/10/20210852    31903336240421964190000E1AD0200003888320000000000000                                                                              HARTMAN SLN INY 500 MLBOL     4
PA0000F35806072A202100000027660700000027660731/10/20210852    31903336240421964190000E1AB0700003888350000000000000                                                            SOLUCION SALINA 0.9% SLN INY BO X 250 MLBOL     2
PA0000F35806072A202100000027660700000027660731/10/20210852    31903336240421964190000E1AB0200000199290000000000000                                                            SOLUCION SALINA 0.9% SLN INY BO X 100 MLBIN     3
PA0000F35806072A202100000027660700000027660731/10/20210852    31903336240421964190000V3AB1900001177870000000000000                                                                      PROSTIGMINE Sln Iny 0.5 mg/ mlAMP     4
PA0000F35806072A202100000027660700000027660731/10/20210852    31903336240421964190000B02AA100001407470000000000000                                                                    CLINTRANEX SLN INY 500 MG / 5 MLAMP     2
PA0000F35806072A202100000027660700000027660731/10/20210852    31903336240421964190000N1BA2400001195280000000000000                                                                    LIDOCAINA 2% S/E Sln Iny x 10 mlAMP     1
PA0000F35806072A202100000027660700000027660731/10/20210852    31903336240421964190000N02B1100001169680000000000000                              PARACETAMOL 1000MG/100ML(10MG/ML) SOL INY  VIAL X 100ML FRESENIUS KABIVAL     1
PA0000F35806072A202100000027660700000027660731/10/20210852    31903336240421964190000N2BB1100000217160000000000000                                                                      NOVALGINA Sln Iny 2.5 g x 5 mlAMP     2
PA0000F35806072A202100000027660700000027660731/10/20210852    31903336240421964190000M01A0400001341250000000000000                                                                              DYNASTAT AMP 40 MG /R/VAL     1
PA0000F35806072A202100000027660700000027660731/10/20210852    31903336240421964190000H02AB500001664950000000000000                                                            DEXAMETASONA SLN INY 8 MG/2 ML AMP /CDS/AMP     1
PA0000F35806072A202100000027660700000027660731/10/20210852    31903336240421964190000A2BC0900000200150000000000000                                                                               ORAZOLE Sln Iny 40 mgCIN     1
PA0000F35806072A202100000027660700000027660731/10/20210852    31903336240421964190000A04A1400001467560000000000000                                                                      ONDANSETRON SLN INY 8 MG/ 4 MLVAL     1
PA0000F35806072A202100000027660700000027660731/10/20210852    31903336240421964190000A4AD0200000202990000000000000                                                                     PLITICAN HCL Sln Iny 50 mg/2 mlAMP     1
PA0000F35806072A202100000027660700000027660731/10/20210852    31903336240421964190000A3BA0100001109400000000000000                                                                          ATROPINA SLN INY 1 MG / MLAMP     1
PA0000F35806072A202100000027660700000027660731/10/20210852    31903336240421964190000M03AC100000197200000000000000                                                                   TRACURION SLN INY 10 MG /5 ML /R/AMP     1
PA0000F35806072A202100000027660700000027660731/10/20210852    31903336240421964190000N01A0400003939010000000000000                                               MAYOPROFOL 200MG/20ML(1%) EMUL INY CAJ X 1VIAL X 20MLVAL     1
PA0000F35806072A202100000027660700000027660731/10/20210852    31903336240421964190000N2AA0700001587170000000000000                                                                                 ULTIVA Sln Iny 2 mgVAL     1
PA0000F35806072A202100000027660700000027660731/10/20210852    31903336240421964190000N1AH0200003906560000000000000                                                                     FENTANIL Iny 0.05 mg/ml x 10 mlAMP     2
PA0000F35806072A202100000027660700000027660731/10/20210852    31903336240421964190000N5CD0300000218170000000000000                                                                          DORMICUM Sln Iny 5 mg/5 mlAMP     1
