RC0001201286345H202100015052710300015052710331/10/20211931    3190323923742196425000038568200000257000000000000000                                                                                   SONDA NELATON #06SIN     1
RC0001201286345H202100015052710300015052710331/10/20211931    3190323923742196425000024674000000220660000000000000                             JERINGA A 3 PARTES CON AGUJA  SOB X 1 RYMCO  10ML BN EXENTO-DC.417/2020SIN     1
RC0001201286345H202100015052710300015052710331/10/20211931    31903239237421964250000E1AB0300003888390000000000000                                                            SOLUCION SALINA 0.9% SLN INY BO X 500 MLBOL     1
