TI0001044611069H202100916250103100916250103131/10/20210249    3150024423742196425000011082200001407940000000000000                                                              EQUIPO EXT MICROTUBO Y 2 VALVUL 2N8371SOB     1
TI0001044611069H202100916250103100916250103131/10/20210249    3150024423742196425000011082700001620070000000000000                                                               EQUIPO SET PRIMARIO C/CLAVE REF 14001BOL     1
TI0001044611069H202100916250103100916250103131/10/20210249    3150024423742196425000011137100001419310000000000000                                                               TIRA GLUCOMETRIA FREESTYLE H OPTIUM .PZA     1
TI0001044611069H202100916250103100916250103131/10/20210249    3150024423742196425000024674000000220660000000000000                             JERINGA A 3 PARTES CON AGUJA  SOB X 1 RYMCO  10ML BN EXENTO-DC.417/2020SIN     5
TI0001044611069H202100916250103100916250103131/10/20210249    3150024423742196425000030936900001431840000000000000                                                                                              BURETABOL     1
TI0001044611069H202100916250103100916250103131/10/20210249    3150024423742196425000000602600001259280000000000000                                                             APOSITO TEGADERM IV PD 1610 5CM X 5.7CMSOB     1
TI0001044611069H202100916250103100916250103131/10/20210249    31500244237421964250000E1AD0300000199490000000000000                                         LACTATO RINGER USP (HARTMANN)  SOL INY  BOL X 1000ML BAXTERBIN     4
