CC0001140828821H202100000555182500000555182531/10/20210608     3300009237421964250000A02BC100001677520000000000000                                                                ESOMEPRAZOL POLVO LIOF INY 40 MG /R/VAL     1
CC0001140828821H202100000555182500000555182531/10/20210609     3300009237421964250000A4AD0200000202990000000000000                                                                     PLITICAN HCL Sln Iny 50 mg/2 mlAMP     4
CC0001140828821H202100000555182500000555182531/10/20210609     3300009237421964250000A6AC0200001467010000000000000                                                             LACTULAX JARABE 66.7G/100ML SOX15ML /R/SOB     3
CC0001140828821H202100000555182500000555182531/10/20210030     3300009237421964250000A6AC0200001467010000000000000                                                             LACTULAX JARABE 66.7G/100ML SOX15ML /R/SOB     1
CC0001140828821H202100000555182500000555182531/10/20210610     3300009237421964250000B1AB0200003939510000000000000                 ENOXAPARINA SODICA 40MG/0.4ML(100MG/ML) SOL INY INST CAJ X 2JERPREL X 0.4ML TECHDOWJRP     1
CC0001140828821H202100000555182500000555182531/10/20211650    31500385237421964250000E1AD0200003888320000000000000                                                                              HARTMAN SLN INY 500 MLBOL     1
CC0001140828821H202100000555182500000555182531/10/20211649    31500385237421964250000E1AD0200003888320000000000000                                                                              HARTMAN SLN INY 500 MLBOL     1
CC0001140828821H202100000555182500000555182531/10/20210608     3300009237421964250000C3CA0200000195520000000000000                                                                           LASIX SLN INY 20 MG/ 2 MLAMP     1
CC0001140828821H202100000555182500000555182531/10/20210031     3300009237421964250000C3CA0200000195520000000000000                                                                           LASIX SLN INY 20 MG/ 2 MLAMP     1
CC0001140828821H202100000555182500000555182531/10/20210609     3300009237421964250000H03AA500001315460000000000000                                                                                SYNTHROID TAB 50 MCGTAB     1
CC0001140828821H202100000555182500000555182531/10/20210030     3300009237421964250000J1DA3100000187510000000000000                                                                           ROCEFIN Polvo SLN INY 1 GCIN     2
CC0001140828821H202100000555182500000555182531/10/20212332     3300009237421964250000J3BA0500001278190000000000000                                                                            BACTRIM F TAB 800/160 MGTAB     1
CC0001140828821H202100000555182500000555182531/10/20210030     3300009237421964250000J3BA0500001278190000000000000                                                                            BACTRIM F TAB 800/160 MGTAB     1
CC0001140828821H202100000555182500000555182531/10/20212331     3300009237421964250000J2AX0200001333950000000000000                                                                                 DIFLUCAN Cap 200 mgCAP     1
CC0001140828821H202100000555182500000555182531/10/20210030     3300009237421964250000J2AX0200001333950000000000000                                                                                 DIFLUCAN Cap 200 mgCAP     1
CC0001140828821H202100000555182500000555182531/10/20212331     3300009237421964250000N2BB0200000513030000000000000                                                                           LISALGIL Sln Iny 2 g/5 mlAMP     1
CC0001140828821H202100000555182500000555182531/10/20210609     3300009237421964250000N2BB0200000513030000000000000                                                                           LISALGIL Sln Iny 2 g/5 mlAMP     2
CC0001140828821H202100000555182500000555182531/10/20210030     3300009237421964250000N2BB0200000513030000000000000                                                                           LISALGIL Sln Iny 2 g/5 mlAMP     1
CC0001140828821H202100000555182500000555182531/10/20212332     3300009237421964250000N02B1100001169680000000000000                              PARACETAMOL 1000MG/100ML(10MG/ML) SOL INY  VIAL X 100ML FRESENIUS KABIVAL     1
CC0001140828821H202100000555182500000555182531/10/20210609     3300009237421964250000N02B1100001169680000000000000                              PARACETAMOL 1000MG/100ML(10MG/ML) SOL INY  VIAL X 100ML FRESENIUS KABIVAL     1
CC0001140828821H202100000555182500000555182531/10/20210031     3300009237421964250000N02B1100001169680000000000000                              PARACETAMOL 1000MG/100ML(10MG/ML) SOL INY  VIAL X 100ML FRESENIUS KABIVAL     3
