CC0000036148059U202100050131444800050131444831/10/20210603    3190233723942196432000043485100001618510000000000000                GUANTE QUIRURGICO DE LATEX REF 2D72N65X CAJ X 50 PROTEXIS  6.5 BN EXENTO-DC.417/2020SOB     2
CC0000036148059U202100050131444800050131444831/10/20210603    3190233723942196432000001633100001166650000000000000                                                                            CUTIMED SORBACT 7 X 9 CMSOB     1
CC0000036148059U202100050131444800050131444831/10/20210603    3190233723942196432000021593100001571610000000000000                                                                    AQUACEL AG+ EXTRA 10*10CM 413567SOB     1
