TI0001044646343H202100000555187500000555187531/10/20211240    31500343237421964250000E1AD0300000199490000000000000                                         LACTATO RINGER USP (HARTMANN)  SOL INY  BOL X 1000ML BAXTERBIN     3
TI0001044646343H202100000555187500000555187531/10/20211641     3300009237421964250000B5AA0100000718790000000000000                                                                         FLEXBUMIN 20% Sln Iny 50 mlBOL     4
TI0001044646343H202100000555187500000555187531/10/20210231     3300009237421964250000A02BC700001684270000000000000                                                            OMEPRAZOL 40MG POLVO LIOFILIZADO AMPOLLAVAL     1
