CC0001129533798H202100015022527400015022527431/10/20211734    31903288237421964250000V07A1300000502600000000000000                                                                                AGUA ESTERIL x 10 mlAMP     4
CC0001129533798H202100015022527400015022527431/10/20211734    3190328823742196425000024674000000220660000000000000                             JERINGA A 3 PARTES CON AGUJA  SOB X 1 RYMCO  10ML BN EXENTO-DC.417/2020SIN     5
CC0001129533798H202100015022527400015022527431/10/20211734    3190328823742196425000011082700001620070000000000000                                                               EQUIPO SET PRIMARIO C/CLAVE REF 14001BOL     1
CC0001129533798H202100015022527400015022527431/10/20211734    3190328823742196425000030936900001431840000000000000                                                                                              BURETABOL     1
CC0001129533798H202100015022527400015022527431/10/20211734    31903288237421964250000E1AB0300003888390000000000000                                                            SOLUCION SALINA 0.9% SLN INY BO X 500 MLBOL     1
