CC0000072133553H202100000555190000000555190031/10/20211810     3300009237421964250000A6AC0200001467010000000000000                                                             LACTULAX JARABE 66.7G/100ML SOX15ML /R/SOB     3
CC0000072133553H202100000555190000000555190031/10/20212307     3300009237421964250000J01XA400001212420000000000000                                                               VANCOMICINA POLVO LIOF SLN INY 500 MGVAL     2
CC0000072133553H202100000555190000000555190031/10/20211809     3300009237421964250000J01XA400001212420000000000000                                                               VANCOMICINA POLVO LIOF SLN INY 500 MGVAL     2
CC0000072133553H202100000555190000000555190031/10/20211810     3300009237421964250000B01AB200000513350000000000000                                                                        CLENOX SLN INY 40 MG/ 0.4 MLJRP     1
CC0000072133553H202100000555190000000555190031/10/20211810     3300009237421964250000C07A1200001304880000000000000                                                                           PROPRANOLOL HCL TAB 40 MGTAB     1
CC0000072133553H202100000555190000000555190031/10/20211810     3300009237421964250000J01CR300001659480000000000000                                                                  DELBACTAM POLVO LIOF SLN INY 4.5 GVAL     4
CC0000072133553H202100000555190000000555190031/10/20211105    31903301237421964250000V07A1300000502600000000000000                                                                                AGUA ESTERIL x 10 mlAMP     4
