CC0001043605320U202100050131453100050131453131/10/20212133    3150040623942196432000038568300000257010000000000000                                                                                   SONDA NELATON #08SIN     1
CC0001043605320U202100050131453100050131453131/10/20212133    31500406239421964320000B05C0200001339660000000000000                                                                        SOLUCION SALINA 0.9% X 10 MLJRP     1
CC0001043605320U202100050131453100050131453131/10/20212133    3150040623942196432000036441300000236540000000000000                                                                    JERINGA 1 ML GASES ARTERIAL 9023SIN     1
