PA0000669271942H202100000555191500000555191531/10/20210555     3300009237421964250000A03F0300001626860000000000000                                                                   METOCLOPRAMIDA SLN INY 10 MG/2 MLAMP     1
PA0000669271942H202100000555191500000555191531/10/20210645    31902949237421964250000E1AD0300000199490000000000000                                         LACTATO RINGER USP (HARTMANN)  SOL INY  BOL X 1000ML BAXTERBIN     2
PA0000669271942H202100000555191500000555191531/10/20210555     3300009237421964250000C7FA0200001277980000000000000                                                                                    NORVAS TAB 10 MGTAB     1
PA0000669271942H202100000555191500000555191531/10/20211103     3300009237421964250000C09AA500001314270000000000000                                                                                 CAPTOPRIL TAB 25 MGTAB     2
PA0000669271942H202100000555191500000555191531/10/20210555     3300009237421964250000N2BB1100000217160000000000000                                                                      NOVALGINA Sln Iny 2.5 g x 5 mlAMP     1
PA0000669271942H202100000555191500000555191531/10/20210555     3300009237421964250000N02B1100001169680000000000000                              PARACETAMOL 1000MG/100ML(10MG/ML) SOL INY  VIAL X 100ML FRESENIUS KABIVAL     1
