RC0001187466818H202100015122513100015122513131/10/20211429    3150034323742196425000035356500003919000000000000000                                                                                        LLAVE 3 VIASSOB     4
RC0001043714288H202100015122513100015122513131/10/20211429    3150034323742196425000022426800001140510000000000000                                                                    EQUIPO MACROGOTEO BAXTER MRC0001SOB     3
RC0001187466818H202100015122513100015122513131/10/20211429    3150034323742196425000011082700001620070000000000000                                                               EQUIPO SET PRIMARIO C/CLAVE REF 14001BOL     1
RC0001043714288H202100015122513100015122513131/10/20211429    31500343237421964250000E1AD0200003888320000000000000                                                                              HARTMAN SLN INY 500 MLBOL     1
