RC0001048088138H202100000555182300000555182331/10/20212328     3300009237421964250000J01DA300001239950000000000000                                                            CEFAZOLINA SODICA POLVO LIOF SLN INY 1 GVAL     1
RC0001048088138H202100000555182300000555182331/10/20211532     3300009237421964250000J01DA300001239950000000000000                                                            CEFAZOLINA SODICA POLVO LIOF SLN INY 1 GVAL     1
RC0001048088138H202100000555182300000555182331/10/20210606     3300009237421964250000J01DA300001239950000000000000                                                            CEFAZOLINA SODICA POLVO LIOF SLN INY 1 GVAL     1
RC0001048088138H202100000555182300000555182331/10/20210029     3300009237421964250000J01DA300001239950000000000000                                                            CEFAZOLINA SODICA POLVO LIOF SLN INY 1 GVAL     1
RC0001048088138H202100000555182300000555182331/10/20210606     3300009237421964250000N02B1100001169680000000000000                              PARACETAMOL 1000MG/100ML(10MG/ML) SOL INY  VIAL X 100ML FRESENIUS KABIVAL     1
RC0001048088138H202100000555182300000555182331/10/20210029     3300009237421964250000N02B1100001169680000000000000                              PARACETAMOL 1000MG/100ML(10MG/ML) SOL INY  VIAL X 100ML FRESENIUS KABIVAL     1
RC0001048088138H202100000555182300000555182331/10/20211139    31900933237421964250000V07A1300000502600000000000000                                                                                AGUA ESTERIL x 10 mlAMP     5
