CC0000007143570H202100000555195400000555195431/10/20210743     3300009237421964250000A2BC0900000200150000000000000                                                                               ORAZOLE Sln Iny 40 mgCIN     1
CC0000007143570H202100000555195400000555195431/10/20211713     3300009237421964250000A3BB0200000512940000000000000                                                                          BUSCAPINA SIMPLE Iny 20 mgAMP     1
CC0000007143570H202100000555195400000555195431/10/20210742     3300009237421964250000A3BB0200000512940000000000000                                                                          BUSCAPINA SIMPLE Iny 20 mgAMP     2
CC0000007143570H202100000555195400000555195431/10/20211800    31903028237421964250000E1AD0200003888320000000000000                                                                              HARTMAN SLN INY 500 MLBOL     3
CC0000007143570H202100000555195400000555195431/10/20210743     3300009237421964250000N02B1100001169680000000000000                              PARACETAMOL 1000MG/100ML(10MG/ML) SOL INY  VIAL X 100ML FRESENIUS KABIVAL     3
CC0000007143570H202100000555195400000555195431/10/20210743     3300009237421964250000N03A0800001278440000000000000                                                                                LYRICA CAP 75 MG /R/CAP     2
CC0000007143570H202100000555195400000555195431/10/20211713     3300009237421964250000N02A3100001227160000000000000                                                                    OXYRAPID SLN INY 10 MG/ML X 1 MLAMP     6
CC0000007143570H202100000555195400000555195431/10/20211800    31903028237421964250000V07A1300000502600000000000000                                                                                AGUA ESTERIL x 10 mlAMP     5
