TI0001044600789U202100050131443500050131443531/10/20210102    3190315823942196432000045136100001419300000000000000                                                                            LANCETA DEXTROMETER X UNPZA     1
TI0001044600789U202100050131443500050131443531/10/20210102    3190315823942196432000022426800001140510000000000000                                                                    EQUIPO MACROGOTEO BAXTER MRC0001SOB     1
TI0001044600789U202100050131443500050131443531/10/20210102    31903158239421964320000Q1AA7300000610640000000000000                                                            CATETER PERIFE INTROCAN # 22G 4251628-04SIN     1
TI0001044600789U202100050131443500050131443531/10/20210102    3190315823942196432000016830000000970620000000000000                                                             SIST FIJACION CAT PERIFERICO 6.5X7 1683SOB     1
TI0001044600789U202100050131443500050131443531/10/20210102    31903158239421964320000E1AA0100003888590000000000000                                                                        DEXTROSA 5% Sln Iny X 500 mlBOL     1
TI0001044600789U202100050131443500050131443531/10/20210102    3190315823942196432000011137100001419310000000000000                                                               TIRA GLUCOMETRIA FREESTYLE H OPTIUM .PZA     1
