RC0001043714288H202100015122513200015122513231/10/20211633    3150022123742196425000030161400001459220000000000000                                                                       MANGUERA SUCCION 6 MM*3.1 MTSSOB     1
RC0001043714288H202100015122513200015122513231/10/20211633    3150022123742196425000039173900001619710000000000000                                                                           TUBO ENDOTRAQUEAL S/B 4.0SOB     2
RC0001043714288H202100015122513200015122513231/10/20211633    3150022123742196425000019819800000259860000000000000                                                                           SONDA TRACH CARE 8F 198-5SIN     1
RC0001043714288H202100015122513200015122513231/10/20211633    31500221237421964250000Q1AA1000000256790000000000000                                                                         SONDA ASPIRACION CONTROL #8SIN     2
RC0001043714288H202100015122513200015122513231/10/20211633    3150022123742196425000011059500001646260000000000000                                                              RESUCITADOR MANUAL NEONATAL LMI86-8086BOL     1
RC0001043714288H202100015122513200015122513231/10/20211633    3150022123742196425000011077300001096490000000000000                                                             CIRCUITO PED VENSTAR DOBLE 1 5m MP00338BOL     1
RC0001043714288H202100015122513200015122513231/10/20211633    3150022123742196425000020816000001096410000000000000                                                                          LINER PARED DELGADA 1500CCBOL     1
