RC0001158467183H202100914826103100914826103131/10/20212112    3150038323742196425000011082700001620070000000000000                                                               EQUIPO SET PRIMARIO C/CLAVE REF 14001BOL     1
RC0001158467183H202100914826103100914826103131/10/20212112    3150038323742196425000030936900001431840000000000000                                                                                              BURETABOL     1
RC0001158467183H202100914826103100914826103131/10/20212121    31500383237421964250000E1AD0300000199490000000000000                                         LACTATO RINGER USP (HARTMANN)  SOL INY  BOL X 1000ML BAXTERBIN     1
