RC0001063188067H202100015122512700015122512731/10/20211006    31500343237421964250000V07A1300000502600000000000000                                                                                AGUA ESTERIL x 10 mlAMP     5
RC0001187466818H202100015122512700015122512731/10/20211006    31500343237421964250000V07A1300000502600000000000000                                                                                AGUA ESTERIL x 10 mlAMP     5
RC0001043714288H202100015122512700015122512731/10/20211006    31500343237421964250000V07A1300000502600000000000000                                                                                AGUA ESTERIL x 10 mlAMP    10
TI0001044611069H202100015122512700015122512731/10/20211006    3150034323742196425000045136100001419300000000000000                                                                            LANCETA DEXTROMETER X UNPZA     2
RC0001063188067H202100015122512700015122512731/10/20211006    3150034323742196425000045136100001419300000000000000                                                                            LANCETA DEXTROMETER X UNPZA     3
RC0001187466818H202100015122512700015122512731/10/20211006    3150034323742196425000045136100001419300000000000000                                                                            LANCETA DEXTROMETER X UNPZA     3
RC0001140714746H202100015122512700015122512731/10/20211006    3150034323742196425000045136100001419300000000000000                                                                            LANCETA DEXTROMETER X UNPZA     2
TI0001044780282H202100015122512700015122512731/10/20211006    3150034323742196425000045136100001419300000000000000                                                                            LANCETA DEXTROMETER X UNPZA     2
TI0001044646343H202100015122512700015122512731/10/20211006    3150034323742196425000045136100001419300000000000000                                                                            LANCETA DEXTROMETER X UNPZA     2
RC0001043714288H202100015122512700015122512731/10/20211006    3150034323742196425000045136100001419300000000000000                                                                            LANCETA DEXTROMETER X UNPZA     6
TI0001072108867H202100015122512700015122512731/10/20211006    3150034323742196425000045136100001419300000000000000                                                                            LANCETA DEXTROMETER X UNPZA     2
TI0001044611069H202100015122512700015122512731/10/20211006    3150034323742196425000024674000000220660000000000000                             JERINGA A 3 PARTES CON AGUJA  SOB X 1 RYMCO  10ML BN EXENTO-DC.417/2020SIN     5
RC0001063188067H202100015122512700015122512731/10/20211006    3150034323742196425000024674000000220660000000000000                             JERINGA A 3 PARTES CON AGUJA  SOB X 1 RYMCO  10ML BN EXENTO-DC.417/2020SIN     5
RC0001187466818H202100015122512700015122512731/10/20211006    3150034323742196425000024674000000220660000000000000                             JERINGA A 3 PARTES CON AGUJA  SOB X 1 RYMCO  10ML BN EXENTO-DC.417/2020SIN     5
RC0001140714746H202100015122512700015122512731/10/20211006    3150034323742196425000024674000000220660000000000000                             JERINGA A 3 PARTES CON AGUJA  SOB X 1 RYMCO  10ML BN EXENTO-DC.417/2020SIN     5
TI0001044780282H202100015122512700015122512731/10/20211006    3150034323742196425000024674000000220660000000000000                             JERINGA A 3 PARTES CON AGUJA  SOB X 1 RYMCO  10ML BN EXENTO-DC.417/2020SIN     5
TI0001044646343H202100015122512700015122512731/10/20211006    3150034323742196425000024674000000220660000000000000                             JERINGA A 3 PARTES CON AGUJA  SOB X 1 RYMCO  10ML BN EXENTO-DC.417/2020SIN     5
RC0001043714288H202100015122512700015122512731/10/20211006    3150034323742196425000024674000000220660000000000000                             JERINGA A 3 PARTES CON AGUJA  SOB X 1 RYMCO  10ML BN EXENTO-DC.417/2020SIN     5
TI0001072108867H202100015122512700015122512731/10/20211006    3150034323742196425000024674000000220660000000000000                             JERINGA A 3 PARTES CON AGUJA  SOB X 1 RYMCO  10ML BN EXENTO-DC.417/2020SIN     5
RC0001063188067H202100015122512700015122512731/10/20211006    3150034323742196425000024673600000222980000000000000                                                                     JERINGA DESECHABLE 5 ml 27*11/2SIN     5
RC0001187466818H202100015122512700015122512731/10/20211006    3150034323742196425000024673600000222980000000000000                                                                     JERINGA DESECHABLE 5 ml 27*11/2SIN     5
RC0001140714746H202100015122512700015122512731/10/20211006    3150034323742196425000024673600000222980000000000000                                                                     JERINGA DESECHABLE 5 ml 27*11/2SIN     5
RC0001043714288H202100015122512700015122512731/10/20211006    3150034323742196425000024673600000222980000000000000                                                                     JERINGA DESECHABLE 5 ml 27*11/2SIN     5
RC0001063188067H202100015122512700015122512731/10/20211006    3150034323742196425000011047900000223010000000000000                                                                            JERINGA X 1ML REF 302579SIN     5
RC0001187466818H202100015122512700015122512731/10/20211006    3150034323742196425000011047900000223010000000000000                                                                            JERINGA X 1ML REF 302579SIN     5
RC0001043714288H202100015122512700015122512731/10/20211006    3150034323742196425000011047900000223010000000000000                                                                            JERINGA X 1ML REF 302579SIN     5
RC0001063188067H202100015122512700015122512731/10/20211006    3150034323742196425000011082700001620070000000000000                                                               EQUIPO SET PRIMARIO C/CLAVE REF 14001BOL     1
RC0001187466818H202100015122512700015122512731/10/20211006    3150034323742196425000011082700001620070000000000000                                                               EQUIPO SET PRIMARIO C/CLAVE REF 14001BOL     1
TI0001044646343H202100015122512700015122512731/10/20211006    3150034323742196425000001956000001620610000000000000                                                                      CONECTOR MICRO CLAVE LAT-MC100SOB     1
TI0001044646343H202100015122512700015122512731/10/20211006    31500343237421964250000Q1AA7300000610640000000000000                                                            CATETER PERIFE INTROCAN # 22G 4251628-04SIN     1
RC0001063188067H202100015122512700015122512731/10/20211006    3150034323742196425000030936900001431840000000000000                                                                                              BURETABOL     1
RC0001043714288H202100015122512700015122512731/10/20211006    3150034323742196425000030936900001431840000000000000                                                                                              BURETABOL     1
RC0001043714288H202100015122512700015122512731/10/20211006    31500343237421964250000E1AA1400003888550000000000000                                                                         DEXTROSA 10% SLN INY 250 MLBOL     2
TI0001044611069H202100015122512700015122512731/10/20211006    31500343237421964250000E1AD0300000199490000000000000                                         LACTATO RINGER USP (HARTMANN)  SOL INY  BOL X 1000ML BAXTERBIN     5
TI0001044780282H202100015122512700015122512731/10/20211006    31500343237421964250000E1AD0300000199490000000000000                                         LACTATO RINGER USP (HARTMANN)  SOL INY  BOL X 1000ML BAXTERBIN     3
TI0001044646343H202100015122512700015122512731/10/20211006    31500343237421964250000E1AD0300000199490000000000000                                         LACTATO RINGER USP (HARTMANN)  SOL INY  BOL X 1000ML BAXTERBIN     3
RC0001063188067H202100015122512700015122512731/10/20211006    31500343237421964250000E1AB0300003888390000000000000                                                            SOLUCION SALINA 0.9% SLN INY BO X 500 MLBOL     1
RC0001187466818H202100015122512700015122512731/10/20211006    31500343237421964250000E1AB0300003888390000000000000                                                            SOLUCION SALINA 0.9% SLN INY BO X 500 MLBOL     1
RC0001140714746H202100015122512700015122512731/10/20211006    31500343237421964250000E1AB0300003888390000000000000                                                            SOLUCION SALINA 0.9% SLN INY BO X 500 MLBOL     1
RC0001187466818H202100015122512700015122512731/10/20211006    31500343237421964250000E1AB0700003888350000000000000                                                            SOLUCION SALINA 0.9% SLN INY BO X 250 MLBOL     1
RC0001187466818H202100015122512700015122512731/10/20211006    31500343237421964250000E1AA0800000322190000000000000                                                                          DEXTROSA 5% Sln Iny 250 mlBIN     2
TI0001044611069H202100015122512700015122512731/10/20211006    3150034323742196425000011137100001419310000000000000                                                               TIRA GLUCOMETRIA FREESTYLE H OPTIUM .PZA     2
RC0001063188067H202100015122512700015122512731/10/20211006    3150034323742196425000011137100001419310000000000000                                                               TIRA GLUCOMETRIA FREESTYLE H OPTIUM .PZA     3
RC0001187466818H202100015122512700015122512731/10/20211006    3150034323742196425000011137100001419310000000000000                                                               TIRA GLUCOMETRIA FREESTYLE H OPTIUM .PZA     3
RC0001140714746H202100015122512700015122512731/10/20211006    3150034323742196425000011137100001419310000000000000                                                               TIRA GLUCOMETRIA FREESTYLE H OPTIUM .PZA     2
TI0001044780282H202100015122512700015122512731/10/20211006    3150034323742196425000011137100001419310000000000000                                                               TIRA GLUCOMETRIA FREESTYLE H OPTIUM .PZA     2
TI0001044646343H202100015122512700015122512731/10/20211006    3150034323742196425000011137100001419310000000000000                                                               TIRA GLUCOMETRIA FREESTYLE H OPTIUM .PZA     2
RC0001043714288H202100015122512700015122512731/10/20211006    3150034323742196425000011137100001419310000000000000                                                               TIRA GLUCOMETRIA FREESTYLE H OPTIUM .PZA     6
TI0001072108867H202100015122512700015122512731/10/20211006    3150034323742196425000011137100001419310000000000000                                                               TIRA GLUCOMETRIA FREESTYLE H OPTIUM .PZA     2
