RC0001047058108U202100050131452100050131452131/10/20212004    3190233623942196432000024674000000220660000000000000                             JERINGA A 3 PARTES CON AGUJA  SOB X 1 RYMCO  10ML BN EXENTO-DC.417/2020SIN     3
RC0001047058108U202100050131452100050131452131/10/20212004    3190233623942196432000042743200003929860000000000000                   GASA ADHESIVA STRETCH REF 02038-00 ROL X 10MT FIXOMULL 15CM BN EXENTO-DC.417/2020CMT    15
RC0001047058108U202100050131452100050131452131/10/20212004    3190233623942196432000011082700001620070000000000000                                                               EQUIPO SET PRIMARIO C/CLAVE REF 14001BOL     1
RC0001047058108U202100050131452100050131452131/10/20212004    31902336239421964320000Q1AA7400003911720000000000000                                                            CATETER PERIFE INTROCAN # 24G 4251601-04SOB     1
RC0001047058108U202100050131452100050131452131/10/20212004    3190233623942196432000030936900001431840000000000000                                                                                              BURETABOL     1
RC0001047058108U202100050131452100050131452131/10/20212004    31902336239421964320000E1AD0200003888320000000000000                                                                              HARTMAN SLN INY 500 MLBOL     1
