RC0001046723141H202100902660103100902660103131/10/20210934    3190224223742196425000040512700000228750000000000000                                                            BARRERA COLOSTOMIA CONVATEC 32 MM 125016PZA     1
RC0001046723141H202100902660103100902660103131/10/20210934    3190224223742196425000040516900000228620000000000000                                                                     BOLSA COLOSTOMIA CONVATEC 32 MMPZA     1
RC0001046723141H202100902660103100902660103131/10/20210934    3190224223742196425000047373400000228840000000000000                                                                             PINZA COLOSTOMIA 175635PZA     1
RC0001046723141H202100902660103100902660103131/10/20211222    31902242237421964250000Q1AA5900000236800000000000000                                                                            CISTOFLO PEDIAT X 500 mlSIN     1
