CC0001014199740H202100000555200900000555200931/10/20211037     3300009237421964250000A2BC0900000200150000000000000                                                                               ORAZOLE Sln Iny 40 mgCIN     3
CC0001014199740H202100000555200900000555200931/10/20211037     3300009237421964250000A03F0300001626860000000000000                                                                   METOCLOPRAMIDA SLN INY 10 MG/2 MLAMP     3
CC0001014199740H202100000555200900000555200931/10/20211036     3300009237421964250000A03F0300001626860000000000000                                                                   METOCLOPRAMIDA SLN INY 10 MG/2 MLAMP     1
CC0001014199740H202100000555200900000555200931/10/20211208     3300009237421964250000A03A0800001177800000000000000                                                                      COLYPAN SLN INY 50 MG/5 ML /R/AMP     3
CC0001014199740H202100000555200900000555200931/10/20212347    31903053237421964250000E1AB0700003888350000000000000                                                            SOLUCION SALINA 0.9% SLN INY BO X 250 MLBOL     2
CC0001014199740H202100000555200900000555200931/10/20211738    31500534237421964250000E1AB0500003888400000000000000                                                              SOLUCION SALINA 0.9% SLN INY X 1000 MLBOL     2
CC0001014199740H202100000555200900000555200931/10/20211036     3300009237421964250000A12BA100000552980000000000000                                                            CLORURO POTASIO Sln Iny AMP 20 MEQ/10 MLAMP     2
CC0001014199740H202100000555200900000555200931/10/20211257     3300009237421964250000J1KD1200001361080000000000000                                                                     GENTAMICINA SLN INY 160 MG/2 MLAMP     2
CC0001014199740H202100000555200900000555200931/10/20211036     3300009237421964250000N2BB1100000217160000000000000                                                                      NOVALGINA Sln Iny 2.5 g x 5 mlAMP     4
CC0001014199740H202100000555200900000555200931/10/20211036     3300009237421964250000N02B1100001169680000000000000                              PARACETAMOL 1000MG/100ML(10MG/ML) SOL INY  VIAL X 100ML FRESENIUS KABIVAL     4
