CC0000008761530H202100000555190600000555190631/10/20211041     3300009237421964250000A2BC0900000200150000000000000                                                                               ORAZOLE Sln Iny 40 mgCIN     1
CC0000008761530H202100000555190600000555190631/10/20211649     3300009237421964250000A10A1800000725300000000000000                                                             LANTUS SOLOSTAR JER 100 UI/ML X 3 ML /RCAJ     1
CC0000008761530H202100000555190600000555190631/10/20211500     3300009237421964250000B1AB0200003939510000000000000                 ENOXAPARINA SODICA 40MG/0.4ML(100MG/ML) SOL INY INST CAJ X 2JERPREL X 0.4ML TECHDOWJRP     1
CC0000008761530H202100000555190600000555190631/10/20211428    31500128237421964250000E1AB0200000199290000000000000                                                            SOLUCION SALINA 0.9% SLN INY BO X 100 MLBIN     3
CC0000008761530H202100000555190600000555190631/10/20210504    31500072237421964250000E1AB0200000199290000000000000                                                            SOLUCION SALINA 0.9% SLN INY BO X 100 MLBIN     3
CC0000008761530H202100000555190600000555190631/10/20211041     3300009237421964250000J1CB0600000468340000000000000                                                           UNASYN IM-IV (1+0.5)GR POLV INY INST VIALVAL     4
CC0000008761530H202100000555190600000555190631/10/20211649     3300009237421964250000A3BB0300000512950000000000000                                                             BUSCAPINA COMP Sln Iny 20 mg+2.5 g/5 mlAMP     3
CC0000008761530H202100000555190600000555190631/10/20211502     3300009237421964250000A3BB0300000512950000000000000                                                             BUSCAPINA COMP Sln Iny 20 mg+2.5 g/5 mlAMP     1
CC0000008761530H202100000555190600000555190631/10/20210748     3300009237421964250000A3BB0300000512950000000000000                                                             BUSCAPINA COMP Sln Iny 20 mg+2.5 g/5 mlAMP     1
CC0000008761530H202100000555190600000555190631/10/20211041     3300009237421964250000N05A0500001336370000000000000                                                                              SEROQUEL TAB 25 MG /R/TAB     2
CC0000008761530H202100000555190600000555190631/10/20211428    31500128237421964250000V07A1300000502600000000000000                                                                                AGUA ESTERIL x 10 mlAMP     8
CC0000008761530H202100000555190600000555190631/10/20210504    31500072237421964250000V07A1300000502600000000000000                                                                                AGUA ESTERIL x 10 mlAMP    10
