CC0000072226386U202100000555200200000555200231/10/20211020     3300004239421964320000A03F0300001626860000000000000                                                                   METOCLOPRAMIDA SLN INY 10 MG/2 MLAMP     1
CC0000072226386U202100000555200200000555200231/10/20211239    31902327239421964320000E1AD0200003888320000000000000                                                                              HARTMAN SLN INY 500 MLBOL     1
CC0000072226386U202100000555200200000555200231/10/20211039    31902327239421964320000E1AD0300000199490000000000000                                         LACTATO RINGER USP (HARTMANN)  SOL INY  BOL X 1000ML BAXTERBIN     1
CC0000072226386U202100000555200200000555200231/10/20211020     3300004239421964320000N07CA400001335820000000000000                                                                                   PASEDOL TAB 50 MGTAB     2
CC0000072226386U202100000555200200000555200231/10/20211020     3300004239421964320000A02BC700001684270000000000000                                                            OMEPRAZOL 40MG POLVO LIOFILIZADO AMPOLLAVAL     1
