CC0001065132676H202100000555187900000555187931/10/20211759    31903028237421964250000E1AB0200000199290000000000000                                                            SOLUCION SALINA 0.9% SLN INY BO X 100 MLBIN     3
CC0001065132676H202100000555187900000555187931/10/20211759    31903028237421964250000E1AB0700003888350000000000000                                                            SOLUCION SALINA 0.9% SLN INY BO X 250 MLBOL     2
CC0001065132676H202100000555187900000555187931/10/20210246    31500107237421964250000E1AB0700003888350000000000000                                                            SOLUCION SALINA 0.9% SLN INY BO X 250 MLBOL     2
CC0001065132676H202100000555187900000555187931/10/20211759    31903028237421964250000E1AB0300003888390000000000000                                                            SOLUCION SALINA 0.9% SLN INY BO X 500 MLBOL     2
CC0001065132676H202100000555187900000555187931/10/20211759    31903028237421964250000E1AB0500003888400000000000000                                                              SOLUCION SALINA 0.9% SLN INY X 1000 MLBOL     1
CC0001065132676H202100000555187900000555187931/10/20210820     3300009237421964250000A12CA200001239800000000000000                     BICARBONATO SODIO 10MEQ/10ML(1MEQ/ML) SOL INY  CAJ X 100AMPX10ML FRESENIUS KABIAMP     1
CC0001065132676H202100000555187900000555187931/10/20211718     3300009237421964250000J01XA400001212420000000000000                                                               VANCOMICINA POLVO LIOF SLN INY 500 MGVAL     2
CC0001065132676H202100000555187900000555187931/10/20210819     3300009237421964250000J01XA400001212420000000000000                                                               VANCOMICINA POLVO LIOF SLN INY 500 MGVAL     2
CC0001065132676H202100000555187900000555187931/10/20211718     3300009237421964250000J02A0200000191070000000000000                                                            CANCIDAS POLVO LIOF SLN INY AMP 50MG /R/VAL     1
CC0001065132676H202100000555187900000555187931/10/20210819     3300009237421964250000N1BA1900000554750000000000000                                                                     ROXICAINA JALEA 2% TUBO X 30 MLTUB     2
CC0001065132676H202100000555187900000555187931/10/20210259     3300009237421964250000N1BA1900000554750000000000000                                                                     ROXICAINA JALEA 2% TUBO X 30 MLTUB     1
CC0001065132676H202100000555187900000555187931/10/20210818     3300009237421964250000A2BC0700001335700000000000000                                                                                 OMEPRAZOL CAP 40 MGCAP     3
CC0001065132676H202100000555187900000555187931/10/20210821     3300009237421964250000L03AA100001067620000000000000                                                             ZARZIO SLN INY 30.000.000 UI/0.5 ML /R/JRP     1
CC0001065132676H202100000555187900000555187931/10/20210820     3300009237421964250000L03AA100001067620000000000000                                                             ZARZIO SLN INY 30.000.000 UI/0.5 ML /R/JRP     1
CC0001065132676H202100000555187900000555187931/10/20210820     3300009237421964250000J01DH400001317770000000000000                                                                MEROPENEM POLVO LIOF SLN INY 1 G /R/CAJ     4
CC0001065132676H202100000555187900000555187931/10/20210819     3300009237421964250000N2AX0900001672040000000000000                                                                              TRAMADOL SLN INY 50 MGAMP     3
CC0001065132676H202100000555187900000555187931/10/20211759    31903028237421964250000V07A1300000502600000000000000                                                                                AGUA ESTERIL x 10 mlAMP     5
