CC0000036148059U202100050131444600050131444631/10/20210524    3190100523942196432000011082700001620070000000000000                                                               EQUIPO SET PRIMARIO C/CLAVE REF 14001BOL     1
CC0000036148059U202100050131444600050131444631/10/20210524    3190100523942196432000030936900001431840000000000000                                                                                              BURETABOL     1
CC0000036148059U202100050131444600050131444631/10/20210524    31901005239421964320000E1AB0500003888400000000000000                                                              SOLUCION SALINA 0.9% SLN INY X 1000 MLBOL     1
