CC0000022466267H202100000025034400000025034431/10/20211643    3190301623742196425000024674000000220660000000000000                             JERINGA A 3 PARTES CON AGUJA  SOB X 1 RYMCO  10ML BN EXENTO-DC.417/2020SIN     6
CC0000022466267H202100000025034400000025034431/10/20211643    3190301623742196425000000102300000222960000000000000                                                                 JERINGA DESECHABLE SIN AGUJA X 20mLSIN     2
CC0000022466267H202100000025034400000025034431/10/20211643    3190301623742196425000043485100001618510000000000000                GUANTE QUIRURGICO DE LATEX REF 2D72N65X CAJ X 50 PROTEXIS  6.5 BN EXENTO-DC.417/2020SOB     4
CC0000022466267H202100000025034400000025034431/10/20211643    3190301623742196425000011088800001318260000000000000                                                             GUANTE CIRUGIA NITRILO ALFASAFE TALLA 7SOB     4
CC0000022466267H202100000025034400000025034431/10/20211643    3190301623742196425000013077800000471960000000000000                                                             GASA NO TEJIDA EST 7.5 X 7.5 SOB X 3 UNSOB     6
CC0000022466267H202100000025034400000025034431/10/20211643    3190301623742196425000022425200000548240000000000000                       EXTENSION DE ANESTESIA REF 1139 SOB X 1 SHERLEG  ADULTO BN EXENTO-DC.417/2020SIN     2
CC0000022466267H202100000025034400000025034431/10/20211643    3190301623742196425000038568100000258050000000000000                                                                         CANULA OXIGENO NASAL ADULTOSIN     1
CC0000022466267H202100000025034400000025034431/10/20211643    31903016237421964250000V4AF1000003850710000000000000                                                                    OMNIPAQUE Sln Iny 300 mg x 50 mlFCO     4
CC0000022466267H202100000025034400000025034431/10/20211643    31903016237421964250000N1BA2400001195280000000000000                                                                    LIDOCAINA 2% S/E Sln Iny x 10 mlAMP     2
CC0000022466267H202100000025034400000025034431/10/20211643    31903016237421964250000E1AB0500003888400000000000000                                                              SOLUCION SALINA 0.9% SLN INY X 1000 MLBOL     4
