RC0001048091909H202100015132505100015132505131/10/20211455    3190102423742196425000011082700001620070000000000000                                                               EQUIPO SET PRIMARIO C/CLAVE REF 14001BOL     1
RC0001048091909H202100015132505100015132505131/10/20211455    3190102423742196425000030936900001431840000000000000                                                                                              BURETABOL     1
RC0001048091909H202100015132505100015132505131/10/20211455    31901024237421964250000E1BA0100000198890000000000000                                                                   AGUA ESTERIL USP SLN INY X 500 MLBIN     1
RC0001048091909H202100015132505100015132505131/10/20211455    31901024237421964250000E1AA1400003888550000000000000                                                                         DEXTROSA 10% SLN INY 250 MLBOL     1
