CC0000022328269H202100000555200600000555200631/10/20211029     3300009237421964250000A2BX0100001277280000000000000                                                                                ALSUCRAL TAB 1 G /R/TAB     3
CC0000022328269H202100000555200600000555200631/10/20211029     3300009237421964250000B1AB0200003939510000000000000                 ENOXAPARINA SODICA 40MG/0.4ML(100MG/ML) SOL INY INST CAJ X 2JERPREL X 0.4ML TECHDOWJRP     1
CC0000022328269H202100000555200600000555200631/10/20211815    31500221237421964250000E1AB0700003888350000000000000                                                            SOLUCION SALINA 0.9% SLN INY BO X 250 MLBOL     1
CC0000022328269H202100000555200600000555200631/10/20211741    31500305237421964250000E1AB0700003888350000000000000                                                            SOLUCION SALINA 0.9% SLN INY BO X 250 MLBOL     1
CC0000022328269H202100000555200600000555200631/10/20211700    31500305237421964250000B05B1400001012740000000000000                                                                SOLUCION SALINA 0.45% Sln Iny 500 mlBOL     4
CC0000022328269H202100000555200600000555200631/10/20211029     3300009237421964250000C03DA100001334730000000000000                                                                      INSPRA TAB RECUBIERTA 25MG /R/TAB     1
CC0000022328269H202100000555200600000555200631/10/20211646     3300009237421964250000J02A0200000191070000000000000                                                            CANCIDAS POLVO LIOF SLN INY AMP 50MG /R/VAL     1
CC0000022328269H202100000555200600000555200631/10/20211141     3300009237421964250000N1AH0200003906560000000000000                                                                     FENTANIL Iny 0.05 mg/ml x 10 mlAMP    10
CC0000022328269H202100000555200600000555200631/10/20211141     3300009237421964250000N5CD0300000218170000000000000                                                                          DORMICUM Sln Iny 5 mg/5 mlAMP    40
CC0000022328269H202100000555200600000555200631/10/20211646     3300009237421964250000H02AB700000585860000000000000                                                                HIDROCORTISONA SUCCI POL LIOF 100 MGVAL     2
CC0000022328269H202100000555200600000555200631/10/20211647     3300009237421964250000C03C0100001672000000000000000                                                                       FUROSEMIDA SLN INY 20 MG/2 MLAMP     3
CC0000022328269H202100000555200600000555200631/10/20211029     3300009237421964250000C03C0100001672000000000000000                                                                       FUROSEMIDA SLN INY 20 MG/2 MLAMP     1
CC0000022328269H202100000555200600000555200631/10/20211029     3300009237421964250000C10AA500001314010000000000000                                                                             ATORVASTATINA TAB 40 MGTAB     1
CC0000022328269H202100000555200600000555200631/10/20211029     3300009237421964250000J01DH400001317770000000000000                                                                MEROPENEM POLVO LIOF SLN INY 1 G /R/CAJ     3
CC0000022328269H202100000555200600000555200631/10/20211635    31500305237421964250000V07A1300000502600000000000000                                                                                AGUA ESTERIL x 10 mlAMP     5
