RC0001046735365H202100015032585700015032585731/10/20211550    3190305023742196425000035801900001101780000000000000                                                                    NEBULIZADOR C/MASCARA PEDIATRICOSOB     1
RC0001046735365H202100015032585700015032585731/10/20211550    3190305023742196425000024674000000220660000000000000                             JERINGA A 3 PARTES CON AGUJA  SOB X 1 RYMCO  10ML BN EXENTO-DC.417/2020SIN     1
RC0001046735365H202100015032585700015032585731/10/20211550    31903050237421964250000E1AB0200000199290000000000000                                                            SOLUCION SALINA 0.9% SLN INY BO X 100 MLBIN     1
