CC0001045684571H202100000555189600000555189631/10/20210657     3300009237421964250000V3AB2200000614150000000000000                                                            GLUCONATO CALCIO SLN INY 10% AMP X 10 MLAPC     2
CC0001045684571H202100000555189600000555189631/10/20210633    31900995237421964250000E1AA0200000198980000000000000                                                                          DEXTROSA 5% Sln Iny 100 mlBIN     4
CC0001045684571H202100000555189600000555189631/10/20210633    31900995237421964250000E1AB0700003888350000000000000                                                            SOLUCION SALINA 0.9% SLN INY BO X 250 MLBOL     2
CC0001045684571H202100000555189600000555189631/10/20210633    31900995237421964250000E1AB0300003888390000000000000                                                            SOLUCION SALINA 0.9% SLN INY BO X 500 MLBOL     2
CC0001045684571H202100000555189600000555189631/10/20210657     3300009237421964250000A12CA200001239800000000000000                     BICARBONATO SODIO 10MEQ/10ML(1MEQ/ML) SOL INY  CAJ X 100AMPX10ML FRESENIUS KABIAMP    10
CC0001045684571H202100000555189600000555189631/10/20210633    31900995237421964250000E1AD0300000199490000000000000                                         LACTATO RINGER USP (HARTMANN)  SOL INY  BOL X 1000ML BAXTERBIN     3
CC0001045684571H202100000555189600000555189631/10/20210354     3300009237421964250000M03AC100000197200000000000000                                                                   TRACURION SLN INY 10 MG /5 ML /R/AMP     1
CC0001045684571H202100000555189600000555189631/10/20210337     3300009237421964250000M03AC100000197200000000000000                                                                   TRACURION SLN INY 10 MG /5 ML /R/AMP     1
CC0001045684571H202100000555189600000555189631/10/20210400     3300009237421964250000H01B0100001390610000000000000                                                                   VASOPRESINA SLN INY 20 UI/ ML /R/VAL     1
CC0001045684571H202100000555189600000555189631/10/20210355     3300009237421964250000H01B0100001390610000000000000                                                                   VASOPRESINA SLN INY 20 UI/ ML /R/VAL     6
CC0001045684571H202100000555189600000555189631/10/20210657     3300009237421964250000R3CA0100001051880000000000000                                                               ADRENALINA HCL SLN INY 1 MG / ML ECARAMP     3
CC0001045684571H202100000555189600000555189631/10/20210656     3300009237421964250000R3CA0100001051880000000000000                                                               ADRENALINA HCL SLN INY 1 MG / ML ECARAMP     2
