CC0000008509195H202100015052710700015052710731/10/20212114    3190330323742196425000001956000001620610000000000000                                                                      CONECTOR MICRO CLAVE LAT-MC100SOB     1
CC0000072297175H202100015052710700015052710731/10/20212114    3190330323742196425000001956000001620610000000000000                                                                      CONECTOR MICRO CLAVE LAT-MC100SOB     1
CC0000008509195H202100015052710700015052710731/10/20212114    3190330323742196425000030936900001431840000000000000                                                                                              BURETABOL     1
