CC0001152461557U202100050131450300050131450331/10/20211624    3190317523942196432000024674000000220660000000000000                             JERINGA A 3 PARTES CON AGUJA  SOB X 1 RYMCO  10ML BN EXENTO-DC.417/2020SIN     2
CC0001152461557U202100050131450300050131450331/10/20211624    3190317523942196432000001956000001620610000000000000                                                                      CONECTOR MICRO CLAVE LAT-MC100SOB     1
CC0001152461557U202100050131450300050131450331/10/20211624    31903175239421964320000Q1AA7200000610630000000000000                                                            CATETER PERIFE INTROCAN # 20G 4251644-04SIN     1
CC0001152461557U202100050131450300050131450331/10/20211624    3190317523942196432000016830000000970620000000000000                                                             SIST FIJACION CAT PERIFERICO 6.5X7 1683SOB     1
CC0001152461557U202100050131450300050131450331/10/20211624    31903175239421964320000E1AB0200000199290000000000000                                                            SOLUCION SALINA 0.9% SLN INY BO X 100 MLBIN     1
