RC0001043709109H202100000555188700000555188731/10/20210808     3300009237421964250000S2BA0100000468160000000000000                                                                          SOLU-CORTEF SNL INY 100 MGVAL     1
RC0001043709109H202100000555188700000555188731/10/20210808     3300009237421964250000A04A1400001467560000000000000                                                                      ONDANSETRON SLN INY 8 MG/ 4 MLVAL     1
RC0001043709109H202100000555188700000555188731/10/20210255     3300009237421964250000A04A1400001467560000000000000                                                                      ONDANSETRON SLN INY 8 MG/ 4 MLVAL     1
RC0001043709109H202100000555188700000555188731/10/20210808     3300009237421964250000A6AC0200001467010000000000000                                                             LACTULAX JARABE 66.7G/100ML SOX15ML /R/SOB     1
RC0001043709109H202100000555188700000555188731/10/20210321     3300009237421964250000A6AC0200001467010000000000000                                                             LACTULAX JARABE 66.7G/100ML SOX15ML /R/SOB     1
RC0001043709109H202100000555188700000555188731/10/20211800    31903028237421964250000E1AC0100000199400000000000000                                                                          SUERO MIXTO Sln Iny 500 mlBIN     1
RC0001043709109H202100000555188700000555188731/10/20210808     3300009237421964250000V6DB0800001286840000000000000                                                                          PEDIASURE LIQUIDO X 237 MLFCO     2
RC0001043709109H202100000555188700000555188731/10/20211800    31903028237421964250000V07A1300000502600000000000000                                                                                AGUA ESTERIL x 10 mlAMP     5
