CC0001005573354A202100000027652100000027652131/10/20210831    3190333624042196419000042743200003929860000000000000                   GASA ADHESIVA STRETCH REF 02038-00 ROL X 10MT FIXOMULL 15CM BN EXENTO-DC.417/2020CMT    50
CC0001005573354A202100000027652100000027652131/10/20210831    3190333624042196419000000501000000526920000000000000                                                                   POLYSORB 2/0 GU46 REF UL878  TYCOSIN     1
CC0001005573354A202100000027652100000027652131/10/20210831    31903336240421964190000J1KD1200001361080000000000000                                                                     GENTAMICINA SLN INY 160 MG/2 MLAMP     1
CC0001005573354A202100000027652100000027652131/10/20210831    31903336240421964190000J01CR200000947130000000000000                                                              AMPICILINA /SULBACTAN POLVO LIOF 1.5 GAMP     2
CC0001005573354A202100000027652100000027652131/10/20210831    3190333624042196419000017566200001585160000000000000                                                                  PROLENE 4-0 AZ 45 PS2 PRIME P8682TSOB     1
CC0001005573354A202100000027652100000027652131/10/20210831    3190333624042196419000019488700000753270000000000000                                                                              VICRYL 3-0 SH1 VCP311HSOB     1
CC0001005573354A202100000027652100000027652131/10/20210831    3190333624042196419000015638600000221740000000000000                                                                          MAQUINA DESECHABLE AFEITARPZA     1
CC0001005573354A202100000027652100000027652131/10/20210831    3190333624042196419000011079100000231400000000000000                                                               COTONOIDE REF 801403 DE 2.5CM X 2.5CMPZA    20
CC0001005573354A202100000027652100000027652131/10/20210831    31903336240421964190000N01A0500003844190000000000000                                                                          REMIFENTANILO SLN INY 2 MGVAL     2
CC0001005573354A202100000027652100000027652131/10/20210831    31903336240421964190000E1AB0200000199290000000000000                                                            SOLUCION SALINA 0.9% SLN INY BO X 100 MLBIN     1
CC0001005573354A202100000027652100000027652131/10/20210831    3190333624042196419000044370800000224140000000000000                                                                                IOBAN 2 90 X 45 6650SIN     1
CC0001005573354A202100000027652100000027652131/10/20210831    31903336240421964190000B02AA100001407470000000000000                                                                    CLINTRANEX SLN INY 500 MG / 5 MLAMP     2
CC0001005573354A202100000027652100000027652131/10/20210831    3190333624042196419000014581900000529900000000000000                                                            GRAPADORA CON GRAPAS PIEL 35W 8886803712PZA     1
CC0001005573354A202100000027652100000027652131/10/20210831    31903336240421964190000S01X0600001588810000000000000                                                                        ACRYLARM GEL TUBO x 10 G /R/TUB     1
CC0001005573354A202100000027652100000027652131/10/20210831    31903336240421964190000B5BC0200003889280000000000000                                                                 OSMORIN MANITOL 20 % Bolsa X 500 mlBOL     1
CC0001005573354A202100000027652100000027652131/10/20210831    3190333624042196419000011085200001585390000000000000                                                                       GUANTE QUIRURGICO TALLA 7 1/2SOB     9
CC0001005573354A202100000027652100000027652131/10/20210831    3190333624042196419000045136100001419300000000000000                                                                            LANCETA DEXTROMETER X UNPZA     1
CC0001005573354A202100000027652100000027652131/10/20210831    3190333624042196419000011137100001419310000000000000                                                               TIRA GLUCOMETRIA FREESTYLE H OPTIUM .PZA     1
CC0001005573354A202100000027652100000027652131/10/20210831    3190333624042196419000029987800000325460000000000000                                                             TUBO ENDOTRAQ 8.0 C/B Y ESPIRAL INTERNASIN     1
CC0001005573354A202100000027652100000027652131/10/20210831    31903336240421964190000C01C0300001261020000000000000                                                               ETILEFRINA HCL SLN INY 10 MG/1 ML /R/AMP     1
CC0001005573354A202100000027652100000027652131/10/20210831    3190333624042196419000011082900001233450000000000000                                                               EQUIPO LC 5000 PRIMARIO FOTOPRO 0L218SOB     1
CC0001005573354A202100000027652100000027652131/10/20210831    31903336240421964190000N1BA1900000554750000000000000                                                                     ROXICAINA JALEA 2% TUBO X 30 MLTUB     1
CC0001005573354A202100000027652100000027652131/10/20210831    3190333624042196419000038570000001123500000000000000                                                                              SONDA FOLEY #16 2 VIASSOB     1
CC0001005573354A202100000027652100000027652131/10/20210831    3190333624042196419000031188000000236790000000000000                                                                                     CISTOFLO ADULTOSIN     1
CC0001005573354A202100000027652100000027652131/10/20210831    3190333624042196419000011085300001082140000000000000                                                                           GUANTE QUIRURGICO TALLA 8SOB     3
CC0001005573354A202100000027652100000027652131/10/20210831    3190333624042196419000011085100001082120000000000000                                                                           GUANTE QUIRURGICO TALLA 7SOB     6
CC0001005573354A202100000027652100000027652131/10/20210831    3190333624042196419000035639600001014740000000000000                                                                              MASCARA VENTURY ADULTOBOL     1
CC0001005573354A202100000027652100000027652131/10/20210831    31903336240421964190000Q1AA3300001585140000000000000                                                                         APOSITO TEGADERM 10*12 1626SOB     1
CC0001005573354A202100000027652100000027652131/10/20210831    31903336240421964190000Q1A11500000331560000000000000                                                                     CATETER RADIAL #20 REF. 115.090SIN     1
CC0001005573354A202100000027652100000027652131/10/20210831    3190333624042196419000011051900000226360000000000000                                                               KIT TRANSDUCTOR SENCILLO S/VAMP PX260SOB     1
CC0001005573354A202100000027652100000027652131/10/20210831    31903336240421964190000B1AB0100001227270000000000000                                             HEPAMAX 25000UI/5ML(5000UI/ML) SOL INY  CAJ X 25AMPX5MLAMP     1
CC0001005573354A202100000027652100000027652131/10/20210831    31903336240421964190000C7AB1000001382030000000000000                                                                   NOREPINEFRINA SLN INY 4 MG / 4 MLAMP     1
CC0001005573354A202100000027652100000027652131/10/20210831    3190333624042196419000061196200000495170000000000000                                                                   SURGICEL FIBRILAR 5.1*10.2 411962SOB     1
CC0001005573354A202100000027652100000027652131/10/20210831    3190333624042196419000019489000000599330000000000000                                                                           VICRYL 4-0 RB1 70 VCP304HSIN     1
CC0001005573354A202100000027652100000027652131/10/20210831    3190333624042196419000019488400000599300000000000000                                                                               VICRYL 2-0 SH VCP317HSIN     2
CC0001005573354A202100000027652100000027652131/10/20210831    3190333624042196419000012473200000232210000000000000                                                                 SUTURA ETHILON 3-0 SC-24 45CM  163TSIN     1
CC0001005573354A202100000027652100000027652131/10/20210831    3190333624042196419000011078700000231410000000000000                                                             COTONOIDE REF 801400 DE 1.27CM X 1.27CMSOB     1
CC0001005573354A202100000027652100000027652131/10/20210831    3190333624042196419000045138000001413890000000000000                                                                       LAPIZ ELECTROBISTURI  SOB X 1SOB     1
CC0001005573354A202100000027652100000027652131/10/20210831    3190333624042196419000049419600001679900000000000000                                                                        VENDA ALGODON 4*5 NO ESTERILSOB     1
CC0001005573354A202100000027652100000027652131/10/20210831    3190333624042196419000000016100000314040000000000000                                                                ESPONJA HEMOSTATICA  GELFOAM ESPONJABOL     2
CC0001005573354A202100000027652100000027652131/10/20210831    3190333624042196419000011110600000231980000000000000                                                                       CERA HUESOS 25GM ESTERIL W31GSIN     1
CC0001005573354A202100000027652100000027652131/10/20210831    3190333624042196419000000102300000222960000000000000                                                                 JERINGA DESECHABLE SIN AGUJA X 20mLSIN     2
CC0001005573354A202100000027652100000027652131/10/20210831    31903336240421964190000Q1AA6900000531340000000000000                                                            CATETER PERIFE INTROCAN # 14G 4251890-04SIN     2
CC0001005573354A202100000027652100000027652131/10/20210831    3190333624042196419000043879400001138170000000000000                                                                  HOJA BISTURI # 10 CSSB 10 01002000SOB     1
CC0001005573354A202100000027652100000027652131/10/20210831    3190333624042196419000043879100001138200000000000000                                                                  HOJA BISTURI # 15 CSSB 15 01002003SOB     1
CC0001005573354A202100000027652100000027652131/10/20210831    3190333624042196419000022425200000548240000000000000                       EXTENSION DE ANESTESIA REF 1139 SOB X 1 SHERLEG  ADULTO BN EXENTO-DC.417/2020SIN     1
CC0001005573354A202100000027652100000027652131/10/20210831    3190333624042196419000035356500003919000000000000000                                                                                        LLAVE 3 VIASSOB     1
CC0001005573354A202100000027652100000027652131/10/20210831    31903336240421964190000Q1AA7100000610620000000000000                                                            CATETER PERIFE INTROCAN # 18G 4251687-04SIN     1
CC0001005573354A202100000027652100000027652131/10/20210831    3190333624042196419000022426800001140510000000000000                                                                    EQUIPO MACROGOTEO BAXTER MRC0001SOB     1
CC0001005573354A202100000027652100000027652131/10/20210831    31903336240421964190000J01DA300001239950000000000000                                                            CEFAZOLINA SODICA POLVO LIOF SLN INY 1 GVAL     2
CC0001005573354A202100000027652100000027652131/10/20210831    3190333624042196419000030161400001459220000000000000                                                                       MANGUERA SUCCION 6 MM*3.1 MTSSOB     3
CC0001005573354A202100000027652100000027652131/10/20210831    3190333624042196419000011073300001096420000000000000                                                                BOLSA DE SUCCION DE FLUIDOS x 2500mLBOL     2
CC0001005573354A202100000027652100000027652131/10/20210831    3190333624042196419000020750600000296780000000000000                                                                PLACA ELECTRO RETORNO PACIENTE E7506SIN     1
CC0001005573354A202100000027652100000027652131/10/20210831    3190333624042196419000053074400000607910000000000000                                                               GASA ESTERIL 10*10 SOBRE X 3 UNIDADESSOB     9
CC0001005573354A202100000027652100000027652131/10/20210831    3190333624042196419000024673600000222980000000000000                                                                     JERINGA DESECHABLE 5 ml 27*11/2SIN     3
CC0001005573354A202100000027652100000027652131/10/20210831    3190333624042196419000024674000000220660000000000000                             JERINGA A 3 PARTES CON AGUJA  SOB X 1 RYMCO  10ML BN EXENTO-DC.417/2020SIN     7
CC0001005573354A202100000027652100000027652131/10/20210831    3190333624042196419000038568100000258050000000000000                                                                         CANULA OXIGENO NASAL ADULTOSIN     1
CC0001005573354A202100000027652100000027652131/10/20210831    3190333624042196419000011085400001083360000000000000                                                                       GUANTE QUIRURGICO TALLA 8 1/2SOB     3
CC0001005573354A202100000027652100000027652131/10/20210831    3190333624042196419000043485100001618510000000000000                GUANTE QUIRURGICO DE LATEX REF 2D72N65X CAJ X 50 PROTEXIS  6.5 BN EXENTO-DC.417/2020SOB     5
CC0001005573354A202100000027652100000027652131/10/20210831    3190333624042196419000020058100001101630000000000000                                                                     AGUJA HIPODERMICA DESECH 23 X 1SOB     1
CC0001005573354A202100000027652100000027652131/10/20210831    3190333624042196419000011099300000777780000000000000                                                                     FILTRO BACTERIANO VIRICO ADULTOBOL     1
CC0001005573354A202100000027652100000027652131/10/20210831    31903336240421964190000E1AD0200003888320000000000000                                                                              HARTMAN SLN INY 500 MLBOL     2
CC0001005573354A202100000027652100000027652131/10/20210831    31903336240421964190000E1AB0500003888400000000000000                                                              SOLUCION SALINA 0.9% SLN INY X 1000 MLBOL     2
CC0001005573354A202100000027652100000027652131/10/20210831    31903336240421964190000E1AB0300003888390000000000000                                                            SOLUCION SALINA 0.9% SLN INY BO X 500 MLBOL     3
CC0001005573354A202100000027652100000027652131/10/20210831    31903336240421964190000E1AB0700003888350000000000000                                                            SOLUCION SALINA 0.9% SLN INY BO X 250 MLBOL     2
CC0001005573354A202100000027652100000027652131/10/20210831    31903336240421964190000N1BA0300000217900000000000000                                                                    BUPIROP 0.5% C/E Sln Iny x 20 mlVAL     2
CC0001005573354A202100000027652100000027652131/10/20210831    31903336240421964190000N01B1600003888910000000000000                                             BUPIROP SE S/P 50MG/10ML(5MG/ML) SOL INY CAJ X 24AMPACKAPC     2
CC0001005573354A202100000027652100000027652131/10/20210831    31903336240421964190000M03A0900001467590000000000000                                                                        ROCURONIO SLN INY 50 MG/5 MLVAL     1
CC0001005573354A202100000027652100000027652131/10/20210831    31903336240421964190000A02BC700001684270000000000000                                                            OMEPRAZOL 40MG POLVO LIOFILIZADO AMPOLLAVAL     1
CC0001005573354A202100000027652100000027652131/10/20210831    31903336240421964190000A03F0300001626860000000000000                                                                   METOCLOPRAMIDA SLN INY 10 MG/2 MLAMP     1
CC0001005573354A202100000027652100000027652131/10/20210831    31903336240421964190000H02AB700000585860000000000000                                                                HIDROCORTISONA SUCCI POL LIOF 100 MGVAL     2
CC0001005573354A202100000027652100000027652131/10/20210831    31903336240421964190000M01A2000001664970000000000000                                                               DICLOFENACO SODICO SLN INY 75 MG/3 MLAMP     1
CC0001005573354A202100000027652100000027652131/10/20210831    31903336240421964190000H02A0100001664960000000000000                                                                        DEXAMETASONA SLN INY 4 MG/MLAMP     2
CC0001005573354A202100000027652100000027652131/10/20210831    31903336240421964190000N2AA0400003888080000000000000                                                                     DEMEROL HCL Sln Iny 100 mg/2 mlAMP     1
CC0001005573354A202100000027652100000027652131/10/20210831    31903336240421964190000N1AH0200003906560000000000000                                                                     FENTANIL Iny 0.05 mg/ml x 10 mlAMP     1
