TI0001042848386A202100000027662900000027662931/10/20211046    31903336240421964190000N01B1300001195250000000000000                                                                         BUPIROP 0.5% S/EPIN X 10 MLAMP     2
TI0001042848386A202100000027662900000027662931/10/20211046    3190333624042196419000011081500001119460000000000000                                                               ENDOBAG SPECIMEN RETRIEV RF 25040 5X8PZA     1
TI0001042848386A202100000027662900000027662931/10/20211046    3190333624042196419000000501000000526920000000000000                                                                   POLYSORB 2/0 GU46 REF UL878  TYCOSIN     1
TI0001042848386A202100000027662900000027662931/10/20211046    3190333624042196419000017566200001585160000000000000                                                                  PROLENE 4-0 AZ 45 PS2 PRIME P8682TSOB     1
TI0001042848386A202100000027662900000027662931/10/20211046    3190333624042196419000043879200001138180000000000000                                                                                   HOJA BISTURI # 11SOB     1
TI0001042848386A202100000027662900000027662931/10/20211046    3190333624042196419000011082600000265810000000000000                                                              EQUIPO IRRIGACION URINARIA REF MRC4002SOB     1
TI0001042848386A202100000027662900000027662931/10/20211046    3190333624042196419000045138000001413890000000000000                                                                       LAPIZ ELECTROBISTURI  SOB X 1SOB     1
TI0001042848386A202100000027662900000027662931/10/20211046    31903336240421964190000N1BA0300000217900000000000000                                                                    BUPIROP 0.5% C/E Sln Iny x 20 mlVAL     1
TI0001042848386A202100000027662900000027662931/10/20211046    3190333624042196419000013077800000471960000000000000                                                             GASA NO TEJIDA EST 7.5 X 7.5 SOB X 3 UNSOB     1
TI0001042848386A202100000027662900000027662931/10/20211046    3190333624042196419000030161400001459220000000000000                                                                       MANGUERA SUCCION 6 MM*3.1 MTSSOB     1
TI0001042848386A202100000027662900000027662931/10/20211046    31903336240421964190000E1AB0300003888390000000000000                                                            SOLUCION SALINA 0.9% SLN INY BO X 500 MLBOL     1
TI0001042848386A202100000027662900000027662931/10/20211046    3190333624042196419000022425200000548240000000000000                       EXTENSION DE ANESTESIA REF 1139 SOB X 1 SHERLEG  ADULTO BN EXENTO-DC.417/2020SIN     1
TI0001042848386A202100000027662900000027662931/10/20211046    3190333624042196419000035356500003919000000000000000                                                                                        LLAVE 3 VIASSOB     2
TI0001042848386A202100000027662900000027662931/10/20211046    31903336240421964190000Q1AA7100000610620000000000000                                                            CATETER PERIFE INTROCAN # 18G 4251687-04SIN     1
TI0001042848386A202100000027662900000027662931/10/20211046    3190333624042196419000022426800001140510000000000000                                                                    EQUIPO MACROGOTEO BAXTER MRC0001SOB     1
TI0001042848386A202100000027662900000027662931/10/20211046    3190333624042196419000011073300001096420000000000000                                                                BOLSA DE SUCCION DE FLUIDOS x 2500mLBOL     1
TI0001042848386A202100000027662900000027662931/10/20211046    3190333624042196419000020750600000296780000000000000                                                                PLACA ELECTRO RETORNO PACIENTE E7506SIN     1
TI0001042848386A202100000027662900000027662931/10/20211046    3190333624042196419000011082700001620070000000000000                                                               EQUIPO SET PRIMARIO C/CLAVE REF 14001BOL     1
TI0001042848386A202100000027662900000027662931/10/20211046    3190333624042196419000053074400000607910000000000000                                                               GASA ESTERIL 10*10 SOBRE X 3 UNIDADESSOB     2
TI0001042848386A202100000027662900000027662931/10/20211046    3190333624042196419000011047900000223010000000000000                                                                            JERINGA X 1ML REF 302579SIN     1
TI0001042848386A202100000027662900000027662931/10/20211046    3190333624042196419000024673000001411210000000000000                                                                  JERINGA DESECHABLE 3 ML 21 X 1 1/2SOB     1
TI0001042848386A202100000027662900000027662931/10/20211046    3190333624042196419000024673600000222980000000000000                                                                     JERINGA DESECHABLE 5 ml 27*11/2SIN     1
TI0001042848386A202100000027662900000027662931/10/20211046    3190333624042196419000024674000000220660000000000000                             JERINGA A 3 PARTES CON AGUJA  SOB X 1 RYMCO  10ML BN EXENTO-DC.417/2020SIN     2
TI0001042848386A202100000027662900000027662931/10/20211046    3190333624042196419000024674500000322810000000000000                                                                   JERINGA DESECHABLE 20 ml 21*1 1/2SIN     3
TI0001042848386A202100000027662900000027662931/10/20211046    3190333624042196419000051515500000598160000000000000                                                                            MASCARILLA ANESTESIA # 5SIN     1
TI0001042848386A202100000027662900000027662931/10/20211046    3190333624042196419000038568100000258050000000000000                                                                         CANULA OXIGENO NASAL ADULTOSIN     1
TI0001042848386A202100000027662900000027662931/10/20211046    3190333624042196419000011085400001083360000000000000                                                                       GUANTE QUIRURGICO TALLA 8 1/2SOB     1
TI0001042848386A202100000027662900000027662931/10/20211046    3190333624042196419000011085300001082140000000000000                                                                           GUANTE QUIRURGICO TALLA 8SOB     1
TI0001042848386A202100000027662900000027662931/10/20211046    3190333624042196419000011085200001585390000000000000                                                                       GUANTE QUIRURGICO TALLA 7 1/2SOB     3
TI0001042848386A202100000027662900000027662931/10/20211046    3190333624042196419000011085100001082120000000000000                                                                           GUANTE QUIRURGICO TALLA 7SOB     2
TI0001042848386A202100000027662900000027662931/10/20211046    3190333624042196419000043485100001618510000000000000                GUANTE QUIRURGICO DE LATEX REF 2D72N65X CAJ X 50 PROTEXIS  6.5 BN EXENTO-DC.417/2020SOB     3
TI0001042848386A202100000027662900000027662931/10/20211046    3190333624042196419000039175000001072050000000000000                                                                           TUBO ENDOTRAQUEAL C/B 7.0SOB     1
TI0001042848386A202100000027662900000027662931/10/20211046    3190333624042196419000020056600001101530000000000000                                                                AGUJA HIPODERMICA DESECH 18G X 1 1/2SOB     1
TI0001042848386A202100000027662900000027662931/10/20211046    3190333624042196419000011099300000777780000000000000                                                                     FILTRO BACTERIANO VIRICO ADULTOBOL     1
TI0001042848386A202100000027662900000027662931/10/20211046    31903336240421964190000E1AB0500003888400000000000000                                                              SOLUCION SALINA 0.9% SLN INY X 1000 MLBOL     2
TI0001042848386A202100000027662900000027662931/10/20211046    31903336240421964190000E1AB0700003888350000000000000                                                            SOLUCION SALINA 0.9% SLN INY BO X 250 MLBOL     1
TI0001042848386A202100000027662900000027662931/10/20211046    31903336240421964190000E1AB0200000199290000000000000                                                            SOLUCION SALINA 0.9% SLN INY BO X 100 MLBIN     1
TI0001042848386A202100000027662900000027662931/10/20211046    31903336240421964190000N1BA2400001195280000000000000                                                                    LIDOCAINA 2% S/E Sln Iny x 10 mlAMP     1
TI0001042848386A202100000027662900000027662931/10/20211046    31903336240421964190000M03A0900001467590000000000000                                                                        ROCURONIO SLN INY 50 MG/5 MLVAL     1
TI0001042848386A202100000027662900000027662931/10/20211046    31903336240421964190000A2BC0900000200150000000000000                                                                               ORAZOLE Sln Iny 40 mgCIN     1
TI0001042848386A202100000027662900000027662931/10/20211046    31903336240421964190000N02BB100000777810000000000000                                                               DIPIRONA MAGNESICA SLN INY 2.5 G/5 MLAMP     1
TI0001042848386A202100000027662900000027662931/10/20211046    31903336240421964190000H02A0100001664960000000000000                                                                        DEXAMETASONA SLN INY 4 MG/MLAMP     2
TI0001042848386A202100000027662900000027662931/10/20211046    31903336240421964190000N1AH0200003906560000000000000                                                                     FENTANIL Iny 0.05 mg/ml x 10 mlAMP     1
