CC0001044430334U202100000555197300000555197331/10/20211112    31500188239421964320000E1AB0700003888350000000000000                                                            SOLUCION SALINA 0.9% SLN INY BO X 250 MLBOL     1
CC0001044430334U202100000555197300000555197331/10/20210848     3300004239421964320000M1AB0900001019600000000000000                                                                              VOLTAREN Sln Iny 75 mgAMP     1
CC0001044430334U202100000555197300000555197331/10/20210847     3300004239421964320000M3BA0300001278140000000000000                                                                               SIRDALUD Tab 2 mg /R/COM     2
CC0001044430334U202100000555197300000555197331/10/20211538     3300004239421964320000M03B0500001278430000000000000                                                                     DORIXINA RELAX Tab 125/5 MG /R/TAB     1
CC0001044430334U202100000555197300000555197331/10/20211459     3300004239421964320000M03B0500001278430000000000000                                                                     DORIXINA RELAX Tab 125/5 MG /R/TAB     1
CC0001044430334U202100000555197300000555197331/10/20211459     3300004239421964320000N2AX0400001204140000000000000                                                                             TRAMAL Sln Iny 50 mg/mlAMP     1
CC0001044430334U202100000555197300000555197331/10/20211459     3300004239421964320000N2BB0500000217140000000000000                                                                          NOVALGINA Sln Iny 1 g/2 mlAMP     2
CC0001044430334U202100000555197300000555197331/10/20210848     3300004239421964320000N02B1100001169680000000000000                              PARACETAMOL 1000MG/100ML(10MG/ML) SOL INY  VIAL X 100ML FRESENIUS KABIVAL     1
