CC0001043605320U202100050131453000050131453031/10/20212122    3190318023942196432000045136100001419300000000000000                                                                            LANCETA DEXTROMETER X UNPZA     1
CC0001043605320U202100050131453000050131453031/10/20212122    3190318023942196432000024674000000220660000000000000                             JERINGA A 3 PARTES CON AGUJA  SOB X 1 RYMCO  10ML BN EXENTO-DC.417/2020SIN     3
CC0001043605320U202100050131453000050131453031/10/20212122    3190318023942196432000030936900001431840000000000000                                                                                              BURETABOL     1
CC0001043605320U202100050131453000050131453031/10/20212122    31903180239421964320000E1AB0500003888400000000000000                                                              SOLUCION SALINA 0.9% SLN INY X 1000 MLBOL     1
CC0001043605320U202100050131453000050131453031/10/20212122    3190318023942196432000011137100001419310000000000000                                                               TIRA GLUCOMETRIA FREESTYLE H OPTIUM .PZA     1
