RC0001046723141H202100015052709200015052709231/10/20210842    3190224223742196425000011522100000994360000000000000                                                                    SONDA FOLEY SILICONA # 12 2 VIASSOB     1
RC0001046723141H202100015052709200015052709231/10/20210842    3190224223742196425000011085100001082120000000000000                                                                           GUANTE QUIRURGICO TALLA 7SOB     5
RC0001046723141H202100015052709200015052709231/10/20210842    3190224223742196425000013077800000471960000000000000                                                             GASA NO TEJIDA EST 7.5 X 7.5 SOB X 3 UNSOB    30
RC0001046723141H202100015052709200015052709231/10/20210842    3190224223742196425000042753100003929850000000000000                   GASA ADHESIVA STRETCH REF 02037-00 ROL X 10MT FIXOMULL 10CM BN EXENTO-DC.417/2020CMT    60
