CC0000019308734H202100000555191200000555191231/10/20210546     3300009237421964250000A10B1600001336910000000000000                                                                               TRAYENTA TAB 5 MG /R/TAB     1
CC0000019308734H202100000555191200000555191231/10/20210546     3300009237421964250000A12BA500003864190000000000000                                                   ION-K 1.56GR/5ML(31.2%) SOL ORAL INST FCO X 180MLFCO     1
CC0000019308734H202100000555191200000555191231/10/20210546     3300009237421964250000B1AB1200003939350000000000000                 ENOXAPARINA SODICA 80MG/0.8ML(100MG/ML) SOL INY INST CAJ X 2JERPREL X 0.8ML TECHDOWJRP     1
CC0000019308734H202100000555191200000555191231/10/20211524     3300009237421964250000C3CA0100001278130000000000000                                                                                     LASIX TAB 40 MGTAB     1
CC0000019308734H202100000555191200000555191231/10/20211524     3300009237421964250000C07A0100001277830000000000000                                                                           DILATREND TAB 12.5 MG /R/TAB     1
CC0000019308734H202100000555191200000555191231/10/20210546     3300009237421964250000C07A0100001277830000000000000                                                                           DILATREND TAB 12.5 MG /R/TAB     1
CC0000019308734H202100000555191200000555191231/10/20210546     3300009237421964250000C09B0100001316960000000000000                                                                       DIOVAN HCT TAB 80/12.5 MG /R/COM     1
CC0000019308734H202100000555191200000555191231/10/20210546     3300009237421964250000C10AA400001301110000000000000                                                                                   LIPITOR TAB 40 MGTAB     1
CC0000019308734H202100000555191200000555191231/10/20211524     3300009237421964250000J01DB300000553200000000000000                                                                         CEFALOTINA SLN INY 1 G VIALVAL     1
CC0000019308734H202100000555191200000555191231/10/20210546     3300009237421964250000J01DB300000553200000000000000                                                                         CEFALOTINA SLN INY 1 G VIALVAL     2
