RC0001063188067H202100910142103100910142103131/10/20210249    3150024423742196425000011060400001010330000000000000                                                            SENSOR PULSOX SPO2 LNCS NEONATAL MP00792PZA     1
RC0001063188067H202100910142103100910142103131/10/20210249    3150024423742196425000011085100001082120000000000000                                                                           GUANTE QUIRURGICO TALLA 7SOB     2
RC0001063188067H202100910142103100910142103131/10/20210249    3150024423742196425000013077800000471960000000000000                                                             GASA NO TEJIDA EST 7.5 X 7.5 SOB X 3 UNSOB     5
RC0001063188067H202100910142103100910142103131/10/20210249    3150024423742196425000024674000000220660000000000000                             JERINGA A 3 PARTES CON AGUJA  SOB X 1 RYMCO  10ML BN EXENTO-DC.417/2020SIN     6
RC0001063188067H202100910142103100910142103131/10/20210249    3150024423742196425000038572700000256840000000000000                                                                                 SONDA NSG LEVIN #10SIN     1
RC0001063188067H202100910142103100910142103131/10/20210249    31500244237421964250000E1AC0100000199400000000000000                                                                          SUERO MIXTO Sln Iny 500 mlBIN     2
RC0001063188067H202100910142103100910142103131/10/20210751    3150056823742196425000011082200001407940000000000000                                                              EQUIPO EXT MICROTUBO Y 2 VALVUL 2N8371SOB     1
RC0001063188067H202100910142103100910142103131/10/20210751    3150056823742196425000000602600001259280000000000000                                                             APOSITO TEGADERM IV PD 1610 5CM X 5.7CMSOB     1
RC0001063188067H202100910142103100910142103131/10/20210751    31500568237421964250000Q1AA7400003911720000000000000                                                            CATETER PERIFE INTROCAN # 24G 4251601-04SOB     1
