CC0001129523937H202100000555188000000555188031/10/20211124     3300009237421964250000A04A1400001467560000000000000                                                                      ONDANSETRON SLN INY 8 MG/ 4 MLVAL     4
CC0001129523937H202100000555188000000555188031/10/20210730     3300009237421964250000A6AC0200001467010000000000000                                                             LACTULAX JARABE 66.7G/100ML SOX15ML /R/SOB     1
CC0001129523937H202100000555188000000555188031/10/20210729     3300009237421964250000A6AC0200001467010000000000000                                                             LACTULAX JARABE 66.7G/100ML SOX15ML /R/SOB     2
CC0001129523937H202100000555188000000555188031/10/20210252     3300009237421964250000A6AC0200001467010000000000000                                                             LACTULAX JARABE 66.7G/100ML SOX15ML /R/SOB     1
CC0001129523937H202100000555188000000555188031/10/20210732     3300009237421964250000B01A0300000467730000000000000                                                                FRAGMIN SLN INY 5.000 UI /0.2 ML /R/SIN     1
CC0001129523937H202100000555188000000555188031/10/20211801    31903028237421964250000E1AB0200000199290000000000000                                                            SOLUCION SALINA 0.9% SLN INY BO X 100 MLBIN     3
CC0001129523937H202100000555188000000555188031/10/20211801    31903028237421964250000E1AB0700003888350000000000000                                                            SOLUCION SALINA 0.9% SLN INY BO X 250 MLBOL     2
CC0001129523937H202100000555188000000555188031/10/20210246    31500107237421964250000E1AB0700003888350000000000000                                                            SOLUCION SALINA 0.9% SLN INY BO X 250 MLBOL     2
CC0001129523937H202100000555188000000555188031/10/20211806    31901940237421964250000E1AB0300003888390000000000000                                                            SOLUCION SALINA 0.9% SLN INY BO X 500 MLBOL     1
CC0001129523937H202100000555188000000555188031/10/20211801    31903028237421964250000E1AB0300003888390000000000000                                                            SOLUCION SALINA 0.9% SLN INY BO X 500 MLBOL     3
CC0001129523937H202100000555188000000555188031/10/20211224    31901940237421964250000E1AB0300003888390000000000000                                                            SOLUCION SALINA 0.9% SLN INY BO X 500 MLBOL     1
CC0001129523937H202100000555188000000555188031/10/20211705     3300009237421964250000H02A0100001664960000000000000                                                                        DEXAMETASONA SLN INY 4 MG/MLAMP     3
CC0001129523937H202100000555188000000555188031/10/20210251     3300009237421964250000H02A0100001664960000000000000                                                                        DEXAMETASONA SLN INY 4 MG/MLAMP     3
CC0001129523937H202100000555188000000555188031/10/20210728     3300009237421964250000J01XA400001212420000000000000                                                               VANCOMICINA POLVO LIOF SLN INY 500 MGVAL     3
CC0001129523937H202100000555188000000555188031/10/20210727     3300009237421964250000J01XA400001212420000000000000                                                               VANCOMICINA POLVO LIOF SLN INY 500 MGVAL     1
CC0001129523937H202100000555188000000555188031/10/20211107     3300009237421964250000L1BC4100001249730000000000000                                                    ETOPOSIDO 100MG/5ML(20MG/ML) SOL INY  VIAL X 5MLVAL     2
CC0001129523937H202100000555188000000555188031/10/20210727     3300009237421964250000V6DF2000001629900000000000000                                                                     ENSURE PLUS HN LIQUIDO X 237 MLFCO     1
CC0001129523937H202100000555188000000555188031/10/20211704     3300009237421964250000N2AA0100000301640000000000000                                                                            MORFINA Sln Iny 10 mg/mlAMP     4
CC0001129523937H202100000555188000000555188031/10/20210729     3300009237421964250000A03F0500001692520000000000000                                                                   ALIZAPRIDA HCL SLN INY 50 MG/2 MLAMP     3
CC0001129523937H202100000555188000000555188031/10/20210728     3300009237421964250000A03F0500001692520000000000000                                                                   ALIZAPRIDA HCL SLN INY 50 MG/2 MLAMP     1
CC0001129523937H202100000555188000000555188031/10/20211705     3300009237421964250000C03C0100001672000000000000000                                                                       FUROSEMIDA SLN INY 20 MG/2 MLAMP     1
CC0001129523937H202100000555188000000555188031/10/20210252     3300009237421964250000C03C0100001672000000000000000                                                                       FUROSEMIDA SLN INY 20 MG/2 MLAMP     2
CC0001129523937H202100000555188000000555188031/10/20211851     3300009237421964250000J01CR300001659480000000000000                                                                  DELBACTAM POLVO LIOF SLN INY 4.5 GVAL     2
CC0001129523937H202100000555188000000555188031/10/20211850     3300009237421964250000J01CR300001659480000000000000                                                                  DELBACTAM POLVO LIOF SLN INY 4.5 GVAL     2
CC0001129523937H202100000555188000000555188031/10/20210730     3300009237421964250000A02BC700001684270000000000000                                                            OMEPRAZOL 40MG POLVO LIOFILIZADO AMPOLLAVAL     1
CC0001129523937H202100000555188000000555188031/10/20211801    31903028237421964250000V07A1300000502600000000000000                                                                                AGUA ESTERIL x 10 mlAMP     5
CC0001129523937H202100000555188000000555188031/10/20211705     3300009237421964250000M04AA100001332710000000000000                                                                            ALOPURINOL 100MG TABLETATAB     1
CC0001129523937H202100000555188000000555188031/10/20210732     3300009237421964250000M04AA100001332710000000000000                                                                            ALOPURINOL 100MG TABLETATAB     2
