CC0000022467890H202100000555190400000555190431/10/20211031     3300009237421964250000V3AB2200000614150000000000000                                                            GLUCONATO CALCIO SLN INY 10% AMP X 10 MLAPC     4
CC0000022467890H202100000555190400000555190431/10/20211031     3300009237421964250000B1AB0200003939510000000000000                 ENOXAPARINA SODICA 40MG/0.4ML(100MG/ML) SOL INY INST CAJ X 2JERPREL X 0.4ML TECHDOWJRP     1
CC0000022467890H202100000555190400000555190431/10/20212351     3300009237421964250000B02AA100001407470000000000000                                                                    CLINTRANEX SLN INY 500 MG / 5 MLAMP     6
CC0000022467890H202100000555190400000555190431/10/20211556     3300009237421964250000B02AA100001407470000000000000                                                                    CLINTRANEX SLN INY 500 MG / 5 MLAMP     2
CC0000022467890H202100000555190400000555190431/10/20210502    31500072237421964250000E1AB0200000199290000000000000                                                            SOLUCION SALINA 0.9% SLN INY BO X 100 MLBIN     2
CC0000022467890H202100000555190400000555190431/10/20212224    31902357237421964250000E1AB0300003888390000000000000                                                            SOLUCION SALINA 0.9% SLN INY BO X 500 MLBOL     1
CC0000022467890H202100000555190400000555190431/10/20210502    31500072237421964250000E1AD0200003888320000000000000                                                                              HARTMAN SLN INY 500 MLBOL     1
CC0000022467890H202100000555190400000555190431/10/20211707    31901450237421964250000B05B1500001012750000000000000                                                                   SOLUCION SALINA 3% Sln Iny 500 mlBOL     2
CC0000022467890H202100000555190400000555190431/10/20211031     3300009237421964250000J1KF0500001317760000000000000                                                                      MEROPENEM POLVO INY 500 MG /R/CAJ     1
CC0000022467890H202100000555190400000555190431/10/20211031     3300009237421964250000A02BC700001684270000000000000                                                            OMEPRAZOL 40MG POLVO LIOFILIZADO AMPOLLAVAL     1
CC0000022467890H202100000555190400000555190431/10/20210502    31500072237421964250000V07A1300000502600000000000000                                                                                AGUA ESTERIL x 10 mlAMP     5
