TI0001043314138A202100000027658400000027658431/10/20210953    31903336240421964190000Q1A11800000258040000000000000                                                                         CANULA OXIGENO NASAL PEDIATSIN     1
TI0001043314138A202100000027658400000027658431/10/20210953    3190333624042196419000000602000000258640000000000000                                                            APOSITO OPSITE POST OP 4463  6.5CM X 5CMSIN     1
TI0001043314138A202100000027658400000027658431/10/20210953    31903336240421964190000Q1AA7400003911720000000000000                                                            CATETER PERIFE INTROCAN # 24G 4251601-04SOB     1
TI0001043314138A202100000027658400000027658431/10/20210953    3190333624042196419000024673600000222980000000000000                                                                     JERINGA DESECHABLE 5 ml 27*11/2SIN     2
TI0001043314138A202100000027658400000027658431/10/20210953    3190333624042196419000024674000000220660000000000000                             JERINGA A 3 PARTES CON AGUJA  SOB X 1 RYMCO  10ML BN EXENTO-DC.417/2020SIN     1
TI0001043314138A202100000027658400000027658431/10/20210953    3190333624042196419000053074400000607910000000000000                                                               GASA ESTERIL 10*10 SOBRE X 3 UNIDADESSOB     1
TI0001043314138A202100000027658400000027658431/10/20210953    3190333624042196419000011085400001083360000000000000                                                                       GUANTE QUIRURGICO TALLA 8 1/2SOB     1
TI0001043314138A202100000027658400000027658431/10/20210953    3190333624042196419000051515300000598140000000000000                                                                            MASCARILLA ANESTESIA # 3SIN     1
TI0001043314138A202100000027658400000027658431/10/20210953    3190333624042196419000011065700003914100000000000000                                                                 TAPON HEPARINIZADO 4238010  B BRAUNSOB     1
TI0001043314138A202100000027658400000027658431/10/20210953    31903336240421964190000N1BA2400001195280000000000000                                                                    LIDOCAINA 2% S/E Sln Iny x 10 mlAMP     1
TI0001043314138A202100000027658400000027658431/10/20210953    31903336240421964190000N01A0400003939010000000000000                                               MAYOPROFOL 200MG/20ML(1%) EMUL INY CAJ X 1VIAL X 20MLVAL     1
TI0001043314138A202100000027658400000027658431/10/20210953    31903336240421964190000A03F0300001626860000000000000                                                                   METOCLOPRAMIDA SLN INY 10 MG/2 MLAMP     1
TI0001043314138A202100000027658400000027658431/10/20210953    31903336240421964190000N2BB0500000217140000000000000                                                                          NOVALGINA Sln Iny 1 g/2 mlAMP     1
TI0001043314138A202100000027658400000027658431/10/20210953    31903336240421964190000H02AB500001664950000000000000                                                            DEXAMETASONA SLN INY 8 MG/2 ML AMP /CDS/AMP     1
TI0001043314138A202100000027658400000027658431/10/20210953    31903336240421964190000N5CD0300000218170000000000000                                                                          DORMICUM Sln Iny 5 mg/5 mlAMP     1
TI0001043314138A202100000027658400000027658431/10/20210953    31903336240421964190000N1AH0200003906560000000000000                                                                     FENTANIL Iny 0.05 mg/ml x 10 mlAMP     1
