CC0001129523937H202100015042510700015042510731/10/20211632    3150026823742196425000011082700001620070000000000000                                                               EQUIPO SET PRIMARIO C/CLAVE REF 14001BOL     1
CC0001129523937H202100015042510700015042510731/10/20211632    3150026823742196425000001956000001620610000000000000                                                                      CONECTOR MICRO CLAVE LAT-MC100SOB     1
TI0001081819374H202100015042510700015042510731/10/20211632    3150026823742196425000001956000001620610000000000000                                                                      CONECTOR MICRO CLAVE LAT-MC100SOB     1
CC0001129523937H202100015042510700015042510731/10/20211632    31500268237421964250000Q1AA7300000610640000000000000                                                            CATETER PERIFE INTROCAN # 22G 4251628-04SIN     1
TI0001081819374H202100015042510700015042510731/10/20211632    31500268237421964250000Q1AA7300000610640000000000000                                                            CATETER PERIFE INTROCAN # 22G 4251628-04SIN     1
CC0001129523937H202100015042510700015042510731/10/20211632    3150026823742196425000016830000000970620000000000000                                                             SIST FIJACION CAT PERIFERICO 6.5X7 1683SOB     1
TI0001081819374H202100015042510700015042510731/10/20211632    3150026823742196425000016830000000970620000000000000                                                             SIST FIJACION CAT PERIFERICO 6.5X7 1683SOB     1
