TI0001066284726H202100015042510200015042510231/10/20210257    3150010723742196425000024674000000220660000000000000                             JERINGA A 3 PARTES CON AGUJA  SOB X 1 RYMCO  10ML BN EXENTO-DC.417/2020SIN    15
TI0001047048202H202100015042510200015042510231/10/20210257    3150010723742196425000024674000000220660000000000000                             JERINGA A 3 PARTES CON AGUJA  SOB X 1 RYMCO  10ML BN EXENTO-DC.417/2020SIN    15
TI0001066284726H202100015042510200015042510231/10/20210257    3150010723742196425000043485100001618510000000000000                GUANTE QUIRURGICO DE LATEX REF 2D72N65X CAJ X 50 PROTEXIS  6.5 BN EXENTO-DC.417/2020SOB     2
TI0001066284726H202100015042510200015042510231/10/20210257    3150010723742196425000013077800000471960000000000000                                                             GASA NO TEJIDA EST 7.5 X 7.5 SOB X 3 UNSOB     6
TI0001066284726H202100015042510200015042510231/10/20210257    3150010723742196425000011082700001620070000000000000                                                               EQUIPO SET PRIMARIO C/CLAVE REF 14001BOL     1
TI0001139430724H202100015042510200015042510231/10/20210257    3150010723742196425000001956000001620610000000000000                                                                      CONECTOR MICRO CLAVE LAT-MC100SOB     1
TI0001066284726H202100015042510200015042510231/10/20210257    3150010723742196425000001956000001620610000000000000                                                                      CONECTOR MICRO CLAVE LAT-MC100SOB     1
TI0001139430724H202100015042510200015042510231/10/20210257    31500107237421964250000Q1AA7400003911720000000000000                                                            CATETER PERIFE INTROCAN # 24G 4251601-04SOB     1
TI0001066284726H202100015042510200015042510231/10/20210257    3150010723742196425000030936900001431840000000000000                                                                                              BURETABOL     1
TI0001066284726H202100015042510200015042510231/10/20210257    3150010723742196425000000602700001197200000000000000                                                              APOSITO TRANSP  1655 IV 8.5CM X 11.5CMSOB     1
TI0001139430724H202100015042510200015042510231/10/20210257    3150010723742196425000016830000000970620000000000000                                                             SIST FIJACION CAT PERIFERICO 6.5X7 1683SOB     1
TI0001066284726H202100015042510200015042510231/10/20210257    31500107237421964250000E1AC0100000199400000000000000                                                                          SUERO MIXTO Sln Iny 500 mlBIN     4
