TI0001044216267U202100050131452700050131452731/10/20212049    3150035523942196432000024674000000220660000000000000                             JERINGA A 3 PARTES CON AGUJA  SOB X 1 RYMCO  10ML BN EXENTO-DC.417/2020SIN     3
TI0001044216267U202100050131452700050131452731/10/20212049    3150035523942196432000011082700001620070000000000000                                                               EQUIPO SET PRIMARIO C/CLAVE REF 14001BOL     1
TI0001044216267U202100050131452700050131452731/10/20212049    31500355239421964320000Q1AA7300000610640000000000000                                                            CATETER PERIFE INTROCAN # 22G 4251628-04SIN     1
TI0001044216267U202100050131452700050131452731/10/20212049    3150035523942196432000030936900001431840000000000000                                                                                              BURETABOL     1
TI0001044216267U202100050131452700050131452731/10/20212049    3150035523942196432000016830000000970620000000000000                                                             SIST FIJACION CAT PERIFERICO 6.5X7 1683SOB     1
TI0001044216267U202100050131452700050131452731/10/20212049    31500355239421964320000E1AD0300000199490000000000000                                         LACTATO RINGER USP (HARTMANN)  SOL INY  BOL X 1000ML BAXTERBIN     1
