CC0000051960635H202100000555191700000555191731/10/20210556     3300009237421964250000A02BC100001677520000000000000                                                                ESOMEPRAZOL POLVO LIOF INY 40 MG /R/VAL     2
CC0000051960635H202100000555191700000555191731/10/20211520     3300009237421964250000A4AD0200000202990000000000000                                                                     PLITICAN HCL Sln Iny 50 mg/2 mlAMP     1
CC0000051960635H202100000555191700000555191731/10/20210557     3300009237421964250000A4AD0200000202990000000000000                                                                     PLITICAN HCL Sln Iny 50 mg/2 mlAMP     2
CC0000051960635H202100000555191700000555191731/10/20211738    31500534237421964250000E1AB0300003888390000000000000                                                            SOLUCION SALINA 0.9% SLN INY BO X 500 MLBOL     1
CC0000051960635H202100000555191700000555191731/10/20210646    31902949237421964250000E1AB0300003888390000000000000                                                            SOLUCION SALINA 0.9% SLN INY BO X 500 MLBOL     2
CC0000051960635H202100000555191700000555191731/10/20211519     3300009237421964250000J01D1300001469600000000000000                                                                               POZINEG POLVO INY 1 GVAL     1
CC0000051960635H202100000555191700000555191731/10/20210557     3300009237421964250000J01D1300001469600000000000000                                                                               POZINEG POLVO INY 1 GVAL     2
CC0000051960635H202100000555191700000555191731/10/20210557     3300009237421964250000J01XA400001212420000000000000                                                               VANCOMICINA POLVO LIOF SLN INY 500 MGVAL     4
CC0000051960635H202100000555191700000555191731/10/20210557     3300009237421964250000M1AB0900001019600000000000000                                                                              VOLTAREN Sln Iny 75 mgAMP     1
CC0000051960635H202100000555191700000555191731/10/20211520     3300009237421964250000N02B1100001169680000000000000                              PARACETAMOL 1000MG/100ML(10MG/ML) SOL INY  VIAL X 100ML FRESENIUS KABIVAL     1
CC0000051960635H202100000555191700000555191731/10/20210557     3300009237421964250000N02B1100001169680000000000000                              PARACETAMOL 1000MG/100ML(10MG/ML) SOL INY  VIAL X 100ML FRESENIUS KABIVAL     2
