CC0000007467947H202100000555190500000555190531/10/20211056     3300009237421964250000A2BC0900000200150000000000000                                                                               ORAZOLE Sln Iny 40 mgCIN     1
CC0000007467947H202100000555190500000555190531/10/20211056     3300009237421964250000B1AB1200003939350000000000000                 ENOXAPARINA SODICA 80MG/0.8ML(100MG/ML) SOL INY INST CAJ X 2JERPREL X 0.8ML TECHDOWJRP     1
CC0000007467947H202100000555190500000555190531/10/20211428    31500128237421964250000E1AB0200000199290000000000000                                                            SOLUCION SALINA 0.9% SLN INY BO X 100 MLBIN     3
CC0000007467947H202100000555190500000555190531/10/20210503    31500072237421964250000E1AB0200000199290000000000000                                                            SOLUCION SALINA 0.9% SLN INY BO X 100 MLBIN    10
CC0000007467947H202100000555190500000555190531/10/20211428    31500128237421964250000E1AD0300000199490000000000000                                         LACTATO RINGER USP (HARTMANN)  SOL INY  BOL X 1000ML BAXTERBIN     3
CC0000007467947H202100000555190500000555190531/10/20211504     3300009237421964250000C1BD0200000201790000000000000                                                                      CORDARONE SLN INY 150 MG/ 3 MLAMP     1
CC0000007467947H202100000555190500000555190531/10/20211513     3300009237421964250000C7AB1000001382030000000000000                                                                   NOREPINEFRINA SLN INY 4 MG / 4 MLAMP     6
CC0000007467947H202100000555190500000555190531/10/20211500     3300009237421964250000C7AB1500001277290000000000000                                                                        BETALOC ZOK TAB LM 50 MG /R/TAB     1
CC0000007467947H202100000555190500000555190531/10/20211132     3300009237421964250000C7AB1500001277290000000000000                                                                        BETALOC ZOK TAB LM 50 MG /R/TAB     1
CC0000007467947H202100000555190500000555190531/10/20211056     3300009237421964250000N2AX0500001204110000000000000                                                                          TRAMAL SLN INY 100 MG / MLAMP     3
CC0000007467947H202100000555190500000555190531/10/20211055     3300009237421964250000N2AX0500001204110000000000000                                                                          TRAMAL SLN INY 100 MG / MLAMP     2
CC0000007467947H202100000555190500000555190531/10/20210748     3300009237421964250000N2AX0400001204140000000000000                                                                             TRAMAL Sln Iny 50 mg/mlAMP     1
CC0000007467947H202100000555190500000555190531/10/20211500     3300009237421964250000N2BE0100001276930000000000000                                                                                    DOLEX TAB 500 MGTAB     2
CC0000007467947H202100000555190500000555190531/10/20211056     3300009237421964250000N2BE0100001276930000000000000                                                                                    DOLEX TAB 500 MGTAB     6
CC0000007467947H202100000555190500000555190531/10/20210749     3300009237421964250000N2BE0100001276930000000000000                                                                                    DOLEX TAB 500 MGTAB     2
CC0000007467947H202100000555190500000555190531/10/20211428    31500128237421964250000V07A1300000502600000000000000                                                                                AGUA ESTERIL x 10 mlAMP     8
CC0000007467947H202100000555190500000555190531/10/20210504    31500072237421964250000V07A1300000502600000000000000                                                                                AGUA ESTERIL x 10 mlAMP    10
