RC0001048091909H202100015132505300015132505331/10/20211911    3190305023742196425000030161400001459220000000000000                                                                       MANGUERA SUCCION 6 MM*3.1 MTSSOB     1
RC0001048091909H202100015132505300015132505331/10/20211911    3190305023742196425000000400300000661650000000000000                                                            TUBO ENDOTRAQUEAL 3.5MM S/BALON LIFECARESOB     1
RC0001048091909H202100015132505300015132505331/10/20211911    3190305023742196425000019819800000259860000000000000                                                                           SONDA TRACH CARE 8F 198-5SIN     1
RC0001048091909H202100015132505300015132505331/10/20211911    31903050237421964250000Q1AA1000000256790000000000000                                                                         SONDA ASPIRACION CONTROL #8SIN     5
NV0000169332059H202100015132505300015132505331/10/20211911    3190305023742196425000011063600000850520000000000000                                                               SISTEMA CONEXION REF 8418583 BABYFLOWSOB     1
NV0000169332059H202100015132505300015132505331/10/20211911    3190305023742196425000018570100000850510000000000000                                                              INTERFAZ NASAL MASCARA REF 8418490( M)SOB     1
NV0000169332059H202100015132505300015132505331/10/20211911    3190305023742196425000011087000001103810000000000000                                                            GORRITO NEONATA 8418535 BABYFLOW TALLA MSOB     1
RC0001048091909H202100015132505300015132505331/10/20211911    3190305023742196425000025830800001081100000000000000                                                            CIRCUITO VENTILACIÓN NEONATO MVC1774/171BOL     1
RC0001048091909H202100015132505300015132505331/10/20211911    3190305023742196425000013000200001148850000000000000                                                               CIRCUITO DESECHABLE NEOPUFF RD1300-10BOL     1
RC0001048091909H202100015132505300015132505331/10/20211911    3190305023742196425000020816000001096410000000000000                                                                          LINER PARED DELGADA 1500CCBOL     1
