CC0000032738706U202100050131444300050131444331/10/20210250    3190286523942196432000011082700001620070000000000000                                                               EQUIPO SET PRIMARIO C/CLAVE REF 14001BOL     1
CC0000032738706U202100050131444300050131444331/10/20210250    3190286523942196432000030936900001431840000000000000                                                                                              BURETABOL     1
CC0000032738706U202100050131444300050131444331/10/20210250    31902865239421964320000E1AB0300003888390000000000000                                                            SOLUCION SALINA 0.9% SLN INY BO X 500 MLBOL     1
