PA0000597549720H202100000555191000000555191031/10/20211520     3300009237421964250000A03F0300001626860000000000000                                                                   METOCLOPRAMIDA SLN INY 10 MG/2 MLAMP     1
PA0000597549720H202100000555191000000555191031/10/20210544     3300009237421964250000A03F0300001626860000000000000                                                                   METOCLOPRAMIDA SLN INY 10 MG/2 MLAMP     1
PA0000597549720H202100000555191000000555191031/10/20211520     3300009237421964250000A04A1400001467560000000000000                                                                      ONDANSETRON SLN INY 8 MG/ 4 MLVAL     1
PA0000597549720H202100000555191000000555191031/10/20211214    31903271237421964250000E1AD0300000199490000000000000                                         LACTATO RINGER USP (HARTMANN)  SOL INY  BOL X 1000ML BAXTERBIN     1
PA0000597549720H202100000555191000000555191031/10/20210646    31902949237421964250000E1AD0300000199490000000000000                                         LACTATO RINGER USP (HARTMANN)  SOL INY  BOL X 1000ML BAXTERBIN     2
PA0000597549720H202100000555191000000555191031/10/20211520     3300009237421964250000H02AB500001664950000000000000                                                            DEXAMETASONA SLN INY 8 MG/2 ML AMP /CDS/AMP     1
PA0000597549720H202100000555191000000555191031/10/20210544     3300009237421964250000H02AB500001664950000000000000                                                            DEXAMETASONA SLN INY 8 MG/2 ML AMP /CDS/AMP     1
PA0000597549720H202100000555191000000555191031/10/20211520     3300009237421964250000N2BB1100000217160000000000000                                                                      NOVALGINA Sln Iny 2.5 g x 5 mlAMP     2
PA0000597549720H202100000555191000000555191031/10/20210544     3300009237421964250000N2BB1100000217160000000000000                                                                      NOVALGINA Sln Iny 2.5 g x 5 mlAMP     1
PA0000597549720H202100000555191000000555191031/10/20210544     3300009237421964250000N02B1100001169680000000000000                              PARACETAMOL 1000MG/100ML(10MG/ML) SOL INY  VIAL X 100ML FRESENIUS KABIVAL     1
