RC0001043714288H202100015122512900015122512931/10/20211037    3150034323742196425000021194000000227810000000000000                                                                   CATETER BILUMEN PEDIAT 4F CS12402SIN     1
RC0001063188067H202100015122512900015122512931/10/20211037    3150034323742196425000011089300001083990000000000000                                                              GUANTE ESTERIL LATEX S/POLVO TALLA 7.5SOB     5
RC0001043714288H202100015122512900015122512931/10/20211037    3150034323742196425000011089300001083990000000000000                                                              GUANTE ESTERIL LATEX S/POLVO TALLA 7.5SOB     5
RC0001187466818H202100015122512900015122512931/10/20211037    3150034323742196425000013077800000471960000000000000                                                             GASA NO TEJIDA EST 7.5 X 7.5 SOB X 3 UNSOB     4
RC0001043714288H202100015122512900015122512931/10/20211037    3150034323742196425000013077800000471960000000000000                                                             GASA NO TEJIDA EST 7.5 X 7.5 SOB X 3 UNSOB     4
