CC0000008703888H202100000555185300000555185331/10/20210942     3300009237421964250000A10B1600001336910000000000000                                                                               TRAYENTA TAB 5 MG /R/TAB     1
CC0000008703888H202100000555185300000555185331/10/20210942     3300009237421964250000A12AA500001379260000000000000                                                                             OSTEOCAL TAB 600 MG /R/TAB     1
CC0000008703888H202100000555185300000555185331/10/20212155    31903260237421964250000E1AB0300003888390000000000000                                                            SOLUCION SALINA 0.9% SLN INY BO X 500 MLBOL     1
CC0000008703888H202100000555185300000555185331/10/20210117    31902202237421964250000E1AB0300003888390000000000000                                                            SOLUCION SALINA 0.9% SLN INY BO X 500 MLBOL     2
CC0000008703888H202100000555185300000555185331/10/20211612     3300009237421964250000C2AC0100001277460000000000000                                                                              CATAPRESAN TAB 150 MCGCOM     1
CC0000008703888H202100000555185300000555185331/10/20210942     3300009237421964250000C2AC0100001277460000000000000                                                                              CATAPRESAN TAB 150 MCGCOM     2
CC0000008703888H202100000555185300000555185331/10/20210942     3300009237421964250000C02C0300001277330000000000000                                                                                  PRAZOSINA TAB 1 MGTAB     2
CC0000008703888H202100000555185300000555185331/10/20210943     3300009237421964250000C3CA0100001278130000000000000                                                                                     LASIX TAB 40 MGTAB     1
CC0000008703888H202100000555185300000555185331/10/20211611     3300009237421964250000C7AB1500001277290000000000000                                                                        BETALOC ZOK TAB LM 50 MG /R/TAB     1
CC0000008703888H202100000555185300000555185331/10/20210942     3300009237421964250000C7AB1500001277290000000000000                                                                        BETALOC ZOK TAB LM 50 MG /R/TAB     1
CC0000008703888H202100000555185300000555185331/10/20210942     3300009237421964250000C7FA0200001277980000000000000                                                                                    NORVAS TAB 10 MGTAB     3
CC0000008703888H202100000555185300000555185331/10/20210942     3300009237421964250000C10AA400001301110000000000000                                                                                   LIPITOR TAB 40 MGTAB     1
CC0000008703888H202100000555185300000555185331/10/20210942     3300009237421964250000J1CB1800001134180000000000000                                                                             TAZOCIN Polvo Iny 4.5 gVAL     1
CC0000008703888H202100000555185300000555185331/10/20211612     3300009237421964250000N02B1100001169680000000000000                              PARACETAMOL 1000MG/100ML(10MG/ML) SOL INY  VIAL X 100ML FRESENIUS KABIVAL     1
CC0000008703888H202100000555185300000555185331/10/20210943     3300009237421964250000N02B1100001169680000000000000                              PARACETAMOL 1000MG/100ML(10MG/ML) SOL INY  VIAL X 100ML FRESENIUS KABIVAL     1
CC0000008703888H202100000555185300000555185331/10/20210942     3300009237421964250000N02B1100001169680000000000000                              PARACETAMOL 1000MG/100ML(10MG/ML) SOL INY  VIAL X 100ML FRESENIUS KABIVAL     2
CC0000008703888H202100000555185300000555185331/10/20211228    31903288237421964250000V07A1300000502600000000000000                                                                                AGUA ESTERIL x 10 mlAMP     5
