CC0000036148059U202100050131444700050131444731/10/20210559    3190233723942196432000024674000000220660000000000000                             JERINGA A 3 PARTES CON AGUJA  SOB X 1 RYMCO  10ML BN EXENTO-DC.417/2020SIN     1
CC0000036148059U202100050131444700050131444731/10/20210559    3190233723942196432000013077800000471960000000000000                                                             GASA NO TEJIDA EST 7.5 X 7.5 SOB X 3 UNSOB    10
CC0000036148059U202100050131444700050131444731/10/20210559    3190233723942196432000042743200003929860000000000000                   GASA ADHESIVA STRETCH REF 02038-00 ROL X 10MT FIXOMULL 15CM BN EXENTO-DC.417/2020CMT    50
CC0000036148059U202100050131444700050131444731/10/20210559    3190233723942196432000042743400003929880000000000000                                    CINTA ADHESIVA TRANSPARENT REF 72216-01 ROL X 10MT FIXOMULL 10CMCMT    40
CC0000036148059U202100050131444700050131444731/10/20210559    31902337239421964320000E1AB0200000199290000000000000                                                            SOLUCION SALINA 0.9% SLN INY BO X 100 MLBIN     1
