CC0000032875135A202100000027660500000027660531/10/20210819    3190333624042196419000024673000001411210000000000000                                                                  JERINGA DESECHABLE 3 ML 21 X 1 1/2SOB     1
CC0000032875135A202100000027660500000027660531/10/20210819    31903336240421964190000N5BB0300000554910000000000000                                                                         HIDERAX SLN INY 100 MG/2 MLAMP     1
CC0000032875135A202100000027660500000027660531/10/20210819    31903336240421964190000E1AD0300000199490000000000000                                         LACTATO RINGER USP (HARTMANN)  SOL INY  BOL X 1000ML BAXTERBIN     1
CC0000032875135A202100000027660500000027660531/10/20210819    3190333624042196419000011082700001620070000000000000                                                               EQUIPO SET PRIMARIO C/CLAVE REF 14001BOL     2
CC0000032875135A202100000027660500000027660531/10/20210819    31903336240421964190000A4AD0200000202990000000000000                                                                     PLITICAN HCL Sln Iny 50 mg/2 mlAMP     1
CC0000032875135A202100000027660500000027660531/10/20210819    3190333624042196419000011055600000349930000000000000                                                             MEDIA ANTIEMBOLICA MUSLO T.V.P 98 ( XL)BOL     1
CC0000032875135A202100000027660500000027660531/10/20210819    31903336240421964190000Q1A15500001690750000000000000                                                            AGUJA ESPINAL WHITACRE 27*3 1/2  4502027SOB     1
CC0000032875135A202100000027660500000027660531/10/20210819    31903336240421964190000N1BA1900000554750000000000000                                                                     ROXICAINA JALEA 2% TUBO X 30 MLTUB     1
CC0000032875135A202100000027660500000027660531/10/20210819    31903336240421964190000B02AA100001407470000000000000                                                                    CLINTRANEX SLN INY 500 MG / 5 MLAMP     2
CC0000032875135A202100000027660500000027660531/10/20210819    3190333624042196419000031188000000236790000000000000                                                                                     CISTOFLO ADULTOSIN     1
CC0000032875135A202100000027660500000027660531/10/20210819    3190333624042196419000038569900001124970000000000000                                                                              SONDA FOLEY #14 2 VIASSOB     1
CC0000032875135A202100000027660500000027660531/10/20210819    31903336240421964190000C01C0300001261020000000000000                                                               ETILEFRINA HCL SLN INY 10 MG/1 ML /R/AMP     1
CC0000032875135A202100000027660500000027660531/10/20210819    31903336240421964190000N01A0400003939010000000000000                                               MAYOPROFOL 200MG/20ML(1%) EMUL INY CAJ X 1VIAL X 20MLVAL     1
CC0000032875135A202100000027660500000027660531/10/20210819    3190333624042196419000000342100000994080000000000000                                                                     DISPOSITIVO V-LOC 3-0 VLOCL0614SOB     1
CC0000032875135A202100000027660500000027660531/10/20210819    3190333624042196419000045138000001413890000000000000                                                                       LAPIZ ELECTROBISTURI  SOB X 1SOB     1
CC0000032875135A202100000027660500000027660531/10/20210819    3190333624042196419000030161400001459220000000000000                                                                       MANGUERA SUCCION 6 MM*3.1 MTSSOB     1
CC0000032875135A202100000027660500000027660531/10/20210819    3190333624042196419000011017400000231840000000000000                                                                         CATGUT CROMADO 2-0 CT1 923TSIN     2
CC0000032875135A202100000027660500000027660531/10/20210819    3190333624042196419000019487800001585180000000000000                                                                    VICRYL 1 PLUS 70 CM CT-1 VCP341HSOB     6
CC0000032875135A202100000027660500000027660531/10/20210819    3190333624042196419000043879500001138210000000000000                                                                                    HOJA BISTURI #20SOB     1
CC0000032875135A202100000027660500000027660531/10/20210819    3190333624042196419000022425200000548240000000000000                       EXTENSION DE ANESTESIA REF 1139 SOB X 1 SHERLEG  ADULTO BN EXENTO-DC.417/2020SIN     1
CC0000032875135A202100000027660500000027660531/10/20210819    3190333624042196419000035356500003919000000000000000                                                                                        LLAVE 3 VIASSOB     1
CC0000032875135A202100000027660500000027660531/10/20210819    31903336240421964190000Q1AA7100000610620000000000000                                                            CATETER PERIFE INTROCAN # 18G 4251687-04SIN     1
CC0000032875135A202100000027660500000027660531/10/20210819    3190333624042196419000022426800001140510000000000000                                                                    EQUIPO MACROGOTEO BAXTER MRC0001SOB     1
CC0000032875135A202100000027660500000027660531/10/20210819    31903336240421964190000J01DA300001239950000000000000                                                            CEFAZOLINA SODICA POLVO LIOF SLN INY 1 GVAL     2
CC0000032875135A202100000027660500000027660531/10/20210819    3190333624042196419000020750600000296780000000000000                                                                PLACA ELECTRO RETORNO PACIENTE E7506SIN     1
CC0000032875135A202100000027660500000027660531/10/20210819    3190333624042196419000011073300001096420000000000000                                                                BOLSA DE SUCCION DE FLUIDOS x 2500mLBOL     1
CC0000032875135A202100000027660500000027660531/10/20210819    3190333624042196419000053074400000607910000000000000                                                               GASA ESTERIL 10*10 SOBRE X 3 UNIDADESSOB     4
CC0000032875135A202100000027660500000027660531/10/20210819    3190333624042196419000011047900000223010000000000000                                                                            JERINGA X 1ML REF 302579SIN     1
CC0000032875135A202100000027660500000027660531/10/20210819    3190333624042196419000024673600000222980000000000000                                                                     JERINGA DESECHABLE 5 ml 27*11/2SIN     4
CC0000032875135A202100000027660500000027660531/10/20210819    3190333624042196419000024674000000220660000000000000                             JERINGA A 3 PARTES CON AGUJA  SOB X 1 RYMCO  10ML BN EXENTO-DC.417/2020SIN     5
CC0000032875135A202100000027660500000027660531/10/20210819    3190333624042196419000024674500000322810000000000000                                                                   JERINGA DESECHABLE 20 ml 21*1 1/2SIN     1
CC0000032875135A202100000027660500000027660531/10/20210819    3190333624042196419000011085300001082140000000000000                                                                           GUANTE QUIRURGICO TALLA 8SOB     1
CC0000032875135A202100000027660500000027660531/10/20210819    3190333624042196419000011085200001585390000000000000                                                                       GUANTE QUIRURGICO TALLA 7 1/2SOB     2
CC0000032875135A202100000027660500000027660531/10/20210819    3190333624042196419000011085100001082120000000000000                                                                           GUANTE QUIRURGICO TALLA 7SOB     3
CC0000032875135A202100000027660500000027660531/10/20210819    3190333624042196419000043485100001618510000000000000                GUANTE QUIRURGICO DE LATEX REF 2D72N65X CAJ X 50 PROTEXIS  6.5 BN EXENTO-DC.417/2020SOB     3
CC0000032875135A202100000027660500000027660531/10/20210819    3190333624042196419000038568100000258050000000000000                                                                         CANULA OXIGENO NASAL ADULTOSIN     1
CC0000032875135A202100000027660500000027660531/10/20210819    31903336240421964190000E1AD0200003888320000000000000                                                                              HARTMAN SLN INY 500 MLBOL     1
CC0000032875135A202100000027660500000027660531/10/20210819    31903336240421964190000E1AB0300003888390000000000000                                                            SOLUCION SALINA 0.9% SLN INY BO X 500 MLBOL     4
CC0000032875135A202100000027660500000027660531/10/20210819    31903336240421964190000E1AB0200000199290000000000000                                                            SOLUCION SALINA 0.9% SLN INY BO X 100 MLBIN     2
CC0000032875135A202100000027660500000027660531/10/20210819    31903336240421964190000E1AB0700003888350000000000000                                                            SOLUCION SALINA 0.9% SLN INY BO X 250 MLBOL     1
CC0000032875135A202100000027660500000027660531/10/20210819    31903336240421964190000N1BA0500000647360000000000000                                                                  BUPIROP 0.5% PESADO SLN INY X 4 MLAPC     1
CC0000032875135A202100000027660500000027660531/10/20210819    31903336240421964190000A2BC0900000200150000000000000                                                                               ORAZOLE Sln Iny 40 mgCIN     1
CC0000032875135A202100000027660500000027660531/10/20210819    31903336240421964190000N2AX0900001672040000000000000                                                                              TRAMADOL SLN INY 50 MGAMP     1
CC0000032875135A202100000027660500000027660531/10/20210819    31903336240421964190000N1BA2400001195280000000000000                                                                    LIDOCAINA 2% S/E Sln Iny x 10 mlAMP     1
CC0000032875135A202100000027660500000027660531/10/20210819    31903336240421964190000H02A0100001664960000000000000                                                                        DEXAMETASONA SLN INY 4 MG/MLAMP     2
CC0000032875135A202100000027660500000027660531/10/20210819    31903336240421964190000M01A2000001664970000000000000                                                               DICLOFENACO SODICO SLN INY 75 MG/3 MLAMP     1
CC0000032875135A202100000027660500000027660531/10/20210819    31903336240421964190000N02BB100000777810000000000000                                                               DIPIRONA MAGNESICA SLN INY 2.5 G/5 MLAMP     1
CC0000032875135A202100000027660500000027660531/10/20210819    31903336240421964190000N2AA0100000301640000000000000                                                                            MORFINA Sln Iny 10 mg/mlAMP     1
