CC0001042970504H202100015112659200015112659231/10/20212133    3190265123742196425000042753100003929850000000000000                   GASA ADHESIVA STRETCH REF 02037-00 ROL X 10MT FIXOMULL 10CM BN EXENTO-DC.417/2020CMT   100
CC0001042970504H202100015112659200015112659231/10/20212133    3190265123742196425000022426800001140510000000000000                                                                    EQUIPO MACROGOTEO BAXTER MRC0001SOB     3
CC0001042970504H202100015112659200015112659231/10/20212133    3190265123742196425000011082700001620070000000000000                                                               EQUIPO SET PRIMARIO C/CLAVE REF 14001BOL     3
CC0001042970504H202100015112659200015112659231/10/20212133    3190265123742196425000030936900001431840000000000000                                                                                              BURETABOL     1
CC0000022328269H202100015112659200015112659231/10/20212133    3190265123742196425000000602700001197200000000000000                                                              APOSITO TRANSP  1655 IV 8.5CM X 11.5CMSOB     1
CC0001042970504H202100015112659200015112659231/10/20212133    3190265123742196425000000602700001197200000000000000                                                              APOSITO TRANSP  1655 IV 8.5CM X 11.5CMSOB     1
