CC0000000861447H202100015052710500015052710531/10/20212042    3150051923742196425000011082700001620070000000000000                                                               EQUIPO SET PRIMARIO C/CLAVE REF 14001BOL     1
CE0000V28051252H202100015052710500015052710531/10/20212042    3150051923742196425000001956000001620610000000000000                                                                      CONECTOR MICRO CLAVE LAT-MC100SOB     1
RC0001046723141H202100015052710500015052710531/10/20212042    3150051923742196425000001956000001620610000000000000                                                                      CONECTOR MICRO CLAVE LAT-MC100SOB     1
CE0000V28051252H202100015052710500015052710531/10/20212042    31500519237421964250000Q1AA7300000610640000000000000                                                            CATETER PERIFE INTROCAN # 22G 4251628-04SIN     1
RC0001046723141H202100015052710500015052710531/10/20212042    31500519237421964250000Q1AA7300000610640000000000000                                                            CATETER PERIFE INTROCAN # 22G 4251628-04SIN     1
CC0000000861447H202100015052710500015052710531/10/20212042    3150051923742196425000030936900001431840000000000000                                                                                              BURETABOL     1
CE0000V28051252H202100015052710500015052710531/10/20212042    3150051923742196425000016830000000970620000000000000                                                             SIST FIJACION CAT PERIFERICO 6.5X7 1683SOB     1
RC0001046723141H202100015052710500015052710531/10/20212042    3150051923742196425000016830000000970620000000000000                                                             SIST FIJACION CAT PERIFERICO 6.5X7 1683SOB     1
CC0000022438763H202100015052710500015052710531/10/20212042    31500519237421964250000E1AB0300003888390000000000000                                                            SOLUCION SALINA 0.9% SLN INY BO X 500 MLBOL     1
