RC0001146544739H202100000555182800000555182831/10/20211039     3300009237421964250000R06A0500000858070000000000000                                                                 DESLORATADINA  SOL 0 05% x 15mL SOLFCO     1
RC0001146544739H202100000555182800000555182831/10/20210935    31901156237421964250000E1AC0100000199400000000000000                                                                          SUERO MIXTO Sln Iny 500 mlBIN     2
RC0001146544739H202100000555182800000555182831/10/20210535     3300009237421964250000A12BA100000552980000000000000                                                            CLORURO POTASIO Sln Iny AMP 20 MEQ/10 MLAMP     1
RC0001146544739H202100000555182800000555182831/10/20211538     3300009237421964250000J1CB0600000468340000000000000                                                           UNASYN IM-IV (1+0.5)GR POLV INY INST VIALVAL     2
RC0001146544739H202100000555182800000555182831/10/20210033     3300009237421964250000J1CB0600000468340000000000000                                                           UNASYN IM-IV (1+0.5)GR POLV INY INST VIALVAL     2
RC0001146544739H202100000555182800000555182831/10/20210033     3300009237421964250000N2BB0500000217140000000000000                                                                          NOVALGINA Sln Iny 1 g/2 mlAMP     2
RC0001146544739H202100000555182800000555182831/10/20210604     3300009237421964250000N02B1100001169680000000000000                              PARACETAMOL 1000MG/100ML(10MG/ML) SOL INY  VIAL X 100ML FRESENIUS KABIVAL     1
RC0001146544739H202100000555182800000555182831/10/20210033     3300009237421964250000N02B1100001169680000000000000                              PARACETAMOL 1000MG/100ML(10MG/ML) SOL INY  VIAL X 100ML FRESENIUS KABIVAL     1
RC0001146544739H202100000555182800000555182831/10/20211049     3300009237421964250000R03AC100001340440000000000000                                                            VENTILAN OSP INH ORAL 100 MCG /DO 200 DOFCO     1
RC0001146544739H202100000555182800000555182831/10/20211145    31900933237421964250000V07A1300000502600000000000000                                                                                AGUA ESTERIL x 10 mlAMP     5
