RC0001146542960H202100000555184900000555184931/10/20210115    31902202237421964250000E1AB0300003888390000000000000                                                            SOLUCION SALINA 0.9% SLN INY BO X 500 MLBOL     1
RC0001146542960H202100000555184900000555184931/10/20211843     3300009237421964250000J01D1300001469600000000000000                                                                               POZINEG POLVO INY 1 GVAL     1
RC0001146542960H202100000555184900000555184931/10/20210917     3300009237421964250000J01D1300001469600000000000000                                                                               POZINEG POLVO INY 1 GVAL     2
RC0001146542960H202100000555184900000555184931/10/20211610     3300009237421964250000J01FF200003888100000000000000                                                                             EUROCLIN SLN INY 600 MGAMP     1
RC0001146542960H202100000555184900000555184931/10/20210917     3300009237421964250000J01FF200003888100000000000000                                                                             EUROCLIN SLN INY 600 MGAMP     1
RC0001146542960H202100000555184900000555184931/10/20210703     3300009237421964250000J01FF200003888100000000000000                                                                             EUROCLIN SLN INY 600 MGAMP     1
RC0001146542960H202100000555184900000555184931/10/20210132     3300009237421964250000J01FF200003888100000000000000                                                                             EUROCLIN SLN INY 600 MGAMP     1
RC0001146542960H202100000555184900000555184931/10/20211843     3300009237421964250000L1BC1300000304160000000000000                                                                        NEUPOGEN Sln iny 300 mcg /R/JRP     1
RC0001146542960H202100000555184900000555184931/10/20210703     3300009237421964250000N02B1100001169680000000000000                              PARACETAMOL 1000MG/100ML(10MG/ML) SOL INY  VIAL X 100ML FRESENIUS KABIVAL     1
RC0001146542960H202100000555184900000555184931/10/20210132     3300009237421964250000N02B1100001169680000000000000                              PARACETAMOL 1000MG/100ML(10MG/ML) SOL INY  VIAL X 100ML FRESENIUS KABIVAL     1
RC0001146542960H202100000555184900000555184931/10/20211227    31903288237421964250000V07A1300000502600000000000000                                                                                AGUA ESTERIL x 10 mlAMP    10
