CC0000008697210H202100000555185500000555185531/10/20210833     3300009237421964250000N06DX300001335230000000000000                                                                MEMANTINA 10MG TABLETA RECUBIERTA/R/TAB     2
CC0000008697210H202100000555185500000555185531/10/20211747     3300009237421964250000B1AB0200003939510000000000000                 ENOXAPARINA SODICA 40MG/0.4ML(100MG/ML) SOL INY INST CAJ X 2JERPREL X 0.4ML TECHDOWJRP     1
CC0000008697210H202100000555185500000555185531/10/20212358    31903107237421964250000E1AB0300003888390000000000000                                                            SOLUCION SALINA 0.9% SLN INY BO X 500 MLBOL     1
CC0000008697210H202100000555185500000555185531/10/20210703    31903156237421964250000E1AB0300003888390000000000000                                                            SOLUCION SALINA 0.9% SLN INY BO X 500 MLBOL     1
CC0000008697210H202100000555185500000555185531/10/20210833     3300009237421964250000J01DA300001239950000000000000                                                            CEFAZOLINA SODICA POLVO LIOF SLN INY 1 GVAL     6
CC0000008697210H202100000555185500000555185531/10/20211747     3300009237421964250000N03AB200001168090000000000000                                                                       FENITOINA Sln Iny 250 mg/5 mlAMP     1
CC0000008697210H202100000555185500000555185531/10/20210833     3300009237421964250000N03AB200001168090000000000000                                                                       FENITOINA Sln Iny 250 mg/5 mlAMP     1
CC0000008697210H202100000555185500000555185531/10/20210117     3300009237421964250000N03AB200001168090000000000000                                                                       FENITOINA Sln Iny 250 mg/5 mlAMP     1
CC0000008697210H202100000555185500000555185531/10/20211450    31903254237421964250000V07A1300000502600000000000000                                                                                AGUA ESTERIL x 10 mlAMP     4
