CC0001129498209H202100000555198800000555198831/10/20210942    31903254237421964250000A04A1400001467560000000000000                                                                      ONDANSETRON SLN INY 8 MG/ 4 MLVAL     1
CC0001129498209H202100000555198800000555198831/10/20210942    31903254237421964250000A6AC0200001467010000000000000                                                             LACTULAX JARABE 66.7G/100ML SOX15ML /R/SOB     2
CC0001129498209H202100000555198800000555198831/10/20210921    31903254237421964250000A6AC0200001467010000000000000                                                             LACTULAX JARABE 66.7G/100ML SOX15ML /R/SOB     2
CC0001129498209H202100000555198800000555198831/10/20210942    31903254237421964250000B1AB0100001227270000000000000                                             HEPAMAX 25000UI/5ML(5000UI/ML) SOL INY  CAJ X 25AMPX5MLAMP     1
CC0001129498209H202100000555198800000555198831/10/20210942    31903254237421964250000C02DC100001304000000000000000                                                                                VAXDIL TAB 10 MG /R/TAB     1
CC0001129498209H202100000555198800000555198831/10/20210921    31903254237421964250000C02DC100001304000000000000000                                                                                VAXDIL TAB 10 MG /R/TAB     1
CC0001129498209H202100000555198800000555198831/10/20210921    31903254237421964250000A02B1700001314860000000000000                                                                               ESOMEPRAZOL TAB 20 MGTAB     1
CC0001129498209H202100000555198800000555198831/10/20210942    31903254237421964250000C02AC200001559150000000000000                                                                              CLONIDINA TAB 0.150 MGTAB     3
CC0001129498209H202100000555198800000555198831/10/20210921    31903254237421964250000C02AC200001559150000000000000                                                                              CLONIDINA TAB 0.150 MGTAB     2
CC0001129498209H202100000555198800000555198831/10/20210942    31903254237421964250000C02C0100001316210000000000000                                                                                     PRATEN TAB 1 MGTAB     6
CC0001129498209H202100000555198800000555198831/10/20210921    31903254237421964250000C02C0100001316210000000000000                                                                                     PRATEN TAB 1 MGTAB     2
CC0001129498209H202100000555198800000555198831/10/20210942    31903254237421964250000C3CA0700001334510000000000000                                                                                FUROSEMIDA TAB 40 MGTAB     1
CC0001129498209H202100000555198800000555198831/10/20210942    31903254237421964250000C7AB0100001276990000000000000                                                                            BETOPROLOL TAB 50 MG /R/TAB     2
CC0001129498209H202100000555198800000555198831/10/20210942    31903254237421964250000C08CA300001313930000000000000                                                                                AMLODIPINO TAB 10 MGTAB     1
CC0001129498209H202100000555198800000555198831/10/20210942    31903254237421964250000J01DB400001314340000000000000                                                                               CEFALEXINA CAP 500 MGCAP     2
CC0001129498209H202100000555198800000555198831/10/20210921    31903254237421964250000J01DB400001314340000000000000                                                                               CEFALEXINA CAP 500 MGCAP     1
CC0001129498209H202100000555198800000555198831/10/20210921    31903254237421964250000N2BB0100000787510000000000000                                                                    DIPIRONA SODICA Sln Iny 1 g/2 mlAMP     2
