TI0001072108867H202100015122512600015122512631/10/20210637    3150056823742196425000011082200001407940000000000000                                                              EQUIPO EXT MICROTUBO Y 2 VALVUL 2N8371SOB     1
RC0001063188067H202100015122512600015122512631/10/20210637    3150056823742196425000011082200001407940000000000000                                                              EQUIPO EXT MICROTUBO Y 2 VALVUL 2N8371SOB     1
TI0001072108867H202100015122512600015122512631/10/20210637    31500568237421964250000Q1AA7300000610640000000000000                                                            CATETER PERIFE INTROCAN # 22G 4251628-04SIN     1
RC0001063188067H202100015122512600015122512631/10/20210637    31500568237421964250000Q1AA7400003911720000000000000                                                            CATETER PERIFE INTROCAN # 24G 4251601-04SOB     1
RC0001063188067H202100015122512600015122512631/10/20210637    3150056823742196425000000602600001259280000000000000                                                             APOSITO TEGADERM IV PD 1610 5CM X 5.7CMSOB     1
RC0001043714288H202100015122512600015122512631/10/20210637    31500568237421964250000E1AA1400003888550000000000000                                                                         DEXTROSA 10% SLN INY 250 MLBOL     1
