RC0001046723141H202100000555183700000555183731/10/20211812     3300009237421964250000V06C1000000303870000000000000                                                                    PEPTAMEN JUNIOR Liquido x 250 MLLAT     2
RC0001046723141H202100000555183700000555183731/10/20212311     3300009237421964250000N03AG200001590870000000000000                                                            PROVALNOVA SLN INY 100MG/ML VIALX5ML /R/VAL     1
RC0001046723141H202100000555183700000555183731/10/20211811     3300009237421964250000N03AG200001590870000000000000                                                            PROVALNOVA SLN INY 100MG/ML VIALX5ML /R/VAL     1
RC0001046723141H202100000555183700000555183731/10/20210109     3300009237421964250000N03AG200001590870000000000000                                                            PROVALNOVA SLN INY 100MG/ML VIALX5ML /R/VAL     2
RC0001046723141H202100000555183700000555183731/10/20210747     3300009237421964250000N03AX200001063780000000000000                                                                      KEPPRA SLN INY 500 MG/5 ML /R/VAL     1
RC0001046723141H202100000555183700000555183731/10/20210109     3300009237421964250000N03AX200001063780000000000000                                                                      KEPPRA SLN INY 500 MG/5 ML /R/VAL     1
RC0001046723141H202100000555183700000555183731/10/20211811     3300009237421964250000N2BB0100000787510000000000000                                                                    DIPIRONA SODICA Sln Iny 1 g/2 mlAMP     2
RC0001046723141H202100000555183700000555183731/10/20210109     3300009237421964250000N2BB0100000787510000000000000                                                                    DIPIRONA SODICA Sln Iny 1 g/2 mlAMP     1
RC0001046723141H202100000555183700000555183731/10/20210747     3300009237421964250000A02BC700001684270000000000000                                                            OMEPRAZOL 40MG POLVO LIOFILIZADO AMPOLLAVAL     1
RC0001046723141H202100000555183700000555183731/10/20211104    31903301237421964250000V07A1300000502600000000000000                                                                                AGUA ESTERIL x 10 mlAMP     4
