CC0000022328269H202100913302103100913302103131/10/20210913    3150030523742196425000062750100001405910000000000000                                                                 INFOVAC CANISTER 1000 ML M8275093/5SOB     1
CC0000022328269H202100913302103100913302103131/10/20211054    3150002223742196425000013077800000471960000000000000                                                             GASA NO TEJIDA EST 7.5 X 7.5 SOB X 3 UNSOB     5
CC0000022328269H202100913302103100913302103131/10/20211054    3150002223742196425000024674000000220660000000000000                             JERINGA A 3 PARTES CON AGUJA  SOB X 1 RYMCO  10ML BN EXENTO-DC.417/2020SIN     4
CC0000022328269H202100913302103100913302103131/10/20211054    3150002223742196425000036441300000236540000000000000                                                                    JERINGA 1 ML GASES ARTERIAL 9023SIN     4
CC0000022328269H202100913302103100913302103131/10/20211054    3150002223742196425000038569400000256750000000000000                                                                        SONDA ASPIRACION CONTROL #14SIN     5
CC0000022328269H202100913302103100913302103131/10/20211054    31500022237421964250000E1AB0700003888350000000000000                                                            SOLUCION SALINA 0.9% SLN INY BO X 250 MLBOL     1
CC0000022328269H202100913302103100913302103131/10/20211222    3150053223742196425000022426800001140510000000000000                                                                    EQUIPO MACROGOTEO BAXTER MRC0001SOB     1
CC0000022328269H202100913302103100913302103131/10/20211222    3150053223742196425000030936900001431840000000000000                                                                                              BURETABOL     1
CC0000022328269H202100913302103100913302103131/10/20211711    31500532237421964250000E1AB0700003888350000000000000                                                            SOLUCION SALINA 0.9% SLN INY BO X 250 MLBOL     1
