CC0001140858391U202100917693110900917693110909/11/20211713    3150025823942196432000024674000001138340000000000000   JERINGA 3PARTES C/A 10ML REF JEHL005 CAJ X 100 ALFASAFE  21GX1 PULG 1/2 PULG BN EXENTO-DC.417/202SIN     1
CC0001140858391U202100917693110900917693110909/11/20211713    3150025823942196432000030936900001431840000000000000                                                                                              BURETABOL     1
CC0001140858391U202100917693110900917693110909/11/20211848    3150025823942196432000001956000001620610000000000000                                                                      CONECTOR MICRO CLAVE LAT-MC100SOB     1
