CC0000022521370U202100918411111300918411111313/11/20212059    3150018823942196432000011082700001620070000000000000                                                               EQUIPO SET PRIMARIO C/CLAVE REF 14001BOL     2
CC0000022521370U202100918411111300918411111313/11/20212059    3150018823942196432000016830000000970620000000000000                                                             SIST FIJACION CAT PERIFERICO 6.5X7 1683SOB     1
CC0000022521370U202100918411111300918411111313/11/20212059    3150018823942196432000024674000001138340000000000000   JERINGA 3PARTES C/A 10ML REF JEHL005 CAJ X 100 ALFASAFE  21GX1 PULG 1/2 PULG BN EXENTO-DC.417/202SIN     2
CC0000022521370U202100918411111300918411111313/11/20212059    3150018823942196432000024675000001585130000000000000                                                                    JERINGA DESECHABLE 50 ml S/AGUJASOB     1
CC0000022521370U202100918411111300918411111313/11/20212059    3150018823942196432000027292100000224750000000000000                                                                                  AGUJA PERICAN G-18SIN     1
CC0000022521370U202100918411111300918411111313/11/20212059    3150018823942196432000030936900001431840000000000000                                                                                              BURETABOL     1
CC0000022521370U202100918411111300918411111313/11/20212059    31500188239421964320000E1AB0700003888350000000000000                                                            SOLUCION SALINA 0.9% SLN INY BO X 250 MLBOL     1
CC0000022521370U202100918411111300918411111313/11/20212059    3150018823942196432000001956000001620610000000000000                                                                      CONECTOR MICRO CLAVE LAT-MC100SOB     1
CC0000022521370U202100918411111300918411111313/11/20212059    31500188239421964320000Q1AA7100000610620000000000000                                                            CATETER PERIFE INTROCAN # 18G 4251687-04SIN     1
CC0000022521370U202100918411111300918411111313/11/20212059    31500188239421964320000E1AB0300003888390000000000000                                                            SOLUCION SALINA 0.9% SLN INY BO X 500 MLBOL     2
