CC0001045686959H202100000554731600000554731620/10/20211410     3300009237421964250000H02AB400001140460000000000000                                                              SUCCINA METILPREDNISOLONA 500MG VIA/R/VAL     1
CC0001045686959H202100000554731600000554731620/10/20211429    31500213237421964250000E1AA0100003888590000000000000                                                                        DEXTROSA 5% Sln Iny X 500 mlBOL     3
CC0001045686959H202100000554731600000554731620/10/20211429    31500213237421964250000E1AB0200000199290000000000000                                                            SOLUCION SALINA 0.9% SLN INY BO X 100 MLBIN     5
CC0001045686959H202100000554731600000554731620/10/20211429    31500213237421964250000E1AB0300003888390000000000000                                                            SOLUCION SALINA 0.9% SLN INY BO X 500 MLBOL     2
CC0001045686959H202100000554731600000554731620/10/20210759    31903294237421964250000E1AB0300003888390000000000000                                                            SOLUCION SALINA 0.9% SLN INY BO X 500 MLBOL     2
CC0001045686959H202100000554731600000554731620/10/20211410     3300009237421964250000A12CA200001239800000000000000                     BICARBONATO SODIO 10MEQ/10ML(1MEQ/ML) SOL INY  CAJ X 100AMPX10ML FRESENIUS KABIAMP     5
CC0001045686959H202100000554731600000554731620/10/20210749     3300004237421964250000A12CA200001239800000000000000                     BICARBONATO SODIO 10MEQ/10ML(1MEQ/ML) SOL INY  CAJ X 100AMPX10ML FRESENIUS KABIAMP    13
CC0001045686959H202100000554731600000554731620/10/20211410     3300009237421964250000A12BA100000552980000000000000                                                            CLORURO POTASIO Sln Iny AMP 20 MEQ/10 MLAMP     2
CC0001045686959H202100000554731600000554731620/10/20210749     3300004237421964250000A12BA100000552980000000000000                                                            CLORURO POTASIO Sln Iny AMP 20 MEQ/10 MLAMP     4
CC0001045686959H202100000554731600000554731620/10/20210900     3300004237421964250000L04AX20PENDIENTE0000000000000                                                              METOTREXATO SLN INY 500 MG X 20 ML /R/VAL     7
CC0001045686959H202100000554731600000554731620/10/20210748     3300004237421964250000B01AB200000513350000000000000                                                                        CLENOX SLN INY 40 MG/ 0.4 MLJRP     1
CC0001045686959H202100000554731600000554731620/10/20211932     3300009237421964250000J05AB000001277780000000000000                                                                                ACICLOVIR TAB 200 MGTAB     1
CC0001045686959H202100000554731600000554731620/10/20210748     3300004237421964250000J05AB000001277780000000000000                                                                                ACICLOVIR TAB 200 MGTAB     1
CC0001045686959H202100000554731600000554731620/10/20210749     3300004237421964250000A02BC700001684270000000000000                                                            OMEPRAZOL 40MG POLVO LIOFILIZADO AMPOLLAVAL     2
CC0001045686959H202100000554731600000554731620/10/20211429    31500213237421964250000V07A1300000502600000000000000                                                                                AGUA ESTERIL x 10 mlAMP     9
