RC0001044226035U202100000555943800000555943818/11/20211548     3300004239421964320000N02BE100000000JP0000000000000                                                                ACETAMINOFEN 250MG/5ML JER PLLE JAB. JR     2
RC0001044226035U202100000555943800000555943818/11/20211621    31902331239421964320000E1AB0200000199290000000000000                                                            SOLUCION SALINA 0.9% SLN INY BO X 100 MLBIN     1
RC0001044226035U202100000555943800000555943818/11/20211548     3300004239421964320000N01B0200003888110000000000000                                           ROXICAINA SE 100MG/10ML(1%) SOL INY CAJ X 24AMPACK X 10MLAPC     1
