CC0001081927415U202100913831101300913831101313/10/20212306    3190135523942196432000011082700001620070000000000000                                                               EQUIPO SET PRIMARIO C/CLAVE REF 14001BOL     1
CC0001081927415U202100913831101300913831101313/10/20212306    3190135523942196432000016830000000970620000000000000                                                             SIST FIJACION CAT PERIFERICO 6.5X7 1683SOB     1
CC0001081927415U202100913831101300913831101313/10/20212306    3190135523942196432000024674000001138340000000000000   JERINGA 3PARTES C/A 10ML REF JEHL005 CAJ X 100 ALFASAFE  21GX1 PULG 1/2 PULG BN EXENTO-DC.417/202SIN     3
CC0001081927415U202100913831101300913831101313/10/20212306    3190135523942196432000030936900001431840000000000000                                                                                              BURETABOL     1
CC0001081927415U202100913831101300913831101313/10/20212306    31901355239421964320000Q1AA7100000610620000000000000                                                            CATETER PERIFE INTROCAN # 18G 4251687-04SIN     1
CC0001081927415U202100913831101300913831101313/10/20212306    31901355239421964320000E1AB0300003888390000000000000                                                            SOLUCION SALINA 0.9% SLN INY BO X 500 MLBOL     1
