CC0001140819402U202100906827111100906827111111/11/20211607    3190271223942196432000011082700001620070000000000000                                                               EQUIPO SET PRIMARIO C/CLAVE REF 14001BOL     1
CC0001140819402U202100906827111100906827111111/11/20211607    3190271223942196432000016830000000970620000000000000                                                             SIST FIJACION CAT PERIFERICO 6.5X7 1683SOB     1
CC0001140819402U202100906827111100906827111111/11/20211607    3190271223942196432000024674000001138340000000000000   JERINGA 3PARTES C/A 10ML REF JEHL005 CAJ X 100 ALFASAFE  21GX1 PULG 1/2 PULG BN EXENTO-DC.417/202SIN     3
CC0001140819402U202100906827111100906827111111/11/20211607    3190271223942196432000030936900001431840000000000000                                                                                              BURETABOL     1
CC0001140819402U202100906827111100906827111111/11/20211607    31902712239421964320000Q1AA7300000610640000000000000                                                            CATETER PERIFE INTROCAN # 22G 4251628-04SIN     1
CC0001140819402U202100906827111100906827111111/11/20211607    31902712239421964320000E1AB0700003888350000000000000                                                            SOLUCION SALINA 0.9% SLN INY BO X 250 MLBOL     1
CC0001140819402U202100906827111100906827111111/11/20211607    3190271223942196432000001956000001620610000000000000                                                                      CONECTOR MICRO CLAVE LAT-MC100SOB     1
CC0001140819402U202100906827111100906827111111/11/20211907    3150029423942196432000024674000001138340000000000000   JERINGA 3PARTES C/A 10ML REF JEHL005 CAJ X 100 ALFASAFE  21GX1 PULG 1/2 PULG BN EXENTO-DC.417/202SIN     6
CC0001140819402U202100906827111100906827111111/11/20211914    3150029423942196432000024674500000322810000000000000                                                                   JERINGA DESECHABLE 20 ml 21*1 1/2SIN     1
CC0001140819402U202100906827111100906827111111/11/20211914    3150029423942196432000043485100001618510000000000000                GUANTE QUIRURGICO DE LATEX REF 2D72N65X CAJ X 50 PROTEXIS  6.5 BN EXENTO-DC.417/2020SOB     4
CC0001140819402U202100906827111100906827111111/11/20211914    31500294239421964320000V07A1300000502600000000000000                                                                                AGUA ESTERIL x 10 mlAMP     2
