RC0001046723708U202100906140102600906140102626/10/20212104    3190296823942196432000011137100001419310000000000000                                                               TIRA GLUCOMETRIA FREESTYLE H OPTIUM .PZA     1
RC0001046723708U202100906140102600906140102626/10/20212104    3190296823942196432000022426800001140510000000000000                                                                    EQUIPO MACROGOTEO BAXTER MRC0001SOB     1
RC0001046723708U202100906140102600906140102626/10/20212104    3190296823942196432000024674000001138340000000000000   JERINGA 3PARTES C/A 10ML REF JEHL005 CAJ X 100 ALFASAFE  21GX1 PULG 1/2 PULG BN EXENTO-DC.417/202SIN     3
RC0001046723708U202100906140102600906140102626/10/20212104    3190296823942196432000045136100001419300000000000000                                                                            LANCETA DEXTROMETER X UNPZA     1
