TI0001082997584U202100000554894800000554894824/10/20211329    31500258239421964320000E1AC0100000199400000000000000                                                                          SUERO MIXTO Sln Iny 500 mlBIN     1
TI0001082997584U202100000554894800000554894824/10/20210710    31500177239421964320000E1AD0200003888320000000000000                                                                              HARTMAN SLN INY 500 MLBOL     1
TI0001082997584U202100000554894800000554894824/10/20210959     3300004239421964320000A12BA100000552980000000000000                                                            CLORURO POTASIO Sln Iny AMP 20 MEQ/10 MLAMP     1
TI0001082997584U202100000554894800000554894824/10/20210959     3300004239421964320000J01CR200000947130000000000000                                                              AMPICILINA /SULBACTAN POLVO LIOF 1.5 GAMP     1
TI0001082997584U202100000554894800000554894824/10/20210235     3300004239421964320000J01CR200000947130000000000000                                                              AMPICILINA /SULBACTAN POLVO LIOF 1.5 GAMP     1
TI0001082997584U202100000554894800000554894824/10/20210959     3300004239421964320000N2BB0100001672010000000000000                                  DIPIRONA 1GR/2ML(0.5GR/ML) SOL INY INST CAJ X 100AMP X 2ML VITALISAMP     1
TI0001082997584U202100000554894800000554894824/10/20210235     3300004239421964320000N2BB0100001672010000000000000                                  DIPIRONA 1GR/2ML(0.5GR/ML) SOL INY INST CAJ X 100AMP X 2ML VITALISAMP     1
