CC0001143227023A202100000027508000000027508001/10/20211558    31903336240421964190000E1AB0200000199290000000000000                                                            SOLUCION SALINA 0.9% SLN INY BO X 100 MLBIN     1
CC0001143227023A202100000027508000000027508001/10/20211558    31903336240421964190000E1AB0300003888390000000000000                                                            SOLUCION SALINA 0.9% SLN INY BO X 500 MLBOL     1
CC0001143227023A202100000027508000000027508001/10/20211558    3190333624042196419000011073300001096420000000000000                                                                BOLSA DE SUCCION DE FLUIDOS x 2500mLBOL     1
CC0001143227023A202100000027508000000027508001/10/20211558    3190333624042196419000041012900001113470000000000000                                                                        CANULA TRAQUEOSTOMIA C/B 7.5SOB     1
CC0001143227023A202100000027508000000027508001/10/20211558    3190333624042196419000011099300000777780000000000000                                                                     FILTRO BACTERIANO VIRICO ADULTOBOL     1
CC0001143227023A202100000027508000000027508001/10/20211558    3190333624042196419000053074400000607910000000000000                                                               GASA ESTERIL 10*10 SOBRE X 3 UNIDADESSOB     2
CC0001143227023A202100000027508000000027508001/10/20211558    3190333624042196419000043485100001618510000000000000                GUANTE QUIRURGICO DE LATEX REF 2D72N65X CAJ X 50 PROTEXIS  6.5 BN EXENTO-DC.417/2020SOB     3
CC0001143227023A202100000027508000000027508001/10/20211558    3190333624042196419000043879400001138170000000000000                                                                  HOJA BISTURI # 10 CSSB 10 01002000SOB     1
CC0001143227023A202100000027508000000027508001/10/20211558    3190333624042196419000043879100001138200000000000000                                                                  HOJA BISTURI # 15 CSSB 15 01002003SOB     1
CC0001143227023A202100000027508000000027508001/10/20211558    3190333624042196419000024673600000222980000000000000                                                                     JERINGA DESECHABLE 5 ml 27*11/2SIN     2
CC0001143227023A202100000027508000000027508001/10/20211558    3190333624042196419000024674000001138340000000000000   JERINGA 3PARTES C/A 10ML REF JEHL005 CAJ X 100 ALFASAFE  21GX1 PULG 1/2 PULG BN EXENTO-DC.417/202SIN     3
CC0001143227023A202100000027508000000027508001/10/20211558    3190333624042196419000045138000001413890000000000000                                                                       LAPIZ ELECTROBISTURI  SOB X 1SOB     1
CC0001143227023A202100000027508000000027508001/10/20211558    3190333624042196419000020750600000296780000000000000                                                                PLACA ELECTRO RETORNO PACIENTE E7506SIN     1
CC0001143227023A202100000027508000000027508001/10/20211558    31903336240421964190000Q1A19300001459200000000000000                                                              SONDA GASTROTOMIA 22 Fr  REF8884720221SOB     1
CC0001143227023A202100000027508000000027508001/10/20211558    3190333624042196419000012473200000232210000000000000                                                                 SUTURA ETHILON 3-0 SC-24 45CM  163TSIN     2
CC0001143227023A202100000027508000000027508001/10/20211558    3190333624042196419000019488400000599300000000000000                                                                               VICRYL 2-0 SH VCP317HSIN     1
CC0001143227023A202100000027508000000027508001/10/20211558    3190333624042196419000019488700000753270000000000000                                                                              VICRYL 3-0 SH1 VCP311HSOB     1
CC0001143227023A202100000027508000000027508001/10/20211558    3190333624042196419000039175100001072060000000000000                                                                           TUBO ENDOTRAQUEAL C/B 7.5SOB     1
CC0001143227023A202100000027508000000027508001/10/20211558    3190333624042196419000030161400001459220000000000000                                                                       MANGUERA SUCCION 6 MM*3.1 MTSSOB     1
