CC0000019367062U202100916843110400916843110404/11/20211006    3150029423942196432000024674000001138340000000000000   JERINGA 3PARTES C/A 10ML REF JEHL005 CAJ X 100 ALFASAFE  21GX1 PULG 1/2 PULG BN EXENTO-DC.417/202SIN     1
CC0000019367062U202100916843110400916843110404/11/20211006    3150029423942196432000031188000000236790000000000000                                                                                     CISTOFLO ADULTOSIN     1
CC0000019367062U202100916843110400916843110404/11/20211112    31500294239421964320000E1AB0500003888400000000000000                                                              SOLUCION SALINA 0.9% SLN INY X 1000 MLBOL     1
CC0000019367062U202100916843110400916843110404/11/20211842    3150029423942196432000011082600000265810000000000000                                                              EQUIPO IRRIGACION URINARIA REF MRC4002SOB     1
CC0000019367062U202100916843110400916843110404/11/20211842    3150029423942196432000038571900001123510000000000000                                                                              SONDA FOLEY #22 3 VIASSOB     1
CC0000019367062U202100916843110400916843110404/11/20211842    31500294239421964320000E1BA0700000198910000000000000                                                                   UROMATIC Sln IRRIGACION X 3000 MLBIN     1
