CC0001129581395U202100918481111500918481111515/11/20211817    3190318023942196432000011089100001083330000000000000                                                              GUANTE ESTERIL LATEX S/POLVO TALLA 6.5SOB     1
CC0001129581395U202100918481111500918481111515/11/20211817    3190318023942196432000019490800000233140000000000000                                                                        VICRYL 4-0 INC 70 SC20 J122HSIN     1
CC0001129581395U202100918481111500918481111515/11/20211817    3190318023942196432000000016100000314040000000000000                                                                ESPONJA HEMOSTATICA  GELFOAM ESPONJABOL     1
CC0001129581395U202100918481111500918481111515/11/20212118    3190315823942196432000024673600000222980000000000000                                                                     JERINGA DESECHABLE 5 ml 27*11/2SIN     3
CC0001129581395U202100918481111500918481111515/11/20212118    31903158239421964320000E1AB0300003888390000000000000                                                            SOLUCION SALINA 0.9% SLN INY BO X 500 MLBOL     1
