RC0001043710448U202100917411110800917411110808/11/20210926    3190100523942196432000011085100001082120000000000000                                                                           GUANTE QUIRURGICO TALLA 7SOB     3
RC0001043710448U202100917411110800917411110808/11/20210926    3190100523942196432000013077800000471960000000000000                                                             GASA NO TEJIDA EST 7.5 X 7.5 SOB X 3 UNSOB     8
RC0001043710448U202100917411110800917411110808/11/20210926    3190100523942196432000024674000001138340000000000000   JERINGA 3PARTES C/A 10ML REF JEHL005 CAJ X 100 ALFASAFE  21GX1 PULG 1/2 PULG BN EXENTO-DC.417/202SIN     1
RC0001043710448U202100917411110800917411110808/11/20210926    3190100523942196432000030936900001431840000000000000                                                                                              BURETABOL     1
RC0001043710448U202100917411110800917411110808/11/20210926    3190100523942196432000038568200000257000000000000000                                                                                   SONDA NELATON #06SIN     1
RC0001043710448H202100917411110800917411110808/11/20212133    31902961237421964250000E1AB0300003888390000000000000                                                            SOLUCION SALINA 0.9% SLN INY BO X 500 MLBOL     1
