CC0001047464101U202100912318101600912318101616/10/20211607    3190101023942196432000024674000001138340000000000000   JERINGA 3PARTES C/A 10ML REF JEHL005 CAJ X 100 ALFASAFE  21GX1 PULG 1/2 PULG BN EXENTO-DC.417/202SIN     1
CC0001047464101U202100912318101600912318101616/10/20211607    31901010239421964320000Q1AA7200000610630000000000000                                                            CATETER PERIFE INTROCAN # 20G 4251644-04SIN     1
CC0001047464101U202100912318101600912318101616/10/20212008    31500294239421964320000B05B1400001012740000000000000                                                                SOLUCION SALINA 0.45% Sln Iny 500 mlBOL     1
