NU0093656163103U202100000555822800000555822815/11/20211640     3300004239421964320000A03F0300001626860000000000000                                                                   METOCLOPRAMIDA SLN INY 10 MG/2 MLAMP     1
NU0093656163103U202100000555822800000555822815/11/20211731    31500394239421964320000E1AB0500003888400000000000000                                                              SOLUCION SALINA 0.9% SLN INY X 1000 MLBOL     1
NU0093656163103U202100000555822800000555822815/11/20212247     3300010239421964320000J01XA400001212420000000000000                                                               VANCOMICINA POLVO LIOF SLN INY 500 MGVAL     2
NU0093656163103U202100000555822800000555822815/11/20212331     3300010239421964320000A03BB100003889180000000000000                                      HIOSCINA BUTIL BROMURO 20MG/ML SOL INY CAJ X 100AMP X 1ML RYANAMP     1
NU0093656163103U202100000555822800000555822815/11/20211640     3300004239421964320000A03BB100003889180000000000000                                      HIOSCINA BUTIL BROMURO 20MG/ML SOL INY CAJ X 100AMP X 1ML RYANAMP     1
NU0093656163103U202100000555822800000555822815/11/20212248     3300010239421964320000J01D1200001239960000000000000                                                                              CEFEPIME POLVO INY 1 GVAL     1
NU0093656163103U202100000555822800000555822815/11/20212247     3300010239421964320000J01D1200001239960000000000000                                                                              CEFEPIME POLVO INY 1 GVAL     1
NU0093656163103U202100000555822800000555822815/11/20212331     3300010239421964320000A02BC700001684270000000000000                                                            OMEPRAZOL 40MG POLVO LIOFILIZADO AMPOLLAVAL     1
