CC0000045479182H202100000555777800000555777814/11/20210940     3300009237421964250000B1AB0200003939510000000000000                 ENOXAPARINA SODICA 40MG/0.4ML(100MG/ML) SOL INY INST CAJ X 2JERPREL X 0.4ML TECHDOWJRP     1
CC0000045479182H202100000555777800000555777814/11/20210940     3300009237421964250000C09CA400001277130000000000000                                                                                  LOSARTAN TAB 50 MGTAB     2
CC0000045479182H202100000555777800000555777814/11/20210941     3300009237421964250000J01X0400001458280000000000000                                                                            MONURIL GRANULOS 3 G /R/#N/A     1
CC0000045479182H202100000555777800000555777814/11/20211632     3300009237421964250000C7AB0100001276990000000000000                                                                            BETOPROLOL TAB 50 MG /R/TAB     1
CC0000045479182H202100000555777800000555777814/11/20210940     3300009237421964250000C7AB0100001276990000000000000                                                                            BETOPROLOL TAB 50 MG /R/TAB     1
CC0000045479182H202100000555777800000555777814/11/20210940     3300009237421964250000C10AA500001314010000000000000                                                                             ATORVASTATINA TAB 40 MGTAB     1
CC0000045479182H202100000555777800000555777814/11/20211527    31903303237421964250000V07A1300000502600000000000000                                                                                AGUA ESTERIL x 10 mlAMP     5
CC0000045479182H202100000555777800000555777814/11/20211428     3300009237421964250000N05BA400001313880000000000000                                                                           ALPRAZOLAM 0.5 MG TABLETATAB     1
