TI0001043137995U202100916295103100916295103131/10/20212112    3190093023942196432000011082700001620070000000000000                                                               EQUIPO SET PRIMARIO C/CLAVE REF 14001BOL     1
TI0001043137995U202100916295103100916295103131/10/20212112    3190093023942196432000024674000001138340000000000000   JERINGA 3PARTES C/A 10ML REF JEHL005 CAJ X 100 ALFASAFE  21GX1 PULG 1/2 PULG BN EXENTO-DC.417/202SIN     2
TI0001043137995U202100916295103100916295103131/10/20212112    3190093023942196432000030936900001431840000000000000                                                                                              BURETABOL     1
TI0001043137995U202100916295103100916295103131/10/20212112    31900930239421964320000E1AD0300000199490000000000000                                         LACTATO RINGER USP (HARTMANN)  SOL INY  BOL X 1000ML BAXTERBIN     1
