CC0001143120182U202100913057102900913057102929/10/20211409    3190201023942196432000011047900000223010000000000000                                                                            JERINGA X 1ML REF 302579SIN     1
CC0001143120182U202100913057102900913057102929/10/20211409    3190201023942196432000013077800000471960000000000000                                                             GASA NO TEJIDA EST 7.5 X 7.5 SOB X 3 UNSOB     8
CC0001143120182U202100913057102900913057102929/10/20211409    3190201023942196432000024674000001138340000000000000   JERINGA 3PARTES C/A 10ML REF JEHL005 CAJ X 100 ALFASAFE  21GX1 PULG 1/2 PULG BN EXENTO-DC.417/202SIN     5
CC0001143120182U202100913057102900913057102929/10/20211409    3190201023942196432000043485100001618510000000000000                GUANTE QUIRURGICO DE LATEX REF 2D72N65X CAJ X 50 PROTEXIS  6.5 BN EXENTO-DC.417/2020SOB     4
CC0001143120182U202100913057102900913057102929/10/20211409    31902010239421964320000Q1AA7300000610640000000000000                                                            CATETER PERIFE INTROCAN # 22G 4251628-04SIN     2
CC0001143120182U202100913057102900913057102929/10/20211409    31902010239421964320000E1AB0200000199290000000000000                                                            SOLUCION SALINA 0.9% SLN INY BO X 100 MLBIN     1
CC0001143120182U202100913057102900913057102929/10/20211409    3190201023942196432000001956000001620610000000000000                                                                      CONECTOR MICRO CLAVE LAT-MC100SOB     2
CC0001143120182U202100913057102900913057102929/10/20211409    3190201023942196432000000602700001197200000000000000                                                              APOSITO TRANSP  1655 IV 8.5CM X 11.5CMSOB     1
CC0001143120182U202100913057102900913057102929/10/20211409    3190201023942196432000000302200000821110000000000000                                                             CAT VENOS CENTRAL PICC 05042 4FR X 50CMPAQ     1
CC0001143120182U202100913057102900913057102929/10/20211409    31902010239421964320000E1AB0500003888400000000000000                                                              SOLUCION SALINA 0.9% SLN INY X 1000 MLBOL     1
CC0001143120182U202100913057102900913057102929/10/20211557    31902337239421964320000E1AB0600003839280000000000000                                                            SOLUCION SALINA 0.9% SLN INY FCO X 250 MBOL     1
