CC0000016840174U202100916599110200916599110202/11/20212147    3150025823942196432000016830000000970620000000000000                                                             SIST FIJACION CAT PERIFERICO 6.5X7 1683SOB     1
CC0000016840174U202100916599110200916599110202/11/20212147    3150025823942196432000024674000001138340000000000000   JERINGA 3PARTES C/A 10ML REF JEHL005 CAJ X 100 ALFASAFE  21GX1 PULG 1/2 PULG BN EXENTO-DC.417/202SIN     3
CC0000016840174U202100916599110200916599110202/11/20212147    3150025823942196432000030936900001431840000000000000                                                                                              BURETABOL     1
CC0000016840174U202100916599110200916599110202/11/20212147    31500258239421964320000Q1AA7100000610620000000000000                                                            CATETER PERIFE INTROCAN # 18G 4251687-04SIN     1
CC0000016840174U202100916599110200916599110202/11/20212147    31500258239421964320000E1AB0500003888400000000000000                                                              SOLUCION SALINA 0.9% SLN INY X 1000 MLBOL     2
