CC0000022656369U202100917728110900917728110909/11/20211501    3150025823942196432000011082700001620070000000000000                                                               EQUIPO SET PRIMARIO C/CLAVE REF 14001BOL     1
CC0000022656369U202100917728110900917728110909/11/20211501    3150025823942196432000016830000000970620000000000000                                                             SIST FIJACION CAT PERIFERICO 6.5X7 1683SOB     1
CC0000022656369U202100917728110900917728110909/11/20211501    3150025823942196432000024673600000222980000000000000                                                                     JERINGA DESECHABLE 5 ml 27*11/2SIN     3
CC0000022656369U202100917728110900917728110909/11/20211501    3150025823942196432000030936900001431840000000000000                                                                                              BURETABOL     1
CC0000022656369U202100917728110900917728110909/11/20211501    31500258239421964320000Q1AA7200000610630000000000000                                                            CATETER PERIFE INTROCAN # 20G 4251644-04SIN     1
CC0000022656369U202100917728110900917728110909/11/20211501    31500258239421964320000E1AB0500003888400000000000000                                                              SOLUCION SALINA 0.9% SLN INY X 1000 MLBOL     1
