RC0001146544739U202100916198103000916198103030/10/20212117    3190118123942196432000022426900000236750000000000000                                                                EQUIPO MACROGOTEO CON AGUJA (MRC001)SOB     1
RC0001146544739U202100916198103000916198103030/10/20212117    3190118123942196432000024674000001138340000000000000   JERINGA 3PARTES C/A 10ML REF JEHL005 CAJ X 100 ALFASAFE  21GX1 PULG 1/2 PULG BN EXENTO-DC.417/202SIN     4
RC0001146544739U202100916198103000916198103030/10/20212117    3190118123942196432000030936900001431840000000000000                                                                                              BURETABOL     1
RC0001146544739U202100916198103000916198103030/10/20212117    31901181239421964320000E1AB0700003888350000000000000                                                            SOLUCION SALINA 0.9% SLN INY BO X 250 MLBOL     1
RC0001146544739U202100916198103000916198103030/10/20212132    31901181239421964320000E1AC0100000199400000000000000                                                                          SUERO MIXTO Sln Iny 500 mlBIN     1
