CC0000008721086U202100917510110800917510110808/11/20211315    3190233723942196432000022426800001140510000000000000                                                                    EQUIPO MACROGOTEO BAXTER MRC0001SOB     1
CC0000008721086U202100917510110800917510110808/11/20211315    31902337239421964320000E1AB0200000199290000000000000                                                            SOLUCION SALINA 0.9% SLN INY BO X 100 MLBIN     1
CC0000008721086U202100917510110800917510110808/11/20211315    31902337239421964320000Q1AA7200000610630000000000000                                                            CATETER PERIFE INTROCAN # 20G 4251644-04SIN     1
