TI0001042245986U202100912785100700912785100707/10/20210037    3190093823942196432000016830000000970620000000000000                                                             SIST FIJACION CAT PERIFERICO 6.5X7 1683SOB     1
TI0001042245986U202100912785100700912785100707/10/20210037    3190093823942196432000001956000001620610000000000000                                                                      CONECTOR MICRO CLAVE LAT-MC100SOB     1
TI0001042245986U202100912785100700912785100707/10/20210037    31900938239421964320000Q1AA7100000610620000000000000                                                            CATETER PERIFE INTROCAN # 18G 4251687-04SIN     1
