RC0001042267656U202100917583110800917583110808/11/20212240    3190280023942196432000011082700001620070000000000000                                                               EQUIPO SET PRIMARIO C/CLAVE REF 14001BOL     1
RC0001042267656U202100917583110800917583110808/11/20212240    3190280023942196432000024673600000222980000000000000                                                                     JERINGA DESECHABLE 5 ml 27*11/2SIN     1
RC0001042267656U202100917583110800917583110808/11/20212240    31902800239421964320000Q1AA7300000610640000000000000                                                            CATETER PERIFE INTROCAN # 22G 4251628-04SIN     1
RC0001042267656U202100917583110800917583110808/11/20212240    3190280023942196432000001956000001620610000000000000                                                                      CONECTOR MICRO CLAVE LAT-MC100SOB     1
RC0001042267656U202100917583110800917583110808/11/20212240    3190280023942196432000000602600001259280000000000000                                                             APOSITO TEGADERM IV PD 1610 5CM X 5.7CMSOB     1
