RC0001084061386U202100158124102100158124102121/10/20212155    3190100523942196432000011082700001620070000000000000                                                               EQUIPO SET PRIMARIO C/CLAVE REF 14001BOL     1
RC0001084061386U202100158124102100158124102121/10/20212155    3190100523942196432000011137100001419310000000000000                                                               TIRA GLUCOMETRIA FREESTYLE H OPTIUM .PZA     1
RC0001084061386U202100158124102100158124102121/10/20212155    3190100523942196432000024674000001138340000000000000   JERINGA 3PARTES C/A 10ML REF JEHL005 CAJ X 100 ALFASAFE  21GX1 PULG 1/2 PULG BN EXENTO-DC.417/202SIN     1
RC0001084061386U202100158124102100158124102121/10/20212155    3190100523942196432000030936900001431840000000000000                                                                                              BURETABOL     1
RC0001084061386U202100158124102100158124102121/10/20212155    3190100523942196432000042743200003929860000000000000                   GASA ADHESIVA STRETCH REF 02038-00 ROL X 10MT FIXOMULL 15CM BN EXENTO-DC.417/2020CMT    20
RC0001084061386U202100158124102100158124102121/10/20212155    3190100523942196432000045136100001419300000000000000                                                                            LANCETA DEXTROMETER X UNPZA     1
RC0001084061386U202100158124102100158124102121/10/20212155    31901005239421964320000Q1AA7400003911720000000000000                                                            CATETER PERIFE INTROCAN # 24G 4251601-04SOB     1
RC0001084061386U202100158124102100158124102121/10/20212155    31901005239421964320000E1AD0300000199490000000000000                                         LACTATO RINGER USP (HARTMANN)  SOL INY  BOL X 1000ML BAXTERBIN     1
