CC0001047223884U202100917914111000917914111010/11/20211515    3190319023942196432000011048600000223020000000000000                                                                 JERINGA VACUNACION 3ML C/AGU 302542SIN     1
CC0001047223884U202100917914111000917914111010/11/20211515    3190319023942196432000011069000000212140000000000000                                                                      VASELINA QUIMIBEN POTE X 500 GTAR     1
CC0001047223884U202100917914111000917914111010/11/20211515    3190319023942196432000013077800000471960000000000000                                                             GASA NO TEJIDA EST 7.5 X 7.5 SOB X 3 UNSOB     3
CC0001047223884U202100917914111000917914111010/11/20211515    3190319023942196432000042743200003929860000000000000                   GASA ADHESIVA STRETCH REF 02038-00 ROL X 10MT FIXOMULL 15CM BN EXENTO-DC.417/2020CMT    10
CC0001047223884U202100917914111000917914111010/11/20211515    31903190239421964320000E1AB0200000199290000000000000                                                            SOLUCION SALINA 0.9% SLN INY BO X 100 MLBIN     1
