CC0001042436789U202100913051100800913051100808/10/20211743    3190286523942196432000024674000001138340000000000000   JERINGA 3PARTES C/A 10ML REF JEHL005 CAJ X 100 ALFASAFE  21GX1 PULG 1/2 PULG BN EXENTO-DC.417/202SIN     1
CC0001042436789U202100913051100800913051100808/10/20211743    3190286523942196432000030936900001431840000000000000                                                                                              BURETABOL     1
CC0001042436789U202100913051100800913051100808/10/20211743    31902865239421964320000E1AD0300000199490000000000000                                         LACTATO RINGER USP (HARTMANN)  SOL INY  BOL X 1000ML BAXTERBIN     1
