RC0001048088550U202100917643110900917643110909/11/20211013    3190135523942196432000011082700001620070000000000000                                                               EQUIPO SET PRIMARIO C/CLAVE REF 14001BOL     1
RC0001048088550U202100917643110900917643110909/11/20211013    3190135523942196432000016830000000970620000000000000                                                             SIST FIJACION CAT PERIFERICO 6.5X7 1683SOB     1
RC0001048088550U202100917643110900917643110909/11/20211013    3190135523942196432000024673000001411210000000000000                                                                  JERINGA DESECHABLE 3 ML 21 X 1 1/2SOB     2
RC0001048088550U202100917643110900917643110909/11/20211013    3190135523942196432000030936900001431840000000000000                                                                                              BURETABOL     1
RC0001048088550U202100917643110900917643110909/11/20211013    31901355239421964320000Q1AA7400003911720000000000000                                                            CATETER PERIFE INTROCAN # 24G 4251601-04SOB     1
RC0001048088550U202100917643110900917643110909/11/20211013    31901355239421964320000E1AD0300000199490000000000000                                         LACTATO RINGER USP (HARTMANN)  SOL INY  BOL X 1000ML BAXTERBIN     1
RC0001048088550U202100917643110900917643110909/11/20211218    3150056523942196432000011048600000223020000000000000                                                                 JERINGA VACUNACION 3ML C/AGU 302542SIN     2
