RC0001043612021U202100000554814100000554814122/10/20210217    31901181239421964320000E1AB0300003888390000000000000                                                            SOLUCION SALINA 0.9% SLN INY BO X 500 MLBOL     1
RC0001043612021U202100000554814100000554814122/10/20211819    31500177239421964320000E1AD0200003888320000000000000                                                                              HARTMAN SLN INY 500 MLBOL     1
RC0001043612021U202100000554814100000554814122/10/20211042     3300004239421964320000J01CR200000947130000000000000                                                              AMPICILINA /SULBACTAN POLVO LIOF 1.5 GAMP     1
RC0001043612021U202100000554814100000554814122/10/20211042     3300004239421964320000N2BB0100001672010000000000000                                  DIPIRONA 1GR/2ML(0.5GR/ML) SOL INY INST CAJ X 100AMP X 2ML VITALISAMP     1
RC0001043612021U202100000554814100000554814122/10/20210138     3300004239421964320000N2BB0100001672010000000000000                                  DIPIRONA 1GR/2ML(0.5GR/ML) SOL INY INST CAJ X 100AMP X 2ML VITALISAMP     1
