RC0001194983660U202100916011111100916011111111/11/20211914    3150029423942196432000013077800000471960000000000000                                                             GASA NO TEJIDA EST 7.5 X 7.5 SOB X 3 UNSOB     3
RC0001194983660U202100916011111100916011111111/11/20211914    3150029423942196432000043485100001618510000000000000                GUANTE QUIRURGICO DE LATEX REF 2D72N65X CAJ X 50 PROTEXIS  6.5 BN EXENTO-DC.417/2020SOB     2
RC0001194983660U202100916011111100916011111111/11/20211914    3150029423942196432000000201400000256990000000000000                                                                          SONDA NELATON PLASTICA # 5SIN     1
