CC0000008669442U202100917020111600917020111616/11/20211136    3190199223942196432000011048600000223020000000000000                                                                 JERINGA VACUNACION 3ML C/AGU 302542SIN     1
CC0000008669442U202100917020111600917020111616/11/20211136    31901992239421964320000E1AB0700003888350000000000000                                                            SOLUCION SALINA 0.9% SLN INY BO X 250 MLBOL     1
CC0000008669442U202100917020111600917020111616/11/20211136    31901992239421964320000Q1A13500001585200000000000000                        JERINGA PUNTA CAT SIN AGUJA REF 309620 CAJ X 40   50ML BN EXENTO-DC.417/2020SOB     1
