CC0000008531833U202100916340110200916340110202/11/20210559    3190100323942196432000011082700001620070000000000000                                                               EQUIPO SET PRIMARIO C/CLAVE REF 14001BOL     1
CC0000008531833U202100916340110200916340110202/11/20210559    3190100323942196432000013077800000471960000000000000                                                             GASA NO TEJIDA EST 7.5 X 7.5 SOB X 3 UNSOB     2
CC0000008531833U202100916340110200916340110202/11/20210559    3190100323942196432000016830000000970620000000000000                                                             SIST FIJACION CAT PERIFERICO 6.5X7 1683SOB     1
CC0000008531833U202100916340110200916340110202/11/20210559    3190100323942196432000024674000001138340000000000000   JERINGA 3PARTES C/A 10ML REF JEHL005 CAJ X 100 ALFASAFE  21GX1 PULG 1/2 PULG BN EXENTO-DC.417/202SIN     3
CC0000008531833U202100916340110200916340110202/11/20210559    3190100323942196432000030936900001431840000000000000                                                                                              BURETABOL     1
CC0000008531833U202100916340110200916340110202/11/20210559    3190100323942196432000031188000000236790000000000000                                                                                     CISTOFLO ADULTOSIN     1
CC0000008531833U202100916340110200916340110202/11/20210559    3190100323942196432000038570100001124990000000000000                                                                              SONDA FOLEY #18 2 VIASSOB     1
CC0000008531833U202100916340110200916340110202/11/20210559    3190100323942196432000043485100001618510000000000000                GUANTE QUIRURGICO DE LATEX REF 2D72N65X CAJ X 50 PROTEXIS  6.5 BN EXENTO-DC.417/2020SOB     1
CC0000008531833U202100916340110200916340110202/11/20210559    3190100323942196432000001956000001620610000000000000                                                                      CONECTOR MICRO CLAVE LAT-MC100SOB     1
CC0000008531833U202100916340110200916340110202/11/20210559    31901003239421964320000Q1AA7200000610630000000000000                                                            CATETER PERIFE INTROCAN # 20G 4251644-04SIN     1
CC0000008531833U202100916340110200916340110202/11/20210559    31901003239421964320000E1AB0300003888390000000000000                                                            SOLUCION SALINA 0.9% SLN INY BO X 500 MLBOL     1
