CC0001100682240U202100916596110800916596110808/11/20211938    3150017723942196432000024673600000222980000000000000                                                                     JERINGA DESECHABLE 5 ml 27*11/2SIN     1
CC0001100682240U202100916596110800916596110808/11/20212128    3150017723942196432000024674000001138340000000000000   JERINGA 3PARTES C/A 10ML REF JEHL005 CAJ X 100 ALFASAFE  21GX1 PULG 1/2 PULG BN EXENTO-DC.417/202SIN     1
CC0001100682240U202100916596110800916596110808/11/20212128    3150017723942196432000030936900001431840000000000000                                                                                              BURETABOL     1
CC0001100682240U202100916596110800916596110808/11/20212229    3190286523942196432000024673600000222980000000000000                                                                     JERINGA DESECHABLE 5 ml 27*11/2SIN     1
CC0001100682240U202100916596110800916596110808/11/20212229    3190286523942196432000024674000001138340000000000000   JERINGA 3PARTES C/A 10ML REF JEHL005 CAJ X 100 ALFASAFE  21GX1 PULG 1/2 PULG BN EXENTO-DC.417/202SIN     1
CC0001100682240U202100916596110800916596110808/11/20212229    3190286523942196432000030936900001431840000000000000                                                                                              BURETABOL     1
