PE919467028021990U202100000554374100000554374111/10/20210033     3300010239421964320000A03A0800001177800000000000000                                                                      COLYPAN SLN INY 50 MG/5 ML /R/AMP     1
PE919467028021990U202100000554374100000554374111/10/20210116    31901005239421964320000E1AB0500003888400000000000000                                                              SOLUCION SALINA 0.9% SLN INY X 1000 MLBOL     1
PE919467028021990U202100000554374100000554374111/10/20210033     3300010239421964320000N02B1100001169680000000000000                              PARACETAMOL 1000MG/100ML(10MG/ML) SOL INY  VIAL X 100ML FRESENIUS KABIVAL     1
