RC0001043474359U202100918384111300918384111313/11/20211757    3150056523942196432000011082700001620070000000000000                                                               EQUIPO SET PRIMARIO C/CLAVE REF 14001BOL     1
RC0001043474359U202100918384111300918384111313/11/20211757    3150056523942196432000030936900001431840000000000000                                                                                              BURETABOL     1
RC0001043474359U202100918384111300918384111313/11/20211757    3150056523942196432000000602600001259280000000000000                                                             APOSITO TEGADERM IV PD 1610 5CM X 5.7CMSOB     1
RC0001043474359U202100918384111300918384111313/11/20211757    31500565239421964320000Q1AA7400003911720000000000000                                                            CATETER PERIFE INTROCAN # 24G 4251601-04SOB     1
