RC0001048086661U202100917171110500917171110505/11/20211937    3190093023942196432000024674000001138340000000000000   JERINGA 3PARTES C/A 10ML REF JEHL005 CAJ X 100 ALFASAFE  21GX1 PULG 1/2 PULG BN EXENTO-DC.417/202SIN     1
RC0001048086661U202100917171110500917171110505/11/20211937    31900930239421964320000E1AB0200000199290000000000000                                                            SOLUCION SALINA 0.9% SLN INY BO X 100 MLBIN     1
RC0001048086661U202100917171110500917171110505/11/20211937    3190093023942196432000001956000001620610000000000000                                                                      CONECTOR MICRO CLAVE LAT-MC100SOB     1
RC0001048086661U202100917171110500917171110505/11/20211937    3190093023942196432000000602600001259280000000000000                                                             APOSITO TEGADERM IV PD 1610 5CM X 5.7CMSOB     1
RC0001048086661U202100917171110500917171110505/11/20211937    31900930239421964320000Q1AA7400003911720000000000000                                                            CATETER PERIFE INTROCAN # 24G 4251601-04SOB     1
