RC0001146545873U202100170872111700170872111717/11/20210908    3190092523942196432000042743200003929860000000000000                   GASA ADHESIVA STRETCH REF 02038-00 ROL X 10MT FIXOMULL 15CM BN EXENTO-DC.417/2020CMT    20
RC0001146545873U202100170872111700170872111717/11/20211540    3190092523942196432000001956000001620610000000000000                                                                      CONECTOR MICRO CLAVE LAT-MC100SOB     1
RC0001146545873H202100170872111700170872111717/11/20212139    31500075237421964250000E1AD0200003888320000000000000                                                                              HARTMAN SLN INY 500 MLBOL     1
