CC0000007435860U202100916602110200916602110202/11/20212147    3150025823942196432000016830000000970620000000000000                                                             SIST FIJACION CAT PERIFERICO 6.5X7 1683SOB     1
CC0000007435860U202100916602110200916602110202/11/20212147    3150025823942196432000030936900001431840000000000000                                                                                              BURETABOL     1
CC0000007435860U202100916602110200916602110202/11/20212147    31500258239421964320000Q1AA7100000610620000000000000                                                            CATETER PERIFE INTROCAN # 18G 4251687-04SIN     1
CC0000007435860U202100916602110200916602110202/11/20212147    31500258239421964320000E1AD0300000199490000000000000                                         LACTATO RINGER USP (HARTMANN)  SOL INY  BOL X 1000ML BAXTERBIN     1
