RC0001043710448U202100000555511300000555511308/11/20210701     3300010239421964320000N02BE100000000JP0000000000000                                                                ACETAMINOFEN 250MG/5ML JER PLLE JAB. JR     1
RC0001043710448U202100000555511300000555511308/11/20210651    31901005239421964320000E1AB0300003888390000000000000                                                            SOLUCION SALINA 0.9% SLN INY BO X 500 MLBOL     1
RC0001043710448U202100000555511300000555511308/11/20210918     3300004239421964320000J1DA3100000187510000000000000                                                                           ROCEFIN Polvo SLN INY 1 GCIN     1
