CC0001140824469U202100917846111000917846111010/11/20211234    3190016023942196432000011082700001620070000000000000                                                               EQUIPO SET PRIMARIO C/CLAVE REF 14001BOL     1
CC0001140824469U202100917846111000917846111010/11/20211234    31900160239421964320000Q1AA7100000610620000000000000                                                            CATETER PERIFE INTROCAN # 18G 4251687-04SIN     1
CC0001140824469U202100917846111000917846111010/11/20211234    31900160239421964320000B05B1400001012740000000000000                                                                SOLUCION SALINA 0.45% Sln Iny 500 mlBOL     1
