CC0000055228018U202100916428110200916428110202/11/20210922    3150023223942196432000024674000001138340000000000000   JERINGA 3PARTES C/A 10ML REF JEHL005 CAJ X 100 ALFASAFE  21GX1 PULG 1/2 PULG BN EXENTO-DC.417/202SIN     1
CC0000055228018U202100916428110200916428110202/11/20210922    31500232239421964320000E1AB0200000199290000000000000                                                            SOLUCION SALINA 0.9% SLN INY BO X 100 MLBIN     1
CC0000055228018U202100916428110200916428110202/11/20210922    3150023223942196432000001956000001620610000000000000                                                                      CONECTOR MICRO CLAVE LAT-MC100SOB     1
CC0000055228018U202100916428110200916428110202/11/20210922    31500232239421964320000Q1AA7200000610630000000000000                                                            CATETER PERIFE INTROCAN # 20G 4251644-04SIN     1
