CC0000022590971U202100915801102800915801102828/10/20210640    3190098223942196432000011048600000223020000000000000                                                                 JERINGA VACUNACION 3ML C/AGU 302542SIN     1
CC0000022590971U202100915801102800915801102828/10/20210640    3190098223942196432000012475800000232220000000000000                                                                SUTURA ETHILON 4-0 PS-2  45CM P1667TSIN     1
CC0000022590971U202100915801102800915801102828/10/20210640    3190098223942196432000013077800000471960000000000000                                                             GASA NO TEJIDA EST 7.5 X 7.5 SOB X 3 UNSOB     6
CC0000022590971U202100915801102800915801102828/10/20210640    3190098223942196432000024674000001138340000000000000   JERINGA 3PARTES C/A 10ML REF JEHL005 CAJ X 100 ALFASAFE  21GX1 PULG 1/2 PULG BN EXENTO-DC.417/202SIN     1
CC0000022590971U202100915801102800915801102828/10/20210640    31900982239421964320000E1AB0200000199290000000000000                                                            SOLUCION SALINA 0.9% SLN INY BO X 100 MLBIN     1
