RC0001042268635U202100914916102200914916102222/10/20210904    3150026323942196432000011048600000223020000000000000                                                                 JERINGA VACUNACION 3ML C/AGU 302542SIN     1
RC0001042268635U202100914916102200914916102222/10/20210904    3150026323942196432000011082700001620070000000000000                                                               EQUIPO SET PRIMARIO C/CLAVE REF 14001BOL     1
RC0001042268635U202100914916102200914916102222/10/20210904    3150026323942196432000030936900001431840000000000000                                                                                              BURETABOL     1
RC0001042268635U202100914916102200914916102222/10/20210904    3150026323942196432000000602600001259280000000000000                                                             APOSITO TEGADERM IV PD 1610 5CM X 5.7CMSOB     1
RC0001042268635U202100914916102200914916102222/10/20210904    31500263239421964320000Q1AA7400003911720000000000000                                                            CATETER PERIFE INTROCAN # 24G 4251601-04SOB     1
