PE102014803111996U202100050131328400050131328422/10/20211420    3190233623942196432000030936900001431840000000000000                                                                                              BURETABOL     1
PE102014803111996U202100050131328400050131328422/10/20211420    3190233623942196432000024674000001138340000000000000   JERINGA 3PARTES C/A 10ML REF JEHL005 CAJ X 100 ALFASAFE  21GX1 PULG 1/2 PULG BN EXENTO-DC.417/202SIN     2
PE102014803111996U202100050131328400050131328422/10/20211420    31902336239421964320000E1AD0300000199490000000000000                                         LACTATO RINGER USP (HARTMANN)  SOL INY  BOL X 1000ML BAXTERBIN     1
PE102014803111996U202100050131328400050131328422/10/20211420    3190233623942196432000045136100001419300000000000000                                                                            LANCETA DEXTROMETER X UNPZA     2
PE102014803111996U202100050131328400050131328422/10/20211420    3190233623942196432000011137100001419310000000000000                                                               TIRA GLUCOMETRIA FREESTYLE H OPTIUM .PZA     2
