CC0001048266067U202100914501101900914501101919/10/20211848    3150018823942196432000011048600000223020000000000000                                                                 JERINGA VACUNACION 3ML C/AGU 302542SIN     1
CC0001048266067U202100914501101900914501101919/10/20211848    3150018823942196432000011089300001083990000000000000                                                              GUANTE ESTERIL LATEX S/POLVO TALLA 7.5SOB     3
CC0001048266067U202100914501101900914501101919/10/20211848    3150018823942196432000012474000000232230000000000000                                                                SUTURA ETHILON 4-0 SC-20 45CM 14502TSIN     1
CC0001048266067U202100914501101900914501101919/10/20211848    3150018823942196432000013077800000471960000000000000                                                             GASA NO TEJIDA EST 7.5 X 7.5 SOB X 3 UNSOB    10
CC0001048266067U202100914501101900914501101919/10/20211848    3150018823942196432000019491700000233150000000000000                                                                      VICRYL 4-0 INC P3 PRIME JP494GSIN     1
CC0001048266067U202100914501101900914501101919/10/20211848    3150018823942196432000024674000001138340000000000000   JERINGA 3PARTES C/A 10ML REF JEHL005 CAJ X 100 ALFASAFE  21GX1 PULG 1/2 PULG BN EXENTO-DC.417/202SIN     4
CC0001048266067U202100914501101900914501101919/10/20211848    3150018823942196432000043879100001138200000000000000                                                                  HOJA BISTURI # 15 CSSB 15 01002003SOB     1
CC0001048266067U202100914501101900914501101919/10/20211848    31500188239421964320000E1AB0200000199290000000000000                                                            SOLUCION SALINA 0.9% SLN INY BO X 100 MLBIN     1
