RC0001242588193U202100916251103100916251103131/10/20210202    3190118923942196432000011048600000223020000000000000                                                                 JERINGA VACUNACION 3ML C/AGU 302542SIN     2
RC0001242588193U202100916251103100916251103131/10/20210202    3190118923942196432000011082700001620070000000000000                                                               EQUIPO SET PRIMARIO C/CLAVE REF 14001BOL     1
RC0001242588193U202100916251103100916251103131/10/20210202    3190118923942196432000024674000001138340000000000000   JERINGA 3PARTES C/A 10ML REF JEHL005 CAJ X 100 ALFASAFE  21GX1 PULG 1/2 PULG BN EXENTO-DC.417/202SIN     1
RC0001242588193U202100916251103100916251103131/10/20210202    3190118923942196432000030936900001431840000000000000                                                                                              BURETABOL     1
RC0001242588193U202100916251103100916251103131/10/20210202    3190118923942196432000042743200003929860000000000000                   GASA ADHESIVA STRETCH REF 02038-00 ROL X 10MT FIXOMULL 15CM BN EXENTO-DC.417/2020CMT    15
RC0001242588193U202100916251103100916251103131/10/20210202    3190118923942196432000001956000001620610000000000000                                                                      CONECTOR MICRO CLAVE LAT-MC100SOB     1
RC0001242588193U202100916251103100916251103131/10/20210202    31901189239421964320000Q1AA7400003911720000000000000                                                            CATETER PERIFE INTROCAN # 24G 4251601-04SOB     2
RC0001242588193U202100916251103100916251103131/10/20210202    31901189239421964320000E1AB0300003888390000000000000                                                            SOLUCION SALINA 0.9% SLN INY BO X 500 MLBOL     1
