TI0001042254448U202100918974111800918974111818/11/20210109    3190199223942196432000011048600000223020000000000000                                                                 JERINGA VACUNACION 3ML C/AGU 302542SIN     1
TI0001042254448U202100918974111800918974111818/11/20210622    3190199223942196432000011137100001419310000000000000                                                               TIRA GLUCOMETRIA FREESTYLE H OPTIUM .PZA     1
TI0001042254448U202100918974111800918974111818/11/20210622    3190199223942196432000045136100001419300000000000000                                                                            LANCETA DEXTROMETER X UNPZA     1
