CC0000022912921H202100000555657100000555657111/11/20212114     3300010237421964250000C09DB200001647320000000000000                                                              LOSARTAN+ AMLODIPINO 100 + 5 MG TAB/V/TAB     1
CC0000022912921H202100000555657100000555657111/11/20211246     3300010237421964250000A2BX0100001277280000000000000                                                                                ALSUCRAL TAB 1 G /R/TAB     2
CC0000022912921H202100000555657100000555657111/11/20211246     3300010237421964250000A4AD0200000202990000000000000                                                                     PLITICAN HCL Sln Iny 50 mg/2 mlAMP     2
CC0000022912921H202100000555657100000555657111/11/20211247     3300010237421964250000A6AC0200001467010000000000000                                                             LACTULAX JARABE 66.7G/100ML SOX15ML /R/SOB     1
CC0000022912921H202100000555657100000555657111/11/20210945    31902357237421964250000E1AD0300000199490000000000000                                         LACTATO RINGER USP (HARTMANN)  SOL INY  BOL X 1000ML BAXTERBIN     2
CC0000022912921H202100000555657100000555657111/11/20212041    31900995237421964250000V07A1300000502600000000000000                                                                                AGUA ESTERIL x 10 mlAMP     5
