PE820343025052016U202100050131320600050131320622/10/20210043    3190217123942196432000030936900001431840000000000000                                                                                              BURETABOL     1
PE820343025052016U202100050131320600050131320622/10/20210043    3190217123942196432000024674000001138340000000000000   JERINGA 3PARTES C/A 10ML REF JEHL005 CAJ X 100 ALFASAFE  21GX1 PULG 1/2 PULG BN EXENTO-DC.417/202SIN     1
PE820343025052016U202100050131320600050131320622/10/20210043    3190217123942196432000000602600001259280000000000000                                                             APOSITO TEGADERM IV PD 1610 5CM X 5.7CMSOB     1
PE820343025052016U202100050131320600050131320622/10/20210043    31902171239421964320000Q1AA7400003911720000000000000                                                            CATETER PERIFE INTROCAN # 24G 4251601-04SOB     1
PE820343025052016U202100050131320600050131320622/10/20210043    31902171239421964320000E1AC0100000199400000000000000                                                                          SUERO MIXTO Sln Iny 500 mlBIN     1
PE820343025052016U202100050131320600050131320622/10/20210043    3190217123942196432000011082700001620070000000000000                                                               EQUIPO SET PRIMARIO C/CLAVE REF 14001BOL     1
PE820343025052016U202100050131320600050131320622/10/20210043    31902171239421964320000E1AD0200003888320000000000000                                                                              HARTMAN SLN INY 500 MLBOL     1
