RC0001043709956U202100918540111500918540111515/11/20211833    3150026323942196432000011048600000223020000000000000                                                                 JERINGA VACUNACION 3ML C/AGU 302542SIN     1
RC0001043709956U202100918540111500918540111515/11/20211833    3150026323942196432000013077800000471960000000000000                                                             GASA NO TEJIDA EST 7.5 X 7.5 SOB X 3 UNSOB     4
RC0001043709956U202100918540111500918540111515/11/20211833    3150026323942196432000017566200001585160000000000000                                                                  PROLENE 4-0 AZ 45 PS2 PRIME P8682TSOB     1
RC0001043709956U202100918540111500918540111515/11/20211833    3150026323942196432000024673600000222980000000000000                                                                     JERINGA DESECHABLE 5 ml 27*11/2SIN     1
RC0001043709956U202100918540111500918540111515/11/20211833    31500263239421964320000E1AB0200000199290000000000000                                                            SOLUCION SALINA 0.9% SLN INY BO X 100 MLBIN     1
