PE945346427011981U202100000554925900000554925925/10/20210629    31500588239421964320000E1AB0200000199290000000000000                                                            SOLUCION SALINA 0.9% SLN INY BO X 100 MLBIN     1
PE945346427011981U202100000554925900000554925925/10/20210441    31500588239421964320000E1AB0200000199290000000000000                                                            SOLUCION SALINA 0.9% SLN INY BO X 100 MLBIN     1
PE945346427011981U202100000554925900000554925925/10/20210717    31500588239421964320000E1AB0300003888390000000000000                                                            SOLUCION SALINA 0.9% SLN INY BO X 500 MLBOL     1
PE945346427011981U202100000554925900000554925925/10/20211822     3300004239421964320000C09CA100001303630000000000000                                                                                   COZAAR TAB 100 MGTAB     1
PE945346427011981U202100000554925900000554925925/10/20210638     3300004239421964320000C09CA100001303630000000000000                                                                                   COZAAR TAB 100 MGTAB     1
PE945346427011981U202100000554925900000554925925/10/20210339     3300004239421964320000J7AA0600001602890000000000000                                                            VACUNA ANTITETANICA SUSP INY 40 UI/0.5MLVAL     1
PE945346427011981U202100000554925900000554925925/10/20211244     3300004239421964320000N2BB0100001672010000000000000                                  DIPIRONA 1GR/2ML(0.5GR/ML) SOL INY INST CAJ X 100AMP X 2ML VITALISAMP     1
PE945346427011981U202100000554925900000554925925/10/20211243     3300004239421964320000N2BB0100001672010000000000000                                  DIPIRONA 1GR/2ML(0.5GR/ML) SOL INY INST CAJ X 100AMP X 2ML VITALISAMP     1
PE945346427011981U202100000554925900000554925925/10/20210454     3300004239421964320000N2BB0100001672010000000000000                                  DIPIRONA 1GR/2ML(0.5GR/ML) SOL INY INST CAJ X 100AMP X 2ML VITALISAMP     2
