TI0001002068189U202100914136101600914136101616/10/20211035    3150025823942196432000011082700001620070000000000000                                                               EQUIPO SET PRIMARIO C/CLAVE REF 14001BOL     1
TI0001002068189U202100914136101600914136101616/10/20211035    3150025823942196432000016830000000970620000000000000                                                             SIST FIJACION CAT PERIFERICO 6.5X7 1683SOB     1
TI0001002068189U202100914136101600914136101616/10/20211035    3150025823942196432000024674000001138340000000000000   JERINGA 3PARTES C/A 10ML REF JEHL005 CAJ X 100 ALFASAFE  21GX1 PULG 1/2 PULG BN EXENTO-DC.417/202SIN     3
TI0001002068189U202100914136101600914136101616/10/20211035    3150025823942196432000030936900001431840000000000000                                                                                              BURETABOL     1
TI0001002068189U202100914136101600914136101616/10/20211035    31500258239421964320000Q1AA7200000610630000000000000                                                            CATETER PERIFE INTROCAN # 20G 4251644-04SIN     1
TI0001002068189U202100914136101600914136101616/10/20211035    31500258239421964320000E1AD0300000199490000000000000                                         LACTATO RINGER USP (HARTMANN)  SOL INY  BOL X 1000ML BAXTERBIN     1
TI0001002068189U202100914136101600914136101616/10/20211959    3150024623942196432000001956000001620610000000000000                                                                      CONECTOR MICRO CLAVE LAT-MC100SOB     1
