CC0001047349349U202100917734110900917734110909/11/20211750    3150056523942196432000011137100001419310000000000000                                                               TIRA GLUCOMETRIA FREESTYLE H OPTIUM .PZA     1
CC0001047349349U202100917734110900917734110909/11/20211750    3150056523942196432000024674000001138340000000000000   JERINGA 3PARTES C/A 10ML REF JEHL005 CAJ X 100 ALFASAFE  21GX1 PULG 1/2 PULG BN EXENTO-DC.417/202SIN     4
CC0001047349349U202100917734110900917734110909/11/20211750    3150056523942196432000045136100001419300000000000000                                                                            LANCETA DEXTROMETER X UNPZA     1
CC0001047349349U202100917734110900917734110909/11/20211750    31500565239421964320000Q1AA7100000610620000000000000                                                            CATETER PERIFE INTROCAN # 18G 4251687-04SIN     1
