TI0001194968023U202100902985110600902985110606/11/20210751    3190319023942196432000016830000000970620000000000000                                                             SIST FIJACION CAT PERIFERICO 6.5X7 1683SOB     1
TI0001194968023U202100902985110600902985110606/11/20210751    3190319023942196432000001956000001620610000000000000                                                                      CONECTOR MICRO CLAVE LAT-MC100SOB     1
TI0001194968023U202100902985110600902985110606/11/20210751    31903190239421964320000Q1AA7400003911720000000000000                                                            CATETER PERIFE INTROCAN # 24G 4251601-04SOB     1
