CC0001143250996U202100914140101600914140101616/10/20211125    3150025823942196432000011082700001620070000000000000                                                               EQUIPO SET PRIMARIO C/CLAVE REF 14001BOL     1
CC0001143250996U202100914140101600914140101616/10/20211125    3150025823942196432000016830000000970620000000000000                                                             SIST FIJACION CAT PERIFERICO 6.5X7 1683SOB     1
CC0001143250996U202100914140101600914140101616/10/20211125    3150025823942196432000024673600000222980000000000000                                                                     JERINGA DESECHABLE 5 ml 27*11/2SIN     2
CC0001143250996U202100914140101600914140101616/10/20211125    3150025823942196432000030936900001431840000000000000                                                                                              BURETABOL     1
CC0001143250996U202100914140101600914140101616/10/20211125    31500258239421964320000Q1AA7100000610620000000000000                                                            CATETER PERIFE INTROCAN # 18G 4251687-04SIN     1
CC0001143250996U202100914140101600914140101616/10/20211125    31500258239421964320000E1AB0300003888390000000000000                                                            SOLUCION SALINA 0.9% SLN INY BO X 500 MLBOL     1
CC0001143250996U202100914140101600914140101616/10/20211125    3150025823942196432000001956000001620610000000000000                                                                      CONECTOR MICRO CLAVE LAT-MC100SOB     1
CC0001143250996U202100914140101600914140101616/10/20211233    3150025823942196432000011085100001082120000000000000                                                                           GUANTE QUIRURGICO TALLA 7SOB     2
CC0001143250996U202100914140101600914140101616/10/20211233    3150025823942196432000013077800000471960000000000000                                                             GASA NO TEJIDA EST 7.5 X 7.5 SOB X 3 UNSOB     4
CC0001143250996U202100914140101600914140101616/10/20211233    3150025823942196432000024674000001138340000000000000   JERINGA 3PARTES C/A 10ML REF JEHL005 CAJ X 100 ALFASAFE  21GX1 PULG 1/2 PULG BN EXENTO-DC.417/202SIN     1
CC0001143250996U202100914140101600914140101616/10/20211233    3150025823942196432000038570100001124990000000000000                                                                              SONDA FOLEY #18 2 VIASSOB     1
CC0001143250996U202100914140101600914140101616/10/20211233    31500258239421964320000E1AB0200000199290000000000000                                                            SOLUCION SALINA 0.9% SLN INY BO X 100 MLBIN     1
CC0001143250996U202100914140101600914140101616/10/20211340    3150025823942196432000031188000000236790000000000000                                                                                     CISTOFLO ADULTOSIN     1
CC0001143250996U202100914140101600914140101616/10/20212030    3150024623942196432000024674000001138340000000000000   JERINGA 3PARTES C/A 10ML REF JEHL005 CAJ X 100 ALFASAFE  21GX1 PULG 1/2 PULG BN EXENTO-DC.417/202SIN     4
