CC0000008486413U202100915631102700915631102727/10/20210554    31902337239421964320000E1AB0200000199290000000000000                                                            SOLUCION SALINA 0.9% SLN INY BO X 100 MLBIN     1
CC0000008486413U202100915631102700915631102727/10/20210600    3190233723942196432000020056600001101530000000000000                                                                AGUJA HIPODERMICA DESECH 18G X 1 1/2SOB     1
CC0000008486413U202100915631102700915631102727/10/20210600    3190233723942196432000021016900000227720000000000000                                                               CATETER TRILUMEN AD CS15703E 7FR*20CMSIN     1
CC0000008486413U202100915631102700915631102727/10/20210600    3190233723942196432000038573000000256870000000000000                                                                                 SONDA NSG LEVIN #16SIN     1
CC0000008486413U202100915631102700915631102727/10/20210600    3190233723942196432000000102400001411250000000000000                                                                           JERINGA DESECHABLE X 50MLSOB     1
CC0000008486413U202100915631102700915631102727/10/20211428    3190271223942196432000024674000001138340000000000000   JERINGA 3PARTES C/A 10ML REF JEHL005 CAJ X 100 ALFASAFE  21GX1 PULG 1/2 PULG BN EXENTO-DC.417/202SIN     1
CC0000008486413U202100915631102700915631102727/10/20211428    31902712239421964320000E1AB0200000199290000000000000                                                            SOLUCION SALINA 0.9% SLN INY BO X 100 MLBIN     1
CC0000008486413U202100915631102700915631102727/10/20211428    31902712239421964320000E1AD0300000199490000000000000                                         LACTATO RINGER USP (HARTMANN)  SOL INY  BOL X 1000ML BAXTERBIN     1
