CC0000079691665U202100918407111300918407111313/11/20211940    3150018823942196432000011082700001620070000000000000                                                               EQUIPO SET PRIMARIO C/CLAVE REF 14001BOL     1
CC0000079691665U202100918407111300918407111313/11/20211940    3150018823942196432000016830000000970620000000000000                                                             SIST FIJACION CAT PERIFERICO 6.5X7 1683SOB     1
CC0000079691665U202100918407111300918407111313/11/20211940    3150018823942196432000030936900001431840000000000000                                                                                              BURETABOL     1
CC0000079691665U202100918407111300918407111313/11/20211940    31500188239421964320000Q1AA7100000610620000000000000                                                            CATETER PERIFE INTROCAN # 18G 4251687-04SIN     1
CC0000079691665U202100918407111300918407111313/11/20211940    31500188239421964320000E1AD0200003888320000000000000                                                                              HARTMAN SLN INY 500 MLBOL     1
