CC0001140840999U202100917789111000917789111010/11/20210518    3190232723942196432000016830000000970620000000000000                                                             SIST FIJACION CAT PERIFERICO 6.5X7 1683SOB     1
CC0001140840999U202100917789111000917789111010/11/20210518    3190232723942196432000038568400000256940000000000000                                                                                   SONDA NELATON #10SIN     1
CC0001140840999U202100917789111000917789111010/11/20210518    3190232723942196432000053074400000607910000000000000                                                               GASA ESTERIL 10*10 SOBRE X 3 UNIDADESSOB     3
CC0001140840999U202100917789111000917789111010/11/20210518    31902327239421964320000E1AB0200000199290000000000000                                                            SOLUCION SALINA 0.9% SLN INY BO X 100 MLBIN     1
CC0001140840999U202100917789111000917789111010/11/20210518    3190232723942196432000001956000001620610000000000000                                                                      CONECTOR MICRO CLAVE LAT-MC100SOB     1
CC0001140840999U202100917789111000917789111010/11/20210518    31902327239421964320000Q1AA7100000610620000000000000                                                            CATETER PERIFE INTROCAN # 18G 4251687-04SIN     1
