CC0000012531132U202100917361110700917361110707/11/20211323    3190280023942196432000011082700001620070000000000000                                                               EQUIPO SET PRIMARIO C/CLAVE REF 14001BOL     1
CC0000012531132U202100917361110700917361110707/11/20211323    3190280023942196432000024674000001138340000000000000   JERINGA 3PARTES C/A 10ML REF JEHL005 CAJ X 100 ALFASAFE  21GX1 PULG 1/2 PULG BN EXENTO-DC.417/202SIN     2
CC0000012531132U202100917361110700917361110707/11/20211323    3190280023942196432000030936900001431840000000000000                                                                                              BURETABOL     1
CC0000012531132U202100917361110700917361110707/11/20211323    31902800239421964320000E1AB0300003888390000000000000                                                            SOLUCION SALINA 0.9% SLN INY BO X 500 MLBOL     1
