RC0001043192399U202100050131587600050131587610/11/20211504    3190296823942196432000030936900001431840000000000000                                                                                              BURETABOL     1
RC0001130296734U202100050131587600050131587610/11/20211504    3190296823942196432000024674000001138340000000000000   JERINGA 3PARTES C/A 10ML REF JEHL005 CAJ X 100 ALFASAFE  21GX1 PULG 1/2 PULG BN EXENTO-DC.417/202SIN     1
RC0001137535580U202100050131587600050131587610/11/20211504    3190296823942196432000024674000001138340000000000000   JERINGA 3PARTES C/A 10ML REF JEHL005 CAJ X 100 ALFASAFE  21GX1 PULG 1/2 PULG BN EXENTO-DC.417/202SIN     3
PE941942408082011U202100050131587600050131587610/11/20211504    3190296823942196432000024674000001138340000000000000   JERINGA 3PARTES C/A 10ML REF JEHL005 CAJ X 100 ALFASAFE  21GX1 PULG 1/2 PULG BN EXENTO-DC.417/202SIN     1
TI0001146537580U202100050131587600050131587610/11/20211504    3190296823942196432000024674000001138340000000000000   JERINGA 3PARTES C/A 10ML REF JEHL005 CAJ X 100 ALFASAFE  21GX1 PULG 1/2 PULG BN EXENTO-DC.417/202SIN     1
RC0001043192399U202100050131587600050131587610/11/20211504    3190296823942196432000000602600001259280000000000000                                                             APOSITO TEGADERM IV PD 1610 5CM X 5.7CMSOB     1
RC0001043192399U202100050131587600050131587610/11/20211504    31902968239421964320000Q1AA7400003911720000000000000                                                            CATETER PERIFE INTROCAN # 24G 4251601-04SOB     1
RC0001043192399U202100050131587600050131587610/11/20211504    3190296823942196432000011082700001620070000000000000                                                               EQUIPO SET PRIMARIO C/CLAVE REF 14001BOL     1
RC0001043192399U202100050131587600050131587610/11/20211504    31902968239421964320000E1AD0200003888320000000000000                                                                              HARTMAN SLN INY 500 MLBOL     1
