TI0001043170552U202100917318110700917318110707/11/20210013    3190135523942196432000011082700001620070000000000000                                                               EQUIPO SET PRIMARIO C/CLAVE REF 14001BOL     1
TI0001043170552U202100917318110700917318110707/11/20210013    3190135523942196432000024673000001411210000000000000                                                                  JERINGA DESECHABLE 3 ML 21 X 1 1/2SOB     1
TI0001043170552U202100917318110700917318110707/11/20210013    31901355239421964320000Q1AA7300000610640000000000000                                                            CATETER PERIFE INTROCAN # 22G 4251628-04SIN     1
TI0001043170552U202100917318110700917318110707/11/20210013    31901355239421964320000E1AB0200000199290000000000000                                                            SOLUCION SALINA 0.9% SLN INY BO X 100 MLBIN     1
TI0001043170552U202100917318110700917318110707/11/20210013    3190135523942196432000001956000001620610000000000000                                                                      CONECTOR MICRO CLAVE LAT-MC100SOB     1
