CC0000017194863U202100172841110900172841110909/11/20210811    3190092523942196432000016830000000970620000000000000                                                             SIST FIJACION CAT PERIFERICO 6.5X7 1683SOB     1
CC0000017194863U202100172841110900172841110909/11/20210811    3190092523942196432000001956000001620610000000000000                                                                      CONECTOR MICRO CLAVE LAT-MC100SOB     1
CC0000017194863U202100172841110900172841110909/11/20210811    31900925239421964320000Q1AA7200000610630000000000000                                                            CATETER PERIFE INTROCAN # 20G 4251644-04SIN     1
