CC0000022358936H202100000556617100000556617106/12/20210906     3300009237421964250000A2BC0900000200150000000000000                                                                               ORAZOLE Sln Iny 40 mgCIN     1
CC0000022358936H202100000556617100000556617106/12/20211132    31903288237421964250000E1AD0300000199490000000000000                                         LACTATO RINGER USP (HARTMANN)  SOL INY  BOL X 1000ML BAXTERBIN     1
CC0000022358936H202100000556617100000556617106/12/20210658    31902202237421964250000E1AD0300000199490000000000000                                         LACTATO RINGER USP (HARTMANN)  SOL INY  BOL X 1000ML BAXTERBIN     1
CC0000022358936H202100000556617100000556617106/12/20210906     3300009237421964250000H03A0900001278900000000000000                                                                                   EUTIROX TB 75 MCGTAB     1
CC0000022358936H202100000556617100000556617106/12/20211437     3300003237421964250000J1CB0600000468340000000000000                                                           UNASYN IM-IV (1+0.5)GR POLV INY INST VIALVAL     2
CC0000022358936H202100000556617100000556617106/12/20210906     3300009237421964250000J1CB0600000468340000000000000                                                           UNASYN IM-IV (1+0.5)GR POLV INY INST VIALVAL     4
CC0000022358936H202100000556617100000556617106/12/20211730     3300009237421964250000A3BB0300000512950000000000000                                                             BUSCAPINA COMP Sln Iny 20 mg+2.5 g/5 mlAMP     4
CC0000022358936H202100000556617100000556617106/12/20210629     3300004237421964250000A3BB0300000512950000000000000                                                             BUSCAPINA COMP Sln Iny 20 mg+2.5 g/5 mlAMP     1
CC0000022358936H202100000556617100000556617106/12/20210906     3300009237421964250000N6AA0500001277740000000000000                                                                                   TRITICO TAB 50 MGTAB     1
CC0000022358936H202100000556617100000556617106/12/20210906     3300009237421964250000N06B0200001278810000000000000                                                                              AKATINOL TAB 10 MG /R/TAB     4
