CC0000013887621H202100000556611800000556611806/12/20211321     330000923742196425000011808300000218190000000000000                                                   DORMICUM IV 50MG/10ML(5MG/ML) SOL INY  CAJ X 5AMPAMP    10
CC0000013887621H202100000556611800000556611806/12/20210744     3300009237421964250000A2BC0900000200150000000000000                                                                               ORAZOLE Sln Iny 40 mgCIN     1
CC0000013887621H202100000556611800000556611806/12/20210742     3300009237421964250000A11DA300001278410000000000000                                                                                  TIAMINA TAB 300 MGTAB     1
CC0000013887621H202100000556611800000556611806/12/20210743     3300009237421964250000A11GA400001337200000000000000                                                                               VITAMINA C Tab 500 mgTAB     2
CC0000013887621H202100000556611800000556611806/12/20210742     3300009237421964250000A11GA400001337200000000000000                                                                               VITAMINA C Tab 500 mgTAB     4
CC0000013887621H202100000556611800000556611806/12/20210743     3300009237421964250000B1AB0100001227270000000000000                                             HEPAMAX 25000UI/5ML(5000UI/ML) SOL INY  CAJ X 25AMPX5MLAMP     2
CC0000013887621H202100000556611800000556611806/12/20210742     3300009237421964250000C01DA100000176460000000000000                                                            NITROGLICERINA EN DEXTROSA VIAL X 250 MLFCO     1
CC0000013887621H202100000556611800000556611806/12/20211639     3300009237421964250000C01CA100001395620000000000000                                                                    DOBUTAMINA SLN INY 250 MG / 5 MLVAL     1
CC0000013887621H202100000556611800000556611806/12/20211638     3300009237421964250000C01CA100001395620000000000000                                                                    DOBUTAMINA SLN INY 250 MG / 5 MLVAL     1
CC0000013887621H202100000556611800000556611806/12/20211639     3300009237421964250000C2AC0100001277460000000000000                                                                              CATAPRESAN TAB 150 MCGCOM     3
CC0000013887621H202100000556611800000556611806/12/20210742     3300009237421964250000C3CA0200000195520000000000000                                                                           LASIX SLN INY 20 MG/ 2 MLAMP     2
CC0000013887621H202100000556611800000556611806/12/20210743     3300009237421964250000C7FA0200001277980000000000000                                                                                    NORVAS TAB 10 MGTAB     1
CC0000013887621H202100000556611800000556611806/12/20210742     3300009237421964250000C09CA400001277130000000000000                                                                                  LOSARTAN TAB 50 MGTAB     2
CC0000013887621H202100000556611800000556611806/12/20210742     3300009237421964250000H02AB500001664950000000000000                                                            DEXAMETASONA SLN INY 8 MG/2 ML AMP /CDS/AMP     2
CC0000013887621H202100000556611800000556611806/12/20210742     3300009237421964250000J01D1300001469600000000000000                                                                               POZINEG POLVO INY 1 GVAL     4
CC0000013887621H202100000556611800000556611806/12/20211640     3300009237421964250000J02A0500000467570000000000000                                                                      DIFLUCAN SLN INY 200 MG/100 MLFCO     1
CC0000013887621H202100000556611800000556611806/12/20211639     3300009237421964250000J02A0500000467570000000000000                                                                      DIFLUCAN SLN INY 200 MG/100 MLFCO     3
CC0000013887621H202100000556611800000556611806/12/20211458     3300009237421964250000J02A0500000467570000000000000                                                                      DIFLUCAN SLN INY 200 MG/100 MLFCO     2
CC0000013887621H202100000556611800000556611806/12/20211323     3300009237421964250000J02A0500000467570000000000000                                                                      DIFLUCAN SLN INY 200 MG/100 MLFCO     1
CC0000013887621H202100000556611800000556611806/12/20210743     3300009237421964250000N01A0400003939010000000000000                                               MAYOPROFOL 200MG/20ML(1%) EMUL INY CAJ X 1VIAL X 20MLVAL     5
CC0000013887621H202100000556611800000556611806/12/20210119     3300010237421964250000N01A0400003939010000000000000                                               MAYOPROFOL 200MG/20ML(1%) EMUL INY CAJ X 1VIAL X 20MLVAL    11
CC0000013887621H202100000556611800000556611806/12/20210118     3300010237421964250000N01A0400003939010000000000000                                               MAYOPROFOL 200MG/20ML(1%) EMUL INY CAJ X 1VIAL X 20MLVAL    14
CC0000013887621H202100000556611800000556611806/12/20211657     3300009237421964250000N07X0300003913670000000000000                                    DEXMEDETOMIDINA 400MCG/100ML(4MCG/ML) SOL INY BOL X 100ML BAXTERBOL    10
CC0000013887621H202100000556611800000556611806/12/20211540     3300009237421964250000N05A0500001336370000000000000                                                                              SEROQUEL TAB 25 MG /R/TAB     1
CC0000013887621H202100000556611800000556611806/12/20210743     3300009237421964250000N05A0500001336370000000000000                                                                              SEROQUEL TAB 25 MG /R/TAB     2
CC0000013887621H202100000556611800000556611806/12/20210743     3300009237421964250000A11A2200001050880000000000000                                                                 GLUCERNA LIQUIDO 1.5 KCAL X 1000 MLFCO     1
CC0000013887621H202100000556611800000556611806/12/20211321     3300009237421964250000N1AH0200003906560000000000000                                                                     FENTANIL Iny 0.05 mg/ml x 10 mlAMP    10
