MS0010053369121H202100015132529500015132529506/12/20210934    3190311723742196425000038569500000994340000000000000                                                             SONDA FOLEY 2 VIAS 6F MA-220603 UROTECHSOB     1
MS0010053369121H202100015132529500015132529506/12/20210934    3190311723742196425000022425700000225420000000000000                                                                   SIST PERFUSOR SECURA 50 ML 728889CAJ     3
MS0010053369121H202100015132529500015132529506/12/20210934    3190311723742196425000032425700000225400000000000000                                                                          SET PERFUSOR SECURA X 20MLCAJ     3
MS0010053369121H202100015132529500015132529506/12/20210934    31903117237421964250000Q1AA5900000236800000000000000                                                                            CISTOFLO PEDIAT X 500 mlSIN     1
MS0010053369121H202100015132529500015132529506/12/20210934    31903117237421964250000E1AB0300003888390000000000000                                                            SOLUCION SALINA 0.9% SLN INY BO X 500 MLBOL     1
