CC0000080424776H202100015012626400015012626406/12/20211715    3190331023742196425000024674000001138340000000000000   JERINGA 3PARTES C/A 10ML REF JEHL005 CAJ X 100 ALFASAFE  21GX1 PULG 1/2 PULG BN EXENTO-DC.417/202PZA     8
CC0000072142637H202100015012626400015012626406/12/20211715    3190331023742196425000024674000001138340000000000000   JERINGA 3PARTES C/A 10ML REF JEHL005 CAJ X 100 ALFASAFE  21GX1 PULG 1/2 PULG BN EXENTO-DC.417/202PZA     8
CC0000022366269H202100015012626400015012626406/12/20211715    3190331023742196425000024674000001138340000000000000   JERINGA 3PARTES C/A 10ML REF JEHL005 CAJ X 100 ALFASAFE  21GX1 PULG 1/2 PULG BN EXENTO-DC.417/202PZA     8
TI0001016596456H202100015012626400015012626406/12/20211715    3190331023742196425000024674000001138340000000000000   JERINGA 3PARTES C/A 10ML REF JEHL005 CAJ X 100 ALFASAFE  21GX1 PULG 1/2 PULG BN EXENTO-DC.417/202PZA     5
CC0000012614608H202100015012626400015012626406/12/20211715    3190331023742196425000024674000001138340000000000000   JERINGA 3PARTES C/A 10ML REF JEHL005 CAJ X 100 ALFASAFE  21GX1 PULG 1/2 PULG BN EXENTO-DC.417/202PZA     8
CC0001143115732H202100015012626400015012626406/12/20211715    3190331023742196425000024674000001138340000000000000   JERINGA 3PARTES C/A 10ML REF JEHL005 CAJ X 100 ALFASAFE  21GX1 PULG 1/2 PULG BN EXENTO-DC.417/202PZA     8
CC0000072142637H202100015012626400015012626406/12/20211715    3190331023742196425000022426800001140510000000000000                                                                    EQUIPO MACROGOTEO BAXTER MRC0001SOB     1
CC0000012614608H202100015012626400015012626406/12/20211715    3190331023742196425000022426800001140510000000000000                                                                    EQUIPO MACROGOTEO BAXTER MRC0001SOB     1
CC0000022366269H202100015012626400015012626406/12/20211715    3190331023742196425000030936900001431840000000000000                                                                                              BURETABOL     1
TI0001016596456H202100015012626400015012626406/12/20211715    3190331023742196425000030936900001431840000000000000                                                                                              BURETABOL     1
CC0000012614608H202100015012626400015012626406/12/20211715    3190331023742196425000030936900001431840000000000000                                                                                              BURETABOL     1
