CC0000006617679U202100050131938900050131938906/12/20211210    3190286423942196432000011048600000223020000000000000                                                                 JERINGA VACUNACION 3ML C/AGU 302542SIN     1
CC0000006617679U202100050131938900050131938906/12/20211210    3190286423942196432000024673600000222980000000000000                                                                     JERINGA DESECHABLE 5 ml 27*11/2SIN     1
CC0000003815307U202100050131938900050131938906/12/20211210    3190286423942196432000024673600000222980000000000000                                                                     JERINGA DESECHABLE 5 ml 27*11/2SIN     1
