CC0001085041540U202100000556611900000556611906/12/20210731    31901010239421964320000E1AB0300003888390000000000000                                                            SOLUCION SALINA 0.9% SLN INY BO X 500 MLBOL     1
CC0001085041540U202100000556611900000556611906/12/20211342    31903016239421964320000V4AF1000003850710000000000000                                                                    OMNIPAQUE Sln Iny 300 mg x 50 mlFCO     2
CC0001085041540U202100000556611900000556611906/12/20211037     3300004239421964320000J01CR300003913920000000000000                                                     AUROTAZ-P (4+0.5)GR POLV INY CAJ X 1VIAL X 50MLVAL     1
CC0001085041540U202100000556611900000556611906/12/20210512     3300010239421964320000J01CR300003913920000000000000                                                     AUROTAZ-P (4+0.5)GR POLV INY CAJ X 1VIAL X 50MLVAL     1
CC0001085041540U202100000556611900000556611906/12/20210718     3300010239421964320000N2BB0100001672010000000000000                                  DIPIRONA 1GR/2ML(0.5GR/ML) SOL INY INST CAJ X 100AMP X 2ML VITALISAMP     1
CC0001085041540U202100000556611900000556611906/12/20210717     3300010239421964320000N2BB0100001672010000000000000                                  DIPIRONA 1GR/2ML(0.5GR/ML) SOL INY INST CAJ X 100AMP X 2ML VITALISAMP     1
CC0001085041540U202100000556611900000556611906/12/20211223     3300004239421964320000N2AX0900001672040000000000000                                                                              TRAMADOL SLN INY 50 MGAMP     1
CC0001085041540U202100000556611900000556611906/12/20210120     3300010239421964320000N2AX0900001672040000000000000                                                                              TRAMADOL SLN INY 50 MGAMP     1
