CC0000019773143H202100000556633300000556633306/12/20211828    31900998237421964250000C7AB1000001382030000000000000                                                                   NOREPINEFRINA SLN INY 4 MG / 4 MLAMP    12
CC0000019773143H202100000556633300000556633306/12/20211828    31900998237421964250000J01XA400001212420000000000000                                                               VANCOMICINA POLVO LIOF SLN INY 500 MGVAL     6
CC0000019773143H202100000556633300000556633306/12/20211834    31900998237421964250000H01B0100001390610000000000000                                                                   VASOPRESINA SLN INY 20 UI/ ML /R/VAL     1
CC0000019773143H202100000556633300000556633306/12/20211828    31900998237421964250000H01B0100001390610000000000000                                                                   VASOPRESINA SLN INY 20 UI/ ML /R/VAL     1
CC0000019773143H202100000556633300000556633306/12/20211434    31900998237421964250000N07X0300003913670000000000000                                    DEXMEDETOMIDINA 400MCG/100ML(4MCG/ML) SOL INY BOL X 100ML BAXTERBOL    13
CC0000019773143H202100000556633300000556633306/12/20211828    31900998237421964250000R3CA0100001051880000000000000                                                               ADRENALINA HCL SLN INY 1 MG / ML ECARAMP    59
CC0000019773143H202100000556633300000556633306/12/20211828    31900998237421964250000J01DD500001239970000000000000                                                                  CEFTRIAXONA POLVO LIOF SLN INY 1 GVAL     4
CC0000019773143H202100000556633300000556633306/12/20211828    31900998237421964250000N2BE2200001252930000000000000                                                                             ACETAMINOFEN Tab 500 MGTAB     6
CC0000019773143H202100000556633300000556633306/12/20211828    31900998237421964250000N2BB0100001672010000000000000                                  DIPIRONA 1GR/2ML(0.5GR/ML) SOL INY INST CAJ X 100AMP X 2ML VITALISAMP     8
CC0000019773143H202100000556633300000556633306/12/20211828    31900998237421964250000A02BC700001684270000000000000                                                            OMEPRAZOL 40MG POLVO LIOFILIZADO AMPOLLAVAL     1
