RC0001044671776H202100015122548100015122548106/12/20211205    31903110237421964250000Q1AA1000000256790000000000000                                                                         SONDA ASPIRACION CONTROL #8SIN     8
RC0001046723141H202100015122548100015122548106/12/20211205    3190311023742196425000038576500000256730000000000000                                                                        SONDA ASPIRACION CONTROL #10SIN     8
RC0001044671776H202100015122548100015122548106/12/20211205    3190311023742196425000024674000001138340000000000000   JERINGA 3PARTES C/A 10ML REF JEHL005 CAJ X 100 ALFASAFE  21GX1 PULG 1/2 PULG BN EXENTO-DC.417/202PZA     3
RC0001046723141H202100015122548100015122548106/12/20211205    3190311023742196425000024674000001138340000000000000   JERINGA 3PARTES C/A 10ML REF JEHL005 CAJ X 100 ALFASAFE  21GX1 PULG 1/2 PULG BN EXENTO-DC.417/202PZA     3
RC0001240292997H202100015122548100015122548106/12/20211205    3190311023742196425000043995200000229010000000000000                                                               HUMIDIFICADOR PARA OXIGENO REF. H001BBOL     1
RC0001102897681H202100015122548100015122548106/12/20211205    3190311023742196425000043995200000229010000000000000                                                               HUMIDIFICADOR PARA OXIGENO REF. H001BBOL     1
RC0001240292997H202100015122548100015122548106/12/20211205    31903110237421964250000Q1A11800000258040000000000000                                                                         CANULA OXIGENO NASAL PEDIATSIN     1
RC0001063188441H202100015122548100015122548106/12/20211205    31903110237421964250000E1BA0100000198890000000000000                                                                   AGUA ESTERIL USP SLN INY X 500 MLBIN     2
RC0001046723141H202100015122548100015122548106/12/20211205    31903110237421964250000E1BA0100000198890000000000000                                                                   AGUA ESTERIL USP SLN INY X 500 MLBIN     2
RC0001043033404H202100015122548100015122548106/12/20211205    31903110237421964250000E1BA0100000198890000000000000                                                                   AGUA ESTERIL USP SLN INY X 500 MLBIN     2
RC0001044671776H202100015122548100015122548106/12/20211205    31903110237421964250000E1AB0200000199290000000000000                                                            SOLUCION SALINA 0.9% SLN INY BO X 100 MLBIN     2
RC0001046723141H202100015122548100015122548106/12/20211205    31903110237421964250000E1AB0200000199290000000000000                                                            SOLUCION SALINA 0.9% SLN INY BO X 100 MLBIN     2
