CC0000032862180A202100000027829800000027829806/12/20210826    31903336240421964190000N5BB0600001447470000000000000                                                                   HIDROXICINA SOL 10mg/mL GOTx 15mLFCO     1
CC0000032862180A202100000027829800000027829806/12/20210826    3190333624042196419000024675000001585130000000000000                                                                    JERINGA DESECHABLE 50 ml S/AGUJASOB     1
CC0000032862180A202100000027829800000027829806/12/20210826    31903336240421964190000R03AC100001340440000000000000                                                            VENTILAN OSP INH ORAL 100 MCG /DO 200 DOFCO     1
CC0000032862180A202100000027829800000027829806/12/20210826    3190333624042196419000035802000001014670000000000000                                                                        NEBULIZADOR C/MASCARA ADULTOBOL     1
CC0000032862180A202100000027829800000027829806/12/20210826    31903336240421964190000C3CA0200000195520000000000000                                                                           LASIX SLN INY 20 MG/ 2 MLAMP     1
CC0000032862180A202100000027829800000027829806/12/20210826    31903336240421964190000H02A0100001664960000000000000                                                                        DEXAMETASONA SLN INY 4 MG/MLAMP     2
CC0000032862180A202100000027829800000027829806/12/20210826    31903336240421964190000R3BB0300000512920000000000000                                                                        BERODUAL SLN INH X 20 ML /R/FCO     1
CC0000032862180A202100000027829800000027829806/12/20210826    3190333624042196419000001956000001620610000000000000                                                                      CONECTOR MICRO CLAVE LAT-MC100SOB     1
CC0000032862180A202100000027829800000027829806/12/20210826    31903336240421964190000M1AB0900001019600000000000000                                                                              VOLTAREN Sln Iny 75 mgAMP     2
CC0000032862180A202100000027829800000027829806/12/20210826    31903336240421964190000N1BA0900000218000000000000000                                                                    ROXICAINA 2% S/E SLN INY X 20 MLFCO     1
CC0000032862180A202100000027829800000027829806/12/20210826    31903336240421964190000Q1AA7200000610630000000000000                                                            CATETER PERIFE INTROCAN # 20G 4251644-04SIN     1
CC0000032862180A202100000027829800000027829806/12/20210826    31903336240421964190000E1AB0700003888350000000000000                                                            SOLUCION SALINA 0.9% SLN INY BO X 250 MLBOL     1
CC0000032862180A202100000027829800000027829806/12/20210826    3190333624042196419000024672100001609890000000000000                                                            JERINGA INSULINA 1ML TAPA NARANJA JEI013SOB     1
CC0000032862180A202100000027829800000027829806/12/20210826    31903336240421964190000A12CA200001239800000000000000                     BICARBONATO SODIO 10MEQ/10ML(1MEQ/ML) SOL INY  CAJ X 100AMPX10ML FRESENIUS KABIAMP     1
CC0000032862180A202100000027829800000027829806/12/20210826    31903336240421964190000N1BA2400001687720000000000000                                                    LIDOCAINA 2% SOL INY  CAJ X 50AMP X 10ML CORPAULAMP     2
CC0000032862180A202100000027829800000027829806/12/20210826    3190333624042196419000015944100000233310000000000000                                                                              CAPROFYL 3/0 SH CF122TSIN     1
CC0000032862180A202100000027829800000027829806/12/20210826    31903336240421964190000S1GA0800000858210000000000000                                                                       AFRIN 0.05% SLN NASAL X 15 MLFCO     1
CC0000032862180A202100000027829800000027829806/12/20210826    3190333624042196419000045723600000271070000000000000                                                                          MECHA NASAL ESTERIL 3/8*24SOB     1
CC0000032862180A202100000027829800000027829806/12/20210826    3190333624042196419000011018600000231910000000000000                                                                  CATGUT CROMADO 4-0 AGUJA RB1 U203TSIN     1
CC0000032862180A202100000027829800000027829806/12/20210826    3190333624042196419000012474300000371100000000000000                                                                SUTURA ETHILON 5-0 SC-20 45CM 14501TSIN     1
CC0000032862180A202100000027829800000027829806/12/20210826    31903336240421964190000Q1AA3300001585140000000000000                                                                         APOSITO TEGADERM 10*12 1626SOB     1
CC0000032862180A202100000027829800000027829806/12/20210826    3190333624042196419000021017100000227480000000000000                                                                  CAT ANESTESIA EPIDURAL JC05400 19GSIN     1
CC0000032862180A202100000027829800000027829806/12/20210826    3190333624042196419000019487500000602970000000000000                                                                           VICRYL 2-0 CT1 90 VCP345HSIN     2
CC0000032862180A202100000027829800000027829806/12/20210826    3190333624042196419000015944000000632490000000000000                                                                           MONOCRYL 3-0 PS2  MCP427HSIN     1
CC0000032862180A202100000027829800000027829806/12/20210826    3190333624042196419000012474000000232230000000000000                                                                SUTURA ETHILON 4-0 SC-20 45CM 14502TSIN     1
CC0000032862180A202100000027829800000027829806/12/20210826    3190333624042196419000012473200000232210000000000000                                                                 SUTURA ETHILON 3-0 SC-24 45CM  163TSIN     1
CC0000032862180A202100000027829800000027829806/12/20210826    3190333624042196419000017565400000232590000000000000                                                                             PROLENE 1 75 CT-1 8425HSIN     2
CC0000032862180A202100000027829800000027829806/12/20210826    3190333624042196419000043879100001138200000000000000                                                                  HOJA BISTURI # 15 CSSB 15 01002003SOB     1
CC0000032862180A202100000027829800000027829806/12/20210826    3190333624042196419000043879200001138180000000000000                                                                                   HOJA BISTURI # 11SOB     1
CC0000032862180A202100000027829800000027829806/12/20210826    3190333624042196419000043879400001138170000000000000                                                                  HOJA BISTURI # 10 CSSB 10 01002000SOB     1
CC0000032862180A202100000027829800000027829806/12/20210826    3190333624042196419000045138000001413890000000000000                                                                       LAPIZ ELECTROBISTURI  SOB X 1SOB     1
CC0000032862180A202100000027829800000027829806/12/20210826    31903336240421964190000R3CA0400000777470000000000000                                                               ADRENALINA HCL SLN INY 1 MG / ML RYANAMP     3
CC0000032862180A202100000027829800000027829806/12/20210826    3190333624042196419000016830000000970620000000000000                                                             SIST FIJACION CAT PERIFERICO 6.5X7 1683SOB     2
CC0000032862180A202100000027829800000027829806/12/20210826    31903336240421964190000Q1AA7100000610620000000000000                                                            CATETER PERIFE INTROCAN # 18G 4251687-04SIN     1
CC0000032862180A202100000027829800000027829806/12/20210826    3190333624042196419000035356500003919000000000000000                                                                                        LLAVE 3 VIASSOB     1
CC0000032862180A202100000027829800000027829806/12/20210826    3190333624042196419000022425200000548240000000000000                       EXTENSION DE ANESTESIA REF 1139 SOB X 1 SHERLEG  ADULTO BN EXENTO-DC.417/2020SIN     1
CC0000032862180A202100000027829800000027829806/12/20210826    3190333624042196419000022426800001140510000000000000                                                                    EQUIPO MACROGOTEO BAXTER MRC0001SOB     1
CC0000032862180A202100000027829800000027829806/12/20210826    31903336240421964190000J01DA300001239950000000000000                                                            CEFAZOLINA SODICA POLVO LIOF SLN INY 1 GVAL     2
CC0000032862180A202100000027829800000027829806/12/20210826    3190333624042196419000011082700001620070000000000000                                                               EQUIPO SET PRIMARIO C/CLAVE REF 14001BOL     1
CC0000032862180A202100000027829800000027829806/12/20210826    3190333624042196419000024674000001138340000000000000   JERINGA 3PARTES C/A 10ML REF JEHL005 CAJ X 100 ALFASAFE  21GX1 PULG 1/2 PULG BN EXENTO-DC.417/202PZA     7
CC0000032862180A202100000027829800000027829806/12/20210826    3190333624042196419000024673600000222980000000000000                                                                     JERINGA DESECHABLE 5 ml 27*11/2SIN     2
CC0000032862180A202100000027829800000027829806/12/20210826    3190333624042196419000024673000001411210000000000000                                                                  JERINGA DESECHABLE 3 ML 21 X 1 1/2SOB     2
CC0000032862180A202100000027829800000027829806/12/20210826    3190333624042196419000053074400000607910000000000000                                                               GASA ESTERIL 10*10 SOBRE X 3 UNIDADESSOB     6
CC0000032862180A202100000027829800000027829806/12/20210826    3190333624042196419000038568100000258050000000000000                                                                         CANULA OXIGENO NASAL ADULTOSIN     1
CC0000032862180A202100000027829800000027829806/12/20210826    3190333624042196419000011085300001082140000000000000                                                                           GUANTE QUIRURGICO TALLA 8SOB     1
CC0000032862180A202100000027829800000027829806/12/20210826    3190333624042196419000011085200001585390000000000000                                                                       GUANTE QUIRURGICO TALLA 7 1/2SOB     2
CC0000032862180A202100000027829800000027829806/12/20210826    3190333624042196419000011085100001082120000000000000                                                                           GUANTE QUIRURGICO TALLA 7SOB     2
CC0000032862180A202100000027829800000027829806/12/20210826    3190333624042196419000043485100001618510000000000000                GUANTE QUIRURGICO DE LATEX REF 2D72N65X CAJ X 50 PROTEXIS  6.5 BN EXENTO-DC.417/2020SOB     4
CC0000032862180A202100000027829800000027829806/12/20210826    3190333624042196419000033485000001049200000000000000                                                                           GUANTE QUIRURGICO TALLA 6SOB     2
CC0000032862180A202100000027829800000027829806/12/20210826    3190333624042196419000027292100000224750000000000000                                                                                  AGUJA PERICAN G-18SIN     1
CC0000032862180A202100000027829800000027829806/12/20210826    3190333624042196419000000100600000223090000000000000                                                                      AGUJA DESECHABLE 18G X 1 1/2 PSIN     2
CC0000032862180A202100000027829800000027829806/12/20210826    31903336240421964190000E1AD0200003888320000000000000                                                                              HARTMAN SLN INY 500 MLBOL     2
CC0000032862180A202100000027829800000027829806/12/20210826    31903336240421964190000E1AB0500003888400000000000000                                                              SOLUCION SALINA 0.9% SLN INY X 1000 MLBOL     3
CC0000032862180A202100000027829800000027829806/12/20210826    31903336240421964190000E1AB0300003888390000000000000                                                            SOLUCION SALINA 0.9% SLN INY BO X 500 MLBOL     3
CC0000032862180A202100000027829800000027829806/12/20210826    31903336240421964190000E1AB0200000199290000000000000                                                            SOLUCION SALINA 0.9% SLN INY BO X 100 MLBIN     2
CC0000032862180A202100000027829800000027829806/12/20210826    31903336240421964190000B02AA100001407470000000000000                                                                    CLINTRANEX SLN INY 500 MG / 5 MLAMP     2
CC0000032862180A202100000027829800000027829806/12/20210826    31903336240421964190000N2AX0500001204110000000000000                                                                          TRAMAL SLN INY 100 MG / MLAMP     1
CC0000032862180A202100000027829800000027829806/12/20210826    31903336240421964190000N2BB0500000217140000000000000                                                                          NOVALGINA Sln Iny 1 g/2 mlAMP     1
CC0000032862180A202100000027829800000027829806/12/20210826    31903336240421964190000N2BB1100000217160000000000000                                                                      NOVALGINA Sln Iny 2.5 g x 5 mlAMP     1
CC0000032862180A202100000027829800000027829806/12/20210826    31903336240421964190000M01A0400001341250000000000000                                                                              DYNASTAT AMP 40 MG /R/VAL     1
CC0000032862180A202100000027829800000027829806/12/20210826    31903336240421964190000S2BA0100000468160000000000000                                                                          SOLU-CORTEF SNL INY 100 MGVAL     2
CC0000032862180A202100000027829800000027829806/12/20210826    31903336240421964190000H02AB500001664950000000000000                                                            DEXAMETASONA SLN INY 8 MG/2 ML AMP /CDS/AMP     1
CC0000032862180A202100000027829800000027829806/12/20210826    31903336240421964190000N01B0200003888110000000000000                                           ROXICAINA SE 100MG/10ML(1%) SOL INY CAJ X 24AMPACK X 10MLAPC     2
CC0000032862180A202100000027829800000027829806/12/20210826    31903336240421964190000C01C0300001261020000000000000                                                               ETILEFRINA HCL SLN INY 10 MG/1 ML /R/AMP     1
CC0000032862180A202100000027829800000027829806/12/20210826    31903336240421964190000A3BA0100001109400000000000000                                                                          ATROPINA SLN INY 1 MG / MLAMP     1
CC0000032862180A202100000027829800000027829806/12/20210826    31903336240421964190000N1AH0200003906560000000000000                                                                     FENTANIL Iny 0.05 mg/ml x 10 mlAMP     1
