CC0001129570345H202100000556631300000556631306/12/20211339    31901015237421964250000A03F0300001626860000000000000                                                                   METOCLOPRAMIDA SLN INY 10 MG/2 MLAMP     3
CC0001129570345H202100000556631300000556631306/12/20211339    31901015237421964250000N2BB0100001672010000000000000                                  DIPIRONA 1GR/2ML(0.5GR/ML) SOL INY INST CAJ X 100AMP X 2ML VITALISAMP     5
CC0001129570345H202100000556631300000556631306/12/20211339    31901015237421964250000N2AX0900001672040000000000000                                                                              TRAMADOL SLN INY 50 MGAMP     3
