CC0001140839787H202100000556618900000556618906/12/20210748     3300009237421964250000A2BC0900000200150000000000000                                                                               ORAZOLE Sln Iny 40 mgCIN     1
CC0001140839787H202100000556618900000556618906/12/20210748     3300009237421964250000A03F0300001626860000000000000                                                                   METOCLOPRAMIDA SLN INY 10 MG/2 MLAMP     2
CC0001140839787H202100000556618900000556618906/12/20211836     3300009237421964250000B1AB0200003939510000000000000                 ENOXAPARINA SODICA 40MG/0.4ML(100MG/ML) SOL INY INST CAJ X 2JERPREL X 0.4ML TECHDOWJRP     1
CC0001140839787H202100000556618900000556618906/12/20210748     3300009237421964250000B1AB0200003939510000000000000                 ENOXAPARINA SODICA 40MG/0.4ML(100MG/ML) SOL INY INST CAJ X 2JERPREL X 0.4ML TECHDOWJRP     1
CC0001140839787H202100000556618900000556618906/12/20210707    31500072237421964250000E1AB0200000199290000000000000                                                            SOLUCION SALINA 0.9% SLN INY BO X 100 MLBIN     1
CC0001140839787H202100000556618900000556618906/12/20210707    31500072237421964250000E1AB0300003888390000000000000                                                            SOLUCION SALINA 0.9% SLN INY BO X 500 MLBOL     1
CC0001140839787H202100000556618900000556618906/12/20211811    31901360237421964250000E1AB0500003888400000000000000                                                              SOLUCION SALINA 0.9% SLN INY X 1000 MLBOL     2
CC0001140839787H202100000556618900000556618906/12/20211811    31901360237421964250000E1AD0300000199490000000000000                                         LACTATO RINGER USP (HARTMANN)  SOL INY  BOL X 1000ML BAXTERBIN     2
CC0001140839787H202100000556618900000556618906/12/20210707    31500072237421964250000E1AD0300000199490000000000000                                         LACTATO RINGER USP (HARTMANN)  SOL INY  BOL X 1000ML BAXTERBIN     1
CC0001140839787H202100000556618900000556618906/12/20211749     3300009237421964250000C2AB0200001300760000000000000                                                                                  ALDOMET Tab 500 mgTAB     3
CC0001140839787H202100000556618900000556618906/12/20210748     3300009237421964250000C2AB0200001300760000000000000                                                                                  ALDOMET Tab 500 mgTAB     1
CC0001140839787H202100000556618900000556618906/12/20212157     3300004237421964250000C07A1100001015770000000000000                                                                   TRANDATE SLN INY 100 MG/20 ML /R/AMP     1
CC0001140839787H202100000556618900000556618906/12/20211533     3300009237421964250000C07A1100001015770000000000000                                                                   TRANDATE SLN INY 100 MG/20 ML /R/AMP     5
CC0001140839787H202100000556618900000556618906/12/20210748     3300009237421964250000C2DE1400001277050000000000000                                                                         NIFEDIPINO CAPSULA LM 30 MGCAP     2
CC0001140839787H202100000556618900000556618906/12/20211749     3300009237421964250000C09CA400001277130000000000000                                                                                  LOSARTAN TAB 50 MGTAB     2
CC0001140839787H202100000556618900000556618906/12/20211835     3300009237421964250000H03A0400001278890000000000000                                                                                  EUTIROX TAB 50 MCGTAB     1
CC0001140839787H202100000556618900000556618906/12/20210748     3300009237421964250000J01DA300001239950000000000000                                                            CEFAZOLINA SODICA POLVO LIOF SLN INY 1 GVAL     2
CC0001140839787H202100000556618900000556618906/12/20211835     3300009237421964250000N2AX0400001204140000000000000                                                                             TRAMAL Sln Iny 50 mg/mlAMP     1
CC0001140839787H202100000556618900000556618906/12/20210748     3300009237421964250000N02B1100001464120000000000000                                           PARACETAMOL EP 1000MG/100ML(10MG/ML) SOL INY  CAJ X 10FCOVAL     3
CC0001140839787H202100000556618900000556618906/12/20210748     3300009237421964250000A12CC100001690470000000000000                                                                  MAGNESIO SULFATO 20% SLN INY 10 MLAMP     5
CC0001140839787H202100000556618900000556618906/12/20210708    31500072237421964250000V07A1300000502600000000000000                                                                                AGUA ESTERIL x 10 mlAMP     5
