CC0001143115732H202100015012626500015012626506/12/20212100    3150023523742196425000001956000001620610000000000000                                                                      CONECTOR MICRO CLAVE LAT-MC100SOB     1
CC0001143115732H202100015012626500015012626506/12/20212100    31500235237421964250000Q1AA7300000610640000000000000                                                            CATETER PERIFE INTROCAN # 22G 4251628-04SIN     1
CC0001143115732H202100015012626500015012626506/12/20212100    3150023523742196425000016830000000970620000000000000                                                             SIST FIJACION CAT PERIFERICO 6.5X7 1683SOB     1
