CC0001140830653U202100000556644600000556644606/12/20212300    31900982239421964320000E1AB0200000199290000000000000                                                            SOLUCION SALINA 0.9% SLN INY BO X 100 MLBIN     1
CC0001140830653U202100000556644600000556644606/12/20212300    31900982239421964320000E1AB0700003888350000000000000                                                            SOLUCION SALINA 0.9% SLN INY BO X 250 MLBOL     1
CC0001140830653U202100000556644600000556644606/12/20212237     3300004239421964320000D7XA0600000219650000000000000                                                                                 XYLOPROCTO Ung 20 gTUB     1
CC0001140830653U202100000556644600000556644606/12/20212236     3300004239421964320000H02AB500001664950000000000000                                                            DEXAMETASONA SLN INY 8 MG/2 ML AMP /CDS/AMP     1
CC0001140830653U202100000556644600000556644606/12/20212236     3300004239421964320000M1AE2500000191550000000000000                                                            PROFENID POLVO LIOF SLN INY 100MG/2ML/R/AMP     1
