TI0001103512693H202100015122547800015122547806/12/20210814    31500343237421964250000V07A1300000502600000000000000                                                                                AGUA ESTERIL x 10 mlAMP     5
RC0001063188441H202100015122547800015122547806/12/20210814    31500343237421964250000V07A1300000502600000000000000                                                                                AGUA ESTERIL x 10 mlAMP     5
RC0001240292997H202100015122547800015122547806/12/20210814    31500343237421964250000V07A1300000502600000000000000                                                                                AGUA ESTERIL x 10 mlAMP     5
RC0001063188441H202100015122547800015122547806/12/20210814    3150034323742196425000038568400000256940000000000000                                                                                   SONDA NELATON #10SIN     1
TI0001103512693H202100015122547800015122547806/12/20210814    3150034323742196425000000102400001411250000000000000                                                                           JERINGA DESECHABLE X 50MLSOB     4
RC0001046723141H202100015122547800015122547806/12/20210814    3150034323742196425000000102400001411250000000000000                                                                           JERINGA DESECHABLE X 50MLSOB     4
TI0001016596456H202100015122547800015122547806/12/20210814    3150034323742196425000024674000001138340000000000000   JERINGA 3PARTES C/A 10ML REF JEHL005 CAJ X 100 ALFASAFE  21GX1 PULG 1/2 PULG BN EXENTO-DC.417/202PZA     5
TI0001103512693H202100015122547800015122547806/12/20210814    3150034323742196425000024674000001138340000000000000   JERINGA 3PARTES C/A 10ML REF JEHL005 CAJ X 100 ALFASAFE  21GX1 PULG 1/2 PULG BN EXENTO-DC.417/202PZA    10
RC0001063188441H202100015122547800015122547806/12/20210814    3150034323742196425000024674000001138340000000000000   JERINGA 3PARTES C/A 10ML REF JEHL005 CAJ X 100 ALFASAFE  21GX1 PULG 1/2 PULG BN EXENTO-DC.417/202PZA    10
RC0001240292997H202100015122547800015122547806/12/20210814    3150034323742196425000024674000001138340000000000000   JERINGA 3PARTES C/A 10ML REF JEHL005 CAJ X 100 ALFASAFE  21GX1 PULG 1/2 PULG BN EXENTO-DC.417/202PZA    10
RC0001044671776H202100015122547800015122547806/12/20210814    3150034323742196425000024674000001138340000000000000   JERINGA 3PARTES C/A 10ML REF JEHL005 CAJ X 100 ALFASAFE  21GX1 PULG 1/2 PULG BN EXENTO-DC.417/202PZA     5
RC0001046723141H202100015122547800015122547806/12/20210814    3150034323742196425000024674000001138340000000000000   JERINGA 3PARTES C/A 10ML REF JEHL005 CAJ X 100 ALFASAFE  21GX1 PULG 1/2 PULG BN EXENTO-DC.417/202PZA     5
RC0001063188076H202100015122547800015122547806/12/20210814    3150034323742196425000024674000001138340000000000000   JERINGA 3PARTES C/A 10ML REF JEHL005 CAJ X 100 ALFASAFE  21GX1 PULG 1/2 PULG BN EXENTO-DC.417/202PZA     5
RC0001043033404H202100015122547800015122547806/12/20210814    3150034323742196425000024674000001138340000000000000   JERINGA 3PARTES C/A 10ML REF JEHL005 CAJ X 100 ALFASAFE  21GX1 PULG 1/2 PULG BN EXENTO-DC.417/202PZA     5
TI0001103512693H202100015122547800015122547806/12/20210814    3150034323742196425000011089200001083340000000000000                                                              GUANTE ESTERIL LATEX S/POLVO TALLA 7.0SOB     4
RC0001046723141H202100015122547800015122547806/12/20210814    3150034323742196425000011089200001083340000000000000                                                              GUANTE ESTERIL LATEX S/POLVO TALLA 7.0SOB     2
TI0001103512693H202100015122547800015122547806/12/20210814    3150034323742196425000022426800001140510000000000000                                                                    EQUIPO MACROGOTEO BAXTER MRC0001SOB     3
RC0001046723141H202100015122547800015122547806/12/20210814    3150034323742196425000022426800001140510000000000000                                                                    EQUIPO MACROGOTEO BAXTER MRC0001SOB     3
RC0001063188076H202100015122547800015122547806/12/20210814    3150034323742196425000011082700001620070000000000000                                                               EQUIPO SET PRIMARIO C/CLAVE REF 14001BOL     1
RC0001046723141H202100015122547800015122547806/12/20210814    31500343237421964250000Q1AA5900000236800000000000000                                                                            CISTOFLO PEDIAT X 500 mlSIN     1
TI0001016596456H202100015122547800015122547806/12/20210814    3150034323742196425000001956000001620610000000000000                                                                      CONECTOR MICRO CLAVE LAT-MC100SOB     1
RC0001063188076H202100015122547800015122547806/12/20210814    3150034323742196425000030936900001431840000000000000                                                                                              BURETABOL     1
RC0001046723141H202100015122547800015122547806/12/20210814    31500343237421964250000E1BA0100000198890000000000000                                                                   AGUA ESTERIL USP SLN INY X 500 MLBIN     1
RC0001043033404H202100015122547800015122547806/12/20210814    31500343237421964250000E1AD0200003888320000000000000                                                                              HARTMAN SLN INY 500 MLBOL     2
TI0001103512693H202100015122547800015122547806/12/20210814    31500343237421964250000E1AB0300003888390000000000000                                                            SOLUCION SALINA 0.9% SLN INY BO X 500 MLBOL     1
RC0001240292997H202100015122547800015122547806/12/20210814    31500343237421964250000E1AB0700003888350000000000000                                                            SOLUCION SALINA 0.9% SLN INY BO X 250 MLBOL     1
RC0001044671776H202100015122547800015122547806/12/20210814    31500343237421964250000E1AB0700003888350000000000000                                                            SOLUCION SALINA 0.9% SLN INY BO X 250 MLBOL     1
RC0001046723141H202100015122547800015122547806/12/20210814    31500343237421964250000E1AB0700003888350000000000000                                                            SOLUCION SALINA 0.9% SLN INY BO X 250 MLBOL     1
RC0001240292997H202100015122547800015122547806/12/20210814    31500343237421964250000E1AC0100000199400000000000000                                                                          SUERO MIXTO Sln Iny 500 mlBIN     1
RC0001063188076H202100015122547800015122547806/12/20210814    31500343237421964250000E1AC0100000199400000000000000                                                                          SUERO MIXTO Sln Iny 500 mlBIN     1
