TI0001043450576H202100015052806500015052806506/12/20211945    3150045223742196425000011082700001620070000000000000                                                               EQUIPO SET PRIMARIO C/CLAVE REF 14001BOL     1
CC0001129489867H202100015052806500015052806506/12/20211945    3150045223742196425000011082700001620070000000000000                                                               EQUIPO SET PRIMARIO C/CLAVE REF 14001BOL     1
CC0001129489867H202100015052806500015052806506/12/20211945    3150045223742196425000001956000001620610000000000000                                                                      CONECTOR MICRO CLAVE LAT-MC100SOB     1
CC0001129489867H202100015052806500015052806506/12/20211945    31500452237421964250000Q1AA7300000610640000000000000                                                            CATETER PERIFE INTROCAN # 22G 4251628-04SIN     1
TI0001043450576H202100015052806500015052806506/12/20211945    3150045223742196425000030936900001431840000000000000                                                                                              BURETABOL     1
CC0001129489867H202100015052806500015052806506/12/20211945    3150045223742196425000030936900001431840000000000000                                                                                              BURETABOL     1
TI0001046710702H202100015052806500015052806506/12/20211945    31500452237421964250000E1AD0300000199490000000000000                                         LACTATO RINGER USP (HARTMANN)  SOL INY  BOL X 1000ML BAXTERBIN     1
PE0082549771210H202100015052806500015052806506/12/20211945    31500452237421964250000E1AD0300000199490000000000000                                         LACTATO RINGER USP (HARTMANN)  SOL INY  BOL X 1000ML BAXTERBIN     1
CC0000022352292H202100015052806500015052806506/12/20211945    31500452237421964250000E1AD0300000199490000000000000                                         LACTATO RINGER USP (HARTMANN)  SOL INY  BOL X 1000ML BAXTERBIN     1
