CC0000032797423A202100000027836500000027836506/12/20211709    3190333624042196419000051515500000598160000000000000                                                                            MASCARILLA ANESTESIA # 5SIN     1
CC0000032797423A202100000027836500000027836506/12/20211709    3190333624042196419000031010900000762730000000000000                                                                          CANULA GUEDEL # 4 (100 MM)SOB     1
CC0000032797423A202100000027836500000027836506/12/20211709    3190333624042196419000011099300000777780000000000000                                                                     FILTRO BACTERIANO VIRICO ADULTOBOL     1
CC0000032797423A202100000027836500000027836506/12/20211709    3190333624042196419000011085100001082120000000000000                                                                           GUANTE QUIRURGICO TALLA 7SOB     1
CC0000032797423A202100000027836500000027836506/12/20211709    3190333624042196419000043485100001618510000000000000                GUANTE QUIRURGICO DE LATEX REF 2D72N65X CAJ X 50 PROTEXIS  6.5 BN EXENTO-DC.417/2020SOB     8
CC0000032797423A202100000027836500000027836506/12/20211709    31903336240421964190000E1AB0500003888400000000000000                                                              SOLUCION SALINA 0.9% SLN INY X 1000 MLBOL     6
CC0000032797423A202100000027836500000027836506/12/20211709    31903336240421964190000E1AB0300003888390000000000000                                                            SOLUCION SALINA 0.9% SLN INY BO X 500 MLBOL     6
CC0000032797423A202100000027836500000027836506/12/20211709    31903336240421964190000E1AB0700003888350000000000000                                                            SOLUCION SALINA 0.9% SLN INY BO X 250 MLBOL     3
CC0000032797423A202100000027836500000027836506/12/20211709    31903336240421964190000E1AB0200000199290000000000000                                                            SOLUCION SALINA 0.9% SLN INY BO X 100 MLBIN     2
CC0000032797423A202100000027836500000027836506/12/20211709    31903336240421964190000N02B1100001464120000000000000                                           PARACETAMOL EP 1000MG/100ML(10MG/ML) SOL INY  CAJ X 10FCOVAL     1
CC0000032797423A202100000027836500000027836506/12/20211709    31903336240421964190000M1AB0900001019600000000000000                                                                              VOLTAREN Sln Iny 75 mgAMP     1
CC0000032797423A202100000027836500000027836506/12/20211709    31903336240421964190000N2BB1100000217160000000000000                                                                      NOVALGINA Sln Iny 2.5 g x 5 mlAMP     1
CC0000032797423A202100000027836500000027836506/12/20211709    31903336240421964190000N2AA0100000301640000000000000                                                                            MORFINA Sln Iny 10 mg/mlAMP     1
CC0000032797423A202100000027836500000027836506/12/20211709    31903336240421964190000B02AA100001407470000000000000                                                                    CLINTRANEX SLN INY 500 MG / 5 MLAMP     2
CC0000032797423A202100000027836500000027836506/12/20211709    31903336240421964190000C01C0300001261020000000000000                                                               ETILEFRINA HCL SLN INY 10 MG/1 ML /R/AMP     1
CC0000032797423A202100000027836500000027836506/12/20211709    31903336240421964190000H02AB500001664950000000000000                                                            DEXAMETASONA SLN INY 8 MG/2 ML AMP /CDS/AMP     1
CC0000032797423A202100000027836500000027836506/12/20211709    31903336240421964190000A2BC0900000200150000000000000                                                                               ORAZOLE Sln Iny 40 mgCIN     1
CC0000032797423A202100000027836500000027836506/12/20211709    31903336240421964190000A4AD0200000202990000000000000                                                                     PLITICAN HCL Sln Iny 50 mg/2 mlAMP     1
CC0000032797423A202100000027836500000027836506/12/20211709    31903336240421964190000A03F0300001626860000000000000                                                                   METOCLOPRAMIDA SLN INY 10 MG/2 MLAMP     1
CC0000032797423A202100000027836500000027836506/12/20211709    31903336240421964190000N1BA2400001687720000000000000                                                    LIDOCAINA 2% SOL INY  CAJ X 50AMP X 10ML CORPAULAMP     3
CC0000032797423A202100000027836500000027836506/12/20211709    31903336240421964190000N01A0400003939010000000000000                                               MAYOPROFOL 200MG/20ML(1%) EMUL INY CAJ X 1VIAL X 20MLVAL     1
CC0000032797423A202100000027836500000027836506/12/20211709    31903336240421964190000M3AC0600000720540000000000000                                                                         ESMERON SLN INY 50 MG /5 MLVAL     1
CC0000032797423A202100000027836500000027836506/12/20211709    31903336240421964190000N2AA0700001587170000000000000                                                                                 ULTIVA Sln Iny 2 mgVAL     2
CC0000032797423A202100000027836500000027836506/12/20211709    31903336240421964190000N1AH0200003906560000000000000                                                                     FENTANIL Iny 0.05 mg/ml x 10 mlAMP     1
CC0000032797423A202100000027836500000027836506/12/20211709    31903336240421964190000A3BB0200000512940000000000000                                                                          BUSCAPINA SIMPLE Iny 20 mgAMP     1
CC0000032797423A202100000027836500000027836506/12/20211709    3190333624042196419000017565400000232590000000000000                                                                             PROLENE 1 75 CT-1 8425HSIN     2
CC0000032797423A202100000027836500000027836506/12/20211709    31903336240421964190000Q1AA7300000610640000000000000                                                            CATETER PERIFE INTROCAN # 22G 4251628-04SIN     1
CC0000032797423A202100000027836500000027836506/12/20211709    3190333624042196419000049060000000267430000000000000                                                                 MEDIA ANTIEMBOLICA TAL S 3130LF PARBOL     1
CC0000032797423A202100000027836500000027836506/12/20211709    3190333624042196419000011065700003914100000000000000                                                                 TAPON HEPARINIZADO 4238010  B BRAUNSOB     1
CC0000032797423A202100000027836500000027836506/12/20211709    3190333624042196419000012474000000232230000000000000                                                                SUTURA ETHILON 4-0 SC-20 45CM 14502TSIN     1
CC0000032797423A202100000027836500000027836506/12/20211709    3190333624042196419000015944000000632490000000000000                                                                           MONOCRYL 3-0 PS2  MCP427HSIN     4
CC0000032797423A202100000027836500000027836506/12/20211709    3190333624042196419000017280100004015080000000000000 SUTURA MONOFIL ABSORBIBLE SH REF PDP316H CAJ X 36 PDS PLUS 70CM - 3-0 VIOLETA BN EXENTO-DC.417/2020SOB     1
CC0000032797423A202100000027836500000027836506/12/20211709    3190333624042196419000043879100001138200000000000000                                                                  HOJA BISTURI # 15 CSSB 15 01002003SOB     1
CC0000032797423A202100000027836500000027836506/12/20211709    3190333624042196419000043879400001138170000000000000                                                                  HOJA BISTURI # 10 CSSB 10 01002000SOB     1
CC0000032797423A202100000027836500000027836506/12/20211709    31903336240421964190000N1BA0300000217900000000000000                                                                    BUPIROP 0.5% C/E Sln Iny x 20 mlVAL     1
CC0000032797423A202100000027836500000027836506/12/20211709    3190333624042196419000015994600000632480000000000000                                                                          MONOCRYL 4-0 PS-2 45 Y496GSIN     3
CC0000032797423A202100000027836500000027836506/12/20211709    3190333624042196419000019488700000753270000000000000                                                                              VICRYL 3-0 SH1 VCP311HSOB     1
CC0000032797423A202100000027836500000027836506/12/20211709    3190333624042196419000019487500000602970000000000000                                                                           VICRYL 2-0 CT1 90 VCP345HSIN     2
CC0000032797423A202100000027836500000027836506/12/20211709    3190333624042196419000000503600004015180000000000000         SUTURA MONOFIL ABSORBIBLE CT-1 REF PDP340H CAJ X 36 PDS PLUS 70CM - 0 BN EXENTO-DC.417/2020SOB     2
CC0000032797423A202100000027836500000027836506/12/20211709    3190333624042196419000018351100000232850000000000000                                                                                 SEDA 2-0 SC-26 185TSIN     2
CC0000032797423A202100000027836500000027836506/12/20211709    3190333624042196419000012474300000371100000000000000                                                                SUTURA ETHILON 5-0 SC-20 45CM 14501TSIN     1
CC0000032797423A202100000027836500000027836506/12/20211709    3190333624042196419000042535000000222080000000000000                                                              SISTEMA SUCCION EXOVAC 1/8PULG (3.2MM)CAJ     2
CC0000032797423A202100000027836500000027836506/12/20211709    3190333624042196419000043879500001138210000000000000                                                                                    HOJA BISTURI #20SOB     2
CC0000032797423A202100000027836500000027836506/12/20211709    3190333624042196419000043879200001138180000000000000                                                                                   HOJA BISTURI # 11SOB     1
CC0000032797423A202100000027836500000027836506/12/20211709    3190333624042196419000045138000001413890000000000000                                                                       LAPIZ ELECTROBISTURI  SOB X 1SOB     2
CC0000032797423A202100000027836500000027836506/12/20211709    31903336240421964190000N01B1300001195250000000000000                                                                         BUPIROP 0.5% S/EPIN X 10 MLAMP     1
CC0000032797423A202100000027836500000027836506/12/20211709    31903336240421964190000R3CA0400000777470000000000000                                                               ADRENALINA HCL SLN INY 1 MG / ML RYANAMP     4
CC0000032797423A202100000027836500000027836506/12/20211709    31903336240421964190000J01DA300001239950000000000000                                                            CEFAZOLINA SODICA POLVO LIOF SLN INY 1 GVAL     2
CC0000032797423A202100000027836500000027836506/12/20211709    3190333624042196419000016830000000970620000000000000                                                             SIST FIJACION CAT PERIFERICO 6.5X7 1683SOB     2
CC0000032797423A202100000027836500000027836506/12/20211709    31903336240421964190000Q1AA7100000610620000000000000                                                            CATETER PERIFE INTROCAN # 18G 4251687-04SIN     2
CC0000032797423A202100000027836500000027836506/12/20211709    3190333624042196419000035356500003919000000000000000                                                                                        LLAVE 3 VIASSOB     1
CC0000032797423A202100000027836500000027836506/12/20211709    3190333624042196419000022425200000548240000000000000                       EXTENSION DE ANESTESIA REF 1139 SOB X 1 SHERLEG  ADULTO BN EXENTO-DC.417/2020SIN     1
CC0000032797423A202100000027836500000027836506/12/20211709    3190333624042196419000022426800001140510000000000000                                                                    EQUIPO MACROGOTEO BAXTER MRC0001SOB     1
CC0000032797423A202100000027836500000027836506/12/20211709    3190333624042196419000053300000000583500000000000000                                                               BOTA EXPRESS COMPRESOR VASCUL M 73012SIN     1
CC0000032797423A202100000027836500000027836506/12/20211709    3190333624042196419000038569900001124970000000000000                                                                              SONDA FOLEY #14 2 VIASSOB     1
CC0000032797423A202100000027836500000027836506/12/20211709    3190333624042196419000031188000000236790000000000000                                                                                     CISTOFLO ADULTOSIN     1
CC0000032797423A202100000027836500000027836506/12/20211709    3190333624042196419000000100600000223090000000000000                                                                      AGUJA DESECHABLE 18G X 1 1/2 PSIN     2
CC0000032797423A202100000027836500000027836506/12/20211709    3190333624042196419000011082700001620070000000000000                                                               EQUIPO SET PRIMARIO C/CLAVE REF 14001BOL     1
CC0000032797423A202100000027836500000027836506/12/20211709    3190333624042196419000024674500000322810000000000000                                                                   JERINGA DESECHABLE 20 ml 21*1 1/2SIN     1
CC0000032797423A202100000027836500000027836506/12/20211709    3190333624042196419000024674000001138340000000000000   JERINGA 3PARTES C/A 10ML REF JEHL005 CAJ X 100 ALFASAFE  21GX1 PULG 1/2 PULG BN EXENTO-DC.417/202PZA     6
CC0000032797423A202100000027836500000027836506/12/20211709    3190333624042196419000024673600000222980000000000000                                                                     JERINGA DESECHABLE 5 ml 27*11/2SIN     2
CC0000032797423A202100000027836500000027836506/12/20211709    3190333624042196419000024673000001411210000000000000                                                                  JERINGA DESECHABLE 3 ML 21 X 1 1/2SOB     2
CC0000032797423A202100000027836500000027836506/12/20211709    3190333624042196419000030161400001459220000000000000                                                                       MANGUERA SUCCION 6 MM*3.1 MTSSOB     1
CC0000032797423A202100000027836500000027836506/12/20211709    3190333624042196419000011073300001096420000000000000                                                                BOLSA DE SUCCION DE FLUIDOS x 2500mLBOL     1
CC0000032797423A202100000027836500000027836506/12/20211709    3190333624042196419000053074400000607910000000000000                                                               GASA ESTERIL 10*10 SOBRE X 3 UNIDADESSOB     7
CC0000032797423A202100000027836500000027836506/12/20211709    3190333624042196419000039175000001072050000000000000                                                                           TUBO ENDOTRAQUEAL C/B 7.0SOB     1
