CC0000022370634H202100000556631800000556631806/12/20212119     3300004237421964250000C09C0100001316940000000000000                                                                               DIOVAN TAB 160 MG /R/TAB     1
CC0000022370634H202100000556631800000556631806/12/20211504     3300009237421964250000N02B1100001464120000000000000                                           PARACETAMOL EP 1000MG/100ML(10MG/ML) SOL INY  CAJ X 10FCOVAL     3
CC0000022370634H202100000556631800000556631806/12/20211503     3300009237421964250000N02B1100001464120000000000000                                           PARACETAMOL EP 1000MG/100ML(10MG/ML) SOL INY  CAJ X 10FCOVAL     1
