RC0001048086046A202100000027834300000027834306/12/20211012    3190333624042196419000039173600001072110000000000000                                                                           TUBO ENDOTRAQUEAL S/B 2.5SOB     1
RC0001048086046A202100000027834300000027834306/12/20211012    31903336240421964190000R3BB0300000512920000000000000                                                                        BERODUAL SLN INH X 20 ML /R/FCO     1
RC0001048086046A202100000027834300000027834306/12/20211012    3190333624042196419000035801900001101780000000000000                                                                    NEBULIZADOR C/MASCARA PEDIATRICOSOB     1
RC0001048086046A202100000027834300000027834306/12/20211012    31903336240421964190000N02B1100001464120000000000000                                           PARACETAMOL EP 1000MG/100ML(10MG/ML) SOL INY  CAJ X 10FCOVAL     1
RC0001048086046A202100000027834300000027834306/12/20211012    3190333624042196419000039173700001618470000000000000                                                                           TUBO ENDOTRAQUEAL S/B 3.0SOB     1
RC0001048086046A202100000027834300000027834306/12/20211012    31903336240421964190000Q1A13500001585200000000000000                        JERINGA PUNTA CAT SIN AGUJA REF 309620 CAJ X 40   50ML BN EXENTO-DC.417/2020SOB     1
RC0001048086046A202100000027834300000027834306/12/20211012    3190333624042196419000038568600000256960000000000000                                                                                   SONDA NELATON #14SIN     1
RC0001048086046A202100000027834300000027834306/12/20211012    3190333624042196419000038568500000256950000000000000                                                                                   SONDA NELATON #12SIN     1
RC0001048086046A202100000027834300000027834306/12/20211012    3190333624042196419000038569900001124970000000000000                                                                              SONDA FOLEY #14 2 VIASSOB     1
RC0001048086046A202100000027834300000027834306/12/20211012    3190333624042196419000011078700000231410000000000000                                                             COTONOIDE REF 801400 DE 1.27CM X 1.27CMSOB     1
RC0001048086046A202100000027834300000027834306/12/20211012    31903336240421964190000E1AB0500003888400000000000000                                                              SOLUCION SALINA 0.9% SLN INY X 1000 MLBOL     1
RC0001048086046A202100000027834300000027834306/12/20211012    31903336240421964190000E1BA0100000198890000000000000                                                                   AGUA ESTERIL USP SLN INY X 500 MLBIN     2
RC0001048086046A202100000027834300000027834306/12/20211012    31903336240421964190000M3AC0600000720540000000000000                                                                         ESMERON SLN INY 50 MG /5 MLVAL     1
RC0001048086046A202100000027834300000027834306/12/20211012    3190333624042196419000039174000001618500000000000000                                                                           TUBO ENDOTRAQUEAL S/B 4.5SOB     1
RC0001048086046A202100000027834300000027834306/12/20211012    3190333624042196419000022425200000548240000000000000                       EXTENSION DE ANESTESIA REF 1139 SOB X 1 SHERLEG  ADULTO BN EXENTO-DC.417/2020SIN     1
RC0001048086046A202100000027834300000027834306/12/20211012    3190333624042196419000035356500003919000000000000000                                                                                        LLAVE 3 VIASSOB     1
RC0001048086046A202100000027834300000027834306/12/20211012    3190333624042196419000024674000001138340000000000000   JERINGA 3PARTES C/A 10ML REF JEHL005 CAJ X 100 ALFASAFE  21GX1 PULG 1/2 PULG BN EXENTO-DC.417/202PZA     5
RC0001048086046A202100000027834300000027834306/12/20211012    3190333624042196419000022425100001392880000000000000             EQUIPO MICROGOTEO SIN AGUJA REF 201000 PAQ X 100 SOB GOTHAPLAST   BN EXENTO-DC.417/2020BOL     1
RC0001048086046A202100000027834300000027834306/12/20211012    3190333624042196419000000602600001259280000000000000                                                             APOSITO TEGADERM IV PD 1610 5CM X 5.7CMSOB     1
RC0001048086046A202100000027834300000027834306/12/20211012    31903336240421964190000J01DA300001239950000000000000                                                            CEFAZOLINA SODICA POLVO LIOF SLN INY 1 GVAL     1
RC0001048086046A202100000027834300000027834306/12/20211012    3190333624042196419000011073300001096420000000000000                                                                BOLSA DE SUCCION DE FLUIDOS x 2500mLBOL     1
RC0001048086046A202100000027834300000027834306/12/20211012    3190333624042196419000011082700001620070000000000000                                                               EQUIPO SET PRIMARIO C/CLAVE REF 14001BOL     1
RC0001048086046A202100000027834300000027834306/12/20211012    3190333624042196419000011047900000223010000000000000                                                                            JERINGA X 1ML REF 302579SIN     1
RC0001048086046A202100000027834300000027834306/12/20211012    3190333624042196419000024673000001411210000000000000                                                                  JERINGA DESECHABLE 3 ML 21 X 1 1/2SOB     1
RC0001048086046A202100000027834300000027834306/12/20211012    3190333624042196419000024673600000222980000000000000                                                                     JERINGA DESECHABLE 5 ml 27*11/2SIN     2
RC0001048086046A202100000027834300000027834306/12/20211012    3190333624042196419000024674500000322810000000000000                                                                   JERINGA DESECHABLE 20 ml 21*1 1/2SIN     1
RC0001048086046A202100000027834300000027834306/12/20211012    3190333624042196419000053074400000607910000000000000                                                               GASA ESTERIL 10*10 SOBRE X 3 UNIDADESSOB     3
RC0001048086046A202100000027834300000027834306/12/20211012    3190333624042196419000011085300001082140000000000000                                                                           GUANTE QUIRURGICO TALLA 8SOB     1
RC0001048086046A202100000027834300000027834306/12/20211012    3190333624042196419000011085200001585390000000000000                                                                       GUANTE QUIRURGICO TALLA 7 1/2SOB     3
RC0001048086046A202100000027834300000027834306/12/20211012    3190333624042196419000043485100001618510000000000000                GUANTE QUIRURGICO DE LATEX REF 2D72N65X CAJ X 50 PROTEXIS  6.5 BN EXENTO-DC.417/2020SOB     3
RC0001048086046A202100000027834300000027834306/12/20211012    3190333624042196419000038576600000256740000000000000                                                                        SONDA ASPIRACION CONTROL #12SIN     1
RC0001048086046A202100000027834300000027834306/12/20211012    3190333624042196419000039174500001679380000000000000                                                                           TUBO ENDOTRAQUEAL C/B 4.5SOB     1
RC0001048086046A202100000027834300000027834306/12/20211012    3190333624042196419000051515200000598130000000000000                                                                            MASCARILLA ANESTESIA # 2SIN     1
RC0001048086046A202100000027834300000027834306/12/20211012    3190333624042196419000011099300000777780000000000000                                                                     FILTRO BACTERIANO VIRICO ADULTOBOL     1
RC0001048086046A202100000027834300000027834306/12/20211012    31903336240421964190000E1AB0300003888390000000000000                                                            SOLUCION SALINA 0.9% SLN INY BO X 500 MLBOL     2
RC0001048086046A202100000027834300000027834306/12/20211012    31903336240421964190000E1AB0700003888350000000000000                                                            SOLUCION SALINA 0.9% SLN INY BO X 250 MLBOL     2
RC0001048086046A202100000027834300000027834306/12/20211012    31903336240421964190000E1AB0200000199290000000000000                                                            SOLUCION SALINA 0.9% SLN INY BO X 100 MLBIN     2
RC0001048086046A202100000027834300000027834306/12/20211012    31903336240421964190000S2BA0100000468160000000000000                                                                          SOLU-CORTEF SNL INY 100 MGVAL     1
RC0001048086046A202100000027834300000027834306/12/20211012    31903336240421964190000H02AB500001664950000000000000                                                            DEXAMETASONA SLN INY 8 MG/2 ML AMP /CDS/AMP     1
RC0001048086046A202100000027834300000027834306/12/20211012    31903336240421964190000A3BA0100001109400000000000000                                                                          ATROPINA SLN INY 1 MG / MLAMP     1
RC0001048086046A202100000027834300000027834306/12/20211012    31903336240421964190000N1AH0200003906560000000000000                                                                     FENTANIL Iny 0.05 mg/ml x 10 mlAMP     1
RC0001048086046A202100000027834300000027834306/12/20211012    31903336240421964190000N2AA0700001587170000000000000                                                                                 ULTIVA Sln Iny 2 mgVAL     1
RC0001048086046A202100000027834300000027834306/12/20211012    3190333624042196419000011139800001148480000000000000                                                            GUIA UROL ZEBRA STRAIGHT TIP REF 670-112PZA     1
