CC0001045685077H202100000556624700000556624706/12/20211813    31903254237421964250000E1AB0300003888390000000000000                                                            SOLUCION SALINA 0.9% SLN INY BO X 500 MLBOL     2
CC0001045685077H202100000556624700000556624706/12/20211013     3300009237421964250000J01D1300001469600000000000000                                                                               POZINEG POLVO INY 1 GVAL     6
CC0001045685077H202100000556624700000556624706/12/20211013     3300009237421964250000J01FF200003888100000000000000                                                                             EUROCLIN SLN INY 600 MGAMP     1
CC0001045685077H202100000556624700000556624706/12/20211623     3300009237421964250000N2BB1100000217160000000000000                                                                      NOVALGINA Sln Iny 2.5 g x 5 mlAMP     1
CC0001045685077H202100000556624700000556624706/12/20211013     3300009237421964250000N2BB1100000217160000000000000                                                                      NOVALGINA Sln Iny 2.5 g x 5 mlAMP     3
CC0001045685077H202100000556624700000556624706/12/20211013     3300009237421964250000N02B1100001464120000000000000                                           PARACETAMOL EP 1000MG/100ML(10MG/ML) SOL INY  CAJ X 10FCOVAL     3
