TI0001120743274A202100000027833500000027833506/12/20210838    3190333624042196419000011331000001106800000000000000                                                                    CANULA COAGULACION SUCCION E3310SOB     1
TI0001120743274A202100000027833500000027833506/12/20210838    3190333624042196419000019490800000233140000000000000                                                                        VICRYL 4-0 INC 70 SC20 J122HSIN     1
TI0001120743274A202100000027833500000027833506/12/20210838    3190333624042196419000011019000000231900000000000000                                                                         CATGUT CROMADO 4-0 SH G121TSIN     1
TI0001120743274A202100000027833500000027833506/12/20210838    31903336240421964190000E1BA0100000198890000000000000                                                                   AGUA ESTERIL USP SLN INY X 500 MLBIN     1
TI0001120743274A202100000027833500000027833506/12/20210838    31903336240421964190000Q1AA6900000531340000000000000                                                            CATETER PERIFE INTROCAN # 14G 4251890-04SIN     1
TI0001120743274A202100000027833500000027833506/12/20210838    3190333624042196419000000101000001101640000000000000                                                                  AGUJA DESECHABLE  23G X 1 1/2 PULGSOB     1
TI0001120743274A202100000027833500000027833506/12/20210838    3190333624042196419000030161400001459220000000000000                                                                       MANGUERA SUCCION 6 MM*3.1 MTSSOB     1
TI0001120743274A202100000027833500000027833506/12/20210838    31903336240421964190000S1GA0800000858210000000000000                                                                       AFRIN 0.05% SLN NASAL X 15 MLFCO     1
TI0001120743274A202100000027833500000027833506/12/20210838    31903336240421964190000N01B1200000220020000000000000                                                                        ROXICAINA 1% C/E Iny x 20 mlFCO     1
TI0001120743274A202100000027833500000027833506/12/20210838    3190333624042196419000043879100001138200000000000000                                                                  HOJA BISTURI # 15 CSSB 15 01002003SOB     1
TI0001120743274A202100000027833500000027833506/12/20210838    31903336240421964190000E1AB0300003888390000000000000                                                            SOLUCION SALINA 0.9% SLN INY BO X 500 MLBOL     1
TI0001120743274A202100000027833500000027833506/12/20210838    3190333624042196419000022425200000548240000000000000                       EXTENSION DE ANESTESIA REF 1139 SOB X 1 SHERLEG  ADULTO BN EXENTO-DC.417/2020SIN     1
TI0001120743274A202100000027833500000027833506/12/20210838    3190333624042196419000035356500003919000000000000000                                                                                        LLAVE 3 VIASSOB     2
TI0001120743274A202100000027833500000027833506/12/20210838    31903336240421964190000Q1AA7100000610620000000000000                                                            CATETER PERIFE INTROCAN # 18G 4251687-04SIN     1
TI0001120743274A202100000027833500000027833506/12/20210838    3190333624042196419000022426800001140510000000000000                                                                    EQUIPO MACROGOTEO BAXTER MRC0001SOB     1
TI0001120743274A202100000027833500000027833506/12/20210838    3190333624042196419000016830000000970620000000000000                                                             SIST FIJACION CAT PERIFERICO 6.5X7 1683SOB     1
TI0001120743274A202100000027833500000027833506/12/20210838    31903336240421964190000J01DA300001239950000000000000                                                            CEFAZOLINA SODICA POLVO LIOF SLN INY 1 GVAL     2
TI0001120743274A202100000027833500000027833506/12/20210838    3190333624042196419000020750600000296780000000000000                                                                PLACA ELECTRO RETORNO PACIENTE E7506SIN     1
TI0001120743274A202100000027833500000027833506/12/20210838    3190333624042196419000011082700001620070000000000000                                                               EQUIPO SET PRIMARIO C/CLAVE REF 14001BOL     1
TI0001120743274A202100000027833500000027833506/12/20210838    3190333624042196419000053074400000607910000000000000                                                               GASA ESTERIL 10*10 SOBRE X 3 UNIDADESSOB     5
TI0001120743274A202100000027833500000027833506/12/20210838    3190333624042196419000011085200001585390000000000000                                                                       GUANTE QUIRURGICO TALLA 7 1/2SOB     1
TI0001120743274A202100000027833500000027833506/12/20210838    3190333624042196419000043485100001618510000000000000                GUANTE QUIRURGICO DE LATEX REF 2D72N65X CAJ X 50 PROTEXIS  6.5 BN EXENTO-DC.417/2020SOB     3
TI0001120743274A202100000027833500000027833506/12/20210838    3190333624042196419000051515400000598150000000000000                                                                            MASCARILLA ANESTESIA # 4SIN     1
TI0001120743274A202100000027833500000027833506/12/20210838    3190333624042196419000038568100000258050000000000000                                                                         CANULA OXIGENO NASAL ADULTOSIN     1
TI0001120743274A202100000027833500000027833506/12/20210838    3190333624042196419000011099300000777780000000000000                                                                     FILTRO BACTERIANO VIRICO ADULTOBOL     1
TI0001120743274A202100000027833500000027833506/12/20210838    3190333624042196419000020056600001101530000000000000                                                                AGUJA HIPODERMICA DESECH 18G X 1 1/2SOB     1
TI0001120743274A202100000027833500000027833506/12/20210838    3190333624042196419000039174900001072040000000000000                                                                           TUBO ENDOTRAQUEAL C/B 6.5SOB     1
TI0001120743274A202100000027833500000027833506/12/20210838    3190333624042196419000024673000001411210000000000000                                                                  JERINGA DESECHABLE 3 ML 21 X 1 1/2SOB     1
TI0001120743274A202100000027833500000027833506/12/20210838    3190333624042196419000024673600000222980000000000000                                                                     JERINGA DESECHABLE 5 ml 27*11/2SIN     1
TI0001120743274A202100000027833500000027833506/12/20210838    3190333624042196419000024674000001138340000000000000   JERINGA 3PARTES C/A 10ML REF JEHL005 CAJ X 100 ALFASAFE  21GX1 PULG 1/2 PULG BN EXENTO-DC.417/202PZA     4
TI0001120743274A202100000027833500000027833506/12/20210838    3190333624042196419000024674500000322810000000000000                                                                   JERINGA DESECHABLE 20 ml 21*1 1/2SIN     2
TI0001120743274A202100000027833500000027833506/12/20210838    31903336240421964190000E1AD0200003888320000000000000                                                                              HARTMAN SLN INY 500 MLBOL     1
TI0001120743274A202100000027833500000027833506/12/20210838    31903336240421964190000E1AB0700003888350000000000000                                                            SOLUCION SALINA 0.9% SLN INY BO X 250 MLBOL     1
TI0001120743274A202100000027833500000027833506/12/20210838    31903336240421964190000E1AB0200000199290000000000000                                                            SOLUCION SALINA 0.9% SLN INY BO X 100 MLBIN     1
TI0001120743274A202100000027833500000027833506/12/20210838    31903336240421964190000A3BB0200000512940000000000000                                                                          BUSCAPINA SIMPLE Iny 20 mgAMP     1
TI0001120743274A202100000027833500000027833506/12/20210838    31903336240421964190000A2BC0900000200150000000000000                                                                               ORAZOLE Sln Iny 40 mgCIN     1
TI0001120743274A202100000027833500000027833506/12/20210838    31903336240421964190000M1AX0200001569410000000000000                                                                         KETRON SLN INY 30 MG / 2 MLAMP     1
TI0001120743274A202100000027833500000027833506/12/20210838    31903336240421964190000N01A0400003939010000000000000                                               MAYOPROFOL 200MG/20ML(1%) EMUL INY CAJ X 1VIAL X 20MLVAL     1
TI0001120743274A202100000027833500000027833506/12/20210838    31903336240421964190000M01A0400001341250000000000000                                                                              DYNASTAT AMP 40 MG /R/VAL     1
TI0001120743274A202100000027833500000027833506/12/20210838    31903336240421964190000N2BB1100000217160000000000000                                                                      NOVALGINA Sln Iny 2.5 g x 5 mlAMP     1
TI0001120743274A202100000027833500000027833506/12/20210838    31903336240421964190000A4AD0200000202990000000000000                                                                     PLITICAN HCL Sln Iny 50 mg/2 mlAMP     1
TI0001120743274A202100000027833500000027833506/12/20210838    31903336240421964190000H02AB500001664950000000000000                                                            DEXAMETASONA SLN INY 8 MG/2 ML AMP /CDS/AMP     1
TI0001120743274A202100000027833500000027833506/12/20210838    31903336240421964190000N1BA2400001687720000000000000                                                    LIDOCAINA 2% SOL INY  CAJ X 50AMP X 10ML CORPAULAMP     1
TI0001120743274A202100000027833500000027833506/12/20210838    31903336240421964190000M3AC0600000720540000000000000                                                                         ESMERON SLN INY 50 MG /5 MLVAL     1
TI0001120743274A202100000027833500000027833506/12/20210838    31903336240421964190000N2AA0100000301640000000000000                                                                            MORFINA Sln Iny 10 mg/mlAMP     1
TI0001120743274A202100000027833500000027833506/12/20210838    31903336240421964190000N2AA0700001587170000000000000                                                                                 ULTIVA Sln Iny 2 mgVAL     1
