CC0000003696833U202100050131934700050131934706/12/20210708    3190232723942196432000022426800001140510000000000000                                                                    EQUIPO MACROGOTEO BAXTER MRC0001SOB     1
CC0000003696833U202100050131934700050131934706/12/20210708    3190232723942196432000001956000001620610000000000000                                                                      CONECTOR MICRO CLAVE LAT-MC100SOB     1
CC0000003696833U202100050131934700050131934706/12/20210708    31902327239421964320000Q1AA7300000610640000000000000                                                            CATETER PERIFE INTROCAN # 22G 4251628-04SIN     1
CC0000003696833U202100050131934700050131934706/12/20210708    3190232723942196432000016830000000970620000000000000                                                             SIST FIJACION CAT PERIFERICO 6.5X7 1683SOB     1
