CC0001002134630H202100015042537000015042537006/12/20210752    3190148423742196425000024674500000322810000000000000                                                                   JERINGA DESECHABLE 20 ml 21*1 1/2SIN     6
CC0001002134630H202100015042537000015042537006/12/20210752    3190148423742196425000024674000001138340000000000000   JERINGA 3PARTES C/A 10ML REF JEHL005 CAJ X 100 ALFASAFE  21GX1 PULG 1/2 PULG BN EXENTO-DC.417/202PZA     3
CC0001002134630H202100015042537000015042537006/12/20210752    3190148423742196425000043485100001618510000000000000                GUANTE QUIRURGICO DE LATEX REF 2D72N65X CAJ X 50 PROTEXIS  6.5 BN EXENTO-DC.417/2020SOB     3
CC0001002134630H202100015042537000015042537006/12/20210752    3190148423742196425000013077800000471960000000000000                                                             GASA NO TEJIDA EST 7.5 X 7.5 SOB X 3 UNSOB    10
CC0001002134630H202100015042537000015042537006/12/20210752    3190148423742196425000000100300000530750000000000000                                                            AGUJA BIOPSIA  OSEA  DBMNJ0804TL  8G X 4SIN     1
CC0001002134630H202100015042537000015042537006/12/20210752    31901484237421964250000Q1AA3500001166520000000000000                                                            AGUJA ASPIRADO MEDULA 16 X 2.5 DBMNI1601PZA     1
CC0001002134630H202100015042537000015042537006/12/20210752    31901484237421964250000N1BA2400001687720000000000000                                                    LIDOCAINA 2% SOL INY  CAJ X 50AMP X 10ML CORPAULAMP     2
