CC0000022438763H202100000556629800000556629806/12/20211233    31500645237421964250000J01XA400001212420000000000000                                                               VANCOMICINA POLVO LIOF SLN INY 500 MGVAL     1
CC0000022438763H202100000556629800000556629806/12/20211214    31500645237421964250000J01XA400001212420000000000000                                                               VANCOMICINA POLVO LIOF SLN INY 500 MGVAL     2
CC0000022438763H202100000556629800000556629806/12/20211214    31500645237421964250000J01DD500001239970000000000000                                                                  CEFTRIAXONA POLVO LIOF SLN INY 1 GVAL     2
CC0000022438763H202100000556629800000556629806/12/20211214    31500645237421964250000J3CA0300001673190000000000000                               METRONIDAZOL 500MG/100ML(5MG/ML) SOL INY  CAJ X 84BOL X 100ML CORPAULBOL     2
