CC0000032792102A202100000027837100000027837106/12/20211818    3190333624042196419000011110600000231980000000000000                                                                       CERA HUESOS 25GM ESTERIL W31GSIN     1
CC0000032792102A202100000027837100000027837106/12/20211818    31903336240421964190000N02B1100001464120000000000000                                           PARACETAMOL EP 1000MG/100ML(10MG/ML) SOL INY  CAJ X 10FCOVAL     1
CC0000032792102A202100000027837100000027837106/12/20211818    3190333624042196419000019429700000427120000000000000                                                                                      VENDA YESO 4*5BIN     2
CC0000032792102A202100000027837100000027837106/12/20211818    31903336240421964190000J01FF200003888100000000000000                                                                             EUROCLIN SLN INY 600 MGAMP     1
CC0000032792102A202100000027837100000027837106/12/20211818    3190333624042196419000011857700001096350000000000000                                                              AGUJA SONOPLEX BLOQUEO 21*100 01185-77BOL     1
CC0000032792102A202100000027837100000027837106/12/20211818    3190333624042196419000049419600001679900000000000000                                                                        VENDA ALGODON 4*5 NO ESTERILSOB     1
CC0000032792102A202100000027837100000027837106/12/20211818    3190333624042196419000017574600000232670000000000000                                                                               PROLENE 4-0 2RB1 9557SIN     1
CC0000032792102A202100000027837100000027837106/12/20211818    3190333624042196419000018630000000358130000000000000                                                                   DURAPREP Sln YODO APLICADOR 26 MLFCO     1
CC0000032792102A202100000027837100000027837106/12/20211818    3190333624042196419000045138000001413890000000000000                                                                       LAPIZ ELECTROBISTURI  SOB X 1SOB     1
CC0000032792102A202100000027837100000027837106/12/20211818    3190333624042196419000049419500001679890000000000000                                                                        VENDA ALGODON 3*5 NO ESTERILSOB     1
CC0000032792102A202100000027837100000027837106/12/20211818    3190333624042196419000049428300000860750000000000000                                                                       VENDA ELASTICA 4*5 NO ESTERILBOL     3
CC0000032792102A202100000027837100000027837106/12/20211818    3190333624042196419000040511500000258400000000000000                                                               APOSITO BACTIGRAS REF 7456  5CM X 5CMSIN     1
CC0000032792102A202100000027837100000027837106/12/20211818    3190333624042196419000019489000000599330000000000000                                                                           VICRYL 4-0 RB1 70 VCP304HSIN     1
CC0000032792102A202100000027837100000027837106/12/20211818    3190333624042196419000043879100001138200000000000000                                                                  HOJA BISTURI # 15 CSSB 15 01002003SOB     2
CC0000032792102A202100000027837100000027837106/12/20211818    31903336240421964190000E1AB0300003888390000000000000                                                            SOLUCION SALINA 0.9% SLN INY BO X 500 MLBOL     1
CC0000032792102A202100000027837100000027837106/12/20211818    3190333624042196419000022425200000548240000000000000                       EXTENSION DE ANESTESIA REF 1139 SOB X 1 SHERLEG  ADULTO BN EXENTO-DC.417/2020SIN     1
CC0000032792102A202100000027837100000027837106/12/20211818    3190333624042196419000035356500003919000000000000000                                                                                        LLAVE 3 VIASSOB     1
CC0000032792102A202100000027837100000027837106/12/20211818    31903336240421964190000Q1AA7100000610620000000000000                                                            CATETER PERIFE INTROCAN # 18G 4251687-04SIN     1
CC0000032792102A202100000027837100000027837106/12/20211818    3190333624042196419000022426800001140510000000000000                                                                    EQUIPO MACROGOTEO BAXTER MRC0001SOB     1
CC0000032792102A202100000027837100000027837106/12/20211818    3190333624042196419000016830000000970620000000000000                                                             SIST FIJACION CAT PERIFERICO 6.5X7 1683SOB     1
CC0000032792102A202100000027837100000027837106/12/20211818    3190333624042196419000038568100000258050000000000000                                                                         CANULA OXIGENO NASAL ADULTOSIN     1
CC0000032792102A202100000027837100000027837106/12/20211818    3190333624042196419000020750600000296780000000000000                                                                PLACA ELECTRO RETORNO PACIENTE E7506SIN     1
CC0000032792102A202100000027837100000027837106/12/20211818    3190333624042196419000053074400000607910000000000000                                                               GASA ESTERIL 10*10 SOBRE X 3 UNIDADESSOB     3
CC0000032792102A202100000027837100000027837106/12/20211818    3190333624042196419000011085300001082140000000000000                                                                           GUANTE QUIRURGICO TALLA 8SOB     2
CC0000032792102A202100000027837100000027837106/12/20211818    3190333624042196419000043485100001618510000000000000                GUANTE QUIRURGICO DE LATEX REF 2D72N65X CAJ X 50 PROTEXIS  6.5 BN EXENTO-DC.417/2020SOB     1
CC0000032792102A202100000027837100000027837106/12/20211818    3190333624042196419000024674000001138340000000000000   JERINGA 3PARTES C/A 10ML REF JEHL005 CAJ X 100 ALFASAFE  21GX1 PULG 1/2 PULG BN EXENTO-DC.417/202PZA     3
CC0000032792102A202100000027837100000027837106/12/20211818    3190333624042196419000024674500000322810000000000000                                                                   JERINGA DESECHABLE 20 ml 21*1 1/2SIN     2
CC0000032792102A202100000027837100000027837106/12/20211818    31903336240421964190000Q1A13800003907920000000000000AGUJA HOPODERMICA DESECHABLE REF 305111 CAJ X 100 BD PRECISION GLIDE 26G X 1/2PULG BN EXENTO-DC.417/SOB     1
CC0000032792102A202100000027837100000027837106/12/20211818    3190333624042196419000020058100001101630000000000000                                                                     AGUJA HIPODERMICA DESECH 23 X 1SOB     1
CC0000032792102A202100000027837100000027837106/12/20211818    3190333624042196419000000100600000223090000000000000                                                                      AGUJA DESECHABLE 18G X 1 1/2 PSIN     1
CC0000032792102A202100000027837100000027837106/12/20211818    31903336240421964190000E1AD0200003888320000000000000                                                                              HARTMAN SLN INY 500 MLBOL     1
CC0000032792102A202100000027837100000027837106/12/20211818    31903336240421964190000H02AB500001664950000000000000                                                            DEXAMETASONA SLN INY 8 MG/2 ML AMP /CDS/AMP     1
CC0000032792102A202100000027837100000027837106/12/20211818    31903336240421964190000N01B1300001195250000000000000                                                                         BUPIROP 0.5% S/EPIN X 10 MLAMP     2
CC0000032792102A202100000027837100000027837106/12/20211818    31903336240421964190000N01B0200003888110000000000000                                           ROXICAINA SE 100MG/10ML(1%) SOL INY CAJ X 24AMPACK X 10MLAPC     2
