CC0000008633435H202100015032650000015032650006/12/20211120    3190093323742196425000022426800001140510000000000000                                                                    EQUIPO MACROGOTEO BAXTER MRC0001SOB     1
CC0001072673583H202100015032650000015032650006/12/20211120    3190093323742196425000022426800001140510000000000000                                                                    EQUIPO MACROGOTEO BAXTER MRC0001SOB     1
CC0000022370634H202100015032650000015032650006/12/20211120    3190093323742196425000022426800001140510000000000000                                                                    EQUIPO MACROGOTEO BAXTER MRC0001SOB     1
CC0000008633435H202100015032650000015032650006/12/20211120    3190093323742196425000030936900001431840000000000000                                                                                              BURETABOL     1
CC0001072673583H202100015032650000015032650006/12/20211120    3190093323742196425000030936900001431840000000000000                                                                                              BURETABOL     1
CC0000022370634H202100015032650000015032650006/12/20211120    3190093323742196425000030936900001431840000000000000                                                                                              BURETABOL     1
CC0000008633435H202100015032650000015032650006/12/20211120    31900933237421964250000E1BA0700000198910000000000000                                                                   UROMATIC Sln IRRIGACION X 3000 MLBIN     3
