TI0001034284114U202100050131933200050131933206/12/20210201    3190319023942196432000024673600000222980000000000000                                                                     JERINGA DESECHABLE 5 ml 27*11/2SIN     3
TI0001034284114U202100050131933200050131933206/12/20210201    3190319023942196432000011082700001620070000000000000                                                               EQUIPO SET PRIMARIO C/CLAVE REF 14001BOL     1
TI0001034284114U202100050131933200050131933206/12/20210201    3190319023942196432000001956000001620610000000000000                                                                      CONECTOR MICRO CLAVE LAT-MC100SOB     1
TI0001034284114U202100050131933200050131933206/12/20210201    31903190239421964320000Q1AA7200000610630000000000000                                                            CATETER PERIFE INTROCAN # 20G 4251644-04SIN     1
TI0001034284114U202100050131933200050131933206/12/20210201    3190319023942196432000030936900001431840000000000000                                                                                              BURETABOL     1
TI0001034284114U202100050131933200050131933206/12/20210201    3190319023942196432000016830000000970620000000000000                                                             SIST FIJACION CAT PERIFERICO 6.5X7 1683SOB     1
