CC0001151478323H202100015042537100015042537106/12/20211157    3150029523742196425000001956000001620610000000000000                                                                      CONECTOR MICRO CLAVE LAT-MC100SOB     1
CC0001151478323H202100015042537100015042537106/12/20211157    31500295237421964250000Q1AA7400003911720000000000000                                                            CATETER PERIFE INTROCAN # 24G 4251601-04SOB     2
CC0001151478323H202100015042537100015042537106/12/20211157    3150029523742196425000016830000000970620000000000000                                                             SIST FIJACION CAT PERIFERICO 6.5X7 1683SOB     1
