CC0000022438763H202100000556608800000556608806/12/20211348    31500245237421964250000E1AB0200000199290000000000000                                                            SOLUCION SALINA 0.9% SLN INY BO X 100 MLBIN     1
CC0000022438763H202100000556608800000556608806/12/20212259    31500452237421964250000E1AD0300000199490000000000000                                         LACTATO RINGER USP (HARTMANN)  SOL INY  BOL X 1000ML BAXTERBIN     1
CC0000022438763H202100000556608800000556608806/12/20210031    31903184237421964250000E1AD0300000199490000000000000                                         LACTATO RINGER USP (HARTMANN)  SOL INY  BOL X 1000ML BAXTERBIN     1
CC0000022438763H202100000556608800000556608806/12/20210901     3300003237421964250000J01XA400001212420000000000000                                                               VANCOMICINA POLVO LIOF SLN INY 500 MGVAL     2
CC0000022438763H202100000556608800000556608806/12/20210901     3300003237421964250000A11A2200001050880000000000000                                                                 GLUCERNA LIQUIDO 1.5 KCAL X 1000 MLFCO     1
CC0000022438763H202100000556608800000556608806/12/20211448     3300009237421964250000J01D1200001239960000000000000                                                                              CEFEPIME POLVO INY 1 GVAL     1
CC0000022438763H202100000556608800000556608806/12/20211447     3300009237421964250000J01D1200001239960000000000000                                                                              CEFEPIME POLVO INY 1 GVAL     3
CC0000022438763H202100000556608800000556608806/12/20210901     3300003237421964250000J01DD500001239970000000000000                                                                  CEFTRIAXONA POLVO LIOF SLN INY 1 GVAL     2
CC0000022438763H202100000556608800000556608806/12/20210901     3300003237421964250000J3CA0300001673190000000000000                               METRONIDAZOL 500MG/100ML(5MG/ML) SOL INY  CAJ X 84BOL X 100ML CORPAULBOL     2
CC0000022438763H202100000556608800000556608806/12/20210901     3300003237421964250000N2AX0900001672040000000000000                                                                              TRAMADOL SLN INY 50 MGAMP     1
CC0000022438763H202100000556608800000556608806/12/20211411    31903301237421964250000V07A1300000502600000000000000                                                                                AGUA ESTERIL x 10 mlAMP     2
