MS0010053369121H202100000556616300000556616306/12/20211306     3300009237421964250000V3AB2200000614150000000000000                                                            GLUCONATO CALCIO SLN INY 10% AMP X 10 MLAPC     2
MS0010053369121H202100000556616300000556616306/12/20211129    31903117237421964250000E1AA0200000198980000000000000                                                                          DEXTROSA 5% Sln Iny 100 mlBIN     1
MS0010053369121H202100000556616300000556616306/12/20211129    31903117237421964250000E1AB0300003888390000000000000                                                            SOLUCION SALINA 0.9% SLN INY BO X 500 MLBOL     1
MS0010053369121H202100000556616300000556616306/12/20211651     3300009237421964250000A12CA200001239800000000000000                     BICARBONATO SODIO 10MEQ/10ML(1MEQ/ML) SOL INY  CAJ X 100AMPX10ML FRESENIUS KABIAMP     1
MS0010053369121H202100000556616300000556616306/12/20211306     3300009237421964250000A12CA200001239800000000000000                     BICARBONATO SODIO 10MEQ/10ML(1MEQ/ML) SOL INY  CAJ X 100AMPX10ML FRESENIUS KABIAMP     3
MS0010053369121H202100000556616300000556616306/12/20211651     3300009237421964250000A12CA100001109460000000000000                                                              CLORURO SODIO SLN INY 2 MEQ/ML X 10 MLAMP     1
MS0010053369121H202100000556616300000556616306/12/20211306     3300009237421964250000A12CA100001109460000000000000                                                              CLORURO SODIO SLN INY 2 MEQ/ML X 10 MLAMP     1
MS0010053369121H202100000556616300000556616306/12/20211306     3300009237421964250000C01CA100001395620000000000000                                                                    DOBUTAMINA SLN INY 250 MG / 5 MLVAL     1
MS0010053369121H202100000556616300000556616306/12/20210952     3300009237421964250000C01CA100001395620000000000000                                                                    DOBUTAMINA SLN INY 250 MG / 5 MLVAL     1
MS0010053369121H202100000556616300000556616306/12/20211651     3300009237421964250000J1CA0300001119820000000000000                                                                           AMPICILINA SLN INY 500 MGAMP     1
MS0010053369121H202100000556616300000556616306/12/20210836     3300009237421964250000J1CA0300001119820000000000000                                                                           AMPICILINA SLN INY 500 MGAMP     1
MS0010053369121H202100000556616300000556616306/12/20210616     3300004237421964250000J1CA0300001119820000000000000                                                                           AMPICILINA SLN INY 500 MGAMP     1
MS0010053369121H202100000556616300000556616306/12/20211306     3300009237421964250000N2AA0100000301640000000000000                                                                            MORFINA Sln Iny 10 mg/mlAMP     1
MS0010053369121H202100000556616300000556616306/12/20210952     3300009237421964250000N2AA0100000301640000000000000                                                                            MORFINA Sln Iny 10 mg/mlAMP     1
MS0010053369121H202100000556616300000556616306/12/20211845     3300003237421964250000R3CA0100001051880000000000000                                                               ADRENALINA HCL SLN INY 1 MG / ML ECARAMP     1
MS0010053369121H202100000556616300000556616306/12/20211651     3300009237421964250000R3CA0100001051880000000000000                                                               ADRENALINA HCL SLN INY 1 MG / ML ECARAMP     1
MS0010053369121H202100000556616300000556616306/12/20211129    31903117237421964250000V07A1300000502600000000000000                                                                                AGUA ESTERIL x 10 mlAMP     5
