CC0000026964456U202100050131945100050131945106/12/20212026    3190318023942196432000038570000001123500000000000000                                                                              SONDA FOLEY #16 2 VIASSOB     1
CC0000072274257U202100050131945100050131945106/12/20212026    3190318023942196432000045136100001419300000000000000                                                                            LANCETA DEXTROMETER X UNPZA     1
CC0000026964456U202100050131945100050131945106/12/20212026    3190318023942196432000024674000001138340000000000000   JERINGA 3PARTES C/A 10ML REF JEHL005 CAJ X 100 ALFASAFE  21GX1 PULG 1/2 PULG BN EXENTO-DC.417/202PZA     1
CC0000026964456U202100050131945100050131945106/12/20212026    3190318023942196432000011089100001083330000000000000                                                              GUANTE ESTERIL LATEX S/POLVO TALLA 6.5SOB     2
CC0000026964456U202100050131945100050131945106/12/20212026    3190318023942196432000031188000000236790000000000000                                                                                     CISTOFLO ADULTOSIN     1
CC0000026964456U202100050131945100050131945106/12/20212026    31903180239421964320000E1AB1100003888280000000000000                                                                        SOLUCION SALINA 0.9% X 50 mlBOL     1
CC0000072274257U202100050131945100050131945106/12/20212026    3190318023942196432000011137100001419310000000000000                                                               TIRA GLUCOMETRIA FREESTYLE H OPTIUM .PZA     1
