PA0000000791469H202100000556623100000556623106/12/20210948     3300009237421964250000A2BC0900000200150000000000000                                                                               ORAZOLE Sln Iny 40 mgCIN     1
PA0000000791469H202100000556623100000556623106/12/20210948     3300009237421964250000A4AD0200000202990000000000000                                                                     PLITICAN HCL Sln Iny 50 mg/2 mlAMP     4
PA0000000791469H202100000556623100000556623106/12/20210929    31901015237421964250000A4AD0200000202990000000000000                                                                     PLITICAN HCL Sln Iny 50 mg/2 mlAMP     2
PA0000000791469H202100000556623100000556623106/12/20210949     3300009237421964250000J1CB1800001134180000000000000                                                                             TAZOCIN Polvo Iny 4.5 gVAL     3
PA0000000791469H202100000556623100000556623106/12/20210929    31901015237421964250000J1CB1800001134180000000000000                                                                             TAZOCIN Polvo Iny 4.5 gVAL     1
PA0000000791469H202100000556623100000556623106/12/20210949     3300009237421964250000N02B1100001464120000000000000                                           PARACETAMOL EP 1000MG/100ML(10MG/ML) SOL INY  CAJ X 10FCOVAL     3
PA0000000791469H202100000556623100000556623106/12/20210929    31901015237421964250000N02B1100001464120000000000000                                           PARACETAMOL EP 1000MG/100ML(10MG/ML) SOL INY  CAJ X 10FCOVAL     1
PA0000000791469H202100000556623100000556623106/12/20210948     3300009237421964250000A3BB0300000512950000000000000                                                             BUSCAPINA COMP Sln Iny 20 mg+2.5 g/5 mlAMP     3
PA0000000791469H202100000556623100000556623106/12/20210929    31901015237421964250000A3BB0300000512950000000000000                                                             BUSCAPINA COMP Sln Iny 20 mg+2.5 g/5 mlAMP     1
PA0000000791469H202100000556623100000556623106/12/20210949     3300009237421964250000N05A0500001336370000000000000                                                                              SEROQUEL TAB 25 MG /R/TAB     1
