RC0001063188076H202100000556617900000556617906/12/20211147    31500343237421964250000E1AC0100000199400000000000000                                                                          SUERO MIXTO Sln Iny 500 mlBIN     1
RC0001063188076H202100000556617900000556617906/12/20211829     3300009237421964250000C03D0200001334290000000000000                                                                           ESPIRONOLACTONA TAB 25 MGTAB     1
RC0001063188076H202100000556617900000556617906/12/20211436     3300009237421964250000C03C0100001672000000000000000                                                                       FUROSEMIDA SLN INY 20 MG/2 MLAMP     1
RC0001063188076H202100000556617900000556617906/12/20211042     3300009237421964250000C03C0100001672000000000000000                                                                       FUROSEMIDA SLN INY 20 MG/2 MLAMP     1
RC0001063188076H202100000556617900000556617906/12/20211829     3300009237421964250000C09AA300001353220000000000000                                                                                   ENALAPRIL TAB 5MGTAB     1
RC0001063188076H202100000556617900000556617906/12/20211041     3300009237421964250000C09AA300001353220000000000000                                                                                   ENALAPRIL TAB 5MGTAB     1
RC0001063188076H202100000556617900000556617906/12/20211436     3300009237421964250000N2BB0100001672010000000000000                                  DIPIRONA 1GR/2ML(0.5GR/ML) SOL INY INST CAJ X 100AMP X 2ML VITALISAMP     1
RC0001063188076H202100000556617900000556617906/12/20211042     3300009237421964250000N2BB0100001672010000000000000                                  DIPIRONA 1GR/2ML(0.5GR/ML) SOL INY INST CAJ X 100AMP X 2ML VITALISAMP     1
RC0001063188076H202100000556617900000556617906/12/20211041     3300009237421964250000A02BC700001684270000000000000                                                            OMEPRAZOL 40MG POLVO LIOFILIZADO AMPOLLAVAL     1
