CC0000022265715U202100050131943400050131943406/12/20211810    3150051423942196432000036441300000236540000000000000                                                                    JERINGA 1 ML GASES ARTERIAL 9023SIN     1
CC0000007413293U202100050131943400050131943406/12/20211810    3150051423942196432000036441300000236540000000000000                                                                    JERINGA 1 ML GASES ARTERIAL 9023SIN     1
CC0000091106140U202100050131943400050131943406/12/20211810    3150051423942196432000036441300000236540000000000000                                                                    JERINGA 1 ML GASES ARTERIAL 9023SIN     1
CC0000022265715U202100050131943400050131943406/12/20211810    3150051423942196432000043995200000229010000000000000                                                               HUMIDIFICADOR PARA OXIGENO REF. H001BBOL     1
CC0000007413293U202100050131943400050131943406/12/20211810    3150051423942196432000043995200000229010000000000000                                                               HUMIDIFICADOR PARA OXIGENO REF. H001BBOL     1
CC0000022265715U202100050131943400050131943406/12/20211810    3150051423942196432000038568100000258050000000000000                                                                         CANULA OXIGENO NASAL ADULTOSIN     1
CC0000007413293U202100050131943400050131943406/12/20211810    3150051423942196432000038568100000258050000000000000                                                                         CANULA OXIGENO NASAL ADULTOSIN     1
