CC0000003719048H202100015052806900015052806906/12/20212144    3190264423742196425000000800300000859980000000000000                                                                     VENDA ELASTICA 6 X 5 YARDAS ANTBOL     4
CC0000003719048H202100015052806900015052806906/12/20212144    3190264423742196425000049419800001679910000000000000                                                                        VENDA ALGODON 6*5 NO ESTERILSOB     1
CC0000003719048H202100015052806900015052806906/12/20212144    3190264423742196425000011085100001082120000000000000                                                                           GUANTE QUIRURGICO TALLA 7SOB     2
CC0000032753507H202100015052806900015052806906/12/20212144    3190264423742196425000013077800000471960000000000000                                                             GASA NO TEJIDA EST 7.5 X 7.5 SOB X 3 UNSOB     3
CC0000022438763H202100015052806900015052806906/12/20212144    3190264423742196425000013077800000471960000000000000                                                             GASA NO TEJIDA EST 7.5 X 7.5 SOB X 3 UNSOB     6
CC0000022596813H202100015052806900015052806906/12/20212144    3190264423742196425000013077800000471960000000000000                                                             GASA NO TEJIDA EST 7.5 X 7.5 SOB X 3 UNSOB     5
CC0000003719048H202100015052806900015052806906/12/20212144    3190264423742196425000013077800000471960000000000000                                                             GASA NO TEJIDA EST 7.5 X 7.5 SOB X 3 UNSOB    10
CC0000028496269H202100015052806900015052806906/12/20212144    3190264423742196425000013077800000471960000000000000                                                             GASA NO TEJIDA EST 7.5 X 7.5 SOB X 3 UNSOB     5
CC0001104008600H202100015052806900015052806906/12/20212144    3190264423742196425000013077800000471960000000000000                                                             GASA NO TEJIDA EST 7.5 X 7.5 SOB X 3 UNSOB     3
CC0000032753507H202100015052806900015052806906/12/20212144    3190264423742196425000042753100003929850000000000000                   GASA ADHESIVA STRETCH REF 02037-00 ROL X 10MT FIXOMULL 10CM BN EXENTO-DC.417/2020CMT    30
CC0000022438763H202100015052806900015052806906/12/20212144    3190264423742196425000042753100003929850000000000000                   GASA ADHESIVA STRETCH REF 02037-00 ROL X 10MT FIXOMULL 10CM BN EXENTO-DC.417/2020CMT    60
CC0000022596813H202100015052806900015052806906/12/20212144    3190264423742196425000042753100003929850000000000000                   GASA ADHESIVA STRETCH REF 02037-00 ROL X 10MT FIXOMULL 10CM BN EXENTO-DC.417/2020CMT    30
CC0000003719048H202100015052806900015052806906/12/20212144    3190264423742196425000042753100003929850000000000000                   GASA ADHESIVA STRETCH REF 02037-00 ROL X 10MT FIXOMULL 10CM BN EXENTO-DC.417/2020CMT    60
CC0000028496269H202100015052806900015052806906/12/20212144    3190264423742196425000042753100003929850000000000000                   GASA ADHESIVA STRETCH REF 02037-00 ROL X 10MT FIXOMULL 10CM BN EXENTO-DC.417/2020CMT    30
CC0001104008600H202100015052806900015052806906/12/20212144    3190264423742196425000042753100003929850000000000000                   GASA ADHESIVA STRETCH REF 02037-00 ROL X 10MT FIXOMULL 10CM BN EXENTO-DC.417/2020CMT    30
CC0000003719048H202100015052806900015052806906/12/20212144    3190264423742196425000000600800000258580000000000000                                                              APOSITO BACTIGRAS REF 7461 15CM X 20CMSIN     2
