CC0001104008600H202100918472120600918472120606/12/20211008    3150024523742196425000011127400001413910000000000000                                                            EQUIPO ADMINIST NUTR PUNZON REF 674669 BBOL     1
CC0001104008600H202100918472120600918472120606/12/20211008    31500245237421964250000E1AD0300000199490000000000000                                         LACTATO RINGER USP (HARTMANN)  SOL INY  BOL X 1000ML BAXTERBIN     2
CC0001104008600H202100918472120600918472120606/12/20211009    3190330323742196425000011127400001413910000000000000                                                            EQUIPO ADMINIST NUTR PUNZON REF 674669 BBOL     1
CC0001104008600H202100918472120600918472120606/12/20211009    31903303237421964250000E1AD0300000199490000000000000                                         LACTATO RINGER USP (HARTMANN)  SOL INY  BOL X 1000ML BAXTERBIN     2
CC0001104008600H202100918472120600918472120606/12/20211110    3190330123742196425000024674000001138340000000000000   JERINGA 3PARTES C/A 10ML REF JEHL005 CAJ X 100 ALFASAFE  21GX1 PULG 1/2 PULG BN EXENTO-DC.417/202PZA     3
CC0001104008600H202100918472120600918472120606/12/20211110    31903301237421964250000V07A1300000502600000000000000                                                                                AGUA ESTERIL x 10 mlAMP     2
CC0001104008600H202100918472120600918472120606/12/20211351    3150024523742196425000024674000001138340000000000000   JERINGA 3PARTES C/A 10ML REF JEHL005 CAJ X 100 ALFASAFE  21GX1 PULG 1/2 PULG BN EXENTO-DC.417/202PZA     3
CC0001104008600H202100918472120600918472120606/12/20211351    31500245237421964250000V07A1300000502600000000000000                                                                                AGUA ESTERIL x 10 mlAMP     2
CC0001104008600H202100918472120600918472120606/12/20211529    3150012023742196425000011127400001413910000000000000                                                            EQUIPO ADMINIST NUTR PUNZON REF 674669 BBOL     1
CC0001104008600H202100918472120600918472120606/12/20211529    31500120237421964250000E1AD0300000199490000000000000                                         LACTATO RINGER USP (HARTMANN)  SOL INY  BOL X 1000ML BAXTERBIN     2
