CC0001047335535H202100015032650600015032650606/12/20211559    3150045623742196425000038568300000257010000000000000                                                                                   SONDA NELATON #08SIN     2
CC0000057299651H202100015032650600015032650606/12/20211559    3150045623742196425000001956000001620610000000000000                                                                      CONECTOR MICRO CLAVE LAT-MC100SOB     1
TI0001121302704H202100015032650600015032650606/12/20211559    3150045623742196425000001956000001620610000000000000                                                                      CONECTOR MICRO CLAVE LAT-MC100SOB     1
CC0000057299651H202100015032650600015032650606/12/20211559    31500456237421964250000Q1AA7300000610640000000000000                                                            CATETER PERIFE INTROCAN # 22G 4251628-04SIN     1
CC0001072673583H202100015032650600015032650606/12/20211559    31500456237421964250000E1AB0500003888400000000000000                                                              SOLUCION SALINA 0.9% SLN INY X 1000 MLBOL     2
CC0000007454516H202100015032650600015032650606/12/20211559    31500456237421964250000E1AB0500003888400000000000000                                                              SOLUCION SALINA 0.9% SLN INY X 1000 MLBOL     2
