CC0000008633435H202100015032651200015032651206/12/20212320    31903060237421964250000E1BA0700000198910000000000000                                                                   UROMATIC Sln IRRIGACION X 3000 MLBIN     3
CC0000008633435H202100015032651200015032651206/12/20212320    31903060237421964250000E1AD0300000199490000000000000                                         LACTATO RINGER USP (HARTMANN)  SOL INY  BOL X 1000ML BAXTERBIN     2
CC0001082907687H202100015032651200015032651206/12/20212320    31903060237421964250000E1AB0500003888400000000000000                                                              SOLUCION SALINA 0.9% SLN INY X 1000 MLBOL     1
CC0001047335535H202100015032651200015032651206/12/20212320    31903060237421964250000E1AB0500003888400000000000000                                                              SOLUCION SALINA 0.9% SLN INY X 1000 MLBOL     1
CC0001045688822H202100015032651200015032651206/12/20212320    31903060237421964250000E1AB0500003888400000000000000                                                              SOLUCION SALINA 0.9% SLN INY X 1000 MLBOL     1
RC0001043472141H202100015032651200015032651206/12/20212320    31903060237421964250000E1AA0100003888590000000000000                                                                        DEXTROSA 5% Sln Iny X 500 mlBOL     3
TI0001121302704H202100015032651200015032651206/12/20212320    31903060237421964250000E1AA0100003888590000000000000                                                                        DEXTROSA 5% Sln Iny X 500 mlBOL     3
