PE0082549771210H202100000556620500000556620506/12/20212107    31500452237421964250000E1AD0300000199490000000000000                                         LACTATO RINGER USP (HARTMANN)  SOL INY  BOL X 1000ML BAXTERBIN     1
PE0082549771210H202100000556620500000556620506/12/20210951    31901450237421964250000E1AD0300000199490000000000000                                         LACTATO RINGER USP (HARTMANN)  SOL INY  BOL X 1000ML BAXTERBIN     1
PE0082549771210H202100000556620500000556620506/12/20210747     3300009237421964250000A02B0800001276960000000000000                                                                                 OMEPRAZOL CAP 20 MGCAP     1
PE0082549771210H202100000556620500000556620506/12/20210747     3300009237421964250000A06A1700001333140000000000000                                                                                 BISACODILO TAB 5 MGTAB     1
