CC0000003691507A202100000027841600000027841606/12/20211841    31903336240421964190000C7AB1000001382030000000000000                                                                   NOREPINEFRINA SLN INY 4 MG / 4 MLAMP     1
CC0000003691507A202100000027841600000027841606/12/20211841    3190333624042196419000011082900001233450000000000000                                                               EQUIPO LC 5000 PRIMARIO FOTOPRO 0L218SOB     1
CC0000003691507A202100000027841600000027841606/12/20211841    3190333624042196419000035639600001014740000000000000                                                                              MASCARA VENTURY ADULTOBOL     1
CC0000003691507A202100000027841600000027841606/12/20211841    3190333624042196419000000342100004008700000000000000DISPOSITIVO CIERRE HERID V-20 REF VLOCL0614 CAJ X 12 V-LOC 180 30CM - 3-0 VERDE BN EXENTO-DC.417/202SOB     1
CC0000003691507A202100000027841600000027841606/12/20211841    31903336240421964190000C1BD0200000201790000000000000                                                                      CORDARONE SLN INY 150 MG/ 3 MLAMP     1
CC0000003691507A202100000027841600000027841606/12/20211841    31903336240421964190000C7AB1600001013300000000000000                                                                          BETOPROLOL SLN INY 5 MG/MLAPC     1
CC0000003691507A202100000027841600000027841606/12/20211841    3190333624042196419000001200400000530690000000000000                                                                          CANULA DE MAYO # 5 (100MM)SIN     1
CC0000003691507A202100000027841600000027841606/12/20211841    3190333624042196419000020059500000225210000000000000                                                               AGUJA RAQUI SPINOCAN #20 REF. 4509900SIN     1
CC0000003691507A202100000027841600000027841606/12/20211841    3190333624042196419000018610600000607940000000000000                                                               SENSOR ADULTO XP MONITOR 006-186-0106SIN     1
CC0000003691507A202100000027841600000027841606/12/20211841    3190333624042196419000000342000000994070000000000000                                                                     DISPOSITIVO V-LOC 2-0 VLOCL0615SOB     1
CC0000003691507A202100000027841600000027841606/12/20211841    3190333624042196419000019119100001135350000000000000                                                                 SPACEMAKER PREPERITONEAL OMSPDB1000CAJ     1
CC0000003691507A202100000027841600000027841606/12/20211841    3190333624042196419000011053600001222790000000000000                                                            MALLA 3D BAJA DENSI DER 12.2*17C R117322CAJ     1
CC0000003691507A202100000027841600000027841606/12/20211841    3190333624042196419000000501000004008660000000000000  SUTURA ABSORB TRENZADA GU-46 REF UL-878 CAJ X 36 POLYSORB 75CM - 2-0 VIOLETA BN EXENTO-DC.417/2020SIN     1
CC0000003691507A202100000027841600000027841606/12/20211841    3190333624042196419000000501300000223570000000000000                                                                     STERI-STRIP 6 X 100 REF 1546 3MSIN     1
CC0000003691507A202100000027841600000027841606/12/20211841    3190333624042196419000015994600000632480000000000000                                                                          MONOCRYL 4-0 PS-2 45 Y496GSIN     1
CC0000003691507A202100000027841600000027841606/12/20211841    3190333624042196419000045138000001413890000000000000                                                                       LAPIZ ELECTROBISTURI  SOB X 1SOB     1
CC0000003691507A202100000027841600000027841606/12/20211841    3190333624042196419000030161400001459220000000000000                                                                       MANGUERA SUCCION 6 MM*3.1 MTSSOB     1
CC0000003691507A202100000027841600000027841606/12/20211841    3190333624042196419000043879200001138180000000000000                                                                                   HOJA BISTURI # 11SOB     1
CC0000003691507A202100000027841600000027841606/12/20211841    3190333624042196419000013077800000471960000000000000                                                             GASA NO TEJIDA EST 7.5 X 7.5 SOB X 3 UNSOB     2
CC0000003691507A202100000027841600000027841606/12/20211841    3190333624042196419000022425200000548240000000000000                       EXTENSION DE ANESTESIA REF 1139 SOB X 1 SHERLEG  ADULTO BN EXENTO-DC.417/2020SIN     1
CC0000003691507A202100000027841600000027841606/12/20211841    3190333624042196419000035356500003919000000000000000                                                                                        LLAVE 3 VIASSOB     1
CC0000003691507A202100000027841600000027841606/12/20211841    3190333624042196419000022426800001140510000000000000                                                                    EQUIPO MACROGOTEO BAXTER MRC0001SOB     1
CC0000003691507A202100000027841600000027841606/12/20211841    3190333624042196419000016830000000970620000000000000                                                             SIST FIJACION CAT PERIFERICO 6.5X7 1683SOB     1
CC0000003691507A202100000027841600000027841606/12/20211841    31903336240421964190000J01DA300001239950000000000000                                                            CEFAZOLINA SODICA POLVO LIOF SLN INY 1 GVAL     2
CC0000003691507A202100000027841600000027841606/12/20211841    3190333624042196419000020750600000296780000000000000                                                                PLACA ELECTRO RETORNO PACIENTE E7506SIN     1
CC0000003691507A202100000027841600000027841606/12/20211841    3190333624042196419000053074400000607910000000000000                                                               GASA ESTERIL 10*10 SOBRE X 3 UNIDADESSOB     2
CC0000003691507A202100000027841600000027841606/12/20211841    3190333624042196419000011085300001082140000000000000                                                                           GUANTE QUIRURGICO TALLA 8SOB     3
CC0000003691507A202100000027841600000027841606/12/20211841    3190333624042196419000011085100001082120000000000000                                                                           GUANTE QUIRURGICO TALLA 7SOB     3
CC0000003691507A202100000027841600000027841606/12/20211841    3190333624042196419000043485100001618510000000000000                GUANTE QUIRURGICO DE LATEX REF 2D72N65X CAJ X 50 PROTEXIS  6.5 BN EXENTO-DC.417/2020SOB     2
CC0000003691507A202100000027841600000027841606/12/20211841    3190333624042196419000051515500000598160000000000000                                                                            MASCARILLA ANESTESIA # 5SIN     1
CC0000003691507A202100000027841600000027841606/12/20211841    3190333624042196419000011099300000777780000000000000                                                                     FILTRO BACTERIANO VIRICO ADULTOBOL     2
CC0000003691507A202100000027841600000027841606/12/20211841    3190333624042196419000020056600001101530000000000000                                                                AGUJA HIPODERMICA DESECH 18G X 1 1/2SOB     2
CC0000003691507A202100000027841600000027841606/12/20211841    3190333624042196419000038569400000256750000000000000                                                                        SONDA ASPIRACION CONTROL #14SIN     1
CC0000003691507A202100000027841600000027841606/12/20211841    3190333624042196419000039175100001072060000000000000                                                                           TUBO ENDOTRAQUEAL C/B 7.5SOB     1
CC0000003691507A202100000027841600000027841606/12/20211841    3190333624042196419000024673600000222980000000000000                                                                     JERINGA DESECHABLE 5 ml 27*11/2SIN     2
CC0000003691507A202100000027841600000027841606/12/20211841    3190333624042196419000024674000001138340000000000000   JERINGA 3PARTES C/A 10ML REF JEHL005 CAJ X 100 ALFASAFE  21GX1 PULG 1/2 PULG BN EXENTO-DC.417/202PZA     2
CC0000003691507A202100000027841600000027841606/12/20211841    3190333624042196419000024674500000322810000000000000                                                                   JERINGA DESECHABLE 20 ml 21*1 1/2SIN     3
CC0000003691507A202100000027841600000027841606/12/20211841    31903336240421964190000E1AB0300003888390000000000000                                                            SOLUCION SALINA 0.9% SLN INY BO X 500 MLBOL     4
CC0000003691507A202100000027841600000027841606/12/20211841    31903336240421964190000E1AB0700003888350000000000000                                                            SOLUCION SALINA 0.9% SLN INY BO X 250 MLBOL     2
CC0000003691507A202100000027841600000027841606/12/20211841    31903336240421964190000N02B1100001464120000000000000                                           PARACETAMOL EP 1000MG/100ML(10MG/ML) SOL INY  CAJ X 10FCOVAL     1
CC0000003691507A202100000027841600000027841606/12/20211841    31903336240421964190000N01A0400003939010000000000000                                               MAYOPROFOL 200MG/20ML(1%) EMUL INY CAJ X 1VIAL X 20MLVAL     1
CC0000003691507A202100000027841600000027841606/12/20211841    31903336240421964190000M01A0400001341250000000000000                                                                              DYNASTAT AMP 40 MG /R/VAL     1
CC0000003691507A202100000027841600000027841606/12/20211841    31903336240421964190000A4AD0200000202990000000000000                                                                     PLITICAN HCL Sln Iny 50 mg/2 mlAMP     1
CC0000003691507A202100000027841600000027841606/12/20211841    31903336240421964190000H02AB500001664950000000000000                                                            DEXAMETASONA SLN INY 8 MG/2 ML AMP /CDS/AMP     1
CC0000003691507A202100000027841600000027841606/12/20211841    31903336240421964190000N1BA0300000217900000000000000                                                                    BUPIROP 0.5% C/E Sln Iny x 20 mlVAL     1
CC0000003691507A202100000027841600000027841606/12/20211841    31903336240421964190000M3AC0600000720540000000000000                                                                         ESMERON SLN INY 50 MG /5 MLVAL     1
