RC0001025558992A202100000027805800000027805806/12/20210811    31903336240421964190000N2AA0700001587170000000000000                                                                                 ULTIVA Sln Iny 2 mgVAL     1
RC0001025558992A202100000027805800000027805806/12/20210811    3190333624042196419000013077800000471960000000000000                                                             GASA NO TEJIDA EST 7.5 X 7.5 SOB X 3 UNSOB     1
RC0001025558992A202100000027805800000027805806/12/20210811    3190333624042196419000011083900000607700000000000000                                                               EXTENSION MONITOREO PRESION 1281  12"SIN     1
RC0001025558992A202100000027805800000027805806/12/20210811    3190333624042196419000001900100000333850000000000000                                                                 HEM-O-LOK VERDE MED/LARG 544230 X 6SIN     1
RC0001025558992A202100000027805800000027805806/12/20210811    3190333624042196419000011067500001404570000000000000                                                              TROCAR FIJACION 5MM X 100 MM REF B5STFPZA     1
RC0001025558992A202100000027805800000027805806/12/20210811    3190333624042196419000045138000001413890000000000000                                                                       LAPIZ ELECTROBISTURI  SOB X 1SOB     1
RC0001025558992A202100000027805800000027805806/12/20210811    3190333624042196419000012474000000232230000000000000                                                                SUTURA ETHILON 4-0 SC-20 45CM 14502TSIN     1
RC0001025558992A202100000027805800000027805806/12/20210811    3190333624042196419000043879200001138180000000000000                                                                                   HOJA BISTURI # 11SOB     1
RC0001025558992A202100000027805800000027805806/12/20210811    3190333624042196419000030161400001459220000000000000                                                                       MANGUERA SUCCION 6 MM*3.1 MTSSOB     1
RC0001025558992A202100000027805800000027805806/12/20210811    31903336240421964190000E1AB0700003888350000000000000                                                            SOLUCION SALINA 0.9% SLN INY BO X 250 MLBOL     1
RC0001025558992A202100000027805800000027805806/12/20210811    31903336240421964190000Q1AA7300000610640000000000000                                                            CATETER PERIFE INTROCAN # 22G 4251628-04SIN     2
RC0001025558992A202100000027805800000027805806/12/20210811    31903336240421964190000J01DA300001239950000000000000                                                            CEFAZOLINA SODICA POLVO LIOF SLN INY 1 GVAL     1
RC0001025558992A202100000027805800000027805806/12/20210811    3190333624042196419000011073300001096420000000000000                                                                BOLSA DE SUCCION DE FLUIDOS x 2500mLBOL     1
RC0001025558992A202100000027805800000027805806/12/20210811    3190333624042196419000020750800000295830000000000000                                                                       PLACA RETORNO PEDIAT E7510-25SIN     1
RC0001025558992A202100000027805800000027805806/12/20210811    3190333624042196419000053074400000607910000000000000                                                               GASA ESTERIL 10*10 SOBRE X 3 UNIDADESSOB     2
RC0001025558992A202100000027805800000027805806/12/20210811    3190333624042196419000011085200001585390000000000000                                                                       GUANTE QUIRURGICO TALLA 7 1/2SOB     1
RC0001025558992A202100000027805800000027805806/12/20210811    3190333624042196419000011085100001082120000000000000                                                                           GUANTE QUIRURGICO TALLA 7SOB     3
RC0001025558992A202100000027805800000027805806/12/20210811    3190333624042196419000043485100001618510000000000000                GUANTE QUIRURGICO DE LATEX REF 2D72N65X CAJ X 50 PROTEXIS  6.5 BN EXENTO-DC.417/2020SOB     3
RC0001025558992A202100000027805800000027805806/12/20210811    3190333624042196419000011082700001620070000000000000                                                               EQUIPO SET PRIMARIO C/CLAVE REF 14001BOL     1
RC0001025558992A202100000027805800000027805806/12/20210811    3190333624042196419000039174500001679380000000000000                                                                           TUBO ENDOTRAQUEAL C/B 4.5SOB     1
RC0001025558992A202100000027805800000027805806/12/20210811    3190333624042196419000051515200000598130000000000000                                                                            MASCARILLA ANESTESIA # 2SIN     1
RC0001025558992A202100000027805800000027805806/12/20210811    31903336240421964190000Q1A11800000258040000000000000                                                                         CANULA OXIGENO NASAL PEDIATSIN     1
RC0001025558992A202100000027805800000027805806/12/20210811    3190333624042196419000020058100001101630000000000000                                                                     AGUJA HIPODERMICA DESECH 23 X 1SOB     1
RC0001025558992A202100000027805800000027805806/12/20210811    3190333624042196419000035356500003919000000000000000                                                                                        LLAVE 3 VIASSOB     2
RC0001025558992A202100000027805800000027805806/12/20210811    3190333624042196419000011099300000777780000000000000                                                                     FILTRO BACTERIANO VIRICO ADULTOBOL     1
RC0001025558992A202100000027805800000027805806/12/20210811    3190333624042196419000031011200001012590000000000000                                                                           CANULA GUEDEL # 1 (70 MM)SOB     1
RC0001025558992A202100000027805800000027805806/12/20210811    3190333624042196419000024673000001411210000000000000                                                                  JERINGA DESECHABLE 3 ML 21 X 1 1/2SOB     1
RC0001025558992A202100000027805800000027805806/12/20210811    3190333624042196419000024673600000222980000000000000                                                                     JERINGA DESECHABLE 5 ml 27*11/2SIN     2
RC0001025558992A202100000027805800000027805806/12/20210811    3190333624042196419000024674000001138340000000000000   JERINGA 3PARTES C/A 10ML REF JEHL005 CAJ X 100 ALFASAFE  21GX1 PULG 1/2 PULG BN EXENTO-DC.417/202PZA     2
RC0001025558992A202100000027805800000027805806/12/20210811    3190333624042196419000024674500000322810000000000000                                                                   JERINGA DESECHABLE 20 ml 21*1 1/2SIN     1
RC0001025558992A202100000027805800000027805806/12/20210811    31903336240421964190000E1AD0200003888320000000000000                                                                              HARTMAN SLN INY 500 MLBOL     1
RC0001025558992A202100000027805800000027805806/12/20210811    31903336240421964190000E1AB0300003888390000000000000                                                            SOLUCION SALINA 0.9% SLN INY BO X 500 MLBOL     1
RC0001025558992A202100000027805800000027805806/12/20210811    31903336240421964190000E1AB0200000199290000000000000                                                            SOLUCION SALINA 0.9% SLN INY BO X 100 MLBIN     1
RC0001025558992A202100000027805800000027805806/12/20210811    31903336240421964190000N01B1600003888910000000000000                                             BUPIROP SE S/P 50MG/10ML(5MG/ML) SOL INY CAJ X 24AMPACKAPC     1
RC0001025558992A202100000027805800000027805806/12/20210811    31903336240421964190000N01B1200000220020000000000000                                                                        ROXICAINA 1% C/E Iny x 20 mlFCO     1
RC0001025558992A202100000027805800000027805806/12/20210811    31903336240421964190000N2BB0100001672010000000000000                                  DIPIRONA 1GR/2ML(0.5GR/ML) SOL INY INST CAJ X 100AMP X 2ML VITALISAMP     1
RC0001025558992A202100000027805800000027805806/12/20210811    31903336240421964190000A03F0300001626860000000000000                                                                   METOCLOPRAMIDA SLN INY 10 MG/2 MLAMP     1
RC0001025558992A202100000027805800000027805806/12/20210811    31903336240421964190000H02A0100001664960000000000000                                                                        DEXAMETASONA SLN INY 4 MG/MLAMP     1
RC0001025558992A202100000027805800000027805806/12/20210811    31903336240421964190000N2AA0100000301640000000000000                                                                            MORFINA Sln Iny 10 mg/mlAMP     1
RC0001025558992A202100000027805800000027805806/12/20210811    31903336240421964190000M3AC0600000720540000000000000                                                                         ESMERON SLN INY 50 MG /5 MLVAL     1
