CC0000022438763H202100015052806100015052806106/12/20211648    3150036323742196425000001956000001620610000000000000                                                                      CONECTOR MICRO CLAVE LAT-MC100SOB     1
CC0001140875648H202100015052806100015052806106/12/20211648    3150036323742196425000001956000001620610000000000000                                                                      CONECTOR MICRO CLAVE LAT-MC100SOB     1
CC0000022438763H202100015052806100015052806106/12/20211648    31500363237421964250000Q1AA7300000610640000000000000                                                            CATETER PERIFE INTROCAN # 22G 4251628-04SIN     2
CC0001140875648H202100015052806100015052806106/12/20211648    31500363237421964250000Q1AA7300000610640000000000000                                                            CATETER PERIFE INTROCAN # 22G 4251628-04SIN     2
CC0000022438763H202100015052806100015052806106/12/20211648    3150036323742196425000016830000000970620000000000000                                                             SIST FIJACION CAT PERIFERICO 6.5X7 1683SOB     1
CC0001140875648H202100015052806100015052806106/12/20211648    3150036323742196425000016830000000970620000000000000                                                             SIST FIJACION CAT PERIFERICO 6.5X7 1683SOB     1
