CC0000007544660U202100000556626500000556626506/12/20211646    31902865239421964320000E1AB0500003888400000000000000                                                              SOLUCION SALINA 0.9% SLN INY X 1000 MLBOL     1
CC0000007544660U202100000556626500000556626506/12/20211306    31902865239421964320000E1AB0500003888400000000000000                                                              SOLUCION SALINA 0.9% SLN INY X 1000 MLBOL     1
CC0000007544660U202100000556626500000556626506/12/20211110    31902865239421964320000E1AB0500003888400000000000000                                                              SOLUCION SALINA 0.9% SLN INY X 1000 MLBOL     1
CC0000007544660U202100000556626500000556626506/12/20211608     3300004239421964320000J01DD100000456230000000000000                                                                        AXTAR POLVO LIOF SLN INY 1 GVAL     2
CC0000007544660U202100000556626500000556626506/12/20211042     3300004239421964320000N02B1100001464120000000000000                                           PARACETAMOL EP 1000MG/100ML(10MG/ML) SOL INY  CAJ X 10FCOVAL     1
CC0000007544660U202100000556626500000556626506/12/20211608     3300004239421964320000N2BE2200001252930000000000000                                                                             ACETAMINOFEN Tab 500 MGTAB     2
