CC0001104008600H202100000556611400000556611406/12/20211814    31903254237421964250000E1AD0300000199490000000000000                                         LACTATO RINGER USP (HARTMANN)  SOL INY  BOL X 1000ML BAXTERBIN     2
CC0001104008600H202100000556611400000556611406/12/20211822     3300009237421964250000N05A1700001278300000000000000                                                                            QUETIAPINA TAB 25 MG /R/TAB     4
CC0001104008600H202100000556611400000556611406/12/20210058     3300004237421964250000N05A1700001278300000000000000                                                                            QUETIAPINA TAB 25 MG /R/TAB     3
CC0001104008600H202100000556611400000556611406/12/20211454     3300009237421964250000N05BA100001303610000000000000                                                                                  LORAZEPAM TAB 2 MGTAB     1
CC0001104008600H202100000556611400000556611406/12/20211411    31903301237421964250000V07A1300000502600000000000000                                                                                AGUA ESTERIL x 10 mlAMP     2
