CC0000041782192H202100015042537500015042537506/12/20211523    3190302823742196425000045136100001419300000000000000                                                                            LANCETA DEXTROMETER X UNPZA     3
CC0000007411669H202100015042537500015042537506/12/20211523    3190302823742196425000043485100001618510000000000000                GUANTE QUIRURGICO DE LATEX REF 2D72N65X CAJ X 50 PROTEXIS  6.5 BN EXENTO-DC.417/2020SOB     2
CC0001002134630H202100015042537500015042537506/12/20211523    3190302823742196425000022426800001140510000000000000                                                                    EQUIPO MACROGOTEO BAXTER MRC0001SOB     1
CC0000007411669H202100015042537500015042537506/12/20211523    3190302823742196425000022426800001140510000000000000                                                                    EQUIPO MACROGOTEO BAXTER MRC0001SOB     1
CC0000007411669H202100015042537500015042537506/12/20211523    3190302823742196425000011082700001620070000000000000                                                               EQUIPO SET PRIMARIO C/CLAVE REF 14001BOL     2
CC0000007411669H202100015042537500015042537506/12/20211523    3190302823742196425000001956000001620610000000000000                                                                      CONECTOR MICRO CLAVE LAT-MC100SOB     2
CC0000007411669H202100015042537500015042537506/12/20211523    3190302823742196425000030936900001431840000000000000                                                                                              BURETABOL     1
CC0001002134630H202100015042537500015042537506/12/20211523    31903028237421964250000E1AB0700003888350000000000000                                                            SOLUCION SALINA 0.9% SLN INY BO X 250 MLBOL     3
TI0001081819374H202100015042537500015042537506/12/20211523    31903028237421964250000E1AB0700003888350000000000000                                                            SOLUCION SALINA 0.9% SLN INY BO X 250 MLBOL     2
CC0000007411669H202100015042537500015042537506/12/20211523    31903028237421964250000E1AB0700003888350000000000000                                                            SOLUCION SALINA 0.9% SLN INY BO X 250 MLBOL     1
CC0000041782192H202100015042537500015042537506/12/20211523    3190302823742196425000011137100001419310000000000000                                                               TIRA GLUCOMETRIA FREESTYLE H OPTIUM .PZA     3
