CE0000000584011A202100000027834100000027834106/12/20211233    31903336240421964190000M03A0500000207910000000000000                                                                                BOTOX Iny 100 UI /R/VAL     1
CE0000000584011A202100000027834100000027834106/12/20211233    31903336240421964190000N07X0300003913670000000000000                                    DEXMEDETOMIDINA 400MCG/100ML(4MCG/ML) SOL INY BOL X 100ML BAXTERBOL     1
CE0000000584011A202100000027834100000027834106/12/20211233    31903336240421964190000H02AB500001664950000000000000                                                            DEXAMETASONA SLN INY 8 MG/2 ML AMP /CDS/AMP     1
CE0000000584011A202100000027834100000027834106/12/20211233    3190333624042196419000001200400000530690000000000000                                                                          CANULA DE MAYO # 5 (100MM)SIN     1
CE0000000584011A202100000027834100000027834106/12/20211233    31903336240421964190000K6700400000233790000000000000                                                                   SPONGOSTAN ANAL MS0004  3CM X 8CMSIN     1
CE0000000584011A202100000027834100000027834106/12/20211233    31903336240421964190000N1BA1900000554750000000000000                                                                     ROXICAINA JALEA 2% TUBO X 30 MLTUB     1
CE0000000584011A202100000027834100000027834106/12/20211233    31903336240421964190000E1AB0300003888390000000000000                                                            SOLUCION SALINA 0.9% SLN INY BO X 500 MLBOL     1
CE0000000584011A202100000027834100000027834106/12/20211233    3190333624042196419000022425200000548240000000000000                       EXTENSION DE ANESTESIA REF 1139 SOB X 1 SHERLEG  ADULTO BN EXENTO-DC.417/2020SIN     1
CE0000000584011A202100000027834100000027834106/12/20211233    3190333624042196419000035356500003919000000000000000                                                                                        LLAVE 3 VIASSOB     1
CE0000000584011A202100000027834100000027834106/12/20211233    31903336240421964190000Q1AA7100000610620000000000000                                                            CATETER PERIFE INTROCAN # 18G 4251687-04SIN     1
CE0000000584011A202100000027834100000027834106/12/20211233    3190333624042196419000022426800001140510000000000000                                                                    EQUIPO MACROGOTEO BAXTER MRC0001SOB     1
CE0000000584011A202100000027834100000027834106/12/20211233    3190333624042196419000016830000000970620000000000000                                                             SIST FIJACION CAT PERIFERICO 6.5X7 1683SOB     1
CE0000000584011A202100000027834100000027834106/12/20211233    31903336240421964190000J01DA300001239950000000000000                                                            CEFAZOLINA SODICA POLVO LIOF SLN INY 1 GVAL     2
CE0000000584011A202100000027834100000027834106/12/20211233    3190333624042196419000020750600000296780000000000000                                                                PLACA ELECTRO RETORNO PACIENTE E7506SIN     1
CE0000000584011A202100000027834100000027834106/12/20211233    3190333624042196419000053074400000607910000000000000                                                               GASA ESTERIL 10*10 SOBRE X 3 UNIDADESSOB     2
CE0000000584011A202100000027834100000027834106/12/20211233    3190333624042196419000011047900000223010000000000000                                                                            JERINGA X 1ML REF 302579SIN     1
CE0000000584011A202100000027834100000027834106/12/20211233    3190333624042196419000024673600000222980000000000000                                                                     JERINGA DESECHABLE 5 ml 27*11/2SIN     1
CE0000000584011A202100000027834100000027834106/12/20211233    3190333624042196419000024674000001138340000000000000   JERINGA 3PARTES C/A 10ML REF JEHL005 CAJ X 100 ALFASAFE  21GX1 PULG 1/2 PULG BN EXENTO-DC.417/202PZA     2
CE0000000584011A202100000027834100000027834106/12/20211233    3190333624042196419000011085300001082140000000000000                                                                           GUANTE QUIRURGICO TALLA 8SOB     3
CE0000000584011A202100000027834100000027834106/12/20211233    3190333624042196419000011085200001585390000000000000                                                                       GUANTE QUIRURGICO TALLA 7 1/2SOB     1
CE0000000584011A202100000027834100000027834106/12/20211233    3190333624042196419000043485100001618510000000000000                GUANTE QUIRURGICO DE LATEX REF 2D72N65X CAJ X 50 PROTEXIS  6.5 BN EXENTO-DC.417/2020SOB     2
CE0000000584011A202100000027834100000027834106/12/20211233    3190333624042196419000038568100000258050000000000000                                                                         CANULA OXIGENO NASAL ADULTOSIN     1
CE0000000584011A202100000027834100000027834106/12/20211233    3190333624042196419000000100800000223140000000000000                                                                       AGUJA DESECHABLE 23G X 1 PULGSIN     1
CE0000000584011A202100000027834100000027834106/12/20211233    31903336240421964190000N02B1100001464120000000000000                                           PARACETAMOL EP 1000MG/100ML(10MG/ML) SOL INY  CAJ X 10FCOVAL     1
CE0000000584011A202100000027834100000027834106/12/20211233    31903336240421964190000A4AD0200000202990000000000000                                                                     PLITICAN HCL Sln Iny 50 mg/2 mlAMP     1
CE0000000584011A202100000027834100000027834106/12/20211233    31903336240421964190000A2BC0900000200150000000000000                                                                               ORAZOLE Sln Iny 40 mgCIN     1
CE0000000584011A202100000027834100000027834106/12/20211233    31903336240421964190000N2BB1100000217160000000000000                                                                      NOVALGINA Sln Iny 2.5 g x 5 mlAMP     1
CE0000000584011A202100000027834100000027834106/12/20211233    31903336240421964190000N01A0400003939010000000000000                                               MAYOPROFOL 200MG/20ML(1%) EMUL INY CAJ X 1VIAL X 20MLVAL     1
