TI0001047048202H202100000556612800000556612806/12/20210940     3300009237421964250000J01D1300001469600000000000000                                                                               POZINEG POLVO INY 1 GVAL     6
TI0001047048202H202100000556612800000556612806/12/20211859     3300009237421964250000J1KF0200001677230000000000000                                                                      MERONEM POLVO SLN INY 1 G  /R/VAL     3
TI0001047048202H202100000556612800000556612806/12/20211859     3300009237421964250000J01XA400001212420000000000000                                                               VANCOMICINA POLVO LIOF SLN INY 500 MGVAL     4
TI0001047048202H202100000556612800000556612806/12/20210940     3300009237421964250000L1BC1300000304160000000000000                                                                        NEUPOGEN Sln iny 300 mcg /R/JRP     2
TI0001047048202H202100000556612800000556612806/12/20211612     3300009237421964250000N02B1100001464120000000000000                                           PARACETAMOL EP 1000MG/100ML(10MG/ML) SOL INY  CAJ X 10FCOVAL     1
TI0001047048202H202100000556612800000556612806/12/20210940     3300009237421964250000N02B1100001464120000000000000                                           PARACETAMOL EP 1000MG/100ML(10MG/ML) SOL INY  CAJ X 10FCOVAL     2
TI0001047048202H202100000556612800000556612806/12/20210220     3300004237421964250000N02B1100001464120000000000000                                           PARACETAMOL EP 1000MG/100ML(10MG/ML) SOL INY  CAJ X 10FCOVAL     2
TI0001047048202H202100000556612800000556612806/12/20211847    31903313237421964250000V07A1300000502600000000000000                                                                                AGUA ESTERIL x 10 mlAMP     5
TI0001047048202H202100000556612800000556612806/12/20210145    31500213237421964250000V07A1300000502600000000000000                                                                                AGUA ESTERIL x 10 mlAMP     2
