RC0001034521434H202100000556608900000556608906/12/20212322     3300004237421964250000A02BC100001677520000000000000                                                                ESOMEPRAZOL POLVO LIOF INY 40 MG /R/VAL     1
RC0001034521434H202100000556608900000556608906/12/20210855     3300009237421964250000A02BC100001677520000000000000                                                                ESOMEPRAZOL POLVO LIOF INY 40 MG /R/VAL     2
RC0001034521434H202100000556608900000556608906/12/20211521     3300009237421964250000B3BB0200001315040000000000000                                                                               ACIDO FOLICO Tab 5 mgTAB     1
RC0001034521434H202100000556608900000556608906/12/20212322     3300004237421964250000S2BA0200000468180000000000000                                                                   SOLU-MEDROL SLN INY 40 MG/ML  /R/VAL     1
RC0001034521434H202100000556608900000556608906/12/20210855     3300009237421964250000S2BA0200000468180000000000000                                                                   SOLU-MEDROL SLN INY 40 MG/ML  /R/VAL     1
RC0001034521434H202100000556608900000556608906/12/20210032     3300004237421964250000S2BA0200000468180000000000000                                                                   SOLU-MEDROL SLN INY 40 MG/ML  /R/VAL     1
RC0001034521434H202100000556608900000556608906/12/20211521     3300009237421964250000J1CB0600000468340000000000000                                                           UNASYN IM-IV (1+0.5)GR POLV INY INST VIALVAL     1
RC0001034521434H202100000556608900000556608906/12/20210854     3300009237421964250000J1CB0600000468340000000000000                                                           UNASYN IM-IV (1+0.5)GR POLV INY INST VIALVAL     1
RC0001034521434H202100000556608900000556608906/12/20210032     3300004237421964250000J1CB0600000468340000000000000                                                           UNASYN IM-IV (1+0.5)GR POLV INY INST VIALVAL     1
RC0001034521434H202100000556608900000556608906/12/20210854     3300009237421964250000J02A0200000191070000000000000                                                            CANCIDAS POLVO LIOF SLN INY AMP 50MG /R/VAL     1
RC0001034521434H202100000556608900000556608906/12/20212322     3300004237421964250000N02B1100001464120000000000000                                           PARACETAMOL EP 1000MG/100ML(10MG/ML) SOL INY  CAJ X 10FCOVAL     1
RC0001034521434H202100000556608900000556608906/12/20212322     3300004237421964250000N03A1800001024300000000000000                                                                 VIMPAT SLN INY 10 MG/ML AMP X 20 MLVAL     1
RC0001034521434H202100000556608900000556608906/12/20210855     3300009237421964250000N03A1800001024300000000000000                                                                 VIMPAT SLN INY 10 MG/ML AMP X 20 MLVAL     1
RC0001034521434H202100000556608900000556608906/12/20211521     3300009237421964250000R03BB100000840150000000000000                                                            ATROVENT INH ORAL 20 MCG/DO X 200 DO /R/FCO     1
RC0001034521434H202100000556608900000556608906/12/20211521     3300009237421964250000R03A0400000555900000000000000                                                              SALBUTAN Inh 100 mcg/dosis x 200 DosisFCO     1
