TI0001034284114U202100000556613600000556613606/12/20210204     3300010239421964320000A2BC0900000200150000000000000                                                                               ORAZOLE Sln Iny 40 mgCIN     1
TI0001034284114U202100000556613600000556613606/12/20210445     3300010239421964320000A02BX300001378440000000000000                                                                    DIP SUSP ORAL 1 G /5 ML X 200 MLFCO     1
TI0001034284114U202100000556613600000556613606/12/20210445     3300010239421964320000A4AD0200000202990000000000000                                                                     PLITICAN HCL Sln Iny 50 mg/2 mlAMP     1
TI0001034284114U202100000556613600000556613606/12/20210204     3300010239421964320000A3BB0200000512940000000000000                                                                          BUSCAPINA SIMPLE Iny 20 mgAMP     1
TI0001034284114U202100000556613600000556613606/12/20210717    31903190239421964320000E1AD0300000199490000000000000                                         LACTATO RINGER USP (HARTMANN)  SOL INY  BOL X 1000ML BAXTERBIN     1
TI0001034284114U202100000556613600000556613606/12/20210707    31901005239421964320000E1AD0300000199490000000000000                                         LACTATO RINGER USP (HARTMANN)  SOL INY  BOL X 1000ML BAXTERBIN     1
TI0001034284114U202100000556613600000556613606/12/20210204     3300010239421964320000N02B1100001464120000000000000                                           PARACETAMOL EP 1000MG/100ML(10MG/ML) SOL INY  CAJ X 10FCOVAL     1
TI0001034284114U202100000556613600000556613606/12/20210634     3300010239421964320000A04AA200003932460000000000000                                                 ONDAX 4MG/2ML(2MG/ML) SOL INY INST CAJ X 1AMP X 2MLAMP     2
