CC0001140820382U202100050131935500050131935506/12/20210825    3150029423942196432000049428500000738570000000000000                                                                       VENDA ELASTICA 6*5 NO ESTERILSOB     2
CC0001140820382U202100050131935500050131935506/12/20210825    3150029423942196432000049419800001679910000000000000                                                                        VENDA ALGODON 6*5 NO ESTERILSOB     1
CC0001140820382U202100050131935500050131935506/12/20210825    3150029423942196432000024674000001138340000000000000   JERINGA 3PARTES C/A 10ML REF JEHL005 CAJ X 100 ALFASAFE  21GX1 PULG 1/2 PULG BN EXENTO-DC.417/202PZA     4
CC0001140820382U202100050131935500050131935506/12/20210825    3150029423942196432000030936900001431840000000000000                                                                                              BURETABOL     1
CC0001140820382U202100050131935500050131935506/12/20210825    31500294239421964320000E1AB0500003888400000000000000                                                              SOLUCION SALINA 0.9% SLN INY X 1000 MLBOL     3
