CC0000003696833U202100050131935900050131935906/12/20210858    3190317523942196432000012473200000232210000000000000                                                                 SUTURA ETHILON 3-0 SC-24 45CM  163TSIN     1
CC0000003696833U202100050131935900050131935906/12/20210858    3190317523942196432000011048600000223020000000000000                                                                 JERINGA VACUNACION 3ML C/AGU 302542SIN     1
CC0000003696833U202100050131935900050131935906/12/20210858    3190317523942196432000011089400001083350000000000000                                                              GUANTE ESTERIL LATEX S/POLVO TALLA 8.0SOB     2
CC0000003696833U202100050131935900050131935906/12/20210858    3190317523942196432000013077800000471960000000000000                                                             GASA NO TEJIDA EST 7.5 X 7.5 SOB X 3 UNSOB     3
CC0000003696833U202100050131935900050131935906/12/20210858    31903175239421964320000E1AB0200000199290000000000000                                                            SOLUCION SALINA 0.9% SLN INY BO X 100 MLBIN     1
