CC0000022492166H202100000556621600000556621606/12/20211502     3300009237421964250000A03F0300001626860000000000000                                                                   METOCLOPRAMIDA SLN INY 10 MG/2 MLAMP     1
CC0000022492166H202100000556621600000556621606/12/20210851     3300009237421964250000A03F0300001626860000000000000                                                                   METOCLOPRAMIDA SLN INY 10 MG/2 MLAMP     2
CC0000022492166H202100000556621600000556621606/12/20212327     3300004237421964250000J01DA300001239950000000000000                                                            CEFAZOLINA SODICA POLVO LIOF SLN INY 1 GVAL     3
CC0000022492166H202100000556621600000556621606/12/20211502     3300009237421964250000A03BB100003889180000000000000                                      HIOSCINA BUTIL BROMURO 20MG/ML SOL INY CAJ X 100AMP X 1ML RYANAMP     1
CC0000022492166H202100000556621600000556621606/12/20210851     3300009237421964250000A03BB100003889180000000000000                                      HIOSCINA BUTIL BROMURO 20MG/ML SOL INY CAJ X 100AMP X 1ML RYANAMP     2
CC0000022492166H202100000556621600000556621606/12/20212327     3300004237421964250000B01AB200000513350000000000000                                                                        CLENOX SLN INY 40 MG/ 0.4 MLJRP     1
CC0000022492166H202100000556621600000556621606/12/20210851     3300009237421964250000A02BC700001684270000000000000                                                            OMEPRAZOL 40MG POLVO LIOFILIZADO AMPOLLAVAL     1
CC0000022492166H202100000556621600000556621606/12/20211030    31903291237421964250000V07A1300000502600000000000000                                                                                AGUA ESTERIL x 10 mlAMP     5
