CC0001143151078H202100015032650300015032650306/12/20211412    3190093323742196425000045136100001419300000000000000                                                                            LANCETA DEXTROMETER X UNPZA     2
CC0000000800641H202100015032650300015032650306/12/20211412    3190093323742196425000045136100001419300000000000000                                                                            LANCETA DEXTROMETER X UNPZA     2
CC0001045670902H202100015032650300015032650306/12/20211412    3190093323742196425000001956000001620610000000000000                                                                      CONECTOR MICRO CLAVE LAT-MC100SOB     1
CC0001045670902H202100015032650300015032650306/12/20211412    31900933237421964250000Q1AA7300000610640000000000000                                                            CATETER PERIFE INTROCAN # 22G 4251628-04SIN     1
CC0001045670902H202100015032650300015032650306/12/20211412    3190093323742196425000016830000000970620000000000000                                                             SIST FIJACION CAT PERIFERICO 6.5X7 1683SOB     1
CC0001143151078H202100015032650300015032650306/12/20211412    3190093323742196425000011137100001419310000000000000                                                               TIRA GLUCOMETRIA FREESTYLE H OPTIUM .PZA     2
CC0000000800641H202100015032650300015032650306/12/20211412    3190093323742196425000011137100001419310000000000000                                                               TIRA GLUCOMETRIA FREESTYLE H OPTIUM .PZA     2
