RC0001019916005U202100050131942100050131942106/12/20211639    3190232723942196432000024674000001138340000000000000   JERINGA 3PARTES C/A 10ML REF JEHL005 CAJ X 100 ALFASAFE  21GX1 PULG 1/2 PULG BN EXENTO-DC.417/202PZA     1
RC0001019916005U202100050131942100050131942106/12/20211639    3190232723942196432000030936900001431840000000000000                                                                                              BURETABOL     1
RC0001019916005U202100050131942100050131942106/12/20211639    31902327239421964320000E1AD0300000199490000000000000                                         LACTATO RINGER USP (HARTMANN)  SOL INY  BOL X 1000ML BAXTERBIN     1
