TI0001066284726H202100015042537700015042537706/12/20212156    3150008223742196425000043485100001618510000000000000                GUANTE QUIRURGICO DE LATEX REF 2D72N65X CAJ X 50 PROTEXIS  6.5 BN EXENTO-DC.417/2020SOB     2
CC0001192925687H202100015042537700015042537706/12/20212156    3150008223742196425000043485100001618510000000000000                GUANTE QUIRURGICO DE LATEX REF 2D72N65X CAJ X 50 PROTEXIS  6.5 BN EXENTO-DC.417/2020SOB     3
TI0001066284726H202100015042537700015042537706/12/20212156    3150008223742196425000042753100003929850000000000000                   GASA ADHESIVA STRETCH REF 02037-00 ROL X 10MT FIXOMULL 10CM BN EXENTO-DC.417/2020CMT    10
CC0001192925687H202100015042537700015042537706/12/20212156    3150008223742196425000042753100003929850000000000000                   GASA ADHESIVA STRETCH REF 02037-00 ROL X 10MT FIXOMULL 10CM BN EXENTO-DC.417/2020CMT    10
TI0001066284726H202100015042537700015042537706/12/20212156    3150008223742196425000022426800001140510000000000000                                                                    EQUIPO MACROGOTEO BAXTER MRC0001SOB     2
TI0001047048202H202100015042537700015042537706/12/20212156    3150008223742196425000022426800001140510000000000000                                                                    EQUIPO MACROGOTEO BAXTER MRC0001SOB     2
CC0000008760986H202100015042537700015042537706/12/20212156    3150008223742196425000022426800001140510000000000000                                                                    EQUIPO MACROGOTEO BAXTER MRC0001SOB     1
RC0001146543342H202100015042537700015042537706/12/20212156    3150008223742196425000011082700001620070000000000000                                                               EQUIPO SET PRIMARIO C/CLAVE REF 14001BOL     1
TI0001066284726H202100015042537700015042537706/12/20212156    3150008223742196425000011082700001620070000000000000                                                               EQUIPO SET PRIMARIO C/CLAVE REF 14001BOL     1
TI0001047048202H202100015042537700015042537706/12/20212156    3150008223742196425000011082700001620070000000000000                                                               EQUIPO SET PRIMARIO C/CLAVE REF 14001BOL     2
CC0000008760986H202100015042537700015042537706/12/20212156    3150008223742196425000011082700001620070000000000000                                                               EQUIPO SET PRIMARIO C/CLAVE REF 14001BOL     1
CC0000041782192H202100015042537700015042537706/12/20212156    3150008223742196425000001956000001620610000000000000                                                                      CONECTOR MICRO CLAVE LAT-MC100SOB     1
CC0001192925687H202100015042537700015042537706/12/20212156    3150008223742196425000001956000001620610000000000000                                                                      CONECTOR MICRO CLAVE LAT-MC100SOB     1
TI0001047048202H202100015042537700015042537706/12/20212156    3150008223742196425000001956000001620610000000000000                                                                      CONECTOR MICRO CLAVE LAT-MC100SOB     2
CC0000032632813H202100015042537700015042537706/12/20212156    3150008223742196425000001956000001620610000000000000                                                                      CONECTOR MICRO CLAVE LAT-MC100SOB     1
CC0000008760986H202100015042537700015042537706/12/20212156    3150008223742196425000001956000001620610000000000000                                                                      CONECTOR MICRO CLAVE LAT-MC100SOB     1
CC0000041782192H202100015042537700015042537706/12/20212156    31500082237421964250000Q1AA7400003911720000000000000                                                            CATETER PERIFE INTROCAN # 24G 4251601-04SOB     2
CC0001192925687H202100015042537700015042537706/12/20212156    31500082237421964250000Q1AA7400003911720000000000000                                                            CATETER PERIFE INTROCAN # 24G 4251601-04SOB     2
CC0000032632813H202100015042537700015042537706/12/20212156    31500082237421964250000Q1AA7400003911720000000000000                                                            CATETER PERIFE INTROCAN # 24G 4251601-04SOB     2
CC0000008760986H202100015042537700015042537706/12/20212156    31500082237421964250000Q1AA7400003911720000000000000                                                            CATETER PERIFE INTROCAN # 24G 4251601-04SOB     2
RC0001146543342H202100015042537700015042537706/12/20212156    3150008223742196425000030936900001431840000000000000                                                                                              BURETABOL     1
TI0001066284726H202100015042537700015042537706/12/20212156    3150008223742196425000030936900001431840000000000000                                                                                              BURETABOL     1
TI0001047048202H202100015042537700015042537706/12/20212156    3150008223742196425000030936900001431840000000000000                                                                                              BURETABOL     1
CC0000008760986H202100015042537700015042537706/12/20212156    3150008223742196425000030936900001431840000000000000                                                                                              BURETABOL     1
CC0000041782192H202100015042537700015042537706/12/20212156    3150008223742196425000016830000000970620000000000000                                                             SIST FIJACION CAT PERIFERICO 6.5X7 1683SOB     1
CC0001192925687H202100015042537700015042537706/12/20212156    3150008223742196425000016830000000970620000000000000                                                             SIST FIJACION CAT PERIFERICO 6.5X7 1683SOB     1
CC0000032632813H202100015042537700015042537706/12/20212156    3150008223742196425000016830000000970620000000000000                                                             SIST FIJACION CAT PERIFERICO 6.5X7 1683SOB     1
CC0000008760986H202100015042537700015042537706/12/20212156    3150008223742196425000016830000000970620000000000000                                                             SIST FIJACION CAT PERIFERICO 6.5X7 1683SOB     1
TI0001047048202H202100015042537700015042537706/12/20212156    31500082237421964250000E1AD0200003888320000000000000                                                                              HARTMAN SLN INY 500 MLBOL     2
CC0001129577696H202100015042537700015042537706/12/20212156    31500082237421964250000E1AD0200003888320000000000000                                                                              HARTMAN SLN INY 500 MLBOL     2
CC0000072277171H202100015042537700015042537706/12/20212156    31500082237421964250000E1AB0300003888390000000000000                                                            SOLUCION SALINA 0.9% SLN INY BO X 500 MLBOL     2
CC0001002134630H202100015042537700015042537706/12/20212156    31500082237421964250000E1AB0300003888390000000000000                                                            SOLUCION SALINA 0.9% SLN INY BO X 500 MLBOL     2
CC0001151478323H202100015042537700015042537706/12/20212156    31500082237421964250000E1AB0300003888390000000000000                                                            SOLUCION SALINA 0.9% SLN INY BO X 500 MLBOL     1
TI0001081819374H202100015042537700015042537706/12/20212156    31500082237421964250000E1AB0300003888390000000000000                                                            SOLUCION SALINA 0.9% SLN INY BO X 500 MLBOL     2
CC0001192925687H202100015042537700015042537706/12/20212156    31500082237421964250000E1AB0300003888390000000000000                                                            SOLUCION SALINA 0.9% SLN INY BO X 500 MLBOL     2
CC0000032632813H202100015042537700015042537706/12/20212156    31500082237421964250000E1AB0300003888390000000000000                                                            SOLUCION SALINA 0.9% SLN INY BO X 500 MLBOL     2
CC0000007411669H202100015042537700015042537706/12/20212156    31500082237421964250000E1AB0300003888390000000000000                                                            SOLUCION SALINA 0.9% SLN INY BO X 500 MLBOL     2
TI0001081819374H202100015042537700015042537706/12/20212156    31500082237421964250000E1AB0700003888350000000000000                                                            SOLUCION SALINA 0.9% SLN INY BO X 250 MLBOL     2
TI0001047048202H202100015042537700015042537706/12/20212156    31500082237421964250000E1AB0700003888350000000000000                                                            SOLUCION SALINA 0.9% SLN INY BO X 250 MLBOL     2
CC0000072277171H202100015042537700015042537706/12/20212156    31500082237421964250000E1AB0200000199290000000000000                                                            SOLUCION SALINA 0.9% SLN INY BO X 100 MLBIN     2
TI0001047048202H202100015042537700015042537706/12/20212156    31500082237421964250000E1AB0200000199290000000000000                                                            SOLUCION SALINA 0.9% SLN INY BO X 100 MLBIN     2
CC0000072277171H202100015042537700015042537706/12/20212156    31500082237421964250000E1AB1100003888280000000000000                                                                        SOLUCION SALINA 0.9% X 50 mlBOL     3
RC0001146543342H202100015042537700015042537706/12/20212156    31500082237421964250000E1AC0100000199400000000000000                                                                          SUERO MIXTO Sln Iny 500 mlBIN     2
TI0001066284726H202100015042537700015042537706/12/20212156    31500082237421964250000E1AC0100000199400000000000000                                                                          SUERO MIXTO Sln Iny 500 mlBIN     3
