RC0001102897681A202100000027829400000027829406/12/20211551    3190333624042196419000020750700000576830000000000000                                                                 PLACA QUIRURGICA  NEONATO REF E7512SIN     1
RC0001102897681A202100000027829400000027829406/12/20211551    3190333624042196419000000400300000661650000000000000                                                            TUBO ENDOTRAQUEAL 3.5MM S/BALON LIFECARESOB     1
RC0001102897681A202100000027829400000027829406/12/20211551    3190333624042196419000011059900000853370000000000000                                                            SENSOR PULSOX ADH LNCS PINE 462329 NEONASOB     1
RC0001102897681A202100000027829400000027829406/12/20211551    31903336240421964190000N1AH0200003906560000000000000                                                                     FENTANIL Iny 0.05 mg/ml x 10 mlAMP     1
RC0001102897681A202100000027829400000027829406/12/20211551    3190333624042196419000011047900000223010000000000000                                                                            JERINGA X 1ML REF 302579SIN     3
RC0001102897681A202100000027829400000027829406/12/20211551    3190333624042196419000011082700001620070000000000000                                                               EQUIPO SET PRIMARIO C/CLAVE REF 14001BOL     1
RC0001102897681A202100000027829400000027829406/12/20211551    31903336240421964190000J01XA400001212420000000000000                                                               VANCOMICINA POLVO LIOF SLN INY 500 MGVAL     1
RC0001102897681A202100000027829400000027829406/12/20211551    31903336240421964190000K0011500000527280000000000000                                                              VALVULA HAKIM HIDROCEFALIA REF 82-3114CIN     1
RC0001102897681A202100000027829400000027829406/12/20211551    3190333624042196419000012474000000232230000000000000                                                                SUTURA ETHILON 4-0 SC-20 45CM 14502TSIN     1
RC0001102897681A202100000027829400000027829406/12/20211551    3190333624042196419000019488700000753270000000000000                                                                              VICRYL 3-0 SH1 VCP311HSOB     2
RC0001102897681A202100000027829400000027829406/12/20211551    3190333624042196419000024674500000322810000000000000                                                                   JERINGA DESECHABLE 20 ml 21*1 1/2SIN     2
RC0001102897681A202100000027829400000027829406/12/20211551    3190333624042196419000011078700000231410000000000000                                                             COTONOIDE REF 801400 DE 1.27CM X 1.27CMSOB     1
RC0001102897681A202100000027829400000027829406/12/20211551    3190333624042196419000000504400000232770000000000000                                                                 SUTURA SEDA NEGRA 0 10 X 75CM SA86TSIN     1
RC0001102897681A202100000027829400000027829406/12/20211551    3190333624042196419000018351100000232850000000000000                                                                                 SEDA 2-0 SC-26 185TSIN     2
RC0001102897681A202100000027829400000027829406/12/20211551    3190333624042196419000019488400000599300000000000000                                                                               VICRYL 2-0 SH VCP317HSIN     1
RC0001102897681A202100000027829400000027829406/12/20211551    3190333624042196419000045138000001413890000000000000                                                                       LAPIZ ELECTROBISTURI  SOB X 1SOB     1
RC0001102897681A202100000027829400000027829406/12/20211551    3190333624042196419000049419500001679890000000000000                                                                        VENDA ALGODON 3*5 NO ESTERILSOB     2
RC0001102897681A202100000027829400000027829406/12/20211551    3190333624042196419000011110600000231980000000000000                                                                       CERA HUESOS 25GM ESTERIL W31GSIN     1
RC0001102897681A202100000027829400000027829406/12/20211551    3190333624042196419000030161400001459220000000000000                                                                       MANGUERA SUCCION 6 MM*3.1 MTSSOB     1
RC0001102897681A202100000027829400000027829406/12/20211551    31903336240421964190000Q1AA6900000531340000000000000                                                            CATETER PERIFE INTROCAN # 14G 4251890-04SIN     1
RC0001102897681A202100000027829400000027829406/12/20211551    3190333624042196419000043879400001138170000000000000                                                                  HOJA BISTURI # 10 CSSB 10 01002000SOB     1
RC0001102897681A202100000027829400000027829406/12/20211551    3190333624042196419000043879100001138200000000000000                                                                  HOJA BISTURI # 15 CSSB 15 01002003SOB     2
RC0001102897681A202100000027829400000027829406/12/20211551    3190333624042196419000022425200000548240000000000000                       EXTENSION DE ANESTESIA REF 1139 SOB X 1 SHERLEG  ADULTO BN EXENTO-DC.417/2020SIN     1
RC0001102897681A202100000027829400000027829406/12/20211551    3190333624042196419000022425100001392880000000000000             EQUIPO MICROGOTEO SIN AGUJA REF 201000 PAQ X 100 SOB GOTHAPLAST   BN EXENTO-DC.417/2020BOL     1
RC0001102897681A202100000027829400000027829406/12/20211551    3190333624042196419000035356500003919000000000000000                                                                                        LLAVE 3 VIASSOB     2
RC0001102897681A202100000027829400000027829406/12/20211551    31903336240421964190000Q1AA7400003911720000000000000                                                            CATETER PERIFE INTROCAN # 24G 4251601-04SOB     1
RC0001102897681A202100000027829400000027829406/12/20211551    3190333624042196419000011073300001096420000000000000                                                                BOLSA DE SUCCION DE FLUIDOS x 2500mLBOL     1
RC0001102897681A202100000027829400000027829406/12/20211551    3190333624042196419000053074400000607910000000000000                                                               GASA ESTERIL 10*10 SOBRE X 3 UNIDADESSOB     4
RC0001102897681A202100000027829400000027829406/12/20211551    3190333624042196419000011085300001082140000000000000                                                                           GUANTE QUIRURGICO TALLA 8SOB     2
RC0001102897681A202100000027829400000027829406/12/20211551    3190333624042196419000011085200001585390000000000000                                                                       GUANTE QUIRURGICO TALLA 7 1/2SOB     2
RC0001102897681A202100000027829400000027829406/12/20211551    3190333624042196419000011085100001082120000000000000                                                                           GUANTE QUIRURGICO TALLA 7SOB     2
RC0001102897681A202100000027829400000027829406/12/20211551    3190333624042196419000043485100001618510000000000000                GUANTE QUIRURGICO DE LATEX REF 2D72N65X CAJ X 50 PROTEXIS  6.5 BN EXENTO-DC.417/2020SOB     2
RC0001102897681A202100000027829400000027829406/12/20211551    3190333624042196419000000400100000258110000000000000                                                              TUBO ENDOTRAQUEAL 3.5 Fr C/BALON 86443SOB     1
RC0001102897681A202100000027829400000027829406/12/20211551    3190333624042196419000051515100000598120000000000000                                                                            MASCARILLA ANESTESIA # 1SIN     1
RC0001102897681A202100000027829400000027829406/12/20211551    31903336240421964190000Q1A11800000258040000000000000                                                                         CANULA OXIGENO NASAL PEDIATSIN     1
RC0001102897681A202100000027829400000027829406/12/20211551    3190333624042196419000020058100001101630000000000000                                                                     AGUJA HIPODERMICA DESECH 23 X 1SOB     1
RC0001102897681A202100000027829400000027829406/12/20211551    3190333624042196419000011099300000777780000000000000                                                                     FILTRO BACTERIANO VIRICO ADULTOBOL     1
RC0001102897681A202100000027829400000027829406/12/20211551    3190333624042196419000031011300000762710000000000000                                                                            CANULA GUEDEL #2 (80 MM)SOB     1
RC0001102897681A202100000027829400000027829406/12/20211551    3190333624042196419000024673000001411210000000000000                                                                  JERINGA DESECHABLE 3 ML 21 X 1 1/2SOB     1
RC0001102897681A202100000027829400000027829406/12/20211551    3190333624042196419000024674000001138340000000000000   JERINGA 3PARTES C/A 10ML REF JEHL005 CAJ X 100 ALFASAFE  21GX1 PULG 1/2 PULG BN EXENTO-DC.417/202PZA     3
RC0001102897681A202100000027829400000027829406/12/20211551    31903336240421964190000E1AB0300003888390000000000000                                                            SOLUCION SALINA 0.9% SLN INY BO X 500 MLBOL     1
RC0001102897681A202100000027829400000027829406/12/20211551    31903336240421964190000E1AB0700003888350000000000000                                                            SOLUCION SALINA 0.9% SLN INY BO X 250 MLBOL     2
RC0001102897681A202100000027829400000027829406/12/20211551    31903336240421964190000E1AB0200000199290000000000000                                                            SOLUCION SALINA 0.9% SLN INY BO X 100 MLBIN     2
RC0001102897681A202100000027829400000027829406/12/20211551    31903336240421964190000N01B1200000220020000000000000                                                                        ROXICAINA 1% C/E Iny x 20 mlFCO     1
RC0001102897681A202100000027829400000027829406/12/20211551    31903336240421964190000N2BB0100001672010000000000000                                  DIPIRONA 1GR/2ML(0.5GR/ML) SOL INY INST CAJ X 100AMP X 2ML VITALISAMP     1
RC0001102897681A202100000027829400000027829406/12/20211551    31903336240421964190000N07AA100001233170000000000000                                               NEOSTIGMINA 0.5MG/ML SOL INY INST CAJ X 10AMP VITALISAMP     1
RC0001102897681A202100000027829400000027829406/12/20211551    31903336240421964190000A3BA0100001109400000000000000                                                                          ATROPINA SLN INY 1 MG / MLAMP     1
RC0001102897681A202100000027829400000027829406/12/20211551    31903336240421964190000N1AX0100003889000000000000000                                                                       KETAMINA Iny 50 mg/ml x 10 mlVAL     1
