CC0000019490174H202100918755120600918755120606/12/20210950    3190145023742196425000011047900000223010000000000000                                                                            JERINGA X 1ML REF 302579SIN    10
CC0000019490174H202100918755120600918755120606/12/20210950    3190145023742196425000011137100001419310000000000000                                                               TIRA GLUCOMETRIA FREESTYLE H OPTIUM .PZA     8
CC0000019490174H202100918755120600918755120606/12/20210950    3190145023742196425000024674000001138340000000000000   JERINGA 3PARTES C/A 10ML REF JEHL005 CAJ X 100 ALFASAFE  21GX1 PULG 1/2 PULG BN EXENTO-DC.417/202PZA    10
CC0000019490174H202100918755120600918755120606/12/20210950    3190145023742196425000045136100001419300000000000000                                                                            LANCETA DEXTROMETER X UNPZA     8
CC0000019490174H202100918755120600918755120606/12/20210950    31901450237421964250000E1AB0200000199290000000000000                                                            SOLUCION SALINA 0.9% SLN INY BO X 100 MLBIN     5
