RC0001048086567U202100000556641800000556641806/12/20211907     3300004239421964320000A6AG0100001107060000000000000                                                            ENEMA RECTAL FOSTATO SODIO BO X 133ML /RBOL     1
RC0001048086567U202100000556641800000556641806/12/20211900    31903175239421964320000E1AB0200000199290000000000000                                                            SOLUCION SALINA 0.9% SLN INY BO X 100 MLBIN     1
RC0001048086567U202100000556641800000556641806/12/20211907     3300004239421964320000N2BE1100000836430000000000000                                             ACETAMINOFEN 150MG/5ML(3%) JBE INST FCO X 60ML AMER GENCAJ     1
