CC0000072142637H202100000556619400000556619406/12/20212245    31902961237421964250000E1AB0300003888390000000000000                                                            SOLUCION SALINA 0.9% SLN INY BO X 500 MLBOL     1
CC0000072142637H202100000556619400000556619406/12/20211223     3300009237421964250000H02A0100001664960000000000000                                                                        DEXAMETASONA SLN INY 4 MG/MLAMP     1
CC0000072142637H202100000556619400000556619406/12/20210944     3300009237421964250000H02A0100001664960000000000000                                                                        DEXAMETASONA SLN INY 4 MG/MLAMP     2
CC0000072142637H202100000556619400000556619406/12/20211719     3300009237421964250000J01DA300001239950000000000000                                                            CEFAZOLINA SODICA POLVO LIOF SLN INY 1 GVAL     3
CC0000072142637H202100000556619400000556619406/12/20210944     3300009237421964250000M1AE2500000191550000000000000                                                            PROFENID POLVO LIOF SLN INY 100MG/2ML/R/AMP     1
CC0000072142637H202100000556619400000556619406/12/20210718     3300009237421964250000M1AE2500000191550000000000000                                                            PROFENID POLVO LIOF SLN INY 100MG/2ML/R/AMP     1
CC0000072142637H202100000556619400000556619406/12/20211223     3300009237421964250000N2AX0500001204110000000000000                                                                          TRAMAL SLN INY 100 MG / MLAMP     1
CC0000072142637H202100000556619400000556619406/12/20210944     3300009237421964250000N2AX0500001204110000000000000                                                                          TRAMAL SLN INY 100 MG / MLAMP     2
CC0000072142637H202100000556619400000556619406/12/20212036     3300004237421964250000N02B1100001464120000000000000                                           PARACETAMOL EP 1000MG/100ML(10MG/ML) SOL INY  CAJ X 10FCOVAL     2
CC0000072142637H202100000556619400000556619406/12/20211720     3300009237421964250000N02B1100001464120000000000000                                           PARACETAMOL EP 1000MG/100ML(10MG/ML) SOL INY  CAJ X 10FCOVAL     2
CC0000072142637H202100000556619400000556619406/12/20210944     3300009237421964250000N03A1500001316220000000000000                                                                               LYRICA CAP 150 MG /R/CAP     2
CC0000072142637H202100000556619400000556619406/12/20212258     3300004237421964250000N5BA0600001278070000000000000                                                                                    XANAX Tab 0.5 mgTAB     1
