MS0010053369121H202100000556642000000556642006/12/20211918    31903117237421964250000V3AB2200000614150000000000000                                                            GLUCONATO CALCIO SLN INY 10% AMP X 10 MLAPC     1
MS0010053369121H202100000556642000000556642006/12/20211918    31903117237421964250000A12CA200001239800000000000000                     BICARBONATO SODIO 10MEQ/10ML(1MEQ/ML) SOL INY  CAJ X 100AMPX10ML FRESENIUS KABIAMP     2
MS0010053369121H202100000556642000000556642006/12/20211918    31903117237421964250000A12CA100001109460000000000000                                                              CLORURO SODIO SLN INY 2 MEQ/ML X 10 MLAMP     1
MS0010053369121H202100000556642000000556642006/12/20211918    31903117237421964250000C01CA100001395620000000000000                                                                    DOBUTAMINA SLN INY 250 MG / 5 MLVAL     1
MS0010053369121H202100000556642000000556642006/12/20211918    31903117237421964250000J1CA0300001119820000000000000                                                                           AMPICILINA SLN INY 500 MGAMP     1
MS0010053369121H202100000556642000000556642006/12/20211918    31903117237421964250000N2AA0100000301640000000000000                                                                            MORFINA Sln Iny 10 mg/mlAMP     1
