CC0000013887621H202100015112740400015112740406/12/20210851    3190294123742196425000038569400000256750000000000000                                                                        SONDA ASPIRACION CONTROL #14SIN     6
CC0001129564191H202100015112740400015112740406/12/20210851    3190294123742196425000038569400000256750000000000000                                                                        SONDA ASPIRACION CONTROL #14SIN     6
CC0000019490174H202100015112740400015112740406/12/20210851    3190294123742196425000038569400000256750000000000000                                                                        SONDA ASPIRACION CONTROL #14SIN     6
CC0001143115935H202100015112740400015112740406/12/20210851    3190294123742196425000038569400000256750000000000000                                                                        SONDA ASPIRACION CONTROL #14SIN     6
CC0000013887621H202100015112740400015112740406/12/20210851    3190294123742196425000022108000003906060000000000000                                                            SIST CERRAD ASPIRAC TRACH  22108-5 14 FRSOB     1
CC0001129564191H202100015112740400015112740406/12/20210851    3190294123742196425000022108000003906060000000000000                                                            SIST CERRAD ASPIRAC TRACH  22108-5 14 FRSOB     1
CC0000019490174H202100015112740400015112740406/12/20210851    3190294123742196425000022108000003906060000000000000                                                            SIST CERRAD ASPIRAC TRACH  22108-5 14 FRSOB     1
CC0000007452098H202100015112740400015112740406/12/20210851    3190294123742196425000022108000003906060000000000000                                                            SIST CERRAD ASPIRAC TRACH  22108-5 14 FRSOB     1
CC0000013887621H202100015112740400015112740406/12/20210851    3190294123742196425000011089100001083330000000000000                                                              GUANTE ESTERIL LATEX S/POLVO TALLA 6.5SOB     6
CC0001129564191H202100015112740400015112740406/12/20210851    3190294123742196425000011089100001083330000000000000                                                              GUANTE ESTERIL LATEX S/POLVO TALLA 6.5SOB     6
CC0000019490174H202100015112740400015112740406/12/20210851    3190294123742196425000011089100001083330000000000000                                                              GUANTE ESTERIL LATEX S/POLVO TALLA 6.5SOB     6
CC0001143115935H202100015112740400015112740406/12/20210851    3190294123742196425000011089100001083330000000000000                                                              GUANTE ESTERIL LATEX S/POLVO TALLA 6.5SOB     6
CC0000013887621H202100015112740400015112740406/12/20210851    3190294123742196425000013077800000471960000000000000                                                             GASA NO TEJIDA EST 7.5 X 7.5 SOB X 3 UNSOB     4
CC0001129564191H202100015112740400015112740406/12/20210851    3190294123742196425000013077800000471960000000000000                                                             GASA NO TEJIDA EST 7.5 X 7.5 SOB X 3 UNSOB     4
CC0000019490174H202100015112740400015112740406/12/20210851    3190294123742196425000013077800000471960000000000000                                                             GASA NO TEJIDA EST 7.5 X 7.5 SOB X 3 UNSOB     6
CC0001143115935H202100015112740400015112740406/12/20210851    3190294123742196425000013077800000471960000000000000                                                             GASA NO TEJIDA EST 7.5 X 7.5 SOB X 3 UNSOB     4
CC0000013887621H202100015112740400015112740406/12/20210851    3190294123742196425000011084700000516550000000000000                                                                FILTRO CALOR-HUMEDAD AD REF 352/5877SIN     1
CC0001129564191H202100015112740400015112740406/12/20210851    3190294123742196425000011084700000516550000000000000                                                                FILTRO CALOR-HUMEDAD AD REF 352/5877SIN     1
CC0000019490174H202100015112740400015112740406/12/20210851    3190294123742196425000011084700000516550000000000000                                                                FILTRO CALOR-HUMEDAD AD REF 352/5877SIN     1
CC0001143115935H202100015112740400015112740406/12/20210851    3190294123742196425000011084700000516550000000000000                                                                FILTRO CALOR-HUMEDAD AD REF 352/5877SIN     1
CC0000013887621H202100015112740400015112740406/12/20210851    3190294123742196425000020816000001096410000000000000                                                                          LINER PARED DELGADA 1500CCBOL     1
CC0000019490174H202100015112740400015112740406/12/20210851    3190294123742196425000020816000001096410000000000000                                                                          LINER PARED DELGADA 1500CCBOL     1
