PA0000671692499A202100000027833400000027833406/12/20210833    31903336240421964190000E1AA0100003888590000000000000                                                                        DEXTROSA 5% Sln Iny X 500 mlBOL     1
PA0000671692499A202100000027833400000027833406/12/20210833    31903336240421964190000D03A0300000213220000000000000                                                                        FITOSTIMOLINE CREMA 15% 32 GTUB     1
PA0000671692499A202100000027833400000027833406/12/20210833    3190333624042196419000029958600000879890000000000000                                                                              PDS 6-0 2C1 75 PDP127HSOB     1
PA0000671692499A202100000027833400000027833406/12/20210833    3190333624042196419000043879100001138200000000000000                                                                  HOJA BISTURI # 15 CSSB 15 01002003SOB     1
PA0000671692499A202100000027833400000027833406/12/20210833    3190333624042196419000053074400000607910000000000000                                                               GASA ESTERIL 10*10 SOBRE X 3 UNIDADESSOB     3
PA0000671692499A202100000027833400000027833406/12/20210833    3190333624042196419000045138000001413890000000000000                                                                       LAPIZ ELECTROBISTURI  SOB X 1SOB     1
PA0000671692499A202100000027833400000027833406/12/20210833    3190333624042196419000020750700000576830000000000000                                                                 PLACA QUIRURGICA  NEONATO REF E7512SIN     1
PA0000671692499A202100000027833400000027833406/12/20210833    3190333624042196419000024674000001138340000000000000   JERINGA 3PARTES C/A 10ML REF JEHL005 CAJ X 100 ALFASAFE  21GX1 PULG 1/2 PULG BN EXENTO-DC.417/202PZA     2
PA0000671692499A202100000027833400000027833406/12/20210833    3190333624042196419000011047900000223010000000000000                                                                            JERINGA X 1ML REF 302579SIN     1
PA0000671692499A202100000027833400000027833406/12/20210833    3190333624042196419000011085300001082140000000000000                                                                           GUANTE QUIRURGICO TALLA 8SOB     1
PA0000671692499A202100000027833400000027833406/12/20210833    3190333624042196419000011085100001082120000000000000                                                                           GUANTE QUIRURGICO TALLA 7SOB     2
PA0000671692499A202100000027833400000027833406/12/20210833    3190333624042196419000043485100001618510000000000000                GUANTE QUIRURGICO DE LATEX REF 2D72N65X CAJ X 50 PROTEXIS  6.5 BN EXENTO-DC.417/2020SOB     1
PA0000671692499A202100000027833400000027833406/12/20210833    31903336240421964190000E1AB0200000199290000000000000                                                            SOLUCION SALINA 0.9% SLN INY BO X 100 MLBIN     1
PA0000671692499A202100000027833400000027833406/12/20210833    31903336240421964190000N01B1300001195250000000000000                                                                         BUPIROP 0.5% S/EPIN X 10 MLAMP     1
PA0000671692499A202100000027833400000027833406/12/20210833    31903336240421964190000N01B0200003888110000000000000                                           ROXICAINA SE 100MG/10ML(1%) SOL INY CAJ X 24AMPACK X 10MLAPC     1
