CC0000022352292H202100000556644700000556644706/12/20212242    31500170237421964250000A03F0300001626860000000000000                                                                   METOCLOPRAMIDA SLN INY 10 MG/2 MLAMP     4
CC0000022352292H202100000556644700000556644706/12/20212242    31500170237421964250000V3AB2200000614150000000000000                                                            GLUCONATO CALCIO SLN INY 10% AMP X 10 MLAPC     2
CC0000022352292H202100000556644700000556644706/12/20212242    31500170237421964250000A12BA100000552980000000000000                                                            CLORURO POTASIO Sln Iny AMP 20 MEQ/10 MLAMP     6
CC0000022352292H202100000556644700000556644706/12/20212242    31500170237421964250000C09CA400001277130000000000000                                                                                  LOSARTAN TAB 50 MGTAB     3
CC0000022352292H202100000556644700000556644706/12/20212242    31500170237421964250000J01XA400001212420000000000000                                                               VANCOMICINA POLVO LIOF SLN INY 500 MGVAL     3
CC0000022352292H202100000556644700000556644706/12/20212242    31500170237421964250000N02B1100001464120000000000000                                           PARACETAMOL EP 1000MG/100ML(10MG/ML) SOL INY  CAJ X 10FCOVAL     5
CC0000022352292H202100000556644700000556644706/12/20212242    31500170237421964250000C7AB0100001276990000000000000                                                                            BETOPROLOL TAB 50 MG /R/TAB     3
CC0000022352292H202100000556644700000556644706/12/20212242    31500170237421964250000C08CA200001277660000000000000                                                                                 AMLODIPINO TAB 5 MGTAB     1
CC0000022352292H202100000556644700000556644706/12/20212242    31500170237421964250000H03AA200001391520000000000000                                                                            LEVOTIROXINA TAB 100 MCGTAB     1
CC0000022352292H202100000556644700000556644706/12/20212242    31500170237421964250000H03AA100001391540000000000000                                                                             LEVOTIROXINA TAB 50 MCGTAB     1
CC0000022352292H202100000556644700000556644706/12/20212242    31500170237421964250000A02BC700001684270000000000000                                                            OMEPRAZOL 40MG POLVO LIOFILIZADO AMPOLLAVAL     1
