CC0001110454121U202100050131937300050131937306/12/20211054    3190286423942196432000017566600000232710000000000000                                                                       PROLENE 5-0 PS-2 45 CM P8686TSIN     1
CC0001110454121U202100050131937300050131937306/12/20211054    3190286423942196432000024673600000222980000000000000                                                                     JERINGA DESECHABLE 5 ml 27*11/2SIN     1
CC0000072174737U202100050131937300050131937306/12/20211054    3190286423942196432000024673600000222980000000000000                                                                     JERINGA DESECHABLE 5 ml 27*11/2SIN     1
