RC0001019916005A202100000027840600000027840606/12/20211833    3190333624042196419000011075800000235280000000000000                                                               CABESTRILLO SENCILLO KM2001 PEDIATRICBOL     1
RC0001019916005A202100000027840600000027840606/12/20211833    3190333624042196419000043879500001138210000000000000                                                                                    HOJA BISTURI #20SOB     1
RC0001019916005A202100000027840600000027840606/12/20211833    3190333624042196419000049419700001679920000000000000                                                                        VENDA ALGODON 5*5 NO ESTERILSOB     1
RC0001019916005A202100000027840600000027840606/12/20211833    3190333624042196419000019429600000455480000000000000                                                                                      VENDA YESO 3*5BIN     2
RC0001019916005A202100000027840600000027840606/12/20211833    31903336240421964190000N02B1100001464120000000000000                                           PARACETAMOL EP 1000MG/100ML(10MG/ML) SOL INY  CAJ X 10FCOVAL     1
RC0001019916005A202100000027840600000027840606/12/20211833    31903336240421964190000Q1AA7300000610640000000000000                                                            CATETER PERIFE INTROCAN # 22G 4251628-04SIN     1
RC0001019916005A202100000027840600000027840606/12/20211833    31903336240421964190000Q1AA7400003911720000000000000                                                            CATETER PERIFE INTROCAN # 24G 4251601-04SOB     1
RC0001019916005A202100000027840600000027840606/12/20211833    3190333624042196419000024673000001411210000000000000                                                                  JERINGA DESECHABLE 3 ML 21 X 1 1/2SOB     1
RC0001019916005A202100000027840600000027840606/12/20211833    3190333624042196419000024673600000222980000000000000                                                                     JERINGA DESECHABLE 5 ml 27*11/2SIN     1
RC0001019916005A202100000027840600000027840606/12/20211833    3190333624042196419000024674000001138340000000000000   JERINGA 3PARTES C/A 10ML REF JEHL005 CAJ X 100 ALFASAFE  21GX1 PULG 1/2 PULG BN EXENTO-DC.417/202PZA     1
RC0001019916005A202100000027840600000027840606/12/20211833    3190333624042196419000011085300001082140000000000000                                                                           GUANTE QUIRURGICO TALLA 8SOB     3
RC0001019916005A202100000027840600000027840606/12/20211833    3190333624042196419000011085100001082120000000000000                                                                           GUANTE QUIRURGICO TALLA 7SOB     2
RC0001019916005A202100000027840600000027840606/12/20211833    3190333624042196419000043485100001618510000000000000                GUANTE QUIRURGICO DE LATEX REF 2D72N65X CAJ X 50 PROTEXIS  6.5 BN EXENTO-DC.417/2020SOB     1
RC0001019916005A202100000027840600000027840606/12/20211833    3190333624042196419000051515300000598140000000000000                                                                            MASCARILLA ANESTESIA # 3SIN     1
RC0001019916005A202100000027840600000027840606/12/20211833    3190333624042196419000011099300000777780000000000000                                                                     FILTRO BACTERIANO VIRICO ADULTOBOL     1
RC0001019916005A202100000027840600000027840606/12/20211833    3190333624042196419000011065700003914100000000000000                                                                 TAPON HEPARINIZADO 4238010  B BRAUNSOB     1
