CC0000022265715U202100050131945600050131945606/12/20212101    3150026323942196432000038568400000256940000000000000                                                                                   SONDA NELATON #10SIN     1
CC0000022265715U202100050131945600050131945606/12/20212101    3150026323942196432000043485100001618510000000000000                GUANTE QUIRURGICO DE LATEX REF 2D72N65X CAJ X 50 PROTEXIS  6.5 BN EXENTO-DC.417/2020SOB     2
CC0000022265715U202100050131945600050131945606/12/20212101    3150026323942196432000013077800000471960000000000000                                                             GASA NO TEJIDA EST 7.5 X 7.5 SOB X 3 UNSOB     2
