CC0000022265715U202100050131947300050131947306/12/20212324    3150035523942196432000038570000001123500000000000000                                                                              SONDA FOLEY #16 2 VIASSOB     2
CC0000022265715U202100050131947300050131947306/12/20212324    3150035523942196432000024674000001138340000000000000   JERINGA 3PARTES C/A 10ML REF JEHL005 CAJ X 100 ALFASAFE  21GX1 PULG 1/2 PULG BN EXENTO-DC.417/202PZA     2
CC0000022265715U202100050131947300050131947306/12/20212324    3150035523942196432000013077800000471960000000000000                                                             GASA NO TEJIDA EST 7.5 X 7.5 SOB X 3 UNSOB     5
CC0000022265715U202100050131947300050131947306/12/20212324    3150035523942196432000031188000000236790000000000000                                                                                     CISTOFLO ADULTOSIN     1
CC0000022265715U202100050131947300050131947306/12/20212324    31500355239421964320000E1AB0200000199290000000000000                                                            SOLUCION SALINA 0.9% SLN INY BO X 100 MLBIN     1
