TI0001121302704H202100000556608400000556608406/12/20210849     3300009237421964250000A2BC0900000200150000000000000                                                                               ORAZOLE Sln Iny 40 mgCIN     1
TI0001121302704H202100000556608400000556608406/12/20212320     3300004237421964250000A02BC100001677520000000000000                                                                ESOMEPRAZOL POLVO LIOF INY 40 MG /R/VAL     1
TI0001121302704H202100000556608400000556608406/12/20210850     3300009237421964250000A4AD0200000202990000000000000                                                                     PLITICAN HCL Sln Iny 50 mg/2 mlAMP     1
TI0001121302704H202100000556608400000556608406/12/20212320     3300004237421964250000A3BB0200000512940000000000000                                                                          BUSCAPINA SIMPLE Iny 20 mgAMP     1
TI0001121302704H202100000556608400000556608406/12/20210849     3300009237421964250000A3BB0200000512940000000000000                                                                          BUSCAPINA SIMPLE Iny 20 mgAMP     1
TI0001121302704H202100000556608400000556608406/12/20210030     3300004237421964250000A3BB0200000512940000000000000                                                                          BUSCAPINA SIMPLE Iny 20 mgAMP     1
TI0001121302704H202100000556608400000556608406/12/20211501     3300009237421964250000A07F0600001089820000000000000                                                                     FLORATIL POLVO SOBRE 250 MG /R/SOB     1
TI0001121302704H202100000556608400000556608406/12/20210849     3300009237421964250000A07F0600001089820000000000000                                                                     FLORATIL POLVO SOBRE 250 MG /R/SOB     1
TI0001121302704H202100000556608400000556608406/12/20210630    31902606237421964250000E1AA0100003888590000000000000                                                                        DEXTROSA 5% Sln Iny X 500 mlBOL     3
TI0001121302704H202100000556608400000556608406/12/20212321     3300004237421964250000A12CA100001109460000000000000                                                              CLORURO SODIO SLN INY 2 MEQ/ML X 10 MLAMP     2
TI0001121302704H202100000556608400000556608406/12/20210849     3300009237421964250000A12CA100001109460000000000000                                                              CLORURO SODIO SLN INY 2 MEQ/ML X 10 MLAMP     6
TI0001121302704H202100000556608400000556608406/12/20212320     3300004237421964250000J1DA3100000187510000000000000                                                                           ROCEFIN Polvo SLN INY 1 GCIN     2
TI0001121302704H202100000556608400000556608406/12/20210850     3300009237421964250000J1DA3100000187510000000000000                                                                           ROCEFIN Polvo SLN INY 1 GCIN     2
TI0001121302704H202100000556608400000556608406/12/20210850     3300009237421964250000L01XX500001336660000000000000                                                                              HYDROXYUREA CAP 500 MGCAP     1
TI0001121302704H202100000556608400000556608406/12/20212320     3300004237421964250000N02B1100001464120000000000000                                           PARACETAMOL EP 1000MG/100ML(10MG/ML) SOL INY  CAJ X 10FCOVAL     1
TI0001121302704H202100000556608400000556608406/12/20210849     3300009237421964250000V6DB0800001286840000000000000                                                                          PEDIASURE LIQUIDO X 237 MLFCO     2
TI0001121302704H202100000556608400000556608406/12/20211030    31903291237421964250000V07A1300000502600000000000000                                                                                AGUA ESTERIL x 10 mlAMP     5
