CC0000022467890U202100050131935000050131935006/12/20210729    3190099523942196432000043879400001138170000000000000                                                                  HOJA BISTURI # 10 CSSB 10 01002000SOB     1
CC0000022467890U202100050131935000050131935006/12/20210729    3190099523942196432000043485100001618510000000000000                GUANTE QUIRURGICO DE LATEX REF 2D72N65X CAJ X 50 PROTEXIS  6.5 BN EXENTO-DC.417/2020SOB     2
CC0000022467890U202100050131935000050131935006/12/20210729    3190099523942196432000013077800000471960000000000000                                                             GASA NO TEJIDA EST 7.5 X 7.5 SOB X 3 UNSOB    15
CC0000022467890U202100050131935000050131935006/12/20210729    3190099523942196432000042753100003929850000000000000                   GASA ADHESIVA STRETCH REF 02037-00 ROL X 10MT FIXOMULL 10CM BN EXENTO-DC.417/2020CMT   120
CC0000022467890U202100050131935000050131935006/12/20210729    3190099523942196432000001633100001166650000000000000                                                                            CUTIMED SORBACT 7 X 9 CMSOB     1
CC0000022467890U202100050131935000050131935006/12/20210729    3190099523942196432000042743400003929880000000000000                                    CINTA ADHESIVA TRANSPARENT REF 72216-01 ROL X 10MT FIXOMULL 10CMCMT   100
CC0000022467890U202100050131935000050131935006/12/20210729    3190099523942196432000041997300001271950000000000000                                                                    APOSITO DUODERM CGF 10X10 187600SOB     1
CC0000022467890U202100050131935000050131935006/12/20210729    3190099523942196432000021593100001571610000000000000                                                                    AQUACEL AG+ EXTRA 10*10CM 413567SOB     1
CC0000022467890U202100050131935000050131935006/12/20210729    3190099523942196432000020056600001101530000000000000                                                                AGUJA HIPODERMICA DESECH 18G X 1 1/2SOB     1
CC0000022467890U202100050131935000050131935006/12/20210729    31900995239421964320000E1AB0700003888350000000000000                                                            SOLUCION SALINA 0.9% SLN INY BO X 250 MLBOL     1
