CC0001045695003U202100050131936400050131936406/12/20211017    3190232723942196432000001956000001620610000000000000                                                                      CONECTOR MICRO CLAVE LAT-MC100SOB     1
CC0001045695003U202100050131936400050131936406/12/20211017    31902327239421964320000Q1AA7100000610620000000000000                                                            CATETER PERIFE INTROCAN # 18G 4251687-04SIN     1
CC0001045695003U202100050131936400050131936406/12/20211017    31902327239421964320000Q1AA3300001585140000000000000                                                                         APOSITO TEGADERM 10*12 1626SOB     1
