CC0000013887621H202100015112741600015112741606/12/20211542    3190145023742196425000018351500000232840000000000000                                                                                    SEDA 2-0 KS 623HSIN     1
CC0000013887621H202100015112741600015112741606/12/20211542    3190145023742196425000011051900000226360000000000000                                                               KIT TRANSDUCTOR SENCILLO S/VAMP PX260SOB     1
CC0000013887621H202100015112741600015112741606/12/20211542    3190145023742196425000043879200001138180000000000000                                                                                   HOJA BISTURI # 11SOB     1
CC0000013887621H202100015112741600015112741606/12/20211542    3190145023742196425000011085100001082120000000000000                                                                           GUANTE QUIRURGICO TALLA 7SOB     2
CC0000013887621H202100015112741600015112741606/12/20211542    3190145023742196425000013077800000471960000000000000                                                             GASA NO TEJIDA EST 7.5 X 7.5 SOB X 3 UNSOB    10
CC0000013887621H202100015112741600015112741606/12/20211542    3190145023742196425000042743200003929860000000000000                   GASA ADHESIVA STRETCH REF 02038-00 ROL X 10MT FIXOMULL 15CM BN EXENTO-DC.417/2020CMT   100
CC0000013887621H202100015112741600015112741606/12/20211542    31901450237421964250000Q1A11500000331560000000000000                                                                     CATETER RADIAL #20 REF. 115.090SIN     1
CC0000013887621H202100015112741600015112741606/12/20211542    31901450237421964250000E1AB0500003888400000000000000                                                              SOLUCION SALINA 0.9% SLN INY X 1000 MLBOL     1
CC0000022448180H202100015112741600015112741606/12/20211542    31901450237421964250000E1AB0500003888400000000000000                                                              SOLUCION SALINA 0.9% SLN INY X 1000 MLBOL     1
