CC0001102230882U202100050131946400050131946406/12/20212147    3150058923942196432000011048600000223020000000000000                                                                 JERINGA VACUNACION 3ML C/AGU 302542SIN     1
CC0001102230882U202100050131946400050131946406/12/20212147    3150058923942196432000024674000001138340000000000000   JERINGA 3PARTES C/A 10ML REF JEHL005 CAJ X 100 ALFASAFE  21GX1 PULG 1/2 PULG BN EXENTO-DC.417/202PZA     2
CC0000022467890U202100050131946400050131946406/12/20212147    3150058923942196432000024674000001138340000000000000   JERINGA 3PARTES C/A 10ML REF JEHL005 CAJ X 100 ALFASAFE  21GX1 PULG 1/2 PULG BN EXENTO-DC.417/202PZA     2
CC0001102230882U202100050131946400050131946406/12/20212147    3150058923942196432000030936900001431840000000000000                                                                                              BURETABOL     1
