TI0001066284726H202100901043120600901043120606/12/20212238    3150008223742196425000011082700001620070000000000000                                                               EQUIPO SET PRIMARIO C/CLAVE REF 14001BOL     1
TI0001066284726H202100901043120600901043120606/12/20212238    3150008223742196425000022426800001140510000000000000                                                                    EQUIPO MACROGOTEO BAXTER MRC0001SOB     2
TI0001066284726H202100901043120600901043120606/12/20212238    3150008223742196425000030936900001431840000000000000                                                                                              BURETABOL     1
TI0001066284726H202100901043120600901043120606/12/20212238    3150008223742196425000042753100003929850000000000000                   GASA ADHESIVA STRETCH REF 02037-00 ROL X 10MT FIXOMULL 10CM BN EXENTO-DC.417/2020CMT    10
TI0001066284726H202100901043120600901043120606/12/20212238    3150008223742196425000043485100001618510000000000000                GUANTE QUIRURGICO DE LATEX REF 2D72N65X CAJ X 50 PROTEXIS  6.5 BN EXENTO-DC.417/2020SOB     2
