CC0000007444684H202100000556615800000556615806/12/20211551     3300009237421964250000A6AC0200001467010000000000000                                                             LACTULAX JARABE 66.7G/100ML SOX15ML /R/SOB     4
CC0000007444684H202100000556615800000556615806/12/20210756     3300009237421964250000A07A0500001278160000000000000                                                                               IFAXIM TAB 200 MG /R/TAB     1
CC0000007444684H202100000556615800000556615806/12/20211906     3300009237421964250000B2BA0300000215330000000000000                                                              KONAKION MM PEDIAT SLN INY 2 MG/0.2 MLAMP    10
CC0000007444684H202100000556615800000556615806/12/20211900    31900998237421964250000E1AB0200000199290000000000000                                                            SOLUCION SALINA 0.9% SLN INY BO X 100 MLBIN     8
CC0000007444684H202100000556615800000556615806/12/20211900    31900998237421964250000E1AB0500003888400000000000000                                                              SOLUCION SALINA 0.9% SLN INY X 1000 MLBOL     3
CC0000007444684H202100000556615800000556615806/12/20212004     3300009237421964250000H01B0300000727220000000000000                                                                   GLYPRESSIN POLVO SLN INY 1 MG /R/AMP     7
CC0000007444684H202100000556615800000556615806/12/20211551     3300009237421964250000C07A1200001304880000000000000                                                                           PROPRANOLOL HCL TAB 40 MGTAB     2
CC0000007444684H202100000556615800000556615806/12/20210756     3300009237421964250000A02BC700001684270000000000000                                                            OMEPRAZOL 40MG POLVO LIOFILIZADO AMPOLLAVAL     1
CC0000007444684H202100000556615800000556615806/12/20211900    31900998237421964250000V07A1300000502600000000000000                                                                                AGUA ESTERIL x 10 mlAMP    10
