CC0000072339909H202100015112740900015112740906/12/20211202    3190311023742196425000030161400001459220000000000000                                                                       MANGUERA SUCCION 6 MM*3.1 MTSSOB     1
CC0001066890191H202100015112740900015112740906/12/20211202    3190311023742196425000030161400001459220000000000000                                                                       MANGUERA SUCCION 6 MM*3.1 MTSSOB     1
CC0000022362807H202100015112740900015112740906/12/20211202    3190311023742196425000038569400000256750000000000000                                                                        SONDA ASPIRACION CONTROL #14SIN     8
CC0000072339909H202100015112740900015112740906/12/20211202    3190311023742196425000038569400000256750000000000000                                                                        SONDA ASPIRACION CONTROL #14SIN    10
CC0000032776593H202100015112740900015112740906/12/20211202    3190311023742196425000038569400000256750000000000000                                                                        SONDA ASPIRACION CONTROL #14SIN     8
CC0001066890191H202100015112740900015112740906/12/20211202    3190311023742196425000038569400000256750000000000000                                                                        SONDA ASPIRACION CONTROL #14SIN     8
CC0000072339909H202100015112740900015112740906/12/20211202    3190311023742196425000011004400000259880000000000000                                                                 SONDA TRACH CARE 14F CORTA 221036-5SOB     1
CC0000032776593H202100015112740900015112740906/12/20211202    3190311023742196425000011004400000259880000000000000                                                                 SONDA TRACH CARE 14F CORTA 221036-5SOB     1
CC0001066890191H202100015112740900015112740906/12/20211202    3190311023742196425000011004400000259880000000000000                                                                 SONDA TRACH CARE 14F CORTA 221036-5SOB     1
CC0000019773143H202100015112740900015112740906/12/20211202    3190311023742196425000036441300000236540000000000000                                                                    JERINGA 1 ML GASES ARTERIAL 9023SIN     8
CC0000022362807H202100015112740900015112740906/12/20211202    3190311023742196425000036441300000236540000000000000                                                                    JERINGA 1 ML GASES ARTERIAL 9023SIN     3
CC0000072339909H202100015112740900015112740906/12/20211202    3190311023742196425000036441300000236540000000000000                                                                    JERINGA 1 ML GASES ARTERIAL 9023SIN     3
CC0000032776593H202100015112740900015112740906/12/20211202    3190311023742196425000036441300000236540000000000000                                                                    JERINGA 1 ML GASES ARTERIAL 9023SIN     3
CC0001066890191H202100015112740900015112740906/12/20211202    3190311023742196425000036441300000236540000000000000                                                                    JERINGA 1 ML GASES ARTERIAL 9023SIN     3
CC0000019773143H202100015112740900015112740906/12/20211202    3190311023742196425000024674000001138340000000000000   JERINGA 3PARTES C/A 10ML REF JEHL005 CAJ X 100 ALFASAFE  21GX1 PULG 1/2 PULG BN EXENTO-DC.417/202PZA     3
CC0000022362807H202100015112740900015112740906/12/20211202    3190311023742196425000024674000001138340000000000000   JERINGA 3PARTES C/A 10ML REF JEHL005 CAJ X 100 ALFASAFE  21GX1 PULG 1/2 PULG BN EXENTO-DC.417/202PZA     3
CC0000072339909H202100015112740900015112740906/12/20211202    3190311023742196425000024674000001138340000000000000   JERINGA 3PARTES C/A 10ML REF JEHL005 CAJ X 100 ALFASAFE  21GX1 PULG 1/2 PULG BN EXENTO-DC.417/202PZA     3
CC0000032776593H202100015112740900015112740906/12/20211202    3190311023742196425000024674000001138340000000000000   JERINGA 3PARTES C/A 10ML REF JEHL005 CAJ X 100 ALFASAFE  21GX1 PULG 1/2 PULG BN EXENTO-DC.417/202PZA     3
CC0001066890191H202100015112740900015112740906/12/20211202    3190311023742196425000024674000001138340000000000000   JERINGA 3PARTES C/A 10ML REF JEHL005 CAJ X 100 ALFASAFE  21GX1 PULG 1/2 PULG BN EXENTO-DC.417/202PZA     3
CC0000032776593H202100015112740900015112740906/12/20211202    3190311023742196425000013077800000471960000000000000                                                             GASA NO TEJIDA EST 7.5 X 7.5 SOB X 3 UNSOB     8
CC0000072339909H202100015112740900015112740906/12/20211202    3190311023742196425000011084700000516550000000000000                                                                FILTRO CALOR-HUMEDAD AD REF 352/5877SIN     1
CC0000032776593H202100015112740900015112740906/12/20211202    3190311023742196425000011084700000516550000000000000                                                                FILTRO CALOR-HUMEDAD AD REF 352/5877SIN     1
CC0000019773143H202100015112740900015112740906/12/20211202    31903110237421964250000E1AB0200000199290000000000000                                                            SOLUCION SALINA 0.9% SLN INY BO X 100 MLBIN     3
CC0000022362807H202100015112740900015112740906/12/20211202    31903110237421964250000E1AB0200000199290000000000000                                                            SOLUCION SALINA 0.9% SLN INY BO X 100 MLBIN     3
CC0000072339909H202100015112740900015112740906/12/20211202    31903110237421964250000E1AB0200000199290000000000000                                                            SOLUCION SALINA 0.9% SLN INY BO X 100 MLBIN     3
CC0000032776593H202100015112740900015112740906/12/20211202    31903110237421964250000E1AB0200000199290000000000000                                                            SOLUCION SALINA 0.9% SLN INY BO X 100 MLBIN     3
CC0001066890191H202100015112740900015112740906/12/20211202    31903110237421964250000E1AB0200000199290000000000000                                                            SOLUCION SALINA 0.9% SLN INY BO X 100 MLBIN     3
