CC0001140828909H202100000556637900000556637906/12/20212130    31500526237421964250000E1AB0300003888390000000000000                                                            SOLUCION SALINA 0.9% SLN INY BO X 500 MLBOL     1
CC0001140828909H202100000556637900000556637906/12/20211621     3300009237421964250000J01F0200001689390000000000000                                                                        CLINDAMICINA INY 600 MG/4 MLAMP     3
CC0001140828909H202100000556637900000556637906/12/20211621     3300009237421964250000J1KD0400000335010000000000000                                                                      GENTAMICINA SLN INY 80 MG/2 MLAMP     2
CC0001140828909H202100000556637900000556637906/12/20211621     3300009237421964250000N2BE2200001252930000000000000                                                                             ACETAMINOFEN Tab 500 MGTAB     6
CC0001140828909H202100000556637900000556637906/12/20211621     3300009237421964250000N2BB0100001672010000000000000                                  DIPIRONA 1GR/2ML(0.5GR/ML) SOL INY INST CAJ X 100AMP X 2ML VITALISAMP     3
