RC0001046726155A202100000027833600000027833606/12/20211032    31903336240421964190000N02B1100001464120000000000000                                           PARACETAMOL EP 1000MG/100ML(10MG/ML) SOL INY  CAJ X 10FCOVAL     1
RC0001046726155A202100000027833600000027833606/12/20211032    3190333624042196419000000901600001004700000000000000                                                                    MASCARA LARINGEA REUSABLE No 2.5BOL     1
RC0001046726155A202100000027833600000027833606/12/20211032    3190333624042196419000045138000001413890000000000000                                                                       LAPIZ ELECTROBISTURI  SOB X 1SOB     1
RC0001046726155A202100000027833600000027833606/12/20211032    3190333624042196419000029958600000879890000000000000                                                                              PDS 6-0 2C1 75 PDP127HSOB     1
RC0001046726155A202100000027833600000027833606/12/20211032    3190333624042196419000043879100001138200000000000000                                                                  HOJA BISTURI # 15 CSSB 15 01002003SOB     1
RC0001046726155A202100000027833600000027833606/12/20211032    31903336240421964190000D03A0300000213220000000000000                                                                        FITOSTIMOLINE CREMA 15% 32 GTUB     1
RC0001046726155A202100000027833600000027833606/12/20211032    3190333624042196419000035356500003919000000000000000                                                                                        LLAVE 3 VIASSOB     1
RC0001046726155A202100000027833600000027833606/12/20211032    31903336240421964190000Q1AA7300000610640000000000000                                                            CATETER PERIFE INTROCAN # 22G 4251628-04SIN     2
RC0001046726155A202100000027833600000027833606/12/20211032    3190333624042196419000000602600001259280000000000000                                                             APOSITO TEGADERM IV PD 1610 5CM X 5.7CMSOB     1
RC0001046726155A202100000027833600000027833606/12/20211032    3190333624042196419000020750800000295830000000000000                                                                       PLACA RETORNO PEDIAT E7510-25SIN     1
RC0001046726155A202100000027833600000027833606/12/20211032    3190333624042196419000024673000001411210000000000000                                                                  JERINGA DESECHABLE 3 ML 21 X 1 1/2SOB     2
RC0001046726155A202100000027833600000027833606/12/20211032    3190333624042196419000024673600000222980000000000000                                                                     JERINGA DESECHABLE 5 ml 27*11/2SIN     2
RC0001046726155A202100000027833600000027833606/12/20211032    3190333624042196419000024674000001138340000000000000   JERINGA 3PARTES C/A 10ML REF JEHL005 CAJ X 100 ALFASAFE  21GX1 PULG 1/2 PULG BN EXENTO-DC.417/202PZA     4
RC0001046726155A202100000027833600000027833606/12/20211032    3190333624042196419000024674500000322810000000000000                                                                   JERINGA DESECHABLE 20 ml 21*1 1/2SIN     1
RC0001046726155A202100000027833600000027833606/12/20211032    3190333624042196419000053074400000607910000000000000                                                               GASA ESTERIL 10*10 SOBRE X 3 UNIDADESSOB     2
RC0001046726155A202100000027833600000027833606/12/20211032    3190333624042196419000011085200001585390000000000000                                                                       GUANTE QUIRURGICO TALLA 7 1/2SOB     1
RC0001046726155A202100000027833600000027833606/12/20211032    3190333624042196419000011085100001082120000000000000                                                                           GUANTE QUIRURGICO TALLA 7SOB     1
RC0001046726155A202100000027833600000027833606/12/20211032    3190333624042196419000043485100001618510000000000000                GUANTE QUIRURGICO DE LATEX REF 2D72N65X CAJ X 50 PROTEXIS  6.5 BN EXENTO-DC.417/2020SOB     1
RC0001046726155A202100000027833600000027833606/12/20211032    3190333624042196419000051515200000598130000000000000                                                                            MASCARILLA ANESTESIA # 2SIN     1
RC0001046726155A202100000027833600000027833606/12/20211032    3190333624042196419000011099300000777780000000000000                                                                     FILTRO BACTERIANO VIRICO ADULTOBOL     1
RC0001046726155A202100000027833600000027833606/12/20211032    3190333624042196419000011065700003914100000000000000                                                                 TAPON HEPARINIZADO 4238010  B BRAUNSOB     1
RC0001046726155A202100000027833600000027833606/12/20211032    31903336240421964190000E1AB0700003888350000000000000                                                            SOLUCION SALINA 0.9% SLN INY BO X 250 MLBOL     1
RC0001046726155A202100000027833600000027833606/12/20211032    31903336240421964190000E1AB0200000199290000000000000                                                            SOLUCION SALINA 0.9% SLN INY BO X 100 MLBIN     2
RC0001046726155A202100000027833600000027833606/12/20211032    31903336240421964190000N01B0200003888110000000000000                                           ROXICAINA SE 100MG/10ML(1%) SOL INY CAJ X 24AMPACK X 10MLAPC     1
RC0001046726155A202100000027833600000027833606/12/20211032    31903336240421964190000N01A0400003939010000000000000                                               MAYOPROFOL 200MG/20ML(1%) EMUL INY CAJ X 1VIAL X 20MLVAL     1
RC0001046726155A202100000027833600000027833606/12/20211032    31903336240421964190000N2BB0500000217140000000000000                                                                          NOVALGINA Sln Iny 1 g/2 mlAMP     1
RC0001046726155A202100000027833600000027833606/12/20211032    31903336240421964190000H02AB500001664950000000000000                                                            DEXAMETASONA SLN INY 8 MG/2 ML AMP /CDS/AMP     1
RC0001046726155A202100000027833600000027833606/12/20211032    31903336240421964190000N1AH0200003906560000000000000                                                                     FENTANIL Iny 0.05 mg/ml x 10 mlAMP     1
