CC0000007413293U202100050131947000050131947006/12/20212219    3190318023942196432000038570000001123500000000000000                                                                              SONDA FOLEY #16 2 VIASSOB     1
CC0000007413293U202100050131947000050131947006/12/20212219    3190318023942196432000024674000001138340000000000000   JERINGA 3PARTES C/A 10ML REF JEHL005 CAJ X 100 ALFASAFE  21GX1 PULG 1/2 PULG BN EXENTO-DC.417/202PZA     1
CC0000007413293U202100050131947000050131947006/12/20212219    3190318023942196432000031188000000236790000000000000                                                                                     CISTOFLO ADULTOSIN     1
CC0000007413293U202100050131947000050131947006/12/20212219    31903180239421964320000E1AB1100003888280000000000000                                                                        SOLUCION SALINA 0.9% X 50 mlBOL     1
