CC0001143115732H202100000556624000000556624006/12/20210950     3300009237421964250000A2BC0900000200150000000000000                                                                               ORAZOLE Sln Iny 40 mgCIN     1
CC0001143115732H202100000556624000000556624006/12/20210950     3300009237421964250000A4AD0200000202990000000000000                                                                     PLITICAN HCL Sln Iny 50 mg/2 mlAMP     2
CC0001143115732H202100000556624000000556624006/12/20211809    31903259237421964250000E1AD0300000199490000000000000                                         LACTATO RINGER USP (HARTMANN)  SOL INY  BOL X 1000ML BAXTERBIN     2
CC0001143115732H202100000556624000000556624006/12/20210950     3300009237421964250000H02A0100001664960000000000000                                                                        DEXAMETASONA SLN INY 4 MG/MLAMP     1
