TI0001121302704H202100015032650800015032650806/12/20211945    3150056623742196425000022426800001140510000000000000                                                                    EQUIPO MACROGOTEO BAXTER MRC0001SOB     1
CC0001085255798H202100015032650800015032650806/12/20211945    3150056623742196425000011082700001620070000000000000                                                               EQUIPO SET PRIMARIO C/CLAVE REF 14001BOL     1
CC0001085255798H202100015032650800015032650806/12/20211945    3150056623742196425000001956000001620610000000000000                                                                      CONECTOR MICRO CLAVE LAT-MC100SOB     1
CC0001085255798H202100015032650800015032650806/12/20211945    31500566237421964250000Q1AA7300000610640000000000000                                                            CATETER PERIFE INTROCAN # 22G 4251628-04SIN     1
CC0001085255798H202100015032650800015032650806/12/20211945    3150056623742196425000030936900001431840000000000000                                                                                              BURETABOL     1
CC0001085255798H202100015032650800015032650806/12/20211945    3150056623742196425000016830000000970620000000000000                                                             SIST FIJACION CAT PERIFERICO 6.5X7 1683SOB     1
CC0000007454516H202100015032650800015032650806/12/20211945    31500566237421964250000E1BA0700000198910000000000000                                                                   UROMATIC Sln IRRIGACION X 3000 MLBIN     5
