CC0000003691507H202100015032650900015032650906/12/20212101    3150006523742196425000022426800001140510000000000000                                                                    EQUIPO MACROGOTEO BAXTER MRC0001SOB     1
CC0000003691507H202100015032650900015032650906/12/20212101    3150006523742196425000030936900001431840000000000000                                                                                              BURETABOL     1
CC0000003691507H202100015032650900015032650906/12/20212101    31500065237421964250000E1AB0300003888390000000000000                                                            SOLUCION SALINA 0.9% SLN INY BO X 500 MLBOL     4
