CC0000022467890U202100050131932600050131932606/12/20210029    3150035523942196432000024674000001138340000000000000   JERINGA 3PARTES C/A 10ML REF JEHL005 CAJ X 100 ALFASAFE  21GX1 PULG 1/2 PULG BN EXENTO-DC.417/202PZA     4
CC0000022467890U202100050131932600050131932606/12/20210029    3150035523942196432000043485100001618510000000000000                GUANTE QUIRURGICO DE LATEX REF 2D72N65X CAJ X 50 PROTEXIS  6.5 BN EXENTO-DC.417/2020SOB     4
CC0000022467890U202100050131932600050131932606/12/20210029    3150035523942196432000013077800000471960000000000000                                                             GASA NO TEJIDA EST 7.5 X 7.5 SOB X 3 UNSOB     8
CC0000022467890U202100050131932600050131932606/12/20210029    31500355239421964320000E1AB0200000199290000000000000                                                            SOLUCION SALINA 0.9% SLN INY BO X 100 MLBIN     1
