CC0000019490174H202100015112741900015112741906/12/20211939    3190272123742196425000022426800001140510000000000000                                                                    EQUIPO MACROGOTEO BAXTER MRC0001SOB     1
CC0001143115935H202100015112741900015112741906/12/20211939    3190272123742196425000022426800001140510000000000000                                                                    EQUIPO MACROGOTEO BAXTER MRC0001SOB     1
CC0001143115935H202100015112741900015112741906/12/20211939    3190272123742196425000011082900001233450000000000000                                                               EQUIPO LC 5000 PRIMARIO FOTOPRO 0L218SOB     1
CC0000019490174H202100015112741900015112741906/12/20211939    3190272123742196425000011082700001620070000000000000                                                               EQUIPO SET PRIMARIO C/CLAVE REF 14001BOL     1
CC0001143115935H202100015112741900015112741906/12/20211939    3190272123742196425000011082700001620070000000000000                                                               EQUIPO SET PRIMARIO C/CLAVE REF 14001BOL     2
CC0000007452098H202100015112741900015112741906/12/20211939    3190272123742196425000001956000001620610000000000000                                                                      CONECTOR MICRO CLAVE LAT-MC100SOB     1
CC0000007452098H202100015112741900015112741906/12/20211939    31902721237421964250000Q1AA7200000610630000000000000                                                            CATETER PERIFE INTROCAN # 20G 4251644-04SIN     1
