RC0001043476962H202100000556609200000556609206/12/20212324     3300004237421964250000S2BA0200000468180000000000000                                                                   SOLU-MEDROL SLN INY 40 MG/ML  /R/VAL     1
RC0001043476962H202100000556609200000556609206/12/20211524     3300009237421964250000S2BA0200000468180000000000000                                                                   SOLU-MEDROL SLN INY 40 MG/ML  /R/VAL     2
RC0001043476962H202100000556609200000556609206/12/20210856     3300009237421964250000S2BA0200000468180000000000000                                                                   SOLU-MEDROL SLN INY 40 MG/ML  /R/VAL     1
RC0001043476962H202100000556609200000556609206/12/20210032     3300004237421964250000S2BA0200000468180000000000000                                                                   SOLU-MEDROL SLN INY 40 MG/ML  /R/VAL     1
RC0001043476962H202100000556609200000556609206/12/20212324     3300004237421964250000N2BE1100000836430000000000000                                             ACETAMINOFEN 150MG/5ML(3%) JBE INST FCO X 60ML AMER GENCAJ     1
RC0001043476962H202100000556609200000556609206/12/20211524     3300009237421964250000N2BE1100000836430000000000000                                             ACETAMINOFEN 150MG/5ML(3%) JBE INST FCO X 60ML AMER GENCAJ     1
RC0001043476962H202100000556609200000556609206/12/20211524     3300009237421964250000R03BA800001396350000000000000                                                             BECLOMETASONA DIPROP INH ORAL 50 MCG/DOFCO     1
RC0001043476962H202100000556609200000556609206/12/20212323     3300004237421964250000J01CR200000947130000000000000                                                              AMPICILINA /SULBACTAN POLVO LIOF 1.5 GAMP     1
RC0001043476962H202100000556609200000556609206/12/20211523     3300009237421964250000J01CR200000947130000000000000                                                              AMPICILINA /SULBACTAN POLVO LIOF 1.5 GAMP     1
RC0001043476962H202100000556609200000556609206/12/20210856     3300009237421964250000J01CR200000947130000000000000                                                              AMPICILINA /SULBACTAN POLVO LIOF 1.5 GAMP     1
RC0001043476962H202100000556609200000556609206/12/20210032     3300004237421964250000J01CR200000947130000000000000                                                              AMPICILINA /SULBACTAN POLVO LIOF 1.5 GAMP     1
RC0001043476962H202100000556609200000556609206/12/20211524     3300009237421964250000R03AC200003848990000000000000                                                              SALBUTAMOL INH 100 MCG/DO FCO X 200 DOFCO     1
RC0001043476962H202100000556609200000556609206/12/20211524     3300009237421964250000R03BB300001364640000000000000                                                            BROMURO IPRATROPIO INH ORAL 20 MCG/DO /RFCO     6
