CC0000045689236A202100000027832200000027832206/12/20211652    3190333624042196419000011082600000265810000000000000                                                              EQUIPO IRRIGACION URINARIA REF MRC4002SOB     1
CC0000045689236A202100000027832200000027832206/12/20211652    31903336240421964190000M1AB0900001019600000000000000                                                                              VOLTAREN Sln Iny 75 mgAMP     1
CC0000045689236A202100000027832200000027832206/12/20211652    3190333624042196419000051515500000598160000000000000                                                                            MASCARILLA ANESTESIA # 5SIN     1
CC0000045689236A202100000027832200000027832206/12/20211652    31903336240421964190000B05X0100000199670000000000000                                                                ARTHROMATIC Sln IRRIGACION X 3000 mlBIN     1
CC0000045689236A202100000027832200000027832206/12/20211652    3190333624042196419000039175000001072050000000000000                                                                           TUBO ENDOTRAQUEAL C/B 7.0SOB     1
CC0000045689236A202100000027832200000027832206/12/20211652    3190333624042196419000038570200001123300000000000000                                                                              SONDA FOLEY #20 2 VIASSOB     1
CC0000045689236A202100000027832200000027832206/12/20211652    3190333624042196419000031188000000236790000000000000                                                                                     CISTOFLO ADULTOSIN     1
CC0000045689236A202100000027832200000027832206/12/20211652    3190333624042196419000011099300000777780000000000000                                                                     FILTRO BACTERIANO VIRICO ADULTOBOL     1
CC0000045689236A202100000027832200000027832206/12/20211652    3190333624042196419000031010900000762730000000000000                                                                          CANULA GUEDEL # 4 (100 MM)SOB     1
CC0000045689236A202100000027832200000027832206/12/20211652    31903336240421964190000N1BA1900000554750000000000000                                                                     ROXICAINA JALEA 2% TUBO X 30 MLTUB     1
CC0000045689236A202100000027832200000027832206/12/20211652    31903336240421964190000E1BA0700000198910000000000000                                                                   UROMATIC Sln IRRIGACION X 3000 MLBIN     1
CC0000045689236A202100000027832200000027832206/12/20211652    3190333624042196419000049059900000267420000000000000                                                                 MEDIA ANTIEMBOLICA TAL M 3416LF PARBOL     1
CC0000045689236A202100000027832200000027832206/12/20211652    3190333624042196419000022425200000548240000000000000                       EXTENSION DE ANESTESIA REF 1139 SOB X 1 SHERLEG  ADULTO BN EXENTO-DC.417/2020SIN     1
CC0000045689236A202100000027832200000027832206/12/20211652    3190333624042196419000016830000000970620000000000000                                                             SIST FIJACION CAT PERIFERICO 6.5X7 1683SOB     1
CC0000045689236A202100000027832200000027832206/12/20211652    3190333624042196419000035356500003919000000000000000                                                                                        LLAVE 3 VIASSOB     1
CC0000045689236A202100000027832200000027832206/12/20211652    3190333624042196419000022426800001140510000000000000                                                                    EQUIPO MACROGOTEO BAXTER MRC0001SOB     1
CC0000045689236A202100000027832200000027832206/12/20211652    31903336240421964190000Q1AA7100000610620000000000000                                                            CATETER PERIFE INTROCAN # 18G 4251687-04SIN     1
CC0000045689236A202100000027832200000027832206/12/20211652    31903336240421964190000J01DA300001239950000000000000                                                            CEFAZOLINA SODICA POLVO LIOF SLN INY 1 GVAL     2
CC0000045689236A202100000027832200000027832206/12/20211652    3190333624042196419000024674500000322810000000000000                                                                   JERINGA DESECHABLE 20 ml 21*1 1/2SIN     2
CC0000045689236A202100000027832200000027832206/12/20211652    3190333624042196419000024674000001138340000000000000   JERINGA 3PARTES C/A 10ML REF JEHL005 CAJ X 100 ALFASAFE  21GX1 PULG 1/2 PULG BN EXENTO-DC.417/202PZA     2
CC0000045689236A202100000027832200000027832206/12/20211652    3190333624042196419000024673000001411210000000000000                                                                  JERINGA DESECHABLE 3 ML 21 X 1 1/2SOB     1
CC0000045689236A202100000027832200000027832206/12/20211652    3190333624042196419000053074400000607910000000000000                                                               GASA ESTERIL 10*10 SOBRE X 3 UNIDADESSOB     2
CC0000045689236A202100000027832200000027832206/12/20211652    3190333624042196419000011085200001585390000000000000                                                                       GUANTE QUIRURGICO TALLA 7 1/2SOB     2
CC0000045689236A202100000027832200000027832206/12/20211652    3190333624042196419000011085100001082120000000000000                                                                           GUANTE QUIRURGICO TALLA 7SOB     3
CC0000045689236A202100000027832200000027832206/12/20211652    3190333624042196419000043485100001618510000000000000                GUANTE QUIRURGICO DE LATEX REF 2D72N65X CAJ X 50 PROTEXIS  6.5 BN EXENTO-DC.417/2020SOB     2
CC0000045689236A202100000027832200000027832206/12/20211652    31903336240421964190000E1AD0200003888320000000000000                                                                              HARTMAN SLN INY 500 MLBOL     1
CC0000045689236A202100000027832200000027832206/12/20211652    31903336240421964190000B02AA100001407470000000000000                                                                    CLINTRANEX SLN INY 500 MG / 5 MLAMP     2
CC0000045689236A202100000027832200000027832206/12/20211652    31903336240421964190000H02AB500001664950000000000000                                                            DEXAMETASONA SLN INY 8 MG/2 ML AMP /CDS/AMP     1
CC0000045689236A202100000027832200000027832206/12/20211652    31903336240421964190000N2BB0500000217140000000000000                                                                          NOVALGINA Sln Iny 1 g/2 mlAMP     2
