CC0000057299651H202100015032649900015032649906/12/20211118    3190305323742196425000043485100001618510000000000000                GUANTE QUIRURGICO DE LATEX REF 2D72N65X CAJ X 50 PROTEXIS  6.5 BN EXENTO-DC.417/2020SOB     1
CC0000000800641H202100015032649900015032649906/12/20211118    3190305323742196425000043485100001618510000000000000                GUANTE QUIRURGICO DE LATEX REF 2D72N65X CAJ X 50 PROTEXIS  6.5 BN EXENTO-DC.417/2020SOB     1
CC0000057299651H202100015032649900015032649906/12/20211118    3190305323742196425000013077800000471960000000000000                                                             GASA NO TEJIDA EST 7.5 X 7.5 SOB X 3 UNSOB     5
CC0000000800641H202100015032649900015032649906/12/20211118    3190305323742196425000013077800000471960000000000000                                                             GASA NO TEJIDA EST 7.5 X 7.5 SOB X 3 UNSOB     5
CC0000057299651H202100015032649900015032649906/12/20211118    3190305323742196425000042753100003929850000000000000                   GASA ADHESIVA STRETCH REF 02037-00 ROL X 10MT FIXOMULL 10CM BN EXENTO-DC.417/2020CMT    50
CC0000000800641H202100015032649900015032649906/12/20211118    3190305323742196425000042753100003929850000000000000                   GASA ADHESIVA STRETCH REF 02037-00 ROL X 10MT FIXOMULL 10CM BN EXENTO-DC.417/2020CMT    50
