CC0000012614608A202100000027835900000027835906/12/20211615    3190333624042196419000011857700001096350000000000000                                                              AGUJA SONOPLEX BLOQUEO 21*100 01185-77BOL     1
CC0000012614608A202100000027835900000027835906/12/20211615    31903336240421964190000E1BA0700000198910000000000000                                                                   UROMATIC Sln IRRIGACION X 3000 MLBIN     3
CC0000012614608A202100000027835900000027835906/12/20211615    31903336240421964190000A3BB0200000512940000000000000                                                                          BUSCAPINA SIMPLE Iny 20 mgAMP     1
CC0000012614608A202100000027835900000027835906/12/20211615    3190333624042196419000011047900000223010000000000000                                                                            JERINGA X 1ML REF 302579SIN     1
CC0000012614608A202100000027835900000027835906/12/20211615    3190333624042196419000020059900000225180000000000000                                                              AGUJA SPINOCAN 26G X 3 1/2 PU  4502906SIN     1
CC0000012614608A202100000027835900000027835906/12/20211615    31903336240421964190000J01FF200003888100000000000000                                                                             EUROCLIN SLN INY 600 MGAMP     1
CC0000012614608A202100000027835900000027835906/12/20211615    31903336240421964190000A03F0300001626860000000000000                                                                   METOCLOPRAMIDA SLN INY 10 MG/2 MLAMP     1
CC0000012614608A202100000027835900000027835906/12/20211615    31903336240421964190000A2BC0900000200150000000000000                                                                               ORAZOLE Sln Iny 40 mgCIN     1
CC0000012614608A202100000027835900000027835906/12/20211615    3190333624042196419000042462700003929830000000000000                                                STOQUINETA ORTOPEDICA TUBULAR ROL X 25MT WINER 6PULGCMT     1
CC0000012614608A202100000027835900000027835906/12/20211615    3190333624042196419000019487500000602970000000000000                                                                           VICRYL 2-0 CT1 90 VCP345HSIN     2
CC0000012614608A202100000027835900000027835906/12/20211615    3190333624042196419000012472400000232190000000000000                                                                 SUTURA ETHILON 2-0 SC-26 45CM  164TSIN     5
CC0000012614608A202100000027835900000027835906/12/20211615    3190333624042196419000019487800001585180000000000000                                                                    VICRYL 1 PLUS 70 CM CT-1 VCP341HSOB     2
CC0000012614608A202100000027835900000027835906/12/20211615    3190333624042196419000043879500001138210000000000000                                                                                    HOJA BISTURI #20SOB     1
CC0000012614608A202100000027835900000027835906/12/20211615    3190333624042196419000043879400001138170000000000000                                                                  HOJA BISTURI # 10 CSSB 10 01002000SOB     1
CC0000012614608A202100000027835900000027835906/12/20211615    3190333624042196419000030161400001459220000000000000                                                                       MANGUERA SUCCION 6 MM*3.1 MTSSOB     1
CC0000012614608A202100000027835900000027835906/12/20211615    3190333624042196419000045138000001413890000000000000                                                                       LAPIZ ELECTROBISTURI  SOB X 1SOB     1
CC0000012614608A202100000027835900000027835906/12/20211615    31903336240421964190000E1AB0500003888400000000000000                                                              SOLUCION SALINA 0.9% SLN INY X 1000 MLBOL     4
CC0000012614608A202100000027835900000027835906/12/20211615    3190333624042196419000049059800000267410000000000000                                                                 MEDIA ANTIEMBOLICA TAL L 3634LF PARBOL     1
CC0000012614608A202100000027835900000027835906/12/20211615    3190333624042196419000016830000000970620000000000000                                                             SIST FIJACION CAT PERIFERICO 6.5X7 1683SOB     1
CC0000012614608A202100000027835900000027835906/12/20211615    3190333624042196419000035356500003919000000000000000                                                                                        LLAVE 3 VIASSOB     2
CC0000012614608A202100000027835900000027835906/12/20211615    3190333624042196419000022426800001140510000000000000                                                                    EQUIPO MACROGOTEO BAXTER MRC0001SOB     1
CC0000012614608A202100000027835900000027835906/12/20211615    3190333624042196419000022425200000548240000000000000                       EXTENSION DE ANESTESIA REF 1139 SOB X 1 SHERLEG  ADULTO BN EXENTO-DC.417/2020SIN     1
CC0000012614608A202100000027835900000027835906/12/20211615    31903336240421964190000Q1AA7100000610620000000000000                                                            CATETER PERIFE INTROCAN # 18G 4251687-04SIN     1
CC0000012614608A202100000027835900000027835906/12/20211615    3190333624042196419000049428400000738560000000000000                                                                       VENDA ELASTICA 5*5 NO ESTERILSOB     3
CC0000012614608A202100000027835900000027835906/12/20211615    3190333624042196419000049419800001679910000000000000                                                                        VENDA ALGODON 6*5 NO ESTERILSOB     2
CC0000012614608A202100000027835900000027835906/12/20211615    3190333624042196419000020750600000296780000000000000                                                                PLACA ELECTRO RETORNO PACIENTE E7506SIN     1
CC0000012614608A202100000027835900000027835906/12/20211615    3190333624042196419000053074400000607910000000000000                                                               GASA ESTERIL 10*10 SOBRE X 3 UNIDADESSOB     6
CC0000012614608A202100000027835900000027835906/12/20211615    3190333624042196419000011073300001096420000000000000                                                                BOLSA DE SUCCION DE FLUIDOS x 2500mLBOL     2
CC0000012614608A202100000027835900000027835906/12/20211615    3190333624042196419000038568100000258050000000000000                                                                         CANULA OXIGENO NASAL ADULTOSIN     1
CC0000012614608A202100000027835900000027835906/12/20211615    3190333624042196419000024673600000222980000000000000                                                                     JERINGA DESECHABLE 5 ml 27*11/2SIN     3
CC0000012614608A202100000027835900000027835906/12/20211615    3190333624042196419000024674000001138340000000000000   JERINGA 3PARTES C/A 10ML REF JEHL005 CAJ X 100 ALFASAFE  21GX1 PULG 1/2 PULG BN EXENTO-DC.417/202PZA     4
CC0000012614608A202100000027835900000027835906/12/20211615    3190333624042196419000024674500000322810000000000000                                                                   JERINGA DESECHABLE 20 ml 21*1 1/2SIN     1
CC0000012614608A202100000027835900000027835906/12/20211615    3190333624042196419000043485100001618510000000000000                GUANTE QUIRURGICO DE LATEX REF 2D72N65X CAJ X 50 PROTEXIS  6.5 BN EXENTO-DC.417/2020SOB     3
CC0000012614608A202100000027835900000027835906/12/20211615    3190333624042196419000011085100001082120000000000000                                                                           GUANTE QUIRURGICO TALLA 7SOB     3
CC0000012614608A202100000027835900000027835906/12/20211615    3190333624042196419000011085200001585390000000000000                                                                       GUANTE QUIRURGICO TALLA 7 1/2SOB     4
CC0000012614608A202100000027835900000027835906/12/20211615    31903336240421964190000E1AD0200003888320000000000000                                                                              HARTMAN SLN INY 500 MLBOL     5
CC0000012614608A202100000027835900000027835906/12/20211615    31903336240421964190000E1AB0300003888390000000000000                                                            SOLUCION SALINA 0.9% SLN INY BO X 500 MLBOL     1
CC0000012614608A202100000027835900000027835906/12/20211615    31903336240421964190000E1AB0200000199290000000000000                                                            SOLUCION SALINA 0.9% SLN INY BO X 100 MLBIN     1
CC0000012614608A202100000027835900000027835906/12/20211615    31903336240421964190000B02AA100001407470000000000000                                                                    CLINTRANEX SLN INY 500 MG / 5 MLAMP     4
CC0000012614608A202100000027835900000027835906/12/20211615    31903336240421964190000N2AA0100000301640000000000000                                                                            MORFINA Sln Iny 10 mg/mlAMP     1
CC0000012614608A202100000027835900000027835906/12/20211615    31903336240421964190000N02B1100001464120000000000000                                           PARACETAMOL EP 1000MG/100ML(10MG/ML) SOL INY  CAJ X 10FCOVAL     1
CC0000012614608A202100000027835900000027835906/12/20211615    31903336240421964190000N2BB1100000217160000000000000                                                                      NOVALGINA Sln Iny 2.5 g x 5 mlAMP     1
CC0000012614608A202100000027835900000027835906/12/20211615    31903336240421964190000H02AB500001664950000000000000                                                            DEXAMETASONA SLN INY 8 MG/2 ML AMP /CDS/AMP     2
CC0000012614608A202100000027835900000027835906/12/20211615    31903336240421964190000N1BA2400001687720000000000000                                                    LIDOCAINA 2% SOL INY  CAJ X 50AMP X 10ML CORPAULAMP     1
CC0000012614608A202100000027835900000027835906/12/20211615    31903336240421964190000N01B0800001046180000000000000                                                                  BUPINEST PESADO 0.75% SLN INY 4 MLAPC     1
CC0000012614608A202100000027835900000027835906/12/20211615    31903336240421964190000N01B0600003888900000000000000                                                    BUPINEST 75MG/10ML(0.75%) SOL INY CAJ X 24AMPACKAPC     1
