CC0000091153115A202100000027839800000027839806/12/20211200    3190333624042196419000000800100000223980000000000000                                                              VENDA ADHESIVA COBAN 4*5 ROLLO 3M 1584SIN     1
CC0000091153115A202100000027839800000027839806/12/20211200    3190333624042196419000024675000001585130000000000000                                                                    JERINGA DESECHABLE 50 ml S/AGUJASOB     1
CC0000091153115A202100000027839800000027839806/12/20211200    3190333624042196419000011083400000258340000000000000                                                               EQUIPO PERICRANEAL SOB X 1 MEDEX 21FRSIN     1
CC0000091153115A202100000027839800000027839806/12/20211200    3190333624042196419000038568800000256980000000000000                                                                                   SONDA NELATON #18SIN     1
CC0000091153115A202100000027839800000027839806/12/20211200    3190333624042196419000019488700000753270000000000000                                                                              VICRYL 3-0 SH1 VCP311HSOB     4
CC0000091153115A202100000027839800000027839806/12/20211200    3190333624042196419000045138000001413890000000000000                                                                       LAPIZ ELECTROBISTURI  SOB X 1SOB     1
CC0000091153115A202100000027839800000027839806/12/20211200    3190333624042196419000043879100001138200000000000000                                                                  HOJA BISTURI # 15 CSSB 15 01002003SOB     1
CC0000091153115A202100000027839800000027839806/12/20211200    3190333624042196419000022425200000548240000000000000                       EXTENSION DE ANESTESIA REF 1139 SOB X 1 SHERLEG  ADULTO BN EXENTO-DC.417/2020SIN     1
CC0000091153115A202100000027839800000027839806/12/20211200    3190333624042196419000035356500003919000000000000000                                                                                        LLAVE 3 VIASSOB     2
CC0000091153115A202100000027839800000027839806/12/20211200    3190333624042196419000022426800001140510000000000000                                                                    EQUIPO MACROGOTEO BAXTER MRC0001SOB     1
CC0000091153115A202100000027839800000027839806/12/20211200    3190333624042196419000016830000000970620000000000000                                                             SIST FIJACION CAT PERIFERICO 6.5X7 1683SOB     1
CC0000091153115A202100000027839800000027839806/12/20211200    31903336240421964190000J01DA300001239950000000000000                                                            CEFAZOLINA SODICA POLVO LIOF SLN INY 1 GVAL     2
CC0000091153115A202100000027839800000027839806/12/20211200    3190333624042196419000020750600000296780000000000000                                                                PLACA ELECTRO RETORNO PACIENTE E7506SIN     1
CC0000091153115A202100000027839800000027839806/12/20211200    3190333624042196419000053074400000607910000000000000                                                               GASA ESTERIL 10*10 SOBRE X 3 UNIDADESSOB     4
CC0000091153115A202100000027839800000027839806/12/20211200    3190333624042196419000024673600000222980000000000000                                                                     JERINGA DESECHABLE 5 ml 27*11/2SIN     2
CC0000091153115A202100000027839800000027839806/12/20211200    3190333624042196419000024674000001138340000000000000   JERINGA 3PARTES C/A 10ML REF JEHL005 CAJ X 100 ALFASAFE  21GX1 PULG 1/2 PULG BN EXENTO-DC.417/202PZA     3
CC0000091153115A202100000027839800000027839806/12/20211200    3190333624042196419000011085200001585390000000000000                                                                       GUANTE QUIRURGICO TALLA 7 1/2SOB     2
CC0000091153115A202100000027839800000027839806/12/20211200    3190333624042196419000011085100001082120000000000000                                                                           GUANTE QUIRURGICO TALLA 7SOB     2
CC0000091153115A202100000027839800000027839806/12/20211200    3190333624042196419000043485100001618510000000000000                GUANTE QUIRURGICO DE LATEX REF 2D72N65X CAJ X 50 PROTEXIS  6.5 BN EXENTO-DC.417/2020SOB     2
CC0000091153115A202100000027839800000027839806/12/20211200    3190333624042196419000051515500000598160000000000000                                                                            MASCARILLA ANESTESIA # 5SIN     1
CC0000091153115A202100000027839800000027839806/12/20211200    3190333624042196419000038568100000258050000000000000                                                                         CANULA OXIGENO NASAL ADULTOSIN     1
CC0000091153115A202100000027839800000027839806/12/20211200    3190333624042196419000020059900000225180000000000000                                                              AGUJA SPINOCAN 26G X 3 1/2 PU  4502906SIN     1
CC0000091153115A202100000027839800000027839806/12/20211200    31903336240421964190000E1AB0300003888390000000000000                                                            SOLUCION SALINA 0.9% SLN INY BO X 500 MLBOL     5
CC0000091153115A202100000027839800000027839806/12/20211200    31903336240421964190000M01A0400001341250000000000000                                                                              DYNASTAT AMP 40 MG /R/VAL     1
CC0000091153115A202100000027839800000027839806/12/20211200    31903336240421964190000H02AB500001664950000000000000                                                            DEXAMETASONA SLN INY 8 MG/2 ML AMP /CDS/AMP     1
CC0000091153115A202100000027839800000027839806/12/20211200    31903336240421964190000N01A0400003939010000000000000                                               MAYOPROFOL 200MG/20ML(1%) EMUL INY CAJ X 1VIAL X 20MLVAL     1
CC0000091153115A202100000027839800000027839806/12/20211200    31903336240421964190000N1BA0500000647360000000000000                                                                  BUPIROP 0.5% PESADO SLN INY X 4 MLAPC     1
CC0000091153115A202100000027839800000027839806/12/20211200    31903336240421964190000N1BA2400001687720000000000000                                                    LIDOCAINA 2% SOL INY  CAJ X 50AMP X 10ML CORPAULAMP     1
CC0000091153115A202100000027839800000027839806/12/20211200    31903336240421964190000N1AH0200003906560000000000000                                                                     FENTANIL Iny 0.05 mg/ml x 10 mlAMP     1
CC0000091153115A202100000027839800000027839806/12/20211200    31903336240421964190000N5CD0300000218170000000000000                                                              DORMICUM IV-IM 5MG/5ML(1MG/ML) SOL INYAMP     1
