CC0000007479382H202100000556644300000556644306/12/20212209     3300004237421964250000B1AB0100001227270000000000000                                             HEPAMAX 25000UI/5ML(5000UI/ML) SOL INY  CAJ X 25AMPX5MLAMP     2
CC0000007479382H202100000556644300000556644306/12/20212207     3300004237421964250000B02A0100000202000000000000000                                                                    ACTILYSE POLVO SLN INY 50 MG /R/AMP     1
CC0000007479382H202100000556644300000556644306/12/20212210     3300004237421964250000C7AB1000001382030000000000000                                                                   NOREPINEFRINA SLN INY 4 MG / 4 MLAMP    10
CC0000007479382H202100000556644300000556644306/12/20212209     3300004237421964250000C7AB1000001382030000000000000                                                                   NOREPINEFRINA SLN INY 4 MG / 4 MLAMP    10
CC0000007479382H202100000556644300000556644306/12/20212209     3300004237421964250000R3CA0400000777470000000000000                                                               ADRENALINA HCL SLN INY 1 MG / ML RYANAMP     2
CC0000007479382H202100000556644300000556644306/12/20212344     3300004237421964250000J1KF0200001677230000000000000                                                                      MERONEM POLVO SLN INY 1 G  /R/VAL     3
CC0000007479382H202100000556644300000556644306/12/20212344     3300004237421964250000J01XA400001212420000000000000                                                               VANCOMICINA POLVO LIOF SLN INY 500 MGVAL     4
