CC0000022438763H202100015052806800015052806806/12/20212122    3150045223742196425000045136100001419300000000000000                                                                            LANCETA DEXTROMETER X UNPZA     3
CC0001140875648H202100015052806800015052806806/12/20212122    3150045223742196425000045136100001419300000000000000                                                                            LANCETA DEXTROMETER X UNPZA     3
CC0000022438763H202100015052806800015052806806/12/20212122    3150045223742196425000011082700001620070000000000000                                                               EQUIPO SET PRIMARIO C/CLAVE REF 14001BOL     1
RC0001084457432H202100015052806800015052806806/12/20212122    3150045223742196425000011082700001620070000000000000                                                               EQUIPO SET PRIMARIO C/CLAVE REF 14001BOL     1
CC0000022438763H202100015052806800015052806806/12/20212122    3150045223742196425000030936900001431840000000000000                                                                                              BURETABOL     1
RC0001084457432H202100015052806800015052806806/12/20212122    3150045223742196425000030936900001431840000000000000                                                                                              BURETABOL     1
CC0000022438763H202100015052806800015052806806/12/20212122    31500452237421964250000E1AD0300000199490000000000000                                         LACTATO RINGER USP (HARTMANN)  SOL INY  BOL X 1000ML BAXTERBIN     1
CC0000008257979H202100015052806800015052806806/12/20212122    31500452237421964250000E1AB0300003888390000000000000                                                            SOLUCION SALINA 0.9% SLN INY BO X 500 MLBOL     1
CC0000022596813H202100015052806800015052806806/12/20212122    31500452237421964250000E1AB0300003888390000000000000                                                            SOLUCION SALINA 0.9% SLN INY BO X 500 MLBOL     1
CC0001193479674H202100015052806800015052806806/12/20212122    31500452237421964250000E1AB0300003888390000000000000                                                            SOLUCION SALINA 0.9% SLN INY BO X 500 MLBOL     1
CC0001140875648H202100015052806800015052806806/12/20212122    31500452237421964250000E1AB0300003888390000000000000                                                            SOLUCION SALINA 0.9% SLN INY BO X 500 MLBOL     1
CC0000022530541H202100015052806800015052806806/12/20212122    31500452237421964250000E1AB0300003888390000000000000                                                            SOLUCION SALINA 0.9% SLN INY BO X 500 MLBOL     1
CC0001051681679H202100015052806800015052806806/12/20212122    31500452237421964250000E1AB0300003888390000000000000                                                            SOLUCION SALINA 0.9% SLN INY BO X 500 MLBOL     1
RC0001044234520H202100015052806800015052806806/12/20212122    31500452237421964250000E1AB0300003888390000000000000                                                            SOLUCION SALINA 0.9% SLN INY BO X 500 MLBOL     1
TI0001047050967H202100015052806800015052806806/12/20212122    31500452237421964250000E1AB0300003888390000000000000                                                            SOLUCION SALINA 0.9% SLN INY BO X 500 MLBOL     1
TI0001145926178H202100015052806800015052806806/12/20212122    31500452237421964250000E1AB0300003888390000000000000                                                            SOLUCION SALINA 0.9% SLN INY BO X 500 MLBOL     1
CC0000032753507H202100015052806800015052806806/12/20212122    31500452237421964250000E1AB0300003888390000000000000                                                            SOLUCION SALINA 0.9% SLN INY BO X 500 MLBOL     1
CC0000022406887H202100015052806800015052806806/12/20212122    31500452237421964250000E1AB0300003888390000000000000                                                            SOLUCION SALINA 0.9% SLN INY BO X 500 MLBOL     1
CC0001042439975H202100015052806800015052806806/12/20212122    31500452237421964250000E1AB0300003888390000000000000                                                            SOLUCION SALINA 0.9% SLN INY BO X 500 MLBOL     1
CC0000008729778H202100015052806800015052806806/12/20212122    31500452237421964250000E1AB0300003888390000000000000                                                            SOLUCION SALINA 0.9% SLN INY BO X 500 MLBOL     1
RC0001084457432H202100015052806800015052806806/12/20212122    31500452237421964250000E1AC0100000199400000000000000                                                                          SUERO MIXTO Sln Iny 500 mlBIN     1
CC0000022438763H202100015052806800015052806806/12/20212122    3150045223742196425000011137100001419310000000000000                                                               TIRA GLUCOMETRIA FREESTYLE H OPTIUM .PZA     3
CC0001140875648H202100015052806800015052806806/12/20212122    3150045223742196425000011137100001419310000000000000                                                               TIRA GLUCOMETRIA FREESTYLE H OPTIUM .PZA     3
