CC0000022352292H202100921075120600921075120606/12/20211008    31500245237421964250000E1AD0300000199490000000000000                                         LACTATO RINGER USP (HARTMANN)  SOL INY  BOL X 1000ML BAXTERBIN     2
CC0000022352292H202100921075120600921075120606/12/20211009    31903303237421964250000E1AD0300000199490000000000000                                         LACTATO RINGER USP (HARTMANN)  SOL INY  BOL X 1000ML BAXTERBIN     2
CC0000022352292H202100921075120600921075120606/12/20211529    31500120237421964250000E1AD0300000199490000000000000                                         LACTATO RINGER USP (HARTMANN)  SOL INY  BOL X 1000ML BAXTERBIN     2
CC0000022352292H202100921075120600921075120606/12/20211605    3190205623742196425000011082900001233450000000000000                                                               EQUIPO LC 5000 PRIMARIO FOTOPRO 0L218SOB     1
CC0000022352292H202100921075120600921075120606/12/20211605    3190205623742196425000011085400001083360000000000000                                                                       GUANTE QUIRURGICO TALLA 8 1/2SOB     2
CC0000022352292H202100921075120600921075120606/12/20211605    3190205623742196425000013077800000471960000000000000                                                             GASA NO TEJIDA EST 7.5 X 7.5 SOB X 3 UNSOB     4
CC0000022352292H202100921075120600921075120606/12/20211605    3190205623742196425000020009800000546950000000000000                                                                        BOLSA EVA PINNACLE X 2000 MLBOL     1
CC0000022352292H202100921075120600921075120606/12/20211605    3190205623742196425000024674000001138340000000000000   JERINGA 3PARTES C/A 10ML REF JEHL005 CAJ X 100 ALFASAFE  21GX1 PULG 1/2 PULG BN EXENTO-DC.417/202PZA     3
CC0000022352292H202100921075120600921075120606/12/20211605    3190205623742196425000024674500000322810000000000000                                                                   JERINGA DESECHABLE 20 ml 21*1 1/2SIN     3
CC0000022352292H202100921075120600921075120606/12/20211605    3190205623742196425000024675000001585130000000000000                                                                    JERINGA DESECHABLE 50 ml S/AGUJASOB     3
CC0000022352292H202100921075120600921075120606/12/20211605    3190205623742196425000030936900001431840000000000000                                                                                              BURETABOL     2
CC0000022352292H202100921075120600921075120606/12/20211605    3190205623742196425000000100600000223090000000000000                                                                      AGUJA DESECHABLE 18G X 1 1/2 PSIN     4
CC0000022352292H202100921075120600921075120606/12/20212028    3150036623742196425000016830000000970620000000000000                                                             SIST FIJACION CAT PERIFERICO 6.5X7 1683SOB     1
CC0000022352292H202100921075120600921075120606/12/20212028    31500366237421964250000Q1AA7300000610640000000000000                                                            CATETER PERIFE INTROCAN # 22G 4251628-04SIN     1
