CC0000007403900H202100000556626100000556626106/12/20211036    31902978237421964250000A02B0600001277230000000000000                                                                                NEXIUM Tab 40 mg /R/TAB     1
CC0000007403900H202100000556626100000556626106/12/20211036    31902978237421964250000A4AD0200000202990000000000000                                                                     PLITICAN HCL Sln Iny 50 mg/2 mlAMP     3
CC0000007403900H202100000556626100000556626106/12/20211036    31902978237421964250000A6AC0200001467010000000000000                                                             LACTULAX JARABE 66.7G/100ML SOX15ML /R/SOB     3
CC0000007403900H202100000556626100000556626106/12/20211036    31902978237421964250000C3DA0600001334560000000000000                                                                               GLUCOPHAGE Tab 500 mgTAB     4
CC0000007403900H202100000556626100000556626106/12/20211036    31902978237421964250000B1AB0200003939510000000000000                 ENOXAPARINA SODICA 40MG/0.4ML(100MG/ML) SOL INY INST CAJ X 2JERPREL X 0.4ML TECHDOWJRP     1
CC0000007403900H202100000556626100000556626106/12/20211036    31902978237421964250000B3BB0100001351190000000000000                                                                               ACIDO FOLICO Tab 1 mgTAB     1
CC0000007403900H202100000556626100000556626106/12/20211036    31902978237421964250000B03A0100001336630000000000000                                                                          SULFATO FERROSO Tab 200 mgTAB     1
CC0000007403900H202100000556626100000556626106/12/20211036    31902978237421964250000C7AB0700001333100000000000000                                                                           BETOPROLOL TAB 100 MG /R/TAB     1
CC0000007403900H202100000556626100000556626106/12/20211036    31902978237421964250000C7FA0200001277980000000000000                                                                                    NORVAS TAB 10 MGTAB     2
CC0000007403900H202100000556626100000556626106/12/20211036    31902978237421964250000B4AD0700001277600000000000000                                                                                   LIPITOR TAB 20 MGTAB     1
CC0000007403900H202100000556626100000556626106/12/20211036    31902978237421964250000G4AC0200001304310000000000000                                                                             MACRODANTINA CAP 100 MGCAP     1
CC0000007403900H202100000556626100000556626106/12/20211036    31902978237421964250000N2BE0100001276930000000000000                                                                                    DOLEX TAB 500 MGTAB     5
