CC0001124077677H202100000556637100000556637106/12/20211604    31901015237421964250000A4AD0200000202990000000000000                                                                     PLITICAN HCL Sln Iny 50 mg/2 mlAMP     3
CC0001124077677H202100000556637100000556637106/12/20211604    31901015237421964250000J1DA3100000187510000000000000                                                                           ROCEFIN Polvo SLN INY 1 GCIN     4
CC0001124077677H202100000556637100000556637106/12/20211604    31901015237421964250000N02B1100001464120000000000000                                           PARACETAMOL EP 1000MG/100ML(10MG/ML) SOL INY  CAJ X 10FCOVAL     3
