CC0000022448180H202100015112742300015112742306/12/20212057    3190010323742196425000039176700001029620000000000000                                                                    SUJETADOR TUBO ENDOTRAQUEAL 9799SOB     1
CC0000013887621H202100015112742300015112742306/12/20212057    3190010323742196425000038569400000256750000000000000                                                                        SONDA ASPIRACION CONTROL #14SIN     3
CC0001129564191H202100015112742300015112742306/12/20212057    3190010323742196425000038569400000256750000000000000                                                                        SONDA ASPIRACION CONTROL #14SIN     6
CC0000022448180H202100015112742300015112742306/12/20212057    3190010323742196425000038569400000256750000000000000                                                                        SONDA ASPIRACION CONTROL #14SIN    10
CC0001143115935H202100015112742300015112742306/12/20212057    3190010323742196425000038569400000256750000000000000                                                                        SONDA ASPIRACION CONTROL #14SIN     6
CC0000022448180H202100015112742300015112742306/12/20212057    3190010323742196425000022108000003906060000000000000                                                            SIST CERRAD ASPIRAC TRACH  22108-5 14 FRSOB     1
CC0000013887621H202100015112742300015112742306/12/20212057    3190010323742196425000055816100001138270000000000000                                                            SET VENTILACI BASIC AD MP00349 180CM*22MBOL     1
CC0001129564191H202100015112742300015112742306/12/20212057    3190010323742196425000055816100001138270000000000000                                                            SET VENTILACI BASIC AD MP00349 180CM*22MBOL     1
CC0000022448180H202100015112742300015112742306/12/20212057    3190010323742196425000055816100001138270000000000000                                                            SET VENTILACI BASIC AD MP00349 180CM*22MBOL     1
CC0000019490174H202100015112742300015112742306/12/20212057    3190010323742196425000055816100001138270000000000000                                                            SET VENTILACI BASIC AD MP00349 180CM*22MBOL     1
CC0000022448180H202100015112742300015112742306/12/20212057    3190010323742196425000010252000003981620000000000000                                                            RESUCITADOR MANUAL ADULTO BE - 2503 AMBUBOL     1
CC0000013887621H202100015112742300015112742306/12/20212057    3190010323742196425000036441300000236540000000000000                                                                    JERINGA 1 ML GASES ARTERIAL 9023SIN     6
CC0001129564191H202100015112742300015112742306/12/20212057    3190010323742196425000036441300000236540000000000000                                                                    JERINGA 1 ML GASES ARTERIAL 9023SIN     6
CC0000022448180H202100015112742300015112742306/12/20212057    3190010323742196425000036441300000236540000000000000                                                                    JERINGA 1 ML GASES ARTERIAL 9023SIN     7
CC0000019490174H202100015112742300015112742306/12/20212057    3190010323742196425000036441300000236540000000000000                                                                    JERINGA 1 ML GASES ARTERIAL 9023SIN     6
CC0001143115935H202100015112742300015112742306/12/20212057    3190010323742196425000036441300000236540000000000000                                                                    JERINGA 1 ML GASES ARTERIAL 9023SIN     6
CC0000013887621H202100015112742300015112742306/12/20212057    3190010323742196425000024674000001138340000000000000   JERINGA 3PARTES C/A 10ML REF JEHL005 CAJ X 100 ALFASAFE  21GX1 PULG 1/2 PULG BN EXENTO-DC.417/202PZA     6
CC0001129564191H202100015112742300015112742306/12/20212057    3190010323742196425000024674000001138340000000000000   JERINGA 3PARTES C/A 10ML REF JEHL005 CAJ X 100 ALFASAFE  21GX1 PULG 1/2 PULG BN EXENTO-DC.417/202PZA     6
CC0000022448180H202100015112742300015112742306/12/20212057    3190010323742196425000024674000001138340000000000000   JERINGA 3PARTES C/A 10ML REF JEHL005 CAJ X 100 ALFASAFE  21GX1 PULG 1/2 PULG BN EXENTO-DC.417/202PZA    10
CC0000019490174H202100015112742300015112742306/12/20212057    3190010323742196425000024674000001138340000000000000   JERINGA 3PARTES C/A 10ML REF JEHL005 CAJ X 100 ALFASAFE  21GX1 PULG 1/2 PULG BN EXENTO-DC.417/202PZA     6
CC0001143115935H202100015112742300015112742306/12/20212057    3190010323742196425000024674000001138340000000000000   JERINGA 3PARTES C/A 10ML REF JEHL005 CAJ X 100 ALFASAFE  21GX1 PULG 1/2 PULG BN EXENTO-DC.417/202PZA     6
CC0000022448180H202100015112742300015112742306/12/20212057    3190010323742196425000011085100001082120000000000000                                                                           GUANTE QUIRURGICO TALLA 7SOB     7
CC0000022448180H202100015112742300015112742306/12/20212057    3190010323742196425000013077800000471960000000000000                                                             GASA NO TEJIDA EST 7.5 X 7.5 SOB X 3 UNSOB     6
CC0000022448180H202100015112742300015112742306/12/20212057    3190010323742196425000037180800001271920000000000000                                                                   APOSITO DUODERM EXTR TH 10*10 187SOB     2
CC0000022448180H202100015112742300015112742306/12/20212057    31900103237421964250000E1AB0200000199290000000000000                                                            SOLUCION SALINA 0.9% SLN INY BO X 100 MLBIN     2
