CC0001051681679H202100015052805600015052805606/12/20211329    3150039123742196425000001956000001620610000000000000                                                                      CONECTOR MICRO CLAVE LAT-MC100SOB     1
TI0001047050967H202100015052805600015052805606/12/20211329    3150039123742196425000001956000001620610000000000000                                                                      CONECTOR MICRO CLAVE LAT-MC100SOB     1
CC0001042439975H202100015052805600015052805606/12/20211329    3150039123742196425000001956000001620610000000000000                                                                      CONECTOR MICRO CLAVE LAT-MC100SOB     1
CC0001042439975H202100015052805600015052805606/12/20211329    31500391237421964250000Q1AA7200000610630000000000000                                                            CATETER PERIFE INTROCAN # 20G 4251644-04SIN     1
CC0001051681679H202100015052805600015052805606/12/20211329    31500391237421964250000Q1AA7300000610640000000000000                                                            CATETER PERIFE INTROCAN # 22G 4251628-04SIN     2
TI0001047050967H202100015052805600015052805606/12/20211329    31500391237421964250000Q1AA7300000610640000000000000                                                            CATETER PERIFE INTROCAN # 22G 4251628-04SIN     2
CC0001042439975H202100015052805600015052805606/12/20211329    31500391237421964250000Q1AA7300000610640000000000000                                                            CATETER PERIFE INTROCAN # 22G 4251628-04SIN     2
CC0001051681679H202100015052805600015052805606/12/20211329    3150039123742196425000016830000000970620000000000000                                                             SIST FIJACION CAT PERIFERICO 6.5X7 1683SOB     1
TI0001047050967H202100015052805600015052805606/12/20211329    3150039123742196425000016830000000970620000000000000                                                             SIST FIJACION CAT PERIFERICO 6.5X7 1683SOB     1
CC0001042439975H202100015052805600015052805606/12/20211329    3150039123742196425000016830000000970620000000000000                                                             SIST FIJACION CAT PERIFERICO 6.5X7 1683SOB     1
