CC0000022596813H202100015112739900015112739906/12/20210257    3190294023742196425000047373400000228840000000000000                                                                             PINZA COLOSTOMIA 175635PZA     1
CC0000022596813H202100015112739900015112739906/12/20210257    3190294023742196425000040516100000228660000000000000                                                                 BOLSA COLOSTOMIA CONVATEC 57 402534PZA     1
CC0000022596813H202100015112739900015112739906/12/20210257    3190294023742196425000040514100000228740000000000000                                                               BARRERA COLOSTOMIA CONVATEC 57 125145PZA     1
