TI0001047050967H202100921038120600921038120606/12/20211110    3190330123742196425000011137100001419310000000000000                                                               TIRA GLUCOMETRIA FREESTYLE H OPTIUM .PZA     6
TI0001047050967H202100921038120600921038120606/12/20211110    3190330123742196425000024672100001609890000000000000                                                            JERINGA INSULINA 1ML TAPA NARANJA JEI013SOB     6
TI0001047050967H202100921038120600921038120606/12/20211110    3190330123742196425000024674000001138340000000000000   JERINGA 3PARTES C/A 10ML REF JEHL005 CAJ X 100 ALFASAFE  21GX1 PULG 1/2 PULG BN EXENTO-DC.417/202PZA     3
TI0001047050967H202100921038120600921038120606/12/20211110    3190330123742196425000045136100001419300000000000000                                                                            LANCETA DEXTROMETER X UNPZA     6
TI0001047050967H202100921038120600921038120606/12/20211110    31903301237421964250000V07A1300000502600000000000000                                                                                AGUA ESTERIL x 10 mlAMP     2
TI0001047050967H202100921038120600921038120606/12/20211351    3150024523742196425000011137100001419310000000000000                                                               TIRA GLUCOMETRIA FREESTYLE H OPTIUM .PZA     6
TI0001047050967H202100921038120600921038120606/12/20211351    31500245237421964250000V07A1300000502600000000000000                                                                                AGUA ESTERIL x 10 mlAMP     2
TI0001047050967H202100921038120600921038120606/12/20211351    3150024523742196425000024672100001609890000000000000                                                            JERINGA INSULINA 1ML TAPA NARANJA JEI013SOB     6
TI0001047050967H202100921038120600921038120606/12/20211351    3150024523742196425000045136100001419300000000000000                                                                            LANCETA DEXTROMETER X UNPZA     6
TI0001047050967H202100921038120600921038120606/12/20211351    3150024523742196425000024674000001138340000000000000   JERINGA 3PARTES C/A 10ML REF JEHL005 CAJ X 100 ALFASAFE  21GX1 PULG 1/2 PULG BN EXENTO-DC.417/202PZA     3
