CC0000022352292H202100000556610400000556610406/12/20211850     3300009237421964250000V3AB2200000614150000000000000                                                            GLUCONATO CALCIO SLN INY 10% AMP X 10 MLAPC     3
CC0000022352292H202100000556610400000556610406/12/20211703     3300009237421964250000B01A1000000860460000000000000                                                               FRAGMIN SLN INY 10.000 UI /0.4 ML /R/JRP     2
CC0000022352292H202100000556610400000556610406/12/20211715    31500128237421964250000E1AA0800000322190000000000000                                                                          DEXTROSA 5% Sln Iny 250 mlBIN     3
CC0000022352292H202100000556610400000556610406/12/20212107    31500452237421964250000E1AD0300000199490000000000000                                         LACTATO RINGER USP (HARTMANN)  SOL INY  BOL X 1000ML BAXTERBIN     1
CC0000022352292H202100000556610400000556610406/12/20211815    31903254237421964250000E1AD0300000199490000000000000                                         LACTATO RINGER USP (HARTMANN)  SOL INY  BOL X 1000ML BAXTERBIN     2
CC0000022352292H202100000556610400000556610406/12/20211850     3300009237421964250000A12BA100000552980000000000000                                                            CLORURO POTASIO Sln Iny AMP 20 MEQ/10 MLAMP     8
CC0000022352292H202100000556610400000556610406/12/20211017     3300009237421964250000C09CA400001277130000000000000                                                                                  LOSARTAN TAB 50 MGTAB     1
CC0000022352292H202100000556610400000556610406/12/20211123     3300009237421964250000J01XA400001212420000000000000                                                               VANCOMICINA POLVO LIOF SLN INY 500 MGVAL     6
CC0000022352292H202100000556610400000556610406/12/20211017     3300009237421964250000N02B1100001464120000000000000                                           PARACETAMOL EP 1000MG/100ML(10MG/ML) SOL INY  CAJ X 10FCOVAL     4
CC0000022352292H202100000556610400000556610406/12/20211631     3300009237421964250000B01AC200001333600000000000000                                                                               CLOPIDOGREL TAB 75 MGTAB     4
CC0000022352292H202100000556610400000556610406/12/20211017     3300009237421964250000C7AB0100001276990000000000000                                                                            BETOPROLOL TAB 50 MG /R/TAB     1
CC0000022352292H202100000556610400000556610406/12/20211851     3300009237421964250000C08CA200001277660000000000000                                                                                 AMLODIPINO TAB 5 MGTAB     2
CC0000022352292H202100000556610400000556610406/12/20211017     3300009237421964250000H03AA200001391520000000000000                                                                            LEVOTIROXINA TAB 100 MCGTAB     1
CC0000022352292H202100000556610400000556610406/12/20211631     3300009237421964250000N02BA100001276940000000000000                                                                  ACIDO ACETIL SALIC?LICO TAB 100 MGTAB     3
CC0000022352292H202100000556610400000556610406/12/20211017     3300009237421964250000A02BC700001684270000000000000                                                            OMEPRAZOL 40MG POLVO LIOFILIZADO AMPOLLAVAL     1
