CC0001102861537H202100015052806600015052806606/12/20212009    3150052623742196425000011082700001620070000000000000                                                               EQUIPO SET PRIMARIO C/CLAVE REF 14001BOL     1
RC0001102895413H202100015052806600015052806606/12/20212009    3150052623742196425000001956000001620610000000000000                                                                      CONECTOR MICRO CLAVE LAT-MC100SOB     1
RC0001102895413H202100015052806600015052806606/12/20212009    31500526237421964250000Q1AA7400003911720000000000000                                                            CATETER PERIFE INTROCAN # 24G 4251601-04SOB     2
CC0001102861537H202100015052806600015052806606/12/20212009    3150052623742196425000030936900001431840000000000000                                                                                              BURETABOL     1
RC0001102895413H202100015052806600015052806606/12/20212009    3150052623742196425000000602600001259280000000000000                                                             APOSITO TEGADERM IV PD 1610 5CM X 5.7CMSOB     1
CC0000003724288H202100015052806600015052806606/12/20212009    31500526237421964250000E1BA0700000198910000000000000                                                                   UROMATIC Sln IRRIGACION X 3000 MLBIN     2
CC0000003724288H202100015052806600015052806606/12/20212009    31500526237421964250000E1AD0300000199490000000000000                                         LACTATO RINGER USP (HARTMANN)  SOL INY  BOL X 1000ML BAXTERBIN     1
CC0001085041540H202100015052806600015052806606/12/20212009    31500526237421964250000E1AB0300003888390000000000000                                                            SOLUCION SALINA 0.9% SLN INY BO X 500 MLBOL     1
CC0001143259393H202100015052806600015052806606/12/20212009    31500526237421964250000E1AB0300003888390000000000000                                                            SOLUCION SALINA 0.9% SLN INY BO X 500 MLBOL     1
CC0001102861537H202100015052806600015052806606/12/20212009    31500526237421964250000E1AB0300003888390000000000000                                                            SOLUCION SALINA 0.9% SLN INY BO X 500 MLBOL     1
CC0001143456221H202100015052806600015052806606/12/20212009    31500526237421964250000E1AB0300003888390000000000000                                                            SOLUCION SALINA 0.9% SLN INY BO X 500 MLBOL     1
CC0001140828909H202100015052806600015052806606/12/20212009    31500526237421964250000E1AB0300003888390000000000000                                                            SOLUCION SALINA 0.9% SLN INY BO X 500 MLBOL     1
CC0000032856400H202100015052806600015052806606/12/20212009    31500526237421964250000E1AB0300003888390000000000000                                                            SOLUCION SALINA 0.9% SLN INY BO X 500 MLBOL     1
CC0001047230087H202100015052806600015052806606/12/20212009    31500526237421964250000E1AB0300003888390000000000000                                                            SOLUCION SALINA 0.9% SLN INY BO X 500 MLBOL     1
