CC0000052427616A202100000027830900000027830906/12/20211727    31903336240421964190000H1BC0100003916500000000000000                                                                         METHERGIN Sln Iny 0.2 mg/MLAMP     1
CC0000052427616A202100000027830900000027830906/12/20211727    3190333624042196419000000901800000598580000000000000                                                                     MASCARA LARINGEA REUSABLE No. 4SIN     1
CC0000052427616A202100000027830900000027830906/12/20211727    3190333624042196419000011082600000265810000000000000                                                              EQUIPO IRRIGACION URINARIA REF MRC4002SOB     1
CC0000052427616A202100000027830900000027830906/12/20211727    31903336240421964190000N1BA1900000554750000000000000                                                                     ROXICAINA JALEA 2% TUBO X 30 MLTUB     1
CC0000052427616A202100000027830900000027830906/12/20211727    3190333624042196419000022425200000548240000000000000                       EXTENSION DE ANESTESIA REF 1139 SOB X 1 SHERLEG  ADULTO BN EXENTO-DC.417/2020SIN     1
CC0000052427616A202100000027830900000027830906/12/20211727    3190333624042196419000035356500003919000000000000000                                                                                        LLAVE 3 VIASSOB     2
CC0000052427616A202100000027830900000027830906/12/20211727    31903336240421964190000Q1AA7100000610620000000000000                                                            CATETER PERIFE INTROCAN # 18G 4251687-04SIN     1
CC0000052427616A202100000027830900000027830906/12/20211727    3190333624042196419000022426800001140510000000000000                                                                    EQUIPO MACROGOTEO BAXTER MRC0001SOB     1
CC0000052427616A202100000027830900000027830906/12/20211727    3190333624042196419000016830000000970620000000000000                                                             SIST FIJACION CAT PERIFERICO 6.5X7 1683SOB     1
CC0000052427616A202100000027830900000027830906/12/20211727    31903336240421964190000J01DA300001239950000000000000                                                            CEFAZOLINA SODICA POLVO LIOF SLN INY 1 GVAL     2
CC0000052427616A202100000027830900000027830906/12/20211727    3190333624042196419000053074400000607910000000000000                                                               GASA ESTERIL 10*10 SOBRE X 3 UNIDADESSOB     3
CC0000052427616A202100000027830900000027830906/12/20211727    3190333624042196419000011085100001082120000000000000                                                                           GUANTE QUIRURGICO TALLA 7SOB     1
CC0000052427616A202100000027830900000027830906/12/20211727    3190333624042196419000043485100001618510000000000000                GUANTE QUIRURGICO DE LATEX REF 2D72N65X CAJ X 50 PROTEXIS  6.5 BN EXENTO-DC.417/2020SOB     2
CC0000052427616A202100000027830900000027830906/12/20211727    3190333624042196419000051515500000598160000000000000                                                                            MASCARILLA ANESTESIA # 5SIN     1
CC0000052427616A202100000027830900000027830906/12/20211727    3190333624042196419000011099300000777780000000000000                                                                     FILTRO BACTERIANO VIRICO ADULTOBOL     1
CC0000052427616A202100000027830900000027830906/12/20211727    3190333624042196419000020056600001101530000000000000                                                                AGUJA HIPODERMICA DESECH 18G X 1 1/2SOB     1
CC0000052427616A202100000027830900000027830906/12/20211727    3190333624042196419000039175200001072070000000000000                                                                           TUBO ENDOTRAQUEAL C/B 8.0SOB     1
CC0000052427616A202100000027830900000027830906/12/20211727    3190333624042196419000039175100001072060000000000000                                                                           TUBO ENDOTRAQUEAL C/B 7.5SOB     1
CC0000052427616A202100000027830900000027830906/12/20211727    3190333624042196419000039175000001072050000000000000                                                                           TUBO ENDOTRAQUEAL C/B 7.0SOB     1
CC0000052427616A202100000027830900000027830906/12/20211727    3190333624042196419000039174900001072040000000000000                                                                           TUBO ENDOTRAQUEAL C/B 6.5SOB     1
CC0000052427616A202100000027830900000027830906/12/20211727    3190333624042196419000039174800001072030000000000000                                                                           TUBO ENDOTRAQUEAL C/B 6.0SOB     1
CC0000052427616A202100000027830900000027830906/12/20211727    3190333624042196419000024673000001411210000000000000                                                                  JERINGA DESECHABLE 3 ML 21 X 1 1/2SOB     2
CC0000052427616A202100000027830900000027830906/12/20211727    3190333624042196419000024673600000222980000000000000                                                                     JERINGA DESECHABLE 5 ml 27*11/2SIN     3
CC0000052427616A202100000027830900000027830906/12/20211727    3190333624042196419000024674000001138340000000000000   JERINGA 3PARTES C/A 10ML REF JEHL005 CAJ X 100 ALFASAFE  21GX1 PULG 1/2 PULG BN EXENTO-DC.417/202PZA     2
CC0000052427616A202100000027830900000027830906/12/20211727    3190333624042196419000024674500000322810000000000000                                                                   JERINGA DESECHABLE 20 ml 21*1 1/2SIN     1
CC0000052427616A202100000027830900000027830906/12/20211727    31903336240421964190000E1AB0500003888400000000000000                                                              SOLUCION SALINA 0.9% SLN INY X 1000 MLBOL     1
CC0000052427616A202100000027830900000027830906/12/20211727    31903336240421964190000E1AB0300003888390000000000000                                                            SOLUCION SALINA 0.9% SLN INY BO X 500 MLBOL     2
CC0000052427616A202100000027830900000027830906/12/20211727    31903336240421964190000E1AB0700003888350000000000000                                                            SOLUCION SALINA 0.9% SLN INY BO X 250 MLBOL     2
CC0000052427616A202100000027830900000027830906/12/20211727    31903336240421964190000A3BB0200000512940000000000000                                                                          BUSCAPINA SIMPLE Iny 20 mgAMP     1
CC0000052427616A202100000027830900000027830906/12/20211727    31903336240421964190000N01A0400003939010000000000000                                               MAYOPROFOL 200MG/20ML(1%) EMUL INY CAJ X 1VIAL X 20MLVAL     1
CC0000052427616A202100000027830900000027830906/12/20211727    31903336240421964190000M01A0400001341250000000000000                                                                              DYNASTAT AMP 40 MG /R/VAL     1
CC0000052427616A202100000027830900000027830906/12/20211727    31903336240421964190000N2BB1100000217160000000000000                                                                      NOVALGINA Sln Iny 2.5 g x 5 mlAMP     1
CC0000052427616A202100000027830900000027830906/12/20211727    31903336240421964190000H02AB500001664950000000000000                                                            DEXAMETASONA SLN INY 8 MG/2 ML AMP /CDS/AMP     1
CC0000052427616A202100000027830900000027830906/12/20211727    31903336240421964190000N1BA2400001687720000000000000                                                    LIDOCAINA 2% SOL INY  CAJ X 50AMP X 10ML CORPAULAMP     1
CC0000052427616A202100000027830900000027830906/12/20211727    31903336240421964190000M3AC0600000720540000000000000                                                                         ESMERON SLN INY 50 MG /5 MLVAL     1
CC0000052427616A202100000027830900000027830906/12/20211727    31903336240421964190000N2AA0700001587170000000000000                                                                                 ULTIVA Sln Iny 2 mgVAL     1
