CC0000026964456U202100000556642100000556642106/12/20212033     3300004239421964320000B1AB0900003939260000000000000                 ENOXAPARINA SODICA 60MG/0.6ML(100MG/ML) SOL INY INST CAJ X 2JERPREL X 0.6ML TECHDOWJRP     1
CC0000026964456U202100000556642100000556642106/12/20212130    31903180239421964320000E1AB1100003888280000000000000                                                                        SOLUCION SALINA 0.9% X 50 mlBOL     1
CC0000026964456U202100000556642100000556642106/12/20212033     3300004239421964320000C3CA0200000195520000000000000                                                                           LASIX SLN INY 20 MG/ 2 MLAMP     1
CC0000026964456U202100000556642100000556642106/12/20212036     3300004239421964320000N1BA1900000554750000000000000                                                                     ROXICAINA JALEA 2% TUBO X 30 MLTUB     1
