CC0000022362807H202100015112741400015112741406/12/20211459    3190099823742196425000011089300001083990000000000000                                                              GUANTE ESTERIL LATEX S/POLVO TALLA 7.5SOB     4
CC0000022362807H202100015112741400015112741406/12/20211459    3190099823742196425000011085100001082120000000000000                                                                           GUANTE QUIRURGICO TALLA 7SOB     3
CC0000022362807H202100015112741400015112741406/12/20211459    3190099823742196425000013077800000471960000000000000                                                             GASA NO TEJIDA EST 7.5 X 7.5 SOB X 3 UNSOB    15
CC0000022362807H202100015112741400015112741406/12/20211459    3190099823742196425000042743200003929860000000000000                   GASA ADHESIVA STRETCH REF 02038-00 ROL X 10MT FIXOMULL 15CM BN EXENTO-DC.417/2020CMT    40
CC0000022362807H202100015112741400015112741406/12/20211459    3190099823742196425000011081700001413910000000000000                                                                EQUIPO ADM NUTRICIONES 673662 BAXTERBOL     1
CC0000072339909H202100015112741400015112741406/12/20211459    3190099823742196425000011081700001413910000000000000                                                                EQUIPO ADM NUTRICIONES 673662 BAXTERBOL     1
CC0000032776593H202100015112741400015112741406/12/20211459    3190099823742196425000011081700001413910000000000000                                                                EQUIPO ADM NUTRICIONES 673662 BAXTERBOL     1
CC0001066890191H202100015112741400015112741406/12/20211459    3190099823742196425000011081700001413910000000000000                                                                EQUIPO ADM NUTRICIONES 673662 BAXTERBOL     1
CC0000022362807H202100015112741400015112741406/12/20211459    3190099823742196425000020059500000225210000000000000                                                               AGUJA RAQUI SPINOCAN #20 REF. 4509900SIN     1
CC0000022362807H202100015112741400015112741406/12/20211459    3190099823742196425000020059300000225200000000000000                                                                            AGUJA RAQUI SPINOCAN #18SIN     1
