CC0000026964456U202100050131943900050131943906/12/20211843    3150051423942196432000035639600001014740000000000000                                                                              MASCARA VENTURY ADULTOBOL     1
CC0000008685037U202100050131943900050131943906/12/20211843    3150051423942196432000036441300000236540000000000000                                                                    JERINGA 1 ML GASES ARTERIAL 9023SIN     1
CC0000026964456U202100050131943900050131943906/12/20211843    3150051423942196432000036441300000236540000000000000                                                                    JERINGA 1 ML GASES ARTERIAL 9023SIN     1
CC0000008685037U202100050131943900050131943906/12/20211843    3150051423942196432000043995200000229010000000000000                                                               HUMIDIFICADOR PARA OXIGENO REF. H001BBOL     1
CC0000026964456U202100050131943900050131943906/12/20211843    3150051423942196432000043995200000229010000000000000                                                               HUMIDIFICADOR PARA OXIGENO REF. H001BBOL     1
CC0000008685037U202100050131943900050131943906/12/20211843    3150051423942196432000038568100000258050000000000000                                                                         CANULA OXIGENO NASAL ADULTOSIN     1
CC0000026964456U202100050131943900050131943906/12/20211843    3150051423942196432000038568100000258050000000000000                                                                         CANULA OXIGENO NASAL ADULTOSIN     1
