CC0000055242968U202100000556641500000556641506/12/20211909    31500394239421964320000E1AD0300000199490000000000000                                         LACTATO RINGER USP (HARTMANN)  SOL INY  BOL X 1000ML BAXTERBIN     2
CC0000055242968U202100000556641500000556641506/12/20211838     3300004239421964320000H02AB500001664950000000000000                                                            DEXAMETASONA SLN INY 8 MG/2 ML AMP /CDS/AMP     2
CC0000055242968U202100000556641500000556641506/12/20211838     3300004239421964320000N02C0400001567430000000000000                                                                            FENCAFEN Tab 100 mg/1 mgTAB     1
CC0000055242968U202100000556641500000556641506/12/20211840     3300004239421964320000N2BE2200001252930000000000000                                                                             ACETAMINOFEN Tab 500 MGTAB     2
CC0000055242968U202100000556641500000556641506/12/20211838     3300004239421964320000N02BB100000777810000000000000                                                               DIPIRONA MAGNESICA SLN INY 2.5 G/5 MLAMP     1
