CC0001234092950U202100050131933300050131933306/12/20210202    3190233123942196432000024674000001138340000000000000   JERINGA 3PARTES C/A 10ML REF JEHL005 CAJ X 100 ALFASAFE  21GX1 PULG 1/2 PULG BN EXENTO-DC.417/202PZA     4
CC0001234092950U202100050131933300050131933306/12/20210202    3190233123942196432000011082700001620070000000000000                                                               EQUIPO SET PRIMARIO C/CLAVE REF 14001BOL     1
CC0001234092950U202100050131933300050131933306/12/20210202    31902331239421964320000Q1AA7200000610630000000000000                                                            CATETER PERIFE INTROCAN # 20G 4251644-04SIN     1
CC0001234092950U202100050131933300050131933306/12/20210202    3190233123942196432000030936900001431840000000000000                                                                                              BURETABOL     1
CC0001234092950U202100050131933300050131933306/12/20210202    3190233123942196432000016830000000970620000000000000                                                             SIST FIJACION CAT PERIFERICO 6.5X7 1683SOB     1
CC0001234092950U202100050131933300050131933306/12/20210202    31902331239421964320000E1AD0300000199490000000000000                                         LACTATO RINGER USP (HARTMANN)  SOL INY  BOL X 1000ML BAXTERBIN     2
