CC0000032731214U202100000556620200000556620206/12/20210800     3300010239421964320000A03F0300001626860000000000000                                                                   METOCLOPRAMIDA SLN INY 10 MG/2 MLAMP     1
CC0000032731214U202100000556620200000556620206/12/20211628    31500177239421964320000E1AD0300000199490000000000000                                         LACTATO RINGER USP (HARTMANN)  SOL INY  BOL X 1000ML BAXTERBIN     2
CC0000032731214U202100000556620200000556620206/12/20210800     3300010239421964320000A03DH100001684240000000000000                                                            B HIOSCINA 20MG/DIPIRON 2.5G SLN INY 5MLAMP     1
CC0000032731214U202100000556620200000556620206/12/20210800     3300010239421964320000A02BC700001684270000000000000                                                            OMEPRAZOL 40MG POLVO LIOFILIZADO AMPOLLAVAL     1
