TI0001080425007A202100000027829500000027829506/12/20210750    3190333624042196419000038569900001124970000000000000                                                                              SONDA FOLEY #14 2 VIASSOB     1
TI0001080425007A202100000027829500000027829506/12/20210750    3190333624042196419000031188000000236790000000000000                                                                                     CISTOFLO ADULTOSIN     1
TI0001080425007A202100000027829500000027829506/12/20210750    31903336240421964190000Q1AA7200000610630000000000000                                                            CATETER PERIFE INTROCAN # 20G 4251644-04SIN     1
TI0001080425007A202100000027829500000027829506/12/20210750    31903336240421964190000N01A0400003939010000000000000                                               MAYOPROFOL 200MG/20ML(1%) EMUL INY CAJ X 1VIAL X 20MLVAL     1
TI0001080425007A202100000027829500000027829506/12/20210750    31903336240421964190000N01A0500003844190000000000000                                                                          REMIFENTANILO SLN INY 2 MGVAL     1
TI0001080425007A202100000027829500000027829506/12/20210750    3190333624042196419000017280100004015080000000000000 SUTURA MONOFIL ABSORBIBLE SH REF PDP316H CAJ X 36 PDS PLUS 70CM - 3-0 VIOLETA BN EXENTO-DC.417/2020SOB     2
TI0001080425007A202100000027829500000027829506/12/20210750    3190333624042196419000012474000000232230000000000000                                                                SUTURA ETHILON 4-0 SC-20 45CM 14502TSIN     1
TI0001080425007A202100000027829500000027829506/12/20210750    3190333624042196419000019488700000753270000000000000                                                                              VICRYL 3-0 SH1 VCP311HSOB     1
TI0001080425007A202100000027829500000027829506/12/20210750    3190333624042196419000043879100001138200000000000000                                                                  HOJA BISTURI # 15 CSSB 15 01002003SOB     1
TI0001080425007A202100000027829500000027829506/12/20210750    3190333624042196419000013077800000471960000000000000                                                             GASA NO TEJIDA EST 7.5 X 7.5 SOB X 3 UNSOB     2
TI0001080425007A202100000027829500000027829506/12/20210750    31903336240421964190000N1BA0300000217900000000000000                                                                    BUPIROP 0.5% C/E Sln Iny x 20 mlVAL     1
TI0001080425007A202100000027829500000027829506/12/20210750    3190333624042196419000043879200001138180000000000000                                                                                   HOJA BISTURI # 11SOB     1
TI0001080425007A202100000027829500000027829506/12/20210750    3190333624042196419000011082600000265810000000000000                                                              EQUIPO IRRIGACION URINARIA REF MRC4002SOB     1
TI0001080425007A202100000027829500000027829506/12/20210750    3190333624042196419000045138000001413890000000000000                                                                       LAPIZ ELECTROBISTURI  SOB X 1SOB     1
TI0001080425007A202100000027829500000027829506/12/20210750    3190333624042196419000022425200000548240000000000000                       EXTENSION DE ANESTESIA REF 1139 SOB X 1 SHERLEG  ADULTO BN EXENTO-DC.417/2020SIN     1
TI0001080425007A202100000027829500000027829506/12/20210750    3190333624042196419000035356500003919000000000000000                                                                                        LLAVE 3 VIASSOB     1
TI0001080425007A202100000027829500000027829506/12/20210750    3190333624042196419000022426800001140510000000000000                                                                    EQUIPO MACROGOTEO BAXTER MRC0001SOB     1
TI0001080425007A202100000027829500000027829506/12/20210750    31903336240421964190000J01DA300001239950000000000000                                                            CEFAZOLINA SODICA POLVO LIOF SLN INY 1 GVAL     2
TI0001080425007A202100000027829500000027829506/12/20210750    3190333624042196419000030161400001459220000000000000                                                                       MANGUERA SUCCION 6 MM*3.1 MTSSOB     3
TI0001080425007A202100000027829500000027829506/12/20210750    3190333624042196419000011073300001096420000000000000                                                                BOLSA DE SUCCION DE FLUIDOS x 2500mLBOL     1
TI0001080425007A202100000027829500000027829506/12/20210750    3190333624042196419000011082700001620070000000000000                                                               EQUIPO SET PRIMARIO C/CLAVE REF 14001BOL     1
TI0001080425007A202100000027829500000027829506/12/20210750    3190333624042196419000053074400000607910000000000000                                                               GASA ESTERIL 10*10 SOBRE X 3 UNIDADESSOB     3
TI0001080425007A202100000027829500000027829506/12/20210750    3190333624042196419000024673600000222980000000000000                                                                     JERINGA DESECHABLE 5 ml 27*11/2SIN     1
TI0001080425007A202100000027829500000027829506/12/20210750    3190333624042196419000024674000001138340000000000000   JERINGA 3PARTES C/A 10ML REF JEHL005 CAJ X 100 ALFASAFE  21GX1 PULG 1/2 PULG BN EXENTO-DC.417/202PZA     3
TI0001080425007A202100000027829500000027829506/12/20210750    3190333624042196419000024674500000322810000000000000                                                                   JERINGA DESECHABLE 20 ml 21*1 1/2SIN     2
TI0001080425007A202100000027829500000027829506/12/20210750    3190333624042196419000051515400000598150000000000000                                                                            MASCARILLA ANESTESIA # 4SIN     1
TI0001080425007A202100000027829500000027829506/12/20210750    3190333624042196419000043485100001618510000000000000                GUANTE QUIRURGICO DE LATEX REF 2D72N65X CAJ X 50 PROTEXIS  6.5 BN EXENTO-DC.417/2020SOB     2
TI0001080425007A202100000027829500000027829506/12/20210750    3190333624042196419000039174900001072040000000000000                                                                           TUBO ENDOTRAQUEAL C/B 6.5SOB     1
TI0001080425007A202100000027829500000027829506/12/20210750    3190333624042196419000031010900000762730000000000000                                                                          CANULA GUEDEL # 4 (100 MM)SOB     1
TI0001080425007A202100000027829500000027829506/12/20210750    31903336240421964190000E1AD0200003888320000000000000                                                                              HARTMAN SLN INY 500 MLBOL     2
TI0001080425007A202100000027829500000027829506/12/20210750    31903336240421964190000E1AB0500003888400000000000000                                                              SOLUCION SALINA 0.9% SLN INY X 1000 MLBOL     1
TI0001080425007A202100000027829500000027829506/12/20210750    31903336240421964190000E1AB0300003888390000000000000                                                            SOLUCION SALINA 0.9% SLN INY BO X 500 MLBOL     4
TI0001080425007A202100000027829500000027829506/12/20210750    31903336240421964190000E1AB0700003888350000000000000                                                            SOLUCION SALINA 0.9% SLN INY BO X 250 MLBOL     1
TI0001080425007A202100000027829500000027829506/12/20210750    31903336240421964190000E1AB0200000199290000000000000                                                            SOLUCION SALINA 0.9% SLN INY BO X 100 MLBIN     2
TI0001080425007A202100000027829500000027829506/12/20210750    31903336240421964190000N1BA2400001687720000000000000                                                    LIDOCAINA 2% SOL INY  CAJ X 50AMP X 10ML CORPAULAMP     1
TI0001080425007A202100000027829500000027829506/12/20210750    31903336240421964190000M03A0900001467590000000000000                                                                        ROCURONIO SLN INY 50 MG/5 MLVAL     1
TI0001080425007A202100000027829500000027829506/12/20210750    31903336240421964190000N2BB0100001672010000000000000                                  DIPIRONA 1GR/2ML(0.5GR/ML) SOL INY INST CAJ X 100AMP X 2ML VITALISAMP     2
TI0001080425007A202100000027829500000027829506/12/20210750    31903336240421964190000M01A2000001664970000000000000                                                               DICLOFENACO SODICO SLN INY 75 MG/3 MLAMP     1
TI0001080425007A202100000027829500000027829506/12/20210750    31903336240421964190000H02A0100001664960000000000000                                                                        DEXAMETASONA SLN INY 4 MG/MLAMP     1
TI0001080425007A202100000027829500000027829506/12/20210750    31903336240421964190000A3BA0100001109400000000000000                                                                          ATROPINA SLN INY 1 MG / MLAMP     1
