RC0001146543342H202100000556612400000556612406/12/20211610     3300009237421964250000A04A1300001335720000000000000                                                                                      ONDAX TAB 4 MGTAB     3
RC0001146543342H202100000556612400000556612406/12/20211911    31500183237421964250000E1AC0100000199400000000000000                                                                          SUERO MIXTO Sln Iny 500 mlBIN     2
RC0001146543342H202100000556612400000556612406/12/20210146    31500213237421964250000E1AC0100000199400000000000000                                                                          SUERO MIXTO Sln Iny 500 mlBIN     1
RC0001146543342H202100000556612400000556612406/12/20210828     3300009237421964250000L1BC8300001443700000000000000                                                                   CITARABINA SLN INY 100 MG/ ML /R/VAL     1
RC0001146543342H202100000556612400000556612406/12/20212241     3300004237421964250000A03BB100003889180000000000000                                      HIOSCINA BUTIL BROMURO 20MG/ML SOL INY CAJ X 100AMP X 1ML RYANAMP     1
RC0001146543342H202100000556612400000556612406/12/20210131     3300004237421964250000A03BB100003889180000000000000                                      HIOSCINA BUTIL BROMURO 20MG/ML SOL INY CAJ X 100AMP X 1ML RYANAMP     1
RC0001146543342H202100000556612400000556612406/12/20211844     3300009237421964250000N05B0500000603400000000000000                                                             HIDROXICINA JBE 250 MG /100 ML X 120 MLFCO     1
RC0001146543342H202100000556612400000556612406/12/20211609     3300009237421964250000A02BC700001684270000000000000                                                            OMEPRAZOL 40MG POLVO LIOFILIZADO AMPOLLAVAL     1
RC0001146543342H202100000556612400000556612406/12/20211853    31903313237421964250000V07A1300000502600000000000000                                                                                AGUA ESTERIL x 10 mlAMP     5
RC0001146543342H202100000556612400000556612406/12/20210146    31500213237421964250000V07A1300000502600000000000000                                                                                AGUA ESTERIL x 10 mlAMP     3
