CC0000022596813H202100015112740700015112740706/12/20211052    31900998237421964250000V07A1300000502600000000000000                                                                                AGUA ESTERIL x 10 mlAMP    10
CC0000019773143H202100015112740700015112740706/12/20211052    31900998237421964250000V07A1300000502600000000000000                                                                                AGUA ESTERIL x 10 mlAMP    10
CC0000022362807H202100015112740700015112740706/12/20211052    31900998237421964250000V07A1300000502600000000000000                                                                                AGUA ESTERIL x 10 mlAMP    10
CC0000072339909H202100015112740700015112740706/12/20211052    31900998237421964250000V07A1300000502600000000000000                                                                                AGUA ESTERIL x 10 mlAMP    10
CC0000032776593H202100015112740700015112740706/12/20211052    31900998237421964250000V07A1300000502600000000000000                                                                                AGUA ESTERIL x 10 mlAMP    10
CC0001066890191H202100015112740700015112740706/12/20211052    31900998237421964250000V07A1300000502600000000000000                                                                                AGUA ESTERIL x 10 mlAMP    10
CC0000007444684H202100015112740700015112740706/12/20211052    31900998237421964250000V07A1300000502600000000000000                                                                                AGUA ESTERIL x 10 mlAMP    10
CC0000019773143H202100015112740700015112740706/12/20211052    3190099823742196425000018354100000232880000000000000                                                                  SUTURA SEDA NEGRA 3-0 KS 75CM 622HSIN     2
CC0000019773143H202100015112740700015112740706/12/20211052    3190099823742196425000038570000001123500000000000000                                                                              SONDA FOLEY #16 2 VIASSOB     1
CC0000019773143H202100015112740700015112740706/12/20211052    3190099823742196425000035356500003919000000000000000                                                                                        LLAVE 3 VIASSOB     1
CC0000022362807H202100015112740700015112740706/12/20211052    3190099823742196425000035356500003919000000000000000                                                                                        LLAVE 3 VIASSOB     1
CC0000019773143H202100015112740700015112740706/12/20211052    3190099823742196425000011051900000226360000000000000                                                               KIT TRANSDUCTOR SENCILLO S/VAMP PX260SOB     1
CC0000019773143H202100015112740700015112740706/12/20211052    3190099823742196425000043879200001138180000000000000                                                                                   HOJA BISTURI # 11SOB     2
CC0000019773143H202100015112740700015112740706/12/20211052    3190099823742196425000022426800001140510000000000000                                                                    EQUIPO MACROGOTEO BAXTER MRC0001SOB     3
CC0000019773143H202100015112740700015112740706/12/20211052    3190099823742196425000011082900001233450000000000000                                                               EQUIPO LC 5000 PRIMARIO FOTOPRO 0L218SOB     2
CC0000019773143H202100015112740700015112740706/12/20211052    3190099823742196425000011082700001620070000000000000                                                               EQUIPO SET PRIMARIO C/CLAVE REF 14001BOL     3
CC0000019773143H202100015112740700015112740706/12/20211052    3190099823742196425000022425200000548240000000000000                       EXTENSION DE ANESTESIA REF 1139 SOB X 1 SHERLEG  ADULTO BN EXENTO-DC.417/2020SIN     1
CC0000019773143H202100015112740700015112740706/12/20211052    3190099823742196425000031188000000236790000000000000                                                                                     CISTOFLO ADULTOSIN     1
CC0000019773143H202100015112740700015112740706/12/20211052    3190099823742196425000001956000001620610000000000000                                                                      CONECTOR MICRO CLAVE LAT-MC100SOB     3
CC0000019773143H202100015112740700015112740706/12/20211052    3190099823742196425000000302100000227700000000000000                                                               CAT CENTRAL MONOLUM ES04301 16FR *20MSIN     1
CC0000019773143H202100015112740700015112740706/12/20211052    3190099823742196425000000301900000227730000000000000                                                               CATETER TRILUMEN AD CS14703E 7FR*30CMSIN     1
CC0000019773143H202100015112740700015112740706/12/20211052    31900998237421964250000Q1A11500000331560000000000000                                                                     CATETER RADIAL #20 REF. 115.090SIN     1
CC0000019773143H202100015112740700015112740706/12/20211052    31900998237421964250000E1AD0300000199490000000000000                                         LACTATO RINGER USP (HARTMANN)  SOL INY  BOL X 1000ML BAXTERBIN     3
CC0000019773143H202100015112740700015112740706/12/20211052    31900998237421964250000E1AB0500003888400000000000000                                                              SOLUCION SALINA 0.9% SLN INY X 1000 MLBOL     3
CC0000019773143H202100015112740700015112740706/12/20211052    31900998237421964250000E1AB0300003888390000000000000                                                            SOLUCION SALINA 0.9% SLN INY BO X 500 MLBOL     2
CC0000019773143H202100015112740700015112740706/12/20211052    31900998237421964250000E1AB0700003888350000000000000                                                            SOLUCION SALINA 0.9% SLN INY BO X 250 MLBOL     1
CC0000019773143H202100015112740700015112740706/12/20211052    31900998237421964250000E1AB0200000199290000000000000                                                            SOLUCION SALINA 0.9% SLN INY BO X 100 MLBIN    10
CC0000022362807H202100015112740700015112740706/12/20211052    3190099823742196425000011128500000513560000000000000                                                            CONECTOR ANGULADO REF 45104 MEDTRONIC UNSIN     1
