CC0000072018971H202100000556632600000556632606/12/20211427    31903254237421964250000C09CA400001277130000000000000                                                                                  LOSARTAN TAB 50 MGTAB     2
CC0000072018971H202100000556632600000556632606/12/20211427    31903254237421964250000A02B0800001276960000000000000                                                                                 OMEPRAZOL CAP 20 MGCAP     1
CC0000072018971H202100000556632600000556632606/12/20211427    31903254237421964250000B01AB200000513350000000000000                                                                        CLENOX SLN INY 40 MG/ 0.4 MLJRP     1
CC0000072018971H202100000556632600000556632606/12/20211427    31903254237421964250000C02AC200001559150000000000000                                                                              CLONIDINA TAB 0.150 MGTAB     3
CC0000072018971H202100000556632600000556632606/12/20211427    31903254237421964250000C7AB0100001276990000000000000                                                                            BETOPROLOL TAB 50 MG /R/TAB     3
CC0000072018971H202100000556632600000556632606/12/20211427    31903254237421964250000C08CA300001313930000000000000                                                                                AMLODIPINO TAB 10 MGTAB     1
CC0000072018971H202100000556632600000556632606/12/20211427    31903254237421964250000J01DD500001239970000000000000                                                                  CEFTRIAXONA POLVO LIOF SLN INY 1 GVAL     2
CC0000072018971H202100000556632600000556632606/12/20211427    31903254237421964250000N2BB0100001672010000000000000                                  DIPIRONA 1GR/2ML(0.5GR/ML) SOL INY INST CAJ X 100AMP X 2ML VITALISAMP     3
