CC0000013887621H202100015112740600015112740606/12/20210925    3190294123742196425000036441300000236540000000000000                                                                    JERINGA 1 ML GASES ARTERIAL 9023SIN     4
CC0001129564191H202100015112740600015112740606/12/20210925    3190294123742196425000036441300000236540000000000000                                                                    JERINGA 1 ML GASES ARTERIAL 9023SIN     4
CC0000019490174H202100015112740600015112740606/12/20210925    3190294123742196425000036441300000236540000000000000                                                                    JERINGA 1 ML GASES ARTERIAL 9023SIN     4
CC0001143115935H202100015112740600015112740606/12/20210925    3190294123742196425000036441300000236540000000000000                                                                    JERINGA 1 ML GASES ARTERIAL 9023SIN     4
