CC0000022448180H202100015112741300015112741306/12/20211441    3190301623742196425000024674000001138340000000000000   JERINGA 3PARTES C/A 10ML REF JEHL005 CAJ X 100 ALFASAFE  21GX1 PULG 1/2 PULG BN EXENTO-DC.417/202PZA     4
CC0000022448180H202100015112741300015112741306/12/20211441    3190301623742196425000024673600000222980000000000000                                                                     JERINGA DESECHABLE 5 ml 27*11/2SIN     3
CC0000022448180H202100015112741300015112741306/12/20211441    3190301623742196425000043879200001138180000000000000                                                                                   HOJA BISTURI # 11SOB     1
CC0000022448180H202100015112741300015112741306/12/20211441    3190301623742196425000013077800000471960000000000000                                                             GASA NO TEJIDA EST 7.5 X 7.5 SOB X 3 UNSOB     4
CC0000022448180H202100015112741300015112741306/12/20211441    31903016237421964250000V4AF1000003850710000000000000                                                                    OMNIPAQUE Sln Iny 300 mg x 50 mlFCO     3
CC0000022448180H202100015112741300015112741306/12/20211441    31903016237421964250000E1AB0500003888400000000000000                                                              SOLUCION SALINA 0.9% SLN INY X 1000 MLBOL     2
CC0000022448180H202100015112741300015112741306/12/20211441    31903016237421964250000E1AB0200000199290000000000000                                                            SOLUCION SALINA 0.9% SLN INY BO X 100 MLBIN     1
