TI0001047048202H202100901046120600901046120606/12/20212238    3150008223742196425000011082700001620070000000000000                                                               EQUIPO SET PRIMARIO C/CLAVE REF 14001BOL     2
TI0001047048202H202100901046120600901046120606/12/20212238    3150008223742196425000022426800001140510000000000000                                                                    EQUIPO MACROGOTEO BAXTER MRC0001SOB     2
TI0001047048202H202100901046120600901046120606/12/20212238    3150008223742196425000030936900001431840000000000000                                                                                              BURETABOL     1
TI0001047048202H202100901046120600901046120606/12/20212238    31500082237421964250000E1AB0700003888350000000000000                                                            SOLUCION SALINA 0.9% SLN INY BO X 250 MLBOL     2
TI0001047048202H202100901046120600901046120606/12/20212238    3150008223742196425000001956000001620610000000000000                                                                      CONECTOR MICRO CLAVE LAT-MC100SOB     2
