TI0001081819374H202100000556631100000556631106/12/20211741    31903028237421964250000E1AB0700003888350000000000000                                                            SOLUCION SALINA 0.9% SLN INY BO X 250 MLBOL     2
TI0001081819374H202100000556631100000556631106/12/20211301     3300009237421964250000J01XA400001212420000000000000                                                               VANCOMICINA POLVO LIOF SLN INY 500 MGVAL     3
TI0001081819374H202100000556631100000556631106/12/20211301     3300009237421964250000N03A1600001063770000000000000                                                             KEPPRA SLN ORAL 100 MG/ML X 300 ML  /R/FCO     1
TI0001081819374H202100000556631100000556631106/12/20211301     3300009237421964250000J01DD500001239970000000000000                                                                  CEFTRIAXONA POLVO LIOF SLN INY 1 GVAL     2
TI0001081819374H202100000556631100000556631106/12/20211300     3300009237421964250000J01DD500001239970000000000000                                                                  CEFTRIAXONA POLVO LIOF SLN INY 1 GVAL     1
TI0001081819374H202100000556631100000556631106/12/20211301     3300009237421964250000N2BB0100001672010000000000000                                  DIPIRONA 1GR/2ML(0.5GR/ML) SOL INY INST CAJ X 100AMP X 2ML VITALISAMP     4
TI0001081819374H202100000556631100000556631106/12/20211301     3300009237421964250000N03AG400001271130000000000000                                                               FERBIN SLN ORAL 50 MG/ML X 100 ML /R/FCO     1
TI0001081819374H202100000556631100000556631106/12/20211301     3300009237421964250000A02BC700001684270000000000000                                                            OMEPRAZOL 40MG POLVO LIOFILIZADO AMPOLLAVAL     1
TI0001081819374H202100000556631100000556631106/12/20211854    31903313237421964250000V07A1300000502600000000000000                                                                                AGUA ESTERIL x 10 mlAMP     5
