TI0001043452447U202100909113101600909113101616/10/20212030    3150024623942196432000011082700001620070000000000000                                                               EQUIPO SET PRIMARIO C/CLAVE REF 14001BOL     1
TI0001043452447U202100909113101600909113101616/10/20212030    3150024623942196432000011137100001419310000000000000                                                               TIRA GLUCOMETRIA FREESTYLE H OPTIUM .PZA     1
TI0001043452447U202100909113101600909113101616/10/20212030    3150024623942196432000024673600000222980000000000000                                                                     JERINGA DESECHABLE 5 ml 27*11/2SIN     2
TI0001043452447U202100909113101600909113101616/10/20212030    3150024623942196432000030936900001431840000000000000                                                                                              BURETABOL     1
TI0001043452447U202100909113101600909113101616/10/20212030    3150024623942196432000045136100001419300000000000000                                                                            LANCETA DEXTROMETER X UNPZA     1
TI0001043452447U202100909113101600909113101616/10/20212030    31500246239421964320000Q1AA7300000610640000000000000                                                            CATETER PERIFE INTROCAN # 22G 4251628-04SIN     1
TI0001043452447U202100909113101600909113101616/10/20212030    3150024623942196432000000602600001259280000000000000                                                             APOSITO TEGADERM IV PD 1610 5CM X 5.7CMSOB     1
TI0001043452447U202100909113101600909113101616/10/20212030    31500246239421964320000E1AD0300000199490000000000000                                         LACTATO RINGER USP (HARTMANN)  SOL INY  BOL X 1000ML BAXTERBIN     1
