RC0001046723708U202100906140102600906140102626/10/20212104    3190296823942196432000011137100001419310000000000000                                                               TIRA GLUCOMETRIA FREESTYLE H OPTIUM .PZA     1
RC0001046723708U202100906140102600906140102626/10/20212104    3190296823942196432000022426800001140510000000000000                                                                    EQUIPO MACROGOTEO BAXTER MRC0001SOB     1
RC0001046723708U202100906140102600906140102626/10/20212104    3190296823942196432000024674000000220660000000000000                             JERINGA A 3 PARTES CON AGUJA  SOB X 1 RYMCO  10ML BN EXENTO-DC.417/2020SIN     3
RC0001046723708U202100906140102600906140102626/10/20212104    3190296823942196432000045136100001419300000000000000                                                                            LANCETA DEXTROMETER X UNPZA     1
