CC0000022365363U202100915903110200915903110202/11/20210634    3150029423942196432000016830000000970620000000000000                                                             SIST FIJACION CAT PERIFERICO 6.5X7 1683SOB     1
CC0000022365363U202100915903110200915903110202/11/20210634    31500294239421964320000Q1AA7300000610640000000000000                                                            CATETER PERIFE INTROCAN # 22G 4251628-04SIN     2
CC0000022365363U202100915903110200915903110202/11/20210634    3150029423942196432000001956000001620610000000000000                                                                      CONECTOR MICRO CLAVE LAT-MC100SOB     1
