RC0001044332899U202100913679101300913679101313/10/20211127    3190092023942196432000024673600000222980000000000000                                                                     JERINGA DESECHABLE 5 ml 27*11/2SIN     1
RC0001044332899U202100913679101300913679101313/10/20211127    31900920239421964320000E1AC0100000199400000000000000                                                                          SUERO MIXTO Sln Iny 500 mlBIN     1
RC0001044332899U202100913679101300913679101313/10/20211127    31900920239421964320000E1AD0300000199490000000000000                                         LACTATO RINGER USP (HARTMANN)  SOL INY  BOL X 1000ML BAXTERBIN     1
RC0001044332899U202100913679101300913679101313/10/20212306    3190135523942196432000024673000001411210000000000000                                                                  JERINGA DESECHABLE 3 ML 21 X 1 1/2SOB     1
RC0001044332899U202100913679101300913679101313/10/20212306    3190135523942196432000024673600000222980000000000000                                                                     JERINGA DESECHABLE 5 ml 27*11/2SIN     1
