CC0000022515117U202100915356102500915356102525/10/20211356    3190100523942196432000016830000000970620000000000000                                                             SIST FIJACION CAT PERIFERICO 6.5X7 1683SOB     1
CC0000022515117U202100915356102500915356102525/10/20211356    3190100523942196432000001956000001620610000000000000                                                                      CONECTOR MICRO CLAVE LAT-MC100SOB     1
CC0000022515117U202100915356102500915356102525/10/20211356    31901005239421964320000Q1AA7200000610630000000000000                                                            CATETER PERIFE INTROCAN # 20G 4251644-04SIN     1
