RC0001043490504U202100000554365800000554365810/10/20211954     3300010239421964320000A07F0600001089820000000000000                                                                     FLORATIL POLVO SOBRE 250 MG /R/SOB     1
RC0001043490504U202100000554365800000554365810/10/20211954     3300010239421964320000A12C0500000947840000000000000                                                               SULZINC SLN ORAL 2 MG/ML X 120 ML /R/FCO     1
RC0001043490504U202100000554365800000554365810/10/20212116    31902327239421964320000E1AC0100000199400000000000000                                                                          SUERO MIXTO Sln Iny 500 mlBIN     1
RC0001043490504U202100000554365800000554365810/10/20211829    31902010239421964320000E1AD0200003888320000000000000                                                                              HARTMAN SLN INY 500 MLBOL     1
RC0001043490504U202100000554365800000554365810/10/20212052     3300010239421964320000A12BA100000552980000000000000                                                            CLORURO POTASIO Sln Iny AMP 20 MEQ/10 MLAMP     1
RC0001043490504U202100000554365800000554365810/10/20211954     3300010239421964320000J1DA3100000187510000000000000                                                                           ROCEFIN Polvo SLN INY 1 GCIN     1
RC0001043490504U202100000554365800000554365810/10/20211539     3300010239421964320000N02B1100001169680000000000000                              PARACETAMOL 1000MG/100ML(10MG/ML) SOL INY  VIAL X 100ML FRESENIUS KABIVAL     1
