CC0000000861447U202100915342102800915342102828/10/20211542    3190101023942196432000011082700001620070000000000000                                                               EQUIPO SET PRIMARIO C/CLAVE REF 14001BOL     1
CC0000000861447U202100915342102800915342102828/10/20211542    3190101023942196432000016830000000970620000000000000                                                             SIST FIJACION CAT PERIFERICO 6.5X7 1683SOB     1
CC0000000861447U202100915342102800915342102828/10/20211542    3190101023942196432000024674000000220660000000000000                             JERINGA A 3 PARTES CON AGUJA  SOB X 1 RYMCO  10ML BN EXENTO-DC.417/2020SIN     1
CC0000000861447U202100915342102800915342102828/10/20211542    3190101023942196432000030936900001431840000000000000                                                                                              BURETABOL     1
CC0000000861447U202100915342102800915342102828/10/20211542    31901010239421964320000Q1AA7100000610620000000000000                                                            CATETER PERIFE INTROCAN # 18G 4251687-04SIN     1
