CC0000072309068U202100912972100800912972100808/10/20210129    3190180623942196432000011048600000223020000000000000                                                                 JERINGA VACUNACION 3ML C/AGU 302542SIN     1
CC0000072309068U202100912972100800912972100808/10/20210129    3190180623942196432000011082700001620070000000000000                                                               EQUIPO SET PRIMARIO C/CLAVE REF 14001BOL     1
CC0000072309068U202100912972100800912972100808/10/20210129    3190180623942196432000016830000000970620000000000000                                                             SIST FIJACION CAT PERIFERICO 6.5X7 1683SOB     1
CC0000072309068U202100912972100800912972100808/10/20210129    3190180623942196432000024673600000222980000000000000                                                                     JERINGA DESECHABLE 5 ml 27*11/2SIN     1
CC0000072309068U202100912972100800912972100808/10/20210129    3190180623942196432000030936900001431840000000000000                                                                                              BURETABOL     1
CC0000072309068U202100912972100800912972100808/10/20210129    31901806239421964320000Q1AA7200000610630000000000000                                                            CATETER PERIFE INTROCAN # 20G 4251644-04SIN     1
CC0000072309068U202100912972100800912972100808/10/20210129    31901806239421964320000E1AD0300000199490000000000000                                         LACTATO RINGER USP (HARTMANN)  SOL INY  BOL X 1000ML BAXTERBIN     1
CC0000072309068U202100912972100800912972100808/10/20211117    3150025823942196432000024674000000220660000000000000                             JERINGA A 3 PARTES CON AGUJA  SOB X 1 RYMCO  10ML BN EXENTO-DC.417/2020SIN     1
