CC0001143123160U202100913628101300913628101313/10/20210900    3190145323942196432000011137100001419310000000000000                                                               TIRA GLUCOMETRIA FREESTYLE H OPTIUM .PZA     4
CC0001143123160U202100913628101300913628101313/10/20210900    3190145323942196432000045136100001419300000000000000                                                                            LANCETA DEXTROMETER X UNPZA     4
CC0001143123160U202100913628101300913628101313/10/20211326    3190093823942196432000024672100001609890000000000000                                                            JERINGA INSULINA 1ML TAPA NARANJA JEI013SOB     1
CC0001143123160U202100913628101300913628101313/10/20211617    3190145323942196432000024672100001609890000000000000                                                            JERINGA INSULINA 1ML TAPA NARANJA JEI013SOB     1
