CC0000073141990U202100914164101600914164101616/10/20211828    3190101023942196432000011082700001620070000000000000                                                               EQUIPO SET PRIMARIO C/CLAVE REF 14001BOL     1
CC0000073141990U202100914164101600914164101616/10/20211828    3190101023942196432000024674000000220660000000000000                             JERINGA A 3 PARTES CON AGUJA  SOB X 1 RYMCO  10ML BN EXENTO-DC.417/2020SIN     1
CC0000073141990U202100914164101600914164101616/10/20211828    3190101023942196432000030936900001431840000000000000                                                                                              BURETABOL     1
CC0000073141990U202100914164101600914164101616/10/20211828    31901010239421964320000E1AD0300000199490000000000000                                         LACTATO RINGER USP (HARTMANN)  SOL INY  BOL X 1000ML BAXTERBIN     1
