CC0001140828747U202100915872110200915872110202/11/20210227    3150029223942196432000024674000000220660000000000000                             JERINGA A 3 PARTES CON AGUJA  SOB X 1 RYMCO  10ML BN EXENTO-DC.417/2020SIN     1
CC0001140828747U202100915872110200915872110202/11/20210302    31500292239421964320000Q1AA7200000610630000000000000                                                            CATETER PERIFE INTROCAN # 20G 4251644-04SIN     1
CC0001140828747U202100915872110200915872110202/11/20210419    31500292239421964320000Q1AA7300000610640000000000000                                                            CATETER PERIFE INTROCAN # 22G 4251628-04SIN     1
CC0001140828747U202100915872110200915872110202/11/20211754    3190101023942196432000022426800001140510000000000000                                                                    EQUIPO MACROGOTEO BAXTER MRC0001SOB     1
