CC0000039522007U202100914549102000914549102020/10/20212036    3150040623942196432000024674000000220660000000000000                             JERINGA A 3 PARTES CON AGUJA  SOB X 1 RYMCO  10ML BN EXENTO-DC.417/2020SIN     1
CC0000039522007U202100914549102000914549102020/10/20212036    3150040623942196432000035802000001014670000000000000                                                                        NEBULIZADOR C/MASCARA ADULTOBOL     1
CC0000039522007U202100914549102000914549102020/10/20212036    31500406239421964320000E1AB1100003888280000000000000                                                                        SOLUCION SALINA 0.9% X 50 mlBOL     1
