CC0000072011081U202100913927101400913927101414/10/20211723    3190280023942196432000019429900000427130000000000000                                                                                      VENDA YESO 6*5BIN     2
CC0000072011081U202100913927101400913927101414/10/20211723    3190280023942196432000049419500001679890000000000000                                                                        VENDA ALGODON 3*5 NO ESTERILSOB     2
CC0000072011081U202100913927101400913927101414/10/20211723    3190280023942196432000000800200000223990000000000000                                                              VENDA ADHESIVA COBAN 6*5 ROLLO 3M 1586ROL     3
