CC0000007399811U202100915001102200915001102222/10/20211152    31901806239421964320000E1AC0100000199400000000000000                                                                          SUERO MIXTO Sln Iny 500 mlBIN     2
CC0000007399811U202100915001102200915001102222/10/20211637    3190180623942196432000012474000000232230000000000000                                                                SUTURA ETHILON 4-0 SC-20 45CM 14502TSIN     2
CC0000007399811U202100915001102200915001102222/10/20211637    3190180623942196432000019491700000233150000000000000                                                                      VICRYL 4-0 INC P3 PRIME JP494GSIN     1
