CC0000022397482U202100914686102200914686102222/10/20210654    3190217123942196432000031188000000236790000000000000                                                                                     CISTOFLO ADULTOSIN     1
CC0000022397482U202100914686102200914686102222/10/20210654    3190217123942196432000038573100000256880000000000000                                                                                 SONDA NSG LEVIN #18SIN     1
CC0000022397482U202100914686102200914686102222/10/20210654    3190217123942196432000042743200003929860000000000000                   GASA ADHESIVA STRETCH REF 02038-00 ROL X 10MT FIXOMULL 15CM BN EXENTO-DC.417/2020CMT    20
CC0000022397482U202100914686102200914686102222/10/20210654    31902171239421964320000Q1A13500001585200000000000000                        JERINGA PUNTA CAT SIN AGUJA REF 309620 CAJ X 40   50ML BN EXENTO-DC.417/2020SOB     1
