CC0000000800641H202100906739120700906739120707/12/20211728    3150047823742196425000036563300000236910000000000000                                                                              BOLSA NUTRIFLO 1500 MLBOL     2
CC0000000800641H202100906739120700906739120707/12/20211728    31500478237421964250000Q1A13500001585200000000000000                        JERINGA PUNTA CAT SIN AGUJA REF 309620 CAJ X 40   50ML BN EXENTO-DC.417/2020SOB     2
CC0000000800641H202100906739120700906739120707/12/20211906    3190305323742196425000036563300000236910000000000000                                                                              BOLSA NUTRIFLO 1500 MLBOL     5
CC0000000800641H202100906739120700906739120707/12/20211906    31903053237421964250000Q1A13500001585200000000000000                        JERINGA PUNTA CAT SIN AGUJA REF 309620 CAJ X 40   50ML BN EXENTO-DC.417/2020SOB     3
CC0000000800641H202100906739120700906739120707/12/20212327    3190093323742196425000036563300000236910000000000000                                                                              BOLSA NUTRIFLO 1500 MLBOL     2
CC0000000800641H202100906739120700906739120707/12/20212347    3190305323742196425000011085100001082120000000000000                                                                           GUANTE QUIRURGICO TALLA 7SOB     2
CC0000000800641H202100906739120700906739120707/12/20212347    3190305323742196425000013077800000471960000000000000                                                             GASA NO TEJIDA EST 7.5 X 7.5 SOB X 3 UNSOB     8
CC0000000800641H202100906739120700906739120707/12/20212347    3190305323742196425000042743200003929860000000000000                   GASA ADHESIVA STRETCH REF 02038-00 ROL X 10MT FIXOMULL 15CM BN EXENTO-DC.417/2020CMT    40
