CC0000032704866U202100000556670500000556670507/12/20211818    31902712239421964320000E1AB0300003888390000000000000                                                            SOLUCION SALINA 0.9% SLN INY BO X 500 MLBOL     1
CC0000032704866U202100000556670500000556670507/12/20211518     3300004239421964320000J01CF100000553250000000000000                                                                    OXACILINA POLVO LIOF SLN INY 1 GVAL     1
CC0000032704866U202100000556670500000556670507/12/20212018     3300004239421964320000N02B1100001464120000000000000                                           PARACETAMOL EP 1000MG/100ML(10MG/ML) SOL INY  CAJ X 10FCOVAL     1
CC0000032704866U202100000556670500000556670507/12/20211347     3300004239421964320000N02B1100001464120000000000000                                           PARACETAMOL EP 1000MG/100ML(10MG/ML) SOL INY  CAJ X 10FCOVAL     1
