CC0000022366269H202100000556667600000556667607/12/20212115     3300009237421964250000B1AB0200003939510000000000000                 ENOXAPARINA SODICA 40MG/0.4ML(100MG/ML) SOL INY INST CAJ X 2JERPREL X 0.4ML TECHDOWJRP     1
CC0000022366269H202100000556667600000556667607/12/20211456     3300009237421964250000B3AC0200001177860000000000000                                                                         VENOFER Sln Iny 100 mg/5 mlAMP     1
CC0000022366269H202100000556667600000556667607/12/20211739    31901153237421964250000E1AB0700003888350000000000000                                                            SOLUCION SALINA 0.9% SLN INY BO X 250 MLBOL     1
CC0000022366269H202100000556667600000556667607/12/20212127    31903271237421964250000E1AB0500003888400000000000000                                                              SOLUCION SALINA 0.9% SLN INY X 1000 MLBOL     1
CC0000022366269H202100000556667600000556667607/12/20211157     3300009237421964250000J01DA300001239950000000000000                                                            CEFAZOLINA SODICA POLVO LIOF SLN INY 1 GVAL     2
CC0000022366269H202100000556667600000556667607/12/20211157     3300009237421964250000M01A0400001341250000000000000                                                                              DYNASTAT AMP 40 MG /R/VAL     1
CC0000022366269H202100000556667600000556667607/12/20212115     3300009237421964250000N02B1100001464120000000000000                                           PARACETAMOL EP 1000MG/100ML(10MG/ML) SOL INY  CAJ X 10FCOVAL     1
CC0000022366269H202100000556667600000556667607/12/20211158     3300009237421964250000N02B1100001464120000000000000                                           PARACETAMOL EP 1000MG/100ML(10MG/ML) SOL INY  CAJ X 10FCOVAL     2
CC0000022366269H202100000556667600000556667607/12/20211158     3300009237421964250000N03A0800001278440000000000000                                                                                LYRICA CAP 75 MG /R/CAP     3
CC0000022366269H202100000556667600000556667607/12/20212115     3300009237421964250000A04AA200003932460000000000000                                                 ONDAX 4MG/2ML(2MG/ML) SOL INY INST CAJ X 1AMP X 2MLAMP     1
