CC0000072218236H202100000556656200000556656207/12/20211610     3300009237421964250000B3BB0200001315040000000000000                                                                               ACIDO FOLICO Tab 5 mgTAB     1
CC0000072218236H202100000556656200000556656207/12/20210602    31902357237421964250000E1AB0200000199290000000000000                                                            SOLUCION SALINA 0.9% SLN INY BO X 100 MLBIN     3
CC0000072218236H202100000556656200000556656207/12/20211106    31900999237421964250000E1AD0300000199490000000000000                                         LACTATO RINGER USP (HARTMANN)  SOL INY  BOL X 1000ML BAXTERBIN     2
CC0000072218236H202100000556656200000556656207/12/20211001     3300009237421964250000A02B0800001276960000000000000                                                                                 OMEPRAZOL CAP 20 MGCAP     1
CC0000072218236H202100000556656200000556656207/12/20211106    31900999237421964250000V07A1300000502600000000000000                                                                                AGUA ESTERIL x 10 mlAMP    10
