CC0001140875648H202100015052808500015052808507/12/20211540    3190099723742196425000011082700001620070000000000000                                                               EQUIPO SET PRIMARIO C/CLAVE REF 14001BOL     1
CC0000022438763H202100015052808500015052808507/12/20211540    3190099723742196425000001956000001620610000000000000                                                                      CONECTOR MICRO CLAVE LAT-MC100SOB     1
CC0000022438763H202100015052808500015052808507/12/20211540    31900997237421964250000Q1AA7200000610630000000000000                                                            CATETER PERIFE INTROCAN # 20G 4251644-04SIN     2
CC0001140875648H202100015052808500015052808507/12/20211540    3190099723742196425000030936900001431840000000000000                                                                                              BURETABOL     1
CC0000022438763H202100015052808500015052808507/12/20211540    3190099723742196425000016830000000970620000000000000                                                             SIST FIJACION CAT PERIFERICO 6.5X7 1683SOB     1
