CC0000022596813H202100000556646700000556646707/12/20212051     3300009237421964250000A03F0300001626860000000000000                                                                   METOCLOPRAMIDA SLN INY 10 MG/2 MLAMP     4
CC0000022596813H202100000556646700000556646707/12/20211556    31900995237421964250000E1AB0700003888350000000000000                                                            SOLUCION SALINA 0.9% SLN INY BO X 250 MLBOL     1
CC0000022596813H202100000556646700000556646707/12/20210742     3300004237421964250000C3AA0100001315100000000000000                                                                         HIDROCLOROTIAZIDA TAB 25 MGTAB     2
CC0000022596813H202100000556646700000556646707/12/20212354     3300009237421964250000A03BB100003889180000000000000                                      HIOSCINA BUTIL BROMURO 20MG/ML SOL INY CAJ X 100AMP X 1ML RYANAMP     1
CC0000022596813H202100000556646700000556646707/12/20210742     3300004237421964250000C08CA200001277660000000000000                                                                                 AMLODIPINO TAB 5 MGTAB     2
CC0000022596813H202100000556646700000556646707/12/20212051     3300009237421964250000N2BB0100001672010000000000000                                  DIPIRONA 1GR/2ML(0.5GR/ML) SOL INY INST CAJ X 100AMP X 2ML VITALISAMP     1
CC0000022596813H202100000556646700000556646707/12/20211753    31903301237421964250000V07A1300000502600000000000000                                                                                AGUA ESTERIL x 10 mlAMP     6
