CC0000072339909H202100015112743400015112743407/12/20210811    3150035023742196425000000201600000259820000000000000                                                             SONDA TRACH CARE TRAQUEOSTOMIA MDI 14FRSIN     1
CC0000022362807H202100015112743400015112743407/12/20210811    3150035023742196425000038569400000256750000000000000                                                                        SONDA ASPIRACION CONTROL #14SIN     4
CC0000072339909H202100015112743400015112743407/12/20210811    3150035023742196425000038569400000256750000000000000                                                                        SONDA ASPIRACION CONTROL #14SIN     4
CC0000032776593H202100015112743400015112743407/12/20210811    3150035023742196425000038569400000256750000000000000                                                                        SONDA ASPIRACION CONTROL #14SIN     4
CC0001066890191H202100015112743400015112743407/12/20210811    3150035023742196425000038569400000256750000000000000                                                                        SONDA ASPIRACION CONTROL #14SIN     4
CC0001066890191H202100015112743400015112743407/12/20210811    3150035023742196425000022108000003906060000000000000                                                            SIST CERRAD ASPIRAC TRACH  22108-5 14 FRSOB     1
CC0000022362807H202100015112743400015112743407/12/20210811    3150035023742196425000036441300000236540000000000000                                                                    JERINGA 1 ML GASES ARTERIAL 9023SIN     2
CC0000072339909H202100015112743400015112743407/12/20210811    3150035023742196425000036441300000236540000000000000                                                                    JERINGA 1 ML GASES ARTERIAL 9023SIN     2
CC0000032776593H202100015112743400015112743407/12/20210811    3150035023742196425000036441300000236540000000000000                                                                    JERINGA 1 ML GASES ARTERIAL 9023SIN     2
CC0001066890191H202100015112743400015112743407/12/20210811    3150035023742196425000036441300000236540000000000000                                                                    JERINGA 1 ML GASES ARTERIAL 9023SIN     2
CC0000032776593H202100015112743400015112743407/12/20210811    3150035023742196425000013077800000471960000000000000                                                             GASA NO TEJIDA EST 7.5 X 7.5 SOB X 3 UNSOB    10
CC0000072339909H202100015112743400015112743407/12/20210811    3150035023742196425000011084700000516550000000000000                                                                FILTRO CALOR-HUMEDAD AD REF 352/5877SIN     1
CC0001066890191H202100015112743400015112743407/12/20210811    3150035023742196425000011084700000516550000000000000                                                                FILTRO CALOR-HUMEDAD AD REF 352/5877SIN     1
CC0000022362807H202100015112743400015112743407/12/20210811    31500350237421964250000E1AB0200000199290000000000000                                                            SOLUCION SALINA 0.9% SLN INY BO X 100 MLBIN     1
CC0000072339909H202100015112743400015112743407/12/20210811    31500350237421964250000E1AB0200000199290000000000000                                                            SOLUCION SALINA 0.9% SLN INY BO X 100 MLBIN     1
CC0000032776593H202100015112743400015112743407/12/20210811    31500350237421964250000E1AB0200000199290000000000000                                                            SOLUCION SALINA 0.9% SLN INY BO X 100 MLBIN     1
CC0001066890191H202100015112743400015112743407/12/20210811    31500350237421964250000E1AB0200000199290000000000000                                                            SOLUCION SALINA 0.9% SLN INY BO X 100 MLBIN     1
