CC0000072164260H202100015022563600015022563607/12/20210854    3190206223742196425000001956000001620610000000000000                                                                      CONECTOR MICRO CLAVE LAT-MC100SOB     1
CC0000072164260H202100015022563600015022563607/12/20210854    31902062237421964250000Q1AA7200000610630000000000000                                                            CATETER PERIFE INTROCAN # 20G 4251644-04SIN     1
CC0000072164260H202100015022563600015022563607/12/20210854    3190206223742196425000016830000000970620000000000000                                                             SIST FIJACION CAT PERIFERICO 6.5X7 1683SOB     1
