CC0000036547405A202100000027840400000027840407/12/20211028    31903336240421964190000D7AB0100001127750000000000000                                                            KENACORT ACE SUSP INY 10 MG/ML X 5 ML /RVAL     1
CC0000036547405A202100000027840400000027840407/12/20211028    3190333624042196419000020059300000225200000000000000                                                                            AGUJA RAQUI SPINOCAN #18SIN     1
CC0000036547405A202100000027840400000027840407/12/20211028    3190333624042196419000000101000001101640000000000000                                                                  AGUJA DESECHABLE  23G X 1 1/2 PULGSOB     1
CC0000036547405A202100000027840400000027840407/12/20211028    31903336240421964190000E1AB0300003888390000000000000                                                            SOLUCION SALINA 0.9% SLN INY BO X 500 MLBOL     1
CC0000036547405A202100000027840400000027840407/12/20211028    3190333624042196419000022425200000548240000000000000                       EXTENSION DE ANESTESIA REF 1139 SOB X 1 SHERLEG  ADULTO BN EXENTO-DC.417/2020SIN     1
CC0000036547405A202100000027840400000027840407/12/20211028    3190333624042196419000035356500003919000000000000000                                                                                        LLAVE 3 VIASSOB     1
CC0000036547405A202100000027840400000027840407/12/20211028    31903336240421964190000Q1AA7100000610620000000000000                                                            CATETER PERIFE INTROCAN # 18G 4251687-04SIN     1
CC0000036547405A202100000027840400000027840407/12/20211028    3190333624042196419000022426800001140510000000000000                                                                    EQUIPO MACROGOTEO BAXTER MRC0001SOB     1
CC0000036547405A202100000027840400000027840407/12/20211028    3190333624042196419000016830000000970620000000000000                                                             SIST FIJACION CAT PERIFERICO 6.5X7 1683SOB     1
CC0000036547405A202100000027840400000027840407/12/20211028    31903336240421964190000J01DA300001239950000000000000                                                            CEFAZOLINA SODICA POLVO LIOF SLN INY 1 GVAL     2
CC0000036547405A202100000027840400000027840407/12/20211028    3190333624042196419000020750600000296780000000000000                                                                PLACA ELECTRO RETORNO PACIENTE E7506SIN     1
CC0000036547405A202100000027840400000027840407/12/20211028    3190333624042196419000053074400000607910000000000000                                                               GASA ESTERIL 10*10 SOBRE X 3 UNIDADESSOB     2
CC0000036547405A202100000027840400000027840407/12/20211028    3190333624042196419000011085300001082140000000000000                                                                           GUANTE QUIRURGICO TALLA 8SOB     2
CC0000036547405A202100000027840400000027840407/12/20211028    3190333624042196419000011085200001585390000000000000                                                                       GUANTE QUIRURGICO TALLA 7 1/2SOB     1
CC0000036547405A202100000027840400000027840407/12/20211028    3190333624042196419000043485100001618510000000000000                GUANTE QUIRURGICO DE LATEX REF 2D72N65X CAJ X 50 PROTEXIS  6.5 BN EXENTO-DC.417/2020SOB     1
CC0000036547405A202100000027840400000027840407/12/20211028    3190333624042196419000024674000001138340000000000000   JERINGA 3PARTES C/A 10ML REF JEHL005 CAJ X 100 ALFASAFE  21GX1 PULG 1/2 PULG BN EXENTO-DC.417/202PZA     2
CC0000036547405A202100000027840400000027840407/12/20211028    3190333624042196419000024674500000322810000000000000                                                                   JERINGA DESECHABLE 20 ml 21*1 1/2SIN     1
CC0000036547405A202100000027840400000027840407/12/20211028    31903336240421964190000N1BA2400001687720000000000000                                                    LIDOCAINA 2% SOL INY  CAJ X 50AMP X 10ML CORPAULAMP     2
