TI0001103512693H202100000556656700000556656707/12/20211049    31500453237421964250000E1AC0100000199400000000000000                                                                          SUERO MIXTO Sln Iny 500 mlBIN     3
TI0001103512693H202100000556656700000556656707/12/20211510     3300009237421964250000J01X0900001280300000000000000                                                         COLISTIMETHATE 150MG POLV INY  CAJ X 10VIALVAL     1
TI0001103512693H202100000556656700000556656707/12/20211031     3300009237421964250000J01X0900001280300000000000000                                                         COLISTIMETHATE 150MG POLV INY  CAJ X 10VIALVAL     2
TI0001103512693H202100000556656700000556656707/12/20212326     3300009237421964250000V6DB0800001286840000000000000                                                                          PEDIASURE LIQUIDO X 237 MLFCO     1
TI0001103512693H202100000556656700000556656707/12/20211031     3300009237421964250000V6DB0800001286840000000000000                                                                          PEDIASURE LIQUIDO X 237 MLFCO     3
TI0001103512693H202100000556656700000556656707/12/20211030     3300009237421964250000V6DB0800001286840000000000000                                                                          PEDIASURE LIQUIDO X 237 MLFCO     2
TI0001103512693H202100000556656700000556656707/12/20211031     3300009237421964250000J01DH400001317770000000000000                                                                MEROPENEM POLVO LIOF SLN INY 1 G /R/CAJ     5
TI0001103512693H202100000556656700000556656707/12/20211848     3300009237421964250000J01F0200001689390000000000000                                                                        CLINDAMICINA INY 600 MG/4 MLAMP     1
TI0001103512693H202100000556656700000556656707/12/20211031     3300009237421964250000J01F0200001689390000000000000                                                                        CLINDAMICINA INY 600 MG/4 MLAMP     1
TI0001103512693H202100000556656700000556656707/12/20210633     3300004237421964250000J01F0200001689390000000000000                                                                        CLINDAMICINA INY 600 MG/4 MLAMP     2
TI0001103512693H202100000556656700000556656707/12/20211528     3300009237421964250000J02AC100000553180000000000000                                                                   FLUCONAZOL SLN INY 200 MG/ 100 MLFCO     2
TI0001103512693H202100000556656700000556656707/12/20211848     3300009237421964250000N2BB0100001672010000000000000                                  DIPIRONA 1GR/2ML(0.5GR/ML) SOL INY INST CAJ X 100AMP X 2ML VITALISAMP     1
TI0001103512693H202100000556656700000556656707/12/20211031     3300009237421964250000N2BB0100001672010000000000000                                  DIPIRONA 1GR/2ML(0.5GR/ML) SOL INY INST CAJ X 100AMP X 2ML VITALISAMP     1
TI0001103512693H202100000556656700000556656707/12/20210634     3300004237421964250000N2BB0100001672010000000000000                                  DIPIRONA 1GR/2ML(0.5GR/ML) SOL INY INST CAJ X 100AMP X 2ML VITALISAMP     2
TI0001103512693H202100000556656700000556656707/12/20210633     3300004237421964250000N2BB0100001672010000000000000                                  DIPIRONA 1GR/2ML(0.5GR/ML) SOL INY INST CAJ X 100AMP X 2ML VITALISAMP     1
TI0001103512693H202100000556656700000556656707/12/20211030     3300009237421964250000A02BC700001684270000000000000                                                            OMEPRAZOL 40MG POLVO LIOFILIZADO AMPOLLAVAL     1
TI0001103512693H202100000556656700000556656707/12/20211049    31500453237421964250000V07A1300000502600000000000000                                                                                AGUA ESTERIL x 10 mlAMP     5
