CC0000007444684H202100000556663200000556663207/12/20211005     3300009237421964250000A6AC0200001467010000000000000                                                             LACTULAX JARABE 66.7G/100ML SOX15ML /R/SOB     2
CC0000007444684H202100000556663200000556663207/12/20211005     3300009237421964250000A07A0500001278160000000000000                                                                               IFAXIM TAB 200 MG /R/TAB     2
CC0000007444684H202100000556663200000556663207/12/20211702    31500305237421964250000E1AB0200000199290000000000000                                                            SOLUCION SALINA 0.9% SLN INY BO X 100 MLBIN     6
CC0000007444684H202100000556663200000556663207/12/20211803     3300009237421964250000C7AB1000001382030000000000000                                                                   NOREPINEFRINA SLN INY 4 MG / 4 MLAMP    23
CC0000007444684H202100000556663200000556663207/12/20211751     3300009237421964250000C7AB1000001382030000000000000                                                                   NOREPINEFRINA SLN INY 4 MG / 4 MLAMP     1
CC0000007444684H202100000556663200000556663207/12/20211803     3300009237421964250000H01B0300000727220000000000000                                                                   GLYPRESSIN POLVO SLN INY 1 MG /R/AMP     1
CC0000007444684H202100000556663200000556663207/12/20211005     3300009237421964250000H01B0300000727220000000000000                                                                   GLYPRESSIN POLVO SLN INY 1 MG /R/AMP     2
CC0000007444684H202100000556663200000556663207/12/20212300     3300009237421964250000B02BA100000561560000000000000                                                                           VITAMINA K1 SLN INY 10 MGAMP     2
CC0000007444684H202100000556663200000556663207/12/20211005     3300009237421964250000C07A1200001304880000000000000                                                                           PROPRANOLOL HCL TAB 40 MGTAB     1
CC0000007444684H202100000556663200000556663207/12/20212300     3300009237421964250000J01DD500001239970000000000000                                                                  CEFTRIAXONA POLVO LIOF SLN INY 1 GVAL     2
CC0000007444684H202100000556663200000556663207/12/20212300     3300009237421964250000A02BC700001684270000000000000                                                            OMEPRAZOL 40MG POLVO LIOFILIZADO AMPOLLAVAL     2
CC0000007444684H202100000556663200000556663207/12/20211005     3300009237421964250000A02BC700001684270000000000000                                                            OMEPRAZOL 40MG POLVO LIOFILIZADO AMPOLLAVAL     1
