TI0001043457740U202100050131949200050131949207/12/20210230    3190180623942196432000011082700001620070000000000000                                                               EQUIPO SET PRIMARIO C/CLAVE REF 14001BOL     1
TI0001043457740U202100050131949200050131949207/12/20210230    3190180623942196432000001956000001620610000000000000                                                                      CONECTOR MICRO CLAVE LAT-MC100SOB     1
TI0001043457740U202100050131949200050131949207/12/20210230    31901806239421964320000Q1AA7300000610640000000000000                                                            CATETER PERIFE INTROCAN # 22G 4251628-04SIN     1
TI0001043457740U202100050131949200050131949207/12/20210230    3190180623942196432000030936900001431840000000000000                                                                                              BURETABOL     1
TI0001043457740U202100050131949200050131949207/12/20210230    3190180623942196432000000602600001259280000000000000                                                             APOSITO TEGADERM IV PD 1610 5CM X 5.7CMSOB     1
TI0001043457740U202100050131949200050131949207/12/20210230    31901806239421964320000E1AD0300000199490000000000000                                         LACTATO RINGER USP (HARTMANN)  SOL INY  BOL X 1000ML BAXTERBIN     1
