CC0001066890191H202100015112745000015112745007/12/20211744    3150030523742196425000038570100001124990000000000000                                                                              SONDA FOLEY #18 2 VIASSOB     1
CC0000007444684H202100015112745000015112745007/12/20211744    3150030523742196425000011082900001233450000000000000                                                               EQUIPO LC 5000 PRIMARIO FOTOPRO 0L218SOB     1
CC0000072339909H202100015112745000015112745007/12/20211744    31500305237421964250000E1AB0700003888350000000000000                                                            SOLUCION SALINA 0.9% SLN INY BO X 250 MLBOL     1
