CC0000032753507H202100000556656100000556656107/12/20211620     3300009237421964250000A04A1300001335720000000000000                                                                                      ONDAX TAB 4 MGTAB     2
CC0000032753507H202100000556656100000556656107/12/20211441    31903152237421964250000E1AB0300003888390000000000000                                                            SOLUCION SALINA 0.9% SLN INY BO X 500 MLBOL     1
CC0000032753507H202100000556656100000556656107/12/20211620     3300009237421964250000V6DF5300000302770000000000000                                                                        ENSURE PLUS HN LCP X 1000 MLFCO     1
CC0000032753507H202100000556656100000556656107/12/20211620     3300009237421964250000B01AB200000513350000000000000                                                                        CLENOX SLN INY 40 MG/ 0.4 MLJRP     1
CC0000032753507H202100000556656100000556656107/12/20211620     3300009237421964250000N2BB0100001672010000000000000                                  DIPIRONA 1GR/2ML(0.5GR/ML) SOL INY INST CAJ X 100AMP X 2ML VITALISAMP     1
CC0000032753507H202100000556656100000556656107/12/20211620     3300009237421964250000N2AX0900001672040000000000000                                                                              TRAMADOL SLN INY 50 MGAMP     1
CC0000032753507H202100000556656100000556656107/12/20211829     3300009237421964250000R06AX400001157040000000000000                                                               DESLORATADINA JBE 2.5 mg/5 ml x 60 mlFCO     1
CC0000032753507H202100000556656100000556656107/12/20211620     3300009237421964250000A02BC700001684270000000000000                                                            OMEPRAZOL 40MG POLVO LIOFILIZADO AMPOLLAVAL     2
CC0000032753507H202100000556656100000556656107/12/20211801    31903301237421964250000V07A1300000502600000000000000                                                                                AGUA ESTERIL x 10 mlAMP     6
