CC0000013887621H202100015112744100015112744107/12/20211234    3190189623742196425000038569400000256750000000000000                                                                        SONDA ASPIRACION CONTROL #14SIN     7
CC0001129564191H202100015112744100015112744107/12/20211234    3190189623742196425000038569400000256750000000000000                                                                        SONDA ASPIRACION CONTROL #14SIN     7
CC0000007479382H202100015112744100015112744107/12/20211234    3190189623742196425000038569400000256750000000000000                                                                        SONDA ASPIRACION CONTROL #14SIN     4
CC0000019490174H202100015112744100015112744107/12/20211234    3190189623742196425000038569400000256750000000000000                                                                        SONDA ASPIRACION CONTROL #14SIN     7
CC0000013887621H202100015112744100015112744107/12/20211234    3190189623742196425000022108000003906060000000000000                                                            SIST CERRAD ASPIRAC TRACH  22108-5 14 FRSOB     1
CC0000013887621H202100015112744100015112744107/12/20211234    3190189623742196425000036441300000236540000000000000                                                                    JERINGA 1 ML GASES ARTERIAL 9023SIN     7
CC0001129564191H202100015112744100015112744107/12/20211234    3190189623742196425000036441300000236540000000000000                                                                    JERINGA 1 ML GASES ARTERIAL 9023SIN     7
CC0000007479382H202100015112744100015112744107/12/20211234    3190189623742196425000036441300000236540000000000000                                                                    JERINGA 1 ML GASES ARTERIAL 9023SIN     7
CC0000019490174H202100015112744100015112744107/12/20211234    3190189623742196425000036441300000236540000000000000                                                                    JERINGA 1 ML GASES ARTERIAL 9023SIN     3
CC0001143115935H202100015112744100015112744107/12/20211234    3190189623742196425000036441300000236540000000000000                                                                    JERINGA 1 ML GASES ARTERIAL 9023SIN     4
CC0000013887621H202100015112744100015112744107/12/20211234    3190189623742196425000011084700000516550000000000000                                                                FILTRO CALOR-HUMEDAD AD REF 352/5877SIN     1
