CC0001151478323H202100000556663500000556663507/12/20211008    31500213237421964250000A04A0600001277030000000000000                                                                                      ONDAX TAB 8 MGTAB     1
CC0001151478323H202100000556663500000556663507/12/20211008    31500213237421964250000A6AC0200001467010000000000000                                                             LACTULAX JARABE 66.7G/100ML SOX15ML /R/SOB     1
CC0001151478323H202100000556663500000556663507/12/20211008    31500213237421964250000H02AB500001664950000000000000                                                            DEXAMETASONA SLN INY 8 MG/2 ML AMP /CDS/AMP     2
CC0001151478323H202100000556663500000556663507/12/20211008    31500213237421964250000N05AH400001447710000000000000                                                                              PROLANZ FAST TAB 10 MGTAB     1
CC0001151478323H202100000556663500000556663507/12/20211008    31500213237421964250000N2AA0200000301600000000000000                                                                        HIDROMORFONA Sln Iny 2 mg/mlAMP     1
