RC0001063188076H202100015122548700015122548707/12/20211447    3190100923742196425000030161400001459220000000000000                                                                       MANGUERA SUCCION 6 MM*3.1 MTSSOB     2
RC0001063188076H202100015122548700015122548707/12/20211447    3190100923742196425000019819800000259860000000000000                                                                           SONDA TRACH CARE 8F 198-5SIN     1
RC0001063188076H202100015122548700015122548707/12/20211447    3190100923742196425000011059500001646260000000000000                                                              RESUCITADOR MANUAL NEONATAL LMI86-8086BOL     1
RC0001063188076H202100015122548700015122548707/12/20211447    3190100923742196425000036441300000236540000000000000                                                                    JERINGA 1 ML GASES ARTERIAL 9023SIN     6
RC0001063188076H202100015122548700015122548707/12/20211447    3190100923742196425000024674000001138340000000000000   JERINGA 3PARTES C/A 10ML REF JEHL005 CAJ X 100 ALFASAFE  21GX1 PULG 1/2 PULG BN EXENTO-DC.417/202PZA     6
RC0001063188076H202100015122548700015122548707/12/20211447    3190100923742196425000011077300001096490000000000000                                                             CIRCUITO PED VENSTAR DOBLE 1 5m MP00338BOL     1
RC0001063188076H202100015122548700015122548707/12/20211447    3190100923742196425000020816000001096410000000000000                                                                          LINER PARED DELGADA 1500CCBOL     1
RC0001063188076H202100015122548700015122548707/12/20211447    31901009237421964250000E1AB1100003888280000000000000                                                                        SOLUCION SALINA 0.9% X 50 mlBOL     1
