CC0000022310952U202100050131957800050131957807/12/20212042    3190317523942196432000038568400000256940000000000000                                                                                   SONDA NELATON #10SIN     1
RC0001048089542U202100050131957800050131957807/12/20212042    3190317523942196432000024674000001138340000000000000   JERINGA 3PARTES C/A 10ML REF JEHL005 CAJ X 100 ALFASAFE  21GX1 PULG 1/2 PULG BN EXENTO-DC.417/202PZA     2
CC0000022310952U202100050131957800050131957807/12/20212042    3190317523942196432000024674000001138340000000000000   JERINGA 3PARTES C/A 10ML REF JEHL005 CAJ X 100 ALFASAFE  21GX1 PULG 1/2 PULG BN EXENTO-DC.417/202PZA     4
CC0000022310952U202100050131957800050131957807/12/20212042    3190317523942196432000043485100001618510000000000000                GUANTE QUIRURGICO DE LATEX REF 2D72N65X CAJ X 50 PROTEXIS  6.5 BN EXENTO-DC.417/2020SOB     4
CC0000022310952U202100050131957800050131957807/12/20212042    3190317523942196432000013077800000471960000000000000                                                             GASA NO TEJIDA EST 7.5 X 7.5 SOB X 3 UNSOB     6
RC0001048089542U202100050131957800050131957807/12/20212042    3190317523942196432000042743200003929860000000000000                   GASA ADHESIVA STRETCH REF 02038-00 ROL X 10MT FIXOMULL 15CM BN EXENTO-DC.417/2020CMT    20
RC0001048089542U202100050131957800050131957807/12/20212042    3190317523942196432000011082700001620070000000000000                                                               EQUIPO SET PRIMARIO C/CLAVE REF 14001BOL     1
RC0001048089542U202100050131957800050131957807/12/20212042    31903175239421964320000Q1AA7400003911720000000000000                                                            CATETER PERIFE INTROCAN # 24G 4251601-04SOB     1
RC0001048089542U202100050131957800050131957807/12/20212042    3190317523942196432000030936900001431840000000000000                                                                                              BURETABOL     1
RC0001048089542U202100050131957800050131957807/12/20212042    31903175239421964320000E1AD0300000199490000000000000                                         LACTATO RINGER USP (HARTMANN)  SOL INY  BOL X 1000ML BAXTERBIN     1
CC0000022310952U202100050131957800050131957807/12/20212042    31903175239421964320000E1AB0200000199290000000000000                                                            SOLUCION SALINA 0.9% SLN INY BO X 100 MLBIN     1
