RC0001044671776H202100000556657500000556657507/12/20211300     330000923742196425000011808300000218190000000000000                                                   DORMICUM IV 50MG/10ML(5MG/ML) SOL INY  CAJ X 5AMPAMP     1
RC0001044671776H202100000556657500000556657507/12/20210703     330000423742196425000011808300000218190000000000000                                                   DORMICUM IV 50MG/10ML(5MG/ML) SOL INY  CAJ X 5AMPAMP     1
RC0001044671776H202100000556657500000556657507/12/20211050    31500453237421964250000E1AC0100000199400000000000000                                                                          SUERO MIXTO Sln Iny 500 mlBIN     1
RC0001044671776H202100000556657500000556657507/12/20211050    31500453237421964250000E1AB0200000199290000000000000                                                            SOLUCION SALINA 0.9% SLN INY BO X 100 MLBIN     5
RC0001044671776H202100000556657500000556657507/12/20211050    31500453237421964250000E1AB0700003888350000000000000                                                            SOLUCION SALINA 0.9% SLN INY BO X 250 MLBOL     1
RC0001044671776H202100000556657500000556657507/12/20211050    31500453237421964250000E1AB0300003888390000000000000                                                            SOLUCION SALINA 0.9% SLN INY BO X 500 MLBOL     1
RC0001044671776H202100000556657500000556657507/12/20211509     3300009237421964250000N03AG200001590870000000000000                                                            PROVALNOVA SLN INY 100MG/ML VIALX5ML /R/VAL     1
RC0001044671776H202100000556657500000556657507/12/20211033     3300009237421964250000N03AG200001590870000000000000                                                            PROVALNOVA SLN INY 100MG/ML VIALX5ML /R/VAL     1
RC0001044671776H202100000556657500000556657507/12/20210637     3300004237421964250000N03AG200001590870000000000000                                                            PROVALNOVA SLN INY 100MG/ML VIALX5ML /R/VAL     1
RC0001044671776H202100000556657500000556657507/12/20211509     3300009237421964250000N03AX200001063780000000000000                                                                      KEPPRA SLN INY 500 MG/5 ML /R/VAL     1
RC0001044671776H202100000556657500000556657507/12/20210637     3300004237421964250000N03AX200001063780000000000000                                                                      KEPPRA SLN INY 500 MG/5 ML /R/VAL     1
RC0001044671776H202100000556657500000556657507/12/20210638     3300004237421964250000N5CD0300000218170000000000000                                                              DORMICUM IV-IM 5MG/5ML(1MG/ML) SOL INYAMP     1
RC0001044671776H202100000556657500000556657507/12/20212328     3300009237421964250000N02A0800001680530000000000000                                                                                 METHADOSE Tab 10 mgTAB     1
RC0001044671776H202100000556657500000556657507/12/20211300     3300009237421964250000N02A0800001680530000000000000                                                                                 METHADOSE Tab 10 mgTAB     1
RC0001044671776H202100000556657500000556657507/12/20211033     3300009237421964250000C03C0100001672000000000000000                                                                       FUROSEMIDA SLN INY 20 MG/2 MLAMP     1
RC0001044671776H202100000556657500000556657507/12/20211509     3300009237421964250000J1KF0500001317760000000000000                                                                      MEROPENEM POLVO INY 500 MG /R/CAJ     1
RC0001044671776H202100000556657500000556657507/12/20211033     3300009237421964250000J1KF0500001317760000000000000                                                                      MEROPENEM POLVO INY 500 MG /R/CAJ     1
RC0001044671776H202100000556657500000556657507/12/20210637     3300004237421964250000J1KF0500001317760000000000000                                                                      MEROPENEM POLVO INY 500 MG /R/CAJ     1
RC0001044671776H202100000556657500000556657507/12/20211529     3300009237421964250000J02AC100000553180000000000000                                                                   FLUCONAZOL SLN INY 200 MG/ 100 MLFCO     1
RC0001044671776H202100000556657500000556657507/12/20212328     3300009237421964250000N2BB0100001672010000000000000                                  DIPIRONA 1GR/2ML(0.5GR/ML) SOL INY INST CAJ X 100AMP X 2ML VITALISAMP     1
RC0001044671776H202100000556657500000556657507/12/20211033     3300009237421964250000N2BB0100001672010000000000000                                  DIPIRONA 1GR/2ML(0.5GR/ML) SOL INY INST CAJ X 100AMP X 2ML VITALISAMP     1
RC0001044671776H202100000556657500000556657507/12/20211033     3300009237421964250000A02BC700001684270000000000000                                                            OMEPRAZOL 40MG POLVO LIOFILIZADO AMPOLLAVAL     1
RC0001044671776H202100000556657500000556657507/12/20211050    31500453237421964250000V07A1300000502600000000000000                                                                                AGUA ESTERIL x 10 mlAMP     5
