CC0000008312237H202100000556671700000556671707/12/20212045    31903272237421964250000E1AB0500003888400000000000000                                                              SOLUCION SALINA 0.9% SLN INY X 1000 MLBOL     2
CC0000008312237H202100000556671700000556671707/12/20211413     3300009237421964250000J01DA300001239950000000000000                                                            CEFAZOLINA SODICA POLVO LIOF SLN INY 1 GVAL     8
CC0000008312237H202100000556671700000556671707/12/20212045    31903272237421964250000E1BA0700000198910000000000000                                                                   UROMATIC Sln IRRIGACION X 3000 MLBIN     4
CC0000008312237H202100000556671700000556671707/12/20211414     3300009237421964250000A02B0800001276960000000000000                                                                                 OMEPRAZOL CAP 20 MGCAP     1
CC0000008312237H202100000556671700000556671707/12/20211413     3300009237421964250000A02B0800001276960000000000000                                                                                 OMEPRAZOL CAP 20 MGCAP     1
CC0000008312237H202100000556671700000556671707/12/20212025     3300009237421964250000C07A1400001333340000000000000                                                                          CARVEDILOL TAB 12.5 MG /R/TAB     3
CC0000008312237H202100000556671700000556671707/12/20212025     3300009237421964250000C10AA500001314010000000000000                                                                             ATORVASTATINA TAB 40 MGTAB     2
CC0000008312237H202100000556671700000556671707/12/20211413     3300009237421964250000N2BE2200001252930000000000000                                                                             ACETAMINOFEN Tab 500 MGTAB    10
CC0000008312237H202100000556671700000556671707/12/20211413     3300009237421964250000N2BB0100001672010000000000000                                  DIPIRONA 1GR/2ML(0.5GR/ML) SOL INY INST CAJ X 100AMP X 2ML VITALISAMP     8
