CC0001082907687H202100000556645900000556645907/12/20212042    31903272237421964250000E1AB0500003888400000000000000                                                              SOLUCION SALINA 0.9% SLN INY X 1000 MLBOL     1
CC0001082907687H202100000556645900000556645907/12/20210004    31903060237421964250000E1AB0500003888400000000000000                                                              SOLUCION SALINA 0.9% SLN INY X 1000 MLBOL     1
CC0001082907687H202100000556645900000556645907/12/20211450     3300009237421964250000C08C0800001277870000000000000                                                                                NIFEDIPINO CAP 10 MGTAB     2
CC0001082907687H202100000556645900000556645907/12/20211449     3300009237421964250000C08C0800001277870000000000000                                                                                NIFEDIPINO CAP 10 MGTAB     3
CC0001082907687H202100000556645900000556645907/12/20210729     3300009237421964250000C08C0800001277870000000000000                                                                                NIFEDIPINO CAP 10 MGTAB     1
CC0001082907687H202100000556645900000556645907/12/20212014     3300009237421964250000H02A1900000189030000000000000                                                                          INFLACOR SLN INY 4 MG / MLAMP     1
CC0001082907687H202100000556645900000556645907/12/20212014     3300009237421964250000J01DB300000553200000000000000                                                                         CEFALOTINA SLN INY 1 G VIALVAL     4
CC0001082907687H202100000556645900000556645907/12/20212014     3300009237421964250000M1AB0800001359250000000000000                                                                         VOLTAREN SUPOSITORIO 100 MGSUP     2
CC0001082907687H202100000556645900000556645907/12/20212015     3300009237421964250000N02B1100001464120000000000000                                           PARACETAMOL EP 1000MG/100ML(10MG/ML) SOL INY  CAJ X 10FCOVAL     4
CC0001082907687H202100000556645900000556645907/12/20212015     3300009237421964250000N5BB0300000554910000000000000                                                                         HIDERAX SLN INY 100 MG/2 MLAMP     1
