TI0001047048202H202100000556649300000556649307/12/20210148    31500082237421964250000E1AB0200000199290000000000000                                                            SOLUCION SALINA 0.9% SLN INY BO X 100 MLBIN     2
TI0001047048202H202100000556649300000556649307/12/20211703    31903313237421964250000E1AB0700003888350000000000000                                                            SOLUCION SALINA 0.9% SLN INY BO X 250 MLBOL     2
TI0001047048202H202100000556649300000556649307/12/20211040    31500213237421964250000E1AB0700003888350000000000000                                                            SOLUCION SALINA 0.9% SLN INY BO X 250 MLBOL     2
TI0001047048202H202100000556649300000556649307/12/20210148    31500082237421964250000E1AD0200003888320000000000000                                                                              HARTMAN SLN INY 500 MLBOL     2
TI0001047048202H202100000556649300000556649307/12/20211236     3300009237421964250000J1KF0200001677230000000000000                                                                      MERONEM POLVO SLN INY 1 G  /R/VAL     1
TI0001047048202H202100000556649300000556649307/12/20210540     3300004237421964250000J1KF0200001677230000000000000                                                                      MERONEM POLVO SLN INY 1 G  /R/VAL     2
TI0001047048202H202100000556649300000556649307/12/20211236     3300009237421964250000J01XA400001212420000000000000                                                               VANCOMICINA POLVO LIOF SLN INY 500 MGVAL     2
TI0001047048202H202100000556649300000556649307/12/20210540     3300004237421964250000J01XA400001212420000000000000                                                               VANCOMICINA POLVO LIOF SLN INY 500 MGVAL     2
TI0001047048202H202100000556649300000556649307/12/20210541     3300004237421964250000N02B1100001464120000000000000                                           PARACETAMOL EP 1000MG/100ML(10MG/ML) SOL INY  CAJ X 10FCOVAL     3
TI0001047048202H202100000556649300000556649307/12/20210540     3300004237421964250000N02B1100001464120000000000000                                           PARACETAMOL EP 1000MG/100ML(10MG/ML) SOL INY  CAJ X 10FCOVAL     1
