CC0000008685037A202100000027845200000027845207/12/20211222    3190333624042196419000000504200000232730000000000000                                                                   SUTURA PROLENE 5-0 RB1 75CM 9956TSIN     2
CC0000008685037A202100000027845200000027845207/12/20211222    3190333624042196419000017574600000232670000000000000                                                                               PROLENE 4-0 2RB1 9557SIN     3
CC0000008685037A202100000027845200000027845207/12/20211222    31903336240421964190000B1AB0100001227270000000000000                                             HEPAMAX 25000UI/5ML(5000UI/ML) SOL INY  CAJ X 25AMPX5MLAMP     4
CC0000008685037A202100000027845200000027845207/12/20211222    3190333624042196419000030161400001459220000000000000                                                                       MANGUERA SUCCION 6 MM*3.1 MTSSOB     1
CC0000008685037A202100000027845200000027845207/12/20211222    3190333624042196419000020042600000633850000000000000                                                                                       ASEPTOJERINGASIN     1
CC0000008685037A202100000027845200000027845207/12/20211222    3190333624042196419000017565400000232590000000000000                                                                             PROLENE 1 75 CT-1 8425HSIN     2
CC0000008685037A202100000027845200000027845207/12/20211222    3190333624042196419000017575000000232660000000000000                                                                             PROLENE 3-0 SH/SH 8522TSIN    12
CC0000008685037A202100000027845200000027845207/12/20211222    3190333624042196419000019487800001585180000000000000                                                                    VICRYL 1 PLUS 70 CM CT-1 VCP341HSOB     1
CC0000008685037A202100000027845200000027845207/12/20211222    3190333624042196419000018350200000232870000000000000                                                                                  SEDA 3-0 S.A SA84TSIN     1
CC0000008685037A202100000027845200000027845207/12/20211222    3190333624042196419000018349800000232820000000000000                                                                                  SEDA 2-0 S.A SA85TSIN     1
CC0000008685037A202100000027845200000027845207/12/20211222    3190333624042196419000043879400001138170000000000000                                                                  HOJA BISTURI # 10 CSSB 10 01002000SOB     1
CC0000008685037A202100000027845200000027845207/12/20211222    3190333624042196419000043879500001138210000000000000                                                                                    HOJA BISTURI #20SOB     1
CC0000008685037A202100000027845200000027845207/12/20211222    3190333624042196419000022425200000548240000000000000                       EXTENSION DE ANESTESIA REF 1139 SOB X 1 SHERLEG  ADULTO BN EXENTO-DC.417/2020SIN     3
CC0000008685037A202100000027845200000027845207/12/20211222    3190333624042196419000035356500003919000000000000000                                                                                        LLAVE 3 VIASSOB     6
CC0000008685037A202100000027845200000027845207/12/20211222    3190333624042196419000022426800001140510000000000000                                                                    EQUIPO MACROGOTEO BAXTER MRC0001SOB     3
CC0000008685037A202100000027845200000027845207/12/20211222    31903336240421964190000J01DA300001239950000000000000                                                            CEFAZOLINA SODICA POLVO LIOF SLN INY 1 GVAL     2
CC0000008685037A202100000027845200000027845207/12/20211222    3190333624042196419000020750600000296780000000000000                                                                PLACA ELECTRO RETORNO PACIENTE E7506SIN     1
CC0000008685037A202100000027845200000027845207/12/20211222    3190333624042196419000011082700001620070000000000000                                                               EQUIPO SET PRIMARIO C/CLAVE REF 14001BOL     1
CC0000008685037A202100000027845200000027845207/12/20211222    3190333624042196419000053074400000607910000000000000                                                               GASA ESTERIL 10*10 SOBRE X 3 UNIDADESSOB     9
CC0000008685037A202100000027845200000027845207/12/20211222    3190333624042196419000011047900000223010000000000000                                                                            JERINGA X 1ML REF 302579SIN     1
CC0000008685037A202100000027845200000027845207/12/20211222    3190333624042196419000024673000001411210000000000000                                                                  JERINGA DESECHABLE 3 ML 21 X 1 1/2SOB     2
CC0000008685037A202100000027845200000027845207/12/20211222    3190333624042196419000024673600000222980000000000000                                                                     JERINGA DESECHABLE 5 ml 27*11/2SIN     2
CC0000008685037A202100000027845200000027845207/12/20211222    3190333624042196419000024674000001138340000000000000   JERINGA 3PARTES C/A 10ML REF JEHL005 CAJ X 100 ALFASAFE  21GX1 PULG 1/2 PULG BN EXENTO-DC.417/202PZA    10
CC0000008685037A202100000027845200000027845207/12/20211222    3190333624042196419000024674500000322810000000000000                                                                   JERINGA DESECHABLE 20 ml 21*1 1/2SIN     3
CC0000008685037A202100000027845200000027845207/12/20211222    3190333624042196419000051515500000598160000000000000                                                                            MASCARILLA ANESTESIA # 5SIN     1
CC0000008685037A202100000027845200000027845207/12/20211222    3190333624042196419000038568100000258050000000000000                                                                         CANULA OXIGENO NASAL ADULTOSIN     1
CC0000008685037A202100000027845200000027845207/12/20211222    3190333624042196419000011085300001082140000000000000                                                                           GUANTE QUIRURGICO TALLA 8SOB     2
CC0000008685037A202100000027845200000027845207/12/20211222    3190333624042196419000011085200001585390000000000000                                                                       GUANTE QUIRURGICO TALLA 7 1/2SOB     2
CC0000008685037A202100000027845200000027845207/12/20211222    3190333624042196419000011085100001082120000000000000                                                                           GUANTE QUIRURGICO TALLA 7SOB     2
CC0000008685037A202100000027845200000027845207/12/20211222    3190333624042196419000043485100001618510000000000000                GUANTE QUIRURGICO DE LATEX REF 2D72N65X CAJ X 50 PROTEXIS  6.5 BN EXENTO-DC.417/2020SOB     6
CC0000008685037A202100000027845200000027845207/12/20211222    3190333624042196419000039175200001072070000000000000                                                                           TUBO ENDOTRAQUEAL C/B 8.0SOB     1
CC0000008685037A202100000027845200000027845207/12/20211222    3190333624042196419000011099300000777780000000000000                                                                     FILTRO BACTERIANO VIRICO ADULTOBOL     1
CC0000008685037A202100000027845200000027845207/12/20211222    3190333624042196419000001200400000530690000000000000                                                                          CANULA DE MAYO # 5 (100MM)SIN     1
CC0000008685037A202100000027845200000027845207/12/20211222    31903336240421964190000E1AD0200003888320000000000000                                                                              HARTMAN SLN INY 500 MLBOL    14
CC0000008685037A202100000027845200000027845207/12/20211222    31903336240421964190000E1AB0500003888400000000000000                                                              SOLUCION SALINA 0.9% SLN INY X 1000 MLBOL     1
CC0000008685037A202100000027845200000027845207/12/20211222    31903336240421964190000E1AB0300003888390000000000000                                                            SOLUCION SALINA 0.9% SLN INY BO X 500 MLBOL     4
CC0000008685037A202100000027845200000027845207/12/20211222    31903336240421964190000E1AB0700003888350000000000000                                                            SOLUCION SALINA 0.9% SLN INY BO X 250 MLBOL     7
CC0000008685037A202100000027845200000027845207/12/20211222    31903336240421964190000E1AB0200000199290000000000000                                                            SOLUCION SALINA 0.9% SLN INY BO X 100 MLBIN     1
CC0000008685037A202100000027845200000027845207/12/20211222    31903336240421964190000N1BA2400001687720000000000000                                                    LIDOCAINA 2% SOL INY  CAJ X 50AMP X 10ML CORPAULAMP     2
CC0000008685037A202100000027845200000027845207/12/20211222    31903336240421964190000A03BB100003889180000000000000                                      HIOSCINA BUTIL BROMURO 20MG/ML SOL INY CAJ X 100AMP X 1ML RYANAMP     1
CC0000008685037A202100000027845200000027845207/12/20211222    31903336240421964190000H02AB700000585860000000000000                                                                HIDROCORTISONA SUCCI POL LIOF 100 MGVAL     2
CC0000008685037A202100000027845200000027845207/12/20211222    31903336240421964190000A3BA0100001109400000000000000                                                                          ATROPINA SLN INY 1 MG / MLAMP     2
CC0000008685037A202100000027845200000027845207/12/20211222    31903336240421964190000C7AB1000001382030000000000000                                                                   NOREPINEFRINA SLN INY 4 MG / 4 MLAMP     6
CC0000008685037A202100000027845200000027845207/12/20211222    31903336240421964190000Q1AA6900000531340000000000000                                                            CATETER PERIFE INTROCAN # 14G 4251890-04SIN     4
CC0000008685037A202100000027845200000027845207/12/20211222    3190333624042196419000011819700000233700000000000000                                                                                CINTA UMBILICAL U10TSIN     1
CC0000008685037A202100000027845200000027845207/12/20211222    3190333624042196419000043486000001353050000000000000                                                            HORIZON CLIP TITANI M AZUL X 6 REF002200CAR     1
CC0000008685037A202100000027845200000027845207/12/20211222    3190333624042196419000000500800001353040000000000000                                                              HORIZON CLIP TITANI S AMARIL REF001200CAR     1
CC0000008685037A202100000027845200000027845207/12/20211222    3190333624042196419000030825800000270990000000000000                                                                  ALGODON ESTERIL SOBRE X 3 TORUNDASPZA     8
CC0000008685037A202100000027845200000027845207/12/20211222    3190333624042196419000043879100001138200000000000000                                                                  HOJA BISTURI # 15 CSSB 15 01002003SOB     1
CC0000008685037A202100000027845200000027845207/12/20211222    3190333624042196419000043879200001138180000000000000                                                                                   HOJA BISTURI # 11SOB     1
CC0000008685037A202100000027845200000027845207/12/20211222    31903336240421964190000B02AA100001407470000000000000                                                                    CLINTRANEX SLN INY 500 MG / 5 MLAMP     2
CC0000008685037A202100000027845200000027845207/12/20211222    31903336240421964190000B05AA200000329480000000000000                                                                 GELOFUSINE SLN INY 4 % FCO X 500 MLVAL     3
CC0000008685037A202100000027845200000027845207/12/20211222    31903336240421964190000M03AB100001371510000000000000                                                            ADECUAC SUCCINILCOLINA  100mg/mL SOL INYVAL     1
CC0000008685037A202100000027845200000027845207/12/20211222    3190333624042196419000011190400001103400000000000000                                                            CONJUNTO RECEPTOR DE PRESION PICCO 5U/V/PAQ     1
CC0000008685037A202100000027845200000027845207/12/20211222    31903336240421964190000M03AC100000197200000000000000                                                                   TRACURION SLN INY 10 MG /5 ML /R/AMP     2
CC0000008685037A202100000027845200000027845207/12/20211222    31903336240421964190000N1AH0200003906560000000000000                                                                     FENTANIL Iny 0.05 mg/ml x 10 mlAMP     1
CC0000008685037A202100000027845200000027845207/12/20211222    3190333624042196419000036441300000236540000000000000                                                                    JERINGA 1 ML GASES ARTERIAL 9023SIN     1
CC0000008685037A202100000027845200000027845207/12/20211222    31903336240421964190000N01A0500003844190000000000000                                                                          REMIFENTANILO SLN INY 2 MGVAL     1
CC0000008685037A202100000027845200000027845207/12/20211222    31903336240421964190000C01CA200001573670000000000000                                                               ETILEFRINA HCL SLN INY 10 MG/1 ML /R/AMP     3
CC0000008685037A202100000027845200000027845207/12/20211222    3190333624042196419000011082900001233450000000000000                                                               EQUIPO LC 5000 PRIMARIO FOTOPRO 0L218SOB     1
CC0000008685037A202100000027845200000027845207/12/20211222    3190333624042196419000038569900001124970000000000000                                                                              SONDA FOLEY #14 2 VIASSOB     1
CC0000008685037A202100000027845200000027845207/12/20211222    3190333624042196419000031188000000236790000000000000                                                                                     CISTOFLO ADULTOSIN     1
CC0000008685037A202100000027845200000027845207/12/20211222    31903336240421964190000R3CA0100001051880000000000000                                                               ADRENALINA HCL SLN INY 1 MG / ML ECARAMP     2
CC0000008685037A202100000027845200000027845207/12/20211222    3190333624042196419000016830000000970620000000000000                                                             SIST FIJACION CAT PERIFERICO 6.5X7 1683SOB     2
CC0000008685037A202100000027845200000027845207/12/20211222    31903336240421964190000Q1A11500000331560000000000000                                                                     CATETER RADIAL #20 REF. 115.090SIN     1
CC0000008685037A202100000027845200000027845207/12/20211222    3190333624042196419000011051900000226360000000000000                                                               KIT TRANSDUCTOR SENCILLO S/VAMP PX260SOB     1
CC0000008685037A202100000027845200000027845207/12/20211222    31903336240421964190000V3AB2200000614150000000000000                                                            GLUCONATO CALCIO SLN INY 10% AMP X 10 MLAPC     3
CC0000008685037A202100000027845200000027845207/12/20211222    31903336240421964190000B05BB100001414610000000000000                                                                        PLASMA LYTE SLN INY X 500 MLBOL     1
CC0000008685037A202100000027845200000027845207/12/20211222    31903336240421964190000B02B2700001024490000000000000                                                                  TISSEEL FROZEN JERINGA X 10 ML /R/PAQ     1
CC0000008685037A202100000027845200000027845207/12/20211222    3190333624042196419000038570200001123300000000000000                                                                              SONDA FOLEY #20 2 VIASSOB     1
CC0000008685037A202100000027845200000027845207/12/20211222    3190333624042196419000000505100001136100000000000000                                                            TICRON 2/0 DA Y-5 BIC-PLEDGET 8886321356PZA     1
CC0000008685037A202100000027845200000027845207/12/20211222    3190333624042196419000038570400001123450000000000000                                                                              SONDA FOLEY #24 2 VIASSOB     1
CC0000008685037A202100000027845200000027845207/12/20211222    3190333624042196419000038568200000257000000000000000                                                                                   SONDA NELATON #06SIN     1
CC0000008685037A202100000027845200000027845207/12/20211222    3190333624042196419000045138000001413890000000000000                                                                       LAPIZ ELECTROBISTURI  SOB X 1SOB     1
CC0000008685037A202100000027845200000027845207/12/20211222    31903336240421964190000E1BA0700000198910000000000000                                                                   UROMATIC Sln IRRIGACION X 3000 MLBIN     1
CC0000008685037A202100000027845200000027845207/12/20211222    3190333624042196419000011073300001096420000000000000                                                                BOLSA DE SUCCION DE FLUIDOS x 2500mLBOL     3
CC0000008685037A202100000027845200000027845207/12/20211222    31903336240421964190000H01B0100001390610000000000000                                                                   VASOPRESINA SLN INY 20 UI/ ML /R/VAL     2
