CE0000000233794H202100921742120700921742120707/12/20210134    3150008823742196425000001956000001620610000000000000                                                                      CONECTOR MICRO CLAVE LAT-MC100SOB     1
CE0000000233794H202100921742120700921742120707/12/20210134    31500088237421964250000E1AB0300003888390000000000000                                                            SOLUCION SALINA 0.9% SLN INY BO X 500 MLBOL     1
CE0000000233794H202100921742120700921742120707/12/20210242    3150008823742196425000011082700001620070000000000000                                                               EQUIPO SET PRIMARIO C/CLAVE REF 14001BOL     1
CE0000000233794H202100921742120700921742120707/12/20210242    3150008823742196425000022426800001140510000000000000                                                                    EQUIPO MACROGOTEO BAXTER MRC0001SOB     1
