CC0001129565692U202100000556666700000556666707/12/20211527    31500658239421964320000E1AB0200000199290000000000000                                                            SOLUCION SALINA 0.9% SLN INY BO X 100 MLBIN     1
CC0001129565692U202100000556666700000556666707/12/20211119     3300004239421964320000M1AE2500000191550000000000000                                                            PROFENID POLVO LIOF SLN INY 100MG/2ML/R/AMP     1
CC0001129565692U202100000556666700000556666707/12/20211119     3300004239421964320000N02B1100001464120000000000000                                           PARACETAMOL EP 1000MG/100ML(10MG/ML) SOL INY  CAJ X 10FCOVAL     1
CC0001129565692U202100000556666700000556666707/12/20211119     3300004239421964320000M03BX100001333480000000000000                                                                                CICLORELAX TAB 10 MGTAB     1
