CC0000072339909H202100000556654600000556654607/12/20211244     330000923742196425000011808300000218190000000000000                                                   DORMICUM IV 50MG/10ML(5MG/ML) SOL INY  CAJ X 5AMPAMP    10
CC0000072339909H202100000556654600000556654607/12/20211701    31500305237421964250000E1AB0200000199290000000000000                                                            SOLUCION SALINA 0.9% SLN INY BO X 100 MLBIN     6
CC0000072339909H202100000556654600000556654607/12/20211635    31500350237421964250000E1AB0200000199290000000000000                                                            SOLUCION SALINA 0.9% SLN INY BO X 100 MLBIN     1
CC0000072339909H202100000556654600000556654607/12/20211800     3300009237421964250000A12BA100000552980000000000000                                                            CLORURO POTASIO Sln Iny AMP 20 MEQ/10 MLAMP     2
CC0000072339909H202100000556654600000556654607/12/20211759     3300009237421964250000C01DA100000176460000000000000                                                            NITROGLICERINA EN DEXTROSA VIAL X 250 MLFCO     4
CC0000072339909H202100000556654600000556654607/12/20210958     3300009237421964250000C01DA100000176460000000000000                                                            NITROGLICERINA EN DEXTROSA VIAL X 250 MLFCO     1
CC0000072339909H202100000556654600000556654607/12/20212259     3300009237421964250000C09CA400001277130000000000000                                                                                  LOSARTAN TAB 50 MGTAB     1
CC0000072339909H202100000556654600000556654607/12/20210958     3300009237421964250000C09CA400001277130000000000000                                                                                  LOSARTAN TAB 50 MGTAB     1
CC0000072339909H202100000556654600000556654607/12/20211425     3300009237421964250000N01B0200003888110000000000000                                           ROXICAINA SE 100MG/10ML(1%) SOL INY CAJ X 24AMPACK X 10MLAPC     1
CC0000072339909H202100000556654600000556654607/12/20211758     3300009237421964250000A12CC100001690470000000000000                                                                  MAGNESIO SULFATO 20% SLN INY 10 MLAMP     1
CC0000072339909H202100000556654600000556654607/12/20212258     3300009237421964250000A11A2600000303300000000000000                                                                 GLUCERNA LIQUIDO 1.0 KCAL X 1500 MLFCO     1
CC0000072339909H202100000556654600000556654607/12/20211244     3300009237421964250000N1AH0200003906560000000000000                                                                     FENTANIL Iny 0.05 mg/ml x 10 mlAMP    10
CC0000072339909H202100000556654600000556654607/12/20211759     3300009237421964250000C02AC200001559150000000000000                                                                              CLONIDINA TAB 0.150 MGTAB     4
CC0000072339909H202100000556654600000556654607/12/20210958     3300009237421964250000C02AC200001559150000000000000                                                                              CLONIDINA TAB 0.150 MGTAB     1
CC0000072339909H202100000556654600000556654607/12/20211758     3300009237421964250000C02C0100001316210000000000000                                                                                     PRATEN TAB 1 MGTAB     5
CC0000072339909H202100000556654600000556654607/12/20210958     3300009237421964250000C02C0100001316210000000000000                                                                                     PRATEN TAB 1 MGTAB     3
CC0000072339909H202100000556654600000556654607/12/20211759     3300009237421964250000C7AB0100001276990000000000000                                                                            BETOPROLOL TAB 50 MG /R/TAB     1
CC0000072339909H202100000556654600000556654607/12/20210958     3300009237421964250000C7AB0100001276990000000000000                                                                            BETOPROLOL TAB 50 MG /R/TAB     1
CC0000072339909H202100000556654600000556654607/12/20211758     3300009237421964250000C08CA300001313930000000000000                                                                                AMLODIPINO TAB 10 MGTAB     1
CC0000072339909H202100000556654600000556654607/12/20210958     3300009237421964250000C10AA500001314010000000000000                                                                             ATORVASTATINA TAB 40 MGTAB     2
CC0000072339909H202100000556654600000556654607/12/20211424     3300009237421964250000M03A0900001467590000000000000                                                                        ROCURONIO SLN INY 50 MG/5 MLVAL     1
CC0000072339909H202100000556654600000556654607/12/20210958     3300009237421964250000N05A1700001278300000000000000                                                                            QUETIAPINA TAB 25 MG /R/TAB     4
CC0000072339909H202100000556654600000556654607/12/20210958     3300009237421964250000A02BC700001684270000000000000                                                            OMEPRAZOL 40MG POLVO LIOFILIZADO AMPOLLAVAL     1
