CC0000001703647U202100000556675800000556675807/12/20211611     3300004239421964320000A03AX200001391380000000000000                                                                              ALEVIAN CAP 100/300 MGCAP     1
CC0000001703647U202100000556675800000556675807/12/20211822    31500246239421964320000E1AD0200003888320000000000000                                                                              HARTMAN SLN INY 500 MLBOL     2
CC0000001703647U202100000556675800000556675807/12/20211822    31500246239421964320000E1AD0300000199490000000000000                                         LACTATO RINGER USP (HARTMANN)  SOL INY  BOL X 1000ML BAXTERBIN     1
CC0000001703647U202100000556675800000556675807/12/20211611     3300004239421964320000M1AB0900001019600000000000000                                                                              VOLTAREN Sln Iny 75 mgAMP     1
CC0000001703647U202100000556675800000556675807/12/20211611     3300004239421964320000A3BB0300000512950000000000000                                                             BUSCAPINA COMP Sln Iny 20 mg+2.5 g/5 mlAMP     1
