PA00000AS606150H202100000556671200000556671207/12/20211402     3300009237421964250000A2BC0900000200150000000000000                                                                               ORAZOLE Sln Iny 40 mgCIN     1
PA00000AS606150H202100000556671200000556671207/12/20211402     3300009237421964250000A4AD0200000202990000000000000                                                                     PLITICAN HCL Sln Iny 50 mg/2 mlAMP     4
PA00000AS606150H202100000556671200000556671207/12/20211820    31900630237421964250000E1AB0500003888400000000000000                                                              SOLUCION SALINA 0.9% SLN INY X 1000 MLBOL     1
PA00000AS606150H202100000556671200000556671207/12/20211402     3300009237421964250000A3BB0300000512950000000000000                                                             BUSCAPINA COMP Sln Iny 20 mg+2.5 g/5 mlAMP     4
PA00000AS606150H202100000556671200000556671207/12/20211402     3300009237421964250000M1AX0200001569410000000000000                                                                         KETRON SLN INY 30 MG / 2 MLAMP     3
PA00000AS606150H202100000556671200000556671207/12/20211820    31900630237421964250000V07A1300000502600000000000000                                                                                AGUA ESTERIL x 10 mlAMP     8
