TI0001103512693H202100015122548400015122548407/12/20210810    31500453237421964250000V07A1300000502600000000000000                                                                                AGUA ESTERIL x 10 mlAMP     5
RC0001063188441H202100015122548400015122548407/12/20210810    31500453237421964250000V07A1300000502600000000000000                                                                                AGUA ESTERIL x 10 mlAMP     5
RC0001240292997H202100015122548400015122548407/12/20210810    31500453237421964250000V07A1300000502600000000000000                                                                                AGUA ESTERIL x 10 mlAMP     5
RC0001044671776H202100015122548400015122548407/12/20210810    31500453237421964250000V07A1300000502600000000000000                                                                                AGUA ESTERIL x 10 mlAMP     5
RC0001046723141H202100015122548400015122548407/12/20210810    31500453237421964250000V07A1300000502600000000000000                                                                                AGUA ESTERIL x 10 mlAMP     5
RC0001102897681H202100015122548400015122548407/12/20210810    31500453237421964250000V07A1300000502600000000000000                                                                                AGUA ESTERIL x 10 mlAMP     5
RC0001063188076H202100015122548400015122548407/12/20210810    31500453237421964250000V07A1300000502600000000000000                                                                                AGUA ESTERIL x 10 mlAMP     5
RC0001043033404H202100015122548400015122548407/12/20210810    31500453237421964250000V07A1300000502600000000000000                                                                                AGUA ESTERIL x 10 mlAMP     5
RC0001240292997H202100015122548400015122548407/12/20210810    3150045323742196425000024675000001585130000000000000                                                                    JERINGA DESECHABLE 50 ml S/AGUJASOB     5
RC0001044671776H202100015122548400015122548407/12/20210810    3150045323742196425000024675000001585130000000000000                                                                    JERINGA DESECHABLE 50 ml S/AGUJASOB     5
RC0001046723141H202100015122548400015122548407/12/20210810    3150045323742196425000024675000001585130000000000000                                                                    JERINGA DESECHABLE 50 ml S/AGUJASOB     5
TI0001103512693H202100015122548400015122548407/12/20210810    3150045323742196425000024673000001411210000000000000                                                                  JERINGA DESECHABLE 3 ML 21 X 1 1/2SOB    10
RC0001063188441H202100015122548400015122548407/12/20210810    3150045323742196425000024673000001411210000000000000                                                                  JERINGA DESECHABLE 3 ML 21 X 1 1/2SOB     5
RC0001240292997H202100015122548400015122548407/12/20210810    3150045323742196425000024673000001411210000000000000                                                                  JERINGA DESECHABLE 3 ML 21 X 1 1/2SOB    10
RC0001044671776H202100015122548400015122548407/12/20210810    3150045323742196425000024673000001411210000000000000                                                                  JERINGA DESECHABLE 3 ML 21 X 1 1/2SOB     5
RC0001046723141H202100015122548400015122548407/12/20210810    3150045323742196425000024673000001411210000000000000                                                                  JERINGA DESECHABLE 3 ML 21 X 1 1/2SOB    10
RC0001102897681H202100015122548400015122548407/12/20210810    3150045323742196425000024673000001411210000000000000                                                                  JERINGA DESECHABLE 3 ML 21 X 1 1/2SOB     5
RC0001063188076H202100015122548400015122548407/12/20210810    3150045323742196425000024673000001411210000000000000                                                                  JERINGA DESECHABLE 3 ML 21 X 1 1/2SOB    10
RC0001043033404H202100015122548400015122548407/12/20210810    3150045323742196425000024673000001411210000000000000                                                                  JERINGA DESECHABLE 3 ML 21 X 1 1/2SOB     5
TI0001103512693H202100015122548400015122548407/12/20210810    3150045323742196425000024674000001138340000000000000   JERINGA 3PARTES C/A 10ML REF JEHL005 CAJ X 100 ALFASAFE  21GX1 PULG 1/2 PULG BN EXENTO-DC.417/202PZA    15
RC0001063188441H202100015122548400015122548407/12/20210810    3150045323742196425000024674000001138340000000000000   JERINGA 3PARTES C/A 10ML REF JEHL005 CAJ X 100 ALFASAFE  21GX1 PULG 1/2 PULG BN EXENTO-DC.417/202PZA    20
RC0001240292997H202100015122548400015122548407/12/20210810    3150045323742196425000024674000001138340000000000000   JERINGA 3PARTES C/A 10ML REF JEHL005 CAJ X 100 ALFASAFE  21GX1 PULG 1/2 PULG BN EXENTO-DC.417/202PZA    15
RC0001044671776H202100015122548400015122548407/12/20210810    3150045323742196425000024674000001138340000000000000   JERINGA 3PARTES C/A 10ML REF JEHL005 CAJ X 100 ALFASAFE  21GX1 PULG 1/2 PULG BN EXENTO-DC.417/202PZA    20
RC0001046723141H202100015122548400015122548407/12/20210810    3150045323742196425000024674000001138340000000000000   JERINGA 3PARTES C/A 10ML REF JEHL005 CAJ X 100 ALFASAFE  21GX1 PULG 1/2 PULG BN EXENTO-DC.417/202PZA    15
RC0001102897681H202100015122548400015122548407/12/20210810    3150045323742196425000024674000001138340000000000000   JERINGA 3PARTES C/A 10ML REF JEHL005 CAJ X 100 ALFASAFE  21GX1 PULG 1/2 PULG BN EXENTO-DC.417/202PZA    20
RC0001063188076H202100015122548400015122548407/12/20210810    3150045323742196425000024674000001138340000000000000   JERINGA 3PARTES C/A 10ML REF JEHL005 CAJ X 100 ALFASAFE  21GX1 PULG 1/2 PULG BN EXENTO-DC.417/202PZA    15
RC0001043033404H202100015122548400015122548407/12/20210810    3150045323742196425000024674000001138340000000000000   JERINGA 3PARTES C/A 10ML REF JEHL005 CAJ X 100 ALFASAFE  21GX1 PULG 1/2 PULG BN EXENTO-DC.417/202PZA    20
TI0001103512693H202100015122548400015122548407/12/20210810    3150045323742196425000011047900000223010000000000000                                                                            JERINGA X 1ML REF 302579SIN     5
RC0001063188441H202100015122548400015122548407/12/20210810    3150045323742196425000011047900000223010000000000000                                                                            JERINGA X 1ML REF 302579SIN     5
RC0001240292997H202100015122548400015122548407/12/20210810    3150045323742196425000011047900000223010000000000000                                                                            JERINGA X 1ML REF 302579SIN     5
RC0001044671776H202100015122548400015122548407/12/20210810    3150045323742196425000011047900000223010000000000000                                                                            JERINGA X 1ML REF 302579SIN     5
RC0001046723141H202100015122548400015122548407/12/20210810    3150045323742196425000011047900000223010000000000000                                                                            JERINGA X 1ML REF 302579SIN     5
RC0001102897681H202100015122548400015122548407/12/20210810    3150045323742196425000011047900000223010000000000000                                                                            JERINGA X 1ML REF 302579SIN     5
RC0001063188076H202100015122548400015122548407/12/20210810    3150045323742196425000011047900000223010000000000000                                                                            JERINGA X 1ML REF 302579SIN     5
RC0001043033404H202100015122548400015122548407/12/20210810    3150045323742196425000011047900000223010000000000000                                                                            JERINGA X 1ML REF 302579SIN     5
RC0001240292997H202100015122548400015122548407/12/20210810    3150045323742196425000013077800000471960000000000000                                                             GASA NO TEJIDA EST 7.5 X 7.5 SOB X 3 UNSOB    10
RC0001044671776H202100015122548400015122548407/12/20210810    3150045323742196425000013077800000471960000000000000                                                             GASA NO TEJIDA EST 7.5 X 7.5 SOB X 3 UNSOB    10
RC0001046723141H202100015122548400015122548407/12/20210810    3150045323742196425000013077800000471960000000000000                                                             GASA NO TEJIDA EST 7.5 X 7.5 SOB X 3 UNSOB    10
RC0001240292997H202100015122548400015122548407/12/20210810    3150045323742196425000042743200003929860000000000000                   GASA ADHESIVA STRETCH REF 02038-00 ROL X 10MT FIXOMULL 15CM BN EXENTO-DC.417/2020CMT    80
RC0001044671776H202100015122548400015122548407/12/20210810    3150045323742196425000042743200003929860000000000000                   GASA ADHESIVA STRETCH REF 02038-00 ROL X 10MT FIXOMULL 15CM BN EXENTO-DC.417/2020CMT    80
RC0001046723141H202100015122548400015122548407/12/20210810    3150045323742196425000042743200003929860000000000000                   GASA ADHESIVA STRETCH REF 02038-00 ROL X 10MT FIXOMULL 15CM BN EXENTO-DC.417/2020CMT    80
TI0001103512693H202100015122548400015122548407/12/20210810    3150045323742196425000022426800001140510000000000000                                                                    EQUIPO MACROGOTEO BAXTER MRC0001SOB     1
RC0001240292997H202100015122548400015122548407/12/20210810    3150045323742196425000022426800001140510000000000000                                                                    EQUIPO MACROGOTEO BAXTER MRC0001SOB     1
RC0001044671776H202100015122548400015122548407/12/20210810    3150045323742196425000022426800001140510000000000000                                                                    EQUIPO MACROGOTEO BAXTER MRC0001SOB     1
RC0001046723141H202100015122548400015122548407/12/20210810    3150045323742196425000022426800001140510000000000000                                                                    EQUIPO MACROGOTEO BAXTER MRC0001SOB     1
RC0001063188441H202100015122548400015122548407/12/20210810    3150045323742196425000011082700001620070000000000000                                                               EQUIPO SET PRIMARIO C/CLAVE REF 14001BOL     1
RC0001240292997H202100015122548400015122548407/12/20210810    3150045323742196425000011082700001620070000000000000                                                               EQUIPO SET PRIMARIO C/CLAVE REF 14001BOL     1
RC0001044671776H202100015122548400015122548407/12/20210810    3150045323742196425000011082700001620070000000000000                                                               EQUIPO SET PRIMARIO C/CLAVE REF 14001BOL     2
RC0001043033404H202100015122548400015122548407/12/20210810    3150045323742196425000011082700001620070000000000000                                                               EQUIPO SET PRIMARIO C/CLAVE REF 14001BOL     1
RC0001063188441H202100015122548400015122548407/12/20210810    3150045323742196425000030936900001431840000000000000                                                                                              BURETABOL     1
RC0001044671776H202100015122548400015122548407/12/20210810    3150045323742196425000030936900001431840000000000000                                                                                              BURETABOL     1
RC0001043033404H202100015122548400015122548407/12/20210810    3150045323742196425000030936900001431840000000000000                                                                                              BURETABOL     1
TI0001103512693H202100015122548400015122548407/12/20210810    3150045323742196425000020056600001101530000000000000                                                                AGUJA HIPODERMICA DESECH 18G X 1 1/2SOB     5
RC0001063188441H202100015122548400015122548407/12/20210810    3150045323742196425000020056600001101530000000000000                                                                AGUJA HIPODERMICA DESECH 18G X 1 1/2SOB     5
RC0001240292997H202100015122548400015122548407/12/20210810    3150045323742196425000020056600001101530000000000000                                                                AGUJA HIPODERMICA DESECH 18G X 1 1/2SOB     5
RC0001044671776H202100015122548400015122548407/12/20210810    3150045323742196425000020056600001101530000000000000                                                                AGUJA HIPODERMICA DESECH 18G X 1 1/2SOB     5
RC0001046723141H202100015122548400015122548407/12/20210810    3150045323742196425000020056600001101530000000000000                                                                AGUJA HIPODERMICA DESECH 18G X 1 1/2SOB     5
RC0001102897681H202100015122548400015122548407/12/20210810    3150045323742196425000020056600001101530000000000000                                                                AGUJA HIPODERMICA DESECH 18G X 1 1/2SOB     5
RC0001063188076H202100015122548400015122548407/12/20210810    3150045323742196425000020056600001101530000000000000                                                                AGUJA HIPODERMICA DESECH 18G X 1 1/2SOB     5
RC0001043033404H202100015122548400015122548407/12/20210810    3150045323742196425000020056600001101530000000000000                                                                AGUJA HIPODERMICA DESECH 18G X 1 1/2SOB     5
RC0001044671776H202100015122548400015122548407/12/20210810    31500453237421964250000E1AB0300003888390000000000000                                                            SOLUCION SALINA 0.9% SLN INY BO X 500 MLBOL     1
RC0001046723141H202100015122548400015122548407/12/20210810    31500453237421964250000E1AB0300003888390000000000000                                                            SOLUCION SALINA 0.9% SLN INY BO X 500 MLBOL     1
RC0001044671776H202100015122548400015122548407/12/20210810    31500453237421964250000E1AB0700003888350000000000000                                                            SOLUCION SALINA 0.9% SLN INY BO X 250 MLBOL     1
RC0001046723141H202100015122548400015122548407/12/20210810    31500453237421964250000E1AB0700003888350000000000000                                                            SOLUCION SALINA 0.9% SLN INY BO X 250 MLBOL     1
RC0001240292997H202100015122548400015122548407/12/20210810    31500453237421964250000E1AB0200000199290000000000000                                                            SOLUCION SALINA 0.9% SLN INY BO X 100 MLBIN     5
RC0001044671776H202100015122548400015122548407/12/20210810    31500453237421964250000E1AB0200000199290000000000000                                                            SOLUCION SALINA 0.9% SLN INY BO X 100 MLBIN     5
RC0001046723141H202100015122548400015122548407/12/20210810    31500453237421964250000E1AB0200000199290000000000000                                                            SOLUCION SALINA 0.9% SLN INY BO X 100 MLBIN     5
RC0001240292997H202100015122548400015122548407/12/20210810    31500453237421964250000E1AB1100003888280000000000000                                                                        SOLUCION SALINA 0.9% X 50 mlBOL     3
RC0001046723141H202100015122548400015122548407/12/20210810    31500453237421964250000E1AB1100003888280000000000000                                                                        SOLUCION SALINA 0.9% X 50 mlBOL     3
TI0001103512693H202100015122548400015122548407/12/20210810    31500453237421964250000E1AC0100000199400000000000000                                                                          SUERO MIXTO Sln Iny 500 mlBIN     3
RC0001063188441H202100015122548400015122548407/12/20210810    31500453237421964250000E1AC0100000199400000000000000                                                                          SUERO MIXTO Sln Iny 500 mlBIN     1
RC0001240292997H202100015122548400015122548407/12/20210810    31500453237421964250000E1AC0100000199400000000000000                                                                          SUERO MIXTO Sln Iny 500 mlBIN     1
RC0001044671776H202100015122548400015122548407/12/20210810    31500453237421964250000E1AC0100000199400000000000000                                                                          SUERO MIXTO Sln Iny 500 mlBIN     1
RC0001102897681H202100015122548400015122548407/12/20210810    31500453237421964250000E1AC0100000199400000000000000                                                                          SUERO MIXTO Sln Iny 500 mlBIN     1
RC0001043033404H202100015122548400015122548407/12/20210810    31500453237421964250000E1AC0100000199400000000000000                                                                          SUERO MIXTO Sln Iny 500 mlBIN     1
TI0001103512693H202100015122548400015122548407/12/20210810    3150045323742196425000011137100001419310000000000000                                                               TIRA GLUCOMETRIA FREESTYLE H OPTIUM .PZA     3
RC0001063188441H202100015122548400015122548407/12/20210810    3150045323742196425000011137100001419310000000000000                                                               TIRA GLUCOMETRIA FREESTYLE H OPTIUM .PZA     3
RC0001240292997H202100015122548400015122548407/12/20210810    3150045323742196425000011137100001419310000000000000                                                               TIRA GLUCOMETRIA FREESTYLE H OPTIUM .PZA     3
RC0001044671776H202100015122548400015122548407/12/20210810    3150045323742196425000011137100001419310000000000000                                                               TIRA GLUCOMETRIA FREESTYLE H OPTIUM .PZA     3
RC0001046723141H202100015122548400015122548407/12/20210810    3150045323742196425000011137100001419310000000000000                                                               TIRA GLUCOMETRIA FREESTYLE H OPTIUM .PZA     3
RC0001102897681H202100015122548400015122548407/12/20210810    3150045323742196425000011137100001419310000000000000                                                               TIRA GLUCOMETRIA FREESTYLE H OPTIUM .PZA     3
RC0001063188076H202100015122548400015122548407/12/20210810    3150045323742196425000011137100001419310000000000000                                                               TIRA GLUCOMETRIA FREESTYLE H OPTIUM .PZA     3
RC0001043033404H202100015122548400015122548407/12/20210810    3150045323742196425000011137100001419310000000000000                                                               TIRA GLUCOMETRIA FREESTYLE H OPTIUM .PZA     3
