CC0000022492166A202100000027831100000027831107/12/20211246    31903336240421964190000A03DH100001684240000000000000                                                            B HIOSCINA 20MG/DIPIRON 2.5G SLN INY 5MLAMP     1
CC0000022492166A202100000027831100000027831107/12/20211246    3190333624042196419000038568600000256960000000000000                                                                                   SONDA NELATON #14SIN     1
CC0000022492166A202100000027831100000027831107/12/20211246    3190333624042196419000039175000001072050000000000000                                                                           TUBO ENDOTRAQUEAL C/B 7.0SOB     1
CC0000022492166A202100000027831100000027831107/12/20211246    31903336240421964190000N1BA0300000217900000000000000                                                                    BUPIROP 0.5% C/E Sln Iny x 20 mlVAL     1
CC0000022492166A202100000027831100000027831107/12/20211246    3190333624042196419000000504800004018100000000000000   SUTURA SINTETI ABSORBIBLE CT-2 REF J333H CAJ X 36 VICRYL 70CM - 2-0 VIOLETA BN EXENTO-DC.417/2020SOB     1
CC0000022492166A202100000027831100000027831107/12/20211246    3190333624042196419000022424500000236720000000000000                                                                     EQUIPO EN Y IRRIGA ARC4005 4006SOB     1
CC0000022492166A202100000027831100000027831107/12/20211246    3190333624042196419000038569900001124970000000000000                                                                              SONDA FOLEY #14 2 VIASSOB     1
CC0000022492166A202100000027831100000027831107/12/20211246    3190333624042196419000031188000000236790000000000000                                                                                     CISTOFLO ADULTOSIN     1
CC0000022492166A202100000027831100000027831107/12/20211246    3190333624042196419000001202300001454590000000000000                                                            CANULA UNIVERSA FIJACION 12MM UNVCA12STFSOB     1
CC0000022492166A202100000027831100000027831107/12/20211246    3190333624042196419000011067500001404570000000000000                                                              TROCAR FIJACION 5MM X 100 MM REF B5STFPZA     1
CC0000022492166A202100000027831100000027831107/12/20211246    3190333624042196419000000504900001148610000000000000                                                            SUTURA V-LOC 180 GS21 37MM REF VLOCL0316PZA     1
CC0000022492166A202100000027831100000027831107/12/20211246    3190333624042196419000011058900000856640000000000000                                                                PUNTA MANIPULADOR 6.7MM X 8CM UMB678SOB     1
CC0000022492166A202100000027831100000027831107/12/20211246    3190333624042196419000043879200001138180000000000000                                                                                   HOJA BISTURI # 11SOB     1
CC0000022492166A202100000027831100000027831107/12/20211246    31903336240421964190000M03A0900001467590000000000000                                                                        ROCURONIO SLN INY 50 MG/5 MLVAL     1
CC0000022492166A202100000027831100000027831107/12/20211246    31903336240421964190000Q1AA7200000610630000000000000                                                            CATETER PERIFE INTROCAN # 20G 4251644-04SIN     1
CC0000022492166A202100000027831100000027831107/12/20211246    3190333624042196419000049059800000267410000000000000                                                                 MEDIA ANTIEMBOLICA TAL L 3634LF PARBOL     1
CC0000022492166A202100000027831100000027831107/12/20211246    31903336240421964190000N01A0400003939010000000000000                                               MAYOPROFOL 200MG/20ML(1%) EMUL INY CAJ X 1VIAL X 20MLVAL     1
CC0000022492166A202100000027831100000027831107/12/20211246    3190333624042196419000081840000000333950000000000000                                                                  PROLENE 3-0 BLUE SC24  45 CM  8184SIN     1
CC0000022492166A202100000027831100000027831107/12/20211246    3190333624042196419000045138000001413890000000000000                                                                       LAPIZ ELECTROBISTURI  SOB X 1SOB     1
CC0000022492166A202100000027831100000027831107/12/20211246    3190333624042196419000030161400001459220000000000000                                                                       MANGUERA SUCCION 6 MM*3.1 MTSSOB     1
CC0000022492166A202100000027831100000027831107/12/20211246    3190333624042196419000022425200000548240000000000000                       EXTENSION DE ANESTESIA REF 1139 SOB X 1 SHERLEG  ADULTO BN EXENTO-DC.417/2020SIN     1
CC0000022492166A202100000027831100000027831107/12/20211246    3190333624042196419000035356500003919000000000000000                                                                                        LLAVE 3 VIASSOB     1
CC0000022492166A202100000027831100000027831107/12/20211246    31903336240421964190000Q1AA7100000610620000000000000                                                            CATETER PERIFE INTROCAN # 18G 4251687-04SIN     1
CC0000022492166A202100000027831100000027831107/12/20211246    3190333624042196419000022426800001140510000000000000                                                                    EQUIPO MACROGOTEO BAXTER MRC0001SOB     1
CC0000022492166A202100000027831100000027831107/12/20211246    31903336240421964190000J01DA300001239950000000000000                                                            CEFAZOLINA SODICA POLVO LIOF SLN INY 1 GVAL     2
CC0000022492166A202100000027831100000027831107/12/20211246    3190333624042196419000011099300000777780000000000000                                                                     FILTRO BACTERIANO VIRICO ADULTOBOL     2
CC0000022492166A202100000027831100000027831107/12/20211246    3190333624042196419000020750600000296780000000000000                                                                PLACA ELECTRO RETORNO PACIENTE E7506SIN     1
CC0000022492166A202100000027831100000027831107/12/20211246    3190333624042196419000011073300001096420000000000000                                                                BOLSA DE SUCCION DE FLUIDOS x 2500mLBOL     1
CC0000022492166A202100000027831100000027831107/12/20211246    3190333624042196419000053074400000607910000000000000                                                               GASA ESTERIL 10*10 SOBRE X 3 UNIDADESSOB     4
CC0000022492166A202100000027831100000027831107/12/20211246    3190333624042196419000011047900000223010000000000000                                                                            JERINGA X 1ML REF 302579SIN     1
CC0000022492166A202100000027831100000027831107/12/20211246    3190333624042196419000024673600000222980000000000000                                                                     JERINGA DESECHABLE 5 ml 27*11/2SIN     3
CC0000022492166A202100000027831100000027831107/12/20211246    3190333624042196419000024674000001138340000000000000   JERINGA 3PARTES C/A 10ML REF JEHL005 CAJ X 100 ALFASAFE  21GX1 PULG 1/2 PULG BN EXENTO-DC.417/202PZA     5
CC0000022492166A202100000027831100000027831107/12/20211246    3190333624042196419000024674500000322810000000000000                                                                   JERINGA DESECHABLE 20 ml 21*1 1/2SIN     2
CC0000022492166A202100000027831100000027831107/12/20211246    3190333624042196419000011085100001082120000000000000                                                                           GUANTE QUIRURGICO TALLA 7SOB     5
CC0000022492166A202100000027831100000027831107/12/20211246    3190333624042196419000043485100001618510000000000000                GUANTE QUIRURGICO DE LATEX REF 2D72N65X CAJ X 50 PROTEXIS  6.5 BN EXENTO-DC.417/2020SOB     5
CC0000022492166A202100000027831100000027831107/12/20211246    3190333624042196419000020060000000225230000000000000                                                               AGUJA SPINOCAN 27G X 3 1/2 PU 4503902SIN     1
CC0000022492166A202100000027831100000027831107/12/20211246    3190333624042196419000051515500000598160000000000000                                                                            MASCARILLA ANESTESIA # 5SIN     1
CC0000022492166A202100000027831100000027831107/12/20211246    31903336240421964190000E1AB0500003888400000000000000                                                              SOLUCION SALINA 0.9% SLN INY X 1000 MLBOL     1
CC0000022492166A202100000027831100000027831107/12/20211246    31903336240421964190000E1AB0300003888390000000000000                                                            SOLUCION SALINA 0.9% SLN INY BO X 500 MLBOL     5
CC0000022492166A202100000027831100000027831107/12/20211246    31903336240421964190000N1BA0500000647360000000000000                                                                  BUPIROP 0.5% PESADO SLN INY X 4 MLAPC     1
CC0000022492166A202100000027831100000027831107/12/20211246    31903336240421964190000A2BC0900000200150000000000000                                                                               ORAZOLE Sln Iny 40 mgCIN     1
CC0000022492166A202100000027831100000027831107/12/20211246    31903336240421964190000H02A0100001664960000000000000                                                                        DEXAMETASONA SLN INY 4 MG/MLAMP     2
CC0000022492166A202100000027831100000027831107/12/20211246    31903336240421964190000M01A2000001664970000000000000                                                               DICLOFENACO SODICO SLN INY 75 MG/3 MLAMP     1
CC0000022492166A202100000027831100000027831107/12/20211246    31903336240421964190000A03F0300001626860000000000000                                                                   METOCLOPRAMIDA SLN INY 10 MG/2 MLAMP     1
CC0000022492166A202100000027831100000027831107/12/20211246    3190333624042196419000011064200001181380000000000000                                                             SISTEM KOH-EFFICIENT C/BALON KC-RUMI-30PZA     1
