RC0001043712604U202100050131959700050131959707/12/20212335    3150051423942196432000038568200000257000000000000000                                                                                   SONDA NELATON #06SIN     1
RC0001043712604U202100050131959700050131959707/12/20212335    31500514239421964320000B05C0200001339660000000000000                                                                        SOLUCION SALINA 0.9% X 10 MLJRP     1
CC0000007544660U202100050131959700050131959707/12/20212335    3150051423942196432000036441300000236540000000000000                                                                    JERINGA 1 ML GASES ARTERIAL 9023SIN     1
CC0001093739216U202100050131959700050131959707/12/20212335    3150051423942196432000036441300000236540000000000000                                                                    JERINGA 1 ML GASES ARTERIAL 9023SIN     1
RC0001043712604U202100050131959700050131959707/12/20212335    31500514239421964320000Q1A11800000258040000000000000                                                                         CANULA OXIGENO NASAL PEDIATSIN     1
