CC0000022352292H202100015112743300015112743307/12/20210744    3190145023742196425000018351500000232840000000000000                                                                                    SEDA 2-0 KS 623HSIN     1
CC0000022352292H202100015112743300015112743307/12/20210744    3190145023742196425000035356500003919000000000000000                                                                                        LLAVE 3 VIASSOB     1
CC0000022352292H202100015112743300015112743307/12/20210744    3190145023742196425000043879200001138180000000000000                                                                                   HOJA BISTURI # 11SOB     1
CC0000022352292H202100015112743300015112743307/12/20210744    3190145023742196425000011085100001082120000000000000                                                                           GUANTE QUIRURGICO TALLA 7SOB     2
CC0000022352292H202100015112743300015112743307/12/20210744    3190145023742196425000013077800000471960000000000000                                                             GASA NO TEJIDA EST 7.5 X 7.5 SOB X 3 UNSOB    10
CC0000022352292H202100015112743300015112743307/12/20210744    3190145023742196425000001956000001620610000000000000                                                                      CONECTOR MICRO CLAVE LAT-MC100SOB     3
CC0000022352292H202100015112743300015112743307/12/20210744    3190145023742196425000021016900000227720000000000000                                                               CATETER TRILUMEN AD CS15703E 7FR*20CMSIN     1
CC0000022352292H202100015112743300015112743307/12/20210744    3190145023742196425000000602700001197200000000000000                                                              APOSITO TRANSP  1655 IV 8.5CM X 11.5CMSOB     1
