CC0000007444684H202100000556669300000556669307/12/20211821    31901827237421964250000A6AC0200001467010000000000000                                                             LACTULAX JARABE 66.7G/100ML SOX15ML /R/SOB     3
CC0000007444684H202100000556669300000556669307/12/20211821    31901827237421964250000A07A0500001278160000000000000                                                                               IFAXIM TAB 200 MG /R/TAB     2
CC0000007444684H202100000556669300000556669307/12/20211543    31500305237421964250000B2BA0300000215330000000000000                                                              KONAKION MM PEDIAT SLN INY 2 MG/0.2 MLAMP     5
CC0000007444684H202100000556669300000556669307/12/20211248    31901450237421964250000C07A1200001304880000000000000                                                                           PROPRANOLOL HCL TAB 40 MGTAB     2
