CC0000084025415U202100050131959200050131959207/12/20212226    3190217123942196432000024674000001138340000000000000   JERINGA 3PARTES C/A 10ML REF JEHL005 CAJ X 100 ALFASAFE  21GX1 PULG 1/2 PULG BN EXENTO-DC.417/202PZA     1
CC0000084025415U202100050131959200050131959207/12/20212226    3190217123942196432000024673600000222980000000000000                                                                     JERINGA DESECHABLE 5 ml 27*11/2SIN     1
CC0000084025415U202100050131959200050131959207/12/20212226    3190217123942196432000011047900000223010000000000000                                                                            JERINGA X 1ML REF 302579SIN     1
CC0000084025415U202100050131959200050131959207/12/20212226    3190217123942196432000011082700001620070000000000000                                                               EQUIPO SET PRIMARIO C/CLAVE REF 14001BOL     1
CC0000084025415U202100050131959200050131959207/12/20212226    31902171239421964320000Q1AA7200000610630000000000000                                                            CATETER PERIFE INTROCAN # 20G 4251644-04SIN     2
CC0000084025415U202100050131959200050131959207/12/20212226    3190217123942196432000030936900001431840000000000000                                                                                              BURETABOL     1
CC0000084025415U202100050131959200050131959207/12/20212226    3190217123942196432000016830000000970620000000000000                                                             SIST FIJACION CAT PERIFERICO 6.5X7 1683SOB     1
CC0000084025415U202100050131959200050131959207/12/20212226    3190217123942196432000020056600001101530000000000000                                                                AGUJA HIPODERMICA DESECH 18G X 1 1/2SOB     1
CC0000084025415U202100050131959200050131959207/12/20212226    31902171239421964320000E1AD0300000199490000000000000                                         LACTATO RINGER USP (HARTMANN)  SOL INY  BOL X 1000ML BAXTERBIN     1
