RC0001240692787H202100015052809400015052809407/12/20212302    3150039123742196425000011082700001620070000000000000                                                               EQUIPO SET PRIMARIO C/CLAVE REF 14001BOL     1
RC0001240692787H202100015052809400015052809407/12/20212302    3150039123742196425000030936900001431840000000000000                                                                                              BURETABOL     1
CC0000032885572H202100015052809400015052809407/12/20212302    31500391237421964250000E1AD0300000199490000000000000                                         LACTATO RINGER USP (HARTMANN)  SOL INY  BOL X 1000ML BAXTERBIN     2
