CC0000007479382H202100015112742400015112742407/12/20210115    3190235723742196425000024674000001138340000000000000   JERINGA 3PARTES C/A 10ML REF JEHL005 CAJ X 100 ALFASAFE  21GX1 PULG 1/2 PULG BN EXENTO-DC.417/202PZA    15
CC0000007479382H202100015112742400015112742407/12/20210115    3190235723742196425000022426800001140510000000000000                                                                    EQUIPO MACROGOTEO BAXTER MRC0001SOB     5
CC0000007479382H202100015112742400015112742407/12/20210115    3190235723742196425000011082900001233450000000000000                                                               EQUIPO LC 5000 PRIMARIO FOTOPRO 0L218SOB     1
CC0000007479382H202100015112742400015112742407/12/20210115    3190235723742196425000011082700001620070000000000000                                                               EQUIPO SET PRIMARIO C/CLAVE REF 14001BOL     6
CC0000007479382H202100015112742400015112742407/12/20210115    31902357237421964250000E1AD0300000199490000000000000                                         LACTATO RINGER USP (HARTMANN)  SOL INY  BOL X 1000ML BAXTERBIN     6
CC0000007479382H202100015112742400015112742407/12/20210115    31902357237421964250000E1AB0500003888400000000000000                                                              SOLUCION SALINA 0.9% SLN INY X 1000 MLBOL     4
CC0000007479382H202100015112742400015112742407/12/20210115    31902357237421964250000E1AB1100003888280000000000000                                                                        SOLUCION SALINA 0.9% X 50 mlBOL     6
