CC0001124025940U202100050131957100050131957107/12/20211952    3150064323942196432000045136100001419300000000000000                                                                            LANCETA DEXTROMETER X UNPZA     3
CC0001124025940U202100050131957100050131957107/12/20211952    3150064323942196432000024674000001138340000000000000   JERINGA 3PARTES C/A 10ML REF JEHL005 CAJ X 100 ALFASAFE  21GX1 PULG 1/2 PULG BN EXENTO-DC.417/202PZA     1
CC0001124025940U202100050131957100050131957107/12/20211952    3150064323942196432000011137100001419310000000000000                                                               TIRA GLUCOMETRIA FREESTYLE H OPTIUM .PZA     3
