CC0001102230882U202100000556649100000556649107/12/20210519    31500362239421964320000E1AD0300000199490000000000000                                         LACTATO RINGER USP (HARTMANN)  SOL INY  BOL X 1000ML BAXTERBIN     1
CC0001102230882U202100000556649100000556649107/12/20211102     3300004239421964320000M01AE300001277920000000000000                                                                                 APRONAX TABL 550 MGTAB     3
CC0001102230882U202100000556649100000556649107/12/20211101     3300004239421964320000M01AE300001277920000000000000                                                                                 APRONAX TABL 550 MGTAB     7
CC0001102230882U202100000556649100000556649107/12/20211103     3300004239421964320000N2BE0100001276930000000000000                                                                                    DOLEX TAB 500 MGTAB     5
CC0001102230882U202100000556649100000556649107/12/20211102     3300004239421964320000N2BE0100001276930000000000000                                                                                    DOLEX TAB 500 MGTAB    25
CC0001102230882U202100000556649100000556649107/12/20210304    31901806239421964320000V07A1300000502600000000000000                                                                                AGUA ESTERIL x 10 mlAMP     1
