CC0000032776593H202100015112743800015112743807/12/20210954    3150035023742196425000035639600001014740000000000000                                                                              MASCARA VENTURY ADULTOBOL     1
CC0000032776593H202100015112743800015112743807/12/20210954    3150035023742196425000043995200000229010000000000000                                                               HUMIDIFICADOR PARA OXIGENO REF. H001BBOL     1
CC0000032776593H202100015112743800015112743807/12/20210954    3150035023742196425000011085100001082120000000000000                                                                           GUANTE QUIRURGICO TALLA 7SOB    10
