CC0001140881758U202100050131958900050131958907/12/20212218    3150064323942196432000022426800001140510000000000000                                                                    EQUIPO MACROGOTEO BAXTER MRC0001SOB     1
CC0001140881758U202100050131958900050131958907/12/20212218    3150064323942196432000011082700001620070000000000000                                                               EQUIPO SET PRIMARIO C/CLAVE REF 14001BOL     1
CC0001140881758U202100050131958900050131958907/12/20212218    3150064323942196432000001956000001620610000000000000                                                                      CONECTOR MICRO CLAVE LAT-MC100SOB     1
CC0001140881758U202100050131958900050131958907/12/20212218    31500643239421964320000Q1AA7100000610620000000000000                                                            CATETER PERIFE INTROCAN # 18G 4251687-04SIN     1
CC0001140881758U202100050131958900050131958907/12/20212218    3150064323942196432000030936900001431840000000000000                                                                                              BURETABOL     1
CC0001140881758U202100050131958900050131958907/12/20212218    3150064323942196432000016830000000970620000000000000                                                             SIST FIJACION CAT PERIFERICO 6.5X7 1683SOB     1
CC0001140881758U202100050131958900050131958907/12/20212218    31500643239421964320000E1AD0300000199490000000000000                                         LACTATO RINGER USP (HARTMANN)  SOL INY  BOL X 1000ML BAXTERBIN     1
