CC0000000800641H202100000556654700000556654707/12/20211106     3300009237421964250000A2BC0900000200150000000000000                                                                               ORAZOLE Sln Iny 40 mgCIN     1
CC0000000800641H202100000556654700000556654707/12/20211106     3300009237421964250000A6AC0200001467010000000000000                                                             LACTULAX JARABE 66.7G/100ML SOX15ML /R/SOB     2
CC0000000800641H202100000556654700000556654707/12/20211106     3300009237421964250000B1AB0200003939510000000000000                 ENOXAPARINA SODICA 40MG/0.4ML(100MG/ML) SOL INY INST CAJ X 2JERPREL X 0.4ML TECHDOWJRP     1
CC0000000800641H202100000556654700000556654707/12/20211556    31900995237421964250000E1AB1100003888280000000000000                                                                        SOLUCION SALINA 0.9% X 50 mlBOL     1
CC0000000800641H202100000556654700000556654707/12/20210435    31902977237421964250000E1AB0500003888400000000000000                                                              SOLUCION SALINA 0.9% SLN INY X 1000 MLBOL     1
CC0000000800641H202100000556654700000556654707/12/20211106     3300009237421964250000C3CA0200000195520000000000000                                                                           LASIX SLN INY 20 MG/ 2 MLAMP     3
CC0000000800641H202100000556654700000556654707/12/20211106     3300009237421964250000H03A0900001278900000000000000                                                                                   EUTIROX TB 75 MCGTAB     1
CC0000000800641H202100000556654700000556654707/12/20211106     3300009237421964250000N03AG200001590870000000000000                                                            PROVALNOVA SLN INY 100MG/ML VIALX5ML /R/VAL     1
CC0000000800641H202100000556654700000556654707/12/20211445     3300009237421964250000N03AX200001063780000000000000                                                                      KEPPRA SLN INY 500 MG/5 ML /R/VAL     1
CC0000000800641H202100000556654700000556654707/12/20211106     3300009237421964250000N03AX200001063780000000000000                                                                      KEPPRA SLN INY 500 MG/5 ML /R/VAL     1
