CC0000022585503A202100000027843600000027843607/12/20211552    3190333624042196419000016830000000970620000000000000                                                             SIST FIJACION CAT PERIFERICO 6.5X7 1683SOB     1
CC0000022585503A202100000027843600000027843607/12/20211552    3190333624042196419000011065700003914100000000000000                                                                 TAPON HEPARINIZADO 4238010  B BRAUNSOB     1
CC0000022585503A202100000027843600000027843607/12/20211552    31903336240421964190000Q1AA7200000610630000000000000                                                            CATETER PERIFE INTROCAN # 20G 4251644-04SIN     1
CC0000022585503A202100000027843600000027843607/12/20211552    3190333624042196419000020059500000225210000000000000                                                               AGUJA RAQUI SPINOCAN #20 REF. 4509900SIN     1
CC0000022585503A202100000027843600000027843607/12/20211552    3190333624042196419000027292100000224750000000000000                                                                                  AGUJA PERICAN G-18SIN     1
CC0000022585503A202100000027843600000027843607/12/20211552    3190333624042196419000020056600001101530000000000000                                                                AGUJA HIPODERMICA DESECH 18G X 1 1/2SOB     1
CC0000022585503A202100000027843600000027843607/12/20211552    3190333624042196419000020058400001101660000000000000                                                                           AGUJA DESECHABLE # 25 X 1SOB     1
CC0000022585503A202100000027843600000027843607/12/20211552    3190333624042196419000038568100000258050000000000000                                                                         CANULA OXIGENO NASAL ADULTOSIN     1
CC0000022585503A202100000027843600000027843607/12/20211552    3190333624042196419000053074400000607910000000000000                                                               GASA ESTERIL 10*10 SOBRE X 3 UNIDADESSOB     2
CC0000022585503A202100000027843600000027843607/12/20211552    3190333624042196419000011085200001585390000000000000                                                                       GUANTE QUIRURGICO TALLA 7 1/2SOB     1
CC0000022585503A202100000027843600000027843607/12/20211552    3190333624042196419000011085100001082120000000000000                                                                           GUANTE QUIRURGICO TALLA 7SOB     1
CC0000022585503A202100000027843600000027843607/12/20211552    3190333624042196419000043485100001618510000000000000                GUANTE QUIRURGICO DE LATEX REF 2D72N65X CAJ X 50 PROTEXIS  6.5 BN EXENTO-DC.417/2020SOB     1
CC0000022585503A202100000027843600000027843607/12/20211552    3190333624042196419000024673000001411210000000000000                                                                  JERINGA DESECHABLE 3 ML 21 X 1 1/2SOB     1
CC0000022585503A202100000027843600000027843607/12/20211552    3190333624042196419000024674000001138340000000000000   JERINGA 3PARTES C/A 10ML REF JEHL005 CAJ X 100 ALFASAFE  21GX1 PULG 1/2 PULG BN EXENTO-DC.417/202PZA     4
CC0000022585503A202100000027843600000027843607/12/20211552    31903336240421964190000E1AB0200000199290000000000000                                                            SOLUCION SALINA 0.9% SLN INY BO X 100 MLBIN     1
CC0000022585503A202100000027843600000027843607/12/20211552    31903336240421964190000N01A0400003939010000000000000                                               MAYOPROFOL 200MG/20ML(1%) EMUL INY CAJ X 1VIAL X 20MLVAL     1
CC0000022585503A202100000027843600000027843607/12/20211552    31903336240421964190000S2BA1200000467480000000000000                                                             DEPO MEDROL SUSP INY 40mg/ml X 1 ML /R/CIN     2
CC0000022585503A202100000027843600000027843607/12/20211552    31903336240421964190000N1BA2400001687720000000000000                                                    LIDOCAINA 2% SOL INY  CAJ X 50AMP X 10ML CORPAULAMP     1
CC0000022585503A202100000027843600000027843607/12/20211552    31903336240421964190000N01B1200000220020000000000000                                                                        ROXICAINA 1% C/E Iny x 20 mlFCO     1
CC0000022585503A202100000027843600000027843607/12/20211552    31903336240421964190000N01B0200003888110000000000000                                           ROXICAINA SE 100MG/10ML(1%) SOL INY CAJ X 24AMPACK X 10MLAPC     2
CC0000022585503A202100000027843600000027843607/12/20211552    31903336240421964190000N1AH0200003906560000000000000                                                                     FENTANIL Iny 0.05 mg/ml x 10 mlAMP     1
