TI0001141320302H202100000556659900000556659907/12/20211743    31901153237421964250000E1AB0200000199290000000000000                                                            SOLUCION SALINA 0.9% SLN INY BO X 100 MLBIN     2
TI0001141320302H202100000556659900000556659907/12/20211638    31500052237421964250000E1AD0200003888320000000000000                                                                              HARTMAN SLN INY 500 MLBOL     1
TI0001141320302H202100000556659900000556659907/12/20211353    31500052237421964250000E1AD0300000199490000000000000                                         LACTATO RINGER USP (HARTMANN)  SOL INY  BOL X 1000ML BAXTERBIN     3
TI0001141320302H202100000556659900000556659907/12/20211203     3300009237421964250000S2BA1400000947290000000000000                                                            SOLU MEDROL POLVO SLN INY 500 MG/4 ML/R/VAL     2
TI0001141320302H202100000556659900000556659907/12/20211203     3300009237421964250000L04AA300000460440000000000000                                                                        TIMOGLOBULINA VIAL 25 MG /R/VAL     6
TI0001141320302H202100000556659900000556659907/12/20211455     3300009237421964250000N2BB1100000217160000000000000                                                                      NOVALGINA Sln Iny 2.5 g x 5 mlAMP     1
TI0001141320302H202100000556659900000556659907/12/20210847     3300009237421964250000N2BB1100000217160000000000000                                                                      NOVALGINA Sln Iny 2.5 g x 5 mlAMP     2
