CC0000007479382A202100000027845300000027845307/12/20211509    31903336240421964190000B5AA0100000718790000000000000                                                                         FLEXBUMIN 20% Sln Iny 50 mlBOL     2
CC0000007479382A202100000027845300000027845307/12/20211509    3190333624042196419000035356500003919000000000000000                                                                                        LLAVE 3 VIASSOB     6
CC0000007479382A202100000027845300000027845307/12/20211509    3190333624042196419000024673600000222980000000000000                                                                     JERINGA DESECHABLE 5 ml 27*11/2SIN     3
CC0000007479382A202100000027845300000027845307/12/20211509    3190333624042196419000022425200000548240000000000000                       EXTENSION DE ANESTESIA REF 1139 SOB X 1 SHERLEG  ADULTO BN EXENTO-DC.417/2020SIN     1
CC0000007479382A202100000027845300000027845307/12/20211509    3190333624042196419000000100600000223090000000000000                                                                      AGUJA DESECHABLE 18G X 1 1/2 PSIN     2
CC0000007479382A202100000027845300000027845307/12/20211509    3190333624042196419000001956000001620610000000000000                                                                      CONECTOR MICRO CLAVE LAT-MC100SOB     7
CC0000007479382A202100000027845300000027845307/12/20211509    31903336240421964190000B1AB0100001227270000000000000                                             HEPAMAX 25000UI/5ML(5000UI/ML) SOL INY  CAJ X 25AMPX5MLAMP     1
CC0000007479382A202100000027845300000027845307/12/20211509    31903336240421964190000E1AB0500003888400000000000000                                                              SOLUCION SALINA 0.9% SLN INY X 1000 MLBOL     3
CC0000007479382A202100000027845300000027845307/12/20211509    31903336240421964190000E1AB0200000199290000000000000                                                            SOLUCION SALINA 0.9% SLN INY BO X 100 MLBIN     1
CC0000007479382A202100000027845300000027845307/12/20211509    3190333624042196419000020042600000633850000000000000                                                                                       ASEPTOJERINGASIN     1
CC0000007479382A202100000027845300000027845307/12/20211509    3190333624042196419000024675000001585130000000000000                                                                    JERINGA DESECHABLE 50 ml S/AGUJASOB     2
CC0000007479382A202100000027845300000027845307/12/20211509    3190333624042196419000011085200001585390000000000000                                                                       GUANTE QUIRURGICO TALLA 7 1/2SOB     1
CC0000007479382A202100000027845300000027845307/12/20211509    3190333624042196419000011085100001082120000000000000                                                                           GUANTE QUIRURGICO TALLA 7SOB     1
CC0000007479382A202100000027845300000027845307/12/20211509    3190333624042196419000043485100001618510000000000000                GUANTE QUIRURGICO DE LATEX REF 2D72N65X CAJ X 50 PROTEXIS  6.5 BN EXENTO-DC.417/2020SOB     1
CC0000007479382A202100000027845300000027845307/12/20211509    3190333624042196419000018350800000232800000000000000                                                                                 SEDA 0 S.H 75 K834HSIN     2
CC0000007479382A202100000027845300000027845307/12/20211509    3190333624042196419000043879200001138180000000000000                                                                                   HOJA BISTURI # 11SOB     1
CC0000007479382A202100000027845300000027845307/12/20211509    3190333624042196419000044370800000224140000000000000                                                                                IOBAN 2 90 X 45 6650SIN     1
