RC0001044234520H202100015052808100015052808107/12/20211332    3190114723742196425000038568200000257000000000000000                                                                                   SONDA NELATON #06SIN     1
RC0001240692787H202100015052808100015052808107/12/20211332    3190114723742196425000038568000000531240000000000000                                                                                   SONDA NELATON #04SIN     1
RC0001240692787H202100015052808100015052808107/12/20211332    3190114723742196425000043485100001618510000000000000                GUANTE QUIRURGICO DE LATEX REF 2D72N65X CAJ X 50 PROTEXIS  6.5 BN EXENTO-DC.417/2020SOB     2
RC0001044234520H202100015052808100015052808107/12/20211332    3190114723742196425000043485100001618510000000000000                GUANTE QUIRURGICO DE LATEX REF 2D72N65X CAJ X 50 PROTEXIS  6.5 BN EXENTO-DC.417/2020SOB     1
RC0001240692787H202100015052808100015052808107/12/20211332    3190114723742196425000013077800000471960000000000000                                                             GASA NO TEJIDA EST 7.5 X 7.5 SOB X 3 UNSOB     5
