CC0000007479382H202100000556648100000556648107/12/20211433     330000923742196425000011808300000218190000000000000                                                   DORMICUM IV 50MG/10ML(5MG/ML) SOL INY  CAJ X 5AMPAMP     8
CC0000007479382H202100000556648100000556648107/12/20211432     330000923742196425000011808300000218190000000000000                                                   DORMICUM IV 50MG/10ML(5MG/ML) SOL INY  CAJ X 5AMPAMP    12
CC0000007479382H202100000556648100000556648107/12/20211431     330000923742196425000011808300000218190000000000000                                                   DORMICUM IV 50MG/10ML(5MG/ML) SOL INY  CAJ X 5AMPAMP     4
CC0000007479382H202100000556648100000556648107/12/20210354     330000423742196425000011808300000218190000000000000                                                   DORMICUM IV 50MG/10ML(5MG/ML) SOL INY  CAJ X 5AMPAMP     1
CC0000007479382H202100000556648100000556648107/12/20210334     330000423742196425000011808300000218190000000000000                                                   DORMICUM IV 50MG/10ML(5MG/ML) SOL INY  CAJ X 5AMPAMP     7
CC0000007479382H202100000556648100000556648107/12/20210333     330000423742196425000011808300000218190000000000000                                                   DORMICUM IV 50MG/10ML(5MG/ML) SOL INY  CAJ X 5AMPAMP     1
CC0000007479382H202100000556648100000556648107/12/20210332     330000423742196425000011808300000218190000000000000                                                   DORMICUM IV 50MG/10ML(5MG/ML) SOL INY  CAJ X 5AMPAMP    11
CC0000007479382H202100000556648100000556648107/12/20210357     3300004237421964250000B1AB0100001227270000000000000                                             HEPAMAX 25000UI/5ML(5000UI/ML) SOL INY  CAJ X 25AMPX5MLAMP     1
CC0000007479382H202100000556648100000556648107/12/20210603    31902357237421964250000E1AB1100003888280000000000000                                                                        SOLUCION SALINA 0.9% X 50 mlBOL     6
CC0000007479382H202100000556648100000556648107/12/20211451    31900926237421964250000E1AB0200000199290000000000000                                                            SOLUCION SALINA 0.9% SLN INY BO X 100 MLBIN    12
CC0000007479382H202100000556648100000556648107/12/20211451    31900926237421964250000E1AB0700003888350000000000000                                                            SOLUCION SALINA 0.9% SLN INY BO X 250 MLBOL     1
CC0000007479382H202100000556648100000556648107/12/20210603    31902357237421964250000E1AB0500003888400000000000000                                                              SOLUCION SALINA 0.9% SLN INY X 1000 MLBOL     4
CC0000007479382H202100000556648100000556648107/12/20210603    31902357237421964250000E1AD0300000199490000000000000                                         LACTATO RINGER USP (HARTMANN)  SOL INY  BOL X 1000ML BAXTERBIN     6
CC0000007479382H202100000556648100000556648107/12/20210955     3300009237421964250000A12BA100000552980000000000000                                                            CLORURO POTASIO Sln Iny AMP 20 MEQ/10 MLAMP     3
CC0000007479382H202100000556648100000556648107/12/20210955     3300009237421964250000C7AB1000001382030000000000000                                                                   NOREPINEFRINA SLN INY 4 MG / 4 MLAMP     5
CC0000007479382H202100000556648100000556648107/12/20210356     3300004237421964250000C7AB1000001382030000000000000                                                                   NOREPINEFRINA SLN INY 4 MG / 4 MLAMP     2
CC0000007479382H202100000556648100000556648107/12/20210355     3300004237421964250000C7AB1000001382030000000000000                                                                   NOREPINEFRINA SLN INY 4 MG / 4 MLAMP     2
CC0000007479382H202100000556648100000556648107/12/20211711     3300009237421964250000J1KF0200001677230000000000000                                                                      MERONEM POLVO SLN INY 1 G  /R/VAL     1
CC0000007479382H202100000556648100000556648107/12/20210955     3300009237421964250000J1KF0200001677230000000000000                                                                      MERONEM POLVO SLN INY 1 G  /R/VAL     1
CC0000007479382H202100000556648100000556648107/12/20210355     3300004237421964250000J1KF0200001677230000000000000                                                                      MERONEM POLVO SLN INY 1 G  /R/VAL     1
CC0000007479382H202100000556648100000556648107/12/20210954     3300009237421964250000J01XA400001212420000000000000                                                               VANCOMICINA POLVO LIOF SLN INY 500 MGVAL     4
CC0000007479382H202100000556648100000556648107/12/20211713     3300009237421964250000M3AC0600000720540000000000000                                                                         ESMERON SLN INY 50 MG /5 MLVAL     7
CC0000007479382H202100000556648100000556648107/12/20211712     3300009237421964250000M3AC0600000720540000000000000                                                                         ESMERON SLN INY 50 MG /5 MLVAL    10
CC0000007479382H202100000556648100000556648107/12/20211711     3300009237421964250000M3AC0600000720540000000000000                                                                         ESMERON SLN INY 50 MG /5 MLVAL     3
CC0000007479382H202100000556648100000556648107/12/20210357     3300004237421964250000M3AC0600000720540000000000000                                                                         ESMERON SLN INY 50 MG /5 MLVAL     5
CC0000007479382H202100000556648100000556648107/12/20210356     3300004237421964250000M3AC0600000720540000000000000                                                                         ESMERON SLN INY 50 MG /5 MLVAL     5
CC0000007479382H202100000556648100000556648107/12/20210117     3300004237421964250000M3AC0600000720540000000000000                                                                         ESMERON SLN INY 50 MG /5 MLVAL    15
CC0000007479382H202100000556648100000556648107/12/20210116     3300004237421964250000M3AC0600000720540000000000000                                                                         ESMERON SLN INY 50 MG /5 MLVAL     5
CC0000007479382H202100000556648100000556648107/12/20210955     3300009237421964250000V6DF5300000302770000000000000                                                                        ENSURE PLUS HN LCP X 1000 MLFCO     1
CC0000007479382H202100000556648100000556648107/12/20210355     3300004237421964250000V6DF5300000302770000000000000                                                                        ENSURE PLUS HN LCP X 1000 MLFCO     1
CC0000007479382H202100000556648100000556648107/12/20211430     3300009237421964250000N1AH0200003906560000000000000                                                                     FENTANIL Iny 0.05 mg/ml x 10 mlAMP    10
CC0000007479382H202100000556648100000556648107/12/20210355     3300004237421964250000N1AH0200003906560000000000000                                                                     FENTANIL Iny 0.05 mg/ml x 10 mlAMP    20
CC0000007479382H202100000556648100000556648107/12/20211451    31900926237421964250000V07A1300000502600000000000000                                                                                AGUA ESTERIL x 10 mlAMP    10
