RC0001067627485A202100000027842300000027842307/12/20211808    31903336240421964190000N02B1100001464120000000000000                                           PARACETAMOL EP 1000MG/100ML(10MG/ML) SOL INY  CAJ X 10FCOVAL     1
RC0001067627485A202100000027842300000027842307/12/20211808    3190333624042196419000048657700000223550000000000000                                                                  CAMPO QUIRUR STERI  DRAPE REF 1015SIN     1
RC0001067627485A202100000027842300000027842307/12/20211808    3190333624042196419000000601800000258500000000000000                                                            APOSITO OPSITE POST - OP0712  15CM X 8CMSIN     1
RC0001067627485A202100000027842300000027842307/12/20211808    3190333624042196419000042473100003929820000000000000                                                STOQUINETA ORTOPEDICA TUBULAR ROL X 25MT WINER 5PULGCMT     1
RC0001067627485A202100000027842300000027842307/12/20211808    3190333624042196419000049428300000860750000000000000                                                                       VENDA ELASTICA 4*5 NO ESTERILBOL     2
RC0001067627485A202100000027842300000027842307/12/20211808    3190333624042196419000049419700001679920000000000000                                                                        VENDA ALGODON 5*5 NO ESTERILSOB     2
RC0001067627485A202100000027842300000027842307/12/20211808    3190333624042196419000051515400000598150000000000000                                                                            MASCARILLA ANESTESIA # 4SIN     1
RC0001067627485A202100000027842300000027842307/12/20211808    31903336240421964190000Q1AA7200000610630000000000000                                                            CATETER PERIFE INTROCAN # 20G 4251644-04SIN     1
RC0001067627485A202100000027842300000027842307/12/20211808    31903336240421964190000N01B0600003888900000000000000                                                    BUPINEST 75MG/10ML(0.75%) SOL INY CAJ X 24AMPACKAPC     2
RC0001067627485A202100000027842300000027842307/12/20211808    3190333624042196419000022425200000548240000000000000                       EXTENSION DE ANESTESIA REF 1139 SOB X 1 SHERLEG  ADULTO BN EXENTO-DC.417/2020SIN     1
RC0001067627485A202100000027842300000027842307/12/20211808    3190333624042196419000035356500003919000000000000000                                                                                        LLAVE 3 VIASSOB     1
RC0001067627485A202100000027842300000027842307/12/20211808    31903336240421964190000Q1AA7300000610640000000000000                                                            CATETER PERIFE INTROCAN # 22G 4251628-04SIN     2
RC0001067627485A202100000027842300000027842307/12/20211808    3190333624042196419000022425100001392880000000000000             EQUIPO MICROGOTEO SIN AGUJA REF 201000 PAQ X 100 SOB GOTHAPLAST   BN EXENTO-DC.417/2020BOL     1
RC0001067627485A202100000027842300000027842307/12/20211808    3190333624042196419000000602600001259280000000000000                                                             APOSITO TEGADERM IV PD 1610 5CM X 5.7CMSOB     1
RC0001067627485A202100000027842300000027842307/12/20211808    31903336240421964190000J01DA300001239950000000000000                                                            CEFAZOLINA SODICA POLVO LIOF SLN INY 1 GVAL     1
RC0001067627485A202100000027842300000027842307/12/20211808    3190333624042196419000011073300001096420000000000000                                                                BOLSA DE SUCCION DE FLUIDOS x 2500mLBOL     1
RC0001067627485A202100000027842300000027842307/12/20211808    3190333624042196419000020750800000295830000000000000                                                                       PLACA RETORNO PEDIAT E7510-25SIN     1
RC0001067627485A202100000027842300000027842307/12/20211808    3190333624042196419000024673600000222980000000000000                                                                     JERINGA DESECHABLE 5 ml 27*11/2SIN     2
RC0001067627485A202100000027842300000027842307/12/20211808    3190333624042196419000024674000001138340000000000000   JERINGA 3PARTES C/A 10ML REF JEHL005 CAJ X 100 ALFASAFE  21GX1 PULG 1/2 PULG BN EXENTO-DC.417/202PZA     4
RC0001067627485A202100000027842300000027842307/12/20211808    3190333624042196419000024674500000322810000000000000                                                                   JERINGA DESECHABLE 20 ml 21*1 1/2SIN     2
RC0001067627485A202100000027842300000027842307/12/20211808    3190333624042196419000053074400000607910000000000000                                                               GASA ESTERIL 10*10 SOBRE X 3 UNIDADESSOB     2
RC0001067627485A202100000027842300000027842307/12/20211808    3190333624042196419000011085300001082140000000000000                                                                           GUANTE QUIRURGICO TALLA 8SOB     3
RC0001067627485A202100000027842300000027842307/12/20211808    3190333624042196419000011085200001585390000000000000                                                                       GUANTE QUIRURGICO TALLA 7 1/2SOB     2
RC0001067627485A202100000027842300000027842307/12/20211808    3190333624042196419000011085100001082120000000000000                                                                           GUANTE QUIRURGICO TALLA 7SOB     3
RC0001067627485A202100000027842300000027842307/12/20211808    3190333624042196419000043485100001618510000000000000                GUANTE QUIRURGICO DE LATEX REF 2D72N65X CAJ X 50 PROTEXIS  6.5 BN EXENTO-DC.417/2020SOB     3
RC0001067627485A202100000027842300000027842307/12/20211808    3190333624042196419000039174600001072010000000000000                                                                           TUBO ENDOTRAQUEAL C/B 5.0SOB     1
RC0001067627485A202100000027842300000027842307/12/20211808    3190333624042196419000031011400000762720000000000000                                                                           CANULA GUEDEL # 3 (90 MM)SOB     1
RC0001067627485A202100000027842300000027842307/12/20211808    3190333624042196419000011099300000777780000000000000                                                                     FILTRO BACTERIANO VIRICO ADULTOBOL     1
RC0001067627485A202100000027842300000027842307/12/20211808    31903336240421964190000E1AB0300003888390000000000000                                                            SOLUCION SALINA 0.9% SLN INY BO X 500 MLBOL     1
RC0001067627485A202100000027842300000027842307/12/20211808    31903336240421964190000E1AB0700003888350000000000000                                                            SOLUCION SALINA 0.9% SLN INY BO X 250 MLBOL     2
RC0001067627485A202100000027842300000027842307/12/20211808    31903336240421964190000E1AB0200000199290000000000000                                                            SOLUCION SALINA 0.9% SLN INY BO X 100 MLBIN     1
RC0001067627485A202100000027842300000027842307/12/20211808    31903336240421964190000N1BA0300000217900000000000000                                                                    BUPIROP 0.5% C/E Sln Iny x 20 mlVAL     1
RC0001067627485A202100000027842300000027842307/12/20211808    31903336240421964190000N1BA2400001687720000000000000                                                    LIDOCAINA 2% SOL INY  CAJ X 50AMP X 10ML CORPAULAMP     1
RC0001067627485A202100000027842300000027842307/12/20211808    31903336240421964190000N01A0400003939010000000000000                                               MAYOPROFOL 200MG/20ML(1%) EMUL INY CAJ X 1VIAL X 20MLVAL     1
RC0001067627485A202100000027842300000027842307/12/20211808    31903336240421964190000N2AA0700001587170000000000000                                                                                 ULTIVA Sln Iny 2 mgVAL     1
RC0001067627485A202100000027842300000027842307/12/20211808    31903336240421964190000N2AA0400003888080000000000000                                                                     DEMEROL HCL Sln Iny 100 mg/2 mlAMP     1
