RC0001048082284U202100050131959300050131959307/12/20212312    3190100323942196432000049428200000860740000000000000                                                                       VENDA ELASTICA 3*5 NO ESTERILBOL     1
RC0001048082284U202100050131959300050131959307/12/20212312    3190100323942196432000024674000001138340000000000000   JERINGA 3PARTES C/A 10ML REF JEHL005 CAJ X 100 ALFASAFE  21GX1 PULG 1/2 PULG BN EXENTO-DC.417/202PZA     1
CC0000010494956U202100050131959300050131959307/12/20212312    3190100323942196432000024674000001138340000000000000   JERINGA 3PARTES C/A 10ML REF JEHL005 CAJ X 100 ALFASAFE  21GX1 PULG 1/2 PULG BN EXENTO-DC.417/202PZA     3
CC0000010494956U202100050131959300050131959307/12/20212312    3190100323942196432000011082700001620070000000000000                                                               EQUIPO SET PRIMARIO C/CLAVE REF 14001BOL     1
CC0000010494956U202100050131959300050131959307/12/20212312    31901003239421964320000Q1AA7300000610640000000000000                                                            CATETER PERIFE INTROCAN # 22G 4251628-04SIN     1
CC0000010494956U202100050131959300050131959307/12/20212312    3190100323942196432000030936900001431840000000000000                                                                                              BURETABOL     1
CC0000010494956U202100050131959300050131959307/12/20212312    3190100323942196432000016830000000970620000000000000                                                             SIST FIJACION CAT PERIFERICO 6.5X7 1683SOB     1
CC0000010494956U202100050131959300050131959307/12/20212312    31901003239421964320000E1AB0500003888400000000000000                                                              SOLUCION SALINA 0.9% SLN INY X 1000 MLBOL     1
