RC0001046737382U202100000556679200000556679207/12/20211922     3300004239421964320000N2BE1100000836430000000000000                                             ACETAMINOFEN 150MG/5ML(3%) JBE INST FCO X 60ML AMER GENCAJ     1
RC0001046737382U202100000556679200000556679207/12/20211927     3300004239421964320000R03AC200003848990000000000000                                                              SALBUTAMOL INH 100 MCG/DO FCO X 200 DOFCO     1
RC0001046737382U202100000556679200000556679207/12/20211927     3300004239421964320000R03BB300001364640000000000000                                                            BROMURO IPRATROPIO INH ORAL 20 MCG/DO /RFCO     1
