RC0001043197437U202100000556678200000556678207/12/20211857    31500547239421964320000E1AD0200003888320000000000000                                                                              HARTMAN SLN INY 500 MLBOL     1
RC0001043197437U202100000556678200000556678207/12/20211756     3300004239421964320000A03F0500001692520000000000000                                                                   ALIZAPRIDA HCL SLN INY 50 MG/2 MLAMP     1
RC0001043197437U202100000556678200000556678207/12/20211756     3300004239421964320000N2BB0100001672010000000000000                                  DIPIRONA 1GR/2ML(0.5GR/ML) SOL INY INST CAJ X 100AMP X 2ML VITALISAMP     1
