CC0001140904273H202100015032652400015032652407/12/20211706    3150020623742196425000022426800001140510000000000000                                                                    EQUIPO MACROGOTEO BAXTER MRC0001SOB     1
CC0000008312237H202100015032652400015032652407/12/20211706    3150020623742196425000022426800001140510000000000000                                                                    EQUIPO MACROGOTEO BAXTER MRC0001SOB     1
CC0001140904273H202100015032652400015032652407/12/20211706    3150020623742196425000030936900001431840000000000000                                                                                              BURETABOL     1
CC0000008312237H202100015032652400015032652407/12/20211706    3150020623742196425000030936900001431840000000000000                                                                                              BURETABOL     1
