RC0001146543342H202100000556649800000556649807/12/20211645     3300009237421964250000A04A1300001335720000000000000                                                                                      ONDAX TAB 4 MGTAB     4
RC0001146543342H202100000556649800000556649807/12/20211945    31500213237421964250000E1AC0100000199400000000000000                                                                          SUERO MIXTO Sln Iny 500 mlBIN     2
RC0001146543342H202100000556649800000556649807/12/20210149    31500082237421964250000E1AC0100000199400000000000000                                                                          SUERO MIXTO Sln Iny 500 mlBIN     2
RC0001146543342H202100000556649800000556649807/12/20211039    31902056237421964250000E1AB0200000199290000000000000                                                            SOLUCION SALINA 0.9% SLN INY BO X 100 MLBIN     1
RC0001146543342H202100000556649800000556649807/12/20210913     3300009237421964250000L1BC8300001443700000000000000                                                                   CITARABINA SLN INY 100 MG/ ML /R/VAL     1
RC0001146543342H202100000556649800000556649807/12/20211230     3300009237421964250000A03BB100003889180000000000000                                      HIOSCINA BUTIL BROMURO 20MG/ML SOL INY CAJ X 100AMP X 1ML RYANAMP     2
RC0001146543342H202100000556649800000556649807/12/20211230     3300009237421964250000A02BC700001684270000000000000                                                            OMEPRAZOL 40MG POLVO LIOFILIZADO AMPOLLAVAL     1
