RC0001048082284U202100050131958400050131958407/12/20212154    3190100323942196432000012474300000371100000000000000                                                                SUTURA ETHILON 5-0 SC-20 45CM 14501TSIN     1
RC0001048082284U202100050131958400050131958407/12/20212154    3190100323942196432000011048600000223020000000000000                                                                 JERINGA VACUNACION 3ML C/AGU 302542SIN     1
RC0001048082284U202100050131958400050131958407/12/20212154    3190100323942196432000011047900000223010000000000000                                                                            JERINGA X 1ML REF 302579SIN     1
RC0001048082284U202100050131958400050131958407/12/20212154    3190100323942196432000011085200001585390000000000000                                                                       GUANTE QUIRURGICO TALLA 7 1/2SOB     2
RC0001048082284U202100050131958400050131958407/12/20212154    3190100323942196432000053074400000607910000000000000                                                               GASA ESTERIL 10*10 SOBRE X 3 UNIDADESSOB     2
RC0001048082284U202100050131958400050131958407/12/20212154    31901003239421964320000E1AB0200000199290000000000000                                                            SOLUCION SALINA 0.9% SLN INY BO X 100 MLBIN     1
