CC0000007452994U202100050131948000050131948007/12/20210008    3150040623942196432000036441300000236540000000000000                                                                    JERINGA 1 ML GASES ARTERIAL 9023SIN     1
CC0000007544660U202100050131948000050131948007/12/20210008    3150040623942196432000036441300000236540000000000000                                                                    JERINGA 1 ML GASES ARTERIAL 9023SIN     1
CC0001093739216U202100050131948000050131948007/12/20210008    3150040623942196432000036441300000236540000000000000                                                                    JERINGA 1 ML GASES ARTERIAL 9023SIN     1
