CC0000041482521H202100000556677200000556677207/12/20211657     3300009237421964250000A2BC0900000200150000000000000                                                                               ORAZOLE Sln Iny 40 mgCIN     2
CC0000041482521H202100000556677200000556677207/12/20211842     3300009237421964250000A4AD0200000202990000000000000                                                                     PLITICAN HCL Sln Iny 50 mg/2 mlAMP     3
CC0000041482521H202100000556677200000556677207/12/20211657     3300009237421964250000B1AB0200003939510000000000000                 ENOXAPARINA SODICA 40MG/0.4ML(100MG/ML) SOL INY INST CAJ X 2JERPREL X 0.4ML TECHDOWJRP     2
CC0000041482521H202100000556677200000556677207/12/20211846    31901153237421964250000E1AB0700003888350000000000000                                                            SOLUCION SALINA 0.9% SLN INY BO X 250 MLBOL     1
CC0000041482521H202100000556677200000556677207/12/20211844    31500052237421964250000E1AB0300003888390000000000000                                                            SOLUCION SALINA 0.9% SLN INY BO X 500 MLBOL     2
CC0000041482521H202100000556677200000556677207/12/20211657     3300009237421964250000J01DA300001239950000000000000                                                            CEFAZOLINA SODICA POLVO LIOF SLN INY 1 GVAL     5
CC0000041482521H202100000556677200000556677207/12/20211657     3300009237421964250000N2AX0400001204140000000000000                                                                             TRAMAL Sln Iny 50 mg/mlAMP     3
CC0000041482521H202100000556677200000556677207/12/20212118     3300009237421964250000N02B1100001464120000000000000                                           PARACETAMOL EP 1000MG/100ML(10MG/ML) SOL INY  CAJ X 10FCOVAL     2
CC0000041482521H202100000556677200000556677207/12/20211658     3300009237421964250000N02B1100001464120000000000000                                           PARACETAMOL EP 1000MG/100ML(10MG/ML) SOL INY  CAJ X 10FCOVAL     1
CC0000041482521H202100000556677200000556677207/12/20211842     3300009237421964250000N07CA400001335820000000000000                                                                                   PASEDOL TAB 50 MGTAB     2
CC0000041482521H202100000556677200000556677207/12/20211842     3300009237421964250000V3AB1300000554460000000000000                                                                      NALOXONA HCL SLN INY 0.4 MG/MLAMP     1
CC0000041482521H202100000556677200000556677207/12/20211841     3300009237421964250000V3AB1300000554460000000000000                                                                      NALOXONA HCL SLN INY 0.4 MG/MLAMP     1
CC0000041482521H202100000556677200000556677207/12/20211700    31903310237421964250000V07A1300000502600000000000000                                                                                AGUA ESTERIL x 10 mlAMP     5
