CC0000057299651H202100000556669000000556669007/12/20211238    31500478237421964250000A2BC0900000200150000000000000                                                                               ORAZOLE Sln Iny 40 mgCIN     2
CC0000057299651H202100000556669000000556669007/12/20211334    31500206237421964250000J1CB0600000468340000000000000                                                           UNASYN IM-IV (1+0.5)GR POLV INY INST VIALVAL     6
CC0000057299651H202100000556669000000556669007/12/20211238    31500478237421964250000M1AB0900001019600000000000000                                                                              VOLTAREN Sln Iny 75 mgAMP     2
CC0000057299651H202100000556669000000556669007/12/20211238    31500478237421964250000N2BB0500000217140000000000000                                                                          NOVALGINA Sln Iny 1 g/2 mlAMP     4
CC0000057299651H202100000556669000000556669007/12/20211238    31500478237421964250000N02B1100001464120000000000000                                           PARACETAMOL EP 1000MG/100ML(10MG/ML) SOL INY  CAJ X 10FCOVAL     2
