CC0000022352292H202100000556650600000556650607/12/20210219     3300004237421964250000A03F0300001626860000000000000                                                                   METOCLOPRAMIDA SLN INY 10 MG/2 MLAMP     4
CC0000022352292H202100000556650600000556650607/12/20211752     3300009237421964250000V3AB2200000614150000000000000                                                            GLUCONATO CALCIO SLN INY 10% AMP X 10 MLAPC     1
CC0000022352292H202100000556650600000556650607/12/20210218     3300004237421964250000V3AB2200000614150000000000000                                                            GLUCONATO CALCIO SLN INY 10% AMP X 10 MLAPC     4
CC0000022352292H202100000556650600000556650607/12/20211753     3300009237421964250000B1AB1000000729110000000000000                                                                  FRAXIPARINA SLN INY 5700 UI/0.6 MLJRP     1
CC0000022352292H202100000556650600000556650607/12/20211752     3300009237421964250000B1AB1000000729110000000000000                                                                  FRAXIPARINA SLN INY 5700 UI/0.6 MLJRP     1
CC0000022352292H202100000556650600000556650607/12/20210219     3300004237421964250000B01A1000000860460000000000000                                                               FRAGMIN SLN INY 10.000 UI /0.4 ML /R/JRP     2
CC0000022352292H202100000556650600000556650607/12/20211702    31500305237421964250000E1AB0200000199290000000000000                                                            SOLUCION SALINA 0.9% SLN INY BO X 100 MLBIN     6
CC0000022352292H202100000556650600000556650607/12/20211702    31500305237421964250000E1AB0700003888350000000000000                                                            SOLUCION SALINA 0.9% SLN INY BO X 250 MLBOL     1
CC0000022352292H202100000556650600000556650607/12/20210610    31500501237421964250000E1AB0300003888390000000000000                                                            SOLUCION SALINA 0.9% SLN INY BO X 500 MLBOL     1
CC0000022352292H202100000556650600000556650607/12/20211702    31500305237421964250000E1AB0500003888400000000000000                                                              SOLUCION SALINA 0.9% SLN INY X 1000 MLBOL     3
CC0000022352292H202100000556650600000556650607/12/20212256     3300009237421964250000A12BA100000552980000000000000                                                            CLORURO POTASIO Sln Iny AMP 20 MEQ/10 MLAMP     1
CC0000022352292H202100000556650600000556650607/12/20211753     3300009237421964250000A12BA100000552980000000000000                                                            CLORURO POTASIO Sln Iny AMP 20 MEQ/10 MLAMP     3
CC0000022352292H202100000556650600000556650607/12/20210220     3300004237421964250000A12BA100000552980000000000000                                                            CLORURO POTASIO Sln Iny AMP 20 MEQ/10 MLAMP     5
CC0000022352292H202100000556650600000556650607/12/20210219     3300004237421964250000A12BA100000552980000000000000                                                            CLORURO POTASIO Sln Iny AMP 20 MEQ/10 MLAMP     5
CC0000022352292H202100000556650600000556650607/12/20210218     3300004237421964250000C09CA400001277130000000000000                                                                                  LOSARTAN TAB 50 MGTAB     5
CC0000022352292H202100000556650600000556650607/12/20211752     3300009237421964250000J01XA400001212420000000000000                                                               VANCOMICINA POLVO LIOF SLN INY 500 MGVAL     2
CC0000022352292H202100000556650600000556650607/12/20210218     3300004237421964250000J01XA400001212420000000000000                                                               VANCOMICINA POLVO LIOF SLN INY 500 MGVAL     3
CC0000022352292H202100000556650600000556650607/12/20210219     3300004237421964250000N02B1100001464120000000000000                                           PARACETAMOL EP 1000MG/100ML(10MG/ML) SOL INY  CAJ X 10FCOVAL     6
CC0000022352292H202100000556650600000556650607/12/20211753     3300009237421964250000A12CC100001690470000000000000                                                                  MAGNESIO SULFATO 20% SLN INY 10 MLAMP     1
CC0000022352292H202100000556650600000556650607/12/20210218     3300004237421964250000B01AC200001333600000000000000                                                                               CLOPIDOGREL TAB 75 MGTAB     2
CC0000022352292H202100000556650600000556650607/12/20210219     3300004237421964250000C7AB0100001276990000000000000                                                                            BETOPROLOL TAB 50 MG /R/TAB     5
CC0000022352292H202100000556650600000556650607/12/20212256     3300009237421964250000C08CA300001313930000000000000                                                                                AMLODIPINO TAB 10 MGTAB     1
CC0000022352292H202100000556650600000556650607/12/20210218     3300004237421964250000C08CA200001277660000000000000                                                                                 AMLODIPINO TAB 5 MGTAB     2
CC0000022352292H202100000556650600000556650607/12/20210218     3300004237421964250000H03AA200001391520000000000000                                                                            LEVOTIROXINA TAB 100 MCGTAB     2
CC0000022352292H202100000556650600000556650607/12/20210218     3300004237421964250000H03AA100001391540000000000000                                                                             LEVOTIROXINA TAB 50 MCGTAB     2
CC0000022352292H202100000556650600000556650607/12/20210218     3300004237421964250000N02BA100001276940000000000000                                                                  ACIDO ACETIL SALIC?LICO TAB 100 MGTAB     2
CC0000022352292H202100000556650600000556650607/12/20210219     3300004237421964250000A02BC700001684270000000000000                                                            OMEPRAZOL 40MG POLVO LIOFILIZADO AMPOLLAVAL     2
