CC0001045685077H202100000556652500000556652507/12/20211303     3300009237421964250000A2BC0900000200150000000000000                                                                               ORAZOLE Sln Iny 40 mgCIN     1
CC0001045685077H202100000556652500000556652507/12/20211303     3300009237421964250000V7AA5200000215370000000000000                                                                          EPOYET SLN INY 2000 UI /R/VAL     1
CC0001045685077H202100000556652500000556652507/12/20211830     3300009237421964250000A11AA300001332860000000000000                                                                    ANEMIDOX Cap 330 MG /1 mg/100 MGCAP     2
CC0001045685077H202100000556652500000556652507/12/20211039    31902787237421964250000E1AB0300003888390000000000000                                                            SOLUCION SALINA 0.9% SLN INY BO X 500 MLBOL     1
CC0001045685077H202100000556652500000556652507/12/20210629    31902064237421964250000E1AB0300003888390000000000000                                                            SOLUCION SALINA 0.9% SLN INY BO X 500 MLBOL     2
CC0001045685077H202100000556652500000556652507/12/20211830     3300009237421964250000J01D1300001469600000000000000                                                                               POZINEG POLVO INY 1 GVAL     2
CC0001045685077H202100000556652500000556652507/12/20211829     3300009237421964250000J01D1300001469600000000000000                                                                               POZINEG POLVO INY 1 GVAL     2
CC0001045685077H202100000556652500000556652507/12/20210258     3300004237421964250000J01D1300001469600000000000000                                                                               POZINEG POLVO INY 1 GVAL     2
CC0001045685077H202100000556652500000556652507/12/20211830     3300009237421964250000J01FF200003888100000000000000                                                                             EUROCLIN SLN INY 600 MGAMP     4
CC0001045685077H202100000556652500000556652507/12/20212134     3300009237421964250000N2BB1100000217160000000000000                                                                      NOVALGINA Sln Iny 2.5 g x 5 mlAMP     1
CC0001045685077H202100000556652500000556652507/12/20211303     3300009237421964250000N2BB1100000217160000000000000                                                                      NOVALGINA Sln Iny 2.5 g x 5 mlAMP     1
CC0001045685077H202100000556652500000556652507/12/20210258     3300004237421964250000N2BB1100000217160000000000000                                                                      NOVALGINA Sln Iny 2.5 g x 5 mlAMP     2
CC0001045685077H202100000556652500000556652507/12/20211303     3300009237421964250000N02B1100001464120000000000000                                           PARACETAMOL EP 1000MG/100ML(10MG/ML) SOL INY  CAJ X 10FCOVAL     1
CC0001045685077H202100000556652500000556652507/12/20210258     3300004237421964250000N02B1100001464120000000000000                                           PARACETAMOL EP 1000MG/100ML(10MG/ML) SOL INY  CAJ X 10FCOVAL     2
