CC0001051681679H202100015052807600015052807607/12/20211041    3190102023742196425000022426800001140510000000000000                                                                    EQUIPO MACROGOTEO BAXTER MRC0001SOB     1
CC0001051681679H202100015052807600015052807607/12/20211041    3190102023742196425000011082700001620070000000000000                                                               EQUIPO SET PRIMARIO C/CLAVE REF 14001BOL     1
CC0001051681679H202100015052807600015052807607/12/20211041    31901020237421964250000E1AD0200003888320000000000000                                                                              HARTMAN SLN INY 500 MLBOL     3
