CC0000000813331H202100000556663600000556663607/12/20211009    31903310237421964250000A02B0500001335110000000000000                                                                                LOSEC MUPS Tab 20 mgTAB     1
CC0000000813331H202100000556663600000556663607/12/20211009    31903310237421964250000A6AB0200001278260000000000000                                                                                  DULCOLAX Grag 5 mgGRA     1
CC0000000813331H202100000556663600000556663607/12/20211009    31903310237421964250000A11C0600001389430000000000000                                                                             CALCITRIOL CAP 0.25 MCGCAP     1
CC0000000813331H202100000556663600000556663607/12/20211009    31903310237421964250000A11CC100001453150000000000000                                                                             DEFEROL CAPSULA 2000 UICAP     2
CC0000000813331H202100000556663600000556663607/12/20211009    31903310237421964250000N02B0300001277700000000000000                                                                           CARDIOASPIRINA TAB 100 MGTAB     1
CC0000000813331H202100000556663600000556663607/12/20211009    31903310237421964250000B01A0600000216800000000000000                                                                   ARIXTRA SLN INY 2.5 MG/0.5 ML /R/SIN     1
CC0000000813331H202100000556663600000556663607/12/20211009    31903310237421964250000C7FA0100001277270000000000000                                                                                     NORVAS TAB 5 MGTAB     1
CC0000000813331H202100000556663600000556663607/12/20211009    31903310237421964250000H03A0400001278890000000000000                                                                                  EUTIROX TAB 50 MCGTAB     1
CC0000000813331H202100000556663600000556663607/12/20211009    31903310237421964250000J1CB1800001134180000000000000                                                                             TAZOCIN Polvo Iny 4.5 gVAL     2
CC0000000813331H202100000556663600000556663607/12/20211009    31903310237421964250000N02B1100001464120000000000000                                           PARACETAMOL EP 1000MG/100ML(10MG/ML) SOL INY  CAJ X 10FCOVAL     2
CC0000000813331H202100000556663600000556663607/12/20211009    31903310237421964250000N05C0800001314910000000000000                                                                                ISOKLON TAB 3 MG /R/TAB     1
