CC0001082470270U202100050131951800050131951807/12/20211106    3150025823942196432000017566200001585160000000000000                                                                  PROLENE 4-0 AZ 45 PS2 PRIME P8682TSOB     1
CC0001082470270U202100050131951800050131951807/12/20211106    3150025823942196432000011048600000223020000000000000                                                                 JERINGA VACUNACION 3ML C/AGU 302542SIN     2
CC0001082470270U202100050131951800050131951807/12/20211106    3150025823942196432000011089300001083990000000000000                                                              GUANTE ESTERIL LATEX S/POLVO TALLA 7.5SOB     2
CC0001082470270U202100050131951800050131951807/12/20211106    3150025823942196432000013077800000471960000000000000                                                             GASA NO TEJIDA EST 7.5 X 7.5 SOB X 3 UNSOB     5
CC0001002230245U202100050131951800050131951807/12/20211106    3150025823942196432000001956000001620610000000000000                                                                      CONECTOR MICRO CLAVE LAT-MC100SOB     1
CC0001082470270U202100050131951800050131951807/12/20211106    31500258239421964320000E1AB0200000199290000000000000                                                            SOLUCION SALINA 0.9% SLN INY BO X 100 MLBIN     1
