TI0001103512693A202100000027844400000027844407/12/20211520    3190333624042196419000062750400001405960000000000000                                                            APOSI VAC GRANUFOAM SILVER S M8275098/10BOL     1
TI0001103512693A202100000027844400000027844407/12/20211520    3190333624042196419000021017400000227520000000000000                                                            KIT CAT BILUMEN PED CS14402E  4FR X 13CMSIN     1
TI0001103512693A202100000027844400000027844407/12/20211520    3190333624042196419000062750100001405910000000000000                                                                 INFOVAC CANISTER 1000 ML M8275093/5SOB     1
TI0001103512693A202100000027844400000027844407/12/20211520    3190333624042196419000019488700000753270000000000000                                                                              VICRYL 3-0 SH1 VCP311HSOB     1
TI0001103512693A202100000027844400000027844407/12/20211520    3190333624042196419000045138000001413890000000000000                                                                       LAPIZ ELECTROBISTURI  SOB X 1SOB     1
TI0001103512693A202100000027844400000027844407/12/20211520    3190333624042196419000030161400001459220000000000000                                                                       MANGUERA SUCCION 6 MM*3.1 MTSSOB     1
TI0001103512693A202100000027844400000027844407/12/20211520    3190333624042196419000043879100001138200000000000000                                                                  HOJA BISTURI # 15 CSSB 15 01002003SOB     1
TI0001103512693A202100000027844400000027844407/12/20211520    3190333624042196419000016830000000970620000000000000                                                             SIST FIJACION CAT PERIFERICO 6.5X7 1683SOB     1
TI0001103512693A202100000027844400000027844407/12/20211520    3190333624042196419000018354100000232880000000000000                                                                  SUTURA SEDA NEGRA 3-0 KS 75CM 622HSIN     1
TI0001103512693A202100000027844400000027844407/12/20211520    3190333624042196419000043879200001138180000000000000                                                                                   HOJA BISTURI # 11SOB     1
TI0001103512693A202100000027844400000027844407/12/20211520    3190333624042196419000022425200000548240000000000000                       EXTENSION DE ANESTESIA REF 1139 SOB X 1 SHERLEG  ADULTO BN EXENTO-DC.417/2020SIN     1
TI0001103512693A202100000027844400000027844407/12/20211520    3190333624042196419000022425100001392880000000000000             EQUIPO MICROGOTEO SIN AGUJA REF 201000 PAQ X 100 SOB GOTHAPLAST   BN EXENTO-DC.417/2020BOL     1
TI0001103512693A202100000027844400000027844407/12/20211520    3190333624042196419000035356500003919000000000000000                                                                                        LLAVE 3 VIASSOB     1
TI0001103512693A202100000027844400000027844407/12/20211520    3190333624042196419000011073300001096420000000000000                                                                BOLSA DE SUCCION DE FLUIDOS x 2500mLBOL     1
TI0001103512693A202100000027844400000027844407/12/20211520    3190333624042196419000020750800000295830000000000000                                                                       PLACA RETORNO PEDIAT E7510-25SIN     1
TI0001103512693A202100000027844400000027844407/12/20211520    3190333624042196419000053074400000607910000000000000                                                               GASA ESTERIL 10*10 SOBRE X 3 UNIDADESSOB     3
TI0001103512693A202100000027844400000027844407/12/20211520    3190333624042196419000011085200001585390000000000000                                                                       GUANTE QUIRURGICO TALLA 7 1/2SOB     3
TI0001103512693A202100000027844400000027844407/12/20211520    3190333624042196419000011085300001082140000000000000                                                                           GUANTE QUIRURGICO TALLA 8SOB     1
TI0001103512693A202100000027844400000027844407/12/20211520    3190333624042196419000011085100001082120000000000000                                                                           GUANTE QUIRURGICO TALLA 7SOB     2
TI0001103512693A202100000027844400000027844407/12/20211520    3190333624042196419000043485100001618510000000000000                GUANTE QUIRURGICO DE LATEX REF 2D72N65X CAJ X 50 PROTEXIS  6.5 BN EXENTO-DC.417/2020SOB     3
TI0001103512693A202100000027844400000027844407/12/20211520    3190333624042196419000051515300000598140000000000000                                                                            MASCARILLA ANESTESIA # 3SIN     1
TI0001103512693A202100000027844400000027844407/12/20211520    3190333624042196419000051515200000598130000000000000                                                                            MASCARILLA ANESTESIA # 2SIN     1
TI0001103512693A202100000027844400000027844407/12/20211520    31903336240421964190000Q1A11800000258040000000000000                                                                         CANULA OXIGENO NASAL PEDIATSIN     1
TI0001103512693A202100000027844400000027844407/12/20211520    3190333624042196419000031011400000762720000000000000                                                                           CANULA GUEDEL # 3 (90 MM)SOB     1
TI0001103512693A202100000027844400000027844407/12/20211520    3190333624042196419000031011300000762710000000000000                                                                            CANULA GUEDEL #2 (80 MM)SOB     1
TI0001103512693A202100000027844400000027844407/12/20211520    3190333624042196419000024673000001411210000000000000                                                                  JERINGA DESECHABLE 3 ML 21 X 1 1/2SOB     1
TI0001103512693A202100000027844400000027844407/12/20211520    3190333624042196419000024674000001138340000000000000   JERINGA 3PARTES C/A 10ML REF JEHL005 CAJ X 100 ALFASAFE  21GX1 PULG 1/2 PULG BN EXENTO-DC.417/202PZA     2
TI0001103512693A202100000027844400000027844407/12/20211520    3190333624042196419000024674500000322810000000000000                                                                   JERINGA DESECHABLE 20 ml 21*1 1/2SIN     1
TI0001103512693A202100000027844400000027844407/12/20211520    31903336240421964190000E1AB0300003888390000000000000                                                            SOLUCION SALINA 0.9% SLN INY BO X 500 MLBOL     1
TI0001103512693A202100000027844400000027844407/12/20211520    31903336240421964190000E1AB0700003888350000000000000                                                            SOLUCION SALINA 0.9% SLN INY BO X 250 MLBOL     3
TI0001103512693A202100000027844400000027844407/12/20211520    31903336240421964190000E1AB0200000199290000000000000                                                            SOLUCION SALINA 0.9% SLN INY BO X 100 MLBIN     1
