RC0001187466818A202100000027844600000027844607/12/20211813    3190333624042196419000043879200001138180000000000000                                                                                   HOJA BISTURI # 11SOB     1
RC0001187466818A202100000027844600000027844607/12/20211813    3190333624042196419000000602600001259280000000000000                                                             APOSITO TEGADERM IV PD 1610 5CM X 5.7CMSOB     1
RC0001187466818A202100000027844600000027844607/12/20211813    3190333624042196419000018354100000232880000000000000                                                                  SUTURA SEDA NEGRA 3-0 KS 75CM 622HSIN     1
RC0001187466818A202100000027844600000027844607/12/20211813    3190333624042196419000011006500000227530000000000000                                                             CATETER BILUMEN 4F*8CM PEDIA 01CS15402ESIN     1
RC0001187466818A202100000027844600000027844607/12/20211813    3190333624042196419000038576500000256730000000000000                                                                        SONDA ASPIRACION CONTROL #10SIN     1
RC0001187466818A202100000027844600000027844607/12/20211813    3190333624042196419000035639500001014750000000000000                                                                              MASCARA VENTURY PEDIATBOL     1
RC0001187466818A202100000027844600000027844607/12/20211813    3190333624042196419000035643100000527320000000000000                                                               MASCARA TRAQUEOSTOMIA PEDIATRICA 1206SIN     1
RC0001187466818A202100000027844600000027844607/12/20211813    3190333624042196419000038576600000256740000000000000                                                                        SONDA ASPIRACION CONTROL #12SIN     2
RC0001187466818A202100000027844600000027844607/12/20211813    3190333624042196419000030161400001459220000000000000                                                                       MANGUERA SUCCION 6 MM*3.1 MTSSOB     1
RC0001187466818A202100000027844600000027844607/12/20211813    3190333624042196419000022425200000548240000000000000                       EXTENSION DE ANESTESIA REF 1139 SOB X 1 SHERLEG  ADULTO BN EXENTO-DC.417/2020SIN     1
RC0001187466818A202100000027844600000027844607/12/20211813    3190333624042196419000022425100001392880000000000000             EQUIPO MICROGOTEO SIN AGUJA REF 201000 PAQ X 100 SOB GOTHAPLAST   BN EXENTO-DC.417/2020BOL     1
RC0001187466818A202100000027844600000027844607/12/20211813    3190333624042196419000035356500003919000000000000000                                                                                        LLAVE 3 VIASSOB     1
RC0001187466818A202100000027844600000027844607/12/20211813    31903336240421964190000Q1AA7400003911720000000000000                                                            CATETER PERIFE INTROCAN # 24G 4251601-04SOB     3
RC0001187466818A202100000027844600000027844607/12/20211813    3190333624042196419000011073300001096420000000000000                                                                BOLSA DE SUCCION DE FLUIDOS x 2500mLBOL     1
RC0001187466818A202100000027844600000027844607/12/20211813    3190333624042196419000053074400000607910000000000000                                                               GASA ESTERIL 10*10 SOBRE X 3 UNIDADESSOB     2
RC0001187466818A202100000027844600000027844607/12/20211813    3190333624042196419000011085200001585390000000000000                                                                       GUANTE QUIRURGICO TALLA 7 1/2SOB     1
RC0001187466818A202100000027844600000027844607/12/20211813    3190333624042196419000011085100001082120000000000000                                                                           GUANTE QUIRURGICO TALLA 7SOB     1
RC0001187466818A202100000027844600000027844607/12/20211813    3190333624042196419000043485100001618510000000000000                GUANTE QUIRURGICO DE LATEX REF 2D72N65X CAJ X 50 PROTEXIS  6.5 BN EXENTO-DC.417/2020SOB     2
RC0001187466818A202100000027844600000027844607/12/20211813    3190333624042196419000011099300000777780000000000000                                                                     FILTRO BACTERIANO VIRICO ADULTOBOL     1
RC0001187466818A202100000027844600000027844607/12/20211813    3190333624042196419000024673600000222980000000000000                                                                     JERINGA DESECHABLE 5 ml 27*11/2SIN     1
RC0001187466818A202100000027844600000027844607/12/20211813    3190333624042196419000024674000001138340000000000000   JERINGA 3PARTES C/A 10ML REF JEHL005 CAJ X 100 ALFASAFE  21GX1 PULG 1/2 PULG BN EXENTO-DC.417/202PZA     1
RC0001187466818A202100000027844600000027844607/12/20211813    31903336240421964190000E1AB0700003888350000000000000                                                            SOLUCION SALINA 0.9% SLN INY BO X 250 MLBOL     3
RC0001187466818A202100000027844600000027844607/12/20211813    31903336240421964190000E1AB0200000199290000000000000                                                            SOLUCION SALINA 0.9% SLN INY BO X 100 MLBIN     1
