CC0000032776593H202100000556653600000556653607/12/20210328     3300004237421964250000B1AB1400000718160000000000000                                                                  FRAXIPARINA SLN INY 3800 UI/0.4 MLJRP     2
CC0000032776593H202100000556653600000556653607/12/20211701    31500305237421964250000E1AB0200000199290000000000000                                                            SOLUCION SALINA 0.9% SLN INY BO X 100 MLBIN     6
CC0000032776593H202100000556653600000556653607/12/20211636    31500350237421964250000E1AB0200000199290000000000000                                                            SOLUCION SALINA 0.9% SLN INY BO X 100 MLBIN     1
CC0000032776593H202100000556653600000556653607/12/20211701    31500305237421964250000E1AB0500003888400000000000000                                                              SOLUCION SALINA 0.9% SLN INY X 1000 MLBOL     3
CC0000032776593H202100000556653600000556653607/12/20211701    31500305237421964250000E1AD0300000199490000000000000                                         LACTATO RINGER USP (HARTMANN)  SOL INY  BOL X 1000ML BAXTERBIN     3
CC0000032776593H202100000556653600000556653607/12/20211800     3300009237421964250000A12BA100000552980000000000000                                                            CLORURO POTASIO Sln Iny AMP 20 MEQ/10 MLAMP     2
CC0000032776593H202100000556653600000556653607/12/20212259     3300009237421964250000V6DF5300000302770000000000000                                                                        ENSURE PLUS HN LCP X 1000 MLFCO     1
CC0000032776593H202100000556653600000556653607/12/20211000     3300009237421964250000V6DF5300000302770000000000000                                                                        ENSURE PLUS HN LCP X 1000 MLFCO     3
CC0000032776593H202100000556653600000556653607/12/20211800     3300009237421964250000N2BE2200001252930000000000000                                                                             ACETAMINOFEN Tab 500 MGTAB     2
CC0000032776593H202100000556653600000556653607/12/20211000     3300009237421964250000N2BE2200001252930000000000000                                                                             ACETAMINOFEN Tab 500 MGTAB     6
CC0000032776593H202100000556653600000556653607/12/20211000     3300009237421964250000N2BB0100001672010000000000000                                  DIPIRONA 1GR/2ML(0.5GR/ML) SOL INY INST CAJ X 100AMP X 2ML VITALISAMP     7
CC0000032776593H202100000556653600000556653607/12/20211800     3300009237421964250000N2AX0900001672040000000000000                                                                              TRAMADOL SLN INY 50 MGAMP     1
CC0000032776593H202100000556653600000556653607/12/20211000     3300009237421964250000N2AX0900001672040000000000000                                                                              TRAMADOL SLN INY 50 MGAMP     2
CC0000032776593H202100000556653600000556653607/12/20211000     3300009237421964250000A02BC700001684270000000000000                                                            OMEPRAZOL 40MG POLVO LIOFILIZADO AMPOLLAVAL     1
