CC0001140839787H202100000556648500000556648507/12/20211004     3300009237421964250000A2BC0900000200150000000000000                                                                               ORAZOLE Sln Iny 40 mgCIN     1
CC0001140839787H202100000556648500000556648507/12/20211003     3300009237421964250000B1AB0300003939210000000000000                 ENOXAPARINA SODICA 20MG/0.2ML(100MG/ML) SOL INY INST CAJ X 2JERPREL X 0.2ML TECHDOWJRP     2
CC0001140839787H202100000556648500000556648507/12/20211108    31900999237421964250000E1AD0300000199490000000000000                                         LACTATO RINGER USP (HARTMANN)  SOL INY  BOL X 1000ML BAXTERBIN     3
CC0001140839787H202100000556648500000556648507/12/20211851     3300009237421964250000C2AC0100001277460000000000000                                                                              CATAPRESAN TAB 150 MCGCOM     3
CC0001140839787H202100000556648500000556648507/12/20212142     3300009237421964250000C2AB0200001300760000000000000                                                                                  ALDOMET Tab 500 mgTAB     1
CC0001140839787H202100000556648500000556648507/12/20211004     3300009237421964250000C2AB0200001300760000000000000                                                                                  ALDOMET Tab 500 mgTAB     1
CC0001140839787H202100000556648500000556648507/12/20210125     3300004237421964250000C2AB0200001300760000000000000                                                                                  ALDOMET Tab 500 mgTAB     1
CC0001140839787H202100000556648500000556648507/12/20212143     3300009237421964250000C07A1100001015770000000000000                                                                   TRANDATE SLN INY 100 MG/20 ML /R/AMP     5
CC0001140839787H202100000556648500000556648507/12/20211004     3300009237421964250000C07A1100001015770000000000000                                                                   TRANDATE SLN INY 100 MG/20 ML /R/AMP     5
CC0001140839787H202100000556648500000556648507/12/20210206     3300004237421964250000C07A1100001015770000000000000                                                                   TRANDATE SLN INY 100 MG/20 ML /R/AMP     1
CC0001140839787H202100000556648500000556648507/12/20210126     3300004237421964250000C07A1100001015770000000000000                                                                   TRANDATE SLN INY 100 MG/20 ML /R/AMP     3
CC0001140839787H202100000556648500000556648507/12/20211003     3300009237421964250000C2DE1400001277050000000000000                                                                         NIFEDIPINO CAPSULA LM 30 MGCAP     3
CC0001140839787H202100000556648500000556648507/12/20210125     3300004237421964250000C2DE1400001277050000000000000                                                                         NIFEDIPINO CAPSULA LM 30 MGCAP     1
CC0001140839787H202100000556648500000556648507/12/20212142     3300009237421964250000C09CA400001277130000000000000                                                                                  LOSARTAN TAB 50 MGTAB     1
CC0001140839787H202100000556648500000556648507/12/20211003     3300009237421964250000C09CA400001277130000000000000                                                                                  LOSARTAN TAB 50 MGTAB     1
CC0001140839787H202100000556648500000556648507/12/20211423     3300009237421964250000H03A0400001278890000000000000                                                                                  EUTIROX TAB 50 MCGTAB     1
CC0001140839787H202100000556648500000556648507/12/20210641     3300004237421964250000J01DB300000553200000000000000                                                                         CEFALOTINA SLN INY 1 G VIALVAL     2
CC0001140839787H202100000556648500000556648507/12/20211003     3300009237421964250000J01DA300001239950000000000000                                                            CEFAZOLINA SODICA POLVO LIOF SLN INY 1 GVAL     4
CC0001140839787H202100000556648500000556648507/12/20210648     3300004237421964250000J01DA300001239950000000000000                                                            CEFAZOLINA SODICA POLVO LIOF SLN INY 1 GVAL     2
CC0001140839787H202100000556648500000556648507/12/20211004     3300009237421964250000N02B1100001464120000000000000                                           PARACETAMOL EP 1000MG/100ML(10MG/ML) SOL INY  CAJ X 10FCOVAL     3
CC0001140839787H202100000556648500000556648507/12/20210125     3300004237421964250000N02B1100001464120000000000000                                           PARACETAMOL EP 1000MG/100ML(10MG/ML) SOL INY  CAJ X 10FCOVAL     1
CC0001140839787H202100000556648500000556648507/12/20211108    31900999237421964250000V07A1300000502600000000000000                                                                                AGUA ESTERIL x 10 mlAMP    10
