CC0000022394093H202100000556671300000556671307/12/20211403     3300009237421964250000A02BC100001677520000000000000                                                                ESOMEPRAZOL POLVO LIOF INY 40 MG /R/VAL     1
CC0000022394093H202100000556671300000556671307/12/20211403     3300009237421964250000A4AD0200000202990000000000000                                                                     PLITICAN HCL Sln Iny 50 mg/2 mlAMP     3
CC0000022394093H202100000556671300000556671307/12/20211819    31900630237421964250000E1AA0100003888590000000000000                                                                        DEXTROSA 5% Sln Iny X 500 mlBOL     1
CC0000022394093H202100000556671300000556671307/12/20211819    31900630237421964250000E1AD0200003888320000000000000                                                                              HARTMAN SLN INY 500 MLBOL     1
CC0000022394093H202100000556671300000556671307/12/20211403     3300009237421964250000J01DB300000553200000000000000                                                                         CEFALOTINA SLN INY 1 G VIALVAL     3
CC0000022394093H202100000556671300000556671307/12/20211601     3300009237421964250000M1AB0800001359250000000000000                                                                         VOLTAREN SUPOSITORIO 100 MGSUP     2
CC0000022394093H202100000556671300000556671307/12/20211403     3300009237421964250000N02B1100001464120000000000000                                           PARACETAMOL EP 1000MG/100ML(10MG/ML) SOL INY  CAJ X 10FCOVAL     3
CC0000022394093H202100000556671300000556671307/12/20211819    31900630237421964250000V07A1300000502600000000000000                                                                                AGUA ESTERIL x 10 mlAMP     8
