CC0001066890191H202100015112744800015112744807/12/20211559    3150030523742196425000018354100000232880000000000000                                                                  SUTURA SEDA NEGRA 3-0 KS 75CM 622HSIN     1
CC0001066890191H202100015112744800015112744807/12/20211559    3150030523742196425000018351500000232840000000000000                                                                                    SEDA 2-0 KS 623HSIN     1
CC0001066890191H202100015112744800015112744807/12/20211559    31500305237421964250000Q1AA9700000295860000000000000                                                                              SONDA FOLEY #18 3 VIASSIN     1
CC0000072339909H202100015112744800015112744807/12/20211559    3150030523742196425000043879200001138180000000000000                                                                                   HOJA BISTURI # 11SOB     1
CC0001066890191H202100015112744800015112744807/12/20211559    3150030523742196425000043879200001138180000000000000                                                                                   HOJA BISTURI # 11SOB     1
CC0001066890191H202100015112744800015112744807/12/20211559    3150030523742196425000011089400001083350000000000000                                                              GUANTE ESTERIL LATEX S/POLVO TALLA 8.0SOB     2
CC0001066890191H202100015112744800015112744807/12/20211559    3150030523742196425000011089300001083990000000000000                                                              GUANTE ESTERIL LATEX S/POLVO TALLA 7.5SOB     2
CC0001066890191H202100015112744800015112744807/12/20211559    3150030523742196425000011085100001082120000000000000                                                                           GUANTE QUIRURGICO TALLA 7SOB     2
CC0001066890191H202100015112744800015112744807/12/20211559    3150030523742196425000013077800000471960000000000000                                                             GASA NO TEJIDA EST 7.5 X 7.5 SOB X 3 UNSOB     8
CC0001066890191H202100015112744800015112744807/12/20211559    3150030523742196425000022426800001140510000000000000                                                                    EQUIPO MACROGOTEO BAXTER MRC0001SOB     2
CC0000003745864H202100015112744800015112744807/12/20211559    3150030523742196425000011082900001233450000000000000                                                               EQUIPO LC 5000 PRIMARIO FOTOPRO 0L218SOB     1
CC0001066890191H202100015112744800015112744807/12/20211559    3150030523742196425000011082700001620070000000000000                                                               EQUIPO SET PRIMARIO C/CLAVE REF 14001BOL     3
CC0001066890191H202100015112744800015112744807/12/20211559    3150030523742196425000031188000000236790000000000000                                                                                     CISTOFLO ADULTOSIN     1
CC0001066890191H202100015112744800015112744807/12/20211559    3150030523742196425000001956000001620610000000000000                                                                      CONECTOR MICRO CLAVE LAT-MC100SOB     3
CC0001066890191H202100015112744800015112744807/12/20211559    3150030523742196425000021016900000227720000000000000                                                               CATETER TRILUMEN AD CS15703E 7FR*20CMSIN     1
CC0001066890191H202100015112744800015112744807/12/20211559    3150030523742196425000000602700001197200000000000000                                                              APOSITO TRANSP  1655 IV 8.5CM X 11.5CMSOB     1
CC0000022362807H202100015112744800015112744807/12/20211559    3150030523742196425000011127400001413910000000000000                                                            EQUIPO ADMINIST NUTR PUNZON REF 674669 BBOL     1
