CC0000011312131H202100902032120700902032120707/12/20210906    3190328823742196425000024674000001138340000000000000   JERINGA 3PARTES C/A 10ML REF JEHL005 CAJ X 100 ALFASAFE  21GX1 PULG 1/2 PULG BN EXENTO-DC.417/202PZA    10
CC0000011312131H202100902032120700902032120707/12/20210906    31903288237421964250000V07A1300000502600000000000000                                                                                AGUA ESTERIL x 10 mlAMP     5
CC0000011312131H202100902032120700902032120707/12/20211728    31902062237421964250000Q1A19500001451640000000000000                                                             BOLSA NUTRIC ENTERAL FREEGO 1.5 L  S810BOL     1
CC0000011312131H202100902032120700902032120707/12/20212218    3190244523742196425000011082700001620070000000000000                                                               EQUIPO SET PRIMARIO C/CLAVE REF 14001BOL     1
CC0000011312131H202100902032120700902032120707/12/20212218    3190244523742196425000011127400001413910000000000000                                                            EQUIPO ADMINIST NUTR PUNZON REF 674669 BBOL     1
CC0000011312131H202100902032120700902032120707/12/20212218    3190244523742196425000030936900001431840000000000000                                                                                              BURETABOL     1
CC0000011312131H202100902032120700902032120707/12/20212218    31902445237421964250000E1AD0300000199490000000000000                                         LACTATO RINGER USP (HARTMANN)  SOL INY  BOL X 1000ML BAXTERBIN     1
