MS0011408397871H202100015132530400015132530407/12/20211458    3190311723742196425000038568300000257010000000000000                                                                                   SONDA NELATON #08SIN     1
RC0001048091952H202100015132530400015132530407/12/20211458    3190311723742196425000038568300000257010000000000000                                                                                   SONDA NELATON #08SIN     1
RC0001048091909H202100015132530400015132530407/12/20211458    3190311723742196425000038568400000256940000000000000                                                                                   SONDA NELATON #10SIN     1
RC0001048091909H202100015132530400015132530407/12/20211458    3190311723742196425000011082200001407940000000000000                                                              EQUIPO EXT MICROTUBO Y 2 VALVUL 2N8371SOB     1
RC0001048091909H202100015132530400015132530407/12/20211458    31903117237421964250000Q1AA7400003911720000000000000                                                            CATETER PERIFE INTROCAN # 24G 4251601-04SOB     1
