CC0000072339909H202100015112743900015112743907/12/20211043    3190145023742196425000018362500000299530000000000000                                                               SET TRAQUEOSTOMIA REF C-PTIS-100 COOKPZA     1
CC0001066890191H202100015112743900015112743907/12/20211043    3190145023742196425000018362500000299530000000000000                                                               SET TRAQUEOSTOMIA REF C-PTIS-100 COOKPZA     1
CC0000072339909H202100015112743900015112743907/12/20211043    3190145023742196425000043485100001618510000000000000                GUANTE QUIRURGICO DE LATEX REF 2D72N65X CAJ X 50 PROTEXIS  6.5 BN EXENTO-DC.417/2020SOB     2
CC0001066890191H202100015112743900015112743907/12/20211043    3190145023742196425000043485100001618510000000000000                GUANTE QUIRURGICO DE LATEX REF 2D72N65X CAJ X 50 PROTEXIS  6.5 BN EXENTO-DC.417/2020SOB     2
CC0000072339909H202100015112743900015112743907/12/20211043    3190145023742196425000011089300001083990000000000000                                                              GUANTE ESTERIL LATEX S/POLVO TALLA 7.5SOB     2
CC0001066890191H202100015112743900015112743907/12/20211043    3190145023742196425000011089300001083990000000000000                                                              GUANTE ESTERIL LATEX S/POLVO TALLA 7.5SOB     2
CC0000072339909H202100015112743900015112743907/12/20211043    3190145023742196425000013077800000471960000000000000                                                             GASA NO TEJIDA EST 7.5 X 7.5 SOB X 3 UNSOB    10
CC0001066890191H202100015112743900015112743907/12/20211043    3190145023742196425000013077800000471960000000000000                                                             GASA NO TEJIDA EST 7.5 X 7.5 SOB X 3 UNSOB    10
CC0000072339909H202100015112743900015112743907/12/20211043    3190145023742196425000041013000001591660000000000000                                                                            CANULA TRAQUEOSTOMIA 8.0SOB     1
CC0001066890191H202100015112743900015112743907/12/20211043    3190145023742196425000041013000001591660000000000000                                                                            CANULA TRAQUEOSTOMIA 8.0SOB     1
