CC0001129489867H202100000556670800000556670807/12/20211356    31901020237421964250000B01AB200000513350000000000000                                                                        CLENOX SLN INY 40 MG/ 0.4 MLJRP     1
CC0001129489867H202100000556670800000556670807/12/20211356    31901020237421964250000G01AA300001389790000000000000                                                                           METRONIDAZOL OVULO 500 MGOVU     1
CC0001129489867H202100000556670800000556670807/12/20211356    31901020237421964250000N2BB0100001672010000000000000                                  DIPIRONA 1GR/2ML(0.5GR/ML) SOL INY INST CAJ X 100AMP X 2ML VITALISAMP     3
CC0001129489867H202100000556670800000556670807/12/20211356    31901020237421964250000A02BC700001684270000000000000                                                            OMEPRAZOL 40MG POLVO LIOFILIZADO AMPOLLAVAL     1
