RC0001043472141H202100000556648400000556648407/12/20212045    31903272237421964250000E1AA0100003888590000000000000                                                                        DEXTROSA 5% Sln Iny X 500 mlBOL     2
RC0001043472141H202100000556648400000556648407/12/20210119    31903060237421964250000E1AA0100003888590000000000000                                                                        DEXTROSA 5% Sln Iny X 500 mlBOL     3
RC0001043472141H202100000556648400000556648407/12/20211054     3300009237421964250000A12CA100001109460000000000000                                                              CLORURO SODIO SLN INY 2 MEQ/ML X 10 MLAMP     2
RC0001043472141H202100000556648400000556648407/12/20211054     3300009237421964250000A12BA100000552980000000000000                                                            CLORURO POTASIO Sln Iny AMP 20 MEQ/10 MLAMP     1
RC0001043472141H202100000556648400000556648407/12/20211054     3300009237421964250000N2BE1100000836430000000000000                                             ACETAMINOFEN 150MG/5ML(3%) JBE INST FCO X 60ML AMER GENCAJ     1
RC0001043472141H202100000556648400000556648407/12/20211054     3300009237421964250000J01DD500001239970000000000000                                                                  CEFTRIAXONA POLVO LIOF SLN INY 1 GVAL     4
