CC0001066890191H202100920267120700920267120707/12/20210908    3150035023742196425000022108000003906060000000000000                                                            SIST CERRAD ASPIRAC TRACH  22108-5 14 FRSOB     1
CC0001066890191H202100920267120700920267120707/12/20211128    3190145023742196425000011089300001083990000000000000                                                              GUANTE ESTERIL LATEX S/POLVO TALLA 7.5SOB     2
CC0001066890191H202100920267120700920267120707/12/20211128    3190145023742196425000013077800000471960000000000000                                                             GASA NO TEJIDA EST 7.5 X 7.5 SOB X 3 UNSOB    10
CC0001066890191H202100920267120700920267120707/12/20211128    3190145023742196425000018362500000299530000000000000                                                               SET TRAQUEOSTOMIA REF C-PTIS-100 COOKPZA     1
CC0001066890191H202100920267120700920267120707/12/20211128    3190145023742196425000041013000001591660000000000000                                                                            CANULA TRAQUEOSTOMIA 8.0SOB     1
CC0001066890191H202100920267120700920267120707/12/20211128    3190145023742196425000043485100001618510000000000000                GUANTE QUIRURGICO DE LATEX REF 2D72N65X CAJ X 50 PROTEXIS  6.5 BN EXENTO-DC.417/2020SOB     2
CC0001066890191H202100920267120700920267120707/12/20211727    3150030523742196425000011082700001620070000000000000                                                               EQUIPO SET PRIMARIO C/CLAVE REF 14001BOL     3
CC0001066890191H202100920267120700920267120707/12/20211727    3150030523742196425000011085100001082120000000000000                                                                           GUANTE QUIRURGICO TALLA 7SOB     2
CC0001066890191H202100920267120700920267120707/12/20211727    3150030523742196425000011089300001083990000000000000                                                              GUANTE ESTERIL LATEX S/POLVO TALLA 7.5SOB     2
CC0001066890191H202100920267120700920267120707/12/20211727    3150030523742196425000013077800000471960000000000000                                                             GASA NO TEJIDA EST 7.5 X 7.5 SOB X 3 UNSOB     8
CC0001066890191H202100920267120700920267120707/12/20211727    3150030523742196425000018351500000232840000000000000                                                                                    SEDA 2-0 KS 623HSIN     1
CC0001066890191H202100920267120700920267120707/12/20211727    3150030523742196425000018354100000232880000000000000                                                                  SUTURA SEDA NEGRA 3-0 KS 75CM 622HSIN     1
CC0001066890191H202100920267120700920267120707/12/20211727    3150030523742196425000021016900000227720000000000000                                                               CATETER TRILUMEN AD CS15703E 7FR*20CMSIN     1
CC0001066890191H202100920267120700920267120707/12/20211727    3150030523742196425000022426800001140510000000000000                                                                    EQUIPO MACROGOTEO BAXTER MRC0001SOB     2
CC0001066890191H202100920267120700920267120707/12/20211727    3150030523742196425000031188000000236790000000000000                                                                                     CISTOFLO ADULTOSIN     1
CC0001066890191H202100920267120700920267120707/12/20211727    3150030523742196425000043879200001138180000000000000                                                                                   HOJA BISTURI # 11SOB     1
CC0001066890191H202100920267120700920267120707/12/20211727    3150030523742196425000001956000001620610000000000000                                                                      CONECTOR MICRO CLAVE LAT-MC100SOB     3
CC0001066890191H202100920267120700920267120707/12/20211727    31500305237421964250000Q1AA9700000295860000000000000                                                                              SONDA FOLEY #18 3 VIASSIN     1
CC0001066890191H202100920267120700920267120707/12/20211727    3150030523742196425000000602700001197200000000000000                                                              APOSITO TRANSP  1655 IV 8.5CM X 11.5CMSOB     1
CC0001066890191H202100920267120700920267120707/12/20211758    3190182723742196425000011082700001620070000000000000                                                               EQUIPO SET PRIMARIO C/CLAVE REF 14001BOL     3
CC0001066890191H202100920267120700920267120707/12/20211758    3190182723742196425000011085100001082120000000000000                                                                           GUANTE QUIRURGICO TALLA 7SOB     2
CC0001066890191H202100920267120700920267120707/12/20211758    3190182723742196425000011089300001083990000000000000                                                              GUANTE ESTERIL LATEX S/POLVO TALLA 7.5SOB     2
CC0001066890191H202100920267120700920267120707/12/20211758    3190182723742196425000013077800000471960000000000000                                                             GASA NO TEJIDA EST 7.5 X 7.5 SOB X 3 UNSOB     8
CC0001066890191H202100920267120700920267120707/12/20211758    3190182723742196425000018351500000232840000000000000                                                                                    SEDA 2-0 KS 623HSIN     1
CC0001066890191H202100920267120700920267120707/12/20211758    3190182723742196425000018354100000232880000000000000                                                                  SUTURA SEDA NEGRA 3-0 KS 75CM 622HSIN     1
CC0001066890191H202100920267120700920267120707/12/20211758    3190182723742196425000021016900000227720000000000000                                                               CATETER TRILUMEN AD CS15703E 7FR*20CMSIN     1
CC0001066890191H202100920267120700920267120707/12/20211758    3190182723742196425000022426800001140510000000000000                                                                    EQUIPO MACROGOTEO BAXTER MRC0001SOB     2
CC0001066890191H202100920267120700920267120707/12/20211758    3190182723742196425000031188000000236790000000000000                                                                                     CISTOFLO ADULTOSIN     1
CC0001066890191H202100920267120700920267120707/12/20211758    3190182723742196425000043879200001138180000000000000                                                                                   HOJA BISTURI # 11SOB     1
CC0001066890191H202100920267120700920267120707/12/20211758    3190182723742196425000001956000001620610000000000000                                                                      CONECTOR MICRO CLAVE LAT-MC100SOB     3
CC0001066890191H202100920267120700920267120707/12/20211758    3190182723742196425000000602700001197200000000000000                                                              APOSITO TRANSP  1655 IV 8.5CM X 11.5CMSOB     1
CC0001066890191H202100920267120700920267120707/12/20211804    3150030523742196425000038570100001124990000000000000                                                                              SONDA FOLEY #18 2 VIASSOB     1
CC0001066890191H202100920267120700920267120707/12/20212220    3150053223742196425000011085200001585390000000000000                                                                       GUANTE QUIRURGICO TALLA 7 1/2SOB     2
CC0001066890191H202100920267120700920267120707/12/20212220    3150053223742196425000016830000000970620000000000000                                                             SIST FIJACION CAT PERIFERICO 6.5X7 1683SOB     1
CC0001066890191H202100920267120700920267120707/12/20212220    3150053223742196425000024674000001138340000000000000   JERINGA 3PARTES C/A 10ML REF JEHL005 CAJ X 100 ALFASAFE  21GX1 PULG 1/2 PULG BN EXENTO-DC.417/202PZA     8
CC0001066890191H202100920267120700920267120707/12/20212220    3150053223742196425000042743200003929860000000000000                   GASA ADHESIVA STRETCH REF 02038-00 ROL X 10MT FIXOMULL 15CM BN EXENTO-DC.417/2020CMT    50
CC0001066890191H202100920267120700920267120707/12/20212220    3150053223742196425000053074400000607910000000000000                                                               GASA ESTERIL 10*10 SOBRE X 3 UNIDADESSOB     4
CC0001066890191H202100920267120700920267120707/12/20212220    31500532237421964250000Q1AA3300001585140000000000000                                                                         APOSITO TEGADERM 10*12 1626SOB     1
