CC0000003745864U202100050131949800050131949807/12/20210555    3150058923942196432000038570100001124990000000000000                                                                              SONDA FOLEY #18 2 VIASSOB     1
CC0000003745864U202100050131949800050131949807/12/20210555    3150058923942196432000024674000001138340000000000000   JERINGA 3PARTES C/A 10ML REF JEHL005 CAJ X 100 ALFASAFE  21GX1 PULG 1/2 PULG BN EXENTO-DC.417/202PZA     2
CC0000022467890U202100050131949800050131949807/12/20210555    3150058923942196432000024674000001138340000000000000   JERINGA 3PARTES C/A 10ML REF JEHL005 CAJ X 100 ALFASAFE  21GX1 PULG 1/2 PULG BN EXENTO-DC.417/202PZA     2
CC0000003745864U202100050131949800050131949807/12/20210555    3150058923942196432000011089300001083990000000000000                                                              GUANTE ESTERIL LATEX S/POLVO TALLA 7.5SOB     2
CC0000003745864U202100050131949800050131949807/12/20210555    3150058923942196432000013077800000471960000000000000                                                             GASA NO TEJIDA EST 7.5 X 7.5 SOB X 3 UNSOB     5
CC0000003745864U202100050131949800050131949807/12/20210555    3150058923942196432000031188000000236790000000000000                                                                                     CISTOFLO ADULTOSIN     1
CC0000022467890U202100050131949800050131949807/12/20210555    31500589239421964320000E1AD0300000199490000000000000                                         LACTATO RINGER USP (HARTMANN)  SOL INY  BOL X 1000ML BAXTERBIN     1
CC0000003745864U202100050131949800050131949807/12/20210555    31500589239421964320000E1AB0200000199290000000000000                                                            SOLUCION SALINA 0.9% SLN INY BO X 100 MLBIN     1
