CC0000072142637H202100000556659400000556659407/12/20210820    31903310237421964250000H02A0100001664960000000000000                                                                        DEXAMETASONA SLN INY 4 MG/MLAMP     4
CC0000072142637H202100000556659400000556659407/12/20210820    31903310237421964250000J01DA300001239950000000000000                                                            CEFAZOLINA SODICA POLVO LIOF SLN INY 1 GVAL     1
CC0000072142637H202100000556659400000556659407/12/20210820    31903310237421964250000M1AE2500000191550000000000000                                                            PROFENID POLVO LIOF SLN INY 100MG/2ML/R/AMP     1
CC0000072142637H202100000556659400000556659407/12/20210820    31903310237421964250000N2AX0500001204110000000000000                                                                          TRAMAL SLN INY 100 MG / MLAMP     2
CC0000072142637H202100000556659400000556659407/12/20210820    31903310237421964250000N02B1100001464120000000000000                                           PARACETAMOL EP 1000MG/100ML(10MG/ML) SOL INY  CAJ X 10FCOVAL     1
