CC0000012614608H202100015012627600015012627607/12/20210938    31903219237421964250000E1AB0400000301850000000000000                                                               SOLUCION SALINA 0.9% INY FCO X 500 MLFCO     2
CC0000080424776H202100015012627600015012627607/12/20210938    31903219237421964250000E1AD0300000199490000000000000                                         LACTATO RINGER USP (HARTMANN)  SOL INY  BOL X 1000ML BAXTERBIN     2
CC0000084006612H202100015012627600015012627607/12/20210938    31903219237421964250000E1AB0500003888400000000000000                                                              SOLUCION SALINA 0.9% SLN INY X 1000 MLBOL     1
