CC0000022428371U202100050131951500050131951507/12/20211038    3150056523942196432000001956000001620610000000000000                                                                      CONECTOR MICRO CLAVE LAT-MC100SOB     1
CC0000022317998U202100050131951500050131951507/12/20211038    31500565239421964320000Q1AA7300000610640000000000000                                                            CATETER PERIFE INTROCAN # 22G 4251628-04SIN     1
CC0000022428371U202100050131951500050131951507/12/20211038    31500565239421964320000Q1AA7300000610640000000000000                                                            CATETER PERIFE INTROCAN # 22G 4251628-04SIN     1
CC0000022317998U202100050131951500050131951507/12/20211038    31500565239421964320000Q1AA7400003911720000000000000                                                            CATETER PERIFE INTROCAN # 24G 4251601-04SOB     1
CC0000022428371U202100050131951500050131951507/12/20211038    3150056523942196432000016830000000970620000000000000                                                             SIST FIJACION CAT PERIFERICO 6.5X7 1683SOB     1
