TI0001139433905U202100000556650900000556650907/12/20210226     3300004239421964320000A2BX0100001277280000000000000                                                                                ALSUCRAL TAB 1 G /R/TAB     1
TI0001139433905U202100000556650900000556650907/12/20210612    31903180239421964320000E1AD0300000199490000000000000                                         LACTATO RINGER USP (HARTMANN)  SOL INY  BOL X 1000ML BAXTERBIN     1
TI0001139433905U202100000556650900000556650907/12/20210226     3300004239421964320000N2BE1100000836430000000000000                                             ACETAMINOFEN 150MG/5ML(3%) JBE INST FCO X 60ML AMER GENCAJ     1
TI0001139433905U202100000556650900000556650907/12/20210625     3300004239421964320000A02BC700001684270000000000000                                                            OMEPRAZOL 40MG POLVO LIOFILIZADO AMPOLLAVAL     1
