RC0001102897681H202100015122549000015122549007/12/20212338    3150034323742196425000038568200000257000000000000000                                                                                   SONDA NELATON #06SIN     1
RC0001102897681H202100015122549000015122549007/12/20212338    3150034323742196425000038568400000256940000000000000                                                                                   SONDA NELATON #10SIN     1
RC0001063188076H202100015122549000015122549007/12/20212338    3150034323742196425000038572600000256930000000000000                                                                                 SONDA NSG LEVIN #08SIN     1
RC0001063188076H202100015122549000015122549007/12/20212338    3150034323742196425000038572700000256840000000000000                                                                                 SONDA NSG LEVIN #10SIN     1
RC0001102897681H202100015122549000015122549007/12/20212338    3150034323742196425000038569500000994340000000000000                                                             SONDA FOLEY 2 VIAS 6F MA-220603 UROTECHSOB     1
RC0001063188076H202100015122549000015122549007/12/20212338    3150034323742196425000011089300001083990000000000000                                                              GUANTE ESTERIL LATEX S/POLVO TALLA 7.5SOB     2
RC0001063188076H202100015122549000015122549007/12/20212338    3150034323742196425000011089200001083340000000000000                                                              GUANTE ESTERIL LATEX S/POLVO TALLA 7.0SOB     1
RC0001102897681H202100015122549000015122549007/12/20212338    3150034323742196425000011089100001083330000000000000                                                              GUANTE ESTERIL LATEX S/POLVO TALLA 6.5SOB     5
RC0001063188076H202100015122549000015122549007/12/20212338    3150034323742196425000022426800001140510000000000000                                                                    EQUIPO MACROGOTEO BAXTER MRC0001SOB     3
RC0001063188076H202100015122549000015122549007/12/20212338    3150034323742196425000011082700001620070000000000000                                                               EQUIPO SET PRIMARIO C/CLAVE REF 14001BOL     2
RC0001063188076H202100015122549000015122549007/12/20212338    31500343237421964250000Q1AA5900000236800000000000000                                                                            CISTOFLO PEDIAT X 500 mlSIN     1
RC0001102897681H202100015122549000015122549007/12/20212338    31500343237421964250000Q1AA5900000236800000000000000                                                                            CISTOFLO PEDIAT X 500 mlSIN     1
RC0001063188076H202100015122549000015122549007/12/20212338    3150034323742196425000030936900001431840000000000000                                                                                              BURETABOL     2
RC0001063188076H202100015122549000015122549007/12/20212338    31500343237421964250000E1AA1400003888550000000000000                                                                         DEXTROSA 10% SLN INY 250 MLBOL     1
RC0001046723141H202100015122549000015122549007/12/20212338    31500343237421964250000E1AD0200003888320000000000000                                                                              HARTMAN SLN INY 500 MLBOL     2
RC0001043033404H202100015122549000015122549007/12/20212338    31500343237421964250000E1AD0200003888320000000000000                                                                              HARTMAN SLN INY 500 MLBOL     1
RC0001046723141H202100015122549000015122549007/12/20212338    31500343237421964250000E1AA0600003888150000000000000                                                                 DEXTROSA 50% EN AGUA Sln Iny 500 mlBOL     1
