CC0000007444684H202100921254120700921254120707/12/20211804    3150030523742196425000011082900001233450000000000000                                                               EQUIPO LC 5000 PRIMARIO FOTOPRO 0L218SOB     1
CC0000007444684H202100921254120700921254120707/12/20212219    3190182723742196425000011082700001620070000000000000                                                               EQUIPO SET PRIMARIO C/CLAVE REF 14001BOL     1
CC0000007444684H202100921254120700921254120707/12/20212219    3190182723742196425000011082900001233450000000000000                                                               EQUIPO LC 5000 PRIMARIO FOTOPRO 0L218SOB     1
CC0000007444684H202100921254120700921254120707/12/20212219    3190182723742196425000011085100001082120000000000000                                                                           GUANTE QUIRURGICO TALLA 7SOB     2
CC0000007444684H202100921254120700921254120707/12/20212219    3190182723742196425000011085300001082140000000000000                                                                           GUANTE QUIRURGICO TALLA 8SOB     2
CC0000007444684H202100921254120700921254120707/12/20212219    3190182723742196425000013077800000471960000000000000                                                             GASA NO TEJIDA EST 7.5 X 7.5 SOB X 3 UNSOB    10
CC0000007444684H202100921254120700921254120707/12/20212219    3190182723742196425000018351500000232840000000000000                                                                                    SEDA 2-0 KS 623HSIN     1
CC0000007444684H202100921254120700921254120707/12/20212219    3190182723742196425000021016900000227720000000000000                                                               CATETER TRILUMEN AD CS15703E 7FR*20CMSIN     1
CC0000007444684H202100921254120700921254120707/12/20212219    3190182723742196425000022426800001140510000000000000                                                                    EQUIPO MACROGOTEO BAXTER MRC0001SOB     1
CC0000007444684H202100921254120700921254120707/12/20212219    3190182723742196425000035356500003919000000000000000                                                                                        LLAVE 3 VIASSOB     1
CC0000007444684H202100921254120700921254120707/12/20212219    3190182723742196425000043879200001138180000000000000                                                                                   HOJA BISTURI # 11SOB     1
CC0000007444684H202100921254120700921254120707/12/20212219    3190182723742196425000001956000001620610000000000000                                                                      CONECTOR MICRO CLAVE LAT-MC100SOB     2
CC0000007444684H202100921254120700921254120707/12/20212219    3190182723742196425000000602700001197200000000000000                                                              APOSITO TRANSP  1655 IV 8.5CM X 11.5CMSOB     1
CC0000007444684H202100921254120700921254120707/12/20212220    3150053223742196425000024674000001138340000000000000   JERINGA 3PARTES C/A 10ML REF JEHL005 CAJ X 100 ALFASAFE  21GX1 PULG 1/2 PULG BN EXENTO-DC.417/202PZA     8
CC0000007444684H202100921254120700921254120707/12/20212220    31500532237421964250000Q1AA3300001585140000000000000                                                                         APOSITO TEGADERM 10*12 1626SOB     1
