CC0001140881758U202100050131959900050131959907/12/20212359    3190317523942196432000024674000001138340000000000000   JERINGA 3PARTES C/A 10ML REF JEHL005 CAJ X 100 ALFASAFE  21GX1 PULG 1/2 PULG BN EXENTO-DC.417/202PZA     2
CC0001140881758U202100050131959900050131959907/12/20212359    3190317523942196432000024672100001609890000000000000                                                            JERINGA INSULINA 1ML TAPA NARANJA JEI013SOB     1
CC0001129517194U202100050131959900050131959907/12/20212359    3190317523942196432000022426800001140510000000000000                                                                    EQUIPO MACROGOTEO BAXTER MRC0001SOB     1
CC0000005556457U202100050131959900050131959907/12/20212359    3190317523942196432000022426800001140510000000000000                                                                    EQUIPO MACROGOTEO BAXTER MRC0001SOB     1
CC0000005556457U202100050131959900050131959907/12/20212359    3190317523942196432000001956000001620610000000000000                                                                      CONECTOR MICRO CLAVE LAT-MC100SOB     1
CC0000005556457U202100050131959900050131959907/12/20212359    31903175239421964320000Q1AA7200000610630000000000000                                                            CATETER PERIFE INTROCAN # 20G 4251644-04SIN     1
CC0000005556457U202100050131959900050131959907/12/20212359    3190317523942196432000000602600001259280000000000000                                                             APOSITO TEGADERM IV PD 1610 5CM X 5.7CMSOB     1
CC0001140881758U202100050131959900050131959907/12/20212359    3190317523942196432000000100900001079620000000000000                                                             AGUJA INSULINA EN PEN  BD320121 31G*5MMSOB     1
CC0001140881758U202100050131959900050131959907/12/20212359    31903175239421964320000E1AB0200000199290000000000000                                                            SOLUCION SALINA 0.9% SLN INY BO X 100 MLBIN     1
