CC0000007544660U202100000556650800000556650807/12/20211142     3300004239421964320000B1AB0200003939510000000000000                 ENOXAPARINA SODICA 40MG/0.4ML(100MG/ML) SOL INY INST CAJ X 2JERPREL X 0.4ML TECHDOWJRP     1
CC0000007544660U202100000556650800000556650807/12/20211142     3300004239421964320000H02AB500001664950000000000000                                                            DEXAMETASONA SLN INY 8 MG/2 ML AMP /CDS/AMP     1
CC0000007544660U202100000556650800000556650807/12/20211404     3300004239421964320000J01DD100000456230000000000000                                                                        AXTAR POLVO LIOF SLN INY 1 GVAL     2
CC0000007544660U202100000556650800000556650807/12/20211603     3300004239421964320000J1DA3100000187510000000000000                                                                           ROCEFIN Polvo SLN INY 1 GCIN     2
CC0000007544660U202100000556650800000556650807/12/20211142     3300004239421964320000R05DB100001458270000000000000                                                                FLUTOX SUSP ORAL 3 54 MG/ML X 120 MLFCO     1
CC0000007544660U202100000556650800000556650807/12/20212224     3300004239421964320000N2BE2200001252930000000000000                                                                             ACETAMINOFEN Tab 500 MGTAB     2
CC0000007544660U202100000556650800000556650807/12/20211603     3300004239421964320000N2BE2200001252930000000000000                                                                             ACETAMINOFEN Tab 500 MGTAB     2
