RC0001063188076H202100000556658600000556658607/12/20211850     3300009237421964250000V3AB2200000614150000000000000                                                            GLUCONATO CALCIO SLN INY 10% AMP X 10 MLAPC     6
RC0001063188076H202100000556658600000556658607/12/20211851    31500453237421964250000E1AC0100000199400000000000000                                                                          SUERO MIXTO Sln Iny 500 mlBIN     2
RC0001063188076H202100000556658600000556658607/12/20212327     3300009237421964250000C1CE0200000202230000000000000                                                                       COROTROPE SLN INY 10 MG/10 MLCIN     2
RC0001063188076H202100000556658600000556658607/12/20211851     3300009237421964250000C1CE0200000202230000000000000                                                                       COROTROPE SLN INY 10 MG/10 MLCIN     2
RC0001063188076H202100000556658600000556658607/12/20212327     3300009237421964250000C1CA0300000861740000000000000                                                                    DOPAMINA HCL SLN INY 200 MG/5 MLAMP     2
RC0001063188076H202100000556658600000556658607/12/20211851     3300009237421964250000C1CA0300000861740000000000000                                                                    DOPAMINA HCL SLN INY 200 MG/5 MLAMP     2
RC0001063188076H202100000556658600000556658607/12/20212326     3300009237421964250000J01XA400001212420000000000000                                                               VANCOMICINA POLVO LIOF SLN INY 500 MGVAL     1
RC0001063188076H202100000556658600000556658607/12/20211850     3300009237421964250000J01XA400001212420000000000000                                                               VANCOMICINA POLVO LIOF SLN INY 500 MGVAL     1
RC0001063188076H202100000556658600000556658607/12/20211854     3300009237421964250000N1AH0200003906560000000000000                                                                     FENTANIL Iny 0.05 mg/ml x 10 mlAMP     4
RC0001063188076H202100000556658600000556658607/12/20212327     3300009237421964250000B02BA100000561560000000000000                                                                           VITAMINA K1 SLN INY 10 MGAMP     1
RC0001063188076H202100000556658600000556658607/12/20211850     3300009237421964250000B02BA100000561560000000000000                                                                           VITAMINA K1 SLN INY 10 MGAMP     1
RC0001063188076H202100000556658600000556658607/12/20212328     3300009237421964250000C03C0100001672000000000000000                                                                       FUROSEMIDA SLN INY 20 MG/2 MLAMP     1
RC0001063188076H202100000556658600000556658607/12/20211037     3300009237421964250000C03C0100001672000000000000000                                                                       FUROSEMIDA SLN INY 20 MG/2 MLAMP     2
RC0001063188076H202100000556658600000556658607/12/20211037     3300009237421964250000C09AA300001353220000000000000                                                                                   ENALAPRIL TAB 5MGTAB     1
RC0001063188076H202100000556658600000556658607/12/20211850     3300009237421964250000N2BB0100001672010000000000000                                  DIPIRONA 1GR/2ML(0.5GR/ML) SOL INY INST CAJ X 100AMP X 2ML VITALISAMP     1
RC0001063188076H202100000556658600000556658607/12/20211037     3300009237421964250000N2BB0100001672010000000000000                                  DIPIRONA 1GR/2ML(0.5GR/ML) SOL INY INST CAJ X 100AMP X 2ML VITALISAMP     1
RC0001063188076H202100000556658600000556658607/12/20211037     3300009237421964250000A02BC700001684270000000000000                                                            OMEPRAZOL 40MG POLVO LIOFILIZADO AMPOLLAVAL     1
RC0001063188076H202100000556658600000556658607/12/20211052    31500453237421964250000V07A1300000502600000000000000                                                                                AGUA ESTERIL x 10 mlAMP     5
