TI0001107068221A202100000027842900000027842907/12/20211429    31903336240421964190000N2AA0100000301640000000000000                                                                            MORFINA Sln Iny 10 mg/mlAMP     1
TI0001107068221A202100000027842900000027842907/12/20211429    31903336240421964190000A12CA200001239800000000000000                     BICARBONATO SODIO 10MEQ/10ML(1MEQ/ML) SOL INY  CAJ X 100AMPX10ML FRESENIUS KABIAMP     3
TI0001107068221A202100000027842900000027842907/12/20211429    31903336240421964190000E1AD0300000199490000000000000                                         LACTATO RINGER USP (HARTMANN)  SOL INY  BOL X 1000ML BAXTERBIN    10
TI0001107068221A202100000027842900000027842907/12/20211429    3190333624042196419000017565800001585150000000000000                                                             SUTURA PROLENE 3-0 45CM PS1 PRIME 8663TSOB     1
TI0001107068221A202100000027842900000027842907/12/20211429    3190333624042196419000012465100000232110000000000000                                                                                ETHIBOND 0 CT2 B412HSIN     1
TI0001107068221A202100000027842900000027842907/12/20211429    31903336240421964190000B5BC0200003889280000000000000                                                                 OSMORIN MANITOL 20 % Bolsa X 500 mlBOL     1
TI0001107068221A202100000027842900000027842907/12/20211429    31903336240421964190000N2BB0500000217140000000000000                                                                          NOVALGINA Sln Iny 1 g/2 mlAMP     1
TI0001107068221A202100000027842900000027842907/12/20211429    3190333624042196419000018351400000232860000000000000                                                                                   SEDA 2-0 SH K833HSIN     1
TI0001107068221A202100000027842900000027842907/12/20211429    31903336240421964190000V3AB2200000614150000000000000                                                            GLUCONATO CALCIO SLN INY 10% AMP X 10 MLAPC     1
TI0001107068221A202100000027842900000027842907/12/20211429    3190333624042196419000036441300000236540000000000000                                                                    JERINGA 1 ML GASES ARTERIAL 9023SIN     2
TI0001107068221A202100000027842900000027842907/12/20211429    3190333624042196419000011082600000265810000000000000                                                              EQUIPO IRRIGACION URINARIA REF MRC4002SOB     1
TI0001107068221A202100000027842900000027842907/12/20211429    31903336240421964190000J01DA300001239950000000000000                                                            CEFAZOLINA SODICA POLVO LIOF SLN INY 1 GVAL     2
TI0001107068221A202100000027842900000027842907/12/20211429    3190333624042196419000011085100001082120000000000000                                                                           GUANTE QUIRURGICO TALLA 7SOB     3
TI0001107068221A202100000027842900000027842907/12/20211429    3190333624042196419000033485000001049200000000000000                                                                           GUANTE QUIRURGICO TALLA 6SOB     2
TI0001107068221A202100000027842900000027842907/12/20211429    3190333624042196419000024673600000222980000000000000                                                                     JERINGA DESECHABLE 5 ml 27*11/2SIN     4
TI0001107068221A202100000027842900000027842907/12/20211429    31903336240421964190000M03AC100000197200000000000000                                                                   TRACURION SLN INY 10 MG /5 ML /R/AMP     1
TI0001107068221A202100000027842900000027842907/12/20211429    3190333624042196419000038570000001123500000000000000                                                                              SONDA FOLEY #16 2 VIASSOB     1
TI0001107068221A202100000027842900000027842907/12/20211429    31903336240421964190000Q1AA5900000236800000000000000                                                                            CISTOFLO PEDIAT X 500 mlSIN     1
TI0001107068221A202100000027842900000027842907/12/20211429    3190333624042196419000000601900000258430000000000000                                                            APOSITO OPSIT POST -OP 0714  25CM X 10CMSIN     1
TI0001107068221A202100000027842900000027842907/12/20211429    3190333624042196419000030825800000270990000000000000                                                                  ALGODON ESTERIL SOBRE X 3 TORUNDASPZA     4
TI0001107068221A202100000027842900000027842907/12/20211429    31903336240421964190000Q1AA6900000531340000000000000                                                            CATETER PERIFE INTROCAN # 14G 4251890-04SIN     1
TI0001107068221A202100000027842900000027842907/12/20211429    3190333624042196419000045138000001413890000000000000                                                                       LAPIZ ELECTROBISTURI  SOB X 1SOB     1
TI0001107068221A202100000027842900000027842907/12/20211429    3190333624042196419000020042600000633850000000000000                                                                                       ASEPTOJERINGASIN     1
TI0001107068221A202100000027842900000027842907/12/20211429    3190333624042196419000043879500001138210000000000000                                                                                    HOJA BISTURI #20SOB     1
TI0001107068221A202100000027842900000027842907/12/20211429    3190333624042196419000043879200001138180000000000000                                                                                   HOJA BISTURI # 11SOB     1
TI0001107068221A202100000027842900000027842907/12/20211429    3190333624042196419000018350500000232920000000000000                                                                 SUTURA SEDA NEGRA 4-0 10 X 75 SA83TSIN     1
TI0001107068221A202100000027842900000027842907/12/20211429    3190333624042196419000018349800000232820000000000000                                                                                  SEDA 2-0 S.A SA85TSIN     1
TI0001107068221A202100000027842900000027842907/12/20211429    3190333624042196419000018350200000232870000000000000                                                                                  SEDA 3-0 S.A SA84TSIN     3
TI0001107068221A202100000027842900000027842907/12/20211429    3190333624042196419000018665000000231260000000000000                                                                                   SURGICEL 4*8 1952SIN     1
TI0001107068221A202100000027842900000027842907/12/20211429    3190333624042196419000038568300000257010000000000000                                                                                   SONDA NELATON #08SIN     1
TI0001107068221A202100000027842900000027842907/12/20211429    3190333624042196419000038568200000257000000000000000                                                                                   SONDA NELATON #06SIN     1
TI0001107068221A202100000027842900000027842907/12/20211429    3190333624042196419000021321100000232610000000000000                                                              PROLENE 2-0 KS RECTA 8623H CIERRE PIELSIN     1
TI0001107068221A202100000027842900000027842907/12/20211429    3190333624042196419000017565100000232570000000000000                                                                         PROLENE 0 ORT 75 CT-1 8424TSIN     1
TI0001107068221A202100000027842900000027842907/12/20211429    3190333624042196419000029958500004018110000000000000  SUTURA MONOFIL ABSORBI (2)RB-1 REF W9108H CAJ X 36 PDS II 90CM - 5-0 VIOLETA BN EXENTO-DC.417/2020SOB     1
TI0001107068221A202100000027842900000027842907/12/20211429    3190333624042196419000017576200000232750000000000000                                                                    PROLENE CARDIOV 6-0 60 2C-1 8726SIN     5
TI0001107068221A202100000027842900000027842907/12/20211429    3190333624042196419000016830000000970620000000000000                                                             SIST FIJACION CAT PERIFERICO 6.5X7 1683SOB     1
TI0001107068221A202100000027842900000027842907/12/20211429    31903336240421964190000Q1A11500000331560000000000000                                                                     CATETER RADIAL #20 REF. 115.090SIN     1
TI0001107068221A202100000027842900000027842907/12/20211429    31903336240421964190000B1AB0100001227270000000000000                                             HEPAMAX 25000UI/5ML(5000UI/ML) SOL INY  CAJ X 25AMPX5MLAMP     1
TI0001107068221A202100000027842900000027842907/12/20211429    3190333624042196419000030936900001431840000000000000                                                                                              BURETABOL     1
TI0001107068221A202100000027842900000027842907/12/20211429    31903336240421964190000N1BA1900000554750000000000000                                                                     ROXICAINA JALEA 2% TUBO X 30 MLTUB     1
TI0001107068221A202100000027842900000027842907/12/20211429    3190333624042196419000011051900000226360000000000000                                                               KIT TRANSDUCTOR SENCILLO S/VAMP PX260SOB     1
TI0001107068221A202100000027842900000027842907/12/20211429    3190333624042196419000022426800001140510000000000000                                                                    EQUIPO MACROGOTEO BAXTER MRC0001SOB     1
TI0001107068221A202100000027842900000027842907/12/20211429    3190333624042196419000031188000000236790000000000000                                                                                     CISTOFLO ADULTOSIN     1
TI0001107068221A202100000027842900000027842907/12/20211429    31903336240421964190000S2BA0200000468180000000000000                                                                   SOLU-MEDROL SLN INY 40 MG/ML  /R/VAL     1
TI0001107068221A202100000027842900000027842907/12/20211429    31903336240421964190000C3CA0200000195520000000000000                                                                           LASIX SLN INY 20 MG/ 2 MLAMP     3
TI0001107068221A202100000027842900000027842907/12/20211429    31903336240421964190000L04AA300000460440000000000000                                                                        TIMOGLOBULINA VIAL 25 MG /R/VAL     3
TI0001107068221A202100000027842900000027842907/12/20211429    3190333624042196419000022425200000548240000000000000                       EXTENSION DE ANESTESIA REF 1139 SOB X 1 SHERLEG  ADULTO BN EXENTO-DC.417/2020SIN     1
TI0001107068221A202100000027842900000027842907/12/20211429    3190333624042196419000035356500003919000000000000000                                                                                        LLAVE 3 VIASSOB     2
TI0001107068221A202100000027842900000027842907/12/20211429    3190333624042196419000022425100001392880000000000000             EQUIPO MICROGOTEO SIN AGUJA REF 201000 PAQ X 100 SOB GOTHAPLAST   BN EXENTO-DC.417/2020BOL     1
TI0001107068221A202100000027842900000027842907/12/20211429    3190333624042196419000011073300001096420000000000000                                                                BOLSA DE SUCCION DE FLUIDOS x 2500mLBOL     1
TI0001107068221A202100000027842900000027842907/12/20211429    3190333624042196419000020750600000296780000000000000                                                                PLACA ELECTRO RETORNO PACIENTE E7506SIN     1
TI0001107068221A202100000027842900000027842907/12/20211429    3190333624042196419000011082700001620070000000000000                                                               EQUIPO SET PRIMARIO C/CLAVE REF 14001BOL     3
TI0001107068221A202100000027842900000027842907/12/20211429    3190333624042196419000053074400000607910000000000000                                                               GASA ESTERIL 10*10 SOBRE X 3 UNIDADESSOB    10
TI0001107068221A202100000027842900000027842907/12/20211429    3190333624042196419000011085200001585390000000000000                                                                       GUANTE QUIRURGICO TALLA 7 1/2SOB     2
TI0001107068221A202100000027842900000027842907/12/20211429    3190333624042196419000043485100001618510000000000000                GUANTE QUIRURGICO DE LATEX REF 2D72N65X CAJ X 50 PROTEXIS  6.5 BN EXENTO-DC.417/2020SOB     7
TI0001107068221A202100000027842900000027842907/12/20211429    3190333624042196419000051515400000598150000000000000                                                                            MASCARILLA ANESTESIA # 4SIN     1
TI0001107068221A202100000027842900000027842907/12/20211429    3190333624042196419000038568100000258050000000000000                                                                         CANULA OXIGENO NASAL ADULTOSIN     1
TI0001107068221A202100000027842900000027842907/12/20211429    3190333624042196419000011099300000777780000000000000                                                                     FILTRO BACTERIANO VIRICO ADULTOBOL     1
TI0001107068221A202100000027842900000027842907/12/20211429    3190333624042196419000031010900000762730000000000000                                                                          CANULA GUEDEL # 4 (100 MM)SOB     1
TI0001107068221A202100000027842900000027842907/12/20211429    3190333624042196419000020056600001101530000000000000                                                                AGUJA HIPODERMICA DESECH 18G X 1 1/2SOB     2
TI0001107068221A202100000027842900000027842907/12/20211429    3190333624042196419000038569400000256750000000000000                                                                        SONDA ASPIRACION CONTROL #14SIN     1
TI0001107068221A202100000027842900000027842907/12/20211429    3190333624042196419000039174800001072030000000000000                                                                           TUBO ENDOTRAQUEAL C/B 6.0SOB     1
TI0001107068221A202100000027842900000027842907/12/20211429    3190333624042196419000024674000001138340000000000000   JERINGA 3PARTES C/A 10ML REF JEHL005 CAJ X 100 ALFASAFE  21GX1 PULG 1/2 PULG BN EXENTO-DC.417/202PZA    11
TI0001107068221A202100000027842900000027842907/12/20211429    3190333624042196419000024674500000322810000000000000                                                                   JERINGA DESECHABLE 20 ml 21*1 1/2SIN     5
TI0001107068221A202100000027842900000027842907/12/20211429    31903336240421964190000E1AD0200003888320000000000000                                                                              HARTMAN SLN INY 500 MLBOL     2
TI0001107068221A202100000027842900000027842907/12/20211429    31903336240421964190000E1AB0300003888390000000000000                                                            SOLUCION SALINA 0.9% SLN INY BO X 500 MLBOL     4
TI0001107068221A202100000027842900000027842907/12/20211429    31903336240421964190000E1AB0700003888350000000000000                                                            SOLUCION SALINA 0.9% SLN INY BO X 250 MLBOL     3
TI0001107068221A202100000027842900000027842907/12/20211429    31903336240421964190000E1AB0200000199290000000000000                                                            SOLUCION SALINA 0.9% SLN INY BO X 100 MLBIN     6
TI0001107068221A202100000027842900000027842907/12/20211429    31903336240421964190000N02B1100001464120000000000000                                           PARACETAMOL EP 1000MG/100ML(10MG/ML) SOL INY  CAJ X 10FCOVAL     1
TI0001107068221A202100000027842900000027842907/12/20211429    31903336240421964190000N01A0400003939010000000000000                                               MAYOPROFOL 200MG/20ML(1%) EMUL INY CAJ X 1VIAL X 20MLVAL     1
TI0001107068221A202100000027842900000027842907/12/20211429    31903336240421964190000H02AB500001664950000000000000                                                            DEXAMETASONA SLN INY 8 MG/2 ML AMP /CDS/AMP     1
TI0001107068221A202100000027842900000027842907/12/20211429    31903336240421964190000C01C0300001261020000000000000                                                               ETILEFRINA HCL SLN INY 10 MG/1 ML /R/AMP     1
TI0001107068221A202100000027842900000027842907/12/20211429    31903336240421964190000N1BA2400001687720000000000000                                                    LIDOCAINA 2% SOL INY  CAJ X 50AMP X 10ML CORPAULAMP     2
TI0001107068221A202100000027842900000027842907/12/20211429    31903336240421964190000N2AA0700001587170000000000000                                                                                 ULTIVA Sln Iny 2 mgVAL     1
