TI0001145926178H202100015052808400015052808407/12/20211451    3190315223742196425000001956000001620610000000000000                                                                      CONECTOR MICRO CLAVE LAT-MC100SOB     1
CC0001051681679H202100015052808400015052808407/12/20211451    31903152237421964250000Q1AA7300000610640000000000000                                                            CATETER PERIFE INTROCAN # 22G 4251628-04SIN     1
CC0001051681679H202100015052808400015052808407/12/20211451    3190315223742196425000016830000000970620000000000000                                                             SIST FIJACION CAT PERIFERICO 6.5X7 1683SOB     1
TI0001145926178H202100015052808400015052808407/12/20211451    3190315223742196425000016830000000970620000000000000                                                             SIST FIJACION CAT PERIFERICO 6.5X7 1683SOB     1
