CC0000013887621H202100000556654200000556654207/12/20211438     330000923742196425000011808300000218190000000000000                                                   DORMICUM IV 50MG/10ML(5MG/ML) SOL INY  CAJ X 5AMPAMP     1
CC0000013887621H202100000556654200000556654207/12/20211437     330000923742196425000011808300000218190000000000000                                                   DORMICUM IV 50MG/10ML(5MG/ML) SOL INY  CAJ X 5AMPAMP    16
CC0000013887621H202100000556654200000556654207/12/20211436     330000923742196425000011808300000218190000000000000                                                   DORMICUM IV 50MG/10ML(5MG/ML) SOL INY  CAJ X 5AMPAMP     3
CC0000013887621H202100000556654200000556654207/12/20210921     3300009237421964250000A2BC0900000200150000000000000                                                                               ORAZOLE Sln Iny 40 mgCIN     1
CC0000013887621H202100000556654200000556654207/12/20210922     3300009237421964250000A11DA300001278410000000000000                                                                                  TIAMINA TAB 300 MGTAB     1
CC0000013887621H202100000556654200000556654207/12/20210922     3300009237421964250000A11GA400001337200000000000000                                                                               VITAMINA C Tab 500 mgTAB     6
CC0000013887621H202100000556654200000556654207/12/20210349     3300004237421964250000A11GA400001337200000000000000                                                                               VITAMINA C Tab 500 mgTAB     2
CC0000013887621H202100000556654200000556654207/12/20210739    31901450237421964250000E1AA0800000322190000000000000                                                                          DEXTROSA 5% Sln Iny 250 mlBIN     1
CC0000013887621H202100000556654200000556654207/12/20211449    31900926237421964250000E1AB0200000199290000000000000                                                            SOLUCION SALINA 0.9% SLN INY BO X 100 MLBIN    12
CC0000013887621H202100000556654200000556654207/12/20210739    31901450237421964250000E1AB0200000199290000000000000                                                            SOLUCION SALINA 0.9% SLN INY BO X 100 MLBIN    15
CC0000013887621H202100000556654200000556654207/12/20210740    31901450237421964250000E1AB0500003888400000000000000                                                              SOLUCION SALINA 0.9% SLN INY X 1000 MLBOL     1
CC0000013887621H202100000556654200000556654207/12/20210922     3300009237421964250000C01CA100001395620000000000000                                                                    DOBUTAMINA SLN INY 250 MG / 5 MLVAL     3
CC0000013887621H202100000556654200000556654207/12/20210922     3300009237421964250000C2AC0100001277460000000000000                                                                              CATAPRESAN TAB 150 MCGCOM     2
CC0000013887621H202100000556654200000556654207/12/20210921     3300009237421964250000C2AC0100001277460000000000000                                                                              CATAPRESAN TAB 150 MCGCOM     1
CC0000013887621H202100000556654200000556654207/12/20210922     3300009237421964250000C7FA0200001277980000000000000                                                                                    NORVAS TAB 10 MGTAB     1
CC0000013887621H202100000556654200000556654207/12/20210921     3300009237421964250000C09CA400001277130000000000000                                                                                  LOSARTAN TAB 50 MGTAB     2
CC0000013887621H202100000556654200000556654207/12/20210923     3300009237421964250000J01D1300001469600000000000000                                                                               POZINEG POLVO INY 1 GVAL     1
CC0000013887621H202100000556654200000556654207/12/20210922     3300009237421964250000J01D1300001469600000000000000                                                                               POZINEG POLVO INY 1 GVAL     5
CC0000013887621H202100000556654200000556654207/12/20210349     3300004237421964250000J01D1300001469600000000000000                                                                               POZINEG POLVO INY 1 GVAL     2
CC0000013887621H202100000556654200000556654207/12/20210349     3300004237421964250000J02A0500000467570000000000000                                                                      DIFLUCAN SLN INY 200 MG/100 MLFCO     1
CC0000013887621H202100000556654200000556654207/12/20210922     3300009237421964250000N07X0300003913670000000000000                                    DEXMEDETOMIDINA 400MCG/100ML(4MCG/ML) SOL INY BOL X 100ML BAXTERBOL     3
CC0000013887621H202100000556654200000556654207/12/20210921     3300009237421964250000N5AD0500000217620000000000000                                                                         HALOPIDOL Sln Iny 5 mg/1 mlAMP     3
CC0000013887621H202100000556654200000556654207/12/20210348     3300004237421964250000N5AD0500000217620000000000000                                                                         HALOPIDOL Sln Iny 5 mg/1 mlAMP     3
CC0000013887621H202100000556654200000556654207/12/20210921     3300009237421964250000N05A0500001336370000000000000                                                                              SEROQUEL TAB 25 MG /R/TAB     2
CC0000013887621H202100000556654200000556654207/12/20210921     3300009237421964250000A11A2200001050880000000000000                                                                 GLUCERNA LIQUIDO 1.5 KCAL X 1000 MLFCO     1
CC0000013887621H202100000556654200000556654207/12/20211436     3300009237421964250000N1AH0200003906560000000000000                                                                     FENTANIL Iny 0.05 mg/ml x 10 mlAMP    10
CC0000013887621H202100000556654200000556654207/12/20211449    31900926237421964250000V07A1300000502600000000000000                                                                                AGUA ESTERIL x 10 mlAMP    10
