TI0001121302704H202100015032652600015032652607/12/20211939    3190327223742196425000022426800001140510000000000000                                                                    EQUIPO MACROGOTEO BAXTER MRC0001SOB     1
RC0001043476962H202100015032652600015032652607/12/20211939    3190327223742196425000022426800001140510000000000000                                                                    EQUIPO MACROGOTEO BAXTER MRC0001SOB     1
TI0001121302704H202100015032652600015032652607/12/20211939    3190327223742196425000011082700001620070000000000000                                                               EQUIPO SET PRIMARIO C/CLAVE REF 14001BOL     1
RC0001034521434H202100015032652600015032652607/12/20211939    3190327223742196425000011082700001620070000000000000                                                               EQUIPO SET PRIMARIO C/CLAVE REF 14001BOL     1
RC0001043476962H202100015032652600015032652607/12/20211939    3190327223742196425000001956000001620610000000000000                                                                      CONECTOR MICRO CLAVE LAT-MC100SOB     1
RC0001043476962H202100015032652600015032652607/12/20211939    31903272237421964250000Q1AA7400003911720000000000000                                                            CATETER PERIFE INTROCAN # 24G 4251601-04SOB     2
TI0001121302704H202100015032652600015032652607/12/20211939    3190327223742196425000030936900001431840000000000000                                                                                              BURETABOL     2
RC0001034521434H202100015032652600015032652607/12/20211939    3190327223742196425000030936900001431840000000000000                                                                                              BURETABOL     1
RC0001043476962H202100015032652600015032652607/12/20211939    3190327223742196425000016830000000970620000000000000                                                             SIST FIJACION CAT PERIFERICO 6.5X7 1683SOB     1
CC0000008312237H202100015032652600015032652607/12/20211939    31903272237421964250000E1BA0700000198910000000000000                                                                   UROMATIC Sln IRRIGACION X 3000 MLBIN     4
RC0001034521434H202100015032652600015032652607/12/20211939    31903272237421964250000E1AD0300000199490000000000000                                         LACTATO RINGER USP (HARTMANN)  SOL INY  BOL X 1000ML BAXTERBIN     2
RC0001043476962H202100015032652600015032652607/12/20211939    31903272237421964250000E1AD0300000199490000000000000                                         LACTATO RINGER USP (HARTMANN)  SOL INY  BOL X 1000ML BAXTERBIN     1
CC0000064541334H202100015032652600015032652607/12/20211939    31903272237421964250000E1AD0300000199490000000000000                                         LACTATO RINGER USP (HARTMANN)  SOL INY  BOL X 1000ML BAXTERBIN     1
CC0000052008281H202100015032652600015032652607/12/20211939    31903272237421964250000E1AB0500003888400000000000000                                                              SOLUCION SALINA 0.9% SLN INY X 1000 MLBOL     2
CC0001082907687H202100015032652600015032652607/12/20211939    31903272237421964250000E1AB0500003888400000000000000                                                              SOLUCION SALINA 0.9% SLN INY X 1000 MLBOL     1
CC0001140904273H202100015032652600015032652607/12/20211939    31903272237421964250000E1AB0500003888400000000000000                                                              SOLUCION SALINA 0.9% SLN INY X 1000 MLBOL     2
CC0000008312237H202100015032652600015032652607/12/20211939    31903272237421964250000E1AB0500003888400000000000000                                                              SOLUCION SALINA 0.9% SLN INY X 1000 MLBOL     2
CC0001045670902H202100015032652600015032652607/12/20211939    31903272237421964250000E1AB0500003888400000000000000                                                              SOLUCION SALINA 0.9% SLN INY X 1000 MLBOL     1
RC0001043472141H202100015032652600015032652607/12/20211939    31903272237421964250000E1AA0100003888590000000000000                                                                        DEXTROSA 5% Sln Iny X 500 mlBOL     2
TI0001121302704H202100015032652600015032652607/12/20211939    31903272237421964250000E1AA0100003888590000000000000                                                                        DEXTROSA 5% Sln Iny X 500 mlBOL     2
