RC0001016919305U202100050131951700050131951707/12/20211057    3150024623942196432000024673600000222980000000000000                                                                     JERINGA DESECHABLE 5 ml 27*11/2SIN     2
RC0001016919305U202100050131951700050131951707/12/20211057    3150024623942196432000042743200003929860000000000000                   GASA ADHESIVA STRETCH REF 02038-00 ROL X 10MT FIXOMULL 15CM BN EXENTO-DC.417/2020CMT    15
RC0001016919305U202100050131951700050131951707/12/20211057    3150024623942196432000011082700001620070000000000000                                                               EQUIPO SET PRIMARIO C/CLAVE REF 14001BOL     1
RC0001016919305U202100050131951700050131951707/12/20211057    3150024623942196432000001956000001620610000000000000                                                                      CONECTOR MICRO CLAVE LAT-MC100SOB     1
RC0001016919305U202100050131951700050131951707/12/20211057    31500246239421964320000Q1AA7400003911720000000000000                                                            CATETER PERIFE INTROCAN # 24G 4251601-04SOB     1
RC0001016919305U202100050131951700050131951707/12/20211057    3150024623942196432000030936900001431840000000000000                                                                                              BURETABOL     1
RC0001016919305U202100050131951700050131951707/12/20211057    31500246239421964320000E1AD0300000199490000000000000                                         LACTATO RINGER USP (HARTMANN)  SOL INY  BOL X 1000ML BAXTERBIN     1
