CC0001129519683U202100000556676200000556676207/12/20211821    31500246239421964320000E1AB0200000199290000000000000                                                            SOLUCION SALINA 0.9% SLN INY BO X 100 MLBIN     2
CC0001129519683U202100000556676200000556676207/12/20211626     3300004239421964320000H02AB500001664950000000000000                                                            DEXAMETASONA SLN INY 8 MG/2 ML AMP /CDS/AMP     1
CC0001129519683U202100000556676200000556676207/12/20211626     3300004239421964320000M1AE2500000191550000000000000                                                            PROFENID POLVO LIOF SLN INY 100MG/2ML/R/AMP     1
CC0001129519683U202100000556676200000556676207/12/20211626     3300004239421964320000N2AX0500001204110000000000000                                                                          TRAMAL SLN INY 100 MG / MLAMP     1
CC0001129519683U202100000556676200000556676207/12/20211626     3300004239421964320000N03A0800001278440000000000000                                                                                LYRICA CAP 75 MG /R/CAP     1
