PA00000HD888001U202100050131957700050131957707/12/20212040    3150018823942196432000024674000001138340000000000000   JERINGA 3PARTES C/A 10ML REF JEHL005 CAJ X 100 ALFASAFE  21GX1 PULG 1/2 PULG BN EXENTO-DC.417/202PZA     1
PA00000HD888001U202100050131957700050131957707/12/20212040    3150018823942196432000030936900001431840000000000000                                                                                              BURETABOL     1
PA00000HD888001U202100050131957700050131957707/12/20212040    31500188239421964320000E1AB0300003888390000000000000                                                            SOLUCION SALINA 0.9% SLN INY BO X 500 MLBOL     1
