RC0001046723141H202100015122548300015122548307/12/20210116    3190307023742196425000038572900000256860000000000000                                                                                 SONDA NSG LEVIN #14SIN     1
RC0001046723141H202100015122548300015122548307/12/20210116    3190307023742196425000011522100000994360000000000000                                                                    SONDA FOLEY SILICONA # 12 2 VIASSOB     1
RC0001046723141H202100015122548300015122548307/12/20210116    3190307023742196425000043485100001618510000000000000                GUANTE QUIRURGICO DE LATEX REF 2D72N65X CAJ X 50 PROTEXIS  6.5 BN EXENTO-DC.417/2020SOB     2
RC0001102897681H202100015122548300015122548307/12/20210116    3190307023742196425000011082200001407940000000000000                                                              EQUIPO EXT MICROTUBO Y 2 VALVUL 2N8371SOB     1
RC0001063188076H202100015122548300015122548307/12/20210116    3190307023742196425000011082200001407940000000000000                                                              EQUIPO EXT MICROTUBO Y 2 VALVUL 2N8371SOB     1
RC0001046723141H202100015122548300015122548307/12/20210116    31903070237421964250000Q1AA5900000236800000000000000                                                                            CISTOFLO PEDIAT X 500 mlSIN     1
RC0001046723141H202100015122548300015122548307/12/20210116    3190307023742196425000031188000000236790000000000000                                                                                     CISTOFLO ADULTOSIN     1
RC0001102897681H202100015122548300015122548307/12/20210116    3190307023742196425000001956000001620610000000000000                                                                      CONECTOR MICRO CLAVE LAT-MC100SOB     1
RC0001063188076H202100015122548300015122548307/12/20210116    31903070237421964250000Q1AA7400003911720000000000000                                                            CATETER PERIFE INTROCAN # 24G 4251601-04SOB     3
RC0001102897681H202100015122548300015122548307/12/20210116    3190307023742196425000030936900001431840000000000000                                                                                              BURETABOL     1
