CC0001102230882U202100050131948400050131948407/12/20210113    31902010239421964320000V07A1300000502600000000000000                                                                                AGUA ESTERIL x 10 mlAMP     1
CC0001002033260U202100050131948400050131948407/12/20210113    3190201023942196432000024674000001138340000000000000   JERINGA 3PARTES C/A 10ML REF JEHL005 CAJ X 100 ALFASAFE  21GX1 PULG 1/2 PULG BN EXENTO-DC.417/202PZA     1
CC0001102230882U202100050131948400050131948407/12/20210113    3190201023942196432000024673600000222980000000000000                                                                     JERINGA DESECHABLE 5 ml 27*11/2SIN     1
CC0001002033260U202100050131948400050131948407/12/20210113    3190201023942196432000022426800001140510000000000000                                                                    EQUIPO MACROGOTEO BAXTER MRC0001SOB     1
CC0000072051777U202100050131948400050131948407/12/20210113    3190201023942196432000001956000001620610000000000000                                                                      CONECTOR MICRO CLAVE LAT-MC100SOB     1
CC0000072051777U202100050131948400050131948407/12/20210113    31902010239421964320000Q1AA7200000610630000000000000                                                            CATETER PERIFE INTROCAN # 20G 4251644-04SIN     1
CC0000072051777U202100050131948400050131948407/12/20210113    3190201023942196432000016830000000970620000000000000                                                             SIST FIJACION CAT PERIFERICO 6.5X7 1683SOB     1
CC0001102230882U202100050131948400050131948407/12/20210113    3190201023942196432000020057000001101570000000000000                                                                  AGUJA HIPODERMICA DESECH 20G X 1.5SOB     1
CC0001002033260U202100050131948400050131948407/12/20210113    31902010239421964320000E1AB0200000199290000000000000                                                            SOLUCION SALINA 0.9% SLN INY BO X 100 MLBIN     1
