CC0001066890191H202100015112742700015112742707/12/20210148    3190265123742196425000022426800001140510000000000000                                                                    EQUIPO MACROGOTEO BAXTER MRC0001SOB     1
CC0000007444684H202100015112742700015112742707/12/20210148    3190265123742196425000022426800001140510000000000000                                                                    EQUIPO MACROGOTEO BAXTER MRC0001SOB     1
CC0001066890191H202100015112742700015112742707/12/20210148    3190265123742196425000011082700001620070000000000000                                                               EQUIPO SET PRIMARIO C/CLAVE REF 14001BOL     3
CC0000007444684H202100015112742700015112742707/12/20210148    3190265123742196425000011082700001620070000000000000                                                               EQUIPO SET PRIMARIO C/CLAVE REF 14001BOL     1
CC0000022352292H202100015112742700015112742707/12/20210148    3190265123742196425000011082700001620070000000000000                                                               EQUIPO SET PRIMARIO C/CLAVE REF 14001BOL     1
CC0000007444684H202100015112742700015112742707/12/20210148    3190265123742196425000001956000001620610000000000000                                                                      CONECTOR MICRO CLAVE LAT-MC100SOB     1
CC0000022352292H202100015112742700015112742707/12/20210148    3190265123742196425000001956000001620610000000000000                                                                      CONECTOR MICRO CLAVE LAT-MC100SOB     1
CC0000007444684H202100015112742700015112742707/12/20210148    31902651237421964250000Q1AA7200000610630000000000000                                                            CATETER PERIFE INTROCAN # 20G 4251644-04SIN     1
CC0000022352292H202100015112742700015112742707/12/20210148    31902651237421964250000Q1AA7200000610630000000000000                                                            CATETER PERIFE INTROCAN # 20G 4251644-04SIN     2
CC0000007444684H202100015112742700015112742707/12/20210148    31902651237421964250000Q1AA7300000610640000000000000                                                            CATETER PERIFE INTROCAN # 22G 4251628-04SIN     1
CC0000007444684H202100015112742700015112742707/12/20210148    3190265123742196425000016830000000970620000000000000                                                             SIST FIJACION CAT PERIFERICO 6.5X7 1683SOB     1
CC0000022352292H202100015112742700015112742707/12/20210148    3190265123742196425000016830000000970620000000000000                                                             SIST FIJACION CAT PERIFERICO 6.5X7 1683SOB     1
CC0001066890191H202100015112742700015112742707/12/20210148    3190265123742196425000011127400001413910000000000000                                                            EQUIPO ADMINIST NUTR PUNZON REF 674669 BBOL     1
