RC0001043476962H202100015032651700015032651707/12/20210717    3150051523742196425000035801900001101780000000000000                                                                    NEBULIZADOR C/MASCARA PEDIATRICOSOB     1
RC0001043476962H202100015032651700015032651707/12/20210717    3150051523742196425000024674000001138340000000000000   JERINGA 3PARTES C/A 10ML REF JEHL005 CAJ X 100 ALFASAFE  21GX1 PULG 1/2 PULG BN EXENTO-DC.417/202PZA     2
RC0001043476962H202100015032651700015032651707/12/20210717    31500515237421964250000E1AB0200000199290000000000000                                                            SOLUCION SALINA 0.9% SLN INY BO X 100 MLBIN     1
