CC0000022265715H202100000556647300000556647307/12/20211658     3300009237421964250000A7DA0100001303560000000000000                                                                                 LOPERAMIDA TAB 2 MGTAB     2
CC0000022265715H202100000556647300000556647307/12/20210854     3300009237421964250000A07A0400001270530000000000000                                                            HONGISTINA SUSP ORA 100000 UI/ML X 60 MLFCO     1
CC0000022265715H202100000556647300000556647307/12/20210057     3300004237421964250000B1AB0200003939510000000000000                 ENOXAPARINA SODICA 40MG/0.4ML(100MG/ML) SOL INY INST CAJ X 2JERPREL X 0.4ML TECHDOWJRP     1
CC0000022265715H202100000556647300000556647307/12/20211834    31900931237421964250000E1AB0300003888390000000000000                                                            SOLUCION SALINA 0.9% SLN INY BO X 500 MLBOL     4
CC0000022265715H202100000556647300000556647307/12/20212127    31903271237421964250000E1AB0500003888400000000000000                                                              SOLUCION SALINA 0.9% SLN INY X 1000 MLBOL     1
CC0000022265715H202100000556647300000556647307/12/20212116     3300009237421964250000N03A0100001315290000000000000                                                                              LAMICTAL TAB 50 MG /R/TAB     1
CC0000022265715H202100000556647300000556647307/12/20210057     3300004237421964250000N03A0100001315290000000000000                                                                              LAMICTAL TAB 50 MG /R/TAB     2
CC0000022265715H202100000556647300000556647307/12/20211159     3300009237421964250000V6DB4800000563080000000000000                                                                            OSMOLITE HN PLUS x 8 OnzLAT     3
CC0000022265715H202100000556647300000556647307/12/20210854     3300009237421964250000A03BB100003889180000000000000                                      HIOSCINA BUTIL BROMURO 20MG/ML SOL INY CAJ X 100AMP X 1ML RYANAMP     2
CC0000022265715H202100000556647300000556647307/12/20210057     3300004237421964250000A03BB100003889180000000000000                                      HIOSCINA BUTIL BROMURO 20MG/ML SOL INY CAJ X 100AMP X 1ML RYANAMP     2
CC0000022265715H202100000556647300000556647307/12/20211902     3300009237421964250000C03C0100001672000000000000000                                                                       FUROSEMIDA SLN INY 20 MG/2 MLAMP     3
CC0000022265715H202100000556647300000556647307/12/20210855     3300009237421964250000N2BE2200001252930000000000000                                                                             ACETAMINOFEN Tab 500 MGTAB     8
CC0000022265715H202100000556647300000556647307/12/20210057     3300004237421964250000A02BC700001684270000000000000                                                            OMEPRAZOL 40MG POLVO LIOFILIZADO AMPOLLAVAL     2
