CC0000012576309H202100000556648700000556648707/12/20211024     3300009237421964250000A2BC0600001335730000000000000                                                                                   ORAZOLE CAP 40 MGCAP     1
CC0000012576309H202100000556648700000556648707/12/20211023     3300009237421964250000B1AB0200003939510000000000000                 ENOXAPARINA SODICA 40MG/0.4ML(100MG/ML) SOL INY INST CAJ X 2JERPREL X 0.4ML TECHDOWJRP     1
CC0000012576309H202100000556648700000556648707/12/20211145    31900630237421964250000E1AD0300000199490000000000000                                         LACTATO RINGER USP (HARTMANN)  SOL INY  BOL X 1000ML BAXTERBIN     1
CC0000012576309H202100000556648700000556648707/12/20211601     3300009237421964250000N3AG0400001337010000000000000                                                                              VALCOTE TAB 500 MG /R/TAB     2
CC0000012576309H202100000556648700000556648707/12/20211600     3300009237421964250000N3AG0400001337010000000000000                                                                              VALCOTE TAB 500 MG /R/TAB     1
CC0000012576309H202100000556648700000556648707/12/20211023     3300009237421964250000N3AG0400001337010000000000000                                                                              VALCOTE TAB 500 MG /R/TAB     3
CC0000012576309H202100000556648700000556648707/12/20211600     3300009237421964250000N03A1200001277430000000000000                                                                               KEPPRA TAB 500 MG /R/TAB     3
CC0000012576309H202100000556648700000556648707/12/20211024     3300009237421964250000N03A1200001277430000000000000                                                                               KEPPRA TAB 500 MG /R/TAB     2
CC0000012576309H202100000556648700000556648707/12/20211024     3300009237421964250000N03A2300001337150000000000000                                                                               VIMPAT TAB 100 MG /R/TAB     3
CC0000012576309H202100000556648700000556648707/12/20211023     3300009237421964250000V06D1400000968430000000000000                                                                              JEVITY iquido x 500 mlFCO     1
