CC0001143259393H202100000556651500000556651507/12/20211828     3300009237421964250000A02BC100001677520000000000000                                                                ESOMEPRAZOL POLVO LIOF INY 40 MG /R/VAL     1
CC0001143259393H202100000556651500000556651507/12/20211828     3300009237421964250000A4AD0200000202990000000000000                                                                     PLITICAN HCL Sln Iny 50 mg/2 mlAMP     2
CC0001143259393H202100000556651500000556651507/12/20210250     3300004237421964250000A6AC0200001467010000000000000                                                             LACTULAX JARABE 66.7G/100ML SOX15ML /R/SOB     2
CC0001143259393H202100000556651500000556651507/12/20211828     3300009237421964250000B1AB0200003939510000000000000                 ENOXAPARINA SODICA 40MG/0.4ML(100MG/ML) SOL INY INST CAJ X 2JERPREL X 0.4ML TECHDOWJRP     1
CC0001143259393H202100000556651500000556651507/12/20211828     3300009237421964250000J01DB300000553200000000000000                                                                         CEFALOTINA SLN INY 1 G VIALVAL     2
CC0001143259393H202100000556651500000556651507/12/20211827     3300009237421964250000J01DB300000553200000000000000                                                                         CEFALOTINA SLN INY 1 G VIALVAL     2
CC0001143259393H202100000556651500000556651507/12/20211603     3300009237421964250000N2AX0400001204140000000000000                                                                             TRAMAL Sln Iny 50 mg/mlAMP     1
CC0001143259393H202100000556651500000556651507/12/20211003     3300009237421964250000N2AX0400001204140000000000000                                                                             TRAMAL Sln Iny 50 mg/mlAMP     1
CC0001143259393H202100000556651500000556651507/12/20210250     3300004237421964250000N2AX0400001204140000000000000                                                                             TRAMAL Sln Iny 50 mg/mlAMP     1
CC0001143259393H202100000556651500000556651507/12/20211828     3300009237421964250000N2BE2200001252930000000000000                                                                             ACETAMINOFEN Tab 500 MGTAB     8
