CC0001140828909H202100000556651900000556651907/12/20211006     3300009237421964250000J01F0200001689390000000000000                                                                        CLINDAMICINA INY 600 MG/4 MLAMP     1
CC0001140828909H202100000556651900000556651907/12/20210253     3300004237421964250000J01F0200001689390000000000000                                                                        CLINDAMICINA INY 600 MG/4 MLAMP     3
CC0001140828909H202100000556651900000556651907/12/20212133     3300009237421964250000J1KD0400000335010000000000000                                                                      GENTAMICINA SLN INY 80 MG/2 MLAMP     2
CC0001140828909H202100000556651900000556651907/12/20211605     3300009237421964250000J1KD0400000335010000000000000                                                                      GENTAMICINA SLN INY 80 MG/2 MLAMP     2
CC0001140828909H202100000556651900000556651907/12/20211007     3300009237421964250000J1KD0400000335010000000000000                                                                      GENTAMICINA SLN INY 80 MG/2 MLAMP     2
CC0001140828909H202100000556651900000556651907/12/20211007     3300009237421964250000N2BE2200001252930000000000000                                                                             ACETAMINOFEN Tab 500 MGTAB     2
CC0001140828909H202100000556651900000556651907/12/20210253     3300004237421964250000N2BE2200001252930000000000000                                                                             ACETAMINOFEN Tab 500 MGTAB     4
CC0001140828909H202100000556651900000556651907/12/20211007     3300009237421964250000N2BB0100001672010000000000000                                  DIPIRONA 1GR/2ML(0.5GR/ML) SOL INY INST CAJ X 100AMP X 2ML VITALISAMP     1
CC0001140828909H202100000556651900000556651907/12/20210253     3300004237421964250000N2BB0100001672010000000000000                                  DIPIRONA 1GR/2ML(0.5GR/ML) SOL INY INST CAJ X 100AMP X 2ML VITALISAMP     2
