CC0001104008600H202100000556655800000556655807/12/20211512    31902975237421964250000E1AB0200000199290000000000000                                                            SOLUCION SALINA 0.9% SLN INY BO X 100 MLBIN     3
CC0001104008600H202100000556655800000556655807/12/20210629    31902064237421964250000E1AB0300003888390000000000000                                                            SOLUCION SALINA 0.9% SLN INY BO X 500 MLBOL     2
CC0001104008600H202100000556655800000556655807/12/20211039    31902787237421964250000E1AD0200003888320000000000000                                                                              HARTMAN SLN INY 500 MLBOL     1
CC0001104008600H202100000556655800000556655807/12/20212120    31500519237421964250000E1AD0300000199490000000000000                                         LACTATO RINGER USP (HARTMANN)  SOL INY  BOL X 1000ML BAXTERBIN     1
CC0001104008600H202100000556655800000556655807/12/20210635    31902064237421964250000E1AD0300000199490000000000000                                         LACTATO RINGER USP (HARTMANN)  SOL INY  BOL X 1000ML BAXTERBIN     1
CC0001104008600H202100000556655800000556655807/12/20210629    31902064237421964250000E1AD0300000199490000000000000                                         LACTATO RINGER USP (HARTMANN)  SOL INY  BOL X 1000ML BAXTERBIN     1
CC0001104008600H202100000556655800000556655807/12/20211635     3300009237421964250000V6DB4300000326520000000000000                                                                               OSMOLITE HN x 1500 mlFCO     1
CC0001104008600H202100000556655800000556655807/12/20211339     3300009237421964250000V6DB4300000326520000000000000                                                                               OSMOLITE HN x 1500 mlFCO     1
CC0001104008600H202100000556655800000556655807/12/20211339     3300009237421964250000C08CA300001313930000000000000                                                                                AMLODIPINO TAB 10 MGTAB     2
CC0001104008600H202100000556655800000556655807/12/20211339     3300009237421964250000N05A1700001278300000000000000                                                                            QUETIAPINA TAB 25 MG /R/TAB     6
CC0001104008600H202100000556655800000556655807/12/20211045     3300009237421964250000N05BA100001303610000000000000                                                                                  LORAZEPAM TAB 2 MGTAB     1
CC0001104008600H202100000556655800000556655807/12/20211339     3300009237421964250000A02BC700001684270000000000000                                                            OMEPRAZOL 40MG POLVO LIOFILIZADO AMPOLLAVAL     2
CC0001104008600H202100000556655800000556655807/12/20211754    31903301237421964250000V07A1300000502600000000000000                                                                                AGUA ESTERIL x 10 mlAMP     6
