CC0000080424776H202100000556651200000556651207/12/20211155     3300009237421964250000A02B0600001277230000000000000                                                                                NEXIUM Tab 40 mg /R/TAB     1
CC0000080424776H202100000556651200000556651207/12/20211155     3300009237421964250000B1AB0200003939510000000000000                 ENOXAPARINA SODICA 40MG/0.4ML(100MG/ML) SOL INY INST CAJ X 2JERPREL X 0.4ML TECHDOWJRP     1
CC0000080424776H202100000556651200000556651207/12/20212337    31903259237421964250000E1AD0300000199490000000000000                                         LACTATO RINGER USP (HARTMANN)  SOL INY  BOL X 1000ML BAXTERBIN     1
CC0000080424776H202100000556651200000556651207/12/20211707    31903219237421964250000E1AD0300000199490000000000000                                         LACTATO RINGER USP (HARTMANN)  SOL INY  BOL X 1000ML BAXTERBIN     2
CC0000080424776H202100000556651200000556651207/12/20210240    31500088237421964250000E1AD0300000199490000000000000                                         LACTATO RINGER USP (HARTMANN)  SOL INY  BOL X 1000ML BAXTERBIN     1
CC0000080424776H202100000556651200000556651207/12/20212111     3300009237421964250000H02A0100001664960000000000000                                                                        DEXAMETASONA SLN INY 4 MG/MLAMP     1
CC0000080424776H202100000556651200000556651207/12/20211155     3300009237421964250000J3CB2100000547740000000000000                                                                      CIPRO IV SLN INY 400 Mg/200 MLFCO     2
CC0000080424776H202100000556651200000556651207/12/20211155     3300009237421964250000N2BE2400001313800000000000000                                                                           SINALGEN TAB 5/325 MG /R/TAB     3
CC0000080424776H202100000556651200000556651207/12/20211453     3300009237421964250000N02B1100001464120000000000000                                           PARACETAMOL EP 1000MG/100ML(10MG/ML) SOL INY  CAJ X 10FCOVAL     1
CC0000080424776H202100000556651200000556651207/12/20211155     3300009237421964250000N02B1100001464120000000000000                                           PARACETAMOL EP 1000MG/100ML(10MG/ML) SOL INY  CAJ X 10FCOVAL     2
CC0000080424776H202100000556651200000556651207/12/20211155     3300009237421964250000N3AB0900001278210000000000000                                                                            NEURONTIN CAP 300 mg /R/CAP     1
CC0000080424776H202100000556651200000556651207/12/20211155     3300009237421964250000N03A0800001278440000000000000                                                                                LYRICA CAP 75 MG /R/CAP     1
