CC0001042417933U202100050131954900050131954907/12/20211603    3200080323942196432000024674000001138340000000000000   JERINGA 3PARTES C/A 10ML REF JEHL005 CAJ X 100 ALFASAFE  21GX1 PULG 1/2 PULG BN EXENTO-DC.417/202PZA     1
CC0000080041956U202100050131954900050131954907/12/20211603    3200080323942196432000024674000001138340000000000000   JERINGA 3PARTES C/A 10ML REF JEHL005 CAJ X 100 ALFASAFE  21GX1 PULG 1/2 PULG BN EXENTO-DC.417/202PZA     1
CC0000080041956U202100050131954900050131954907/12/20211603    3200080323942196432000001956000001620610000000000000                                                                      CONECTOR MICRO CLAVE LAT-MC100SOB     1
CC0000080041956U202100050131954900050131954907/12/20211603    32000803239421964320000Q1AA7100000610620000000000000                                                            CATETER PERIFE INTROCAN # 18G 4251687-04SIN     1
CC0001042417933U202100050131954900050131954907/12/20211603    3200080323942196432000030936900001431840000000000000                                                                                              BURETABOL     1
CC0000080041956U202100050131954900050131954907/12/20211603    3200080323942196432000016830000000970620000000000000                                                             SIST FIJACION CAT PERIFERICO 6.5X7 1683SOB     1
