RC0001143474189H202100015132530500015132530507/12/20211809    3190311723742196425000001956000001620610000000000000                                                                      CONECTOR MICRO CLAVE LAT-MC100SOB     1
RC0001143474189H202100015132530500015132530507/12/20211809    31903117237421964250000Q1AA7400003911720000000000000                                                            CATETER PERIFE INTROCAN # 24G 4251601-04SOB     2
RC0001143474189H202100015132530500015132530507/12/20211809    3190311723742196425000000602600001259280000000000000                                                             APOSITO TEGADERM IV PD 1610 5CM X 5.7CMSOB     1
