CC0000072238869U202100050131954800050131954807/12/20211547    3190217123942196432000012475800000232220000000000000                                                                SUTURA ETHILON 4-0 PS-2  45CM P1667TSIN     1
CC0001124025940U202100050131954800050131954807/12/20211547    3190217123942196432000038570100001124990000000000000                                                                              SONDA FOLEY #18 2 VIASSOB     1
CC0000072238869U202100050131954800050131954807/12/20211547    3190217123942196432000038570100001124990000000000000                                                                              SONDA FOLEY #18 2 VIASSOB     1
CC0000072238869U202100050131954800050131954807/12/20211547    3190217123942196432000024674000001138340000000000000   JERINGA 3PARTES C/A 10ML REF JEHL005 CAJ X 100 ALFASAFE  21GX1 PULG 1/2 PULG BN EXENTO-DC.417/202PZA     6
CC0001124025940U202100050131954800050131954807/12/20211547    3190217123942196432000024674000001138340000000000000   JERINGA 3PARTES C/A 10ML REF JEHL005 CAJ X 100 ALFASAFE  21GX1 PULG 1/2 PULG BN EXENTO-DC.417/202PZA     6
CC0001124025940U202100050131954800050131954807/12/20211547    3190217123942196432000011089300001083990000000000000                                                              GUANTE ESTERIL LATEX S/POLVO TALLA 7.5SOB     2
CC0000072238869U202100050131954800050131954807/12/20211547    3190217123942196432000011089300001083990000000000000                                                              GUANTE ESTERIL LATEX S/POLVO TALLA 7.5SOB     2
CC0001124025940U202100050131954800050131954807/12/20211547    3190217123942196432000013077800000471960000000000000                                                             GASA NO TEJIDA EST 7.5 X 7.5 SOB X 3 UNSOB     6
CC0000072238869U202100050131954800050131954807/12/20211547    3190217123942196432000013077800000471960000000000000                                                             GASA NO TEJIDA EST 7.5 X 7.5 SOB X 3 UNSOB     6
CC0000072238869U202100050131954800050131954807/12/20211547    3190217123942196432000011082700001620070000000000000                                                               EQUIPO SET PRIMARIO C/CLAVE REF 14001BOL     1
CC0001124025940U202100050131954800050131954807/12/20211547    3190217123942196432000011082700001620070000000000000                                                               EQUIPO SET PRIMARIO C/CLAVE REF 14001BOL     1
CC0001124025940U202100050131954800050131954807/12/20211547    3190217123942196432000031188000000236790000000000000                                                                                     CISTOFLO ADULTOSIN     1
CC0000072238869U202100050131954800050131954807/12/20211547    3190217123942196432000031188000000236790000000000000                                                                                     CISTOFLO ADULTOSIN     1
CC0000072238869U202100050131954800050131954807/12/20211547    3190217123942196432000001956000001620610000000000000                                                                      CONECTOR MICRO CLAVE LAT-MC100SOB     1
CC0001124025940U202100050131954800050131954807/12/20211547    3190217123942196432000001956000001620610000000000000                                                                      CONECTOR MICRO CLAVE LAT-MC100SOB     1
CC0000072238869U202100050131954800050131954807/12/20211547    31902171239421964320000Q1AA7100000610620000000000000                                                            CATETER PERIFE INTROCAN # 18G 4251687-04SIN     2
CC0001124025940U202100050131954800050131954807/12/20211547    31902171239421964320000Q1AA7100000610620000000000000                                                            CATETER PERIFE INTROCAN # 18G 4251687-04SIN     2
CC0000072238869U202100050131954800050131954807/12/20211547    3190217123942196432000030936900001431840000000000000                                                                                              BURETABOL     1
CC0001124025940U202100050131954800050131954807/12/20211547    3190217123942196432000030936900001431840000000000000                                                                                              BURETABOL     1
CC0000072238869U202100050131954800050131954807/12/20211547    3190217123942196432000016830000000970620000000000000                                                             SIST FIJACION CAT PERIFERICO 6.5X7 1683SOB     2
CC0001124025940U202100050131954800050131954807/12/20211547    3190217123942196432000016830000000970620000000000000                                                             SIST FIJACION CAT PERIFERICO 6.5X7 1683SOB     2
CC0000072238869U202100050131954800050131954807/12/20211547    31902171239421964320000E1AB0500003888400000000000000                                                              SOLUCION SALINA 0.9% SLN INY X 1000 MLBOL     1
CC0001124025940U202100050131954800050131954807/12/20211547    31902171239421964320000E1AB0500003888400000000000000                                                              SOLUCION SALINA 0.9% SLN INY X 1000 MLBOL     3
CC0000072238869U202100050131954800050131954807/12/20211547    31902171239421964320000E1AB0200000199290000000000000                                                            SOLUCION SALINA 0.9% SLN INY BO X 100 MLBIN     3
CC0001124025940U202100050131954800050131954807/12/20211547    31902171239421964320000E1AB0200000199290000000000000                                                            SOLUCION SALINA 0.9% SLN INY BO X 100 MLBIN     3
