RC0001043197437U202100050131956000050131956007/12/20211748    3150054723942196432000024673000001411210000000000000                                                                  JERINGA DESECHABLE 3 ML 21 X 1 1/2SOB     2
RC0001043197437U202100050131956000050131956007/12/20211748    3150054723942196432000042743200003929860000000000000                   GASA ADHESIVA STRETCH REF 02038-00 ROL X 10MT FIXOMULL 15CM BN EXENTO-DC.417/2020CMT    15
RC0001043197437U202100050131956000050131956007/12/20211748    3150054723942196432000011082700001620070000000000000                                                               EQUIPO SET PRIMARIO C/CLAVE REF 14001BOL     1
TI0001042252875U202100050131956000050131956007/12/20211748    3150054723942196432000001956000001620610000000000000                                                                      CONECTOR MICRO CLAVE LAT-MC100SOB     1
RC0001043197437U202100050131956000050131956007/12/20211748    3150054723942196432000001956000001620610000000000000                                                                      CONECTOR MICRO CLAVE LAT-MC100SOB     1
TI0001042252875U202100050131956000050131956007/12/20211748    31500547239421964320000Q1AA7300000610640000000000000                                                            CATETER PERIFE INTROCAN # 22G 4251628-04SIN     1
RC0001043197437U202100050131956000050131956007/12/20211748    31500547239421964320000Q1AA7400003911720000000000000                                                            CATETER PERIFE INTROCAN # 24G 4251601-04SOB     1
RC0001043197437U202100050131956000050131956007/12/20211748    3150054723942196432000030936900001431840000000000000                                                                                              BURETABOL     1
TI0001042252875U202100050131956000050131956007/12/20211748    3150054723942196432000000602600001259280000000000000                                                             APOSITO TEGADERM IV PD 1610 5CM X 5.7CMSOB     1
RC0001043197437U202100050131956000050131956007/12/20211748    31500547239421964320000E1AD0200003888320000000000000                                                                              HARTMAN SLN INY 500 MLBOL     1
