CC0000032776593H202100920375120700920375120707/12/20212220    3150053223742196425000011085200001585390000000000000                                                                       GUANTE QUIRURGICO TALLA 7 1/2SOB     2
CC0000032776593H202100920375120700920375120707/12/20212220    3150053223742196425000016830000000970620000000000000                                                             SIST FIJACION CAT PERIFERICO 6.5X7 1683SOB     1
CC0000032776593H202100920375120700920375120707/12/20212220    3150053223742196425000024674000001138340000000000000   JERINGA 3PARTES C/A 10ML REF JEHL005 CAJ X 100 ALFASAFE  21GX1 PULG 1/2 PULG BN EXENTO-DC.417/202PZA     8
CC0000032776593H202100920375120700920375120707/12/20212220    3150053223742196425000053074400000607910000000000000                                                               GASA ESTERIL 10*10 SOBRE X 3 UNIDADESSOB     4
CC0000032776593H202100920375120700920375120707/12/20212220    3150053223742196425000001956000001620610000000000000                                                                      CONECTOR MICRO CLAVE LAT-MC100SOB     1
CC0000032776593H202100920375120700920375120707/12/20212220    31500532237421964250000Q1AA7300000610640000000000000                                                            CATETER PERIFE INTROCAN # 22G 4251628-04SIN     1
