CC0000007414345H202100000556655300000556655307/12/20211059     3300009237421964250000C1DA2600001277390000000000000                                                                                PLAVIX TAB 75 MG /R/TAB     2
CC0000007414345H202100000556655300000556655307/12/20210440    31902977237421964250000E1AB0500003888400000000000000                                                              SOLUCION SALINA 0.9% SLN INY X 1000 MLBOL     1
CC0000007414345H202100000556655300000556655307/12/20211059     3300009237421964250000C09C0100001316940000000000000                                                                               DIOVAN TAB 160 MG /R/TAB     1
CC0000007414345H202100000556655300000556655307/12/20211059     3300009237421964250000C10AA400001301110000000000000                                                                                   LIPITOR TAB 40 MGTAB     1
CC0000007414345H202100000556655300000556655307/12/20211059     3300009237421964250000N02B1100001464120000000000000                                           PARACETAMOL EP 1000MG/100ML(10MG/ML) SOL INY  CAJ X 10FCOVAL     1
