TI0001043460575U202100050131955300050131955307/12/20211639    3200080323942196432000024674000001138340000000000000   JERINGA 3PARTES C/A 10ML REF JEHL005 CAJ X 100 ALFASAFE  21GX1 PULG 1/2 PULG BN EXENTO-DC.417/202PZA     1
TI0001043460575U202100050131955300050131955307/12/20211639    3200080323942196432000011082700001620070000000000000                                                               EQUIPO SET PRIMARIO C/CLAVE REF 14001BOL     1
TI0001043460575U202100050131955300050131955307/12/20211639    3200080323942196432000001956000001620610000000000000                                                                      CONECTOR MICRO CLAVE LAT-MC100SOB     1
TI0001043460575U202100050131955300050131955307/12/20211639    32000803239421964320000Q1AA7300000610640000000000000                                                            CATETER PERIFE INTROCAN # 22G 4251628-04SIN     1
TI0001043460575U202100050131955300050131955307/12/20211639    3200080323942196432000030936900001431840000000000000                                                                                              BURETABOL     1
TI0001043460575U202100050131955300050131955307/12/20211639    3200080323942196432000000602600001259280000000000000                                                             APOSITO TEGADERM IV PD 1610 5CM X 5.7CMSOB     1
TI0001043460575U202100050131955300050131955307/12/20211639    32000803239421964320000E1AD0300000199490000000000000                                         LACTATO RINGER USP (HARTMANN)  SOL INY  BOL X 1000ML BAXTERBIN     1
