CC0000007479382H202100015112743000015112743007/12/20210252    31500531237421964250000V07A1300000502600000000000000                                                                                AGUA ESTERIL x 10 mlAMP    10
CC0000007479382H202100015112743000015112743007/12/20210252    3150053123742196425000011522600000994390000000000000                                                                    SONDA FOLEY SILICONA # 18 2 VIASSOB     1
CC0000007479382H202100015112743000015112743007/12/20210252    3150053123742196425000035356500003919000000000000000                                                                                        LLAVE 3 VIASSOB     6
CC0000007479382H202100015112743000015112743007/12/20210252    3150053123742196425000011051900000226360000000000000                                                               KIT TRANSDUCTOR SENCILLO S/VAMP PX260SOB     1
CC0000007479382H202100015112743000015112743007/12/20210252    3150053123742196425000024674500000322810000000000000                                                                   JERINGA DESECHABLE 20 ml 21*1 1/2SIN     4
CC0000007479382H202100015112743000015112743007/12/20210252    31500531237421964250000Q1A13500001585200000000000000                        JERINGA PUNTA CAT SIN AGUJA REF 309620 CAJ X 40   50ML BN EXENTO-DC.417/2020SOB     2
CC0000007479382H202100015112743000015112743007/12/20210252    3150053123742196425000043485100001618510000000000000                GUANTE QUIRURGICO DE LATEX REF 2D72N65X CAJ X 50 PROTEXIS  6.5 BN EXENTO-DC.417/2020SOB     2
CC0000007479382H202100015112743000015112743007/12/20210252    3150053123742196425000011089400001083350000000000000                                                              GUANTE ESTERIL LATEX S/POLVO TALLA 8.0SOB     2
CC0000007479382H202100015112743000015112743007/12/20210252    3150053123742196425000011089300001083990000000000000                                                              GUANTE ESTERIL LATEX S/POLVO TALLA 7.5SOB     2
CC0000007479382H202100015112743000015112743007/12/20210252    3150053123742196425000011085100001082120000000000000                                                                           GUANTE QUIRURGICO TALLA 7SOB     4
CC0000007479382H202100015112743000015112743007/12/20210252    3150053123742196425000013077800000471960000000000000                                                             GASA NO TEJIDA EST 7.5 X 7.5 SOB X 3 UNSOB    15
CC0000007479382H202100015112743000015112743007/12/20210252    3150053123742196425000022426800001140510000000000000                                                                    EQUIPO MACROGOTEO BAXTER MRC0001SOB     2
CC0001129564191H202100015112743000015112743007/12/20210252    3150053123742196425000022426800001140510000000000000                                                                    EQUIPO MACROGOTEO BAXTER MRC0001SOB     3
CC0001129564191H202100015112743000015112743007/12/20210252    3150053123742196425000011082900001233450000000000000                                                               EQUIPO LC 5000 PRIMARIO FOTOPRO 0L218SOB     1
CC0001129564191H202100015112743000015112743007/12/20210252    3150053123742196425000011082700001620070000000000000                                                               EQUIPO SET PRIMARIO C/CLAVE REF 14001BOL     3
CC0000007479382H202100015112743000015112743007/12/20210252    3150053123742196425000031188000000236790000000000000                                                                                     CISTOFLO ADULTOSIN     1
CC0000007479382H202100015112743000015112743007/12/20210252    3150053123742196425000001956000001620610000000000000                                                                      CONECTOR MICRO CLAVE LAT-MC100SOB     6
CC0001129564191H202100015112743000015112743007/12/20210252    3150053123742196425000001956000001620610000000000000                                                                      CONECTOR MICRO CLAVE LAT-MC100SOB     3
CC0000007479382H202100015112743000015112743007/12/20210252    3150053123742196425000021221000000226640000000000000                                                                                 CARTUCHO ACT 402-03PZA    15
CC0001129564191H202100015112743000015112743007/12/20210252    3150053123742196425000021221000000226640000000000000                                                                                 CARTUCHO ACT 402-03PZA    10
CC0000007479382H202100015112743000015112743007/12/20210252    3150053123742196425000044370800000224140000000000000                                                                                IOBAN 2 90 X 45 6650SIN     1
CC0000007479382H202100015112743000015112743007/12/20210252    3150053123742196425000000602700001197200000000000000                                                              APOSITO TRANSP  1655 IV 8.5CM X 11.5CMSOB     2
CC0000007479382H202100015112743000015112743007/12/20210252    31500531237421964250000E1AB0300003888390000000000000                                                            SOLUCION SALINA 0.9% SLN INY BO X 500 MLBOL     2
CC0000007479382H202100015112743000015112743007/12/20210252    31500531237421964250000E1AB0700003888350000000000000                                                            SOLUCION SALINA 0.9% SLN INY BO X 250 MLBOL     1
CC0000007479382H202100015112743000015112743007/12/20210252    31500531237421964250000E1AB0200000199290000000000000                                                            SOLUCION SALINA 0.9% SLN INY BO X 100 MLBIN    15
