CC0000019490174H202100015112743700015112743707/12/20210934    31900999237421964250000V07A1300000502600000000000000                                                                                AGUA ESTERIL x 10 mlAMP    10
CC0000072218236H202100015112743700015112743707/12/20210934    31900999237421964250000V07A1300000502600000000000000                                                                                AGUA ESTERIL x 10 mlAMP    10
CC0001140839787H202100015112743700015112743707/12/20210934    31900999237421964250000V07A1300000502600000000000000                                                                                AGUA ESTERIL x 10 mlAMP    10
CC0001143115935H202100015112743700015112743707/12/20210934    31900999237421964250000V07A1300000502600000000000000                                                                                AGUA ESTERIL x 10 mlAMP    10
CC0000007452098H202100015112743700015112743707/12/20210934    31900999237421964250000V07A1300000502600000000000000                                                                                AGUA ESTERIL x 10 mlAMP    10
CC0000019490174H202100015112743700015112743707/12/20210934    3190099923742196425000011069000000212140000000000000                                                                      VASELINA QUIMIBEN POTE X 500 GTAR     1
CC0001143115935H202100015112743700015112743707/12/20210934    3190099923742196425000011069000000212140000000000000                                                                      VASELINA QUIMIBEN POTE X 500 GTAR     1
CC0000019490174H202100015112743700015112743707/12/20210934    3190099923742196425000045136100001419300000000000000                                                                            LANCETA DEXTROMETER X UNPZA    10
CC0000072218236H202100015112743700015112743707/12/20210934    3190099923742196425000045136100001419300000000000000                                                                            LANCETA DEXTROMETER X UNPZA     3
CC0001140839787H202100015112743700015112743707/12/20210934    3190099923742196425000045136100001419300000000000000                                                                            LANCETA DEXTROMETER X UNPZA     3
CC0001143115935H202100015112743700015112743707/12/20210934    3190099923742196425000045136100001419300000000000000                                                                            LANCETA DEXTROMETER X UNPZA     3
CC0000007452098H202100015112743700015112743707/12/20210934    3190099923742196425000045136100001419300000000000000                                                                            LANCETA DEXTROMETER X UNPZA     3
CC0001140839787H202100015112743700015112743707/12/20210934    3190099923742196425000024674500000322810000000000000                                                                   JERINGA DESECHABLE 20 ml 21*1 1/2SIN     5
CC0000019490174H202100015112743700015112743707/12/20210934    3190099923742196425000024672100001609890000000000000                                                            JERINGA INSULINA 1ML TAPA NARANJA JEI013SOB    20
CC0000019490174H202100015112743700015112743707/12/20210934    31900999237421964250000Q1A13500001585200000000000000                        JERINGA PUNTA CAT SIN AGUJA REF 309620 CAJ X 40   50ML BN EXENTO-DC.417/2020SOB     1
CC0001143115935H202100015112743700015112743707/12/20210934    31900999237421964250000Q1A13500001585200000000000000                        JERINGA PUNTA CAT SIN AGUJA REF 309620 CAJ X 40   50ML BN EXENTO-DC.417/2020SOB     1
CC0000019490174H202100015112743700015112743707/12/20210934    31900999237421964250000E1AD0300000199490000000000000                                         LACTATO RINGER USP (HARTMANN)  SOL INY  BOL X 1000ML BAXTERBIN     3
CC0000072218236H202100015112743700015112743707/12/20210934    31900999237421964250000E1AD0300000199490000000000000                                         LACTATO RINGER USP (HARTMANN)  SOL INY  BOL X 1000ML BAXTERBIN     2
CC0001140839787H202100015112743700015112743707/12/20210934    31900999237421964250000E1AD0300000199490000000000000                                         LACTATO RINGER USP (HARTMANN)  SOL INY  BOL X 1000ML BAXTERBIN     3
CC0001143115935H202100015112743700015112743707/12/20210934    31900999237421964250000E1AD0300000199490000000000000                                         LACTATO RINGER USP (HARTMANN)  SOL INY  BOL X 1000ML BAXTERBIN     3
CC0000007452098H202100015112743700015112743707/12/20210934    31900999237421964250000E1AD0300000199490000000000000                                         LACTATO RINGER USP (HARTMANN)  SOL INY  BOL X 1000ML BAXTERBIN     3
CC0000019490174H202100015112743700015112743707/12/20210934    3190099923742196425000011137100001419310000000000000                                                               TIRA GLUCOMETRIA FREESTYLE H OPTIUM .PZA    10
CC0000072218236H202100015112743700015112743707/12/20210934    3190099923742196425000011137100001419310000000000000                                                               TIRA GLUCOMETRIA FREESTYLE H OPTIUM .PZA     3
CC0001140839787H202100015112743700015112743707/12/20210934    3190099923742196425000011137100001419310000000000000                                                               TIRA GLUCOMETRIA FREESTYLE H OPTIUM .PZA     3
CC0001143115935H202100015112743700015112743707/12/20210934    3190099923742196425000011137100001419310000000000000                                                               TIRA GLUCOMETRIA FREESTYLE H OPTIUM .PZA     3
CC0000007452098H202100015112743700015112743707/12/20210934    3190099923742196425000011137100001419310000000000000                                                               TIRA GLUCOMETRIA FREESTYLE H OPTIUM .PZA     3
CC0000019490174H202100015112743700015112743707/12/20210934    3190099923742196425000011127400001413910000000000000                                                            EQUIPO ADMINIST NUTR PUNZON REF 674669 BBOL     1
CC0001143115935H202100015112743700015112743707/12/20210934    3190099923742196425000011127400001413910000000000000                                                            EQUIPO ADMINIST NUTR PUNZON REF 674669 BBOL     1
