TI0001107068221H202100000556660300000556660307/12/20211742    31901153237421964250000E1AB0200000199290000000000000                                                            SOLUCION SALINA 0.9% SLN INY BO X 100 MLBIN     2
TI0001107068221H202100000556660300000556660307/12/20211638    31500052237421964250000E1AD0300000199490000000000000                                         LACTATO RINGER USP (HARTMANN)  SOL INY  BOL X 1000ML BAXTERBIN     1
TI0001107068221H202100000556660300000556660307/12/20211353    31500052237421964250000E1AD0300000199490000000000000                                         LACTATO RINGER USP (HARTMANN)  SOL INY  BOL X 1000ML BAXTERBIN     3
TI0001107068221H202100000556660300000556660307/12/20211201     3300009237421964250000S2BA1400000947290000000000000                                                            SOLU MEDROL POLVO SLN INY 500 MG/4 ML/R/VAL     2
TI0001107068221H202100000556660300000556660307/12/20212118     3300009237421964250000L04AA300000460440000000000000                                                                        TIMOGLOBULINA VIAL 25 MG /R/VAL     1
TI0001107068221H202100000556660300000556660307/12/20211202     3300009237421964250000L04AA300000460440000000000000                                                                        TIMOGLOBULINA VIAL 25 MG /R/VAL     6
TI0001107068221H202100000556660300000556660307/12/20211843     3300009237421964250000N2AX0400001204140000000000000                                                                             TRAMAL Sln Iny 50 mg/mlAMP     1
TI0001107068221H202100000556660300000556660307/12/20211842     3300009237421964250000N2AX0400001204140000000000000                                                                             TRAMAL Sln Iny 50 mg/mlAMP     1
TI0001107068221H202100000556660300000556660307/12/20211843     3300009237421964250000N2BB0500000217140000000000000                                                                          NOVALGINA Sln Iny 1 g/2 mlAMP     3
TI0001107068221H202100000556660300000556660307/12/20211453     3300009237421964250000N2BB1100000217160000000000000                                                                      NOVALGINA Sln Iny 2.5 g x 5 mlAMP     1
TI0001107068221H202100000556660300000556660307/12/20210855     3300009237421964250000N2BB1100000217160000000000000                                                                      NOVALGINA Sln Iny 2.5 g x 5 mlAMP     2
