CC0000007413293H202100000556657200000556657207/12/20210638     3300004237421964250000B1AB0200003939510000000000000                 ENOXAPARINA SODICA 40MG/0.4ML(100MG/ML) SOL INY INST CAJ X 2JERPREL X 0.4ML TECHDOWJRP     1
CC0000007413293H202100000556657200000556657207/12/20211020     3300009237421964250000N02B0300001277700000000000000                                                                           CARDIOASPIRINA TAB 100 MGTAB     1
CC0000007413293H202100000556657200000556657207/12/20210636     3300004237421964250000N02B0300001277700000000000000                                                                           CARDIOASPIRINA TAB 100 MGTAB     1
CC0000007413293H202100000556657200000556657207/12/20211021     3300009237421964250000C3CA0200000195520000000000000                                                                           LASIX SLN INY 20 MG/ 2 MLAMP     1
CC0000007413293H202100000556657200000556657207/12/20210636     3300004237421964250000C3CA0200000195520000000000000                                                                           LASIX SLN INY 20 MG/ 2 MLAMP     3
CC0000007413293H202100000556657200000556657207/12/20210636     3300004237421964250000C3DA0100001278020000000000000                                                                                 ALDACTONE TAB 25 MGTAB     2
CC0000007413293H202100000556657200000556657207/12/20210636     3300004237421964250000C07A0100001277830000000000000                                                                           DILATREND TAB 12.5 MG /R/TAB     3
CC0000007413293H202100000556657200000556657207/12/20211020     3300009237421964250000B4AD0700001277600000000000000                                                                                   LIPITOR TAB 20 MGTAB     1
CC0000007413293H202100000556657200000556657207/12/20211021     3300009237421964250000J05A3200001313890000000000000                                                                                ZINTERGIA CAP 100 MGTAB     1
CC0000007413293H202100000556657200000556657207/12/20210638     3300004237421964250000J05A3200001313890000000000000                                                                                ZINTERGIA CAP 100 MGTAB     1
CC0000007413293H202100000556657200000556657207/12/20211021     3300009237421964250000N04B0500001315340000000000000                                                                    STALEVO Grag 100 MG/25 MG/200 MGCOM     1
CC0000007413293H202100000556657200000556657207/12/20210640     3300004237421964250000N04B0500001315340000000000000                                                                    STALEVO Grag 100 MG/25 MG/200 MGCOM     5
CC0000007413293H202100000556657200000556657207/12/20211146    31900630237421964250000V07A1300000502600000000000000                                                                                AGUA ESTERIL x 10 mlAMP     5
