PA0000014990805U202100050131952800050131952807/12/20211234    3190286523942196432000017566600000232710000000000000                                                                       PROLENE 5-0 PS-2 45 CM P8686TSIN     1
PA0000014990805U202100050131952800050131952807/12/20211234    3190286523942196432000024673000001411210000000000000                                                                  JERINGA DESECHABLE 3 ML 21 X 1 1/2SOB     1
PA0000014990805U202100050131952800050131952807/12/20211234    3190286523942196432000011047900000223010000000000000                                                                            JERINGA X 1ML REF 302579SIN     1
PA0000014990805U202100050131952800050131952807/12/20211234    3190286523942196432000011089300001083990000000000000                                                              GUANTE ESTERIL LATEX S/POLVO TALLA 7.5SOB     2
PA0000014990805U202100050131952800050131952807/12/20211234    3190286523942196432000013077800000471960000000000000                                                             GASA NO TEJIDA EST 7.5 X 7.5 SOB X 3 UNSOB     2
