CC0000013887621H202100015112743600015112743607/12/20210923    31900926237421964250000V07A1300000502600000000000000                                                                                AGUA ESTERIL x 10 mlAMP    10
CC0001129564191H202100015112743600015112743607/12/20210923    31900926237421964250000V07A1300000502600000000000000                                                                                AGUA ESTERIL x 10 mlAMP    10
CC0000007479382H202100015112743600015112743607/12/20210923    31900926237421964250000V07A1300000502600000000000000                                                                                AGUA ESTERIL x 10 mlAMP    10
CC0000022448180H202100015112743600015112743607/12/20210923    31900926237421964250000V07A1300000502600000000000000                                                                                AGUA ESTERIL x 10 mlAMP    10
CC0000013887621H202100015112743600015112743607/12/20210923    3190092623742196425000024674500000322810000000000000                                                                   JERINGA DESECHABLE 20 ml 21*1 1/2SIN     3
CC0001129564191H202100015112743600015112743607/12/20210923    3190092623742196425000024674500000322810000000000000                                                                   JERINGA DESECHABLE 20 ml 21*1 1/2SIN     3
CC0000007479382H202100015112743600015112743607/12/20210923    3190092623742196425000024674500000322810000000000000                                                                   JERINGA DESECHABLE 20 ml 21*1 1/2SIN     3
CC0000013887621H202100015112743600015112743607/12/20210923    3190092623742196425000024674000001138340000000000000   JERINGA 3PARTES C/A 10ML REF JEHL005 CAJ X 100 ALFASAFE  21GX1 PULG 1/2 PULG BN EXENTO-DC.417/202PZA    30
CC0001129564191H202100015112743600015112743607/12/20210923    3190092623742196425000024674000001138340000000000000   JERINGA 3PARTES C/A 10ML REF JEHL005 CAJ X 100 ALFASAFE  21GX1 PULG 1/2 PULG BN EXENTO-DC.417/202PZA    30
CC0000007479382H202100015112743600015112743607/12/20210923    3190092623742196425000024674000001138340000000000000   JERINGA 3PARTES C/A 10ML REF JEHL005 CAJ X 100 ALFASAFE  21GX1 PULG 1/2 PULG BN EXENTO-DC.417/202PZA    30
CC0000022448180H202100015112743600015112743607/12/20210923    3190092623742196425000024674000001138340000000000000   JERINGA 3PARTES C/A 10ML REF JEHL005 CAJ X 100 ALFASAFE  21GX1 PULG 1/2 PULG BN EXENTO-DC.417/202PZA    10
CC0001129564191H202100015112743600015112743607/12/20210923    3190092623742196425000011082900001233450000000000000                                                               EQUIPO LC 5000 PRIMARIO FOTOPRO 0L218SOB     2
CC0000013887621H202100015112743600015112743607/12/20210923    3190092623742196425000021221000000226640000000000000                                                                                 CARTUCHO ACT 402-03PZA    10
CC0001129564191H202100015112743600015112743607/12/20210923    3190092623742196425000021221000000226640000000000000                                                                                 CARTUCHO ACT 402-03PZA    10
CC0000007479382H202100015112743600015112743607/12/20210923    3190092623742196425000021221000000226640000000000000                                                                                 CARTUCHO ACT 402-03PZA     5
CC0000022448180H202100015112743600015112743607/12/20210923    31900926237421964250000E1AD0300000199490000000000000                                         LACTATO RINGER USP (HARTMANN)  SOL INY  BOL X 1000ML BAXTERBIN     2
CC0000022448180H202100015112743600015112743607/12/20210923    31900926237421964250000E1AB0300003888390000000000000                                                            SOLUCION SALINA 0.9% SLN INY BO X 500 MLBOL     1
CC0000007479382H202100015112743600015112743607/12/20210923    31900926237421964250000E1AB0700003888350000000000000                                                            SOLUCION SALINA 0.9% SLN INY BO X 250 MLBOL     1
CC0000013887621H202100015112743600015112743607/12/20210923    31900926237421964250000E1AB0200000199290000000000000                                                            SOLUCION SALINA 0.9% SLN INY BO X 100 MLBIN    12
CC0001129564191H202100015112743600015112743607/12/20210923    31900926237421964250000E1AB0200000199290000000000000                                                            SOLUCION SALINA 0.9% SLN INY BO X 100 MLBIN    12
CC0000007479382H202100015112743600015112743607/12/20210923    31900926237421964250000E1AB0200000199290000000000000                                                            SOLUCION SALINA 0.9% SLN INY BO X 100 MLBIN    12
CC0000013887621H202100015112743600015112743607/12/20210923    3190092623742196425000011137100001419310000000000000                                                               TIRA GLUCOMETRIA FREESTYLE H OPTIUM .PZA     3
CC0001129564191H202100015112743600015112743607/12/20210923    3190092623742196425000011137100001419310000000000000                                                               TIRA GLUCOMETRIA FREESTYLE H OPTIUM .PZA     3
CC0000007479382H202100015112743600015112743607/12/20210923    3190092623742196425000011137100001419310000000000000                                                               TIRA GLUCOMETRIA FREESTYLE H OPTIUM .PZA     3
CC0000022448180H202100015112743600015112743607/12/20210923    3190092623742196425000011137100001419310000000000000                                                               TIRA GLUCOMETRIA FREESTYLE H OPTIUM .PZA     3
CC0000013887621H202100015112743600015112743607/12/20210923    3190092623742196425000011127400001413910000000000000                                                            EQUIPO ADMINIST NUTR PUNZON REF 674669 BBOL     2
