CC0001045670902H202100000556655200000556655207/12/20212044    31903272237421964250000E1AB0500003888400000000000000                                                              SOLUCION SALINA 0.9% SLN INY X 1000 MLBOL     1
CC0001045670902H202100000556655200000556655207/12/20210440    31902977237421964250000E1AB0500003888400000000000000                                                              SOLUCION SALINA 0.9% SLN INY X 1000 MLBOL     1
CC0001045670902H202100000556655200000556655207/12/20211059     3300009237421964250000C09CA400001277130000000000000                                                                                  LOSARTAN TAB 50 MGTAB     2
CC0001045670902H202100000556655200000556655207/12/20211059     3300009237421964250000J01CR200000947130000000000000                                                              AMPICILINA /SULBACTAN POLVO LIOF 1.5 GAMP     6
CC0001045670902H202100000556655200000556655207/12/20211059     3300009237421964250000J3CA0300001673190000000000000                               METRONIDAZOL 500MG/100ML(5MG/ML) SOL INY  CAJ X 84BOL X 100ML CORPAULBOL     2
