PA00000AS606150H202100015022564200015022564207/12/20212004    3190244523742196425000022426800001140510000000000000                                                                    EQUIPO MACROGOTEO BAXTER MRC0001SOB     1
CC0000011312131H202100015022564200015022564207/12/20212004    3190244523742196425000011082700001620070000000000000                                                               EQUIPO SET PRIMARIO C/CLAVE REF 14001BOL     1
CC0000022358936H202100015022564200015022564207/12/20212004    3190244523742196425000011082700001620070000000000000                                                               EQUIPO SET PRIMARIO C/CLAVE REF 14001BOL     1
CC0000011312131H202100015022564200015022564207/12/20212004    3190244523742196425000030936900001431840000000000000                                                                                              BURETABOL     1
CC0000022358936H202100015022564200015022564207/12/20212004    3190244523742196425000030936900001431840000000000000                                                                                              BURETABOL     1
CC0000011312131H202100015022564200015022564207/12/20212004    31902445237421964250000E1AD0300000199490000000000000                                         LACTATO RINGER USP (HARTMANN)  SOL INY  BOL X 1000ML BAXTERBIN     1
CC0000022358936H202100015022564200015022564207/12/20212004    31902445237421964250000E1AD0300000199490000000000000                                         LACTATO RINGER USP (HARTMANN)  SOL INY  BOL X 1000ML BAXTERBIN     1
PA00000AS606150H202100015022564200015022564207/12/20212004    31902445237421964250000E1AB0500003888400000000000000                                                              SOLUCION SALINA 0.9% SLN INY X 1000 MLBOL     2
CC0000072164260H202100015022564200015022564207/12/20212004    31902445237421964250000E1AB0300003888390000000000000                                                            SOLUCION SALINA 0.9% SLN INY BO X 500 MLBOL     1
CC0000093130958H202100015022564200015022564207/12/20212004    31902445237421964250000E1AB0200000199290000000000000                                                            SOLUCION SALINA 0.9% SLN INY BO X 100 MLBIN     5
CC0000011312131H202100015022564200015022564207/12/20212004    3190244523742196425000011127400001413910000000000000                                                            EQUIPO ADMINIST NUTR PUNZON REF 674669 BBOL     1
CC0000016200301H202100015022564200015022564207/12/20212004    3190244523742196425000011127400001413910000000000000                                                            EQUIPO ADMINIST NUTR PUNZON REF 674669 BBOL     1
CC0000012576309H202100015022564200015022564207/12/20212004    3190244523742196425000011127400001413910000000000000                                                            EQUIPO ADMINIST NUTR PUNZON REF 674669 BBOL     1
