CC0000093130958H202100015022564000015022564007/12/20211319    31900630237421964250000V07A1300000502600000000000000                                                                                AGUA ESTERIL x 10 mlAMP     8
PA00000AS606150H202100015022564000015022564007/12/20211319    31900630237421964250000V07A1300000502600000000000000                                                                                AGUA ESTERIL x 10 mlAMP     8
CC0000022394093H202100015022564000015022564007/12/20211319    31900630237421964250000V07A1300000502600000000000000                                                                                AGUA ESTERIL x 10 mlAMP     8
CC0000093130958H202100015022564000015022564007/12/20211319    3190063023742196425000024674000001138340000000000000   JERINGA 3PARTES C/A 10ML REF JEHL005 CAJ X 100 ALFASAFE  21GX1 PULG 1/2 PULG BN EXENTO-DC.417/202PZA     8
PA00000AS606150H202100015022564000015022564007/12/20211319    3190063023742196425000024674000001138340000000000000   JERINGA 3PARTES C/A 10ML REF JEHL005 CAJ X 100 ALFASAFE  21GX1 PULG 1/2 PULG BN EXENTO-DC.417/202PZA     8
CC0000022394093H202100015022564000015022564007/12/20211319    3190063023742196425000024674000001138340000000000000   JERINGA 3PARTES C/A 10ML REF JEHL005 CAJ X 100 ALFASAFE  21GX1 PULG 1/2 PULG BN EXENTO-DC.417/202PZA     8
CC0000022394093H202100015022564000015022564007/12/20211319    3190063023742196425000022426800001140510000000000000                                                                    EQUIPO MACROGOTEO BAXTER MRC0001SOB     1
CC0000093130958H202100015022564000015022564007/12/20211319    3190063023742196425000030936900001431840000000000000                                                                                              BURETABOL     1
PA00000AS606150H202100015022564000015022564007/12/20211319    3190063023742196425000030936900001431840000000000000                                                                                              BURETABOL     1
CC0000022394093H202100015022564000015022564007/12/20211319    3190063023742196425000030936900001431840000000000000                                                                                              BURETABOL     1
CC0000022394093H202100015022564000015022564007/12/20211319    31900630237421964250000E1AD0200003888320000000000000                                                                              HARTMAN SLN INY 500 MLBOL     1
CC0000093130958H202100015022564000015022564007/12/20211319    31900630237421964250000E1AB0500003888400000000000000                                                              SOLUCION SALINA 0.9% SLN INY X 1000 MLBOL     1
PA00000AS606150H202100015022564000015022564007/12/20211319    31900630237421964250000E1AB0500003888400000000000000                                                              SOLUCION SALINA 0.9% SLN INY X 1000 MLBOL     1
CC0000022394093H202100015022564000015022564007/12/20211319    31900630237421964250000E1AA0100003888590000000000000                                                                        DEXTROSA 5% Sln Iny X 500 mlBOL     1
