CC0000033166936A202100000027843300000027843307/12/20211527    3190333624042196419000042743200003929860000000000000                   GASA ADHESIVA STRETCH REF 02038-00 ROL X 10MT FIXOMULL 15CM BN EXENTO-DC.417/2020CMT    30
CC0000033166936A202100000027843300000027843307/12/20211527    3190333624042196419000045303800000232370000000000000                                                                    LIGACLIP MEDIUM LT200 BLANCO X 6SIN     1
CC0000033166936A202100000027843300000027843307/12/20211527    3190333624042196419000043486000001353050000000000000                                                            HORIZON CLIP TITANI M AZUL X 6 REF002200CAR     1
CC0000033166936A202100000027843300000027843307/12/20211527    31903336240421964190000D08AF900000512990000000000000                                                            FURACIN POMADA 0.2 G/100 G TU X 40 G /R/TUB     1
CC0000033166936A202100000027843300000027843307/12/20211527    3190333624042196419000000901800000598580000000000000                                                                     MASCARA LARINGEA REUSABLE No. 4SIN     1
CC0000033166936A202100000027843300000027843307/12/20211527    3190333624042196419000038568600000256960000000000000                                                                                   SONDA NELATON #14SIN     1
CC0000033166936A202100000027843300000027843307/12/20211527    3190333624042196419000030161400001459220000000000000                                                                       MANGUERA SUCCION 6 MM*3.1 MTSSOB     1
CC0000033166936A202100000027843300000027843307/12/20211527    3190333624042196419000000500600004008630000000000000         SUTURA ABSORBIBLE MONOFIL P-12 REF SM-5627 CAJ X 12 BIOSYN 45CM - 4-0 BN EXENTO-DC.417/2020SIN     2
CC0000033166936A202100000027843300000027843307/12/20211527    3190333624042196419000045138000001413890000000000000                                                                       LAPIZ ELECTROBISTURI  SOB X 1SOB     1
CC0000033166936A202100000027843300000027843307/12/20211527    3190333624042196419000043879100001138200000000000000                                                                  HOJA BISTURI # 15 CSSB 15 01002003SOB     1
CC0000033166936A202100000027843300000027843307/12/20211527    3190333624042196419000000503900000296270000000000000                                                                  SUTURA POLYSORB 3-0 75CM V20 GL122SIN     1
CC0000033166936A202100000027843300000027843307/12/20211527    3190333624042196419000022425200000548240000000000000                       EXTENSION DE ANESTESIA REF 1139 SOB X 1 SHERLEG  ADULTO BN EXENTO-DC.417/2020SIN     1
CC0000033166936A202100000027843300000027843307/12/20211527    3190333624042196419000035356500003919000000000000000                                                                                        LLAVE 3 VIASSOB     2
CC0000033166936A202100000027843300000027843307/12/20211527    31903336240421964190000Q1AA7100000610620000000000000                                                            CATETER PERIFE INTROCAN # 18G 4251687-04SIN     1
CC0000033166936A202100000027843300000027843307/12/20211527    3190333624042196419000022426800001140510000000000000                                                                    EQUIPO MACROGOTEO BAXTER MRC0001SOB     1
CC0000033166936A202100000027843300000027843307/12/20211527    3190333624042196419000016830000000970620000000000000                                                             SIST FIJACION CAT PERIFERICO 6.5X7 1683SOB     1
CC0000033166936A202100000027843300000027843307/12/20211527    31903336240421964190000J01DA300001239950000000000000                                                            CEFAZOLINA SODICA POLVO LIOF SLN INY 1 GVAL     2
CC0000033166936A202100000027843300000027843307/12/20211527    3190333624042196419000011073300001096420000000000000                                                                BOLSA DE SUCCION DE FLUIDOS x 2500mLBOL     1
CC0000033166936A202100000027843300000027843307/12/20211527    3190333624042196419000020750600000296780000000000000                                                                PLACA ELECTRO RETORNO PACIENTE E7506SIN     1
CC0000033166936A202100000027843300000027843307/12/20211527    3190333624042196419000053074400000607910000000000000                                                               GASA ESTERIL 10*10 SOBRE X 3 UNIDADESSOB     3
CC0000033166936A202100000027843300000027843307/12/20211527    3190333624042196419000011085300001082140000000000000                                                                           GUANTE QUIRURGICO TALLA 8SOB     2
CC0000033166936A202100000027843300000027843307/12/20211527    3190333624042196419000011085200001585390000000000000                                                                       GUANTE QUIRURGICO TALLA 7 1/2SOB     3
CC0000033166936A202100000027843300000027843307/12/20211527    3190333624042196419000011085100001082120000000000000                                                                           GUANTE QUIRURGICO TALLA 7SOB     3
CC0000033166936A202100000027843300000027843307/12/20211527    3190333624042196419000043485100001618510000000000000                GUANTE QUIRURGICO DE LATEX REF 2D72N65X CAJ X 50 PROTEXIS  6.5 BN EXENTO-DC.417/2020SOB     2
CC0000033166936A202100000027843300000027843307/12/20211527    3190333624042196419000038568100000258050000000000000                                                                         CANULA OXIGENO NASAL ADULTOSIN     1
CC0000033166936A202100000027843300000027843307/12/20211527    3190333624042196419000011099300000777780000000000000                                                                     FILTRO BACTERIANO VIRICO ADULTOBOL     1
CC0000033166936A202100000027843300000027843307/12/20211527    3190333624042196419000011047900000223010000000000000                                                                            JERINGA X 1ML REF 302579SIN     1
CC0000033166936A202100000027843300000027843307/12/20211527    3190333624042196419000024674000001138340000000000000   JERINGA 3PARTES C/A 10ML REF JEHL005 CAJ X 100 ALFASAFE  21GX1 PULG 1/2 PULG BN EXENTO-DC.417/202PZA     3
CC0000033166936A202100000027843300000027843307/12/20211527    3190333624042196419000024674500000322810000000000000                                                                   JERINGA DESECHABLE 20 ml 21*1 1/2SIN     1
CC0000033166936A202100000027843300000027843307/12/20211527    31903336240421964190000E1AB0300003888390000000000000                                                            SOLUCION SALINA 0.9% SLN INY BO X 500 MLBOL     3
CC0000033166936A202100000027843300000027843307/12/20211527    31903336240421964190000E1AB0700003888350000000000000                                                            SOLUCION SALINA 0.9% SLN INY BO X 250 MLBOL     1
CC0000033166936A202100000027843300000027843307/12/20211527    31903336240421964190000N02B1100001464120000000000000                                           PARACETAMOL EP 1000MG/100ML(10MG/ML) SOL INY  CAJ X 10FCOVAL     1
CC0000033166936A202100000027843300000027843307/12/20211527    31903336240421964190000A3BB0200000512940000000000000                                                                          BUSCAPINA SIMPLE Iny 20 mgAMP     1
CC0000033166936A202100000027843300000027843307/12/20211527    31903336240421964190000A2BC0900000200150000000000000                                                                               ORAZOLE Sln Iny 40 mgCIN     1
CC0000033166936A202100000027843300000027843307/12/20211527    31903336240421964190000M01A0400001341250000000000000                                                                              DYNASTAT AMP 40 MG /R/VAL     1
CC0000033166936A202100000027843300000027843307/12/20211527    31903336240421964190000N2BB1100000217160000000000000                                                                      NOVALGINA Sln Iny 2.5 g x 5 mlAMP     1
CC0000033166936A202100000027843300000027843307/12/20211527    31903336240421964190000A4AD0200000202990000000000000                                                                     PLITICAN HCL Sln Iny 50 mg/2 mlAMP     1
CC0000033166936A202100000027843300000027843307/12/20211527    31903336240421964190000H02AB500001664950000000000000                                                            DEXAMETASONA SLN INY 8 MG/2 ML AMP /CDS/AMP     1
CC0000033166936A202100000027843300000027843307/12/20211527    31903336240421964190000C01C0300001261020000000000000                                                               ETILEFRINA HCL SLN INY 10 MG/1 ML /R/AMP     1
CC0000033166936A202100000027843300000027843307/12/20211527    31903336240421964190000M3AC0600000720540000000000000                                                                         ESMERON SLN INY 50 MG /5 MLVAL     1
CC0000033166936A202100000027843300000027843307/12/20211527    31903336240421964190000N1AH0200003906560000000000000                                                                     FENTANIL Iny 0.05 mg/ml x 10 mlAMP     1
