CC0000007454516H202100000556664600000556664607/12/20211031    31500206237421964250000A02B0500001335110000000000000                                                                                LOSEC MUPS Tab 20 mgTAB     1
CC0000007454516H202100000556664600000556664607/12/20211031    31500206237421964250000J01DA300001239950000000000000                                                            CEFAZOLINA SODICA POLVO LIOF SLN INY 1 GVAL     1
CC0000007454516H202100000556664600000556664607/12/20211031    31500206237421964250000N2BB0200000513030000000000000                                                                           LISALGIL Sln Iny 2 g/5 mlAMP     1
CC0000007454516H202100000556664600000556664607/12/20211031    31500206237421964250000N02B1100001464120000000000000                                           PARACETAMOL EP 1000MG/100ML(10MG/ML) SOL INY  CAJ X 10FCOVAL     1
