CC0001193479674H202100015052809000015052809007/12/20212016    3150008823742196425000011082700001620070000000000000                                                               EQUIPO SET PRIMARIO C/CLAVE REF 14001BOL     1
CC0000022530541H202100015052809000015052809007/12/20212016    3150008823742196425000011082700001620070000000000000                                                               EQUIPO SET PRIMARIO C/CLAVE REF 14001BOL     1
CC0001193479674H202100015052809000015052809007/12/20212016    3150008823742196425000030936900001431840000000000000                                                                                              BURETABOL     1
CC0000022530541H202100015052809000015052809007/12/20212016    3150008823742196425000030936900001431840000000000000                                                                                              BURETABOL     1
