TI0001043460575U202100050131958200050131958207/12/20212146    3190232723942196432000024674000001138340000000000000   JERINGA 3PARTES C/A 10ML REF JEHL005 CAJ X 100 ALFASAFE  21GX1 PULG 1/2 PULG BN EXENTO-DC.417/202PZA     2
TI0001043460575U202100050131958200050131958207/12/20212146    3190232723942196432000011082700001620070000000000000                                                               EQUIPO SET PRIMARIO C/CLAVE REF 14001BOL     1
TI0001043460575U202100050131958200050131958207/12/20212146    31902327239421964320000Q1AA7400003911720000000000000                                                            CATETER PERIFE INTROCAN # 24G 4251601-04SOB     1
TI0001043460575U202100050131958200050131958207/12/20212146    3190232723942196432000030936900001431840000000000000                                                                                              BURETABOL     1
TI0001043460575U202100050131958200050131958207/12/20212146    3190232723942196432000016830000000970620000000000000                                                             SIST FIJACION CAT PERIFERICO 6.5X7 1683SOB     1
TI0001043460575U202100050131958200050131958207/12/20212146    31902327239421964320000E1AC0100000199400000000000000                                                                          SUERO MIXTO Sln Iny 500 mlBIN     1
