RC0001102897681H202100015122548900015122548907/12/20212123    3190311023742196425000011077200001679930000000000000                                                                  CIRCUITO DESECHABLE AIRVO 900PT501BOL     1
RC0001102897681H202100015122548900015122548907/12/20212123    3190311023742196425000000054700001287660000000000000                                                               OTIFLOW CANULA NASAL NEONATAL OPT 314PZA     1
RC0001102897681H202100015122548900015122548907/12/20212123    3190311023742196425000041997500001271900000000000000                                                              APOSITO DUODERM EXTRA THIN 15CM X 15CMSOB     1
