CC0000072297175H202100000556661100000556661107/12/20210921    31500206237421964250000A6AC0200001467010000000000000                                                             LACTULAX JARABE 66.7G/100ML SOX15ML /R/SOB     1
CC0000072297175H202100000556661100000556661107/12/20210921    31500206237421964250000M01A0400001341250000000000000                                                                              DYNASTAT AMP 40 MG /R/VAL     1
CC0000072297175H202100000556661100000556661107/12/20210921    31500206237421964250000N03A0800001278440000000000000                                                                                LYRICA CAP 75 MG /R/CAP     1
