CC0000022310952H202100000556682400000556682407/12/20212338     3300009237421964250000A02B0700001277010000000000000                                                                                NEXIUM Tab 20 mg /R/TAB     1
CC0000022310952H202100000556682400000556682407/12/20212338     3300009237421964250000A11C0600001389430000000000000                                                                             CALCITRIOL CAP 0.25 MCGCAP     1
CC0000022310952H202100000556682400000556682407/12/20212338     3300009237421964250000B1AB0200003939510000000000000                 ENOXAPARINA SODICA 40MG/0.4ML(100MG/ML) SOL INY INST CAJ X 2JERPREL X 0.4ML TECHDOWJRP     1
CC0000022310952H202100000556682400000556682407/12/20212337     3300009237421964250000N02B0300001277700000000000000                                                                           CARDIOASPIRINA TAB 100 MGTAB     1
CC0000022310952H202100000556682400000556682407/12/20212338     3300009237421964250000C7AB1500001277290000000000000                                                                        BETALOC ZOK TAB LM 50 MG /R/TAB     1
CC0000022310952H202100000556682400000556682407/12/20212337     3300009237421964250000C09CA400001277130000000000000                                                                                  LOSARTAN TAB 50 MGTAB     1
CC0000022310952H202100000556682400000556682407/12/20212337     3300009237421964250000C10AA600001333790000000000000                                                                                   CRESTOR TAB 10 MGTAB     1
CC0000022310952H202100000556682400000556682407/12/20212338     3300009237421964250000J1CB1800001134180000000000000                                                                             TAZOCIN Polvo Iny 4.5 gVAL     3
CC0000022310952H202100000556682400000556682407/12/20212338     3300009237421964250000J01XA400001212420000000000000                                                               VANCOMICINA POLVO LIOF SLN INY 500 MGVAL     4
CC0000022310952H202100000556682400000556682407/12/20212338     3300009237421964250000N2BE0100001276930000000000000                                                                                    DOLEX TAB 500 MGTAB     2
CC0000022310952H202100000556682400000556682407/12/20212338     3300009237421964250000N06A0300001304010000000000000                                                                               REMERON Tab 30 mg /R/TAB     1
