CC0000001703647U202100050131954700050131954707/12/20211545    3150024623942196432000024673600000222980000000000000                                                                     JERINGA DESECHABLE 5 ml 27*11/2SIN     2
CC0001042417933U202100050131954700050131954707/12/20211545    3150024623942196432000022426800001140510000000000000                                                                    EQUIPO MACROGOTEO BAXTER MRC0001SOB     1
CC0000001703647U202100050131954700050131954707/12/20211545    3150024623942196432000011082700001620070000000000000                                                               EQUIPO SET PRIMARIO C/CLAVE REF 14001BOL     1
CC0001042417933U202100050131954700050131954707/12/20211545    31500246239421964320000Q1AA7100000610620000000000000                                                            CATETER PERIFE INTROCAN # 18G 4251687-04SIN     1
CC0000001703647U202100050131954700050131954707/12/20211545    31500246239421964320000Q1AA7200000610630000000000000                                                            CATETER PERIFE INTROCAN # 20G 4251644-04SIN     1
CC0000001703647U202100050131954700050131954707/12/20211545    3150024623942196432000030936900001431840000000000000                                                                                              BURETABOL     1
CC0000001703647U202100050131954700050131954707/12/20211545    3150024623942196432000016830000000970620000000000000                                                             SIST FIJACION CAT PERIFERICO 6.5X7 1683SOB     1
CC0001042417933U202100050131954700050131954707/12/20211545    3150024623942196432000016830000000970620000000000000                                                             SIST FIJACION CAT PERIFERICO 6.5X7 1683SOB     1
CC0000001703647U202100050131954700050131954707/12/20211545    31500246239421964320000E1AD0300000199490000000000000                                         LACTATO RINGER USP (HARTMANN)  SOL INY  BOL X 1000ML BAXTERBIN     1
CC0001042417933U202100050131954700050131954707/12/20211545    31500246239421964320000E1AD0300000199490000000000000                                         LACTATO RINGER USP (HARTMANN)  SOL INY  BOL X 1000ML BAXTERBIN     1
CC0000001703647U202100050131954700050131954707/12/20211545    31500246239421964320000E1AD0200003888320000000000000                                                                              HARTMAN SLN INY 500 MLBOL     2
