CC0000011312131H202100000556664100000556664107/12/20211559     3300009237421964250000A03F0300001626860000000000000                                                                   METOCLOPRAMIDA SLN INY 10 MG/2 MLAMP     1
CC0000011312131H202100000556664100000556664107/12/20211019     3300009237421964250000A03F0300001626860000000000000                                                                   METOCLOPRAMIDA SLN INY 10 MG/2 MLAMP     2
CC0000011312131H202100000556664100000556664107/12/20211019     3300009237421964250000B01A0300000467730000000000000                                                                FRAGMIN SLN INY 5.000 UI /0.2 ML /R/SIN     1
CC0000011312131H202100000556664100000556664107/12/20211019     3300009237421964250000A12CA200001239800000000000000                     BICARBONATO SODIO 10MEQ/10ML(1MEQ/ML) SOL INY  CAJ X 100AMPX10ML FRESENIUS KABIAMP     2
CC0000011312131H202100000556664100000556664107/12/20211019     3300009237421964250000H02A0100001664960000000000000                                                                        DEXAMETASONA SLN INY 4 MG/MLAMP     1
CC0000011312131H202100000556664100000556664107/12/20211019     3300009237421964250000N2BB0200000513030000000000000                                                                           LISALGIL Sln Iny 2 g/5 mlAMP     1
CC0000011312131H202100000556664100000556664107/12/20211019     3300009237421964250000J01CR200000947130000000000000                                                              AMPICILINA /SULBACTAN POLVO LIOF 1.5 GAMP     4
CC0000011312131H202100000556664100000556664107/12/20211019     3300009237421964250000A02BC700001684270000000000000                                                            OMEPRAZOL 40MG POLVO LIOFILIZADO AMPOLLAVAL     1
CC0000011312131H202100000556664100000556664107/12/20211145    31900630237421964250000V07A1300000502600000000000000                                                                                AGUA ESTERIL x 10 mlAMP     5
