PA00000HD888001U202100000556679300000556679307/12/20212013     3300004239421964320000S2BA0100000468160000000000000                                                                          SOLU-CORTEF SNL INY 100 MGVAL     3
PA00000HD888001U202100000556679300000556679307/12/20211931     3300004239421964320000S2BA0100000468160000000000000                                                                          SOLU-CORTEF SNL INY 100 MGVAL     3
PA00000HD888001U202100000556679300000556679307/12/20211954    31500188239421964320000E1AB0700003888350000000000000                                                            SOLUCION SALINA 0.9% SLN INY BO X 250 MLBOL     1
PA00000HD888001U202100000556679300000556679307/12/20212201    31500188239421964320000E1AB0300003888390000000000000                                                            SOLUCION SALINA 0.9% SLN INY BO X 500 MLBOL     1
PA00000HD888001U202100000556679300000556679307/12/20212033     3300004239421964320000J01FF200003888100000000000000                                                                             EUROCLIN SLN INY 600 MGAMP     1
PA00000HD888001U202100000556679300000556679307/12/20212033     3300004239421964320000J3CB2100000547740000000000000                                                                      CIPRO IV SLN INY 400 Mg/200 MLFCO     1
PA00000HD888001U202100000556679300000556679307/12/20211931     3300004239421964320000J7AA0600001602890000000000000                                                            VACUNA ANTITETANICA SUSP INY 40 UI/0.5MLVAL     1
PA00000HD888001U202100000556679300000556679307/12/20211931     3300004239421964320000M1AB0900001019600000000000000                                                                              VOLTAREN Sln Iny 75 mgAMP     1
PA00000HD888001U202100000556679300000556679307/12/20212119     3300004239421964320000N2AX0400001204140000000000000                                                                             TRAMAL Sln Iny 50 mg/mlAMP     1
PA00000HD888001U202100000556679300000556679307/12/20211931     3300004239421964320000N02B1100001464120000000000000                                           PARACETAMOL EP 1000MG/100ML(10MG/ML) SOL INY  CAJ X 10FCOVAL     1
