RC0001048091952H202100015132530200015132530207/12/20211045    3190311723742196425000038568400000256940000000000000                                                                                   SONDA NELATON #10SIN     2
RC0001048091909H202100015132530200015132530207/12/20211045    3190311723742196425000011082700001620070000000000000                                                               EQUIPO SET PRIMARIO C/CLAVE REF 14001BOL     1
RC0001048091909H202100015132530200015132530207/12/20211045    3190311723742196425000000301100000299670000000000000                                                            CAT EPICUTAN VENA CAVA 2F 24G*30 2184-00SIN     1
RC0001048091909H202100015132530200015132530207/12/20211045    3190311723742196425000000602600001259280000000000000                                                             APOSITO TEGADERM IV PD 1610 5CM X 5.7CMSOB     1
RC0001048091909H202100015132530200015132530207/12/20211045    31903117237421964250000E1AA0100003888590000000000000                                                                        DEXTROSA 5% Sln Iny X 500 mlBOL     1
