CC0000049689061U202100050131956200050131956207/12/20211826    3190271223942196432000011048600000223020000000000000                                                                 JERINGA VACUNACION 3ML C/AGU 302542SIN     1
CC0000049689061U202100050131956200050131956207/12/20211826    3190271223942196432000024673600000222980000000000000                                                                     JERINGA DESECHABLE 5 ml 27*11/2SIN     1
CC0000049689061U202100050131956200050131956207/12/20211826    3190271223942196432000011085300001082140000000000000                                                                           GUANTE QUIRURGICO TALLA 8SOB     2
CC0000049689061U202100050131956200050131956207/12/20211826    3190271223942196432000013077800000471960000000000000                                                             GASA NO TEJIDA EST 7.5 X 7.5 SOB X 3 UNSOB     5
CC0000049689061U202100050131956200050131956207/12/20211826    31902712239421964320000E1AB0200000199290000000000000                                                            SOLUCION SALINA 0.9% SLN INY BO X 100 MLBIN     1
