CC0000032704866H202100000556680300000556680307/12/20212114     3300009237421964250000J01CF100000553250000000000000                                                                    OXACILINA POLVO LIOF SLN INY 1 GVAL     3
CC0000032704866H202100000556680300000556680307/12/20212230     3300009237421964250000J3CB1300000547730000000000000                                                                         CIPRO SLN INY 200 MG/100 MLFCO     2
CC0000032704866H202100000556680300000556680307/12/20212114     3300009237421964250000N02B1100001464120000000000000                                           PARACETAMOL EP 1000MG/100ML(10MG/ML) SOL INY  CAJ X 10FCOVAL     2
