CC0000016200301H202100000556648800000556648807/12/20211026     3300009237421964250000A02B0500001335110000000000000                                                                                LOSEC MUPS Tab 20 mgTAB     1
CC0000016200301H202100000556648800000556648807/12/20211025     3300009237421964250000A10A1800000725300000000000000                                                             LANTUS SOLOSTAR JER 100 UI/ML X 3 ML /RCAJ     1
CC0000016200301H202100000556648800000556648807/12/20211024     3300009237421964250000A10BH100001305230000000000000                                                                               JANUVIA TAB 50 MG /R/TAB     1
CC0000016200301H202100000556648800000556648807/12/20211025     3300009237421964250000B1AB0200003939510000000000000                 ENOXAPARINA SODICA 40MG/0.4ML(100MG/ML) SOL INY INST CAJ X 2JERPREL X 0.4ML TECHDOWJRP     1
CC0000016200301H202100000556648800000556648807/12/20211025     3300009237421964250000B3BB0100001351190000000000000                                                                               ACIDO FOLICO Tab 1 mgTAB     1
CC0000016200301H202100000556648800000556648807/12/20211557    31900995237421964250000E1AB0300003888390000000000000                                                            SOLUCION SALINA 0.9% SLN INY BO X 500 MLBOL     1
CC0000016200301H202100000556648800000556648807/12/20211025     3300009237421964250000C07A0500001278660000000000000                                                                                NEBILET TAB 5 MG /R/TAB     1
CC0000016200301H202100000556648800000556648807/12/20211026     3300009237421964250000C10AA400001301110000000000000                                                                                   LIPITOR TAB 40 MGTAB     1
CC0000016200301H202100000556648800000556648807/12/20211025     3300009237421964250000J01A0200000833400000000000000                                                            TYGACIL 50MG POLV INY INST CAJA X 10VIALVAL     2
CC0000016200301H202100000556648800000556648807/12/20211026     3300009237421964250000N3AG0300001314710000000000000                                                                              VALCOTE TAB 250 MG /R/TAB     1
CC0000016200301H202100000556648800000556648807/12/20211025     3300009237421964250000N3AG0300001314710000000000000                                                                              VALCOTE TAB 250 MG /R/TAB     2
CC0000016200301H202100000556648800000556648807/12/20211024     3300009237421964250000A11A2600000303300000000000000                                                                 GLUCERNA LIQUIDO 1.0 KCAL X 1500 MLFCO     1
CC0000016200301H202100000556648800000556648807/12/20211146    31900630237421964250000V07A1300000502600000000000000                                                                                AGUA ESTERIL x 10 mlAMP     4
