CC0000022406887H202100000556668100000556668107/12/20211231    31901635237421964250000C09CA400001277130000000000000                                                                                  LOSARTAN TAB 50 MGTAB     1
CC0000022406887H202100000556668100000556668107/12/20211231    31901635237421964250000N2AA0200000301600000000000000                                                                        HIDROMORFONA Sln Iny 2 mg/mlAMP     5
CC0000022406887H202100000556668100000556668107/12/20211231    31901635237421964250000N2BE2200001252930000000000000                                                                             ACETAMINOFEN Tab 500 MGTAB     8
CC0000022406887H202100000556668100000556668107/12/20211231    31901635237421964250000N2BB0100001672010000000000000                                  DIPIRONA 1GR/2ML(0.5GR/ML) SOL INY INST CAJ X 100AMP X 2ML VITALISAMP     8
