CC0000030652452H202100015012628100015012628107/12/20211633    31903310237421964250000V07A1300000502600000000000000                                                                                AGUA ESTERIL x 10 mlAMP     5
CC0000041482521H202100015012628100015012628107/12/20211633    31903310237421964250000V07A1300000502600000000000000                                                                                AGUA ESTERIL x 10 mlAMP     5
CC0000030652452H202100015012628100015012628107/12/20211633    3190331023742196425000024674000001138340000000000000   JERINGA 3PARTES C/A 10ML REF JEHL005 CAJ X 100 ALFASAFE  21GX1 PULG 1/2 PULG BN EXENTO-DC.417/202PZA     8
CC0000041482521H202100015012628100015012628107/12/20211633    3190331023742196425000024674000001138340000000000000   JERINGA 3PARTES C/A 10ML REF JEHL005 CAJ X 100 ALFASAFE  21GX1 PULG 1/2 PULG BN EXENTO-DC.417/202PZA     8
CC0000041482521H202100015012628100015012628107/12/20211633    3190331023742196425000022426800001140510000000000000                                                                    EQUIPO MACROGOTEO BAXTER MRC0001SOB     1
CC0000030652452H202100015012628100015012628107/12/20211633    3190331023742196425000030936900001431840000000000000                                                                                              BURETABOL     1
CC0000041482521H202100015012628100015012628107/12/20211633    3190331023742196425000030936900001431840000000000000                                                                                              BURETABOL     1
