CC0000022492166H202100920745120700920745120707/12/20210047    3190310723742196425000011082700001620070000000000000                                                               EQUIPO SET PRIMARIO C/CLAVE REF 14001BOL     1
CC0000022492166H202100920745120700920745120707/12/20210047    3190310723742196425000030936900001431840000000000000                                                                                              BURETABOL     1
CC0000022492166H202100920745120700920745120707/12/20210047    31903107237421964250000E1AD0300000199490000000000000                                         LACTATO RINGER USP (HARTMANN)  SOL INY  BOL X 1000ML BAXTERBIN     2
