CC0001051681679H202100015052807400015052807407/12/20210812    3190315223742196425000011082700001620070000000000000                                                               EQUIPO SET PRIMARIO C/CLAVE REF 14001BOL     1
RC0001044234520H202100015052807400015052807407/12/20210812    3190315223742196425000011082700001620070000000000000                                                               EQUIPO SET PRIMARIO C/CLAVE REF 14001BOL     1
CC0001051681679H202100015052807400015052807407/12/20210812    3190315223742196425000030936900001431840000000000000                                                                                              BURETABOL     1
RC0001044234520H202100015052807400015052807407/12/20210812    3190315223742196425000030936900001431840000000000000                                                                                              BURETABOL     1
TI0001145926178H202100015052807400015052807407/12/20210812    31903152237421964250000E1AD0300000199490000000000000                                         LACTATO RINGER USP (HARTMANN)  SOL INY  BOL X 1000ML BAXTERBIN     2
CC0001051681679H202100015052807400015052807407/12/20210812    31903152237421964250000E1AB0300003888390000000000000                                                            SOLUCION SALINA 0.9% SLN INY BO X 500 MLBOL     1
CC0000022696914H202100015052807400015052807407/12/20210812    31903152237421964250000E1AB0300003888390000000000000                                                            SOLUCION SALINA 0.9% SLN INY BO X 500 MLBOL     1
RC0001044234520H202100015052807400015052807407/12/20210812    31903152237421964250000E1AB0300003888390000000000000                                                            SOLUCION SALINA 0.9% SLN INY BO X 500 MLBOL     1
TI0001047050967H202100015052807400015052807407/12/20210812    31903152237421964250000E1AB0300003888390000000000000                                                            SOLUCION SALINA 0.9% SLN INY BO X 500 MLBOL     2
CC0000032753507H202100015052807400015052807407/12/20210812    31903152237421964250000E1AB0300003888390000000000000                                                            SOLUCION SALINA 0.9% SLN INY BO X 500 MLBOL     1
CC0000022406887H202100015052807400015052807407/12/20210812    31903152237421964250000E1AB0300003888390000000000000                                                            SOLUCION SALINA 0.9% SLN INY BO X 500 MLBOL     1
CC0001042439975H202100015052807400015052807407/12/20210812    31903152237421964250000E1AB0300003888390000000000000                                                            SOLUCION SALINA 0.9% SLN INY BO X 500 MLBOL     1
