CC0000022265715H202100015012627200015012627207/12/20210836    31901153237421964250000Q1A19500001451640000000000000                                                             BOLSA NUTRIC ENTERAL FREEGO 1.5 L  S810BOL     1
CC0000022265715H202100015012627200015012627207/12/20210836    31901153237421964250000Q1A13500001585200000000000000                        JERINGA PUNTA CAT SIN AGUJA REF 309620 CAJ X 40   50ML BN EXENTO-DC.417/2020SOB     1
CC0000022265715H202100015012627200015012627207/12/20210836    3190115323742196425000011089300001083990000000000000                                                              GUANTE ESTERIL LATEX S/POLVO TALLA 7.5SOB     1
CC0000022265715H202100015012627200015012627207/12/20210836    3190115323742196425000013077800000471960000000000000                                                             GASA NO TEJIDA EST 7.5 X 7.5 SOB X 3 UNSOB    10
