CC0000012614608H202100000556655400000556655407/12/20210454    31500235237421964250000E1AB0300003888390000000000000                                                            SOLUCION SALINA 0.9% SLN INY BO X 500 MLBOL     1
CC0000012614608H202100000556655400000556655407/12/20211200     3300009237421964250000J01DB300000553200000000000000                                                                         CEFALOTINA SLN INY 1 G VIALVAL     2
CC0000012614608H202100000556655400000556655407/12/20212116     3300009237421964250000N2AX0500001204110000000000000                                                                          TRAMAL SLN INY 100 MG / MLAMP     1
CC0000012614608H202100000556655400000556655407/12/20211200     3300009237421964250000N2AX0500001204110000000000000                                                                          TRAMAL SLN INY 100 MG / MLAMP     1
CC0000012614608H202100000556655400000556655407/12/20211200     3300009237421964250000N02B1100001464120000000000000                                           PARACETAMOL EP 1000MG/100ML(10MG/ML) SOL INY  CAJ X 10FCOVAL     3
CC0000012614608H202100000556655400000556655407/12/20212116     3300009237421964250000N05C0800001314910000000000000                                                                                ISOKLON TAB 3 MG /R/TAB     1
