CC0000022352292H202100015112742800015112742807/12/20210207    3190265123742196425000001956000001620610000000000000                                                                      CONECTOR MICRO CLAVE LAT-MC100SOB     1
CC0000032776593H202100015112742800015112742807/12/20210207    3190265123742196425000001956000001620610000000000000                                                                      CONECTOR MICRO CLAVE LAT-MC100SOB     1
CC0001066890191H202100015112742800015112742807/12/20210207    3190265123742196425000001956000001620610000000000000                                                                      CONECTOR MICRO CLAVE LAT-MC100SOB     1
