CC0000022310952U202100050131956400050131956407/12/20211840    3150024623942196432000001956000001620610000000000000                                                                      CONECTOR MICRO CLAVE LAT-MC100SOB     1
CC0001042473802U202100050131956400050131956407/12/20211840    31500246239421964320000Q1AA7100000610620000000000000                                                            CATETER PERIFE INTROCAN # 18G 4251687-04SIN     1
CC0000022310952U202100050131956400050131956407/12/20211840    31500246239421964320000Q1AA7300000610640000000000000                                                            CATETER PERIFE INTROCAN # 22G 4251628-04SIN     1
CC0000022310952U202100050131956400050131956407/12/20211840    3150024623942196432000016830000000970620000000000000                                                             SIST FIJACION CAT PERIFERICO 6.5X7 1683SOB     1
