RC0001048082284U202100000556680900000556680907/12/20212219    31901003239421964320000E1AB0200000199290000000000000                                                            SOLUCION SALINA 0.9% SLN INY BO X 100 MLBIN     1
RC0001048082284U202100000556680900000556680907/12/20212248     3300004239421964320000D03A0300000213220000000000000                                                                        FITOSTIMOLINE CREMA 15% 32 GTUB     1
RC0001048082284U202100000556680900000556680907/12/20212203     3300004239421964320000N1BA1900000554750000000000000                                                                     ROXICAINA JALEA 2% TUBO X 30 MLTUB     1
RC0001048082284U202100000556680900000556680907/12/20212204     3300004239421964320000N2BE1100000836430000000000000                                             ACETAMINOFEN 150MG/5ML(3%) JBE INST FCO X 60ML AMER GENCAJ     1
