CC0000091178991U202100000556679700000556679707/12/20212159    31500188239421964320000E1AB0200000199290000000000000                                                            SOLUCION SALINA 0.9% SLN INY BO X 100 MLBIN     1
CC0000091178991U202100000556679700000556679707/12/20212224    31903175239421964320000E1AB0700003888350000000000000                                                            SOLUCION SALINA 0.9% SLN INY BO X 250 MLBOL     1
CC0000091178991U202100000556679700000556679707/12/20212207     3300004239421964320000M1AE2500000191550000000000000                                                            PROFENID POLVO LIOF SLN INY 100MG/2ML/R/AMP     1
CC0000091178991U202100000556679700000556679707/12/20212000     3300004239421964320000N2AX0400001204140000000000000                                                                             TRAMAL Sln Iny 50 mg/mlAMP     1
