RC0001240692787H202100015052809100015052809107/12/20212103    3190264423742196425000038568300000257010000000000000                                                                                   SONDA NELATON #08SIN     1
RC0001240692787H202100015052809100015052809107/12/20212103    3190264423742196425000043485100001618510000000000000                GUANTE QUIRURGICO DE LATEX REF 2D72N65X CAJ X 50 PROTEXIS  6.5 BN EXENTO-DC.417/2020SOB     2
RC0001240692787H202100015052809100015052809107/12/20212103    3190264423742196425000013077800000471960000000000000                                                             GASA NO TEJIDA EST 7.5 X 7.5 SOB X 3 UNSOB     2
CC0001102861537H202100015052809100015052809107/12/20212103    3190264423742196425000013077800000471960000000000000                                                             GASA NO TEJIDA EST 7.5 X 7.5 SOB X 3 UNSOB     5
CC0000032856400H202100015052809100015052809107/12/20212103    3190264423742196425000013077800000471960000000000000                                                             GASA NO TEJIDA EST 7.5 X 7.5 SOB X 3 UNSOB     3
CC0001051681679H202100015052809100015052809107/12/20212103    3190264423742196425000013077800000471960000000000000                                                             GASA NO TEJIDA EST 7.5 X 7.5 SOB X 3 UNSOB     5
TI0001043450576H202100015052809100015052809107/12/20212103    3190264423742196425000013077800000471960000000000000                                                             GASA NO TEJIDA EST 7.5 X 7.5 SOB X 3 UNSOB     2
CC0001102861537H202100015052809100015052809107/12/20212103    3190264423742196425000042743200003929860000000000000                   GASA ADHESIVA STRETCH REF 02038-00 ROL X 10MT FIXOMULL 15CM BN EXENTO-DC.417/2020CMT    60
CC0001051681679H202100015052809100015052809107/12/20212103    3190264423742196425000042743200003929860000000000000                   GASA ADHESIVA STRETCH REF 02038-00 ROL X 10MT FIXOMULL 15CM BN EXENTO-DC.417/2020CMT    60
TI0001043450576H202100015052809100015052809107/12/20212103    3190264423742196425000016830000000970620000000000000                                                             SIST FIJACION CAT PERIFERICO 6.5X7 1683SOB     1
