CC0000084025415U202100000556681500000556681507/12/20212304    31902171239421964320000E1AD0300000199490000000000000                                         LACTATO RINGER USP (HARTMANN)  SOL INY  BOL X 1000ML BAXTERBIN     1
CC0000084025415U202100000556681500000556681507/12/20212228     3300004239421964320000H02AB500001664950000000000000                                                            DEXAMETASONA SLN INY 8 MG/2 ML AMP /CDS/AMP     1
CC0000084025415U202100000556681500000556681507/12/20212228     3300004239421964320000J1HA1700001394870000000000000                                                             PENICILINA G SOD POLVO RECONS 1 MILL UIVAL     1
CC0000084025415U202100000556681500000556681507/12/20212242     3300004239421964320000J01CE800000414410000000000000                                                            PENICILINA G BENZATINICA VI 2.400.000 UIAMP     1
CC0000084025415U202100000556681500000556681507/12/20212228     3300004239421964320000N02B1100001464120000000000000                                           PARACETAMOL EP 1000MG/100ML(10MG/ML) SOL INY  CAJ X 10FCOVAL     1
CC0000084025415U202100000556681500000556681507/12/20212229     3300004239421964320000R05DB100001458270000000000000                                                                FLUTOX SUSP ORAL 3 54 MG/ML X 120 MLFCO     1
