CC0000034001552U202100000556668300000556668307/12/20211629    31500354239421964320000E1AD0300000199490000000000000                                         LACTATO RINGER USP (HARTMANN)  SOL INY  BOL X 1000ML BAXTERBIN     1
CC0000034001552U202100000556668300000556668307/12/20211232     3300004239421964320000N02B1100001464120000000000000                                           PARACETAMOL EP 1000MG/100ML(10MG/ML) SOL INY  CAJ X 10FCOVAL     1
CC0000034001552U202100000556668300000556668307/12/20211232     3300004239421964320000R05DB100001458270000000000000                                                                FLUTOX SUSP ORAL 3 54 MG/ML X 120 MLFCO     1
