CC0000022366269H202100015012627700015012627707/12/20211251    3190115323742196425000022426800001140510000000000000                                                                    EQUIPO MACROGOTEO BAXTER MRC0001SOB     1
TI0001107068221H202100015012627700015012627707/12/20211251    3190115323742196425000022426800001140510000000000000                                                                    EQUIPO MACROGOTEO BAXTER MRC0001SOB     1
TI0001141320302H202100015012627700015012627707/12/20211251    3190115323742196425000022426800001140510000000000000                                                                    EQUIPO MACROGOTEO BAXTER MRC0001SOB     1
CC0000022366269H202100015012627700015012627707/12/20211251    31901153237421964250000E1AB0700003888350000000000000                                                            SOLUCION SALINA 0.9% SLN INY BO X 250 MLBOL     1
TI0001107068221H202100015012627700015012627707/12/20211251    31901153237421964250000E1AB0200000199290000000000000                                                            SOLUCION SALINA 0.9% SLN INY BO X 100 MLBIN     2
TI0001141320302H202100015012627700015012627707/12/20211251    31901153237421964250000E1AB0200000199290000000000000                                                            SOLUCION SALINA 0.9% SLN INY BO X 100 MLBIN     2
