RC0001046723141A202100000027841100000027841107/12/20210852    31903336240421964190000E1AB0500003888400000000000000                                                              SOLUCION SALINA 0.9% SLN INY X 1000 MLBOL     1
RC0001046723141A202100000027841100000027841107/12/20210852    31903336240421964190000E1AB0300003888390000000000000                                                            SOLUCION SALINA 0.9% SLN INY BO X 500 MLBOL     2
RC0001046723141A202100000027841100000027841107/12/20210852    3190333624042196419000000600700001571630000000000000                                                            APOSITO AQUACEL AG 403711  19.5CM X 29.5SOB     1
RC0001046723141A202100000027841100000027841107/12/20210852    3190333624042196419000041997500001271900000000000000                                                              APOSITO DUODERM EXTRA THIN 15CM X 15CMSOB     3
RC0001046723141A202100000027841100000027841107/12/20210852    31903336240421964190000N01A0400003939010000000000000                                               MAYOPROFOL 200MG/20ML(1%) EMUL INY CAJ X 1VIAL X 20MLVAL     1
RC0001046723141A202100000027841100000027841107/12/20210852    3190333624042196419000018354100000232880000000000000                                                                  SUTURA SEDA NEGRA 3-0 KS 75CM 622HSIN     1
RC0001046723141A202100000027841100000027841107/12/20210852    3190333624042196419000043879200001138180000000000000                                                                                   HOJA BISTURI # 11SOB     1
RC0001046723141A202100000027841100000027841107/12/20210852    3190333624042196419000011006500000227530000000000000                                                             CATETER BILUMEN 4F*8CM PEDIA 01CS15402ESIN     1
RC0001046723141A202100000027841100000027841107/12/20210852    3190333624042196419000016830000000970620000000000000                                                             SIST FIJACION CAT PERIFERICO 6.5X7 1683SOB     1
RC0001046723141A202100000027841100000027841107/12/20210852    3190333624042196419000022425200000548240000000000000                       EXTENSION DE ANESTESIA REF 1139 SOB X 1 SHERLEG  ADULTO BN EXENTO-DC.417/2020SIN     1
RC0001046723141A202100000027841100000027841107/12/20210852    3190333624042196419000022426800001140510000000000000                                                                    EQUIPO MACROGOTEO BAXTER MRC0001SOB     1
RC0001046723141A202100000027841100000027841107/12/20210852    3190333624042196419000030161400001459220000000000000                                                                       MANGUERA SUCCION 6 MM*3.1 MTSSOB     2
RC0001046723141A202100000027841100000027841107/12/20210852    3190333624042196419000011073300001096420000000000000                                                                BOLSA DE SUCCION DE FLUIDOS x 2500mLBOL     1
RC0001046723141A202100000027841100000027841107/12/20210852    3190333624042196419000020750800000295830000000000000                                                                       PLACA RETORNO PEDIAT E7510-25SIN     1
RC0001046723141A202100000027841100000027841107/12/20210852    3190333624042196419000053074400000607910000000000000                                                               GASA ESTERIL 10*10 SOBRE X 3 UNIDADESSOB     3
RC0001046723141A202100000027841100000027841107/12/20210852    3190333624042196419000011085300001082140000000000000                                                                           GUANTE QUIRURGICO TALLA 8SOB     1
RC0001046723141A202100000027841100000027841107/12/20210852    3190333624042196419000011085200001585390000000000000                                                                       GUANTE QUIRURGICO TALLA 7 1/2SOB     4
RC0001046723141A202100000027841100000027841107/12/20210852    3190333624042196419000011085100001082120000000000000                                                                           GUANTE QUIRURGICO TALLA 7SOB     2
RC0001046723141A202100000027841100000027841107/12/20210852    3190333624042196419000038576600000256740000000000000                                                                        SONDA ASPIRACION CONTROL #12SIN     1
RC0001046723141A202100000027841100000027841107/12/20210852    3190333624042196419000039174600001072010000000000000                                                                           TUBO ENDOTRAQUEAL C/B 5.0SOB     1
RC0001046723141A202100000027841100000027841107/12/20210852    3190333624042196419000051515300000598140000000000000                                                                            MASCARILLA ANESTESIA # 3SIN     1
RC0001046723141A202100000027841100000027841107/12/20210852    3190333624042196419000011099300000777780000000000000                                                                     FILTRO BACTERIANO VIRICO ADULTOBOL     1
RC0001046723141A202100000027841100000027841107/12/20210852    3190333624042196419000024674000001138340000000000000   JERINGA 3PARTES C/A 10ML REF JEHL005 CAJ X 100 ALFASAFE  21GX1 PULG 1/2 PULG BN EXENTO-DC.417/202PZA     2
RC0001046723141A202100000027841100000027841107/12/20210852    3190333624042196419000024674500000322810000000000000                                                                   JERINGA DESECHABLE 20 ml 21*1 1/2SIN     2
RC0001046723141A202100000027841100000027841107/12/20210852    31903336240421964190000E1AB0700003888350000000000000                                                            SOLUCION SALINA 0.9% SLN INY BO X 250 MLBOL     2
RC0001046723141A202100000027841100000027841107/12/20210852    31903336240421964190000N01B0200003888110000000000000                                           ROXICAINA SE 100MG/10ML(1%) SOL INY CAJ X 24AMPACK X 10MLAPC     1
