CC0000007479382H202100015112744500015112744507/12/20211448    3190092623742196425000011069000000212140000000000000                                                                      VASELINA QUIMIBEN POTE X 500 GTAR     1
CC0000007479382H202100015112744500015112744507/12/20211448    3190092623742196425000038569900001124970000000000000                                                                              SONDA FOLEY #14 2 VIASSOB     1
CC0000007479382H202100015112744500015112744507/12/20211448    3190092623742196425000011088800001318260000000000000                                                             GUANTE CIRUGIA NITRILO ALFASAFE TALLA 7SOB     2
CC0000007479382H202100015112744500015112744507/12/20211448    3190092623742196425000013077800000471960000000000000                                                             GASA NO TEJIDA EST 7.5 X 7.5 SOB X 3 UNSOB    10
CC0000007479382H202100015112744500015112744507/12/20211448    3190092623742196425000042743200003929860000000000000                   GASA ADHESIVA STRETCH REF 02038-00 ROL X 10MT FIXOMULL 15CM BN EXENTO-DC.417/2020CMT    30
