CC0001065586767U202100050131950400050131950407/12/20210831    3200080323942196432000024674000001138340000000000000   JERINGA 3PARTES C/A 10ML REF JEHL005 CAJ X 100 ALFASAFE  21GX1 PULG 1/2 PULG BN EXENTO-DC.417/202PZA     4
CC0001065586767U202100050131950400050131950407/12/20210831    3200080323942196432000043485100001618510000000000000                GUANTE QUIRURGICO DE LATEX REF 2D72N65X CAJ X 50 PROTEXIS  6.5 BN EXENTO-DC.417/2020SOB     4
CC0001065586767U202100050131950400050131950407/12/20210831    3200080323942196432000013077800000471960000000000000                                                             GASA NO TEJIDA EST 7.5 X 7.5 SOB X 3 UNSOB     4
