CC0001082470270U202100000556659800000556659807/12/20211319    31500547239421964320000E1AB0200000199290000000000000                                                            SOLUCION SALINA 0.9% SLN INY BO X 100 MLBIN     2
CC0001082470270U202100000556659800000556659807/12/20210842     3300004239421964320000J7AA0600001602890000000000000                                                            VACUNA ANTITETANICA SUSP INY 40 UI/0.5MLVAL     1
CC0001082470270U202100000556659800000556659807/12/20210842     3300004239421964320000M1AE1400000191560000000000000                                                                    PROFENID SLN INY 100 MG/2 ML /R/AMP     1
CC0001082470270U202100000556659800000556659807/12/20211118     3300004239421964320000N01B0200003888110000000000000                                           ROXICAINA SE 100MG/10ML(1%) SOL INY CAJ X 24AMPACK X 10MLAPC     1
CC0001082470270U202100000556659800000556659807/12/20211138     3300004239421964320000N2AX0400001204140000000000000                                                                             TRAMAL Sln Iny 50 mg/mlAMP     1
