CC0000022328269H202100015112651200015112651228/10/20212000    3190099823742196425000011089200001083340000000000000                                                              GUANTE ESTERIL LATEX S/POLVO TALLA 7.0SOB     1
CC0001042970504H202100015112651200015112651228/10/20212000    3190099823742196425000011089200001083340000000000000                                                              GUANTE ESTERIL LATEX S/POLVO TALLA 7.0SOB     2
CC0000032678618H202100015112651200015112651228/10/20212000    3190099823742196425000011089200001083340000000000000                                                              GUANTE ESTERIL LATEX S/POLVO TALLA 7.0SOB     2
CC0000022328269H202100015112651200015112651228/10/20212000    3190099823742196425000013077800000471960000000000000                                                             GASA NO TEJIDA EST 7.5 X 7.5 SOB X 3 UNSOB     4
CC0001042970504H202100015112651200015112651228/10/20212000    3190099823742196425000013077800000471960000000000000                                                             GASA NO TEJIDA EST 7.5 X 7.5 SOB X 3 UNSOB    10
CC0000032678618H202100015112651200015112651228/10/20212000    3190099823742196425000013077800000471960000000000000                                                             GASA NO TEJIDA EST 7.5 X 7.5 SOB X 3 UNSOB    10
CC0001042970504H202100015112651200015112651228/10/20212000    3190099823742196425000042743200003929860000000000000                   GASA ADHESIVA STRETCH REF 02038-00 ROL X 10MT FIXOMULL 15CM BN EXENTO-DC.417/2020CMT    10
CC0000032678618H202100015112651200015112651228/10/20212000    3190099823742196425000042743200003929860000000000000                   GASA ADHESIVA STRETCH REF 02038-00 ROL X 10MT FIXOMULL 15CM BN EXENTO-DC.417/2020CMT   100
CC0001042970504H202100015112651200015112651228/10/20212000    3190099823742196425000022426800001140510000000000000                                                                    EQUIPO MACROGOTEO BAXTER MRC0001SOB     2
CC0001042970504H202100015112651200015112651228/10/20212000    3190099823742196425000011082700001620070000000000000                                                               EQUIPO SET PRIMARIO C/CLAVE REF 14001BOL     3
CC0000009137445H202100015112651200015112651228/10/20212000    3190099823742196425000001956000001620610000000000000                                                                      CONECTOR MICRO CLAVE LAT-MC100SOB     1
CC0000093407512H202100015112651200015112651228/10/20212000    3190099823742196425000001956000001620610000000000000                                                                      CONECTOR MICRO CLAVE LAT-MC100SOB     1
CC0000093407512H202100015112651200015112651228/10/20212000    31900998237421964250000Q1AA7100000610620000000000000                                                            CATETER PERIFE INTROCAN # 18G 4251687-04SIN     1
CC0000009137445H202100015112651200015112651228/10/20212000    31900998237421964250000Q1AA7200000610630000000000000                                                            CATETER PERIFE INTROCAN # 20G 4251644-04SIN     1
CC0000022328269H202100015112651200015112651228/10/20212000    3190099823742196425000000602700001197200000000000000                                                              APOSITO TRANSP  1655 IV 8.5CM X 11.5CMSOB     1
CC0001042970504H202100015112651200015112651228/10/20212000    3190099823742196425000000602700001197200000000000000                                                              APOSITO TRANSP  1655 IV 8.5CM X 11.5CMSOB     1
CC0000032678618H202100015112651200015112651228/10/20212000    3190099823742196425000000602700001197200000000000000                                                              APOSITO TRANSP  1655 IV 8.5CM X 11.5CMSOB     1
CC0000009137445H202100015112651200015112651228/10/20212000    3190099823742196425000016830000000970620000000000000                                                             SIST FIJACION CAT PERIFERICO 6.5X7 1683SOB     1
CC0000093407512H202100015112651200015112651228/10/20212000    3190099823742196425000016830000000970620000000000000                                                             SIST FIJACION CAT PERIFERICO 6.5X7 1683SOB     1
