CC0001067030365U202100000555061400000555061428/10/20210642    31500362239421964320000E1AB0200000199290000000000000                                                            SOLUCION SALINA 0.9% SLN INY BO X 100 MLBIN     1
CC0001067030365U202100000555061400000555061428/10/20212115    31902327239421964320000E1AB0300003888390000000000000                                                            SOLUCION SALINA 0.9% SLN INY BO X 500 MLBOL     1
CC0001067030365U202100000555061400000555061428/10/20212028    31902327239421964320000E1AD0300000199490000000000000                                         LACTATO RINGER USP (HARTMANN)  SOL INY  BOL X 1000ML BAXTERBIN     1
CC0001067030365U202100000555061400000555061428/10/20212033     3300004239421964320000H02A0100001664960000000000000                                                                        DEXAMETASONA SLN INY 4 MG/MLAMP     1
CC0001067030365U202100000555061400000555061428/10/20212033     3300004239421964320000J01F0200001689390000000000000                                                                        CLINDAMICINA INY 600 MG/4 MLAMP     1
CC0001067030365U202100000555061400000555061428/10/20212033     3300004239421964320000A02BC700001684270000000000000                                                            OMEPRAZOL 40MG POLVO LIOFILIZADO AMPOLLAVAL     1
