TI0001084454864H202100015022523500015022523528/10/20211610    3190205623742196425000024675000001585130000000000000                                                                    JERINGA DESECHABLE 50 ml S/AGUJASOB     2
TI0001084454864H202100015022523500015022523528/10/20211610    3190205623742196425000024674500000322810000000000000                                                                   JERINGA DESECHABLE 20 ml 21*1 1/2SIN     2
TI0001084454864H202100015022523500015022523528/10/20211610    3190205623742196425000011085400001083360000000000000                                                                       GUANTE QUIRURGICO TALLA 8 1/2SOB     1
TI0001084454864H202100015022523500015022523528/10/20211610    3190205623742196425000013077800000471960000000000000                                                             GASA NO TEJIDA EST 7.5 X 7.5 SOB X 3 UNSOB     8
TI0001084454864H202100015022523500015022523528/10/20211610    3190205623742196425000011082700001620070000000000000                                                               EQUIPO SET PRIMARIO C/CLAVE REF 14001BOL     4
TI0001084454864H202100015022523500015022523528/10/20211610    31902056237421964250000E1AB0700003888350000000000000                                                            SOLUCION SALINA 0.9% SLN INY BO X 250 MLBOL     2
TI0001084454864H202100015022523500015022523528/10/20211610    31902056237421964250000E1AB1100003888280000000000000                                                                        SOLUCION SALINA 0.9% X 50 mlBOL     2
