CC0000005029363A202100000027636100000027636128/10/20210808    3190333624042196419000019487800001585180000000000000                                                                    VICRYL 1 PLUS 70 CM CT-1 VCP341HSOB     2
CC0000005029363A202100000027636100000027636128/10/20210808    3190333624042196419000022425200000548240000000000000                       EXTENSION DE ANESTESIA REF 1139 SOB X 1 SHERLEG  ADULTO BN EXENTO-DC.417/2020SIN     5
CC0000005029363A202100000027636100000027636128/10/20210808    3190333624042196419000035356500003919000000000000000                                                                                        LLAVE 3 VIASSOB     6
CC0000005029363A202100000027636100000027636128/10/20210808    3190333624042196419000022426800001140510000000000000                                                                    EQUIPO MACROGOTEO BAXTER MRC0001SOB     1
CC0000005029363A202100000027636100000027636128/10/20210808    31903336240421964190000J01DA300001239950000000000000                                                            CEFAZOLINA SODICA POLVO LIOF SLN INY 1 GVAL     2
CC0000005029363A202100000027636100000027636128/10/20210808    3190333624042196419000011073300001096420000000000000                                                                BOLSA DE SUCCION DE FLUIDOS x 2500mLBOL     1
CC0000005029363A202100000027636100000027636128/10/20210808    3190333624042196419000020750600000296780000000000000                                                                PLACA ELECTRO RETORNO PACIENTE E7506SIN     1
CC0000005029363A202100000027636100000027636128/10/20210808    3190333624042196419000011082700001620070000000000000                                                               EQUIPO SET PRIMARIO C/CLAVE REF 14001BOL     1
CC0000005029363A202100000027636100000027636128/10/20210808    3190333624042196419000053074400000607910000000000000                                                               GASA ESTERIL 10*10 SOBRE X 3 UNIDADESSOB     9
CC0000005029363A202100000027636100000027636128/10/20210808    3190333624042196419000011085100001082120000000000000                                                                           GUANTE QUIRURGICO TALLA 7SOB     5
CC0000005029363A202100000027636100000027636128/10/20210808    3190333624042196419000051515500000598160000000000000                                                                            MASCARILLA ANESTESIA # 5SIN     1
CC0000005029363A202100000027636100000027636128/10/20210808    3190333624042196419000038568100000258050000000000000                                                                         CANULA OXIGENO NASAL ADULTOSIN     1
CC0000005029363A202100000027636100000027636128/10/20210808    3190333624042196419000011099300000777780000000000000                                                                     FILTRO BACTERIANO VIRICO ADULTOBOL     2
CC0000005029363A202100000027636100000027636128/10/20210808    3190333624042196419000001200400000530690000000000000                                                                          CANULA DE MAYO # 5 (100MM)SIN     1
CC0000005029363A202100000027636100000027636128/10/20210808    3190333624042196419000020056600001101530000000000000                                                                AGUJA HIPODERMICA DESECH 18G X 1 1/2SOB     1
CC0000005029363A202100000027636100000027636128/10/20210808    3190333624042196419000038569400000256750000000000000                                                                        SONDA ASPIRACION CONTROL #14SIN     1
CC0000005029363A202100000027636100000027636128/10/20210808    3190333624042196419000039175100001072060000000000000                                                                           TUBO ENDOTRAQUEAL C/B 7.5SOB     1
CC0000005029363A202100000027636100000027636128/10/20210808    3190333624042196419000024673600000222980000000000000                                                                     JERINGA DESECHABLE 5 ml 27*11/2SIN     3
CC0000005029363A202100000027636100000027636128/10/20210808    3190333624042196419000024673000001411210000000000000                                                                  JERINGA DESECHABLE 3 ML 21 X 1 1/2SOB     2
CC0000005029363A202100000027636100000027636128/10/20210808    3190333624042196419000024674000000220660000000000000                             JERINGA A 3 PARTES CON AGUJA  SOB X 1 RYMCO  10ML BN EXENTO-DC.417/2020SIN     4
CC0000005029363A202100000027636100000027636128/10/20210808    3190333624042196419000024674500000322810000000000000                                                                   JERINGA DESECHABLE 20 ml 21*1 1/2SIN     3
CC0000005029363A202100000027636100000027636128/10/20210808    31903336240421964190000E1AB0300003888390000000000000                                                            SOLUCION SALINA 0.9% SLN INY BO X 500 MLBOL     4
CC0000005029363A202100000027636100000027636128/10/20210808    31903336240421964190000E1AB0700003888350000000000000                                                            SOLUCION SALINA 0.9% SLN INY BO X 250 MLBOL     1
CC0000005029363A202100000027636100000027636128/10/20210808    31903336240421964190000E1AB0200000199290000000000000                                                            SOLUCION SALINA 0.9% SLN INY BO X 100 MLBIN     1
CC0000005029363A202100000027636100000027636128/10/20210808    31903336240421964190000N02B1100001169680000000000000                              PARACETAMOL 1000MG/100ML(10MG/ML) SOL INY  VIAL X 100ML FRESENIUS KABIVAL     1
CC0000005029363A202100000027636100000027636128/10/20210808    31903336240421964190000A2BC0900000200150000000000000                                                                               ORAZOLE Sln Iny 40 mgCIN     1
CC0000005029363A202100000027636100000027636128/10/20210808    31903336240421964190000M1AX0200001569410000000000000                                                                         KETRON SLN INY 30 MG / 2 MLAMP     1
CC0000005029363A202100000027636100000027636128/10/20210808    31903336240421964190000M01A0400001341250000000000000                                                                              DYNASTAT AMP 40 MG /R/VAL     1
CC0000005029363A202100000027636100000027636128/10/20210808    31903336240421964190000N2BB1100000217160000000000000                                                                      NOVALGINA Sln Iny 2.5 g x 5 mlAMP     1
CC0000005029363A202100000027636100000027636128/10/20210808    31903336240421964190000A4AD0200000202990000000000000                                                                     PLITICAN HCL Sln Iny 50 mg/2 mlAMP     1
CC0000005029363A202100000027636100000027636128/10/20210808    31903336240421964190000H02AB500001664950000000000000                                                            DEXAMETASONA SLN INY 8 MG/2 ML AMP /CDS/AMP     1
CC0000005029363A202100000027636100000027636128/10/20210808    31903336240421964190000N1BA0300000217900000000000000                                                                    BUPIROP 0.5% C/E Sln Iny x 20 mlVAL     1
CC0000005029363A202100000027636100000027636128/10/20210808    31903336240421964190000M3AC0600000720540000000000000                                                                         ESMERON SLN INY 50 MG /5 MLVAL     1
CC0000005029363A202100000027636100000027636128/10/20210808    31903336240421964190000N2AA0100000301640000000000000                                                                            MORFINA Sln Iny 10 mg/mlAMP     1
CC0000005029363A202100000027636100000027636128/10/20210808    31903336240421964190000N2AA0700001587170000000000000                                                                                 ULTIVA Sln Iny 2 mgVAL     1
CC0000005029363A202100000027636100000027636128/10/20210808    3190333624042196419000042743200003929860000000000000                   GASA ADHESIVA STRETCH REF 02038-00 ROL X 10MT FIXOMULL 15CM BN EXENTO-DC.417/2020CMT    15
CC0000005029363A202100000027636100000027636128/10/20210808    3190333624042196419000000602000000258640000000000000                                                            APOSITO OPSITE POST OP 4463  6.5CM X 5CMSIN     2
CC0000005029363A202100000027636100000027636128/10/20210808    3190333624042196419000000601800000258500000000000000                                                            APOSITO OPSITE POST - OP0712  15CM X 8CMSIN     1
CC0000005029363A202100000027636100000027636128/10/20210808    3190333624042196419000021052200000380370000000000000                                                                        RESERVORIO J-VAC 100 ml 2160PZA     1
CC0000005029363A202100000027636100000027636128/10/20210808    3190333624042196419000022310200001001130000000000000                                                              DRENAJE SILICONA BLAKE 24 FR  S/CONECTPZA     1
CC0000005029363A202100000027636100000027636128/10/20210808    3190333624042196419000036441300000236540000000000000                                                                    JERINGA 1 ML GASES ARTERIAL 9023SIN     1
CC0000005029363A202100000027636100000027636128/10/20210808    3190333624042196419000038568800000256980000000000000                                                                                   SONDA NELATON #18SIN     1
CC0000005029363A202100000027636100000027636128/10/20210808    31903336240421964190000E1AD0200003888320000000000000                                                                              HARTMAN SLN INY 500 MLBOL     3
CC0000005029363A202100000027636100000027636128/10/20210808    3190333624042196419000001900000000325550000000000000                                                                       HEM-O-LOK MORADO L 544240 X 6SIN     3
CC0000005029363A202100000027636100000027636128/10/20210808    3190333624042196419000000100600000223090000000000000                                                                      AGUJA DESECHABLE 18G X 1 1/2 PSIN     3
CC0000005029363A202100000027636100000027636128/10/20210808    31903336240421964190000N01A0400003939010000000000000                                               MAYOPROFOL 200MG/20ML(1%) EMUL INY CAJ X 1VIAL X 20MLVAL     7
CC0000005029363A202100000027636100000027636128/10/20210808    3190333624042196419000024675000001585130000000000000                                                                    JERINGA DESECHABLE 50 ml S/AGUJASOB     2
CC0000005029363A202100000027636100000027636128/10/20210808    3190333624042196419000015944000000632490000000000000                                                                           MONOCRYL 3-0 PS2  MCP427HSIN     1
CC0000005029363A202100000027636100000027636128/10/20210808    31903336240421964190000N1BA1900000554750000000000000                                                                     ROXICAINA JALEA 2% TUBO X 30 MLTUB     2
CC0000005029363A202100000027636100000027636128/10/20210808    3190333624042196419000017575000000232660000000000000                                                                             PROLENE 3-0 SH/SH 8522TSIN     1
CC0000005029363A202100000027636100000027636128/10/20210808    3190333624042196419000018351100000232850000000000000                                                                                 SEDA 2-0 SC-26 185TSIN     2
CC0000005029363A202100000027636100000027636128/10/20210808    3190333624042196419000011055600000349930000000000000                                                             MEDIA ANTIEMBOLICA MUSLO T.V.P 98 ( XL)BOL     1
CC0000005029363A202100000027636100000027636128/10/20210808    3190333624042196419000011067000001404580000000000000                                                               TROCAR FIJACION 12MM X 100 MM  B12STFPZA     1
CC0000005029363A202100000027636100000027636128/10/20210808    3190333624042196419000001202200001460380000000000000                                                             CANULA UNIVERSA  5X100MM REF UNIVCA5STFSOB     1
CC0000005029363A202100000027636100000027636128/10/20210808    31903336240421964190000K0075000000967750000000000000                                                                     GRAPADORA LINEAL 75 GOLD NTLC75PZA     1
CC0000005029363A202100000027636100000027636128/10/20210808    31903336240421964190000K0017500000967690000000000000                                                                                RECARGA GOLD 75 SR75SOB     2
CC0000005029363A202100000027636100000027636128/10/20210808    3190333624042196419000043879200001138180000000000000                                                                                   HOJA BISTURI # 11SOB     2
CC0000005029363A202100000027636100000027636128/10/20210808    3190333624042196419000030161400001459220000000000000                                                                       MANGUERA SUCCION 6 MM*3.1 MTSSOB     1
CC0000005029363A202100000027636100000027636128/10/20210808    3190333624042196419000045138000001413890000000000000                                                                       LAPIZ ELECTROBISTURI  SOB X 1SOB     1
CC0000005029363A202100000027636100000027636128/10/20210808    3190333624042196419000019488400000599300000000000000                                                                               VICRYL 2-0 SH VCP317HSIN     1
CC0000005029363A202100000027636100000027636128/10/20210808    3190333624042196419000038570000001123500000000000000                                                                              SONDA FOLEY #16 2 VIASSOB     1
CC0000005029363A202100000027636100000027636128/10/20210808    3190333624042196419000031188000000236790000000000000                                                                                     CISTOFLO ADULTOSIN     1
CC0000005029363A202100000027636100000027636128/10/20210808    3190333624042196419000011085300001082140000000000000                                                                           GUANTE QUIRURGICO TALLA 8SOB     3
CC0000005029363A202100000027636100000027636128/10/20210808    3190333624042196419000011085200001585390000000000000                                                                       GUANTE QUIRURGICO TALLA 7 1/2SOB     3
CC0000005029363A202100000027636100000027636128/10/20210808    3190333624042196419000043485100001618510000000000000                GUANTE QUIRURGICO DE LATEX REF 2D72N65X CAJ X 50 PROTEXIS  6.5 BN EXENTO-DC.417/2020SOB     1
CC0000005029363A202100000027636100000027636128/10/20210808    3190333624042196419000016830000000970620000000000000                                                             SIST FIJACION CAT PERIFERICO 6.5X7 1683SOB     1
CC0000005029363A202100000027636100000027636128/10/20210808    31903336240421964190000Q1AA3300001585140000000000000                                                                         APOSITO TEGADERM 10*12 1626SOB     1
CC0000005029363A202100000027636100000027636128/10/20210808    31903336240421964190000Q1A11500000331560000000000000                                                                     CATETER RADIAL #20 REF. 115.090SIN     1
CC0000005029363A202100000027636100000027636128/10/20210808    3190333624042196419000011051900000226360000000000000                                                               KIT TRANSDUCTOR SENCILLO S/VAMP PX260SOB     1
CC0000005029363A202100000027636100000027636128/10/20210808    31903336240421964190000B1AB0100001227270000000000000                                             HEPAMAX 25000UI/5ML(5000UI/ML) SOL INY  CAJ X 25AMPX5MLAMP     1
CC0000005029363A202100000027636100000027636128/10/20210808    3190333624042196419000018351500000232840000000000000                                                                                    SEDA 2-0 KS 623HSIN     1
CC0000005029363A202100000027636100000027636128/10/20210808    3190333624042196419000021193900000227540000000000000                                                              CATETER BILUME GARD ADULT 7F*20 26702ESIN     1
