CC0001042970504H202100915445102800915445102828/10/20210948    3150030523742196425000020056600001101530000000000000                                                                AGUJA HIPODERMICA DESECH 18G X 1 1/2SOB     5
CC0001042970504H202100915445102800915445102828/10/20210948    3150030523742196425000024674000000220660000000000000                             JERINGA A 3 PARTES CON AGUJA  SOB X 1 RYMCO  10ML BN EXENTO-DC.417/2020SIN    10
CC0001042970504H202100915445102800915445102828/10/20210948    3150030523742196425000045136100001419300000000000000                                                                            LANCETA DEXTROMETER X UNPZA     4
CC0001042970504H202100915445102800915445102828/10/20210948    31500305237421964250000V07A1300000502600000000000000                                                                                AGUA ESTERIL x 10 mlAMP    10
CC0001042970504H202100915445102800915445102828/10/20210948    31500305237421964250000E1AD0300000199490000000000000                                         LACTATO RINGER USP (HARTMANN)  SOL INY  BOL X 1000ML BAXTERBIN     2
CC0001042970504H202100915445102800915445102828/10/20210948    31500305237421964250000B5BC0200003889280000000000000                                                                 OSMORIN MANITOL 20 % Bolsa X 500 mlBOL     1
CC0001042970504H202100915445102800915445102828/10/20210948    31500305237421964250000E1AB0200000199290000000000000                                                            SOLUCION SALINA 0.9% SLN INY BO X 100 MLBIN     8
CC0001042970504H202100915445102800915445102828/10/20212145    31900998237421964250000B5BC0200003889280000000000000                                                                 OSMORIN MANITOL 20 % Bolsa X 500 mlBOL     1
