CC0000044150179H202100015022523800015022523828/10/20212016    3190244523742196425000011082700001620070000000000000                                                               EQUIPO SET PRIMARIO C/CLAVE REF 14001BOL     1
CC0000044150179H202100015022523800015022523828/10/20212016    3190244523742196425000030936900001431840000000000000                                                                                              BURETABOL     1
CC0000044150179H202100015022523800015022523828/10/20212016    3190244523742196425000016830000000970620000000000000                                                             SIST FIJACION CAT PERIFERICO 6.5X7 1683SOB     1
CC0001144044612H202100015022523800015022523828/10/20212016    31902445237421964250000E1AD0300000199490000000000000                                         LACTATO RINGER USP (HARTMANN)  SOL INY  BOL X 1000ML BAXTERBIN     1
CC0000044150179H202100015022523800015022523828/10/20212016    31902445237421964250000E1AD0300000199490000000000000                                         LACTATO RINGER USP (HARTMANN)  SOL INY  BOL X 1000ML BAXTERBIN     1
TI0001044214728H202100015022523800015022523828/10/20212016    31902445237421964250000E1AD0200003888320000000000000                                                                              HARTMAN SLN INY 500 MLBOL     1
CC0001129569793H202100015022523800015022523828/10/20212016    31902445237421964250000E1AD0200003888320000000000000                                                                              HARTMAN SLN INY 500 MLBOL     1
CC0000032734764H202100015022523800015022523828/10/20212016    31902445237421964250000E1AD0200003888320000000000000                                                                              HARTMAN SLN INY 500 MLBOL     1
CC0000022647568H202100015022523800015022523828/10/20212016    31902445237421964250000E1AB0500003888400000000000000                                                              SOLUCION SALINA 0.9% SLN INY X 1000 MLBOL     1
RC0001146542960H202100015022523800015022523828/10/20212016    31902445237421964250000E1AB0300003888390000000000000                                                            SOLUCION SALINA 0.9% SLN INY BO X 500 MLBOL     1
CC0001129569793H202100015022523800015022523828/10/20212016    31902445237421964250000E1AC0100000199400000000000000                                                                          SUERO MIXTO Sln Iny 500 mlBIN     1
