RC0001140910095U202100050131405600050131405628/10/20211109    3190118123942196432000042743200003929860000000000000                   GASA ADHESIVA STRETCH REF 02038-00 ROL X 10MT FIXOMULL 15CM BN EXENTO-DC.417/2020CMT    30
RC0001140910095U202100050131405600050131405628/10/20211109    3190118123942196432000011082700001620070000000000000                                                               EQUIPO SET PRIMARIO C/CLAVE REF 14001BOL     1
RC0001140910095U202100050131405600050131405628/10/20211109    3190118123942196432000001956000001620610000000000000                                                                      CONECTOR MICRO CLAVE LAT-MC100SOB     1
RC0001140910095U202100050131405600050131405628/10/20211109    31901181239421964320000Q1AA7400003911720000000000000                                                            CATETER PERIFE INTROCAN # 24G 4251601-04SOB     1
RC0001140910095U202100050131405600050131405628/10/20211109    31901181239421964320000E1AD0200003888320000000000000                                                                              HARTMAN SLN INY 500 MLBOL     1
