CC0001045714877U202100050131403000050131403028/10/20210737    3150061723942196432000012475800000232220000000000000                                                                SUTURA ETHILON 4-0 PS-2  45CM P1667TSIN     1
CC0001045714877U202100050131403000050131403028/10/20210737    3150061723942196432000011089400001083350000000000000                                                              GUANTE ESTERIL LATEX S/POLVO TALLA 8.0SOB     2
CC0001045714877U202100050131403000050131403028/10/20210737    3150061723942196432000013077800000471960000000000000                                                             GASA NO TEJIDA EST 7.5 X 7.5 SOB X 3 UNSOB     5
CC0001045714877U202100050131403000050131403028/10/20210737    3150061723942196432000000100900001079620000000000000                                                             AGUJA INSULINA EN PEN  BD320121 31G*5MMSOB     1
CC0001045714877U202100050131403000050131403028/10/20210737    31500617239421964320000E1AB0200000199290000000000000                                                            SOLUCION SALINA 0.9% SLN INY BO X 100 MLBIN     1
