CC0000008565480H202100015012568100015012568128/10/20211142    3190093123742196425000019487500000602970000000000000                                                                           VICRYL 2-0 CT1 90 VCP345HSIN     1
CC0000008565480H202100015012568100015012568128/10/20211142    3190093123742196425000043879200001138180000000000000                                                                                   HOJA BISTURI # 11SOB     1
CC0000008565480H202100015012568100015012568128/10/20211142    3190093123742196425000011088800001318260000000000000                                                             GUANTE CIRUGIA NITRILO ALFASAFE TALLA 7SOB     1
CC0000008565480H202100015012568100015012568128/10/20211142    3190093123742196425000053074400000607910000000000000                                                               GASA ESTERIL 10*10 SOBRE X 3 UNIDADESSOB     6
CC0000008565480H202100015012568100015012568128/10/20211142    3190093123742196425000042743200003929860000000000000                   GASA ADHESIVA STRETCH REF 02038-00 ROL X 10MT FIXOMULL 15CM BN EXENTO-DC.417/2020CMT    30
CC0000055163818H202100015012568100015012568128/10/20211142    31900931237421964250000Q1AA5900000236800000000000000                                                                            CISTOFLO PEDIAT X 500 mlSIN     1
