CC0000022590971U202100000555050100000555050128/10/20211159    31902171239421964320000E1AB0200000199290000000000000                                                            SOLUCION SALINA 0.9% SLN INY BO X 100 MLBIN     1
CC0000022590971U202100000555050100000555050128/10/20210419    31902800239421964320000E1AB0200000199290000000000000                                                            SOLUCION SALINA 0.9% SLN INY BO X 100 MLBIN     1
CC0000022590971U202100000555050100000555050128/10/20210124    31900939239421964320000E1AB0200000199290000000000000                                                            SOLUCION SALINA 0.9% SLN INY BO X 100 MLBIN     1
CC0000022590971U202100000555050100000555050128/10/20210630    31500387239421964320000E1AB0500003888400000000000000                                                              SOLUCION SALINA 0.9% SLN INY X 1000 MLBOL     1
CC0000022590971U202100000555050100000555050128/10/20210124    31900939239421964320000E1AB0500003888400000000000000                                                              SOLUCION SALINA 0.9% SLN INY X 1000 MLBOL     2
CC0000022590971U202100000555050100000555050128/10/20210937     3300004239421964320000D06AX100001192800000000000000                                                                    FUCIDIN CREMA 2% TUBO X 15 G /R/TUB     1
CC0000022590971U202100000555050100000555050128/10/20210311     3300004239421964320000J01DB300000553200000000000000                                                                         CEFALOTINA SLN INY 1 G VIALVAL     1
CC0000022590971U202100000555050100000555050128/10/20210951     3300004239421964320000J1DA0200001277350000000000000                                                                                   KEFLEX TAB 500 MGTAB     3
CC0000022590971U202100000555050100000555050128/10/20210950     3300004239421964320000J1DA0200001277350000000000000                                                                                   KEFLEX TAB 500 MGTAB     4
CC0000022590971U202100000555050100000555050128/10/20210949     3300004239421964320000J1DA0200001277350000000000000                                                                                   KEFLEX TAB 500 MGTAB     1
CC0000022590971U202100000555050100000555050128/10/20210948     3300004239421964320000J1DA0200001277350000000000000                                                                                   KEFLEX TAB 500 MGTAB     4
CC0000022590971U202100000555050100000555050128/10/20210947     3300004239421964320000J1DA0200001277350000000000000                                                                                   KEFLEX TAB 500 MGTAB     3
CC0000022590971U202100000555050100000555050128/10/20210946     3300004239421964320000J1DA0200001277350000000000000                                                                                   KEFLEX TAB 500 MGTAB     2
CC0000022590971U202100000555050100000555050128/10/20210945     3300004239421964320000J1DA0200001277350000000000000                                                                                   KEFLEX TAB 500 MGTAB     1
CC0000022590971U202100000555050100000555050128/10/20210942     3300004239421964320000J1DA0200001277350000000000000                                                                                   KEFLEX TAB 500 MGTAB     2
CC0000022590971U202100000555050100000555050128/10/20210641     3300004239421964320000N01B0200003888110000000000000                                           ROXICAINA SE 100MG/10ML(1%) SOL INY CAJ X 24AMPACK X 10MLAPC     1
CC0000022590971U202100000555050100000555050128/10/20211005     3300004239421964320000N2BE0100001276930000000000000                                                                                    DOLEX TAB 500 MGTAB     4
CC0000022590971U202100000555050100000555050128/10/20210957     3300004239421964320000N2BE0100001276930000000000000                                                                                    DOLEX TAB 500 MGTAB     4
CC0000022590971U202100000555050100000555050128/10/20210956     3300004239421964320000N2BE0100001276930000000000000                                                                                    DOLEX TAB 500 MGTAB     2
CC0000022590971U202100000555050100000555050128/10/20210955     3300004239421964320000N2BE0100001276930000000000000                                                                                    DOLEX TAB 500 MGTAB     1
CC0000022590971U202100000555050100000555050128/10/20210953     3300004239421964320000N2BE0100001276930000000000000                                                                                    DOLEX TAB 500 MGTAB     5
CC0000022590971U202100000555050100000555050128/10/20210954     3300004239421964320000N2BE0100001276930000000000000                                                                                    DOLEX TAB 500 MGTAB     4
CC0000022590971U202100000555050100000555050128/10/20210641     3300004239421964320000N02B1100001169680000000000000                              PARACETAMOL 1000MG/100ML(10MG/ML) SOL INY  VIAL X 100ML FRESENIUS KABIVAL     1
CC0000022590971U202100000555050100000555050128/10/20210311     3300004239421964320000N02B1100001169680000000000000                              PARACETAMOL 1000MG/100ML(10MG/ML) SOL INY  VIAL X 100ML FRESENIUS KABIVAL     1
