RC0001048088257U202100000555060400000555060428/10/20210558     3300004239421964320000A4AD0600000203030000000000000                                                                           PLITICAN SLN ORAL X 15 MLFCO     1
RC0001048088257U202100000555060400000555060428/10/20211108     3300004239421964320000A07C0400000953120000000000000                                                            ENTEROLYTE SUERO ORAL 75 MEQ X 400ML /R/FCO     1
RC0001048088257U202100000555060400000555060428/10/20210805     3300004239421964320000A07C0400000953120000000000000                                                            ENTEROLYTE SUERO ORAL 75 MEQ X 400ML /R/FCO     1
