CC0000008683889A202100000027639200000027639228/10/20211634    3190333624042196419000011082700001620070000000000000                                                               EQUIPO SET PRIMARIO C/CLAVE REF 14001BOL     1
CC0000008683889A202100000027639200000027639228/10/20211634    31903336240421964190000Q1AA3300001585140000000000000                                                                         APOSITO TEGADERM 10*12 1626SOB     1
CC0000008683889A202100000027639200000027639228/10/20211634    31903336240421964190000N02B1100001169680000000000000                              PARACETAMOL 1000MG/100ML(10MG/ML) SOL INY  VIAL X 100ML FRESENIUS KABIVAL     1
CC0000008683889A202100000027639200000027639228/10/20211634    31903336240421964190000M01A0400001341250000000000000                                                                              DYNASTAT AMP 40 MG /R/VAL     1
CC0000008683889A202100000027639200000027639228/10/20211634    3190333624042196419000029987800000325460000000000000                                                             TUBO ENDOTRAQ 8.0 C/B Y ESPIRAL INTERNASIN     1
CC0000008683889A202100000027639200000027639228/10/20211634    3190333624042196419000018350200000232870000000000000                                                                                  SEDA 3-0 S.A SA84TSIN     2
CC0000008683889A202100000027639200000027639228/10/20211634    3190333624042196419000015994600000632480000000000000                                                                          MONOCRYL 4-0 PS-2 45 Y496GSIN     1
CC0000008683889A202100000027639200000027639228/10/20211634    3190333624042196419000019488700000753270000000000000                                                                              VICRYL 3-0 SH1 VCP311HSOB     1
CC0000008683889A202100000027639200000027639228/10/20211634    3190333624042196419000043879100001138200000000000000                                                                  HOJA BISTURI # 15 CSSB 15 01002003SOB     1
CC0000008683889A202100000027639200000027639228/10/20211634    3190333624042196419000030825800000270990000000000000                                                                  ALGODON ESTERIL SOBRE X 3 TORUNDASPZA     4
CC0000008683889A202100000027639200000027639228/10/20211634    3190333624042196419000021052200000380370000000000000                                                                        RESERVORIO J-VAC 100 ml 2160PZA     1
CC0000008683889A202100000027639200000027639228/10/20211634    3190333624042196419000021052100000576790000000000000                                                                   DRENAJE BLAKE PLANO REF 2211  7MMSIN     1
CC0000008683889A202100000027639200000027639228/10/20211634    3190333624042196419000053074400000607910000000000000                                                               GASA ESTERIL 10*10 SOBRE X 3 UNIDADESSOB     3
CC0000008683889A202100000027639200000027639228/10/20211634    3190333624042196419000045138000001413890000000000000                                                                       LAPIZ ELECTROBISTURI  SOB X 1SOB     1
CC0000008683889A202100000027639200000027639228/10/20211634    31903336240421964190000J01DA300001239950000000000000                                                            CEFAZOLINA SODICA POLVO LIOF SLN INY 1 GVAL     2
CC0000008683889A202100000027639200000027639228/10/20211634    3190333624042196419000016830000000970620000000000000                                                             SIST FIJACION CAT PERIFERICO 6.5X7 1683SOB     1
CC0000008683889A202100000027639200000027639228/10/20211634    31903336240421964190000Q1AA7100000610620000000000000                                                            CATETER PERIFE INTROCAN # 18G 4251687-04SIN     1
CC0000008683889A202100000027639200000027639228/10/20211634    3190333624042196419000035356500003919000000000000000                                                                                        LLAVE 3 VIASSOB     1
CC0000008683889A202100000027639200000027639228/10/20211634    3190333624042196419000022425200000548240000000000000                       EXTENSION DE ANESTESIA REF 1139 SOB X 1 SHERLEG  ADULTO BN EXENTO-DC.417/2020SIN     1
CC0000008683889A202100000027639200000027639228/10/20211634    3190333624042196419000022426800001140510000000000000                                                                    EQUIPO MACROGOTEO BAXTER MRC0001SOB     1
CC0000008683889A202100000027639200000027639228/10/20211634    3190333624042196419000024674500000322810000000000000                                                                   JERINGA DESECHABLE 20 ml 21*1 1/2SIN     1
CC0000008683889A202100000027639200000027639228/10/20211634    3190333624042196419000024674000000220660000000000000                             JERINGA A 3 PARTES CON AGUJA  SOB X 1 RYMCO  10ML BN EXENTO-DC.417/2020SIN     3
CC0000008683889A202100000027639200000027639228/10/20211634    3190333624042196419000024673600000222980000000000000                                                                     JERINGA DESECHABLE 5 ml 27*11/2SIN     1
CC0000008683889A202100000027639200000027639228/10/20211634    3190333624042196419000011064500000256770000000000000                                                                              SONDA DE SUCCION 18 FRSIN     1
CC0000008683889A202100000027639200000027639228/10/20211634    3190333624042196419000030161400001459220000000000000                                                                       MANGUERA SUCCION 6 MM*3.1 MTSSOB     1
CC0000008683889A202100000027639200000027639228/10/20211634    3190333624042196419000011073300001096420000000000000                                                                BOLSA DE SUCCION DE FLUIDOS x 2500mLBOL     1
CC0000008683889A202100000027639200000027639228/10/20211634    3190333624042196419000011099300000777780000000000000                                                                     FILTRO BACTERIANO VIRICO ADULTOBOL     1
CC0000008683889A202100000027639200000027639228/10/20211634    3190333624042196419000031010900000762730000000000000                                                                          CANULA GUEDEL # 4 (100 MM)SOB     1
CC0000008683889A202100000027639200000027639228/10/20211634    3190333624042196419000020750600000296780000000000000                                                                PLACA ELECTRO RETORNO PACIENTE E7506SIN     1
CC0000008683889A202100000027639200000027639228/10/20211634    3190333624042196419000011085100001082120000000000000                                                                           GUANTE QUIRURGICO TALLA 7SOB     2
CC0000008683889A202100000027639200000027639228/10/20211634    3190333624042196419000043485100001618510000000000000                GUANTE QUIRURGICO DE LATEX REF 2D72N65X CAJ X 50 PROTEXIS  6.5 BN EXENTO-DC.417/2020SOB     4
CC0000008683889A202100000027639200000027639228/10/20211634    31903336240421964190000E1AB0300003888390000000000000                                                            SOLUCION SALINA 0.9% SLN INY BO X 500 MLBOL     3
CC0000008683889A202100000027639200000027639228/10/20211634    31903336240421964190000E1AB0200000199290000000000000                                                            SOLUCION SALINA 0.9% SLN INY BO X 100 MLBIN     1
CC0000008683889A202100000027639200000027639228/10/20211634    31903336240421964190000V3AB1900001177870000000000000                                                                      PROSTIGMINE Sln Iny 0.5 mg/ mlAMP     3
CC0000008683889A202100000027639200000027639228/10/20211634    31903336240421964190000H02AB500001664950000000000000                                                            DEXAMETASONA SLN INY 8 MG/2 ML AMP /CDS/AMP     1
CC0000008683889A202100000027639200000027639228/10/20211634    31903336240421964190000A3BA0100001109400000000000000                                                                          ATROPINA SLN INY 1 MG / MLAMP     1
CC0000008683889A202100000027639200000027639228/10/20211634    31903336240421964190000N01B0200003888110000000000000                                           ROXICAINA SE 100MG/10ML(1%) SOL INY CAJ X 24AMPACK X 10MLAPC     1
CC0000008683889A202100000027639200000027639228/10/20211634    31903336240421964190000N01A0400003939010000000000000                                               MAYOPROFOL 200MG/20ML(1%) EMUL INY CAJ X 1VIAL X 20MLVAL     1
CC0000008683889A202100000027639200000027639228/10/20211634    31903336240421964190000N1AH0200003906560000000000000                                                                     FENTANIL Iny 0.05 mg/ml x 10 mlAMP     1
