CC0000022438763U202100050131407500050131407528/10/20211304    3150015423942196432000038569400000256750000000000000                                                                        SONDA ASPIRACION CONTROL #14SIN     3
CC0000022438763U202100050131407500050131407528/10/20211304    31500154239421964320000B05C0200001339660000000000000                                                                        SOLUCION SALINA 0.9% X 10 MLJRP     3
CC0000022365363U202100050131407500050131407528/10/20211304    3150015423942196432000036441300000236540000000000000                                                                    JERINGA 1 ML GASES ARTERIAL 9023SIN     1
CC0000022365363U202100050131407500050131407528/10/20211304    31500154239421964320000Q0000100000473260000000000000                                                                                 INHALOCAMARA ADULTOCIN     1
CC0000022438763U202100050131407500050131407528/10/20211304    3150015423942196432000011089200001083340000000000000                                                              GUANTE ESTERIL LATEX S/POLVO TALLA 7.0SOB     3
