CC0000009084021H202100000555067500000555067528/10/20210936    31903291237421964250000A02B0500001335110000000000000                                                                                LOSEC MUPS Tab 20 mgTAB     1
CC0000009084021H202100000555067500000555067528/10/20210936    31903291237421964250000B1AB0200003939510000000000000                 ENOXAPARINA SODICA 40MG/0.4ML(100MG/ML) SOL INY INST CAJ X 2JERPREL X 0.4ML TECHDOWJRP     1
CC0000009084021H202100000555067500000555067528/10/20210936    31903291237421964250000B4AD0500001335010000000000000                                                                                   LIPITOR TAB 10 MGTAB     1
CC0000009084021H202100000555067500000555067528/10/20210936    31903291237421964250000H03A0400001278890000000000000                                                                                  EUTIROX TAB 50 MCGTAB     1
