PA0000NY2093186H202100015032579800015032579828/10/20211433    3150020623742196425000022426800001140510000000000000                                                                    EQUIPO MACROGOTEO BAXTER MRC0001SOB     1
CC0000073070310H202100015032579800015032579828/10/20211433    3150020623742196425000022426800001140510000000000000                                                                    EQUIPO MACROGOTEO BAXTER MRC0001SOB     1
PA0000NY2093186H202100015032579800015032579828/10/20211433    3150020623742196425000030936900001431840000000000000                                                                                              BURETABOL     1
