CC0000055163818A202100000027635100000027635128/10/20210830    31903336240421964190000N2BB1100000217160000000000000                                                                      NOVALGINA Sln Iny 2.5 g x 5 mlAMP     1
CC0000055163818A202100000027635100000027635128/10/20210830    31903336240421964190000N2AX0500001204110000000000000                                                                          TRAMAL SLN INY 100 MG / MLAMP     1
CC0000055163818A202100000027635100000027635128/10/20210830    31903336240421964190000Q1AA7300000610640000000000000                                                            CATETER PERIFE INTROCAN # 22G 4251628-04SIN     2
CC0000055163818A202100000027635100000027635128/10/20210830    3190333624042196419000035639600001014740000000000000                                                                              MASCARA VENTURY ADULTOBOL     1
CC0000055163818A202100000027635100000027635128/10/20210830    31903336240421964190000Q1AA7200000610630000000000000                                                            CATETER PERIFE INTROCAN # 20G 4251644-04SIN     1
CC0000055163818A202100000027635100000027635128/10/20210830    31903336240421964190000Q1AA7100000610620000000000000                                                            CATETER PERIFE INTROCAN # 18G 4251687-04SIN     1
CC0000055163818A202100000027635100000027635128/10/20210830    3190333624042196419000000901900000229390000000000000                                                                  MASCARA PARA OXIGENO ADULTO (1041)BIN     1
CC0000055163818A202100000027635100000027635128/10/20210830    31903336240421964190000V3AB2200000614150000000000000                                                            GLUCONATO CALCIO SLN INY 10% AMP X 10 MLAPC     1
CC0000055163818A202100000027635100000027635128/10/20210830    31903336240421964190000E1AB0200000199290000000000000                                                            SOLUCION SALINA 0.9% SLN INY BO X 100 MLBIN     1
CC0000055163818A202100000027635100000027635128/10/20210830    31903336240421964190000E1AB0700003888350000000000000                                                            SOLUCION SALINA 0.9% SLN INY BO X 250 MLBOL     1
CC0000055163818A202100000027635100000027635128/10/20210830    3190333624042196419000011082700001620070000000000000                                                               EQUIPO SET PRIMARIO C/CLAVE REF 14001BOL     1
CC0000055163818A202100000027635100000027635128/10/20210830    31903336240421964190000A12BA100000552980000000000000                                                            CLORURO POTASIO Sln Iny AMP 20 MEQ/10 MLAMP     2
CC0000055163818A202100000027635100000027635128/10/20210830    31903336240421964190000N1AX0100003889000000000000000                                                                       KETAMINA Iny 50 mg/ml x 10 mlVAL     1
CC0000055163818A202100000027635100000027635128/10/20210830    31903336240421964190000V03A2300000865410000000000000                                                                         BRIDION Sln Iny 200 mg/2 mlVAL     1
CC0000055163818A202100000027635100000027635128/10/20210830    3190333624042196419000082750200001405900000000000000                                                               ABTHERA SENSATRAC SIST VAC M8275026/5SOB     1
CC0000055163818A202100000027635100000027635128/10/20210830    31903336240421964190000N02A3100001227160000000000000                                                                    OXYRAPID SLN INY 10 MG/ML X 1 MLAMP     1
CC0000055163818A202100000027635100000027635128/10/20210830    31903336240421964190000B02AA100001407470000000000000                                                                    CLINTRANEX SLN INY 500 MG / 5 MLAMP     1
CC0000055163818A202100000027635100000027635128/10/20210830    31903336240421964190000N01B0200003888110000000000000                                           ROXICAINA SE 100MG/10ML(1%) SOL INY CAJ X 24AMPACK X 10MLAPC     1
CC0000055163818A202100000027635100000027635128/10/20210830    3190333624042196419000062750100001405910000000000000                                                                 INFOVAC CANISTER 1000 ML M8275093/5SOB     1
CC0000055163818A202100000027635100000027635128/10/20210830    3190333624042196419000030161400001459220000000000000                                                                       MANGUERA SUCCION 6 MM*3.1 MTSSOB     1
CC0000055163818A202100000027635100000027635128/10/20210830    3190333624042196419000045138000001413890000000000000                                                                       LAPIZ ELECTROBISTURI  SOB X 1SOB     1
CC0000055163818A202100000027635100000027635128/10/20210830    3190333624042196419000022425200000548240000000000000                       EXTENSION DE ANESTESIA REF 1139 SOB X 1 SHERLEG  ADULTO BN EXENTO-DC.417/2020SIN     1
CC0000055163818A202100000027635100000027635128/10/20210830    3190333624042196419000035356500003919000000000000000                                                                                        LLAVE 3 VIASSOB     2
CC0000055163818A202100000027635100000027635128/10/20210830    3190333624042196419000022426800001140510000000000000                                                                    EQUIPO MACROGOTEO BAXTER MRC0001SOB     1
CC0000055163818A202100000027635100000027635128/10/20210830    3190333624042196419000016830000000970620000000000000                                                             SIST FIJACION CAT PERIFERICO 6.5X7 1683SOB     1
CC0000055163818A202100000027635100000027635128/10/20210830    3190333624042196419000011073300001096420000000000000                                                                BOLSA DE SUCCION DE FLUIDOS x 2500mLBOL     1
CC0000055163818A202100000027635100000027635128/10/20210830    3190333624042196419000020750600000296780000000000000                                                                PLACA ELECTRO RETORNO PACIENTE E7506SIN     1
CC0000055163818A202100000027635100000027635128/10/20210830    3190333624042196419000053074400000607910000000000000                                                               GASA ESTERIL 10*10 SOBRE X 3 UNIDADESSOB     2
CC0000055163818A202100000027635100000027635128/10/20210830    3190333624042196419000011085200001585390000000000000                                                                       GUANTE QUIRURGICO TALLA 7 1/2SOB     1
CC0000055163818A202100000027635100000027635128/10/20210830    3190333624042196419000011085100001082120000000000000                                                                           GUANTE QUIRURGICO TALLA 7SOB     2
CC0000055163818A202100000027635100000027635128/10/20210830    3190333624042196419000043485100001618510000000000000                GUANTE QUIRURGICO DE LATEX REF 2D72N65X CAJ X 50 PROTEXIS  6.5 BN EXENTO-DC.417/2020SOB     3
CC0000055163818A202100000027635100000027635128/10/20210830    3190333624042196419000051515500000598160000000000000                                                                            MASCARILLA ANESTESIA # 5SIN     1
CC0000055163818A202100000027635100000027635128/10/20210830    3190333624042196419000011099300000777780000000000000                                                                     FILTRO BACTERIANO VIRICO ADULTOBOL     1
CC0000055163818A202100000027635100000027635128/10/20210830    3190333624042196419000031010900000762730000000000000                                                                          CANULA GUEDEL # 4 (100 MM)SOB     1
CC0000055163818A202100000027635100000027635128/10/20210830    3190333624042196419000020056600001101530000000000000                                                                AGUJA HIPODERMICA DESECH 18G X 1 1/2SOB     1
CC0000055163818A202100000027635100000027635128/10/20210830    3190333624042196419000039175000001072050000000000000                                                                           TUBO ENDOTRAQUEAL C/B 7.0SOB     1
CC0000055163818A202100000027635100000027635128/10/20210830    3190333624042196419000024673000001411210000000000000                                                                  JERINGA DESECHABLE 3 ML 21 X 1 1/2SOB     2
CC0000055163818A202100000027635100000027635128/10/20210830    3190333624042196419000024674000000220660000000000000                             JERINGA A 3 PARTES CON AGUJA  SOB X 1 RYMCO  10ML BN EXENTO-DC.417/2020SIN     5
CC0000055163818A202100000027635100000027635128/10/20210830    3190333624042196419000024674500000322810000000000000                                                                   JERINGA DESECHABLE 20 ml 21*1 1/2SIN     2
CC0000055163818A202100000027635100000027635128/10/20210830    31903336240421964190000E1AD0200003888320000000000000                                                                              HARTMAN SLN INY 500 MLBOL     1
CC0000055163818A202100000027635100000027635128/10/20210830    31903336240421964190000E1AB0500003888400000000000000                                                              SOLUCION SALINA 0.9% SLN INY X 1000 MLBOL     4
CC0000055163818A202100000027635100000027635128/10/20210830    31903336240421964190000E1AB0300003888390000000000000                                                            SOLUCION SALINA 0.9% SLN INY BO X 500 MLBOL     5
CC0000055163818A202100000027635100000027635128/10/20210830    31903336240421964190000N02B1100001169680000000000000                              PARACETAMOL 1000MG/100ML(10MG/ML) SOL INY  VIAL X 100ML FRESENIUS KABIVAL     1
CC0000055163818A202100000027635100000027635128/10/20210830    31903336240421964190000N01A0400003939010000000000000                                               MAYOPROFOL 200MG/20ML(1%) EMUL INY CAJ X 1VIAL X 20MLVAL     1
CC0000055163818A202100000027635100000027635128/10/20210830    31903336240421964190000M01A0400001341250000000000000                                                                              DYNASTAT AMP 40 MG /R/VAL     1
CC0000055163818A202100000027635100000027635128/10/20210830    31903336240421964190000A4AD0200000202990000000000000                                                                     PLITICAN HCL Sln Iny 50 mg/2 mlAMP     1
CC0000055163818A202100000027635100000027635128/10/20210830    31903336240421964190000H02AB500001664950000000000000                                                            DEXAMETASONA SLN INY 8 MG/2 ML AMP /CDS/AMP     1
CC0000055163818A202100000027635100000027635128/10/20210830    31903336240421964190000M3AC0600000720540000000000000                                                                         ESMERON SLN INY 50 MG /5 MLVAL     1
