CC0001143151880H202100015112650000015112650028/10/20210619    3150050123742196425000011082700001620070000000000000                                                               EQUIPO SET PRIMARIO C/CLAVE REF 14001BOL     1
CC0000032842949H202100015112650000015112650028/10/20210619    3150050123742196425000011082700001620070000000000000                                                               EQUIPO SET PRIMARIO C/CLAVE REF 14001BOL     1
CC0001143151880H202100015112650000015112650028/10/20210619    3150050123742196425000001956000001620610000000000000                                                                      CONECTOR MICRO CLAVE LAT-MC100SOB     1
CC0001143151880H202100015112650000015112650028/10/20210619    31500501237421964250000Q1AA7200000610630000000000000                                                            CATETER PERIFE INTROCAN # 20G 4251644-04SIN     1
CC0001143151880H202100015112650000015112650028/10/20210619    3150050123742196425000016830000000970620000000000000                                                             SIST FIJACION CAT PERIFERICO 6.5X7 1683SOB     1
