CC0000057440089H202100000555066600000555066628/10/20210920    31900630237421964250000A04A1400001467560000000000000                                                                      ONDANSETRON SLN INY 8 MG/ 4 MLVAL     2
CC0000057440089H202100000555066600000555066628/10/20210920    31900630237421964250000J01FF200003888100000000000000                                                                             EUROCLIN SLN INY 600 MGAMP     2
CC0000057440089H202100000555066600000555066628/10/20210920    31900630237421964250000M01A0400001341250000000000000                                                                              DYNASTAT AMP 40 MG /R/VAL     1
CC0000057440089H202100000555066600000555066628/10/20210920    31900630237421964250000N02B1100001169680000000000000                              PARACETAMOL 1000MG/100ML(10MG/ML) SOL INY  VIAL X 100ML FRESENIUS KABIVAL     1
CC0000057440089H202100000555066600000555066628/10/20211208    31900630237421964250000N5BB0800001334610000000000000                                                                                 HIDERAX S TAB 50 MGTAB     1
