CC0000005029363H202100000555069000000555069028/10/20211800     3300010237421964250000A2BC0900000200150000000000000                                                                               ORAZOLE Sln Iny 40 mgCIN     1
CC0000005029363H202100000555069000000555069028/10/20211800     3300010237421964250000A03F0300001626860000000000000                                                                   METOCLOPRAMIDA SLN INY 10 MG/2 MLAMP     3
CC0000005029363H202100000555069000000555069028/10/20211759     3300010237421964250000A03F0300001626860000000000000                                                                   METOCLOPRAMIDA SLN INY 10 MG/2 MLAMP     1
CC0000005029363H202100000555069000000555069028/10/20211759     3300010237421964250000V3AB2200000614150000000000000                                                            GLUCONATO CALCIO SLN INY 10% AMP X 10 MLAPC     2
CC0000005029363H202100000555069000000555069028/10/20211759     3300010237421964250000J1CB0600000468340000000000000                                                           UNASYN IM-IV (1+0.5)GR POLV INY INST VIALVAL     5
CC0000005029363H202100000555069000000555069028/10/20211759     3300010237421964250000N2BB1100000217160000000000000                                                                      NOVALGINA Sln Iny 2.5 g x 5 mlAMP     3
CC0000005029363H202100000555069000000555069028/10/20211759     3300010237421964250000N02B1100001169680000000000000                              PARACETAMOL 1000MG/100ML(10MG/ML) SOL INY  VIAL X 100ML FRESENIUS KABIVAL     3
CC0000005029363H202100000555069000000555069028/10/20211759     3300010237421964250000A12CC100001690470000000000000                                                                  MAGNESIO SULFATO 20% SLN INY 10 MLAMP     1
CC0000005029363H202100000555069000000555069028/10/20211021    31903291237421964250000V07A1300000502600000000000000                                                                                AGUA ESTERIL x 10 mlAMP     5
