TI0001046701779H202100015052701200015052701228/10/20211139    3150033123742196425000001956000001620610000000000000                                                                      CONECTOR MICRO CLAVE LAT-MC100SOB     1
TI0001046701779H202100015052701200015052701228/10/20211139    31500331237421964250000Q1AA7300000610640000000000000                                                            CATETER PERIFE INTROCAN # 22G 4251628-04SIN     1
CC0001143120182H202100015052701200015052701228/10/20211139    31500331237421964250000Q1AA7300000610640000000000000                                                            CATETER PERIFE INTROCAN # 22G 4251628-04SIN     3
TI0001046701779H202100015052701200015052701228/10/20211139    3150033123742196425000016830000000970620000000000000                                                             SIST FIJACION CAT PERIFERICO 6.5X7 1683SOB     1
CC0001143120182H202100015052701200015052701228/10/20211139    3150033123742196425000016830000000970620000000000000                                                             SIST FIJACION CAT PERIFERICO 6.5X7 1683SOB     1
TI0001046701779H202100015052701200015052701228/10/20211139    31500331237421964250000E1AD0300000199490000000000000                                         LACTATO RINGER USP (HARTMANN)  SOL INY  BOL X 1000ML BAXTERBIN     2
