TI0001042265795H202100902508102800902508102828/10/20212326    3190302823742196425000024674000000220660000000000000                             JERINGA A 3 PARTES CON AGUJA  SOB X 1 RYMCO  10ML BN EXENTO-DC.417/2020SIN     5
TI0001042265795H202100902508102800902508102828/10/20212326    31903028237421964250000V07A1300000502600000000000000                                                                                AGUA ESTERIL x 10 mlAMP     5
TI0001042265795H202100902508102800902508102828/10/20212326    31903028237421964250000E1AA0800000322190000000000000                                                                          DEXTROSA 5% Sln Iny 250 mlBIN     1
