CC0000012596135H202100000555047700000555047728/10/20210813     3300009237421964250000A02BC100001677520000000000000                                                                ESOMEPRAZOL POLVO LIOF INY 40 MG /R/VAL     1
CC0000012596135H202100000555047700000555047728/10/20210005    31500383237421964250000E1AB0300003888390000000000000                                                            SOLUCION SALINA 0.9% SLN INY BO X 500 MLBOL     1
CC0000012596135H202100000555047700000555047728/10/20211640     3300010237421964250000J01DB300000553200000000000000                                                                         CEFALOTINA SLN INY 1 G VIALVAL     1
CC0000012596135H202100000555047700000555047728/10/20210813     3300009237421964250000J01DB300000553200000000000000                                                                         CEFALOTINA SLN INY 1 G VIALVAL     2
CC0000012596135H202100000555047700000555047728/10/20211640     3300010237421964250000A03BB100003889180000000000000                                      HIOSCINA BUTIL BROMURO 20MG/ML SOL INY CAJ X 100AMP X 1ML RYANAMP     1
CC0000012596135H202100000555047700000555047728/10/20210813     3300009237421964250000A03BB100003889180000000000000                                      HIOSCINA BUTIL BROMURO 20MG/ML SOL INY CAJ X 100AMP X 1ML RYANAMP     2
CC0000012596135H202100000555047700000555047728/10/20211641     3300010237421964250000N2BB0100000787510000000000000                                                                    DIPIRONA SODICA Sln Iny 1 g/2 mlAMP     1
CC0000012596135H202100000555047700000555047728/10/20210813     3300009237421964250000N2BB0100000787510000000000000                                                                    DIPIRONA SODICA Sln Iny 1 g/2 mlAMP     2
CC0000012596135H202100000555047700000555047728/10/20211751    31903254237421964250000V07A1300000502600000000000000                                                                                AGUA ESTERIL x 10 mlAMP     4
