TI0001073826213H202100015122509600015122509628/10/20210916    31500453237421964250000V07A1300000502600000000000000                                                                                AGUA ESTERIL x 10 mlAMP     5
TI0001146537318H202100015122509600015122509628/10/20210916    31500453237421964250000V07A1300000502600000000000000                                                                                AGUA ESTERIL x 10 mlAMP     5
RC0001187466818H202100015122509600015122509628/10/20210916    31500453237421964250000V07A1300000502600000000000000                                                                                AGUA ESTERIL x 10 mlAMP     5
RC0001048091446H202100015122509600015122509628/10/20210916    31500453237421964250000V07A1300000502600000000000000                                                                                AGUA ESTERIL x 10 mlAMP     5
TI0001044615199H202100015122509600015122509628/10/20210916    31500453237421964250000V07A1300000502600000000000000                                                                                AGUA ESTERIL x 10 mlAMP     5
TI0001130268767H202100015122509600015122509628/10/20210916    31500453237421964250000V07A1300000502600000000000000                                                                                AGUA ESTERIL x 10 mlAMP     5
RC0001043714288H202100015122509600015122509628/10/20210916    31500453237421964250000V07A1300000502600000000000000                                                                                AGUA ESTERIL x 10 mlAMP     5
TI0001047044339H202100015122509600015122509628/10/20210916    31500453237421964250000V07A1300000502600000000000000                                                                                AGUA ESTERIL x 10 mlAMP     5
TI0001073826213H202100015122509600015122509628/10/20210916    3150045323742196425000024674000000220660000000000000                             JERINGA A 3 PARTES CON AGUJA  SOB X 1 RYMCO  10ML BN EXENTO-DC.417/2020SIN    15
TI0001146537318H202100015122509600015122509628/10/20210916    3150045323742196425000024674000000220660000000000000                             JERINGA A 3 PARTES CON AGUJA  SOB X 1 RYMCO  10ML BN EXENTO-DC.417/2020SIN    10
RC0001187466818H202100015122509600015122509628/10/20210916    3150045323742196425000024674000000220660000000000000                             JERINGA A 3 PARTES CON AGUJA  SOB X 1 RYMCO  10ML BN EXENTO-DC.417/2020SIN    15
RC0001048091446H202100015122509600015122509628/10/20210916    3150045323742196425000024674000000220660000000000000                             JERINGA A 3 PARTES CON AGUJA  SOB X 1 RYMCO  10ML BN EXENTO-DC.417/2020SIN    10
TI0001044615199H202100015122509600015122509628/10/20210916    3150045323742196425000024674000000220660000000000000                             JERINGA A 3 PARTES CON AGUJA  SOB X 1 RYMCO  10ML BN EXENTO-DC.417/2020SIN    15
TI0001130268767H202100015122509600015122509628/10/20210916    3150045323742196425000024674000000220660000000000000                             JERINGA A 3 PARTES CON AGUJA  SOB X 1 RYMCO  10ML BN EXENTO-DC.417/2020SIN    10
RC0001043714288H202100015122509600015122509628/10/20210916    3150045323742196425000024674000000220660000000000000                             JERINGA A 3 PARTES CON AGUJA  SOB X 1 RYMCO  10ML BN EXENTO-DC.417/2020SIN    15
TI0001047044339H202100015122509600015122509628/10/20210916    3150045323742196425000024674000000220660000000000000                             JERINGA A 3 PARTES CON AGUJA  SOB X 1 RYMCO  10ML BN EXENTO-DC.417/2020SIN    10
TI0001073826213H202100015122509600015122509628/10/20210916    3150045323742196425000042743200003929860000000000000                   GASA ADHESIVA STRETCH REF 02038-00 ROL X 10MT FIXOMULL 15CM BN EXENTO-DC.417/2020CMT    80
RC0001187466818H202100015122509600015122509628/10/20210916    3150045323742196425000042743200003929860000000000000                   GASA ADHESIVA STRETCH REF 02038-00 ROL X 10MT FIXOMULL 15CM BN EXENTO-DC.417/2020CMT    80
RC0001043714288H202100015122509600015122509628/10/20210916    3150045323742196425000042743200003929860000000000000                   GASA ADHESIVA STRETCH REF 02038-00 ROL X 10MT FIXOMULL 15CM BN EXENTO-DC.417/2020CMT    80
RC0001187466818H202100015122509600015122509628/10/20210916    3150045323742196425000022426800001140510000000000000                                                                    EQUIPO MACROGOTEO BAXTER MRC0001SOB     4
TI0001073826213H202100015122509600015122509628/10/20210916    3150045323742196425000011082700001620070000000000000                                                               EQUIPO SET PRIMARIO C/CLAVE REF 14001BOL     2
RC0001187466818H202100015122509600015122509628/10/20210916    3150045323742196425000011082700001620070000000000000                                                               EQUIPO SET PRIMARIO C/CLAVE REF 14001BOL     1
TI0001044615199H202100015122509600015122509628/10/20210916    3150045323742196425000011082700001620070000000000000                                                               EQUIPO SET PRIMARIO C/CLAVE REF 14001BOL     1
RC0001043714288H202100015122509600015122509628/10/20210916    3150045323742196425000011082700001620070000000000000                                                               EQUIPO SET PRIMARIO C/CLAVE REF 14001BOL     1
TI0001073826213H202100015122509600015122509628/10/20210916    3150045323742196425000030936900001431840000000000000                                                                                              BURETABOL     1
TI0001044615199H202100015122509600015122509628/10/20210916    3150045323742196425000030936900001431840000000000000                                                                                              BURETABOL     1
RC0001043714288H202100015122509600015122509628/10/20210916    3150045323742196425000030936900001431840000000000000                                                                                              BURETABOL     1
TI0001073826213H202100015122509600015122509628/10/20210916    3150045323742196425000000602600001259280000000000000                                                             APOSITO TEGADERM IV PD 1610 5CM X 5.7CMSOB     1
TI0001146537318H202100015122509600015122509628/10/20210916    3150045323742196425000000602600001259280000000000000                                                             APOSITO TEGADERM IV PD 1610 5CM X 5.7CMSOB     1
RC0001187466818H202100015122509600015122509628/10/20210916    3150045323742196425000000602600001259280000000000000                                                             APOSITO TEGADERM IV PD 1610 5CM X 5.7CMSOB     1
RC0001048091446H202100015122509600015122509628/10/20210916    3150045323742196425000000602600001259280000000000000                                                             APOSITO TEGADERM IV PD 1610 5CM X 5.7CMSOB     1
TI0001044615199H202100015122509600015122509628/10/20210916    3150045323742196425000000602600001259280000000000000                                                             APOSITO TEGADERM IV PD 1610 5CM X 5.7CMSOB     1
TI0001130268767H202100015122509600015122509628/10/20210916    3150045323742196425000000602600001259280000000000000                                                             APOSITO TEGADERM IV PD 1610 5CM X 5.7CMSOB     1
RC0001043714288H202100015122509600015122509628/10/20210916    3150045323742196425000000602600001259280000000000000                                                             APOSITO TEGADERM IV PD 1610 5CM X 5.7CMSOB     1
TI0001047044339H202100015122509600015122509628/10/20210916    3150045323742196425000000602600001259280000000000000                                                             APOSITO TEGADERM IV PD 1610 5CM X 5.7CMSOB     1
RC0001187466818H202100015122509600015122509628/10/20210916    31500453237421964250000E1BA0100000198890000000000000                                                                   AGUA ESTERIL USP SLN INY X 500 MLBIN     1
TI0001073826213H202100015122509600015122509628/10/20210916    31500453237421964250000E1AD0300000199490000000000000                                         LACTATO RINGER USP (HARTMANN)  SOL INY  BOL X 1000ML BAXTERBIN     1
TI0001073826213H202100015122509600015122509628/10/20210916    31500453237421964250000E1AB0300003888390000000000000                                                            SOLUCION SALINA 0.9% SLN INY BO X 500 MLBOL     1
RC0001187466818H202100015122509600015122509628/10/20210916    31500453237421964250000E1AB0300003888390000000000000                                                            SOLUCION SALINA 0.9% SLN INY BO X 500 MLBOL     1
TI0001073826213H202100015122509600015122509628/10/20210916    31500453237421964250000E1AB0700003888350000000000000                                                            SOLUCION SALINA 0.9% SLN INY BO X 250 MLBOL     1
RC0001187466818H202100015122509600015122509628/10/20210916    31500453237421964250000E1AA0800000322190000000000000                                                                          DEXTROSA 5% Sln Iny 250 mlBIN     1
RC0001048091446H202100015122509600015122509628/10/20210916    31500453237421964250000E1AC0100000199400000000000000                                                                          SUERO MIXTO Sln Iny 500 mlBIN     1
RC0001043714288H202100015122509600015122509628/10/20210916    31500453237421964250000E1AC0100000199400000000000000                                                                          SUERO MIXTO Sln Iny 500 mlBIN     1
