CC0000079849924U202100000555075700000555075728/10/20211351    31902712239421964320000E1AD0300000199490000000000000                                         LACTATO RINGER USP (HARTMANN)  SOL INY  BOL X 1000ML BAXTERBIN     2
CC0000079849924U202100000555075700000555075728/10/20211305     3300004239421964320000N2AX1200001071490000000000000                                                                             TRAMADOL SLN INY 100 MGAMP     1
CC0000079849924U202100000555075700000555075728/10/20212214     3300004239421964320000N2AA0200000301600000000000000                                                                        HIDROMORFONA Sln Iny 2 mg/mlAMP     1
CC0000079849924U202100000555075700000555075728/10/20211305     3300004239421964320000N2BE2200001252930000000000000                                                                             ACETAMINOFEN Tab 500 MGTAB     2
