TI0001043153192U202100050131411700050131411728/10/20211828    3150025823942196432000045136100001419300000000000000                                                                            LANCETA DEXTROMETER X UNPZA     2
TI0001043153192U202100050131411700050131411728/10/20211828    3150025823942196432000024672100001609890000000000000                                                            JERINGA INSULINA 1ML TAPA NARANJA JEI013SOB     2
TI0001043153192U202100050131411700050131411728/10/20211828    3150025823942196432000011137100001419310000000000000                                                               TIRA GLUCOMETRIA FREESTYLE H OPTIUM .PZA     2
