CC0000008716890H202100015012569200015012569228/10/20212235    3150007523742196425000001956000001620610000000000000                                                                      CONECTOR MICRO CLAVE LAT-MC100SOB     1
CC0000008716890H202100015012569200015012569228/10/20212235    31500075237421964250000Q1AA7300000610640000000000000                                                            CATETER PERIFE INTROCAN # 22G 4251628-04SIN     2
CC0000008716890H202100015012569200015012569228/10/20212235    3150007523742196425000016830000000970620000000000000                                                             SIST FIJACION CAT PERIFERICO 6.5X7 1683SOB     1
CE0000000358913H202100015012569200015012569228/10/20212235    31500075237421964250000E1AB0500003888400000000000000                                                              SOLUCION SALINA 0.9% SLN INY X 1000 MLBOL     2
