CC0000072137869U202100000555085200000555085228/10/20211829     3300004239421964320000A2BX0100001277280000000000000                                                                                ALSUCRAL TAB 1 G /R/TAB     1
CC0000072137869U202100000555085200000555085228/10/20211829     3300004239421964320000A02BC100001677520000000000000                                                                ESOMEPRAZOL POLVO LIOF INY 40 MG /R/VAL     1
CC0000072137869U202100000555085200000555085228/10/20211923    31900925239421964320000E1AB0300003888390000000000000                                                            SOLUCION SALINA 0.9% SLN INY BO X 500 MLBOL     1
CC0000072137869U202100000555085200000555085228/10/20212106     3300004239421964320000M1AE2500000191550000000000000                                                            PROFENID POLVO LIOF SLN INY 100MG/2ML/R/AMP     1
CC0000072137869U202100000555085200000555085228/10/20211829     3300004239421964320000A3BB0300000512950000000000000                                                             BUSCAPINA COMP Sln Iny 20 mg+2.5 g/5 mlAMP     1
