CC0000022438820A202100000027637700000027637728/10/20211718    3190333624042196419000011082600000265810000000000000                                                              EQUIPO IRRIGACION URINARIA REF MRC4002SOB     1
CC0000022438820A202100000027637700000027637728/10/20211718    3190333624042196419000038571500001056470000000000000                                                                              SONDA FOLEY #20 3 VIASSOB     1
CC0000022438820A202100000027637700000027637728/10/20211718    3190333624042196419000000901800000598580000000000000                                                                     MASCARA LARINGEA REUSABLE No. 4SIN     1
CC0000022438820A202100000027637700000027637728/10/20211718    3190333624042196419000031188000000236790000000000000                                                                                     CISTOFLO ADULTOSIN     1
CC0000022438820A202100000027637700000027637728/10/20211718    31903336240421964190000N1BA1900000554750000000000000                                                                     ROXICAINA JALEA 2% TUBO X 30 MLTUB     1
CC0000022438820A202100000027637700000027637728/10/20211718    31903336240421964190000E1BA0700000198910000000000000                                                                   UROMATIC Sln IRRIGACION X 3000 MLBIN     1
CC0000022438820A202100000027637700000027637728/10/20211718    3190333624042196419000049059900000267420000000000000                                                                 MEDIA ANTIEMBOLICA TAL M 3416LF PARBOL     1
CC0000022438820A202100000027637700000027637728/10/20211718    3190333624042196419000022425200000548240000000000000                       EXTENSION DE ANESTESIA REF 1139 SOB X 1 SHERLEG  ADULTO BN EXENTO-DC.417/2020SIN     1
CC0000022438820A202100000027637700000027637728/10/20211718    3190333624042196419000024674000000220660000000000000                             JERINGA A 3 PARTES CON AGUJA  SOB X 1 RYMCO  10ML BN EXENTO-DC.417/2020SIN     1
CC0000022438820A202100000027637700000027637728/10/20211718    3190333624042196419000016830000000970620000000000000                                                             SIST FIJACION CAT PERIFERICO 6.5X7 1683SOB     1
CC0000022438820A202100000027637700000027637728/10/20211718    3190333624042196419000035356500003919000000000000000                                                                                        LLAVE 3 VIASSOB     2
CC0000022438820A202100000027637700000027637728/10/20211718    3190333624042196419000022426800001140510000000000000                                                                    EQUIPO MACROGOTEO BAXTER MRC0001SOB     1
CC0000022438820A202100000027637700000027637728/10/20211718    31903336240421964190000Q1AA7100000610620000000000000                                                            CATETER PERIFE INTROCAN # 18G 4251687-04SIN     1
CC0000022438820A202100000027637700000027637728/10/20211718    31903336240421964190000J01DA300001239950000000000000                                                            CEFAZOLINA SODICA POLVO LIOF SLN INY 1 GVAL     2
CC0000022438820A202100000027637700000027637728/10/20211718    3190333624042196419000020060000000225230000000000000                                                               AGUJA SPINOCAN 27G X 3 1/2 PU 4503902SIN     1
CC0000022438820A202100000027637700000027637728/10/20211718    3190333624042196419000024674500000322810000000000000                                                                   JERINGA DESECHABLE 20 ml 21*1 1/2SIN     2
CC0000022438820A202100000027637700000027637728/10/20211718    3190333624042196419000024673600000222980000000000000                                                                     JERINGA DESECHABLE 5 ml 27*11/2SIN     1
CC0000022438820A202100000027637700000027637728/10/20211718    3190333624042196419000024673000001411210000000000000                                                                  JERINGA DESECHABLE 3 ML 21 X 1 1/2SOB     2
CC0000022438820A202100000027637700000027637728/10/20211718    3190333624042196419000053074400000607910000000000000                                                               GASA ESTERIL 10*10 SOBRE X 3 UNIDADESSOB     3
CC0000022438820A202100000027637700000027637728/10/20211718    3190333624042196419000011085200001585390000000000000                                                                       GUANTE QUIRURGICO TALLA 7 1/2SOB     3
CC0000022438820A202100000027637700000027637728/10/20211718    3190333624042196419000011085100001082120000000000000                                                                           GUANTE QUIRURGICO TALLA 7SOB     2
CC0000022438820A202100000027637700000027637728/10/20211718    31903336240421964190000E1AD0200003888320000000000000                                                                              HARTMAN SLN INY 500 MLBOL     2
CC0000022438820A202100000027637700000027637728/10/20211718    31903336240421964190000N1BA0500000647360000000000000                                                                  BUPIROP 0.5% PESADO SLN INY X 4 MLAPC     1
CC0000022438820A202100000027637700000027637728/10/20211718    31903336240421964190000N1AH0200003906560000000000000                                                                     FENTANIL Iny 0.05 mg/ml x 10 mlAMP     1
