CC0001129523937H202100000555054500000555054528/10/20211541     3300010237421964250000A2BC0900000200150000000000000                                                                               ORAZOLE Sln Iny 40 mgCIN     1
CC0001129523937H202100000555054500000555054528/10/20211419     3300010237421964250000A04A1400001467560000000000000                                                                      ONDANSETRON SLN INY 8 MG/ 4 MLVAL     2
CC0001129523937H202100000555054500000555054528/10/20212349     3300010237421964250000B01A0300000467730000000000000                                                                FRAGMIN SLN INY 5.000 UI /0.2 ML /R/SIN     1
CC0001129523937H202100000555054500000555054528/10/20211434    31500213237421964250000E1AB0200000199290000000000000                                                            SOLUCION SALINA 0.9% SLN INY BO X 100 MLBIN     3
CC0001129523937H202100000555054500000555054528/10/20211434    31500213237421964250000E1AB0700003888350000000000000                                                            SOLUCION SALINA 0.9% SLN INY BO X 250 MLBOL     3
CC0001129523937H202100000555054500000555054528/10/20211729    31500213237421964250000E1AB0300003888390000000000000                                                            SOLUCION SALINA 0.9% SLN INY BO X 500 MLBOL     2
CC0001129523937H202100000555054500000555054528/10/20211204    31500183237421964250000E1AB0300003888390000000000000                                                            SOLUCION SALINA 0.9% SLN INY BO X 500 MLBOL     2
CC0001129523937H202100000555054500000555054528/10/20211434    31500213237421964250000E1AB0500003888400000000000000                                                              SOLUCION SALINA 0.9% SLN INY X 1000 MLBOL     1
CC0001129523937H202100000555054500000555054528/10/20210256    31500082237421964250000E1AB0500003888400000000000000                                                              SOLUCION SALINA 0.9% SLN INY X 1000 MLBOL     2
CC0001129523937H202100000555054500000555054528/10/20211559    31500213237421964250000B5BC0200003889280000000000000                                                                 OSMORIN MANITOL 20 % Bolsa X 500 mlBOL     1
CC0001129523937H202100000555054500000555054528/10/20211419     3300010237421964250000H02AB500001664950000000000000                                                            DEXAMETASONA SLN INY 8 MG/2 ML AMP /CDS/AMP     2
CC0001129523937H202100000555054500000555054528/10/20210808     3300010237421964250000H02AB500001664950000000000000                                                            DEXAMETASONA SLN INY 8 MG/2 ML AMP /CDS/AMP     1
CC0001129523937H202100000555054500000555054528/10/20210809     3300010237421964250000J01XA400001212420000000000000                                                               VANCOMICINA POLVO LIOF SLN INY 500 MGVAL     4
CC0001129523937H202100000555054500000555054528/10/20211055     3300009237421964250000L1XA0400001233200000000000000                                                                            CISPLATINO SLN INY 50 MGVAL     2
CC0001129523937H202100000555054500000555054528/10/20211056     3300009237421964250000L01DC300001692450000000000000                                                                          BLOMINDEX POLVO LIOF 15 UIVAL     4
CC0001129523937H202100000555054500000555054528/10/20211056     3300009237421964250000L1BC4100001249730000000000000                                                    ETOPOSIDO 100MG/5ML(20MG/ML) SOL INY  VIAL X 5MLVAL     4
CC0001129523937H202100000555054500000555054528/10/20211542     3300010237421964250000N2AA0100000301640000000000000                                                                            MORFINA Sln Iny 10 mg/mlAMP     3
CC0001129523937H202100000555054500000555054528/10/20211419     3300010237421964250000A04AD100001581340000000000000                                                                  APRITANT POLVO LIOF SLN INY 150 MGVAL     1
CC0001129523937H202100000555054500000555054528/10/20212349     3300010237421964250000C03C0100001672000000000000000                                                                       FUROSEMIDA SLN INY 20 MG/2 MLAMP     1
CC0001129523937H202100000555054500000555054528/10/20210810     3300010237421964250000C03C0100001672000000000000000                                                                       FUROSEMIDA SLN INY 20 MG/2 MLAMP     1
CC0001129523937H202100000555054500000555054528/10/20210809     3300010237421964250000C03C0100001672000000000000000                                                                       FUROSEMIDA SLN INY 20 MG/2 MLAMP     1
CC0001129523937H202100000555054500000555054528/10/20211542     3300010237421964250000J01CR300001659480000000000000                                                                  DELBACTAM POLVO LIOF SLN INY 4.5 GVAL     1
CC0001129523937H202100000555054500000555054528/10/20210808     3300010237421964250000J01CR300001659480000000000000                                                                  DELBACTAM POLVO LIOF SLN INY 4.5 GVAL     2
CC0001129523937H202100000555054500000555054528/10/20210809     3300010237421964250000N2BE2200001252930000000000000                                                                             ACETAMINOFEN Tab 500 MGTAB     3
CC0001129523937H202100000555054500000555054528/10/20211420     3300010237421964250000A02BC700001684270000000000000                                                            OMEPRAZOL 40MG POLVO LIOFILIZADO AMPOLLAVAL     1
CC0001129523937H202100000555054500000555054528/10/20211434    31500213237421964250000V07A1300000502600000000000000                                                                                AGUA ESTERIL x 10 mlAMP    11
CC0001129523937H202100000555054500000555054528/10/20211541     3300010237421964250000M04AA100001332710000000000000                                                                            ALOPURINOL 100MG TABLETATAB     1
