CC0001045684571H202100000555050400000555050428/10/20211504    31902703237421964250000E1AB0200000199290000000000000                                                            SOLUCION SALINA 0.9% SLN INY BO X 100 MLBIN    10
CC0001045684571H202100000555050400000555050428/10/20210920    31900995237421964250000E1AB0200000199290000000000000                                                            SOLUCION SALINA 0.9% SLN INY BO X 100 MLBIN    10
CC0001045684571H202100000555050400000555050428/10/20210920    31900995237421964250000E1AB0500003888400000000000000                                                              SOLUCION SALINA 0.9% SLN INY X 1000 MLBOL     1
CC0001045684571H202100000555050400000555050428/10/20211504    31902703237421964250000E1AD0300000199490000000000000                                         LACTATO RINGER USP (HARTMANN)  SOL INY  BOL X 1000ML BAXTERBIN     1
CC0001045684571H202100000555050400000555050428/10/20211011     3300009237421964250000C7AB1000001382030000000000000                                                                   NOREPINEFRINA SLN INY 4 MG / 4 MLAMP    10
CC0001045684571H202100000555050400000555050428/10/20211535     3300010237421964250000J02A0200000191070000000000000                                                            CANCIDAS POLVO LIOF SLN INY AMP 50MG /R/VAL     1
CC0001045684571H202100000555050400000555050428/10/20210238     3300009237421964250000J02A0200000191070000000000000                                                            CANCIDAS POLVO LIOF SLN INY AMP 50MG /R/VAL     1
CC0001045684571H202100000555050400000555050428/10/20211629     3300010237421964250000N01A0400003939010000000000000                                               MAYOPROFOL 200MG/20ML(1%) EMUL INY CAJ X 1VIAL X 20MLVAL     4
CC0001045684571H202100000555050400000555050428/10/20211628     3300010237421964250000N01A0400003939010000000000000                                               MAYOPROFOL 200MG/20ML(1%) EMUL INY CAJ X 1VIAL X 20MLVAL    15
CC0001045684571H202100000555050400000555050428/10/20211011     3300009237421964250000N01A0400003939010000000000000                                               MAYOPROFOL 200MG/20ML(1%) EMUL INY CAJ X 1VIAL X 20MLVAL     4
CC0001045684571H202100000555050400000555050428/10/20211011     3300009237421964250000N07X0300003913670000000000000                                    DEXMEDETOMIDINA 400MCG/100ML(4MCG/ML) SOL INY BOL X 100ML BAXTERBOL     3
CC0001045684571H202100000555050400000555050428/10/20211011     3300009237421964250000V6DF2000001629900000000000000                                                                     ENSURE PLUS HN LIQUIDO X 237 MLFCO     2
CC0001045684571H202100000555050400000555050428/10/20210155     3300009237421964250000N5CD0300000218170000000000000                                                                          DORMICUM Sln Iny 5 mg/5 mlAMP     4
CC0001045684571H202100000555050400000555050428/10/20211535     3300010237421964250000J01DH400001317770000000000000                                                                MEROPENEM POLVO LIOF SLN INY 1 G /R/CAJ     2
CC0001045684571H202100000555050400000555050428/10/20211011     3300009237421964250000J01DH400001317770000000000000                                                                MEROPENEM POLVO LIOF SLN INY 1 G /R/CAJ     4
CC0001045684571H202100000555050400000555050428/10/20210238     3300009237421964250000J01DH400001317770000000000000                                                                MEROPENEM POLVO LIOF SLN INY 1 G /R/CAJ     2
CC0001045684571H202100000555050400000555050428/10/20211011     3300009237421964250000N05A1700001278300000000000000                                                                            QUETIAPINA TAB 25 MG /R/TAB     4
CC0001045684571H202100000555050400000555050428/10/20212202     3300010237421964250000R03BA900001390480000000000000                                                                BECLORT INH ORAL 250 MCG/DO X 200 DOFCO     1
CC0001045684571H202100000555050400000555050428/10/20212201     3300010237421964250000R03BB300001364640000000000000                                                            BROMURO IPRATROPIO INH ORAL 20 MCG/DO /RFCO     1
CC0001045684571H202100000555050400000555050428/10/20211011     3300009237421964250000A02BC700001684270000000000000                                                            OMEPRAZOL 40MG POLVO LIOFILIZADO AMPOLLAVAL     1
CC0001045684571H202100000555050400000555050428/10/20211504    31902703237421964250000V07A1300000502600000000000000                                                                                AGUA ESTERIL x 10 mlAMP    10
