CC0000008753953H202100015112651100015112651128/10/20211951    3150053123742196425000022426800001140510000000000000                                                                    EQUIPO MACROGOTEO BAXTER MRC0001SOB     1
CC0000008753953H202100015112651100015112651128/10/20211951    3150053123742196425000011082900001233450000000000000                                                               EQUIPO LC 5000 PRIMARIO FOTOPRO 0L218SOB     1
CC0000008753953H202100015112651100015112651128/10/20211951    3150053123742196425000011082700001620070000000000000                                                               EQUIPO SET PRIMARIO C/CLAVE REF 14001BOL     3
CC0000003893524H202100015112651100015112651128/10/20211951    31500531237421964250000E1AA0800000322190000000000000                                                                          DEXTROSA 5% Sln Iny 250 mlBIN     2
