CC0000008683889H202100000555084500000555084528/10/20211743     3300010237421964250000A04A1400001467560000000000000                                                                      ONDANSETRON SLN INY 8 MG/ 4 MLVAL     2
CC0000008683889H202100000555084500000555084528/10/20211744     3300010237421964250000A11C0600001389430000000000000                                                                             CALCITRIOL CAP 0.25 MCGCAP     4
CC0000008683889H202100000555084500000555084528/10/20211743     3300010237421964250000A12AA500001379260000000000000                                                                             OSTEOCAL TAB 600 MG /R/TAB     6
CC0000008683889H202100000555084500000555084528/10/20211744     3300010237421964250000V3AB2200000614150000000000000                                                            GLUCONATO CALCIO SLN INY 10% AMP X 10 MLAPC     1
CC0000008683889H202100000555084500000555084528/10/20211743     3300010237421964250000V3AB2200000614150000000000000                                                            GLUCONATO CALCIO SLN INY 10% AMP X 10 MLAPC     3
CC0000008683889H202100000555084500000555084528/10/20212150    31903271237421964250000E1AB0500003888400000000000000                                                              SOLUCION SALINA 0.9% SLN INY X 1000 MLBOL     2
CC0000008683889H202100000555084500000555084528/10/20211744     3300010237421964250000H03A0400001278890000000000000                                                                                  EUTIROX TAB 50 MCGTAB     4
CC0000008683889H202100000555084500000555084528/10/20211743     3300010237421964250000N2BB0500000217140000000000000                                                                          NOVALGINA Sln Iny 1 g/2 mlAMP     3
CC0000008683889H202100000555084500000555084528/10/20211744     3300010237421964250000N02B1100001169680000000000000                              PARACETAMOL 1000MG/100ML(10MG/ML) SOL INY  VIAL X 100ML FRESENIUS KABIVAL     4
