CC0001129498209H202100000555053700000555053728/10/20211643     3300010237421964250000A04A1400001467560000000000000                                                                      ONDANSETRON SLN INY 8 MG/ 4 MLVAL     1
CC0001129498209H202100000555053700000555053728/10/20210254     3300009237421964250000A04A1400001467560000000000000                                                                      ONDANSETRON SLN INY 8 MG/ 4 MLVAL     1
CC0001129498209H202100000555053700000555053728/10/20212042     3300010237421964250000A6AC0200001467010000000000000                                                             LACTULAX JARABE 66.7G/100ML SOX15ML /R/SOB     3
CC0001129498209H202100000555053700000555053728/10/20212037     3300010237421964250000B1AB0100001227270000000000000                                             HEPAMAX 25000UI/5ML(5000UI/ML) SOL INY  CAJ X 25AMPX5MLAMP     1
CC0001129498209H202100000555053700000555053728/10/20211804    31500272237421964250000E1AD0300000199490000000000000                                         LACTATO RINGER USP (HARTMANN)  SOL INY  BOL X 1000ML BAXTERBIN     1
CC0001129498209H202100000555053700000555053728/10/20210845     3300009237421964250000A12BA100000552980000000000000                                                            CLORURO POTASIO Sln Iny AMP 20 MEQ/10 MLAMP     1
CC0001129498209H202100000555053700000555053728/10/20210844     3300009237421964250000A12BA100000552980000000000000                                                            CLORURO POTASIO Sln Iny AMP 20 MEQ/10 MLAMP     1
CC0001129498209H202100000555053700000555053728/10/20211643     3300010237421964250000C02DC100001304000000000000000                                                                                VAXDIL TAB 10 MG /R/TAB     1
CC0001129498209H202100000555053700000555053728/10/20210843     3300009237421964250000C02DC100001304000000000000000                                                                                VAXDIL TAB 10 MG /R/TAB     1
CC0001129498209H202100000555053700000555053728/10/20210843     3300009237421964250000C02AC200001559150000000000000                                                                              CLONIDINA TAB 0.150 MGTAB     3
CC0001129498209H202100000555053700000555053728/10/20211643     3300010237421964250000C02C0100001316210000000000000                                                                                     PRATEN TAB 1 MGTAB     2
CC0001129498209H202100000555053700000555053728/10/20210844     3300009237421964250000C02C0100001316210000000000000                                                                                     PRATEN TAB 1 MGTAB     6
CC0001129498209H202100000555053700000555053728/10/20210843     3300009237421964250000C08CA300001313930000000000000                                                                                AMLODIPINO TAB 10 MGTAB     1
CC0001129498209H202100000555053700000555053728/10/20211836     3300010237421964250000N2BB0100000787510000000000000                                                                    DIPIRONA SODICA Sln Iny 1 g/2 mlAMP     2
CC0001129498209H202100000555053700000555053728/10/20211746    31903254237421964250000V07A1300000502600000000000000                                                                                AGUA ESTERIL x 10 mlAMP     4
