RC0001043713421U202100050131406600050131406628/10/20211205    3150015423942196432000038568200000257000000000000000                                                                                   SONDA NELATON #06SIN     1
RC0001146543259U202100050131406600050131406628/10/20211205    3150015423942196432000038568200000257000000000000000                                                                                   SONDA NELATON #06SIN     1
RC0001043713421U202100050131406600050131406628/10/20211205    31500154239421964320000B05C0200001339660000000000000                                                                        SOLUCION SALINA 0.9% X 10 MLJRP     1
RC0001146543259U202100050131406600050131406628/10/20211205    31500154239421964320000B05C0200001339660000000000000                                                                        SOLUCION SALINA 0.9% X 10 MLJRP     1
CC0000064545439U202100050131406600050131406628/10/20211205    3150015423942196432000036441300000236540000000000000                                                                    JERINGA 1 ML GASES ARTERIAL 9023SIN     1
RC0001146543259U202100050131406600050131406628/10/20211205    31500154239421964320000Q0000200000473250000000000000                                                                             INHALOCAMARA PEDIATRICACIN     1
RC0001043713421U202100050131406600050131406628/10/20211205    31500154239421964320000Q0000100000473260000000000000                                                                                 INHALOCAMARA ADULTOCIN     1
