CC0000072133553U202100000555059100000555059128/10/20212036     3300004239421964320000A6AC0200001467010000000000000                                                             LACTULAX JARABE 66.7G/100ML SOX15ML /R/SOB     1
CC0000072133553U202100000555059100000555059128/10/20211136     3300004239421964320000A6AC0200001467010000000000000                                                             LACTULAX JARABE 66.7G/100ML SOX15ML /R/SOB     1
CC0000072133553U202100000555059100000555059128/10/20212114    31902327239421964320000E1AB0300003888390000000000000                                                            SOLUCION SALINA 0.9% SLN INY BO X 500 MLBOL     1
CC0000072133553U202100000555059100000555059128/10/20210707    31900982239421964320000E1AB0300003888390000000000000                                                            SOLUCION SALINA 0.9% SLN INY BO X 500 MLBOL     2
CC0000072133553U202100000555059100000555059128/10/20212036     3300004239421964320000J3CB2100000547740000000000000                                                                      CIPRO IV SLN INY 400 Mg/200 MLFCO     1
CC0000072133553U202100000555059100000555059128/10/20210859     3300004239421964320000J3CB2100000547740000000000000                                                                      CIPRO IV SLN INY 400 Mg/200 MLFCO     1
CC0000072133553U202100000555059100000555059128/10/20212037     3300004239421964320000B01AB200000513350000000000000                                                                        CLENOX SLN INY 40 MG/ 0.4 MLJRP     1
CC0000072133553U202100000555059100000555059128/10/20212036     3300004239421964320000J01F0200001689390000000000000                                                                        CLINDAMICINA INY 600 MG/4 MLAMP     1
CC0000072133553U202100000555059100000555059128/10/20211136     3300004239421964320000J01F0200001689390000000000000                                                                        CLINDAMICINA INY 600 MG/4 MLAMP     1
