CC0001127234783H202100015032579500015032579528/10/20211208    3150020623742196425000022426800001140510000000000000                                                                    EQUIPO MACROGOTEO BAXTER MRC0001SOB     1
CC0001014199740H202100015032579500015032579528/10/20211208    3150020623742196425000022426800001140510000000000000                                                                    EQUIPO MACROGOTEO BAXTER MRC0001SOB     1
CC0001127234783H202100015032579500015032579528/10/20211208    3150020623742196425000030936900001431840000000000000                                                                                              BURETABOL     1
CC0001014199740H202100015032579500015032579528/10/20211208    3150020623742196425000030936900001431840000000000000                                                                                              BURETABOL     1
CC0001140857870H202100015032579500015032579528/10/20211208    3150020623742196425000030936900001431840000000000000                                                                                              BURETABOL     1
CC0000073070310H202100015032579500015032579528/10/20211208    31500206237421964250000E1AB0700003888350000000000000                                                            SOLUCION SALINA 0.9% SLN INY BO X 250 MLBOL     3
