CC0001140828747U202100050131405800050131405828/10/20211118    3150025823942196432000024673600000222980000000000000                                                                     JERINGA DESECHABLE 5 ml 27*11/2SIN     1
CC0001140828747U202100050131405800050131405828/10/20211118    3150025823942196432000001956000001620610000000000000                                                                      CONECTOR MICRO CLAVE LAT-MC100SOB     1
CC0001140828747U202100050131405800050131405828/10/20211118    31500258239421964320000Q1AA7100000610620000000000000                                                            CATETER PERIFE INTROCAN # 18G 4251687-04SIN     1
CC0001140828747U202100050131405800050131405828/10/20211118    31500258239421964320000E1AB0700003888350000000000000                                                            SOLUCION SALINA 0.9% SLN INY BO X 250 MLBOL     1
