RC0001043317236H202100000555058500000555058528/10/20210534     3300009237421964250000A6AG0100001107060000000000000                                                            ENEMA RECTAL FOSTATO SODIO BO X 133ML /RBOL     1
RC0001043317236H202100000555058500000555058528/10/20212149    31903271237421964250000E1AD0300000199490000000000000                                         LACTATO RINGER USP (HARTMANN)  SOL INY  BOL X 1000ML BAXTERBIN     1
RC0001043317236H202100000555058500000555058528/10/20210534     3300009237421964250000H2AB0800001314550000000000000                                                                               LANTADIN TAB 6 MG /R/TAB     1
RC0001043317236H202100000555058500000555058528/10/20210533     3300009237421964250000H2AB0800001314550000000000000                                                                               LANTADIN TAB 6 MG /R/TAB     5
RC0001043317236H202100000555058500000555058528/10/20211214     3300009237421964250000L1BA0100001334160000000000000                                                                              METOTREXATE Tab 2.5 mgTAB     6
RC0001043317236H202100000555058500000555058528/10/20210932    31903053237421964250000V07A1300000502600000000000000                                                                                AGUA ESTERIL x 10 mlAMP     5
