CE0000000358913U202100050131411200050131411228/10/20211810    3190101023942196432000024674000000220660000000000000                             JERINGA A 3 PARTES CON AGUJA  SOB X 1 RYMCO  10ML BN EXENTO-DC.417/2020SIN     2
CC0000026822909U202100050131411200050131411228/10/20211810    3190101023942196432000011082700001620070000000000000                                                               EQUIPO SET PRIMARIO C/CLAVE REF 14001BOL     1
CE0000000358913U202100050131411200050131411228/10/20211810    3190101023942196432000011082700001620070000000000000                                                               EQUIPO SET PRIMARIO C/CLAVE REF 14001BOL     1
CE0000000358913U202100050131411200050131411228/10/20211810    31901010239421964320000Q1AA7100000610620000000000000                                                            CATETER PERIFE INTROCAN # 18G 4251687-04SIN     1
CE0000000358913U202100050131411200050131411228/10/20211810    3190101023942196432000030936900001431840000000000000                                                                                              BURETABOL     1
CE0000000358913U202100050131411200050131411228/10/20211810    3190101023942196432000016830000000970620000000000000                                                             SIST FIJACION CAT PERIFERICO 6.5X7 1683SOB     1
CE0000000358913U202100050131411200050131411228/10/20211810    31901010239421964320000E1AB0500003888400000000000000                                                              SOLUCION SALINA 0.9% SLN INY X 1000 MLBOL     1
