TI0001130268767H202100015122509300015122509328/10/20210014    3150007223742196425000045136100001419300000000000000                                                                            LANCETA DEXTROMETER X UNPZA     1
TI0001130268767H202100015122509300015122509328/10/20210014    3150007223742196425000022426800001140510000000000000                                                                    EQUIPO MACROGOTEO BAXTER MRC0001SOB     1
TI0001130268767H202100015122509300015122509328/10/20210014    3150007223742196425000011082700001620070000000000000                                                               EQUIPO SET PRIMARIO C/CLAVE REF 14001BOL     1
TI0001130268767H202100015122509300015122509328/10/20210014    31500072237421964250000E1AD0300000199490000000000000                                         LACTATO RINGER USP (HARTMANN)  SOL INY  BOL X 1000ML BAXTERBIN     4
TI0001130268767H202100015122509300015122509328/10/20210014    3150007223742196425000011137100001419310000000000000                                                               TIRA GLUCOMETRIA FREESTYLE H OPTIUM .PZA     1
