CC0000022328269H202100015112650700015112650728/10/20211142    3150002223742196425000038569400000256750000000000000                                                                        SONDA ASPIRACION CONTROL #14SIN     6
CC0001042970504H202100015112650700015112650728/10/20211142    3150002223742196425000038569400000256750000000000000                                                                        SONDA ASPIRACION CONTROL #14SIN     6
CC0001042970504H202100015112650700015112650728/10/20211142    3150002223742196425000022108000003906060000000000000                                                            SIST CERRAD ASPIRAC TRACH  22108-5 14 FRSOB     1
CC0000022328269H202100015112650700015112650728/10/20211142    3150002223742196425000036441300000236540000000000000                                                                    JERINGA 1 ML GASES ARTERIAL 9023SIN     4
CC0001042970504H202100015112650700015112650728/10/20211142    3150002223742196425000036441300000236540000000000000                                                                    JERINGA 1 ML GASES ARTERIAL 9023SIN     4
CC0000022328269H202100015112650700015112650728/10/20211142    3150002223742196425000013077800000471960000000000000                                                             GASA NO TEJIDA EST 7.5 X 7.5 SOB X 3 UNSOB     8
CC0001042970504H202100015112650700015112650728/10/20211142    3150002223742196425000011084700000516550000000000000                                                                FILTRO CALOR-HUMEDAD AD REF 352/5877SIN     1
CC0000022328269H202100015112650700015112650728/10/20211142    3150002223742196425000020816000001096410000000000000                                                                          LINER PARED DELGADA 1500CCBOL     1
CC0000022328269H202100015112650700015112650728/10/20211142    31500022237421964250000E1AB0700003888350000000000000                                                            SOLUCION SALINA 0.9% SLN INY BO X 250 MLBOL     1
CC0001042970504H202100015112650700015112650728/10/20211142    31500022237421964250000E1AB0700003888350000000000000                                                            SOLUCION SALINA 0.9% SLN INY BO X 250 MLBOL     1
