RC0001042275292U202100050131402500050131402528/10/20210628    3150038723942196432000000201400000256990000000000000                                                                          SONDA NELATON PLASTICA # 5SIN     1
RC0001042275292U202100050131402500050131402528/10/20210628    3150038723942196432000024674000000220660000000000000                             JERINGA A 3 PARTES CON AGUJA  SOB X 1 RYMCO  10ML BN EXENTO-DC.417/2020SIN     2
RC0001042275292U202100050131402500050131402528/10/20210628    3150038723942196432000043485100001618510000000000000                GUANTE QUIRURGICO DE LATEX REF 2D72N65X CAJ X 50 PROTEXIS  6.5 BN EXENTO-DC.417/2020SOB     1
RC0001042275292U202100050131402500050131402528/10/20210628    3150038723942196432000013077800000471960000000000000                                                             GASA NO TEJIDA EST 7.5 X 7.5 SOB X 3 UNSOB     1
CC0000032747647U202100050131402500050131402528/10/20210628    3150038723942196432000001956000001620610000000000000                                                                      CONECTOR MICRO CLAVE LAT-MC100SOB     1
CC0000032747647U202100050131402500050131402528/10/20210628    31500387239421964320000Q1AA7200000610630000000000000                                                            CATETER PERIFE INTROCAN # 20G 4251644-04SIN     1
CC0000032747647U202100050131402500050131402528/10/20210628    3150038723942196432000016830000000970620000000000000                                                             SIST FIJACION CAT PERIFERICO 6.5X7 1683SOB     1
