RC0001046736821H202100015122509900015122509928/10/20211610    3150045323742196425000011060400001010330000000000000                                                            SENSOR PULSOX SPO2 LNCS NEONATAL MP00792PZA     1
RC0001046736821H202100015122509900015122509928/10/20211610    3150045323742196425000011082700001620070000000000000                                                               EQUIPO SET PRIMARIO C/CLAVE REF 14001BOL     1
RC0001046736821H202100015122509900015122509928/10/20211610    3150045323742196425000030936900001431840000000000000                                                                                              BURETABOL     1
RC0001046736821H202100015122509900015122509928/10/20211610    31500453237421964250000E1AB0700003888350000000000000                                                            SOLUCION SALINA 0.9% SLN INY BO X 250 MLBOL     2
