CC0001045686959H202100903699102800903699102828/10/20212326    3190302823742196425000024674000000220660000000000000                             JERINGA A 3 PARTES CON AGUJA  SOB X 1 RYMCO  10ML BN EXENTO-DC.417/2020SIN     5
CC0001045686959H202100903699102800903699102828/10/20212326    31903028237421964250000E1AB0300003888390000000000000                                                            SOLUCION SALINA 0.9% SLN INY BO X 500 MLBOL     2
CC0001045686959H202100903699102800903699102828/10/20212326    31903028237421964250000V07A1300000502600000000000000                                                                                AGUA ESTERIL x 10 mlAMP     5
