TI0001080436271H202100000555047200000555047228/10/20210004    31500383237421964250000E1AD0300000199490000000000000                                         LACTATO RINGER USP (HARTMANN)  SOL INY  BOL X 1000ML BAXTERBIN     2
TI0001080436271H202100000555047200000555047228/10/20210817     3300009237421964250000A02BC700001684270000000000000                                                            OMEPRAZOL 40MG POLVO LIOFILIZADO AMPOLLAVAL     1
TI0001080436271H202100000555047200000555047228/10/20211046    31903301237421964250000V07A1300000502600000000000000                                                                                AGUA ESTERIL x 10 mlAMP     4
