CC0001045742577U202100000555052000000555052028/10/20211306     3300004239421964320000H02AB400001140460000000000000                                                              SUCCINA METILPREDNISOLONA 500MG VIA/R/VAL     1
CC0001045742577U202100000555052000000555052028/10/20212301     3300004239421964320000A02B1800001353400000000000000                                                                               CYTIL TAB 200 MCG /R/TAB     2
CC0001045742577U202100000555052000000555052028/10/20212201     3300004239421964320000A02B1800001353400000000000000                                                                               CYTIL TAB 200 MCG /R/TAB     2
CC0001045742577U202100000555052000000555052028/10/20211700     3300004239421964320000A02B1800001353400000000000000                                                                               CYTIL TAB 200 MCG /R/TAB     1
CC0001045742577U202100000555052000000555052028/10/20211832    31500565239421964320000E1AB0500003888400000000000000                                                              SOLUCION SALINA 0.9% SLN INY X 1000 MLBOL     1
CC0001045742577U202100000555052000000555052028/10/20211400    31500565239421964320000E1AB0500003888400000000000000                                                              SOLUCION SALINA 0.9% SLN INY X 1000 MLBOL     1
CC0001045742577U202100000555052000000555052028/10/20211637     3300004239421964320000C2DE1400001277050000000000000                                                                         NIFEDIPINO CAPSULA LM 30 MGCAP     1
CC0001045742577U202100000555052000000555052028/10/20211025     3300004239421964320000C08C0800001277870000000000000                                                                                NIFEDIPINO CAP 10 MGTAB     3
CC0001045742577U202100000555052000000555052028/10/20210422     3300004239421964320000C08C0800001277870000000000000                                                                                NIFEDIPINO CAP 10 MGTAB     4
CC0001045742577U202100000555052000000555052028/10/20212044     3300004239421964320000A12CC100001690470000000000000                                                                  MAGNESIO SULFATO 20% SLN INY 10 MLAMP     7
CC0001045742577U202100000555052000000555052028/10/20211637     3300004239421964320000C09CA700001315590000000000000                                                                                 LOSARTAN TAB 100 MGTAB     1
