TI0001146537318H202100015122509500015122509528/10/20210625    3190166823742196425000011060400001010330000000000000                                                            SENSOR PULSOX SPO2 LNCS NEONATAL MP00792PZA     1
TI0001146537318H202100015122509500015122509528/10/20210625    3190166823742196425000011082700001620070000000000000                                                               EQUIPO SET PRIMARIO C/CLAVE REF 14001BOL     1
TI0001146537318H202100015122509500015122509528/10/20210625    3190166823742196425000030936900001431840000000000000                                                                                              BURETABOL     1
TI0001146537318H202100015122509500015122509528/10/20210625    31901668237421964250000E1AD0300000199490000000000000                                         LACTATO RINGER USP (HARTMANN)  SOL INY  BOL X 1000ML BAXTERBIN     3
