CC0000022361987H202100015112649900015112649928/10/20210223    31500531237421964250000V07A1300000502600000000000000                                                                                AGUA ESTERIL x 10 mlAMP    10
CC0000022361987H202100015112649900015112649928/10/20210223    3150053123742196425000018354100000232880000000000000                                                                  SUTURA SEDA NEGRA 3-0 KS 75CM 622HSIN     2
CC0000022361987H202100015112649900015112649928/10/20210223    3150053123742196425000011051900000226360000000000000                                                               KIT TRANSDUCTOR SENCILLO S/VAMP PX260SOB     1
CC0000022361987H202100015112649900015112649928/10/20210223    3150053123742196425000024674000000220660000000000000                             JERINGA A 3 PARTES CON AGUJA  SOB X 1 RYMCO  10ML BN EXENTO-DC.417/2020SIN    15
CC0000022361987H202100015112649900015112649928/10/20210223    3150053123742196425000043879200001138180000000000000                                                                                   HOJA BISTURI # 11SOB     1
CC0000022361987H202100015112649900015112649928/10/20210223    3150053123742196425000043485100001618510000000000000                GUANTE QUIRURGICO DE LATEX REF 2D72N65X CAJ X 50 PROTEXIS  6.5 BN EXENTO-DC.417/2020SOB     2
CC0000022361987H202100015112649900015112649928/10/20210223    3150053123742196425000011089000001318280000000000000                                                             GUANTE CIRUGIA NITRILO ALFASAFE TALLA 8SOB     1
CC0000022361987H202100015112649900015112649928/10/20210223    3150053123742196425000013077800000471960000000000000                                                             GASA NO TEJIDA EST 7.5 X 7.5 SOB X 3 UNSOB    15
CC0000022361987H202100015112649900015112649928/10/20210223    3150053123742196425000022426800001140510000000000000                                                                    EQUIPO MACROGOTEO BAXTER MRC0001SOB     2
CC0000022361987H202100015112649900015112649928/10/20210223    3150053123742196425000011082900001233450000000000000                                                               EQUIPO LC 5000 PRIMARIO FOTOPRO 0L218SOB     1
CC0000022361987H202100015112649900015112649928/10/20210223    3150053123742196425000011082700001620070000000000000                                                               EQUIPO SET PRIMARIO C/CLAVE REF 14001BOL     2
CC0000022361987H202100015112649900015112649928/10/20210223    3150053123742196425000001956000001620610000000000000                                                                      CONECTOR MICRO CLAVE LAT-MC100SOB     5
CC0000022361987H202100015112649900015112649928/10/20210223    3150053123742196425000021016900000227720000000000000                                                               CATETER TRILUMEN AD CS15703E 7FR*20CMSIN     1
CC0000022361987H202100015112649900015112649928/10/20210223    31500531237421964250000Q1A11500000331560000000000000                                                                     CATETER RADIAL #20 REF. 115.090SIN     1
CC0000022361987H202100015112649900015112649928/10/20210223    3150053123742196425000000602700001197200000000000000                                                              APOSITO TRANSP  1655 IV 8.5CM X 11.5CMSOB     1
CC0000022361987H202100015112649900015112649928/10/20210223    3150053123742196425000016830000000970620000000000000                                                             SIST FIJACION CAT PERIFERICO 6.5X7 1683SOB     1
CC0000022361987H202100015112649900015112649928/10/20210223    3150053123742196425000020056600001101530000000000000                                                                AGUJA HIPODERMICA DESECH 18G X 1 1/2SOB     5
CC0000022361987H202100015112649900015112649928/10/20210223    31500531237421964250000E1AD0300000199490000000000000                                         LACTATO RINGER USP (HARTMANN)  SOL INY  BOL X 1000ML BAXTERBIN     5
CC0000022361987H202100015112649900015112649928/10/20210223    31500531237421964250000E1AB0300003888390000000000000                                                            SOLUCION SALINA 0.9% SLN INY BO X 500 MLBOL     1
CC0000022361987H202100015112649900015112649928/10/20210223    31500531237421964250000E1AB0200000199290000000000000                                                            SOLUCION SALINA 0.9% SLN INY BO X 100 MLBIN     8
