CC0000055304547U202100000555060700000555060728/10/20211617     3300004239421964320000G02AD000001277960000000000000                                                                                 CYTIL V TAB 200 MCGTAB     4
CC0000055304547U202100000555060700000555060728/10/20211259     3300004239421964320000G02AD000001277960000000000000                                                                                 CYTIL V TAB 200 MCGTAB     4
CC0000055304547U202100000555060700000555060728/10/20210604     3300004239421964320000G02AD000001277960000000000000                                                                                 CYTIL V TAB 200 MCGTAB     3
CC0000055304547U202100000555060700000555060728/10/20210707    31900982239421964320000E1AD0300000199490000000000000                                         LACTATO RINGER USP (HARTMANN)  SOL INY  BOL X 1000ML BAXTERBIN     1
CC0000055304547U202100000555060700000555060728/10/20211732     3300004239421964320000N2BB0100000787510000000000000                                                                    DIPIRONA SODICA Sln Iny 1 g/2 mlAMP     1
