CC0000032768038H202100000555083600000555083628/10/20211727    31903301237421964250000A04A1400001467560000000000000                                                                      ONDANSETRON SLN INY 8 MG/ 4 MLVAL     1
CC0000032768038H202100000555083600000555083628/10/20211727    31903301237421964250000N5BB0800001334610000000000000                                                                                 HIDERAX S TAB 50 MGTAB     1
CC0000032768038H202100000555083600000555083628/10/20211727    31903301237421964250000N2AA0200000301600000000000000                                                                        HIDROMORFONA Sln Iny 2 mg/mlAMP     4
CC0000032768038H202100000555083600000555083628/10/20211727    31903301237421964250000A03BB100003889180000000000000                                      HIOSCINA BUTIL BROMURO 20MG/ML SOL INY CAJ X 100AMP X 1ML RYANAMP     2
CC0000032768038H202100000555083600000555083628/10/20211727    31903301237421964250000B01AB200000513350000000000000                                                                        CLENOX SLN INY 40 MG/ 0.4 MLJRP     2
CC0000032768038H202100000555083600000555083628/10/20211727    31903301237421964250000C03C0100001672000000000000000                                                                       FUROSEMIDA SLN INY 20 MG/2 MLAMP     1
CC0000032768038H202100000555083600000555083628/10/20211727    31903301237421964250000J01DD500001239970000000000000                                                                  CEFTRIAXONA POLVO LIOF SLN INY 1 GVAL     2
CC0000032768038H202100000555083600000555083628/10/20211727    31903301237421964250000N2BE2200001252930000000000000                                                                             ACETAMINOFEN Tab 500 MGTAB     4
CC0000032768038H202100000555083600000555083628/10/20211727    31903301237421964250000A02BC700001684270000000000000                                                            OMEPRAZOL 40MG POLVO LIOFILIZADO AMPOLLAVAL     2
