CC0001129523937H202100015042509100015042509128/10/20212322    31903028237421964250000V07A1300000502600000000000000                                                                                AGUA ESTERIL x 10 mlAMP     5
RC0001146543342H202100015042509100015042509128/10/20212322    31903028237421964250000V07A1300000502600000000000000                                                                                AGUA ESTERIL x 10 mlAMP     5
TI0001047048202H202100015042509100015042509128/10/20212322    31903028237421964250000V07A1300000502600000000000000                                                                                AGUA ESTERIL x 10 mlAMP     5
CC0001045686959H202100015042509100015042509128/10/20212322    31903028237421964250000V07A1300000502600000000000000                                                                                AGUA ESTERIL x 10 mlAMP     5
RC0001044662561H202100015042509100015042509128/10/20212322    31903028237421964250000V07A1300000502600000000000000                                                                                AGUA ESTERIL x 10 mlAMP     5
TI0001042265795H202100015042509100015042509128/10/20212322    31903028237421964250000V07A1300000502600000000000000                                                                                AGUA ESTERIL x 10 mlAMP     5
CC0001065132676H202100015042509100015042509128/10/20212322    31903028237421964250000V07A1300000502600000000000000                                                                                AGUA ESTERIL x 10 mlAMP     5
CC0001047034752H202100015042509100015042509128/10/20212322    3190302823742196425000024674000000220660000000000000                             JERINGA A 3 PARTES CON AGUJA  SOB X 1 RYMCO  10ML BN EXENTO-DC.417/2020SIN     5
CC0001129523937H202100015042509100015042509128/10/20212322    3190302823742196425000024674000000220660000000000000                             JERINGA A 3 PARTES CON AGUJA  SOB X 1 RYMCO  10ML BN EXENTO-DC.417/2020SIN     5
CC0001007795121H202100015042509100015042509128/10/20212322    3190302823742196425000024674000000220660000000000000                             JERINGA A 3 PARTES CON AGUJA  SOB X 1 RYMCO  10ML BN EXENTO-DC.417/2020SIN     5
RC0001146543342H202100015042509100015042509128/10/20212322    3190302823742196425000024674000000220660000000000000                             JERINGA A 3 PARTES CON AGUJA  SOB X 1 RYMCO  10ML BN EXENTO-DC.417/2020SIN     5
TI0001047048202H202100015042509100015042509128/10/20212322    3190302823742196425000024674000000220660000000000000                             JERINGA A 3 PARTES CON AGUJA  SOB X 1 RYMCO  10ML BN EXENTO-DC.417/2020SIN     5
CC0001045686959H202100015042509100015042509128/10/20212322    3190302823742196425000024674000000220660000000000000                             JERINGA A 3 PARTES CON AGUJA  SOB X 1 RYMCO  10ML BN EXENTO-DC.417/2020SIN     5
TI0001139430724H202100015042509100015042509128/10/20212322    3190302823742196425000024674000000220660000000000000                             JERINGA A 3 PARTES CON AGUJA  SOB X 1 RYMCO  10ML BN EXENTO-DC.417/2020SIN     5
RC0001044662561H202100015042509100015042509128/10/20212322    3190302823742196425000024674000000220660000000000000                             JERINGA A 3 PARTES CON AGUJA  SOB X 1 RYMCO  10ML BN EXENTO-DC.417/2020SIN     5
TI0001081819374H202100015042509100015042509128/10/20212322    3190302823742196425000024674000000220660000000000000                             JERINGA A 3 PARTES CON AGUJA  SOB X 1 RYMCO  10ML BN EXENTO-DC.417/2020SIN     5
RC0001043709109H202100015042509100015042509128/10/20212322    3190302823742196425000024674000000220660000000000000                             JERINGA A 3 PARTES CON AGUJA  SOB X 1 RYMCO  10ML BN EXENTO-DC.417/2020SIN     5
TI0001047047240H202100015042509100015042509128/10/20212322    3190302823742196425000024674000000220660000000000000                             JERINGA A 3 PARTES CON AGUJA  SOB X 1 RYMCO  10ML BN EXENTO-DC.417/2020SIN     5
TI0001042265795H202100015042509100015042509128/10/20212322    3190302823742196425000024674000000220660000000000000                             JERINGA A 3 PARTES CON AGUJA  SOB X 1 RYMCO  10ML BN EXENTO-DC.417/2020SIN     5
CC0001065132676H202100015042509100015042509128/10/20212322    3190302823742196425000024674000000220660000000000000                             JERINGA A 3 PARTES CON AGUJA  SOB X 1 RYMCO  10ML BN EXENTO-DC.417/2020SIN     5
RC0001043710353H202100015042509100015042509128/10/20212322    3190302823742196425000024674000000220660000000000000                             JERINGA A 3 PARTES CON AGUJA  SOB X 1 RYMCO  10ML BN EXENTO-DC.417/2020SIN     5
CC0001129523937H202100015042509100015042509128/10/20212322    31903028237421964250000E1AB0600003839280000000000000                                                            SOLUCION SALINA 0.9% SLN INY FCO X 250 MBOL     1
CC0001065132676H202100015042509100015042509128/10/20212322    31903028237421964250000E1AB0600003839280000000000000                                                            SOLUCION SALINA 0.9% SLN INY FCO X 250 MBOL     1
TI0001081819374H202100015042509100015042509128/10/20212322    31903028237421964250000E1AD0200003888320000000000000                                                                              HARTMAN SLN INY 500 MLBOL     2
CC0001007795121H202100015042509100015042509128/10/20212322    31903028237421964250000E1AB0500003888400000000000000                                                              SOLUCION SALINA 0.9% SLN INY X 1000 MLBOL     1
CC0001047034752H202100015042509100015042509128/10/20212322    31903028237421964250000E1AB0300003888390000000000000                                                            SOLUCION SALINA 0.9% SLN INY BO X 500 MLBOL     1
CC0001045686959H202100015042509100015042509128/10/20212322    31903028237421964250000E1AB0300003888390000000000000                                                            SOLUCION SALINA 0.9% SLN INY BO X 500 MLBOL     2
CC0001065132676H202100015042509100015042509128/10/20212322    31903028237421964250000E1AB0300003888390000000000000                                                            SOLUCION SALINA 0.9% SLN INY BO X 500 MLBOL     1
CC0001129523937H202100015042509100015042509128/10/20212322    31903028237421964250000E1AB0200000199290000000000000                                                            SOLUCION SALINA 0.9% SLN INY BO X 100 MLBIN     2
CC0001007795121H202100015042509100015042509128/10/20212322    31903028237421964250000E1AB0200000199290000000000000                                                            SOLUCION SALINA 0.9% SLN INY BO X 100 MLBIN     2
TI0001047048202H202100015042509100015042509128/10/20212322    31903028237421964250000E1AB0200000199290000000000000                                                            SOLUCION SALINA 0.9% SLN INY BO X 100 MLBIN     4
TI0001042265795H202100015042509100015042509128/10/20212322    31903028237421964250000E1AA0800000322190000000000000                                                                          DEXTROSA 5% Sln Iny 250 mlBIN     1
RC0001146543342H202100015042509100015042509128/10/20212322    31903028237421964250000E1AC0100000199400000000000000                                                                          SUERO MIXTO Sln Iny 500 mlBIN     1
TI0001047048202H202100015042509100015042509128/10/20212322    31903028237421964250000E1AC0100000199400000000000000                                                                          SUERO MIXTO Sln Iny 500 mlBIN     2
RC0001044662561H202100015042509100015042509128/10/20212322    31903028237421964250000E1AC0100000199400000000000000                                                                          SUERO MIXTO Sln Iny 500 mlBIN     1
TI0001047047240H202100015042509100015042509128/10/20212322    31903028237421964250000E1AC0100000199400000000000000                                                                          SUERO MIXTO Sln Iny 500 mlBIN     1
RC0001043710353H202100015042509100015042509128/10/20212322    31903028237421964250000E1AC0100000199400000000000000                                                                          SUERO MIXTO Sln Iny 500 mlBIN     1
