NV0000169306826H202100915785102800915785102828/10/20210756    3190311723742196425000011137100001419310000000000000                                                               TIRA GLUCOMETRIA FREESTYLE H OPTIUM .PZA     2
NV0000169306826H202100915785102800915785102828/10/20210756    3190311723742196425000024674000000220660000000000000                             JERINGA A 3 PARTES CON AGUJA  SOB X 1 RYMCO  10ML BN EXENTO-DC.417/2020SIN     8
NV0000169306826H202100915785102800915785102828/10/20210756    3190311723742196425000045136100001419300000000000000                                                                            LANCETA DEXTROMETER X UNPZA     2
NV0000169306826H202100915785102800915785102828/10/20210756    31903117237421964250000V07A1300000502600000000000000                                                                                AGUA ESTERIL x 10 mlAMP     5
NV0000169306826H202100915785102800915785102828/10/20210756    31903117237421964250000E1AA1400003888550000000000000                                                                         DEXTROSA 10% SLN INY 250 MLBOL     1
