TI0001081819374H202100015042508600015042508628/10/20211126    3190331323742196425000001956000001620610000000000000                                                                      CONECTOR MICRO CLAVE LAT-MC100SOB     1
TI0001081819374H202100015042508600015042508628/10/20211126    31903313237421964250000Q1AA7400003911720000000000000                                                            CATETER PERIFE INTROCAN # 24G 4251601-04SOB     2
TI0001081819374H202100015042508600015042508628/10/20211126    3190331323742196425000016830000000970620000000000000                                                             SIST FIJACION CAT PERIFERICO 6.5X7 1683SOB     1
