RC0001063188067H202100015052702300015052702328/10/20212232    3150014823742196425000001956000001620610000000000000                                                                      CONECTOR MICRO CLAVE LAT-MC100SOB     1
RC0001063188067H202100015052702300015052702328/10/20212232    31500148237421964250000Q1AA7400003911720000000000000                                                            CATETER PERIFE INTROCAN # 24G 4251601-04SOB     3
CC0000072301900H202100015052702300015052702328/10/20212232    3150014823742196425000030936900001431840000000000000                                                                                              BURETABOL     1
CC0000037916302H202100015052702300015052702328/10/20212232    31500148237421964250000E1AA0800000322190000000000000                                                                          DEXTROSA 5% Sln Iny 250 mlBIN     2
