CC0000053134277H202100000555075000000555075028/10/20211216    31903310237421964250000A4AD0200000202990000000000000                                                                     PLITICAN HCL Sln Iny 50 mg/2 mlAMP     2
CC0000053134277H202100000555075000000555075028/10/20211216    31903310237421964250000A03A0800001177800000000000000                                                                      COLYPAN SLN INY 50 MG/5 ML /R/AMP     2
CC0000053134277H202100000555075000000555075028/10/20211216    31903310237421964250000C3DA0600001334560000000000000                                                                               GLUCOPHAGE Tab 500 mgTAB     1
CC0000053134277H202100000555075000000555075028/10/20211216    31903310237421964250000M1AB0900001019600000000000000                                                                              VOLTAREN Sln Iny 75 mgAMP     2
CC0000053134277H202100000555075000000555075028/10/20211216    31903310237421964250000N02B1100001169680000000000000                              PARACETAMOL 1000MG/100ML(10MG/ML) SOL INY  VIAL X 100ML FRESENIUS KABIVAL     3
