CC0001045669623H202100000555067400000555067428/10/20212050     3300010237421964250000A03A0800001177800000000000000                                                                      COLYPAN SLN INY 50 MG/5 ML /R/AMP     3
CC0001045669623H202100000555067400000555067428/10/20212321    31903259237421964250000E1AD0300000199490000000000000                                         LACTATO RINGER USP (HARTMANN)  SOL INY  BOL X 1000ML BAXTERBIN     1
CC0001045669623H202100000555067400000555067428/10/20212050     3300010237421964250000N02B1100001169680000000000000                              PARACETAMOL 1000MG/100ML(10MG/ML) SOL INY  VIAL X 100ML FRESENIUS KABIVAL     3
CC0001045669623H202100000555067400000555067428/10/20212049     3300010237421964250000N5BB0300000554910000000000000                                                                         HIDERAX SLN INY 100 MG/2 MLAMP     1
CC0001045669623H202100000555067400000555067428/10/20210934    31903053237421964250000V07A1300000502600000000000000                                                                                AGUA ESTERIL x 10 mlAMP     5
