TI0001047047240H202100000555052600000555052628/10/20211855     3300010237421964250000A04A1400001467560000000000000                                                                      ONDANSETRON SLN INY 8 MG/ 4 MLVAL     4
TI0001047047240H202100000555052600000555052628/10/20210826     3300010237421964250000A6AC0200001467010000000000000                                                             LACTULAX JARABE 66.7G/100ML SOX15ML /R/SOB     1
TI0001047047240H202100000555052600000555052628/10/20211551     3300010237421964250000H2AB0200001276910000000000000                                                                               PREDNISOLONA TAB 5 MGTAB     3
TI0001047047240H202100000555052600000555052628/10/20210826     3300010237421964250000H2AB0200001276910000000000000                                                                               PREDNISOLONA TAB 5 MGTAB     6
TI0001047047240H202100000555052600000555052628/10/20211427    31500213237421964250000V07A1300000502600000000000000                                                                                AGUA ESTERIL x 10 mlAMP     8
