PA0000101415266H202100000555056900000555056928/10/20210517     3300009237421964250000A04A1400001467560000000000000                                                                      ONDANSETRON SLN INY 8 MG/ 4 MLVAL     1
PA0000101415266H202100000555056900000555056928/10/20210517     3300009237421964250000H02AB500001664950000000000000                                                            DEXAMETASONA SLN INY 8 MG/2 ML AMP /CDS/AMP     2
PA0000101415266H202100000555056900000555056928/10/20210517     3300009237421964250000N2BB1100000217160000000000000                                                                      NOVALGINA Sln Iny 2.5 g x 5 mlAMP     2
PA0000101415266H202100000555056900000555056928/10/20210517     3300009237421964250000N02B1100001169680000000000000                              PARACETAMOL 1000MG/100ML(10MG/ML) SOL INY  VIAL X 100ML FRESENIUS KABIVAL     1
PA0000101415266H202100000555056900000555056928/10/20210518     3300009237421964250000A02BC700001684270000000000000                                                            OMEPRAZOL 40MG POLVO LIOFILIZADO AMPOLLAVAL     1
