CC0000077185534H202100000555050500000555050528/10/20211015     3300009237421964250000B1AB0100001227270000000000000                                             HEPAMAX 25000UI/5ML(5000UI/ML) SOL INY  CAJ X 25AMPX5MLAMP     4
CC0000077185534H202100000555050500000555050528/10/20210239     3300009237421964250000B1AB0100001227270000000000000                                             HEPAMAX 25000UI/5ML(5000UI/ML) SOL INY  CAJ X 25AMPX5MLAMP     2
CC0000077185534H202100000555050500000555050528/10/20210922    31900995237421964250000E1AB0500003888400000000000000                                                              SOLUCION SALINA 0.9% SLN INY X 1000 MLBOL     2
CC0000077185534H202100000555050500000555050528/10/20212254    31902357237421964250000E1AD0300000199490000000000000                                         LACTATO RINGER USP (HARTMANN)  SOL INY  BOL X 1000ML BAXTERBIN     2
CC0000077185534H202100000555050500000555050528/10/20211015     3300009237421964250000C09CA400001277130000000000000                                                                                  LOSARTAN TAB 50 MGTAB     1
CC0000077185534H202100000555050500000555050528/10/20210239     3300009237421964250000C09CA400001277130000000000000                                                                                  LOSARTAN TAB 50 MGTAB     1
CC0000077185534H202100000555050500000555050528/10/20211536     3300010237421964250000J3CB2100000547740000000000000                                                                      CIPRO IV SLN INY 400 Mg/200 MLFCO     1
CC0000077185534H202100000555050500000555050528/10/20211248     3300009237421964250000N2AA0100000301640000000000000                                                                            MORFINA Sln Iny 10 mg/mlAMP     2
CC0000077185534H202100000555050500000555050528/10/20210153     3300009237421964250000N2AA0100000301640000000000000                                                                            MORFINA Sln Iny 10 mg/mlAMP     1
CC0000077185534H202100000555050500000555050528/10/20211015     3300009237421964250000A02B0800001276960000000000000                                                                                 OMEPRAZOL CAP 20 MGCAP     1
CC0000077185534H202100000555050500000555050528/10/20210239     3300009237421964250000C7AB0100001276990000000000000                                                                            BETOPROLOL TAB 50 MG /R/TAB     1
CC0000077185534H202100000555050500000555050528/10/20211015     3300009237421964250000C08CA300001313930000000000000                                                                                AMLODIPINO TAB 10 MGTAB     1
CC0000077185534H202100000555050500000555050528/10/20210239     3300009237421964250000N02BA100001276940000000000000                                                                  ACIDO ACETIL SALIC?LICO TAB 100 MGTAB     1
CC0000077185534H202100000555050500000555050528/10/20211505    31902703237421964250000V07A1300000502600000000000000                                                                                AGUA ESTERIL x 10 mlAMP    10
