RC0001041702380U202100050131411100050131411128/10/20211807    3190118123942196432000024674000000220660000000000000                             JERINGA A 3 PARTES CON AGUJA  SOB X 1 RYMCO  10ML BN EXENTO-DC.417/2020SIN     3
RC0001041702380U202100050131411100050131411128/10/20211807    3190118123942196432000011082700001620070000000000000                                                               EQUIPO SET PRIMARIO C/CLAVE REF 14001BOL     1
RC0001041702380U202100050131411100050131411128/10/20211807    3190118123942196432000001956000001620610000000000000                                                                      CONECTOR MICRO CLAVE LAT-MC100SOB     1
RC0001041702380U202100050131411100050131411128/10/20211807    3190118123942196432000030936900001431840000000000000                                                                                              BURETABOL     1
RC0001041702380U202100050131411100050131411128/10/20211807    3190118123942196432000016830000000970620000000000000                                                             SIST FIJACION CAT PERIFERICO 6.5X7 1683SOB     1
RC0001041702380U202100050131411100050131411128/10/20211807    31901181239421964320000E1AC0100000199400000000000000                                                                          SUERO MIXTO Sln Iny 500 mlBIN     1
