CC0000022361987H202100015112650300015112650328/10/20210736    3190092623742196425000024675000001585130000000000000                                                                    JERINGA DESECHABLE 50 ml S/AGUJASOB     2
CC0000003893524H202100015112650300015112650328/10/20210736    3190092623742196425000024674000000220660000000000000                             JERINGA A 3 PARTES CON AGUJA  SOB X 1 RYMCO  10ML BN EXENTO-DC.417/2020SIN    10
CC0000008753953H202100015112650300015112650328/10/20210736    3190092623742196425000024674000000220660000000000000                             JERINGA A 3 PARTES CON AGUJA  SOB X 1 RYMCO  10ML BN EXENTO-DC.417/2020SIN    20
CC0000022361987H202100015112650300015112650328/10/20210736    3190092623742196425000024674000000220660000000000000                             JERINGA A 3 PARTES CON AGUJA  SOB X 1 RYMCO  10ML BN EXENTO-DC.417/2020SIN    20
CC0000003893524H202100015112650300015112650328/10/20210736    3190092623742196425000024672100001609890000000000000                                                            JERINGA INSULINA 1ML TAPA NARANJA JEI013SOB     5
CC0000003893524H202100015112650300015112650328/10/20210736    31900926237421964250000E1BA0100000198890000000000000                                                                   AGUA ESTERIL USP SLN INY X 500 MLBIN    10
CC0000008753953H202100015112650300015112650328/10/20210736    31900926237421964250000E1BA0100000198890000000000000                                                                   AGUA ESTERIL USP SLN INY X 500 MLBIN    10
CC0000022361987H202100015112650300015112650328/10/20210736    31900926237421964250000E1BA0100000198890000000000000                                                                   AGUA ESTERIL USP SLN INY X 500 MLBIN    10
CC0000008753953H202100015112650300015112650328/10/20210736    31900926237421964250000E1AD0300000199490000000000000                                         LACTATO RINGER USP (HARTMANN)  SOL INY  BOL X 1000ML BAXTERBIN     2
CC0000022361987H202100015112650300015112650328/10/20210736    31900926237421964250000E1AD0300000199490000000000000                                         LACTATO RINGER USP (HARTMANN)  SOL INY  BOL X 1000ML BAXTERBIN     2
CC0000003893524H202100015112650300015112650328/10/20210736    31900926237421964250000E1AB0200000199290000000000000                                                            SOLUCION SALINA 0.9% SLN INY BO X 100 MLBIN     5
CC0000008753953H202100015112650300015112650328/10/20210736    31900926237421964250000E1AB0200000199290000000000000                                                            SOLUCION SALINA 0.9% SLN INY BO X 100 MLBIN     8
CC0000022361987H202100015112650300015112650328/10/20210736    31900926237421964250000E1AB0200000199290000000000000                                                            SOLUCION SALINA 0.9% SLN INY BO X 100 MLBIN     8
CC0000003893524H202100015112650300015112650328/10/20210736    31900926237421964250000E1AA0800000322190000000000000                                                                          DEXTROSA 5% Sln Iny 250 mlBIN     1
CC0000003893524H202100015112650300015112650328/10/20210736    3190092623742196425000011137100001419310000000000000                                                               TIRA GLUCOMETRIA FREESTYLE H OPTIUM .PZA     3
CC0000008753953H202100015112650300015112650328/10/20210736    3190092623742196425000011137100001419310000000000000                                                               TIRA GLUCOMETRIA FREESTYLE H OPTIUM .PZA     3
CC0000022361987H202100015112650300015112650328/10/20210736    3190092623742196425000011137100001419310000000000000                                                               TIRA GLUCOMETRIA FREESTYLE H OPTIUM .PZA     3
CC0000008753953H202100015112650300015112650328/10/20210736    3190092623742196425000011127400001413910000000000000                                                            EQUIPO ADMINIST NUTR PUNZON REF 674669 BBOL     1
