CC0000044150179H202100915417102800915417102828/10/20212028    3190244523742196425000011082700001620070000000000000                                                               EQUIPO SET PRIMARIO C/CLAVE REF 14001BOL     1
CC0000044150179H202100915417102800915417102828/10/20212028    3190244523742196425000016830000000970620000000000000                                                             SIST FIJACION CAT PERIFERICO 6.5X7 1683SOB     1
CC0000044150179H202100915417102800915417102828/10/20212028    3190244523742196425000030936900001431840000000000000                                                                                              BURETABOL     1
CC0000044150179H202100915417102800915417102828/10/20212028    31902445237421964250000E1AD0300000199490000000000000                                         LACTATO RINGER USP (HARTMANN)  SOL INY  BOL X 1000ML BAXTERBIN     1
CC0000044150179H202100915417102800915417102828/10/20212238    31902445237421964250000Q1AA7300000610640000000000000                                                            CATETER PERIFE INTROCAN # 22G 4251628-04SIN     1
CC0000044150179H202100915417102800915417102828/10/20212238    3190244523742196425000001956000001620610000000000000                                                                      CONECTOR MICRO CLAVE LAT-MC100SOB     1
CC0000044150179H202100915417102800915417102828/10/20212238    31902445237421964250000Q1AA7200000610630000000000000                                                            CATETER PERIFE INTROCAN # 20G 4251644-04SIN     1
