CC0000008671218H202100000555051600000555051628/10/20210243     3300009237421964250000J01DA300001239950000000000000                                                            CEFAZOLINA SODICA POLVO LIOF SLN INY 1 GVAL     1
CC0000008671218H202100000555051600000555051628/10/20210243     3300009237421964250000N2AX0500001204110000000000000                                                                          TRAMAL SLN INY 100 MG / MLAMP     1
CC0000008671218H202100000555051600000555051628/10/20210243     3300009237421964250000N02B1100001169680000000000000                              PARACETAMOL 1000MG/100ML(10MG/ML) SOL INY  VIAL X 100ML FRESENIUS KABIVAL     4
