CC0001045714877U202100050131402000050131402028/10/20210432    3150035523942196432000049428200000860740000000000000                                                                       VENDA ELASTICA 3*5 NO ESTERILBOL     1
CC0001045714877U202100050131402000050131402028/10/20210432    3150035523942196432000011048600000223020000000000000                                                                 JERINGA VACUNACION 3ML C/AGU 302542SIN     1
CC0001045714877U202100050131402000050131402028/10/20210432    3150035523942196432000024674000000220660000000000000                             JERINGA A 3 PARTES CON AGUJA  SOB X 1 RYMCO  10ML BN EXENTO-DC.417/2020SIN     1
CC0001045714877U202100050131402000050131402028/10/20210432    3150035523942196432000013077800000471960000000000000                                                             GASA NO TEJIDA EST 7.5 X 7.5 SOB X 3 UNSOB     9
CC0001045714877U202100050131402000050131402028/10/20210432    3150035523942196432000011082700001620070000000000000                                                               EQUIPO SET PRIMARIO C/CLAVE REF 14001BOL     1
CC0001045714877U202100050131402000050131402028/10/20210432    3150035523942196432000001956000001620610000000000000                                                                      CONECTOR MICRO CLAVE LAT-MC100SOB     1
CC0001045714877U202100050131402000050131402028/10/20210432    31500355239421964320000Q1AA7100000610620000000000000                                                            CATETER PERIFE INTROCAN # 18G 4251687-04SIN     1
CC0001045714877U202100050131402000050131402028/10/20210432    3150035523942196432000030936900001431840000000000000                                                                                              BURETABOL     1
CC0001045714877U202100050131402000050131402028/10/20210432    3150035523942196432000016830000000970620000000000000                                                             SIST FIJACION CAT PERIFERICO 6.5X7 1683SOB     1
CC0001045714877U202100050131402000050131402028/10/20210432    31500355239421964320000E1AB0500003888400000000000000                                                              SOLUCION SALINA 0.9% SLN INY X 1000 MLBOL     2
CC0001045714877U202100050131402000050131402028/10/20210432    31500355239421964320000E1AB0200000199290000000000000                                                            SOLUCION SALINA 0.9% SLN INY BO X 100 MLBIN     1
CC0001045714877U202100050131402000050131402028/10/20210432    3150035523942196432000011137100001419310000000000000                                                               TIRA GLUCOMETRIA FREESTYLE H OPTIUM .PZA     1
