CC0001045714877U202100000555055600000555055628/10/20210900    31500617239421964320000E1AB0200000199290000000000000                                                            SOLUCION SALINA 0.9% SLN INY BO X 100 MLBIN     1
CC0001045714877U202100000555055600000555055628/10/20210436    31500355239421964320000E1AB0200000199290000000000000                                                            SOLUCION SALINA 0.9% SLN INY BO X 100 MLBIN     1
CC0001045714877U202100000555055600000555055628/10/20210435    31500355239421964320000E1AB0500003888400000000000000                                                              SOLUCION SALINA 0.9% SLN INY X 1000 MLBOL     2
CC0001045714877U202100000555055600000555055628/10/20210421     3300004239421964320000J7AA0600001602890000000000000                                                            VACUNA ANTITETANICA SUSP INY 40 UI/0.5MLVAL     1
CC0001045714877U202100000555055600000555055628/10/20210920     3300004239421964320000N01B0200003888110000000000000                                           ROXICAINA SE 100MG/10ML(1%) SOL INY CAJ X 24AMPACK X 10MLAPC     1
CC0001045714877U202100000555055600000555055628/10/20210420     3300004239421964320000N2BB0200000513030000000000000                                                                           LISALGIL Sln Iny 2 g/5 mlAMP     1
