TI0001042849714U202100000555046900000555046928/10/20211636     3300004239421964320000J01FA600001314880000000000000                                                                     ESPIRAMICINA 3000000 UI TABLETATAB     1
TI0001042849714U202100000555046900000555046928/10/20210832     3300004239421964320000J01FA600001314880000000000000                                                                     ESPIRAMICINA 3000000 UI TABLETATAB     1
TI0001042849714U202100000555046900000555046928/10/20210015     3300004239421964320000J01FA600001314880000000000000                                                                     ESPIRAMICINA 3000000 UI TABLETATAB     1
TI0001042849714U202100000555046900000555046928/10/20210245    31902336239421964320000E1AD0200003888320000000000000                                                                              HARTMAN SLN INY 500 MLBOL     1
TI0001042849714U202100000555046900000555046928/10/20212257    31500394239421964320000E1AD0300000199490000000000000                                         LACTATO RINGER USP (HARTMANN)  SOL INY  BOL X 1000ML BAXTERBIN     1
TI0001042849714U202100000555046900000555046928/10/20211241    31901010239421964320000E1AD0300000199490000000000000                                         LACTATO RINGER USP (HARTMANN)  SOL INY  BOL X 1000ML BAXTERBIN     1
TI0001042849714U202100000555046900000555046928/10/20210245    31902336239421964320000E1AD0300000199490000000000000                                         LACTATO RINGER USP (HARTMANN)  SOL INY  BOL X 1000ML BAXTERBIN     1
TI0001042849714U202100000555046900000555046928/10/20212209     3300004239421964320000C08C0800001277870000000000000                                                                                NIFEDIPINO CAP 10 MGTAB     3
TI0001042849714U202100000555046900000555046928/10/20211017     3300004239421964320000C08C0800001277870000000000000                                                                                NIFEDIPINO CAP 10 MGTAB     3
TI0001042849714U202100000555046900000555046928/10/20212209     3300004239421964320000H02AB900001434990000000000000                                                                      BETAMETASONA SLN INY 4 MG / MLAMP     3
TI0001042849714U202100000555046900000555046928/10/20212209     3300004239421964320000A03BB100003889180000000000000                                      HIOSCINA BUTIL BROMURO 20MG/ML SOL INY CAJ X 100AMP X 1ML RYANAMP     1
TI0001042849714U202100000555046900000555046928/10/20211426     3300004239421964320000A03BB100003889180000000000000                                      HIOSCINA BUTIL BROMURO 20MG/ML SOL INY CAJ X 100AMP X 1ML RYANAMP     1
TI0001042849714U202100000555046900000555046928/10/20210004     3300004239421964320000A03BB100003889180000000000000                                      HIOSCINA BUTIL BROMURO 20MG/ML SOL INY CAJ X 100AMP X 1ML RYANAMP     1
