CC0000007398827H202100000555058700000555058728/10/20210535     3300009237421964250000C3DA0500001278910000000000000                                                                               GLUCOPHAGE TAB 850 MGTAB     1
CC0000007398827H202100000555058700000555058728/10/20212149    31903271237421964250000E1AB0500003888400000000000000                                                              SOLUCION SALINA 0.9% SLN INY X 1000 MLBOL     1
CC0000007398827H202100000555058700000555058728/10/20210535     3300009237421964250000C02K0200001314230000000000000                                                                               ATACAND TAB 16 MG /R/TAB     1
CC0000007398827H202100000555058700000555058728/10/20210535     3300009237421964250000H03AA400001315380000000000000                                                                               SYNTHROID TAB 100 MCGTAB     1
CC0000007398827H202100000555058700000555058728/10/20211433     3300010237421964250000J01DA300001239950000000000000                                                            CEFAZOLINA SODICA POLVO LIOF SLN INY 1 GVAL     2
CC0000007398827H202100000555058700000555058728/10/20210535     3300009237421964250000J01DA300001239950000000000000                                                            CEFAZOLINA SODICA POLVO LIOF SLN INY 1 GVAL     1
CC0000007398827H202100000555058700000555058728/10/20210535     3300009237421964250000M01A0400001341250000000000000                                                                              DYNASTAT AMP 40 MG /R/VAL     1
CC0000007398827H202100000555058700000555058728/10/20211433     3300010237421964250000N02B1100001169680000000000000                              PARACETAMOL 1000MG/100ML(10MG/ML) SOL INY  VIAL X 100ML FRESENIUS KABIVAL     1
CC0000007398827H202100000555058700000555058728/10/20210535     3300009237421964250000N02B1100001169680000000000000                              PARACETAMOL 1000MG/100ML(10MG/ML) SOL INY  VIAL X 100ML FRESENIUS KABIVAL     1
CC0000007398827H202100000555058700000555058728/10/20210535     3300009237421964250000N03A0800001278440000000000000                                                                                LYRICA CAP 75 MG /R/CAP     1
CC0000007398827H202100000555058700000555058728/10/20210930    31903053237421964250000V07A1300000502600000000000000                                                                                AGUA ESTERIL x 10 mlAMP     5
