TI0001084454864H202100015022523300015022523328/10/20211017    3190148423742196425000024674000000220660000000000000                             JERINGA A 3 PARTES CON AGUJA  SOB X 1 RYMCO  10ML BN EXENTO-DC.417/2020SIN     6
TI0001084454864H202100015022523300015022523328/10/20211017    3190148423742196425000043485100001618510000000000000                GUANTE QUIRURGICO DE LATEX REF 2D72N65X CAJ X 50 PROTEXIS  6.5 BN EXENTO-DC.417/2020SOB     3
TI0001084454864H202100015022523300015022523328/10/20211017    3190148423742196425000013077800000471960000000000000                                                             GASA NO TEJIDA EST 7.5 X 7.5 SOB X 3 UNSOB    10
TI0001084454864H202100015022523300015022523328/10/20211017    3190148423742196425000011082700001620070000000000000                                                               EQUIPO SET PRIMARIO C/CLAVE REF 14001BOL     1
TI0001084454864H202100015022523300015022523328/10/20211017    3190148423742196425000030936900001431840000000000000                                                                                              BURETABOL     1
TI0001084454864H202100015022523300015022523328/10/20211017    3190148423742196425000000602700001197200000000000000                                                              APOSITO TRANSP  1655 IV 8.5CM X 11.5CMSOB     1
TI0001084454864H202100015022523300015022523328/10/20211017    31901484237421964250000Q1A19900000225320000000000000                                                             AGUJA IMPLANT SURECAN 22G*15MM 04448383SOB     1
TI0001084454864H202100015022523300015022523328/10/20211017    31901484237421964250000B05B1400001012740000000000000                                                                SOLUCION SALINA 0.45% Sln Iny 500 mlBOL     2
TI0001084454864H202100015022523300015022523328/10/20211017    31901484237421964250000E1AB1100003888280000000000000                                                                        SOLUCION SALINA 0.9% X 50 mlBOL     4
