CC0000032700438H202100000555077700000555077728/10/20211429    31902242237421964250000A03F0300001626860000000000000                                                                   METOCLOPRAMIDA SLN INY 10 MG/2 MLAMP     4
CC0000032700438H202100000555077700000555077728/10/20211429    31902242237421964250000N2AA0400003888080000000000000                                                                     DEMEROL HCL Sln Iny 100 mg/2 mlAMP     1
CC0000032700438H202100000555077700000555077728/10/20211429    31902242237421964250000A03BB100003889180000000000000                                      HIOSCINA BUTIL BROMURO 20MG/ML SOL INY CAJ X 100AMP X 1ML RYANAMP     3
CC0000032700438H202100000555077700000555077728/10/20211429    31902242237421964250000J01CR200000947130000000000000                                                              AMPICILINA /SULBACTAN POLVO LIOF 1.5 GAMP     4
CC0000032700438H202100000555077700000555077728/10/20211429    31902242237421964250000M01A2000001664970000000000000                                                               DICLOFENACO SODICO SLN INY 75 MG/3 MLAMP     1
CC0000032700438H202100000555077700000555077728/10/20211429    31902242237421964250000A02BC700001684270000000000000                                                            OMEPRAZOL 40MG POLVO LIOFILIZADO AMPOLLAVAL     2
