CC0000063295290A202100000027636500000027636528/10/20211235    3190333624042196419000049428400000738560000000000000                                                                       VENDA ELASTICA 5*5 NO ESTERILSOB     1
CC0000063295290A202100000027636500000027636528/10/20211235    3190333624042196419000018610600000607940000000000000                                                               SENSOR ADULTO XP MONITOR 006-186-0106SIN     1
CC0000063295290A202100000027636500000027636528/10/20211235    31903336240421964190000A03F0300001626860000000000000                                                                   METOCLOPRAMIDA SLN INY 10 MG/2 MLAMP     1
CC0000063295290A202100000027636500000027636528/10/20211235    31903336240421964190000H02AB500001664950000000000000                                                            DEXAMETASONA SLN INY 8 MG/2 ML AMP /CDS/AMP     1
CC0000063295290A202100000027636500000027636528/10/20211235    31903336240421964190000A2BC0900000200150000000000000                                                                               ORAZOLE Sln Iny 40 mgCIN     1
CC0000063295290A202100000027636500000027636528/10/20211235    31903336240421964190000Q1A13800003907920000000000000AGUJA HOPODERMICA DESECHABLE REF 305111 CAJ X 100 BD PRECISION GLIDE 26G X 1/2PULG BN EXENTO-DC.417/SOB     1
CC0000063295290A202100000027636500000027636528/10/20211235    31903336240421964190000N01B0200003888110000000000000                                           ROXICAINA SE 100MG/10ML(1%) SOL INY CAJ X 24AMPACK X 10MLAPC     1
CC0000063295290A202100000027636500000027636528/10/20211235    3190333624042196419000000102300000222960000000000000                                                                 JERINGA DESECHABLE SIN AGUJA X 20mLSIN     1
CC0000063295290A202100000027636500000027636528/10/20211235    3190333624042196419000000901800000598580000000000000                                                                     MASCARA LARINGEA REUSABLE No. 4SIN     1
CC0000063295290A202100000027636500000027636528/10/20211235    3190333624042196419000015994600000632480000000000000                                                                          MONOCRYL 4-0 PS-2 45 Y496GSIN     1
CC0000063295290A202100000027636500000027636528/10/20211235    3190333624042196419000045138000001413890000000000000                                                                       LAPIZ ELECTROBISTURI  SOB X 1SOB     1
CC0000063295290A202100000027636500000027636528/10/20211235    3190333624042196419000049428300000860750000000000000                                                                       VENDA ELASTICA 4*5 NO ESTERILBOL     1
CC0000063295290A202100000027636500000027636528/10/20211235    3190333624042196419000049419600001679900000000000000                                                                        VENDA ALGODON 4*5 NO ESTERILSOB     2
CC0000063295290A202100000027636500000027636528/10/20211235    3190333624042196419000043879100001138200000000000000                                                                  HOJA BISTURI # 15 CSSB 15 01002003SOB     1
CC0000063295290A202100000027636500000027636528/10/20211235    3190333624042196419000022425200000548240000000000000                       EXTENSION DE ANESTESIA REF 1139 SOB X 1 SHERLEG  ADULTO BN EXENTO-DC.417/2020SIN     1
CC0000063295290A202100000027636500000027636528/10/20211235    3190333624042196419000035356500003919000000000000000                                                                                        LLAVE 3 VIASSOB     2
CC0000063295290A202100000027636500000027636528/10/20211235    31903336240421964190000Q1AA7100000610620000000000000                                                            CATETER PERIFE INTROCAN # 18G 4251687-04SIN     2
CC0000063295290A202100000027636500000027636528/10/20211235    3190333624042196419000022426800001140510000000000000                                                                    EQUIPO MACROGOTEO BAXTER MRC0001SOB     1
CC0000063295290A202100000027636500000027636528/10/20211235    3190333624042196419000016830000000970620000000000000                                                             SIST FIJACION CAT PERIFERICO 6.5X7 1683SOB     1
CC0000063295290A202100000027636500000027636528/10/20211235    31903336240421964190000J01DA300001239950000000000000                                                            CEFAZOLINA SODICA POLVO LIOF SLN INY 1 GVAL     2
CC0000063295290A202100000027636500000027636528/10/20211235    3190333624042196419000020750600000296780000000000000                                                                PLACA ELECTRO RETORNO PACIENTE E7506SIN     1
CC0000063295290A202100000027636500000027636528/10/20211235    3190333624042196419000053074400000607910000000000000                                                               GASA ESTERIL 10*10 SOBRE X 3 UNIDADESSOB     3
CC0000063295290A202100000027636500000027636528/10/20211235    3190333624042196419000011085200001585390000000000000                                                                       GUANTE QUIRURGICO TALLA 7 1/2SOB     1
CC0000063295290A202100000027636500000027636528/10/20211235    3190333624042196419000011085100001082120000000000000                                                                           GUANTE QUIRURGICO TALLA 7SOB     2
CC0000063295290A202100000027636500000027636528/10/20211235    3190333624042196419000043485100001618510000000000000                GUANTE QUIRURGICO DE LATEX REF 2D72N65X CAJ X 50 PROTEXIS  6.5 BN EXENTO-DC.417/2020SOB     3
CC0000063295290A202100000027636500000027636528/10/20211235    3190333624042196419000051515500000598160000000000000                                                                            MASCARILLA ANESTESIA # 5SIN     1
CC0000063295290A202100000027636500000027636528/10/20211235    3190333624042196419000011099300000777780000000000000                                                                     FILTRO BACTERIANO VIRICO ADULTOBOL     1
CC0000063295290A202100000027636500000027636528/10/20211235    3190333624042196419000020058100001101630000000000000                                                                     AGUJA HIPODERMICA DESECH 23 X 1SOB     1
CC0000063295290A202100000027636500000027636528/10/20211235    3190333624042196419000020056600001101530000000000000                                                                AGUJA HIPODERMICA DESECH 18G X 1 1/2SOB     1
CC0000063295290A202100000027636500000027636528/10/20211235    3190333624042196419000024674000000220660000000000000                             JERINGA A 3 PARTES CON AGUJA  SOB X 1 RYMCO  10ML BN EXENTO-DC.417/2020SIN     3
CC0000063295290A202100000027636500000027636528/10/20211235    31903336240421964190000E1AD0200003888320000000000000                                                                              HARTMAN SLN INY 500 MLBOL     3
CC0000063295290A202100000027636500000027636528/10/20211235    31903336240421964190000E1AB0700003888350000000000000                                                            SOLUCION SALINA 0.9% SLN INY BO X 250 MLBOL     1
CC0000063295290A202100000027636500000027636528/10/20211235    31903336240421964190000N02B1100001169680000000000000                              PARACETAMOL 1000MG/100ML(10MG/ML) SOL INY  VIAL X 100ML FRESENIUS KABIVAL     1
CC0000063295290A202100000027636500000027636528/10/20211235    31903336240421964190000N01A0400003939010000000000000                                               MAYOPROFOL 200MG/20ML(1%) EMUL INY CAJ X 1VIAL X 20MLVAL     1
CC0000063295290A202100000027636500000027636528/10/20211235    31903336240421964190000M01A0400001341250000000000000                                                                              DYNASTAT AMP 40 MG /R/VAL     1
CC0000063295290A202100000027636500000027636528/10/20211235    31903336240421964190000N1BA0300000217900000000000000                                                                    BUPIROP 0.5% C/E Sln Iny x 20 mlVAL     1
