CC0000044150179H202100015022523900015022523928/10/20212237    3190244523742196425000001956000001620610000000000000                                                                      CONECTOR MICRO CLAVE LAT-MC100SOB     1
CC0000044150179H202100015022523900015022523928/10/20212237    31902445237421964250000Q1AA7200000610630000000000000                                                            CATETER PERIFE INTROCAN # 20G 4251644-04SIN     1
CC0000044150179H202100015022523900015022523928/10/20212237    31902445237421964250000Q1AA7300000610640000000000000                                                            CATETER PERIFE INTROCAN # 22G 4251628-04SIN     1
