CC0000008486413U202100050131405700050131405728/10/20211114    3190099523942196432000011082700001620070000000000000                                                               EQUIPO SET PRIMARIO C/CLAVE REF 14001BOL     1
CC0000008486413U202100050131405700050131405728/10/20211114    3190099523942196432000001956000001620610000000000000                                                                      CONECTOR MICRO CLAVE LAT-MC100SOB     1
CC0000008486413U202100050131405700050131405728/10/20211114    31900995239421964320000Q1AA7300000610640000000000000                                                            CATETER PERIFE INTROCAN # 22G 4251628-04SIN     1
CC0000008486413U202100050131405700050131405728/10/20211114    3190099523942196432000016830000000970620000000000000                                                             SIST FIJACION CAT PERIFERICO 6.5X7 1683SOB     1
