TI0001073826213H202100015122509700015122509728/10/20210925    3190100923742196425000011057100000525810000000000000                                                                  NIPLE CONECTOR REF 001840 CARDINALPZA     1
TI0001146537318H202100015122509700015122509728/10/20210925    3190100923742196425000011057100000525810000000000000                                                                  NIPLE CONECTOR REF 001840 CARDINALPZA     1
RC0001187466818H202100015122509700015122509728/10/20210925    3190100923742196425000011057100000525810000000000000                                                                  NIPLE CONECTOR REF 001840 CARDINALPZA     1
RC0001048091446H202100015122509700015122509728/10/20210925    3190100923742196425000011057100000525810000000000000                                                                  NIPLE CONECTOR REF 001840 CARDINALPZA     1
RC0001048091446H202100015122509700015122509728/10/20210925    3190100923742196425000036441300000236540000000000000                                                                    JERINGA 1 ML GASES ARTERIAL 9023SIN     4
RC0001048091446H202100015122509700015122509728/10/20210925    31901009237421964250000Q1A11800000258040000000000000                                                                         CANULA OXIGENO NASAL PEDIATSIN     1
