CC0000032882199H202100015012567600015012567628/10/20210758    3190305323742196425000011085100001082120000000000000                                                                           GUANTE QUIRURGICO TALLA 7SOB     1
CC0000032882199H202100015012567600015012567628/10/20210758    3190305323742196425000013077800000471960000000000000                                                             GASA NO TEJIDA EST 7.5 X 7.5 SOB X 3 UNSOB     5
CC0000032882199H202100015012567600015012567628/10/20210758    3190305323742196425000042743200003929860000000000000                   GASA ADHESIVA STRETCH REF 02038-00 ROL X 10MT FIXOMULL 15CM BN EXENTO-DC.417/2020CMT    30
