CC0000000162131H202100015032580400015032580428/10/20212055    3150038523742196425000011082700001620070000000000000                                                               EQUIPO SET PRIMARIO C/CLAVE REF 14001BOL     1
CC0000019602756H202100015032580400015032580428/10/20212055    3150038523742196425000001956000001620610000000000000                                                                      CONECTOR MICRO CLAVE LAT-MC100SOB     1
CC0001140828821H202100015032580400015032580428/10/20212055    3150038523742196425000001956000001620610000000000000                                                                      CONECTOR MICRO CLAVE LAT-MC100SOB     1
CC0001124380286H202100015032580400015032580428/10/20212055    3150038523742196425000001956000001620610000000000000                                                                      CONECTOR MICRO CLAVE LAT-MC100SOB     1
CC0000073070310H202100015032580400015032580428/10/20212055    3150038523742196425000001956000001620610000000000000                                                                      CONECTOR MICRO CLAVE LAT-MC100SOB     1
PA000000G691907H202100015032580400015032580428/10/20212055    31500385237421964250000Q1AA7300000610640000000000000                                                            CATETER PERIFE INTROCAN # 22G 4251628-04SIN     1
CC0000019602756H202100015032580400015032580428/10/20212055    31500385237421964250000Q1AA7300000610640000000000000                                                            CATETER PERIFE INTROCAN # 22G 4251628-04SIN     1
CC0001124380286H202100015032580400015032580428/10/20212055    31500385237421964250000Q1AA7300000610640000000000000                                                            CATETER PERIFE INTROCAN # 22G 4251628-04SIN     1
CC0000073070310H202100015032580400015032580428/10/20212055    31500385237421964250000Q1AA7300000610640000000000000                                                            CATETER PERIFE INTROCAN # 22G 4251628-04SIN     1
RC0001146543698H202100015032580400015032580428/10/20212055    3150038523742196425000030936900001431840000000000000                                                                                              BURETABOL     1
RC0001041699033H202100015032580400015032580428/10/20212055    3150038523742196425000030936900001431840000000000000                                                                                              BURETABOL     1
CC0000000162131H202100015032580400015032580428/10/20212055    3150038523742196425000030936900001431840000000000000                                                                                              BURETABOL     1
PA000000G691907H202100015032580400015032580428/10/20212055    3150038523742196425000016830000000970620000000000000                                                             SIST FIJACION CAT PERIFERICO 6.5X7 1683SOB     1
CC0000019602756H202100015032580400015032580428/10/20212055    3150038523742196425000016830000000970620000000000000                                                             SIST FIJACION CAT PERIFERICO 6.5X7 1683SOB     1
CC0001124380286H202100015032580400015032580428/10/20212055    3150038523742196425000016830000000970620000000000000                                                             SIST FIJACION CAT PERIFERICO 6.5X7 1683SOB     1
CC0000073070310H202100015032580400015032580428/10/20212055    3150038523742196425000016830000000970620000000000000                                                             SIST FIJACION CAT PERIFERICO 6.5X7 1683SOB     1
CC0001140857870H202100015032580400015032580428/10/20212055    31500385237421964250000B05B1400001012740000000000000                                                                SOLUCION SALINA 0.45% Sln Iny 500 mlBOL     1
PA000000G691907H202100015032580400015032580428/10/20212055    31500385237421964250000E1AD0200003888320000000000000                                                                              HARTMAN SLN INY 500 MLBOL     1
CC0001127234783H202100015032580400015032580428/10/20212055    31500385237421964250000E1AD0200003888320000000000000                                                                              HARTMAN SLN INY 500 MLBOL     1
PA0000NY2093186H202100015032580400015032580428/10/20212055    31500385237421964250000E1AD0200003888320000000000000                                                                              HARTMAN SLN INY 500 MLBOL     2
PA0000130692502H202100015032580400015032580428/10/20212055    31500385237421964250000E1AD0200003888320000000000000                                                                              HARTMAN SLN INY 500 MLBOL     1
CC0001014199740H202100015032580400015032580428/10/20212055    31500385237421964250000E1AD0200003888320000000000000                                                                              HARTMAN SLN INY 500 MLBOL     1
CC0000022468146H202100015032580400015032580428/10/20212055    31500385237421964250000E1AD0200003888320000000000000                                                                              HARTMAN SLN INY 500 MLBOL     1
CC0000032894571H202100015032580400015032580428/10/20212055    31500385237421964250000E1AD0200003888320000000000000                                                                              HARTMAN SLN INY 500 MLBOL     2
CC0000000162131H202100015032580400015032580428/10/20212055    31500385237421964250000E1AD0200003888320000000000000                                                                              HARTMAN SLN INY 500 MLBOL     1
CC0000022741946H202100015032580400015032580428/10/20212055    31500385237421964250000E1AD0200003888320000000000000                                                                              HARTMAN SLN INY 500 MLBOL     1
CC0000005029363H202100015032580400015032580428/10/20212055    31500385237421964250000E1AD0200003888320000000000000                                                                              HARTMAN SLN INY 500 MLBOL     1
CC0000064541334H202100015032580400015032580428/10/20212055    31500385237421964250000E1AD0200003888320000000000000                                                                              HARTMAN SLN INY 500 MLBOL     1
