CC0000022579966U202100000555071900000555071928/10/20211527    31901010239421964320000E1AB0700003888350000000000000                                                            SOLUCION SALINA 0.9% SLN INY BO X 250 MLBOL     1
CC0000022579966U202100000555071900000555071928/10/20211422     3300004239421964320000M1AE2500000191550000000000000                                                            PROFENID POLVO LIOF SLN INY 100MG/2ML/R/AMP     1
CC0000022579966U202100000555071900000555071928/10/20211425     3300004239421964320000M03B0500001278430000000000000                                                                     DORIXINA RELAX Tab 125/5 MG /R/TAB     1
CC0000022579966U202100000555071900000555071928/10/20211111     3300004239421964320000N02B1100001169680000000000000                              PARACETAMOL 1000MG/100ML(10MG/ML) SOL INY  VIAL X 100ML FRESENIUS KABIVAL     1
