CC0000032786349H202100000025034200000025034228/10/20210736    3190301623742196425000018351500000232840000000000000                                                                                    SEDA 2-0 KS 623HSIN     2
CC0000032609457H202100000025034200000025034228/10/20210736    3190301623742196425000018351500000232840000000000000                                                                                    SEDA 2-0 KS 623HSIN     1
CC0000032797831H202100000025034200000025034228/10/20210736    3190301623742196425000018351500000232840000000000000                                                                                    SEDA 2-0 KS 623HSIN     1
CC0000036530874H202100000025034200000025034228/10/20210736    3190301623742196425000024674000000220660000000000000                             JERINGA A 3 PARTES CON AGUJA  SOB X 1 RYMCO  10ML BN EXENTO-DC.417/2020SIN     6
CC0000032609457H202100000025034200000025034228/10/20210736    3190301623742196425000024674000000220660000000000000                             JERINGA A 3 PARTES CON AGUJA  SOB X 1 RYMCO  10ML BN EXENTO-DC.417/2020SIN     4
CC0000032797831H202100000025034200000025034228/10/20210736    3190301623742196425000024674000000220660000000000000                             JERINGA A 3 PARTES CON AGUJA  SOB X 1 RYMCO  10ML BN EXENTO-DC.417/2020SIN     4
CC0000036530874H202100000025034200000025034228/10/20210736    3190301623742196425000000102300000222960000000000000                                                                 JERINGA DESECHABLE SIN AGUJA X 20mLSIN     1
CC0000036530874H202100000025034200000025034228/10/20210736    3190301623742196425000011047900000223010000000000000                                                                            JERINGA X 1ML REF 302579SIN     2
CC0000036530874H202100000025034200000025034228/10/20210736    3190301623742196425000043485100001618510000000000000                GUANTE QUIRURGICO DE LATEX REF 2D72N65X CAJ X 50 PROTEXIS  6.5 BN EXENTO-DC.417/2020SOB     2
CC0000032609457H202100000025034200000025034228/10/20210736    3190301623742196425000043485100001618510000000000000                GUANTE QUIRURGICO DE LATEX REF 2D72N65X CAJ X 50 PROTEXIS  6.5 BN EXENTO-DC.417/2020SOB     2
CC0000032797831H202100000025034200000025034228/10/20210736    3190301623742196425000043485100001618510000000000000                GUANTE QUIRURGICO DE LATEX REF 2D72N65X CAJ X 50 PROTEXIS  6.5 BN EXENTO-DC.417/2020SOB     2
CC0000036530874H202100000025034200000025034228/10/20210736    3190301623742196425000011089400001083350000000000000                                                              GUANTE ESTERIL LATEX S/POLVO TALLA 8.0SOB     2
CC0000032609457H202100000025034200000025034228/10/20210736    3190301623742196425000011089400001083350000000000000                                                              GUANTE ESTERIL LATEX S/POLVO TALLA 8.0SOB     2
CC0000032797831H202100000025034200000025034228/10/20210736    3190301623742196425000011089400001083350000000000000                                                              GUANTE ESTERIL LATEX S/POLVO TALLA 8.0SOB     2
CC0000036530874H202100000025034200000025034228/10/20210736    3190301623742196425000013077800000471960000000000000                                                             GASA NO TEJIDA EST 7.5 X 7.5 SOB X 3 UNSOB    10
CC0000032609457H202100000025034200000025034228/10/20210736    3190301623742196425000013077800000471960000000000000                                                             GASA NO TEJIDA EST 7.5 X 7.5 SOB X 3 UNSOB     6
CC0000032797831H202100000025034200000025034228/10/20210736    3190301623742196425000013077800000471960000000000000                                                             GASA NO TEJIDA EST 7.5 X 7.5 SOB X 3 UNSOB     6
CC0000036530874H202100000025034200000025034228/10/20210736    3190301623742196425000022426800001140510000000000000                                                                    EQUIPO MACROGOTEO BAXTER MRC0001SOB     1
CC0000036530874H202100000025034200000025034228/10/20210736    3190301623742196425000022425200000548240000000000000                       EXTENSION DE ANESTESIA REF 1139 SOB X 1 SHERLEG  ADULTO BN EXENTO-DC.417/2020SIN     3
CC0000036530874H202100000025034200000025034228/10/20210736    3190301623742196425000001956000001620610000000000000                                                                      CONECTOR MICRO CLAVE LAT-MC100SOB     1
CC0000036530874H202100000025034200000025034228/10/20210736    3190301623742196425000038568100000258050000000000000                                                                         CANULA OXIGENO NASAL ADULTOSIN     1
CC0000036530874H202100000025034200000025034228/10/20210736    31903016237421964250000E1AB0500003888400000000000000                                                              SOLUCION SALINA 0.9% SLN INY X 1000 MLBOL     1
CC0000036530874H202100000025034200000025034228/10/20210736    31903016237421964250000E1AB0200000199290000000000000                                                            SOLUCION SALINA 0.9% SLN INY BO X 100 MLBIN     1
