RC0001046730341H202100015032580000015032580028/10/20211601    3190148523742196425000011082700001620070000000000000                                                               EQUIPO SET PRIMARIO C/CLAVE REF 14001BOL     1
RC0001046730341H202100015032580000015032580028/10/20211601    3190148523742196425000030936900001431840000000000000                                                                                              BURETABOL     1
PA0000NY2093186H202100015032580000015032580028/10/20211601    31901485237421964250000E1AD0300000199490000000000000                                         LACTATO RINGER USP (HARTMANN)  SOL INY  BOL X 1000ML BAXTERBIN     1
CC0001014199740H202100015032580000015032580028/10/20211601    31901485237421964250000E1AD0300000199490000000000000                                         LACTATO RINGER USP (HARTMANN)  SOL INY  BOL X 1000ML BAXTERBIN     1
RC0001046730341H202100015032580000015032580028/10/20211601    31901485237421964250000E1AC0100000199400000000000000                                                                          SUERO MIXTO Sln Iny 500 mlBIN     1
