CC0000032678618H202100015112651500015112651528/10/20212104    3190099823742196425000022426800001140510000000000000                                                                    EQUIPO MACROGOTEO BAXTER MRC0001SOB     1
CC0000022328269H202100015112651500015112651528/10/20212104    3190099823742196425000011081700001413910000000000000                                                                EQUIPO ADM NUTRICIONES 673662 BAXTERBOL     1
CC0001042970504H202100015112651500015112651528/10/20212104    31900998237421964250000B5BC0200003889280000000000000                                                                 OSMORIN MANITOL 20 % Bolsa X 500 mlBOL     2
CC0000022328269H202100015112651500015112651528/10/20212104    31900998237421964250000E1AB0700003888350000000000000                                                            SOLUCION SALINA 0.9% SLN INY BO X 250 MLBOL     1
