CC0001002067121U202100000555051900000555051928/10/20211412    31901010239421964320000E1AB0200000199290000000000000                                                            SOLUCION SALINA 0.9% SLN INY BO X 100 MLBIN     1
CC0001002067121U202100000555051900000555051928/10/20210245    31902336239421964320000E1AB0200000199290000000000000                                                            SOLUCION SALINA 0.9% SLN INY BO X 100 MLBIN     2
CC0001002067121U202100000555051900000555051928/10/20210813     3300004239421964320000C08C0800001277870000000000000                                                                                NIFEDIPINO CAP 10 MGTAB     3
CC0001002067121U202100000555051900000555051928/10/20211213     3300004239421964320000A03BB100003889180000000000000                                      HIOSCINA BUTIL BROMURO 20MG/ML SOL INY CAJ X 100AMP X 1ML RYANAMP     1
CC0001002067121U202100000555051900000555051928/10/20211213     3300004239421964320000N2BE2200001252930000000000000                                                                             ACETAMINOFEN Tab 500 MGTAB     2
