CC0000003893524H202100000555068700000555068728/10/20211811     3300010237421964250000V3AB2200000614150000000000000                                                            GLUCONATO CALCIO SLN INY 10% AMP X 10 MLAPC     1
CC0000003893524H202100000555068700000555068728/10/20211018     3300009237421964250000V3AB2200000614150000000000000                                                            GLUCONATO CALCIO SLN INY 10% AMP X 10 MLAPC     2
CC0000003893524H202100000555068700000555068728/10/20211018     3300009237421964250000B1AB0200003939510000000000000                 ENOXAPARINA SODICA 40MG/0.4ML(100MG/ML) SOL INY INST CAJ X 2JERPREL X 0.4ML TECHDOWJRP     1
CC0000003893524H202100000555068700000555068728/10/20211816    31900926237421964250000E1AA0800000322190000000000000                                                                          DEXTROSA 5% Sln Iny 250 mlBIN     1
CC0000003893524H202100000555068700000555068728/10/20211816    31900926237421964250000E1AB0200000199290000000000000                                                            SOLUCION SALINA 0.9% SLN INY BO X 100 MLBIN     5
CC0000003893524H202100000555068700000555068728/10/20212158     3300010237421964250000C1CA0300000861740000000000000                                                                    DOPAMINA HCL SLN INY 200 MG/5 MLAMP     2
CC0000003893524H202100000555068700000555068728/10/20211018     3300009237421964250000C1CA0300000861740000000000000                                                                    DOPAMINA HCL SLN INY 200 MG/5 MLAMP     2
CC0000003893524H202100000555068700000555068728/10/20211018     3300009237421964250000A2BC0700001335700000000000000                                                                                 OMEPRAZOL CAP 40 MGCAP     1
CC0000003893524H202100000555068700000555068728/10/20212159     3300010237421964250000C03C0100001672000000000000000                                                                       FUROSEMIDA SLN INY 20 MG/2 MLAMP     1
CC0000003893524H202100000555068700000555068728/10/20212158     3300010237421964250000C03C0100001672000000000000000                                                                       FUROSEMIDA SLN INY 20 MG/2 MLAMP     1
CC0000003893524H202100000555068700000555068728/10/20211811     3300010237421964250000C03C0100001672000000000000000                                                                       FUROSEMIDA SLN INY 20 MG/2 MLAMP     1
CC0000003893524H202100000555068700000555068728/10/20212158     3300010237421964250000R03AC200003848990000000000000                                                              SALBUTAMOL INH 100 MCG/DO FCO X 200 DOFCO     1
