PA0000128223910H202100000555090500000555090528/10/20212213     3300010237421964250000A04A1400001467560000000000000                                                                      ONDANSETRON SLN INY 8 MG/ 4 MLVAL     3
PA0000128223910H202100000555090500000555090528/10/20212213     3300010237421964250000H02AB500001664950000000000000                                                            DEXAMETASONA SLN INY 8 MG/2 ML AMP /CDS/AMP     3
PA0000128223910H202100000555090500000555090528/10/20212213     3300010237421964250000N2BB1100000217160000000000000                                                                      NOVALGINA Sln Iny 2.5 g x 5 mlAMP     3
PA0000128223910H202100000555090500000555090528/10/20212213     3300010237421964250000N02B1100001169680000000000000                              PARACETAMOL 1000MG/100ML(10MG/ML) SOL INY  VIAL X 100ML FRESENIUS KABIVAL     2
PA0000128223910H202100000555090500000555090528/10/20212214     3300010237421964250000A02BC700001684270000000000000                                                            OMEPRAZOL 40MG POLVO LIOFILIZADO AMPOLLAVAL     2
