CC0001143227023H202100015052701600015052701628/10/20211946    3150050223742196425000011082700001620070000000000000                                                               EQUIPO SET PRIMARIO C/CLAVE REF 14001BOL     1
CC0001143227023H202100015052701600015052701628/10/20211946    3150050223742196425000030936900001431840000000000000                                                                                              BURETABOL     1
CC0001143227023H202100015052701600015052701628/10/20211946    31500502237421964250000E1AD0200003888320000000000000                                                                              HARTMAN SLN INY 500 MLBOL     1
CC0001118877233H202100015052701600015052701628/10/20211946    31500502237421964250000E1AB0300003888390000000000000                                                            SOLUCION SALINA 0.9% SLN INY BO X 500 MLBOL     1
CC0000022543387H202100015052701600015052701628/10/20211946    31500502237421964250000E1AB0300003888390000000000000                                                            SOLUCION SALINA 0.9% SLN INY BO X 500 MLBOL     1
