CC0001082998387H202100000555058000000555058028/10/20210531     3300009237421964250000J01CF100000553250000000000000                                                                    OXACILINA POLVO LIOF SLN INY 1 GVAL     2
CC0001082998387H202100000555058000000555058028/10/20210530     3300009237421964250000N2AX0400001204140000000000000                                                                             TRAMAL Sln Iny 50 mg/mlAMP     2
CC0001082998387H202100000555058000000555058028/10/20210530     3300009237421964250000N2BB0500000217140000000000000                                                                          NOVALGINA Sln Iny 1 g/2 mlAMP     2
CC0001082998387H202100000555058000000555058028/10/20210531     3300009237421964250000N02B1100001169680000000000000                              PARACETAMOL 1000MG/100ML(10MG/ML) SOL INY  VIAL X 100ML FRESENIUS KABIVAL     2
CC0001082998387H202100000555058000000555058028/10/20211022    31903291237421964250000V07A1300000502600000000000000                                                                                AGUA ESTERIL x 10 mlAMP     5
