TI0001073826213H202100000555061100000555061128/10/20210631     3300009237421964250000B1AB0200003939510000000000000                 ENOXAPARINA SODICA 40MG/0.4ML(100MG/ML) SOL INY INST CAJ X 2JERPREL X 0.4ML TECHDOWJRP     2
TI0001073826213H202100000555061100000555061128/10/20211143    31500453237421964250000E1AB0700003888350000000000000                                                            SOLUCION SALINA 0.9% SLN INY BO X 250 MLBOL     1
TI0001073826213H202100000555061100000555061128/10/20211143    31500453237421964250000E1AB0300003888390000000000000                                                            SOLUCION SALINA 0.9% SLN INY BO X 500 MLBOL     1
TI0001073826213H202100000555061100000555061128/10/20211143    31500453237421964250000E1AD0300000199490000000000000                                         LACTATO RINGER USP (HARTMANN)  SOL INY  BOL X 1000ML BAXTERBIN     1
TI0001073826213H202100000555061100000555061128/10/20211815     3300010237421964250000C08C0800001277870000000000000                                                                                NIFEDIPINO CAP 10 MGTAB     1
TI0001073826213H202100000555061100000555061128/10/20211506     3300010237421964250000C08C0800001277870000000000000                                                                                NIFEDIPINO CAP 10 MGTAB     1
TI0001073826213H202100000555061100000555061128/10/20210631     3300009237421964250000C08C0800001277870000000000000                                                                                NIFEDIPINO CAP 10 MGTAB     2
TI0001073826213H202100000555061100000555061128/10/20211656     3300010237421964250000J01XA400001212420000000000000                                                               VANCOMICINA POLVO LIOF SLN INY 500 MGVAL     1
TI0001073826213H202100000555061100000555061128/10/20211035     3300009237421964250000J01XA400001212420000000000000                                                               VANCOMICINA POLVO LIOF SLN INY 500 MGVAL     1
TI0001073826213H202100000555061100000555061128/10/20210631     3300009237421964250000J01XA400001212420000000000000                                                               VANCOMICINA POLVO LIOF SLN INY 500 MGVAL     2
TI0001073826213H202100000555061100000555061128/10/20210631     3300009237421964250000C03C0100001672000000000000000                                                                       FUROSEMIDA SLN INY 20 MG/2 MLAMP     1
TI0001073826213H202100000555061100000555061128/10/20211506     3300010237421964250000J01D1200001239960000000000000                                                                              CEFEPIME POLVO INY 1 GVAL     1
TI0001073826213H202100000555061100000555061128/10/20210631     3300009237421964250000J01D1200001239960000000000000                                                                              CEFEPIME POLVO INY 1 GVAL     2
TI0001073826213H202100000555061100000555061128/10/20211035     3300009237421964250000N2BB0100000787510000000000000                                                                    DIPIRONA SODICA Sln Iny 1 g/2 mlAMP     1
TI0001073826213H202100000555061100000555061128/10/20210631     3300009237421964250000N2BB0100000787510000000000000                                                                    DIPIRONA SODICA Sln Iny 1 g/2 mlAMP     2
TI0001073826213H202100000555061100000555061128/10/20211505     3300010237421964250000N03AB200001168090000000000000                                                                       FENITOINA Sln Iny 250 mg/5 mlAMP     1
TI0001073826213H202100000555061100000555061128/10/20210631     3300009237421964250000N03AB200001168090000000000000                                                                       FENITOINA Sln Iny 250 mg/5 mlAMP     1
TI0001073826213H202100000555061100000555061128/10/20210631     3300009237421964250000A02BC700001684270000000000000                                                            OMEPRAZOL 40MG POLVO LIOFILIZADO AMPOLLAVAL     1
TI0001073826213H202100000555061100000555061128/10/20211143    31500453237421964250000V07A1300000502600000000000000                                                                                AGUA ESTERIL x 10 mlAMP     5
