RC0001187466818H202100000555061200000555061228/10/20211658     3300010237421964250000V3AB2200000614150000000000000                                                            GLUCONATO CALCIO SLN INY 10% AMP X 10 MLAPC     1
RC0001187466818H202100000555061200000555061228/10/20210632     3300009237421964250000V3AB2200000614150000000000000                                                            GLUCONATO CALCIO SLN INY 10% AMP X 10 MLAPC     3
RC0001187466818H202100000555061200000555061228/10/20211143    31500453237421964250000E1AA0800000322190000000000000                                                                          DEXTROSA 5% Sln Iny 250 mlBIN     1
RC0001187466818H202100000555061200000555061228/10/20211143    31500453237421964250000E1AB0300003888390000000000000                                                            SOLUCION SALINA 0.9% SLN INY BO X 500 MLBOL     1
RC0001187466818H202100000555061200000555061228/10/20211658     3300010237421964250000A12BA100000552980000000000000                                                            CLORURO POTASIO Sln Iny AMP 20 MEQ/10 MLAMP     1
RC0001187466818H202100000555061200000555061228/10/20210633     3300009237421964250000A12BA100000552980000000000000                                                            CLORURO POTASIO Sln Iny AMP 20 MEQ/10 MLAMP     1
RC0001187466818H202100000555061200000555061228/10/20210632     3300009237421964250000A12BA100000552980000000000000                                                            CLORURO POTASIO Sln Iny AMP 20 MEQ/10 MLAMP     1
RC0001187466818H202100000555061200000555061228/10/20211036     3300009237421964250000C1CE0200000202230000000000000                                                                       COROTROPE SLN INY 10 MG/10 MLCIN     2
RC0001187466818H202100000555061200000555061228/10/20210633     3300009237421964250000C1CE0200000202230000000000000                                                                       COROTROPE SLN INY 10 MG/10 MLCIN     1
RC0001187466818H202100000555061200000555061228/10/20211816     3300010237421964250000C08C0800001277870000000000000                                                                                NIFEDIPINO CAP 10 MGTAB     1
RC0001187466818H202100000555061200000555061228/10/20211036     3300009237421964250000C08C0800001277870000000000000                                                                                NIFEDIPINO CAP 10 MGTAB     1
RC0001187466818H202100000555061200000555061228/10/20210632     3300009237421964250000C08C0800001277870000000000000                                                                                NIFEDIPINO CAP 10 MGTAB     1
RC0001187466818H202100000555061200000555061228/10/20211036     3300009237421964250000S2BA0200000468180000000000000                                                                   SOLU-MEDROL SLN INY 40 MG/ML  /R/VAL     1
RC0001187466818H202100000555061200000555061228/10/20210632     3300009237421964250000S2BA0200000468180000000000000                                                                   SOLU-MEDROL SLN INY 40 MG/ML  /R/VAL     2
RC0001187466818H202100000555061200000555061228/10/20211815     3300010237421964250000J01XA400001212420000000000000                                                               VANCOMICINA POLVO LIOF SLN INY 500 MGVAL     1
RC0001187466818H202100000555061200000555061228/10/20210632     3300009237421964250000J01XA400001212420000000000000                                                               VANCOMICINA POLVO LIOF SLN INY 500 MGVAL     1
RC0001187466818H202100000555061200000555061228/10/20210642     3300009237421964250000M03A1000000553280000000000000                                                                     VECURONIO BROMURO SLN INY 10 MGVAL     2
RC0001187466818H202100000555061200000555061228/10/20211815     3300010237421964250000N07X0300003913670000000000000                                    DEXMEDETOMIDINA 400MCG/100ML(4MCG/ML) SOL INY BOL X 100ML BAXTERBOL     1
RC0001187466818H202100000555061200000555061228/10/20211657     3300010237421964250000N07X0300003913670000000000000                                    DEXMEDETOMIDINA 400MCG/100ML(4MCG/ML) SOL INY BOL X 100ML BAXTERBOL     1
RC0001187466818H202100000555061200000555061228/10/20211658     3300010237421964250000A12CC100001690470000000000000                                                                  MAGNESIO SULFATO 20% SLN INY 10 MLAMP     1
RC0001187466818H202100000555061200000555061228/10/20211143    31500453237421964250000E1BA0100000198890000000000000                                                                   AGUA ESTERIL USP SLN INY X 500 MLBIN     1
RC0001187466818H202100000555061200000555061228/10/20211507     3300010237421964250000N1AH0200003906560000000000000                                                                     FENTANIL Iny 0.05 mg/ml x 10 mlAMP     2
RC0001187466818H202100000555061200000555061228/10/20211506     3300010237421964250000C03C0100001672000000000000000                                                                       FUROSEMIDA SLN INY 20 MG/2 MLAMP     1
RC0001187466818H202100000555061200000555061228/10/20210633     3300009237421964250000C03C0100001672000000000000000                                                                       FUROSEMIDA SLN INY 20 MG/2 MLAMP     1
RC0001187466818H202100000555061200000555061228/10/20211658     3300010237421964250000D01A0400000525580000000000000                                                                        CLOTRIMAZOL 1% CR TOP X 40 GCIN     1
RC0001187466818H202100000555061200000555061228/10/20211036     3300009237421964250000J01D1200001239960000000000000                                                                              CEFEPIME POLVO INY 1 GVAL     1
RC0001187466818H202100000555061200000555061228/10/20210632     3300009237421964250000J01D1200001239960000000000000                                                                              CEFEPIME POLVO INY 1 GVAL     1
RC0001187466818H202100000555061200000555061228/10/20211658     3300010237421964250000J01F0200001689390000000000000                                                                        CLINDAMICINA INY 600 MG/4 MLAMP     1
RC0001187466818H202100000555061200000555061228/10/20211036     3300009237421964250000J01F0200001689390000000000000                                                                        CLINDAMICINA INY 600 MG/4 MLAMP     1
RC0001187466818H202100000555061200000555061228/10/20210632     3300009237421964250000J01F0200001689390000000000000                                                                        CLINDAMICINA INY 600 MG/4 MLAMP     1
RC0001187466818H202100000555061200000555061228/10/20211658     3300010237421964250000N2BB0100000787510000000000000                                                                    DIPIRONA SODICA Sln Iny 1 g/2 mlAMP     1
RC0001187466818H202100000555061200000555061228/10/20210633     3300009237421964250000N2BB0100000787510000000000000                                                                    DIPIRONA SODICA Sln Iny 1 g/2 mlAMP     2
RC0001187466818H202100000555061200000555061228/10/20210633     3300009237421964250000A02BC700001684270000000000000                                                            OMEPRAZOL 40MG POLVO LIOFILIZADO AMPOLLAVAL     1
RC0001187466818H202100000555061200000555061228/10/20211143    31500453237421964250000V07A1300000502600000000000000                                                                                AGUA ESTERIL x 10 mlAMP     5
RC0001187466818H202100000555061200000555061228/10/20211036     3300009237421964250000C02DD100000777420000000000000                                      NITROPRUSIATO DE SODIO 50MG SOLUCION INYECTABLE  AMPOLLA X 2MLAMP     1
