CC0000072278313H202100015052701900015052701928/10/20212027    3190182623742196425000038568500000256950000000000000                                                                                   SONDA NELATON #12SIN     1
CC0000072278313H202100015052701900015052701928/10/20212027    3190182623742196425000038568400000256940000000000000                                                                                   SONDA NELATON #10SIN     1
CC0000072278313H202100015052701900015052701928/10/20212027    3190182623742196425000043485100001618510000000000000                GUANTE QUIRURGICO DE LATEX REF 2D72N65X CAJ X 50 PROTEXIS  6.5 BN EXENTO-DC.417/2020SOB     1
CC0001045739587H202100015052701900015052701928/10/20212027    3190182623742196425000043485100001618510000000000000                GUANTE QUIRURGICO DE LATEX REF 2D72N65X CAJ X 50 PROTEXIS  6.5 BN EXENTO-DC.417/2020SOB     1
CC0000072248781H202100015052701900015052701928/10/20212027    3190182623742196425000043485100001618510000000000000                GUANTE QUIRURGICO DE LATEX REF 2D72N65X CAJ X 50 PROTEXIS  6.5 BN EXENTO-DC.417/2020SOB     1
CC0001143120182H202100015052701900015052701928/10/20212027    3190182623742196425000011085100001082120000000000000                                                                           GUANTE QUIRURGICO TALLA 7SOB     1
CC0000072301900H202100015052701900015052701928/10/20212027    3190182623742196425000011085100001082120000000000000                                                                           GUANTE QUIRURGICO TALLA 7SOB     1
CC0000072278313H202100015052701900015052701928/10/20212027    3190182623742196425000011085100001082120000000000000                                                                           GUANTE QUIRURGICO TALLA 7SOB     1
CC0000072301900H202100015052701900015052701928/10/20212027    3190182623742196425000013077800000471960000000000000                                                             GASA NO TEJIDA EST 7.5 X 7.5 SOB X 3 UNSOB     3
CC0000012596135H202100015052701900015052701928/10/20212027    3190182623742196425000013077800000471960000000000000                                                             GASA NO TEJIDA EST 7.5 X 7.5 SOB X 3 UNSOB     3
CC0000022543387H202100015052701900015052701928/10/20212027    3190182623742196425000013077800000471960000000000000                                                             GASA NO TEJIDA EST 7.5 X 7.5 SOB X 3 UNSOB     5
CC0001045739587H202100015052701900015052701928/10/20212027    3190182623742196425000013077800000471960000000000000                                                             GASA NO TEJIDA EST 7.5 X 7.5 SOB X 3 UNSOB     5
CC0000072248781H202100015052701900015052701928/10/20212027    3190182623742196425000013077800000471960000000000000                                                             GASA NO TEJIDA EST 7.5 X 7.5 SOB X 3 UNSOB     5
CC0000022543387H202100015052701900015052701928/10/20212027    3190182623742196425000042743200003929860000000000000                   GASA ADHESIVA STRETCH REF 02038-00 ROL X 10MT FIXOMULL 15CM BN EXENTO-DC.417/2020CMT    30
CC0000055243081H202100015052701900015052701928/10/20212027    3190182623742196425000042743200003929860000000000000                   GASA ADHESIVA STRETCH REF 02038-00 ROL X 10MT FIXOMULL 15CM BN EXENTO-DC.417/2020CMT    30
CC0000072248781H202100015052701900015052701928/10/20212027    3190182623742196425000042743200003929860000000000000                   GASA ADHESIVA STRETCH REF 02038-00 ROL X 10MT FIXOMULL 15CM BN EXENTO-DC.417/2020CMT    40
