CC0001045669623H202100015012568900015012568928/10/20211944    3190101523742196425000022426800001140510000000000000                                                                    EQUIPO MACROGOTEO BAXTER MRC0001SOB     1
PA0000128223910H202100015012568900015012568928/10/20211944    3190101523742196425000022426800001140510000000000000                                                                    EQUIPO MACROGOTEO BAXTER MRC0001SOB     1
CC0001045669623H202100015012568900015012568928/10/20211944    3190101523742196425000030936900001431840000000000000                                                                                              BURETABOL     1
PA0000128223910H202100015012568900015012568928/10/20211944    3190101523742196425000030936900001431840000000000000                                                                                              BURETABOL     1
