CC0001144044612U202100050131400400050131400428/10/20210014    3190233623942196432000024674000000220660000000000000                             JERINGA A 3 PARTES CON AGUJA  SOB X 1 RYMCO  10ML BN EXENTO-DC.417/2020SIN     1
CC0001144044612U202100050131400400050131400428/10/20210014    3190233623942196432000001956000001620610000000000000                                                                      CONECTOR MICRO CLAVE LAT-MC100SOB     1
CC0001144044612U202100050131400400050131400428/10/20210014    31902336239421964320000Q1AA7200000610630000000000000                                                            CATETER PERIFE INTROCAN # 20G 4251644-04SIN     1
CC0001144044612U202100050131400400050131400428/10/20210014    3190233623942196432000030936900001431840000000000000                                                                                              BURETABOL     1
CC0001144044612U202100050131400400050131400428/10/20210014    3190233623942196432000016830000000970620000000000000                                                             SIST FIJACION CAT PERIFERICO 6.5X7 1683SOB     1
CC0001144044612U202100050131400400050131400428/10/20210014    31902336239421964320000E1AD0300000199490000000000000                                         LACTATO RINGER USP (HARTMANN)  SOL INY  BOL X 1000ML BAXTERBIN     1
