CC0000032683043H202100015052701400015052701428/10/20211556    3190315223742196425000043879400001138170000000000000                                                                  HOJA BISTURI # 10 CSSB 10 01002000SOB     1
CC0000037916302H202100015052701400015052701428/10/20211556    3190315223742196425000001956000001620610000000000000                                                                      CONECTOR MICRO CLAVE LAT-MC100SOB     1
CC0000037916302H202100015052701400015052701428/10/20211556    31903152237421964250000Q1AA7300000610640000000000000                                                            CATETER PERIFE INTROCAN # 22G 4251628-04SIN     2
CC0000037916302H202100015052701400015052701428/10/20211556    3190315223742196425000016830000000970620000000000000                                                             SIST FIJACION CAT PERIFERICO 6.5X7 1683SOB     1
