CC0000036724804H202100000555065500000555065528/10/20210926     3300010237421964250000A2BC0100001277990000000000000                                                                                   ORAZOLE CAP 20 MGCAP     1
CC0000036724804H202100000555065500000555065528/10/20211542     3300010237421964250000A2DA1400001333780000000000000                                                                         PANZYTRAT CAP 25.000 UI /R/CAP     3
CC0000036724804H202100000555065500000555065528/10/20210851     3300010237421964250000A11C0600001389430000000000000                                                                             CALCITRIOL CAP 0.25 MCGCAP     1
CC0000036724804H202100000555065500000555065528/10/20211632     3300010237421964250000B01A0600000216800000000000000                                                                   ARIXTRA SLN INY 2.5 MG/0.5 ML /R/SIN     1
CC0000036724804H202100000555065500000555065528/10/20211541     3300010237421964250000B01A0600000216800000000000000                                                                   ARIXTRA SLN INY 2.5 MG/0.5 ML /R/SIN     1
CC0000036724804H202100000555065500000555065528/10/20210851     3300010237421964250000B3BB0200001315040000000000000                                                                               ACIDO FOLICO Tab 5 mgTAB     1
CC0000036724804H202100000555065500000555065528/10/20210925     3300010237421964250000B03A0100001336630000000000000                                                                          SULFATO FERROSO Tab 200 mgTAB     2
CC0000036724804H202100000555065500000555065528/10/20210926     3300010237421964250000C3CA0200000195520000000000000                                                                           LASIX SLN INY 20 MG/ 2 MLAMP     2
CC0000036724804H202100000555065500000555065528/10/20211242     3300009237421964250000B4AD0100000634000000000000000                                                                     COLESTIRAMINA POLVO SOBRE X 4 GSOB     2
CC0000036724804H202100000555065500000555065528/10/20211242     3300009237421964250000A07F0100001075510000000000000                                                                    EPTAVIS GRANULOS SOBRE X 3 G /R/SOB     1
CC0000036724804H202100000555065500000555065528/10/20210926     3300010237421964250000H03A0400001278890000000000000                                                                                  EUTIROX TAB 50 MCGTAB     1
CC0000036724804H202100000555065500000555065528/10/20210926     3300010237421964250000N02B1100001169680000000000000                              PARACETAMOL 1000MG/100ML(10MG/ML) SOL INY  VIAL X 100ML FRESENIUS KABIVAL     1
CC0000036724804H202100000555065500000555065528/10/20211541     3300010237421964250000N05C0800001314910000000000000                                                                                ISOKLON TAB 3 MG /R/TAB     1
CC0000036724804H202100000555065500000555065528/10/20210850     3300010237421964250000A09A0500001221080000000000000                                                                            GLUTAPAK 10 Polvo x 15 gSOB     1
CC0000036724804H202100000555065500000555065528/10/20211622     3300010237421964250000B05B2500001052320000000000000                                                                     PERIOLIMEL BOLSA X 1500 ML (N4)BOL     2
CC0000036724804H202100000555065500000555065528/10/20211032    31903288237421964250000V07A1300000502600000000000000                                                                                AGUA ESTERIL x 10 mlAMP    10
