TI0001044214728H202100000555056400000555056428/10/20212118     3300010237421964250000A2BC0900000200150000000000000                                                                               ORAZOLE Sln Iny 40 mgCIN     1
TI0001044214728H202100000555056400000555056428/10/20211538     3300010237421964250000J1DA0200001277350000000000000                                                                                   KEFLEX TAB 500 MGTAB     1
TI0001044214728H202100000555056400000555056428/10/20210837     3300010237421964250000J1DA0200001277350000000000000                                                                                   KEFLEX TAB 500 MGTAB     1
TI0001044214728H202100000555056400000555056428/10/20210836     3300010237421964250000J1DA0200001277350000000000000                                                                                   KEFLEX TAB 500 MGTAB     2
TI0001044214728H202100000555056400000555056428/10/20211538     3300010237421964250000N2BB0500000217140000000000000                                                                          NOVALGINA Sln Iny 1 g/2 mlAMP     1
TI0001044214728H202100000555056400000555056428/10/20210837     3300010237421964250000N2BB0500000217140000000000000                                                                          NOVALGINA Sln Iny 1 g/2 mlAMP     2
TI0001044214728H202100000555056400000555056428/10/20211537     3300010237421964250000N02B1100001169680000000000000                              PARACETAMOL 1000MG/100ML(10MG/ML) SOL INY  VIAL X 100ML FRESENIUS KABIVAL     1
TI0001044214728H202100000555056400000555056428/10/20210837     3300010237421964250000N02B1100001169680000000000000                              PARACETAMOL 1000MG/100ML(10MG/ML) SOL INY  VIAL X 100ML FRESENIUS KABIVAL     3
TI0001044214728H202100000555056400000555056428/10/20212118     3300010237421964250000N7XA0100001277900000000000000                                                                                     ZOLOF TAB 50 MGTAB     1
TI0001044214728H202100000555056400000555056428/10/20211033    31903288237421964250000V07A1300000502600000000000000                                                                                AGUA ESTERIL x 10 mlAMP     5
