RC0001043198450H202100913556102800913556102828/10/20210756    3190311723742196425000011137100001419310000000000000                                                               TIRA GLUCOMETRIA FREESTYLE H OPTIUM .PZA     2
RC0001043198450H202100913556102800913556102828/10/20210756    3190311723742196425000013077800000471960000000000000                                                             GASA NO TEJIDA EST 7.5 X 7.5 SOB X 3 UNSOB     6
RC0001043198450H202100913556102800913556102828/10/20210756    3190311723742196425000024674000000220660000000000000                             JERINGA A 3 PARTES CON AGUJA  SOB X 1 RYMCO  10ML BN EXENTO-DC.417/2020SIN     6
RC0001043198450H202100913556102800913556102828/10/20210756    3190311723742196425000035356500003919000000000000000                                                                                        LLAVE 3 VIASSOB     2
RC0001043198450H202100913556102800913556102828/10/20210756    3190311723742196425000045136100001419300000000000000                                                                            LANCETA DEXTROMETER X UNPZA     2
RC0001043198450H202100913556102800913556102828/10/20210756    31903117237421964250000V07A1300000502600000000000000                                                                                AGUA ESTERIL x 10 mlAMP     3
