CC0000007454802H202100000555066300000555066328/10/20210929    31903254237421964250000B1AB1200003939350000000000000                 ENOXAPARINA SODICA 80MG/0.8ML(100MG/ML) SOL INY INST CAJ X 2JERPREL X 0.8ML TECHDOWJRP     1
CC0000007454802H202100000555066300000555066328/10/20210929    31903254237421964250000A02B0800001276960000000000000                                                                                 OMEPRAZOL CAP 20 MGCAP     1
CC0000007454802H202100000555066300000555066328/10/20210929    31903254237421964250000A03BB100003889180000000000000                                      HIOSCINA BUTIL BROMURO 20MG/ML SOL INY CAJ X 100AMP X 1ML RYANAMP     2
CC0000007454802H202100000555066300000555066328/10/20210915    31903254237421964250000A03BB100003889180000000000000                                      HIOSCINA BUTIL BROMURO 20MG/ML SOL INY CAJ X 100AMP X 1ML RYANAMP     2
CC0000007454802H202100000555066300000555066328/10/20210915    31903254237421964250000C01BD200001332790000000000000                                                                               AMIODARONA TAB 200 MGTAB     1
CC0000007454802H202100000555066300000555066328/10/20210915    31903254237421964250000H03AA100001391540000000000000                                                                             LEVOTIROXINA TAB 50 MCGTAB     1
CC0000007454802H202100000555066300000555066328/10/20210929    31903254237421964250000N2BB0100000787510000000000000                                                                    DIPIRONA SODICA Sln Iny 1 g/2 mlAMP     3
CC0000007454802H202100000555066300000555066328/10/20210915    31903254237421964250000N2BB0100000787510000000000000                                                                    DIPIRONA SODICA Sln Iny 1 g/2 mlAMP     1
