CC0001002182810H202100000555054600000555054628/10/20212200     3300010237421964250000A03F0300001626860000000000000                                                                   METOCLOPRAMIDA SLN INY 10 MG/2 MLAMP     1
CC0001002182810H202100000555054600000555054628/10/20211221     3300009237421964250000A03F0300001626860000000000000                                                                   METOCLOPRAMIDA SLN INY 10 MG/2 MLAMP     1
CC0001002182810H202100000555054600000555054628/10/20211247     3300009237421964250000B1AB0200003939510000000000000                 ENOXAPARINA SODICA 40MG/0.4ML(100MG/ML) SOL INY INST CAJ X 2JERPREL X 0.4ML TECHDOWJRP     2
CC0001002182810H202100000555054600000555054628/10/20211505    31902703237421964250000E1AB0200000199290000000000000                                                            SOLUCION SALINA 0.9% SLN INY BO X 100 MLBIN     5
CC0001002182810H202100000555054600000555054628/10/20210923    31900995237421964250000E1AB0200000199290000000000000                                                            SOLUCION SALINA 0.9% SLN INY BO X 100 MLBIN     5
CC0001002182810H202100000555054600000555054628/10/20212255    31902357237421964250000E1AB0300003888390000000000000                                                            SOLUCION SALINA 0.9% SLN INY BO X 500 MLBOL     1
CC0001002182810H202100000555054600000555054628/10/20210309    31902357237421964250000E1AB0300003888390000000000000                                                            SOLUCION SALINA 0.9% SLN INY BO X 500 MLBOL     3
CC0001002182810H202100000555054600000555054628/10/20211505    31902703237421964250000E1AB0500003888400000000000000                                                              SOLUCION SALINA 0.9% SLN INY X 1000 MLBOL     1
CC0001002182810H202100000555054600000555054628/10/20212200     3300010237421964250000A12BA100000552980000000000000                                                            CLORURO POTASIO Sln Iny AMP 20 MEQ/10 MLAMP     2
CC0001002182810H202100000555054600000555054628/10/20211221     3300009237421964250000N2BE2200001252930000000000000                                                                             ACETAMINOFEN Tab 500 MGTAB    10
CC0001002182810H202100000555054600000555054628/10/20211754     3300010237421964250000N2AX0900001672040000000000000                                                                              TRAMADOL SLN INY 50 MGAMP     4
CC0001002182810H202100000555054600000555054628/10/20211220     3300009237421964250000N2AX0900001672040000000000000                                                                              TRAMADOL SLN INY 50 MGAMP     4
CC0001002182810H202100000555054600000555054628/10/20211221     3300009237421964250000A02BC700001684270000000000000                                                            OMEPRAZOL 40MG POLVO LIOFILIZADO AMPOLLAVAL     1
CC0001002182810H202100000555054600000555054628/10/20211505    31902703237421964250000V07A1300000502600000000000000                                                                                AGUA ESTERIL x 10 mlAMP    10
