CC0001132234000H202100000555047300000555047328/10/20211751     3300010237421964250000A6AG0100001107060000000000000                                                            ENEMA RECTAL FOSTATO SODIO BO X 133ML /RBOL     2
CC0001132234000H202100000555047300000555047328/10/20210004    31500383237421964250000E1AB0300003888390000000000000                                                            SOLUCION SALINA 0.9% SLN INY BO X 500 MLBOL     2
CC0001132234000H202100000555047300000555047328/10/20211503    31903152237421964250000E1AB0500003888400000000000000                                                              SOLUCION SALINA 0.9% SLN INY X 1000 MLBOL     1
CC0001132234000H202100000555047300000555047328/10/20211047    31903301237421964250000V07A1300000502600000000000000                                                                                AGUA ESTERIL x 10 mlAMP     4
