NV0000169331975H202100015132503000015132503028/10/20210735    31903117237421964250000V07A1300000502600000000000000                                                                                AGUA ESTERIL x 10 mlAMP     5
NV0000169306826H202100015132503000015132503028/10/20210735    31903117237421964250000V07A1300000502600000000000000                                                                                AGUA ESTERIL x 10 mlAMP     5
RC0001240294513H202100015132503000015132503028/10/20210735    31903117237421964250000V07A1300000502600000000000000                                                                                AGUA ESTERIL x 10 mlAMP     5
RC0001043198450H202100015132503000015132503028/10/20210735    31903117237421964250000V07A1300000502600000000000000                                                                                AGUA ESTERIL x 10 mlAMP     5
RC0001048091909H202100015132503000015132503028/10/20210735    31903117237421964250000V07A1300000502600000000000000                                                                                AGUA ESTERIL x 10 mlAMP     5
RC0001053013307H202100015132503000015132503028/10/20210735    31903117237421964250000V07A1300000502600000000000000                                                                                AGUA ESTERIL x 10 mlAMP     5
RC0001048091952H202100015132503000015132503028/10/20210735    31903117237421964250000V07A1300000502600000000000000                                                                                AGUA ESTERIL x 10 mlAMP     5
RC0001048091952H202100015132503000015132503028/10/20210735    3190311723742196425000038568400000256940000000000000                                                                                   SONDA NELATON #10SIN     2
NV0000169331968H202100015132503000015132503028/10/20210735    3190311723742196425000011060400001010330000000000000                                                            SENSOR PULSOX SPO2 LNCS NEONATAL MP00792PZA     1
RC0001043198450H202100015132503000015132503028/10/20210735    3190311723742196425000035356500003919000000000000000                                                                                        LLAVE 3 VIASSOB     2
RC0001048091909H202100015132503000015132503028/10/20210735    3190311723742196425000035356500003919000000000000000                                                                                        LLAVE 3 VIASSOB     2
RC0001048091952H202100015132503000015132503028/10/20210735    3190311723742196425000035356500003919000000000000000                                                                                        LLAVE 3 VIASSOB     2
NV0000169331975H202100015132503000015132503028/10/20210735    3190311723742196425000045136100001419300000000000000                                                                            LANCETA DEXTROMETER X UNPZA     2
NV0000169306826H202100015132503000015132503028/10/20210735    3190311723742196425000045136100001419300000000000000                                                                            LANCETA DEXTROMETER X UNPZA     2
RC0001240294513H202100015132503000015132503028/10/20210735    3190311723742196425000045136100001419300000000000000                                                                            LANCETA DEXTROMETER X UNPZA     2
RC0001043198450H202100015132503000015132503028/10/20210735    3190311723742196425000045136100001419300000000000000                                                                            LANCETA DEXTROMETER X UNPZA     2
RC0001234897599H202100015132503000015132503028/10/20210735    3190311723742196425000045136100001419300000000000000                                                                            LANCETA DEXTROMETER X UNPZA     2
RC0001048091851H202100015132503000015132503028/10/20210735    3190311723742196425000045136100001419300000000000000                                                                            LANCETA DEXTROMETER X UNPZA     2
RC0001048091909H202100015132503000015132503028/10/20210735    3190311723742196425000045136100001419300000000000000                                                                            LANCETA DEXTROMETER X UNPZA     2
NV0000169331968H202100015132503000015132503028/10/20210735    3190311723742196425000045136100001419300000000000000                                                                            LANCETA DEXTROMETER X UNPZA     2
RC0001048091914H202100015132503000015132503028/10/20210735    3190311723742196425000045136100001419300000000000000                                                                            LANCETA DEXTROMETER X UNPZA     2
RC0001053013307H202100015132503000015132503028/10/20210735    3190311723742196425000045136100001419300000000000000                                                                            LANCETA DEXTROMETER X UNPZA     2
RC0001048091952H202100015132503000015132503028/10/20210735    3190311723742196425000045136100001419300000000000000                                                                            LANCETA DEXTROMETER X UNPZA     2
NV0000169331975H202100015132503000015132503028/10/20210735    3190311723742196425000024674000000220660000000000000                             JERINGA A 3 PARTES CON AGUJA  SOB X 1 RYMCO  10ML BN EXENTO-DC.417/2020SIN     8
NV0000169306826H202100015132503000015132503028/10/20210735    3190311723742196425000024674000000220660000000000000                             JERINGA A 3 PARTES CON AGUJA  SOB X 1 RYMCO  10ML BN EXENTO-DC.417/2020SIN     8
RC0001240294513H202100015132503000015132503028/10/20210735    3190311723742196425000024674000000220660000000000000                             JERINGA A 3 PARTES CON AGUJA  SOB X 1 RYMCO  10ML BN EXENTO-DC.417/2020SIN     8
RC0001043198450H202100015132503000015132503028/10/20210735    3190311723742196425000024674000000220660000000000000                             JERINGA A 3 PARTES CON AGUJA  SOB X 1 RYMCO  10ML BN EXENTO-DC.417/2020SIN     8
RC0001048091909H202100015132503000015132503028/10/20210735    3190311723742196425000024674000000220660000000000000                             JERINGA A 3 PARTES CON AGUJA  SOB X 1 RYMCO  10ML BN EXENTO-DC.417/2020SIN     8
RC0001053013307H202100015132503000015132503028/10/20210735    3190311723742196425000024674000000220660000000000000                             JERINGA A 3 PARTES CON AGUJA  SOB X 1 RYMCO  10ML BN EXENTO-DC.417/2020SIN     8
RC0001048091952H202100015132503000015132503028/10/20210735    3190311723742196425000024674000000220660000000000000                             JERINGA A 3 PARTES CON AGUJA  SOB X 1 RYMCO  10ML BN EXENTO-DC.417/2020SIN     8
RC0001043198450H202100015132503000015132503028/10/20210735    3190311723742196425000013077800000471960000000000000                                                             GASA NO TEJIDA EST 7.5 X 7.5 SOB X 3 UNSOB     8
RC0001048091909H202100015132503000015132503028/10/20210735    3190311723742196425000013077800000471960000000000000                                                             GASA NO TEJIDA EST 7.5 X 7.5 SOB X 3 UNSOB     8
RC0001048091952H202100015132503000015132503028/10/20210735    3190311723742196425000013077800000471960000000000000                                                             GASA NO TEJIDA EST 7.5 X 7.5 SOB X 3 UNSOB     8
NV0000169331975H202100015132503000015132503028/10/20210735    31903117237421964250000Q1AA7400003911720000000000000                                                            CATETER PERIFE INTROCAN # 24G 4251601-04SOB     2
RC0001053013307H202100015132503000015132503028/10/20210735    31903117237421964250000Q1AA7400003911720000000000000                                                            CATETER PERIFE INTROCAN # 24G 4251601-04SOB     2
NV0000169331975H202100015132503000015132503028/10/20210735    3190311723742196425000000602600001259280000000000000                                                             APOSITO TEGADERM IV PD 1610 5CM X 5.7CMSOB     2
RC0001053013307H202100015132503000015132503028/10/20210735    3190311723742196425000000602600001259280000000000000                                                             APOSITO TEGADERM IV PD 1610 5CM X 5.7CMSOB     2
NV0000169331975H202100015132503000015132503028/10/20210735    31903117237421964250000E1AA1400003888550000000000000                                                                         DEXTROSA 10% SLN INY 250 MLBOL     1
NV0000169306826H202100015132503000015132503028/10/20210735    31903117237421964250000E1AA1400003888550000000000000                                                                         DEXTROSA 10% SLN INY 250 MLBOL     1
RC0001240294513H202100015132503000015132503028/10/20210735    31903117237421964250000E1AB0200000199290000000000000                                                            SOLUCION SALINA 0.9% SLN INY BO X 100 MLBIN     1
NV0000169331975H202100015132503000015132503028/10/20210735    3190311723742196425000011137100001419310000000000000                                                               TIRA GLUCOMETRIA FREESTYLE H OPTIUM .PZA     2
NV0000169306826H202100015132503000015132503028/10/20210735    3190311723742196425000011137100001419310000000000000                                                               TIRA GLUCOMETRIA FREESTYLE H OPTIUM .PZA     2
RC0001240294513H202100015132503000015132503028/10/20210735    3190311723742196425000011137100001419310000000000000                                                               TIRA GLUCOMETRIA FREESTYLE H OPTIUM .PZA     2
RC0001043198450H202100015132503000015132503028/10/20210735    3190311723742196425000011137100001419310000000000000                                                               TIRA GLUCOMETRIA FREESTYLE H OPTIUM .PZA     2
RC0001234897599H202100015132503000015132503028/10/20210735    3190311723742196425000011137100001419310000000000000                                                               TIRA GLUCOMETRIA FREESTYLE H OPTIUM .PZA     2
RC0001048091851H202100015132503000015132503028/10/20210735    3190311723742196425000011137100001419310000000000000                                                               TIRA GLUCOMETRIA FREESTYLE H OPTIUM .PZA     2
RC0001048091909H202100015132503000015132503028/10/20210735    3190311723742196425000011137100001419310000000000000                                                               TIRA GLUCOMETRIA FREESTYLE H OPTIUM .PZA     2
NV0000169331968H202100015132503000015132503028/10/20210735    3190311723742196425000011137100001419310000000000000                                                               TIRA GLUCOMETRIA FREESTYLE H OPTIUM .PZA     2
RC0001048091914H202100015132503000015132503028/10/20210735    3190311723742196425000011137100001419310000000000000                                                               TIRA GLUCOMETRIA FREESTYLE H OPTIUM .PZA     2
RC0001053013307H202100015132503000015132503028/10/20210735    3190311723742196425000011137100001419310000000000000                                                               TIRA GLUCOMETRIA FREESTYLE H OPTIUM .PZA     2
RC0001048091952H202100015132503000015132503028/10/20210735    3190311723742196425000011137100001419310000000000000                                                               TIRA GLUCOMETRIA FREESTYLE H OPTIUM .PZA     2
