CC0001140828821H202100000555058300000555058328/10/20211852     3300010237421964250000A2AH0200001128980000000000000                                                                           MILPAX SUSP ORAL X 360 MLFCO     1
CC0001140828821H202100000555058300000555058328/10/20210532     3300009237421964250000A02BC100001677520000000000000                                                                ESOMEPRAZOL POLVO LIOF INY 40 MG /R/VAL     1
CC0001140828821H202100000555058300000555058328/10/20210533     3300009237421964250000B1AB0200003939510000000000000                 ENOXAPARINA SODICA 40MG/0.4ML(100MG/ML) SOL INY INST CAJ X 2JERPREL X 0.4ML TECHDOWJRP     1
CC0001140828821H202100000555058300000555058328/10/20210533     3300009237421964250000H03AA500001315460000000000000                                                                                SYNTHROID TAB 50 MCGTAB     1
CC0001140828821H202100000555058300000555058328/10/20211520     3300010237421964250000N2BB0200000513030000000000000                                                                           LISALGIL Sln Iny 2 g/5 mlAMP     1
CC0001140828821H202100000555058300000555058328/10/20211519     3300010237421964250000N2BB0200000513030000000000000                                                                           LISALGIL Sln Iny 2 g/5 mlAMP     3
CC0001140828821H202100000555058300000555058328/10/20211655     3300010237421964250000N02B1100001169680000000000000                              PARACETAMOL 1000MG/100ML(10MG/ML) SOL INY  VIAL X 100ML FRESENIUS KABIVAL     4
