PA0000A10575877H202100015012568500015012568528/10/20211430    3190115323742196425000043879300001138190000000000000                                                                                HOJA DE BISTURI # 12SOB     1
PA0000A10575877H202100015012568500015012568528/10/20211430    3190115323742196425000011085100001082120000000000000                                                                           GUANTE QUIRURGICO TALLA 7SOB     1
PA0000A10575877H202100015012568500015012568528/10/20211430    3190115323742196425000042743200003929860000000000000                   GASA ADHESIVA STRETCH REF 02038-00 ROL X 10MT FIXOMULL 15CM BN EXENTO-DC.417/2020CMT    30
