TI0001044223160U202100000555067300000555067328/10/20210934     3300004239421964320000A2BC0900000200150000000000000                                                                               ORAZOLE Sln Iny 40 mgCIN     1
TI0001044223160U202100000555067300000555067328/10/20211206     3300004239421964320000A07C0400000953120000000000000                                                            ENTEROLYTE SUERO ORAL 75 MEQ X 400ML /R/FCO     1
TI0001044223160U202100000555067300000555067328/10/20211811    31901010239421964320000E1AD0200003888320000000000000                                                                              HARTMAN SLN INY 500 MLBOL     1
TI0001044223160U202100000555067300000555067328/10/20211010    31901181239421964320000E1AD0200003888320000000000000                                                                              HARTMAN SLN INY 500 MLBOL     1
TI0001044223160U202100000555067300000555067328/10/20211755     3300004239421964320000N2BB0100000787510000000000000                                                                    DIPIRONA SODICA Sln Iny 1 g/2 mlAMP     1
TI0001044223160U202100000555067300000555067328/10/20210934     3300004239421964320000N2BB0100000787510000000000000                                                                    DIPIRONA SODICA Sln Iny 1 g/2 mlAMP     1
