RC0001046729891U202100050131401100050131401128/10/20210204    3150038723942196432000045136100001419300000000000000                                                                            LANCETA DEXTROMETER X UNPZA     1
RC0001046729891U202100050131401100050131401128/10/20210204    3150038723942196432000024674000000220660000000000000                             JERINGA A 3 PARTES CON AGUJA  SOB X 1 RYMCO  10ML BN EXENTO-DC.417/2020SIN     1
RC0001046729891U202100050131401100050131401128/10/20210204    3150038723942196432000011082700001620070000000000000                                                               EQUIPO SET PRIMARIO C/CLAVE REF 14001BOL     1
RC0001046729891U202100050131401100050131401128/10/20210204    3150038723942196432000001956000001620610000000000000                                                                      CONECTOR MICRO CLAVE LAT-MC100SOB     1
RC0001046729891U202100050131401100050131401128/10/20210204    31500387239421964320000Q1AA7400003911720000000000000                                                            CATETER PERIFE INTROCAN # 24G 4251601-04SOB     1
RC0001046729891U202100050131401100050131401128/10/20210204    3150038723942196432000000602600001259280000000000000                                                             APOSITO TEGADERM IV PD 1610 5CM X 5.7CMSOB     1
RC0001046729891U202100050131401100050131401128/10/20210204    31500387239421964320000E1AD0300000199490000000000000                                         LACTATO RINGER USP (HARTMANN)  SOL INY  BOL X 1000ML BAXTERBIN     1
RC0001046729891U202100050131401100050131401128/10/20210204    3150038723942196432000011137100001419310000000000000                                                               TIRA GLUCOMETRIA FREESTYLE H OPTIUM .PZA     1
