CE0000000122247A202100000027639800000027639828/10/20211221    3190333624042196419000000602000000258640000000000000                                                            APOSITO OPSITE POST OP 4463  6.5CM X 5CMSIN     1
CE0000000122247A202100000027639800000027639828/10/20211221    31903336240421964190000M03AB100001371510000000000000                                                            ADECUAC SUCCINILCOLINA  100mg/mL SOL INYVAL     1
CE0000000122247A202100000027639800000027639828/10/20211221    31903336240421964190000H2BA0100000858520000000000000                                                                DIPROFOS SLN INY 5/2 MG/ML X 1ML /R/CAJ     1
CE0000000122247A202100000027639800000027639828/10/20211221    31903336240421964190000N01B0200003888110000000000000                                           ROXICAINA SE 100MG/10ML(1%) SOL INY CAJ X 24AMPACK X 10MLAPC     1
CE0000000122247A202100000027639800000027639828/10/20211221    3190333624042196419000000901700000602680000000000000                                                                     MASCARA LARINGEA REUSABLE No. 3BIN     1
CE0000000122247A202100000027639800000027639828/10/20211221    31903336240421964190000Q1AA7200000610630000000000000                                                            CATETER PERIFE INTROCAN # 20G 4251644-04SIN     1
CE0000000122247A202100000027639800000027639828/10/20211221    3190333624042196419000049428300000860750000000000000                                                                       VENDA ELASTICA 4*5 NO ESTERILBOL     2
CE0000000122247A202100000027639800000027639828/10/20211221    3190333624042196419000045138000001413890000000000000                                                                       LAPIZ ELECTROBISTURI  SOB X 1SOB     1
CE0000000122247A202100000027639800000027639828/10/20211221    3190333624042196419000012474000000232230000000000000                                                                SUTURA ETHILON 4-0 SC-20 45CM 14502TSIN     1
CE0000000122247A202100000027639800000027639828/10/20211221    3190333624042196419000049419600001679900000000000000                                                                        VENDA ALGODON 4*5 NO ESTERILSOB     1
CE0000000122247A202100000027639800000027639828/10/20211221    3190333624042196419000043879100001138200000000000000                                                                  HOJA BISTURI # 15 CSSB 15 01002003SOB     2
CE0000000122247A202100000027639800000027639828/10/20211221    3190333624042196419000022425200000548240000000000000                       EXTENSION DE ANESTESIA REF 1139 SOB X 1 SHERLEG  ADULTO BN EXENTO-DC.417/2020SIN     1
CE0000000122247A202100000027639800000027639828/10/20211221    3190333624042196419000035356500003919000000000000000                                                                                        LLAVE 3 VIASSOB     1
CE0000000122247A202100000027639800000027639828/10/20211221    3190333624042196419000022426800001140510000000000000                                                                    EQUIPO MACROGOTEO BAXTER MRC0001SOB     1
CE0000000122247A202100000027639800000027639828/10/20211221    3190333624042196419000016830000000970620000000000000                                                             SIST FIJACION CAT PERIFERICO 6.5X7 1683SOB     1
CE0000000122247A202100000027639800000027639828/10/20211221    31903336240421964190000J01DA300001239950000000000000                                                            CEFAZOLINA SODICA POLVO LIOF SLN INY 1 GVAL     2
CE0000000122247A202100000027639800000027639828/10/20211221    3190333624042196419000020750600000296780000000000000                                                                PLACA ELECTRO RETORNO PACIENTE E7506SIN     1
CE0000000122247A202100000027639800000027639828/10/20211221    3190333624042196419000011082700001620070000000000000                                                               EQUIPO SET PRIMARIO C/CLAVE REF 14001BOL     1
CE0000000122247A202100000027639800000027639828/10/20211221    3190333624042196419000053074400000607910000000000000                                                               GASA ESTERIL 10*10 SOBRE X 3 UNIDADESSOB     3
CE0000000122247A202100000027639800000027639828/10/20211221    3190333624042196419000011085300001082140000000000000                                                                           GUANTE QUIRURGICO TALLA 8SOB     2
CE0000000122247A202100000027639800000027639828/10/20211221    3190333624042196419000011085100001082120000000000000                                                                           GUANTE QUIRURGICO TALLA 7SOB     2
CE0000000122247A202100000027639800000027639828/10/20211221    3190333624042196419000043485100001618510000000000000                GUANTE QUIRURGICO DE LATEX REF 2D72N65X CAJ X 50 PROTEXIS  6.5 BN EXENTO-DC.417/2020SOB     2
CE0000000122247A202100000027639800000027639828/10/20211221    3190333624042196419000051515500000598160000000000000                                                                            MASCARILLA ANESTESIA # 5SIN     1
CE0000000122247A202100000027639800000027639828/10/20211221    3190333624042196419000038568100000258050000000000000                                                                         CANULA OXIGENO NASAL ADULTOSIN     1
CE0000000122247A202100000027639800000027639828/10/20211221    3190333624042196419000011099300000777780000000000000                                                                     FILTRO BACTERIANO VIRICO ADULTOBOL     1
CE0000000122247A202100000027639800000027639828/10/20211221    3190333624042196419000031010900000762730000000000000                                                                          CANULA GUEDEL # 4 (100 MM)SOB     1
CE0000000122247A202100000027639800000027639828/10/20211221    3190333624042196419000011047900000223010000000000000                                                                            JERINGA X 1ML REF 302579SIN     1
CE0000000122247A202100000027639800000027639828/10/20211221    3190333624042196419000024673000001411210000000000000                                                                  JERINGA DESECHABLE 3 ML 21 X 1 1/2SOB     2
CE0000000122247A202100000027639800000027639828/10/20211221    3190333624042196419000024674000000220660000000000000                             JERINGA A 3 PARTES CON AGUJA  SOB X 1 RYMCO  10ML BN EXENTO-DC.417/2020SIN     3
CE0000000122247A202100000027639800000027639828/10/20211221    31903336240421964190000E1AB0300003888390000000000000                                                            SOLUCION SALINA 0.9% SLN INY BO X 500 MLBOL     4
CE0000000122247A202100000027639800000027639828/10/20211221    31903336240421964190000E1AB0700003888350000000000000                                                            SOLUCION SALINA 0.9% SLN INY BO X 250 MLBOL     1
CE0000000122247A202100000027639800000027639828/10/20211221    31903336240421964190000E1AB0200000199290000000000000                                                            SOLUCION SALINA 0.9% SLN INY BO X 100 MLBIN     1
CE0000000122247A202100000027639800000027639828/10/20211221    31903336240421964190000A04A1400001467560000000000000                                                                      ONDANSETRON SLN INY 8 MG/ 4 MLVAL     1
CE0000000122247A202100000027639800000027639828/10/20211221    31903336240421964190000N02B1100001169680000000000000                              PARACETAMOL 1000MG/100ML(10MG/ML) SOL INY  VIAL X 100ML FRESENIUS KABIVAL     1
CE0000000122247A202100000027639800000027639828/10/20211221    31903336240421964190000A3BB0200000512940000000000000                                                                          BUSCAPINA SIMPLE Iny 20 mgAMP     1
CE0000000122247A202100000027639800000027639828/10/20211221    31903336240421964190000A2BC0900000200150000000000000                                                                               ORAZOLE Sln Iny 40 mgCIN     1
CE0000000122247A202100000027639800000027639828/10/20211221    31903336240421964190000M1AX0200001569410000000000000                                                                         KETRON SLN INY 30 MG / 2 MLAMP     1
CE0000000122247A202100000027639800000027639828/10/20211221    31903336240421964190000N01A0400003939010000000000000                                               MAYOPROFOL 200MG/20ML(1%) EMUL INY CAJ X 1VIAL X 20MLVAL     1
CE0000000122247A202100000027639800000027639828/10/20211221    31903336240421964190000M01A0400001341250000000000000                                                                              DYNASTAT AMP 40 MG /R/VAL     1
CE0000000122247A202100000027639800000027639828/10/20211221    31903336240421964190000N2BB1100000217160000000000000                                                                      NOVALGINA Sln Iny 2.5 g x 5 mlAMP     1
CE0000000122247A202100000027639800000027639828/10/20211221    31903336240421964190000A4AD0200000202990000000000000                                                                     PLITICAN HCL Sln Iny 50 mg/2 mlAMP     1
CE0000000122247A202100000027639800000027639828/10/20211221    31903336240421964190000H02AB500001664950000000000000                                                            DEXAMETASONA SLN INY 8 MG/2 ML AMP /CDS/AMP     1
CE0000000122247A202100000027639800000027639828/10/20211221    31903336240421964190000N01B1300001195250000000000000                                                                         BUPIROP 0.5% S/EPIN X 10 MLAMP     2
CE0000000122247A202100000027639800000027639828/10/20211221    31903336240421964190000N2AA0700001587170000000000000                                                                                 ULTIVA Sln Iny 2 mgVAL     1
