CC0000008486413U202100000555060900000555060928/10/20210627     330000423942196432000011808300003906600000000000000                                                                MIDAZOLAM SOL INY 50mg/10mL/ VITALISAMP     2
CC0000008486413U202100000555060900000555060928/10/20210628     3300004239421964320000A3BA0100001109400000000000000                                                                          ATROPINA SLN INY 1 MG / MLAMP     4
CC0000008486413U202100000555060900000555060928/10/20210627     3300004239421964320000A3BA0100001109400000000000000                                                                          ATROPINA SLN INY 1 MG / MLAMP     6
CC0000008486413U202100000555060900000555060928/10/20211822     3300004239421964320000V3AB2200000614150000000000000                                                            GLUCONATO CALCIO SLN INY 10% AMP X 10 MLAPC     1
CC0000008486413U202100000555060900000555060928/10/20211821     3300004239421964320000V3AB2200000614150000000000000                                                            GLUCONATO CALCIO SLN INY 10% AMP X 10 MLAPC     1
CC0000008486413U202100000555060900000555060928/10/20212005    31500294239421964320000E1AB0200000199290000000000000                                                            SOLUCION SALINA 0.9% SLN INY BO X 100 MLBIN     1
CC0000008486413U202100000555060900000555060928/10/20210948    31900995239421964320000E1AB0200000199290000000000000                                                            SOLUCION SALINA 0.9% SLN INY BO X 100 MLBIN     2
CC0000008486413U202100000555060900000555060928/10/20210625    31901806239421964320000E1AB0200000199290000000000000                                                            SOLUCION SALINA 0.9% SLN INY BO X 100 MLBIN     2
CC0000008486413U202100000555060900000555060928/10/20210753    31901181239421964320000E1AB0500003888400000000000000                                                              SOLUCION SALINA 0.9% SLN INY X 1000 MLBOL     1
CC0000008486413U202100000555060900000555060928/10/20210625    31901806239421964320000E1AB0500003888400000000000000                                                              SOLUCION SALINA 0.9% SLN INY X 1000 MLBOL     1
CC0000008486413U202100000555060900000555060928/10/20210753    31901181239421964320000E1AD0300000199490000000000000                                         LACTATO RINGER USP (HARTMANN)  SOL INY  BOL X 1000ML BAXTERBIN     2
CC0000008486413U202100000555060900000555060928/10/20211821     3300004239421964320000M03A1000000553280000000000000                                                                     VECURONIO BROMURO SLN INY 10 MGVAL     1
CC0000008486413U202100000555060900000555060928/10/20211125     3300004239421964320000N1AH0200003906560000000000000                                                                     FENTANIL Iny 0.05 mg/ml x 10 mlAMP     2
CC0000008486413U202100000555060900000555060928/10/20211821     3300004239421964320000N5CD0300000218170000000000000                                                                          DORMICUM Sln Iny 5 mg/5 mlAMP     1
CC0000008486413U202100000555060900000555060928/10/20211714     3300004239421964320000N5CD0300000218170000000000000                                                                          DORMICUM Sln Iny 5 mg/5 mlAMP     1
CC0000008486413U202100000555060900000555060928/10/20211822     3300004239421964320000R3CA0100001051880000000000000                                                               ADRENALINA HCL SLN INY 1 MG / ML ECARAMP    15
