TI0001044223160U202100050131404500050131404528/10/20210926    3190118123942196432000024674000000220660000000000000                             JERINGA A 3 PARTES CON AGUJA  SOB X 1 RYMCO  10ML BN EXENTO-DC.417/2020SIN     2
TI0001044223160U202100050131404500050131404528/10/20210926    3190118123942196432000011082700001620070000000000000                                                               EQUIPO SET PRIMARIO C/CLAVE REF 14001BOL     1
TI0001044223160U202100050131404500050131404528/10/20210926    3190118123942196432000001956000001620610000000000000                                                                      CONECTOR MICRO CLAVE LAT-MC100SOB     1
TI0001044223160U202100050131404500050131404528/10/20210926    31901181239421964320000Q1AA7300000610640000000000000                                                            CATETER PERIFE INTROCAN # 22G 4251628-04SIN     1
TI0001044223160U202100050131404500050131404528/10/20210926    3190118123942196432000030936900001431840000000000000                                                                                              BURETABOL     1
TI0001044223160U202100050131404500050131404528/10/20210926    3190118123942196432000016830000000970620000000000000                                                             SIST FIJACION CAT PERIFERICO 6.5X7 1683SOB     1
CC0000045754323U202100050131404500050131404528/10/20210926    3190118123942196432000016830000000970620000000000000                                                             SIST FIJACION CAT PERIFERICO 6.5X7 1683SOB     1
TI0001044223160U202100050131404500050131404528/10/20210926    31901181239421964320000E1AD0200003888320000000000000                                                                              HARTMAN SLN INY 500 MLBOL     1
