CC0000008633435H202100000555064000000555064028/10/20211500    31500206237421964250000A2BC0900000200150000000000000                                                                               ORAZOLE Sln Iny 40 mgCIN     1
CC0000008633435H202100000555064000000555064028/10/20211500    31500206237421964250000A3BB0200000512940000000000000                                                                          BUSCAPINA SIMPLE Iny 20 mgAMP     2
CC0000008633435H202100000555064000000555064028/10/20211500    31500206237421964250000A03A0800001177800000000000000                                                                      COLYPAN SLN INY 50 MG/5 ML /R/AMP     3
CC0000008633435H202100000555064000000555064028/10/20211500    31500206237421964250000A07F0300000547060000000000000                                                              ENTEROGERMINA SUSP ORAL AMP X 5 ML /R/VAL     2
CC0000008633435H202100000555064000000555064028/10/20211500    31500206237421964250000J1DA3100000187510000000000000                                                                           ROCEFIN Polvo SLN INY 1 GCIN     1
CC0000008633435H202100000555064000000555064028/10/20211500    31500206237421964250000N02B1100001169680000000000000                              PARACETAMOL 1000MG/100ML(10MG/ML) SOL INY  VIAL X 100ML FRESENIUS KABIVAL     1
CC0000008633435H202100000555064000000555064028/10/20210817    31500206237421964250000N02B1100001169680000000000000                              PARACETAMOL 1000MG/100ML(10MG/ML) SOL INY  VIAL X 100ML FRESENIUS KABIVAL     4
