CC0000070353436U202100000555078800000555078828/10/20211831    31902171239421964320000E1AB0500003888400000000000000                                                              SOLUCION SALINA 0.9% SLN INY X 1000 MLBOL     1
CC0000070353436U202100000555078800000555078828/10/20211512    31902171239421964320000E1AB0500003888400000000000000                                                              SOLUCION SALINA 0.9% SLN INY X 1000 MLBOL     1
CC0000070353436U202100000555078800000555078828/10/20211449     3300004239421964320000A03BB100003889180000000000000                                      HIOSCINA BUTIL BROMURO 20MG/ML SOL INY CAJ X 100AMP X 1ML RYANAMP     1
CC0000070353436U202100000555078800000555078828/10/20211806     3300004239421964320000J01CR300001659480000000000000                                                                  DELBACTAM POLVO LIOF SLN INY 4.5 GVAL     1
CC0000070353436U202100000555078800000555078828/10/20211806     3300004239421964320000J3CA0300000471830000000000000                                                                METRONIDAZOL SLN INY 500 MG / 100 MLBIN     1
CC0000070353436U202100000555078800000555078828/10/20211449     3300004239421964320000N02BB100000777810000000000000                                                               DIPIRONA MAGNESICA SLN INY 2.5 G/5 MLAMP     1
CC0000070353436U202100000555078800000555078828/10/20211806     3300004239421964320000A02BC700001684270000000000000                                                            OMEPRAZOL 40MG POLVO LIOFILIZADO AMPOLLAVAL     1
