CC0000022361987H202100000555050600000555050628/10/20211019     3300009237421964250000B02AA100001407470000000000000                                                                    CLINTRANEX SLN INY 500 MG / 5 MLAMP     2
CC0000022361987H202100000555050600000555050628/10/20210159     3300009237421964250000B02AA100001407470000000000000                                                                    CLINTRANEX SLN INY 500 MG / 5 MLAMP     8
CC0000022361987H202100000555050600000555050628/10/20211816    31900926237421964250000E1AB0200000199290000000000000                                                            SOLUCION SALINA 0.9% SLN INY BO X 100 MLBIN     8
CC0000022361987H202100000555050600000555050628/10/20211816    31900926237421964250000E1AD0300000199490000000000000                                         LACTATO RINGER USP (HARTMANN)  SOL INY  BOL X 1000ML BAXTERBIN     2
CC0000022361987H202100000555050600000555050628/10/20210728     3300009237421964250000C7AB1000001382030000000000000                                                                   NOREPINEFRINA SLN INY 4 MG / 4 MLAMP     2
CC0000022361987H202100000555050600000555050628/10/20210200     3300009237421964250000C7AB1000001382030000000000000                                                                   NOREPINEFRINA SLN INY 4 MG / 4 MLAMP     1
CC0000022361987H202100000555050600000555050628/10/20210159     3300009237421964250000C7AB1000001382030000000000000                                                                   NOREPINEFRINA SLN INY 4 MG / 4 MLAMP     9
CC0000022361987H202100000555050600000555050628/10/20210729     3300009237421964250000N1AH0200003906560000000000000                                                                     FENTANIL Iny 0.05 mg/ml x 10 mlAMP    10
CC0000022361987H202100000555050600000555050628/10/20210729     3300009237421964250000N5CD0300000218170000000000000                                                                          DORMICUM Sln Iny 5 mg/5 mlAMP    80
CC0000022361987H202100000555050600000555050628/10/20210236     3300009237421964250000N5CD0300000218170000000000000                                                                          DORMICUM Sln Iny 5 mg/5 mlAMP    40
CC0000022361987H202100000555050600000555050628/10/20211810     3300010237421964250000C03C0100001672000000000000000                                                                       FUROSEMIDA SLN INY 20 MG/2 MLAMP     3
CC0000022361987H202100000555050600000555050628/10/20211810     3300010237421964250000J01CR200000947130000000000000                                                              AMPICILINA /SULBACTAN POLVO LIOF 1.5 GAMP     2
CC0000022361987H202100000555050600000555050628/10/20210728     3300009237421964250000J01CR200000947130000000000000                                                              AMPICILINA /SULBACTAN POLVO LIOF 1.5 GAMP     8
CC0000022361987H202100000555050600000555050628/10/20210200     3300009237421964250000A02BC700001684270000000000000                                                            OMEPRAZOL 40MG POLVO LIOFILIZADO AMPOLLAVAL     2
