CC0001144044612H202100000555083400000555083428/10/20211727     3300010237421964250000A2BC0900000200150000000000000                                                                               ORAZOLE Sln Iny 40 mgCIN     1
CC0001144044612H202100000555083400000555083428/10/20211858     3300010237421964250000A03A0800001177800000000000000                                                                      COLYPAN SLN INY 50 MG/5 ML /R/AMP     3
CC0001144044612H202100000555083400000555083428/10/20211858     3300010237421964250000V4AF0700001193810000000000000                                                                   NULYTELY 3350 SOBRE X 110.1 G /R/SOB     4
CC0001144044612H202100000555083400000555083428/10/20211914    31903288237421964250000E1AD0300000199490000000000000                                         LACTATO RINGER USP (HARTMANN)  SOL INY  BOL X 1000ML BAXTERBIN     1
CC0001144044612H202100000555083400000555083428/10/20212120     3300010237421964250000J3CA0200001208130000000000000                                                                      FLAGYL SLN INY 500 MG X 100 MLBOL     2
CC0001144044612H202100000555083400000555083428/10/20211727     3300010237421964250000J3CA0200001208130000000000000                                                                      FLAGYL SLN INY 500 MG X 100 MLBOL     1
CC0001144044612H202100000555083400000555083428/10/20211914    31903288237421964250000V07A1300000502600000000000000                                                                                AGUA ESTERIL x 10 mlAMP     5
