CC0001042970504H202100000555069500000555069528/10/20211025     3300009237421964250000D06AX400001156100000000000000                                                               ACIDO FUSIDICO 2% CREM  TUB X 15GR/V/TUB     1
CC0001042970504H202100000555069500000555069528/10/20211257    31901827237421964250000E1AB0200000199290000000000000                                                            SOLUCION SALINA 0.9% SLN INY BO X 100 MLBIN     8
CC0001042970504H202100000555069500000555069528/10/20211806    31500022237421964250000E1AB0700003888350000000000000                                                            SOLUCION SALINA 0.9% SLN INY BO X 250 MLBOL     1
CC0001042970504H202100000555069500000555069528/10/20211257    31901827237421964250000E1AD0300000199490000000000000                                         LACTATO RINGER USP (HARTMANN)  SOL INY  BOL X 1000ML BAXTERBIN     2
CC0001042970504H202100000555069500000555069528/10/20211247     3300009237421964250000A12BA100000552980000000000000                                                            CLORURO POTASIO Sln Iny AMP 20 MEQ/10 MLAMP     2
CC0001042970504H202100000555069500000555069528/10/20211025     3300009237421964250000A12BA100000552980000000000000                                                            CLORURO POTASIO Sln Iny AMP 20 MEQ/10 MLAMP     1
CC0001042970504H202100000555069500000555069528/10/20211257    31901827237421964250000B5BC0200003889280000000000000                                                                 OSMORIN MANITOL 20 % Bolsa X 500 mlBOL     1
CC0001042970504H202100000555069500000555069528/10/20211303     3300009237421964250000A12CC100001690470000000000000                                                                  MAGNESIO SULFATO 20% SLN INY 10 MLAMP     1
CC0001042970504H202100000555069500000555069528/10/20211025     3300009237421964250000V6DF5300000302770000000000000                                                                        ENSURE PLUS HN LCP X 1000 MLFCO     1
CC0001042970504H202100000555069500000555069528/10/20211510     3300010237421964250000N1AH0200003906560000000000000                                                                     FENTANIL Iny 0.05 mg/ml x 10 mlAMP    10
CC0001042970504H202100000555069500000555069528/10/20211637     3300010237421964250000N5CD0300000218170000000000000                                                                          DORMICUM Sln Iny 5 mg/5 mlAMP    50
CC0001042970504H202100000555069500000555069528/10/20211533     3300010237421964250000N5CD0300000218170000000000000                                                                          DORMICUM Sln Iny 5 mg/5 mlAMP    10
CC0001042970504H202100000555069500000555069528/10/20211025     3300009237421964250000J01CR200000947130000000000000                                                              AMPICILINA /SULBACTAN POLVO LIOF 1.5 GAMP     4
CC0001042970504H202100000555069500000555069528/10/20211025     3300009237421964250000N2BB0100000787510000000000000                                                                    DIPIRONA SODICA Sln Iny 1 g/2 mlAMP     6
CC0001042970504H202100000555069500000555069528/10/20211630     3300010237421964250000N03AB200001168090000000000000                                                                       FENITOINA Sln Iny 250 mg/5 mlAMP     1
CC0001042970504H202100000555069500000555069528/10/20211025     3300009237421964250000N03AB200001168090000000000000                                                                       FENITOINA Sln Iny 250 mg/5 mlAMP     2
CC0001042970504H202100000555069500000555069528/10/20211631     3300010237421964250000N05A1700001278300000000000000                                                                            QUETIAPINA TAB 25 MG /R/TAB     3
CC0001042970504H202100000555069500000555069528/10/20211025     3300009237421964250000A02BC700001684270000000000000                                                            OMEPRAZOL 40MG POLVO LIOFILIZADO AMPOLLAVAL     1
CC0001042970504H202100000555069500000555069528/10/20211257    31901827237421964250000V07A1300000502600000000000000                                                                                AGUA ESTERIL x 10 mlAMP    10
