CC0001143269433H202100000555074500000555074528/10/20211214    31901020237421964250000M01AX300001315860000000000000                                                                         NIMESULIDA 100MG TABLETA/V/TAB     2
CC0001143269433H202100000555074500000555074528/10/20211214    31901020237421964250000A2BC0900000200150000000000000                                                                               ORAZOLE Sln Iny 40 mgCIN     1
CC0001143269433H202100000555074500000555074528/10/20211214    31901020237421964250000A6AC0200001467010000000000000                                                             LACTULAX JARABE 66.7G/100ML SOX15ML /R/SOB     2
CC0001143269433H202100000555074500000555074528/10/20211214    31901020237421964250000A7DA0100001303560000000000000                                                                                 LOPERAMIDA TAB 2 MGTAB     2
CC0001143269433H202100000555074500000555074528/10/20211214    31901020237421964250000B1AB0200003939510000000000000                 ENOXAPARINA SODICA 40MG/0.4ML(100MG/ML) SOL INY INST CAJ X 2JERPREL X 0.4ML TECHDOWJRP     1
CC0001143269433H202100000555074500000555074528/10/20211214    31901020237421964250000C7FA0100001277270000000000000                                                                                     NORVAS TAB 5 MGTAB     3
CC0001143269433H202100000555074500000555074528/10/20211215    31901020237421964250000N02B1100001169680000000000000                              PARACETAMOL 1000MG/100ML(10MG/ML) SOL INY  VIAL X 100ML FRESENIUS KABIVAL     2
CC0001143269433H202100000555074500000555074528/10/20211214    31901020237421964250000C02AC200001559150000000000000                                                                              CLONIDINA TAB 0.150 MGTAB     1
CC0001143269433H202100000555074500000555074528/10/20211214    31901020237421964250000C7AB0100001276990000000000000                                                                            BETOPROLOL TAB 50 MG /R/TAB     2
CC0001143269433H202100000555074500000555074528/10/20211214    31901020237421964250000C08CA200001277660000000000000                                                                                 AMLODIPINO TAB 5 MGTAB     1
CC0001143269433H202100000555074500000555074528/10/20211214    31901020237421964250000J01DD500001239970000000000000                                                                  CEFTRIAXONA POLVO LIOF SLN INY 1 GVAL     4
CC0001143269433H202100000555074500000555074528/10/20211214    31901020237421964250000N2BB0100000787510000000000000                                                                    DIPIRONA SODICA Sln Iny 1 g/2 mlAMP     2
CC0001143269433H202100000555074500000555074528/10/20211214    31901020237421964250000N05A1700001278300000000000000                                                                            QUETIAPINA TAB 25 MG /R/TAB     1
CC0001143269433H202100000555074500000555074528/10/20211214    31901020237421964250000N06AX200001277490000000000000                                                                                 TRAZODONA TAB 50 MGTAB     1
