CC0001143116102U202100050131408000050131408028/10/20211331    3150025823942196432000011082700001620070000000000000                                                               EQUIPO SET PRIMARIO C/CLAVE REF 14001BOL     1
CC0001143116102U202100050131408000050131408028/10/20211331    3150025823942196432000001956000001620610000000000000                                                                      CONECTOR MICRO CLAVE LAT-MC100SOB     1
CC0001143116102U202100050131408000050131408028/10/20211331    31500258239421964320000Q1AA7100000610620000000000000                                                            CATETER PERIFE INTROCAN # 18G 4251687-04SIN     1
CC0001143116102U202100050131408000050131408028/10/20211331    3150025823942196432000016830000000970620000000000000                                                             SIST FIJACION CAT PERIFERICO 6.5X7 1683SOB     1
CC0001143116102U202100050131408000050131408028/10/20211331    31500258239421964320000E1AB0200000199290000000000000                                                            SOLUCION SALINA 0.9% SLN INY BO X 100 MLBIN     1
