CC0000007469257H202100015052702200015052702228/10/20212224    3150036323742196425000011082900001233450000000000000                                                               EQUIPO LC 5000 PRIMARIO FOTOPRO 0L218SOB     1
RC0001046723141H202100015052702200015052702228/10/20212224    3150036323742196425000011082900001233450000000000000                                                               EQUIPO LC 5000 PRIMARIO FOTOPRO 0L218SOB     1
CE0000V28051252H202100015052702200015052702228/10/20212224    3150036323742196425000011082900001233450000000000000                                                               EQUIPO LC 5000 PRIMARIO FOTOPRO 0L218SOB     1
TI0001042848386H202100015052702200015052702228/10/20212224    3150036323742196425000011082900001233450000000000000                                                               EQUIPO LC 5000 PRIMARIO FOTOPRO 0L218SOB     1
CE0000V28051252H202100015052702200015052702228/10/20212224    3150036323742196425000030936900001431840000000000000                                                                                              BURETABOL     1
TI0001042848386H202100015052702200015052702228/10/20212224    3150036323742196425000030936900001431840000000000000                                                                                              BURETABOL     1
RC0001046723141H202100015052702200015052702228/10/20212224    31500363237421964250000E1AB1100003888280000000000000                                                                        SOLUCION SALINA 0.9% X 50 mlBOL     1
TI0001042848386H202100015052702200015052702228/10/20212224    31500363237421964250000E1AB1100003888280000000000000                                                                        SOLUCION SALINA 0.9% X 50 mlBOL     2
