CE0000V28051252H202100914391102800914391102828/10/20210039    3150038323742196425000016830000000970620000000000000                                                             SIST FIJACION CAT PERIFERICO 6.5X7 1683SOB     1
CE0000V28051252H202100914391102800914391102828/10/20210039    31500383237421964250000Q1AA7300000610640000000000000                                                            CATETER PERIFE INTROCAN # 22G 4251628-04SIN     1
CE0000V28051252H202100914391102800914391102828/10/20210039    3150038323742196425000001956000001620610000000000000                                                                      CONECTOR MICRO CLAVE LAT-MC100SOB     1
