CC0000000861447U202100000555080000000555080028/10/20211541    31901010239421964320000E1AD0300000199490000000000000                                         LACTATO RINGER USP (HARTMANN)  SOL INY  BOL X 1000ML BAXTERBIN     1
CC0000000861447U202100000555080000000555080028/10/20212128     3300004239421964320000C09CA400001277130000000000000                                                                                  LOSARTAN TAB 50 MGTAB     1
CC0000000861447U202100000555080000000555080028/10/20211542     3300004239421964320000A02BC700001684270000000000000                                                            OMEPRAZOL 40MG POLVO LIOFILIZADO AMPOLLAVAL     1
