RC0001048091952H202100015132503100015132503128/10/20211016    3190311723742196425000001956000001620610000000000000                                                                      CONECTOR MICRO CLAVE LAT-MC100SOB     1
RC0001048091952H202100015132503100015132503128/10/20211016    31903117237421964250000Q1AA7400003911720000000000000                                                            CATETER PERIFE INTROCAN # 24G 4251601-04SOB     2
RC0001048091952H202100015132503100015132503128/10/20211016    3190311723742196425000000602600001259280000000000000                                                             APOSITO TEGADERM IV PD 1610 5CM X 5.7CMSOB     1
RC0001048091952H202100015132503100015132503128/10/20211016    31903117237421964250000E1AB0200000199290000000000000                                                            SOLUCION SALINA 0.9% SLN INY BO X 100 MLBIN     1
