CC0001144044612H202100015022523600015022523628/10/20211731    31903288237421964250000V07A1300000502600000000000000                                                                                AGUA ESTERIL x 10 mlAMP     5
CC0000022647568H202100015022523600015022523628/10/20211731    31903288237421964250000V07A1300000502600000000000000                                                                                AGUA ESTERIL x 10 mlAMP    10
CC0001129569793H202100015022523600015022523628/10/20211731    31903288237421964250000V07A1300000502600000000000000                                                                                AGUA ESTERIL x 10 mlAMP    10
CC0001144044612H202100015022523600015022523628/10/20211731    3190328823742196425000024674000000220660000000000000                             JERINGA A 3 PARTES CON AGUJA  SOB X 1 RYMCO  10ML BN EXENTO-DC.417/2020SIN     8
CC0000022647568H202100015022523600015022523628/10/20211731    3190328823742196425000024674000000220660000000000000                             JERINGA A 3 PARTES CON AGUJA  SOB X 1 RYMCO  10ML BN EXENTO-DC.417/2020SIN    10
CC0001129569793H202100015022523600015022523628/10/20211731    3190328823742196425000024674000000220660000000000000                             JERINGA A 3 PARTES CON AGUJA  SOB X 1 RYMCO  10ML BN EXENTO-DC.417/2020SIN    10
CC0000036724804H202100015022523600015022523628/10/20211731    3190328823742196425000022426800001140510000000000000                                                                    EQUIPO MACROGOTEO BAXTER MRC0001SOB     1
CC0000022647568H202100015022523600015022523628/10/20211731    3190328823742196425000022426800001140510000000000000                                                                    EQUIPO MACROGOTEO BAXTER MRC0001SOB     1
CC0001129569793H202100015022523600015022523628/10/20211731    3190328823742196425000022426800001140510000000000000                                                                    EQUIPO MACROGOTEO BAXTER MRC0001SOB     1
CC0000022647568H202100015022523600015022523628/10/20211731    3190328823742196425000030936900001431840000000000000                                                                                              BURETABOL     1
CC0001129569793H202100015022523600015022523628/10/20211731    3190328823742196425000030936900001431840000000000000                                                                                              BURETABOL     1
CC0001144044612H202100015022523600015022523628/10/20211731    31903288237421964250000E1AD0300000199490000000000000                                         LACTATO RINGER USP (HARTMANN)  SOL INY  BOL X 1000ML BAXTERBIN     1
CC0001129569793H202100015022523600015022523628/10/20211731    31903288237421964250000E1AD0300000199490000000000000                                         LACTATO RINGER USP (HARTMANN)  SOL INY  BOL X 1000ML BAXTERBIN     1
