CC0000053134277H202100000555060000000555060028/10/20210549     3300009237421964250000A4AD0200000202990000000000000                                                                     PLITICAN HCL Sln Iny 50 mg/2 mlAMP     1
CC0000053134277H202100000555060000000555060028/10/20210549     3300009237421964250000A03A0800001177800000000000000                                                                      COLYPAN SLN INY 50 MG/5 ML /R/AMP     1
CC0000053134277H202100000555060000000555060028/10/20210549     3300009237421964250000B1AB0200003939510000000000000                 ENOXAPARINA SODICA 40MG/0.4ML(100MG/ML) SOL INY INST CAJ X 2JERPREL X 0.4ML TECHDOWJRP     1
CC0000053134277H202100000555060000000555060028/10/20210549     3300009237421964250000M1AB0900001019600000000000000                                                                              VOLTAREN Sln Iny 75 mgAMP     1
CC0000053134277H202100000555060000000555060028/10/20210549     3300009237421964250000N02B1100001169680000000000000                              PARACETAMOL 1000MG/100ML(10MG/ML) SOL INY  VIAL X 100ML FRESENIUS KABIVAL     2
CC0000053134277H202100000555060000000555060028/10/20210932    31903053237421964250000V07A1300000502600000000000000                                                                                AGUA ESTERIL x 10 mlAMP     5
