RC0001048089059H202100000555049800000555049828/10/20211429     3300010237421964250000A2BC0900000200150000000000000                                                                               ORAZOLE Sln Iny 40 mgCIN     1
RC0001048089059H202100000555049800000555049828/10/20211418    31903310237421964250000E1AC0100000199400000000000000                                                                          SUERO MIXTO Sln Iny 500 mlBIN     2
RC0001048089059H202100000555049800000555049828/10/20211429     3300010237421964250000S2BA0200000468180000000000000                                                                   SOLU-MEDROL SLN INY 40 MG/ML  /R/VAL     1
RC0001048089059H202100000555049800000555049828/10/20211012     3300009237421964250000S2BA0200000468180000000000000                                                                   SOLU-MEDROL SLN INY 40 MG/ML  /R/VAL     2
RC0001048089059H202100000555049800000555049828/10/20210545     3300009237421964250000J1CB0600000468340000000000000                                                           UNASYN IM-IV (1+0.5)GR POLV INY INST VIALVAL     3
RC0001048089059H202100000555049800000555049828/10/20210957     3300010237421964250000J1DA3100000187510000000000000                                                                           ROCEFIN Polvo SLN INY 1 GCIN     1
RC0001048089059H202100000555049800000555049828/10/20210956     3300010237421964250000J1DA3100000187510000000000000                                                                           ROCEFIN Polvo SLN INY 1 GCIN     1
RC0001048089059H202100000555049800000555049828/10/20210956     3300010237421964250000M01A2500001457560000000000000                                                             ADVIL CHILDREN 100 MG/5 ML X 100 ML /R/FCO     1
RC0001048089059H202100000555049800000555049828/10/20210109     3300009237421964250000N02B1100001169680000000000000                              PARACETAMOL 1000MG/100ML(10MG/ML) SOL INY  VIAL X 100ML FRESENIUS KABIVAL     1
RC0001048089059H202100000555049800000555049828/10/20210800     3300009237421964250000R03AK100000827400000000000000                                                            BERODUAL INH ORAL 20/50 MCG/DOX200DO /R/FCO     1
RC0001048089059H202100000555049800000555049828/10/20210933    31903053237421964250000V07A1300000502600000000000000                                                                                AGUA ESTERIL x 10 mlAMP     5
