CC0001127234783H202100000555076800000555076828/10/20211349     3300010237421964250000A4AD0200000202990000000000000                                                                     PLITICAN HCL Sln Iny 50 mg/2 mlAMP     3
CC0001127234783H202100000555076800000555076828/10/20211349     3300010237421964250000M01A0400001341250000000000000                                                                              DYNASTAT AMP 40 MG /R/VAL     3
CC0001127234783H202100000555076800000555076828/10/20211349     3300010237421964250000N02B1100001169680000000000000                              PARACETAMOL 1000MG/100ML(10MG/ML) SOL INY  VIAL X 100ML FRESENIUS KABIVAL     3
CC0001127234783H202100000555076800000555076828/10/20212152     3300010237421964250000H1BB0200003888510000000000000                                                                         OXITOCINA SLN INY 10 UI /MLAMP     2
