RC0001043711220H202100015052701500015052701528/10/20211742    3150014823742196425000011082700001620070000000000000                                                               EQUIPO SET PRIMARIO C/CLAVE REF 14001BOL     1
CC0001045685077H202100015052701500015052701528/10/20211742    3150014823742196425000011082700001620070000000000000                                                               EQUIPO SET PRIMARIO C/CLAVE REF 14001BOL     1
RC0001043711220H202100015052701500015052701528/10/20211742    3150014823742196425000030936900001431840000000000000                                                                                              BURETABOL     1
CC0001045685077H202100015052701500015052701528/10/20211742    3150014823742196425000030936900001431840000000000000                                                                                              BURETABOL     1
