TI0001146537318H202100000555056000000555056028/10/20211035     3300009237421964250000A2BC0900000200150000000000000                                                                               ORAZOLE Sln Iny 40 mgCIN     1
TI0001146537318H202100000555056000000555056028/10/20210456     3300009237421964250000A2BC0900000200150000000000000                                                                               ORAZOLE Sln Iny 40 mgCIN     1
TI0001146537318H202100000555056000000555056028/10/20210642    31901668237421964250000E1AD0300000199490000000000000                                         LACTATO RINGER USP (HARTMANN)  SOL INY  BOL X 1000ML BAXTERBIN     3
TI0001146537318H202100000555056000000555056028/10/20210457     3300009237421964250000N2BE1100001156170000000000000                                                              ACETAMINOFEN JBE 150 MG / 5 ML X 60 MLFCO     1
TI0001146537318H202100000555056000000555056028/10/20211144    31500453237421964250000V07A1300000502600000000000000                                                                                AGUA ESTERIL x 10 mlAMP     5
