TI0001084454864H202100000555069900000555069928/10/20212230     3300010237421964250000A04A1400001467560000000000000                                                                      ONDANSETRON SLN INY 8 MG/ 4 MLVAL     1
TI0001084454864H202100000555069900000555069928/10/20211635     3300010237421964250000A04A1400001467560000000000000                                                                      ONDANSETRON SLN INY 8 MG/ 4 MLVAL     2
TI0001084454864H202100000555069900000555069928/10/20211809    31902056237421964250000E1AB1100003888280000000000000                                                                        SOLUCION SALINA 0.9% X 50 mlBOL     2
TI0001084454864H202100000555069900000555069928/10/20211536    31901484237421964250000E1AB1100003888280000000000000                                                                        SOLUCION SALINA 0.9% X 50 mlBOL     4
TI0001084454864H202100000555069900000555069928/10/20211809    31902056237421964250000E1AB0700003888350000000000000                                                            SOLUCION SALINA 0.9% SLN INY BO X 250 MLBOL     2
TI0001084454864H202100000555069900000555069928/10/20211537    31903288237421964250000E1AB0300003888390000000000000                                                            SOLUCION SALINA 0.9% SLN INY BO X 500 MLBOL     1
TI0001084454864H202100000555069900000555069928/10/20211536    31901484237421964250000B05B1400001012740000000000000                                                                SOLUCION SALINA 0.45% Sln Iny 500 mlBOL     2
TI0001084454864H202100000555069900000555069928/10/20211058     3300009237421964250000L01DC300001692450000000000000                                                                          BLOMINDEX POLVO LIOF 15 UIVAL     1
TI0001084454864H202100000555069900000555069928/10/20211059     3300009237421964250000L1BC5600003888760000000000000                                                      DETIMEDAC 200MG POLV INY CAJ X 10VIAL ALPHARMAVAL     2
TI0001084454864H202100000555069900000555069928/10/20211059     3300009237421964250000L01CA100001180410000000000000                                                             VINBLASTINA SULFATO SLN Iny 10 mg/10 MLVAL     1
TI0001084454864H202100000555069900000555069928/10/20211059     3300009237421964250000L1BC0400001259210000000000000                                                               DOXORUBICINA SLN INY 50 MG/ 25 ML /R/FCO     1
TI0001084454864H202100000555069900000555069928/10/20211059     3300009237421964250000N1BA3500000217940000000000000                                                                               ANESTECIN Crema x 5 gTUB     1
TI0001084454864H202100000555069900000555069928/10/20211635     3300010237421964250000H02AB700000585860000000000000                                                                HIDROCORTISONA SUCCI POL LIOF 100 MGVAL     2
TI0001084454864H202100000555069900000555069928/10/20211635     3300010237421964250000R3CA0100001051880000000000000                                                               ADRENALINA HCL SLN INY 1 MG / ML ECARAMP     1
