CC0000022328269H202100000555069100000555069128/10/20211024     3300009237421964250000A2BX0100001277280000000000000                                                                                ALSUCRAL TAB 1 G /R/TAB     3
CC0000022328269H202100000555069100000555069128/10/20211255    31901827237421964250000E1AB0200000199290000000000000                                                            SOLUCION SALINA 0.9% SLN INY BO X 100 MLBIN     8
CC0000022328269H202100000555069100000555069128/10/20211806    31500022237421964250000E1AB0700003888350000000000000                                                            SOLUCION SALINA 0.9% SLN INY BO X 250 MLBOL     1
CC0000022328269H202100000555069100000555069128/10/20211255    31901827237421964250000E1AD0300000199490000000000000                                         LACTATO RINGER USP (HARTMANN)  SOL INY  BOL X 1000ML BAXTERBIN     2
CC0000022328269H202100000555069100000555069128/10/20211024     3300009237421964250000C7AB1000001382030000000000000                                                                   NOREPINEFRINA SLN INY 4 MG / 4 MLAMP    10
CC0000022328269H202100000555069100000555069128/10/20211021     3300009237421964250000C03DA100001334730000000000000                                                                      INSPRA TAB RECUBIERTA 25MG /R/TAB     1
CC0000022328269H202100000555069100000555069128/10/20211023     3300009237421964250000J01XA400001212420000000000000                                                               VANCOMICINA POLVO LIOF SLN INY 500 MGVAL     4
CC0000022328269H202100000555069100000555069128/10/20211118     3300009237421964250000J02A0200000191070000000000000                                                            CANCIDAS POLVO LIOF SLN INY AMP 50MG /R/VAL     1
CC0000022328269H202100000555069100000555069128/10/20211118     3300009237421964250000J02A0300000191080000000000000                                                              CANCIDAS POLVO LIOF SLN INY 70 MG  /R/VAL     1
CC0000022328269H202100000555069100000555069128/10/20211509     3300010237421964250000N1AH0200003906560000000000000                                                                     FENTANIL Iny 0.05 mg/ml x 10 mlAMP    10
CC0000022328269H202100000555069100000555069128/10/20211638     3300010237421964250000N5CD0300000218170000000000000                                                                          DORMICUM Sln Iny 5 mg/5 mlAMP    50
CC0000022328269H202100000555069100000555069128/10/20211532     3300010237421964250000N5CD0300000218170000000000000                                                                          DORMICUM Sln Iny 5 mg/5 mlAMP    10
CC0000022328269H202100000555069100000555069128/10/20211217     3300009237421964250000H02AB700000585860000000000000                                                                HIDROCORTISONA SUCCI POL LIOF 100 MGVAL     2
CC0000022328269H202100000555069100000555069128/10/20211021     3300009237421964250000C10AA500001314010000000000000                                                                             ATORVASTATINA TAB 40 MGTAB     1
CC0000022328269H202100000555069100000555069128/10/20211021     3300009237421964250000J01DH400001317770000000000000                                                                MEROPENEM POLVO LIOF SLN INY 1 G /R/CAJ     3
CC0000022328269H202100000555069100000555069128/10/20211217     3300009237421964250000R03BB300001364640000000000000                                                            BROMURO IPRATROPIO INH ORAL 20 MCG/DO /RFCO     1
CC0000022328269H202100000555069100000555069128/10/20211255    31901827237421964250000V07A1300000502600000000000000                                                                                AGUA ESTERIL x 10 mlAMP    10
