RC0001158467183H202100000555047000000555047028/10/20210004    31500383237421964250000E1AD0300000199490000000000000                                         LACTATO RINGER USP (HARTMANN)  SOL INY  BOL X 1000ML BAXTERBIN     1
RC0001158467183H202100000555047000000555047028/10/20212321     3300010237421964250000A06A1700001333140000000000000                                                                                 BISACODILO TAB 5 MGTAB     1
RC0001158467183H202100000555047000000555047028/10/20211452     3300010237421964250000B02BA100000561560000000000000                                                                           VITAMINA K1 SLN INY 10 MGAMP     1
RC0001158467183H202100000555047000000555047028/10/20210817     3300009237421964250000B02BA100000561560000000000000                                                                           VITAMINA K1 SLN INY 10 MGAMP     1
RC0001158467183H202100000555047000000555047028/10/20210235     3300009237421964250000B02BA100000561560000000000000                                                                           VITAMINA K1 SLN INY 10 MGAMP     2
RC0001158467183H202100000555047000000555047028/10/20211452     3300010237421964250000J01CR300001659480000000000000                                                                  DELBACTAM POLVO LIOF SLN INY 4.5 GVAL     1
RC0001158467183H202100000555047000000555047028/10/20210231     3300009237421964250000J01CR300001659480000000000000                                                                  DELBACTAM POLVO LIOF SLN INY 4.5 GVAL     2
RC0001158467183H202100000555047000000555047028/10/20210817     3300009237421964250000N2BB0100000787510000000000000                                                                    DIPIRONA SODICA Sln Iny 1 g/2 mlAMP     1
RC0001158467183H202100000555047000000555047028/10/20210817     3300009237421964250000A02BC700001684270000000000000                                                            OMEPRAZOL 40MG POLVO LIOFILIZADO AMPOLLAVAL     1
RC0001158467183H202100000555047000000555047028/10/20211046    31903301237421964250000V07A1300000502600000000000000                                                                                AGUA ESTERIL x 10 mlAMP     4
