TI0001042265795H202100000555053000000555053028/10/20211553     3300010237421964250000A04A1400001467560000000000000                                                                      ONDANSETRON SLN INY 8 MG/ 4 MLVAL     2
TI0001042265795H202100000555053000000555053028/10/20211428    31500213237421964250000E1AA0800000322190000000000000                                                                          DEXTROSA 5% Sln Iny 250 mlBIN     6
TI0001042265795H202100000555053000000555053028/10/20210253    31500082237421964250000E1AA0800000322190000000000000                                                                          DEXTROSA 5% Sln Iny 250 mlBIN     6
TI0001042265795H202100000555053000000555053028/10/20212348     3300010237421964250000A12CA200001239800000000000000                     BICARBONATO SODIO 10MEQ/10ML(1MEQ/ML) SOL INY  CAJ X 100AMPX10ML FRESENIUS KABIAMP     6
TI0001042265795H202100000555053000000555053028/10/20212347     3300010237421964250000A12CA100001109460000000000000                                                              CLORURO SODIO SLN INY 2 MEQ/ML X 10 MLAMP     2
TI0001042265795H202100000555053000000555053028/10/20211552     3300010237421964250000A12CA100001109460000000000000                                                              CLORURO SODIO SLN INY 2 MEQ/ML X 10 MLAMP     1
TI0001042265795H202100000555053000000555053028/10/20211553     3300010237421964250000L1BC8600000553170000000000000                                                                  FOLINATO CALCIO SLN INY 50 MG/5 MLVAL     3
TI0001042265795H202100000555053000000555053028/10/20211428    31500213237421964250000V07A1300000502600000000000000                                                                                AGUA ESTERIL x 10 mlAMP     8
