TI0001048074915U202100050131406800050131406828/10/20211224    3190118123942196432000024674000000220660000000000000                             JERINGA A 3 PARTES CON AGUJA  SOB X 1 RYMCO  10ML BN EXENTO-DC.417/2020SIN     3
TI0001048074915U202100050131406800050131406828/10/20211224    3190118123942196432000001956000001620610000000000000                                                                      CONECTOR MICRO CLAVE LAT-MC100SOB     1
TI0001048074915U202100050131406800050131406828/10/20211224    31901181239421964320000Q1AA7300000610640000000000000                                                            CATETER PERIFE INTROCAN # 22G 4251628-04SIN     1
TI0001048074915U202100050131406800050131406828/10/20211224    3190118123942196432000030936900001431840000000000000                                                                                              BURETABOL     1
TI0001048074915U202100050131406800050131406828/10/20211224    3190118123942196432000016830000000970620000000000000                                                             SIST FIJACION CAT PERIFERICO 6.5X7 1683SOB     1
TI0001048074915U202100050131406800050131406828/10/20211224    31901181239421964320000E1AD0300000199490000000000000                                         LACTATO RINGER USP (HARTMANN)  SOL INY  BOL X 1000ML BAXTERBIN     1
