CC0000072248781H202100000555054100000555054128/10/20212039     3300010237421964250000A03F0300001626860000000000000                                                                   METOCLOPRAMIDA SLN INY 10 MG/2 MLAMP     2
CC0000072248781H202100000555054100000555054128/10/20210839     3300009237421964250000V4AF0700001193810000000000000                                                                   NULYTELY 3350 SOBRE X 110.1 G /R/SOB     1
CC0000072248781H202100000555054100000555054128/10/20210839     3300009237421964250000A06A1000001107070000000000000                                                                          TRAVAD SLN ORAL 133 ML /R/FCO     1
CC0000072248781H202100000555054100000555054128/10/20212039     3300010237421964250000V3AB2200000614150000000000000                                                            GLUCONATO CALCIO SLN INY 10% AMP X 10 MLAPC     2
CC0000072248781H202100000555054100000555054128/10/20211806    31500272237421964250000E1AD0300000199490000000000000                                         LACTATO RINGER USP (HARTMANN)  SOL INY  BOL X 1000ML BAXTERBIN     1
CC0000072248781H202100000555054100000555054128/10/20210812    31903303237421964250000E1AD0300000199490000000000000                                         LACTATO RINGER USP (HARTMANN)  SOL INY  BOL X 1000ML BAXTERBIN     2
CC0000072248781H202100000555054100000555054128/10/20212039     3300010237421964250000A12CC100001690470000000000000                                                                  MAGNESIO SULFATO 20% SLN INY 10 MLAMP     1
CC0000072248781H202100000555054100000555054128/10/20212039     3300010237421964250000J01CR200000947130000000000000                                                              AMPICILINA /SULBACTAN POLVO LIOF 1.5 GAMP     1
CC0000072248781H202100000555054100000555054128/10/20212038     3300010237421964250000J01CR200000947130000000000000                                                              AMPICILINA /SULBACTAN POLVO LIOF 1.5 GAMP     3
CC0000072248781H202100000555054100000555054128/10/20212039     3300010237421964250000N2BB0100000787510000000000000                                                                    DIPIRONA SODICA Sln Iny 1 g/2 mlAMP     2
CC0000072248781H202100000555054100000555054128/10/20210839     3300009237421964250000A02BC700001684270000000000000                                                            OMEPRAZOL 40MG POLVO LIOFILIZADO AMPOLLAVAL     1
CC0000072248781H202100000555054100000555054128/10/20210255     3300009237421964250000A02BC700001684270000000000000                                                            OMEPRAZOL 40MG POLVO LIOFILIZADO AMPOLLAVAL     1
CC0000072248781H202100000555054100000555054128/10/20211747    31903254237421964250000V07A1300000502600000000000000                                                                                AGUA ESTERIL x 10 mlAMP     4
