CC0001002182810H202100015112650500015112650528/10/20210821    31902703237421964250000V07A1300000502600000000000000                                                                                AGUA ESTERIL x 10 mlAMP    10
CC0001045684571H202100015112650500015112650528/10/20210821    31902703237421964250000V07A1300000502600000000000000                                                                                AGUA ESTERIL x 10 mlAMP    10
CC0000077185534H202100015112650500015112650528/10/20210821    31902703237421964250000V07A1300000502600000000000000                                                                                AGUA ESTERIL x 10 mlAMP    10
CC0001002182810H202100015112650500015112650528/10/20210821    3190270323742196425000045136100001419300000000000000                                                                            LANCETA DEXTROMETER X UNPZA     3
CC0001045684571H202100015112650500015112650528/10/20210821    3190270323742196425000045136100001419300000000000000                                                                            LANCETA DEXTROMETER X UNPZA     3
CC0000077185534H202100015112650500015112650528/10/20210821    3190270323742196425000045136100001419300000000000000                                                                            LANCETA DEXTROMETER X UNPZA     3
CC0001002182810H202100015112650500015112650528/10/20210821    3190270323742196425000024674000000220660000000000000                             JERINGA A 3 PARTES CON AGUJA  SOB X 1 RYMCO  10ML BN EXENTO-DC.417/2020SIN    10
CC0001045684571H202100015112650500015112650528/10/20210821    3190270323742196425000024674000000220660000000000000                             JERINGA A 3 PARTES CON AGUJA  SOB X 1 RYMCO  10ML BN EXENTO-DC.417/2020SIN    10
CC0000077185534H202100015112650500015112650528/10/20210821    3190270323742196425000024674000000220660000000000000                             JERINGA A 3 PARTES CON AGUJA  SOB X 1 RYMCO  10ML BN EXENTO-DC.417/2020SIN    10
CC0001045684571H202100015112650500015112650528/10/20210821    3190270323742196425000011047900000223010000000000000                                                                            JERINGA X 1ML REF 302579SIN     5
CC0000077185534H202100015112650500015112650528/10/20210821    3190270323742196425000011047900000223010000000000000                                                                            JERINGA X 1ML REF 302579SIN     5
CC0001002182810H202100015112650500015112650528/10/20210821    3190270323742196425000020056600001101530000000000000                                                                AGUJA HIPODERMICA DESECH 18G X 1 1/2SOB    10
CC0001045684571H202100015112650500015112650528/10/20210821    3190270323742196425000020056600001101530000000000000                                                                AGUJA HIPODERMICA DESECH 18G X 1 1/2SOB    10
CC0000077185534H202100015112650500015112650528/10/20210821    3190270323742196425000020056600001101530000000000000                                                                AGUJA HIPODERMICA DESECH 18G X 1 1/2SOB    10
CC0001045684571H202100015112650500015112650528/10/20210821    31902703237421964250000E1AD0300000199490000000000000                                         LACTATO RINGER USP (HARTMANN)  SOL INY  BOL X 1000ML BAXTERBIN     1
CC0001002182810H202100015112650500015112650528/10/20210821    31902703237421964250000E1AB0500003888400000000000000                                                              SOLUCION SALINA 0.9% SLN INY X 1000 MLBOL     1
CC0001002182810H202100015112650500015112650528/10/20210821    31902703237421964250000E1AB0200000199290000000000000                                                            SOLUCION SALINA 0.9% SLN INY BO X 100 MLBIN     5
CC0001045684571H202100015112650500015112650528/10/20210821    31902703237421964250000E1AB0200000199290000000000000                                                            SOLUCION SALINA 0.9% SLN INY BO X 100 MLBIN    10
