RC0001042275761A202100000027636600000027636628/10/20210934    3190333624042196419000043879400001138170000000000000                                                                  HOJA BISTURI # 10 CSSB 10 01002000SOB     2
RC0001042275761A202100000027636600000027636628/10/20210934    3190333624042196419000029958600000879890000000000000                                                                              PDS 6-0 2C1 75 PDP127HSOB     1
RC0001042275761A202100000027636600000027636628/10/20210934    31903336240421964190000N01B0200003888110000000000000                                           ROXICAINA SE 100MG/10ML(1%) SOL INY CAJ X 24AMPACK X 10MLAPC     1
RC0001042275761A202100000027636600000027636628/10/20210934    3190333624042196419000024672100001609890000000000000                                                            JERINGA INSULINA 1ML TAPA NARANJA JEI013SOB     1
RC0001042275761A202100000027636600000027636628/10/20210934    31903336240421964190000D03A0300000213220000000000000                                                                        FITOSTIMOLINE CREMA 15% 32 GTUB     1
RC0001042275761A202100000027636600000027636628/10/20210934    3190333624042196419000045138000001413890000000000000                                                                       LAPIZ ELECTROBISTURI  SOB X 1SOB     1
RC0001042275761A202100000027636600000027636628/10/20210934    3190333624042196419000043879100001138200000000000000                                                                  HOJA BISTURI # 15 CSSB 15 01002003SOB     1
RC0001042275761A202100000027636600000027636628/10/20210934    3190333624042196419000029958500000659240000000000000                                                                               PDS 5-0 2RB1 75 Z320HSOB     1
RC0001042275761A202100000027636600000027636628/10/20210934    3190333624042196419000020750700000576830000000000000                                                                 PLACA QUIRURGICA  NEONATO REF E7512SIN     1
RC0001042275761A202100000027636600000027636628/10/20210934    3190333624042196419000024673600000222980000000000000                                                                     JERINGA DESECHABLE 5 ml 27*11/2SIN     1
RC0001042275761A202100000027636600000027636628/10/20210934    3190333624042196419000024674000000220660000000000000                             JERINGA A 3 PARTES CON AGUJA  SOB X 1 RYMCO  10ML BN EXENTO-DC.417/2020SIN     3
RC0001042275761A202100000027636600000027636628/10/20210934    3190333624042196419000053074400000607910000000000000                                                               GASA ESTERIL 10*10 SOBRE X 3 UNIDADESSOB     3
RC0001042275761A202100000027636600000027636628/10/20210934    3190333624042196419000011085300001082140000000000000                                                                           GUANTE QUIRURGICO TALLA 8SOB     1
RC0001042275761A202100000027636600000027636628/10/20210934    3190333624042196419000011085200001585390000000000000                                                                       GUANTE QUIRURGICO TALLA 7 1/2SOB     3
RC0001042275761A202100000027636600000027636628/10/20210934    3190333624042196419000011085100001082120000000000000                                                                           GUANTE QUIRURGICO TALLA 7SOB     1
RC0001042275761A202100000027636600000027636628/10/20210934    3190333624042196419000043485100001618510000000000000                GUANTE QUIRURGICO DE LATEX REF 2D72N65X CAJ X 50 PROTEXIS  6.5 BN EXENTO-DC.417/2020SOB     1
RC0001042275761A202100000027636600000027636628/10/20210934    3190333624042196419000031011200001012590000000000000                                                                           CANULA GUEDEL # 1 (70 MM)SOB     1
RC0001042275761A202100000027636600000027636628/10/20210934    3190333624042196419000051515100000598120000000000000                                                                            MASCARILLA ANESTESIA # 1SIN     1
RC0001042275761A202100000027636600000027636628/10/20210934    3190333624042196419000011099300000777780000000000000                                                                     FILTRO BACTERIANO VIRICO ADULTOBOL     1
RC0001042275761A202100000027636600000027636628/10/20210934    31903336240421964190000E1AB0200000199290000000000000                                                            SOLUCION SALINA 0.9% SLN INY BO X 100 MLBIN     2
RC0001042275761A202100000027636600000027636628/10/20210934    31903336240421964190000H02AB500001664950000000000000                                                            DEXAMETASONA SLN INY 8 MG/2 ML AMP /CDS/AMP     1
RC0001042275761A202100000027636600000027636628/10/20210934    31903336240421964190000A3BA0100001109400000000000000                                                                          ATROPINA SLN INY 1 MG / MLAMP     1
RC0001042275761A202100000027636600000027636628/10/20210934    31903336240421964190000E1AB0700003888350000000000000                                                            SOLUCION SALINA 0.9% SLN INY BO X 250 MLBOL     1
RC0001042275761A202100000027636600000027636628/10/20210934    3190333624042196419000022425100001392880000000000000             EQUIPO MICROGOTEO SIN AGUJA REF 201000 PAQ X 100 SOB GOTHAPLAST   BN EXENTO-DC.417/2020BOL     1
RC0001042275761A202100000027636600000027636628/10/20210934    3190333624042196419000035356500003919000000000000000                                                                                        LLAVE 3 VIASSOB     1
RC0001042275761A202100000027636600000027636628/10/20210934    31903336240421964190000Q1AA7300000610640000000000000                                                            CATETER PERIFE INTROCAN # 22G 4251628-04SIN     1
RC0001042275761A202100000027636600000027636628/10/20210934    31903336240421964190000J01DA300001239950000000000000                                                            CEFAZOLINA SODICA POLVO LIOF SLN INY 1 GVAL     1
