NV0000169306826H202100015132502800015132502828/10/20210224    3190145223742196425000038569500000994340000000000000                                                             SONDA FOLEY 2 VIAS 6F MA-220603 UROTECHSOB     1
NV0000169306826H202100015132502800015132502828/10/20210224    3190145223742196425000011060400001010330000000000000                                                            SENSOR PULSOX SPO2 LNCS NEONATAL MP00792PZA     1
NV0000169306826H202100015132502800015132502828/10/20210224    3190145223742196425000011085100001082120000000000000                                                                           GUANTE QUIRURGICO TALLA 7SOB     6
NV0000169306826H202100015132502800015132502828/10/20210224    3190145223742196425000013077800000471960000000000000                                                             GASA NO TEJIDA EST 7.5 X 7.5 SOB X 3 UNSOB     5
NV0000169306826H202100015132502800015132502828/10/20210224    3190145223742196425000011082700001620070000000000000                                                               EQUIPO SET PRIMARIO C/CLAVE REF 14001BOL     1
NV0000169306826H202100015132502800015132502828/10/20210224    31901452237421964250000Q1AA5900000236800000000000000                                                                            CISTOFLO PEDIAT X 500 mlSIN     1
NV0000169306826H202100015132502800015132502828/10/20210224    31901452237421964250000E1BA0100000198890000000000000                                                                   AGUA ESTERIL USP SLN INY X 500 MLBIN     1
NV0000169306826H202100015132502800015132502828/10/20210224    31901452237421964250000E1AA1400003888550000000000000                                                                         DEXTROSA 10% SLN INY 250 MLBOL     1
