CC0000008486413U202100050131404400050131404428/10/20210924    3190099523942196432000024674500000322810000000000000                                                                   JERINGA DESECHABLE 20 ml 21*1 1/2SIN     2
CC0000008486413U202100050131404400050131404428/10/20210924    3190099523942196432000022426800001140510000000000000                                                                    EQUIPO MACROGOTEO BAXTER MRC0001SOB     1
CC0000008486413U202100050131404400050131404428/10/20210924    31900995239421964320000E1AB0200000199290000000000000                                                            SOLUCION SALINA 0.9% SLN INY BO X 100 MLBIN     2
