TI0001047048202H202100000555111000000555111029/10/20211649    31500107237421964250000E1AC0100000199400000000000000                                                                          SUERO MIXTO Sln Iny 500 mlBIN     6
TI0001047048202H202100000555111000000555111029/10/20211649    31500107237421964250000E1AB0200000199290000000000000                                                            SOLUCION SALINA 0.9% SLN INY BO X 100 MLBIN     4
TI0001047048202H202100000555111000000555111029/10/20210946     3300009237421964250000A12CA200001239800000000000000                     BICARBONATO SODIO 10MEQ/10ML(1MEQ/ML) SOL INY  CAJ X 100AMPX10ML FRESENIUS KABIAMP     1
TI0001047048202H202100000555111000000555111029/10/20210947     3300009237421964250000A12BA100000552980000000000000                                                            CLORURO POTASIO Sln Iny AMP 20 MEQ/10 MLAMP     1
TI0001047048202H202100000555111000000555111029/10/20210946     3300009237421964250000A12BA100000552980000000000000                                                            CLORURO POTASIO Sln Iny AMP 20 MEQ/10 MLAMP     4
TI0001047048202H202100000555111000000555111029/10/20212246     3300009237421964250000J01DA300001239950000000000000                                                            CEFAZOLINA SODICA POLVO LIOF SLN INY 1 GVAL     4
TI0001047048202H202100000555111000000555111029/10/20210946     3300009237421964250000J1KF0200001677230000000000000                                                                      MERONEM POLVO SLN INY 1 G  /R/VAL     2
TI0001047048202H202100000555111000000555111029/10/20210945     3300009237421964250000J3BA0700000187600000000000000                                                                      BACTRIM SLN INY 400/80 MG/5 MLAMP     6
TI0001047048202H202100000555111000000555111029/10/20210945     3300009237421964250000J1FA1600001247370000000000000                                                                  KLARICID POLVO LIOF SLN INY 500 MGVAL     2
TI0001047048202H202100000555111000000555111029/10/20210946     3300009237421964250000J02A0200000191070000000000000                                                            CANCIDAS POLVO LIOF SLN INY AMP 50MG /R/VAL     1
TI0001047048202H202100000555111000000555111029/10/20210945     3300009237421964250000L1BC1300000304160000000000000                                                                        NEUPOGEN Sln iny 300 mcg /R/JRP     2
TI0001047048202H202100000555111000000555111029/10/20210946     3300009237421964250000V6DB0800001286840000000000000                                                                          PEDIASURE LIQUIDO X 237 MLFCO     2
TI0001047048202H202100000555111000000555111029/10/20211649    31500107237421964250000V07A1300000502600000000000000                                                                                AGUA ESTERIL x 10 mlAMP    25
