CC0000007469257H202100000555097800000555097829/10/20210800     3300009237421964250000B1AB1200003939350000000000000                 ENOXAPARINA SODICA 80MG/0.8ML(100MG/ML) SOL INY INST CAJ X 2JERPREL X 0.8ML TECHDOWJRP     2
CC0000007469257H202100000555097800000555097829/10/20212153    31901634237421964250000E1AB0300003888390000000000000                                                            SOLUCION SALINA 0.9% SLN INY BO X 500 MLBOL     2
CC0000007469257H202100000555097800000555097829/10/20211924     3300009237421964250000A12BA100000552980000000000000                                                            CLORURO POTASIO Sln Iny AMP 20 MEQ/10 MLAMP     2
CC0000007469257H202100000555097800000555097829/10/20210800     3300009237421964250000C7AB1400001278150000000000000                                                                       BETALOC ZOK TAB LM 100 MG /R/TAB     1
CC0000007469257H202100000555097800000555097829/10/20210800     3300009237421964250000C09CA400001277130000000000000                                                                                  LOSARTAN TAB 50 MGTAB     1
CC0000007469257H202100000555097800000555097829/10/20210801     3300009237421964250000A02B0800001276960000000000000                                                                                 OMEPRAZOL CAP 20 MGCAP     1
CC0000007469257H202100000555097800000555097829/10/20210800     3300009237421964250000C01BD200001332790000000000000                                                                               AMIODARONA TAB 200 MGTAB     1
CC0000007469257H202100000555097800000555097829/10/20210213     3300009237421964250000C01BD200001332790000000000000                                                                               AMIODARONA TAB 200 MGTAB     1
CC0000007469257H202100000555097800000555097829/10/20211556     3300009237421964250000C03C0100001672000000000000000                                                                       FUROSEMIDA SLN INY 20 MG/2 MLAMP     1
CC0000007469257H202100000555097800000555097829/10/20210213     3300009237421964250000C03C0100001672000000000000000                                                                       FUROSEMIDA SLN INY 20 MG/2 MLAMP     1
CC0000007469257H202100000555097800000555097829/10/20211556     3300009237421964250000N2BE2200001252930000000000000                                                                             ACETAMINOFEN Tab 500 MGTAB     2
CC0000007469257H202100000555097800000555097829/10/20210801     3300009237421964250000N2BE2200001252930000000000000                                                                             ACETAMINOFEN Tab 500 MGTAB     4
