RC0001048088138U202100050131417500050131417529/10/20210635    3190286423942196432000011082700001620070000000000000                                                               EQUIPO SET PRIMARIO C/CLAVE REF 14001BOL     1
RC0001048088138U202100050131417500050131417529/10/20210635    31902864239421964320000Q1AA7400003911720000000000000                                                            CATETER PERIFE INTROCAN # 24G 4251601-04SOB     1
RC0001048088138U202100050131417500050131417529/10/20210635    3190286423942196432000016830000000970620000000000000                                                             SIST FIJACION CAT PERIFERICO 6.5X7 1683SOB     1
RC0001048088138U202100050131417500050131417529/10/20210635    31902864239421964320000E1AD0200003888320000000000000                                                                              HARTMAN SLN INY 500 MLBOL     1
