CC0000007467947U202100000555137400000555137429/10/20212249    31901143239421964320000E1AD0300000199490000000000000                                         LACTATO RINGER USP (HARTMANN)  SOL INY  BOL X 1000ML BAXTERBIN     1
CC0000007467947U202100000555137400000555137429/10/20212115     3300004239421964320000N02B1100001169680000000000000                              PARACETAMOL 1000MG/100ML(10MG/ML) SOL INY  VIAL X 100ML FRESENIUS KABIVAL     1
CC0000007467947U202100000555137400000555137429/10/20212115     3300004239421964320000R05DB100001458270000000000000                                                                FLUTOX SUSP ORAL 3 54 MG/ML X 120 MLFCO     1
