TI0001042848386H202100000555105600000555105629/10/20211628    31900932237421964250000E1AC0100000199400000000000000                                                                          SUERO MIXTO Sln Iny 500 mlBIN     2
TI0001042848386H202100000555105600000555105629/10/20210812     3300009237421964250000A12BA100000552980000000000000                                                            CLORURO POTASIO Sln Iny AMP 20 MEQ/10 MLAMP     2
TI0001042848386H202100000555105600000555105629/10/20210812     3300009237421964250000A03BB100003889180000000000000                                      HIOSCINA BUTIL BROMURO 20MG/ML SOL INY CAJ X 100AMP X 1ML RYANAMP     3
TI0001042848386H202100000555105600000555105629/10/20210812     3300009237421964250000J01DD500001239970000000000000                                                                  CEFTRIAXONA POLVO LIOF SLN INY 1 GVAL     4
TI0001042848386H202100000555105600000555105629/10/20210701     3300009237421964250000J01DD500001239970000000000000                                                                  CEFTRIAXONA POLVO LIOF SLN INY 1 GVAL     2
TI0001042848386H202100000555105600000555105629/10/20211600     3300009237421964250000J01G0500001109560000000000000                                                                       AMIKACINA SLN INY 500 MG/2 MLAMP     2
TI0001042848386H202100000555105600000555105629/10/20210812     3300009237421964250000N2BE2200001252930000000000000                                                                             ACETAMINOFEN Tab 500 MGTAB     8
TI0001042848386H202100000555105600000555105629/10/20210812     3300009237421964250000N2BB0100000787510000000000000                                                                    DIPIRONA SODICA Sln Iny 1 g/2 mlAMP     3
TI0001042848386H202100000555105600000555105629/10/20210701     3300009237421964250000N2BB0100000787510000000000000                                                                    DIPIRONA SODICA Sln Iny 1 g/2 mlAMP     1
TI0001042848386H202100000555105600000555105629/10/20210812     3300009237421964250000A02BC700001684270000000000000                                                            OMEPRAZOL 40MG POLVO LIOFILIZADO AMPOLLAVAL     1
