RC0001041702380H202100165106102900165106102929/10/20211427    3190187923742196425000001956000001620610000000000000                                                                      CONECTOR MICRO CLAVE LAT-MC100SOB     1
RC0001041702380H202100165106102900165106102929/10/20211427    31901879237421964250000Q1AA7400003911720000000000000                                                            CATETER PERIFE INTROCAN # 24G 4251601-04SOB     2
RC0001041702380H202100165106102900165106102929/10/20211428    3190333123742196425000024674000000220660000000000000                             JERINGA A 3 PARTES CON AGUJA  SOB X 1 RYMCO  10ML BN EXENTO-DC.417/2020SIN    10
RC0001041702380H202100165106102900165106102929/10/20211428    31903331237421964250000V07A1300000502600000000000000                                                                                AGUA ESTERIL x 10 mlAMP     5
RC0001041702380H202100165106102900165106102929/10/20212320    31901177237421964250000E1AC0100000199400000000000000                                                                          SUERO MIXTO Sln Iny 500 mlBIN     1
