CC0000072297175U202100000555126500000555126529/10/20211630     3300004239421964320000A4AD0200000202990000000000000                                                                     PLITICAN HCL Sln Iny 50 mg/2 mlAMP     1
CC0000072297175U202100000555126500000555126529/10/20211753    31902968239421964320000E1AD0300000199490000000000000                                         LACTATO RINGER USP (HARTMANN)  SOL INY  BOL X 1000ML BAXTERBIN     1
CC0000072297175U202100000555126500000555126529/10/20211641     3300004239421964320000N2AA0200000301600000000000000                                                                        HIDROMORFONA Sln Iny 2 mg/mlAMP     1
