CC0001045742577A202100000027650300000027650329/10/20210907    31903336240421964190000A03BB100003889180000000000000                                      HIOSCINA BUTIL BROMURO 20MG/ML SOL INY CAJ X 100AMP X 1ML RYANAMP     1
CC0001045742577A202100000027650300000027650329/10/20210907    31903336240421964190000N2AX0900001672040000000000000                                                                              TRAMADOL SLN INY 50 MGAMP     1
CC0001045742577A202100000027650300000027650329/10/20210907    31903336240421964190000A02B1800001353400000000000000                                                                               CYTIL TAB 200 MCG /R/TAB     2
CC0001045742577A202100000027650300000027650329/10/20210907    31903336240421964190000N01A0400003939010000000000000                                               MAYOPROFOL 200MG/20ML(1%) EMUL INY CAJ X 1VIAL X 20MLVAL     1
CC0001045742577A202100000027650300000027650329/10/20210907    31903336240421964190000J1KD0400000335010000000000000                                                                      GENTAMICINA SLN INY 80 MG/2 MLAMP     1
CC0001045742577A202100000027650300000027650329/10/20210907    31903336240421964190000J01F0200001689390000000000000                                                                        CLINDAMICINA INY 600 MG/4 MLAMP     1
CC0001045742577A202100000027650300000027650329/10/20210907    31903336240421964190000E1AB0300003888390000000000000                                                            SOLUCION SALINA 0.9% SLN INY BO X 500 MLBOL     1
CC0001045742577A202100000027650300000027650329/10/20210907    31903336240421964190000H1BB0200003888510000000000000                                                                         OXITOCINA SLN INY 10 UI /MLAMP     2
CC0001045742577A202100000027650300000027650329/10/20210907    3190333624042196419000038568100000258050000000000000                                                                         CANULA OXIGENO NASAL ADULTOSIN     1
CC0001045742577A202100000027650300000027650329/10/20210907    3190333624042196419000053074400000607910000000000000                                                               GASA ESTERIL 10*10 SOBRE X 3 UNIDADESSOB     1
CC0001045742577A202100000027650300000027650329/10/20210907    3190333624042196419000011085200001585390000000000000                                                                       GUANTE QUIRURGICO TALLA 7 1/2SOB     3
CC0001045742577A202100000027650300000027650329/10/20210907    3190333624042196419000043485100001618510000000000000                GUANTE QUIRURGICO DE LATEX REF 2D72N65X CAJ X 50 PROTEXIS  6.5 BN EXENTO-DC.417/2020SOB     1
CC0001045742577A202100000027650300000027650329/10/20210907    3190333624042196419000024673600000222980000000000000                                                                     JERINGA DESECHABLE 5 ml 27*11/2SIN     3
CC0001045742577A202100000027650300000027650329/10/20210907    3190333624042196419000024674000000220660000000000000                             JERINGA A 3 PARTES CON AGUJA  SOB X 1 RYMCO  10ML BN EXENTO-DC.417/2020SIN     5
CC0001045742577A202100000027650300000027650329/10/20210907    31903336240421964190000E1AB0700003888350000000000000                                                            SOLUCION SALINA 0.9% SLN INY BO X 250 MLBOL     2
CC0001045742577A202100000027650300000027650329/10/20210907    31903336240421964190000N01B0200003888110000000000000                                           ROXICAINA SE 100MG/10ML(1%) SOL INY CAJ X 24AMPACK X 10MLAPC     1
