CC0001045742577U202100000555092000000555092029/10/20210924     3300004239421964320000H02AB400001140460000000000000                                                              SUCCINA METILPREDNISOLONA 500MG VIA/R/VAL     1
CC0001045742577U202100000555092000000555092029/10/20211649     3300004239421964320000B3BB0200001315040000000000000                                                                               ACIDO FOLICO Tab 5 mgTAB     1
CC0001045742577U202100000555092000000555092029/10/20210333    31500294239421964320000E1AB0700003888350000000000000                                                            SOLUCION SALINA 0.9% SLN INY BO X 250 MLBOL     1
CC0001045742577U202100000555092000000555092029/10/20211004    31902337239421964320000E1AB0300003888390000000000000                                                            SOLUCION SALINA 0.9% SLN INY BO X 500 MLBOL     1
CC0001045742577U202100000555092000000555092029/10/20210333    31500294239421964320000E1AB0300003888390000000000000                                                            SOLUCION SALINA 0.9% SLN INY BO X 500 MLBOL     2
CC0001045742577U202100000555092000000555092029/10/20212249    31901143239421964320000E1AB0500003888400000000000000                                                              SOLUCION SALINA 0.9% SLN INY X 1000 MLBOL     1
CC0001045742577U202100000555092000000555092029/10/20211354    31902968239421964320000E1AB0500003888400000000000000                                                              SOLUCION SALINA 0.9% SLN INY X 1000 MLBOL     1
CC0001045742577U202100000555092000000555092029/10/20210333    31500294239421964320000E1AD0300000199490000000000000                                         LACTATO RINGER USP (HARTMANN)  SOL INY  BOL X 1000ML BAXTERBIN     2
CC0001045742577U202100000555092000000555092029/10/20211842     3300004239421964320000C2DE1400001277050000000000000                                                                         NIFEDIPINO CAPSULA LM 30 MGCAP     1
CC0001045742577U202100000555092000000555092029/10/20211309     3300004239421964320000C2DE1400001277050000000000000                                                                         NIFEDIPINO CAPSULA LM 30 MGCAP     1
CC0001045742577U202100000555092000000555092029/10/20210645     3300004239421964320000C2DE1400001277050000000000000                                                                         NIFEDIPINO CAPSULA LM 30 MGCAP     1
CC0001045742577U202100000555092000000555092029/10/20210006     3300004239421964320000C2DE1400001277050000000000000                                                                         NIFEDIPINO CAPSULA LM 30 MGCAP     1
CC0001045742577U202100000555092000000555092029/10/20211005     3300004239421964320000A12CC100001690470000000000000                                                                  MAGNESIO SULFATO 20% SLN INY 10 MLAMP     4
CC0001045742577U202100000555092000000555092029/10/20211004     3300004239421964320000A12CC100001690470000000000000                                                                  MAGNESIO SULFATO 20% SLN INY 10 MLAMP     1
CC0001045742577U202100000555092000000555092029/10/20211309     3300004239421964320000A03BB100003889180000000000000                                      HIOSCINA BUTIL BROMURO 20MG/ML SOL INY CAJ X 100AMP X 1ML RYANAMP     1
CC0001045742577U202100000555092000000555092029/10/20210112     3300004239421964320000A03BB100003889180000000000000                                      HIOSCINA BUTIL BROMURO 20MG/ML SOL INY CAJ X 100AMP X 1ML RYANAMP     1
CC0001045742577U202100000555092000000555092029/10/20212022     3300004239421964320000C09CA700001315590000000000000                                                                                 LOSARTAN TAB 100 MGTAB     1
CC0001045742577U202100000555092000000555092029/10/20210837     3300004239421964320000C09CA700001315590000000000000                                                                                 LOSARTAN TAB 100 MGTAB     1
CC0001045742577U202100000555092000000555092029/10/20211309     3300004239421964320000N2AX0900001672040000000000000                                                                              TRAMADOL SLN INY 50 MGAMP     1
