RC0001187466818H202100915173102900915173102929/10/20210644    3190310223742196425000011044400000516560000000000000                                                             GUIA ENTUBACION PEDIATRIC 10Fr REF85864SIN     1
RC0001187466818H202100915173102900915173102929/10/20210644    3190310223742196425000024674000000220660000000000000                             JERINGA A 3 PARTES CON AGUJA  SOB X 1 RYMCO  10ML BN EXENTO-DC.417/2020SIN     3
RC0001187466818H202100915173102900915173102929/10/20210644    3190310223742196425000036441300000236540000000000000                                                                    JERINGA 1 ML GASES ARTERIAL 9023SIN     3
RC0001187466818H202100915173102900915173102929/10/20210644    3190310223742196425000039174100001072160000000000000                                                                           TUBO ENDOTRAQUEAL S/B 5.0SOB     1
RC0001187466818H202100915173102900915173102929/10/20210644    3190310223742196425000043485100001618510000000000000                GUANTE QUIRURGICO DE LATEX REF 2D72N65X CAJ X 50 PROTEXIS  6.5 BN EXENTO-DC.417/2020SOB     3
RC0001187466818H202100915173102900915173102929/10/20210644    31903102237421964250000Q1AA1000000256790000000000000                                                                         SONDA ASPIRACION CONTROL #8SIN     3
RC0001187466818H202100915173102900915173102929/10/20210901    3150024423742196425000000602600001259280000000000000                                                             APOSITO TEGADERM IV PD 1610 5CM X 5.7CMSOB     1
RC0001187466818H202100915173102900915173102929/10/20211905    3150024423742196425000018354100000232880000000000000                                                                  SUTURA SEDA NEGRA 3-0 KS 75CM 622HSIN     1
RC0001187466818H202100915173102900915173102929/10/20211905    3150024423742196425000022426800001140510000000000000                                                                    EQUIPO MACROGOTEO BAXTER MRC0001SOB     1
RC0001187466818H202100915173102900915173102929/10/20211905    3150024423742196425000030936900001431840000000000000                                                                                              BURETABOL     1
RC0001187466818H202100915173102900915173102929/10/20211905    3150024423742196425000035356500003919000000000000000                                                                                        LLAVE 3 VIASSOB     3
RC0001187466818H202100915173102900915173102929/10/20211905    3150024423742196425000043879200001138180000000000000                                                                                   HOJA BISTURI # 11SOB     2
RC0001187466818H202100915173102900915173102929/10/20211905    31500244237421964250000E1BA0100000198890000000000000                                                                   AGUA ESTERIL USP SLN INY X 500 MLBIN     1
