CC0000036148059U202100050131427400050131427429/10/20212014    3190098223942196432000045136100001419300000000000000                                                                            LANCETA DEXTROMETER X UNPZA    11
CC0000008632917U202100050131427400050131427429/10/20212014    3190098223942196432000024674000000220660000000000000                             JERINGA A 3 PARTES CON AGUJA  SOB X 1 RYMCO  10ML BN EXENTO-DC.417/2020SIN     2
CC0000008632917U202100050131427400050131427429/10/20212014    31900982239421964320000E1AB0300003888390000000000000                                                            SOLUCION SALINA 0.9% SLN INY BO X 500 MLBOL     1
CC0000036148059U202100050131427400050131427429/10/20212014    31900982239421964320000E1AB0300003888390000000000000                                                            SOLUCION SALINA 0.9% SLN INY BO X 500 MLBOL     2
CC0000036148059U202100050131427400050131427429/10/20212014    3190098223942196432000011137100001419310000000000000                                                               TIRA GLUCOMETRIA FREESTYLE H OPTIUM .PZA    11
