RC0001048091909H202100015132503700015132503729/10/20211649    3190330923742196425000001956000001620610000000000000                                                                      CONECTOR MICRO CLAVE LAT-MC100SOB     1
RC0001048091909H202100015132503700015132503729/10/20211649    31903309237421964250000Q1AA7400003911720000000000000                                                            CATETER PERIFE INTROCAN # 24G 4251601-04SOB     1
NV0000169306826H202100015132503700015132503729/10/20211649    31903309237421964250000E1AA1400003888550000000000000                                                                         DEXTROSA 10% SLN INY 250 MLBOL     1
