RC0001194983660U202100050131419600050131419629/10/20211020    3190118923942196432000042743200003929860000000000000                   GASA ADHESIVA STRETCH REF 02038-00 ROL X 10MT FIXOMULL 15CM BN EXENTO-DC.417/2020CMT    15
RC0001194983660U202100050131419600050131419629/10/20211020    3190118923942196432000011082700001620070000000000000                                                               EQUIPO SET PRIMARIO C/CLAVE REF 14001BOL     1
RC0001194983660U202100050131419600050131419629/10/20211020    3190118923942196432000001956000001620610000000000000                                                                      CONECTOR MICRO CLAVE LAT-MC100SOB     1
RC0001194983660U202100050131419600050131419629/10/20211020    31901189239421964320000Q1AA7400003911720000000000000                                                            CATETER PERIFE INTROCAN # 24G 4251601-04SOB     1
RC0001194983660U202100050131419600050131419629/10/20211020    31901189239421964320000B05B1400001012740000000000000                                                                SOLUCION SALINA 0.45% Sln Iny 500 mlBOL     1
