CC0001046401905A202100000027644100000027644129/10/20210837    3190333624042196419000016830000000970620000000000000                                                             SIST FIJACION CAT PERIFERICO 6.5X7 1683SOB     1
CC0001046401905A202100000027644100000027644129/10/20210837    3190333624042196419000011065700003914100000000000000                                                                 TAPON HEPARINIZADO 4238010  B BRAUNSOB     1
CC0001046401905A202100000027644100000027644129/10/20210837    31903336240421964190000Q1AA7200000610630000000000000                                                            CATETER PERIFE INTROCAN # 20G 4251644-04SIN     1
CC0001046401905A202100000027644100000027644129/10/20210837    3190333624042196419000020059500000225210000000000000                                                               AGUJA RAQUI SPINOCAN #20 REF. 4509900SIN     1
CC0001046401905A202100000027644100000027644129/10/20210837    3190333624042196419000027292100000224750000000000000                                                                                  AGUJA PERICAN G-18SIN     2
CC0001046401905A202100000027644100000027644129/10/20210837    3190333624042196419000020056600001101530000000000000                                                                AGUJA HIPODERMICA DESECH 18G X 1 1/2SOB     1
CC0001046401905A202100000027644100000027644129/10/20210837    3190333624042196419000038568100000258050000000000000                                                                         CANULA OXIGENO NASAL ADULTOSIN     1
CC0001046401905A202100000027644100000027644129/10/20210837    3190333624042196419000053074400000607910000000000000                                                               GASA ESTERIL 10*10 SOBRE X 3 UNIDADESSOB     2
CC0001046401905A202100000027644100000027644129/10/20210837    3190333624042196419000011085200001585390000000000000                                                                       GUANTE QUIRURGICO TALLA 7 1/2SOB     1
CC0001046401905A202100000027644100000027644129/10/20210837    3190333624042196419000011047900000223010000000000000                                                                            JERINGA X 1ML REF 302579SIN     1
CC0001046401905A202100000027644100000027644129/10/20210837    3190333624042196419000024673000001411210000000000000                                                                  JERINGA DESECHABLE 3 ML 21 X 1 1/2SOB     1
CC0001046401905A202100000027644100000027644129/10/20210837    3190333624042196419000024674000000220660000000000000                             JERINGA A 3 PARTES CON AGUJA  SOB X 1 RYMCO  10ML BN EXENTO-DC.417/2020SIN     4
CC0001046401905A202100000027644100000027644129/10/20210837    3190333624042196419000024674500000322810000000000000                                                                   JERINGA DESECHABLE 20 ml 21*1 1/2SIN     1
CC0001046401905A202100000027644100000027644129/10/20210837    31903336240421964190000E1AB0200000199290000000000000                                                            SOLUCION SALINA 0.9% SLN INY BO X 100 MLBIN     2
CC0001046401905A202100000027644100000027644129/10/20210837    31903336240421964190000N01A0400003939010000000000000                                               MAYOPROFOL 200MG/20ML(1%) EMUL INY CAJ X 1VIAL X 20MLVAL     1
CC0001046401905A202100000027644100000027644129/10/20210837    31903336240421964190000S2BA1200000467480000000000000                                                             DEPO MEDROL SUSP INY 40mg/ml X 1 ML /R/CIN     2
CC0001046401905A202100000027644100000027644129/10/20210837    31903336240421964190000N01B1200000220020000000000000                                                                        ROXICAINA 1% C/E Iny x 20 mlFCO     1
CC0001046401905A202100000027644100000027644129/10/20210837    31903336240421964190000N01B0200003888110000000000000                                           ROXICAINA SE 100MG/10ML(1%) SOL INY CAJ X 24AMPACK X 10MLAPC     2
CC0001046401905A202100000027644100000027644129/10/20210837    31903336240421964190000N1AH0200003906560000000000000                                                                     FENTANIL Iny 0.05 mg/ml x 10 mlAMP     1
