TI0001146538030U202100050131427300050131427329/10/20212011    3190315823942196432000024673600000222980000000000000                                                                     JERINGA DESECHABLE 5 ml 27*11/2SIN     1
TI0001146538030U202100050131427300050131427329/10/20212011    3190315823942196432000011082700001620070000000000000                                                               EQUIPO SET PRIMARIO C/CLAVE REF 14001BOL     1
TI0001146538030U202100050131427300050131427329/10/20212011    31903158239421964320000Q1AA7400003911720000000000000                                                            CATETER PERIFE INTROCAN # 24G 4251601-04SOB     1
TI0001146538030U202100050131427300050131427329/10/20212011    3190315823942196432000030936900001431840000000000000                                                                                              BURETABOL     1
TI0001146538030U202100050131427300050131427329/10/20212011    31903158239421964320000E1AD0300000199490000000000000                                         LACTATO RINGER USP (HARTMANN)  SOL INY  BOL X 1000ML BAXTERBIN     1
