RC0001048091446H202100015012570200015012570229/10/20211355    3190187923742196425000001956000001620610000000000000                                                                      CONECTOR MICRO CLAVE LAT-MC100SOB     1
RC0001041702380H202100015012570200015012570229/10/20211355    3190187923742196425000001956000001620610000000000000                                                                      CONECTOR MICRO CLAVE LAT-MC100SOB     1
RC0001043317236H202100015012570200015012570229/10/20211355    3190187923742196425000001956000001620610000000000000                                                                      CONECTOR MICRO CLAVE LAT-MC100SOB     1
RC0001043317236H202100015012570200015012570229/10/20211355    31901879237421964250000Q1AA7300000610640000000000000                                                            CATETER PERIFE INTROCAN # 22G 4251628-04SIN     1
RC0001048091446H202100015012570200015012570229/10/20211355    31901879237421964250000Q1AA7400003911720000000000000                                                            CATETER PERIFE INTROCAN # 24G 4251601-04SOB     2
RC0001041702380H202100015012570200015012570229/10/20211355    31901879237421964250000Q1AA7400003911720000000000000                                                            CATETER PERIFE INTROCAN # 24G 4251601-04SOB     2
RC0001043317236H202100015012570200015012570229/10/20211355    31901879237421964250000Q1AA7400003911720000000000000                                                            CATETER PERIFE INTROCAN # 24G 4251601-04SOB     1
