CC0001050038788A202100000027642600000027642629/10/20211040    3190333624042196419000049428300000860750000000000000                                                                       VENDA ELASTICA 4*5 NO ESTERILBOL     3
CC0001050038788A202100000027642600000027642629/10/20211040    3190333624042196419000049419600001679900000000000000                                                                        VENDA ALGODON 4*5 NO ESTERILSOB     3
CC0001050038788A202100000027642600000027642629/10/20211040    3190333624042196419000019429800000455490000000000000                                                                                      VENDA YESO 5*5BIN     2
CC0001050038788A202100000027642600000027642629/10/20211040    31903336240421964190000N01A0400003939010000000000000                                               MAYOPROFOL 200MG/20ML(1%) EMUL INY CAJ X 1VIAL X 20MLVAL     1
CC0001050038788A202100000027642600000027642629/10/20211040    3190333624042196419000022425200000548240000000000000                       EXTENSION DE ANESTESIA REF 1139 SOB X 1 SHERLEG  ADULTO BN EXENTO-DC.417/2020SIN     1
CC0001050038788A202100000027642600000027642629/10/20211040    3190333624042196419000035356500003919000000000000000                                                                                        LLAVE 3 VIASSOB     1
CC0001050038788A202100000027642600000027642629/10/20211040    3190333624042196419000022426800001140510000000000000                                                                    EQUIPO MACROGOTEO BAXTER MRC0001SOB     1
CC0001050038788A202100000027642600000027642629/10/20211040    3190333624042196419000038568100000258050000000000000                                                                         CANULA OXIGENO NASAL ADULTOSIN     1
CC0001050038788A202100000027642600000027642629/10/20211040    3190333624042196419000053074400000607910000000000000                                                               GASA ESTERIL 10*10 SOBRE X 3 UNIDADESSOB     2
CC0001050038788A202100000027642600000027642629/10/20211040    3190333624042196419000011085400001083360000000000000                                                                       GUANTE QUIRURGICO TALLA 8 1/2SOB     1
CC0001050038788A202100000027642600000027642629/10/20211040    3190333624042196419000024673600000222980000000000000                                                                     JERINGA DESECHABLE 5 ml 27*11/2SIN     1
CC0001050038788A202100000027642600000027642629/10/20211040    3190333624042196419000024674000000220660000000000000                             JERINGA A 3 PARTES CON AGUJA  SOB X 1 RYMCO  10ML BN EXENTO-DC.417/2020SIN     2
CC0001050038788A202100000027642600000027642629/10/20211040    3190333624042196419000024674500000322810000000000000                                                                   JERINGA DESECHABLE 20 ml 21*1 1/2SIN     2
CC0001050038788A202100000027642600000027642629/10/20211040    31903336240421964190000E1AB0300003888390000000000000                                                            SOLUCION SALINA 0.9% SLN INY BO X 500 MLBOL     3
CC0001050038788A202100000027642600000027642629/10/20211040    31903336240421964190000N1AH0200003906560000000000000                                                                     FENTANIL Iny 0.05 mg/ml x 10 mlAMP     1
CC0001050038788A202100000027642600000027642629/10/20211040    31903336240421964190000N05CD300000218170000000000000                                           DORMICUM IV-IM 5MG/5ML(1MG/ML) SOL INY  CAJ X 10AMP X 5MLAMP     1
