CC0001129533798U202100050131425500050131425529/10/20211805    3190319023942196432000024674000000220660000000000000                             JERINGA A 3 PARTES CON AGUJA  SOB X 1 RYMCO  10ML BN EXENTO-DC.417/2020SIN     2
CC0001129533798U202100050131425500050131425529/10/20211805    3190319023942196432000011089200001083340000000000000                                                              GUANTE ESTERIL LATEX S/POLVO TALLA 7.0SOB     4
CC0001129533798U202100050131425500050131425529/10/20211805    3190319023942196432000013077800000471960000000000000                                                             GASA NO TEJIDA EST 7.5 X 7.5 SOB X 3 UNSOB     4
