CC0000072155900U202100050131429000050131429029/10/20212203    3190098223942196432000024674000000220660000000000000                             JERINGA A 3 PARTES CON AGUJA  SOB X 1 RYMCO  10ML BN EXENTO-DC.417/2020SIN     2
CC0000072155900U202100050131429000050131429029/10/20212203    3190098223942196432000011082700001620070000000000000                                                               EQUIPO SET PRIMARIO C/CLAVE REF 14001BOL     1
CC0000072155900U202100050131429000050131429029/10/20212203    31900982239421964320000Q1AA7100000610620000000000000                                                            CATETER PERIFE INTROCAN # 18G 4251687-04SIN     1
CC0000072155900U202100050131429000050131429029/10/20212203    3190098223942196432000030936900001431840000000000000                                                                                              BURETABOL     1
CC0000072155900U202100050131429000050131429029/10/20212203    31900982239421964320000E1AB0300003888390000000000000                                                            SOLUCION SALINA 0.9% SLN INY BO X 500 MLBOL     1
