TI0001130268767H202100015122510600015122510629/10/20210858    3150056823742196425000045136100001419300000000000000                                                                            LANCETA DEXTROMETER X UNPZA     3
RC0001043714288H202100015122510600015122510629/10/20210858    3150056823742196425000045136100001419300000000000000                                                                            LANCETA DEXTROMETER X UNPZA     3
TI0001072108867H202100015122510600015122510629/10/20210858    3150056823742196425000045136100001419300000000000000                                                                            LANCETA DEXTROMETER X UNPZA     3
TI0001130268767H202100015122510600015122510629/10/20210858    3150056823742196425000024674000000220660000000000000                             JERINGA A 3 PARTES CON AGUJA  SOB X 1 RYMCO  10ML BN EXENTO-DC.417/2020SIN    10
TI0001072108867H202100015122510600015122510629/10/20210858    3150056823742196425000024674000000220660000000000000                             JERINGA A 3 PARTES CON AGUJA  SOB X 1 RYMCO  10ML BN EXENTO-DC.417/2020SIN    10
RC0001043714288H202100015122510600015122510629/10/20210858    3150056823742196425000024673600000222980000000000000                                                                     JERINGA DESECHABLE 5 ml 27*11/2SIN    10
TI0001130268767H202100015122510600015122510629/10/20210858    31500568237421964250000E1AD0300000199490000000000000                                         LACTATO RINGER USP (HARTMANN)  SOL INY  BOL X 1000ML BAXTERBIN     4
TI0001072108867H202100015122510600015122510629/10/20210858    31500568237421964250000E1AD0300000199490000000000000                                         LACTATO RINGER USP (HARTMANN)  SOL INY  BOL X 1000ML BAXTERBIN     2
RC0001043714288H202100015122510600015122510629/10/20210858    31500568237421964250000E1AC0100000199400000000000000                                                                          SUERO MIXTO Sln Iny 500 mlBIN     2
TI0001130268767H202100015122510600015122510629/10/20210858    3150056823742196425000011137100001419310000000000000                                                               TIRA GLUCOMETRIA FREESTYLE H OPTIUM .PZA     3
RC0001043714288H202100015122510600015122510629/10/20210858    3150056823742196425000011137100001419310000000000000                                                               TIRA GLUCOMETRIA FREESTYLE H OPTIUM .PZA     3
TI0001072108867H202100015122510600015122510629/10/20210858    3150056823742196425000011137100001419310000000000000                                                               TIRA GLUCOMETRIA FREESTYLE H OPTIUM .PZA     3
