RC0001048088138U202100050131420900050131420929/10/20211148    3190118123942196432000011048600000223020000000000000                                                                 JERINGA VACUNACION 3ML C/AGU 302542SIN     4
RC0001048088138U202100050131420900050131420929/10/20211148    3190118123942196432000011088900001318270000000000000                                                               GUANTE CIRUGIA NITRILO ALFASAFE 7 1/2SOB     4
RC0001048088138U202100050131420900050131420929/10/20211148    3190118123942196432000013077800000471960000000000000                                                             GASA NO TEJIDA EST 7.5 X 7.5 SOB X 3 UNSOB     6
TI0001013006246U202100050131420900050131420929/10/20211148    3190118123942196432000016830000000970620000000000000                                                             SIST FIJACION CAT PERIFERICO 6.5X7 1683SOB     1
RC0001048088138U202100050131420900050131420929/10/20211148    31901181239421964320000E1AB0200000199290000000000000                                                            SOLUCION SALINA 0.9% SLN INY BO X 100 MLBIN     1
