CC0001045684571H202100000555093300000555093329/10/20212205     3300009237421964250000H02AB400001140460000000000000                                                              SUCCINA METILPREDNISOLONA 500MG VIA/R/VAL     1
CC0001045684571H202100000555093300000555093329/10/20211000     3300009237421964250000B1AB0200003939510000000000000                 ENOXAPARINA SODICA 40MG/0.4ML(100MG/ML) SOL INY INST CAJ X 2JERPREL X 0.4ML TECHDOWJRP     1
CC0001045684571H202100000555093300000555093329/10/20211543    31500573237421964250000E1AB0200000199290000000000000                                                            SOLUCION SALINA 0.9% SLN INY BO X 100 MLBIN     4
CC0001045684571H202100000555093300000555093329/10/20212205     3300009237421964250000A12BA100000552980000000000000                                                            CLORURO POTASIO Sln Iny AMP 20 MEQ/10 MLAMP     3
CC0001045684571H202100000555093300000555093329/10/20211000     3300009237421964250000C7AB1000001382030000000000000                                                                   NOREPINEFRINA SLN INY 4 MG / 4 MLAMP    10
CC0001045684571H202100000555093300000555093329/10/20211000     3300009237421964250000J01XA400001212420000000000000                                                               VANCOMICINA POLVO LIOF SLN INY 500 MGVAL     2
CC0001045684571H202100000555093300000555093329/10/20210524     3300009237421964250000J01XA400001212420000000000000                                                               VANCOMICINA POLVO LIOF SLN INY 500 MGVAL     1
CC0001045684571H202100000555093300000555093329/10/20210523     3300009237421964250000J01XA400001212420000000000000                                                               VANCOMICINA POLVO LIOF SLN INY 500 MGVAL     3
CC0001045684571H202100000555093300000555093329/10/20211837     3300009237421964250000J02A0200000191070000000000000                                                            CANCIDAS POLVO LIOF SLN INY AMP 50MG /R/VAL     1
CC0001045684571H202100000555093300000555093329/10/20212224     3300009237421964250000M03AC100000197200000000000000                                                                   TRACURION SLN INY 10 MG /5 ML /R/AMP     2
CC0001045684571H202100000555093300000555093329/10/20212223     3300009237421964250000M03AC100000197200000000000000                                                                   TRACURION SLN INY 10 MG /5 ML /R/AMP     3
CC0001045684571H202100000555093300000555093329/10/20212222     3300009237421964250000M03AC100000197200000000000000                                                                   TRACURION SLN INY 10 MG /5 ML /R/AMP    14
CC0001045684571H202100000555093300000555093329/10/20212221     3300009237421964250000M03AC100000197200000000000000                                                                   TRACURION SLN INY 10 MG /5 ML /R/AMP     1
CC0001045684571H202100000555093300000555093329/10/20212207     3300009237421964250000M03AC100000197200000000000000                                                                   TRACURION SLN INY 10 MG /5 ML /R/AMP     1
CC0001045684571H202100000555093300000555093329/10/20211000     3300009237421964250000N01A0400003939010000000000000                                               MAYOPROFOL 200MG/20ML(1%) EMUL INY CAJ X 1VIAL X 20MLVAL     2
CC0001045684571H202100000555093300000555093329/10/20210903     3300009237421964250000N01A0400003939010000000000000                                               MAYOPROFOL 200MG/20ML(1%) EMUL INY CAJ X 1VIAL X 20MLVAL     2
CC0001045684571H202100000555093300000555093329/10/20210031     3300010237421964250000N01A0400003939010000000000000                                               MAYOPROFOL 200MG/20ML(1%) EMUL INY CAJ X 1VIAL X 20MLVAL     2
CC0001045684571H202100000555093300000555093329/10/20210030     3300010237421964250000N01A0400003939010000000000000                                               MAYOPROFOL 200MG/20ML(1%) EMUL INY CAJ X 1VIAL X 20MLVAL     9
CC0001045684571H202100000555093300000555093329/10/20210029     3300010237421964250000N01A0400003939010000000000000                                               MAYOPROFOL 200MG/20ML(1%) EMUL INY CAJ X 1VIAL X 20MLVAL     1
CC0001045684571H202100000555093300000555093329/10/20210959     3300009237421964250000N07X0300003913670000000000000                                    DEXMEDETOMIDINA 400MCG/100ML(4MCG/ML) SOL INY BOL X 100ML BAXTERBOL     2
CC0001045684571H202100000555093300000555093329/10/20211530    31900995237421964250000E1BA0100000198890000000000000                                                                   AGUA ESTERIL USP SLN INY X 500 MLBIN     3
CC0001045684571H202100000555093300000555093329/10/20212205     3300009237421964250000V6DF2000001629900000000000000                                                                     ENSURE PLUS HN LIQUIDO X 237 MLFCO     1
CC0001045684571H202100000555093300000555093329/10/20210959     3300009237421964250000V6DF2000001629900000000000000                                                                     ENSURE PLUS HN LIQUIDO X 237 MLFCO     1
CC0001045684571H202100000555093300000555093329/10/20210029     3300010237421964250000V6DF2000001629900000000000000                                                                     ENSURE PLUS HN LIQUIDO X 237 MLFCO     4
CC0001045684571H202100000555093300000555093329/10/20210032     3300010237421964250000N1AH0200003906560000000000000                                                                     FENTANIL Iny 0.05 mg/ml x 10 mlAMP    12
CC0001045684571H202100000555093300000555093329/10/20212215     3300009237421964250000N5CD0300000218170000000000000                                                                          DORMICUM Sln Iny 5 mg/5 mlAMP    30
CC0001045684571H202100000555093300000555093329/10/20212214     3300009237421964250000N5CD0300000218170000000000000                                                                          DORMICUM Sln Iny 5 mg/5 mlAMP    50
CC0001045684571H202100000555093300000555093329/10/20210244     3300009237421964250000H02AB700000585860000000000000                                                                HIDROCORTISONA SUCCI POL LIOF 100 MGVAL     1
CC0001045684571H202100000555093300000555093329/10/20210243     3300009237421964250000H02AB700000585860000000000000                                                                HIDROCORTISONA SUCCI POL LIOF 100 MGVAL     1
CC0001045684571H202100000555093300000555093329/10/20211839     3300009237421964250000J01DH400001317770000000000000                                                                MEROPENEM POLVO LIOF SLN INY 1 G /R/CAJ     2
CC0001045684571H202100000555093300000555093329/10/20210959     3300009237421964250000J01DH400001317770000000000000                                                                MEROPENEM POLVO LIOF SLN INY 1 G /R/CAJ     4
CC0001045684571H202100000555093300000555093329/10/20211839     3300009237421964250000J01EE300001398810000000000000                                                                  TRIMETOPR/SULFAM 80/400MG /5ML AMPAMP    17
CC0001045684571H202100000555093300000555093329/10/20211838     3300009237421964250000J01EE300001398810000000000000                                                                  TRIMETOPR/SULFAM 80/400MG /5ML AMPAMP     1
CC0001045684571H202100000555093300000555093329/10/20211619     3300009237421964250000J01EE300001398810000000000000                                                                  TRIMETOPR/SULFAM 80/400MG /5ML AMPAMP     2
CC0001045684571H202100000555093300000555093329/10/20212207     3300009237421964250000N2BE2200001252930000000000000                                                                             ACETAMINOFEN Tab 500 MGTAB     8
CC0001045684571H202100000555093300000555093329/10/20211703     3300009237421964250000N05A1700001278300000000000000                                                                            QUETIAPINA TAB 25 MG /R/TAB     2
CC0001045684571H202100000555093300000555093329/10/20210959     3300009237421964250000N05A1700001278300000000000000                                                                            QUETIAPINA TAB 25 MG /R/TAB     4
CC0001045684571H202100000555093300000555093329/10/20211000     3300009237421964250000A02BC700001684270000000000000                                                            OMEPRAZOL 40MG POLVO LIOFILIZADO AMPOLLAVAL     1
