CC0001065812763U202100050131420300050131420329/10/20211117    3190189323942196432000022426800001140510000000000000                                                                    EQUIPO MACROGOTEO BAXTER MRC0001SOB     1
CC0001065812763U202100050131420300050131420329/10/20211117    31901893239421964320000Q1AA7100000610620000000000000                                                            CATETER PERIFE INTROCAN # 18G 4251687-04SIN     1
CC0001065812763U202100050131420300050131420329/10/20211117    3190189323942196432000016830000000970620000000000000                                                             SIST FIJACION CAT PERIFERICO 6.5X7 1683SOB     1
CC0001065812763U202100050131420300050131420329/10/20211117    31901893239421964320000E1AB0700003888350000000000000                                                            SOLUCION SALINA 0.9% SLN INY BO X 250 MLBOL     1
