CC0001140828821H202100000555094000000555094029/10/20210600     3300009237421964250000A02BC100001677520000000000000                                                                ESOMEPRAZOL POLVO LIOF INY 40 MG /R/VAL     1
CC0001140828821H202100000555094000000555094029/10/20211741     3300009237421964250000A4AD0200000202990000000000000                                                                     PLITICAN HCL Sln Iny 50 mg/2 mlAMP     4
CC0001140828821H202100000555094000000555094029/10/20210441     3300009237421964250000B1AB0200003939510000000000000                 ENOXAPARINA SODICA 40MG/0.4ML(100MG/ML) SOL INY INST CAJ X 2JERPREL X 0.4ML TECHDOWJRP     1
CC0001140828821H202100000555094000000555094029/10/20212136    31901485237421964250000E1AB0500003888400000000000000                                                              SOLUCION SALINA 0.9% SLN INY X 1000 MLBOL     1
CC0001140828821H202100000555094000000555094029/10/20211245    31902409237421964250000E1AB0500003888400000000000000                                                              SOLUCION SALINA 0.9% SLN INY X 1000 MLBOL     1
CC0001140828821H202100000555094000000555094029/10/20210600     3300009237421964250000H03AA500001315460000000000000                                                                                SYNTHROID TAB 50 MCGTAB     1
CC0001140828821H202100000555094000000555094029/10/20211049     3300009237421964250000J1DA3100000187510000000000000                                                                           ROCEFIN Polvo SLN INY 1 GCIN     4
CC0001140828821H202100000555094000000555094029/10/20212304     3300009237421964250000J3BA0500001278190000000000000                                                                            BACTRIM F TAB 800/160 MGTAB     1
CC0001140828821H202100000555094000000555094029/10/20212304     3300009237421964250000J2AX0200001333950000000000000                                                                                 DIFLUCAN Cap 200 mgCAP     1
CC0001140828821H202100000555094000000555094029/10/20211741     3300009237421964250000N2BB0200000513030000000000000                                                                           LISALGIL Sln Iny 2 g/5 mlAMP     1
CC0001140828821H202100000555094000000555094029/10/20210600     3300009237421964250000N2BB0200000513030000000000000                                                                           LISALGIL Sln Iny 2 g/5 mlAMP     2
CC0001140828821H202100000555094000000555094029/10/20211741     3300009237421964250000N02B1100001169680000000000000                              PARACETAMOL 1000MG/100ML(10MG/ML) SOL INY  VIAL X 100ML FRESENIUS KABIVAL     1
CC0001140828821H202100000555094000000555094029/10/20210600     3300009237421964250000N02B1100001169680000000000000                              PARACETAMOL 1000MG/100ML(10MG/ML) SOL INY  VIAL X 100ML FRESENIUS KABIVAL     2
CC0001140828821H202100000555094000000555094029/10/20211714    31903290237421964250000V07A1300000502600000000000000                                                                                AGUA ESTERIL x 10 mlAMP     5
