RC0001146542960H202100913386102900913386102929/10/20210900    3190330823742196425000024674000000220660000000000000                             JERINGA A 3 PARTES CON AGUJA  SOB X 1 RYMCO  10ML BN EXENTO-DC.417/2020SIN     6
RC0001146542960H202100913386102900913386102929/10/20211209    3190305323742196425000024674000000220660000000000000                             JERINGA A 3 PARTES CON AGUJA  SOB X 1 RYMCO  10ML BN EXENTO-DC.417/2020SIN     6
RC0001146542960H202100913386102900913386102929/10/20211500    3190305323742196425000001956000001620610000000000000                                                                      CONECTOR MICRO CLAVE LAT-MC100SOB     2
RC0001146542960H202100913386102900913386102929/10/20211500    3190305323742196425000000602600001259280000000000000                                                             APOSITO TEGADERM IV PD 1610 5CM X 5.7CMSOB     1
RC0001146542960H202100913386102900913386102929/10/20211500    31903053237421964250000Q1AA7400003911720000000000000                                                            CATETER PERIFE INTROCAN # 24G 4251601-04SOB     3
RC0001146542960H202100913386102900913386102929/10/20211502    3190013523742196425000011082200001407940000000000000                                                              EQUIPO EXT MICROTUBO Y 2 VALVUL 2N8371SOB     1
RC0001146542960H202100913386102900913386102929/10/20211502    3190013523742196425000000602600001259280000000000000                                                             APOSITO TEGADERM IV PD 1610 5CM X 5.7CMSOB     1
RC0001146542960H202100913386102900913386102929/10/20211502    31900135237421964250000Q1AA7400003911720000000000000                                                            CATETER PERIFE INTROCAN # 24G 4251601-04SOB     3
RC0001146542960H202100913386102900913386102929/10/20211731    3190305323742196425000011082200001407940000000000000                                                              EQUIPO EXT MICROTUBO Y 2 VALVUL 2N8371SOB     1
RC0001146542960H202100913386102900913386102929/10/20211942    3190305323742196425000011082900001233450000000000000                                                               EQUIPO LC 5000 PRIMARIO FOTOPRO 0L218SOB     1
