CC0000012566555H202100000555109300000555109329/10/20210858     3300009237421964250000B01A1800001278780000000000000                                                                               XARELTO TAB 15 MG /R/TAB     2
CC0000012566555H202100000555109300000555109329/10/20211800    31902202237421964250000E1AB0300003888390000000000000                                                            SOLUCION SALINA 0.9% SLN INY BO X 500 MLBOL     2
CC0000012566555H202100000555109300000555109329/10/20210858     3300009237421964250000N02B1100001169680000000000000                              PARACETAMOL 1000MG/100ML(10MG/ML) SOL INY  VIAL X 100ML FRESENIUS KABIVAL     1
