RC0001043714288H202100000555096100000555096129/10/20211917     3300009237421964250000H02AB400001140460000000000000                                                              SUCCINA METILPREDNISOLONA 500MG VIA/R/VAL     1
RC0001043714288H202100000555096100000555096129/10/20211810    31500568237421964250000E1AC0100000199400000000000000                                                                          SUERO MIXTO Sln Iny 500 mlBIN     2
RC0001043714288H202100000555096100000555096129/10/20211104     3300009237421964250000N03AA200001302630000000000000                                                                              FENOBARBITAL TAB 50 MGTAB     1
RC0001043714288H202100000555096100000555096129/10/20210641     3300009237421964250000N03AA200001302630000000000000                                                                              FENOBARBITAL TAB 50 MGTAB     1
RC0001043714288H202100000555096100000555096129/10/20211732     3300009237421964250000J01D1200001239960000000000000                                                                              CEFEPIME POLVO INY 1 GVAL     1
