CC0000008753953H202100015112654400015112654429/10/20212058    3190092623742196425000013077800000471960000000000000                                                             GASA NO TEJIDA EST 7.5 X 7.5 SOB X 3 UNSOB     5
CC0000022361987H202100015112654400015112654429/10/20212058    3190092623742196425000013077800000471960000000000000                                                             GASA NO TEJIDA EST 7.5 X 7.5 SOB X 3 UNSOB     5
CC0000008753953H202100015112654400015112654429/10/20212058    3190092623742196425000022426800001140510000000000000                                                                    EQUIPO MACROGOTEO BAXTER MRC0001SOB     1
CC0000008753953H202100015112654400015112654429/10/20212058    3190092623742196425000011082900001233450000000000000                                                               EQUIPO LC 5000 PRIMARIO FOTOPRO 0L218SOB     1
CC0000008753953H202100015112654400015112654429/10/20212058    3190092623742196425000011082700001620070000000000000                                                               EQUIPO SET PRIMARIO C/CLAVE REF 14001BOL     2
CC0000008753953H202100015112654400015112654429/10/20212058    3190092623742196425000000602700001197200000000000000                                                              APOSITO TRANSP  1655 IV 8.5CM X 11.5CMSOB     2
CC0000022361987H202100015112654400015112654429/10/20212058    3190092623742196425000000602700001197200000000000000                                                              APOSITO TRANSP  1655 IV 8.5CM X 11.5CMSOB     2
