CC0000000803789U202100050131416100050131416129/10/20210020    3190317523942196432000038571500001056470000000000000                                                                              SONDA FOLEY #20 3 VIASSOB     1
CC0000000803789U202100050131416100050131416129/10/20210020    3190317523942196432000024674000000220660000000000000                             JERINGA A 3 PARTES CON AGUJA  SOB X 1 RYMCO  10ML BN EXENTO-DC.417/2020SIN     1
CC0000000803789U202100050131416100050131416129/10/20210020    3190317523942196432000043485100001618510000000000000                GUANTE QUIRURGICO DE LATEX REF 2D72N65X CAJ X 50 PROTEXIS  6.5 BN EXENTO-DC.417/2020SOB     2
CC0000000803789U202100050131416100050131416129/10/20210020    3190317523942196432000031188000000236790000000000000                                                                                     CISTOFLO ADULTOSIN     1
CC0000000803789U202100050131416100050131416129/10/20210020    31903175239421964320000E1AB0500003888400000000000000                                                              SOLUCION SALINA 0.9% SLN INY X 1000 MLBOL     1
