CC0001047034752H202100015042509200015042509229/10/20210927    31500107237421964250000V07A1300000502600000000000000                                                                                AGUA ESTERIL x 10 mlAMP    10
CC0001129523937H202100015042509200015042509229/10/20210927    31500107237421964250000V07A1300000502600000000000000                                                                                AGUA ESTERIL x 10 mlAMP    10
CC0001007795121H202100015042509200015042509229/10/20210927    31500107237421964250000V07A1300000502600000000000000                                                                                AGUA ESTERIL x 10 mlAMP    10
RC0001146543342H202100015042509200015042509229/10/20210927    31500107237421964250000V07A1300000502600000000000000                                                                                AGUA ESTERIL x 10 mlAMP    10
TI0001047048202H202100015042509200015042509229/10/20210927    31500107237421964250000V07A1300000502600000000000000                                                                                AGUA ESTERIL x 10 mlAMP    20
CC0001045686959H202100015042509200015042509229/10/20210927    31500107237421964250000V07A1300000502600000000000000                                                                                AGUA ESTERIL x 10 mlAMP    10
RC0001044662561H202100015042509200015042509229/10/20210927    31500107237421964250000V07A1300000502600000000000000                                                                                AGUA ESTERIL x 10 mlAMP    10
TI0001081819374H202100015042509200015042509229/10/20210927    31500107237421964250000V07A1300000502600000000000000                                                                                AGUA ESTERIL x 10 mlAMP     6
RC0001043709109H202100015042509200015042509229/10/20210927    31500107237421964250000V07A1300000502600000000000000                                                                                AGUA ESTERIL x 10 mlAMP    10
TI0001047047240H202100015042509200015042509229/10/20210927    31500107237421964250000V07A1300000502600000000000000                                                                                AGUA ESTERIL x 10 mlAMP    10
CC0001065132676H202100015042509200015042509229/10/20210927    31500107237421964250000V07A1300000502600000000000000                                                                                AGUA ESTERIL x 10 mlAMP    10
CC0001047034752H202100015042509200015042509229/10/20210927    3150010723742196425000024674000000220660000000000000                             JERINGA A 3 PARTES CON AGUJA  SOB X 1 RYMCO  10ML BN EXENTO-DC.417/2020SIN    10
CC0001129523937H202100015042509200015042509229/10/20210927    3150010723742196425000024674000000220660000000000000                             JERINGA A 3 PARTES CON AGUJA  SOB X 1 RYMCO  10ML BN EXENTO-DC.417/2020SIN    15
CC0001007795121H202100015042509200015042509229/10/20210927    3150010723742196425000024674000000220660000000000000                             JERINGA A 3 PARTES CON AGUJA  SOB X 1 RYMCO  10ML BN EXENTO-DC.417/2020SIN    15
RC0001146543342H202100015042509200015042509229/10/20210927    3150010723742196425000024674000000220660000000000000                             JERINGA A 3 PARTES CON AGUJA  SOB X 1 RYMCO  10ML BN EXENTO-DC.417/2020SIN    15
TI0001047048202H202100015042509200015042509229/10/20210927    3150010723742196425000024674000000220660000000000000                             JERINGA A 3 PARTES CON AGUJA  SOB X 1 RYMCO  10ML BN EXENTO-DC.417/2020SIN    30
CC0001045686959H202100015042509200015042509229/10/20210927    3150010723742196425000024674000000220660000000000000                             JERINGA A 3 PARTES CON AGUJA  SOB X 1 RYMCO  10ML BN EXENTO-DC.417/2020SIN    10
TI0001139430724H202100015042509200015042509229/10/20210927    3150010723742196425000024674000000220660000000000000                             JERINGA A 3 PARTES CON AGUJA  SOB X 1 RYMCO  10ML BN EXENTO-DC.417/2020SIN     4
RC0001044662561H202100015042509200015042509229/10/20210927    3150010723742196425000024674000000220660000000000000                             JERINGA A 3 PARTES CON AGUJA  SOB X 1 RYMCO  10ML BN EXENTO-DC.417/2020SIN    10
TI0001081819374H202100015042509200015042509229/10/20210927    3150010723742196425000024674000000220660000000000000                             JERINGA A 3 PARTES CON AGUJA  SOB X 1 RYMCO  10ML BN EXENTO-DC.417/2020SIN    10
RC0001043709109H202100015042509200015042509229/10/20210927    3150010723742196425000024674000000220660000000000000                             JERINGA A 3 PARTES CON AGUJA  SOB X 1 RYMCO  10ML BN EXENTO-DC.417/2020SIN    10
TI0001047047240H202100015042509200015042509229/10/20210927    3150010723742196425000024674000000220660000000000000                             JERINGA A 3 PARTES CON AGUJA  SOB X 1 RYMCO  10ML BN EXENTO-DC.417/2020SIN    10
CC0001065132676H202100015042509200015042509229/10/20210927    3150010723742196425000024674000000220660000000000000                             JERINGA A 3 PARTES CON AGUJA  SOB X 1 RYMCO  10ML BN EXENTO-DC.417/2020SIN    20
CC0001007795121H202100015042509200015042509229/10/20210927    3150010723742196425000043485100001618510000000000000                GUANTE QUIRURGICO DE LATEX REF 2D72N65X CAJ X 50 PROTEXIS  6.5 BN EXENTO-DC.417/2020SOB     1
RC0001146543342H202100015042509200015042509229/10/20210927    3150010723742196425000043485100001618510000000000000                GUANTE QUIRURGICO DE LATEX REF 2D72N65X CAJ X 50 PROTEXIS  6.5 BN EXENTO-DC.417/2020SOB     1
TI0001047048202H202100015042509200015042509229/10/20210927    3150010723742196425000043485100001618510000000000000                GUANTE QUIRURGICO DE LATEX REF 2D72N65X CAJ X 50 PROTEXIS  6.5 BN EXENTO-DC.417/2020SOB     1
CC0001045686959H202100015042509200015042509229/10/20210927    3150010723742196425000043485100001618510000000000000                GUANTE QUIRURGICO DE LATEX REF 2D72N65X CAJ X 50 PROTEXIS  6.5 BN EXENTO-DC.417/2020SOB     1
RC0001043709109H202100015042509200015042509229/10/20210927    3150010723742196425000043485100001618510000000000000                GUANTE QUIRURGICO DE LATEX REF 2D72N65X CAJ X 50 PROTEXIS  6.5 BN EXENTO-DC.417/2020SOB     1
CC0001007795121H202100015042509200015042509229/10/20210927    3150010723742196425000013077800000471960000000000000                                                             GASA NO TEJIDA EST 7.5 X 7.5 SOB X 3 UNSOB     2
RC0001146543342H202100015042509200015042509229/10/20210927    3150010723742196425000013077800000471960000000000000                                                             GASA NO TEJIDA EST 7.5 X 7.5 SOB X 3 UNSOB     4
TI0001047048202H202100015042509200015042509229/10/20210927    3150010723742196425000013077800000471960000000000000                                                             GASA NO TEJIDA EST 7.5 X 7.5 SOB X 3 UNSOB     4
CC0001045686959H202100015042509200015042509229/10/20210927    3150010723742196425000013077800000471960000000000000                                                             GASA NO TEJIDA EST 7.5 X 7.5 SOB X 3 UNSOB     4
RC0001043709109H202100015042509200015042509229/10/20210927    3150010723742196425000013077800000471960000000000000                                                             GASA NO TEJIDA EST 7.5 X 7.5 SOB X 3 UNSOB     2
CC0001007795121H202100015042509200015042509229/10/20210927    3150010723742196425000022426800001140510000000000000                                                                    EQUIPO MACROGOTEO BAXTER MRC0001SOB     1
TI0001047048202H202100015042509200015042509229/10/20210927    3150010723742196425000022426800001140510000000000000                                                                    EQUIPO MACROGOTEO BAXTER MRC0001SOB     3
CC0001047034752H202100015042509200015042509229/10/20210927    3150010723742196425000011082700001620070000000000000                                                               EQUIPO SET PRIMARIO C/CLAVE REF 14001BOL     1
CC0001007795121H202100015042509200015042509229/10/20210927    3150010723742196425000011082700001620070000000000000                                                               EQUIPO SET PRIMARIO C/CLAVE REF 14001BOL     1
RC0001146543342H202100015042509200015042509229/10/20210927    3150010723742196425000011082700001620070000000000000                                                               EQUIPO SET PRIMARIO C/CLAVE REF 14001BOL     2
TI0001047048202H202100015042509200015042509229/10/20210927    3150010723742196425000011082700001620070000000000000                                                               EQUIPO SET PRIMARIO C/CLAVE REF 14001BOL     2
CC0001045686959H202100015042509200015042509229/10/20210927    3150010723742196425000011082700001620070000000000000                                                               EQUIPO SET PRIMARIO C/CLAVE REF 14001BOL     2
TI0001139430724H202100015042509200015042509229/10/20210927    3150010723742196425000011082700001620070000000000000                                                               EQUIPO SET PRIMARIO C/CLAVE REF 14001BOL     1
RC0001043709109H202100015042509200015042509229/10/20210927    3150010723742196425000011082700001620070000000000000                                                               EQUIPO SET PRIMARIO C/CLAVE REF 14001BOL     1
CC0001007795121H202100015042509200015042509229/10/20210927    3150010723742196425000001956000001620610000000000000                                                                      CONECTOR MICRO CLAVE LAT-MC100SOB     1
RC0001146543342H202100015042509200015042509229/10/20210927    3150010723742196425000001956000001620610000000000000                                                                      CONECTOR MICRO CLAVE LAT-MC100SOB     2
TI0001047048202H202100015042509200015042509229/10/20210927    3150010723742196425000001956000001620610000000000000                                                                      CONECTOR MICRO CLAVE LAT-MC100SOB     2
CC0001045686959H202100015042509200015042509229/10/20210927    3150010723742196425000001956000001620610000000000000                                                                      CONECTOR MICRO CLAVE LAT-MC100SOB     2
RC0001043709109H202100015042509200015042509229/10/20210927    3150010723742196425000001956000001620610000000000000                                                                      CONECTOR MICRO CLAVE LAT-MC100SOB     1
CC0001047034752H202100015042509200015042509229/10/20210927    3150010723742196425000030936900001431840000000000000                                                                                              BURETABOL     1
CC0001007795121H202100015042509200015042509229/10/20210927    3150010723742196425000030936900001431840000000000000                                                                                              BURETABOL     1
RC0001146543342H202100015042509200015042509229/10/20210927    3150010723742196425000030936900001431840000000000000                                                                                              BURETABOL     1
TI0001047048202H202100015042509200015042509229/10/20210927    3150010723742196425000030936900001431840000000000000                                                                                              BURETABOL     1
CC0001045686959H202100015042509200015042509229/10/20210927    3150010723742196425000030936900001431840000000000000                                                                                              BURETABOL     1
TI0001139430724H202100015042509200015042509229/10/20210927    3150010723742196425000030936900001431840000000000000                                                                                              BURETABOL     1
RC0001043709109H202100015042509200015042509229/10/20210927    3150010723742196425000030936900001431840000000000000                                                                                              BURETABOL     1
TI0001081819374H202100015042509200015042509229/10/20210927    31500107237421964250000E1AD0300000199490000000000000                                         LACTATO RINGER USP (HARTMANN)  SOL INY  BOL X 1000ML BAXTERBIN     2
CC0001007795121H202100015042509200015042509229/10/20210927    31500107237421964250000E1AB0500003888400000000000000                                                              SOLUCION SALINA 0.9% SLN INY X 1000 MLBOL     2
CC0001045686959H202100015042509200015042509229/10/20210927    31500107237421964250000E1AB0500003888400000000000000                                                              SOLUCION SALINA 0.9% SLN INY X 1000 MLBOL     1
CC0001065132676H202100015042509200015042509229/10/20210927    31500107237421964250000E1AB0500003888400000000000000                                                              SOLUCION SALINA 0.9% SLN INY X 1000 MLBOL     2
RC0001146543342H202100015042509200015042509229/10/20210927    31500107237421964250000E1AC0100000199400000000000000                                                                          SUERO MIXTO Sln Iny 500 mlBIN     3
TI0001047048202H202100015042509200015042509229/10/20210927    31500107237421964250000E1AC0100000199400000000000000                                                                          SUERO MIXTO Sln Iny 500 mlBIN     4
TI0001139430724H202100015042509200015042509229/10/20210927    31500107237421964250000E1AC0100000199400000000000000                                                                          SUERO MIXTO Sln Iny 500 mlBIN     3
RC0001044662561H202100015042509200015042509229/10/20210927    31500107237421964250000E1AC0100000199400000000000000                                                                          SUERO MIXTO Sln Iny 500 mlBIN     3
TI0001047047240H202100015042509200015042509229/10/20210927    31500107237421964250000E1AC0100000199400000000000000                                                                          SUERO MIXTO Sln Iny 500 mlBIN     5
RC0001043710353H202100015042509200015042509229/10/20210927    31500107237421964250000E1AC0100000199400000000000000                                                                          SUERO MIXTO Sln Iny 500 mlBIN     2
