CC0000044150179H202100015022525300015022525329/10/20211737    31902202237421964250000E1AD0300000199490000000000000                                         LACTATO RINGER USP (HARTMANN)  SOL INY  BOL X 1000ML BAXTERBIN     1
RC0001146542960H202100015022525300015022525329/10/20211737    31902202237421964250000E1AB0300003888390000000000000                                                            SOLUCION SALINA 0.9% SLN INY BO X 500 MLBOL     2
CC0000012566555H202100015022525300015022525329/10/20211737    31902202237421964250000E1AB0300003888390000000000000                                                            SOLUCION SALINA 0.9% SLN INY BO X 500 MLBOL     2
TI0001084454864H202100015022525300015022525329/10/20211737    31902202237421964250000E1AB0300003888390000000000000                                                            SOLUCION SALINA 0.9% SLN INY BO X 500 MLBOL     2
TI0001066284726H202100015022525300015022525329/10/20211737    31902202237421964250000E1AC0100000199400000000000000                                                                          SUERO MIXTO Sln Iny 500 mlBIN     1
