TI0001081819374H202100000555111300000555111329/10/20211647    31500107237421964250000E1AD0200003888320000000000000                                                                              HARTMAN SLN INY 500 MLBOL     2
TI0001081819374H202100000555111300000555111329/10/20211647    31500107237421964250000E1AD0300000199490000000000000                                         LACTATO RINGER USP (HARTMANN)  SOL INY  BOL X 1000ML BAXTERBIN     2
TI0001081819374H202100000555111300000555111329/10/20211758     3300009237421964250000H02A0100001664960000000000000                                                                        DEXAMETASONA SLN INY 4 MG/MLAMP     1
TI0001081819374H202100000555111300000555111329/10/20210952     3300009237421964250000H02A0100001664960000000000000                                                                        DEXAMETASONA SLN INY 4 MG/MLAMP     4
TI0001081819374H202100000555111300000555111329/10/20211757     3300009237421964250000S01EC100001300610000000000000                                                                                  VICLEAR TAB 250 MGTAB     1
TI0001081819374H202100000555111300000555111329/10/20210952     3300009237421964250000S01EC100001300610000000000000                                                                                  VICLEAR TAB 250 MGTAB     1
TI0001081819374H202100000555111300000555111329/10/20211647    31500107237421964250000V07A1300000502600000000000000                                                                                AGUA ESTERIL x 10 mlAMP     6
