CC0000022328269H202100913302102900913302102929/10/20210949    3190294023742196425000011137100001419310000000000000                                                               TIRA GLUCOMETRIA FREESTYLE H OPTIUM .PZA     1
CC0000022328269H202100913302102900913302102929/10/20210949    3190294023742196425000024674000000220660000000000000                             JERINGA A 3 PARTES CON AGUJA  SOB X 1 RYMCO  10ML BN EXENTO-DC.417/2020SIN     5
CC0000022328269H202100913302102900913302102929/10/20210949    31902940237421964250000E1AB0200000199290000000000000                                                            SOLUCION SALINA 0.9% SLN INY BO X 100 MLBIN    15
CC0000022328269H202100913302102900913302102929/10/20210949    31902940237421964250000V07A1300000502600000000000000                                                                                AGUA ESTERIL x 10 mlAMP     2
CC0000022328269H202100913302102900913302102929/10/20211031    31902940237421964250000B05B1400001012740000000000000                                                                SOLUCION SALINA 0.45% Sln Iny 500 mlBOL     4
