RC0001044671880U202100050131424100050131424129/10/20211630    3190135523942196432000001956000001620610000000000000                                                                      CONECTOR MICRO CLAVE LAT-MC100SOB     1
RC0001044671880U202100050131424100050131424129/10/20211630    31901355239421964320000Q1AA7400003911720000000000000                                                            CATETER PERIFE INTROCAN # 24G 4251601-04SOB     1
RC0001044671880U202100050131424100050131424129/10/20211630    31901355239421964320000Q1AA3300001585140000000000000                                                                         APOSITO TEGADERM 10*12 1626SOB     1
