TI0001041697876U202100050131426700050131426729/10/20211930    3150024623942196432000024674000000220660000000000000                             JERINGA A 3 PARTES CON AGUJA  SOB X 1 RYMCO  10ML BN EXENTO-DC.417/2020SIN     1
CC0001140901805U202100050131426700050131426729/10/20211930    3150024623942196432000024673600000222980000000000000                                                                     JERINGA DESECHABLE 5 ml 27*11/2SIN     3
CC0001140901805U202100050131426700050131426729/10/20211930    3150024623942196432000011082700001620070000000000000                                                               EQUIPO SET PRIMARIO C/CLAVE REF 14001BOL     1
CC0001140901805U202100050131426700050131426729/10/20211930    31500246239421964320000Q1AA7400003911720000000000000                                                            CATETER PERIFE INTROCAN # 24G 4251601-04SOB     1
CC0001140901805U202100050131426700050131426729/10/20211930    3150024623942196432000030936900001431840000000000000                                                                                              BURETABOL     1
CC0001140901805U202100050131426700050131426729/10/20211930    3150024623942196432000016830000000970620000000000000                                                             SIST FIJACION CAT PERIFERICO 6.5X7 1683SOB     1
CC0001140901805U202100050131426700050131426729/10/20211930    31500246239421964320000E1AD0300000199490000000000000                                         LACTATO RINGER USP (HARTMANN)  SOL INY  BOL X 1000ML BAXTERBIN     1
CC0001140901805U202100050131426700050131426729/10/20211930    31500246239421964320000E1AD0200003888320000000000000                                                                              HARTMAN SLN INY 500 MLBOL     1
