TI0001044214728H202100000555109000000555109029/10/20210854    31903308237421964250000A2BC0900000200150000000000000                                                                               ORAZOLE Sln Iny 40 mgCIN     1
TI0001044214728H202100000555109000000555109029/10/20210854    31903308237421964250000J1DA0200001277350000000000000                                                                                   KEFLEX TAB 500 MGTAB     5
TI0001044214728H202100000555109000000555109029/10/20210843    31903308237421964250000J1DA0200001277350000000000000                                                                                   KEFLEX TAB 500 MGTAB     2
TI0001044214728H202100000555109000000555109029/10/20210854    31903308237421964250000N2BB0500000217140000000000000                                                                          NOVALGINA Sln Iny 1 g/2 mlAMP     3
TI0001044214728H202100000555109000000555109029/10/20210843    31903308237421964250000N2BB0500000217140000000000000                                                                          NOVALGINA Sln Iny 1 g/2 mlAMP     1
TI0001044214728H202100000555109000000555109029/10/20210854    31903308237421964250000N02B1100001169680000000000000                              PARACETAMOL 1000MG/100ML(10MG/ML) SOL INY  VIAL X 100ML FRESENIUS KABIVAL     3
TI0001044214728H202100000555109000000555109029/10/20210843    31903308237421964250000N02B1100001169680000000000000                              PARACETAMOL 1000MG/100ML(10MG/ML) SOL INY  VIAL X 100ML FRESENIUS KABIVAL     2
TI0001044214728H202100000555109000000555109029/10/20210854    31903308237421964250000N7XA0100001277900000000000000                                                                                     ZOLOF TAB 50 MGTAB     2
