CC0001002182810H202100015112652000015112652029/10/20210130    3190235723742196425000024675000001585130000000000000                                                                    JERINGA DESECHABLE 50 ml S/AGUJASOB     1
CC0001002182810H202100015112652000015112652029/10/20210130    3190235723742196425000024674500000322810000000000000                                                                   JERINGA DESECHABLE 20 ml 21*1 1/2SIN     2
CC0001002182810H202100015112652000015112652029/10/20210130    31902357237421964250000Q1AA7000001097160000000000000                                                            CATETER PERIFE INTROCAN # 16G 4251709-04SOB     1
CC0001002182810H202100015112652000015112652029/10/20210130    3190235723742196425000001956000001620610000000000000                                                                      CONECTOR MICRO CLAVE LAT-MC100SOB     1
CC0001002182810H202100015112652000015112652029/10/20210130    3190235723742196425000016830000000970620000000000000                                                             SIST FIJACION CAT PERIFERICO 6.5X7 1683SOB     1
