CC0000077185534H202100000555114800000555114829/10/20211205    31900995237421964250000B1AB0100001227270000000000000                                             HEPAMAX 25000UI/5ML(5000UI/ML) SOL INY  CAJ X 25AMPX5MLAMP     2
CC0000077185534H202100000555114800000555114829/10/20211205    31900995237421964250000C09CA400001277130000000000000                                                                                  LOSARTAN TAB 50 MGTAB     1
CC0000077185534H202100000555114800000555114829/10/20211108    31900995237421964250000C09CA400001277130000000000000                                                                                  LOSARTAN TAB 50 MGTAB     2
CC0000077185534H202100000555114800000555114829/10/20211205    31900995237421964250000C7AB0100001276990000000000000                                                                            BETOPROLOL TAB 50 MG /R/TAB     1
CC0000077185534H202100000555114800000555114829/10/20211108    31900995237421964250000C08CA300001313930000000000000                                                                                AMLODIPINO TAB 10 MGTAB     1
