RC0001146542960H202100015022525100015022525129/10/20211501    3190013523742196425000011082200001407940000000000000                                                              EQUIPO EXT MICROTUBO Y 2 VALVUL 2N8371SOB     1
RC0001146542960H202100015022525100015022525129/10/20211501    31900135237421964250000Q1AA7400003911720000000000000                                                            CATETER PERIFE INTROCAN # 24G 4251601-04SOB     3
RC0001146542960H202100015022525100015022525129/10/20211501    3190013523742196425000000602600001259280000000000000                                                             APOSITO TEGADERM IV PD 1610 5CM X 5.7CMSOB     1
