CC0000032836379H202100015032582600015032582629/10/20212253    3190294923742196425000022426800001140510000000000000                                                                    EQUIPO MACROGOTEO BAXTER MRC0001SOB     1
PA0000141275055H202100015032582600015032582629/10/20212253    3190294923742196425000022426800001140510000000000000                                                                    EQUIPO MACROGOTEO BAXTER MRC0001SOB     1
CC0000022435654H202100015032582600015032582629/10/20212253    3190294923742196425000022426800001140510000000000000                                                                    EQUIPO MACROGOTEO BAXTER MRC0001SOB     1
CE0000000644447H202100015032582600015032582629/10/20212253    3190294923742196425000022426800001140510000000000000                                                                    EQUIPO MACROGOTEO BAXTER MRC0001SOB     1
CC0000013467345H202100015032582600015032582629/10/20212253    3190294923742196425000022426800001140510000000000000                                                                    EQUIPO MACROGOTEO BAXTER MRC0001SOB     1
RC0001048088138H202100015032582600015032582629/10/20212253    3190294923742196425000022426800001140510000000000000                                                                    EQUIPO MACROGOTEO BAXTER MRC0001SOB     1
