CC0000022467890H202100015112654200015112654229/10/20212039    3190099923742196425000011085100001082120000000000000                                                                           GUANTE QUIRURGICO TALLA 7SOB     2
CC0000022467890H202100015112654200015112654229/10/20212039    3190099923742196425000013077800000471960000000000000                                                             GASA NO TEJIDA EST 7.5 X 7.5 SOB X 3 UNSOB    10
CC0000022467890H202100015112654200015112654229/10/20212039    3190099923742196425000042743200003929860000000000000                   GASA ADHESIVA STRETCH REF 02038-00 ROL X 10MT FIXOMULL 15CM BN EXENTO-DC.417/2020CMT    90
CC0000022467890H202100015112654200015112654229/10/20212039    3190099923742196425000042743400003929880000000000000                                    CINTA ADHESIVA TRANSPARENT REF 72216-01 ROL X 10MT FIXOMULL 10CMCMT    90
CC0000022467890H202100015112654200015112654229/10/20212039    3190099923742196425000000601300001271960000000000000                                                               APOSITO DUODERM CGF  187661 (15X15)CMSOB     1
CC0000022467890H202100015112654200015112654229/10/20212039    3190099923742196425000021593100001571610000000000000                                                                    AQUACEL AG+ EXTRA 10*10CM 413567SOB     1
