CC0000000862908U202100050131427200050131427229/10/20212005    3190315823942196432000038570400001123450000000000000                                                                              SONDA FOLEY #24 2 VIASSOB     1
CC0000000862908U202100050131427200050131427229/10/20212005    3190315823942196432000024674000000220660000000000000                             JERINGA A 3 PARTES CON AGUJA  SOB X 1 RYMCO  10ML BN EXENTO-DC.417/2020SIN     1
CC0000000862908U202100050131427200050131427229/10/20212005    3190315823942196432000011085100001082120000000000000                                                                           GUANTE QUIRURGICO TALLA 7SOB     2
CC0000000862908U202100050131427200050131427229/10/20212005    3190315823942196432000013077800000471960000000000000                                                             GASA NO TEJIDA EST 7.5 X 7.5 SOB X 3 UNSOB     5
CC0000000862908U202100050131427200050131427229/10/20212005    3190315823942196432000031188000000236790000000000000                                                                                     CISTOFLO ADULTOSIN     1
