TI0001042265795H202100000555115000000555115029/10/20211112    31500107237421964250000A04A1400001467560000000000000                                                                      ONDANSETRON SLN INY 8 MG/ 4 MLVAL     3
TI0001042265795H202100000555115000000555115029/10/20211112    31500107237421964250000A6AC0200001467010000000000000                                                             LACTULAX JARABE 66.7G/100ML SOX15ML /R/SOB     1
TI0001042265795H202100000555115000000555115029/10/20211112    31500107237421964250000A12CA200001239800000000000000                     BICARBONATO SODIO 10MEQ/10ML(1MEQ/ML) SOL INY  CAJ X 100AMPX10ML FRESENIUS KABIAMP    20
TI0001042265795H202100000555115000000555115029/10/20211112    31500107237421964250000A12CA100001109460000000000000                                                              CLORURO SODIO SLN INY 2 MEQ/ML X 10 MLAMP     7
TI0001042265795H202100000555115000000555115029/10/20211112    31500107237421964250000H02A0100001664960000000000000                                                                        DEXAMETASONA SLN INY 4 MG/MLAMP     1
TI0001042265795H202100000555115000000555115029/10/20211112    31500107237421964250000H02AB700000585860000000000000                                                                HIDROCORTISONA SUCCI POL LIOF 100 MGVAL     6
TI0001042265795H202100000555115000000555115029/10/20211112    31500107237421964250000R3CA0100001051880000000000000                                                               ADRENALINA HCL SLN INY 1 MG / ML ECARAMP     1
TI0001042265795H202100000555115000000555115029/10/20211112    31500107237421964250000C03C0100001672000000000000000                                                                       FUROSEMIDA SLN INY 20 MG/2 MLAMP     3
TI0001042265795H202100000555115000000555115029/10/20211112    31500107237421964250000N05B0500000603400000000000000                                                             HIDROXICINA JBE 250 MG /100 ML X 120 MLFCO     1
