PA0000NY2093186H202100015032580900015032580929/10/20210437    3150038523742196425000001956000001620610000000000000                                                                      CONECTOR MICRO CLAVE LAT-MC100SOB     1
PA0000NY2093186H202100015032580900015032580929/10/20210437    31500385237421964250000Q1AA7300000610640000000000000                                                            CATETER PERIFE INTROCAN # 22G 4251628-04SIN     1
PA0000NY2093186H202100015032580900015032580929/10/20210437    3150038523742196425000016830000000970620000000000000                                                             SIST FIJACION CAT PERIFERICO 6.5X7 1683SOB     1
