CC0000032709639U202100050131425700050131425729/10/20211815    3190271223942196432000049428200000860740000000000000                                                                       VENDA ELASTICA 3*5 NO ESTERILBOL     1
CC0000032709639U202100050131425700050131425729/10/20211815    3190271223942196432000013077800000471960000000000000                                                             GASA NO TEJIDA EST 7.5 X 7.5 SOB X 3 UNSOB     5
CC0000032709639U202100050131425700050131425729/10/20211815    3190271223942196432000042753000003929870000000000000                    GASA ADHESIVA STRETCH REF 02036-00 ROL X 10MT FIXOMULL 5CM BN EXENTO-DC.417/2020CMT    15
CC0000032709639U202100050131425700050131425729/10/20211815    31902712239421964320000E1AB0200000199290000000000000                                                            SOLUCION SALINA 0.9% SLN INY BO X 100 MLBIN     1
