CC0000027001478H202100015012570800015012570829/10/20212108    3150005223742196425000022426800001140510000000000000                                                                    EQUIPO MACROGOTEO BAXTER MRC0001SOB     1
CC0000027001478H202100015012570800015012570829/10/20212108    3150005223742196425000011082700001620070000000000000                                                               EQUIPO SET PRIMARIO C/CLAVE REF 14001BOL     1
CC0000027001478H202100015012570800015012570829/10/20212108    3150005223742196425000030936900001431840000000000000                                                                                              BURETABOL     1
CC0000055163818H202100015012570800015012570829/10/20212108    31500052237421964250000E1AD0300000199490000000000000                                         LACTATO RINGER USP (HARTMANN)  SOL INY  BOL X 1000ML BAXTERBIN     1
PA0000550463017H202100015012570800015012570829/10/20212108    31500052237421964250000E1AD0300000199490000000000000                                         LACTATO RINGER USP (HARTMANN)  SOL INY  BOL X 1000ML BAXTERBIN     1
PA0000PA0802835H202100015012570800015012570829/10/20212108    31500052237421964250000E1AD0300000199490000000000000                                         LACTATO RINGER USP (HARTMANN)  SOL INY  BOL X 1000ML BAXTERBIN     1
CC0000027001478H202100015012570800015012570829/10/20212108    31500052237421964250000E1AD0200003888320000000000000                                                                              HARTMAN SLN INY 500 MLBOL     2
CC0000045437635H202100015012570800015012570829/10/20212108    31500052237421964250000E1AB0500003888400000000000000                                                              SOLUCION SALINA 0.9% SLN INY X 1000 MLBOL     1
CC0000008565480H202100015012570800015012570829/10/20212108    31500052237421964250000E1AB0300003888390000000000000                                                            SOLUCION SALINA 0.9% SLN INY BO X 500 MLBOL     1
CC0000027001478H202100015012570800015012570829/10/20212108    31500052237421964250000E1AC0100000199400000000000000                                                                          SUERO MIXTO Sln Iny 500 mlBIN     2
