CC0000003893524H202100000555105200000555105229/10/20211827     3300009237421964250000V3AB2200000614150000000000000                                                            GLUCONATO CALCIO SLN INY 10% AMP X 10 MLAPC     3
CC0000003893524H202100000555105200000555105229/10/20211006     3300009237421964250000B1AB0200003939510000000000000                 ENOXAPARINA SODICA 40MG/0.4ML(100MG/ML) SOL INY INST CAJ X 2JERPREL X 0.4ML TECHDOWJRP     1
CC0000003893524H202100000555105200000555105229/10/20211923    31500555237421964250000E1AA0800000322190000000000000                                                                          DEXTROSA 5% Sln Iny 250 mlBIN     2
CC0000003893524H202100000555105200000555105229/10/20210926    31500555237421964250000E1AA0800000322190000000000000                                                                          DEXTROSA 5% Sln Iny 250 mlBIN     2
CC0000003893524H202100000555105200000555105229/10/20210654    31500531237421964250000E1AA0800000322190000000000000                                                                          DEXTROSA 5% Sln Iny 250 mlBIN     3
CC0000003893524H202100000555105200000555105229/10/20210654    31500531237421964250000E1AA1400003888550000000000000                                                                         DEXTROSA 10% SLN INY 250 MLBOL     2
CC0000003893524H202100000555105200000555105229/10/20211827     3300009237421964250000C1CA0300000861740000000000000                                                                    DOPAMINA HCL SLN INY 200 MG/5 MLAMP     2
CC0000003893524H202100000555105200000555105229/10/20211006     3300009237421964250000C1CA0300000861740000000000000                                                                    DOPAMINA HCL SLN INY 200 MG/5 MLAMP     2
CC0000003893524H202100000555105200000555105229/10/20211006     3300009237421964250000A2BC0700001335700000000000000                                                                                 OMEPRAZOL CAP 40 MGCAP     1
CC0000003893524H202100000555105200000555105229/10/20211235     3300009237421964250000A10AE300000199150000000000000                                                                 NOVOLIN R SUSP INY 100UI/ML X 10 MLVAL     1
CC0000003893524H202100000555105200000555105229/10/20212115     3300009237421964250000C02C0100001316210000000000000                                                                                     PRATEN TAB 1 MGTAB     2
CC0000003893524H202100000555105200000555105229/10/20211439     3300009237421964250000C03C0100001672000000000000000                                                                       FUROSEMIDA SLN INY 20 MG/2 MLAMP     1
CC0000003893524H202100000555105200000555105229/10/20211006     3300009237421964250000C03C0100001672000000000000000                                                                       FUROSEMIDA SLN INY 20 MG/2 MLAMP     2
CC0000003893524H202100000555105200000555105229/10/20212115     3300009237421964250000C08CA300001313930000000000000                                                                                AMLODIPINO TAB 10 MGTAB     1
