CC0000072133553H202100906700102900906700102929/10/20211934    3190265323742196425000022426800001140510000000000000                                                                    EQUIPO MACROGOTEO BAXTER MRC0001SOB     1
CC0000072133553H202100906700102900906700102929/10/20211934    3190265323742196425000030936900001431840000000000000                                                                                              BURETABOL     1
CC0000072133553H202100906700102900906700102929/10/20211934    31902653237421964250000E1AB0300003888390000000000000                                                            SOLUCION SALINA 0.9% SLN INY BO X 500 MLBOL     1
