RC0001146544533U202100050131418800050131418829/10/20210900    3190016323942196432000001956000001620610000000000000                                                                      CONECTOR MICRO CLAVE LAT-MC100SOB     1
RC0001146544533U202100050131418800050131418829/10/20210900    31900163239421964320000Q1AA7400003911720000000000000                                                            CATETER PERIFE INTROCAN # 24G 4251601-04SOB     1
RC0001146544533U202100050131418800050131418829/10/20210900    3190016323942196432000000602600001259280000000000000                                                             APOSITO TEGADERM IV PD 1610 5CM X 5.7CMSOB     1
