TI0001066284726A202100000027643100000027643129/10/20211107    3190333624042196419000011073300001096420000000000000                                                                BOLSA DE SUCCION DE FLUIDOS x 2500mLBOL     1
TI0001066284726A202100000027643100000027643129/10/20211107    3190333624042196419000020750600000296780000000000000                                                                PLACA ELECTRO RETORNO PACIENTE E7506SIN     1
TI0001066284726A202100000027643100000027643129/10/20211107    3190333624042196419000011082700001620070000000000000                                                               EQUIPO SET PRIMARIO C/CLAVE REF 14001BOL     1
TI0001066284726A202100000027643100000027643129/10/20211107    3190333624042196419000053074400000607910000000000000                                                               GASA ESTERIL 10*10 SOBRE X 3 UNIDADESSOB     3
TI0001066284726A202100000027643100000027643129/10/20211107    3190333624042196419000011085200001585390000000000000                                                                       GUANTE QUIRURGICO TALLA 7 1/2SOB     2
TI0001066284726A202100000027643100000027643129/10/20211107    3190333624042196419000043485100001618510000000000000                GUANTE QUIRURGICO DE LATEX REF 2D72N65X CAJ X 50 PROTEXIS  6.5 BN EXENTO-DC.417/2020SOB     3
TI0001066284726A202100000027643100000027643129/10/20211107    3190333624042196419000051515400000598150000000000000                                                                            MASCARILLA ANESTESIA # 4SIN     1
TI0001066284726A202100000027643100000027643129/10/20211107    3190333624042196419000011099300000777780000000000000                                                                     FILTRO BACTERIANO VIRICO ADULTOBOL     1
TI0001066284726A202100000027643100000027643129/10/20211107    3190333624042196419000039174800001072030000000000000                                                                           TUBO ENDOTRAQUEAL C/B 6.0SOB     1
TI0001066284726A202100000027643100000027643129/10/20211107    3190333624042196419000024673000001411210000000000000                                                                  JERINGA DESECHABLE 3 ML 21 X 1 1/2SOB     1
TI0001066284726A202100000027643100000027643129/10/20211107    3190333624042196419000024673600000222980000000000000                                                                     JERINGA DESECHABLE 5 ml 27*11/2SIN     1
TI0001066284726A202100000027643100000027643129/10/20211107    3190333624042196419000024674000000220660000000000000                             JERINGA A 3 PARTES CON AGUJA  SOB X 1 RYMCO  10ML BN EXENTO-DC.417/2020SIN     4
TI0001066284726A202100000027643100000027643129/10/20211107    3190333624042196419000024674500000322810000000000000                                                                   JERINGA DESECHABLE 20 ml 21*1 1/2SIN     1
TI0001066284726A202100000027643100000027643129/10/20211107    31903336240421964190000E1AD0200003888320000000000000                                                                              HARTMAN SLN INY 500 MLBOL     1
TI0001066284726A202100000027643100000027643129/10/20211107    31903336240421964190000E1AB0300003888390000000000000                                                            SOLUCION SALINA 0.9% SLN INY BO X 500 MLBOL     3
TI0001066284726A202100000027643100000027643129/10/20211107    31903336240421964190000E1AB0700003888350000000000000                                                            SOLUCION SALINA 0.9% SLN INY BO X 250 MLBOL     1
TI0001066284726A202100000027643100000027643129/10/20211107    31903336240421964190000N02B1100001169680000000000000                              PARACETAMOL 1000MG/100ML(10MG/ML) SOL INY  VIAL X 100ML FRESENIUS KABIVAL     1
TI0001066284726A202100000027643100000027643129/10/20211107    31903336240421964190000A4AD0200000202990000000000000                                                                     PLITICAN HCL Sln Iny 50 mg/2 mlAMP     1
TI0001066284726A202100000027643100000027643129/10/20211107    31903336240421964190000M3AC0600000720540000000000000                                                                         ESMERON SLN INY 50 MG /5 MLVAL     1
TI0001066284726A202100000027643100000027643129/10/20211107    3190333624042196419000042743200003929860000000000000                   GASA ADHESIVA STRETCH REF 02038-00 ROL X 10MT FIXOMULL 15CM BN EXENTO-DC.417/2020CMT    30
TI0001066284726A202100000027643100000027643129/10/20211107    31903336240421964190000N2AX0400001204140000000000000                                                                             TRAMAL Sln Iny 50 mg/mlAMP     1
TI0001066284726A202100000027643100000027643129/10/20211107    31903336240421964190000N01BB200000663590000000000000                                                                 LIDOCAINA 2% C/Epin Sln Iny x 10 MLCPL     1
TI0001066284726A202100000027643100000027643129/10/20211107    3190333624042196419000000101000001101640000000000000                                                                  AGUJA DESECHABLE  23G X 1 1/2 PULGSOB     1
TI0001066284726A202100000027643100000027643129/10/20211107    31903336240421964190000A3BB0200000512940000000000000                                                                          BUSCAPINA SIMPLE Iny 20 mgAMP     1
TI0001066284726A202100000027643100000027643129/10/20211107    3190333624042196419000012473200000232210000000000000                                                                 SUTURA ETHILON 3-0 SC-24 45CM  163TSIN     1
TI0001066284726A202100000027643100000027643129/10/20211107    3190333624042196419000030161400001459220000000000000                                                                       MANGUERA SUCCION 6 MM*3.1 MTSSOB     1
TI0001066284726A202100000027643100000027643129/10/20211107    3190333624042196419000045138000001413890000000000000                                                                       LAPIZ ELECTROBISTURI  SOB X 1SOB     1
TI0001066284726A202100000027643100000027643129/10/20211107    3190333624042196419000019488700000753270000000000000                                                                              VICRYL 3-0 SH1 VCP311HSOB     1
TI0001066284726A202100000027643100000027643129/10/20211107    3190333624042196419000043879100001138200000000000000                                                                  HOJA BISTURI # 15 CSSB 15 01002003SOB     1
TI0001066284726A202100000027643100000027643129/10/20211107    3190333624042196419000022425200000548240000000000000                       EXTENSION DE ANESTESIA REF 1139 SOB X 1 SHERLEG  ADULTO BN EXENTO-DC.417/2020SIN     1
TI0001066284726A202100000027643100000027643129/10/20211107    3190333624042196419000035356500003919000000000000000                                                                                        LLAVE 3 VIASSOB     1
TI0001066284726A202100000027643100000027643129/10/20211107    3190333624042196419000022426800001140510000000000000                                                                    EQUIPO MACROGOTEO BAXTER MRC0001SOB     1
TI0001066284726A202100000027643100000027643129/10/20211107    3190333624042196419000016830000000970620000000000000                                                             SIST FIJACION CAT PERIFERICO 6.5X7 1683SOB     1
TI0001066284726A202100000027643100000027643129/10/20211107    31903336240421964190000J01DA300001239950000000000000                                                            CEFAZOLINA SODICA POLVO LIOF SLN INY 1 GVAL     1
