CC0001045684571H202100015112654500015112654529/10/20212221    3190289723742196425000035356500003919000000000000000                                                                                        LLAVE 3 VIASSOB     4
CC0001045684571H202100015112654500015112654529/10/20212221    3190289723742196425000013077800000471960000000000000                                                             GASA NO TEJIDA EST 7.5 X 7.5 SOB X 3 UNSOB    15
CC0001045684571H202100015112654500015112654529/10/20212221    3190289723742196425000022426800001140510000000000000                                                                    EQUIPO MACROGOTEO BAXTER MRC0001SOB     2
CC0001045684571H202100015112654500015112654529/10/20212221    3190289723742196425000011082900001233450000000000000                                                               EQUIPO LC 5000 PRIMARIO FOTOPRO 0L218SOB     1
CC0001045684571H202100015112654500015112654529/10/20212221    3190289723742196425000011082700001620070000000000000                                                               EQUIPO SET PRIMARIO C/CLAVE REF 14001BOL     2
CC0001045684571H202100015112654500015112654529/10/20212221    3190289723742196425000001956000001620610000000000000                                                                      CONECTOR MICRO CLAVE LAT-MC100SOB     1
CC0001045684571H202100015112654500015112654529/10/20212221    31902897237421964250000Q1AA7100000610620000000000000                                                            CATETER PERIFE INTROCAN # 18G 4251687-04SIN     1
CC0001045684571H202100015112654500015112654529/10/20212221    3190289723742196425000030936900001431840000000000000                                                                                              BURETABOL     1
CC0001045684571H202100015112654500015112654529/10/20212221    31902897237421964250000E1AD0300000199490000000000000                                         LACTATO RINGER USP (HARTMANN)  SOL INY  BOL X 1000ML BAXTERBIN     3
CC0001045684571H202100015112654500015112654529/10/20212221    31902897237421964250000E1AB1100003888280000000000000                                                                        SOLUCION SALINA 0.9% X 50 mlBOL     6
CC0001045684571H202100015112654500015112654529/10/20212221    3190289723742196425000011133500001585140000000000000                                                              APOSITO TEGADERM REF 9536HP SOB X 1 3MSOB     1
