TI0001047047240H202100000555111500000555111529/10/20211845     3300009237421964250000A04A1400001467560000000000000                                                                      ONDANSETRON SLN INY 8 MG/ 4 MLVAL     1
TI0001047047240H202100000555111500000555111529/10/20210953     3300009237421964250000A04A1400001467560000000000000                                                                      ONDANSETRON SLN INY 8 MG/ 4 MLVAL     3
TI0001047047240H202100000555111500000555111529/10/20210953     3300009237421964250000A6AC0200001467010000000000000                                                             LACTULAX JARABE 66.7G/100ML SOX15ML /R/SOB     1
TI0001047047240H202100000555111500000555111529/10/20211648    31500107237421964250000E1AC0100000199400000000000000                                                                          SUERO MIXTO Sln Iny 500 mlBIN     6
TI0001047047240H202100000555111500000555111529/10/20211644    31902056237421964250000E1AB0200000199290000000000000                                                            SOLUCION SALINA 0.9% SLN INY BO X 100 MLBIN     1
TI0001047047240H202100000555111500000555111529/10/20211644    31902056237421964250000E1AB0300003888390000000000000                                                            SOLUCION SALINA 0.9% SLN INY BO X 500 MLBOL     1
TI0001047047240H202100000555111500000555111529/10/20210953     3300009237421964250000A12BA100000552980000000000000                                                            CLORURO POTASIO Sln Iny AMP 20 MEQ/10 MLAMP     4
TI0001047047240H202100000555111500000555111529/10/20211146     3300009237421964250000L1BC1400000326020000000000000                                                                   ENDOXAN POLVO SLN INY 1 G X 50 MLVAL     2
TI0001047047240H202100000555111500000555111529/10/20211146     3300009237421964250000L1BC7400001404220000000000000                                                                    VINCRISTINA SULFATO SLN INY 1 MGVAL     2
TI0001047047240H202100000555111500000555111529/10/20211939     3300009237421964250000L1BC7300001675600000000000000                                                                                MESNA Sln Iny 400 mgAMP     1
TI0001047047240H202100000555111500000555111529/10/20211938     3300009237421964250000L1BC7300001675600000000000000                                                                                MESNA Sln Iny 400 mgAMP     1
TI0001047047240H202100000555111500000555111529/10/20211845     3300009237421964250000H2AB0200001276910000000000000                                                                               PREDNISOLONA TAB 5 MGTAB     3
TI0001047047240H202100000555111500000555111529/10/20210953     3300009237421964250000H2AB0200001276910000000000000                                                                               PREDNISOLONA TAB 5 MGTAB     6
TI0001047047240H202100000555111500000555111529/10/20211146     3300009237421964250000L01AX100001425990000000000000                                                                    DACARBAZINE POLVO SLN INY 200 MGFCO     9
TI0001047047240H202100000555111500000555111529/10/20211648    31500107237421964250000V07A1300000502600000000000000                                                                                AGUA ESTERIL x 10 mlAMP    10
