CC0001002076835H202100000555103300000555103329/10/20210544     3300009237421964250000A2BC0900000200150000000000000                                                                               ORAZOLE Sln Iny 40 mgCIN     1
CC0001002076835H202100000555103300000555103329/10/20210545     3300009237421964250000A04A1400001467560000000000000                                                                      ONDANSETRON SLN INY 8 MG/ 4 MLVAL     2
CC0001002076835H202100000555103300000555103329/10/20211519    31500347237421964250000E1AB0300003888390000000000000                                                            SOLUCION SALINA 0.9% SLN INY BO X 500 MLBOL     1
CC0001002076835H202100000555103300000555103329/10/20212314    31500624237421964250000E1AD0300000199490000000000000                                         LACTATO RINGER USP (HARTMANN)  SOL INY  BOL X 1000ML BAXTERBIN     2
CC0001002076835H202100000555103300000555103329/10/20212221     3300009237421964250000N07CA400001335820000000000000                                                                                   PASEDOL TAB 50 MGTAB     1
CC0001002076835H202100000555103300000555103329/10/20211512    31500347237421964250000V07A1300000502600000000000000                                                                                AGUA ESTERIL x 10 mlAMP     5
