RC0001084070572H202100000555123200000555123229/10/20211518     3300009237421964250000A12AA300001416100000000000000                                                             CALCIO CARBONATO+ VIT D3 + ZINC SUSP/V/FCO     1
RC0001084070572H202100000555123200000555123229/10/20211703     3300009237421964250000J01GB100001163250000000000000                                                                  TOBRAMICINA SOL  INHA 300MG/5ML/R/VAL     4
RC0001084070572H202100000555123200000555123229/10/20211528     3300009237421964250000A11AA900001128320000000000000                                                                        PEDIAVIT SLN ORAL FR X 10 MLFCO     1
RC0001084070572H202100000555123200000555123229/10/20211525     3300009237421964250000A12BA100000552980000000000000                                                            CLORURO POTASIO Sln Iny AMP 20 MEQ/10 MLAMP     7
RC0001084070572H202100000555123200000555123229/10/20211907     3300009237421964250000S2BA0200000468180000000000000                                                                   SOLU-MEDROL SLN INY 40 MG/ML  /R/VAL     1
RC0001084070572H202100000555123200000555123229/10/20211525     3300009237421964250000S2BA0200000468180000000000000                                                                   SOLU-MEDROL SLN INY 40 MG/ML  /R/VAL     1
RC0001084070572H202100000555123200000555123229/10/20211907     3300009237421964250000N2BE1100001156170000000000000                                                              ACETAMINOFEN JBE 150 MG / 5 ML X 60 MLFCO     1
