CC0000008721388A202100000027644800000027644829/10/20211647    3190333624042196419000011082700001620070000000000000                                                               EQUIPO SET PRIMARIO C/CLAVE REF 14001BOL     1
CC0000008721388A202100000027644800000027644829/10/20211647    3190333624042196419000049059800000267410000000000000                                                                 MEDIA ANTIEMBOLICA TAL L 3634LF PARBOL     1
CC0000008721388A202100000027644800000027644829/10/20211647    31903336240421964190000B02AA100001407470000000000000                                                                    CLINTRANEX SLN INY 500 MG / 5 MLAMP     2
CC0000008721388A202100000027644800000027644829/10/20211647    3190333624042196419000011082600000265810000000000000                                                              EQUIPO IRRIGACION URINARIA REF MRC4002SOB     1
CC0000008721388A202100000027644800000027644829/10/20211647    31903336240421964190000E1BA0700000198910000000000000                                                                   UROMATIC Sln IRRIGACION X 3000 MLBIN     8
CC0000008721388A202100000027644800000027644829/10/20211647    31903336240421964190000N1BA1900000554750000000000000                                                                     ROXICAINA JALEA 2% TUBO X 30 MLTUB     1
CC0000008721388A202100000027644800000027644829/10/20211647    3190333624042196419000030161400001459220000000000000                                                                       MANGUERA SUCCION 6 MM*3.1 MTSSOB     1
CC0000008721388A202100000027644800000027644829/10/20211647    3190333624042196419000022424500000236720000000000000                                                                     EQUIPO EN Y IRRIGA ARC4005 4006SOB     1
CC0000008721388A202100000027644800000027644829/10/20211647    3190333624042196419000038571900001123510000000000000                                                                              SONDA FOLEY #22 3 VIASSOB     1
CC0000008721388A202100000027644800000027644829/10/20211647    3190333624042196419000031188000000236790000000000000                                                                                     CISTOFLO ADULTOSIN     1
CC0000008721388A202100000027644800000027644829/10/20211647    3190333624042196419000022425200000548240000000000000                       EXTENSION DE ANESTESIA REF 1139 SOB X 1 SHERLEG  ADULTO BN EXENTO-DC.417/2020SIN     1
CC0000008721388A202100000027644800000027644829/10/20211647    3190333624042196419000035356500003919000000000000000                                                                                        LLAVE 3 VIASSOB     2
CC0000008721388A202100000027644800000027644829/10/20211647    31903336240421964190000Q1AA7100000610620000000000000                                                            CATETER PERIFE INTROCAN # 18G 4251687-04SIN     1
CC0000008721388A202100000027644800000027644829/10/20211647    3190333624042196419000022426800001140510000000000000                                                                    EQUIPO MACROGOTEO BAXTER MRC0001SOB     2
CC0000008721388A202100000027644800000027644829/10/20211647    3190333624042196419000016830000000970620000000000000                                                             SIST FIJACION CAT PERIFERICO 6.5X7 1683SOB     1
CC0000008721388A202100000027644800000027644829/10/20211647    31903336240421964190000J01DA300001239950000000000000                                                            CEFAZOLINA SODICA POLVO LIOF SLN INY 1 GVAL     2
CC0000008721388A202100000027644800000027644829/10/20211647    3190333624042196419000020750600000296780000000000000                                                                PLACA ELECTRO RETORNO PACIENTE E7506SIN     1
CC0000008721388A202100000027644800000027644829/10/20211647    3190333624042196419000053074400000607910000000000000                                                               GASA ESTERIL 10*10 SOBRE X 3 UNIDADESSOB     3
CC0000008721388A202100000027644800000027644829/10/20211647    3190333624042196419000011047900000223010000000000000                                                                            JERINGA X 1ML REF 302579SIN     1
CC0000008721388A202100000027644800000027644829/10/20211647    3190333624042196419000024673600000222980000000000000                                                                     JERINGA DESECHABLE 5 ml 27*11/2SIN     3
CC0000008721388A202100000027644800000027644829/10/20211647    3190333624042196419000024674000000220660000000000000                             JERINGA A 3 PARTES CON AGUJA  SOB X 1 RYMCO  10ML BN EXENTO-DC.417/2020SIN     4
CC0000008721388A202100000027644800000027644829/10/20211647    3190333624042196419000024674500000322810000000000000                                                                   JERINGA DESECHABLE 20 ml 21*1 1/2SIN     1
CC0000008721388A202100000027644800000027644829/10/20211647    3190333624042196419000011085200001585390000000000000                                                                       GUANTE QUIRURGICO TALLA 7 1/2SOB     4
CC0000008721388A202100000027644800000027644829/10/20211647    3190333624042196419000011085100001082120000000000000                                                                           GUANTE QUIRURGICO TALLA 7SOB     1
CC0000008721388A202100000027644800000027644829/10/20211647    3190333624042196419000043485100001618510000000000000                GUANTE QUIRURGICO DE LATEX REF 2D72N65X CAJ X 50 PROTEXIS  6.5 BN EXENTO-DC.417/2020SOB     2
CC0000008721388A202100000027644800000027644829/10/20211647    31903336240421964190000Q1A15500001690750000000000000                                                            AGUJA ESPINAL WHITACRE 27*3 1/2  4502027SOB     1
CC0000008721388A202100000027644800000027644829/10/20211647    31903336240421964190000E1AD0200003888320000000000000                                                                              HARTMAN SLN INY 500 MLBOL     2
CC0000008721388A202100000027644800000027644829/10/20211647    31903336240421964190000E1AB0300003888390000000000000                                                            SOLUCION SALINA 0.9% SLN INY BO X 500 MLBOL     2
CC0000008721388A202100000027644800000027644829/10/20211647    31903336240421964190000E1AB0200000199290000000000000                                                            SOLUCION SALINA 0.9% SLN INY BO X 100 MLBIN     1
CC0000008721388A202100000027644800000027644829/10/20211647    31903336240421964190000M01A0400001341250000000000000                                                                              DYNASTAT AMP 40 MG /R/VAL     1
CC0000008721388A202100000027644800000027644829/10/20211647    31903336240421964190000N2BB1100000217160000000000000                                                                      NOVALGINA Sln Iny 2.5 g x 5 mlAMP     1
CC0000008721388A202100000027644800000027644829/10/20211647    31903336240421964190000H02AB500001664950000000000000                                                            DEXAMETASONA SLN INY 8 MG/2 ML AMP /CDS/AMP     1
CC0000008721388A202100000027644800000027644829/10/20211647    31903336240421964190000C01C0300001261020000000000000                                                               ETILEFRINA HCL SLN INY 10 MG/1 ML /R/AMP     1
CC0000008721388A202100000027644800000027644829/10/20211647    31903336240421964190000A3BA0100001109400000000000000                                                                          ATROPINA SLN INY 1 MG / MLAMP     1
CC0000008721388A202100000027644800000027644829/10/20211647    31903336240421964190000N1BA0500000647360000000000000                                                                  BUPIROP 0.5% PESADO SLN INY X 4 MLAPC     1
CC0000008721388A202100000027644800000027644829/10/20211647    31903336240421964190000N01B0200003888110000000000000                                           ROXICAINA SE 100MG/10ML(1%) SOL INY CAJ X 24AMPACK X 10MLAPC     1
CC0000008721388A202100000027644800000027644829/10/20211647    31903336240421964190000N2AA0100000301640000000000000                                                                            MORFINA Sln Iny 10 mg/mlAMP     1
CC0000008721388A202100000027644800000027644829/10/20211647    31903336240421964190000N5CD0300000218170000000000000                                                                          DORMICUM Sln Iny 5 mg/5 mlAMP     1
