CC0001002076835H202100913292102900913292102929/10/20210948    3190062723742196425000016830000000970620000000000000                                                             SIST FIJACION CAT PERIFERICO 6.5X7 1683SOB     1
CC0001002076835H202100913292102900913292102929/10/20210948    31900627237421964250000Q1AA7300000610640000000000000                                                            CATETER PERIFE INTROCAN # 22G 4251628-04SIN     2
CC0001002076835H202100913292102900913292102929/10/20210948    3190062723742196425000001956000001620610000000000000                                                                      CONECTOR MICRO CLAVE LAT-MC100SOB     1
CC0001002076835H202100913292102900913292102929/10/20210948    31900627237421964250000Q1AA7400003911720000000000000                                                            CATETER PERIFE INTROCAN # 24G 4251601-04SOB     3
CC0001002076835H202100913292102900913292102929/10/20211319    31900627237421964250000E1AB0300003888390000000000000                                                            SOLUCION SALINA 0.9% SLN INY BO X 500 MLBOL     1
CC0001002076835H202100913292102900913292102929/10/20211428    3190333123742196425000024674000000220660000000000000                             JERINGA A 3 PARTES CON AGUJA  SOB X 1 RYMCO  10ML BN EXENTO-DC.417/2020SIN    10
CC0001002076835H202100913292102900913292102929/10/20211428    31903331237421964250000V07A1300000502600000000000000                                                                                AGUA ESTERIL x 10 mlAMP     5
