CC0000000162131H202100000555094500000555094529/10/20210607     3300009237421964250000S2BA0100000468160000000000000                                                                          SOLU-CORTEF SNL INY 100 MGVAL     2
CC0000000162131H202100000555094500000555094529/10/20211316     3300009237421964250000A10BH100001305230000000000000                                                                               JANUVIA TAB 50 MG /R/TAB     2
CC0000000162131H202100000555094500000555094529/10/20210607     3300009237421964250000B1AB1200003939350000000000000                 ENOXAPARINA SODICA 80MG/0.8ML(100MG/ML) SOL INY INST CAJ X 2JERPREL X 0.8ML TECHDOWJRP     2
CC0000000162131H202100000555094500000555094529/10/20212136    31901485237421964250000E1AB0300003888390000000000000                                                            SOLUCION SALINA 0.9% SLN INY BO X 500 MLBOL     1
CC0000000162131H202100000555094500000555094529/10/20210032    31500385237421964250000E1AD0200003888320000000000000                                                                              HARTMAN SLN INY 500 MLBOL     1
CC0000000162131H202100000555094500000555094529/10/20210607     3300009237421964250000C3CA0100001278130000000000000                                                                                     LASIX TAB 40 MGTAB     1
CC0000000162131H202100000555094500000555094529/10/20210606     3300009237421964250000C7AB1500001277290000000000000                                                                        BETALOC ZOK TAB LM 50 MG /R/TAB     1
CC0000000162131H202100000555094500000555094529/10/20210607     3300009237421964250000C7FA0200001277980000000000000                                                                                    NORVAS TAB 10 MGTAB     1
CC0000000162131H202100000555094500000555094529/10/20210445     3300009237421964250000J1CB1800001134180000000000000                                                                             TAZOCIN Polvo Iny 4.5 gVAL     1
CC0000000162131H202100000555094500000555094529/10/20211714    31903290237421964250000V07A1300000502600000000000000                                                                                AGUA ESTERIL x 10 mlAMP     5
