CC0001127234783H202100000555095100000555095129/10/20210552     3300009237421964250000A4AD0200000202990000000000000                                                                     PLITICAN HCL Sln Iny 50 mg/2 mlAMP     1
CC0001127234783H202100000555095100000555095129/10/20210033    31500385237421964250000E1AD0200003888320000000000000                                                                              HARTMAN SLN INY 500 MLBOL     1
CC0001127234783H202100000555095100000555095129/10/20210553     3300009237421964250000M01A0400001341250000000000000                                                                              DYNASTAT AMP 40 MG /R/VAL     1
CC0001127234783H202100000555095100000555095129/10/20210553     3300009237421964250000N02B1100001169680000000000000                              PARACETAMOL 1000MG/100ML(10MG/ML) SOL INY  VIAL X 100ML FRESENIUS KABIVAL     2
CC0001127234783H202100000555095100000555095129/10/20210553     3300009237421964250000H1BB0200003888510000000000000                                                                         OXITOCINA SLN INY 10 UI /MLAMP     1
