TI0001146538030U202100000555135800000555135829/10/20212026     3300004239421964320000A4AD0200000202990000000000000                                                                     PLITICAN HCL Sln Iny 50 mg/2 mlAMP     1
TI0001146538030U202100000555135800000555135829/10/20212200     3300004239421964320000A07C0400000953120000000000000                                                            ENTEROLYTE SUERO ORAL 75 MEQ X 400ML /R/FCO     1
TI0001146538030U202100000555135800000555135829/10/20212030    31903158239421964320000E1AD0300000199490000000000000                                         LACTATO RINGER USP (HARTMANN)  SOL INY  BOL X 1000ML BAXTERBIN     1
