NV0000169332059H202100015132503900015132503929/10/20211928    3150051523742196425000030161400001459220000000000000                                                                       MANGUERA SUCCION 6 MM*3.1 MTSSOB     1
NV0000169332059H202100015132503900015132503929/10/20211928    3150051523742196425000019619600000259850000000000000                                                                           SONDA TRACH CARE 6F 196-5SIN     1
NV0000169332059H202100015132503900015132503929/10/20211928    31500515237421964250000Q1AA1000000256790000000000000                                                                         SONDA ASPIRACION CONTROL #8SIN     6
NV0000169332059H202100015132503900015132503929/10/20211928    3150051523742196425000011059500001646260000000000000                                                              RESUCITADOR MANUAL NEONATAL LMI86-8086BOL     1
NV0000169332059H202100015132503900015132503929/10/20211928    3150051523742196425000011059200001636800000000000000                                                                  REANIMADOR CON PIEZA EN T 10-50823PZA     1
NV0000169332059H202100015132503900015132503929/10/20211928    3150051523742196425000025830800001081100000000000000                                                            CIRCUITO VENTILACIÓN NEONATO MVC1774/171BOL     1
NV0000169332059H202100015132503900015132503929/10/20211928    3150051523742196425000020816000001096410000000000000                                                                          LINER PARED DELGADA 1500CCBOL     1
NV0000169332059H202100015132503900015132503929/10/20211928    3150051523742196425000041997500001271900000000000000                                                              APOSITO DUODERM EXTRA THIN 15CM X 15CMSOB     1
NV0000169332059H202100015132503900015132503929/10/20211928    31500515237421964250000E1BA0100000198890000000000000                                                                   AGUA ESTERIL USP SLN INY X 500 MLBIN     2
NV0000169332059H202100015132503900015132503929/10/20211928    31500515237421964250000E1AB0200000199290000000000000                                                            SOLUCION SALINA 0.9% SLN INY BO X 100 MLBIN     1
