CC0000036724804H202100914043102900914043102929/10/20210900    3190330823742196425000024674000000220660000000000000                             JERINGA A 3 PARTES CON AGUJA  SOB X 1 RYMCO  10ML BN EXENTO-DC.417/2020SIN    10
CC0000036724804H202100914043102900914043102929/10/20210900    31903308237421964250000V07A1300000502600000000000000                                                                                AGUA ESTERIL x 10 mlAMP    10
CC0000036724804H202100914043102900914043102929/10/20211209    3190305323742196425000024674000000220660000000000000                             JERINGA A 3 PARTES CON AGUJA  SOB X 1 RYMCO  10ML BN EXENTO-DC.417/2020SIN    10
CC0000036724804H202100914043102900914043102929/10/20211209    31903053237421964250000V07A1300000502600000000000000                                                                                AGUA ESTERIL x 10 mlAMP    10
CC0000036724804H202100914043102900914043102929/10/20211320    3190013523742196425000011082700001620070000000000000                                                               EQUIPO SET PRIMARIO C/CLAVE REF 14001BOL     1
CC0000036724804H202100914043102900914043102929/10/20211320    3190013523742196425000030936900001431840000000000000                                                                                              BURETABOL     1
CC0000036724804H202100914043102900914043102929/10/20211731    3190305323742196425000011082700001620070000000000000                                                               EQUIPO SET PRIMARIO C/CLAVE REF 14001BOL     1
CC0000036724804H202100914043102900914043102929/10/20211731    3190305323742196425000030936900001431840000000000000                                                                                              BURETABOL     1
