CC0000008697210A202100000027641900000027641929/10/20211119    3190333624042196419000042743200003929860000000000000                   GASA ADHESIVA STRETCH REF 02038-00 ROL X 10MT FIXOMULL 15CM BN EXENTO-DC.417/2020CMT    40
CC0000008697210A202100000027641900000027641929/10/20211119    31903336240421964190000A03F0300001626860000000000000                                                                   METOCLOPRAMIDA SLN INY 10 MG/2 MLAMP     1
CC0000008697210A202100000027641900000027641929/10/20211119    31903336240421964190000B02AA100001407470000000000000                                                                    CLINTRANEX SLN INY 500 MG / 5 MLAMP     2
CC0000008697210A202100000027641900000027641929/10/20211119    3190333624042196419000018351400000232860000000000000                                                                                   SEDA 2-0 SH K833HSIN     1
CC0000008697210A202100000027641900000027641929/10/20211119    31903336240421964190000C01CA200001573670000000000000                                                               ETILEFRINA HCL SLN INY 10 MG/1 ML /R/AMP     1
CC0000008697210A202100000027641900000027641929/10/20211119    3190333624042196419000015638600000221740000000000000                                                                          MAQUINA DESECHABLE AFEITARPZA     2
CC0000008697210A202100000027641900000027641929/10/20211119    31903336240421964190000N01A0500003844190000000000000                                                                          REMIFENTANILO SLN INY 2 MGVAL     1
CC0000008697210A202100000027641900000027641929/10/20211119    3190333624042196419000001200400000530690000000000000                                                                          CANULA DE MAYO # 5 (100MM)SIN     1
CC0000008697210A202100000027641900000027641929/10/20211119    3190333624042196419000039175200001072070000000000000                                                                           TUBO ENDOTRAQUEAL C/B 8.0SOB     1
CC0000008697210A202100000027641900000027641929/10/20211119    3190333624042196419000011082600000265810000000000000                                                              EQUIPO IRRIGACION URINARIA REF MRC4002SOB     1
CC0000008697210A202100000027641900000027641929/10/20211119    3190333624042196419000045138000001413890000000000000                                                                       LAPIZ ELECTROBISTURI  SOB X 1SOB     1
CC0000008697210A202100000027641900000027641929/10/20211119    3190333624042196419000042462700003929830000000000000                                                STOQUINETA ORTOPEDICA TUBULAR ROL X 25MT WINER 6PULGCMT     1
CC0000008697210A202100000027641900000027641929/10/20211119    3190333624042196419000030161400001459220000000000000                                                                       MANGUERA SUCCION 6 MM*3.1 MTSSOB     1
CC0000008697210A202100000027641900000027641929/10/20211119    3190333624042196419000019487500000602970000000000000                                                                           VICRYL 2-0 CT1 90 VCP345HSIN     1
CC0000008697210A202100000027641900000027641929/10/20211119    3190333624042196419000019487800001585180000000000000                                                                    VICRYL 1 PLUS 70 CM CT-1 VCP341HSOB     1
CC0000008697210A202100000027641900000027641929/10/20211119    3190333624042196419000012472400000232190000000000000                                                                 SUTURA ETHILON 2-0 SC-26 45CM  164TSIN     1
CC0000008697210A202100000027641900000027641929/10/20211119    3190333624042196419000043879400001138170000000000000                                                                  HOJA BISTURI # 10 CSSB 10 01002000SOB     1
CC0000008697210A202100000027641900000027641929/10/20211119    3190333624042196419000043879500001138210000000000000                                                                                    HOJA BISTURI #20SOB     1
CC0000008697210A202100000027641900000027641929/10/20211119    3190333624042196419000022425200000548240000000000000                       EXTENSION DE ANESTESIA REF 1139 SOB X 1 SHERLEG  ADULTO BN EXENTO-DC.417/2020SIN     1
CC0000008697210A202100000027641900000027641929/10/20211119    3190333624042196419000035356500003919000000000000000                                                                                        LLAVE 3 VIASSOB     2
CC0000008697210A202100000027641900000027641929/10/20211119    31903336240421964190000Q1AA7100000610620000000000000                                                            CATETER PERIFE INTROCAN # 18G 4251687-04SIN     1
CC0000008697210A202100000027641900000027641929/10/20211119    3190333624042196419000022426800001140510000000000000                                                                    EQUIPO MACROGOTEO BAXTER MRC0001SOB     1
CC0000008697210A202100000027641900000027641929/10/20211119    31903336240421964190000J01DA300001239950000000000000                                                            CEFAZOLINA SODICA POLVO LIOF SLN INY 1 GVAL     2
CC0000008697210A202100000027641900000027641929/10/20211119    3190333624042196419000011099300000777780000000000000                                                                     FILTRO BACTERIANO VIRICO ADULTOBOL     1
CC0000008697210A202100000027641900000027641929/10/20211119    3190333624042196419000020750600000296780000000000000                                                                PLACA ELECTRO RETORNO PACIENTE E7506SIN     1
CC0000008697210A202100000027641900000027641929/10/20211119    3190333624042196419000011073300001096420000000000000                                                                BOLSA DE SUCCION DE FLUIDOS x 2500mLBOL     1
CC0000008697210A202100000027641900000027641929/10/20211119    3190333624042196419000053074400000607910000000000000                                                               GASA ESTERIL 10*10 SOBRE X 3 UNIDADESSOB     3
CC0000008697210A202100000027641900000027641929/10/20211119    3190333624042196419000024673000001411210000000000000                                                                  JERINGA DESECHABLE 3 ML 21 X 1 1/2SOB     1
CC0000008697210A202100000027641900000027641929/10/20211119    3190333624042196419000024673600000222980000000000000                                                                     JERINGA DESECHABLE 5 ml 27*11/2SIN     1
CC0000008697210A202100000027641900000027641929/10/20211119    3190333624042196419000024674000000220660000000000000                             JERINGA A 3 PARTES CON AGUJA  SOB X 1 RYMCO  10ML BN EXENTO-DC.417/2020SIN     4
CC0000008697210A202100000027641900000027641929/10/20211119    3190333624042196419000024674500000322810000000000000                                                                   JERINGA DESECHABLE 20 ml 21*1 1/2SIN     1
CC0000008697210A202100000027641900000027641929/10/20211119    3190333624042196419000011085400001083360000000000000                                                                       GUANTE QUIRURGICO TALLA 8 1/2SOB     2
CC0000008697210A202100000027641900000027641929/10/20211119    3190333624042196419000011085300001082140000000000000                                                                           GUANTE QUIRURGICO TALLA 8SOB     2
CC0000008697210A202100000027641900000027641929/10/20211119    3190333624042196419000011085200001585390000000000000                                                                       GUANTE QUIRURGICO TALLA 7 1/2SOB     5
CC0000008697210A202100000027641900000027641929/10/20211119    3190333624042196419000011085100001082120000000000000                                                                           GUANTE QUIRURGICO TALLA 7SOB     4
CC0000008697210A202100000027641900000027641929/10/20211119    3190333624042196419000043485100001618510000000000000                GUANTE QUIRURGICO DE LATEX REF 2D72N65X CAJ X 50 PROTEXIS  6.5 BN EXENTO-DC.417/2020SOB     4
CC0000008697210A202100000027641900000027641929/10/20211119    3190333624042196419000000100600000223090000000000000                                                                      AGUJA DESECHABLE 18G X 1 1/2 PSIN     1
CC0000008697210A202100000027641900000027641929/10/20211119    3190333624042196419000051515500000598160000000000000                                                                            MASCARILLA ANESTESIA # 5SIN     1
CC0000008697210A202100000027641900000027641929/10/20211119    3190333624042196419000038568100000258050000000000000                                                                         CANULA OXIGENO NASAL ADULTOSIN     1
CC0000008697210A202100000027641900000027641929/10/20211119    31903336240421964190000E1AB0300003888390000000000000                                                            SOLUCION SALINA 0.9% SLN INY BO X 500 MLBOL     6
CC0000008697210A202100000027641900000027641929/10/20211119    31903336240421964190000E1AB0200000199290000000000000                                                            SOLUCION SALINA 0.9% SLN INY BO X 100 MLBIN     2
CC0000008697210A202100000027641900000027641929/10/20211119    31903336240421964190000A2BC0900000200150000000000000                                                                               ORAZOLE Sln Iny 40 mgCIN     1
CC0000008697210A202100000027641900000027641929/10/20211119    31903336240421964190000N01B0600003888900000000000000                                                    BUPINEST 75MG/10ML(0.75%) SOL INY CAJ X 24AMPACKAPC     1
CC0000008697210A202100000027641900000027641929/10/20211119    31903336240421964190000H02A0100001664960000000000000                                                                        DEXAMETASONA SLN INY 4 MG/MLAMP     2
CC0000008697210A202100000027641900000027641929/10/20211119    31903336240421964190000M01A2000001664970000000000000                                                               DICLOFENACO SODICO SLN INY 75 MG/3 MLAMP     1
CC0000008697210A202100000027641900000027641929/10/20211119    31903336240421964190000N01B0200003888110000000000000                                           ROXICAINA SE 100MG/10ML(1%) SOL INY CAJ X 24AMPACK X 10MLAPC     1
CC0000008697210A202100000027641900000027641929/10/20211119    31903336240421964190000N2BB0100000787510000000000000                                                                    DIPIRONA SODICA Sln Iny 1 g/2 mlAMP     1
CC0000008697210A202100000027641900000027641929/10/20211119    31903336240421964190000N2AA0400003888080000000000000                                                                     DEMEROL HCL Sln Iny 100 mg/2 mlAMP     1
CC0000008697210A202100000027641900000027641929/10/20211119    31903336240421964190000N1AH0200003906560000000000000                                                                     FENTANIL Iny 0.05 mg/ml x 10 mlAMP     1
