CC0001047034752H202100000555102100000555102129/10/20210534     3300009237421964250000H02AB400001140460000000000000                                                              SUCCINA METILPREDNISOLONA 500MG VIA/R/VAL     1
CC0001047034752H202100000555102100000555102129/10/20210939     3300009237421964250000B03AX100000518540000000000000                                                                RECORMON SLN INY 30000 UI/0.6 ML /R/JRP     1
CC0001047034752H202100000555102100000555102129/10/20211545    31500107237421964250000E1AB0300003888390000000000000                                                            SOLUCION SALINA 0.9% SLN INY BO X 500 MLBOL     1
CC0001047034752H202100000555102100000555102129/10/20210939     3300009237421964250000V6DF2000001629900000000000000                                                                     ENSURE PLUS HN LIQUIDO X 237 MLFCO     2
CC0001047034752H202100000555102100000555102129/10/20210939     3300009237421964250000A02B0800001276960000000000000                                                                                 OMEPRAZOL CAP 20 MGCAP     1
CC0001047034752H202100000555102100000555102129/10/20211545    31500107237421964250000V07A1300000502600000000000000                                                                                AGUA ESTERIL x 10 mlAMP    10
