CC0001045686959H202100000555108500000555108529/10/20211650    31500107237421964250000E1AB0300003888390000000000000                                                            SOLUCION SALINA 0.9% SLN INY BO X 500 MLBOL     2
CC0001045686959H202100000555108500000555108529/10/20211650    31500107237421964250000E1AB0500003888400000000000000                                                              SOLUCION SALINA 0.9% SLN INY X 1000 MLBOL     1
CC0001045686959H202100000555108500000555108529/10/20210826     3300009237421964250000L1BC8300001443700000000000000                                                                   CITARABINA SLN INY 100 MG/ ML /R/VAL     1
CC0001045686959H202100000555108500000555108529/10/20210923     3300009237421964250000L1BC8000003907750000000000000                                           CITARABINA 500MG/5ML(100MG/ML) SOL INY VIAL X 5ML ROPSOHNVAL     1
CC0001045686959H202100000555108500000555108529/10/20210947     3300009237421964250000V6DF2000001629900000000000000                                                                     ENSURE PLUS HN LIQUIDO X 237 MLFCO     2
CC0001045686959H202100000555108500000555108529/10/20210947     3300009237421964250000L03AA100001067620000000000000                                                             ZARZIO SLN INY 30.000.000 UI/0.5 ML /R/JRP     3
CC0001045686959H202100000555108500000555108529/10/20211756     3300009237421964250000J01D1200001239960000000000000                                                                              CEFEPIME POLVO INY 1 GVAL     2
CC0001045686959H202100000555108500000555108529/10/20210947     3300009237421964250000J01D1200001239960000000000000                                                                              CEFEPIME POLVO INY 1 GVAL     4
CC0001045686959H202100000555108500000555108529/10/20210947     3300009237421964250000J01EE400001385080000000000000                                                                  TRIMETOPRIM SULFA F TAB 160+800 MGTAB     1
CC0001045686959H202100000555108500000555108529/10/20210948     3300009237421964250000A02BC700001684270000000000000                                                            OMEPRAZOL 40MG POLVO LIOFILIZADO AMPOLLAVAL     1
CC0001045686959H202100000555108500000555108529/10/20211650    31500107237421964250000V07A1300000502600000000000000                                                                                AGUA ESTERIL x 10 mlAMP    15
