CC0000007467947U202100050131428100050131428129/10/20212050    3150015423942196432000036441300000236540000000000000                                                                    JERINGA 1 ML GASES ARTERIAL 9023SIN     1
CC0000007467947U202100050131428100050131428129/10/20212050    3150015423942196432000043995200000229010000000000000                                                               HUMIDIFICADOR PARA OXIGENO REF. H001BBOL     1
CC0000007467947U202100050131428100050131428129/10/20212050    3150015423942196432000038568100000258050000000000000                                                                         CANULA OXIGENO NASAL ADULTOSIN     1
