CC0000032718053H202100015032582500015032582529/10/20212238    3190233523742196425000011082700001620070000000000000                                                               EQUIPO SET PRIMARIO C/CLAVE REF 14001BOL     1
CC0000032740393H202100015032582500015032582529/10/20212238    3190233523742196425000011082700001620070000000000000                                                               EQUIPO SET PRIMARIO C/CLAVE REF 14001BOL     1
CC0000022435654H202100015032582500015032582529/10/20212238    3190233523742196425000001956000001620610000000000000                                                                      CONECTOR MICRO CLAVE LAT-MC100SOB     1
CC0000032718053H202100015032582500015032582529/10/20212238    3190233523742196425000030936900001431840000000000000                                                                                              BURETABOL     1
CC0000032740393H202100015032582500015032582529/10/20212238    3190233523742196425000030936900001431840000000000000                                                                                              BURETABOL     1
PA0000141275055H202100015032582500015032582529/10/20212238    31902335237421964250000E1AD0300000199490000000000000                                         LACTATO RINGER USP (HARTMANN)  SOL INY  BOL X 1000ML BAXTERBIN     3
PA0000652927857H202100015032582500015032582529/10/20212238    31902335237421964250000E1AD0300000199490000000000000                                         LACTATO RINGER USP (HARTMANN)  SOL INY  BOL X 1000ML BAXTERBIN     2
CC0000032836379H202100015032582500015032582529/10/20212238    31902335237421964250000E1AB0300003888390000000000000                                                            SOLUCION SALINA 0.9% SLN INY BO X 500 MLBOL     3
CC0000032718053H202100015032582500015032582529/10/20212238    31902335237421964250000E1AB0300003888390000000000000                                                            SOLUCION SALINA 0.9% SLN INY BO X 500 MLBOL     2
CC0000022435654H202100015032582500015032582529/10/20212238    31902335237421964250000E1AB0300003888390000000000000                                                            SOLUCION SALINA 0.9% SLN INY BO X 500 MLBOL     2
CE0000000644447H202100015032582500015032582529/10/20212238    31902335237421964250000E1AB0300003888390000000000000                                                            SOLUCION SALINA 0.9% SLN INY BO X 500 MLBOL     3
CC0000032740393H202100015032582500015032582529/10/20212238    31902335237421964250000E1AB0300003888390000000000000                                                            SOLUCION SALINA 0.9% SLN INY BO X 500 MLBOL     2
