CC0000007398827H202100015012570100015012570129/10/20211305    3150034723742196425000011089400001083350000000000000                                                              GUANTE ESTERIL LATEX S/POLVO TALLA 8.0SOB     2
CC0000007398827H202100015012570100015012570129/10/20211305    3150034723742196425000013077800000471960000000000000                                                             GASA NO TEJIDA EST 7.5 X 7.5 SOB X 3 UNSOB     8
CC0000008716890H202100015012570100015012570129/10/20211305    3150034723742196425000011082700001620070000000000000                                                               EQUIPO SET PRIMARIO C/CLAVE REF 14001BOL     1
CC0000008565480H202100015012570100015012570129/10/20211305    3150034723742196425000011127400001413910000000000000                                                            EQUIPO ADMINIST NUTR PUNZON REF 674669 BBOL     1
