CC0000022435654A202100000027646100000027646129/10/20210714    3190333624042196419000000901900000229390000000000000                                                                  MASCARA PARA OXIGENO ADULTO (1041)BIN     1
CC0000022435654A202100000027646100000027646129/10/20210714    3190333624042196419000042743200003929860000000000000                   GASA ADHESIVA STRETCH REF 02038-00 ROL X 10MT FIXOMULL 15CM BN EXENTO-DC.417/2020CMT    20
CC0000022435654A202100000027646100000027646129/10/20210714    31903336240421964190000M03AB100001371510000000000000                                                            ADECUAC SUCCINILCOLINA  100mg/mL SOL INYVAL     1
CC0000022435654A202100000027646100000027646129/10/20210714    3190333624042196419000021052200000380370000000000000                                                                        RESERVORIO J-VAC 100 ml 2160PZA     1
CC0000022435654A202100000027646100000027646129/10/20210714    3190333624042196419000021052100000576790000000000000                                                                   DRENAJE BLAKE PLANO REF 2211  7MMSIN     1
CC0000022435654A202100000027646100000027646129/10/20210714    3190333624042196419000030825800000270990000000000000                                                                  ALGODON ESTERIL SOBRE X 3 TORUNDASPZA     8
CC0000022435654A202100000027646100000027646129/10/20210714    3190333624042196419000018349800000232820000000000000                                                                                  SEDA 2-0 S.A SA85TSIN     1
CC0000022435654A202100000027646100000027646129/10/20210714    3190333624042196419000019488700000753270000000000000                                                                              VICRYL 3-0 SH1 VCP311HSOB     1
CC0000022435654A202100000027646100000027646129/10/20210714    3190333624042196419000015944000000632490000000000000                                                                           MONOCRYL 3-0 PS2  MCP427HSIN     1
CC0000022435654A202100000027646100000027646129/10/20210714    3190333624042196419000043879100001138200000000000000                                                                  HOJA BISTURI # 15 CSSB 15 01002003SOB     1
CC0000022435654A202100000027646100000027646129/10/20210714    3190333624042196419000022425200000548240000000000000                       EXTENSION DE ANESTESIA REF 1139 SOB X 1 SHERLEG  ADULTO BN EXENTO-DC.417/2020SIN     1
CC0000022435654A202100000027646100000027646129/10/20210714    3190333624042196419000035356500003919000000000000000                                                                                        LLAVE 3 VIASSOB     2
CC0000022435654A202100000027646100000027646129/10/20210714    31903336240421964190000Q1AA7100000610620000000000000                                                            CATETER PERIFE INTROCAN # 18G 4251687-04SIN     1
CC0000022435654A202100000027646100000027646129/10/20210714    3190333624042196419000022426800001140510000000000000                                                                    EQUIPO MACROGOTEO BAXTER MRC0001SOB     1
CC0000022435654A202100000027646100000027646129/10/20210714    3190333624042196419000016830000000970620000000000000                                                             SIST FIJACION CAT PERIFERICO 6.5X7 1683SOB     1
CC0000022435654A202100000027646100000027646129/10/20210714    31903336240421964190000J01DA300001239950000000000000                                                            CEFAZOLINA SODICA POLVO LIOF SLN INY 1 GVAL     2
CC0000022435654A202100000027646100000027646129/10/20210714    3190333624042196419000020750600000296780000000000000                                                                PLACA ELECTRO RETORNO PACIENTE E7506SIN     1
CC0000022435654A202100000027646100000027646129/10/20210714    3190333624042196419000053074400000607910000000000000                                                               GASA ESTERIL 10*10 SOBRE X 3 UNIDADESSOB     3
CC0000022435654A202100000027646100000027646129/10/20210714    3190333624042196419000011085200001585390000000000000                                                                       GUANTE QUIRURGICO TALLA 7 1/2SOB     2
CC0000022435654A202100000027646100000027646129/10/20210714    3190333624042196419000011085100001082120000000000000                                                                           GUANTE QUIRURGICO TALLA 7SOB     1
CC0000022435654A202100000027646100000027646129/10/20210714    3190333624042196419000043485100001618510000000000000                GUANTE QUIRURGICO DE LATEX REF 2D72N65X CAJ X 50 PROTEXIS  6.5 BN EXENTO-DC.417/2020SOB     3
CC0000022435654A202100000027646100000027646129/10/20210714    3190333624042196419000051515500000598160000000000000                                                                            MASCARILLA ANESTESIA # 5SIN     1
CC0000022435654A202100000027646100000027646129/10/20210714    3190333624042196419000011099300000777780000000000000                                                                     FILTRO BACTERIANO VIRICO ADULTOBOL     1
CC0000022435654A202100000027646100000027646129/10/20210714    3190333624042196419000031010900000762730000000000000                                                                          CANULA GUEDEL # 4 (100 MM)SOB     1
CC0000022435654A202100000027646100000027646129/10/20210714    3190333624042196419000038569400000256750000000000000                                                                        SONDA ASPIRACION CONTROL #14SIN     1
CC0000022435654A202100000027646100000027646129/10/20210714    3190333624042196419000039175000001072050000000000000                                                                           TUBO ENDOTRAQUEAL C/B 7.0SOB     1
CC0000022435654A202100000027646100000027646129/10/20210714    3190333624042196419000024673600000222980000000000000                                                                     JERINGA DESECHABLE 5 ml 27*11/2SIN     1
CC0000022435654A202100000027646100000027646129/10/20210714    3190333624042196419000024674000000220660000000000000                             JERINGA A 3 PARTES CON AGUJA  SOB X 1 RYMCO  10ML BN EXENTO-DC.417/2020SIN     5
CC0000022435654A202100000027646100000027646129/10/20210714    3190333624042196419000024674500000322810000000000000                                                                   JERINGA DESECHABLE 20 ml 21*1 1/2SIN     2
CC0000022435654A202100000027646100000027646129/10/20210714    31903336240421964190000E1AD0200003888320000000000000                                                                              HARTMAN SLN INY 500 MLBOL     1
CC0000022435654A202100000027646100000027646129/10/20210714    31903336240421964190000E1AB0300003888390000000000000                                                            SOLUCION SALINA 0.9% SLN INY BO X 500 MLBOL     2
CC0000022435654A202100000027646100000027646129/10/20210714    31903336240421964190000E1AB0200000199290000000000000                                                            SOLUCION SALINA 0.9% SLN INY BO X 100 MLBIN     1
CC0000022435654A202100000027646100000027646129/10/20210714    31903336240421964190000N02B1100001169680000000000000                              PARACETAMOL 1000MG/100ML(10MG/ML) SOL INY  VIAL X 100ML FRESENIUS KABIVAL     1
CC0000022435654A202100000027646100000027646129/10/20210714    31903336240421964190000N01A0400003939010000000000000                                               MAYOPROFOL 200MG/20ML(1%) EMUL INY CAJ X 1VIAL X 20MLVAL     1
CC0000022435654A202100000027646100000027646129/10/20210714    31903336240421964190000V3AB1900001177870000000000000                                                                      PROSTIGMINE Sln Iny 0.5 mg/ mlAMP     4
CC0000022435654A202100000027646100000027646129/10/20210714    31903336240421964190000A03F0300001626860000000000000                                                                   METOCLOPRAMIDA SLN INY 10 MG/2 MLAMP     1
CC0000022435654A202100000027646100000027646129/10/20210714    31903336240421964190000M01A0400001341250000000000000                                                                              DYNASTAT AMP 40 MG /R/VAL     1
CC0000022435654A202100000027646100000027646129/10/20210714    31903336240421964190000N2BB1100000217160000000000000                                                                      NOVALGINA Sln Iny 2.5 g x 5 mlAMP     1
CC0000022435654A202100000027646100000027646129/10/20210714    31903336240421964190000H02AB500001664950000000000000                                                            DEXAMETASONA SLN INY 8 MG/2 ML AMP /CDS/AMP     1
CC0000022435654A202100000027646100000027646129/10/20210714    31903336240421964190000A3BA0100001109400000000000000                                                                          ATROPINA SLN INY 1 MG / MLAMP     1
CC0000022435654A202100000027646100000027646129/10/20210714    31903336240421964190000M3AC0600000720540000000000000                                                                         ESMERON SLN INY 50 MG /5 MLVAL     1
CC0000022435654A202100000027646100000027646129/10/20210714    31903336240421964190000N2AA0100000301640000000000000                                                                            MORFINA Sln Iny 10 mg/mlAMP     1
CC0000022435654A202100000027646100000027646129/10/20210714    31903336240421964190000N1AH0200003906560000000000000                                                                     FENTANIL Iny 0.05 mg/ml x 10 mlAMP     1
