RC0001043714288H202100914618102900914618102929/10/20210644    3190310223742196425000043995200000229010000000000000                                                               HUMIDIFICADOR PARA OXIGENO REF. H001BBOL     1
RC0001043714288H202100914618102900914618102929/10/20210644    31903102237421964250000Q1A11800000258040000000000000                                                                         CANULA OXIGENO NASAL PEDIATSIN     1
RC0001043714288H202100914618102900914618102929/10/20210644    31903102237421964250000Q0000200000473250000000000000                                                                             INHALOCAMARA PEDIATRICACIN     1
