PA0000098731680H202100015022525500015022525529/10/20212209    3150015023742196425000022426800001140510000000000000                                                                    EQUIPO MACROGOTEO BAXTER MRC0001SOB     1
CC0000055304216H202100015022525500015022525529/10/20212209    3150015023742196425000022426800001140510000000000000                                                                    EQUIPO MACROGOTEO BAXTER MRC0001SOB     1
CC0000032611702H202100015022525500015022525529/10/20212209    3150015023742196425000022426800001140510000000000000                                                                    EQUIPO MACROGOTEO BAXTER MRC0001SOB     1
RC0001146542960H202100015022525500015022525529/10/20212209    3150015023742196425000011082700001620070000000000000                                                               EQUIPO SET PRIMARIO C/CLAVE REF 14001BOL     1
RC0001146542960H202100015022525500015022525529/10/20212209    3150015023742196425000030936900001431840000000000000                                                                                              BURETABOL     1
PA0000098731680H202100015022525500015022525529/10/20212209    3150015023742196425000030936900001431840000000000000                                                                                              BURETABOL     1
CC0000055304216H202100015022525500015022525529/10/20212209    3150015023742196425000030936900001431840000000000000                                                                                              BURETABOL     1
CC0000032611702H202100015022525500015022525529/10/20212209    3150015023742196425000030936900001431840000000000000                                                                                              BURETABOL     1
