RC0001187466818H202100015122510300015122510329/10/20210201    3190310223742196425000039174100001072160000000000000                                                                           TUBO ENDOTRAQUEAL S/B 5.0SOB     1
RC0001187466818H202100015122510300015122510329/10/20210201    31903102237421964250000Q1AA1000000256790000000000000                                                                         SONDA ASPIRACION CONTROL #8SIN     3
RC0001187466818H202100015122510300015122510329/10/20210201    3190310223742196425000036441300000236540000000000000                                                                    JERINGA 1 ML GASES ARTERIAL 9023SIN     3
RC0001187466818H202100015122510300015122510329/10/20210201    3190310223742196425000024674000000220660000000000000                             JERINGA A 3 PARTES CON AGUJA  SOB X 1 RYMCO  10ML BN EXENTO-DC.417/2020SIN     3
RC0001043714288H202100015122510300015122510329/10/20210201    31903102237421964250000Q0000200000473250000000000000                                                                             INHALOCAMARA PEDIATRICACIN     1
RC0001043714288H202100015122510300015122510329/10/20210201    3190310223742196425000043995200000229010000000000000                                                               HUMIDIFICADOR PARA OXIGENO REF. H001BBOL     1
RC0001187466818H202100015122510300015122510329/10/20210201    3190310223742196425000011044400000516560000000000000                                                             GUIA ENTUBACION PEDIATRIC 10Fr REF85864SIN     1
RC0001187466818H202100015122510300015122510329/10/20210201    3190310223742196425000043485100001618510000000000000                GUANTE QUIRURGICO DE LATEX REF 2D72N65X CAJ X 50 PROTEXIS  6.5 BN EXENTO-DC.417/2020SOB     3
RC0001043714288H202100015122510300015122510329/10/20210201    31903102237421964250000Q1A11800000258040000000000000                                                                         CANULA OXIGENO NASAL PEDIATSIN     1
