CC0001144044612H202100000555103800000555103829/10/20210844     3300009237421964250000A2BC0900000200150000000000000                                                                               ORAZOLE Sln Iny 40 mgCIN     1
CC0001144044612H202100000555103800000555103829/10/20211355     3300009237421964250000A03A0800001177800000000000000                                                                      COLYPAN SLN INY 50 MG/5 ML /R/AMP     1
CC0001144044612H202100000555103800000555103829/10/20210844     3300009237421964250000A03A0800001177800000000000000                                                                      COLYPAN SLN INY 50 MG/5 ML /R/AMP     2
CC0001144044612H202100000555103800000555103829/10/20211533     3300009237421964250000A6AG0400003850280000000000000                                     SALOFALK 4GR/60ML(6.67%) SUSP RECT INST CAJ X 7FCO X 60ML ENEMAFCO     1
CC0001144044612H202100000555103800000555103829/10/20210551    31902978237421964250000E1AD0300000199490000000000000                                         LACTATO RINGER USP (HARTMANN)  SOL INY  BOL X 1000ML BAXTERBIN     1
CC0001144044612H202100000555103800000555103829/10/20211355     3300009237421964250000J3CA0200001208130000000000000                                                                      FLAGYL SLN INY 500 MG X 100 MLBOL     3
CC0001144044612H202100000555103800000555103829/10/20211209    31903053237421964250000V07A1300000502600000000000000                                                                                AGUA ESTERIL x 10 mlAMP     8
