TI0001044223160H202100000555105500000555105529/10/20212305     3300009237421964250000A2BC0900000200150000000000000                                                                               ORAZOLE Sln Iny 40 mgCIN     1
TI0001044223160H202100000555105500000555105529/10/20211735     3300009237421964250000A2BC0900000200150000000000000                                                                               ORAZOLE Sln Iny 40 mgCIN     1
TI0001044223160H202100000555105500000555105529/10/20212137    31901485237421964250000E1AB0300003888390000000000000                                                            SOLUCION SALINA 0.9% SLN INY BO X 500 MLBOL     1
TI0001044223160H202100000555105500000555105529/10/20211655    31500460237421964250000E1AD0200003888320000000000000                                                                              HARTMAN SLN INY 500 MLBOL     1
TI0001044223160H202100000555105500000555105529/10/20211655    31500460237421964250000E1AD0300000199490000000000000                                         LACTATO RINGER USP (HARTMANN)  SOL INY  BOL X 1000ML BAXTERBIN     1
TI0001044223160H202100000555105500000555105529/10/20211735     3300009237421964250000N2BB0100000787510000000000000                                                                    DIPIRONA SODICA Sln Iny 1 g/2 mlAMP     2
TI0001044223160H202100000555105500000555105529/10/20211715    31903290237421964250000V07A1300000502600000000000000                                                                                AGUA ESTERIL x 10 mlAMP     5
