CC0000012566555H202100015022524300015022524329/10/20210951    3190305323742196425000001956000001620610000000000000                                                                      CONECTOR MICRO CLAVE LAT-MC100SOB     2
CC0000012566555H202100015022524300015022524329/10/20210951    31903053237421964250000Q1AA7300000610640000000000000                                                            CATETER PERIFE INTROCAN # 22G 4251628-04SIN     2
CC0000012566555H202100015022524300015022524329/10/20210951    3190305323742196425000016830000000970620000000000000                                                             SIST FIJACION CAT PERIFERICO 6.5X7 1683SOB     2
