CC0001118877233H202100015052702900015052702929/10/20210124    3190296323742196425000013077800000471960000000000000                                                             GASA NO TEJIDA EST 7.5 X 7.5 SOB X 3 UNSOB     5
CC0001143227023H202100015052702900015052702929/10/20210124    3190296323742196425000013077800000471960000000000000                                                             GASA NO TEJIDA EST 7.5 X 7.5 SOB X 3 UNSOB     5
CC0000003951629H202100015052702900015052702929/10/20210124    3190296323742196425000013077800000471960000000000000                                                             GASA NO TEJIDA EST 7.5 X 7.5 SOB X 3 UNSOB     5
CC0001118877233H202100015052702900015052702929/10/20210124    3190296323742196425000042753100003929850000000000000                   GASA ADHESIVA STRETCH REF 02037-00 ROL X 10MT FIXOMULL 10CM BN EXENTO-DC.417/2020CMT    20
CC0000003951629H202100015052702900015052702929/10/20210124    3190296323742196425000042753100003929850000000000000                   GASA ADHESIVA STRETCH REF 02037-00 ROL X 10MT FIXOMULL 10CM BN EXENTO-DC.417/2020CMT    20
