PE0081835652212A202100000027640400000027640429/10/20211256    3190333624042196419000022425200000548240000000000000                       EXTENSION DE ANESTESIA REF 1139 SOB X 1 SHERLEG  ADULTO BN EXENTO-DC.417/2020SIN     1
PE0081835652212A202100000027640400000027640429/10/20211256    3190333624042196419000022426800001140510000000000000                                                                    EQUIPO MACROGOTEO BAXTER MRC0001SOB     1
PE0081835652212A202100000027640400000027640429/10/20211256    3190333624042196419000049059800000267410000000000000                                                                 MEDIA ANTIEMBOLICA TAL L 3634LF PARBOL     1
PE0081835652212A202100000027640400000027640429/10/20211256    3190333624042196419000024674000000220660000000000000                             JERINGA A 3 PARTES CON AGUJA  SOB X 1 RYMCO  10ML BN EXENTO-DC.417/2020SIN     5
PE0081835652212A202100000027640400000027640429/10/20211256    3190333624042196419000024673000001411210000000000000                                                                  JERINGA DESECHABLE 3 ML 21 X 1 1/2SOB     2
PE0081835652212A202100000027640400000027640429/10/20211256    3190333624042196419000024673600000222980000000000000                                                                     JERINGA DESECHABLE 5 ml 27*11/2SIN     1
PE0081835652212A202100000027640400000027640429/10/20211256    3190333624042196419000030161400001459220000000000000                                                                       MANGUERA SUCCION 6 MM*3.1 MTSSOB     1
PE0081835652212A202100000027640400000027640429/10/20211256    3190333624042196419000011073300001096420000000000000                                                                BOLSA DE SUCCION DE FLUIDOS x 2500mLBOL     1
PE0081835652212A202100000027640400000027640429/10/20211256    3190333624042196419000053074400000607910000000000000                                                               GASA ESTERIL 10*10 SOBRE X 3 UNIDADESSOB     3
PE0081835652212A202100000027640400000027640429/10/20211256    3190333624042196419000039175000001072050000000000000                                                                           TUBO ENDOTRAQUEAL C/B 7.0SOB     1
PE0081835652212A202100000027640400000027640429/10/20211256    3190333624042196419000051515500000598160000000000000                                                                            MASCARILLA ANESTESIA # 5SIN     1
PE0081835652212A202100000027640400000027640429/10/20211256    3190333624042196419000035612600000332090000000000000                                                                              MASCARA OXIGENO ADULTOSIN     1
PE0081835652212A202100000027640400000027640429/10/20211256    3190333624042196419000031010900000762730000000000000                                                                          CANULA GUEDEL # 4 (100 MM)SOB     1
PE0081835652212A202100000027640400000027640429/10/20211256    3190333624042196419000011099300000777780000000000000                                                                     FILTRO BACTERIANO VIRICO ADULTOBOL     1
PE0081835652212A202100000027640400000027640429/10/20211256    3190333624042196419000020750600000296780000000000000                                                                PLACA ELECTRO RETORNO PACIENTE E7506SIN     1
PE0081835652212A202100000027640400000027640429/10/20211256    3190333624042196419000011085100001082120000000000000                                                                           GUANTE QUIRURGICO TALLA 7SOB     1
PE0081835652212A202100000027640400000027640429/10/20211256    3190333624042196419000043485100001618510000000000000                GUANTE QUIRURGICO DE LATEX REF 2D72N65X CAJ X 50 PROTEXIS  6.5 BN EXENTO-DC.417/2020SOB     9
PE0081835652212A202100000027640400000027640429/10/20211256    3190333624042196419000033485000001049200000000000000                                                                           GUANTE QUIRURGICO TALLA 6SOB     1
PE0081835652212A202100000027640400000027640429/10/20211256    31903336240421964190000E1AB0300003888390000000000000                                                            SOLUCION SALINA 0.9% SLN INY BO X 500 MLBOL     4
PE0081835652212A202100000027640400000027640429/10/20211256    31903336240421964190000E1AB0700003888350000000000000                                                            SOLUCION SALINA 0.9% SLN INY BO X 250 MLBOL     2
PE0081835652212A202100000027640400000027640429/10/20211256    31903336240421964190000E1AB0200000199290000000000000                                                            SOLUCION SALINA 0.9% SLN INY BO X 100 MLBIN     2
PE0081835652212A202100000027640400000027640429/10/20211256    31903336240421964190000N02B1100001169680000000000000                              PARACETAMOL 1000MG/100ML(10MG/ML) SOL INY  VIAL X 100ML FRESENIUS KABIVAL     1
PE0081835652212A202100000027640400000027640429/10/20211256    31903336240421964190000M1AB0900001019600000000000000                                                                              VOLTAREN Sln Iny 75 mgAMP     1
PE0081835652212A202100000027640400000027640429/10/20211256    31903336240421964190000N2BB1100000217160000000000000                                                                      NOVALGINA Sln Iny 2.5 g x 5 mlAMP     1
PE0081835652212A202100000027640400000027640429/10/20211256    31903336240421964190000B02AA100001407470000000000000                                                                    CLINTRANEX SLN INY 500 MG / 5 MLAMP     2
PE0081835652212A202100000027640400000027640429/10/20211256    31903336240421964190000H02AB500001664950000000000000                                                            DEXAMETASONA SLN INY 8 MG/2 ML AMP /CDS/AMP     1
PE0081835652212A202100000027640400000027640429/10/20211256    31903336240421964190000A2BC0900000200150000000000000                                                                               ORAZOLE Sln Iny 40 mgCIN     1
PE0081835652212A202100000027640400000027640429/10/20211256    31903336240421964190000A03F0300001626860000000000000                                                                   METOCLOPRAMIDA SLN INY 10 MG/2 MLAMP     1
PE0081835652212A202100000027640400000027640429/10/20211256    31903336240421964190000A04A1400001467560000000000000                                                                      ONDANSETRON SLN INY 8 MG/ 4 MLVAL     1
PE0081835652212A202100000027640400000027640429/10/20211256    31903336240421964190000M3AC0600000720540000000000000                                                                         ESMERON SLN INY 50 MG /5 MLVAL     1
PE0081835652212A202100000027640400000027640429/10/20211256    31903336240421964190000N2AA0700001587170000000000000                                                                                 ULTIVA Sln Iny 2 mgVAL     1
PE0081835652212A202100000027640400000027640429/10/20211256    31903336240421964190000E1AD0200003888320000000000000                                                                              HARTMAN SLN INY 500 MLBOL     1
PE0081835652212A202100000027640400000027640429/10/20211256    3190333624042196419000012473200000232210000000000000                                                                 SUTURA ETHILON 3-0 SC-24 45CM  163TSIN     2
PE0081835652212A202100000027640400000027640429/10/20211256    3190333624042196419000015994600000632480000000000000                                                                          MONOCRYL 4-0 PS-2 45 Y496GSIN     2
PE0081835652212A202100000027640400000027640429/10/20211256    3190333624042196419000015944000000632490000000000000                                                                           MONOCRYL 3-0 PS2  MCP427HSIN     2
PE0081835652212A202100000027640400000027640429/10/20211256    3190333624042196419000019487600000599200000000000000                                                                                VICRYL 0 CT1 VCP346HSIN     3
PE0081835652212A202100000027640400000027640429/10/20211256    3190333624042196419000019488700000753270000000000000                                                                              VICRYL 3-0 SH1 VCP311HSOB     1
PE0081835652212A202100000027640400000027640429/10/20211256    3190333624042196419000043879100001138200000000000000                                                                  HOJA BISTURI # 15 CSSB 15 01002003SOB     1
PE0081835652212A202100000027640400000027640429/10/20211256    3190333624042196419000043879400001138170000000000000                                                                  HOJA BISTURI # 10 CSSB 10 01002000SOB     2
PE0081835652212A202100000027640400000027640429/10/20211256    3190333624042196419000045138000001413890000000000000                                                                       LAPIZ ELECTROBISTURI  SOB X 1SOB     1
PE0081835652212A202100000027640400000027640429/10/20211256    31903336240421964190000J1KD1200001361080000000000000                                                                     GENTAMICINA SLN INY 160 MG/2 MLAMP     1
PE0081835652212A202100000027640400000027640429/10/20211256    31903336240421964190000R3CA0400000777470000000000000                                                               ADRENALINA HCL SLN INY 1 MG / ML RYANAMP     1
PE0081835652212A202100000027640400000027640429/10/20211256    31903336240421964190000J01DA300001239950000000000000                                                            CEFAZOLINA SODICA POLVO LIOF SLN INY 1 GVAL     2
PE0081835652212A202100000027640400000027640429/10/20211256    3190333624042196419000016830000000970620000000000000                                                             SIST FIJACION CAT PERIFERICO 6.5X7 1683SOB     1
PE0081835652212A202100000027640400000027640429/10/20211256    31903336240421964190000Q1AA7100000610620000000000000                                                            CATETER PERIFE INTROCAN # 18G 4251687-04SIN     1
PE0081835652212A202100000027640400000027640429/10/20211256    3190333624042196419000035356500003919000000000000000                                                                                        LLAVE 3 VIASSOB     1
