CC0000022568036A202100000027648100000027648129/10/20211800    3190333624042196419000024673600000222980000000000000                                                                     JERINGA DESECHABLE 5 ml 27*11/2SIN     1
CC0000022568036A202100000027648100000027648129/10/20211800    3190333624042196419000016830000000970620000000000000                                                             SIST FIJACION CAT PERIFERICO 6.5X7 1683SOB     1
CC0000022568036A202100000027648100000027648129/10/20211800    31903336240421964190000Q1AA7200000610630000000000000                                                            CATETER PERIFE INTROCAN # 20G 4251644-04SIN     1
CC0000022568036A202100000027648100000027648129/10/20211800    3190333624042196419000011065700003914100000000000000                                                                 TAPON HEPARINIZADO 4238010  B BRAUNSOB     1
CC0000022568036A202100000027648100000027648129/10/20211800    31903336240421964190000N1BA1900000554750000000000000                                                                     ROXICAINA JALEA 2% TUBO X 30 MLTUB     1
CC0000022568036A202100000027648100000027648129/10/20211800    3190333624042196419000022426800001140510000000000000                                                                    EQUIPO MACROGOTEO BAXTER MRC0001SOB     1
CC0000022568036A202100000027648100000027648129/10/20211800    3190333624042196419000053074400000607910000000000000                                                               GASA ESTERIL 10*10 SOBRE X 3 UNIDADESSOB     2
CC0000022568036A202100000027648100000027648129/10/20211800    3190333624042196419000024673000001411210000000000000                                                                  JERINGA DESECHABLE 3 ML 21 X 1 1/2SOB     1
CC0000022568036A202100000027648100000027648129/10/20211800    3190333624042196419000024674000000220660000000000000                             JERINGA A 3 PARTES CON AGUJA  SOB X 1 RYMCO  10ML BN EXENTO-DC.417/2020SIN     1
CC0000022568036A202100000027648100000027648129/10/20211800    3190333624042196419000011085300001082140000000000000                                                                           GUANTE QUIRURGICO TALLA 8SOB     1
CC0000022568036A202100000027648100000027648129/10/20211800    3190333624042196419000011085200001585390000000000000                                                                       GUANTE QUIRURGICO TALLA 7 1/2SOB     1
CC0000022568036A202100000027648100000027648129/10/20211800    3190333624042196419000043485100001618510000000000000                GUANTE QUIRURGICO DE LATEX REF 2D72N65X CAJ X 50 PROTEXIS  6.5 BN EXENTO-DC.417/2020SOB     4
CC0000022568036A202100000027648100000027648129/10/20211800    3190333624042196419000051515500000598160000000000000                                                                            MASCARILLA ANESTESIA # 5SIN     1
CC0000022568036A202100000027648100000027648129/10/20211800    3190333624042196419000038568100000258050000000000000                                                                         CANULA OXIGENO NASAL ADULTOSIN     1
CC0000022568036A202100000027648100000027648129/10/20211800    31903336240421964190000E1AB0300003888390000000000000                                                            SOLUCION SALINA 0.9% SLN INY BO X 500 MLBOL     2
CC0000022568036A202100000027648100000027648129/10/20211800    31903336240421964190000N5BB0300000554910000000000000                                                                         HIDERAX SLN INY 100 MG/2 MLAMP     1
CC0000022568036A202100000027648100000027648129/10/20211800    31903336240421964190000N01A0400003939010000000000000                                               MAYOPROFOL 200MG/20ML(1%) EMUL INY CAJ X 1VIAL X 20MLVAL     1
CC0000022568036A202100000027648100000027648129/10/20211800    31903336240421964190000N1BA2400001195280000000000000                                                                    LIDOCAINA 2% S/E Sln Iny x 10 mlAMP     1
CC0000022568036A202100000027648100000027648129/10/20211800    31903336240421964190000N1AH0200003906560000000000000                                                                     FENTANIL Iny 0.05 mg/ml x 10 mlAMP     1
