CC0000052313277A202100000027647000000027647029/10/20211219    31903336240421964190000N1BA3200000520850000000000000                                                                    BUPIROP 0.5% C/E Sln Iny x 10 mlAPC     1
CC0000052313277A202100000027647000000027647029/10/20211219    3190333624042196419000038568600000256960000000000000                                                                                   SONDA NELATON #14SIN     1
CC0000052313277A202100000027647000000027647029/10/20211219    31903336240421964190000D03A0300000213220000000000000                                                                        FITOSTIMOLINE CREMA 15% 32 GTUB     1
CC0000052313277A202100000027647000000027647029/10/20211219    3190333624042196419000045723200000438720000000000000                                                                                  MECHA GINECOLOGICABIN     1
CC0000052313277A202100000027647000000027647029/10/20211219    31903336240421964190000N1BA1900000554750000000000000                                                                     ROXICAINA JALEA 2% TUBO X 30 MLTUB     1
CC0000052313277A202100000027647000000027647029/10/20211219    3190333624042196419000019494500000458220000000000000                                                                                VICRYL RAPID INC 2-0SIN     1
CC0000052313277A202100000027647000000027647029/10/20211219    3190333624042196419000019487800001585180000000000000                                                                    VICRYL 1 PLUS 70 CM CT-1 VCP341HSOB     1
CC0000052313277A202100000027647000000027647029/10/20211219    3190333624042196419000019487600000599200000000000000                                                                                VICRYL 0 CT1 VCP346HSIN     1
CC0000052313277A202100000027647000000027647029/10/20211219    3190333624042196419000019992200000233160000000000000                                                             VICRYL RAPID INC 4-0 70CM PS2 (VR9922G)SIN     2
CC0000052313277A202100000027647000000027647029/10/20211219    31903336240421964190000A12CA200001239800000000000000                     BICARBONATO SODIO 10MEQ/10ML(1MEQ/ML) SOL INY  CAJ X 100AMPX10ML FRESENIUS KABIAMP     1
CC0000052313277A202100000027647000000027647029/10/20211219    31903336240421964190000N1BA0300000217900000000000000                                                                    BUPIROP 0.5% C/E Sln Iny x 20 mlVAL     1
CC0000052313277A202100000027647000000027647029/10/20211219    3190333624042196419000045138000001413890000000000000                                                                       LAPIZ ELECTROBISTURI  SOB X 1SOB     1
CC0000052313277A202100000027647000000027647029/10/20211219    3190333624042196419000043879100001138200000000000000                                                                  HOJA BISTURI # 15 CSSB 15 01002003SOB     1
CC0000052313277A202100000027647000000027647029/10/20211219    31903336240421964190000J01DA300001239950000000000000                                                            CEFAZOLINA SODICA POLVO LIOF SLN INY 1 GVAL     2
CC0000052313277A202100000027647000000027647029/10/20211219    3190333624042196419000016830000000970620000000000000                                                             SIST FIJACION CAT PERIFERICO 6.5X7 1683SOB     1
CC0000052313277A202100000027647000000027647029/10/20211219    3190333624042196419000035356500003919000000000000000                                                                                        LLAVE 3 VIASSOB     1
CC0000052313277A202100000027647000000027647029/10/20211219    31903336240421964190000Q1AA7100000610620000000000000                                                            CATETER PERIFE INTROCAN # 18G 4251687-04SIN     1
CC0000052313277A202100000027647000000027647029/10/20211219    3190333624042196419000022425200000548240000000000000                       EXTENSION DE ANESTESIA REF 1139 SOB X 1 SHERLEG  ADULTO BN EXENTO-DC.417/2020SIN     1
CC0000052313277A202100000027647000000027647029/10/20211219    3190333624042196419000022426800001140510000000000000                                                                    EQUIPO MACROGOTEO BAXTER MRC0001SOB     1
CC0000052313277A202100000027647000000027647029/10/20211219    3190333624042196419000020750600000296780000000000000                                                                PLACA ELECTRO RETORNO PACIENTE E7506SIN     1
CC0000052313277A202100000027647000000027647029/10/20211219    3190333624042196419000011085200001585390000000000000                                                                       GUANTE QUIRURGICO TALLA 7 1/2SOB     1
CC0000052313277A202100000027647000000027647029/10/20211219    3190333624042196419000011085100001082120000000000000                                                                           GUANTE QUIRURGICO TALLA 7SOB     2
CC0000052313277A202100000027647000000027647029/10/20211219    3190333624042196419000043485100001618510000000000000                GUANTE QUIRURGICO DE LATEX REF 2D72N65X CAJ X 50 PROTEXIS  6.5 BN EXENTO-DC.417/2020SOB     8
CC0000052313277A202100000027647000000027647029/10/20211219    3190333624042196419000053074400000607910000000000000                                                               GASA ESTERIL 10*10 SOBRE X 3 UNIDADESSOB     4
CC0000052313277A202100000027647000000027647029/10/20211219    3190333624042196419000024674000000220660000000000000                             JERINGA A 3 PARTES CON AGUJA  SOB X 1 RYMCO  10ML BN EXENTO-DC.417/2020SIN     3
CC0000052313277A202100000027647000000027647029/10/20211219    3190333624042196419000024673600000222980000000000000                                                                     JERINGA DESECHABLE 5 ml 27*11/2SIN     1
CC0000052313277A202100000027647000000027647029/10/20211219    3190333624042196419000024674500000322810000000000000                                                                   JERINGA DESECHABLE 20 ml 21*1 1/2SIN     1
CC0000052313277A202100000027647000000027647029/10/20211219    3190333624042196419000020060000000225230000000000000                                                               AGUJA SPINOCAN 27G X 3 1/2 PU 4503902SIN     1
CC0000052313277A202100000027647000000027647029/10/20211219    31903336240421964190000E1AB0300003888390000000000000                                                            SOLUCION SALINA 0.9% SLN INY BO X 500 MLBOL     2
CC0000052313277A202100000027647000000027647029/10/20211219    31903336240421964190000E1AB0700003888350000000000000                                                            SOLUCION SALINA 0.9% SLN INY BO X 250 MLBOL     1
CC0000052313277A202100000027647000000027647029/10/20211219    31903336240421964190000A2BC0900000200150000000000000                                                                               ORAZOLE Sln Iny 40 mgCIN     1
CC0000052313277A202100000027647000000027647029/10/20211219    31903336240421964190000A4AD0200000202990000000000000                                                                     PLITICAN HCL Sln Iny 50 mg/2 mlAMP     1
CC0000052313277A202100000027647000000027647029/10/20211219    31903336240421964190000M01A0400001341250000000000000                                                                              DYNASTAT AMP 40 MG /R/VAL     1
CC0000052313277A202100000027647000000027647029/10/20211219    31903336240421964190000N02B1100001169680000000000000                              PARACETAMOL 1000MG/100ML(10MG/ML) SOL INY  VIAL X 100ML FRESENIUS KABIVAL     1
CC0000052313277A202100000027647000000027647029/10/20211219    31903336240421964190000H02AB500001664950000000000000                                                            DEXAMETASONA SLN INY 8 MG/2 ML AMP /CDS/AMP     1
CC0000052313277A202100000027647000000027647029/10/20211219    31903336240421964190000N1BA0500000647360000000000000                                                                  BUPIROP 0.5% PESADO SLN INY X 4 MLAPC     1
CC0000052313277A202100000027647000000027647029/10/20211219    31903336240421964190000N1AH0200003906560000000000000                                                                     FENTANIL Iny 0.05 mg/ml x 10 mlAMP     1
CC0000052313277A202100000027647000000027647029/10/20211219    31903336240421964190000N5CD0300000218170000000000000                                                                          DORMICUM Sln Iny 5 mg/5 mlAMP     1
