CC0001121300461A202100000027648400000027648429/10/20211224    31903336240421964190000S1GA0800000858210000000000000                                                                       AFRIN 0.05% SLN NASAL X 15 MLFCO     1
CC0001121300461A202100000027648400000027648429/10/20211224    3190333624042196419000043879100001138200000000000000                                                                  HOJA BISTURI # 15 CSSB 15 01002003SOB     1
CC0001121300461A202100000027648400000027648429/10/20211224    31903336240421964190000N01B1200000220020000000000000                                                                        ROXICAINA 1% C/E Iny x 20 mlFCO     1
CC0001121300461A202100000027648400000027648429/10/20211224    3190333624042196419000053074400000607910000000000000                                                               GASA ESTERIL 10*10 SOBRE X 3 UNIDADESSOB     1
CC0001121300461A202100000027648400000027648429/10/20211224    3190333624042196419000000101000001101640000000000000                                                                  AGUJA DESECHABLE  23G X 1 1/2 PULGSOB     1
CC0001121300461A202100000027648400000027648429/10/20211224    3190333624042196419000030161400001459220000000000000                                                                       MANGUERA SUCCION 6 MM*3.1 MTSSOB     2
CC0001121300461A202100000027648400000027648429/10/20211224    3190333624042196419000022425200000548240000000000000                       EXTENSION DE ANESTESIA REF 1139 SOB X 1 SHERLEG  ADULTO BN EXENTO-DC.417/2020SIN     1
CC0001121300461A202100000027648400000027648429/10/20211224    3190333624042196419000035356500003919000000000000000                                                                                        LLAVE 3 VIASSOB     2
CC0001121300461A202100000027648400000027648429/10/20211224    31903336240421964190000Q1AA7100000610620000000000000                                                            CATETER PERIFE INTROCAN # 18G 4251687-04SIN     1
CC0001121300461A202100000027648400000027648429/10/20211224    3190333624042196419000022426800001140510000000000000                                                                    EQUIPO MACROGOTEO BAXTER MRC0001SOB     1
CC0001121300461A202100000027648400000027648429/10/20211224    3190333624042196419000016830000000970620000000000000                                                             SIST FIJACION CAT PERIFERICO 6.5X7 1683SOB     1
CC0001121300461A202100000027648400000027648429/10/20211224    31903336240421964190000J01DA300001239950000000000000                                                            CEFAZOLINA SODICA POLVO LIOF SLN INY 1 GVAL     2
CC0001121300461A202100000027648400000027648429/10/20211224    3190333624042196419000011082700001620070000000000000                                                               EQUIPO SET PRIMARIO C/CLAVE REF 14001BOL     1
CC0001121300461A202100000027648400000027648429/10/20211224    3190333624042196419000011085300001082140000000000000                                                                           GUANTE QUIRURGICO TALLA 8SOB     1
CC0001121300461A202100000027648400000027648429/10/20211224    3190333624042196419000011085200001585390000000000000                                                                       GUANTE QUIRURGICO TALLA 7 1/2SOB     3
CC0001121300461A202100000027648400000027648429/10/20211224    3190333624042196419000011085100001082120000000000000                                                                           GUANTE QUIRURGICO TALLA 7SOB     1
CC0001121300461A202100000027648400000027648429/10/20211224    3190333624042196419000043485100001618510000000000000                GUANTE QUIRURGICO DE LATEX REF 2D72N65X CAJ X 50 PROTEXIS  6.5 BN EXENTO-DC.417/2020SOB     1
CC0001121300461A202100000027648400000027648429/10/20211224    3190333624042196419000051515500000598160000000000000                                                                            MASCARILLA ANESTESIA # 5SIN     1
CC0001121300461A202100000027648400000027648429/10/20211224    3190333624042196419000031010900000762730000000000000                                                                          CANULA GUEDEL # 4 (100 MM)SOB     1
CC0001121300461A202100000027648400000027648429/10/20211224    3190333624042196419000038569400000256750000000000000                                                                        SONDA ASPIRACION CONTROL #14SIN     1
CC0001121300461A202100000027648400000027648429/10/20211224    3190333624042196419000039175000001072050000000000000                                                                           TUBO ENDOTRAQUEAL C/B 7.0SOB     1
CC0001121300461A202100000027648400000027648429/10/20211224    3190333624042196419000024673000001411210000000000000                                                                  JERINGA DESECHABLE 3 ML 21 X 1 1/2SOB     1
CC0001121300461A202100000027648400000027648429/10/20211224    3190333624042196419000024673600000222980000000000000                                                                     JERINGA DESECHABLE 5 ml 27*11/2SIN     2
CC0001121300461A202100000027648400000027648429/10/20211224    3190333624042196419000024674000000220660000000000000                             JERINGA A 3 PARTES CON AGUJA  SOB X 1 RYMCO  10ML BN EXENTO-DC.417/2020SIN     3
CC0001121300461A202100000027648400000027648429/10/20211224    3190333624042196419000024674500000322810000000000000                                                                   JERINGA DESECHABLE 20 ml 21*1 1/2SIN     1
CC0001121300461A202100000027648400000027648429/10/20211224    31903336240421964190000E1AB0300003888390000000000000                                                            SOLUCION SALINA 0.9% SLN INY BO X 500 MLBOL     3
CC0001121300461A202100000027648400000027648429/10/20211224    31903336240421964190000E1AB0700003888350000000000000                                                            SOLUCION SALINA 0.9% SLN INY BO X 250 MLBOL     2
CC0001121300461A202100000027648400000027648429/10/20211224    31903336240421964190000N02B1100001169680000000000000                              PARACETAMOL 1000MG/100ML(10MG/ML) SOL INY  VIAL X 100ML FRESENIUS KABIVAL     1
CC0001121300461A202100000027648400000027648429/10/20211224    31903336240421964190000A04A1400001467560000000000000                                                                      ONDANSETRON SLN INY 8 MG/ 4 MLVAL     1
CC0001121300461A202100000027648400000027648429/10/20211224    31903336240421964190000V3AB1900001177870000000000000                                                                      PROSTIGMINE Sln Iny 0.5 mg/ mlAMP     5
CC0001121300461A202100000027648400000027648429/10/20211224    31903336240421964190000A4AD0200000202990000000000000                                                                     PLITICAN HCL Sln Iny 50 mg/2 mlAMP     1
CC0001121300461A202100000027648400000027648429/10/20211224    31903336240421964190000H02AB500001664950000000000000                                                            DEXAMETASONA SLN INY 8 MG/2 ML AMP /CDS/AMP     1
CC0001121300461A202100000027648400000027648429/10/20211224    31903336240421964190000A3BA0100001109400000000000000                                                                          ATROPINA SLN INY 1 MG / MLAMP     1
CC0001121300461A202100000027648400000027648429/10/20211224    31903336240421964190000M3AC0600000720540000000000000                                                                         ESMERON SLN INY 50 MG /5 MLVAL     1
CC0001121300461A202100000027648400000027648429/10/20211224    31903336240421964190000N2AA0700001587170000000000000                                                                                 ULTIVA Sln Iny 2 mgVAL     1
CC0001121300461A202100000027648400000027648429/10/20211224    31903336240421964190000N1AH0200003906560000000000000                                                                     FENTANIL Iny 0.05 mg/ml x 10 mlAMP     1
