CC0000007143570U202100000555133000000555133029/10/20212232    31500547239421964320000E1AD0300000199490000000000000                                         LACTATO RINGER USP (HARTMANN)  SOL INY  BOL X 1000ML BAXTERBIN     1
CC0000007143570U202100000555133000000555133029/10/20212203     3300004239421964320000N02A3100001227160000000000000                                                                    OXYRAPID SLN INY 10 MG/ML X 1 MLAMP     1
CC0000007143570U202100000555133000000555133029/10/20211859     3300004239421964320000N02A3100001227160000000000000                                                                    OXYRAPID SLN INY 10 MG/ML X 1 MLAMP     1
