RC0001187466818H202100000555093200000555093229/10/20210646     330000923742196425000011808300003906600000000000000                                                                MIDAZOLAM SOL INY 50mg/10mL/ VITALISAMP     1
RC0001187466818H202100000555093200000555093229/10/20211500     3300009237421964250000V3AB2200000614150000000000000                                                            GLUCONATO CALCIO SLN INY 10% AMP X 10 MLAPC     1
RC0001187466818H202100000555093200000555093229/10/20210638     3300009237421964250000V3AB2200000614150000000000000                                                            GLUCONATO CALCIO SLN INY 10% AMP X 10 MLAPC     1
RC0001187466818H202100000555093200000555093229/10/20210031     3300010237421964250000V3AB2200000614150000000000000                                                            GLUCONATO CALCIO SLN INY 10% AMP X 10 MLAPC     1
RC0001187466818H202100000555093200000555093229/10/20210030     3300010237421964250000A12BA100000552980000000000000                                                            CLORURO POTASIO Sln Iny AMP 20 MEQ/10 MLAMP     1
RC0001187466818H202100000555093200000555093229/10/20211914     3300009237421964250000C08C0800001277870000000000000                                                                                NIFEDIPINO CAP 10 MGTAB     1
RC0001187466818H202100000555093200000555093229/10/20211102     3300009237421964250000C08C0800001277870000000000000                                                                                NIFEDIPINO CAP 10 MGTAB     1
RC0001187466818H202100000555093200000555093229/10/20210637     3300009237421964250000C08C0800001277870000000000000                                                                                NIFEDIPINO CAP 10 MGTAB     1
RC0001187466818H202100000555093200000555093229/10/20211102     3300009237421964250000S2BA0200000468180000000000000                                                                   SOLU-MEDROL SLN INY 40 MG/ML  /R/VAL     1
RC0001187466818H202100000555093200000555093229/10/20210638     3300009237421964250000S2BA0200000468180000000000000                                                                   SOLU-MEDROL SLN INY 40 MG/ML  /R/VAL     1
RC0001187466818H202100000555093200000555093229/10/20210029     3300010237421964250000S2BA0200000468180000000000000                                                                   SOLU-MEDROL SLN INY 40 MG/ML  /R/VAL     2
RC0001187466818H202100000555093200000555093229/10/20211914     3300009237421964250000J01XA400001212420000000000000                                                               VANCOMICINA POLVO LIOF SLN INY 500 MGVAL     1
RC0001187466818H202100000555093200000555093229/10/20210637     3300009237421964250000J01XA400001212420000000000000                                                               VANCOMICINA POLVO LIOF SLN INY 500 MGVAL     1
RC0001187466818H202100000555093200000555093229/10/20210638     3300009237421964250000M03A1000000553280000000000000                                                                     VECURONIO BROMURO SLN INY 10 MGVAL     1
RC0001187466818H202100000555093200000555093229/10/20210513     3300009237421964250000M03A1000000553280000000000000                                                                     VECURONIO BROMURO SLN INY 10 MGVAL     1
RC0001187466818H202100000555093200000555093229/10/20210638     3300009237421964250000N07X0300003913670000000000000                                    DEXMEDETOMIDINA 400MCG/100ML(4MCG/ML) SOL INY BOL X 100ML BAXTERBOL     1
RC0001187466818H202100000555093200000555093229/10/20212013    31500453237421964250000E1BA0100000198890000000000000                                                                   AGUA ESTERIL USP SLN INY X 500 MLBIN     1
RC0001187466818H202100000555093200000555093229/10/20210638     3300009237421964250000N1AH0200003906560000000000000                                                                     FENTANIL Iny 0.05 mg/ml x 10 mlAMP     2
RC0001187466818H202100000555093200000555093229/10/20211731     3300009237421964250000C03C0100001672000000000000000                                                                       FUROSEMIDA SLN INY 20 MG/2 MLAMP     1
RC0001187466818H202100000555093200000555093229/10/20211103     3300009237421964250000C03C0100001672000000000000000                                                                       FUROSEMIDA SLN INY 20 MG/2 MLAMP     1
RC0001187466818H202100000555093200000555093229/10/20210031     3300010237421964250000C03C0100001672000000000000000                                                                       FUROSEMIDA SLN INY 20 MG/2 MLAMP     1
RC0001187466818H202100000555093200000555093229/10/20211102     3300009237421964250000J01D1200001239960000000000000                                                                              CEFEPIME POLVO INY 1 GVAL     1
RC0001187466818H202100000555093200000555093229/10/20210027     3300010237421964250000J01D1200001239960000000000000                                                                              CEFEPIME POLVO INY 1 GVAL     1
RC0001187466818H202100000555093200000555093229/10/20211731     3300009237421964250000J01F0200001689390000000000000                                                                        CLINDAMICINA INY 600 MG/4 MLAMP     1
RC0001187466818H202100000555093200000555093229/10/20211102     3300009237421964250000J01F0200001689390000000000000                                                                        CLINDAMICINA INY 600 MG/4 MLAMP     1
RC0001187466818H202100000555093200000555093229/10/20210637     3300009237421964250000J01F0200001689390000000000000                                                                        CLINDAMICINA INY 600 MG/4 MLAMP     1
RC0001187466818H202100000555093200000555093229/10/20210027     3300010237421964250000J01F0200001689390000000000000                                                                        CLINDAMICINA INY 600 MG/4 MLAMP     1
RC0001187466818H202100000555093200000555093229/10/20211731     3300009237421964250000N2BB0100000787510000000000000                                                                    DIPIRONA SODICA Sln Iny 1 g/2 mlAMP     1
RC0001187466818H202100000555093200000555093229/10/20211102     3300009237421964250000N2BB0100000787510000000000000                                                                    DIPIRONA SODICA Sln Iny 1 g/2 mlAMP     1
RC0001187466818H202100000555093200000555093229/10/20210638     3300009237421964250000N2BB0100000787510000000000000                                                                    DIPIRONA SODICA Sln Iny 1 g/2 mlAMP     1
RC0001187466818H202100000555093200000555093229/10/20210031     3300010237421964250000N2BB0100000787510000000000000                                                                    DIPIRONA SODICA Sln Iny 1 g/2 mlAMP     1
RC0001187466818H202100000555093200000555093229/10/20210638     3300009237421964250000A02BC700001684270000000000000                                                            OMEPRAZOL 40MG POLVO LIOFILIZADO AMPOLLAVAL     1
