CC0000022435654H202100000555133500000555133529/10/20212305     3300009237421964250000A11C0600001389430000000000000                                                                             CALCITRIOL CAP 0.25 MCGCAP     4
CC0000022435654H202100000555133500000555133529/10/20212305     3300009237421964250000A12AA500001379260000000000000                                                                             OSTEOCAL TAB 600 MG /R/TAB     4
CC0000022435654H202100000555133500000555133529/10/20211920     3300009237421964250000A12AA500001379260000000000000                                                                             OSTEOCAL TAB 600 MG /R/TAB     4
CC0000022435654H202100000555133500000555133529/10/20211920     3300009237421964250000V3AB2200000614150000000000000                                                            GLUCONATO CALCIO SLN INY 10% AMP X 10 MLAPC     4
CC0000022435654H202100000555133500000555133529/10/20212136    31901485237421964250000E1AB0300003888390000000000000                                                            SOLUCION SALINA 0.9% SLN INY BO X 500 MLBOL     1
CC0000022435654H202100000555133500000555133529/10/20211920     3300009237421964250000H03A0900001278900000000000000                                                                                   EUTIROX TB 75 MCGTAB     2
CC0000022435654H202100000555133500000555133529/10/20211920     3300009237421964250000N02B1100001169680000000000000                              PARACETAMOL 1000MG/100ML(10MG/ML) SOL INY  VIAL X 100ML FRESENIUS KABIVAL     4
