CC0000021812575H202100015052703900015052703929/10/20211007    3190265323742196425000038573100000256880000000000000                                                                                 SONDA NSG LEVIN #18SIN     1
CC0001143120182H202100015052703900015052703929/10/20211007    3190265323742196425000011522500000994380000000000000                                                                    SONDA FOLEY SILICONA # 16 2 VIASSOB     1
CC0001143120182H202100015052703900015052703929/10/20211007    3190265323742196425000024674500000322810000000000000                                                                   JERINGA DESECHABLE 20 ml 21*1 1/2SIN     2
CC0001143120182H202100015052703900015052703929/10/20211007    3190265323742196425000024674000000220660000000000000                             JERINGA A 3 PARTES CON AGUJA  SOB X 1 RYMCO  10ML BN EXENTO-DC.417/2020SIN    10
CC0001143120182H202100015052703900015052703929/10/20211007    3190265323742196425000000102300000222960000000000000                                                                 JERINGA DESECHABLE SIN AGUJA X 20mLSIN     1
CC0001143120182H202100015052703900015052703929/10/20211007    31902653237421964250000Q1A13500001585200000000000000                        JERINGA PUNTA CAT SIN AGUJA REF 309620 CAJ X 40   50ML BN EXENTO-DC.417/2020SOB     2
CC0001143120182H202100015052703900015052703929/10/20211007    3190265323742196425000022426800001140510000000000000                                                                    EQUIPO MACROGOTEO BAXTER MRC0001SOB     3
CC0001143120182H202100015052703900015052703929/10/20211007    3190265323742196425000011082900001233450000000000000                                                               EQUIPO LC 5000 PRIMARIO FOTOPRO 0L218SOB     2
CC0001143120182H202100015052703900015052703929/10/20211007    3190265323742196425000011082700001620070000000000000                                                               EQUIPO SET PRIMARIO C/CLAVE REF 14001BOL     1
CC0001143120182H202100015052703900015052703929/10/20211007    3190265323742196425000031188000000236790000000000000                                                                                     CISTOFLO ADULTOSIN     2
CC0001143120182H202100015052703900015052703929/10/20211007    3190265323742196425000001956000001620610000000000000                                                                      CONECTOR MICRO CLAVE LAT-MC100SOB     2
CC0001143120182H202100015052703900015052703929/10/20211007    31902653237421964250000Q1AA7200000610630000000000000                                                            CATETER PERIFE INTROCAN # 20G 4251644-04SIN     1
CC0001143120182H202100015052703900015052703929/10/20211007    31902653237421964250000Q1AA7300000610640000000000000                                                            CATETER PERIFE INTROCAN # 22G 4251628-04SIN     1
CC0001143120182H202100015052703900015052703929/10/20211007    31902653237421964250000E1AA0400003888560000000000000                                                                         DEXTROSA 10% SLN INY 500 MLBOL     1
CC0000021812575H202100015052703900015052703929/10/20211007    31902653237421964250000E1AB0300003888390000000000000                                                            SOLUCION SALINA 0.9% SLN INY BO X 500 MLBOL     1
CC0001143120182H202100015052703900015052703929/10/20211007    31902653237421964250000E1AB0200000199290000000000000                                                            SOLUCION SALINA 0.9% SLN INY BO X 100 MLBIN     5
CC0001143120182H202100015052703900015052703929/10/20211007    3190265323742196425000011137100001419310000000000000                                                               TIRA GLUCOMETRIA FREESTYLE H OPTIUM .PZA     5
