CC0000017138066H202100000555099800000555099829/10/20211449     3300009237421964250000B1AB0200003939510000000000000                 ENOXAPARINA SODICA 40MG/0.4ML(100MG/ML) SOL INY INST CAJ X 2JERPREL X 0.4ML TECHDOWJRP     1
CC0000017138066H202100000555099800000555099829/10/20211352     3300009237421964250000B1AB0200003939510000000000000                 ENOXAPARINA SODICA 40MG/0.4ML(100MG/ML) SOL INY INST CAJ X 2JERPREL X 0.4ML TECHDOWJRP     1
CC0000017138066H202100000555099800000555099829/10/20210500     3300009237421964250000B1AB1200003939350000000000000                 ENOXAPARINA SODICA 80MG/0.8ML(100MG/ML) SOL INY INST CAJ X 2JERPREL X 0.8ML TECHDOWJRP     2
CC0000017138066H202100000555099800000555099829/10/20211016     3300009237421964250000N05A1300000614370000000000000                                                                       HALOPERIDOL SLN INY 5 MG / MLAMP     1
CC0000017138066H202100000555099800000555099829/10/20210500     3300009237421964250000N05A1300000614370000000000000                                                                       HALOPERIDOL SLN INY 5 MG / MLAMP     4
CC0000017138066H202100000555099800000555099829/10/20210501     3300009237421964250000A02BC700001684270000000000000                                                            OMEPRAZOL 40MG POLVO LIOFILIZADO AMPOLLAVAL     2
CC0000017138066H202100000555099800000555099829/10/20210724    31900998237421964250000V07A1300000502600000000000000                                                                                AGUA ESTERIL x 10 mlAMP     5
