CC0000036724804H202100015022524900015022524929/10/20211353    3190305323742196425000001956000001620610000000000000                                                                      CONECTOR MICRO CLAVE LAT-MC100SOB     2
CC0000022647568H202100015022524900015022524929/10/20211353    3190305323742196425000001956000001620610000000000000                                                                      CONECTOR MICRO CLAVE LAT-MC100SOB     1
CC0000022647568H202100015022524900015022524929/10/20211353    31903053237421964250000Q1AA7300000610640000000000000                                                            CATETER PERIFE INTROCAN # 22G 4251628-04SIN     1
RC0001146542960H202100015022524900015022524929/10/20211353    3190305323742196425000030936900001431840000000000000                                                                                              BURETABOL     1
CC0000022647568H202100015022524900015022524929/10/20211353    3190305323742196425000016830000000970620000000000000                                                             SIST FIJACION CAT PERIFERICO 6.5X7 1683SOB     1
