CC0000017138066H202100015112652400015112652429/10/20210729    3190099823742196425000011082700001620070000000000000                                                               EQUIPO SET PRIMARIO C/CLAVE REF 14001BOL     5
CC0000032842949H202100015112652400015112652429/10/20210729    3190099823742196425000001956000001620610000000000000                                                                      CONECTOR MICRO CLAVE LAT-MC100SOB     1
CC0000032842949H202100015112652400015112652429/10/20210729    31900998237421964250000Q1AA7300000610640000000000000                                                            CATETER PERIFE INTROCAN # 22G 4251628-04SIN     1
CC0000032842949H202100015112652400015112652429/10/20210729    3190099823742196425000016830000000970620000000000000                                                             SIST FIJACION CAT PERIFERICO 6.5X7 1683SOB     1
