PA0000550463017H202100000555138500000555138529/10/20212224     3300009237421964250000A03F0300001626860000000000000                                                                   METOCLOPRAMIDA SLN INY 10 MG/2 MLAMP     3
PA0000550463017H202100000555138500000555138529/10/20212223     3300009237421964250000A04A1400001467560000000000000                                                                      ONDANSETRON SLN INY 8 MG/ 4 MLVAL     3
PA0000550463017H202100000555138500000555138529/10/20212345    31500052237421964250000E1AD0300000199490000000000000                                         LACTATO RINGER USP (HARTMANN)  SOL INY  BOL X 1000ML BAXTERBIN     1
PA0000550463017H202100000555138500000555138529/10/20212222     3300009237421964250000H02AB500001664950000000000000                                                            DEXAMETASONA SLN INY 8 MG/2 ML AMP /CDS/AMP     3
PA0000550463017H202100000555138500000555138529/10/20212221     3300009237421964250000J01DA300001239950000000000000                                                            CEFAZOLINA SODICA POLVO LIOF SLN INY 1 GVAL     1
PA0000550463017H202100000555138500000555138529/10/20212223     3300009237421964250000N2BB1100000217160000000000000                                                                      NOVALGINA Sln Iny 2.5 g x 5 mlAMP     3
PA0000550463017H202100000555138500000555138529/10/20212224     3300009237421964250000N02B1100001169680000000000000                              PARACETAMOL 1000MG/100ML(10MG/ML) SOL INY  VIAL X 100ML FRESENIUS KABIVAL     2
PA0000550463017H202100000555138500000555138529/10/20212224     3300009237421964250000A02BC700001684270000000000000                                                            OMEPRAZOL 40MG POLVO LIOFILIZADO AMPOLLAVAL     2
