CC0000022361987H202100914028102900914028102929/10/20210950    3150055523742196425000011137100001419310000000000000                                                               TIRA GLUCOMETRIA FREESTYLE H OPTIUM .PZA     6
CC0000022361987H202100914028102900914028102929/10/20210950    3150055523742196425000024674000000220660000000000000                             JERINGA A 3 PARTES CON AGUJA  SOB X 1 RYMCO  10ML BN EXENTO-DC.417/2020SIN    20
CC0000022361987H202100914028102900914028102929/10/20210950    3150055523742196425000045136100001419300000000000000                                                                            LANCETA DEXTROMETER X UNPZA     6
CC0000022361987H202100914028102900914028102929/10/20210950    31500555237421964250000E1AD0300000199490000000000000                                         LACTATO RINGER USP (HARTMANN)  SOL INY  BOL X 1000ML BAXTERBIN     4
CC0000022361987H202100914028102900914028102929/10/20210950    31500555237421964250000V07A1300000502600000000000000                                                                                AGUA ESTERIL x 10 mlAMP    10
CC0000022361987H202100914028102900914028102929/10/20210950    31500555237421964250000E1AB0200000199290000000000000                                                            SOLUCION SALINA 0.9% SLN INY BO X 100 MLBIN    20
CC0000022361987H202100914028102900914028102929/10/20211830    3150055523742196425000011127400001413910000000000000                                                            EQUIPO ADMINIST NUTR PUNZON REF 674669 BBOL     2
CC0000022361987H202100914028102900914028102929/10/20211923    31900926237421964250000V07A1300000502600000000000000                                                                                AGUA ESTERIL x 10 mlAMP     5
CC0000022361987H202100914028102900914028102929/10/20211923    31900926237421964250000E1AD0300000199490000000000000                                         LACTATO RINGER USP (HARTMANN)  SOL INY  BOL X 1000ML BAXTERBIN     2
CC0000022361987H202100914028102900914028102929/10/20211923    31900926237421964250000E1AB0200000199290000000000000                                                            SOLUCION SALINA 0.9% SLN INY BO X 100 MLBIN    10
CC0000022361987H202100914028102900914028102929/10/20211923    3190092623742196425000045136100001419300000000000000                                                                            LANCETA DEXTROMETER X UNPZA     3
CC0000022361987H202100914028102900914028102929/10/20211923    3190092623742196425000024674000000220660000000000000                             JERINGA A 3 PARTES CON AGUJA  SOB X 1 RYMCO  10ML BN EXENTO-DC.417/2020SIN    10
CC0000022361987H202100914028102900914028102929/10/20211923    3190092623742196425000011137100001419310000000000000                                                               TIRA GLUCOMETRIA FREESTYLE H OPTIUM .PZA     3
CC0000022361987H202100914028102900914028102929/10/20211923    3190092623742196425000011127400001413910000000000000                                                            EQUIPO ADMINIST NUTR PUNZON REF 674669 BBOL     1
