CC0000044150179H202100000555103700000555103729/10/20212344     3300009237421964250000A6AG0100001107060000000000000                                                            ENEMA RECTAL FOSTATO SODIO BO X 133ML /RBOL     2
CC0000044150179H202100000555103700000555103729/10/20211801    31902202237421964250000E1AD0300000199490000000000000                                         LACTATO RINGER USP (HARTMANN)  SOL INY  BOL X 1000ML BAXTERBIN     1
CC0000044150179H202100000555103700000555103729/10/20210551    31902978237421964250000E1AD0300000199490000000000000                                         LACTATO RINGER USP (HARTMANN)  SOL INY  BOL X 1000ML BAXTERBIN     1
CC0000044150179H202100000555103700000555103729/10/20210848     3300009237421964250000H03AA400001315380000000000000                                                                               SYNTHROID TAB 100 MCGTAB     1
