CC0000072248781A202100000027636200000027636229/10/20211446    3190333624042196419000014581900000529900000000000000                                                            GRAPADORA CON GRAPAS PIEL 35W 8886803712PZA     1
CC0000072248781A202100000027636200000027636229/10/20211446    31903336240421964190000V3AB1900001177870000000000000                                                                      PROSTIGMINE Sln Iny 0.5 mg/ mlAMP     5
CC0000072248781A202100000027636200000027636229/10/20211446    3190333624042196419000000102400001411250000000000000                                                                           JERINGA DESECHABLE X 50MLSOB     1
CC0000072248781A202100000027636200000027636229/10/20211446    3190333624042196419000021052200000380370000000000000                                                                        RESERVORIO J-VAC 100 ml 2160PZA     1
CC0000072248781A202100000027636200000027636229/10/20211446    3190333624042196419000022310200001001130000000000000                                                              DRENAJE SILICONA BLAKE 24 FR  S/CONECTPZA     1
CC0000072248781A202100000027636200000027636229/10/20211446    3190333624042196419000070120200000508270000000000000                                                             PUNTA PALA ELECTROBISTURI LARGA E1551-6SIN     1
CC0000072248781A202100000027636200000027636229/10/20211446    31903336240421964190000J3CA0300000471830000000000000                                                                METRONIDAZOL SLN INY 500 MG / 100 MLBIN     1
CC0000072248781A202100000027636200000027636229/10/20211446    31903336240421964190000N01A0500003844190000000000000                                                                          REMIFENTANILO SLN INY 2 MGVAL     2
CC0000072248781A202100000027636200000027636229/10/20211446    3190333624042196419000011055600000349930000000000000                                                             MEDIA ANTIEMBOLICA MUSLO T.V.P 98 ( XL)BOL     1
CC0000072248781A202100000027636200000027636229/10/20211446    3190333624042196419000031188000000236790000000000000                                                                                     CISTOFLO ADULTOSIN     1
CC0000072248781A202100000027636200000027636229/10/20211446    3190333624042196419000011522500000994380000000000000                                                                    SONDA FOLEY SILICONA # 16 2 VIASSOB     1
CC0000072248781A202100000027636200000027636229/10/20211446    3190333624042196419000011085100001082120000000000000                                                                           GUANTE QUIRURGICO TALLA 7SOB     3
CC0000072248781A202100000027636200000027636229/10/20211446    3190333624042196419000017564700000232600000000000000                                                                               PROLENE 2-0 CT2 8411TSIN     1
CC0000072248781A202100000027636200000027636229/10/20211446    3190333624042196419000013428900000967700000000000000                                                                      GRAPADORA CIRCULAR 29MM CDH29ACAJ     1
CC0000072248781A202100000027636200000027636229/10/20211446    31903336240421964190000N1BA1900000554750000000000000                                                                     ROXICAINA JALEA 2% TUBO X 30 MLTUB     1
CC0000072248781A202100000027636200000027636229/10/20211446    3190333624042196419000018351100000232850000000000000                                                                                 SEDA 2-0 SC-26 185TSIN     2
CC0000072248781A202100000027636200000027636229/10/20211446    31903336240421964190000B02AA100001407470000000000000                                                                    CLINTRANEX SLN INY 500 MG / 5 MLAMP     2
CC0000072248781A202100000027636200000027636229/10/20211446    31903336240421964190000N01A0400003939010000000000000                                               MAYOPROFOL 200MG/20ML(1%) EMUL INY CAJ X 1VIAL X 20MLVAL     8
CC0000072248781A202100000027636200000027636229/10/20211446    3190333624042196419000045138000001413890000000000000                                                                       LAPIZ ELECTROBISTURI  SOB X 1SOB     1
CC0000072248781A202100000027636200000027636229/10/20211446    3190333624042196419000000503900000296270000000000000                                                                  SUTURA POLYSORB 3-0 75CM V20 GL122SIN     1
CC0000072248781A202100000027636200000027636229/10/20211446    3190333624042196419000019487800001585180000000000000                                                                    VICRYL 1 PLUS 70 CM CT-1 VCP341HSOB     3
CC0000072248781A202100000027636200000027636229/10/20211446    3190333624042196419000043879100001138200000000000000                                                                  HOJA BISTURI # 15 CSSB 15 01002003SOB     1
CC0000072248781A202100000027636200000027636229/10/20211446    3190333624042196419000043879500001138210000000000000                                                                                    HOJA BISTURI #20SOB     1
CC0000072248781A202100000027636200000027636229/10/20211446    3190333624042196419000022425200000548240000000000000                       EXTENSION DE ANESTESIA REF 1139 SOB X 1 SHERLEG  ADULTO BN EXENTO-DC.417/2020SIN     2
CC0000072248781A202100000027636200000027636229/10/20211446    3190333624042196419000035356500003919000000000000000                                                                                        LLAVE 3 VIASSOB     2
CC0000072248781A202100000027636200000027636229/10/20211446    31903336240421964190000Q1AA7100000610620000000000000                                                            CATETER PERIFE INTROCAN # 18G 4251687-04SIN     2
CC0000072248781A202100000027636200000027636229/10/20211446    3190333624042196419000022426800001140510000000000000                                                                    EQUIPO MACROGOTEO BAXTER MRC0001SOB     2
CC0000072248781A202100000027636200000027636229/10/20211446    3190333624042196419000030161400001459220000000000000                                                                       MANGUERA SUCCION 6 MM*3.1 MTSSOB     3
CC0000072248781A202100000027636200000027636229/10/20211446    3190333624042196419000011073300001096420000000000000                                                                BOLSA DE SUCCION DE FLUIDOS x 2500mLBOL     1
CC0000072248781A202100000027636200000027636229/10/20211446    3190333624042196419000020750600000296780000000000000                                                                PLACA ELECTRO RETORNO PACIENTE E7506SIN     1
CC0000072248781A202100000027636200000027636229/10/20211446    3190333624042196419000011082700001620070000000000000                                                               EQUIPO SET PRIMARIO C/CLAVE REF 14001BOL     1
CC0000072248781A202100000027636200000027636229/10/20211446    3190333624042196419000053074400000607910000000000000                                                               GASA ESTERIL 10*10 SOBRE X 3 UNIDADESSOB     4
CC0000072248781A202100000027636200000027636229/10/20211446    3190333624042196419000024673000001411210000000000000                                                                  JERINGA DESECHABLE 3 ML 21 X 1 1/2SOB     1
CC0000072248781A202100000027636200000027636229/10/20211446    3190333624042196419000024673600000222980000000000000                                                                     JERINGA DESECHABLE 5 ml 27*11/2SIN     2
CC0000072248781A202100000027636200000027636229/10/20211446    3190333624042196419000024674000000220660000000000000                             JERINGA A 3 PARTES CON AGUJA  SOB X 1 RYMCO  10ML BN EXENTO-DC.417/2020SIN     5
CC0000072248781A202100000027636200000027636229/10/20211446    3190333624042196419000024674500000322810000000000000                                                                   JERINGA DESECHABLE 20 ml 21*1 1/2SIN     4
CC0000072248781A202100000027636200000027636229/10/20211446    3190333624042196419000051515500000598160000000000000                                                                            MASCARILLA ANESTESIA # 5SIN     1
CC0000072248781A202100000027636200000027636229/10/20211446    3190333624042196419000038568100000258050000000000000                                                                         CANULA OXIGENO NASAL ADULTOSIN     1
CC0000072248781A202100000027636200000027636229/10/20211446    3190333624042196419000011085400001083360000000000000                                                                       GUANTE QUIRURGICO TALLA 8 1/2SOB     1
CC0000072248781A202100000027636200000027636229/10/20211446    3190333624042196419000011085300001082140000000000000                                                                           GUANTE QUIRURGICO TALLA 8SOB     4
CC0000072248781A202100000027636200000027636229/10/20211446    3190333624042196419000011085200001585390000000000000                                                                       GUANTE QUIRURGICO TALLA 7 1/2SOB     7
CC0000072248781A202100000027636200000027636229/10/20211446    3190333624042196419000043485100001618510000000000000                GUANTE QUIRURGICO DE LATEX REF 2D72N65X CAJ X 50 PROTEXIS  6.5 BN EXENTO-DC.417/2020SOB     4
CC0000072248781A202100000027636200000027636229/10/20211446    3190333624042196419000039175100001072060000000000000                                                                           TUBO ENDOTRAQUEAL C/B 7.5SOB     1
CC0000072248781A202100000027636200000027636229/10/20211446    3190333624042196419000020056600001101530000000000000                                                                AGUJA HIPODERMICA DESECH 18G X 1 1/2SOB     2
CC0000072248781A202100000027636200000027636229/10/20211446    3190333624042196419000011099300000777780000000000000                                                                     FILTRO BACTERIANO VIRICO ADULTOBOL     1
CC0000072248781A202100000027636200000027636229/10/20211446    3190333624042196419000001200400000530690000000000000                                                                          CANULA DE MAYO # 5 (100MM)SIN     1
CC0000072248781A202100000027636200000027636229/10/20211446    31903336240421964190000E1AB0500003888400000000000000                                                              SOLUCION SALINA 0.9% SLN INY X 1000 MLBOL     1
CC0000072248781A202100000027636200000027636229/10/20211446    31903336240421964190000E1AB0300003888390000000000000                                                            SOLUCION SALINA 0.9% SLN INY BO X 500 MLBOL     4
CC0000072248781A202100000027636200000027636229/10/20211446    31903336240421964190000E1AB0200000199290000000000000                                                            SOLUCION SALINA 0.9% SLN INY BO X 100 MLBIN     2
CC0000072248781A202100000027636200000027636229/10/20211446    31903336240421964190000M03A0900001467590000000000000                                                                        ROCURONIO SLN INY 50 MG/5 MLVAL     1
CC0000072248781A202100000027636200000027636229/10/20211446    31903336240421964190000A2BC0900000200150000000000000                                                                               ORAZOLE Sln Iny 40 mgCIN     1
CC0000072248781A202100000027636200000027636229/10/20211446    31903336240421964190000A03F0300001626860000000000000                                                                   METOCLOPRAMIDA SLN INY 10 MG/2 MLAMP     1
CC0000072248781A202100000027636200000027636229/10/20211446    31903336240421964190000N2BB0100000787510000000000000                                                                    DIPIRONA SODICA Sln Iny 1 g/2 mlAMP     1
CC0000072248781A202100000027636200000027636229/10/20211446    31903336240421964190000M01A2000001664970000000000000                                                               DICLOFENACO SODICO SLN INY 75 MG/3 MLAMP     1
CC0000072248781A202100000027636200000027636229/10/20211446    31903336240421964190000H02A0100001664960000000000000                                                                        DEXAMETASONA SLN INY 4 MG/MLAMP     2
CC0000072248781A202100000027636200000027636229/10/20211446    31903336240421964190000A3BA0100001109400000000000000                                                                          ATROPINA SLN INY 1 MG / MLAMP     1
CC0000072248781A202100000027636200000027636229/10/20211446    31903336240421964190000N2AA0400003888080000000000000                                                                     DEMEROL HCL Sln Iny 100 mg/2 mlAMP     1
