CC0000022467890H202100000555099200000555099229/10/20211119     3300009237421964250000B1AB0200003939510000000000000                 ENOXAPARINA SODICA 40MG/0.4ML(100MG/ML) SOL INY INST CAJ X 2JERPREL X 0.4ML TECHDOWJRP     1
CC0000022467890H202100000555099200000555099229/10/20211613     3300009237421964250000B1AB0100001227270000000000000                                             HEPAMAX 25000UI/5ML(5000UI/ML) SOL INY  CAJ X 25AMPX5MLAMP     1
CC0000022467890H202100000555099200000555099229/10/20211834    31500072237421964250000E1AB0500003888400000000000000                                                              SOLUCION SALINA 0.9% SLN INY X 1000 MLBOL     3
CC0000022467890H202100000555099200000555099229/10/20210656    31901360237421964250000E1AD0300000199490000000000000                                         LACTATO RINGER USP (HARTMANN)  SOL INY  BOL X 1000ML BAXTERBIN     2
CC0000022467890H202100000555099200000555099229/10/20211119     3300009237421964250000J01XA400001212420000000000000                                                               VANCOMICINA POLVO LIOF SLN INY 500 MGVAL     1
CC0000022467890H202100000555099200000555099229/10/20210316     3300010237421964250000J01XA400001212420000000000000                                                               VANCOMICINA POLVO LIOF SLN INY 500 MGVAL     1
CC0000022467890H202100000555099200000555099229/10/20211614     3300009237421964250000M03AC100000197200000000000000                                                                   TRACURION SLN INY 10 MG /5 ML /R/AMP     1
CC0000022467890H202100000555099200000555099229/10/20211614     3300009237421964250000N01B0200003888110000000000000                                           ROXICAINA SE 100MG/10ML(1%) SOL INY CAJ X 24AMPACK X 10MLAPC     1
CC0000022467890H202100000555099200000555099229/10/20211119     3300009237421964250000A12CC100001690470000000000000                                                                  MAGNESIO SULFATO 20% SLN INY 10 MLAMP     1
CC0000022467890H202100000555099200000555099229/10/20211614     3300009237421964250000N5CD0300000218170000000000000                                                                          DORMICUM Sln Iny 5 mg/5 mlAMP     1
CC0000022467890H202100000555099200000555099229/10/20211119     3300009237421964250000J1KF0500001317760000000000000                                                                      MEROPENEM POLVO INY 500 MG /R/CAJ     1
CC0000022467890H202100000555099200000555099229/10/20211119     3300009237421964250000A02BC700001684270000000000000                                                            OMEPRAZOL 40MG POLVO LIOFILIZADO AMPOLLAVAL     1
