CC0000000162131H202100015032582300015032582329/10/20212039    3190148523742196425000045136100001419300000000000000                                                                            LANCETA DEXTROMETER X UNPZA     3
CC0000032718053H202100015032582300015032582329/10/20212039    3190148523742196425000011082700001620070000000000000                                                               EQUIPO SET PRIMARIO C/CLAVE REF 14001BOL     1
CC0000022435654H202100015032582300015032582329/10/20212039    3190148523742196425000001956000001620610000000000000                                                                      CONECTOR MICRO CLAVE LAT-MC100SOB     1
CC0000013467345H202100015032582300015032582329/10/20212039    3190148523742196425000001956000001620610000000000000                                                                      CONECTOR MICRO CLAVE LAT-MC100SOB     1
CC0001129535728H202100015032582300015032582329/10/20212039    3190148523742196425000001956000001620610000000000000                                                                      CONECTOR MICRO CLAVE LAT-MC100SOB     1
CC0000055304547H202100015032582300015032582329/10/20212039    3190148523742196425000030936900001431840000000000000                                                                                              BURETABOL     1
CC0000032718053H202100015032582300015032582329/10/20212039    3190148523742196425000030936900001431840000000000000                                                                                              BURETABOL     1
CC0000022435654H202100015032582300015032582329/10/20212039    3190148523742196425000030936900001431840000000000000                                                                                              BURETABOL     1
CC0000013467345H202100015032582300015032582329/10/20212039    3190148523742196425000030936900001431840000000000000                                                                                              BURETABOL     1
CC0000008721388H202100015032582300015032582329/10/20212039    3190148523742196425000030936900001431840000000000000                                                                                              BURETABOL     1
PA0000571348072H202100015032582300015032582329/10/20212039    3190148523742196425000030936900001431840000000000000                                                                                              BURETABOL     1
PA0000PA0701822H202100015032582300015032582329/10/20212039    3190148523742196425000030936900001431840000000000000                                                                                              BURETABOL     1
PA00000AN613775H202100015032582300015032582329/10/20212039    3190148523742196425000030936900001431840000000000000                                                                                              BURETABOL     1
CC0000008721388H202100015032582300015032582329/10/20212039    31901485237421964250000E1BA0700000198910000000000000                                                                   UROMATIC Sln IRRIGACION X 3000 MLBIN     4
CC0000022435654H202100015032582300015032582329/10/20212039    31901485237421964250000B05B1400001012740000000000000                                                                SOLUCION SALINA 0.45% Sln Iny 500 mlBOL     1
CC0000013467345H202100015032582300015032582329/10/20212039    31901485237421964250000B05B1400001012740000000000000                                                                SOLUCION SALINA 0.45% Sln Iny 500 mlBOL     1
CC0001129535728H202100015032582300015032582329/10/20212039    31901485237421964250000B05B1400001012740000000000000                                                                SOLUCION SALINA 0.45% Sln Iny 500 mlBOL     1
TI0001044223160H202100015032582300015032582329/10/20212039    31901485237421964250000B05B1400001012740000000000000                                                                SOLUCION SALINA 0.45% Sln Iny 500 mlBOL     1
CC0000000162131H202100015032582300015032582329/10/20212039    31901485237421964250000B05B1400001012740000000000000                                                                SOLUCION SALINA 0.45% Sln Iny 500 mlBOL     1
CC0000055304547H202100015032582300015032582329/10/20212039    31901485237421964250000E1AD0300000199490000000000000                                         LACTATO RINGER USP (HARTMANN)  SOL INY  BOL X 1000ML BAXTERBIN     1
PA0000571348072H202100015032582300015032582329/10/20212039    31901485237421964250000E1AD0300000199490000000000000                                         LACTATO RINGER USP (HARTMANN)  SOL INY  BOL X 1000ML BAXTERBIN     2
PA0000PA0701822H202100015032582300015032582329/10/20212039    31901485237421964250000E1AD0300000199490000000000000                                         LACTATO RINGER USP (HARTMANN)  SOL INY  BOL X 1000ML BAXTERBIN     2
CC0000032894571H202100015032582300015032582329/10/20212039    31901485237421964250000E1AD0300000199490000000000000                                         LACTATO RINGER USP (HARTMANN)  SOL INY  BOL X 1000ML BAXTERBIN     1
PA00000AN613775H202100015032582300015032582329/10/20212039    31901485237421964250000E1AD0300000199490000000000000                                         LACTATO RINGER USP (HARTMANN)  SOL INY  BOL X 1000ML BAXTERBIN     2
CC0000005029363H202100015032582300015032582329/10/20212039    31901485237421964250000E1AD0300000199490000000000000                                         LACTATO RINGER USP (HARTMANN)  SOL INY  BOL X 1000ML BAXTERBIN     1
CC0000008721388H202100015032582300015032582329/10/20212039    31901485237421964250000E1AB0500003888400000000000000                                                              SOLUCION SALINA 0.9% SLN INY X 1000 MLBOL     1
CC0001140828821H202100015032582300015032582329/10/20212039    31901485237421964250000E1AB0500003888400000000000000                                                              SOLUCION SALINA 0.9% SLN INY X 1000 MLBOL     1
CC0000000162131H202100015032582300015032582329/10/20212039    3190148523742196425000011137100001419310000000000000                                                               TIRA GLUCOMETRIA FREESTYLE H OPTIUM .PZA     3
