CC0000064541334H202100015032581600015032581629/10/20211134    3190260623742196425000062750100001405910000000000000                                                                 INFOVAC CANISTER 1000 ML M8275093/5SOB     1
PA000000G691907H202100015032581600015032581629/10/20211134    3190260623742196425000043879100001138200000000000000                                                                  HOJA BISTURI # 15 CSSB 15 01002003SOB     1
PA0000130692502H202100015032581600015032581629/10/20211134    3190260623742196425000043879100001138200000000000000                                                                  HOJA BISTURI # 15 CSSB 15 01002003SOB     1
