CC0001143120182H202100015052703800015052703829/10/20211004    3190100023742196425000039175200001072070000000000000                                                                           TUBO ENDOTRAQUEAL C/B 8.0SOB     1
CC0001143120182H202100015052703800015052703829/10/20211004    3190100023742196425000039176700001029620000000000000                                                                    SUJETADOR TUBO ENDOTRAQUEAL 9799SOB     1
CC0001143120182H202100015052703800015052703829/10/20211004    3190100023742196425000010252000003981620000000000000                                                            RESUCITADOR MANUAL ADULTO BE - 2503 AMBUBOL     1
CC0001143120182H202100015052703800015052703829/10/20211004    3190100023742196425000036441300000236540000000000000                                                                    JERINGA 1 ML GASES ARTERIAL 9023SIN     3
CC0001143120182H202100015052703800015052703829/10/20211004    3190100023742196425000011077500001287420000000000000                                                            CIRCUITO RESP VENTST 5703041 OXYLOG 3000BOL     1
