CC0001045684571H202100015112652300015112652329/10/20210603    3190235723742196425000035356500003919000000000000000                                                                                        LLAVE 3 VIASSOB     1
CC0001045684571H202100015112652300015112652329/10/20210603    3190235723742196425000043485100001618510000000000000                GUANTE QUIRURGICO DE LATEX REF 2D72N65X CAJ X 50 PROTEXIS  6.5 BN EXENTO-DC.417/2020SOB     2
CC0001045684571H202100015112652300015112652329/10/20210603    3190235723742196425000011089300001083990000000000000                                                              GUANTE ESTERIL LATEX S/POLVO TALLA 7.5SOB     2
CC0001045684571H202100015112652300015112652329/10/20210603    3190235723742196425000013077800000471960000000000000                                                             GASA NO TEJIDA EST 7.5 X 7.5 SOB X 3 UNSOB    10
CC0001045684571H202100015112652300015112652329/10/20210603    3190235723742196425000022426800001140510000000000000                                                                    EQUIPO MACROGOTEO BAXTER MRC0001SOB     1
CC0001045684571H202100015112652300015112652329/10/20210603    3190235723742196425000011082700001620070000000000000                                                               EQUIPO SET PRIMARIO C/CLAVE REF 14001BOL     1
