TI0001066284726H202100901043102900901043102929/10/20210900    3190330823742196425000024674000000220660000000000000                             JERINGA A 3 PARTES CON AGUJA  SOB X 1 RYMCO  10ML BN EXENTO-DC.417/2020SIN     8
TI0001066284726H202100901043102900901043102929/10/20210900    31903308237421964250000V07A1300000502600000000000000                                                                                AGUA ESTERIL x 10 mlAMP     8
TI0001066284726H202100901043102900901043102929/10/20211023    3190013523742196425000011078000000260010000000000000                                                                                     CONECTOR CONICOPZA     1
TI0001066284726H202100901043102900901043102929/10/20211023    3190013523742196425000016830000000970620000000000000                                                             SIST FIJACION CAT PERIFERICO 6.5X7 1683SOB     1
TI0001066284726H202100901043102900901043102929/10/20211023    31900135237421964250000Q1AA7300000610640000000000000                                                            CATETER PERIFE INTROCAN # 22G 4251628-04SIN     2
TI0001066284726H202100901043102900901043102929/10/20211209    3190305323742196425000024674000000220660000000000000                             JERINGA A 3 PARTES CON AGUJA  SOB X 1 RYMCO  10ML BN EXENTO-DC.417/2020SIN     8
TI0001066284726H202100901043102900901043102929/10/20211209    31903053237421964250000V07A1300000502600000000000000                                                                                AGUA ESTERIL x 10 mlAMP     8
TI0001066284726H202100901043102900901043102929/10/20211731    3190305323742196425000011078000000260010000000000000                                                                                     CONECTOR CONICOPZA     1
TI0001066284726H202100901043102900901043102929/10/20211731    3190305323742196425000016830000000970620000000000000                                                             SIST FIJACION CAT PERIFERICO 6.5X7 1683SOB     1
TI0001066284726H202100901043102900901043102929/10/20211731    31903053237421964250000Q1AA7300000610640000000000000                                                            CATETER PERIFE INTROCAN # 22G 4251628-04SIN     2
