PA00000AN613775H202100000555129200000555129229/10/20211918     3300009237421964250000A2BC0900000200150000000000000                                                                               ORAZOLE Sln Iny 40 mgCIN     1
PA00000AN613775H202100000555129200000555129229/10/20211738     3300009237421964250000A2BC0900000200150000000000000                                                                               ORAZOLE Sln Iny 40 mgCIN     1
PA00000AN613775H202100000555129200000555129229/10/20211918     3300009237421964250000A03F0300001626860000000000000                                                                   METOCLOPRAMIDA SLN INY 10 MG/2 MLAMP     3
PA00000AN613775H202100000555129200000555129229/10/20212136    31901485237421964250000E1AD0300000199490000000000000                                         LACTATO RINGER USP (HARTMANN)  SOL INY  BOL X 1000ML BAXTERBIN     2
PA00000AN613775H202100000555129200000555129229/10/20211917     3300009237421964250000H02AB500001664950000000000000                                                            DEXAMETASONA SLN INY 8 MG/2 ML AMP /CDS/AMP     4
PA00000AN613775H202100000555129200000555129229/10/20211917     3300009237421964250000N2BB1100000217160000000000000                                                                      NOVALGINA Sln Iny 2.5 g x 5 mlAMP     4
PA00000AN613775H202100000555129200000555129229/10/20211738     3300009237421964250000N02B1100001169680000000000000                              PARACETAMOL 1000MG/100ML(10MG/ML) SOL INY  VIAL X 100ML FRESENIUS KABIVAL     2
PA00000AN613775H202100000555129200000555129229/10/20211715    31903290237421964250000V07A1300000502600000000000000                                                                                AGUA ESTERIL x 10 mlAMP     5
