CC0001143120182U202100050131429200050131429229/10/20212255    3190100523942196432000045136100001419300000000000000                                                                            LANCETA DEXTROMETER X UNPZA     3
CC0001143120182U202100050131429200050131429229/10/20212255    3190100523942196432000024674000000220660000000000000                             JERINGA A 3 PARTES CON AGUJA  SOB X 1 RYMCO  10ML BN EXENTO-DC.417/2020SIN     1
CC0001143120182U202100050131429200050131429229/10/20212255    31901005239421964320000E1AB0200000199290000000000000                                                            SOLUCION SALINA 0.9% SLN INY BO X 100 MLBIN     1
CC0001143120182U202100050131429200050131429229/10/20212255    3190100523942196432000011137100001419310000000000000                                                               TIRA GLUCOMETRIA FREESTYLE H OPTIUM .PZA     3
