CC0000055304547H202100000555116900000555116929/10/20211734     3300009237421964250000G02AD000001277960000000000000                                                                                 CYTIL V TAB 200 MCGTAB     2
CC0000055304547H202100000555116900000555116929/10/20211211     3300009237421964250000G02AD000001277960000000000000                                                                                 CYTIL V TAB 200 MCGTAB     2
CC0000055304547H202100000555116900000555116929/10/20212137    31901485237421964250000E1AD0300000199490000000000000                                         LACTATO RINGER USP (HARTMANN)  SOL INY  BOL X 1000ML BAXTERBIN     1
CC0000055304547H202100000555116900000555116929/10/20211715    31903290237421964250000V07A1300000502600000000000000                                                                                AGUA ESTERIL x 10 mlAMP     5
