PA0000NY2093186H202100000555117600000555117629/10/20211234    31902138237421964250000A2BC0900000200150000000000000                                                                               ORAZOLE Sln Iny 40 mgCIN     1
PA0000NY2093186H202100000555117600000555117629/10/20211234    31902138237421964250000H02AB500001664950000000000000                                                            DEXAMETASONA SLN INY 8 MG/2 ML AMP /CDS/AMP     1
PA0000NY2093186H202100000555117600000555117629/10/20211234    31902138237421964250000N2BB1100000217160000000000000                                                                      NOVALGINA Sln Iny 2.5 g x 5 mlAMP     1
