CC0000072257696A202100000027644900000027644929/10/20211639    31903336240421964190000V03A2300000865410000000000000                                                                         BRIDION Sln Iny 200 mg/2 mlVAL     1
CC0000072257696A202100000027644900000027644929/10/20211639    31903336240421964190000B05X0100000199670000000000000                                                                ARTHROMATIC Sln IRRIGACION X 3000 mlBIN     2
CC0000072257696A202100000027644900000027644929/10/20211639    31903336240421964190000N01B0200003888110000000000000                                           ROXICAINA SE 100MG/10ML(1%) SOL INY CAJ X 24AMPACK X 10MLAPC     1
CC0000072257696A202100000027644900000027644929/10/20211639    3190333624042196419000039176200000325450000000000000                                                             TUBO ENDOTRAQ 7.5 C/B Y ESPIRAL INTERNOSIN     1
CC0000072257696A202100000027644900000027644929/10/20211639    3190333624042196419000011076600000223930000000000000                                                                CAMPO QUIRURGICO  U STERI DRAPE 1067SIN     1
CC0000072257696A202100000027644900000027644929/10/20211639    3190333624042196419000018610600000607940000000000000                                                               SENSOR ADULTO XP MONITOR 006-186-0106SIN     1
CC0000072257696A202100000027644900000027644929/10/20211639    3190333624042196419000018630000000358130000000000000                                                                   DURAPREP Sln YODO APLICADOR 26 MLFCO     1
CC0000072257696A202100000027644900000027644929/10/20211639    3190333624042196419000015994600000632480000000000000                                                                          MONOCRYL 4-0 PS-2 45 Y496GSIN     1
CC0000072257696A202100000027644900000027644929/10/20211639    3190333624042196419000043879100001138200000000000000                                                                  HOJA BISTURI # 15 CSSB 15 01002003SOB     1
CC0000072257696A202100000027644900000027644929/10/20211639    3190333624042196419000044370800000224140000000000000                                                                                IOBAN 2 90 X 45 6650SIN     1
CC0000072257696A202100000027644900000027644929/10/20211639    31903336240421964190000S2BA1200000467480000000000000                                                             DEPO MEDROL SUSP INY 40mg/ml X 1 ML /R/CIN     1
CC0000072257696A202100000027644900000027644929/10/20211639    31903336240421964190000E1AB0300003888390000000000000                                                            SOLUCION SALINA 0.9% SLN INY BO X 500 MLBOL     1
CC0000072257696A202100000027644900000027644929/10/20211639    3190333624042196419000022425200000548240000000000000                       EXTENSION DE ANESTESIA REF 1139 SOB X 1 SHERLEG  ADULTO BN EXENTO-DC.417/2020SIN     1
CC0000072257696A202100000027644900000027644929/10/20211639    3190333624042196419000035356500003919000000000000000                                                                                        LLAVE 3 VIASSOB     1
CC0000072257696A202100000027644900000027644929/10/20211639    31903336240421964190000Q1AA7100000610620000000000000                                                            CATETER PERIFE INTROCAN # 18G 4251687-04SIN     1
CC0000072257696A202100000027644900000027644929/10/20211639    3190333624042196419000022426800001140510000000000000                                                                    EQUIPO MACROGOTEO BAXTER MRC0001SOB     1
CC0000072257696A202100000027644900000027644929/10/20211639    3190333624042196419000016830000000970620000000000000                                                             SIST FIJACION CAT PERIFERICO 6.5X7 1683SOB     1
CC0000072257696A202100000027644900000027644929/10/20211639    31903336240421964190000J01DA300001239950000000000000                                                            CEFAZOLINA SODICA POLVO LIOF SLN INY 1 GVAL     2
CC0000072257696A202100000027644900000027644929/10/20211639    3190333624042196419000011073300001096420000000000000                                                                BOLSA DE SUCCION DE FLUIDOS x 2500mLBOL     1
CC0000072257696A202100000027644900000027644929/10/20211639    3190333624042196419000030161400001459220000000000000                                                                       MANGUERA SUCCION 6 MM*3.1 MTSSOB     2
CC0000072257696A202100000027644900000027644929/10/20211639    3190333624042196419000011082700001620070000000000000                                                               EQUIPO SET PRIMARIO C/CLAVE REF 14001BOL     1
CC0000072257696A202100000027644900000027644929/10/20211639    3190333624042196419000053074400000607910000000000000                                                               GASA ESTERIL 10*10 SOBRE X 3 UNIDADESSOB     5
CC0000072257696A202100000027644900000027644929/10/20211639    3190333624042196419000011085400001083360000000000000                                                                       GUANTE QUIRURGICO TALLA 8 1/2SOB     1
CC0000072257696A202100000027644900000027644929/10/20211639    3190333624042196419000011085300001082140000000000000                                                                           GUANTE QUIRURGICO TALLA 8SOB     1
CC0000072257696A202100000027644900000027644929/10/20211639    3190333624042196419000011085200001585390000000000000                                                                       GUANTE QUIRURGICO TALLA 7 1/2SOB     3
CC0000072257696A202100000027644900000027644929/10/20211639    3190333624042196419000011085100001082120000000000000                                                                           GUANTE QUIRURGICO TALLA 7SOB     3
CC0000072257696A202100000027644900000027644929/10/20211639    3190333624042196419000043485100001618510000000000000                GUANTE QUIRURGICO DE LATEX REF 2D72N65X CAJ X 50 PROTEXIS  6.5 BN EXENTO-DC.417/2020SOB     4
CC0000072257696A202100000027644900000027644929/10/20211639    3190333624042196419000051515500000598160000000000000                                                                            MASCARILLA ANESTESIA # 5SIN     1
CC0000072257696A202100000027644900000027644929/10/20211639    3190333624042196419000038568100000258050000000000000                                                                         CANULA OXIGENO NASAL ADULTOSIN     1
CC0000072257696A202100000027644900000027644929/10/20211639    3190333624042196419000011099300000777780000000000000                                                                     FILTRO BACTERIANO VIRICO ADULTOBOL     1
CC0000072257696A202100000027644900000027644929/10/20211639    3190333624042196419000020058100001101630000000000000                                                                     AGUJA HIPODERMICA DESECH 23 X 1SOB     1
CC0000072257696A202100000027644900000027644929/10/20211639    3190333624042196419000020056600001101530000000000000                                                                AGUJA HIPODERMICA DESECH 18G X 1 1/2SOB     1
CC0000072257696A202100000027644900000027644929/10/20211639    3190333624042196419000024673000001411210000000000000                                                                  JERINGA DESECHABLE 3 ML 21 X 1 1/2SOB     2
CC0000072257696A202100000027644900000027644929/10/20211639    3190333624042196419000024673600000222980000000000000                                                                     JERINGA DESECHABLE 5 ml 27*11/2SIN     1
CC0000072257696A202100000027644900000027644929/10/20211639    3190333624042196419000024674000000220660000000000000                             JERINGA A 3 PARTES CON AGUJA  SOB X 1 RYMCO  10ML BN EXENTO-DC.417/2020SIN     3
CC0000072257696A202100000027644900000027644929/10/20211639    31903336240421964190000E1AD0200003888320000000000000                                                                              HARTMAN SLN INY 500 MLBOL     2
CC0000072257696A202100000027644900000027644929/10/20211639    31903336240421964190000N02B1100001169680000000000000                              PARACETAMOL 1000MG/100ML(10MG/ML) SOL INY  VIAL X 100ML FRESENIUS KABIVAL     1
CC0000072257696A202100000027644900000027644929/10/20211639    31903336240421964190000M1AX0200001569410000000000000                                                                         KETRON SLN INY 30 MG / 2 MLAMP     2
CC0000072257696A202100000027644900000027644929/10/20211639    31903336240421964190000N01A0400003939010000000000000                                               MAYOPROFOL 200MG/20ML(1%) EMUL INY CAJ X 1VIAL X 20MLVAL     1
CC0000072257696A202100000027644900000027644929/10/20211639    31903336240421964190000A03F0300001626860000000000000                                                                   METOCLOPRAMIDA SLN INY 10 MG/2 MLAMP     1
CC0000072257696A202100000027644900000027644929/10/20211639    31903336240421964190000N1BA0300000217900000000000000                                                                    BUPIROP 0.5% C/E Sln Iny x 20 mlVAL     1
CC0000072257696A202100000027644900000027644929/10/20211639    31903336240421964190000M3AC0600000720540000000000000                                                                         ESMERON SLN INY 50 MG /5 MLVAL     1
CC0000072257696A202100000027644900000027644929/10/20211639    31903336240421964190000N2AA0700001587170000000000000                                                                                 ULTIVA Sln Iny 2 mgVAL     1
