RC0001187466818H202100015122511300015122511329/10/20211628    3150024423742196425000018354100000232880000000000000                                                                  SUTURA SEDA NEGRA 3-0 KS 75CM 622HSIN     1
RC0001187466818H202100015122511300015122511329/10/20211628    3150024423742196425000035356500003919000000000000000                                                                                        LLAVE 3 VIASSOB     3
RC0001187466818H202100015122511300015122511329/10/20211628    3150024423742196425000043879200001138180000000000000                                                                                   HOJA BISTURI # 11SOB     2
RC0001187466818H202100015122511300015122511329/10/20211628    3150024423742196425000022426800001140510000000000000                                                                    EQUIPO MACROGOTEO BAXTER MRC0001SOB     1
RC0001187466818H202100015122511300015122511329/10/20211628    3150024423742196425000030936900001431840000000000000                                                                                              BURETABOL     1
RC0001187466818H202100015122511300015122511329/10/20211628    3150024423742196425000000602600001259280000000000000                                                             APOSITO TEGADERM IV PD 1610 5CM X 5.7CMSOB     1
RC0001187466818H202100015122511300015122511329/10/20211628    31500244237421964250000E1BA0100000198890000000000000                                                                   AGUA ESTERIL USP SLN INY X 500 MLBIN     1
TI0001073826213H202100015122511300015122511329/10/20211628    31500244237421964250000E1AD0300000199490000000000000                                         LACTATO RINGER USP (HARTMANN)  SOL INY  BOL X 1000ML BAXTERBIN     3
