CC0001045684571H202100015112653900015112653929/10/20211606    3190099523742196425000022426800001140510000000000000                                                                    EQUIPO MACROGOTEO BAXTER MRC0001SOB     2
CC0000077185534H202100015112653900015112653929/10/20211606    3190099523742196425000011082900001233450000000000000                                                               EQUIPO LC 5000 PRIMARIO FOTOPRO 0L218SOB     1
CC0001045684571H202100015112653900015112653929/10/20211606    3190099523742196425000011082700001620070000000000000                                                               EQUIPO SET PRIMARIO C/CLAVE REF 14001BOL     3
CC0000077185534H202100015112653900015112653929/10/20211606    3190099523742196425000011082700001620070000000000000                                                               EQUIPO SET PRIMARIO C/CLAVE REF 14001BOL     1
CC0000077185534H202100015112653900015112653929/10/20211606    31900995237421964250000Q1AA7100000610620000000000000                                                            CATETER PERIFE INTROCAN # 18G 4251687-04SIN     1
CC0001045684571H202100015112653900015112653929/10/20211606    3190099523742196425000030936900001431840000000000000                                                                                              BURETABOL     1
CC0000077185534H202100015112653900015112653929/10/20211606    3190099523742196425000016830000000970620000000000000                                                             SIST FIJACION CAT PERIFERICO 6.5X7 1683SOB     1
CC0001045684571H202100015112653900015112653929/10/20211606    31900995237421964250000E1AA0200000198980000000000000                                                                          DEXTROSA 5% Sln Iny 100 mlBIN     4
