PA0000128223910H202100000555102900000555102929/10/20211526     3300009237421964250000A04A1400001467560000000000000                                                                      ONDANSETRON SLN INY 8 MG/ 4 MLVAL     1
PA0000128223910H202100000555102900000555102929/10/20210541     3300009237421964250000A04A1400001467560000000000000                                                                      ONDANSETRON SLN INY 8 MG/ 4 MLVAL     2
PA0000128223910H202100000555102900000555102929/10/20212314    31500624237421964250000E1AD0300000199490000000000000                                         LACTATO RINGER USP (HARTMANN)  SOL INY  BOL X 1000ML BAXTERBIN     1
PA0000128223910H202100000555102900000555102929/10/20211519    31500347237421964250000E1AD0300000199490000000000000                                         LACTATO RINGER USP (HARTMANN)  SOL INY  BOL X 1000ML BAXTERBIN     1
PA0000128223910H202100000555102900000555102929/10/20210623    31500075237421964250000E1AD0300000199490000000000000                                         LACTATO RINGER USP (HARTMANN)  SOL INY  BOL X 1000ML BAXTERBIN     2
PA0000128223910H202100000555102900000555102929/10/20211424     3300009237421964250000A12BA100000552980000000000000                                                            CLORURO POTASIO Sln Iny AMP 20 MEQ/10 MLAMP     2
PA0000128223910H202100000555102900000555102929/10/20211526     3300009237421964250000H02AB500001664950000000000000                                                            DEXAMETASONA SLN INY 8 MG/2 ML AMP /CDS/AMP     1
PA0000128223910H202100000555102900000555102929/10/20210541     3300009237421964250000H02AB500001664950000000000000                                                            DEXAMETASONA SLN INY 8 MG/2 ML AMP /CDS/AMP     2
PA0000128223910H202100000555102900000555102929/10/20210541     3300009237421964250000N2BB1100000217160000000000000                                                                      NOVALGINA Sln Iny 2.5 g x 5 mlAMP     3
PA0000128223910H202100000555102900000555102929/10/20210541     3300009237421964250000N02B1100001169680000000000000                              PARACETAMOL 1000MG/100ML(10MG/ML) SOL INY  VIAL X 100ML FRESENIUS KABIVAL     3
PA0000128223910H202100000555102900000555102929/10/20211526     3300009237421964250000A02BC700001684270000000000000                                                            OMEPRAZOL 40MG POLVO LIOFILIZADO AMPOLLAVAL     1
PA0000128223910H202100000555102900000555102929/10/20210541     3300009237421964250000A02BC700001684270000000000000                                                            OMEPRAZOL 40MG POLVO LIOFILIZADO AMPOLLAVAL     1
PA0000128223910H202100000555102900000555102929/10/20211512    31500347237421964250000V07A1300000502600000000000000                                                                                AGUA ESTERIL x 10 mlAMP     5
