RC0001048088138H202100000555128800000555128829/10/20211825     3300009237421964250000M01A2500001457560000000000000                                                             ADVIL CHILDREN 100 MG/5 ML X 100 ML /R/FCO     1
RC0001048088138H202100000555128800000555128829/10/20211916     3300009237421964250000N02B1100001169680000000000000                              PARACETAMOL 1000MG/100ML(10MG/ML) SOL INY  VIAL X 100ML FRESENIUS KABIVAL     1
RC0001048088138H202100000555128800000555128829/10/20211713    31903290237421964250000V07A1300000502600000000000000                                                                                AGUA ESTERIL x 10 mlAMP     5
