RC0001187466818H202100015122510700015122510729/10/20210901    3150024423742196425000038572700000256840000000000000                                                                                 SONDA NSG LEVIN #10SIN     1
RC0001187466818H202100015122510700015122510729/10/20210901    3150024423742196425000000602600001259280000000000000                                                             APOSITO TEGADERM IV PD 1610 5CM X 5.7CMSOB     1
TI0001146537318H202100015122510700015122510729/10/20210901    31500244237421964250000E1AD0300000199490000000000000                                         LACTATO RINGER USP (HARTMANN)  SOL INY  BOL X 1000ML BAXTERBIN     4
RC0001046736821H202100015122510700015122510729/10/20210901    31500244237421964250000E1AC0100000199400000000000000                                                                          SUERO MIXTO Sln Iny 500 mlBIN     1
TI0001146537318H202100015122510700015122510729/10/20210901    3150024423742196425000011137100001419310000000000000                                                               TIRA GLUCOMETRIA FREESTYLE H OPTIUM .PZA     2
RC0001187466818H202100015122510700015122510729/10/20210901    3150024423742196425000011137100001419310000000000000                                                               TIRA GLUCOMETRIA FREESTYLE H OPTIUM .PZA     3
RC0001046736821H202100015122510700015122510729/10/20210901    3150024423742196425000011137100001419310000000000000                                                               TIRA GLUCOMETRIA FREESTYLE H OPTIUM .PZA     2
