CC0000022514673U202100050131419200050131419229/10/20210924    3190233123942196432000024674000000220660000000000000                             JERINGA A 3 PARTES CON AGUJA  SOB X 1 RYMCO  10ML BN EXENTO-DC.417/2020SIN     2
CC0000072133553U202100050131419200050131419229/10/20210924    3190233123942196432000024674000000220660000000000000                             JERINGA A 3 PARTES CON AGUJA  SOB X 1 RYMCO  10ML BN EXENTO-DC.417/2020SIN     3
CC0001067030365U202100050131419200050131419229/10/20210924    3190233123942196432000024674000000220660000000000000                             JERINGA A 3 PARTES CON AGUJA  SOB X 1 RYMCO  10ML BN EXENTO-DC.417/2020SIN     1
CC0000072270118U202100050131419200050131419229/10/20210924    3190233123942196432000024674000000220660000000000000                             JERINGA A 3 PARTES CON AGUJA  SOB X 1 RYMCO  10ML BN EXENTO-DC.417/2020SIN     4
CC0000022514673U202100050131419200050131419229/10/20210924    3190233123942196432000011082700001620070000000000000                                                               EQUIPO SET PRIMARIO C/CLAVE REF 14001BOL     1
CC0000022514673U202100050131419200050131419229/10/20210924    31902331239421964320000Q1AA7200000610630000000000000                                                            CATETER PERIFE INTROCAN # 20G 4251644-04SIN     1
CC0000022514673U202100050131419200050131419229/10/20210924    3190233123942196432000030936900001431840000000000000                                                                                              BURETABOL     1
CC0000022514673U202100050131419200050131419229/10/20210924    3190233123942196432000016830000000970620000000000000                                                             SIST FIJACION CAT PERIFERICO 6.5X7 1683SOB     1
CC0000022514673U202100050131419200050131419229/10/20210924    31902331239421964320000E1AB0500003888400000000000000                                                              SOLUCION SALINA 0.9% SLN INY X 1000 MLBOL     1
