CC0000022647568H202100015022524400015022524429/10/20211002    3190013523742196425000001956000001620610000000000000                                                                      CONECTOR MICRO CLAVE LAT-MC100SOB     1
TI0001066284726H202100015022524400015022524429/10/20211002    3190013523742196425000011078000000260010000000000000                                                                                     CONECTOR CONICOPZA     1
TI0001066284726H202100015022524400015022524429/10/20211002    31900135237421964250000Q1AA7300000610640000000000000                                                            CATETER PERIFE INTROCAN # 22G 4251628-04SIN     2
CC0000022647568H202100015022524400015022524429/10/20211002    31900135237421964250000Q1AA7300000610640000000000000                                                            CATETER PERIFE INTROCAN # 22G 4251628-04SIN     2
TI0001066284726H202100015022524400015022524429/10/20211002    3190013523742196425000016830000000970620000000000000                                                             SIST FIJACION CAT PERIFERICO 6.5X7 1683SOB     1
CC0000022647568H202100015022524400015022524429/10/20211002    3190013523742196425000016830000000970620000000000000                                                             SIST FIJACION CAT PERIFERICO 6.5X7 1683SOB     1
