CC0001045669623H202100000555101500000555101529/10/20210532     3300009237421964250000A03A0800001177800000000000000                                                                      COLYPAN SLN INY 50 MG/5 ML /R/AMP     2
CC0001045669623H202100000555101500000555101529/10/20210531     3300009237421964250000N02B1100001169680000000000000                              PARACETAMOL 1000MG/100ML(10MG/ML) SOL INY  VIAL X 100ML FRESENIUS KABIVAL     2
CC0001045669623H202100000555101500000555101529/10/20211509    31500347237421964250000V07A1300000502600000000000000                                                                                AGUA ESTERIL x 10 mlAMP     5
