CC0000022515117H202100000555112900000555112929/10/20211026    31902653237421964250000B1AB1200003939350000000000000                 ENOXAPARINA SODICA 80MG/0.8ML(100MG/ML) SOL INY INST CAJ X 2JERPREL X 0.8ML TECHDOWJRP     1
CC0000022515117H202100000555112900000555112929/10/20211026    31902653237421964250000A02B0800001276960000000000000                                                                                 OMEPRAZOL CAP 20 MGCAP     1
CC0000022515117H202100000555112900000555112929/10/20211026    31902653237421964250000C10AA500001314010000000000000                                                                             ATORVASTATINA TAB 40 MGTAB     2
CC0000022515117H202100000555112900000555112929/10/20211026    31902653237421964250000L04AX100001333070000000000000                                                                               AZATIOPRINA TAB 50 MGTAB     1
CC0000022515117H202100000555112900000555112929/10/20211026    31902653237421964250000N02BA100001276940000000000000                                                                  ACIDO ACETIL SALIC?LICO TAB 100 MGTAB     1
CC0000022515117H202100000555112900000555112929/10/20211026    31902653237421964250000P01BA200001357750000000000000                                                               HIDROXICLOROQUINA SULF TAB 200 MG /R/TAB     1
