CC0001143120182U202100000555120400000555120429/10/20211800    31902337239421964320000E1AA0800000322190000000000000                                                                          DEXTROSA 5% Sln Iny 250 mlBIN     1
CC0001143120182U202100000555120400000555120429/10/20212110    31500547239421964320000E1AB0200000199290000000000000                                                            SOLUCION SALINA 0.9% SLN INY BO X 100 MLBIN     1
CC0001143120182U202100000555120400000555120429/10/20211722    31902337239421964320000E1AB0200000199290000000000000                                                            SOLUCION SALINA 0.9% SLN INY BO X 100 MLBIN     2
CC0001143120182U202100000555120400000555120429/10/20211545    31902337239421964320000E1AB0200000199290000000000000                                                            SOLUCION SALINA 0.9% SLN INY BO X 100 MLBIN     1
CC0001143120182U202100000555120400000555120429/10/20211542    31902337239421964320000E1AB0200000199290000000000000                                                            SOLUCION SALINA 0.9% SLN INY BO X 100 MLBIN     3
CC0001143120182U202100000555120400000555120429/10/20211722    31902337239421964320000E1AB0700003888350000000000000                                                            SOLUCION SALINA 0.9% SLN INY BO X 250 MLBOL     2
CC0001143120182U202100000555120400000555120429/10/20211545    31902337239421964320000E1AB0300003888390000000000000                                                            SOLUCION SALINA 0.9% SLN INY BO X 500 MLBOL     1
CC0001143120182U202100000555120400000555120429/10/20211542    31902337239421964320000E1AB0300003888390000000000000                                                            SOLUCION SALINA 0.9% SLN INY BO X 500 MLBOL     1
CC0001143120182U202100000555120400000555120429/10/20211542    31902337239421964320000E1AB0500003888400000000000000                                                              SOLUCION SALINA 0.9% SLN INY X 1000 MLBOL     1
CC0001143120182U202100000555120400000555120429/10/20211653    31902337239421964320000E1AD0300000199490000000000000                                         LACTATO RINGER USP (HARTMANN)  SOL INY  BOL X 1000ML BAXTERBIN     1
CC0001143120182U202100000555120400000555120429/10/20211604     3300004239421964320000A12BA100000552980000000000000                                                            CLORURO POTASIO Sln Iny AMP 20 MEQ/10 MLAMP     3
CC0001143120182U202100000555120400000555120429/10/20212320     3300004239421964320000C7AB1000001382030000000000000                                                                   NOREPINEFRINA SLN INY 4 MG / 4 MLAMP     2
CC0001143120182U202100000555120400000555120429/10/20211909     3300004239421964320000C7AB1000001382030000000000000                                                                   NOREPINEFRINA SLN INY 4 MG / 4 MLAMP     2
CC0001143120182U202100000555120400000555120429/10/20211502     3300004239421964320000C7AB1000001382030000000000000                                                                   NOREPINEFRINA SLN INY 4 MG / 4 MLAMP     2
CC0001143120182U202100000555120400000555120429/10/20211744     3300004239421964320000J01XA400001212420000000000000                                                               VANCOMICINA POLVO LIOF SLN INY 500 MGVAL     1
CC0001143120182U202100000555120400000555120429/10/20211733     3300004239421964320000J01XA400001212420000000000000                                                               VANCOMICINA POLVO LIOF SLN INY 500 MGVAL     1
CC0001143120182U202100000555120400000555120429/10/20211959     3300004239421964320000N2BB0200000513030000000000000                                                                           LISALGIL Sln Iny 2 g/5 mlAMP     1
CC0001143120182U202100000555120400000555120429/10/20212320     3300004239421964320000N1AH0200003906560000000000000                                                                     FENTANIL Iny 0.05 mg/ml x 10 mlAMP     2
CC0001143120182U202100000555120400000555120429/10/20211417     3300004239421964320000N1AH0200003906560000000000000                                                                     FENTANIL Iny 0.05 mg/ml x 10 mlAMP     2
CC0001143120182U202100000555120400000555120429/10/20211854     3300004239421964320000J01DH400001317770000000000000                                                                MEROPENEM POLVO LIOF SLN INY 1 G /R/CAJ     1
CC0001143120182U202100000555120400000555120429/10/20211748     3300004239421964320000J01DH400001317770000000000000                                                                MEROPENEM POLVO LIOF SLN INY 1 G /R/CAJ     1
CC0001143120182U202100000555120400000555120429/10/20211604     3300004239421964320000J02AC100000553180000000000000                                                                   FLUCONAZOL SLN INY 200 MG/ 100 MLFCO     2
CC0001143120182U202100000555120400000555120429/10/20211612     3300004239421964320000J02AA100000834240000000000000                                                              AMFOTERICINA B POLVO LIOFI AMP X 50 MGAMP     1
