CC0001129523937H202100000555108200000555108229/10/20210940     3300009237421964250000B01A0300000467730000000000000                                                                FRAGMIN SLN INY 5.000 UI /0.2 ML /R/SIN     1
CC0001129523937H202100000555108200000555108229/10/20211651    31500107237421964250000E1AB0200000199290000000000000                                                            SOLUCION SALINA 0.9% SLN INY BO X 100 MLBIN     2
CC0001129523937H202100000555108200000555108229/10/20211223    31902056237421964250000E1AB0300003888390000000000000                                                            SOLUCION SALINA 0.9% SLN INY BO X 500 MLBOL     1
CC0001129523937H202100000555108200000555108229/10/20210940     3300009237421964250000H02AB500001664950000000000000                                                            DEXAMETASONA SLN INY 8 MG/2 ML AMP /CDS/AMP     2
CC0001129523937H202100000555108200000555108229/10/20211752     3300009237421964250000H02A0100001664960000000000000                                                                        DEXAMETASONA SLN INY 4 MG/MLAMP     6
CC0001129523937H202100000555108200000555108229/10/20210940     3300009237421964250000J01XA400001212420000000000000                                                               VANCOMICINA POLVO LIOF SLN INY 500 MGVAL     4
CC0001129523937H202100000555108200000555108229/10/20210822     3300009237421964250000L1BC4100001249730000000000000                                                    ETOPOSIDO 100MG/5ML(20MG/ML) SOL INY  VIAL X 5MLVAL     2
CC0001129523937H202100000555108200000555108229/10/20210940     3300009237421964250000V6DF2000001629900000000000000                                                                     ENSURE PLUS HN LIQUIDO X 237 MLFCO     1
CC0001129523937H202100000555108200000555108229/10/20211753     3300009237421964250000N2AA0100000301640000000000000                                                                            MORFINA Sln Iny 10 mg/mlAMP     3
CC0001129523937H202100000555108200000555108229/10/20211752     3300009237421964250000N2AA0100000301640000000000000                                                                            MORFINA Sln Iny 10 mg/mlAMP     1
CC0001129523937H202100000555108200000555108229/10/20210940     3300009237421964250000A03F0500001692520000000000000                                                                   ALIZAPRIDA HCL SLN INY 50 MG/2 MLAMP     2
CC0001129523937H202100000555108200000555108229/10/20210940     3300009237421964250000C03C0100001672000000000000000                                                                       FUROSEMIDA SLN INY 20 MG/2 MLAMP     2
CC0001129523937H202100000555108200000555108229/10/20211745     3300009237421964250000J01CR300001659480000000000000                                                                  DELBACTAM POLVO LIOF SLN INY 4.5 GVAL     1
CC0001129523937H202100000555108200000555108229/10/20210940     3300009237421964250000J01CR300001659480000000000000                                                                  DELBACTAM POLVO LIOF SLN INY 4.5 GVAL     3
CC0001129523937H202100000555108200000555108229/10/20210940     3300009237421964250000N2BE2200001252930000000000000                                                                             ACETAMINOFEN Tab 500 MGTAB     1
CC0001129523937H202100000555108200000555108229/10/20211545    31500107237421964250000V07A1300000502600000000000000                                                                                AGUA ESTERIL x 10 mlAMP    15
CC0001129523937H202100000555108200000555108229/10/20210941     3300009237421964250000M04AA100001332710000000000000                                                                            ALOPURINOL 100MG TABLETATAB     5
