CC0000022328269H202100015112653400015112653429/10/20211138    3150002223742196425000036441300000236540000000000000                                                                    JERINGA 1 ML GASES ARTERIAL 9023SIN     5
CC0001042970504H202100015112653400015112653429/10/20211138    3150002223742196425000036441300000236540000000000000                                                                    JERINGA 1 ML GASES ARTERIAL 9023SIN     6
CC0000017138066H202100015112653400015112653429/10/20211138    3150002223742196425000036441300000236540000000000000                                                                    JERINGA 1 ML GASES ARTERIAL 9023SIN     2
CC0000022328269H202100015112653400015112653429/10/20211138    3150002223742196425000013077800000471960000000000000                                                             GASA NO TEJIDA EST 7.5 X 7.5 SOB X 3 UNSOB     6
