CC0000005029363H202100015032581200015032581229/10/20210932    3150020623742196425000022426800001140510000000000000                                                                    EQUIPO MACROGOTEO BAXTER MRC0001SOB     1
CC0000073070310H202100015032581200015032581229/10/20210932    3150020623742196425000022426800001140510000000000000                                                                    EQUIPO MACROGOTEO BAXTER MRC0001SOB     1
CC0000005029363H202100015032581200015032581229/10/20210932    3150020623742196425000030936900001431840000000000000                                                                                              BURETABOL     1
CC0000073070310H202100015032581200015032581229/10/20210932    3150020623742196425000030936900001431840000000000000                                                                                              BURETABOL     1
