CC0000072428894H202100015112652600015112652629/10/20210912    3150057323742196425000030161400001459220000000000000                                                                       MANGUERA SUCCION 6 MM*3.1 MTSSOB     1
CC0000008761530H202100015112652600015112652629/10/20210912    3150057323742196425000035639600001014740000000000000                                                                              MASCARA VENTURY ADULTOBOL     1
CC0001045684571H202100015112652600015112652629/10/20210912    3150057323742196425000036441300000236540000000000000                                                                    JERINGA 1 ML GASES ARTERIAL 9023SIN     4
CC0000072428894H202100015112652600015112652629/10/20210912    3150057323742196425000036441300000236540000000000000                                                                    JERINGA 1 ML GASES ARTERIAL 9023SIN     4
CC0000008753953H202100015112652600015112652629/10/20210912    3150057323742196425000036441300000236540000000000000                                                                    JERINGA 1 ML GASES ARTERIAL 9023SIN     4
CC0000022361987H202100015112652600015112652629/10/20210912    3150057323742196425000036441300000236540000000000000                                                                    JERINGA 1 ML GASES ARTERIAL 9023SIN     4
CC0001045684571H202100015112652600015112652629/10/20210912    3150057323742196425000024674000000220660000000000000                             JERINGA A 3 PARTES CON AGUJA  SOB X 1 RYMCO  10ML BN EXENTO-DC.417/2020SIN     4
CC0000022467890H202100015112652600015112652629/10/20210912    3150057323742196425000024674000000220660000000000000                             JERINGA A 3 PARTES CON AGUJA  SOB X 1 RYMCO  10ML BN EXENTO-DC.417/2020SIN     4
CC0000008753953H202100015112652600015112652629/10/20210912    3150057323742196425000024674000000220660000000000000                             JERINGA A 3 PARTES CON AGUJA  SOB X 1 RYMCO  10ML BN EXENTO-DC.417/2020SIN     4
CC0000003893524H202100015112652600015112652629/10/20210912    31500573237421964250000Q0000100000473260000000000000                                                                                 INHALOCAMARA ADULTOCIN     1
CC0001045684571H202100015112652600015112652629/10/20210912    3150057323742196425000011078200001605710000000000000                                                                 CONECTOR FIBROBRONCOSCOPIO 9591 40CSOB     1
CC0000072428894H202100015112652600015112652629/10/20210912    3150057323742196425000020816000001096410000000000000                                                                          LINER PARED DELGADA 1500CCBOL     1
CC0001045684571H202100015112652600015112652629/10/20210912    31500573237421964250000E1AB0200000199290000000000000                                                            SOLUCION SALINA 0.9% SLN INY BO X 100 MLBIN     4
CC0000072428894H202100015112652600015112652629/10/20210912    31500573237421964250000E1AB0200000199290000000000000                                                            SOLUCION SALINA 0.9% SLN INY BO X 100 MLBIN     4
