PA0000660841618H202100000555124600000555124629/10/20211557    31902138237421964250000A4AD0200000202990000000000000                                                                     PLITICAN HCL Sln Iny 50 mg/2 mlAMP     2
PA0000660841618H202100000555124600000555124629/10/20211557    31902138237421964250000J01DA300001239950000000000000                                                            CEFAZOLINA SODICA POLVO LIOF SLN INY 1 GVAL     3
PA0000660841618H202100000555124600000555124629/10/20211557    31902138237421964250000M01A0400001341250000000000000                                                                              DYNASTAT AMP 40 MG /R/VAL     1
PA0000660841618H202100000555124600000555124629/10/20211557    31902138237421964250000N2BB1100000217160000000000000                                                                      NOVALGINA Sln Iny 2.5 g x 5 mlAMP     2
PA0000660841618H202100000555124600000555124629/10/20211557    31902138237421964250000N02B1100001169680000000000000                              PARACETAMOL 1000MG/100ML(10MG/ML) SOL INY  VIAL X 100ML FRESENIUS KABIVAL     2
PA0000660841618H202100000555124600000555124629/10/20211557    31902138237421964250000A02BC700001684270000000000000                                                            OMEPRAZOL 40MG POLVO LIOFILIZADO AMPOLLAVAL     1
