CC0000032691052U202100050131416300050131416329/10/20210131    3150039423942196432000001956000001620610000000000000                                                                      CONECTOR MICRO CLAVE LAT-MC100SOB     1
CC0000032691052U202100050131416300050131416329/10/20210131    31500394239421964320000Q1AA7100000610620000000000000                                                            CATETER PERIFE INTROCAN # 18G 4251687-04SIN     1
CC0000032691052U202100050131416300050131416329/10/20210131    31500394239421964320000Q1AA7200000610630000000000000                                                            CATETER PERIFE INTROCAN # 20G 4251644-04SIN     1
CC0000032691052U202100050131416300050131416329/10/20210131    3150039423942196432000016830000000970620000000000000                                                             SIST FIJACION CAT PERIFERICO 6.5X7 1683SOB     1
