CC0000055163818H202100000555101100000555101129/10/20210531     3300009237421964250000A2BC0900000200150000000000000                                                                               ORAZOLE Sln Iny 40 mgCIN     1
CC0000055163818H202100000555101100000555101129/10/20212344    31500052237421964250000E1AD0300000199490000000000000                                         LACTATO RINGER USP (HARTMANN)  SOL INY  BOL X 1000ML BAXTERBIN     1
CC0000055163818H202100000555101100000555101129/10/20211548     3300009237421964250000J1CB1800001134180000000000000                                                                             TAZOCIN Polvo Iny 4.5 gVAL     1
CC0000055163818H202100000555101100000555101129/10/20210531     3300009237421964250000J1CB1800001134180000000000000                                                                             TAZOCIN Polvo Iny 4.5 gVAL     2
CC0000055163818H202100000555101100000555101129/10/20210530     3300009237421964250000J1CB1800001134180000000000000                                                                             TAZOCIN Polvo Iny 4.5 gVAL     1
CC0000055163818H202100000555101100000555101129/10/20211430     3300009237421964250000J3CA0200001208130000000000000                                                                      FLAGYL SLN INY 500 MG X 100 MLBOL     3
CC0000055163818H202100000555101100000555101129/10/20210531     3300009237421964250000N02B1100001169680000000000000                              PARACETAMOL 1000MG/100ML(10MG/ML) SOL INY  VIAL X 100ML FRESENIUS KABIVAL     1
CC0000055163818H202100000555101100000555101129/10/20210531     3300009237421964250000N05C0800001314910000000000000                                                                                ISOKLON TAB 3 MG /R/TAB     1
CC0000055163818H202100000555101100000555101129/10/20211511    31500347237421964250000V07A1300000502600000000000000                                                                                AGUA ESTERIL x 10 mlAMP     5
