RC0001044671880U202100050131428700050131428729/10/20212133    3190092523942196432000024674000000220660000000000000                             JERINGA A 3 PARTES CON AGUJA  SOB X 1 RYMCO  10ML BN EXENTO-DC.417/2020SIN     1
RC0001044671880U202100050131428700050131428729/10/20212133    3190092523942196432000022426800001140510000000000000                                                                    EQUIPO MACROGOTEO BAXTER MRC0001SOB     1
RC0001044671880U202100050131428700050131428729/10/20212133    3190092523942196432000030936900001431840000000000000                                                                                              BURETABOL     1
RC0001044671880U202100050131428700050131428729/10/20212133    31900925239421964320000E1AB0200000199290000000000000                                                            SOLUCION SALINA 0.9% SLN INY BO X 100 MLBIN     1
