CC0001129523937H202100000555122700000555122729/10/20211509    31901484237421964250000L1XA0400001233200000000000000                                                                            CISPLATINO SLN INY 50 MGVAL     1
CC0001129523937H202100000555122700000555122729/10/20211509    31901484237421964250000L01DC300001692450000000000000                                                                          BLOMINDEX POLVO LIOF 15 UIVAL     2
CC0001129523937H202100000555122700000555122729/10/20211509    31901484237421964250000L1BC4100001249730000000000000                                                    ETOPOSIDO 100MG/5ML(20MG/ML) SOL INY  VIAL X 5MLVAL     2
