CC0001045684571H202100015112652500015112652529/10/20210845    3190099523742196425000023486400001318040000000000000                                                               GUANTE CIRUGIA NITRILO ALFASAFE 6 1/2SOB     2
CC0000077185534H202100015112652500015112652529/10/20210845    3190099523742196425000023486400001318040000000000000                                                               GUANTE CIRUGIA NITRILO ALFASAFE 6 1/2SOB     2
CC0001045684571H202100015112652500015112652529/10/20210845    3190099523742196425000013077800000471960000000000000                                                             GASA NO TEJIDA EST 7.5 X 7.5 SOB X 3 UNSOB    10
CC0000077185534H202100015112652500015112652529/10/20210845    3190099523742196425000013077800000471960000000000000                                                             GASA NO TEJIDA EST 7.5 X 7.5 SOB X 3 UNSOB    10
CC0001045684571H202100015112652500015112652529/10/20210845    3190099523742196425000001956000001620610000000000000                                                                      CONECTOR MICRO CLAVE LAT-MC100SOB     3
CC0000077185534H202100015112652500015112652529/10/20210845    3190099523742196425000001956000001620610000000000000                                                                      CONECTOR MICRO CLAVE LAT-MC100SOB     3
CC0001045684571H202100015112652500015112652529/10/20210845    3190099523742196425000000302200000821110000000000000                                                             CAT VENOS CENTRAL PICC 05042 4FR X 50CMPAQ     1
CC0000077185534H202100015112652500015112652529/10/20210845    3190099523742196425000000302200000821110000000000000                                                             CAT VENOS CENTRAL PICC 05042 4FR X 50CMPAQ     1
CC0001045684571H202100015112652500015112652529/10/20210845    31900995237421964250000Q1AA7300000610640000000000000                                                            CATETER PERIFE INTROCAN # 22G 4251628-04SIN     1
CC0000077185534H202100015112652500015112652529/10/20210845    31900995237421964250000Q1AA7300000610640000000000000                                                            CATETER PERIFE INTROCAN # 22G 4251628-04SIN     1
CC0001045684571H202100015112652500015112652529/10/20210845    31900995237421964250000Q1AA3300001585140000000000000                                                                         APOSITO TEGADERM 10*12 1626SOB     1
CC0000077185534H202100015112652500015112652529/10/20210845    31900995237421964250000Q1AA3300001585140000000000000                                                                         APOSITO TEGADERM 10*12 1626SOB     1
