CC0000032734764H202100911892102900911892102929/10/20210900    3190330823742196425000024674000000220660000000000000                             JERINGA A 3 PARTES CON AGUJA  SOB X 1 RYMCO  10ML BN EXENTO-DC.417/2020SIN    10
CC0000032734764H202100911892102900911892102929/10/20210900    31903308237421964250000V07A1300000502600000000000000                                                                                AGUA ESTERIL x 10 mlAMP    10
CC0000032734764H202100911892102900911892102929/10/20211209    3190305323742196425000024674000000220660000000000000                             JERINGA A 3 PARTES CON AGUJA  SOB X 1 RYMCO  10ML BN EXENTO-DC.417/2020SIN    10
CC0000032734764H202100911892102900911892102929/10/20211209    31903053237421964250000V07A1300000502600000000000000                                                                                AGUA ESTERIL x 10 mlAMP    10
CC0000032734764H202100911892102900911892102929/10/20211834    3190100023742196425000011063900000296020000000000000                                                            SIST DRENAJE TORACICO 888571299  AQ-SEALBOL     1
