CC0001143120182U202100050131423500050131423529/10/20211546    3190233723942196432000045136100001419300000000000000                                                                            LANCETA DEXTROMETER X UNPZA     3
CC0001143120182U202100050131423500050131423529/10/20211546    31902337239421964320000E1AB0600003839280000000000000                                                            SOLUCION SALINA 0.9% SLN INY FCO X 250 MBOL     1
CC0001143120182U202100050131423500050131423529/10/20211546    31902337239421964320000E1AD0300000199490000000000000                                         LACTATO RINGER USP (HARTMANN)  SOL INY  BOL X 1000ML BAXTERBIN     1
CC0001143120182U202100050131423500050131423529/10/20211546    3190233723942196432000011137100001419310000000000000                                                               TIRA GLUCOMETRIA FREESTYLE H OPTIUM .PZA     3
