CC0001045306522U202100050131420600050131420629/10/20211122    3190319023942196432000043879200001138180000000000000                                                                                   HOJA BISTURI # 11SOB     1
CC0001048266067U202100050131420600050131420629/10/20211122    3190319023942196432000042753100003929850000000000000                   GASA ADHESIVA STRETCH REF 02037-00 ROL X 10MT FIXOMULL 10CM BN EXENTO-DC.417/2020CMT    10
CC0001048266067U202100050131420600050131420629/10/20211122    31903190239421964320000E1AB0200000199290000000000000                                                            SOLUCION SALINA 0.9% SLN INY BO X 100 MLBIN     1
