CC0000008565480H202100000555100800000555100829/10/20210528     3300009237421964250000A10A1900000601020000000000000                                                                   APIDRA CARTU 100 UI/ML X 3 ML /R/CAR     1
CC0000008565480H202100000555100800000555100829/10/20210528     3300009237421964250000B1AB0200003939510000000000000                 ENOXAPARINA SODICA 40MG/0.4ML(100MG/ML) SOL INY INST CAJ X 2JERPREL X 0.4ML TECHDOWJRP     1
CC0000008565480H202100000555100800000555100829/10/20212344    31500052237421964250000E1AB0300003888390000000000000                                                            SOLUCION SALINA 0.9% SLN INY BO X 500 MLBOL     1
CC0000008565480H202100000555100800000555100829/10/20211423     3300009237421964250000J02A0700001337120000000000000                                                                                VFEND TAB 200 MG /R/TAB     3
CC0000008565480H202100000555100800000555100829/10/20212226     3300009237421964250000A11A2600000303300000000000000                                                                 GLUCERNA LIQUIDO 1.0 KCAL X 1500 MLFCO     1
CC0000008565480H202100000555100800000555100829/10/20210528     3300009237421964250000C03C0100001672000000000000000                                                                       FUROSEMIDA SLN INY 20 MG/2 MLAMP     3
CC0000008565480H202100000555100800000555100829/10/20210527     3300009237421964250000N03AX600001334940000000000000                                                                        LEVETIRACETAM TAB 500 MG /R/TAB     2
CC0000008565480H202100000555100800000555100829/10/20210528     3300009237421964250000A02BC700001684270000000000000                                                            OMEPRAZOL 40MG POLVO LIOFILIZADO AMPOLLAVAL     1
CC0000008565480H202100000555100800000555100829/10/20211510    31500347237421964250000V07A1300000502600000000000000                                                                                AGUA ESTERIL x 10 mlAMP     5
