CC0000022515117H202100000555107400000555107429/10/20210750     3300009237421964250000B1AB1200003939350000000000000                 ENOXAPARINA SODICA 80MG/0.8ML(100MG/ML) SOL INY INST CAJ X 2JERPREL X 0.8ML TECHDOWJRP     1
CC0000022515117H202100000555107400000555107429/10/20210920    31903300237421964250000E1AB0200000199290000000000000                                                            SOLUCION SALINA 0.9% SLN INY BO X 100 MLBIN     2
CC0000022515117H202100000555107400000555107429/10/20210750     3300009237421964250000A02B0800001276960000000000000                                                                                 OMEPRAZOL CAP 20 MGCAP     1
CC0000022515117H202100000555107400000555107429/10/20210750     3300009237421964250000C10AA500001314010000000000000                                                                             ATORVASTATINA TAB 40 MGTAB     2
CC0000022515117H202100000555107400000555107429/10/20210750     3300009237421964250000P01BA200001357750000000000000                                                               HIDROXICLOROQUINA SULF TAB 200 MG /R/TAB     1
