TI0001042849714U202100000555095800000555095829/10/20210821     3300004239421964320000J01FA600001314880000000000000                                                                     ESPIRAMICINA 3000000 UI TABLETATAB     1
TI0001042849714U202100000555095800000555095829/10/20210054     3300004239421964320000J01FA600001314880000000000000                                                                     ESPIRAMICINA 3000000 UI TABLETATAB     1
TI0001042849714U202100000555095800000555095829/10/20210737     3300004239421964320000C08C0800001277870000000000000                                                                                NIFEDIPINO CAP 10 MGTAB     3
TI0001042849714U202100000555095800000555095829/10/20210521     3300004239421964320000A03BB100003889180000000000000                                      HIOSCINA BUTIL BROMURO 20MG/ML SOL INY CAJ X 100AMP X 1ML RYANAMP     1
