CC0000022440074H202100015052705200015052705229/10/20211957    3190306223742196425000045136100001419300000000000000                                                                            LANCETA DEXTROMETER X UNPZA     3
CC0000022543387H202100015052705200015052705229/10/20211957    3190306223742196425000011082700001620070000000000000                                                               EQUIPO SET PRIMARIO C/CLAVE REF 14001BOL     1
CC0000055243081H202100015052705200015052705229/10/20211957    3190306223742196425000011082700001620070000000000000                                                               EQUIPO SET PRIMARIO C/CLAVE REF 14001BOL     1
CC0000022440074H202100015052705200015052705229/10/20211957    3190306223742196425000030936900001431840000000000000                                                                                              BURETABOL     1
CC0001143227023H202100015052705200015052705229/10/20211957    3190306223742196425000030936900001431840000000000000                                                                                              BURETABOL     1
CC0000009137445H202100015052705200015052705229/10/20211957    3190306223742196425000030936900001431840000000000000                                                                                              BURETABOL     1
CC0000022543387H202100015052705200015052705229/10/20211957    3190306223742196425000030936900001431840000000000000                                                                                              BURETABOL     1
CC0000003951629H202100015052705200015052705229/10/20211957    31903062237421964250000E1BA0700000198910000000000000                                                                   UROMATIC Sln IRRIGACION X 3000 MLBIN     4
