CC0001065132676H202100000555111600000555111629/10/20210954     3300009237421964250000A04A0600001277030000000000000                                                                                      ONDAX TAB 8 MGTAB     4
CC0001065132676H202100000555111600000555111629/10/20211850     3300009237421964250000A07A0400001270530000000000000                                                            HONGISTINA SUSP ORA 100000 UI/ML X 60 MLFCO     1
CC0001065132676H202100000555111600000555111629/10/20211649    31500107237421964250000E1AB0300003888390000000000000                                                            SOLUCION SALINA 0.9% SLN INY BO X 500 MLBOL     1
CC0001065132676H202100000555111600000555111629/10/20211649    31500107237421964250000E1AB0500003888400000000000000                                                              SOLUCION SALINA 0.9% SLN INY X 1000 MLBOL     2
CC0001065132676H202100000555111600000555111629/10/20211850     3300009237421964250000A12CA200001239800000000000000                     BICARBONATO SODIO 10MEQ/10ML(1MEQ/ML) SOL INY  CAJ X 100AMPX10ML FRESENIUS KABIAMP     6
CC0001065132676H202100000555111600000555111629/10/20211849     3300009237421964250000A12BA100000552980000000000000                                                            CLORURO POTASIO Sln Iny AMP 20 MEQ/10 MLAMP     3
CC0001065132676H202100000555111600000555111629/10/20211849     3300009237421964250000J01XA400001212420000000000000                                                               VANCOMICINA POLVO LIOF SLN INY 500 MGVAL     6
CC0001065132676H202100000555111600000555111629/10/20210954     3300009237421964250000A2BC0700001335700000000000000                                                                                 OMEPRAZOL CAP 40 MGCAP     1
CC0001065132676H202100000555111600000555111629/10/20211000     3300009237421964250000L03AA100001067620000000000000                                                             ZARZIO SLN INY 30.000.000 UI/0.5 ML /R/JRP     3
CC0001065132676H202100000555111600000555111629/10/20211849     3300009237421964250000N2AX0900001672040000000000000                                                                              TRAMADOL SLN INY 50 MGAMP     1
CC0001065132676H202100000555111600000555111629/10/20211649    31500107237421964250000V07A1300000502600000000000000                                                                                AGUA ESTERIL x 10 mlAMP    15
