TI0001041697876U202100915975102900915975102929/10/20210132    3190098223942196432000011082700001620070000000000000                                                               EQUIPO SET PRIMARIO C/CLAVE REF 14001BOL     1
TI0001041697876U202100915975102900915975102929/10/20210132    3190098223942196432000016830000000970620000000000000                                                             SIST FIJACION CAT PERIFERICO 6.5X7 1683SOB     1
TI0001041697876U202100915975102900915975102929/10/20210132    3190098223942196432000024673600000222980000000000000                                                                     JERINGA DESECHABLE 5 ml 27*11/2SIN     1
TI0001041697876U202100915975102900915975102929/10/20210132    3190098223942196432000030936900001431840000000000000                                                                                              BURETABOL     1
TI0001041697876U202100915975102900915975102929/10/20210132    31900982239421964320000Q1AA7300000610640000000000000                                                            CATETER PERIFE INTROCAN # 22G 4251628-04SIN     1
TI0001041697876U202100915975102900915975102929/10/20210132    31900982239421964320000E1AB0300003888390000000000000                                                            SOLUCION SALINA 0.9% SLN INY BO X 500 MLBOL     1
