CC0001045506553A202100000027646900000027646929/10/20211139    3190333624042196419000042743200003929860000000000000                   GASA ADHESIVA STRETCH REF 02038-00 ROL X 10MT FIXOMULL 15CM BN EXENTO-DC.417/2020CMT    50
CC0001045506553A202100000027646900000027646929/10/20211139    31903336240421964190000M03AB100001371510000000000000                                                            ADECUAC SUCCINILCOLINA  100mg/mL SOL INYVAL     1
CC0001045506553A202100000027646900000027646929/10/20211139    31903336240421964190000J01F0200001689390000000000000                                                                        CLINDAMICINA INY 600 MG/4 MLAMP     1
CC0001045506553A202100000027646900000027646929/10/20211139    31903336240421964190000N01A0500003844190000000000000                                                                          REMIFENTANILO SLN INY 2 MGVAL     1
CC0001045506553A202100000027646900000027646929/10/20211139    31903336240421964190000N01B0200003888110000000000000                                           ROXICAINA SE 100MG/10ML(1%) SOL INY CAJ X 24AMPACK X 10MLAPC     1
CC0001045506553A202100000027646900000027646929/10/20211139    31903336240421964190000B02AA100001407470000000000000                                                                    CLINTRANEX SLN INY 500 MG / 5 MLAMP     2
CC0001045506553A202100000027646900000027646929/10/20211139    31903336240421964190000C01CA200001573670000000000000                                                               ETILEFRINA HCL SLN INY 10 MG/1 ML /R/AMP     1
CC0001045506553A202100000027646900000027646929/10/20211139    31903336240421964190000N01A0400003939010000000000000                                               MAYOPROFOL 200MG/20ML(1%) EMUL INY CAJ X 1VIAL X 20MLVAL     1
CC0001045506553A202100000027646900000027646929/10/20211139    3190333624042196419000015994600000632480000000000000                                                                          MONOCRYL 4-0 PS-2 45 Y496GSIN     1
CC0001045506553A202100000027646900000027646929/10/20211139    3190333624042196419000045138000001413890000000000000                                                                       LAPIZ ELECTROBISTURI  SOB X 1SOB     1
CC0001045506553A202100000027646900000027646929/10/20211139    3190333624042196419000030825800000270990000000000000                                                                  ALGODON ESTERIL SOBRE X 3 TORUNDASPZA     1
CC0001045506553A202100000027646900000027646929/10/20211139    3190333624042196419000018350200000232870000000000000                                                                                  SEDA 3-0 S.A SA84TSIN     1
CC0001045506553A202100000027646900000027646929/10/20211139    3190333624042196419000019488700000753270000000000000                                                                              VICRYL 3-0 SH1 VCP311HSOB     1
CC0001045506553A202100000027646900000027646929/10/20211139    3190333624042196419000043879100001138200000000000000                                                                  HOJA BISTURI # 15 CSSB 15 01002003SOB     1
CC0001045506553A202100000027646900000027646929/10/20211139    3190333624042196419000022425200000548240000000000000                       EXTENSION DE ANESTESIA REF 1139 SOB X 1 SHERLEG  ADULTO BN EXENTO-DC.417/2020SIN     1
CC0001045506553A202100000027646900000027646929/10/20211139    3190333624042196419000035356500003919000000000000000                                                                                        LLAVE 3 VIASSOB     2
CC0001045506553A202100000027646900000027646929/10/20211139    31903336240421964190000Q1AA7100000610620000000000000                                                            CATETER PERIFE INTROCAN # 18G 4251687-04SIN     1
CC0001045506553A202100000027646900000027646929/10/20211139    3190333624042196419000022426800001140510000000000000                                                                    EQUIPO MACROGOTEO BAXTER MRC0001SOB     1
CC0001045506553A202100000027646900000027646929/10/20211139    3190333624042196419000020750600000296780000000000000                                                                PLACA ELECTRO RETORNO PACIENTE E7506SIN     1
CC0001045506553A202100000027646900000027646929/10/20211139    3190333624042196419000011082700001620070000000000000                                                               EQUIPO SET PRIMARIO C/CLAVE REF 14001BOL     1
CC0001045506553A202100000027646900000027646929/10/20211139    3190333624042196419000053074400000607910000000000000                                                               GASA ESTERIL 10*10 SOBRE X 3 UNIDADESSOB     3
CC0001045506553A202100000027646900000027646929/10/20211139    3190333624042196419000024673000001411210000000000000                                                                  JERINGA DESECHABLE 3 ML 21 X 1 1/2SOB     1
CC0001045506553A202100000027646900000027646929/10/20211139    3190333624042196419000024673600000222980000000000000                                                                     JERINGA DESECHABLE 5 ml 27*11/2SIN     1
CC0001045506553A202100000027646900000027646929/10/20211139    3190333624042196419000024674000000220660000000000000                             JERINGA A 3 PARTES CON AGUJA  SOB X 1 RYMCO  10ML BN EXENTO-DC.417/2020SIN     5
CC0001045506553A202100000027646900000027646929/10/20211139    3190333624042196419000024674500000322810000000000000                                                                   JERINGA DESECHABLE 20 ml 21*1 1/2SIN     1
CC0001045506553A202100000027646900000027646929/10/20211139    3190333624042196419000051515500000598160000000000000                                                                            MASCARILLA ANESTESIA # 5SIN     1
CC0001045506553A202100000027646900000027646929/10/20211139    3190333624042196419000011085100001082120000000000000                                                                           GUANTE QUIRURGICO TALLA 7SOB     3
CC0001045506553A202100000027646900000027646929/10/20211139    3190333624042196419000043485100001618510000000000000                GUANTE QUIRURGICO DE LATEX REF 2D72N65X CAJ X 50 PROTEXIS  6.5 BN EXENTO-DC.417/2020SOB     3
CC0001045506553A202100000027646900000027646929/10/20211139    3190333624042196419000039175200001072070000000000000                                                                           TUBO ENDOTRAQUEAL C/B 8.0SOB     1
CC0001045506553A202100000027646900000027646929/10/20211139    3190333624042196419000011099300000777780000000000000                                                                     FILTRO BACTERIANO VIRICO ADULTOBOL     1
CC0001045506553A202100000027646900000027646929/10/20211139    31903336240421964190000E1AD0200003888320000000000000                                                                              HARTMAN SLN INY 500 MLBOL     1
CC0001045506553A202100000027646900000027646929/10/20211139    31903336240421964190000E1AB0600003839280000000000000                                                            SOLUCION SALINA 0.9% SLN INY FCO X 250 MBOL     2
CC0001045506553A202100000027646900000027646929/10/20211139    31903336240421964190000E1AB0300003888390000000000000                                                            SOLUCION SALINA 0.9% SLN INY BO X 500 MLBOL     2
CC0001045506553A202100000027646900000027646929/10/20211139    31903336240421964190000E1AB0700003888350000000000000                                                            SOLUCION SALINA 0.9% SLN INY BO X 250 MLBOL     2
CC0001045506553A202100000027646900000027646929/10/20211139    31903336240421964190000E1AB0200000199290000000000000                                                            SOLUCION SALINA 0.9% SLN INY BO X 100 MLBIN     1
CC0001045506553A202100000027646900000027646929/10/20211139    31903336240421964190000A02BC700001684270000000000000                                                            OMEPRAZOL 40MG POLVO LIOFILIZADO AMPOLLAVAL     1
CC0001045506553A202100000027646900000027646929/10/20211139    31903336240421964190000A03F0300001626860000000000000                                                                   METOCLOPRAMIDA SLN INY 10 MG/2 MLAMP     1
CC0001045506553A202100000027646900000027646929/10/20211139    31903336240421964190000N02BB100000777810000000000000                                                               DIPIRONA MAGNESICA SLN INY 2.5 G/5 MLAMP     1
CC0001045506553A202100000027646900000027646929/10/20211139    31903336240421964190000M01A2000001664970000000000000                                                               DICLOFENACO SODICO SLN INY 75 MG/3 MLAMP     1
CC0001045506553A202100000027646900000027646929/10/20211139    31903336240421964190000H02A0100001664960000000000000                                                                        DEXAMETASONA SLN INY 4 MG/MLAMP     2
