CC0001005573354H202100015052705500015052705529/10/20212029    3190163423742196425000011082700001620070000000000000                                                               EQUIPO SET PRIMARIO C/CLAVE REF 14001BOL     1
RC0001046723141H202100015052705500015052705529/10/20212029    3190163423742196425000011082700001620070000000000000                                                               EQUIPO SET PRIMARIO C/CLAVE REF 14001BOL     1
TI0001052089280H202100015052705500015052705529/10/20212029    3190163423742196425000011082700001620070000000000000                                                               EQUIPO SET PRIMARIO C/CLAVE REF 14001BOL     1
CC0001005573354H202100015052705500015052705529/10/20212029    3190163423742196425000001956000001620610000000000000                                                                      CONECTOR MICRO CLAVE LAT-MC100SOB     1
CC0000022438763H202100015052705500015052705529/10/20212029    3190163423742196425000001956000001620610000000000000                                                                      CONECTOR MICRO CLAVE LAT-MC100SOB     1
CC0001005573354H202100015052705500015052705529/10/20212029    31901634237421964250000Q1AA7100000610620000000000000                                                            CATETER PERIFE INTROCAN # 18G 4251687-04SIN     1
CC0000022438763H202100015052705500015052705529/10/20212029    31901634237421964250000Q1AA7100000610620000000000000                                                            CATETER PERIFE INTROCAN # 18G 4251687-04SIN     1
CC0001005573354H202100015052705500015052705529/10/20212029    31901634237421964250000Q1AA7200000610630000000000000                                                            CATETER PERIFE INTROCAN # 20G 4251644-04SIN     1
CC0000022438763H202100015052705500015052705529/10/20212029    31901634237421964250000Q1AA7200000610630000000000000                                                            CATETER PERIFE INTROCAN # 20G 4251644-04SIN     1
RC0001046723141H202100015052705500015052705529/10/20212029    3190163423742196425000030936900001431840000000000000                                                                                              BURETABOL     1
TI0001052089280H202100015052705500015052705529/10/20212029    3190163423742196425000030936900001431840000000000000                                                                                              BURETABOL     1
CC0001005573354H202100015052705500015052705529/10/20212029    3190163423742196425000016830000000970620000000000000                                                             SIST FIJACION CAT PERIFERICO 6.5X7 1683SOB     1
CC0000022438763H202100015052705500015052705529/10/20212029    3190163423742196425000016830000000970620000000000000                                                             SIST FIJACION CAT PERIFERICO 6.5X7 1683SOB     1
CC0000007469257H202100015052705500015052705529/10/20212029    31901634237421964250000E1AB0300003888390000000000000                                                            SOLUCION SALINA 0.9% SLN INY BO X 500 MLBOL     2
CC0001005573354H202100015052705500015052705529/10/20212029    31901634237421964250000E1AB0300003888390000000000000                                                            SOLUCION SALINA 0.9% SLN INY BO X 500 MLBOL     1
TI0001052089280H202100015052705500015052705529/10/20212029    31901634237421964250000E1AB0300003888390000000000000                                                            SOLUCION SALINA 0.9% SLN INY BO X 500 MLBOL     1
RC0001046723141H202100015052705500015052705529/10/20212029    31901634237421964250000E1AC0100000199400000000000000                                                                          SUERO MIXTO Sln Iny 500 mlBIN     2
TI0001047229284H202100015052705500015052705529/10/20212029    31901634237421964250000E1AC0100000199400000000000000                                                                          SUERO MIXTO Sln Iny 500 mlBIN     2
