CC0000032734764H202100000555103400000555103429/10/20210854     3300009237421964250000A6AC0200001467010000000000000                                                             LACTULAX JARABE 66.7G/100ML SOX15ML /R/SOB     2
CC0000032734764H202100000555103400000555103429/10/20210550    31902978237421964250000E1AD0200003888320000000000000                                                                              HARTMAN SLN INY 500 MLBOL     1
CC0000032734764H202100000555103400000555103429/10/20210854     3300009237421964250000B01AB200000513350000000000000                                                                        CLENOX SLN INY 40 MG/ 0.4 MLJRP     1
CC0000032734764H202100000555103400000555103429/10/20211355     3300009237421964250000H2AB0200001276910000000000000                                                                               PREDNISOLONA TAB 5 MGTAB     4
CC0000032734764H202100000555103400000555103429/10/20211908     3300009237421964250000J01CR300001659480000000000000                                                                  DELBACTAM POLVO LIOF SLN INY 4.5 GVAL     1
CC0000032734764H202100000555103400000555103429/10/20210854     3300009237421964250000J01CR300001659480000000000000                                                                  DELBACTAM POLVO LIOF SLN INY 4.5 GVAL     3
CC0000032734764H202100000555103400000555103429/10/20212349     3300009237421964250000N02AA700000979510000000000000                                                            DIHIDROCODEINA SLN ORAL 2.42 MG/ML X 120FCO     1
CC0000032734764H202100000555103400000555103429/10/20211908     3300009237421964250000N2BB0100000787510000000000000                                                                    DIPIRONA SODICA Sln Iny 1 g/2 mlAMP     1
CC0000032734764H202100000555103400000555103429/10/20210855     3300009237421964250000N2BB0100000787510000000000000                                                                    DIPIRONA SODICA Sln Iny 1 g/2 mlAMP     3
CC0000032734764H202100000555103400000555103429/10/20210854     3300009237421964250000N2AX0900001672040000000000000                                                                              TRAMADOL SLN INY 50 MGAMP     3
CC0000032734764H202100000555103400000555103429/10/20210854     3300009237421964250000N06AX200001277490000000000000                                                                                 TRAZODONA TAB 50 MGTAB     1
CC0000032734764H202100000555103400000555103429/10/20210855     3300009237421964250000A02BC700001684270000000000000                                                            OMEPRAZOL 40MG POLVO LIOFILIZADO AMPOLLAVAL     1
CC0000032734764H202100000555103400000555103429/10/20211216    31903308237421964250000V07A1300000502600000000000000                                                                                AGUA ESTERIL x 10 mlAMP    10
