CC0001045739587H202100015052704200015052704229/10/20211147    3190302323742196425000011047900000223010000000000000                                                                            JERINGA X 1ML REF 302579SIN     3
CC0001045739587H202100015052704200015052704229/10/20211147    3190302323742196425000043485100001618510000000000000                GUANTE QUIRURGICO DE LATEX REF 2D72N65X CAJ X 50 PROTEXIS  6.5 BN EXENTO-DC.417/2020SOB     2
CC0001045739587H202100015052704200015052704229/10/20211147    3190302323742196425000001956000001620610000000000000                                                                      CONECTOR MICRO CLAVE LAT-MC100SOB     2
CC0001045739587H202100015052704200015052704229/10/20211147    31903023237421964250000Q1AA7300000610640000000000000                                                            CATETER PERIFE INTROCAN # 22G 4251628-04SIN     1
CC0001045739587H202100015052704200015052704229/10/20211147    3190302323742196425000000602700001197200000000000000                                                              APOSITO TRANSP  1655 IV 8.5CM X 11.5CMSOB     1
