CC0000072133553U202100000555101000000555101029/10/20210943     3300004239421964320000A6AC0200001467010000000000000                                                             LACTULAX JARABE 66.7G/100ML SOX15ML /R/SOB     1
CC0000072133553U202100000555101000000555101029/10/20210530     3300004239421964320000A6AC0200001467010000000000000                                                             LACTULAX JARABE 66.7G/100ML SOX15ML /R/SOB     1
CC0000072133553U202100000555101000000555101029/10/20210956     3300004239421964320000J3CB2100000547740000000000000                                                                      CIPRO IV SLN INY 400 Mg/200 MLFCO     1
CC0000072133553U202100000555101000000555101029/10/20210943     3300004239421964320000J01F0200001689390000000000000                                                                        CLINDAMICINA INY 600 MG/4 MLAMP     1
CC0000072133553U202100000555101000000555101029/10/20210530     3300004239421964320000J01F0200001689390000000000000                                                                        CLINDAMICINA INY 600 MG/4 MLAMP     1
