RC0001043714288H202100015122510200015122510229/10/20210001    3190296023742196425000038568300000257010000000000000                                                                                   SONDA NELATON #08SIN     1
RC0001046736821H202100015122510200015122510229/10/20210001    3190296023742196425000038572700000256840000000000000                                                                                 SONDA NSG LEVIN #10SIN     1
RC0001046736821H202100015122510200015122510229/10/20210001    3190296023742196425000011082700001620070000000000000                                                               EQUIPO SET PRIMARIO C/CLAVE REF 14001BOL     1
TI0001130268767H202100015122510200015122510229/10/20210001    3190296023742196425000011082700001620070000000000000                                                               EQUIPO SET PRIMARIO C/CLAVE REF 14001BOL     1
TI0001072108867H202100015122510200015122510229/10/20210001    3190296023742196425000011082700001620070000000000000                                                               EQUIPO SET PRIMARIO C/CLAVE REF 14001BOL     1
RC0001046736821H202100015122510200015122510229/10/20210001    3190296023742196425000001956000001620610000000000000                                                                      CONECTOR MICRO CLAVE LAT-MC100SOB     1
TI0001130268767H202100015122510200015122510229/10/20210001    3190296023742196425000001956000001620610000000000000                                                                      CONECTOR MICRO CLAVE LAT-MC100SOB     1
RC0001048091446H202100015122510200015122510229/10/20210001    31902960237421964250000Q1AA7400003911720000000000000                                                            CATETER PERIFE INTROCAN # 24G 4251601-04SOB     4
RC0001046736821H202100015122510200015122510229/10/20210001    3190296023742196425000030936900001431840000000000000                                                                                              BURETABOL     2
TI0001130268767H202100015122510200015122510229/10/20210001    3190296023742196425000030936900001431840000000000000                                                                                              BURETABOL     1
TI0001072108867H202100015122510200015122510229/10/20210001    3190296023742196425000030936900001431840000000000000                                                                                              BURETABOL     1
TI0001072108867H202100015122510200015122510229/10/20210001    31902960237421964250000E1AD0300000199490000000000000                                         LACTATO RINGER USP (HARTMANN)  SOL INY  BOL X 1000ML BAXTERBIN     3
