TI0001043153192U202100050131427000050131427029/10/20211954    3150025823942196432000045136100001419300000000000000                                                                            LANCETA DEXTROMETER X UNPZA     3
TI0001043153192U202100050131427000050131427029/10/20211954    3150025823942196432000024672100001609890000000000000                                                            JERINGA INSULINA 1ML TAPA NARANJA JEI013SOB     1
TI0001043153192U202100050131427000050131427029/10/20211954    3150025823942196432000001956000001620610000000000000                                                                      CONECTOR MICRO CLAVE LAT-MC100SOB     1
TI0001043153192U202100050131427000050131427029/10/20211954    31500258239421964320000Q1AA7300000610640000000000000                                                            CATETER PERIFE INTROCAN # 22G 4251628-04SIN     1
TI0001043153192U202100050131427000050131427029/10/20211954    3150025823942196432000016830000000970620000000000000                                                             SIST FIJACION CAT PERIFERICO 6.5X7 1683SOB     1
TI0001043153192U202100050131427000050131427029/10/20211954    3150025823942196432000011137100001419310000000000000                                                               TIRA GLUCOMETRIA FREESTYLE H OPTIUM .PZA     3
