CC0000022467890H202100015112653600015112653629/10/20211445    3150007223742196425000062750300001405970000000000000                                                             APOSITO VAC WHITEFOAM LARGE M6275034/10SOB     1
CC0000022467890H202100015112653600015112653629/10/20211445    3150007223742196425000082750900001418360000000000000                                                            APOSITO VAC GRANUFOA SILVER M M8275096/5PZA     1
CC0000022467890H202100015112653600015112653629/10/20211445    3150007223742196425000018352000000232900000000000000                                                                                   SEDA 3-0 SH K832HSIN     1
CC0000022467890H202100015112653600015112653629/10/20211445    3150007223742196425000047373400000228840000000000000                                                                             PINZA COLOSTOMIA 175635PZA     2
CC0000022467890H202100015112653600015112653629/10/20211445    3150007223742196425000017803600000228850000000000000                                                                            PASTA STOMAHESIVE 56.7 gCAJ     1
CC0000022467890H202100015112653600015112653629/10/20211445    3150007223742196425000035356500003919000000000000000                                                                                        LLAVE 3 VIASSOB     1
CC0000022467890H202100015112653600015112653629/10/20211445    3150007223742196425000045136100001419300000000000000                                                                            LANCETA DEXTROMETER X UNPZA     3
CC0000008761530H202100015112653600015112653629/10/20211445    3150007223742196425000045136100001419300000000000000                                                                            LANCETA DEXTROMETER X UNPZA     3
CC0000072428894H202100015112653600015112653629/10/20211445    3150007223742196425000045136100001419300000000000000                                                                            LANCETA DEXTROMETER X UNPZA     2
CC0000022467890H202100015112653600015112653629/10/20211445    3150007223742196425000024674000000220660000000000000                             JERINGA A 3 PARTES CON AGUJA  SOB X 1 RYMCO  10ML BN EXENTO-DC.417/2020SIN    10
CC0000008761530H202100015112653600015112653629/10/20211445    3150007223742196425000024674000000220660000000000000                             JERINGA A 3 PARTES CON AGUJA  SOB X 1 RYMCO  10ML BN EXENTO-DC.417/2020SIN    10
CC0000022467890H202100015112653600015112653629/10/20211445    3150007223742196425000062750100001405910000000000000                                                                 INFOVAC CANISTER 1000 ML M8275093/5SOB     1
CC0000022467890H202100015112653600015112653629/10/20211445    3150007223742196425000043879200001138180000000000000                                                                                   HOJA BISTURI # 11SOB     1
CC0000022467890H202100015112653600015112653629/10/20211445    3150007223742196425000043879400001138170000000000000                                                                  HOJA BISTURI # 10 CSSB 10 01002000SOB     1
CC0000022467890H202100015112653600015112653629/10/20211445    3150007223742196425000011089300001083990000000000000                                                              GUANTE ESTERIL LATEX S/POLVO TALLA 7.5SOB     3
CC0000022467890H202100015112653600015112653629/10/20211445    3150007223742196425000011089000001318280000000000000                                                             GUANTE CIRUGIA NITRILO ALFASAFE TALLA 8SOB     2
CC0000022467890H202100015112653600015112653629/10/20211445    3150007223742196425000013077800000471960000000000000                                                             GASA NO TEJIDA EST 7.5 X 7.5 SOB X 3 UNSOB    10
CC0000022467890H202100015112653600015112653629/10/20211445    3150007223742196425000042753000003929870000000000000                    GASA ADHESIVA STRETCH REF 02036-00 ROL X 10MT FIXOMULL 5CM BN EXENTO-DC.417/2020CMT    20
CC0000022467890H202100015112653600015112653629/10/20211445    3150007223742196425000011082900001233450000000000000                                                               EQUIPO LC 5000 PRIMARIO FOTOPRO 0L218SOB     1
CC0000022467890H202100015112653600015112653629/10/20211445    3150007223742196425000011112300000520410000000000000                                                               CATETER RECTO MEDCOM BILUMEN XTP116MTBIN     1
CC0000022467890H202100015112653600015112653629/10/20211445    3150007223742196425000040515800000228670000000000000                                                                        BOLSA COLOSTOMIA CONVATEC 70PZA     2
CC0000022467890H202100015112653600015112653629/10/20211445    3150007223742196425000040514400000228730000000000000                                                               BARRERA COLOSTOMIA CONVATEC 70 400949PZA     2
CC0000022467890H202100015112653600015112653629/10/20211445    3150007223742196425000020056600001101530000000000000                                                                AGUJA HIPODERMICA DESECH 18G X 1 1/2SOB     5
CC0000008761530H202100015112653600015112653629/10/20211445    3150007223742196425000020056600001101530000000000000                                                                AGUJA HIPODERMICA DESECH 18G X 1 1/2SOB     5
CC0000022467890H202100015112653600015112653629/10/20211445    31500072237421964250000E1AB0500003888400000000000000                                                              SOLUCION SALINA 0.9% SLN INY X 1000 MLBOL     3
CC0000022467890H202100015112653600015112653629/10/20211445    3150007223742196425000011137100001419310000000000000                                                               TIRA GLUCOMETRIA FREESTYLE H OPTIUM .PZA     3
CC0000008761530H202100015112653600015112653629/10/20211445    3150007223742196425000011137100001419310000000000000                                                               TIRA GLUCOMETRIA FREESTYLE H OPTIUM .PZA     3
CC0000072428894H202100015112653600015112653629/10/20211445    3150007223742196425000011137100001419310000000000000                                                               TIRA GLUCOMETRIA FREESTYLE H OPTIUM .PZA     2
