CC0000072133553H202100000555133700000555133729/10/20211923     3300009237421964250000A6AC0200001467010000000000000                                                             LACTULAX JARABE 66.7G/100ML SOX15ML /R/SOB     1
CC0000072133553H202100000555133700000555133729/10/20211922     3300009237421964250000A6AC0200001467010000000000000                                                             LACTULAX JARABE 66.7G/100ML SOX15ML /R/SOB     2
CC0000072133553H202100000555133700000555133729/10/20212324    31903152237421964250000E1AB0300003888390000000000000                                                            SOLUCION SALINA 0.9% SLN INY BO X 500 MLBOL     1
CC0000072133553H202100000555133700000555133729/10/20212016    31901635237421964250000E1AB0300003888390000000000000                                                            SOLUCION SALINA 0.9% SLN INY BO X 500 MLBOL     1
CC0000072133553H202100000555133700000555133729/10/20211923     3300009237421964250000J3CB2100000547740000000000000                                                                      CIPRO IV SLN INY 400 Mg/200 MLFCO     2
CC0000072133553H202100000555133700000555133729/10/20211922     3300009237421964250000B01AB200000513350000000000000                                                                        CLENOX SLN INY 40 MG/ 0.4 MLJRP     1
CC0000072133553H202100000555133700000555133729/10/20211922     3300009237421964250000J01F0200001689390000000000000                                                                        CLINDAMICINA INY 600 MG/4 MLAMP     3
