CC0001118877233H202100000555122000000555122029/10/20211458    31902653237421964250000J01DB300000553200000000000000                                                                         CEFALOTINA SLN INY 1 G VIALVAL     3
CC0001118877233H202100000555122000000555122029/10/20211458    31902653237421964250000N2BB0200000513030000000000000                                                                           LISALGIL Sln Iny 2 g/5 mlAMP     3
CC0001118877233H202100000555122000000555122029/10/20211458    31902653237421964250000A2BC0700001335700000000000000                                                                                 OMEPRAZOL CAP 40 MGCAP     1
CC0001118877233H202100000555122000000555122029/10/20211458    31902653237421964250000A03BB100003889180000000000000                                      HIOSCINA BUTIL BROMURO 20MG/ML SOL INY CAJ X 100AMP X 1ML RYANAMP     3
