CC0001045739587H202100015052705300015052705329/10/20212016    3190315223742196425000022426800001140510000000000000                                                                    EQUIPO MACROGOTEO BAXTER MRC0001SOB     1
CC0000032683043H202100015052705300015052705329/10/20212016    3190315223742196425000011082700001620070000000000000                                                               EQUIPO SET PRIMARIO C/CLAVE REF 14001BOL     1
CC0000008697210H202100015052705300015052705329/10/20212016    3190315223742196425000011082700001620070000000000000                                                               EQUIPO SET PRIMARIO C/CLAVE REF 14001BOL     1
CC0001129528161H202100015052705300015052705329/10/20212016    3190315223742196425000001956000001620610000000000000                                                                      CONECTOR MICRO CLAVE LAT-MC100SOB     1
CC0000032683043H202100015052705300015052705329/10/20212016    3190315223742196425000030936900001431840000000000000                                                                                              BURETABOL     1
CC0000008697210H202100015052705300015052705329/10/20212016    3190315223742196425000030936900001431840000000000000                                                                                              BURETABOL     1
TI0001047044339H202100015052705300015052705329/10/20212016    31903152237421964250000E1AD0300000199490000000000000                                         LACTATO RINGER USP (HARTMANN)  SOL INY  BOL X 1000ML BAXTERBIN     3
RC0001158467183H202100015052705300015052705329/10/20212016    31903152237421964250000E1AD0200003888320000000000000                                                                              HARTMAN SLN INY 500 MLBOL     1
CC0000032675307H202100015052705300015052705329/10/20212016    31903152237421964250000E1AD0200003888320000000000000                                                                              HARTMAN SLN INY 500 MLBOL     1
CC0000072248781H202100015052705300015052705329/10/20212016    31903152237421964250000E1AD0200003888320000000000000                                                                              HARTMAN SLN INY 500 MLBOL     1
CC0000032884223H202100015052705300015052705329/10/20212016    31903152237421964250000E1AB0500003888400000000000000                                                              SOLUCION SALINA 0.9% SLN INY X 1000 MLBOL     1
CC0001132234000H202100015052705300015052705329/10/20212016    31903152237421964250000E1AB0500003888400000000000000                                                              SOLUCION SALINA 0.9% SLN INY X 1000 MLBOL     1
CC0000032683043H202100015052705300015052705329/10/20212016    31903152237421964250000E1AB0300003888390000000000000                                                            SOLUCION SALINA 0.9% SLN INY BO X 500 MLBOL     1
CC0001129528161H202100015052705300015052705329/10/20212016    31903152237421964250000E1AB0300003888390000000000000                                                            SOLUCION SALINA 0.9% SLN INY BO X 500 MLBOL     1
CC0000072133553H202100015052705300015052705329/10/20212016    31903152237421964250000E1AB0300003888390000000000000                                                            SOLUCION SALINA 0.9% SLN INY BO X 500 MLBOL     1
CC0000044191272H202100015052705300015052705329/10/20212016    31903152237421964250000E1AB0300003888390000000000000                                                            SOLUCION SALINA 0.9% SLN INY BO X 500 MLBOL     1
CC0001129508481H202100015052705300015052705329/10/20212016    31903152237421964250000E1AB0300003888390000000000000                                                            SOLUCION SALINA 0.9% SLN INY BO X 500 MLBOL     1
CC0001045739587H202100015052705300015052705329/10/20212016    31903152237421964250000E1AB0300003888390000000000000                                                            SOLUCION SALINA 0.9% SLN INY BO X 500 MLBOL     1
CC0000008697210H202100015052705300015052705329/10/20212016    31903152237421964250000E1AB0300003888390000000000000                                                            SOLUCION SALINA 0.9% SLN INY BO X 500 MLBOL     1
