CC0000008716890H202100015012569800015012569829/10/20211005    3190205623742196425000024674500000322810000000000000                                                                   JERINGA DESECHABLE 20 ml 21*1 1/2SIN     1
CC0000008716890H202100015012569800015012569829/10/20211005    3190205623742196425000011085400001083360000000000000                                                                       GUANTE QUIRURGICO TALLA 8 1/2SOB     1
CC0000008716890H202100015012569800015012569829/10/20211005    3190205623742196425000013077800000471960000000000000                                                             GASA NO TEJIDA EST 7.5 X 7.5 SOB X 3 UNSOB     2
CC0000008716890H202100015012569800015012569829/10/20211005    3190205623742196425000011082700001620070000000000000                                                               EQUIPO SET PRIMARIO C/CLAVE REF 14001BOL     1
CC0000008716890H202100015012569800015012569829/10/20211005    3190205623742196425000000100600000223090000000000000                                                                      AGUJA DESECHABLE 18G X 1 1/2 PSIN     1
CC0000008716890H202100015012569800015012569829/10/20211005    31902056237421964250000E1AB0300003888390000000000000                                                            SOLUCION SALINA 0.9% SLN INY BO X 500 MLBOL     1
