CC0001129569793H202100000555092300000555092329/10/20210853     3300009237421964250000A04A1400001467560000000000000                                                                      ONDANSETRON SLN INY 8 MG/ 4 MLVAL     1
CC0001129569793H202100000555092300000555092329/10/20210016     3300010237421964250000A04A1400001467560000000000000                                                                      ONDANSETRON SLN INY 8 MG/ 4 MLVAL     4
CC0001129569793H202100000555092300000555092329/10/20210551    31902978237421964250000E1AC0100000199400000000000000                                                                          SUERO MIXTO Sln Iny 500 mlBIN     1
CC0001129569793H202100000555092300000555092329/10/20210551    31902978237421964250000E1AD0200003888320000000000000                                                                              HARTMAN SLN INY 500 MLBOL     1
CC0001129569793H202100000555092300000555092329/10/20210853     3300009237421964250000J01DA300001239950000000000000                                                            CEFAZOLINA SODICA POLVO LIOF SLN INY 1 GVAL     3
CC0001129569793H202100000555092300000555092329/10/20210853     3300009237421964250000M01A0400001341250000000000000                                                                              DYNASTAT AMP 40 MG /R/VAL     2
CC0001129569793H202100000555092300000555092329/10/20210853     3300009237421964250000N02B1100001169680000000000000                              PARACETAMOL 1000MG/100ML(10MG/ML) SOL INY  VIAL X 100ML FRESENIUS KABIVAL     3
CC0001129569793H202100000555092300000555092329/10/20210921     3300009237421964250000N5BB0200001278580000000000000                                                                                   HIDERAX TAB 25 MGTAB     2
CC0001129569793H202100000555092300000555092329/10/20211213    31903308237421964250000V07A1300000502600000000000000                                                                                AGUA ESTERIL x 10 mlAMP     8
