CC0001042970504H202100015112653100015112653129/10/20211056    31903059237421964250000V07A1300000502600000000000000                                                                                AGUA ESTERIL x 10 mlAMP     5
CC0001042970504H202100015112653100015112653129/10/20211056    3190305923742196425000035356500003919000000000000000                                                                                        LLAVE 3 VIASSOB     1
CC0001042970504H202100015112653100015112653129/10/20211056    3190305923742196425000024674000000220660000000000000                             JERINGA A 3 PARTES CON AGUJA  SOB X 1 RYMCO  10ML BN EXENTO-DC.417/2020SIN    10
CC0001042970504H202100015112653100015112653129/10/20211056    3190305923742196425000011082700001620070000000000000                                                               EQUIPO SET PRIMARIO C/CLAVE REF 14001BOL     1
CC0001042970504H202100015112653100015112653129/10/20211056    31903059237421964250000E1AB0200000199290000000000000                                                            SOLUCION SALINA 0.9% SLN INY BO X 100 MLBIN     8
CC0001042970504H202100015112653100015112653129/10/20211056    3190305923742196425000011137100001419310000000000000                                                               TIRA GLUCOMETRIA FREESTYLE H OPTIUM .PZA     3
