CC0001044424695U202100050131420700050131420729/10/20211133    3190118923942196432000011082700001620070000000000000                                                               EQUIPO SET PRIMARIO C/CLAVE REF 14001BOL     1
CC0001044424695U202100050131420700050131420729/10/20211133    31901189239421964320000Q1AA7100000610620000000000000                                                            CATETER PERIFE INTROCAN # 18G 4251687-04SIN     1
CC0001044424695U202100050131420700050131420729/10/20211133    3190118923942196432000016830000000970620000000000000                                                             SIST FIJACION CAT PERIFERICO 6.5X7 1683SOB     1
