TI0001013006246U202100000555114600000555114629/10/20211106     3300004239421964320000A4AD0200000202990000000000000                                                                     PLITICAN HCL Sln Iny 50 mg/2 mlAMP     1
TI0001013006246U202100000555114600000555114629/10/20211132    31901181239421964320000E1AD0300000199490000000000000                                         LACTATO RINGER USP (HARTMANN)  SOL INY  BOL X 1000ML BAXTERBIN     1
TI0001013006246U202100000555114600000555114629/10/20211107     3300004239421964320000N02B1100001169680000000000000                              PARACETAMOL 1000MG/100ML(10MG/ML) SOL INY  VIAL X 100ML FRESENIUS KABIVAL     1
