CC0001140828821H202100015032581400015032581429/10/20211039    3190240923742196425000011082700001620070000000000000                                                               EQUIPO SET PRIMARIO C/CLAVE REF 14001BOL     1
CC0001140828821H202100015032581400015032581429/10/20211039    3190240923742196425000030936900001431840000000000000                                                                                              BURETABOL     1
CC0000022468146H202100015032581400015032581429/10/20211039    31902409237421964250000E1AD0200003888320000000000000                                                                              HARTMAN SLN INY 500 MLBOL     1
CC0000032691052H202100015032581400015032581429/10/20211039    31902409237421964250000E1AB0500003888400000000000000                                                              SOLUCION SALINA 0.9% SLN INY X 1000 MLBOL     1
CC0001140828821H202100015032581400015032581429/10/20211039    31902409237421964250000E1AB0500003888400000000000000                                                              SOLUCION SALINA 0.9% SLN INY X 1000 MLBOL     1
