CC0000032842949H202100000555112000000555112029/10/20211447     3300009237421964250000B1AB0900003939260000000000000                 ENOXAPARINA SODICA 60MG/0.6ML(100MG/ML) SOL INY INST CAJ X 2JERPREL X 0.6ML TECHDOWJRP     1
CC0000032842949H202100000555112000000555112029/10/20211353     3300009237421964250000B1AB0900003939260000000000000                 ENOXAPARINA SODICA 60MG/0.6ML(100MG/ML) SOL INY INST CAJ X 2JERPREL X 0.6ML TECHDOWJRP     1
CC0000032842949H202100000555112000000555112029/10/20211017     3300009237421964250000A02B0800001276960000000000000                                                                                 OMEPRAZOL CAP 20 MGCAP     1
CC0000032842949H202100000555112000000555112029/10/20211017     3300009237421964250000A06A1700001333140000000000000                                                                                 BISACODILO TAB 5 MGTAB     1
CC0000032842949H202100000555112000000555112029/10/20211016     3300009237421964250000A06A1700001333140000000000000                                                                                 BISACODILO TAB 5 MGTAB     1
CC0000032842949H202100000555112000000555112029/10/20211353     3300009237421964250000B01AC200001333600000000000000                                                                               CLOPIDOGREL TAB 75 MGTAB     2
CC0000032842949H202100000555112000000555112029/10/20211353     3300009237421964250000C09CA700001315590000000000000                                                                                 LOSARTAN TAB 100 MGTAB     2
CC0000032842949H202100000555112000000555112029/10/20211016     3300009237421964250000C07A1300001314300000000000000                                                                            CARVEDILOL TAB 25 MG /R/TAB     2
CC0000032842949H202100000555112000000555112029/10/20211353     3300009237421964250000C08CA200001277660000000000000                                                                                 AMLODIPINO TAB 5 MGTAB     2
CC0000032842949H202100000555112000000555112029/10/20211353     3300009237421964250000C10AA500001314010000000000000                                                                             ATORVASTATINA TAB 40 MGTAB     1
CC0000032842949H202100000555112000000555112029/10/20211016     3300009237421964250000C10AA500001314010000000000000                                                                             ATORVASTATINA TAB 40 MGTAB     1
CC0000032842949H202100000555112000000555112029/10/20211448     3300009237421964250000N2BE2200001252930000000000000                                                                             ACETAMINOFEN Tab 500 MGTAB     2
CC0000032842949H202100000555112000000555112029/10/20211016     3300009237421964250000N2BE2200001252930000000000000                                                                             ACETAMINOFEN Tab 500 MGTAB     6
CC0000032842949H202100000555112000000555112029/10/20211353     3300009237421964250000N02BA100001276940000000000000                                                                  ACIDO ACETIL SALIC?LICO TAB 100 MGTAB     2
CC0000032842949H202100000555112000000555112029/10/20211016     3300009237421964250000N03AX800001334920000000000000                                                                               LEGABIN CAP 75 MG /R/CAP     1
