CC0001045719152H202100015052704800015052704829/10/20211719    3190318423742196425000045136100001419300000000000000                                                                            LANCETA DEXTROMETER X UNPZA     8
CC0000022543387H202100015052704800015052704829/10/20211719    31903184237421964250000E1AD0300000199490000000000000                                         LACTATO RINGER USP (HARTMANN)  SOL INY  BOL X 1000ML BAXTERBIN     1
CC0000003951629H202100015052704800015052704829/10/20211719    31903184237421964250000E1AB0300003888390000000000000                                                            SOLUCION SALINA 0.9% SLN INY BO X 500 MLBOL     3
CC0001045719152H202100015052704800015052704829/10/20211719    3190318423742196425000011137100001419310000000000000                                                               TIRA GLUCOMETRIA FREESTYLE H OPTIUM .PZA     8
