TI0001130268767H202100015122510900015122510929/10/20211355    3190301623742196425000039174700001072020000000000000                                                                           TUBO ENDOTRAQUEAL C/B 5.5SOB     1
RC0001103757159H202100015122510900015122510929/10/20211355    3190301623742196425000039174100001072160000000000000                                                                           TUBO ENDOTRAQUEAL S/B 5.0SOB     1
RC0001103757159H202100015122510900015122510929/10/20211355    3190301623742196425000035356500003919000000000000000                                                                                        LLAVE 3 VIASSOB     3
RC0001103757159H202100015122510900015122510929/10/20211355    3190301623742196425000024674000000220660000000000000                             JERINGA A 3 PARTES CON AGUJA  SOB X 1 RYMCO  10ML BN EXENTO-DC.417/2020SIN     4
RC0001103757159H202100015122510900015122510929/10/20211355    3190301623742196425000024673600000222980000000000000                                                                     JERINGA DESECHABLE 5 ml 27*11/2SIN     6
RC0001103757159H202100015122510900015122510929/10/20211355    3190301623742196425000043879200001138180000000000000                                                                                   HOJA BISTURI # 11SOB     1
RC0001103757159H202100015122510900015122510929/10/20211355    3190301623742196425000043485100001618510000000000000                GUANTE QUIRURGICO DE LATEX REF 2D72N65X CAJ X 50 PROTEXIS  6.5 BN EXENTO-DC.417/2020SOB     4
TI0001130268767H202100015122510900015122510929/10/20211355    3190301623742196425000011089400001083350000000000000                                                              GUANTE ESTERIL LATEX S/POLVO TALLA 8.0SOB     4
RC0001103757159H202100015122510900015122510929/10/20211355    3190301623742196425000013077800000471960000000000000                                                             GASA NO TEJIDA EST 7.5 X 7.5 SOB X 3 UNSOB    10
RC0001103757159H202100015122510900015122510929/10/20211355    3190301623742196425000022425200000548240000000000000                       EXTENSION DE ANESTESIA REF 1139 SOB X 1 SHERLEG  ADULTO BN EXENTO-DC.417/2020SIN     4
RC0001103757159H202100015122510900015122510929/10/20211355    3190301623742196425000001956000001620610000000000000                                                                      CONECTOR MICRO CLAVE LAT-MC100SOB     1
RC0001103757159H202100015122510900015122510929/10/20211355    31903016237421964250000Q1AA7200000610630000000000000                                                            CATETER PERIFE INTROCAN # 20G 4251644-04SIN     1
RC0001103757159H202100015122510900015122510929/10/20211355    31903016237421964250000Q1AA7300000610640000000000000                                                            CATETER PERIFE INTROCAN # 22G 4251628-04SIN     1
RC0001103757159H202100015122510900015122510929/10/20211355    31903016237421964250000N1BA2400001195280000000000000                                                                    LIDOCAINA 2% S/E Sln Iny x 10 mlAMP     1
RC0001103757159H202100015122510900015122510929/10/20211355    31903016237421964250000E1AB0700003888350000000000000                                                            SOLUCION SALINA 0.9% SLN INY BO X 250 MLBOL     3
RC0001103757159H202100015122510900015122510929/10/20211355    31903016237421964250000E1AB0200000199290000000000000                                                            SOLUCION SALINA 0.9% SLN INY BO X 100 MLBIN     2
