CC0000072220741U202100000555126200000555126229/10/20211744    31500194239421964320000E1AB0700003888350000000000000                                                            SOLUCION SALINA 0.9% SLN INY BO X 250 MLBOL     1
CC0000072220741U202100000555126200000555126229/10/20211628     3300004239421964320000H02AB500001664950000000000000                                                            DEXAMETASONA SLN INY 8 MG/2 ML AMP /CDS/AMP     1
CC0000072220741U202100000555126200000555126229/10/20211640     3300004239421964320000M03B1200001316690000000000000                                                                                   PARALGEN TAB 8 MGCAP     1
CC0000072220741U202100000555126200000555126229/10/20211746     3300004239421964320000N2AX0400001204140000000000000                                                                             TRAMAL Sln Iny 50 mg/mlAMP     1
CC0000072220741U202100000555126200000555126229/10/20211628     3300004239421964320000N02B1100001169680000000000000                              PARACETAMOL 1000MG/100ML(10MG/ML) SOL INY  VIAL X 100ML FRESENIUS KABIVAL     1
