CC0001129569793H202100000555114200000555114229/10/20211054    31903053237421964250000A04A1400001467560000000000000                                                                      ONDANSETRON SLN INY 8 MG/ 4 MLVAL     3
CC0001129569793H202100000555114200000555114229/10/20211054    31903053237421964250000J01DA300001239950000000000000                                                            CEFAZOLINA SODICA POLVO LIOF SLN INY 1 GVAL     3
CC0001129569793H202100000555114200000555114229/10/20211054    31903053237421964250000M01A0400001341250000000000000                                                                              DYNASTAT AMP 40 MG /R/VAL     2
CC0001129569793H202100000555114200000555114229/10/20211054    31903053237421964250000N02B1100001169680000000000000                              PARACETAMOL 1000MG/100ML(10MG/ML) SOL INY  VIAL X 100ML FRESENIUS KABIVAL     3
CC0001129569793H202100000555114200000555114229/10/20211054    31903053237421964250000N5BB0200001278580000000000000                                                                                   HIDERAX TAB 25 MGTAB     1
