CC0000032678618H202100000555106300000555106329/10/20211018     3300009237421964250000B03BB200001351190000000000000                                                                            ACIDO FOLICO 1MG TABLETATAB     1
CC0000032678618H202100000555106300000555106329/10/20211018     3300009237421964250000B1AB0200003939510000000000000                 ENOXAPARINA SODICA 40MG/0.4ML(100MG/ML) SOL INY INST CAJ X 2JERPREL X 0.4ML TECHDOWJRP     1
CC0000032678618H202100000555106300000555106329/10/20211018     3300009237421964250000B03A0100001336630000000000000                                                                          SULFATO FERROSO Tab 200 mgTAB     1
CC0000032678618H202100000555106300000555106329/10/20211616    31901154237421964250000E1AB0700003888350000000000000                                                            SOLUCION SALINA 0.9% SLN INY BO X 250 MLBOL     1
CC0000032678618H202100000555106300000555106329/10/20211018     3300009237421964250000A11A2600000303300000000000000                                                                 GLUCERNA LIQUIDO 1.0 KCAL X 1500 MLFCO     1
CC0000032678618H202100000555106300000555106329/10/20212313     3300009237421964250000V06B0700001243530000000000000                                                                           NEPRO BP LIQUIDO X 237 MLFCO     3
CC0000032678618H202100000555106300000555106329/10/20211018     3300009237421964250000A02B0800001276960000000000000                                                                                 OMEPRAZOL CAP 20 MGCAP     1
CC0000032678618H202100000555106300000555106329/10/20211018     3300009237421964250000B03XA100001039270000000000000                                                            ERITROPOYETINA H SLN INY 2000 UI/ ML /R/AMP     1
CC0000032678618H202100000555106300000555106329/10/20211018     3300009237421964250000C02AC200001559150000000000000                                                                              CLONIDINA TAB 0.150 MGTAB     2
CC0000032678618H202100000555106300000555106329/10/20211445     3300009237421964250000C02C0100001316210000000000000                                                                                     PRATEN TAB 1 MGTAB     1
CC0000032678618H202100000555106300000555106329/10/20211018     3300009237421964250000C02C0100001316210000000000000                                                                                     PRATEN TAB 1 MGTAB     2
CC0000032678618H202100000555106300000555106329/10/20211446     3300009237421964250000C7AB0100001276990000000000000                                                                            BETOPROLOL TAB 50 MG /R/TAB     1
CC0000032678618H202100000555106300000555106329/10/20211018     3300009237421964250000C7AB0100001276990000000000000                                                                            BETOPROLOL TAB 50 MG /R/TAB     1
CC0000032678618H202100000555106300000555106329/10/20211018     3300009237421964250000N2BE2200001252930000000000000                                                                             ACETAMINOFEN Tab 500 MGTAB     6
CC0000032678618H202100000555106300000555106329/10/20211446     3300009237421964250000N2AX0900001672040000000000000                                                                              TRAMADOL SLN INY 50 MGAMP     1
CC0000032678618H202100000555106300000555106329/10/20211018     3300009237421964250000N2AX0900001672040000000000000                                                                              TRAMADOL SLN INY 50 MGAMP     2
