CC0001045684571H202100015112653300015112653329/10/20211117    3150057323742196425000030161400001459220000000000000                                                                       MANGUERA SUCCION 6 MM*3.1 MTSSOB     1
CC0001045684571H202100015112653300015112653329/10/20211117    3150057323742196425000022108000003906060000000000000                                                            SIST CERRAD ASPIRAC TRACH  22108-5 14 FRSOB     2
CC0001045684571H202100015112653300015112653329/10/20211117    3150057323742196425000020816000001096410000000000000                                                                          LINER PARED DELGADA 1500CCBOL     1
