RC0001048090257U202100050131428000050131428029/10/20212034    3190315823942196432000042743200003929860000000000000                   GASA ADHESIVA STRETCH REF 02038-00 ROL X 10MT FIXOMULL 15CM BN EXENTO-DC.417/2020CMT    30
RC0001048090257U202100050131428000050131428029/10/20212034    3190315823942196432000001956000001620610000000000000                                                                      CONECTOR MICRO CLAVE LAT-MC100SOB     1
RC0001048090257U202100050131428000050131428029/10/20212034    31903158239421964320000Q1AA7400003911720000000000000                                                            CATETER PERIFE INTROCAN # 24G 4251601-04SOB     1
