RC0001158467183H202100015052704500015052704529/10/20211316    3190249123742196425000001956000001620610000000000000                                                                      CONECTOR MICRO CLAVE LAT-MC100SOB     1
RC0001158467183H202100015052704500015052704529/10/20211316    31902491237421964250000Q1AA7400003911720000000000000                                                            CATETER PERIFE INTROCAN # 24G 4251601-04SOB     2
RC0001158467183H202100015052704500015052704529/10/20211316    3190249123742196425000016830000000970620000000000000                                                             SIST FIJACION CAT PERIFERICO 6.5X7 1683SOB     1
