CC0001124380286H202100000555094300000555094329/10/20210606     3300009237421964250000B1AB0200003939510000000000000                 ENOXAPARINA SODICA 40MG/0.4ML(100MG/ML) SOL INY INST CAJ X 2JERPREL X 0.4ML TECHDOWJRP     1
CC0001124380286H202100000555094300000555094329/10/20210606     3300009237421964250000C09CA400001277130000000000000                                                                                  LOSARTAN TAB 50 MGTAB     2
CC0001124380286H202100000555094300000555094329/10/20211714    31903290237421964250000V07A1300000502600000000000000                                                                                AGUA ESTERIL x 10 mlAMP     5
