CC0000008632917U202100050131424700050131424729/10/20211730    3190118923942196432000011048600000223020000000000000                                                                 JERINGA VACUNACION 3ML C/AGU 302542SIN     2
CC0000008632917U202100050131424700050131424729/10/20211730    3190118923942196432000001956000001620610000000000000                                                                      CONECTOR MICRO CLAVE LAT-MC100SOB     1
CC0000008632917U202100050131424700050131424729/10/20211730    31901189239421964320000Q1AA7100000610620000000000000                                                            CATETER PERIFE INTROCAN # 18G 4251687-04SIN     1
CC0000008632917U202100050131424700050131424729/10/20211730    3190118923942196432000016830000000970620000000000000                                                             SIST FIJACION CAT PERIFERICO 6.5X7 1683SOB     1
