CC0001143150390A202100000027593400000027593419/10/20210823    3190333624042196419000022425200000548240000000000000                       EXTENSION DE ANESTESIA REF 1139 SOB X 1 SHERLEG  ADULTO BN EXENTO-DC.417/2020SIN     1
CC0001143150390A202100000027593400000027593419/10/20210823    3190333624042196419000035356500003919000000000000000                                                                                        LLAVE 3 VIASSOB     2
CC0001143150390A202100000027593400000027593419/10/20210823    3190333624042196419000022426800001140510000000000000                                                                    EQUIPO MACROGOTEO BAXTER MRC0001SOB     1
CC0001143150390A202100000027593400000027593419/10/20210823    3190333624042196419000016830000000970620000000000000                                                             SIST FIJACION CAT PERIFERICO 6.5X7 1683SOB     1
CC0001143150390A202100000027593400000027593419/10/20210823    31903336240421964190000J01DA300001239950000000000000                                                            CEFAZOLINA SODICA POLVO LIOF SLN INY 1 GVAL     2
CC0001143150390A202100000027593400000027593419/10/20210823    3190333624042196419000020750600000296780000000000000                                                                PLACA ELECTRO RETORNO PACIENTE E7506SIN     1
CC0001143150390A202100000027593400000027593419/10/20210823    3190333624042196419000011082700001620070000000000000                                                               EQUIPO SET PRIMARIO C/CLAVE REF 14001BOL     1
CC0001143150390A202100000027593400000027593419/10/20210823    3190333624042196419000053074400000607910000000000000                                                               GASA ESTERIL 10*10 SOBRE X 3 UNIDADESSOB    11
CC0001143150390A202100000027593400000027593419/10/20210823    3190333624042196419000011085300001082140000000000000                                                                           GUANTE QUIRURGICO TALLA 8SOB     2
CC0001143150390A202100000027593400000027593419/10/20210823    3190333624042196419000011085200001585390000000000000                                                                       GUANTE QUIRURGICO TALLA 7 1/2SOB     3
CC0001143150390A202100000027593400000027593419/10/20210823    3190333624042196419000011085100001082120000000000000                                                                           GUANTE QUIRURGICO TALLA 7SOB     2
CC0001143150390A202100000027593400000027593419/10/20210823    3190333624042196419000043485100001618510000000000000                GUANTE QUIRURGICO DE LATEX REF 2D72N65X CAJ X 50 PROTEXIS  6.5 BN EXENTO-DC.417/2020SOB     3
CC0001143150390A202100000027593400000027593419/10/20210823    3190333624042196419000051515500000598160000000000000                                                                            MASCARILLA ANESTESIA # 5SIN     1
CC0001143150390A202100000027593400000027593419/10/20210823    3190333624042196419000038568100000258050000000000000                                                                         CANULA OXIGENO NASAL ADULTOSIN     1
CC0001143150390A202100000027593400000027593419/10/20210823    3190333624042196419000011099300000777780000000000000                                                                     FILTRO BACTERIANO VIRICO ADULTOBOL     1
CC0001143150390A202100000027593400000027593419/10/20210823    3190333624042196419000020058100001101630000000000000                                                                     AGUJA HIPODERMICA DESECH 23 X 1SOB     1
CC0001143150390A202100000027593400000027593419/10/20210823    3190333624042196419000020056600001101530000000000000                                                                AGUJA HIPODERMICA DESECH 18G X 1 1/2SOB     1
CC0001143150390A202100000027593400000027593419/10/20210823    3190333624042196419000039175000001072050000000000000                                                                           TUBO ENDOTRAQUEAL C/B 7.0SOB     1
CC0001143150390A202100000027593400000027593419/10/20210823    3190333624042196419000011047900000223010000000000000                                                                            JERINGA X 1ML REF 302579SIN     1
CC0001143150390A202100000027593400000027593419/10/20210823    3190333624042196419000024673000001411210000000000000                                                                  JERINGA DESECHABLE 3 ML 21 X 1 1/2SOB     2
CC0001143150390A202100000027593400000027593419/10/20210823    3190333624042196419000024673600000222980000000000000                                                                     JERINGA DESECHABLE 5 ml 27*11/2SIN     4
CC0001143150390A202100000027593400000027593419/10/20210823    3190333624042196419000024674000000220660000000000000                             JERINGA A 3 PARTES CON AGUJA  SOB X 1 RYMCO  10ML BN EXENTO-DC.417/2020SIN     5
CC0001143150390A202100000027593400000027593419/10/20210823    3190333624042196419000024674500000322810000000000000                                                                   JERINGA DESECHABLE 20 ml 21*1 1/2SIN     2
CC0001143150390A202100000027593400000027593419/10/20210823    31903336240421964190000E1AD0200003888320000000000000                                                                              HARTMAN SLN INY 500 MLBOL     1
CC0001143150390A202100000027593400000027593419/10/20210823    31903336240421964190000E1AB0300003888390000000000000                                                            SOLUCION SALINA 0.9% SLN INY BO X 500 MLBOL     5
CC0001143150390A202100000027593400000027593419/10/20210823    31903336240421964190000E1AB0700003888350000000000000                                                            SOLUCION SALINA 0.9% SLN INY BO X 250 MLBOL     1
CC0001143150390A202100000027593400000027593419/10/20210823    31903336240421964190000N02B1100001169680000000000000                              PARACETAMOL 1000MG/100ML(10MG/ML) SOL INY  VIAL X 100ML FRESENIUS KABIVAL     1
CC0001143150390A202100000027593400000027593419/10/20210823    31903336240421964190000A3BB0200000512940000000000000                                                                          BUSCAPINA SIMPLE Iny 20 mgAMP     1
CC0001143150390A202100000027593400000027593419/10/20210823    31903336240421964190000A2BC0900000200150000000000000                                                                               ORAZOLE Sln Iny 40 mgCIN     1
CC0001143150390A202100000027593400000027593419/10/20210823    31903336240421964190000M01A0400001341250000000000000                                                                              DYNASTAT AMP 40 MG /R/VAL     1
CC0001143150390A202100000027593400000027593419/10/20210823    31903336240421964190000A4AD0200000202990000000000000                                                                     PLITICAN HCL Sln Iny 50 mg/2 mlAMP     1
CC0001143150390A202100000027593400000027593419/10/20210823    31903336240421964190000H02AB500001664950000000000000                                                            DEXAMETASONA SLN INY 8 MG/2 ML AMP /CDS/AMP     1
CC0001143150390A202100000027593400000027593419/10/20210823    31903336240421964190000N01B1300001195250000000000000                                                                         BUPIROP 0.5% S/EPIN X 10 MLAMP     2
CC0001143150390A202100000027593400000027593419/10/20210823    31903336240421964190000M3AC0600000720540000000000000                                                                         ESMERON SLN INY 50 MG /5 MLVAL     1
CC0001143150390A202100000027593400000027593419/10/20210823    31903336240421964190000N2AA0700001587170000000000000                                                                                 ULTIVA Sln Iny 2 mgVAL     1
CC0001143150390A202100000027593400000027593419/10/20210823    3190333624042196419000043879500001138210000000000000                                                                                    HOJA BISTURI #20SOB     1
CC0001143150390A202100000027593400000027593419/10/20210823    3190333624042196419000018610600000607940000000000000                                                               SENSOR ADULTO XP MONITOR 006-186-0106SIN     1
CC0001143150390A202100000027593400000027593419/10/20210823    3190333624042196419000019429700000427120000000000000                                                                                      VENDA YESO 4*5BIN     2
CC0001143150390A202100000027593400000027593419/10/20210823    3190333624042196419000049419800001679910000000000000                                                                        VENDA ALGODON 6*5 NO ESTERILSOB     1
CC0001143150390A202100000027593400000027593419/10/20210823    3190333624042196419000049428500000738570000000000000                                                                       VENDA ELASTICA 6*5 NO ESTERILSOB     1
CC0001143150390A202100000027593400000027593419/10/20210823    3190333624042196419000040511700000258570000000000000                                                              APOSITO BACTIGRAS REF 7457 10CM X 10CMSIN     1
CC0001143150390A202100000027593400000027593419/10/20210823    3190333624042196419000000503900000296270000000000000                                                                  SUTURA POLYSORB 3-0 75CM V20 GL122SIN     2
CC0001143150390A202100000027593400000027593419/10/20210823    31903336240421964190000N01A0400003939010000000000000                                               MAYOPROFOL 200MG/20ML(1%) EMUL INY CAJ X 1VIAL X 20MLVAL     1
CC0001143150390A202100000027593400000027593419/10/20210823    31903336240421964190000N01B0200003888110000000000000                                           ROXICAINA SE 100MG/10ML(1%) SOL INY CAJ X 24AMPACK X 10MLAPC     1
CC0001143150390A202100000027593400000027593419/10/20210823    31903336240421964190000N07X0300003913670000000000000                                    DEXMEDETOMIDINA 400MCG/100ML(4MCG/ML) SOL INY BOL X 100ML BAXTERBOL     1
CC0001143150390A202100000027593400000027593419/10/20210823    3190333624042196419000011857700001096350000000000000                                                              AGUJA SONOPLEX BLOQUEO 21*100 01185-77BOL     1
CC0001143150390A202100000027593400000027593419/10/20210823    3190333624042196419000017576200000232750000000000000                                                                    PROLENE CARDIOV 6-0 60 2C-1 8726SIN     1
CC0001143150390A202100000027593400000027593419/10/20210823    3190333624042196419000045138000001413890000000000000                                                                       LAPIZ ELECTROBISTURI  SOB X 1SOB     1
CC0001143150390A202100000027593400000027593419/10/20210823    3190333624042196419000049419600001679900000000000000                                                                        VENDA ALGODON 4*5 NO ESTERILSOB     4
CC0001143150390A202100000027593400000027593419/10/20210823    3190333624042196419000049428300000860750000000000000                                                                       VENDA ELASTICA 4*5 NO ESTERILBOL     4
CC0001143150390A202100000027593400000027593419/10/20210823    3190333624042196419000017566200001585160000000000000                                                                  PROLENE 4-0 AZ 45 PS2 PRIME P8682TSOB     5
CC0001143150390A202100000027593400000027593419/10/20210823    3190333624042196419000043879100001138200000000000000                                                                  HOJA BISTURI # 15 CSSB 15 01002003SOB     5
