CC0000017840641H202100911991100300911991100303/10/20210327    31902606237421964250000E1BA0700000198910000000000000                                                                   UROMATIC Sln IRRIGACION X 3000 MLBIN     3
CC0000017840641H202100911991100300911991100303/10/20210327    3190260623742196425000000200800001133820000000000000                                                             SONDA FOLEY 3 VIAS SILICONA 22F UROTECHPZA     1
CC0000017840641H202100911991100300911991100303/10/20210337    3190213823742196425000011082600000265810000000000000                                                              EQUIPO IRRIGACION URINARIA REF MRC4002SOB     1
CC0000017840641H202100911991100300911991100303/10/20210810    3150029223742196425000011082900001233450000000000000                                                               EQUIPO LC 5000 PRIMARIO FOTOPRO 0L218SOB     1
CC0000017840641H202100911991100300911991100303/10/20210810    31500292237421964250000E1AB0200000199290000000000000                                                            SOLUCION SALINA 0.9% SLN INY BO X 100 MLBIN     1
CC0000017840641H202100911991100300911991100303/10/20210810    31500292237421964250000E1AD0300000199490000000000000                                         LACTATO RINGER USP (HARTMANN)  SOL INY  BOL X 1000ML BAXTERBIN     1
CC0000017840641U202100911991100300911991100303/10/20211555    3150051423942196432000036441300000236540000000000000                                                                    JERINGA 1 ML GASES ARTERIAL 9023SIN     2
