RC0001194983660U202100916011102900916011102929/10/20210956    3190118923942196432000011082700001620070000000000000                                                               EQUIPO SET PRIMARIO C/CLAVE REF 14001BOL     1
RC0001194983660U202100916011102900916011102929/10/20210956    31901189239421964320000Q1AA7100000610620000000000000                                                            CATETER PERIFE INTROCAN # 18G 4251687-04SIN     1
RC0001194983660U202100916011102900916011102929/10/20211025    31901189239421964320000B05B1400001012740000000000000                                                                SOLUCION SALINA 0.45% Sln Iny 500 mlBOL     1
