CC0001143162604U202100050131120700050131120707/10/20211126    3190315823942196432000043485100001618510000000000000                GUANTE QUIRURGICO DE LATEX REF 2D72N65X CAJ X 50 PROTEXIS  6.5 BN EXENTO-DC.417/2020SOB     2
CC0001143162604U202100050131120700050131120707/10/20211126    3190315823942196432000013077800000471960000000000000                                                             GASA NO TEJIDA EST 7.5 X 7.5 SOB X 3 UNSOB     6
CC0001143162604U202100050131120700050131120707/10/20211126    3190315823942196432000011048600000223020000000000000                                                                 JERINGA VACUNACION 3ML C/AGU 302542SIN     2
CC0001143162604U202100050131120700050131120707/10/20211126    3190315823942196432000011047900000223010000000000000                                                                            JERINGA X 1ML REF 302579SIN     2
CC0001143162604U202100050131120700050131120707/10/20211126    3190315823942196432000012472400000232190000000000000                                                                 SUTURA ETHILON 2-0 SC-26 45CM  164TSIN     1
CC0001143162604U202100050131120700050131120707/10/20211126    3190315823942196432000081840000000333950000000000000                                                                  PROLENE 3-0 BLUE SC24  45 CM  8184SIN     1
