CC0000057300977U202100912930100700912930100707/10/20211509    3150029223942196432000011082700001620070000000000000                                                               EQUIPO SET PRIMARIO C/CLAVE REF 14001BOL     1
CC0000057300977U202100912930100700912930100707/10/20211509    3150029223942196432000011137100001419310000000000000                                                               TIRA GLUCOMETRIA FREESTYLE H OPTIUM .PZA     1
CC0000057300977U202100912930100700912930100707/10/20211509    3150029223942196432000016830000000970620000000000000                                                             SIST FIJACION CAT PERIFERICO 6.5X7 1683SOB     1
CC0000057300977U202100912930100700912930100707/10/20211509    3150029223942196432000022426800001140510000000000000                                                                    EQUIPO MACROGOTEO BAXTER MRC0001SOB     1
CC0000057300977U202100912930100700912930100707/10/20211509    3150029223942196432000030936900001431840000000000000                                                                                              BURETABOL     1
CC0000057300977U202100912930100700912930100707/10/20211509    3150029223942196432000045136100001419300000000000000                                                                            LANCETA DEXTROMETER X UNPZA     1
CC0000057300977U202100912930100700912930100707/10/20211509    31500292239421964320000Q1AA7200000610630000000000000                                                            CATETER PERIFE INTROCAN # 20G 4251644-04SIN     1
CC0000057300977U202100912930100700912930100707/10/20211509    31500292239421964320000E1AD0300000199490000000000000                                         LACTATO RINGER USP (HARTMANN)  SOL INY  BOL X 1000ML BAXTERBIN     1
CC0000057300977U202100912930100700912930100707/10/20211509    31500292239421964320000E1AD0200003888320000000000000                                                                              HARTMAN SLN INY 500 MLBOL     1
