CC0001045686959H202100000554811200000554811222/10/20210050     3300009237421964250000H02AB400001140460000000000000                                                              SUCCINA METILPREDNISOLONA 500MG VIA/R/VAL     1
CC0001045686959H202100000554811200000554811222/10/20210831     3300009237421964250000A03F0300001626860000000000000                                                                   METOCLOPRAMIDA SLN INY 10 MG/2 MLAMP     1
CC0001045686959H202100000554811200000554811222/10/20210050     3300009237421964250000A03F0300001626860000000000000                                                                   METOCLOPRAMIDA SLN INY 10 MG/2 MLAMP     1
CC0001045686959H202100000554811200000554811222/10/20211124    31903294237421964250000E1AC0100000199400000000000000                                                                          SUERO MIXTO Sln Iny 500 mlBIN     2
CC0001045686959H202100000554811200000554811222/10/20211740    31903294237421964250000E1AA0100003888590000000000000                                                                        DEXTROSA 5% Sln Iny X 500 mlBOL     1
CC0001045686959H202100000554811200000554811222/10/20211124    31903294237421964250000E1AA0100003888590000000000000                                                                        DEXTROSA 5% Sln Iny X 500 mlBOL     1
CC0001045686959H202100000554811200000554811222/10/20210136    31500213237421964250000E1AA0100003888590000000000000                                                                        DEXTROSA 5% Sln Iny X 500 mlBOL     2
CC0001045686959H202100000554811200000554811222/10/20211740    31903294237421964250000E1AB0200000199290000000000000                                                            SOLUCION SALINA 0.9% SLN INY BO X 100 MLBIN     3
CC0001045686959H202100000554811200000554811222/10/20210136    31500213237421964250000E1AB0200000199290000000000000                                                            SOLUCION SALINA 0.9% SLN INY BO X 100 MLBIN     1
CC0001045686959H202100000554811200000554811222/10/20210825    31902056237421964250000E1AB0700003888350000000000000                                                            SOLUCION SALINA 0.9% SLN INY BO X 250 MLBOL     1
CC0001045686959H202100000554811200000554811222/10/20211738    31902056237421964250000E1AB0300003888390000000000000                                                            SOLUCION SALINA 0.9% SLN INY BO X 500 MLBOL     3
CC0001045686959H202100000554811200000554811222/10/20211124    31903294237421964250000E1AB0300003888390000000000000                                                            SOLUCION SALINA 0.9% SLN INY BO X 500 MLBOL     2
CC0001045686959H202100000554811200000554811222/10/20210825    31902056237421964250000E1AB0300003888390000000000000                                                            SOLUCION SALINA 0.9% SLN INY BO X 500 MLBOL     1
CC0001045686959H202100000554811200000554811222/10/20210222    31500213237421964250000E1AB0300003888390000000000000                                                            SOLUCION SALINA 0.9% SLN INY BO X 500 MLBOL     2
CC0001045686959H202100000554811200000554811222/10/20210830     3300009237421964250000A12CA200001239800000000000000                     BICARBONATO SODIO 10MEQ/10ML(1MEQ/ML) SOL INY  CAJ X 100AMPX10ML FRESENIUS KABIAMP     3
CC0001045686959H202100000554811200000554811222/10/20210050     3300009237421964250000A12CA200001239800000000000000                     BICARBONATO SODIO 10MEQ/10ML(1MEQ/ML) SOL INY  CAJ X 100AMPX10ML FRESENIUS KABIAMP     4
CC0001045686959H202100000554811200000554811222/10/20210830     3300009237421964250000A12BA100000552980000000000000                                                            CLORURO POTASIO Sln Iny AMP 20 MEQ/10 MLAMP     1
CC0001045686959H202100000554811200000554811222/10/20210853     3300009237421964250000L04AX20PENDIENTE0000000000000                                                              METOTREXATO SLN INY 500 MG X 20 ML /R/VAL     6
CC0001045686959H202100000554811200000554811222/10/20211456     3300009237421964250000L1BC8000003907750000000000000                                           CITARABINA 500MG/5ML(100MG/ML) SOL INY VIAL X 5ML ROPSOHNVAL    18
CC0001045686959H202100000554811200000554811222/10/20211455     3300009237421964250000L1BC8000003907750000000000000                                           CITARABINA 500MG/5ML(100MG/ML) SOL INY VIAL X 5ML ROPSOHNVAL     2
CC0001045686959H202100000554811200000554811222/10/20210853     3300009237421964250000L1BC2400001045890000000000000                                                                METOTREXATE SLN INY 50 MG / 2 ML /R/VAL     1
CC0001045686959H202100000554811200000554811222/10/20210830     3300009237421964250000N01B0200003888110000000000000                                           ROXICAINA SE 100MG/10ML(1%) SOL INY CAJ X 24AMPACK X 10MLAPC     2
CC0001045686959H202100000554811200000554811222/10/20211711     3300009237421964250000V6DF2000001629900000000000000                                                                     ENSURE PLUS HN LIQUIDO X 237 MLFCO     3
CC0001045686959H202100000554811200000554811222/10/20210830     3300009237421964250000J05AB000001277780000000000000                                                                                ACICLOVIR TAB 200 MGTAB     1
CC0001045686959H202100000554811200000554811222/10/20210050     3300009237421964250000J05AB000001277780000000000000                                                                                ACICLOVIR TAB 200 MGTAB     1
CC0001045686959H202100000554811200000554811222/10/20210136    31500213237421964250000V07A1300000502600000000000000                                                                                AGUA ESTERIL x 10 mlAMP     4
CC0001045686959H202100000554811200000554811222/10/20210830     3300009237421964250000A04AA200003932460000000000000                                                 ONDAX 4MG/2ML(2MG/ML) SOL INY INST CAJ X 1AMP X 2MLAMP     2
CC0001045686959H202100000554811200000554811222/10/20210050     3300009237421964250000A04AA200003932460000000000000                                                 ONDAX 4MG/2ML(2MG/ML) SOL INY INST CAJ X 1AMP X 2MLAMP     2
