RC0001041995217A202100000027613200000027613224/10/20210851    31903336240421964190000A04A1400001467560000000000000                                                                      ONDANSETRON SLN INY 8 MG/ 4 MLVAL     1
RC0001041995217A202100000027613200000027613224/10/20210851    3190333624042196419000045138000001413890000000000000                                                                       LAPIZ ELECTROBISTURI  SOB X 1SOB     1
RC0001041995217A202100000027613200000027613224/10/20210851    3190333624042196419000017566200001585160000000000000                                                                  PROLENE 4-0 AZ 45 PS2 PRIME P8682TSOB     1
RC0001041995217A202100000027613200000027613224/10/20210851    3190333624042196419000000503900000296270000000000000                                                                  SUTURA POLYSORB 3-0 75CM V20 GL122SIN     1
RC0001041995217A202100000027613200000027613224/10/20210851    31903336240421964190000B02B2500001024470000000000000                                                                   TISSEEL FROZEN JERINGA X 2 ML /R/PAQ     1
RC0001041995217A202100000027613200000027613224/10/20210851    3190333624042196419000043879100001138200000000000000                                                                  HOJA BISTURI # 15 CSSB 15 01002003SOB     1
RC0001041995217A202100000027613200000027613224/10/20210851    3190333624042196419000022425200000548240000000000000                       EXTENSION DE ANESTESIA REF 1139 SOB X 1 SHERLEG  ADULTO BN EXENTO-DC.417/2020SIN     1
RC0001041995217A202100000027613200000027613224/10/20210851    3190333624042196419000022425100001392880000000000000             EQUIPO MICROGOTEO SIN AGUJA REF 201000 PAQ X 100 SOB GOTHAPLAST   BN EXENTO-DC.417/2020BOL     1
RC0001041995217A202100000027613200000027613224/10/20210851    3190333624042196419000035356500003919000000000000000                                                                                        LLAVE 3 VIASSOB     1
RC0001041995217A202100000027613200000027613224/10/20210851    31903336240421964190000Q1AA7300000610640000000000000                                                            CATETER PERIFE INTROCAN # 22G 4251628-04SIN     1
RC0001041995217A202100000027613200000027613224/10/20210851    31903336240421964190000J01DA300001239950000000000000                                                            CEFAZOLINA SODICA POLVO LIOF SLN INY 1 GVAL     1
RC0001041995217A202100000027613200000027613224/10/20210851    3190333624042196419000030161400001459220000000000000                                                                       MANGUERA SUCCION 6 MM*3.1 MTSSOB     3
RC0001041995217A202100000027613200000027613224/10/20210851    3190333624042196419000011073300001096420000000000000                                                                BOLSA DE SUCCION DE FLUIDOS x 2500mLBOL     1
RC0001041995217A202100000027613200000027613224/10/20210851    3190333624042196419000020750600000296780000000000000                                                                PLACA ELECTRO RETORNO PACIENTE E7506SIN     1
RC0001041995217A202100000027613200000027613224/10/20210851    3190333624042196419000053074400000607910000000000000                                                               GASA ESTERIL 10*10 SOBRE X 3 UNIDADESSOB     3
RC0001041995217A202100000027613200000027613224/10/20210851    3190333624042196419000011085200001585390000000000000                                                                       GUANTE QUIRURGICO TALLA 7 1/2SOB     2
RC0001041995217A202100000027613200000027613224/10/20210851    3190333624042196419000011085100001082120000000000000                                                                           GUANTE QUIRURGICO TALLA 7SOB     2
RC0001041995217A202100000027613200000027613224/10/20210851    3190333624042196419000043485100001618510000000000000                GUANTE QUIRURGICO DE LATEX REF 2D72N65X CAJ X 50 PROTEXIS  6.5 BN EXENTO-DC.417/2020SOB     2
RC0001041995217A202100000027613200000027613224/10/20210851    3190333624042196419000011082700001620070000000000000                                                               EQUIPO SET PRIMARIO C/CLAVE REF 14001BOL     1
RC0001041995217A202100000027613200000027613224/10/20210851    3190333624042196419000038576600000256740000000000000                                                                        SONDA ASPIRACION CONTROL #12SIN     1
RC0001041995217A202100000027613200000027613224/10/20210851    3190333624042196419000039174500001679380000000000000                                                                           TUBO ENDOTRAQUEAL C/B 4.5SOB     1
RC0001041995217A202100000027613200000027613224/10/20210851    3190333624042196419000051515200000598130000000000000                                                                            MASCARILLA ANESTESIA # 2SIN     1
RC0001041995217A202100000027613200000027613224/10/20210851    3190333624042196419000020058100001101630000000000000                                                                     AGUJA HIPODERMICA DESECH 23 X 1SOB     1
RC0001041995217A202100000027613200000027613224/10/20210851    3190333624042196419000011099300000777780000000000000                                                                     FILTRO BACTERIANO VIRICO ADULTOBOL     1
RC0001041995217A202100000027613200000027613224/10/20210851    3190333624042196419000031011400000762720000000000000                                                                           CANULA GUEDEL # 3 (90 MM)SOB     1
RC0001041995217A202100000027613200000027613224/10/20210851    3190333624042196419000024673000001411210000000000000                                                                  JERINGA DESECHABLE 3 ML 21 X 1 1/2SOB     1
RC0001041995217A202100000027613200000027613224/10/20210851    3190333624042196419000024674000000220660000000000000                             JERINGA A 3 PARTES CON AGUJA  SOB X 1 RYMCO  10ML BN EXENTO-DC.417/2020SIN     4
RC0001041995217A202100000027613200000027613224/10/20210851    31903336240421964190000E1AB0700003888350000000000000                                                            SOLUCION SALINA 0.9% SLN INY BO X 250 MLBOL     2
RC0001041995217A202100000027613200000027613224/10/20210851    31903336240421964190000E1AB0200000199290000000000000                                                            SOLUCION SALINA 0.9% SLN INY BO X 100 MLBIN     1
RC0001041995217A202100000027613200000027613224/10/20210851    31903336240421964190000N01B0200003888110000000000000                                           ROXICAINA SE 100MG/10ML(1%) SOL INY CAJ X 24AMPACK X 10MLAPC     1
RC0001041995217A202100000027613200000027613224/10/20210851    31903336240421964190000N2BB0500000217140000000000000                                                                          NOVALGINA Sln Iny 1 g/2 mlAMP     1
