PA0000NWKF4LP39U202100914701102100914701102121/10/20210411    3190286423942196432000016830000000970620000000000000                                                             SIST FIJACION CAT PERIFERICO 6.5X7 1683SOB     1
PA0000NWKF4LP39U202100914701102100914701102121/10/20210411    3190286423942196432000001956000001620610000000000000                                                                      CONECTOR MICRO CLAVE LAT-MC100SOB     1
PA0000NWKF4LP39U202100914701102100914701102121/10/20210411    31902864239421964320000Q1AA7200000610630000000000000                                                            CATETER PERIFE INTROCAN # 20G 4251644-04SIN     1
