CC0001065132676H202100000554542200000554542215/10/20211745     3300010237421964250000A04A0600001277030000000000000                                                                                      ONDAX TAB 8 MGTAB     4
CC0001065132676H202100000554542200000554542215/10/20212101    31500082237421964250000E1AA0100003888590000000000000                                                                        DEXTROSA 5% Sln Iny X 500 mlBOL     3
CC0001065132676H202100000554542200000554542215/10/20211152    31903028237421964250000E1AA0100003888590000000000000                                                                        DEXTROSA 5% Sln Iny X 500 mlBOL     4
CC0001065132676H202100000554542200000554542215/10/20210317    31500107237421964250000E1AA0100003888590000000000000                                                                        DEXTROSA 5% Sln Iny X 500 mlBOL     8
CC0001065132676H202100000554542200000554542215/10/20212101    31500082237421964250000E1AB0200000199290000000000000                                                            SOLUCION SALINA 0.9% SLN INY BO X 100 MLBIN     6
CC0001065132676H202100000554542200000554542215/10/20210317    31500107237421964250000E1AB0200000199290000000000000                                                            SOLUCION SALINA 0.9% SLN INY BO X 100 MLBIN    10
CC0001065132676H202100000554542200000554542215/10/20212101    31500082237421964250000E1AB0300003888390000000000000                                                            SOLUCION SALINA 0.9% SLN INY BO X 500 MLBOL     3
CC0001065132676H202100000554542200000554542215/10/20210633    31500107237421964250000E1AB0300003888390000000000000                                                            SOLUCION SALINA 0.9% SLN INY BO X 500 MLBOL     2
CC0001065132676H202100000554542200000554542215/10/20211152    31903028237421964250000E1AB0500003888400000000000000                                                              SOLUCION SALINA 0.9% SLN INY X 1000 MLBOL     2
CC0001065132676H202100000554542200000554542215/10/20210317    31500107237421964250000E1AB0500003888400000000000000                                                              SOLUCION SALINA 0.9% SLN INY X 1000 MLBOL     3
CC0001065132676H202100000554542200000554542215/10/20211745     3300010237421964250000A12CA200001239800000000000000                     BICARBONATO SODIO 10MEQ/10ML(1MEQ/ML) SOL INY  CAJ X 100AMPX10ML FRESENIUS KABIAMP     4
CC0001065132676H202100000554542200000554542215/10/20211746     3300010237421964250000A12BA100000552980000000000000                                                            CLORURO POTASIO Sln Iny AMP 20 MEQ/10 MLAMP     1
CC0001065132676H202100000554542200000554542215/10/20211745     3300010237421964250000A12BA100000552980000000000000                                                            CLORURO POTASIO Sln Iny AMP 20 MEQ/10 MLAMP     1
CC0001065132676H202100000554542200000554542215/10/20211543     3300010237421964250000L04AX20PENDIENTE0000000000000                                                              METOTREXATO SLN INY 500 MG X 20 ML /R/VAL     4
CC0001065132676H202100000554542200000554542215/10/20211744     3300010237421964250000L1BC8600000553170000000000000                                                                  FOLINATO CALCIO SLN INY 50 MG/5 MLVAL     3
CC0001065132676H202100000554542200000554542215/10/20211744     3300010237421964250000A2BC0700001335700000000000000                                                                                 OMEPRAZOL CAP 40 MGCAP     1
CC0001065132676H202100000554542200000554542215/10/20211744     3300010237421964250000A04AD100001581340000000000000                                                                  APRITANT POLVO LIOF SLN INY 150 MGVAL     2
CC0001065132676H202100000554542200000554542215/10/20211745     3300010237421964250000S01BA300000970730000000000000                                                                    OPHTHASONA SLN OFT 0.10 % X 5 MLFCO     1
