TI0001130270781U202100912586100800912586100808/10/20211117    3150025823942196432000024674000000220660000000000000                             JERINGA A 3 PARTES CON AGUJA  SOB X 1 RYMCO  10ML BN EXENTO-DC.417/2020SIN     1
TI0001130270781U202100912586100800912586100808/10/20211117    3150025823942196432000030936900001431840000000000000                                                                                              BURETABOL     1
TI0001130270781U202100912586100800912586100808/10/20211216    3190232723942196432000011082700001620070000000000000                                                               EQUIPO SET PRIMARIO C/CLAVE REF 14001BOL     1
TI0001130270781U202100912586100800912586100808/10/20211216    31902327239421964320000E1AD0300000199490000000000000                                         LACTATO RINGER USP (HARTMANN)  SOL INY  BOL X 1000ML BAXTERBIN     1
TI0001130270781H202100912586100800912586100808/10/20211948    31500075237421964250000E1AD0300000199490000000000000                                         LACTATO RINGER USP (HARTMANN)  SOL INY  BOL X 1000ML BAXTERBIN     3
TI0001130270781H202100912586100800912586100808/10/20212003    31903165237421964250000E1AD0200003888320000000000000                                                                              HARTMAN SLN INY 500 MLBOL     1
