RC0001146545267H202100000554770100000554770121/10/20211805     3300009237421964250000N02BE100000000JP0000000000000                                                                ACETAMINOFEN 250MG/5ML JER PLLE JAB. JR     1
RC0001146545267H202100000554770100000554770121/10/20211101     3300009237421964250000N02BE100000000JP0000000000000                                                                ACETAMINOFEN 250MG/5ML JER PLLE JAB. JR     5
RC0001146545267H202100000554770100000554770121/10/20211842     3300009237421964250000B01AB300000513340000000000000                                                                        CLENOX SLN INY 20 MG/ 0.2 MLJRP     1
RC0001146545267H202100000554770100000554770121/10/20211805     3300009237421964250000B01AB200000513350000000000000                                                                        CLENOX SLN INY 40 MG/ 0.4 MLJRP     1
RC0001146545267H202100000554770100000554770121/10/20210533     3300009237421964250000N2BB0100000787510000000000000                                                                    DIPIRONA SODICA Sln Iny 1 g/2 mlAMP     1
