RC0001027297045U202100913838101400913838101414/10/20211127    3190280023942196432000024674000000220660000000000000                             JERINGA A 3 PARTES CON AGUJA  SOB X 1 RYMCO  10ML BN EXENTO-DC.417/2020SIN     2
RC0001027297045U202100913838101400913838101414/10/20211127    31902800239421964320000E1AC0100000199400000000000000                                                                          SUERO MIXTO Sln Iny 500 mlBIN     1
RC0001027297045U202100913838101400913838101414/10/20211701    3190280023942196432000011082700001620070000000000000                                                               EQUIPO SET PRIMARIO C/CLAVE REF 14001BOL     1
RC0001027297045U202100913838101400913838101414/10/20211701    3190280023942196432000016830000000970620000000000000                                                             SIST FIJACION CAT PERIFERICO 6.5X7 1683SOB     1
RC0001027297045U202100913838101400913838101414/10/20211701    3190280023942196432000030936900001431840000000000000                                                                                              BURETABOL     1
RC0001027297045U202100913838101400913838101414/10/20211701    31902800239421964320000E1AD0300000199490000000000000                                         LACTATO RINGER USP (HARTMANN)  SOL INY  BOL X 1000ML BAXTERBIN     1
