CC0000008486413U202100915631102800915631102828/10/20210713    3150040623942196432000036441300000236540000000000000                                                                    JERINGA 1 ML GASES ARTERIAL 9023SIN     2
CC0000008486413U202100915631102800915631102828/10/20211130    3190099523942196432000011082700001620070000000000000                                                               EQUIPO SET PRIMARIO C/CLAVE REF 14001BOL     1
CC0000008486413U202100915631102800915631102828/10/20211130    3190099523942196432000016830000000970620000000000000                                                             SIST FIJACION CAT PERIFERICO 6.5X7 1683SOB     1
CC0000008486413U202100915631102800915631102828/10/20211130    31900995239421964320000Q1AA7300000610640000000000000                                                            CATETER PERIFE INTROCAN # 22G 4251628-04SIN     1
CC0000008486413U202100915631102800915631102828/10/20211130    3190099523942196432000001956000001620610000000000000                                                                      CONECTOR MICRO CLAVE LAT-MC100SOB     1
