RC0001043491133U202100913652101300913652101313/10/20211126    3190145323942196432000013077800000471960000000000000                                                             GASA NO TEJIDA EST 7.5 X 7.5 SOB X 3 UNSOB     3
RC0001043491133U202100913652101300913652101313/10/20211126    3190145323942196432000038568200000257000000000000000                                                                                   SONDA NELATON #06SIN     1
RC0001043491133U202100913652101300913652101313/10/20211126    3190145323942196432000043485100001618510000000000000                GUANTE QUIRURGICO DE LATEX REF 2D72N65X CAJ X 50 PROTEXIS  6.5 BN EXENTO-DC.417/2020SOB     1
RC0001043491133U202100913652101300913652101313/10/20211127    31900920239421964320000E1AD0300000199490000000000000                                         LACTATO RINGER USP (HARTMANN)  SOL INY  BOL X 1000ML BAXTERBIN     1
