CC0000017138066A202100000027641100000027641129/10/20211335    3190333624042196419000042743200003929860000000000000                   GASA ADHESIVA STRETCH REF 02038-00 ROL X 10MT FIXOMULL 15CM BN EXENTO-DC.417/2020CMT    40
CC0000017138066A202100000027641100000027641129/10/20211335    3190333624042196419000013077800000471960000000000000                                                             GASA NO TEJIDA EST 7.5 X 7.5 SOB X 3 UNSOB     1
CC0000017138066A202100000027641100000027641129/10/20211335    3190333624042196419000061196200000495170000000000000                                                                   SURGICEL FIBRILAR 5.1*10.2 411962SOB     1
CC0000017138066A202100000027641100000027641129/10/20211335    31903336240421964190000B05A0300003888230000000000000                                                        VOLUVEN (6+0.9)% SOL INY CAJ X 20BOL X 500MLBOL     1
CC0000017138066A202100000027641100000027641129/10/20211335    3190333624042196419000040511700000258570000000000000                                                              APOSITO BACTIGRAS REF 7457 10CM X 10CMSIN     1
CC0000017138066A202100000027641100000027641129/10/20211335    3190333624042196419000019489300000599360000000000000                                                                              VICRYL 5-0 RB1 70 J303SIN     1
CC0000017138066A202100000027641100000027641129/10/20211335    31903336240421964190000B02AA100001407470000000000000                                                                    CLINTRANEX SLN INY 500 MG / 5 MLAMP     2
CC0000017138066A202100000027641100000027641129/10/20211335    31903336240421964190000N1AH0200003906560000000000000                                                                     FENTANIL Iny 0.05 mg/ml x 10 mlAMP     1
CC0000017138066A202100000027641100000027641129/10/20211335    3190333624042196419000045138000001413890000000000000                                                                       LAPIZ ELECTROBISTURI  SOB X 1SOB     2
CC0000017138066A202100000027641100000027641129/10/20211335    31903336240421964190000M03AB100001371510000000000000                                                            ADECUAC SUCCINILCOLINA  100mg/mL SOL INYVAL     1
CC0000017138066A202100000027641100000027641129/10/20211335    3190333624042196419000045136100001419300000000000000                                                                            LANCETA DEXTROMETER X UNPZA     1
CC0000017138066A202100000027641100000027641129/10/20211335    3190333624042196419000011137100001419310000000000000                                                               TIRA GLUCOMETRIA FREESTYLE H OPTIUM .PZA     1
CC0000017138066A202100000027641100000027641129/10/20211335    3190333624042196419000000100600000223090000000000000                                                                      AGUJA DESECHABLE 18G X 1 1/2 PSIN     1
CC0000017138066A202100000027641100000027641129/10/20211335    3190333624042196419000039176200000325450000000000000                                                             TUBO ENDOTRAQ 7.5 C/B Y ESPIRAL INTERNOSIN     1
CC0000017138066A202100000027641100000027641129/10/20211335    31903336240421964190000N01A0500003844190000000000000                                                                          REMIFENTANILO SLN INY 2 MGVAL     2
CC0000017138066A202100000027641100000027641129/10/20211335    31903336240421964190000N01A0400003939010000000000000                                               MAYOPROFOL 200MG/20ML(1%) EMUL INY CAJ X 1VIAL X 20MLVAL     2
CC0000017138066A202100000027641100000027641129/10/20211335    3190333624042196419000011082900001233450000000000000                                                               EQUIPO LC 5000 PRIMARIO FOTOPRO 0L218SOB     1
CC0000017138066A202100000027641100000027641129/10/20211335    31903336240421964190000N1BA1900000554750000000000000                                                                     ROXICAINA JALEA 2% TUBO X 30 MLTUB     1
CC0000017138066A202100000027641100000027641129/10/20211335    3190333624042196419000038570000001123500000000000000                                                                              SONDA FOLEY #16 2 VIASSOB     1
CC0000017138066A202100000027641100000027641129/10/20211335    3190333624042196419000035639600001014740000000000000                                                                              MASCARA VENTURY ADULTOBOL     1
CC0000017138066A202100000027641100000027641129/10/20211335    31903336240421964190000Q1AA3300001585140000000000000                                                                         APOSITO TEGADERM 10*12 1626SOB     1
CC0000017138066A202100000027641100000027641129/10/20211335    31903336240421964190000C7AB1000001382030000000000000                                                                   NOREPINEFRINA SLN INY 4 MG / 4 MLAMP     2
CC0000017138066A202100000027641100000027641129/10/20211335    3190333624042196419000018351500000232840000000000000                                                                                    SEDA 2-0 KS 623HSIN     1
CC0000017138066A202100000027641100000027641129/10/20211335    3190333624042196419000049419800001679910000000000000                                                                        VENDA ALGODON 6*5 NO ESTERILSOB     1
CC0000017138066A202100000027641100000027641129/10/20211335    3190333624042196419000049428500000738570000000000000                                                                       VENDA ELASTICA 6*5 NO ESTERILSOB     2
CC0000017138066A202100000027641100000027641129/10/20211335    3190333624042196419000014581900000529900000000000000                                                            GRAPADORA CON GRAPAS PIEL 35W 8886803712PZA     1
CC0000017138066A202100000027641100000027641129/10/20211335    3190333624042196419000038568300000257010000000000000                                                                                   SONDA NELATON #08SIN     1
CC0000017138066A202100000027641100000027641129/10/20211335    31903336240421964190000Q1AA7200000610630000000000000                                                            CATETER PERIFE INTROCAN # 20G 4251644-04SIN     2
CC0000017138066A202100000027641100000027641129/10/20211335    31903336240421964190000Q1AA6900000531340000000000000                                                            CATETER PERIFE INTROCAN # 14G 4251890-04SIN     1
CC0000017138066A202100000027641100000027641129/10/20211335    3190333624042196419000021052100000576790000000000000                                                                   DRENAJE BLAKE PLANO REF 2211  7MMSIN     1
CC0000017138066A202100000027641100000027641129/10/20211335    3190333624042196419000021052200000380370000000000000                                                                        RESERVORIO J-VAC 100 ml 2160PZA     1
CC0000017138066A202100000027641100000027641129/10/20211335    3190333624042196419000015944000000632490000000000000                                                                           MONOCRYL 3-0 PS2  MCP427HSIN     1
CC0000017138066A202100000027641100000027641129/10/20211335    3190333624042196419000000503900000296270000000000000                                                                  SUTURA POLYSORB 3-0 75CM V20 GL122SIN     2
CC0000017138066A202100000027641100000027641129/10/20211335    3190333624042196419000030825800000270990000000000000                                                                  ALGODON ESTERIL SOBRE X 3 TORUNDASPZA     4
CC0000017138066A202100000027641100000027641129/10/20211335    3190333624042196419000012475000000265920000000000000                                                                           ETHILON 8-0 BV130-5 W2808SIN     2
CC0000017138066A202100000027641100000027641129/10/20211335    3190333624042196419000018352000000232900000000000000                                                                                   SEDA 3-0 SH K832HSIN     1
CC0000017138066A202100000027641100000027641129/10/20211335    3190333624042196419000018349800000232820000000000000                                                                                  SEDA 2-0 S.A SA85TSIN     1
CC0000017138066A202100000027641100000027641129/10/20211335    3190333624042196419000000500800001353040000000000000                                                              HORIZON CLIP TITANI S AMARIL REF001200CAR     3
CC0000017138066A202100000027641100000027641129/10/20211335    3190333624042196419000043486000001353050000000000000                                                            HORIZON CLIP TITANI M AZUL X 6 REF002200CAR     2
CC0000017138066A202100000027641100000027641129/10/20211335    3190333624042196419000030161400001459220000000000000                                                                       MANGUERA SUCCION 6 MM*3.1 MTSSOB     1
CC0000017138066A202100000027641100000027641129/10/20211335    3190333624042196419000010500700001414140000000000000                                                              CINTA VASOS MINI  1001-76 SCANLAN ROJOPZA     1
CC0000017138066A202100000027641100000027641129/10/20211335    3190333624042196419000043879200001138180000000000000                                                                                   HOJA BISTURI # 11SOB     2
CC0000017138066A202100000027641100000027641129/10/20211335    3190333624042196419000043879100001138200000000000000                                                                  HOJA BISTURI # 15 CSSB 15 01002003SOB     3
CC0000017138066A202100000027641100000027641129/10/20211335    3190333624042196419000022425200000548240000000000000                       EXTENSION DE ANESTESIA REF 1139 SOB X 1 SHERLEG  ADULTO BN EXENTO-DC.417/2020SIN     1
CC0000017138066A202100000027641100000027641129/10/20211335    3190333624042196419000035356500003919000000000000000                                                                                        LLAVE 3 VIASSOB     2
CC0000017138066A202100000027641100000027641129/10/20211335    31903336240421964190000Q1AA7100000610620000000000000                                                            CATETER PERIFE INTROCAN # 18G 4251687-04SIN     1
CC0000017138066A202100000027641100000027641129/10/20211335    3190333624042196419000022426800001140510000000000000                                                                    EQUIPO MACROGOTEO BAXTER MRC0001SOB     1
CC0000017138066A202100000027641100000027641129/10/20211335    31903336240421964190000J01DA300001239950000000000000                                                            CEFAZOLINA SODICA POLVO LIOF SLN INY 1 GVAL     2
CC0000017138066A202100000027641100000027641129/10/20211335    3190333624042196419000011073300001096420000000000000                                                                BOLSA DE SUCCION DE FLUIDOS x 2500mLBOL     1
CC0000017138066A202100000027641100000027641129/10/20211335    3190333624042196419000020750600000296780000000000000                                                                PLACA ELECTRO RETORNO PACIENTE E7506SIN     1
CC0000017138066A202100000027641100000027641129/10/20211335    3190333624042196419000011082700001620070000000000000                                                               EQUIPO SET PRIMARIO C/CLAVE REF 14001BOL     1
CC0000017138066A202100000027641100000027641129/10/20211335    3190333624042196419000053074400000607910000000000000                                                               GASA ESTERIL 10*10 SOBRE X 3 UNIDADESSOB    11
CC0000017138066A202100000027641100000027641129/10/20211335    3190333624042196419000011047900000223010000000000000                                                                            JERINGA X 1ML REF 302579SIN     1
CC0000017138066A202100000027641100000027641129/10/20211335    3190333624042196419000024673000001411210000000000000                                                                  JERINGA DESECHABLE 3 ML 21 X 1 1/2SOB     1
CC0000017138066A202100000027641100000027641129/10/20211335    3190333624042196419000024673600000222980000000000000                                                                     JERINGA DESECHABLE 5 ml 27*11/2SIN     4
CC0000017138066A202100000027641100000027641129/10/20211335    3190333624042196419000024674000000220660000000000000                             JERINGA A 3 PARTES CON AGUJA  SOB X 1 RYMCO  10ML BN EXENTO-DC.417/2020SIN     7
CC0000017138066A202100000027641100000027641129/10/20211335    3190333624042196419000024674500000322810000000000000                                                                   JERINGA DESECHABLE 20 ml 21*1 1/2SIN     3
CC0000017138066A202100000027641100000027641129/10/20211335    3190333624042196419000051515500000598160000000000000                                                                            MASCARILLA ANESTESIA # 5SIN     1
CC0000017138066A202100000027641100000027641129/10/20211335    3190333624042196419000011085400001083360000000000000                                                                       GUANTE QUIRURGICO TALLA 8 1/2SOB     2
CC0000017138066A202100000027641100000027641129/10/20211335    3190333624042196419000011085300001082140000000000000                                                                           GUANTE QUIRURGICO TALLA 8SOB     7
CC0000017138066A202100000027641100000027641129/10/20211335    3190333624042196419000011085200001585390000000000000                                                                       GUANTE QUIRURGICO TALLA 7 1/2SOB     6
CC0000017138066A202100000027641100000027641129/10/20211335    3190333624042196419000011085100001082120000000000000                                                                           GUANTE QUIRURGICO TALLA 7SOB     6
CC0000017138066A202100000027641100000027641129/10/20211335    3190333624042196419000043485100001618510000000000000                GUANTE QUIRURGICO DE LATEX REF 2D72N65X CAJ X 50 PROTEXIS  6.5 BN EXENTO-DC.417/2020SOB     9
CC0000017138066A202100000027641100000027641129/10/20211335    3190333624042196419000038569400000256750000000000000                                                                        SONDA ASPIRACION CONTROL #14SIN     1
CC0000017138066A202100000027641100000027641129/10/20211335    3190333624042196419000020056600001101530000000000000                                                                AGUJA HIPODERMICA DESECH 18G X 1 1/2SOB     1
CC0000017138066A202100000027641100000027641129/10/20211335    3190333624042196419000011099300000777780000000000000                                                                     FILTRO BACTERIANO VIRICO ADULTOBOL     1
CC0000017138066A202100000027641100000027641129/10/20211335    3190333624042196419000001200400000530690000000000000                                                                          CANULA DE MAYO # 5 (100MM)SIN     1
CC0000017138066A202100000027641100000027641129/10/20211335    31903336240421964190000E1AD0200003888320000000000000                                                                              HARTMAN SLN INY 500 MLBOL     3
CC0000017138066A202100000027641100000027641129/10/20211335    31903336240421964190000E1AB0300003888390000000000000                                                            SOLUCION SALINA 0.9% SLN INY BO X 500 MLBOL     7
CC0000017138066A202100000027641100000027641129/10/20211335    31903336240421964190000E1AB0700003888350000000000000                                                            SOLUCION SALINA 0.9% SLN INY BO X 250 MLBOL     3
CC0000017138066A202100000027641100000027641129/10/20211335    31903336240421964190000E1AB0200000199290000000000000                                                            SOLUCION SALINA 0.9% SLN INY BO X 100 MLBIN     2
CC0000017138066A202100000027641100000027641129/10/20211335    31903336240421964190000A2BC0900000200150000000000000                                                                               ORAZOLE Sln Iny 40 mgCIN     1
CC0000017138066A202100000027641100000027641129/10/20211335    31903336240421964190000A03F0300001626860000000000000                                                                   METOCLOPRAMIDA SLN INY 10 MG/2 MLAMP     1
CC0000017138066A202100000027641100000027641129/10/20211335    31903336240421964190000A03BB100003889180000000000000                                      HIOSCINA BUTIL BROMURO 20MG/ML SOL INY CAJ X 100AMP X 1ML RYANAMP     1
CC0000017138066A202100000027641100000027641129/10/20211335    31903336240421964190000N2BB0100000787510000000000000                                                                    DIPIRONA SODICA Sln Iny 1 g/2 mlAMP     1
CC0000017138066A202100000027641100000027641129/10/20211335    31903336240421964190000M01A2000001664970000000000000                                                               DICLOFENACO SODICO SLN INY 75 MG/3 MLAMP     1
CC0000017138066A202100000027641100000027641129/10/20211335    31903336240421964190000H02A0100001664960000000000000                                                                        DEXAMETASONA SLN INY 4 MG/MLAMP     2
CC0000017138066A202100000027641100000027641129/10/20211335    31903336240421964190000N05CD300000218170000000000000                                           DORMICUM IV-IM 5MG/5ML(1MG/ML) SOL INY  CAJ X 10AMP X 5MLAMP     1
CC0000017138066A202100000027641100000027641129/10/20211335    31903336240421964190000C01C0300001261020000000000000                                                               ETILEFRINA HCL SLN INY 10 MG/1 ML /R/AMP     2
