CC0000017840641U202100911991100200911991100202/10/20210015    3150025023942196432000011082700001620070000000000000                                                               EQUIPO SET PRIMARIO C/CLAVE REF 14001BOL     1
CC0000017840641U202100911991100200911991100202/10/20210015    3150025023942196432000016830000000970620000000000000                                                             SIST FIJACION CAT PERIFERICO 6.5X7 1683SOB     1
CC0000017840641U202100911991100200911991100202/10/20210015    3150025023942196432000024674000000220660000000000000                             JERINGA A 3 PARTES CON AGUJA  SOB X 1 RYMCO  10ML BN EXENTO-DC.417/2020SIN     1
CC0000017840641U202100911991100200911991100202/10/20210015    3150025023942196432000030936900001431840000000000000                                                                                              BURETABOL     1
CC0000017840641U202100911991100200911991100202/10/20210015    31500250239421964320000Q1AA7200000610630000000000000                                                            CATETER PERIFE INTROCAN # 20G 4251644-04SIN     1
CC0000017840641U202100911991100200911991100202/10/20210015    31500250239421964320000E1AD0300000199490000000000000                                         LACTATO RINGER USP (HARTMANN)  SOL INY  BOL X 1000ML BAXTERBIN     2
CC0000017840641U202100911991100200911991100202/10/20210229    3150025823942196432000024674000000220660000000000000                             JERINGA A 3 PARTES CON AGUJA  SOB X 1 RYMCO  10ML BN EXENTO-DC.417/2020SIN     1
CC0000017840641U202100911991100200911991100202/10/20210229    31500258239421964320000E1AD0300000199490000000000000                                         LACTATO RINGER USP (HARTMANN)  SOL INY  BOL X 1000ML BAXTERBIN     1
CC0000017840641H202100911991100200911991100202/10/20210616    3150047823742196425000031188000000236790000000000000                                                                                     CISTOFLO ADULTOSIN     1
CC0000017840641H202100911991100200911991100202/10/20210616    3150047823742196425000038570100001124990000000000000                                                                              SONDA FOLEY #18 2 VIASSOB     1
CC0000017840641H202100911991100200911991100202/10/20210616    3150047823742196425000043485100001618510000000000000                GUANTE QUIRURGICO DE LATEX REF 2D72N65X CAJ X 50 PROTEXIS  6.5 BN EXENTO-DC.417/2020SOB     1
CC0000017840641H202100911991100200911991100202/10/20212204    3190213823742196425000036563300000236910000000000000                                                                              BOLSA NUTRIFLO 1500 MLBOL     1
