PA0000591996886U202100913255101000913255101010/10/20210118    3150015423942196432000000902100000516710000000000000                                                                MASCARA VENTURY REF LM-86-227 PEDIATSIN     1
PA0000591996886H202100913255101000913255101010/10/20211448    3190310723742196425000016830000000970620000000000000                                                             SIST FIJACION CAT PERIFERICO 6.5X7 1683SOB     1
PA0000591996886H202100913255101000913255101010/10/20211448    3190310723742196425000001956000001620610000000000000                                                                      CONECTOR MICRO CLAVE LAT-MC100SOB     1
PA0000591996886H202100913255101000913255101010/10/20211448    31903107237421964250000Q1AA7100000610620000000000000                                                            CATETER PERIFE INTROCAN # 18G 4251687-04SIN     2
