CC0000032774823A202100000027593300000027593319/10/20210829    3190333624042196419000019429700000427120000000000000                                                                                      VENDA YESO 4*5BIN     1
CC0000032774823A202100000027593300000027593319/10/20210829    3190333624042196419000017574700000232680000000000000                                                                         PROLENE 4-0  SH/SH 90  8521SIN     1
CC0000032774823A202100000027593300000027593319/10/20210829    31903336240421964190000N01B0200003888110000000000000                                           ROXICAINA SE 100MG/10ML(1%) SOL INY CAJ X 24AMPACK X 10MLAPC     2
CC0000032774823A202100000027593300000027593319/10/20210829    3190333624042196419000011857700001096350000000000000                                                              AGUJA SONOPLEX BLOQUEO 21*100 01185-77BOL     1
CC0000032774823A202100000027593300000027593319/10/20210829    3190333624042196419000045138000001413890000000000000                                                                       LAPIZ ELECTROBISTURI  SOB X 1SOB     1
CC0000032774823A202100000027593300000027593319/10/20210829    3190333624042196419000049419600001679900000000000000                                                                        VENDA ALGODON 4*5 NO ESTERILSOB     2
CC0000032774823A202100000027593300000027593319/10/20210829    3190333624042196419000049428300000860750000000000000                                                                       VENDA ELASTICA 4*5 NO ESTERILBOL     3
CC0000032774823A202100000027593300000027593319/10/20210829    3190333624042196419000040511500000258400000000000000                                                               APOSITO BACTIGRAS REF 7456  5CM X 5CMSIN     1
CC0000032774823A202100000027593300000027593319/10/20210829    3190333624042196419000000503900000296270000000000000                                                                  SUTURA POLYSORB 3-0 75CM V20 GL122SIN     1
CC0000032774823A202100000027593300000027593319/10/20210829    3190333624042196419000017566200001585160000000000000                                                                  PROLENE 4-0 AZ 45 PS2 PRIME P8682TSOB     1
CC0000032774823A202100000027593300000027593319/10/20210829    3190333624042196419000043879100001138200000000000000                                                                  HOJA BISTURI # 15 CSSB 15 01002003SOB     2
CC0000032774823A202100000027593300000027593319/10/20210829    3190333624042196419000022425200000548240000000000000                       EXTENSION DE ANESTESIA REF 1139 SOB X 1 SHERLEG  ADULTO BN EXENTO-DC.417/2020SIN     1
CC0000032774823A202100000027593300000027593319/10/20210829    3190333624042196419000035356500003919000000000000000                                                                                        LLAVE 3 VIASSOB     2
CC0000032774823A202100000027593300000027593319/10/20210829    31903336240421964190000Q1AA7100000610620000000000000                                                            CATETER PERIFE INTROCAN # 18G 4251687-04SIN     1
CC0000032774823A202100000027593300000027593319/10/20210829    3190333624042196419000022426800001140510000000000000                                                                    EQUIPO MACROGOTEO BAXTER MRC0001SOB     1
CC0000032774823A202100000027593300000027593319/10/20210829    3190333624042196419000016830000000970620000000000000                                                             SIST FIJACION CAT PERIFERICO 6.5X7 1683SOB     1
CC0000032774823A202100000027593300000027593319/10/20210829    31903336240421964190000J01DA300001239950000000000000                                                            CEFAZOLINA SODICA POLVO LIOF SLN INY 1 GVAL     2
CC0000032774823A202100000027593300000027593319/10/20210829    3190333624042196419000020750600000296780000000000000                                                                PLACA ELECTRO RETORNO PACIENTE E7506SIN     1
CC0000032774823A202100000027593300000027593319/10/20210829    3190333624042196419000011082700001620070000000000000                                                               EQUIPO SET PRIMARIO C/CLAVE REF 14001BOL     2
CC0000032774823A202100000027593300000027593319/10/20210829    3190333624042196419000053074400000607910000000000000                                                               GASA ESTERIL 10*10 SOBRE X 3 UNIDADESSOB     4
CC0000032774823A202100000027593300000027593319/10/20210829    3190333624042196419000011085300001082140000000000000                                                                           GUANTE QUIRURGICO TALLA 8SOB     3
CC0000032774823A202100000027593300000027593319/10/20210829    3190333624042196419000011085200001585390000000000000                                                                       GUANTE QUIRURGICO TALLA 7 1/2SOB     3
CC0000032774823A202100000027593300000027593319/10/20210829    3190333624042196419000038568100000258050000000000000                                                                         CANULA OXIGENO NASAL ADULTOSIN     1
CC0000032774823A202100000027593300000027593319/10/20210829    3190333624042196419000001200400000530690000000000000                                                                          CANULA DE MAYO # 5 (100MM)SIN     1
CC0000032774823A202100000027593300000027593319/10/20210829    3190333624042196419000020058100001101630000000000000                                                                     AGUJA HIPODERMICA DESECH 23 X 1SOB     1
CC0000032774823A202100000027593300000027593319/10/20210829    3190333624042196419000020056600001101530000000000000                                                                AGUJA HIPODERMICA DESECH 18G X 1 1/2SOB     2
CC0000032774823A202100000027593300000027593319/10/20210829    3190333624042196419000024674000000220660000000000000                             JERINGA A 3 PARTES CON AGUJA  SOB X 1 RYMCO  10ML BN EXENTO-DC.417/2020SIN     6
CC0000032774823A202100000027593300000027593319/10/20210829    3190333624042196419000024674500000322810000000000000                                                                   JERINGA DESECHABLE 20 ml 21*1 1/2SIN     1
CC0000032774823A202100000027593300000027593319/10/20210829    31903336240421964190000E1AD0200003888320000000000000                                                                              HARTMAN SLN INY 500 MLBOL     1
CC0000032774823A202100000027593300000027593319/10/20210829    31903336240421964190000E1AB0300003888390000000000000                                                            SOLUCION SALINA 0.9% SLN INY BO X 500 MLBOL     3
CC0000032774823A202100000027593300000027593319/10/20210829    31903336240421964190000E1AB0700003888350000000000000                                                            SOLUCION SALINA 0.9% SLN INY BO X 250 MLBOL     1
CC0000032774823A202100000027593300000027593319/10/20210829    31903336240421964190000E1AB0200000199290000000000000                                                            SOLUCION SALINA 0.9% SLN INY BO X 100 MLBIN     1
CC0000032774823A202100000027593300000027593319/10/20210829    31903336240421964190000N02B1100001169680000000000000                              PARACETAMOL 1000MG/100ML(10MG/ML) SOL INY  VIAL X 100ML FRESENIUS KABIVAL     1
CC0000032774823A202100000027593300000027593319/10/20210829    31903336240421964190000A2BC0900000200150000000000000                                                                               ORAZOLE Sln Iny 40 mgCIN     1
CC0000032774823A202100000027593300000027593319/10/20210829    31903336240421964190000N01A0400003939010000000000000                                               MAYOPROFOL 200MG/20ML(1%) EMUL INY CAJ X 1VIAL X 20MLVAL     2
CC0000032774823A202100000027593300000027593319/10/20210829    31903336240421964190000M01A0400001341250000000000000                                                                              DYNASTAT AMP 40 MG /R/VAL     1
CC0000032774823A202100000027593300000027593319/10/20210829    31903336240421964190000A4AD0200000202990000000000000                                                                     PLITICAN HCL Sln Iny 50 mg/2 mlAMP     1
CC0000032774823A202100000027593300000027593319/10/20210829    31903336240421964190000N1BA1400000220050000000000000                                                                 ROXICAINA 2% C/EPIN Sln Iny x 50 mlFCO     1
CC0000032774823A202100000027593300000027593319/10/20210829    31903336240421964190000N01B0600003888900000000000000                                                    BUPINEST 75MG/10ML(0.75%) SOL INY CAJ X 24AMPACKAPC     2
