PE996314819121987U202100000554258100000554258107/10/20212017    31901806239421964320000E1AB0200000199290000000000000                                                            SOLUCION SALINA 0.9% SLN INY BO X 100 MLBIN     1
PE996314819121987U202100000554258100000554258107/10/20211939     3300004239421964320000J7AA0600001602890000000000000                                                            VACUNA ANTITETANICA SUSP INY 40 UI/0.5MLVAL     1
PE996314819121987U202100000554258100000554258107/10/20211939     3300004239421964320000N01B0200003888110000000000000                                           ROXICAINA SE 100MG/10ML(1%) SOL INY CAJ X 24AMPACK X 10MLAPC     1
PE996314819121987U202100000554258100000554258107/10/20211939     3300004239421964320000N2AX0400001204140000000000000                                                                             TRAMAL Sln Iny 50 mg/mlAMP     1
