CC0000032774823U202100914250101700914250101717/10/20212000    3190296823942196432000011048600000223020000000000000                                                                 JERINGA VACUNACION 3ML C/AGU 302542SIN     1
CC0000032774823U202100914250101700914250101717/10/20212000    3190296823942196432000019429700000427120000000000000                                                                                      VENDA YESO 4*5BIN     1
CC0000032774823U202100914250101700914250101717/10/20212000    3190296823942196432000024674000000220660000000000000                             JERINGA A 3 PARTES CON AGUJA  SOB X 1 RYMCO  10ML BN EXENTO-DC.417/2020SIN     1
CC0000032774823U202100914250101700914250101717/10/20212000    3190296823942196432000049419600001679900000000000000                                                                        VENDA ALGODON 4*5 NO ESTERILSOB     1
CC0000032774823U202100914250101700914250101717/10/20212000    3190296823942196432000049428300000860750000000000000                                                                       VENDA ELASTICA 4*5 NO ESTERILBOL     1
