CC0000022361987A202100000027635200000027635228/10/20210755    3190333624042196419000042743400003929880000000000000                                    CINTA ADHESIVA TRANSPARENT REF 72216-01 ROL X 10MT FIXOMULL 10CMCMT    65
CC0000022361987A202100000027635200000027635228/10/20210755    3190333624042196419000000601800000258500000000000000                                                            APOSITO OPSITE POST - OP0712  15CM X 8CMSIN     1
CC0000022361987A202100000027635200000027635228/10/20210755    31903336240421964190000D08AF900000512990000000000000                                                            FURACIN POMADA 0.2 G/100 G TU X 40 G /R/TUB     1
CC0000022361987A202100000027635200000027635228/10/20210755    3190333624042196419000000601900000258430000000000000                                                            APOSITO OPSIT POST -OP 0714  25CM X 10CMSIN     5
CC0000022361987A202100000027635200000027635228/10/20210755    3190333624042196419000031188000000236790000000000000                                                                                     CISTOFLO ADULTOSIN     1
CC0000022361987A202100000027635200000027635228/10/20210755    3190333624042196419000038569900001124970000000000000                                                                              SONDA FOLEY #14 2 VIASSOB     1
CC0000022361987A202100000027635200000027635228/10/20210755    3190333624042196419000061196200000495170000000000000                                                                   SURGICEL FIBRILAR 5.1*10.2 411962SOB     1
CC0000022361987A202100000027635200000027635228/10/20210755    3190333624042196419000039176200000325450000000000000                                                             TUBO ENDOTRAQ 7.5 C/B Y ESPIRAL INTERNOSIN     1
CC0000022361987A202100000027635200000027635228/10/20210755    31903336240421964190000N2AX1200001071490000000000000                                                                             TRAMADOL SLN INY 100 MGAMP     1
CC0000022361987A202100000027635200000027635228/10/20210755    3190333624042196419000038296600001597470000000000000                                                                     LIGASURE EXACT DISSECTOR LF2019PZA     1
CC0000022361987A202100000027635200000027635228/10/20210755    31903336240421964190000B02AA100001407470000000000000                                                                    CLINTRANEX SLN INY 500 MG / 5 MLAMP     3
CC0000022361987A202100000027635200000027635228/10/20210755    31903336240421964190000C01C0300001261020000000000000                                                               ETILEFRINA HCL SLN INY 10 MG/1 ML /R/AMP     1
CC0000022361987A202100000027635200000027635228/10/20210755    31903336240421964190000N01A0400003939010000000000000                                               MAYOPROFOL 200MG/20ML(1%) EMUL INY CAJ X 1VIAL X 20MLVAL     1
CC0000022361987A202100000027635200000027635228/10/20210755    3190333624042196419000049419800001679910000000000000                                                                        VENDA ALGODON 6*5 NO ESTERILSOB     1
CC0000022361987A202100000027635200000027635228/10/20210755    3190333624042196419000049428500000738570000000000000                                                                       VENDA ELASTICA 6*5 NO ESTERILSOB     1
CC0000022361987A202100000027635200000027635228/10/20210755    3190333624042196419000014581900000529900000000000000                                                            GRAPADORA CON GRAPAS PIEL 35W 8886803712PZA     2
CC0000022361987A202100000027635200000027635228/10/20210755    3190333624042196419000045138000001413890000000000000                                                                       LAPIZ ELECTROBISTURI  SOB X 1SOB     2
CC0000022361987A202100000027635200000027635228/10/20210755    3190333624042196419000000503900000296270000000000000                                                                  SUTURA POLYSORB 3-0 75CM V20 GL122SIN     4
CC0000022361987A202100000027635200000027635228/10/20210755    3190333624042196419000019487500000602970000000000000                                                                           VICRYL 2-0 CT1 90 VCP345HSIN     2
CC0000022361987A202100000027635200000027635228/10/20210755    3190333624042196419000030825800000270990000000000000                                                                  ALGODON ESTERIL SOBRE X 3 TORUNDASPZA     8
CC0000022361987A202100000027635200000027635228/10/20210755    3190333624042196419000018350200000232870000000000000                                                                                  SEDA 3-0 S.A SA84TSIN     1
CC0000022361987A202100000027635200000027635228/10/20210755    3190333624042196419000030161400001459220000000000000                                                                       MANGUERA SUCCION 6 MM*3.1 MTSSOB     1
CC0000022361987A202100000027635200000027635228/10/20210755    3190333624042196419000043879400001138170000000000000                                                                  HOJA BISTURI # 10 CSSB 10 01002000SOB     1
CC0000022361987A202100000027635200000027635228/10/20210755    3190333624042196419000043879100001138200000000000000                                                                  HOJA BISTURI # 15 CSSB 15 01002003SOB     1
CC0000022361987A202100000027635200000027635228/10/20210755    3190333624042196419000022425200000548240000000000000                       EXTENSION DE ANESTESIA REF 1139 SOB X 1 SHERLEG  ADULTO BN EXENTO-DC.417/2020SIN     1
CC0000022361987A202100000027635200000027635228/10/20210755    3190333624042196419000035356500003919000000000000000                                                                                        LLAVE 3 VIASSOB     2
CC0000022361987A202100000027635200000027635228/10/20210755    31903336240421964190000Q1AA7100000610620000000000000                                                            CATETER PERIFE INTROCAN # 18G 4251687-04SIN     2
CC0000022361987A202100000027635200000027635228/10/20210755    3190333624042196419000022426800001140510000000000000                                                                    EQUIPO MACROGOTEO BAXTER MRC0001SOB     1
CC0000022361987A202100000027635200000027635228/10/20210755    31903336240421964190000J01DA300001239950000000000000                                                            CEFAZOLINA SODICA POLVO LIOF SLN INY 1 GVAL     2
CC0000022361987A202100000027635200000027635228/10/20210755    3190333624042196419000011073300001096420000000000000                                                                BOLSA DE SUCCION DE FLUIDOS x 2500mLBOL     1
CC0000022361987A202100000027635200000027635228/10/20210755    3190333624042196419000020750600000296780000000000000                                                                PLACA ELECTRO RETORNO PACIENTE E7506SIN     1
CC0000022361987A202100000027635200000027635228/10/20210755    3190333624042196419000053074400000607910000000000000                                                               GASA ESTERIL 10*10 SOBRE X 3 UNIDADESSOB     8
CC0000022361987A202100000027635200000027635228/10/20210755    3190333624042196419000024674000000220660000000000000                             JERINGA A 3 PARTES CON AGUJA  SOB X 1 RYMCO  10ML BN EXENTO-DC.417/2020SIN     8
CC0000022361987A202100000027635200000027635228/10/20210755    3190333624042196419000024674500000322810000000000000                                                                   JERINGA DESECHABLE 20 ml 21*1 1/2SIN     2
CC0000022361987A202100000027635200000027635228/10/20210755    3190333624042196419000051515500000598160000000000000                                                                            MASCARILLA ANESTESIA # 5SIN     1
CC0000022361987A202100000027635200000027635228/10/20210755    3190333624042196419000038568100000258050000000000000                                                                         CANULA OXIGENO NASAL ADULTOSIN     1
CC0000022361987A202100000027635200000027635228/10/20210755    3190333624042196419000011085200001585390000000000000                                                                       GUANTE QUIRURGICO TALLA 7 1/2SOB     5
CC0000022361987A202100000027635200000027635228/10/20210755    3190333624042196419000011085100001082120000000000000                                                                           GUANTE QUIRURGICO TALLA 7SOB     4
CC0000022361987A202100000027635200000027635228/10/20210755    3190333624042196419000043485100001618510000000000000                GUANTE QUIRURGICO DE LATEX REF 2D72N65X CAJ X 50 PROTEXIS  6.5 BN EXENTO-DC.417/2020SOB     5
CC0000022361987A202100000027635200000027635228/10/20210755    3190333624042196419000001200400000530690000000000000                                                                          CANULA DE MAYO # 5 (100MM)SIN     1
CC0000022361987A202100000027635200000027635228/10/20210755    31903336240421964190000E1AD0200003888320000000000000                                                                              HARTMAN SLN INY 500 MLBOL     2
CC0000022361987A202100000027635200000027635228/10/20210755    31903336240421964190000E1AB0300003888390000000000000                                                            SOLUCION SALINA 0.9% SLN INY BO X 500 MLBOL     5
CC0000022361987A202100000027635200000027635228/10/20210755    31903336240421964190000M03A0900001467590000000000000                                                                        ROCURONIO SLN INY 50 MG/5 MLVAL     1
CC0000022361987A202100000027635200000027635228/10/20210755    31903336240421964190000A03F0300001626860000000000000                                                                   METOCLOPRAMIDA SLN INY 10 MG/2 MLAMP     1
CC0000022361987A202100000027635200000027635228/10/20210755    31903336240421964190000N02BB100000777810000000000000                                                               DIPIRONA MAGNESICA SLN INY 2.5 G/5 MLAMP     1
CC0000022361987A202100000027635200000027635228/10/20210755    31903336240421964190000M01A2000001664970000000000000                                                               DICLOFENACO SODICO SLN INY 75 MG/3 MLAMP     1
CC0000022361987A202100000027635200000027635228/10/20210755    31903336240421964190000H02A0100001664960000000000000                                                                        DEXAMETASONA SLN INY 4 MG/MLAMP     2
CC0000022361987A202100000027635200000027635228/10/20210755    31903336240421964190000N05CD300000218170000000000000                                           DORMICUM IV-IM 5MG/5ML(1MG/ML) SOL INY  CAJ X 10AMP X 5MLAMP     1
CC0000022361987A202100000027635200000027635228/10/20210755    31903336240421964190000N01A0500003844190000000000000                                                                          REMIFENTANILO SLN INY 2 MGVAL     1
