CC0000032711601H202100000554576900000554576916/10/20212026     3300004237421964250000A2BC0900000200150000000000000                                                                               ORAZOLE Sln Iny 40 mgCIN     1
CC0000032711601H202100000554576900000554576916/10/20211225     3300004237421964250000A2BA27000000#N/A0000000000000                                                                       RANITIDINA SLN INY 50 MG/2 ML AP     2
CC0000032711601H202100000554576900000554576916/10/20211225     3300004237421964250000A4AD0200000202990000000000000                                                                     PLITICAN HCL Sln Iny 50 mg/2 mlAMP     4
CC0000032711601H202100000554576900000554576916/10/20210129     3300010237421964250000B1AB0200003939510000000000000                 ENOXAPARINA SODICA 40MG/0.4ML(100MG/ML) SOL INY INST CAJ X 2JERPREL X 0.4ML TECHDOWJRP     1
CC0000032711601H202100000554576900000554576916/10/20212250    31903259237421964250000E1AB0500003888400000000000000                                                              SOLUCION SALINA 0.9% SLN INY X 1000 MLBOL     1
CC0000032711601H202100000554576900000554576916/10/20211719     3300004237421964250000J1DA0200001277350000000000000                                                                                   KEFLEX TAB 500 MGTAB     2
CC0000032711601H202100000554576900000554576916/10/20210536     3300010237421964250000M01A0400001341250000000000000                                                                              DYNASTAT AMP 40 MG /R/VAL     1
CC0000032711601H202100000554576900000554576916/10/20210132     3300010237421964250000M01A0400001341250000000000000                                                                              DYNASTAT AMP 40 MG /R/VAL     2
CC0000032711601H202100000554576900000554576916/10/20211224     3300004237421964250000N2AX0400001204140000000000000                                                                             TRAMAL Sln Iny 50 mg/mlAMP     3
CC0000032711601H202100000554576900000554576916/10/20210536     3300010237421964250000N2AX0400001204140000000000000                                                                             TRAMAL Sln Iny 50 mg/mlAMP     1
CC0000032711601H202100000554576900000554576916/10/20211225     3300004237421964250000N02B1100001169680000000000000                              PARACETAMOL 1000MG/100ML(10MG/ML) SOL INY  VIAL X 100ML FRESENIUS KABIVAL     1
CC0000032711601H202100000554576900000554576916/10/20210132     3300010237421964250000N02B1100001169680000000000000                              PARACETAMOL 1000MG/100ML(10MG/ML) SOL INY  VIAL X 100ML FRESENIUS KABIVAL     4
CC0000032711601H202100000554576900000554576916/10/20211224     3300004237421964250000N03A0800001278440000000000000                                                                                LYRICA CAP 75 MG /R/CAP     3
CC0000032711601H202100000554576900000554576916/10/20211349     3300010237421964250000N5BB0300000554910000000000000                                                                         HIDERAX SLN INY 100 MG/2 MLAMP     1
CC0000032711601H202100000554576900000554576916/10/20211520     3300010237421964250000S1AA1500001241150000000000000                                                             TOBRADEX UNG OFT 3 MG+1MG/1G x 3.5G /R/TUB     1
CC0000032711601H202100000554576900000554576916/10/20211539    31903310237421964250000V07A1300000502600000000000000                                                                                AGUA ESTERIL x 10 mlAMP     5
