CC0000022395297A202100000027583000000027583016/10/20211536    3190333624042196419000000901900000229390000000000000                                                                  MASCARA PARA OXIGENO ADULTO (1041)BIN     1
CC0000022395297A202100000027583000000027583016/10/20211536    31903336240421964190000V03A2300000865410000000000000                                                                         BRIDION Sln Iny 200 mg/2 mlVAL     1
CC0000022395297A202100000027583000000027583016/10/20211536    3190333624042196419000042743200003929860000000000000                   GASA ADHESIVA STRETCH REF 02038-00 ROL X 10MT FIXOMULL 15CM BN EXENTO-DC.417/2020CMT    55
CC0000022395297A202100000027583000000027583016/10/20211536    3190333624042196419000018630000000358130000000000000                                                                   DURAPREP Sln YODO APLICADOR 26 MLFCO     1
CC0000022395297A202100000027583000000027583016/10/20211536    31903336240421964190000N01B0200003888110000000000000                                           ROXICAINA SE 100MG/10ML(1%) SOL INY CAJ X 24AMPACK X 10MLAPC     1
CC0000022395297A202100000027583000000027583016/10/20211536    3190333624042196419000038568300000257010000000000000                                                                                   SONDA NELATON #08SIN     1
CC0000022395297A202100000027583000000027583016/10/20211536    3190333624042196419000044370800000224140000000000000                                                                                IOBAN 2 90 X 45 6650SIN     1
CC0000022395297A202100000027583000000027583016/10/20211536    31903336240421964190000K0011400000256710000000000000                                                                       VALVULA PROGRAMABLE 823100 JJCAJ     1
CC0000022395297A202100000027583000000027583016/10/20211536    3190333624042196419000049059800000267410000000000000                                                                 MEDIA ANTIEMBOLICA TAL L 3634LF PARBOL     1
CC0000022395297A202100000027583000000027583016/10/20211536    3190333624042196419000045136100001419300000000000000                                                                            LANCETA DEXTROMETER X UNPZA     1
CC0000022395297A202100000027583000000027583016/10/20211536    3190333624042196419000011137100001419310000000000000                                                               TIRA GLUCOMETRIA FREESTYLE H OPTIUM .PZA     1
CC0000022395297A202100000027583000000027583016/10/20211536    3190333624042196419000039176200000325450000000000000                                                             TUBO ENDOTRAQ 7.5 C/B Y ESPIRAL INTERNOSIN     1
CC0000022395297A202100000027583000000027583016/10/20211536    31903336240421964190000J01XA400001212420000000000000                                                               VANCOMICINA POLVO LIOF SLN INY 500 MGVAL     1
CC0000022395297A202100000027583000000027583016/10/20211536    31903336240421964190000N1BA3200000520850000000000000                                                                    BUPIROP 0.5% C/E Sln Iny x 10 mlAPC     1
CC0000022395297A202100000027583000000027583016/10/20211536    3190333624042196419000014581900000529900000000000000                                                            GRAPADORA CON GRAPAS PIEL 35W 8886803712PZA     2
CC0000022395297A202100000027583000000027583016/10/20211536    3190333624042196419000000503900000296270000000000000                                                                  SUTURA POLYSORB 3-0 75CM V20 GL122SIN     1
CC0000022395297A202100000027583000000027583016/10/20211536    3190333624042196419000000504400000232770000000000000                                                                 SUTURA SEDA NEGRA 0 10 X 75CM SA86TSIN     1
CC0000022395297A202100000027583000000027583016/10/20211536    3190333624042196419000019488400000599300000000000000                                                                               VICRYL 2-0 SH VCP317HSIN     1
CC0000022395297A202100000027583000000027583016/10/20211536    3190333624042196419000019487500000602970000000000000                                                                           VICRYL 2-0 CT1 90 VCP345HSIN     1
CC0000022395297A202100000027583000000027583016/10/20211536    3190333624042196419000019487800001585180000000000000                                                                    VICRYL 1 PLUS 70 CM CT-1 VCP341HSOB     1
CC0000022395297A202100000027583000000027583016/10/20211536    3190333624042196419000045138000001413890000000000000                                                                       LAPIZ ELECTROBISTURI  SOB X 1SOB     1
CC0000022395297A202100000027583000000027583016/10/20211536    3190333624042196419000000102300000222960000000000000                                                                 JERINGA DESECHABLE SIN AGUJA X 20mLSIN     3
CC0000022395297A202100000027583000000027583016/10/20211536    3190333624042196419000011078800000517750000000000000                                                             COTONOIDE REF 801401 DE 1.91CM X 1.91CMSIN     1
CC0000022395297A202100000027583000000027583016/10/20211536    3190333624042196419000030161400001459220000000000000                                                                       MANGUERA SUCCION 6 MM*3.1 MTSSOB     1
CC0000022395297A202100000027583000000027583016/10/20211536    31903336240421964190000Q1AA6900000531340000000000000                                                            CATETER PERIFE INTROCAN # 14G 4251890-04SIN     2
CC0000022395297A202100000027583000000027583016/10/20211536    3190333624042196419000043879400001138170000000000000                                                                  HOJA BISTURI # 10 CSSB 10 01002000SOB     1
CC0000022395297A202100000027583000000027583016/10/20211536    3190333624042196419000043879100001138200000000000000                                                                  HOJA BISTURI # 15 CSSB 15 01002003SOB     1
CC0000022395297A202100000027583000000027583016/10/20211536    3190333624042196419000022425200000548240000000000000                       EXTENSION DE ANESTESIA REF 1139 SOB X 1 SHERLEG  ADULTO BN EXENTO-DC.417/2020SIN     1
CC0000022395297A202100000027583000000027583016/10/20211536    3190333624042196419000035356500003919000000000000000                                                                                        LLAVE 3 VIASSOB     2
CC0000022395297A202100000027583000000027583016/10/20211536    31903336240421964190000Q1AA7100000610620000000000000                                                            CATETER PERIFE INTROCAN # 18G 4251687-04SIN     1
CC0000022395297A202100000027583000000027583016/10/20211536    3190333624042196419000022426800001140510000000000000                                                                    EQUIPO MACROGOTEO BAXTER MRC0001SOB     1
CC0000022395297A202100000027583000000027583016/10/20211536    3190333624042196419000016830000000970620000000000000                                                             SIST FIJACION CAT PERIFERICO 6.5X7 1683SOB     1
CC0000022395297A202100000027583000000027583016/10/20211536    31903336240421964190000J01DA300001239950000000000000                                                            CEFAZOLINA SODICA POLVO LIOF SLN INY 1 GVAL     2
CC0000022395297A202100000027583000000027583016/10/20211536    3190333624042196419000011073300001096420000000000000                                                                BOLSA DE SUCCION DE FLUIDOS x 2500mLBOL     1
CC0000022395297A202100000027583000000027583016/10/20211536    3190333624042196419000020750600000296780000000000000                                                                PLACA ELECTRO RETORNO PACIENTE E7506SIN     1
CC0000022395297A202100000027583000000027583016/10/20211536    3190333624042196419000053074400000607910000000000000                                                               GASA ESTERIL 10*10 SOBRE X 3 UNIDADESSOB     3
CC0000022395297A202100000027583000000027583016/10/20211536    3190333624042196419000011085300001082140000000000000                                                                           GUANTE QUIRURGICO TALLA 8SOB     3
CC0000022395297A202100000027583000000027583016/10/20211536    3190333624042196419000011085200001585390000000000000                                                                       GUANTE QUIRURGICO TALLA 7 1/2SOB     3
CC0000022395297A202100000027583000000027583016/10/20211536    3190333624042196419000011085100001082120000000000000                                                                           GUANTE QUIRURGICO TALLA 7SOB     2
CC0000022395297A202100000027583000000027583016/10/20211536    3190333624042196419000043485100001618510000000000000                GUANTE QUIRURGICO DE LATEX REF 2D72N65X CAJ X 50 PROTEXIS  6.5 BN EXENTO-DC.417/2020SOB     4
CC0000022395297A202100000027583000000027583016/10/20211536    3190333624042196419000051515500000598160000000000000                                                                            MASCARILLA ANESTESIA # 5SIN     1
CC0000022395297A202100000027583000000027583016/10/20211536    3190333624042196419000011099300000777780000000000000                                                                     FILTRO BACTERIANO VIRICO ADULTOBOL     1
CC0000022395297A202100000027583000000027583016/10/20211536    3190333624042196419000001200400000530690000000000000                                                                          CANULA DE MAYO # 5 (100MM)SIN     1
CC0000022395297A202100000027583000000027583016/10/20211536    3190333624042196419000020058100001101630000000000000                                                                     AGUJA HIPODERMICA DESECH 23 X 1SOB     2
CC0000022395297A202100000027583000000027583016/10/20211536    3190333624042196419000020056600001101530000000000000                                                                AGUJA HIPODERMICA DESECH 18G X 1 1/2SOB     2
CC0000022395297A202100000027583000000027583016/10/20211536    3190333624042196419000039175000001072050000000000000                                                                           TUBO ENDOTRAQUEAL C/B 7.0SOB     1
CC0000022395297A202100000027583000000027583016/10/20211536    3190333624042196419000024673000001411210000000000000                                                                  JERINGA DESECHABLE 3 ML 21 X 1 1/2SOB     1
CC0000022395297A202100000027583000000027583016/10/20211536    3190333624042196419000024674000000220660000000000000                             JERINGA A 3 PARTES CON AGUJA  SOB X 1 RYMCO  10ML BN EXENTO-DC.417/2020SIN     5
CC0000022395297A202100000027583000000027583016/10/20211536    3190333624042196419000024674500000322810000000000000                                                                   JERINGA DESECHABLE 20 ml 21*1 1/2SIN     1
CC0000022395297A202100000027583000000027583016/10/20211536    31903336240421964190000E1AD0200003888320000000000000                                                                              HARTMAN SLN INY 500 MLBOL     3
CC0000022395297A202100000027583000000027583016/10/20211536    31903336240421964190000E1AB0300003888390000000000000                                                            SOLUCION SALINA 0.9% SLN INY BO X 500 MLBOL     2
CC0000022395297A202100000027583000000027583016/10/20211536    31903336240421964190000N02B1100001169680000000000000                              PARACETAMOL 1000MG/100ML(10MG/ML) SOL INY  VIAL X 100ML FRESENIUS KABIVAL     1
CC0000022395297A202100000027583000000027583016/10/20211536    31903336240421964190000M1AX0200001569410000000000000                                                                         KETRON SLN INY 30 MG / 2 MLAMP     2
CC0000022395297A202100000027583000000027583016/10/20211536    31903336240421964190000N01A0400003939010000000000000                                               MAYOPROFOL 200MG/20ML(1%) EMUL INY CAJ X 1VIAL X 20MLVAL     1
CC0000022395297A202100000027583000000027583016/10/20211536    31903336240421964190000N2BB1100000217160000000000000                                                                      NOVALGINA Sln Iny 2.5 g x 5 mlAMP     1
CC0000022395297A202100000027583000000027583016/10/20211536    31903336240421964190000N01B0600003888900000000000000                                                    BUPINEST 75MG/10ML(0.75%) SOL INY CAJ X 24AMPACKAPC     1
