CC0001129508481A202100000027576800000027576816/10/20210800    3190333624042196419000042753000003929870000000000000                    GASA ADHESIVA STRETCH REF 02036-00 ROL X 10MT FIXOMULL 5CM BN EXENTO-DC.417/2020CMT    45
CC0001129508481A202100000027576800000027576816/10/20210800    3190333624042196419000038568400000256940000000000000                                                                                   SONDA NELATON #10SIN     1
CC0001129508481A202100000027576800000027576816/10/20210800    31903336240421964190000N1AX0100003889000000000000000                                                                       KETAMINA Iny 50 mg/ml x 10 mlVAL     1
CC0001129508481A202100000027576800000027576816/10/20210800    3190333624042196419000019488400000599300000000000000                                                                               VICRYL 2-0 SH VCP317HSIN     1
CC0001129508481A202100000027576800000027576816/10/20210800    3190333624042196419000019488700000753270000000000000                                                                              VICRYL 3-0 SH1 VCP311HSOB     2
CC0001129508481A202100000027576800000027576816/10/20210800    31903336240421964190000Q1AA6900000531340000000000000                                                            CATETER PERIFE INTROCAN # 14G 4251890-04SIN     2
CC0001129508481A202100000027576800000027576816/10/20210800    3190333624042196419000000201200000226000000000000000                                                             SONDA NASOGASTRICA PUNTA TUGSTENO 12 FrSIN     1
CC0001129508481A202100000027576800000027576816/10/20210800    31903336240421964190000N1BA1300000220040000000000000                                                                 ROXICAINA 2% C/EPIN Sln Iny X 20 MLFCO     1
CC0001129508481A202100000027576800000027576816/10/20210800    3190333624042196419000000102300000222960000000000000                                                                 JERINGA DESECHABLE SIN AGUJA X 20mLSIN     4
CC0001129508481A202100000027576800000027576816/10/20210800    31903336240421964190000N01A0400003939010000000000000                                               MAYOPROFOL 200MG/20ML(1%) EMUL INY CAJ X 1VIAL X 20MLVAL     1
CC0001129508481A202100000027576800000027576816/10/20210800    31903336240421964190000B02AA100001407470000000000000                                                                    CLINTRANEX SLN INY 500 MG / 5 MLAMP     2
CC0001129508481A202100000027576800000027576816/10/20210800    3190333624042196419000000503900000296270000000000000                                                                  SUTURA POLYSORB 3-0 75CM V20 GL122SIN     1
CC0001129508481A202100000027576800000027576816/10/20210800    3190333624042196419000045138000001413890000000000000                                                                       LAPIZ ELECTROBISTURI  SOB X 1SOB     1
CC0001129508481A202100000027576800000027576816/10/20210800    3190333624042196419000043879100001138200000000000000                                                                  HOJA BISTURI # 15 CSSB 15 01002003SOB     2
CC0001129508481A202100000027576800000027576816/10/20210800    3190333624042196419000022425200000548240000000000000                       EXTENSION DE ANESTESIA REF 1139 SOB X 1 SHERLEG  ADULTO BN EXENTO-DC.417/2020SIN     1
CC0001129508481A202100000027576800000027576816/10/20210800    3190333624042196419000035356500003919000000000000000                                                                                        LLAVE 3 VIASSOB     2
CC0001129508481A202100000027576800000027576816/10/20210800    3190333624042196419000024674000000220660000000000000                             JERINGA A 3 PARTES CON AGUJA  SOB X 1 RYMCO  10ML BN EXENTO-DC.417/2020SIN     1
CC0001129508481A202100000027576800000027576816/10/20210800    3190333624042196419000022426800001140510000000000000                                                                    EQUIPO MACROGOTEO BAXTER MRC0001SOB     1
CC0001129508481A202100000027576800000027576816/10/20210800    3190333624042196419000030161400001459220000000000000                                                                       MANGUERA SUCCION 6 MM*3.1 MTSSOB     2
CC0001129508481A202100000027576800000027576816/10/20210800    3190333624042196419000011073300001096420000000000000                                                                BOLSA DE SUCCION DE FLUIDOS x 2500mLBOL     1
CC0001129508481A202100000027576800000027576816/10/20210800    3190333624042196419000053074400000607910000000000000                                                               GASA ESTERIL 10*10 SOBRE X 3 UNIDADESSOB     3
CC0001129508481A202100000027576800000027576816/10/20210800    3190333624042196419000024673000001411210000000000000                                                                  JERINGA DESECHABLE 3 ML 21 X 1 1/2SOB     1
CC0001129508481A202100000027576800000027576816/10/20210800    3190333624042196419000024674500000322810000000000000                                                                   JERINGA DESECHABLE 20 ml 21*1 1/2SIN     1
CC0001129508481A202100000027576800000027576816/10/20210800    3190333624042196419000011085200001585390000000000000                                                                       GUANTE QUIRURGICO TALLA 7 1/2SOB     3
CC0001129508481A202100000027576800000027576816/10/20210800    3190333624042196419000011085100001082120000000000000                                                                           GUANTE QUIRURGICO TALLA 7SOB     2
CC0001129508481A202100000027576800000027576816/10/20210800    3190333624042196419000043485100001618510000000000000                GUANTE QUIRURGICO DE LATEX REF 2D72N65X CAJ X 50 PROTEXIS  6.5 BN EXENTO-DC.417/2020SOB     1
CC0001129508481A202100000027576800000027576816/10/20210800    3190333624042196419000038569400000256750000000000000                                                                        SONDA ASPIRACION CONTROL #14SIN     1
CC0001129508481A202100000027576800000027576816/10/20210800    3190333624042196419000011099300000777780000000000000                                                                     FILTRO BACTERIANO VIRICO ADULTOBOL     1
CC0001129508481A202100000027576800000027576816/10/20210800    31903336240421964190000E1AD0200003888320000000000000                                                                              HARTMAN SLN INY 500 MLBOL     1
CC0001129508481A202100000027576800000027576816/10/20210800    31903336240421964190000E1AB0500003888400000000000000                                                              SOLUCION SALINA 0.9% SLN INY X 1000 MLBOL     1
CC0001129508481A202100000027576800000027576816/10/20210800    31903336240421964190000E1AB0300003888390000000000000                                                            SOLUCION SALINA 0.9% SLN INY BO X 500 MLBOL     2
CC0001129508481A202100000027576800000027576816/10/20210800    31903336240421964190000N2BB0100000787510000000000000                                                                    DIPIRONA SODICA Sln Iny 1 g/2 mlAMP     2
CC0001129508481A202100000027576800000027576816/10/20210800    31903336240421964190000M01A2000001664970000000000000                                                               DICLOFENACO SODICO SLN INY 75 MG/3 MLAMP     1
