CC0000022736299A202100000027536400000027536406/10/20210742    31903336240421964190000A4AD0200000202990000000000000                                                                     PLITICAN HCL Sln Iny 50 mg/2 mlAMP     1
CC0000022736299A202100000027536400000027536406/10/20210742    31903336240421964190000A04A1400001467560000000000000                                                                      ONDANSETRON SLN INY 8 MG/ 4 MLVAL     1
CC0000022736299A202100000027536400000027536406/10/20210742    31903336240421964190000E1AB0300003888390000000000000                                                            SOLUCION SALINA 0.9% SLN INY BO X 500 MLBOL     5
CC0000022736299A202100000027536400000027536406/10/20210742    31903336240421964190000E1AB0500003888400000000000000                                                              SOLUCION SALINA 0.9% SLN INY X 1000 MLBOL     2
CC0000022736299A202100000027536400000027536406/10/20210742    31903336240421964190000C01C0300001261020000000000000                                                               ETILEFRINA HCL SLN INY 10 MG/1 ML /R/AMP     1
CC0000022736299A202100000027536400000027536406/10/20210742    31903336240421964190000H02AB500001664950000000000000                                                            DEXAMETASONA SLN INY 8 MG/2 ML AMP /CDS/AMP     1
CC0000022736299A202100000027536400000027536406/10/20210742    31903336240421964190000J01DA300001239950000000000000                                                            CEFAZOLINA SODICA POLVO LIOF SLN INY 1 GVAL     2
CC0000022736299A202100000027536400000027536406/10/20210742    31903336240421964190000M3AC0600000720540000000000000                                                                         ESMERON SLN INY 50 MG /5 MLVAL     1
CC0000022736299A202100000027536400000027536406/10/20210742    31903336240421964190000N01A0400003939010000000000000                                               MAYOPROFOL 200MG/20ML(1%) EMUL INY CAJ X 1VIAL X 20MLVAL     1
CC0000022736299A202100000027536400000027536406/10/20210742    31903336240421964190000N1BA1900000554750000000000000                                                                     ROXICAINA JALEA 2% TUBO X 30 MLTUB     1
CC0000022736299A202100000027536400000027536406/10/20210742    31903336240421964190000N1BA0300000217900000000000000                                                                    BUPIROP 0.5% C/E Sln Iny x 20 mlVAL     1
CC0000022736299A202100000027536400000027536406/10/20210742    31903336240421964190000N01B0600003888900000000000000                                                    BUPINEST 75MG/10ML(0.75%) SOL INY CAJ X 24AMPACKAPC     4
CC0000022736299A202100000027536400000027536406/10/20210742    31903336240421964190000N1BA2400001195280000000000000                                                                    LIDOCAINA 2% S/E Sln Iny x 10 mlAMP     1
CC0000022736299A202100000027536400000027536406/10/20210742    31903336240421964190000N2BB1100000217160000000000000                                                                      NOVALGINA Sln Iny 2.5 g x 5 mlAMP     1
CC0000022736299A202100000027536400000027536406/10/20210742    31903336240421964190000N02B1100001169680000000000000                              PARACETAMOL 1000MG/100ML(10MG/ML) SOL INY  VIAL X 100ML FRESENIUS KABIVAL     1
CC0000022736299A202100000027536400000027536406/10/20210742    31903336240421964190000N1AH0200003906560000000000000                                                                     FENTANIL Iny 0.05 mg/ml x 10 mlAMP     1
CC0000022736299A202100000027536400000027536406/10/20210742    31903336240421964190000N5CD0300000218170000000000000                                                              DORMICUM IV-IM 5MG/5ML(1MG/ML) SOL INYAMP     1
CC0000022736299A202100000027536400000027536406/10/20210742    31903336240421964190000N2AA0700001587170000000000000                                                                                 ULTIVA Sln Iny 2 mgVAL     1
CC0000022736299A202100000027536400000027536406/10/20210742    3190333624042196419000020056600001101530000000000000                                                                AGUJA HIPODERMICA DESECH 18G X 1 1/2SOB     2
CC0000022736299A202100000027536400000027536406/10/20210742    3190333624042196419000016830000000970620000000000000                                                             SIST FIJACION CAT PERIFERICO 6.5X7 1683SOB     1
CC0000022736299A202100000027536400000027536406/10/20210742    3190333624042196419000011073300001096420000000000000                                                                BOLSA DE SUCCION DE FLUIDOS x 2500mLBOL     2
CC0000022736299A202100000027536400000027536406/10/20210742    3190333624042196419000031010900000762730000000000000                                                                          CANULA GUEDEL # 4 (100 MM)SOB     1
CC0000022736299A202100000027536400000027536406/10/20210742    3190333624042196419000038568100000258050000000000000                                                                         CANULA OXIGENO NASAL ADULTOSIN     1
CC0000022736299A202100000027536400000027536406/10/20210742    31903336240421964190000Q1AA7100000610620000000000000                                                            CATETER PERIFE INTROCAN # 18G 4251687-04SIN     1
CC0000022736299A202100000027536400000027536406/10/20210742    3190333624042196419000031188000000236790000000000000                                                                                     CISTOFLO ADULTOSIN     1
CC0000022736299A202100000027536400000027536406/10/20210742    3190333624042196419000022425200000548240000000000000                       EXTENSION DE ANESTESIA REF 1139 SOB X 1 SHERLEG  ADULTO BN EXENTO-DC.417/2020SIN     1
CC0000022736299A202100000027536400000027536406/10/20210742    3190333624042196419000011082600000265810000000000000                                                              EQUIPO IRRIGACION URINARIA REF MRC4002SOB     1
CC0000022736299A202100000027536400000027536406/10/20210742    3190333624042196419000011082700001620070000000000000                                                               EQUIPO SET PRIMARIO C/CLAVE REF 14001BOL     1
CC0000022736299A202100000027536400000027536406/10/20210742    3190333624042196419000022426800001140510000000000000                                                                    EQUIPO MACROGOTEO BAXTER MRC0001SOB     1
CC0000022736299A202100000027536400000027536406/10/20210742    3190333624042196419000011099300000777780000000000000                                                                     FILTRO BACTERIANO VIRICO ADULTOBOL     2
CC0000022736299A202100000027536400000027536406/10/20210742    3190333624042196419000053074400000607910000000000000                                                               GASA ESTERIL 10*10 SOBRE X 3 UNIDADESSOB     3
CC0000022736299A202100000027536400000027536406/10/20210742    3190333624042196419000011085200001585390000000000000                                                                       GUANTE QUIRURGICO TALLA 7 1/2SOB     3
CC0000022736299A202100000027536400000027536406/10/20210742    3190333624042196419000011085300001082140000000000000                                                                           GUANTE QUIRURGICO TALLA 8SOB     3
CC0000022736299A202100000027536400000027536406/10/20210742    3190333624042196419000011085400001083360000000000000                                                                       GUANTE QUIRURGICO TALLA 8 1/2SOB     3
CC0000022736299A202100000027536400000027536406/10/20210742    3190333624042196419000043879200001138180000000000000                                                                                   HOJA BISTURI # 11SOB     1
CC0000022736299A202100000027536400000027536406/10/20210742    3190333624042196419000024673600000222980000000000000                                                                     JERINGA DESECHABLE 5 ml 27*11/2SIN     2
CC0000022736299A202100000027536400000027536406/10/20210742    3190333624042196419000024674000000220660000000000000                             JERINGA A 3 PARTES CON AGUJA  SOB X 1 RYMCO  10ML BN EXENTO-DC.417/2020SIN     2
CC0000022736299A202100000027536400000027536406/10/20210742    3190333624042196419000024674500000322810000000000000                                                                   JERINGA DESECHABLE 20 ml 21*1 1/2SIN     4
CC0000022736299A202100000027536400000027536406/10/20210742    3190333624042196419000024673000001411210000000000000                                                                  JERINGA DESECHABLE 3 ML 21 X 1 1/2SOB     1
CC0000022736299A202100000027536400000027536406/10/20210742    3190333624042196419000035356500003919000000000000000                                                                                        LLAVE 3 VIASSOB     2
CC0000022736299A202100000027536400000027536406/10/20210742    3190333624042196419000051515500000598160000000000000                                                                            MASCARILLA ANESTESIA # 5SIN     1
CC0000022736299A202100000027536400000027536406/10/20210742    3190333624042196419000049059800000267410000000000000                                                                 MEDIA ANTIEMBOLICA TAL L 3634LF PARBOL     1
CC0000022736299A202100000027536400000027536406/10/20210742    3190333624042196419000020750600000296780000000000000                                                                PLACA ELECTRO RETORNO PACIENTE E7506SIN     1
CC0000022736299A202100000027536400000027536406/10/20210742    3190333624042196419000011058900000856640000000000000                                                                PUNTA MANIPULADOR 6.7MM X 8CM UMB678SOB     1
CC0000022736299A202100000027536400000027536406/10/20210742    3190333624042196419000011064200001181380000000000000                                                             SISTEM KOH-EFFICIENT C/BALON KC-RUMI-30PZA     1
CC0000022736299A202100000027536400000027536406/10/20210742    3190333624042196419000038569900001124970000000000000                                                                              SONDA FOLEY #14 2 VIASSOB     1
CC0000022736299A202100000027536400000027536406/10/20210742    3190333624042196419000000016500000223580000000000000                                                                    STERI-STRIP 12 X 100 REF 1547 3MSIN     1
CC0000022736299A202100000027536400000027536406/10/20210742    3190333624042196419000015994600000632480000000000000                                                                          MONOCRYL 4-0 PS-2 45 Y496GSIN     1
CC0000022736299A202100000027536400000027536406/10/20210742    3190333624042196419000000504800000657380000000000000                                                                  SUTURA VICRYL 2-0 CT-2  70CM J333HSOB     1
CC0000022736299A202100000027536400000027536406/10/20210742    3190333624042196419000000504900001148610000000000000                                                            SUTURA V-LOC 180 GS21 37MM REF VLOCL0316PZA     1
CC0000022736299A202100000027536400000027536406/10/20210742    3190333624042196419000011067500001404570000000000000                                                              TROCAR FIJACION 5MM X 100 MM REF B5STFPZA     1
CC0000022736299A202100000027536400000027536406/10/20210742    3190333624042196419000039175000001072050000000000000                                                                           TUBO ENDOTRAQUEAL C/B 7.0SOB     1
CC0000022736299A202100000027536400000027536406/10/20210742    3190333624042196419000030161400001459220000000000000                                                                       MANGUERA SUCCION 6 MM*3.1 MTSSOB     1
