CC0000030333787A202100000027577100000027577115/10/20211409    31903336240421964190000A2BC0900000200150000000000000                                                                               ORAZOLE Sln Iny 40 mgCIN     1
CC0000030333787A202100000027577100000027577115/10/20211409    31903336240421964190000A4AD0200000202990000000000000                                                                     PLITICAN HCL Sln Iny 50 mg/2 mlAMP     1
CC0000030333787A202100000027577100000027577115/10/20211409    31903336240421964190000E1AB0200000199290000000000000                                                            SOLUCION SALINA 0.9% SLN INY BO X 100 MLBIN     1
CC0000030333787A202100000027577100000027577115/10/20211409    31903336240421964190000E1AB0300003888390000000000000                                                            SOLUCION SALINA 0.9% SLN INY BO X 500 MLBOL     3
CC0000030333787A202100000027577100000027577115/10/20211409    31903336240421964190000E1AD0200003888320000000000000                                                                              HARTMAN SLN INY 500 MLBOL     2
CC0000030333787A202100000027577100000027577115/10/20211409    31903336240421964190000C01C0300001261020000000000000                                                               ETILEFRINA HCL SLN INY 10 MG/1 ML /R/AMP     1
CC0000030333787A202100000027577100000027577115/10/20211409    31903336240421964190000H02AB500001664950000000000000                                                            DEXAMETASONA SLN INY 8 MG/2 ML AMP /CDS/AMP     1
CC0000030333787A202100000027577100000027577115/10/20211409    31903336240421964190000J01DA300001239950000000000000                                                            CEFAZOLINA SODICA POLVO LIOF SLN INY 1 GVAL     2
CC0000030333787A202100000027577100000027577115/10/20211409    31903336240421964190000M01A0400001341250000000000000                                                                              DYNASTAT AMP 40 MG /R/VAL     1
CC0000030333787A202100000027577100000027577115/10/20211409    31903336240421964190000M3AC0600000720540000000000000                                                                         ESMERON SLN INY 50 MG /5 MLVAL     1
CC0000030333787A202100000027577100000027577115/10/20211409    31903336240421964190000N01B0600003888900000000000000                                                    BUPINEST 75MG/10ML(0.75%) SOL INY CAJ X 24AMPACKAPC     1
CC0000030333787A202100000027577100000027577115/10/20211409    31903336240421964190000N1BA2400001195280000000000000                                                                    LIDOCAINA 2% S/E Sln Iny x 10 mlAMP     1
CC0000030333787A202100000027577100000027577115/10/20211409    31903336240421964190000N07X0300003913670000000000000                                    DEXMEDETOMIDINA 400MCG/100ML(4MCG/ML) SOL INY BOL X 100ML BAXTERBOL     1
CC0000030333787A202100000027577100000027577115/10/20211409    31903336240421964190000N02B1100001169680000000000000                              PARACETAMOL 1000MG/100ML(10MG/ML) SOL INY  VIAL X 100ML FRESENIUS KABIVAL     1
CC0000030333787A202100000027577100000027577115/10/20211409    3190333624042196419000011857700001096350000000000000                                                              AGUJA SONOPLEX BLOQUEO 21*100 01185-77BOL     1
CC0000030333787A202100000027577100000027577115/10/20211409    3190333624042196419000000100600000223090000000000000                                                                      AGUJA DESECHABLE 18G X 1 1/2 PSIN     1
CC0000030333787A202100000027577100000027577115/10/20211409    3190333624042196419000020056600001101530000000000000                                                                AGUJA HIPODERMICA DESECH 18G X 1 1/2SOB     1
CC0000030333787A202100000027577100000027577115/10/20211409    3190333624042196419000016830000000970620000000000000                                                             SIST FIJACION CAT PERIFERICO 6.5X7 1683SOB     1
CC0000030333787A202100000027577100000027577115/10/20211409    3190333624042196419000000500600000526900000000000000                                                                          BIOSYN 4/0 P-12 REF SM5627SIN     1
CC0000030333787A202100000027577100000027577115/10/20211409    3190333624042196419000011073300001096420000000000000                                                                BOLSA DE SUCCION DE FLUIDOS x 2500mLBOL     1
CC0000030333787A202100000027577100000027577115/10/20211409    3190333624042196419000031010900000762730000000000000                                                                          CANULA GUEDEL # 4 (100 MM)SOB     1
CC0000030333787A202100000027577100000027577115/10/20211409    3190333624042196419000038568100000258050000000000000                                                                         CANULA OXIGENO NASAL ADULTOSIN     1
CC0000030333787A202100000027577100000027577115/10/20211409    31903336240421964190000Q1AA7200000610630000000000000                                                            CATETER PERIFE INTROCAN # 20G 4251644-04SIN     1
CC0000030333787A202100000027577100000027577115/10/20211409    31903336240421964190000Q1AA7100000610620000000000000                                                            CATETER PERIFE INTROCAN # 18G 4251687-04SIN     1
CC0000030333787A202100000027577100000027577115/10/20211409    3190333624042196419000022425200000548240000000000000                       EXTENSION DE ANESTESIA REF 1139 SOB X 1 SHERLEG  ADULTO BN EXENTO-DC.417/2020SIN     1
CC0000030333787A202100000027577100000027577115/10/20211409    3190333624042196419000011082700001620070000000000000                                                               EQUIPO SET PRIMARIO C/CLAVE REF 14001BOL     1
CC0000030333787A202100000027577100000027577115/10/20211409    3190333624042196419000022426800001140510000000000000                                                                    EQUIPO MACROGOTEO BAXTER MRC0001SOB     2
CC0000030333787A202100000027577100000027577115/10/20211409    3190333624042196419000011099300000777780000000000000                                                                     FILTRO BACTERIANO VIRICO ADULTOBOL     1
CC0000030333787A202100000027577100000027577115/10/20211409    3190333624042196419000042743200003929860000000000000                   GASA ADHESIVA STRETCH REF 02038-00 ROL X 10MT FIXOMULL 15CM BN EXENTO-DC.417/2020CMT    40
CC0000030333787A202100000027577100000027577115/10/20211409    3190333624042196419000053074400000607910000000000000                                                               GASA ESTERIL 10*10 SOBRE X 3 UNIDADESSOB     5
CC0000030333787A202100000027577100000027577115/10/20211409    3190333624042196419000013077800000471960000000000000                                                             GASA NO TEJIDA EST 7.5 X 7.5 SOB X 3 UNSOB     1
CC0000030333787A202100000027577100000027577115/10/20211409    3190333624042196419000011085200001585390000000000000                                                                       GUANTE QUIRURGICO TALLA 7 1/2SOB     2
CC0000030333787A202100000027577100000027577115/10/20211409    3190333624042196419000011085100001082120000000000000                                                                           GUANTE QUIRURGICO TALLA 7SOB     3
CC0000030333787A202100000027577100000027577115/10/20211409    3190333624042196419000011085300001082140000000000000                                                                           GUANTE QUIRURGICO TALLA 8SOB     2
CC0000030333787A202100000027577100000027577115/10/20211409    3190333624042196419000043485100001618510000000000000                GUANTE QUIRURGICO DE LATEX REF 2D72N65X CAJ X 50 PROTEXIS  6.5 BN EXENTO-DC.417/2020SOB     2
CC0000030333787A202100000027577100000027577115/10/20211409    3190333624042196419000043879100001138200000000000000                                                                  HOJA BISTURI # 15 CSSB 15 01002003SOB     1
CC0000030333787A202100000027577100000027577115/10/20211409    3190333624042196419000024673600000222980000000000000                                                                     JERINGA DESECHABLE 5 ml 27*11/2SIN     2
CC0000030333787A202100000027577100000027577115/10/20211409    3190333624042196419000024674000000220660000000000000                             JERINGA A 3 PARTES CON AGUJA  SOB X 1 RYMCO  10ML BN EXENTO-DC.417/2020SIN     5
CC0000030333787A202100000027577100000027577115/10/20211409    3190333624042196419000024674500000322810000000000000                                                                   JERINGA DESECHABLE 20 ml 21*1 1/2SIN     2
CC0000030333787A202100000027577100000027577115/10/20211409    3190333624042196419000045138000001413890000000000000                                                                       LAPIZ ELECTROBISTURI  SOB X 1SOB     1
CC0000030333787A202100000027577100000027577115/10/20211409    3190333624042196419000045303700000232420000000000000                                                                       LIGACLIP SMALL LT100 AZUL X 6SOB     1
CC0000030333787A202100000027577100000027577115/10/20211409    3190333624042196419000035356500003919000000000000000                                                                                        LLAVE 3 VIASSOB     2
CC0000030333787A202100000027577100000027577115/10/20211409    3190333624042196419000051515500000598160000000000000                                                                            MASCARILLA ANESTESIA # 5SIN     1
CC0000030333787A202100000027577100000027577115/10/20211409    3190333624042196419000020750600000296780000000000000                                                                PLACA ELECTRO RETORNO PACIENTE E7506SIN     1
CC0000030333787A202100000027577100000027577115/10/20211409    3190333624042196419000018610600000607940000000000000                                                               SENSOR ADULTO XP MONITOR 006-186-0106SIN     1
CC0000030333787A202100000027577100000027577115/10/20211409    3190333624042196419000038568600000256960000000000000                                                                                   SONDA NELATON #14SIN     1
CC0000030333787A202100000027577100000027577115/10/20211409    3190333624042196419000000503900000296270000000000000                                                                  SUTURA POLYSORB 3-0 75CM V20 GL122SIN     1
CC0000030333787A202100000027577100000027577115/10/20211409    3190333624042196419000018351100000232850000000000000                                                                                 SEDA 2-0 SC-26 185TSIN     1
CC0000030333787A202100000027577100000027577115/10/20211409    3190333624042196419000039175000001072050000000000000                                                                           TUBO ENDOTRAQUEAL C/B 7.0SOB     1
CC0000030333787A202100000027577100000027577115/10/20211409    3190333624042196419000030161400001459220000000000000                                                                       MANGUERA SUCCION 6 MM*3.1 MTSSOB     1
