TI0001042265795H202100000554306400000554306409/10/20210754     3300004237421964250000A04A1300001335720000000000000                                                                                      ONDAX TAB 4 MGTAB     5
TI0001042265795H202100000554306400000554306409/10/20210925    31903294237421964250000E1AC0100000199400000000000000                                                                          SUERO MIXTO Sln Iny 500 mlBIN     2
TI0001042265795H202100000554306400000554306409/10/20210613    31500268237421964250000E1AC0100000199400000000000000                                                                          SUERO MIXTO Sln Iny 500 mlBIN     1
TI0001042265795H202100000554306400000554306409/10/20210613    31500268237421964250000E1AB0200000199290000000000000                                                            SOLUCION SALINA 0.9% SLN INY BO X 100 MLBIN     1
TI0001042265795H202100000554306400000554306409/10/20210000    31903028237421964250000E1AB0200000199290000000000000                                                            SOLUCION SALINA 0.9% SLN INY BO X 100 MLBIN     2
TI0001042265795H202100000554306400000554306409/10/20211444    31903153237421964250000E1AB0700003888350000000000000                                                            SOLUCION SALINA 0.9% SLN INY BO X 250 MLBOL     1
TI0001042265795H202100000554306400000554306409/10/20211444    31903153237421964250000E1AB0300003888390000000000000                                                            SOLUCION SALINA 0.9% SLN INY BO X 500 MLBOL     1
TI0001042265795H202100000554306400000554306409/10/20210756     3300004237421964250000A12CA200001239800000000000000                     BICARBONATO SODIO 10MEQ/10ML(1MEQ/ML) SOL INY  CAJ X 100AMPX10ML FRESENIUS KABIAMP     8
TI0001042265795H202100000554306400000554306409/10/20210756     3300004237421964250000A12CA100001109460000000000000                                                              CLORURO SODIO SLN INY 2 MEQ/ML X 10 MLAMP     7
TI0001042265795H202100000554306400000554306409/10/20210756     3300004237421964250000L2BA0500001335980000000000000                                                                                PURINETHOL Tab 50 mgTAB     9
TI0001042265795H202100000554306400000554306409/10/20210755     3300004237421964250000L2BA0500001335980000000000000                                                                                PURINETHOL Tab 50 mgTAB    14
TI0001042265795H202100000554306400000554306409/10/20210754     3300004237421964250000L2BA0500001335980000000000000                                                                                PURINETHOL Tab 50 mgTAB     2
TI0001042265795H202100000554306400000554306409/10/20211020     3300009237421964250000L04AX20PENDIENTE0000000000000                                                              METOTREXATO SLN INY 500 MG X 20 ML /R/VAL     3
TI0001042265795H202100000554306400000554306409/10/20211019     3300009237421964250000L04AX20PENDIENTE0000000000000                                                              METOTREXATO SLN INY 500 MG X 20 ML /R/VAL     1
TI0001042265795H202100000554306400000554306409/10/20210756     3300004237421964250000C03C0100001672000000000000000                                                                       FUROSEMIDA SLN INY 20 MG/2 MLAMP     1
TI0001042265795H202100000554306400000554306409/10/20210925    31903294237421964250000V07A1300000502600000000000000                                                                                AGUA ESTERIL x 10 mlAMP     5
