PE908881013121987U202100050131237400050131237415/10/20212227    3190315823942196432000001956000001620610000000000000                                                                      CONECTOR MICRO CLAVE LAT-MC100SOB     1
PE908881013121987U202100050131237400050131237415/10/20212227    3190315823942196432000016830000000970620000000000000                                                             SIST FIJACION CAT PERIFERICO 6.5X7 1683SOB     1
PE908881013121987U202100050131237400050131237415/10/20212227    31903158239421964320000Q1AA7200000610630000000000000                                                            CATETER PERIFE INTROCAN # 20G 4251644-04SIN     1
PE908881013121987U202100050131237400050131237415/10/20212227    3190315823942196432000011082700001620070000000000000                                                               EQUIPO SET PRIMARIO C/CLAVE REF 14001BOL     1
