CC0000022362807H202100015112739700015112739705/12/20212308    3190305923742196425000018351500000232840000000000000                                                                                    SEDA 2-0 KS 623HSIN     1
CC0000022362807H202100015112739700015112739705/12/20212308    3190305923742196425000043879200001138180000000000000                                                                                   HOJA BISTURI # 11SOB     1
CC0000019773143H202100015112739700015112739705/12/20212308    3190305923742196425000001956000001620610000000000000                                                                      CONECTOR MICRO CLAVE LAT-MC100SOB     1
CC0000022362807H202100015112739700015112739705/12/20212308    3190305923742196425000001956000001620610000000000000                                                                      CONECTOR MICRO CLAVE LAT-MC100SOB     3
CC0000022362807H202100015112739700015112739705/12/20212308    3190305923742196425000000301900000227730000000000000                                                               CATETER TRILUMEN AD CS14703E 7FR*30CMSIN     1
CC0000019773143H202100015112739700015112739705/12/20212308    31903059237421964250000Q1AA7200000610630000000000000                                                            CATETER PERIFE INTROCAN # 20G 4251644-04SIN     2
CC0000022362807H202100015112739700015112739705/12/20212308    3190305923742196425000000602700001197200000000000000                                                              APOSITO TRANSP  1655 IV 8.5CM X 11.5CMSOB     1
CC0000019773143H202100015112739700015112739705/12/20212308    3190305923742196425000016830000000970620000000000000                                                             SIST FIJACION CAT PERIFERICO 6.5X7 1683SOB     1
