CC0000003710447H202100000556592300000556592305/12/20211638     3300010237421964250000A2BX0100001277280000000000000                                                                                ALSUCRAL TAB 1 G /R/TAB     3
CC0000003710447H202100000556592300000556592305/12/20210856     3300009237421964250000A6AG0100001107060000000000000                                                            ENEMA RECTAL FOSTATO SODIO BO X 133ML /RBOL     1
CC0000003710447H202100000556592300000556592305/12/20210856     3300009237421964250000A06A1000001107070000000000000                                                                          TRAVAD SLN ORAL 133 ML /R/FCO     1
CC0000003710447H202100000556592300000556592305/12/20211231    31903290237421964250000V07A1300000502600000000000000                                                                                AGUA ESTERIL x 10 mlAMP     3
