CC0001042439975H202100015052802900015052802905/12/20211615    3150038323742196425000001956000001620610000000000000                                                                      CONECTOR MICRO CLAVE LAT-MC100SOB     1
CC0001051681679H202100015052802900015052802905/12/20211615    31500383237421964250000E1AB0300003888390000000000000                                                            SOLUCION SALINA 0.9% SLN INY BO X 500 MLBOL     1
CC0000032889993H202100015052802900015052802905/12/20211615    31500383237421964250000E1AB0300003888390000000000000                                                            SOLUCION SALINA 0.9% SLN INY BO X 500 MLBOL     1
RC0001102897681H202100015052802900015052802905/12/20211615    31500383237421964250000E1AB0300003888390000000000000                                                            SOLUCION SALINA 0.9% SLN INY BO X 500 MLBOL     1
TI0001052085478H202100015052802900015052802905/12/20211615    31500383237421964250000E1AB0300003888390000000000000                                                            SOLUCION SALINA 0.9% SLN INY BO X 500 MLBOL     1
TI0001047050967H202100015052802900015052802905/12/20211615    31500383237421964250000E1AB0300003888390000000000000                                                            SOLUCION SALINA 0.9% SLN INY BO X 500 MLBOL     1
CC0000032753507H202100015052802900015052802905/12/20211615    31500383237421964250000E1AB0300003888390000000000000                                                            SOLUCION SALINA 0.9% SLN INY BO X 500 MLBOL     1
CC0000022406887H202100015052802900015052802905/12/20211615    31500383237421964250000E1AB0300003888390000000000000                                                            SOLUCION SALINA 0.9% SLN INY BO X 500 MLBOL     1
CC0001042439975H202100015052802900015052802905/12/20211615    31500383237421964250000E1AB0300003888390000000000000                                                            SOLUCION SALINA 0.9% SLN INY BO X 500 MLBOL     1
