CC0000022596813H202100015112737500015112737505/12/20210042    3190182723742196425000038573100000256880000000000000                                                                                 SONDA NSG LEVIN #18SIN     1
CC0000022596813H202100015112737500015112737505/12/20210042    3190182723742196425000038573000000256870000000000000                                                                                 SONDA NSG LEVIN #16SIN     1
CC0000022362807H202100015112737500015112737505/12/20210042    3190182723742196425000024674000001138340000000000000   JERINGA 3PARTES C/A 10ML REF JEHL005 CAJ X 100 ALFASAFE  21GX1 PULG 1/2 PULG BN EXENTO-DC.417/202PZA    15
CC0000022596813H202100015112737500015112737505/12/20210042    31901827237421964250000Q1A13500001585200000000000000                        JERINGA PUNTA CAT SIN AGUJA REF 309620 CAJ X 40   50ML BN EXENTO-DC.417/2020SOB     1
CC0000022596813H202100015112737500015112737505/12/20210042    3190182723742196425000031188000000236790000000000000                                                                                     CISTOFLO ADULTOSIN     1
