CC0001140839787H202100015112737900015112737905/12/20210939    31500387237421964250000V07A1300000502600000000000000                                                                                AGUA ESTERIL x 10 mlAMP     8
CC0001143115935H202100015112737900015112737905/12/20210939    31500387237421964250000V07A1300000502600000000000000                                                                                AGUA ESTERIL x 10 mlAMP     8
CC0000007452098H202100015112737900015112737905/12/20210939    31500387237421964250000V07A1300000502600000000000000                                                                                AGUA ESTERIL x 10 mlAMP     8
CC0001140839787H202100015112737900015112737905/12/20210939    3150038723742196425000045136100001419300000000000000                                                                            LANCETA DEXTROMETER X UNPZA     2
CC0001143115935H202100015112737900015112737905/12/20210939    3150038723742196425000045136100001419300000000000000                                                                            LANCETA DEXTROMETER X UNPZA     2
CC0000007452098H202100015112737900015112737905/12/20210939    3150038723742196425000045136100001419300000000000000                                                                            LANCETA DEXTROMETER X UNPZA     2
CC0001140839787H202100015112737900015112737905/12/20210939    3150038723742196425000024674000001138340000000000000   JERINGA 3PARTES C/A 10ML REF JEHL005 CAJ X 100 ALFASAFE  21GX1 PULG 1/2 PULG BN EXENTO-DC.417/202PZA     8
CC0001143115935H202100015112737900015112737905/12/20210939    3150038723742196425000024674000001138340000000000000   JERINGA 3PARTES C/A 10ML REF JEHL005 CAJ X 100 ALFASAFE  21GX1 PULG 1/2 PULG BN EXENTO-DC.417/202PZA     8
CC0000007452098H202100015112737900015112737905/12/20210939    3150038723742196425000024674000001138340000000000000   JERINGA 3PARTES C/A 10ML REF JEHL005 CAJ X 100 ALFASAFE  21GX1 PULG 1/2 PULG BN EXENTO-DC.417/202PZA     8
CC0001140839787H202100015112737900015112737905/12/20210939    3150038723742196425000020056600001101530000000000000                                                                AGUJA HIPODERMICA DESECH 18G X 1 1/2SOB     8
CC0001143115935H202100015112737900015112737905/12/20210939    3150038723742196425000020056600001101530000000000000                                                                AGUJA HIPODERMICA DESECH 18G X 1 1/2SOB     8
CC0000007452098H202100015112737900015112737905/12/20210939    3150038723742196425000020056600001101530000000000000                                                                AGUJA HIPODERMICA DESECH 18G X 1 1/2SOB     8
CC0001143115935H202100015112737900015112737905/12/20210939    31500387237421964250000B05B1400001012740000000000000                                                                SOLUCION SALINA 0.45% Sln Iny 500 mlBOL     6
CC0001140839787H202100015112737900015112737905/12/20210939    31500387237421964250000E1AD0300000199490000000000000                                         LACTATO RINGER USP (HARTMANN)  SOL INY  BOL X 1000ML BAXTERBIN     1
CC0000007452098H202100015112737900015112737905/12/20210939    31500387237421964250000E1AD0300000199490000000000000                                         LACTATO RINGER USP (HARTMANN)  SOL INY  BOL X 1000ML BAXTERBIN     1
CC0001140839787H202100015112737900015112737905/12/20210939    31500387237421964250000E1AB0700003888350000000000000                                                            SOLUCION SALINA 0.9% SLN INY BO X 250 MLBOL     1
CC0001140839787H202100015112737900015112737905/12/20210939    31500387237421964250000E1AB0200000199290000000000000                                                            SOLUCION SALINA 0.9% SLN INY BO X 100 MLBIN     4
CC0001140839787H202100015112737900015112737905/12/20210939    3150038723742196425000011137100001419310000000000000                                                               TIRA GLUCOMETRIA FREESTYLE H OPTIUM .PZA     2
CC0001143115935H202100015112737900015112737905/12/20210939    3150038723742196425000011137100001419310000000000000                                                               TIRA GLUCOMETRIA FREESTYLE H OPTIUM .PZA     2
CC0000007452098H202100015112737900015112737905/12/20210939    3150038723742196425000011137100001419310000000000000                                                               TIRA GLUCOMETRIA FREESTYLE H OPTIUM .PZA     2
