RC0001043033404H202100015122547000015122547005/12/20210204    3190315723742196425000063153700001294640000000000000                                                            CIRCUITO TERAPIA ALTO FLUJO PEDIAT RT330PZA     1
RC0001043033404H202100015122547000015122547005/12/20210204    3190315723742196425000001200900001294660000000000000                                                                CANULA NASAL PED REF OPT318 OPTIFLOWPZA     1
RC0001043033404H202100015122547000015122547005/12/20210204    31903157237421964250000B05B1400001012740000000000000                                                                SOLUCION SALINA 0.45% Sln Iny 500 mlBOL     1
TI0001016596456H202100015122547000015122547005/12/20210204    3190315723742196425000011155200001287650000000000000                                                            CANULA ALTO FLUJO PREMATURO REF EQ-10016PZA     1
