RC0001044671776H202100000556582100000556582105/12/20211743     330001023742196425000011808300000218190000000000000                                                   DORMICUM IV 50MG/10ML(5MG/ML) SOL INY  CAJ X 5AMPAMP     1
RC0001044671776H202100000556582100000556582105/12/20211251    31903307237421964250000E1AC0100000199400000000000000                                                                          SUERO MIXTO Sln Iny 500 mlBIN     1
RC0001044671776H202100000556582100000556582105/12/20211251    31903307237421964250000E1AB1100003888280000000000000                                                                        SOLUCION SALINA 0.9% X 50 mlBOL     2
RC0001044671776H202100000556582100000556582105/12/20211440    31500528237421964250000E1AB0200000199290000000000000                                                            SOLUCION SALINA 0.9% SLN INY BO X 100 MLBIN     1
RC0001044671776H202100000556582100000556582105/12/20211251    31903307237421964250000E1AB0700003888350000000000000                                                            SOLUCION SALINA 0.9% SLN INY BO X 250 MLBOL     1
RC0001044671776H202100000556582100000556582105/12/20211643     3300010237421964250000N03AG200001590870000000000000                                                            PROVALNOVA SLN INY 100MG/ML VIALX5ML /R/VAL     1
RC0001044671776H202100000556582100000556582105/12/20210636     3300009237421964250000N03AG200001590870000000000000                                                            PROVALNOVA SLN INY 100MG/ML VIALX5ML /R/VAL     1
RC0001044671776H202100000556582100000556582105/12/20210112     3300009237421964250000N03AG200001590870000000000000                                                            PROVALNOVA SLN INY 100MG/ML VIALX5ML /R/VAL     1
RC0001044671776H202100000556582100000556582105/12/20211643     3300010237421964250000N03AX200001063780000000000000                                                                      KEPPRA SLN INY 500 MG/5 ML /R/VAL     1
RC0001044671776H202100000556582100000556582105/12/20210112     3300009237421964250000N03AX200001063780000000000000                                                                      KEPPRA SLN INY 500 MG/5 ML /R/VAL     1
RC0001044671776H202100000556582100000556582105/12/20211653     3300010237421964250000N02A0800001680530000000000000                                                                                 METHADOSE Tab 10 mgTAB     1
RC0001044671776H202100000556582100000556582105/12/20210636     3300009237421964250000N02A0800001680530000000000000                                                                                 METHADOSE Tab 10 mgTAB     1
RC0001044671776H202100000556582100000556582105/12/20211643     3300010237421964250000C03C0100001672000000000000000                                                                       FUROSEMIDA SLN INY 20 MG/2 MLAMP     1
RC0001044671776H202100000556582100000556582105/12/20211643     3300010237421964250000J1KF0500001317760000000000000                                                                      MEROPENEM POLVO INY 500 MG /R/CAJ     1
RC0001044671776H202100000556582100000556582105/12/20210636     3300009237421964250000J1KF0500001317760000000000000                                                                      MEROPENEM POLVO INY 500 MG /R/CAJ     1
RC0001044671776H202100000556582100000556582105/12/20210112     3300009237421964250000J1KF0500001317760000000000000                                                                      MEROPENEM POLVO INY 500 MG /R/CAJ     1
RC0001044671776H202100000556582100000556582105/12/20211823     3300010237421964250000J02AC100000553180000000000000                                                                   FLUCONAZOL SLN INY 200 MG/ 100 MLFCO     1
RC0001044671776H202100000556582100000556582105/12/20210112     3300009237421964250000J02AC100000553180000000000000                                                                   FLUCONAZOL SLN INY 200 MG/ 100 MLFCO     1
RC0001044671776H202100000556582100000556582105/12/20212309     3300004237421964250000N2BB0100001672010000000000000                                  DIPIRONA 1GR/2ML(0.5GR/ML) SOL INY INST CAJ X 100AMP X 2ML VITALISAMP     1
RC0001044671776H202100000556582100000556582105/12/20211643     3300010237421964250000N2BB0100001672010000000000000                                  DIPIRONA 1GR/2ML(0.5GR/ML) SOL INY INST CAJ X 100AMP X 2ML VITALISAMP     1
RC0001044671776H202100000556582100000556582105/12/20210636     3300009237421964250000N2BB0100001672010000000000000                                  DIPIRONA 1GR/2ML(0.5GR/ML) SOL INY INST CAJ X 100AMP X 2ML VITALISAMP     1
RC0001044671776H202100000556582100000556582105/12/20210112     3300009237421964250000N2BB0100001672010000000000000                                  DIPIRONA 1GR/2ML(0.5GR/ML) SOL INY INST CAJ X 100AMP X 2ML VITALISAMP     1
RC0001044671776H202100000556582100000556582105/12/20211643     3300010237421964250000A02BC700001684270000000000000                                                            OMEPRAZOL 40MG POLVO LIOFILIZADO AMPOLLAVAL     1
