CC0001001193441U202100050131925400050131925405/12/20211151    3150024623942196432000024673600000222980000000000000                                                                     JERINGA DESECHABLE 5 ml 27*11/2SIN     3
CC0001001193441U202100050131925400050131925405/12/20211151    3150024623942196432000011082700001620070000000000000                                                               EQUIPO SET PRIMARIO C/CLAVE REF 14001BOL     1
CC0001001193441U202100050131925400050131925405/12/20211151    31500246239421964320000Q1AA7200000610630000000000000                                                            CATETER PERIFE INTROCAN # 20G 4251644-04SIN     1
CC0001001193441U202100050131925400050131925405/12/20211151    3150024623942196432000030936900001431840000000000000                                                                                              BURETABOL     1
CC0001001193441U202100050131925400050131925405/12/20211151    3150024623942196432000016830000000970620000000000000                                                             SIST FIJACION CAT PERIFERICO 6.5X7 1683SOB     1
CC0001001193441U202100050131925400050131925405/12/20211151    31500246239421964320000E1AD0300000199490000000000000                                         LACTATO RINGER USP (HARTMANN)  SOL INY  BOL X 1000ML BAXTERBIN     1
