MS0010053369121H202100015132528800015132528805/12/20210946    3190330223742196425000018354100000232880000000000000                                                                  SUTURA SEDA NEGRA 3-0 KS 75CM 622HSIN     1
MS0010053369121H202100015132528800015132528805/12/20210946    3190330223742196425000011060500000225410000000000000                                                                   SET PERFUSOR SECURA FT 50ML OPACOCAJ     1
MS0011408397871H202100015132528800015132528805/12/20210946    3190330223742196425000035356500003919000000000000000                                                                                        LLAVE 3 VIASSOB     2
MS0010053369121H202100015132528800015132528805/12/20210946    3190330223742196425000035356500003919000000000000000                                                                                        LLAVE 3 VIASSOB     2
MS0011408397871H202100015132528800015132528805/12/20210946    3190330223742196425000036441300000236540000000000000                                                                    JERINGA 1 ML GASES ARTERIAL 9023SIN     2
MS0010053369121H202100015132528800015132528805/12/20210946    3190330223742196425000036441300000236540000000000000                                                                    JERINGA 1 ML GASES ARTERIAL 9023SIN     2
RC0001044436459H202100015132528800015132528805/12/20210946    3190330223742196425000024673000001411210000000000000                                                                  JERINGA DESECHABLE 3 ML 21 X 1 1/2SOB     3
RC0001048091909H202100015132528800015132528805/12/20210946    3190330223742196425000024673000001411210000000000000                                                                  JERINGA DESECHABLE 3 ML 21 X 1 1/2SOB     3
RC0001146846680H202100015132528800015132528805/12/20210946    3190330223742196425000024673000001411210000000000000                                                                  JERINGA DESECHABLE 3 ML 21 X 1 1/2SOB     2
RC0001146546681H202100015132528800015132528805/12/20210946    3190330223742196425000024673000001411210000000000000                                                                  JERINGA DESECHABLE 3 ML 21 X 1 1/2SOB     3
RC0001194984572H202100015132528800015132528805/12/20210946    3190330223742196425000024673000001411210000000000000                                                                  JERINGA DESECHABLE 3 ML 21 X 1 1/2SOB     3
RC0001143474190H202100015132528800015132528805/12/20210946    3190330223742196425000024673000001411210000000000000                                                                  JERINGA DESECHABLE 3 ML 21 X 1 1/2SOB     3
RC0001044236218H202100015132528800015132528805/12/20210946    3190330223742196425000024673000001411210000000000000                                                                  JERINGA DESECHABLE 3 ML 21 X 1 1/2SOB     3
RC0001143474189H202100015132528800015132528805/12/20210946    3190330223742196425000024673000001411210000000000000                                                                  JERINGA DESECHABLE 3 ML 21 X 1 1/2SOB     3
RC0001048091952H202100015132528800015132528805/12/20210946    3190330223742196425000024673000001411210000000000000                                                                  JERINGA DESECHABLE 3 ML 21 X 1 1/2SOB     3
RC0001044436459H202100015132528800015132528805/12/20210946    3190330223742196425000024674000001138340000000000000   JERINGA 3PARTES C/A 10ML REF JEHL005 CAJ X 100 ALFASAFE  21GX1 PULG 1/2 PULG BN EXENTO-DC.417/202PZA     5
RC0001048091909H202100015132528800015132528805/12/20210946    3190330223742196425000024674000001138340000000000000   JERINGA 3PARTES C/A 10ML REF JEHL005 CAJ X 100 ALFASAFE  21GX1 PULG 1/2 PULG BN EXENTO-DC.417/202PZA     5
RC0001146846680H202100015132528800015132528805/12/20210946    3190330223742196425000024674000001138340000000000000   JERINGA 3PARTES C/A 10ML REF JEHL005 CAJ X 100 ALFASAFE  21GX1 PULG 1/2 PULG BN EXENTO-DC.417/202PZA     5
RC0001194984572H202100015132528800015132528805/12/20210946    3190330223742196425000024674000001138340000000000000   JERINGA 3PARTES C/A 10ML REF JEHL005 CAJ X 100 ALFASAFE  21GX1 PULG 1/2 PULG BN EXENTO-DC.417/202PZA     5
MS0010053369121H202100015132528800015132528805/12/20210946    3190330223742196425000024674000001138340000000000000   JERINGA 3PARTES C/A 10ML REF JEHL005 CAJ X 100 ALFASAFE  21GX1 PULG 1/2 PULG BN EXENTO-DC.417/202PZA     3
RC0001047065603H202100015132528800015132528805/12/20210946    3190330223742196425000024674000001138340000000000000   JERINGA 3PARTES C/A 10ML REF JEHL005 CAJ X 100 ALFASAFE  21GX1 PULG 1/2 PULG BN EXENTO-DC.417/202PZA     5
RC0001047065574H202100015132528800015132528805/12/20210946    3190330223742196425000024674000001138340000000000000   JERINGA 3PARTES C/A 10ML REF JEHL005 CAJ X 100 ALFASAFE  21GX1 PULG 1/2 PULG BN EXENTO-DC.417/202PZA     5
MS0010053369121H202100015132528800015132528805/12/20210946    3190330223742196425000043879100001138200000000000000                                                                  HOJA BISTURI # 15 CSSB 15 01002003SOB     1
MS0011408397871H202100015132528800015132528805/12/20210946    3190330223742196425000043485100001618510000000000000                GUANTE QUIRURGICO DE LATEX REF 2D72N65X CAJ X 50 PROTEXIS  6.5 BN EXENTO-DC.417/2020SOB     4
MS0010053369121H202100015132528800015132528805/12/20210946    3190330223742196425000043485100001618510000000000000                GUANTE QUIRURGICO DE LATEX REF 2D72N65X CAJ X 50 PROTEXIS  6.5 BN EXENTO-DC.417/2020SOB     4
RC0001044236218H202100015132528800015132528805/12/20210946    3190330223742196425000043485100001618510000000000000                GUANTE QUIRURGICO DE LATEX REF 2D72N65X CAJ X 50 PROTEXIS  6.5 BN EXENTO-DC.417/2020SOB     4
RC0001044236218H202100015132528800015132528805/12/20210946    3190330223742196425000011085100001082120000000000000                                                                           GUANTE QUIRURGICO TALLA 7SOB     4
MS0011408397871H202100015132528800015132528805/12/20210946    3190330223742196425000013077800000471960000000000000                                                             GASA NO TEJIDA EST 7.5 X 7.5 SOB X 3 UNSOB     8
MS0011408397871H202100015132528800015132528805/12/20210946    3190330223742196425000011082700001620070000000000000                                                               EQUIPO SET PRIMARIO C/CLAVE REF 14001BOL     1
MS0010053369121H202100015132528800015132528805/12/20210946    3190330223742196425000011082700001620070000000000000                                                               EQUIPO SET PRIMARIO C/CLAVE REF 14001BOL     1
MS0010053369121H202100015132528800015132528805/12/20210946    3190330223742196425000001956000001620610000000000000                                                                      CONECTOR MICRO CLAVE LAT-MC100SOB     1
MS0010053369121H202100015132528800015132528805/12/20210946    31903302237421964250000Q1AA0300000513160000000000000                                                                       CATETER UMBILICAL FG 5 270.05SIN     2
MS0011408397871H202100015132528800015132528805/12/20210946    3190330223742196425000000602600001259280000000000000                                                             APOSITO TEGADERM IV PD 1610 5CM X 5.7CMSOB     1
MS0010053369121H202100015132528800015132528805/12/20210946    3190330223742196425000000602600001259280000000000000                                                             APOSITO TEGADERM IV PD 1610 5CM X 5.7CMSOB     2
MS0010053369121H202100015132528800015132528805/12/20210946    31903302237421964250000E1AA1400003888550000000000000                                                                         DEXTROSA 10% SLN INY 250 MLBOL     2
RC0001044436459H202100015132528800015132528805/12/20210946    31903302237421964250000E1AB0700003888350000000000000                                                            SOLUCION SALINA 0.9% SLN INY BO X 250 MLBOL     1
MS0010053369121H202100015132528800015132528805/12/20210946    31903302237421964250000E1AB0700003888350000000000000                                                            SOLUCION SALINA 0.9% SLN INY BO X 250 MLBOL     1
