CC0000016200301H202100918969120500918969120505/12/20210033    3190063023742196425000013077800000471960000000000000                                                             GASA NO TEJIDA EST 7.5 X 7.5 SOB X 3 UNSOB    20
CC0000016200301H202100918969120500918969120505/12/20210033    3190063023742196425000040185000001571620000000000000                                                                         APOSITO AQUACEL AG 15X15 CMSOB     3
CC0000016200301H202100918969120500918969120505/12/20210033    3190063023742196425000042743200003929860000000000000                   GASA ADHESIVA STRETCH REF 02038-00 ROL X 10MT FIXOMULL 15CM BN EXENTO-DC.417/2020CMT   100
CC0000016200301H202100918969120500918969120505/12/20210033    31900630237421964250000E1BA0100000198890000000000000                                                                   AGUA ESTERIL USP SLN INY X 500 MLBIN     2
CC0000016200301H202100918969120500918969120505/12/20211223    3190330823742196425000024674000001138340000000000000   JERINGA 3PARTES C/A 10ML REF JEHL005 CAJ X 100 ALFASAFE  21GX1 PULG 1/2 PULG BN EXENTO-DC.417/202PZA     8
CC0000016200301H202100918969120500918969120505/12/20211223    31903308237421964250000V07A1300000502600000000000000                                                                                AGUA ESTERIL x 10 mlAMP     8
