CC0000032862180H202100015032649100015032649105/12/20211557    3190297723742196425000022426800001140510000000000000                                                                    EQUIPO MACROGOTEO BAXTER MRC0001SOB     1
CC0000032862180H202100015032649100015032649105/12/20211557    3190297723742196425000030936900001431840000000000000                                                                                              BURETABOL     1
CC0000032862180H202100015032649100015032649105/12/20211557    31902977237421964250000E1AB0300003888390000000000000                                                            SOLUCION SALINA 0.9% SLN INY BO X 500 MLBOL     2
CC0000032862180H202100015032649100015032649105/12/20211557    31902977237421964250000E1AC0100000199400000000000000                                                                          SUERO MIXTO Sln Iny 500 mlBIN     2
