CC0000016200301H202100015022562600015022562605/12/20212045    3190220223742196425000011082700001620070000000000000                                                               EQUIPO SET PRIMARIO C/CLAVE REF 14001BOL     1
CC0000012576309H202100015022562600015022562605/12/20212045    3190220223742196425000011082700001620070000000000000                                                               EQUIPO SET PRIMARIO C/CLAVE REF 14001BOL     1
CC0000007403900H202100015022562600015022562605/12/20212045    3190220223742196425000011082700001620070000000000000                                                               EQUIPO SET PRIMARIO C/CLAVE REF 14001BOL     1
CC0000016200301H202100015022562600015022562605/12/20212045    3190220223742196425000001956000001620610000000000000                                                                      CONECTOR MICRO CLAVE LAT-MC100SOB     1
CC0000016200301H202100015022562600015022562605/12/20212045    31902202237421964250000Q1AA7300000610640000000000000                                                            CATETER PERIFE INTROCAN # 22G 4251628-04SIN     2
CC0000016200301H202100015022562600015022562605/12/20212045    3190220223742196425000030936900001431840000000000000                                                                                              BURETABOL     1
CC0000012576309H202100015022562600015022562605/12/20212045    3190220223742196425000030936900001431840000000000000                                                                                              BURETABOL     1
CC0000007403900H202100015022562600015022562605/12/20212045    3190220223742196425000030936900001431840000000000000                                                                                              BURETABOL     1
CC0000016200301H202100015022562600015022562605/12/20212045    3190220223742196425000016830000000970620000000000000                                                             SIST FIJACION CAT PERIFERICO 6.5X7 1683SOB     1
CC0000011312131H202100015022562600015022562605/12/20212045    31902202237421964250000E1AD0300000199490000000000000                                         LACTATO RINGER USP (HARTMANN)  SOL INY  BOL X 1000ML BAXTERBIN     1
CC0000022358936H202100015022562600015022562605/12/20212045    31902202237421964250000E1AD0300000199490000000000000                                         LACTATO RINGER USP (HARTMANN)  SOL INY  BOL X 1000ML BAXTERBIN     1
CC0000012576309H202100015022562600015022562605/12/20212045    31902202237421964250000E1AD0300000199490000000000000                                         LACTATO RINGER USP (HARTMANN)  SOL INY  BOL X 1000ML BAXTERBIN     1
