CC0000000813331H202100000556606900000556606905/12/20212110     3300004237421964250000A2BX0100001277280000000000000                                                                                ALSUCRAL TAB 1 G /R/TAB     1
CC0000000813331H202100000556606900000556606905/12/20212110     3300004237421964250000J1CB1800001134180000000000000                                                                             TAZOCIN Polvo Iny 4.5 gVAL     3
CC0000000813331H202100000556606900000556606905/12/20212110     3300004237421964250000N02B1100001464120000000000000                                           PARACETAMOL EP 1000MG/100ML(10MG/ML) SOL INY  CAJ X 10FCOVAL     1
