CC0000007403900H202100000556582900000556582905/12/20210850     3300009237421964250000A02B0600001277230000000000000                                                                                NEXIUM Tab 40 mg /R/TAB     1
CC0000007403900H202100000556582900000556582905/12/20210850     3300009237421964250000C3DA0600001334560000000000000                                                                               GLUCOPHAGE Tab 500 mgTAB     2
CC0000007403900H202100000556582900000556582905/12/20210128     3300009237421964250000C3DA0600001334560000000000000                                                                               GLUCOPHAGE Tab 500 mgTAB     2
CC0000007403900H202100000556582900000556582905/12/20211713     3300010237421964250000A10B1600001336910000000000000                                                                               TRAYENTA TAB 5 MG /R/TAB     1
CC0000007403900H202100000556582900000556582905/12/20211713     3300010237421964250000B1AB0200003939510000000000000                 ENOXAPARINA SODICA 40MG/0.4ML(100MG/ML) SOL INY INST CAJ X 2JERPREL X 0.4ML TECHDOWJRP     1
CC0000007403900H202100000556582900000556582905/12/20210850     3300009237421964250000B3BB0100001351190000000000000                                                                               ACIDO FOLICO Tab 1 mgTAB     1
CC0000007403900H202100000556582900000556582905/12/20210850     3300009237421964250000B03A0100001336630000000000000                                                                          SULFATO FERROSO Tab 200 mgTAB     1
CC0000007403900H202100000556582900000556582905/12/20210128     3300009237421964250000C7AB0700001333100000000000000                                                                           BETOPROLOL TAB 100 MG /R/TAB     1
CC0000007403900H202100000556582900000556582905/12/20210850     3300009237421964250000C7FA0200001277980000000000000                                                                                    NORVAS TAB 10 MGTAB     1
CC0000007403900H202100000556582900000556582905/12/20210850     3300009237421964250000B4AD0700001277600000000000000                                                                                   LIPITOR TAB 20 MGTAB     1
CC0000007403900H202100000556582900000556582905/12/20210850     3300009237421964250000G4AC0200001304310000000000000                                                                             MACRODANTINA CAP 100 MGCAP     1
CC0000007403900H202100000556582900000556582905/12/20210131     3300009237421964250000G4AC0200001304310000000000000                                                                             MACRODANTINA CAP 100 MGCAP     1
CC0000007403900H202100000556582900000556582905/12/20210850     3300009237421964250000N2BE0100001276930000000000000                                                                                    DOLEX TAB 500 MGTAB     3
CC0000007403900H202100000556582900000556582905/12/20210128     3300009237421964250000N2BE0100001276930000000000000                                                                                    DOLEX TAB 500 MGTAB     3
