RC0001034521434H202100000556580200000556580205/12/20211501     3300010237421964250000A02BC100001677520000000000000                                                                ESOMEPRAZOL POLVO LIOF INY 40 MG /R/VAL     1
RC0001034521434H202100000556580200000556580205/12/20211844     3300009237421964250000A04A0100000380230000000000000                                                                  HARMETONE SUSP 1 MG/ML FCO X 60 MLFCO     1
RC0001034521434H202100000556580200000556580205/12/20211501     3300010237421964250000B3BB0200001315040000000000000                                                                               ACIDO FOLICO Tab 5 mgTAB     1
RC0001034521434H202100000556580200000556580205/12/20212136    31902409237421964250000E1AD0300000199490000000000000                                         LACTATO RINGER USP (HARTMANN)  SOL INY  BOL X 1000ML BAXTERBIN     1
RC0001034521434H202100000556580200000556580205/12/20211720    31500566237421964250000E1AD0300000199490000000000000                                         LACTATO RINGER USP (HARTMANN)  SOL INY  BOL X 1000ML BAXTERBIN     2
RC0001034521434H202100000556580200000556580205/12/20211159    31903107237421964250000E1AD0300000199490000000000000                                         LACTATO RINGER USP (HARTMANN)  SOL INY  BOL X 1000ML BAXTERBIN     1
RC0001034521434H202100000556580200000556580205/12/20211624     3300010237421964250000S2BA0200000468180000000000000                                                                   SOLU-MEDROL SLN INY 40 MG/ML  /R/VAL     1
RC0001034521434H202100000556580200000556580205/12/20210901     3300009237421964250000S2BA0200000468180000000000000                                                                   SOLU-MEDROL SLN INY 40 MG/ML  /R/VAL     1
RC0001034521434H202100000556580200000556580205/12/20211500     3300010237421964250000J1CB0600000468340000000000000                                                           UNASYN IM-IV (1+0.5)GR POLV INY INST VIALVAL     1
RC0001034521434H202100000556580200000556580205/12/20210901     3300009237421964250000J1CB0600000468340000000000000                                                           UNASYN IM-IV (1+0.5)GR POLV INY INST VIALVAL     2
RC0001034521434H202100000556580200000556580205/12/20210901     3300009237421964250000J02A0200000191070000000000000                                                            CANCIDAS POLVO LIOF SLN INY AMP 50MG /R/VAL     1
RC0001034521434H202100000556580200000556580205/12/20211500     3300010237421964250000N03AX200001063780000000000000                                                                      KEPPRA SLN INY 500 MG/5 ML /R/VAL     1
RC0001034521434H202100000556580200000556580205/12/20210901     3300009237421964250000N03AX200001063780000000000000                                                                      KEPPRA SLN INY 500 MG/5 ML /R/VAL     1
RC0001034521434H202100000556580200000556580205/12/20211500     3300010237421964250000N03A1800001024300000000000000                                                                 VIMPAT SLN INY 10 MG/ML AMP X 20 MLVAL     1
RC0001034521434H202100000556580200000556580205/12/20210901     3300009237421964250000N03A1800001024300000000000000                                                                 VIMPAT SLN INY 10 MG/ML AMP X 20 MLVAL     1
RC0001034521434H202100000556580200000556580205/12/20211528    31500065237421964250000V07A1300000502600000000000000                                                                                AGUA ESTERIL x 10 mlAMP     3
