CC0000052263466U202100000556590100000556590105/12/20210754     3300004239421964320000A4AD0200000202990000000000000                                                                     PLITICAN HCL Sln Iny 50 mg/2 mlAMP     1
CC0000052263466U202100000556590100000556590105/12/20210751    31903180239421964320000E1AD0300000199490000000000000                                         LACTATO RINGER USP (HARTMANN)  SOL INY  BOL X 1000ML BAXTERBIN     1
CC0000052263466U202100000556590100000556590105/12/20210739     3300004239421964320000N2AX0400001204140000000000000                                                                             TRAMAL Sln Iny 50 mg/mlAMP     1
CC0000052263466U202100000556590100000556590105/12/20210739     3300004239421964320000A3BB0300000512950000000000000                                                             BUSCAPINA COMP Sln Iny 20 mg+2.5 g/5 mlAMP     1
