CC0000013887621H202100015112738600015112738605/12/20211319    3190010323742196425000039176700001029620000000000000                                                                    SUJETADOR TUBO ENDOTRAQUEAL 9799SOB     1
CC0000013887621H202100015112738600015112738605/12/20211319    3190010323742196425000037180800001271920000000000000                                                                   APOSITO DUODERM EXTR TH 10*10 187SOB     2
CC0001129564191H202100015112738600015112738605/12/20211319    3190010323742196425000037180800001271920000000000000                                                                   APOSITO DUODERM EXTR TH 10*10 187SOB     2
