RC0001048091097U202100050131932300050131932305/12/20212356    3150054723942196432000024674000001138340000000000000   JERINGA 3PARTES C/A 10ML REF JEHL005 CAJ X 100 ALFASAFE  21GX1 PULG 1/2 PULG BN EXENTO-DC.417/202PZA     2
RC0001048091097U202100050131932300050131932305/12/20212356    3150054723942196432000042743200003929860000000000000                   GASA ADHESIVA STRETCH REF 02038-00 ROL X 10MT FIXOMULL 15CM BN EXENTO-DC.417/2020CMT    15
RC0001048091097U202100050131932300050131932305/12/20212356    3150054723942196432000011082700001620070000000000000                                                               EQUIPO SET PRIMARIO C/CLAVE REF 14001BOL     1
RC0001048091097U202100050131932300050131932305/12/20212356    3150054723942196432000001956000001620610000000000000                                                                      CONECTOR MICRO CLAVE LAT-MC100SOB     1
RC0001048091097U202100050131932300050131932305/12/20212356    31500547239421964320000Q1AA7400003911720000000000000                                                            CATETER PERIFE INTROCAN # 24G 4251601-04SOB     1
RC0001048091097U202100050131932300050131932305/12/20212356    3150054723942196432000030936900001431840000000000000                                                                                              BURETABOL     1
RC0001048091097U202100050131932300050131932305/12/20212356    31500547239421964320000E1AC0100000199400000000000000                                                                          SUERO MIXTO Sln Iny 500 mlBIN     1
