CC0001082907687U202100000556607400000556607405/12/20212245    31901146239421964320000E1AB0300003888390000000000000                                                            SOLUCION SALINA 0.9% SLN INY BO X 500 MLBOL     1
CC0001082907687U202100000556607400000556607405/12/20212258     3300010239421964320000C08C0800001277870000000000000                                                                                NIFEDIPINO CAP 10 MGTAB     1
CC0001082907687U202100000556607400000556607405/12/20212258     3300010239421964320000H02AB900001434990000000000000                                                                      BETAMETASONA SLN INY 4 MG / MLAMP     3
CC0001082907687U202100000556607400000556607405/12/20212258     3300010239421964320000N02B1100001464120000000000000                                           PARACETAMOL EP 1000MG/100ML(10MG/ML) SOL INY  CAJ X 10FCOVAL     1
