TI0001121302704H202100015032648700015032648705/12/20210920    3190297723742196425000022426800001140510000000000000                                                                    EQUIPO MACROGOTEO BAXTER MRC0001SOB     1
TI0001121302704H202100015032648700015032648705/12/20210920    3190297723742196425000030936900001431840000000000000                                                                                              BURETABOL     1
TI0001121302704H202100015032648700015032648705/12/20210920    31902977237421964250000E1AB0200000199290000000000000                                                            SOLUCION SALINA 0.9% SLN INY BO X 100 MLBIN     4
TI0001121302704H202100015032648700015032648705/12/20210920    31902977237421964250000E1AA0100003888590000000000000                                                                        DEXTROSA 5% Sln Iny X 500 mlBOL     3
RC0001125232601H202100015032648700015032648705/12/20210920    31902977237421964250000E1AA0100003888590000000000000                                                                        DEXTROSA 5% Sln Iny X 500 mlBOL     3
