CC0000072277171H202100000556592800000556592805/12/20211606     330001023742196425000011808300000218190000000000000                                                   DORMICUM IV 50MG/10ML(5MG/ML) SOL INY  CAJ X 5AMPAMP     1
CC0000072277171H202100000556592800000556592805/12/20211605     330001023742196425000011808300000218190000000000000                                                   DORMICUM IV 50MG/10ML(5MG/ML) SOL INY  CAJ X 5AMPAMP     1
CC0000072277171H202100000556592800000556592805/12/20211816    31500082237421964250000E1AB1100003888280000000000000                                                                        SOLUCION SALINA 0.9% X 50 mlBOL     2
CC0000072277171H202100000556592800000556592805/12/20211044    31903294237421964250000E1AB1100003888280000000000000                                                                        SOLUCION SALINA 0.9% X 50 mlBOL     2
CC0000072277171H202100000556592800000556592805/12/20211816    31500082237421964250000E1AB0200000199290000000000000                                                            SOLUCION SALINA 0.9% SLN INY BO X 100 MLBIN     2
CC0000072277171H202100000556592800000556592805/12/20211044    31903294237421964250000E1AB0300003888390000000000000                                                            SOLUCION SALINA 0.9% SLN INY BO X 500 MLBOL     2
CC0000072277171H202100000556592800000556592805/12/20210905     3300009237421964250000H02AB500001664950000000000000                                                            DEXAMETASONA SLN INY 8 MG/2 ML AMP /CDS/AMP     1
CC0000072277171H202100000556592800000556592805/12/20210906     3300009237421964250000N01B0200003888110000000000000                                           ROXICAINA SE 100MG/10ML(1%) SOL INY CAJ X 24AMPACK X 10MLAPC     2
CC0000072277171H202100000556592800000556592805/12/20210906     3300009237421964250000N06A1100001278050000000000000                                                                              CYMBALTA Cap 30 mg /R/CAP     1
CC0000072277171H202100000556592800000556592805/12/20211602     3300010237421964250000N02A3100001227160000000000000                                                                    OXYRAPID SLN INY 10 MG/ML X 1 MLAMP    10
CC0000072277171H202100000556592800000556592805/12/20210905     3300009237421964250000B01AB400000513360000000000000                                                                        CLENOX SLN INY 60 MG/ 0.6 MLJRP     2
CC0000072277171H202100000556592800000556592805/12/20210906     3300009237421964250000A02BC700001684270000000000000                                                            OMEPRAZOL 40MG POLVO LIOFILIZADO AMPOLLAVAL     1
