CC0001042353509H202100000556583800000556583805/12/20211137     3300009237421964250000A4AD0200000202990000000000000                                                                     PLITICAN HCL Sln Iny 50 mg/2 mlAMP     2
CC0001042353509H202100000556583800000556583805/12/20211517    31903165237421964250000E1AB0300003888390000000000000                                                            SOLUCION SALINA 0.9% SLN INY BO X 500 MLBOL     1
CC0001042353509H202100000556583800000556583805/12/20211137     3300009237421964250000J01DA300001239950000000000000                                                            CEFAZOLINA SODICA POLVO LIOF SLN INY 1 GVAL     3
CC0001042353509H202100000556583800000556583805/12/20210149     3300009237421964250000J01DA300001239950000000000000                                                            CEFAZOLINA SODICA POLVO LIOF SLN INY 1 GVAL     1
CC0001042353509H202100000556583800000556583805/12/20211137     3300009237421964250000N2AX0400001204140000000000000                                                                             TRAMAL Sln Iny 50 mg/mlAMP     2
CC0001042353509H202100000556583800000556583805/12/20211137     3300009237421964250000N2BB0200000513030000000000000                                                                           LISALGIL Sln Iny 2 g/5 mlAMP     3
CC0001042353509H202100000556583800000556583805/12/20211137     3300009237421964250000N02B1100001464120000000000000                                           PARACETAMOL EP 1000MG/100ML(10MG/ML) SOL INY  CAJ X 10FCOVAL     3
