CC0001102807172U202100000556606500000556606505/12/20212217    31903190239421964320000E1AB0200000199290000000000000                                                            SOLUCION SALINA 0.9% SLN INY BO X 100 MLBIN     1
CC0001102807172U202100000556606500000556606505/12/20211925     3300004239421964320000N02B1100001464120000000000000                                           PARACETAMOL EP 1000MG/100ML(10MG/ML) SOL INY  CAJ X 10FCOVAL     1
CC0001102807172U202100000556606500000556606505/12/20211925     3300004239421964320000A3BB0300000512950000000000000                                                             BUSCAPINA COMP Sln Iny 20 mg+2.5 g/5 mlAMP     1
