CC0000022448180U202100000556585600000556585605/12/20210827     3300004239421964320000A03F0300001626860000000000000                                                                   METOCLOPRAMIDA SLN INY 10 MG/2 MLAMP     1
CC0000022448180U202100000556585600000556585605/12/20210938    31500589239421964320000E1AB0500003888400000000000000                                                              SOLUCION SALINA 0.9% SLN INY X 1000 MLBOL     1
CC0000022448180U202100000556585600000556585605/12/20210433    31902171239421964320000E1AB0500003888400000000000000                                                              SOLUCION SALINA 0.9% SLN INY X 1000 MLBOL     1
CC0000022448180U202100000556585600000556585605/12/20210432     3300004239421964320000N3AB0100001302620000000000000                                                                                   EPAMIN Cap 100 mgCAP     1
CC0000022448180U202100000556585600000556585605/12/20210432     3300004239421964320000N2BB0100001672010000000000000                                  DIPIRONA 1GR/2ML(0.5GR/ML) SOL INY INST CAJ X 100AMP X 2ML VITALISAMP     1
CC0000022448180U202100000556585600000556585605/12/20210432     3300004239421964320000N03AB200001168090000000000000                                                                       FENITOINA Sln Iny 250 mg/5 mlAMP     1
CC0000022448180U202100000556585600000556585605/12/20210827     3300004239421964320000A02BC700001684270000000000000                                                            OMEPRAZOL 40MG POLVO LIOFILIZADO AMPOLLAVAL     1
