CC0000022530541H202100015052803800015052803805/12/20212056    3190318423742196425000045136100001419300000000000000                                                                            LANCETA DEXTROMETER X UNPZA     4
RC0001102897681H202100015052803800015052803805/12/20212056    3190318423742196425000001956000001620610000000000000                                                                      CONECTOR MICRO CLAVE LAT-MC100SOB     1
CC0000008257979H202100015052803800015052803805/12/20212056    3190318423742196425000001956000001620610000000000000                                                                      CONECTOR MICRO CLAVE LAT-MC100SOB     1
CC0000028496269H202100015052803800015052803805/12/20212056    3190318423742196425000001956000001620610000000000000                                                                      CONECTOR MICRO CLAVE LAT-MC100SOB     1
CC0001140875648H202100015052803800015052803805/12/20212056    3190318423742196425000001956000001620610000000000000                                                                      CONECTOR MICRO CLAVE LAT-MC100SOB     1
CC0000008257979H202100015052803800015052803805/12/20212056    31903184237421964250000Q1AA7300000610640000000000000                                                            CATETER PERIFE INTROCAN # 22G 4251628-04SIN     2
CC0000022530541H202100015052803800015052803805/12/20212056    31903184237421964250000Q1AA7300000610640000000000000                                                            CATETER PERIFE INTROCAN # 22G 4251628-04SIN     1
RC0001102897681H202100015052803800015052803805/12/20212056    31903184237421964250000Q1AA7400003911720000000000000                                                            CATETER PERIFE INTROCAN # 24G 4251601-04SOB     2
CC0000008257979H202100015052803800015052803805/12/20212056    31903184237421964250000Q1AA7400003911720000000000000                                                            CATETER PERIFE INTROCAN # 24G 4251601-04SOB     2
CC0000022530541H202100015052803800015052803805/12/20212056    31903184237421964250000Q1AA7400003911720000000000000                                                            CATETER PERIFE INTROCAN # 24G 4251601-04SOB     1
CC0000008257979H202100015052803800015052803805/12/20212056    3190318423742196425000030936900001431840000000000000                                                                                              BURETABOL     1
CC0000028496269H202100015052803800015052803805/12/20212056    3190318423742196425000030936900001431840000000000000                                                                                              BURETABOL     1
CC0001140875648H202100015052803800015052803805/12/20212056    3190318423742196425000030936900001431840000000000000                                                                                              BURETABOL     1
CC0000022438763H202100015052803800015052803805/12/20212056    31903184237421964250000E1AD0300000199490000000000000                                         LACTATO RINGER USP (HARTMANN)  SOL INY  BOL X 1000ML BAXTERBIN     1
CC0000028496269H202100015052803800015052803805/12/20212056    31903184237421964250000E1AD0300000199490000000000000                                         LACTATO RINGER USP (HARTMANN)  SOL INY  BOL X 1000ML BAXTERBIN     1
RC0001187466818H202100015052803800015052803805/12/20212056    31903184237421964250000E1AB0300003888390000000000000                                                            SOLUCION SALINA 0.9% SLN INY BO X 500 MLBOL     1
CC0000008257979H202100015052803800015052803805/12/20212056    31903184237421964250000E1AB0300003888390000000000000                                                            SOLUCION SALINA 0.9% SLN INY BO X 500 MLBOL     1
CC0001193479674H202100015052803800015052803805/12/20212056    31903184237421964250000E1AB0300003888390000000000000                                                            SOLUCION SALINA 0.9% SLN INY BO X 500 MLBOL     1
RC0001084457432H202100015052803800015052803805/12/20212056    31903184237421964250000E1AB0300003888390000000000000                                                            SOLUCION SALINA 0.9% SLN INY BO X 500 MLBOL     1
CC0001140875648H202100015052803800015052803805/12/20212056    31903184237421964250000E1AB0300003888390000000000000                                                            SOLUCION SALINA 0.9% SLN INY BO X 500 MLBOL     1
CC0000022530541H202100015052803800015052803805/12/20212056    31903184237421964250000E1AB0300003888390000000000000                                                            SOLUCION SALINA 0.9% SLN INY BO X 500 MLBOL     1
CC0000022530541H202100015052803800015052803805/12/20212056    3190318423742196425000011137100001419310000000000000                                                               TIRA GLUCOMETRIA FREESTYLE H OPTIUM .PZA     4
CC0000028496269H202100015052803800015052803805/12/20212056    3190318423742196425000011127400001413910000000000000                                                            EQUIPO ADMINIST NUTR PUNZON REF 674669 BBOL     1
