CC0001002134630U202100050131923300050131923305/12/20210822    3190180623942196432000001956000001620610000000000000                                                                      CONECTOR MICRO CLAVE LAT-MC100SOB     1
CC0001002134630U202100050131923300050131923305/12/20210822    31901806239421964320000Q1AA7200000610630000000000000                                                            CATETER PERIFE INTROCAN # 20G 4251644-04SIN     1
CC0001002134630U202100050131923300050131923305/12/20210822    3190180623942196432000016830000000970620000000000000                                                             SIST FIJACION CAT PERIFERICO 6.5X7 1683SOB     1
