CC0000022448180H202100015112738700015112738705/12/20211325    3190235723742196425000045136100001419300000000000000                                                                            LANCETA DEXTROMETER X UNPZA     2
PE0082549771210H202100015112738700015112738705/12/20211325    3190235723742196425000045136100001419300000000000000                                                                            LANCETA DEXTROMETER X UNPZA     2
CC0000019490174H202100015112738700015112738705/12/20211325    3190235723742196425000045136100001419300000000000000                                                                            LANCETA DEXTROMETER X UNPZA     8
CC0000072218236H202100015112738700015112738705/12/20211325    3190235723742196425000045136100001419300000000000000                                                                            LANCETA DEXTROMETER X UNPZA     2
CC0000022448180H202100015112738700015112738705/12/20211325    3190235723742196425000024674000001138340000000000000   JERINGA 3PARTES C/A 10ML REF JEHL005 CAJ X 100 ALFASAFE  21GX1 PULG 1/2 PULG BN EXENTO-DC.417/202PZA    10
PE0082549771210H202100015112738700015112738705/12/20211325    3190235723742196425000024674000001138340000000000000   JERINGA 3PARTES C/A 10ML REF JEHL005 CAJ X 100 ALFASAFE  21GX1 PULG 1/2 PULG BN EXENTO-DC.417/202PZA    10
CC0000019490174H202100015112738700015112738705/12/20211325    3190235723742196425000024674000001138340000000000000   JERINGA 3PARTES C/A 10ML REF JEHL005 CAJ X 100 ALFASAFE  21GX1 PULG 1/2 PULG BN EXENTO-DC.417/202PZA    10
CC0000072218236H202100015112738700015112738705/12/20211325    3190235723742196425000024674000001138340000000000000   JERINGA 3PARTES C/A 10ML REF JEHL005 CAJ X 100 ALFASAFE  21GX1 PULG 1/2 PULG BN EXENTO-DC.417/202PZA    10
CC0000019490174H202100015112738700015112738705/12/20211325    3190235723742196425000011047900000223010000000000000                                                                            JERINGA X 1ML REF 302579SIN    10
CC0000072218236H202100015112738700015112738705/12/20211325    3190235723742196425000001956000001620610000000000000                                                                      CONECTOR MICRO CLAVE LAT-MC100SOB     1
CC0000072218236H202100015112738700015112738705/12/20211325    31902357237421964250000Q1AA7200000610630000000000000                                                            CATETER PERIFE INTROCAN # 20G 4251644-04SIN     1
CC0000072218236H202100015112738700015112738705/12/20211325    3190235723742196425000016830000000970620000000000000                                                             SIST FIJACION CAT PERIFERICO 6.5X7 1683SOB     1
PE0082549771210H202100015112738700015112738705/12/20211325    31902357237421964250000E1AD0300000199490000000000000                                         LACTATO RINGER USP (HARTMANN)  SOL INY  BOL X 1000ML BAXTERBIN     1
CC0000022448180H202100015112738700015112738705/12/20211325    31902357237421964250000E1AB0200000199290000000000000                                                            SOLUCION SALINA 0.9% SLN INY BO X 100 MLBIN     5
CC0000019490174H202100015112738700015112738705/12/20211325    31902357237421964250000E1AB0200000199290000000000000                                                            SOLUCION SALINA 0.9% SLN INY BO X 100 MLBIN     5
CC0000072218236H202100015112738700015112738705/12/20211325    31902357237421964250000E1AB0200000199290000000000000                                                            SOLUCION SALINA 0.9% SLN INY BO X 100 MLBIN     3
CC0000022448180H202100015112738700015112738705/12/20211325    3190235723742196425000011137100001419310000000000000                                                               TIRA GLUCOMETRIA FREESTYLE H OPTIUM .PZA     2
PE0082549771210H202100015112738700015112738705/12/20211325    3190235723742196425000011137100001419310000000000000                                                               TIRA GLUCOMETRIA FREESTYLE H OPTIUM .PZA     2
CC0000019490174H202100015112738700015112738705/12/20211325    3190235723742196425000011137100001419310000000000000                                                               TIRA GLUCOMETRIA FREESTYLE H OPTIUM .PZA     8
CC0000072218236H202100015112738700015112738705/12/20211325    3190235723742196425000011137100001419310000000000000                                                               TIRA GLUCOMETRIA FREESTYLE H OPTIUM .PZA     2
