CC0000011312131H202100015022562200015022562205/12/20211153    31903308237421964250000V07A1300000502600000000000000                                                                                AGUA ESTERIL x 10 mlAMP     8
CC0000016200301H202100015022562200015022562205/12/20211153    31903308237421964250000V07A1300000502600000000000000                                                                                AGUA ESTERIL x 10 mlAMP     8
CC0000012576309H202100015022562200015022562205/12/20211153    31903308237421964250000V07A1300000502600000000000000                                                                                AGUA ESTERIL x 10 mlAMP     8
CC0000011312131H202100015022562200015022562205/12/20211153    3190330823742196425000024674000001138340000000000000   JERINGA 3PARTES C/A 10ML REF JEHL005 CAJ X 100 ALFASAFE  21GX1 PULG 1/2 PULG BN EXENTO-DC.417/202PZA    10
CC0000022358936H202100015022562200015022562205/12/20211153    3190330823742196425000024674000001138340000000000000   JERINGA 3PARTES C/A 10ML REF JEHL005 CAJ X 100 ALFASAFE  21GX1 PULG 1/2 PULG BN EXENTO-DC.417/202PZA     8
CC0000016200301H202100015022562200015022562205/12/20211153    3190330823742196425000024674000001138340000000000000   JERINGA 3PARTES C/A 10ML REF JEHL005 CAJ X 100 ALFASAFE  21GX1 PULG 1/2 PULG BN EXENTO-DC.417/202PZA     8
CC0000012576309H202100015022562200015022562205/12/20211153    3190330823742196425000024674000001138340000000000000   JERINGA 3PARTES C/A 10ML REF JEHL005 CAJ X 100 ALFASAFE  21GX1 PULG 1/2 PULG BN EXENTO-DC.417/202PZA     8
