CC0000022596813H202100902574120500902574120505/12/20210118    3190182723742196425000031188000000236790000000000000                                                                                     CISTOFLO ADULTOSIN     1
CC0000022596813H202100902574120500902574120505/12/20210118    3190182723742196425000038573000000256870000000000000                                                                                 SONDA NSG LEVIN #16SIN     1
CC0000022596813H202100902574120500902574120505/12/20210118    3190182723742196425000038573100000256880000000000000                                                                                 SONDA NSG LEVIN #18SIN     1
CC0000022596813H202100902574120500902574120505/12/20210118    31901827237421964250000Q1A13500001585200000000000000                        JERINGA PUNTA CAT SIN AGUJA REF 309620 CAJ X 40   50ML BN EXENTO-DC.417/2020SOB     1
CC0000022596813H202100902574120500902574120505/12/20210405    3190182723742196425000013077800000471960000000000000                                                             GASA NO TEJIDA EST 7.5 X 7.5 SOB X 3 UNSOB     6
CC0000022596813H202100902574120500902574120505/12/20210405    3190182723742196425000024674000001138340000000000000   JERINGA 3PARTES C/A 10ML REF JEHL005 CAJ X 100 ALFASAFE  21GX1 PULG 1/2 PULG BN EXENTO-DC.417/202PZA    10
CC0000022596813H202100902574120500902574120505/12/20210405    3190182723742196425000043485100001618510000000000000                GUANTE QUIRURGICO DE LATEX REF 2D72N65X CAJ X 50 PROTEXIS  6.5 BN EXENTO-DC.417/2020SOB     1
CC0000022596813H202100902574120500902574120505/12/20210405    3190182723742196425000000602700001197200000000000000                                                              APOSITO TRANSP  1655 IV 8.5CM X 11.5CMSOB     1
