RC0001063188441H202100015122546600015122546605/12/20210038    3190315723742196425000011077200001679930000000000000                                                                  CIRCUITO DESECHABLE AIRVO 900PT501BOL     1
RC0001063188441H202100015122546600015122546605/12/20210038    3190315723742196425000001201000001287650000000000000                                                               CANULA NASALPREMATUR OPT312  OPTIFLOWPZA     1
RC0001063188441H202100015122546600015122546605/12/20210038    31903157237421964250000B05B1400001012740000000000000                                                                SOLUCION SALINA 0.45% Sln Iny 500 mlBOL     1
