RC0001042863813U202100050131927000050131927005/12/20211417    3190232723942196432000024674000001138340000000000000   JERINGA 3PARTES C/A 10ML REF JEHL005 CAJ X 100 ALFASAFE  21GX1 PULG 1/2 PULG BN EXENTO-DC.417/202PZA     2
RC0001042863813U202100050131927000050131927005/12/20211417    3190232723942196432000011086200001036580000000000000                                                              FLUORESCEINA SODICA TIRA OFTALMICA 10%PZA     1
RC0001042863813U202100050131927000050131927005/12/20211417    3190232723942196432000011082700001620070000000000000                                                               EQUIPO SET PRIMARIO C/CLAVE REF 14001BOL     1
RC0001042863813U202100050131927000050131927005/12/20211417    31902327239421964320000Q1AA7300000610640000000000000                                                            CATETER PERIFE INTROCAN # 22G 4251628-04SIN     1
RC0001042863813U202100050131927000050131927005/12/20211417    3190232723942196432000030936900001431840000000000000                                                                                              BURETABOL     1
RC0001042863813U202100050131927000050131927005/12/20211417    3190232723942196432000016830000000970620000000000000                                                             SIST FIJACION CAT PERIFERICO 6.5X7 1683SOB     1
