CC0001129489867H202100000556586900000556586905/12/20211141     3300009237421964250000B01AB200000513350000000000000                                                                        CLENOX SLN INY 40 MG/ 0.4 MLJRP     1
CC0001129489867H202100000556586900000556586905/12/20211141     3300009237421964250000G01AA300001389790000000000000                                                                           METRONIDAZOL OVULO 500 MGOVU     1
CC0001129489867H202100000556586900000556586905/12/20211141     3300009237421964250000N02AA700000979510000000000000                                                            DIHIDROCODEINA SLN ORAL 2.42 MG/ML X 120FCO     1
CC0001129489867H202100000556586900000556586905/12/20211141     3300009237421964250000A02BC700001684270000000000000                                                            OMEPRAZOL 40MG POLVO LIOFILIZADO AMPOLLAVAL     1
CC0001129489867H202100000556586900000556586905/12/20211510    31500170237421964250000V07A1300000502600000000000000                                                                                AGUA ESTERIL x 10 mlAMP     5
