RC0001043475996H202100000556579100000556579105/12/20210841     3300009237421964250000A2BC0900000200150000000000000                                                                               ORAZOLE Sln Iny 40 mgCIN     1
RC0001043475996H202100000556579100000556579105/12/20210020     3300009237421964250000A2BC0900000200150000000000000                                                                               ORAZOLE Sln Iny 40 mgCIN     1
RC0001043475996H202100000556579100000556579105/12/20211039    31500534237421964250000E1AD0300000199490000000000000                                         LACTATO RINGER USP (HARTMANN)  SOL INY  BOL X 1000ML BAXTERBIN     1
RC0001043475996H202100000556579100000556579105/12/20210841     3300009237421964250000N02B1100001464120000000000000                                           PARACETAMOL EP 1000MG/100ML(10MG/ML) SOL INY  CAJ X 10FCOVAL     1
RC0001043475996H202100000556579100000556579105/12/20210020     3300009237421964250000N02B1100001464120000000000000                                           PARACETAMOL EP 1000MG/100ML(10MG/ML) SOL INY  CAJ X 10FCOVAL     1
RC0001043475996H202100000556579100000556579105/12/20212113     3300004237421964250000R06AX300000858060000000000000                                                              DESALEX SLN ORAL 0.5 MG/ML FCO X 60 MLFCO     1
RC0001043475996H202100000556579100000556579105/12/20211424     3300009237421964250000R06AX300000858060000000000000                                                              DESALEX SLN ORAL 0.5 MG/ML FCO X 60 MLFCO     1
