RC0001044234520U202100000556598700000556598705/12/20211204    31500617239421964320000E1AB0200000199290000000000000                                                            SOLUCION SALINA 0.9% SLN INY BO X 100 MLBIN     1
RC0001044234520U202100000556598700000556598705/12/20211646    31902327239421964320000E1AB0300003888390000000000000                                                            SOLUCION SALINA 0.9% SLN INY BO X 500 MLBOL     1
RC0001044234520U202100000556598700000556598705/12/20211615     3300004239421964320000N2BE1100000836430000000000000                                             ACETAMINOFEN 150MG/5ML(3%) JBE INST FCO X 60ML AMER GENCAJ     1
RC0001044234520U202100000556598700000556598705/12/20211615     3300004239421964320000J01G0500001109560000000000000                                                                       AMIKACINA SLN INY 500 MG/2 MLAMP     1
