RC0001044671776H202100015122547300015122547305/12/20211108    31500528237421964250000Q1AA1000000256790000000000000                                                                         SONDA ASPIRACION CONTROL #8SIN     6
RC0001063188441H202100015122547300015122547305/12/20211108    3150052823742196425000036441300000236540000000000000                                                                    JERINGA 1 ML GASES ARTERIAL 9023SIN     2
RC0001240292997H202100015122547300015122547305/12/20211108    3150052823742196425000036441300000236540000000000000                                                                    JERINGA 1 ML GASES ARTERIAL 9023SIN     2
RC0001044671776H202100015122547300015122547305/12/20211108    3150052823742196425000036441300000236540000000000000                                                                    JERINGA 1 ML GASES ARTERIAL 9023SIN     2
RC0001043033404H202100015122547300015122547305/12/20211108    3150052823742196425000036441300000236540000000000000                                                                    JERINGA 1 ML GASES ARTERIAL 9023SIN     2
RC0001044671776H202100015122547300015122547305/12/20211108    3150052823742196425000024674000001138340000000000000   JERINGA 3PARTES C/A 10ML REF JEHL005 CAJ X 100 ALFASAFE  21GX1 PULG 1/2 PULG BN EXENTO-DC.417/202PZA     3
RC0001063188441H202100015122547300015122547305/12/20211108    31500528237421964250000Q0000200000473250000000000000                                                                             INHALOCAMARA PEDIATRICACIN     1
RC0001044671776H202100015122547300015122547305/12/20211108    3150052823742196425000053074400000607910000000000000                                                               GASA ESTERIL 10*10 SOBRE X 3 UNIDADESSOB     3
RC0001063188441H202100015122547300015122547305/12/20211108    31500528237421964250000E1BA0100000198890000000000000                                                                   AGUA ESTERIL USP SLN INY X 500 MLBIN     1
RC0001240292997H202100015122547300015122547305/12/20211108    31500528237421964250000E1BA0100000198890000000000000                                                                   AGUA ESTERIL USP SLN INY X 500 MLBIN     1
RC0001043033404H202100015122547300015122547305/12/20211108    31500528237421964250000E1BA0100000198890000000000000                                                                   AGUA ESTERIL USP SLN INY X 500 MLBIN     1
RC0001044671776H202100015122547300015122547305/12/20211108    31500528237421964250000E1AB0200000199290000000000000                                                            SOLUCION SALINA 0.9% SLN INY BO X 100 MLBIN     1
