PE0082549771210H202100920740120500920740120505/12/20211809    3190235723742196425000011137100001419310000000000000                                                               TIRA GLUCOMETRIA FREESTYLE H OPTIUM .PZA     2
PE0082549771210H202100920740120500920740120505/12/20211809    3190235723742196425000024674000001138340000000000000   JERINGA 3PARTES C/A 10ML REF JEHL005 CAJ X 100 ALFASAFE  21GX1 PULG 1/2 PULG BN EXENTO-DC.417/202PZA    10
PE0082549771210H202100920740120500920740120505/12/20211809    3190235723742196425000045136100001419300000000000000                                                                            LANCETA DEXTROMETER X UNPZA     2
PE0082549771210H202100920740120500920740120505/12/20211809    31902357237421964250000E1AD0300000199490000000000000                                         LACTATO RINGER USP (HARTMANN)  SOL INY  BOL X 1000ML BAXTERBIN     1
