CC0000012598689H202100000556587900000556587905/12/20211106    31500526237421964250000E1AB0300003888390000000000000                                                            SOLUCION SALINA 0.9% SLN INY BO X 500 MLBOL     1
CC0000012598689H202100000556587900000556587905/12/20211509     3300010237421964250000J01DA300001239950000000000000                                                            CEFAZOLINA SODICA POLVO LIOF SLN INY 1 GVAL     1
CC0000012598689H202100000556587900000556587905/12/20211117     3300009237421964250000J01DA300001239950000000000000                                                            CEFAZOLINA SODICA POLVO LIOF SLN INY 1 GVAL     2
CC0000012598689H202100000556587900000556587905/12/20211509     3300010237421964250000N2BE2200001252930000000000000                                                                             ACETAMINOFEN Tab 500 MGTAB     2
CC0000012598689H202100000556587900000556587905/12/20211117     3300009237421964250000N2BE2200001252930000000000000                                                                             ACETAMINOFEN Tab 500 MGTAB     6
CC0000012598689H202100000556587900000556587905/12/20211509     3300010237421964250000N2BB0100001672010000000000000                                  DIPIRONA 1GR/2ML(0.5GR/ML) SOL INY INST CAJ X 100AMP X 2ML VITALISAMP     1
CC0000012598689H202100000556587900000556587905/12/20211117     3300009237421964250000N2BB0100001672010000000000000                                  DIPIRONA 1GR/2ML(0.5GR/ML) SOL INY INST CAJ X 100AMP X 2ML VITALISAMP     2
CC0000012598689H202100000556587900000556587905/12/20211515    31500170237421964250000V07A1300000502600000000000000                                                                                AGUA ESTERIL x 10 mlAMP     5
