TI0001103512693H202100015122547400015122547405/12/20211514    3190330723742196425000011082700001620070000000000000                                                               EQUIPO SET PRIMARIO C/CLAVE REF 14001BOL     1
TI0001103512693H202100015122547400015122547405/12/20211514    31903307237421964250000Q1AA7400003911720000000000000                                                            CATETER PERIFE INTROCAN # 24G 4251601-04SOB     1
TI0001103512693H202100015122547400015122547405/12/20211514    31903307237421964250000B05B1500001012750000000000000                                                                   SOLUCION SALINA 3% Sln Iny 500 mlBOL     1
