TI0001139431453H202100000556591500000556591505/12/20211735     3300010237421964250000A2BX0100001277280000000000000                                                                                ALSUCRAL TAB 1 G /R/TAB     4
TI0001139431453H202100000556591500000556591505/12/20211040    31500534237421964250000E1AD0300000199490000000000000                                         LACTATO RINGER USP (HARTMANN)  SOL INY  BOL X 1000ML BAXTERBIN     3
TI0001139431453H202100000556591500000556591505/12/20210841     3300009237421964250000N2BE2200001252930000000000000                                                                             ACETAMINOFEN Tab 500 MGTAB     1
TI0001139431453H202100000556591500000556591505/12/20212109     3300004237421964250000N05BB100001315110000000000000                                                                               HIDROXICINA TAB 25 MGTAB     1
TI0001139431453H202100000556591500000556591505/12/20211735     3300010237421964250000N05BB100001315110000000000000                                                                               HIDROXICINA TAB 25 MGTAB     1
