CC0000073430959U202100000556603500000556603505/12/20211835    31500589239421964320000E1AD0300000199490000000000000                                         LACTATO RINGER USP (HARTMANN)  SOL INY  BOL X 1000ML BAXTERBIN     2
CC0000073430959U202100000556603500000556603505/12/20211601     3300004239421964320000N2BB0200000513030000000000000                                                                           LISALGIL Sln Iny 2 g/5 mlAMP     1
CC0000073430959U202100000556603500000556603505/12/20211601     3300004239421964320000N2AA0400003888080000000000000                                                                     DEMEROL HCL Sln Iny 100 mg/2 mlAMP     1
