CC0001066890191H202100000556581300000556581305/12/20211546     330001023742196425000011808300000218190000000000000                                                   DORMICUM IV 50MG/10ML(5MG/ML) SOL INY  CAJ X 5AMPAMP    10
CC0001066890191H202100000556581300000556581305/12/20210822     3300009237421964250000V3AB2200000614150000000000000                                                            GLUCONATO CALCIO SLN INY 10% AMP X 10 MLAPC     3
CC0001066890191H202100000556581300000556581305/12/20211912    31902651237421964250000E1AB0200000199290000000000000                                                            SOLUCION SALINA 0.9% SLN INY BO X 100 MLBIN     5
CC0001066890191H202100000556581300000556581305/12/20210830     3300009237421964250000A12BA100000552980000000000000                                                            CLORURO POTASIO Sln Iny AMP 20 MEQ/10 MLAMP     3
CC0001066890191H202100000556581300000556581305/12/20210616     3300009237421964250000A12BA100000552980000000000000                                                            CLORURO POTASIO Sln Iny AMP 20 MEQ/10 MLAMP     2
CC0001066890191H202100000556581300000556581305/12/20210615     3300009237421964250000A12BA100000552980000000000000                                                            CLORURO POTASIO Sln Iny AMP 20 MEQ/10 MLAMP     2
CC0001066890191H202100000556581300000556581305/12/20210822     3300009237421964250000N07X0300003913670000000000000                                    DEXMEDETOMIDINA 400MCG/100ML(4MCG/ML) SOL INY BOL X 100ML BAXTERBOL     3
CC0001066890191H202100000556581300000556581305/12/20210822     3300009237421964250000V6DF5300000302770000000000000                                                                        ENSURE PLUS HN LCP X 1000 MLFCO     1
CC0001066890191H202100000556581300000556581305/12/20211546     3300010237421964250000N1AH0200003906560000000000000                                                                     FENTANIL Iny 0.05 mg/ml x 10 mlAMP    30
CC0001066890191H202100000556581300000556581305/12/20211541     3300010237421964250000C02AC200001559150000000000000                                                                              CLONIDINA TAB 0.150 MGTAB     4
CC0001066890191H202100000556581300000556581305/12/20211629     3300010237421964250000C03C0100001672000000000000000                                                                       FUROSEMIDA SLN INY 20 MG/2 MLAMP     2
CC0001066890191H202100000556581300000556581305/12/20210822     3300009237421964250000J01CR300003913920000000000000                                                     AUROTAZ-P (4+0.5)GR POLV INY CAJ X 1VIAL X 50MLVAL     1
CC0001066890191H202100000556581300000556581305/12/20210821     3300009237421964250000J01CR300003913920000000000000                                                     AUROTAZ-P (4+0.5)GR POLV INY CAJ X 1VIAL X 50MLVAL     2
CC0001066890191H202100000556581300000556581305/12/20211541     3300010237421964250000J01DD500001239970000000000000                                                                  CEFTRIAXONA POLVO LIOF SLN INY 1 GVAL     2
CC0001066890191H202100000556581300000556581305/12/20211540     3300010237421964250000J01DD500001239970000000000000                                                                  CEFTRIAXONA POLVO LIOF SLN INY 1 GVAL     2
CC0001066890191H202100000556581300000556581305/12/20210822     3300009237421964250000N05A1700001278300000000000000                                                                            QUETIAPINA TAB 25 MG /R/TAB     3
CC0001066890191H202100000556581300000556581305/12/20210822     3300009237421964250000A02BC700001684270000000000000                                                            OMEPRAZOL 40MG POLVO LIOFILIZADO AMPOLLAVAL     1
CC0001066890191H202100000556581300000556581305/12/20211912    31902651237421964250000V07A1300000502600000000000000                                                                                AGUA ESTERIL x 10 mlAMP    10
CC0001066890191H202100000556581300000556581305/12/20211548     3300010237421964250000N05BA400001313880000000000000                                                                           ALPRAZOLAM 0.5 MG TABLETATAB     1
CC0001066890191H202100000556581300000556581305/12/20211547     3300010237421964250000N05BA400001313880000000000000                                                                           ALPRAZOLAM 0.5 MG TABLETATAB     1
