CC0001143157967H202100000556592000000556592005/12/20210846     3300009237421964250000A2BC0900000200150000000000000                                                                               ORAZOLE Sln Iny 40 mgCIN     1
CC0001143157967H202100000556592000000556592005/12/20210846     3300009237421964250000A03F0500001692520000000000000                                                                   ALIZAPRIDA HCL SLN INY 50 MG/2 MLAMP     3
CC0001143157967H202100000556592000000556592005/12/20210846     3300009237421964250000A03BB100003889180000000000000                                      HIOSCINA BUTIL BROMURO 20MG/ML SOL INY CAJ X 100AMP X 1ML RYANAMP     3
CC0001143157967H202100000556592000000556592005/12/20210846     3300009237421964250000J3CA0300001673190000000000000                               METRONIDAZOL 500MG/100ML(5MG/ML) SOL INY  CAJ X 84BOL X 100ML CORPAULBOL     1
CC0001143157967H202100000556592000000556592005/12/20210846     3300009237421964250000N2BE2200001252930000000000000                                                                             ACETAMINOFEN Tab 500 MGTAB     3
