CC0000022585829H202100015042536400015042536405/12/20210857    3150008223742196425000038570100001124990000000000000                                                                              SONDA FOLEY #18 2 VIASSOB     1
CC0000022585829H202100015042536400015042536405/12/20210857    3150008223742196425000043485100001618510000000000000                GUANTE QUIRURGICO DE LATEX REF 2D72N65X CAJ X 50 PROTEXIS  6.5 BN EXENTO-DC.417/2020SOB     2
CC0001129577696H202100015042536400015042536405/12/20210857    3150008223742196425000043485100001618510000000000000                GUANTE QUIRURGICO DE LATEX REF 2D72N65X CAJ X 50 PROTEXIS  6.5 BN EXENTO-DC.417/2020SOB     2
CC0000022585829H202100015042536400015042536405/12/20210857    3150008223742196425000013077800000471960000000000000                                                             GASA NO TEJIDA EST 7.5 X 7.5 SOB X 3 UNSOB    10
CC0001129577696H202100015042536400015042536405/12/20210857    3150008223742196425000013077800000471960000000000000                                                             GASA NO TEJIDA EST 7.5 X 7.5 SOB X 3 UNSOB    10
CC0000022585829H202100015042536400015042536405/12/20210857    3150008223742196425000031188000000236790000000000000                                                                                     CISTOFLO ADULTOSIN     1
