CC0001048209605H202100000556580700000556580705/12/20210858     3300009237421964250000A2BC0900000200150000000000000                                                                               ORAZOLE Sln Iny 40 mgCIN     1
CC0001048209605H202100000556580700000556580705/12/20211509     3300010237421964250000A4AD0200000202990000000000000                                                                     PLITICAN HCL Sln Iny 50 mg/2 mlAMP     1
CC0001048209605H202100000556580700000556580705/12/20210858     3300009237421964250000A4AD0200000202990000000000000                                                                     PLITICAN HCL Sln Iny 50 mg/2 mlAMP     2
CC0001048209605H202100000556580700000556580705/12/20211509     3300010237421964250000A3BB0200000512940000000000000                                                                          BUSCAPINA SIMPLE Iny 20 mgAMP     1
CC0001048209605H202100000556580700000556580705/12/20210858     3300009237421964250000A3BB0200000512940000000000000                                                                          BUSCAPINA SIMPLE Iny 20 mgAMP     2
CC0001048209605H202100000556580700000556580705/12/20210032    31901156237421964250000E1AB0500003888400000000000000                                                              SOLUCION SALINA 0.9% SLN INY X 1000 MLBOL     2
CC0001048209605H202100000556580700000556580705/12/20211509     3300010237421964250000M01A0400001341250000000000000                                                                              DYNASTAT AMP 40 MG /R/VAL     1
CC0001048209605H202100000556580700000556580705/12/20210858     3300009237421964250000M01A0400001341250000000000000                                                                              DYNASTAT AMP 40 MG /R/VAL     1
CC0001048209605H202100000556580700000556580705/12/20210858     3300009237421964250000N2AX0400001204140000000000000                                                                             TRAMAL Sln Iny 50 mg/mlAMP     2
CC0001048209605H202100000556580700000556580705/12/20211509     3300010237421964250000N02B1100001464120000000000000                                           PARACETAMOL EP 1000MG/100ML(10MG/ML) SOL INY  CAJ X 10FCOVAL     1
CC0001048209605H202100000556580700000556580705/12/20210858     3300009237421964250000N02B1100001464120000000000000                                           PARACETAMOL EP 1000MG/100ML(10MG/ML) SOL INY  CAJ X 10FCOVAL     3
CC0001048209605H202100000556580700000556580705/12/20211529    31500065237421964250000V07A1300000502600000000000000                                                                                AGUA ESTERIL x 10 mlAMP     3
