CC0000080424776H202100000556588100000556588105/12/20210832     3300009237421964250000B1AB0200003939510000000000000                 ENOXAPARINA SODICA 40MG/0.4ML(100MG/ML) SOL INY INST CAJ X 2JERPREL X 0.4ML TECHDOWJRP     1
CC0000080424776H202100000556588100000556588105/12/20211839    31500534237421964250000E1AB0200000199290000000000000                                                            SOLUCION SALINA 0.9% SLN INY BO X 100 MLBIN     1
CC0000080424776H202100000556588100000556588105/12/20211843    31500088237421964250000E1AD0300000199490000000000000                                         LACTATO RINGER USP (HARTMANN)  SOL INY  BOL X 1000ML BAXTERBIN     1
CC0000080424776H202100000556588100000556588105/12/20210833     3300009237421964250000J3CB2100000547740000000000000                                                                      CIPRO IV SLN INY 400 Mg/200 MLFCO     2
CC0000080424776H202100000556588100000556588105/12/20211251     3300009237421964250000N2BE2400001313800000000000000                                                                           SINALGEN TAB 5/325 MG /R/TAB     1
CC0000080424776H202100000556588100000556588105/12/20210832     3300009237421964250000N2BE2400001313800000000000000                                                                           SINALGEN TAB 5/325 MG /R/TAB     2
CC0000080424776H202100000556588100000556588105/12/20212107     3300004237421964250000N02B1100001464120000000000000                                           PARACETAMOL EP 1000MG/100ML(10MG/ML) SOL INY  CAJ X 10FCOVAL     1
CC0000080424776H202100000556588100000556588105/12/20210832     3300009237421964250000N02B1100001464120000000000000                                           PARACETAMOL EP 1000MG/100ML(10MG/ML) SOL INY  CAJ X 10FCOVAL     2
CC0000080424776H202100000556588100000556588105/12/20211617     3300010237421964250000N2AA0200000301600000000000000                                                                        HIDROMORFONA Sln Iny 2 mg/mlAMP     1
