CC0001140828909U202100050131931000050131931005/12/20212235    3150064723942196432000024674000001138340000000000000   JERINGA 3PARTES C/A 10ML REF JEHL005 CAJ X 100 ALFASAFE  21GX1 PULG 1/2 PULG BN EXENTO-DC.417/202PZA     1
CC0001047366237U202100050131931000050131931005/12/20212235    3150064723942196432000024674000001138340000000000000   JERINGA 3PARTES C/A 10ML REF JEHL005 CAJ X 100 ALFASAFE  21GX1 PULG 1/2 PULG BN EXENTO-DC.417/202PZA     1
CC0001140828909U202100050131931000050131931005/12/20212235    3150064723942196432000042743200003929860000000000000                   GASA ADHESIVA STRETCH REF 02038-00 ROL X 10MT FIXOMULL 15CM BN EXENTO-DC.417/2020CMT    40
CC0001047366237U202100050131931000050131931005/12/20212235    3150064723942196432000011082700001620070000000000000                                                               EQUIPO SET PRIMARIO C/CLAVE REF 14001BOL     1
CC0001047366237U202100050131931000050131931005/12/20212235    3150064723942196432000001956000001620610000000000000                                                                      CONECTOR MICRO CLAVE LAT-MC100SOB     1
CC0001047366237U202100050131931000050131931005/12/20212235    31500647239421964320000Q1AA7100000610620000000000000                                                            CATETER PERIFE INTROCAN # 18G 4251687-04SIN     1
CC0001047366237U202100050131931000050131931005/12/20212235    3150064723942196432000030936900001431840000000000000                                                                                              BURETABOL     1
CC0001047366237U202100050131931000050131931005/12/20212235    3150064723942196432000016830000000970620000000000000                                                             SIST FIJACION CAT PERIFERICO 6.5X7 1683SOB     1
CC0000032856400U202100050131931000050131931005/12/20212235    31500647239421964320000E1AB0500003888400000000000000                                                              SOLUCION SALINA 0.9% SLN INY X 1000 MLBOL     1
CC0001047366237U202100050131931000050131931005/12/20212235    31500647239421964320000E1AB0300003888390000000000000                                                            SOLUCION SALINA 0.9% SLN INY BO X 500 MLBOL     1
CC0001140828909U202100050131931000050131931005/12/20212235    31500647239421964320000E1AB0200000199290000000000000                                                            SOLUCION SALINA 0.9% SLN INY BO X 100 MLBIN     1
