RC0001043033404H202100015122546900015122546905/12/20210145    3150045323742196425000011060400001010330000000000000                                                            SENSOR PULSOX SPO2 LNCS NEONATAL MP00792PZA     1
RC0001043033404H202100015122546900015122546905/12/20210145    3150045323742196425000011082700001620070000000000000                                                               EQUIPO SET PRIMARIO C/CLAVE REF 14001BOL     1
RC0001043033404H202100015122546900015122546905/12/20210145    3150045323742196425000011082200001407940000000000000                                                              EQUIPO EXT MICROTUBO Y 2 VALVUL 2N8371SOB     1
RC0001043033404H202100015122546900015122546905/12/20210145    31500453237421964250000Q1AA7400003911720000000000000                                                            CATETER PERIFE INTROCAN # 24G 4251601-04SOB     2
RC0001043033404H202100015122546900015122546905/12/20210145    3150045323742196425000030936900001431840000000000000                                                                                              BURETABOL     1
RC0001043033404H202100015122546900015122546905/12/20210145    31500453237421964250000E1AD0200003888320000000000000                                                                              HARTMAN SLN INY 500 MLBOL     2
