CC0000032856400U202100000556580900000556580905/12/20212253    31500647239421964320000E1AB0500003888400000000000000                                                              SOLUCION SALINA 0.9% SLN INY X 1000 MLBOL     1
CC0000032856400U202100000556580900000556580905/12/20211236    31901806239421964320000E1AB0500003888400000000000000                                                              SOLUCION SALINA 0.9% SLN INY X 1000 MLBOL     1
CC0000032856400U202100000556580900000556580905/12/20210817    31901806239421964320000E1AD0300000199490000000000000                                         LACTATO RINGER USP (HARTMANN)  SOL INY  BOL X 1000ML BAXTERBIN     1
CC0000032856400U202100000556580900000556580905/12/20210048    31500194239421964320000E1AD0300000199490000000000000                                         LACTATO RINGER USP (HARTMANN)  SOL INY  BOL X 1000ML BAXTERBIN     2
CC0000032856400U202100000556580900000556580905/12/20211802     3300004239421964320000A03BB100003889180000000000000                                      HIOSCINA BUTIL BROMURO 20MG/ML SOL INY CAJ X 100AMP X 1ML RYANAMP     1
CC0000032856400U202100000556580900000556580905/12/20212205     3300010239421964320000J01CR300003913920000000000000                                                     AUROTAZ-P (4+0.5)GR POLV INY CAJ X 1VIAL X 50MLVAL     1
CC0000032856400U202100000556580900000556580905/12/20211225     3300004239421964320000J01CR300003913920000000000000                                                     AUROTAZ-P (4+0.5)GR POLV INY CAJ X 1VIAL X 50MLVAL     1
CC0000032856400U202100000556580900000556580905/12/20211034     3300004239421964320000J01CR300003913920000000000000                                                     AUROTAZ-P (4+0.5)GR POLV INY CAJ X 1VIAL X 50MLVAL     1
CC0000032856400U202100000556580900000556580905/12/20210034     3300004239421964320000M01A2000001664970000000000000                                                               DICLOFENACO SODICO SLN INY 75 MG/3 MLAMP     1
CC0000032856400U202100000556580900000556580905/12/20212205     3300010239421964320000N2BE2200001252930000000000000                                                                             ACETAMINOFEN Tab 500 MGTAB     2
CC0000032856400U202100000556580900000556580905/12/20211802     3300004239421964320000N2BE2200001252930000000000000                                                                             ACETAMINOFEN Tab 500 MGTAB     2
