CC0000080424776H202100015012625900015012625905/12/20211948    3190062723742196425000022426800001140510000000000000                                                                    EQUIPO MACROGOTEO BAXTER MRC0001SOB     1
CC0000084006612H202100015012625900015012625905/12/20211948    3190062723742196425000022426800001140510000000000000                                                                    EQUIPO MACROGOTEO BAXTER MRC0001SOB     1
CC0000072199816H202100015012625900015012625905/12/20211948    3190062723742196425000011082700001620070000000000000                                                               EQUIPO SET PRIMARIO C/CLAVE REF 14001BOL     1
PA0000559421938H202100015012625900015012625905/12/20211948    3190062723742196425000011082700001620070000000000000                                                               EQUIPO SET PRIMARIO C/CLAVE REF 14001BOL     1
CC0000080424776H202100015012625900015012625905/12/20211948    3190062723742196425000030936900001431840000000000000                                                                                              BURETABOL     1
CC0000084006612H202100015012625900015012625905/12/20211948    3190062723742196425000030936900001431840000000000000                                                                                              BURETABOL     1
