CC0000072225715U202100050131926300050131926305/12/20211316    3190180623942196432000024674000001138340000000000000   JERINGA 3PARTES C/A 10ML REF JEHL005 CAJ X 100 ALFASAFE  21GX1 PULG 1/2 PULG BN EXENTO-DC.417/202PZA     2
CC0000072225715U202100050131926300050131926305/12/20211316    3190180623942196432000011082700001620070000000000000                                                               EQUIPO SET PRIMARIO C/CLAVE REF 14001BOL     1
CC0000072225715U202100050131926300050131926305/12/20211316    3190180623942196432000030936900001431840000000000000                                                                                              BURETABOL     1
