RC0001046724543U202100050131926200050131926205/12/20211304    3190318023942196432000024674000001138340000000000000   JERINGA 3PARTES C/A 10ML REF JEHL005 CAJ X 100 ALFASAFE  21GX1 PULG 1/2 PULG BN EXENTO-DC.417/202PZA     3
RC0001046724543U202100050131926200050131926205/12/20211304    3190318023942196432000011082700001620070000000000000                                                               EQUIPO SET PRIMARIO C/CLAVE REF 14001BOL     1
RC0001046724543U202100050131926200050131926205/12/20211304    3190318023942196432000001956000001620610000000000000                                                                      CONECTOR MICRO CLAVE LAT-MC100SOB     1
RC0001046724543U202100050131926200050131926205/12/20211304    31903180239421964320000Q1AA7400003911720000000000000                                                            CATETER PERIFE INTROCAN # 24G 4251601-04SOB     1
RC0001046724543U202100050131926200050131926205/12/20211304    3190318023942196432000030936900001431840000000000000                                                                                              BURETABOL     1
RC0001046724543U202100050131926200050131926205/12/20211304    3190318023942196432000000602600001259280000000000000                                                             APOSITO TEGADERM IV PD 1610 5CM X 5.7CMSOB     1
RC0001046724543U202100050131926200050131926205/12/20211304    31903180239421964320000E1AD0300000199490000000000000                                         LACTATO RINGER USP (HARTMANN)  SOL INY  BOL X 1000ML BAXTERBIN     1
RC0001046724543U202100050131926200050131926205/12/20211304    3190318023942196432000011137100001419310000000000000                                                               TIRA GLUCOMETRIA FREESTYLE H OPTIUM .PZA     1
