CC0000022467890H202100000556579700000556579705/12/20212213    31902138237421964250000E1AB0200000199290000000000000                                                            SOLUCION SALINA 0.9% SLN INY BO X 100 MLBIN     2
CC0000022467890H202100000556579700000556579705/12/20210640    31500206237421964250000E1AB0700003888350000000000000                                                            SOLUCION SALINA 0.9% SLN INY BO X 250 MLBOL     1
CC0000022467890H202100000556579700000556579705/12/20210638    31500206237421964250000E1AB0300003888390000000000000                                                            SOLUCION SALINA 0.9% SLN INY BO X 500 MLBOL     2
CC0000022467890H202100000556579700000556579705/12/20210029    31901156237421964250000E1AB0500003888400000000000000                                                              SOLUCION SALINA 0.9% SLN INY X 1000 MLBOL     1
CC0000022467890H202100000556579700000556579705/12/20212142     3300004237421964250000C7AB1000001382030000000000000                                                                   NOREPINEFRINA SLN INY 4 MG / 4 MLAMP     2
CC0000022467890H202100000556579700000556579705/12/20211749     3300010237421964250000N02B1100001464120000000000000                                           PARACETAMOL EP 1000MG/100ML(10MG/ML) SOL INY  CAJ X 10FCOVAL     1
CC0000022467890H202100000556579700000556579705/12/20210859     3300009237421964250000N02B1100001464120000000000000                                           PARACETAMOL EP 1000MG/100ML(10MG/ML) SOL INY  CAJ X 10FCOVAL     2
CC0000022467890H202100000556579700000556579705/12/20211511     3300010237421964250000R5CB0300003841380000000000000                                                                     FLUIMUCIL SLN INY 300 MG X 3 MLAMP     1
CC0000022467890H202100000556579700000556579705/12/20210859     3300009237421964250000R5CB0300003841380000000000000                                                                     FLUIMUCIL SLN INY 300 MG X 3 MLAMP     1
CC0000022467890H202100000556579700000556579705/12/20210859     3300009237421964250000V06D1400000968430000000000000                                                                              JEVITY iquido x 500 mlFCO     2
CC0000022467890H202100000556579700000556579705/12/20211626     3300010237421964250000N2AA0200000301600000000000000                                                                        HIDROMORFONA Sln Iny 2 mg/mlAMP     3
CC0000022467890H202100000556579700000556579705/12/20210859     3300009237421964250000B01AB300000513340000000000000                                                                        CLENOX SLN INY 20 MG/ 0.2 MLJRP     1
CC0000022467890H202100000556579700000556579705/12/20210859     3300009237421964250000J1KF0500001317760000000000000                                                                      MEROPENEM POLVO INY 500 MG /R/CAJ     3
CC0000022467890H202100000556579700000556579705/12/20211750     3300010237421964250000S01A0800001311370000000000000                                                                    GENTAMICINA 0.3 % Sln Oft x 6 mlFCO     1
CC0000022467890H202100000556579700000556579705/12/20210859     3300009237421964250000A02BC700001684270000000000000                                                            OMEPRAZOL 40MG POLVO LIOFILIZADO AMPOLLAVAL     1
CC0000022467890H202100000556579700000556579705/12/20211527    31500065237421964250000V07A1300000502600000000000000                                                                                AGUA ESTERIL x 10 mlAMP     3
