CC0001140839787H202100000556584700000556584705/12/20211551     3300010237421964250000A2BC0900000200150000000000000                                                                               ORAZOLE Sln Iny 40 mgCIN     1
CC0001140839787H202100000556584700000556584705/12/20211503     3300010237421964250000A4AD0200000202990000000000000                                                                     PLITICAN HCL Sln Iny 50 mg/2 mlAMP     1
CC0001140839787H202100000556584700000556584705/12/20210816     3300009237421964250000A4AD0200000202990000000000000                                                                     PLITICAN HCL Sln Iny 50 mg/2 mlAMP     4
CC0001140839787H202100000556584700000556584705/12/20211630     3300010237421964250000A03F0300001626860000000000000                                                                   METOCLOPRAMIDA SLN INY 10 MG/2 MLAMP     4
CC0001140839787H202100000556584700000556584705/12/20210816     3300009237421964250000B1AB0200003939510000000000000                 ENOXAPARINA SODICA 40MG/0.4ML(100MG/ML) SOL INY INST CAJ X 2JERPREL X 0.4ML TECHDOWJRP     1
CC0001140839787H202100000556584700000556584705/12/20210223     3300009237421964250000B1AB0200003939510000000000000                 ENOXAPARINA SODICA 40MG/0.4ML(100MG/ML) SOL INY INST CAJ X 2JERPREL X 0.4ML TECHDOWJRP     1
CC0001140839787H202100000556584700000556584705/12/20211139    31500387237421964250000E1AB0200000199290000000000000                                                            SOLUCION SALINA 0.9% SLN INY BO X 100 MLBIN     3
CC0001140839787H202100000556584700000556584705/12/20211139    31500387237421964250000E1AB0700003888350000000000000                                                            SOLUCION SALINA 0.9% SLN INY BO X 250 MLBOL     1
CC0001140839787H202100000556584700000556584705/12/20211139    31500387237421964250000E1AB0300003888390000000000000                                                            SOLUCION SALINA 0.9% SLN INY BO X 500 MLBOL     1
CC0001140839787H202100000556584700000556584705/12/20211059     3300009237421964250000C2AB0200001300760000000000000                                                                                  ALDOMET Tab 500 mgTAB     3
CC0001140839787H202100000556584700000556584705/12/20212230     3300004237421964250000C07A1100001015770000000000000                                                                   TRANDATE SLN INY 100 MG/20 ML /R/AMP     1
CC0001140839787H202100000556584700000556584705/12/20211330     3300009237421964250000C2DE1400001277050000000000000                                                                         NIFEDIPINO CAPSULA LM 30 MGCAP     1
CC0001140839787H202100000556584700000556584705/12/20210223     3300009237421964250000C2DE1400001277050000000000000                                                                         NIFEDIPINO CAPSULA LM 30 MGCAP     4
CC0001140839787H202100000556584700000556584705/12/20210816     3300009237421964250000C7FA0200001277980000000000000                                                                                    NORVAS TAB 10 MGTAB     2
CC0001140839787H202100000556584700000556584705/12/20210816     3300009237421964250000C09CA400001277130000000000000                                                                                  LOSARTAN TAB 50 MGTAB     3
CC0001140839787H202100000556584700000556584705/12/20211330     3300009237421964250000H03A0400001278890000000000000                                                                                  EUTIROX TAB 50 MCGTAB     1
CC0001140839787H202100000556584700000556584705/12/20210816     3300009237421964250000H03A0400001278890000000000000                                                                                  EUTIROX TAB 50 MCGTAB     1
CC0001140839787H202100000556584700000556584705/12/20212230     3300004237421964250000J01DA300001239950000000000000                                                            CEFAZOLINA SODICA POLVO LIOF SLN INY 1 GVAL     3
CC0001140839787H202100000556584700000556584705/12/20212229     3300004237421964250000J01DA300001239950000000000000                                                            CEFAZOLINA SODICA POLVO LIOF SLN INY 1 GVAL     1
CC0001140839787H202100000556584700000556584705/12/20210223     3300009237421964250000J01DA300001239950000000000000                                                            CEFAZOLINA SODICA POLVO LIOF SLN INY 1 GVAL     4
CC0001140839787H202100000556584700000556584705/12/20211330     3300009237421964250000N02B1100001464120000000000000                                           PARACETAMOL EP 1000MG/100ML(10MG/ML) SOL INY  CAJ X 10FCOVAL     1
CC0001140839787H202100000556584700000556584705/12/20210816     3300009237421964250000N02B1100001464120000000000000                                           PARACETAMOL EP 1000MG/100ML(10MG/ML) SOL INY  CAJ X 10FCOVAL     1
CC0001140839787H202100000556584700000556584705/12/20210223     3300009237421964250000N02B1100001464120000000000000                                           PARACETAMOL EP 1000MG/100ML(10MG/ML) SOL INY  CAJ X 10FCOVAL     5
CC0001140839787H202100000556584700000556584705/12/20211006     3300009237421964250000A12CC100001690470000000000000                                                                  MAGNESIO SULFATO 20% SLN INY 10 MLAMP     7
CC0001140839787H202100000556584700000556584705/12/20211139    31500387237421964250000V07A1300000502600000000000000                                                                                AGUA ESTERIL x 10 mlAMP     3
CC0001140839787H202100000556584700000556584705/12/20211541     3300010237421964250000A04AA200003932460000000000000                                                 ONDAX 4MG/2ML(2MG/ML) SOL INY INST CAJ X 1AMP X 2MLAMP     4
