PA0000559421938A202100000027829700000027829705/12/20210737    3190333624042196419000011808200000218180000000000000                                                               MIDAZOLAM SOL INY  15mg/3mL  DORMICUMAMP     1
PA0000559421938A202100000027829700000027829705/12/20210737    31903336240421964190000N1BA2400001687720000000000000                                                    LIDOCAINA 2% SOL INY  CAJ X 50AMP X 10ML CORPAULAMP     1
PA0000559421938A202100000027829700000027829705/12/20210737    3190333624042196419000011082700001620070000000000000                                                               EQUIPO SET PRIMARIO C/CLAVE REF 14001BOL     1
PA0000559421938A202100000027829700000027829705/12/20210737    31903336240421964190000N5CD0300000218170000000000000                                                              DORMICUM IV-IM 5MG/5ML(1MG/ML) SOL INYAMP     1
PA0000559421938A202100000027829700000027829705/12/20210737    3190333624042196419000021056700001212260000000000000                                                              CAT ANESTESIA EPIDURAL 19GA JC-05400-ESOB     1
PA0000559421938A202100000027829700000027829705/12/20210737    31903336240421964190000Q1AA3300001585140000000000000                                                                         APOSITO TEGADERM 10*12 1626SOB     1
PA0000559421938A202100000027829700000027829705/12/20210737    31903336240421964190000Q1A13500001585200000000000000                        JERINGA PUNTA CAT SIN AGUJA REF 309620 CAJ X 40   50ML BN EXENTO-DC.417/2020SOB     1
PA0000559421938A202100000027829700000027829705/12/20210737    3190333624042196419000019488700000753270000000000000                                                                              VICRYL 3-0 SH1 VCP311HSOB     1
PA0000559421938A202100000027829700000027829705/12/20210737    3190333624042196419000019487500000602970000000000000                                                                           VICRYL 2-0 CT1 90 VCP345HSIN     1
PA0000559421938A202100000027829700000027829705/12/20210737    3190333624042196419000015944000000632490000000000000                                                                           MONOCRYL 3-0 PS2  MCP427HSIN     1
PA0000559421938A202100000027829700000027829705/12/20210737    3190333624042196419000012474000000232230000000000000                                                                SUTURA ETHILON 4-0 SC-20 45CM 14502TSIN     1
PA0000559421938A202100000027829700000027829705/12/20210737    3190333624042196419000012473200000232210000000000000                                                                 SUTURA ETHILON 3-0 SC-24 45CM  163TSIN     1
PA0000559421938A202100000027829700000027829705/12/20210737    3190333624042196419000017565400000232590000000000000                                                                             PROLENE 1 75 CT-1 8425HSIN     2
PA0000559421938A202100000027829700000027829705/12/20210737    3190333624042196419000043879100001138200000000000000                                                                  HOJA BISTURI # 15 CSSB 15 01002003SOB     1
PA0000559421938A202100000027829700000027829705/12/20210737    3190333624042196419000043879200001138180000000000000                                                                                   HOJA BISTURI # 11SOB     1
PA0000559421938A202100000027829700000027829705/12/20210737    3190333624042196419000043879400001138170000000000000                                                                  HOJA BISTURI # 10 CSSB 10 01002000SOB     2
PA0000559421938A202100000027829700000027829705/12/20210737    31903336240421964190000E1AB0300003888390000000000000                                                            SOLUCION SALINA 0.9% SLN INY BO X 500 MLBOL     2
PA0000559421938A202100000027829700000027829705/12/20210737    3190333624042196419000016830000000970620000000000000                                                             SIST FIJACION CAT PERIFERICO 6.5X7 1683SOB     1
PA0000559421938A202100000027829700000027829705/12/20210737    31903336240421964190000Q1AA7100000610620000000000000                                                            CATETER PERIFE INTROCAN # 18G 4251687-04SIN     1
PA0000559421938A202100000027829700000027829705/12/20210737    3190333624042196419000035356500003919000000000000000                                                                                        LLAVE 3 VIASSOB     1
PA0000559421938A202100000027829700000027829705/12/20210737    3190333624042196419000022425200000548240000000000000                       EXTENSION DE ANESTESIA REF 1139 SOB X 1 SHERLEG  ADULTO BN EXENTO-DC.417/2020SIN     1
PA0000559421938A202100000027829700000027829705/12/20210737    3190333624042196419000022426800001140510000000000000                                                                    EQUIPO MACROGOTEO BAXTER MRC0001SOB     1
PA0000559421938A202100000027829700000027829705/12/20210737    3190333624042196419000020750600000296780000000000000                                                                PLACA ELECTRO RETORNO PACIENTE E7506SIN     1
PA0000559421938A202100000027829700000027829705/12/20210737    3190333624042196419000024674000001138340000000000000   JERINGA 3PARTES C/A 10ML REF JEHL005 CAJ X 100 ALFASAFE  21GX1 PULG 1/2 PULG BN EXENTO-DC.417/202PZA     4
PA0000559421938A202100000027829700000027829705/12/20210737    3190333624042196419000024673000001411210000000000000                                                                  JERINGA DESECHABLE 3 ML 21 X 1 1/2SOB     2
PA0000559421938A202100000027829700000027829705/12/20210737    3190333624042196419000053074400000607910000000000000                                                               GASA ESTERIL 10*10 SOBRE X 3 UNIDADESSOB     2
PA0000559421938A202100000027829700000027829705/12/20210737    3190333624042196419000038568100000258050000000000000                                                                         CANULA OXIGENO NASAL ADULTOSIN     1
PA0000559421938A202100000027829700000027829705/12/20210737    3190333624042196419000011085200001585390000000000000                                                                       GUANTE QUIRURGICO TALLA 7 1/2SOB     1
PA0000559421938A202100000027829700000027829705/12/20210737    3190333624042196419000011085100001082120000000000000                                                                           GUANTE QUIRURGICO TALLA 7SOB     1
PA0000559421938A202100000027829700000027829705/12/20210737    3190333624042196419000043485100001618510000000000000                GUANTE QUIRURGICO DE LATEX REF 2D72N65X CAJ X 50 PROTEXIS  6.5 BN EXENTO-DC.417/2020SOB     5
PA0000559421938A202100000027829700000027829705/12/20210737    3190333624042196419000033485000001049200000000000000                                                                           GUANTE QUIRURGICO TALLA 6SOB     1
PA0000559421938A202100000027829700000027829705/12/20210737    3190333624042196419000000100600000223090000000000000                                                                      AGUJA DESECHABLE 18G X 1 1/2 PSIN     1
PA0000559421938A202100000027829700000027829705/12/20210737    31903336240421964190000E1AD0200003888320000000000000                                                                              HARTMAN SLN INY 500 MLBOL     1
PA0000559421938A202100000027829700000027829705/12/20210737    31903336240421964190000E1AB0500003888400000000000000                                                              SOLUCION SALINA 0.9% SLN INY X 1000 MLBOL     4
PA0000559421938A202100000027829700000027829705/12/20210737    31903336240421964190000E1AB0200000199290000000000000                                                            SOLUCION SALINA 0.9% SLN INY BO X 100 MLBIN     1
PA0000559421938A202100000027829700000027829705/12/20210737    31903336240421964190000R3CA0400000777470000000000000                                                               ADRENALINA HCL SLN INY 1 MG / ML RYANAMP     5
PA0000559421938A202100000027829700000027829705/12/20210737    31903336240421964190000N2BB0500000217140000000000000                                                                          NOVALGINA Sln Iny 1 g/2 mlAMP     1
PA0000559421938A202100000027829700000027829705/12/20210737    31903336240421964190000N2BB1100000217160000000000000                                                                      NOVALGINA Sln Iny 2.5 g x 5 mlAMP     1
PA0000559421938A202100000027829700000027829705/12/20210737    31903336240421964190000M01A0400001341250000000000000                                                                              DYNASTAT AMP 40 MG /R/VAL     1
PA0000559421938A202100000027829700000027829705/12/20210737    31903336240421964190000S2BA0100000468160000000000000                                                                          SOLU-CORTEF SNL INY 100 MGVAL     2
PA0000559421938A202100000027829700000027829705/12/20210737    31903336240421964190000H02AB500001664950000000000000                                                            DEXAMETASONA SLN INY 8 MG/2 ML AMP /CDS/AMP     1
PA0000559421938A202100000027829700000027829705/12/20210737    31903336240421964190000N01B0600003888900000000000000                                                    BUPINEST 75MG/10ML(0.75%) SOL INY CAJ X 24AMPACKAPC     2
PA0000559421938A202100000027829700000027829705/12/20210737    31903336240421964190000N01B0200003888110000000000000                                           ROXICAINA SE 100MG/10ML(1%) SOL INY CAJ X 24AMPACK X 10MLAPC     1
PA0000559421938A202100000027829700000027829705/12/20210737    31903336240421964190000C01C0300001261020000000000000                                                               ETILEFRINA HCL SLN INY 10 MG/1 ML /R/AMP     1
PA0000559421938A202100000027829700000027829705/12/20210737    31903336240421964190000A3BA0100001109400000000000000                                                                          ATROPINA SLN INY 1 MG / MLAMP     1
PA0000559421938A202100000027829700000027829705/12/20210737    31903336240421964190000N1AH0200003906560000000000000                                                                     FENTANIL Iny 0.05 mg/ml x 10 mlAMP     1
