CC0001045685077H202100000556586000000556586005/12/20210512     3300009237421964250000A6AC0200001467010000000000000                                                             LACTULAX JARABE 66.7G/100ML SOX15ML /R/SOB     2
CC0001045685077H202100000556586000000556586005/12/20211516    31903165237421964250000E1AB0300003888390000000000000                                                            SOLUCION SALINA 0.9% SLN INY BO X 500 MLBOL     1
CC0001045685077H202100000556586000000556586005/12/20211139     3300009237421964250000J01D1300001469600000000000000                                                                               POZINEG POLVO INY 1 GVAL     6
CC0001045685077H202100000556586000000556586005/12/20211517     3300010237421964250000J01FF200003888100000000000000                                                                             EUROCLIN SLN INY 600 MGAMP     1
CC0001045685077H202100000556586000000556586005/12/20211138     3300009237421964250000J01FF200003888100000000000000                                                                             EUROCLIN SLN INY 600 MGAMP     1
CC0001045685077H202100000556586000000556586005/12/20210507     3300009237421964250000J01FF200003888100000000000000                                                                             EUROCLIN SLN INY 600 MGAMP     2
CC0001045685077H202100000556586000000556586005/12/20211517     3300010237421964250000N2BB1100000217160000000000000                                                                      NOVALGINA Sln Iny 2.5 g x 5 mlAMP     1
CC0001045685077H202100000556586000000556586005/12/20211139     3300009237421964250000N2BB1100000217160000000000000                                                                      NOVALGINA Sln Iny 2.5 g x 5 mlAMP     3
CC0001045685077H202100000556586000000556586005/12/20211703     3300010237421964250000N02B1100001464120000000000000                                           PARACETAMOL EP 1000MG/100ML(10MG/ML) SOL INY  CAJ X 10FCOVAL     4
CC0001045685077H202100000556586000000556586005/12/20211139     3300009237421964250000N02B1100001464120000000000000                                           PARACETAMOL EP 1000MG/100ML(10MG/ML) SOL INY  CAJ X 10FCOVAL     1
CC0001045685077H202100000556586000000556586005/12/20211508    31500170237421964250000V07A1300000502600000000000000                                                                                AGUA ESTERIL x 10 mlAMP     5
