CC0001143115935H202100000556594100000556594105/12/20211047    31500387237421964250000A12CC100001690470000000000000                                                                  MAGNESIO SULFATO 20% SLN INY 10 MLAMP     1
CC0001143115935H202100000556594100000556594105/12/20211900    31500387237421964250000H02AB700000585860000000000000                                                                HIDROCORTISONA SUCCI POL LIOF 100 MGVAL     1
CC0001143115935H202100000556594100000556594105/12/20211010    31500387237421964250000N01A0400003939010000000000000                                               MAYOPROFOL 200MG/20ML(1%) EMUL INY CAJ X 1VIAL X 20MLVAL     5
CC0001143115935H202100000556594100000556594105/12/20210953    31500387237421964250000N01A0400003939010000000000000                                               MAYOPROFOL 200MG/20ML(1%) EMUL INY CAJ X 1VIAL X 20MLVAL    19
