RC0001046739436H202100000556591600000556591605/12/20210842     3300009237421964250000A07F0600001089820000000000000                                                                     FLORATIL POLVO SOBRE 250 MG /R/SOB     2
RC0001046739436H202100000556591600000556591605/12/20210842     3300009237421964250000A12C0500000947840000000000000                                                               SULZINC SLN ORAL 2 MG/ML X 120 ML /R/FCO     1
RC0001046739436H202100000556591600000556591605/12/20210842     3300009237421964250000N2BE1100000836430000000000000                                             ACETAMINOFEN 150MG/5ML(3%) JBE INST FCO X 60ML AMER GENCAJ     1
