CC0000022352292H202100000556588400000556588405/12/20211834    31901189237421964250000E1AD0300000199490000000000000                                         LACTATO RINGER USP (HARTMANN)  SOL INY  BOL X 1000ML BAXTERBIN     2
CC0000022352292H202100000556588400000556588405/12/20211520     3300010237421964250000C09CA400001277130000000000000                                                                                  LOSARTAN TAB 50 MGTAB     1
CC0000022352292H202100000556588400000556588405/12/20211141     3300009237421964250000C09CA400001277130000000000000                                                                                  LOSARTAN TAB 50 MGTAB     1
CC0000022352292H202100000556588400000556588405/12/20211141     3300009237421964250000N02B1100001464120000000000000                                           PARACETAMOL EP 1000MG/100ML(10MG/ML) SOL INY  CAJ X 10FCOVAL     4
CC0000022352292H202100000556588400000556588405/12/20211520     3300010237421964250000C7AB0100001276990000000000000                                                                            BETOPROLOL TAB 50 MG /R/TAB     1
CC0000022352292H202100000556588400000556588405/12/20211141     3300009237421964250000C7AB0100001276990000000000000                                                                            BETOPROLOL TAB 50 MG /R/TAB     1
CC0000022352292H202100000556588400000556588405/12/20211141     3300009237421964250000H03AA200001391520000000000000                                                                            LEVOTIROXINA TAB 100 MCGTAB     1
CC0000022352292H202100000556588400000556588405/12/20211141     3300009237421964250000H03AA100001391540000000000000                                                                             LEVOTIROXINA TAB 50 MCGTAB     2
CC0000022352292H202100000556588400000556588405/12/20210653     3300009237421964250000H03AA100001391540000000000000                                                                             LEVOTIROXINA TAB 50 MCGTAB     5
CC0000022352292H202100000556588400000556588405/12/20211141     3300009237421964250000A02BC700001684270000000000000                                                            OMEPRAZOL 40MG POLVO LIOFILIZADO AMPOLLAVAL     1
CC0000022352292H202100000556588400000556588405/12/20211512    31500170237421964250000V07A1300000502600000000000000                                                                                AGUA ESTERIL x 10 mlAMP     5
