CC0001002134630U202100050131926100050131926105/12/20211246    3190180623942196432000011082700001620070000000000000                                                               EQUIPO SET PRIMARIO C/CLAVE REF 14001BOL     1
CC0001002134630U202100050131926100050131926105/12/20211246    3190180623942196432000030936900001431840000000000000                                                                                              BURETABOL     1
CC0001002134630U202100050131926100050131926105/12/20211246    31901806239421964320000E1AD0300000199490000000000000                                         LACTATO RINGER USP (HARTMANN)  SOL INY  BOL X 1000ML BAXTERBIN     1
