CC0001043116562U202100050131929200050131929205/12/20211737    3190201023942196432000000504100000232630000000000000                                                                  SUTURA PROLENE 2-0 45CM SC26 8185TSIN     2
CC0001043116562U202100050131929200050131929205/12/20211737    3190201023942196432000011048600000223020000000000000                                                                 JERINGA VACUNACION 3ML C/AGU 302542SIN     1
CC0001002134630U202100050131929200050131929205/12/20211737    3190201023942196432000024674000001138340000000000000   JERINGA 3PARTES C/A 10ML REF JEHL005 CAJ X 100 ALFASAFE  21GX1 PULG 1/2 PULG BN EXENTO-DC.417/202PZA     3
CC0000032856400U202100050131929200050131929205/12/20211737    3190201023942196432000024674000001138340000000000000   JERINGA 3PARTES C/A 10ML REF JEHL005 CAJ X 100 ALFASAFE  21GX1 PULG 1/2 PULG BN EXENTO-DC.417/202PZA     1
CC0001043116562U202100050131929200050131929205/12/20211737    3190201023942196432000024674000001138340000000000000   JERINGA 3PARTES C/A 10ML REF JEHL005 CAJ X 100 ALFASAFE  21GX1 PULG 1/2 PULG BN EXENTO-DC.417/202PZA     2
CC0001085041540U202100050131929200050131929205/12/20211737    3190201023942196432000024674000001138340000000000000   JERINGA 3PARTES C/A 10ML REF JEHL005 CAJ X 100 ALFASAFE  21GX1 PULG 1/2 PULG BN EXENTO-DC.417/202PZA     1
CC0001043116562U202100050131929200050131929205/12/20211737    3190201023942196432000011047900000223010000000000000                                                                            JERINGA X 1ML REF 302579SIN     1
CC0001002134630U202100050131929200050131929205/12/20211737    3190201023942196432000011089300001083990000000000000                                                              GUANTE ESTERIL LATEX S/POLVO TALLA 7.5SOB     4
CC0001043116562U202100050131929200050131929205/12/20211737    3190201023942196432000011089300001083990000000000000                                                              GUANTE ESTERIL LATEX S/POLVO TALLA 7.5SOB     2
CC0001002134630U202100050131929200050131929205/12/20211737    3190201023942196432000013077800000471960000000000000                                                             GASA NO TEJIDA EST 7.5 X 7.5 SOB X 3 UNSOB     7
CC0001043116562U202100050131929200050131929205/12/20211737    3190201023942196432000013077800000471960000000000000                                                             GASA NO TEJIDA EST 7.5 X 7.5 SOB X 3 UNSOB     6
CC0001085041540U202100050131929200050131929205/12/20211737    3190201023942196432000011082700001620070000000000000                                                               EQUIPO SET PRIMARIO C/CLAVE REF 14001BOL     1
CC0001085041540U202100050131929200050131929205/12/20211737    3190201023942196432000030936900001431840000000000000                                                                                              BURETABOL     1
CC0001085041540U202100050131929200050131929205/12/20211737    31902010239421964320000E1AB0300003888390000000000000                                                            SOLUCION SALINA 0.9% SLN INY BO X 500 MLBOL     1
CC0001002134630U202100050131929200050131929205/12/20211737    31902010239421964320000E1AB0200000199290000000000000                                                            SOLUCION SALINA 0.9% SLN INY BO X 100 MLBIN     1
CC0001043116562U202100050131929200050131929205/12/20211737    31902010239421964320000E1AB0200000199290000000000000                                                            SOLUCION SALINA 0.9% SLN INY BO X 100 MLBIN     1
