CC0000003745913U202100050131927100050131927105/12/20211417    3190280023942196432000001956000001620610000000000000                                                                      CONECTOR MICRO CLAVE LAT-MC100SOB     1
CC0000003745913U202100050131927100050131927105/12/20211417    31902800239421964320000Q1AA7100000610620000000000000                                                            CATETER PERIFE INTROCAN # 18G 4251687-04SIN     1
CC0000003745913U202100050131927100050131927105/12/20211417    3190280023942196432000016830000000970620000000000000                                                             SIST FIJACION CAT PERIFERICO 6.5X7 1683SOB     1
