TI0001081819374U202100050131928600050131928605/12/20211617    3150061723942196432000024674000001138340000000000000   JERINGA 3PARTES C/A 10ML REF JEHL005 CAJ X 100 ALFASAFE  21GX1 PULG 1/2 PULG BN EXENTO-DC.417/202PZA     2
TI0001081819374U202100050131928600050131928605/12/20211617    3150061723942196432000011089300001083990000000000000                                                              GUANTE ESTERIL LATEX S/POLVO TALLA 7.5SOB     4
TI0001081819374U202100050131928600050131928605/12/20211617    3150061723942196432000013077800000471960000000000000                                                             GASA NO TEJIDA EST 7.5 X 7.5 SOB X 3 UNSOB     8
TI0001081819374U202100050131928600050131928605/12/20211617    3150061723942196432000000101000001101640000000000000                                                                  AGUJA DESECHABLE  23G X 1 1/2 PULGSOB     2
TI0001081819374U202100050131928600050131928605/12/20211617    31500617239421964320000E1AB0200000199290000000000000                                                            SOLUCION SALINA 0.9% SLN INY BO X 100 MLBIN     1
