CC0001129564191A202100000027828100000027828105/12/20210928    31903336240421964190000B1AB0100001227270000000000000                                             HEPAMAX 25000UI/5ML(5000UI/ML) SOL INY  CAJ X 25AMPX5MLAMP     1
CC0001129564191A202100000027828100000027828105/12/20210928    3190333624042196419000001956000001620610000000000000                                                                      CONECTOR MICRO CLAVE LAT-MC100SOB     4
CC0001129564191A202100000027828100000027828105/12/20210928    3190333624042196419000022425200000548240000000000000                       EXTENSION DE ANESTESIA REF 1139 SOB X 1 SHERLEG  ADULTO BN EXENTO-DC.417/2020SIN     1
CC0001129564191A202100000027828100000027828105/12/20210928    3190333624042196419000024674000001138340000000000000   JERINGA 3PARTES C/A 10ML REF JEHL005 CAJ X 100 ALFASAFE  21GX1 PULG 1/2 PULG BN EXENTO-DC.417/202PZA     2
CC0001129564191A202100000027828100000027828105/12/20210928    31903336240421964190000B5AA0100000718790000000000000                                                                         FLEXBUMIN 20% Sln Iny 50 mlBOL     1
CC0001129564191A202100000027828100000027828105/12/20210928    31903336240421964190000E1AB0200000199290000000000000                                                            SOLUCION SALINA 0.9% SLN INY BO X 100 MLBIN     1
CC0001129564191A202100000027828100000027828105/12/20210928    3190333624042196419000000504800004018100000000000000   SUTURA SINTETI ABSORBIBLE CT-2 REF J333H CAJ X 36 VICRYL 70CM - 2-0 VIOLETA BN EXENTO-DC.417/2020SOB     2
CC0001129564191A202100000027828100000027828105/12/20210928    3190333624042196419000018350800000232800000000000000                                                                                 SEDA 0 S.H 75 K834HSIN     1
CC0001129564191A202100000027828100000027828105/12/20210928    3190333624042196419000043879100001138200000000000000                                                                  HOJA BISTURI # 15 CSSB 15 01002003SOB     1
CC0001129564191A202100000027828100000027828105/12/20210928    3190333624042196419000011085300001082140000000000000                                                                           GUANTE QUIRURGICO TALLA 8SOB     3
CC0001129564191A202100000027828100000027828105/12/20210928    3190333624042196419000011085100001082120000000000000                                                                           GUANTE QUIRURGICO TALLA 7SOB     3
CC0001129564191A202100000027828100000027828105/12/20210928    3190333624042196419000043485100001618510000000000000                GUANTE QUIRURGICO DE LATEX REF 2D72N65X CAJ X 50 PROTEXIS  6.5 BN EXENTO-DC.417/2020SOB     2
CC0001129564191A202100000027828100000027828105/12/20210928    3190333624042196419000053074400000607910000000000000                                                               GASA ESTERIL 10*10 SOBRE X 3 UNIDADESSOB     4
CC0001129564191A202100000027828100000027828105/12/20210928    3190333624042196419000020042600000633850000000000000                                                                                       ASEPTOJERINGASIN     1
CC0001129564191A202100000027828100000027828105/12/20210928    3190333624042196419000024675000001585130000000000000                                                                    JERINGA DESECHABLE 50 ml S/AGUJASOB     1
CC0001129564191A202100000027828100000027828105/12/20210928    3190333624042196419000044370800000224140000000000000                                                                                IOBAN 2 90 X 45 6650SIN     1
