RC0001063188441H202100015122546700015122546705/12/20210045    3150045323742196425000011060400001010330000000000000                                                            SENSOR PULSOX SPO2 LNCS NEONATAL MP00792PZA     1
TI0001016596456H202100015122546700015122546705/12/20210045    3150045323742196425000024674000001138340000000000000   JERINGA 3PARTES C/A 10ML REF JEHL005 CAJ X 100 ALFASAFE  21GX1 PULG 1/2 PULG BN EXENTO-DC.417/202PZA    15
RC0001063188441H202100015122546700015122546705/12/20210045    3150045323742196425000024674000001138340000000000000   JERINGA 3PARTES C/A 10ML REF JEHL005 CAJ X 100 ALFASAFE  21GX1 PULG 1/2 PULG BN EXENTO-DC.417/202PZA    15
TI0001016596456H202100015122546700015122546705/12/20210045    3150045323742196425000011082700001620070000000000000                                                               EQUIPO SET PRIMARIO C/CLAVE REF 14001BOL     1
RC0001063188441H202100015122546700015122546705/12/20210045    3150045323742196425000011082700001620070000000000000                                                               EQUIPO SET PRIMARIO C/CLAVE REF 14001BOL     1
TI0001016596456H202100015122546700015122546705/12/20210045    3150045323742196425000011082200001407940000000000000                                                              EQUIPO EXT MICROTUBO Y 2 VALVUL 2N8371SOB     1
RC0001063188441H202100015122546700015122546705/12/20210045    3150045323742196425000011082200001407940000000000000                                                              EQUIPO EXT MICROTUBO Y 2 VALVUL 2N8371SOB     1
TI0001016596456H202100015122546700015122546705/12/20210045    3150045323742196425000030936900001431840000000000000                                                                                              BURETABOL     1
RC0001063188441H202100015122546700015122546705/12/20210045    3150045323742196425000030936900001431840000000000000                                                                                              BURETABOL     1
TI0001016596456H202100015122546700015122546705/12/20210045    31500453237421964250000E1AD0300000199490000000000000                                         LACTATO RINGER USP (HARTMANN)  SOL INY  BOL X 1000ML BAXTERBIN     3
RC0001063188441H202100015122546700015122546705/12/20210045    31500453237421964250000E1AC0100000199400000000000000                                                                          SUERO MIXTO Sln Iny 500 mlBIN     2
