RC0001082352332A202100000027838100000027838105/12/20210851    31903336240421964190000E1AA0800000322190000000000000                                                                          DEXTROSA 5% Sln Iny 250 mlBIN     1
RC0001082352332A202100000027838100000027838105/12/20210851    3190333624042196419000045136100001419300000000000000                                                                            LANCETA DEXTROMETER X UNPZA     1
RC0001082352332A202100000027838100000027838105/12/20210851    3190333624042196419000011137100001419310000000000000                                                               TIRA GLUCOMETRIA FREESTYLE H OPTIUM .PZA     1
RC0001082352332A202100000027838100000027838105/12/20210851    3190333624042196419000000102300000222960000000000000                                                                 JERINGA DESECHABLE SIN AGUJA X 20mLSIN     1
RC0001082352332A202100000027838100000027838105/12/20210851    31903336240421964190000N1BA1900000554750000000000000                                                                     ROXICAINA JALEA 2% TUBO X 30 MLTUB     1
RC0001082352332A202100000027838100000027838105/12/20210851    31903336240421964190000N01A0400003939010000000000000                                               MAYOPROFOL 200MG/20ML(1%) EMUL INY CAJ X 1VIAL X 20MLVAL     1
RC0001082352332A202100000027838100000027838105/12/20210851    3190333624042196419000022425200000548240000000000000                       EXTENSION DE ANESTESIA REF 1139 SOB X 1 SHERLEG  ADULTO BN EXENTO-DC.417/2020SIN     1
RC0001082352332A202100000027838100000027838105/12/20210851    3190333624042196419000022425100001392880000000000000             EQUIPO MICROGOTEO SIN AGUJA REF 201000 PAQ X 100 SOB GOTHAPLAST   BN EXENTO-DC.417/2020BOL     1
RC0001082352332A202100000027838100000027838105/12/20210851    3190333624042196419000035356500003919000000000000000                                                                                        LLAVE 3 VIASSOB     1
RC0001082352332A202100000027838100000027838105/12/20210851    3190333624042196419000030161400001459220000000000000                                                                       MANGUERA SUCCION 6 MM*3.1 MTSSOB     1
RC0001082352332A202100000027838100000027838105/12/20210851    3190333624042196419000011073300001096420000000000000                                                                BOLSA DE SUCCION DE FLUIDOS x 2500mLBOL     1
RC0001082352332A202100000027838100000027838105/12/20210851    3190333624042196419000043485100001618510000000000000                GUANTE QUIRURGICO DE LATEX REF 2D72N65X CAJ X 50 PROTEXIS  6.5 BN EXENTO-DC.417/2020SOB     1
RC0001082352332A202100000027838100000027838105/12/20210851    3190333624042196419000051515300000598140000000000000                                                                            MASCARILLA ANESTESIA # 3SIN     1
RC0001082352332A202100000027838100000027838105/12/20210851    31903336240421964190000Q1A11800000258040000000000000                                                                         CANULA OXIGENO NASAL PEDIATSIN     1
RC0001082352332A202100000027838100000027838105/12/20210851    3190333624042196419000031011200001012590000000000000                                                                           CANULA GUEDEL # 1 (70 MM)SOB     1
RC0001082352332A202100000027838100000027838105/12/20210851    3190333624042196419000024673600000222980000000000000                                                                     JERINGA DESECHABLE 5 ml 27*11/2SIN     1
RC0001082352332A202100000027838100000027838105/12/20210851    3190333624042196419000024674000001138340000000000000   JERINGA 3PARTES C/A 10ML REF JEHL005 CAJ X 100 ALFASAFE  21GX1 PULG 1/2 PULG BN EXENTO-DC.417/202PZA     2
RC0001082352332A202100000027838100000027838105/12/20210851    3190333624042196419000024674500000322810000000000000                                                                   JERINGA DESECHABLE 20 ml 21*1 1/2SIN     1
RC0001082352332A202100000027838100000027838105/12/20210851    31903336240421964190000E1AB0700003888350000000000000                                                            SOLUCION SALINA 0.9% SLN INY BO X 250 MLBOL     3
RC0001082352332A202100000027838100000027838105/12/20210851    31903336240421964190000N1BA2400001687720000000000000                                                    LIDOCAINA 2% SOL INY  CAJ X 50AMP X 10ML CORPAULAMP     1
