RC0001187466818H202100015052802800015052802805/12/20211427    31902961237421964250000Q1AA1000000256790000000000000                                                                         SONDA ASPIRACION CONTROL #8SIN    10
CC0000022438763H202100015052802800015052802805/12/20211427    3190296123742196425000038569400000256750000000000000                                                                        SONDA ASPIRACION CONTROL #14SIN    10
CC0000028496269H202100015052802800015052802805/12/20211427    3190296123742196425000038569400000256750000000000000                                                                        SONDA ASPIRACION CONTROL #14SIN    10
RC0001187466818H202100015052802800015052802805/12/20211427    3190296123742196425000024674000001138340000000000000   JERINGA 3PARTES C/A 10ML REF JEHL005 CAJ X 100 ALFASAFE  21GX1 PULG 1/2 PULG BN EXENTO-DC.417/202PZA     2
CC0000022438763H202100015052802800015052802805/12/20211427    3190296123742196425000024674000001138340000000000000   JERINGA 3PARTES C/A 10ML REF JEHL005 CAJ X 100 ALFASAFE  21GX1 PULG 1/2 PULG BN EXENTO-DC.417/202PZA     2
CC0000028496269H202100015052802800015052802805/12/20211427    3190296123742196425000024674000001138340000000000000   JERINGA 3PARTES C/A 10ML REF JEHL005 CAJ X 100 ALFASAFE  21GX1 PULG 1/2 PULG BN EXENTO-DC.417/202PZA     2
RC0001187466818H202100015052802800015052802805/12/20211427    3190296123742196425000013077800000471960000000000000                                                             GASA NO TEJIDA EST 7.5 X 7.5 SOB X 3 UNSOB     4
CC0000022438763H202100015052802800015052802805/12/20211427    3190296123742196425000013077800000471960000000000000                                                             GASA NO TEJIDA EST 7.5 X 7.5 SOB X 3 UNSOB     4
CC0000028496269H202100015052802800015052802805/12/20211427    3190296123742196425000013077800000471960000000000000                                                             GASA NO TEJIDA EST 7.5 X 7.5 SOB X 3 UNSOB     4
CC0001104008600H202100015052802800015052802805/12/20211427    3190296123742196425000013077800000471960000000000000                                                             GASA NO TEJIDA EST 7.5 X 7.5 SOB X 3 UNSOB     4
RC0001187466818H202100015052802800015052802805/12/20211427    31902961237421964250000E1AB0200000199290000000000000                                                            SOLUCION SALINA 0.9% SLN INY BO X 100 MLBIN     1
CC0000022438763H202100015052802800015052802805/12/20211427    31902961237421964250000E1AB0200000199290000000000000                                                            SOLUCION SALINA 0.9% SLN INY BO X 100 MLBIN     1
CC0000028496269H202100015052802800015052802805/12/20211427    31902961237421964250000E1AB0200000199290000000000000                                                            SOLUCION SALINA 0.9% SLN INY BO X 100 MLBIN     1
