CC0000073070310H202100000556592700000556592705/12/20210903    31903331237421964250000A7DA1400000203670000000000000                                                                          SMECTA POLVO SOBRE 3 G /R/SIN     2
CC0000073070310H202100000556592700000556592705/12/20210903    31903331237421964250000B1AB0200003939510000000000000                 ENOXAPARINA SODICA 40MG/0.4ML(100MG/ML) SOL INY INST CAJ X 2JERPREL X 0.4ML TECHDOWJRP     1
CC0000073070310H202100000556592700000556592705/12/20211011    31500534237421964250000A12BA100000552980000000000000                                                            CLORURO POTASIO Sln Iny AMP 20 MEQ/10 MLAMP     1
CC0000073070310H202100000556592700000556592705/12/20210903    31903331237421964250000A12BA100000552980000000000000                                                            CLORURO POTASIO Sln Iny AMP 20 MEQ/10 MLAMP     2
CC0000073070310H202100000556592700000556592705/12/20210903    31903331237421964250000C3DA0200001332680000000000000                                                                                ALDACTONE TAB 100 MGTAB     1
CC0000073070310H202100000556592700000556592705/12/20210903    31903331237421964250000C7FA0100001277270000000000000                                                                                     NORVAS TAB 5 MGTAB     1
CC0000073070310H202100000556592700000556592705/12/20210903    31903331237421964250000C09C0100001316940000000000000                                                                               DIOVAN TAB 160 MG /R/TAB     2
CC0000073070310H202100000556592700000556592705/12/20210903    31903331237421964250000J3CB0200001333510000000000000                                                                                    CIPRO TAB 500 MGCOM     1
CC0000073070310H202100000556592700000556592705/12/20210903    31903331237421964250000N02B1100001464120000000000000                                           PARACETAMOL EP 1000MG/100ML(10MG/ML) SOL INY  CAJ X 10FCOVAL     2
