CC0001129564191H202100015112738400015112738405/12/20211133    3190235723742196425000019487600000599200000000000000                                                                                VICRYL 0 CT1 VCP346HSIN     2
CC0001129564191H202100015112738400015112738405/12/20211133    3190235723742196425000018353300000232780000000000000                                                                                  SEDA 0 CT1 75 424HSIN     2
CC0001129564191H202100015112738400015112738405/12/20211133    3190235723742196425000011089300001083990000000000000                                                              GUANTE ESTERIL LATEX S/POLVO TALLA 7.5SOB     2
CC0001129564191H202100015112738400015112738405/12/20211133    3190235723742196425000013077800000471960000000000000                                                             GASA NO TEJIDA EST 7.5 X 7.5 SOB X 3 UNSOB    15
CC0001129564191H202100015112738400015112738405/12/20211133    3190235723742196425000044370800000224140000000000000                                                                                IOBAN 2 90 X 45 6650SIN     1
