MS0011408397871H202100015132529000015132529005/12/20211212    3190315323742196425000024675000001585130000000000000                                                                    JERINGA DESECHABLE 50 ml S/AGUJASOB     3
MS0011408397871H202100015132529000015132529005/12/20211212    3190315323742196425000024674500000322810000000000000                                                                   JERINGA DESECHABLE 20 ml 21*1 1/2SIN     3
MS0011408397871H202100015132529000015132529005/12/20211212    3190315323742196425000024674000001138340000000000000   JERINGA 3PARTES C/A 10ML REF JEHL005 CAJ X 100 ALFASAFE  21GX1 PULG 1/2 PULG BN EXENTO-DC.417/202PZA     3
MS0011408397871H202100015132529000015132529005/12/20211212    3190315323742196425000011085400001083360000000000000                                                                       GUANTE QUIRURGICO TALLA 8 1/2SOB     2
MS0011408397871H202100015132529000015132529005/12/20211212    3190315323742196425000013077800000471960000000000000                                                             GASA NO TEJIDA EST 7.5 X 7.5 SOB X 3 UNSOB     4
MS0011408397871H202100015132529000015132529005/12/20211212    3190315323742196425000011082900001233450000000000000                                                               EQUIPO LC 5000 PRIMARIO FOTOPRO 0L218SOB     3
MS0011408397871H202100015132529000015132529005/12/20211212    31903153237421964250000Q1AA7600000543420000000000000                                                             BOLSA VACIA EVA R HRB8102P BAXTER 150MLBIN     3
MS0011408397871H202100015132529000015132529005/12/20211212    3190315323742196425000000100600000223090000000000000                                                                      AGUJA DESECHABLE 18G X 1 1/2 PSIN     4
