MS0011408397871H202100015132528700015132528705/12/20210831    3190330223742196425000038568300000257010000000000000                                                                                   SONDA NELATON #08SIN     1
MS0010053369121H202100015132528700015132528705/12/20210831    3190330223742196425000038568300000257010000000000000                                                                                   SONDA NELATON #08SIN     1
RC0001044236218H202100015132528700015132528705/12/20210831    3190330223742196425000038568300000257010000000000000                                                                                   SONDA NELATON #08SIN     1
MS0011408397871H202100015132528700015132528705/12/20210831    3190330223742196425000072806000001096720000000000000                                                                SET EQUIPO PERFUSOR SPACE 5mL 728868PAQ     1
MS0010053369121H202100015132528700015132528705/12/20210831    3190330223742196425000072806000001096720000000000000                                                                SET EQUIPO PERFUSOR SPACE 5mL 728868PAQ     1
MS0011408397871H202100015132528700015132528705/12/20210831    3190330223742196425000023290000001382360000000000000                                                               SENSOR NEONA ADH M-LNCS 46251A MASIMOSOB     1
MS0010053369121H202100015132528700015132528705/12/20210831    3190330223742196425000023290000001382360000000000000                                                               SENSOR NEONA ADH M-LNCS 46251A MASIMOSOB     1
MS0011408397871H202100015132528700015132528705/12/20210831    31903302237421964250000Q1AA7400003911720000000000000                                                            CATETER PERIFE INTROCAN # 24G 4251601-04SOB     1
MS0010053369121H202100015132528700015132528705/12/20210831    31903302237421964250000Q1AA7400003911720000000000000                                                            CATETER PERIFE INTROCAN # 24G 4251601-04SOB     2
MS0011408397871H202100015132528700015132528705/12/20210831    3190330223742196425000011137100001419310000000000000                                                               TIRA GLUCOMETRIA FREESTYLE H OPTIUM .PZA     3
RC0001044436459H202100015132528700015132528705/12/20210831    3190330223742196425000011137100001419310000000000000                                                               TIRA GLUCOMETRIA FREESTYLE H OPTIUM .PZA     2
RC0001048091909H202100015132528700015132528705/12/20210831    3190330223742196425000011137100001419310000000000000                                                               TIRA GLUCOMETRIA FREESTYLE H OPTIUM .PZA     2
RC0001146846680H202100015132528700015132528705/12/20210831    3190330223742196425000011137100001419310000000000000                                                               TIRA GLUCOMETRIA FREESTYLE H OPTIUM .PZA     1
RC0001146546681H202100015132528700015132528705/12/20210831    3190330223742196425000011137100001419310000000000000                                                               TIRA GLUCOMETRIA FREESTYLE H OPTIUM .PZA     2
RC0001194984572H202100015132528700015132528705/12/20210831    3190330223742196425000011137100001419310000000000000                                                               TIRA GLUCOMETRIA FREESTYLE H OPTIUM .PZA     1
NV0000170258691H202100015132528700015132528705/12/20210831    3190330223742196425000011137100001419310000000000000                                                               TIRA GLUCOMETRIA FREESTYLE H OPTIUM .PZA     1
RC0001143474190H202100015132528700015132528705/12/20210831    3190330223742196425000011137100001419310000000000000                                                               TIRA GLUCOMETRIA FREESTYLE H OPTIUM .PZA     1
MS0010053369121H202100015132528700015132528705/12/20210831    3190330223742196425000011137100001419310000000000000                                                               TIRA GLUCOMETRIA FREESTYLE H OPTIUM .PZA     3
RC0001044236218H202100015132528700015132528705/12/20210831    3190330223742196425000011137100001419310000000000000                                                               TIRA GLUCOMETRIA FREESTYLE H OPTIUM .PZA     1
RC0001047065603H202100015132528700015132528705/12/20210831    3190330223742196425000011137100001419310000000000000                                                               TIRA GLUCOMETRIA FREESTYLE H OPTIUM .PZA     1
RC0001047065574H202100015132528700015132528705/12/20210831    3190330223742196425000011137100001419310000000000000                                                               TIRA GLUCOMETRIA FREESTYLE H OPTIUM .PZA     2
RC0001143474189H202100015132528700015132528705/12/20210831    3190330223742196425000011137100001419310000000000000                                                               TIRA GLUCOMETRIA FREESTYLE H OPTIUM .PZA     1
RC0001048091952H202100015132528700015132528705/12/20210831    3190330223742196425000011137100001419310000000000000                                                               TIRA GLUCOMETRIA FREESTYLE H OPTIUM .PZA     2
MS0011408397871H202100015132528700015132528705/12/20210831    31903302237421964250000Q1A11700000523210000000000000                                                            CATETER PREMICAHT REF 1261-20 SOB X 1 VYPZA     1
