CC0000013887621H202100000556578700000556578705/12/20211306     330000923742196425000011808300000218190000000000000                                                   DORMICUM IV 50MG/10ML(5MG/ML) SOL INY  CAJ X 5AMPAMP    10
CC0000013887621H202100000556578700000556578705/12/20210812     3300009237421964250000A2BC0900000200150000000000000                                                                               ORAZOLE Sln Iny 40 mgCIN     1
CC0000013887621H202100000556578700000556578705/12/20210811     3300009237421964250000A11DA300001278410000000000000                                                                                  TIAMINA TAB 300 MGTAB     1
CC0000013887621H202100000556578700000556578705/12/20211535     3300010237421964250000A11GA400001337200000000000000                                                                               VITAMINA C Tab 500 mgTAB     2
CC0000013887621H202100000556578700000556578705/12/20210811     3300009237421964250000A11GA400001337200000000000000                                                                               VITAMINA C Tab 500 mgTAB     6
CC0000013887621H202100000556578700000556578705/12/20210811     3300009237421964250000B1AB0100001227270000000000000                                             HEPAMAX 25000UI/5ML(5000UI/ML) SOL INY  CAJ X 25AMPX5MLAMP     4
CC0000013887621H202100000556578700000556578705/12/20211857    31500531237421964250000E1AB0200000199290000000000000                                                            SOLUCION SALINA 0.9% SLN INY BO X 100 MLBIN    10
CC0000013887621H202100000556578700000556578705/12/20211502    31900103237421964250000E1AB0200000199290000000000000                                                            SOLUCION SALINA 0.9% SLN INY BO X 100 MLBIN     2
CC0000013887621H202100000556578700000556578705/12/20210046    31902703237421964250000E1AB0300003888390000000000000                                                            SOLUCION SALINA 0.9% SLN INY BO X 500 MLBOL     1
CC0000013887621H202100000556578700000556578705/12/20211857    31500531237421964250000E1AB0500003888400000000000000                                                              SOLUCION SALINA 0.9% SLN INY X 1000 MLBOL     3
CC0000013887621H202100000556578700000556578705/12/20210811     3300009237421964250000C01DA100000176460000000000000                                                            NITROGLICERINA EN DEXTROSA VIAL X 250 MLFCO     1
CC0000013887621H202100000556578700000556578705/12/20210811     3300009237421964250000C3CA0200000195520000000000000                                                                           LASIX SLN INY 20 MG/ 2 MLAMP     2
CC0000013887621H202100000556578700000556578705/12/20210810     3300009237421964250000C3CA0200000195520000000000000                                                                           LASIX SLN INY 20 MG/ 2 MLAMP     1
CC0000013887621H202100000556578700000556578705/12/20211306     3300009237421964250000C7FA0200001277980000000000000                                                                                    NORVAS TAB 10 MGTAB     2
CC0000013887621H202100000556578700000556578705/12/20211305     3300009237421964250000C09CA400001277130000000000000                                                                                  LOSARTAN TAB 50 MGTAB     3
CC0000013887621H202100000556578700000556578705/12/20210810     3300009237421964250000H02AB500001664950000000000000                                                            DEXAMETASONA SLN INY 8 MG/2 ML AMP /CDS/AMP     1
CC0000013887621H202100000556578700000556578705/12/20210811     3300009237421964250000J01D1300001469600000000000000                                                                               POZINEG POLVO INY 1 GVAL     6
CC0000013887621H202100000556578700000556578705/12/20211538     3300010237421964250000M3AC0600000720540000000000000                                                                         ESMERON SLN INY 50 MG /5 MLVAL     2
CC0000013887621H202100000556578700000556578705/12/20211537     3300010237421964250000M3AC0600000720540000000000000                                                                         ESMERON SLN INY 50 MG /5 MLVAL     8
CC0000013887621H202100000556578700000556578705/12/20210047     3300009237421964250000M3AC0600000720540000000000000                                                                         ESMERON SLN INY 50 MG /5 MLVAL     1
CC0000013887621H202100000556578700000556578705/12/20210046     3300009237421964250000M3AC0600000720540000000000000                                                                         ESMERON SLN INY 50 MG /5 MLVAL     7
CC0000013887621H202100000556578700000556578705/12/20210045     3300009237421964250000M3AC0600000720540000000000000                                                                         ESMERON SLN INY 50 MG /5 MLVAL     2
CC0000013887621H202100000556578700000556578705/12/20210043     3300009237421964250000M3AC0600000720540000000000000                                                                         ESMERON SLN INY 50 MG /5 MLVAL     6
CC0000013887621H202100000556578700000556578705/12/20210042     3300009237421964250000M3AC0600000720540000000000000                                                                         ESMERON SLN INY 50 MG /5 MLVAL     4
CC0000013887621H202100000556578700000556578705/12/20210015     3300009237421964250000M3AC0600000720540000000000000                                                                         ESMERON SLN INY 50 MG /5 MLVAL     1
CC0000013887621H202100000556578700000556578705/12/20211536     3300010237421964250000N01A0400003939010000000000000                                               MAYOPROFOL 200MG/20ML(1%) EMUL INY CAJ X 1VIAL X 20MLVAL    12
CC0000013887621H202100000556578700000556578705/12/20210811     3300009237421964250000N01A0400003939010000000000000                                               MAYOPROFOL 200MG/20ML(1%) EMUL INY CAJ X 1VIAL X 20MLVAL     5
CC0000013887621H202100000556578700000556578705/12/20211535     3300010237421964250000N5AD0500000217620000000000000                                                                         HALOPIDOL Sln Iny 5 mg/1 mlAMP     3
CC0000013887621H202100000556578700000556578705/12/20211535     3300010237421964250000N05A0500001336370000000000000                                                                              SEROQUEL TAB 25 MG /R/TAB     1
CC0000013887621H202100000556578700000556578705/12/20210811     3300009237421964250000N05A0500001336370000000000000                                                                              SEROQUEL TAB 25 MG /R/TAB     2
CC0000013887621H202100000556578700000556578705/12/20210812     3300009237421964250000A11A2200001050880000000000000                                                                 GLUCERNA LIQUIDO 1.5 KCAL X 1000 MLFCO     1
CC0000013887621H202100000556578700000556578705/12/20211306     3300009237421964250000N1AH0200003906560000000000000                                                                     FENTANIL Iny 0.05 mg/ml x 10 mlAMP    10
CC0000013887621H202100000556578700000556578705/12/20211857    31500531237421964250000V07A1300000502600000000000000                                                                                AGUA ESTERIL x 10 mlAMP    10
