RC0001048091952H202100015132529200015132529205/12/20211506    3190330223742196425000011060400001010330000000000000                                                            SENSOR PULSOX SPO2 LNCS NEONATAL MP00792PZA     1
RC0001048091909H202100015132529200015132529205/12/20211506    3190330223742196425000043485100001618510000000000000                GUANTE QUIRURGICO DE LATEX REF 2D72N65X CAJ X 50 PROTEXIS  6.5 BN EXENTO-DC.417/2020SOB     4
RC0001048091909H202100015132529200015132529205/12/20211506    3190330223742196425000013077800000471960000000000000                                                             GASA NO TEJIDA EST 7.5 X 7.5 SOB X 3 UNSOB     8
MS0011408397871H202100015132529200015132529205/12/20211506    3190330223742196425000001956000001620610000000000000                                                                      CONECTOR MICRO CLAVE LAT-MC100SOB     1
RC0001048091909H202100015132529200015132529205/12/20211506    3190330223742196425000001956000001620610000000000000                                                                      CONECTOR MICRO CLAVE LAT-MC100SOB     1
RC0001048091909H202100015132529200015132529205/12/20211506    31903302237421964250000Q1AA7400003911720000000000000                                                            CATETER PERIFE INTROCAN # 24G 4251601-04SOB     1
RC0001048091909H202100015132529200015132529205/12/20211506    3190330223742196425000000301100000299670000000000000                                                            CAT EPICUTAN VENA CAVA 2F 24G*30 2184-00SIN     1
