PA0000559421938H202100015012625600015012625605/12/20211449    3150019223742196425000022426800001140510000000000000                                                                    EQUIPO MACROGOTEO BAXTER MRC0001SOB     1
CC0001143115732H202100015012625600015012625605/12/20211449    3150019223742196425000022426800001140510000000000000                                                                    EQUIPO MACROGOTEO BAXTER MRC0001SOB     1
CC0001129570345H202100015012625600015012625605/12/20211449    3150019223742196425000022426800001140510000000000000                                                                    EQUIPO MACROGOTEO BAXTER MRC0001SOB     1
PA0000559421938H202100015012625600015012625605/12/20211449    3150019223742196425000030936900001431840000000000000                                                                                              BURETABOL     1
CC0001143115732H202100015012625600015012625605/12/20211449    3150019223742196425000030936900001431840000000000000                                                                                              BURETABOL     1
CC0001129570345H202100015012625600015012625605/12/20211449    3150019223742196425000030936900001431840000000000000                                                                                              BURETABOL     1
