CC0000003724288H202100000556585900000556585905/12/20211102    31500526237421964250000E1AD0300000199490000000000000                                         LACTATO RINGER USP (HARTMANN)  SOL INY  BOL X 1000ML BAXTERBIN     1
CC0000003724288H202100000556585900000556585905/12/20211124     3300009237421964250000J01DA300001239950000000000000                                                            CEFAZOLINA SODICA POLVO LIOF SLN INY 1 GVAL     3
CC0000003724288H202100000556585900000556585905/12/20210506     3300009237421964250000C02AC200001559150000000000000                                                                              CLONIDINA TAB 0.150 MGTAB     1
CC0000003724288H202100000556585900000556585905/12/20211512     3300010237421964250000N05BA100001303610000000000000                                                                                  LORAZEPAM TAB 2 MGTAB     1
CC0000003724288H202100000556585900000556585905/12/20211511    31500170237421964250000V07A1300000502600000000000000                                                                                AGUA ESTERIL x 10 mlAMP     5
