CC0000022362807H202100015112739100015112739105/12/20211850    3150050123742196425000011082900001233450000000000000                                                               EQUIPO LC 5000 PRIMARIO FOTOPRO 0L218SOB     1
CC0000022362807H202100015112739100015112739105/12/20211850    3150050123742196425000001956000001620610000000000000                                                                      CONECTOR MICRO CLAVE LAT-MC100SOB     1
CC0000022362807H202100015112739100015112739105/12/20211850    31500501237421964250000Q1AA7200000610630000000000000                                                            CATETER PERIFE INTROCAN # 20G 4251644-04SIN     1
CC0000022362807H202100015112739100015112739105/12/20211850    3150050123742196425000016830000000970620000000000000                                                             SIST FIJACION CAT PERIFERICO 6.5X7 1683SOB     1
