CC0001050950284A202100000027839000000027839005/12/20210908    31903336240421964190000E1AB0500003888400000000000000                                                              SOLUCION SALINA 0.9% SLN INY X 1000 MLBOL     3
CC0001050950284A202100000027839000000027839005/12/20210908    31903336240421964190000N01B0600003888900000000000000                                                    BUPINEST 75MG/10ML(0.75%) SOL INY CAJ X 24AMPACKAPC     2
CC0001050950284A202100000027839000000027839005/12/20210908    31903336240421964190000J01G0100000858000000000000000                                                                       GARAMICINA SLN INY 80 MG/2 MLAMP     6
CC0001050950284A202100000027839000000027839005/12/20210908    3190333624042196419000045138000001413890000000000000                                                                       LAPIZ ELECTROBISTURI  SOB X 1SOB     1
CC0001050950284A202100000027839000000027839005/12/20210908    3190333624042196419000049419500001679890000000000000                                                                        VENDA ALGODON 3*5 NO ESTERILSOB     1
CC0001050950284A202100000027839000000027839005/12/20210908    3190333624042196419000049428200000860740000000000000                                                                       VENDA ELASTICA 3*5 NO ESTERILBOL     1
CC0001050950284A202100000027839000000027839005/12/20210908    3190333624042196419000040511500000258400000000000000                                                               APOSITO BACTIGRAS REF 7456  5CM X 5CMSIN     1
CC0001050950284A202100000027839000000027839005/12/20210908    3190333624042196419000017566200001585160000000000000                                                                  PROLENE 4-0 AZ 45 PS2 PRIME P8682TSOB     1
CC0001050950284A202100000027839000000027839005/12/20210908    3190333624042196419000043879100001138200000000000000                                                                  HOJA BISTURI # 15 CSSB 15 01002003SOB     2
CC0001050950284A202100000027839000000027839005/12/20210908    3190333624042196419000022425200000548240000000000000                       EXTENSION DE ANESTESIA REF 1139 SOB X 1 SHERLEG  ADULTO BN EXENTO-DC.417/2020SIN     1
CC0001050950284A202100000027839000000027839005/12/20210908    3190333624042196419000035356500003919000000000000000                                                                                        LLAVE 3 VIASSOB     1
CC0001050950284A202100000027839000000027839005/12/20210908    3190333624042196419000022426800001140510000000000000                                                                    EQUIPO MACROGOTEO BAXTER MRC0001SOB     1
CC0001050950284A202100000027839000000027839005/12/20210908    3190333624042196419000030161400001459220000000000000                                                                       MANGUERA SUCCION 6 MM*3.1 MTSSOB     1
CC0001050950284A202100000027839000000027839005/12/20210908    3190333624042196419000011073300001096420000000000000                                                                BOLSA DE SUCCION DE FLUIDOS x 2500mLBOL     1
CC0001050950284A202100000027839000000027839005/12/20210908    3190333624042196419000020750600000296780000000000000                                                                PLACA ELECTRO RETORNO PACIENTE E7506SIN     1
CC0001050950284A202100000027839000000027839005/12/20210908    3190333624042196419000038568100000258050000000000000                                                                         CANULA OXIGENO NASAL ADULTOSIN     1
CC0001050950284A202100000027839000000027839005/12/20210908    3190333624042196419000031010900000762730000000000000                                                                          CANULA GUEDEL # 4 (100 MM)SOB     1
CC0001050950284A202100000027839000000027839005/12/20210908    3190333624042196419000051515500000598160000000000000                                                                            MASCARILLA ANESTESIA # 5SIN     1
CC0001050950284A202100000027839000000027839005/12/20210908    3190333624042196419000053074400000607910000000000000                                                               GASA ESTERIL 10*10 SOBRE X 3 UNIDADESSOB     4
CC0001050950284A202100000027839000000027839005/12/20210908    3190333624042196419000011085400001083360000000000000                                                                       GUANTE QUIRURGICO TALLA 8 1/2SOB     2
CC0001050950284A202100000027839000000027839005/12/20210908    3190333624042196419000011085300001082140000000000000                                                                           GUANTE QUIRURGICO TALLA 8SOB     1
CC0001050950284A202100000027839000000027839005/12/20210908    3190333624042196419000011085200001585390000000000000                                                                       GUANTE QUIRURGICO TALLA 7 1/2SOB     6
CC0001050950284A202100000027839000000027839005/12/20210908    3190333624042196419000011085100001082120000000000000                                                                           GUANTE QUIRURGICO TALLA 7SOB     2
CC0001050950284A202100000027839000000027839005/12/20210908    3190333624042196419000043485100001618510000000000000                GUANTE QUIRURGICO DE LATEX REF 2D72N65X CAJ X 50 PROTEXIS  6.5 BN EXENTO-DC.417/2020SOB     2
CC0001050950284A202100000027839000000027839005/12/20210908    3190333624042196419000024674000001138340000000000000   JERINGA 3PARTES C/A 10ML REF JEHL005 CAJ X 100 ALFASAFE  21GX1 PULG 1/2 PULG BN EXENTO-DC.417/202PZA     1
CC0001050950284A202100000027839000000027839005/12/20210908    3190333624042196419000024674500000322810000000000000                                                                   JERINGA DESECHABLE 20 ml 21*1 1/2SIN     1
CC0001050950284A202100000027839000000027839005/12/20210908    31903336240421964190000E1AD0200003888320000000000000                                                                              HARTMAN SLN INY 500 MLBOL     1
CC0001050950284A202100000027839000000027839005/12/20210908    31903336240421964190000E1AB0300003888390000000000000                                                            SOLUCION SALINA 0.9% SLN INY BO X 500 MLBOL     2
CC0001050950284A202100000027839000000027839005/12/20210908    31903336240421964190000E1AB0700003888350000000000000                                                            SOLUCION SALINA 0.9% SLN INY BO X 250 MLBOL     1
CC0001050950284A202100000027839000000027839005/12/20210908    31903336240421964190000M1AX0200001569410000000000000                                                                         KETRON SLN INY 30 MG / 2 MLAMP     1
CC0001050950284A202100000027839000000027839005/12/20210908    31903336240421964190000A4AD0200000202990000000000000                                                                     PLITICAN HCL Sln Iny 50 mg/2 mlAMP     1
CC0001050950284A202100000027839000000027839005/12/20210908    31903336240421964190000N2BB1100000217160000000000000                                                                      NOVALGINA Sln Iny 2.5 g x 5 mlAMP     1
CC0001050950284A202100000027839000000027839005/12/20210908    31903336240421964190000H02AB500001664950000000000000                                                            DEXAMETASONA SLN INY 8 MG/2 ML AMP /CDS/AMP     1
CC0001050950284A202100000027839000000027839005/12/20210908    31903336240421964190000N01B0200003888110000000000000                                           ROXICAINA SE 100MG/10ML(1%) SOL INY CAJ X 24AMPACK X 10MLAPC     2
CC0001050950284A202100000027839000000027839005/12/20210908    31903336240421964190000N1AH0200003906560000000000000                                                                     FENTANIL Iny 0.05 mg/ml x 10 mlAMP     1
