TI0001043450576H202100015052802700015052802705/12/20211025    3190118923742196425000001956000001620610000000000000                                                                      CONECTOR MICRO CLAVE LAT-MC100SOB     1
CC0000079767241H202100015052802700015052802705/12/20211025    3190118923742196425000001956000001620610000000000000                                                                      CONECTOR MICRO CLAVE LAT-MC100SOB     1
CC0000079767241H202100015052802700015052802705/12/20211025    31901189237421964250000Q1AA7200000610630000000000000                                                            CATETER PERIFE INTROCAN # 20G 4251644-04SIN     2
CC0000079767241H202100015052802700015052802705/12/20211025    3190118923742196425000016830000000970620000000000000                                                             SIST FIJACION CAT PERIFERICO 6.5X7 1683SOB     1
