CC0000007452098H202100921403120500921403120505/12/20210956    3150038723742196425000011137100001419310000000000000                                                               TIRA GLUCOMETRIA FREESTYLE H OPTIUM .PZA     1
CC0000007452098H202100921403120500921403120505/12/20210956    3150038723742196425000020056600001101530000000000000                                                                AGUJA HIPODERMICA DESECH 18G X 1 1/2SOB     5
CC0000007452098H202100921403120500921403120505/12/20210956    3150038723742196425000024674000001138340000000000000   JERINGA 3PARTES C/A 10ML REF JEHL005 CAJ X 100 ALFASAFE  21GX1 PULG 1/2 PULG BN EXENTO-DC.417/202PZA     5
CC0000007452098H202100921403120500921403120505/12/20210956    3150038723742196425000045136100001419300000000000000                                                                            LANCETA DEXTROMETER X UNPZA     1
CC0000007452098H202100921403120500921403120505/12/20210956    31500387237421964250000V07A1300000502600000000000000                                                                                AGUA ESTERIL x 10 mlAMP     5
