MS0011408397871H202100015132528400015132528405/12/20210141    3150051523742196425000030161400001459220000000000000                                                                       MANGUERA SUCCION 6 MM*3.1 MTSSOB     1
MS0011408397871H202100015132528400015132528405/12/20210141    31500515237421964250000Q1AA1000000256790000000000000                                                                         SONDA ASPIRACION CONTROL #8SIN     6
MS0011408397871H202100015132528400015132528405/12/20210141    3150051523742196425000011063600000850520000000000000                                                               SISTEMA CONEXION REF 8418583 BABYFLOWSOB     1
MS0011408397871H202100015132528400015132528405/12/20210141    3150051523742196425000011059500001646260000000000000                                                              RESUCITADOR MANUAL NEONATAL LMI86-8086BOL     1
MS0011408397871H202100015132528400015132528405/12/20210141    3150051523742196425000024674000001138340000000000000   JERINGA 3PARTES C/A 10ML REF JEHL005 CAJ X 100 ALFASAFE  21GX1 PULG 1/2 PULG BN EXENTO-DC.417/202PZA     3
MS0011408397871H202100015132528400015132528405/12/20210141    3150051523742196425000035641200000850500000000000000                                                              INTERFAZ NASAL MASCARA REF 8418491( S)SOB     1
MS0011408397871H202100015132528400015132528405/12/20210141    3150051523742196425000084186000000850480000000000000                                                                INTERFASES NASALES PRONG 8418605 (S)SOB     1
MS0011408397871H202100015132528400015132528405/12/20210141    3150051523742196425000043485100001618510000000000000                GUANTE QUIRURGICO DE LATEX REF 2D72N65X CAJ X 50 PROTEXIS  6.5 BN EXENTO-DC.417/2020SOB     6
MS0011408397871H202100015132528400015132528405/12/20210141    3150051523742196425000011086900001103800000000000000                                                            GORRITO NEONATA 8418534 BABYFLOW TALLA SSOB     1
MS0011408397871H202100015132528400015132528405/12/20210141    3150051523742196425000025830800004020870000000000000CIRCUITO RESPIRATORIO NEONATAL REF AMVC1774-171 CAJ X 10 AQUAVENT NEO 1.6MT X 15MM - 22MM BN EXENTO-BOL     1
MS0011408397871H202100015132528400015132528405/12/20210141    3150051523742196425000013000200001148850000000000000                                                               CIRCUITO DESECHABLE NEOPUFF RD1300-10BOL     1
MS0011408397871H202100015132528400015132528405/12/20210141    3150051523742196425000020816000001096410000000000000                                                                          LINER PARED DELGADA 1500CCBOL     1
MS0011408397871H202100015132528400015132528405/12/20210141    31500515237421964250000E1BA0100000198890000000000000                                                                   AGUA ESTERIL USP SLN INY X 500 MLBIN     2
MS0011408397871H202100015132528400015132528405/12/20210141    31500515237421964250000E1AB0200000199290000000000000                                                            SOLUCION SALINA 0.9% SLN INY BO X 100 MLBIN     1
