CC0000003745913U202100919617120500919617120505/12/20211425    3190280023942196432000016830000000970620000000000000                                                             SIST FIJACION CAT PERIFERICO 6.5X7 1683SOB     1
CC0000003745913U202100919617120500919617120505/12/20211425    3190280023942196432000001956000001620610000000000000                                                                      CONECTOR MICRO CLAVE LAT-MC100SOB     1
CC0000003745913U202100919617120500919617120505/12/20211425    31902800239421964320000Q1AA7100000610620000000000000                                                            CATETER PERIFE INTROCAN # 18G 4251687-04SIN     1
CC0000003745913U202100919617120500919617120505/12/20211503    31500246239421964320000Q1AA7200000610630000000000000                                                            CATETER PERIFE INTROCAN # 20G 4251644-04SIN     1
