TI0001080425007H202100015052803000015052803005/12/20211652    3190118923742196425000030936900001431840000000000000                                                                                              BURETABOL     1
CC0000022352292H202100015052803000015052803005/12/20211652    31901189237421964250000E1AD0300000199490000000000000                                         LACTATO RINGER USP (HARTMANN)  SOL INY  BOL X 1000ML BAXTERBIN     2
TI0001080425007H202100015052803000015052803005/12/20211652    31901189237421964250000E1AB0300003888390000000000000                                                            SOLUCION SALINA 0.9% SLN INY BO X 500 MLBOL     2
