CC0000042208823H202100015052803900015052803905/12/20212231    3150058123742196425000011082700001620070000000000000                                                               EQUIPO SET PRIMARIO C/CLAVE REF 14001BOL     1
CC0000022352292H202100015052803900015052803905/12/20212231    3150058123742196425000011082700001620070000000000000                                                               EQUIPO SET PRIMARIO C/CLAVE REF 14001BOL     1
CC0000072018971H202100015052803900015052803905/12/20212231    3150058123742196425000011082700001620070000000000000                                                               EQUIPO SET PRIMARIO C/CLAVE REF 14001BOL     1
CC0000042208823H202100015052803900015052803905/12/20212231    3150058123742196425000001956000001620610000000000000                                                                      CONECTOR MICRO CLAVE LAT-MC100SOB     1
CC0000072018971H202100015052803900015052803905/12/20212231    3150058123742196425000001956000001620610000000000000                                                                      CONECTOR MICRO CLAVE LAT-MC100SOB     1
CC0000042208823H202100015052803900015052803905/12/20212231    31500581237421964250000Q1AA7300000610640000000000000                                                            CATETER PERIFE INTROCAN # 22G 4251628-04SIN     1
CC0000072018971H202100015052803900015052803905/12/20212231    31500581237421964250000Q1AA7300000610640000000000000                                                            CATETER PERIFE INTROCAN # 22G 4251628-04SIN     1
CC0000042208823H202100015052803900015052803905/12/20212231    3150058123742196425000030936900001431840000000000000                                                                                              BURETABOL     1
CC0000022352292H202100015052803900015052803905/12/20212231    3150058123742196425000030936900001431840000000000000                                                                                              BURETABOL     1
CC0000072018971H202100015052803900015052803905/12/20212231    3150058123742196425000030936900001431840000000000000                                                                                              BURETABOL     1
CC0000042208823H202100015052803900015052803905/12/20212231    3150058123742196425000016830000000970620000000000000                                                             SIST FIJACION CAT PERIFERICO 6.5X7 1683SOB     1
CC0000072018971H202100015052803900015052803905/12/20212231    3150058123742196425000016830000000970620000000000000                                                             SIST FIJACION CAT PERIFERICO 6.5X7 1683SOB     1
TI0001043681564H202100015052803900015052803905/12/20212231    31500581237421964250000E1AD0300000199490000000000000                                         LACTATO RINGER USP (HARTMANN)  SOL INY  BOL X 1000ML BAXTERBIN     4
