CC0000032753507H202100000556597000000556597005/12/20211127     3300009237421964250000A04A1300001335720000000000000                                                                                      ONDAX TAB 4 MGTAB     2
CC0000032753507H202100000556597000000556597005/12/20211715    31500383237421964250000E1AB0300003888390000000000000                                                            SOLUCION SALINA 0.9% SLN INY BO X 500 MLBOL     1
CC0000032753507H202100000556597000000556597005/12/20211127     3300009237421964250000V6DF5300000302770000000000000                                                                        ENSURE PLUS HN LCP X 1000 MLFCO     1
CC0000032753507H202100000556597000000556597005/12/20212235     3300004237421964250000N2AA0400003888080000000000000                                                                     DEMEROL HCL Sln Iny 100 mg/2 mlAMP     1
CC0000032753507H202100000556597000000556597005/12/20211127     3300009237421964250000B01AB200000513350000000000000                                                                        CLENOX SLN INY 40 MG/ 0.4 MLJRP     1
CC0000032753507H202100000556597000000556597005/12/20211127     3300009237421964250000N2BB0100001672010000000000000                                  DIPIRONA 1GR/2ML(0.5GR/ML) SOL INY INST CAJ X 100AMP X 2ML VITALISAMP     3
CC0000032753507H202100000556597000000556597005/12/20211127     3300009237421964250000A02BC700001684270000000000000                                                            OMEPRAZOL 40MG POLVO LIOFILIZADO AMPOLLAVAL     2
