PA0000000791469H202100015012626000015012626005/12/20212042    3150027623742196425000022426800001140510000000000000                                                                    EQUIPO MACROGOTEO BAXTER MRC0001SOB     1
PA0000000791469H202100015012626000015012626005/12/20212042    3150027623742196425000011082700001620070000000000000                                                               EQUIPO SET PRIMARIO C/CLAVE REF 14001BOL     1
PA0000000791469H202100015012626000015012626005/12/20212042    3150027623742196425000001956000001620610000000000000                                                                      CONECTOR MICRO CLAVE LAT-MC100SOB     1
PA0000000791469H202100015012626000015012626005/12/20212042    31500276237421964250000Q1AA7200000610630000000000000                                                            CATETER PERIFE INTROCAN # 20G 4251644-04SIN     1
PA0000000791469H202100015012626000015012626005/12/20212042    3150027623742196425000030936900001431840000000000000                                                                                              BURETABOL     1
PA0000000791469H202100015012626000015012626005/12/20212042    3150027623742196425000016830000000970620000000000000                                                             SIST FIJACION CAT PERIFERICO 6.5X7 1683SOB     1
CC0001143115732H202100015012626000015012626005/12/20212042    3150027623742196425000016830000000970620000000000000                                                             SIST FIJACION CAT PERIFERICO 6.5X7 1683SOB     1
PA0000000791469H202100015012626000015012626005/12/20212042    31500276237421964250000E1AD0200003888320000000000000                                                                              HARTMAN SLN INY 500 MLBOL     1
CC0001143115732H202100015012626000015012626005/12/20212042    31500276237421964250000E1AD0200003888320000000000000                                                                              HARTMAN SLN INY 500 MLBOL     1
CC0001129570345H202100015012626000015012626005/12/20212042    31500276237421964250000E1AB0300003888390000000000000                                                            SOLUCION SALINA 0.9% SLN INY BO X 500 MLBOL     1
