CC0000032776593A202100000027830100000027830105/12/20210917    3190333624042196419000011073300001096420000000000000                                                                BOLSA DE SUCCION DE FLUIDOS x 2500mLBOL     1
CC0000032776593A202100000027830100000027830105/12/20210917    3190333624042196419000011065700003914100000000000000                                                                 TAPON HEPARINIZADO 4238010  B BRAUNSOB     1
CC0000032776593A202100000027830100000027830105/12/20210917    31903336240421964190000Q1A13500001585200000000000000                        JERINGA PUNTA CAT SIN AGUJA REF 309620 CAJ X 40   50ML BN EXENTO-DC.417/2020SOB     1
CC0000032776593A202100000027830100000027830105/12/20210917    3190333624042196419000038573100000256880000000000000                                                                                 SONDA NSG LEVIN #18SIN     1
CC0000032776593A202100000027830100000027830105/12/20210917    31903336240421964190000Q1AA7200000610630000000000000                                                            CATETER PERIFE INTROCAN # 20G 4251644-04SIN     2
CC0000032776593A202100000027830100000027830105/12/20210917    31903336240421964190000Q1AA7100000610620000000000000                                                            CATETER PERIFE INTROCAN # 18G 4251687-04SIN     2
CC0000032776593A202100000027830100000027830105/12/20210917    31903336240421964190000H02AB400001140460000000000000                                                              SUCCINA METILPREDNISOLONA 500MG VIA/R/VAL     2
CC0000032776593A202100000027830100000027830105/12/20210917    31903336240421964190000B02B2600001024480000000000000                                                                   TISSEEL FROZEN JERINGA X 4 ML /R/PAQ     1
CC0000032776593A202100000027830100000027830105/12/20210917    3190333624042196419000038568300000257010000000000000                                                                                   SONDA NELATON #08SIN     1
CC0000032776593A202100000027830100000027830105/12/20210917    3190333624042196419000020059600000225150000000000000                                                              AGUJA RAQ SPINOC 22*3 1/2 LARG 4507908SIN     1
CC0000032776593A202100000027830100000027830105/12/20210917    31903336240421964190000J01DD500001239970000000000000                                                                  CEFTRIAXONA POLVO LIOF SLN INY 1 GVAL     2
CC0000032776593A202100000027830100000027830105/12/20210917    3190333624042196419000049428400000738560000000000000                                                                       VENDA ELASTICA 5*5 NO ESTERILSOB     1
CC0000032776593A202100000027830100000027830105/12/20210917    3190333624042196419000038568400000256940000000000000                                                                                   SONDA NELATON #10SIN     2
CC0000032776593A202100000027830100000027830105/12/20210917    3190333624042196419000018610600000607940000000000000                                                               SENSOR ADULTO XP MONITOR 006-186-0106SIN     1
CC0000032776593A202100000027830100000027830105/12/20210917    31903336240421964190000N01A0500003844190000000000000                                                                          REMIFENTANILO SLN INY 2 MGVAL     1
CC0000032776593A202100000027830100000027830105/12/20210917    31903336240421964190000N01A0400003939010000000000000                                               MAYOPROFOL 200MG/20ML(1%) EMUL INY CAJ X 1VIAL X 20MLVAL     1
CC0000032776593A202100000027830100000027830105/12/20210917    3190333624042196419000000502900000231950000000000000                                                            SUTURA CATGUT SIMPLE 3-0 SH 150CM S122SHSIN     1
CC0000032776593A202100000027830100000027830105/12/20210917    3190333624042196419000018351100000232850000000000000                                                                                 SEDA 2-0 SC-26 185TSIN     1
CC0000032776593A202100000027830100000027830105/12/20210917    3190333624042196419000000016100000314040000000000000                                                                ESPONJA HEMOSTATICA  GELFOAM ESPONJABOL     1
CC0000032776593A202100000027830100000027830105/12/20210917    3190333624042196419000019489000000599330000000000000                                                                           VICRYL 4-0 RB1 70 VCP304HSIN     1
CC0000032776593A202100000027830100000027830105/12/20210917    3190333624042196419000019488700000753270000000000000                                                                              VICRYL 3-0 SH1 VCP311HSOB     2
CC0000032776593A202100000027830100000027830105/12/20210917    31903336240421964190000N1BA0300000217900000000000000                                                                    BUPIROP 0.5% C/E Sln Iny x 20 mlVAL     1
CC0000032776593A202100000027830100000027830105/12/20210917    31903336240421964190000Q1AA6900000531340000000000000                                                            CATETER PERIFE INTROCAN # 14G 4251890-04SIN     1
CC0000032776593A202100000027830100000027830105/12/20210917    3190333624042196419000011079100000231400000000000000                                                               COTONOIDE REF 801403 DE 2.5CM X 2.5CMPZA    20
CC0000032776593A202100000027830100000027830105/12/20210917    3190333624042196419000030161400001459220000000000000                                                                       MANGUERA SUCCION 6 MM*3.1 MTSSOB     1
CC0000032776593A202100000027830100000027830105/12/20210917    3190333624042196419000030825800000270990000000000000                                                                  ALGODON ESTERIL SOBRE X 3 TORUNDASPZA     4
CC0000032776593A202100000027830100000027830105/12/20210917    3190333624042196419000045138000001413890000000000000                                                                       LAPIZ ELECTROBISTURI  SOB X 1SOB     1
CC0000032776593A202100000027830100000027830105/12/20210917    3190333624042196419000043879100001138200000000000000                                                                  HOJA BISTURI # 15 CSSB 15 01002003SOB     1
CC0000032776593A202100000027830100000027830105/12/20210917    3190333624042196419000011110600000231980000000000000                                                                       CERA HUESOS 25GM ESTERIL W31GSIN     1
CC0000032776593A202100000027830100000027830105/12/20210917    3190333624042196419000020750600000296780000000000000                                                                PLACA ELECTRO RETORNO PACIENTE E7506SIN     1
CC0000032776593A202100000027830100000027830105/12/20210917    3190333624042196419000011082700001620070000000000000                                                               EQUIPO SET PRIMARIO C/CLAVE REF 14001BOL     1
CC0000032776593A202100000027830100000027830105/12/20210917    3190333624042196419000053074400000607910000000000000                                                               GASA ESTERIL 10*10 SOBRE X 3 UNIDADESSOB     3
CC0000032776593A202100000027830100000027830105/12/20210917    3190333624042196419000024673000001411210000000000000                                                                  JERINGA DESECHABLE 3 ML 21 X 1 1/2SOB     1
CC0000032776593A202100000027830100000027830105/12/20210917    3190333624042196419000024673600000222980000000000000                                                                     JERINGA DESECHABLE 5 ml 27*11/2SIN     1
CC0000032776593A202100000027830100000027830105/12/20210917    3190333624042196419000024674000001138340000000000000   JERINGA 3PARTES C/A 10ML REF JEHL005 CAJ X 100 ALFASAFE  21GX1 PULG 1/2 PULG BN EXENTO-DC.417/202PZA     3
CC0000032776593A202100000027830100000027830105/12/20210917    3190333624042196419000024674500000322810000000000000                                                                   JERINGA DESECHABLE 20 ml 21*1 1/2SIN     3
CC0000032776593A202100000027830100000027830105/12/20210917    3190333624042196419000011085300001082140000000000000                                                                           GUANTE QUIRURGICO TALLA 8SOB     2
CC0000032776593A202100000027830100000027830105/12/20210917    3190333624042196419000011085200001585390000000000000                                                                       GUANTE QUIRURGICO TALLA 7 1/2SOB     2
CC0000032776593A202100000027830100000027830105/12/20210917    3190333624042196419000011085100001082120000000000000                                                                           GUANTE QUIRURGICO TALLA 7SOB     3
CC0000032776593A202100000027830100000027830105/12/20210917    3190333624042196419000043485100001618510000000000000                GUANTE QUIRURGICO DE LATEX REF 2D72N65X CAJ X 50 PROTEXIS  6.5 BN EXENTO-DC.417/2020SOB     3
CC0000032776593A202100000027830100000027830105/12/20210917    3190333624042196419000038569400000256750000000000000                                                                        SONDA ASPIRACION CONTROL #14SIN     1
CC0000032776593A202100000027830100000027830105/12/20210917    3190333624042196419000039174800001072030000000000000                                                                           TUBO ENDOTRAQUEAL C/B 6.0SOB     1
CC0000032776593A202100000027830100000027830105/12/20210917    3190333624042196419000020056600001101530000000000000                                                                AGUJA HIPODERMICA DESECH 18G X 1 1/2SOB     1
CC0000032776593A202100000027830100000027830105/12/20210917    3190333624042196419000011099300000777780000000000000                                                                     FILTRO BACTERIANO VIRICO ADULTOBOL     1
CC0000032776593A202100000027830100000027830105/12/20210917    31903336240421964190000E1AD0200003888320000000000000                                                                              HARTMAN SLN INY 500 MLBOL     2
CC0000032776593A202100000027830100000027830105/12/20210917    31903336240421964190000E1AB0300003888390000000000000                                                            SOLUCION SALINA 0.9% SLN INY BO X 500 MLBOL     3
CC0000032776593A202100000027830100000027830105/12/20210917    31903336240421964190000E1AB0700003888350000000000000                                                            SOLUCION SALINA 0.9% SLN INY BO X 250 MLBOL     1
CC0000032776593A202100000027830100000027830105/12/20210917    31903336240421964190000N1BA2400001687720000000000000                                                    LIDOCAINA 2% SOL INY  CAJ X 50AMP X 10ML CORPAULAMP     2
CC0000032776593A202100000027830100000027830105/12/20210917    31903336240421964190000M03A0900001467590000000000000                                                                        ROCURONIO SLN INY 50 MG/5 MLVAL     2
CC0000032776593A202100000027830100000027830105/12/20210917    31903336240421964190000A2BC0900000200150000000000000                                                                               ORAZOLE Sln Iny 40 mgCIN     1
CC0000032776593A202100000027830100000027830105/12/20210917    31903336240421964190000N1AH0200003906560000000000000                                                                     FENTANIL Iny 0.05 mg/ml x 10 mlAMP     1
