CE0000000522030U202100000556604200000556604205/12/20211843    31903180239421964320000E1AB0300003888390000000000000                                                            SOLUCION SALINA 0.9% SLN INY BO X 500 MLBOL     1
CE0000000522030U202100000556604200000556604205/12/20211700     3300004239421964320000H02AB500001664950000000000000                                                            DEXAMETASONA SLN INY 8 MG/2 ML AMP /CDS/AMP     1
CE0000000522030U202100000556604200000556604205/12/20211700     3300004239421964320000M1AE2500000191550000000000000                                                            PROFENID POLVO LIOF SLN INY 100MG/2ML/R/AMP     1
CE0000000522030U202100000556604200000556604205/12/20211701     3300004239421964320000N2AX0500001204110000000000000                                                                          TRAMAL SLN INY 100 MG / MLAMP     1
