CC0000064541334H202100000556580000000556580005/12/20210903     3300009237421964250000A2BX0100001277280000000000000                                                                                ALSUCRAL TAB 1 G /R/TAB     1
CC0000064541334H202100000556580000000556580005/12/20211504     3300010237421964250000A2BC0900000200150000000000000                                                                               ORAZOLE Sln Iny 40 mgCIN     1
CC0000064541334H202100000556580000000556580005/12/20210904     3300009237421964250000A2BC0900000200150000000000000                                                                               ORAZOLE Sln Iny 40 mgCIN     2
CC0000064541334H202100000556580000000556580005/12/20211504     3300010237421964250000A4AD0200000202990000000000000                                                                     PLITICAN HCL Sln Iny 50 mg/2 mlAMP     1
CC0000064541334H202100000556580000000556580005/12/20210903     3300009237421964250000A4AD0200000202990000000000000                                                                     PLITICAN HCL Sln Iny 50 mg/2 mlAMP     4
CC0000064541334H202100000556580000000556580005/12/20211504     3300010237421964250000A7DA0100001303560000000000000                                                                                 LOPERAMIDA TAB 2 MGTAB     2
CC0000064541334H202100000556580000000556580005/12/20210904     3300009237421964250000A7DA0100001303560000000000000                                                                                 LOPERAMIDA TAB 2 MGTAB     4
CC0000064541334H202100000556580000000556580005/12/20211504     3300010237421964250000B1AB0200003939510000000000000                 ENOXAPARINA SODICA 40MG/0.4ML(100MG/ML) SOL INY INST CAJ X 2JERPREL X 0.4ML TECHDOWJRP     1
CC0000064541334H202100000556580000000556580005/12/20210904     3300009237421964250000B1AB0200003939510000000000000                 ENOXAPARINA SODICA 40MG/0.4ML(100MG/ML) SOL INY INST CAJ X 2JERPREL X 0.4ML TECHDOWJRP     1
CC0000064541334H202100000556580000000556580005/12/20212136    31902409237421964250000E1AD0300000199490000000000000                                         LACTATO RINGER USP (HARTMANN)  SOL INY  BOL X 1000ML BAXTERBIN     2
CC0000064541334H202100000556580000000556580005/12/20211719    31500566237421964250000E1AD0300000199490000000000000                                         LACTATO RINGER USP (HARTMANN)  SOL INY  BOL X 1000ML BAXTERBIN     1
CC0000064541334H202100000556580000000556580005/12/20211159    31903107237421964250000E1AD0300000199490000000000000                                         LACTATO RINGER USP (HARTMANN)  SOL INY  BOL X 1000ML BAXTERBIN     1
CC0000064541334H202100000556580000000556580005/12/20210030    31901156237421964250000E1AD0300000199490000000000000                                         LACTATO RINGER USP (HARTMANN)  SOL INY  BOL X 1000ML BAXTERBIN     1
CC0000064541334H202100000556580000000556580005/12/20210903     3300009237421964250000C3AA0100001315100000000000000                                                                         HIDROCLOROTIAZIDA TAB 25 MGTAB     1
CC0000064541334H202100000556580000000556580005/12/20210903     3300009237421964250000C7AB1500001277290000000000000                                                                        BETALOC ZOK TAB LM 50 MG /R/TAB     2
CC0000064541334H202100000556580000000556580005/12/20210903     3300009237421964250000C2DE1400001277050000000000000                                                                         NIFEDIPINO CAPSULA LM 30 MGCAP     1
CC0000064541334H202100000556580000000556580005/12/20211504     3300010237421964250000J1DA3100000187510000000000000                                                                           ROCEFIN Polvo SLN INY 1 GCIN     2
CC0000064541334H202100000556580000000556580005/12/20210903     3300009237421964250000J1DA3100000187510000000000000                                                                           ROCEFIN Polvo SLN INY 1 GCIN     2
CC0000064541334H202100000556580000000556580005/12/20211504     3300010237421964250000N2BB0500000217140000000000000                                                                          NOVALGINA Sln Iny 1 g/2 mlAMP     1
CC0000064541334H202100000556580000000556580005/12/20210903     3300009237421964250000N2BB0500000217140000000000000                                                                          NOVALGINA Sln Iny 1 g/2 mlAMP     2
CC0000064541334H202100000556580000000556580005/12/20210904     3300009237421964250000N03A0800001278440000000000000                                                                                LYRICA CAP 75 MG /R/CAP     1
CC0000064541334H202100000556580000000556580005/12/20211527    31500065237421964250000V07A1300000502600000000000000                                                                                AGUA ESTERIL x 10 mlAMP     3
