CC0000022406887H202100000556597100000556597105/12/20211716    31500383237421964250000E1AB0300003888390000000000000                                                            SOLUCION SALINA 0.9% SLN INY BO X 500 MLBOL     1
CC0000022406887H202100000556597100000556597105/12/20211127     3300009237421964250000C09CA400001277130000000000000                                                                                  LOSARTAN TAB 50 MGTAB     1
CC0000022406887H202100000556597100000556597105/12/20211127     3300009237421964250000C3DA0800001315680000000000000                                                                               METFORMINA TAB 850 MGTAB     1
CC0000022406887H202100000556597100000556597105/12/20211128     3300009237421964250000N2BB0100001672010000000000000                                  DIPIRONA 1GR/2ML(0.5GR/ML) SOL INY INST CAJ X 100AMP X 2ML VITALISAMP     1
CC0000022406887H202100000556597100000556597105/12/20211127     3300009237421964250000N2BB0100001672010000000000000                                  DIPIRONA 1GR/2ML(0.5GR/ML) SOL INY INST CAJ X 100AMP X 2ML VITALISAMP     5
