TI0001081819374U202100050131928200050131928205/12/20211553    3150026323942196432000011048600000223020000000000000                                                                 JERINGA VACUNACION 3ML C/AGU 302542SIN     1
TI0001081819374U202100050131928200050131928205/12/20211553    3150026323942196432000024673600000222980000000000000                                                                     JERINGA DESECHABLE 5 ml 27*11/2SIN     2
TI0001081819374U202100050131928200050131928205/12/20211553    3150026323942196432000011082700001620070000000000000                                                               EQUIPO SET PRIMARIO C/CLAVE REF 14001BOL     1
TI0001081819374U202100050131928200050131928205/12/20211553    3150026323942196432000001956000001620610000000000000                                                                      CONECTOR MICRO CLAVE LAT-MC100SOB     1
TI0001081819374U202100050131928200050131928205/12/20211553    31500263239421964320000Q1AA7300000610640000000000000                                                            CATETER PERIFE INTROCAN # 22G 4251628-04SIN     1
TI0001081819374U202100050131928200050131928205/12/20211553    31500263239421964320000Q1AA7400003911720000000000000                                                            CATETER PERIFE INTROCAN # 24G 4251601-04SOB     1
TI0001081819374U202100050131928200050131928205/12/20211553    3150026323942196432000030936900001431840000000000000                                                                                              BURETABOL     1
TI0001081819374U202100050131928200050131928205/12/20211553    3150026323942196432000000602600001259280000000000000                                                             APOSITO TEGADERM IV PD 1610 5CM X 5.7CMSOB     1
TI0001081819374U202100050131928200050131928205/12/20211553    31500263239421964320000E1AB0500003888400000000000000                                                              SOLUCION SALINA 0.9% SLN INY X 1000 MLBOL     1
