TI0001121302704H202100015032648300015032648305/12/20210536    3190233523742196425000001956000001620610000000000000                                                                      CONECTOR MICRO CLAVE LAT-MC100SOB     1
TI0001121302704H202100015032648300015032648305/12/20210536    31902335237421964250000Q1AA7300000610640000000000000                                                            CATETER PERIFE INTROCAN # 22G 4251628-04SIN     1
TI0001121302704H202100015032648300015032648305/12/20210536    31902335237421964250000Q1AA7400003911720000000000000                                                            CATETER PERIFE INTROCAN # 24G 4251601-04SOB     1
TI0001121302704H202100015032648300015032648305/12/20210536    3190233523742196425000016830000000970620000000000000                                                             SIST FIJACION CAT PERIFERICO 6.5X7 1683SOB     1
