CC0001151478323H202100000556593000000556593005/12/20210908     3300009237421964250000A04A0600001277030000000000000                                                                                      ONDAX TAB 8 MGTAB     2
CC0001151478323H202100000556593000000556593005/12/20210908     3300009237421964250000A6AC0200001467010000000000000                                                             LACTULAX JARABE 66.7G/100ML SOX15ML /R/SOB     1
CC0001151478323H202100000556593000000556593005/12/20212302    31500213237421964250000B5BC0200003889280000000000000                                                                 OSMORIN MANITOL 20 % Bolsa X 500 mlBOL     1
CC0001151478323H202100000556593000000556593005/12/20210907     3300009237421964250000H02AB500001664950000000000000                                                            DEXAMETASONA SLN INY 8 MG/2 ML AMP /CDS/AMP     1
CC0001151478323H202100000556593000000556593005/12/20210908     3300009237421964250000N02B1100001464120000000000000                                           PARACETAMOL EP 1000MG/100ML(10MG/ML) SOL INY  CAJ X 10FCOVAL     2
CC0001151478323H202100000556593000000556593005/12/20210908     3300009237421964250000N03AX200001063780000000000000                                                                      KEPPRA SLN INY 500 MG/5 ML /R/VAL     6
CC0001151478323H202100000556593000000556593005/12/20211603     3300010237421964250000N2AA0200000301600000000000000                                                                        HIDROMORFONA Sln Iny 2 mg/mlAMP     2
CC0001151478323H202100000556593000000556593005/12/20210908     3300009237421964250000N05AH200001685520000000000000                                                                             OLANZAPINA TAB 5 MG /R/TAB     1
CC0001151478323H202100000556593000000556593005/12/20210907     3300009237421964250000N6AB0800001278460000000000000                                                                                FLUOXETINA CAP 20 MGCAP     1
CC0001151478323H202100000556593000000556593005/12/20210908     3300009237421964250000A02BC700001684270000000000000                                                            OMEPRAZOL 40MG POLVO LIOFILIZADO AMPOLLAVAL     1
