CC0000019068414H202100000556599100000556599105/12/20211221    31500170237421964250000J01DA300001239950000000000000                                                            CEFAZOLINA SODICA POLVO LIOF SLN INY 1 GVAL     3
CC0000019068414H202100000556599100000556599105/12/20211221    31500170237421964250000N2BB0200000513030000000000000                                                                           LISALGIL Sln Iny 2 g/5 mlAMP     2
CC0000019068414H202100000556599100000556599105/12/20211218    31500170237421964250000N2BB0200000513030000000000000                                                                           LISALGIL Sln Iny 2 g/5 mlAMP     1
CC0000019068414H202100000556599100000556599105/12/20211221    31500170237421964250000A06A1700001333140000000000000                                                                                 BISACODILO TAB 5 MGTAB     1
CC0000019068414H202100000556599100000556599105/12/20211221    31500170237421964250000A03BB100003889180000000000000                                      HIOSCINA BUTIL BROMURO 20MG/ML SOL INY CAJ X 100AMP X 1ML RYANAMP     2
CC0000019068414H202100000556599100000556599105/12/20211218    31500170237421964250000A03BB100003889180000000000000                                      HIOSCINA BUTIL BROMURO 20MG/ML SOL INY CAJ X 100AMP X 1ML RYANAMP     1
