CC0000022362807H202100015112738900015112738905/12/20211449    31500501237421964250000Q1A13500001585200000000000000                        JERINGA PUNTA CAT SIN AGUJA REF 309620 CAJ X 40   50ML BN EXENTO-DC.417/2020SOB     1
CC0000072339909H202100015112738900015112738905/12/20211449    31500501237421964250000Q1A13500001585200000000000000                        JERINGA PUNTA CAT SIN AGUJA REF 309620 CAJ X 40   50ML BN EXENTO-DC.417/2020SOB     1
CC0000032776593H202100015112738900015112738905/12/20211449    31500501237421964250000Q1A13500001585200000000000000                        JERINGA PUNTA CAT SIN AGUJA REF 309620 CAJ X 40   50ML BN EXENTO-DC.417/2020SOB     1
CC0001066890191H202100015112738900015112738905/12/20211449    31500501237421964250000Q1A13500001585200000000000000                        JERINGA PUNTA CAT SIN AGUJA REF 309620 CAJ X 40   50ML BN EXENTO-DC.417/2020SOB     1
CC0000019773143H202100015112738900015112738905/12/20211449    3150050123742196425000011082700001620070000000000000                                                               EQUIPO SET PRIMARIO C/CLAVE REF 14001BOL     1
CC0000022362807H202100015112738900015112738905/12/20211449    3150050123742196425000011082700001620070000000000000                                                               EQUIPO SET PRIMARIO C/CLAVE REF 14001BOL     1
CC0000072339909H202100015112738900015112738905/12/20211449    3150050123742196425000011082700001620070000000000000                                                               EQUIPO SET PRIMARIO C/CLAVE REF 14001BOL     1
CC0001066890191H202100015112738900015112738905/12/20211449    3150050123742196425000011082700001620070000000000000                                                               EQUIPO SET PRIMARIO C/CLAVE REF 14001BOL     1
CC0000022362807H202100015112738900015112738905/12/20211449    3150050123742196425000031188000000236790000000000000                                                                                     CISTOFLO ADULTOSIN     1
