CC0001140828821H202100000556582600000556582605/12/20210123    31500107237421964250000B05AA100000179170000000000000                                                                   ALB?MINA HUMANA 20% SOL INY 50 MLCIN     3
CC0001140828821H202100000556582600000556582605/12/20210123    31500107237421964250000A02BC100001677520000000000000                                                                ESOMEPRAZOL POLVO LIOF INY 40 MG /R/VAL     2
CC0001140828821H202100000556582600000556582605/12/20210123    31500107237421964250000A3BB0200000512940000000000000                                                                          BUSCAPINA SIMPLE Iny 20 mgAMP     2
CC0001140828821H202100000556582600000556582605/12/20210123    31500107237421964250000A03F0300001626860000000000000                                                                   METOCLOPRAMIDA SLN INY 10 MG/2 MLAMP     3
CC0001140828821H202100000556582600000556582605/12/20210123    31500107237421964250000A03A0900001316830000000000000                                                                           COLYPAN LP TAB 300 MG /R/TAB     3
CC0001140828821H202100000556582600000556582605/12/20210123    31500107237421964250000B01A0600000216800000000000000                                                                   ARIXTRA SLN INY 2.5 MG/0.5 ML /R/SIN     1
CC0001140828821H202100000556582600000556582605/12/20210123    31500107237421964250000C3CA0200000195520000000000000                                                                           LASIX SLN INY 20 MG/ 2 MLAMP     4
CC0001140828821H202100000556582600000556582605/12/20210123    31500107237421964250000H03A0900001278900000000000000                                                                                   EUTIROX TB 75 MCGTAB     1
CC0001140828821H202100000556582600000556582605/12/20210123    31500107237421964250000J1KF0200001677230000000000000                                                                      MERONEM POLVO SLN INY 1 G  /R/VAL     2
CC0001140828821H202100000556582600000556582605/12/20210123    31500107237421964250000J01XA400001212420000000000000                                                               VANCOMICINA POLVO LIOF SLN INY 500 MGVAL     4
CC0001140828821H202100000556582600000556582605/12/20210123    31500107237421964250000J02A0500000467570000000000000                                                                      DIFLUCAN SLN INY 200 MG/100 MLFCO     1
CC0001140828821H202100000556582600000556582605/12/20210123    31500107237421964250000N01B0200003888110000000000000                                           ROXICAINA SE 100MG/10ML(1%) SOL INY CAJ X 24AMPACK X 10MLAPC     1
CC0001140828821H202100000556582600000556582605/12/20210123    31500107237421964250000N2AX0400001204140000000000000                                                                             TRAMAL Sln Iny 50 mg/mlAMP     2
CC0001140828821H202100000556582600000556582605/12/20210123    31500107237421964250000N2BB0200000513030000000000000                                                                           LISALGIL Sln Iny 2 g/5 mlAMP     3
CC0001140828821H202100000556582600000556582605/12/20210123    31500107237421964250000N02B1100001464120000000000000                                           PARACETAMOL EP 1000MG/100ML(10MG/ML) SOL INY  CAJ X 10FCOVAL     3
CC0001140828821H202100000556582600000556582605/12/20210123    31500107237421964250000N05A0500001336370000000000000                                                                              SEROQUEL TAB 25 MG /R/TAB     1
CC0001140828821H202100000556582600000556582605/12/20210123    31500107237421964250000B05B2500001052320000000000000                                                                     PERIOLIMEL BOLSA X 1500 ML (N4)BOL     1
CC0001140828821H202100000556582600000556582605/12/20210123    31500107237421964250000N5BA0500001277630000000000000                                                                                   XANAX Tab 0.25 mgTAB     2
CC0001140828821H202100000556582600000556582605/12/20210123    31500107237421964250000N2AA0100000301640000000000000                                                                            MORFINA Sln Iny 10 mg/mlAMP     5
