RC0001016919305H202100000556580500000556580505/12/20210854     3300009237421964250000A2BC0900000200150000000000000                                                                               ORAZOLE Sln Iny 40 mgCIN     1
RC0001016919305H202100000556580500000556580505/12/20211427    31902977237421964250000E1AD0300000199490000000000000                                         LACTATO RINGER USP (HARTMANN)  SOL INY  BOL X 1000ML BAXTERBIN     1
RC0001016919305H202100000556580500000556580505/12/20210032    31901156237421964250000E1AD0300000199490000000000000                                         LACTATO RINGER USP (HARTMANN)  SOL INY  BOL X 1000ML BAXTERBIN     1
RC0001016919305H202100000556580500000556580505/12/20211500     3300010237421964250000J01DB300000553200000000000000                                                                         CEFALOTINA SLN INY 1 G VIALVAL     1
RC0001016919305H202100000556580500000556580505/12/20210854     3300009237421964250000J01DB300000553200000000000000                                                                         CEFALOTINA SLN INY 1 G VIALVAL     2
RC0001016919305H202100000556580500000556580505/12/20210854     3300009237421964250000N2BB0500000217140000000000000                                                                          NOVALGINA Sln Iny 1 g/2 mlAMP     3
RC0001016919305H202100000556580500000556580505/12/20211529    31500065237421964250000V07A1300000502600000000000000                                                                                AGUA ESTERIL x 10 mlAMP     3
