CC0000072277171H202100015042536900015042536905/12/20212318    31500213237421964250000V07A1300000502600000000000000                                                                                AGUA ESTERIL x 10 mlAMP     5
RC0001146543342H202100015042536900015042536905/12/20212318    31500213237421964250000V07A1300000502600000000000000                                                                                AGUA ESTERIL x 10 mlAMP     3
TI0001066284726H202100015042536900015042536905/12/20212318    31500213237421964250000V07A1300000502600000000000000                                                                                AGUA ESTERIL x 10 mlAMP     6
CC0001002134630H202100015042536900015042536905/12/20212318    31500213237421964250000V07A1300000502600000000000000                                                                                AGUA ESTERIL x 10 mlAMP     2
CC0001151478323H202100015042536900015042536905/12/20212318    31500213237421964250000V07A1300000502600000000000000                                                                                AGUA ESTERIL x 10 mlAMP     8
CC0001192925687H202100015042536900015042536905/12/20212318    31500213237421964250000V07A1300000502600000000000000                                                                                AGUA ESTERIL x 10 mlAMP     1
TI0001047048202H202100015042536900015042536905/12/20212318    31500213237421964250000V07A1300000502600000000000000                                                                                AGUA ESTERIL x 10 mlAMP     2
CC0001129577696H202100015042536900015042536905/12/20212318    31500213237421964250000V07A1300000502600000000000000                                                                                AGUA ESTERIL x 10 mlAMP     4
CC0000032632813H202100015042536900015042536905/12/20212318    31500213237421964250000V07A1300000502600000000000000                                                                                AGUA ESTERIL x 10 mlAMP     1
CC0000008760986H202100015042536900015042536905/12/20212318    31500213237421964250000V07A1300000502600000000000000                                                                                AGUA ESTERIL x 10 mlAMP     1
CC0000007411669H202100015042536900015042536905/12/20212318    31500213237421964250000V07A1300000502600000000000000                                                                                AGUA ESTERIL x 10 mlAMP     3
CC0000041782192H202100015042536900015042536905/12/20212318    3150021323742196425000045136100001419300000000000000                                                                            LANCETA DEXTROMETER X UNPZA     2
CC0000072277171H202100015042536900015042536905/12/20212318    3150021323742196425000024674000001138340000000000000   JERINGA 3PARTES C/A 10ML REF JEHL005 CAJ X 100 ALFASAFE  21GX1 PULG 1/2 PULG BN EXENTO-DC.417/202PZA     5
RC0001146543342H202100015042536900015042536905/12/20212318    3150021323742196425000024674000001138340000000000000   JERINGA 3PARTES C/A 10ML REF JEHL005 CAJ X 100 ALFASAFE  21GX1 PULG 1/2 PULG BN EXENTO-DC.417/202PZA     3
TI0001066284726H202100015042536900015042536905/12/20212318    3150021323742196425000024674000001138340000000000000   JERINGA 3PARTES C/A 10ML REF JEHL005 CAJ X 100 ALFASAFE  21GX1 PULG 1/2 PULG BN EXENTO-DC.417/202PZA     6
CC0001002134630H202100015042536900015042536905/12/20212318    3150021323742196425000024674000001138340000000000000   JERINGA 3PARTES C/A 10ML REF JEHL005 CAJ X 100 ALFASAFE  21GX1 PULG 1/2 PULG BN EXENTO-DC.417/202PZA     2
CC0001151478323H202100015042536900015042536905/12/20212318    3150021323742196425000024674000001138340000000000000   JERINGA 3PARTES C/A 10ML REF JEHL005 CAJ X 100 ALFASAFE  21GX1 PULG 1/2 PULG BN EXENTO-DC.417/202PZA     8
CC0001192925687H202100015042536900015042536905/12/20212318    3150021323742196425000024674000001138340000000000000   JERINGA 3PARTES C/A 10ML REF JEHL005 CAJ X 100 ALFASAFE  21GX1 PULG 1/2 PULG BN EXENTO-DC.417/202PZA     1
TI0001047048202H202100015042536900015042536905/12/20212318    3150021323742196425000024674000001138340000000000000   JERINGA 3PARTES C/A 10ML REF JEHL005 CAJ X 100 ALFASAFE  21GX1 PULG 1/2 PULG BN EXENTO-DC.417/202PZA     2
CC0001129577696H202100015042536900015042536905/12/20212318    3150021323742196425000024674000001138340000000000000   JERINGA 3PARTES C/A 10ML REF JEHL005 CAJ X 100 ALFASAFE  21GX1 PULG 1/2 PULG BN EXENTO-DC.417/202PZA     4
CC0000032632813H202100015042536900015042536905/12/20212318    3150021323742196425000024674000001138340000000000000   JERINGA 3PARTES C/A 10ML REF JEHL005 CAJ X 100 ALFASAFE  21GX1 PULG 1/2 PULG BN EXENTO-DC.417/202PZA     1
CC0000008760986H202100015042536900015042536905/12/20212318    3150021323742196425000024674000001138340000000000000   JERINGA 3PARTES C/A 10ML REF JEHL005 CAJ X 100 ALFASAFE  21GX1 PULG 1/2 PULG BN EXENTO-DC.417/202PZA     1
CC0000007411669H202100015042536900015042536905/12/20212318    3150021323742196425000024674000001138340000000000000   JERINGA 3PARTES C/A 10ML REF JEHL005 CAJ X 100 ALFASAFE  21GX1 PULG 1/2 PULG BN EXENTO-DC.417/202PZA     3
CC0000041782192H202100015042536900015042536905/12/20212318    3150021323742196425000024672100001609890000000000000                                                            JERINGA INSULINA 1ML TAPA NARANJA JEI013SOB     2
CC0000072277171H202100015042536900015042536905/12/20212318    3150021323742196425000043485100001618510000000000000                GUANTE QUIRURGICO DE LATEX REF 2D72N65X CAJ X 50 PROTEXIS  6.5 BN EXENTO-DC.417/2020SOB     1
CC0000072277171H202100015042536900015042536905/12/20212318    3150021323742196425000013077800000471960000000000000                                                             GASA NO TEJIDA EST 7.5 X 7.5 SOB X 3 UNSOB     5
CC0001002134630H202100015042536900015042536905/12/20212318    31500213237421964250000E1AD0200003888320000000000000                                                                              HARTMAN SLN INY 500 MLBOL     4
CC0001129577696H202100015042536900015042536905/12/20212318    31500213237421964250000E1AD0200003888320000000000000                                                                              HARTMAN SLN INY 500 MLBOL     2
CC0000072277171H202100015042536900015042536905/12/20212318    31500213237421964250000E1AB0200000199290000000000000                                                            SOLUCION SALINA 0.9% SLN INY BO X 100 MLBIN     1
RC0001146543342H202100015042536900015042536905/12/20212318    31500213237421964250000E1AC0100000199400000000000000                                                                          SUERO MIXTO Sln Iny 500 mlBIN     1
TI0001066284726H202100015042536900015042536905/12/20212318    31500213237421964250000E1AC0100000199400000000000000                                                                          SUERO MIXTO Sln Iny 500 mlBIN     1
CC0000041782192H202100015042536900015042536905/12/20212318    3150021323742196425000011137100001419310000000000000                                                               TIRA GLUCOMETRIA FREESTYLE H OPTIUM .PZA     2
