CC0001045685559U202100050131924800050131924805/12/20211120    3190092523942196432000019489300000599360000000000000                                                                              VICRYL 5-0 RB1 70 J303SIN     1
CC0001045685559U202100050131924800050131924805/12/20211120    3190092523942196432000012474900000232260000000000000                                                              SUTURA ETHILON 6-0 P1 75CM NEGRA P697TSIN     1
CC0001192812216U202100050131924800050131924805/12/20211120    3190092523942196432000011048600000223020000000000000                                                                 JERINGA VACUNACION 3ML C/AGU 302542SIN     2
CC0001045685559U202100050131924800050131924805/12/20211120    3190092523942196432000024674000001138340000000000000   JERINGA 3PARTES C/A 10ML REF JEHL005 CAJ X 100 ALFASAFE  21GX1 PULG 1/2 PULG BN EXENTO-DC.417/202PZA     1
CC0001192812216U202100050131924800050131924805/12/20211120    3190092523942196432000024672100001609890000000000000                                                            JERINGA INSULINA 1ML TAPA NARANJA JEI013SOB     1
CC0001192812216U202100050131924800050131924805/12/20211120    3190092523942196432000011047900000223010000000000000                                                                            JERINGA X 1ML REF 302579SIN     1
CC0001045685559U202100050131924800050131924805/12/20211120    3190092523942196432000043485100001618510000000000000                GUANTE QUIRURGICO DE LATEX REF 2D72N65X CAJ X 50 PROTEXIS  6.5 BN EXENTO-DC.417/2020SOB     2
CC0001045685559U202100050131924800050131924805/12/20211120    3190092523942196432000013077800000471960000000000000                                                             GASA NO TEJIDA EST 7.5 X 7.5 SOB X 3 UNSOB     3
CC0001045685559U202100050131924800050131924805/12/20211120    3190092523942196432000011082700001620070000000000000                                                               EQUIPO SET PRIMARIO C/CLAVE REF 14001BOL     1
CC0001045685559U202100050131924800050131924805/12/20211120    3190092523942196432000001956000001620610000000000000                                                                      CONECTOR MICRO CLAVE LAT-MC100SOB     1
CC0001045685559U202100050131924800050131924805/12/20211120    31900925239421964320000Q1AA7200000610630000000000000                                                            CATETER PERIFE INTROCAN # 20G 4251644-04SIN     1
CC0001045685559U202100050131924800050131924805/12/20211120    3190092523942196432000030936900001431840000000000000                                                                                              BURETABOL     1
CC0001045685559U202100050131924800050131924805/12/20211120    3190092523942196432000016830000000970620000000000000                                                             SIST FIJACION CAT PERIFERICO 6.5X7 1683SOB     1
CC0001045685559U202100050131924800050131924805/12/20211120    31900925239421964320000E1AB0500003888400000000000000                                                              SOLUCION SALINA 0.9% SLN INY X 1000 MLBOL     2
CC0001045685559U202100050131924800050131924805/12/20211120    31900925239421964320000E1AB0300003888390000000000000                                                            SOLUCION SALINA 0.9% SLN INY BO X 500 MLBOL     1
