TI0001066284726H202100015042536600015042536605/12/20211617    3150008223742196425000022426800001140510000000000000                                                                    EQUIPO MACROGOTEO BAXTER MRC0001SOB     1
TI0001047048202H202100015042536600015042536605/12/20211617    3150008223742196425000022426800001140510000000000000                                                                    EQUIPO MACROGOTEO BAXTER MRC0001SOB     1
CC0001129577696H202100015042536600015042536605/12/20211617    3150008223742196425000022426800001140510000000000000                                                                    EQUIPO MACROGOTEO BAXTER MRC0001SOB     1
RC0001146543342H202100015042536600015042536605/12/20211617    3150008223742196425000001956000001620610000000000000                                                                      CONECTOR MICRO CLAVE LAT-MC100SOB     1
RC0001146543342H202100015042536600015042536605/12/20211617    31500082237421964250000Q1A18000001209360000000000000                                                            CATETER PERIF NEONA INSYTE-N #24G 381811SOB     2
RC0001146543342H202100015042536600015042536605/12/20211617    3150008223742196425000016830000000970620000000000000                                                             SIST FIJACION CAT PERIFERICO 6.5X7 1683SOB     1
