CC0001143114304U202100000556584400000556584405/12/20210235    31500194239421964320000E1AB0500003888400000000000000                                                              SOLUCION SALINA 0.9% SLN INY X 1000 MLBOL     1
CC0001143114304U202100000556584400000556584405/12/20211324     3300004239421964320000J01DA300001239950000000000000                                                            CEFAZOLINA SODICA POLVO LIOF SLN INY 1 GVAL     1
CC0001143114304U202100000556584400000556584405/12/20210748     3300004239421964320000J01DA300001239950000000000000                                                            CEFAZOLINA SODICA POLVO LIOF SLN INY 1 GVAL     1
CC0001143114304U202100000556584400000556584405/12/20210214     3300004239421964320000J01DA300001239950000000000000                                                            CEFAZOLINA SODICA POLVO LIOF SLN INY 1 GVAL     1
CC0001143114304U202100000556584400000556584405/12/20210214     3300004239421964320000J01G0100000858000000000000000                                                                       GARAMICINA SLN INY 80 MG/2 MLAMP     1
CC0001143114304U202100000556584400000556584405/12/20210214     3300004239421964320000M1AE2500000191550000000000000                                                            PROFENID POLVO LIOF SLN INY 100MG/2ML/R/AMP     1
CC0001143114304U202100000556584400000556584405/12/20210748     3300004239421964320000N02B1100001464120000000000000                                           PARACETAMOL EP 1000MG/100ML(10MG/ML) SOL INY  CAJ X 10FCOVAL     1
CC0001143114304U202100000556584400000556584405/12/20210214     3300004239421964320000N02B1100001464120000000000000                                           PARACETAMOL EP 1000MG/100ML(10MG/ML) SOL INY  CAJ X 10FCOVAL     1
