CC0001045670902H202100015032649300015032649305/12/20211947    3190240923742196425000022426800001140510000000000000                                                                    EQUIPO MACROGOTEO BAXTER MRC0001SOB     1
RC0001043476962H202100015032649300015032649305/12/20211947    3190240923742196425000022426800001140510000000000000                                                                    EQUIPO MACROGOTEO BAXTER MRC0001SOB     1
CC0001045670902H202100015032649300015032649305/12/20211947    3190240923742196425000011082700001620070000000000000                                                               EQUIPO SET PRIMARIO C/CLAVE REF 14001BOL     1
RC0001043476962H202100015032649300015032649305/12/20211947    3190240923742196425000011082700001620070000000000000                                                               EQUIPO SET PRIMARIO C/CLAVE REF 14001BOL     1
CC0000000800641H202100015032649300015032649305/12/20211947    3190240923742196425000011082700001620070000000000000                                                               EQUIPO SET PRIMARIO C/CLAVE REF 14001BOL     1
CC0000064541334H202100015032649300015032649305/12/20211947    3190240923742196425000011082700001620070000000000000                                                               EQUIPO SET PRIMARIO C/CLAVE REF 14001BOL     1
CC0001045670902H202100015032649300015032649305/12/20211947    3190240923742196425000030936900001431840000000000000                                                                                              BURETABOL     1
RC0001043476962H202100015032649300015032649305/12/20211947    3190240923742196425000030936900001431840000000000000                                                                                              BURETABOL     1
CC0000000800641H202100015032649300015032649305/12/20211947    3190240923742196425000030936900001431840000000000000                                                                                              BURETABOL     1
CC0000064541334H202100015032649300015032649305/12/20211947    3190240923742196425000030936900001431840000000000000                                                                                              BURETABOL     1
RC0001034521434H202100015032649300015032649305/12/20211947    31902409237421964250000E1AD0300000199490000000000000                                         LACTATO RINGER USP (HARTMANN)  SOL INY  BOL X 1000ML BAXTERBIN     1
CC0000064541334H202100015032649300015032649305/12/20211947    31902409237421964250000E1AD0300000199490000000000000                                         LACTATO RINGER USP (HARTMANN)  SOL INY  BOL X 1000ML BAXTERBIN     2
