CC0000022362807H202100015112738800015112738805/12/20211445    3150022123742196425000030161400001459220000000000000                                                                       MANGUERA SUCCION 6 MM*3.1 MTSSOB     1
CC0000022362807H202100015112738800015112738805/12/20211445    3150022123742196425000039175100001072060000000000000                                                                           TUBO ENDOTRAQUEAL C/B 7.5SOB     1
CC0000022362807H202100015112738800015112738805/12/20211445    3150022123742196425000039176700001029620000000000000                                                                    SUJETADOR TUBO ENDOTRAQUEAL 9799SOB     1
CC0000022362807H202100015112738800015112738805/12/20211445    3150022123742196425000038569400000256750000000000000                                                                        SONDA ASPIRACION CONTROL #14SIN     7
CC0000022362807H202100015112738800015112738805/12/20211445    3150022123742196425000022108000003906060000000000000                                                            SIST CERRAD ASPIRAC TRACH  22108-5 14 FRSOB     1
CC0000022362807H202100015112738800015112738805/12/20211445    3150022123742196425000010252000003981620000000000000                                                            RESUCITADOR MANUAL ADULTO BE - 2503 AMBUBOL     1
CC0000022362807H202100015112738800015112738805/12/20211445    3150022123742196425000036441300000236540000000000000                                                                    JERINGA 1 ML GASES ARTERIAL 9023SIN     3
CC0000022362807H202100015112738800015112738805/12/20211445    3150022123742196425000024674000001138340000000000000   JERINGA 3PARTES C/A 10ML REF JEHL005 CAJ X 100 ALFASAFE  21GX1 PULG 1/2 PULG BN EXENTO-DC.417/202PZA     3
CC0000022362807H202100015112738800015112738805/12/20211445    3150022123742196425000043492400000516570000000000000                                                                   GUIA P/TUBO ENDOTRAQ ADULTO 85865SIN     1
CC0000022362807H202100015112738800015112738805/12/20211445    3150022123742196425000011084700000516550000000000000                                                                FILTRO CALOR-HUMEDAD AD REF 352/5877SIN     1
CC0000022362807H202100015112738800015112738805/12/20211445    3150022123742196425000011078200001605710000000000000                                                                 CONECTOR FIBROBRONCOSCOPIO 9591 40CSOB     1
CC0000022362807H202100015112738800015112738805/12/20211445    3150022123742196425000020816000001096410000000000000                                                                          LINER PARED DELGADA 1500CCBOL     1
