CC0001129571142H202100921407120500921407120505/12/20211223    3190329023742196425000024674000001138340000000000000   JERINGA 3PARTES C/A 10ML REF JEHL005 CAJ X 100 ALFASAFE  21GX1 PULG 1/2 PULG BN EXENTO-DC.417/202PZA     5
CC0001129571142H202100921407120500921407120505/12/20211223    31903290237421964250000V07A1300000502600000000000000                                                                                AGUA ESTERIL x 10 mlAMP     3
CC0001129571142H202100921407120500921407120505/12/20211224    31903060237421964250000E1AB0500003888400000000000000                                                              SOLUCION SALINA 0.9% SLN INY X 1000 MLBOL     1
CC0001129571142H202100921407120500921407120505/12/20211942    31500460237421964250000E1AB0300003888390000000000000                                                            SOLUCION SALINA 0.9% SLN INY BO X 500 MLBOL     3
