CC0001143259393H202100000556587700000556587705/12/20211118     3300009237421964250000A6AC0200001467010000000000000                                                             LACTULAX JARABE 66.7G/100ML SOX15ML /R/SOB     1
CC0001143259393H202100000556587700000556587705/12/20211510     3300010237421964250000B1AB0200003939510000000000000                 ENOXAPARINA SODICA 40MG/0.4ML(100MG/ML) SOL INY INST CAJ X 2JERPREL X 0.4ML TECHDOWJRP     1
CC0001143259393H202100000556587700000556587705/12/20211103    31500526237421964250000E1AB0300003888390000000000000                                                            SOLUCION SALINA 0.9% SLN INY BO X 500 MLBOL     1
CC0001143259393H202100000556587700000556587705/12/20211510     3300010237421964250000N2AX0400001204140000000000000                                                                             TRAMAL Sln Iny 50 mg/mlAMP     1
CC0001143259393H202100000556587700000556587705/12/20211118     3300009237421964250000N2AX0400001204140000000000000                                                                             TRAMAL Sln Iny 50 mg/mlAMP     2
CC0001143259393H202100000556587700000556587705/12/20211512    31500170237421964250000V07A1300000502600000000000000                                                                                AGUA ESTERIL x 10 mlAMP     5
