CC0000013887621H202100015112737800015112737805/12/20210841    31500531237421964250000V07A1300000502600000000000000                                                                                AGUA ESTERIL x 10 mlAMP    10
CC0001129564191H202100015112737800015112737805/12/20210841    31500531237421964250000V07A1300000502600000000000000                                                                                AGUA ESTERIL x 10 mlAMP    10
CC0000013887621H202100015112737800015112737805/12/20210841    3150053123742196425000024675000001585130000000000000                                                                    JERINGA DESECHABLE 50 ml S/AGUJASOB     2
CC0001129564191H202100015112737800015112737805/12/20210841    3150053123742196425000024675000001585130000000000000                                                                    JERINGA DESECHABLE 50 ml S/AGUJASOB     2
CC0000013887621H202100015112737800015112737805/12/20210841    3150053123742196425000024674500000322810000000000000                                                                   JERINGA DESECHABLE 20 ml 21*1 1/2SIN     2
CC0001129564191H202100015112737800015112737805/12/20210841    3150053123742196425000024674500000322810000000000000                                                                   JERINGA DESECHABLE 20 ml 21*1 1/2SIN     2
CC0000013887621H202100015112737800015112737805/12/20210841    3150053123742196425000024674000001138340000000000000   JERINGA 3PARTES C/A 10ML REF JEHL005 CAJ X 100 ALFASAFE  21GX1 PULG 1/2 PULG BN EXENTO-DC.417/202PZA    15
CC0001129564191H202100015112737800015112737805/12/20210841    3150053123742196425000024674000001138340000000000000   JERINGA 3PARTES C/A 10ML REF JEHL005 CAJ X 100 ALFASAFE  21GX1 PULG 1/2 PULG BN EXENTO-DC.417/202PZA    15
CC0001129564191H202100015112737800015112737805/12/20210841    3150053123742196425000022426800001140510000000000000                                                                    EQUIPO MACROGOTEO BAXTER MRC0001SOB     1
CC0000013887621H202100015112737800015112737805/12/20210841    31500531237421964250000E1AB0500003888400000000000000                                                              SOLUCION SALINA 0.9% SLN INY X 1000 MLBOL     3
CC0001129564191H202100015112737800015112737805/12/20210841    31500531237421964250000E1AB0500003888400000000000000                                                              SOLUCION SALINA 0.9% SLN INY X 1000 MLBOL     3
CC0000013887621H202100015112737800015112737805/12/20210841    31500531237421964250000E1AB0200000199290000000000000                                                            SOLUCION SALINA 0.9% SLN INY BO X 100 MLBIN    10
CC0001129564191H202100015112737800015112737805/12/20210841    31500531237421964250000E1AB0200000199290000000000000                                                            SOLUCION SALINA 0.9% SLN INY BO X 100 MLBIN    15
CC0000013887621H202100015112737800015112737805/12/20210841    3150053123742196425000011127400001413910000000000000                                                            EQUIPO ADMINIST NUTR PUNZON REF 674669 BBOL     1
CC0001129564191H202100015112737800015112737805/12/20210841    3150053123742196425000011127400001413910000000000000                                                            EQUIPO ADMINIST NUTR PUNZON REF 674669 BBOL     1
