CC0001140839787U202100000556578200000556578205/12/20210003     3300004239421964320000A2BC0900000200150000000000000                                                                               ORAZOLE Sln Iny 40 mgCIN     1
CC0001140839787U202100000556578200000556578205/12/20210014    31902171239421964320000E1AB1100003888280000000000000                                                                        SOLUCION SALINA 0.9% X 50 mlBOL     1
CC0001140839787U202100000556578200000556578205/12/20210014    31902171239421964320000E1AB0700003888350000000000000                                                            SOLUCION SALINA 0.9% SLN INY BO X 250 MLBOL     1
CC0001140839787U202100000556578200000556578205/12/20210014    31902171239421964320000E1AB0300003888390000000000000                                                            SOLUCION SALINA 0.9% SLN INY BO X 500 MLBOL     1
CC0001140839787U202100000556578200000556578205/12/20210014    31902171239421964320000E1AD0300000199490000000000000                                         LACTATO RINGER USP (HARTMANN)  SOL INY  BOL X 1000ML BAXTERBIN     1
CC0001140839787U202100000556578200000556578205/12/20210003     3300004239421964320000C07A1100001015770000000000000                                                                   TRANDATE SLN INY 100 MG/20 ML /R/AMP     1
CC0001140839787U202100000556578200000556578205/12/20210003     3300004239421964320000A12CC100001690470000000000000                                                                  MAGNESIO SULFATO 20% SLN INY 10 MLAMP     3
CC0001140839787U202100000556578200000556578205/12/20210002     3300004239421964320000A12CC100001690470000000000000                                                                  MAGNESIO SULFATO 20% SLN INY 10 MLAMP     4
