CC0001143115935H202100000556578600000556578605/12/20211150     330001023742196425000011808300000218190000000000000                                                   DORMICUM IV 50MG/10ML(5MG/ML) SOL INY  CAJ X 5AMPAMP     4
CC0001143115935H202100000556578600000556578605/12/20211500    31900103237421964250000E1AB0200000199290000000000000                                                            SOLUCION SALINA 0.9% SLN INY BO X 100 MLBIN     2
CC0001143115935H202100000556578600000556578605/12/20211007     3300009237421964250000A12BA100000552980000000000000                                                            CLORURO POTASIO Sln Iny AMP 20 MEQ/10 MLAMP     7
CC0001143115935H202100000556578600000556578605/12/20211006     3300009237421964250000A12BA100000552980000000000000                                                            CLORURO POTASIO Sln Iny AMP 20 MEQ/10 MLAMP     1
CC0001143115935H202100000556578600000556578605/12/20211137    31500387237421964250000B05B1400001012740000000000000                                                                SOLUCION SALINA 0.45% Sln Iny 500 mlBOL     3
CC0001143115935H202100000556578600000556578605/12/20211504     3300010237421964250000B02B0300000481440000000000000                                                                     OCTOSTIM SLN INY 15 MCG/ ML /R/AMP     2
CC0001143115935H202100000556578600000556578605/12/20210817     3300009237421964250000N01A0400003939010000000000000                                               MAYOPROFOL 200MG/20ML(1%) EMUL INY CAJ X 1VIAL X 20MLVAL     5
CC0001143115935H202100000556578600000556578605/12/20210013     3300009237421964250000N1BA1900000554750000000000000                                                                     ROXICAINA JALEA 2% TUBO X 30 MLTUB     1
CC0001143115935H202100000556578600000556578605/12/20211007     3300009237421964250000A12CC100001690470000000000000                                                                  MAGNESIO SULFATO 20% SLN INY 10 MLAMP     2
CC0001143115935H202100000556578600000556578605/12/20211331     3300009237421964250000N03AX200001063780000000000000                                                                      KEPPRA SLN INY 500 MG/5 ML /R/VAL     1
CC0001143115935H202100000556578600000556578605/12/20210817     3300009237421964250000N03AX200001063780000000000000                                                                      KEPPRA SLN INY 500 MG/5 ML /R/VAL     1
CC0001143115935H202100000556578600000556578605/12/20212218     3300004237421964250000H02AB700000585860000000000000                                                                HIDROCORTISONA SUCCI POL LIOF 100 MGVAL     1
CC0001143115935H202100000556578600000556578605/12/20210817     3300009237421964250000H02AB700000585860000000000000                                                                HIDROCORTISONA SUCCI POL LIOF 100 MGVAL     2
CC0001143115935H202100000556578600000556578605/12/20210817     3300009237421964250000B01AB200000513350000000000000                                                                        CLENOX SLN INY 40 MG/ 0.4 MLJRP     1
CC0001143115935H202100000556578600000556578605/12/20210817     3300009237421964250000H03AA200001391520000000000000                                                                            LEVOTIROXINA TAB 100 MCGTAB     1
CC0001143115935H202100000556578600000556578605/12/20211504     3300010237421964250000J01CR300003913920000000000000                                                     AUROTAZ-P (4+0.5)GR POLV INY CAJ X 1VIAL X 50MLVAL     1
CC0001143115935H202100000556578600000556578605/12/20210817     3300009237421964250000J01CR300003913920000000000000                                                     AUROTAZ-P (4+0.5)GR POLV INY CAJ X 1VIAL X 50MLVAL     4
CC0001143115935H202100000556578600000556578605/12/20210817     3300009237421964250000A02BC700001684270000000000000                                                            OMEPRAZOL 40MG POLVO LIOFILIZADO AMPOLLAVAL     1
CC0001143115935H202100000556578600000556578605/12/20211137    31500387237421964250000V07A1300000502600000000000000                                                                                AGUA ESTERIL x 10 mlAMP     3
