TI0001047048202H202100000556584100000556584105/12/20211043    31903294237421964250000E1AD0200003888320000000000000                                                                              HARTMAN SLN INY 500 MLBOL     3
TI0001047048202H202100000556584100000556584105/12/20210252    31500107237421964250000E1AD0300000199490000000000000                                         LACTATO RINGER USP (HARTMANN)  SOL INY  BOL X 1000ML BAXTERBIN     2
TI0001047048202H202100000556584100000556584105/12/20210909     3300009237421964250000J01D1300001469600000000000000                                                                               POZINEG POLVO INY 1 GVAL     5
TI0001047048202H202100000556584100000556584105/12/20210204     3300009237421964250000J01D1300001469600000000000000                                                                               POZINEG POLVO INY 1 GVAL     5
TI0001047048202H202100000556584100000556584105/12/20210909     3300009237421964250000L1BC1300000304160000000000000                                                                        NEUPOGEN Sln iny 300 mcg /R/JRP     3
TI0001047048202H202100000556584100000556584105/12/20210732     3300009237421964250000L1BC1300000304160000000000000                                                                        NEUPOGEN Sln iny 300 mcg /R/JRP     1
TI0001047048202H202100000556584100000556584105/12/20211559     3300010237421964250000N02B1100001464120000000000000                                           PARACETAMOL EP 1000MG/100ML(10MG/ML) SOL INY  CAJ X 10FCOVAL     1
