CC0001002134630U202100000556591200000556591205/12/20211835    31902010239421964320000E1AB0200000199290000000000000                                                            SOLUCION SALINA 0.9% SLN INY BO X 100 MLBIN     1
CC0001002134630U202100000556591200000556591205/12/20211315    31901806239421964320000E1AD0300000199490000000000000                                         LACTATO RINGER USP (HARTMANN)  SOL INY  BOL X 1000ML BAXTERBIN     1
CC0001002134630U202100000556591200000556591205/12/20211235     3300004239421964320000J01EE400001385080000000000000                                                                  TRIMETOPRIM SULFA F TAB 160+800 MGTAB     1
CC0001002134630U202100000556591200000556591205/12/20211235     3300004239421964320000J05AB000001277780000000000000                                                                                ACICLOVIR TAB 200 MGTAB     1
