CC0000022362807H202100015112739800015112739805/12/20212333    3190305923742196425000035356500003919000000000000000                                                                                        LLAVE 3 VIASSOB     1
CC0000022362807H202100015112739800015112739805/12/20212333    3190305923742196425000022426800001140510000000000000                                                                    EQUIPO MACROGOTEO BAXTER MRC0001SOB     2
CC0000022362807H202100015112739800015112739805/12/20212333    3190305923742196425000011082900001233450000000000000                                                               EQUIPO LC 5000 PRIMARIO FOTOPRO 0L218SOB     1
CC0000022362807H202100015112739800015112739805/12/20212333    3190305923742196425000011082700001620070000000000000                                                               EQUIPO SET PRIMARIO C/CLAVE REF 14001BOL     2
CC0000007444684H202100015112739800015112739805/12/20212333    3190305923742196425000001956000001620610000000000000                                                                      CONECTOR MICRO CLAVE LAT-MC100SOB     1
CC0000022362807H202100015112739800015112739805/12/20212333    31903059237421964250000Q1AA7100000610620000000000000                                                            CATETER PERIFE INTROCAN # 18G 4251687-04SIN     1
CC0000007444684H202100015112739800015112739805/12/20212333    31903059237421964250000Q1AA7200000610630000000000000                                                            CATETER PERIFE INTROCAN # 20G 4251644-04SIN     2
CC0000007444684H202100015112739800015112739805/12/20212333    3190305923742196425000016830000000970620000000000000                                                             SIST FIJACION CAT PERIFERICO 6.5X7 1683SOB     1
