CC0001143456221U202100050131923200050131923205/12/20210815    3190318023942196432000011082700001620070000000000000                                                               EQUIPO SET PRIMARIO C/CLAVE REF 14001BOL     1
CC0001143456221U202100050131923200050131923205/12/20210815    3190318023942196432000001956000001620610000000000000                                                                      CONECTOR MICRO CLAVE LAT-MC100SOB     1
CC0001143456221U202100050131923200050131923205/12/20210815    31903180239421964320000Q1AA7100000610620000000000000                                                            CATETER PERIFE INTROCAN # 18G 4251687-04SIN     1
CC0001143456221U202100050131923200050131923205/12/20210815    3190318023942196432000030936900001431840000000000000                                                                                              BURETABOL     1
CC0001143456221U202100050131923200050131923205/12/20210815    3190318023942196432000016830000000970620000000000000                                                             SIST FIJACION CAT PERIFERICO 6.5X7 1683SOB     1
CC0001143456221U202100050131923200050131923205/12/20210815    31903180239421964320000E1AD0200003888320000000000000                                                                              HARTMAN SLN INY 500 MLBOL     1
