TI0001121302704H202100000556580300000556580305/12/20210855     3300009237421964250000A2BC0900000200150000000000000                                                                               ORAZOLE Sln Iny 40 mgCIN     1
TI0001121302704H202100000556580300000556580305/12/20210855     3300009237421964250000A4AD0200000202990000000000000                                                                     PLITICAN HCL Sln Iny 50 mg/2 mlAMP     1
TI0001121302704H202100000556580300000556580305/12/20210855     3300009237421964250000A3BB0200000512940000000000000                                                                          BUSCAPINA SIMPLE Iny 20 mgAMP     1
TI0001121302704H202100000556580300000556580305/12/20210855     3300009237421964250000A07F0600001089820000000000000                                                                     FLORATIL POLVO SOBRE 250 MG /R/SOB     2
TI0001121302704H202100000556580300000556580305/12/20211020    31902977237421964250000E1AA0100003888590000000000000                                                                        DEXTROSA 5% Sln Iny X 500 mlBOL     3
TI0001121302704H202100000556580300000556580305/12/20211020    31902977237421964250000E1AB0200000199290000000000000                                                            SOLUCION SALINA 0.9% SLN INY BO X 100 MLBIN     4
TI0001121302704H202100000556580300000556580305/12/20210031    31901156237421964250000E1AD0300000199490000000000000                                         LACTATO RINGER USP (HARTMANN)  SOL INY  BOL X 1000ML BAXTERBIN     1
TI0001121302704H202100000556580300000556580305/12/20211749     3300010237421964250000A12BA100000552980000000000000                                                            CLORURO POTASIO Sln Iny AMP 20 MEQ/10 MLAMP     1
TI0001121302704H202100000556580300000556580305/12/20210954     3300009237421964250000A12BA100000552980000000000000                                                            CLORURO POTASIO Sln Iny AMP 20 MEQ/10 MLAMP     1
TI0001121302704H202100000556580300000556580305/12/20211625     3300010237421964250000J1DA3100000187510000000000000                                                                           ROCEFIN Polvo SLN INY 1 GCIN     2
TI0001121302704H202100000556580300000556580305/12/20210855     3300009237421964250000J1DA3100000187510000000000000                                                                           ROCEFIN Polvo SLN INY 1 GCIN     2
TI0001121302704H202100000556580300000556580305/12/20210855     3300009237421964250000L01XX500001336660000000000000                                                                              HYDROXYUREA CAP 500 MGCAP     1
TI0001121302704H202100000556580300000556580305/12/20210855     3300009237421964250000V6DB0800001286840000000000000                                                                          PEDIASURE LIQUIDO X 237 MLFCO     1
TI0001121302704H202100000556580300000556580305/12/20211749     3300010237421964250000A07C0500001628790000000000000                                                                          PEDIALYTE 45 C/ZINC 500 mlFCO     1
TI0001121302704H202100000556580300000556580305/12/20211528    31500065237421964250000V07A1300000502600000000000000                                                                                AGUA ESTERIL x 10 mlAMP     3
