TI0001044221346U202100050131928000050131928005/12/20211535    3150061723942196432000001956000001620610000000000000                                                                      CONECTOR MICRO CLAVE LAT-MC100SOB     1
TI0001044221346U202100050131928000050131928005/12/20211535    31500617239421964320000Q1AA7300000610640000000000000                                                            CATETER PERIFE INTROCAN # 22G 4251628-04SIN     1
TI0001044221346U202100050131928000050131928005/12/20211535    3150061723942196432000016830000000970620000000000000                                                             SIST FIJACION CAT PERIFERICO 6.5X7 1683SOB     1
