CC0001140839787U202100050131920700050131920705/12/20210010    3190217123942196432000038570100001124990000000000000                                                                              SONDA FOLEY #18 2 VIASSOB     1
CC0000072125757U202100050131920700050131920705/12/20210010    3190217123942196432000045136100001419300000000000000                                                                            LANCETA DEXTROMETER X UNPZA     1
CC0001140839787U202100050131920700050131920705/12/20210010    3190217123942196432000024674500000322810000000000000                                                                   JERINGA DESECHABLE 20 ml 21*1 1/2SIN     1
CC0001140839787U202100050131920700050131920705/12/20210010    3190217123942196432000024674000001138340000000000000   JERINGA 3PARTES C/A 10ML REF JEHL005 CAJ X 100 ALFASAFE  21GX1 PULG 1/2 PULG BN EXENTO-DC.417/202PZA     1
CC0001140839787U202100050131920700050131920705/12/20210010    3190217123942196432000024673600000222980000000000000                                                                     JERINGA DESECHABLE 5 ml 27*11/2SIN     1
CC0001140839787U202100050131920700050131920705/12/20210010    3190217123942196432000011085100001082120000000000000                                                                           GUANTE QUIRURGICO TALLA 7SOB     2
CC0001140839787U202100050131920700050131920705/12/20210010    3190217123942196432000013077800000471960000000000000                                                             GASA NO TEJIDA EST 7.5 X 7.5 SOB X 3 UNSOB     5
CC0001140839787U202100050131920700050131920705/12/20210010    3190217123942196432000011082700001620070000000000000                                                               EQUIPO SET PRIMARIO C/CLAVE REF 14001BOL     1
CC0001140839787U202100050131920700050131920705/12/20210010    3190217123942196432000031188000000236790000000000000                                                                                     CISTOFLO ADULTOSIN     1
CC0001140839787U202100050131920700050131920705/12/20210010    3190217123942196432000001956000001620610000000000000                                                                      CONECTOR MICRO CLAVE LAT-MC100SOB     1
CC0001140839787U202100050131920700050131920705/12/20210010    31902171239421964320000Q1AA7100000610620000000000000                                                            CATETER PERIFE INTROCAN # 18G 4251687-04SIN     1
CC0001140839787U202100050131920700050131920705/12/20210010    3190217123942196432000030936900001431840000000000000                                                                                              BURETABOL     1
CC0001140839787U202100050131920700050131920705/12/20210010    3190217123942196432000016830000000970620000000000000                                                             SIST FIJACION CAT PERIFERICO 6.5X7 1683SOB     1
CC0001140839787U202100050131920700050131920705/12/20210010    3190217123942196432000020056600001101530000000000000                                                                AGUJA HIPODERMICA DESECH 18G X 1 1/2SOB     1
CC0001140839787U202100050131920700050131920705/12/20210010    31902171239421964320000E1AD0300000199490000000000000                                         LACTATO RINGER USP (HARTMANN)  SOL INY  BOL X 1000ML BAXTERBIN     1
CC0001140839787U202100050131920700050131920705/12/20210010    31902171239421964320000E1AB0300003888390000000000000                                                            SOLUCION SALINA 0.9% SLN INY BO X 500 MLBOL     1
CC0001140839787U202100050131920700050131920705/12/20210010    31902171239421964320000E1AB0700003888350000000000000                                                            SOLUCION SALINA 0.9% SLN INY BO X 250 MLBOL     1
CC0001140839787U202100050131920700050131920705/12/20210010    31902171239421964320000E1AB1100003888280000000000000                                                                        SOLUCION SALINA 0.9% X 50 mlBOL     1
CC0000072125757U202100050131920700050131920705/12/20210010    3190217123942196432000011137100001419310000000000000                                                               TIRA GLUCOMETRIA FREESTYLE H OPTIUM .PZA     1
