CC0000072142637U202100000556589900000556589905/12/20210729    31903180239421964320000E1AD0300000199490000000000000                                         LACTATO RINGER USP (HARTMANN)  SOL INY  BOL X 1000ML BAXTERBIN     1
CC0000072142637U202100000556589900000556589905/12/20210944     3300004239421964320000H02AB500001664950000000000000                                                            DEXAMETASONA SLN INY 8 MG/2 ML AMP /CDS/AMP     1
CC0000072142637U202100000556589900000556589905/12/20210722     3300004239421964320000M1AE2500000191550000000000000                                                            PROFENID POLVO LIOF SLN INY 100MG/2ML/R/AMP     1
CC0000072142637U202100000556589900000556589905/12/20210722     3300004239421964320000N2AX0500001204110000000000000                                                                          TRAMAL SLN INY 100 MG / MLAMP     1
CC0000072142637U202100000556589900000556589905/12/20210944     3300004239421964320000N02B1100001464120000000000000                                           PARACETAMOL EP 1000MG/100ML(10MG/ML) SOL INY  CAJ X 10FCOVAL     1
CC0000072142637U202100000556589900000556589905/12/20211346     3300004239421964320000N03A1500001316220000000000000                                                                               LYRICA CAP 150 MG /R/CAP     1
CC0000072142637U202100000556589900000556589905/12/20210722     3300004239421964320000M03BX100001333480000000000000                                                                                CICLORELAX TAB 10 MGTAB     1
