CC0001129564191H202100015112732000015112732003/12/20210033    3150053123742196425000038573100000256880000000000000                                                                                 SONDA NSG LEVIN #18SIN     1
CC0001129564191H202100015112732000015112732003/12/20210033    3150053123742196425000038570100001124990000000000000                                                                              SONDA FOLEY #18 2 VIASSOB     1
CC0001129564191H202100015112732000015112732003/12/20210033    3150053123742196425000011051900000226360000000000000                                                               KIT TRANSDUCTOR SENCILLO S/VAMP PX260SOB     1
CC0001129564191H202100015112732000015112732003/12/20210033    3150053123742196425000024674000001138340000000000000   JERINGA 3PARTES C/A 10ML REF JEHL005 CAJ X 100 ALFASAFE  21GX1 PULG 1/2 PULG BN EXENTO-DC.417/202PZA    20
CC0001129564191H202100015112732000015112732003/12/20210033    31500531237421964250000Q1A13500001585200000000000000                        JERINGA PUNTA CAT SIN AGUJA REF 309620 CAJ X 40   50ML BN EXENTO-DC.417/2020SOB     1
CC0001129564191H202100015112732000015112732003/12/20210033    3150053123742196425000043485100001618510000000000000                GUANTE QUIRURGICO DE LATEX REF 2D72N65X CAJ X 50 PROTEXIS  6.5 BN EXENTO-DC.417/2020SOB     4
CC0001129564191H202100015112732000015112732003/12/20210033    3150053123742196425000011085100001082120000000000000                                                                           GUANTE QUIRURGICO TALLA 7SOB     2
CC0001129564191H202100015112732000015112732003/12/20210033    3150053123742196425000011085200001585390000000000000                                                                       GUANTE QUIRURGICO TALLA 7 1/2SOB     2
CC0001129564191H202100015112732000015112732003/12/20210033    3150053123742196425000053074400000607910000000000000                                                               GASA ESTERIL 10*10 SOBRE X 3 UNIDADESSOB    20
CC0001129564191H202100015112732000015112732003/12/20210033    3150053123742196425000022426800001140510000000000000                                                                    EQUIPO MACROGOTEO BAXTER MRC0001SOB     4
CC0001129564191H202100015112732000015112732003/12/20210033    3150053123742196425000011082700001620070000000000000                                                               EQUIPO SET PRIMARIO C/CLAVE REF 14001BOL     4
CC0001129564191H202100015112732000015112732003/12/20210033    3150053123742196425000031188000000236790000000000000                                                                                     CISTOFLO ADULTOSIN     1
CC0001129564191H202100015112732000015112732003/12/20210033    3150053123742196425000001956000001620610000000000000                                                                      CONECTOR MICRO CLAVE LAT-MC100SOB     2
CC0001129564191H202100015112732000015112732003/12/20210033    3150053123742196425000030936900001431840000000000000                                                                                              BURETABOL     1
CC0001129564191H202100015112732000015112732003/12/20210033    3150053123742196425000000602700001197200000000000000                                                              APOSITO TRANSP  1655 IV 8.5CM X 11.5CMSOB     2
CC0001129564191H202100015112732000015112732003/12/20210033    31500531237421964250000E1AB0500003888400000000000000                                                              SOLUCION SALINA 0.9% SLN INY X 1000 MLBOL     1
CC0001129564191H202100015112732000015112732003/12/20210033    31500531237421964250000E1AB0200000199290000000000000                                                            SOLUCION SALINA 0.9% SLN INY BO X 100 MLBIN    10
