RC0001016919305U202100050131906600050131906603/12/20211855    3190092523942196432000024674000001138340000000000000   JERINGA 3PARTES C/A 10ML REF JEHL005 CAJ X 100 ALFASAFE  21GX1 PULG 1/2 PULG BN EXENTO-DC.417/202PZA     1
RC0001016919305U202100050131906600050131906603/12/20211855    3190092523942196432000042743200003929860000000000000                   GASA ADHESIVA STRETCH REF 02038-00 ROL X 10MT FIXOMULL 15CM BN EXENTO-DC.417/2020CMT    20
RC0001016919305U202100050131906600050131906603/12/20211855    3190092523942196432000011082700001620070000000000000                                                               EQUIPO SET PRIMARIO C/CLAVE REF 14001BOL     1
RC0001016919305U202100050131906600050131906603/12/20211855    31900925239421964320000Q1AA7400003911720000000000000                                                            CATETER PERIFE INTROCAN # 24G 4251601-04SOB     1
RC0001016919305U202100050131906600050131906603/12/20211855    3190092523942196432000030936900001431840000000000000                                                                                              BURETABOL     1
RC0001016919305U202100050131906600050131906603/12/20211855    31900925239421964320000E1AC0100000199400000000000000                                                                          SUERO MIXTO Sln Iny 500 mlBIN     1
