CC0000007444684H202100921254120300921254120303/12/20211052    3150030523742196425000011137100001419310000000000000                                                               TIRA GLUCOMETRIA FREESTYLE H OPTIUM .PZA     4
CC0000007444684H202100921254120300921254120303/12/20211052    3150030523742196425000020056600001101530000000000000                                                                AGUJA HIPODERMICA DESECH 18G X 1 1/2SOB     3
CC0000007444684H202100921254120300921254120303/12/20211052    3150030523742196425000024674000001138340000000000000   JERINGA 3PARTES C/A 10ML REF JEHL005 CAJ X 100 ALFASAFE  21GX1 PULG 1/2 PULG BN EXENTO-DC.417/202PZA     5
CC0000007444684H202100921254120300921254120303/12/20211052    31500305237421964250000V07A1300000502600000000000000                                                                                AGUA ESTERIL x 10 mlAMP     5
CC0000007444684H202100921254120300921254120303/12/20211052    31500305237421964250000E1AB0500003888400000000000000                                                              SOLUCION SALINA 0.9% SLN INY X 1000 MLBOL     3
CC0000007444684H202100921254120300921254120303/12/20211052    31500305237421964250000E1AB0200000199290000000000000                                                            SOLUCION SALINA 0.9% SLN INY BO X 100 MLBIN     3
CC0000007444684H202100921254120300921254120303/12/20211715    3190182723742196425000011082700001620070000000000000                                                               EQUIPO SET PRIMARIO C/CLAVE REF 14001BOL     1
CC0000007444684H202100921254120300921254120303/12/20212323    3190099823742196425000011089200001083340000000000000                                                              GUANTE ESTERIL LATEX S/POLVO TALLA 7.0SOB     1
