CC0001143469683U202100000556540200000556540203/12/20212013    31500188239421964320000E1AD0200003888320000000000000                                                                              HARTMAN SLN INY 500 MLBOL     1
CC0001143469683U202100000556540200000556540203/12/20212013    31500188239421964320000E1AD0300000199490000000000000                                         LACTATO RINGER USP (HARTMANN)  SOL INY  BOL X 1000ML BAXTERBIN     1
CC0001143469683U202100000556540200000556540203/12/20211908     3300010239421964320000N07CA400001335820000000000000                                                                                   PASEDOL TAB 50 MGTAB     1
CC0001143469683U202100000556540200000556540203/12/20211908     3300010239421964320000M1AB4700001314130000000000000                                                                                  VERUM TAB 8 MG /R/TAB     2
