CC0000008540400U202100050131905900050131905903/12/20211833    3150025823942196432000024674000001138340000000000000   JERINGA 3PARTES C/A 10ML REF JEHL005 CAJ X 100 ALFASAFE  21GX1 PULG 1/2 PULG BN EXENTO-DC.417/202PZA     2
CC0000008540400U202100050131905900050131905903/12/20211833    3150025823942196432000011082700001620070000000000000                                                               EQUIPO SET PRIMARIO C/CLAVE REF 14001BOL     1
CC0000008540400U202100050131905900050131905903/12/20211833    3150025823942196432000030936900001431840000000000000                                                                                              BURETABOL     1
CC0000008540400U202100050131905900050131905903/12/20211833    31500258239421964320000E1AD0300000199490000000000000                                         LACTATO RINGER USP (HARTMANN)  SOL INY  BOL X 1000ML BAXTERBIN     1
