CC0000032745451U202100050131904700050131904703/12/20211730    3190135523942196432000012475800000232220000000000000                                                                SUTURA ETHILON 4-0 PS-2  45CM P1667TSIN     1
CC0000032745451U202100050131904700050131904703/12/20211730    3190135523942196432000024673600000222980000000000000                                                                     JERINGA DESECHABLE 5 ml 27*11/2SIN     1
CC0000032745451U202100050131904700050131904703/12/20211730    3190135523942196432000011047900000223010000000000000                                                                            JERINGA X 1ML REF 302579SIN     1
CC0000032745451U202100050131904700050131904703/12/20211730    3190135523942196432000043485100001618510000000000000                GUANTE QUIRURGICO DE LATEX REF 2D72N65X CAJ X 50 PROTEXIS  6.5 BN EXENTO-DC.417/2020SOB     1
