CC0000007452098U202100000556542000000556542003/12/20212347     3300004239421964320000B1AB0200003939510000000000000                 ENOXAPARINA SODICA 40MG/0.4ML(100MG/ML) SOL INY INST CAJ X 2JERPREL X 0.4ML TECHDOWJRP     1
CC0000007452098U202100000556542000000556542003/12/20212135     3300004239421964320000H02AB500001664950000000000000                                                            DEXAMETASONA SLN INY 8 MG/2 ML AMP /CDS/AMP     1
CC0000007452098U202100000556542000000556542003/12/20212135     3300004239421964320000H02A0100001664960000000000000                                                                        DEXAMETASONA SLN INY 4 MG/MLAMP     1
CC0000007452098U202100000556542000000556542003/12/20212347     3300004239421964320000N02B1100001464120000000000000                                           PARACETAMOL EP 1000MG/100ML(10MG/ML) SOL INY  CAJ X 10FCOVAL     1
CC0000007452098U202100000556542000000556542003/12/20212347     3300004239421964320000N03A0800001278440000000000000                                                                                LYRICA CAP 75 MG /R/CAP     1
