CC0000022362807H202100000556513500000556513503/12/20211557    31900997237421964250000E1AD0200003888320000000000000                                                                              HARTMAN SLN INY 500 MLBOL     1
CC0000022362807H202100000556513500000556513503/12/20212252    31500363237421964250000E1AD0300000199490000000000000                                         LACTATO RINGER USP (HARTMANN)  SOL INY  BOL X 1000ML BAXTERBIN     1
CC0000022362807H202100000556513500000556513503/12/20210651    31500519237421964250000E1AD0300000199490000000000000                                         LACTATO RINGER USP (HARTMANN)  SOL INY  BOL X 1000ML BAXTERBIN     1
CC0000022362807H202100000556513500000556513503/12/20210841     3300004237421964250000V6DF5300000302770000000000000                                                                        ENSURE PLUS HN LCP X 1000 MLFCO     1
CC0000022362807H202100000556513500000556513503/12/20210841     3300004237421964250000C10AA500001314010000000000000                                                                             ATORVASTATINA TAB 40 MGTAB     2
CC0000022362807H202100000556513500000556513503/12/20211857     3300003237421964250000N02BA100001276940000000000000                                                                  ACIDO ACETIL SALIC?LICO TAB 100 MGTAB     1
CC0000022362807H202100000556513500000556513503/12/20211509    31903301237421964250000V07A1300000502600000000000000                                                                                AGUA ESTERIL x 10 mlAMP     4
