CC0001051681679H202100015052798800015052798803/12/20212033    3150039123742196425000001956000001620610000000000000                                                                      CONECTOR MICRO CLAVE LAT-MC100SOB     1
CC0000008301142H202100015052798800015052798803/12/20212033    3150039123742196425000001956000001620610000000000000                                                                      CONECTOR MICRO CLAVE LAT-MC100SOB     1
CC0000007452994H202100015052798800015052798803/12/20212033    3150039123742196425000001956000001620610000000000000                                                                      CONECTOR MICRO CLAVE LAT-MC100SOB     1
CC0001045690161H202100015052798800015052798803/12/20212033    3150039123742196425000001956000001620610000000000000                                                                      CONECTOR MICRO CLAVE LAT-MC100SOB     1
CC0000008301142H202100015052798800015052798803/12/20212033    31500391237421964250000Q1AA7100000610620000000000000                                                            CATETER PERIFE INTROCAN # 18G 4251687-04SIN     1
CC0000029278345H202100015052798800015052798803/12/20212033    3150039123742196425000030936900001431840000000000000                                                                                              BURETABOL     1
CC0000008301142H202100015052798800015052798803/12/20212033    3150039123742196425000016830000000970620000000000000                                                             SIST FIJACION CAT PERIFERICO 6.5X7 1683SOB     1
CC0001051681679H202100015052798800015052798803/12/20212033    31500391237421964250000E1AD0300000199490000000000000                                         LACTATO RINGER USP (HARTMANN)  SOL INY  BOL X 1000ML BAXTERBIN     1
CC0000029278345H202100015052798800015052798803/12/20212033    31500391237421964250000E1AD0300000199490000000000000                                         LACTATO RINGER USP (HARTMANN)  SOL INY  BOL X 1000ML BAXTERBIN     1
CC0000007452994H202100015052798800015052798803/12/20212033    31500391237421964250000E1AD0300000199490000000000000                                         LACTATO RINGER USP (HARTMANN)  SOL INY  BOL X 1000ML BAXTERBIN     2
CC0001045690161H202100015052798800015052798803/12/20212033    31500391237421964250000E1AD0300000199490000000000000                                         LACTATO RINGER USP (HARTMANN)  SOL INY  BOL X 1000ML BAXTERBIN     1
