CC0000022785299H202100000025036900000025036903/12/20211341    3190301623742196425000018351500000232840000000000000                                                                                    SEDA 2-0 KS 623HSIN     3
CC0000022501645H202100000025036900000025036903/12/20211341    3190301623742196425000018351500000232840000000000000                                                                                    SEDA 2-0 KS 623HSIN     3
CC0000022582356H202100000025036900000025036903/12/20211341    3190301623742196425000024674000001138340000000000000   JERINGA 3PARTES C/A 10ML REF JEHL005 CAJ X 100 ALFASAFE  21GX1 PULG 1/2 PULG BN EXENTO-DC.417/202PZA     2
CC0000022785299H202100000025036900000025036903/12/20211341    3190301623742196425000024674000001138340000000000000   JERINGA 3PARTES C/A 10ML REF JEHL005 CAJ X 100 ALFASAFE  21GX1 PULG 1/2 PULG BN EXENTO-DC.417/202PZA     2
CC0000022501645H202100000025036900000025036903/12/20211341    3190301623742196425000024674000001138340000000000000   JERINGA 3PARTES C/A 10ML REF JEHL005 CAJ X 100 ALFASAFE  21GX1 PULG 1/2 PULG BN EXENTO-DC.417/202PZA     2
CC0000032890594H202100000025036900000025036903/12/20211341    3190301623742196425000024674000001138340000000000000   JERINGA 3PARTES C/A 10ML REF JEHL005 CAJ X 100 ALFASAFE  21GX1 PULG 1/2 PULG BN EXENTO-DC.417/202PZA     4
CC0000033146973H202100000025036900000025036903/12/20211341    3190301623742196425000024674000001138340000000000000   JERINGA 3PARTES C/A 10ML REF JEHL005 CAJ X 100 ALFASAFE  21GX1 PULG 1/2 PULG BN EXENTO-DC.417/202PZA     3
CC0000055304729H202100000025036900000025036903/12/20211341    3190301623742196425000024674000001138340000000000000   JERINGA 3PARTES C/A 10ML REF JEHL005 CAJ X 100 ALFASAFE  21GX1 PULG 1/2 PULG BN EXENTO-DC.417/202PZA     3
CC0000008679410H202100000025036900000025036903/12/20211341    3190301623742196425000024674000001138340000000000000   JERINGA 3PARTES C/A 10ML REF JEHL005 CAJ X 100 ALFASAFE  21GX1 PULG 1/2 PULG BN EXENTO-DC.417/202PZA     4
CC0000032890594H202100000025036900000025036903/12/20211341    3190301623742196425000000102300000222960000000000000                                                                 JERINGA DESECHABLE SIN AGUJA X 20mLSIN     2
CC0000033146973H202100000025036900000025036903/12/20211341    3190301623742196425000000102300000222960000000000000                                                                 JERINGA DESECHABLE SIN AGUJA X 20mLSIN     2
CC0000022582356H202100000025036900000025036903/12/20211341    3190301623742196425000011047900000223010000000000000                                                                            JERINGA X 1ML REF 302579SIN     1
CC0000022785299H202100000025036900000025036903/12/20211341    3190301623742196425000011047900000223010000000000000                                                                            JERINGA X 1ML REF 302579SIN     1
CC0000022501645H202100000025036900000025036903/12/20211341    3190301623742196425000011047900000223010000000000000                                                                            JERINGA X 1ML REF 302579SIN     1
CC0000032890594H202100000025036900000025036903/12/20211341    3190301623742196425000011047900000223010000000000000                                                                            JERINGA X 1ML REF 302579SIN     1
CC0000033146973H202100000025036900000025036903/12/20211341    3190301623742196425000011047900000223010000000000000                                                                            JERINGA X 1ML REF 302579SIN     1
CC0000055304729H202100000025036900000025036903/12/20211341    3190301623742196425000011047900000223010000000000000                                                                            JERINGA X 1ML REF 302579SIN     1
CC0000008679410H202100000025036900000025036903/12/20211341    3190301623742196425000011047900000223010000000000000                                                                            JERINGA X 1ML REF 302579SIN     1
CC0000022582356H202100000025036900000025036903/12/20211341    3190301623742196425000043879200001138180000000000000                                                                                   HOJA BISTURI # 11SOB     1
CC0000022785299H202100000025036900000025036903/12/20211341    3190301623742196425000043879200001138180000000000000                                                                                   HOJA BISTURI # 11SOB     1
CC0000022501645H202100000025036900000025036903/12/20211341    3190301623742196425000043879200001138180000000000000                                                                                   HOJA BISTURI # 11SOB     1
CC0000032890594H202100000025036900000025036903/12/20211341    3190301623742196425000043879200001138180000000000000                                                                                   HOJA BISTURI # 11SOB     1
CC0000033146973H202100000025036900000025036903/12/20211341    3190301623742196425000043879200001138180000000000000                                                                                   HOJA BISTURI # 11SOB     1
CC0000055304729H202100000025036900000025036903/12/20211341    3190301623742196425000043879200001138180000000000000                                                                                   HOJA BISTURI # 11SOB     1
CC0000008679410H202100000025036900000025036903/12/20211341    3190301623742196425000043879200001138180000000000000                                                                                   HOJA BISTURI # 11SOB     1
CC0000022582356H202100000025036900000025036903/12/20211341    3190301623742196425000043485100001618510000000000000                GUANTE QUIRURGICO DE LATEX REF 2D72N65X CAJ X 50 PROTEXIS  6.5 BN EXENTO-DC.417/2020SOB     4
CC0000022785299H202100000025036900000025036903/12/20211341    3190301623742196425000043485100001618510000000000000                GUANTE QUIRURGICO DE LATEX REF 2D72N65X CAJ X 50 PROTEXIS  6.5 BN EXENTO-DC.417/2020SOB     4
CC0000022501645H202100000025036900000025036903/12/20211341    3190301623742196425000043485100001618510000000000000                GUANTE QUIRURGICO DE LATEX REF 2D72N65X CAJ X 50 PROTEXIS  6.5 BN EXENTO-DC.417/2020SOB     4
CC0000032890594H202100000025036900000025036903/12/20211341    3190301623742196425000043485100001618510000000000000                GUANTE QUIRURGICO DE LATEX REF 2D72N65X CAJ X 50 PROTEXIS  6.5 BN EXENTO-DC.417/2020SOB     4
CC0000033146973H202100000025036900000025036903/12/20211341    3190301623742196425000043485100001618510000000000000                GUANTE QUIRURGICO DE LATEX REF 2D72N65X CAJ X 50 PROTEXIS  6.5 BN EXENTO-DC.417/2020SOB     4
CC0000055304729H202100000025036900000025036903/12/20211341    3190301623742196425000043485100001618510000000000000                GUANTE QUIRURGICO DE LATEX REF 2D72N65X CAJ X 50 PROTEXIS  6.5 BN EXENTO-DC.417/2020SOB     4
CC0000008679410H202100000025036900000025036903/12/20211341    3190301623742196425000043485100001618510000000000000                GUANTE QUIRURGICO DE LATEX REF 2D72N65X CAJ X 50 PROTEXIS  6.5 BN EXENTO-DC.417/2020SOB     4
CC0000022582356H202100000025036900000025036903/12/20211341    3190301623742196425000011089400001083350000000000000                                                              GUANTE ESTERIL LATEX S/POLVO TALLA 8.0SOB     2
CC0000022785299H202100000025036900000025036903/12/20211341    3190301623742196425000011089400001083350000000000000                                                              GUANTE ESTERIL LATEX S/POLVO TALLA 8.0SOB     2
CC0000022501645H202100000025036900000025036903/12/20211341    3190301623742196425000011089300001083990000000000000                                                              GUANTE ESTERIL LATEX S/POLVO TALLA 7.5SOB     3
CC0000032890594H202100000025036900000025036903/12/20211341    3190301623742196425000011089300001083990000000000000                                                              GUANTE ESTERIL LATEX S/POLVO TALLA 7.5SOB     3
CC0000033146973H202100000025036900000025036903/12/20211341    3190301623742196425000011089300001083990000000000000                                                              GUANTE ESTERIL LATEX S/POLVO TALLA 7.5SOB     3
CC0000055304729H202100000025036900000025036903/12/20211341    3190301623742196425000011089300001083990000000000000                                                              GUANTE ESTERIL LATEX S/POLVO TALLA 7.5SOB     3
CC0000008679410H202100000025036900000025036903/12/20211341    3190301623742196425000011089300001083990000000000000                                                              GUANTE ESTERIL LATEX S/POLVO TALLA 7.5SOB     3
CC0000022582356H202100000025036900000025036903/12/20211341    3190301623742196425000013077800000471960000000000000                                                             GASA NO TEJIDA EST 7.5 X 7.5 SOB X 3 UNSOB     5
CC0000022785299H202100000025036900000025036903/12/20211341    3190301623742196425000013077800000471960000000000000                                                             GASA NO TEJIDA EST 7.5 X 7.5 SOB X 3 UNSOB     5
CC0000022501645H202100000025036900000025036903/12/20211341    3190301623742196425000013077800000471960000000000000                                                             GASA NO TEJIDA EST 7.5 X 7.5 SOB X 3 UNSOB     5
CC0000032890594H202100000025036900000025036903/12/20211341    3190301623742196425000013077800000471960000000000000                                                             GASA NO TEJIDA EST 7.5 X 7.5 SOB X 3 UNSOB     5
CC0000033146973H202100000025036900000025036903/12/20211341    3190301623742196425000013077800000471960000000000000                                                             GASA NO TEJIDA EST 7.5 X 7.5 SOB X 3 UNSOB     5
CC0000055304729H202100000025036900000025036903/12/20211341    3190301623742196425000013077800000471960000000000000                                                             GASA NO TEJIDA EST 7.5 X 7.5 SOB X 3 UNSOB     5
CC0000008679410H202100000025036900000025036903/12/20211341    3190301623742196425000013077800000471960000000000000                                                             GASA NO TEJIDA EST 7.5 X 7.5 SOB X 3 UNSOB     5
CC0000022785299H202100000025036900000025036903/12/20211341    3190301623742196425000038568100000258050000000000000                                                                         CANULA OXIGENO NASAL ADULTOSIN     1
CC0000022501645H202100000025036900000025036903/12/20211341    3190301623742196425000038568100000258050000000000000                                                                         CANULA OXIGENO NASAL ADULTOSIN     1
CC0000022582356H202100000025036900000025036903/12/20211341    3190301623742196425000000101000001101640000000000000                                                                  AGUJA DESECHABLE  23G X 1 1/2 PULGSOB     3
CC0000022785299H202100000025036900000025036903/12/20211341    3190301623742196425000000101000001101640000000000000                                                                  AGUJA DESECHABLE  23G X 1 1/2 PULGSOB     3
CC0000022501645H202100000025036900000025036903/12/20211341    3190301623742196425000000101000001101640000000000000                                                                  AGUJA DESECHABLE  23G X 1 1/2 PULGSOB     3
CC0000032890594H202100000025036900000025036903/12/20211341    3190301623742196425000000101000001101640000000000000                                                                  AGUJA DESECHABLE  23G X 1 1/2 PULGSOB     3
CC0000033146973H202100000025036900000025036903/12/20211341    3190301623742196425000000101000001101640000000000000                                                                  AGUJA DESECHABLE  23G X 1 1/2 PULGSOB     3
CC0000055304729H202100000025036900000025036903/12/20211341    3190301623742196425000000101000001101640000000000000                                                                  AGUJA DESECHABLE  23G X 1 1/2 PULGSOB     3
CC0000008679410H202100000025036900000025036903/12/20211341    3190301623742196425000000101000001101640000000000000                                                                  AGUJA DESECHABLE  23G X 1 1/2 PULGSOB     3
CC0000022501645H202100000025036900000025036903/12/20211341    31903016237421964250000V4AF1000003850710000000000000                                                                    OMNIPAQUE Sln Iny 300 mg x 50 mlFCO     4
CC0000022582356H202100000025036900000025036903/12/20211341    31903016237421964250000N1BA2400001687720000000000000                                                    LIDOCAINA 2% SOL INY  CAJ X 50AMP X 10ML CORPAULAMP     2
CC0000022785299H202100000025036900000025036903/12/20211341    31903016237421964250000N1BA2400001687720000000000000                                                    LIDOCAINA 2% SOL INY  CAJ X 50AMP X 10ML CORPAULAMP     2
CC0000022501645H202100000025036900000025036903/12/20211341    31903016237421964250000N1BA2400001687720000000000000                                                    LIDOCAINA 2% SOL INY  CAJ X 50AMP X 10ML CORPAULAMP     2
CC0000032890594H202100000025036900000025036903/12/20211341    31903016237421964250000N1BA2400001687720000000000000                                                    LIDOCAINA 2% SOL INY  CAJ X 50AMP X 10ML CORPAULAMP     2
CC0000033146973H202100000025036900000025036903/12/20211341    31903016237421964250000N1BA2400001687720000000000000                                                    LIDOCAINA 2% SOL INY  CAJ X 50AMP X 10ML CORPAULAMP     2
CC0000055304729H202100000025036900000025036903/12/20211341    31903016237421964250000N1BA2400001687720000000000000                                                    LIDOCAINA 2% SOL INY  CAJ X 50AMP X 10ML CORPAULAMP     2
CC0000008679410H202100000025036900000025036903/12/20211341    31903016237421964250000N1BA2400001687720000000000000                                                    LIDOCAINA 2% SOL INY  CAJ X 50AMP X 10ML CORPAULAMP     2
