CC0000008530442H202100000556507100000556507103/12/20212254     3300009237421964250000A03F0300001626860000000000000                                                                   METOCLOPRAMIDA SLN INY 10 MG/2 MLAMP     2
CC0000008530442H202100000556507100000556507103/12/20210838     3300010237421964250000A03F0300001626860000000000000                                                                   METOCLOPRAMIDA SLN INY 10 MG/2 MLAMP     1
CC0000008530442H202100000556507100000556507103/12/20211657    31901827237421964250000E1AB0200000199290000000000000                                                            SOLUCION SALINA 0.9% SLN INY BO X 100 MLBIN     3
CC0000008530442H202100000556507100000556507103/12/20210137    31902357237421964250000E1AB0200000199290000000000000                                                            SOLUCION SALINA 0.9% SLN INY BO X 100 MLBIN    10
CC0000008530442H202100000556507100000556507103/12/20210137    31902357237421964250000E1AB0500003888400000000000000                                                              SOLUCION SALINA 0.9% SLN INY X 1000 MLBOL     2
CC0000008530442H202100000556507100000556507103/12/20211657    31901827237421964250000E1AD0300000199490000000000000                                         LACTATO RINGER USP (HARTMANN)  SOL INY  BOL X 1000ML BAXTERBIN     2
CC0000008530442H202100000556507100000556507103/12/20210838     3300010237421964250000J01XA400001212420000000000000                                                               VANCOMICINA POLVO LIOF SLN INY 500 MGVAL     2
CC0000008530442H202100000556507100000556507103/12/20211417     3300010237421964250000N2AA0100000301640000000000000                                                                            MORFINA Sln Iny 10 mg/mlAMP     2
CC0000008530442H202100000556507100000556507103/12/20212254     3300009237421964250000A02B0800001276960000000000000                                                                                 OMEPRAZOL CAP 20 MGCAP     1
CC0000008530442H202100000556507100000556507103/12/20211417     3300010237421964250000C07A1400001333340000000000000                                                                          CARVEDILOL TAB 12.5 MG /R/TAB     1
CC0000008530442H202100000556507100000556507103/12/20211416     3300010237421964250000C07A1400001333340000000000000                                                                          CARVEDILOL TAB 12.5 MG /R/TAB     1
CC0000008530442H202100000556507100000556507103/12/20210838     3300010237421964250000C09AA300001353220000000000000                                                                                   ENALAPRIL TAB 5MGTAB     1
CC0000008530442H202100000556507100000556507103/12/20210838     3300010237421964250000C10AA500001314010000000000000                                                                             ATORVASTATINA TAB 40 MGTAB     1
CC0000008530442H202100000556507100000556507103/12/20210837     3300010237421964250000C10AA500001314010000000000000                                                                             ATORVASTATINA TAB 40 MGTAB     1
CC0000008530442H202100000556507100000556507103/12/20210838     3300010237421964250000J1KD0400000335010000000000000                                                                      GENTAMICINA SLN INY 80 MG/2 MLAMP     1
CC0000008530442H202100000556507100000556507103/12/20212253     3300009237421964250000N2BE2200001252930000000000000                                                                             ACETAMINOFEN Tab 500 MGTAB     4
CC0000008530442H202100000556507100000556507103/12/20211416     3300010237421964250000N2BE2200001252930000000000000                                                                             ACETAMINOFEN Tab 500 MGTAB     6
CC0000008530442H202100000556507100000556507103/12/20211417     3300010237421964250000N02BA100001276940000000000000                                                                  ACIDO ACETIL SALIC?LICO TAB 100 MGTAB     2
CC0000008530442H202100000556507100000556507103/12/20212254     3300009237421964250000N2BB0100001672010000000000000                                  DIPIRONA 1GR/2ML(0.5GR/ML) SOL INY INST CAJ X 100AMP X 2ML VITALISAMP     2
CC0000008530442H202100000556507100000556507103/12/20211745     3300010237421964250000N2BB0100001672010000000000000                                  DIPIRONA 1GR/2ML(0.5GR/ML) SOL INY INST CAJ X 100AMP X 2ML VITALISAMP     1
CC0000008530442H202100000556507100000556507103/12/20210838     3300010237421964250000N2BB0100001672010000000000000                                  DIPIRONA 1GR/2ML(0.5GR/ML) SOL INY INST CAJ X 100AMP X 2ML VITALISAMP     5
CC0000008530442H202100000556507100000556507103/12/20211417     3300010237421964250000N2AX0900001672040000000000000                                                                              TRAMADOL SLN INY 50 MGAMP     3
CC0000008530442H202100000556507100000556507103/12/20211416     3300010237421964250000N2AX0900001672040000000000000                                                                              TRAMADOL SLN INY 50 MGAMP     1
CC0000008530442H202100000556507100000556507103/12/20211657    31901827237421964250000V07A1300000502600000000000000                                                                                AGUA ESTERIL x 10 mlAMP     5
CC0000008530442H202100000556507100000556507103/12/20210137    31902357237421964250000V07A1300000502600000000000000                                                                                AGUA ESTERIL x 10 mlAMP    10
