RC0001034521434H202100000556502500000556502503/12/20210948     3300004237421964250000A02BC100001677520000000000000                                                                ESOMEPRAZOL POLVO LIOF INY 40 MG /R/VAL     2
RC0001034521434H202100000556502500000556502503/12/20211437     3300003237421964250000A04A0100000380230000000000000                                                                  HARMETONE SUSP 1 MG/ML FCO X 60 MLFCO     1
RC0001034521434H202100000556502500000556502503/12/20211436     3300003237421964250000B3BB0200001315040000000000000                                                                               ACIDO FOLICO Tab 5 mgTAB     1
RC0001034521434H202100000556502500000556502503/12/20210637    31902977237421964250000E1AD0300000199490000000000000                                         LACTATO RINGER USP (HARTMANN)  SOL INY  BOL X 1000ML BAXTERBIN     2
RC0001034521434H202100000556502500000556502503/12/20212358     3300009237421964250000S2BA0200000468180000000000000                                                                   SOLU-MEDROL SLN INY 40 MG/ML  /R/VAL     1
RC0001034521434H202100000556502500000556502503/12/20210949     3300004237421964250000S2BA0200000468180000000000000                                                                   SOLU-MEDROL SLN INY 40 MG/ML  /R/VAL     1
RC0001034521434H202100000556502500000556502503/12/20210004     3300009237421964250000S2BA0200000468180000000000000                                                                   SOLU-MEDROL SLN INY 40 MG/ML  /R/VAL     1
RC0001034521434H202100000556502500000556502503/12/20211436     3300003237421964250000J1CB0600000468340000000000000                                                           UNASYN IM-IV (1+0.5)GR POLV INY INST VIALVAL     1
RC0001034521434H202100000556502500000556502503/12/20210948     3300004237421964250000J1CB0600000468340000000000000                                                           UNASYN IM-IV (1+0.5)GR POLV INY INST VIALVAL     1
RC0001034521434H202100000556502500000556502503/12/20210004     3300009237421964250000J1CB0600000468340000000000000                                                           UNASYN IM-IV (1+0.5)GR POLV INY INST VIALVAL     1
RC0001034521434H202100000556502500000556502503/12/20211807     3300003237421964250000J02A0500000467570000000000000                                                                      DIFLUCAN SLN INY 200 MG/100 MLFCO     1
RC0001034521434H202100000556502500000556502503/12/20210004     3300009237421964250000J02A0500000467570000000000000                                                                      DIFLUCAN SLN INY 200 MG/100 MLFCO     1
RC0001034521434H202100000556502500000556502503/12/20211843     3300003237421964250000J02A0300000191080000000000000                                                              CANCIDAS POLVO LIOF SLN INY 70 MG  /R/VAL     1
RC0001034521434H202100000556502500000556502503/12/20210948     3300004237421964250000N2BB0500000217140000000000000                                                                          NOVALGINA Sln Iny 1 g/2 mlAMP     1
RC0001034521434H202100000556502500000556502503/12/20210949     3300004237421964250000N02B1100001464120000000000000                                           PARACETAMOL EP 1000MG/100ML(10MG/ML) SOL INY  CAJ X 10FCOVAL     1
RC0001034521434H202100000556502500000556502503/12/20210004     3300009237421964250000N02B1100001464120000000000000                                           PARACETAMOL EP 1000MG/100ML(10MG/ML) SOL INY  CAJ X 10FCOVAL     1
RC0001034521434H202100000556502500000556502503/12/20210949     3300004237421964250000N03AX200001063780000000000000                                                                      KEPPRA SLN INY 500 MG/5 ML /R/VAL     1
RC0001034521434H202100000556502500000556502503/12/20210004     3300009237421964250000N03AX200001063780000000000000                                                                      KEPPRA SLN INY 500 MG/5 ML /R/VAL     2
RC0001034521434H202100000556502500000556502503/12/20211807     3300003237421964250000N03A1800001024300000000000000                                                                 VIMPAT SLN INY 10 MG/ML AMP X 20 MLVAL     1
RC0001034521434H202100000556502500000556502503/12/20210949     3300004237421964250000N03A1800001024300000000000000                                                                 VIMPAT SLN INY 10 MG/ML AMP X 20 MLVAL     1
RC0001034521434H202100000556502500000556502503/12/20210004     3300009237421964250000N03A1800001024300000000000000                                                                 VIMPAT SLN INY 10 MG/ML AMP X 20 MLVAL     1
RC0001034521434H202100000556502500000556502503/12/20210949     3300004237421964250000A04AA200003932460000000000000                                                 ONDAX 4MG/2ML(2MG/ML) SOL INY INST CAJ X 1AMP X 2MLAMP     2
