RC0001048085516H202100000556536900000556536903/12/20212002    31500245237421964250000J01XA400001212420000000000000                                                               VANCOMICINA POLVO LIOF SLN INY 500 MGVAL     3
RC0001048085516H202100000556536900000556536903/12/20211657    31901635237421964250000J01XA400001212420000000000000                                                               VANCOMICINA POLVO LIOF SLN INY 500 MGVAL     1
RC0001048085516H202100000556536900000556536903/12/20211657    31901635237421964250000C03D0200001334290000000000000                                                                           ESPIRONOLACTONA TAB 25 MGTAB     1
RC0001048085516H202100000556536900000556536903/12/20212002    31500245237421964250000C03C0100001672000000000000000                                                                       FUROSEMIDA SLN INY 20 MG/2 MLAMP     2
RC0001048085516H202100000556536900000556536903/12/20211657    31901635237421964250000C03C0100001672000000000000000                                                                       FUROSEMIDA SLN INY 20 MG/2 MLAMP     2
RC0001048085516H202100000556536900000556536903/12/20211657    31901635237421964250000C09AA300001353220000000000000                                                                                   ENALAPRIL TAB 5MGTAB     1
RC0001048085516H202100000556536900000556536903/12/20212002    31500245237421964250000J01D1200001239960000000000000                                                                              CEFEPIME POLVO INY 1 GVAL     3
RC0001048085516H202100000556536900000556536903/12/20211657    31901635237421964250000J01D1200001239960000000000000                                                                              CEFEPIME POLVO INY 1 GVAL     1
RC0001048085516H202100000556536900000556536903/12/20211657    31901635237421964250000N2BB0100001672010000000000000                                  DIPIRONA 1GR/2ML(0.5GR/ML) SOL INY INST CAJ X 100AMP X 2ML VITALISAMP     1
RC0001048085516H202100000556536900000556536903/12/20211657    31901635237421964250000A02BC700001684270000000000000                                                            OMEPRAZOL 40MG POLVO LIOFILIZADO AMPOLLAVAL     1
