CC0000022596813H202100902574120300902574120303/12/20211052    3150030523742196425000011137100001419310000000000000                                                               TIRA GLUCOMETRIA FREESTYLE H OPTIUM .PZA     4
CC0000022596813H202100902574120300902574120303/12/20211052    3150030523742196425000020056600001101530000000000000                                                                AGUJA HIPODERMICA DESECH 18G X 1 1/2SOB     3
CC0000022596813H202100902574120300902574120303/12/20211052    3150030523742196425000024674000001138340000000000000   JERINGA 3PARTES C/A 10ML REF JEHL005 CAJ X 100 ALFASAFE  21GX1 PULG 1/2 PULG BN EXENTO-DC.417/202PZA     5
CC0000022596813H202100902574120300902574120303/12/20211052    31500305237421964250000E1AB0200000199290000000000000                                                            SOLUCION SALINA 0.9% SLN INY BO X 100 MLBIN     3
CC0000022596813H202100902574120300902574120303/12/20211052    31500305237421964250000V07A1300000502600000000000000                                                                                AGUA ESTERIL x 10 mlAMP     5
CC0000022596813H202100902574120300902574120303/12/20211052    31500305237421964250000E1AD0300000199490000000000000                                         LACTATO RINGER USP (HARTMANN)  SOL INY  BOL X 1000ML BAXTERBIN     3
CC0000022596813H202100902574120300902574120303/12/20212058    3190099823742196425000011085100001082120000000000000                                                                           GUANTE QUIRURGICO TALLA 7SOB     1
CC0000022596813H202100902574120300902574120303/12/20212058    3190099823742196425000013077800000471960000000000000                                                             GASA NO TEJIDA EST 7.5 X 7.5 SOB X 3 UNSOB    10
CC0000022596813H202100902574120300902574120303/12/20212058    3190099823742196425000042743200003929860000000000000                   GASA ADHESIVA STRETCH REF 02038-00 ROL X 10MT FIXOMULL 15CM BN EXENTO-DC.417/2020CMT    60
CC0000022596813H202100902574120300902574120303/12/20212058    3190099823742196425000000602700001197200000000000000                                                              APOSITO TRANSP  1655 IV 8.5CM X 11.5CMSOB     1
CC0000022596813H202100902574120300902574120303/12/20212058    3190099823742196425000000799100001135000000000000000                                                                    LEUKOMED T PLUS 8X15CMT 72382-02SOB    20
CC0000022596813H202100902574120300902574120303/12/20212323    3190099823742196425000011089200001083340000000000000                                                              GUANTE ESTERIL LATEX S/POLVO TALLA 7.0SOB     2
