CC0000008151415H202100000556532900000556532903/12/20211452    31500206237421964250000A02B0500001335110000000000000                                                                                LOSEC MUPS Tab 20 mgTAB     2
CC0000008151415H202100000556532900000556532903/12/20211400    31903291237421964250000A02B0500001335110000000000000                                                                                LOSEC MUPS Tab 20 mgTAB     2
CC0000008151415H202100000556532900000556532903/12/20211452    31500206237421964250000J01DA300001239950000000000000                                                            CEFAZOLINA SODICA POLVO LIOF SLN INY 1 GVAL     2
CC0000008151415H202100000556532900000556532903/12/20211400    31903291237421964250000J01DA300001239950000000000000                                                            CEFAZOLINA SODICA POLVO LIOF SLN INY 1 GVAL     6
CC0000008151415H202100000556532900000556532903/12/20211452    31500206237421964250000N2BB0200000513030000000000000                                                                           LISALGIL Sln Iny 2 g/5 mlAMP     2
CC0000008151415H202100000556532900000556532903/12/20211400    31903291237421964250000N2BB0200000513030000000000000                                                                           LISALGIL Sln Iny 2 g/5 mlAMP     3
CC0000008151415H202100000556532900000556532903/12/20211400    31903291237421964250000N02B1100001464120000000000000                                           PARACETAMOL EP 1000MG/100ML(10MG/ML) SOL INY  CAJ X 10FCOVAL     4
