TI0001046714799H202100000556506500000556506503/12/20210047    31903060237421964250000E1AD0300000199490000000000000                                         LACTATO RINGER USP (HARTMANN)  SOL INY  BOL X 1000ML BAXTERBIN     2
TI0001046714799H202100000556506500000556506503/12/20211435     3300003237421964250000J1CB0600000468340000000000000                                                           UNASYN IM-IV (1+0.5)GR POLV INY INST VIALVAL     1
TI0001046714799H202100000556506500000556506503/12/20210936     3300004237421964250000J1CB0600000468340000000000000                                                           UNASYN IM-IV (1+0.5)GR POLV INY INST VIALVAL     3
TI0001046714799H202100000556506500000556506503/12/20212357     3300009237421964250000R06AX200001302010000000000000                                                                                    DESALEX TAB 5 MGTAB     1
TI0001046714799H202100000556506500000556506503/12/20211102    31903291237421964250000V07A1300000502600000000000000                                                                                AGUA ESTERIL x 10 mlAMP     5
