TI0001139434005H202100015122545700015122545703/12/20211413    31500453237421964250000V07A1300000502600000000000000                                                                                AGUA ESTERIL x 10 mlAMP     5
TI0001103512693H202100015122545700015122545703/12/20211413    31500453237421964250000V07A1300000502600000000000000                                                                                AGUA ESTERIL x 10 mlAMP     5
TI0001047050967H202100015122545700015122545703/12/20211413    31500453237421964250000V07A1300000502600000000000000                                                                                AGUA ESTERIL x 10 mlAMP     5
RC0001044671776H202100015122545700015122545703/12/20211413    31500453237421964250000V07A1300000502600000000000000                                                                                AGUA ESTERIL x 10 mlAMP     5
RC0001046723141H202100015122545700015122545703/12/20211413    31500453237421964250000V07A1300000502600000000000000                                                                                AGUA ESTERIL x 10 mlAMP     5
RC0001063188076H202100015122545700015122545703/12/20211413    31500453237421964250000V07A1300000502600000000000000                                                                                AGUA ESTERIL x 10 mlAMP     5
RC0001044671776H202100015122545700015122545703/12/20211413    3150045323742196425000038572700000256840000000000000                                                                                 SONDA NSG LEVIN #10SIN     1
RC0001240292997H202100015122545700015122545703/12/20211413    3150045323742196425000038572700000256840000000000000                                                                                 SONDA NSG LEVIN #10SIN     1
RC0001240292997H202100015122545700015122545703/12/20211413    3150045323742196425000038569500000994340000000000000                                                             SONDA FOLEY 2 VIAS 6F MA-220603 UROTECHSOB     1
RC0001044671776H202100015122545700015122545703/12/20211413    3150045323742196425000032425700000225400000000000000                                                                          SET PERFUSOR SECURA X 20MLCAJ     1
RC0001240292997H202100015122545700015122545703/12/20211413    3150045323742196425000011060400001010330000000000000                                                            SENSOR PULSOX SPO2 LNCS NEONATAL MP00792PZA     1
TI0001139434005H202100015122545700015122545703/12/20211413    3150045323742196425000024673000001411210000000000000                                                                  JERINGA DESECHABLE 3 ML 21 X 1 1/2SOB    10
TI0001103512693H202100015122545700015122545703/12/20211413    3150045323742196425000024673000001411210000000000000                                                                  JERINGA DESECHABLE 3 ML 21 X 1 1/2SOB    10
TI0001047050967H202100015122545700015122545703/12/20211413    3150045323742196425000024673000001411210000000000000                                                                  JERINGA DESECHABLE 3 ML 21 X 1 1/2SOB    10
RC0001044671776H202100015122545700015122545703/12/20211413    3150045323742196425000024673000001411210000000000000                                                                  JERINGA DESECHABLE 3 ML 21 X 1 1/2SOB    10
RC0001046723141H202100015122545700015122545703/12/20211413    3150045323742196425000024673000001411210000000000000                                                                  JERINGA DESECHABLE 3 ML 21 X 1 1/2SOB    10
RC0001063188076H202100015122545700015122545703/12/20211413    3150045323742196425000024673000001411210000000000000                                                                  JERINGA DESECHABLE 3 ML 21 X 1 1/2SOB    10
TI0001139434005H202100015122545700015122545703/12/20211413    3150045323742196425000024674000001138340000000000000   JERINGA 3PARTES C/A 10ML REF JEHL005 CAJ X 100 ALFASAFE  21GX1 PULG 1/2 PULG BN EXENTO-DC.417/202PZA    15
TI0001103512693H202100015122545700015122545703/12/20211413    3150045323742196425000024674000001138340000000000000   JERINGA 3PARTES C/A 10ML REF JEHL005 CAJ X 100 ALFASAFE  21GX1 PULG 1/2 PULG BN EXENTO-DC.417/202PZA    15
TI0001047050967H202100015122545700015122545703/12/20211413    3150045323742196425000024674000001138340000000000000   JERINGA 3PARTES C/A 10ML REF JEHL005 CAJ X 100 ALFASAFE  21GX1 PULG 1/2 PULG BN EXENTO-DC.417/202PZA    15
RC0001044671776H202100015122545700015122545703/12/20211413    3150045323742196425000024674000001138340000000000000   JERINGA 3PARTES C/A 10ML REF JEHL005 CAJ X 100 ALFASAFE  21GX1 PULG 1/2 PULG BN EXENTO-DC.417/202PZA    15
RC0001046723141H202100015122545700015122545703/12/20211413    3150045323742196425000024674000001138340000000000000   JERINGA 3PARTES C/A 10ML REF JEHL005 CAJ X 100 ALFASAFE  21GX1 PULG 1/2 PULG BN EXENTO-DC.417/202PZA    15
RC0001063188076H202100015122545700015122545703/12/20211413    3150045323742196425000024674000001138340000000000000   JERINGA 3PARTES C/A 10ML REF JEHL005 CAJ X 100 ALFASAFE  21GX1 PULG 1/2 PULG BN EXENTO-DC.417/202PZA    15
TI0001139434005H202100015122545700015122545703/12/20211413    3150045323742196425000024673600000222980000000000000                                                                     JERINGA DESECHABLE 5 ml 27*11/2SIN    10
TI0001103512693H202100015122545700015122545703/12/20211413    3150045323742196425000024673600000222980000000000000                                                                     JERINGA DESECHABLE 5 ml 27*11/2SIN    10
TI0001047050967H202100015122545700015122545703/12/20211413    3150045323742196425000024673600000222980000000000000                                                                     JERINGA DESECHABLE 5 ml 27*11/2SIN    10
RC0001044671776H202100015122545700015122545703/12/20211413    3150045323742196425000024673600000222980000000000000                                                                     JERINGA DESECHABLE 5 ml 27*11/2SIN    10
RC0001046723141H202100015122545700015122545703/12/20211413    3150045323742196425000024673600000222980000000000000                                                                     JERINGA DESECHABLE 5 ml 27*11/2SIN    10
RC0001063188076H202100015122545700015122545703/12/20211413    3150045323742196425000024673600000222980000000000000                                                                     JERINGA DESECHABLE 5 ml 27*11/2SIN    10
TI0001103512693H202100015122545700015122545703/12/20211413    3150045323742196425000043879200001138180000000000000                                                                                   HOJA BISTURI # 11SOB     1
TI0001103512693H202100015122545700015122545703/12/20211413    3150045323742196425000013077800000471960000000000000                                                             GASA NO TEJIDA EST 7.5 X 7.5 SOB X 3 UNSOB     5
RC0001044671776H202100015122545700015122545703/12/20211413    3150045323742196425000013077800000471960000000000000                                                             GASA NO TEJIDA EST 7.5 X 7.5 SOB X 3 UNSOB     5
RC0001046723141H202100015122545700015122545703/12/20211413    3150045323742196425000013077800000471960000000000000                                                             GASA NO TEJIDA EST 7.5 X 7.5 SOB X 3 UNSOB     5
TI0001103512693H202100015122545700015122545703/12/20211413    3150045323742196425000042743200003929860000000000000                   GASA ADHESIVA STRETCH REF 02038-00 ROL X 10MT FIXOMULL 15CM BN EXENTO-DC.417/2020CMT    80
RC0001044671776H202100015122545700015122545703/12/20211413    3150045323742196425000042743200003929860000000000000                   GASA ADHESIVA STRETCH REF 02038-00 ROL X 10MT FIXOMULL 15CM BN EXENTO-DC.417/2020CMT    80
RC0001046723141H202100015122545700015122545703/12/20211413    3150045323742196425000042743200003929860000000000000                   GASA ADHESIVA STRETCH REF 02038-00 ROL X 10MT FIXOMULL 15CM BN EXENTO-DC.417/2020CMT    80
TI0001047050967H202100015122545700015122545703/12/20211413    3150045323742196425000011082700001620070000000000000                                                               EQUIPO SET PRIMARIO C/CLAVE REF 14001BOL     1
RC0001063188076H202100015122545700015122545703/12/20211413    3150045323742196425000011082700001620070000000000000                                                               EQUIPO SET PRIMARIO C/CLAVE REF 14001BOL     1
RC0001240292997H202100015122545700015122545703/12/20211413    3150045323742196425000011082700001620070000000000000                                                               EQUIPO SET PRIMARIO C/CLAVE REF 14001BOL     2
TI0001047050967H202100015122545700015122545703/12/20211413    3150045323742196425000011082200001407940000000000000                                                              EQUIPO EXT MICROTUBO Y 2 VALVUL 2N8371SOB     1
TI0001103512693H202100015122545700015122545703/12/20211413    3150045323742196425000011082200001407940000000000000                                                              EQUIPO EXT MICROTUBO Y 2 VALVUL 2N8371SOB     1
RC0001240292997H202100015122545700015122545703/12/20211413    31500453237421964250000Q1AA5900000236800000000000000                                                                            CISTOFLO PEDIAT X 500 mlSIN     1
TI0001103512693H202100015122545700015122545703/12/20211413    3150045323742196425000042743400003929880000000000000                                    CINTA ADHESIVA TRANSPARENT REF 72216-01 ROL X 10MT FIXOMULL 10CMCMT    80
RC0001044671776H202100015122545700015122545703/12/20211413    3150045323742196425000042743400003929880000000000000                                    CINTA ADHESIVA TRANSPARENT REF 72216-01 ROL X 10MT FIXOMULL 10CMCMT    80
RC0001046723141H202100015122545700015122545703/12/20211413    3150045323742196425000042743400003929880000000000000                                    CINTA ADHESIVA TRANSPARENT REF 72216-01 ROL X 10MT FIXOMULL 10CMCMT    80
TI0001047050967H202100015122545700015122545703/12/20211413    31500453237421964250000Q1AA7300000610640000000000000                                                            CATETER PERIFE INTROCAN # 22G 4251628-04SIN     2
RC0001240292997H202100015122545700015122545703/12/20211413    31500453237421964250000Q1AA7300000610640000000000000                                                            CATETER PERIFE INTROCAN # 22G 4251628-04SIN     2
TI0001103512693H202100015122545700015122545703/12/20211413    31500453237421964250000Q1AA7300000610640000000000000                                                            CATETER PERIFE INTROCAN # 22G 4251628-04SIN     1
RC0001240292997H202100015122545700015122545703/12/20211413    31500453237421964250000Q1AA7400003911720000000000000                                                            CATETER PERIFE INTROCAN # 24G 4251601-04SOB     1
TI0001047050967H202100015122545700015122545703/12/20211413    3150045323742196425000030936900001431840000000000000                                                                                              BURETABOL     1
RC0001063188076H202100015122545700015122545703/12/20211413    3150045323742196425000030936900001431840000000000000                                                                                              BURETABOL     1
TI0001139434005H202100015122545700015122545703/12/20211413    3150045323742196425000000602600001259280000000000000                                                             APOSITO TEGADERM IV PD 1610 5CM X 5.7CMSOB     1
TI0001103512693H202100015122545700015122545703/12/20211413    3150045323742196425000000602600001259280000000000000                                                             APOSITO TEGADERM IV PD 1610 5CM X 5.7CMSOB     1
TI0001047050967H202100015122545700015122545703/12/20211413    3150045323742196425000000602600001259280000000000000                                                             APOSITO TEGADERM IV PD 1610 5CM X 5.7CMSOB     1
RC0001044671776H202100015122545700015122545703/12/20211413    3150045323742196425000000602600001259280000000000000                                                             APOSITO TEGADERM IV PD 1610 5CM X 5.7CMSOB     1
RC0001046723141H202100015122545700015122545703/12/20211413    3150045323742196425000000602600001259280000000000000                                                             APOSITO TEGADERM IV PD 1610 5CM X 5.7CMSOB     1
RC0001063188076H202100015122545700015122545703/12/20211413    3150045323742196425000000602600001259280000000000000                                                             APOSITO TEGADERM IV PD 1610 5CM X 5.7CMSOB     1
RC0001240292997H202100015122545700015122545703/12/20211413    3150045323742196425000000602600001259280000000000000                                                             APOSITO TEGADERM IV PD 1610 5CM X 5.7CMSOB     1
TI0001139434005H202100015122545700015122545703/12/20211413    3150045323742196425000020056600001101530000000000000                                                                AGUJA HIPODERMICA DESECH 18G X 1 1/2SOB     5
TI0001103512693H202100015122545700015122545703/12/20211413    3150045323742196425000020056600001101530000000000000                                                                AGUJA HIPODERMICA DESECH 18G X 1 1/2SOB     5
TI0001047050967H202100015122545700015122545703/12/20211413    3150045323742196425000020056600001101530000000000000                                                                AGUJA HIPODERMICA DESECH 18G X 1 1/2SOB     5
RC0001044671776H202100015122545700015122545703/12/20211413    3150045323742196425000020056600001101530000000000000                                                                AGUJA HIPODERMICA DESECH 18G X 1 1/2SOB     5
RC0001046723141H202100015122545700015122545703/12/20211413    3150045323742196425000020056600001101530000000000000                                                                AGUJA HIPODERMICA DESECH 18G X 1 1/2SOB     5
RC0001063188076H202100015122545700015122545703/12/20211413    3150045323742196425000020056600001101530000000000000                                                                AGUJA HIPODERMICA DESECH 18G X 1 1/2SOB     5
TI0001139434005H202100015122545700015122545703/12/20211413    31500453237421964250000E1AD0300000199490000000000000                                         LACTATO RINGER USP (HARTMANN)  SOL INY  BOL X 1000ML BAXTERBIN     1
RC0001240292997H202100015122545700015122545703/12/20211413    31500453237421964250000E1AD0200003888320000000000000                                                                              HARTMAN SLN INY 500 MLBOL     1
TI0001103512693H202100015122545700015122545703/12/20211413    31500453237421964250000E1AB0300003888390000000000000                                                            SOLUCION SALINA 0.9% SLN INY BO X 500 MLBOL     2
RC0001044671776H202100015122545700015122545703/12/20211413    31500453237421964250000E1AB0300003888390000000000000                                                            SOLUCION SALINA 0.9% SLN INY BO X 500 MLBOL     1
RC0001046723141H202100015122545700015122545703/12/20211413    31500453237421964250000E1AB0300003888390000000000000                                                            SOLUCION SALINA 0.9% SLN INY BO X 500 MLBOL     1
RC0001240292997H202100015122545700015122545703/12/20211413    31500453237421964250000E1AB0300003888390000000000000                                                            SOLUCION SALINA 0.9% SLN INY BO X 500 MLBOL     2
TI0001047050967H202100015122545700015122545703/12/20211413    31500453237421964250000E1AB0300003888390000000000000                                                            SOLUCION SALINA 0.9% SLN INY BO X 500 MLBOL     4
TI0001103512693H202100015122545700015122545703/12/20211413    31500453237421964250000E1AB0700003888350000000000000                                                            SOLUCION SALINA 0.9% SLN INY BO X 250 MLBOL     1
RC0001044671776H202100015122545700015122545703/12/20211413    31500453237421964250000E1AB0700003888350000000000000                                                            SOLUCION SALINA 0.9% SLN INY BO X 250 MLBOL     1
RC0001046723141H202100015122545700015122545703/12/20211413    31500453237421964250000E1AB0700003888350000000000000                                                            SOLUCION SALINA 0.9% SLN INY BO X 250 MLBOL     1
TI0001047050967H202100015122545700015122545703/12/20211413    31500453237421964250000E1AA0600003888150000000000000                                                                 DEXTROSA 50% EN AGUA Sln Iny 500 mlBOL     1
TI0001103512693H202100015122545700015122545703/12/20211413    31500453237421964250000E1AC0100000199400000000000000                                                                          SUERO MIXTO Sln Iny 500 mlBIN     1
TI0001047050967H202100015122545700015122545703/12/20211413    31500453237421964250000E1AC0100000199400000000000000                                                                          SUERO MIXTO Sln Iny 500 mlBIN     3
RC0001240292997H202100015122545700015122545703/12/20211413    31500453237421964250000E1AC0100000199400000000000000                                                                          SUERO MIXTO Sln Iny 500 mlBIN     3
TI0001139434005H202100015122545700015122545703/12/20211413    3150045323742196425000011137100001419310000000000000                                                               TIRA GLUCOMETRIA FREESTYLE H OPTIUM .PZA     3
TI0001103512693H202100015122545700015122545703/12/20211413    3150045323742196425000011137100001419310000000000000                                                               TIRA GLUCOMETRIA FREESTYLE H OPTIUM .PZA     3
TI0001047050967H202100015122545700015122545703/12/20211413    3150045323742196425000011137100001419310000000000000                                                               TIRA GLUCOMETRIA FREESTYLE H OPTIUM .PZA     3
RC0001044671776H202100015122545700015122545703/12/20211413    3150045323742196425000011137100001419310000000000000                                                               TIRA GLUCOMETRIA FREESTYLE H OPTIUM .PZA     3
RC0001046723141H202100015122545700015122545703/12/20211413    3150045323742196425000011137100001419310000000000000                                                               TIRA GLUCOMETRIA FREESTYLE H OPTIUM .PZA     3
RC0001063188076H202100015122545700015122545703/12/20211413    3150045323742196425000011137100001419310000000000000                                                               TIRA GLUCOMETRIA FREESTYLE H OPTIUM .PZA     3
