CC0000029278345A202100000027822800000027822803/12/20211822    31903336240421964190000S2BA0100000468160000000000000                                                                          SOLU-CORTEF SNL INY 100 MGVAL     1
CC0000029278345A202100000027822800000027822803/12/20211822    3190333624042196419000024675000001585130000000000000                                                                    JERINGA DESECHABLE 50 ml S/AGUJASOB     1
CC0000029278345A202100000027822800000027822803/12/20211822    31903336240421964190000R03AC100001340440000000000000                                                            VENTILAN OSP INH ORAL 100 MCG /DO 200 DOFCO     1
CC0000029278345A202100000027822800000027822803/12/20211822    31903336240421964190000N1BA1900000554750000000000000                                                                     ROXICAINA JALEA 2% TUBO X 30 MLTUB     1
CC0000029278345A202100000027822800000027822803/12/20211822    3190333624042196419000038571900001123510000000000000                                                                              SONDA FOLEY #22 3 VIASSOB     1
CC0000029278345A202100000027822800000027822803/12/20211822    3190333624042196419000042743200003929860000000000000                   GASA ADHESIVA STRETCH REF 02038-00 ROL X 10MT FIXOMULL 15CM BN EXENTO-DC.417/2020CMT    50
CC0000029278345A202100000027822800000027822803/12/20211822    31903336240421964190000E1BA0700000198910000000000000                                                                   UROMATIC Sln IRRIGACION X 3000 MLBIN     2
CC0000029278345A202100000027822800000027822803/12/20211822    3190333624042196419000011085200001585390000000000000                                                                       GUANTE QUIRURGICO TALLA 7 1/2SOB     2
CC0000029278345A202100000027822800000027822803/12/20211822    3190333624042196419000000504800004018100000000000000   SUTURA SINTETI ABSORBIBLE CT-2 REF J333H CAJ X 36 VICRYL 70CM - 2-0 VIOLETA BN EXENTO-DC.417/2020SOB     1
CC0000029278345A202100000027822800000027822803/12/20211822    31903336240421964190000E1AB0300003888390000000000000                                                            SOLUCION SALINA 0.9% SLN INY BO X 500 MLBOL     1
CC0000029278345A202100000027822800000027822803/12/20211822    3190333624042196419000045136100001419300000000000000                                                                            LANCETA DEXTROMETER X UNPZA     1
CC0000029278345A202100000027822800000027822803/12/20211822    3190333624042196419000011137100001419310000000000000                                                               TIRA GLUCOMETRIA FREESTYLE H OPTIUM .PZA     1
CC0000029278345A202100000027822800000027822803/12/20211822    31903336240421964190000M3AC0600000720540000000000000                                                                         ESMERON SLN INY 50 MG /5 MLVAL     1
CC0000029278345A202100000027822800000027822803/12/20211822    3190333624042196419000011184200001338540000000000000                                                            BLADELESS OPTICAL TROCAR WITH FIXATION CPZA     1
CC0000029278345A202100000027822800000027822803/12/20211822    3190333624042196419000011082600000265810000000000000                                                              EQUIPO IRRIGACION URINARIA REF MRC4002SOB     3
CC0000029278345A202100000027822800000027822803/12/20211822    3190333624042196419000045138000001413890000000000000                                                                       LAPIZ ELECTROBISTURI  SOB X 1SOB     1
CC0000029278345A202100000027822800000027822803/12/20211822    3190333624042196419000030161400001459220000000000000                                                                       MANGUERA SUCCION 6 MM*3.1 MTSSOB     1
CC0000029278345A202100000027822800000027822803/12/20211822    3190333624042196419000017565800001585150000000000000                                                             SUTURA PROLENE 3-0 45CM PS1 PRIME 8663TSOB     2
CC0000029278345A202100000027822800000027822803/12/20211822    3190333624042196419000019487800001585180000000000000                                                                    VICRYL 1 PLUS 70 CM CT-1 VCP341HSOB     2
CC0000029278345A202100000027822800000027822803/12/20211822    3190333624042196419000031188000000236790000000000000                                                                                     CISTOFLO ADULTOSIN     1
CC0000029278345A202100000027822800000027822803/12/20211822    3190333624042196419000038570200001123300000000000000                                                                              SONDA FOLEY #20 2 VIASSOB     2
CC0000029278345A202100000027822800000027822803/12/20211822    3190333624042196419000030825800000270990000000000000                                                                  ALGODON ESTERIL SOBRE X 3 TORUNDASPZA     4
CC0000029278345A202100000027822800000027822803/12/20211822    3190333624042196419000043879100001138200000000000000                                                                  HOJA BISTURI # 15 CSSB 15 01002003SOB     1
CC0000029278345A202100000027822800000027822803/12/20211822    3190333624042196419000001900000000325550000000000000                                                                       HEM-O-LOK MORADO L 544240 X 6SIN     3
CC0000029278345A202100000027822800000027822803/12/20211822    3190333624042196419000049059900000267420000000000000                                                                 MEDIA ANTIEMBOLICA TAL M 3416LF PARBOL     1
CC0000029278345A202100000027822800000027822803/12/20211822    3190333624042196419000022425200000548240000000000000                       EXTENSION DE ANESTESIA REF 1139 SOB X 1 SHERLEG  ADULTO BN EXENTO-DC.417/2020SIN     1
CC0000029278345A202100000027822800000027822803/12/20211822    3190333624042196419000016830000000970620000000000000                                                             SIST FIJACION CAT PERIFERICO 6.5X7 1683SOB     1
CC0000029278345A202100000027822800000027822803/12/20211822    3190333624042196419000035356500003919000000000000000                                                                                        LLAVE 3 VIASSOB     2
CC0000029278345A202100000027822800000027822803/12/20211822    3190333624042196419000022426800001140510000000000000                                                                    EQUIPO MACROGOTEO BAXTER MRC0001SOB     2
CC0000029278345A202100000027822800000027822803/12/20211822    31903336240421964190000Q1AA7100000610620000000000000                                                            CATETER PERIFE INTROCAN # 18G 4251687-04SIN     1
CC0000029278345A202100000027822800000027822803/12/20211822    3190333624042196419000000100600000223090000000000000                                                                      AGUJA DESECHABLE 18G X 1 1/2 PSIN     1
CC0000029278345A202100000027822800000027822803/12/20211822    3190333624042196419000024674000001138340000000000000   JERINGA 3PARTES C/A 10ML REF JEHL005 CAJ X 100 ALFASAFE  21GX1 PULG 1/2 PULG BN EXENTO-DC.417/202PZA     5
CC0000029278345A202100000027822800000027822803/12/20211822    3190333624042196419000024673600000222980000000000000                                                                     JERINGA DESECHABLE 5 ml 27*11/2SIN     1
CC0000029278345A202100000027822800000027822803/12/20211822    3190333624042196419000024673000001411210000000000000                                                                  JERINGA DESECHABLE 3 ML 21 X 1 1/2SOB     1
CC0000029278345A202100000027822800000027822803/12/20211822    3190333624042196419000011073300001096420000000000000                                                                BOLSA DE SUCCION DE FLUIDOS x 2500mLBOL     1
CC0000029278345A202100000027822800000027822803/12/20211822    3190333624042196419000053074400000607910000000000000                                                               GASA ESTERIL 10*10 SOBRE X 3 UNIDADESSOB     4
CC0000029278345A202100000027822800000027822803/12/20211822    3190333624042196419000039175000001072050000000000000                                                                           TUBO ENDOTRAQUEAL C/B 7.0SOB     1
CC0000029278345A202100000027822800000027822803/12/20211822    3190333624042196419000051515500000598160000000000000                                                                            MASCARILLA ANESTESIA # 5SIN     1
CC0000029278345A202100000027822800000027822803/12/20211822    3190333624042196419000031010900000762730000000000000                                                                          CANULA GUEDEL # 4 (100 MM)SOB     1
CC0000029278345A202100000027822800000027822803/12/20211822    3190333624042196419000038568100000258050000000000000                                                                         CANULA OXIGENO NASAL ADULTOSIN     1
CC0000029278345A202100000027822800000027822803/12/20211822    3190333624042196419000011085300001082140000000000000                                                                           GUANTE QUIRURGICO TALLA 8SOB     1
CC0000029278345A202100000027822800000027822803/12/20211822    3190333624042196419000011085100001082120000000000000                                                                           GUANTE QUIRURGICO TALLA 7SOB     3
CC0000029278345A202100000027822800000027822803/12/20211822    3190333624042196419000043485100001618510000000000000                GUANTE QUIRURGICO DE LATEX REF 2D72N65X CAJ X 50 PROTEXIS  6.5 BN EXENTO-DC.417/2020SOB     6
CC0000029278345A202100000027822800000027822803/12/20211822    31903336240421964190000E1AB0500003888400000000000000                                                              SOLUCION SALINA 0.9% SLN INY X 1000 MLBOL     3
CC0000029278345A202100000027822800000027822803/12/20211822    31903336240421964190000E1AD0200003888320000000000000                                                                              HARTMAN SLN INY 500 MLBOL     5
CC0000029278345A202100000027822800000027822803/12/20211822    31903336240421964190000C01C0300001261020000000000000                                                               ETILEFRINA HCL SLN INY 10 MG/1 ML /R/AMP     1
CC0000029278345A202100000027822800000027822803/12/20211822    31903336240421964190000A03F0300001626860000000000000                                                                   METOCLOPRAMIDA SLN INY 10 MG/2 MLAMP     1
CC0000029278345A202100000027822800000027822803/12/20211822    31903336240421964190000N2BB1100000217160000000000000                                                                      NOVALGINA Sln Iny 2.5 g x 5 mlAMP     1
CC0000029278345A202100000027822800000027822803/12/20211822    31903336240421964190000M01A0600000178090000000000000                                                                     KETOROLACO SLN INY 30 MG/ML /R/AMP     1
CC0000029278345A202100000027822800000027822803/12/20211822    31903336240421964190000N01A0400003939010000000000000                                               MAYOPROFOL 200MG/20ML(1%) EMUL INY CAJ X 1VIAL X 20MLVAL     1
CC0000029278345A202100000027822800000027822803/12/20211822    31903336240421964190000N1AH0200003906560000000000000                                                                     FENTANIL Iny 0.05 mg/ml x 10 mlAMP     1
