CC0000019132127A202100000027828200000027828203/12/20211605    3190333624042196419000011099300000777780000000000000                                                                     FILTRO BACTERIANO VIRICO ADULTOBOL     1
CC0000019132127A202100000027828200000027828203/12/20211605    3190333624042196419000001200400000530690000000000000                                                                          CANULA DE MAYO # 5 (100MM)SIN     1
CC0000019132127A202100000027828200000027828203/12/20211605    31903336240421964190000Q1A13500001585200000000000000                        JERINGA PUNTA CAT SIN AGUJA REF 309620 CAJ X 40   50ML BN EXENTO-DC.417/2020SOB     1
CC0000019132127A202100000027828200000027828203/12/20211605    3190333624042196419000031188000000236790000000000000                                                                                     CISTOFLO ADULTOSIN     1
CC0000019132127A202100000027828200000027828203/12/20211605    3190333624042196419000038572000001123520000000000000                                                                              SONDA FOLEY #24 3 VIASSOB     1
CC0000019132127A202100000027828200000027828203/12/20211605    31903336240421964190000E1BA0700000198910000000000000                                                                   UROMATIC Sln IRRIGACION X 3000 MLBIN     4
CC0000019132127A202100000027828200000027828203/12/20211605    3190333624042196419000011082600000265810000000000000                                                              EQUIPO IRRIGACION URINARIA REF MRC4002SOB     1
CC0000019132127A202100000027828200000027828203/12/20211605    31903336240421964190000N1BA1900000554750000000000000                                                                     ROXICAINA JALEA 2% TUBO X 30 MLTUB     1
CC0000019132127A202100000027828200000027828203/12/20211605    3190333624042196419000022425200000548240000000000000                       EXTENSION DE ANESTESIA REF 1139 SOB X 1 SHERLEG  ADULTO BN EXENTO-DC.417/2020SIN     1
CC0000019132127A202100000027828200000027828203/12/20211605    3190333624042196419000035356500003919000000000000000                                                                                        LLAVE 3 VIASSOB     2
CC0000019132127A202100000027828200000027828203/12/20211605    3190333624042196419000022426800001140510000000000000                                                                    EQUIPO MACROGOTEO BAXTER MRC0001SOB     1
CC0000019132127A202100000027828200000027828203/12/20211605    3190333624042196419000016830000000970620000000000000                                                             SIST FIJACION CAT PERIFERICO 6.5X7 1683SOB     1
CC0000019132127A202100000027828200000027828203/12/20211605    31903336240421964190000J01DA300001239950000000000000                                                            CEFAZOLINA SODICA POLVO LIOF SLN INY 1 GVAL     2
CC0000019132127A202100000027828200000027828203/12/20211605    3190333624042196419000020750600000296780000000000000                                                                PLACA ELECTRO RETORNO PACIENTE E7506SIN     1
CC0000019132127A202100000027828200000027828203/12/20211605    3190333624042196419000053074400000607910000000000000                                                               GASA ESTERIL 10*10 SOBRE X 3 UNIDADESSOB     3
CC0000019132127A202100000027828200000027828203/12/20211605    3190333624042196419000024674000001138340000000000000   JERINGA 3PARTES C/A 10ML REF JEHL005 CAJ X 100 ALFASAFE  21GX1 PULG 1/2 PULG BN EXENTO-DC.417/202PZA     3
CC0000019132127A202100000027828200000027828203/12/20211605    3190333624042196419000024674500000322810000000000000                                                                   JERINGA DESECHABLE 20 ml 21*1 1/2SIN     1
CC0000019132127A202100000027828200000027828203/12/20211605    3190333624042196419000011085200001585390000000000000                                                                       GUANTE QUIRURGICO TALLA 7 1/2SOB     2
CC0000019132127A202100000027828200000027828203/12/20211605    3190333624042196419000011085100001082120000000000000                                                                           GUANTE QUIRURGICO TALLA 7SOB     3
CC0000019132127A202100000027828200000027828203/12/20211605    3190333624042196419000043485100001618510000000000000                GUANTE QUIRURGICO DE LATEX REF 2D72N65X CAJ X 50 PROTEXIS  6.5 BN EXENTO-DC.417/2020SOB     3
CC0000019132127A202100000027828200000027828203/12/20211605    3190333624042196419000051515400000598150000000000000                                                                            MASCARILLA ANESTESIA # 4SIN     1
CC0000019132127A202100000027828200000027828203/12/20211605    3190333624042196419000038568100000258050000000000000                                                                         CANULA OXIGENO NASAL ADULTOSIN     1
CC0000019132127A202100000027828200000027828203/12/20211605    31903336240421964190000E1AB0500003888400000000000000                                                              SOLUCION SALINA 0.9% SLN INY X 1000 MLBOL     4
CC0000019132127A202100000027828200000027828203/12/20211605    31903336240421964190000E1AB0300003888390000000000000                                                            SOLUCION SALINA 0.9% SLN INY BO X 500 MLBOL     2
CC0000019132127A202100000027828200000027828203/12/20211605    31903336240421964190000N02B1100001464120000000000000                                           PARACETAMOL EP 1000MG/100ML(10MG/ML) SOL INY  CAJ X 10FCOVAL     1
CC0000019132127A202100000027828200000027828203/12/20211605    31903336240421964190000N01A0400003939010000000000000                                               MAYOPROFOL 200MG/20ML(1%) EMUL INY CAJ X 1VIAL X 20MLVAL     2
CC0000019132127A202100000027828200000027828203/12/20211605    31903336240421964190000N1BA0300000217900000000000000                                                                    BUPIROP 0.5% C/E Sln Iny x 20 mlVAL     1
CC0000019132127A202100000027828200000027828203/12/20211605    31903336240421964190000N1AH0200003906560000000000000                                                                     FENTANIL Iny 0.05 mg/ml x 10 mlAMP     1
