CC0000042208823H202100015052798100015052798103/12/20211602    3150027223742196425000001956000001620610000000000000                                                                      CONECTOR MICRO CLAVE LAT-MC100SOB     1
CC0000022352292H202100015052798100015052798103/12/20211602    3150027223742196425000001956000001620610000000000000                                                                      CONECTOR MICRO CLAVE LAT-MC100SOB     1
CC0000042208823H202100015052798100015052798103/12/20211602    31500272237421964250000Q1AA7300000610640000000000000                                                            CATETER PERIFE INTROCAN # 22G 4251628-04SIN     2
CC0000022352292H202100015052798100015052798103/12/20211602    31500272237421964250000Q1AA7300000610640000000000000                                                            CATETER PERIFE INTROCAN # 22G 4251628-04SIN     2
CC0000042208823H202100015052798100015052798103/12/20211602    31500272237421964250000Q1AA3300001585140000000000000                                                                         APOSITO TEGADERM 10*12 1626SOB     1
CC0000022352292H202100015052798100015052798103/12/20211602    31500272237421964250000Q1AA3300001585140000000000000                                                                         APOSITO TEGADERM 10*12 1626SOB     1
CC0000022352292H202100015052798100015052798103/12/20211602    31500272237421964250000E1AD0200003888320000000000000                                                                              HARTMAN SLN INY 500 MLBOL     2
CC0000072018971H202100015052798100015052798103/12/20211602    31500272237421964250000E1AD0200003888320000000000000                                                                              HARTMAN SLN INY 500 MLBOL     2
CC0000042208823H202100015052798100015052798103/12/20211602    31500272237421964250000E1AB0300003888390000000000000                                                            SOLUCION SALINA 0.9% SLN INY BO X 500 MLBOL     2
TI0001043450576H202100015052798100015052798103/12/20211602    31500272237421964250000E1AB0300003888390000000000000                                                            SOLUCION SALINA 0.9% SLN INY BO X 500 MLBOL     2
CC0001129489867H202100015052798100015052798103/12/20211602    31500272237421964250000E1AB0300003888390000000000000                                                            SOLUCION SALINA 0.9% SLN INY BO X 500 MLBOL     2
CC0000072018971H202100015052798100015052798103/12/20211602    31500272237421964250000E1AB0300003888390000000000000                                                            SOLUCION SALINA 0.9% SLN INY BO X 500 MLBOL     2
