TI0001043450576H202100015052798700015052798703/12/20212028    3150036623742196425000011082700001620070000000000000                                                               EQUIPO SET PRIMARIO C/CLAVE REF 14001BOL     1
CC0001129489867H202100015052798700015052798703/12/20212028    3150036623742196425000011082700001620070000000000000                                                               EQUIPO SET PRIMARIO C/CLAVE REF 14001BOL     1
TI0001043450576H202100015052798700015052798703/12/20212028    3150036623742196425000030936900001431840000000000000                                                                                              BURETABOL     1
CC0000032701375H202100015052798700015052798703/12/20212028    3150036623742196425000030936900001431840000000000000                                                                                              BURETABOL     1
CC0001129489867H202100015052798700015052798703/12/20212028    3150036623742196425000030936900001431840000000000000                                                                                              BURETABOL     1
