CC0000013887621H202100015112733700015112733703/12/20211311    3190189623742196425000038569400000256750000000000000                                                                        SONDA ASPIRACION CONTROL #14SIN     7
CC0001129564191H202100015112733700015112733703/12/20211311    3190189623742196425000038569400000256750000000000000                                                                        SONDA ASPIRACION CONTROL #14SIN     7
CC0000019490174H202100015112733700015112733703/12/20211311    3190189623742196425000038569400000256750000000000000                                                                        SONDA ASPIRACION CONTROL #14SIN     7
CC0000013887621H202100015112733700015112733703/12/20211311    3190189623742196425000036441300000236540000000000000                                                                    JERINGA 1 ML GASES ARTERIAL 9023SIN     4
CC0001129564191H202100015112733700015112733703/12/20211311    3190189623742196425000036441300000236540000000000000                                                                    JERINGA 1 ML GASES ARTERIAL 9023SIN     4
CC0000019490174H202100015112733700015112733703/12/20211311    3190189623742196425000036441300000236540000000000000                                                                    JERINGA 1 ML GASES ARTERIAL 9023SIN     3
CC0000013887621H202100015112733700015112733703/12/20211311    3190189623742196425000024674000001138340000000000000   JERINGA 3PARTES C/A 10ML REF JEHL005 CAJ X 100 ALFASAFE  21GX1 PULG 1/2 PULG BN EXENTO-DC.417/202PZA     4
CC0001129564191H202100015112733700015112733703/12/20211311    3190189623742196425000024674000001138340000000000000   JERINGA 3PARTES C/A 10ML REF JEHL005 CAJ X 100 ALFASAFE  21GX1 PULG 1/2 PULG BN EXENTO-DC.417/202PZA     4
CC0000019490174H202100015112733700015112733703/12/20211311    3190189623742196425000024674000001138340000000000000   JERINGA 3PARTES C/A 10ML REF JEHL005 CAJ X 100 ALFASAFE  21GX1 PULG 1/2 PULG BN EXENTO-DC.417/202PZA     4
CC0000013887621H202100015112733700015112733703/12/20211311    3190189623742196425000020816000001096410000000000000                                                                          LINER PARED DELGADA 1500CCBOL     1
