RC0001102895413A202100000027826300000027826303/12/20211823    3190333624042196419000030161400001459220000000000000                                                                       MANGUERA SUCCION 6 MM*3.1 MTSSOB     1
RC0001102895413A202100000027826300000027826303/12/20211823    3190333624042196419000011073300001096420000000000000                                                                BOLSA DE SUCCION DE FLUIDOS x 2500mLBOL     1
RC0001102895413A202100000027826300000027826303/12/20211823    3190333624042196419000053074400000607910000000000000                                                               GASA ESTERIL 10*10 SOBRE X 3 UNIDADESSOB     1
RC0001102895413A202100000027826300000027826303/12/20211823    3190333624042196419000011082700001620070000000000000                                                               EQUIPO SET PRIMARIO C/CLAVE REF 14001BOL     1
RC0001102895413A202100000027826300000027826303/12/20211823    3190333624042196419000051515300000598140000000000000                                                                            MASCARILLA ANESTESIA # 3SIN     1
RC0001102895413A202100000027826300000027826303/12/20211823    31903336240421964190000Q1A11800000258040000000000000                                                                         CANULA OXIGENO NASAL PEDIATSIN     1
RC0001102895413A202100000027826300000027826303/12/20211823    3190333624042196419000035356500003919000000000000000                                                                                        LLAVE 3 VIASSOB     1
RC0001102895413A202100000027826300000027826303/12/20211823    3190333624042196419000011047900000223010000000000000                                                                            JERINGA X 1ML REF 302579SIN     1
RC0001102895413A202100000027826300000027826303/12/20211823    3190333624042196419000024673600000222980000000000000                                                                     JERINGA DESECHABLE 5 ml 27*11/2SIN     1
RC0001102895413A202100000027826300000027826303/12/20211823    31903336240421964190000E1AB0200000199290000000000000                                                            SOLUCION SALINA 0.9% SLN INY BO X 100 MLBIN     2
