CC0001047339603H202100000556522200000556522203/12/20211147    31901635237421964250000A02BC100001677520000000000000                                                                ESOMEPRAZOL POLVO LIOF INY 40 MG /R/VAL     1
CC0001047339603H202100000556522200000556522203/12/20211147    31901635237421964250000J1CB0600000468340000000000000                                                           UNASYN IM-IV (1+0.5)GR POLV INY INST VIALVAL     3
CC0001047339603H202100000556522200000556522203/12/20211000    31901635237421964250000J1CB0600000468340000000000000                                                           UNASYN IM-IV (1+0.5)GR POLV INY INST VIALVAL     2
CC0001047339603H202100000556522200000556522203/12/20211147    31901635237421964250000N2BB0500000217140000000000000                                                                          NOVALGINA Sln Iny 1 g/2 mlAMP     3
CC0001047339603H202100000556522200000556522203/12/20211000    31901635237421964250000N2BB0500000217140000000000000                                                                          NOVALGINA Sln Iny 1 g/2 mlAMP     2
CC0001047339603H202100000556522200000556522203/12/20211147    31901635237421964250000N02B1100001464120000000000000                                           PARACETAMOL EP 1000MG/100ML(10MG/ML) SOL INY  CAJ X 10FCOVAL     2
CC0001047339603H202100000556522200000556522203/12/20211000    31901635237421964250000N02B1100001464120000000000000                                           PARACETAMOL EP 1000MG/100ML(10MG/ML) SOL INY  CAJ X 10FCOVAL     1
