TI0001134183559H202100000556511000000556511003/12/20210541    31500566237421964250000E1AB0300003888390000000000000                                                            SOLUCION SALINA 0.9% SLN INY BO X 500 MLBOL     1
TI0001134183559H202100000556511000000556511003/12/20211614     3300003237421964250000N3AG0400001337010000000000000                                                                              VALCOTE TAB 500 MG /R/TAB     2
TI0001134183559H202100000556511000000556511003/12/20210940     3300004237421964250000N03AG200001590870000000000000                                                            PROVALNOVA SLN INY 100MG/ML VIALX5ML /R/VAL     1
TI0001134183559H202100000556511000000556511003/12/20211427     3300003237421964250000N03A0600001336860000000000000                                                                               TOPAMAC TAB 50 MG /R/TAB     1
TI0001134183559H202100000556511000000556511003/12/20210941     3300004237421964250000N03AX900001336840000000000000                                                                              TOPAMAC TAB 100 MG /R/TAB     2
TI0001134183559H202100000556511000000556511003/12/20210940     3300004237421964250000N03AX600001334940000000000000                                                                        LEVETIRACETAM TAB 500 MG /R/TAB     4
TI0001134183559H202100000556511000000556511003/12/20211100    31903291237421964250000V07A1300000502600000000000000                                                                                AGUA ESTERIL x 10 mlAMP     5
