CC0000003719048H202100015052796800015052796803/12/20210524    31902064237421964250000E1AB0400000301850000000000000                                                               SOLUCION SALINA 0.9% INY FCO X 500 MLFCO     2
CC0000052863354H202100015052796800015052796803/12/20210524    31902064237421964250000E1AB0400000301850000000000000                                                               SOLUCION SALINA 0.9% INY FCO X 500 MLFCO     2
CC0001042353509H202100015052796800015052796803/12/20210524    31902064237421964250000E1AB0400000301850000000000000                                                               SOLUCION SALINA 0.9% INY FCO X 500 MLFCO     2
CC0001045685077H202100015052796800015052796803/12/20210524    31902064237421964250000E1AB0400000301850000000000000                                                               SOLUCION SALINA 0.9% INY FCO X 500 MLFCO     2
CC0001045695154H202100015052796800015052796803/12/20210524    31902064237421964250000E1AB0400000301850000000000000                                                               SOLUCION SALINA 0.9% INY FCO X 500 MLFCO     2
CC0000003719048H202100015052796800015052796803/12/20210524    31902064237421964250000E1AD0300000199490000000000000                                         LACTATO RINGER USP (HARTMANN)  SOL INY  BOL X 1000ML BAXTERBIN     2
CC0001104008600H202100015052796800015052796803/12/20210524    31902064237421964250000E1AD0300000199490000000000000                                         LACTATO RINGER USP (HARTMANN)  SOL INY  BOL X 1000ML BAXTERBIN     2
