CC0001001782311U202100050131906800050131906803/12/20211914    31500547239421964320000Q1AA7100000610620000000000000                                                            CATETER PERIFE INTROCAN # 18G 4251687-04SIN     1
CC0000008540400U202100050131906800050131906803/12/20211914    31500547239421964320000Q1AA7100000610620000000000000                                                            CATETER PERIFE INTROCAN # 18G 4251687-04SIN     1
CC0000072211618U202100050131906800050131906803/12/20211914    31500547239421964320000Q1AA7200000610630000000000000                                                            CATETER PERIFE INTROCAN # 20G 4251644-04SIN     1
CC0001001782311U202100050131906800050131906803/12/20211914    3150054723942196432000016830000000970620000000000000                                                             SIST FIJACION CAT PERIFERICO 6.5X7 1683SOB     1
CC0000008540400U202100050131906800050131906803/12/20211914    3150054723942196432000016830000000970620000000000000                                                             SIST FIJACION CAT PERIFERICO 6.5X7 1683SOB     1
