CC0000003719048H202100000556514200000556514203/12/20212015    31500502237421964250000E1AB0300003888390000000000000                                                            SOLUCION SALINA 0.9% SLN INY BO X 500 MLBOL     1
CC0000003719048H202100000556514200000556514203/12/20210709    31902064237421964250000E1AD0300000199490000000000000                                         LACTATO RINGER USP (HARTMANN)  SOL INY  BOL X 1000ML BAXTERBIN     2
CC0000003719048H202100000556514200000556514203/12/20210709    31902064237421964250000E1AB0400000301850000000000000                                                               SOLUCION SALINA 0.9% INY FCO X 500 MLFCO     2
CC0000003719048H202100000556514200000556514203/12/20211901     3300003237421964250000C7FA0200001277980000000000000                                                                                    NORVAS TAB 10 MGTAB     2
CC0000003719048H202100000556514200000556514203/12/20210847     3300004237421964250000C09CA400001277130000000000000                                                                                  LOSARTAN TAB 50 MGTAB     2
CC0000003719048H202100000556514200000556514203/12/20210848     3300004237421964250000J1KF0200001677230000000000000                                                                      MERONEM POLVO SLN INY 1 G  /R/VAL     2
CC0000003719048H202100000556514200000556514203/12/20210847     3300004237421964250000N1BA1900000554750000000000000                                                                     ROXICAINA JALEA 2% TUBO X 30 MLTUB     1
CC0000003719048H202100000556514200000556514203/12/20211901     3300003237421964250000N2AX0400001204140000000000000                                                                             TRAMAL Sln Iny 50 mg/mlAMP     2
CC0000003719048H202100000556514200000556514203/12/20210847     3300004237421964250000N2AX0400001204140000000000000                                                                             TRAMAL Sln Iny 50 mg/mlAMP     2
CC0000003719048H202100000556514200000556514203/12/20211901     3300003237421964250000N02B1100001464120000000000000                                           PARACETAMOL EP 1000MG/100ML(10MG/ML) SOL INY  CAJ X 10FCOVAL     1
CC0000003719048H202100000556514200000556514203/12/20210848     3300004237421964250000N02B1100001464120000000000000                                           PARACETAMOL EP 1000MG/100ML(10MG/ML) SOL INY  CAJ X 10FCOVAL     2
CC0000003719048H202100000556514200000556514203/12/20211507    31903301237421964250000V07A1300000502600000000000000                                                                                AGUA ESTERIL x 10 mlAMP     4
