CC0000022388537H202100000556520300000556520303/12/20210930     3300010237421964250000B1AB0200003939510000000000000                 ENOXAPARINA SODICA 40MG/0.4ML(100MG/ML) SOL INY INST CAJ X 2JERPREL X 0.4ML TECHDOWJRP     2
CC0000022388537H202100000556520300000556520303/12/20211731    31901177237421964250000E1AB0300003888390000000000000                                                            SOLUCION SALINA 0.9% SLN INY BO X 500 MLBOL     2
CC0000022388537H202100000556520300000556520303/12/20212144    31903271237421964250000E1AB0500003888400000000000000                                                              SOLUCION SALINA 0.9% SLN INY X 1000 MLBOL     2
CC0000022388537H202100000556520300000556520303/12/20211731    31901177237421964250000E1AD0200003888320000000000000                                                                              HARTMAN SLN INY 500 MLBOL     4
CC0000022388537H202100000556520300000556520303/12/20211527     3300003237421964250000J01FF200003888100000000000000                                                                             EUROCLIN SLN INY 600 MGAMP     1
CC0000022388537H202100000556520300000556520303/12/20210930     3300010237421964250000J01FF200003888100000000000000                                                                             EUROCLIN SLN INY 600 MGAMP     2
CC0000022388537H202100000556520300000556520303/12/20210937     3300010237421964250000J01G0100000858000000000000000                                                                       GARAMICINA SLN INY 80 MG/2 MLAMP     3
CC0000022388537H202100000556520300000556520303/12/20210930     3300010237421964250000N02B1100001464120000000000000                                           PARACETAMOL EP 1000MG/100ML(10MG/ML) SOL INY  CAJ X 10FCOVAL     5
CC0000022388537H202100000556520300000556520303/12/20211036    31903310237421964250000V07A1300000502600000000000000                                                                                AGUA ESTERIL x 10 mlAMP     8
