CC0001045685077H202100000556505200000556505203/12/20212014    31500502237421964250000E1AB0300003888390000000000000                                                            SOLUCION SALINA 0.9% SLN INY BO X 500 MLBOL     1
CC0001045685077H202100000556505200000556505203/12/20211403    31902787237421964250000E1AB0300003888390000000000000                                                            SOLUCION SALINA 0.9% SLN INY BO X 500 MLBOL     1
CC0001045685077H202100000556505200000556505203/12/20210709    31902064237421964250000E1AB0400000301850000000000000                                                               SOLUCION SALINA 0.9% INY FCO X 500 MLFCO     1
CC0001045685077H202100000556505200000556505203/12/20210707    31902064237421964250000E1AB0400000301850000000000000                                                               SOLUCION SALINA 0.9% INY FCO X 500 MLFCO     1
CC0001045685077H202100000556505200000556505203/12/20210857     3300004237421964250000J01D1300001469600000000000000                                                                               POZINEG POLVO INY 1 GVAL     2
CC0001045685077H202100000556505200000556505203/12/20210034     3300009237421964250000J01D1300001469600000000000000                                                                               POZINEG POLVO INY 1 GVAL     4
CC0001045685077H202100000556505200000556505203/12/20211509     3300003237421964250000J01FF200003888100000000000000                                                                             EUROCLIN SLN INY 600 MGAMP     1
CC0001045685077H202100000556505200000556505203/12/20210857     3300004237421964250000J01FF200003888100000000000000                                                                             EUROCLIN SLN INY 600 MGAMP     1
CC0001045685077H202100000556505200000556505203/12/20210034     3300009237421964250000J01FF200003888100000000000000                                                                             EUROCLIN SLN INY 600 MGAMP     1
CC0001045685077H202100000556505200000556505203/12/20210034     3300009237421964250000N2AX0400001204140000000000000                                                                             TRAMAL Sln Iny 50 mg/mlAMP     1
CC0001045685077H202100000556505200000556505203/12/20211508     3300003237421964250000N2BB1100000217160000000000000                                                                      NOVALGINA Sln Iny 2.5 g x 5 mlAMP     1
CC0001045685077H202100000556505200000556505203/12/20210857     3300004237421964250000N2BB1100000217160000000000000                                                                      NOVALGINA Sln Iny 2.5 g x 5 mlAMP     2
CC0001045685077H202100000556505200000556505203/12/20210034     3300009237421964250000N2BB1100000217160000000000000                                                                      NOVALGINA Sln Iny 2.5 g x 5 mlAMP     1
CC0001045685077H202100000556505200000556505203/12/20211508     3300003237421964250000N02B1100001464120000000000000                                           PARACETAMOL EP 1000MG/100ML(10MG/ML) SOL INY  CAJ X 10FCOVAL     1
CC0001045685077H202100000556505200000556505203/12/20210857     3300004237421964250000N02B1100001464120000000000000                                           PARACETAMOL EP 1000MG/100ML(10MG/ML) SOL INY  CAJ X 10FCOVAL     1
CC0001045685077H202100000556505200000556505203/12/20210034     3300009237421964250000N02B1100001464120000000000000                                           PARACETAMOL EP 1000MG/100ML(10MG/ML) SOL INY  CAJ X 10FCOVAL     2
