TI0001080573782U202100050131908200050131908203/12/20212147    3150029423942196432000038568400000256940000000000000                                                                                   SONDA NELATON #10SIN     1
TI0001080573782U202100050131908200050131908203/12/20212147    3150029423942196432000024674000001138340000000000000   JERINGA 3PARTES C/A 10ML REF JEHL005 CAJ X 100 ALFASAFE  21GX1 PULG 1/2 PULG BN EXENTO-DC.417/202PZA     1
RC0001046728030U202100050131908200050131908203/12/20212147    3150029423942196432000024674000001138340000000000000   JERINGA 3PARTES C/A 10ML REF JEHL005 CAJ X 100 ALFASAFE  21GX1 PULG 1/2 PULG BN EXENTO-DC.417/202PZA     1
TI0001080573782U202100050131908200050131908203/12/20212147    3150029423942196432000043485100001618510000000000000                GUANTE QUIRURGICO DE LATEX REF 2D72N65X CAJ X 50 PROTEXIS  6.5 BN EXENTO-DC.417/2020SOB     2
TI0001080573782U202100050131908200050131908203/12/20212147    3150029423942196432000011082700001620070000000000000                                                               EQUIPO SET PRIMARIO C/CLAVE REF 14001BOL     1
TI0001080573782U202100050131908200050131908203/12/20212147    31500294239421964320000Q1AA7300000610640000000000000                                                            CATETER PERIFE INTROCAN # 22G 4251628-04SIN     1
TI0001080573782U202100050131908200050131908203/12/20212147    3150029423942196432000030936900001431840000000000000                                                                                              BURETABOL     1
TI0001080573782U202100050131908200050131908203/12/20212147    3150029423942196432000016830000000970620000000000000                                                             SIST FIJACION CAT PERIFERICO 6.5X7 1683SOB     1
TI0001080573782U202100050131908200050131908203/12/20212147    31500294239421964320000E1AB0500003888400000000000000                                                              SOLUCION SALINA 0.9% SLN INY X 1000 MLBOL     1
