CC0001122407930H202100000556521500000556521503/12/20210948    31500347237421964250000A2BC0100001277990000000000000                                                                                   ORAZOLE CAP 20 MGCAP     1
CC0001122407930H202100000556521500000556521503/12/20210948    31500347237421964250000B1AB0200003939510000000000000                 ENOXAPARINA SODICA 40MG/0.4ML(100MG/ML) SOL INY INST CAJ X 2JERPREL X 0.4ML TECHDOWJRP     2
CC0001122407930H202100000556521500000556521503/12/20210948    31500347237421964250000M1AE3400001335480000000000000                                                                                NAPROXENO TAB 250 MGTAB     3
CC0001122407930H202100000556521500000556521503/12/20210948    31500347237421964250000N5BB0200001278580000000000000                                                                                   HIDERAX TAB 25 MGTAB     3
