CC0000008525252U202100921247120300921247120303/12/20210213    3190098223942196432000011082700001620070000000000000                                                               EQUIPO SET PRIMARIO C/CLAVE REF 14001BOL     1
CC0000008525252U202100921247120300921247120303/12/20210213    3190098223942196432000001956000001620610000000000000                                                                      CONECTOR MICRO CLAVE LAT-MC100SOB     1
CC0000008525252U202100921247120300921247120303/12/20210213    31900982239421964320000Q1AA7100000610620000000000000                                                            CATETER PERIFE INTROCAN # 18G 4251687-04SIN     1
