TI0001139434005H202100015122545200015122545203/12/20210106    3190307023742196425000024674000001138340000000000000   JERINGA 3PARTES C/A 10ML REF JEHL005 CAJ X 100 ALFASAFE  21GX1 PULG 1/2 PULG BN EXENTO-DC.417/202PZA    10
TI0001139434005H202100015122545200015122545203/12/20210106    3190307023742196425000011082700001620070000000000000                                                               EQUIPO SET PRIMARIO C/CLAVE REF 14001BOL     1
TI0001139434005H202100015122545200015122545203/12/20210106    3190307023742196425000030936900001431840000000000000                                                                                              BURETABOL     1
TI0001043158958H202100015122545200015122545203/12/20210106    3190307023742196425000030936900001431840000000000000                                                                                              BURETABOL     1
TI0001139434005H202100015122545200015122545203/12/20210106    31903070237421964250000E1AD0300000199490000000000000                                         LACTATO RINGER USP (HARTMANN)  SOL INY  BOL X 1000ML BAXTERBIN     3
