CC0001006193870H202100015012623400015012623403/12/20211944    31903271237421964250000E1AD0300000199490000000000000                                         LACTATO RINGER USP (HARTMANN)  SOL INY  BOL X 1000ML BAXTERBIN     1
TI0001046717475H202100015012623400015012623403/12/20211944    31903271237421964250000E1AD0300000199490000000000000                                         LACTATO RINGER USP (HARTMANN)  SOL INY  BOL X 1000ML BAXTERBIN     2
CC0000032841792H202100015012623400015012623403/12/20211944    31903271237421964250000E1AD0300000199490000000000000                                         LACTATO RINGER USP (HARTMANN)  SOL INY  BOL X 1000ML BAXTERBIN     1
CC0000073070310H202100015012623400015012623403/12/20211944    31903271237421964250000E1AD0200003888320000000000000                                                                              HARTMAN SLN INY 500 MLBOL     2
CC0000022388537H202100015012623400015012623403/12/20211944    31903271237421964250000E1AB0500003888400000000000000                                                              SOLUCION SALINA 0.9% SLN INY X 1000 MLBOL     2
CC0001007977830H202100015012623400015012623403/12/20211944    31903271237421964250000E1AB0500003888400000000000000                                                              SOLUCION SALINA 0.9% SLN INY X 1000 MLBOL     2
CC0001006193870H202100015012623400015012623403/12/20211944    31903271237421964250000E1AA0100003888590000000000000                                                                        DEXTROSA 5% Sln Iny X 500 mlBOL     1
CC0001007977830H202100015012623400015012623403/12/20211944    31903271237421964250000E1AA0100003888590000000000000                                                                        DEXTROSA 5% Sln Iny X 500 mlBOL     1
