CC0000022467890H202100015032646100015032646103/12/20212207    3190305023742196425000038569400000256750000000000000                                                                        SONDA ASPIRACION CONTROL #14SIN    10
CC0000022467890H202100015032646100015032646103/12/20212207    3190305023742196425000043485100001618510000000000000                GUANTE QUIRURGICO DE LATEX REF 2D72N65X CAJ X 50 PROTEXIS  6.5 BN EXENTO-DC.417/2020SOB    10
CC0000022467890H202100015032646100015032646103/12/20212207    3190305023742196425000013077800000471960000000000000                                                             GASA NO TEJIDA EST 7.5 X 7.5 SOB X 3 UNSOB    10
CC0000022467890H202100015032646100015032646103/12/20212207    31903050237421964250000E1AB0700003888350000000000000                                                            SOLUCION SALINA 0.9% SLN INY BO X 250 MLBOL     1
