CC0001045708512H202100000556518900000556518903/12/20210901    31500206237421964250000A4AD0200000202990000000000000                                                                     PLITICAN HCL Sln Iny 50 mg/2 mlAMP     3
CC0001045708512H202100000556518900000556518903/12/20210901    31500206237421964250000A3BB0200000512940000000000000                                                                          BUSCAPINA SIMPLE Iny 20 mgAMP     3
CC0001045708512H202100000556518900000556518903/12/20210901    31500206237421964250000N02B1100001464120000000000000                                           PARACETAMOL EP 1000MG/100ML(10MG/ML) SOL INY  CAJ X 10FCOVAL     2
