CC0001047230087U202100050131907100050131907103/12/20212021    3150039423942196432000024674000001138340000000000000   JERINGA 3PARTES C/A 10ML REF JEHL005 CAJ X 100 ALFASAFE  21GX1 PULG 1/2 PULG BN EXENTO-DC.417/202PZA     2
CC0001102861537U202100050131907100050131907103/12/20212021    3150039423942196432000024674000001138340000000000000   JERINGA 3PARTES C/A 10ML REF JEHL005 CAJ X 100 ALFASAFE  21GX1 PULG 1/2 PULG BN EXENTO-DC.417/202PZA     2
CC0000039088478U202100050131907100050131907103/12/20212021    3150039423942196432000024674000001138340000000000000   JERINGA 3PARTES C/A 10ML REF JEHL005 CAJ X 100 ALFASAFE  21GX1 PULG 1/2 PULG BN EXENTO-DC.417/202PZA     3
CC0001102861537U202100050131907100050131907103/12/20212021    3150039423942196432000011082700001620070000000000000                                                               EQUIPO SET PRIMARIO C/CLAVE REF 14001BOL     1
CC0000039088478U202100050131907100050131907103/12/20212021    3150039423942196432000011082700001620070000000000000                                                               EQUIPO SET PRIMARIO C/CLAVE REF 14001BOL     1
CC0001102861537U202100050131907100050131907103/12/20212021    3150039423942196432000030936900001431840000000000000                                                                                              BURETABOL     1
CC0001047230087U202100050131907100050131907103/12/20212021    31500394239421964320000E1AB0500003888400000000000000                                                              SOLUCION SALINA 0.9% SLN INY X 1000 MLBOL     1
CC0001102861537U202100050131907100050131907103/12/20212021    31500394239421964320000E1AB0300003888390000000000000                                                            SOLUCION SALINA 0.9% SLN INY BO X 500 MLBOL     1
CC0000039088478U202100050131907100050131907103/12/20212021    31500394239421964320000E1AB0200000199290000000000000                                                            SOLUCION SALINA 0.9% SLN INY BO X 100 MLBIN     1
