CC0001140869518U202100000556541900000556541903/12/20212226     330000423942196432000011808300000218190000000000000                                                   DORMICUM IV 50MG/10ML(5MG/ML) SOL INY  CAJ X 5AMPAMP     1
CC0001140869518U202100000556541900000556541903/12/20212226     3300004239421964320000N07X0300003913670000000000000                                    DEXMEDETOMIDINA 400MCG/100ML(4MCG/ML) SOL INY BOL X 100ML BAXTERBOL     1
CC0001140869518U202100000556541900000556541903/12/20212226     3300004239421964320000N05A1300000614370000000000000                                                                       HALOPERIDOL SLN INY 5 MG / MLAMP     1
