CC0000072205914H202100000556512300000556512303/12/20211247    31903254237421964250000A2BC0900000200150000000000000                                                                               ORAZOLE Sln Iny 40 mgCIN     1
CC0000072205914H202100000556512300000556512303/12/20210626    31500170237421964250000A2BC0900000200150000000000000                                                                               ORAZOLE Sln Iny 40 mgCIN     1
CC0000072205914H202100000556512300000556512303/12/20211247    31903254237421964250000J01XA400001212420000000000000                                                               VANCOMICINA POLVO LIOF SLN INY 500 MGVAL     2
CC0000072205914H202100000556512300000556512303/12/20211247    31903254237421964250000N02B1100001464120000000000000                                           PARACETAMOL EP 1000MG/100ML(10MG/ML) SOL INY  CAJ X 10FCOVAL     5
