CC0001007977830H202100015012622900015012622903/12/20211319    3150034723742196425000024674000001138340000000000000   JERINGA 3PARTES C/A 10ML REF JEHL005 CAJ X 100 ALFASAFE  21GX1 PULG 1/2 PULG BN EXENTO-DC.417/202PZA     5
CC0001007977830H202100015012622900015012622903/12/20211319    3150034723742196425000030936900001431840000000000000                                                                                              BURETABOL     1
CC0001007977830H202100015012622900015012622903/12/20211319    31500347237421964250000E1AA0100003888590000000000000                                                                        DEXTROSA 5% Sln Iny X 500 mlBOL     1
