CC0001140828821H202100000556512500000556512503/12/20211127     3300004237421964250000A2AH0200001128980000000000000                                                                           MILPAX SUSP ORAL X 360 MLFCO     1
CC0001140828821H202100000556512500000556512503/12/20210801     3300004237421964250000A02BC100001677520000000000000                                                                ESOMEPRAZOL POLVO LIOF INY 40 MG /R/VAL     5
CC0001140828821H202100000556512500000556512503/12/20210801     3300004237421964250000A3BB0200000512940000000000000                                                                          BUSCAPINA SIMPLE Iny 20 mgAMP     1
CC0001140828821H202100000556512500000556512503/12/20210804     3300004237421964250000A03F0300001626860000000000000                                                                   METOCLOPRAMIDA SLN INY 10 MG/2 MLAMP     2
CC0001140828821H202100000556512500000556512503/12/20211501     3300003237421964250000A03A0900001316830000000000000                                                                           COLYPAN LP TAB 300 MG /R/TAB     3
CC0001140828821H202100000556512500000556512503/12/20210803     3300004237421964250000A6AC0200001467010000000000000                                                             LACTULAX JARABE 66.7G/100ML SOX15ML /R/SOB     3
CC0001140828821H202100000556512500000556512503/12/20210801     3300004237421964250000A06AD100001193740000000000000                                                                      CONTUMAX 3350 SOBRE X 17 G /R/SOB     2
CC0001140828821H202100000556512500000556512503/12/20211251    31903313237421964250000E1AB0700003888350000000000000                                                            SOLUCION SALINA 0.9% SLN INY BO X 250 MLBOL     2
CC0001140828821H202100000556512500000556512503/12/20212150    31903062237421964250000E1AB0500003888400000000000000                                                              SOLUCION SALINA 0.9% SLN INY X 1000 MLBOL     2
CC0001140828821H202100000556512500000556512503/12/20210802     3300004237421964250000C3CA0200000195520000000000000                                                                           LASIX SLN INY 20 MG/ 2 MLAMP     3
CC0001140828821H202100000556512500000556512503/12/20210801     3300004237421964250000C3CA0200000195520000000000000                                                                           LASIX SLN INY 20 MG/ 2 MLAMP     2
CC0001140828821H202100000556512500000556512503/12/20210804     3300004237421964250000H03A0900001278900000000000000                                                                                   EUTIROX TB 75 MCGTAB     1
CC0001140828821H202100000556512500000556512503/12/20210803     3300004237421964250000J1KF0200001677230000000000000                                                                      MERONEM POLVO SLN INY 1 G  /R/VAL     2
CC0001140828821H202100000556512500000556512503/12/20211619     3300010237421964250000J01XA400001212420000000000000                                                               VANCOMICINA POLVO LIOF SLN INY 500 MGVAL     1
CC0001140828821H202100000556512500000556512503/12/20210803     3300004237421964250000J01XA400001212420000000000000                                                               VANCOMICINA POLVO LIOF SLN INY 500 MGVAL     2
CC0001140828821H202100000556512500000556512503/12/20210804     3300004237421964250000J02A0500000467570000000000000                                                                      DIFLUCAN SLN INY 200 MG/100 MLFCO     2
CC0001140828821H202100000556512500000556512503/12/20210803     3300004237421964250000N2AX0400001204140000000000000                                                                             TRAMAL Sln Iny 50 mg/mlAMP     2
CC0001140828821H202100000556512500000556512503/12/20210803     3300004237421964250000N2BB0200000513030000000000000                                                                           LISALGIL Sln Iny 2 g/5 mlAMP     3
CC0001140828821H202100000556512500000556512503/12/20210804     3300004237421964250000N05A0500001336370000000000000                                                                              SEROQUEL TAB 25 MG /R/TAB     1
CC0001140828821H202100000556512500000556512503/12/20211410     3300010237421964250000B05B2500001052320000000000000                                                                     PERIOLIMEL BOLSA X 1500 ML (N4)BOL     1
CC0001140828821H202100000556512500000556512503/12/20211251    31903313237421964250000V07A1300000502600000000000000                                                                                AGUA ESTERIL x 10 mlAMP     8
