CC0000013887621H202100000556504300000556504303/12/20211204     330000423742196425000011808300000218190000000000000                                                   DORMICUM IV 50MG/10ML(5MG/ML) SOL INY  CAJ X 5AMPAMP     9
CC0000013887621H202100000556504300000556504303/12/20211203     330000423742196425000011808300000218190000000000000                                                   DORMICUM IV 50MG/10ML(5MG/ML) SOL INY  CAJ X 5AMPAMP     1
CC0000013887621H202100000556504300000556504303/12/20210955     3300010237421964250000A2BC0900000200150000000000000                                                                               ORAZOLE Sln Iny 40 mgCIN     1
CC0000013887621H202100000556504300000556504303/12/20210849     3300010237421964250000A11DA300001278410000000000000                                                                                  TIAMINA TAB 300 MGTAB     1
CC0000013887621H202100000556504300000556504303/12/20210954     3300010237421964250000A11GA400001337200000000000000                                                                               VITAMINA C Tab 500 mgTAB     7
CC0000013887621H202100000556504300000556504303/12/20210834     3300010237421964250000A11GA400001337200000000000000                                                                               VITAMINA C Tab 500 mgTAB     1
CC0000013887621H202100000556504300000556504303/12/20210955     3300010237421964250000B1AB0100001227270000000000000                                             HEPAMAX 25000UI/5ML(5000UI/ML) SOL INY  CAJ X 25AMPX5MLAMP     8
CC0000013887621H202100000556504300000556504303/12/20210954     3300010237421964250000C3CA0200000195520000000000000                                                                           LASIX SLN INY 20 MG/ 2 MLAMP     1
CC0000013887621H202100000556504300000556504303/12/20210953     3300010237421964250000C3CA0200000195520000000000000                                                                           LASIX SLN INY 20 MG/ 2 MLAMP     4
CC0000013887621H202100000556504300000556504303/12/20210833     3300010237421964250000H02AB500001664950000000000000                                                            DEXAMETASONA SLN INY 8 MG/2 ML AMP /CDS/AMP     1
CC0000013887621H202100000556504300000556504303/12/20210954     3300010237421964250000J01D1300001469600000000000000                                                                               POZINEG POLVO INY 1 GVAL     6
CC0000013887621H202100000556504300000556504303/12/20211755     3300003237421964250000M03A1000000553280000000000000                                                                     VECURONIO BROMURO SLN INY 10 MGVAL     1
CC0000013887621H202100000556504300000556504303/12/20212248     3300009237421964250000M3AC0600000720540000000000000                                                                         ESMERON SLN INY 50 MG /5 MLVAL     1
CC0000013887621H202100000556504300000556504303/12/20211555     3300003237421964250000N01A0400003939010000000000000                                               MAYOPROFOL 200MG/20ML(1%) EMUL INY CAJ X 1VIAL X 20MLVAL    16
CC0000013887621H202100000556504300000556504303/12/20211204     3300004237421964250000N01A0400003939010000000000000                                               MAYOPROFOL 200MG/20ML(1%) EMUL INY CAJ X 1VIAL X 20MLVAL     8
CC0000013887621H202100000556504300000556504303/12/20210955     3300010237421964250000N01A0400003939010000000000000                                               MAYOPROFOL 200MG/20ML(1%) EMUL INY CAJ X 1VIAL X 20MLVAL     1
CC0000013887621H202100000556504300000556504303/12/20210954     3300010237421964250000N01A0400003939010000000000000                                               MAYOPROFOL 200MG/20ML(1%) EMUL INY CAJ X 1VIAL X 20MLVAL     7
CC0000013887621H202100000556504300000556504303/12/20210849     3300010237421964250000N5AD0500000217620000000000000                                                                         HALOPIDOL Sln Iny 5 mg/1 mlAMP     2
CC0000013887621H202100000556504300000556504303/12/20210848     3300010237421964250000N5AD0500000217620000000000000                                                                         HALOPIDOL Sln Iny 5 mg/1 mlAMP     1
CC0000013887621H202100000556504300000556504303/12/20210955     3300010237421964250000N05A0500001336370000000000000                                                                              SEROQUEL TAB 25 MG /R/TAB     3
CC0000013887621H202100000556504300000556504303/12/20211204     3300004237421964250000N1AH0200003906560000000000000                                                                     FENTANIL Iny 0.05 mg/ml x 10 mlAMP    10
