CC0001006193870H202100015012623600015012623603/12/20211956    3150053323742196425000038568700000256970000000000000                                                                                   SONDA NELATON #16SIN     2
CC0000080424776H202100015012623600015012623603/12/20211956    3150053323742196425000013077800000471960000000000000                                                             GASA NO TEJIDA EST 7.5 X 7.5 SOB X 3 UNSOB     5
CC0001006193870H202100015012623600015012623603/12/20211956    3150053323742196425000013077800000471960000000000000                                                             GASA NO TEJIDA EST 7.5 X 7.5 SOB X 3 UNSOB     5
CC0000022332856H202100015012623600015012623603/12/20211956    3150053323742196425000013077800000471960000000000000                                                             GASA NO TEJIDA EST 7.5 X 7.5 SOB X 3 UNSOB     5
CC0000080424776H202100015012623600015012623603/12/20211956    3150053323742196425000042753100003929850000000000000                   GASA ADHESIVA STRETCH REF 02037-00 ROL X 10MT FIXOMULL 10CM BN EXENTO-DC.417/2020CMT    50
CC0000022332856H202100015012623600015012623603/12/20211956    3150053323742196425000042753100003929850000000000000                   GASA ADHESIVA STRETCH REF 02037-00 ROL X 10MT FIXOMULL 10CM BN EXENTO-DC.417/2020CMT    50
