CC0000052863354H202100015052798600015052798603/12/20211936    3150050223742196425000011082700001620070000000000000                                                               EQUIPO SET PRIMARIO C/CLAVE REF 14001BOL     1
CC0001045685077H202100015052798600015052798603/12/20211936    3150050223742196425000011082700001620070000000000000                                                               EQUIPO SET PRIMARIO C/CLAVE REF 14001BOL     1
CC0001045695154H202100015052798600015052798603/12/20211936    3150050223742196425000011082700001620070000000000000                                                               EQUIPO SET PRIMARIO C/CLAVE REF 14001BOL     1
CC0001042453584H202100015052798600015052798603/12/20211936    3150050223742196425000001956000001620610000000000000                                                                      CONECTOR MICRO CLAVE LAT-MC100SOB     1
CC0001104008600H202100015052798600015052798603/12/20211936    3150050223742196425000001956000001620610000000000000                                                                      CONECTOR MICRO CLAVE LAT-MC100SOB     1
CC0001045695154H202100015052798600015052798603/12/20211936    3150050223742196425000001956000001620610000000000000                                                                      CONECTOR MICRO CLAVE LAT-MC100SOB     1
CC0001104008600H202100015052798600015052798603/12/20211936    31500502237421964250000Q1AA7300000610640000000000000                                                            CATETER PERIFE INTROCAN # 22G 4251628-04SIN     2
CC0000052863354H202100015052798600015052798603/12/20211936    3150050223742196425000030936900001431840000000000000                                                                                              BURETABOL     1
CC0001045685077H202100015052798600015052798603/12/20211936    3150050223742196425000030936900001431840000000000000                                                                                              BURETABOL     1
CC0001045695154H202100015052798600015052798603/12/20211936    3150050223742196425000030936900001431840000000000000                                                                                              BURETABOL     1
CC0001104008600H202100015052798600015052798603/12/20211936    31500502237421964250000E1AD0300000199490000000000000                                         LACTATO RINGER USP (HARTMANN)  SOL INY  BOL X 1000ML BAXTERBIN     1
CC0000009240037H202100015052798600015052798603/12/20211936    31500502237421964250000E1AB0300003888390000000000000                                                            SOLUCION SALINA 0.9% SLN INY BO X 500 MLBOL     1
CC0000003719048H202100015052798600015052798603/12/20211936    31500502237421964250000E1AB0300003888390000000000000                                                            SOLUCION SALINA 0.9% SLN INY BO X 500 MLBOL     1
CC0000052863354H202100015052798600015052798603/12/20211936    31500502237421964250000E1AB0300003888390000000000000                                                            SOLUCION SALINA 0.9% SLN INY BO X 500 MLBOL     1
CC0001042453584H202100015052798600015052798603/12/20211936    31500502237421964250000E1AB0300003888390000000000000                                                            SOLUCION SALINA 0.9% SLN INY BO X 500 MLBOL     1
CC0001042353509H202100015052798600015052798603/12/20211936    31500502237421964250000E1AB0300003888390000000000000                                                            SOLUCION SALINA 0.9% SLN INY BO X 500 MLBOL     1
CC0001045685077H202100015052798600015052798603/12/20211936    31500502237421964250000E1AB0300003888390000000000000                                                            SOLUCION SALINA 0.9% SLN INY BO X 500 MLBOL     1
CC0000019068414H202100015052798600015052798603/12/20211936    31500502237421964250000E1AB0300003888390000000000000                                                            SOLUCION SALINA 0.9% SLN INY BO X 500 MLBOL     1
CC0001045695154H202100015052798600015052798603/12/20211936    31500502237421964250000E1AB0300003888390000000000000                                                            SOLUCION SALINA 0.9% SLN INY BO X 500 MLBOL     1
