RC0001043709423U202100050131894700050131894703/12/20210023    3190199223942196432000024674000001138340000000000000   JERINGA 3PARTES C/A 10ML REF JEHL005 CAJ X 100 ALFASAFE  21GX1 PULG 1/2 PULG BN EXENTO-DC.417/202PZA     2
RC0001043709423U202100050131894700050131894703/12/20210023    3190199223942196432000011082700001620070000000000000                                                               EQUIPO SET PRIMARIO C/CLAVE REF 14001BOL     1
RC0001043709423U202100050131894700050131894703/12/20210023    3190199223942196432000030936900001431840000000000000                                                                                              BURETABOL     1
RC0001043709423U202100050131894700050131894703/12/20210023    31901992239421964320000E1AD0200003888320000000000000                                                                              HARTMAN SLN INY 500 MLBOL     1
