CC0000022362807H202100015052797500015052797503/12/20211042    3190099723742196425000082508500000968690000000000000                                                                 EQUIPO INFUSOMAT C/PUNZON 8250857SPBOL     1
RC0001146544136H202100015052797500015052797503/12/20211042    3190099723742196425000011082700001620070000000000000                                                               EQUIPO SET PRIMARIO C/CLAVE REF 14001BOL     1
CC0001140875648H202100015052797500015052797503/12/20211042    3190099723742196425000011082700001620070000000000000                                                               EQUIPO SET PRIMARIO C/CLAVE REF 14001BOL     1
CC0000022530541H202100015052797500015052797503/12/20211042    3190099723742196425000011082700001620070000000000000                                                               EQUIPO SET PRIMARIO C/CLAVE REF 14001BOL     1
CC0001140875648H202100015052797500015052797503/12/20211042    3190099723742196425000001956000001620610000000000000                                                                      CONECTOR MICRO CLAVE LAT-MC100SOB     1
CC0001140875648H202100015052797500015052797503/12/20211042    31900997237421964250000Q1AA7300000610640000000000000                                                            CATETER PERIFE INTROCAN # 22G 4251628-04SIN     1
RC0001146544136H202100015052797500015052797503/12/20211042    3190099723742196425000030936900001431840000000000000                                                                                              BURETABOL     1
CC0001140875648H202100015052797500015052797503/12/20211042    3190099723742196425000030936900001431840000000000000                                                                                              BURETABOL     1
CC0000022530541H202100015052797500015052797503/12/20211042    3190099723742196425000030936900001431840000000000000                                                                                              BURETABOL     1
CC0001140875648H202100015052797500015052797503/12/20211042    3190099723742196425000016830000000970620000000000000                                                             SIST FIJACION CAT PERIFERICO 6.5X7 1683SOB     1
CC0000022438763H202100015052797500015052797503/12/20211042    31900997237421964250000E1AD0200003888320000000000000                                                                              HARTMAN SLN INY 500 MLBOL     1
CC0000028496269H202100015052797500015052797503/12/20211042    31900997237421964250000E1AD0200003888320000000000000                                                                              HARTMAN SLN INY 500 MLBOL     1
CC0000022362807H202100015052797500015052797503/12/20211042    31900997237421964250000E1AD0200003888320000000000000                                                                              HARTMAN SLN INY 500 MLBOL     1
RC0001146544136H202100015052797500015052797503/12/20211042    31900997237421964250000E1AD0200003888320000000000000                                                                              HARTMAN SLN INY 500 MLBOL     1
CC0000008257979H202100015052797500015052797503/12/20211042    31900997237421964250000E1AB0300003888390000000000000                                                            SOLUCION SALINA 0.9% SLN INY BO X 500 MLBOL     1
CC0001140875648H202100015052797500015052797503/12/20211042    31900997237421964250000E1AB0300003888390000000000000                                                            SOLUCION SALINA 0.9% SLN INY BO X 500 MLBOL     1
CC0000022530541H202100015052797500015052797503/12/20211042    31900997237421964250000E1AB0300003888390000000000000                                                            SOLUCION SALINA 0.9% SLN INY BO X 500 MLBOL     1
RC0001187466818H202100015052797500015052797503/12/20211042    31900997237421964250000E1AC0100000199400000000000000                                                                          SUERO MIXTO Sln Iny 500 mlBIN     1
RC0001084457432H202100015052797500015052797503/12/20211042    31900997237421964250000E1AC0100000199400000000000000                                                                          SUERO MIXTO Sln Iny 500 mlBIN     1
