TI0001121302704H202100000556506400000556506403/12/20210937     3300004237421964250000A2BC0900000200150000000000000                                                                               ORAZOLE Sln Iny 40 mgCIN     1
TI0001121302704H202100000556506400000556506403/12/20211144     3300004237421964250000A4AD0200000202990000000000000                                                                     PLITICAN HCL Sln Iny 50 mg/2 mlAMP     2
TI0001121302704H202100000556506400000556506403/12/20211144     3300004237421964250000A07F0600001089820000000000000                                                                     FLORATIL POLVO SOBRE 250 MG /R/SOB     3
TI0001121302704H202100000556506400000556506403/12/20210047    31903060237421964250000E1AD0300000199490000000000000                                         LACTATO RINGER USP (HARTMANN)  SOL INY  BOL X 1000ML BAXTERBIN     2
TI0001121302704H202100000556506400000556506403/12/20210936     3300004237421964250000L01XX500001336660000000000000                                                                              HYDROXYUREA CAP 500 MGCAP     1
TI0001121302704H202100000556506400000556506403/12/20211808     3300003237421964250000N02B1100001464120000000000000                                           PARACETAMOL EP 1000MG/100ML(10MG/ML) SOL INY  CAJ X 10FCOVAL     1
TI0001121302704H202100000556506400000556506403/12/20210936     3300004237421964250000N02B1100001464120000000000000                                           PARACETAMOL EP 1000MG/100ML(10MG/ML) SOL INY  CAJ X 10FCOVAL     2
TI0001121302704H202100000556506400000556506403/12/20210937     3300004237421964250000V6DB0800001286840000000000000                                                                          PEDIASURE LIQUIDO X 237 MLFCO     2
TI0001121302704H202100000556506400000556506403/12/20211101    31903291237421964250000V07A1300000502600000000000000                                                                                AGUA ESTERIL x 10 mlAMP     5
