CC0000055304169H202100000025037000000025037003/12/20211543    3190301623742196425000024674000001138340000000000000   JERINGA 3PARTES C/A 10ML REF JEHL005 CAJ X 100 ALFASAFE  21GX1 PULG 1/2 PULG BN EXENTO-DC.417/202PZA     3
CC0000055304169H202100000025037000000025037003/12/20211543    3190301623742196425000024673600000222980000000000000                                                                     JERINGA DESECHABLE 5 ml 27*11/2SIN     1
CC0000055304169H202100000025037000000025037003/12/20211543    31903016237421964250000Q1AA3300001585140000000000000                                                                         APOSITO TEGADERM 10*12 1626SOB     2
