CC0000009105919H202100000556510600000556510603/12/20211830    31903152237421964250000E1AB0300003888390000000000000                                                            SOLUCION SALINA 0.9% SLN INY BO X 500 MLBOL     1
CC0000009105919H202100000556510600000556510603/12/20210531     3300009237421964250000J01DD500001239970000000000000                                                                  CEFTRIAXONA POLVO LIOF SLN INY 1 GVAL     3
CC0000009105919H202100000556510600000556510603/12/20210531     3300009237421964250000N2BB0100001672010000000000000                                  DIPIRONA 1GR/2ML(0.5GR/ML) SOL INY INST CAJ X 100AMP X 2ML VITALISAMP     4
CC0000009105919H202100000556510600000556510603/12/20211510    31903301237421964250000V07A1300000502600000000000000                                                                                AGUA ESTERIL x 10 mlAMP     4
