CC0000055243229U202100000556511700000556511703/12/20210556    31901806239421964320000E1AB0500003888400000000000000                                                              SOLUCION SALINA 0.9% SLN INY X 1000 MLBOL     1
CC0000055243229U202100000556511700000556511703/12/20211330    31500258239421964320000E1AD0300000199490000000000000                                         LACTATO RINGER USP (HARTMANN)  SOL INY  BOL X 1000ML BAXTERBIN     1
CC0000055243229U202100000556511700000556511703/12/20211101     3300010239421964320000N2BE2200001252930000000000000                                                                             ACETAMINOFEN Tab 500 MGTAB     2
