TI0001046717475H202100015012623200015012623203/12/20211532    31901177237421964250000E1AD0300000199490000000000000                                         LACTATO RINGER USP (HARTMANN)  SOL INY  BOL X 1000ML BAXTERBIN     2
CC0000022388537H202100015012623200015012623203/12/20211532    31901177237421964250000E1AD0200003888320000000000000                                                                              HARTMAN SLN INY 500 MLBOL     4
CC0000022388537H202100015012623200015012623203/12/20211532    31901177237421964250000E1AB0300003888390000000000000                                                            SOLUCION SALINA 0.9% SLN INY BO X 500 MLBOL     2
