CC0001042353509H202100000556514300000556514303/12/20211903     3300003237421964250000A4AD0200000202990000000000000                                                                     PLITICAN HCL Sln Iny 50 mg/2 mlAMP     1
CC0001042353509H202100000556514300000556514303/12/20210855     3300004237421964250000A4AD0200000202990000000000000                                                                     PLITICAN HCL Sln Iny 50 mg/2 mlAMP     1
CC0001042353509H202100000556514300000556514303/12/20212015    31500502237421964250000E1AB0300003888390000000000000                                                            SOLUCION SALINA 0.9% SLN INY BO X 500 MLBOL     1
CC0001042353509H202100000556514300000556514303/12/20211404    31902787237421964250000E1AB0300003888390000000000000                                                            SOLUCION SALINA 0.9% SLN INY BO X 500 MLBOL     1
CC0001042353509H202100000556514300000556514303/12/20210708    31902064237421964250000E1AB0400000301850000000000000                                                               SOLUCION SALINA 0.9% INY FCO X 500 MLFCO     2
CC0001042353509H202100000556514300000556514303/12/20211903     3300003237421964250000J01DA300001239950000000000000                                                            CEFAZOLINA SODICA POLVO LIOF SLN INY 1 GVAL     1
CC0001042353509H202100000556514300000556514303/12/20210855     3300004237421964250000J01DA300001239950000000000000                                                            CEFAZOLINA SODICA POLVO LIOF SLN INY 1 GVAL     4
CC0001042353509H202100000556514300000556514303/12/20210855     3300004237421964250000N2AX0400001204140000000000000                                                                             TRAMAL Sln Iny 50 mg/mlAMP     2
CC0001042353509H202100000556514300000556514303/12/20210855     3300004237421964250000N2BB0200000513030000000000000                                                                           LISALGIL Sln Iny 2 g/5 mlAMP     3
CC0001042353509H202100000556514300000556514303/12/20211904     3300003237421964250000N02B1100001464120000000000000                                           PARACETAMOL EP 1000MG/100ML(10MG/ML) SOL INY  CAJ X 10FCOVAL     1
CC0001042353509H202100000556514300000556514303/12/20210855     3300004237421964250000N02B1100001464120000000000000                                           PARACETAMOL EP 1000MG/100ML(10MG/ML) SOL INY  CAJ X 10FCOVAL     1
CC0001042353509H202100000556514300000556514303/12/20211508    31903301237421964250000V07A1300000502600000000000000                                                                                AGUA ESTERIL x 10 mlAMP     4
