RC0001043709423U202100000556502000000556502003/12/20210001    31901992239421964320000E1AB1100003888280000000000000                                                                        SOLUCION SALINA 0.9% X 50 mlBOL     1
RC0001043709423U202100000556502000000556502003/12/20210334    31901992239421964320000E1AD0200003888320000000000000                                                                              HARTMAN SLN INY 500 MLBOL     1
RC0001043709423U202100000556502000000556502003/12/20210038    31901992239421964320000E1AD0200003888320000000000000                                                                              HARTMAN SLN INY 500 MLBOL     1
RC0001043709423U202100000556502000000556502003/12/20210659     3300010239421964320000S2BA0200000468180000000000000                                                                   SOLU-MEDROL SLN INY 40 MG/ML  /R/VAL     1
RC0001043709423U202100000556502000000556502003/12/20210349     3300010239421964320000N2BE1100000836430000000000000                                             ACETAMINOFEN 150MG/5ML(3%) JBE INST FCO X 60ML AMER GENCAJ     1
RC0001043709423U202100000556502000000556502003/12/20210113     3300010239421964320000R03BA800001396350000000000000                                                             BECLOMETASONA DIPROP INH ORAL 50 MCG/DOFCO     1
RC0001043709423U202100000556502000000556502003/12/20210113     3300010239421964320000R03AC200003848990000000000000                                                              SALBUTAMOL INH 100 MCG/DO FCO X 200 DOFCO     1
