CC0000072277171H202100000556512200000556512203/12/20210913     3300004237421964250000A6AC0200001467010000000000000                                                             LACTULAX JARABE 66.7G/100ML SOX15ML /R/SOB     2
CC0000072277171H202100000556512200000556512203/12/20212150    31903062237421964250000E1AB0500003888400000000000000                                                              SOLUCION SALINA 0.9% SLN INY X 1000 MLBOL     2
CC0000072277171H202100000556512200000556512203/12/20210913     3300004237421964250000H02AB500001664950000000000000                                                            DEXAMETASONA SLN INY 8 MG/2 ML AMP /CDS/AMP     2
CC0000072277171H202100000556512200000556512203/12/20210913     3300004237421964250000N01B0200003888110000000000000                                           ROXICAINA SE 100MG/10ML(1%) SOL INY CAJ X 24AMPACK X 10MLAPC     1
CC0000072277171H202100000556512200000556512203/12/20210913     3300004237421964250000N06A1100001278050000000000000                                                                              CYMBALTA Cap 30 mg /R/CAP     1
CC0000072277171H202100000556512200000556512203/12/20211850     3300010237421964250000N02A3100001227160000000000000                                                                    OXYRAPID SLN INY 10 MG/ML X 1 MLAMP     1
CC0000072277171H202100000556512200000556512203/12/20211712     3300010237421964250000N02A3100001227160000000000000                                                                    OXYRAPID SLN INY 10 MG/ML X 1 MLAMP     4
CC0000072277171H202100000556512200000556512203/12/20211711     3300010237421964250000N02A3100001227160000000000000                                                                    OXYRAPID SLN INY 10 MG/ML X 1 MLAMP     7
CC0000072277171H202100000556512200000556512203/12/20211710     3300010237421964250000N02A3100001227160000000000000                                                                    OXYRAPID SLN INY 10 MG/ML X 1 MLAMP     1
CC0000072277171H202100000556512200000556512203/12/20211628     3300010237421964250000N02A3100001227160000000000000                                                                    OXYRAPID SLN INY 10 MG/ML X 1 MLAMP     1
CC0000072277171H202100000556512200000556512203/12/20210913     3300004237421964250000B01AB400000513360000000000000                                                                        CLENOX SLN INY 60 MG/ 0.6 MLJRP     2
CC0000072277171H202100000556512200000556512203/12/20210913     3300004237421964250000N03A2100001315050000000000000                                                                          GABAPENTINA CAP 300 MG /R/CAP     2
CC0000072277171H202100000556512200000556512203/12/20211628     3300010237421964250000N02A3200001270320000000000000                                                     OXICODONA 20MG TAB LIB PROL INST CAJ X 30 HUMAXTAB     2
CC0000072277171H202100000556512200000556512203/12/20210913     3300004237421964250000A02BC700001684270000000000000                                                            OMEPRAZOL 40MG POLVO LIOFILIZADO AMPOLLAVAL     1
CC0000072277171H202100000556512200000556512203/12/20211249    31903313237421964250000V07A1300000502600000000000000                                                                                AGUA ESTERIL x 10 mlAMP     8
