CC0000072297175A202100000027822200000027822203/12/20210813    3190333624042196419000027298000003914660000000000000  CATETER ANESTESIA EPIDURAL REF 4513150 CAJ X 25 PERIFIX B BRAUN 18G X 1000MM BN EXENTO-DC.417/2020SOB     1
CC0000072297175A202100000027822200000027822203/12/20210813    31903336240421964190000N01B1300001195250000000000000                                                                         BUPIROP 0.5% S/EPIN X 10 MLAMP     1
CC0000072297175A202100000027822200000027822203/12/20210813    31903336240421964190000N1BA2400001687720000000000000                                                    LIDOCAINA 2% SOL INY  CAJ X 50AMP X 10ML CORPAULAMP     2
CC0000072297175A202100000027822200000027822203/12/20210813    31903336240421964190000N5CD0300000218170000000000000                                                              DORMICUM IV-IM 5MG/5ML(1MG/ML) SOL INYAMP     1
CC0000072297175A202100000027822200000027822203/12/20210813    3190333624042196419000022425200000548240000000000000                       EXTENSION DE ANESTESIA REF 1139 SOB X 1 SHERLEG  ADULTO BN EXENTO-DC.417/2020SIN     1
CC0000072297175A202100000027822200000027822203/12/20210813    3190333624042196419000035356500003919000000000000000                                                                                        LLAVE 3 VIASSOB     1
CC0000072297175A202100000027822200000027822203/12/20210813    31903336240421964190000Q1AA7100000610620000000000000                                                            CATETER PERIFE INTROCAN # 18G 4251687-04SIN     1
CC0000072297175A202100000027822200000027822203/12/20210813    3190333624042196419000022426800001140510000000000000                                                                    EQUIPO MACROGOTEO BAXTER MRC0001SOB     1
CC0000072297175A202100000027822200000027822203/12/20210813    3190333624042196419000016830000000970620000000000000                                                             SIST FIJACION CAT PERIFERICO 6.5X7 1683SOB     1
CC0000072297175A202100000027822200000027822203/12/20210813    3190333624042196419000020059600000225150000000000000                                                              AGUJA RAQ SPINOC 22*3 1/2 LARG 4507908SIN     1
CC0000072297175A202100000027822200000027822203/12/20210813    3190333624042196419000020058400001101660000000000000                                                                           AGUJA DESECHABLE # 25 X 1SOB     1
CC0000072297175A202100000027822200000027822203/12/20210813    3190333624042196419000038568100000258050000000000000                                                                         CANULA OXIGENO NASAL ADULTOSIN     1
CC0000072297175A202100000027822200000027822203/12/20210813    3190333624042196419000053074400000607910000000000000                                                               GASA ESTERIL 10*10 SOBRE X 3 UNIDADESSOB     5
CC0000072297175A202100000027822200000027822203/12/20210813    3190333624042196419000011085200001585390000000000000                                                                       GUANTE QUIRURGICO TALLA 7 1/2SOB     2
CC0000072297175A202100000027822200000027822203/12/20210813    3190333624042196419000011085100001082120000000000000                                                                           GUANTE QUIRURGICO TALLA 7SOB     2
CC0000072297175A202100000027822200000027822203/12/20210813    3190333624042196419000024673600000222980000000000000                                                                     JERINGA DESECHABLE 5 ml 27*11/2SIN     1
CC0000072297175A202100000027822200000027822203/12/20210813    3190333624042196419000024674000001138340000000000000   JERINGA 3PARTES C/A 10ML REF JEHL005 CAJ X 100 ALFASAFE  21GX1 PULG 1/2 PULG BN EXENTO-DC.417/202PZA     4
CC0000072297175A202100000027822200000027822203/12/20210813    31903336240421964190000E1AD0200003888320000000000000                                                                              HARTMAN SLN INY 500 MLBOL     1
CC0000072297175A202100000027822200000027822203/12/20210813    31903336240421964190000E1AB0300003888390000000000000                                                            SOLUCION SALINA 0.9% SLN INY BO X 500 MLBOL     2
CC0000072297175A202100000027822200000027822203/12/20210813    31903336240421964190000N01A0400003939010000000000000                                               MAYOPROFOL 200MG/20ML(1%) EMUL INY CAJ X 1VIAL X 20MLVAL     1
CC0000072297175A202100000027822200000027822203/12/20210813    31903336240421964190000S2BA1200000467480000000000000                                                             DEPO MEDROL SUSP INY 40mg/ml X 1 ML /R/CIN     5
CC0000072297175A202100000027822200000027822203/12/20210813    31903336240421964190000N1AH0200003906560000000000000                                                                     FENTANIL Iny 0.05 mg/ml x 10 mlAMP     2
