CC0000029051090H202100000556506200000556506203/12/20210934     3300004237421964250000C3CA0100001278130000000000000                                                                                     LASIX TAB 40 MGTAB     2
CC0000029051090H202100000556506200000556506203/12/20210933     3300004237421964250000C09CA400001277130000000000000                                                                                  LOSARTAN TAB 50 MGTAB     2
CC0000029051090H202100000556506200000556506203/12/20210933     3300004237421964250000H03AA400001315380000000000000                                                                               SYNTHROID TAB 100 MCGTAB     1
CC0000029051090H202100000556506200000556506203/12/20210934     3300004237421964250000N02B1100001464120000000000000                                           PARACETAMOL EP 1000MG/100ML(10MG/ML) SOL INY  CAJ X 10FCOVAL     4
CC0000029051090H202100000556506200000556506203/12/20211022    31500478237421964250000V07A1300000502600000000000000                                                                                AGUA ESTERIL x 10 mlAMP     5
