CC0000008540400U202100000556540000000556540003/12/20212332    31500394239421964320000E1AD0200003888320000000000000                                                                              HARTMAN SLN INY 500 MLBOL     1
CC0000008540400U202100000556540000000556540003/12/20211916    31500258239421964320000E1AD0300000199490000000000000                                         LACTATO RINGER USP (HARTMANN)  SOL INY  BOL X 1000ML BAXTERBIN     1
CC0000008540400U202100000556540000000556540003/12/20211841     3300010239421964320000A03DH100001684240000000000000                                                            B HIOSCINA 20MG/DIPIRON 2.5G SLN INY 5MLAMP     1
CC0000008540400U202100000556540000000556540003/12/20212235     3300004239421964320000N2AX0900001672040000000000000                                                                              TRAMADOL SLN INY 50 MGAMP     1
