RC0001048088053H202100000556536200000556536203/12/20211618     3300003237421964250000D06AX200000207300000000000000                                                                   FUCIDIN UNGUENTO 2% TU X 15 G /R/TUB     1
RC0001048088053H202100000556536200000556536203/12/20211618     3300003237421964250000J01FF200003888100000000000000                                                                             EUROCLIN SLN INY 600 MGAMP     1
RC0001048088053H202100000556536200000556536203/12/20211618     3300003237421964250000N2BE1100000836430000000000000                                             ACETAMINOFEN 150MG/5ML(3%) JBE INST FCO X 60ML AMER GENCAJ     1
