PE0082549771210H202100015112733800015112733803/12/20211325    3190294023742196425000000102400001411250000000000000                                                                           JERINGA DESECHABLE X 50MLSOB     1
CC0001143115732H202100015112733800015112733803/12/20211325    3190294023742196425000001956000001620610000000000000                                                                      CONECTOR MICRO CLAVE LAT-MC100SOB     1
CC0001143115732H202100015112733800015112733803/12/20211325    31902940237421964250000Q1AA7100000610620000000000000                                                            CATETER PERIFE INTROCAN # 18G 4251687-04SIN     1
CC0001143115732H202100015112733800015112733803/12/20211325    31902940237421964250000Q1AA7200000610630000000000000                                                            CATETER PERIFE INTROCAN # 20G 4251644-04SIN     1
CC0001143115732H202100015112733800015112733803/12/20211325    3190294023742196425000016830000000970620000000000000                                                             SIST FIJACION CAT PERIFERICO 6.5X7 1683SOB     1
PE0082549771210H202100015112733800015112733803/12/20211325    31902940237421964250000E1AB0500003888400000000000000                                                              SOLUCION SALINA 0.9% SLN INY X 1000 MLBOL     4
