CC0001143115935H202100000556522100000556522103/12/20210957    31900999237421964250000A03BB100003889180000000000000                                      HIOSCINA BUTIL BROMURO 20MG/ML SOL INY CAJ X 100AMP X 1ML RYANAMP     1
CC0001143115935H202100000556522100000556522103/12/20211854    31900999237421964250000N2BE2200001252930000000000000                                                                             ACETAMINOFEN Tab 500 MGTAB     4
CC0001143115935H202100000556522100000556522103/12/20210957    31900999237421964250000N2BE2200001252930000000000000                                                                             ACETAMINOFEN Tab 500 MGTAB     4
