CC0001007977830H202100000556532000000556532003/12/20211334     3300003237421964250000A2BC0900000200150000000000000                                                                               ORAZOLE Sln Iny 40 mgCIN     3
CC0001007977830H202100000556532000000556532003/12/20211334     3300003237421964250000A4AD0200000202990000000000000                                                                     PLITICAN HCL Sln Iny 50 mg/2 mlAMP     4
CC0001007977830H202100000556532000000556532003/12/20211334     3300003237421964250000A3BB0200000512940000000000000                                                                          BUSCAPINA SIMPLE Iny 20 mgAMP     8
CC0001007977830H202100000556532000000556532003/12/20211334     3300003237421964250000B1AB0300003939210000000000000                 ENOXAPARINA SODICA 20MG/0.2ML(100MG/ML) SOL INY INST CAJ X 2JERPREL X 0.2ML TECHDOWJRP     2
CC0001007977830H202100000556532000000556532003/12/20212143    31903271237421964250000E1AA0100003888590000000000000                                                                        DEXTROSA 5% Sln Iny X 500 mlBOL     1
CC0001007977830H202100000556532000000556532003/12/20211436    31500347237421964250000E1AA0100003888590000000000000                                                                        DEXTROSA 5% Sln Iny X 500 mlBOL     1
CC0001007977830H202100000556532000000556532003/12/20212143    31903271237421964250000E1AB0500003888400000000000000                                                              SOLUCION SALINA 0.9% SLN INY X 1000 MLBOL     2
CC0001007977830H202100000556532000000556532003/12/20211334     3300003237421964250000N2AX0500001204110000000000000                                                                          TRAMAL SLN INY 100 MG / MLAMP     2
