RC0001046739436U202100906044120300906044120303/12/20210122    3190098223942196432000011082700001620070000000000000                                                               EQUIPO SET PRIMARIO C/CLAVE REF 14001BOL     1
RC0001046739436U202100906044120300906044120303/12/20210122    3190098223942196432000024673600000222980000000000000                                                                     JERINGA DESECHABLE 5 ml 27*11/2SIN     2
RC0001046739436U202100906044120300906044120303/12/20210122    3190098223942196432000030936900001431840000000000000                                                                                              BURETABOL     1
RC0001046739436U202100906044120300906044120303/12/20210122    3190098223942196432000042743200003929860000000000000                   GASA ADHESIVA STRETCH REF 02038-00 ROL X 10MT FIXOMULL 15CM BN EXENTO-DC.417/2020CMT    20
RC0001046739436U202100906044120300906044120303/12/20210122    31900982239421964320000Q1AA7400003911720000000000000                                                            CATETER PERIFE INTROCAN # 24G 4251601-04SOB     1
RC0001046739436U202100906044120300906044120303/12/20210122    31900982239421964320000E1AD0200003888320000000000000                                                                              HARTMAN SLN INY 500 MLBOL     1
RC0001046739436U202100906044120300906044120303/12/20210301    3190098223942196432000011085100001082120000000000000                                                                           GUANTE QUIRURGICO TALLA 7SOB     1
RC0001046739436U202100906044120300906044120303/12/20210301    3190098223942196432000013077800000471960000000000000                                                             GASA NO TEJIDA EST 7.5 X 7.5 SOB X 3 UNSOB     3
RC0001046739436U202100906044120300906044120303/12/20210301    3190098223942196432000038568200000257000000000000000                                                                                   SONDA NELATON #06SIN     1
