CC0000019490174H202100000556504200000556504203/12/20210841     3300010237421964250000A7DA1400000203670000000000000                                                                          SMECTA POLVO SOBRE 3 G /R/SIN     2
CC0000019490174H202100000556504200000556504203/12/20210842     3300010237421964250000C3DA0500001278910000000000000                                                                               GLUCOPHAGE TAB 850 MGTAB     1
CC0000019490174H202100000556504200000556504203/12/20210401     3300009237421964250000C3DA0500001278910000000000000                                                                               GLUCOPHAGE TAB 850 MGTAB     1
CC0000019490174H202100000556504200000556504203/12/20212052     3300009237421964250000A10A1800000725300000000000000                                                             LANTUS SOLOSTAR JER 100 UI/ML X 3 ML /RCAJ     1
CC0000019490174H202100000556504200000556504203/12/20210401     3300009237421964250000B1AB0200003939510000000000000                 ENOXAPARINA SODICA 40MG/0.4ML(100MG/ML) SOL INY INST CAJ X 2JERPREL X 0.4ML TECHDOWJRP     1
CC0000019490174H202100000556504200000556504203/12/20211502    31900995237421964250000E1AB0200000199290000000000000                                                            SOLUCION SALINA 0.9% SLN INY BO X 100 MLBIN     1
CC0000019490174H202100000556504200000556504203/12/20211429    31900999237421964250000E1AD0300000199490000000000000                                         LACTATO RINGER USP (HARTMANN)  SOL INY  BOL X 1000ML BAXTERBIN     1
CC0000019490174H202100000556504200000556504203/12/20210401     3300009237421964250000C7FA0200001277980000000000000                                                                                    NORVAS TAB 10 MGTAB     1
CC0000019490174H202100000556504200000556504203/12/20210842     3300010237421964250000C2EA0400001278030000000000000                                                                                   RENITEC TAB 20 MGTAB     1
CC0000019490174H202100000556504200000556504203/12/20211556     3300003237421964250000J01D1300001469600000000000000                                                                               POZINEG POLVO INY 1 GVAL     8
CC0000019490174H202100000556504200000556504203/12/20210842     3300010237421964250000N3AB1000001379310000000000000                                                                            NEURONTIN Cap 400 mg /R/CAP     1
CC0000019490174H202100000556504200000556504203/12/20210841     3300010237421964250000A02BC700001684270000000000000                                                            OMEPRAZOL 40MG POLVO LIOFILIZADO AMPOLLAVAL     1
