CC0001066890191H202100015112734000015112734003/12/20211455    3190310223742196425000030161400001459220000000000000                                                                       MANGUERA SUCCION 6 MM*3.1 MTSSOB     2
CC0001066890191H202100015112734000015112734003/12/20211455    3190310223742196425000011077500001287420000000000000                                                            CIRCUITO RESP VENTST 5703041 OXYLOG 3000BOL     1
CC0001066890191H202100015112734000015112734003/12/20211455    3190310223742196425000020816000001096410000000000000                                                                          LINER PARED DELGADA 1500CCBOL     1
CC0000008530442H202100015112734000015112734003/12/20211455    31903102237421964250000E1BA0100000198890000000000000                                                                   AGUA ESTERIL USP SLN INY X 500 MLBIN     2
