CC0000007455546U202100050131900100050131900103/12/20211149    3190233123942196432000001956000001620610000000000000                                                                      CONECTOR MICRO CLAVE LAT-MC100SOB     1
CC0000007455546U202100050131900100050131900103/12/20211149    31902331239421964320000Q1AA7200000610630000000000000                                                            CATETER PERIFE INTROCAN # 20G 4251644-04SIN     1
CC0000007455546U202100050131900100050131900103/12/20211149    3190233123942196432000016830000000970620000000000000                                                             SIST FIJACION CAT PERIFERICO 6.5X7 1683SOB     1
