CC0000042208823H202100000556512100000556512103/12/20210622    31500170237421964250000C09CA400001277130000000000000                                                                                  LOSARTAN TAB 50 MGTAB     8
CC0000042208823H202100000556512100000556512103/12/20210623    31500170237421964250000M01A2000001664970000000000000                                                               DICLOFENACO SODICO SLN INY 75 MG/3 MLAMP     2
CC0000042208823H202100000556512100000556512103/12/20210622    31500170237421964250000N2BB0100001672010000000000000                                  DIPIRONA 1GR/2ML(0.5GR/ML) SOL INY INST CAJ X 100AMP X 2ML VITALISAMP    10
