CC0000032245459U202100000556508300000556508303/12/20210328    31902010239421964320000E1AB0500003888400000000000000                                                              SOLUCION SALINA 0.9% SLN INY X 1000 MLBOL     1
CC0000032245459U202100000556508300000556508303/12/20211141     3300010239421964320000N2AA0400003888080000000000000                                                                     DEMEROL HCL Sln Iny 100 mg/2 mlAMP     1
CC0000032245459U202100000556508300000556508303/12/20210516     3300010239421964320000N2AA0100000301640000000000000                                                                            MORFINA Sln Iny 10 mg/mlAMP     1
CC0000032245459U202100000556508300000556508303/12/20210256     3300010239421964320000A03F0500001692520000000000000                                                                   ALIZAPRIDA HCL SLN INY 50 MG/2 MLAMP     1
CC0000032245459U202100000556508300000556508303/12/20211141     3300010239421964320000A03BB100003889180000000000000                                      HIOSCINA BUTIL BROMURO 20MG/ML SOL INY CAJ X 100AMP X 1ML RYANAMP     1
CC0000032245459U202100000556508300000556508303/12/20210257     3300010239421964320000A03BB100003889180000000000000                                      HIOSCINA BUTIL BROMURO 20MG/ML SOL INY CAJ X 100AMP X 1ML RYANAMP     1
CC0000032245459U202100000556508300000556508303/12/20211800     3300010239421964320000N2AX0900001672040000000000000                                                                              TRAMADOL SLN INY 50 MGAMP     1
CC0000032245459U202100000556508300000556508303/12/20210256     3300010239421964320000N2AX0900001672040000000000000                                                                              TRAMADOL SLN INY 50 MGAMP     1
