CC0001129577696H202100000556507800000556507803/12/20210923     3300004237421964250000A04A0600001277030000000000000                                                                                      ONDAX TAB 8 MGTAB     1
CC0001129577696H202100000556507800000556507803/12/20210148     3300009237421964250000A04A0600001277030000000000000                                                                                      ONDAX TAB 8 MGTAB     4
CC0001129577696H202100000556507800000556507803/12/20210924     3300004237421964250000B1AB0200003939510000000000000                 ENOXAPARINA SODICA 40MG/0.4ML(100MG/ML) SOL INY INST CAJ X 2JERPREL X 0.4ML TECHDOWJRP     1
CC0001129577696H202100000556507800000556507803/12/20210942    31902056237421964250000E1AA0800000322190000000000000                                                                          DEXTROSA 5% Sln Iny 250 mlBIN     1
CC0001129577696H202100000556507800000556507803/12/20210942    31902056237421964250000E1AB0700003888350000000000000                                                            SOLUCION SALINA 0.9% SLN INY BO X 250 MLBOL     2
CC0001129577696H202100000556507800000556507803/12/20212150    31903062237421964250000E1AB0500003888400000000000000                                                              SOLUCION SALINA 0.9% SLN INY X 1000 MLBOL     2
CC0001129577696H202100000556507800000556507803/12/20212226     3300009237421964250000N1BA1900000554750000000000000                                                                     ROXICAINA JALEA 2% TUBO X 30 MLTUB     1
CC0001129577696H202100000556507800000556507803/12/20210924     3300004237421964250000A02B0800001276960000000000000                                                                                 OMEPRAZOL CAP 20 MGCAP     1
CC0001129577696H202100000556507800000556507803/12/20210923     3300004237421964250000J1KF0500001317760000000000000                                                                      MEROPENEM POLVO INY 500 MG /R/CAJ     1
CC0001129577696H202100000556507800000556507803/12/20210924     3300004237421964250000N2BE2200001252930000000000000                                                                             ACETAMINOFEN Tab 500 MGTAB     8
CC0001129577696H202100000556507800000556507803/12/20210924     3300004237421964250000N2AX0900001672040000000000000                                                                              TRAMADOL SLN INY 50 MGAMP     2
CC0001129577696H202100000556507800000556507803/12/20211251    31903313237421964250000V07A1300000502600000000000000                                                                                AGUA ESTERIL x 10 mlAMP     8
