CC0001118828488U202100050131902800050131902803/12/20211459    3150065823942196432000012474000000232230000000000000                                                                SUTURA ETHILON 4-0 SC-20 45CM 14502TSIN     1
CC0001118828488U202100050131902800050131902803/12/20211459    3150065823942196432000012475800000232220000000000000                                                                SUTURA ETHILON 4-0 PS-2  45CM P1667TSIN     2
CC0001118828488U202100050131902800050131902803/12/20211459    3150065823942196432000011047900000223010000000000000                                                                            JERINGA X 1ML REF 302579SIN     1
CC0001118828488U202100050131902800050131902803/12/20211459    3150065823942196432000043485100001618510000000000000                GUANTE QUIRURGICO DE LATEX REF 2D72N65X CAJ X 50 PROTEXIS  6.5 BN EXENTO-DC.417/2020SOB     1
CC0001118828488U202100050131902800050131902803/12/20211459    3150065823942196432000013077800000471960000000000000                                                             GASA NO TEJIDA EST 7.5 X 7.5 SOB X 3 UNSOB     5
CC0001118828488U202100050131902800050131902803/12/20211459    31500658239421964320000E1AB0200000199290000000000000                                                            SOLUCION SALINA 0.9% SLN INY BO X 100 MLBIN     1
