CC0000003724288H202100000556505000000556505003/12/20210930    31901634237421964250000E1AD0300000199490000000000000                                         LACTATO RINGER USP (HARTMANN)  SOL INY  BOL X 1000ML BAXTERBIN     2
CC0000003724288H202100000556505000000556505003/12/20211506     3300003237421964250000J01DA300001239950000000000000                                                            CEFAZOLINA SODICA POLVO LIOF SLN INY 1 GVAL     1
CC0000003724288H202100000556505000000556505003/12/20210832     3300004237421964250000J01DA300001239950000000000000                                                            CEFAZOLINA SODICA POLVO LIOF SLN INY 1 GVAL     1
CC0000003724288H202100000556505000000556505003/12/20210033     3300009237421964250000J01DA300001239950000000000000                                                            CEFAZOLINA SODICA POLVO LIOF SLN INY 1 GVAL     1
CC0000003724288H202100000556505000000556505003/12/20210832     3300004237421964250000N1BA1900000554750000000000000                                                                     ROXICAINA JALEA 2% TUBO X 30 MLTUB     1
CC0000003724288H202100000556505000000556505003/12/20210832     3300004237421964250000N2BB0200000513030000000000000                                                                           LISALGIL Sln Iny 2 g/5 mlAMP     1
CC0000003724288H202100000556505000000556505003/12/20210033     3300009237421964250000N2BB0200000513030000000000000                                                                           LISALGIL Sln Iny 2 g/5 mlAMP     1
CC0000003724288H202100000556505000000556505003/12/20211938     3300009237421964250000A06A1700001333140000000000000                                                                                 BISACODILO TAB 5 MGTAB     1
CC0000003724288H202100000556505000000556505003/12/20210832     3300004237421964250000A03BB100003889180000000000000                                      HIOSCINA BUTIL BROMURO 20MG/ML SOL INY CAJ X 100AMP X 1ML RYANAMP     1
CC0000003724288H202100000556505000000556505003/12/20211512     3300003237421964250000N05BA100001303610000000000000                                                                                  LORAZEPAM TAB 2 MGTAB     1
