CC0000008783581H202100000556518000000556518003/12/20210934     3300010237421964250000A10A1900000601020000000000000                                                                   APIDRA CARTU 100 UI/ML X 3 ML /R/CAR     1
CC0000008783581H202100000556518000000556518003/12/20212318    31903259237421964250000E1AD0300000199490000000000000                                         LACTATO RINGER USP (HARTMANN)  SOL INY  BOL X 1000ML BAXTERBIN     2
CC0000008783581H202100000556518000000556518003/12/20211715    31500052237421964250000E1AD0300000199490000000000000                                         LACTATO RINGER USP (HARTMANN)  SOL INY  BOL X 1000ML BAXTERBIN     1
CC0000008783581H202100000556518000000556518003/12/20210854    31902949237421964250000E1AD0300000199490000000000000                                         LACTATO RINGER USP (HARTMANN)  SOL INY  BOL X 1000ML BAXTERBIN     1
CC0000008783581H202100000556518000000556518003/12/20211054     3300004237421964250000C7FA0100001277270000000000000                                                                                     NORVAS TAB 5 MGTAB     2
CC0000008783581H202100000556518000000556518003/12/20210934     3300010237421964250000C09CA400001277130000000000000                                                                                  LOSARTAN TAB 50 MGTAB     2
CC0000008783581H202100000556518000000556518003/12/20210934     3300010237421964250000C10AA400001301110000000000000                                                                                   LIPITOR TAB 40 MGTAB     1
CC0000008783581H202100000556518000000556518003/12/20211524     3300003237421964250000N2BE0100001276930000000000000                                                                                    DOLEX TAB 500 MGTAB     2
CC0000008783581H202100000556518000000556518003/12/20210934     3300010237421964250000N2BE0100001276930000000000000                                                                                    DOLEX TAB 500 MGTAB     4
CC0000008783581H202100000556518000000556518003/12/20211036    31903310237421964250000V07A1300000502600000000000000                                                                                AGUA ESTERIL x 10 mlAMP     8
