CC0001143115935H202100015112732400015112732403/12/20210623    31500387237421964250000V07A1300000502600000000000000                                                                                AGUA ESTERIL x 10 mlAMP     5
CC0001143115935H202100015112732400015112732403/12/20210623    3150038723742196425000024674000001138340000000000000   JERINGA 3PARTES C/A 10ML REF JEHL005 CAJ X 100 ALFASAFE  21GX1 PULG 1/2 PULG BN EXENTO-DC.417/202PZA     8
CC0001143115935H202100015112732400015112732403/12/20210623    3150038723742196425000011089300001083990000000000000                                                              GUANTE ESTERIL LATEX S/POLVO TALLA 7.5SOB     2
CC0001143115935H202100015112732400015112732403/12/20210623    3150038723742196425000013077800000471960000000000000                                                             GASA NO TEJIDA EST 7.5 X 7.5 SOB X 3 UNSOB     8
CC0001143115935H202100015112732400015112732403/12/20210623    3150038723742196425000022426900000236750000000000000                                                                EQUIPO MACROGOTEO CON AGUJA (MRC001)SOB     1
CC0001143115935H202100015112732400015112732403/12/20210623    3150038723742196425000011082700001620070000000000000                                                               EQUIPO SET PRIMARIO C/CLAVE REF 14001BOL     1
CC0001143115935H202100015112732400015112732403/12/20210623    3150038723742196425000001956000001620610000000000000                                                                      CONECTOR MICRO CLAVE LAT-MC100SOB     3
CC0001143115935H202100015112732400015112732403/12/20210623    3150038723742196425000000301900000227730000000000000                                                               CATETER TRILUMEN AD CS14703E 7FR*30CMSIN     1
CC0001143115935H202100015112732400015112732403/12/20210623    3150038723742196425000030936900001431840000000000000                                                                                              BURETABOL     1
CC0001143115935H202100015112732400015112732403/12/20210623    3150038723742196425000000602700001197200000000000000                                                              APOSITO TRANSP  1655 IV 8.5CM X 11.5CMSOB     1
