CC0000032776593A202100000027819000000027819003/12/20210838    3190333624042196419000012472400000232190000000000000                                                                 SUTURA ETHILON 2-0 SC-26 45CM  164TSIN     2
CC0000032776593A202100000027819000000027819003/12/20210838    3190333624042196419000019487500000602970000000000000                                                                           VICRYL 2-0 CT1 90 VCP345HSIN     2
CC0000032776593A202100000027819000000027819003/12/20210838    31903336240421964190000B02AA100001407470000000000000                                                                    CLINTRANEX SLN INY 500 MG / 5 MLAMP     2
CC0000032776593A202100000027819000000027819003/12/20210838    3190333624042196419000039176200000325450000000000000                                                             TUBO ENDOTRAQ 7.5 C/B Y ESPIRAL INTERNOSIN     1
CC0000032776593A202100000027819000000027819003/12/20210838    31903336240421964190000C01CA200001573670000000000000                                                               ETILEFRINA HCL SLN INY 10 MG/1 ML /R/AMP     1
CC0000032776593A202100000027819000000027819003/12/20210838    31903336240421964190000N01A0500003844190000000000000                                                                          REMIFENTANILO SLN INY 2 MGVAL     1
CC0000032776593A202100000027819000000027819003/12/20210838    3190333624042196419000000602100000258610000000000000                                                                 APOSITO OPSITE REF 4986 15CM X 28CMSIN     1
CC0000032776593A202100000027819000000027819003/12/20210838    31903336240421964190000Q1AA7000001097160000000000000                                                            CATETER PERIFE INTROCAN # 16G 4251709-04SOB     2
CC0000032776593A202100000027819000000027819003/12/20210838    3190333624042196419000018351100000232850000000000000                                                                                 SEDA 2-0 SC-26 185TSIN     1
CC0000032776593A202100000027819000000027819003/12/20210838    3190333624042196419000019487800001585180000000000000                                                                    VICRYL 1 PLUS 70 CM CT-1 VCP341HSOB     2
CC0000032776593A202100000027819000000027819003/12/20210838    3190333624042196419000011078800000517750000000000000                                                             COTONOIDE REF 801401 DE 1.91CM X 1.91CMSIN     1
CC0000032776593A202100000027819000000027819003/12/20210838    3190333624042196419000045138000001413890000000000000                                                                       LAPIZ ELECTROBISTURI  SOB X 1SOB     1
CC0000032776593A202100000027819000000027819003/12/20210838    3190333624042196419000000016100000314040000000000000                                                                ESPONJA HEMOSTATICA  GELFOAM ESPONJABOL     1
CC0000032776593A202100000027819000000027819003/12/20210838    3190333624042196419000011110600000231980000000000000                                                                       CERA HUESOS 25GM ESTERIL W31GSIN     1
CC0000032776593A202100000027819000000027819003/12/20210838    3190333624042196419000030161400001459220000000000000                                                                       MANGUERA SUCCION 6 MM*3.1 MTSSOB     1
CC0000032776593A202100000027819000000027819003/12/20210838    3190333624042196419000000102300000222960000000000000                                                                 JERINGA DESECHABLE SIN AGUJA X 20mLSIN     2
CC0000032776593A202100000027819000000027819003/12/20210838    3190333624042196419000043879500001138210000000000000                                                                                    HOJA BISTURI #20SOB     1
CC0000032776593A202100000027819000000027819003/12/20210838    3190333624042196419000043879100001138200000000000000                                                                  HOJA BISTURI # 15 CSSB 15 01002003SOB     1
CC0000032776593A202100000027819000000027819003/12/20210838    3190333624042196419000022425200000548240000000000000                       EXTENSION DE ANESTESIA REF 1139 SOB X 1 SHERLEG  ADULTO BN EXENTO-DC.417/2020SIN     1
CC0000032776593A202100000027819000000027819003/12/20210838    3190333624042196419000035356500003919000000000000000                                                                                        LLAVE 3 VIASSOB     2
CC0000032776593A202100000027819000000027819003/12/20210838    31903336240421964190000Q1AA7100000610620000000000000                                                            CATETER PERIFE INTROCAN # 18G 4251687-04SIN     2
CC0000032776593A202100000027819000000027819003/12/20210838    3190333624042196419000022426800001140510000000000000                                                                    EQUIPO MACROGOTEO BAXTER MRC0001SOB     1
CC0000032776593A202100000027819000000027819003/12/20210838    31903336240421964190000J01DA300001239950000000000000                                                            CEFAZOLINA SODICA POLVO LIOF SLN INY 1 GVAL     2
CC0000032776593A202100000027819000000027819003/12/20210838    3190333624042196419000011073300001096420000000000000                                                                BOLSA DE SUCCION DE FLUIDOS x 2500mLBOL     1
CC0000032776593A202100000027819000000027819003/12/20210838    3190333624042196419000020750600000296780000000000000                                                                PLACA ELECTRO RETORNO PACIENTE E7506SIN     1
CC0000032776593A202100000027819000000027819003/12/20210838    3190333624042196419000053074400000607910000000000000                                                               GASA ESTERIL 10*10 SOBRE X 3 UNIDADESSOB     5
CC0000032776593A202100000027819000000027819003/12/20210838    3190333624042196419000024673000001411210000000000000                                                                  JERINGA DESECHABLE 3 ML 21 X 1 1/2SOB     1
CC0000032776593A202100000027819000000027819003/12/20210838    3190333624042196419000024674000001138340000000000000   JERINGA 3PARTES C/A 10ML REF JEHL005 CAJ X 100 ALFASAFE  21GX1 PULG 1/2 PULG BN EXENTO-DC.417/202PZA     2
CC0000032776593A202100000027819000000027819003/12/20210838    3190333624042196419000024674500000322810000000000000                                                                   JERINGA DESECHABLE 20 ml 21*1 1/2SIN     1
CC0000032776593A202100000027819000000027819003/12/20210838    3190333624042196419000051515400000598150000000000000                                                                            MASCARILLA ANESTESIA # 4SIN     1
CC0000032776593A202100000027819000000027819003/12/20210838    3190333624042196419000038568100000258050000000000000                                                                         CANULA OXIGENO NASAL ADULTOSIN     1
CC0000032776593A202100000027819000000027819003/12/20210838    3190333624042196419000011085400001083360000000000000                                                                       GUANTE QUIRURGICO TALLA 8 1/2SOB     1
CC0000032776593A202100000027819000000027819003/12/20210838    3190333624042196419000011085300001082140000000000000                                                                           GUANTE QUIRURGICO TALLA 8SOB     2
CC0000032776593A202100000027819000000027819003/12/20210838    3190333624042196419000011085200001585390000000000000                                                                       GUANTE QUIRURGICO TALLA 7 1/2SOB     2
CC0000032776593A202100000027819000000027819003/12/20210838    3190333624042196419000011085100001082120000000000000                                                                           GUANTE QUIRURGICO TALLA 7SOB     2
CC0000032776593A202100000027819000000027819003/12/20210838    3190333624042196419000043485100001618510000000000000                GUANTE QUIRURGICO DE LATEX REF 2D72N65X CAJ X 50 PROTEXIS  6.5 BN EXENTO-DC.417/2020SOB     1
CC0000032776593A202100000027819000000027819003/12/20210838    3190333624042196419000020056600001101530000000000000                                                                AGUJA HIPODERMICA DESECH 18G X 1 1/2SOB     2
CC0000032776593A202100000027819000000027819003/12/20210838    3190333624042196419000011099300000777780000000000000                                                                     FILTRO BACTERIANO VIRICO ADULTOBOL     1
CC0000032776593A202100000027819000000027819003/12/20210838    31903336240421964190000E1AB0500003888400000000000000                                                              SOLUCION SALINA 0.9% SLN INY X 1000 MLBOL     1
CC0000032776593A202100000027819000000027819003/12/20210838    31903336240421964190000E1AB0300003888390000000000000                                                            SOLUCION SALINA 0.9% SLN INY BO X 500 MLBOL     6
CC0000032776593A202100000027819000000027819003/12/20210838    31903336240421964190000E1AB0700003888350000000000000                                                            SOLUCION SALINA 0.9% SLN INY BO X 250 MLBOL     1
CC0000032776593A202100000027819000000027819003/12/20210838    31903336240421964190000E1AB0200000199290000000000000                                                            SOLUCION SALINA 0.9% SLN INY BO X 100 MLBIN     1
CC0000032776593A202100000027819000000027819003/12/20210838    31903336240421964190000N1BA0300000217900000000000000                                                                    BUPIROP 0.5% C/E Sln Iny x 20 mlVAL     1
CC0000032776593A202100000027819000000027819003/12/20210838    31903336240421964190000M03A0900001467590000000000000                                                                        ROCURONIO SLN INY 50 MG/5 MLVAL     1
CC0000032776593A202100000027819000000027819003/12/20210838    31903336240421964190000A03F0300001626860000000000000                                                                   METOCLOPRAMIDA SLN INY 10 MG/2 MLAMP     1
CC0000032776593A202100000027819000000027819003/12/20210838    31903336240421964190000N2BB0100001672010000000000000                                  DIPIRONA 1GR/2ML(0.5GR/ML) SOL INY INST CAJ X 100AMP X 2ML VITALISAMP     2
CC0000032776593A202100000027819000000027819003/12/20210838    31903336240421964190000M01A2000001664970000000000000                                                               DICLOFENACO SODICO SLN INY 75 MG/3 MLAMP     1
CC0000032776593A202100000027819000000027819003/12/20210838    31903336240421964190000H02A0100001664960000000000000                                                                        DEXAMETASONA SLN INY 4 MG/MLAMP     2
