CC0000022596813H202100015112733300015112733303/12/20211036    31500305237421964250000V07A1300000502600000000000000                                                                                AGUA ESTERIL x 10 mlAMP     5
CC0000008530442H202100015112733300015112733303/12/20211036    31500305237421964250000V07A1300000502600000000000000                                                                                AGUA ESTERIL x 10 mlAMP     5
CC0000072339909H202100015112733300015112733303/12/20211036    31500305237421964250000V07A1300000502600000000000000                                                                                AGUA ESTERIL x 10 mlAMP     5
CC0000032776593H202100015112733300015112733303/12/20211036    31500305237421964250000V07A1300000502600000000000000                                                                                AGUA ESTERIL x 10 mlAMP     5
CC0001066890191H202100015112733300015112733303/12/20211036    31500305237421964250000V07A1300000502600000000000000                                                                                AGUA ESTERIL x 10 mlAMP     5
CC0000007444684H202100015112733300015112733303/12/20211036    31500305237421964250000V07A1300000502600000000000000                                                                                AGUA ESTERIL x 10 mlAMP     5
CC0000032776593H202100015112733300015112733303/12/20211036    3150030523742196425000018362500000299530000000000000                                                               SET TRAQUEOSTOMIA REF C-PTIS-100 COOKPZA     1
CC0000022596813H202100015112733300015112733303/12/20211036    3150030523742196425000024674000001138340000000000000   JERINGA 3PARTES C/A 10ML REF JEHL005 CAJ X 100 ALFASAFE  21GX1 PULG 1/2 PULG BN EXENTO-DC.417/202PZA     5
CC0000008530442H202100015112733300015112733303/12/20211036    3150030523742196425000024674000001138340000000000000   JERINGA 3PARTES C/A 10ML REF JEHL005 CAJ X 100 ALFASAFE  21GX1 PULG 1/2 PULG BN EXENTO-DC.417/202PZA     5
CC0000072339909H202100015112733300015112733303/12/20211036    3150030523742196425000024674000001138340000000000000   JERINGA 3PARTES C/A 10ML REF JEHL005 CAJ X 100 ALFASAFE  21GX1 PULG 1/2 PULG BN EXENTO-DC.417/202PZA     5
CC0000032776593H202100015112733300015112733303/12/20211036    3150030523742196425000024674000001138340000000000000   JERINGA 3PARTES C/A 10ML REF JEHL005 CAJ X 100 ALFASAFE  21GX1 PULG 1/2 PULG BN EXENTO-DC.417/202PZA     5
CC0001066890191H202100015112733300015112733303/12/20211036    3150030523742196425000024674000001138340000000000000   JERINGA 3PARTES C/A 10ML REF JEHL005 CAJ X 100 ALFASAFE  21GX1 PULG 1/2 PULG BN EXENTO-DC.417/202PZA     5
CC0000007444684H202100015112733300015112733303/12/20211036    3150030523742196425000024674000001138340000000000000   JERINGA 3PARTES C/A 10ML REF JEHL005 CAJ X 100 ALFASAFE  21GX1 PULG 1/2 PULG BN EXENTO-DC.417/202PZA     5
CC0000032776593H202100015112733300015112733303/12/20211036    3150030523742196425000011085200001585390000000000000                                                                       GUANTE QUIRURGICO TALLA 7 1/2SOB     2
CC0000032776593H202100015112733300015112733303/12/20211036    3150030523742196425000013077800000471960000000000000                                                             GASA NO TEJIDA EST 7.5 X 7.5 SOB X 3 UNSOB    10
CC0000032776593H202100015112733300015112733303/12/20211036    3150030523742196425000001201900001591650000000000000                                                            CANULA TRAQUEOSTOMIA C/BALON 7.5 NUBENCOSOB     1
CC0000032776593H202100015112733300015112733303/12/20211036    3150030523742196425000041013000001591660000000000000                                                                            CANULA TRAQUEOSTOMIA 8.0SOB     1
CC0000022596813H202100015112733300015112733303/12/20211036    3150030523742196425000020056600001101530000000000000                                                                AGUJA HIPODERMICA DESECH 18G X 1 1/2SOB     3
CC0000008530442H202100015112733300015112733303/12/20211036    3150030523742196425000020056600001101530000000000000                                                                AGUJA HIPODERMICA DESECH 18G X 1 1/2SOB     3
CC0000072339909H202100015112733300015112733303/12/20211036    3150030523742196425000020056600001101530000000000000                                                                AGUJA HIPODERMICA DESECH 18G X 1 1/2SOB     3
CC0000032776593H202100015112733300015112733303/12/20211036    3150030523742196425000020056600001101530000000000000                                                                AGUJA HIPODERMICA DESECH 18G X 1 1/2SOB     3
CC0001066890191H202100015112733300015112733303/12/20211036    3150030523742196425000020056600001101530000000000000                                                                AGUJA HIPODERMICA DESECH 18G X 1 1/2SOB     3
CC0000007444684H202100015112733300015112733303/12/20211036    3150030523742196425000020056600001101530000000000000                                                                AGUJA HIPODERMICA DESECH 18G X 1 1/2SOB     3
CC0000022596813H202100015112733300015112733303/12/20211036    31500305237421964250000E1AD0300000199490000000000000                                         LACTATO RINGER USP (HARTMANN)  SOL INY  BOL X 1000ML BAXTERBIN     3
CC0000008530442H202100015112733300015112733303/12/20211036    31500305237421964250000E1AD0300000199490000000000000                                         LACTATO RINGER USP (HARTMANN)  SOL INY  BOL X 1000ML BAXTERBIN     2
CC0000032776593H202100015112733300015112733303/12/20211036    31500305237421964250000E1AD0300000199490000000000000                                         LACTATO RINGER USP (HARTMANN)  SOL INY  BOL X 1000ML BAXTERBIN     2
CC0001066890191H202100015112733300015112733303/12/20211036    31500305237421964250000E1AD0300000199490000000000000                                         LACTATO RINGER USP (HARTMANN)  SOL INY  BOL X 1000ML BAXTERBIN     3
CC0000072339909H202100015112733300015112733303/12/20211036    31500305237421964250000E1AB0500003888400000000000000                                                              SOLUCION SALINA 0.9% SLN INY X 1000 MLBOL     3
CC0000007444684H202100015112733300015112733303/12/20211036    31500305237421964250000E1AB0500003888400000000000000                                                              SOLUCION SALINA 0.9% SLN INY X 1000 MLBOL     3
CC0000022596813H202100015112733300015112733303/12/20211036    31500305237421964250000E1AB0200000199290000000000000                                                            SOLUCION SALINA 0.9% SLN INY BO X 100 MLBIN     3
CC0000008530442H202100015112733300015112733303/12/20211036    31500305237421964250000E1AB0200000199290000000000000                                                            SOLUCION SALINA 0.9% SLN INY BO X 100 MLBIN     3
CC0000072339909H202100015112733300015112733303/12/20211036    31500305237421964250000E1AB0200000199290000000000000                                                            SOLUCION SALINA 0.9% SLN INY BO X 100 MLBIN     3
CC0000032776593H202100015112733300015112733303/12/20211036    31500305237421964250000E1AB0200000199290000000000000                                                            SOLUCION SALINA 0.9% SLN INY BO X 100 MLBIN     3
CC0001066890191H202100015112733300015112733303/12/20211036    31500305237421964250000E1AB0200000199290000000000000                                                            SOLUCION SALINA 0.9% SLN INY BO X 100 MLBIN     3
CC0000007444684H202100015112733300015112733303/12/20211036    31500305237421964250000E1AB0200000199290000000000000                                                            SOLUCION SALINA 0.9% SLN INY BO X 100 MLBIN     3
CC0000022596813H202100015112733300015112733303/12/20211036    3150030523742196425000011137100001419310000000000000                                                               TIRA GLUCOMETRIA FREESTYLE H OPTIUM .PZA     4
CC0000008530442H202100015112733300015112733303/12/20211036    3150030523742196425000011137100001419310000000000000                                                               TIRA GLUCOMETRIA FREESTYLE H OPTIUM .PZA     4
CC0000072339909H202100015112733300015112733303/12/20211036    3150030523742196425000011137100001419310000000000000                                                               TIRA GLUCOMETRIA FREESTYLE H OPTIUM .PZA     4
CC0000032776593H202100015112733300015112733303/12/20211036    3150030523742196425000011137100001419310000000000000                                                               TIRA GLUCOMETRIA FREESTYLE H OPTIUM .PZA     4
CC0001066890191H202100015112733300015112733303/12/20211036    3150030523742196425000011137100001419310000000000000                                                               TIRA GLUCOMETRIA FREESTYLE H OPTIUM .PZA     4
CC0000007444684H202100015112733300015112733303/12/20211036    3150030523742196425000011137100001419310000000000000                                                               TIRA GLUCOMETRIA FREESTYLE H OPTIUM .PZA     4
