CC0000022621126H202100000556518700000556518703/12/20210855    31500206237421964250000A2BC0900000200150000000000000                                                                               ORAZOLE Sln Iny 40 mgCIN     1
CC0000022621126H202100000556518700000556518703/12/20210855    31500206237421964250000A4AD0200000202990000000000000                                                                     PLITICAN HCL Sln Iny 50 mg/2 mlAMP     2
CC0000022621126H202100000556518700000556518703/12/20210855    31500206237421964250000A3BB0200000512940000000000000                                                                          BUSCAPINA SIMPLE Iny 20 mgAMP     2
CC0000022621126H202100000556518700000556518703/12/20210855    31500206237421964250000N2AX0400001204140000000000000                                                                             TRAMAL Sln Iny 50 mg/mlAMP     1
CC0000022621126H202100000556518700000556518703/12/20210855    31500206237421964250000N2BB0500000217140000000000000                                                                          NOVALGINA Sln Iny 1 g/2 mlAMP     2
CC0000022621126H202100000556518700000556518703/12/20210855    31500206237421964250000N02B1100001464120000000000000                                           PARACETAMOL EP 1000MG/100ML(10MG/ML) SOL INY  CAJ X 10FCOVAL     3
