CC0001143259393H202100000556504800000556504803/12/20210823     3300004237421964250000A6AC0200001467010000000000000                                                             LACTULAX JARABE 66.7G/100ML SOX15ML /R/SOB     2
CC0001143259393H202100000556504800000556504803/12/20210822     3300004237421964250000A6AC0200001467010000000000000                                                             LACTULAX JARABE 66.7G/100ML SOX15ML /R/SOB     1
CC0001143259393H202100000556504800000556504803/12/20210031     3300009237421964250000A6AC0200001467010000000000000                                                             LACTULAX JARABE 66.7G/100ML SOX15ML /R/SOB     1
CC0001143259393H202100000556504800000556504803/12/20211505     3300003237421964250000N2AX0400001204140000000000000                                                                             TRAMAL Sln Iny 50 mg/mlAMP     1
CC0001143259393H202100000556504800000556504803/12/20210822     3300004237421964250000N2AX0400001204140000000000000                                                                             TRAMAL Sln Iny 50 mg/mlAMP     1
CC0001143259393H202100000556504800000556504803/12/20210031     3300009237421964250000N2AX0400001204140000000000000                                                                             TRAMAL Sln Iny 50 mg/mlAMP     1
