TI0001043450576H202100015052797700015052797703/12/20211132    3190114723742196425000011522900000994350000000000000                                                              SONDA FOLEY SILICO #8 2 VIAS GCU-0803SSOB     1
TI0001043450576H202100015052797700015052797703/12/20211132    3190114723742196425000038569700001124950000000000000                                                                              SONDA FOLEY #10 2 VIASSOB     1
TI0001043450576H202100015052797700015052797703/12/20211132    3190114723742196425000043485100001618510000000000000                GUANTE QUIRURGICO DE LATEX REF 2D72N65X CAJ X 50 PROTEXIS  6.5 BN EXENTO-DC.417/2020SOB     2
TI0001043450576H202100015052797700015052797703/12/20211132    3190114723742196425000013077800000471960000000000000                                                             GASA NO TEJIDA EST 7.5 X 7.5 SOB X 3 UNSOB     5
TI0001043450576H202100015052797700015052797703/12/20211132    31901147237421964250000Q1AA5900000236800000000000000                                                                            CISTOFLO PEDIAT X 500 mlSIN     1
