CC0000011312131H202100015022561300015022561303/12/20211926    3190244523742196425000011082700001620070000000000000                                                               EQUIPO SET PRIMARIO C/CLAVE REF 14001BOL     1
CC0000012576309H202100015022561300015022561303/12/20211926    3190244523742196425000011082700001620070000000000000                                                               EQUIPO SET PRIMARIO C/CLAVE REF 14001BOL     1
CC0000011312131H202100015022561300015022561303/12/20211926    3190244523742196425000030936900001431840000000000000                                                                                              BURETABOL     1
CC0000012576309H202100015022561300015022561303/12/20211926    3190244523742196425000030936900001431840000000000000                                                                                              BURETABOL     1
CC0000033010055H202100015022561300015022561303/12/20211926    31902445237421964250000E1AB0300003888390000000000000                                                            SOLUCION SALINA 0.9% SLN INY BO X 500 MLBOL     1
CC0000016200301H202100015022561300015022561303/12/20211926    31902445237421964250000E1AB0300003888390000000000000                                                            SOLUCION SALINA 0.9% SLN INY BO X 500 MLBOL     1
