CC0001066890191H202100000556507400000556507403/12/20210844     3300010237421964250000A03F0300001626860000000000000                                                                   METOCLOPRAMIDA SLN INY 10 MG/2 MLAMP     5
CC0001066890191H202100000556507400000556507403/12/20210844     3300010237421964250000V3AB2200000614150000000000000                                                            GLUCONATO CALCIO SLN INY 10% AMP X 10 MLAPC     2
CC0001066890191H202100000556507400000556507403/12/20210843     3300010237421964250000V3AB2200000614150000000000000                                                            GLUCONATO CALCIO SLN INY 10% AMP X 10 MLAPC     3
CC0001066890191H202100000556507400000556507403/12/20211659    31901827237421964250000E1AB0200000199290000000000000                                                            SOLUCION SALINA 0.9% SLN INY BO X 100 MLBIN     3
CC0001066890191H202100000556507400000556507403/12/20211659    31901827237421964250000E1AD0300000199490000000000000                                         LACTATO RINGER USP (HARTMANN)  SOL INY  BOL X 1000ML BAXTERBIN     3
CC0001066890191H202100000556507400000556507403/12/20211749     3300003237421964250000A12BA100000552980000000000000                                                            CLORURO POTASIO Sln Iny AMP 20 MEQ/10 MLAMP     1
CC0001066890191H202100000556507400000556507403/12/20212259     3300009237421964250000N07X0300003913670000000000000                                    DEXMEDETOMIDINA 400MCG/100ML(4MCG/ML) SOL INY BOL X 100ML BAXTERBOL     1
CC0001066890191H202100000556507400000556507403/12/20211836     3300003237421964250000N07X0300003913670000000000000                                    DEXMEDETOMIDINA 400MCG/100ML(4MCG/ML) SOL INY BOL X 100ML BAXTERBOL     1
CC0001066890191H202100000556507400000556507403/12/20211835     3300003237421964250000N07X0300003913670000000000000                                    DEXMEDETOMIDINA 400MCG/100ML(4MCG/ML) SOL INY BOL X 100ML BAXTERBOL    10
CC0001066890191H202100000556507400000556507403/12/20210843     3300010237421964250000N07X0300003913670000000000000                                    DEXMEDETOMIDINA 400MCG/100ML(4MCG/ML) SOL INY BOL X 100ML BAXTERBOL     3
CC0001066890191H202100000556507400000556507403/12/20211749     3300003237421964250000V6DF5300000302770000000000000                                                                        ENSURE PLUS HN LCP X 1000 MLFCO     1
CC0001066890191H202100000556507400000556507403/12/20211206     3300004237421964250000N1AH0200003906560000000000000                                                                     FENTANIL Iny 0.05 mg/ml x 10 mlAMP    10
CC0001066890191H202100000556507400000556507403/12/20211748     3300003237421964250000J01CR300003913920000000000000                                                     AUROTAZ-P (4+0.5)GR POLV INY CAJ X 1VIAL X 50MLVAL     1
CC0001066890191H202100000556507400000556507403/12/20210843     3300010237421964250000J01CR300003913920000000000000                                                     AUROTAZ-P (4+0.5)GR POLV INY CAJ X 1VIAL X 50MLVAL     3
CC0001066890191H202100000556507400000556507403/12/20211749     3300003237421964250000N2BB0100001672010000000000000                                  DIPIRONA 1GR/2ML(0.5GR/ML) SOL INY INST CAJ X 100AMP X 2ML VITALISAMP     1
CC0001066890191H202100000556507400000556507403/12/20211749     3300003237421964250000N05A1700001278300000000000000                                                                            QUETIAPINA TAB 25 MG /R/TAB     2
CC0001066890191H202100000556507400000556507403/12/20210843     3300010237421964250000N05A1700001278300000000000000                                                                            QUETIAPINA TAB 25 MG /R/TAB     2
CC0001066890191H202100000556507400000556507403/12/20210844     3300010237421964250000A02BC700001684270000000000000                                                            OMEPRAZOL 40MG POLVO LIOFILIZADO AMPOLLAVAL     1
CC0001066890191H202100000556507400000556507403/12/20211659    31901827237421964250000V07A1300000502600000000000000                                                                                AGUA ESTERIL x 10 mlAMP     5
CC0001066890191H202100000556507400000556507403/12/20211205     3300004237421964250000N05BA400001313880000000000000                                                                           ALPRAZOLAM 0.5 MG TABLETATAB     3
