CC0000008729778U202100050131906200050131906203/12/20211836    3150015423942196432000030161400001459220000000000000                                                                       MANGUERA SUCCION 6 MM*3.1 MTSSOB     1
CC0000008729778U202100050131906200050131906203/12/20211836    3150015423942196432000038569400000256750000000000000                                                                        SONDA ASPIRACION CONTROL #14SIN     3
RC0001011259372U202100050131906200050131906203/12/20211836    3150015423942196432000024674000001138340000000000000   JERINGA 3PARTES C/A 10ML REF JEHL005 CAJ X 100 ALFASAFE  21GX1 PULG 1/2 PULG BN EXENTO-DC.417/202PZA     2
CC0000008729778U202100050131906200050131906203/12/20211836    3150015423942196432000024674000001138340000000000000   JERINGA 3PARTES C/A 10ML REF JEHL005 CAJ X 100 ALFASAFE  21GX1 PULG 1/2 PULG BN EXENTO-DC.417/202PZA     2
CC0000008729778U202100050131906200050131906203/12/20211836    3150015423942196432000011089200001083340000000000000                                                              GUANTE ESTERIL LATEX S/POLVO TALLA 7.0SOB     3
CC0000008729778U202100050131906200050131906203/12/20211836    3150015423942196432000020816000001096410000000000000                                                                          LINER PARED DELGADA 1500CCBOL     1
RC0001011259372U202100050131906200050131906203/12/20211836    31500154239421964320000E1AB0200000199290000000000000                                                            SOLUCION SALINA 0.9% SLN INY BO X 100 MLBIN     1
CC0000008729778U202100050131906200050131906203/12/20211836    31500154239421964320000E1AB0200000199290000000000000                                                            SOLUCION SALINA 0.9% SLN INY BO X 100 MLBIN     1
