CC0000008530442H202100015112733000015112733003/12/20210926    3150022123742196425000036441300000236540000000000000                                                                    JERINGA 1 ML GASES ARTERIAL 9023SIN     2
CC0000072339909H202100015112733000015112733003/12/20210926    3150022123742196425000036441300000236540000000000000                                                                    JERINGA 1 ML GASES ARTERIAL 9023SIN     3
CC0000032776593H202100015112733000015112733003/12/20210926    3150022123742196425000036441300000236540000000000000                                                                    JERINGA 1 ML GASES ARTERIAL 9023SIN     3
CC0001066890191H202100015112733000015112733003/12/20210926    3150022123742196425000036441300000236540000000000000                                                                    JERINGA 1 ML GASES ARTERIAL 9023SIN     3
CC0000008530442H202100015112733000015112733003/12/20210926    3150022123742196425000043995200000229010000000000000                                                               HUMIDIFICADOR PARA OXIGENO REF. H001BBOL     1
CC0000008530442H202100015112733000015112733003/12/20210926    3150022123742196425000038568100000258050000000000000                                                                         CANULA OXIGENO NASAL ADULTOSIN     1
CC0000072339909H202100015112733000015112733003/12/20210926    3150022123742196425000020816000001096410000000000000                                                                          LINER PARED DELGADA 1500CCBOL     1
