CC0000008750952H202100000556519200000556519203/12/20210903     3300010237421964250000A06AD100001193740000000000000                                                                      CONTUMAX 3350 SOBRE X 17 G /R/SOB     1
CC0000008750952H202100000556519200000556519203/12/20211139    31903288237421964250000E1AD0300000199490000000000000                                         LACTATO RINGER USP (HARTMANN)  SOL INY  BOL X 1000ML BAXTERBIN     1
CC0000008750952H202100000556519200000556519203/12/20211441     3300003237421964250000D7AA1100000525610000000000000                                                                  HIDROCORTISONA 1% CREMA TOPIC 15 GTUB     1
CC0000008750952H202100000556519200000556519203/12/20210903     3300010237421964250000N03AX700001335170000000000000                                                                                LYRICA CAP 50 MG /R/CAP     1
CC0000008750952H202100000556519200000556519203/12/20211230     3300010237421964250000N2AA0200000301600000000000000                                                                        HIDROMORFONA Sln Iny 2 mg/mlAMP     4
CC0000008750952H202100000556519200000556519203/12/20210904     3300010237421964250000N2BE2200001252930000000000000                                                                             ACETAMINOFEN Tab 500 MGTAB     4
CC0000008750952H202100000556519200000556519203/12/20211441     3300003237421964250000N05BB100001315110000000000000                                                                               HIDROXICINA TAB 25 MGTAB     3
CC0000008750952H202100000556519200000556519203/12/20210904     3300010237421964250000A02BC700001684270000000000000                                                            OMEPRAZOL 40MG POLVO LIOFILIZADO AMPOLLAVAL     1
