CC0000028005782H202100000556526900000556526903/12/20211358    31903288237421964250000A02B0600001277230000000000000                                                                                NEXIUM Tab 40 mg /R/TAB     1
CC0000028005782H202100000556526900000556526903/12/20211115    31903288237421964250000A02B0600001277230000000000000                                                                                NEXIUM Tab 40 mg /R/TAB     1
CC0000028005782H202100000556526900000556526903/12/20211358    31903288237421964250000B1AB0200003939510000000000000                 ENOXAPARINA SODICA 40MG/0.4ML(100MG/ML) SOL INY INST CAJ X 2JERPREL X 0.4ML TECHDOWJRP     1
CC0000028005782H202100000556526900000556526903/12/20211115    31903288237421964250000B1AB0200003939510000000000000                 ENOXAPARINA SODICA 40MG/0.4ML(100MG/ML) SOL INY INST CAJ X 2JERPREL X 0.4ML TECHDOWJRP     1
CC0000028005782H202100000556526900000556526903/12/20211358    31903288237421964250000J01DA300001239950000000000000                                                            CEFAZOLINA SODICA POLVO LIOF SLN INY 1 GVAL     5
CC0000028005782H202100000556526900000556526903/12/20211115    31903288237421964250000J01DA300001239950000000000000                                                            CEFAZOLINA SODICA POLVO LIOF SLN INY 1 GVAL     4
CC0000028005782H202100000556526900000556526903/12/20211358    31903288237421964250000M01A0400001341250000000000000                                                                              DYNASTAT AMP 40 MG /R/VAL     2
CC0000028005782H202100000556526900000556526903/12/20211115    31903288237421964250000M01A0400001341250000000000000                                                                              DYNASTAT AMP 40 MG /R/VAL     2
CC0000028005782H202100000556526900000556526903/12/20211358    31903288237421964250000N02B1100001464120000000000000                                           PARACETAMOL EP 1000MG/100ML(10MG/ML) SOL INY  CAJ X 10FCOVAL     4
CC0000028005782H202100000556526900000556526903/12/20211115    31903288237421964250000N02B1100001464120000000000000                                           PARACETAMOL EP 1000MG/100ML(10MG/ML) SOL INY  CAJ X 10FCOVAL     4
