CC0000073070310H202100000556502800000556502803/12/20210928     3300010237421964250000A2BC0100001277990000000000000                                                                                   ORAZOLE CAP 20 MGCAP     1
CC0000073070310H202100000556502800000556502803/12/20211526     3300003237421964250000A7DA0100001303560000000000000                                                                                 LOPERAMIDA TAB 2 MGTAB     2
CC0000073070310H202100000556502800000556502803/12/20211053     3300004237421964250000A7DA0100001303560000000000000                                                                                 LOPERAMIDA TAB 2 MGTAB     2
CC0000073070310H202100000556502800000556502803/12/20211053     3300004237421964250000A7DA1400000203670000000000000                                                                          SMECTA POLVO SOBRE 3 G /R/SIN     4
CC0000073070310H202100000556502800000556502803/12/20211526     3300003237421964250000B1AB0200003939510000000000000                 ENOXAPARINA SODICA 40MG/0.4ML(100MG/ML) SOL INY INST CAJ X 2JERPREL X 0.4ML TECHDOWJRP     1
CC0000073070310H202100000556502800000556502803/12/20211502    31900995237421964250000E1AB0700003888350000000000000                                                            SOLUCION SALINA 0.9% SLN INY BO X 250 MLBOL     1
CC0000073070310H202100000556502800000556502803/12/20212142    31903271237421964250000E1AD0200003888320000000000000                                                                              HARTMAN SLN INY 500 MLBOL     2
CC0000073070310H202100000556502800000556502803/12/20210005    31500235237421964250000E1AD0200003888320000000000000                                                                              HARTMAN SLN INY 500 MLBOL     2
CC0000073070310H202100000556502800000556502803/12/20211437    31500347237421964250000E1AD0300000199490000000000000                                         LACTATO RINGER USP (HARTMANN)  SOL INY  BOL X 1000ML BAXTERBIN     1
CC0000073070310H202100000556502800000556502803/12/20210928     3300010237421964250000A12BA100000552980000000000000                                                            CLORURO POTASIO Sln Iny AMP 20 MEQ/10 MLAMP     6
CC0000073070310H202100000556502800000556502803/12/20210929     3300010237421964250000C3DA0100001278020000000000000                                                                                 ALDACTONE TAB 25 MGTAB     4
CC0000073070310H202100000556502800000556502803/12/20210928     3300010237421964250000C09C0100001316940000000000000                                                                               DIOVAN TAB 160 MG /R/TAB     2
CC0000073070310H202100000556502800000556502803/12/20210929     3300010237421964250000H03AA500001315460000000000000                                                                                SYNTHROID TAB 50 MCGTAB     1
CC0000073070310H202100000556502800000556502803/12/20210929     3300010237421964250000H03AA400001315380000000000000                                                                               SYNTHROID TAB 100 MCGTAB     1
CC0000073070310H202100000556502800000556502803/12/20211526     3300003237421964250000J3CB0200001333510000000000000                                                                                    CIPRO TAB 500 MGCOM     2
CC0000073070310H202100000556502800000556502803/12/20210929     3300010237421964250000J3CB0200001333510000000000000                                                                                    CIPRO TAB 500 MGCOM     1
CC0000073070310H202100000556502800000556502803/12/20210928     3300010237421964250000J3CB0200001333510000000000000                                                                                    CIPRO TAB 500 MGCOM     1
CC0000073070310H202100000556502800000556502803/12/20210928     3300010237421964250000N02B1100001464120000000000000                                           PARACETAMOL EP 1000MG/100ML(10MG/ML) SOL INY  CAJ X 10FCOVAL     1
CC0000073070310H202100000556502800000556502803/12/20210927     3300010237421964250000N02B1100001464120000000000000                                           PARACETAMOL EP 1000MG/100ML(10MG/ML) SOL INY  CAJ X 10FCOVAL     1
CC0000073070310H202100000556502800000556502803/12/20211035    31903310237421964250000V07A1300000502600000000000000                                                                                AGUA ESTERIL x 10 mlAMP     8
