CC0000016200301H202100015022560600015022560603/12/20210923    3190328823742196425000045136100001419300000000000000                                                                            LANCETA DEXTROMETER X UNPZA     5
CC0000012576309H202100015022560600015022560603/12/20210923    3190328823742196425000045136100001419300000000000000                                                                            LANCETA DEXTROMETER X UNPZA     3
CC0000007403900H202100015022560600015022560603/12/20210923    3190328823742196425000045136100001419300000000000000                                                                            LANCETA DEXTROMETER X UNPZA     5
CC0000011312131H202100015022560600015022560603/12/20210923    3190328823742196425000024674000001138340000000000000   JERINGA 3PARTES C/A 10ML REF JEHL005 CAJ X 100 ALFASAFE  21GX1 PULG 1/2 PULG BN EXENTO-DC.417/202PZA    10
CC0000008750952H202100015022560600015022560603/12/20210923    3190328823742196425000024674000001138340000000000000   JERINGA 3PARTES C/A 10ML REF JEHL005 CAJ X 100 ALFASAFE  21GX1 PULG 1/2 PULG BN EXENTO-DC.417/202PZA    10
CC0000033010055H202100015022560600015022560603/12/20210923    3190328823742196425000024674000001138340000000000000   JERINGA 3PARTES C/A 10ML REF JEHL005 CAJ X 100 ALFASAFE  21GX1 PULG 1/2 PULG BN EXENTO-DC.417/202PZA     5
CC0000016200301H202100015022560600015022560603/12/20210923    3190328823742196425000024674000001138340000000000000   JERINGA 3PARTES C/A 10ML REF JEHL005 CAJ X 100 ALFASAFE  21GX1 PULG 1/2 PULG BN EXENTO-DC.417/202PZA    10
CC0000012576309H202100015022560600015022560603/12/20210923    3190328823742196425000024674000001138340000000000000   JERINGA 3PARTES C/A 10ML REF JEHL005 CAJ X 100 ALFASAFE  21GX1 PULG 1/2 PULG BN EXENTO-DC.417/202PZA    10
CC0000007403900H202100015022560600015022560603/12/20210923    3190328823742196425000024674000001138340000000000000   JERINGA 3PARTES C/A 10ML REF JEHL005 CAJ X 100 ALFASAFE  21GX1 PULG 1/2 PULG BN EXENTO-DC.417/202PZA    10
CC0000016200301H202100015022560600015022560603/12/20210923    31903288237421964250000Q1A13500001585200000000000000                        JERINGA PUNTA CAT SIN AGUJA REF 309620 CAJ X 40   50ML BN EXENTO-DC.417/2020SOB     1
CC0000012576309H202100015022560600015022560603/12/20210923    31903288237421964250000Q1A13500001585200000000000000                        JERINGA PUNTA CAT SIN AGUJA REF 309620 CAJ X 40   50ML BN EXENTO-DC.417/2020SOB     1
CC0000011312131H202100015022560600015022560603/12/20210923    31903288237421964250000E1AD0300000199490000000000000                                         LACTATO RINGER USP (HARTMANN)  SOL INY  BOL X 1000ML BAXTERBIN     1
CC0000008750952H202100015022560600015022560603/12/20210923    31903288237421964250000E1AD0300000199490000000000000                                         LACTATO RINGER USP (HARTMANN)  SOL INY  BOL X 1000ML BAXTERBIN     1
CC0000016200301H202100015022560600015022560603/12/20210923    3190328823742196425000011137100001419310000000000000                                                               TIRA GLUCOMETRIA FREESTYLE H OPTIUM .PZA     5
CC0000012576309H202100015022560600015022560603/12/20210923    3190328823742196425000011137100001419310000000000000                                                               TIRA GLUCOMETRIA FREESTYLE H OPTIUM .PZA     3
CC0000007403900H202100015022560600015022560603/12/20210923    3190328823742196425000011137100001419310000000000000                                                               TIRA GLUCOMETRIA FREESTYLE H OPTIUM .PZA     5
