CC0000012576309H202100000556532700000556532703/12/20211357    31900630237421964250000A02BC100001677520000000000000                                                                ESOMEPRAZOL POLVO LIOF INY 40 MG /R/VAL     1
CC0000012576309H202100000556532700000556532703/12/20211357    31900630237421964250000N03AG200001590870000000000000                                                            PROVALNOVA SLN INY 100MG/ML VIALX5ML /R/VAL     6
CC0000012576309H202100000556532700000556532703/12/20211357    31900630237421964250000N03AX200001063780000000000000                                                                      KEPPRA SLN INY 500 MG/5 ML /R/VAL     6
CC0000012576309H202100000556532700000556532703/12/20211357    31900630237421964250000N03A1800001024300000000000000                                                                 VIMPAT SLN INY 10 MG/ML AMP X 20 MLVAL     3
