RC0001043482472U202100000556512700000556512703/12/20210634     3300010239421964320000A12C0500000947840000000000000                                                               SULZINC SLN ORAL 2 MG/ML X 120 ML /R/FCO     1
RC0001043482472U202100000556512700000556512703/12/20211332    31500647239421964320000E1AD0300000199490000000000000                                         LACTATO RINGER USP (HARTMANN)  SOL INY  BOL X 1000ML BAXTERBIN     1
RC0001043482472U202100000556512700000556512703/12/20210634     3300010239421964320000N2BE1100000836430000000000000                                             ACETAMINOFEN 150MG/5ML(3%) JBE INST FCO X 60ML AMER GENCAJ     1
RC0001043482472U202100000556512700000556512703/12/20210634     3300010239421964320000A03F0500001692520000000000000                                                                   ALIZAPRIDA HCL SLN INY 50 MG/2 MLAMP     1
RC0001043482472U202100000556512700000556512703/12/20210634     3300010239421964320000A02BC700001684270000000000000                                                            OMEPRAZOL 40MG POLVO LIOFILIZADO AMPOLLAVAL     1
