CC0000000800641H202100000556503000000556503003/12/20210954     3300004237421964250000A2BC0900000200150000000000000                                                                               ORAZOLE Sln Iny 40 mgCIN     1
CC0000000800641H202100000556503000000556503003/12/20210005     3300009237421964250000B1AB0200003939510000000000000                 ENOXAPARINA SODICA 40MG/0.4ML(100MG/ML) SOL INY INST CAJ X 2JERPREL X 0.4ML TECHDOWJRP     1
CC0000000800641H202100000556503000000556503003/12/20211500    31900995237421964250000E1AB0200000199290000000000000                                                            SOLUCION SALINA 0.9% SLN INY BO X 100 MLBIN     1
CC0000000800641H202100000556503000000556503003/12/20210636    31902977237421964250000E1AB0500003888400000000000000                                                              SOLUCION SALINA 0.9% SLN INY X 1000 MLBOL     1
CC0000000800641H202100000556503000000556503003/12/20211805     3300003237421964250000N03AG200001590870000000000000                                                            PROVALNOVA SLN INY 100MG/ML VIALX5ML /R/VAL     1
CC0000000800641H202100000556503000000556503003/12/20211430     3300003237421964250000N03AX200001063780000000000000                                                                      KEPPRA SLN INY 500 MG/5 ML /R/VAL     1
CC0000000800641H202100000556503000000556503003/12/20210953     3300004237421964250000N03AX200001063780000000000000                                                                      KEPPRA SLN INY 500 MG/5 ML /R/VAL     1
CC0000000800641H202100000556503000000556503003/12/20211346     3300003237421964250000S01A0500000503250000000000000                                                                   GENTAMICINA 0.3 % Sln Oft x 10 mlFCO     1
CC0000000800641H202100000556503000000556503003/12/20210954     3300004237421964250000A11A2200001050880000000000000                                                                 GLUCERNA LIQUIDO 1.5 KCAL X 1000 MLFCO     1
CC0000000800641H202100000556503000000556503003/12/20210953     3300004237421964250000B05B2500001052320000000000000                                                                     PERIOLIMEL BOLSA X 1500 ML (N4)BOL     1
CC0000000800641H202100000556503000000556503003/12/20211055    31903291237421964250000V07A1300000502600000000000000                                                                                AGUA ESTERIL x 10 mlAMP    10
