CC0000013825497H202100000556504100000556504103/12/20210935     3300010237421964250000A02B0600001277230000000000000                                                                                NEXIUM Tab 40 mg /R/TAB     1
CC0000013825497H202100000556504100000556504103/12/20210935     3300010237421964250000A6AC0200001467010000000000000                                                             LACTULAX JARABE 66.7G/100ML SOX15ML /R/SOB     1
CC0000013825497H202100000556504100000556504103/12/20211124     3300004237421964250000A10A1800000725300000000000000                                                             LANTUS SOLOSTAR JER 100 UI/ML X 3 ML /RCAJ     1
CC0000013825497H202100000556504100000556504103/12/20210935     3300010237421964250000B1AB0300003939210000000000000                 ENOXAPARINA SODICA 20MG/0.2ML(100MG/ML) SOL INY INST CAJ X 2JERPREL X 0.2ML TECHDOWJRP     1
CC0000013825497H202100000556504100000556504103/12/20211233     3300004237421964250000V7AA5200000215370000000000000                                                                          EPOYET SLN INY 2000 UI /R/VAL     1
CC0000013825497H202100000556504100000556504103/12/20211845     3300010237421964250000A11AA300001332860000000000000                                                                    ANEMIDOX Cap 330 MG /1 mg/100 MGCAP     2
CC0000013825497H202100000556504100000556504103/12/20211524     3300003237421964250000A11AA300001332860000000000000                                                                    ANEMIDOX Cap 330 MG /1 mg/100 MGCAP     2
CC0000013825497H202100000556504100000556504103/12/20212318    31903259237421964250000E1AB0300003888390000000000000                                                            SOLUCION SALINA 0.9% SLN INY BO X 500 MLBOL     1
CC0000013825497H202100000556504100000556504103/12/20211715    31500052237421964250000E1AD0300000199490000000000000                                         LACTATO RINGER USP (HARTMANN)  SOL INY  BOL X 1000ML BAXTERBIN     1
CC0000013825497H202100000556504100000556504103/12/20210853    31902949237421964250000E1AD0300000199490000000000000                                         LACTATO RINGER USP (HARTMANN)  SOL INY  BOL X 1000ML BAXTERBIN     1
CC0000013825497H202100000556504100000556504103/12/20211123     3300004237421964250000C2EA2000001332890000000000000                                                                              APROVEL TAB 150 MG /R/TAB     2
CC0000013825497H202100000556504100000556504103/12/20210935     3300010237421964250000J01DA300001239950000000000000                                                            CEFAZOLINA SODICA POLVO LIOF SLN INY 1 GVAL     1
CC0000013825497H202100000556504100000556504103/12/20211233     3300004237421964250000N02B1100001464120000000000000                                           PARACETAMOL EP 1000MG/100ML(10MG/ML) SOL INY  CAJ X 10FCOVAL     1
CC0000013825497H202100000556504100000556504103/12/20210935     3300010237421964250000N02B1100001464120000000000000                                           PARACETAMOL EP 1000MG/100ML(10MG/ML) SOL INY  CAJ X 10FCOVAL     1
CC0000013825497H202100000556504100000556504103/12/20211036    31903310237421964250000V07A1300000502600000000000000                                                                                AGUA ESTERIL x 10 mlAMP     8
