CC0000057299651U202100050131894800050131894803/12/20210041    3190098223942196432000024674000001138340000000000000   JERINGA 3PARTES C/A 10ML REF JEHL005 CAJ X 100 ALFASAFE  21GX1 PULG 1/2 PULG BN EXENTO-DC.417/202PZA     3
CC0000057299651U202100050131894800050131894803/12/20210041    3190098223942196432000011082700001620070000000000000                                                               EQUIPO SET PRIMARIO C/CLAVE REF 14001BOL     1
CC0000057299651U202100050131894800050131894803/12/20210041    3190098223942196432000030936900001431840000000000000                                                                                              BURETABOL     1
CC0000057299651U202100050131894800050131894803/12/20210041    31900982239421964320000E1AB0300003888390000000000000                                                            SOLUCION SALINA 0.9% SLN INY BO X 500 MLBOL     1
