CC0001143461886U202100050131907200050131907203/12/20212024    3190100323942196432000012474000000232230000000000000                                                                SUTURA ETHILON 4-0 SC-20 45CM 14502TSIN     1
CC0001143461886U202100050131907200050131907203/12/20212024    3190100323942196432000011048600000223020000000000000                                                                 JERINGA VACUNACION 3ML C/AGU 302542SIN     1
CC0001143461886U202100050131907200050131907203/12/20212024    3190100323942196432000011047900000223010000000000000                                                                            JERINGA X 1ML REF 302579SIN     1
CC0001143461886U202100050131907200050131907203/12/20212024    3190100323942196432000011085200001585390000000000000                                                                       GUANTE QUIRURGICO TALLA 7 1/2SOB     2
CC0001143461886U202100050131907200050131907203/12/20212024    3190100323942196432000013077800000471960000000000000                                                             GASA NO TEJIDA EST 7.5 X 7.5 SOB X 3 UNSOB     5
CC0001143461886U202100050131907200050131907203/12/20212024    31901003239421964320000E1AB0200000199290000000000000                                                            SOLUCION SALINA 0.9% SLN INY BO X 100 MLBIN     1
