CC0000072277171H202100000556537000000556537003/12/20212155    31903028237421964250000A6AC0200001467010000000000000                                                             LACTULAX JARABE 66.7G/100ML SOX15ML /R/SOB     3
CC0000072277171H202100000556537000000556537003/12/20211713     3300010237421964250000N02A3100001227160000000000000                                                                    OXYRAPID SLN INY 10 MG/ML X 1 MLAMP     4
CC0000072277171H202100000556537000000556537003/12/20212155    31903028237421964250000N03A2100001315050000000000000                                                                          GABAPENTINA CAP 300 MG /R/CAP     2
CC0000072277171H202100000556537000000556537003/12/20211703     3300010237421964250000N02A3200001270320000000000000                                                     OXICODONA 20MG TAB LIB PROL INST CAJ X 30 HUMAXTAB     2
