TI0001066284726H202100000556507600000556507603/12/20211621     3300010237421964250000A04A1300001335720000000000000                                                                                      ONDAX TAB 4 MGTAB     2
TI0001066284726H202100000556507600000556507603/12/20210922     3300004237421964250000A04A1300001335720000000000000                                                                                      ONDAX TAB 4 MGTAB     2
TI0001066284726H202100000556507600000556507603/12/20210146     3300009237421964250000A04A1300001335720000000000000                                                                                      ONDAX TAB 4 MGTAB     8
TI0001066284726H202100000556507600000556507603/12/20212149    31903062237421964250000E1AC0100000199400000000000000                                                                          SUERO MIXTO Sln Iny 500 mlBIN     2
TI0001066284726H202100000556507600000556507603/12/20211513    31902056237421964250000E1AB0300003888390000000000000                                                            SOLUCION SALINA 0.9% SLN INY BO X 500 MLBOL     2
TI0001066284726H202100000556507600000556507603/12/20210941    31902056237421964250000E1AB0300003888390000000000000                                                            SOLUCION SALINA 0.9% SLN INY BO X 500 MLBOL     2
TI0001066284726H202100000556507600000556507603/12/20210922     3300004237421964250000A12BA100000552980000000000000                                                            CLORURO POTASIO Sln Iny AMP 20 MEQ/10 MLAMP     3
TI0001066284726H202100000556507600000556507603/12/20210922     3300004237421964250000H02A0100001664960000000000000                                                                        DEXAMETASONA SLN INY 4 MG/MLAMP     6
TI0001066284726H202100000556507600000556507603/12/20211533     3300003237421964250000L1BC4100001249730000000000000                                                    ETOPOSIDO 100MG/5ML(20MG/ML) SOL INY  VIAL X 5MLVAL     2
TI0001066284726H202100000556507600000556507603/12/20210817     3300004237421964250000L1BC4100001249730000000000000                                                    ETOPOSIDO 100MG/5ML(20MG/ML) SOL INY  VIAL X 5MLVAL     2
TI0001066284726H202100000556507600000556507603/12/20211249    31903313237421964250000V07A1300000502600000000000000                                                                                AGUA ESTERIL x 10 mlAMP     7
