CC0001044392851U202100050131907900050131907903/12/20212131    3190098223942196432000038570100001124990000000000000                                                                              SONDA FOLEY #18 2 VIASSOB     1
CC0001044392851U202100050131907900050131907903/12/20212131    3190098223942196432000024674500000322810000000000000                                                                   JERINGA DESECHABLE 20 ml 21*1 1/2SIN     1
CC0001044392851U202100050131907900050131907903/12/20212131    3190098223942196432000024674000001138340000000000000   JERINGA 3PARTES C/A 10ML REF JEHL005 CAJ X 100 ALFASAFE  21GX1 PULG 1/2 PULG BN EXENTO-DC.417/202PZA     3
CC0000007452098U202100050131907900050131907903/12/20212131    3190098223942196432000024674000001138340000000000000   JERINGA 3PARTES C/A 10ML REF JEHL005 CAJ X 100 ALFASAFE  21GX1 PULG 1/2 PULG BN EXENTO-DC.417/202PZA     1
CC0001044392851U202100050131907900050131907903/12/20212131    3190098223942196432000011085100001082120000000000000                                                                           GUANTE QUIRURGICO TALLA 7SOB     2
CC0001044392851U202100050131907900050131907903/12/20212131    3190098223942196432000013077800000471960000000000000                                                             GASA NO TEJIDA EST 7.5 X 7.5 SOB X 3 UNSOB     5
CC0001044392851U202100050131907900050131907903/12/20212131    3190098223942196432000011082700001620070000000000000                                                               EQUIPO SET PRIMARIO C/CLAVE REF 14001BOL     1
CC0000007452098U202100050131907900050131907903/12/20212131    3190098223942196432000011082700001620070000000000000                                                               EQUIPO SET PRIMARIO C/CLAVE REF 14001BOL     1
CC0001044392851U202100050131907900050131907903/12/20212131    3190098223942196432000031188000000236790000000000000                                                                                     CISTOFLO ADULTOSIN     1
CC0000007452098U202100050131907900050131907903/12/20212131    3190098223942196432000001956000001620610000000000000                                                                      CONECTOR MICRO CLAVE LAT-MC100SOB     1
CC0000007452098U202100050131907900050131907903/12/20212131    31900982239421964320000Q1AA7100000610620000000000000                                                            CATETER PERIFE INTROCAN # 18G 4251687-04SIN     1
CC0001044392851U202100050131907900050131907903/12/20212131    31900982239421964320000Q1AA7200000610630000000000000                                                            CATETER PERIFE INTROCAN # 20G 4251644-04SIN     1
CC0001044392851U202100050131907900050131907903/12/20212131    3190098223942196432000030936900001431840000000000000                                                                                              BURETABOL     1
CC0000007452098U202100050131907900050131907903/12/20212131    3190098223942196432000030936900001431840000000000000                                                                                              BURETABOL     1
CC0001044392851U202100050131907900050131907903/12/20212131    3190098223942196432000016830000000970620000000000000                                                             SIST FIJACION CAT PERIFERICO 6.5X7 1683SOB     1
CC0000007452098U202100050131907900050131907903/12/20212131    3190098223942196432000016830000000970620000000000000                                                             SIST FIJACION CAT PERIFERICO 6.5X7 1683SOB     1
CC0001044392851U202100050131907900050131907903/12/20212131    3190098223942196432000020056600001101530000000000000                                                                AGUJA HIPODERMICA DESECH 18G X 1 1/2SOB     1
CC0001044392851U202100050131907900050131907903/12/20212131    31900982239421964320000E1AB0500003888400000000000000                                                              SOLUCION SALINA 0.9% SLN INY X 1000 MLBOL     1
CC0000007452098U202100050131907900050131907903/12/20212131    31900982239421964320000E1AB0500003888400000000000000                                                              SOLUCION SALINA 0.9% SLN INY X 1000 MLBOL     1
