CC0000012576309H202100916174120300916174120303/12/20211557    31900630237421964250000V7AA1300001590570000000000000                                                                                   PANAL ADULTO TENAPZA     6
CC0000012576309H202100916174120300916174120303/12/20211942    3190244523742196425000011082700001620070000000000000                                                               EQUIPO SET PRIMARIO C/CLAVE REF 14001BOL     1
CC0000012576309H202100916174120300916174120303/12/20211942    3190244523742196425000030936900001431840000000000000                                                                                              BURETABOL     1
