TI0001041690952A202100000027826700000027826703/12/20211012    3190333624042196419000042743200003929860000000000000                   GASA ADHESIVA STRETCH REF 02038-00 ROL X 10MT FIXOMULL 15CM BN EXENTO-DC.417/2020CMT    30
TI0001041690952A202100000027826700000027826703/12/20211012    3190333624042196419000000901700000602680000000000000                                                                     MASCARA LARINGEA REUSABLE No. 3BIN     1
TI0001041690952A202100000027826700000027826703/12/20211012    3190333624042196419000033485000001049200000000000000                                                                           GUANTE QUIRURGICO TALLA 6SOB     2
TI0001041690952A202100000027826700000027826703/12/20211012    31903336240421964190000S2BA1400000947290000000000000                                                            SOLU MEDROL POLVO SLN INY 500 MG/4 ML/R/VAL     1
TI0001041690952A202100000027826700000027826703/12/20211012    31903336240421964190000R03AC100001340440000000000000                                                            VENTILAN OSP INH ORAL 100 MCG /DO 200 DOFCO     1
TI0001041690952A202100000027826700000027826703/12/20211012    3190333624042196419000000016500000223580000000000000                                                                    STERI-STRIP 12 X 100 REF 1547 3MSIN     1
TI0001041690952A202100000027826700000027826703/12/20211012    3190333624042196419000030161400001459220000000000000                                                                       MANGUERA SUCCION 6 MM*3.1 MTSSOB     1
TI0001041690952A202100000027826700000027826703/12/20211012    3190333624042196419000000500600004008630000000000000         SUTURA ABSORBIBLE MONOFIL P-12 REF SM-5627 CAJ X 12 BIOSYN 45CM - 4-0 BN EXENTO-DC.417/2020SIN     1
TI0001041690952A202100000027826700000027826703/12/20211012    3190333624042196419000045138000001413890000000000000                                                                       LAPIZ ELECTROBISTURI  SOB X 1SOB     1
TI0001041690952A202100000027826700000027826703/12/20211012    3190333624042196419000043879100001138200000000000000                                                                  HOJA BISTURI # 15 CSSB 15 01002003SOB     1
TI0001041690952A202100000027826700000027826703/12/20211012    3190333624042196419000000503900000296270000000000000                                                                  SUTURA POLYSORB 3-0 75CM V20 GL122SIN     1
TI0001041690952A202100000027826700000027826703/12/20211012    31903336240421964190000E1AB0300003888390000000000000                                                            SOLUCION SALINA 0.9% SLN INY BO X 500 MLBOL     1
TI0001041690952A202100000027826700000027826703/12/20211012    3190333624042196419000022425200000548240000000000000                       EXTENSION DE ANESTESIA REF 1139 SOB X 1 SHERLEG  ADULTO BN EXENTO-DC.417/2020SIN     1
TI0001041690952A202100000027826700000027826703/12/20211012    3190333624042196419000035356500003919000000000000000                                                                                        LLAVE 3 VIASSOB     1
TI0001041690952A202100000027826700000027826703/12/20211012    3190333624042196419000024674000001138340000000000000   JERINGA 3PARTES C/A 10ML REF JEHL005 CAJ X 100 ALFASAFE  21GX1 PULG 1/2 PULG BN EXENTO-DC.417/202PZA     1
TI0001041690952A202100000027826700000027826703/12/20211012    31903336240421964190000Q1AA7100000610620000000000000                                                            CATETER PERIFE INTROCAN # 18G 4251687-04SIN     1
TI0001041690952A202100000027826700000027826703/12/20211012    3190333624042196419000022426800001140510000000000000                                                                    EQUIPO MACROGOTEO BAXTER MRC0001SOB     1
TI0001041690952A202100000027826700000027826703/12/20211012    3190333624042196419000016830000000970620000000000000                                                             SIST FIJACION CAT PERIFERICO 6.5X7 1683SOB     1
TI0001041690952A202100000027826700000027826703/12/20211012    31903336240421964190000J01DA300001239950000000000000                                                            CEFAZOLINA SODICA POLVO LIOF SLN INY 1 GVAL     2
TI0001041690952A202100000027826700000027826703/12/20211012    3190333624042196419000020750600000296780000000000000                                                                PLACA ELECTRO RETORNO PACIENTE E7506SIN     1
TI0001041690952A202100000027826700000027826703/12/20211012    3190333624042196419000053074400000607910000000000000                                                               GASA ESTERIL 10*10 SOBRE X 3 UNIDADESSOB     2
TI0001041690952A202100000027826700000027826703/12/20211012    3190333624042196419000011085100001082120000000000000                                                                           GUANTE QUIRURGICO TALLA 7SOB     1
TI0001041690952A202100000027826700000027826703/12/20211012    3190333624042196419000043485100001618510000000000000                GUANTE QUIRURGICO DE LATEX REF 2D72N65X CAJ X 50 PROTEXIS  6.5 BN EXENTO-DC.417/2020SOB     3
TI0001041690952A202100000027826700000027826703/12/20211012    3190333624042196419000020056600001101530000000000000                                                                AGUJA HIPODERMICA DESECH 18G X 1 1/2SOB     2
TI0001041690952A202100000027826700000027826703/12/20211012    3190333624042196419000024673600000222980000000000000                                                                     JERINGA DESECHABLE 5 ml 27*11/2SIN     1
TI0001041690952A202100000027826700000027826703/12/20211012    3190333624042196419000024674500000322810000000000000                                                                   JERINGA DESECHABLE 20 ml 21*1 1/2SIN     1
TI0001041690952A202100000027826700000027826703/12/20211012    31903336240421964190000E1AD0200003888320000000000000                                                                              HARTMAN SLN INY 500 MLBOL     2
TI0001041690952A202100000027826700000027826703/12/20211012    31903336240421964190000E1AB0700003888350000000000000                                                            SOLUCION SALINA 0.9% SLN INY BO X 250 MLBOL     1
TI0001041690952A202100000027826700000027826703/12/20211012    31903336240421964190000N02B1100001464120000000000000                                           PARACETAMOL EP 1000MG/100ML(10MG/ML) SOL INY  CAJ X 10FCOVAL     1
TI0001041690952A202100000027826700000027826703/12/20211012    31903336240421964190000N01A0400003939010000000000000                                               MAYOPROFOL 200MG/20ML(1%) EMUL INY CAJ X 1VIAL X 20MLVAL     1
TI0001041690952A202100000027826700000027826703/12/20211012    31903336240421964190000A4AD0200000202990000000000000                                                                     PLITICAN HCL Sln Iny 50 mg/2 mlAMP     1
TI0001041690952A202100000027826700000027826703/12/20211012    31903336240421964190000H02AB500001664950000000000000                                                            DEXAMETASONA SLN INY 8 MG/2 ML AMP /CDS/AMP     1
TI0001041690952A202100000027826700000027826703/12/20211012    31903336240421964190000N01B1300001195250000000000000                                                                         BUPIROP 0.5% S/EPIN X 10 MLAMP     1
TI0001041690952A202100000027826700000027826703/12/20211012    31903336240421964190000N1AH0200003906560000000000000                                                                     FENTANIL Iny 0.05 mg/ml x 10 mlAMP     1
