RC0001146544136H202100000556510700000556510703/12/20211556    31900997237421964250000E1AD0200003888320000000000000                                                                              HARTMAN SLN INY 500 MLBOL     1
RC0001146544136H202100000556510700000556510703/12/20212252    31500363237421964250000E1AD0300000199490000000000000                                         LACTATO RINGER USP (HARTMANN)  SOL INY  BOL X 1000ML BAXTERBIN     1
RC0001146544136H202100000556510700000556510703/12/20210842     3300004237421964250000A12BA100000552980000000000000                                                            CLORURO POTASIO Sln Iny AMP 20 MEQ/10 MLAMP     1
RC0001146544136H202100000556510700000556510703/12/20211858     3300003237421964250000J1FA1600001247370000000000000                                                                  KLARICID POLVO LIOF SLN INY 500 MGVAL     1
RC0001146544136H202100000556510700000556510703/12/20210532     3300009237421964250000J1FA1600001247370000000000000                                                                  KLARICID POLVO LIOF SLN INY 500 MGVAL     1
RC0001146544136H202100000556510700000556510703/12/20211858     3300003237421964250000C03C0100001672000000000000000                                                                       FUROSEMIDA SLN INY 20 MG/2 MLAMP     1
RC0001146544136H202100000556510700000556510703/12/20210532     3300009237421964250000C03C0100001672000000000000000                                                                       FUROSEMIDA SLN INY 20 MG/2 MLAMP     1
RC0001146544136H202100000556510700000556510703/12/20210842     3300004237421964250000J01CR200000947130000000000000                                                              AMPICILINA /SULBACTAN POLVO LIOF 1.5 GAMP     1
RC0001146544136H202100000556510700000556510703/12/20210532     3300009237421964250000J01CR200000947130000000000000                                                              AMPICILINA /SULBACTAN POLVO LIOF 1.5 GAMP     2
RC0001146544136H202100000556510700000556510703/12/20210532     3300009237421964250000N2BB0100001672010000000000000                                  DIPIRONA 1GR/2ML(0.5GR/ML) SOL INY INST CAJ X 100AMP X 2ML VITALISAMP     1
RC0001146544136H202100000556510700000556510703/12/20210842     3300004237421964250000A02BC700001684270000000000000                                                            OMEPRAZOL 40MG POLVO LIOFILIZADO AMPOLLAVAL     1
RC0001146544136H202100000556510700000556510703/12/20211508    31903301237421964250000V07A1300000502600000000000000                                                                                AGUA ESTERIL x 10 mlAMP     4
