CC0000072339909H202100015112734500015112734503/12/20212023    3190099823742196425000035356500003919000000000000000                                                                                        LLAVE 3 VIASSOB     1
CC0001066890191H202100015112734500015112734503/12/20212023    3190099823742196425000035356500003919000000000000000                                                                                        LLAVE 3 VIASSOB     1
CC0000022596813H202100015112734500015112734503/12/20212023    3190099823742196425000011085100001082120000000000000                                                                           GUANTE QUIRURGICO TALLA 7SOB     1
CC0000008530442H202100015112734500015112734503/12/20212023    3190099823742196425000011085100001082120000000000000                                                                           GUANTE QUIRURGICO TALLA 7SOB     2
CC0000072339909H202100015112734500015112734503/12/20212023    3190099823742196425000011085100001082120000000000000                                                                           GUANTE QUIRURGICO TALLA 7SOB     2
CC0001066890191H202100015112734500015112734503/12/20212023    3190099823742196425000011085100001082120000000000000                                                                           GUANTE QUIRURGICO TALLA 7SOB     2
CC0000022596813H202100015112734500015112734503/12/20212023    3190099823742196425000013077800000471960000000000000                                                             GASA NO TEJIDA EST 7.5 X 7.5 SOB X 3 UNSOB    10
CC0000008530442H202100015112734500015112734503/12/20212023    3190099823742196425000013077800000471960000000000000                                                             GASA NO TEJIDA EST 7.5 X 7.5 SOB X 3 UNSOB     5
CC0000072339909H202100015112734500015112734503/12/20212023    3190099823742196425000013077800000471960000000000000                                                             GASA NO TEJIDA EST 7.5 X 7.5 SOB X 3 UNSOB     5
CC0001066890191H202100015112734500015112734503/12/20212023    3190099823742196425000013077800000471960000000000000                                                             GASA NO TEJIDA EST 7.5 X 7.5 SOB X 3 UNSOB    10
CC0000022596813H202100015112734500015112734503/12/20212023    3190099823742196425000042743200003929860000000000000                   GASA ADHESIVA STRETCH REF 02038-00 ROL X 10MT FIXOMULL 15CM BN EXENTO-DC.417/2020CMT    60
CC0001066890191H202100015112734500015112734503/12/20212023    3190099823742196425000042743200003929860000000000000                   GASA ADHESIVA STRETCH REF 02038-00 ROL X 10MT FIXOMULL 15CM BN EXENTO-DC.417/2020CMT    60
CC0000072339909H202100015112734500015112734503/12/20212023    3190099823742196425000022426800001140510000000000000                                                                    EQUIPO MACROGOTEO BAXTER MRC0001SOB     2
CC0001066890191H202100015112734500015112734503/12/20212023    3190099823742196425000022426800001140510000000000000                                                                    EQUIPO MACROGOTEO BAXTER MRC0001SOB     2
CC0000072339909H202100015112734500015112734503/12/20212023    3190099823742196425000011082700001620070000000000000                                                               EQUIPO SET PRIMARIO C/CLAVE REF 14001BOL     2
CC0001066890191H202100015112734500015112734503/12/20212023    3190099823742196425000011082700001620070000000000000                                                               EQUIPO SET PRIMARIO C/CLAVE REF 14001BOL     2
CC0000072339909H202100015112734500015112734503/12/20212023    3190099823742196425000001956000001620610000000000000                                                                      CONECTOR MICRO CLAVE LAT-MC100SOB     3
CC0001066890191H202100015112734500015112734503/12/20212023    3190099823742196425000001956000001620610000000000000                                                                      CONECTOR MICRO CLAVE LAT-MC100SOB     3
CC0000022596813H202100015112734500015112734503/12/20212023    3190099823742196425000000602700001197200000000000000                                                              APOSITO TRANSP  1655 IV 8.5CM X 11.5CMSOB     1
CC0000008530442H202100015112734500015112734503/12/20212023    3190099823742196425000000602700001197200000000000000                                                              APOSITO TRANSP  1655 IV 8.5CM X 11.5CMSOB     1
CC0000072339909H202100015112734500015112734503/12/20212023    3190099823742196425000000602700001197200000000000000                                                              APOSITO TRANSP  1655 IV 8.5CM X 11.5CMSOB     1
CC0001066890191H202100015112734500015112734503/12/20212023    3190099823742196425000000602700001197200000000000000                                                              APOSITO TRANSP  1655 IV 8.5CM X 11.5CMSOB     1
CC0000008530442H202100015112734500015112734503/12/20212023    3190099823742196425000016830000000970620000000000000                                                             SIST FIJACION CAT PERIFERICO 6.5X7 1683SOB     1
CC0000072339909H202100015112734500015112734503/12/20212023    3190099823742196425000016830000000970620000000000000                                                             SIST FIJACION CAT PERIFERICO 6.5X7 1683SOB     1
CC0001066890191H202100015112734500015112734503/12/20212023    3190099823742196425000016830000000970620000000000000                                                             SIST FIJACION CAT PERIFERICO 6.5X7 1683SOB     1
CC0000022596813H202100015112734500015112734503/12/20212023    3190099823742196425000000799100001135000000000000000                                                                    LEUKOMED T PLUS 8X15CMT 72382-02SOB    20
CC0000008530442H202100015112734500015112734503/12/20212023    3190099823742196425000000799100001135000000000000000                                                                    LEUKOMED T PLUS 8X15CMT 72382-02SOB    20
CC0000072339909H202100015112734500015112734503/12/20212023    3190099823742196425000000799100001135000000000000000                                                                    LEUKOMED T PLUS 8X15CMT 72382-02SOB    20
CC0000032776593H202100015112734500015112734503/12/20212023    3190099823742196425000000799100001135000000000000000                                                                    LEUKOMED T PLUS 8X15CMT 72382-02SOB    20
CC0001066890191H202100015112734500015112734503/12/20212023    3190099823742196425000000799100001135000000000000000                                                                    LEUKOMED T PLUS 8X15CMT 72382-02SOB    20
