CC0000064541334H202100000556503300000556503303/12/20211432     3300003237421964250000A2BX0100001277280000000000000                                                                                ALSUCRAL TAB 1 G /R/TAB     1
CC0000064541334H202100000556503300000556503303/12/20210954     3300004237421964250000A2BX0100001277280000000000000                                                                                ALSUCRAL TAB 1 G /R/TAB     1
CC0000064541334H202100000556503300000556503303/12/20211431     3300003237421964250000A2BC0900000200150000000000000                                                                               ORAZOLE Sln Iny 40 mgCIN     1
CC0000064541334H202100000556503300000556503303/12/20210954     3300004237421964250000A2BC0900000200150000000000000                                                                               ORAZOLE Sln Iny 40 mgCIN     1
CC0000064541334H202100000556503300000556503303/12/20211432     3300003237421964250000A4AD0200000202990000000000000                                                                     PLITICAN HCL Sln Iny 50 mg/2 mlAMP     1
CC0000064541334H202100000556503300000556503303/12/20210954     3300004237421964250000A4AD0200000202990000000000000                                                                     PLITICAN HCL Sln Iny 50 mg/2 mlAMP     2
CC0000064541334H202100000556503300000556503303/12/20210006     3300009237421964250000A4AD0200000202990000000000000                                                                     PLITICAN HCL Sln Iny 50 mg/2 mlAMP     1
CC0000064541334H202100000556503300000556503303/12/20211806     3300003237421964250000A7DA0100001303560000000000000                                                                                 LOPERAMIDA TAB 2 MGTAB     3
CC0000064541334H202100000556503300000556503303/12/20211805     3300003237421964250000A7DA0100001303560000000000000                                                                                 LOPERAMIDA TAB 2 MGTAB     1
CC0000064541334H202100000556503300000556503303/12/20210006     3300009237421964250000A7DA0100001303560000000000000                                                                                 LOPERAMIDA TAB 2 MGTAB     2
CC0000064541334H202100000556503300000556503303/12/20210637    31902977237421964250000E1AD0300000199490000000000000                                         LACTATO RINGER USP (HARTMANN)  SOL INY  BOL X 1000ML BAXTERBIN     1
CC0000064541334H202100000556503300000556503303/12/20210954     3300004237421964250000C3AA0100001315100000000000000                                                                         HIDROCLOROTIAZIDA TAB 25 MGTAB     1
CC0000064541334H202100000556503300000556503303/12/20210006     3300009237421964250000C7AB1500001277290000000000000                                                                        BETALOC ZOK TAB LM 50 MG /R/TAB     1
CC0000064541334H202100000556503300000556503303/12/20211613     3300003237421964250000J1DA3100000187510000000000000                                                                           ROCEFIN Polvo SLN INY 1 GCIN     4
CC0000064541334H202100000556503300000556503303/12/20211432     3300003237421964250000G4AC0200001304310000000000000                                                                             MACRODANTINA CAP 100 MGCAP     2
CC0000064541334H202100000556503300000556503303/12/20211431     3300003237421964250000N2BB0500000217140000000000000                                                                          NOVALGINA Sln Iny 1 g/2 mlAMP     1
CC0000064541334H202100000556503300000556503303/12/20210954     3300004237421964250000N2BB0500000217140000000000000                                                                          NOVALGINA Sln Iny 1 g/2 mlAMP     1
CC0000064541334H202100000556503300000556503303/12/20210006     3300009237421964250000N2BB0500000217140000000000000                                                                          NOVALGINA Sln Iny 1 g/2 mlAMP     1
CC0000064541334H202100000556503300000556503303/12/20210006     3300009237421964250000N03A0800001278440000000000000                                                                                LYRICA CAP 75 MG /R/CAP     1
CC0000064541334H202100000556503300000556503303/12/20211657     3300003237421964250000N06A2000001300900000000000000                                                                             AMITRIPTILINA TAB 25 MGTAB     1
CC0000064541334H202100000556503300000556503303/12/20211059    31903291237421964250000V07A1300000502600000000000000                                                                                AGUA ESTERIL x 10 mlAMP    10
