CC0001045690161H202100000556536100000556536103/12/20212312    31500391237421964250000E1AD0300000199490000000000000                                         LACTATO RINGER USP (HARTMANN)  SOL INY  BOL X 1000ML BAXTERBIN     1
CC0001045690161H202100000556536100000556536103/12/20211605     3300003237421964250000J1DA3100000187510000000000000                                                                           ROCEFIN Polvo SLN INY 1 GCIN     4
CC0001045690161H202100000556536100000556536103/12/20211605     3300003237421964250000N2BB0200000513030000000000000                                                                           LISALGIL Sln Iny 2 g/5 mlAMP     4
