CC0000019490174H202100015112734600015112734603/12/20212038    3190145023742196425000013077800000471960000000000000                                                             GASA NO TEJIDA EST 7.5 X 7.5 SOB X 3 UNSOB     4
CC0001143115935H202100015112734600015112734603/12/20212038    3190145023742196425000013077800000471960000000000000                                                             GASA NO TEJIDA EST 7.5 X 7.5 SOB X 3 UNSOB     4
CC0001143115935H202100015112734600015112734603/12/20212038    3190145023742196425000011082900001233450000000000000                                                               EQUIPO LC 5000 PRIMARIO FOTOPRO 0L218SOB     1
PE0082549771210H202100015112734600015112734603/12/20212038    3190145023742196425000011082700001620070000000000000                                                               EQUIPO SET PRIMARIO C/CLAVE REF 14001BOL     1
CC0000072218236H202100015112734600015112734603/12/20212038    3190145023742196425000011082700001620070000000000000                                                               EQUIPO SET PRIMARIO C/CLAVE REF 14001BOL     1
PE0082549771210H202100015112734600015112734603/12/20212038    3190145023742196425000001956000001620610000000000000                                                                      CONECTOR MICRO CLAVE LAT-MC100SOB     1
PE0082549771210H202100015112734600015112734603/12/20212038    31901450237421964250000Q1AA7200000610630000000000000                                                            CATETER PERIFE INTROCAN # 20G 4251644-04SIN     2
CC0001143115935H202100015112734600015112734603/12/20212038    3190145023742196425000030936900001431840000000000000                                                                                              BURETABOL     1
CC0000019490174H202100015112734600015112734603/12/20212038    3190145023742196425000000602700001197200000000000000                                                              APOSITO TRANSP  1655 IV 8.5CM X 11.5CMSOB     1
CC0001143115935H202100015112734600015112734603/12/20212038    3190145023742196425000000602700001197200000000000000                                                              APOSITO TRANSP  1655 IV 8.5CM X 11.5CMSOB     1
