RC0001240292997H202100000556501700000556501703/12/20212341     3300009237421964250000V3AB2200000614150000000000000                                                            GLUCONATO CALCIO SLN INY 10% AMP X 10 MLAPC     2
RC0001240292997H202100000556501700000556501703/12/20211829     3300003237421964250000V3AB2200000614150000000000000                                                            GLUCONATO CALCIO SLN INY 10% AMP X 10 MLAPC    16
RC0001240292997H202100000556501700000556501703/12/20211814    31500453237421964250000E1AC0100000199400000000000000                                                                          SUERO MIXTO Sln Iny 500 mlBIN     3
RC0001240292997H202100000556501700000556501703/12/20211805    31901009237421964250000E1AB0200000199290000000000000                                                            SOLUCION SALINA 0.9% SLN INY BO X 100 MLBIN     2
RC0001240292997H202100000556501700000556501703/12/20211325    31903016237421964250000E1AB0200000199290000000000000                                                            SOLUCION SALINA 0.9% SLN INY BO X 100 MLBIN     2
RC0001240292997H202100000556501700000556501703/12/20211325    31903016237421964250000E1AB0700003888350000000000000                                                            SOLUCION SALINA 0.9% SLN INY BO X 250 MLBOL     1
RC0001240292997H202100000556501700000556501703/12/20211814    31500453237421964250000E1AB0300003888390000000000000                                                            SOLUCION SALINA 0.9% SLN INY BO X 500 MLBOL     2
RC0001240292997H202100000556501700000556501703/12/20210540    31500566237421964250000E1AB0300003888390000000000000                                                            SOLUCION SALINA 0.9% SLN INY BO X 500 MLBOL     1
RC0001240292997H202100000556501700000556501703/12/20211814    31500453237421964250000E1AD0200003888320000000000000                                                                              HARTMAN SLN INY 500 MLBOL     1
RC0001240292997H202100000556501700000556501703/12/20211444     3300010237421964250000A12BA100000552980000000000000                                                            CLORURO POTASIO Sln Iny AMP 20 MEQ/10 MLAMP     1
RC0001240292997H202100000556501700000556501703/12/20212341     3300009237421964250000S2BA0200000468180000000000000                                                                   SOLU-MEDROL SLN INY 40 MG/ML  /R/VAL     1
RC0001240292997H202100000556501700000556501703/12/20211828     3300003237421964250000S2BA0200000468180000000000000                                                                   SOLU-MEDROL SLN INY 40 MG/ML  /R/VAL     1
RC0001240292997H202100000556501700000556501703/12/20211444     3300010237421964250000S2BA0200000468180000000000000                                                                   SOLU-MEDROL SLN INY 40 MG/ML  /R/VAL     1
RC0001240292997H202100000556501700000556501703/12/20210944     3300004237421964250000S2BA0200000468180000000000000                                                                   SOLU-MEDROL SLN INY 40 MG/ML  /R/VAL     1
RC0001240292997H202100000556501700000556501703/12/20210000     3300009237421964250000S2BA0200000468180000000000000                                                                   SOLU-MEDROL SLN INY 40 MG/ML  /R/VAL     1
RC0001240292997H202100000556501700000556501703/12/20210944     3300004237421964250000J1CA1100000954140000000000000                                                                    AMPICILINA AMP POLVO SLN INY 1 GVAL     2
RC0001240292997H202100000556501700000556501703/12/20210000     3300009237421964250000J1CA1100000954140000000000000                                                                    AMPICILINA AMP POLVO SLN INY 1 GVAL     1
RC0001240292997H202100000556501700000556501703/12/20211828     3300003237421964250000J01DB300000553200000000000000                                                                         CEFALOTINA SLN INY 1 G VIALVAL     1
RC0001240292997H202100000556501700000556501703/12/20212340     3300009237421964250000J1FA1600001247370000000000000                                                                  KLARICID POLVO LIOF SLN INY 500 MGVAL     2
RC0001240292997H202100000556501700000556501703/12/20211325    31903016237421964250000V4AF1000003850710000000000000                                                                    OMNIPAQUE Sln Iny 300 mg x 50 mlFCO     2
RC0001240292997H202100000556501700000556501703/12/20212340     3300009237421964250000N1AH0200003906560000000000000                                                                     FENTANIL Iny 0.05 mg/ml x 10 mlAMP     1
RC0001240292997H202100000556501700000556501703/12/20211655     3300003237421964250000N1AH0200003906560000000000000                                                                     FENTANIL Iny 0.05 mg/ml x 10 mlAMP     1
RC0001240292997H202100000556501700000556501703/12/20212342     3300009237421964250000R3CA0100001051880000000000000                                                               ADRENALINA HCL SLN INY 1 MG / ML ECARAMP     3
RC0001240292997H202100000556501700000556501703/12/20212341     3300009237421964250000R3CA0100001051880000000000000                                                               ADRENALINA HCL SLN INY 1 MG / ML ECARAMP     3
RC0001240292997H202100000556501700000556501703/12/20211444     3300010237421964250000R3CA0100001051880000000000000                                                               ADRENALINA HCL SLN INY 1 MG / ML ECARAMP     3
RC0001240292997H202100000556501700000556501703/12/20210944     3300004237421964250000C03D0200001334290000000000000                                                                           ESPIRONOLACTONA TAB 25 MGTAB     1
RC0001240292997H202100000556501700000556501703/12/20210000     3300009237421964250000C03D0200001334290000000000000                                                                           ESPIRONOLACTONA TAB 25 MGTAB     1
RC0001240292997H202100000556501700000556501703/12/20212342     3300009237421964250000C03C0100001672000000000000000                                                                       FUROSEMIDA SLN INY 20 MG/2 MLAMP     2
RC0001240292997H202100000556501700000556501703/12/20211444     3300010237421964250000C09AA400001391450000000000000                                                                                 ENALAPRIL TAB 20 MGTAB     1
RC0001240292997H202100000556501700000556501703/12/20212340     3300009237421964250000J01CR200000947130000000000000                                                              AMPICILINA /SULBACTAN POLVO LIOF 1.5 GAMP     1
RC0001240292997H202100000556501700000556501703/12/20211444     3300010237421964250000J01CR200000947130000000000000                                                              AMPICILINA /SULBACTAN POLVO LIOF 1.5 GAMP     1
RC0001240292997H202100000556501700000556501703/12/20212342     3300009237421964250000N2BB0100001672010000000000000                                  DIPIRONA 1GR/2ML(0.5GR/ML) SOL INY INST CAJ X 100AMP X 2ML VITALISAMP     1
RC0001240292997H202100000556501700000556501703/12/20211444     3300010237421964250000A02BC700001684270000000000000                                                            OMEPRAZOL 40MG POLVO LIOFILIZADO AMPOLLAVAL     1
RC0001240292997H202100000556501700000556501703/12/20211055    31903291237421964250000V07A1300000502600000000000000                                                                                AGUA ESTERIL x 10 mlAMP     5
