CC0000032736220H202100000556531000000556531003/12/20211255    31902138237421964250000V6DF2000001629900000000000000                                                                     ENSURE PLUS HN LIQUIDO X 237 MLFCO     4
CC0000032736220H202100000556531000000556531003/12/20211255    31902138237421964250000A03F0500001692520000000000000                                                                   ALIZAPRIDA HCL SLN INY 50 MG/2 MLAMP     3
CC0000032736220H202100000556531000000556531003/12/20211255    31902138237421964250000A03BB100003889180000000000000                                      HIOSCINA BUTIL BROMURO 20MG/ML SOL INY CAJ X 100AMP X 1ML RYANAMP     3
CC0000032736220H202100000556531000000556531003/12/20211255    31902138237421964250000N2AX0900001672040000000000000                                                                              TRAMADOL SLN INY 50 MGAMP     3
