CC0001143115935H202100015112732600015112732603/12/20210707    3190010323742196425000030161400001459220000000000000                                                                       MANGUERA SUCCION 6 MM*3.1 MTSSOB     1
CC0001143115935H202100015112732600015112732603/12/20210707    3190010323742196425000039175100001072060000000000000                                                                           TUBO ENDOTRAQUEAL C/B 7.5SOB     1
CC0001143115935H202100015112732600015112732603/12/20210707    3190010323742196425000039176700001029620000000000000                                                                    SUJETADOR TUBO ENDOTRAQUEAL 9799SOB     1
CC0001143115935H202100015112732600015112732603/12/20210707    3190010323742196425000022108000003906060000000000000                                                            SIST CERRAD ASPIRAC TRACH  22108-5 14 FRSOB     1
CC0001143115935H202100015112732600015112732603/12/20210707    3190010323742196425000010252000003981620000000000000                                                            RESUCITADOR MANUAL ADULTO BE - 2503 AMBUBOL     1
CC0001143115935H202100015112732600015112732603/12/20210707    3190010323742196425000036441300000236540000000000000                                                                    JERINGA 1 ML GASES ARTERIAL 9023SIN     8
CC0001143115935H202100015112732600015112732603/12/20210707    3190010323742196425000024674000001138340000000000000   JERINGA 3PARTES C/A 10ML REF JEHL005 CAJ X 100 ALFASAFE  21GX1 PULG 1/2 PULG BN EXENTO-DC.417/202PZA    10
CC0001143115935H202100015112732600015112732603/12/20210707    3190010323742196425000043492400000516570000000000000                                                                   GUIA P/TUBO ENDOTRAQ ADULTO 85865SIN     1
CC0001143115935H202100015112732600015112732603/12/20210707    3190010323742196425000013077800000471960000000000000                                                             GASA NO TEJIDA EST 7.5 X 7.5 SOB X 3 UNSOB    10
CC0001143115935H202100015112732600015112732603/12/20210707    3190010323742196425000020816000001096410000000000000                                                                          LINER PARED DELGADA 1500CCBOL     1
