CC0001045670902H202100921187120300921187120303/12/20210417    31903107237421964250000E1AB0500003888400000000000000                                                              SOLUCION SALINA 0.9% SLN INY X 1000 MLBOL     1
CC0001045670902H202100921187120300921187120303/12/20210827    3190329123742196425000024674000001138340000000000000   JERINGA 3PARTES C/A 10ML REF JEHL005 CAJ X 100 ALFASAFE  21GX1 PULG 1/2 PULG BN EXENTO-DC.417/202PZA    10
CC0001045670902H202100921187120300921187120303/12/20211021    3150047823742196425000024674000001138340000000000000   JERINGA 3PARTES C/A 10ML REF JEHL005 CAJ X 100 ALFASAFE  21GX1 PULG 1/2 PULG BN EXENTO-DC.417/202PZA    10
