CC0000007411669H202100015042534900015042534903/12/20212039    3190306223742196425000001956000001620610000000000000                                                                      CONECTOR MICRO CLAVE LAT-MC100SOB     1
CC0000007411669H202100015042534900015042534903/12/20212039    3190306223742196425000016830000000970620000000000000                                                             SIST FIJACION CAT PERIFERICO 6.5X7 1683SOB     1
CC0001140828821H202100015042534900015042534903/12/20212039    31903062237421964250000E1AB0500003888400000000000000                                                              SOLUCION SALINA 0.9% SLN INY X 1000 MLBOL     2
CC0000072277171H202100015042534900015042534903/12/20212039    31903062237421964250000E1AB0500003888400000000000000                                                              SOLUCION SALINA 0.9% SLN INY X 1000 MLBOL     2
CC0001151478323H202100015042534900015042534903/12/20212039    31903062237421964250000E1AB0500003888400000000000000                                                              SOLUCION SALINA 0.9% SLN INY X 1000 MLBOL     2
CC0001129577696H202100015042534900015042534903/12/20212039    31903062237421964250000E1AB0500003888400000000000000                                                              SOLUCION SALINA 0.9% SLN INY X 1000 MLBOL     2
CC0000032632813H202100015042534900015042534903/12/20212039    31903062237421964250000E1AB0500003888400000000000000                                                              SOLUCION SALINA 0.9% SLN INY X 1000 MLBOL     2
RC0001146543342H202100015042534900015042534903/12/20212039    31903062237421964250000E1AC0100000199400000000000000                                                                          SUERO MIXTO Sln Iny 500 mlBIN     2
TI0001066284726H202100015042534900015042534903/12/20212039    31903062237421964250000E1AC0100000199400000000000000                                                                          SUERO MIXTO Sln Iny 500 mlBIN     2
