RC0001048081009U202100050131907300050131907303/12/20212039    3190317523942196432000011082700001620070000000000000                                                               EQUIPO SET PRIMARIO C/CLAVE REF 14001BOL     1
RC0001048081009U202100050131907300050131907303/12/20212039    31903175239421964320000Q1AA7400003911720000000000000                                                            CATETER PERIFE INTROCAN # 24G 4251601-04SOB     1
RC0001048081009U202100050131907300050131907303/12/20212039    3190317523942196432000000602600001259280000000000000                                                             APOSITO TEGADERM IV PD 1610 5CM X 5.7CMSOB     1
RC0001048081009U202100050131907300050131907303/12/20212039    31903175239421964320000E1AB0300003888390000000000000                                                            SOLUCION SALINA 0.9% SLN INY BO X 500 MLBOL     1
