CC0000022438763H202100000556513200000556513203/12/20211556    31900997237421964250000E1AD0200003888320000000000000                                                                              HARTMAN SLN INY 500 MLBOL     1
CC0000022438763H202100000556513200000556513203/12/20212251    31500363237421964250000E1AD0300000199490000000000000                                         LACTATO RINGER USP (HARTMANN)  SOL INY  BOL X 1000ML BAXTERBIN     1
CC0000022438763H202100000556513200000556513203/12/20210650    31500519237421964250000E1AD0300000199490000000000000                                         LACTATO RINGER USP (HARTMANN)  SOL INY  BOL X 1000ML BAXTERBIN     1
CC0000022438763H202100000556513200000556513203/12/20210840     3300004237421964250000J01XA400001212420000000000000                                                               VANCOMICINA POLVO LIOF SLN INY 500 MGVAL     2
CC0000022438763H202100000556513200000556513203/12/20210840     3300004237421964250000A11A2200001050880000000000000                                                                 GLUCERNA LIQUIDO 1.5 KCAL X 1000 MLFCO     1
CC0000022438763H202100000556513200000556513203/12/20210839     3300004237421964250000J01DD500001239970000000000000                                                                  CEFTRIAXONA POLVO LIOF SLN INY 1 GVAL     2
CC0000022438763H202100000556513200000556513203/12/20210840     3300004237421964250000J3CA0300001673190000000000000                               METRONIDAZOL 500MG/100ML(5MG/ML) SOL INY  CAJ X 84BOL X 100ML CORPAULBOL     2
CC0000022438763H202100000556513200000556513203/12/20211850     3300003237421964250000N2AX0900001672040000000000000                                                                              TRAMADOL SLN INY 50 MGAMP     1
CC0000022438763H202100000556513200000556513203/12/20210840     3300004237421964250000N2AX0900001672040000000000000                                                                              TRAMADOL SLN INY 50 MGAMP     3
CC0000022438763H202100000556513200000556513203/12/20211505    31903301237421964250000V07A1300000502600000000000000                                                                                AGUA ESTERIL x 10 mlAMP     4
