CC0001045690161A202100000027824200000027824203/12/20211823    3190333624042196419000030936900001431840000000000000                                                                                              BURETABOL     1
CC0001045690161A202100000027824200000027824203/12/20211823    3190333624042196419000020750600000296780000000000000                                                                PLACA ELECTRO RETORNO PACIENTE E7506SIN     1
CC0001045690161A202100000027824200000027824203/12/20211823    3190333624042196419000045138000001413890000000000000                                                                       LAPIZ ELECTROBISTURI  SOB X 1SOB     1
CC0001045690161A202100000027824200000027824203/12/20211823    31903336240421964190000M3AC0600000720540000000000000                                                                         ESMERON SLN INY 50 MG /5 MLVAL     1
CC0001045690161A202100000027824200000027824203/12/20211823    31903336240421964190000M03AB200001371510000000000000                                                             SUCCINILCOLINA SNL INY 100MG/ML X 10 MLVAL     1
CC0001045690161A202100000027824200000027824203/12/20211823    3190333624042196419000011099300000777780000000000000                                                                     FILTRO BACTERIANO VIRICO ADULTOBOL     1
CC0001045690161A202100000027824200000027824203/12/20211823    31903336240421964190000E1AB0300003888390000000000000                                                            SOLUCION SALINA 0.9% SLN INY BO X 500 MLBOL     2
CC0001045690161A202100000027824200000027824203/12/20211823    31903336240421964190000N1BA1900000554750000000000000                                                                     ROXICAINA JALEA 2% TUBO X 30 MLTUB     1
CC0001045690161A202100000027824200000027824203/12/20211823    31903336240421964190000V4AF1000003850710000000000000                                                                    OMNIPAQUE Sln Iny 300 mg x 50 mlFCO     1
CC0001045690161A202100000027824200000027824203/12/20211823    31903336240421964190000E1AB0500003888400000000000000                                                              SOLUCION SALINA 0.9% SLN INY X 1000 MLBOL    12
CC0001045690161A202100000027824200000027824203/12/20211823    3190333624042196419000024675000001585130000000000000                                                                    JERINGA DESECHABLE 50 ml S/AGUJASOB     2
CC0001045690161A202100000027824200000027824203/12/20211823    3190333624042196419000031188000000236790000000000000                                                                                     CISTOFLO ADULTOSIN     2
CC0001045690161A202100000027824200000027824203/12/20211823    3190333624042196419000038570100001124990000000000000                                                                              SONDA FOLEY #18 2 VIASSOB     2
CC0001045690161A202100000027824200000027824203/12/20211823    3190333624042196419000012472400000232190000000000000                                                                 SUTURA ETHILON 2-0 SC-26 45CM  164TSIN     1
CC0001045690161A202100000027824200000027824203/12/20211823    3190333624042196419000022424500000236720000000000000                                                                     EQUIPO EN Y IRRIGA ARC4005 4006SOB     1
CC0001045690161A202100000027824200000027824203/12/20211823    3190333624042196419000043879200001138180000000000000                                                                                   HOJA BISTURI # 11SOB     1
CC0001045690161A202100000027824200000027824203/12/20211823    3190333624042196419000049059900000267420000000000000                                                                 MEDIA ANTIEMBOLICA TAL M 3416LF PARBOL     1
CC0001045690161A202100000027824200000027824203/12/20211823    31903336240421964190000J01DA300001239950000000000000                                                            CEFAZOLINA SODICA POLVO LIOF SLN INY 1 GVAL     2
CC0001045690161A202100000027824200000027824203/12/20211823    3190333624042196419000016830000000970620000000000000                                                             SIST FIJACION CAT PERIFERICO 6.5X7 1683SOB     1
CC0001045690161A202100000027824200000027824203/12/20211823    31903336240421964190000Q1AA7100000610620000000000000                                                            CATETER PERIFE INTROCAN # 18G 4251687-04SIN     1
CC0001045690161A202100000027824200000027824203/12/20211823    3190333624042196419000035356500003919000000000000000                                                                                        LLAVE 3 VIASSOB     2
CC0001045690161A202100000027824200000027824203/12/20211823    3190333624042196419000022425200000548240000000000000                       EXTENSION DE ANESTESIA REF 1139 SOB X 1 SHERLEG  ADULTO BN EXENTO-DC.417/2020SIN     1
CC0001045690161A202100000027824200000027824203/12/20211823    3190333624042196419000022426800001140510000000000000                                                                    EQUIPO MACROGOTEO BAXTER MRC0001SOB     2
CC0001045690161A202100000027824200000027824203/12/20211823    3190333624042196419000024673000001411210000000000000                                                                  JERINGA DESECHABLE 3 ML 21 X 1 1/2SOB     1
CC0001045690161A202100000027824200000027824203/12/20211823    3190333624042196419000024673600000222980000000000000                                                                     JERINGA DESECHABLE 5 ml 27*11/2SIN     2
CC0001045690161A202100000027824200000027824203/12/20211823    3190333624042196419000024674000001138340000000000000   JERINGA 3PARTES C/A 10ML REF JEHL005 CAJ X 100 ALFASAFE  21GX1 PULG 1/2 PULG BN EXENTO-DC.417/202PZA     7
CC0001045690161A202100000027824200000027824203/12/20211823    3190333624042196419000043485100001618510000000000000                GUANTE QUIRURGICO DE LATEX REF 2D72N65X CAJ X 50 PROTEXIS  6.5 BN EXENTO-DC.417/2020SOB     3
CC0001045690161A202100000027824200000027824203/12/20211823    3190333624042196419000011085100001082120000000000000                                                                           GUANTE QUIRURGICO TALLA 7SOB     2
CC0001045690161A202100000027824200000027824203/12/20211823    3190333624042196419000011085200001585390000000000000                                                                       GUANTE QUIRURGICO TALLA 7 1/2SOB     2
CC0001045690161A202100000027824200000027824203/12/20211823    3190333624042196419000053074400000607910000000000000                                                               GASA ESTERIL 10*10 SOBRE X 3 UNIDADESSOB     3
CC0001045690161A202100000027824200000027824203/12/20211823    3190333624042196419000011082700001620070000000000000                                                               EQUIPO SET PRIMARIO C/CLAVE REF 14001BOL     1
CC0001045690161A202100000027824200000027824203/12/20211823    3190333624042196419000051515500000598160000000000000                                                                            MASCARILLA ANESTESIA # 5SIN     1
CC0001045690161A202100000027824200000027824203/12/20211823    3190333624042196419000039176200000325450000000000000                                                             TUBO ENDOTRAQ 7.5 C/B Y ESPIRAL INTERNOSIN     1
CC0001045690161A202100000027824200000027824203/12/20211823    3190333624042196419000031010900000762730000000000000                                                                          CANULA GUEDEL # 4 (100 MM)SOB     1
CC0001045690161A202100000027824200000027824203/12/20211823    3190333624042196419000038568100000258050000000000000                                                                         CANULA OXIGENO NASAL ADULTOSIN     1
CC0001045690161A202100000027824200000027824203/12/20211823    3190333624042196419000030161400001459220000000000000                                                                       MANGUERA SUCCION 6 MM*3.1 MTSSOB     1
CC0001045690161A202100000027824200000027824203/12/20211823    3190333624042196419000011073300001096420000000000000                                                                BOLSA DE SUCCION DE FLUIDOS x 2500mLBOL     1
CC0001045690161A202100000027824200000027824203/12/20211823    31903336240421964190000E1AD0200003888320000000000000                                                                              HARTMAN SLN INY 500 MLBOL     1
CC0001045690161A202100000027824200000027824203/12/20211823    31903336240421964190000E1AB0700003888350000000000000                                                            SOLUCION SALINA 0.9% SLN INY BO X 250 MLBOL     1
CC0001045690161A202100000027824200000027824203/12/20211823    31903336240421964190000N01A0400003939010000000000000                                               MAYOPROFOL 200MG/20ML(1%) EMUL INY CAJ X 1VIAL X 20MLVAL     1
CC0001045690161A202100000027824200000027824203/12/20211823    31903336240421964190000M01A0600000178090000000000000                                                                     KETOROLACO SLN INY 30 MG/ML /R/AMP     1
CC0001045690161A202100000027824200000027824203/12/20211823    31903336240421964190000A03F0300001626860000000000000                                                                   METOCLOPRAMIDA SLN INY 10 MG/2 MLAMP     1
CC0001045690161A202100000027824200000027824203/12/20211823    31903336240421964190000N2BB1100000217160000000000000                                                                      NOVALGINA Sln Iny 2.5 g x 5 mlAMP     1
CC0001045690161A202100000027824200000027824203/12/20211823    31903336240421964190000H02AB500001664950000000000000                                                            DEXAMETASONA SLN INY 8 MG/2 ML AMP /CDS/AMP     1
CC0001045690161A202100000027824200000027824203/12/20211823    31903336240421964190000N1BA2400001687720000000000000                                                    LIDOCAINA 2% SOL INY  CAJ X 50AMP X 10ML CORPAULAMP     1
CC0001045690161A202100000027824200000027824203/12/20211823    31903336240421964190000N1AH0200003906560000000000000                                                                     FENTANIL Iny 0.05 mg/ml x 10 mlAMP     1
