CC0000022388537A202100000027825600000027825603/12/20211130    3190333624042196419000042743200003929860000000000000                   GASA ADHESIVA STRETCH REF 02038-00 ROL X 10MT FIXOMULL 15CM BN EXENTO-DC.417/2020CMT    50
CC0000022388537A202100000027825600000027825603/12/20211130    3190333624042196419000019487800001585180000000000000                                                                    VICRYL 1 PLUS 70 CM CT-1 VCP341HSOB     2
CC0000022388537A202100000027825600000027825603/12/20211130    31903336240421964190000J01FF200003888100000000000000                                                                             EUROCLIN SLN INY 600 MGAMP     1
CC0000022388537A202100000027825600000027825603/12/20211130    3190333624042196419000038569900001124970000000000000                                                                              SONDA FOLEY #14 2 VIASSOB     1
CC0000022388537A202100000027825600000027825603/12/20211130    3190333624042196419000031188000000236790000000000000                                                                                     CISTOFLO ADULTOSIN     1
CC0000022388537A202100000027825600000027825603/12/20211130    3190333624042196419000019992300000233100000000000000                                                             VICRYL RAPID INC 3-0 70CM PS2 (VR9923G)SIN     1
CC0000022388537A202100000027825600000027825603/12/20211130    3190333624042196419000000500300001135650000000000000                                                                     BIOSYN 2/0 GS- 21-90CM REF CM92PZA     1
CC0000022388537A202100000027825600000027825603/12/20211130    3190333624042196419000030161400001459220000000000000                                                                       MANGUERA SUCCION 6 MM*3.1 MTSSOB     1
CC0000022388537A202100000027825600000027825603/12/20211130    3190333624042196419000043879500001138210000000000000                                                                                    HOJA BISTURI #20SOB     1
CC0000022388537A202100000027825600000027825603/12/20211130    3190333624042196419000022425200000548240000000000000                       EXTENSION DE ANESTESIA REF 1139 SOB X 1 SHERLEG  ADULTO BN EXENTO-DC.417/2020SIN     1
CC0000022388537A202100000027825600000027825603/12/20211130    3190333624042196419000035356500003919000000000000000                                                                                        LLAVE 3 VIASSOB     1
CC0000022388537A202100000027825600000027825603/12/20211130    31903336240421964190000Q1AA7100000610620000000000000                                                            CATETER PERIFE INTROCAN # 18G 4251687-04SIN     4
CC0000022388537A202100000027825600000027825603/12/20211130    3190333624042196419000022426800001140510000000000000                                                                    EQUIPO MACROGOTEO BAXTER MRC0001SOB     1
CC0000022388537A202100000027825600000027825603/12/20211130    3190333624042196419000016830000000970620000000000000                                                             SIST FIJACION CAT PERIFERICO 6.5X7 1683SOB     1
CC0000022388537A202100000027825600000027825603/12/20211130    3190333624042196419000011073300001096420000000000000                                                                BOLSA DE SUCCION DE FLUIDOS x 2500mLBOL     1
CC0000022388537A202100000027825600000027825603/12/20211130    3190333624042196419000020750600000296780000000000000                                                                PLACA ELECTRO RETORNO PACIENTE E7506SIN     1
CC0000022388537A202100000027825600000027825603/12/20211130    3190333624042196419000053074400000607910000000000000                                                               GASA ESTERIL 10*10 SOBRE X 3 UNIDADESSOB     4
CC0000022388537A202100000027825600000027825603/12/20211130    3190333624042196419000011047900000223010000000000000                                                                            JERINGA X 1ML REF 302579SIN     1
CC0000022388537A202100000027825600000027825603/12/20211130    3190333624042196419000024673600000222980000000000000                                                                     JERINGA DESECHABLE 5 ml 27*11/2SIN     3
CC0000022388537A202100000027825600000027825603/12/20211130    3190333624042196419000024674000001138340000000000000   JERINGA 3PARTES C/A 10ML REF JEHL005 CAJ X 100 ALFASAFE  21GX1 PULG 1/2 PULG BN EXENTO-DC.417/202PZA     6
CC0000022388537A202100000027825600000027825603/12/20211130    3190333624042196419000011085300001082140000000000000                                                                           GUANTE QUIRURGICO TALLA 8SOB     2
CC0000022388537A202100000027825600000027825603/12/20211130    3190333624042196419000011085200001585390000000000000                                                                       GUANTE QUIRURGICO TALLA 7 1/2SOB     5
CC0000022388537A202100000027825600000027825603/12/20211130    3190333624042196419000011085100001082120000000000000                                                                           GUANTE QUIRURGICO TALLA 7SOB     5
CC0000022388537A202100000027825600000027825603/12/20211130    3190333624042196419000043485100001618510000000000000                GUANTE QUIRURGICO DE LATEX REF 2D72N65X CAJ X 50 PROTEXIS  6.5 BN EXENTO-DC.417/2020SOB     1
CC0000022388537A202100000027825600000027825603/12/20211130    3190333624042196419000038568100000258050000000000000                                                                         CANULA OXIGENO NASAL ADULTOSIN     1
CC0000022388537A202100000027825600000027825603/12/20211130    3190333624042196419000020059900000225180000000000000                                                              AGUJA SPINOCAN 26G X 3 1/2 PU  4502906SIN     1
CC0000022388537A202100000027825600000027825603/12/20211130    31903336240421964190000E1AD0200003888320000000000000                                                                              HARTMAN SLN INY 500 MLBOL     2
CC0000022388537A202100000027825600000027825603/12/20211130    31903336240421964190000E1AB0300003888390000000000000                                                            SOLUCION SALINA 0.9% SLN INY BO X 500 MLBOL     3
CC0000022388537A202100000027825600000027825603/12/20211130    31903336240421964190000E1AB0200000199290000000000000                                                            SOLUCION SALINA 0.9% SLN INY BO X 100 MLBIN     1
CC0000022388537A202100000027825600000027825603/12/20211130    31903336240421964190000M01A0400001341250000000000000                                                                              DYNASTAT AMP 40 MG /R/VAL     1
CC0000022388537A202100000027825600000027825603/12/20211130    31903336240421964190000A4AD0200000202990000000000000                                                                     PLITICAN HCL Sln Iny 50 mg/2 mlAMP     1
CC0000022388537A202100000027825600000027825603/12/20211130    31903336240421964190000N2BB1100000217160000000000000                                                                      NOVALGINA Sln Iny 2.5 g x 5 mlAMP     1
CC0000022388537A202100000027825600000027825603/12/20211130    31903336240421964190000H02AB500001664950000000000000                                                            DEXAMETASONA SLN INY 8 MG/2 ML AMP /CDS/AMP     1
CC0000022388537A202100000027825600000027825603/12/20211130    31903336240421964190000C01C0300001261020000000000000                                                               ETILEFRINA HCL SLN INY 10 MG/1 ML /R/AMP     1
CC0000022388537A202100000027825600000027825603/12/20211130    31903336240421964190000N01A0400003939010000000000000                                               MAYOPROFOL 200MG/20ML(1%) EMUL INY CAJ X 1VIAL X 20MLVAL     1
CC0000022388537A202100000027825600000027825603/12/20211130    31903336240421964190000N1BA0500000647360000000000000                                                                  BUPIROP 0.5% PESADO SLN INY X 4 MLAPC     2
CC0000022388537A202100000027825600000027825603/12/20211130    31903336240421964190000N2AA0100000301640000000000000                                                                            MORFINA Sln Iny 10 mg/mlAMP     1
CC0000022388537A202100000027825600000027825603/12/20211130    31903336240421964190000N1AH0200003906560000000000000                                                                     FENTANIL Iny 0.05 mg/ml x 10 mlAMP     1
CC0000022388537A202100000027825600000027825603/12/20211130    31903336240421964190000N5CD0300000218170000000000000                                                              DORMICUM IV-IM 5MG/5ML(1MG/ML) SOL INYAMP     1
