CC0000022467890A202100000027822100000027822103/12/20210846    31903336240421964190000C01CA200001573670000000000000                                                               ETILEFRINA HCL SLN INY 10 MG/1 ML /R/AMP     1
CC0000022467890A202100000027822100000027822103/12/20210846    31903336240421964190000E1AB0500003888400000000000000                                                              SOLUCION SALINA 0.9% SLN INY X 1000 MLBOL     1
CC0000022467890A202100000027822100000027822103/12/20210846    3190333624042196419000040514100000228740000000000000                                                               BARRERA COLOSTOMIA CONVATEC 57 125145PZA     3
CC0000022467890A202100000027822100000027822103/12/20210846    3190333624042196419000017803600000228850000000000000                                                                            PASTA STOMAHESIVE 56.7 gCAJ     1
CC0000022467890A202100000027822100000027822103/12/20210846    3190333624042196419000047373400000228840000000000000                                                                             PINZA COLOSTOMIA 175635PZA     3
CC0000022467890A202100000027822100000027822103/12/20210846    3190333624042196419000040516100000228660000000000000                                                                 BOLSA COLOSTOMIA CONVATEC 57 402534PZA     3
CC0000022467890A202100000027822100000027822103/12/20210846    3190333624042196419000011068800001418370000000000000                                                              V.A.C. WHITEFOAM SMALL 10*7.5 M6275033PZA     1
CC0000022467890A202100000027822100000027822103/12/20210846    3190333624042196419000062750100001405910000000000000                                                                 INFOVAC CANISTER 1000 ML M8275093/5SOB     1
CC0000022467890A202100000027822100000027822103/12/20210846    3190333624042196419000082750900001418360000000000000                                                            APOSITO VAC GRANUFOA SILVER M M8275096/5PZA     1
CC0000022467890A202100000027822100000027822103/12/20210846    3190333624042196419000022425200000548240000000000000                       EXTENSION DE ANESTESIA REF 1139 SOB X 1 SHERLEG  ADULTO BN EXENTO-DC.417/2020SIN     1
CC0000022467890A202100000027822100000027822103/12/20210846    3190333624042196419000035356500003919000000000000000                                                                                        LLAVE 3 VIASSOB     1
CC0000022467890A202100000027822100000027822103/12/20210846    31903336240421964190000Q1AA7100000610620000000000000                                                            CATETER PERIFE INTROCAN # 18G 4251687-04SIN     1
CC0000022467890A202100000027822100000027822103/12/20210846    3190333624042196419000022426800001140510000000000000                                                                    EQUIPO MACROGOTEO BAXTER MRC0001SOB     1
CC0000022467890A202100000027822100000027822103/12/20210846    3190333624042196419000030161400001459220000000000000                                                                       MANGUERA SUCCION 6 MM*3.1 MTSSOB     1
CC0000022467890A202100000027822100000027822103/12/20210846    3190333624042196419000011073300001096420000000000000                                                                BOLSA DE SUCCION DE FLUIDOS x 2500mLBOL     1
CC0000022467890A202100000027822100000027822103/12/20210846    3190333624042196419000020750600000296780000000000000                                                                PLACA ELECTRO RETORNO PACIENTE E7506SIN     1
CC0000022467890A202100000027822100000027822103/12/20210846    3190333624042196419000053074400000607910000000000000                                                               GASA ESTERIL 10*10 SOBRE X 3 UNIDADESSOB     2
CC0000022467890A202100000027822100000027822103/12/20210846    3190333624042196419000024673600000222980000000000000                                                                     JERINGA DESECHABLE 5 ml 27*11/2SIN     1
CC0000022467890A202100000027822100000027822103/12/20210846    3190333624042196419000024674000001138340000000000000   JERINGA 3PARTES C/A 10ML REF JEHL005 CAJ X 100 ALFASAFE  21GX1 PULG 1/2 PULG BN EXENTO-DC.417/202PZA     3
CC0000022467890A202100000027822100000027822103/12/20210846    3190333624042196419000011085200001585390000000000000                                                                       GUANTE QUIRURGICO TALLA 7 1/2SOB     2
CC0000022467890A202100000027822100000027822103/12/20210846    3190333624042196419000011085100001082120000000000000                                                                           GUANTE QUIRURGICO TALLA 7SOB     3
CC0000022467890A202100000027822100000027822103/12/20210846    3190333624042196419000043485100001618510000000000000                GUANTE QUIRURGICO DE LATEX REF 2D72N65X CAJ X 50 PROTEXIS  6.5 BN EXENTO-DC.417/2020SOB     3
CC0000022467890A202100000027822100000027822103/12/20210846    3190333624042196419000038569400000256750000000000000                                                                        SONDA ASPIRACION CONTROL #14SIN     1
CC0000022467890A202100000027822100000027822103/12/20210846    3190333624042196419000011099300000777780000000000000                                                                     FILTRO BACTERIANO VIRICO ADULTOBOL     1
CC0000022467890A202100000027822100000027822103/12/20210846    31903336240421964190000E1AB0300003888390000000000000                                                            SOLUCION SALINA 0.9% SLN INY BO X 500 MLBOL     2
CC0000022467890A202100000027822100000027822103/12/20210846    31903336240421964190000N1BA2400001687720000000000000                                                    LIDOCAINA 2% SOL INY  CAJ X 50AMP X 10ML CORPAULAMP     1
CC0000022467890A202100000027822100000027822103/12/20210846    31903336240421964190000N2BB0100001672010000000000000                                  DIPIRONA 1GR/2ML(0.5GR/ML) SOL INY INST CAJ X 100AMP X 2ML VITALISAMP     3
CC0000022467890A202100000027822100000027822103/12/20210846    31903336240421964190000M01A2000001664970000000000000                                                               DICLOFENACO SODICO SLN INY 75 MG/3 MLAMP     1
