CC0000032625315A202100000027823900000027823903/12/20211823    3190333624042196419000022424500000236720000000000000                                                                     EQUIPO EN Y IRRIGA ARC4005 4006SOB     1
CC0000032625315A202100000027823900000027823903/12/20211823    3190333624042196419000043879200001138180000000000000                                                                                   HOJA BISTURI # 11SOB     1
CC0000032625315A202100000027823900000027823903/12/20211823    3190333624042196419000049059900000267420000000000000                                                                 MEDIA ANTIEMBOLICA TAL M 3416LF PARBOL     1
CC0000032625315A202100000027823900000027823903/12/20211823    31903336240421964190000J01DD100000456230000000000000                                                                        AXTAR POLVO LIOF SLN INY 1 GVAL     2
CC0000032625315A202100000027823900000027823903/12/20211823    3190333624042196419000000602700001197200000000000000                                                              APOSITO TRANSP  1655 IV 8.5CM X 11.5CMSOB     1
CC0000032625315A202100000027823900000027823903/12/20211823    31903336240421964190000Q1AA7100000610620000000000000                                                            CATETER PERIFE INTROCAN # 18G 4251687-04SIN     1
CC0000032625315A202100000027823900000027823903/12/20211823    3190333624042196419000035356500003919000000000000000                                                                                        LLAVE 3 VIASSOB     1
CC0000032625315A202100000027823900000027823903/12/20211823    3190333624042196419000022425200000548240000000000000                       EXTENSION DE ANESTESIA REF 1139 SOB X 1 SHERLEG  ADULTO BN EXENTO-DC.417/2020SIN     1
CC0000032625315A202100000027823900000027823903/12/20211823    3190333624042196419000022426800001140510000000000000                                                                    EQUIPO MACROGOTEO BAXTER MRC0001SOB     2
CC0000032625315A202100000027823900000027823903/12/20211823    3190333624042196419000024673000001411210000000000000                                                                  JERINGA DESECHABLE 3 ML 21 X 1 1/2SOB     1
CC0000032625315A202100000027823900000027823903/12/20211823    3190333624042196419000024673600000222980000000000000                                                                     JERINGA DESECHABLE 5 ml 27*11/2SIN     2
CC0000032625315A202100000027823900000027823903/12/20211823    3190333624042196419000024674000001138340000000000000   JERINGA 3PARTES C/A 10ML REF JEHL005 CAJ X 100 ALFASAFE  21GX1 PULG 1/2 PULG BN EXENTO-DC.417/202PZA     5
CC0000032625315A202100000027823900000027823903/12/20211823    3190333624042196419000043485100001618510000000000000                GUANTE QUIRURGICO DE LATEX REF 2D72N65X CAJ X 50 PROTEXIS  6.5 BN EXENTO-DC.417/2020SOB     4
CC0000032625315A202100000027823900000027823903/12/20211823    3190333624042196419000011085200001585390000000000000                                                                       GUANTE QUIRURGICO TALLA 7 1/2SOB     4
CC0000032625315A202100000027823900000027823903/12/20211823    3190333624042196419000053074400000607910000000000000                                                               GASA ESTERIL 10*10 SOBRE X 3 UNIDADESSOB     3
CC0000032625315A202100000027823900000027823903/12/20211823    3190333624042196419000011082700001620070000000000000                                                               EQUIPO SET PRIMARIO C/CLAVE REF 14001BOL     1
CC0000032625315A202100000027823900000027823903/12/20211823    3190333624042196419000051515400000598150000000000000                                                                            MASCARILLA ANESTESIA # 4SIN     1
CC0000032625315A202100000027823900000027823903/12/20211823    3190333624042196419000035612600000332090000000000000                                                                              MASCARA OXIGENO ADULTOSIN     1
CC0000032625315A202100000027823900000027823903/12/20211823    3190333624042196419000030161400001459220000000000000                                                                       MANGUERA SUCCION 6 MM*3.1 MTSSOB     1
CC0000032625315A202100000027823900000027823903/12/20211823    3190333624042196419000011073300001096420000000000000                                                                BOLSA DE SUCCION DE FLUIDOS x 2500mLBOL     1
CC0000032625315A202100000027823900000027823903/12/20211823    31903336240421964190000E1AD0200003888320000000000000                                                                              HARTMAN SLN INY 500 MLBOL     1
CC0000032625315A202100000027823900000027823903/12/20211823    31903336240421964190000E1AB0700003888350000000000000                                                            SOLUCION SALINA 0.9% SLN INY BO X 250 MLBOL     1
CC0000032625315A202100000027823900000027823903/12/20211823    31903336240421964190000N01A0400003939010000000000000                                               MAYOPROFOL 200MG/20ML(1%) EMUL INY CAJ X 1VIAL X 20MLVAL     1
CC0000032625315A202100000027823900000027823903/12/20211823    31903336240421964190000B02AA100001407470000000000000                                                                    CLINTRANEX SLN INY 500 MG / 5 MLAMP     2
CC0000032625315A202100000027823900000027823903/12/20211823    31903336240421964190000N2BB1100000217160000000000000                                                                      NOVALGINA Sln Iny 2.5 g x 5 mlAMP     1
CC0000032625315A202100000027823900000027823903/12/20211823    31903336240421964190000H02AB500001664950000000000000                                                            DEXAMETASONA SLN INY 8 MG/2 ML AMP /CDS/AMP     1
CC0000032625315A202100000027823900000027823903/12/20211823    31903336240421964190000N1BA2400001687720000000000000                                                    LIDOCAINA 2% SOL INY  CAJ X 50AMP X 10ML CORPAULAMP     1
CC0000032625315A202100000027823900000027823903/12/20211823    31903336240421964190000N2AA0700001587170000000000000                                                                                 ULTIVA Sln Iny 2 mgVAL     1
