CC0000008727169H202100000556532600000556532603/12/20211352    31900630237421964250000A2BC0100001277990000000000000                                                                                   ORAZOLE CAP 20 MGCAP     2
CC0000008727169H202100000556532600000556532603/12/20211352    31900630237421964250000B02AA100001407470000000000000                                                                    CLINTRANEX SLN INY 500 MG / 5 MLAMP     2
CC0000008727169H202100000556532600000556532603/12/20211352    31900630237421964250000J01DA300001239950000000000000                                                            CEFAZOLINA SODICA POLVO LIOF SLN INY 1 GVAL     6
CC0000008727169H202100000556532600000556532603/12/20211352    31900630237421964250000N2BB0200000513030000000000000                                                                           LISALGIL Sln Iny 2 g/5 mlAMP     3
CC0000008727169H202100000556532600000556532603/12/20211352    31900630237421964250000N02B1100001464120000000000000                                           PARACETAMOL EP 1000MG/100ML(10MG/ML) SOL INY  CAJ X 10FCOVAL     4
