CC0000028496269H202100000556513300000556513303/12/20211556    31900997237421964250000E1AD0200003888320000000000000                                                                              HARTMAN SLN INY 500 MLBOL     1
CC0000028496269H202100000556513300000556513303/12/20212251    31500363237421964250000E1AD0300000199490000000000000                                         LACTATO RINGER USP (HARTMANN)  SOL INY  BOL X 1000ML BAXTERBIN     1
CC0000028496269H202100000556513300000556513303/12/20210650    31500519237421964250000E1AD0300000199490000000000000                                         LACTATO RINGER USP (HARTMANN)  SOL INY  BOL X 1000ML BAXTERBIN     1
CC0000028496269H202100000556513300000556513303/12/20211854     3300003237421964250000C09C0100001316940000000000000                                                                               DIOVAN TAB 160 MG /R/TAB     2
CC0000028496269H202100000556513300000556513303/12/20211854     3300003237421964250000C02AC200001559150000000000000                                                                              CLONIDINA TAB 0.150 MGTAB     2
CC0000028496269H202100000556513300000556513303/12/20211856     3300003237421964250000C03D0200001334290000000000000                                                                           ESPIRONOLACTONA TAB 25 MGTAB     2
CC0000028496269H202100000556513300000556513303/12/20211854     3300003237421964250000C08CA300001313930000000000000                                                                                AMLODIPINO TAB 10 MGTAB     1
CC0000028496269H202100000556513300000556513303/12/20211855     3300003237421964250000J01CR200000947130000000000000                                                              AMPICILINA /SULBACTAN POLVO LIOF 1.5 GAMP     6
CC0000028496269H202100000556513300000556513303/12/20211856     3300003237421964250000N2BB0100001672010000000000000                                  DIPIRONA 1GR/2ML(0.5GR/ML) SOL INY INST CAJ X 100AMP X 2ML VITALISAMP     4
CC0000028496269H202100000556513300000556513303/12/20211856     3300003237421964250000N2AX0900001672040000000000000                                                                              TRAMADOL SLN INY 50 MGAMP     3
CC0000028496269H202100000556513300000556513303/12/20211857     3300003237421964250000A02BC700001684270000000000000                                                            OMEPRAZOL 40MG POLVO LIOFILIZADO AMPOLLAVAL     1
CC0000028496269H202100000556513300000556513303/12/20211507    31903301237421964250000V07A1300000502600000000000000                                                                                AGUA ESTERIL x 10 mlAMP     4
