CC0000011312131H202100000556519100000556519103/12/20211617     3300003237421964250000A03F0300001626860000000000000                                                                   METOCLOPRAMIDA SLN INY 10 MG/2 MLAMP     1
CC0000011312131H202100000556519100000556519103/12/20210902     3300010237421964250000A03F0300001626860000000000000                                                                   METOCLOPRAMIDA SLN INY 10 MG/2 MLAMP     2
CC0000011312131H202100000556519100000556519103/12/20211933     3300009237421964250000B01A0300000467730000000000000                                                                FRAGMIN SLN INY 5.000 UI /0.2 ML /R/SIN     2
CC0000011312131H202100000556519100000556519103/12/20211139    31903288237421964250000E1AD0300000199490000000000000                                         LACTATO RINGER USP (HARTMANN)  SOL INY  BOL X 1000ML BAXTERBIN     1
CC0000011312131H202100000556519100000556519103/12/20211441     3300003237421964250000D11A1100000749560000000000000                                                                       FITOSTIMOLINE GEL Tubo X 32 GTUB     1
CC0000011312131H202100000556519100000556519103/12/20210903     3300010237421964250000H02A0100001664960000000000000                                                                        DEXAMETASONA SLN INY 4 MG/MLAMP     1
CC0000011312131H202100000556519100000556519103/12/20211617     3300003237421964250000N2BB0200000513030000000000000                                                                           LISALGIL Sln Iny 2 g/5 mlAMP     1
CC0000011312131H202100000556519100000556519103/12/20210903     3300010237421964250000N2BB0200000513030000000000000                                                                           LISALGIL Sln Iny 2 g/5 mlAMP     2
CC0000011312131H202100000556519100000556519103/12/20211229     3300010237421964250000N2AA0200000301600000000000000                                                                        HIDROMORFONA Sln Iny 2 mg/mlAMP     4
CC0000011312131H202100000556519100000556519103/12/20211617     3300003237421964250000J01CR200000947130000000000000                                                              AMPICILINA /SULBACTAN POLVO LIOF 1.5 GAMP     1
CC0000011312131H202100000556519100000556519103/12/20210902     3300010237421964250000J01CR200000947130000000000000                                                              AMPICILINA /SULBACTAN POLVO LIOF 1.5 GAMP     3
CC0000011312131H202100000556519100000556519103/12/20210903     3300010237421964250000A02BC700001684270000000000000                                                            OMEPRAZOL 40MG POLVO LIOFILIZADO AMPOLLAVAL     1
