CC0000032883942A202100000027822600000027822603/12/20211823    3190333624042196419000021052200000380370000000000000                                                                        RESERVORIO J-VAC 100 ml 2160PZA     1
CC0000032883942A202100000027822600000027822603/12/20211823    3190333624042196419000011081100000576800000000000000                                                                   DRENAJE BLAKE PLANO REF 2214 10MMSIN     1
CC0000032883942A202100000027822600000027822603/12/20211823    31903336240421964190000E1AB0300003888390000000000000                                                            SOLUCION SALINA 0.9% SLN INY BO X 500 MLBOL     1
CC0000032883942A202100000027822600000027822603/12/20211823    3190333624042196419000011099300000777780000000000000                                                                     FILTRO BACTERIANO VIRICO ADULTOBOL     2
CC0000032883942A202100000027822600000027822603/12/20211823    31903336240421964190000Q1AA6900000531340000000000000                                                            CATETER PERIFE INTROCAN # 14G 4251890-04SIN     1
CC0000032883942A202100000027822600000027822603/12/20211823    3190333624042196419000011082600000265810000000000000                                                              EQUIPO IRRIGACION URINARIA REF MRC4002SOB     1
CC0000032883942A202100000027822600000027822603/12/20211823    3190333624042196419000038568200000257000000000000000                                                                                   SONDA NELATON #06SIN     1
CC0000032883942A202100000027822600000027822603/12/20211823    3190333624042196419000021321100000232610000000000000                                                              PROLENE 2-0 KS RECTA 8623H CIERRE PIELSIN     1
CC0000032883942A202100000027822600000027822603/12/20211823    3190333624042196419000019489000000599330000000000000                                                                           VICRYL 4-0 RB1 70 VCP304HSIN     2
CC0000032883942A202100000027822600000027822603/12/20211823    3190333624042196419000001900000000325550000000000000                                                                       HEM-O-LOK MORADO L 544240 X 6SIN     1
CC0000032883942A202100000027822600000027822603/12/20211823    3190333624042196419000045138000001413890000000000000                                                                       LAPIZ ELECTROBISTURI  SOB X 1SOB     1
CC0000032883942A202100000027822600000027822603/12/20211823    3190333624042196419000030161400001459220000000000000                                                                       MANGUERA SUCCION 6 MM*3.1 MTSSOB     1
CC0000032883942A202100000027822600000027822603/12/20211823    3190333624042196419000019487800001585180000000000000                                                                    VICRYL 1 PLUS 70 CM CT-1 VCP341HSOB     1
CC0000032883942A202100000027822600000027822603/12/20211823    3190333624042196419000031188000000236790000000000000                                                                                     CISTOFLO ADULTOSIN     1
CC0000032883942A202100000027822600000027822603/12/20211823    3190333624042196419000000200700000778260000000000000                                                                SONDA FOLEY 2 VIAS No. 20 FR * 15 CMBOL     1
CC0000032883942A202100000027822600000027822603/12/20211823    3190333624042196419000043879100001138200000000000000                                                                  HOJA BISTURI # 15 CSSB 15 01002003SOB     1
CC0000032883942A202100000027822600000027822603/12/20211823    3190333624042196419000049059900000267420000000000000                                                                 MEDIA ANTIEMBOLICA TAL M 3416LF PARBOL     1
CC0000032883942A202100000027822600000027822603/12/20211823    31903336240421964190000J01DA300001239950000000000000                                                            CEFAZOLINA SODICA POLVO LIOF SLN INY 1 GVAL     2
CC0000032883942A202100000027822600000027822603/12/20211823    3190333624042196419000022425200000548240000000000000                       EXTENSION DE ANESTESIA REF 1139 SOB X 1 SHERLEG  ADULTO BN EXENTO-DC.417/2020SIN     1
CC0000032883942A202100000027822600000027822603/12/20211823    3190333624042196419000016830000000970620000000000000                                                             SIST FIJACION CAT PERIFERICO 6.5X7 1683SOB     1
CC0000032883942A202100000027822600000027822603/12/20211823    3190333624042196419000035356500003919000000000000000                                                                                        LLAVE 3 VIASSOB     2
CC0000032883942A202100000027822600000027822603/12/20211823    3190333624042196419000022426800001140510000000000000                                                                    EQUIPO MACROGOTEO BAXTER MRC0001SOB     1
CC0000032883942A202100000027822600000027822603/12/20211823    31903336240421964190000Q1AA7100000610620000000000000                                                            CATETER PERIFE INTROCAN # 18G 4251687-04SIN     1
CC0000032883942A202100000027822600000027822603/12/20211823    3190333624042196419000011082700001620070000000000000                                                               EQUIPO SET PRIMARIO C/CLAVE REF 14001BOL     1
CC0000032883942A202100000027822600000027822603/12/20211823    3190333624042196419000000100600000223090000000000000                                                                      AGUJA DESECHABLE 18G X 1 1/2 PSIN     1
CC0000032883942A202100000027822600000027822603/12/20211823    3190333624042196419000024674000001138340000000000000   JERINGA 3PARTES C/A 10ML REF JEHL005 CAJ X 100 ALFASAFE  21GX1 PULG 1/2 PULG BN EXENTO-DC.417/202PZA     3
CC0000032883942A202100000027822600000027822603/12/20211823    3190333624042196419000024673600000222980000000000000                                                                     JERINGA DESECHABLE 5 ml 27*11/2SIN     1
CC0000032883942A202100000027822600000027822603/12/20211823    3190333624042196419000024673000001411210000000000000                                                                  JERINGA DESECHABLE 3 ML 21 X 1 1/2SOB     2
CC0000032883942A202100000027822600000027822603/12/20211823    3190333624042196419000011073300001096420000000000000                                                                BOLSA DE SUCCION DE FLUIDOS x 2500mLBOL     1
CC0000032883942A202100000027822600000027822603/12/20211823    3190333624042196419000053074400000607910000000000000                                                               GASA ESTERIL 10*10 SOBRE X 3 UNIDADESSOB     3
CC0000032883942A202100000027822600000027822603/12/20211823    3190333624042196419000039176200000325450000000000000                                                             TUBO ENDOTRAQ 7.5 C/B Y ESPIRAL INTERNOSIN     1
CC0000032883942A202100000027822600000027822603/12/20211823    3190333624042196419000051515400000598150000000000000                                                                            MASCARILLA ANESTESIA # 4SIN     1
CC0000032883942A202100000027822600000027822603/12/20211823    3190333624042196419000031010900000762730000000000000                                                                          CANULA GUEDEL # 4 (100 MM)SOB     1
CC0000032883942A202100000027822600000027822603/12/20211823    3190333624042196419000035612600000332090000000000000                                                                              MASCARA OXIGENO ADULTOSIN     1
CC0000032883942A202100000027822600000027822603/12/20211823    3190333624042196419000020750600000296780000000000000                                                                PLACA ELECTRO RETORNO PACIENTE E7506SIN     1
CC0000032883942A202100000027822600000027822603/12/20211823    3190333624042196419000011085200001585390000000000000                                                                       GUANTE QUIRURGICO TALLA 7 1/2SOB     3
CC0000032883942A202100000027822600000027822603/12/20211823    3190333624042196419000011085100001082120000000000000                                                                           GUANTE QUIRURGICO TALLA 7SOB     3
CC0000032883942A202100000027822600000027822603/12/20211823    3190333624042196419000043485100001618510000000000000                GUANTE QUIRURGICO DE LATEX REF 2D72N65X CAJ X 50 PROTEXIS  6.5 BN EXENTO-DC.417/2020SOB     4
CC0000032883942A202100000027822600000027822603/12/20211823    31903336240421964190000E1AB0500003888400000000000000                                                              SOLUCION SALINA 0.9% SLN INY X 1000 MLBOL     2
CC0000032883942A202100000027822600000027822603/12/20211823    31903336240421964190000E1AD0200003888320000000000000                                                                              HARTMAN SLN INY 500 MLBOL     2
CC0000032883942A202100000027822600000027822603/12/20211823    31903336240421964190000E1AB0700003888350000000000000                                                            SOLUCION SALINA 0.9% SLN INY BO X 250 MLBOL     2
CC0000032883942A202100000027822600000027822603/12/20211823    31903336240421964190000H02A0100001664960000000000000                                                                        DEXAMETASONA SLN INY 4 MG/MLAMP     1
CC0000032883942A202100000027822600000027822603/12/20211823    31903336240421964190000A03F0300001626860000000000000                                                                   METOCLOPRAMIDA SLN INY 10 MG/2 MLAMP     1
CC0000032883942A202100000027822600000027822603/12/20211823    31903336240421964190000A3BB0200000512940000000000000                                                                          BUSCAPINA SIMPLE Iny 20 mgAMP     1
CC0000032883942A202100000027822600000027822603/12/20211823    31903336240421964190000N2BB1100000217160000000000000                                                                      NOVALGINA Sln Iny 2.5 g x 5 mlAMP     1
CC0000032883942A202100000027822600000027822603/12/20211823    31903336240421964190000M1AX0200001569410000000000000                                                                         KETRON SLN INY 30 MG / 2 MLAMP     1
CC0000032883942A202100000027822600000027822603/12/20211823    31903336240421964190000N1BA2400001687720000000000000                                                    LIDOCAINA 2% SOL INY  CAJ X 50AMP X 10ML CORPAULAMP     2
CC0000032883942A202100000027822600000027822603/12/20211823    31903336240421964190000M03AB100001371510000000000000                                                            ADECUAC SUCCINILCOLINA  100mg/mL SOL INYVAL     1
CC0000032883942A202100000027822600000027822603/12/20211823    31903336240421964190000N2AA0700001587170000000000000                                                                                 ULTIVA Sln Iny 2 mgVAL     1
