CE0000000343277A202100000027823800000027823803/12/20211543    31903336240421964190000N01B0200003888110000000000000                                           ROXICAINA SE 100MG/10ML(1%) SOL INY CAJ X 24AMPACK X 10MLAPC     1
CE0000000343277A202100000027823800000027823803/12/20211543    3190333624042196419000049419500001679890000000000000                                                                        VENDA ALGODON 3*5 NO ESTERILSOB     2
CE0000000343277A202100000027823800000027823803/12/20211543    3190333624042196419000043879100001138200000000000000                                                                  HOJA BISTURI # 15 CSSB 15 01002003SOB     1
CE0000000343277A202100000027823800000027823803/12/20211543    31903336240421964190000E1AB0300003888390000000000000                                                            SOLUCION SALINA 0.9% SLN INY BO X 500 MLBOL     1
CE0000000343277A202100000027823800000027823803/12/20211543    3190333624042196419000022425200000548240000000000000                       EXTENSION DE ANESTESIA REF 1139 SOB X 1 SHERLEG  ADULTO BN EXENTO-DC.417/2020SIN     1
CE0000000343277A202100000027823800000027823803/12/20211543    3190333624042196419000035356500003919000000000000000                                                                                        LLAVE 3 VIASSOB     2
CE0000000343277A202100000027823800000027823803/12/20211543    31903336240421964190000Q1AA7100000610620000000000000                                                            CATETER PERIFE INTROCAN # 18G 4251687-04SIN     1
CE0000000343277A202100000027823800000027823803/12/20211543    3190333624042196419000022426800001140510000000000000                                                                    EQUIPO MACROGOTEO BAXTER MRC0001SOB     1
CE0000000343277A202100000027823800000027823803/12/20211543    3190333624042196419000016830000000970620000000000000                                                             SIST FIJACION CAT PERIFERICO 6.5X7 1683SOB     1
CE0000000343277A202100000027823800000027823803/12/20211543    31903336240421964190000J01DA300001239950000000000000                                                            CEFAZOLINA SODICA POLVO LIOF SLN INY 1 GVAL     2
CE0000000343277A202100000027823800000027823803/12/20211543    3190333624042196419000053074400000607910000000000000                                                               GASA ESTERIL 10*10 SOBRE X 3 UNIDADESSOB     2
CE0000000343277A202100000027823800000027823803/12/20211543    3190333624042196419000011085300001082140000000000000                                                                           GUANTE QUIRURGICO TALLA 8SOB     2
CE0000000343277A202100000027823800000027823803/12/20211543    3190333624042196419000001200400000530690000000000000                                                                          CANULA DE MAYO # 5 (100MM)SIN     1
CE0000000343277A202100000027823800000027823803/12/20211543    3190333624042196419000020058100001101630000000000000                                                                     AGUJA HIPODERMICA DESECH 23 X 1SOB     1
CE0000000343277A202100000027823800000027823803/12/20211543    3190333624042196419000024674000001138340000000000000   JERINGA 3PARTES C/A 10ML REF JEHL005 CAJ X 100 ALFASAFE  21GX1 PULG 1/2 PULG BN EXENTO-DC.417/202PZA     2
CE0000000343277A202100000027823800000027823803/12/20211543    31903336240421964190000E1AD0200003888320000000000000                                                                              HARTMAN SLN INY 500 MLBOL     2
CE0000000343277A202100000027823800000027823803/12/20211543    31903336240421964190000E1AB0200000199290000000000000                                                            SOLUCION SALINA 0.9% SLN INY BO X 100 MLBIN     1
CE0000000343277A202100000027823800000027823803/12/20211543    31903336240421964190000N01A0400003939010000000000000                                               MAYOPROFOL 200MG/20ML(1%) EMUL INY CAJ X 1VIAL X 20MLVAL     1
