CC0000032776593H202100015112732200015112732203/12/20210222    3190265123742196425000011082700001620070000000000000                                                               EQUIPO SET PRIMARIO C/CLAVE REF 14001BOL     2
CC0000007444684H202100015112732200015112732203/12/20210222    3190265123742196425000001956000001620610000000000000                                                                      CONECTOR MICRO CLAVE LAT-MC100SOB     1
CC0000007444684H202100015112732200015112732203/12/20210222    31902651237421964250000Q1AA7200000610630000000000000                                                            CATETER PERIFE INTROCAN # 20G 4251644-04SIN     1
CC0000007444684H202100015112732200015112732203/12/20210222    3190265123742196425000016830000000970620000000000000                                                             SIST FIJACION CAT PERIFERICO 6.5X7 1683SOB     1
