CC0000008530442H202100919665120300919665120303/12/20211052    3150030523742196425000011137100001419310000000000000                                                               TIRA GLUCOMETRIA FREESTYLE H OPTIUM .PZA     4
CC0000008530442H202100919665120300919665120303/12/20211052    3150030523742196425000020056600001101530000000000000                                                                AGUJA HIPODERMICA DESECH 18G X 1 1/2SOB     3
CC0000008530442H202100919665120300919665120303/12/20211052    3150030523742196425000024674000001138340000000000000   JERINGA 3PARTES C/A 10ML REF JEHL005 CAJ X 100 ALFASAFE  21GX1 PULG 1/2 PULG BN EXENTO-DC.417/202PZA     5
CC0000008530442H202100919665120300919665120303/12/20211052    31500305237421964250000E1AD0300000199490000000000000                                         LACTATO RINGER USP (HARTMANN)  SOL INY  BOL X 1000ML BAXTERBIN     2
CC0000008530442H202100919665120300919665120303/12/20211052    31500305237421964250000V07A1300000502600000000000000                                                                                AGUA ESTERIL x 10 mlAMP     5
CC0000008530442H202100919665120300919665120303/12/20211052    31500305237421964250000E1AB0200000199290000000000000                                                            SOLUCION SALINA 0.9% SLN INY BO X 100 MLBIN     3
CC0000008530442H202100919665120300919665120303/12/20211715    3190182723742196425000011082700001620070000000000000                                                               EQUIPO SET PRIMARIO C/CLAVE REF 14001BOL     1
CC0000008530442H202100919665120300919665120303/12/20212058    3190099823742196425000011085100001082120000000000000                                                                           GUANTE QUIRURGICO TALLA 7SOB     2
CC0000008530442H202100919665120300919665120303/12/20212058    3190099823742196425000013077800000471960000000000000                                                             GASA NO TEJIDA EST 7.5 X 7.5 SOB X 3 UNSOB     5
CC0000008530442H202100919665120300919665120303/12/20212058    3190099823742196425000016830000000970620000000000000                                                             SIST FIJACION CAT PERIFERICO 6.5X7 1683SOB     1
CC0000008530442H202100919665120300919665120303/12/20212058    3190099823742196425000000602700001197200000000000000                                                              APOSITO TRANSP  1655 IV 8.5CM X 11.5CMSOB     1
CC0000008530442H202100919665120300919665120303/12/20212058    3190099823742196425000000799100001135000000000000000                                                                    LEUKOMED T PLUS 8X15CMT 72382-02SOB    20
CC0000008530442H202100919665120300919665120303/12/20212323    3190099823742196425000011089200001083340000000000000                                                              GUANTE ESTERIL LATEX S/POLVO TALLA 7.0SOB     2
CC0000008530442H202100919665120300919665120303/12/20212323    3190099823742196425000042743400003929880000000000000                                    CINTA ADHESIVA TRANSPARENT REF 72216-01 ROL X 10MT FIXOMULL 10CMCMT    80
