RC0001084457432H202100015052798000015052798003/12/20211600    3190099723742196425000011082700001620070000000000000                                                               EQUIPO SET PRIMARIO C/CLAVE REF 14001BOL     1
RC0001084457432H202100015052798000015052798003/12/20211600    3190099723742196425000001956000001620610000000000000                                                                      CONECTOR MICRO CLAVE LAT-MC100SOB     1
RC0001084457432H202100015052798000015052798003/12/20211600    31900997237421964250000Q1AA7300000610640000000000000                                                            CATETER PERIFE INTROCAN # 22G 4251628-04SIN     1
RC0001084457432H202100015052798000015052798003/12/20211600    3190099723742196425000000602600001259280000000000000                                                             APOSITO TEGADERM IV PD 1610 5CM X 5.7CMSOB     1
