CC0001083560787H202100000556519600000556519603/12/20210920    31901020237421964250000B1AB0200003939510000000000000                 ENOXAPARINA SODICA 40MG/0.4ML(100MG/ML) SOL INY INST CAJ X 2JERPREL X 0.4ML TECHDOWJRP     1
CC0001083560787H202100000556519600000556519603/12/20210920    31901020237421964250000J01DA300001239950000000000000                                                            CEFAZOLINA SODICA POLVO LIOF SLN INY 1 GVAL     5
CC0001083560787H202100000556519600000556519603/12/20210920    31901020237421964250000M01A0400001341250000000000000                                                                              DYNASTAT AMP 40 MG /R/VAL     1
CC0001083560787H202100000556519600000556519603/12/20210920    31901020237421964250000N02B1100001464120000000000000                                           PARACETAMOL EP 1000MG/100ML(10MG/ML) SOL INY  CAJ X 10FCOVAL     3
CC0001083560787H202100000556519600000556519603/12/20210920    31901020237421964250000H02AB700000585860000000000000                                                                HIDROCORTISONA SUCCI POL LIOF 100 MGVAL     1
CC0001083560787H202100000556519600000556519603/12/20210921    31901020237421964250000J1KD0400000335010000000000000                                                                      GENTAMICINA SLN INY 80 MG/2 MLAMP     3
CC0001083560787H202100000556519600000556519603/12/20210920    31901020237421964250000N2AX0900001672040000000000000                                                                              TRAMADOL SLN INY 50 MGAMP     3
