CC0001143115935H202100015112732700015112732703/12/20210832    3190099923742196425000011051700000226350000000000000                                                            KIT TRANSDUCTOR SENCILLO C/VAMP PXVMP260SOB     1
CC0001143115935H202100015112732700015112732703/12/20210832    31900999237421964250000Q1A13500001585200000000000000                        JERINGA PUNTA CAT SIN AGUJA REF 309620 CAJ X 40   50ML BN EXENTO-DC.417/2020SOB     2
CC0001143115935H202100015112732700015112732703/12/20210832    3190099923742196425000011085300001082140000000000000                                                                           GUANTE QUIRURGICO TALLA 8SOB     1
CC0001143115935H202100015112732700015112732703/12/20210832    3190099923742196425000000602700001197200000000000000                                                              APOSITO TRANSP  1655 IV 8.5CM X 11.5CMSOB     2
CC0000019490174H202100015112732700015112732703/12/20210832    3190099923742196425000011137100001419310000000000000                                                               TIRA GLUCOMETRIA FREESTYLE H OPTIUM .PZA    10
CC0000072218236H202100015112732700015112732703/12/20210832    3190099923742196425000011137100001419310000000000000                                                               TIRA GLUCOMETRIA FREESTYLE H OPTIUM .PZA     3
CC0001143115935H202100015112732700015112732703/12/20210832    3190099923742196425000011137100001419310000000000000                                                               TIRA GLUCOMETRIA FREESTYLE H OPTIUM .PZA     3
CC0000022590499H202100015112732700015112732703/12/20210832    3190099923742196425000011137100001419310000000000000                                                               TIRA GLUCOMETRIA FREESTYLE H OPTIUM .PZA     3
CC0000019490174H202100015112732700015112732703/12/20210832    3190099923742196425000011127400001413910000000000000                                                            EQUIPO ADMINIST NUTR PUNZON REF 674669 BBOL     1
CC0000022590499H202100015112732700015112732703/12/20210832    3190099923742196425000011127400001413910000000000000                                                            EQUIPO ADMINIST NUTR PUNZON REF 674669 BBOL     1
CC0001143115935H202100015112732700015112732703/12/20210832    3190099923742196425000011131000000227650000000000000                                                            CATETER VENOSO CENTRAL MONOLUMEN PEDIATRSIN     1
