CC0000032789851U202100050131904400050131904403/12/20211717    3190286523942196432000000503200000333240000000000000                                                               SUTURA ETHILON 3-0 KS 75CM NEGRA 627HSIN     1
CC0000032789851U202100050131904400050131904403/12/20211717    3190286523942196432000024673600000222980000000000000                                                                     JERINGA DESECHABLE 5 ml 27*11/2SIN     1
CC0000032789851U202100050131904400050131904403/12/20211717    3190286523942196432000011047900000223010000000000000                                                                            JERINGA X 1ML REF 302579SIN     1
CC0000032789851U202100050131904400050131904403/12/20211717    3190286523942196432000043485100001618510000000000000                GUANTE QUIRURGICO DE LATEX REF 2D72N65X CAJ X 50 PROTEXIS  6.5 BN EXENTO-DC.417/2020SOB     1
CC0000032789851U202100050131904400050131904403/12/20211717    3190286523942196432000013077800000471960000000000000                                                             GASA NO TEJIDA EST 7.5 X 7.5 SOB X 3 UNSOB     6
CC0000032789851U202100050131904400050131904403/12/20211717    31902865239421964320000E1AB0200000199290000000000000                                                            SOLUCION SALINA 0.9% SLN INY BO X 100 MLBIN     2
