CC0000042208823H202100000556505400000556505403/12/20211800    31500272237421964250000E1AB0300003888390000000000000                                                            SOLUCION SALINA 0.9% SLN INY BO X 500 MLBOL     1
CC0000042208823H202100000556505400000556505403/12/20211758    31500272237421964250000E1AB0300003888390000000000000                                                            SOLUCION SALINA 0.9% SLN INY BO X 500 MLBOL     1
CC0000042208823H202100000556505400000556505403/12/20212330     3300009237421964250000C09CA400001277130000000000000                                                                                  LOSARTAN TAB 50 MGTAB     2
CC0000042208823H202100000556505400000556505403/12/20210859     3300004237421964250000C09CA400001277130000000000000                                                                                  LOSARTAN TAB 50 MGTAB     2
CC0000042208823H202100000556505400000556505403/12/20210552     3300009237421964250000C09CA400001277130000000000000                                                                                  LOSARTAN TAB 50 MGTAB     5
CC0000042208823H202100000556505400000556505403/12/20210035     3300009237421964250000C09CA400001277130000000000000                                                                                  LOSARTAN TAB 50 MGTAB     3
CC0000042208823H202100000556505400000556505403/12/20210859     3300004237421964250000H02AB700000585860000000000000                                                                HIDROCORTISONA SUCCI POL LIOF 100 MGVAL     1
CC0000042208823H202100000556505400000556505403/12/20210035     3300009237421964250000H02AB700000585860000000000000                                                                HIDROCORTISONA SUCCI POL LIOF 100 MGVAL     1
CC0000042208823H202100000556505400000556505403/12/20210858     3300004237421964250000C08CA300001313930000000000000                                                                                AMLODIPINO TAB 10 MGTAB     1
CC0000042208823H202100000556505400000556505403/12/20210858     3300004237421964250000J01DD500001239970000000000000                                                                  CEFTRIAXONA POLVO LIOF SLN INY 1 GVAL     1
CC0000042208823H202100000556505400000556505403/12/20210035     3300009237421964250000J01DD500001239970000000000000                                                                  CEFTRIAXONA POLVO LIOF SLN INY 1 GVAL     1
CC0000042208823H202100000556505400000556505403/12/20210859     3300004237421964250000M01A2000001664970000000000000                                                               DICLOFENACO SODICO SLN INY 75 MG/3 MLAMP     2
CC0000042208823H202100000556505400000556505403/12/20210035     3300009237421964250000M01A2000001664970000000000000                                                               DICLOFENACO SODICO SLN INY 75 MG/3 MLAMP     2
CC0000042208823H202100000556505400000556505403/12/20210552     3300009237421964250000N2BB0100001672010000000000000                                  DIPIRONA 1GR/2ML(0.5GR/ML) SOL INY INST CAJ X 100AMP X 2ML VITALISAMP     2
CC0000042208823H202100000556505400000556505403/12/20210035     3300009237421964250000N2BB0100001672010000000000000                                  DIPIRONA 1GR/2ML(0.5GR/ML) SOL INY INST CAJ X 100AMP X 2ML VITALISAMP     2
CC0000042208823H202100000556505400000556505403/12/20210859     3300004237421964250000N06A1500001316440000000000000                                                                            SERTRALINA Tab 50 mg /R/TAB     1
CC0000042208823H202100000556505400000556505403/12/20211510     3300003237421964250000N05BA100001303610000000000000                                                                                  LORAZEPAM TAB 2 MGTAB     1
