CC0000012576309H202100000556519300000556519303/12/20211442     3300003237421964250000A2BC0600001335730000000000000                                                                                   ORAZOLE CAP 40 MGCAP     1
CC0000012576309H202100000556519300000556519303/12/20210907     3300010237421964250000A02BC100001677520000000000000                                                                ESOMEPRAZOL POLVO LIOF INY 40 MG /R/VAL     1
CC0000012576309H202100000556519300000556519303/12/20210907     3300010237421964250000B1AB0200003939510000000000000                 ENOXAPARINA SODICA 40MG/0.4ML(100MG/ML) SOL INY INST CAJ X 2JERPREL X 0.4ML TECHDOWJRP     1
CC0000012576309H202100000556519300000556519303/12/20211443     3300003237421964250000N3AG0400001337010000000000000                                                                              VALCOTE TAB 500 MG /R/TAB     8
CC0000012576309H202100000556519300000556519303/12/20210908     3300010237421964250000N03AG200001590870000000000000                                                            PROVALNOVA SLN INY 100MG/ML VIALX5ML /R/VAL     4
CC0000012576309H202100000556519300000556519303/12/20211442     3300003237421964250000N03A1200001277430000000000000                                                                               KEPPRA TAB 500 MG /R/TAB     8
CC0000012576309H202100000556519300000556519303/12/20210907     3300010237421964250000N03AX200001063780000000000000                                                                      KEPPRA SLN INY 500 MG/5 ML /R/VAL     4
CC0000012576309H202100000556519300000556519303/12/20211442     3300003237421964250000N03A2300001337150000000000000                                                                               VIMPAT TAB 100 MG /R/TAB     8
CC0000012576309H202100000556519300000556519303/12/20210908     3300010237421964250000N03A1800001024300000000000000                                                                 VIMPAT SLN INY 10 MG/ML AMP X 20 MLVAL     2
