CC0001129510914H202100000556543300000556543303/12/20212352     3300009237421964250000A3BB0200000512940000000000000                                                                          BUSCAPINA SIMPLE Iny 20 mgAMP     3
CC0001129510914H202100000556543300000556543303/12/20212352     3300009237421964250000B1AB0200003939510000000000000                 ENOXAPARINA SODICA 40MG/0.4ML(100MG/ML) SOL INY INST CAJ X 2JERPREL X 0.4ML TECHDOWJRP     1
CC0001129510914H202100000556543300000556543303/12/20212352     3300009237421964250000G03D0200001335910000000000000                                                                      GESLUTIN CAP BLANCA 200 MG /R/CAP     3
