CC0000007452994H202100000556536000000556536003/12/20211605     3300003237421964250000A2BC0900000200150000000000000                                                                               ORAZOLE Sln Iny 40 mgCIN     1
CC0000007452994H202100000556536000000556536003/12/20211605     3300003237421964250000C3DA0500001278910000000000000                                                                               GLUCOPHAGE TAB 850 MGTAB     2
CC0000007452994H202100000556536000000556536003/12/20212312    31500391237421964250000E1AD0300000199490000000000000                                         LACTATO RINGER USP (HARTMANN)  SOL INY  BOL X 1000ML BAXTERBIN     2
CC0000007452994H202100000556536000000556536003/12/20211604     3300003237421964250000C09CA400001277130000000000000                                                                                  LOSARTAN TAB 50 MGTAB     1
CC0000007452994H202100000556536000000556536003/12/20211604     3300003237421964250000C10AA400001301110000000000000                                                                                   LIPITOR TAB 40 MGTAB     1
CC0000007452994H202100000556536000000556536003/12/20211605     3300003237421964250000J1CB0600000468340000000000000                                                           UNASYN IM-IV (1+0.5)GR POLV INY INST VIALVAL     3
CC0000007452994H202100000556536000000556536003/12/20211604     3300003237421964250000J1CB0600000468340000000000000                                                           UNASYN IM-IV (1+0.5)GR POLV INY INST VIALVAL     5
CC0000007452994H202100000556536000000556536003/12/20211604     3300003237421964250000N2AX0400001204140000000000000                                                                             TRAMAL Sln Iny 50 mg/mlAMP     3
CC0000007452994H202100000556536000000556536003/12/20211604     3300003237421964250000N2BB0500000217140000000000000                                                                          NOVALGINA Sln Iny 1 g/2 mlAMP     4
