CC0000022467890A202100000027804600000027804603/12/20211501    3190333624042196419000011082700001620070000000000000                                                               EQUIPO SET PRIMARIO C/CLAVE REF 14001BOL     1
CC0000022467890A202100000027804600000027804603/12/20211501    3190333624042196419000030936900001431840000000000000                                                                                              BURETABOL     1
CC0000022467890A202100000027804600000027804603/12/20211501    31903336240421964190000E1AD0200003888320000000000000                                                                              HARTMAN SLN INY 500 MLBOL     1
CC0000022467890A202100000027804600000027804603/12/20211501    31903336240421964190000A3BB0200000512940000000000000                                                                          BUSCAPINA SIMPLE Iny 20 mgAMP     1
CC0000022467890A202100000027804600000027804603/12/20211501    3190333624042196419000029987500000325440000000000000                                                             TUBO ENDOTRAQ 7.0 C/B Y ESPIRAL INTERNASIN     1
CC0000022467890A202100000027804600000027804603/12/20211501    31903336240421964190000M3AC0600000720540000000000000                                                                         ESMERON SLN INY 50 MG /5 MLVAL     1
CC0000022467890A202100000027804600000027804603/12/20211501    31903336240421964190000B02AA100001407470000000000000                                                                    CLINTRANEX SLN INY 500 MG / 5 MLAMP     1
CC0000022467890A202100000027804600000027804603/12/20211501    31903336240421964190000N1BA1900000554750000000000000                                                                     ROXICAINA JALEA 2% TUBO X 30 MLTUB     2
CC0000022467890A202100000027804600000027804603/12/20211501    31903336240421964190000V4AF1000003850710000000000000                                                                    OMNIPAQUE Sln Iny 300 mg x 50 mlFCO     2
CC0000022467890A202100000027804600000027804603/12/20211501    3190333624042196419000024674500000322810000000000000                                                                   JERINGA DESECHABLE 20 ml 21*1 1/2SIN     1
CC0000022467890A202100000027804600000027804603/12/20211501    3190333624042196419000000102400001411250000000000000                                                                           JERINGA DESECHABLE X 50MLSOB     1
CC0000022467890A202100000027804600000027804603/12/20211501    3190333624042196419000031188000000236790000000000000                                                                                     CISTOFLO ADULTOSIN     2
CC0000022467890A202100000027804600000027804603/12/20211501    3190333624042196419000011522500000994380000000000000                                                                    SONDA FOLEY SILICONA # 16 2 VIASSOB     1
CC0000022467890A202100000027804600000027804603/12/20211501    3190333624042196419000011522600000994390000000000000                                                                    SONDA FOLEY SILICONA # 18 2 VIASSOB     1
CC0000022467890A202100000027804600000027804603/12/20211501    3190333624042196419000012472400000232190000000000000                                                                 SUTURA ETHILON 2-0 SC-26 45CM  164TSIN     1
CC0000022467890A202100000027804600000027804603/12/20211501    3190333624042196419000018349500000232810000000000000                                                                                      SEDA 1 SA 87 TSIN     1
