CC0000008301142H202100000556516100000556516103/12/20212118     3300009237421964250000B1AB1200003939350000000000000                 ENOXAPARINA SODICA 80MG/0.8ML(100MG/ML) SOL INY INST CAJ X 2JERPREL X 0.8ML TECHDOWJRP     1
CC0000008301142H202100000556516100000556516103/12/20211847     3300003237421964250000B1AB1200003939350000000000000                 ENOXAPARINA SODICA 80MG/0.8ML(100MG/ML) SOL INY INST CAJ X 2JERPREL X 0.8ML TECHDOWJRP     1
CC0000008301142H202100000556516100000556516103/12/20210836     3300004237421964250000B1AB1200003939350000000000000                 ENOXAPARINA SODICA 80MG/0.8ML(100MG/ML) SOL INY INST CAJ X 2JERPREL X 0.8ML TECHDOWJRP     2
CC0000008301142H202100000556516100000556516103/12/20211830    31903152237421964250000E1AB0300003888390000000000000                                                            SOLUCION SALINA 0.9% SLN INY BO X 500 MLBOL     1
CC0000008301142H202100000556516100000556516103/12/20211847     3300003237421964250000C07A1300001314300000000000000                                                                            CARVEDILOL TAB 25 MG /R/TAB     1
CC0000008301142H202100000556516100000556516103/12/20210836     3300004237421964250000C07A1300001314300000000000000                                                                            CARVEDILOL TAB 25 MG /R/TAB     1
CC0000008301142H202100000556516100000556516103/12/20210836     3300004237421964250000N2BE2200001252930000000000000                                                                             ACETAMINOFEN Tab 500 MGTAB     6
CC0000008301142H202100000556516100000556516103/12/20210836     3300004237421964250000N02BA100001276940000000000000                                                                  ACIDO ACETIL SALIC?LICO TAB 100 MGTAB     1
CC0000008301142H202100000556516100000556516103/12/20210837     3300004237421964250000A02BC700001684270000000000000                                                            OMEPRAZOL 40MG POLVO LIOFILIZADO AMPOLLAVAL     1
CC0000008301142H202100000556516100000556516103/12/20211508    31903301237421964250000V07A1300000502600000000000000                                                                                AGUA ESTERIL x 10 mlAMP     4
CC0000008301142H202100000556516100000556516103/12/20212118     3300009237421964250000N05BA400001313880000000000000                                                                           ALPRAZOLAM 0.5 MG TABLETATAB     1
