CC0001001912009U202100050131901600050131901603/12/20211319    3200080323942196432000038568400000256940000000000000                                                                                   SONDA NELATON #10SIN     1
CC0001001912009U202100050131901600050131901603/12/20211319    3200080323942196432000024674000001138340000000000000   JERINGA 3PARTES C/A 10ML REF JEHL005 CAJ X 100 ALFASAFE  21GX1 PULG 1/2 PULG BN EXENTO-DC.417/202PZA     1
CC0001001912009U202100050131901600050131901603/12/20211319    3200080323942196432000011085100001082120000000000000                                                                           GUANTE QUIRURGICO TALLA 7SOB     1
CC0001001912009U202100050131901600050131901603/12/20211319    3200080323942196432000013077800000471960000000000000                                                             GASA NO TEJIDA EST 7.5 X 7.5 SOB X 3 UNSOB     2
CC0001001912009U202100050131901600050131901603/12/20211319    3200080323942196432000001956000001620610000000000000                                                                      CONECTOR MICRO CLAVE LAT-MC100SOB     1
CC0001001912009U202100050131901600050131901603/12/20211319    32000803239421964320000Q1AA7100000610620000000000000                                                            CATETER PERIFE INTROCAN # 18G 4251687-04SIN     1
CC0001001912009U202100050131901600050131901603/12/20211319    3200080323942196432000016830000000970620000000000000                                                             SIST FIJACION CAT PERIFERICO 6.5X7 1683SOB     1
CC0001001912009U202100050131901600050131901603/12/20211319    32000803239421964320000E1AB0200000199290000000000000                                                            SOLUCION SALINA 0.9% SLN INY BO X 100 MLBIN     1
