CC0000022596813A202100000027805300000027805303/12/20211539    3190333624042196419000043879500001138210000000000000                                                                                    HOJA BISTURI #20SOB     1
CC0000022596813A202100000027805300000027805303/12/20211539    31903336240421964190000N07AA100001233170000000000000                                               NEOSTIGMINA 0.5MG/ML SOL INY INST CAJ X 10AMP VITALISAMP     4
CC0000022596813A202100000027805300000027805303/12/20211539    3190333624042196419000042743200003929860000000000000                   GASA ADHESIVA STRETCH REF 02038-00 ROL X 10MT FIXOMULL 15CM BN EXENTO-DC.417/2020CMT    50
CC0000022596813A202100000027805300000027805303/12/20211539    3190333624042196419000017565800001585150000000000000                                                             SUTURA PROLENE 3-0 45CM PS1 PRIME 8663TSOB     4
CC0000022596813A202100000027805300000027805303/12/20211539    3190333624042196419000001900000000325550000000000000                                                                       HEM-O-LOK MORADO L 544240 X 6SIN     2
CC0000022596813A202100000027805300000027805303/12/20211539    3190333624042196419000047373400000228840000000000000                                                                             PINZA COLOSTOMIA 175635PZA     1
CC0000022596813A202100000027805300000027805303/12/20211539    3190333624042196419000040514100000228740000000000000                                                               BARRERA COLOSTOMIA CONVATEC 57 125145PZA     1
CC0000022596813A202100000027805300000027805303/12/20211539    3190333624042196419000040516100000228660000000000000                                                                 BOLSA COLOSTOMIA CONVATEC 57 402534PZA     1
CC0000022596813A202100000027805300000027805303/12/20211539    31903336240421964190000M03A0900001467590000000000000                                                                        ROCURONIO SLN INY 50 MG/5 MLVAL     1
CC0000022596813A202100000027805300000027805303/12/20211539    3190333624042196419000010252000003981620000000000000                                                            RESUCITADOR MANUAL ADULTO BE - 2503 AMBUBOL     1
CC0000022596813A202100000027805300000027805303/12/20211539    3190333624042196419000013077800000471960000000000000                                                             GASA NO TEJIDA EST 7.5 X 7.5 SOB X 3 UNSOB     2
CC0000022596813A202100000027805300000027805303/12/20211539    3190333624042196419000021052200000380370000000000000                                                                        RESERVORIO J-VAC 100 ml 2160PZA     1
CC0000022596813A202100000027805300000027805303/12/20211539    3190333624042196419000022310200001001130000000000000                                                              DRENAJE SILICONA BLAKE 24 FR  S/CONECTPZA     1
CC0000022596813A202100000027805300000027805303/12/20211539    3190333624042196419000018351100000232850000000000000                                                                                 SEDA 2-0 SC-26 185TSIN     3
CC0000022596813A202100000027805300000027805303/12/20211539    3190333624042196419000019487800001585180000000000000                                                                    VICRYL 1 PLUS 70 CM CT-1 VCP341HSOB     2
CC0000022596813A202100000027805300000027805303/12/20211539    3190333624042196419000019487500000602970000000000000                                                                           VICRYL 2-0 CT1 90 VCP345HSIN     1
CC0000022596813A202100000027805300000027805303/12/20211539    3190333624042196419000019488700000753270000000000000                                                                              VICRYL 3-0 SH1 VCP311HSOB     3
CC0000022596813A202100000027805300000027805303/12/20211539    3190333624042196419000011067500001404570000000000000                                                              TROCAR FIJACION 5MM X 100 MM REF B5STFPZA     3
CC0000022596813A202100000027805300000027805303/12/20211539    3190333624042196419000011067000001404580000000000000                                                               TROCAR FIJACION 12MM X 100 MM  B12STFPZA     1
CC0000022596813A202100000027805300000027805303/12/20211539    3190333624042196419000031010900000762730000000000000                                                                          CANULA GUEDEL # 4 (100 MM)SOB     1
CC0000022596813A202100000027805300000027805303/12/20211539    3190333624042196419000039175100001072060000000000000                                                                           TUBO ENDOTRAQUEAL C/B 7.5SOB     1
CC0000022596813A202100000027805300000027805303/12/20211539    3190333624042196419000036441300000236540000000000000                                                                    JERINGA 1 ML GASES ARTERIAL 9023SIN     2
CC0000022596813A202100000027805300000027805303/12/20211539    31903336240421964190000N01A0500003844190000000000000                                                                          REMIFENTANILO SLN INY 2 MGVAL     2
CC0000022596813A202100000027805300000027805303/12/20211539    31903336240421964190000C01CA200001573670000000000000                                                               ETILEFRINA HCL SLN INY 10 MG/1 ML /R/AMP     1
CC0000022596813A202100000027805300000027805303/12/20211539    31903336240421964190000N01A0400003939010000000000000                                               MAYOPROFOL 200MG/20ML(1%) EMUL INY CAJ X 1VIAL X 20MLVAL     1
CC0000022596813A202100000027805300000027805303/12/20211539    3190333624042196419000011059300000577600000000000000                                                            RECARG LINEAL ECHELON ECR60G  60MM VERDESIN     3
CC0000022596813A202100000027805300000027805303/12/20211539    31903336240421964190000K0006000000852550000000000000                                                             GRAPADORA ECHELON ARTICULABLE 60M EC60ACAJ     1
CC0000022596813A202100000027805300000027805303/12/20211539    3190333624042196419000061537000001612210000000000000                                                                  LIGASURE LAPAROSCOPICO 5 MM LF1637CAJ     1
CC0000022596813A202100000027805300000027805303/12/20211539    3190333624042196419000013428900000967700000000000000                                                                      GRAPADORA CIRCULAR 29MM CDH29ACAJ     1
CC0000022596813A202100000027805300000027805303/12/20211539    31903336240421964190000N1BA0300000217900000000000000                                                                    BUPIROP 0.5% C/E Sln Iny x 20 mlVAL     1
CC0000022596813A202100000027805300000027805303/12/20211539    3190333624042196419000045138000001413890000000000000                                                                       LAPIZ ELECTROBISTURI  SOB X 1SOB     1
CC0000022596813A202100000027805300000027805303/12/20211539    3190333624042196419000011082600000265810000000000000                                                              EQUIPO IRRIGACION URINARIA REF MRC4002SOB     1
CC0000022596813A202100000027805300000027805303/12/20211539    3190333624042196419000024674500000322810000000000000                                                                   JERINGA DESECHABLE 20 ml 21*1 1/2SIN     1
CC0000022596813A202100000027805300000027805303/12/20211539    3190333624042196419000017564700000232600000000000000                                                                               PROLENE 2-0 CT2 8411TSIN     2
CC0000022596813A202100000027805300000027805303/12/20211539    3190333624042196419000000504800004018100000000000000   SUTURA SINTETI ABSORBIBLE CT-2 REF J333H CAJ X 36 VICRYL 70CM - 2-0 VIOLETA BN EXENTO-DC.417/2020SOB     2
CC0000022596813A202100000027805300000027805303/12/20211539    31903336240421964190000N1BA1900000554750000000000000                                                                     ROXICAINA JALEA 2% TUBO X 30 MLTUB     1
CC0000022596813A202100000027805300000027805303/12/20211539    3190333624042196419000038570000001123500000000000000                                                                              SONDA FOLEY #16 2 VIASSOB     1
CC0000022596813A202100000027805300000027805303/12/20211539    3190333624042196419000031188000000236790000000000000                                                                                     CISTOFLO ADULTOSIN     1
CC0000022596813A202100000027805300000027805303/12/20211539    3190333624042196419000016830000000970620000000000000                                                             SIST FIJACION CAT PERIFERICO 6.5X7 1683SOB     1
CC0000022596813A202100000027805300000027805303/12/20211539    31903336240421964190000Q1AA3300001585140000000000000                                                                         APOSITO TEGADERM 10*12 1626SOB     1
CC0000022596813A202100000027805300000027805303/12/20211539    3190333624042196419000011051900000226360000000000000                                                               KIT TRANSDUCTOR SENCILLO S/VAMP PX260SOB     1
CC0000022596813A202100000027805300000027805303/12/20211539    31903336240421964190000B1AB0100001227270000000000000                                             HEPAMAX 25000UI/5ML(5000UI/ML) SOL INY  CAJ X 25AMPX5MLAMP     1
CC0000022596813A202100000027805300000027805303/12/20211539    31903336240421964190000B02AA100001407470000000000000                                                                    CLINTRANEX SLN INY 500 MG / 5 MLAMP     2
CC0000022596813A202100000027805300000027805303/12/20211539    3190333624042196419000018351500000232840000000000000                                                                                    SEDA 2-0 KS 623HSIN     1
CC0000022596813A202100000027805300000027805303/12/20211539    3190333624042196419000043879200001138180000000000000                                                                                   HOJA BISTURI # 11SOB     2
CC0000022596813A202100000027805300000027805303/12/20211539    3190333624042196419000021193900000227540000000000000                                                              CATETER BILUME GARD ADULT 7F*20 26702ESIN     1
CC0000022596813A202100000027805300000027805303/12/20211539    3190333624042196419000022425200000548240000000000000                       EXTENSION DE ANESTESIA REF 1139 SOB X 1 SHERLEG  ADULTO BN EXENTO-DC.417/2020SIN     2
CC0000022596813A202100000027805300000027805303/12/20211539    3190333624042196419000035356500003919000000000000000                                                                                        LLAVE 3 VIASSOB     4
CC0000022596813A202100000027805300000027805303/12/20211539    31903336240421964190000Q1AA7100000610620000000000000                                                            CATETER PERIFE INTROCAN # 18G 4251687-04SIN     1
CC0000022596813A202100000027805300000027805303/12/20211539    3190333624042196419000022426800001140510000000000000                                                                    EQUIPO MACROGOTEO BAXTER MRC0001SOB     2
CC0000022596813A202100000027805300000027805303/12/20211539    31903336240421964190000J01DA300001239950000000000000                                                            CEFAZOLINA SODICA POLVO LIOF SLN INY 1 GVAL     2
CC0000022596813A202100000027805300000027805303/12/20211539    3190333624042196419000011099300000777780000000000000                                                                     FILTRO BACTERIANO VIRICO ADULTOBOL     2
CC0000022596813A202100000027805300000027805303/12/20211539    3190333624042196419000030161400001459220000000000000                                                                       MANGUERA SUCCION 6 MM*3.1 MTSSOB     2
CC0000022596813A202100000027805300000027805303/12/20211539    3190333624042196419000020750600000296780000000000000                                                                PLACA ELECTRO RETORNO PACIENTE E7506SIN     1
CC0000022596813A202100000027805300000027805303/12/20211539    3190333624042196419000011073300001096420000000000000                                                                BOLSA DE SUCCION DE FLUIDOS x 2500mLBOL     1
CC0000022596813A202100000027805300000027805303/12/20211539    3190333624042196419000053074400000607910000000000000                                                               GASA ESTERIL 10*10 SOBRE X 3 UNIDADESSOB    10
CC0000022596813A202100000027805300000027805303/12/20211539    3190333624042196419000011047900000223010000000000000                                                                            JERINGA X 1ML REF 302579SIN     1
CC0000022596813A202100000027805300000027805303/12/20211539    3190333624042196419000024673000001411210000000000000                                                                  JERINGA DESECHABLE 3 ML 21 X 1 1/2SOB     2
CC0000022596813A202100000027805300000027805303/12/20211539    3190333624042196419000024673600000222980000000000000                                                                     JERINGA DESECHABLE 5 ml 27*11/2SIN     2
CC0000022596813A202100000027805300000027805303/12/20211539    3190333624042196419000024674000001138340000000000000   JERINGA 3PARTES C/A 10ML REF JEHL005 CAJ X 100 ALFASAFE  21GX1 PULG 1/2 PULG BN EXENTO-DC.417/202PZA     6
CC0000022596813A202100000027805300000027805303/12/20211539    3190333624042196419000011085300001082140000000000000                                                                           GUANTE QUIRURGICO TALLA 8SOB     5
CC0000022596813A202100000027805300000027805303/12/20211539    3190333624042196419000011085200001585390000000000000                                                                       GUANTE QUIRURGICO TALLA 7 1/2SOB     6
CC0000022596813A202100000027805300000027805303/12/20211539    3190333624042196419000011085100001082120000000000000                                                                           GUANTE QUIRURGICO TALLA 7SOB     6
CC0000022596813A202100000027805300000027805303/12/20211539    3190333624042196419000043485100001618510000000000000                GUANTE QUIRURGICO DE LATEX REF 2D72N65X CAJ X 50 PROTEXIS  6.5 BN EXENTO-DC.417/2020SOB    10
CC0000022596813A202100000027805300000027805303/12/20211539    3190333624042196419000020058100001101630000000000000                                                                     AGUJA HIPODERMICA DESECH 23 X 1SOB     1
CC0000022596813A202100000027805300000027805303/12/20211539    3190333624042196419000000100600000223090000000000000                                                                      AGUJA DESECHABLE 18G X 1 1/2 PSIN     1
CC0000022596813A202100000027805300000027805303/12/20211539    3190333624042196419000038568100000258050000000000000                                                                         CANULA OXIGENO NASAL ADULTOSIN     1
CC0000022596813A202100000027805300000027805303/12/20211539    31903336240421964190000E1AD0200003888320000000000000                                                                              HARTMAN SLN INY 500 MLBOL     2
CC0000022596813A202100000027805300000027805303/12/20211539    31903336240421964190000E1AB0500003888400000000000000                                                              SOLUCION SALINA 0.9% SLN INY X 1000 MLBOL     1
CC0000022596813A202100000027805300000027805303/12/20211539    31903336240421964190000E1AB0300003888390000000000000                                                            SOLUCION SALINA 0.9% SLN INY BO X 500 MLBOL     9
CC0000022596813A202100000027805300000027805303/12/20211539    31903336240421964190000E1AB0200000199290000000000000                                                            SOLUCION SALINA 0.9% SLN INY BO X 100 MLBIN     2
CC0000022596813A202100000027805300000027805303/12/20211539    31903336240421964190000E1AB0700003888350000000000000                                                            SOLUCION SALINA 0.9% SLN INY BO X 250 MLBOL     2
CC0000022596813A202100000027805300000027805303/12/20211539    31903336240421964190000A2BC0900000200150000000000000                                                                               ORAZOLE Sln Iny 40 mgCIN     1
CC0000022596813A202100000027805300000027805303/12/20211539    31903336240421964190000N1BA2400001687720000000000000                                                    LIDOCAINA 2% SOL INY  CAJ X 50AMP X 10ML CORPAULAMP     1
CC0000022596813A202100000027805300000027805303/12/20211539    31903336240421964190000H02A0100001664960000000000000                                                                        DEXAMETASONA SLN INY 4 MG/MLAMP     2
CC0000022596813A202100000027805300000027805303/12/20211539    31903336240421964190000M01A2000001664970000000000000                                                               DICLOFENACO SODICO SLN INY 75 MG/3 MLAMP     1
CC0000022596813A202100000027805300000027805303/12/20211539    31903336240421964190000N2BB0100001672010000000000000                                  DIPIRONA 1GR/2ML(0.5GR/ML) SOL INY INST CAJ X 100AMP X 2ML VITALISAMP     4
CC0000022596813A202100000027805300000027805303/12/20211539    31903336240421964190000A03F0300001626860000000000000                                                                   METOCLOPRAMIDA SLN INY 10 MG/2 MLAMP     1
CC0000022596813A202100000027805300000027805303/12/20211539    31903336240421964190000N2AA0400003888080000000000000                                                                     DEMEROL HCL Sln Iny 100 mg/2 mlAMP     1
CC0000022596813A202100000027805300000027805303/12/20211539    31903336240421964190000N1AH0200003906560000000000000                                                                     FENTANIL Iny 0.05 mg/ml x 10 mlAMP     1
