CC0001104008600H202100000556514100000556514103/12/20211403    31902787237421964250000E1AB0300003888390000000000000                                                            SOLUCION SALINA 0.9% SLN INY BO X 500 MLBOL     1
CC0001104008600H202100000556514100000556514103/12/20212015    31500502237421964250000E1AD0300000199490000000000000                                         LACTATO RINGER USP (HARTMANN)  SOL INY  BOL X 1000ML BAXTERBIN     1
CC0001104008600H202100000556514100000556514103/12/20210707    31902064237421964250000E1AD0300000199490000000000000                                         LACTATO RINGER USP (HARTMANN)  SOL INY  BOL X 1000ML BAXTERBIN     2
CC0001104008600H202100000556514100000556514103/12/20210856     3300004237421964250000V6DB4300000326520000000000000                                                                               OSMOLITE HN x 1500 mlFCO     1
CC0001104008600H202100000556514100000556514103/12/20210856     3300004237421964250000C08CA300001313930000000000000                                                                                AMLODIPINO TAB 10 MGTAB     1
CC0001104008600H202100000556514100000556514103/12/20211904     3300003237421964250000J01CR200000947130000000000000                                                              AMPICILINA /SULBACTAN POLVO LIOF 1.5 GAMP     2
CC0001104008600H202100000556514100000556514103/12/20210856     3300004237421964250000J01CR200000947130000000000000                                                              AMPICILINA /SULBACTAN POLVO LIOF 1.5 GAMP     4
CC0001104008600H202100000556514100000556514103/12/20210856     3300004237421964250000N05A1700001278300000000000000                                                                            QUETIAPINA TAB 25 MG /R/TAB     4
CC0001104008600H202100000556514100000556514103/12/20210856     3300004237421964250000A02BC700001684270000000000000                                                            OMEPRAZOL 40MG POLVO LIOFILIZADO AMPOLLAVAL     1
CC0001104008600H202100000556514100000556514103/12/20211505    31903301237421964250000V07A1300000502600000000000000                                                                                AGUA ESTERIL x 10 mlAMP     4
