CC0000013887621H202100015112734900015112734903/12/20212151    3150012823742196425000043485100001618510000000000000                GUANTE QUIRURGICO DE LATEX REF 2D72N65X CAJ X 50 PROTEXIS  6.5 BN EXENTO-DC.417/2020SOB     1
CC0001129564191H202100015112734900015112734903/12/20212151    3150012823742196425000043485100001618510000000000000                GUANTE QUIRURGICO DE LATEX REF 2D72N65X CAJ X 50 PROTEXIS  6.5 BN EXENTO-DC.417/2020SOB     1
CC0000013887621H202100015112734900015112734903/12/20212151    3150012823742196425000013077800000471960000000000000                                                             GASA NO TEJIDA EST 7.5 X 7.5 SOB X 3 UNSOB     4
CC0001129564191H202100015112734900015112734903/12/20212151    3150012823742196425000013077800000471960000000000000                                                             GASA NO TEJIDA EST 7.5 X 7.5 SOB X 3 UNSOB     4
CC0000013887621H202100015112734900015112734903/12/20212151    3150012823742196425000022426800001140510000000000000                                                                    EQUIPO MACROGOTEO BAXTER MRC0001SOB     1
CC0000013887621H202100015112734900015112734903/12/20212151    3150012823742196425000011082700001620070000000000000                                                               EQUIPO SET PRIMARIO C/CLAVE REF 14001BOL     4
CC0000013887621H202100015112734900015112734903/12/20212151    3150012823742196425000030936900001431840000000000000                                                                                              BURETABOL     1
CC0000013887621H202100015112734900015112734903/12/20212151    3150012823742196425000000602700001197200000000000000                                                              APOSITO TRANSP  1655 IV 8.5CM X 11.5CMSOB     1
CC0001129564191H202100015112734900015112734903/12/20212151    3150012823742196425000000602700001197200000000000000                                                              APOSITO TRANSP  1655 IV 8.5CM X 11.5CMSOB     1
