CC0000080424776H202100000556519700000556519703/12/20210924     3300010237421964250000A02B0600001277230000000000000                                                                                NEXIUM Tab 40 mg /R/TAB     1
CC0000080424776H202100000556519700000556519703/12/20210923     3300010237421964250000B1AB0200003939510000000000000                 ENOXAPARINA SODICA 40MG/0.4ML(100MG/ML) SOL INY INST CAJ X 2JERPREL X 0.4ML TECHDOWJRP     1
CC0000080424776H202100000556519700000556519703/12/20211724    31500347237421964250000E1AB0500003888400000000000000                                                              SOLUCION SALINA 0.9% SLN INY X 1000 MLBOL     2
CC0000080424776H202100000556519700000556519703/12/20210924     3300010237421964250000J3CB2100000547740000000000000                                                                      CIPRO IV SLN INY 400 Mg/200 MLFCO     2
CC0000080424776H202100000556519700000556519703/12/20210924     3300010237421964250000N2BE2400001313800000000000000                                                                           SINALGEN TAB 5/325 MG /R/TAB     3
CC0000080424776H202100000556519700000556519703/12/20211523     3300003237421964250000N02B1100001464120000000000000                                           PARACETAMOL EP 1000MG/100ML(10MG/ML) SOL INY  CAJ X 10FCOVAL     1
CC0000080424776H202100000556519700000556519703/12/20210923     3300010237421964250000N02B1100001464120000000000000                                           PARACETAMOL EP 1000MG/100ML(10MG/ML) SOL INY  CAJ X 10FCOVAL     2
CC0000080424776H202100000556519700000556519703/12/20211035    31903310237421964250000V07A1300000502600000000000000                                                                                AGUA ESTERIL x 10 mlAMP     8
