CC0000022438763H202100015052798900015052798903/12/20212106    3150036323742196425000011082700001620070000000000000                                                               EQUIPO SET PRIMARIO C/CLAVE REF 14001BOL     1
RC0001084457432H202100015052798900015052798903/12/20212106    3150036323742196425000011082700001620070000000000000                                                               EQUIPO SET PRIMARIO C/CLAVE REF 14001BOL     1
CC0000022438763H202100015052798900015052798903/12/20212106    3150036323742196425000030936900001431840000000000000                                                                                              BURETABOL     1
RC0001084457432H202100015052798900015052798903/12/20212106    3150036323742196425000030936900001431840000000000000                                                                                              BURETABOL     1
CC0000022438763H202100015052798900015052798903/12/20212106    31500363237421964250000E1AD0300000199490000000000000                                         LACTATO RINGER USP (HARTMANN)  SOL INY  BOL X 1000ML BAXTERBIN     1
CC0000028496269H202100015052798900015052798903/12/20212106    31500363237421964250000E1AD0300000199490000000000000                                         LACTATO RINGER USP (HARTMANN)  SOL INY  BOL X 1000ML BAXTERBIN     1
CC0000022362807H202100015052798900015052798903/12/20212106    31500363237421964250000E1AD0300000199490000000000000                                         LACTATO RINGER USP (HARTMANN)  SOL INY  BOL X 1000ML BAXTERBIN     1
RC0001146544136H202100015052798900015052798903/12/20212106    31500363237421964250000E1AD0300000199490000000000000                                         LACTATO RINGER USP (HARTMANN)  SOL INY  BOL X 1000ML BAXTERBIN     1
CC0000008257979H202100015052798900015052798903/12/20212106    31500363237421964250000E1AB0300003888390000000000000                                                            SOLUCION SALINA 0.9% SLN INY BO X 500 MLBOL     1
CC0001140875648H202100015052798900015052798903/12/20212106    31500363237421964250000E1AB0300003888390000000000000                                                            SOLUCION SALINA 0.9% SLN INY BO X 500 MLBOL     1
CC0000022530541H202100015052798900015052798903/12/20212106    31500363237421964250000E1AB0300003888390000000000000                                                            SOLUCION SALINA 0.9% SLN INY BO X 500 MLBOL     1
RC0001187466818H202100015052798900015052798903/12/20212106    31500363237421964250000E1AC0100000199400000000000000                                                                          SUERO MIXTO Sln Iny 500 mlBIN     1
RC0001084457432H202100015052798900015052798903/12/20212106    31500363237421964250000E1AC0100000199400000000000000                                                                          SUERO MIXTO Sln Iny 500 mlBIN     1
