CC0001151478323H202100000556507900000556507903/12/20210922     3300004237421964250000A04A0600001277030000000000000                                                                                      ONDAX TAB 8 MGTAB     4
CC0001151478323H202100000556507900000556507903/12/20210148     3300009237421964250000A6AC0200001467010000000000000                                                             LACTULAX JARABE 66.7G/100ML SOX15ML /R/SOB     3
CC0001151478323H202100000556507900000556507903/12/20212149    31903062237421964250000E1AB0500003888400000000000000                                                              SOLUCION SALINA 0.9% SLN INY X 1000 MLBOL     2
CC0001151478323H202100000556507900000556507903/12/20211621     3300010237421964250000H02AB500001664950000000000000                                                            DEXAMETASONA SLN INY 8 MG/2 ML AMP /CDS/AMP     1
CC0001151478323H202100000556507900000556507903/12/20210922     3300004237421964250000H02AB500001664950000000000000                                                            DEXAMETASONA SLN INY 8 MG/2 ML AMP /CDS/AMP     1
CC0001151478323H202100000556507900000556507903/12/20210148     3300009237421964250000H02AB500001664950000000000000                                                            DEXAMETASONA SLN INY 8 MG/2 ML AMP /CDS/AMP     3
CC0001151478323H202100000556507900000556507903/12/20210923     3300004237421964250000N02B1100001464120000000000000                                           PARACETAMOL EP 1000MG/100ML(10MG/ML) SOL INY  CAJ X 10FCOVAL     1
CC0001151478323H202100000556507900000556507903/12/20210149     3300009237421964250000N02B1100001464120000000000000                                           PARACETAMOL EP 1000MG/100ML(10MG/ML) SOL INY  CAJ X 10FCOVAL     3
CC0001151478323H202100000556507900000556507903/12/20210923     3300004237421964250000N03AX200001063780000000000000                                                                      KEPPRA SLN INY 500 MG/5 ML /R/VAL     2
CC0001151478323H202100000556507900000556507903/12/20210149     3300009237421964250000N03AX200001063780000000000000                                                                      KEPPRA SLN INY 500 MG/5 ML /R/VAL     8
CC0001151478323H202100000556507900000556507903/12/20210149     3300009237421964250000N2AA0200000301600000000000000                                                                        HIDROMORFONA Sln Iny 2 mg/mlAMP     2
CC0001151478323H202100000556507900000556507903/12/20211621     3300010237421964250000A02BC700001684270000000000000                                                            OMEPRAZOL 40MG POLVO LIOFILIZADO AMPOLLAVAL     1
CC0001151478323H202100000556507900000556507903/12/20210149     3300009237421964250000A02BC700001684270000000000000                                                            OMEPRAZOL 40MG POLVO LIOFILIZADO AMPOLLAVAL     1
CC0001151478323H202100000556507900000556507903/12/20211248    31903313237421964250000V07A1300000502600000000000000                                                                                AGUA ESTERIL x 10 mlAMP     5
