RC0001146546681H202100015132527400015132527403/12/20211130    3190330923742196425000038568200000257000000000000000                                                                                   SONDA NELATON #06SIN     1
RC0001044236218H202100015132527400015132527403/12/20211130    3190330923742196425000038568200000257000000000000000                                                                                   SONDA NELATON #06SIN     1
RC0001143474189H202100015132527400015132527403/12/20211130    3190330923742196425000013077800000471960000000000000                                                             GASA NO TEJIDA EST 7.5 X 7.5 SOB X 3 UNSOB     2
RC0001048091909H202100015132527400015132527403/12/20211130    3190330923742196425000013077800000471960000000000000                                                             GASA NO TEJIDA EST 7.5 X 7.5 SOB X 3 UNSOB     2
RC0001146846680H202100015132527400015132527403/12/20211130    3190330923742196425000013077800000471960000000000000                                                             GASA NO TEJIDA EST 7.5 X 7.5 SOB X 3 UNSOB     2
RC0001146546681H202100015132527400015132527403/12/20211130    3190330923742196425000013077800000471960000000000000                                                             GASA NO TEJIDA EST 7.5 X 7.5 SOB X 3 UNSOB     2
NV0000170258691H202100015132527400015132527403/12/20211130    3190330923742196425000013077800000471960000000000000                                                             GASA NO TEJIDA EST 7.5 X 7.5 SOB X 3 UNSOB     2
RC0001143474190H202100015132527400015132527403/12/20211130    3190330923742196425000013077800000471960000000000000                                                             GASA NO TEJIDA EST 7.5 X 7.5 SOB X 3 UNSOB     2
RC0001047065603H202100015132527400015132527403/12/20211130    3190330923742196425000013077800000471960000000000000                                                             GASA NO TEJIDA EST 7.5 X 7.5 SOB X 3 UNSOB     2
RC0001044236218H202100015132527400015132527403/12/20211130    3190330923742196425000013077800000471960000000000000                                                             GASA NO TEJIDA EST 7.5 X 7.5 SOB X 3 UNSOB     2
RC0001048092074H202100015132527400015132527403/12/20211130    3190330923742196425000013077800000471960000000000000                                                             GASA NO TEJIDA EST 7.5 X 7.5 SOB X 3 UNSOB     2
RC0001047065574H202100015132527400015132527403/12/20211130    3190330923742196425000013077800000471960000000000000                                                             GASA NO TEJIDA EST 7.5 X 7.5 SOB X 3 UNSOB     2
RC0001044436459H202100015132527400015132527403/12/20211130    3190330923742196425000013077800000471960000000000000                                                             GASA NO TEJIDA EST 7.5 X 7.5 SOB X 3 UNSOB     2
RC0001048091952H202100015132527400015132527403/12/20211130    3190330923742196425000013077800000471960000000000000                                                             GASA NO TEJIDA EST 7.5 X 7.5 SOB X 3 UNSOB     4
RC0001044436459H202100015132527400015132527403/12/20211130    3190330923742196425000042753100003929850000000000000                   GASA ADHESIVA STRETCH REF 02037-00 ROL X 10MT FIXOMULL 10CM BN EXENTO-DC.417/2020CMT    20
RC0001048091952H202100015132527400015132527403/12/20211130    3190330923742196425000042753100003929850000000000000                   GASA ADHESIVA STRETCH REF 02037-00 ROL X 10MT FIXOMULL 10CM BN EXENTO-DC.417/2020CMT    20
