CC0001042353509H202100015052799300015052799303/12/20212259    3150024523742196425000000800300000859980000000000000                                                                     VENDA ELASTICA 6 X 5 YARDAS ANTBOL     4
CC0000029278345H202100015052799300015052799303/12/20212259    3150024523742196425000043485100001618510000000000000                GUANTE QUIRURGICO DE LATEX REF 2D72N65X CAJ X 50 PROTEXIS  6.5 BN EXENTO-DC.417/2020SOB     1
CC0000007452994H202100015052799300015052799303/12/20212259    3150024523742196425000043485100001618510000000000000                GUANTE QUIRURGICO DE LATEX REF 2D72N65X CAJ X 50 PROTEXIS  6.5 BN EXENTO-DC.417/2020SOB     1
CC0000022438763H202100015052799300015052799303/12/20212259    3150024523742196425000043485100001618510000000000000                GUANTE QUIRURGICO DE LATEX REF 2D72N65X CAJ X 50 PROTEXIS  6.5 BN EXENTO-DC.417/2020SOB     1
CC0001042353509H202100015052799300015052799303/12/20212259    3150024523742196425000011089300001083990000000000000                                                              GUANTE ESTERIL LATEX S/POLVO TALLA 7.5SOB     2
CC0000029278345H202100015052799300015052799303/12/20212259    3150024523742196425000013077800000471960000000000000                                                             GASA NO TEJIDA EST 7.5 X 7.5 SOB X 3 UNSOB     6
CC0000007452994H202100015052799300015052799303/12/20212259    3150024523742196425000013077800000471960000000000000                                                             GASA NO TEJIDA EST 7.5 X 7.5 SOB X 3 UNSOB     6
CC0000022438763H202100015052799300015052799303/12/20212259    3150024523742196425000013077800000471960000000000000                                                             GASA NO TEJIDA EST 7.5 X 7.5 SOB X 3 UNSOB    10
CC0001042353509H202100015052799300015052799303/12/20212259    3150024523742196425000013077800000471960000000000000                                                             GASA NO TEJIDA EST 7.5 X 7.5 SOB X 3 UNSOB    20
CC0000029278345H202100015052799300015052799303/12/20212259    3150024523742196425000042743200003929860000000000000                   GASA ADHESIVA STRETCH REF 02038-00 ROL X 10MT FIXOMULL 15CM BN EXENTO-DC.417/2020CMT    20
CC0000007452994H202100015052799300015052799303/12/20212259    3150024523742196425000042743200003929860000000000000                   GASA ADHESIVA STRETCH REF 02038-00 ROL X 10MT FIXOMULL 15CM BN EXENTO-DC.417/2020CMT    20
CC0000022438763H202100015052799300015052799303/12/20212259    3150024523742196425000042743200003929860000000000000                   GASA ADHESIVA STRETCH REF 02038-00 ROL X 10MT FIXOMULL 15CM BN EXENTO-DC.417/2020CMT    30
CC0001042353509H202100015052799300015052799303/12/20212259    3150024523742196425000000600800000258580000000000000                                                              APOSITO BACTIGRAS REF 7461 15CM X 20CMSIN     1
CC0001042353509H202100015052799300015052799303/12/20212259    31500245237421964250000E1AB0700003888350000000000000                                                            SOLUCION SALINA 0.9% SLN INY BO X 250 MLBOL     1
