CC0001140875005U202100000556540300000556540303/12/20211909     3300010239421964320000A2BC0900000200150000000000000                                                                               ORAZOLE Sln Iny 40 mgCIN     1
CC0001140875005U202100000556540300000556540303/12/20211909     3300010239421964320000A4AD0200000202990000000000000                                                                     PLITICAN HCL Sln Iny 50 mg/2 mlAMP     1
CC0001140875005U202100000556540300000556540303/12/20212013    31500188239421964320000E1AD0300000199490000000000000                                         LACTATO RINGER USP (HARTMANN)  SOL INY  BOL X 1000ML BAXTERBIN     1
CC0001140875005U202100000556540300000556540303/12/20211909     3300010239421964320000A3BB0300000512950000000000000                                                             BUSCAPINA COMP Sln Iny 20 mg+2.5 g/5 mlAMP     1
