RC0001125232601H202100000556521100000556521103/12/20212359     3300009237421964250000A12BA100000552980000000000000                                                            CLORURO POTASIO Sln Iny AMP 20 MEQ/10 MLAMP     1
RC0001125232601H202100000556521100000556521103/12/20211428     3300003237421964250000J01GB300001109550000000000000                                                                      AMIKACINA SLN INY 100 MG/ 2 MLAMP     1
RC0001125232601H202100000556521100000556521103/12/20210946     3300004237421964250000J01GB300001109550000000000000                                                                      AMIKACINA SLN INY 100 MG/ 2 MLAMP     1
RC0001125232601H202100000556521100000556521103/12/20210946     3300004237421964250000N2BE1100000836430000000000000                                             ACETAMINOFEN 150MG/5ML(3%) JBE INST FCO X 60ML AMER GENCAJ     1
RC0001125232601H202100000556521100000556521103/12/20211056    31903291237421964250000V07A1300000502600000000000000                                                                                AGUA ESTERIL x 10 mlAMP     5
