CC0000032753507H202100920534120300920534120303/12/20212127    3190302323742196425000016830000000970620000000000000                                                             SIST FIJACION CAT PERIFERICO 6.5X7 1683SOB     1
CC0000032753507H202100920534120300920534120303/12/20212127    31903023237421964250000Q1AA7300000610640000000000000                                                            CATETER PERIFE INTROCAN # 22G 4251628-04SIN     1
CC0000032753507H202100920534120300920534120303/12/20212127    3190302323742196425000001956000001620610000000000000                                                                      CONECTOR MICRO CLAVE LAT-MC100SOB     1
CC0000032753507H202100920534120300920534120303/12/20212132    3190325423742196425000016830000000970620000000000000                                                             SIST FIJACION CAT PERIFERICO 6.5X7 1683SOB     1
CC0000032753507H202100920534120300920534120303/12/20212132    31903254237421964250000Q1AA7300000610640000000000000                                                            CATETER PERIFE INTROCAN # 22G 4251628-04SIN     1
CC0000032753507H202100920534120300920534120303/12/20212132    3190325423742196425000001956000001620610000000000000                                                                      CONECTOR MICRO CLAVE LAT-MC100SOB     1
