TI0001084054338A202100000027827900000027827903/12/20210827    3190333624042196419000049428200000860740000000000000                                                                       VENDA ELASTICA 3*5 NO ESTERILBOL     1
TI0001084054338A202100000027827900000027827903/12/20210827    3190333624042196419000040511500000258400000000000000                                                               APOSITO BACTIGRAS REF 7456  5CM X 5CMSIN     1
TI0001084054338A202100000027827900000027827903/12/20210827    31903336240421964190000N02B1100001464120000000000000                                           PARACETAMOL EP 1000MG/100ML(10MG/ML) SOL INY  CAJ X 10FCOVAL     1
TI0001084054338A202100000027827900000027827903/12/20210827    3190333624042196419000012472400000232190000000000000                                                                 SUTURA ETHILON 2-0 SC-26 45CM  164TSIN     1
TI0001084054338A202100000027827900000027827903/12/20210827    3190333624042196419000043879100001138200000000000000                                                                  HOJA BISTURI # 15 CSSB 15 01002003SOB     1
TI0001084054338A202100000027827900000027827903/12/20210827    31903336240421964190000E1AB0300003888390000000000000                                                            SOLUCION SALINA 0.9% SLN INY BO X 500 MLBOL     1
TI0001084054338A202100000027827900000027827903/12/20210827    3190333624042196419000022425200000548240000000000000                       EXTENSION DE ANESTESIA REF 1139 SOB X 1 SHERLEG  ADULTO BN EXENTO-DC.417/2020SIN     1
TI0001084054338A202100000027827900000027827903/12/20210827    3190333624042196419000035356500003919000000000000000                                                                                        LLAVE 3 VIASSOB     2
TI0001084054338A202100000027827900000027827903/12/20210827    31903336240421964190000Q1AA7100000610620000000000000                                                            CATETER PERIFE INTROCAN # 18G 4251687-04SIN     2
TI0001084054338A202100000027827900000027827903/12/20210827    3190333624042196419000022426800001140510000000000000                                                                    EQUIPO MACROGOTEO BAXTER MRC0001SOB     1
TI0001084054338A202100000027827900000027827903/12/20210827    3190333624042196419000016830000000970620000000000000                                                             SIST FIJACION CAT PERIFERICO 6.5X7 1683SOB     1
TI0001084054338A202100000027827900000027827903/12/20210827    31903336240421964190000J01DA300001239950000000000000                                                            CEFAZOLINA SODICA POLVO LIOF SLN INY 1 GVAL     2
TI0001084054338A202100000027827900000027827903/12/20210827    3190333624042196419000038568100000258050000000000000                                                                         CANULA OXIGENO NASAL ADULTOSIN     1
TI0001084054338A202100000027827900000027827903/12/20210827    3190333624042196419000053074400000607910000000000000                                                               GASA ESTERIL 10*10 SOBRE X 3 UNIDADESSOB     4
TI0001084054338A202100000027827900000027827903/12/20210827    3190333624042196419000011085300001082140000000000000                                                                           GUANTE QUIRURGICO TALLA 8SOB     2
TI0001084054338A202100000027827900000027827903/12/20210827    3190333624042196419000011085200001585390000000000000                                                                       GUANTE QUIRURGICO TALLA 7 1/2SOB     1
TI0001084054338A202100000027827900000027827903/12/20210827    3190333624042196419000043485100001618510000000000000                GUANTE QUIRURGICO DE LATEX REF 2D72N65X CAJ X 50 PROTEXIS  6.5 BN EXENTO-DC.417/2020SOB     1
TI0001084054338A202100000027827900000027827903/12/20210827    3190333624042196419000024674000001138340000000000000   JERINGA 3PARTES C/A 10ML REF JEHL005 CAJ X 100 ALFASAFE  21GX1 PULG 1/2 PULG BN EXENTO-DC.417/202PZA     3
TI0001084054338A202100000027827900000027827903/12/20210827    31903336240421964190000N01A0400003939010000000000000                                               MAYOPROFOL 200MG/20ML(1%) EMUL INY CAJ X 1VIAL X 20MLVAL     1
TI0001084054338A202100000027827900000027827903/12/20210827    31903336240421964190000M1AX0200001569410000000000000                                                                         KETRON SLN INY 30 MG / 2 MLAMP     1
TI0001084054338A202100000027827900000027827903/12/20210827    31903336240421964190000A4AD0200000202990000000000000                                                                     PLITICAN HCL Sln Iny 50 mg/2 mlAMP     1
TI0001084054338A202100000027827900000027827903/12/20210827    31903336240421964190000N01B1300001195250000000000000                                                                         BUPIROP 0.5% S/EPIN X 10 MLAMP     1
TI0001084054338A202100000027827900000027827903/12/20210827    31903336240421964190000N1BA2400001687720000000000000                                                    LIDOCAINA 2% SOL INY  CAJ X 50AMP X 10ML CORPAULAMP     2
TI0001084054338A202100000027827900000027827903/12/20210827    31903336240421964190000N01B0200003888110000000000000                                           ROXICAINA SE 100MG/10ML(1%) SOL INY CAJ X 24AMPACK X 10MLAPC     1
TI0001084054338A202100000027827900000027827903/12/20210827    31903336240421964190000N1AH0200003906560000000000000                                                                     FENTANIL Iny 0.05 mg/ml x 10 mlAMP     1
