CC0000072339909H202100000556507300000556507303/12/20210841     3300010237421964250000B1AB1400000718160000000000000                                                                  FRAXIPARINA SLN INY 3800 UI/0.4 MLJRP     1
CC0000072339909H202100000556507300000556507303/12/20211659    31901827237421964250000E1AB0200000199290000000000000                                                            SOLUCION SALINA 0.9% SLN INY BO X 100 MLBIN     3
CC0000072339909H202100000556507300000556507303/12/20211659    31901827237421964250000E1AB0500003888400000000000000                                                              SOLUCION SALINA 0.9% SLN INY X 1000 MLBOL     3
CC0000072339909H202100000556507300000556507303/12/20212255     3300009237421964250000C01DA100000176460000000000000                                                            NITROGLICERINA EN DEXTROSA VIAL X 250 MLFCO     1
CC0000072339909H202100000556507300000556507303/12/20210840     3300010237421964250000C01DA100000176460000000000000                                                            NITROGLICERINA EN DEXTROSA VIAL X 250 MLFCO     1
CC0000072339909H202100000556507300000556507303/12/20211420     3300010237421964250000C09CA400001277130000000000000                                                                                  LOSARTAN TAB 50 MGTAB     3
CC0000072339909H202100000556507300000556507303/12/20212258     3300009237421964250000N07X0300003913670000000000000                                    DEXMEDETOMIDINA 400MCG/100ML(4MCG/ML) SOL INY BOL X 100ML BAXTERBOL     4
CC0000072339909H202100000556507300000556507303/12/20210840     3300010237421964250000N07X0300003913670000000000000                                    DEXMEDETOMIDINA 400MCG/100ML(4MCG/ML) SOL INY BOL X 100ML BAXTERBOL     3
CC0000072339909H202100000556507300000556507303/12/20212255     3300009237421964250000A11A2200001050880000000000000                                                                 GLUCERNA LIQUIDO 1.5 KCAL X 1000 MLFCO     1
CC0000072339909H202100000556507300000556507303/12/20211420     3300010237421964250000H02AB700000585860000000000000                                                                HIDROCORTISONA SUCCI POL LIOF 100 MGVAL     3
CC0000072339909H202100000556507300000556507303/12/20212255     3300009237421964250000R3CA0100001051880000000000000                                                               ADRENALINA HCL SLN INY 1 MG / ML ECARAMP     1
CC0000072339909H202100000556507300000556507303/12/20211421     3300010237421964250000R3CA0100001051880000000000000                                                               ADRENALINA HCL SLN INY 1 MG / ML ECARAMP     5
CC0000072339909H202100000556507300000556507303/12/20212255     3300009237421964250000C02C0100001316210000000000000                                                                                     PRATEN TAB 1 MGTAB     3
CC0000072339909H202100000556507300000556507303/12/20211421     3300010237421964250000C7AB0100001276990000000000000                                                                            BETOPROLOL TAB 50 MG /R/TAB     1
CC0000072339909H202100000556507300000556507303/12/20211420     3300010237421964250000C7AB0100001276990000000000000                                                                            BETOPROLOL TAB 50 MG /R/TAB     2
CC0000072339909H202100000556507300000556507303/12/20210839     3300010237421964250000C10AA500001314010000000000000                                                                             ATORVASTATINA TAB 40 MGTAB     2
CC0000072339909H202100000556507300000556507303/12/20210840     3300010237421964250000J01DD500001239970000000000000                                                                  CEFTRIAXONA POLVO LIOF SLN INY 1 GVAL     2
CC0000072339909H202100000556507300000556507303/12/20211748     3300003237421964250000N2BE2200001252930000000000000                                                                             ACETAMINOFEN Tab 500 MGTAB     2
CC0000072339909H202100000556507300000556507303/12/20210840     3300010237421964250000N2BE2200001252930000000000000                                                                             ACETAMINOFEN Tab 500 MGTAB     6
CC0000072339909H202100000556507300000556507303/12/20210839     3300010237421964250000N02BA100001276940000000000000                                                                  ACIDO ACETIL SALIC?LICO TAB 100 MGTAB     1
CC0000072339909H202100000556507300000556507303/12/20210840     3300010237421964250000N05A1700001278300000000000000                                                                            QUETIAPINA TAB 25 MG /R/TAB     4
CC0000072339909H202100000556507300000556507303/12/20210840     3300010237421964250000A02BC700001684270000000000000                                                            OMEPRAZOL 40MG POLVO LIOFILIZADO AMPOLLAVAL     1
CC0000072339909H202100000556507300000556507303/12/20211659    31901827237421964250000V07A1300000502600000000000000                                                                                AGUA ESTERIL x 10 mlAMP     5
