RC0001143474189H202100015132527200015132527203/12/20210821    31901452237421964250000V07A1300000502600000000000000                                                                                AGUA ESTERIL x 10 mlAMP     3
RC0001048091909H202100015132527200015132527203/12/20210821    31901452237421964250000V07A1300000502600000000000000                                                                                AGUA ESTERIL x 10 mlAMP     5
RC0001143474190H202100015132527200015132527203/12/20210821    31901452237421964250000V07A1300000502600000000000000                                                                                AGUA ESTERIL x 10 mlAMP     1
RC0001044236218H202100015132527200015132527203/12/20210821    31901452237421964250000V07A1300000502600000000000000                                                                                AGUA ESTERIL x 10 mlAMP     3
RC0001048092074H202100015132527200015132527203/12/20210821    31901452237421964250000V07A1300000502600000000000000                                                                                AGUA ESTERIL x 10 mlAMP     3
RC0001044436459H202100015132527200015132527203/12/20210821    31901452237421964250000V07A1300000502600000000000000                                                                                AGUA ESTERIL x 10 mlAMP     4
RC0001048091952H202100015132527200015132527203/12/20210821    31901452237421964250000V07A1300000502600000000000000                                                                                AGUA ESTERIL x 10 mlAMP     5
RC0001143474189H202100015132527200015132527203/12/20210821    3190145223742196425000035356500003919000000000000000                                                                                        LLAVE 3 VIASSOB     2
RC0001047065603H202100015132527200015132527203/12/20210821    3190145223742196425000035356500003919000000000000000                                                                                        LLAVE 3 VIASSOB     2
RC0001044236218H202100015132527200015132527203/12/20210821    3190145223742196425000035356500003919000000000000000                                                                                        LLAVE 3 VIASSOB     2
RC0001044436459H202100015132527200015132527203/12/20210821    3190145223742196425000035356500003919000000000000000                                                                                        LLAVE 3 VIASSOB     2
RC0001048091952H202100015132527200015132527203/12/20210821    3190145223742196425000035356500003919000000000000000                                                                                        LLAVE 3 VIASSOB     2
RC0001143474189H202100015132527200015132527203/12/20210821    3190145223742196425000024674000001138340000000000000   JERINGA 3PARTES C/A 10ML REF JEHL005 CAJ X 100 ALFASAFE  21GX1 PULG 1/2 PULG BN EXENTO-DC.417/202PZA     4
RC0001048091909H202100015132527200015132527203/12/20210821    3190145223742196425000024674000001138340000000000000   JERINGA 3PARTES C/A 10ML REF JEHL005 CAJ X 100 ALFASAFE  21GX1 PULG 1/2 PULG BN EXENTO-DC.417/202PZA     5
RC0001146846680H202100015132527200015132527203/12/20210821    3190145223742196425000024674000001138340000000000000   JERINGA 3PARTES C/A 10ML REF JEHL005 CAJ X 100 ALFASAFE  21GX1 PULG 1/2 PULG BN EXENTO-DC.417/202PZA     2
RC0001146546681H202100015132527200015132527203/12/20210821    3190145223742196425000024674000001138340000000000000   JERINGA 3PARTES C/A 10ML REF JEHL005 CAJ X 100 ALFASAFE  21GX1 PULG 1/2 PULG BN EXENTO-DC.417/202PZA     2
RC0001143474190H202100015132527200015132527203/12/20210821    3190145223742196425000024674000001138340000000000000   JERINGA 3PARTES C/A 10ML REF JEHL005 CAJ X 100 ALFASAFE  21GX1 PULG 1/2 PULG BN EXENTO-DC.417/202PZA     2
RC0001044236218H202100015132527200015132527203/12/20210821    3190145223742196425000024674000001138340000000000000   JERINGA 3PARTES C/A 10ML REF JEHL005 CAJ X 100 ALFASAFE  21GX1 PULG 1/2 PULG BN EXENTO-DC.417/202PZA     4
RC0001048092074H202100015132527200015132527203/12/20210821    3190145223742196425000024674000001138340000000000000   JERINGA 3PARTES C/A 10ML REF JEHL005 CAJ X 100 ALFASAFE  21GX1 PULG 1/2 PULG BN EXENTO-DC.417/202PZA     3
RC0001044436459H202100015132527200015132527203/12/20210821    3190145223742196425000024674000001138340000000000000   JERINGA 3PARTES C/A 10ML REF JEHL005 CAJ X 100 ALFASAFE  21GX1 PULG 1/2 PULG BN EXENTO-DC.417/202PZA     6
RC0001048091952H202100015132527200015132527203/12/20210821    3190145223742196425000024674000001138340000000000000   JERINGA 3PARTES C/A 10ML REF JEHL005 CAJ X 100 ALFASAFE  21GX1 PULG 1/2 PULG BN EXENTO-DC.417/202PZA     7
RC0001143474189H202100015132527200015132527203/12/20210821    3190145223742196425000043485100001618510000000000000                GUANTE QUIRURGICO DE LATEX REF 2D72N65X CAJ X 50 PROTEXIS  6.5 BN EXENTO-DC.417/2020SOB     1
RC0001047065603H202100015132527200015132527203/12/20210821    3190145223742196425000043485100001618510000000000000                GUANTE QUIRURGICO DE LATEX REF 2D72N65X CAJ X 50 PROTEXIS  6.5 BN EXENTO-DC.417/2020SOB     1
RC0001044236218H202100015132527200015132527203/12/20210821    3190145223742196425000043485100001618510000000000000                GUANTE QUIRURGICO DE LATEX REF 2D72N65X CAJ X 50 PROTEXIS  6.5 BN EXENTO-DC.417/2020SOB     2
RC0001044436459H202100015132527200015132527203/12/20210821    3190145223742196425000043485100001618510000000000000                GUANTE QUIRURGICO DE LATEX REF 2D72N65X CAJ X 50 PROTEXIS  6.5 BN EXENTO-DC.417/2020SOB     1
RC0001048091952H202100015132527200015132527203/12/20210821    3190145223742196425000043485100001618510000000000000                GUANTE QUIRURGICO DE LATEX REF 2D72N65X CAJ X 50 PROTEXIS  6.5 BN EXENTO-DC.417/2020SOB     1
RC0001143474189H202100015132527200015132527203/12/20210821    3190145223742196425000011085100001082120000000000000                                                                           GUANTE QUIRURGICO TALLA 7SOB     1
RC0001047065603H202100015132527200015132527203/12/20210821    3190145223742196425000011085100001082120000000000000                                                                           GUANTE QUIRURGICO TALLA 7SOB     1
RC0001044236218H202100015132527200015132527203/12/20210821    3190145223742196425000011085100001082120000000000000                                                                           GUANTE QUIRURGICO TALLA 7SOB     2
RC0001044436459H202100015132527200015132527203/12/20210821    3190145223742196425000011085100001082120000000000000                                                                           GUANTE QUIRURGICO TALLA 7SOB     1
RC0001048091952H202100015132527200015132527203/12/20210821    3190145223742196425000011085100001082120000000000000                                                                           GUANTE QUIRURGICO TALLA 7SOB     1
RC0001044236218H202100015132527200015132527203/12/20210821    31901452237421964250000E1BA0100000198890000000000000                                                                   AGUA ESTERIL USP SLN INY X 500 MLBIN     2
RC0001048091909H202100015132527200015132527203/12/20210821    31901452237421964250000E1AA1400003888550000000000000                                                                         DEXTROSA 10% SLN INY 250 MLBOL     1
RC0001048091909H202100015132527200015132527203/12/20210821    31901452237421964250000E1AB0200000199290000000000000                                                            SOLUCION SALINA 0.9% SLN INY BO X 100 MLBIN     1
RC0001044236218H202100015132527200015132527203/12/20210821    31901452237421964250000E1AB0200000199290000000000000                                                            SOLUCION SALINA 0.9% SLN INY BO X 100 MLBIN     1
RC0001048092074H202100015132527200015132527203/12/20210821    31901452237421964250000E1AB0200000199290000000000000                                                            SOLUCION SALINA 0.9% SLN INY BO X 100 MLBIN     1
RC0001044436459H202100015132527200015132527203/12/20210821    31901452237421964250000E1AB0200000199290000000000000                                                            SOLUCION SALINA 0.9% SLN INY BO X 100 MLBIN     1
RC0001048091952H202100015132527200015132527203/12/20210821    31901452237421964250000E1AB0200000199290000000000000                                                            SOLUCION SALINA 0.9% SLN INY BO X 100 MLBIN     1
RC0001194984572H202100015132527200015132527203/12/20210821    3190145223742196425000011137100001419310000000000000                                                               TIRA GLUCOMETRIA FREESTYLE H OPTIUM .PZA     1
RC0001143474189H202100015132527200015132527203/12/20210821    3190145223742196425000011137100001419310000000000000                                                               TIRA GLUCOMETRIA FREESTYLE H OPTIUM .PZA     2
RC0001048091909H202100015132527200015132527203/12/20210821    3190145223742196425000011137100001419310000000000000                                                               TIRA GLUCOMETRIA FREESTYLE H OPTIUM .PZA     2
RC0001146846680H202100015132527200015132527203/12/20210821    3190145223742196425000011137100001419310000000000000                                                               TIRA GLUCOMETRIA FREESTYLE H OPTIUM .PZA     2
RC0001146546681H202100015132527200015132527203/12/20210821    3190145223742196425000011137100001419310000000000000                                                               TIRA GLUCOMETRIA FREESTYLE H OPTIUM .PZA     2
NV0000170258691H202100015132527200015132527203/12/20210821    3190145223742196425000011137100001419310000000000000                                                               TIRA GLUCOMETRIA FREESTYLE H OPTIUM .PZA     2
RC0001143474190H202100015132527200015132527203/12/20210821    3190145223742196425000011137100001419310000000000000                                                               TIRA GLUCOMETRIA FREESTYLE H OPTIUM .PZA     2
RC0001047065603H202100015132527200015132527203/12/20210821    3190145223742196425000011137100001419310000000000000                                                               TIRA GLUCOMETRIA FREESTYLE H OPTIUM .PZA     2
RC0001044236218H202100015132527200015132527203/12/20210821    3190145223742196425000011137100001419310000000000000                                                               TIRA GLUCOMETRIA FREESTYLE H OPTIUM .PZA     2
RC0001048092074H202100015132527200015132527203/12/20210821    3190145223742196425000011137100001419310000000000000                                                               TIRA GLUCOMETRIA FREESTYLE H OPTIUM .PZA     2
RC0001047065574H202100015132527200015132527203/12/20210821    3190145223742196425000011137100001419310000000000000                                                               TIRA GLUCOMETRIA FREESTYLE H OPTIUM .PZA     2
RC0001044436459H202100015132527200015132527203/12/20210821    3190145223742196425000011137100001419310000000000000                                                               TIRA GLUCOMETRIA FREESTYLE H OPTIUM .PZA     2
RC0001048091952H202100015132527200015132527203/12/20210821    3190145223742196425000011137100001419310000000000000                                                               TIRA GLUCOMETRIA FREESTYLE H OPTIUM .PZA     2
