RC0001048089001A202100000027832700000027832703/12/20211913    3190333624042196419000040511500000258400000000000000                                                               APOSITO BACTIGRAS REF 7456  5CM X 5CMSIN     1
RC0001048089001A202100000027832700000027832703/12/20211913    3190333624042196419000019429600000455480000000000000                                                                                      VENDA YESO 3*5BIN     3
RC0001048089001A202100000027832700000027832703/12/20211913    3190333624042196419000049419500001679890000000000000                                                                        VENDA ALGODON 3*5 NO ESTERILSOB     2
RC0001048089001A202100000027832700000027832703/12/20211913    3190333624042196419000024674000001138340000000000000   JERINGA 3PARTES C/A 10ML REF JEHL005 CAJ X 100 ALFASAFE  21GX1 PULG 1/2 PULG BN EXENTO-DC.417/202PZA     2
RC0001048089001A202100000027832700000027832703/12/20211913    3190333624042196419000031011300000762710000000000000                                                                            CANULA GUEDEL #2 (80 MM)SOB     1
RC0001048089001A202100000027832700000027832703/12/20211913    3190333624042196419000051515300000598140000000000000                                                                            MASCARILLA ANESTESIA # 3SIN     1
RC0001048089001A202100000027832700000027832703/12/20211913    3190333624042196419000011099300000777780000000000000                                                                     FILTRO BACTERIANO VIRICO ADULTOBOL     1
RC0001048089001A202100000027832700000027832703/12/20211913    31903336240421964190000N01B0200003888110000000000000                                           ROXICAINA SE 100MG/10ML(1%) SOL INY CAJ X 24AMPACK X 10MLAPC     1
RC0001048089001A202100000027832700000027832703/12/20211913    31903336240421964190000N01A0400003939010000000000000                                               MAYOPROFOL 200MG/20ML(1%) EMUL INY CAJ X 1VIAL X 20MLVAL     1
RC0001048089001A202100000027832700000027832703/12/20211913    31903336240421964190000N1AH0200003906560000000000000                                                                     FENTANIL Iny 0.05 mg/ml x 10 mlAMP     1
