CC0000022438763H202100015052798200015052798203/12/20211652    3190265323742196425000043879200001138180000000000000                                                                                   HOJA BISTURI # 11SOB     1
CC0000022438763H202100015052798200015052798203/12/20211652    3190265323742196425000043485100001618510000000000000                GUANTE QUIRURGICO DE LATEX REF 2D72N65X CAJ X 50 PROTEXIS  6.5 BN EXENTO-DC.417/2020SOB     5
CC0000008257979H202100015052798200015052798203/12/20211652    3190265323742196425000043485100001618510000000000000                GUANTE QUIRURGICO DE LATEX REF 2D72N65X CAJ X 50 PROTEXIS  6.5 BN EXENTO-DC.417/2020SOB     5
