CC0000029278345H202100000556539600000556539603/12/20212106     3300009237421964250000A2BC0900000200150000000000000                                                                               ORAZOLE Sln Iny 40 mgCIN     1
CC0000029278345H202100000556539600000556539603/12/20212107     3300009237421964250000A3AC0500001277750000000000000                                                                                 PLASIL GRAGEA 10 MGTAB     3
CC0000029278345H202100000556539600000556539603/12/20212311    31500391237421964250000E1AD0300000199490000000000000                                         LACTATO RINGER USP (HARTMANN)  SOL INY  BOL X 1000ML BAXTERBIN     1
CC0000029278345H202100000556539600000556539603/12/20211829    31903152237421964250000E1AD0300000199490000000000000                                         LACTATO RINGER USP (HARTMANN)  SOL INY  BOL X 1000ML BAXTERBIN     1
CC0000029278345H202100000556539600000556539603/12/20212106     3300009237421964250000J3CB1300000547730000000000000                                                                         CIPRO SLN INY 200 MG/100 MLFCO     2
CC0000029278345H202100000556539600000556539603/12/20212105     3300009237421964250000J3CB1300000547730000000000000                                                                         CIPRO SLN INY 200 MG/100 MLFCO     2
CC0000029278345H202100000556539600000556539603/12/20212106     3300009237421964250000N2AX0400001204140000000000000                                                                             TRAMAL Sln Iny 50 mg/mlAMP     2
CC0000029278345H202100000556539600000556539603/12/20212106     3300009237421964250000N2BB0500000217140000000000000                                                                          NOVALGINA Sln Iny 1 g/2 mlAMP     3
