CC0000022467890H202100000556501900000556501903/12/20211500    31900995237421964250000E1AB0300003888390000000000000                                                            SOLUCION SALINA 0.9% SLN INY BO X 500 MLBOL     1
CC0000022467890H202100000556501900000556501903/12/20210540    31500566237421964250000E1AB0500003888400000000000000                                                              SOLUCION SALINA 0.9% SLN INY X 1000 MLBOL     1
CC0000022467890H202100000556501900000556501903/12/20210945     3300004237421964250000N02B1100001464120000000000000                                           PARACETAMOL EP 1000MG/100ML(10MG/ML) SOL INY  CAJ X 10FCOVAL     1
CC0000022467890H202100000556501900000556501903/12/20210001     3300009237421964250000N02B1100001464120000000000000                                           PARACETAMOL EP 1000MG/100ML(10MG/ML) SOL INY  CAJ X 10FCOVAL     1
CC0000022467890H202100000556501900000556501903/12/20210945     3300004237421964250000R5CB0300003841380000000000000                                                                     FLUIMUCIL SLN INY 300 MG X 3 MLAMP     1
CC0000022467890H202100000556501900000556501903/12/20210945     3300004237421964250000V06D1400000968430000000000000                                                                              JEVITY iquido x 500 mlFCO     1
CC0000022467890H202100000556501900000556501903/12/20210001     3300009237421964250000V06D1400000968430000000000000                                                                              JEVITY iquido x 500 mlFCO     2
CC0000022467890H202100000556501900000556501903/12/20210001     3300009237421964250000A09A0500001221080000000000000                                                                            GLUTAPAK 10 Polvo x 15 gSOB     1
CC0000022467890H202100000556501900000556501903/12/20211217     3300004237421964250000N2AA0200000301600000000000000                                                                        HIDROMORFONA Sln Iny 2 mg/mlAMP     1
CC0000022467890H202100000556501900000556501903/12/20210945     3300004237421964250000B01AB300000513340000000000000                                                                        CLENOX SLN INY 20 MG/ 0.2 MLJRP     1
CC0000022467890H202100000556501900000556501903/12/20210945     3300004237421964250000J1KF0500001317760000000000000                                                                      MEROPENEM POLVO INY 500 MG /R/CAJ     1
CC0000022467890H202100000556501900000556501903/12/20210001     3300009237421964250000J1KF0500001317760000000000000                                                                      MEROPENEM POLVO INY 500 MG /R/CAJ     2
CC0000022467890H202100000556501900000556501903/12/20210945     3300004237421964250000A02BC700001684270000000000000                                                            OMEPRAZOL 40MG POLVO LIOFILIZADO AMPOLLAVAL     1
