RC0001043476962H202100015032645700015032645703/12/20211339    3190148523742196425000001956000001620610000000000000                                                                      CONECTOR MICRO CLAVE LAT-MC100SOB     1
RC0001043476962H202100015032645700015032645703/12/20211339    31901485237421964250000Q1AA7400003911720000000000000                                                            CATETER PERIFE INTROCAN # 24G 4251601-04SOB     2
RC0001043476962H202100015032645700015032645703/12/20211339    3190148523742196425000000602600001259280000000000000                                                             APOSITO TEGADERM IV PD 1610 5CM X 5.7CMSOB     1
CC0000008151415H202100015032645700015032645703/12/20211339    31901485237421964250000E1BA0700000198910000000000000                                                                   UROMATIC Sln IRRIGACION X 3000 MLBIN     4
