CC0001140828821H202100000556542500000556542503/12/20212154    31903028237421964250000A6AC0200001467010000000000000                                                             LACTULAX JARABE 66.7G/100ML SOX15ML /R/SOB     4
CC0001140828821H202100000556542500000556542503/12/20212154    31903028237421964250000A06AD100001193740000000000000                                                                      CONTUMAX 3350 SOBRE X 17 G /R/SOB     4
CC0001140828821H202100000556542500000556542503/12/20212154    31903028237421964250000A03AX200001391380000000000000                                                                              ALEVIAN CAP 100/300 MGCAP     3
CC0001140828821H202100000556542500000556542503/12/20212154    31903028237421964250000C3DA0100001278020000000000000                                                                                 ALDACTONE TAB 25 MGTAB     1
