RC0001240292997H202100015032645500015032645503/12/20211311    3190301623742196425000039174000001618500000000000000                                                                           TUBO ENDOTRAQUEAL S/B 4.5SOB     1
RC0001240292997H202100015032645500015032645503/12/20211311    3190301623742196425000039173900001619710000000000000                                                                           TUBO ENDOTRAQUEAL S/B 4.0SOB     1
RC0001240292997H202100015032645500015032645503/12/20211311    3190301623742196425000035356500003919000000000000000                                                                                        LLAVE 3 VIASSOB     3
RC0001240292997H202100015032645500015032645503/12/20211311    3190301623742196425000024674000001138340000000000000   JERINGA 3PARTES C/A 10ML REF JEHL005 CAJ X 100 ALFASAFE  21GX1 PULG 1/2 PULG BN EXENTO-DC.417/202PZA     4
RC0001240292997H202100015032645500015032645503/12/20211311    3190301623742196425000024673600000222980000000000000                                                                     JERINGA DESECHABLE 5 ml 27*11/2SIN     6
RC0001240292997H202100015032645500015032645503/12/20211311    3190301623742196425000011047900000223010000000000000                                                                            JERINGA X 1ML REF 302579SIN     6
RC0001240292997H202100015032645500015032645503/12/20211311    3190301623742196425000022425200000548240000000000000                       EXTENSION DE ANESTESIA REF 1139 SOB X 1 SHERLEG  ADULTO BN EXENTO-DC.417/2020SIN     4
RC0001240292997H202100015032645500015032645503/12/20211311    3190301623742196425000011081900000846040000000000000                                                            EQUIPO BOMBA INFUSION STANDARD 8700087SPBOL     2
RC0001240292997H202100015032645500015032645503/12/20211311    31903016237421964250000V4AF1000003850710000000000000                                                                    OMNIPAQUE Sln Iny 300 mg x 50 mlFCO     2
RC0001240292997H202100015032645500015032645503/12/20211311    31903016237421964250000E1AB0700003888350000000000000                                                            SOLUCION SALINA 0.9% SLN INY BO X 250 MLBOL     1
RC0001240292997H202100015032645500015032645503/12/20211311    31903016237421964250000E1AB0200000199290000000000000                                                            SOLUCION SALINA 0.9% SLN INY BO X 100 MLBIN     2
