CC0000016200301H202100000556519500000556519503/12/20210912     3300010237421964250000A02B0500001335110000000000000                                                                                LOSEC MUPS Tab 20 mgTAB     1
CC0000016200301H202100000556519500000556519503/12/20210911     3300010237421964250000B1AB0200003939510000000000000                 ENOXAPARINA SODICA 40MG/0.4ML(100MG/ML) SOL INY INST CAJ X 2JERPREL X 0.4ML TECHDOWJRP     1
CC0000016200301H202100000556519500000556519503/12/20210912     3300010237421964250000V7AA5200000215370000000000000                                                                          EPOYET SLN INY 2000 UI /R/VAL     1
CC0000016200301H202100000556519500000556519503/12/20210911     3300010237421964250000B3BB0100001351190000000000000                                                                               ACIDO FOLICO Tab 1 mgTAB     1
CC0000016200301H202100000556519500000556519503/12/20210911     3300010237421964250000C07A0500001278660000000000000                                                                                NEBILET TAB 5 MG /R/TAB     1
CC0000016200301H202100000556519500000556519503/12/20210911     3300010237421964250000C09CA500001335670000000000000                                                                            OLMESARTAN 20 MG TABLETATAB     2
CC0000016200301H202100000556519500000556519503/12/20210911     3300010237421964250000C10AA400001301110000000000000                                                                                   LIPITOR TAB 40 MGTAB     1
CC0000016200301H202100000556519500000556519503/12/20210912     3300010237421964250000J01A0200000833400000000000000                                                            TYGACIL 50MG POLV INY INST CAJA X 10VIALVAL     2
CC0000016200301H202100000556519500000556519503/12/20211620     3300003237421964250000N3AG0300001314710000000000000                                                                              VALCOTE TAB 250 MG /R/TAB     1
CC0000016200301H202100000556519500000556519503/12/20210911     3300010237421964250000N3AG0300001314710000000000000                                                                              VALCOTE TAB 250 MG /R/TAB     2
CC0000016200301H202100000556519500000556519503/12/20210911     3300010237421964250000A11A2600000303300000000000000                                                                 GLUCERNA LIQUIDO 1.0 KCAL X 1500 MLFCO     1
