CC0000084006612U202100050131900200050131900203/12/20211152    3190135523942196432000024674000001138340000000000000   JERINGA 3PARTES C/A 10ML REF JEHL005 CAJ X 100 ALFASAFE  21GX1 PULG 1/2 PULG BN EXENTO-DC.417/202PZA     1
CC0000084006612U202100050131900200050131900203/12/20211152    3190135523942196432000011082700001620070000000000000                                                               EQUIPO SET PRIMARIO C/CLAVE REF 14001BOL     1
CC0000084006612U202100050131900200050131900203/12/20211152    31901355239421964320000Q1AA7100000610620000000000000                                                            CATETER PERIFE INTROCAN # 18G 4251687-04SIN     1
CC0000084006612U202100050131900200050131900203/12/20211152    3190135523942196432000030936900001431840000000000000                                                                                              BURETABOL     1
