CC0000003724288H202100015052799100015052799103/12/20212229    3150014823742196425000031188000000236790000000000000                                                                                     CISTOFLO ADULTOSIN     1
CC0000032883942H202100015052799100015052799103/12/20212229    31500148237421964250000E1AD0300000199490000000000000                                         LACTATO RINGER USP (HARTMANN)  SOL INY  BOL X 1000ML BAXTERBIN     2
TI0001139431457H202100015052799100015052799103/12/20212229    31500148237421964250000E1AD0300000199490000000000000                                         LACTATO RINGER USP (HARTMANN)  SOL INY  BOL X 1000ML BAXTERBIN     2
TI0001139427796H202100015052799100015052799103/12/20212229    31500148237421964250000E1AD0300000199490000000000000                                         LACTATO RINGER USP (HARTMANN)  SOL INY  BOL X 1000ML BAXTERBIN     2
CC0000003724288H202100015052799100015052799103/12/20212229    31500148237421964250000E1AD0200003888320000000000000                                                                              HARTMAN SLN INY 500 MLBOL     1
CC0000032883942H202100015052799100015052799103/12/20212229    31500148237421964250000E1AB0300003888390000000000000                                                            SOLUCION SALINA 0.9% SLN INY BO X 500 MLBOL     1
CC0000032625315H202100015052799100015052799103/12/20212229    31500148237421964250000E1AB0300003888390000000000000                                                            SOLUCION SALINA 0.9% SLN INY BO X 500 MLBOL     1
