CC0001140835577A202100000027824800000027824803/12/20211621    3190333624042196419000000901700000602680000000000000                                                                     MASCARA LARINGEA REUSABLE No. 3BIN     1
CC0001140835577A202100000027824800000027824803/12/20211621    31903336240421964190000N1AX0100003889000000000000000                                                                       KETAMINA Iny 50 mg/ml x 10 mlVAL     1
CC0001140835577A202100000027824800000027824803/12/20211621    31903336240421964190000A3BB0300000512950000000000000                                                             BUSCAPINA COMP Sln Iny 20 mg+2.5 g/5 mlAMP     1
CC0001140835577A202100000027824800000027824803/12/20211621    3190333624042196419000049419600001679900000000000000                                                                        VENDA ALGODON 4*5 NO ESTERILSOB     1
CC0001140835577A202100000027824800000027824803/12/20211621    3190333624042196419000049428400000738560000000000000                                                                       VENDA ELASTICA 5*5 NO ESTERILSOB     1
CC0001140835577A202100000027824800000027824803/12/20211621    3190333624042196419000018630000000358130000000000000                                                                   DURAPREP Sln YODO APLICADOR 26 MLFCO     1
CC0001140835577A202100000027824800000027824803/12/20211621    3190333624042196419000049428300000860750000000000000                                                                       VENDA ELASTICA 4*5 NO ESTERILBOL     1
CC0001140835577A202100000027824800000027824803/12/20211621    3190333624042196419000040511500000258400000000000000                                                               APOSITO BACTIGRAS REF 7456  5CM X 5CMSIN     1
CC0001140835577A202100000027824800000027824803/12/20211621    3190333624042196419000017566200001585160000000000000                                                                  PROLENE 4-0 AZ 45 PS2 PRIME P8682TSOB     1
CC0001140835577A202100000027824800000027824803/12/20211621    3190333624042196419000043879100001138200000000000000                                                                  HOJA BISTURI # 15 CSSB 15 01002003SOB     1
CC0001140835577A202100000027824800000027824803/12/20211621    3190333624042196419000022425200000548240000000000000                       EXTENSION DE ANESTESIA REF 1139 SOB X 1 SHERLEG  ADULTO BN EXENTO-DC.417/2020SIN     1
CC0001140835577A202100000027824800000027824803/12/20211621    3190333624042196419000035356500003919000000000000000                                                                                        LLAVE 3 VIASSOB     2
CC0001140835577A202100000027824800000027824803/12/20211621    31903336240421964190000Q1AA7100000610620000000000000                                                            CATETER PERIFE INTROCAN # 18G 4251687-04SIN     1
CC0001140835577A202100000027824800000027824803/12/20211621    3190333624042196419000022426800001140510000000000000                                                                    EQUIPO MACROGOTEO BAXTER MRC0001SOB     1
CC0001140835577A202100000027824800000027824803/12/20211621    3190333624042196419000016830000000970620000000000000                                                             SIST FIJACION CAT PERIFERICO 6.5X7 1683SOB     1
CC0001140835577A202100000027824800000027824803/12/20211621    31903336240421964190000J01DA300001239950000000000000                                                            CEFAZOLINA SODICA POLVO LIOF SLN INY 1 GVAL     2
CC0001140835577A202100000027824800000027824803/12/20211621    3190333624042196419000011082700001620070000000000000                                                               EQUIPO SET PRIMARIO C/CLAVE REF 14001BOL     1
CC0001140835577A202100000027824800000027824803/12/20211621    3190333624042196419000053074400000607910000000000000                                                               GASA ESTERIL 10*10 SOBRE X 3 UNIDADESSOB     3
CC0001140835577A202100000027824800000027824803/12/20211621    3190333624042196419000011085200001585390000000000000                                                                       GUANTE QUIRURGICO TALLA 7 1/2SOB     2
CC0001140835577A202100000027824800000027824803/12/20211621    3190333624042196419000043485100001618510000000000000                GUANTE QUIRURGICO DE LATEX REF 2D72N65X CAJ X 50 PROTEXIS  6.5 BN EXENTO-DC.417/2020SOB     2
CC0001140835577A202100000027824800000027824803/12/20211621    3190333624042196419000051515400000598150000000000000                                                                            MASCARILLA ANESTESIA # 4SIN     1
CC0001140835577A202100000027824800000027824803/12/20211621    3190333624042196419000011099300000777780000000000000                                                                     FILTRO BACTERIANO VIRICO ADULTOBOL     1
CC0001140835577A202100000027824800000027824803/12/20211621    3190333624042196419000020058100001101630000000000000                                                                     AGUJA HIPODERMICA DESECH 23 X 1SOB     1
CC0001140835577A202100000027824800000027824803/12/20211621    3190333624042196419000024673600000222980000000000000                                                                     JERINGA DESECHABLE 5 ml 27*11/2SIN     2
CC0001140835577A202100000027824800000027824803/12/20211621    3190333624042196419000024674000001138340000000000000   JERINGA 3PARTES C/A 10ML REF JEHL005 CAJ X 100 ALFASAFE  21GX1 PULG 1/2 PULG BN EXENTO-DC.417/202PZA     5
CC0001140835577A202100000027824800000027824803/12/20211621    31903336240421964190000E1AD0200003888320000000000000                                                                              HARTMAN SLN INY 500 MLBOL     2
CC0001140835577A202100000027824800000027824803/12/20211621    31903336240421964190000E1AB0300003888390000000000000                                                            SOLUCION SALINA 0.9% SLN INY BO X 500 MLBOL     2
CC0001140835577A202100000027824800000027824803/12/20211621    31903336240421964190000E1AB0700003888350000000000000                                                            SOLUCION SALINA 0.9% SLN INY BO X 250 MLBOL     2
CC0001140835577A202100000027824800000027824803/12/20211621    31903336240421964190000E1AB0200000199290000000000000                                                            SOLUCION SALINA 0.9% SLN INY BO X 100 MLBIN     1
CC0001140835577A202100000027824800000027824803/12/20211621    31903336240421964190000N02B1100001464120000000000000                                           PARACETAMOL EP 1000MG/100ML(10MG/ML) SOL INY  CAJ X 10FCOVAL     1
CC0001140835577A202100000027824800000027824803/12/20211621    31903336240421964190000A2BC0900000200150000000000000                                                                               ORAZOLE Sln Iny 40 mgCIN     1
CC0001140835577A202100000027824800000027824803/12/20211621    31903336240421964190000M1AX0200001569410000000000000                                                                         KETRON SLN INY 30 MG / 2 MLAMP     1
CC0001140835577A202100000027824800000027824803/12/20211621    31903336240421964190000N01A0400003939010000000000000                                               MAYOPROFOL 200MG/20ML(1%) EMUL INY CAJ X 1VIAL X 20MLVAL     1
CC0001140835577A202100000027824800000027824803/12/20211621    31903336240421964190000A4AD0200000202990000000000000                                                                     PLITICAN HCL Sln Iny 50 mg/2 mlAMP     1
CC0001140835577A202100000027824800000027824803/12/20211621    31903336240421964190000N1BA2400001687720000000000000                                                    LIDOCAINA 2% SOL INY  CAJ X 50AMP X 10ML CORPAULAMP     1
CC0001140835577A202100000027824800000027824803/12/20211621    31903336240421964190000N01B0600003888900000000000000                                                    BUPINEST 75MG/10ML(0.75%) SOL INY CAJ X 24AMPACKAPC     1
CC0001140835577A202100000027824800000027824803/12/20211621    31903336240421964190000N2AA0700001587170000000000000                                                                                 ULTIVA Sln Iny 2 mgVAL     1
