RC0001046731936H202100000556536300000556536303/12/20211622     3300003237421964250000A2BC0900000200150000000000000                                                                               ORAZOLE Sln Iny 40 mgCIN     1
RC0001046731936H202100000556536300000556536303/12/20211622     3300003237421964250000A07F0200001075520000000000000                                                                    EPTAVIS GRANULOS SOBRE X 1 G /R/SOB     3
RC0001046731936H202100000556536300000556536303/12/20211622     3300003237421964250000A12C0100001344770000000000000                                                            FORTZINK SLN ORA 20 MG/5 ML x 120 ML /R/FCO     1
RC0001046731936H202100000556536300000556536303/12/20212318    31903259237421964250000E1AD0300000199490000000000000                                         LACTATO RINGER USP (HARTMANN)  SOL INY  BOL X 1000ML BAXTERBIN     1
RC0001046731936H202100000556536300000556536303/12/20211640    31500347237421964250000E1AD0300000199490000000000000                                         LACTATO RINGER USP (HARTMANN)  SOL INY  BOL X 1000ML BAXTERBIN     1
RC0001046731936H202100000556536300000556536303/12/20211842     3300003237421964250000A07C0500001628790000000000000                                                                          PEDIALYTE 45 C/ZINC 500 mlFCO     1
RC0001046731936H202100000556536300000556536303/12/20211840     3300003237421964250000A07C0500001628790000000000000                                                                          PEDIALYTE 45 C/ZINC 500 mlFCO     1
