RC0001084457432H202100000556513600000556513603/12/20212252    31500363237421964250000E1AC0100000199400000000000000                                                                          SUERO MIXTO Sln Iny 500 mlBIN     1
RC0001084457432H202100000556513600000556513603/12/20211557    31900997237421964250000E1AC0100000199400000000000000                                                                          SUERO MIXTO Sln Iny 500 mlBIN     1
RC0001084457432H202100000556513600000556513603/12/20210651    31500519237421964250000E1AC0100000199400000000000000                                                                          SUERO MIXTO Sln Iny 500 mlBIN     1
RC0001084457432H202100000556513600000556513603/12/20211859     3300003237421964250000J01CR200000947130000000000000                                                              AMPICILINA /SULBACTAN POLVO LIOF 1.5 GAMP     1
RC0001084457432H202100000556513600000556513603/12/20210843     3300004237421964250000N2BB0100001672010000000000000                                  DIPIRONA 1GR/2ML(0.5GR/ML) SOL INY INST CAJ X 100AMP X 2ML VITALISAMP     2
RC0001084457432H202100000556513600000556513603/12/20210843     3300004237421964250000A02BC700001684270000000000000                                                            OMEPRAZOL 40MG POLVO LIOFILIZADO AMPOLLAVAL     1
RC0001084457432H202100000556513600000556513603/12/20211510    31903301237421964250000V07A1300000502600000000000000                                                                                AGUA ESTERIL x 10 mlAMP     4
