RC0001034521434H202100015032645100015032645103/12/20210845    3150047823742196425000024673000001411210000000000000                                                                  JERINGA DESECHABLE 3 ML 21 X 1 1/2SOB     5
RC0001034521434H202100015032645100015032645103/12/20210845    3150047823742196425000043485100001618510000000000000                GUANTE QUIRURGICO DE LATEX REF 2D72N65X CAJ X 50 PROTEXIS  6.5 BN EXENTO-DC.417/2020SOB     3
RC0001034521434H202100015032645100015032645103/12/20210845    3150047823742196425000011085100001082120000000000000                                                                           GUANTE QUIRURGICO TALLA 7SOB     1
CC0000064541334H202100015032645100015032645103/12/20210845    31500478237421964250000Q1AA3300001585140000000000000                                                                         APOSITO TEGADERM 10*12 1626SOB     1
