CC0000002930060H202100000556509800000556509803/12/20210427    31900931237421964250000A2BC0900000200150000000000000                                                                               ORAZOLE Sln Iny 40 mgCIN     1
CC0000002930060H202100000556509800000556509803/12/20210427    31900931237421964250000N02B1100001464120000000000000                                           PARACETAMOL EP 1000MG/100ML(10MG/ML) SOL INY  CAJ X 10FCOVAL     1
CC0000002930060H202100000556509800000556509803/12/20210427    31900931237421964250000N05A0500001336370000000000000                                                                              SEROQUEL TAB 25 MG /R/TAB     1
CC0000002930060H202100000556509800000556509803/12/20210427    31900931237421964250000V6DB5200000303900000000000000                                                                    PULMOCARE Liquido Tarro x 237 mlLAT     4
