RC0001194977039A202100000027831900000027831904/12/20210924    31903336240421964190000N1BA2400001687720000000000000                                                    LIDOCAINA 2% SOL INY  CAJ X 50AMP X 10ML CORPAULAMP     1
RC0001194977039A202100000027831900000027831904/12/20210924    3190333624042196419000000101000001101640000000000000                                                                  AGUJA DESECHABLE  23G X 1 1/2 PULGSOB     1
RC0001194977039A202100000027831900000027831904/12/20210924    31903336240421964190000M03AB100001371510000000000000                                                            ADECUAC SUCCINILCOLINA  100mg/mL SOL INYVAL     1
RC0001194977039A202100000027831900000027831904/12/20210924    3190333624042196419000000901500001004690000000000000                                                                            MASCARA LARINGEA  No 2.0BOL     1
RC0001194977039A202100000027831900000027831904/12/20210924    3190333624042196419000045138000001413890000000000000                                                                       LAPIZ ELECTROBISTURI  SOB X 1SOB     1
RC0001194977039A202100000027831900000027831904/12/20210924    3190333624042196419000019488700000753270000000000000                                                                              VICRYL 3-0 SH1 VCP311HSOB     1
RC0001194977039A202100000027831900000027831904/12/20210924    3190333624042196419000015994600000632480000000000000                                                                          MONOCRYL 4-0 PS-2 45 Y496GSIN     1
RC0001194977039A202100000027831900000027831904/12/20210924    3190333624042196419000043879100001138200000000000000                                                                  HOJA BISTURI # 15 CSSB 15 01002003SOB     1
RC0001194977039A202100000027831900000027831904/12/20210924    3190333624042196419000022425200000548240000000000000                       EXTENSION DE ANESTESIA REF 1139 SOB X 1 SHERLEG  ADULTO BN EXENTO-DC.417/2020SIN     1
RC0001194977039A202100000027831900000027831904/12/20210924    3190333624042196419000022425100001392880000000000000             EQUIPO MICROGOTEO SIN AGUJA REF 201000 PAQ X 100 SOB GOTHAPLAST   BN EXENTO-DC.417/2020BOL     1
RC0001194977039A202100000027831900000027831904/12/20210924    3190333624042196419000020750800000295830000000000000                                                                       PLACA RETORNO PEDIAT E7510-25SIN     1
RC0001194977039A202100000027831900000027831904/12/20210924    3190333624042196419000053074400000607910000000000000                                                               GASA ESTERIL 10*10 SOBRE X 3 UNIDADESSOB     3
RC0001194977039A202100000027831900000027831904/12/20210924    3190333624042196419000011085200001585390000000000000                                                                       GUANTE QUIRURGICO TALLA 7 1/2SOB     1
RC0001194977039A202100000027831900000027831904/12/20210924    3190333624042196419000011085100001082120000000000000                                                                           GUANTE QUIRURGICO TALLA 7SOB     2
RC0001194977039A202100000027831900000027831904/12/20210924    3190333624042196419000043485100001618510000000000000                GUANTE QUIRURGICO DE LATEX REF 2D72N65X CAJ X 50 PROTEXIS  6.5 BN EXENTO-DC.417/2020SOB     2
RC0001194977039A202100000027831900000027831904/12/20210924    3190333624042196419000011082700001620070000000000000                                                               EQUIPO SET PRIMARIO C/CLAVE REF 14001BOL     1
RC0001194977039A202100000027831900000027831904/12/20210924    3190333624042196419000051515300000598140000000000000                                                                            MASCARILLA ANESTESIA # 3SIN     1
RC0001194977039A202100000027831900000027831904/12/20210924    31903336240421964190000Q1A11800000258040000000000000                                                                         CANULA OXIGENO NASAL PEDIATSIN     1
RC0001194977039A202100000027831900000027831904/12/20210924    3190333624042196419000024673600000222980000000000000                                                                     JERINGA DESECHABLE 5 ml 27*11/2SIN     1
RC0001194977039A202100000027831900000027831904/12/20210924    3190333624042196419000024674000001138340000000000000   JERINGA 3PARTES C/A 10ML REF JEHL005 CAJ X 100 ALFASAFE  21GX1 PULG 1/2 PULG BN EXENTO-DC.417/202PZA     3
RC0001194977039A202100000027831900000027831904/12/20210924    31903336240421964190000E1AB0700003888350000000000000                                                            SOLUCION SALINA 0.9% SLN INY BO X 250 MLBOL     2
RC0001194977039A202100000027831900000027831904/12/20210924    31903336240421964190000N01B1600003888910000000000000                                             BUPIROP SE S/P 50MG/10ML(5MG/ML) SOL INY CAJ X 24AMPACKAPC     1
RC0001194977039A202100000027831900000027831904/12/20210924    31903336240421964190000N2BB0100001672010000000000000                                  DIPIRONA 1GR/2ML(0.5GR/ML) SOL INY INST CAJ X 100AMP X 2ML VITALISAMP     1
RC0001194977039A202100000027831900000027831904/12/20210924    31903336240421964190000H02A0100001664960000000000000                                                                        DEXAMETASONA SLN INY 4 MG/MLAMP     1
RC0001194977039A202100000027831900000027831904/12/20210924    31903336240421964190000A3BA0100001109400000000000000                                                                          ATROPINA SLN INY 1 MG / MLAMP     1
