CC0000080424776H202100015012624300015012624304/12/20212022    3190294923742196425000011085100001082120000000000000                                                                           GUANTE QUIRURGICO TALLA 7SOB     1
CC0000080424776H202100015012624300015012624304/12/20212022    3190294923742196425000013077800000471960000000000000                                                             GASA NO TEJIDA EST 7.5 X 7.5 SOB X 3 UNSOB    10
CC0000080424776H202100015012624300015012624304/12/20212022    3190294923742196425000042753000003929870000000000000                    GASA ADHESIVA STRETCH REF 02036-00 ROL X 10MT FIXOMULL 5CM BN EXENTO-DC.417/2020CMT    40
CC0000080424776H202100015012624300015012624304/12/20212022    31902949237421964250000E1AB0200000199290000000000000                                                            SOLUCION SALINA 0.9% SLN INY BO X 100 MLBIN     1
