CC0001143114184H202100015012624000015012624004/12/20211046    31500347237421964250000V07A1300000502600000000000000                                                                                AGUA ESTERIL x 10 mlAMP     4
CC0001143114184H202100015012624000015012624004/12/20211046    3150034723742196425000024674000001138340000000000000   JERINGA 3PARTES C/A 10ML REF JEHL005 CAJ X 100 ALFASAFE  21GX1 PULG 1/2 PULG BN EXENTO-DC.417/202PZA     4
CC0001143114184H202100015012624000015012624004/12/20211046    3150034723742196425000022426800001140510000000000000                                                                    EQUIPO MACROGOTEO BAXTER MRC0001SOB     1
CC0001143114184H202100015012624000015012624004/12/20211046    3150034723742196425000030936900001431840000000000000                                                                                              BURETABOL     1
CC0001143114184H202100015012624000015012624004/12/20211046    31500347237421964250000E1AB0300003888390000000000000                                                            SOLUCION SALINA 0.9% SLN INY BO X 500 MLBOL     2
