CC0001005336912U202100050131910400050131910404/12/20210509    3190317523942196432000038568600000256960000000000000                                                                                   SONDA NELATON #14SIN     1
CC0001005336912U202100050131910400050131910404/12/20210509    3190317523942196432000043485100001618510000000000000                GUANTE QUIRURGICO DE LATEX REF 2D72N65X CAJ X 50 PROTEXIS  6.5 BN EXENTO-DC.417/2020SOB     2
CC0001005336912U202100050131910400050131910404/12/20210509    3190317523942196432000013077800000471960000000000000                                                             GASA NO TEJIDA EST 7.5 X 7.5 SOB X 3 UNSOB     3
CC0001005336912U202100050131910400050131910404/12/20210509    31903175239421964320000E1AB0200000199290000000000000                                                            SOLUCION SALINA 0.9% SLN INY BO X 100 MLBIN     1
