CC0000080424776H202100015012624900015012624904/12/20212158    3190321923742196425000001956000001620610000000000000                                                                      CONECTOR MICRO CLAVE LAT-MC100SOB     1
CC0000080424776H202100015012624900015012624904/12/20212158    31903219237421964250000Q1AA7300000610640000000000000                                                            CATETER PERIFE INTROCAN # 22G 4251628-04SIN     1
CC0000080424776H202100015012624900015012624904/12/20212158    3190321923742196425000016830000000970620000000000000                                                             SIST FIJACION CAT PERIFERICO 6.5X7 1683SOB     1
