RC0001044671776H202100015122546200015122546204/12/20211357    31903157237421964250000Q1AA1000000256790000000000000                                                                         SONDA ASPIRACION CONTROL #8SIN    10
RC0001046723141H202100015122546200015122546204/12/20211357    3190315723742196425000038576500000256730000000000000                                                                        SONDA ASPIRACION CONTROL #10SIN    10
RC0001240292997H202100015122546200015122546204/12/20211357    3190315723742196425000035801900001101780000000000000                                                                    NEBULIZADOR C/MASCARA PEDIATRICOSOB     1
TI0001139434005H202100015122546200015122546204/12/20211357    3190315723742196425000043995200000229010000000000000                                                               HUMIDIFICADOR PARA OXIGENO REF. H001BBOL     1
TI0001103512693H202100015122546200015122546204/12/20211357    3190315723742196425000043995200000229010000000000000                                                               HUMIDIFICADOR PARA OXIGENO REF. H001BBOL     1
TI0001047050967H202100015122546200015122546204/12/20211357    3190315723742196425000043995200000229010000000000000                                                               HUMIDIFICADOR PARA OXIGENO REF. H001BBOL     1
RC0001240292997H202100015122546200015122546204/12/20211357    3190315723742196425000043995200000229010000000000000                                                               HUMIDIFICADOR PARA OXIGENO REF. H001BBOL     1
RC0001044671776H202100015122546200015122546204/12/20211357    3190315723742196425000043995200000229010000000000000                                                               HUMIDIFICADOR PARA OXIGENO REF. H001BBOL     1
RC0001046723141H202100015122546200015122546204/12/20211357    3190315723742196425000043995200000229010000000000000                                                               HUMIDIFICADOR PARA OXIGENO REF. H001BBOL     1
RC0001240292997H202100015122546200015122546204/12/20211357    3190315723742196425000063153700001294640000000000000                                                            CIRCUITO TERAPIA ALTO FLUJO PEDIAT RT330PZA     1
RC0001240292997H202100015122546200015122546204/12/20211357    3190315723742196425000001200900001294660000000000000                                                                CANULA NASAL PED REF OPT318 OPTIFLOWPZA     1
TI0001139434005H202100015122546200015122546204/12/20211357    31903157237421964250000Q1A11800000258040000000000000                                                                         CANULA OXIGENO NASAL PEDIATSIN     1
TI0001047050967H202100015122546200015122546204/12/20211357    31903157237421964250000Q1A11800000258040000000000000                                                                         CANULA OXIGENO NASAL PEDIATSIN     1
RC0001240292997H202100015122546200015122546204/12/20211357    31903157237421964250000Q1A11800000258040000000000000                                                                         CANULA OXIGENO NASAL PEDIATSIN     1
RC0001063188076H202100015122546200015122546204/12/20211357    31903157237421964250000Q1A11800000258040000000000000                                                                         CANULA OXIGENO NASAL PEDIATSIN     1
TI0001103512693H202100015122546200015122546204/12/20211357    3190315723742196425000038568100000258050000000000000                                                                         CANULA OXIGENO NASAL ADULTOSIN     1
RC0001046723141H202100015122546200015122546204/12/20211357    3190315723742196425000038568100000258050000000000000                                                                         CANULA OXIGENO NASAL ADULTOSIN     1
TI0001063956066H202100015122546200015122546204/12/20211357    3190315723742196425000038568100000258050000000000000                                                                         CANULA OXIGENO NASAL ADULTOSIN     1
RC0001044671776H202100015122546200015122546204/12/20211357    3190315723742196425000020816000001096410000000000000                                                                          LINER PARED DELGADA 1500CCBOL     1
RC0001046723141H202100015122546200015122546204/12/20211357    3190315723742196425000020816000001096410000000000000                                                                          LINER PARED DELGADA 1500CCBOL     1
RC0001240292997H202100015122546200015122546204/12/20211357    31903157237421964250000E1BA0100000198890000000000000                                                                   AGUA ESTERIL USP SLN INY X 500 MLBIN     1
