CC0000064541334H202100015032647200015032647204/12/20211502    31902409237421964250000E1AD0300000199490000000000000                                         LACTATO RINGER USP (HARTMANN)  SOL INY  BOL X 1000ML BAXTERBIN     1
RC0001034521434H202100015032647200015032647204/12/20211502    31902409237421964250000E1AD0200003888320000000000000                                                                              HARTMAN SLN INY 500 MLBOL     1
RC0001043476962H202100015032647200015032647204/12/20211502    31902409237421964250000E1AD0200003888320000000000000                                                                              HARTMAN SLN INY 500 MLBOL     1
CC0000000800641H202100015032647200015032647204/12/20211502    31902409237421964250000E1AD0200003888320000000000000                                                                              HARTMAN SLN INY 500 MLBOL     1
