CC0000022467890H202100015032647400015032647404/12/20211600    3190315323742196425000024675000001585130000000000000                                                                    JERINGA DESECHABLE 50 ml S/AGUJASOB     6
CC0000064541334H202100015032647400015032647404/12/20211600    3190315323742196425000024675000001585130000000000000                                                                    JERINGA DESECHABLE 50 ml S/AGUJASOB     6
CC0000022467890H202100015032647400015032647404/12/20211600    3190315323742196425000024674500000322810000000000000                                                                   JERINGA DESECHABLE 20 ml 21*1 1/2SIN     6
CC0000064541334H202100015032647400015032647404/12/20211600    3190315323742196425000024674500000322810000000000000                                                                   JERINGA DESECHABLE 20 ml 21*1 1/2SIN     6
CC0000022467890H202100015032647400015032647404/12/20211600    3190315323742196425000024674000001138340000000000000   JERINGA 3PARTES C/A 10ML REF JEHL005 CAJ X 100 ALFASAFE  21GX1 PULG 1/2 PULG BN EXENTO-DC.417/202PZA     6
CC0000064541334H202100015032647400015032647404/12/20211600    3190315323742196425000024674000001138340000000000000   JERINGA 3PARTES C/A 10ML REF JEHL005 CAJ X 100 ALFASAFE  21GX1 PULG 1/2 PULG BN EXENTO-DC.417/202PZA     6
CC0000022467890H202100015032647400015032647404/12/20211600    3190315323742196425000011085400001083360000000000000                                                                       GUANTE QUIRURGICO TALLA 8 1/2SOB     4
CC0000064541334H202100015032647400015032647404/12/20211600    3190315323742196425000011085400001083360000000000000                                                                       GUANTE QUIRURGICO TALLA 8 1/2SOB     4
CC0000022467890H202100015032647400015032647404/12/20211600    3190315323742196425000013077800000471960000000000000                                                             GASA NO TEJIDA EST 7.5 X 7.5 SOB X 3 UNSOB     8
CC0000064541334H202100015032647400015032647404/12/20211600    3190315323742196425000013077800000471960000000000000                                                             GASA NO TEJIDA EST 7.5 X 7.5 SOB X 3 UNSOB     8
CC0000022467890H202100015032647400015032647404/12/20211600    3190315323742196425000011082900001233450000000000000                                                               EQUIPO LC 5000 PRIMARIO FOTOPRO 0L218SOB     2
CC0000064541334H202100015032647400015032647404/12/20211600    3190315323742196425000011082900001233450000000000000                                                               EQUIPO LC 5000 PRIMARIO FOTOPRO 0L218SOB     2
CC0000022467890H202100015032647400015032647404/12/20211600    3190315323742196425000030936900001431840000000000000                                                                                              BURETABOL     4
CC0000064541334H202100015032647400015032647404/12/20211600    3190315323742196425000030936900001431840000000000000                                                                                              BURETABOL     4
CC0000022467890H202100015032647400015032647404/12/20211600    3190315323742196425000020009800000546950000000000000                                                                        BOLSA EVA PINNACLE X 2000 MLBOL     2
CC0000064541334H202100015032647400015032647404/12/20211600    3190315323742196425000020009800000546950000000000000                                                                        BOLSA EVA PINNACLE X 2000 MLBOL     2
CC0000022467890H202100015032647400015032647404/12/20211600    3190315323742196425000000100600000223090000000000000                                                                      AGUJA DESECHABLE 18G X 1 1/2 PSIN     8
CC0000064541334H202100015032647400015032647404/12/20211600    3190315323742196425000000100600000223090000000000000                                                                      AGUJA DESECHABLE 18G X 1 1/2 PSIN     8
