CC0000008729778U202100050131912800050131912804/12/20211147    3190016523942196432000035802000001014670000000000000                                                                        NEBULIZADOR C/MASCARA ADULTOBOL     1
CC0000008729778U202100050131912800050131912804/12/20211147    3190016523942196432000024674000001138340000000000000   JERINGA 3PARTES C/A 10ML REF JEHL005 CAJ X 100 ALFASAFE  21GX1 PULG 1/2 PULG BN EXENTO-DC.417/202PZA     1
CC0000008729778U202100050131912800050131912804/12/20211147    31900165239421964320000E1AB0200000199290000000000000                                                            SOLUCION SALINA 0.9% SLN INY BO X 100 MLBIN     1
