CC0000079767241A202100000027832400000027832404/12/20211149    3190333624042196419000042743200003929860000000000000                   GASA ADHESIVA STRETCH REF 02038-00 ROL X 10MT FIXOMULL 15CM BN EXENTO-DC.417/2020CMT    30
CC0000079767241A202100000027832400000027832404/12/20211149    31903336240421964190000N07X0300003913670000000000000                                    DEXMEDETOMIDINA 400MCG/100ML(4MCG/ML) SOL INY BOL X 100ML BAXTERBOL     1
CC0000079767241A202100000027832400000027832404/12/20211149    3190333624042196419000000601100000221340000000000000                                                                          APOSITO DE CURACION GRANDEPAQ     1
CC0000079767241A202100000027832400000027832404/12/20211149    31903336240421964190000N01A0400003939010000000000000                                               MAYOPROFOL 200MG/20ML(1%) EMUL INY CAJ X 1VIAL X 20MLVAL     1
CC0000079767241A202100000027832400000027832404/12/20211149    3190333624042196419000018351100000232850000000000000                                                                                 SEDA 2-0 SC-26 185TSIN     1
CC0000079767241A202100000027832400000027832404/12/20211149    31903336240421964190000Q1A15500001690750000000000000                                                            AGUJA ESPINAL WHITACRE 27*3 1/2  4502027SOB     1
CC0000079767241A202100000027832400000027832404/12/20211149    3190333624042196419000045138000001413890000000000000                                                                       LAPIZ ELECTROBISTURI  SOB X 1SOB     1
CC0000079767241A202100000027832400000027832404/12/20211149    3190333624042196419000030161400001459220000000000000                                                                       MANGUERA SUCCION 6 MM*3.1 MTSSOB     1
CC0000079767241A202100000027832400000027832404/12/20211149    3190333624042196419000020042600000633850000000000000                                                                                       ASEPTOJERINGASIN     1
CC0000079767241A202100000027832400000027832404/12/20211149    3190333624042196419000019487500000602970000000000000                                                                           VICRYL 2-0 CT1 90 VCP345HSIN     1
CC0000079767241A202100000027832400000027832404/12/20211149    3190333624042196419000019487800001585180000000000000                                                                    VICRYL 1 PLUS 70 CM CT-1 VCP341HSOB     1
CC0000079767241A202100000027832400000027832404/12/20211149    3190333624042196419000012473200000232210000000000000                                                                 SUTURA ETHILON 3-0 SC-24 45CM  163TSIN     2
CC0000079767241A202100000027832400000027832404/12/20211149    3190333624042196419000012472400000232190000000000000                                                                 SUTURA ETHILON 2-0 SC-26 45CM  164TSIN     2
CC0000079767241A202100000027832400000027832404/12/20211149    3190333624042196419000043879400001138170000000000000                                                                  HOJA BISTURI # 10 CSSB 10 01002000SOB     1
CC0000079767241A202100000027832400000027832404/12/20211149    3190333624042196419000043879500001138210000000000000                                                                                    HOJA BISTURI #20SOB     1
CC0000079767241A202100000027832400000027832404/12/20211149    3190333624042196419000022425200000548240000000000000                       EXTENSION DE ANESTESIA REF 1139 SOB X 1 SHERLEG  ADULTO BN EXENTO-DC.417/2020SIN     1
CC0000079767241A202100000027832400000027832404/12/20211149    3190333624042196419000035356500003919000000000000000                                                                                        LLAVE 3 VIASSOB     2
CC0000079767241A202100000027832400000027832404/12/20211149    31903336240421964190000Q1AA7100000610620000000000000                                                            CATETER PERIFE INTROCAN # 18G 4251687-04SIN     1
CC0000079767241A202100000027832400000027832404/12/20211149    3190333624042196419000022426800001140510000000000000                                                                    EQUIPO MACROGOTEO BAXTER MRC0001SOB     1
CC0000079767241A202100000027832400000027832404/12/20211149    31903336240421964190000J01DA300001239950000000000000                                                            CEFAZOLINA SODICA POLVO LIOF SLN INY 1 GVAL     2
CC0000079767241A202100000027832400000027832404/12/20211149    3190333624042196419000020750600000296780000000000000                                                                PLACA ELECTRO RETORNO PACIENTE E7506SIN     1
CC0000079767241A202100000027832400000027832404/12/20211149    3190333624042196419000053074400000607910000000000000                                                               GASA ESTERIL 10*10 SOBRE X 3 UNIDADESSOB     5
CC0000079767241A202100000027832400000027832404/12/20211149    3190333624042196419000024673600000222980000000000000                                                                     JERINGA DESECHABLE 5 ml 27*11/2SIN     2
CC0000079767241A202100000027832400000027832404/12/20211149    3190333624042196419000024674000001138340000000000000   JERINGA 3PARTES C/A 10ML REF JEHL005 CAJ X 100 ALFASAFE  21GX1 PULG 1/2 PULG BN EXENTO-DC.417/202PZA     3
CC0000079767241A202100000027832400000027832404/12/20211149    3190333624042196419000011085300001082140000000000000                                                                           GUANTE QUIRURGICO TALLA 8SOB     1
CC0000079767241A202100000027832400000027832404/12/20211149    3190333624042196419000011085200001585390000000000000                                                                       GUANTE QUIRURGICO TALLA 7 1/2SOB     3
CC0000079767241A202100000027832400000027832404/12/20211149    3190333624042196419000011085100001082120000000000000                                                                           GUANTE QUIRURGICO TALLA 7SOB     3
CC0000079767241A202100000027832400000027832404/12/20211149    3190333624042196419000043485100001618510000000000000                GUANTE QUIRURGICO DE LATEX REF 2D72N65X CAJ X 50 PROTEXIS  6.5 BN EXENTO-DC.417/2020SOB     5
CC0000079767241A202100000027832400000027832404/12/20211149    3190333624042196419000020060000000225230000000000000                                                               AGUJA SPINOCAN 27G X 3 1/2 PU 4503902SIN     1
CC0000079767241A202100000027832400000027832404/12/20211149    31903336240421964190000E1AB0500003888400000000000000                                                              SOLUCION SALINA 0.9% SLN INY X 1000 MLBOL     1
CC0000079767241A202100000027832400000027832404/12/20211149    31903336240421964190000E1AB0300003888390000000000000                                                            SOLUCION SALINA 0.9% SLN INY BO X 500 MLBOL     3
CC0000079767241A202100000027832400000027832404/12/20211149    31903336240421964190000E1AB0200000199290000000000000                                                            SOLUCION SALINA 0.9% SLN INY BO X 100 MLBIN     1
CC0000079767241A202100000027832400000027832404/12/20211149    31903336240421964190000N1BA0500000647360000000000000                                                                  BUPIROP 0.5% PESADO SLN INY X 4 MLAPC     2
CC0000079767241A202100000027832400000027832404/12/20211149    31903336240421964190000A2BC0900000200150000000000000                                                                               ORAZOLE Sln Iny 40 mgCIN     1
CC0000079767241A202100000027832400000027832404/12/20211149    31903336240421964190000N1BA0300000217900000000000000                                                                    BUPIROP 0.5% C/E Sln Iny x 20 mlVAL     1
CC0000079767241A202100000027832400000027832404/12/20211149    31903336240421964190000N1BA2400001687720000000000000                                                    LIDOCAINA 2% SOL INY  CAJ X 50AMP X 10ML CORPAULAMP     1
CC0000079767241A202100000027832400000027832404/12/20211149    31903336240421964190000H02A0100001664960000000000000                                                                        DEXAMETASONA SLN INY 4 MG/MLAMP     2
CC0000079767241A202100000027832400000027832404/12/20211149    31903336240421964190000A03F0300001626860000000000000                                                                   METOCLOPRAMIDA SLN INY 10 MG/2 MLAMP     1
CC0000079767241A202100000027832400000027832404/12/20211149    31903336240421964190000N2AA0100000301640000000000000                                                                            MORFINA Sln Iny 10 mg/mlAMP     1
CC0000079767241A202100000027832400000027832404/12/20211149    31903336240421964190000N1AH0200003906560000000000000                                                                     FENTANIL Iny 0.05 mg/ml x 10 mlAMP     2
