CC0001143115935H202100000556544600000556544604/12/20211015    31500072237421964250000E1AD0300000199490000000000000                                         LACTATO RINGER USP (HARTMANN)  SOL INY  BOL X 1000ML BAXTERBIN     2
CC0001143115935H202100000556544600000556544604/12/20211247     3300009237421964250000C7AB1000001382030000000000000                                                                   NOREPINEFRINA SLN INY 4 MG / 4 MLAMP    12
CC0001143115935H202100000556544600000556544604/12/20210834     3300010237421964250000C7AB1000001382030000000000000                                                                   NOREPINEFRINA SLN INY 4 MG / 4 MLAMP    10
CC0001143115935H202100000556544600000556544604/12/20210747     3300010237421964250000C7AB1000001382030000000000000                                                                   NOREPINEFRINA SLN INY 4 MG / 4 MLAMP     3
CC0001143115935H202100000556544600000556544604/12/20210746     3300010237421964250000C7AB1000001382030000000000000                                                                   NOREPINEFRINA SLN INY 4 MG / 4 MLAMP     7
CC0001143115935H202100000556544600000556544604/12/20211247     3300009237421964250000N01A0400003939010000000000000                                               MAYOPROFOL 200MG/20ML(1%) EMUL INY CAJ X 1VIAL X 20MLVAL    10
CC0001143115935H202100000556544600000556544604/12/20210834     3300010237421964250000N01A0400003939010000000000000                                               MAYOPROFOL 200MG/20ML(1%) EMUL INY CAJ X 1VIAL X 20MLVAL    10
CC0001143115935H202100000556544600000556544604/12/20210747     3300010237421964250000N01A0400003939010000000000000                                               MAYOPROFOL 200MG/20ML(1%) EMUL INY CAJ X 1VIAL X 20MLVAL    10
CC0001143115935H202100000556544600000556544604/12/20210527     3300009237421964250000N01A0400003939010000000000000                                               MAYOPROFOL 200MG/20ML(1%) EMUL INY CAJ X 1VIAL X 20MLVAL    20
CC0001143115935H202100000556544600000556544604/12/20210319     3300009237421964250000N01A0400003939010000000000000                                               MAYOPROFOL 200MG/20ML(1%) EMUL INY CAJ X 1VIAL X 20MLVAL     3
CC0001143115935H202100000556544600000556544604/12/20211247     3300009237421964250000N03AX200001063780000000000000                                                                      KEPPRA SLN INY 500 MG/5 ML /R/VAL     1
CC0001143115935H202100000556544600000556544604/12/20210319     3300009237421964250000N03AX200001063780000000000000                                                                      KEPPRA SLN INY 500 MG/5 ML /R/VAL     6
CC0001143115935H202100000556544600000556544604/12/20210846     3300010237421964250000N1AH0200003906560000000000000                                                                     FENTANIL Iny 0.05 mg/ml x 10 mlAMP     8
CC0001143115935H202100000556544600000556544604/12/20210746     3300010237421964250000H02AB700000585860000000000000                                                                HIDROCORTISONA SUCCI POL LIOF 100 MGVAL     3
CC0001143115935H202100000556544600000556544604/12/20210746     3300010237421964250000A06A1700001333140000000000000                                                                                 BISACODILO TAB 5 MGTAB     2
CC0001143115935H202100000556544600000556544604/12/20210745     3300010237421964250000B01AB200000513350000000000000                                                                        CLENOX SLN INY 40 MG/ 0.4 MLJRP     1
CC0001143115935H202100000556544600000556544604/12/20210746     3300010237421964250000H03AA200001391520000000000000                                                                            LEVOTIROXINA TAB 100 MCGTAB     2
CC0001143115935H202100000556544600000556544604/12/20210834     3300010237421964250000J01CR300003913920000000000000                                                     AUROTAZ-P (4+0.5)GR POLV INY CAJ X 1VIAL X 50MLVAL     1
CC0001143115935H202100000556544600000556544604/12/20210746     3300010237421964250000J01CR300003913920000000000000                                                     AUROTAZ-P (4+0.5)GR POLV INY CAJ X 1VIAL X 50MLVAL     3
CC0001143115935H202100000556544600000556544604/12/20210746     3300010237421964250000A02BC700001684270000000000000                                                            OMEPRAZOL 40MG POLVO LIOFILIZADO AMPOLLAVAL     1
