CC0000008485910U202100050131912900050131912904/12/20211204    31500658239421964320000Q1AA7000001097160000000000000                                                            CATETER PERIFE INTROCAN # 16G 4251709-04SOB     1
CC0000008485910U202100050131912900050131912904/12/20211204    3150065823942196432000011082700001620070000000000000                                                               EQUIPO SET PRIMARIO C/CLAVE REF 14001BOL     1
CC0000008485910U202100050131912900050131912904/12/20211204    3150065823942196432000001956000001620610000000000000                                                                      CONECTOR MICRO CLAVE LAT-MC100SOB     1
CC0000008485910U202100050131912900050131912904/12/20211204    3150065823942196432000016830000000970620000000000000                                                             SIST FIJACION CAT PERIFERICO 6.5X7 1683SOB     1
CC0000008485910U202100050131912900050131912904/12/20211204    31500658239421964320000E1AD0300000199490000000000000                                         LACTATO RINGER USP (HARTMANN)  SOL INY  BOL X 1000ML BAXTERBIN     1
