CC0000032888322A202100000027831600000027831604/12/20211317    3190333624042196419000000901900000229390000000000000                                                                  MASCARA PARA OXIGENO ADULTO (1041)BIN     1
CC0000032888322A202100000027831600000027831604/12/20211317    3190333624042196419000020058400001101660000000000000                                                                           AGUJA DESECHABLE # 25 X 1SOB     1
CC0000032888322A202100000027831600000027831604/12/20211317    3190333624042196419000011047900000223010000000000000                                                                            JERINGA X 1ML REF 302579SIN     1
CC0000032888322A202100000027831600000027831604/12/20211317    31903336240421964190000S2BA0100000468160000000000000                                                                          SOLU-CORTEF SNL INY 100 MGVAL     1
CC0000032888322A202100000027831600000027831604/12/20211317    3190333624042196419000011079100000231400000000000000                                                               COTONOIDE REF 801403 DE 2.5CM X 2.5CMPZA    20
CC0000032888322A202100000027831600000027831604/12/20211317    3190333624042196419000029987500000325440000000000000                                                             TUBO ENDOTRAQ 7.0 C/B Y ESPIRAL INTERNASIN     1
CC0000032888322A202100000027831600000027831604/12/20211317    3190333624042196419000000504200000232730000000000000                                                                   SUTURA PROLENE 5-0 RB1 75CM 9956TSIN     3
CC0000032888322A202100000027831600000027831604/12/20211317    3190333624042196419000011079800004008720000000000000DISPOSITIVO CIERRE HERIDA V-20 REF VLOCL0604 CAJ X 12 V-LOC 180 15CM - 3-0 VERDE BN EXENTO-DC.417/20SOB     1
CC0000032888322A202100000027831600000027831604/12/20211317    31903336240421964190000N5CD0300000218170000000000000                                                              DORMICUM IV-IM 5MG/5ML(1MG/ML) SOL INYAMP     1
CC0000032888322A202100000027831600000027831604/12/20211317    31903336240421964190000B02AA100001407470000000000000                                                                    CLINTRANEX SLN INY 500 MG / 5 MLAMP     1
CC0000032888322A202100000027831600000027831604/12/20211317    31903336240421964190000E1AB0300003888390000000000000                                                            SOLUCION SALINA 0.9% SLN INY BO X 500 MLBOL     1
CC0000032888322A202100000027831600000027831604/12/20211317    3190333624042196419000017566600000232710000000000000                                                                       PROLENE 5-0 PS-2 45 CM P8686TSIN     1
CC0000032888322A202100000027831600000027831604/12/20211317    3190333624042196419000043879100001138200000000000000                                                                  HOJA BISTURI # 15 CSSB 15 01002003SOB     4
CC0000032888322A202100000027831600000027831604/12/20211317    3190333624042196419000043879200001138180000000000000                                                                                   HOJA BISTURI # 11SOB     1
CC0000032888322A202100000027831600000027831604/12/20211317    3190333624042196419000030161400001459220000000000000                                                                       MANGUERA SUCCION 6 MM*3.1 MTSSOB     1
CC0000032888322A202100000027831600000027831604/12/20211317    3190333624042196419000045138000001413890000000000000                                                                       LAPIZ ELECTROBISTURI  SOB X 1SOB     1
CC0000032888322A202100000027831600000027831604/12/20211317    31903336240421964190000S1GA0800000858210000000000000                                                                       AFRIN 0.05% SLN NASAL X 15 MLFCO     1
CC0000032888322A202100000027831600000027831604/12/20211317    31903336240421964190000J01DA300001239950000000000000                                                            CEFAZOLINA SODICA POLVO LIOF SLN INY 1 GVAL     2
CC0000032888322A202100000027831600000027831604/12/20211317    3190333624042196419000016830000000970620000000000000                                                             SIST FIJACION CAT PERIFERICO 6.5X7 1683SOB     1
CC0000032888322A202100000027831600000027831604/12/20211317    31903336240421964190000Q1AA7100000610620000000000000                                                            CATETER PERIFE INTROCAN # 18G 4251687-04SIN     1
CC0000032888322A202100000027831600000027831604/12/20211317    3190333624042196419000035356500003919000000000000000                                                                                        LLAVE 3 VIASSOB     1
CC0000032888322A202100000027831600000027831604/12/20211317    3190333624042196419000022425200000548240000000000000                       EXTENSION DE ANESTESIA REF 1139 SOB X 1 SHERLEG  ADULTO BN EXENTO-DC.417/2020SIN     1
CC0000032888322A202100000027831600000027831604/12/20211317    3190333624042196419000022426800001140510000000000000                                                                    EQUIPO MACROGOTEO BAXTER MRC0001SOB     1
CC0000032888322A202100000027831600000027831604/12/20211317    3190333624042196419000020058100001101630000000000000                                                                     AGUJA HIPODERMICA DESECH 23 X 1SOB     1
CC0000032888322A202100000027831600000027831604/12/20211317    3190333624042196419000024674500000322810000000000000                                                                   JERINGA DESECHABLE 20 ml 21*1 1/2SIN     2
CC0000032888322A202100000027831600000027831604/12/20211317    3190333624042196419000024674000001138340000000000000   JERINGA 3PARTES C/A 10ML REF JEHL005 CAJ X 100 ALFASAFE  21GX1 PULG 1/2 PULG BN EXENTO-DC.417/202PZA     3
CC0000032888322A202100000027831600000027831604/12/20211317    3190333624042196419000024673000001411210000000000000                                                                  JERINGA DESECHABLE 3 ML 21 X 1 1/2SOB     1
CC0000032888322A202100000027831600000027831604/12/20211317    3190333624042196419000011064500000256770000000000000                                                                              SONDA DE SUCCION 18 FRSIN     1
CC0000032888322A202100000027831600000027831604/12/20211317    3190333624042196419000011073300001096420000000000000                                                                BOLSA DE SUCCION DE FLUIDOS x 2500mLBOL     1
CC0000032888322A202100000027831600000027831604/12/20211317    3190333624042196419000053074400000607910000000000000                                                               GASA ESTERIL 10*10 SOBRE X 3 UNIDADESSOB     3
CC0000032888322A202100000027831600000027831604/12/20211317    3190333624042196419000051515500000598160000000000000                                                                            MASCARILLA ANESTESIA # 5SIN     1
CC0000032888322A202100000027831600000027831604/12/20211317    3190333624042196419000011099300000777780000000000000                                                                     FILTRO BACTERIANO VIRICO ADULTOBOL     1
CC0000032888322A202100000027831600000027831604/12/20211317    3190333624042196419000020750600000296780000000000000                                                                PLACA ELECTRO RETORNO PACIENTE E7506SIN     1
CC0000032888322A202100000027831600000027831604/12/20211317    3190333624042196419000011085200001585390000000000000                                                                       GUANTE QUIRURGICO TALLA 7 1/2SOB     1
CC0000032888322A202100000027831600000027831604/12/20211317    3190333624042196419000011085100001082120000000000000                                                                           GUANTE QUIRURGICO TALLA 7SOB     4
CC0000032888322A202100000027831600000027831604/12/20211317    3190333624042196419000043485100001618510000000000000                GUANTE QUIRURGICO DE LATEX REF 2D72N65X CAJ X 50 PROTEXIS  6.5 BN EXENTO-DC.417/2020SOB     3
CC0000032888322A202100000027831600000027831604/12/20211317    31903336240421964190000E1AD0200003888320000000000000                                                                              HARTMAN SLN INY 500 MLBOL     1
CC0000032888322A202100000027831600000027831604/12/20211317    31903336240421964190000N02B1100001464120000000000000                                           PARACETAMOL EP 1000MG/100ML(10MG/ML) SOL INY  CAJ X 10FCOVAL     1
CC0000032888322A202100000027831600000027831604/12/20211317    31903336240421964190000M01A0400001341250000000000000                                                                              DYNASTAT AMP 40 MG /R/VAL     1
CC0000032888322A202100000027831600000027831604/12/20211317    31903336240421964190000R3CA0400000777470000000000000                                                               ADRENALINA HCL SLN INY 1 MG / ML RYANAMP     1
CC0000032888322A202100000027831600000027831604/12/20211317    31903336240421964190000N1BA2400001687720000000000000                                                    LIDOCAINA 2% SOL INY  CAJ X 50AMP X 10ML CORPAULAMP     1
CC0000032888322A202100000027831600000027831604/12/20211317    31903336240421964190000N01B1300001195250000000000000                                                                         BUPIROP 0.5% S/EPIN X 10 MLAMP     1
CC0000032888322A202100000027831600000027831604/12/20211317    31903336240421964190000H02AB500001664950000000000000                                                            DEXAMETASONA SLN INY 8 MG/2 ML AMP /CDS/AMP     1
CC0000032888322A202100000027831600000027831604/12/20211317    31903336240421964190000A04A1400001467560000000000000                                                                      ONDANSETRON SLN INY 8 MG/ 4 MLVAL     1
CC0000032888322A202100000027831600000027831604/12/20211317    31903336240421964190000A2BC0900000200150000000000000                                                                               ORAZOLE Sln Iny 40 mgCIN     1
CC0000032888322A202100000027831600000027831604/12/20211317    31903336240421964190000A4AD0200000202990000000000000                                                                     PLITICAN HCL Sln Iny 50 mg/2 mlAMP     1
CC0000032888322A202100000027831600000027831604/12/20211317    31903336240421964190000N01A0400003939010000000000000                                               MAYOPROFOL 200MG/20ML(1%) EMUL INY CAJ X 1VIAL X 20MLVAL     1
CC0000032888322A202100000027831600000027831604/12/20211317    31903336240421964190000N1AH0200003906560000000000000                                                                     FENTANIL Iny 0.05 mg/ml x 10 mlAMP     1
