CC0000072218236H202100000556544700000556544704/12/20211535     3300010237421964250000H02AB400001140460000000000000                                                              SUCCINA METILPREDNISOLONA 500MG VIA/R/VAL     2
CC0000072218236H202100000556544700000556544704/12/20211536     3300010237421964250000B3BB0200001315040000000000000                                                                               ACIDO FOLICO Tab 5 mgTAB     2
CC0000072218236H202100000556544700000556544704/12/20210831     3300010237421964250000A02B0800001276960000000000000                                                                                 OMEPRAZOL CAP 20 MGCAP     1
CC0000072218236H202100000556544700000556544704/12/20210831     3300010237421964250000N2BE2200001252930000000000000                                                                             ACETAMINOFEN Tab 500 MGTAB     2
