CC0001140828821H202100015042535500015042535504/12/20211216    3190302823742196425000011082900001233450000000000000                                                               EQUIPO LC 5000 PRIMARIO FOTOPRO 0L218SOB     1
TI0001066284726H202100015042535500015042535504/12/20211216    3190302823742196425000011082700001620070000000000000                                                               EQUIPO SET PRIMARIO C/CLAVE REF 14001BOL     1
TI0001066284726H202100015042535500015042535504/12/20211216    3190302823742196425000001956000001620610000000000000                                                                      CONECTOR MICRO CLAVE LAT-MC100SOB     1
TI0001066284726H202100015042535500015042535504/12/20211216    3190302823742196425000030936900001431840000000000000                                                                                              BURETABOL     1
