CC0000008530442H202100015022562100015022562104/12/20212355    3190063023742196425000013077800000471960000000000000                                                             GASA NO TEJIDA EST 7.5 X 7.5 SOB X 3 UNSOB    10
CC0000016200301H202100015022562100015022562104/12/20212355    3190063023742196425000013077800000471960000000000000                                                             GASA NO TEJIDA EST 7.5 X 7.5 SOB X 3 UNSOB    20
CC0000007403900H202100015022562100015022562104/12/20212355    3190063023742196425000013077800000471960000000000000                                                             GASA NO TEJIDA EST 7.5 X 7.5 SOB X 3 UNSOB     8
CC0000008530442H202100015022562100015022562104/12/20212355    3190063023742196425000042743200003929860000000000000                   GASA ADHESIVA STRETCH REF 02038-00 ROL X 10MT FIXOMULL 15CM BN EXENTO-DC.417/2020CMT    80
CC0000016200301H202100015022562100015022562104/12/20212355    3190063023742196425000042743200003929860000000000000                   GASA ADHESIVA STRETCH REF 02038-00 ROL X 10MT FIXOMULL 15CM BN EXENTO-DC.417/2020CMT   100
CC0000007403900H202100015022562100015022562104/12/20212355    3190063023742196425000042743200003929860000000000000                   GASA ADHESIVA STRETCH REF 02038-00 ROL X 10MT FIXOMULL 15CM BN EXENTO-DC.417/2020CMT    60
CC0000016200301H202100015022562100015022562104/12/20212355    3190063023742196425000040185000001571620000000000000                                                                         APOSITO AQUACEL AG 15X15 CMSOB     3
CC0000016200301H202100015022562100015022562104/12/20212355    31900630237421964250000E1BA0100000198890000000000000                                                                   AGUA ESTERIL USP SLN INY X 500 MLBIN     2
