CC0000003719048A202100000027823700000027823704/12/20210829    3190333624042196419000014581900000529900000000000000                                                            GRAPADORA CON GRAPAS PIEL 35W 8886803712PZA     1
CC0000003719048A202100000027823700000027823704/12/20210829    3190333624042196419000017574600000232670000000000000                                                                               PROLENE 4-0 2RB1 9557SIN     5
CC0000003719048A202100000027823700000027823704/12/20210829    31903336240421964190000J01G0100000858000000000000000                                                                       GARAMICINA SLN INY 80 MG/2 MLAMP     2
CC0000003719048A202100000027823700000027823704/12/20210829    3190333624042196419000045138000001413890000000000000                                                                       LAPIZ ELECTROBISTURI  SOB X 1SOB     1
CC0000003719048A202100000027823700000027823704/12/20210829    3190333624042196419000049428300000860750000000000000                                                                       VENDA ELASTICA 4*5 NO ESTERILBOL     3
CC0000003719048A202100000027823700000027823704/12/20210829    3190333624042196419000019488700000753270000000000000                                                                              VICRYL 3-0 SH1 VCP311HSOB     3
CC0000003719048A202100000027823700000027823704/12/20210829    3190333624042196419000017566200001585160000000000000                                                                  PROLENE 4-0 AZ 45 PS2 PRIME P8682TSOB     2
CC0000003719048A202100000027823700000027823704/12/20210829    3190333624042196419000043879100001138200000000000000                                                                  HOJA BISTURI # 15 CSSB 15 01002003SOB     3
CC0000003719048A202100000027823700000027823704/12/20210829    3190333624042196419000022425200000548240000000000000                       EXTENSION DE ANESTESIA REF 1139 SOB X 1 SHERLEG  ADULTO BN EXENTO-DC.417/2020SIN     1
CC0000003719048A202100000027823700000027823704/12/20210829    3190333624042196419000035356500003919000000000000000                                                                                        LLAVE 3 VIASSOB     2
CC0000003719048A202100000027823700000027823704/12/20210829    31903336240421964190000Q1AA7100000610620000000000000                                                            CATETER PERIFE INTROCAN # 18G 4251687-04SIN     1
CC0000003719048A202100000027823700000027823704/12/20210829    3190333624042196419000022426800001140510000000000000                                                                    EQUIPO MACROGOTEO BAXTER MRC0001SOB     1
CC0000003719048A202100000027823700000027823704/12/20210829    3190333624042196419000016830000000970620000000000000                                                             SIST FIJACION CAT PERIFERICO 6.5X7 1683SOB     1
CC0000003719048A202100000027823700000027823704/12/20210829    31903336240421964190000J01DA300001239950000000000000                                                            CEFAZOLINA SODICA POLVO LIOF SLN INY 1 GVAL     2
CC0000003719048A202100000027823700000027823704/12/20210829    3190333624042196419000030161400001459220000000000000                                                                       MANGUERA SUCCION 6 MM*3.1 MTSSOB     1
CC0000003719048A202100000027823700000027823704/12/20210829    3190333624042196419000020750600000296780000000000000                                                                PLACA ELECTRO RETORNO PACIENTE E7506SIN     1
CC0000003719048A202100000027823700000027823704/12/20210829    3190333624042196419000053074400000607910000000000000                                                               GASA ESTERIL 10*10 SOBRE X 3 UNIDADESSOB     6
CC0000003719048A202100000027823700000027823704/12/20210829    3190333624042196419000011085300001082140000000000000                                                                           GUANTE QUIRURGICO TALLA 8SOB     1
CC0000003719048A202100000027823700000027823704/12/20210829    3190333624042196419000011085200001585390000000000000                                                                       GUANTE QUIRURGICO TALLA 7 1/2SOB     9
CC0000003719048A202100000027823700000027823704/12/20210829    3190333624042196419000011085100001082120000000000000                                                                           GUANTE QUIRURGICO TALLA 7SOB     1
CC0000003719048A202100000027823700000027823704/12/20210829    3190333624042196419000038568100000258050000000000000                                                                         CANULA OXIGENO NASAL ADULTOSIN     1
CC0000003719048A202100000027823700000027823704/12/20210829    3190333624042196419000011099300000777780000000000000                                                                     FILTRO BACTERIANO VIRICO ADULTOBOL     1
CC0000003719048A202100000027823700000027823704/12/20210829    3190333624042196419000020058100001101630000000000000                                                                     AGUJA HIPODERMICA DESECH 23 X 1SOB     2
CC0000003719048A202100000027823700000027823704/12/20210829    3190333624042196419000024673600000222980000000000000                                                                     JERINGA DESECHABLE 5 ml 27*11/2SIN     2
CC0000003719048A202100000027823700000027823704/12/20210829    3190333624042196419000024674000001138340000000000000   JERINGA 3PARTES C/A 10ML REF JEHL005 CAJ X 100 ALFASAFE  21GX1 PULG 1/2 PULG BN EXENTO-DC.417/202PZA     4
CC0000003719048A202100000027823700000027823704/12/20210829    3190333624042196419000024674500000322810000000000000                                                                   JERINGA DESECHABLE 20 ml 21*1 1/2SIN     2
CC0000003719048A202100000027823700000027823704/12/20210829    31903336240421964190000E1AB0500003888400000000000000                                                              SOLUCION SALINA 0.9% SLN INY X 1000 MLBOL     3
CC0000003719048A202100000027823700000027823704/12/20210829    31903336240421964190000E1AB0300003888390000000000000                                                            SOLUCION SALINA 0.9% SLN INY BO X 500 MLBOL     3
CC0000003719048A202100000027823700000027823704/12/20210829    31903336240421964190000E1AB0700003888350000000000000                                                            SOLUCION SALINA 0.9% SLN INY BO X 250 MLBOL     1
CC0000003719048A202100000027823700000027823704/12/20210829    31903336240421964190000N02B1100001464120000000000000                                           PARACETAMOL EP 1000MG/100ML(10MG/ML) SOL INY  CAJ X 10FCOVAL     1
CC0000003719048A202100000027823700000027823704/12/20210829    31903336240421964190000A3BB0200000512940000000000000                                                                          BUSCAPINA SIMPLE Iny 20 mgAMP     1
CC0000003719048A202100000027823700000027823704/12/20210829    31903336240421964190000A2BC0900000200150000000000000                                                                               ORAZOLE Sln Iny 40 mgCIN     1
CC0000003719048A202100000027823700000027823704/12/20210829    31903336240421964190000N01A0400003939010000000000000                                               MAYOPROFOL 200MG/20ML(1%) EMUL INY CAJ X 1VIAL X 20MLVAL     1
CC0000003719048A202100000027823700000027823704/12/20210829    31903336240421964190000N2BB1100000217160000000000000                                                                      NOVALGINA Sln Iny 2.5 g x 5 mlAMP     1
CC0000003719048A202100000027823700000027823704/12/20210829    31903336240421964190000A4AD0200000202990000000000000                                                                     PLITICAN HCL Sln Iny 50 mg/2 mlAMP     1
CC0000003719048A202100000027823700000027823704/12/20210829    31903336240421964190000C01C0300001261020000000000000                                                               ETILEFRINA HCL SLN INY 10 MG/1 ML /R/AMP     1
CC0000003719048A202100000027823700000027823704/12/20210829    31903336240421964190000N1BA2400001687720000000000000                                                    LIDOCAINA 2% SOL INY  CAJ X 50AMP X 10ML CORPAULAMP     1
CC0000003719048A202100000027823700000027823704/12/20210829    31903336240421964190000N01B0600003888900000000000000                                                    BUPINEST 75MG/10ML(0.75%) SOL INY CAJ X 24AMPACKAPC     2
CC0000003719048A202100000027823700000027823704/12/20210829    31903336240421964190000M03AC100000197200000000000000                                                                   TRACURION SLN INY 10 MG /5 ML /R/AMP     1
CC0000003719048A202100000027823700000027823704/12/20210829    31903336240421964190000N2AA0700001587170000000000000                                                                                 ULTIVA Sln Iny 2 mgVAL     1
CC0000003719048A202100000027823700000027823704/12/20210829    31903336240421964190000N1AH0200003906560000000000000                                                                     FENTANIL Iny 0.05 mg/ml x 10 mlAMP     1
CC0000003719048A202100000027823700000027823704/12/20210829    3190333624042196419000011075600000235230000000000000                                                                CABESTRILLO ESPUMA UNIVERSAL  KM2200BOL     1
CC0000003719048A202100000027823700000027823704/12/20210829    3190333624042196419000049419800001679910000000000000                                                                        VENDA ALGODON 6*5 NO ESTERILSOB     1
CC0000003719048A202100000027823700000027823704/12/20210829    3190333624042196419000049428400000738560000000000000                                                                       VENDA ELASTICA 5*5 NO ESTERILSOB     4
CC0000003719048A202100000027823700000027823704/12/20210829    3190333624042196419000000601100000221340000000000000                                                                          APOSITO DE CURACION GRANDEPAQ     2
CC0000003719048A202100000027823700000027823704/12/20210829    3190333624042196419000000600800000258580000000000000                                                              APOSITO BACTIGRAS REF 7461 15CM X 20CMSIN     2
CC0000003719048A202100000027823700000027823704/12/20210829    3190333624042196419000019488400000599300000000000000                                                                               VICRYL 2-0 SH VCP317HSIN     2
CC0000003719048A202100000027823700000027823704/12/20210829    3190333624042196419000017565800001585150000000000000                                                             SUTURA PROLENE 3-0 45CM PS1 PRIME 8663TSOB     4
CC0000003719048A202100000027823700000027823704/12/20210829    31903336240421964190000N1BA0500000647360000000000000                                                                  BUPIROP 0.5% PESADO SLN INY X 4 MLAPC     1
CC0000003719048A202100000027823700000027823704/12/20210829    3190333624042196419000043879200001138180000000000000                                                                                   HOJA BISTURI # 11SOB     5
CC0000003719048A202100000027823700000027823704/12/20210829    3190333624042196419000020060000000225230000000000000                                                               AGUJA SPINOCAN 27G X 3 1/2 PU 4503902SIN     1
CC0000003719048A202100000027823700000027823704/12/20210829    3190333624042196419000043485100001618510000000000000                GUANTE QUIRURGICO DE LATEX REF 2D72N65X CAJ X 50 PROTEXIS  6.5 BN EXENTO-DC.417/2020SOB     2
CC0000003719048A202100000027823700000027823704/12/20210829    31903336240421964190000N01B0200003888110000000000000                                           ROXICAINA SE 100MG/10ML(1%) SOL INY CAJ X 24AMPACK X 10MLAPC     2
CC0000003719048A202100000027823700000027823704/12/20210829    3190333624042196419000011857700001096350000000000000                                                              AGUJA SONOPLEX BLOQUEO 21*100 01185-77BOL     1
CC0000003719048A202100000027823700000027823704/12/20210829    3190333624042196419000049419700001679920000000000000                                                                        VENDA ALGODON 5*5 NO ESTERILSOB     1
CC0000003719048A202100000027823700000027823704/12/20210829    3190333624042196419000098670000000785980000000000000                                                                             PDS 4-0 RB1 70  PDP304HSOB     1
