CC0001005336912A202100000027838200000027838204/12/20211610    3190333624042196419000019488700000753270000000000000                                                                              VICRYL 3-0 SH1 VCP311HSOB     2
CC0001005336912A202100000027838200000027838204/12/20211610    3190333624042196419000020816000001096410000000000000                                                                          LINER PARED DELGADA 1500CCBOL     1
CC0001005336912A202100000027838200000027838204/12/20211610    31903336240421964190000B2BA0300000215330000000000000                                                              KONAKION MM PEDIAT SLN INY 2 MG/0.2 MLAMP     1
CC0001005336912A202100000027838200000027838204/12/20211610    3190333624042196419000036441300000236540000000000000                                                                    JERINGA 1 ML GASES ARTERIAL 9023SIN     1
CC0001005336912A202100000027838200000027838204/12/20211610    3190333624042196419000030161400001459220000000000000                                                                       MANGUERA SUCCION 6 MM*3.1 MTSSOB     1
CC0001005336912A202100000027838200000027838204/12/20211610    3190333624042196419000043879400001138170000000000000                                                                  HOJA BISTURI # 10 CSSB 10 01002000SOB     1
CC0001005336912A202100000027838200000027838204/12/20211610    31903336240421964190000Q1AA1000000256790000000000000                                                                         SONDA ASPIRACION CONTROL #8SIN     1
CC0001005336912A202100000027838200000027838204/12/20211610    3190333624042196419000038568300000257010000000000000                                                                                   SONDA NELATON #08SIN     1
CC0001005336912A202100000027838200000027838204/12/20211610    3190333624042196419000072970000001147030000000000000                                                                                     CLAMP UMBILICALPZA     1
CC0001005336912A202100000027838200000027838204/12/20211610    3190333624042196419000013077800000471960000000000000                                                             GASA NO TEJIDA EST 7.5 X 7.5 SOB X 3 UNSOB     2
CC0001005336912A202100000027838200000027838204/12/20211610    31903336240421964190000E1AB0200000199290000000000000                                                            SOLUCION SALINA 0.9% SLN INY BO X 100 MLBIN     1
CC0001005336912A202100000027838200000027838204/12/20211610    31903336240421964190000E1AB0300003888390000000000000                                                            SOLUCION SALINA 0.9% SLN INY BO X 500 MLBOL     1
CC0001005336912A202100000027838200000027838204/12/20211610    3190333624042196419000022425200000548240000000000000                       EXTENSION DE ANESTESIA REF 1139 SOB X 1 SHERLEG  ADULTO BN EXENTO-DC.417/2020SIN     1
CC0001005336912A202100000027838200000027838204/12/20211610    3190333624042196419000035356500003919000000000000000                                                                                        LLAVE 3 VIASSOB     1
CC0001005336912A202100000027838200000027838204/12/20211610    31903336240421964190000Q1AA7100000610620000000000000                                                            CATETER PERIFE INTROCAN # 18G 4251687-04SIN     1
CC0001005336912A202100000027838200000027838204/12/20211610    3190333624042196419000022426800001140510000000000000                                                                    EQUIPO MACROGOTEO BAXTER MRC0001SOB     1
CC0001005336912A202100000027838200000027838204/12/20211610    31903336240421964190000J01DA300001239950000000000000                                                            CEFAZOLINA SODICA POLVO LIOF SLN INY 1 GVAL     2
CC0001005336912A202100000027838200000027838204/12/20211610    3190333624042196419000011047900000223010000000000000                                                                            JERINGA X 1ML REF 302579SIN     2
CC0001005336912A202100000027838200000027838204/12/20211610    3190333624042196419000024673600000222980000000000000                                                                     JERINGA DESECHABLE 5 ml 27*11/2SIN     2
CC0001005336912A202100000027838200000027838204/12/20211610    3190333624042196419000024674000001138340000000000000   JERINGA 3PARTES C/A 10ML REF JEHL005 CAJ X 100 ALFASAFE  21GX1 PULG 1/2 PULG BN EXENTO-DC.417/202PZA     6
CC0001005336912A202100000027838200000027838204/12/20211610    3190333624042196419000053074400000607910000000000000                                                               GASA ESTERIL 10*10 SOBRE X 3 UNIDADESSOB     1
CC0001005336912A202100000027838200000027838204/12/20211610    3190333624042196419000011085100001082120000000000000                                                                           GUANTE QUIRURGICO TALLA 7SOB     3
CC0001005336912A202100000027838200000027838204/12/20211610    3190333624042196419000043485100001618510000000000000                GUANTE QUIRURGICO DE LATEX REF 2D72N65X CAJ X 50 PROTEXIS  6.5 BN EXENTO-DC.417/2020SOB     2
CC0001005336912A202100000027838200000027838204/12/20211610    3190333624042196419000038568100000258050000000000000                                                                         CANULA OXIGENO NASAL ADULTOSIN     1
CC0001005336912A202100000027838200000027838204/12/20211610    31903336240421964190000E1AD0200003888320000000000000                                                                              HARTMAN SLN INY 500 MLBOL     1
CC0001005336912A202100000027838200000027838204/12/20211610    31903336240421964190000N1BA2400001687720000000000000                                                    LIDOCAINA 2% SOL INY  CAJ X 50AMP X 10ML CORPAULAMP     1
CC0001005336912A202100000027838200000027838204/12/20211610    31903336240421964190000N2BB0100001672010000000000000                                  DIPIRONA 1GR/2ML(0.5GR/ML) SOL INY INST CAJ X 100AMP X 2ML VITALISAMP     1
CC0001005336912A202100000027838200000027838204/12/20211610    31903336240421964190000H1BB0200003888510000000000000                                                                         OXITOCINA SLN INY 10 UI /MLAMP     2
