CC0000008750952H202100000556545300000556545304/12/20211404     3300009237421964250000A6AG0100001107060000000000000                                                            ENEMA RECTAL FOSTATO SODIO BO X 133ML /RBOL     1
CC0000008750952H202100000556545300000556545304/12/20210910     3300010237421964250000A06AD100001193740000000000000                                                                      CONTUMAX 3350 SOBRE X 17 G /R/SOB     1
CC0000008750952H202100000556545300000556545304/12/20211617    31900135237421964250000E1AB0300003888390000000000000                                                            SOLUCION SALINA 0.9% SLN INY BO X 500 MLBOL     1
CC0000008750952H202100000556545300000556545304/12/20211617    31900135237421964250000E1AD0300000199490000000000000                                         LACTATO RINGER USP (HARTMANN)  SOL INY  BOL X 1000ML BAXTERBIN     2
CC0000008750952H202100000556545300000556545304/12/20210910     3300010237421964250000N03AX700001335170000000000000                                                                                LYRICA CAP 50 MG /R/CAP     1
CC0000008750952H202100000556545300000556545304/12/20210044     3300009237421964250000N2BE2200001252930000000000000                                                                             ACETAMINOFEN Tab 500 MGTAB     2
CC0000008750952H202100000556545300000556545304/12/20210910     3300010237421964250000N05BB100001315110000000000000                                                                               HIDROXICINA TAB 25 MGTAB     1
CC0000008750952H202100000556545300000556545304/12/20210910     3300010237421964250000A02BC700001684270000000000000                                                            OMEPRAZOL 40MG POLVO LIOFILIZADO AMPOLLAVAL     1
