CC0001050950284U202100050131916200050131916204/12/20211705    3190118123942196432000049428200000860740000000000000                                                                       VENDA ELASTICA 3*5 NO ESTERILBOL     1
CC0001050950284U202100050131916200050131916204/12/20211705    3190118123942196432000024674000001138340000000000000   JERINGA 3PARTES C/A 10ML REF JEHL005 CAJ X 100 ALFASAFE  21GX1 PULG 1/2 PULG BN EXENTO-DC.417/202PZA     3
CC0001030682177U202100050131916200050131916204/12/20211705    3190118123942196432000024674000001138340000000000000   JERINGA 3PARTES C/A 10ML REF JEHL005 CAJ X 100 ALFASAFE  21GX1 PULG 1/2 PULG BN EXENTO-DC.417/202PZA     3
CC0001050950284U202100050131916200050131916204/12/20211705    3190118123942196432000011089300001083990000000000000                                                              GUANTE ESTERIL LATEX S/POLVO TALLA 7.5SOB     4
CC0001050950284U202100050131916200050131916204/12/20211705    3190118123942196432000013077800000471960000000000000                                                             GASA NO TEJIDA EST 7.5 X 7.5 SOB X 3 UNSOB     5
CC0001050950284U202100050131916200050131916204/12/20211705    3190118123942196432000011082700001620070000000000000                                                               EQUIPO SET PRIMARIO C/CLAVE REF 14001BOL     1
CC0001030682177U202100050131916200050131916204/12/20211705    3190118123942196432000011082700001620070000000000000                                                               EQUIPO SET PRIMARIO C/CLAVE REF 14001BOL     1
CC0001050950284U202100050131916200050131916204/12/20211705    3190118123942196432000001956000001620610000000000000                                                                      CONECTOR MICRO CLAVE LAT-MC100SOB     1
CC0001030682177U202100050131916200050131916204/12/20211705    3190118123942196432000001956000001620610000000000000                                                                      CONECTOR MICRO CLAVE LAT-MC100SOB     1
CC0001050950284U202100050131916200050131916204/12/20211705    31901181239421964320000Q1AA7100000610620000000000000                                                            CATETER PERIFE INTROCAN # 18G 4251687-04SIN     1
CC0001030682177U202100050131916200050131916204/12/20211705    31901181239421964320000Q1AA7100000610620000000000000                                                            CATETER PERIFE INTROCAN # 18G 4251687-04SIN     2
CC0001030682177U202100050131916200050131916204/12/20211705    3190118123942196432000030936900001431840000000000000                                                                                              BURETABOL     1
CC0001030682177U202100050131916200050131916204/12/20211705    31901181239421964320000E1AB0300003888390000000000000                                                            SOLUCION SALINA 0.9% SLN INY BO X 500 MLBOL     1
CC0001050950284U202100050131916200050131916204/12/20211705    31901181239421964320000E1AB0700003888350000000000000                                                            SOLUCION SALINA 0.9% SLN INY BO X 250 MLBOL     2
CC0001050950284U202100050131916200050131916204/12/20211705    31901181239421964320000E1AB1100003888280000000000000                                                                        SOLUCION SALINA 0.9% X 50 mlBOL     1
