CC0001140828821H202100015042535600015042535604/12/20211401    3190315723742196425000030161400001459220000000000000                                                                       MANGUERA SUCCION 6 MM*3.1 MTSSOB     1
CC0000072277171H202100015042535600015042535604/12/20211401    3190315723742196425000030161400001459220000000000000                                                                       MANGUERA SUCCION 6 MM*3.1 MTSSOB     1
RC0001146543342H202100015042535600015042535604/12/20211401    3190315723742196425000030161400001459220000000000000                                                                       MANGUERA SUCCION 6 MM*3.1 MTSSOB     1
CC0001140828821H202100015042535600015042535604/12/20211401    3190315723742196425000035639600001014740000000000000                                                                              MASCARA VENTURY ADULTOBOL     1
CC0000072277171H202100015042535600015042535604/12/20211401    3190315723742196425000035639600001014740000000000000                                                                              MASCARA VENTURY ADULTOBOL     1
RC0001146543342H202100015042535600015042535604/12/20211401    3190315723742196425000035639600001014740000000000000                                                                              MASCARA VENTURY ADULTOBOL     1
CC0001140828821H202100015042535600015042535604/12/20211401    3190315723742196425000036441300000236540000000000000                                                                    JERINGA 1 ML GASES ARTERIAL 9023SIN     5
CC0001140828821H202100015042535600015042535604/12/20211401    3190315723742196425000043995200000229010000000000000                                                               HUMIDIFICADOR PARA OXIGENO REF. H001BBOL     1
CC0000072277171H202100015042535600015042535604/12/20211401    3190315723742196425000043995200000229010000000000000                                                               HUMIDIFICADOR PARA OXIGENO REF. H001BBOL     1
RC0001146543342H202100015042535600015042535604/12/20211401    3190315723742196425000043995200000229010000000000000                                                               HUMIDIFICADOR PARA OXIGENO REF. H001BBOL     1
TI0001066284726H202100015042535600015042535604/12/20211401    31903157237421964250000Q1A11800000258040000000000000                                                                         CANULA OXIGENO NASAL PEDIATSIN     1
CC0001151478323H202100015042535600015042535604/12/20211401    31903157237421964250000Q1A11800000258040000000000000                                                                         CANULA OXIGENO NASAL PEDIATSIN     1
CC0001140828821H202100015042535600015042535604/12/20211401    3190315723742196425000038568100000258050000000000000                                                                         CANULA OXIGENO NASAL ADULTOSIN     1
CC0000072277171H202100015042535600015042535604/12/20211401    3190315723742196425000038568100000258050000000000000                                                                         CANULA OXIGENO NASAL ADULTOSIN     1
RC0001146543342H202100015042535600015042535604/12/20211401    3190315723742196425000038568100000258050000000000000                                                                         CANULA OXIGENO NASAL ADULTOSIN     1
