RC0001143474189H202100015132527700015132527704/12/20210102    3190102423742196425000038568200000257000000000000000                                                                                   SONDA NELATON #06SIN     1
RC0001143474190H202100015132527700015132527704/12/20210102    3190102423742196425000038568200000257000000000000000                                                                                   SONDA NELATON #06SIN     1
RC0001047065603H202100015132527700015132527704/12/20210102    3190102423742196425000038568200000257000000000000000                                                                                   SONDA NELATON #06SIN     1
RC0001044236218H202100015132527700015132527704/12/20210102    3190102423742196425000038568200000257000000000000000                                                                                   SONDA NELATON #06SIN     1
RC0001047065574H202100015132527700015132527704/12/20210102    3190102423742196425000038568200000257000000000000000                                                                                   SONDA NELATON #06SIN     1
RC0001044436459H202100015132527700015132527704/12/20210102    3190102423742196425000038568200000257000000000000000                                                                                   SONDA NELATON #06SIN     1
RC0001048091952H202100015132527700015132527704/12/20210102    3190102423742196425000011082700001620070000000000000                                                               EQUIPO SET PRIMARIO C/CLAVE REF 14001BOL     1
NV0000170258691H202100015132527700015132527704/12/20210102    31901024237421964250000Q1AA7400003911720000000000000                                                            CATETER PERIFE INTROCAN # 24G 4251601-04SOB     1
RC0001048091952H202100015132527700015132527704/12/20210102    31901024237421964250000Q1BB0100000236920000000000000                                                             BOLSA EVA NPT PINNACLE X 500 ML 2112347BOL     1
