CC0001104008600H202100015052801100015052801104/12/20211735    3190318423742196425000082508500000968690000000000000                                                                 EQUIPO INFUSOMAT C/PUNZON 8250857SPBOL     1
CC0000009240037H202100015052801100015052801104/12/20211735    31903184237421964250000E1AB0300003888390000000000000                                                            SOLUCION SALINA 0.9% SLN INY BO X 500 MLBOL     1
CC0000003719048H202100015052801100015052801104/12/20211735    31903184237421964250000E1AB0300003888390000000000000                                                            SOLUCION SALINA 0.9% SLN INY BO X 500 MLBOL     1
CC0000052863354H202100015052801100015052801104/12/20211735    31903184237421964250000E1AB0300003888390000000000000                                                            SOLUCION SALINA 0.9% SLN INY BO X 500 MLBOL     1
CC0001042353509H202100015052801100015052801104/12/20211735    31903184237421964250000E1AB0300003888390000000000000                                                            SOLUCION SALINA 0.9% SLN INY BO X 500 MLBOL     1
CC0001045685077H202100015052801100015052801104/12/20211735    31903184237421964250000E1AB0300003888390000000000000                                                            SOLUCION SALINA 0.9% SLN INY BO X 500 MLBOL     1
CC0000019068414H202100015052801100015052801104/12/20211735    31903184237421964250000E1AB0300003888390000000000000                                                            SOLUCION SALINA 0.9% SLN INY BO X 500 MLBOL     1
