CC0001030682177U202100050131917300050131917304/12/20211849    3190118123942196432000019490800000233140000000000000                                                                        VICRYL 4-0 INC 70 SC20 J122HSIN     1
CC0001030682177U202100050131917300050131917304/12/20211849    3190118123942196432000017565800001585150000000000000                                                             SUTURA PROLENE 3-0 45CM PS1 PRIME 8663TSOB     1
CC0001030682177U202100050131917300050131917304/12/20211849    3190118123942196432000012473200000232210000000000000                                                                 SUTURA ETHILON 3-0 SC-24 45CM  163TSIN     1
CC0001030682177U202100050131917300050131917304/12/20211849    3190118123942196432000024674000001138340000000000000   JERINGA 3PARTES C/A 10ML REF JEHL005 CAJ X 100 ALFASAFE  21GX1 PULG 1/2 PULG BN EXENTO-DC.417/202PZA     3
CC0001030682177U202100050131917300050131917304/12/20211849    3190118123942196432000011089300001083990000000000000                                                              GUANTE ESTERIL LATEX S/POLVO TALLA 7.5SOB     2
CC0001030682177U202100050131917300050131917304/12/20211849    3190118123942196432000013077800000471960000000000000                                                             GASA NO TEJIDA EST 7.5 X 7.5 SOB X 3 UNSOB     5
CC0001030682177U202100050131917300050131917304/12/20211849    31901181239421964320000E1AB0200000199290000000000000                                                            SOLUCION SALINA 0.9% SLN INY BO X 100 MLBIN     1
