CC0000013887621H202100000556545900000556545904/12/20210852     330001023742196425000011808300000218190000000000000                                                   DORMICUM IV 50MG/10ML(5MG/ML) SOL INY  CAJ X 5AMPAMP    10
CC0000013887621H202100000556545900000556545904/12/20210817     3300010237421964250000A2BC0900000200150000000000000                                                                               ORAZOLE Sln Iny 40 mgCIN     1
CC0000013887621H202100000556545900000556545904/12/20210821     3300010237421964250000A11DA300001278410000000000000                                                                                  TIAMINA TAB 300 MGTAB     1
CC0000013887621H202100000556545900000556545904/12/20211251     3300009237421964250000A11GA400001337200000000000000                                                                               VITAMINA C Tab 500 mgTAB     2
CC0000013887621H202100000556545900000556545904/12/20210819     3300010237421964250000A11GA400001337200000000000000                                                                               VITAMINA C Tab 500 mgTAB     1
CC0000013887621H202100000556545900000556545904/12/20210818     3300010237421964250000A11GA400001337200000000000000                                                                               VITAMINA C Tab 500 mgTAB     5
CC0000013887621H202100000556545900000556545904/12/20210113     3300009237421964250000A11GA400001337200000000000000                                                                               VITAMINA C Tab 500 mgTAB     2
CC0000013887621H202100000556545900000556545904/12/20211251     3300009237421964250000B1AB0100001227270000000000000                                             HEPAMAX 25000UI/5ML(5000UI/ML) SOL INY  CAJ X 25AMPX5MLAMP     1
CC0000013887621H202100000556545900000556545904/12/20210817     3300010237421964250000B1AB0100001227270000000000000                                             HEPAMAX 25000UI/5ML(5000UI/ML) SOL INY  CAJ X 25AMPX5MLAMP     2
CC0000013887621H202100000556545900000556545904/12/20211346    31500555237421964250000E1AB0200000199290000000000000                                                            SOLUCION SALINA 0.9% SLN INY BO X 100 MLBIN    20
CC0000013887621H202100000556545900000556545904/12/20210810    31902940237421964250000E1AB0200000199290000000000000                                                            SOLUCION SALINA 0.9% SLN INY BO X 100 MLBIN    20
CC0000013887621H202100000556545900000556545904/12/20211344    31500555237421964250000E1AD0300000199490000000000000                                         LACTATO RINGER USP (HARTMANN)  SOL INY  BOL X 1000ML BAXTERBIN     4
CC0000013887621H202100000556545900000556545904/12/20212219     3300009237421964250000C01DA100000176460000000000000                                                            NITROGLICERINA EN DEXTROSA VIAL X 250 MLFCO     3
CC0000013887621H202100000556545900000556545904/12/20211251     3300009237421964250000C3CA0200000195520000000000000                                                                           LASIX SLN INY 20 MG/ 2 MLAMP     1
CC0000013887621H202100000556545900000556545904/12/20210821     3300010237421964250000C3CA0200000195520000000000000                                                                           LASIX SLN INY 20 MG/ 2 MLAMP     2
CC0000013887621H202100000556545900000556545904/12/20210819     3300010237421964250000C3CA0200000195520000000000000                                                                           LASIX SLN INY 20 MG/ 2 MLAMP     1
CC0000013887621H202100000556545900000556545904/12/20210113     3300009237421964250000C3CA0200000195520000000000000                                                                           LASIX SLN INY 20 MG/ 2 MLAMP     1
CC0000013887621H202100000556545900000556545904/12/20210817     3300010237421964250000H02AB500001664950000000000000                                                            DEXAMETASONA SLN INY 8 MG/2 ML AMP /CDS/AMP     1
CC0000013887621H202100000556545900000556545904/12/20210821     3300010237421964250000J01D1300001469600000000000000                                                                               POZINEG POLVO INY 1 GVAL     5
CC0000013887621H202100000556545900000556545904/12/20210820     3300010237421964250000J01D1300001469600000000000000                                                                               POZINEG POLVO INY 1 GVAL     1
CC0000013887621H202100000556545900000556545904/12/20212112     3300010237421964250000M3AC0600000720540000000000000                                                                         ESMERON SLN INY 50 MG /5 MLVAL     1
CC0000013887621H202100000556545900000556545904/12/20212220     3300009237421964250000N01A0400003939010000000000000                                               MAYOPROFOL 200MG/20ML(1%) EMUL INY CAJ X 1VIAL X 20MLVAL    17
CC0000013887621H202100000556545900000556545904/12/20212219     3300009237421964250000N01A0400003939010000000000000                                               MAYOPROFOL 200MG/20ML(1%) EMUL INY CAJ X 1VIAL X 20MLVAL     3
CC0000013887621H202100000556545900000556545904/12/20212108     3300009237421964250000N01A0400003939010000000000000                                               MAYOPROFOL 200MG/20ML(1%) EMUL INY CAJ X 1VIAL X 20MLVAL     2
CC0000013887621H202100000556545900000556545904/12/20211251     3300009237421964250000N01A0400003939010000000000000                                               MAYOPROFOL 200MG/20ML(1%) EMUL INY CAJ X 1VIAL X 20MLVAL    10
CC0000013887621H202100000556545900000556545904/12/20210818     3300010237421964250000N01A0400003939010000000000000                                               MAYOPROFOL 200MG/20ML(1%) EMUL INY CAJ X 1VIAL X 20MLVAL    13
CC0000013887621H202100000556545900000556545904/12/20210817     3300010237421964250000N01A0400003939010000000000000                                               MAYOPROFOL 200MG/20ML(1%) EMUL INY CAJ X 1VIAL X 20MLVAL     1
CC0000013887621H202100000556545900000556545904/12/20210113     3300009237421964250000N01A0400003939010000000000000                                               MAYOPROFOL 200MG/20ML(1%) EMUL INY CAJ X 1VIAL X 20MLVAL     4
CC0000013887621H202100000556545900000556545904/12/20210107     3300009237421964250000N01A0400003939010000000000000                                               MAYOPROFOL 200MG/20ML(1%) EMUL INY CAJ X 1VIAL X 20MLVAL     1
CC0000013887621H202100000556545900000556545904/12/20210059     3300009237421964250000N01A0400003939010000000000000                                               MAYOPROFOL 200MG/20ML(1%) EMUL INY CAJ X 1VIAL X 20MLVAL     1
CC0000013887621H202100000556545900000556545904/12/20210821     3300010237421964250000N5AD0500000217620000000000000                                                                         HALOPIDOL Sln Iny 5 mg/1 mlAMP     3
CC0000013887621H202100000556545900000556545904/12/20211251     3300009237421964250000N05A0500001336370000000000000                                                                              SEROQUEL TAB 25 MG /R/TAB     1
CC0000013887621H202100000556545900000556545904/12/20210817     3300010237421964250000N05A0500001336370000000000000                                                                              SEROQUEL TAB 25 MG /R/TAB     2
CC0000013887621H202100000556545900000556545904/12/20210817     3300010237421964250000A11A2200001050880000000000000                                                                 GLUCERNA LIQUIDO 1.5 KCAL X 1000 MLFCO     1
CC0000013887621H202100000556545900000556545904/12/20210852     3300010237421964250000N1AH0200003906560000000000000                                                                     FENTANIL Iny 0.05 mg/ml x 10 mlAMP    10
CC0000013887621H202100000556545900000556545904/12/20211344    31500555237421964250000V07A1300000502600000000000000                                                                                AGUA ESTERIL x 10 mlAMP     5
