TI0001121302704H202100015032648100015032648104/12/20212043    3190115623742196425000022426800001140510000000000000                                                                    EQUIPO MACROGOTEO BAXTER MRC0001SOB     1
RC0001034521434H202100015032648100015032648104/12/20212043    3190115623742196425000022426800001140510000000000000                                                                    EQUIPO MACROGOTEO BAXTER MRC0001SOB     1
CC0000022467890H202100015032648100015032648104/12/20212043    3190115623742196425000011082700001620070000000000000                                                               EQUIPO SET PRIMARIO C/CLAVE REF 14001BOL     1
RC0001125232601H202100015032648100015032648104/12/20212043    3190115623742196425000011082700001620070000000000000                                                               EQUIPO SET PRIMARIO C/CLAVE REF 14001BOL     1
CC0000072297175H202100015032648100015032648104/12/20212043    3190115623742196425000011082700001620070000000000000                                                               EQUIPO SET PRIMARIO C/CLAVE REF 14001BOL     1
RC0001034521434H202100015032648100015032648104/12/20212043    3190115623742196425000011082700001620070000000000000                                                               EQUIPO SET PRIMARIO C/CLAVE REF 14001BOL     1
TI0001121302704H202100015032648100015032648104/12/20212043    3190115623742196425000001956000001620610000000000000                                                                      CONECTOR MICRO CLAVE LAT-MC100SOB     1
CC0000000800641H202100015032648100015032648104/12/20212043    3190115623742196425000001956000001620610000000000000                                                                      CONECTOR MICRO CLAVE LAT-MC100SOB     1
TI0001121302704H202100015032648100015032648104/12/20212043    31901156237421964250000Q1AA7300000610640000000000000                                                            CATETER PERIFE INTROCAN # 22G 4251628-04SIN     1
CC0000000800641H202100015032648100015032648104/12/20212043    31901156237421964250000Q1AA7300000610640000000000000                                                            CATETER PERIFE INTROCAN # 22G 4251628-04SIN     2
TI0001121302704H202100015032648100015032648104/12/20212043    31901156237421964250000Q1AA7400003911720000000000000                                                            CATETER PERIFE INTROCAN # 24G 4251601-04SOB     1
TI0001121302704H202100015032648100015032648104/12/20212043    3190115623742196425000030936900001431840000000000000                                                                                              BURETABOL     1
CC0000022467890H202100015032648100015032648104/12/20212043    3190115623742196425000030936900001431840000000000000                                                                                              BURETABOL     1
RC0001125232601H202100015032648100015032648104/12/20212043    3190115623742196425000030936900001431840000000000000                                                                                              BURETABOL     1
CC0000072297175H202100015032648100015032648104/12/20212043    3190115623742196425000030936900001431840000000000000                                                                                              BURETABOL     1
RC0001034521434H202100015032648100015032648104/12/20212043    3190115623742196425000030936900001431840000000000000                                                                                              BURETABOL     1
TI0001121302704H202100015032648100015032648104/12/20212043    3190115623742196425000000602600001259280000000000000                                                             APOSITO TEGADERM IV PD 1610 5CM X 5.7CMSOB     1
CC0000000800641H202100015032648100015032648104/12/20212043    3190115623742196425000016830000000970620000000000000                                                             SIST FIJACION CAT PERIFERICO 6.5X7 1683SOB     1
RC0001016919305H202100015032648100015032648104/12/20212043    31901156237421964250000E1AD0300000199490000000000000                                         LACTATO RINGER USP (HARTMANN)  SOL INY  BOL X 1000ML BAXTERBIN     1
TI0001121302704H202100015032648100015032648104/12/20212043    31901156237421964250000E1AD0300000199490000000000000                                         LACTATO RINGER USP (HARTMANN)  SOL INY  BOL X 1000ML BAXTERBIN     1
CC0000022479076H202100015032648100015032648104/12/20212043    31901156237421964250000E1AD0300000199490000000000000                                         LACTATO RINGER USP (HARTMANN)  SOL INY  BOL X 1000ML BAXTERBIN     1
CC0000064541334H202100015032648100015032648104/12/20212043    31901156237421964250000E1AD0300000199490000000000000                                         LACTATO RINGER USP (HARTMANN)  SOL INY  BOL X 1000ML BAXTERBIN     1
CC0000057299651H202100015032648100015032648104/12/20212043    31901156237421964250000E1AB0500003888400000000000000                                                              SOLUCION SALINA 0.9% SLN INY X 1000 MLBOL     1
CC0001129571142H202100015032648100015032648104/12/20212043    31901156237421964250000E1AB0500003888400000000000000                                                              SOLUCION SALINA 0.9% SLN INY X 1000 MLBOL     1
CC0001048209605H202100015032648100015032648104/12/20212043    31901156237421964250000E1AB0500003888400000000000000                                                              SOLUCION SALINA 0.9% SLN INY X 1000 MLBOL     2
CC0000022467890H202100015032648100015032648104/12/20212043    31901156237421964250000E1AB0500003888400000000000000                                                              SOLUCION SALINA 0.9% SLN INY X 1000 MLBOL     1
