CC0000057299651H202100015032647900015032647904/12/20211749    3190229623742196425000034366500000269180000000000000                               INSPIROMETRO INCENTIVO RESPIRATORIO CAJ X 1 RSB BN EXENTO-DC.417/2020CAJ     1
RC0001043476962H202100015032647900015032647904/12/20211749    3190229623742196425000043995200000229010000000000000                                                               HUMIDIFICADOR PARA OXIGENO REF. H001BBOL     1
RC0001043476962H202100015032647900015032647904/12/20211749    31902296237421964250000Q1A11800000258040000000000000                                                                         CANULA OXIGENO NASAL PEDIATSIN     1
