RC0001048091909H202100015132527800015132527804/12/20210807    3190311723742196425000038568200000257000000000000000                                                                                   SONDA NELATON #06SIN     2
RC0001143474189H202100015132527800015132527804/12/20210807    3190311723742196425000035356500003919000000000000000                                                                                        LLAVE 3 VIASSOB     2
RC0001047065603H202100015132527800015132527804/12/20210807    3190311723742196425000035356500003919000000000000000                                                                                        LLAVE 3 VIASSOB     2
RC0001044236218H202100015132527800015132527804/12/20210807    3190311723742196425000035356500003919000000000000000                                                                                        LLAVE 3 VIASSOB     2
RC0001044436459H202100015132527800015132527804/12/20210807    3190311723742196425000035356500003919000000000000000                                                                                        LLAVE 3 VIASSOB     2
RC0001048091952H202100015132527800015132527804/12/20210807    3190311723742196425000035356500003919000000000000000                                                                                        LLAVE 3 VIASSOB     2
RC0001194984572H202100015132527800015132527804/12/20210807    3190311723742196425000045136100001419300000000000000                                                                            LANCETA DEXTROMETER X UNPZA     2
RC0001143474189H202100015132527800015132527804/12/20210807    3190311723742196425000045136100001419300000000000000                                                                            LANCETA DEXTROMETER X UNPZA     2
RC0001048091909H202100015132527800015132527804/12/20210807    3190311723742196425000045136100001419300000000000000                                                                            LANCETA DEXTROMETER X UNPZA     2
RC0001146846680H202100015132527800015132527804/12/20210807    3190311723742196425000045136100001419300000000000000                                                                            LANCETA DEXTROMETER X UNPZA     2
RC0001146546681H202100015132527800015132527804/12/20210807    3190311723742196425000045136100001419300000000000000                                                                            LANCETA DEXTROMETER X UNPZA     2
NV0000170258691H202100015132527800015132527804/12/20210807    3190311723742196425000045136100001419300000000000000                                                                            LANCETA DEXTROMETER X UNPZA     2
RC0001143474190H202100015132527800015132527804/12/20210807    3190311723742196425000045136100001419300000000000000                                                                            LANCETA DEXTROMETER X UNPZA     2
RC0001047065603H202100015132527800015132527804/12/20210807    3190311723742196425000045136100001419300000000000000                                                                            LANCETA DEXTROMETER X UNPZA     2
RC0001044236218H202100015132527800015132527804/12/20210807    3190311723742196425000045136100001419300000000000000                                                                            LANCETA DEXTROMETER X UNPZA     2
RC0001048092074H202100015132527800015132527804/12/20210807    3190311723742196425000045136100001419300000000000000                                                                            LANCETA DEXTROMETER X UNPZA     2
RC0001047065574H202100015132527800015132527804/12/20210807    3190311723742196425000045136100001419300000000000000                                                                            LANCETA DEXTROMETER X UNPZA     2
RC0001044436459H202100015132527800015132527804/12/20210807    3190311723742196425000045136100001419300000000000000                                                                            LANCETA DEXTROMETER X UNPZA     2
RC0001048091952H202100015132527800015132527804/12/20210807    3190311723742196425000045136100001419300000000000000                                                                            LANCETA DEXTROMETER X UNPZA     2
RC0001143474189H202100015132527800015132527804/12/20210807    3190311723742196425000011048600000223020000000000000                                                                 JERINGA VACUNACION 3ML C/AGU 302542SIN     5
RC0001048091909H202100015132527800015132527804/12/20210807    3190311723742196425000011048600000223020000000000000                                                                 JERINGA VACUNACION 3ML C/AGU 302542SIN     5
RC0001146846680H202100015132527800015132527804/12/20210807    3190311723742196425000011048600000223020000000000000                                                                 JERINGA VACUNACION 3ML C/AGU 302542SIN     5
RC0001146546681H202100015132527800015132527804/12/20210807    3190311723742196425000011048600000223020000000000000                                                                 JERINGA VACUNACION 3ML C/AGU 302542SIN     5
RC0001143474190H202100015132527800015132527804/12/20210807    3190311723742196425000011048600000223020000000000000                                                                 JERINGA VACUNACION 3ML C/AGU 302542SIN     5
RC0001044236218H202100015132527800015132527804/12/20210807    3190311723742196425000011048600000223020000000000000                                                                 JERINGA VACUNACION 3ML C/AGU 302542SIN     5
RC0001048092074H202100015132527800015132527804/12/20210807    3190311723742196425000011048600000223020000000000000                                                                 JERINGA VACUNACION 3ML C/AGU 302542SIN     5
RC0001044436459H202100015132527800015132527804/12/20210807    3190311723742196425000011048600000223020000000000000                                                                 JERINGA VACUNACION 3ML C/AGU 302542SIN     5
RC0001048091952H202100015132527800015132527804/12/20210807    3190311723742196425000011048600000223020000000000000                                                                 JERINGA VACUNACION 3ML C/AGU 302542SIN     5
RC0001143474189H202100015132527800015132527804/12/20210807    3190311723742196425000024674000001138340000000000000   JERINGA 3PARTES C/A 10ML REF JEHL005 CAJ X 100 ALFASAFE  21GX1 PULG 1/2 PULG BN EXENTO-DC.417/202PZA     5
RC0001048091909H202100015132527800015132527804/12/20210807    3190311723742196425000024674000001138340000000000000   JERINGA 3PARTES C/A 10ML REF JEHL005 CAJ X 100 ALFASAFE  21GX1 PULG 1/2 PULG BN EXENTO-DC.417/202PZA     5
RC0001146846680H202100015132527800015132527804/12/20210807    3190311723742196425000024674000001138340000000000000   JERINGA 3PARTES C/A 10ML REF JEHL005 CAJ X 100 ALFASAFE  21GX1 PULG 1/2 PULG BN EXENTO-DC.417/202PZA     2
RC0001146546681H202100015132527800015132527804/12/20210807    3190311723742196425000024674000001138340000000000000   JERINGA 3PARTES C/A 10ML REF JEHL005 CAJ X 100 ALFASAFE  21GX1 PULG 1/2 PULG BN EXENTO-DC.417/202PZA     2
RC0001143474190H202100015132527800015132527804/12/20210807    3190311723742196425000024674000001138340000000000000   JERINGA 3PARTES C/A 10ML REF JEHL005 CAJ X 100 ALFASAFE  21GX1 PULG 1/2 PULG BN EXENTO-DC.417/202PZA     5
RC0001044236218H202100015132527800015132527804/12/20210807    3190311723742196425000024674000001138340000000000000   JERINGA 3PARTES C/A 10ML REF JEHL005 CAJ X 100 ALFASAFE  21GX1 PULG 1/2 PULG BN EXENTO-DC.417/202PZA     5
RC0001048092074H202100015132527800015132527804/12/20210807    3190311723742196425000024674000001138340000000000000   JERINGA 3PARTES C/A 10ML REF JEHL005 CAJ X 100 ALFASAFE  21GX1 PULG 1/2 PULG BN EXENTO-DC.417/202PZA     5
RC0001044436459H202100015132527800015132527804/12/20210807    3190311723742196425000024674000001138340000000000000   JERINGA 3PARTES C/A 10ML REF JEHL005 CAJ X 100 ALFASAFE  21GX1 PULG 1/2 PULG BN EXENTO-DC.417/202PZA    10
RC0001048091952H202100015132527800015132527804/12/20210807    3190311723742196425000024674000001138340000000000000   JERINGA 3PARTES C/A 10ML REF JEHL005 CAJ X 100 ALFASAFE  21GX1 PULG 1/2 PULG BN EXENTO-DC.417/202PZA    10
RC0001143474189H202100015132527800015132527804/12/20210807    3190311723742196425000011047900000223010000000000000                                                                            JERINGA X 1ML REF 302579SIN     4
RC0001048091909H202100015132527800015132527804/12/20210807    3190311723742196425000011047900000223010000000000000                                                                            JERINGA X 1ML REF 302579SIN     4
RC0001146846680H202100015132527800015132527804/12/20210807    3190311723742196425000011047900000223010000000000000                                                                            JERINGA X 1ML REF 302579SIN     4
RC0001146546681H202100015132527800015132527804/12/20210807    3190311723742196425000011047900000223010000000000000                                                                            JERINGA X 1ML REF 302579SIN     4
RC0001143474190H202100015132527800015132527804/12/20210807    3190311723742196425000011047900000223010000000000000                                                                            JERINGA X 1ML REF 302579SIN     4
RC0001044236218H202100015132527800015132527804/12/20210807    3190311723742196425000011047900000223010000000000000                                                                            JERINGA X 1ML REF 302579SIN     4
RC0001048092074H202100015132527800015132527804/12/20210807    3190311723742196425000011047900000223010000000000000                                                                            JERINGA X 1ML REF 302579SIN     4
RC0001044436459H202100015132527800015132527804/12/20210807    3190311723742196425000011047900000223010000000000000                                                                            JERINGA X 1ML REF 302579SIN     4
RC0001048091952H202100015132527800015132527804/12/20210807    3190311723742196425000011047900000223010000000000000                                                                            JERINGA X 1ML REF 302579SIN     4
RC0001143474189H202100015132527800015132527804/12/20210807    3190311723742196425000043485100001618510000000000000                GUANTE QUIRURGICO DE LATEX REF 2D72N65X CAJ X 50 PROTEXIS  6.5 BN EXENTO-DC.417/2020SOB     5
RC0001044236218H202100015132527800015132527804/12/20210807    3190311723742196425000043485100001618510000000000000                GUANTE QUIRURGICO DE LATEX REF 2D72N65X CAJ X 50 PROTEXIS  6.5 BN EXENTO-DC.417/2020SOB     5
RC0001044436459H202100015132527800015132527804/12/20210807    3190311723742196425000043485100001618510000000000000                GUANTE QUIRURGICO DE LATEX REF 2D72N65X CAJ X 50 PROTEXIS  6.5 BN EXENTO-DC.417/2020SOB     5
RC0001048091952H202100015132527800015132527804/12/20210807    3190311723742196425000043485100001618510000000000000                GUANTE QUIRURGICO DE LATEX REF 2D72N65X CAJ X 50 PROTEXIS  6.5 BN EXENTO-DC.417/2020SOB     5
RC0001044436459H202100015132527800015132527804/12/20210807    3190311723742196425000013077800000471960000000000000                                                             GASA NO TEJIDA EST 7.5 X 7.5 SOB X 3 UNSOB     8
RC0001048091952H202100015132527800015132527804/12/20210807    3190311723742196425000013077800000471960000000000000                                                             GASA NO TEJIDA EST 7.5 X 7.5 SOB X 3 UNSOB     5
NV0000170258691H202100015132527800015132527804/12/20210807    3190311723742196425000001956000001620610000000000000                                                                      CONECTOR MICRO CLAVE LAT-MC100SOB     1
NV0000170258691H202100015132527800015132527804/12/20210807    31903117237421964250000Q1AA7400003911720000000000000                                                            CATETER PERIFE INTROCAN # 24G 4251601-04SOB     2
NV0000170258691H202100015132527800015132527804/12/20210807    3190311723742196425000000602600001259280000000000000                                                             APOSITO TEGADERM IV PD 1610 5CM X 5.7CMSOB     1
RC0001048091909H202100015132527800015132527804/12/20210807    31903117237421964250000E1AA1400003888550000000000000                                                                         DEXTROSA 10% SLN INY 250 MLBOL     1
NV0000170258691H202100015132527800015132527804/12/20210807    31903117237421964250000E1AA1400003888550000000000000                                                                         DEXTROSA 10% SLN INY 250 MLBOL     1
RC0001048091909H202100015132527800015132527804/12/20210807    31903117237421964250000E1AB0200000199290000000000000                                                            SOLUCION SALINA 0.9% SLN INY BO X 100 MLBIN     2
RC0001048092074H202100015132527800015132527804/12/20210807    31903117237421964250000E1AB0200000199290000000000000                                                            SOLUCION SALINA 0.9% SLN INY BO X 100 MLBIN     2
RC0001048091952H202100015132527800015132527804/12/20210807    31903117237421964250000E1AA0100003888590000000000000                                                                        DEXTROSA 5% Sln Iny X 500 mlBOL     1
RC0001048091909H202100015132527800015132527804/12/20210807    31903117237421964250000E1AA0200000198980000000000000                                                                          DEXTROSA 5% Sln Iny 100 mlBIN     1
RC0001194984572H202100015132527800015132527804/12/20210807    3190311723742196425000011137100001419310000000000000                                                               TIRA GLUCOMETRIA FREESTYLE H OPTIUM .PZA     2
RC0001143474189H202100015132527800015132527804/12/20210807    3190311723742196425000011137100001419310000000000000                                                               TIRA GLUCOMETRIA FREESTYLE H OPTIUM .PZA     2
RC0001048091909H202100015132527800015132527804/12/20210807    3190311723742196425000011137100001419310000000000000                                                               TIRA GLUCOMETRIA FREESTYLE H OPTIUM .PZA     2
RC0001146846680H202100015132527800015132527804/12/20210807    3190311723742196425000011137100001419310000000000000                                                               TIRA GLUCOMETRIA FREESTYLE H OPTIUM .PZA     2
RC0001146546681H202100015132527800015132527804/12/20210807    3190311723742196425000011137100001419310000000000000                                                               TIRA GLUCOMETRIA FREESTYLE H OPTIUM .PZA     2
NV0000170258691H202100015132527800015132527804/12/20210807    3190311723742196425000011137100001419310000000000000                                                               TIRA GLUCOMETRIA FREESTYLE H OPTIUM .PZA     2
RC0001143474190H202100015132527800015132527804/12/20210807    3190311723742196425000011137100001419310000000000000                                                               TIRA GLUCOMETRIA FREESTYLE H OPTIUM .PZA     2
RC0001047065603H202100015132527800015132527804/12/20210807    3190311723742196425000011137100001419310000000000000                                                               TIRA GLUCOMETRIA FREESTYLE H OPTIUM .PZA     2
RC0001044236218H202100015132527800015132527804/12/20210807    3190311723742196425000011137100001419310000000000000                                                               TIRA GLUCOMETRIA FREESTYLE H OPTIUM .PZA     2
RC0001048092074H202100015132527800015132527804/12/20210807    3190311723742196425000011137100001419310000000000000                                                               TIRA GLUCOMETRIA FREESTYLE H OPTIUM .PZA     2
RC0001047065574H202100015132527800015132527804/12/20210807    3190311723742196425000011137100001419310000000000000                                                               TIRA GLUCOMETRIA FREESTYLE H OPTIUM .PZA     2
RC0001044436459H202100015132527800015132527804/12/20210807    3190311723742196425000011137100001419310000000000000                                                               TIRA GLUCOMETRIA FREESTYLE H OPTIUM .PZA     2
RC0001048091952H202100015132527800015132527804/12/20210807    3190311723742196425000011137100001419310000000000000                                                               TIRA GLUCOMETRIA FREESTYLE H OPTIUM .PZA     2
