TI0001043150175U202100050131914800050131914804/12/20211451    3190101023942196432000011048600000223020000000000000                                                                 JERINGA VACUNACION 3ML C/AGU 302542SIN     1
CC0001102861537U202100050131914800050131914804/12/20211451    3190101023942196432000001956000001620610000000000000                                                                      CONECTOR MICRO CLAVE LAT-MC100SOB     1
CC0001102861537U202100050131914800050131914804/12/20211451    31901010239421964320000Q1AA7100000610620000000000000                                                            CATETER PERIFE INTROCAN # 18G 4251687-04SIN     1
CC0001102861537U202100050131914800050131914804/12/20211451    3190101023942196432000016830000000970620000000000000                                                             SIST FIJACION CAT PERIFERICO 6.5X7 1683SOB     1
