CC0000022352292A202100000027832600000027832604/12/20211218    3190333624042196419000016830000000970620000000000000                                                             SIST FIJACION CAT PERIFERICO 6.5X7 1683SOB     1
CC0000022352292A202100000027832600000027832604/12/20211218    3190333624042196419000043879200001138180000000000000                                                                                   HOJA BISTURI # 11SOB     1
CC0000022352292A202100000027832600000027832604/12/20211218    3190333624042196419000018351500000232840000000000000                                                                                    SEDA 2-0 KS 623HSIN     1
CC0000022352292A202100000027832600000027832604/12/20211218    3190333624042196419000021193900000227540000000000000                                                              CATETER BILUME GARD ADULT 7F*20 26702ESIN     1
CC0000022352292A202100000027832600000027832604/12/20211218    3190333624042196419000020750600000296780000000000000                                                                PLACA ELECTRO RETORNO PACIENTE E7506SIN     1
CC0000022352292A202100000027832600000027832604/12/20211218    3190333624042196419000038568100000258050000000000000                                                                         CANULA OXIGENO NASAL ADULTOSIN     1
CC0000022352292A202100000027832600000027832604/12/20211218    3190333624042196419000053074400000607910000000000000                                                               GASA ESTERIL 10*10 SOBRE X 3 UNIDADESSOB     3
CC0000022352292A202100000027832600000027832604/12/20211218    3190333624042196419000011085200001585390000000000000                                                                       GUANTE QUIRURGICO TALLA 7 1/2SOB     1
CC0000022352292A202100000027832600000027832604/12/20211218    3190333624042196419000043485100001618510000000000000                GUANTE QUIRURGICO DE LATEX REF 2D72N65X CAJ X 50 PROTEXIS  6.5 BN EXENTO-DC.417/2020SOB     2
CC0000022352292A202100000027832600000027832604/12/20211218    3190333624042196419000024674000001138340000000000000   JERINGA 3PARTES C/A 10ML REF JEHL005 CAJ X 100 ALFASAFE  21GX1 PULG 1/2 PULG BN EXENTO-DC.417/202PZA     1
CC0000022352292A202100000027832600000027832604/12/20211218    31903336240421964190000E1AB0700003888350000000000000                                                            SOLUCION SALINA 0.9% SLN INY BO X 250 MLBOL     1
CC0000022352292A202100000027832600000027832604/12/20211218    31903336240421964190000N01B0200003888110000000000000                                           ROXICAINA SE 100MG/10ML(1%) SOL INY CAJ X 24AMPACK X 10MLAPC     1
CC0000022352292A202100000027832600000027832604/12/20211218    31903336240421964190000N1AH0200003906560000000000000                                                                     FENTANIL Iny 0.05 mg/ml x 10 mlAMP     1
