CC0000000800641H202100000556543900000556543904/12/20211044     3300009237421964250000S01AA600001127850000000000000                                                              DEXAMETAS-TOBRAMICINA OFT 1mg + 3mg/V/FCO     1
CC0000000800641H202100000556543900000556543904/12/20211006     3300009237421964250000A2BC0900000200150000000000000                                                                               ORAZOLE Sln Iny 40 mgCIN     1
CC0000000800641H202100000556543900000556543904/12/20210001     3300009237421964250000B1AB0200003939510000000000000                 ENOXAPARINA SODICA 40MG/0.4ML(100MG/ML) SOL INY INST CAJ X 2JERPREL X 0.4ML TECHDOWJRP     1
CC0000000800641H202100000556543900000556543904/12/20211654    31902296237421964250000E1AB0200000199290000000000000                                                            SOLUCION SALINA 0.9% SLN INY BO X 100 MLBIN     1
CC0000000800641H202100000556543900000556543904/12/20211715    31902409237421964250000E1AD0200003888320000000000000                                                                              HARTMAN SLN INY 500 MLBOL     1
CC0000000800641H202100000556543900000556543904/12/20211006     3300009237421964250000N03AG200001590870000000000000                                                            PROVALNOVA SLN INY 100MG/ML VIALX5ML /R/VAL     1
CC0000000800641H202100000556543900000556543904/12/20211006     3300009237421964250000N03AX200001063780000000000000                                                                      KEPPRA SLN INY 500 MG/5 ML /R/VAL     1
CC0000000800641H202100000556543900000556543904/12/20211006     3300009237421964250000A11A2200001050880000000000000                                                                 GLUCERNA LIQUIDO 1.5 KCAL X 1000 MLFCO     1
CC0000000800641H202100000556543900000556543904/12/20211005     3300009237421964250000B05B2500001052320000000000000                                                                     PERIOLIMEL BOLSA X 1500 ML (N4)BOL     1
CC0000000800641H202100000556543900000556543904/12/20211334    31903290237421964250000V07A1300000502600000000000000                                                                                AGUA ESTERIL x 10 mlAMP     3
