RC0001046732332U202100050131911700050131911704/12/20210953    3190296823942196432000012475500000232250000000000000                                                                 SUTURA ETHILON 5-0 PS-2 45CM P1666TSIN     1
RC0001046732332U202100050131911700050131911704/12/20210953    3190296823942196432000011048600000223020000000000000                                                                 JERINGA VACUNACION 3ML C/AGU 302542SIN     1
RC0001046732332U202100050131911700050131911704/12/20210953    3190296823942196432000011047900000223010000000000000                                                                            JERINGA X 1ML REF 302579SIN     1
RC0001046732332U202100050131911700050131911704/12/20210953    3190296823942196432000043485100001618510000000000000                GUANTE QUIRURGICO DE LATEX REF 2D72N65X CAJ X 50 PROTEXIS  6.5 BN EXENTO-DC.417/2020SOB     1
RC0001046732332U202100050131911700050131911704/12/20210953    3190296823942196432000013077800000471960000000000000                                                             GASA NO TEJIDA EST 7.5 X 7.5 SOB X 3 UNSOB     5
RC0001046732332U202100050131911700050131911704/12/20210953    31902968239421964320000E1AB0200000199290000000000000                                                            SOLUCION SALINA 0.9% SLN INY BO X 100 MLBIN     1
