RC0001044436459H202100015132528200015132528204/12/20211619    3190315323742196425000024675000001585130000000000000                                                                    JERINGA DESECHABLE 50 ml S/AGUJASOB     6
RC0001044236218H202100015132528200015132528204/12/20211619    3190315323742196425000024675000001585130000000000000                                                                    JERINGA DESECHABLE 50 ml S/AGUJASOB     6
RC0001047065603H202100015132528200015132528204/12/20211619    3190315323742196425000024675000001585130000000000000                                                                    JERINGA DESECHABLE 50 ml S/AGUJASOB     6
RC0001143474189H202100015132528200015132528204/12/20211619    3190315323742196425000024675000001585130000000000000                                                                    JERINGA DESECHABLE 50 ml S/AGUJASOB     6
RC0001048091952H202100015132528200015132528204/12/20211619    3190315323742196425000024675000001585130000000000000                                                                    JERINGA DESECHABLE 50 ml S/AGUJASOB     6
RC0001044436459H202100015132528200015132528204/12/20211619    3190315323742196425000024674500000322810000000000000                                                                   JERINGA DESECHABLE 20 ml 21*1 1/2SIN     6
RC0001044236218H202100015132528200015132528204/12/20211619    3190315323742196425000024674500000322810000000000000                                                                   JERINGA DESECHABLE 20 ml 21*1 1/2SIN     6
RC0001047065603H202100015132528200015132528204/12/20211619    3190315323742196425000024674500000322810000000000000                                                                   JERINGA DESECHABLE 20 ml 21*1 1/2SIN     6
RC0001143474189H202100015132528200015132528204/12/20211619    3190315323742196425000024674500000322810000000000000                                                                   JERINGA DESECHABLE 20 ml 21*1 1/2SIN     6
RC0001048091952H202100015132528200015132528204/12/20211619    3190315323742196425000024674500000322810000000000000                                                                   JERINGA DESECHABLE 20 ml 21*1 1/2SIN     6
RC0001044436459H202100015132528200015132528204/12/20211619    3190315323742196425000024674000001138340000000000000   JERINGA 3PARTES C/A 10ML REF JEHL005 CAJ X 100 ALFASAFE  21GX1 PULG 1/2 PULG BN EXENTO-DC.417/202PZA     6
RC0001044236218H202100015132528200015132528204/12/20211619    3190315323742196425000024674000001138340000000000000   JERINGA 3PARTES C/A 10ML REF JEHL005 CAJ X 100 ALFASAFE  21GX1 PULG 1/2 PULG BN EXENTO-DC.417/202PZA     6
RC0001047065603H202100015132528200015132528204/12/20211619    3190315323742196425000024674000001138340000000000000   JERINGA 3PARTES C/A 10ML REF JEHL005 CAJ X 100 ALFASAFE  21GX1 PULG 1/2 PULG BN EXENTO-DC.417/202PZA     6
RC0001143474189H202100015132528200015132528204/12/20211619    3190315323742196425000024674000001138340000000000000   JERINGA 3PARTES C/A 10ML REF JEHL005 CAJ X 100 ALFASAFE  21GX1 PULG 1/2 PULG BN EXENTO-DC.417/202PZA     6
RC0001048091952H202100015132528200015132528204/12/20211619    3190315323742196425000024674000001138340000000000000   JERINGA 3PARTES C/A 10ML REF JEHL005 CAJ X 100 ALFASAFE  21GX1 PULG 1/2 PULG BN EXENTO-DC.417/202PZA     6
RC0001044436459H202100015132528200015132528204/12/20211619    3190315323742196425000011085400001083360000000000000                                                                       GUANTE QUIRURGICO TALLA 8 1/2SOB     4
RC0001044236218H202100015132528200015132528204/12/20211619    3190315323742196425000011085400001083360000000000000                                                                       GUANTE QUIRURGICO TALLA 8 1/2SOB     4
RC0001047065603H202100015132528200015132528204/12/20211619    3190315323742196425000011085400001083360000000000000                                                                       GUANTE QUIRURGICO TALLA 8 1/2SOB     4
RC0001143474189H202100015132528200015132528204/12/20211619    3190315323742196425000011085400001083360000000000000                                                                       GUANTE QUIRURGICO TALLA 8 1/2SOB     4
RC0001048091952H202100015132528200015132528204/12/20211619    3190315323742196425000011085400001083360000000000000                                                                       GUANTE QUIRURGICO TALLA 8 1/2SOB     4
RC0001044436459H202100015132528200015132528204/12/20211619    3190315323742196425000013077800000471960000000000000                                                             GASA NO TEJIDA EST 7.5 X 7.5 SOB X 3 UNSOB     8
RC0001044236218H202100015132528200015132528204/12/20211619    3190315323742196425000013077800000471960000000000000                                                             GASA NO TEJIDA EST 7.5 X 7.5 SOB X 3 UNSOB     8
RC0001047065603H202100015132528200015132528204/12/20211619    3190315323742196425000013077800000471960000000000000                                                             GASA NO TEJIDA EST 7.5 X 7.5 SOB X 3 UNSOB     8
RC0001143474189H202100015132528200015132528204/12/20211619    3190315323742196425000013077800000471960000000000000                                                             GASA NO TEJIDA EST 7.5 X 7.5 SOB X 3 UNSOB     8
RC0001048091952H202100015132528200015132528204/12/20211619    3190315323742196425000013077800000471960000000000000                                                             GASA NO TEJIDA EST 7.5 X 7.5 SOB X 3 UNSOB     8
RC0001044436459H202100015132528200015132528204/12/20211619    3190315323742196425000011082900001233450000000000000                                                               EQUIPO LC 5000 PRIMARIO FOTOPRO 0L218SOB     6
RC0001044236218H202100015132528200015132528204/12/20211619    3190315323742196425000011082900001233450000000000000                                                               EQUIPO LC 5000 PRIMARIO FOTOPRO 0L218SOB     6
RC0001047065603H202100015132528200015132528204/12/20211619    3190315323742196425000011082900001233450000000000000                                                               EQUIPO LC 5000 PRIMARIO FOTOPRO 0L218SOB     6
RC0001143474189H202100015132528200015132528204/12/20211619    3190315323742196425000011082900001233450000000000000                                                               EQUIPO LC 5000 PRIMARIO FOTOPRO 0L218SOB     6
RC0001048091952H202100015132528200015132528204/12/20211619    3190315323742196425000011082900001233450000000000000                                                               EQUIPO LC 5000 PRIMARIO FOTOPRO 0L218SOB     6
RC0001044436459H202100015132528200015132528204/12/20211619    31903153237421964250000Q1AA7600000543420000000000000                                                             BOLSA VACIA EVA R HRB8102P BAXTER 150MLBIN     6
RC0001044236218H202100015132528200015132528204/12/20211619    31903153237421964250000Q1AA7600000543420000000000000                                                             BOLSA VACIA EVA R HRB8102P BAXTER 150MLBIN     6
RC0001047065603H202100015132528200015132528204/12/20211619    31903153237421964250000Q1AA7600000543420000000000000                                                             BOLSA VACIA EVA R HRB8102P BAXTER 150MLBIN     6
RC0001143474189H202100015132528200015132528204/12/20211619    31903153237421964250000Q1AA7600000543420000000000000                                                             BOLSA VACIA EVA R HRB8102P BAXTER 150MLBIN     6
RC0001048091952H202100015132528200015132528204/12/20211619    31903153237421964250000Q1AA7600000543420000000000000                                                             BOLSA VACIA EVA R HRB8102P BAXTER 150MLBIN     4
RC0001048091952H202100015132528200015132528204/12/20211619    31903153237421964250000Q1BB0100000236920000000000000                                                             BOLSA EVA NPT PINNACLE X 500 ML 2112347BOL     2
RC0001044436459H202100015132528200015132528204/12/20211619    3190315323742196425000000100600000223090000000000000                                                                      AGUJA DESECHABLE 18G X 1 1/2 PSIN     8
RC0001044236218H202100015132528200015132528204/12/20211619    3190315323742196425000000100600000223090000000000000                                                                      AGUJA DESECHABLE 18G X 1 1/2 PSIN     8
RC0001047065603H202100015132528200015132528204/12/20211619    3190315323742196425000000100600000223090000000000000                                                                      AGUJA DESECHABLE 18G X 1 1/2 PSIN     8
RC0001143474189H202100015132528200015132528204/12/20211619    3190315323742196425000000100600000223090000000000000                                                                      AGUJA DESECHABLE 18G X 1 1/2 PSIN     8
RC0001048091952H202100015132528200015132528204/12/20211619    3190315323742196425000000100600000223090000000000000                                                                      AGUJA DESECHABLE 18G X 1 1/2 PSIN     8
