TI0001047048202U202100050131918900050131918904/12/20212033    3190098223942196432000011082700001620070000000000000                                                               EQUIPO SET PRIMARIO C/CLAVE REF 14001BOL     1
TI0001047048202U202100050131918900050131918904/12/20212033    3190098223942196432000030936900001431840000000000000                                                                                              BURETABOL     1
TI0001047048202U202100050131918900050131918904/12/20212033    3190098223942196432000016830000000970620000000000000                                                             SIST FIJACION CAT PERIFERICO 6.5X7 1683SOB     1
TI0001047048202U202100050131918900050131918904/12/20212033    31900982239421964320000E1AD0300000199490000000000000                                         LACTATO RINGER USP (HARTMANN)  SOL INY  BOL X 1000ML BAXTERBIN     1
TI0001047048202U202100050131918900050131918904/12/20212033    31900982239421964320000E1AD0200003888320000000000000                                                                              HARTMAN SLN INY 500 MLBOL     1
