CC0000013887621H202100015112735500015112735504/12/20210723    31500555237421964250000V07A1300000502600000000000000                                                                                AGUA ESTERIL x 10 mlAMP     5
CC0001129564191H202100015112735500015112735504/12/20210723    31500555237421964250000V07A1300000502600000000000000                                                                                AGUA ESTERIL x 10 mlAMP     5
CC0001143115732H202100015112735500015112735504/12/20210723    31500555237421964250000V07A1300000502600000000000000                                                                                AGUA ESTERIL x 10 mlAMP     5
PE0082549771210H202100015112735500015112735504/12/20210723    31500555237421964250000V07A1300000502600000000000000                                                                                AGUA ESTERIL x 10 mlAMP     5
CC0000013887621H202100015112735500015112735504/12/20210723    3150055523742196425000045136100001419300000000000000                                                                            LANCETA DEXTROMETER X UNPZA     4
CC0001129564191H202100015112735500015112735504/12/20210723    3150055523742196425000045136100001419300000000000000                                                                            LANCETA DEXTROMETER X UNPZA     4
CC0001143115732H202100015112735500015112735504/12/20210723    3150055523742196425000045136100001419300000000000000                                                                            LANCETA DEXTROMETER X UNPZA     3
PE0082549771210H202100015112735500015112735504/12/20210723    3150055523742196425000045136100001419300000000000000                                                                            LANCETA DEXTROMETER X UNPZA     3
PE0082549771210H202100015112735500015112735504/12/20210723    3150055523742196425000000102400001411250000000000000                                                                           JERINGA DESECHABLE X 50MLSOB     1
CC0000013887621H202100015112735500015112735504/12/20210723    3150055523742196425000024674000001138340000000000000   JERINGA 3PARTES C/A 10ML REF JEHL005 CAJ X 100 ALFASAFE  21GX1 PULG 1/2 PULG BN EXENTO-DC.417/202PZA    15
CC0001129564191H202100015112735500015112735504/12/20210723    3150055523742196425000024674000001138340000000000000   JERINGA 3PARTES C/A 10ML REF JEHL005 CAJ X 100 ALFASAFE  21GX1 PULG 1/2 PULG BN EXENTO-DC.417/202PZA    15
CC0001143115732H202100015112735500015112735504/12/20210723    3150055523742196425000024674000001138340000000000000   JERINGA 3PARTES C/A 10ML REF JEHL005 CAJ X 100 ALFASAFE  21GX1 PULG 1/2 PULG BN EXENTO-DC.417/202PZA    10
PE0082549771210H202100015112735500015112735504/12/20210723    3150055523742196425000024674000001138340000000000000   JERINGA 3PARTES C/A 10ML REF JEHL005 CAJ X 100 ALFASAFE  21GX1 PULG 1/2 PULG BN EXENTO-DC.417/202PZA    10
CC0000013887621H202100015112735500015112735504/12/20210723    31500555237421964250000Q1A13500001585200000000000000                        JERINGA PUNTA CAT SIN AGUJA REF 309620 CAJ X 40   50ML BN EXENTO-DC.417/2020SOB     1
CC0001129564191H202100015112735500015112735504/12/20210723    31500555237421964250000Q1A13500001585200000000000000                        JERINGA PUNTA CAT SIN AGUJA REF 309620 CAJ X 40   50ML BN EXENTO-DC.417/2020SOB     1
CC0001129564191H202100015112735500015112735504/12/20210723    3150055523742196425000021221000000226640000000000000                                                                                 CARTUCHO ACT 402-03PZA    15
CC0000013887621H202100015112735500015112735504/12/20210723    3150055523742196425000020056600001101530000000000000                                                                AGUJA HIPODERMICA DESECH 18G X 1 1/2SOB     5
CC0001129564191H202100015112735500015112735504/12/20210723    3150055523742196425000020056600001101530000000000000                                                                AGUJA HIPODERMICA DESECH 18G X 1 1/2SOB     5
PE0082549771210H202100015112735500015112735504/12/20210723    3150055523742196425000020056600001101530000000000000                                                                AGUJA HIPODERMICA DESECH 18G X 1 1/2SOB     5
CC0000013887621H202100015112735500015112735504/12/20210723    31500555237421964250000E1AD0300000199490000000000000                                         LACTATO RINGER USP (HARTMANN)  SOL INY  BOL X 1000ML BAXTERBIN     4
CC0001129564191H202100015112735500015112735504/12/20210723    31500555237421964250000E1AD0300000199490000000000000                                         LACTATO RINGER USP (HARTMANN)  SOL INY  BOL X 1000ML BAXTERBIN     4
CC0001143115732H202100015112735500015112735504/12/20210723    31500555237421964250000E1AD0300000199490000000000000                                         LACTATO RINGER USP (HARTMANN)  SOL INY  BOL X 1000ML BAXTERBIN     3
PE0082549771210H202100015112735500015112735504/12/20210723    31500555237421964250000E1AB0500003888400000000000000                                                              SOLUCION SALINA 0.9% SLN INY X 1000 MLBOL     6
CC0000013887621H202100015112735500015112735504/12/20210723    31500555237421964250000E1AB0200000199290000000000000                                                            SOLUCION SALINA 0.9% SLN INY BO X 100 MLBIN    20
CC0001129564191H202100015112735500015112735504/12/20210723    31500555237421964250000E1AB0200000199290000000000000                                                            SOLUCION SALINA 0.9% SLN INY BO X 100 MLBIN    20
CC0001143115732H202100015112735500015112735504/12/20210723    31500555237421964250000E1AB0200000199290000000000000                                                            SOLUCION SALINA 0.9% SLN INY BO X 100 MLBIN    10
PE0082549771210H202100015112735500015112735504/12/20210723    31500555237421964250000E1AB0200000199290000000000000                                                            SOLUCION SALINA 0.9% SLN INY BO X 100 MLBIN    10
CC0000013887621H202100015112735500015112735504/12/20210723    3150055523742196425000011137100001419310000000000000                                                               TIRA GLUCOMETRIA FREESTYLE H OPTIUM .PZA     4
CC0001129564191H202100015112735500015112735504/12/20210723    3150055523742196425000011137100001419310000000000000                                                               TIRA GLUCOMETRIA FREESTYLE H OPTIUM .PZA     4
CC0001143115732H202100015112735500015112735504/12/20210723    3150055523742196425000011137100001419310000000000000                                                               TIRA GLUCOMETRIA FREESTYLE H OPTIUM .PZA     3
PE0082549771210H202100015112735500015112735504/12/20210723    3150055523742196425000011137100001419310000000000000                                                               TIRA GLUCOMETRIA FREESTYLE H OPTIUM .PZA     3
CC0000013887621H202100015112735500015112735504/12/20210723    3150055523742196425000011127400001413910000000000000                                                            EQUIPO ADMINIST NUTR PUNZON REF 674669 BBOL     1
CC0001129564191H202100015112735500015112735504/12/20210723    3150055523742196425000011127400001413910000000000000                                                            EQUIPO ADMINIST NUTR PUNZON REF 674669 BBOL     1
