CC0001005336912U202100050131910100050131910104/12/20210251    3150018823942196432000001956000001620610000000000000                                                                      CONECTOR MICRO CLAVE LAT-MC100SOB     1
CC0001005336912U202100050131910100050131910104/12/20210251    31500188239421964320000Q1AA7100000610620000000000000                                                            CATETER PERIFE INTROCAN # 18G 4251687-04SIN     1
CC0001005336912U202100050131910100050131910104/12/20210251    3150018823942196432000016830000000970620000000000000                                                             SIST FIJACION CAT PERIFERICO 6.5X7 1683SOB     1
