CC0001048209605H202100015032646900015032646904/12/20211339    31903290237421964250000V07A1300000502600000000000000                                                                                AGUA ESTERIL x 10 mlAMP     5
CC0000022439712H202100015032646900015032646904/12/20211339    31903290237421964250000V07A1300000502600000000000000                                                                                AGUA ESTERIL x 10 mlAMP     5
CC0001048209605H202100015032646900015032646904/12/20211339    3190329023742196425000024674000001138340000000000000   JERINGA 3PARTES C/A 10ML REF JEHL005 CAJ X 100 ALFASAFE  21GX1 PULG 1/2 PULG BN EXENTO-DC.417/202PZA     5
CC0000022439712H202100015032646900015032646904/12/20211339    3190329023742196425000024674000001138340000000000000   JERINGA 3PARTES C/A 10ML REF JEHL005 CAJ X 100 ALFASAFE  21GX1 PULG 1/2 PULG BN EXENTO-DC.417/202PZA     5
CC0001048209605H202100015032646900015032646904/12/20211339    3190329023742196425000022426800001140510000000000000                                                                    EQUIPO MACROGOTEO BAXTER MRC0001SOB     1
CC0000022439712H202100015032646900015032646904/12/20211339    3190329023742196425000022426800001140510000000000000                                                                    EQUIPO MACROGOTEO BAXTER MRC0001SOB     1
CC0001048209605H202100015032646900015032646904/12/20211339    3190329023742196425000030936900001431840000000000000                                                                                              BURETABOL     1
CC0000022439712H202100015032646900015032646904/12/20211339    3190329023742196425000030936900001431840000000000000                                                                                              BURETABOL     1
CC0001048209605H202100015032646900015032646904/12/20211339    31903290237421964250000E1AB0500003888400000000000000                                                              SOLUCION SALINA 0.9% SLN INY X 1000 MLBOL     3
CC0000022439712H202100015032646900015032646904/12/20211339    31903290237421964250000E1AB0500003888400000000000000                                                              SOLUCION SALINA 0.9% SLN INY X 1000 MLBOL     3
