CC0001143115935H202100015112736600015112736604/12/20211731    3150007223742196425000022426800001140510000000000000                                                                    EQUIPO MACROGOTEO BAXTER MRC0001SOB     1
CC0001143115935H202100015112736600015112736604/12/20211731    3150007223742196425000030936900001431840000000000000                                                                                              BURETABOL     1
CC0000019490174H202100015112736600015112736604/12/20211731    3150007223742196425000011127400001413910000000000000                                                            EQUIPO ADMINIST NUTR PUNZON REF 674669 BBOL     1
CC0001143115935H202100015112736600015112736604/12/20211731    3150007223742196425000011127400001413910000000000000                                                            EQUIPO ADMINIST NUTR PUNZON REF 674669 BBOL     1
