RC0001048079137U202100050131918300050131918304/12/20211953    3190217123942196432000012475800000232220000000000000                                                                SUTURA ETHILON 4-0 PS-2  45CM P1667TSIN     1
RC0001048079137U202100050131918300050131918304/12/20211953    3190217123942196432000011048600000223020000000000000                                                                 JERINGA VACUNACION 3ML C/AGU 302542SIN     1
RC0001048079137U202100050131918300050131918304/12/20211953    3190217123942196432000011047900000223010000000000000                                                                            JERINGA X 1ML REF 302579SIN     1
RC0001048079137U202100050131918300050131918304/12/20211953    3190217123942196432000011085100001082120000000000000                                                                           GUANTE QUIRURGICO TALLA 7SOB     2
RC0001048079137U202100050131918300050131918304/12/20211953    3190217123942196432000013077800000471960000000000000                                                             GASA NO TEJIDA EST 7.5 X 7.5 SOB X 3 UNSOB     6
RC0001048079137U202100050131918300050131918304/12/20211953    31902171239421964320000E1AB0200000199290000000000000                                                            SOLUCION SALINA 0.9% SLN INY BO X 100 MLBIN     1
