PA0000000791469A202100000027837400000027837404/12/20211624    3190333624042196419000001900000000325550000000000000                                                                       HEM-O-LOK MORADO L 544240 X 6SIN     1
PA0000000791469A202100000027837400000027837404/12/20211624    31903336240421964190000N02A3100001227160000000000000                                                                    OXYRAPID SLN INY 10 MG/ML X 1 MLAMP     1
PA0000000791469A202100000027837400000027837404/12/20211624    3190333624042196419000018610600000607940000000000000                                                               SENSOR ADULTO XP MONITOR 006-186-0106SIN     1
PA0000000791469A202100000027837400000027837404/12/20211624    3190333624042196419000011184200001338540000000000000                                                            BLADELESS OPTICAL TROCAR WITH FIXATION CPZA     1
PA0000000791469A202100000027837400000027837404/12/20211624    3190333624042196419000011069100001318210000000000000                                                            TROCAR VERSAPORT BLA OPTICAL 5MM ONB5STFPZA     1
PA0000000791469A202100000027837400000027837404/12/20211624    3190333624042196419000000016500000223580000000000000                                                                    STERI-STRIP 12 X 100 REF 1547 3MSIN     1
PA0000000791469A202100000027837400000027837404/12/20211624    3190333624042196419000000501000004008660000000000000  SUTURA ABSORB TRENZADA GU-46 REF UL-878 CAJ X 36 POLYSORB 75CM - 2-0 VIOLETA BN EXENTO-DC.417/2020SIN     1
PA0000000791469A202100000027837400000027837404/12/20211624    3190333624042196419000000500600004008630000000000000         SUTURA ABSORBIBLE MONOFIL P-12 REF SM-5627 CAJ X 12 BIOSYN 45CM - 4-0 BN EXENTO-DC.417/2020SIN     1
PA0000000791469A202100000027837400000027837404/12/20211624    3190333624042196419000045303900000232380000000000000                                                                   LIGACLIP MED/LARG LT300 VERDE X 6SIN     1
PA0000000791469A202100000027837400000027837404/12/20211624    3190333624042196419000011082600000265810000000000000                                                              EQUIPO IRRIGACION URINARIA REF MRC4002SOB     1
PA0000000791469A202100000027837400000027837404/12/20211624    3190333624042196419000045138000001413890000000000000                                                                       LAPIZ ELECTROBISTURI  SOB X 1SOB     1
PA0000000791469A202100000027837400000027837404/12/20211624    3190333624042196419000013077800000471960000000000000                                                             GASA NO TEJIDA EST 7.5 X 7.5 SOB X 3 UNSOB     1
PA0000000791469A202100000027837400000027837404/12/20211624    3190333624042196419000030161400001459220000000000000                                                                       MANGUERA SUCCION 6 MM*3.1 MTSSOB     1
PA0000000791469A202100000027837400000027837404/12/20211624    3190333624042196419000043879200001138180000000000000                                                                                   HOJA BISTURI # 11SOB     1
PA0000000791469A202100000027837400000027837404/12/20211624    3190333624042196419000022425200000548240000000000000                       EXTENSION DE ANESTESIA REF 1139 SOB X 1 SHERLEG  ADULTO BN EXENTO-DC.417/2020SIN     1
PA0000000791469A202100000027837400000027837404/12/20211624    3190333624042196419000035356500003919000000000000000                                                                                        LLAVE 3 VIASSOB     2
PA0000000791469A202100000027837400000027837404/12/20211624    3190333624042196419000022426800001140510000000000000                                                                    EQUIPO MACROGOTEO BAXTER MRC0001SOB     1
PA0000000791469A202100000027837400000027837404/12/20211624    3190333624042196419000016830000000970620000000000000                                                             SIST FIJACION CAT PERIFERICO 6.5X7 1683SOB     1
PA0000000791469A202100000027837400000027837404/12/20211624    3190333624042196419000011073300001096420000000000000                                                                BOLSA DE SUCCION DE FLUIDOS x 2500mLBOL     1
PA0000000791469A202100000027837400000027837404/12/20211624    3190333624042196419000011082700001620070000000000000                                                               EQUIPO SET PRIMARIO C/CLAVE REF 14001BOL     1
PA0000000791469A202100000027837400000027837404/12/20211624    3190333624042196419000053074400000607910000000000000                                                               GASA ESTERIL 10*10 SOBRE X 3 UNIDADESSOB     2
PA0000000791469A202100000027837400000027837404/12/20211624    3190333624042196419000011085300001082140000000000000                                                                           GUANTE QUIRURGICO TALLA 8SOB     1
PA0000000791469A202100000027837400000027837404/12/20211624    3190333624042196419000011085200001585390000000000000                                                                       GUANTE QUIRURGICO TALLA 7 1/2SOB     1
PA0000000791469A202100000027837400000027837404/12/20211624    3190333624042196419000011085100001082120000000000000                                                                           GUANTE QUIRURGICO TALLA 7SOB     2
PA0000000791469A202100000027837400000027837404/12/20211624    3190333624042196419000043485100001618510000000000000                GUANTE QUIRURGICO DE LATEX REF 2D72N65X CAJ X 50 PROTEXIS  6.5 BN EXENTO-DC.417/2020SOB     2
PA0000000791469A202100000027837400000027837404/12/20211624    3190333624042196419000051515500000598160000000000000                                                                            MASCARILLA ANESTESIA # 5SIN     1
PA0000000791469A202100000027837400000027837404/12/20211624    3190333624042196419000038568100000258050000000000000                                                                         CANULA OXIGENO NASAL ADULTOSIN     1
PA0000000791469A202100000027837400000027837404/12/20211624    3190333624042196419000011099300000777780000000000000                                                                     FILTRO BACTERIANO VIRICO ADULTOBOL     1
PA0000000791469A202100000027837400000027837404/12/20211624    3190333624042196419000039175100001072060000000000000                                                                           TUBO ENDOTRAQUEAL C/B 7.5SOB     1
PA0000000791469A202100000027837400000027837404/12/20211624    3190333624042196419000024673600000222980000000000000                                                                     JERINGA DESECHABLE 5 ml 27*11/2SIN     2
PA0000000791469A202100000027837400000027837404/12/20211624    3190333624042196419000024674000001138340000000000000   JERINGA 3PARTES C/A 10ML REF JEHL005 CAJ X 100 ALFASAFE  21GX1 PULG 1/2 PULG BN EXENTO-DC.417/202PZA     2
PA0000000791469A202100000027837400000027837404/12/20211624    3190333624042196419000024674500000322810000000000000                                                                   JERINGA DESECHABLE 20 ml 21*1 1/2SIN     3
PA0000000791469A202100000027837400000027837404/12/20211624    31903336240421964190000E1AD0200003888320000000000000                                                                              HARTMAN SLN INY 500 MLBOL     2
PA0000000791469A202100000027837400000027837404/12/20211624    31903336240421964190000E1AB0500003888400000000000000                                                              SOLUCION SALINA 0.9% SLN INY X 1000 MLBOL     1
PA0000000791469A202100000027837400000027837404/12/20211624    31903336240421964190000E1AB0300003888390000000000000                                                            SOLUCION SALINA 0.9% SLN INY BO X 500 MLBOL     4
PA0000000791469A202100000027837400000027837404/12/20211624    31903336240421964190000E1AB0700003888350000000000000                                                            SOLUCION SALINA 0.9% SLN INY BO X 250 MLBOL     1
PA0000000791469A202100000027837400000027837404/12/20211624    31903336240421964190000N02B1100001464120000000000000                                           PARACETAMOL EP 1000MG/100ML(10MG/ML) SOL INY  CAJ X 10FCOVAL     1
PA0000000791469A202100000027837400000027837404/12/20211624    31903336240421964190000A2BC0900000200150000000000000                                                                               ORAZOLE Sln Iny 40 mgCIN     1
PA0000000791469A202100000027837400000027837404/12/20211624    31903336240421964190000M1AX0200001569410000000000000                                                                         KETRON SLN INY 30 MG / 2 MLAMP     1
PA0000000791469A202100000027837400000027837404/12/20211624    31903336240421964190000N01A0400003939010000000000000                                               MAYOPROFOL 200MG/20ML(1%) EMUL INY CAJ X 1VIAL X 20MLVAL     1
PA0000000791469A202100000027837400000027837404/12/20211624    31903336240421964190000M01A0400001341250000000000000                                                                              DYNASTAT AMP 40 MG /R/VAL     1
PA0000000791469A202100000027837400000027837404/12/20211624    31903336240421964190000N2BB1100000217160000000000000                                                                      NOVALGINA Sln Iny 2.5 g x 5 mlAMP     2
PA0000000791469A202100000027837400000027837404/12/20211624    31903336240421964190000A4AD0200000202990000000000000                                                                     PLITICAN HCL Sln Iny 50 mg/2 mlAMP     1
PA0000000791469A202100000027837400000027837404/12/20211624    31903336240421964190000H02AB500001664950000000000000                                                            DEXAMETASONA SLN INY 8 MG/2 ML AMP /CDS/AMP     1
PA0000000791469A202100000027837400000027837404/12/20211624    31903336240421964190000C01C0300001261020000000000000                                                               ETILEFRINA HCL SLN INY 10 MG/1 ML /R/AMP     1
PA0000000791469A202100000027837400000027837404/12/20211624    31903336240421964190000N1BA2400001687720000000000000                                                    LIDOCAINA 2% SOL INY  CAJ X 50AMP X 10ML CORPAULAMP     1
PA0000000791469A202100000027837400000027837404/12/20211624    31903336240421964190000N01B1300001195250000000000000                                                                         BUPIROP 0.5% S/EPIN X 10 MLAMP     1
PA0000000791469A202100000027837400000027837404/12/20211624    31903336240421964190000N01B0600003888900000000000000                                                    BUPINEST 75MG/10ML(0.75%) SOL INY CAJ X 24AMPACKAPC     1
PA0000000791469A202100000027837400000027837404/12/20211624    31903336240421964190000M3AC0600000720540000000000000                                                                         ESMERON SLN INY 50 MG /5 MLVAL     1
PA0000000791469A202100000027837400000027837404/12/20211624    31903336240421964190000N1AH0200003906560000000000000                                                                     FENTANIL Iny 0.05 mg/ml x 10 mlAMP     1
PA0000000791469A202100000027837400000027837404/12/20211624    31903336240421964190000N2AA0700001587170000000000000                                                                                 ULTIVA Sln Iny 2 mgVAL     1
