CC0000013887621H202100015112737200015112737204/12/20212213    3190270323742196425000038569900001124970000000000000                                                                              SONDA FOLEY #14 2 VIASSOB     2
CC0000013887621H202100015112737200015112737204/12/20212213    3190270323742196425000011082900001233450000000000000                                                               EQUIPO LC 5000 PRIMARIO FOTOPRO 0L218SOB     1
CC0001143115732H202100015112737200015112737204/12/20212213    3190270323742196425000011082700001620070000000000000                                                               EQUIPO SET PRIMARIO C/CLAVE REF 14001BOL     1
CC0000013887621H202100015112737200015112737204/12/20212213    31902703237421964250000E1AB0300003888390000000000000                                                            SOLUCION SALINA 0.9% SLN INY BO X 500 MLBOL     1
