CC0000072339909H202100015112736900015112736904/12/20212035    3190182723742196425000038573100000256880000000000000                                                                                 SONDA NSG LEVIN #18SIN     1
CC0000072339909H202100015112736900015112736904/12/20212035    3190182723742196425000024674000001138340000000000000   JERINGA 3PARTES C/A 10ML REF JEHL005 CAJ X 100 ALFASAFE  21GX1 PULG 1/2 PULG BN EXENTO-DC.417/202PZA    15
CC0001066890191H202100015112736900015112736904/12/20212035    3190182723742196425000024674000001138340000000000000   JERINGA 3PARTES C/A 10ML REF JEHL005 CAJ X 100 ALFASAFE  21GX1 PULG 1/2 PULG BN EXENTO-DC.417/202PZA    10
CC0000007444684H202100015112736900015112736904/12/20212035    3190182723742196425000024674000001138340000000000000   JERINGA 3PARTES C/A 10ML REF JEHL005 CAJ X 100 ALFASAFE  21GX1 PULG 1/2 PULG BN EXENTO-DC.417/202PZA    10
CC0000072339909H202100015112736900015112736904/12/20212035    31901827237421964250000Q1A13500001585200000000000000                        JERINGA PUNTA CAT SIN AGUJA REF 309620 CAJ X 40   50ML BN EXENTO-DC.417/2020SOB     1
CC0000032776593H202100015112736900015112736904/12/20212035    3190182723742196425000043485100001618510000000000000                GUANTE QUIRURGICO DE LATEX REF 2D72N65X CAJ X 50 PROTEXIS  6.5 BN EXENTO-DC.417/2020SOB     1
CC0001066890191H202100015112736900015112736904/12/20212035    3190182723742196425000043485100001618510000000000000                GUANTE QUIRURGICO DE LATEX REF 2D72N65X CAJ X 50 PROTEXIS  6.5 BN EXENTO-DC.417/2020SOB     1
CC0000022596813H202100015112736900015112736904/12/20212035    3190182723742196425000013077800000471960000000000000                                                             GASA NO TEJIDA EST 7.5 X 7.5 SOB X 3 UNSOB     6
CC0001066890191H202100015112736900015112736904/12/20212035    3190182723742196425000013077800000471960000000000000                                                             GASA NO TEJIDA EST 7.5 X 7.5 SOB X 3 UNSOB     8
CC0000072339909H202100015112736900015112736904/12/20212035    3190182723742196425000022426800001140510000000000000                                                                    EQUIPO MACROGOTEO BAXTER MRC0001SOB     2
CC0000072339909H202100015112736900015112736904/12/20212035    3190182723742196425000011082700001620070000000000000                                                               EQUIPO SET PRIMARIO C/CLAVE REF 14001BOL     2
CC0000072339909H202100015112736900015112736904/12/20212035    3190182723742196425000001956000001620610000000000000                                                                      CONECTOR MICRO CLAVE LAT-MC100SOB     3
CC0000022596813H202100015112736900015112736904/12/20212035    3190182723742196425000000602700001197200000000000000                                                              APOSITO TRANSP  1655 IV 8.5CM X 11.5CMSOB     1
CC0000032776593H202100015112736900015112736904/12/20212035    3190182723742196425000000602700001197200000000000000                                                              APOSITO TRANSP  1655 IV 8.5CM X 11.5CMSOB     1
CC0000032776593H202100015112736900015112736904/12/20212035    3190182723742196425000016830000000970620000000000000                                                             SIST FIJACION CAT PERIFERICO 6.5X7 1683SOB     1
CC0001066890191H202100015112736900015112736904/12/20212035    3190182723742196425000016830000000970620000000000000                                                             SIST FIJACION CAT PERIFERICO 6.5X7 1683SOB     1
