CC0000041782192H202100015042536100015042536104/12/20212152    3150010723742196425000024672100001609890000000000000                                                            JERINGA INSULINA 1ML TAPA NARANJA JEI013SOB     3
CC0001129577696H202100015042536100015042536104/12/20212152    3150010723742196425000043485100001618510000000000000                GUANTE QUIRURGICO DE LATEX REF 2D72N65X CAJ X 50 PROTEXIS  6.5 BN EXENTO-DC.417/2020SOB     1
CC0001129577696H202100015042536100015042536104/12/20212152    3150010723742196425000013077800000471960000000000000                                                             GASA NO TEJIDA EST 7.5 X 7.5 SOB X 3 UNSOB     2
CC0001151478323H202100015042536100015042536104/12/20212152    3150010723742196425000022426800001140510000000000000                                                                    EQUIPO MACROGOTEO BAXTER MRC0001SOB     1
CC0000072277171H202100015042536100015042536104/12/20212152    3150010723742196425000011082700001620070000000000000                                                               EQUIPO SET PRIMARIO C/CLAVE REF 14001BOL     2
CC0001129577696H202100015042536100015042536104/12/20212152    3150010723742196425000011082700001620070000000000000                                                               EQUIPO SET PRIMARIO C/CLAVE REF 14001BOL     1
CC0000032632813H202100015042536100015042536104/12/20212152    3150010723742196425000011082700001620070000000000000                                                               EQUIPO SET PRIMARIO C/CLAVE REF 14001BOL     1
CC0001129577696H202100015042536100015042536104/12/20212152    3150010723742196425000001956000001620610000000000000                                                                      CONECTOR MICRO CLAVE LAT-MC100SOB     1
CC0000032632813H202100015042536100015042536104/12/20212152    3150010723742196425000001956000001620610000000000000                                                                      CONECTOR MICRO CLAVE LAT-MC100SOB     1
CC0000032632813H202100015042536100015042536104/12/20212152    31500107237421964250000Q1AA7400003911720000000000000                                                            CATETER PERIFE INTROCAN # 24G 4251601-04SOB     1
CC0000072277171H202100015042536100015042536104/12/20212152    3150010723742196425000030936900001431840000000000000                                                                                              BURETABOL     1
CC0001129577696H202100015042536100015042536104/12/20212152    3150010723742196425000030936900001431840000000000000                                                                                              BURETABOL     1
CC0000032632813H202100015042536100015042536104/12/20212152    3150010723742196425000030936900001431840000000000000                                                                                              BURETABOL     1
CC0000032632813H202100015042536100015042536104/12/20212152    3150010723742196425000016830000000970620000000000000                                                             SIST FIJACION CAT PERIFERICO 6.5X7 1683SOB     1
