RC0001194979883A202100000027828800000027828804/12/20210916    31903336240421964190000N02B1100001464120000000000000                                           PARACETAMOL EP 1000MG/100ML(10MG/ML) SOL INY  CAJ X 10FCOVAL     1
RC0001194979883A202100000027828800000027828804/12/20210916    3190333624042196419000011048700001134860000000000000                                                                JUEGO TUBO PRUEBA REF 8290286 DRAGERPZA     1
RC0001194979883A202100000027828800000027828804/12/20210916    3190333624042196419000000901500001004690000000000000                                                                            MASCARA LARINGEA  No 2.0BOL     1
RC0001194979883A202100000027828800000027828804/12/20210916    3190333624042196419000045138000001413890000000000000                                                                       LAPIZ ELECTROBISTURI  SOB X 1SOB     1
RC0001194979883A202100000027828800000027828804/12/20210916    3190333624042196419000029958600000879890000000000000                                                                              PDS 6-0 2C1 75 PDP127HSOB     1
RC0001194979883A202100000027828800000027828804/12/20210916    3190333624042196419000043879100001138200000000000000                                                                  HOJA BISTURI # 15 CSSB 15 01002003SOB     1
RC0001194979883A202100000027828800000027828804/12/20210916    31903336240421964190000D03A0300000213220000000000000                                                                        FITOSTIMOLINE CREMA 15% 32 GTUB     1
RC0001194979883A202100000027828800000027828804/12/20210916    31903336240421964190000Q1AA7400003911720000000000000                                                            CATETER PERIFE INTROCAN # 24G 4251601-04SOB     1
RC0001194979883A202100000027828800000027828804/12/20210916    3190333624042196419000000602600001259280000000000000                                                             APOSITO TEGADERM IV PD 1610 5CM X 5.7CMSOB     1
RC0001194979883A202100000027828800000027828804/12/20210916    3190333624042196419000020750800000295830000000000000                                                                       PLACA RETORNO PEDIAT E7510-25SIN     1
RC0001194979883A202100000027828800000027828804/12/20210916    3190333624042196419000011047900000223010000000000000                                                                            JERINGA X 1ML REF 302579SIN     1
RC0001194979883A202100000027828800000027828804/12/20210916    3190333624042196419000024673600000222980000000000000                                                                     JERINGA DESECHABLE 5 ml 27*11/2SIN     1
RC0001194979883A202100000027828800000027828804/12/20210916    3190333624042196419000024674000001138340000000000000   JERINGA 3PARTES C/A 10ML REF JEHL005 CAJ X 100 ALFASAFE  21GX1 PULG 1/2 PULG BN EXENTO-DC.417/202PZA     4
RC0001194979883A202100000027828800000027828804/12/20210916    3190333624042196419000053074400000607910000000000000                                                               GASA ESTERIL 10*10 SOBRE X 3 UNIDADESSOB     3
RC0001194979883A202100000027828800000027828804/12/20210916    3190333624042196419000011085200001585390000000000000                                                                       GUANTE QUIRURGICO TALLA 7 1/2SOB     1
RC0001194979883A202100000027828800000027828804/12/20210916    3190333624042196419000011085100001082120000000000000                                                                           GUANTE QUIRURGICO TALLA 7SOB     1
RC0001194979883A202100000027828800000027828804/12/20210916    3190333624042196419000043485100001618510000000000000                GUANTE QUIRURGICO DE LATEX REF 2D72N65X CAJ X 50 PROTEXIS  6.5 BN EXENTO-DC.417/2020SOB     1
RC0001194979883A202100000027828800000027828804/12/20210916    3190333624042196419000031011300000762710000000000000                                                                            CANULA GUEDEL #2 (80 MM)SOB     1
RC0001194979883A202100000027828800000027828804/12/20210916    3190333624042196419000051515300000598140000000000000                                                                            MASCARILLA ANESTESIA # 3SIN     1
RC0001194979883A202100000027828800000027828804/12/20210916    3190333624042196419000011099300000777780000000000000                                                                     FILTRO BACTERIANO VIRICO ADULTOBOL     1
RC0001194979883A202100000027828800000027828804/12/20210916    3190333624042196419000011065700003914100000000000000                                                                 TAPON HEPARINIZADO 4238010  B BRAUNSOB     1
RC0001194979883A202100000027828800000027828804/12/20210916    31903336240421964190000E1AB0700003888350000000000000                                                            SOLUCION SALINA 0.9% SLN INY BO X 250 MLBOL     1
RC0001194979883A202100000027828800000027828804/12/20210916    31903336240421964190000E1AB0200000199290000000000000                                                            SOLUCION SALINA 0.9% SLN INY BO X 100 MLBIN     1
RC0001194979883A202100000027828800000027828804/12/20210916    31903336240421964190000N01A0400003939010000000000000                                               MAYOPROFOL 200MG/20ML(1%) EMUL INY CAJ X 1VIAL X 20MLVAL     1
RC0001194979883A202100000027828800000027828804/12/20210916    31903336240421964190000N2BB0500000217140000000000000                                                                          NOVALGINA Sln Iny 1 g/2 mlAMP     1
RC0001194979883A202100000027828800000027828804/12/20210916    31903336240421964190000C01C0300001261020000000000000                                                               ETILEFRINA HCL SLN INY 10 MG/1 ML /R/AMP     1
