CC0000022406887U202100050131909400050131909404/12/20210047    3190098223942196432000024673600000222980000000000000                                                                     JERINGA DESECHABLE 5 ml 27*11/2SIN     1
RC0001082352332U202100050131909400050131909404/12/20210047    3190098223942196432000042743200003929860000000000000                   GASA ADHESIVA STRETCH REF 02038-00 ROL X 10MT FIXOMULL 15CM BN EXENTO-DC.417/2020CMT    20
CC0000022406887U202100050131909400050131909404/12/20210047    3190098223942196432000011082700001620070000000000000                                                               EQUIPO SET PRIMARIO C/CLAVE REF 14001BOL     1
RC0001082352332U202100050131909400050131909404/12/20210047    3190098223942196432000001956000001620610000000000000                                                                      CONECTOR MICRO CLAVE LAT-MC100SOB     1
CC0000022406887U202100050131909400050131909404/12/20210047    3190098223942196432000001956000001620610000000000000                                                                      CONECTOR MICRO CLAVE LAT-MC100SOB     1
CC0000022406887U202100050131909400050131909404/12/20210047    31900982239421964320000Q1AA7200000610630000000000000                                                            CATETER PERIFE INTROCAN # 20G 4251644-04SIN     1
RC0001082352332U202100050131909400050131909404/12/20210047    31900982239421964320000Q1AA7400003911720000000000000                                                            CATETER PERIFE INTROCAN # 24G 4251601-04SOB     1
CC0000022406887U202100050131909400050131909404/12/20210047    3190098223942196432000030936900001431840000000000000                                                                                              BURETABOL     1
CC0000022406887U202100050131909400050131909404/12/20210047    3190098223942196432000016830000000970620000000000000                                                             SIST FIJACION CAT PERIFERICO 6.5X7 1683SOB     1
CC0000022406887U202100050131909400050131909404/12/20210047    31900982239421964320000E1AB0300003888390000000000000                                                            SOLUCION SALINA 0.9% SLN INY BO X 500 MLBOL     1
