CC0000073070310H202100015012624500015012624504/12/20212102    3190117723742196425000072887600001096730000000000000                                                               SET EQUIPO PERFUSOR SPACE 10mL 728876PAQ     1
CC0000073070310H202100015012624500015012624504/12/20212102    3190117723742196425000001956000001620610000000000000                                                                      CONECTOR MICRO CLAVE LAT-MC100SOB     1
CC0000073070310H202100015012624500015012624504/12/20212102    31901177237421964250000Q1AA7300000610640000000000000                                                            CATETER PERIFE INTROCAN # 22G 4251628-04SIN     2
CC0000073070310H202100015012624500015012624504/12/20212102    3190117723742196425000030936900001431840000000000000                                                                                              BURETABOL     1
TI0001139431453H202100015012624500015012624504/12/20212102    31901177237421964250000E1AD0200003888320000000000000                                                                              HARTMAN SLN INY 500 MLBOL     4
