RC0001042273174U202100050131911400050131911404/12/20210858    3190145323942196432000011082700001620070000000000000                                                               EQUIPO SET PRIMARIO C/CLAVE REF 14001BOL     1
RC0001042273174U202100050131911400050131911404/12/20210858    31901453239421964320000Q1AA7400003911720000000000000                                                            CATETER PERIFE INTROCAN # 24G 4251601-04SOB     1
RC0001042273174U202100050131911400050131911404/12/20210858    31901453239421964320000E1AD0200003888320000000000000                                                                              HARTMAN SLN INY 500 MLBOL     1
