CC0001140828821H202100015042535900015042535904/12/20211710    3190329423742196425000001956000001620610000000000000                                                                      CONECTOR MICRO CLAVE LAT-MC100SOB     1
CC0000072277171H202100015042535900015042535904/12/20211710    3190329423742196425000001956000001620610000000000000                                                                      CONECTOR MICRO CLAVE LAT-MC100SOB     1
CC0001140828821H202100015042535900015042535904/12/20211710    31903294237421964250000Q1AA7300000610640000000000000                                                            CATETER PERIFE INTROCAN # 22G 4251628-04SIN     1
CC0001140828821H202100015042535900015042535904/12/20211710    31903294237421964250000Q1AA7400003911720000000000000                                                            CATETER PERIFE INTROCAN # 24G 4251601-04SOB     2
CC0000072277171H202100015042535900015042535904/12/20211710    31903294237421964250000Q1AA7400003911720000000000000                                                            CATETER PERIFE INTROCAN # 24G 4251601-04SOB     2
CC0001140828821H202100015042535900015042535904/12/20211710    3190329423742196425000016830000000970620000000000000                                                             SIST FIJACION CAT PERIFERICO 6.5X7 1683SOB     1
CC0000072277171H202100015042535900015042535904/12/20211710    3190329423742196425000016830000000970620000000000000                                                             SIST FIJACION CAT PERIFERICO 6.5X7 1683SOB     1
CC0001140828821H202100015042535900015042535904/12/20211710    31903294237421964250000E1AB1100003888280000000000000                                                                        SOLUCION SALINA 0.9% X 50 mlBOL     3
CC0000072277171H202100015042535900015042535904/12/20211710    31903294237421964250000E1AB1100003888280000000000000                                                                        SOLUCION SALINA 0.9% X 50 mlBOL     3
