CC0000003724288H202100015052800100015052800104/12/20210842    31500120237421964250000Q1A13500001585200000000000000                        JERINGA PUNTA CAT SIN AGUJA REF 309620 CAJ X 40   50ML BN EXENTO-DC.417/2020SOB     1
CC0000003724288H202100015052800100015052800104/12/20210842    3150012023742196425000011085100001082120000000000000                                                                           GUANTE QUIRURGICO TALLA 7SOB     1
CC0000003724288H202100015052800100015052800104/12/20210842    3150012023742196425000013077800000471960000000000000                                                             GASA NO TEJIDA EST 7.5 X 7.5 SOB X 3 UNSOB     8
CC0000003724288H202100015052800100015052800104/12/20210842    31500120237421964250000E1AB0300003888390000000000000                                                            SOLUCION SALINA 0.9% SLN INY BO X 500 MLBOL     3
