CC0000022406887U202100000556545700000556545704/12/20210231    31900982239421964320000E1AB0300003888390000000000000                                                            SOLUCION SALINA 0.9% SLN INY BO X 500 MLBOL     1
CC0000022406887U202100000556545700000556545704/12/20210911     3300010239421964320000C09CA400001277130000000000000                                                                                  LOSARTAN TAB 50 MGTAB     1
CC0000022406887U202100000556545700000556545704/12/20210050     3300004239421964320000C09CA400001277130000000000000                                                                                  LOSARTAN TAB 50 MGTAB     1
CC0000022406887U202100000556545700000556545704/12/20210911     3300010239421964320000C3DA0800001315680000000000000                                                                               METFORMINA TAB 850 MGTAB     1
CC0000022406887U202100000556545700000556545704/12/20211405     3300010239421964320000N2BE2200001252930000000000000                                                                             ACETAMINOFEN Tab 500 MGTAB     2
CC0000022406887U202100000556545700000556545704/12/20211405     3300010239421964320000N2BB0100001672010000000000000                                  DIPIRONA 1GR/2ML(0.5GR/ML) SOL INY INST CAJ X 100AMP X 2ML VITALISAMP     2
CC0000022406887U202100000556545700000556545704/12/20210050     3300004239421964320000N2AX0900001672040000000000000                                                                              TRAMADOL SLN INY 50 MGAMP     1
