CC0000007452098H202100015112735200015112735204/12/20210232    3190145023742196425000024674000001138340000000000000   JERINGA 3PARTES C/A 10ML REF JEHL005 CAJ X 100 ALFASAFE  21GX1 PULG 1/2 PULG BN EXENTO-DC.417/202PZA     5
CC0001143115935H202100015112735200015112735204/12/20210232    3190145023742196425000022426800001140510000000000000                                                                    EQUIPO MACROGOTEO BAXTER MRC0001SOB     1
CC0001143115935H202100015112735200015112735204/12/20210232    3190145023742196425000030936900001431840000000000000                                                                                              BURETABOL     1
CC0000007452098H202100015112735200015112735204/12/20210232    31901450237421964250000E1AD0300000199490000000000000                                         LACTATO RINGER USP (HARTMANN)  SOL INY  BOL X 1000ML BAXTERBIN     1
