CC0000023101459H202100015012624400015012624404/12/20212053    31500052237421964250000E1AD0300000199490000000000000                                         LACTATO RINGER USP (HARTMANN)  SOL INY  BOL X 1000ML BAXTERBIN     1
RC0001046739436H202100015012624400015012624404/12/20212053    31500052237421964250000E1AD0200003888320000000000000                                                                              HARTMAN SLN INY 500 MLBOL     1
RC0001046731936H202100015012624400015012624404/12/20212053    31500052237421964250000E1AD0200003888320000000000000                                                                              HARTMAN SLN INY 500 MLBOL     1
PA0000000791469H202100015012624400015012624404/12/20212053    31500052237421964250000E1AB0500003888400000000000000                                                              SOLUCION SALINA 0.9% SLN INY X 1000 MLBOL     1
