CC0000008530442H202100015112736300015112736304/12/20211446    3190305923742196425000043879200001138180000000000000                                                                                   HOJA BISTURI # 11SOB     2
CC0000008530442H202100015112736300015112736304/12/20211446    3190305923742196425000001956000001620610000000000000                                                                      CONECTOR MICRO CLAVE LAT-MC100SOB     1
CC0000008530442H202100015112736300015112736304/12/20211446    31903059237421964250000Q1AA7200000610630000000000000                                                            CATETER PERIFE INTROCAN # 20G 4251644-04SIN     2
CC0000008530442H202100015112736300015112736304/12/20211446    3190305923742196425000016830000000970620000000000000                                                             SIST FIJACION CAT PERIFERICO 6.5X7 1683SOB     1
