CC0001042353509H202100015052801500015052801504/12/20212053    3190278723742196425000011082700001620070000000000000                                                               EQUIPO SET PRIMARIO C/CLAVE REF 14001BOL     1
CC0000019068414H202100015052801500015052801504/12/20212053    3190278723742196425000011082700001620070000000000000                                                               EQUIPO SET PRIMARIO C/CLAVE REF 14001BOL     1
CC0001042353509H202100015052801500015052801504/12/20212053    3190278723742196425000001956000001620610000000000000                                                                      CONECTOR MICRO CLAVE LAT-MC100SOB     1
CC0001042353509H202100015052801500015052801504/12/20212053    31902787237421964250000Q1AA7300000610640000000000000                                                            CATETER PERIFE INTROCAN # 22G 4251628-04SIN     1
CC0001042353509H202100015052801500015052801504/12/20212053    3190278723742196425000030936900001431840000000000000                                                                                              BURETABOL     1
CC0000019068414H202100015052801500015052801504/12/20212053    3190278723742196425000030936900001431840000000000000                                                                                              BURETABOL     1
CC0001042353509H202100015052801500015052801504/12/20212053    3190278723742196425000016830000000970620000000000000                                                             SIST FIJACION CAT PERIFERICO 6.5X7 1683SOB     1
CC0000009240037H202100015052801500015052801504/12/20212053    31902787237421964250000E1AB0300003888390000000000000                                                            SOLUCION SALINA 0.9% SLN INY BO X 500 MLBOL     1
CC0000003719048H202100015052801500015052801504/12/20212053    31902787237421964250000E1AB0300003888390000000000000                                                            SOLUCION SALINA 0.9% SLN INY BO X 500 MLBOL     1
CC0000052863354H202100015052801500015052801504/12/20212053    31902787237421964250000E1AB0300003888390000000000000                                                            SOLUCION SALINA 0.9% SLN INY BO X 500 MLBOL     1
CC0001042353509H202100015052801500015052801504/12/20212053    31902787237421964250000E1AB0300003888390000000000000                                                            SOLUCION SALINA 0.9% SLN INY BO X 500 MLBOL     1
CC0001045685077H202100015052801500015052801504/12/20212053    31902787237421964250000E1AB0300003888390000000000000                                                            SOLUCION SALINA 0.9% SLN INY BO X 500 MLBOL     1
CC0000039088478H202100015052801500015052801504/12/20212053    31902787237421964250000E1AB0300003888390000000000000                                                            SOLUCION SALINA 0.9% SLN INY BO X 500 MLBOL     1
