CC0000055242968A202100000027834200000027834204/12/20210931    3190333624042196419000038568100000258050000000000000                                                                         CANULA OXIGENO NASAL ADULTOSIN     1
CC0000055242968A202100000027834200000027834204/12/20210931    31903336240421964190000N01B1200000220020000000000000                                                                        ROXICAINA 1% C/E Iny x 20 mlFCO     1
CC0000055242968A202100000027834200000027834204/12/20210931    3190333624042196419000019992300000233100000000000000                                                             VICRYL RAPID INC 3-0 70CM PS2 (VR9923G)SIN     2
CC0000055242968A202100000027834200000027834204/12/20210931    3190333624042196419000029958500004018110000000000000  SUTURA MONOFIL ABSORBI (2)RB-1 REF W9108H CAJ X 36 PDS II 90CM - 5-0 VIOLETA BN EXENTO-DC.417/2020SOB     1
CC0000055242968A202100000027834200000027834204/12/20210931    3190333624042196419000045138000001413890000000000000                                                                       LAPIZ ELECTROBISTURI  SOB X 1SOB     1
CC0000055242968A202100000027834200000027834204/12/20210931    3190333624042196419000043879100001138200000000000000                                                                  HOJA BISTURI # 15 CSSB 15 01002003SOB     1
CC0000055242968A202100000027834200000027834204/12/20210931    31903336240421964190000J01DA300001239950000000000000                                                            CEFAZOLINA SODICA POLVO LIOF SLN INY 1 GVAL     2
CC0000055242968A202100000027834200000027834204/12/20210931    3190333624042196419000016830000000970620000000000000                                                             SIST FIJACION CAT PERIFERICO 6.5X7 1683SOB     1
CC0000055242968A202100000027834200000027834204/12/20210931    3190333624042196419000035356500003919000000000000000                                                                                        LLAVE 3 VIASSOB     1
CC0000055242968A202100000027834200000027834204/12/20210931    31903336240421964190000Q1AA7100000610620000000000000                                                            CATETER PERIFE INTROCAN # 18G 4251687-04SIN     1
CC0000055242968A202100000027834200000027834204/12/20210931    3190333624042196419000022425200000548240000000000000                       EXTENSION DE ANESTESIA REF 1139 SOB X 1 SHERLEG  ADULTO BN EXENTO-DC.417/2020SIN     1
CC0000055242968A202100000027834200000027834204/12/20210931    3190333624042196419000022426800001140510000000000000                                                                    EQUIPO MACROGOTEO BAXTER MRC0001SOB     1
CC0000055242968A202100000027834200000027834204/12/20210931    3190333624042196419000020750600000296780000000000000                                                                PLACA ELECTRO RETORNO PACIENTE E7506SIN     1
CC0000055242968A202100000027834200000027834204/12/20210931    3190333624042196419000011085200001585390000000000000                                                                       GUANTE QUIRURGICO TALLA 7 1/2SOB     1
CC0000055242968A202100000027834200000027834204/12/20210931    3190333624042196419000011085100001082120000000000000                                                                           GUANTE QUIRURGICO TALLA 7SOB     2
CC0000055242968A202100000027834200000027834204/12/20210931    3190333624042196419000043485100001618510000000000000                GUANTE QUIRURGICO DE LATEX REF 2D72N65X CAJ X 50 PROTEXIS  6.5 BN EXENTO-DC.417/2020SOB     3
CC0000055242968A202100000027834200000027834204/12/20210931    3190333624042196419000011085300001082140000000000000                                                                           GUANTE QUIRURGICO TALLA 8SOB     2
CC0000055242968A202100000027834200000027834204/12/20210931    3190333624042196419000024674000001138340000000000000   JERINGA 3PARTES C/A 10ML REF JEHL005 CAJ X 100 ALFASAFE  21GX1 PULG 1/2 PULG BN EXENTO-DC.417/202PZA     3
CC0000055242968A202100000027834200000027834204/12/20210931    3190333624042196419000024673600000222980000000000000                                                                     JERINGA DESECHABLE 5 ml 27*11/2SIN     4
CC0000055242968A202100000027834200000027834204/12/20210931    3190333624042196419000024674500000322810000000000000                                                                   JERINGA DESECHABLE 20 ml 21*1 1/2SIN     1
CC0000055242968A202100000027834200000027834204/12/20210931    3190333624042196419000053074400000607910000000000000                                                               GASA ESTERIL 10*10 SOBRE X 3 UNIDADESSOB     3
CC0000055242968A202100000027834200000027834204/12/20210931    3190333624042196419000000101000001101640000000000000                                                                  AGUJA DESECHABLE  23G X 1 1/2 PULGSOB     1
CC0000055242968A202100000027834200000027834204/12/20210931    3190333624042196419000020060000000225230000000000000                                                               AGUJA SPINOCAN 27G X 3 1/2 PU 4503902SIN     1
CC0000055242968A202100000027834200000027834204/12/20210931    31903336240421964190000E1AB0300003888390000000000000                                                            SOLUCION SALINA 0.9% SLN INY BO X 500 MLBOL     5
CC0000055242968A202100000027834200000027834204/12/20210931    31903336240421964190000E1AB0200000199290000000000000                                                            SOLUCION SALINA 0.9% SLN INY BO X 100 MLBIN     1
CC0000055242968A202100000027834200000027834204/12/20210931    31903336240421964190000N1BA0300000217900000000000000                                                                    BUPIROP 0.5% C/E Sln Iny x 20 mlVAL     1
CC0000055242968A202100000027834200000027834204/12/20210931    31903336240421964190000C01C0300001261020000000000000                                                               ETILEFRINA HCL SLN INY 10 MG/1 ML /R/AMP     1
CC0000055242968A202100000027834200000027834204/12/20210931    31903336240421964190000A4AD0200000202990000000000000                                                                     PLITICAN HCL Sln Iny 50 mg/2 mlAMP     1
CC0000055242968A202100000027834200000027834204/12/20210931    31903336240421964190000M01A0400001341250000000000000                                                                              DYNASTAT AMP 40 MG /R/VAL     1
CC0000055242968A202100000027834200000027834204/12/20210931    31903336240421964190000H02AB500001664950000000000000                                                            DEXAMETASONA SLN INY 8 MG/2 ML AMP /CDS/AMP     1
CC0000055242968A202100000027834200000027834204/12/20210931    31903336240421964190000N1BA0500000647360000000000000                                                                  BUPIROP 0.5% PESADO SLN INY X 4 MLAPC     1
CC0000055242968A202100000027834200000027834204/12/20210931    31903336240421964190000N1AH0200003906560000000000000                                                                     FENTANIL Iny 0.05 mg/ml x 10 mlAMP     1
