RC0001043476962H202100000556544200000556544204/12/20211653    31902296237421964250000E1AB0200000199290000000000000                                                            SOLUCION SALINA 0.9% SLN INY BO X 100 MLBIN     2
RC0001043476962H202100000556544200000556544204/12/20211716    31902409237421964250000E1AD0200003888320000000000000                                                                              HARTMAN SLN INY 500 MLBOL     1
RC0001043476962H202100000556544200000556544204/12/20212239     3300009237421964250000S2BA0200000468180000000000000                                                                   SOLU-MEDROL SLN INY 40 MG/ML  /R/VAL     2
RC0001043476962H202100000556544200000556544204/12/20211005     3300009237421964250000S2BA0200000468180000000000000                                                                   SOLU-MEDROL SLN INY 40 MG/ML  /R/VAL     2
RC0001043476962H202100000556544200000556544204/12/20210005     3300009237421964250000S2BA0200000468180000000000000                                                                   SOLU-MEDROL SLN INY 40 MG/ML  /R/VAL     1
RC0001043476962H202100000556544200000556544204/12/20211005     3300009237421964250000N2BE1100000836430000000000000                                             ACETAMINOFEN 150MG/5ML(3%) JBE INST FCO X 60ML AMER GENCAJ     1
RC0001043476962H202100000556544200000556544204/12/20211333    31903290237421964250000V07A1300000502600000000000000                                                                                AGUA ESTERIL x 10 mlAMP     3
