CC0001047230087U202100050131909200050131909204/12/20210012    3150029423942196432000038568200000257000000000000000                                                                                   SONDA NELATON #06SIN     1
CC0001047230087U202100050131909200050131909204/12/20210012    3150029423942196432000001956000001620610000000000000                                                                      CONECTOR MICRO CLAVE LAT-MC100SOB     1
CC0001047230087U202100050131909200050131909204/12/20210012    31500294239421964320000Q1AA7200000610630000000000000                                                            CATETER PERIFE INTROCAN # 20G 4251644-04SIN     1
CC0001047230087U202100050131909200050131909204/12/20210012    3150029423942196432000016830000000970620000000000000                                                             SIST FIJACION CAT PERIFERICO 6.5X7 1683SOB     1
RC0001046728030U202100050131909200050131909204/12/20210012    31500294239421964320000E1AA0100003888590000000000000                                                                        DEXTROSA 5% Sln Iny X 500 mlBOL     1
