CC0001051681679H202100000556546400000556546404/12/20211647     3300009237421964250000A03F0300001626860000000000000                                                                   METOCLOPRAMIDA SLN INY 10 MG/2 MLAMP     1
CC0001051681679H202100000556546400000556546404/12/20211248    31902788237421964250000E1AB0200000199290000000000000                                                            SOLUCION SALINA 0.9% SLN INY BO X 100 MLBIN     1
CC0001051681679H202100000556546400000556546404/12/20212244    31903152237421964250000E1AB0300003888390000000000000                                                            SOLUCION SALINA 0.9% SLN INY BO X 500 MLBOL     1
CC0001051681679H202100000556546400000556546404/12/20211300    31902963237421964250000E1AB0300003888390000000000000                                                            SOLUCION SALINA 0.9% SLN INY BO X 500 MLBOL     2
CC0001051681679H202100000556546400000556546404/12/20211300    31902963237421964250000E1AD0300000199490000000000000                                         LACTATO RINGER USP (HARTMANN)  SOL INY  BOL X 1000ML BAXTERBIN     2
CC0001051681679H202100000556546400000556546404/12/20210806     3300009237421964250000C09CA400001277130000000000000                                                                                  LOSARTAN TAB 50 MGTAB     1
CC0001051681679H202100000556546400000556546404/12/20210806     3300009237421964250000N2BB0200000513030000000000000                                                                           LISALGIL Sln Iny 2 g/5 mlAMP     3
CC0001051681679H202100000556546400000556546404/12/20210806     3300009237421964250000A02B0800001276960000000000000                                                                                 OMEPRAZOL CAP 20 MGCAP     2
CC0001051681679H202100000556546400000556546404/12/20211647     3300009237421964250000J01CR200000947130000000000000                                                              AMPICILINA /SULBACTAN POLVO LIOF 1.5 GAMP     2
CC0001051681679H202100000556546400000556546404/12/20210805     3300009237421964250000J01CR200000947130000000000000                                                              AMPICILINA /SULBACTAN POLVO LIOF 1.5 GAMP     4
CC0001051681679H202100000556546400000556546404/12/20211647     3300009237421964250000N2BE2200001252930000000000000                                                                             ACETAMINOFEN Tab 500 MGTAB     2
CC0001051681679H202100000556546400000556546404/12/20210806     3300009237421964250000N2BE2200001252930000000000000                                                                             ACETAMINOFEN Tab 500 MGTAB     8
CC0001051681679H202100000556546400000556546404/12/20210806     3300009237421964250000N2AX0900001672040000000000000                                                                              TRAMADOL SLN INY 50 MGAMP     3
CC0001051681679H202100000556546400000556546404/12/20210122     3300009237421964250000N2AX0900001672040000000000000                                                                              TRAMADOL SLN INY 50 MGAMP     3
CC0001051681679H202100000556546400000556546404/12/20211247    31902788237421964250000V07A1300000502600000000000000                                                                                AGUA ESTERIL x 10 mlAMP     5
