CC0000041782192U202100050131913000050131913004/12/20211205    31901181239421964320000B05C0200001339660000000000000                                                                        SOLUCION SALINA 0.9% X 10 MLJRP     1
CC0000041782192U202100050131913000050131913004/12/20211205    3190118123942196432000001956000001620610000000000000                                                                      CONECTOR MICRO CLAVE LAT-MC100SOB     1
CC0000041782192U202100050131913000050131913004/12/20211205    31901181239421964320000Q1AA7200000610630000000000000                                                            CATETER PERIFE INTROCAN # 20G 4251644-04SIN     1
CC0000041782192U202100050131913000050131913004/12/20211205    3190118123942196432000016830000000970620000000000000                                                             SIST FIJACION CAT PERIFERICO 6.5X7 1683SOB     1
