CC0000013887621H202100015112735700015112735704/12/20211022    3150055523742196425000011085100001082120000000000000                                                                           GUANTE QUIRURGICO TALLA 7SOB     1
CC0001129564191H202100015112735700015112735704/12/20211022    3150055523742196425000011085100001082120000000000000                                                                           GUANTE QUIRURGICO TALLA 7SOB     1
CC0000013887621H202100015112735700015112735704/12/20211022    3150055523742196425000013077800000471960000000000000                                                             GASA NO TEJIDA EST 7.5 X 7.5 SOB X 3 UNSOB    10
CC0001129564191H202100015112735700015112735704/12/20211022    3150055523742196425000013077800000471960000000000000                                                             GASA NO TEJIDA EST 7.5 X 7.5 SOB X 3 UNSOB    10
CC0000013887621H202100015112735700015112735704/12/20211022    3150055523742196425000044370800000224140000000000000                                                                                IOBAN 2 90 X 45 6650SIN     1
CC0001129564191H202100015112735700015112735704/12/20211022    3150055523742196425000044370800000224140000000000000                                                                                IOBAN 2 90 X 45 6650SIN     1
