MS0010053369121H202100015132528100015132528104/12/20211453    3190311723742196425000045136100001419300000000000000                                                                            LANCETA DEXTROMETER X UNPZA     2
MS0010053369121H202100015132528100015132528104/12/20211453    3190311723742196425000011048600000223020000000000000                                                                 JERINGA VACUNACION 3ML C/AGU 302542SIN     8
MS0010053369121H202100015132528100015132528104/12/20211453    3190311723742196425000036441300000236540000000000000                                                                    JERINGA 1 ML GASES ARTERIAL 9023SIN     1
MS0010053369121H202100015132528100015132528104/12/20211453    3190311723742196425000024674000001138340000000000000   JERINGA 3PARTES C/A 10ML REF JEHL005 CAJ X 100 ALFASAFE  21GX1 PULG 1/2 PULG BN EXENTO-DC.417/202PZA    10
MS0010053369121H202100015132528100015132528104/12/20211453    3190311723742196425000011047900000223010000000000000                                                                            JERINGA X 1ML REF 302579SIN     5
MS0010053369121H202100015132528100015132528104/12/20211453    3190311723742196425000011082700001620070000000000000                                                               EQUIPO SET PRIMARIO C/CLAVE REF 14001BOL     1
MS0010053369121H202100015132528100015132528104/12/20211453    31903117237421964250000Q1AA7400003911720000000000000                                                            CATETER PERIFE INTROCAN # 24G 4251601-04SOB     2
MS0010053369121H202100015132528100015132528104/12/20211453    3190311723742196425000000602600001259280000000000000                                                             APOSITO TEGADERM IV PD 1610 5CM X 5.7CMSOB     1
MS0010053369121H202100015132528100015132528104/12/20211453    31903117237421964250000E1AA1400003888550000000000000                                                                         DEXTROSA 10% SLN INY 250 MLBOL     1
MS0010053369121H202100015132528100015132528104/12/20211453    3190311723742196425000011137100001419310000000000000                                                               TIRA GLUCOMETRIA FREESTYLE H OPTIUM .PZA     2
