CC0000072339909H202100015112736700015112736704/12/20212005    3150035023742196425000039175200001072070000000000000                                                                           TUBO ENDOTRAQUEAL C/B 8.0SOB     2
CC0000072339909H202100015112736700015112736704/12/20212005    3150035023742196425000039176700001029620000000000000                                                                    SUJETADOR TUBO ENDOTRAQUEAL 9799SOB     1
CC0000072339909H202100015112736700015112736704/12/20212005    3150035023742196425000022108000003906060000000000000                                                            SIST CERRAD ASPIRAC TRACH  22108-5 14 FRSOB     1
CC0000032776593H202100015112736700015112736704/12/20212005    3150035023742196425000011004400000259880000000000000                                                                 SONDA TRACH CARE 14F CORTA 221036-5SOB     1
CC0000072339909H202100015112736700015112736704/12/20212005    3150035023742196425000043492400000516570000000000000                                                                   GUIA P/TUBO ENDOTRAQ ADULTO 85865SIN     2
CC0000072339909H202100015112736700015112736704/12/20212005    3150035023742196425000011084700000516550000000000000                                                                FILTRO CALOR-HUMEDAD AD REF 352/5877SIN     1
CC0000072339909H202100015112736700015112736704/12/20212005    3150035023742196425000031010900000762730000000000000                                                                          CANULA GUEDEL # 4 (100 MM)SOB     1
