CC0000003710447H202100015032646400015032646404/12/20210454    3190093323742196425000011057400001203370000000000000                                                                             PA?AL TENA TALLA M SLIPPZA     3
CC0000057299651H202100015032646400015032646404/12/20210454    3190093323742196425000001956000001620610000000000000                                                                      CONECTOR MICRO CLAVE LAT-MC100SOB     1
RC0001043476962H202100015032646400015032646404/12/20210454    3190093323742196425000001956000001620610000000000000                                                                      CONECTOR MICRO CLAVE LAT-MC100SOB     1
CC0000057299651H202100015032646400015032646404/12/20210454    31900933237421964250000Q1AA7300000610640000000000000                                                            CATETER PERIFE INTROCAN # 22G 4251628-04SIN     2
RC0001043476962H202100015032646400015032646404/12/20210454    31900933237421964250000Q1AA7400003911720000000000000                                                            CATETER PERIFE INTROCAN # 24G 4251601-04SOB     2
RC0001043476962H202100015032646400015032646404/12/20210454    3190093323742196425000000602600001259280000000000000                                                             APOSITO TEGADERM IV PD 1610 5CM X 5.7CMSOB     1
CC0000057299651H202100015032646400015032646404/12/20210454    3190093323742196425000016830000000970620000000000000                                                             SIST FIJACION CAT PERIFERICO 6.5X7 1683SOB     1
