RC0001046723141H202100015122546500015122546504/12/20211825    3150024423742196425000011060400001010330000000000000                                                            SENSOR PULSOX SPO2 LNCS NEONATAL MP00792PZA     1
RC0001063188076H202100015122546500015122546504/12/20211825    3150024423742196425000011060400001010330000000000000                                                            SENSOR PULSOX SPO2 LNCS NEONATAL MP00792PZA     1
TI0001103512693H202100015122546500015122546504/12/20211825    3150024423742196425000011082700001620070000000000000                                                               EQUIPO SET PRIMARIO C/CLAVE REF 14001BOL     1
RC0001240292997H202100015122546500015122546504/12/20211825    3150024423742196425000011082700001620070000000000000                                                               EQUIPO SET PRIMARIO C/CLAVE REF 14001BOL     1
TI0001103512693H202100015122546500015122546504/12/20211825    3150024423742196425000030936900001431840000000000000                                                                                              BURETABOL     1
RC0001240292997H202100015122546500015122546504/12/20211825    3150024423742196425000011070800000471170000000000000                                                                        SAF GEL TUBO X 85 G CONVATECTUB     1
RC0001043033404H202100015122546500015122546504/12/20211825    31500244237421964250000E1AD0200003888320000000000000                                                                              HARTMAN SLN INY 500 MLBOL     1
