TI0001047050967H202100015052801400015052801404/12/20212008    3190315223742196425000045136100001419300000000000000                                                                            LANCETA DEXTROMETER X UNPZA     6
CC0000032753507H202100015052801400015052801404/12/20212008    3190315223742196425000011082700001620070000000000000                                                               EQUIPO SET PRIMARIO C/CLAVE REF 14001BOL     1
CC0000032753507H202100015052801400015052801404/12/20212008    3190315223742196425000030936900001431840000000000000                                                                                              BURETABOL     1
TI0001139434005H202100015052801400015052801404/12/20212008    31903152237421964250000E1AD0300000199490000000000000                                         LACTATO RINGER USP (HARTMANN)  SOL INY  BOL X 1000ML BAXTERBIN     2
CC0001051681679H202100015052801400015052801404/12/20212008    31903152237421964250000E1AB0300003888390000000000000                                                            SOLUCION SALINA 0.9% SLN INY BO X 500 MLBOL     1
CC0000032889993H202100015052801400015052801404/12/20212008    31903152237421964250000E1AB0300003888390000000000000                                                            SOLUCION SALINA 0.9% SLN INY BO X 500 MLBOL     1
CC0000022406887H202100015052801400015052801404/12/20212008    31903152237421964250000E1AB0300003888390000000000000                                                            SOLUCION SALINA 0.9% SLN INY BO X 500 MLBOL     1
TI0001047050967H202100015052801400015052801404/12/20212008    3190315223742196425000011137100001419310000000000000                                                               TIRA GLUCOMETRIA FREESTYLE H OPTIUM .PZA     6
CC0000032753507H202100015052801400015052801404/12/20212008    3190315223742196425000011127400001413910000000000000                                                            EQUIPO ADMINIST NUTR PUNZON REF 674669 BBOL     1
