CC0000019490174H202100000556544500000556544504/12/20211248     3300009237421964250000B1AB0200003939510000000000000                 ENOXAPARINA SODICA 40MG/0.4ML(100MG/ML) SOL INY INST CAJ X 2JERPREL X 0.4ML TECHDOWJRP     1
CC0000019490174H202100000556544500000556544504/12/20210829     3300010237421964250000B1AB0200003939510000000000000                 ENOXAPARINA SODICA 40MG/0.4ML(100MG/ML) SOL INY INST CAJ X 2JERPREL X 0.4ML TECHDOWJRP     1
CC0000019490174H202100000556544500000556544504/12/20211248     3300009237421964250000C7FA0200001277980000000000000                                                                                    NORVAS TAB 10 MGTAB     1
CC0000019490174H202100000556544500000556544504/12/20210830     3300010237421964250000C7FA0200001277980000000000000                                                                                    NORVAS TAB 10 MGTAB     1
CC0000019490174H202100000556544500000556544504/12/20210830     3300010237421964250000C2EA0400001278030000000000000                                                                                   RENITEC TAB 20 MGTAB     1
CC0000019490174H202100000556544500000556544504/12/20211248     3300009237421964250000J01D1300001469600000000000000                                                                               POZINEG POLVO INY 1 GVAL     2
CC0000019490174H202100000556544500000556544504/12/20210829     3300010237421964250000J01D1300001469600000000000000                                                                               POZINEG POLVO INY 1 GVAL     4
CC0000019490174H202100000556544500000556544504/12/20210830     3300010237421964250000N3AB1000001379310000000000000                                                                            NEURONTIN Cap 400 mg /R/CAP     1
CC0000019490174H202100000556544500000556544504/12/20211249     3300009237421964250000A11A2200001050880000000000000                                                                 GLUCERNA LIQUIDO 1.5 KCAL X 1000 MLFCO     1
CC0000019490174H202100000556544500000556544504/12/20210829     3300010237421964250000A11A2200001050880000000000000                                                                 GLUCERNA LIQUIDO 1.5 KCAL X 1000 MLFCO     1
CC0000019490174H202100000556544500000556544504/12/20210829     3300010237421964250000A02BC700001684270000000000000                                                            OMEPRAZOL 40MG POLVO LIOFILIZADO AMPOLLAVAL     1
