TI0001139434005H202100015122546100015122546104/12/20210914    31500568237421964250000V07A1300000502600000000000000                                                                                AGUA ESTERIL x 10 mlAMP     3
TI0001103512693H202100015122546100015122546104/12/20210914    31500568237421964250000V07A1300000502600000000000000                                                                                AGUA ESTERIL x 10 mlAMP     3
TI0001047050967H202100015122546100015122546104/12/20210914    31500568237421964250000V07A1300000502600000000000000                                                                                AGUA ESTERIL x 10 mlAMP     3
RC0001240292997H202100015122546100015122546104/12/20210914    31500568237421964250000V07A1300000502600000000000000                                                                                AGUA ESTERIL x 10 mlAMP     3
RC0001044671776H202100015122546100015122546104/12/20210914    31500568237421964250000V07A1300000502600000000000000                                                                                AGUA ESTERIL x 10 mlAMP     3
RC0001046723141H202100015122546100015122546104/12/20210914    31500568237421964250000V07A1300000502600000000000000                                                                                AGUA ESTERIL x 10 mlAMP     3
TI0001063956066H202100015122546100015122546104/12/20210914    31500568237421964250000V07A1300000502600000000000000                                                                                AGUA ESTERIL x 10 mlAMP     3
RC0001063188076H202100015122546100015122546104/12/20210914    31500568237421964250000V07A1300000502600000000000000                                                                                AGUA ESTERIL x 10 mlAMP     3
TI0001103512693H202100015122546100015122546104/12/20210914    3150056823742196425000035356500003919000000000000000                                                                                        LLAVE 3 VIASSOB     2
RC0001240292997H202100015122546100015122546104/12/20210914    3150056823742196425000035356500003919000000000000000                                                                                        LLAVE 3 VIASSOB     2
RC0001044671776H202100015122546100015122546104/12/20210914    3150056823742196425000035356500003919000000000000000                                                                                        LLAVE 3 VIASSOB     2
RC0001046723141H202100015122546100015122546104/12/20210914    3150056823742196425000035356500003919000000000000000                                                                                        LLAVE 3 VIASSOB     2
TI0001139434005H202100015122546100015122546104/12/20210914    3150056823742196425000045136100001419300000000000000                                                                            LANCETA DEXTROMETER X UNPZA     3
TI0001103512693H202100015122546100015122546104/12/20210914    3150056823742196425000045136100001419300000000000000                                                                            LANCETA DEXTROMETER X UNPZA     3
TI0001047050967H202100015122546100015122546104/12/20210914    3150056823742196425000045136100001419300000000000000                                                                            LANCETA DEXTROMETER X UNPZA     7
RC0001240292997H202100015122546100015122546104/12/20210914    3150056823742196425000045136100001419300000000000000                                                                            LANCETA DEXTROMETER X UNPZA     3
RC0001044671776H202100015122546100015122546104/12/20210914    3150056823742196425000045136100001419300000000000000                                                                            LANCETA DEXTROMETER X UNPZA     3
RC0001046723141H202100015122546100015122546104/12/20210914    3150056823742196425000045136100001419300000000000000                                                                            LANCETA DEXTROMETER X UNPZA     3
TI0001063956066H202100015122546100015122546104/12/20210914    3150056823742196425000045136100001419300000000000000                                                                            LANCETA DEXTROMETER X UNPZA     3
RC0001063188076H202100015122546100015122546104/12/20210914    3150056823742196425000045136100001419300000000000000                                                                            LANCETA DEXTROMETER X UNPZA     3
TI0001103512693H202100015122546100015122546104/12/20210914    3150056823742196425000024675000001585130000000000000                                                                    JERINGA DESECHABLE 50 ml S/AGUJASOB     2
RC0001240292997H202100015122546100015122546104/12/20210914    3150056823742196425000024675000001585130000000000000                                                                    JERINGA DESECHABLE 50 ml S/AGUJASOB     2
TI0001139434005H202100015122546100015122546104/12/20210914    3150056823742196425000024673000001411210000000000000                                                                  JERINGA DESECHABLE 3 ML 21 X 1 1/2SOB     5
TI0001103512693H202100015122546100015122546104/12/20210914    3150056823742196425000024673000001411210000000000000                                                                  JERINGA DESECHABLE 3 ML 21 X 1 1/2SOB     5
TI0001047050967H202100015122546100015122546104/12/20210914    3150056823742196425000024673000001411210000000000000                                                                  JERINGA DESECHABLE 3 ML 21 X 1 1/2SOB     5
RC0001240292997H202100015122546100015122546104/12/20210914    3150056823742196425000024673000001411210000000000000                                                                  JERINGA DESECHABLE 3 ML 21 X 1 1/2SOB     5
RC0001044671776H202100015122546100015122546104/12/20210914    3150056823742196425000024673000001411210000000000000                                                                  JERINGA DESECHABLE 3 ML 21 X 1 1/2SOB     5
RC0001046723141H202100015122546100015122546104/12/20210914    3150056823742196425000024673000001411210000000000000                                                                  JERINGA DESECHABLE 3 ML 21 X 1 1/2SOB     5
TI0001063956066H202100015122546100015122546104/12/20210914    3150056823742196425000024673000001411210000000000000                                                                  JERINGA DESECHABLE 3 ML 21 X 1 1/2SOB     5
RC0001063188076H202100015122546100015122546104/12/20210914    3150056823742196425000024673000001411210000000000000                                                                  JERINGA DESECHABLE 3 ML 21 X 1 1/2SOB     5
TI0001139434005H202100015122546100015122546104/12/20210914    3150056823742196425000024674500000322810000000000000                                                                   JERINGA DESECHABLE 20 ml 21*1 1/2SIN     2
TI0001103512693H202100015122546100015122546104/12/20210914    3150056823742196425000024674500000322810000000000000                                                                   JERINGA DESECHABLE 20 ml 21*1 1/2SIN     2
TI0001047050967H202100015122546100015122546104/12/20210914    3150056823742196425000024674500000322810000000000000                                                                   JERINGA DESECHABLE 20 ml 21*1 1/2SIN     2
RC0001240292997H202100015122546100015122546104/12/20210914    3150056823742196425000024674500000322810000000000000                                                                   JERINGA DESECHABLE 20 ml 21*1 1/2SIN     2
RC0001044671776H202100015122546100015122546104/12/20210914    3150056823742196425000024674500000322810000000000000                                                                   JERINGA DESECHABLE 20 ml 21*1 1/2SIN     2
RC0001046723141H202100015122546100015122546104/12/20210914    3150056823742196425000024674500000322810000000000000                                                                   JERINGA DESECHABLE 20 ml 21*1 1/2SIN     2
TI0001063956066H202100015122546100015122546104/12/20210914    3150056823742196425000024674500000322810000000000000                                                                   JERINGA DESECHABLE 20 ml 21*1 1/2SIN     2
RC0001063188076H202100015122546100015122546104/12/20210914    3150056823742196425000024674500000322810000000000000                                                                   JERINGA DESECHABLE 20 ml 21*1 1/2SIN     2
TI0001139434005H202100015122546100015122546104/12/20210914    3150056823742196425000024674000001138340000000000000   JERINGA 3PARTES C/A 10ML REF JEHL005 CAJ X 100 ALFASAFE  21GX1 PULG 1/2 PULG BN EXENTO-DC.417/202PZA    10
TI0001103512693H202100015122546100015122546104/12/20210914    3150056823742196425000024674000001138340000000000000   JERINGA 3PARTES C/A 10ML REF JEHL005 CAJ X 100 ALFASAFE  21GX1 PULG 1/2 PULG BN EXENTO-DC.417/202PZA    10
TI0001047050967H202100015122546100015122546104/12/20210914    3150056823742196425000024674000001138340000000000000   JERINGA 3PARTES C/A 10ML REF JEHL005 CAJ X 100 ALFASAFE  21GX1 PULG 1/2 PULG BN EXENTO-DC.417/202PZA    10
RC0001240292997H202100015122546100015122546104/12/20210914    3150056823742196425000024674000001138340000000000000   JERINGA 3PARTES C/A 10ML REF JEHL005 CAJ X 100 ALFASAFE  21GX1 PULG 1/2 PULG BN EXENTO-DC.417/202PZA    10
RC0001044671776H202100015122546100015122546104/12/20210914    3150056823742196425000024674000001138340000000000000   JERINGA 3PARTES C/A 10ML REF JEHL005 CAJ X 100 ALFASAFE  21GX1 PULG 1/2 PULG BN EXENTO-DC.417/202PZA    10
RC0001046723141H202100015122546100015122546104/12/20210914    3150056823742196425000024674000001138340000000000000   JERINGA 3PARTES C/A 10ML REF JEHL005 CAJ X 100 ALFASAFE  21GX1 PULG 1/2 PULG BN EXENTO-DC.417/202PZA    10
TI0001063956066H202100015122546100015122546104/12/20210914    3150056823742196425000024674000001138340000000000000   JERINGA 3PARTES C/A 10ML REF JEHL005 CAJ X 100 ALFASAFE  21GX1 PULG 1/2 PULG BN EXENTO-DC.417/202PZA    10
RC0001063188076H202100015122546100015122546104/12/20210914    3150056823742196425000024674000001138340000000000000   JERINGA 3PARTES C/A 10ML REF JEHL005 CAJ X 100 ALFASAFE  21GX1 PULG 1/2 PULG BN EXENTO-DC.417/202PZA    10
TI0001139434005H202100015122546100015122546104/12/20210914    3150056823742196425000024673600000222980000000000000                                                                     JERINGA DESECHABLE 5 ml 27*11/2SIN     5
TI0001103512693H202100015122546100015122546104/12/20210914    3150056823742196425000024673600000222980000000000000                                                                     JERINGA DESECHABLE 5 ml 27*11/2SIN     5
TI0001047050967H202100015122546100015122546104/12/20210914    3150056823742196425000024673600000222980000000000000                                                                     JERINGA DESECHABLE 5 ml 27*11/2SIN     5
RC0001240292997H202100015122546100015122546104/12/20210914    3150056823742196425000024673600000222980000000000000                                                                     JERINGA DESECHABLE 5 ml 27*11/2SIN     5
RC0001044671776H202100015122546100015122546104/12/20210914    3150056823742196425000024673600000222980000000000000                                                                     JERINGA DESECHABLE 5 ml 27*11/2SIN     5
RC0001046723141H202100015122546100015122546104/12/20210914    3150056823742196425000024673600000222980000000000000                                                                     JERINGA DESECHABLE 5 ml 27*11/2SIN     5
TI0001063956066H202100015122546100015122546104/12/20210914    3150056823742196425000024673600000222980000000000000                                                                     JERINGA DESECHABLE 5 ml 27*11/2SIN     5
RC0001063188076H202100015122546100015122546104/12/20210914    3150056823742196425000024673600000222980000000000000                                                                     JERINGA DESECHABLE 5 ml 27*11/2SIN     5
RC0001044671776H202100015122546100015122546104/12/20210914    3150056823742196425000022426800001140510000000000000                                                                    EQUIPO MACROGOTEO BAXTER MRC0001SOB     1
RC0001044671776H202100015122546100015122546104/12/20210914    3150056823742196425000011082700001620070000000000000                                                               EQUIPO SET PRIMARIO C/CLAVE REF 14001BOL     2
RC0001044671776H202100015122546100015122546104/12/20210914    3150056823742196425000030936900001431840000000000000                                                                                              BURETABOL     1
TI0001139434005H202100015122546100015122546104/12/20210914    3150056823742196425000000602600001259280000000000000                                                             APOSITO TEGADERM IV PD 1610 5CM X 5.7CMSOB     1
TI0001103512693H202100015122546100015122546104/12/20210914    3150056823742196425000000602600001259280000000000000                                                             APOSITO TEGADERM IV PD 1610 5CM X 5.7CMSOB     1
TI0001047050967H202100015122546100015122546104/12/20210914    3150056823742196425000000602600001259280000000000000                                                             APOSITO TEGADERM IV PD 1610 5CM X 5.7CMSOB     1
RC0001240292997H202100015122546100015122546104/12/20210914    3150056823742196425000000602600001259280000000000000                                                             APOSITO TEGADERM IV PD 1610 5CM X 5.7CMSOB     1
RC0001044671776H202100015122546100015122546104/12/20210914    3150056823742196425000000602600001259280000000000000                                                             APOSITO TEGADERM IV PD 1610 5CM X 5.7CMSOB     1
RC0001046723141H202100015122546100015122546104/12/20210914    3150056823742196425000000602600001259280000000000000                                                             APOSITO TEGADERM IV PD 1610 5CM X 5.7CMSOB     1
TI0001063956066H202100015122546100015122546104/12/20210914    3150056823742196425000000602600001259280000000000000                                                             APOSITO TEGADERM IV PD 1610 5CM X 5.7CMSOB     1
RC0001063188076H202100015122546100015122546104/12/20210914    3150056823742196425000000602600001259280000000000000                                                             APOSITO TEGADERM IV PD 1610 5CM X 5.7CMSOB     1
TI0001139434005H202100015122546100015122546104/12/20210914    3150056823742196425000020056600001101530000000000000                                                                AGUJA HIPODERMICA DESECH 18G X 1 1/2SOB     3
TI0001103512693H202100015122546100015122546104/12/20210914    3150056823742196425000020056600001101530000000000000                                                                AGUJA HIPODERMICA DESECH 18G X 1 1/2SOB     3
TI0001047050967H202100015122546100015122546104/12/20210914    3150056823742196425000020056600001101530000000000000                                                                AGUJA HIPODERMICA DESECH 18G X 1 1/2SOB     3
RC0001240292997H202100015122546100015122546104/12/20210914    3150056823742196425000020056600001101530000000000000                                                                AGUJA HIPODERMICA DESECH 18G X 1 1/2SOB     3
RC0001044671776H202100015122546100015122546104/12/20210914    3150056823742196425000020056600001101530000000000000                                                                AGUJA HIPODERMICA DESECH 18G X 1 1/2SOB     3
RC0001046723141H202100015122546100015122546104/12/20210914    3150056823742196425000020056600001101530000000000000                                                                AGUJA HIPODERMICA DESECH 18G X 1 1/2SOB     3
TI0001063956066H202100015122546100015122546104/12/20210914    3150056823742196425000020056600001101530000000000000                                                                AGUJA HIPODERMICA DESECH 18G X 1 1/2SOB     3
RC0001063188076H202100015122546100015122546104/12/20210914    3150056823742196425000020056600001101530000000000000                                                                AGUJA HIPODERMICA DESECH 18G X 1 1/2SOB     3
RC0001046723141H202100015122546100015122546104/12/20210914    31500568237421964250000E1AB0700003888350000000000000                                                            SOLUCION SALINA 0.9% SLN INY BO X 250 MLBOL     2
TI0001103512693H202100015122546100015122546104/12/20210914    31500568237421964250000E1AC0100000199400000000000000                                                                          SUERO MIXTO Sln Iny 500 mlBIN     2
RC0001240292997H202100015122546100015122546104/12/20210914    31500568237421964250000E1AC0100000199400000000000000                                                                          SUERO MIXTO Sln Iny 500 mlBIN     2
RC0001044671776H202100015122546100015122546104/12/20210914    31500568237421964250000E1AC0100000199400000000000000                                                                          SUERO MIXTO Sln Iny 500 mlBIN     2
RC0001063188076H202100015122546100015122546104/12/20210914    31500568237421964250000E1AC0100000199400000000000000                                                                          SUERO MIXTO Sln Iny 500 mlBIN     2
TI0001139434005H202100015122546100015122546104/12/20210914    3150056823742196425000011137100001419310000000000000                                                               TIRA GLUCOMETRIA FREESTYLE H OPTIUM .PZA     3
TI0001103512693H202100015122546100015122546104/12/20210914    3150056823742196425000011137100001419310000000000000                                                               TIRA GLUCOMETRIA FREESTYLE H OPTIUM .PZA     3
TI0001047050967H202100015122546100015122546104/12/20210914    3150056823742196425000011137100001419310000000000000                                                               TIRA GLUCOMETRIA FREESTYLE H OPTIUM .PZA     7
RC0001240292997H202100015122546100015122546104/12/20210914    3150056823742196425000011137100001419310000000000000                                                               TIRA GLUCOMETRIA FREESTYLE H OPTIUM .PZA     3
RC0001044671776H202100015122546100015122546104/12/20210914    3150056823742196425000011137100001419310000000000000                                                               TIRA GLUCOMETRIA FREESTYLE H OPTIUM .PZA     3
RC0001046723141H202100015122546100015122546104/12/20210914    3150056823742196425000011137100001419310000000000000                                                               TIRA GLUCOMETRIA FREESTYLE H OPTIUM .PZA     3
TI0001063956066H202100015122546100015122546104/12/20210914    3150056823742196425000011137100001419310000000000000                                                               TIRA GLUCOMETRIA FREESTYLE H OPTIUM .PZA     3
RC0001063188076H202100015122546100015122546104/12/20210914    3150056823742196425000011137100001419310000000000000                                                               TIRA GLUCOMETRIA FREESTYLE H OPTIUM .PZA     3
