MS0010053369121H202100015132528000015132528004/12/20211434    3190229623742196425000030161400001459220000000000000                                                                       MANGUERA SUCCION 6 MM*3.1 MTSSOB     1
MS0010053369121H202100015132528000015132528004/12/20211434    3190229623742196425000019819800000259860000000000000                                                                           SONDA TRACH CARE 8F 198-5SIN     1
MS0010053369121H202100015132528000015132528004/12/20211434    31902296237421964250000Q1AA1000000256790000000000000                                                                         SONDA ASPIRACION CONTROL #8SIN     5
RC0001044436459H202100015132528000015132528004/12/20211434    31902296237421964250000Q1AA1000000256790000000000000                                                                         SONDA ASPIRACION CONTROL #8SIN     5
MS0010053369121H202100015132528000015132528004/12/20211434    3190229623742196425000011059500001646260000000000000                                                              RESUCITADOR MANUAL NEONATAL LMI86-8086BOL     1
MS0010053369121H202100015132528000015132528004/12/20211434    3190229623742196425000024674000001138340000000000000   JERINGA 3PARTES C/A 10ML REF JEHL005 CAJ X 100 ALFASAFE  21GX1 PULG 1/2 PULG BN EXENTO-DC.417/202PZA     2
RC0001044236218H202100015132528000015132528004/12/20211434    3190229623742196425000024674000001138340000000000000   JERINGA 3PARTES C/A 10ML REF JEHL005 CAJ X 100 ALFASAFE  21GX1 PULG 1/2 PULG BN EXENTO-DC.417/202PZA     1
RC0001044236218H202100015132528000015132528004/12/20211434    3190229623742196425000063153700001294640000000000000                                                            CIRCUITO TERAPIA ALTO FLUJO PEDIAT RT330PZA     1
MS0010053369121H202100015132528000015132528004/12/20211434    3190229623742196425000025830800004020870000000000000CIRCUITO RESPIRATORIO NEONATAL REF AMVC1774-171 CAJ X 10 AQUAVENT NEO 1.6MT X 15MM - 22MM BN EXENTO-BOL     1
MS0010053369121H202100015132528000015132528004/12/20211434    3190229623742196425000013000200001148850000000000000                                                               CIRCUITO DESECHABLE NEOPUFF RD1300-10BOL     1
RC0001044236218H202100015132528000015132528004/12/20211434    3190229623742196425000001201000001287650000000000000                                                               CANULA NASALPREMATUR OPT312  OPTIFLOWPZA     1
MS0010053369121H202100015132528000015132528004/12/20211434    3190229623742196425000020816000001096410000000000000                                                                          LINER PARED DELGADA 1500CCBOL     1
MS0010053369121H202100015132528000015132528004/12/20211434    31902296237421964250000E1BA0100000198890000000000000                                                                   AGUA ESTERIL USP SLN INY X 500 MLBIN     1
RC0001044236218H202100015132528000015132528004/12/20211434    31902296237421964250000E1BA0100000198890000000000000                                                                   AGUA ESTERIL USP SLN INY X 500 MLBIN     1
RC0001044436459H202100015132528000015132528004/12/20211434    31902296237421964250000E1BA0100000198890000000000000                                                                   AGUA ESTERIL USP SLN INY X 500 MLBIN     1
MS0010053369121H202100015132528000015132528004/12/20211434    31902296237421964250000E1AB0200000199290000000000000                                                            SOLUCION SALINA 0.9% SLN INY BO X 100 MLBIN     1
RC0001044236218H202100015132528000015132528004/12/20211434    31902296237421964250000E1AB0200000199290000000000000                                                            SOLUCION SALINA 0.9% SLN INY BO X 100 MLBIN     1
RC0001044436459H202100015132528000015132528004/12/20211434    31902296237421964250000E1AB0200000199290000000000000                                                            SOLUCION SALINA 0.9% SLN INY BO X 100 MLBIN     1
