CC0000013825497H202100015012623800015012623804/12/20210747    3190294923742196425000043879200001138180000000000000                                                                                   HOJA BISTURI # 11SOB     1
CC0000013825497H202100015012623800015012623804/12/20210747    3190294923742196425000043879400001138170000000000000                                                                  HOJA BISTURI # 10 CSSB 10 01002000SOB     1
CC0000072199816H202100015012623800015012623804/12/20210747    3190294923742196425000023486400001318040000000000000                                                               GUANTE CIRUGIA NITRILO ALFASAFE 6 1/2SOB     2
CC0000013825497H202100015012623800015012623804/12/20210747    3190294923742196425000023486400001318040000000000000                                                               GUANTE CIRUGIA NITRILO ALFASAFE 6 1/2SOB     2
CC0000022332856H202100015012623800015012623804/12/20210747    3190294923742196425000023486400001318040000000000000                                                               GUANTE CIRUGIA NITRILO ALFASAFE 6 1/2SOB     2
CC0000072199816H202100015012623800015012623804/12/20210747    3190294923742196425000013077800000471960000000000000                                                             GASA NO TEJIDA EST 7.5 X 7.5 SOB X 3 UNSOB    10
CC0001143122547H202100015012623800015012623804/12/20210747    3190294923742196425000013077800000471960000000000000                                                             GASA NO TEJIDA EST 7.5 X 7.5 SOB X 3 UNSOB     3
CC0000013825497H202100015012623800015012623804/12/20210747    3190294923742196425000013077800000471960000000000000                                                             GASA NO TEJIDA EST 7.5 X 7.5 SOB X 3 UNSOB     5
CC0000022332856H202100015012623800015012623804/12/20210747    3190294923742196425000013077800000471960000000000000                                                             GASA NO TEJIDA EST 7.5 X 7.5 SOB X 3 UNSOB     5
