CC0001050950284U202100050131916500050131916504/12/20211713    3190118123942196432000049428300000860750000000000000                                                                       VENDA ELASTICA 4*5 NO ESTERILBOL     2
TI0001047048202U202100050131916500050131916504/12/20211713    3190118123942196432000011048600000223020000000000000                                                                 JERINGA VACUNACION 3ML C/AGU 302542SIN     4
TI0001047048202U202100050131916500050131916504/12/20211713    3190118123942196432000011089300001083990000000000000                                                              GUANTE ESTERIL LATEX S/POLVO TALLA 7.5SOB     4
TI0001047048202U202100050131916500050131916504/12/20211713    3190118123942196432000013077800000471960000000000000                                                             GASA NO TEJIDA EST 7.5 X 7.5 SOB X 3 UNSOB    10
CC0001050950284U202100050131916500050131916504/12/20211713    3190118123942196432000042743200003929860000000000000                   GASA ADHESIVA STRETCH REF 02038-00 ROL X 10MT FIXOMULL 15CM BN EXENTO-DC.417/2020CMT    30
TI0001047048202U202100050131916500050131916504/12/20211713    3190118123942196432000001956000001620610000000000000                                                                      CONECTOR MICRO CLAVE LAT-MC100SOB     1
TI0001047048202U202100050131916500050131916504/12/20211713    31901181239421964320000Q1AA7400003911720000000000000                                                            CATETER PERIFE INTROCAN # 24G 4251601-04SOB     2
TI0001047048202U202100050131916500050131916504/12/20211713    3190118123942196432000000602600001259280000000000000                                                             APOSITO TEGADERM IV PD 1610 5CM X 5.7CMSOB     1
CC0001050950284U202100050131916500050131916504/12/20211713    3190118123942196432000016830000000970620000000000000                                                             SIST FIJACION CAT PERIFERICO 6.5X7 1683SOB     1
CC0001030682177U202100050131916500050131916504/12/20211713    3190118123942196432000016830000000970620000000000000                                                             SIST FIJACION CAT PERIFERICO 6.5X7 1683SOB     1
CC0001030682177U202100050131916500050131916504/12/20211713    31901181239421964320000E1AD0300000199490000000000000                                         LACTATO RINGER USP (HARTMANN)  SOL INY  BOL X 1000ML BAXTERBIN     1
TI0001047048202U202100050131916500050131916504/12/20211713    31901181239421964320000E1AB0200000199290000000000000                                                            SOLUCION SALINA 0.9% SLN INY BO X 100 MLBIN     1
