CC0001140828821H202100000554929300000554929325/10/20210526     3300009237421964250000A02BC100001677520000000000000                                                                ESOMEPRAZOL POLVO LIOF INY 40 MG /R/VAL     1
CC0001140828821H202100000554929300000554929325/10/20211248     3300009237421964250000B1AB0900003939260000000000000                 ENOXAPARINA SODICA 60MG/0.6ML(100MG/ML) SOL INY INST CAJ X 2JERPREL X 0.6ML TECHDOWJRP     1
CC0001140828821H202100000554929300000554929325/10/20210527     3300009237421964250000B1AB0900003939260000000000000                 ENOXAPARINA SODICA 60MG/0.6ML(100MG/ML) SOL INY INST CAJ X 2JERPREL X 0.6ML TECHDOWJRP     1
CC0001140828821H202100000554929300000554929325/10/20211456    31902409237421964250000E1AB0500003888400000000000000                                                              SOLUCION SALINA 0.9% SLN INY X 1000 MLBOL     2
CC0001140828821H202100000554929300000554929325/10/20211248     3300009237421964250000H03AA500001315460000000000000                                                                                SYNTHROID TAB 50 MCGTAB     2
CC0001140828821H202100000554929300000554929325/10/20211248     3300009237421964250000J3BA0500001278190000000000000                                                                            BACTRIM F TAB 800/160 MGTAB     1
CC0001140828821H202100000554929300000554929325/10/20211248     3300009237421964250000J2AX0200001333950000000000000                                                                                 DIFLUCAN Cap 200 mgCAP     1
CC0001140828821H202100000554929300000554929325/10/20211122    31903290237421964250000V07A1300000502600000000000000                                                                                AGUA ESTERIL x 10 mlAMP     5
