TI0001042265795H202100000554954400000554954425/10/20212310    31500213237421964250000E1AA0100003888590000000000000                                                                        DEXTROSA 5% Sln Iny X 500 mlBOL     4
TI0001042265795H202100000554954400000554954425/10/20212013    31903294237421964250000E1AA0100003888590000000000000                                                                        DEXTROSA 5% Sln Iny X 500 mlBOL     3
TI0001042265795H202100000554954400000554954425/10/20212257     3300010237421964250000A12CA200001239800000000000000                     BICARBONATO SODIO 10MEQ/10ML(1MEQ/ML) SOL INY  CAJ X 100AMPX10ML FRESENIUS KABIAMP    14
TI0001042265795H202100000554954400000554954425/10/20212257     3300010237421964250000A12CA100001109460000000000000                                                              CLORURO SODIO SLN INY 2 MEQ/ML X 10 MLAMP     9
TI0001042265795H202100000554954400000554954425/10/20211800     3300009237421964250000A12BA100000552980000000000000                                                            CLORURO POTASIO Sln Iny AMP 20 MEQ/10 MLAMP     5
TI0001042265795H202100000554954400000554954425/10/20211743     3300010237421964250000H02A0100001664960000000000000                                                                        DEXAMETASONA SLN INY 4 MG/MLAMP     1
TI0001042265795H202100000554954400000554954425/10/20211743     3300010237421964250000L1BC8000003907750000000000000                                           CITARABINA 500MG/5ML(100MG/ML) SOL INY VIAL X 5ML ROPSOHNVAL     1
TI0001042265795H202100000554954400000554954425/10/20211743     3300010237421964250000L1BC2400001045890000000000000                                                                METOTREXATE SLN INY 50 MG / 2 ML /R/VAL     1
TI0001042265795H202100000554954400000554954425/10/20212013    31903294237421964250000V07A1300000502600000000000000                                                                                AGUA ESTERIL x 10 mlAMP     5
