CC0000019399557U202100050131364700050131364725/10/20211504    3190233723942196432000022426800001140510000000000000                                                                    EQUIPO MACROGOTEO BAXTER MRC0001SOB     1
CC0000000162131U202100050131364700050131364725/10/20211504    3190233723942196432000001956000001620610000000000000                                                                      CONECTOR MICRO CLAVE LAT-MC100SOB     1
CC0000000162131U202100050131364700050131364725/10/20211504    31902337239421964320000Q1AA7300000610640000000000000                                                            CATETER PERIFE INTROCAN # 22G 4251628-04SIN     1
CC0000000162131U202100050131364700050131364725/10/20211504    3190233723942196432000016830000000970620000000000000                                                             SIST FIJACION CAT PERIFERICO 6.5X7 1683SOB     1
