RC0001158469601U202100050131362500050131362525/10/20211235    3190145323942196432000045136100001419300000000000000                                                                            LANCETA DEXTROMETER X UNPZA     1
RC0001158469601U202100050131362500050131362525/10/20211235    3190145323942196432000011082700001620070000000000000                                                               EQUIPO SET PRIMARIO C/CLAVE REF 14001BOL     1
RC0001158469601U202100050131362500050131362525/10/20211235    31901453239421964320000Q1AA7400003911720000000000000                                                            CATETER PERIFE INTROCAN # 24G 4251601-04SOB     1
RC0001158469601U202100050131362500050131362525/10/20211235    3190145323942196432000000602600001259280000000000000                                                             APOSITO TEGADERM IV PD 1610 5CM X 5.7CMSOB     1
RC0001158469601U202100050131362500050131362525/10/20211235    31901453239421964320000E1AD0200003888320000000000000                                                                              HARTMAN SLN INY 500 MLBOL     1
RC0001158469601U202100050131362500050131362525/10/20211235    3190145323942196432000011137100001419310000000000000                                                               TIRA GLUCOMETRIA FREESTYLE H OPTIUM .PZA     1
