RC0001043711220H202100912790102500912790102525/10/20211810    31901634237421964250000Q1AA7300000610640000000000000                                                            CATETER PERIFE INTROCAN # 22G 4251628-04SIN     2
RC0001043711220H202100912790102500912790102525/10/20211810    3190163423742196425000001956000001620610000000000000                                                                      CONECTOR MICRO CLAVE LAT-MC100SOB     1
RC0001043711220H202100912790102500912790102525/10/20211810    31901634237421964250000E1AB0300003888390000000000000                                                            SOLUCION SALINA 0.9% SLN INY BO X 500 MLBOL     1
