CC0001042970504H202100015112644800015112644825/10/20212229    3150035023742196425000030161400001459220000000000000                                                                       MANGUERA SUCCION 6 MM*3.1 MTSSOB     1
CC0001042970504H202100015112644800015112644825/10/20212229    3150035023742196425000039176700001029620000000000000                                                                    SUJETADOR TUBO ENDOTRAQUEAL 9799SOB     1
CC0001042970504H202100015112644800015112644825/10/20212229    3150035023742196425000022108000003906060000000000000                                                            SIST CERRAD ASPIRAC TRACH  22108-5 14 FRSOB     1
CC0001042970504H202100015112644800015112644825/10/20212229    3150035023742196425000055816100001138270000000000000                                                            SET VENTILACI BASIC AD MP00349 180CM*22MBOL     1
CC0001042970504H202100015112644800015112644825/10/20212229    3150035023742196425000011059400001004740000000000000                                                              RESUCITADOR MANUAL AD-PED REF80-12-010BOL     1
CC0001042970504H202100015112644800015112644825/10/20212229    3150035023742196425000011084700000516550000000000000                                                                FILTRO CALOR-HUMEDAD AD REF 352/5877SIN     1
CC0001042970504H202100015112644800015112644825/10/20212229    3150035023742196425000011069600001466740000000000000                                                                                      NIPLE PLASTICOPZA     1
CC0001042970504H202100015112644800015112644825/10/20212229    3150035023742196425000011078200001605710000000000000                                                                 CONECTOR FIBROBRONCOSCOPIO 9591 40CSOB     1
CC0001042970504H202100015112644800015112644825/10/20212229    3150035023742196425000011077500001287420000000000000                                                            CIRCUITO RESP VENTST 5703041 OXYLOG 3000BOL     1
