CC0001047034752H202100000554933700000554933725/10/20211500     3300009237421964250000H02AB400001140460000000000000                                                              SUCCINA METILPREDNISOLONA 500MG VIA/R/VAL     1
CC0001047034752H202100000554933700000554933725/10/20211240     3300009237421964250000H02AB400001140460000000000000                                                              SUCCINA METILPREDNISOLONA 500MG VIA/R/VAL     1
CC0001047034752H202100000554933700000554933725/10/20211238    31902202237421964250000E1AB0500003888400000000000000                                                              SOLUCION SALINA 0.9% SLN INY X 1000 MLBOL     1
CC0001047034752H202100000554933700000554933725/10/20210752     3300010237421964250000V6DF2000001629900000000000000                                                                     ENSURE PLUS HN LIQUIDO X 237 MLFCO     1
CC0001047034752H202100000554933700000554933725/10/20210752     3300010237421964250000A02B0800001276960000000000000                                                                                 OMEPRAZOL CAP 20 MGCAP     1
CC0001047034752H202100000554933700000554933725/10/20211832     3300010237421964250000B02BA100000561560000000000000                                                                           VITAMINA K1 SLN INY 10 MGAMP     1
CC0001047034752H202100000554933700000554933725/10/20211422     3300009237421964250000J01CR300001659480000000000000                                                                  DELBACTAM POLVO LIOF SLN INY 4.5 GVAL     1
CC0001047034752H202100000554933700000554933725/10/20211241     3300009237421964250000J01CR300001659480000000000000                                                                  DELBACTAM POLVO LIOF SLN INY 4.5 GVAL     1
CC0001047034752H202100000554933700000554933725/10/20210752     3300010237421964250000J01CR300001659480000000000000                                                                  DELBACTAM POLVO LIOF SLN INY 4.5 GVAL     2
CC0001047034752H202100000554933700000554933725/10/20210752     3300010237421964250000J05AB000001277780000000000000                                                                                ACICLOVIR TAB 200 MGTAB     4
CC0001047034752H202100000554933700000554933725/10/20210752     3300010237421964250000N2BE2200001252930000000000000                                                                             ACETAMINOFEN Tab 500 MGTAB     2
CC0001047034752H202100000554933700000554933725/10/20211359    31903308237421964250000V07A1300000502600000000000000                                                                                AGUA ESTERIL x 10 mlAMP     8
