RC0001146543342H202100909398102500909398102525/10/20210605    3190302823742196425000011137100001419310000000000000                                                               TIRA GLUCOMETRIA FREESTYLE H OPTIUM .PZA     3
RC0001146543342H202100909398102500909398102525/10/20210605    3190302823742196425000024674000000220660000000000000                             JERINGA A 3 PARTES CON AGUJA  SOB X 1 RYMCO  10ML BN EXENTO-DC.417/2020SIN     5
RC0001146543342H202100909398102500909398102525/10/20210605    3190302823742196425000045136100001419300000000000000                                                                            LANCETA DEXTROMETER X UNPZA     3
