RC0001187466818H202100015122506800015122506825/10/20211809    3150024423742196425000018354100000232880000000000000                                                                  SUTURA SEDA NEGRA 3-0 KS 75CM 622HSIN     1
RC0001187466818H202100015122506800015122506825/10/20211809    3150024423742196425000021194000000227810000000000000                                                                   CATETER BILUMEN PEDIAT 4F CS12402SIN     1
RC0001063188067H202100015122506800015122506825/10/20211809    3150024423742196425000043879200001138180000000000000                                                                                   HOJA BISTURI # 11SOB     1
RC0001063188067H202100015122506800015122506825/10/20211809    3150024423742196425000023486400001318040000000000000                                                               GUANTE CIRUGIA NITRILO ALFASAFE 6 1/2SOB     4
RC0001187466818H202100015122506800015122506825/10/20211809    3150024423742196425000022426800001140510000000000000                                                                    EQUIPO MACROGOTEO BAXTER MRC0001SOB     1
RC0001187466818H202100015122506800015122506825/10/20211809    3150024423742196425000011082700001620070000000000000                                                               EQUIPO SET PRIMARIO C/CLAVE REF 14001BOL     1
RC0001063188067H202100015122506800015122506825/10/20211809    3150024423742196425000011082200001407940000000000000                                                              EQUIPO EXT MICROTUBO Y 2 VALVUL 2N8371SOB     1
TI0001080436271H202100015122506800015122506825/10/20211809    3150024423742196425000011082200001407940000000000000                                                              EQUIPO EXT MICROTUBO Y 2 VALVUL 2N8371SOB     1
TI0001080436271H202100015122506800015122506825/10/20211809    31500244237421964250000Q1AA7300000610640000000000000                                                            CATETER PERIFE INTROCAN # 22G 4251628-04SIN     1
RC0001063188067H202100015122506800015122506825/10/20211809    31500244237421964250000Q1AA7400003911720000000000000                                                            CATETER PERIFE INTROCAN # 24G 4251601-04SOB     1
RC0001187466818H202100015122506800015122506825/10/20211809    3150024423742196425000030936900001431840000000000000                                                                                              BURETABOL     2
