CC0001045684571H202100015112642700015112642725/10/20210812    3190310223742196425000038569400000256750000000000000                                                                        SONDA ASPIRACION CONTROL #14SIN     3
CC0000022467890H202100015112642700015112642725/10/20210812    3190310223742196425000038569400000256750000000000000                                                                        SONDA ASPIRACION CONTROL #14SIN     3
CC0000072428894H202100015112642700015112642725/10/20210812    3190310223742196425000038569400000256750000000000000                                                                        SONDA ASPIRACION CONTROL #14SIN     3
CC0001045684571H202100015112642700015112642725/10/20210812    3190310223742196425000011004400000259880000000000000                                                                 SONDA TRACH CARE 14F CORTA 221036-5SOB     1
CC0000072428894H202100015112642700015112642725/10/20210812    3190310223742196425000011004400000259880000000000000                                                                 SONDA TRACH CARE 14F CORTA 221036-5SOB     1
CC0001045684571H202100015112642700015112642725/10/20210812    3190310223742196425000024674000000220660000000000000                             JERINGA A 3 PARTES CON AGUJA  SOB X 1 RYMCO  10ML BN EXENTO-DC.417/2020SIN     3
CC0000022467890H202100015112642700015112642725/10/20210812    3190310223742196425000024674000000220660000000000000                             JERINGA A 3 PARTES CON AGUJA  SOB X 1 RYMCO  10ML BN EXENTO-DC.417/2020SIN     3
CC0000072428894H202100015112642700015112642725/10/20210812    3190310223742196425000024674000000220660000000000000                             JERINGA A 3 PARTES CON AGUJA  SOB X 1 RYMCO  10ML BN EXENTO-DC.417/2020SIN     3
CC0001045684571H202100015112642700015112642725/10/20210812    3190310223742196425000043485100001618510000000000000                GUANTE QUIRURGICO DE LATEX REF 2D72N65X CAJ X 50 PROTEXIS  6.5 BN EXENTO-DC.417/2020SOB     3
CC0000022467890H202100015112642700015112642725/10/20210812    3190310223742196425000043485100001618510000000000000                GUANTE QUIRURGICO DE LATEX REF 2D72N65X CAJ X 50 PROTEXIS  6.5 BN EXENTO-DC.417/2020SOB     3
CC0000072428894H202100015112642700015112642725/10/20210812    3190310223742196425000043485100001618510000000000000                GUANTE QUIRURGICO DE LATEX REF 2D72N65X CAJ X 50 PROTEXIS  6.5 BN EXENTO-DC.417/2020SOB     3
