CC0000036724804H202100015022520800015022520825/10/20211343    3190115123742196425000011082700001620070000000000000                                                               EQUIPO SET PRIMARIO C/CLAVE REF 14001BOL     1
CC0001143452132H202100015022520800015022520825/10/20211343    3190115123742196425000001956000001620610000000000000                                                                      CONECTOR MICRO CLAVE LAT-MC100SOB     1
CC0000026926615H202100015022520800015022520825/10/20211343    31901151237421964250000E1AB0600003839280000000000000                                                            SOLUCION SALINA 0.9% SLN INY FCO X 250 MBOL     3
CC0000036724804H202100015022520800015022520825/10/20211343    31901151237421964250000E1AB0200000199290000000000000                                                            SOLUCION SALINA 0.9% SLN INY BO X 100 MLBIN     4
