CC0001129528161U202100000554956700000554956725/10/20212115    31500547239421964320000E1AB0500003888400000000000000                                                              SOLUCION SALINA 0.9% SLN INY X 1000 MLBOL     6
CC0001129528161U202100000554956700000554956725/10/20211925    31901010239421964320000E1AD0300000199490000000000000                                         LACTATO RINGER USP (HARTMANN)  SOL INY  BOL X 1000ML BAXTERBIN     2
CC0001129528161U202100000554956700000554956725/10/20211916     3300004239421964320000J01DA300001239950000000000000                                                            CEFAZOLINA SODICA POLVO LIOF SLN INY 1 GVAL     2
CC0001129528161U202100000554956700000554956725/10/20212109     3300004239421964320000J01G0100000858000000000000000                                                                       GARAMICINA SLN INY 80 MG/2 MLAMP     3
CC0001129528161U202100000554956700000554956725/10/20212108     3300004239421964320000J01G0100000858000000000000000                                                                       GARAMICINA SLN INY 80 MG/2 MLAMP     5
CC0001129528161U202100000554956700000554956725/10/20212109     3300004239421964320000J7AA0600001602890000000000000                                                            VACUNA ANTITETANICA SUSP INY 40 UI/0.5MLVAL     1
CC0001129528161U202100000554956700000554956725/10/20211916     3300004239421964320000N2BB1100000217160000000000000                                                                      NOVALGINA Sln Iny 2.5 g x 5 mlAMP     1
CC0001129528161U202100000554956700000554956725/10/20212109     3300004239421964320000N2AA0100000301640000000000000                                                                            MORFINA Sln Iny 10 mg/mlAMP     1
CC0001129528161U202100000554956700000554956725/10/20211916     3300004239421964320000N2AA0100000301640000000000000                                                                            MORFINA Sln Iny 10 mg/mlAMP     1
