CC0000022515117H202100000554961200000554961225/10/20212344     3300009237421964250000B1AB1200003939350000000000000                 ENOXAPARINA SODICA 80MG/0.8ML(100MG/ML) SOL INY INST CAJ X 2JERPREL X 0.8ML TECHDOWJRP     2
CC0000022515117H202100000554961200000554961225/10/20212344     3300009237421964250000L04AX100001333070000000000000                                                                               AZATIOPRINA TAB 50 MGTAB     1
CC0000022515117H202100000554961200000554961225/10/20212344     3300009237421964250000N02BA100001276940000000000000                                                                  ACIDO ACETIL SALIC?LICO TAB 100 MGTAB     1
CC0000022515117H202100000554961200000554961225/10/20212344     3300009237421964250000P01BA200001357750000000000000                                                               HIDROXICLOROQUINA SULF TAB 200 MG /R/TAB     2
