RC0001041699033U202100050131360000050131360025/10/20210852    3150019423942196432000024674000000220660000000000000                             JERINGA A 3 PARTES CON AGUJA  SOB X 1 RYMCO  10ML BN EXENTO-DC.417/2020SIN     1
RC0001146540735U202100050131360000050131360025/10/20210852    3150019423942196432000024674000000220660000000000000                             JERINGA A 3 PARTES CON AGUJA  SOB X 1 RYMCO  10ML BN EXENTO-DC.417/2020SIN     1
RC0001146540735U202100050131360000050131360025/10/20210852    3150019423942196432000011082700001620070000000000000                                                               EQUIPO SET PRIMARIO C/CLAVE REF 14001BOL     1
TI0001042264358U202100050131360000050131360025/10/20210852    31500194239421964320000Q1AA7400003911720000000000000                                                            CATETER PERIFE INTROCAN # 24G 4251601-04SOB     1
RC0001146540735U202100050131360000050131360025/10/20210852    31500194239421964320000Q1AA7400003911720000000000000                                                            CATETER PERIFE INTROCAN # 24G 4251601-04SOB     1
RC0001146540735U202100050131360000050131360025/10/20210852    3150019423942196432000030936900001431840000000000000                                                                                              BURETABOL     1
RC0001146540735U202100050131360000050131360025/10/20210852    3150019423942196432000016830000000970620000000000000                                                             SIST FIJACION CAT PERIFERICO 6.5X7 1683SOB     1
RC0001146540735U202100050131360000050131360025/10/20210852    31500194239421964320000E1AB0300003888390000000000000                                                            SOLUCION SALINA 0.9% SLN INY BO X 500 MLBOL     1
