RC0001187466818H202100015122506400015122506425/10/20211321    3150056823742196425000022426800001140510000000000000                                                                    EQUIPO MACROGOTEO BAXTER MRC0001SOB     1
RC0001187466818H202100015122506400015122506425/10/20211321    3150056823742196425000000004000001108900000000000000                                                                            TROCAR 10F X 8 CM 625.10SOB     2
RC0001187466818H202100015122506400015122506425/10/20211321    3150056823742196425000030936900001431840000000000000                                                                                              BURETABOL     1
