CC0000032832774A202100000027622700000027622725/10/20210805    3190333624042196419000022426800001140510000000000000                                                                    EQUIPO MACROGOTEO BAXTER MRC0001SOB     1
CC0000032832774A202100000027622700000027622725/10/20210805    3190333624042196419000038569400000256750000000000000                                                                        SONDA ASPIRACION CONTROL #14SIN     1
CC0000032832774A202100000027622700000027622725/10/20210805    3190333624042196419000030161400001459220000000000000                                                                       MANGUERA SUCCION 6 MM*3.1 MTSSOB     1
CC0000032832774A202100000027622700000027622725/10/20210805    3190333624042196419000011073300001096420000000000000                                                                BOLSA DE SUCCION DE FLUIDOS x 2500mLBOL     1
CC0000032832774A202100000027622700000027622725/10/20210805    3190333624042196419000020750600000296780000000000000                                                                PLACA ELECTRO RETORNO PACIENTE E7506SIN     1
CC0000032832774A202100000027622700000027622725/10/20210805    3190333624042196419000053074400000607910000000000000                                                               GASA ESTERIL 10*10 SOBRE X 3 UNIDADESSOB     1
CC0000032832774A202100000027622700000027622725/10/20210805    3190333624042196419000024674000000220660000000000000                             JERINGA A 3 PARTES CON AGUJA  SOB X 1 RYMCO  10ML BN EXENTO-DC.417/2020SIN     3
CC0000032832774A202100000027622700000027622725/10/20210805    31903336240421964190000Q1AA7100000610620000000000000                                                            CATETER PERIFE INTROCAN # 18G 4251687-04SIN     2
CC0000032832774A202100000027622700000027622725/10/20210805    31903336240421964190000E1AB0700003888350000000000000                                                            SOLUCION SALINA 0.9% SLN INY BO X 250 MLBOL     1
CC0000032832774A202100000027622700000027622725/10/20210805    31903336240421964190000E1AB0300003888390000000000000                                                            SOLUCION SALINA 0.9% SLN INY BO X 500 MLBOL     3
CC0000032832774A202100000027622700000027622725/10/20210805    31903336240421964190000N01A0400003939010000000000000                                               MAYOPROFOL 200MG/20ML(1%) EMUL INY CAJ X 1VIAL X 20MLVAL     1
CC0000032832774A202100000027622700000027622725/10/20210805    3190333624042196419000011057600000759010000000000000                                                              PAPILOTOMO TRILUMEN  HPC-3 7FR X 200CMSOB     1
CC0000032832774A202100000027622700000027622725/10/20210805    31903336240421964190000V08AB300000179640000000000000                                                                         OPTIRAY 320 SLN INY X 20 MLFCO     1
CC0000032832774A202100000027622700000027622725/10/20210805    3190333624042196419000039175000001072050000000000000                                                                           TUBO ENDOTRAQUEAL C/B 7.0SOB     1
CC0000032832774A202100000027622700000027622725/10/20210805    3190333624042196419000022425200000548240000000000000                       EXTENSION DE ANESTESIA REF 1139 SOB X 1 SHERLEG  ADULTO BN EXENTO-DC.417/2020SIN     1
CC0000032832774A202100000027622700000027622725/10/20210805    3190333624042196419000035356500003919000000000000000                                                                                        LLAVE 3 VIASSOB     2
