RC0001146540735U202100000554936600000554936625/10/20210859     3300004239421964320000A2BC0900000200150000000000000                                                                               ORAZOLE Sln Iny 40 mgCIN     1
RC0001146540735U202100000554936600000554936625/10/20211036     3300004239421964320000A4AD0200000202990000000000000                                                                     PLITICAN HCL Sln Iny 50 mg/2 mlAMP     1
RC0001146540735U202100000554936600000554936625/10/20211455    31902968239421964320000E1AC0100000199400000000000000                                                                          SUERO MIXTO Sln Iny 500 mlBIN     1
RC0001146540735U202100000554936600000554936625/10/20211045    31500194239421964320000E1AB0300003888390000000000000                                                            SOLUCION SALINA 0.9% SLN INY BO X 500 MLBOL     1
RC0001146540735U202100000554936600000554936625/10/20211431     3300004239421964320000A12BA100000552980000000000000                                                            CLORURO POTASIO Sln Iny AMP 20 MEQ/10 MLAMP     1
RC0001146540735U202100000554936600000554936625/10/20211430     3300004239421964320000J01GB500000552920000000000000                                                                       AMIKACINA SLN INY 500 MG/2 MLAMP     1
RC0001146540735U202100000554936600000554936625/10/20211431     3300004239421964320000N02B1100001169680000000000000                              PARACETAMOL 1000MG/100ML(10MG/ML) SOL INY  VIAL X 100ML FRESENIUS KABIVAL     1
RC0001146540735U202100000554936600000554936625/10/20211037     3300004239421964320000N02B1100001169680000000000000                              PARACETAMOL 1000MG/100ML(10MG/ML) SOL INY  VIAL X 100ML FRESENIUS KABIVAL     1
RC0001146540735U202100000554936600000554936625/10/20210859     3300004239421964320000N2BE1100001156170000000000000                                                              ACETAMINOFEN JBE 150 MG / 5 ML X 60 MLFCO     1
