CC0000005746549U202100050131359100050131359125/10/20210808    3190100523942196432000024674000000220660000000000000                             JERINGA A 3 PARTES CON AGUJA  SOB X 1 RYMCO  10ML BN EXENTO-DC.417/2020SIN     2
CC0000032675307U202100050131359100050131359125/10/20210808    3190100523942196432000024674000000220660000000000000                             JERINGA A 3 PARTES CON AGUJA  SOB X 1 RYMCO  10ML BN EXENTO-DC.417/2020SIN     2
CC0000005746549U202100050131359100050131359125/10/20210808    3190100523942196432000011082700001620070000000000000                                                               EQUIPO SET PRIMARIO C/CLAVE REF 14001BOL     1
CC0000072155688U202100050131359100050131359125/10/20210808    3190100523942196432000011082700001620070000000000000                                                               EQUIPO SET PRIMARIO C/CLAVE REF 14001BOL     1
CC0000005746549U202100050131359100050131359125/10/20210808    3190100523942196432000030936900001431840000000000000                                                                                              BURETABOL     1
CC0000072155688U202100050131359100050131359125/10/20210808    3190100523942196432000030936900001431840000000000000                                                                                              BURETABOL     1
CC0000005746549U202100050131359100050131359125/10/20210808    31901005239421964320000E1AB0500003888400000000000000                                                              SOLUCION SALINA 0.9% SLN INY X 1000 MLBOL     1
CC0000072155688U202100050131359100050131359125/10/20210808    31901005239421964320000E1AB0300003888390000000000000                                                            SOLUCION SALINA 0.9% SLN INY BO X 500 MLBOL     1
