CC0000032720361U202100050131365700050131365725/10/20211612    3190118123942196432000038568400000256940000000000000                                                                                   SONDA NELATON #10SIN     1
CC0000032720361U202100050131365700050131365725/10/20211612    31901181239421964320000B05C0200001339660000000000000                                                                        SOLUCION SALINA 0.9% X 10 MLJRP     1
CC0000032720361U202100050131365700050131365725/10/20211612    3190118123942196432000024674000000220660000000000000                             JERINGA A 3 PARTES CON AGUJA  SOB X 1 RYMCO  10ML BN EXENTO-DC.417/2020SIN     1
CC0000032720361U202100050131365700050131365725/10/20211612    3190118123942196432000011085100001082120000000000000                                                                           GUANTE QUIRURGICO TALLA 7SOB     2
CC0000032720361U202100050131365700050131365725/10/20211612    3190118123942196432000013077800000471960000000000000                                                             GASA NO TEJIDA EST 7.5 X 7.5 SOB X 3 UNSOB     6
CC0000032720361U202100050131365700050131365725/10/20211612    3190118123942196432000001956000001620610000000000000                                                                      CONECTOR MICRO CLAVE LAT-MC100SOB     1
CC0000032720361U202100050131365700050131365725/10/20211612    31901181239421964320000Q1AA7200000610630000000000000                                                            CATETER PERIFE INTROCAN # 20G 4251644-04SIN     1
CC0000032720361U202100050131365700050131365725/10/20211612    3190118123942196432000016830000000970620000000000000                                                             SIST FIJACION CAT PERIFERICO 6.5X7 1683SOB     1
CC0000032720361U202100050131365700050131365725/10/20211612    31901181239421964320000E1AB0200000199290000000000000                                                            SOLUCION SALINA 0.9% SLN INY BO X 100 MLBIN     1
