CC0000022543387H202100000554933000000554933025/10/20211515     3300010237421964250000A03F0300001626860000000000000                                                                   METOCLOPRAMIDA SLN INY 10 MG/2 MLAMP     2
CC0000022543387H202100000554933000000554933025/10/20210739     3300009237421964250000A03F0300001626860000000000000                                                                   METOCLOPRAMIDA SLN INY 10 MG/2 MLAMP     3
CC0000022543387H202100000554933000000554933025/10/20210739     3300009237421964250000A12BA500003864190000000000000                                                   ION-K 1.56GR/5ML(31.2%) SOL ORAL INST FCO X 180MLFCO     1
CC0000022543387H202100000554933000000554933025/10/20211736    31500502237421964250000E1AB0300003888390000000000000                                                            SOLUCION SALINA 0.9% SLN INY BO X 500 MLBOL     1
CC0000022543387H202100000554933000000554933025/10/20210739     3300009237421964250000C3AA0100001315100000000000000                                                                         HIDROCLOROTIAZIDA TAB 25 MGTAB     1
CC0000022543387H202100000554933000000554933025/10/20210739     3300009237421964250000C09CA400001277130000000000000                                                                                  LOSARTAN TAB 50 MGTAB     1
CC0000022543387H202100000554933000000554933025/10/20210738     3300009237421964250000B01AB200000513350000000000000                                                                        CLENOX SLN INY 40 MG/ 0.4 MLJRP     1
CC0000022543387H202100000554933000000554933025/10/20210739     3300009237421964250000J01DH500001414350000000000000                                                                ERTAPENEM POLVO LIOF SLN INY 1 G /R/VAL     1
CC0000022543387H202100000554933000000554933025/10/20211203    31903303237421964250000V07A1300000502600000000000000                                                                                AGUA ESTERIL x 10 mlAMP     5
