CC0000032751947U202100000554934200000554934225/10/20210811     3300004239421964320000M3BA0300001278140000000000000                                                                               SIRDALUD Tab 2 mg /R/COM     1
CC0000032751947U202100000554934200000554934225/10/20210810     3300004239421964320000M3BA0300001278140000000000000                                                                               SIRDALUD Tab 2 mg /R/COM     1
CC0000032751947U202100000554934200000554934225/10/20210811     3300004239421964320000N2AX0400001204140000000000000                                                                             TRAMAL Sln Iny 50 mg/mlAMP     1
CC0000032751947U202100000554934200000554934225/10/20210811     3300004239421964320000N02B1100001169680000000000000                              PARACETAMOL 1000MG/100ML(10MG/ML) SOL INY  VIAL X 100ML FRESENIUS KABIVAL     1
