CC0000032842949H202100015112643400015112643425/10/20211435    3190305923742196425000038573100000256880000000000000                                                                                 SONDA NSG LEVIN #18SIN     1
CC0000032678618H202100015112643400015112643425/10/20211435    3190305923742196425000038573000000256870000000000000                                                                                 SONDA NSG LEVIN #16SIN     1
CC0000093407512H202100015112643400015112643425/10/20211435    3190305923742196425000038570100001124990000000000000                                                                              SONDA FOLEY #18 2 VIASSOB     1
CC0000093407512H202100015112643400015112643425/10/20211435    3190305923742196425000043485100001618510000000000000                GUANTE QUIRURGICO DE LATEX REF 2D72N65X CAJ X 50 PROTEXIS  6.5 BN EXENTO-DC.417/2020SOB     2
CC0000032842949H202100015112643400015112643425/10/20211435    3190305923742196425000043485100001618510000000000000                GUANTE QUIRURGICO DE LATEX REF 2D72N65X CAJ X 50 PROTEXIS  6.5 BN EXENTO-DC.417/2020SOB     1
CC0000032678618H202100015112643400015112643425/10/20211435    3190305923742196425000043485100001618510000000000000                GUANTE QUIRURGICO DE LATEX REF 2D72N65X CAJ X 50 PROTEXIS  6.5 BN EXENTO-DC.417/2020SOB     1
CC0000093407512H202100015112643400015112643425/10/20211435    3190305923742196425000013077800000471960000000000000                                                             GASA NO TEJIDA EST 7.5 X 7.5 SOB X 3 UNSOB     6
CC0000032842949H202100015112643400015112643425/10/20211435    3190305923742196425000013077800000471960000000000000                                                             GASA NO TEJIDA EST 7.5 X 7.5 SOB X 3 UNSOB     3
CC0000032678618H202100015112643400015112643425/10/20211435    3190305923742196425000013077800000471960000000000000                                                             GASA NO TEJIDA EST 7.5 X 7.5 SOB X 3 UNSOB     3
CC0000093407512H202100015112643400015112643425/10/20211435    3190305923742196425000031188000000236790000000000000                                                                                     CISTOFLO ADULTOSIN     1
CC0000032651823H202100015112643400015112643425/10/20211435    3190305923742196425000001956000001620610000000000000                                                                      CONECTOR MICRO CLAVE LAT-MC100SOB     1
CC0000032651823H202100015112643400015112643425/10/20211435    31903059237421964250000Q1AA7200000610630000000000000                                                            CATETER PERIFE INTROCAN # 20G 4251644-04SIN     1
CC0000032651823H202100015112643400015112643425/10/20211435    3190305923742196425000016830000000970620000000000000                                                             SIST FIJACION CAT PERIFERICO 6.5X7 1683SOB     1
