RC0001187466818H202100015122506600015122506625/10/20211714    3190330723742196425000011082700001620070000000000000                                                               EQUIPO SET PRIMARIO C/CLAVE REF 14001BOL     2
RC0001187466818H202100015122506600015122506625/10/20211714    3190330723742196425000030936900001431840000000000000                                                                                              BURETABOL     4
RC0001187466818H202100015122506600015122506625/10/20211714    31903307237421964250000E1BA0100000198890000000000000                                                                   AGUA ESTERIL USP SLN INY X 500 MLBIN     1
