CC0000072428894H202100000554930400000554930425/10/20212116     3300010237421964250000A3BA0100001109400000000000000                                                                          ATROPINA SLN INY 1 MG / MLAMP     1
CC0000072428894H202100000554930400000554930425/10/20211051     3300009237421964250000B1AB0200003939510000000000000                 ENOXAPARINA SODICA 40MG/0.4ML(100MG/ML) SOL INY INST CAJ X 2JERPREL X 0.4ML TECHDOWJRP     1
CC0000072428894H202100000554930400000554930425/10/20210631     3300009237421964250000B1AB0200003939510000000000000                 ENOXAPARINA SODICA 40MG/0.4ML(100MG/ML) SOL INY INST CAJ X 2JERPREL X 0.4ML TECHDOWJRP     1
CC0000072428894H202100000554930400000554930425/10/20210729    31500072237421964250000E1AB0200000199290000000000000                                                            SOLUCION SALINA 0.9% SLN INY BO X 100 MLBIN    10
CC0000072428894H202100000554930400000554930425/10/20210729    31500072237421964250000E1AD0300000199490000000000000                                         LACTATO RINGER USP (HARTMANN)  SOL INY  BOL X 1000ML BAXTERBIN     2
CC0000072428894H202100000554930400000554930425/10/20211051     3300009237421964250000N07X0300003913670000000000000                                    DEXMEDETOMIDINA 400MCG/100ML(4MCG/ML) SOL INY BOL X 100ML BAXTERBOL     1
CC0000072428894H202100000554930400000554930425/10/20211050     3300009237421964250000N07X0300003913670000000000000                                    DEXMEDETOMIDINA 400MCG/100ML(4MCG/ML) SOL INY BOL X 100ML BAXTERBOL     1
CC0000072428894H202100000554930400000554930425/10/20211051     3300009237421964250000V6DF5300000302770000000000000                                                                        ENSURE PLUS HN LCP X 1000 MLFCO     1
CC0000072428894H202100000554930400000554930425/10/20212116     3300010237421964250000R3CA0100001051880000000000000                                                               ADRENALINA HCL SLN INY 1 MG / ML ECARAMP     1
CC0000072428894H202100000554930400000554930425/10/20211051     3300009237421964250000N2BE2200001252930000000000000                                                                             ACETAMINOFEN Tab 500 MGTAB     8
CC0000072428894H202100000554930400000554930425/10/20211051     3300009237421964250000A02BC700001684270000000000000                                                            OMEPRAZOL 40MG POLVO LIOFILIZADO AMPOLLAVAL     1
