CC0001143120182U202100000554938800000554938825/10/20211239     3300004239421964320000A03F0300001626860000000000000                                                                   METOCLOPRAMIDA SLN INY 10 MG/2 MLAMP     1
CC0001143120182U202100000554938800000554938825/10/20211114    31902337239421964320000E1AD0300000199490000000000000                                         LACTATO RINGER USP (HARTMANN)  SOL INY  BOL X 1000ML BAXTERBIN     2
CC0001143120182U202100000554938800000554938825/10/20212044     3300004239421964320000N2BB0200000513030000000000000                                                                           LISALGIL Sln Iny 2 g/5 mlAMP     1
CC0001143120182U202100000554938800000554938825/10/20212043     3300004239421964320000N2BB0200000513030000000000000                                                                           LISALGIL Sln Iny 2 g/5 mlAMP     1
CC0001143120182U202100000554938800000554938825/10/20211057     3300004239421964320000N2BB0100000787510000000000000                                                                    DIPIRONA SODICA Sln Iny 1 g/2 mlAMP     1
CC0001143120182U202100000554938800000554938825/10/20211239     3300004239421964320000N2AX0900001672040000000000000                                                                              TRAMADOL SLN INY 50 MGAMP     1
CC0001143120182U202100000554938800000554938825/10/20212043     3300004239421964320000N03AX800001334920000000000000                                                                               LEGABIN CAP 75 MG /R/CAP     1
