CC0000036724804H202100000554938000000554938025/10/20211127    31903308237421964250000A07F0300000547060000000000000                                                              ENTEROGERMINA SUSP ORAL AMP X 5 ML /R/VAL     1
CC0000036724804H202100000554938000000554938025/10/20211836    31903308237421964250000A2DA1400001333780000000000000                                                                         PANZYTRAT CAP 25.000 UI /R/CAP     1
CC0000036724804H202100000554938000000554938025/10/20211046    31903308237421964250000V7AA5200000215370000000000000                                                                          EPOYET SLN INY 2000 UI /R/VAL     1
CC0000036724804H202100000554938000000554938025/10/20211712    31903308237421964250000S2BA1400000947290000000000000                                                            SOLU MEDROL POLVO SLN INY 500 MG/4 ML/R/VAL     2
CC0000036724804H202100000554938000000554938025/10/20211721    31901151237421964250000J1KF0200001677230000000000000                                                                      MERONEM POLVO SLN INY 1 G  /R/VAL     1
CC0000036724804H202100000554938000000554938025/10/20211046    31903308237421964250000J1KF0200001677230000000000000                                                                      MERONEM POLVO SLN INY 1 G  /R/VAL     2
CC0000036724804H202100000554938000000554938025/10/20211046    31903308237421964250000N02B1100001169680000000000000                              PARACETAMOL 1000MG/100ML(10MG/ML) SOL INY  VIAL X 100ML FRESENIUS KABIVAL     2
