CC0000008509195H202100015052692500015052692525/10/20210727    31903303237421964250000V07A1300000502600000000000000                                                                                AGUA ESTERIL x 10 mlAMP     5
CC0001143157155H202100015052692500015052692525/10/20210727    31903303237421964250000V07A1300000502600000000000000                                                                                AGUA ESTERIL x 10 mlAMP     5
TI0001082997584H202100015052692500015052692525/10/20210727    31903303237421964250000V07A1300000502600000000000000                                                                                AGUA ESTERIL x 10 mlAMP     5
RC0001043711220H202100015052692500015052692525/10/20210727    31903303237421964250000V07A1300000502600000000000000                                                                                AGUA ESTERIL x 10 mlAMP     5
CC0000072045374H202100015052692500015052692525/10/20210727    31903303237421964250000V07A1300000502600000000000000                                                                                AGUA ESTERIL x 10 mlAMP     5
CC0001005573354H202100015052692500015052692525/10/20210727    31903303237421964250000V07A1300000502600000000000000                                                                                AGUA ESTERIL x 10 mlAMP     5
CC0001143250996H202100015052692500015052692525/10/20210727    31903303237421964250000V07A1300000502600000000000000                                                                                AGUA ESTERIL x 10 mlAMP     5
CC0001045685077H202100015052692500015052692525/10/20210727    31903303237421964250000V07A1300000502600000000000000                                                                                AGUA ESTERIL x 10 mlAMP     5
CC0001143151880H202100015052692500015052692525/10/20210727    31903303237421964250000V07A1300000502600000000000000                                                                                AGUA ESTERIL x 10 mlAMP     5
CC0001140843079H202100015052692500015052692525/10/20210727    31903303237421964250000V07A1300000502600000000000000                                                                                AGUA ESTERIL x 10 mlAMP     5
CC0000007443172H202100015052692500015052692525/10/20210727    31903303237421964250000V07A1300000502600000000000000                                                                                AGUA ESTERIL x 10 mlAMP     5
CC0000022543387H202100015052692500015052692525/10/20210727    31903303237421964250000V07A1300000502600000000000000                                                                                AGUA ESTERIL x 10 mlAMP     5
CC0001129498209H202100015052692500015052692525/10/20210727    31903303237421964250000V07A1300000502600000000000000                                                                                AGUA ESTERIL x 10 mlAMP     5
CC0001143269433H202100015052692500015052692525/10/20210727    31903303237421964250000V07A1300000502600000000000000                                                                                AGUA ESTERIL x 10 mlAMP     5
CC0000032605816H202100015052692500015052692525/10/20210727    31903303237421964250000V07A1300000502600000000000000                                                                                AGUA ESTERIL x 10 mlAMP     5
CC0000022405998H202100015052692500015052692525/10/20210727    31903303237421964250000V07A1300000502600000000000000                                                                                AGUA ESTERIL x 10 mlAMP     5
CC0001045739587H202100015052692500015052692525/10/20210727    31903303237421964250000V07A1300000502600000000000000                                                                                AGUA ESTERIL x 10 mlAMP     5
CC0000008697210H202100015052692500015052692525/10/20210727    31903303237421964250000V07A1300000502600000000000000                                                                                AGUA ESTERIL x 10 mlAMP     5
CC0000008509195H202100015052692500015052692525/10/20210727    3190330323742196425000024674000000220660000000000000                             JERINGA A 3 PARTES CON AGUJA  SOB X 1 RYMCO  10ML BN EXENTO-DC.417/2020SIN     6
CC0001143157155H202100015052692500015052692525/10/20210727    3190330323742196425000024674000000220660000000000000                             JERINGA A 3 PARTES CON AGUJA  SOB X 1 RYMCO  10ML BN EXENTO-DC.417/2020SIN     6
TI0001082997584H202100015052692500015052692525/10/20210727    3190330323742196425000024674000000220660000000000000                             JERINGA A 3 PARTES CON AGUJA  SOB X 1 RYMCO  10ML BN EXENTO-DC.417/2020SIN     6
RC0001043711220H202100015052692500015052692525/10/20210727    3190330323742196425000024674000000220660000000000000                             JERINGA A 3 PARTES CON AGUJA  SOB X 1 RYMCO  10ML BN EXENTO-DC.417/2020SIN     6
CC0000072045374H202100015052692500015052692525/10/20210727    3190330323742196425000024674000000220660000000000000                             JERINGA A 3 PARTES CON AGUJA  SOB X 1 RYMCO  10ML BN EXENTO-DC.417/2020SIN     6
CC0001005573354H202100015052692500015052692525/10/20210727    3190330323742196425000024674000000220660000000000000                             JERINGA A 3 PARTES CON AGUJA  SOB X 1 RYMCO  10ML BN EXENTO-DC.417/2020SIN     6
CC0001143250996H202100015052692500015052692525/10/20210727    3190330323742196425000024674000000220660000000000000                             JERINGA A 3 PARTES CON AGUJA  SOB X 1 RYMCO  10ML BN EXENTO-DC.417/2020SIN     6
CC0001045685077H202100015052692500015052692525/10/20210727    3190330323742196425000024674000000220660000000000000                             JERINGA A 3 PARTES CON AGUJA  SOB X 1 RYMCO  10ML BN EXENTO-DC.417/2020SIN     6
CC0001143151880H202100015052692500015052692525/10/20210727    3190330323742196425000024674000000220660000000000000                             JERINGA A 3 PARTES CON AGUJA  SOB X 1 RYMCO  10ML BN EXENTO-DC.417/2020SIN     6
CC0001140843079H202100015052692500015052692525/10/20210727    3190330323742196425000024674000000220660000000000000                             JERINGA A 3 PARTES CON AGUJA  SOB X 1 RYMCO  10ML BN EXENTO-DC.417/2020SIN     6
RC0001043612021H202100015052692500015052692525/10/20210727    3190330323742196425000024674000000220660000000000000                             JERINGA A 3 PARTES CON AGUJA  SOB X 1 RYMCO  10ML BN EXENTO-DC.417/2020SIN     6
CC0000007443172H202100015052692500015052692525/10/20210727    3190330323742196425000024674000000220660000000000000                             JERINGA A 3 PARTES CON AGUJA  SOB X 1 RYMCO  10ML BN EXENTO-DC.417/2020SIN     6
CC0000022543387H202100015052692500015052692525/10/20210727    3190330323742196425000024674000000220660000000000000                             JERINGA A 3 PARTES CON AGUJA  SOB X 1 RYMCO  10ML BN EXENTO-DC.417/2020SIN     6
CC0000055243081H202100015052692500015052692525/10/20210727    3190330323742196425000024674000000220660000000000000                             JERINGA A 3 PARTES CON AGUJA  SOB X 1 RYMCO  10ML BN EXENTO-DC.417/2020SIN     6
CC0001129498209H202100015052692500015052692525/10/20210727    3190330323742196425000024674000000220660000000000000                             JERINGA A 3 PARTES CON AGUJA  SOB X 1 RYMCO  10ML BN EXENTO-DC.417/2020SIN     6
CC0001143269433H202100015052692500015052692525/10/20210727    3190330323742196425000024674000000220660000000000000                             JERINGA A 3 PARTES CON AGUJA  SOB X 1 RYMCO  10ML BN EXENTO-DC.417/2020SIN     6
CC0000032605816H202100015052692500015052692525/10/20210727    3190330323742196425000024674000000220660000000000000                             JERINGA A 3 PARTES CON AGUJA  SOB X 1 RYMCO  10ML BN EXENTO-DC.417/2020SIN     6
CC0000022405998H202100015052692500015052692525/10/20210727    3190330323742196425000024674000000220660000000000000                             JERINGA A 3 PARTES CON AGUJA  SOB X 1 RYMCO  10ML BN EXENTO-DC.417/2020SIN     6
CC0001045739587H202100015052692500015052692525/10/20210727    3190330323742196425000024674000000220660000000000000                             JERINGA A 3 PARTES CON AGUJA  SOB X 1 RYMCO  10ML BN EXENTO-DC.417/2020SIN     6
CC0000008697210H202100015052692500015052692525/10/20210727    3190330323742196425000024674000000220660000000000000                             JERINGA A 3 PARTES CON AGUJA  SOB X 1 RYMCO  10ML BN EXENTO-DC.417/2020SIN     6
CC0001045739587H202100015052692500015052692525/10/20210727    31903303237421964250000E1AB0700003888350000000000000                                                            SOLUCION SALINA 0.9% SLN INY BO X 250 MLBOL     2
CC0000008509195H202100015052692500015052692525/10/20210727    31903303237421964250000E1AB0200000199290000000000000                                                            SOLUCION SALINA 0.9% SLN INY BO X 100 MLBIN     1
CC0001143157155H202100015052692500015052692525/10/20210727    31903303237421964250000E1AB0200000199290000000000000                                                            SOLUCION SALINA 0.9% SLN INY BO X 100 MLBIN     1
CC0001005573354H202100015052692500015052692525/10/20210727    31903303237421964250000E1AB0200000199290000000000000                                                            SOLUCION SALINA 0.9% SLN INY BO X 100 MLBIN     1
CC0001143269433H202100015052692500015052692525/10/20210727    31903303237421964250000E1AB0200000199290000000000000                                                            SOLUCION SALINA 0.9% SLN INY BO X 100 MLBIN     2
CC0001045739587H202100015052692500015052692525/10/20210727    31903303237421964250000E1AB0200000199290000000000000                                                            SOLUCION SALINA 0.9% SLN INY BO X 100 MLBIN     1
