CC0000085450634H202100015042506000015042506025/10/20211156    3150010723742196425000043485100001618510000000000000                GUANTE QUIRURGICO DE LATEX REF 2D72N65X CAJ X 50 PROTEXIS  6.5 BN EXENTO-DC.417/2020SOB     1
CC0001065132676H202100015042506000015042506025/10/20211156    3150010723742196425000043485100001618510000000000000                GUANTE QUIRURGICO DE LATEX REF 2D72N65X CAJ X 50 PROTEXIS  6.5 BN EXENTO-DC.417/2020SOB     1
CC0000085450634H202100015042506000015042506025/10/20211156    3150010723742196425000013077800000471960000000000000                                                             GASA NO TEJIDA EST 7.5 X 7.5 SOB X 3 UNSOB     2
CC0001065132676H202100015042506000015042506025/10/20211156    3150010723742196425000013077800000471960000000000000                                                             GASA NO TEJIDA EST 7.5 X 7.5 SOB X 3 UNSOB     4
CC0001065132676H202100015042506000015042506025/10/20211156    3150010723742196425000022426800001140510000000000000                                                                    EQUIPO MACROGOTEO BAXTER MRC0001SOB     1
CC0000085450634H202100015042506000015042506025/10/20211156    3150010723742196425000011082700001620070000000000000                                                               EQUIPO SET PRIMARIO C/CLAVE REF 14001BOL     1
CC0001065132676H202100015042506000015042506025/10/20211156    3150010723742196425000011082700001620070000000000000                                                               EQUIPO SET PRIMARIO C/CLAVE REF 14001BOL     2
CC0000085450634H202100015042506000015042506025/10/20211156    3150010723742196425000001956000001620610000000000000                                                                      CONECTOR MICRO CLAVE LAT-MC100SOB     1
CC0001065132676H202100015042506000015042506025/10/20211156    3150010723742196425000001956000001620610000000000000                                                                      CONECTOR MICRO CLAVE LAT-MC100SOB     2
CC0000085450634H202100015042506000015042506025/10/20211156    3150010723742196425000030936900001431840000000000000                                                                                              BURETABOL     1
CC0001065132676H202100015042506000015042506025/10/20211156    3150010723742196425000030936900001431840000000000000                                                                                              BURETABOL     1
