RC0001146543698H202100000554921700000554921725/10/20210621     3300009237421964250000A2BC0900000200150000000000000                                                                               ORAZOLE Sln Iny 40 mgCIN     1
RC0001146543698H202100000554921700000554921725/10/20211126    31903307237421964250000E1AB0200000199290000000000000                                                            SOLUCION SALINA 0.9% SLN INY BO X 100 MLBIN     1
RC0001146543698H202100000554921700000554921725/10/20211126    31903307237421964250000E1AD0300000199490000000000000                                         LACTATO RINGER USP (HARTMANN)  SOL INY  BOL X 1000ML BAXTERBIN     2
RC0001146543698H202100000554921700000554921725/10/20211352     3300009237421964250000A12CA100001109460000000000000                                                              CLORURO SODIO SLN INY 2 MEQ/ML X 10 MLAMP     2
RC0001146543698H202100000554921700000554921725/10/20211155     3300009237421964250000A12CA100001109460000000000000                                                              CLORURO SODIO SLN INY 2 MEQ/ML X 10 MLAMP     2
RC0001146543698H202100000554921700000554921725/10/20210019     3300009237421964250000J01DD100000456230000000000000                                                                        AXTAR POLVO LIOF SLN INY 1 GVAL     1
RC0001146543698H202100000554921700000554921725/10/20211352     3300009237421964250000N2BB0500000217140000000000000                                                                          NOVALGINA Sln Iny 1 g/2 mlAMP     1
RC0001146543698H202100000554921700000554921725/10/20210620     3300009237421964250000N2BB0500000217140000000000000                                                                          NOVALGINA Sln Iny 1 g/2 mlAMP     1
RC0001146543698H202100000554921700000554921725/10/20210018     3300009237421964250000N2BB0500000217140000000000000                                                                          NOVALGINA Sln Iny 1 g/2 mlAMP     1
RC0001146543698H202100000554921700000554921725/10/20211155     3300009237421964250000N3AB0700000554770000000000000                                                                          EPAMIN Sln Iny 250 mg/5 mlAMP     1
RC0001146543698H202100000554921700000554921725/10/20210018     3300009237421964250000N3AB0700000554770000000000000                                                                          EPAMIN Sln Iny 250 mg/5 mlAMP     1
RC0001146543698H202100000554921700000554921725/10/20211126    31903307237421964250000B5BC0100003889300000000000000                                                                        MANITOL SLN INY 20% X 500 MLBOL     1
