RC0001043612021H202100015052692600015052692625/10/20210728    3190330023742196425000011048600000223020000000000000                                                                 JERINGA VACUNACION 3ML C/AGU 302542SIN     5
RC0001043492763H202100015052692600015052692625/10/20210728    3190330023742196425000011048600000223020000000000000                                                                 JERINGA VACUNACION 3ML C/AGU 302542SIN     5
RC0001046736305H202100015052692600015052692625/10/20210728    3190330023742196425000011048600000223020000000000000                                                                 JERINGA VACUNACION 3ML C/AGU 302542SIN     5
CC0000072254541H202100015052692600015052692625/10/20210728    3190330023742196425000011048600000223020000000000000                                                                 JERINGA VACUNACION 3ML C/AGU 302542SIN     5
RC0001043612021H202100015052692600015052692625/10/20210728    3190330023742196425000024674000000220660000000000000                             JERINGA A 3 PARTES CON AGUJA  SOB X 1 RYMCO  10ML BN EXENTO-DC.417/2020SIN    10
RC0001043492763H202100015052692600015052692625/10/20210728    3190330023742196425000024674000000220660000000000000                             JERINGA A 3 PARTES CON AGUJA  SOB X 1 RYMCO  10ML BN EXENTO-DC.417/2020SIN    10
RC0001046736305H202100015052692600015052692625/10/20210728    3190330023742196425000024674000000220660000000000000                             JERINGA A 3 PARTES CON AGUJA  SOB X 1 RYMCO  10ML BN EXENTO-DC.417/2020SIN    10
CC0000072254541H202100015052692600015052692625/10/20210728    3190330023742196425000024674000000220660000000000000                             JERINGA A 3 PARTES CON AGUJA  SOB X 1 RYMCO  10ML BN EXENTO-DC.417/2020SIN    10
CC0000072055388H202100015052692600015052692625/10/20210728    3190330023742196425000024674000000220660000000000000                             JERINGA A 3 PARTES CON AGUJA  SOB X 1 RYMCO  10ML BN EXENTO-DC.417/2020SIN    10
CC0000009137445H202100015052692600015052692625/10/20210728    3190330023742196425000024674000000220660000000000000                             JERINGA A 3 PARTES CON AGUJA  SOB X 1 RYMCO  10ML BN EXENTO-DC.417/2020SIN    10
CC0000022416968H202100015052692600015052692625/10/20210728    3190330023742196425000024674000000220660000000000000                             JERINGA A 3 PARTES CON AGUJA  SOB X 1 RYMCO  10ML BN EXENTO-DC.417/2020SIN    10
CC0000039522007H202100015052692600015052692625/10/20210728    3190330023742196425000024674000000220660000000000000                             JERINGA A 3 PARTES CON AGUJA  SOB X 1 RYMCO  10ML BN EXENTO-DC.417/2020SIN    10
TI0001042592574H202100015052692600015052692625/10/20210728    3190330023742196425000024674000000220660000000000000                             JERINGA A 3 PARTES CON AGUJA  SOB X 1 RYMCO  10ML BN EXENTO-DC.417/2020SIN    10
TI0001052089280H202100015052692600015052692625/10/20210728    3190330023742196425000024674000000220660000000000000                             JERINGA A 3 PARTES CON AGUJA  SOB X 1 RYMCO  10ML BN EXENTO-DC.417/2020SIN    10
CC0000032768038H202100015052692600015052692625/10/20210728    3190330023742196425000024674000000220660000000000000                             JERINGA A 3 PARTES CON AGUJA  SOB X 1 RYMCO  10ML BN EXENTO-DC.417/2020SIN    10
RC0001046736305H202100015052692600015052692625/10/20210728    3190330023742196425000011047900000223010000000000000                                                                            JERINGA X 1ML REF 302579SIN     5
CC0000072254541H202100015052692600015052692625/10/20210728    3190330023742196425000011047900000223010000000000000                                                                            JERINGA X 1ML REF 302579SIN     5
CC0000072055388H202100015052692600015052692625/10/20210728    3190330023742196425000011047900000223010000000000000                                                                            JERINGA X 1ML REF 302579SIN     5
CC0000009137445H202100015052692600015052692625/10/20210728    3190330023742196425000011047900000223010000000000000                                                                            JERINGA X 1ML REF 302579SIN     5
CC0000041782192H202100015052692600015052692625/10/20210728    3190330023742196425000011047900000223010000000000000                                                                            JERINGA X 1ML REF 302579SIN     5
CC0001129508481H202100015052692600015052692625/10/20210728    3190330023742196425000011047900000223010000000000000                                                                            JERINGA X 1ML REF 302579SIN     5
CE0000V28051252H202100015052692600015052692625/10/20210728    3190330023742196425000011047900000223010000000000000                                                                            JERINGA X 1ML REF 302579SIN     5
CC0000012549690H202100015052692600015052692625/10/20210728    3190330023742196425000022426800001140510000000000000                                                                    EQUIPO MACROGOTEO BAXTER MRC0001SOB     2
CC0000012549690H202100015052692600015052692625/10/20210728    31903300237421964250000E1AB0700003888350000000000000                                                            SOLUCION SALINA 0.9% SLN INY BO X 250 MLBOL     4
RC0001043492763H202100015052692600015052692625/10/20210728    31903300237421964250000E1AB0200000199290000000000000                                                            SOLUCION SALINA 0.9% SLN INY BO X 100 MLBIN     5
