CC0000032894571H202100000025034000000025034025/10/20211614    3190301623742196425000024674000000220660000000000000                             JERINGA A 3 PARTES CON AGUJA  SOB X 1 RYMCO  10ML BN EXENTO-DC.417/2020SIN     3
CC0000032894571H202100000025034000000025034025/10/20211614    3190301623742196425000024673600000222980000000000000                                                                     JERINGA DESECHABLE 5 ml 27*11/2SIN     3
CC0000032894571H202100000025034000000025034025/10/20211614    3190301623742196425000000102300000222960000000000000                                                                 JERINGA DESECHABLE SIN AGUJA X 20mLSIN     1
CC0000032894571H202100000025034000000025034025/10/20211614    3190301623742196425000011089100001083330000000000000                                                              GUANTE ESTERIL LATEX S/POLVO TALLA 6.5SOB     4
CC0000032894571H202100000025034000000025034025/10/20211614    3190301623742196425000013077800000471960000000000000                                                             GASA NO TEJIDA EST 7.5 X 7.5 SOB X 3 UNSOB     5
CC0000032894571H202100000025034000000025034025/10/20211614    3190301623742196425000001956000001620610000000000000                                                                      CONECTOR MICRO CLAVE LAT-MC100SOB     1
CC0000032894571H202100000025034000000025034025/10/20211614    3190301623742196425000020056600001101530000000000000                                                                AGUJA HIPODERMICA DESECH 18G X 1 1/2SOB     3
CC0000032894571H202100000025034000000025034025/10/20211614    3190301623742196425000000100800000223140000000000000                                                                       AGUJA DESECHABLE 23G X 1 PULGSIN     3
CC0000032894571H202100000025034000000025034025/10/20211614    31903016237421964250000E1AB0700003888350000000000000                                                            SOLUCION SALINA 0.9% SLN INY BO X 250 MLBOL     2
CC0000032894571H202100000025034000000025034025/10/20211614    31903016237421964250000E1AB0200000199290000000000000                                                            SOLUCION SALINA 0.9% SLN INY BO X 100 MLBIN     2
