CC0001143227023H202100000554926300000554926325/10/20210735     3300009237421964250000B1AB0200003939510000000000000                 ENOXAPARINA SODICA 40MG/0.4ML(100MG/ML) SOL INY INST CAJ X 2JERPREL X 0.4ML TECHDOWJRP     1
CC0001143227023H202100000554926300000554926325/10/20211737    31500502237421964250000E1AB0300003888390000000000000                                                            SOLUCION SALINA 0.9% SLN INY BO X 500 MLBOL     1
CC0001143227023H202100000554926300000554926325/10/20211321     3300009237421964250000N2BB0100000787510000000000000                                                                    DIPIRONA SODICA Sln Iny 1 g/2 mlAMP     1
CC0001143227023H202100000554926300000554926325/10/20210735     3300009237421964250000N2BB0100000787510000000000000                                                                    DIPIRONA SODICA Sln Iny 1 g/2 mlAMP     1
CC0001143227023H202100000554926300000554926325/10/20211321     3300009237421964250000N03AB200001168090000000000000                                                                       FENITOINA Sln Iny 250 mg/5 mlAMP     1
CC0001143227023H202100000554926300000554926325/10/20210414     3300009237421964250000N03AB200001168090000000000000                                                                       FENITOINA Sln Iny 250 mg/5 mlAMP     2
CC0001143227023H202100000554926300000554926325/10/20211321     3300009237421964250000N05A1300000614370000000000000                                                                       HALOPERIDOL SLN INY 5 MG / MLAMP     1
CC0001143227023H202100000554926300000554926325/10/20210735     3300009237421964250000N05A1300000614370000000000000                                                                       HALOPERIDOL SLN INY 5 MG / MLAMP     2
CC0001143227023H202100000554926300000554926325/10/20211322     3300009237421964250000N05A1700001278300000000000000                                                                            QUETIAPINA TAB 25 MG /R/TAB     5
CC0001143227023H202100000554926300000554926325/10/20210735     3300009237421964250000N05A1700001278300000000000000                                                                            QUETIAPINA TAB 25 MG /R/TAB     2
CC0001143227023H202100000554926300000554926325/10/20210735     3300009237421964250000R03BB300001364640000000000000                                                            BROMURO IPRATROPIO INH ORAL 20 MCG/DO /RFCO     1
CC0001143227023H202100000554926300000554926325/10/20210736     3300009237421964250000A02BC700001684270000000000000                                                            OMEPRAZOL 40MG POLVO LIOFILIZADO AMPOLLAVAL     1
