CC0000093407512H202100015112642400015112642425/10/20210314    31500532237421964250000V07A1300000502600000000000000                                                                                AGUA ESTERIL x 10 mlAMP    10
CC0000093407512H202100015112642400015112642425/10/20210314    3150053223742196425000045136100001419300000000000000                                                                            LANCETA DEXTROMETER X UNPZA     2
CC0000093407512H202100015112642400015112642425/10/20210314    3150053223742196425000024674000000220660000000000000                             JERINGA A 3 PARTES CON AGUJA  SOB X 1 RYMCO  10ML BN EXENTO-DC.417/2020SIN    16
CC0000093407512H202100015112642400015112642425/10/20210314    3150053223742196425000011047900000223010000000000000                                                                            JERINGA X 1ML REF 302579SIN     3
CC0000093407512H202100015112642400015112642425/10/20210314    3150053223742196425000011082900001233450000000000000                                                               EQUIPO LC 5000 PRIMARIO FOTOPRO 0L218SOB     1
CC0000093407512H202100015112642400015112642425/10/20210314    3150053223742196425000011137100001419310000000000000                                                               TIRA GLUCOMETRIA FREESTYLE H OPTIUM .PZA     2
