CC0001143452132H202100000554924000000554924025/10/20211240    31902202237421964250000E1AB0500003888400000000000000                                                              SOLUCION SALINA 0.9% SLN INY X 1000 MLBOL     1
CC0001143452132H202100000554924000000554924025/10/20211424     3300009237421964250000C2DE1400001277050000000000000                                                                         NIFEDIPINO CAPSULA LM 30 MGCAP     3
CC0001143452132H202100000554924000000554924025/10/20210153     3300009237421964250000C2DE1400001277050000000000000                                                                         NIFEDIPINO CAPSULA LM 30 MGCAP     1
CC0001143452132H202100000554924000000554924025/10/20210152     3300009237421964250000C2DE1400001277050000000000000                                                                         NIFEDIPINO CAPSULA LM 30 MGCAP     1
CC0001143452132H202100000554924000000554924025/10/20211617     3300009237421964250000H2AB0100000562660000000000000                                                                    BETAMETASONA SLN INY 8 MG / 2 MLAMP     2
CC0001143452132H202100000554924000000554924025/10/20211617     3300009237421964250000A03BB100003889180000000000000                                      HIOSCINA BUTIL BROMURO 20MG/ML SOL INY CAJ X 100AMP X 1ML RYANAMP     4
CC0001143452132H202100000554924000000554924025/10/20211424     3300009237421964250000N2BE2200001252930000000000000                                                                             ACETAMINOFEN Tab 500 MGTAB     6
CC0001143452132H202100000554924000000554924025/10/20210153     3300009237421964250000N2BE2200001252930000000000000                                                                             ACETAMINOFEN Tab 500 MGTAB     4
