CC0000032894571H202100000554924600000554924625/10/20211944     3300010237421964250000A03F0300001626860000000000000                                                                   METOCLOPRAMIDA SLN INY 10 MG/2 MLAMP     1
CC0000032894571H202100000554924600000554924625/10/20211252     3300009237421964250000A03F0300001626860000000000000                                                                   METOCLOPRAMIDA SLN INY 10 MG/2 MLAMP     1
CC0000032894571H202100000554924600000554924625/10/20210530     3300009237421964250000A03F0300001626860000000000000                                                                   METOCLOPRAMIDA SLN INY 10 MG/2 MLAMP     3
CC0000032894571H202100000554924600000554924625/10/20210530     3300009237421964250000A03A0800001177800000000000000                                                                      COLYPAN SLN INY 50 MG/5 ML /R/AMP     2
CC0000032894571H202100000554924600000554924625/10/20211252     3300009237421964250000A7DA0100001303560000000000000                                                                                 LOPERAMIDA TAB 2 MGTAB     1
CC0000032894571H202100000554924600000554924625/10/20210530     3300009237421964250000A7DA0100001303560000000000000                                                                                 LOPERAMIDA TAB 2 MGTAB     2
CC0000032894571H202100000554924600000554924625/10/20210529     3300009237421964250000N02B0300001277700000000000000                                                                           CARDIOASPIRINA TAB 100 MGTAB     1
CC0000032894571H202100000554924600000554924625/10/20212249    31901156237421964250000E1AD0300000199490000000000000                                         LACTATO RINGER USP (HARTMANN)  SOL INY  BOL X 1000ML BAXTERBIN     2
CC0000032894571H202100000554924600000554924625/10/20210529     3300009237421964250000C09C0100001316940000000000000                                                                               DIOVAN TAB 160 MG /R/TAB     2
CC0000032894571H202100000554924600000554924625/10/20210530     3300009237421964250000V06B0800003860120000000000000                                                                           PROWHEY POLVO TARRO 275 GTAR     1
CC0000032894571H202100000554924600000554924625/10/20211249     3300009237421964250000N02A3100001227160000000000000                                                                    OXYRAPID SLN INY 10 MG/ML X 1 MLAMP     2
CC0000032894571H202100000554924600000554924625/10/20211944     3300010237421964250000B01AB200000513350000000000000                                                                        CLENOX SLN INY 40 MG/ 0.4 MLJRP     1
CC0000032894571H202100000554924600000554924625/10/20210530     3300009237421964250000C7AB0100001276990000000000000                                                                            BETOPROLOL TAB 50 MG /R/TAB     1
CC0000032894571H202100000554924600000554924625/10/20210528     3300009237421964250000C10AA900001314030000000000000                                                                             ATORVASTATINA TAB 20 MGTAB     1
CC0000032894571H202100000554924600000554924625/10/20211252     3300009237421964250000A03DH100001684240000000000000                                                            B HIOSCINA 20MG/DIPIRON 2.5G SLN INY 5MLAMP     1
CC0000032894571H202100000554924600000554924625/10/20210529     3300009237421964250000A03DH100001684240000000000000                                                            B HIOSCINA 20MG/DIPIRON 2.5G SLN INY 5MLAMP     1
CC0000032894571H202100000554924600000554924625/10/20210528     3300009237421964250000A03DH100001684240000000000000                                                            B HIOSCINA 20MG/DIPIRON 2.5G SLN INY 5MLAMP     2
CC0000032894571H202100000554924600000554924625/10/20211251     3300009237421964250000N03A2100001315050000000000000                                                                          GABAPENTINA CAP 300 MG /R/CAP     1
CC0000032894571H202100000554924600000554924625/10/20210529     3300009237421964250000N06AX200001277490000000000000                                                                                 TRAZODONA TAB 50 MGTAB     1
CC0000032894571H202100000554924600000554924625/10/20210530     3300009237421964250000A02BC700001684270000000000000                                                            OMEPRAZOL 40MG POLVO LIOFILIZADO AMPOLLAVAL     1
CC0000032894571H202100000554924600000554924625/10/20211119    31903290237421964250000V07A1300000502600000000000000                                                                                AGUA ESTERIL x 10 mlAMP     5
