CC0000008761530H202100015112644200015112644225/10/20211952    3190099923742196425000038570000001123500000000000000                                                                              SONDA FOLEY #16 2 VIASSOB     1
CC0000022467890H202100015112644200015112644225/10/20211952    3190099923742196425000062750100001405910000000000000                                                                 INFOVAC CANISTER 1000 ML M8275093/5SOB     1
CC0000008761530H202100015112644200015112644225/10/20211952    3190099923742196425000011088900001318270000000000000                                                               GUANTE CIRUGIA NITRILO ALFASAFE 7 1/2SOB     2
CC0000022467890H202100015112644200015112644225/10/20211952    3190099923742196425000013077800000471960000000000000                                                             GASA NO TEJIDA EST 7.5 X 7.5 SOB X 3 UNSOB    10
CC0000008761530H202100015112644200015112644225/10/20211952    3190099923742196425000013077800000471960000000000000                                                             GASA NO TEJIDA EST 7.5 X 7.5 SOB X 3 UNSOB     5
CC0000072428894H202100015112644200015112644225/10/20211952    3190099923742196425000042743200003929860000000000000                   GASA ADHESIVA STRETCH REF 02038-00 ROL X 10MT FIXOMULL 15CM BN EXENTO-DC.417/2020CMT    60
CC0000022467890H202100015112644200015112644225/10/20211952    3190099923742196425000042753100003929850000000000000                   GASA ADHESIVA STRETCH REF 02037-00 ROL X 10MT FIXOMULL 10CM BN EXENTO-DC.417/2020CMT    80
CC0000008761530H202100015112644200015112644225/10/20211952    3190099923742196425000022426800001140510000000000000                                                                    EQUIPO MACROGOTEO BAXTER MRC0001SOB     2
CC0000072428894H202100015112644200015112644225/10/20211952    3190099923742196425000022426800001140510000000000000                                                                    EQUIPO MACROGOTEO BAXTER MRC0001SOB     1
CC0000072428894H202100015112644200015112644225/10/20211952    3190099923742196425000011082700001620070000000000000                                                               EQUIPO SET PRIMARIO C/CLAVE REF 14001BOL     1
CC0000008761530H202100015112644200015112644225/10/20211952    3190099923742196425000031188000000236790000000000000                                                                                     CISTOFLO ADULTOSIN     1
CC0000022467890H202100015112644200015112644225/10/20211952    3190099923742196425000042743400003929880000000000000                                    CINTA ADHESIVA TRANSPARENT REF 72216-01 ROL X 10MT FIXOMULL 10CMCMT    80
CC0000072428894H202100015112644200015112644225/10/20211952    3190099923742196425000042743400003929880000000000000                                    CINTA ADHESIVA TRANSPARENT REF 72216-01 ROL X 10MT FIXOMULL 10CMCMT    60
CC0000072428894H202100015112644200015112644225/10/20211952    3190099923742196425000011070800000471170000000000000                                                                        SAF GEL TUBO X 85 G CONVATECTUB     1
CC0000008761530H202100015112644200015112644225/10/20211952    31900999237421964250000E1AB0200000199290000000000000                                                            SOLUCION SALINA 0.9% SLN INY BO X 100 MLBIN    10
