CC0000026926615H202100914497102500914497102525/10/20211501    3190220223742196425000016830000000970620000000000000                                                             SIST FIJACION CAT PERIFERICO 6.5X7 1683SOB     1
CC0000026926615H202100914497102500914497102525/10/20211501    31902202237421964250000Q1AA7300000610640000000000000                                                            CATETER PERIFE INTROCAN # 22G 4251628-04SIN     2
CC0000026926615H202100914497102500914497102525/10/20211501    3190220223742196425000001956000001620610000000000000                                                                      CONECTOR MICRO CLAVE LAT-MC100SOB     1
