CC0000019399557H202100000554957700000554957725/10/20211936     3300010237421964250000A2BC0900000200150000000000000                                                                               ORAZOLE Sln Iny 40 mgCIN     1
CC0000019399557H202100000554957700000554957725/10/20211936     3300010237421964250000A03F0300001626860000000000000                                                                   METOCLOPRAMIDA SLN INY 10 MG/2 MLAMP     1
CC0000019399557H202100000554957700000554957725/10/20211936     3300010237421964250000J3CB1300000547730000000000000                                                                         CIPRO SLN INY 200 MG/100 MLFCO     2
CC0000019399557H202100000554957700000554957725/10/20211936     3300010237421964250000N02B1100001169680000000000000                              PARACETAMOL 1000MG/100ML(10MG/ML) SOL INY  VIAL X 100ML FRESENIUS KABIVAL     4
