CC0000022461717U202100000554925800000554925825/10/20210543    31902864239421964320000E1AB0300003888390000000000000                                                            SOLUCION SALINA 0.9% SLN INY BO X 500 MLBOL     1
CC0000022461717U202100000554925800000554925825/10/20210312     3300004239421964320000A3EX0100001302680000000000000                                                                                 BLADURIL TAB 200 MGTAB     1
CC0000022461717U202100000554925800000554925825/10/20210312     3300004239421964320000N02B1100001169680000000000000                              PARACETAMOL 1000MG/100ML(10MG/ML) SOL INY  VIAL X 100ML FRESENIUS KABIVAL     1
CC0000022461717U202100000554925800000554925825/10/20210312     3300004239421964320000A3BB0300000512950000000000000                                                             BUSCAPINA COMP Sln Iny 20 mg+2.5 g/5 mlAMP     1
