TI0001073826213H202100015122506000015122506025/10/20210754    3190330723742196425000024674500000322810000000000000                                                                   JERINGA DESECHABLE 20 ml 21*1 1/2SIN    10
RC0001063188067H202100015122506000015122506025/10/20210754    3190330723742196425000024674500000322810000000000000                                                                   JERINGA DESECHABLE 20 ml 21*1 1/2SIN    10
RC0001187466818H202100015122506000015122506025/10/20210754    3190330723742196425000024674500000322810000000000000                                                                   JERINGA DESECHABLE 20 ml 21*1 1/2SIN    10
RC0001158467183H202100015122506000015122506025/10/20210754    3190330723742196425000024674500000322810000000000000                                                                   JERINGA DESECHABLE 20 ml 21*1 1/2SIN    10
RC0001146543698H202100015122506000015122506025/10/20210754    3190330723742196425000024674500000322810000000000000                                                                   JERINGA DESECHABLE 20 ml 21*1 1/2SIN    10
TI0001080436271H202100015122506000015122506025/10/20210754    3190330723742196425000024674500000322810000000000000                                                                   JERINGA DESECHABLE 20 ml 21*1 1/2SIN    10
TI0001046701779H202100015122506000015122506025/10/20210754    3190330723742196425000024674500000322810000000000000                                                                   JERINGA DESECHABLE 20 ml 21*1 1/2SIN    10
RC0001043714288H202100015122506000015122506025/10/20210754    3190330723742196425000024674500000322810000000000000                                                                   JERINGA DESECHABLE 20 ml 21*1 1/2SIN    10
RC0001046723141H202100015122506000015122506025/10/20210754    3190330723742196425000024674500000322810000000000000                                                                   JERINGA DESECHABLE 20 ml 21*1 1/2SIN    10
TI0001073826213H202100015122506000015122506025/10/20210754    3190330723742196425000024674000000220660000000000000                             JERINGA A 3 PARTES CON AGUJA  SOB X 1 RYMCO  10ML BN EXENTO-DC.417/2020SIN    20
RC0001063188067H202100015122506000015122506025/10/20210754    3190330723742196425000024674000000220660000000000000                             JERINGA A 3 PARTES CON AGUJA  SOB X 1 RYMCO  10ML BN EXENTO-DC.417/2020SIN    20
RC0001187466818H202100015122506000015122506025/10/20210754    3190330723742196425000024674000000220660000000000000                             JERINGA A 3 PARTES CON AGUJA  SOB X 1 RYMCO  10ML BN EXENTO-DC.417/2020SIN    20
RC0001158467183H202100015122506000015122506025/10/20210754    3190330723742196425000024674000000220660000000000000                             JERINGA A 3 PARTES CON AGUJA  SOB X 1 RYMCO  10ML BN EXENTO-DC.417/2020SIN    20
RC0001146543698H202100015122506000015122506025/10/20210754    3190330723742196425000024674000000220660000000000000                             JERINGA A 3 PARTES CON AGUJA  SOB X 1 RYMCO  10ML BN EXENTO-DC.417/2020SIN    20
TI0001080436271H202100015122506000015122506025/10/20210754    3190330723742196425000024674000000220660000000000000                             JERINGA A 3 PARTES CON AGUJA  SOB X 1 RYMCO  10ML BN EXENTO-DC.417/2020SIN    20
TI0001046701779H202100015122506000015122506025/10/20210754    3190330723742196425000024674000000220660000000000000                             JERINGA A 3 PARTES CON AGUJA  SOB X 1 RYMCO  10ML BN EXENTO-DC.417/2020SIN    20
RC0001043714288H202100015122506000015122506025/10/20210754    3190330723742196425000024674000000220660000000000000                             JERINGA A 3 PARTES CON AGUJA  SOB X 1 RYMCO  10ML BN EXENTO-DC.417/2020SIN    20
RC0001046723141H202100015122506000015122506025/10/20210754    3190330723742196425000024674000000220660000000000000                             JERINGA A 3 PARTES CON AGUJA  SOB X 1 RYMCO  10ML BN EXENTO-DC.417/2020SIN    20
TI0001073826213H202100015122506000015122506025/10/20210754    3190330723742196425000011088900001318270000000000000                                                               GUANTE CIRUGIA NITRILO ALFASAFE 7 1/2SOB     2
RC0001063188067H202100015122506000015122506025/10/20210754    3190330723742196425000011088900001318270000000000000                                                               GUANTE CIRUGIA NITRILO ALFASAFE 7 1/2SOB     2
RC0001187466818H202100015122506000015122506025/10/20210754    3190330723742196425000011088900001318270000000000000                                                               GUANTE CIRUGIA NITRILO ALFASAFE 7 1/2SOB     2
RC0001046723141H202100015122506000015122506025/10/20210754    3190330723742196425000011088900001318270000000000000                                                               GUANTE CIRUGIA NITRILO ALFASAFE 7 1/2SOB     2
TI0001073826213H202100015122506000015122506025/10/20210754    3190330723742196425000023486400001318040000000000000                                                               GUANTE CIRUGIA NITRILO ALFASAFE 6 1/2SOB     2
RC0001063188067H202100015122506000015122506025/10/20210754    3190330723742196425000023486400001318040000000000000                                                               GUANTE CIRUGIA NITRILO ALFASAFE 6 1/2SOB     2
RC0001187466818H202100015122506000015122506025/10/20210754    3190330723742196425000023486400001318040000000000000                                                               GUANTE CIRUGIA NITRILO ALFASAFE 6 1/2SOB     2
RC0001046723141H202100015122506000015122506025/10/20210754    3190330723742196425000023486400001318040000000000000                                                               GUANTE CIRUGIA NITRILO ALFASAFE 6 1/2SOB     2
RC0001187466818H202100015122506000015122506025/10/20210754    3190330723742196425000022426800001140510000000000000                                                                    EQUIPO MACROGOTEO BAXTER MRC0001SOB     2
RC0001146543698H202100015122506000015122506025/10/20210754    3190330723742196425000022426800001140510000000000000                                                                    EQUIPO MACROGOTEO BAXTER MRC0001SOB     2
RC0001046723141H202100015122506000015122506025/10/20210754    3190330723742196425000022426800001140510000000000000                                                                    EQUIPO MACROGOTEO BAXTER MRC0001SOB     2
RC0001187466818H202100015122506000015122506025/10/20210754    3190330723742196425000011082900001233450000000000000                                                               EQUIPO LC 5000 PRIMARIO FOTOPRO 0L218SOB     1
TI0001073826213H202100015122506000015122506025/10/20210754    3190330723742196425000011082700001620070000000000000                                                               EQUIPO SET PRIMARIO C/CLAVE REF 14001BOL     1
RC0001187466818H202100015122506000015122506025/10/20210754    3190330723742196425000011082700001620070000000000000                                                               EQUIPO SET PRIMARIO C/CLAVE REF 14001BOL     3
RC0001043714288H202100015122506000015122506025/10/20210754    3190330723742196425000011082700001620070000000000000                                                               EQUIPO SET PRIMARIO C/CLAVE REF 14001BOL     1
RC0001046723141H202100015122506000015122506025/10/20210754    3190330723742196425000011082700001620070000000000000                                                               EQUIPO SET PRIMARIO C/CLAVE REF 14001BOL     2
TI0001073826213H202100015122506000015122506025/10/20210754    3190330723742196425000030936900001431840000000000000                                                                                              BURETABOL     1
RC0001187466818H202100015122506000015122506025/10/20210754    3190330723742196425000030936900001431840000000000000                                                                                              BURETABOL     1
RC0001043714288H202100015122506000015122506025/10/20210754    3190330723742196425000030936900001431840000000000000                                                                                              BURETABOL     1
RC0001046723141H202100015122506000015122506025/10/20210754    3190330723742196425000030936900001431840000000000000                                                                                              BURETABOL     1
RC0001146543698H202100015122506000015122506025/10/20210754    31903307237421964250000B5BC0100003889300000000000000                                                                        MANITOL SLN INY 20% X 500 MLBOL     1
RC0001063188067H202100015122506000015122506025/10/20210754    31903307237421964250000E1AA1400003888550000000000000                                                                         DEXTROSA 10% SLN INY 250 MLBOL     1
TI0001073826213H202100015122506000015122506025/10/20210754    31903307237421964250000E1AD0300000199490000000000000                                         LACTATO RINGER USP (HARTMANN)  SOL INY  BOL X 1000ML BAXTERBIN     2
RC0001146543698H202100015122506000015122506025/10/20210754    31903307237421964250000E1AD0300000199490000000000000                                         LACTATO RINGER USP (HARTMANN)  SOL INY  BOL X 1000ML BAXTERBIN     2
TI0001080436271H202100015122506000015122506025/10/20210754    31903307237421964250000E1AD0300000199490000000000000                                         LACTATO RINGER USP (HARTMANN)  SOL INY  BOL X 1000ML BAXTERBIN     4
TI0001046701779H202100015122506000015122506025/10/20210754    31903307237421964250000E1AD0300000199490000000000000                                         LACTATO RINGER USP (HARTMANN)  SOL INY  BOL X 1000ML BAXTERBIN     3
TI0001073826213H202100015122506000015122506025/10/20210754    31903307237421964250000E1AB0700003888350000000000000                                                            SOLUCION SALINA 0.9% SLN INY BO X 250 MLBOL     1
TI0001073826213H202100015122506000015122506025/10/20210754    31903307237421964250000E1AB0200000199290000000000000                                                            SOLUCION SALINA 0.9% SLN INY BO X 100 MLBIN     1
RC0001063188067H202100015122506000015122506025/10/20210754    31903307237421964250000E1AB0200000199290000000000000                                                            SOLUCION SALINA 0.9% SLN INY BO X 100 MLBIN     1
RC0001187466818H202100015122506000015122506025/10/20210754    31903307237421964250000E1AB0200000199290000000000000                                                            SOLUCION SALINA 0.9% SLN INY BO X 100 MLBIN     1
RC0001158467183H202100015122506000015122506025/10/20210754    31903307237421964250000E1AB0200000199290000000000000                                                            SOLUCION SALINA 0.9% SLN INY BO X 100 MLBIN     1
RC0001146543698H202100015122506000015122506025/10/20210754    31903307237421964250000E1AB0200000199290000000000000                                                            SOLUCION SALINA 0.9% SLN INY BO X 100 MLBIN     1
TI0001080436271H202100015122506000015122506025/10/20210754    31903307237421964250000E1AB0200000199290000000000000                                                            SOLUCION SALINA 0.9% SLN INY BO X 100 MLBIN     1
TI0001046701779H202100015122506000015122506025/10/20210754    31903307237421964250000E1AB0200000199290000000000000                                                            SOLUCION SALINA 0.9% SLN INY BO X 100 MLBIN     1
RC0001043714288H202100015122506000015122506025/10/20210754    31903307237421964250000E1AB0200000199290000000000000                                                            SOLUCION SALINA 0.9% SLN INY BO X 100 MLBIN     1
RC0001046723141H202100015122506000015122506025/10/20210754    31903307237421964250000E1AB0200000199290000000000000                                                            SOLUCION SALINA 0.9% SLN INY BO X 100 MLBIN     1
RC0001187466818H202100015122506000015122506025/10/20210754    31903307237421964250000E1AC0100000199400000000000000                                                                          SUERO MIXTO Sln Iny 500 mlBIN     1
RC0001046723141H202100015122506000015122506025/10/20210754    31903307237421964250000E1AC0100000199400000000000000                                                                          SUERO MIXTO Sln Iny 500 mlBIN     1
TI0001073826213H202100015122506000015122506025/10/20210754    3190330723742196425000011137100001419310000000000000                                                               TIRA GLUCOMETRIA FREESTYLE H OPTIUM .PZA     2
RC0001063188067H202100015122506000015122506025/10/20210754    3190330723742196425000011137100001419310000000000000                                                               TIRA GLUCOMETRIA FREESTYLE H OPTIUM .PZA     2
RC0001187466818H202100015122506000015122506025/10/20210754    3190330723742196425000011137100001419310000000000000                                                               TIRA GLUCOMETRIA FREESTYLE H OPTIUM .PZA     2
RC0001046723141H202100015122506000015122506025/10/20210754    3190330723742196425000011137100001419310000000000000                                                               TIRA GLUCOMETRIA FREESTYLE H OPTIUM .PZA     2
