CC0000032886077U202100000554955800000554955825/10/20211849     3300004239421964320000A03F0300001626860000000000000                                                                   METOCLOPRAMIDA SLN INY 10 MG/2 MLAMP     1
CC0000032886077U202100000554955800000554955825/10/20211928    31902010239421964320000E1AB0200000199290000000000000                                                            SOLUCION SALINA 0.9% SLN INY BO X 100 MLBIN     1
CC0000032886077U202100000554955800000554955825/10/20211849     3300004239421964320000N02B1100001169680000000000000                              PARACETAMOL 1000MG/100ML(10MG/ML) SOL INY  VIAL X 100ML FRESENIUS KABIVAL     1
