RC0001043711220H202100015052695100015052695125/10/20212050    3150033123742196425000011082700001620070000000000000                                                               EQUIPO SET PRIMARIO C/CLAVE REF 14001BOL     1
CC0001143250996H202100015052695100015052695125/10/20212050    3150033123742196425000011082700001620070000000000000                                                               EQUIPO SET PRIMARIO C/CLAVE REF 14001BOL     1
CC0001045685077H202100015052695100015052695125/10/20212050    3150033123742196425000011082700001620070000000000000                                                               EQUIPO SET PRIMARIO C/CLAVE REF 14001BOL     1
RC0001043711220H202100015052695100015052695125/10/20212050    3150033123742196425000030936900001431840000000000000                                                                                              BURETABOL     1
CC0001143250996H202100015052695100015052695125/10/20212050    3150033123742196425000030936900001431840000000000000                                                                                              BURETABOL     1
CC0001045685077H202100015052695100015052695125/10/20212050    3150033123742196425000030936900001431840000000000000                                                                                              BURETABOL     1
