CC0001129582071U202100050131360700050131360725/10/20211052    3190100523942196432000049428400000738560000000000000                                                                       VENDA ELASTICA 5*5 NO ESTERILSOB     1
CC0001129582071U202100050131360700050131360725/10/20211052    3190100523942196432000049419700001679920000000000000                                                                        VENDA ALGODON 5*5 NO ESTERILSOB     1
CC0001129582071U202100050131360700050131360725/10/20211052    3190100523942196432000011069000000212140000000000000                                                                      VASELINA QUIMIBEN POTE X 500 GTAR     1
CC0001129582071U202100050131360700050131360725/10/20211052    3190100523942196432000024674000000220660000000000000                             JERINGA A 3 PARTES CON AGUJA  SOB X 1 RYMCO  10ML BN EXENTO-DC.417/2020SIN     1
CC0001129582071U202100050131360700050131360725/10/20211052    3190100523942196432000011088900001318270000000000000                                                               GUANTE CIRUGIA NITRILO ALFASAFE 7 1/2SOB     1
CC0001129582071U202100050131360700050131360725/10/20211052    3190100523942196432000013077800000471960000000000000                                                             GASA NO TEJIDA EST 7.5 X 7.5 SOB X 3 UNSOB     4
CC0001129582071U202100050131360700050131360725/10/20211052    3190100523942196432000011082700001620070000000000000                                                               EQUIPO SET PRIMARIO C/CLAVE REF 14001BOL     1
CC0001129582071U202100050131360700050131360725/10/20211052    31901005239421964320000Q1AA7200000610630000000000000                                                            CATETER PERIFE INTROCAN # 20G 4251644-04SIN     1
CC0001129582071U202100050131360700050131360725/10/20211052    3190100523942196432000016830000000970620000000000000                                                             SIST FIJACION CAT PERIFERICO 6.5X7 1683SOB     1
CC0001129582071U202100050131360700050131360725/10/20211052    31901005239421964320000E1AB0700003888350000000000000                                                            SOLUCION SALINA 0.9% SLN INY BO X 250 MLBOL     1
