CC0000055163818H202100015112644300015112644325/10/20212043    3190092623742196425000013077800000471960000000000000                                                             GASA NO TEJIDA EST 7.5 X 7.5 SOB X 3 UNSOB     5
CC0000008753953H202100015112644300015112644325/10/20212043    3190092623742196425000013077800000471960000000000000                                                             GASA NO TEJIDA EST 7.5 X 7.5 SOB X 3 UNSOB     5
CC0000007469257H202100015112644300015112644325/10/20212043    3190092623742196425000013077800000471960000000000000                                                             GASA NO TEJIDA EST 7.5 X 7.5 SOB X 3 UNSOB     5
CC0000007469257H202100015112644300015112644325/10/20212043    3190092623742196425000011082700001620070000000000000                                                               EQUIPO SET PRIMARIO C/CLAVE REF 14001BOL     1
CC0000055163818H202100015112644300015112644325/10/20212043    3190092623742196425000000602700001197200000000000000                                                              APOSITO TRANSP  1655 IV 8.5CM X 11.5CMSOB     1
CC0000008753953H202100015112644300015112644325/10/20212043    3190092623742196425000000602700001197200000000000000                                                              APOSITO TRANSP  1655 IV 8.5CM X 11.5CMSOB     2
