CC0001143438060A202100000027621200000027621225/10/20211036    3190333624042196419000011075800000235280000000000000                                                               CABESTRILLO SENCILLO KM2001 PEDIATRICBOL     1
CC0001143438060A202100000027621200000027621225/10/20211036    3190333624042196419000049419700001679920000000000000                                                                        VENDA ALGODON 5*5 NO ESTERILSOB     1
CC0001143438060A202100000027621200000027621225/10/20211036    3190333624042196419000049428400000738560000000000000                                                                       VENDA ELASTICA 5*5 NO ESTERILSOB     1
CC0001143438060A202100000027621200000027621225/10/20211036    3190333624042196419000011857700001096350000000000000                                                              AGUJA SONOPLEX BLOQUEO 21*100 01185-77BOL     1
CC0001143438060A202100000027621200000027621225/10/20211036    31903336240421964190000N01A0400003939010000000000000                                               MAYOPROFOL 200MG/20ML(1%) EMUL INY CAJ X 1VIAL X 20MLVAL     1
CC0001143438060A202100000027621200000027621225/10/20211036    3190333624042196419000017566200001585160000000000000                                                                  PROLENE 4-0 AZ 45 PS2 PRIME P8682TSOB     1
CC0001143438060A202100000027621200000027621225/10/20211036    3190333624042196419000040511700000258570000000000000                                                              APOSITO BACTIGRAS REF 7457 10CM X 10CMSIN     1
CC0001143438060A202100000027621200000027621225/10/20211036    3190333624042196419000030161400001459220000000000000                                                                       MANGUERA SUCCION 6 MM*3.1 MTSSOB     1
CC0001143438060A202100000027621200000027621225/10/20211036    3190333624042196419000045138000001413890000000000000                                                                       LAPIZ ELECTROBISTURI  SOB X 1SOB     1
CC0001143438060A202100000027621200000027621225/10/20211036    3190333624042196419000018665700003929810000000000000                                                STOQUINETA ORTOPEDICA TUBULAR ROL X 25MT WINER 4PULGCMT     1
CC0001143438060A202100000027621200000027621225/10/20211036    3190333624042196419000049428300000860750000000000000                                                                       VENDA ELASTICA 4*5 NO ESTERILBOL     2
CC0001143438060A202100000027621200000027621225/10/20211036    3190333624042196419000049419600001679900000000000000                                                                        VENDA ALGODON 4*5 NO ESTERILSOB     2
CC0001143438060A202100000027621200000027621225/10/20211036    3190333624042196419000019488400000599300000000000000                                                                               VICRYL 2-0 SH VCP317HSIN     1
CC0001143438060A202100000027621200000027621225/10/20211036    3190333624042196419000019488700000753270000000000000                                                                              VICRYL 3-0 SH1 VCP311HSOB     1
CC0001143438060A202100000027621200000027621225/10/20211036    3190333624042196419000043879400001138170000000000000                                                                  HOJA BISTURI # 10 CSSB 10 01002000SOB     1
CC0001143438060A202100000027621200000027621225/10/20211036    3190333624042196419000043879100001138200000000000000                                                                  HOJA BISTURI # 15 CSSB 15 01002003SOB     1
CC0001143438060A202100000027621200000027621225/10/20211036    3190333624042196419000022425200000548240000000000000                       EXTENSION DE ANESTESIA REF 1139 SOB X 1 SHERLEG  ADULTO BN EXENTO-DC.417/2020SIN     1
CC0001143438060A202100000027621200000027621225/10/20211036    3190333624042196419000035356500003919000000000000000                                                                                        LLAVE 3 VIASSOB     2
CC0001143438060A202100000027621200000027621225/10/20211036    31903336240421964190000Q1AA7100000610620000000000000                                                            CATETER PERIFE INTROCAN # 18G 4251687-04SIN     1
CC0001143438060A202100000027621200000027621225/10/20211036    3190333624042196419000022426800001140510000000000000                                                                    EQUIPO MACROGOTEO BAXTER MRC0001SOB     1
CC0001143438060A202100000027621200000027621225/10/20211036    31903336240421964190000J01DA300001239950000000000000                                                            CEFAZOLINA SODICA POLVO LIOF SLN INY 1 GVAL     1
CC0001143438060A202100000027621200000027621225/10/20211036    3190333624042196419000011073300001096420000000000000                                                                BOLSA DE SUCCION DE FLUIDOS x 2500mLBOL     1
CC0001143438060A202100000027621200000027621225/10/20211036    3190333624042196419000020750600000296780000000000000                                                                PLACA ELECTRO RETORNO PACIENTE E7506SIN     1
CC0001143438060A202100000027621200000027621225/10/20211036    3190333624042196419000053074400000607910000000000000                                                               GASA ESTERIL 10*10 SOBRE X 3 UNIDADESSOB     7
CC0001143438060A202100000027621200000027621225/10/20211036    3190333624042196419000024673000001411210000000000000                                                                  JERINGA DESECHABLE 3 ML 21 X 1 1/2SOB     2
CC0001143438060A202100000027621200000027621225/10/20211036    3190333624042196419000024674000000220660000000000000                             JERINGA A 3 PARTES CON AGUJA  SOB X 1 RYMCO  10ML BN EXENTO-DC.417/2020SIN     6
CC0001143438060A202100000027621200000027621225/10/20211036    3190333624042196419000024674500000322810000000000000                                                                   JERINGA DESECHABLE 20 ml 21*1 1/2SIN     2
CC0001143438060A202100000027621200000027621225/10/20211036    3190333624042196419000038568100000258050000000000000                                                                         CANULA OXIGENO NASAL ADULTOSIN     1
CC0001143438060A202100000027621200000027621225/10/20211036    3190333624042196419000011085300001082140000000000000                                                                           GUANTE QUIRURGICO TALLA 8SOB     2
CC0001143438060A202100000027621200000027621225/10/20211036    3190333624042196419000011085200001585390000000000000                                                                       GUANTE QUIRURGICO TALLA 7 1/2SOB     3
CC0001143438060A202100000027621200000027621225/10/20211036    3190333624042196419000011085100001082120000000000000                                                                           GUANTE QUIRURGICO TALLA 7SOB     3
CC0001143438060A202100000027621200000027621225/10/20211036    3190333624042196419000043485100001618510000000000000                GUANTE QUIRURGICO DE LATEX REF 2D72N65X CAJ X 50 PROTEXIS  6.5 BN EXENTO-DC.417/2020SOB     5
CC0001143438060A202100000027621200000027621225/10/20211036    3190333624042196419000020058100001101630000000000000                                                                     AGUJA HIPODERMICA DESECH 23 X 1SOB     1
CC0001143438060A202100000027621200000027621225/10/20211036    31903336240421964190000E1AD0200003888320000000000000                                                                              HARTMAN SLN INY 500 MLBOL     2
CC0001143438060A202100000027621200000027621225/10/20211036    31903336240421964190000E1AB0300003888390000000000000                                                            SOLUCION SALINA 0.9% SLN INY BO X 500 MLBOL     4
CC0001143438060A202100000027621200000027621225/10/20211036    31903336240421964190000E1AB0200000199290000000000000                                                            SOLUCION SALINA 0.9% SLN INY BO X 100 MLBIN     1
CC0001143438060A202100000027621200000027621225/10/20211036    31903336240421964190000N01B0600003888900000000000000                                                    BUPINEST 75MG/10ML(0.75%) SOL INY CAJ X 24AMPACKAPC     2
CC0001143438060A202100000027621200000027621225/10/20211036    31903336240421964190000A03F0300001626860000000000000                                                                   METOCLOPRAMIDA SLN INY 10 MG/2 MLAMP     1
CC0001143438060A202100000027621200000027621225/10/20211036    31903336240421964190000N2BB0100000787510000000000000                                                                    DIPIRONA SODICA Sln Iny 1 g/2 mlAMP     3
CC0001143438060A202100000027621200000027621225/10/20211036    31903336240421964190000M01A2000001664970000000000000                                                               DICLOFENACO SODICO SLN INY 75 MG/3 MLAMP     1
CC0001143438060A202100000027621200000027621225/10/20211036    31903336240421964190000H02A0100001664960000000000000                                                                        DEXAMETASONA SLN INY 4 MG/MLAMP     2
CC0001143438060A202100000027621200000027621225/10/20211036    31903336240421964190000N05CD300000218170000000000000                                           DORMICUM IV-IM 5MG/5ML(1MG/ML) SOL INY  CAJ X 10AMP X 5MLAMP     1
