CC0000032651823H202100015012564200015012564225/10/20212030    3190117723742196425000011082700001620070000000000000                                                               EQUIPO SET PRIMARIO C/CLAVE REF 14001BOL     1
CC0000084078895H202100015012564200015012564225/10/20212030    3190117723742196425000011082700001620070000000000000                                                               EQUIPO SET PRIMARIO C/CLAVE REF 14001BOL     1
CC0000084078895H202100015012564200015012564225/10/20212030    31901177237421964250000Q1AA7200000610630000000000000                                                            CATETER PERIFE INTROCAN # 20G 4251644-04SIN     1
CC0000084078895H202100015012564200015012564225/10/20212030    31901177237421964250000Q1AA7300000610640000000000000                                                            CATETER PERIFE INTROCAN # 22G 4251628-04SIN     1
CC0000032651823H202100015012564200015012564225/10/20212030    3190117723742196425000030936900001431840000000000000                                                                                              BURETABOL     1
CC0000008565480H202100015012564200015012564225/10/20212030    31901177237421964250000E1AB0300003888390000000000000                                                            SOLUCION SALINA 0.9% SLN INY BO X 500 MLBOL     1
CC0000044205440H202100015012564200015012564225/10/20212030    31901177237421964250000E1AB0300003888390000000000000                                                            SOLUCION SALINA 0.9% SLN INY BO X 500 MLBOL     1
RC0001236888030H202100015012564200015012564225/10/20212030    31901177237421964250000E1AC0100000199400000000000000                                                                          SUERO MIXTO Sln Iny 500 mlBIN     1
