CC0000022736638A202100000027622500000027622525/10/20210814    3190333624042196419000000601800000258500000000000000                                                            APOSITO OPSITE POST - OP0712  15CM X 8CMSIN     1
CC0000022736638A202100000027622500000027622525/10/20210814    31903336240421964190000N01B0200003888110000000000000                                           ROXICAINA SE 100MG/10ML(1%) SOL INY CAJ X 24AMPACK X 10MLAPC     1
CC0000022736638A202100000027622500000027622525/10/20210814    31903336240421964190000N1BA0500000647360000000000000                                                                  BUPIROP 0.5% PESADO SLN INY X 4 MLAPC     1
CC0000022736638A202100000027622500000027622525/10/20210814    31903336240421964190000Q1A15500001690750000000000000                                                            AGUJA ESPINAL WHITACRE 27*3 1/2  4502027SOB     1
CC0000022736638A202100000027622500000027622525/10/20210814    3190333624042196419000011017400000231840000000000000                                                                         CATGUT CROMADO 2-0 CT1 923TSIN     1
CC0000022736638A202100000027622500000027622525/10/20210814    3190333624042196419000000502800000231810000000000000                                                             SUTURA CATGUT CROMADO 1-0 CT1 70CM 813TSIN     1
CC0000022736638A202100000027622500000027622525/10/20210814    3190333624042196419000043879500001138210000000000000                                                                                    HOJA BISTURI #20SOB     1
CC0000022736638A202100000027622500000027622525/10/20210814    3190333624042196419000019487800001585180000000000000                                                                    VICRYL 1 PLUS 70 CM CT-1 VCP341HSOB     1
CC0000022736638A202100000027622500000027622525/10/20210814    31903336240421964190000B02AA100001407470000000000000                                                                    CLINTRANEX SLN INY 500 MG / 5 MLAMP     2
CC0000022736638A202100000027622500000027622525/10/20210814    3190333624042196419000038570000001123500000000000000                                                                              SONDA FOLEY #16 2 VIASSOB     1
CC0000022736638A202100000027622500000027622525/10/20210814    3190333624042196419000031188000000236790000000000000                                                                                     CISTOFLO ADULTOSIN     1
CC0000022736638A202100000027622500000027622525/10/20210814    3190333624042196419000011021400000231930000000000000                                                                          CATGUT SIMPLE 2-0 CT1 843TSIN     1
CC0000022736638A202100000027622500000027622525/10/20210814    3190333624042196419000086220000000232640000000000000                                                              PROLENE 3/0 KS RECTA 8622H CIERRE PIELSIN     1
CC0000022736638A202100000027622500000027622525/10/20210814    3190333624042196419000045138000001413890000000000000                                                                       LAPIZ ELECTROBISTURI  SOB X 1SOB     1
CC0000022736638A202100000027622500000027622525/10/20210814    3190333624042196419000030161400001459220000000000000                                                                       MANGUERA SUCCION 6 MM*3.1 MTSSOB     1
CC0000022736638A202100000027622500000027622525/10/20210814    3190333624042196419000000016500000223580000000000000                                                                    STERI-STRIP 12 X 100 REF 1547 3MSIN     1
CC0000022736638A202100000027622500000027622525/10/20210814    3190333624042196419000022425200000548240000000000000                       EXTENSION DE ANESTESIA REF 1139 SOB X 1 SHERLEG  ADULTO BN EXENTO-DC.417/2020SIN     1
CC0000022736638A202100000027622500000027622525/10/20210814    3190333624042196419000035356500003919000000000000000                                                                                        LLAVE 3 VIASSOB     2
CC0000022736638A202100000027622500000027622525/10/20210814    31903336240421964190000Q1AA7100000610620000000000000                                                            CATETER PERIFE INTROCAN # 18G 4251687-04SIN     1
CC0000022736638A202100000027622500000027622525/10/20210814    3190333624042196419000022426800001140510000000000000                                                                    EQUIPO MACROGOTEO BAXTER MRC0001SOB     1
CC0000022736638A202100000027622500000027622525/10/20210814    3190333624042196419000016830000000970620000000000000                                                             SIST FIJACION CAT PERIFERICO 6.5X7 1683SOB     1
CC0000022736638A202100000027622500000027622525/10/20210814    31903336240421964190000J01DA300001239950000000000000                                                            CEFAZOLINA SODICA POLVO LIOF SLN INY 1 GVAL     2
CC0000022736638A202100000027622500000027622525/10/20210814    3190333624042196419000011073300001096420000000000000                                                                BOLSA DE SUCCION DE FLUIDOS x 2500mLBOL     1
CC0000022736638A202100000027622500000027622525/10/20210814    3190333624042196419000020750600000296780000000000000                                                                PLACA ELECTRO RETORNO PACIENTE E7506SIN     1
CC0000022736638A202100000027622500000027622525/10/20210814    3190333624042196419000053074400000607910000000000000                                                               GASA ESTERIL 10*10 SOBRE X 3 UNIDADESSOB     4
CC0000022736638A202100000027622500000027622525/10/20210814    3190333624042196419000011085300001082140000000000000                                                                           GUANTE QUIRURGICO TALLA 8SOB     2
CC0000022736638A202100000027622500000027622525/10/20210814    3190333624042196419000011085200001585390000000000000                                                                       GUANTE QUIRURGICO TALLA 7 1/2SOB     4
CC0000022736638A202100000027622500000027622525/10/20210814    3190333624042196419000011085100001082120000000000000                                                                           GUANTE QUIRURGICO TALLA 7SOB     2
CC0000022736638A202100000027622500000027622525/10/20210814    3190333624042196419000043485100001618510000000000000                GUANTE QUIRURGICO DE LATEX REF 2D72N65X CAJ X 50 PROTEXIS  6.5 BN EXENTO-DC.417/2020SOB     2
CC0000022736638A202100000027622500000027622525/10/20210814    3190333624042196419000038568100000258050000000000000                                                                         CANULA OXIGENO NASAL ADULTOSIN     1
CC0000022736638A202100000027622500000027622525/10/20210814    3190333624042196419000020058100001101630000000000000                                                                     AGUJA HIPODERMICA DESECH 23 X 1SOB     1
CC0000022736638A202100000027622500000027622525/10/20210814    3190333624042196419000020056600001101530000000000000                                                                AGUJA HIPODERMICA DESECH 18G X 1 1/2SOB     1
CC0000022736638A202100000027622500000027622525/10/20210814    3190333624042196419000024674000000220660000000000000                             JERINGA A 3 PARTES CON AGUJA  SOB X 1 RYMCO  10ML BN EXENTO-DC.417/2020SIN     6
CC0000022736638A202100000027622500000027622525/10/20210814    31903336240421964190000E1AB0300003888390000000000000                                                            SOLUCION SALINA 0.9% SLN INY BO X 500 MLBOL     3
CC0000022736638A202100000027622500000027622525/10/20210814    31903336240421964190000E1AB0200000199290000000000000                                                            SOLUCION SALINA 0.9% SLN INY BO X 100 MLBIN     1
CC0000022736638A202100000027622500000027622525/10/20210814    31903336240421964190000N02B1100001169680000000000000                              PARACETAMOL 1000MG/100ML(10MG/ML) SOL INY  VIAL X 100ML FRESENIUS KABIVAL     1
CC0000022736638A202100000027622500000027622525/10/20210814    31903336240421964190000A2BC0900000200150000000000000                                                                               ORAZOLE Sln Iny 40 mgCIN     1
CC0000022736638A202100000027622500000027622525/10/20210814    31903336240421964190000M01A0400001341250000000000000                                                                              DYNASTAT AMP 40 MG /R/VAL     1
CC0000022736638A202100000027622500000027622525/10/20210814    31903336240421964190000N2BB1100000217160000000000000                                                                      NOVALGINA Sln Iny 2.5 g x 5 mlAMP     1
CC0000022736638A202100000027622500000027622525/10/20210814    31903336240421964190000A4AD0200000202990000000000000                                                                     PLITICAN HCL Sln Iny 50 mg/2 mlAMP     1
CC0000022736638A202100000027622500000027622525/10/20210814    31903336240421964190000H02AB500001664950000000000000                                                            DEXAMETASONA SLN INY 8 MG/2 ML AMP /CDS/AMP     1
CC0000022736638A202100000027622500000027622525/10/20210814    31903336240421964190000N2AA0100000301640000000000000                                                                            MORFINA Sln Iny 10 mg/mlAMP     1
CC0000022736638A202100000027622500000027622525/10/20210814    31903336240421964190000N5CD0300000218170000000000000                                                                          DORMICUM Sln Iny 5 mg/5 mlAMP     1
CC0000022736638A202100000027622500000027622525/10/20210814    31903336240421964190000N1AH0200003906560000000000000                                                                     FENTANIL Iny 0.05 mg/ml x 10 mlAMP     1
