CC0000008761530H202100015112643800015112643825/10/20211735    3150057323742196425000030161400001459220000000000000                                                                       MANGUERA SUCCION 6 MM*3.1 MTSSOB     1
CC0000008761530H202100015112643800015112643825/10/20211735    3150057323742196425000039176700001029620000000000000                                                                    SUJETADOR TUBO ENDOTRAQUEAL 9799SOB     1
CC0000008761530H202100015112643800015112643825/10/20211735    3150057323742196425000038569400000256750000000000000                                                                        SONDA ASPIRACION CONTROL #14SIN     4
CC0000008761530H202100015112643800015112643825/10/20211735    3150057323742196425000022108000003906060000000000000                                                            SIST CERRAD ASPIRAC TRACH  22108-5 14 FRSOB     1
CC0000008761530H202100015112643800015112643825/10/20211735    3150057323742196425000036441300000236540000000000000                                                                    JERINGA 1 ML GASES ARTERIAL 9023SIN     4
CC0000008761530H202100015112643800015112643825/10/20211735    3150057323742196425000013077800000471960000000000000                                                             GASA NO TEJIDA EST 7.5 X 7.5 SOB X 3 UNSOB     4
CC0000008761530H202100015112643800015112643825/10/20211735    3150057323742196425000011078200001605710000000000000                                                                 CONECTOR FIBROBRONCOSCOPIO 9591 40CSOB     1
CC0000008761530H202100015112643800015112643825/10/20211735    3150057323742196425000020816000001096410000000000000                                                                          LINER PARED DELGADA 1500CCBOL     1
CC0000008761530H202100015112643800015112643825/10/20211735    3150057323742196425000037180800001271920000000000000                                                                   APOSITO DUODERM EXTR TH 10*10 187SOB     1
CC0000008761530H202100015112643800015112643825/10/20211735    31500573237421964250000E1AB0200000199290000000000000                                                            SOLUCION SALINA 0.9% SLN INY BO X 100 MLBIN     4
