CC0001143151880H202100015112643600015112643625/10/20211644    3190305923742196425000011082700001620070000000000000                                                               EQUIPO SET PRIMARIO C/CLAVE REF 14001BOL     1
CC0001143151880H202100015112643600015112643625/10/20211644    3190305923742196425000001956000001620610000000000000                                                                      CONECTOR MICRO CLAVE LAT-MC100SOB     1
CC0001143151880H202100015112643600015112643625/10/20211644    31903059237421964250000E1AD0300000199490000000000000                                         LACTATO RINGER USP (HARTMANN)  SOL INY  BOL X 1000ML BAXTERBIN     2
CC0001143151880H202100015112643600015112643625/10/20211644    31903059237421964250000E1AB0200000199290000000000000                                                            SOLUCION SALINA 0.9% SLN INY BO X 100 MLBIN     4
CC0001143151880H202100015112643600015112643625/10/20211644    3190305923742196425000011137100001419310000000000000                                                               TIRA GLUCOMETRIA FREESTYLE H OPTIUM .PZA     3
