CC0001045684571H202100000554928900000554928925/10/20211636    31900995237421964250000B1AB0100001227270000000000000                                             HEPAMAX 25000UI/5ML(5000UI/ML) SOL INY  CAJ X 25AMPX5MLAMP     2
CC0001045684571H202100000554928900000554928925/10/20210522    31901450237421964250000C7AB1000001382030000000000000                                                                   NOREPINEFRINA SLN INY 4 MG / 4 MLAMP    16
CC0001045684571H202100000554928900000554928925/10/20211159    31900995237421964250000C01DA100000176460000000000000                                                            NITROGLICERINA EN DEXTROSA VIAL X 250 MLFCO     1
CC0001045684571H202100000554928900000554928925/10/20211636    31900995237421964250000H02AB500001664950000000000000                                                            DEXAMETASONA SLN INY 8 MG/2 ML AMP /CDS/AMP     1
CC0001045684571H202100000554928900000554928925/10/20211159    31900995237421964250000C03C0100001672000000000000000                                                                       FUROSEMIDA SLN INY 20 MG/2 MLAMP     1
CC0001045684571H202100000554928900000554928925/10/20211136    31900995237421964250000C03C0100001672000000000000000                                                                       FUROSEMIDA SLN INY 20 MG/2 MLAMP     2
