CC0000008633435H202100000554928600000554928625/10/20210520     3300009237421964250000A2BC0900000200150000000000000                                                                               ORAZOLE Sln Iny 40 mgCIN     1
CC0000008633435H202100000554928600000554928625/10/20211253     3300009237421964250000J1DA3100000187510000000000000                                                                           ROCEFIN Polvo SLN INY 1 GCIN     1
CC0000008633435H202100000554928600000554928625/10/20210520     3300009237421964250000J1DA3100000187510000000000000                                                                           ROCEFIN Polvo SLN INY 1 GCIN     1
CC0000008633435H202100000554928600000554928625/10/20211945     3300010237421964250000N2BB1100000217160000000000000                                                                      NOVALGINA Sln Iny 2.5 g x 5 mlAMP     1
CC0000008633435H202100000554928600000554928625/10/20211253     3300009237421964250000N2BB1100000217160000000000000                                                                      NOVALGINA Sln Iny 2.5 g x 5 mlAMP     1
CC0000008633435H202100000554928600000554928625/10/20210520     3300009237421964250000N2BB1100000217160000000000000                                                                      NOVALGINA Sln Iny 2.5 g x 5 mlAMP     2
CC0000008633435H202100000554928600000554928625/10/20211253     3300009237421964250000N02B1100001169680000000000000                              PARACETAMOL 1000MG/100ML(10MG/ML) SOL INY  VIAL X 100ML FRESENIUS KABIVAL     1
CC0000008633435H202100000554928600000554928625/10/20210520     3300009237421964250000N02B1100001169680000000000000                              PARACETAMOL 1000MG/100ML(10MG/ML) SOL INY  VIAL X 100ML FRESENIUS KABIVAL     3
CC0000008633435H202100000554928600000554928625/10/20210520     3300009237421964250000N05A0500001336370000000000000                                                                              SEROQUEL TAB 25 MG /R/TAB     1
CC0000008633435H202100000554928600000554928625/10/20212159     3300009237421964250000N6AA0500001277740000000000000                                                                                   TRITICO TAB 50 MGTAB     1
CC0000008633435H202100000554928600000554928625/10/20211120    31903290237421964250000V07A1300000502600000000000000                                                                                AGUA ESTERIL x 10 mlAMP     5
