CC0000008534538U202100000554944800000554944825/10/20211300     3300004239421964320000A2BC0900000200150000000000000                                                                               ORAZOLE Sln Iny 40 mgCIN     1
CC0000008534538U202100000554944800000554944825/10/20211300     3300004239421964320000A3BB0200000512940000000000000                                                                          BUSCAPINA SIMPLE Iny 20 mgAMP     1
CC0000008534538U202100000554944800000554944825/10/20211300     3300004239421964320000A03A0800001177800000000000000                                                                      COLYPAN SLN INY 50 MG/5 ML /R/AMP     1
CC0000008534538U202100000554944800000554944825/10/20211423    31500194239421964320000E1AB1100003888280000000000000                                                                        SOLUCION SALINA 0.9% X 50 mlBOL     1
CC0000008534538U202100000554944800000554944825/10/20211422    31500194239421964320000E1AD0300000199490000000000000                                         LACTATO RINGER USP (HARTMANN)  SOL INY  BOL X 1000ML BAXTERBIN     1
