RC0001041701359U202100050131357100050131357125/10/20210229    3190286423942196432000011082700001620070000000000000                                                               EQUIPO SET PRIMARIO C/CLAVE REF 14001BOL     1
RC0001041701359U202100050131357100050131357125/10/20210229    31902864239421964320000Q1AA7400003911720000000000000                                                            CATETER PERIFE INTROCAN # 24G 4251601-04SOB     1
RC0001041701359U202100050131357100050131357125/10/20210229    3190286423942196432000030936900001431840000000000000                                                                                              BURETABOL     1
RC0001041701359U202100050131357100050131357125/10/20210229    3190286423942196432000016830000000970620000000000000                                                             SIST FIJACION CAT PERIFERICO 6.5X7 1683SOB     1
RC0001041701359U202100050131357100050131357125/10/20210229    31902864239421964320000E1AB0300003888390000000000000                                                            SOLUCION SALINA 0.9% SLN INY BO X 500 MLBOL     1
