CC0001129528161U202100050131368100050131368125/10/20211923    3190101023942196432000049428400000738560000000000000                                                                       VENDA ELASTICA 5*5 NO ESTERILSOB     2
CC0001129528161U202100050131368100050131368125/10/20211923    3190101023942196432000024674000000220660000000000000                             JERINGA A 3 PARTES CON AGUJA  SOB X 1 RYMCO  10ML BN EXENTO-DC.417/2020SIN     4
CC0001129528161U202100050131368100050131368125/10/20211923    31901010239421964320000Q1AA7000001097160000000000000                                                            CATETER PERIFE INTROCAN # 16G 4251709-04SOB     1
CC0001129528161U202100050131368100050131368125/10/20211923    3190101023942196432000011082700001620070000000000000                                                               EQUIPO SET PRIMARIO C/CLAVE REF 14001BOL     1
CC0001129528161U202100050131368100050131368125/10/20211923    3190101023942196432000030936900001431840000000000000                                                                                              BURETABOL     1
CC0001129528161U202100050131368100050131368125/10/20211923    3190101023942196432000016830000000970620000000000000                                                             SIST FIJACION CAT PERIFERICO 6.5X7 1683SOB     1
CC0001129528161U202100050131368100050131368125/10/20211923    31901010239421964320000E1AD0300000199490000000000000                                         LACTATO RINGER USP (HARTMANN)  SOL INY  BOL X 1000ML BAXTERBIN     2
