RC0001043198450H202100015132501300015132501325/10/20211127    3190229623742196425000011049800000266060000000000000                                                            KIT TERAPIA RESPIRATORIA 8906 PEDIATRICOBOL     1
RC0001043198450H202100015132501300015132501325/10/20211127    3190229623742196425000024674000000220660000000000000                             JERINGA A 3 PARTES CON AGUJA  SOB X 1 RYMCO  10ML BN EXENTO-DC.417/2020SIN     1
RC0001043198450H202100015132501300015132501325/10/20211127    31902296237421964250000E1AB0200000199290000000000000                                                            SOLUCION SALINA 0.9% SLN INY BO X 100 MLBIN     1
