TI0001081819374H202100000554935700000554935725/10/20212015    31903294237421964250000E1AD0300000199490000000000000                                         LACTATO RINGER USP (HARTMANN)  SOL INY  BOL X 1000ML BAXTERBIN     1
TI0001081819374H202100000554935700000554935725/10/20211759     3300009237421964250000H02A0100001664960000000000000                                                                        DEXAMETASONA SLN INY 4 MG/MLAMP     1
TI0001081819374H202100000554935700000554935725/10/20210844     3300010237421964250000H02A0100001664960000000000000                                                                        DEXAMETASONA SLN INY 4 MG/MLAMP     3
TI0001081819374H202100000554935700000554935725/10/20211759     3300009237421964250000N2BE2200001252930000000000000                                                                             ACETAMINOFEN Tab 500 MGTAB     1
TI0001081819374H202100000554935700000554935725/10/20210844     3300010237421964250000N2BE2200001252930000000000000                                                                             ACETAMINOFEN Tab 500 MGTAB     1
TI0001081819374H202100000554935700000554935725/10/20211759     3300009237421964250000S01EC100001300610000000000000                                                                                  VICLEAR TAB 250 MGTAB     1
TI0001081819374H202100000554935700000554935725/10/20210844     3300010237421964250000S01EC100001300610000000000000                                                                                  VICLEAR TAB 250 MGTAB     1
TI0001081819374H202100000554935700000554935725/10/20212015    31903294237421964250000V07A1300000502600000000000000                                                                                AGUA ESTERIL x 10 mlAMP     5
TI0001081819374H202100000554935700000554935725/10/20211405    31500107237421964250000V07A1300000502600000000000000                                                                                AGUA ESTERIL x 10 mlAMP     5
