CC0001129528161U202100050131369200050131369225/10/20212038    3150054723942196432000049428400000738560000000000000                                                                       VENDA ELASTICA 5*5 NO ESTERILSOB     5
CC0001129528161U202100050131369200050131369225/10/20212038    3150054723942196432000049428300000860750000000000000                                                                       VENDA ELASTICA 4*5 NO ESTERILBOL     2
CC0001129528161U202100050131369200050131369225/10/20212038    3150054723942196432000024674000000220660000000000000                             JERINGA A 3 PARTES CON AGUJA  SOB X 1 RYMCO  10ML BN EXENTO-DC.417/2020SIN     7
CC0001129528161U202100050131369200050131369225/10/20212038    31500547239421964320000E1AB0500003888400000000000000                                                              SOLUCION SALINA 0.9% SLN INY X 1000 MLBOL     6
