CC0000008753953H202100015042505800015042505825/10/20210809    3190315723742196425000029987800000325460000000000000                                                             TUBO ENDOTRAQ 8.0 C/B Y ESPIRAL INTERNASIN     1
CC0000008753953H202100015042505800015042505825/10/20210809    3190315723742196425000039176700001029620000000000000                                                                    SUJETADOR TUBO ENDOTRAQUEAL 9799SOB     1
CC0000008753953H202100015042505800015042505825/10/20210809    3190315723742196425000035639600001014740000000000000                                                                              MASCARA VENTURY ADULTOBOL     1
CC0000008753953H202100015042505800015042505825/10/20210809    3190315723742196425000036441300000236540000000000000                                                                    JERINGA 1 ML GASES ARTERIAL 9023SIN     5
CC0000008753953H202100015042505800015042505825/10/20210809    3190315723742196425000043492400000516570000000000000                                                                   GUIA P/TUBO ENDOTRAQ ADULTO 85865SIN     1
CC0000008753953H202100015042505800015042505825/10/20210809    3190315723742196425000037180800001271920000000000000                                                                   APOSITO DUODERM EXTR TH 10*10 187SOB     1
