RC0001041699033H202100015032575900015032575925/10/20211842    3190329023742196425000022426800001140510000000000000                                                                    EQUIPO MACROGOTEO BAXTER MRC0001SOB     1
RC0001146540735H202100015032575900015032575925/10/20211842    3190329023742196425000022426800001140510000000000000                                                                    EQUIPO MACROGOTEO BAXTER MRC0001SOB     1
RC0001041699033H202100015032575900015032575925/10/20211842    3190329023742196425000030936900001431840000000000000                                                                                              BURETABOL     1
RC0001146540735H202100015032575900015032575925/10/20211842    3190329023742196425000030936900001431840000000000000                                                                                              BURETABOL     1
