CC0000055163818A202100000027623100000027623125/10/20211047    3190333624042196419000011048700001134860000000000000                                                                JUEGO TUBO PRUEBA REF 8290286 DRAGERPZA     1
CC0000055163818A202100000027623100000027623125/10/20211047    3190333624042196419000036441300000236540000000000000                                                                    JERINGA 1 ML GASES ARTERIAL 9023SIN     2
CC0000055163818A202100000027623100000027623125/10/20211047    31903336240421964190000N02A3100001227160000000000000                                                                    OXYRAPID SLN INY 10 MG/ML X 1 MLAMP     1
CC0000055163818A202100000027623100000027623125/10/20211047    31903336240421964190000E1AB0200000199290000000000000                                                            SOLUCION SALINA 0.9% SLN INY BO X 100 MLBIN     1
CC0000055163818A202100000027623100000027623125/10/20211047    31903336240421964190000C1BD0200000201790000000000000                                                                      CORDARONE SLN INY 150 MG/ 3 MLAMP     2
CC0000055163818A202100000027623100000027623125/10/20211047    3190333624042196419000011082700001620070000000000000                                                               EQUIPO SET PRIMARIO C/CLAVE REF 14001BOL     2
CC0000055163818A202100000027623100000027623125/10/20211047    3190333624042196419000082750200001405900000000000000                                                               ABTHERA SENSATRAC SIST VAC M8275026/5SOB     1
CC0000055163818A202100000027623100000027623125/10/20211047    3190333624042196419000062750100001405910000000000000                                                                 INFOVAC CANISTER 1000 ML M8275093/5SOB     1
CC0000055163818A202100000027623100000027623125/10/20211047    31903336240421964190000K0960000001052020000000000000                                                            RECARGA ARTICULABLE 60 PURPURA EGIA60AMTPZA     3
CC0000055163818A202100000027623100000027623125/10/20211047    31903336240421964190000M03AB100001371510000000000000                                                            ADECUAC SUCCINILCOLINA  100mg/mL SOL INYVAL     1
CC0000055163818A202100000027623100000027623125/10/20211047    3190333624042196419000043879200001138180000000000000                                                                                   HOJA BISTURI # 11SOB     1
CC0000055163818A202100000027623100000027623125/10/20211047    3190333624042196419000018351500000232840000000000000                                                                                    SEDA 2-0 KS 623HSIN     1
CC0000055163818A202100000027623100000027623125/10/20211047    3190333624042196419000021193900000227540000000000000                                                              CATETER BILUME GARD ADULT 7F*20 26702ESIN     1
CC0000055163818A202100000027623100000027623125/10/20211047    3190333624042196419000049059800000267410000000000000                                                                 MEDIA ANTIEMBOLICA TAL L 3634LF PARBOL     1
CC0000055163818A202100000027623100000027623125/10/20211047    3190333624042196419000045138000001413890000000000000                                                                       LAPIZ ELECTROBISTURI  SOB X 1SOB     1
CC0000055163818A202100000027623100000027623125/10/20211047    31903336240421964190000E1AB0500003888400000000000000                                                              SOLUCION SALINA 0.9% SLN INY X 1000 MLBOL     3
CC0000055163818A202100000027623100000027623125/10/20211047    3190333624042196419000000016100000314040000000000000                                                                ESPONJA HEMOSTATICA  GELFOAM ESPONJABOL     1
CC0000055163818A202100000027623100000027623125/10/20211047    3190333624042196419000020042600000633850000000000000                                                                                       ASEPTOJERINGASIN     1
CC0000055163818A202100000027623100000027623125/10/20211047    3190333624042196419000017575000000232660000000000000                                                                             PROLENE 3-0 SH/SH 8522TSIN     2
CC0000055163818A202100000027623100000027623125/10/20211047    3190333624042196419000012473200000232210000000000000                                                                 SUTURA ETHILON 3-0 SC-24 45CM  163TSIN     2
CC0000055163818A202100000027623100000027623125/10/20211047    3190333624042196419000019488700000753270000000000000                                                                              VICRYL 3-0 SH1 VCP311HSOB     1
CC0000055163818A202100000027623100000027623125/10/20211047    3190333624042196419000018349800000232820000000000000                                                                                  SEDA 2-0 S.A SA85TSIN     1
CC0000055163818A202100000027623100000027623125/10/20211047    3190333624042196419000043879400001138170000000000000                                                                  HOJA BISTURI # 10 CSSB 10 01002000SOB     1
CC0000055163818A202100000027623100000027623125/10/20211047    3190333624042196419000043879500001138210000000000000                                                                                    HOJA BISTURI #20SOB     1
CC0000055163818A202100000027623100000027623125/10/20211047    3190333624042196419000022425200000548240000000000000                       EXTENSION DE ANESTESIA REF 1139 SOB X 1 SHERLEG  ADULTO BN EXENTO-DC.417/2020SIN     1
CC0000055163818A202100000027623100000027623125/10/20211047    3190333624042196419000035356500003919000000000000000                                                                                        LLAVE 3 VIASSOB     2
CC0000055163818A202100000027623100000027623125/10/20211047    3190333624042196419000016830000000970620000000000000                                                             SIST FIJACION CAT PERIFERICO 6.5X7 1683SOB     1
CC0000055163818A202100000027623100000027623125/10/20211047    3190333624042196419000011073300001096420000000000000                                                                BOLSA DE SUCCION DE FLUIDOS x 2500mLBOL     3
CC0000055163818A202100000027623100000027623125/10/20211047    3190333624042196419000030161400001459220000000000000                                                                       MANGUERA SUCCION 6 MM*3.1 MTSSOB     2
CC0000055163818A202100000027623100000027623125/10/20211047    3190333624042196419000020750600000296780000000000000                                                                PLACA ELECTRO RETORNO PACIENTE E7506SIN     1
CC0000055163818A202100000027623100000027623125/10/20211047    3190333624042196419000053074400000607910000000000000                                                               GASA ESTERIL 10*10 SOBRE X 3 UNIDADESSOB     6
CC0000055163818A202100000027623100000027623125/10/20211047    3190333624042196419000011085400001083360000000000000                                                                       GUANTE QUIRURGICO TALLA 8 1/2SOB     3
CC0000055163818A202100000027623100000027623125/10/20211047    3190333624042196419000011085300001082140000000000000                                                                           GUANTE QUIRURGICO TALLA 8SOB     2
CC0000055163818A202100000027623100000027623125/10/20211047    3190333624042196419000011085200001585390000000000000                                                                       GUANTE QUIRURGICO TALLA 7 1/2SOB     3
CC0000055163818A202100000027623100000027623125/10/20211047    3190333624042196419000011085100001082120000000000000                                                                           GUANTE QUIRURGICO TALLA 7SOB     3
CC0000055163818A202100000027623100000027623125/10/20211047    3190333624042196419000043485100001618510000000000000                GUANTE QUIRURGICO DE LATEX REF 2D72N65X CAJ X 50 PROTEXIS  6.5 BN EXENTO-DC.417/2020SOB     4
CC0000055163818A202100000027623100000027623125/10/20211047    3190333624042196419000051515500000598160000000000000                                                                            MASCARILLA ANESTESIA # 5SIN     1
CC0000055163818A202100000027623100000027623125/10/20211047    3190333624042196419000038568100000258050000000000000                                                                         CANULA OXIGENO NASAL ADULTOSIN     1
CC0000055163818A202100000027623100000027623125/10/20211047    3190333624042196419000011099300000777780000000000000                                                                     FILTRO BACTERIANO VIRICO ADULTOBOL     1
CC0000055163818A202100000027623100000027623125/10/20211047    3190333624042196419000020056600001101530000000000000                                                                AGUJA HIPODERMICA DESECH 18G X 1 1/2SOB     1
CC0000055163818A202100000027623100000027623125/10/20211047    3190333624042196419000039175100001072060000000000000                                                                           TUBO ENDOTRAQUEAL C/B 7.5SOB     1
CC0000055163818A202100000027623100000027623125/10/20211047    3190333624042196419000024673000001411210000000000000                                                                  JERINGA DESECHABLE 3 ML 21 X 1 1/2SOB     2
CC0000055163818A202100000027623100000027623125/10/20211047    3190333624042196419000024674000000220660000000000000                             JERINGA A 3 PARTES CON AGUJA  SOB X 1 RYMCO  10ML BN EXENTO-DC.417/2020SIN     7
CC0000055163818A202100000027623100000027623125/10/20211047    31903336240421964190000E1AD0200003888320000000000000                                                                              HARTMAN SLN INY 500 MLBOL     1
CC0000055163818A202100000027623100000027623125/10/20211047    31903336240421964190000E1AB0300003888390000000000000                                                            SOLUCION SALINA 0.9% SLN INY BO X 500 MLBOL     6
CC0000055163818A202100000027623100000027623125/10/20211047    31903336240421964190000E1AB0700003888350000000000000                                                            SOLUCION SALINA 0.9% SLN INY BO X 250 MLBOL     3
CC0000055163818A202100000027623100000027623125/10/20211047    31903336240421964190000N02B1100001169680000000000000                              PARACETAMOL 1000MG/100ML(10MG/ML) SOL INY  VIAL X 100ML FRESENIUS KABIVAL     1
CC0000055163818A202100000027623100000027623125/10/20211047    31903336240421964190000M01A0400001341250000000000000                                                                              DYNASTAT AMP 40 MG /R/VAL     1
CC0000055163818A202100000027623100000027623125/10/20211047    31903336240421964190000N2BB1100000217160000000000000                                                                      NOVALGINA Sln Iny 2.5 g x 5 mlAMP     1
CC0000055163818A202100000027623100000027623125/10/20211047    31903336240421964190000A4AD0200000202990000000000000                                                                     PLITICAN HCL Sln Iny 50 mg/2 mlAMP     1
CC0000055163818A202100000027623100000027623125/10/20211047    31903336240421964190000M3AC0600000720540000000000000                                                                         ESMERON SLN INY 50 MG /5 MLVAL     1
CC0000055163818A202100000027623100000027623125/10/20211047    31903336240421964190000N2AA0700001587170000000000000                                                                                 ULTIVA Sln Iny 2 mgVAL     1
CC0000055163818A202100000027623100000027623125/10/20211047    31903336240421964190000N1AH0200003906560000000000000                                                                     FENTANIL Iny 0.05 mg/ml x 10 mlAMP     1
