RC0001043699591U202100050131366000050131366025/10/20211629    3190233723942196432000011082700001620070000000000000                                                               EQUIPO SET PRIMARIO C/CLAVE REF 14001BOL     1
CC0000044159143U202100050131366000050131366025/10/20211629    3190233723942196432000001956000001620610000000000000                                                                      CONECTOR MICRO CLAVE LAT-MC100SOB     1
CC0000044159143U202100050131366000050131366025/10/20211629    31902337239421964320000Q1AA7100000610620000000000000                                                            CATETER PERIFE INTROCAN # 18G 4251687-04SIN     1
RC0001043699591U202100050131366000050131366025/10/20211629    31902337239421964320000Q1AA7400003911720000000000000                                                            CATETER PERIFE INTROCAN # 24G 4251601-04SOB     1
CC0000044159143U202100050131366000050131366025/10/20211629    3190233723942196432000016830000000970620000000000000                                                             SIST FIJACION CAT PERIFERICO 6.5X7 1683SOB     1
RC0001043699591U202100050131366000050131366025/10/20211629    3190233723942196432000016830000000970620000000000000                                                             SIST FIJACION CAT PERIFERICO 6.5X7 1683SOB     1
RC0001043699591U202100050131366000050131366025/10/20211629    31902337239421964320000E1AD0200003888320000000000000                                                                              HARTMAN SLN INY 500 MLBOL     1
RC0001043699591U202100050131366000050131366025/10/20211629    3190233723942196432000011137100001419310000000000000                                                               TIRA GLUCOMETRIA FREESTYLE H OPTIUM .PZA     1
