CC0000003744464H202100000025033900000025033925/10/20211415    3190301623742196425000018351500000232840000000000000                                                                                    SEDA 2-0 KS 623HSIN     1
CC0001140825892H202100000025033900000025033925/10/20211415    3190301623742196425000018351500000232840000000000000                                                                                    SEDA 2-0 KS 623HSIN     1
CC0000041757421H202100000025033900000025033925/10/20211415    3190301623742196425000018351500000232840000000000000                                                                                    SEDA 2-0 KS 623HSIN     1
CC0000026688321H202100000025033900000025033925/10/20211415    3190301623742196425000018351500000232840000000000000                                                                                    SEDA 2-0 KS 623HSIN     1
CC0000003744464H202100000025033900000025033925/10/20211415    3190301623742196425000024674000000220660000000000000                             JERINGA A 3 PARTES CON AGUJA  SOB X 1 RYMCO  10ML BN EXENTO-DC.417/2020SIN     2
CC0001140825892H202100000025033900000025033925/10/20211415    3190301623742196425000024674000000220660000000000000                             JERINGA A 3 PARTES CON AGUJA  SOB X 1 RYMCO  10ML BN EXENTO-DC.417/2020SIN     2
CC0000041757421H202100000025033900000025033925/10/20211415    3190301623742196425000024674000000220660000000000000                             JERINGA A 3 PARTES CON AGUJA  SOB X 1 RYMCO  10ML BN EXENTO-DC.417/2020SIN     2
CC0000026688321H202100000025033900000025033925/10/20211415    3190301623742196425000024674000000220660000000000000                             JERINGA A 3 PARTES CON AGUJA  SOB X 1 RYMCO  10ML BN EXENTO-DC.417/2020SIN     2
CC0000003744464H202100000025033900000025033925/10/20211415    3190301623742196425000024673600000222980000000000000                                                                     JERINGA DESECHABLE 5 ml 27*11/2SIN     3
CC0001140825892H202100000025033900000025033925/10/20211415    3190301623742196425000024673600000222980000000000000                                                                     JERINGA DESECHABLE 5 ml 27*11/2SIN     3
CC0000041757421H202100000025033900000025033925/10/20211415    3190301623742196425000024673600000222980000000000000                                                                     JERINGA DESECHABLE 5 ml 27*11/2SIN     3
CC0000026688321H202100000025033900000025033925/10/20211415    3190301623742196425000024673600000222980000000000000                                                                     JERINGA DESECHABLE 5 ml 27*11/2SIN     3
CC0000003744464H202100000025033900000025033925/10/20211415    3190301623742196425000000102300000222960000000000000                                                                 JERINGA DESECHABLE SIN AGUJA X 20mLSIN     2
CC0001140825892H202100000025033900000025033925/10/20211415    3190301623742196425000000102300000222960000000000000                                                                 JERINGA DESECHABLE SIN AGUJA X 20mLSIN     2
CC0000041757421H202100000025033900000025033925/10/20211415    3190301623742196425000000102300000222960000000000000                                                                 JERINGA DESECHABLE SIN AGUJA X 20mLSIN     2
CC0000026688321H202100000025033900000025033925/10/20211415    3190301623742196425000000102300000222960000000000000                                                                 JERINGA DESECHABLE SIN AGUJA X 20mLSIN     2
CC0000003744464H202100000025033900000025033925/10/20211415    3190301623742196425000011047900000223010000000000000                                                                            JERINGA X 1ML REF 302579SIN     3
CC0001140825892H202100000025033900000025033925/10/20211415    3190301623742196425000011047900000223010000000000000                                                                            JERINGA X 1ML REF 302579SIN     3
CC0000041757421H202100000025033900000025033925/10/20211415    3190301623742196425000011047900000223010000000000000                                                                            JERINGA X 1ML REF 302579SIN     3
CC0000026688321H202100000025033900000025033925/10/20211415    3190301623742196425000011047900000223010000000000000                                                                            JERINGA X 1ML REF 302579SIN     3
CC0000003744464H202100000025033900000025033925/10/20211415    3190301623742196425000011089300001083990000000000000                                                              GUANTE ESTERIL LATEX S/POLVO TALLA 7.5SOB     2
CC0001140825892H202100000025033900000025033925/10/20211415    3190301623742196425000011089300001083990000000000000                                                              GUANTE ESTERIL LATEX S/POLVO TALLA 7.5SOB     2
CC0000041757421H202100000025033900000025033925/10/20211415    3190301623742196425000011089300001083990000000000000                                                              GUANTE ESTERIL LATEX S/POLVO TALLA 7.5SOB     2
CC0000026688321H202100000025033900000025033925/10/20211415    3190301623742196425000011089300001083990000000000000                                                              GUANTE ESTERIL LATEX S/POLVO TALLA 7.5SOB     2
CC0000003744464H202100000025033900000025033925/10/20211415    3190301623742196425000011089100001083330000000000000                                                              GUANTE ESTERIL LATEX S/POLVO TALLA 6.5SOB     2
CC0001140825892H202100000025033900000025033925/10/20211415    3190301623742196425000011089100001083330000000000000                                                              GUANTE ESTERIL LATEX S/POLVO TALLA 6.5SOB     2
CC0000041757421H202100000025033900000025033925/10/20211415    3190301623742196425000011089100001083330000000000000                                                              GUANTE ESTERIL LATEX S/POLVO TALLA 6.5SOB     2
CC0000026688321H202100000025033900000025033925/10/20211415    3190301623742196425000011089100001083330000000000000                                                              GUANTE ESTERIL LATEX S/POLVO TALLA 6.5SOB     2
CC0000003744464H202100000025033900000025033925/10/20211415    3190301623742196425000013077800000471960000000000000                                                             GASA NO TEJIDA EST 7.5 X 7.5 SOB X 3 UNSOB     3
CC0001140825892H202100000025033900000025033925/10/20211415    3190301623742196425000013077800000471960000000000000                                                             GASA NO TEJIDA EST 7.5 X 7.5 SOB X 3 UNSOB     3
CC0000041757421H202100000025033900000025033925/10/20211415    3190301623742196425000013077800000471960000000000000                                                             GASA NO TEJIDA EST 7.5 X 7.5 SOB X 3 UNSOB     3
CC0000026688321H202100000025033900000025033925/10/20211415    3190301623742196425000013077800000471960000000000000                                                             GASA NO TEJIDA EST 7.5 X 7.5 SOB X 3 UNSOB     3
CC0000003744464H202100000025033900000025033925/10/20211415    3190301623742196425000022426800001140510000000000000                                                                    EQUIPO MACROGOTEO BAXTER MRC0001SOB     1
CC0001140825892H202100000025033900000025033925/10/20211415    3190301623742196425000022426800001140510000000000000                                                                    EQUIPO MACROGOTEO BAXTER MRC0001SOB     1
CC0000041757421H202100000025033900000025033925/10/20211415    3190301623742196425000022426800001140510000000000000                                                                    EQUIPO MACROGOTEO BAXTER MRC0001SOB     1
CC0000026688321H202100000025033900000025033925/10/20211415    3190301623742196425000022426800001140510000000000000                                                                    EQUIPO MACROGOTEO BAXTER MRC0001SOB     1
CC0000003744464H202100000025033900000025033925/10/20211415    3190301623742196425000022425200000548240000000000000                       EXTENSION DE ANESTESIA REF 1139 SOB X 1 SHERLEG  ADULTO BN EXENTO-DC.417/2020SIN     1
CC0001140825892H202100000025033900000025033925/10/20211415    3190301623742196425000022425200000548240000000000000                       EXTENSION DE ANESTESIA REF 1139 SOB X 1 SHERLEG  ADULTO BN EXENTO-DC.417/2020SIN     1
CC0000041757421H202100000025033900000025033925/10/20211415    3190301623742196425000022425200000548240000000000000                       EXTENSION DE ANESTESIA REF 1139 SOB X 1 SHERLEG  ADULTO BN EXENTO-DC.417/2020SIN     1
CC0000026688321H202100000025033900000025033925/10/20211415    3190301623742196425000022425200000548240000000000000                       EXTENSION DE ANESTESIA REF 1139 SOB X 1 SHERLEG  ADULTO BN EXENTO-DC.417/2020SIN     1
CC0000003744464H202100000025033900000025033925/10/20211415    3190301623742196425000001956000001620610000000000000                                                                      CONECTOR MICRO CLAVE LAT-MC100SOB     2
CC0001140825892H202100000025033900000025033925/10/20211415    3190301623742196425000001956000001620610000000000000                                                                      CONECTOR MICRO CLAVE LAT-MC100SOB     2
CC0000041757421H202100000025033900000025033925/10/20211415    3190301623742196425000001956000001620610000000000000                                                                      CONECTOR MICRO CLAVE LAT-MC100SOB     2
CC0000026688321H202100000025033900000025033925/10/20211415    3190301623742196425000001956000001620610000000000000                                                                      CONECTOR MICRO CLAVE LAT-MC100SOB     2
CC0000003744464H202100000025033900000025033925/10/20211415    31903016237421964250000Q1AA7100000610620000000000000                                                            CATETER PERIFE INTROCAN # 18G 4251687-04SIN     1
CC0001140825892H202100000025033900000025033925/10/20211415    31903016237421964250000Q1AA7100000610620000000000000                                                            CATETER PERIFE INTROCAN # 18G 4251687-04SIN     1
CC0000041757421H202100000025033900000025033925/10/20211415    31903016237421964250000Q1AA7100000610620000000000000                                                            CATETER PERIFE INTROCAN # 18G 4251687-04SIN     1
CC0000026688321H202100000025033900000025033925/10/20211415    31903016237421964250000Q1AA7100000610620000000000000                                                            CATETER PERIFE INTROCAN # 18G 4251687-04SIN     1
CC0000003744464H202100000025033900000025033925/10/20211415    31903016237421964250000Q1AA7200000610630000000000000                                                            CATETER PERIFE INTROCAN # 20G 4251644-04SIN     2
CC0001140825892H202100000025033900000025033925/10/20211415    31903016237421964250000Q1AA7200000610630000000000000                                                            CATETER PERIFE INTROCAN # 20G 4251644-04SIN     2
CC0000041757421H202100000025033900000025033925/10/20211415    31903016237421964250000Q1AA7200000610630000000000000                                                            CATETER PERIFE INTROCAN # 20G 4251644-04SIN     2
CC0000026688321H202100000025033900000025033925/10/20211415    31903016237421964250000Q1AA7200000610630000000000000                                                            CATETER PERIFE INTROCAN # 20G 4251644-04SIN     2
CC0000003744464H202100000025033900000025033925/10/20211415    31903016237421964250000Q1AA7300000610640000000000000                                                            CATETER PERIFE INTROCAN # 22G 4251628-04SIN     2
CC0001140825892H202100000025033900000025033925/10/20211415    31903016237421964250000Q1AA7300000610640000000000000                                                            CATETER PERIFE INTROCAN # 22G 4251628-04SIN     2
CC0000041757421H202100000025033900000025033925/10/20211415    31903016237421964250000Q1AA7300000610640000000000000                                                            CATETER PERIFE INTROCAN # 22G 4251628-04SIN     2
CC0000026688321H202100000025033900000025033925/10/20211415    31903016237421964250000Q1AA7300000610640000000000000                                                            CATETER PERIFE INTROCAN # 22G 4251628-04SIN     2
CC0000003744464H202100000025033900000025033925/10/20211415    3190301623742196425000000101000001101640000000000000                                                                  AGUJA DESECHABLE  23G X 1 1/2 PULGSOB     2
CC0001140825892H202100000025033900000025033925/10/20211415    3190301623742196425000000101000001101640000000000000                                                                  AGUJA DESECHABLE  23G X 1 1/2 PULGSOB     2
CC0000041757421H202100000025033900000025033925/10/20211415    3190301623742196425000000101000001101640000000000000                                                                  AGUJA DESECHABLE  23G X 1 1/2 PULGSOB     2
CC0000026688321H202100000025033900000025033925/10/20211415    3190301623742196425000000101000001101640000000000000                                                                  AGUJA DESECHABLE  23G X 1 1/2 PULGSOB     2
