CC0001007171288U202100050131360600050131360625/10/20211051    3190145323942196432000024674000000220660000000000000                             JERINGA A 3 PARTES CON AGUJA  SOB X 1 RYMCO  10ML BN EXENTO-DC.417/2020SIN     2
CC0000022733909U202100050131360600050131360625/10/20211051    3190145323942196432000024674000000220660000000000000                             JERINGA A 3 PARTES CON AGUJA  SOB X 1 RYMCO  10ML BN EXENTO-DC.417/2020SIN     1
CC0000022733909U202100050131360600050131360625/10/20211051    3190145323942196432000022426800001140510000000000000                                                                    EQUIPO MACROGOTEO BAXTER MRC0001SOB     1
CC0001007171288U202100050131360600050131360625/10/20211051    3190145323942196432000011082700001620070000000000000                                                               EQUIPO SET PRIMARIO C/CLAVE REF 14001BOL     1
CC0001007171288U202100050131360600050131360625/10/20211051    3190145323942196432000001956000001620610000000000000                                                                      CONECTOR MICRO CLAVE LAT-MC100SOB     1
CC0000022733909U202100050131360600050131360625/10/20211051    3190145323942196432000001956000001620610000000000000                                                                      CONECTOR MICRO CLAVE LAT-MC100SOB     1
CC0001007171288U202100050131360600050131360625/10/20211051    31901453239421964320000Q1AA7200000610630000000000000                                                            CATETER PERIFE INTROCAN # 20G 4251644-04SIN     1
CC0000022733909U202100050131360600050131360625/10/20211051    31901453239421964320000Q1AA7200000610630000000000000                                                            CATETER PERIFE INTROCAN # 20G 4251644-04SIN     1
CC0001007171288U202100050131360600050131360625/10/20211051    3190145323942196432000030936900001431840000000000000                                                                                              BURETABOL     1
CC0001007171288U202100050131360600050131360625/10/20211051    3190145323942196432000016830000000970620000000000000                                                             SIST FIJACION CAT PERIFERICO 6.5X7 1683SOB     1
CC0000022733909U202100050131360600050131360625/10/20211051    3190145323942196432000016830000000970620000000000000                                                             SIST FIJACION CAT PERIFERICO 6.5X7 1683SOB     1
CC0001007171288U202100050131360600050131360625/10/20211051    31901453239421964320000E1AB0300003888390000000000000                                                            SOLUCION SALINA 0.9% SLN INY BO X 500 MLBOL     1
CC0000022733909U202100050131360600050131360625/10/20211051    31901453239421964320000E1AB0200000199290000000000000                                                            SOLUCION SALINA 0.9% SLN INY BO X 100 MLBIN     1
