CC0000063321801U202100050131363000050131363025/10/20211257    3190233723942196432000045136100001419300000000000000                                                                            LANCETA DEXTROMETER X UNPZA     1
CC0000063321801U202100050131363000050131363025/10/20211257    3190233723942196432000001956000001620610000000000000                                                                      CONECTOR MICRO CLAVE LAT-MC100SOB     1
CC0000063321801U202100050131363000050131363025/10/20211257    31902337239421964320000Q1AA7200000610630000000000000                                                            CATETER PERIFE INTROCAN # 20G 4251644-04SIN     1
CC0000063321801U202100050131363000050131363025/10/20211257    3190233723942196432000016830000000970620000000000000                                                             SIST FIJACION CAT PERIFERICO 6.5X7 1683SOB     1
CC0000063321801U202100050131363000050131363025/10/20211257    3190233723942196432000011137100001419310000000000000                                                               TIRA GLUCOMETRIA FREESTYLE H OPTIUM .PZA     1
