CC0000008753953H202100000554952400000554952425/10/20211657    31500555237421964250000A04A1300001335720000000000000                                                                                      ONDAX TAB 4 MGTAB    10
CC0000008753953H202100000554952400000554952425/10/20211657    31500555237421964250000A6AC0200001467010000000000000                                                             LACTULAX JARABE 66.7G/100ML SOX15ML /R/SOB     2
CC0000008753953H202100000554952400000554952425/10/20211657    31500555237421964250000V6DF2000001629900000000000000                                                                     ENSURE PLUS HN LIQUIDO X 237 MLFCO     2
CC0000008753953H202100000554952400000554952425/10/20212056    31900926237421964250000A03F0500001692520000000000000                                                                   ALIZAPRIDA HCL SLN INY 50 MG/2 MLAMP     1
CC0000008753953H202100000554952400000554952425/10/20211657    31500555237421964250000N06AX200001277490000000000000                                                                                 TRAZODONA TAB 50 MGTAB     1
