CC0000036724804H202100000554923900000554923925/10/20210756     3300010237421964250000A2BC0100001277990000000000000                                                                                   ORAZOLE CAP 20 MGCAP     1
CC0000036724804H202100000554923900000554923925/10/20211831     3300010237421964250000A07F0300000547060000000000000                                                              ENTEROGERMINA SUSP ORAL AMP X 5 ML /R/VAL     2
CC0000036724804H202100000554923900000554923925/10/20210756     3300010237421964250000A07F0300000547060000000000000                                                              ENTEROGERMINA SUSP ORAL AMP X 5 ML /R/VAL     4
CC0000036724804H202100000554923900000554923925/10/20210756     3300010237421964250000A11C0600001389430000000000000                                                                             CALCITRIOL CAP 0.25 MCGCAP     1
CC0000036724804H202100000554923900000554923925/10/20211617     3300009237421964250000V3AB2200000614150000000000000                                                            GLUCONATO CALCIO SLN INY 10% AMP X 10 MLAPC     1
CC0000036724804H202100000554923900000554923925/10/20210756     3300010237421964250000V3AB2200000614150000000000000                                                            GLUCONATO CALCIO SLN INY 10% AMP X 10 MLAPC     1
CC0000036724804H202100000554923900000554923925/10/20212124     3300010237421964250000B01A0600000216800000000000000                                                                   ARIXTRA SLN INY 2.5 MG/0.5 ML /R/SIN     1
CC0000036724804H202100000554923900000554923925/10/20210755     3300010237421964250000V7AA5200000215370000000000000                                                                          EPOYET SLN INY 2000 UI /R/VAL     1
CC0000036724804H202100000554923900000554923925/10/20211831     3300010237421964250000B3BB0200001315040000000000000                                                                               ACIDO FOLICO Tab 5 mgTAB     1
CC0000036724804H202100000554923900000554923925/10/20211456     3300009237421964250000B03AX100000518540000000000000                                                                RECORMON SLN INY 30000 UI/0.6 ML /R/JRP     1
CC0000036724804H202100000554923900000554923925/10/20211617     3300009237421964250000B03A0100001336630000000000000                                                                          SULFATO FERROSO Tab 200 mgTAB     1
CC0000036724804H202100000554923900000554923925/10/20211518    31901151237421964250000E1AB0200000199290000000000000                                                            SOLUCION SALINA 0.9% SLN INY BO X 100 MLBIN     4
CC0000036724804H202100000554923900000554923925/10/20211239    31902202237421964250000E1AB0500003888400000000000000                                                              SOLUCION SALINA 0.9% SLN INY X 1000 MLBOL     1
CC0000036724804H202100000554923900000554923925/10/20211831     3300010237421964250000A12BA100000552980000000000000                                                            CLORURO POTASIO Sln Iny AMP 20 MEQ/10 MLAMP     1
CC0000036724804H202100000554923900000554923925/10/20211102     3300009237421964250000A12BA100000552980000000000000                                                            CLORURO POTASIO Sln Iny AMP 20 MEQ/10 MLAMP     1
CC0000036724804H202100000554923900000554923925/10/20210756     3300010237421964250000C3CA0200000195520000000000000                                                                           LASIX SLN INY 20 MG/ 2 MLAMP     2
CC0000036724804H202100000554923900000554923925/10/20211456     3300009237421964250000D04AX800000211800000000000000                                                                       PROCICAR NF CREMA TUBO X 60 GCIN     1
CC0000036724804H202100000554923900000554923925/10/20210757     3300010237421964250000S2BA1400000947290000000000000                                                            SOLU MEDROL POLVO SLN INY 500 MG/4 ML/R/VAL     2
CC0000036724804H202100000554923900000554923925/10/20210756     3300010237421964250000H03A0400001278890000000000000                                                                                  EUTIROX TAB 50 MCGTAB     1
CC0000036724804H202100000554923900000554923925/10/20210756     3300010237421964250000J1KF0200001677230000000000000                                                                      MERONEM POLVO SLN INY 1 G  /R/VAL     2
CC0000036724804H202100000554923900000554923925/10/20210756     3300010237421964250000J02A0200000191070000000000000                                                            CANCIDAS POLVO LIOF SLN INY AMP 50MG /R/VAL     1
CC0000036724804H202100000554923900000554923925/10/20210756     3300010237421964250000N02B1100001169680000000000000                              PARACETAMOL 1000MG/100ML(10MG/ML) SOL INY  VIAL X 100ML FRESENIUS KABIVAL     2
CC0000036724804H202100000554923900000554923925/10/20210152     3300009237421964250000N02B1100001169680000000000000                              PARACETAMOL 1000MG/100ML(10MG/ML) SOL INY  VIAL X 100ML FRESENIUS KABIVAL     1
CC0000036724804H202100000554923900000554923925/10/20210757     3300010237421964250000N05C0800001314910000000000000                                                                                ISOKLON TAB 3 MG /R/TAB     1
CC0000036724804H202100000554923900000554923925/10/20211456     3300009237421964250000A09A0500001221080000000000000                                                                            GLUTAPAK 10 Polvo x 15 gSOB     1
CC0000036724804H202100000554923900000554923925/10/20211455     3300009237421964250000A09A0500001221080000000000000                                                                            GLUTAPAK 10 Polvo x 15 gSOB     1
CC0000036724804H202100000554923900000554923925/10/20211359    31903308237421964250000V07A1300000502600000000000000                                                                                AGUA ESTERIL x 10 mlAMP    10
