CC0000008753953H202100000554936000000554936025/10/20210847     3300010237421964250000A04A1300001335720000000000000                                                                                      ONDAX TAB 4 MGTAB     4
CC0000008753953H202100000554936000000554936025/10/20212040    31900926237421964250000E1AB0200000199290000000000000                                                            SOLUCION SALINA 0.9% SLN INY BO X 100 MLBIN    10
CC0000008753953H202100000554936000000554936025/10/20211926    31500555237421964250000E1AB0300003888390000000000000                                                            SOLUCION SALINA 0.9% SLN INY BO X 500 MLBOL     1
CC0000008753953H202100000554936000000554936025/10/20211130    31500107237421964250000E1AB0300003888390000000000000                                                            SOLUCION SALINA 0.9% SLN INY BO X 500 MLBOL     1
CC0000008753953H202100000554936000000554936025/10/20212040    31900926237421964250000E1AB0500003888400000000000000                                                              SOLUCION SALINA 0.9% SLN INY X 1000 MLBOL     1
CC0000008753953H202100000554936000000554936025/10/20211926    31500555237421964250000E1AB0500003888400000000000000                                                              SOLUCION SALINA 0.9% SLN INY X 1000 MLBOL     1
CC0000008753953H202100000554936000000554936025/10/20212040    31900926237421964250000E1AD0300000199490000000000000                                         LACTATO RINGER USP (HARTMANN)  SOL INY  BOL X 1000ML BAXTERBIN     1
CC0000008753953H202100000554936000000554936025/10/20211926    31500555237421964250000E1AD0300000199490000000000000                                         LACTATO RINGER USP (HARTMANN)  SOL INY  BOL X 1000ML BAXTERBIN     1
CC0000008753953H202100000554936000000554936025/10/20212120     3300010237421964250000C7AB1000001382030000000000000                                                                   NOREPINEFRINA SLN INY 4 MG / 4 MLAMP    14
CC0000008753953H202100000554936000000554936025/10/20211704     3300009237421964250000C7AB1000001382030000000000000                                                                   NOREPINEFRINA SLN INY 4 MG / 4 MLAMP     7
CC0000008753953H202100000554936000000554936025/10/20211703     3300009237421964250000C7AB1000001382030000000000000                                                                   NOREPINEFRINA SLN INY 4 MG / 4 MLAMP     9
CC0000008753953H202100000554936000000554936025/10/20211128     3300009237421964250000C7AB1000001382030000000000000                                                                   NOREPINEFRINA SLN INY 4 MG / 4 MLAMP     2
CC0000008753953H202100000554936000000554936025/10/20211736     3300009237421964250000J01XA400001212420000000000000                                                               VANCOMICINA POLVO LIOF SLN INY 500 MGVAL     2
CC0000008753953H202100000554936000000554936025/10/20212120     3300010237421964250000H01B0100001390610000000000000                                                                   VASOPRESINA SLN INY 20 UI/ ML /R/VAL     4
CC0000008753953H202100000554936000000554936025/10/20211704     3300009237421964250000H01B0100001390610000000000000                                                                   VASOPRESINA SLN INY 20 UI/ ML /R/VAL     4
CC0000008753953H202100000554936000000554936025/10/20211128     3300009237421964250000H01B0100001390610000000000000                                                                   VASOPRESINA SLN INY 20 UI/ ML /R/VAL     2
CC0000008753953H202100000554936000000554936025/10/20211128     3300009237421964250000N1BA1900000554750000000000000                                                                     ROXICAINA JALEA 2% TUBO X 30 MLTUB     1
CC0000008753953H202100000554936000000554936025/10/20211600     3300009237421964250000N1AH0200003906560000000000000                                                                     FENTANIL Iny 0.05 mg/ml x 10 mlAMP     6
CC0000008753953H202100000554936000000554936025/10/20211129     3300009237421964250000N1AH0200003906560000000000000                                                                     FENTANIL Iny 0.05 mg/ml x 10 mlAMP     1
CC0000008753953H202100000554936000000554936025/10/20211129     3300009237421964250000N5CD0300000218170000000000000                                                                          DORMICUM Sln Iny 5 mg/5 mlAMP     1
CC0000008753953H202100000554936000000554936025/10/20211703     3300009237421964250000H02AB700000585860000000000000                                                                HIDROCORTISONA SUCCI POL LIOF 100 MGVAL     3
CC0000008753953H202100000554936000000554936025/10/20211705     3300009237421964250000C03C0100001672000000000000000                                                                       FUROSEMIDA SLN INY 20 MG/2 MLAMP     1
CC0000008753953H202100000554936000000554936025/10/20210847     3300010237421964250000C03C0100001672000000000000000                                                                       FUROSEMIDA SLN INY 20 MG/2 MLAMP     1
CC0000008753953H202100000554936000000554936025/10/20211128     3300009237421964250000J01DH400001317770000000000000                                                                MEROPENEM POLVO LIOF SLN INY 1 G /R/CAJ     2
CC0000008753953H202100000554936000000554936025/10/20211124     3300009237421964250000J01DH400001317770000000000000                                                                MEROPENEM POLVO LIOF SLN INY 1 G /R/CAJ     2
CC0000008753953H202100000554936000000554936025/10/20210847     3300010237421964250000J01DH400001317770000000000000                                                                MEROPENEM POLVO LIOF SLN INY 1 G /R/CAJ     4
CC0000008753953H202100000554936000000554936025/10/20211703     3300009237421964250000L03AA200001395690000000000000                                                             GENFILGRAS PEG SLN INY 6 MG/0.6 ML  /R/CAJ     2
CC0000008753953H202100000554936000000554936025/10/20211227     3300009237421964250000M03A0900001467590000000000000                                                                        ROCURONIO SLN INY 50 MG/5 MLVAL     1
CC0000008753953H202100000554936000000554936025/10/20211127     3300009237421964250000M03A0900001467590000000000000                                                                        ROCURONIO SLN INY 50 MG/5 MLVAL     1
CC0000008753953H202100000554936000000554936025/10/20210848     3300010237421964250000N06AX200001277490000000000000                                                                                 TRAZODONA TAB 50 MGTAB     1
CC0000008753953H202100000554936000000554936025/10/20210848     3300010237421964250000A02BC700001684270000000000000                                                            OMEPRAZOL 40MG POLVO LIOFILIZADO AMPOLLAVAL     1
CC0000008753953H202100000554936000000554936025/10/20212040    31900926237421964250000V07A1300000502600000000000000                                                                                AGUA ESTERIL x 10 mlAMP     5
