CC0000019399557U202100000554933800000554933825/10/20211503     3300004239421964320000A2BC0900000200150000000000000                                                                               ORAZOLE Sln Iny 40 mgCIN     1
CC0000019399557U202100000554933800000554933825/10/20211503     3300004239421964320000A03F0300001626860000000000000                                                                   METOCLOPRAMIDA SLN INY 10 MG/2 MLAMP     1
CC0000019399557U202100000554933800000554933825/10/20211519    31902968239421964320000E1AD0300000199490000000000000                                         LACTATO RINGER USP (HARTMANN)  SOL INY  BOL X 1000ML BAXTERBIN     1
CC0000019399557U202100000554933800000554933825/10/20210834    31902968239421964320000E1AD0300000199490000000000000                                         LACTATO RINGER USP (HARTMANN)  SOL INY  BOL X 1000ML BAXTERBIN     1
CC0000019399557U202100000554933800000554933825/10/20211503     3300004239421964320000J3CB1300000547730000000000000                                                                         CIPRO SLN INY 200 MG/100 MLFCO     1
CC0000019399557U202100000554933800000554933825/10/20210752     3300004239421964320000N02B1100001169680000000000000                              PARACETAMOL 1000MG/100ML(10MG/ML) SOL INY  VIAL X 100ML FRESENIUS KABIVAL     1
CC0000019399557U202100000554933800000554933825/10/20210752     3300004239421964320000A3BB0300000512950000000000000                                                             BUSCAPINA COMP Sln Iny 20 mg+2.5 g/5 mlAMP     1
