CC0000052420603U202100050131361700050131361725/10/20211132    3190118123942196432000024674000000220660000000000000                             JERINGA A 3 PARTES CON AGUJA  SOB X 1 RYMCO  10ML BN EXENTO-DC.417/2020SIN     2
CC0000052420603U202100050131361700050131361725/10/20211132    3190118123942196432000011082700001620070000000000000                                                               EQUIPO SET PRIMARIO C/CLAVE REF 14001BOL     1
CC0000052420603U202100050131361700050131361725/10/20211132    3190118123942196432000001956000001620610000000000000                                                                      CONECTOR MICRO CLAVE LAT-MC100SOB     1
CC0000052420603U202100050131361700050131361725/10/20211132    31901181239421964320000Q1AA7100000610620000000000000                                                            CATETER PERIFE INTROCAN # 18G 4251687-04SIN     1
CC0000052420603U202100050131361700050131361725/10/20211132    3190118123942196432000030936900001431840000000000000                                                                                              BURETABOL     1
CC0000052420603U202100050131361700050131361725/10/20211132    31901181239421964320000E1AD0300000199490000000000000                                         LACTATO RINGER USP (HARTMANN)  SOL INY  BOL X 1000ML BAXTERBIN     2
