CC0001045739587H202100015052692700015052692725/10/20210734    3190118923742196425000001956000001620610000000000000                                                                      CONECTOR MICRO CLAVE LAT-MC100SOB     1
CC0001045739587H202100015052692700015052692725/10/20210734    31901189237421964250000Q1AA7300000610640000000000000                                                            CATETER PERIFE INTROCAN # 22G 4251628-04SIN     2
CC0001045739587H202100015052692700015052692725/10/20210734    3190118923742196425000016830000000970620000000000000                                                             SIST FIJACION CAT PERIFERICO 6.5X7 1683SOB     1
