CC0000008753953H202100015042505900015042505925/10/20210837    3150047523742196425000030161400001459220000000000000                                                                       MANGUERA SUCCION 6 MM*3.1 MTSSOB     1
CC0000008753953H202100015042505900015042505925/10/20210837    3150047523742196425000038569400000256750000000000000                                                                        SONDA ASPIRACION CONTROL #14SIN     1
CC0000008753953H202100015042505900015042505925/10/20210837    3150047523742196425000022108000003906060000000000000                                                            SIST CERRAD ASPIRAC TRACH  22108-5 14 FRSOB     1
CC0000008753953H202100015042505900015042505925/10/20210837    3150047523742196425000036441300000236540000000000000                                                                    JERINGA 1 ML GASES ARTERIAL 9023SIN     5
CC0000008753953H202100015042505900015042505925/10/20210837    3150047523742196425000024674000000220660000000000000                             JERINGA A 3 PARTES CON AGUJA  SOB X 1 RYMCO  10ML BN EXENTO-DC.417/2020SIN     5
CC0000008753953H202100015042505900015042505925/10/20210837    3150047523742196425000020816000001096410000000000000                                                                          LINER PARED DELGADA 1500CCBOL     1
