CC0000072045374H202100000554940000000554940025/10/20211115    31902788237421964250000C09CA100001303630000000000000                                                                                   COZAAR TAB 100 MGTAB     1
CC0000072045374H202100000554940000000554940025/10/20211115    31902788237421964250000C7AB1500001277290000000000000                                                                        BETALOC ZOK TAB LM 50 MG /R/TAB     1
CC0000072045374H202100000554940000000554940025/10/20211126    31902788237421964250000J01DA300001239950000000000000                                                            CEFAZOLINA SODICA POLVO LIOF SLN INY 1 GVAL     1
CC0000072045374H202100000554940000000554940025/10/20211115    31902788237421964250000J01DA300001239950000000000000                                                            CEFAZOLINA SODICA POLVO LIOF SLN INY 1 GVAL     2
CC0000072045374H202100000554940000000554940025/10/20211126    31902788237421964250000N02B1100001169680000000000000                              PARACETAMOL 1000MG/100ML(10MG/ML) SOL INY  VIAL X 100ML FRESENIUS KABIVAL     1
CC0000072045374H202100000554940000000554940025/10/20211115    31902788237421964250000N02B1100001169680000000000000                              PARACETAMOL 1000MG/100ML(10MG/ML) SOL INY  VIAL X 100ML FRESENIUS KABIVAL     1
CC0000072045374H202100000554940000000554940025/10/20211115    31902788237421964250000C08CA200001277660000000000000                                                                                 AMLODIPINO TAB 5 MGTAB     1
CC0000072045374H202100000554940000000554940025/10/20211117    31902788237421964250000N2AX0900001672040000000000000                                                                              TRAMADOL SLN INY 50 MGAMP     2
