CC0001140843079H202100015052694800015052694825/10/20211942    3190315223742196425000011082700001620070000000000000                                                               EQUIPO SET PRIMARIO C/CLAVE REF 14001BOL     1
CC0001140843079H202100015052694800015052694825/10/20211942    3190315223742196425000001956000001620610000000000000                                                                      CONECTOR MICRO CLAVE LAT-MC100SOB     1
CC0001140843079H202100015052694800015052694825/10/20211942    31903152237421964250000Q1AA7300000610640000000000000                                                            CATETER PERIFE INTROCAN # 22G 4251628-04SIN     2
CC0001140843079H202100015052694800015052694825/10/20211942    3190315223742196425000030936900001431840000000000000                                                                                              BURETABOL     1
CC0001140843079H202100015052694800015052694825/10/20211942    3190315223742196425000016830000000970620000000000000                                                             SIST FIJACION CAT PERIFERICO 6.5X7 1683SOB     1
CC0000022844625H202100015052694800015052694825/10/20211942    31903152237421964250000E1AB0500003888400000000000000                                                              SOLUCION SALINA 0.9% SLN INY X 1000 MLBOL     1
CC0001047479947H202100015052694800015052694825/10/20211942    31903152237421964250000E1AB0500003888400000000000000                                                              SOLUCION SALINA 0.9% SLN INY X 1000 MLBOL     1
