CC0000032700438H202100000554920100000554920125/10/20211319     3300009237421964250000A03F0300001626860000000000000                                                                   METOCLOPRAMIDA SLN INY 10 MG/2 MLAMP     3
CC0000032700438H202100000554920100000554920125/10/20210732     3300009237421964250000A03F0300001626860000000000000                                                                   METOCLOPRAMIDA SLN INY 10 MG/2 MLAMP     1
CC0000032700438H202100000554920100000554920125/10/20211737    31500502237421964250000E1AA0100003888590000000000000                                                                        DEXTROSA 5% Sln Iny X 500 mlBOL     1
CC0000032700438H202100000554920100000554920125/10/20210000    31903184237421964250000E1AA0100003888590000000000000                                                                        DEXTROSA 5% Sln Iny X 500 mlBOL     2
CC0000032700438H202100000554920100000554920125/10/20211737    31500502237421964250000E1AB0300003888390000000000000                                                            SOLUCION SALINA 0.9% SLN INY BO X 500 MLBOL     1
CC0000032700438H202100000554920100000554920125/10/20211550     3300009237421964250000N2AA0400003888080000000000000                                                                     DEMEROL HCL Sln Iny 100 mg/2 mlAMP     1
CC0000032700438H202100000554920100000554920125/10/20211319     3300009237421964250000A03BB100003889180000000000000                                      HIOSCINA BUTIL BROMURO 20MG/ML SOL INY CAJ X 100AMP X 1ML RYANAMP     1
CC0000032700438H202100000554920100000554920125/10/20210732     3300009237421964250000A03BB100003889180000000000000                                      HIOSCINA BUTIL BROMURO 20MG/ML SOL INY CAJ X 100AMP X 1ML RYANAMP     2
CC0000032700438H202100000554920100000554920125/10/20211319     3300009237421964250000J01CR200000947130000000000000                                                              AMPICILINA /SULBACTAN POLVO LIOF 1.5 GAMP     1
CC0000032700438H202100000554920100000554920125/10/20210732     3300009237421964250000J01CR200000947130000000000000                                                              AMPICILINA /SULBACTAN POLVO LIOF 1.5 GAMP     2
CC0000032700438H202100000554920100000554920125/10/20210411     3300009237421964250000J01CR200000947130000000000000                                                              AMPICILINA /SULBACTAN POLVO LIOF 1.5 GAMP     1
CC0000032700438H202100000554920100000554920125/10/20210410     3300009237421964250000J01CR200000947130000000000000                                                              AMPICILINA /SULBACTAN POLVO LIOF 1.5 GAMP     1
CC0000032700438H202100000554920100000554920125/10/20211319     3300009237421964250000M01A2000001664970000000000000                                                               DICLOFENACO SODICO SLN INY 75 MG/3 MLAMP     1
CC0000032700438H202100000554920100000554920125/10/20210732     3300009237421964250000M01A2000001664970000000000000                                                               DICLOFENACO SODICO SLN INY 75 MG/3 MLAMP     2
CC0000032700438H202100000554920100000554920125/10/20210411     3300009237421964250000M01A2000001664970000000000000                                                               DICLOFENACO SODICO SLN INY 75 MG/3 MLAMP     1
CC0000032700438H202100000554920100000554920125/10/20211635     3300009237421964250000N2BB0100000787510000000000000                                                                    DIPIRONA SODICA Sln Iny 1 g/2 mlAMP     1
CC0000032700438H202100000554920100000554920125/10/20211319     3300009237421964250000N2BB0100000787510000000000000                                                                    DIPIRONA SODICA Sln Iny 1 g/2 mlAMP     1
CC0000032700438H202100000554920100000554920125/10/20210732     3300009237421964250000N2BB0100000787510000000000000                                                                    DIPIRONA SODICA Sln Iny 1 g/2 mlAMP     2
CC0000032700438H202100000554920100000554920125/10/20211635     3300009237421964250000A02BC700001684270000000000000                                                            OMEPRAZOL 40MG POLVO LIOFILIZADO AMPOLLAVAL     1
CC0000032700438H202100000554920100000554920125/10/20210732     3300009237421964250000A02BC700001684270000000000000                                                            OMEPRAZOL 40MG POLVO LIOFILIZADO AMPOLLAVAL     1
