RC0001044671083U202100050131361800050131361825/10/20211132    31902712239421964320000V07A1300000502600000000000000                                                                                AGUA ESTERIL x 10 mlAMP     1
RC0001044671083U202100050131361800050131361825/10/20211132    3190271223942196432000011048600000223020000000000000                                                                 JERINGA VACUNACION 3ML C/AGU 302542SIN     1
RC0001044671083U202100050131361800050131361825/10/20211132    3190271223942196432000042753000003929870000000000000                    GASA ADHESIVA STRETCH REF 02036-00 ROL X 10MT FIXOMULL 5CM BN EXENTO-DC.417/2020CMT    30
RC0001044671083U202100050131361800050131361825/10/20211132    3190271223942196432000001956000001620610000000000000                                                                      CONECTOR MICRO CLAVE LAT-MC100SOB     1
RC0001044671083U202100050131361800050131361825/10/20211132    31902712239421964320000Q1AA7400003911720000000000000                                                            CATETER PERIFE INTROCAN # 24G 4251601-04SOB     1
