CC0001129523937H202100000554924900000554924925/10/20210227     3300009237421964250000B01A0300000467730000000000000                                                                FRAGMIN SLN INY 5.000 UI /0.2 ML /R/SIN     2
CC0001129523937H202100000554924900000554924925/10/20211158    31900934237421964250000E1AB0500003888400000000000000                                                              SOLUCION SALINA 0.9% SLN INY X 1000 MLBOL     2
CC0001129523937H202100000554924900000554924925/10/20211941     3300010237421964250000H02AB500001664950000000000000                                                            DEXAMETASONA SLN INY 8 MG/2 ML AMP /CDS/AMP     1
CC0001129523937H202100000554924900000554924925/10/20210522     3300009237421964250000H02AB500001664950000000000000                                                            DEXAMETASONA SLN INY 8 MG/2 ML AMP /CDS/AMP     1
CC0001129523937H202100000554924900000554924925/10/20210227     3300009237421964250000H02AB500001664950000000000000                                                            DEXAMETASONA SLN INY 8 MG/2 ML AMP /CDS/AMP     2
CC0001129523937H202100000554924900000554924925/10/20211941     3300010237421964250000J01XA400001212420000000000000                                                               VANCOMICINA POLVO LIOF SLN INY 500 MGVAL     4
CC0001129523937H202100000554924900000554924925/10/20211728     3300009237421964250000V6DF2000001629900000000000000                                                                     ENSURE PLUS HN LIQUIDO X 237 MLFCO     2
CC0001129523937H202100000554924900000554924925/10/20211449     3300009237421964250000V06B0800003860120000000000000                                                                           PROWHEY POLVO TARRO 275 GTAR     1
CC0001129523937H202100000554924900000554924925/10/20211837     3300010237421964250000N2AA0100000301640000000000000                                                                            MORFINA Sln Iny 10 mg/mlAMP     2
CC0001129523937H202100000554924900000554924925/10/20210227     3300009237421964250000A02B0800001276960000000000000                                                                                 OMEPRAZOL CAP 20 MGCAP     2
CC0001129523937H202100000554924900000554924925/10/20211947     3300010237421964250000A03F0500001692520000000000000                                                                   ALIZAPRIDA HCL SLN INY 50 MG/2 MLAMP     2
CC0001129523937H202100000554924900000554924925/10/20211725     3300009237421964250000C03C0100001672000000000000000                                                                       FUROSEMIDA SLN INY 20 MG/2 MLAMP     1
CC0001129523937H202100000554924900000554924925/10/20210227     3300009237421964250000C03C0100001672000000000000000                                                                       FUROSEMIDA SLN INY 20 MG/2 MLAMP     3
CC0001129523937H202100000554924900000554924925/10/20211941     3300010237421964250000J01CR300001659480000000000000                                                                  DELBACTAM POLVO LIOF SLN INY 4.5 GVAL     4
CC0001129523937H202100000554924900000554924925/10/20210522     3300009237421964250000J01DH400001317770000000000000                                                                MEROPENEM POLVO LIOF SLN INY 1 G /R/CAJ     1
CC0001129523937H202100000554924900000554924925/10/20210227     3300009237421964250000J01DH400001317770000000000000                                                                MEROPENEM POLVO LIOF SLN INY 1 G /R/CAJ     3
CC0001129523937H202100000554924900000554924925/10/20211946     3300010237421964250000N2BE2200001252930000000000000                                                                             ACETAMINOFEN Tab 500 MGTAB     2
CC0001129523937H202100000554924900000554924925/10/20210227     3300009237421964250000N2BE2200001252930000000000000                                                                             ACETAMINOFEN Tab 500 MGTAB     5
CC0001129523937H202100000554924900000554924925/10/20210523     3300009237421964250000N2AX0900001672040000000000000                                                                              TRAMADOL SLN INY 50 MGAMP     4
CC0001129523937H202100000554924900000554924925/10/20211948     3300010237421964250000A02BC700001684270000000000000                                                            OMEPRAZOL 40MG POLVO LIOFILIZADO AMPOLLAVAL     1
CC0001129523937H202100000554924900000554924925/10/20211122    31903290237421964250000V07A1300000502600000000000000                                                                                AGUA ESTERIL x 10 mlAMP     5
CC0001129523937H202100000554924900000554924925/10/20211301     3300009237421964250000M04AA100001332710000000000000                                                                            ALOPURINOL 100MG TABLETATAB     2
