RC0001044662561H202100000554935600000554935625/10/20211623    31902056237421964250000E1AB0700003888350000000000000                                                            SOLUCION SALINA 0.9% SLN INY BO X 250 MLBOL     1
RC0001044662561H202100000554935600000554935625/10/20211744     3300010237421964250000H02A0100001664960000000000000                                                                        DEXAMETASONA SLN INY 4 MG/MLAMP     4
RC0001044662561H202100000554935600000554935625/10/20211743     3300010237421964250000H02A0100001664960000000000000                                                                        DEXAMETASONA SLN INY 4 MG/MLAMP     1
RC0001044662561H202100000554935600000554935625/10/20210915     3300009237421964250000L1BC2200001634310000000000000                                                                  ASPARAGINASA SLN INY 10.000 UI /R/VAL     1
RC0001044662561H202100000554935600000554935625/10/20211743     3300010237421964250000L1BC8000003907750000000000000                                           CITARABINA 500MG/5ML(100MG/ML) SOL INY VIAL X 5ML ROPSOHNVAL     1
RC0001044662561H202100000554935600000554935625/10/20211743     3300010237421964250000L1BC2400001045890000000000000                                                                METOTREXATE SLN INY 50 MG / 2 ML /R/VAL     1
RC0001044662561H202100000554935600000554935625/10/20211758     3300009237421964250000H2AB0200001276910000000000000                                                                               PREDNISOLONA TAB 5 MGTAB     3
RC0001044662561H202100000554935600000554935625/10/20210843     3300010237421964250000H2AB0200001276910000000000000                                                                               PREDNISOLONA TAB 5 MGTAB     6
RC0001044662561H202100000554935600000554935625/10/20212016    31903294237421964250000V07A1300000502600000000000000                                                                                AGUA ESTERIL x 10 mlAMP     5
RC0001044662561H202100000554935600000554935625/10/20211405    31500107237421964250000V07A1300000502600000000000000                                                                                AGUA ESTERIL x 10 mlAMP     5
RC0001044662561H202100000554935600000554935625/10/20211758     3300009237421964250000A04AA200003932460000000000000                                                 ONDAX 4MG/2ML(2MG/ML) SOL INY INST CAJ X 1AMP X 2MLAMP     1
RC0001044662561H202100000554935600000554935625/10/20210843     3300010237421964250000A04AA200003932460000000000000                                                 ONDAX 4MG/2ML(2MG/ML) SOL INY INST CAJ X 1AMP X 2MLAMP     3
