CC0000077185534H202100015112643700015112643725/10/20211724    3190099523742196425000018354100000232880000000000000                                                                  SUTURA SEDA NEGRA 3-0 KS 75CM 622HSIN     1
CC0000077185534H202100015112643700015112643725/10/20211724    3190099523742196425000011051900000226360000000000000                                                               KIT TRANSDUCTOR SENCILLO S/VAMP PX260SOB     1
CC0000077185534H202100015112643700015112643725/10/20211724    3190099523742196425000043879200001138180000000000000                                                                                   HOJA BISTURI # 11SOB     1
CC0000077185534H202100015112643700015112643725/10/20211724    3190099523742196425000011085300001082140000000000000                                                                           GUANTE QUIRURGICO TALLA 8SOB     2
CC0000077185534H202100015112643700015112643725/10/20211724    3190099523742196425000011085200001585390000000000000                                                                       GUANTE QUIRURGICO TALLA 7 1/2SOB     2
CC0000077185534H202100015112643700015112643725/10/20211724    3190099523742196425000013077800000471960000000000000                                                             GASA NO TEJIDA EST 7.5 X 7.5 SOB X 3 UNSOB    20
CC0000077185534H202100015112643700015112643725/10/20211724    3190099523742196425000042753100003929850000000000000                   GASA ADHESIVA STRETCH REF 02037-00 ROL X 10MT FIXOMULL 10CM BN EXENTO-DC.417/2020CMT    50
CC0000077185534H202100015112643700015112643725/10/20211724    31900995237421964250000E1AB0500003888400000000000000                                                              SOLUCION SALINA 0.9% SLN INY X 1000 MLBOL     1
