RC0001220469205H202100015012564100015012564125/10/20211756    3150034723742196425000001956000001620610000000000000                                                                      CONECTOR MICRO CLAVE LAT-MC100SOB     1
RC0001220469205H202100015012564100015012564125/10/20211756    31500347237421964250000Q1AA7300000610640000000000000                                                            CATETER PERIFE INTROCAN # 22G 4251628-04SIN     1
CC0000032651823H202100015012564100015012564125/10/20211756    31500347237421964250000E1AB0200000199290000000000000                                                            SOLUCION SALINA 0.9% SLN INY BO X 100 MLBIN     3
