RC0001046720730U202100050131369700050131369725/10/20212109    3150025823942196432000024673600000222980000000000000                                                                     JERINGA DESECHABLE 5 ml 27*11/2SIN     1
RC0001046720730U202100050131369700050131369725/10/20212109    3150025823942196432000011082700001620070000000000000                                                               EQUIPO SET PRIMARIO C/CLAVE REF 14001BOL     1
RC0001046720730U202100050131369700050131369725/10/20212109    31500258239421964320000Q1AA7300000610640000000000000                                                            CATETER PERIFE INTROCAN # 22G 4251628-04SIN     1
RC0001046720730U202100050131369700050131369725/10/20212109    3150025823942196432000000602600001259280000000000000                                                             APOSITO TEGADERM IV PD 1610 5CM X 5.7CMSOB     1
RC0001046720730U202100050131369700050131369725/10/20212109    31500258239421964320000E1AC0100000199400000000000000                                                                          SUERO MIXTO Sln Iny 500 mlBIN     1
