TI0001047044339H202100015122506900015122506925/10/20211841    3150056823742196425000011060400001010330000000000000                                                            SENSOR PULSOX SPO2 LNCS NEONATAL MP00792PZA     1
TI0001047044339H202100015122506900015122506925/10/20211841    3150056823742196425000011082700001620070000000000000                                                               EQUIPO SET PRIMARIO C/CLAVE REF 14001BOL     1
TI0001047044339H202100015122506900015122506925/10/20211841    3150056823742196425000011082200001407940000000000000                                                              EQUIPO EXT MICROTUBO Y 2 VALVUL 2N8371SOB     1
TI0001047044339H202100015122506900015122506925/10/20211841    3150056823742196425000030936900001431840000000000000                                                                                              BURETABOL     1
TI0001047044339H202100015122506900015122506925/10/20211841    31500568237421964250000E1AD0300000199490000000000000                                         LACTATO RINGER USP (HARTMANN)  SOL INY  BOL X 1000ML BAXTERBIN     4
