CC0000072254541H202100000554932000000554932025/10/20210724     3300009237421964250000B1AB1200003939350000000000000                 ENOXAPARINA SODICA 80MG/0.8ML(100MG/ML) SOL INY INST CAJ X 2JERPREL X 0.8ML TECHDOWJRP     2
CC0000072254541H202100000554932000000554932025/10/20210724     3300009237421964250000A02B0800001276960000000000000                                                                                 OMEPRAZOL CAP 20 MGCAP     1
CC0000072254541H202100000554932000000554932025/10/20211314     3300009237421964250000B01AA100001278710000000000000                                                                                  WARFARINA TAB 5 MGTAB     3
CC0000072254541H202100000554932000000554932025/10/20211313     3300009237421964250000B01AA100001278710000000000000                                                                                  WARFARINA TAB 5 MGTAB     2
CC0000072254541H202100000554932000000554932025/10/20210724     3300009237421964250000C3CA0700001334510000000000000                                                                                FUROSEMIDA TAB 40 MGTAB     1
CC0000072254541H202100000554932000000554932025/10/20210724     3300009237421964250000C7AB0100001276990000000000000                                                                            BETOPROLOL TAB 50 MG /R/TAB     2
