CC0001143151880H202100000554927500000554927525/10/20211820    31903059237421964250000E1AB0200000199290000000000000                                                            SOLUCION SALINA 0.9% SLN INY BO X 100 MLBIN     4
CC0001143151880H202100000554927500000554927525/10/20211820    31903059237421964250000E1AD0300000199490000000000000                                         LACTATO RINGER USP (HARTMANN)  SOL INY  BOL X 1000ML BAXTERBIN     2
CC0001143151880H202100000554927500000554927525/10/20211056     3300009237421964250000C07A1100001015770000000000000                                                                   TRANDATE SLN INY 100 MG/20 ML /R/AMP     1
CC0001143151880H202100000554927500000554927525/10/20211707     3300010237421964250000C2DE1400001277050000000000000                                                                         NIFEDIPINO CAPSULA LM 30 MGCAP     4
CC0001143151880H202100000554927500000554927525/10/20210907     3300009237421964250000C2DE1400001277050000000000000                                                                         NIFEDIPINO CAPSULA LM 30 MGCAP     2
CC0001143151880H202100000554927500000554927525/10/20211054     3300009237421964250000H2AB0100000562660000000000000                                                                    BETAMETASONA SLN INY 8 MG / 2 MLAMP     2
CC0001143151880H202100000554927500000554927525/10/20211029     3300009237421964250000H2AB0100000562660000000000000                                                                    BETAMETASONA SLN INY 8 MG / 2 MLAMP     1
CC0001143151880H202100000554927500000554927525/10/20211707     3300010237421964250000N1BA1900000554750000000000000                                                                     ROXICAINA JALEA 2% TUBO X 30 MLTUB     1
CC0001143151880H202100000554927500000554927525/10/20211054     3300009237421964250000N1BA1900000554750000000000000                                                                     ROXICAINA JALEA 2% TUBO X 30 MLTUB     2
CC0001143151880H202100000554927500000554927525/10/20211707     3300010237421964250000A12CC100001690470000000000000                                                                  MAGNESIO SULFATO 20% SLN INY 10 MLAMP     8
CC0001143151880H202100000554927500000554927525/10/20211056     3300009237421964250000A12CC100001690470000000000000                                                                  MAGNESIO SULFATO 20% SLN INY 10 MLAMP     3
CC0001143151880H202100000554927500000554927525/10/20211054     3300009237421964250000A12CC100001690470000000000000                                                                  MAGNESIO SULFATO 20% SLN INY 10 MLAMP     5
CC0001143151880H202100000554927500000554927525/10/20211707     3300010237421964250000A03F0500001692520000000000000                                                                   ALIZAPRIDA HCL SLN INY 50 MG/2 MLAMP     1
CC0001143151880H202100000554927500000554927525/10/20211054     3300009237421964250000A03F0500001692520000000000000                                                                   ALIZAPRIDA HCL SLN INY 50 MG/2 MLAMP     2
CC0001143151880H202100000554927500000554927525/10/20211707     3300010237421964250000N2BE2200001252930000000000000                                                                             ACETAMINOFEN Tab 500 MGTAB     2
CC0001143151880H202100000554927500000554927525/10/20210908     3300009237421964250000N2BE2200001252930000000000000                                                                             ACETAMINOFEN Tab 500 MGTAB     4
CC0001143151880H202100000554927500000554927525/10/20210720     3300009237421964250000N2BE2200001252930000000000000                                                                             ACETAMINOFEN Tab 500 MGTAB     2
CC0001143151880H202100000554927500000554927525/10/20210513     3300009237421964250000N2BE2200001252930000000000000                                                                             ACETAMINOFEN Tab 500 MGTAB     2
CC0001143151880H202100000554927500000554927525/10/20211707     3300010237421964250000A02BC700001684270000000000000                                                            OMEPRAZOL 40MG POLVO LIOFILIZADO AMPOLLAVAL     1
CC0001143151880H202100000554927500000554927525/10/20211056     3300009237421964250000A02BC700001684270000000000000                                                            OMEPRAZOL 40MG POLVO LIOFILIZADO AMPOLLAVAL     2
CC0001143151880H202100000554927500000554927525/10/20211212    31903303237421964250000V07A1300000502600000000000000                                                                                AGUA ESTERIL x 10 mlAMP     5
