RC0001047064607U202100050131371500050131371525/10/20212328    31500154239421964320000B05C0200001339660000000000000                                                                        SOLUCION SALINA 0.9% X 10 MLJRP     3
CC0001143120182U202100050131371500050131371525/10/20212328    3150015423942196432000043995200000229010000000000000                                                               HUMIDIFICADOR PARA OXIGENO REF. H001BBOL     1
CC0001143120182U202100050131371500050131371525/10/20212328    3150015423942196432000038568100000258050000000000000                                                                         CANULA OXIGENO NASAL ADULTOSIN     1
