CC0000022476791A202100000027619700000027619725/10/20211303    3190333624042196419000011082700001620070000000000000                                                               EQUIPO SET PRIMARIO C/CLAVE REF 14001BOL     1
CC0000022476791A202100000027619700000027619725/10/20211303    3190333624042196419000015638600000221740000000000000                                                                          MAQUINA DESECHABLE AFEITARPZA     1
CC0000022476791A202100000027619700000027619725/10/20211303    3190333624042196419000049059800000267410000000000000                                                                 MEDIA ANTIEMBOLICA TAL L 3634LF PARBOL     1
CC0000022476791A202100000027619700000027619725/10/20211303    31903336240421964190000N1BA1900000554750000000000000                                                                     ROXICAINA JALEA 2% TUBO X 30 MLTUB     1
CC0000022476791A202100000027619700000027619725/10/20211303    3190333624042196419000038569900001124970000000000000                                                                              SONDA FOLEY #14 2 VIASSOB     1
CC0000022476791A202100000027619700000027619725/10/20211303    3190333624042196419000031188000000236790000000000000                                                                                     CISTOFLO ADULTOSIN     1
CC0000022476791A202100000027619700000027619725/10/20211303    31903336240421964190000B02AA100001407470000000000000                                                                    CLINTRANEX SLN INY 500 MG / 5 MLAMP     2
CC0000022476791A202100000027619700000027619725/10/20211303    3190333624042196419000000500600000526900000000000000                                                                          BIOSYN 4/0 P-12 REF SM5627SIN     1
CC0000022476791A202100000027619700000027619725/10/20211303    3190333624042196419000000601900000258430000000000000                                                            APOSITO OPSIT POST -OP 0714  25CM X 10CMSIN     1
CC0000022476791A202100000027619700000027619725/10/20211303    3190333624042196419000000016500000223580000000000000                                                                    STERI-STRIP 12 X 100 REF 1547 3MSIN     1
CC0000022476791A202100000027619700000027619725/10/20211303    3190333624042196419000000016100000314040000000000000                                                                ESPONJA HEMOSTATICA  GELFOAM ESPONJABOL     1
CC0000022476791A202100000027619700000027619725/10/20211303    3190333624042196419000000502600000233300000000000000                                                            SUTURA CAPROFYL 2-0 90CM CON CT-1 CF923TSIN     1
CC0000022476791A202100000027619700000027619725/10/20211303    3190333624042196419000045138000001413890000000000000                                                                       LAPIZ ELECTROBISTURI  SOB X 1SOB     1
CC0000022476791A202100000027619700000027619725/10/20211303    3190333624042196419000030161400001459220000000000000                                                                       MANGUERA SUCCION 6 MM*3.1 MTSSOB     1
CC0000022476791A202100000027619700000027619725/10/20211303    3190333624042196419000011017400000231840000000000000                                                                         CATGUT CROMADO 2-0 CT1 923TSIN     1
CC0000022476791A202100000027619700000027619725/10/20211303    3190333624042196419000019487800001585180000000000000                                                                    VICRYL 1 PLUS 70 CM CT-1 VCP341HSOB     5
CC0000022476791A202100000027619700000027619725/10/20211303    3190333624042196419000043879500001138210000000000000                                                                                    HOJA BISTURI #20SOB     1
CC0000022476791A202100000027619700000027619725/10/20211303    3190333624042196419000043879400001138170000000000000                                                                  HOJA BISTURI # 10 CSSB 10 01002000SOB     1
CC0000022476791A202100000027619700000027619725/10/20211303    3190333624042196419000022425200000548240000000000000                       EXTENSION DE ANESTESIA REF 1139 SOB X 1 SHERLEG  ADULTO BN EXENTO-DC.417/2020SIN     1
CC0000022476791A202100000027619700000027619725/10/20211303    3190333624042196419000035356500003919000000000000000                                                                                        LLAVE 3 VIASSOB     1
CC0000022476791A202100000027619700000027619725/10/20211303    31903336240421964190000Q1AA7100000610620000000000000                                                            CATETER PERIFE INTROCAN # 18G 4251687-04SIN     2
CC0000022476791A202100000027619700000027619725/10/20211303    3190333624042196419000022426800001140510000000000000                                                                    EQUIPO MACROGOTEO BAXTER MRC0001SOB     1
CC0000022476791A202100000027619700000027619725/10/20211303    3190333624042196419000016830000000970620000000000000                                                             SIST FIJACION CAT PERIFERICO 6.5X7 1683SOB     1
CC0000022476791A202100000027619700000027619725/10/20211303    31903336240421964190000J01DA300001239950000000000000                                                            CEFAZOLINA SODICA POLVO LIOF SLN INY 1 GVAL     2
CC0000022476791A202100000027619700000027619725/10/20211303    3190333624042196419000011073300001096420000000000000                                                                BOLSA DE SUCCION DE FLUIDOS x 2500mLBOL     1
CC0000022476791A202100000027619700000027619725/10/20211303    3190333624042196419000020750600000296780000000000000                                                                PLACA ELECTRO RETORNO PACIENTE E7506SIN     1
CC0000022476791A202100000027619700000027619725/10/20211303    3190333624042196419000053074400000607910000000000000                                                               GASA ESTERIL 10*10 SOBRE X 3 UNIDADESSOB     5
CC0000022476791A202100000027619700000027619725/10/20211303    3190333624042196419000024673000001411210000000000000                                                                  JERINGA DESECHABLE 3 ML 21 X 1 1/2SOB     2
CC0000022476791A202100000027619700000027619725/10/20211303    3190333624042196419000024674000000220660000000000000                             JERINGA A 3 PARTES CON AGUJA  SOB X 1 RYMCO  10ML BN EXENTO-DC.417/2020SIN     6
CC0000022476791A202100000027619700000027619725/10/20211303    3190333624042196419000024674500000322810000000000000                                                                   JERINGA DESECHABLE 20 ml 21*1 1/2SIN     1
CC0000022476791A202100000027619700000027619725/10/20211303    3190333624042196419000011085200001585390000000000000                                                                       GUANTE QUIRURGICO TALLA 7 1/2SOB     5
CC0000022476791A202100000027619700000027619725/10/20211303    3190333624042196419000011085100001082120000000000000                                                                           GUANTE QUIRURGICO TALLA 7SOB     3
CC0000022476791A202100000027619700000027619725/10/20211303    3190333624042196419000043485100001618510000000000000                GUANTE QUIRURGICO DE LATEX REF 2D72N65X CAJ X 50 PROTEXIS  6.5 BN EXENTO-DC.417/2020SOB     3
CC0000022476791A202100000027619700000027619725/10/20211303    3190333624042196419000038568100000258050000000000000                                                                         CANULA OXIGENO NASAL ADULTOSIN     1
CC0000022476791A202100000027619700000027619725/10/20211303    3190333624042196419000020059900000225180000000000000                                                              AGUJA SPINOCAN 26G X 3 1/2 PU  4502906SIN     1
CC0000022476791A202100000027619700000027619725/10/20211303    3190333624042196419000000100600000223090000000000000                                                                      AGUJA DESECHABLE 18G X 1 1/2 PSIN     1
CC0000022476791A202100000027619700000027619725/10/20211303    31903336240421964190000E1AD0200003888320000000000000                                                                              HARTMAN SLN INY 500 MLBOL     3
CC0000022476791A202100000027619700000027619725/10/20211303    31903336240421964190000E1AB0300003888390000000000000                                                            SOLUCION SALINA 0.9% SLN INY BO X 500 MLBOL     3
CC0000022476791A202100000027619700000027619725/10/20211303    31903336240421964190000E1AB0200000199290000000000000                                                            SOLUCION SALINA 0.9% SLN INY BO X 100 MLBIN     2
CC0000022476791A202100000027619700000027619725/10/20211303    31903336240421964190000A03F0300001626860000000000000                                                                   METOCLOPRAMIDA SLN INY 10 MG/2 MLAMP     1
CC0000022476791A202100000027619700000027619725/10/20211303    31903336240421964190000A2BC0900000200150000000000000                                                                               ORAZOLE Sln Iny 40 mgCIN     1
CC0000022476791A202100000027619700000027619725/10/20211303    31903336240421964190000N5BB0300000554910000000000000                                                                         HIDERAX SLN INY 100 MG/2 MLAMP     1
CC0000022476791A202100000027619700000027619725/10/20211303    31903336240421964190000H02AB500001664950000000000000                                                            DEXAMETASONA SLN INY 8 MG/2 ML AMP /CDS/AMP     1
CC0000022476791A202100000027619700000027619725/10/20211303    31903336240421964190000C01C0300001261020000000000000                                                               ETILEFRINA HCL SLN INY 10 MG/1 ML /R/AMP     1
CC0000022476791A202100000027619700000027619725/10/20211303    31903336240421964190000N1BA0500000647360000000000000                                                                  BUPIROP 0.5% PESADO SLN INY X 4 MLAPC     1
CC0000022476791A202100000027619700000027619725/10/20211303    31903336240421964190000N1BA1400000220050000000000000                                                                 ROXICAINA 2% C/EPIN Sln Iny x 50 mlFCO     1
CC0000022476791A202100000027619700000027619725/10/20211303    31903336240421964190000N2AA0100000301640000000000000                                                                            MORFINA Sln Iny 10 mg/mlAMP     1
