CC0000007443172H202100000554926100000554926125/10/20210738     3300009237421964250000B1AB1200003939350000000000000                 ENOXAPARINA SODICA 80MG/0.8ML(100MG/ML) SOL INY INST CAJ X 2JERPREL X 0.8ML TECHDOWJRP     1
CC0000007443172H202100000554926100000554926125/10/20210737     3300009237421964250000C09CA400001277130000000000000                                                                                  LOSARTAN TAB 50 MGTAB     2
CC0000007443172H202100000554926100000554926125/10/20210737     3300009237421964250000C10AA700001336240000000000000                                                                     ROSUVASTATINA CALCICA TAB 40 MGTAB     1
CC0000007443172H202100000554926100000554926125/10/20210738     3300009237421964250000A02B0800001276960000000000000                                                                                 OMEPRAZOL CAP 20 MGCAP     1
CC0000007443172H202100000554926100000554926125/10/20210737     3300009237421964250000C07A1400001333340000000000000                                                                          CARVEDILOL TAB 12.5 MG /R/TAB     1
CC0000007443172H202100000554926100000554926125/10/20210737     3300009237421964250000C08CA300001313930000000000000                                                                                AMLODIPINO TAB 10 MGTAB     1
CC0000007443172H202100000554926100000554926125/10/20211211    31903303237421964250000V07A1300000502600000000000000                                                                                AGUA ESTERIL x 10 mlAMP     5
