CC0000072008590U202100050131371100050131371125/10/20212247    3150061723942196432000024674000000220660000000000000                             JERINGA A 3 PARTES CON AGUJA  SOB X 1 RYMCO  10ML BN EXENTO-DC.417/2020SIN     1
CC0000011059558U202100050131371100050131371125/10/20212247    3150061723942196432000024674000000220660000000000000                             JERINGA A 3 PARTES CON AGUJA  SOB X 1 RYMCO  10ML BN EXENTO-DC.417/2020SIN     1
CC0000011059558U202100050131371100050131371125/10/20212247    3150061723942196432000011082700001620070000000000000                                                               EQUIPO SET PRIMARIO C/CLAVE REF 14001BOL     1
CC0000011059558U202100050131371100050131371125/10/20212247    31500617239421964320000Q1AA7200000610630000000000000                                                            CATETER PERIFE INTROCAN # 20G 4251644-04SIN     1
CC0000011059558U202100050131371100050131371125/10/20212247    3150061723942196432000030936900001431840000000000000                                                                                              BURETABOL     1
CC0000011059558U202100050131371100050131371125/10/20212247    3150061723942196432000016830000000970620000000000000                                                             SIST FIJACION CAT PERIFERICO 6.5X7 1683SOB     1
CC0000011059558U202100050131371100050131371125/10/20212247    31500617239421964320000E1AB0300003888390000000000000                                                            SOLUCION SALINA 0.9% SLN INY BO X 500 MLBOL     1
