CC0000008697210H202100015052694300015052694325/10/20211739    3190118923742196425000011082700001620070000000000000                                                               EQUIPO SET PRIMARIO C/CLAVE REF 14001BOL     1
CC0000008697210H202100015052694300015052694325/10/20211739    3190118923742196425000030936900001431840000000000000                                                                                              BURETABOL     1
CC0000072233154H202100015052694300015052694325/10/20211739    31901189237421964250000E1AB0300003888390000000000000                                                            SOLUCION SALINA 0.9% SLN INY BO X 500 MLBOL     2
