CC0000032605816H202100000554933100000554933125/10/20210741     3300009237421964250000A03BB100003889180000000000000                                      HIOSCINA BUTIL BROMURO 20MG/ML SOL INY CAJ X 100AMP X 1ML RYANAMP     2
CC0000032605816H202100000554933100000554933125/10/20210741     3300009237421964250000N2BB0100000787510000000000000                                                                    DIPIRONA SODICA Sln Iny 1 g/2 mlAMP     2
CC0000032605816H202100000554933100000554933125/10/20210741     3300009237421964250000P01AB400001278110000000000000                                                                             METRONIDAZOL TAB 500 MGTAB     2
CC0000032605816H202100000554933100000554933125/10/20211213    31903303237421964250000V07A1300000502600000000000000                                                                                AGUA ESTERIL x 10 mlAMP     5
