TI0001129497813U202100050131365900050131365925/10/20211622    3190315823942196432000001956000001620610000000000000                                                                      CONECTOR MICRO CLAVE LAT-MC100SOB     1
TI0001129497813U202100050131365900050131365925/10/20211622    31903158239421964320000Q1AA7400003911720000000000000                                                            CATETER PERIFE INTROCAN # 24G 4251601-04SOB     1
TI0001129497813U202100050131365900050131365925/10/20211622    3190315823942196432000016830000000970620000000000000                                                             SIST FIJACION CAT PERIFERICO 6.5X7 1683SOB     1
CE0001010121550U202100050131365900050131365925/10/20211622    31903158239421964320000E1AC0100000199400000000000000                                                                          SUERO MIXTO Sln Iny 500 mlBIN     1
