CC0001045684571H202100015112643000015112643025/10/20211134    31900995237421964250000V07A1300000502600000000000000                                                                                AGUA ESTERIL x 10 mlAMP    10
CC0000077185534H202100015112643000015112643025/10/20211134    31900995237421964250000V07A1300000502600000000000000                                                                                AGUA ESTERIL x 10 mlAMP     5
CC0001045684571H202100015112643000015112643025/10/20211134    3190099523742196425000045136100001419300000000000000                                                                            LANCETA DEXTROMETER X UNPZA     3
CC0000077185534H202100015112643000015112643025/10/20211134    3190099523742196425000045136100001419300000000000000                                                                            LANCETA DEXTROMETER X UNPZA     3
CC0001045684571H202100015112643000015112643025/10/20211134    3190099523742196425000024674000000220660000000000000                             JERINGA A 3 PARTES CON AGUJA  SOB X 1 RYMCO  10ML BN EXENTO-DC.417/2020SIN    15
CC0000077185534H202100015112643000015112643025/10/20211134    3190099523742196425000024674000000220660000000000000                             JERINGA A 3 PARTES CON AGUJA  SOB X 1 RYMCO  10ML BN EXENTO-DC.417/2020SIN    10
CC0001045684571H202100015112643000015112643025/10/20211134    3190099523742196425000011082900001233450000000000000                                                               EQUIPO LC 5000 PRIMARIO FOTOPRO 0L218SOB     1
CC0001045684571H202100015112643000015112643025/10/20211134    3190099523742196425000011081700001413910000000000000                                                                EQUIPO ADM NUTRICIONES 673662 BAXTERBOL     1
CC0001045684571H202100015112643000015112643025/10/20211134    3190099523742196425000021221000000226640000000000000                                                                                 CARTUCHO ACT 402-03PZA    12
CC0001045684571H202100015112643000015112643025/10/20211134    31900995237421964250000E1AB0300003888390000000000000                                                            SOLUCION SALINA 0.9% SLN INY BO X 500 MLBOL     3
CC0001045684571H202100015112643000015112643025/10/20211134    31900995237421964250000E1AB0200000199290000000000000                                                            SOLUCION SALINA 0.9% SLN INY BO X 100 MLBIN    15
CC0000077185534H202100015112643000015112643025/10/20211134    31900995237421964250000E1AB0200000199290000000000000                                                            SOLUCION SALINA 0.9% SLN INY BO X 100 MLBIN    10
CC0001045684571H202100015112643000015112643025/10/20211134    3190099523742196425000011137100001419310000000000000                                                               TIRA GLUCOMETRIA FREESTYLE H OPTIUM .PZA     3
CC0000077185534H202100015112643000015112643025/10/20211134    3190099523742196425000011137100001419310000000000000                                                               TIRA GLUCOMETRIA FREESTYLE H OPTIUM .PZA     3
