CC0001042970504H202100015112644500015112644525/10/20212137    31500305237421964250000V07A1300000502600000000000000                                                                                AGUA ESTERIL x 10 mlAMP    10
CC0001042970504H202100015112644500015112644525/10/20212137    3150030523742196425000038570100001124990000000000000                                                                              SONDA FOLEY #18 2 VIASSOB     1
CC0001042970504H202100015112644500015112644525/10/20212137    3150030523742196425000024674000000220660000000000000                             JERINGA A 3 PARTES CON AGUJA  SOB X 1 RYMCO  10ML BN EXENTO-DC.417/2020SIN    15
CC0000022328269H202100015112644500015112644525/10/20212137    3150030523742196425000043485100001618510000000000000                GUANTE QUIRURGICO DE LATEX REF 2D72N65X CAJ X 50 PROTEXIS  6.5 BN EXENTO-DC.417/2020SOB     2
CC0001042970504H202100015112644500015112644525/10/20212137    3150030523742196425000043485100001618510000000000000                GUANTE QUIRURGICO DE LATEX REF 2D72N65X CAJ X 50 PROTEXIS  6.5 BN EXENTO-DC.417/2020SOB     4
CC0000032678618H202100015112644500015112644525/10/20212137    3150030523742196425000043485100001618510000000000000                GUANTE QUIRURGICO DE LATEX REF 2D72N65X CAJ X 50 PROTEXIS  6.5 BN EXENTO-DC.417/2020SOB     2
CC0000032683043H202100015112644500015112644525/10/20212137    3150030523742196425000013077800000471960000000000000                                                             GASA NO TEJIDA EST 7.5 X 7.5 SOB X 3 UNSOB     4
CC0000022328269H202100015112644500015112644525/10/20212137    3150030523742196425000013077800000471960000000000000                                                             GASA NO TEJIDA EST 7.5 X 7.5 SOB X 3 UNSOB     6
CC0001042970504H202100015112644500015112644525/10/20212137    3150030523742196425000013077800000471960000000000000                                                             GASA NO TEJIDA EST 7.5 X 7.5 SOB X 3 UNSOB    10
CC0001143151880H202100015112644500015112644525/10/20212137    3150030523742196425000013077800000471960000000000000                                                             GASA NO TEJIDA EST 7.5 X 7.5 SOB X 3 UNSOB     6
CC0000032678618H202100015112644500015112644525/10/20212137    3150030523742196425000013077800000471960000000000000                                                             GASA NO TEJIDA EST 7.5 X 7.5 SOB X 3 UNSOB    10
CC0000032678618H202100015112644500015112644525/10/20212137    3150030523742196425000042743200003929860000000000000                   GASA ADHESIVA STRETCH REF 02038-00 ROL X 10MT FIXOMULL 15CM BN EXENTO-DC.417/2020CMT    60
CC0001042970504H202100015112644500015112644525/10/20212137    3150030523742196425000022426800001140510000000000000                                                                    EQUIPO MACROGOTEO BAXTER MRC0001SOB     2
CC0001042970504H202100015112644500015112644525/10/20212137    3150030523742196425000011082700001620070000000000000                                                               EQUIPO SET PRIMARIO C/CLAVE REF 14001BOL     2
CC0001042970504H202100015112644500015112644525/10/20212137    3150030523742196425000031188000000236790000000000000                                                                                     CISTOFLO ADULTOSIN     1
CC0000032678618H202100015112644500015112644525/10/20212137    3150030523742196425000001633100001166650000000000000                                                                            CUTIMED SORBACT 7 X 9 CMSOB     1
CC0001042970504H202100015112644500015112644525/10/20212137    3150030523742196425000001956000001620610000000000000                                                                      CONECTOR MICRO CLAVE LAT-MC100SOB     3
CC0000022328269H202100015112644500015112644525/10/20212137    3150030523742196425000000602700001197200000000000000                                                              APOSITO TRANSP  1655 IV 8.5CM X 11.5CMSOB     1
CC0001042970504H202100015112644500015112644525/10/20212137    3150030523742196425000000602700001197200000000000000                                                              APOSITO TRANSP  1655 IV 8.5CM X 11.5CMSOB     1
CC0000022328269H202100015112644500015112644525/10/20212137    3150030523742196425000016830000000970620000000000000                                                             SIST FIJACION CAT PERIFERICO 6.5X7 1683SOB     1
CC0000032678618H202100015112644500015112644525/10/20212137    3150030523742196425000041997400001271970000000000000                                                                           APOSITO DUODERM 20*20 8*8SOB     1
CC0001042970504H202100015112644500015112644525/10/20212137    31500305237421964250000E1AB0200000199290000000000000                                                            SOLUCION SALINA 0.9% SLN INY BO X 100 MLBIN     6
CC0001042970504H202100015112644500015112644525/10/20212137    3150030523742196425000011137100001419310000000000000                                                               TIRA GLUCOMETRIA FREESTYLE H OPTIUM .PZA     4
