CC0000072233154H202100915326102500915326102525/10/20211742    3190278823742196425000030936900001431840000000000000                                                                                              BURETABOL     1
CC0000072233154H202100915326102500915326102525/10/20212039    3190114723742196425000013077800000471960000000000000                                                             GASA NO TEJIDA EST 7.5 X 7.5 SOB X 3 UNSOB     2
CC0000072233154H202100915326102500915326102525/10/20212039    3190114723742196425000042753100003929850000000000000                   GASA ADHESIVA STRETCH REF 02037-00 ROL X 10MT FIXOMULL 10CM BN EXENTO-DC.417/2020CMT    10
