RC0001187466818H202100015122506100015122506125/10/20210919    3190315723742196425000030161400001459220000000000000                                                                       MANGUERA SUCCION 6 MM*3.1 MTSSOB     1
RC0001187466818H202100015122506100015122506125/10/20210919    31903157237421964250000Q1AA1000000256790000000000000                                                                         SONDA ASPIRACION CONTROL #8SIN    10
RC0001187466818H202100015122506100015122506125/10/20210919    3190315723742196425000036441300000236540000000000000                                                                    JERINGA 1 ML GASES ARTERIAL 9023SIN     5
RC0001187466818H202100015122506100015122506125/10/20210919    3190315723742196425000024674500000322810000000000000                                                                   JERINGA DESECHABLE 20 ml 21*1 1/2SIN     5
RC0001187466818H202100015122506100015122506125/10/20210919    3190315723742196425000053074400000607910000000000000                                                               GASA ESTERIL 10*10 SOBRE X 3 UNIDADESSOB     3
RC0001187466818H202100015122506100015122506125/10/20210919    3190315723742196425000037180800001271920000000000000                                                                   APOSITO DUODERM EXTR TH 10*10 187SOB     1
RC0001187466818H202100015122506100015122506125/10/20210919    31903157237421964250000E1AB0200000199290000000000000                                                            SOLUCION SALINA 0.9% SLN INY BO X 100 MLBIN     3
