CC0000003744464H202100000025033800000025033825/10/20211042    3190301623742196425000024674000000220660000000000000                             JERINGA A 3 PARTES CON AGUJA  SOB X 1 RYMCO  10ML BN EXENTO-DC.417/2020SIN    10
CC0001140825892H202100000025033800000025033825/10/20211042    3190301623742196425000024674000000220660000000000000                             JERINGA A 3 PARTES CON AGUJA  SOB X 1 RYMCO  10ML BN EXENTO-DC.417/2020SIN     5
CC0000041757421H202100000025033800000025033825/10/20211042    3190301623742196425000024674000000220660000000000000                             JERINGA A 3 PARTES CON AGUJA  SOB X 1 RYMCO  10ML BN EXENTO-DC.417/2020SIN     5
CC0000026688321H202100000025033800000025033825/10/20211042    3190301623742196425000024674000000220660000000000000                             JERINGA A 3 PARTES CON AGUJA  SOB X 1 RYMCO  10ML BN EXENTO-DC.417/2020SIN     5
CC0000003744464H202100000025033800000025033825/10/20211042    3190301623742196425000013077800000471960000000000000                                                             GASA NO TEJIDA EST 7.5 X 7.5 SOB X 3 UNSOB    10
CC0001140825892H202100000025033800000025033825/10/20211042    3190301623742196425000013077800000471960000000000000                                                             GASA NO TEJIDA EST 7.5 X 7.5 SOB X 3 UNSOB     4
CC0000041757421H202100000025033800000025033825/10/20211042    3190301623742196425000013077800000471960000000000000                                                             GASA NO TEJIDA EST 7.5 X 7.5 SOB X 3 UNSOB     4
CC0000026688321H202100000025033800000025033825/10/20211042    3190301623742196425000013077800000471960000000000000                                                             GASA NO TEJIDA EST 7.5 X 7.5 SOB X 3 UNSOB     4
CC0000003744464H202100000025033800000025033825/10/20211042    3190301623742196425000022426900000236750000000000000                                                                EQUIPO MACROGOTEO CON AGUJA (MRC001)SOB     1
CC0000003744464H202100000025033800000025033825/10/20211042    3190301623742196425000022426800001140510000000000000                                                                    EQUIPO MACROGOTEO BAXTER MRC0001SOB     1
CC0000026688321H202100000025033800000025033825/10/20211042    3190301623742196425000022426800001140510000000000000                                                                    EQUIPO MACROGOTEO BAXTER MRC0001SOB     1
CC0000008716890H202100000025033800000025033825/10/20211042    3190301623742196425000001956000001620610000000000000                                                                      CONECTOR MICRO CLAVE LAT-MC100SOB     1
CC0000003744464H202100000025033800000025033825/10/20211042    3190301623742196425000001956000001620610000000000000                                                                      CONECTOR MICRO CLAVE LAT-MC100SOB     1
CC0001140825892H202100000025033800000025033825/10/20211042    3190301623742196425000001956000001620610000000000000                                                                      CONECTOR MICRO CLAVE LAT-MC100SOB     1
CC0000041757421H202100000025033800000025033825/10/20211042    3190301623742196425000001956000001620610000000000000                                                                      CONECTOR MICRO CLAVE LAT-MC100SOB     1
CC0000026688321H202100000025033800000025033825/10/20211042    3190301623742196425000001956000001620610000000000000                                                                      CONECTOR MICRO CLAVE LAT-MC100SOB     1
CC0000003744464H202100000025033800000025033825/10/20211042    3190301623742196425000038568100000258050000000000000                                                                         CANULA OXIGENO NASAL ADULTOSIN     1
CC0001140825892H202100000025033800000025033825/10/20211042    3190301623742196425000038568100000258050000000000000                                                                         CANULA OXIGENO NASAL ADULTOSIN     1
CC0000041757421H202100000025033800000025033825/10/20211042    3190301623742196425000038568100000258050000000000000                                                                         CANULA OXIGENO NASAL ADULTOSIN     1
CC0000026688321H202100000025033800000025033825/10/20211042    3190301623742196425000038568100000258050000000000000                                                                         CANULA OXIGENO NASAL ADULTOSIN     1
CC0000003744464H202100000025033800000025033825/10/20211042    3190301623742196425000020058100001101630000000000000                                                                     AGUJA HIPODERMICA DESECH 23 X 1SOB     1
CC0001140825892H202100000025033800000025033825/10/20211042    3190301623742196425000020058100001101630000000000000                                                                     AGUJA HIPODERMICA DESECH 23 X 1SOB     1
CC0000041757421H202100000025033800000025033825/10/20211042    3190301623742196425000020058100001101630000000000000                                                                     AGUJA HIPODERMICA DESECH 23 X 1SOB     1
CC0000026688321H202100000025033800000025033825/10/20211042    3190301623742196425000020058100001101630000000000000                                                                     AGUJA HIPODERMICA DESECH 23 X 1SOB     1
CC0000008716890H202100000025033800000025033825/10/20211042    3190301623742196425000020058100001101630000000000000                                                                     AGUJA HIPODERMICA DESECH 23 X 1SOB     1
CC0000008716890H202100000025033800000025033825/10/20211042    3190301623742196425000000101000001101640000000000000                                                                  AGUJA DESECHABLE  23G X 1 1/2 PULGSOB     2
CC0000003744464H202100000025033800000025033825/10/20211042    3190301623742196425000000101000001101640000000000000                                                                  AGUJA DESECHABLE  23G X 1 1/2 PULGSOB     2
CC0001140825892H202100000025033800000025033825/10/20211042    3190301623742196425000000101000001101640000000000000                                                                  AGUJA DESECHABLE  23G X 1 1/2 PULGSOB     2
CC0000041757421H202100000025033800000025033825/10/20211042    3190301623742196425000000101000001101640000000000000                                                                  AGUJA DESECHABLE  23G X 1 1/2 PULGSOB     2
CC0000026688321H202100000025033800000025033825/10/20211042    3190301623742196425000000101000001101640000000000000                                                                  AGUJA DESECHABLE  23G X 1 1/2 PULGSOB     2
CC0000008716890H202100000025033800000025033825/10/20211042    31903016237421964250000E1BA0100000198890000000000000                                                                   AGUA ESTERIL USP SLN INY X 500 MLBIN     6
CC0000003744464H202100000025033800000025033825/10/20211042    31903016237421964250000E1BA0100000198890000000000000                                                                   AGUA ESTERIL USP SLN INY X 500 MLBIN     6
CC0001140825892H202100000025033800000025033825/10/20211042    31903016237421964250000E1BA0100000198890000000000000                                                                   AGUA ESTERIL USP SLN INY X 500 MLBIN     4
CC0000041757421H202100000025033800000025033825/10/20211042    31903016237421964250000E1BA0100000198890000000000000                                                                   AGUA ESTERIL USP SLN INY X 500 MLBIN     4
CC0000003744464H202100000025033800000025033825/10/20211042    31903016237421964250000N1BA2400001195280000000000000                                                                    LIDOCAINA 2% S/E Sln Iny x 10 mlAMP     2
CC0001140825892H202100000025033800000025033825/10/20211042    31903016237421964250000N1BA2400001195280000000000000                                                                    LIDOCAINA 2% S/E Sln Iny x 10 mlAMP     2
CC0000041757421H202100000025033800000025033825/10/20211042    31903016237421964250000N1BA2400001195280000000000000                                                                    LIDOCAINA 2% S/E Sln Iny x 10 mlAMP     2
CC0000026688321H202100000025033800000025033825/10/20211042    31903016237421964250000N1BA2400001195280000000000000                                                                    LIDOCAINA 2% S/E Sln Iny x 10 mlAMP     2
CC0000003744464H202100000025033800000025033825/10/20211042    31903016237421964250000E1AB0200000199290000000000000                                                            SOLUCION SALINA 0.9% SLN INY BO X 100 MLBIN     1
CC0001140825892H202100000025033800000025033825/10/20211042    31903016237421964250000E1AB0200000199290000000000000                                                            SOLUCION SALINA 0.9% SLN INY BO X 100 MLBIN     1
CC0000041757421H202100000025033800000025033825/10/20211042    31903016237421964250000E1AB0200000199290000000000000                                                            SOLUCION SALINA 0.9% SLN INY BO X 100 MLBIN     1
CC0000026688321H202100000025033800000025033825/10/20211042    31903016237421964250000E1AB0200000199290000000000000                                                            SOLUCION SALINA 0.9% SLN INY BO X 100 MLBIN     1
