RC0001048089919U202100050131357600050131357625/10/20210404    3190317523942196432000038568200000257000000000000000                                                                                   SONDA NELATON #06SIN     1
RC0001048089919U202100050131357600050131357625/10/20210404    3190317523942196432000043485100001618510000000000000                GUANTE QUIRURGICO DE LATEX REF 2D72N65X CAJ X 50 PROTEXIS  6.5 BN EXENTO-DC.417/2020SOB     1
RC0001048089919U202100050131357600050131357625/10/20210404    3190317523942196432000013077800000471960000000000000                                                             GASA NO TEJIDA EST 7.5 X 7.5 SOB X 3 UNSOB     3
RC0001048089919U202100050131357600050131357625/10/20210404    31903175239421964320000E1AB0200000199290000000000000                                                            SOLUCION SALINA 0.9% SLN INY BO X 100 MLBIN     1
