CC0001140819726U202100050131371900050131371925/10/20212349    3190233123942196432000011048600000223020000000000000                                                                 JERINGA VACUNACION 3ML C/AGU 302542SIN     1
CC0001140819726U202100050131371900050131371925/10/20212349    3190233123942196432000024673600000222980000000000000                                                                     JERINGA DESECHABLE 5 ml 27*11/2SIN     1
CC0000008816805U202100050131371900050131371925/10/20212349    3190233123942196432000024673600000222980000000000000                                                                     JERINGA DESECHABLE 5 ml 27*11/2SIN     1
