RC0001187466818H202100015122507000015122507025/10/20211932    3150045323742196425000021017400000227520000000000000                                                            KIT CAT BILUMEN PED CS14402E  4FR X 13CMSIN     1
TI0001073826213H202100015122507000015122507025/10/20211932    3150045323742196425000024674000000220660000000000000                             JERINGA A 3 PARTES CON AGUJA  SOB X 1 RYMCO  10ML BN EXENTO-DC.417/2020SIN    10
RC0001063188067H202100015122507000015122507025/10/20211932    3150045323742196425000024674000000220660000000000000                             JERINGA A 3 PARTES CON AGUJA  SOB X 1 RYMCO  10ML BN EXENTO-DC.417/2020SIN    10
RC0001187466818H202100015122507000015122507025/10/20211932    3150045323742196425000024674000000220660000000000000                             JERINGA A 3 PARTES CON AGUJA  SOB X 1 RYMCO  10ML BN EXENTO-DC.417/2020SIN    10
RC0001158467183H202100015122507000015122507025/10/20211932    3150045323742196425000024674000000220660000000000000                             JERINGA A 3 PARTES CON AGUJA  SOB X 1 RYMCO  10ML BN EXENTO-DC.417/2020SIN    10
RC0001146543698H202100015122507000015122507025/10/20211932    3150045323742196425000024674000000220660000000000000                             JERINGA A 3 PARTES CON AGUJA  SOB X 1 RYMCO  10ML BN EXENTO-DC.417/2020SIN    10
TI0001080436271H202100015122507000015122507025/10/20211932    3150045323742196425000024674000000220660000000000000                             JERINGA A 3 PARTES CON AGUJA  SOB X 1 RYMCO  10ML BN EXENTO-DC.417/2020SIN    10
TI0001046701779H202100015122507000015122507025/10/20211932    3150045323742196425000024674000000220660000000000000                             JERINGA A 3 PARTES CON AGUJA  SOB X 1 RYMCO  10ML BN EXENTO-DC.417/2020SIN    10
RC0001043714288H202100015122507000015122507025/10/20211932    3150045323742196425000024674000000220660000000000000                             JERINGA A 3 PARTES CON AGUJA  SOB X 1 RYMCO  10ML BN EXENTO-DC.417/2020SIN    10
TI0001047044339H202100015122507000015122507025/10/20211932    3150045323742196425000024674000000220660000000000000                             JERINGA A 3 PARTES CON AGUJA  SOB X 1 RYMCO  10ML BN EXENTO-DC.417/2020SIN    10
TI0001073826213H202100015122507000015122507025/10/20211932    3150045323742196425000000602600001259280000000000000                                                             APOSITO TEGADERM IV PD 1610 5CM X 5.7CMSOB     2
RC0001063188067H202100015122507000015122507025/10/20211932    3150045323742196425000000602600001259280000000000000                                                             APOSITO TEGADERM IV PD 1610 5CM X 5.7CMSOB     2
RC0001187466818H202100015122507000015122507025/10/20211932    3150045323742196425000000602600001259280000000000000                                                             APOSITO TEGADERM IV PD 1610 5CM X 5.7CMSOB     2
RC0001158467183H202100015122507000015122507025/10/20211932    3150045323742196425000000602600001259280000000000000                                                             APOSITO TEGADERM IV PD 1610 5CM X 5.7CMSOB     1
RC0001146543698H202100015122507000015122507025/10/20211932    3150045323742196425000000602600001259280000000000000                                                             APOSITO TEGADERM IV PD 1610 5CM X 5.7CMSOB     1
TI0001080436271H202100015122507000015122507025/10/20211932    3150045323742196425000000602600001259280000000000000                                                             APOSITO TEGADERM IV PD 1610 5CM X 5.7CMSOB     1
TI0001046701779H202100015122507000015122507025/10/20211932    3150045323742196425000000602600001259280000000000000                                                             APOSITO TEGADERM IV PD 1610 5CM X 5.7CMSOB     1
RC0001043714288H202100015122507000015122507025/10/20211932    3150045323742196425000000602600001259280000000000000                                                             APOSITO TEGADERM IV PD 1610 5CM X 5.7CMSOB     1
TI0001047044339H202100015122507000015122507025/10/20211932    3150045323742196425000000602600001259280000000000000                                                             APOSITO TEGADERM IV PD 1610 5CM X 5.7CMSOB     1
TI0001047044339H202100015122507000015122507025/10/20211932    31500453237421964250000E1AD0300000199490000000000000                                         LACTATO RINGER USP (HARTMANN)  SOL INY  BOL X 1000ML BAXTERBIN    10
