RC0001048091909H202100913284102500913284102525/10/20210851    3190330923742196425000011137100001419310000000000000                                                               TIRA GLUCOMETRIA FREESTYLE H OPTIUM .PZA     1
RC0001048091909H202100913284102500913284102525/10/20210851    3190330923742196425000013077800000471960000000000000                                                             GASA NO TEJIDA EST 7.5 X 7.5 SOB X 3 UNSOB     2
RC0001048091909H202100913284102500913284102525/10/20210851    3190330923742196425000035356500003919000000000000000                                                                                        LLAVE 3 VIASSOB     2
RC0001048091909H202100913284102500913284102525/10/20210851    3190330923742196425000042743200003929860000000000000                   GASA ADHESIVA STRETCH REF 02038-00 ROL X 10MT FIXOMULL 15CM BN EXENTO-DC.417/2020CMT    15
RC0001048091909H202100913284102500913284102525/10/20210851    3190330923742196425000045136100001419300000000000000                                                                            LANCETA DEXTROMETER X UNPZA     1
