RC0001043198450H202100015132501200015132501225/10/20211046    3190330923742196425000043485100001618510000000000000                GUANTE QUIRURGICO DE LATEX REF 2D72N65X CAJ X 50 PROTEXIS  6.5 BN EXENTO-DC.417/2020SOB     4
RC0001043198450H202100015132501200015132501225/10/20211046    3190330923742196425000011085100001082120000000000000                                                                           GUANTE QUIRURGICO TALLA 7SOB     4
RC0001043198450H202100015132501200015132501225/10/20211046    3190330923742196425000013077800000471960000000000000                                                             GASA NO TEJIDA EST 7.5 X 7.5 SOB X 3 UNSOB     8
RC0001043198450H202100015132501200015132501225/10/20211046    3190330923742196425000000301100000299670000000000000                                                            CAT EPICUTAN VENA CAVA 2F 24G*30 2184-00SIN     1
RC0001043198450H202100015132501200015132501225/10/20211046    3190330923742196425000000602600001259280000000000000                                                             APOSITO TEGADERM IV PD 1610 5CM X 5.7CMSOB     1
