CC0000022549015A202100000027615800000027615825/10/20211729    3190333624042196419000011084100000314970000000000000                                                                  EXTRACTOR DE GRAPAS CODIGO JNJ PSXBOL     1
CC0000022549015A202100000027615800000027615825/10/20211729    3190333624042196419000014581900000529900000000000000                                                            GRAPADORA CON GRAPAS PIEL 35W 8886803712PZA     1
CC0000022549015A202100000027615800000027615825/10/20211729    31903336240421964190000B02AA100001407470000000000000                                                                    CLINTRANEX SLN INY 500 MG / 5 MLAMP     2
CC0000022549015A202100000027615800000027615825/10/20211729    3190333624042196419000038569400000256750000000000000                                                                        SONDA ASPIRACION CONTROL #14SIN     1
CC0000022549015A202100000027615800000027615825/10/20211729    3190333624042196419000031010900000762730000000000000                                                                          CANULA GUEDEL # 4 (100 MM)SOB     1
CC0000022549015A202100000027615800000027615825/10/20211729    3190333624042196419000011099300000777780000000000000                                                                     FILTRO BACTERIANO VIRICO ADULTOBOL     1
CC0000022549015A202100000027615800000027615825/10/20211729    3190333624042196419000039175000001072050000000000000                                                                           TUBO ENDOTRAQUEAL C/B 7.0SOB     1
CC0000022549015A202100000027615800000027615825/10/20211729    3190333624042196419000049428500000738570000000000000                                                                       VENDA ELASTICA 6*5 NO ESTERILSOB     1
CC0000022549015A202100000027615800000027615825/10/20211729    31903336240421964190000E1BA0100000198890000000000000                                                                   AGUA ESTERIL USP SLN INY X 500 MLBIN     1
CC0000022549015A202100000027615800000027615825/10/20211729    3190333624042196419000011082600000265810000000000000                                                              EQUIPO IRRIGACION URINARIA REF MRC4002SOB     1
CC0000022549015A202100000027615800000027615825/10/20211729    3190333624042196419000000501500001259410000000000000                                                              STRATAFIX 1 PDS CT-1 SXPD2B403 30*30CMSOB     1
CC0000022549015A202100000027615800000027615825/10/20211729    3190333624042196419000042462700003929830000000000000                                                STOQUINETA ORTOPEDICA TUBULAR ROL X 25MT WINER 6PULGCMT     1
CC0000022549015A202100000027615800000027615825/10/20211729    3190333624042196419000044370800000224140000000000000                                                                                IOBAN 2 90 X 45 6650SIN     1
CC0000022549015A202100000027615800000027615825/10/20211729    3190333624042196419000018630000000358130000000000000                                                                   DURAPREP Sln YODO APLICADOR 26 MLFCO     1
CC0000022549015A202100000027615800000027615825/10/20211729    3190333624042196419000045138000001413890000000000000                                                                       LAPIZ ELECTROBISTURI  SOB X 1SOB     1
CC0000022549015A202100000027615800000027615825/10/20211729    3190333624042196419000030161400001459220000000000000                                                                       MANGUERA SUCCION 6 MM*3.1 MTSSOB     1
CC0000022549015A202100000027615800000027615825/10/20211729    3190333624042196419000049428400000738560000000000000                                                                       VENDA ELASTICA 5*5 NO ESTERILSOB     2
CC0000022549015A202100000027615800000027615825/10/20211729    3190333624042196419000049419800001679910000000000000                                                                        VENDA ALGODON 6*5 NO ESTERILSOB     2
CC0000022549015A202100000027615800000027615825/10/20211729    3190333624042196419000043879400001138170000000000000                                                                  HOJA BISTURI # 10 CSSB 10 01002000SOB     2
CC0000022549015A202100000027615800000027615825/10/20211729    3190333624042196419000043879500001138210000000000000                                                                                    HOJA BISTURI #20SOB     1
CC0000022549015A202100000027615800000027615825/10/20211729    3190333624042196419000022425200000548240000000000000                       EXTENSION DE ANESTESIA REF 1139 SOB X 1 SHERLEG  ADULTO BN EXENTO-DC.417/2020SIN     1
CC0000022549015A202100000027615800000027615825/10/20211729    3190333624042196419000035356500003919000000000000000                                                                                        LLAVE 3 VIASSOB     2
CC0000022549015A202100000027615800000027615825/10/20211729    31903336240421964190000Q1AA7100000610620000000000000                                                            CATETER PERIFE INTROCAN # 18G 4251687-04SIN     1
CC0000022549015A202100000027615800000027615825/10/20211729    3190333624042196419000022426800001140510000000000000                                                                    EQUIPO MACROGOTEO BAXTER MRC0001SOB     1
CC0000022549015A202100000027615800000027615825/10/20211729    3190333624042196419000016830000000970620000000000000                                                             SIST FIJACION CAT PERIFERICO 6.5X7 1683SOB     1
CC0000022549015A202100000027615800000027615825/10/20211729    31903336240421964190000J01DA300001239950000000000000                                                            CEFAZOLINA SODICA POLVO LIOF SLN INY 1 GVAL     3
CC0000022549015A202100000027615800000027615825/10/20211729    3190333624042196419000011073300001096420000000000000                                                                BOLSA DE SUCCION DE FLUIDOS x 2500mLBOL     1
CC0000022549015A202100000027615800000027615825/10/20211729    3190333624042196419000020750600000296780000000000000                                                                PLACA ELECTRO RETORNO PACIENTE E7506SIN     1
CC0000022549015A202100000027615800000027615825/10/20211729    3190333624042196419000011082700001620070000000000000                                                               EQUIPO SET PRIMARIO C/CLAVE REF 14001BOL     1
CC0000022549015A202100000027615800000027615825/10/20211729    3190333624042196419000053074400000607910000000000000                                                               GASA ESTERIL 10*10 SOBRE X 3 UNIDADESSOB     6
CC0000022549015A202100000027615800000027615825/10/20211729    3190333624042196419000011047900000223010000000000000                                                                            JERINGA X 1ML REF 302579SIN     1
CC0000022549015A202100000027615800000027615825/10/20211729    3190333624042196419000024673000001411210000000000000                                                                  JERINGA DESECHABLE 3 ML 21 X 1 1/2SOB     1
CC0000022549015A202100000027615800000027615825/10/20211729    3190333624042196419000024674000000220660000000000000                             JERINGA A 3 PARTES CON AGUJA  SOB X 1 RYMCO  10ML BN EXENTO-DC.417/2020SIN     6
CC0000022549015A202100000027615800000027615825/10/20211729    3190333624042196419000011085400001083360000000000000                                                                       GUANTE QUIRURGICO TALLA 8 1/2SOB     2
CC0000022549015A202100000027615800000027615825/10/20211729    3190333624042196419000011085300001082140000000000000                                                                           GUANTE QUIRURGICO TALLA 8SOB     9
CC0000022549015A202100000027615800000027615825/10/20211729    3190333624042196419000011085200001585390000000000000                                                                       GUANTE QUIRURGICO TALLA 7 1/2SOB     2
CC0000022549015A202100000027615800000027615825/10/20211729    3190333624042196419000011085100001082120000000000000                                                                           GUANTE QUIRURGICO TALLA 7SOB     3
CC0000022549015A202100000027615800000027615825/10/20211729    3190333624042196419000043485100001618510000000000000                GUANTE QUIRURGICO DE LATEX REF 2D72N65X CAJ X 50 PROTEXIS  6.5 BN EXENTO-DC.417/2020SOB     1
CC0000022549015A202100000027615800000027615825/10/20211729    3190333624042196419000038568100000258050000000000000                                                                         CANULA OXIGENO NASAL ADULTOSIN     1
CC0000022549015A202100000027615800000027615825/10/20211729    3190333624042196419000020060000000225230000000000000                                                               AGUJA SPINOCAN 27G X 3 1/2 PU 4503902SIN     1
CC0000022549015A202100000027615800000027615825/10/20211729    3190333624042196419000000100600000223090000000000000                                                                      AGUJA DESECHABLE 18G X 1 1/2 PSIN     1
CC0000022549015A202100000027615800000027615825/10/20211729    31903336240421964190000E1AB0500003888400000000000000                                                              SOLUCION SALINA 0.9% SLN INY X 1000 MLBOL     2
CC0000022549015A202100000027615800000027615825/10/20211729    31903336240421964190000E1AB0300003888390000000000000                                                            SOLUCION SALINA 0.9% SLN INY BO X 500 MLBOL     4
CC0000022549015A202100000027615800000027615825/10/20211729    31903336240421964190000E1AB0200000199290000000000000                                                            SOLUCION SALINA 0.9% SLN INY BO X 100 MLBIN     1
CC0000022549015A202100000027615800000027615825/10/20211729    31903336240421964190000N02B1100001169680000000000000                              PARACETAMOL 1000MG/100ML(10MG/ML) SOL INY  VIAL X 100ML FRESENIUS KABIVAL     1
CC0000022549015A202100000027615800000027615825/10/20211729    31903336240421964190000A4AD0200000202990000000000000                                                                     PLITICAN HCL Sln Iny 50 mg/2 mlAMP     1
CC0000022549015A202100000027615800000027615825/10/20211729    31903336240421964190000A2BC0900000200150000000000000                                                                               ORAZOLE Sln Iny 40 mgCIN     1
CC0000022549015A202100000027615800000027615825/10/20211729    31903336240421964190000N2BB1100000217160000000000000                                                                      NOVALGINA Sln Iny 2.5 g x 5 mlAMP     1
CC0000022549015A202100000027615800000027615825/10/20211729    31903336240421964190000M1AX0200001569410000000000000                                                                         KETRON SLN INY 30 MG / 2 MLAMP     1
CC0000022549015A202100000027615800000027615825/10/20211729    31903336240421964190000H02AB500001664950000000000000                                                            DEXAMETASONA SLN INY 8 MG/2 ML AMP /CDS/AMP     1
CC0000022549015A202100000027615800000027615825/10/20211729    31903336240421964190000C01C0300001261020000000000000                                                               ETILEFRINA HCL SLN INY 10 MG/1 ML /R/AMP     2
CC0000022549015A202100000027615800000027615825/10/20211729    31903336240421964190000N1BA0500000647360000000000000                                                                  BUPIROP 0.5% PESADO SLN INY X 4 MLAPC     1
CC0000022549015A202100000027615800000027615825/10/20211729    31903336240421964190000N01B1600003888910000000000000                                             BUPIROP SE S/P 50MG/10ML(5MG/ML) SOL INY CAJ X 24AMPACKAPC     1
CC0000022549015A202100000027615800000027615825/10/20211729    31903336240421964190000N01B1200000220020000000000000                                                                        ROXICAINA 1% C/E Iny x 20 mlFCO     1
CC0000022549015A202100000027615800000027615825/10/20211729    31903336240421964190000N2AA0100000301640000000000000                                                                            MORFINA Sln Iny 10 mg/mlAMP     1
