CC0000077185534H202100000554923100000554923125/10/20211715    31900995237421964250000E1AB0200000199290000000000000                                                            SOLUCION SALINA 0.9% SLN INY BO X 100 MLBIN    10
CC0000077185534H202100000554923100000554923125/10/20211917    31900995237421964250000E1AB0500003888400000000000000                                                              SOLUCION SALINA 0.9% SLN INY X 1000 MLBOL     1
CC0000077185534H202100000554923100000554923125/10/20210142    31901360237421964250000E1AD0300000199490000000000000                                         LACTATO RINGER USP (HARTMANN)  SOL INY  BOL X 1000ML BAXTERBIN     2
CC0000077185534H202100000554923100000554923125/10/20211434     3300009237421964250000C01DA100000176460000000000000                                                            NITROGLICERINA EN DEXTROSA VIAL X 250 MLFCO     1
CC0000077185534H202100000554923100000554923125/10/20211708     3300009237421964250000C09CA400001277130000000000000                                                                                  LOSARTAN TAB 50 MGTAB     1
CC0000077185534H202100000554923100000554923125/10/20211049     3300009237421964250000C09CA400001277130000000000000                                                                                  LOSARTAN TAB 50 MGTAB     1
CC0000077185534H202100000554923100000554923125/10/20210124     3300009237421964250000C09CA400001277130000000000000                                                                                  LOSARTAN TAB 50 MGTAB     2
CC0000077185534H202100000554923100000554923125/10/20211601     3300009237421964250000N2AA0100000301640000000000000                                                                            MORFINA Sln Iny 10 mg/mlAMP     1
CC0000077185534H202100000554923100000554923125/10/20210543     3300009237421964250000N2AA0100000301640000000000000                                                                            MORFINA Sln Iny 10 mg/mlAMP     1
CC0000077185534H202100000554923100000554923125/10/20211049     3300009237421964250000A02B0800001276960000000000000                                                                                 OMEPRAZOL CAP 20 MGCAP     1
CC0000077185534H202100000554923100000554923125/10/20210124     3300009237421964250000A02B0800001276960000000000000                                                                                 OMEPRAZOL CAP 20 MGCAP     1
CC0000077185534H202100000554923100000554923125/10/20211708     3300009237421964250000B01AC200001333600000000000000                                                                               CLOPIDOGREL TAB 75 MGTAB     1
CC0000077185534H202100000554923100000554923125/10/20210124     3300009237421964250000B01AC200001333600000000000000                                                                               CLOPIDOGREL TAB 75 MGTAB     1
CC0000077185534H202100000554923100000554923125/10/20211049     3300009237421964250000B01AB400000513360000000000000                                                                        CLENOX SLN INY 60 MG/ 0.6 MLJRP     1
CC0000077185534H202100000554923100000554923125/10/20210124     3300009237421964250000B01AB400000513360000000000000                                                                        CLENOX SLN INY 60 MG/ 0.6 MLJRP     2
CC0000077185534H202100000554923100000554923125/10/20211049     3300009237421964250000C7AB0100001276990000000000000                                                                            BETOPROLOL TAB 50 MG /R/TAB     1
CC0000077185534H202100000554923100000554923125/10/20210124     3300009237421964250000C7AB0100001276990000000000000                                                                            BETOPROLOL TAB 50 MG /R/TAB     1
CC0000077185534H202100000554923100000554923125/10/20210124     3300009237421964250000C08CA300001313930000000000000                                                                                AMLODIPINO TAB 10 MGTAB     2
CC0000077185534H202100000554923100000554923125/10/20211708     3300009237421964250000N02BA100001276940000000000000                                                                  ACIDO ACETIL SALIC?LICO TAB 100 MGTAB     1
CC0000077185534H202100000554923100000554923125/10/20210124     3300009237421964250000N02BA100001276940000000000000                                                                  ACIDO ACETIL SALIC?LICO TAB 100 MGTAB     1
CC0000077185534H202100000554923100000554923125/10/20211715    31900995237421964250000V07A1300000502600000000000000                                                                                AGUA ESTERIL x 10 mlAMP     5
