RC0001041699033U202100050131358700050131358725/10/20210738    3190118123942196432000024674000000220660000000000000                             JERINGA A 3 PARTES CON AGUJA  SOB X 1 RYMCO  10ML BN EXENTO-DC.417/2020SIN     1
RC0001041699033U202100050131358700050131358725/10/20210738    3190118123942196432000011082700001620070000000000000                                                               EQUIPO SET PRIMARIO C/CLAVE REF 14001BOL     1
RC0001041699033U202100050131358700050131358725/10/20210738    3190118123942196432000001956000001620610000000000000                                                                      CONECTOR MICRO CLAVE LAT-MC100SOB     1
RC0001041699033U202100050131358700050131358725/10/20210738    31901181239421964320000Q1AA7300000610640000000000000                                                            CATETER PERIFE INTROCAN # 22G 4251628-04SIN     1
RC0001041699033U202100050131358700050131358725/10/20210738    3190118123942196432000030936900001431840000000000000                                                                                              BURETABOL     1
RC0001041699033U202100050131358700050131358725/10/20210738    3190118123942196432000016830000000970620000000000000                                                             SIST FIJACION CAT PERIFERICO 6.5X7 1683SOB     1
RC0001041699033U202100050131358700050131358725/10/20210738    31901181239421964320000E1AB0500003888400000000000000                                                              SOLUCION SALINA 0.9% SLN INY X 1000 MLBOL     1
