CC0000040786622H202100015052694700015052694725/10/20211913    3190306223742196425000022426800001140510000000000000                                                                    EQUIPO MACROGOTEO BAXTER MRC0001SOB     1
CC0001143227023H202100015052694700015052694725/10/20211913    3190306223742196425000011082700001620070000000000000                                                               EQUIPO SET PRIMARIO C/CLAVE REF 14001BOL     1
CC0000012549690H202100015052694700015052694725/10/20211913    3190306223742196425000011082700001620070000000000000                                                               EQUIPO SET PRIMARIO C/CLAVE REF 14001BOL     1
CC0001143227023H202100015052694700015052694725/10/20211913    3190306223742196425000030936900001431840000000000000                                                                                              BURETABOL     1
CC0000012549690H202100015052694700015052694725/10/20211913    3190306223742196425000030936900001431840000000000000                                                                                              BURETABOL     1
CC0000008697210H202100015052694700015052694725/10/20211913    31903062237421964250000E1AB0300003888390000000000000                                                            SOLUCION SALINA 0.9% SLN INY BO X 500 MLBOL     1
CC0000008697210H202100015052694700015052694725/10/20211913    31903062237421964250000E1AA0100003888590000000000000                                                                        DEXTROSA 5% Sln Iny X 500 mlBOL     1
