CC0000012549690H202100015052695000015052695025/10/20212012    3190229123742196425000049428400000738560000000000000                                                                       VENDA ELASTICA 5*5 NO ESTERILSOB     1
CC0000012549690H202100015052695000015052695025/10/20212012    3190229123742196425000049419700001679920000000000000                                                                        VENDA ALGODON 5*5 NO ESTERILSOB     1
CC0000022844625H202100015052695000015052695025/10/20212012    3190229123742196425000043485100001618510000000000000                GUANTE QUIRURGICO DE LATEX REF 2D72N65X CAJ X 50 PROTEXIS  6.5 BN EXENTO-DC.417/2020SOB     1
CC0001047479947H202100015052695000015052695025/10/20212012    3190229123742196425000043485100001618510000000000000                GUANTE QUIRURGICO DE LATEX REF 2D72N65X CAJ X 50 PROTEXIS  6.5 BN EXENTO-DC.417/2020SOB     1
CC0001129508481H202100015052695000015052695025/10/20212012    3190229123742196425000043485100001618510000000000000                GUANTE QUIRURGICO DE LATEX REF 2D72N65X CAJ X 50 PROTEXIS  6.5 BN EXENTO-DC.417/2020SOB     1
TI0001052089280H202100015052695000015052695025/10/20212012    3190229123742196425000043485100001618510000000000000                GUANTE QUIRURGICO DE LATEX REF 2D72N65X CAJ X 50 PROTEXIS  6.5 BN EXENTO-DC.417/2020SOB     1
CC0001143227023H202100015052695000015052695025/10/20212012    3190229123742196425000043485100001618510000000000000                GUANTE QUIRURGICO DE LATEX REF 2D72N65X CAJ X 50 PROTEXIS  6.5 BN EXENTO-DC.417/2020SOB     1
CC0000012549690H202100015052695000015052695025/10/20212012    3190229123742196425000043485100001618510000000000000                GUANTE QUIRURGICO DE LATEX REF 2D72N65X CAJ X 50 PROTEXIS  6.5 BN EXENTO-DC.417/2020SOB     1
CC0000022844625H202100015052695000015052695025/10/20212012    3190229123742196425000013077800000471960000000000000                                                             GASA NO TEJIDA EST 7.5 X 7.5 SOB X 3 UNSOB     5
CC0001047479947H202100015052695000015052695025/10/20212012    3190229123742196425000013077800000471960000000000000                                                             GASA NO TEJIDA EST 7.5 X 7.5 SOB X 3 UNSOB     5
CC0001129508481H202100015052695000015052695025/10/20212012    3190229123742196425000013077800000471960000000000000                                                             GASA NO TEJIDA EST 7.5 X 7.5 SOB X 3 UNSOB     5
CC0001143227023H202100015052695000015052695025/10/20212012    3190229123742196425000013077800000471960000000000000                                                             GASA NO TEJIDA EST 7.5 X 7.5 SOB X 3 UNSOB     8
CC0000012549690H202100015052695000015052695025/10/20212012    3190229123742196425000013077800000471960000000000000                                                             GASA NO TEJIDA EST 7.5 X 7.5 SOB X 3 UNSOB    10
CC0000022844625H202100015052695000015052695025/10/20212012    3190229123742196425000042743200003929860000000000000                   GASA ADHESIVA STRETCH REF 02038-00 ROL X 10MT FIXOMULL 15CM BN EXENTO-DC.417/2020CMT    40
CC0001047479947H202100015052695000015052695025/10/20212012    3190229123742196425000042743200003929860000000000000                   GASA ADHESIVA STRETCH REF 02038-00 ROL X 10MT FIXOMULL 15CM BN EXENTO-DC.417/2020CMT    40
CC0001129508481H202100015052695000015052695025/10/20212012    3190229123742196425000042743200003929860000000000000                   GASA ADHESIVA STRETCH REF 02038-00 ROL X 10MT FIXOMULL 15CM BN EXENTO-DC.417/2020CMT    30
CC0001143227023H202100015052695000015052695025/10/20212012    3190229123742196425000042743200003929860000000000000                   GASA ADHESIVA STRETCH REF 02038-00 ROL X 10MT FIXOMULL 15CM BN EXENTO-DC.417/2020CMT    60
