RC0001146540735U202100050131364200050131364225/10/20211435    3190296823942196432000024674000000220660000000000000                             JERINGA A 3 PARTES CON AGUJA  SOB X 1 RYMCO  10ML BN EXENTO-DC.417/2020SIN     2
RC0001146540735U202100050131364200050131364225/10/20211435    3190296823942196432000043995200000229010000000000000                                                               HUMIDIFICADOR PARA OXIGENO REF. H001BBOL     1
RC0001146540735U202100050131364200050131364225/10/20211435    31902968239421964320000E1AC0100000199400000000000000                                                                          SUERO MIXTO Sln Iny 500 mlBIN     1
