CC0000055163818H202100015112643200015112643225/10/20211141    31500555237421964250000V07A1300000502600000000000000                                                                                AGUA ESTERIL x 10 mlAMP     5
CC0000008753953H202100015112643200015112643225/10/20211141    31500555237421964250000V07A1300000502600000000000000                                                                                AGUA ESTERIL x 10 mlAMP     5
CC0000007469257H202100015112643200015112643225/10/20211141    31500555237421964250000V07A1300000502600000000000000                                                                                AGUA ESTERIL x 10 mlAMP     5
CC0000008753953H202100015112643200015112643225/10/20211141    3150055523742196425000038570100001124990000000000000                                                                              SONDA FOLEY #18 2 VIASSOB     1
CC0000008753953H202100015112643200015112643225/10/20211141    3150055523742196425000035356500003919000000000000000                                                                                        LLAVE 3 VIASSOB     2
CC0000055163818H202100015112643200015112643225/10/20211141    3150055523742196425000045136100001419300000000000000                                                                            LANCETA DEXTROMETER X UNPZA     3
CC0000008753953H202100015112643200015112643225/10/20211141    3150055523742196425000045136100001419300000000000000                                                                            LANCETA DEXTROMETER X UNPZA     4
CC0000007469257H202100015112643200015112643225/10/20211141    3150055523742196425000045136100001419300000000000000                                                                            LANCETA DEXTROMETER X UNPZA     3
CC0000008753953H202100015112643200015112643225/10/20211141    3150055523742196425000011051900000226360000000000000                                                               KIT TRANSDUCTOR SENCILLO S/VAMP PX260SOB     1
CC0000055163818H202100015112643200015112643225/10/20211141    3150055523742196425000024674000000220660000000000000                             JERINGA A 3 PARTES CON AGUJA  SOB X 1 RYMCO  10ML BN EXENTO-DC.417/2020SIN    10
CC0000008753953H202100015112643200015112643225/10/20211141    3150055523742196425000024674000000220660000000000000                             JERINGA A 3 PARTES CON AGUJA  SOB X 1 RYMCO  10ML BN EXENTO-DC.417/2020SIN    15
CC0000007469257H202100015112643200015112643225/10/20211141    3150055523742196425000024674000000220660000000000000                             JERINGA A 3 PARTES CON AGUJA  SOB X 1 RYMCO  10ML BN EXENTO-DC.417/2020SIN    10
CC0000055163818H202100015112643200015112643225/10/20211141    31500555237421964250000Q1A13500001585200000000000000                        JERINGA PUNTA CAT SIN AGUJA REF 309620 CAJ X 40   50ML BN EXENTO-DC.417/2020SOB     1
CC0000008753953H202100015112643200015112643225/10/20211141    31500555237421964250000Q1A13500001585200000000000000                        JERINGA PUNTA CAT SIN AGUJA REF 309620 CAJ X 40   50ML BN EXENTO-DC.417/2020SOB     1
CC0000008753953H202100015112643200015112643225/10/20211141    3150055523742196425000043485100001618510000000000000                GUANTE QUIRURGICO DE LATEX REF 2D72N65X CAJ X 50 PROTEXIS  6.5 BN EXENTO-DC.417/2020SOB     3
CC0000008753953H202100015112643200015112643225/10/20211141    3150055523742196425000011085100001082120000000000000                                                                           GUANTE QUIRURGICO TALLA 7SOB     2
CC0000008753953H202100015112643200015112643225/10/20211141    3150055523742196425000011085200001585390000000000000                                                                       GUANTE QUIRURGICO TALLA 7 1/2SOB     2
CC0000008753953H202100015112643200015112643225/10/20211141    3150055523742196425000013077800000471960000000000000                                                             GASA NO TEJIDA EST 7.5 X 7.5 SOB X 3 UNSOB    10
CC0000008753953H202100015112643200015112643225/10/20211141    3150055523742196425000022426800001140510000000000000                                                                    EQUIPO MACROGOTEO BAXTER MRC0001SOB     1
CC0000008753953H202100015112643200015112643225/10/20211141    3150055523742196425000011082700001620070000000000000                                                               EQUIPO SET PRIMARIO C/CLAVE REF 14001BOL     2
CC0000008753953H202100015112643200015112643225/10/20211141    3150055523742196425000031188000000236790000000000000                                                                                     CISTOFLO ADULTOSIN     2
CC0000008753953H202100015112643200015112643225/10/20211141    31500555237421964250000Q1A11500000331560000000000000                                                                     CATETER RADIAL #20 REF. 115.090SIN     1
CC0000055163818H202100015112643200015112643225/10/20211141    31500555237421964250000E1AD0300000199490000000000000                                         LACTATO RINGER USP (HARTMANN)  SOL INY  BOL X 1000ML BAXTERBIN     2
CC0000008753953H202100015112643200015112643225/10/20211141    31500555237421964250000E1AD0300000199490000000000000                                         LACTATO RINGER USP (HARTMANN)  SOL INY  BOL X 1000ML BAXTERBIN     2
CC0000008753953H202100015112643200015112643225/10/20211141    31500555237421964250000E1AB0500003888400000000000000                                                              SOLUCION SALINA 0.9% SLN INY X 1000 MLBOL     2
CC0000008753953H202100015112643200015112643225/10/20211141    31500555237421964250000E1AB0300003888390000000000000                                                            SOLUCION SALINA 0.9% SLN INY BO X 500 MLBOL     1
CC0000007469257H202100015112643200015112643225/10/20211141    31500555237421964250000E1AB0300003888390000000000000                                                            SOLUCION SALINA 0.9% SLN INY BO X 500 MLBOL     1
CC0000055163818H202100015112643200015112643225/10/20211141    31500555237421964250000E1AB0200000199290000000000000                                                            SOLUCION SALINA 0.9% SLN INY BO X 100 MLBIN     5
CC0000007469257H202100015112643200015112643225/10/20211141    31500555237421964250000E1AB0200000199290000000000000                                                            SOLUCION SALINA 0.9% SLN INY BO X 100 MLBIN     5
CC0000008753953H202100015112643200015112643225/10/20211141    31500555237421964250000E1AB0200000199290000000000000                                                            SOLUCION SALINA 0.9% SLN INY BO X 100 MLBIN    10
CC0000055163818H202100015112643200015112643225/10/20211141    3150055523742196425000011137100001419310000000000000                                                               TIRA GLUCOMETRIA FREESTYLE H OPTIUM .PZA     3
CC0000008753953H202100015112643200015112643225/10/20211141    3150055523742196425000011137100001419310000000000000                                                               TIRA GLUCOMETRIA FREESTYLE H OPTIUM .PZA     4
CC0000007469257H202100015112643200015112643225/10/20211141    3150055523742196425000011137100001419310000000000000                                                               TIRA GLUCOMETRIA FREESTYLE H OPTIUM .PZA     3
