CC0001143151880H202100015052692900015052692925/10/20210941    3190278823742196425000022426800001140510000000000000                                                                    EQUIPO MACROGOTEO BAXTER MRC0001SOB     1
CC0001143151880H202100015052692900015052692925/10/20210941    3190278823742196425000011082700001620070000000000000                                                               EQUIPO SET PRIMARIO C/CLAVE REF 14001BOL     1
CC0001143151880H202100015052692900015052692925/10/20210941    3190278823742196425000030936900001431840000000000000                                                                                              BURETABOL     1
