RC0001053013307H202100911773102500911773102525/10/20210851    3190330923742196425000011137100001419310000000000000                                                               TIRA GLUCOMETRIA FREESTYLE H OPTIUM .PZA     1
RC0001053013307H202100911773102500911773102525/10/20210851    3190330923742196425000013077800000471960000000000000                                                             GASA NO TEJIDA EST 7.5 X 7.5 SOB X 3 UNSOB     2
RC0001053013307H202100911773102500911773102525/10/20210851    3190330923742196425000024674000000220660000000000000                             JERINGA A 3 PARTES CON AGUJA  SOB X 1 RYMCO  10ML BN EXENTO-DC.417/2020SIN     2
RC0001053013307H202100911773102500911773102525/10/20210851    3190330923742196425000045136100001419300000000000000                                                                            LANCETA DEXTROMETER X UNPZA     1
