CC0001129508481H202100015052693600015052693625/10/20211431    3190093223742196425000001956000001620610000000000000                                                                      CONECTOR MICRO CLAVE LAT-MC100SOB     1
CC0001129508481H202100015052693600015052693625/10/20211431    31900932237421964250000Q1AA7200000610630000000000000                                                            CATETER PERIFE INTROCAN # 20G 4251644-04SIN     1
CC0001129508481H202100015052693600015052693625/10/20211431    3190093223742196425000016830000000970620000000000000                                                             SIST FIJACION CAT PERIFERICO 6.5X7 1683SOB     1
CC0001129508481H202100015052693600015052693625/10/20211431    31900932237421964250000E1AD0200003888320000000000000                                                                              HARTMAN SLN INY 500 MLBOL     1
CC0000022416968H202100015052693600015052693625/10/20211431    31900932237421964250000E1AD0200003888320000000000000                                                                              HARTMAN SLN INY 500 MLBOL     1
