CC0000000162131U202100050131366300050131366325/10/20211724    3190233723942196432000024674000000220660000000000000                             JERINGA A 3 PARTES CON AGUJA  SOB X 1 RYMCO  10ML BN EXENTO-DC.417/2020SIN     5
CC0000000162131U202100050131366300050131366325/10/20211724    3190233723942196432000011082700001620070000000000000                                                               EQUIPO SET PRIMARIO C/CLAVE REF 14001BOL     1
CC0000000162131U202100050131366300050131366325/10/20211724    3190233723942196432000030936900001431840000000000000                                                                                              BURETABOL     1
CC0000000162131U202100050131366300050131366325/10/20211724    31902337239421964320000E1AB0500003888400000000000000                                                              SOLUCION SALINA 0.9% SLN INY X 1000 MLBOL     1
