CC0000008761530H202100015112644100015112644125/10/20211840    3150007223742196425000011082900001233450000000000000                                                               EQUIPO LC 5000 PRIMARIO FOTOPRO 0L218SOB     1
CC0000008761530H202100015112644100015112644125/10/20211840    3150007223742196425000011082700001620070000000000000                                                               EQUIPO SET PRIMARIO C/CLAVE REF 14001BOL     2
CC0000008761530H202100015112644100015112644125/10/20211840    3150007223742196425000001956000001620610000000000000                                                                      CONECTOR MICRO CLAVE LAT-MC100SOB     3
CC0000008761530H202100015112644100015112644125/10/20211840    31500072237421964250000E1AB0300003888390000000000000                                                            SOLUCION SALINA 0.9% SLN INY BO X 500 MLBOL     3
