TI0001082997584H202100915201102500915201102525/10/20211514    31901634237421964250000E1AB1100003888280000000000000                                                                        SOLUCION SALINA 0.9% X 50 mlBOL     1
TI0001082997584H202100915201102500915201102525/10/20211541    31901634237421964250000E1AA0100003888590000000000000                                                                        DEXTROSA 5% Sln Iny X 500 mlBOL     2
TI0001082997584H202100915201102500915201102525/10/20212039    3190114723742196425000013077800000471960000000000000                                                             GASA NO TEJIDA EST 7.5 X 7.5 SOB X 3 UNSOB     3
TI0001082997584H202100915201102500915201102525/10/20212039    3190114723742196425000042753100003929850000000000000                   GASA ADHESIVA STRETCH REF 02037-00 ROL X 10MT FIXOMULL 10CM BN EXENTO-DC.417/2020CMT    10
