CC0001143250996H202100000554925200000554925225/10/20210719     3300009237421964250000A02BC100001677520000000000000                                                                ESOMEPRAZOL POLVO LIOF INY 40 MG /R/VAL     1
CC0001143250996H202100000554925200000554925225/10/20211534     3300010237421964250000A6AB0200001278260000000000000                                                                                  DULCOLAX Grag 5 mgGRA     2
CC0001143250996H202100000554925200000554925225/10/20210719     3300009237421964250000B1AB0200003939510000000000000                 ENOXAPARINA SODICA 40MG/0.4ML(100MG/ML) SOL INY INST CAJ X 2JERPREL X 0.4ML TECHDOWJRP     1
CC0001143250996H202100000554925200000554925225/10/20211750    31902653237421964250000E1AB1100003888280000000000000                                                                        SOLUCION SALINA 0.9% X 50 mlBOL     1
CC0001143250996H202100000554925200000554925225/10/20211837    31902653237421964250000E1AB0300003888390000000000000                                                            SOLUCION SALINA 0.9% SLN INY BO X 500 MLBOL     1
CC0001143250996H202100000554925200000554925225/10/20211519     3300010237421964250000J01DA300001239950000000000000                                                            CEFAZOLINA SODICA POLVO LIOF SLN INY 1 GVAL     1
CC0001143250996H202100000554925200000554925225/10/20210718     3300009237421964250000J01DA300001239950000000000000                                                            CEFAZOLINA SODICA POLVO LIOF SLN INY 1 GVAL     3
CC0001143250996H202100000554925200000554925225/10/20211519     3300010237421964250000N2AX0400001204140000000000000                                                                             TRAMAL Sln Iny 50 mg/mlAMP     1
CC0001143250996H202100000554925200000554925225/10/20210719     3300009237421964250000N2AX0400001204140000000000000                                                                             TRAMAL Sln Iny 50 mg/mlAMP     3
CC0001143250996H202100000554925200000554925225/10/20211519     3300010237421964250000N2BB1100000217160000000000000                                                                      NOVALGINA Sln Iny 2.5 g x 5 mlAMP     2
CC0001143250996H202100000554925200000554925225/10/20210719     3300009237421964250000N2BB1100000217160000000000000                                                                      NOVALGINA Sln Iny 2.5 g x 5 mlAMP     3
CC0001143250996H202100000554925200000554925225/10/20211210    31903303237421964250000V07A1300000502600000000000000                                                                                AGUA ESTERIL x 10 mlAMP     5
