CC0000008753953H202100015112643100015112643125/10/20211138    3150010723742196425000038573100000256880000000000000                                                                                 SONDA NSG LEVIN #18SIN     1
CC0000008753953H202100015112643100015112643125/10/20211138    3150010723742196425000035356500003919000000000000000                                                                                        LLAVE 3 VIASSOB     1
CC0000008753953H202100015112643100015112643125/10/20211138    3150010723742196425000024674500000322810000000000000                                                                   JERINGA DESECHABLE 20 ml 21*1 1/2SIN     5
CC0000008753953H202100015112643100015112643125/10/20211138    3150010723742196425000024674000000220660000000000000                             JERINGA A 3 PARTES CON AGUJA  SOB X 1 RYMCO  10ML BN EXENTO-DC.417/2020SIN     5
CC0000008753953H202100015112643100015112643125/10/20211138    3150010723742196425000013077800000471960000000000000                                                             GASA NO TEJIDA EST 7.5 X 7.5 SOB X 3 UNSOB     5
CC0000008753953H202100015112643100015112643125/10/20211138    3150010723742196425000011082900001233450000000000000                                                               EQUIPO LC 5000 PRIMARIO FOTOPRO 0L218SOB     1
CC0000008753953H202100015112643100015112643125/10/20211138    3150010723742196425000011082700001620070000000000000                                                               EQUIPO SET PRIMARIO C/CLAVE REF 14001BOL     1
