CC0000008753953H202100015112643900015112643925/10/20211758    3150055523742196425000018351500000232840000000000000                                                                                    SEDA 2-0 KS 623HSIN     1
CC0000008753953H202100015112643900015112643925/10/20211758    3150055523742196425000011085300001082140000000000000                                                                           GUANTE QUIRURGICO TALLA 8SOB     2
CC0000008753953H202100015112643900015112643925/10/20211758    3150055523742196425000011085200001585390000000000000                                                                       GUANTE QUIRURGICO TALLA 7 1/2SOB     2
CC0000008753953H202100015112643900015112643925/10/20211758    3150055523742196425000001956000001620610000000000000                                                                      CONECTOR MICRO CLAVE LAT-MC100SOB     1
CC0000008753953H202100015112643900015112643925/10/20211758    31500555237421964250000Q1AA7200000610630000000000000                                                            CATETER PERIFE INTROCAN # 20G 4251644-04SIN     1
