CC0001047338850U202100050131365300050131365325/10/20211547    3190201023942196432000024674000000220660000000000000                             JERINGA A 3 PARTES CON AGUJA  SOB X 1 RYMCO  10ML BN EXENTO-DC.417/2020SIN     3
CC0001047338850U202100050131365300050131365325/10/20211547    31902010239421964320000Q1AA7000001097160000000000000                                                            CATETER PERIFE INTROCAN # 16G 4251709-04SOB     1
CC0001047338850U202100050131365300050131365325/10/20211547    3190201023942196432000022426800001140510000000000000                                                                    EQUIPO MACROGOTEO BAXTER MRC0001SOB     1
CC0001047338850U202100050131365300050131365325/10/20211547    3190201023942196432000030936900001431840000000000000                                                                                              BURETABOL     1
CC0001047338850U202100050131365300050131365325/10/20211547    3190201023942196432000016830000000970620000000000000                                                             SIST FIJACION CAT PERIFERICO 6.5X7 1683SOB     1
CC0001047338850U202100050131365300050131365325/10/20211547    31902010239421964320000E1AD0300000199490000000000000                                         LACTATO RINGER USP (HARTMANN)  SOL INY  BOL X 1000ML BAXTERBIN     2
