CC0000051622521H202100000554920500000554920525/10/20210525     3300009237421964250000N07B0100001337250000000000000                                                                BUPROPION TAB.150mg WELLBUTRIN XL/R/TAB     1
CC0000051622521H202100000554920500000554920525/10/20210229     3300009237421964250000S2BA0100000468160000000000000                                                                          SOLU-CORTEF SNL INY 100 MGVAL     1
CC0000051622521H202100000554920500000554920525/10/20210001     3300009237421964250000S2BA0100000468160000000000000                                                                          SOLU-CORTEF SNL INY 100 MGVAL     1
CC0000051622521H202100000554920500000554920525/10/20210525     3300009237421964250000A02B0500001335110000000000000                                                                                LOSEC MUPS Tab 20 mgTAB     1
CC0000051622521H202100000554920500000554920525/10/20211245     3300009237421964250000B1AB0200003939510000000000000                 ENOXAPARINA SODICA 40MG/0.4ML(100MG/ML) SOL INY INST CAJ X 2JERPREL X 0.4ML TECHDOWJRP     1
CC0000051622521H202100000554920500000554920525/10/20210525     3300009237421964250000B1AB0900003939260000000000000                 ENOXAPARINA SODICA 60MG/0.6ML(100MG/ML) SOL INY INST CAJ X 2JERPREL X 0.6ML TECHDOWJRP     3
CC0000051622521H202100000554920500000554920525/10/20211455    31902409237421964250000E1AB0500003888400000000000000                                                              SOLUCION SALINA 0.9% SLN INY X 1000 MLBOL     2
CC0000051622521H202100000554920500000554920525/10/20210525     3300009237421964250000H03AA400001315380000000000000                                                                               SYNTHROID TAB 100 MCGTAB     2
CC0000051622521H202100000554920500000554920525/10/20211245     3300009237421964250000J01FF200003888100000000000000                                                                             EUROCLIN SLN INY 600 MGAMP     1
CC0000051622521H202100000554920500000554920525/10/20210525     3300009237421964250000J01FF200003888100000000000000                                                                             EUROCLIN SLN INY 600 MGAMP     2
CC0000051622521H202100000554920500000554920525/10/20210525     3300009237421964250000N05AH400001447710000000000000                                                                              PROLANZ FAST TAB 10 MGTAB     1
CC0000051622521H202100000554920500000554920525/10/20210525     3300009237421964250000N06A0300001304010000000000000                                                                               REMERON Tab 30 mg /R/TAB     1
CC0000051622521H202100000554920500000554920525/10/20211245     3300009237421964250000V06D1400000968430000000000000                                                                              JEVITY iquido x 500 mlFCO     1
CC0000051622521H202100000554920500000554920525/10/20210525     3300009237421964250000V06D1400000968430000000000000                                                                              JEVITY iquido x 500 mlFCO     1
CC0000051622521H202100000554920500000554920525/10/20211119    31903290237421964250000V07A1300000502600000000000000                                                                                AGUA ESTERIL x 10 mlAMP     5
