CC0000044205440H202100913598102500913598102525/10/20211602    3150027623742196425000016830000000970620000000000000                                                             SIST FIJACION CAT PERIFERICO 6.5X7 1683SOB     1
CC0000044205440H202100913598102500913598102525/10/20211602    3150027623742196425000001956000001620610000000000000                                                                      CONECTOR MICRO CLAVE LAT-MC100SOB     1
CC0000044205440H202100913598102500913598102525/10/20211602    31500276237421964250000Q1AA7200000610630000000000000                                                            CATETER PERIFE INTROCAN # 20G 4251644-04SIN     1
