CC0000040786622H202100015052694100015052694125/10/20211625    3190115423742196425000013077800000471960000000000000                                                             GASA NO TEJIDA EST 7.5 X 7.5 SOB X 3 UNSOB    10
CC0000040786622H202100015052694100015052694125/10/20211625    3190115423742196425000042753100003929850000000000000                   GASA ADHESIVA STRETCH REF 02037-00 ROL X 10MT FIXOMULL 10CM BN EXENTO-DC.417/2020CMT    80
CC0000040786622H202100015052694100015052694125/10/20211625    3190115423742196425000001633100001166650000000000000                                                                            CUTIMED SORBACT 7 X 9 CMSOB     1
CC0000040786622H202100015052694100015052694125/10/20211625    3190115423742196425000042743400003929880000000000000                                    CINTA ADHESIVA TRANSPARENT REF 72216-01 ROL X 10MT FIXOMULL 10CMCMT    80
CC0000040786622H202100015052694100015052694125/10/20211625    3190115423742196425000020056600001101530000000000000                                                                AGUJA HIPODERMICA DESECH 18G X 1 1/2SOB     1
CC0000040786622H202100015052694100015052694125/10/20211625    31901154237421964250000E1AB0200000199290000000000000                                                            SOLUCION SALINA 0.9% SLN INY BO X 100 MLBIN     1
