CC0000044205440H202100015012564000015012564025/10/20211549    3150027623742196425000001956000001620610000000000000                                                                      CONECTOR MICRO CLAVE LAT-MC100SOB     1
CC0000044205440H202100015012564000015012564025/10/20211549    31500276237421964250000Q1AA7200000610630000000000000                                                            CATETER PERIFE INTROCAN # 20G 4251644-04SIN     1
CC0000044205440H202100015012564000015012564025/10/20211549    3150027623742196425000016830000000970620000000000000                                                             SIST FIJACION CAT PERIFERICO 6.5X7 1683SOB     1
RC0001236888030H202100015012564000015012564025/10/20211549    31500276237421964250000E1AC0100000199400000000000000                                                                          SUERO MIXTO Sln Iny 500 mlBIN     1
