CC0001140889693U202100000554953900000554953925/10/20211743    31903158239421964320000E1AD0300000199490000000000000                                         LACTATO RINGER USP (HARTMANN)  SOL INY  BOL X 1000ML BAXTERBIN     1
CC0001140889693U202100000554953900000554953925/10/20211740     3300004239421964320000A3BB0300000512950000000000000                                                             BUSCAPINA COMP Sln Iny 20 mg+2.5 g/5 mlAMP     1
CC0001140889693U202100000554953900000554953925/10/20211740     3300004239421964320000N2AA0100000301640000000000000                                                                            MORFINA Sln Iny 10 mg/mlAMP     1
