RC0001220469205H202100000554927300000554927325/10/20210515    31500533237421964250000E1AA0800000322190000000000000                                                                          DEXTROSA 5% Sln Iny 250 mlBIN     2
RC0001220469205H202100000554927300000554927325/10/20210510     3300009237421964250000J1DA3100000187510000000000000                                                                           ROCEFIN Polvo SLN INY 1 GCIN     1
RC0001220469205H202100000554927300000554927325/10/20211131     3300010237421964250000J01XA400001212420000000000000                                                               VANCOMICINA POLVO LIOF SLN INY 500 MGVAL     1
RC0001220469205H202100000554927300000554927325/10/20210510     3300009237421964250000N02B1100001169680000000000000                              PARACETAMOL 1000MG/100ML(10MG/ML) SOL INY  VIAL X 100ML FRESENIUS KABIVAL     1
RC0001220469205H202100000554927300000554927325/10/20211720     3300010237421964250000N5BB0100001458430000000000000                                                                    HIDERAX Jbe 25 mg/10 ml x 120 mlFCO     1
RC0001220469205H202100000554927300000554927325/10/20210510     3300009237421964250000N5BB0100001458430000000000000                                                                    HIDERAX Jbe 25 mg/10 ml x 120 mlFCO     1
RC0001220469205H202100000554927300000554927325/10/20211043    31903331237421964250000V07A1300000502600000000000000                                                                                AGUA ESTERIL x 10 mlAMP    10
