CC0001045685077H202100914156102500914156102525/10/20211514    31901634237421964250000E1AB1100003888280000000000000                                                                        SOLUCION SALINA 0.9% X 50 mlBOL     1
CC0001045685077H202100914156102500914156102525/10/20211806    3190115423742196425000011069000000212140000000000000                                                                      VASELINA QUIMIBEN POTE X 500 GTAR     1
CC0001045685077H202100914156102500914156102525/10/20211806    3190115423742196425000013077800000471960000000000000                                                             GASA NO TEJIDA EST 7.5 X 7.5 SOB X 3 UNSOB    10
CC0001045685077H202100914156102500914156102525/10/20211806    3190115423742196425000020056600001101530000000000000                                                                AGUJA HIPODERMICA DESECH 18G X 1 1/2SOB     1
CC0001045685077H202100914156102500914156102525/10/20211806    3190115423742196425000040511700000258570000000000000                                                              APOSITO BACTIGRAS REF 7457 10CM X 10CMSIN     3
CC0001045685077H202100914156102500914156102525/10/20211806    3190115423742196425000043485100001618510000000000000                GUANTE QUIRURGICO DE LATEX REF 2D72N65X CAJ X 50 PROTEXIS  6.5 BN EXENTO-DC.417/2020SOB     2
CC0001045685077H202100914156102500914156102525/10/20211806    3190115423742196425000049419600001679900000000000000                                                                        VENDA ALGODON 4*5 NO ESTERILSOB     2
CC0001045685077H202100914156102500914156102525/10/20211806    3190115423742196425000049428300000860750000000000000                                                                       VENDA ELASTICA 4*5 NO ESTERILBOL     3
CC0001045685077H202100914156102500914156102525/10/20211806    31901154237421964250000E1AB0700003888350000000000000                                                            SOLUCION SALINA 0.9% SLN INY BO X 250 MLBOL     1
CC0001045685077H202100914156102500914156102525/10/20211810    31901634237421964250000E1AB0300003888390000000000000                                                            SOLUCION SALINA 0.9% SLN INY BO X 500 MLBOL     1
