CC0000008753953H202100015112643500015112643525/10/20211459    3150057323742196425000030161400001459220000000000000                                                                       MANGUERA SUCCION 6 MM*3.1 MTSSOB     1
CC0000008753953H202100015112643500015112643525/10/20211459    3150057323742196425000022108000003906060000000000000                                                            SIST CERRAD ASPIRAC TRACH  22108-5 14 FRSOB     1
CC0001045684571H202100015112643500015112643525/10/20211459    3150057323742196425000036441300000236540000000000000                                                                    JERINGA 1 ML GASES ARTERIAL 9023SIN     4
CC0000022467890H202100015112643500015112643525/10/20211459    3150057323742196425000036441300000236540000000000000                                                                    JERINGA 1 ML GASES ARTERIAL 9023SIN     4
CC0000072428894H202100015112643500015112643525/10/20211459    3150057323742196425000036441300000236540000000000000                                                                    JERINGA 1 ML GASES ARTERIAL 9023SIN     4
CC0000008753953H202100015112643500015112643525/10/20211459    3150057323742196425000036441300000236540000000000000                                                                    JERINGA 1 ML GASES ARTERIAL 9023SIN     4
CC0001045684571H202100015112643500015112643525/10/20211459    3150057323742196425000013077800000471960000000000000                                                             GASA NO TEJIDA EST 7.5 X 7.5 SOB X 3 UNSOB     4
CC0000022467890H202100015112643500015112643525/10/20211459    3150057323742196425000013077800000471960000000000000                                                             GASA NO TEJIDA EST 7.5 X 7.5 SOB X 3 UNSOB     4
CC0000008753953H202100015112643500015112643525/10/20211459    3150057323742196425000013077800000471960000000000000                                                             GASA NO TEJIDA EST 7.5 X 7.5 SOB X 3 UNSOB     4
CC0000008753953H202100015112643500015112643525/10/20211459    3150057323742196425000020816000001096410000000000000                                                                          LINER PARED DELGADA 1500CCBOL     1
