RC0001187466818H202100015122506500015122506525/10/20211417    3150056823742196425000018354100000232880000000000000                                                                  SUTURA SEDA NEGRA 3-0 KS 75CM 622HSIN     2
RC0001187466818H202100015122506500015122506525/10/20211417    3150056823742196425000043879200001138180000000000000                                                                                   HOJA BISTURI # 11SOB     2
RC0001187466818H202100015122506500015122506525/10/20211417    3150056823742196425000043879400001138170000000000000                                                                  HOJA BISTURI # 10 CSSB 10 01002000SOB     1
RC0001187466818H202100015122506500015122506525/10/20211417    3150056823742196425000043485100001618510000000000000                GUANTE QUIRURGICO DE LATEX REF 2D72N65X CAJ X 50 PROTEXIS  6.5 BN EXENTO-DC.417/2020SOB     4
RC0001187466818H202100015122506500015122506525/10/20211417    3150056823742196425000023486400001318040000000000000                                                               GUANTE CIRUGIA NITRILO ALFASAFE 6 1/2SOB     4
RC0001187466818H202100015122506500015122506525/10/20211417    3150056823742196425000011085100001082120000000000000                                                                           GUANTE QUIRURGICO TALLA 7SOB     2
RC0001187466818H202100015122506500015122506525/10/20211417    3150056823742196425000013077800000471960000000000000                                                             GASA NO TEJIDA EST 7.5 X 7.5 SOB X 3 UNSOB    10
RC0001187466818H202100015122506500015122506525/10/20211417    3150056823742196425000022426800001140510000000000000                                                                    EQUIPO MACROGOTEO BAXTER MRC0001SOB     2
RC0001187466818H202100015122506500015122506525/10/20211417    3150056823742196425000000004000001108900000000000000                                                                            TROCAR 10F X 8 CM 625.10SOB     1
RC0001187466818H202100015122506500015122506525/10/20211417    3150056823742196425000030936900001431840000000000000                                                                                              BURETABOL     2
