CC0000005746549U202100000554927100000554927125/10/20210601    31500177239421964320000E1AB0200000199290000000000000                                                            SOLUCION SALINA 0.9% SLN INY BO X 100 MLBIN     1
CC0000005746549U202100000554927100000554927125/10/20211547    31902010239421964320000E1AB0500003888400000000000000                                                              SOLUCION SALINA 0.9% SLN INY X 1000 MLBOL     1
CC0000005746549U202100000554927100000554927125/10/20211131    31901453239421964320000E1AB0500003888400000000000000                                                              SOLUCION SALINA 0.9% SLN INY X 1000 MLBOL     1
CC0000005746549U202100000554927100000554927125/10/20210851    31901005239421964320000E1AB0500003888400000000000000                                                              SOLUCION SALINA 0.9% SLN INY X 1000 MLBOL     1
CC0000005746549U202100000554927100000554927125/10/20210753     3300004239421964320000A03BB100003889180000000000000                                      HIOSCINA BUTIL BROMURO 20MG/ML SOL INY CAJ X 100AMP X 1ML RYANAMP     1
CC0000005746549U202100000554927100000554927125/10/20210520     3300004239421964320000N2BB0100000787510000000000000                                                                    DIPIRONA SODICA Sln Iny 1 g/2 mlAMP     1
CC0000005746549U202100000554927100000554927125/10/20210753     3300004239421964320000N2AX0900001672040000000000000                                                                              TRAMADOL SLN INY 50 MGAMP     1
