CC0001045685077H202100000554925300000554925325/10/20210720     3300009237421964250000A2BC0900000200150000000000000                                                                               ORAZOLE Sln Iny 40 mgCIN     1
CC0001045685077H202100000554925300000554925325/10/20210720     3300009237421964250000B1AB0200003939510000000000000                 ENOXAPARINA SODICA 40MG/0.4ML(100MG/ML) SOL INY INST CAJ X 2JERPREL X 0.4ML TECHDOWJRP     1
CC0001045685077H202100000554925300000554925325/10/20211751    31902653237421964250000E1AB1100003888280000000000000                                                                        SOLUCION SALINA 0.9% X 50 mlBOL     1
CC0001045685077H202100000554925300000554925325/10/20211837    31902653237421964250000E1AB0700003888350000000000000                                                            SOLUCION SALINA 0.9% SLN INY BO X 250 MLBOL     1
CC0001045685077H202100000554925300000554925325/10/20211837    31902653237421964250000E1AB0300003888390000000000000                                                            SOLUCION SALINA 0.9% SLN INY BO X 500 MLBOL     1
CC0001045685077H202100000554925300000554925325/10/20211520     3300010237421964250000J01DB300000553200000000000000                                                                         CEFALOTINA SLN INY 1 G VIALVAL     1
CC0001045685077H202100000554925300000554925325/10/20210719     3300009237421964250000J01DB300000553200000000000000                                                                         CEFALOTINA SLN INY 1 G VIALVAL     3
CC0001045685077H202100000554925300000554925325/10/20210720     3300009237421964250000N2AX0400001204140000000000000                                                                             TRAMAL Sln Iny 50 mg/mlAMP     3
CC0001045685077H202100000554925300000554925325/10/20211520     3300010237421964250000N2BB1100000217160000000000000                                                                      NOVALGINA Sln Iny 2.5 g x 5 mlAMP     1
CC0001045685077H202100000554925300000554925325/10/20210719     3300009237421964250000N2BB1100000217160000000000000                                                                      NOVALGINA Sln Iny 2.5 g x 5 mlAMP     2
CC0001045685077H202100000554925300000554925325/10/20211210    31903303237421964250000V07A1300000502600000000000000                                                                                AGUA ESTERIL x 10 mlAMP     5
