TI0001046701779H202100015122505900015122505925/10/20210112    3190296023742196425000011082700001620070000000000000                                                               EQUIPO SET PRIMARIO C/CLAVE REF 14001BOL     1
TI0001046701779H202100015122505900015122505925/10/20210112    3190296023742196425000011082200001407940000000000000                                                              EQUIPO EXT MICROTUBO Y 2 VALVUL 2N8371SOB     1
TI0001046701779H202100015122505900015122505925/10/20210112    3190296023742196425000030936900001431840000000000000                                                                                              BURETABOL     2
TI0001046701779H202100015122505900015122505925/10/20210112    31902960237421964250000E1AD0300000199490000000000000                                         LACTATO RINGER USP (HARTMANN)  SOL INY  BOL X 1000ML BAXTERBIN     4
