RC0001043709109H202100000554935900000554935925/10/20212015    31903294237421964250000E1AC0100000199400000000000000                                                                          SUERO MIXTO Sln Iny 500 mlBIN     1
RC0001043709109H202100000554935900000554935925/10/20211744     3300010237421964250000H02A0100001664960000000000000                                                                        DEXAMETASONA SLN INY 4 MG/MLAMP     1
RC0001043709109H202100000554935900000554935925/10/20211744     3300010237421964250000L1BC8000003907750000000000000                                           CITARABINA 500MG/5ML(100MG/ML) SOL INY VIAL X 5ML ROPSOHNVAL     1
RC0001043709109H202100000554935900000554935925/10/20211744     3300010237421964250000L1BC2400001045890000000000000                                                                METOTREXATE SLN INY 50 MG / 2 ML /R/VAL     1
RC0001043709109H202100000554935900000554935925/10/20211759     3300009237421964250000V6DB0800001286840000000000000                                                                          PEDIASURE LIQUIDO X 237 MLFCO     1
RC0001043709109H202100000554935900000554935925/10/20210845     3300010237421964250000V6DB0800001286840000000000000                                                                          PEDIASURE LIQUIDO X 237 MLFCO     1
RC0001043709109H202100000554935900000554935925/10/20212015    31903294237421964250000V07A1300000502600000000000000                                                                                AGUA ESTERIL x 10 mlAMP     5
RC0001043709109H202100000554935900000554935925/10/20211405    31500107237421964250000V07A1300000502600000000000000                                                                                AGUA ESTERIL x 10 mlAMP     5
RC0001043709109H202100000554935900000554935925/10/20211759     3300009237421964250000A04AA200003932460000000000000                                                 ONDAX 4MG/2ML(2MG/ML) SOL INY INST CAJ X 1AMP X 2MLAMP     1
RC0001043709109H202100000554935900000554935925/10/20210845     3300010237421964250000A04AA200003932460000000000000                                                 ONDAX 4MG/2ML(2MG/ML) SOL INY INST CAJ X 1AMP X 2MLAMP     2
