CC0000093407512U202100050131356700050131356725/10/20210035    3190100323942196432000001956000001620610000000000000                                                                      CONECTOR MICRO CLAVE LAT-MC100SOB     1
CC0000093407512U202100050131356700050131356725/10/20210035    31901003239421964320000Q1AA7100000610620000000000000                                                            CATETER PERIFE INTROCAN # 18G 4251687-04SIN     1
CC0000093407512U202100050131356700050131356725/10/20210035    3190100323942196432000016830000000970620000000000000                                                             SIST FIJACION CAT PERIFERICO 6.5X7 1683SOB     1
