CC0001143269433H202100015052693400015052693425/10/20211343    3190118923742196425000011082700001620070000000000000                                                               EQUIPO SET PRIMARIO C/CLAVE REF 14001BOL     1
CC0001143269433H202100015052693400015052693425/10/20211343    3190118923742196425000030936900001431840000000000000                                                                                              BURETABOL     1
CC0001143269433H202100015052693400015052693425/10/20211343    31901189237421964250000E1AB0300003888390000000000000                                                            SOLUCION SALINA 0.9% SLN INY BO X 500 MLBOL     2
CC0000022405998H202100015052693400015052693425/10/20211343    31901189237421964250000E1AB0300003888390000000000000                                                            SOLUCION SALINA 0.9% SLN INY BO X 500 MLBOL     2
CC0001045739587H202100015052693400015052693425/10/20211343    31901189237421964250000E1AB0300003888390000000000000                                                            SOLUCION SALINA 0.9% SLN INY BO X 500 MLBOL     1
