CC0000012549690H202100000554926500000554926525/10/20210736     3300009237421964250000B1AB0200003939510000000000000                 ENOXAPARINA SODICA 40MG/0.4ML(100MG/ML) SOL INY INST CAJ X 2JERPREL X 0.4ML TECHDOWJRP     1
CC0000012549690H202100000554926500000554926525/10/20211047    31903300237421964250000E1AB0700003888350000000000000                                                            SOLUCION SALINA 0.9% SLN INY BO X 250 MLBOL     4
CC0000012549690H202100000554926500000554926525/10/20211737    31500502237421964250000E1AB0300003888390000000000000                                                            SOLUCION SALINA 0.9% SLN INY BO X 500 MLBOL     1
CC0000012549690H202100000554926500000554926525/10/20210736     3300009237421964250000C09CA400001277130000000000000                                                                                  LOSARTAN TAB 50 MGTAB     2
CC0000012549690H202100000554926500000554926525/10/20210736     3300009237421964250000J01XA400001212420000000000000                                                               VANCOMICINA POLVO LIOF SLN INY 500 MGVAL     2
CC0000012549690H202100000554926500000554926525/10/20210414     3300009237421964250000J01XA400001212420000000000000                                                               VANCOMICINA POLVO LIOF SLN INY 500 MGVAL     2
CC0000012549690H202100000554926500000554926525/10/20211316     3300009237421964250000N2AX1200001071490000000000000                                                                             TRAMADOL SLN INY 100 MGAMP     1
CC0000012549690H202100000554926500000554926525/10/20210736     3300009237421964250000N2AX1200001071490000000000000                                                                             TRAMADOL SLN INY 100 MGAMP     2
CC0000012549690H202100000554926500000554926525/10/20210736     3300009237421964250000C08CA200001277660000000000000                                                                                 AMLODIPINO TAB 5 MGTAB     1
CC0000012549690H202100000554926500000554926525/10/20211637     3300009237421964250000J01F0200001689390000000000000                                                                        CLINDAMICINA INY 600 MG/4 MLAMP     1
CC0000012549690H202100000554926500000554926525/10/20211316     3300009237421964250000J01F0200001689390000000000000                                                                        CLINDAMICINA INY 600 MG/4 MLAMP     3
CC0000012549690H202100000554926500000554926525/10/20210736     3300009237421964250000J01F0200001689390000000000000                                                                        CLINDAMICINA INY 600 MG/4 MLAMP     3
CC0000012549690H202100000554926500000554926525/10/20210736     3300009237421964250000N2BB0100000787510000000000000                                                                    DIPIRONA SODICA Sln Iny 1 g/2 mlAMP     1
