CC0000032605816H202100000554940400000554940425/10/20211122    31902788237421964250000A03BB100003889180000000000000                                      HIOSCINA BUTIL BROMURO 20MG/ML SOL INY CAJ X 100AMP X 1ML RYANAMP     4
CC0000032605816H202100000554940400000554940425/10/20211122    31902788237421964250000J01DH500001414350000000000000                                                                ERTAPENEM POLVO LIOF SLN INY 1 G /R/VAL     1
CC0000032605816H202100000554940400000554940425/10/20211122    31902788237421964250000N2BB0100000787510000000000000                                                                    DIPIRONA SODICA Sln Iny 1 g/2 mlAMP     2
CC0000032605816H202100000554940400000554940425/10/20211122    31902788237421964250000P01AB400001278110000000000000                                                                             METRONIDAZOL TAB 500 MGTAB     4
