CC0001132234000U202100050131367000050131367025/10/20211820    3190101023942196432000011082700001620070000000000000                                                               EQUIPO SET PRIMARIO C/CLAVE REF 14001BOL     1
CC0001132234000U202100050131367000050131367025/10/20211820    31901010239421964320000Q1AA7200000610630000000000000                                                            CATETER PERIFE INTROCAN # 20G 4251644-04SIN     1
CC0001132234000U202100050131367000050131367025/10/20211820    3190101023942196432000016830000000970620000000000000                                                             SIST FIJACION CAT PERIFERICO 6.5X7 1683SOB     1
CC0001132234000U202100050131367000050131367025/10/20211820    31901010239421964320000E1AB0500003888400000000000000                                                              SOLUCION SALINA 0.9% SLN INY X 1000 MLBOL     1
