CC0001082842369A202100000027620000000027620025/10/20211926    3190333624042196419000001956000001620610000000000000                                                                      CONECTOR MICRO CLAVE LAT-MC100SOB     1
CC0001082842369A202100000027620000000027620025/10/20211926    3190333624042196419000049428300000860750000000000000                                                                       VENDA ELASTICA 4*5 NO ESTERILBOL     3
CC0001082842369A202100000027620000000027620025/10/20211926    3190333624042196419000019429800000455490000000000000                                                                                      VENDA YESO 5*5BIN     1
CC0001082842369A202100000027620000000027620025/10/20211926    3190333624042196419000019429700000427120000000000000                                                                                      VENDA YESO 4*5BIN     2
CC0001082842369A202100000027620000000027620025/10/20211926    3190333624042196419000000901800000598580000000000000                                                                     MASCARA LARINGEA REUSABLE No. 4SIN     1
CC0001082842369A202100000027620000000027620025/10/20211926    3190333624042196419000040511500000258400000000000000                                                               APOSITO BACTIGRAS REF 7456  5CM X 5CMSIN     3
CC0001082842369A202100000027620000000027620025/10/20211926    3190333624042196419000049419800001679910000000000000                                                                        VENDA ALGODON 6*5 NO ESTERILSOB     2
CC0001082842369A202100000027620000000027620025/10/20211926    31903336240421964190000E1AB0300003888390000000000000                                                            SOLUCION SALINA 0.9% SLN INY BO X 500 MLBOL     1
CC0001082842369A202100000027620000000027620025/10/20211926    3190333624042196419000022425200000548240000000000000                       EXTENSION DE ANESTESIA REF 1139 SOB X 1 SHERLEG  ADULTO BN EXENTO-DC.417/2020SIN     1
CC0001082842369A202100000027620000000027620025/10/20211926    3190333624042196419000035356500003919000000000000000                                                                                        LLAVE 3 VIASSOB     1
CC0001082842369A202100000027620000000027620025/10/20211926    31903336240421964190000Q1AA7100000610620000000000000                                                            CATETER PERIFE INTROCAN # 18G 4251687-04SIN     1
CC0001082842369A202100000027620000000027620025/10/20211926    3190333624042196419000022426800001140510000000000000                                                                    EQUIPO MACROGOTEO BAXTER MRC0001SOB     1
CC0001082842369A202100000027620000000027620025/10/20211926    3190333624042196419000016830000000970620000000000000                                                             SIST FIJACION CAT PERIFERICO 6.5X7 1683SOB     1
CC0001082842369A202100000027620000000027620025/10/20211926    31903336240421964190000J01DA300001239950000000000000                                                            CEFAZOLINA SODICA POLVO LIOF SLN INY 1 GVAL     2
CC0001082842369A202100000027620000000027620025/10/20211926    3190333624042196419000020750600000296780000000000000                                                                PLACA ELECTRO RETORNO PACIENTE E7506SIN     1
CC0001082842369A202100000027620000000027620025/10/20211926    3190333624042196419000053074400000607910000000000000                                                               GASA ESTERIL 10*10 SOBRE X 3 UNIDADESSOB     7
CC0001082842369A202100000027620000000027620025/10/20211926    3190333624042196419000024674000000220660000000000000                             JERINGA A 3 PARTES CON AGUJA  SOB X 1 RYMCO  10ML BN EXENTO-DC.417/2020SIN     3
CC0001082842369A202100000027620000000027620025/10/20211926    3190333624042196419000011085200001585390000000000000                                                                       GUANTE QUIRURGICO TALLA 7 1/2SOB     1
CC0001082842369A202100000027620000000027620025/10/20211926    3190333624042196419000043485100001618510000000000000                GUANTE QUIRURGICO DE LATEX REF 2D72N65X CAJ X 50 PROTEXIS  6.5 BN EXENTO-DC.417/2020SOB     1
CC0001082842369A202100000027620000000027620025/10/20211926    3190333624042196419000038568100000258050000000000000                                                                         CANULA OXIGENO NASAL ADULTOSIN     1
CC0001082842369A202100000027620000000027620025/10/20211926    31903336240421964190000E1AD0200003888320000000000000                                                                              HARTMAN SLN INY 500 MLBOL     1
CC0001082842369A202100000027620000000027620025/10/20211926    31903336240421964190000M01A0400001341250000000000000                                                                              DYNASTAT AMP 40 MG /R/VAL     1
CC0001082842369A202100000027620000000027620025/10/20211926    31903336240421964190000M1AX0200001569410000000000000                                                                         KETRON SLN INY 30 MG / 2 MLAMP     1
CC0001082842369A202100000027620000000027620025/10/20211926    31903336240421964190000N1AH0200003906560000000000000                                                                     FENTANIL Iny 0.05 mg/ml x 10 mlAMP     1
