CC0001140857089U202100050131370500050131370525/10/20212216    3150024623942196432000024674000000220660000000000000                             JERINGA A 3 PARTES CON AGUJA  SOB X 1 RYMCO  10ML BN EXENTO-DC.417/2020SIN     3
CC0001140857089U202100050131370500050131370525/10/20212216    3150024623942196432000011082700001620070000000000000                                                               EQUIPO SET PRIMARIO C/CLAVE REF 14001BOL     1
CC0000072008590U202100050131370500050131370525/10/20212216    31500246239421964320000Q1AA7100000610620000000000000                                                            CATETER PERIFE INTROCAN # 18G 4251687-04SIN     1
CC0001140857089U202100050131370500050131370525/10/20212216    31500246239421964320000Q1AA7200000610630000000000000                                                            CATETER PERIFE INTROCAN # 20G 4251644-04SIN     1
CC0001140857089U202100050131370500050131370525/10/20212216    3150024623942196432000030936900001431840000000000000                                                                                              BURETABOL     1
CC0001140857089U202100050131370500050131370525/10/20212216    3150024623942196432000016830000000970620000000000000                                                             SIST FIJACION CAT PERIFERICO 6.5X7 1683SOB     1
CC0001140857089U202100050131370500050131370525/10/20212216    31500246239421964320000E1AD0300000199490000000000000                                         LACTATO RINGER USP (HARTMANN)  SOL INY  BOL X 1000ML BAXTERBIN     1
CC0001140857089U202100050131370500050131370525/10/20212216    31500246239421964320000E1AD0200003888320000000000000                                                                              HARTMAN SLN INY 500 MLBOL     1
