RC0001146540793U202100000554922800000554922825/10/20210112     3300004239421964320000A2BC0900000200150000000000000                                                                               ORAZOLE Sln Iny 40 mgCIN     1
RC0001146540793U202100000554922800000554922825/10/20210112     3300004239421964320000A3BB0200000512940000000000000                                                                          BUSCAPINA SIMPLE Iny 20 mgAMP     1
RC0001146540793U202100000554922800000554922825/10/20210906     3300004239421964320000A07C0400000953120000000000000                                                            ENTEROLYTE SUERO ORAL 75 MEQ X 400ML /R/FCO     1
RC0001146540793U202100000554922800000554922825/10/20210510    31901003239421964320000E1AD0200003888320000000000000                                                                              HARTMAN SLN INY 500 MLBOL     1
RC0001146540793U202100000554922800000554922825/10/20210144    31500394239421964320000E1AD0300000199490000000000000                                         LACTATO RINGER USP (HARTMANN)  SOL INY  BOL X 1000ML BAXTERBIN     1
RC0001146540793U202100000554922800000554922825/10/20210307     3300004239421964320000A04AA200003932460000000000000                                                 ONDAX 4MG/2ML(2MG/ML) SOL INY INST CAJ X 1AMP X 2MLAMP     1
