CC0000022467890H202100015112643300015112643325/10/20211418    3190205623742196425000024675000001585130000000000000                                                                    JERINGA DESECHABLE 50 ml S/AGUJASOB     3
CC0000055163818H202100015112643300015112643325/10/20211418    3190205623742196425000024675000001585130000000000000                                                                    JERINGA DESECHABLE 50 ml S/AGUJASOB     3
CC0000008753953H202100015112643300015112643325/10/20211418    3190205623742196425000024675000001585130000000000000                                                                    JERINGA DESECHABLE 50 ml S/AGUJASOB     3
CC0000022467890H202100015112643300015112643325/10/20211418    3190205623742196425000024674500000322810000000000000                                                                   JERINGA DESECHABLE 20 ml 21*1 1/2SIN     3
CC0000055163818H202100015112643300015112643325/10/20211418    3190205623742196425000024674500000322810000000000000                                                                   JERINGA DESECHABLE 20 ml 21*1 1/2SIN     3
CC0000008753953H202100015112643300015112643325/10/20211418    3190205623742196425000024674500000322810000000000000                                                                   JERINGA DESECHABLE 20 ml 21*1 1/2SIN     3
CC0000022467890H202100015112643300015112643325/10/20211418    3190205623742196425000024674000000220660000000000000                             JERINGA A 3 PARTES CON AGUJA  SOB X 1 RYMCO  10ML BN EXENTO-DC.417/2020SIN     3
CC0000055163818H202100015112643300015112643325/10/20211418    3190205623742196425000024674000000220660000000000000                             JERINGA A 3 PARTES CON AGUJA  SOB X 1 RYMCO  10ML BN EXENTO-DC.417/2020SIN     3
CC0000008753953H202100015112643300015112643325/10/20211418    3190205623742196425000024674000000220660000000000000                             JERINGA A 3 PARTES CON AGUJA  SOB X 1 RYMCO  10ML BN EXENTO-DC.417/2020SIN     3
CC0000022467890H202100015112643300015112643325/10/20211418    3190205623742196425000011085400001083360000000000000                                                                       GUANTE QUIRURGICO TALLA 8 1/2SOB     2
CC0000055163818H202100015112643300015112643325/10/20211418    3190205623742196425000011085400001083360000000000000                                                                       GUANTE QUIRURGICO TALLA 8 1/2SOB     2
CC0000008753953H202100015112643300015112643325/10/20211418    3190205623742196425000011085400001083360000000000000                                                                       GUANTE QUIRURGICO TALLA 8 1/2SOB     2
CC0000022467890H202100015112643300015112643325/10/20211418    3190205623742196425000013077800000471960000000000000                                                             GASA NO TEJIDA EST 7.5 X 7.5 SOB X 3 UNSOB     4
CC0000055163818H202100015112643300015112643325/10/20211418    3190205623742196425000013077800000471960000000000000                                                             GASA NO TEJIDA EST 7.5 X 7.5 SOB X 3 UNSOB     4
CC0000008753953H202100015112643300015112643325/10/20211418    3190205623742196425000013077800000471960000000000000                                                             GASA NO TEJIDA EST 7.5 X 7.5 SOB X 3 UNSOB     4
CC0000022467890H202100015112643300015112643325/10/20211418    3190205623742196425000011082900001233450000000000000                                                               EQUIPO LC 5000 PRIMARIO FOTOPRO 0L218SOB     1
CC0000055163818H202100015112643300015112643325/10/20211418    3190205623742196425000011082900001233450000000000000                                                               EQUIPO LC 5000 PRIMARIO FOTOPRO 0L218SOB     1
CC0000008753953H202100015112643300015112643325/10/20211418    3190205623742196425000011082900001233450000000000000                                                               EQUIPO LC 5000 PRIMARIO FOTOPRO 0L218SOB     1
CC0000022467890H202100015112643300015112643325/10/20211418    3190205623742196425000030936900001431840000000000000                                                                                              BURETABOL     2
CC0000055163818H202100015112643300015112643325/10/20211418    3190205623742196425000030936900001431840000000000000                                                                                              BURETABOL     2
CC0000008753953H202100015112643300015112643325/10/20211418    3190205623742196425000030936900001431840000000000000                                                                                              BURETABOL     2
CC0000022467890H202100015112643300015112643325/10/20211418    3190205623742196425000020009800000546950000000000000                                                                        BOLSA EVA PINNACLE X 2000 MLBOL     1
CC0000055163818H202100015112643300015112643325/10/20211418    3190205623742196425000020009800000546950000000000000                                                                        BOLSA EVA PINNACLE X 2000 MLBOL     1
CC0000008753953H202100015112643300015112643325/10/20211418    3190205623742196425000020009800000546950000000000000                                                                        BOLSA EVA PINNACLE X 2000 MLBOL     1
CC0000022467890H202100015112643300015112643325/10/20211418    3190205623742196425000000100600000223090000000000000                                                                      AGUJA DESECHABLE 18G X 1 1/2 PSIN     4
CC0000055163818H202100015112643300015112643325/10/20211418    3190205623742196425000000100600000223090000000000000                                                                      AGUJA DESECHABLE 18G X 1 1/2 PSIN     4
CC0000008753953H202100015112643300015112643325/10/20211418    3190205623742196425000000100600000223090000000000000                                                                      AGUJA DESECHABLE 18G X 1 1/2 PSIN     4
