CC0000005746549U202100050131361400050131361425/10/20211118    3190145323942196432000038568800000256980000000000000                                                                                   SONDA NELATON #18SIN     1
CC0000005746549U202100050131361400050131361425/10/20211118    3190145323942196432000024675000001585130000000000000                                                                    JERINGA DESECHABLE 50 ml S/AGUJASOB     1
CC0000005746549U202100050131361400050131361425/10/20211118    3190145323942196432000024674000000220660000000000000                             JERINGA A 3 PARTES CON AGUJA  SOB X 1 RYMCO  10ML BN EXENTO-DC.417/2020SIN     1
CC0000005746549U202100050131361400050131361425/10/20211118    3190145323942196432000020056600001101530000000000000                                                                AGUJA HIPODERMICA DESECH 18G X 1 1/2SOB     1
CC0000005746549U202100050131361400050131361425/10/20211118    31901453239421964320000E1AB0500003888400000000000000                                                              SOLUCION SALINA 0.9% SLN INY X 1000 MLBOL     1
