PE0095070102201U202100050131360800050131360825/10/20211053    3190315823942196432000024674000000220660000000000000                             JERINGA A 3 PARTES CON AGUJA  SOB X 1 RYMCO  10ML BN EXENTO-DC.417/2020SIN     1
CC0001048266067U202100050131360800050131360825/10/20211053    3190315823942196432000013077800000471960000000000000                                                             GASA NO TEJIDA EST 7.5 X 7.5 SOB X 3 UNSOB     1
CC0001048266067U202100050131360800050131360825/10/20211053    3190315823942196432000042743200003929860000000000000                   GASA ADHESIVA STRETCH REF 02038-00 ROL X 10MT FIXOMULL 15CM BN EXENTO-DC.417/2020CMT    10
CC0001048266067U202100050131360800050131360825/10/20211053    31903158239421964320000E1AB0200000199290000000000000                                                            SOLUCION SALINA 0.9% SLN INY BO X 100 MLBIN     1
