CC0000032737758U202100000554960400000554960425/10/20212251     3300004239421964320000C09AA200001314250000000000000                                                                                 CAPTOPRIL TAB 50 MGTAB     1
CC0000032737758U202100000554960400000554960425/10/20212251     3300004239421964320000A03BB100003889180000000000000                                      HIOSCINA BUTIL BROMURO 20MG/ML SOL INY CAJ X 100AMP X 1ML RYANAMP     1
CC0000032737758U202100000554960400000554960425/10/20212250     3300004239421964320000N02BB100000777810000000000000                                                               DIPIRONA MAGNESICA SLN INY 2.5 G/5 MLAMP     1
