RC0001041699033U202100000554933400000554933425/10/20210744     3300004239421964320000A4AD0200000202990000000000000                                                                     PLITICAN HCL Sln Iny 50 mg/2 mlAMP     1
RC0001041699033U202100000554933400000554933425/10/20211341    31902968239421964320000E1AC0100000199400000000000000                                                                          SUERO MIXTO Sln Iny 500 mlBIN     1
RC0001041699033U202100000554933400000554933425/10/20210838    31901181239421964320000E1AB0500003888400000000000000                                                              SOLUCION SALINA 0.9% SLN INY X 1000 MLBOL     1
RC0001041699033U202100000554933400000554933425/10/20211318     3300004239421964320000A12BA100000552980000000000000                                                            CLORURO POTASIO Sln Iny AMP 20 MEQ/10 MLAMP     1
RC0001041699033U202100000554933400000554933425/10/20211317     3300004239421964320000J01GB500000552920000000000000                                                                       AMIKACINA SLN INY 500 MG/2 MLAMP     1
RC0001041699033U202100000554933400000554933425/10/20210858     3300004239421964320000N02B1100001169680000000000000                              PARACETAMOL 1000MG/100ML(10MG/ML) SOL INY  VIAL X 100ML FRESENIUS KABIVAL     1
