RC0001187466818H202100015122506200015122506225/10/20210929    3150024423742196425000018354100000232880000000000000                                                                  SUTURA SEDA NEGRA 3-0 KS 75CM 622HSIN     1
RC0001187466818H202100015122506200015122506225/10/20210929    3150024423742196425000021017400000227520000000000000                                                            KIT CAT BILUMEN PED CS14402E  4FR X 13CMSIN     1
RC0001187466818H202100015122506200015122506225/10/20210929    3150024423742196425000043879200001138180000000000000                                                                                   HOJA BISTURI # 11SOB     1
RC0001187466818H202100015122506200015122506225/10/20210929    3150024423742196425000011088900001318270000000000000                                                               GUANTE CIRUGIA NITRILO ALFASAFE 7 1/2SOB     2
RC0001187466818H202100015122506200015122506225/10/20210929    3150024423742196425000053074400000607910000000000000                                                               GASA ESTERIL 10*10 SOBRE X 3 UNIDADESSOB     5
RC0001187466818H202100015122506200015122506225/10/20210929    31500244237421964250000E1AB0200000199290000000000000                                                            SOLUCION SALINA 0.9% SLN INY BO X 100 MLBIN     1
