CC0000032768038H202100000554926000000554926025/10/20210732     3300009237421964250000A02AF100001566240000000000000                                                                    PEPSAMAR PLUS Susp Oral X 150 MLFCO     1
CC0000032768038H202100000554926000000554926025/10/20211735    31500502237421964250000E1AA0100003888590000000000000                                                                        DEXTROSA 5% Sln Iny X 500 mlBOL     1
CC0000032768038H202100000554926000000554926025/10/20211735    31500502237421964250000E1AB0300003888390000000000000                                                            SOLUCION SALINA 0.9% SLN INY BO X 500 MLBOL     1
CC0000032768038H202100000554926000000554926025/10/20211320     3300009237421964250000N2AA0200000301600000000000000                                                                        HIDROMORFONA Sln Iny 2 mg/mlAMP     2
CC0000032768038H202100000554926000000554926025/10/20211319     3300009237421964250000A03BB100003889180000000000000                                      HIOSCINA BUTIL BROMURO 20MG/ML SOL INY CAJ X 100AMP X 1ML RYANAMP     1
CC0000032768038H202100000554926000000554926025/10/20210733     3300009237421964250000A03BB100003889180000000000000                                      HIOSCINA BUTIL BROMURO 20MG/ML SOL INY CAJ X 100AMP X 1ML RYANAMP     2
CC0000032768038H202100000554926000000554926025/10/20210732     3300009237421964250000B01AB200000513350000000000000                                                                        CLENOX SLN INY 40 MG/ 0.4 MLJRP     2
CC0000032768038H202100000554926000000554926025/10/20211320     3300009237421964250000C03C0100001672000000000000000                                                                       FUROSEMIDA SLN INY 20 MG/2 MLAMP     1
CC0000032768038H202100000554926000000554926025/10/20210733     3300009237421964250000C03C0100001672000000000000000                                                                       FUROSEMIDA SLN INY 20 MG/2 MLAMP     2
CC0000032768038H202100000554926000000554926025/10/20211315     3300009237421964250000J01DD500001239970000000000000                                                                  CEFTRIAXONA POLVO LIOF SLN INY 1 GVAL     4
CC0000032768038H202100000554926000000554926025/10/20211631     3300009237421964250000A02BC700001684270000000000000                                                            OMEPRAZOL 40MG POLVO LIOFILIZADO AMPOLLAVAL     1
CC0000032768038H202100000554926000000554926025/10/20210733     3300009237421964250000A02BC700001684270000000000000                                                            OMEPRAZOL 40MG POLVO LIOFILIZADO AMPOLLAVAL     2
