CC0000032581911U202100050131368700050131368725/10/20212013    3150025823942196432000024674000000220660000000000000                             JERINGA A 3 PARTES CON AGUJA  SOB X 1 RYMCO  10ML BN EXENTO-DC.417/2020SIN     1
CC0000032581911U202100050131368700050131368725/10/20212013    3150025823942196432000011082700001620070000000000000                                                               EQUIPO SET PRIMARIO C/CLAVE REF 14001BOL     1
CC0000032581911U202100050131368700050131368725/10/20212013    3150025823942196432000001956000001620610000000000000                                                                      CONECTOR MICRO CLAVE LAT-MC100SOB     1
CC0000032581911U202100050131368700050131368725/10/20212013    31500258239421964320000Q1AA7100000610620000000000000                                                            CATETER PERIFE INTROCAN # 18G 4251687-04SIN     1
CC0000032581911U202100050131368700050131368725/10/20212013    31500258239421964320000E1AB0200000199290000000000000                                                            SOLUCION SALINA 0.9% SLN INY BO X 100 MLBIN     1
