CC0000008761530H202100000554955900000554955925/10/20211853     3300010237421964250000A2BC0900000200150000000000000                                                                               ORAZOLE Sln Iny 40 mgCIN     1
CC0000008761530H202100000554955900000554955925/10/20211853     3300010237421964250000A10A1900000601020000000000000                                                                   APIDRA CARTU 100 UI/ML X 3 ML /R/CAR     1
CC0000008761530H202100000554955900000554955925/10/20212335    31900999237421964250000E1AB0200000199290000000000000                                                            SOLUCION SALINA 0.9% SLN INY BO X 100 MLBIN    10
CC0000008761530H202100000554955900000554955925/10/20211852     3300010237421964250000C7AB1000001382030000000000000                                                                   NOREPINEFRINA SLN INY 4 MG / 4 MLAMP     6
CC0000008761530H202100000554955900000554955925/10/20212116     3300010237421964250000C3CA0200000195520000000000000                                                                           LASIX SLN INY 20 MG/ 2 MLAMP     2
CC0000008761530H202100000554955900000554955925/10/20211852     3300010237421964250000J1CB0600000468340000000000000                                                           UNASYN IM-IV (1+0.5)GR POLV INY INST VIALVAL     4
CC0000008761530H202100000554955900000554955925/10/20211849     3300010237421964250000N07X0300003913670000000000000                                    DEXMEDETOMIDINA 400MCG/100ML(4MCG/ML) SOL INY BOL X 100ML BAXTERBOL     2
CC0000008761530H202100000554955900000554955925/10/20211850     3300010237421964250000N01A0100001623970000000000000                                                              FENTANILO CITRATO Sln Iny 0.1 mg/ 2 mlAMP     1
CC0000008761530H202100000554955900000554955925/10/20212116     3300010237421964250000N5CD0300000218170000000000000                                                                          DORMICUM Sln Iny 5 mg/5 mlAMP     1
