CC0001143269433H202100000554925100000554925125/10/20211514     3300010237421964250000A2BC0900000200150000000000000                                                                               ORAZOLE Sln Iny 40 mgCIN     1
CC0001143269433H202100000554925100000554925125/10/20211514     3300010237421964250000B1AB0200003939510000000000000                 ENOXAPARINA SODICA 40MG/0.4ML(100MG/ML) SOL INY INST CAJ X 2JERPREL X 0.4ML TECHDOWJRP     1
CC0001143269433H202100000554925100000554925125/10/20211208    31903303237421964250000E1AB0200000199290000000000000                                                            SOLUCION SALINA 0.9% SLN INY BO X 100 MLBIN     2
CC0001143269433H202100000554925100000554925125/10/20211633    31901189237421964250000E1AB0300003888390000000000000                                                            SOLUCION SALINA 0.9% SLN INY BO X 500 MLBOL     2
CC0001143269433H202100000554925100000554925125/10/20211515     3300010237421964250000N02B1100001169680000000000000                              PARACETAMOL 1000MG/100ML(10MG/ML) SOL INY  VIAL X 100ML FRESENIUS KABIVAL     2
CC0001143269433H202100000554925100000554925125/10/20211514     3300010237421964250000N02B1100001169680000000000000                              PARACETAMOL 1000MG/100ML(10MG/ML) SOL INY  VIAL X 100ML FRESENIUS KABIVAL     1
CC0001143269433H202100000554925100000554925125/10/20211539     3300010237421964250000V06D1400000968430000000000000                                                                              JEVITY iquido x 500 mlFCO     3
CC0001143269433H202100000554925100000554925125/10/20211514     3300010237421964250000C02AC200001559150000000000000                                                                              CLONIDINA TAB 0.150 MGTAB     1
CC0001143269433H202100000554925100000554925125/10/20211514     3300010237421964250000C7AB0100001276990000000000000                                                                            BETOPROLOL TAB 50 MG /R/TAB     2
CC0001143269433H202100000554925100000554925125/10/20211514     3300010237421964250000C08CA200001277660000000000000                                                                                 AMLODIPINO TAB 5 MGTAB     2
CC0001143269433H202100000554925100000554925125/10/20211515     3300010237421964250000N05A1700001278300000000000000                                                                            QUETIAPINA TAB 25 MG /R/TAB     1
CC0001143269433H202100000554925100000554925125/10/20211515     3300010237421964250000N06AX200001277490000000000000                                                                                 TRAZODONA TAB 50 MGTAB     1
CC0001143269433H202100000554925100000554925125/10/20211208    31903303237421964250000V07A1300000502600000000000000                                                                                AGUA ESTERIL x 10 mlAMP     5
