CC0001017242775U202100161674111900161674111919/11/20211337    3190093923942196432000000602600001259280000000000000                                                             APOSITO TEGADERM IV PD 1610 5CM X 5.7CMSOB     1
CC0001017242775U202100161674111900161674111919/11/20211412    3190093923942196432000016830000000970620000000000000                                                             SIST FIJACION CAT PERIFERICO 6.5X7 1683SOB     1
CC0001017242775U202100161674111900161674111919/11/20211412    31900939239421964320000Q1AA7100000610620000000000000                                                            CATETER PERIFE INTROCAN # 18G 4251687-04SIN     1
