RC0001046724401U202100916548110200916548110202/11/20211524    3150019423942196432000030936900001431840000000000000                                                                                              BURETABOL     1
RC0001046724401U202100916548110200916548110202/11/20211627    3150019423942196432000024674000001138340000000000000   JERINGA 3PARTES C/A 10ML REF JEHL005 CAJ X 100 ALFASAFE  21GX1 PULG 1/2 PULG BN EXENTO-DC.417/202PZA     2
RC0001046724401U202100916548110200916548110202/11/20211627    31500194239421964320000E1AB0300003888390000000000000                                                            SOLUCION SALINA 0.9% SLN INY BO X 500 MLBOL     1
