RC0001048091269U202100917593110900917593110909/11/20210402    3190280023942196432000011085100001082120000000000000                                                                           GUANTE QUIRURGICO TALLA 7SOB     2
RC0001048091269U202100917593110900917593110909/11/20210402    3190280023942196432000013077800000471960000000000000                                                             GASA NO TEJIDA EST 7.5 X 7.5 SOB X 3 UNSOB     2
RC0001048091269U202100917593110900917593110909/11/20210402    3190280023942196432000038568200000257000000000000000                                                                                   SONDA NELATON #06SIN     1
RC0001048091269U202100917593110900917593110909/11/20210402    3190280023942196432000001956000001620610000000000000                                                                      CONECTOR MICRO CLAVE LAT-MC100SOB     1
RC0001048091269U202100917593110900917593110909/11/20210402    31902800239421964320000Q1AA7400003911720000000000000                                                            CATETER PERIFE INTROCAN # 24G 4251601-04SOB     1
