CC0000022912921H202100000555607100000555607110/11/20211621     3300010237421964250000C09DB200001647320000000000000                                                              LOSARTAN+ AMLODIPINO 100 + 5 MG TAB/V/TAB     1
CC0000022912921H202100000555607100000555607110/11/20211303     3300010237421964250000A2BX0100001277280000000000000                                                                                ALSUCRAL TAB 1 G /R/TAB     1
CC0000022912921H202100000555607100000555607110/11/20210833     3300010237421964250000A2BX0100001277280000000000000                                                                                ALSUCRAL TAB 1 G /R/TAB     2
CC0000022912921H202100000555607100000555607110/11/20211303     3300010237421964250000A4AD0200000202990000000000000                                                                     PLITICAN HCL Sln Iny 50 mg/2 mlAMP     1
CC0000022912921H202100000555607100000555607110/11/20210833     3300010237421964250000A4AD0200000202990000000000000                                                                     PLITICAN HCL Sln Iny 50 mg/2 mlAMP     3
CC0000022912921H202100000555607100000555607110/11/20210833     3300010237421964250000A6AC0200001467010000000000000                                                             LACTULAX JARABE 66.7G/100ML SOX15ML /R/SOB     2
CC0000022912921H202100000555607100000555607110/11/20210833     3300010237421964250000B1AB0200003939510000000000000                 ENOXAPARINA SODICA 40MG/0.4ML(100MG/ML) SOL INY INST CAJ X 2JERPREL X 0.4ML TECHDOWJRP     1
CC0000022912921H202100000555607100000555607110/11/20211538    31500072237421964250000E1AB0200000199290000000000000                                                            SOLUCION SALINA 0.9% SLN INY BO X 100 MLBIN    10
CC0000022912921H202100000555607100000555607110/11/20211538    31500072237421964250000E1AD0300000199490000000000000                                         LACTATO RINGER USP (HARTMANN)  SOL INY  BOL X 1000ML BAXTERBIN     3
CC0000022912921H202100000555607100000555607110/11/20210833     3300010237421964250000C02K0200001314230000000000000                                                                               ATACAND TAB 16 MG /R/TAB     2
CC0000022912921H202100000555607100000555607110/11/20212208     3300009237421964250000N07X0300003913670000000000000                                    DEXMEDETOMIDINA 400MCG/100ML(4MCG/ML) SOL INY BOL X 100ML BAXTERBOL     4
CC0000022912921H202100000555607100000555607110/11/20210833     3300010237421964250000V6DF5300000302770000000000000                                                                        ENSURE PLUS HN LCP X 1000 MLFCO     1
CC0000022912921H202100000555607100000555607110/11/20211618     3300010237421964250000N1AH0200003906560000000000000                                                                     FENTANIL Iny 0.05 mg/ml x 10 mlAMP     2
CC0000022912921H202100000555607100000555607110/11/20210956     3300010237421964250000N1AH0200003906560000000000000                                                                     FENTANIL Iny 0.05 mg/ml x 10 mlAMP     6
CC0000022912921H202100000555607100000555607110/11/20211921     3300009237421964250000N5CD0300000218170000000000000                                                              DORMICUM IV-IM 5MG/5ML(1MG/ML) SOL INYAMP    20
CC0000022912921H202100000555607100000555607110/11/20211136     3300010237421964250000N5CD0300000218170000000000000                                                              DORMICUM IV-IM 5MG/5ML(1MG/ML) SOL INYAMP    20
CC0000022912921H202100000555607100000555607110/11/20210956     3300010237421964250000N5CD0300000218170000000000000                                                              DORMICUM IV-IM 5MG/5ML(1MG/ML) SOL INYAMP    20
