RC0001044233379U202100000555898800000555898817/11/20211630     3300004239421964320000N02BE100000000JP0000000000000                                                                ACETAMINOFEN 250MG/5ML JER PLLE JAB. JR     1
RC0001044233379U202100000555898800000555898817/11/20212022    31500514239421964320000E1AB1100003888280000000000000                                                                        SOLUCION SALINA 0.9% X 50 mlBOL     1
RC0001044233379U202100000555898800000555898817/11/20211612     3300004239421964320000H02AB500001664950000000000000                                                            DEXAMETASONA SLN INY 8 MG/2 ML AMP /CDS/AMP     1
RC0001044233379U202100000555898800000555898817/11/20211714     3300004239421964320000R3CA0100001051880000000000000                                                               ADRENALINA HCL SLN INY 1 MG / ML ECARAMP     1
