RC0001146543498U202100916854111500916854111515/11/20210545    3190093023942196432000011082700001620070000000000000                                                               EQUIPO SET PRIMARIO C/CLAVE REF 14001BOL     1
RC0001146543498U202100916854111500916854111515/11/20210545    3190093023942196432000024674000001138340000000000000   JERINGA 3PARTES C/A 10ML REF JEHL005 CAJ X 100 ALFASAFE  21GX1 PULG 1/2 PULG BN EXENTO-DC.417/202PZA     1
RC0001146543498U202100916854111500916854111515/11/20210545    3190093023942196432000030936900001431840000000000000                                                                                              BURETABOL     1
RC0001146543498U202100916854111500916854111515/11/20210545    3190093023942196432000042753000003929870000000000000                    GASA ADHESIVA STRETCH REF 02036-00 ROL X 10MT FIXOMULL 5CM BN EXENTO-DC.417/2020CMT    20
RC0001146543498U202100916854111500916854111515/11/20210545    3190093023942196432000001956000001620610000000000000                                                                      CONECTOR MICRO CLAVE LAT-MC100SOB     1
RC0001146543498U202100916854111500916854111515/11/20210545    31900930239421964320000Q1AA7400003911720000000000000                                                            CATETER PERIFE INTROCAN # 24G 4251601-04SOB     1
RC0001146543498U202100916854111500916854111515/11/20210545    31900930239421964320000E1AD0300000199490000000000000                                         LACTATO RINGER USP (HARTMANN)  SOL INY  BOL X 1000ML BAXTERBIN     1
