CC0001126247526U202100918476111400918476111414/11/20212042    3150035423942196432000011048600000223020000000000000                                                                 JERINGA VACUNACION 3ML C/AGU 302542SIN     1
CC0001126247526U202100918476111400918476111414/11/20212042    3150035423942196432000024673600000222980000000000000                                                                     JERINGA DESECHABLE 5 ml 27*11/2SIN     1
CC0001126247526U202100918476111400918476111414/11/20212054    3190217123942196432000011048600000223020000000000000                                                                 JERINGA VACUNACION 3ML C/AGU 302542SIN     1
CC0001126247526U202100918476111400918476111414/11/20212054    3190217123942196432000024673600000222980000000000000                                                                     JERINGA DESECHABLE 5 ml 27*11/2SIN     1
