CC0001046817812U202100000556200500000556200525/11/20210756     3300004239421964320000S2BA0100000468160000000000000                                                                          SOLU-CORTEF SNL INY 100 MGVAL     3
CC0001046817812U202100000556200500000556200525/11/20211446    31902712239421964320000E1AB0500003888400000000000000                                                              SOLUCION SALINA 0.9% SLN INY X 1000 MLBOL     1
CC0001046817812U202100000556200500000556200525/11/20210153    31500263239421964320000E1AD0300000199490000000000000                                         LACTATO RINGER USP (HARTMANN)  SOL INY  BOL X 1000ML BAXTERBIN     1
CC0001046817812U202100000556200500000556200525/11/20210153    31901806239421964320000E1AD0300000199490000000000000                                         LACTATO RINGER USP (HARTMANN)  SOL INY  BOL X 1000ML BAXTERBIN     1
CC0001046817812U202100000556200500000556200525/11/20210756     3300004239421964320000M01A0400001341250000000000000                                                                              DYNASTAT AMP 40 MG /R/VAL     1
