PA00000A0003391U202100919522112200919522112222/11/20210239    3190317523942196432000011082700001620070000000000000                                                               EQUIPO SET PRIMARIO C/CLAVE REF 14001BOL     1
PA00000A0003391U202100919522112200919522112222/11/20210239    3190317523942196432000030936900001431840000000000000                                                                                              BURETABOL     1
PA00000A0003391U202100919522112200919522112222/11/20210239    31903175239421964320000E1AB0500003888400000000000000                                                              SOLUCION SALINA 0.9% SLN INY X 1000 MLBOL     1
PA00000A0003391U202100919522112200919522112222/11/20210853    3190145323942196432000024674000001138340000000000000   JERINGA 3PARTES C/A 10ML REF JEHL005 CAJ X 100 ALFASAFE  21GX1 PULG 1/2 PULG BN EXENTO-DC.417/202PZA     1
PA00000A0003391U202100919522112200919522112222/11/20211743    31901453239421964320000E1AB0300003888390000000000000                                                            SOLUCION SALINA 0.9% SLN INY BO X 500 MLBOL     1
PA00000A0003391U202100919522112200919522112222/11/20211743    31901453239421964320000E1AA0100003888590000000000000                                                                        DEXTROSA 5% Sln Iny X 500 mlBOL     1
