CC0001143434034U202100904431112900904431112929/11/20211349    3150056523942196432000011082700001620070000000000000                                                               EQUIPO SET PRIMARIO C/CLAVE REF 14001BOL     1
CC0001143434034U202100904431112900904431112929/11/20211349    3150056523942196432000016830000000970620000000000000                                                             SIST FIJACION CAT PERIFERICO 6.5X7 1683SOB     1
CC0001143434034U202100904431112900904431112929/11/20211349    3150056523942196432000024674000001138340000000000000   JERINGA 3PARTES C/A 10ML REF JEHL005 CAJ X 100 ALFASAFE  21GX1 PULG 1/2 PULG BN EXENTO-DC.417/202PZA     1
CC0001143434034U202100904431112900904431112929/11/20211349    3150056523942196432000030936900001431840000000000000                                                                                              BURETABOL     1
CC0001143434034U202100904431112900904431112929/11/20211349    3150056523942196432000001956000001620610000000000000                                                                      CONECTOR MICRO CLAVE LAT-MC100SOB     1
CC0001143434034U202100904431112900904431112929/11/20211349    31500565239421964320000Q1AA7100000610620000000000000                                                            CATETER PERIFE INTROCAN # 18G 4251687-04SIN     1
