CC0000049741371U202100917170110500917170110505/11/20211855    3150025023942196432000011082700001620070000000000000                                                               EQUIPO SET PRIMARIO C/CLAVE REF 14001BOL     1
CC0000049741371U202100917170110500917170110505/11/20211855    3150025023942196432000030936900001431840000000000000                                                                                              BURETABOL     1
CC0000049741371U202100917170110500917170110505/11/20211855    31500250239421964320000Q1AA7200000610630000000000000                                                            CATETER PERIFE INTROCAN # 20G 4251644-04SIN     1
CC0000049741371U202100917170110500917170110505/11/20211855    31500250239421964320000E1AD0300000199490000000000000                                         LACTATO RINGER USP (HARTMANN)  SOL INY  BOL X 1000ML BAXTERBIN     1
