CE0000042750179U202100920361112600920361112626/11/20211821    3150019423942196432000016830000000970620000000000000                                                             SIST FIJACION CAT PERIFERICO 6.5X7 1683SOB     1
CE0000042750179U202100920361112600920361112626/11/20211821    3150019423942196432000022426800001140510000000000000                                                                    EQUIPO MACROGOTEO BAXTER MRC0001SOB     1
CE0000042750179U202100920361112600920361112626/11/20211821    3150019423942196432000024673600000222980000000000000                                                                     JERINGA DESECHABLE 5 ml 27*11/2SIN     1
CE0000042750179U202100920361112600920361112626/11/20211821    31500194239421964320000E1AB0700003888350000000000000                                                            SOLUCION SALINA 0.9% SLN INY BO X 250 MLBOL     1
CE0000042750179U202100920361112600920361112626/11/20211821    3150019423942196432000001956000001620610000000000000                                                                      CONECTOR MICRO CLAVE LAT-MC100SOB     1
CE0000042750179U202100920361112600920361112626/11/20211821    31500194239421964320000Q1AA7200000610630000000000000                                                            CATETER PERIFE INTROCAN # 20G 4251644-04SIN     1
