CC0000032804200U202100915086112000915086112020/11/20210010    31500194239421964320000E1AD0300000199490000000000000                                         LACTATO RINGER USP (HARTMANN)  SOL INY  BOL X 1000ML BAXTERBIN     1
CC0000032804200U202100915086112000915086112020/11/20210447    3150019423942196432000011137100001419310000000000000                                                               TIRA GLUCOMETRIA FREESTYLE H OPTIUM .PZA     2
CC0000032804200U202100915086112000915086112020/11/20210447    3150019423942196432000045136100001419300000000000000                                                                            LANCETA DEXTROMETER X UNPZA     2
