CC0000032796839U202100920420112700920420112727/11/20210951    3150024623942196432000011018600000231910000000000000                                                                  CATGUT CROMADO 4-0 AGUJA RB1 U203TSIN     1
CC0000032796839U202100920420112700920420112727/11/20210951    3150024623942196432000011047900000223010000000000000                                                                            JERINGA X 1ML REF 302579SIN     1
CC0000032796839U202100920420112700920420112727/11/20210951    3150024623942196432000011048600000223020000000000000                                                                 JERINGA VACUNACION 3ML C/AGU 302542SIN     2
CC0000032796839U202100920420112700920420112727/11/20210951    3150024623942196432000012474300000371100000000000000                                                                SUTURA ETHILON 5-0 SC-20 45CM 14501TSIN     1
CC0000032796839U202100920420112700920420112727/11/20210951    3150024623942196432000024674000001138340000000000000   JERINGA 3PARTES C/A 10ML REF JEHL005 CAJ X 100 ALFASAFE  21GX1 PULG 1/2 PULG BN EXENTO-DC.417/202PZA     1
CC0000032796839U202100920420112700920420112727/11/20210951    3150024623942196432000053074400000607910000000000000                                                               GASA ESTERIL 10*10 SOBRE X 3 UNIDADESSOB     5
CC0000032796839U202100920420112700920420112727/11/20210951    31500246239421964320000E1AB0200000199290000000000000                                                            SOLUCION SALINA 0.9% SLN INY BO X 100 MLBIN     1
