CC0000022371855U202100000555572800000555572809/11/20211251    31902331239421964320000E1AB0200000199290000000000000                                                            SOLUCION SALINA 0.9% SLN INY BO X 100 MLBIN     1
CC0000022371855U202100000555572800000555572809/11/20211856    31901143239421964320000E1AB0500003888400000000000000                                                              SOLUCION SALINA 0.9% SLN INY X 1000 MLBOL     1
CC0000022371855U202100000555572800000555572809/11/20211236    31500246239421964320000E1AD0300000199490000000000000                                         LACTATO RINGER USP (HARTMANN)  SOL INY  BOL X 1000ML BAXTERBIN     1
CC0000022371855U202100000555572800000555572809/11/20211747     3300004239421964320000J1CB0600000468340000000000000                                                           UNASYN IM-IV (1+0.5)GR POLV INY INST VIALVAL     2
CC0000022371855U202100000555572800000555572809/11/20211747     3300004239421964320000N2BE0100001276930000000000000                                                                                    DOLEX TAB 500 MGTAB     1
