RC0001146542960U202100913386112600913386112626/11/20211851    3190100523942196432000011048600000223020000000000000                                                                 JERINGA VACUNACION 3ML C/AGU 302542SIN     2
RC0001146542960U202100913386112600913386112626/11/20211851    3190100523942196432000011082700001620070000000000000                                                               EQUIPO SET PRIMARIO C/CLAVE REF 14001BOL     1
RC0001146542960U202100913386112600913386112626/11/20211851    3190100523942196432000011085200001585390000000000000                                                                       GUANTE QUIRURGICO TALLA 7 1/2SOB     4
RC0001146542960U202100913386112600913386112626/11/20211851    3190100523942196432000013077800000471960000000000000                                                             GASA NO TEJIDA EST 7.5 X 7.5 SOB X 3 UNSOB     6
RC0001146542960U202100913386112600913386112626/11/20211851    3190100523942196432000030936900001431840000000000000                                                                                              BURETABOL     1
RC0001146542960U202100913386112600913386112626/11/20211851    3190100523942196432000042743200003929860000000000000                   GASA ADHESIVA STRETCH REF 02038-00 ROL X 10MT FIXOMULL 15CM BN EXENTO-DC.417/2020CMT    20
RC0001146542960U202100913386112600913386112626/11/20211851    31901005239421964320000Q1AA7400003911720000000000000                                                            CATETER PERIFE INTROCAN # 24G 4251601-04SOB     1
RC0001146542960U202100913386112600913386112626/11/20211851    31901005239421964320000E1AC0100000199400000000000000                                                                          SUERO MIXTO Sln Iny 500 mlBIN     1
RC0001146542960U202100913386112600913386112626/11/20211851    31901005239421964320000E1AD0200003888320000000000000                                                                              HARTMAN SLN INY 500 MLBOL     1
RC0001146542960U202100913386112600913386112626/11/20212125    3150025823942196432000011047900000223010000000000000                                                                            JERINGA X 1ML REF 302579SIN     1
RC0001146542960U202100913386112600913386112626/11/20212125    3150025823942196432000011082700001620070000000000000                                                               EQUIPO SET PRIMARIO C/CLAVE REF 14001BOL     1
RC0001146542960U202100913386112600913386112626/11/20212125    3150025823942196432000024673600000222980000000000000                                                                     JERINGA DESECHABLE 5 ml 27*11/2SIN     1
RC0001146542960U202100913386112600913386112626/11/20212125    3150025823942196432000038568200000257000000000000000                                                                                   SONDA NELATON #06SIN     1
RC0001146542960U202100913386112600913386112626/11/20212125    3150025823942196432000042743200003929860000000000000                   GASA ADHESIVA STRETCH REF 02038-00 ROL X 10MT FIXOMULL 15CM BN EXENTO-DC.417/2020CMT    15
RC0001146542960U202100913386112600913386112626/11/20212125    31500258239421964320000E1AB0200000199290000000000000                                                            SOLUCION SALINA 0.9% SLN INY BO X 100 MLBIN     1
RC0001146542960U202100913386112600913386112626/11/20212125    3150025823942196432000001956000001620610000000000000                                                                      CONECTOR MICRO CLAVE LAT-MC100SOB     1
RC0001146542960U202100913386112600913386112626/11/20212125    31500258239421964320000Q1AA7400003911720000000000000                                                            CATETER PERIFE INTROCAN # 24G 4251601-04SOB     1
RC0001146542960U202100913386112600913386112626/11/20212125    31500258239421964320000E1AC0100000199400000000000000                                                                          SUERO MIXTO Sln Iny 500 mlBIN     1
RC0001146542960U202100913386112600913386112626/11/20212125    31500258239421964320000E1AD0200003888320000000000000                                                                              HARTMAN SLN INY 500 MLBOL     1
