RC0001034521434U202100920535112800920535112828/11/20211043    3150051423942196432000038568200000257000000000000000                                                                                   SONDA NELATON #06SIN     1
RC0001034521434U202100920535112800920535112828/11/20211153    3150051423942196432000024674000001138340000000000000   JERINGA 3PARTES C/A 10ML REF JEHL005 CAJ X 100 ALFASAFE  21GX1 PULG 1/2 PULG BN EXENTO-DC.417/202PZA     1
RC0001034521434U202100920535112800920535112828/11/20211153    31500514239421964320000E1AB0200000199290000000000000                                                            SOLUCION SALINA 0.9% SLN INY BO X 100 MLBIN     1
RC0001034521434U202100920535112800920535112828/11/20211244    31500514239421964320000Q0000200000473250000000000000                                                                             INHALOCAMARA PEDIATRICACIN     1
