CC0001136886338U202100920887113000920887113030/11/20211903    3150065723942196432000011082700001620070000000000000                                                               EQUIPO SET PRIMARIO C/CLAVE REF 14001BOL     1
CC0001136886338U202100920887113000920887113030/11/20211903    3150065723942196432000016830000000970620000000000000                                                             SIST FIJACION CAT PERIFERICO 6.5X7 1683SOB     1
CC0001136886338U202100920887113000920887113030/11/20211903    3150065723942196432000030936900001431840000000000000                                                                                              BURETABOL     1
CC0001136886338U202100920887113000920887113030/11/20211903    31500657239421964320000Q1AA7200000610630000000000000                                                            CATETER PERIFE INTROCAN # 20G 4251644-04SIN     1
