RC0001194979344U202100000555541700000555541708/11/20211925     3300004239421964320000N02BE100000000JP0000000000000                                                                ACETAMINOFEN 250MG/5ML JER PLLE JAB. JR     2
RC0001194979344U202100000555541700000555541708/11/20211808    31902327239421964320000E1AC0100000199400000000000000                                                                          SUERO MIXTO Sln Iny 500 mlBIN     1
RC0001194979344U202100000555541700000555541708/11/20212152     3300004239421964320000N2BB0500000217140000000000000                                                                          NOVALGINA Sln Iny 1 g/2 mlAMP     1
