CC0000077173430U202100919716112300919716112323/11/20210328    3150024623942196432000011082700001620070000000000000                                                               EQUIPO SET PRIMARIO C/CLAVE REF 14001BOL     1
CC0000077173430U202100919716112300919716112323/11/20210328    3150024623942196432000016830000000970620000000000000                                                             SIST FIJACION CAT PERIFERICO 6.5X7 1683SOB     1
CC0000077173430U202100919716112300919716112323/11/20210328    3150024623942196432000024673600000222980000000000000                                                                     JERINGA DESECHABLE 5 ml 27*11/2SIN     1
CC0000077173430U202100919716112300919716112323/11/20210328    3150024623942196432000030936900001431840000000000000                                                                                              BURETABOL     1
CC0000077173430U202100919716112300919716112323/11/20210328    31500246239421964320000Q1AA7100000610620000000000000                                                            CATETER PERIFE INTROCAN # 18G 4251687-04SIN     1
CC0000077173430U202100919716112300919716112323/11/20210328    31500246239421964320000E1AB0500003888400000000000000                                                              SOLUCION SALINA 0.9% SLN INY X 1000 MLBOL     1
