CC0000072339909H202100015112712600015112712624/11/20210103    3190294023742196425000001956000001620610000000000000                                                                      CONECTOR MICRO CLAVE LAT-MC100SOB     2
CC0000072339909H202100015112712600015112712624/11/20210103    3190294023742196425000016830000000970620000000000000                                                             SIST FIJACION CAT PERIFERICO 6.5X7 1683SOB     2
CC0000072339909H202100015112712600015112712624/11/20210103    3190294023742196425000011189900000786260000000000000                                                            CATETER DE SEGURIDAD INSYTE REF 381844 SSOB     1
CC0000072339909H202100015112712600015112712624/11/20210103    31902940237421964250000Q1AA7100000610620000000000000                                                            CATETER PERIFE INTROCAN # 18G 4251687-04SIN     1
