TI0001066284726H202100000555216400000555216401/11/20210805     3300004237421964250000S2BA0100000468160000000000000                                                                          SOLU-CORTEF SNL INY 100 MGVAL     4
TI0001066284726H202100000555216400000555216401/11/20211625     3300009237421964250000A04A1400001467560000000000000                                                                      ONDANSETRON SLN INY 8 MG/ 4 MLVAL     3
TI0001066284726H202100000555216400000555216401/11/20210805     3300004237421964250000A04A1400001467560000000000000                                                                      ONDANSETRON SLN INY 8 MG/ 4 MLVAL     3
TI0001066284726H202100000555216400000555216401/11/20212145    31500268237421964250000E1AC0100000199400000000000000                                                                          SUERO MIXTO Sln Iny 500 mlBIN     4
TI0001066284726H202100000555216400000555216401/11/20210243    31500082237421964250000E1AC0100000199400000000000000                                                                          SUERO MIXTO Sln Iny 500 mlBIN     3
TI0001066284726H202100000555216400000555216401/11/20212048    31500213237421964250000E1AB0200000199290000000000000                                                            SOLUCION SALINA 0.9% SLN INY BO X 100 MLBIN     1
TI0001066284726H202100000555216400000555216401/11/20211625     3300009237421964250000A12CA200001239800000000000000                     BICARBONATO SODIO 10MEQ/10ML(1MEQ/ML) SOL INY  CAJ X 100AMPX10ML FRESENIUS KABIAMP     2
TI0001066284726H202100000555216400000555216401/11/20210149     3300009237421964250000A12CA200001239800000000000000                     BICARBONATO SODIO 10MEQ/10ML(1MEQ/ML) SOL INY  CAJ X 100AMPX10ML FRESENIUS KABIAMP    12
TI0001066284726H202100000555216400000555216401/11/20211625     3300009237421964250000A12BA100000552980000000000000                                                            CLORURO POTASIO Sln Iny AMP 20 MEQ/10 MLAMP     2
TI0001066284726H202100000555216400000555216401/11/20210149     3300009237421964250000A12BA100000552980000000000000                                                            CLORURO POTASIO Sln Iny AMP 20 MEQ/10 MLAMP     2
TI0001066284726H202100000555216400000555216401/11/20211626     3300009237421964250000H02A0100001664960000000000000                                                                        DEXAMETASONA SLN INY 4 MG/MLAMP     6
TI0001066284726H202100000555216400000555216401/11/20210805     3300004237421964250000H02A0100001664960000000000000                                                                        DEXAMETASONA SLN INY 4 MG/MLAMP     7
TI0001066284726H202100000555216400000555216401/11/20211111     3300010237421964250000L1BC7400001404220000000000000                                                                    VINCRISTINA SULFATO SLN INY 1 MGVAL     2
TI0001066284726H202100000555216400000555216401/11/20211111     3300010237421964250000L04AX20PENDIENTE0000000000000                                                              METOTREXATO SLN INY 500 MG X 20 ML /R/VAL    15
TI0001066284726H202100000555216400000555216401/11/20211555    31500213237421964250000V07A1300000502600000000000000                                                                                AGUA ESTERIL x 10 mlAMP     5
