CC0000013825497H202100000556382800000556382830/11/20212050     3300009237421964250000A02B0600001277230000000000000                                                                                NEXIUM Tab 40 mg /R/TAB     1
CC0000013825497H202100000556382800000556382830/11/20210803     3300009237421964250000A02B0600001277230000000000000                                                                                NEXIUM Tab 40 mg /R/TAB     1
CC0000013825497H202100000556382800000556382830/11/20210653     3300009237421964250000C3DA0500001278910000000000000                                                                               GLUCOPHAGE TAB 850 MGTAB     4
CC0000013825497H202100000556382800000556382830/11/20212053     3300009237421964250000A10A1900000601020000000000000                                                                   APIDRA CARTU 100 UI/ML X 3 ML /R/CAR     1
CC0000013825497H202100000556382800000556382830/11/20210803     3300009237421964250000A10A1900000601020000000000000                                                                   APIDRA CARTU 100 UI/ML X 3 ML /R/CAR     1
CC0000013825497H202100000556382800000556382830/11/20212051     3300009237421964250000B1AB0300003939210000000000000                 ENOXAPARINA SODICA 20MG/0.2ML(100MG/ML) SOL INY INST CAJ X 2JERPREL X 0.2ML TECHDOWJRP     1
CC0000013825497H202100000556382800000556382830/11/20211015    31902606237421964250000E1AB0200000199290000000000000                                                            SOLUCION SALINA 0.9% SLN INY BO X 100 MLBIN     1
CC0000013825497H202100000556382800000556382830/11/20210454    31500456237421964250000E1AD0300000199490000000000000                                         LACTATO RINGER USP (HARTMANN)  SOL INY  BOL X 1000ML BAXTERBIN     2
CC0000013825497H202100000556382800000556382830/11/20210935     3300009237421964250000C7AB1000001382030000000000000                                                                   NOREPINEFRINA SLN INY 4 MG / 4 MLAMP     2
CC0000013825497H202100000556382800000556382830/11/20210652     3300009237421964250000C2EA2000001332890000000000000                                                                              APROVEL TAB 150 MG /R/TAB     4
CC0000013825497H202100000556382800000556382830/11/20210643     3300009237421964250000C09D0300001333670000000000000                                                                        COAPROVEL TAB 300 mg/12.5 mgCOM     2
CC0000013825497H202100000556382800000556382830/11/20212050     3300009237421964250000J01DA300001239950000000000000                                                            CEFAZOLINA SODICA POLVO LIOF SLN INY 1 GVAL     2
CC0000013825497H202100000556382800000556382830/11/20212049     3300009237421964250000J01DA300001239950000000000000                                                            CEFAZOLINA SODICA POLVO LIOF SLN INY 1 GVAL     1
CC0000013825497H202100000556382800000556382830/11/20210803     3300009237421964250000J01DA300001239950000000000000                                                            CEFAZOLINA SODICA POLVO LIOF SLN INY 1 GVAL     2
CC0000013825497H202100000556382800000556382830/11/20210803     3300009237421964250000M01A0400001341250000000000000                                                                              DYNASTAT AMP 40 MG /R/VAL     2
CC0000013825497H202100000556382800000556382830/11/20212052     3300009237421964250000N02B1100001464120000000000000                                           PARACETAMOL EP 1000MG/100ML(10MG/ML) SOL INY  CAJ X 10FCOVAL     1
CC0000013825497H202100000556382800000556382830/11/20210928    31903290237421964250000V07A1300000502600000000000000                                                                                AGUA ESTERIL x 10 mlAMP     3
CC0000013825497H202100000556382800000556382830/11/20212051     3300009237421964250000A04AA200003932460000000000000                                                 ONDAX 4MG/2ML(2MG/ML) SOL INY INST CAJ X 1AMP X 2MLAMP     1
CC0000013825497H202100000556382800000556382830/11/20210803     3300009237421964250000A04AA200003932460000000000000                                                 ONDAX 4MG/2ML(2MG/ML) SOL INY INST CAJ X 1AMP X 2MLAMP     2
CC0000013825497H202100000556382800000556382830/11/20210139     3300009237421964250000A04AA200003932460000000000000                                                 ONDAX 4MG/2ML(2MG/ML) SOL INY INST CAJ X 1AMP X 2MLAMP     2
