TI0001034297757H202100000556236800000556236825/11/20212039     3300009237421964250000A02BC100001677520000000000000                                                                ESOMEPRAZOL POLVO LIOF INY 40 MG /R/VAL     1
TI0001034297757H202100000556236800000556236825/11/20212040     3300009237421964250000A6AG0100001107060000000000000                                                            ENEMA RECTAL FOSTATO SODIO BO X 133ML /RBOL     1
TI0001034297757H202100000556236800000556236825/11/20212101     3300009237421964250000A6AC0200001467010000000000000                                                             LACTULAX JARABE 66.7G/100ML SOX15ML /R/SOB     3
TI0001034297757H202100000556236800000556236825/11/20212039     3300009237421964250000A6AC07000000#N/A0000000000000                                                                                 LACTULAX Jbe 240 ml FR     1
TI0001034297757H202100000556236800000556236825/11/20212039     3300009237421964250000N02B1100001464120000000000000                                           PARACETAMOL EP 1000MG/100ML(10MG/ML) SOL INY  CAJ X 10FCOVAL     1
TI0001034297757H202100000556236800000556236825/11/20212039     3300009237421964250000N3AF0400001315990000000000000                                                                            TRILEPTAL TAB 300 MG /R/TAB     6
