TI0001042265795H202100000555700800000555700812/11/20212339     3300009237421964250000A04A1400001467560000000000000                                                                      ONDANSETRON SLN INY 8 MG/ 4 MLVAL     2
TI0001042265795H202100000555700800000555700812/11/20211253     3300009237421964250000A04A1400001467560000000000000                                                                      ONDANSETRON SLN INY 8 MG/ 4 MLVAL     1
TI0001042265795H202100000555700800000555700812/11/20211554    31903028237421964250000E1AB0200000199290000000000000                                                            SOLUCION SALINA 0.9% SLN INY BO X 100 MLBIN     2
TI0001042265795H202100000555700800000555700812/11/20211631    31902056237421964250000E1AB0700003888350000000000000                                                            SOLUCION SALINA 0.9% SLN INY BO X 250 MLBOL     1
TI0001042265795H202100000555700800000555700812/11/20211631    31902056237421964250000E1AB0300003888390000000000000                                                            SOLUCION SALINA 0.9% SLN INY BO X 500 MLBOL     1
TI0001042265795H202100000555700800000555700812/11/20211253     3300009237421964250000A12CA200001239800000000000000                     BICARBONATO SODIO 10MEQ/10ML(1MEQ/ML) SOL INY  CAJ X 100AMPX10ML FRESENIUS KABIAMP     2
TI0001042265795H202100000555700800000555700812/11/20210921     3300009237421964250000A12CA200001239800000000000000                     BICARBONATO SODIO 10MEQ/10ML(1MEQ/ML) SOL INY  CAJ X 100AMPX10ML FRESENIUS KABIAMP     6
TI0001042265795H202100000555700800000555700812/11/20211253     3300009237421964250000A12CA100001109460000000000000                                                              CLORURO SODIO SLN INY 2 MEQ/ML X 10 MLAMP     2
TI0001042265795H202100000555700800000555700812/11/20210922     3300009237421964250000A12CA100001109460000000000000                                                              CLORURO SODIO SLN INY 2 MEQ/ML X 10 MLAMP     3
TI0001042265795H202100000555700800000555700812/11/20210921     3300009237421964250000A12CA100001109460000000000000                                                              CLORURO SODIO SLN INY 2 MEQ/ML X 10 MLAMP     3
TI0001042265795H202100000555700800000555700812/11/20210849     3300009237421964250000L04AX20PENDIENTE0000000000000                                                              METOTREXATO SLN INY 500 MG X 20 ML /R/VAL     4
TI0001042265795H202100000555700800000555700812/11/20210921     3300009237421964250000L1BC8600000553170000000000000                                                                  FOLINATO CALCIO SLN INY 50 MG/5 MLVAL     3
TI0001042265795H202100000555700800000555700812/11/20210921     3300009237421964250000H02AB700000585860000000000000                                                                HIDROCORTISONA SUCCI POL LIOF 100 MGVAL     3
TI0001042265795H202100000555700800000555700812/11/20210921     3300009237421964250000R3CA0100001051880000000000000                                                               ADRENALINA HCL SLN INY 1 MG / ML ECARAMP     1
