CC0000019269109U202100919768112300919768112323/11/20211039    3190201023942196432000011047900000223010000000000000                                                                            JERINGA X 1ML REF 302579SIN     1
CC0000019269109U202100919768112300919768112323/11/20211039    3190201023942196432000011048600000223020000000000000                                                                 JERINGA VACUNACION 3ML C/AGU 302542SIN     2
CC0000019269109U202100919768112300919768112323/11/20211039    3190201023942196432000011085100001082120000000000000                                                                           GUANTE QUIRURGICO TALLA 7SOB     1
CC0000019269109U202100919768112300919768112323/11/20211039    3190201023942196432000012475500000232250000000000000                                                                 SUTURA ETHILON 5-0 PS-2 45CM P1666TSIN     1
CC0000019269109U202100919768112300919768112323/11/20211039    3190201023942196432000013077800000471960000000000000                                                             GASA NO TEJIDA EST 7.5 X 7.5 SOB X 3 UNSOB     6
CC0000019269109U202100919768112300919768112323/11/20211039    3190201023942196432000024673600000222980000000000000                                                                     JERINGA DESECHABLE 5 ml 27*11/2SIN     1
CC0000019269109U202100919768112300919768112323/11/20211039    31902010239421964320000E1AB0200000199290000000000000                                                            SOLUCION SALINA 0.9% SLN INY BO X 100 MLBIN     1
