CC0000072125763U202100919510112100919510112121/11/20211850    3190217123942196432000011048600000223020000000000000                                                                 JERINGA VACUNACION 3ML C/AGU 302542SIN     1
CC0000072125763U202100919510112100919510112121/11/20211850    3190217123942196432000011089300001083990000000000000                                                              GUANTE ESTERIL LATEX S/POLVO TALLA 7.5SOB     2
CC0000072125763U202100919510112100919510112121/11/20211850    3190217123942196432000012475500000232250000000000000                                                                 SUTURA ETHILON 5-0 PS-2 45CM P1666TSIN     1
CC0000072125763U202100919510112100919510112121/11/20211850    3190217123942196432000013077800000471960000000000000                                                             GASA NO TEJIDA EST 7.5 X 7.5 SOB X 3 UNSOB     6
CC0000072125763U202100919510112100919510112121/11/20211850    3190217123942196432000024673600000222980000000000000                                                                     JERINGA DESECHABLE 5 ml 27*11/2SIN     1
CC0000072125763U202100919510112100919510112121/11/20211850    31902171239421964320000E1AB0200000199290000000000000                                                            SOLUCION SALINA 0.9% SLN INY BO X 100 MLBIN     1
