RC0001044235063U202100914856112400914856112424/11/20211710    3150019423942196432000013077800000471960000000000000                                                             GASA NO TEJIDA EST 7.5 X 7.5 SOB X 3 UNSOB     3
RC0001044235063U202100914856112400914856112424/11/20211710    3150019423942196432000038568200000257000000000000000                                                                                   SONDA NELATON #06SIN     1
RC0001044235063U202100914856112400914856112424/11/20211710    3150019423942196432000042743200003929860000000000000                   GASA ADHESIVA STRETCH REF 02038-00 ROL X 10MT FIXOMULL 15CM BN EXENTO-DC.417/2020CMT    20
RC0001044235063U202100914856112400914856112424/11/20211710    3150019423942196432000043485100001618510000000000000                GUANTE QUIRURGICO DE LATEX REF 2D72N65X CAJ X 50 PROTEXIS  6.5 BN EXENTO-DC.417/2020SOB     1
RC0001044235063U202100914856112400914856112424/11/20211710    3150019423942196432000001956000001620610000000000000                                                                      CONECTOR MICRO CLAVE LAT-MC100SOB     1
RC0001044235063U202100914856112400914856112424/11/20211710    31500194239421964320000Q1AA7400003911720000000000000                                                            CATETER PERIFE INTROCAN # 24G 4251601-04SOB     1
RC0001044235063U202100914856112400914856112424/11/20211710    31500194239421964320000E1AB1100003888280000000000000                                                                        SOLUCION SALINA 0.9% X 50 mlBOL     1
