CC0000013887621H202100015112726700015112726730/11/20211145    31500555237421964250000E1AB0200000199290000000000000                                                            SOLUCION SALINA 0.9% SLN INY BO X 100 MLBIN    15
CC0001143115935H202100015112726700015112726730/11/20211145    31500555237421964250000E1AB0200000199290000000000000                                                            SOLUCION SALINA 0.9% SLN INY BO X 100 MLBIN    10
PE0082549771210H202100015112726700015112726730/11/20211145    31500555237421964250000E1AB0200000199290000000000000                                                            SOLUCION SALINA 0.9% SLN INY BO X 100 MLBIN    10
CC0000013887621H202100015112726700015112726730/11/20211145    31500555237421964250000Q1A13500001585200000000000000                        JERINGA PUNTA CAT SIN AGUJA REF 309620 CAJ X 40   50ML BN EXENTO-DC.417/2020SOB     1
CC0000013887621H202100015112726700015112726730/11/20211145    3150055523742196425000024674000001138340000000000000   JERINGA 3PARTES C/A 10ML REF JEHL005 CAJ X 100 ALFASAFE  21GX1 PULG 1/2 PULG BN EXENTO-DC.417/202PZA    15
CC0001143115935H202100015112726700015112726730/11/20211145    3150055523742196425000024674000001138340000000000000   JERINGA 3PARTES C/A 10ML REF JEHL005 CAJ X 100 ALFASAFE  21GX1 PULG 1/2 PULG BN EXENTO-DC.417/202PZA    10
PE0082549771210H202100015112726700015112726730/11/20211145    3150055523742196425000024674000001138340000000000000   JERINGA 3PARTES C/A 10ML REF JEHL005 CAJ X 100 ALFASAFE  21GX1 PULG 1/2 PULG BN EXENTO-DC.417/202PZA    10
CC0000013887621H202100015112726700015112726730/11/20211145    31500555237421964250000V07A1300000502600000000000000                                                                                AGUA ESTERIL x 10 mlAMP     5
CC0001143115935H202100015112726700015112726730/11/20211145    31500555237421964250000V07A1300000502600000000000000                                                                                AGUA ESTERIL x 10 mlAMP     5
PE0082549771210H202100015112726700015112726730/11/20211145    31500555237421964250000V07A1300000502600000000000000                                                                                AGUA ESTERIL x 10 mlAMP     5
CC0000013887621H202100015112726700015112726730/11/20211145    3150055523742196425000044370800000224140000000000000                                                                                IOBAN 2 90 X 45 6650SIN     1
CC0000013887621H202100015112726700015112726730/11/20211145    3150055523742196425000021221000000226640000000000000                                                                                 CARTUCHO ACT 402-03PZA    10
CC0000013887621H202100015112726700015112726730/11/20211145    3150055523742196425000011127400001413910000000000000                                                            EQUIPO ADMINIST NUTR PUNZON REF 674669 BBOL     1
CC0000013887621H202100015112726700015112726730/11/20211145    3150055523742196425000045136100001419300000000000000                                                                            LANCETA DEXTROMETER X UNPZA     3
CC0001143115935H202100015112726700015112726730/11/20211145    3150055523742196425000045136100001419300000000000000                                                                            LANCETA DEXTROMETER X UNPZA     3
PE0082549771210H202100015112726700015112726730/11/20211145    3150055523742196425000045136100001419300000000000000                                                                            LANCETA DEXTROMETER X UNPZA     3
CC0000013887621H202100015112726700015112726730/11/20211145    31500555237421964250000E1AD0300000199490000000000000                                         LACTATO RINGER USP (HARTMANN)  SOL INY  BOL X 1000ML BAXTERBIN     2
CC0001143115935H202100015112726700015112726730/11/20211145    31500555237421964250000E1AD0300000199490000000000000                                         LACTATO RINGER USP (HARTMANN)  SOL INY  BOL X 1000ML BAXTERBIN     2
PE0082549771210H202100015112726700015112726730/11/20211145    31500555237421964250000E1AD0300000199490000000000000                                         LACTATO RINGER USP (HARTMANN)  SOL INY  BOL X 1000ML BAXTERBIN     2
CC0000013887621H202100015112726700015112726730/11/20211145    3150055523742196425000011137100001419310000000000000                                                               TIRA GLUCOMETRIA FREESTYLE H OPTIUM .PZA     3
CC0001143115935H202100015112726700015112726730/11/20211145    3150055523742196425000011137100001419310000000000000                                                               TIRA GLUCOMETRIA FREESTYLE H OPTIUM .PZA     3
PE0082549771210H202100015112726700015112726730/11/20211145    3150055523742196425000011137100001419310000000000000                                                               TIRA GLUCOMETRIA FREESTYLE H OPTIUM .PZA     3
CC0000019490174H202100015112726700015112726730/11/20211145    31500555237421964250000E1AB0200000199290000000000000                                                            SOLUCION SALINA 0.9% SLN INY BO X 100 MLBIN    10
CC0000019490174H202100015112726700015112726730/11/20211145    31500555237421964250000Q1A13500001585200000000000000                        JERINGA PUNTA CAT SIN AGUJA REF 309620 CAJ X 40   50ML BN EXENTO-DC.417/2020SOB     1
CC0000019490174H202100015112726700015112726730/11/20211145    3150055523742196425000024674000001138340000000000000   JERINGA 3PARTES C/A 10ML REF JEHL005 CAJ X 100 ALFASAFE  21GX1 PULG 1/2 PULG BN EXENTO-DC.417/202PZA    10
CC0000019490174H202100015112726700015112726730/11/20211145    31500555237421964250000V07A1300000502600000000000000                                                                                AGUA ESTERIL x 10 mlAMP     5
CC0000019490174H202100015112726700015112726730/11/20211145    3150055523742196425000011127400001413910000000000000                                                            EQUIPO ADMINIST NUTR PUNZON REF 674669 BBOL     1
CC0000019490174H202100015112726700015112726730/11/20211145    3150055523742196425000045136100001419300000000000000                                                                            LANCETA DEXTROMETER X UNPZA     3
CC0000019490174H202100015112726700015112726730/11/20211145    31500555237421964250000E1AD0300000199490000000000000                                         LACTATO RINGER USP (HARTMANN)  SOL INY  BOL X 1000ML BAXTERBIN     2
CC0000019490174H202100015112726700015112726730/11/20211145    3150055523742196425000011137100001419310000000000000                                                               TIRA GLUCOMETRIA FREESTYLE H OPTIUM .PZA     3
CC0001129489867H202100015112726700015112726730/11/20211145    31500555237421964250000Q1AA7300000610640000000000000                                                            CATETER PERIFE INTROCAN # 22G 4251628-04SIN     1
CC0001129489867H202100015112726700015112726730/11/20211145    31500555237421964250000Q1AA7200000610630000000000000                                                            CATETER PERIFE INTROCAN # 20G 4251644-04SIN     1
