RC0001042269927U202100918149111200918149111212/11/20211251    3150029423942196432000011082700001620070000000000000                                                               EQUIPO SET PRIMARIO C/CLAVE REF 14001BOL     1
RC0001042269927U202100918149111200918149111212/11/20211251    3150029423942196432000024674000001138340000000000000   JERINGA 3PARTES C/A 10ML REF JEHL005 CAJ X 100 ALFASAFE  21GX1 PULG 1/2 PULG BN EXENTO-DC.417/202PZA     1
RC0001042269927U202100918149111200918149111212/11/20211251    3150029423942196432000030936900001431840000000000000                                                                                              BURETABOL     1
RC0001042269927U202100918149111200918149111212/11/20211251    31500294239421964320000E1AA0800000322190000000000000                                                                          DEXTROSA 5% Sln Iny 250 mlBIN     1
