TI0001042246643U202100165922111500165922111515/11/20211842    3190201023942196432000011082700001620070000000000000                                                               EQUIPO SET PRIMARIO C/CLAVE REF 14001BOL     1
TI0001042246643U202100165922111500165922111515/11/20211842    3190201023942196432000016830000000970620000000000000                                                             SIST FIJACION CAT PERIFERICO 6.5X7 1683SOB     1
TI0001042246643U202100165922111500165922111515/11/20211842    3190201023942196432000030936900001431840000000000000                                                                                              BURETABOL     1
TI0001042246643U202100165922111500165922111515/11/20211842    3190201023942196432000001956000001620610000000000000                                                                      CONECTOR MICRO CLAVE LAT-MC100SOB     1
TI0001042246643U202100165922111500165922111515/11/20211842    31902010239421964320000Q1AA7400003911720000000000000                                                            CATETER PERIFE INTROCAN # 24G 4251601-04SOB     1
TI0001042246643U202100165922111500165922111515/11/20212118    3190315823942196432000024673600000222980000000000000                                                                     JERINGA DESECHABLE 5 ml 27*11/2SIN     3
