CC0000001972325U202100920540112800920540112828/11/20211042    3150051423942196432000036441300000236540000000000000                                                                    JERINGA 1 ML GASES ARTERIAL 9023SIN     1
CC0000001972325U202100920540112800920540112828/11/20211153    3150051423942196432000035639600001014740000000000000                                                                              MASCARA VENTURY ADULTOBOL     1
CC0000001972325U202100920540112800920540112828/11/20211752    3190232723942196432000011082700001620070000000000000                                                               EQUIPO SET PRIMARIO C/CLAVE REF 14001BOL     1
CC0000001972325U202100920540112800920540112828/11/20211752    3190232723942196432000024674000001138340000000000000   JERINGA 3PARTES C/A 10ML REF JEHL005 CAJ X 100 ALFASAFE  21GX1 PULG 1/2 PULG BN EXENTO-DC.417/202PZA     2
CC0000001972325U202100920540112800920540112828/11/20211752    3190232723942196432000030936900001431840000000000000                                                                                              BURETABOL     1
CC0000001972325U202100920540112800920540112828/11/20211752    31902327239421964320000E1AD0300000199490000000000000                                         LACTATO RINGER USP (HARTMANN)  SOL INY  BOL X 1000ML BAXTERBIN     1
