RC0001043710353U202100911600111800911600111818/11/20211458    3150061723942196432000011048600000223020000000000000                                                                 JERINGA VACUNACION 3ML C/AGU 302542SIN     2
RC0001043710353U202100911600111800911600111818/11/20211458    3150061723942196432000011089200001083340000000000000                                                              GUANTE ESTERIL LATEX S/POLVO TALLA 7.0SOB     6
RC0001043710353U202100911600111800911600111818/11/20211458    3150061723942196432000024674000001138340000000000000   JERINGA 3PARTES C/A 10ML REF JEHL005 CAJ X 100 ALFASAFE  21GX1 PULG 1/2 PULG BN EXENTO-DC.417/202PZA     2
RC0001043710353U202100911600111800911600111818/11/20211458    3150061723942196432000038568300000257010000000000000                                                                                   SONDA NELATON #08SIN     1
