CC0001045742849U202100000555393000000555393005/11/20212204    31902712239421964320000E1AB0300003888390000000000000                                                            SOLUCION SALINA 0.9% SLN INY BO X 500 MLBOL     1
CC0001045742849U202100000555393000000555393005/11/20210444    31500589239421964320000E1AB0300003888390000000000000                                                            SOLUCION SALINA 0.9% SLN INY BO X 500 MLBOL     1
CC0001045742849U202100000555393000000555393005/11/20211853     3300010239421964320000N2AX1200001071490000000000000                                                                             TRAMADOL SLN INY 100 MGAMP     1
CC0001045742849U202100000555393000000555393005/11/20211254     3300010239421964320000N2AX1200001071490000000000000                                                                             TRAMADOL SLN INY 100 MGAMP     1
CC0001045742849U202100000555393000000555393005/11/20211254     3300010239421964320000N2BE2200001252930000000000000                                                                             ACETAMINOFEN Tab 500 MGTAB     2
CC0001045742849U202100000555393000000555393005/11/20211853     3300010239421964320000N2BB0100001672010000000000000                                  DIPIRONA 1GR/2ML(0.5GR/ML) SOL INY INST CAJ X 100AMP X 2ML VITALISAMP     2
CC0001045742849U202100000555393000000555393005/11/20211601     3300010239421964320000N2BB0100001672010000000000000                                  DIPIRONA 1GR/2ML(0.5GR/ML) SOL INY INST CAJ X 100AMP X 2ML VITALISAMP     1
CC0001045742849U202100000555393000000555393005/11/20211254     3300010239421964320000N2BB0100001672010000000000000                                  DIPIRONA 1GR/2ML(0.5GR/ML) SOL INY INST CAJ X 100AMP X 2ML VITALISAMP     1
CC0001045742849U202100000555393000000555393005/11/20211034     3300010239421964320000N2AX0900001672040000000000000                                                                              TRAMADOL SLN INY 50 MGAMP     1
CC0001045742849U202100000555393000000555393005/11/20211217     3300010239421964320000N05BA400001313880000000000000                                                                           ALPRAZOLAM 0.5 MG TABLETATAB     1
