PE0082549771210H202100015112727200015112727230/11/20211607    3150007223742196425000001956000001620610000000000000                                                                      CONECTOR MICRO CLAVE LAT-MC100SOB     2
PE0082549771210H202100015112727200015112727230/11/20211607    3150007223742196425000011112300000520410000000000000                                                               CATETER RECTO MEDCOM BILUMEN XTP116MTBIN     1
PE0082549771210H202100015112727200015112727230/11/20211607    3150007223742196425000043879200001138180000000000000                                                                                   HOJA BISTURI # 11SOB     1
PE0082549771210H202100015112727200015112727230/11/20211607    3150007223742196425000042743200003929860000000000000                   GASA ADHESIVA STRETCH REF 02038-00 ROL X 10MT FIXOMULL 15CM BN EXENTO-DC.417/2020CMT    40
PE0082549771210H202100015112727200015112727230/11/20211607    3150007223742196425000011089100001083330000000000000                                                              GUANTE ESTERIL LATEX S/POLVO TALLA 6.5SOB     1
PE0082549771210H202100015112727200015112727230/11/20211607    3150007223742196425000011085200001585390000000000000                                                                       GUANTE QUIRURGICO TALLA 7 1/2SOB     1
PE0082549771210H202100015112727200015112727230/11/20211607    3150007223742196425000011085300001082140000000000000                                                                           GUANTE QUIRURGICO TALLA 8SOB     1
PE0082549771210H202100015112727200015112727230/11/20211607    3150007223742196425000018351700000232890000000000000                                                                                SEDA 3-0 FS1 45 184TSIN     1
PE0082549771210H202100015112727200015112727230/11/20211607    3150007223742196425000000102400001411250000000000000                                                                           JERINGA DESECHABLE X 50MLSOB     1
PE0082549771210H202100015112727200015112727230/11/20211607    31500072237421964250000E1AB0500003888400000000000000                                                              SOLUCION SALINA 0.9% SLN INY X 1000 MLBOL     4
