CC0000080171241U202100915776112800915776112828/11/20210119    3150025823942196432000016830000000970620000000000000                                                             SIST FIJACION CAT PERIFERICO 6.5X7 1683SOB     1
CC0000080171241U202100915776112800915776112828/11/20210119    3150025823942196432000022426800001140510000000000000                                                                    EQUIPO MACROGOTEO BAXTER MRC0001SOB     1
CC0000080171241U202100915776112800915776112828/11/20210119    3150025823942196432000024673600000222980000000000000                                                                     JERINGA DESECHABLE 5 ml 27*11/2SIN     1
CC0000080171241U202100915776112800915776112828/11/20210119    31500258239421964320000E1AB0700003888350000000000000                                                            SOLUCION SALINA 0.9% SLN INY BO X 250 MLBOL     1
CC0000080171241U202100915776112800915776112828/11/20210119    3150025823942196432000001956000001620610000000000000                                                                      CONECTOR MICRO CLAVE LAT-MC100SOB     1
CC0000080171241U202100915776112800915776112828/11/20210119    31500258239421964320000Q1AA7100000610620000000000000                                                            CATETER PERIFE INTROCAN # 18G 4251687-04SIN     1
