RC0001043494102U202100918962111700918962111717/11/20212051    3190093023942196432000011048600000223020000000000000                                                                 JERINGA VACUNACION 3ML C/AGU 302542SIN     1
RC0001043494102U202100918962111700918962111717/11/20212051    3190093023942196432000011082700001620070000000000000                                                               EQUIPO SET PRIMARIO C/CLAVE REF 14001BOL     1
RC0001043494102U202100918962111700918962111717/11/20212051    3190093023942196432000042753000003929870000000000000                    GASA ADHESIVA STRETCH REF 02036-00 ROL X 10MT FIXOMULL 5CM BN EXENTO-DC.417/2020CMT    20
RC0001043494102U202100918962111700918962111717/11/20212051    3190093023942196432000001956000001620610000000000000                                                                      CONECTOR MICRO CLAVE LAT-MC100SOB     1
RC0001043494102U202100918962111700918962111717/11/20212051    31900930239421964320000Q1AA7400003911720000000000000                                                            CATETER PERIFE INTROCAN # 24G 4251601-04SOB     1
RC0001043494102U202100918962111700918962111717/11/20212051    31900930239421964320000E1AB0300003888390000000000000                                                            SOLUCION SALINA 0.9% SLN INY BO X 500 MLBOL     1
