PE941942408082011U202100050131581800050131581810/11/20210836    3190296823942196432000030936900001431840000000000000                                                                                              BURETABOL     1
PE941942408082011U202100050131581800050131581810/11/20210836    31902968239421964320000Q1AA7300000610640000000000000                                                            CATETER PERIFE INTROCAN # 22G 4251628-04SIN     1
PE941942408082011U202100050131581800050131581810/11/20210836    3190296823942196432000024674000001138340000000000000   JERINGA 3PARTES C/A 10ML REF JEHL005 CAJ X 100 ALFASAFE  21GX1 PULG 1/2 PULG BN EXENTO-DC.417/202PZA     2
PE941942408082011U202100050131581800050131581810/11/20210836    3190296823942196432000000602600001259280000000000000                                                             APOSITO TEGADERM IV PD 1610 5CM X 5.7CMSOB     1
PE941942408082011U202100050131581800050131581810/11/20210836    3190296823942196432000011082700001620070000000000000                                                               EQUIPO SET PRIMARIO C/CLAVE REF 14001BOL     1
PE941942408082011U202100050131581800050131581810/11/20210836    31902968239421964320000E1AD0300000199490000000000000                                         LACTATO RINGER USP (HARTMANN)  SOL INY  BOL X 1000ML BAXTERBIN     1
