CC0000085201893H202100000556038200000556038221/11/20211731     3300010237421964250000A6AC0200001467010000000000000                                                             LACTULAX JARABE 66.7G/100ML SOX15ML /R/SOB     1
CC0000085201893H202100000556038200000556038221/11/20211730     3300010237421964250000A6AC0200001467010000000000000                                                             LACTULAX JARABE 66.7G/100ML SOX15ML /R/SOB     2
CC0000085201893H202100000556038200000556038221/11/20210030     3300009237421964250000A6AC0200001467010000000000000                                                             LACTULAX JARABE 66.7G/100ML SOX15ML /R/SOB     1
CC0000085201893H202100000556038200000556038221/11/20211732     3300010237421964250000B1AB1200003939350000000000000                 ENOXAPARINA SODICA 80MG/0.8ML(100MG/ML) SOL INY INST CAJ X 2JERPREL X 0.8ML TECHDOWJRP     2
CC0000085201893H202100000556038200000556038221/11/20210006     3300009237421964250000B1AB1200003939350000000000000                 ENOXAPARINA SODICA 80MG/0.8ML(100MG/ML) SOL INY INST CAJ X 2JERPREL X 0.8ML TECHDOWJRP     1
CC0000085201893H202100000556038200000556038221/11/20211711    31500305237421964250000E1AD0300000199490000000000000                                         LACTATO RINGER USP (HARTMANN)  SOL INY  BOL X 1000ML BAXTERBIN     3
CC0000085201893H202100000556038200000556038221/11/20210631    31500366237421964250000E1AD0300000199490000000000000                                         LACTATO RINGER USP (HARTMANN)  SOL INY  BOL X 1000ML BAXTERBIN     1
CC0000085201893H202100000556038200000556038221/11/20210541     3300009237421964250000C7AB1000001382030000000000000                                                                   NOREPINEFRINA SLN INY 4 MG / 4 MLAMP     4
CC0000085201893H202100000556038200000556038221/11/20211730     3300010237421964250000J01DA400000360060000000000000                                                              CEFTAZIDIMA POLVO LIOF SLN INY 1 G /R/VAL     1
CC0000085201893H202100000556038200000556038221/11/20210540     3300009237421964250000J01DA400000360060000000000000                                                              CEFTAZIDIMA POLVO LIOF SLN INY 1 G /R/VAL     2
CC0000085201893H202100000556038200000556038221/11/20210007     3300009237421964250000J3CB2100000547740000000000000                                                                      CIPRO IV SLN INY 400 Mg/200 MLFCO     1
CC0000085201893H202100000556038200000556038221/11/20211730     3300010237421964250000J01XA400001212420000000000000                                                               VANCOMICINA POLVO LIOF SLN INY 500 MGVAL     2
CC0000085201893H202100000556038200000556038221/11/20210541     3300009237421964250000J01XA400001212420000000000000                                                               VANCOMICINA POLVO LIOF SLN INY 500 MGVAL     3
CC0000085201893H202100000556038200000556038221/11/20210540     3300009237421964250000J01XA400001212420000000000000                                                               VANCOMICINA POLVO LIOF SLN INY 500 MGVAL     1
CC0000085201893H202100000556038200000556038221/11/20211732     3300010237421964250000N01B0200003888110000000000000                                           ROXICAINA SE 100MG/10ML(1%) SOL INY CAJ X 24AMPACK X 10MLAPC     1
CC0000085201893H202100000556038200000556038221/11/20211730     3300010237421964250000N03AX700001335170000000000000                                                                                LYRICA CAP 50 MG /R/CAP     2
CC0000085201893H202100000556038200000556038221/11/20211724     3300010237421964250000N1AH0200003906560000000000000                                                                     FENTANIL Iny 0.05 mg/ml x 10 mlAMP    10
CC0000085201893H202100000556038200000556038221/11/20211732     3300010237421964250000A06A1700001333140000000000000                                                                                 BISACODILO TAB 5 MGTAB     1
CC0000085201893H202100000556038200000556038221/11/20210030     3300009237421964250000A06A1700001333140000000000000                                                                                 BISACODILO TAB 5 MGTAB     1
CC0000085201893H202100000556038200000556038221/11/20210030     3300009237421964250000C7AB0100001276990000000000000                                                                            BETOPROLOL TAB 50 MG /R/TAB     1
CC0000085201893H202100000556038200000556038221/11/20211732     3300010237421964250000N2BE2200001252930000000000000                                                                             ACETAMINOFEN Tab 500 MGTAB     8
CC0000085201893H202100000556038200000556038221/11/20210006     3300009237421964250000N2BE2200001252930000000000000                                                                             ACETAMINOFEN Tab 500 MGTAB    10
CC0000085201893H202100000556038200000556038221/11/20211732     3300010237421964250000N2AX0900001672040000000000000                                                                              TRAMADOL SLN INY 50 MGAMP     3
CC0000085201893H202100000556038200000556038221/11/20211731     3300010237421964250000N2AX0900001672040000000000000                                                                              TRAMADOL SLN INY 50 MGAMP     1
CC0000085201893H202100000556038200000556038221/11/20210030     3300009237421964250000N2AX0900001672040000000000000                                                                              TRAMADOL SLN INY 50 MGAMP     2
CC0000085201893H202100000556038200000556038221/11/20211732     3300010237421964250000A02BC700001684270000000000000                                                            OMEPRAZOL 40MG POLVO LIOFILIZADO AMPOLLAVAL     2
