CC0000026757787U202100918957111800918957111818/11/20211529    3150025023942196432000011137100001419310000000000000                                                               TIRA GLUCOMETRIA FREESTYLE H OPTIUM .PZA     1
CC0000026757787U202100918957111800918957111818/11/20211529    3150025023942196432000045136100001419300000000000000                                                                            LANCETA DEXTROMETER X UNPZA     1
CC0000026757787U202100918957111800918957111818/11/20211855    3150025023942196432000024672100001609890000000000000                                                            JERINGA INSULINA 1ML TAPA NARANJA JEI013SOB     1
