CC0000072277171U202100901298111000901298111010/11/20211638    3190092023942196432000012460100001656630000000000000                                                                ESPECULO OTOSCOPIO REF 52432  2.75MMPZA     2
CC0000072277171U202100901298111000901298111010/11/20211638    3190092023942196432000016830000000970620000000000000                                                             SIST FIJACION CAT PERIFERICO 6.5X7 1683SOB     1
CC0000072277171U202100901298111000901298111010/11/20211638    3190092023942196432000024674000001138340000000000000   JERINGA 3PARTES C/A 10ML REF JEHL005 CAJ X 100 ALFASAFE  21GX1 PULG 1/2 PULG BN EXENTO-DC.417/202PZA     2
CC0000072277171U202100901298111000901298111010/11/20211638    3190092023942196432000001956000001620610000000000000                                                                      CONECTOR MICRO CLAVE LAT-MC100SOB     1
CC0000072277171U202100901298111000901298111010/11/20211638    31900920239421964320000Q1AA7200000610630000000000000                                                            CATETER PERIFE INTROCAN # 20G 4251644-04SIN     1
