CC0001140834469U202100920702112900920702112929/11/20211502    3150056523942196432000011082700001620070000000000000                                                               EQUIPO SET PRIMARIO C/CLAVE REF 14001BOL     1
CC0001140834469U202100920702112900920702112929/11/20211502    3150056523942196432000011137100001419310000000000000                                                               TIRA GLUCOMETRIA FREESTYLE H OPTIUM .PZA     1
CC0001140834469U202100920702112900920702112929/11/20211502    3150056523942196432000016830000000970620000000000000                                                             SIST FIJACION CAT PERIFERICO 6.5X7 1683SOB     1
CC0001140834469U202100920702112900920702112929/11/20211502    3150056523942196432000024674000001138340000000000000   JERINGA 3PARTES C/A 10ML REF JEHL005 CAJ X 100 ALFASAFE  21GX1 PULG 1/2 PULG BN EXENTO-DC.417/202PZA     2
CC0001140834469U202100920702112900920702112929/11/20211502    3150056523942196432000030936900001431840000000000000                                                                                              BURETABOL     1
CC0001140834469U202100920702112900920702112929/11/20211502    3150056523942196432000045136100001419300000000000000                                                                            LANCETA DEXTROMETER X UNPZA     1
CC0001140834469U202100920702112900920702112929/11/20211502    3150056523942196432000001956000001620610000000000000                                                                      CONECTOR MICRO CLAVE LAT-MC100SOB     1
CC0001140834469U202100920702112900920702112929/11/20211502    31500565239421964320000Q1AA7200000610630000000000000                                                            CATETER PERIFE INTROCAN # 20G 4251644-04SIN     1
CC0001140834469U202100920702112900920702112929/11/20211502    31500565239421964320000E1AD0300000199490000000000000                                         LACTATO RINGER USP (HARTMANN)  SOL INY  BOL X 1000ML BAXTERBIN     2
