CC0001140875648U202100920516112900920516112929/11/20211715    3190135523942196432000011082700001620070000000000000                                                               EQUIPO SET PRIMARIO C/CLAVE REF 14001BOL     1
CC0001140875648U202100920516112900920516112929/11/20211715    3190135523942196432000030936900001431840000000000000                                                                                              BURETABOL     1
CC0001140875648U202100920516112900920516112929/11/20211715    31901355239421964320000E1AB1100003888280000000000000                                                                        SOLUCION SALINA 0.9% X 50 mlBOL     1
