CC0001140847283U202100916376112400916376112424/11/20211850    31500665239421964320000E1AD0300000199490000000000000                                         LACTATO RINGER USP (HARTMANN)  SOL INY  BOL X 1000ML BAXTERBIN     1
CC0001140847283U202100916376112400916376112424/11/20212003    3190233623942196432000013077800000471960000000000000                                                             GASA NO TEJIDA EST 7.5 X 7.5 SOB X 3 UNSOB     3
CC0001140847283U202100916376112400916376112424/11/20212003    3190233623942196432000024674000001138340000000000000   JERINGA 3PARTES C/A 10ML REF JEHL005 CAJ X 100 ALFASAFE  21GX1 PULG 1/2 PULG BN EXENTO-DC.417/202PZA     4
CC0001140847283U202100916376112400916376112424/11/20212003    3190233623942196432000038568500000256950000000000000                                                                                   SONDA NELATON #12SIN     1
CC0001140847283U202100916376112400916376112424/11/20212003    3190233623942196432000043485100001618510000000000000                GUANTE QUIRURGICO DE LATEX REF 2D72N65X CAJ X 50 PROTEXIS  6.5 BN EXENTO-DC.417/2020SOB     2
CC0001140847283U202100916376112400916376112424/11/20212003    31902336239421964320000E1AB0200000199290000000000000                                                            SOLUCION SALINA 0.9% SLN INY BO X 100 MLBIN     1
