CE0000000945568A202100000027747100000027747119/11/20211325    3190333624042196419000034366500000269180000000000000                               INSPIROMETRO INCENTIVO RESPIRATORIO CAJ X 1 RSB BN EXENTO-DC.417/2020CAJ     1
CE0000000945568A202100000027747100000027747119/11/20211325    3190333624042196419000000601900000258430000000000000                                                            APOSITO OPSIT POST -OP 0714  25CM X 10CMSIN     1
CE0000000945568A202100000027747100000027747119/11/20211325    3190333624042196419000000602000000258640000000000000                                                            APOSITO OPSITE POST OP 4463  6.5CM X 5CMSIN     4
CE0000000945568A202100000027747100000027747119/11/20211325    3190333624042196419000042743400003929880000000000000                                    CINTA ADHESIVA TRANSPARENT REF 72216-01 ROL X 10MT FIXOMULL 10CMCMT    55
CE0000000945568A202100000027747100000027747119/11/20211325    3190333624042196419000000504900001148610000000000000                                                            SUTURA V-LOC 180 GS21 37MM REF VLOCL0316PZA     1
CE0000000945568A202100000027747100000027747119/11/20211325    31903336240421964190000N01B1300001195250000000000000                                                                         BUPIROP 0.5% S/EPIN X 10 MLAMP     4
CE0000000945568A202100000027747100000027747119/11/20211325    3190333624042196419000000342100004008700000000000000DISPOSITIVO CIERRE HERID V-20 REF VLOCL0614 CAJ X 12 V-LOC 180 30CM - 3-0 VERDE BN EXENTO-DC.417/202SOB     1
CE0000000945568A202100000027747100000027747119/11/20211325    3190333624042196419000011099300000777780000000000000                                                                     FILTRO BACTERIANO VIRICO ADULTOBOL     1
CE0000000945568A202100000027747100000027747119/11/20211325    3190333624042196419000053074400000607910000000000000                                                               GASA ESTERIL 10*10 SOBRE X 3 UNIDADESSOB     2
CE0000000945568A202100000027747100000027747119/11/20211325    3190333624042196419000035639600001014740000000000000                                                                              MASCARA VENTURY ADULTOBOL     1
CE0000000945568A202100000027747100000027747119/11/20211325    31903336240421964190000K0960000001052020000000000000                                                            RECARGA ARTICULABLE 60 PURPURA EGIA60AMTPZA     2
CE0000000945568A202100000027747100000027747119/11/20211325    3190333624042196419000011069100001318210000000000000                                                            TROCAR VERSAPORT BLA OPTICAL 5MM ONB5STFPZA     1
CE0000000945568A202100000027747100000027747119/11/20211325    3190333624042196419000045303900000232380000000000000                                                                   LIGACLIP MED/LARG LT300 VERDE X 6SIN     3
CE0000000945568A202100000027747100000027747119/11/20211325    3190333624042196419000015994600000632480000000000000                                                                          MONOCRYL 4-0 PS-2 45 Y496GSIN     2
CE0000000945568A202100000027747100000027747119/11/20211325    3190333624042196419000000501000004008660000000000000  SUTURA ABSORB TRENZADA GU-46 REF UL-878 CAJ X 36 POLYSORB 75CM - 2-0 VIOLETA BN EXENTO-DC.417/2020SIN     1
CE0000000945568A202100000027747100000027747119/11/20211325    3190333624042196419000018351100000232850000000000000                                                                                 SEDA 2-0 SC-26 185TSIN     1
CE0000000945568A202100000027747100000027747119/11/20211325    3190333624042196419000000502100004005510000000000000SUTURA SINT NO ABSORBIBLE V-20 REF VP-522-X CAJ X 36 SURGIPRO II 90CM - 3-0 AZUL BN EXENTO-DC.417/20SIN     1
CE0000000945568A202100000027747100000027747119/11/20211325    3190333624042196419000019487500000602970000000000000                                                                           VICRYL 2-0 CT1 90 VCP345HSIN     1
CE0000000945568A202100000027747100000027747119/11/20211325    3190333624042196419000043879100001138200000000000000                                                                  HOJA BISTURI # 15 CSSB 15 01002003SOB     1
CE0000000945568A202100000027747100000027747119/11/20211325    3190333624042196419000021052200000380370000000000000                                                                        RESERVORIO J-VAC 100 ml 2160PZA     1
CE0000000945568A202100000027747100000027747119/11/20211325    3190333624042196419000022310000000376030000000000000                                                                      DRENA BLAKE 1/4 19 FR 2231 J&JPZA     1
CE0000000945568A202100000027747100000027747119/11/20211325    3190333624042196419000013077800000471960000000000000                                                             GASA NO TEJIDA EST 7.5 X 7.5 SOB X 3 UNSOB     2
CE0000000945568A202100000027747100000027747119/11/20211325    3190333624042196419000045138000001413890000000000000                                                                       LAPIZ ELECTROBISTURI  SOB X 1SOB     1
CE0000000945568A202100000027747100000027747119/11/20211325    3190333624042196419000022424500000236720000000000000                                                                     EQUIPO EN Y IRRIGA ARC4005 4006SOB     1
CE0000000945568A202100000027747100000027747119/11/20211325    31903336240421964190000N1BA0300000217900000000000000                                                                    BUPIROP 0.5% C/E Sln Iny x 20 mlVAL     1
CE0000000945568A202100000027747100000027747119/11/20211325    3190333624042196419000049059800000267410000000000000                                                                 MEDIA ANTIEMBOLICA TAL L 3634LF PARBOL     1
CE0000000945568A202100000027747100000027747119/11/20211325    31903336240421964190000J01DA300001239950000000000000                                                            CEFAZOLINA SODICA POLVO LIOF SLN INY 1 GVAL     1
CE0000000945568A202100000027747100000027747119/11/20211325    3190333624042196419000015638600001533360000000000000                                                           MAQUINA AFEITAR   MINORA PAQ X 24 II PLUSPZA     1
CE0000000945568A202100000027747100000027747119/11/20211325    3190333624042196419000016830000000970620000000000000                                                             SIST FIJACION CAT PERIFERICO 6.5X7 1683SOB     1
CE0000000945568A202100000027747100000027747119/11/20211325    31903336240421964190000Q1AA7100000610620000000000000                                                            CATETER PERIFE INTROCAN # 18G 4251687-04SIN     1
CE0000000945568A202100000027747100000027747119/11/20211325    3190333624042196419000035356500003919000000000000000                                                                                        LLAVE 3 VIASSOB     1
CE0000000945568A202100000027747100000027747119/11/20211325    3190333624042196419000022425200000548240000000000000                       EXTENSION DE ANESTESIA REF 1139 SOB X 1 SHERLEG  ADULTO BN EXENTO-DC.417/2020SIN     1
CE0000000945568A202100000027747100000027747119/11/20211325    3190333624042196419000022426800001140510000000000000                                                                    EQUIPO MACROGOTEO BAXTER MRC0001SOB     1
CE0000000945568A202100000027747100000027747119/11/20211325    3190333624042196419000020750600000296780000000000000                                                                PLACA ELECTRO RETORNO PACIENTE E7506SIN     1
CE0000000945568A202100000027747100000027747119/11/20211325    31903336240421964190000N1BA1900000554750000000000000                                                                     ROXICAINA JALEA 2% TUBO X 30 MLTUB     1
CE0000000945568A202100000027747100000027747119/11/20211325    3190333624042196419000038570000001123500000000000000                                                                              SONDA FOLEY #16 2 VIASSOB     1
CE0000000945568A202100000027747100000027747119/11/20211325    3190333624042196419000031188000000236790000000000000                                                                                     CISTOFLO ADULTOSIN     1
CE0000000945568A202100000027747100000027747119/11/20211325    3190333624042196419000030161400001459220000000000000                                                                       MANGUERA SUCCION 6 MM*3.1 MTSSOB     2
CE0000000945568A202100000027747100000027747119/11/20211325    3190333624042196419000011073300001096420000000000000                                                                BOLSA DE SUCCION DE FLUIDOS x 2500mLBOL     1
CE0000000945568A202100000027747100000027747119/11/20211325    3190333624042196419000024674500000322810000000000000                                                                   JERINGA DESECHABLE 20 ml 21*1 1/2SIN     2
CE0000000945568A202100000027747100000027747119/11/20211325    3190333624042196419000024674000001138340000000000000   JERINGA 3PARTES C/A 10ML REF JEHL005 CAJ X 100 ALFASAFE  21GX1 PULG 1/2 PULG BN EXENTO-DC.417/202PZA     2
CE0000000945568A202100000027747100000027747119/11/20211325    3190333624042196419000024673600000222980000000000000                                                                     JERINGA DESECHABLE 5 ml 27*11/2SIN     2
CE0000000945568A202100000027747100000027747119/11/20211325    3190333624042196419000011085100001082120000000000000                                                                           GUANTE QUIRURGICO TALLA 7SOB     4
CE0000000945568A202100000027747100000027747119/11/20211325    3190333624042196419000043485100001618510000000000000                GUANTE QUIRURGICO DE LATEX REF 2D72N65X CAJ X 50 PROTEXIS  6.5 BN EXENTO-DC.417/2020SOB     6
CE0000000945568A202100000027747100000027747119/11/20211325    3190333624042196419000039175100001072060000000000000                                                                           TUBO ENDOTRAQUEAL C/B 7.5SOB     1
CE0000000945568A202100000027747100000027747119/11/20211325    3190333624042196419000051515500000598160000000000000                                                                            MASCARILLA ANESTESIA # 5SIN     1
CE0000000945568A202100000027747100000027747119/11/20211325    3190333624042196419000038568100000258050000000000000                                                                         CANULA OXIGENO NASAL ADULTOSIN     1
CE0000000945568A202100000027747100000027747119/11/20211325    31903336240421964190000E1AD0200003888320000000000000                                                                              HARTMAN SLN INY 500 MLBOL     2
CE0000000945568A202100000027747100000027747119/11/20211325    31903336240421964190000E1AB0500003888400000000000000                                                              SOLUCION SALINA 0.9% SLN INY X 1000 MLBOL     1
CE0000000945568A202100000027747100000027747119/11/20211325    31903336240421964190000E1AB0300003888390000000000000                                                            SOLUCION SALINA 0.9% SLN INY BO X 500 MLBOL     1
CE0000000945568A202100000027747100000027747119/11/20211325    31903336240421964190000E1AB0700003888350000000000000                                                            SOLUCION SALINA 0.9% SLN INY BO X 250 MLBOL     1
CE0000000945568A202100000027747100000027747119/11/20211325    31903336240421964190000E1AB0200000199290000000000000                                                            SOLUCION SALINA 0.9% SLN INY BO X 100 MLBIN     1
CE0000000945568A202100000027747100000027747119/11/20211325    31903336240421964190000A3BB0300000512950000000000000                                                             BUSCAPINA COMP Sln Iny 20 mg+2.5 g/5 mlAMP     1
CE0000000945568A202100000027747100000027747119/11/20211325    31903336240421964190000M01A0400001341250000000000000                                                                              DYNASTAT AMP 40 MG /R/VAL     1
CE0000000945568A202100000027747100000027747119/11/20211325    31903336240421964190000N02B1100001464120000000000000                                           PARACETAMOL EP 1000MG/100ML(10MG/ML) SOL INY  CAJ X 10FCOVAL     1
CE0000000945568A202100000027747100000027747119/11/20211325    31903336240421964190000H02AB500001664950000000000000                                                            DEXAMETASONA SLN INY 8 MG/2 ML AMP /CDS/AMP     1
CE0000000945568A202100000027747100000027747119/11/20211325    31903336240421964190000A2BC0900000200150000000000000                                                                               ORAZOLE Sln Iny 40 mgCIN     1
CE0000000945568A202100000027747100000027747119/11/20211325    31903336240421964190000A04AA200003932460000000000000                                                 ONDAX 4MG/2ML(2MG/ML) SOL INY INST CAJ X 1AMP X 2MLAMP     1
CE0000000945568A202100000027747100000027747119/11/20211325    31903336240421964190000C01C0300001261020000000000000                                                               ETILEFRINA HCL SLN INY 10 MG/1 ML /R/AMP     1
CE0000000945568A202100000027747100000027747119/11/20211325    31903336240421964190000N01A0400003939010000000000000                                               MAYOPROFOL 200MG/20ML(1%) EMUL INY CAJ X 1VIAL X 20MLVAL     1
CE0000000945568A202100000027747100000027747119/11/20211325    31903336240421964190000M3AC0600000720540000000000000                                                                         ESMERON SLN INY 50 MG /5 MLVAL     1
CE0000000945568A202100000027747100000027747119/11/20211325    31903336240421964190000N2AA0700001587170000000000000                                                                                 ULTIVA Sln Iny 2 mgVAL     1
