CC0000032747661U202100920807113000920807113030/11/20211625    3150061723942196432000011089200001083340000000000000                                                              GUANTE ESTERIL LATEX S/POLVO TALLA 7.0SOB     1
CC0000032747661U202100920807113000920807113030/11/20211625    3150061723942196432000024674000001138340000000000000   JERINGA 3PARTES C/A 10ML REF JEHL005 CAJ X 100 ALFASAFE  21GX1 PULG 1/2 PULG BN EXENTO-DC.417/202PZA     2
CC0000032747661U202100920807113000920807113030/11/20211831    3150061723942196432000000101000001101640000000000000                                                                  AGUJA DESECHABLE  23G X 1 1/2 PULGSOB     2
