CC0001048216517U202100919336112000919336112020/11/20210628    3150035523942196432000011082700001620070000000000000                                                               EQUIPO SET PRIMARIO C/CLAVE REF 14001BOL     1
CC0001048216517U202100919336112000919336112020/11/20210628    3150035523942196432000016830000000970620000000000000                                                             SIST FIJACION CAT PERIFERICO 6.5X7 1683SOB     2
CC0001048216517U202100919336112000919336112020/11/20210628    3150035523942196432000030936900001431840000000000000                                                                                              BURETABOL     1
CC0001048216517U202100919336112000919336112020/11/20210628    3150035523942196432000031188000000236790000000000000                                                                                     CISTOFLO ADULTOSIN     1
CC0001048216517U202100919336112000919336112020/11/20210628    3150035523942196432000038573100000256880000000000000                                                                                 SONDA NSG LEVIN #18SIN     1
CC0001048216517U202100919336112000919336112020/11/20210628    3150035523942196432000001956000001620610000000000000                                                                      CONECTOR MICRO CLAVE LAT-MC100SOB     1
CC0001048216517U202100919336112000919336112020/11/20210628    31500355239421964320000Q1A13500001585200000000000000                        JERINGA PUNTA CAT SIN AGUJA REF 309620 CAJ X 40   50ML BN EXENTO-DC.417/2020SOB     1
CC0001048216517U202100919336112000919336112020/11/20210628    31500355239421964320000Q1AA7100000610620000000000000                                                            CATETER PERIFE INTROCAN # 18G 4251687-04SIN     2
CC0001048216517U202100919336112000919336112020/11/20210628    31500355239421964320000E1AB0500003888400000000000000                                                              SOLUCION SALINA 0.9% SLN INY X 1000 MLBOL     4
