RC0001084457432U202100920829113000920829113030/11/20211459    3150065823942196432000011048600000223020000000000000                                                                 JERINGA VACUNACION 3ML C/AGU 302542SIN     1
RC0001084457432U202100920829113000920829113030/11/20211459    3150065823942196432000022426800001140510000000000000                                                                    EQUIPO MACROGOTEO BAXTER MRC0001SOB     1
RC0001084457432U202100920829113000920829113030/11/20211459    31500658239421964320000E1AB0300003888390000000000000                                                            SOLUCION SALINA 0.9% SLN INY BO X 500 MLBOL     1
RC0001084457432U202100920829113000920829113030/11/20212200    3150024623942196432000024673600000222980000000000000                                                                     JERINGA DESECHABLE 5 ml 27*11/2SIN     2
RC0001084457432U202100920829113000920829113030/11/20212200    31500246239421964320000E1AC0100000199400000000000000                                                                          SUERO MIXTO Sln Iny 500 mlBIN     2
