RC0001048091742U202100917506110900917506110909/11/20211908    3150015423942196432000011070600001056080000000000000                                                                       TONIMER VIAL MONODOSIS X 5 MLVAL     3
RC0001048091742U202100917506110900917506110909/11/20211908    3150015423942196432000024673600000222980000000000000                                                                     JERINGA DESECHABLE 5 ml 27*11/2SIN     1
RC0001048091742U202100917506110900917506110909/11/20211908    3150015423942196432000035801900001101780000000000000                                                                    NEBULIZADOR C/MASCARA PEDIATRICOSOB     1
RC0001048091742U202100917506110900917506110909/11/20211908    3150015423942196432000038568200000257000000000000000                                                                                   SONDA NELATON #06SIN     1
RC0001048091742U202100917506110900917506110909/11/20211908    31500154239421964320000B05C0200001339660000000000000                                                                        SOLUCION SALINA 0.9% X 10 MLJRP     3
RC0001048091742U202100917506110900917506110909/11/20212128    3150015423942196432000024674000001138340000000000000   JERINGA 3PARTES C/A 10ML REF JEHL005 CAJ X 100 ALFASAFE  21GX1 PULG 1/2 PULG BN EXENTO-DC.417/202PZA     1
RC0001048091742U202100917506110900917506110909/11/20212128    31500154239421964320000E1AB0200000199290000000000000                                                            SOLUCION SALINA 0.9% SLN INY BO X 100 MLBIN     1
