CC0000007411669U202100904565112600904565112626/11/20210114    3190118123942196432000011085200001585390000000000000                                                                       GUANTE QUIRURGICO TALLA 7 1/2SOB     4
CC0000007411669U202100904565112600904565112626/11/20210114    3190118123942196432000013077800000471960000000000000                                                             GASA NO TEJIDA EST 7.5 X 7.5 SOB X 3 UNSOB     5
CC0000007411669U202100904565112600904565112626/11/20210114    3190118123942196432000024674000001138340000000000000   JERINGA 3PARTES C/A 10ML REF JEHL005 CAJ X 100 ALFASAFE  21GX1 PULG 1/2 PULG BN EXENTO-DC.417/202PZA     4
CC0000007411669U202100904565112600904565112626/11/20210114    3190118123942196432000030936900001431840000000000000                                                                                              BURETABOL     1
CC0000007411669U202100904565112600904565112626/11/20210114    31901181239421964320000E1AB0200000199290000000000000                                                            SOLUCION SALINA 0.9% SLN INY BO X 100 MLBIN     1
CC0000007411669U202100904565112600904565112626/11/20210114    31901181239421964320000E1AB0500003888400000000000000                                                              SOLUCION SALINA 0.9% SLN INY X 1000 MLBOL     1
CC0000007411669U202100904565112600904565112626/11/20210322    3190118123942196432000011082700001620070000000000000                                                               EQUIPO SET PRIMARIO C/CLAVE REF 14001BOL     1
