CC0000055220841U202100919413112000919413112020/11/20211454    3150017723942196432000013077800000471960000000000000                                                             GASA NO TEJIDA EST 7.5 X 7.5 SOB X 3 UNSOB     5
CC0000055220841U202100919413112000919413112020/11/20211454    3150017723942196432000024674000001138340000000000000   JERINGA 3PARTES C/A 10ML REF JEHL005 CAJ X 100 ALFASAFE  21GX1 PULG 1/2 PULG BN EXENTO-DC.417/202PZA     2
CC0000055220841U202100919413112000919413112020/11/20211454    3150017723942196432000043485100001618510000000000000                GUANTE QUIRURGICO DE LATEX REF 2D72N65X CAJ X 50 PROTEXIS  6.5 BN EXENTO-DC.417/2020SOB     4
CC0000055220841U202100919413112000919413112020/11/20211454    31500177239421964320000E1AB0200000199290000000000000                                                            SOLUCION SALINA 0.9% SLN INY BO X 100 MLBIN     1
CC0000055220841U202100919413112000919413112020/11/20212221    3190100523942196432000011082700001620070000000000000                                                               EQUIPO SET PRIMARIO C/CLAVE REF 14001BOL     1
CC0000055220841U202100919413112000919413112020/11/20212221    3190100523942196432000013077800000471960000000000000                                                             GASA NO TEJIDA EST 7.5 X 7.5 SOB X 3 UNSOB    15
CC0000055220841U202100919413112000919413112020/11/20212221    3190100523942196432000018354100000232880000000000000                                                                  SUTURA SEDA NEGRA 3-0 KS 75CM 622HSIN     1
CC0000055220841U202100919413112000919413112020/11/20212221    3190100523942196432000021016900000227720000000000000                                                               CATETER TRILUMEN AD CS15703E 7FR*20CMSIN     1
CC0000055220841U202100919413112000919413112020/11/20212221    3190100523942196432000024674000001138340000000000000   JERINGA 3PARTES C/A 10ML REF JEHL005 CAJ X 100 ALFASAFE  21GX1 PULG 1/2 PULG BN EXENTO-DC.417/202PZA     6
CC0000055220841U202100919413112000919413112020/11/20212221    3190100523942196432000030936900001431840000000000000                                                                                              BURETABOL     1
CC0000055220841U202100919413112000919413112020/11/20212221    3190100523942196432000031188000000236790000000000000                                                                                     CISTOFLO ADULTOSIN     1
CC0000055220841U202100919413112000919413112020/11/20212221    3190100523942196432000038570100001124990000000000000                                                                              SONDA FOLEY #18 2 VIASSOB     1
CC0000055220841U202100919413112000919413112020/11/20212221    3190100523942196432000043485100001618510000000000000                GUANTE QUIRURGICO DE LATEX REF 2D72N65X CAJ X 50 PROTEXIS  6.5 BN EXENTO-DC.417/2020SOB     4
CC0000055220841U202100919413112000919413112020/11/20212221    3190100523942196432000043879200001138180000000000000                                                                                   HOJA BISTURI # 11SOB     1
CC0000055220841U202100919413112000919413112020/11/20212221    31901005239421964320000E1AB0200000199290000000000000                                                            SOLUCION SALINA 0.9% SLN INY BO X 100 MLBIN     1
CC0000055220841U202100919413112000919413112020/11/20212221    3190100523942196432000001956000001620610000000000000                                                                      CONECTOR MICRO CLAVE LAT-MC100SOB     3
CC0000055220841U202100919413112000919413112020/11/20212221    31901005239421964320000E1AB0300003888390000000000000                                                            SOLUCION SALINA 0.9% SLN INY BO X 500 MLBOL     1
CC0000055220841U202100919413112000919413112020/11/20212221    31901005239421964320000E1AB0500003888400000000000000                                                              SOLUCION SALINA 0.9% SLN INY X 1000 MLBOL     3
CC0000055220841U202100919413112000919413112020/11/20212224    3190100523942196432000011085200001585390000000000000                                                                       GUANTE QUIRURGICO TALLA 7 1/2SOB     1
