RC0001146544136U202100920203112600920203112626/11/20210638    3190317523942196432000024674000001138340000000000000   JERINGA 3PARTES C/A 10ML REF JEHL005 CAJ X 100 ALFASAFE  21GX1 PULG 1/2 PULG BN EXENTO-DC.417/202PZA     2
RC0001146544136U202100920203112600920203112626/11/20210638    3190317523942196432000038572700000256840000000000000                                                                                 SONDA NSG LEVIN #10SIN     1
RC0001146544136U202100920203112600920203112626/11/20210638    3190317523942196432000043485100001618510000000000000                GUANTE QUIRURGICO DE LATEX REF 2D72N65X CAJ X 50 PROTEXIS  6.5 BN EXENTO-DC.417/2020SOB     2
