CC0000007427206U202100160150111500160150111515/11/20210459    3190100523942196432000011088900001318270000000000000                                                               GUANTE CIRUGIA NITRILO ALFASAFE 7 1/2SOB     4
CC0000007427206U202100160150111500160150111515/11/20210459    3190100523942196432000013077800000471960000000000000                                                             GASA NO TEJIDA EST 7.5 X 7.5 SOB X 3 UNSOB     6
CC0000007427206U202100160150111500160150111515/11/20210459    3190100523942196432000020056600001101530000000000000                                                                AGUJA HIPODERMICA DESECH 18G X 1 1/2SOB     1
CC0000007427206U202100160150111500160150111515/11/20210459    3190100523942196432000024674000001138340000000000000   JERINGA 3PARTES C/A 10ML REF JEHL005 CAJ X 100 ALFASAFE  21GX1 PULG 1/2 PULG BN EXENTO-DC.417/202PZA     2
CC0000007427206U202100160150111500160150111515/11/20210459    31901005239421964320000E1AB0200000199290000000000000                                                            SOLUCION SALINA 0.9% SLN INY BO X 100 MLBIN     1
CC0000007427206U202100160150111500160150111515/11/20210459    31901005239421964320000E1AB0300003888390000000000000                                                            SOLUCION SALINA 0.9% SLN INY BO X 500 MLBOL     1
CC0000007427206U202100160150111500160150111515/11/20212055    3190315823942196432000011082700001620070000000000000                                                               EQUIPO SET PRIMARIO C/CLAVE REF 14001BOL     1
CC0000007427206U202100160150111500160150111515/11/20212055    3190315823942196432000024673600000222980000000000000                                                                     JERINGA DESECHABLE 5 ml 27*11/2SIN     5
CC0000007427206U202100160150111500160150111515/11/20212055    3190315823942196432000030936900001431840000000000000                                                                                              BURETABOL     1
