RC0001158467183H202100015052699500015052699527/10/20212147    3150038323742196425000011082700001620070000000000000                                                               EQUIPO SET PRIMARIO C/CLAVE REF 14001BOL     1
TI0001080436271H202100015052699500015052699527/10/20212147    3150038323742196425000011082700001620070000000000000                                                               EQUIPO SET PRIMARIO C/CLAVE REF 14001BOL     1
RC0001158467183H202100015052699500015052699527/10/20212147    3150038323742196425000030936900001431840000000000000                                                                                              BURETABOL     1
TI0001080436271H202100015052699500015052699527/10/20212147    3150038323742196425000030936900001431840000000000000                                                                                              BURETABOL     1
RC0001158467183H202100015052699500015052699527/10/20212147    31500383237421964250000E1AD0300000199490000000000000                                         LACTATO RINGER USP (HARTMANN)  SOL INY  BOL X 1000ML BAXTERBIN     1
TI0001080436271H202100015052699500015052699527/10/20212147    31500383237421964250000E1AD0300000199490000000000000                                         LACTATO RINGER USP (HARTMANN)  SOL INY  BOL X 1000ML BAXTERBIN     2
CC0000012596135H202100015052699500015052699527/10/20212147    31500383237421964250000E1AB0300003888390000000000000                                                            SOLUCION SALINA 0.9% SLN INY BO X 500 MLBOL     1
CC0001045685077H202100015052699500015052699527/10/20212147    31500383237421964250000E1AB0300003888390000000000000                                                            SOLUCION SALINA 0.9% SLN INY BO X 500 MLBOL     1
CC0000032683043H202100015052699500015052699527/10/20212147    31500383237421964250000E1AB0300003888390000000000000                                                            SOLUCION SALINA 0.9% SLN INY BO X 500 MLBOL     1
CC0001140843079H202100015052699500015052699527/10/20212147    31500383237421964250000E1AB0300003888390000000000000                                                            SOLUCION SALINA 0.9% SLN INY BO X 500 MLBOL     1
CC0001132234000H202100015052699500015052699527/10/20212147    31500383237421964250000E1AB0300003888390000000000000                                                            SOLUCION SALINA 0.9% SLN INY BO X 500 MLBOL     2
CC0001129528161H202100015052699500015052699527/10/20212147    31500383237421964250000E1AB0300003888390000000000000                                                            SOLUCION SALINA 0.9% SLN INY BO X 500 MLBOL     1
CC0001234095566H202100015052699500015052699527/10/20212147    31500383237421964250000E1AB0300003888390000000000000                                                            SOLUCION SALINA 0.9% SLN INY BO X 500 MLBOL     1
CC0000037916302H202100015052699500015052699527/10/20212147    31500383237421964250000E1AB0300003888390000000000000                                                            SOLUCION SALINA 0.9% SLN INY BO X 500 MLBOL     2
