CC0000022426837A202100000027632800000027632827/10/20211711    31903336240421964190000N1BA2400001195280000000000000                                                                    LIDOCAINA 2% S/E Sln Iny x 10 mlAMP     1
CC0000022426837A202100000027632800000027632827/10/20211711    31903336240421964190000Q1AA7200000610630000000000000                                                            CATETER PERIFE INTROCAN # 20G 4251644-04SIN     1
CC0000022426837A202100000027632800000027632827/10/20211711    3190333624042196419000019992300000233100000000000000                                                             VICRYL RAPID INC 3-0 70CM PS2 (VR9923G)SIN     1
CC0000022426837A202100000027632800000027632827/10/20211711    3190333624042196419000000602000000258640000000000000                                                            APOSITO OPSITE POST OP 4463  6.5CM X 5CMSIN     1
CC0000022426837A202100000027632800000027632827/10/20211711    3190333624042196419000045138000001413890000000000000                                                                       LAPIZ ELECTROBISTURI  SOB X 1SOB     1
CC0000022426837A202100000027632800000027632827/10/20211711    3190333624042196419000043879100001138200000000000000                                                                  HOJA BISTURI # 15 CSSB 15 01002003SOB     1
CC0000022426837A202100000027632800000027632827/10/20211711    31903336240421964190000E1AB0300003888390000000000000                                                            SOLUCION SALINA 0.9% SLN INY BO X 500 MLBOL     1
CC0000022426837A202100000027632800000027632827/10/20211711    3190333624042196419000022425200000548240000000000000                       EXTENSION DE ANESTESIA REF 1139 SOB X 1 SHERLEG  ADULTO BN EXENTO-DC.417/2020SIN     1
CC0000022426837A202100000027632800000027632827/10/20211711    3190333624042196419000035356500003919000000000000000                                                                                        LLAVE 3 VIASSOB     1
CC0000022426837A202100000027632800000027632827/10/20211711    3190333624042196419000022426800001140510000000000000                                                                    EQUIPO MACROGOTEO BAXTER MRC0001SOB     1
CC0000022426837A202100000027632800000027632827/10/20211711    3190333624042196419000016830000000970620000000000000                                                             SIST FIJACION CAT PERIFERICO 6.5X7 1683SOB     1
CC0000022426837A202100000027632800000027632827/10/20211711    31903336240421964190000J01DA300001239950000000000000                                                            CEFAZOLINA SODICA POLVO LIOF SLN INY 1 GVAL     2
CC0000022426837A202100000027632800000027632827/10/20211711    3190333624042196419000020750600000296780000000000000                                                                PLACA ELECTRO RETORNO PACIENTE E7506SIN     1
CC0000022426837A202100000027632800000027632827/10/20211711    3190333624042196419000053074400000607910000000000000                                                               GASA ESTERIL 10*10 SOBRE X 3 UNIDADESSOB     2
CC0000022426837A202100000027632800000027632827/10/20211711    3190333624042196419000011085200001585390000000000000                                                                       GUANTE QUIRURGICO TALLA 7 1/2SOB     2
CC0000022426837A202100000027632800000027632827/10/20211711    3190333624042196419000011085100001082120000000000000                                                                           GUANTE QUIRURGICO TALLA 7SOB     3
CC0000022426837A202100000027632800000027632827/10/20211711    3190333624042196419000043485100001618510000000000000                GUANTE QUIRURGICO DE LATEX REF 2D72N65X CAJ X 50 PROTEXIS  6.5 BN EXENTO-DC.417/2020SOB     1
CC0000022426837A202100000027632800000027632827/10/20211711    3190333624042196419000024674000000220660000000000000                             JERINGA A 3 PARTES CON AGUJA  SOB X 1 RYMCO  10ML BN EXENTO-DC.417/2020SIN     2
CC0000022426837A202100000027632800000027632827/10/20211711    3190333624042196419000020058100001101630000000000000                                                                     AGUJA HIPODERMICA DESECH 23 X 1SOB     1
