TI0001073826213H202100015122509100015122509127/10/20211026    31500453237421964250000V07A1300000502600000000000000                                                                                AGUA ESTERIL x 10 mlAMP     8
TI0001044780621H202100015122509100015122509127/10/20211026    31500453237421964250000V07A1300000502600000000000000                                                                                AGUA ESTERIL x 10 mlAMP     8
RC0001187466818H202100015122509100015122509127/10/20211026    31500453237421964250000V07A1300000502600000000000000                                                                                AGUA ESTERIL x 10 mlAMP     8
TI0001047229284H202100015122509100015122509127/10/20211026    31500453237421964250000V07A1300000502600000000000000                                                                                AGUA ESTERIL x 10 mlAMP     8
TI0001044615199H202100015122509100015122509127/10/20211026    31500453237421964250000V07A1300000502600000000000000                                                                                AGUA ESTERIL x 10 mlAMP     8
TI0001046701779H202100015122509100015122509127/10/20211026    31500453237421964250000V07A1300000502600000000000000                                                                                AGUA ESTERIL x 10 mlAMP     8
RC0001043714288H202100015122509100015122509127/10/20211026    31500453237421964250000V07A1300000502600000000000000                                                                                AGUA ESTERIL x 10 mlAMP     8
TI0001047044339H202100015122509100015122509127/10/20211026    31500453237421964250000V07A1300000502600000000000000                                                                                AGUA ESTERIL x 10 mlAMP     8
TI0001073826213H202100015122509100015122509127/10/20211026    3150045323742196425000024673600000222980000000000000                                                                     JERINGA DESECHABLE 5 ml 27*11/2SIN    10
TI0001044780621H202100015122509100015122509127/10/20211026    3150045323742196425000024673600000222980000000000000                                                                     JERINGA DESECHABLE 5 ml 27*11/2SIN    10
RC0001187466818H202100015122509100015122509127/10/20211026    3150045323742196425000024673600000222980000000000000                                                                     JERINGA DESECHABLE 5 ml 27*11/2SIN    10
TI0001047229284H202100015122509100015122509127/10/20211026    3150045323742196425000024673600000222980000000000000                                                                     JERINGA DESECHABLE 5 ml 27*11/2SIN    10
TI0001044615199H202100015122509100015122509127/10/20211026    3150045323742196425000024673600000222980000000000000                                                                     JERINGA DESECHABLE 5 ml 27*11/2SIN    10
TI0001046701779H202100015122509100015122509127/10/20211026    3150045323742196425000024673600000222980000000000000                                                                     JERINGA DESECHABLE 5 ml 27*11/2SIN    10
RC0001043714288H202100015122509100015122509127/10/20211026    3150045323742196425000024673600000222980000000000000                                                                     JERINGA DESECHABLE 5 ml 27*11/2SIN    10
TI0001047044339H202100015122509100015122509127/10/20211026    3150045323742196425000024673600000222980000000000000                                                                     JERINGA DESECHABLE 5 ml 27*11/2SIN    10
RC0001187466818H202100015122509100015122509127/10/20211026    3150045323742196425000011082700001620070000000000000                                                               EQUIPO SET PRIMARIO C/CLAVE REF 14001BOL     4
TI0001046701779H202100015122509100015122509127/10/20211026    3150045323742196425000011082700001620070000000000000                                                               EQUIPO SET PRIMARIO C/CLAVE REF 14001BOL     1
TI0001047044339H202100015122509100015122509127/10/20211026    3150045323742196425000011082700001620070000000000000                                                               EQUIPO SET PRIMARIO C/CLAVE REF 14001BOL     1
RC0001187466818H202100015122509100015122509127/10/20211026    3150045323742196425000030936900001431840000000000000                                                                                              BURETABOL     1
TI0001046701779H202100015122509100015122509127/10/20211026    3150045323742196425000030936900001431840000000000000                                                                                              BURETABOL     1
TI0001047044339H202100015122509100015122509127/10/20211026    3150045323742196425000030936900001431840000000000000                                                                                              BURETABOL     1
TI0001073826213H202100015122509100015122509127/10/20211026    3150045323742196425000000602600001259280000000000000                                                             APOSITO TEGADERM IV PD 1610 5CM X 5.7CMSOB     1
TI0001044780621H202100015122509100015122509127/10/20211026    3150045323742196425000000602600001259280000000000000                                                             APOSITO TEGADERM IV PD 1610 5CM X 5.7CMSOB     1
RC0001187466818H202100015122509100015122509127/10/20211026    3150045323742196425000000602600001259280000000000000                                                             APOSITO TEGADERM IV PD 1610 5CM X 5.7CMSOB     1
TI0001047229284H202100015122509100015122509127/10/20211026    3150045323742196425000000602600001259280000000000000                                                             APOSITO TEGADERM IV PD 1610 5CM X 5.7CMSOB     1
TI0001044615199H202100015122509100015122509127/10/20211026    3150045323742196425000000602600001259280000000000000                                                             APOSITO TEGADERM IV PD 1610 5CM X 5.7CMSOB     1
TI0001046701779H202100015122509100015122509127/10/20211026    3150045323742196425000000602600001259280000000000000                                                             APOSITO TEGADERM IV PD 1610 5CM X 5.7CMSOB     1
RC0001043714288H202100015122509100015122509127/10/20211026    3150045323742196425000000602600001259280000000000000                                                             APOSITO TEGADERM IV PD 1610 5CM X 5.7CMSOB     1
TI0001047044339H202100015122509100015122509127/10/20211026    3150045323742196425000000602600001259280000000000000                                                             APOSITO TEGADERM IV PD 1610 5CM X 5.7CMSOB     1
TI0001073826213H202100015122509100015122509127/10/20211026    3150045323742196425000020056600001101530000000000000                                                                AGUJA HIPODERMICA DESECH 18G X 1 1/2SOB     5
TI0001044780621H202100015122509100015122509127/10/20211026    3150045323742196425000020056600001101530000000000000                                                                AGUJA HIPODERMICA DESECH 18G X 1 1/2SOB     5
RC0001187466818H202100015122509100015122509127/10/20211026    3150045323742196425000020056600001101530000000000000                                                                AGUJA HIPODERMICA DESECH 18G X 1 1/2SOB     5
TI0001047229284H202100015122509100015122509127/10/20211026    3150045323742196425000020056600001101530000000000000                                                                AGUJA HIPODERMICA DESECH 18G X 1 1/2SOB     5
TI0001044615199H202100015122509100015122509127/10/20211026    3150045323742196425000020056600001101530000000000000                                                                AGUJA HIPODERMICA DESECH 18G X 1 1/2SOB     5
TI0001046701779H202100015122509100015122509127/10/20211026    3150045323742196425000020056600001101530000000000000                                                                AGUJA HIPODERMICA DESECH 18G X 1 1/2SOB     5
RC0001043714288H202100015122509100015122509127/10/20211026    3150045323742196425000020056600001101530000000000000                                                                AGUJA HIPODERMICA DESECH 18G X 1 1/2SOB     5
TI0001047044339H202100015122509100015122509127/10/20211026    3150045323742196425000020056600001101530000000000000                                                                AGUJA HIPODERMICA DESECH 18G X 1 1/2SOB     5
TI0001073826213H202100015122509100015122509127/10/20211026    31500453237421964250000E1AD0300000199490000000000000                                         LACTATO RINGER USP (HARTMANN)  SOL INY  BOL X 1000ML BAXTERBIN     1
TI0001044780621H202100015122509100015122509127/10/20211026    31500453237421964250000E1AD0300000199490000000000000                                         LACTATO RINGER USP (HARTMANN)  SOL INY  BOL X 1000ML BAXTERBIN     2
TI0001044615199H202100015122509100015122509127/10/20211026    31500453237421964250000E1AD0300000199490000000000000                                         LACTATO RINGER USP (HARTMANN)  SOL INY  BOL X 1000ML BAXTERBIN    10
TI0001046701779H202100015122509100015122509127/10/20211026    31500453237421964250000E1AD0300000199490000000000000                                         LACTATO RINGER USP (HARTMANN)  SOL INY  BOL X 1000ML BAXTERBIN     5
TI0001047044339H202100015122509100015122509127/10/20211026    31500453237421964250000E1AD0300000199490000000000000                                         LACTATO RINGER USP (HARTMANN)  SOL INY  BOL X 1000ML BAXTERBIN     8
TI0001073826213H202100015122509100015122509127/10/20211026    31500453237421964250000E1AB0300003888390000000000000                                                            SOLUCION SALINA 0.9% SLN INY BO X 500 MLBOL     1
RC0001187466818H202100015122509100015122509127/10/20211026    31500453237421964250000E1AB0300003888390000000000000                                                            SOLUCION SALINA 0.9% SLN INY BO X 500 MLBOL     1
TI0001046701779H202100015122509100015122509127/10/20211026    31500453237421964250000E1AB0300003888390000000000000                                                            SOLUCION SALINA 0.9% SLN INY BO X 500 MLBOL     1
RC0001043714288H202100015122509100015122509127/10/20211026    31500453237421964250000E1AB0300003888390000000000000                                                            SOLUCION SALINA 0.9% SLN INY BO X 500 MLBOL     1
TI0001047044339H202100015122509100015122509127/10/20211026    31500453237421964250000E1AB0300003888390000000000000                                                            SOLUCION SALINA 0.9% SLN INY BO X 500 MLBOL     1
TI0001073826213H202100015122509100015122509127/10/20211026    31500453237421964250000E1AB0700003888350000000000000                                                            SOLUCION SALINA 0.9% SLN INY BO X 250 MLBOL     1
RC0001187466818H202100015122509100015122509127/10/20211026    31500453237421964250000E1AA0100003888590000000000000                                                                        DEXTROSA 5% Sln Iny X 500 mlBOL     1
