CC0001082870361U202100000555045600000555045627/10/20212348    31902800239421964320000E1AB0200000199290000000000000                                                            SOLUCION SALINA 0.9% SLN INY BO X 100 MLBIN     1
CC0001082870361U202100000555045600000555045627/10/20212323     3300004239421964320000J7AA0600001602890000000000000                                                            VACUNA ANTITETANICA SUSP INY 40 UI/0.5MLVAL     1
CC0001082870361U202100000555045600000555045627/10/20212322     3300004239421964320000N01B0200003888110000000000000                                           ROXICAINA SE 100MG/10ML(1%) SOL INY CAJ X 24AMPACK X 10MLAPC     1
