CC0001002076835H202100015012566100015012566127/10/20211016    3150007523742196425000011082700001620070000000000000                                                               EQUIPO SET PRIMARIO C/CLAVE REF 14001BOL     1
CC0001002076835H202100015012566100015012566127/10/20211016    3150007523742196425000001956000001620610000000000000                                                                      CONECTOR MICRO CLAVE LAT-MC100SOB     1
CC0001002076835H202100015012566100015012566127/10/20211016    31500075237421964250000Q1AA7300000610640000000000000                                                            CATETER PERIFE INTROCAN # 22G 4251628-04SIN     1
PA0000585264718H202100015012566100015012566127/10/20211016    3150007523742196425000030936900001431840000000000000                                                                                              BURETABOL     1
CC0001002076835H202100015012566100015012566127/10/20211016    3150007523742196425000030936900001431840000000000000                                                                                              BURETABOL     1
CC0001002076835H202100015012566100015012566127/10/20211016    3150007523742196425000016830000000970620000000000000                                                             SIST FIJACION CAT PERIFERICO 6.5X7 1683SOB     1
PA0000585264718H202100015012566100015012566127/10/20211016    31500075237421964250000E1AD0300000199490000000000000                                         LACTATO RINGER USP (HARTMANN)  SOL INY  BOL X 1000ML BAXTERBIN     4
CC0000008716890H202100015012566100015012566127/10/20211016    31500075237421964250000E1AB0300003888390000000000000                                                            SOLUCION SALINA 0.9% SLN INY BO X 500 MLBOL     1
CC0001002076835H202100015012566100015012566127/10/20211016    31500075237421964250000E1AB0300003888390000000000000                                                            SOLUCION SALINA 0.9% SLN INY BO X 500 MLBOL     2
PA0000673754387H202100015012566100015012566127/10/20211016    31500075237421964250000E1AB0300003888390000000000000                                                            SOLUCION SALINA 0.9% SLN INY BO X 500 MLBOL     2
