CC0000009137445H202100015112648900015112648927/10/20211519    31500532237421964250000V07A1300000502600000000000000                                                                                AGUA ESTERIL x 10 mlAMP    10
CC0000009137445H202100015112648900015112648927/10/20211519    3150053223742196425000024674000000220660000000000000                             JERINGA A 3 PARTES CON AGUJA  SOB X 1 RYMCO  10ML BN EXENTO-DC.417/2020SIN    14
CC0000009137445H202100015112648900015112648927/10/20211519    3150053223742196425000022426800001140510000000000000                                                                    EQUIPO MACROGOTEO BAXTER MRC0001SOB     1
CC0000009137445H202100015112648900015112648927/10/20211519    3150053223742196425000011082700001620070000000000000                                                               EQUIPO SET PRIMARIO C/CLAVE REF 14001BOL     1
CC0000009137445H202100015112648900015112648927/10/20211519    31500532237421964250000E1AD0300000199490000000000000                                         LACTATO RINGER USP (HARTMANN)  SOL INY  BOL X 1000ML BAXTERBIN     3
