CC0000022549015H202100000555007500000555007527/10/20212259     3300009237421964250000A02BC100001677520000000000000                                                                ESOMEPRAZOL POLVO LIOF INY 40 MG /R/VAL     1
CC0000022549015H202100000555007500000555007527/10/20210510     3300010237421964250000A02BC100001677520000000000000                                                                ESOMEPRAZOL POLVO LIOF INY 40 MG /R/VAL     2
CC0000022549015H202100000555007500000555007527/10/20210511     3300010237421964250000A04A1400001467560000000000000                                                                      ONDANSETRON SLN INY 8 MG/ 4 MLVAL     1
CC0000022549015H202100000555007500000555007527/10/20210511     3300010237421964250000B1AB0200003939510000000000000                 ENOXAPARINA SODICA 40MG/0.4ML(100MG/ML) SOL INY INST CAJ X 2JERPREL X 0.4ML TECHDOWJRP     1
CC0000022549015H202100000555007500000555007527/10/20212121    31500566237421964250000E1AB0300003888390000000000000                                                            SOLUCION SALINA 0.9% SLN INY BO X 500 MLBOL     1
CC0000022549015H202100000555007500000555007527/10/20212258     3300009237421964250000J01DA300001239950000000000000                                                            CEFAZOLINA SODICA POLVO LIOF SLN INY 1 GVAL     1
CC0000022549015H202100000555007500000555007527/10/20210510     3300010237421964250000J01DA300001239950000000000000                                                            CEFAZOLINA SODICA POLVO LIOF SLN INY 1 GVAL     1
CC0000022549015H202100000555007500000555007527/10/20210112     3300010237421964250000J01DA300001239950000000000000                                                            CEFAZOLINA SODICA POLVO LIOF SLN INY 1 GVAL     2
CC0000022549015H202100000555007500000555007527/10/20212259     3300009237421964250000N2BB1100000217160000000000000                                                                      NOVALGINA Sln Iny 2.5 g x 5 mlAMP     1
CC0000022549015H202100000555007500000555007527/10/20210511     3300010237421964250000N2BB1100000217160000000000000                                                                      NOVALGINA Sln Iny 2.5 g x 5 mlAMP     2
CC0000022549015H202100000555007500000555007527/10/20210510     3300010237421964250000N2BB1100000217160000000000000                                                                      NOVALGINA Sln Iny 2.5 g x 5 mlAMP     2
CC0000022549015H202100000555007500000555007527/10/20212259     3300009237421964250000N02B1100001169680000000000000                              PARACETAMOL 1000MG/100ML(10MG/ML) SOL INY  VIAL X 100ML FRESENIUS KABIVAL     2
CC0000022549015H202100000555007500000555007527/10/20210511     3300010237421964250000N02B1100001169680000000000000                              PARACETAMOL 1000MG/100ML(10MG/ML) SOL INY  VIAL X 100ML FRESENIUS KABIVAL     3
CC0000022549015H202100000555007500000555007527/10/20212258     3300009237421964250000M1AX0200001569410000000000000                                                                         KETRON SLN INY 30 MG / 2 MLAMP     1
CC0000022549015H202100000555007500000555007527/10/20211959     3300009237421964250000M1AX0200001569410000000000000                                                                         KETRON SLN INY 30 MG / 2 MLAMP     1
CC0000022549015H202100000555007500000555007527/10/20210112     3300010237421964250000M1AX0200001569410000000000000                                                                         KETRON SLN INY 30 MG / 2 MLAMP     2
CC0000022549015H202100000555007500000555007527/10/20210511     3300010237421964250000N03A0800001278440000000000000                                                                                LYRICA CAP 75 MG /R/CAP     1
CC0000022549015H202100000555007500000555007527/10/20211129    31903291237421964250000V07A1300000502600000000000000                                                                                AGUA ESTERIL x 10 mlAMP     5
