RC0001042270713U202100050131399300050131399327/10/20212251    31902800239421964320000Q1A13500001585200000000000000                        JERINGA PUNTA CAT SIN AGUJA REF 309620 CAJ X 40   50ML BN EXENTO-DC.417/2020SOB     1
RC0001042270713U202100050131399300050131399327/10/20212251    3190280023942196432000022426800001140510000000000000                                                                    EQUIPO MACROGOTEO BAXTER MRC0001SOB     1
RC0001042270713U202100050131399300050131399327/10/20212251    31902800239421964320000E1AB0700003888350000000000000                                                            SOLUCION SALINA 0.9% SLN INY BO X 250 MLBOL     1
