CC0000055163818H202100015012567200015012567227/10/20212322    3150023523742196425000011082700001620070000000000000                                                               EQUIPO SET PRIMARIO C/CLAVE REF 14001BOL     1
CC0000055163818H202100015012567200015012567227/10/20212322    3150023523742196425000001956000001620610000000000000                                                                      CONECTOR MICRO CLAVE LAT-MC100SOB     2
PA0000A10575877H202100015012567200015012567227/10/20212322    3150023523742196425000030936900001431840000000000000                                                                                              BURETABOL     1
CC0000055163818H202100015012567200015012567227/10/20212322    3150023523742196425000030936900001431840000000000000                                                                                              BURETABOL     1
CC0000032882199H202100015012567200015012567227/10/20212322    3150023523742196425000030936900001431840000000000000                                                                                              BURETABOL     1
CC0001127533198H202100015012567200015012567227/10/20212322    3150023523742196425000030936900001431840000000000000                                                                                              BURETABOL     1
