CC0001140854465U202100050131393100050131393127/10/20211519    3150039423942196432000024674000000220660000000000000                             JERINGA A 3 PARTES CON AGUJA  SOB X 1 RYMCO  10ML BN EXENTO-DC.417/2020SIN     1
CC0001140854465U202100050131393100050131393127/10/20211519    3150039423942196432000030936900001431840000000000000                                                                                              BURETABOL     1
CC0001140854465U202100050131393100050131393127/10/20211519    31500394239421964320000E1AD0300000199490000000000000                                         LACTATO RINGER USP (HARTMANN)  SOL INY  BOL X 1000ML BAXTERBIN     1
