RC0001158467183H202100000555009300000555009327/10/20210311    31902491237421964250000E1AD0300000199490000000000000                                         LACTATO RINGER USP (HARTMANN)  SOL INY  BOL X 1000ML BAXTERBIN     2
RC0001158467183H202100000555009300000555009327/10/20210750     3300009237421964250000B02BA100000561560000000000000                                                                           VITAMINA K1 SLN INY 10 MGAMP     1
RC0001158467183H202100000555009300000555009327/10/20212338     3300009237421964250000J01CR300001659480000000000000                                                                  DELBACTAM POLVO LIOF SLN INY 4.5 GVAL     1
RC0001158467183H202100000555009300000555009327/10/20210203     3300009237421964250000J01CR300001659480000000000000                                                                  DELBACTAM POLVO LIOF SLN INY 4.5 GVAL     1
RC0001158467183H202100000555009300000555009327/10/20210750     3300009237421964250000A02BC700001684270000000000000                                                            OMEPRAZOL 40MG POLVO LIOFILIZADO AMPOLLAVAL     1
RC0001158467183H202100000555009300000555009327/10/20211410    31903301237421964250000V07A1300000502600000000000000                                                                                AGUA ESTERIL x 10 mlAMP     4
