CC0000032832774H202100000555014000000555014027/10/20211009    31500533237421964250000E1AD0200003888320000000000000                                                                              HARTMAN SLN INY 500 MLBOL     1
CC0000032832774H202100000555014000000555014027/10/20210545    31902949237421964250000E1AD0200003888320000000000000                                                                              HARTMAN SLN INY 500 MLBOL     1
CC0000032832774H202100000555014000000555014027/10/20210559     3300010237421964250000A03BB100003889180000000000000                                      HIOSCINA BUTIL BROMURO 20MG/ML SOL INY CAJ X 100AMP X 1ML RYANAMP     2
CC0000032832774H202100000555014000000555014027/10/20210559     3300010237421964250000H03AA200001391520000000000000                                                                            LEVOTIROXINA TAB 100 MCGTAB     1
CC0000032832774H202100000555014000000555014027/10/20210559     3300010237421964250000J01CR200000947130000000000000                                                              AMPICILINA /SULBACTAN POLVO LIOF 1.5 GAMP     2
CC0000032832774H202100000555014000000555014027/10/20210559     3300010237421964250000A02BC700001684270000000000000                                                            OMEPRAZOL 40MG POLVO LIOFILIZADO AMPOLLAVAL     1
