CC0000053134277A202100000027632900000027632927/10/20211108    3190333624042196419000011082700001620070000000000000                                                               EQUIPO SET PRIMARIO C/CLAVE REF 14001BOL     1
CC0000053134277A202100000027632900000027632927/10/20211108    31903336240421964190000N02B1100001169680000000000000                              PARACETAMOL 1000MG/100ML(10MG/ML) SOL INY  VIAL X 100ML FRESENIUS KABIVAL     2
CC0000053134277A202100000027632900000027632927/10/20211108    3190333624042196419000011137100001419310000000000000                                                               TIRA GLUCOMETRIA FREESTYLE H OPTIUM .PZA     4
CC0000053134277A202100000027632900000027632927/10/20211108    3190333624042196419000045136100001419300000000000000                                                                            LANCETA DEXTROMETER X UNPZA     3
CC0000053134277A202100000027632900000027632927/10/20211108    3190333624042196419000015994600000632480000000000000                                                                          MONOCRYL 4-0 PS-2 45 Y496GSIN     1
CC0000053134277A202100000027632900000027632927/10/20211108    3190333624042196419000045138000001413890000000000000                                                                       LAPIZ ELECTROBISTURI  SOB X 1SOB     1
CC0000053134277A202100000027632900000027632927/10/20211108    3190333624042196419000000016500000223580000000000000                                                                    STERI-STRIP 12 X 100 REF 1547 3MSIN     1
CC0000053134277A202100000027632900000027632927/10/20211108    3190333624042196419000000502500000233280000000000000                                                              SUTURA CAPROFYL 1 90CM CON CT-1 CF925TSIN     1
CC0000053134277A202100000027632900000027632927/10/20211108    3190333624042196419000000502600000233300000000000000                                                            SUTURA CAPROFYL 2-0 90CM CON CT-1 CF923TSIN     2
CC0000053134277A202100000027632900000027632927/10/20211108    3190333624042196419000019487800001585180000000000000                                                                    VICRYL 1 PLUS 70 CM CT-1 VCP341HSOB     1
CC0000053134277A202100000027632900000027632927/10/20211108    3190333624042196419000043879500001138210000000000000                                                                                    HOJA BISTURI #20SOB     1
CC0000053134277A202100000027632900000027632927/10/20211108    3190333624042196419000020816000001096410000000000000                                                                          LINER PARED DELGADA 1500CCBOL     1
CC0000053134277A202100000027632900000027632927/10/20211108    31903336240421964190000B2BA0300000215330000000000000                                                              KONAKION MM PEDIAT SLN INY 2 MG/0.2 MLAMP     1
CC0000053134277A202100000027632900000027632927/10/20211108    3190333624042196419000030161400001459220000000000000                                                                       MANGUERA SUCCION 6 MM*3.1 MTSSOB     2
CC0000053134277A202100000027632900000027632927/10/20211108    3190333624042196419000043879400001138170000000000000                                                                  HOJA BISTURI # 10 CSSB 10 01002000SOB     1
CC0000053134277A202100000027632900000027632927/10/20211108    31903336240421964190000Q1AA1000000256790000000000000                                                                         SONDA ASPIRACION CONTROL #8SIN     1
CC0000053134277A202100000027632900000027632927/10/20211108    3190333624042196419000072970000001147030000000000000                                                                                     CLAMP UMBILICALPZA     1
CC0000053134277A202100000027632900000027632927/10/20211108    3190333624042196419000013077800000471960000000000000                                                             GASA NO TEJIDA EST 7.5 X 7.5 SOB X 3 UNSOB     2
CC0000053134277A202100000027632900000027632927/10/20211108    3190333624042196419000011047900000223010000000000000                                                                            JERINGA X 1ML REF 302579SIN     1
CC0000053134277A202100000027632900000027632927/10/20211108    3190333624042196419000022425200000548240000000000000                       EXTENSION DE ANESTESIA REF 1139 SOB X 1 SHERLEG  ADULTO BN EXENTO-DC.417/2020SIN     1
CC0000053134277A202100000027632900000027632927/10/20211108    3190333624042196419000035356500003919000000000000000                                                                                        LLAVE 3 VIASSOB     1
CC0000053134277A202100000027632900000027632927/10/20211108    31903336240421964190000Q1AA7100000610620000000000000                                                            CATETER PERIFE INTROCAN # 18G 4251687-04SIN     1
CC0000053134277A202100000027632900000027632927/10/20211108    3190333624042196419000022426800001140510000000000000                                                                    EQUIPO MACROGOTEO BAXTER MRC0001SOB     1
CC0000053134277A202100000027632900000027632927/10/20211108    3190333624042196419000016830000000970620000000000000                                                             SIST FIJACION CAT PERIFERICO 6.5X7 1683SOB     1
CC0000053134277A202100000027632900000027632927/10/20211108    31903336240421964190000J01DA300001239950000000000000                                                            CEFAZOLINA SODICA POLVO LIOF SLN INY 1 GVAL     2
CC0000053134277A202100000027632900000027632927/10/20211108    31903336240421964190000V7AA1300001590570000000000000                                                                                   PANAL ADULTO TENAPZA     1
CC0000053134277A202100000027632900000027632927/10/20211108    3190333624042196419000011073300001096420000000000000                                                                BOLSA DE SUCCION DE FLUIDOS x 2500mLBOL     1
CC0000053134277A202100000027632900000027632927/10/20211108    3190333624042196419000031188000000236790000000000000                                                                                     CISTOFLO ADULTOSIN     1
CC0000053134277A202100000027632900000027632927/10/20211108    31903336240421964190000N1BA1900000554750000000000000                                                                     ROXICAINA JALEA 2% TUBO X 30 MLTUB     1
CC0000053134277A202100000027632900000027632927/10/20211108    3190333624042196419000038569900001124970000000000000                                                                              SONDA FOLEY #14 2 VIASSOB     1
CC0000053134277A202100000027632900000027632927/10/20211108    3190333624042196419000020750600000296780000000000000                                                                PLACA ELECTRO RETORNO PACIENTE E7506SIN     1
CC0000053134277A202100000027632900000027632927/10/20211108    3190333624042196419000024673000001411210000000000000                                                                  JERINGA DESECHABLE 3 ML 21 X 1 1/2SOB     2
CC0000053134277A202100000027632900000027632927/10/20211108    3190333624042196419000024674000000220660000000000000                             JERINGA A 3 PARTES CON AGUJA  SOB X 1 RYMCO  10ML BN EXENTO-DC.417/2020SIN     5
CC0000053134277A202100000027632900000027632927/10/20211108    3190333624042196419000024674500000322810000000000000                                                                   JERINGA DESECHABLE 20 ml 21*1 1/2SIN     1
CC0000053134277A202100000027632900000027632927/10/20211108    3190333624042196419000053074400000607910000000000000                                                               GASA ESTERIL 10*10 SOBRE X 3 UNIDADESSOB     4
CC0000053134277A202100000027632900000027632927/10/20211108    3190333624042196419000011085200001585390000000000000                                                                       GUANTE QUIRURGICO TALLA 7 1/2SOB     4
CC0000053134277A202100000027632900000027632927/10/20211108    3190333624042196419000011085100001082120000000000000                                                                           GUANTE QUIRURGICO TALLA 7SOB     6
CC0000053134277A202100000027632900000027632927/10/20211108    3190333624042196419000043485100001618510000000000000                GUANTE QUIRURGICO DE LATEX REF 2D72N65X CAJ X 50 PROTEXIS  6.5 BN EXENTO-DC.417/2020SOB     4
CC0000053134277A202100000027632900000027632927/10/20211108    3190333624042196419000020060000000225230000000000000                                                               AGUJA SPINOCAN 27G X 3 1/2 PU 4503902SIN     1
CC0000053134277A202100000027632900000027632927/10/20211108    31903336240421964190000E1AD0200003888320000000000000                                                                              HARTMAN SLN INY 500 MLBOL     1
CC0000053134277A202100000027632900000027632927/10/20211108    31903336240421964190000E1AB0300003888390000000000000                                                            SOLUCION SALINA 0.9% SLN INY BO X 500 MLBOL     5
CC0000053134277A202100000027632900000027632927/10/20211108    31903336240421964190000E1AB0200000199290000000000000                                                            SOLUCION SALINA 0.9% SLN INY BO X 100 MLBIN     1
CC0000053134277A202100000027632900000027632927/10/20211108    31903336240421964190000A03F0300001626860000000000000                                                                   METOCLOPRAMIDA SLN INY 10 MG/2 MLAMP     1
CC0000053134277A202100000027632900000027632927/10/20211108    31903336240421964190000A2BC0900000200150000000000000                                                                               ORAZOLE Sln Iny 40 mgCIN     1
CC0000053134277A202100000027632900000027632927/10/20211108    31903336240421964190000H02AB500001664950000000000000                                                            DEXAMETASONA SLN INY 8 MG/2 ML AMP /CDS/AMP     1
CC0000053134277A202100000027632900000027632927/10/20211108    31903336240421964190000C01C0300001261020000000000000                                                               ETILEFRINA HCL SLN INY 10 MG/1 ML /R/AMP     1
CC0000053134277A202100000027632900000027632927/10/20211108    31903336240421964190000G02AD000001277960000000000000                                                                                 CYTIL V TAB 200 MCGTAB     4
CC0000053134277A202100000027632900000027632927/10/20211108    31903336240421964190000N1BA0500000647360000000000000                                                                  BUPIROP 0.5% PESADO SLN INY X 4 MLAPC     1
CC0000053134277A202100000027632900000027632927/10/20211108    31903336240421964190000N1BA2400001195280000000000000                                                                    LIDOCAINA 2% S/E Sln Iny x 10 mlAMP     1
CC0000053134277A202100000027632900000027632927/10/20211108    31903336240421964190000N2AA0100000301640000000000000                                                                            MORFINA Sln Iny 10 mg/mlAMP     1
CC0000053134277A202100000027632900000027632927/10/20211108    31903336240421964190000H1BB0200003888510000000000000                                                                         OXITOCINA SLN INY 10 UI /MLAMP     4
