RC0001048089059U202100050131388700050131388727/10/20211015    3190093023942196432000024674000000220660000000000000                             JERINGA A 3 PARTES CON AGUJA  SOB X 1 RYMCO  10ML BN EXENTO-DC.417/2020SIN     1
RC0001048089059U202100050131388700050131388727/10/20211015    3190093023942196432000042753000003929870000000000000                    GASA ADHESIVA STRETCH REF 02036-00 ROL X 10MT FIXOMULL 5CM BN EXENTO-DC.417/2020CMT    20
RC0001048089059U202100050131388700050131388727/10/20211015    3190093023942196432000011082700001620070000000000000                                                               EQUIPO SET PRIMARIO C/CLAVE REF 14001BOL     1
RC0001048089059U202100050131388700050131388727/10/20211015    3190093023942196432000001956000001620610000000000000                                                                      CONECTOR MICRO CLAVE LAT-MC100SOB     1
RC0001048089059U202100050131388700050131388727/10/20211015    31900930239421964320000Q1AA7400003911720000000000000                                                            CATETER PERIFE INTROCAN # 24G 4251601-04SOB     1
RC0001048089059U202100050131388700050131388727/10/20211015    3190093023942196432000030936900001431840000000000000                                                                                              BURETABOL     1
