TI0001047044339H202100915425102700915425102727/10/20210816    3150056823742196425000011082200001407940000000000000                                                              EQUIPO EXT MICROTUBO Y 2 VALVUL 2N8371SOB     1
TI0001047044339H202100915425102700915425102727/10/20210816    3150056823742196425000016830000000970620000000000000                                                             SIST FIJACION CAT PERIFERICO 6.5X7 1683SOB     1
TI0001047044339H202100915425102700915425102727/10/20210816    31500568237421964250000Q1AA7300000610640000000000000                                                            CATETER PERIFE INTROCAN # 22G 4251628-04SIN     1
