CC0000008486413U202100050131386000050131386027/10/20210242    3190118123942196432000024674000000220660000000000000                             JERINGA A 3 PARTES CON AGUJA  SOB X 1 RYMCO  10ML BN EXENTO-DC.417/2020SIN     3
CC0000008486413U202100050131386000050131386027/10/20210242    31901181239421964320000Q1A13500001585200000000000000                        JERINGA PUNTA CAT SIN AGUJA REF 309620 CAJ X 40   50ML BN EXENTO-DC.417/2020SOB     1
CC0000008486413U202100050131386000050131386027/10/20210242    31901181239421964320000Q1AA7000001097160000000000000                                                            CATETER PERIFE INTROCAN # 16G 4251709-04SOB     1
CC0000008486413U202100050131386000050131386027/10/20210242    3190118123942196432000042743200003929860000000000000                   GASA ADHESIVA STRETCH REF 02038-00 ROL X 10MT FIXOMULL 15CM BN EXENTO-DC.417/2020CMT    30
CC0000008486413U202100050131386000050131386027/10/20210242    3190118123942196432000011082700001620070000000000000                                                               EQUIPO SET PRIMARIO C/CLAVE REF 14001BOL     1
CC0000008486413U202100050131386000050131386027/10/20210242    3190118123942196432000031188000000236790000000000000                                                                                     CISTOFLO ADULTOSIN     1
CC0000008486413U202100050131386000050131386027/10/20210242    3190118123942196432000001956000001620610000000000000                                                                      CONECTOR MICRO CLAVE LAT-MC100SOB     1
CC0000008486413U202100050131386000050131386027/10/20210242    3190118123942196432000030936900001431840000000000000                                                                                              BURETABOL     1
CC0000008486413U202100050131386000050131386027/10/20210242    3190118123942196432000016830000000970620000000000000                                                             SIST FIJACION CAT PERIFERICO 6.5X7 1683SOB     1
CC0000008486413U202100050131386000050131386027/10/20210242    31901181239421964320000E1AD0300000199490000000000000                                         LACTATO RINGER USP (HARTMANN)  SOL INY  BOL X 1000ML BAXTERBIN     2
CC0000008486413U202100050131386000050131386027/10/20210242    31901181239421964320000E1AB0500003888400000000000000                                                              SOLUCION SALINA 0.9% SLN INY X 1000 MLBOL     1
