TI0001044214728H202100000555016700000555016727/10/20210631    31903053237421964250000E1AD0300000199490000000000000                                         LACTATO RINGER USP (HARTMANN)  SOL INY  BOL X 1000ML BAXTERBIN     1
TI0001044214728H202100000555016700000555016727/10/20210724     3300010237421964250000D06AX300000555060000000000000                                                                 MUPICARE 2 % UNG TOPICO Tubo X 15 GTUB     1
TI0001044214728H202100000555016700000555016727/10/20211442     3300009237421964250000J1DA0200001277350000000000000                                                                                   KEFLEX TAB 500 MGTAB     2
TI0001044214728H202100000555016700000555016727/10/20210721     3300010237421964250000J1DA0200001277350000000000000                                                                                   KEFLEX TAB 500 MGTAB     2
TI0001044214728H202100000555016700000555016727/10/20211442     3300009237421964250000N2BB0500000217140000000000000                                                                          NOVALGINA Sln Iny 1 g/2 mlAMP     1
TI0001044214728H202100000555016700000555016727/10/20210721     3300010237421964250000N2BB0500000217140000000000000                                                                          NOVALGINA Sln Iny 1 g/2 mlAMP     2
TI0001044214728H202100000555016700000555016727/10/20211442     3300009237421964250000N02B1100001169680000000000000                              PARACETAMOL 1000MG/100ML(10MG/ML) SOL INY  VIAL X 100ML FRESENIUS KABIVAL     2
TI0001044214728H202100000555016700000555016727/10/20210723     3300010237421964250000N02B1100001169680000000000000                              PARACETAMOL 1000MG/100ML(10MG/ML) SOL INY  VIAL X 100ML FRESENIUS KABIVAL     1
TI0001044214728H202100000555016700000555016727/10/20210722     3300010237421964250000N02B1100001169680000000000000                              PARACETAMOL 1000MG/100ML(10MG/ML) SOL INY  VIAL X 100ML FRESENIUS KABIVAL     1
