CC0000057440089H202100914931102700914931102727/10/20211710    3190328823742196425000022426800001140510000000000000                                                                    EQUIPO MACROGOTEO BAXTER MRC0001SOB     1
CC0000057440089H202100914931102700914931102727/10/20211710    3190328823742196425000030936900001431840000000000000                                                                                              BURETABOL     1
CC0000057440089H202100914931102700914931102727/10/20211710    31903288237421964250000E1AB0500003888400000000000000                                                              SOLUCION SALINA 0.9% SLN INY X 1000 MLBOL     1
