CC0001002067121U202100000555041900000555041927/10/20212114     3300004239421964320000C08C0800001277870000000000000                                                                                NIFEDIPINO CAP 10 MGTAB     1
CC0001002067121U202100000555041900000555041927/10/20212113     3300004239421964320000C08C0800001277870000000000000                                                                                NIFEDIPINO CAP 10 MGTAB     2
CC0001002067121U202100000555041900000555041927/10/20212125     3300004239421964320000A03BB100003889180000000000000                                      HIOSCINA BUTIL BROMURO 20MG/ML SOL INY CAJ X 100AMP X 1ML RYANAMP     1
CC0001002067121U202100000555041900000555041927/10/20212114     3300004239421964320000A03BB100003889180000000000000                                      HIOSCINA BUTIL BROMURO 20MG/ML SOL INY CAJ X 100AMP X 1ML RYANAMP     1
CC0001002067121U202100000555041900000555041927/10/20212125     3300004239421964320000N2BE2200001252930000000000000                                                                             ACETAMINOFEN Tab 500 MGTAB     1
CC0001002067121U202100000555041900000555041927/10/20212124     3300004239421964320000N2BE2200001252930000000000000                                                                             ACETAMINOFEN Tab 500 MGTAB     2
CC0001002067121U202100000555041900000555041927/10/20212115     3300004239421964320000N2BE2200001252930000000000000                                                                             ACETAMINOFEN Tab 500 MGTAB     1
