CC0000005029363H202100000555044000000555044027/10/20212129     3300009237421964250000A6AG0100001107060000000000000                                                            ENEMA RECTAL FOSTATO SODIO BO X 133ML /RBOL     1
CC0000005029363H202100000555044000000555044027/10/20212128     3300009237421964250000A6AG0100001107060000000000000                                                            ENEMA RECTAL FOSTATO SODIO BO X 133ML /RBOL     1
CC0000005029363H202100000555044000000555044027/10/20212226    31500065237421964250000E1AB0300003888390000000000000                                                            SOLUCION SALINA 0.9% SLN INY BO X 500 MLBOL     1
