CC0000008753953H202100015112649200015112649227/10/20211612    3150012823742196425000018351500000232840000000000000                                                                                    SEDA 2-0 KS 623HSIN     1
CC0000008753953H202100015112649200015112649227/10/20211612    3150012823742196425000043879200001138180000000000000                                                                                   HOJA BISTURI # 11SOB     1
CC0000008753953H202100015112649200015112649227/10/20211612    3150012823742196425000011088900001318270000000000000                                                               GUANTE CIRUGIA NITRILO ALFASAFE 7 1/2SOB     2
CC0000008753953H202100015112649200015112649227/10/20211612    3150012823742196425000013077800000471960000000000000                                                             GASA NO TEJIDA EST 7.5 X 7.5 SOB X 3 UNSOB    10
CC0000008753953H202100015112649200015112649227/10/20211612    3150012823742196425000042743200003929860000000000000                   GASA ADHESIVA STRETCH REF 02038-00 ROL X 10MT FIXOMULL 15CM BN EXENTO-DC.417/2020CMT    30
CC0000008753953H202100015112649200015112649227/10/20211612    3150012823742196425000000300100001244120000000000000                                                                 CAT RECTO 2LUMEN+KIT DFXL148MTE UNDPZA     1
