CC0001044426730U202100050131396400050131396427/10/20211952    3190098223942196432000024673600000222980000000000000                                                                     JERINGA DESECHABLE 5 ml 27*11/2SIN     1
CC0001044426730U202100050131396400050131396427/10/20211952    3190098223942196432000011082700001620070000000000000                                                               EQUIPO SET PRIMARIO C/CLAVE REF 14001BOL     1
CC0001044426730U202100050131396400050131396427/10/20211952    31900982239421964320000Q1AA7100000610620000000000000                                                            CATETER PERIFE INTROCAN # 18G 4251687-04SIN     1
CC0001044426730U202100050131396400050131396427/10/20211952    3190098223942196432000030936900001431840000000000000                                                                                              BURETABOL     1
CC0001044426730U202100050131396400050131396427/10/20211952    3190098223942196432000016830000000970620000000000000                                                             SIST FIJACION CAT PERIFERICO 6.5X7 1683SOB     1
CC0001044426730U202100050131396400050131396427/10/20211952    31900982239421964320000E1AD0300000199490000000000000                                         LACTATO RINGER USP (HARTMANN)  SOL INY  BOL X 1000ML BAXTERBIN     1
CC0001044426730U202100050131396400050131396427/10/20211952    31900982239421964320000E1AD0200003888320000000000000                                                                              HARTMAN SLN INY 500 MLBOL     1
