CC0000022467890H202100000555020800000555020827/10/20211640     3300009237421964250000A7DA0100001303560000000000000                                                                                 LOPERAMIDA TAB 2 MGTAB     2
CC0000022467890H202100000555020800000555020827/10/20210913     3300010237421964250000A7DA0100001303560000000000000                                                                                 LOPERAMIDA TAB 2 MGTAB     4
CC0000022467890H202100000555020800000555020827/10/20210913     3300010237421964250000B1AB0200003939510000000000000                 ENOXAPARINA SODICA 40MG/0.4ML(100MG/ML) SOL INY INST CAJ X 2JERPREL X 0.4ML TECHDOWJRP     1
CC0000022467890H202100000555020800000555020827/10/20211456    31903110237421964250000E1AB0200000199290000000000000                                                            SOLUCION SALINA 0.9% SLN INY BO X 100 MLBIN     3
CC0000022467890H202100000555020800000555020827/10/20211235    31901360237421964250000E1AB0300003888390000000000000                                                            SOLUCION SALINA 0.9% SLN INY BO X 500 MLBOL     1
CC0000022467890H202100000555020800000555020827/10/20210913     3300010237421964250000C7AB1000001382030000000000000                                                                   NOREPINEFRINA SLN INY 4 MG / 4 MLAMP     2
CC0000022467890H202100000555020800000555020827/10/20212145     3300009237421964250000N1BA1900000554750000000000000                                                                     ROXICAINA JALEA 2% TUBO X 30 MLTUB     1
CC0000022467890H202100000555020800000555020827/10/20210913     3300010237421964250000V6DF5300000302770000000000000                                                                        ENSURE PLUS HN LCP X 1000 MLFCO     1
CC0000022467890H202100000555020800000555020827/10/20210914     3300010237421964250000A02BC700001684270000000000000                                                            OMEPRAZOL 40MG POLVO LIOFILIZADO AMPOLLAVAL     1
CC0000022467890H202100000555020800000555020827/10/20211235    31901360237421964250000V07A1300000502600000000000000                                                                                AGUA ESTERIL x 10 mlAMP    10
