CC0000022487429H202100000555027300000555027327/10/20211216    31500128237421964250000E1AB0200000199290000000000000                                                            SOLUCION SALINA 0.9% SLN INY BO X 100 MLBIN     5
CC0000022487429H202100000555027300000555027327/10/20211216    31500128237421964250000E1AD0300000199490000000000000                                         LACTATO RINGER USP (HARTMANN)  SOL INY  BOL X 1000ML BAXTERBIN     2
CC0000022487429H202100000555027300000555027327/10/20211255     3300010237421964250000C7AB1000001382030000000000000                                                                   NOREPINEFRINA SLN INY 4 MG / 4 MLAMP     3
CC0000022487429H202100000555027300000555027327/10/20211254     3300010237421964250000C7AB1000001382030000000000000                                                                   NOREPINEFRINA SLN INY 4 MG / 4 MLAMP     1
CC0000022487429H202100000555027300000555027327/10/20211250     3300010237421964250000M03AC100000197200000000000000                                                                   TRACURION SLN INY 10 MG /5 ML /R/AMP     1
CC0000022487429H202100000555027300000555027327/10/20211250     3300010237421964250000N1BA1900000554750000000000000                                                                     ROXICAINA JALEA 2% TUBO X 30 MLTUB     1
CC0000022487429H202100000555027300000555027327/10/20211253     3300010237421964250000N1BA0600000218020000000000000                                                            ROXICAINA 10% SLN TOPICA ATOMIZA X 83 MLCIN     1
CC0000022487429H202100000555027300000555027327/10/20211254     3300010237421964250000N1AH0200003906560000000000000                                                                     FENTANIL Iny 0.05 mg/ml x 10 mlAMP     1
CC0000022487429H202100000555027300000555027327/10/20211254     3300010237421964250000N5CD0300000218170000000000000                                                                          DORMICUM Sln Iny 5 mg/5 mlAMP     1
CC0000022487429H202100000555027300000555027327/10/20211419     3300010237421964250000R3CA0100001051880000000000000                                                               ADRENALINA HCL SLN INY 1 MG / ML ECARAMP     4
CC0000022487429H202100000555027300000555027327/10/20211254     3300010237421964250000R3CA0100001051880000000000000                                                               ADRENALINA HCL SLN INY 1 MG / ML ECARAMP     1
CC0000022487429H202100000555027300000555027327/10/20211216    31500128237421964250000V07A1300000502600000000000000                                                                                AGUA ESTERIL x 10 mlAMP     5
