CC0000036724804H202100000555016500000555016527/10/20210731     3300010237421964250000A2BC0100001277990000000000000                                                                                   ORAZOLE CAP 20 MGCAP     1
CC0000036724804H202100000555016500000555016527/10/20210734     3300010237421964250000A07F0300000547060000000000000                                                              ENTEROGERMINA SUSP ORAL AMP X 5 ML /R/VAL     2
CC0000036724804H202100000555016500000555016527/10/20210735     3300010237421964250000A2DA1400001333780000000000000                                                                         PANZYTRAT CAP 25.000 UI /R/CAP     1
CC0000036724804H202100000555016500000555016527/10/20210737     3300010237421964250000A11C0600001389430000000000000                                                                             CALCITRIOL CAP 0.25 MCGCAP     1
CC0000036724804H202100000555016500000555016527/10/20211445     3300009237421964250000V3AB2200000614150000000000000                                                            GLUCONATO CALCIO SLN INY 10% AMP X 10 MLAPC     3
CC0000036724804H202100000555016500000555016527/10/20210736     3300010237421964250000V3AB2200000614150000000000000                                                            GLUCONATO CALCIO SLN INY 10% AMP X 10 MLAPC     1
CC0000036724804H202100000555016500000555016527/10/20212125     3300009237421964250000B01A0600000216800000000000000                                                                   ARIXTRA SLN INY 2.5 MG/0.5 ML /R/SIN     1
CC0000036724804H202100000555016500000555016527/10/20210731     3300010237421964250000B3BB0200001315040000000000000                                                                               ACIDO FOLICO Tab 5 mgTAB     1
CC0000036724804H202100000555016500000555016527/10/20211105    31903288237421964250000E1AB0200000199290000000000000                                                            SOLUCION SALINA 0.9% SLN INY BO X 100 MLBIN     4
CC0000036724804H202100000555016500000555016527/10/20211105    31903288237421964250000E1AB0300003888390000000000000                                                            SOLUCION SALINA 0.9% SLN INY BO X 500 MLBOL     1
CC0000036724804H202100000555016500000555016527/10/20210631    31903053237421964250000E1AB0300003888390000000000000                                                            SOLUCION SALINA 0.9% SLN INY BO X 500 MLBOL     2
CC0000036724804H202100000555016500000555016527/10/20210736     3300010237421964250000A12BA100000552980000000000000                                                            CLORURO POTASIO Sln Iny AMP 20 MEQ/10 MLAMP     2
CC0000036724804H202100000555016500000555016527/10/20210730     3300010237421964250000C3CA0200000195520000000000000                                                                           LASIX SLN INY 20 MG/ 2 MLAMP     1
CC0000036724804H202100000555016500000555016527/10/20210735     3300010237421964250000D04AX800000211800000000000000                                                                       PROCICAR NF CREMA TUBO X 60 GCIN     1
CC0000036724804H202100000555016500000555016527/10/20211038     3300010237421964250000B4AD0100000634000000000000000                                                                     COLESTIRAMINA POLVO SOBRE X 4 GSOB     2
CC0000036724804H202100000555016500000555016527/10/20211444     3300009237421964250000A07F0100001075510000000000000                                                                    EPTAVIS GRANULOS SOBRE X 3 G /R/SOB     3
CC0000036724804H202100000555016500000555016527/10/20210738     3300010237421964250000H03A0400001278890000000000000                                                                                  EUTIROX TAB 50 MCGTAB     1
CC0000036724804H202100000555016500000555016527/10/20210738     3300010237421964250000J02A0200000191070000000000000                                                            CANCIDAS POLVO LIOF SLN INY AMP 50MG /R/VAL     1
CC0000036724804H202100000555016500000555016527/10/20210738     3300010237421964250000N02B1100001169680000000000000                              PARACETAMOL 1000MG/100ML(10MG/ML) SOL INY  VIAL X 100ML FRESENIUS KABIVAL     1
CC0000036724804H202100000555016500000555016527/10/20210736     3300010237421964250000N05C0800001314910000000000000                                                                                ISOKLON TAB 3 MG /R/TAB     1
