CC0000008486413U202100050131386800050131386827/10/20210530    3190233723942196432000018351500000232840000000000000                                                                                    SEDA 2-0 KS 623HSIN     1
CC0000008486413U202100050131386800050131386827/10/20210530    3190233723942196432000038573100000256880000000000000                                                                                 SONDA NSG LEVIN #18SIN     1
CC0000008486413U202100050131386800050131386827/10/20210530    3190233723942196432000038570000001123500000000000000                                                                              SONDA FOLEY #16 2 VIASSOB     1
CC0000008486413U202100050131386800050131386827/10/20210530    3190233723942196432000024674000000220660000000000000                             JERINGA A 3 PARTES CON AGUJA  SOB X 1 RYMCO  10ML BN EXENTO-DC.417/2020SIN    10
CC0000008486413U202100050131386800050131386827/10/20210530    3190233723942196432000024673600000222980000000000000                                                                     JERINGA DESECHABLE 5 ml 27*11/2SIN     2
CC0000008486413U202100050131386800050131386827/10/20210530    3190233723942196432000043879200001138180000000000000                                                                                   HOJA BISTURI # 11SOB     1
CC0000008486413U202100050131386800050131386827/10/20210530    3190233723942196432000043485100001618510000000000000                GUANTE QUIRURGICO DE LATEX REF 2D72N65X CAJ X 50 PROTEXIS  6.5 BN EXENTO-DC.417/2020SOB     2
CC0000008486413U202100050131386800050131386827/10/20210530    3190233723942196432000011089300001083990000000000000                                                              GUANTE ESTERIL LATEX S/POLVO TALLA 7.5SOB     2
CC0000008486413U202100050131386800050131386827/10/20210530    3190233723942196432000011085100001082120000000000000                                                                           GUANTE QUIRURGICO TALLA 7SOB     1
CC0000008486413U202100050131386800050131386827/10/20210530    3190233723942196432000013077800000471960000000000000                                                             GASA NO TEJIDA EST 7.5 X 7.5 SOB X 3 UNSOB    10
CC0000008486413U202100050131386800050131386827/10/20210530    3190233723942196432000011082700001620070000000000000                                                               EQUIPO SET PRIMARIO C/CLAVE REF 14001BOL     2
CC0000008486413U202100050131386800050131386827/10/20210530    3190233723942196432000031188000000236790000000000000                                                                                     CISTOFLO ADULTOSIN     1
CC0000008486413U202100050131386800050131386827/10/20210530    3190233723942196432000001956000001620610000000000000                                                                      CONECTOR MICRO CLAVE LAT-MC100SOB     3
CC0000008486413U202100050131386800050131386827/10/20210530    31902337239421964320000E1AD0300000199490000000000000                                         LACTATO RINGER USP (HARTMANN)  SOL INY  BOL X 1000ML BAXTERBIN     2
CC0000008486413U202100050131386800050131386827/10/20210530    31902337239421964320000E1AB0200000199290000000000000                                                            SOLUCION SALINA 0.9% SLN INY BO X 100 MLBIN     2
CC0000008486413U202100050131386800050131386827/10/20210530    31902337239421964320000E1AB1100003888280000000000000                                                                        SOLUCION SALINA 0.9% X 50 mlBOL     1
CC0000008486413U202100050131386800050131386827/10/20210530    3190233723942196432000011133500001585140000000000000                                                              APOSITO TEGADERM REF 9536HP SOB X 1 3MSOB     1
