PA0000541159410H202100015032578000015032578027/10/20211214    3190093323742196425000022426800001140510000000000000                                                                    EQUIPO MACROGOTEO BAXTER MRC0001SOB     1
PA0000541159410H202100015032578000015032578027/10/20211214    3190093323742196425000030936900001431840000000000000                                                                                              BURETABOL     1
CC0001045733540H202100015032578000015032578027/10/20211214    3190093323742196425000030936900001431840000000000000                                                                                              BURETABOL     1
PA0000541159410H202100015032578000015032578027/10/20211214    31900933237421964250000E1AD0300000199490000000000000                                         LACTATO RINGER USP (HARTMANN)  SOL INY  BOL X 1000ML BAXTERBIN     2
CC0001045733540H202100015032578000015032578027/10/20211214    31900933237421964250000E1AB0300003888390000000000000                                                            SOLUCION SALINA 0.9% SLN INY BO X 500 MLBOL     2
