CC0001082998387H202100000555011300000555011327/10/20212133    31500566237421964250000E1AB0500003888400000000000000                                                              SOLUCION SALINA 0.9% SLN INY X 1000 MLBOL     2
CC0001082998387H202100000555011300000555011327/10/20212132     3300009237421964250000J01CF100000553250000000000000                                                                    OXACILINA POLVO LIOF SLN INY 1 GVAL     2
CC0001082998387H202100000555011300000555011327/10/20212131     3300009237421964250000J01CF100000553250000000000000                                                                    OXACILINA POLVO LIOF SLN INY 1 GVAL     2
CC0001082998387H202100000555011300000555011327/10/20210513     3300010237421964250000N2AX0400001204140000000000000                                                                             TRAMAL Sln Iny 50 mg/mlAMP     1
CC0001082998387H202100000555011300000555011327/10/20210319     3300009237421964250000N2AX0400001204140000000000000                                                                             TRAMAL Sln Iny 50 mg/mlAMP     2
CC0001082998387H202100000555011300000555011327/10/20212300     3300009237421964250000N2BB0500000217140000000000000                                                                          NOVALGINA Sln Iny 1 g/2 mlAMP     1
CC0001082998387H202100000555011300000555011327/10/20210319     3300009237421964250000N2BB0500000217140000000000000                                                                          NOVALGINA Sln Iny 1 g/2 mlAMP     1
CC0001082998387H202100000555011300000555011327/10/20210318     3300009237421964250000N2BB0500000217140000000000000                                                                          NOVALGINA Sln Iny 1 g/2 mlAMP     3
CC0001082998387H202100000555011300000555011327/10/20212300     3300009237421964250000N02B1100001169680000000000000                              PARACETAMOL 1000MG/100ML(10MG/ML) SOL INY  VIAL X 100ML FRESENIUS KABIVAL     1
CC0001082998387H202100000555011300000555011327/10/20210319     3300009237421964250000N02B1100001169680000000000000                              PARACETAMOL 1000MG/100ML(10MG/ML) SOL INY  VIAL X 100ML FRESENIUS KABIVAL     4
