TI0001082857024U202100050131390900050131390927/10/20211346    3190101023942196432000001956000001620610000000000000                                                                      CONECTOR MICRO CLAVE LAT-MC100SOB     1
TI0001082857024U202100050131390900050131390927/10/20211346    31901010239421964320000Q1AA7200000610630000000000000                                                            CATETER PERIFE INTROCAN # 20G 4251644-04SIN     1
TI0001082857024U202100050131390900050131390927/10/20211346    3190101023942196432000016830000000970620000000000000                                                             SIST FIJACION CAT PERIFERICO 6.5X7 1683SOB     1
