NV0000169331975H202100015132502300015132502327/10/20210738    31903117237421964250000V07A1300000502600000000000000                                                                                AGUA ESTERIL x 10 mlAMP     5
RC0001240294513H202100015132502300015132502327/10/20210738    31903117237421964250000V07A1300000502600000000000000                                                                                AGUA ESTERIL x 10 mlAMP     5
RC0001043198450H202100015132502300015132502327/10/20210738    31903117237421964250000V07A1300000502600000000000000                                                                                AGUA ESTERIL x 10 mlAMP     5
RC0001048091909H202100015132502300015132502327/10/20210738    31903117237421964250000V07A1300000502600000000000000                                                                                AGUA ESTERIL x 10 mlAMP     5
RC0001053013307H202100015132502300015132502327/10/20210738    31903117237421964250000V07A1300000502600000000000000                                                                                AGUA ESTERIL x 10 mlAMP     5
RC0001048091952H202100015132502300015132502327/10/20210738    31903117237421964250000V07A1300000502600000000000000                                                                                AGUA ESTERIL x 10 mlAMP     3
RC0001048091952H202100015132502300015132502327/10/20210738    3190311723742196425000022425700000225420000000000000                                                                   SIST PERFUSOR SECURA 50 ML 728889CAJ     1
RC0001043198450H202100015132502300015132502327/10/20210738    3190311723742196425000035356500003919000000000000000                                                                                        LLAVE 3 VIASSOB     2
RC0001048091909H202100015132502300015132502327/10/20210738    3190311723742196425000035356500003919000000000000000                                                                                        LLAVE 3 VIASSOB     2
RC0001048091952H202100015132502300015132502327/10/20210738    3190311723742196425000035356500003919000000000000000                                                                                        LLAVE 3 VIASSOB     2
NV0000169331975H202100015132502300015132502327/10/20210738    3190311723742196425000045136100001419300000000000000                                                                            LANCETA DEXTROMETER X UNPZA     2
RC0001234897599H202100015132502300015132502327/10/20210738    3190311723742196425000045136100001419300000000000000                                                                            LANCETA DEXTROMETER X UNPZA     2
RC0001240294513H202100015132502300015132502327/10/20210738    3190311723742196425000045136100001419300000000000000                                                                            LANCETA DEXTROMETER X UNPZA     2
RC0001043198450H202100015132502300015132502327/10/20210738    3190311723742196425000045136100001419300000000000000                                                                            LANCETA DEXTROMETER X UNPZA     2
RC0001048091851H202100015132502300015132502327/10/20210738    3190311723742196425000045136100001419300000000000000                                                                            LANCETA DEXTROMETER X UNPZA     2
RC0001048091909H202100015132502300015132502327/10/20210738    3190311723742196425000045136100001419300000000000000                                                                            LANCETA DEXTROMETER X UNPZA     2
RC0001043198490H202100015132502300015132502327/10/20210738    3190311723742196425000045136100001419300000000000000                                                                            LANCETA DEXTROMETER X UNPZA     2
RC0001048091914H202100015132502300015132502327/10/20210738    3190311723742196425000045136100001419300000000000000                                                                            LANCETA DEXTROMETER X UNPZA     2
RC0001053013307H202100015132502300015132502327/10/20210738    3190311723742196425000045136100001419300000000000000                                                                            LANCETA DEXTROMETER X UNPZA     2
RC0001048091952H202100015132502300015132502327/10/20210738    3190311723742196425000045136100001419300000000000000                                                                            LANCETA DEXTROMETER X UNPZA     2
NV0000169331975H202100015132502300015132502327/10/20210738    3190311723742196425000011048600000223020000000000000                                                                 JERINGA VACUNACION 3ML C/AGU 302542SIN     5
RC0001240294513H202100015132502300015132502327/10/20210738    3190311723742196425000011048600000223020000000000000                                                                 JERINGA VACUNACION 3ML C/AGU 302542SIN     5
RC0001043198450H202100015132502300015132502327/10/20210738    3190311723742196425000011048600000223020000000000000                                                                 JERINGA VACUNACION 3ML C/AGU 302542SIN     5
RC0001048091909H202100015132502300015132502327/10/20210738    3190311723742196425000011048600000223020000000000000                                                                 JERINGA VACUNACION 3ML C/AGU 302542SIN     5
RC0001053013307H202100015132502300015132502327/10/20210738    3190311723742196425000011048600000223020000000000000                                                                 JERINGA VACUNACION 3ML C/AGU 302542SIN     5
RC0001048091952H202100015132502300015132502327/10/20210738    3190311723742196425000011048600000223020000000000000                                                                 JERINGA VACUNACION 3ML C/AGU 302542SIN     5
RC0001048091952H202100015132502300015132502327/10/20210738    3190311723742196425000036441300000236540000000000000                                                                    JERINGA 1 ML GASES ARTERIAL 9023SIN     1
RC0001043198450H202100015132502300015132502327/10/20210738    3190311723742196425000000102400001411250000000000000                                                                           JERINGA DESECHABLE X 50MLSOB     1
RC0001048091952H202100015132502300015132502327/10/20210738    3190311723742196425000000102400001411250000000000000                                                                           JERINGA DESECHABLE X 50MLSOB     1
RC0001043198450H202100015132502300015132502327/10/20210738    3190311723742196425000024674500000322810000000000000                                                                   JERINGA DESECHABLE 20 ml 21*1 1/2SIN     1
NV0000169331975H202100015132502300015132502327/10/20210738    3190311723742196425000024674000000220660000000000000                             JERINGA A 3 PARTES CON AGUJA  SOB X 1 RYMCO  10ML BN EXENTO-DC.417/2020SIN     5
RC0001240294513H202100015132502300015132502327/10/20210738    3190311723742196425000024674000000220660000000000000                             JERINGA A 3 PARTES CON AGUJA  SOB X 1 RYMCO  10ML BN EXENTO-DC.417/2020SIN     5
RC0001043198450H202100015132502300015132502327/10/20210738    3190311723742196425000024674000000220660000000000000                             JERINGA A 3 PARTES CON AGUJA  SOB X 1 RYMCO  10ML BN EXENTO-DC.417/2020SIN     8
RC0001048091909H202100015132502300015132502327/10/20210738    3190311723742196425000024674000000220660000000000000                             JERINGA A 3 PARTES CON AGUJA  SOB X 1 RYMCO  10ML BN EXENTO-DC.417/2020SIN     8
RC0001053013307H202100015132502300015132502327/10/20210738    3190311723742196425000024674000000220660000000000000                             JERINGA A 3 PARTES CON AGUJA  SOB X 1 RYMCO  10ML BN EXENTO-DC.417/2020SIN     8
RC0001048091952H202100015132502300015132502327/10/20210738    3190311723742196425000024674000000220660000000000000                             JERINGA A 3 PARTES CON AGUJA  SOB X 1 RYMCO  10ML BN EXENTO-DC.417/2020SIN     5
RC0001240294513H202100015132502300015132502327/10/20210738    3190311723742196425000011082700001620070000000000000                                                               EQUIPO SET PRIMARIO C/CLAVE REF 14001BOL     1
RC0001234897599H202100015132502300015132502327/10/20210738    31903117237421964250000E1AB0200000199290000000000000                                                            SOLUCION SALINA 0.9% SLN INY BO X 100 MLBIN     1
NV0000169331975H202100015132502300015132502327/10/20210738    3190311723742196425000011137100001419310000000000000                                                               TIRA GLUCOMETRIA FREESTYLE H OPTIUM .PZA     2
RC0001234897599H202100015132502300015132502327/10/20210738    3190311723742196425000011137100001419310000000000000                                                               TIRA GLUCOMETRIA FREESTYLE H OPTIUM .PZA     2
RC0001240294513H202100015132502300015132502327/10/20210738    3190311723742196425000011137100001419310000000000000                                                               TIRA GLUCOMETRIA FREESTYLE H OPTIUM .PZA     2
RC0001043198450H202100015132502300015132502327/10/20210738    3190311723742196425000011137100001419310000000000000                                                               TIRA GLUCOMETRIA FREESTYLE H OPTIUM .PZA     2
RC0001048091851H202100015132502300015132502327/10/20210738    3190311723742196425000011137100001419310000000000000                                                               TIRA GLUCOMETRIA FREESTYLE H OPTIUM .PZA     2
RC0001048091909H202100015132502300015132502327/10/20210738    3190311723742196425000011137100001419310000000000000                                                               TIRA GLUCOMETRIA FREESTYLE H OPTIUM .PZA     2
RC0001043198490H202100015132502300015132502327/10/20210738    3190311723742196425000011137100001419310000000000000                                                               TIRA GLUCOMETRIA FREESTYLE H OPTIUM .PZA     2
RC0001048091914H202100015132502300015132502327/10/20210738    3190311723742196425000011137100001419310000000000000                                                               TIRA GLUCOMETRIA FREESTYLE H OPTIUM .PZA     2
RC0001053013307H202100015132502300015132502327/10/20210738    3190311723742196425000011137100001419310000000000000                                                               TIRA GLUCOMETRIA FREESTYLE H OPTIUM .PZA     2
RC0001048091952H202100015132502300015132502327/10/20210738    3190311723742196425000011137100001419310000000000000                                                               TIRA GLUCOMETRIA FREESTYLE H OPTIUM .PZA     2
