CC0000088141909A202100000027630900000027630927/10/20211305    3190333624042196419000001956000001620610000000000000                                                                      CONECTOR MICRO CLAVE LAT-MC100SOB     1
CC0000088141909A202100000027630900000027630927/10/20211305    3190333624042196419000030936900001431840000000000000                                                                                              BURETABOL     1
CC0000088141909A202100000027630900000027630927/10/20211305    3190333624042196419000042743200003929860000000000000                   GASA ADHESIVA STRETCH REF 02038-00 ROL X 10MT FIXOMULL 15CM BN EXENTO-DC.417/2020CMT    80
CC0000088141909A202100000027630900000027630927/10/20211305    31903336240421964190000B02B2500001024470000000000000                                                                   TISSEEL FROZEN JERINGA X 2 ML /R/PAQ     1
CC0000088141909A202100000027630900000027630927/10/20211305    31903336240421964190000B02B3400001270570000000000000                                                                  EVICEL TROMB 5 ML/FRIBRIN 5 ML /R/PAQ     1
CC0000088141909A202100000027630900000027630927/10/20211305    3190333624042196419000049059800000267410000000000000                                                                 MEDIA ANTIEMBOLICA TAL L 3634LF PARBOL     1
CC0000088141909A202100000027630900000027630927/10/20211305    3190333624042196419000018351100000232850000000000000                                                                                 SEDA 2-0 SC-26 185TSIN     8
CC0000088141909A202100000027630900000027630927/10/20211305    3190333624042196419000019489000000599330000000000000                                                                           VICRYL 4-0 RB1 70 VCP304HSIN     2
CC0000088141909A202100000027630900000027630927/10/20211305    3190333624042196419000015994600000632480000000000000                                                                          MONOCRYL 4-0 PS-2 45 Y496GSIN     2
CC0000088141909A202100000027630900000027630927/10/20211305    3190333624042196419000045138000001413890000000000000                                                                       LAPIZ ELECTROBISTURI  SOB X 1SOB     1
CC0000088141909A202100000027630900000027630927/10/20211305    3190333624042196419000021052200000380370000000000000                                                                        RESERVORIO J-VAC 100 ml 2160PZA     2
CC0000088141909A202100000027630900000027630927/10/20211305    3190333624042196419000021052100000576790000000000000                                                                   DRENAJE BLAKE PLANO REF 2211  7MMSIN     2
CC0000088141909A202100000027630900000027630927/10/20211305    3190333624042196419000030825800000270990000000000000                                                                  ALGODON ESTERIL SOBRE X 3 TORUNDASPZA     4
CC0000088141909A202100000027630900000027630927/10/20211305    3190333624042196419000030161400001459220000000000000                                                                       MANGUERA SUCCION 6 MM*3.1 MTSSOB     1
CC0000088141909A202100000027630900000027630927/10/20211305    3190333624042196419000018352000000232900000000000000                                                                                   SEDA 3-0 SH K832HSIN     2
CC0000088141909A202100000027630900000027630927/10/20211305    3190333624042196419000018350200000232870000000000000                                                                                  SEDA 3-0 S.A SA84TSIN     1
CC0000088141909A202100000027630900000027630927/10/20211305    3190333624042196419000018349800000232820000000000000                                                                                  SEDA 2-0 S.A SA85TSIN     1
CC0000088141909A202100000027630900000027630927/10/20211305    3190333624042196419000043879100001138200000000000000                                                                  HOJA BISTURI # 15 CSSB 15 01002003SOB     1
CC0000088141909A202100000027630900000027630927/10/20211305    3190333624042196419000022425200000548240000000000000                       EXTENSION DE ANESTESIA REF 1139 SOB X 1 SHERLEG  ADULTO BN EXENTO-DC.417/2020SIN     1
CC0000088141909A202100000027630900000027630927/10/20211305    3190333624042196419000035356500003919000000000000000                                                                                        LLAVE 3 VIASSOB     2
CC0000088141909A202100000027630900000027630927/10/20211305    31903336240421964190000Q1AA7100000610620000000000000                                                            CATETER PERIFE INTROCAN # 18G 4251687-04SIN     1
CC0000088141909A202100000027630900000027630927/10/20211305    3190333624042196419000022426800001140510000000000000                                                                    EQUIPO MACROGOTEO BAXTER MRC0001SOB     1
CC0000088141909A202100000027630900000027630927/10/20211305    3190333624042196419000016830000000970620000000000000                                                             SIST FIJACION CAT PERIFERICO 6.5X7 1683SOB     1
CC0000088141909A202100000027630900000027630927/10/20211305    31903336240421964190000J01DA300001239950000000000000                                                            CEFAZOLINA SODICA POLVO LIOF SLN INY 1 GVAL     2
CC0000088141909A202100000027630900000027630927/10/20211305    3190333624042196419000011073300001096420000000000000                                                                BOLSA DE SUCCION DE FLUIDOS x 2500mLBOL     1
CC0000088141909A202100000027630900000027630927/10/20211305    3190333624042196419000020750600000296780000000000000                                                                PLACA ELECTRO RETORNO PACIENTE E7506SIN     1
CC0000088141909A202100000027630900000027630927/10/20211305    3190333624042196419000011082700001620070000000000000                                                               EQUIPO SET PRIMARIO C/CLAVE REF 14001BOL     1
CC0000088141909A202100000027630900000027630927/10/20211305    3190333624042196419000053074400000607910000000000000                                                               GASA ESTERIL 10*10 SOBRE X 3 UNIDADESSOB     6
CC0000088141909A202100000027630900000027630927/10/20211305    3190333624042196419000011085100001082120000000000000                                                                           GUANTE QUIRURGICO TALLA 7SOB     3
CC0000088141909A202100000027630900000027630927/10/20211305    3190333624042196419000043485100001618510000000000000                GUANTE QUIRURGICO DE LATEX REF 2D72N65X CAJ X 50 PROTEXIS  6.5 BN EXENTO-DC.417/2020SOB     3
CC0000088141909A202100000027630900000027630927/10/20211305    3190333624042196419000051515500000598160000000000000                                                                            MASCARILLA ANESTESIA # 5SIN     1
CC0000088141909A202100000027630900000027630927/10/20211305    3190333624042196419000038568100000258050000000000000                                                                         CANULA OXIGENO NASAL ADULTOSIN     1
CC0000088141909A202100000027630900000027630927/10/20211305    3190333624042196419000011099300000777780000000000000                                                                     FILTRO BACTERIANO VIRICO ADULTOBOL     1
CC0000088141909A202100000027630900000027630927/10/20211305    3190333624042196419000001200400000530690000000000000                                                                          CANULA DE MAYO # 5 (100MM)SIN     1
CC0000088141909A202100000027630900000027630927/10/20211305    3190333624042196419000039175100001072060000000000000                                                                           TUBO ENDOTRAQUEAL C/B 7.5SOB     1
CC0000088141909A202100000027630900000027630927/10/20211305    3190333624042196419000024673000001411210000000000000                                                                  JERINGA DESECHABLE 3 ML 21 X 1 1/2SOB     1
CC0000088141909A202100000027630900000027630927/10/20211305    3190333624042196419000024674000000220660000000000000                             JERINGA A 3 PARTES CON AGUJA  SOB X 1 RYMCO  10ML BN EXENTO-DC.417/2020SIN     5
CC0000088141909A202100000027630900000027630927/10/20211305    3190333624042196419000024674500000322810000000000000                                                                   JERINGA DESECHABLE 20 ml 21*1 1/2SIN     1
CC0000088141909A202100000027630900000027630927/10/20211305    31903336240421964190000E1AD0200003888320000000000000                                                                              HARTMAN SLN INY 500 MLBOL     1
CC0000088141909A202100000027630900000027630927/10/20211305    31903336240421964190000E1AB0500003888400000000000000                                                              SOLUCION SALINA 0.9% SLN INY X 1000 MLBOL     2
CC0000088141909A202100000027630900000027630927/10/20211305    31903336240421964190000E1AB0300003888390000000000000                                                            SOLUCION SALINA 0.9% SLN INY BO X 500 MLBOL     5
CC0000088141909A202100000027630900000027630927/10/20211305    31903336240421964190000E1AB0700003888350000000000000                                                            SOLUCION SALINA 0.9% SLN INY BO X 250 MLBOL     2
CC0000088141909A202100000027630900000027630927/10/20211305    31903336240421964190000E1AB0200000199290000000000000                                                            SOLUCION SALINA 0.9% SLN INY BO X 100 MLBIN     1
CC0000088141909A202100000027630900000027630927/10/20211305    31903336240421964190000N02B1100001169680000000000000                              PARACETAMOL 1000MG/100ML(10MG/ML) SOL INY  VIAL X 100ML FRESENIUS KABIVAL     1
CC0000088141909A202100000027630900000027630927/10/20211305    31903336240421964190000A2BC0900000200150000000000000                                                                               ORAZOLE Sln Iny 40 mgCIN     1
CC0000088141909A202100000027630900000027630927/10/20211305    31903336240421964190000N01A0400003939010000000000000                                               MAYOPROFOL 200MG/20ML(1%) EMUL INY CAJ X 1VIAL X 20MLVAL     1
CC0000088141909A202100000027630900000027630927/10/20211305    31903336240421964190000M01A0400001341250000000000000                                                                              DYNASTAT AMP 40 MG /R/VAL     1
CC0000088141909A202100000027630900000027630927/10/20211305    31903336240421964190000N2BB1100000217160000000000000                                                                      NOVALGINA Sln Iny 2.5 g x 5 mlAMP     1
CC0000088141909A202100000027630900000027630927/10/20211305    31903336240421964190000A4AD0200000202990000000000000                                                                     PLITICAN HCL Sln Iny 50 mg/2 mlAMP     1
CC0000088141909A202100000027630900000027630927/10/20211305    31903336240421964190000H02AB500001664950000000000000                                                            DEXAMETASONA SLN INY 8 MG/2 ML AMP /CDS/AMP     1
CC0000088141909A202100000027630900000027630927/10/20211305    31903336240421964190000C01C0300001261020000000000000                                                               ETILEFRINA HCL SLN INY 10 MG/1 ML /R/AMP     1
CC0000088141909A202100000027630900000027630927/10/20211305    31903336240421964190000N1BA2400001195280000000000000                                                                    LIDOCAINA 2% S/E Sln Iny x 10 mlAMP     2
CC0000088141909A202100000027630900000027630927/10/20211305    31903336240421964190000M3AC0600000720540000000000000                                                                         ESMERON SLN INY 50 MG /5 MLVAL     1
CC0000088141909A202100000027630900000027630927/10/20211305    31903336240421964190000N2AA0400003888080000000000000                                                                     DEMEROL HCL Sln Iny 100 mg/2 mlAMP     1
CC0000088141909A202100000027630900000027630927/10/20211305    31903336240421964190000N5CD0300000218170000000000000                                                                          DORMICUM Sln Iny 5 mg/5 mlAMP     1
CC0000088141909A202100000027630900000027630927/10/20211305    31903336240421964190000N2AA0700001587170000000000000                                                                                 ULTIVA Sln Iny 2 mgVAL     2
CC0000088141909A202100000027630900000027630927/10/20211305    31903336240421964190000N1AH0200003906560000000000000                                                                     FENTANIL Iny 0.05 mg/ml x 10 mlAMP     1
