RC0001130278037U202100050131390500050131390527/10/20211241    3190100323942196432000024674000000220660000000000000                             JERINGA A 3 PARTES CON AGUJA  SOB X 1 RYMCO  10ML BN EXENTO-DC.417/2020SIN     3
CC0000012566555U202100050131390500050131390527/10/20211241    3190100323942196432000011082700001620070000000000000                                                               EQUIPO SET PRIMARIO C/CLAVE REF 14001BOL     1
RC0001130278037U202100050131390500050131390527/10/20211241    3190100323942196432000011082700001620070000000000000                                                               EQUIPO SET PRIMARIO C/CLAVE REF 14001BOL     1
CC0000012566555U202100050131390500050131390527/10/20211241    31901003239421964320000Q1AA7100000610620000000000000                                                            CATETER PERIFE INTROCAN # 18G 4251687-04SIN     1
RC0001130278037U202100050131390500050131390527/10/20211241    31901003239421964320000Q1AA7400003911720000000000000                                                            CATETER PERIFE INTROCAN # 24G 4251601-04SOB     1
CC0000012566555U202100050131390500050131390527/10/20211241    3190100323942196432000030936900001431840000000000000                                                                                              BURETABOL     1
RC0001130278037U202100050131390500050131390527/10/20211241    3190100323942196432000000602600001259280000000000000                                                             APOSITO TEGADERM IV PD 1610 5CM X 5.7CMSOB     1
CC0000012566555U202100050131390500050131390527/10/20211241    3190100323942196432000016830000000970620000000000000                                                             SIST FIJACION CAT PERIFERICO 6.5X7 1683SOB     1
CC0000012566555U202100050131390500050131390527/10/20211241    31901003239421964320000E1AB0500003888400000000000000                                                              SOLUCION SALINA 0.9% SLN INY X 1000 MLBOL     1
RC0001130278037U202100050131390500050131390527/10/20211241    31901003239421964320000E1AC0100000199400000000000000                                                                          SUERO MIXTO Sln Iny 500 mlBIN     1
