CC0000032734764H202100015022522600015022522627/10/20211321    3190297823742196425000043879400001138170000000000000                                                                  HOJA BISTURI # 10 CSSB 10 01002000SOB     2
CC0000032734764H202100015022522600015022522627/10/20211321    3190297823742196425000013077800000471960000000000000                                                             GASA NO TEJIDA EST 7.5 X 7.5 SOB X 3 UNSOB    15
CC0000032734764H202100015022522600015022522627/10/20211321    3190297823742196425000042743200003929860000000000000                   GASA ADHESIVA STRETCH REF 02038-00 ROL X 10MT FIXOMULL 15CM BN EXENTO-DC.417/2020CMT    90
