CC0000008761530H202100000555027200000555027227/10/20211808    31901360237421964250000B1AB0300003939210000000000000                 ENOXAPARINA SODICA 20MG/0.2ML(100MG/ML) SOL INY INST CAJ X 2JERPREL X 0.2ML TECHDOWJRP     1
CC0000008761530H202100000555027200000555027227/10/20211812    31901360237421964250000N07X0300003913670000000000000                                    DEXMEDETOMIDINA 400MCG/100ML(4MCG/ML) SOL INY BOL X 100ML BAXTERBOL     2
CC0000008761530H202100000555027200000555027227/10/20211209    31901360237421964250000N07X0300003913670000000000000                                    DEXMEDETOMIDINA 400MCG/100ML(4MCG/ML) SOL INY BOL X 100ML BAXTERBOL     2
