RC0001063188067H202100910142102700910142102727/10/20210814    3190325423742196425000024674000000220660000000000000                             JERINGA A 3 PARTES CON AGUJA  SOB X 1 RYMCO  10ML BN EXENTO-DC.417/2020SIN     6
RC0001063188067H202100910142102700910142102727/10/20210814    31903254237421964250000V07A1300000502600000000000000                                                                                AGUA ESTERIL x 10 mlAMP     4
RC0001063188067H202100910142102700910142102727/10/20211055    3150012023742196425000024674000000220660000000000000                             JERINGA A 3 PARTES CON AGUJA  SOB X 1 RYMCO  10ML BN EXENTO-DC.417/2020SIN    12
RC0001063188067H202100910142102700910142102727/10/20211055    31500120237421964250000V07A1300000502600000000000000                                                                                AGUA ESTERIL x 10 mlAMP     8
RC0001063188067H202100910142102700910142102727/10/20211058    31902242237421964250000V07A1300000502600000000000000                                                                                AGUA ESTERIL x 10 mlAMP     4
RC0001063188067H202100910142102700910142102727/10/20211058    3190224223742196425000024674000000220660000000000000                             JERINGA A 3 PARTES CON AGUJA  SOB X 1 RYMCO  10ML BN EXENTO-DC.417/2020SIN     6
RC0001063188067H202100910142102700910142102727/10/20211310    31500363237421964250000E1AB0300003888390000000000000                                                            SOLUCION SALINA 0.9% SLN INY BO X 500 MLBOL     1
RC0001063188067H202100910142102700910142102727/10/20211608    3190294123742196425000038568300000257010000000000000                                                                                   SONDA NELATON #08SIN     3
RC0001063188067H202100910142102700910142102727/10/20211621    31902963237421964250000E1AB0300003888390000000000000                                                            SOLUCION SALINA 0.9% SLN INY BO X 500 MLBOL     1
