CC0001129523937H202100000555011600000555011627/10/20210749     3300010237421964250000B01A0300000467730000000000000                                                                FRAGMIN SLN INY 5.000 UI /0.2 ML /R/SIN     1
CC0001129523937H202100000555011600000555011627/10/20211507    31903028237421964250000E1AB0200000199290000000000000                                                            SOLUCION SALINA 0.9% SLN INY BO X 100 MLBIN     3
CC0001129523937H202100000555011600000555011627/10/20211738     3300009237421964250000H02AB500001664950000000000000                                                            DEXAMETASONA SLN INY 8 MG/2 ML AMP /CDS/AMP     1
CC0001129523937H202100000555011600000555011627/10/20211728     3300009237421964250000H02AB500001664950000000000000                                                            DEXAMETASONA SLN INY 8 MG/2 ML AMP /CDS/AMP     1
CC0001129523937H202100000555011600000555011627/10/20210748     3300010237421964250000H02AB500001664950000000000000                                                            DEXAMETASONA SLN INY 8 MG/2 ML AMP /CDS/AMP     1
CC0001129523937H202100000555011600000555011627/10/20210335     3300009237421964250000H02AB500001664950000000000000                                                            DEXAMETASONA SLN INY 8 MG/2 ML AMP /CDS/AMP     2
CC0001129523937H202100000555011600000555011627/10/20210749     3300010237421964250000J01XA400001212420000000000000                                                               VANCOMICINA POLVO LIOF SLN INY 500 MGVAL     4
CC0001129523937H202100000555011600000555011627/10/20210333     3300009237421964250000J01XA400001212420000000000000                                                               VANCOMICINA POLVO LIOF SLN INY 500 MGVAL     2
CC0001129523937H202100000555011600000555011627/10/20211728     3300009237421964250000V6DF2000001629900000000000000                                                                     ENSURE PLUS HN LIQUIDO X 237 MLFCO     1
CC0001129523937H202100000555011600000555011627/10/20211738     3300009237421964250000N2AA0100000301640000000000000                                                                            MORFINA Sln Iny 10 mg/mlAMP     4
CC0001129523937H202100000555011600000555011627/10/20211728     3300009237421964250000C03C0100001672000000000000000                                                                       FUROSEMIDA SLN INY 20 MG/2 MLAMP     1
CC0001129523937H202100000555011600000555011627/10/20210749     3300010237421964250000C03C0100001672000000000000000                                                                       FUROSEMIDA SLN INY 20 MG/2 MLAMP     1
CC0001129523937H202100000555011600000555011627/10/20210334     3300009237421964250000C03C0100001672000000000000000                                                                       FUROSEMIDA SLN INY 20 MG/2 MLAMP     2
CC0001129523937H202100000555011600000555011627/10/20211728     3300009237421964250000J01CR300001659480000000000000                                                                  DELBACTAM POLVO LIOF SLN INY 4.5 GVAL     1
CC0001129523937H202100000555011600000555011627/10/20210748     3300010237421964250000J01CR300001659480000000000000                                                                  DELBACTAM POLVO LIOF SLN INY 4.5 GVAL     4
CC0001129523937H202100000555011600000555011627/10/20210334     3300009237421964250000J01CR300001659480000000000000                                                                  DELBACTAM POLVO LIOF SLN INY 4.5 GVAL     1
CC0001129523937H202100000555011600000555011627/10/20211728     3300009237421964250000N2BE2200001252930000000000000                                                                             ACETAMINOFEN Tab 500 MGTAB     2
CC0001129523937H202100000555011600000555011627/10/20210749     3300010237421964250000N2BE2200001252930000000000000                                                                             ACETAMINOFEN Tab 500 MGTAB     2
CC0001129523937H202100000555011600000555011627/10/20210334     3300009237421964250000N2BE2200001252930000000000000                                                                             ACETAMINOFEN Tab 500 MGTAB     2
CC0001129523937H202100000555011600000555011627/10/20211728     3300009237421964250000A02BC700001684270000000000000                                                            OMEPRAZOL 40MG POLVO LIOFILIZADO AMPOLLAVAL     1
CC0001129523937H202100000555011600000555011627/10/20211854    31903313237421964250000V07A1300000502600000000000000                                                                                AGUA ESTERIL x 10 mlAMP     6
CC0001129523937H202100000555011600000555011627/10/20211728     3300009237421964250000M04AA100001332710000000000000                                                                            ALOPURINOL 100MG TABLETATAB     1
