CC0000072133553U202100050131397300050131397327/10/20212056    3190098223942196432000045136100001419300000000000000                                                                            LANCETA DEXTROMETER X UNPZA     2
CC0000072133553U202100050131397300050131397327/10/20212056    3190098223942196432000024674000000220660000000000000                             JERINGA A 3 PARTES CON AGUJA  SOB X 1 RYMCO  10ML BN EXENTO-DC.417/2020SIN     3
CC0000022509832U202100050131397300050131397327/10/20212056    3190098223942196432000024674000000220660000000000000                             JERINGA A 3 PARTES CON AGUJA  SOB X 1 RYMCO  10ML BN EXENTO-DC.417/2020SIN     4
CC0000022509832U202100050131397300050131397327/10/20212056    3190098223942196432000011082700001620070000000000000                                                               EQUIPO SET PRIMARIO C/CLAVE REF 14001BOL     1
CC0000072133553U202100050131397300050131397327/10/20212056    3190098223942196432000030936900001431840000000000000                                                                                              BURETABOL     1
CC0000055304547U202100050131397300050131397327/10/20212056    31900982239421964320000E1AD0300000199490000000000000                                         LACTATO RINGER USP (HARTMANN)  SOL INY  BOL X 1000ML BAXTERBIN     1
CC0000072133553U202100050131397300050131397327/10/20212056    31900982239421964320000E1AB0300003888390000000000000                                                            SOLUCION SALINA 0.9% SLN INY BO X 500 MLBOL     2
CC0000022509832U202100050131397300050131397327/10/20212056    31900982239421964320000E1AB0300003888390000000000000                                                            SOLUCION SALINA 0.9% SLN INY BO X 500 MLBOL     1
CC0000072133553U202100050131397300050131397327/10/20212056    3190098223942196432000011137100001419310000000000000                                                               TIRA GLUCOMETRIA FREESTYLE H OPTIUM .PZA     2
