RC0001044662561H202100000555011900000555011927/10/20210344     3300009237421964250000A6AC0200001467010000000000000                                                             LACTULAX JARABE 66.7G/100ML SOX15ML /R/SOB     1
RC0001044662561H202100000555011900000555011927/10/20211124    31500268237421964250000E1AC0100000199400000000000000                                                                          SUERO MIXTO Sln Iny 500 mlBIN     1
RC0001044662561H202100000555011900000555011927/10/20210850     3300009237421964250000L1BC2200001634310000000000000                                                                  ASPARAGINASA SLN INY 10.000 UI /R/VAL     1
RC0001044662561H202100000555011900000555011927/10/20211732     3300009237421964250000H02AB700000585860000000000000                                                                HIDROCORTISONA SUCCI POL LIOF 100 MGVAL     2
RC0001044662561H202100000555011900000555011927/10/20211732     3300009237421964250000H2AB0200001276910000000000000                                                                               PREDNISOLONA TAB 5 MGTAB     3
RC0001044662561H202100000555011900000555011927/10/20210850     3300009237421964250000H2AB0200001276910000000000000                                                                               PREDNISOLONA TAB 5 MGTAB     7
RC0001044662561H202100000555011900000555011927/10/20210343     3300009237421964250000H2AB0200001276910000000000000                                                                               PREDNISOLONA TAB 5 MGTAB     2
RC0001044662561H202100000555011900000555011927/10/20211854    31903313237421964250000V07A1300000502600000000000000                                                                                AGUA ESTERIL x 10 mlAMP     5
RC0001044662561H202100000555011900000555011927/10/20210850     3300009237421964250000A04AA200003932460000000000000                                                 ONDAX 4MG/2ML(2MG/ML) SOL INY INST CAJ X 1AMP X 2MLAMP     2
RC0001044662561H202100000555011900000555011927/10/20210345     3300009237421964250000A04AA200003932460000000000000                                                 ONDAX 4MG/2ML(2MG/ML) SOL INY INST CAJ X 1AMP X 2MLAMP     1
RC0001044662561H202100000555011900000555011927/10/20210344     3300009237421964250000A04AA200003932460000000000000                                                 ONDAX 4MG/2ML(2MG/ML) SOL INY INST CAJ X 1AMP X 2MLAMP     1
