TI0001042848386H202100915437102700915437102727/10/20211310    3150036323742196425000016830000000970620000000000000                                                             SIST FIJACION CAT PERIFERICO 6.5X7 1683SOB     1
TI0001042848386H202100915437102700915437102727/10/20211310    3150036323742196425000001956000001620610000000000000                                                                      CONECTOR MICRO CLAVE LAT-MC100SOB     1
TI0001042848386H202100915437102700915437102727/10/20211310    31500363237421964250000E1AC0100000199400000000000000                                                                          SUERO MIXTO Sln Iny 500 mlBIN     2
TI0001042848386H202100915437102700915437102727/10/20211621    3190296323742196425000001956000001620610000000000000                                                                      CONECTOR MICRO CLAVE LAT-MC100SOB     1
TI0001042848386H202100915437102700915437102727/10/20211621    3190296323742196425000016830000000970620000000000000                                                             SIST FIJACION CAT PERIFERICO 6.5X7 1683SOB     1
TI0001042848386H202100915437102700915437102727/10/20211621    31902963237421964250000E1AC0100000199400000000000000                                                                          SUERO MIXTO Sln Iny 500 mlBIN     2
