CC0000022438763U202100050131397400050131397427/10/20212101    3150040623942196432000030161400001459220000000000000                                                                       MANGUERA SUCCION 6 MM*3.1 MTSSOB     1
CC0001140889416U202100050131397400050131397427/10/20212101    3150040623942196432000038568300000257010000000000000                                                                                   SONDA NELATON #08SIN     1
CC0000032881818U202100050131397400050131397427/10/20212101    3150040623942196432000035802000001014670000000000000                                                                        NEBULIZADOR C/MASCARA ADULTOBOL     1
CC0001140889416U202100050131397400050131397427/10/20212101    31500406239421964320000B05C0200001339660000000000000                                                                        SOLUCION SALINA 0.9% X 10 MLJRP     1
CC0000032881818U202100050131397400050131397427/10/20212101    31500406239421964320000B05C0200001339660000000000000                                                                        SOLUCION SALINA 0.9% X 10 MLJRP     1
CC0000022438763U202100050131397400050131397427/10/20212101    31500406239421964320000B05C0200001339660000000000000                                                                        SOLUCION SALINA 0.9% X 10 MLJRP     1
CC0000022438763U202100050131397400050131397427/10/20212101    3150040623942196432000020816000001096410000000000000                                                                          LINER PARED DELGADA 1500CCBOL     1
