RC0001146542960H202100015022523000015022523027/10/20212006    3190115123742196425000038568200000257000000000000000                                                                                   SONDA NELATON #06SIN     1
CC0000036724804H202100015022523000015022523027/10/20212006    3190115123742196425000038568400000256940000000000000                                                                                   SONDA NELATON #10SIN     1
CC0000036724804H202100015022523000015022523027/10/20212006    3190115123742196425000043485100001618510000000000000                GUANTE QUIRURGICO DE LATEX REF 2D72N65X CAJ X 50 PROTEXIS  6.5 BN EXENTO-DC.417/2020SOB     5
