CC0001140828821H202100000555007800000555007827/10/20212302     3300009237421964250000A02BC100001677520000000000000                                                                ESOMEPRAZOL POLVO LIOF INY 40 MG /R/VAL     1
CC0001140828821H202100000555007800000555007827/10/20210513     3300010237421964250000A02BC100001677520000000000000                                                                ESOMEPRAZOL POLVO LIOF INY 40 MG /R/VAL     1
CC0001140828821H202100000555007800000555007827/10/20211418     3300010237421964250000A03F0300001626860000000000000                                                                   METOCLOPRAMIDA SLN INY 10 MG/2 MLAMP     1
CC0001140828821H202100000555007800000555007827/10/20212303     3300009237421964250000B1AB0200003939510000000000000                 ENOXAPARINA SODICA 40MG/0.4ML(100MG/ML) SOL INY INST CAJ X 2JERPREL X 0.4ML TECHDOWJRP     1
CC0001140828821H202100000555007800000555007827/10/20210513     3300010237421964250000B1AB0900003939260000000000000                 ENOXAPARINA SODICA 60MG/0.6ML(100MG/ML) SOL INY INST CAJ X 2JERPREL X 0.6ML TECHDOWJRP     2
CC0001140828821H202100000555007800000555007827/10/20212131    31500566237421964250000E1AB0300003888390000000000000                                                            SOLUCION SALINA 0.9% SLN INY BO X 500 MLBOL     1
CC0001140828821H202100000555007800000555007827/10/20210513     3300010237421964250000H03AA500001315460000000000000                                                                                SYNTHROID TAB 50 MCGTAB     1
CC0001140828821H202100000555007800000555007827/10/20212303     3300009237421964250000J3BA0500001278190000000000000                                                                            BACTRIM F TAB 800/160 MGTAB     1
CC0001140828821H202100000555007800000555007827/10/20210114     3300010237421964250000J3BA0500001278190000000000000                                                                            BACTRIM F TAB 800/160 MGTAB     1
CC0001140828821H202100000555007800000555007827/10/20212303     3300009237421964250000J2AX0200001333950000000000000                                                                                 DIFLUCAN Cap 200 mgCAP     1
CC0001140828821H202100000555007800000555007827/10/20212302     3300009237421964250000J2AX0200001333950000000000000                                                                                 DIFLUCAN Cap 200 mgCAP     1
CC0001140828821H202100000555007800000555007827/10/20210113     3300010237421964250000J2AX0200001333950000000000000                                                                                 DIFLUCAN Cap 200 mgCAP     1
CC0001140828821H202100000555007800000555007827/10/20211132    31903291237421964250000V07A1300000502600000000000000                                                                                AGUA ESTERIL x 10 mlAMP     5
