CC0000053134277H202100000555026100000555026127/10/20211149     3300010237421964250000A4AD0200000202990000000000000                                                                     PLITICAN HCL Sln Iny 50 mg/2 mlAMP     1
CC0000053134277H202100000555026100000555026127/10/20211148     3300010237421964250000A4AD0200000202990000000000000                                                                     PLITICAN HCL Sln Iny 50 mg/2 mlAMP     2
CC0000053134277H202100000555026100000555026127/10/20211149     3300010237421964250000A03A0800001177800000000000000                                                                      COLYPAN SLN INY 50 MG/5 ML /R/AMP     3
CC0000053134277H202100000555026100000555026127/10/20211349     3300009237421964250000C3DA0600001334560000000000000                                                                               GLUCOPHAGE Tab 500 mgTAB     2
CC0000053134277H202100000555026100000555026127/10/20211349     3300009237421964250000B1AB0200003939510000000000000                 ENOXAPARINA SODICA 40MG/0.4ML(100MG/ML) SOL INY INST CAJ X 2JERPREL X 0.4ML TECHDOWJRP     1
CC0000053134277H202100000555026100000555026127/10/20211149     3300010237421964250000M1AB0900001019600000000000000                                                                              VOLTAREN Sln Iny 75 mgAMP     3
CC0000053134277H202100000555026100000555026127/10/20211149     3300010237421964250000N02B1100001169680000000000000                              PARACETAMOL 1000MG/100ML(10MG/ML) SOL INY  VIAL X 100ML FRESENIUS KABIVAL     4
