TI0001043153192U202100050131396500050131396527/10/20211959    3150036223942196432000045136100001419300000000000000                                                                            LANCETA DEXTROMETER X UNPZA     2
TI0001043153192U202100050131396500050131396527/10/20211959    3150036223942196432000024672100001609890000000000000                                                            JERINGA INSULINA 1ML TAPA NARANJA JEI013SOB     2
TI0001043153192U202100050131396500050131396527/10/20211959    3150036223942196432000001956000001620610000000000000                                                                      CONECTOR MICRO CLAVE LAT-MC100SOB     1
TI0001043153192U202100050131396500050131396527/10/20211959    31500362239421964320000Q1AA7300000610640000000000000                                                            CATETER PERIFE INTROCAN # 22G 4251628-04SIN     1
TI0001043153192U202100050131396500050131396527/10/20211959    3150036223942196432000016830000000970620000000000000                                                             SIST FIJACION CAT PERIFERICO 6.5X7 1683SOB     1
TI0001043153192U202100050131396500050131396527/10/20211959    3150036223942196432000011137100001419310000000000000                                                               TIRA GLUCOMETRIA FREESTYLE H OPTIUM .PZA     2
