CC0000022549015H202100015032578300015032578327/10/20211953    3150006523742196425000000800300000859980000000000000                                                                     VENDA ELASTICA 6 X 5 YARDAS ANTBOL     4
CC0000022549015H202100015032578300015032578327/10/20211953    3150006523742196425000011089400001083350000000000000                                                              GUANTE ESTERIL LATEX S/POLVO TALLA 8.0SOB     1
CC0000022549015H202100015032578300015032578327/10/20211953    3150006523742196425000013077800000471960000000000000                                                             GASA NO TEJIDA EST 7.5 X 7.5 SOB X 3 UNSOB    10
PA0000101415266H202100015032578300015032578327/10/20211953    3150006523742196425000022426800001140510000000000000                                                                    EQUIPO MACROGOTEO BAXTER MRC0001SOB     1
PA000000G691907H202100015032578300015032578327/10/20211953    3150006523742196425000022426800001140510000000000000                                                                    EQUIPO MACROGOTEO BAXTER MRC0001SOB     1
PA0000101415266H202100015032578300015032578327/10/20211953    3150006523742196425000030936900001431840000000000000                                                                                              BURETABOL     1
PA000000G691907H202100015032578300015032578327/10/20211953    3150006523742196425000030936900001431840000000000000                                                                                              BURETABOL     1
PA0000101415266H202100015032578300015032578327/10/20211953    31500065237421964250000E1AD0300000199490000000000000                                         LACTATO RINGER USP (HARTMANN)  SOL INY  BOL X 1000ML BAXTERBIN     3
PA000000G691907H202100015032578300015032578327/10/20211953    31500065237421964250000E1AD0300000199490000000000000                                         LACTATO RINGER USP (HARTMANN)  SOL INY  BOL X 1000ML BAXTERBIN     3
CC0001045733540H202100015032578300015032578327/10/20211953    31500065237421964250000E1AB0500003888400000000000000                                                              SOLUCION SALINA 0.9% SLN INY X 1000 MLBOL     3
