CC0000032734764H202100000555016300000555016327/10/20210743     3300010237421964250000A6AC0200001467010000000000000                                                             LACTULAX JARABE 66.7G/100ML SOX15ML /R/SOB     4
CC0000032734764H202100000555016300000555016327/10/20211105    31903288237421964250000E1AD0300000199490000000000000                                         LACTATO RINGER USP (HARTMANN)  SOL INY  BOL X 1000ML BAXTERBIN     1
CC0000032734764H202100000555016300000555016327/10/20210631    31903053237421964250000E1AD0300000199490000000000000                                         LACTATO RINGER USP (HARTMANN)  SOL INY  BOL X 1000ML BAXTERBIN     1
CC0000032734764H202100000555016300000555016327/10/20210741     3300010237421964250000B01AB200000513350000000000000                                                                        CLENOX SLN INY 40 MG/ 0.4 MLJRP     1
CC0000032734764H202100000555016300000555016327/10/20211446     3300009237421964250000H2AB0200001276910000000000000                                                                               PREDNISOLONA TAB 5 MGTAB     4
CC0000032734764H202100000555016300000555016327/10/20211446     3300009237421964250000J01CR300001659480000000000000                                                                  DELBACTAM POLVO LIOF SLN INY 4.5 GVAL     2
CC0000032734764H202100000555016300000555016327/10/20210742     3300010237421964250000J01CR300001659480000000000000                                                                  DELBACTAM POLVO LIOF SLN INY 4.5 GVAL     2
CC0000032734764H202100000555016300000555016327/10/20211446     3300009237421964250000N2BB0100000787510000000000000                                                                    DIPIRONA SODICA Sln Iny 1 g/2 mlAMP     2
CC0000032734764H202100000555016300000555016327/10/20210744     3300010237421964250000N2BB0100000787510000000000000                                                                    DIPIRONA SODICA Sln Iny 1 g/2 mlAMP     2
CC0000032734764H202100000555016300000555016327/10/20210744     3300010237421964250000N2AX0900001672040000000000000                                                                              TRAMADOL SLN INY 50 MGAMP     2
CC0000032734764H202100000555016300000555016327/10/20210743     3300010237421964250000N06AX200001277490000000000000                                                                                 TRAZODONA TAB 50 MGTAB     1
CC0000032734764H202100000555016300000555016327/10/20210744     3300010237421964250000A02BC700001684270000000000000                                                            OMEPRAZOL 40MG POLVO LIOFILIZADO AMPOLLAVAL     1
