CC0000009295758U202100000555040800000555040827/10/20211908    31900930239421964320000E1AB0200000199290000000000000                                                            SOLUCION SALINA 0.9% SLN INY BO X 100 MLBIN     1
CC0000009295758U202100000555040800000555040827/10/20211849     3300004239421964320000H02A0100001664960000000000000                                                                        DEXAMETASONA SLN INY 4 MG/MLAMP     1
CC0000009295758U202100000555040800000555040827/10/20211849     3300004239421964320000N02B1100001169680000000000000                              PARACETAMOL 1000MG/100ML(10MG/ML) SOL INY  VIAL X 100ML FRESENIUS KABIVAL     1
