CC0000022487429H202100915663102700915663102727/10/20211026    3150012823742196425000011051900000226360000000000000                                                               KIT TRANSDUCTOR SENCILLO S/VAMP PX260SOB     1
CC0000022487429H202100915663102700915663102727/10/20211026    3150012823742196425000011082700001620070000000000000                                                               EQUIPO SET PRIMARIO C/CLAVE REF 14001BOL     1
CC0000022487429H202100915663102700915663102727/10/20211026    3150012823742196425000011089000001318280000000000000                                                             GUANTE CIRUGIA NITRILO ALFASAFE TALLA 8SOB     2
CC0000022487429H202100915663102700915663102727/10/20211026    3150012823742196425000013077800000471960000000000000                                                             GASA NO TEJIDA EST 7.5 X 7.5 SOB X 3 UNSOB    10
CC0000022487429H202100915663102700915663102727/10/20211026    3150012823742196425000016830000000970620000000000000                                                             SIST FIJACION CAT PERIFERICO 6.5X7 1683SOB     1
CC0000022487429H202100915663102700915663102727/10/20211026    3150012823742196425000018351500000232840000000000000                                                                                    SEDA 2-0 KS 623HSIN     2
CC0000022487429H202100915663102700915663102727/10/20211026    3150012823742196425000021016900000227720000000000000                                                               CATETER TRILUMEN AD CS15703E 7FR*20CMSIN     1
CC0000022487429H202100915663102700915663102727/10/20211026    3150012823742196425000022426800001140510000000000000                                                                    EQUIPO MACROGOTEO BAXTER MRC0001SOB     2
CC0000022487429H202100915663102700915663102727/10/20211026    3150012823742196425000035356500003919000000000000000                                                                                        LLAVE 3 VIASSOB     1
CC0000022487429H202100915663102700915663102727/10/20211026    3150012823742196425000043879200001138180000000000000                                                                                   HOJA BISTURI # 11SOB     1
CC0000022487429H202100915663102700915663102727/10/20211026    31500128237421964250000E1AD0300000199490000000000000                                         LACTATO RINGER USP (HARTMANN)  SOL INY  BOL X 1000ML BAXTERBIN     1
CC0000022487429H202100915663102700915663102727/10/20211026    31500128237421964250000Q1A11500000331560000000000000                                                                     CATETER RADIAL #20 REF. 115.090SIN     1
CC0000022487429H202100915663102700915663102727/10/20211026    31500128237421964250000V07A1300000502600000000000000                                                                                AGUA ESTERIL x 10 mlAMP     5
CC0000022487429H202100915663102700915663102727/10/20211026    3150012823742196425000001956000001620610000000000000                                                                      CONECTOR MICRO CLAVE LAT-MC100SOB     3
CC0000022487429H202100915663102700915663102727/10/20211026    31500128237421964250000E1AB0200000199290000000000000                                                            SOLUCION SALINA 0.9% SLN INY BO X 100 MLBIN     7
