CC0000022328269H202100015112648800015112648827/10/20211453    3190310223742196425000038569400000256750000000000000                                                                        SONDA ASPIRACION CONTROL #14SIN     3
CC0001042970504H202100015112648800015112648827/10/20211453    3190310223742196425000038569400000256750000000000000                                                                        SONDA ASPIRACION CONTROL #14SIN     3
CC0000032678618H202100015112648800015112648827/10/20211453    3190310223742196425000038569400000256750000000000000                                                                        SONDA ASPIRACION CONTROL #14SIN     3
CC0000022328269H202100015112648800015112648827/10/20211453    3190310223742196425000011004400000259880000000000000                                                                 SONDA TRACH CARE 14F CORTA 221036-5SOB     1
CC0000022328269H202100015112648800015112648827/10/20211453    3190310223742196425000043485100001618510000000000000                GUANTE QUIRURGICO DE LATEX REF 2D72N65X CAJ X 50 PROTEXIS  6.5 BN EXENTO-DC.417/2020SOB     3
CC0001042970504H202100015112648800015112648827/10/20211453    3190310223742196425000043485100001618510000000000000                GUANTE QUIRURGICO DE LATEX REF 2D72N65X CAJ X 50 PROTEXIS  6.5 BN EXENTO-DC.417/2020SOB     3
CC0000032678618H202100015112648800015112648827/10/20211453    3190310223742196425000043485100001618510000000000000                GUANTE QUIRURGICO DE LATEX REF 2D72N65X CAJ X 50 PROTEXIS  6.5 BN EXENTO-DC.417/2020SOB     3
CC0000022328269H202100015112648800015112648827/10/20211453    3190310223742196425000011078200001605710000000000000                                                                 CONECTOR FIBROBRONCOSCOPIO 9591 40CSOB     1
