CE0000000373941U202100050131386600050131386627/10/20210428    3150019423942196432000011082700001620070000000000000                                                               EQUIPO SET PRIMARIO C/CLAVE REF 14001BOL     1
CE0000000373941U202100050131386600050131386627/10/20210428    3150019423942196432000030936900001431840000000000000                                                                                              BURETABOL     1
CE0000000373941U202100050131386600050131386627/10/20210428    31500194239421964320000E1AB0300003888390000000000000                                                            SOLUCION SALINA 0.9% SLN INY BO X 500 MLBOL     1
