CC0000032678618H202100000555021300000555021327/10/20210921     3300010237421964250000B1AB0200003939510000000000000                 ENOXAPARINA SODICA 40MG/0.4ML(100MG/ML) SOL INY INST CAJ X 2JERPREL X 0.4ML TECHDOWJRP     1
CC0000032678618H202100000555021300000555021327/10/20211637     3300009237421964250000B03A0100001336630000000000000                                                                          SULFATO FERROSO Tab 200 mgTAB     2
CC0000032678618H202100000555021300000555021327/10/20211824    31900998237421964250000E1AB0200000199290000000000000                                                            SOLUCION SALINA 0.9% SLN INY BO X 100 MLBIN     5
CC0000032678618H202100000555021300000555021327/10/20210921     3300010237421964250000A11A2600000303300000000000000                                                                 GLUCERNA LIQUIDO 1.0 KCAL X 1500 MLFCO     1
CC0000032678618H202100000555021300000555021327/10/20210921     3300010237421964250000A02B0800001276960000000000000                                                                                 OMEPRAZOL CAP 20 MGCAP     1
CC0000032678618H202100000555021300000555021327/10/20210922     3300010237421964250000B03XA100001039270000000000000                                                            ERITROPOYETINA H SLN INY 2000 UI/ ML /R/AMP     1
CC0000032678618H202100000555021300000555021327/10/20211637     3300009237421964250000C02AC200001559150000000000000                                                                              CLONIDINA TAB 0.150 MGTAB     1
CC0000032678618H202100000555021300000555021327/10/20210921     3300010237421964250000C02AC200001559150000000000000                                                                              CLONIDINA TAB 0.150 MGTAB     1
CC0000032678618H202100000555021300000555021327/10/20210921     3300010237421964250000C02C0100001316210000000000000                                                                                     PRATEN TAB 1 MGTAB     1
CC0000032678618H202100000555021300000555021327/10/20210921     3300010237421964250000C7AB0100001276990000000000000                                                                            BETOPROLOL TAB 50 MG /R/TAB     1
CC0000032678618H202100000555021300000555021327/10/20210921     3300010237421964250000J01DH400001317770000000000000                                                                MEROPENEM POLVO LIOF SLN INY 1 G /R/CAJ     3
CC0000032678618H202100000555021300000555021327/10/20211637     3300009237421964250000N2BE2200001252930000000000000                                                                             ACETAMINOFEN Tab 500 MGTAB     2
CC0000032678618H202100000555021300000555021327/10/20210921     3300010237421964250000N2BE2200001252930000000000000                                                                             ACETAMINOFEN Tab 500 MGTAB     6
CC0000032678618H202100000555021300000555021327/10/20210921     3300010237421964250000N2AX0900001672040000000000000                                                                              TRAMADOL SLN INY 50 MGAMP     2
CC0000032678618H202100000555021300000555021327/10/20211824    31900998237421964250000V07A1300000502600000000000000                                                                                AGUA ESTERIL x 10 mlAMP    10
