RC0001046723806U202100050131388000050131388027/10/20210847    3150058823942196432000045136100001419300000000000000                                                                            LANCETA DEXTROMETER X UNPZA     1
CC0001001945416U202100050131388000050131388027/10/20210847    3150058823942196432000024674000000220660000000000000                             JERINGA A 3 PARTES CON AGUJA  SOB X 1 RYMCO  10ML BN EXENTO-DC.417/2020SIN     1
RC0001042321247U202100050131388000050131388027/10/20210847    3150058823942196432000024674000000220660000000000000                             JERINGA A 3 PARTES CON AGUJA  SOB X 1 RYMCO  10ML BN EXENTO-DC.417/2020SIN     2
CC0000072248781U202100050131388000050131388027/10/20210847    3150058823942196432000024674000000220660000000000000                             JERINGA A 3 PARTES CON AGUJA  SOB X 1 RYMCO  10ML BN EXENTO-DC.417/2020SIN     1
RC0001046723806U202100050131388000050131388027/10/20210847    3150058823942196432000011137100001419310000000000000                                                               TIRA GLUCOMETRIA FREESTYLE H OPTIUM .PZA     1
