CC0000008486413U202100050131386700050131386727/10/20210523    3190016523942196432000030161400001459220000000000000                                                                       MANGUERA SUCCION 6 MM*3.1 MTSSOB     1
CC0000008486413U202100050131386700050131386727/10/20210523    3190016523942196432000039175400001072080000000000000                                                                           TUBO ENDOTRAQUEAL C/B 8.5SOB     1
CC0000008486413U202100050131386700050131386727/10/20210523    3190016523942196432000055816100001138270000000000000                                                            SET VENTILACI BASIC AD MP00349 180CM*22MBOL     1
CC0000008486413U202100050131386700050131386727/10/20210523    3190016523942196432000010252000003981620000000000000                                                            RESUCITADOR MANUAL ADULTO BE - 2503 AMBUBOL     1
CC0000008486413U202100050131386700050131386727/10/20210523    3190016523942196432000035639600001014740000000000000                                                                              MASCARA VENTURY ADULTOBOL     1
CC0000008486413U202100050131386700050131386727/10/20210523    3190016523942196432000036441300000236540000000000000                                                                    JERINGA 1 ML GASES ARTERIAL 9023SIN     2
CC0000008486413U202100050131386700050131386727/10/20210523    3190016523942196432000043492400000516570000000000000                                                                   GUIA P/TUBO ENDOTRAQ ADULTO 85865SIN     1
CC0000008486413U202100050131386700050131386727/10/20210523    3190016523942196432000011084700000516550000000000000                                                                FILTRO CALOR-HUMEDAD AD REF 352/5877SIN     1
CC0000008486413U202100050131386700050131386727/10/20210523    3190016523942196432000038568100000258050000000000000                                                                         CANULA OXIGENO NASAL ADULTOSIN     1
CC0000008486413U202100050131386700050131386727/10/20210523    3190016523942196432000011073300001096420000000000000                                                                BOLSA DE SUCCION DE FLUIDOS x 2500mLBOL     1
