TI0001047048202H202100015042507700015042507727/10/20210326    3150010723742196425000024674000000220660000000000000                             JERINGA A 3 PARTES CON AGUJA  SOB X 1 RYMCO  10ML BN EXENTO-DC.417/2020SIN    25
CC0001065132676H202100015042507700015042507727/10/20210326    3150010723742196425000024674000000220660000000000000                             JERINGA A 3 PARTES CON AGUJA  SOB X 1 RYMCO  10ML BN EXENTO-DC.417/2020SIN    25
TI0001081819374H202100015042507700015042507727/10/20210326    3150010723742196425000001956000001620610000000000000                                                                      CONECTOR MICRO CLAVE LAT-MC100SOB     1
RC0001043710353H202100015042507700015042507727/10/20210326    3150010723742196425000001956000001620610000000000000                                                                      CONECTOR MICRO CLAVE LAT-MC100SOB     1
TI0001081819374H202100015042507700015042507727/10/20210326    31500107237421964250000Q1AA7400003911720000000000000                                                            CATETER PERIFE INTROCAN # 24G 4251601-04SOB     1
TI0001081819374H202100015042507700015042507727/10/20210326    3150010723742196425000016830000000970620000000000000                                                             SIST FIJACION CAT PERIFERICO 6.5X7 1683SOB     1
TI0001042265795H202100015042507700015042507727/10/20210326    31500107237421964250000E1AA0100003888590000000000000                                                                        DEXTROSA 5% Sln Iny X 500 mlBOL     3
