CC0001124380286H202100000555005300000555005327/10/20210517     3300010237421964250000B1AB0200003939510000000000000                 ENOXAPARINA SODICA 40MG/0.4ML(100MG/ML) SOL INY INST CAJ X 2JERPREL X 0.4ML TECHDOWJRP     1
CC0001124380286H202100000555005300000555005327/10/20212129    31500566237421964250000E1AB0300003888390000000000000                                                            SOLUCION SALINA 0.9% SLN INY BO X 500 MLBOL     1
CC0001124380286H202100000555005300000555005327/10/20210024    31500460237421964250000E1AB0300003888390000000000000                                                            SOLUCION SALINA 0.9% SLN INY BO X 500 MLBOL     1
CC0001124380286H202100000555005300000555005327/10/20212304     3300009237421964250000C3CA0200000195520000000000000                                                                           LASIX SLN INY 20 MG/ 2 MLAMP     2
CC0001124380286H202100000555005300000555005327/10/20210322     3300009237421964250000C3CA0200000195520000000000000                                                                           LASIX SLN INY 20 MG/ 2 MLAMP     1
CC0001124380286H202100000555005300000555005327/10/20210122     3300010237421964250000C3CA0200000195520000000000000                                                                           LASIX SLN INY 20 MG/ 2 MLAMP     1
CC0001124380286H202100000555005300000555005327/10/20210517     3300010237421964250000C09CA400001277130000000000000                                                                                  LOSARTAN TAB 50 MGTAB     2
CC0001124380286H202100000555005300000555005327/10/20212305     3300009237421964250000P2XX0300001337320000000000000                                                                                   ZENTEL TAB 200 MGTAB     2
CC0001124380286H202100000555005300000555005327/10/20210517     3300010237421964250000P2XX0300001337320000000000000                                                                                   ZENTEL TAB 200 MGTAB     1
CC0001124380286H202100000555005300000555005327/10/20210121     3300010237421964250000P2XX0300001337320000000000000                                                                                   ZENTEL TAB 200 MGTAB     1
CC0001124380286H202100000555005300000555005327/10/20211133    31903291237421964250000V07A1300000502600000000000000                                                                                AGUA ESTERIL x 10 mlAMP     5
