CC0000032832774H202100000555020100000555020127/10/20210846    31903310237421964250000N2BB0200000513030000000000000                                                                           LISALGIL Sln Iny 2 g/5 mlAMP     2
CC0000032832774H202100000555020100000555020127/10/20210846    31903310237421964250000A03BB100003889180000000000000                                      HIOSCINA BUTIL BROMURO 20MG/ML SOL INY CAJ X 100AMP X 1ML RYANAMP     3
CC0000032832774H202100000555020100000555020127/10/20210846    31903310237421964250000H03AA200001391520000000000000                                                                            LEVOTIROXINA TAB 100 MCGTAB     1
CC0000032832774H202100000555020100000555020127/10/20210846    31903310237421964250000J01CR200000947130000000000000                                                              AMPICILINA /SULBACTAN POLVO LIOF 1.5 GAMP     4
CC0000032832774H202100000555020100000555020127/10/20210846    31903310237421964250000A02BC700001684270000000000000                                                            OMEPRAZOL 40MG POLVO LIOFILIZADO AMPOLLAVAL     1
