CC0000007398827H202100000555034500000555034527/10/20211521     3300009237421964250000A02BC100001677520000000000000                                                                ESOMEPRAZOL POLVO LIOF INY 40 MG /R/VAL     2
CC0000007398827H202100000555034500000555034527/10/20212107     3300009237421964250000C3DA0500001278910000000000000                                                                               GLUCOPHAGE TAB 850 MGTAB     2
CC0000007398827H202100000555034500000555034527/10/20211521     3300009237421964250000B1AB0200003939510000000000000                 ENOXAPARINA SODICA 40MG/0.4ML(100MG/ML) SOL INY INST CAJ X 2JERPREL X 0.4ML TECHDOWJRP     2
CC0000007398827H202100000555034500000555034527/10/20211718    31903271237421964250000E1AD0300000199490000000000000                                         LACTATO RINGER USP (HARTMANN)  SOL INY  BOL X 1000ML BAXTERBIN     1
CC0000007398827H202100000555034500000555034527/10/20211553    31901015237421964250000E1AD0300000199490000000000000                                         LACTATO RINGER USP (HARTMANN)  SOL INY  BOL X 1000ML BAXTERBIN     1
CC0000007398827H202100000555034500000555034527/10/20212106     3300009237421964250000C02K0200001314230000000000000                                                                               ATACAND TAB 16 MG /R/TAB     1
CC0000007398827H202100000555034500000555034527/10/20212106     3300009237421964250000H03AA400001315380000000000000                                                                               SYNTHROID TAB 100 MCGTAB     1
CC0000007398827H202100000555034500000555034527/10/20211518     3300009237421964250000J01DA300001239950000000000000                                                            CEFAZOLINA SODICA POLVO LIOF SLN INY 1 GVAL     1
CC0000007398827H202100000555034500000555034527/10/20211517     3300009237421964250000J01DA300001239950000000000000                                                            CEFAZOLINA SODICA POLVO LIOF SLN INY 1 GVAL     3
CC0000007398827H202100000555034500000555034527/10/20211521     3300009237421964250000M01A0400001341250000000000000                                                                              DYNASTAT AMP 40 MG /R/VAL     3
CC0000007398827H202100000555034500000555034527/10/20211521     3300009237421964250000N02B1100001169680000000000000                              PARACETAMOL 1000MG/100ML(10MG/ML) SOL INY  VIAL X 100ML FRESENIUS KABIVAL     4
CC0000007398827H202100000555034500000555034527/10/20211809     3300009237421964250000N03A0800001278440000000000000                                                                                LYRICA CAP 75 MG /R/CAP     1
