CC0000008565480H202100015012566300015012566327/10/20211058    3190294123742196425000038569400000256750000000000000                                                                        SONDA ASPIRACION CONTROL #14SIN     8
CC0000008565480H202100015012566300015012566327/10/20211058    3190294123742196425000024674000000220660000000000000                             JERINGA A 3 PARTES CON AGUJA  SOB X 1 RYMCO  10ML BN EXENTO-DC.417/2020SIN     3
CC0000008565480H202100015012566300015012566327/10/20211058    3190294123742196425000011085100001082120000000000000                                                                           GUANTE QUIRURGICO TALLA 7SOB     6
CC0000008565480H202100015012566300015012566327/10/20211058    3190294123742196425000013077800000471960000000000000                                                             GASA NO TEJIDA EST 7.5 X 7.5 SOB X 3 UNSOB     6
CC0000008565480H202100015012566300015012566327/10/20211058    3190294123742196425000020816000001096410000000000000                                                                          LINER PARED DELGADA 1500CCBOL     1
