RC0001046723141H202100015052699800015052699827/10/20212311    3190264423742196425000038568300000257010000000000000                                                                                   SONDA NELATON #08SIN     1
RC0001046723141H202100015052699800015052699827/10/20212311    3190264423742196425000043485100001618510000000000000                GUANTE QUIRURGICO DE LATEX REF 2D72N65X CAJ X 50 PROTEXIS  6.5 BN EXENTO-DC.417/2020SOB     5
RC0001046723141H202100015052699800015052699827/10/20212311    3190264423742196425000013077800000471960000000000000                                                             GASA NO TEJIDA EST 7.5 X 7.5 SOB X 3 UNSOB     6
