CC0000008764419H202100015052699000015052699027/10/20211733    3150050223742196425000001956000001620610000000000000                                                                      CONECTOR MICRO CLAVE LAT-MC100SOB     1
CC0000008764419H202100015052699000015052699027/10/20211733    31500502237421964250000Q1AA7300000610640000000000000                                                            CATETER PERIFE INTROCAN # 22G 4251628-04SIN     2
CC0000008671218H202100015052699000015052699027/10/20211733    3150050223742196425000030936900001431840000000000000                                                                                              BURETABOL     1
