CC0000032675307H202100915265102700915265102727/10/20210814    3190325423742196425000024674000000220660000000000000                             JERINGA A 3 PARTES CON AGUJA  SOB X 1 RYMCO  10ML BN EXENTO-DC.417/2020SIN     6
CC0000032675307H202100915265102700915265102727/10/20210814    31903254237421964250000V07A1300000502600000000000000                                                                                AGUA ESTERIL x 10 mlAMP     4
CC0000032675307H202100915265102700915265102727/10/20211055    31500120237421964250000V07A1300000502600000000000000                                                                                AGUA ESTERIL x 10 mlAMP     8
CC0000032675307H202100915265102700915265102727/10/20211055    3150012023742196425000024674000000220660000000000000                             JERINGA A 3 PARTES CON AGUJA  SOB X 1 RYMCO  10ML BN EXENTO-DC.417/2020SIN    12
CC0000032675307H202100915265102700915265102727/10/20211058    31902242237421964250000V07A1300000502600000000000000                                                                                AGUA ESTERIL x 10 mlAMP     4
CC0000032675307H202100915265102700915265102727/10/20211058    3190224223742196425000024674000000220660000000000000                             JERINGA A 3 PARTES CON AGUJA  SOB X 1 RYMCO  10ML BN EXENTO-DC.417/2020SIN     6
CC0000032675307H202100915265102700915265102727/10/20211749    31500366237421964250000E1AD0300000199490000000000000                                         LACTATO RINGER USP (HARTMANN)  SOL INY  BOL X 1000ML BAXTERBIN     1
