CC0000008649209U202100050131396200050131396227/10/20211935    3190271223942196432000012475800000232220000000000000                                                                SUTURA ETHILON 4-0 PS-2  45CM P1667TSIN     1
CC0000008649209U202100050131396200050131396227/10/20211935    3190271223942196432000011047900000223010000000000000                                                                            JERINGA X 1ML REF 302579SIN     1
CC0000008649209U202100050131396200050131396227/10/20211935    3190271223942196432000011085300001082140000000000000                                                                           GUANTE QUIRURGICO TALLA 8SOB     1
CC0000008649209U202100050131396200050131396227/10/20211935    3190271223942196432000013077800000471960000000000000                                                             GASA NO TEJIDA EST 7.5 X 7.5 SOB X 3 UNSOB     8
CC0000008649209U202100050131396200050131396227/10/20211935    31902712239421964320000E1AB0200000199290000000000000                                                            SOLUCION SALINA 0.9% SLN INY BO X 100 MLBIN     1
