TI0001044214728H202100015022522900015022522927/10/20211958    3190327223742196425000022426800001140510000000000000                                                                    EQUIPO MACROGOTEO BAXTER MRC0001SOB     1
TI0001044214728H202100015022522900015022522927/10/20211958    3190327223742196425000011082700001620070000000000000                                                               EQUIPO SET PRIMARIO C/CLAVE REF 14001BOL     1
TI0001066284726H202100015022522900015022522927/10/20211958    3190327223742196425000001956000001620610000000000000                                                                      CONECTOR MICRO CLAVE LAT-MC100SOB     1
TI0001066284726H202100015022522900015022522927/10/20211958    31903272237421964250000Q1AA7200000610630000000000000                                                            CATETER PERIFE INTROCAN # 20G 4251644-04SIN     1
TI0001066284726H202100015022522900015022522927/10/20211958    31903272237421964250000Q1AA7300000610640000000000000                                                            CATETER PERIFE INTROCAN # 22G 4251628-04SIN     1
TI0001044214728H202100015022522900015022522927/10/20211958    3190327223742196425000030936900001431840000000000000                                                                                              BURETABOL     1
TI0001066284726H202100015022522900015022522927/10/20211958    3190327223742196425000016830000000970620000000000000                                                             SIST FIJACION CAT PERIFERICO 6.5X7 1683SOB     1
CC0000032893478H202100015022522900015022522927/10/20211958    31903272237421964250000E1AB0500003888400000000000000                                                              SOLUCION SALINA 0.9% SLN INY X 1000 MLBOL     1
CC0000032891580H202100015022522900015022522927/10/20211958    31903272237421964250000E1AB0500003888400000000000000                                                              SOLUCION SALINA 0.9% SLN INY X 1000 MLBOL     1
CC0001091661611H202100015022522900015022522927/10/20211958    31903272237421964250000E1AB0500003888400000000000000                                                              SOLUCION SALINA 0.9% SLN INY X 1000 MLBOL     1
CC0000057440089H202100015022522900015022522927/10/20211958    31903272237421964250000E1AB0500003888400000000000000                                                              SOLUCION SALINA 0.9% SLN INY X 1000 MLBOL     1
CC0000057440089H202100015022522900015022522927/10/20211958    31903272237421964250000E1AB0300003888390000000000000                                                            SOLUCION SALINA 0.9% SLN INY BO X 500 MLBOL     1
