CC0000008649209U202100000555039500000555039527/10/20211945    31902712239421964320000E1AB0200000199290000000000000                                                            SOLUCION SALINA 0.9% SLN INY BO X 100 MLBIN     1
CC0000008649209U202100000555039500000555039527/10/20211742     3300004239421964320000M1AE2500000191550000000000000                                                            PROFENID POLVO LIOF SLN INY 100MG/2ML/R/AMP     1
CC0000008649209U202100000555039500000555039527/10/20211947     3300004239421964320000M1AE1400000191560000000000000                                                                    PROFENID SLN INY 100 MG/2 ML /R/AMP     1
CC0000008649209U202100000555039500000555039527/10/20211742     3300004239421964320000N1BA2400001195280000000000000                                                                    LIDOCAINA 2% S/E Sln Iny x 10 mlAMP     1
