CC0000032683043H202100000555011000000555011027/10/20210749     3300009237421964250000B1AB1200003939350000000000000                 ENOXAPARINA SODICA 80MG/0.8ML(100MG/ML) SOL INY INST CAJ X 2JERPREL X 0.8ML TECHDOWJRP     2
CC0000032683043H202100000555011000000555011027/10/20210311    31902491237421964250000E1AB0300003888390000000000000                                                            SOLUCION SALINA 0.9% SLN INY BO X 500 MLBOL     1
CC0000032683043H202100000555011000000555011027/10/20210749     3300009237421964250000A02B0800001276960000000000000                                                                                 OMEPRAZOL CAP 20 MGCAP     1
CC0000032683043H202100000555011000000555011027/10/20211711     3300009237421964250000J01CR300001659480000000000000                                                                  DELBACTAM POLVO LIOF SLN INY 4.5 GVAL     1
CC0000032683043H202100000555011000000555011027/10/20210748     3300009237421964250000J01CR300001659480000000000000                                                                  DELBACTAM POLVO LIOF SLN INY 4.5 GVAL     3
CC0000032683043H202100000555011000000555011027/10/20210749     3300009237421964250000N2BE2200001252930000000000000                                                                             ACETAMINOFEN Tab 500 MGTAB     4
CC0000032683043H202100000555011000000555011027/10/20211447    31903254237421964250000V07A1300000502600000000000000                                                                                AGUA ESTERIL x 10 mlAMP     4
