RC0001042321247A202100000027635900000027635927/10/20211509    31903336240421964190000N01A0400003939010000000000000                                               MAYOPROFOL 200MG/20ML(1%) EMUL INY CAJ X 1VIAL X 20MLVAL     1
RC0001042321247A202100000027635900000027635927/10/20211509    3190333624042196419000020750700000576830000000000000                                                                 PLACA QUIRURGICA  NEONATO REF E7512SIN     1
RC0001042321247A202100000027635900000027635927/10/20211509    3190333624042196419000045138000001413890000000000000                                                                       LAPIZ ELECTROBISTURI  SOB X 1SOB     1
RC0001042321247A202100000027635900000027635927/10/20211509    3190333624042196419000049428300000860750000000000000                                                                       VENDA ELASTICA 4*5 NO ESTERILBOL     1
RC0001042321247A202100000027635900000027635927/10/20211509    3190333624042196419000040511500000258400000000000000                                                               APOSITO BACTIGRAS REF 7456  5CM X 5CMSIN     2
RC0001042321247A202100000027635900000027635927/10/20211509    3190333624042196419000019489600000233200000000000000                                                                   VICRYL 6-0 DOBLE AGUJA S-14 J570GSIN     1
RC0001042321247A202100000027635900000027635927/10/20211509    3190333624042196419000043879100001138200000000000000                                                                  HOJA BISTURI # 15 CSSB 15 01002003SOB     1
RC0001042321247A202100000027635900000027635927/10/20211509    31903336240421964190000E1AB0700003888350000000000000                                                            SOLUCION SALINA 0.9% SLN INY BO X 250 MLBOL     1
RC0001042321247A202100000027635900000027635927/10/20211509    3190333624042196419000011083900000607700000000000000                                                               EXTENSION MONITOREO PRESION 1281  12"SIN     1
RC0001042321247A202100000027635900000027635927/10/20211509    3190333624042196419000022425100001392880000000000000             EQUIPO MICROGOTEO SIN AGUJA REF 201000 PAQ X 100 SOB GOTHAPLAST   BN EXENTO-DC.417/2020BOL     1
RC0001042321247A202100000027635900000027635927/10/20211509    3190333624042196419000035356500003919000000000000000                                                                                        LLAVE 3 VIASSOB     1
RC0001042321247A202100000027635900000027635927/10/20211509    3190333624042196419000011073300001096420000000000000                                                                BOLSA DE SUCCION DE FLUIDOS x 2500mLBOL     1
RC0001042321247A202100000027635900000027635927/10/20211509    3190333624042196419000053074400000607910000000000000                                                               GASA ESTERIL 10*10 SOBRE X 3 UNIDADESSOB     2
RC0001042321247A202100000027635900000027635927/10/20211509    3190333624042196419000011085300001082140000000000000                                                                           GUANTE QUIRURGICO TALLA 8SOB     1
RC0001042321247A202100000027635900000027635927/10/20211509    3190333624042196419000011085200001585390000000000000                                                                       GUANTE QUIRURGICO TALLA 7 1/2SOB     2
RC0001042321247A202100000027635900000027635927/10/20211509    3190333624042196419000043485100001618510000000000000                GUANTE QUIRURGICO DE LATEX REF 2D72N65X CAJ X 50 PROTEXIS  6.5 BN EXENTO-DC.417/2020SOB     2
RC0001042321247A202100000027635900000027635927/10/20211509    3190333624042196419000051515300000598140000000000000                                                                            MASCARILLA ANESTESIA # 3SIN     1
RC0001042321247A202100000027635900000027635927/10/20211509    3190333624042196419000011099300000777780000000000000                                                                     FILTRO BACTERIANO VIRICO ADULTOBOL     1
RC0001042321247A202100000027635900000027635927/10/20211509    3190333624042196419000011047900000223010000000000000                                                                            JERINGA X 1ML REF 302579SIN     1
RC0001042321247A202100000027635900000027635927/10/20211509    3190333624042196419000024673000001411210000000000000                                                                  JERINGA DESECHABLE 3 ML 21 X 1 1/2SOB     1
RC0001042321247A202100000027635900000027635927/10/20211509    3190333624042196419000024674000000220660000000000000                             JERINGA A 3 PARTES CON AGUJA  SOB X 1 RYMCO  10ML BN EXENTO-DC.417/2020SIN     2
RC0001042321247A202100000027635900000027635927/10/20211509    31903336240421964190000E1AB0300003888390000000000000                                                            SOLUCION SALINA 0.9% SLN INY BO X 500 MLBOL     1
RC0001042321247A202100000027635900000027635927/10/20211509    31903336240421964190000E1AB0200000199290000000000000                                                            SOLUCION SALINA 0.9% SLN INY BO X 100 MLBIN     1
RC0001042321247A202100000027635900000027635927/10/20211509    31903336240421964190000N01B1600003888910000000000000                                             BUPIROP SE S/P 50MG/10ML(5MG/ML) SOL INY CAJ X 24AMPACKAPC     1
RC0001042321247A202100000027635900000027635927/10/20211509    31903336240421964190000N1BA2400001195280000000000000                                                                    LIDOCAINA 2% S/E Sln Iny x 10 mlAMP     1
RC0001042321247A202100000027635900000027635927/10/20211509    31903336240421964190000N5CD0300000218170000000000000                                                                          DORMICUM Sln Iny 5 mg/5 mlAMP     1
