CC0000003893524H202100015112647700015112647727/10/20210620    3150055523742196425000001956000001620610000000000000                                                                      CONECTOR MICRO CLAVE LAT-MC100SOB     1
CC0000003893524H202100015112647700015112647727/10/20210620    31500555237421964250000Q1AA7200000610630000000000000                                                            CATETER PERIFE INTROCAN # 20G 4251644-04SIN     2
CC0000003893524H202100015112647700015112647727/10/20210620    31500555237421964250000E1AA0800000322190000000000000                                                                          DEXTROSA 5% Sln Iny 250 mlBIN     2
