CC0001082870361U202100050131399800050131399827/10/20212321    3190280023942196432000012475500000232250000000000000                                                                 SUTURA ETHILON 5-0 PS-2 45CM P1666TSIN     1
CC0001082870361U202100050131399800050131399827/10/20212321    3190280023942196432000011048600000223020000000000000                                                                 JERINGA VACUNACION 3ML C/AGU 302542SIN     1
CC0001082870361U202100050131399800050131399827/10/20212321    3190280023942196432000024674000000220660000000000000                             JERINGA A 3 PARTES CON AGUJA  SOB X 1 RYMCO  10ML BN EXENTO-DC.417/2020SIN     2
CC0001082870361U202100050131399800050131399827/10/20212321    3190280023942196432000011047900000223010000000000000                                                                            JERINGA X 1ML REF 302579SIN     1
CC0001082870361U202100050131399800050131399827/10/20212321    3190280023942196432000043485100001618510000000000000                GUANTE QUIRURGICO DE LATEX REF 2D72N65X CAJ X 50 PROTEXIS  6.5 BN EXENTO-DC.417/2020SOB     2
CC0001082870361U202100050131399800050131399827/10/20212321    3190280023942196432000053074400000607910000000000000                                                               GASA ESTERIL 10*10 SOBRE X 3 UNIDADESSOB     4
CC0001082870361U202100050131399800050131399827/10/20212321    31902800239421964320000E1AB0200000199290000000000000                                                            SOLUCION SALINA 0.9% SLN INY BO X 100 MLBIN     1
