CC0001140870103U202100050131387100050131387127/10/20210552    3190315823942196432000012473200000232210000000000000                                                                 SUTURA ETHILON 3-0 SC-24 45CM  163TSIN     1
CC0001140870103U202100050131387100050131387127/10/20210552    3190315823942196432000011048600000223020000000000000                                                                 JERINGA VACUNACION 3ML C/AGU 302542SIN     2
CC0001140870103U202100050131387100050131387127/10/20210552    3190315823942196432000024674000000220660000000000000                             JERINGA A 3 PARTES CON AGUJA  SOB X 1 RYMCO  10ML BN EXENTO-DC.417/2020SIN     2
CC0001140870103U202100050131387100050131387127/10/20210552    3190315823942196432000011047900000223010000000000000                                                                            JERINGA X 1ML REF 302579SIN     2
CC0001140870103U202100050131387100050131387127/10/20210552    3190315823942196432000043879200001138180000000000000                                                                                   HOJA BISTURI # 11SOB     1
CC0001140870103U202100050131387100050131387127/10/20210552    3190315823942196432000043485100001618510000000000000                GUANTE QUIRURGICO DE LATEX REF 2D72N65X CAJ X 50 PROTEXIS  6.5 BN EXENTO-DC.417/2020SOB     2
CC0001140870103U202100050131387100050131387127/10/20210552    3190315823942196432000013077800000471960000000000000                                                             GASA NO TEJIDA EST 7.5 X 7.5 SOB X 3 UNSOB    10
CC0001140870103U202100050131387100050131387127/10/20210552    31903158239421964320000E1AB0300003888390000000000000                                                            SOLUCION SALINA 0.9% SLN INY BO X 500 MLBOL     1
CC0001140870103U202100050131387100050131387127/10/20210552    31903158239421964320000E1AB0200000199290000000000000                                                            SOLUCION SALINA 0.9% SLN INY BO X 100 MLBIN     1
