RC0001044662561H202100015042508000015042508027/10/20211602    3190205623742196425000024675000001585130000000000000                                                                    JERINGA DESECHABLE 50 ml S/AGUJASOB     1
TI0001042265795H202100015042508000015042508027/10/20211602    3190205623742196425000024674500000322810000000000000                                                                   JERINGA DESECHABLE 20 ml 21*1 1/2SIN     2
CC0001007795121H202100015042508000015042508027/10/20211602    3190205623742196425000011085400001083360000000000000                                                                       GUANTE QUIRURGICO TALLA 8 1/2SOB     1
RC0001044662561H202100015042508000015042508027/10/20211602    3190205623742196425000011085400001083360000000000000                                                                       GUANTE QUIRURGICO TALLA 8 1/2SOB     1
TI0001042265795H202100015042508000015042508027/10/20211602    3190205623742196425000011085400001083360000000000000                                                                       GUANTE QUIRURGICO TALLA 8 1/2SOB     2
CC0001007795121H202100015042508000015042508027/10/20211602    3190205623742196425000013077800000471960000000000000                                                             GASA NO TEJIDA EST 7.5 X 7.5 SOB X 3 UNSOB     4
RC0001044662561H202100015042508000015042508027/10/20211602    3190205623742196425000013077800000471960000000000000                                                             GASA NO TEJIDA EST 7.5 X 7.5 SOB X 3 UNSOB     4
TI0001042265795H202100015042508000015042508027/10/20211602    3190205623742196425000013077800000471960000000000000                                                             GASA NO TEJIDA EST 7.5 X 7.5 SOB X 3 UNSOB     4
CC0001007795121H202100015042508000015042508027/10/20211602    3190205623742196425000011082700001620070000000000000                                                               EQUIPO SET PRIMARIO C/CLAVE REF 14001BOL     1
RC0001044662561H202100015042508000015042508027/10/20211602    3190205623742196425000011082700001620070000000000000                                                               EQUIPO SET PRIMARIO C/CLAVE REF 14001BOL     1
TI0001042265795H202100015042508000015042508027/10/20211602    3190205623742196425000011082700001620070000000000000                                                               EQUIPO SET PRIMARIO C/CLAVE REF 14001BOL     2
CC0001007795121H202100015042508000015042508027/10/20211602    3190205623742196425000000100600000223090000000000000                                                                      AGUJA DESECHABLE 18G X 1 1/2 PSIN     1
RC0001044662561H202100015042508000015042508027/10/20211602    3190205623742196425000000100600000223090000000000000                                                                      AGUJA DESECHABLE 18G X 1 1/2 PSIN     1
TI0001042265795H202100015042508000015042508027/10/20211602    3190205623742196425000000100600000223090000000000000                                                                      AGUJA DESECHABLE 18G X 1 1/2 PSIN     2
CC0001007795121H202100015042508000015042508027/10/20211602    31902056237421964250000E1AB0500003888400000000000000                                                              SOLUCION SALINA 0.9% SLN INY X 1000 MLBOL     1
TI0001042265795H202100015042508000015042508027/10/20211602    31902056237421964250000E1AB0300003888390000000000000                                                            SOLUCION SALINA 0.9% SLN INY BO X 500 MLBOL     1
TI0001042265795H202100015042508000015042508027/10/20211602    31902056237421964250000E1AB0700003888350000000000000                                                            SOLUCION SALINA 0.9% SLN INY BO X 250 MLBOL     1
