CC0000057440089H202100000555038300000555038327/10/20211730     3300009237421964250000A04A1400001467560000000000000                                                                      ONDANSETRON SLN INY 8 MG/ 4 MLVAL     2
CC0000057440089H202100000555038300000555038327/10/20211719    31902978237421964250000E1AB0500003888400000000000000                                                              SOLUCION SALINA 0.9% SLN INY X 1000 MLBOL     1
CC0000057440089H202100000555038300000555038327/10/20211730     3300009237421964250000J01FF200003888100000000000000                                                                             EUROCLIN SLN INY 600 MGAMP     4
CC0000057440089H202100000555038300000555038327/10/20211730     3300009237421964250000M01A0400001341250000000000000                                                                              DYNASTAT AMP 40 MG /R/VAL     2
CC0000057440089H202100000555038300000555038327/10/20211730     3300009237421964250000N02B1100001169680000000000000                              PARACETAMOL 1000MG/100ML(10MG/ML) SOL INY  VIAL X 100ML FRESENIUS KABIVAL     3
CC0000057440089H202100000555038300000555038327/10/20211730     3300009237421964250000N5BB0800001334610000000000000                                                                                 HIDERAX S TAB 50 MGTAB     1
