TI0001043967964U202100050131392100050131392127/10/20211435    3190100323942196432000024674000000220660000000000000                             JERINGA A 3 PARTES CON AGUJA  SOB X 1 RYMCO  10ML BN EXENTO-DC.417/2020SIN     1
CE0000000373941U202100050131392100050131392127/10/20211435    3190100323942196432000024674000000220660000000000000                             JERINGA A 3 PARTES CON AGUJA  SOB X 1 RYMCO  10ML BN EXENTO-DC.417/2020SIN     1
TI0001043967964U202100050131392100050131392127/10/20211435    3190100323942196432000011082700001620070000000000000                                                               EQUIPO SET PRIMARIO C/CLAVE REF 14001BOL     1
TI0001043967964U202100050131392100050131392127/10/20211435    3190100323942196432000001956000001620610000000000000                                                                      CONECTOR MICRO CLAVE LAT-MC100SOB     1
TI0001043967964U202100050131392100050131392127/10/20211435    31901003239421964320000Q1AA7100000610620000000000000                                                            CATETER PERIFE INTROCAN # 18G 4251687-04SIN     1
TI0001043967964U202100050131392100050131392127/10/20211435    3190100323942196432000030936900001431840000000000000                                                                                              BURETABOL     1
TI0001043967964U202100050131392100050131392127/10/20211435    3190100323942196432000016830000000970620000000000000                                                             SIST FIJACION CAT PERIFERICO 6.5X7 1683SOB     1
TI0001043967964U202100050131392100050131392127/10/20211435    31901003239421964320000E1AD0300000199490000000000000                                         LACTATO RINGER USP (HARTMANN)  SOL INY  BOL X 1000ML BAXTERBIN     1
