CC0001067030365U202100050131395100050131395127/10/20211806    3190232723942196432000024674000000220660000000000000                             JERINGA A 3 PARTES CON AGUJA  SOB X 1 RYMCO  10ML BN EXENTO-DC.417/2020SIN     3
CC0001067030365U202100050131395100050131395127/10/20211806    3190232723942196432000011082700001620070000000000000                                                               EQUIPO SET PRIMARIO C/CLAVE REF 14001BOL     1
CC0001067030365U202100050131395100050131395127/10/20211806    31902327239421964320000Q1AA7100000610620000000000000                                                            CATETER PERIFE INTROCAN # 18G 4251687-04SIN     1
CC0001067030365U202100050131395100050131395127/10/20211806    3190232723942196432000030936900001431840000000000000                                                                                              BURETABOL     1
CC0001067030365U202100050131395100050131395127/10/20211806    31902327239421964320000Q1AA3300001585140000000000000                                                                         APOSITO TEGADERM 10*12 1626SOB     1
CC0001067030365U202100050131395100050131395127/10/20211806    31902327239421964320000E1AD0300000199490000000000000                                         LACTATO RINGER USP (HARTMANN)  SOL INY  BOL X 1000ML BAXTERBIN     1
