TI0001041693305U202100050131389500050131389527/10/20211134    3150018823942196432000049428300000860750000000000000                                                                       VENDA ELASTICA 4*5 NO ESTERILBOL     1
TI0001041693305U202100050131389500050131389527/10/20211134    3150018823942196432000049419700001679920000000000000                                                                        VENDA ALGODON 5*5 NO ESTERILSOB     1
CC0000072206364U202100050131389500050131389527/10/20211134    3150018823942196432000024674000000220660000000000000                             JERINGA A 3 PARTES CON AGUJA  SOB X 1 RYMCO  10ML BN EXENTO-DC.417/2020SIN     1
