CC0000008710257H202100000555016200000555016227/10/20210744     3300010237421964250000A4AD0200000202990000000000000                                                                     PLITICAN HCL Sln Iny 50 mg/2 mlAMP     2
CC0000008710257H202100000555016200000555016227/10/20210746     3300010237421964250000C3DA0500001278910000000000000                                                                               GLUCOPHAGE TAB 850 MGTAB     3
CC0000008710257H202100000555016200000555016227/10/20210630    31903053237421964250000E1AB0300003888390000000000000                                                            SOLUCION SALINA 0.9% SLN INY BO X 500 MLBOL     2
CC0000008710257H202100000555016200000555016227/10/20210745     3300010237421964250000B4AD0700001277600000000000000                                                                                   LIPITOR TAB 20 MGTAB     1
CC0000008710257H202100000555016200000555016227/10/20210744     3300010237421964250000J1CB0600000468340000000000000                                                           UNASYN IM-IV (1+0.5)GR POLV INY INST VIALVAL     2
CC0000008710257H202100000555016200000555016227/10/20210745     3300010237421964250000M01A0400001341250000000000000                                                                              DYNASTAT AMP 40 MG /R/VAL     2
CC0000008710257H202100000555016200000555016227/10/20210745     3300010237421964250000N02B1100001169680000000000000                              PARACETAMOL 1000MG/100ML(10MG/ML) SOL INY  VIAL X 100ML FRESENIUS KABIVAL     2
