CC0000032874334U202100000555030300000555030327/10/20211433    31901003239421964320000E1AB0700003888350000000000000                                                            SOLUCION SALINA 0.9% SLN INY BO X 250 MLBOL     1
CC0000032874334U202100000555030300000555030327/10/20211401     3300004239421964320000M1AE2500000191550000000000000                                                            PROFENID POLVO LIOF SLN INY 100MG/2ML/R/AMP     1
CC0000032874334U202100000555030300000555030327/10/20211652     3300004239421964320000M1AB0900001019600000000000000                                                                              VOLTAREN Sln Iny 75 mgAMP     1
CC0000032874334U202100000555030300000555030327/10/20211401     3300004239421964320000N02B1100001169680000000000000                              PARACETAMOL 1000MG/100ML(10MG/ML) SOL INY  VIAL X 100ML FRESENIUS KABIVAL     1
