CC0000072428894H202100000555021200000555021227/10/20210916     3300010237421964250000B1AB0200003939510000000000000                 ENOXAPARINA SODICA 40MG/0.4ML(100MG/ML) SOL INY INST CAJ X 2JERPREL X 0.4ML TECHDOWJRP     1
CC0000072428894H202100000555021200000555021227/10/20211458    31903110237421964250000E1AB0200000199290000000000000                                                            SOLUCION SALINA 0.9% SLN INY BO X 100 MLBIN     3
CC0000072428894H202100000555021200000555021227/10/20210917     3300010237421964250000V6DF5300000302770000000000000                                                                        ENSURE PLUS HN LCP X 1000 MLFCO     1
CC0000072428894H202100000555021200000555021227/10/20210916     3300010237421964250000A02BC700001684270000000000000                                                            OMEPRAZOL 40MG POLVO LIOFILIZADO AMPOLLAVAL     1
CC0000072428894H202100000555021200000555021227/10/20211236    31901360237421964250000V07A1300000502600000000000000                                                                                AGUA ESTERIL x 10 mlAMP    10
