CC0000022401876U202100050131390800050131390827/10/20211338    3150051423942196432000036441300000236540000000000000                                                                    JERINGA 1 ML GASES ARTERIAL 9023SIN     1
CC0000008486413U202100050131390800050131390827/10/20211338    3150051423942196432000036441300000236540000000000000                                                                    JERINGA 1 ML GASES ARTERIAL 9023SIN     2
CC0000022401876U202100050131390800050131390827/10/20211338    3150051423942196432000043995200000229010000000000000                                                               HUMIDIFICADOR PARA OXIGENO REF. H001BBOL     1
CC0000022401876U202100050131390800050131390827/10/20211338    3150051423942196432000038568100000258050000000000000                                                                         CANULA OXIGENO NASAL ADULTOSIN     1
