RC0001043198450H202100015132502600015132502627/10/20211607    3190311723742196425000018351100000232850000000000000                                                                                 SEDA 2-0 SC-26 185TSIN     1
RC0001048091909H202100015132502600015132502627/10/20211607    3190311723742196425000011060400001010330000000000000                                                            SENSOR PULSOX SPO2 LNCS NEONATAL MP00792PZA     1
RC0001043198450H202100015132502600015132502627/10/20211607    3190311723742196425000043879200001138180000000000000                                                                                   HOJA BISTURI # 11SOB     1
RC0001043198450H202100015132502600015132502627/10/20211607    3190311723742196425000011089300001083990000000000000                                                              GUANTE ESTERIL LATEX S/POLVO TALLA 7.5SOB     2
RC0001043198450H202100015132502600015132502627/10/20211607    3190311723742196425000013077800000471960000000000000                                                             GASA NO TEJIDA EST 7.5 X 7.5 SOB X 3 UNSOB     5
RC0001043198450H202100015132502600015132502627/10/20211607    3190311723742196425000000602600001259280000000000000                                                             APOSITO TEGADERM IV PD 1610 5CM X 5.7CMSOB     2
RC0001043198450H202100015132502600015132502627/10/20211607    31903117237421964250000E1AB0200000199290000000000000                                                            SOLUCION SALINA 0.9% SLN INY BO X 100 MLBIN     1
