CC0001047489451H202100015012566700015012566727/10/20211657    3150053323742196425000022426800001140510000000000000                                                                    EQUIPO MACROGOTEO BAXTER MRC0001SOB     1
CC0001047489451H202100015012566700015012566727/10/20211657    3150053323742196425000030936900001431840000000000000                                                                                              BURETABOL     1
CC0001047489451H202100015012566700015012566727/10/20211657    31500533237421964250000E1AD0300000199490000000000000                                         LACTATO RINGER USP (HARTMANN)  SOL INY  BOL X 1000ML BAXTERBIN     1
RC0001048089059H202100015012566700015012566727/10/20211657    31500533237421964250000E1AC0100000199400000000000000                                                                          SUERO MIXTO Sln Iny 500 mlBIN     1
