CC0000007469257H202100000555017800000555017827/10/20210754     3300009237421964250000B1AB1200003939350000000000000                 ENOXAPARINA SODICA 80MG/0.8ML(100MG/ML) SOL INY INST CAJ X 2JERPREL X 0.8ML TECHDOWJRP     1
CC0000007469257H202100000555017800000555017827/10/20210753     3300009237421964250000B1AB1200003939350000000000000                 ENOXAPARINA SODICA 80MG/0.8ML(100MG/ML) SOL INY INST CAJ X 2JERPREL X 0.8ML TECHDOWJRP     1
CC0000007469257H202100000555017800000555017827/10/20211858    31500363237421964250000E1AB0300003888390000000000000                                                            SOLUCION SALINA 0.9% SLN INY BO X 500 MLBOL     1
CC0000007469257H202100000555017800000555017827/10/20210753     3300009237421964250000A02B0800001276960000000000000                                                                                 OMEPRAZOL CAP 20 MGCAP     1
CC0000007469257H202100000555017800000555017827/10/20210753     3300009237421964250000C01BD200001332790000000000000                                                                               AMIODARONA TAB 200 MGTAB     1
CC0000007469257H202100000555017800000555017827/10/20210754     3300009237421964250000C03C0100001672000000000000000                                                                       FUROSEMIDA SLN INY 20 MG/2 MLAMP     1
CC0000007469257H202100000555017800000555017827/10/20211409    31903301237421964250000V07A1300000502600000000000000                                                                                AGUA ESTERIL x 10 mlAMP     4
