CC0000008486413U202100000555011400000555011427/10/20212146     330000423942196432000011808300003906600000000000000                                                                MIDAZOLAM SOL INY 50mg/10mL/ VITALISAMP     1
CC0000008486413U202100000555011400000555011427/10/20212145     330000423942196432000011808300003906600000000000000                                                                MIDAZOLAM SOL INY 50mg/10mL/ VITALISAMP     1
CC0000008486413U202100000555011400000555011427/10/20211128     330000423942196432000011808300003906600000000000000                                                                MIDAZOLAM SOL INY 50mg/10mL/ VITALISAMP     2
CC0000008486413U202100000555011400000555011427/10/20210320     3300004239421964320000A03F0300001626860000000000000                                                                   METOCLOPRAMIDA SLN INY 10 MG/2 MLAMP     1
CC0000008486413U202100000555011400000555011427/10/20212245     3300004239421964320000A3BA0100001109400000000000000                                                                          ATROPINA SLN INY 1 MG / MLAMP    10
CC0000008486413U202100000555011400000555011427/10/20211808     3300004239421964320000A3BA0100001109400000000000000                                                                          ATROPINA SLN INY 1 MG / MLAMP    10
CC0000008486413U202100000555011400000555011427/10/20210559     3300004239421964320000A3BA0100001109400000000000000                                                                          ATROPINA SLN INY 1 MG / MLAMP    27
CC0000008486413U202100000555011400000555011427/10/20210558     3300004239421964320000A3BA0100001109400000000000000                                                                          ATROPINA SLN INY 1 MG / MLAMP    11
CC0000008486413U202100000555011400000555011427/10/20210555    31902337239421964320000E1AB1100003888280000000000000                                                                        SOLUCION SALINA 0.9% X 50 mlBOL     1
CC0000008486413U202100000555011400000555011427/10/20212258    31901806239421964320000E1AB0200000199290000000000000                                                            SOLUCION SALINA 0.9% SLN INY BO X 100 MLBIN     2
CC0000008486413U202100000555011400000555011427/10/20211918    31500294239421964320000E1AB0200000199290000000000000                                                            SOLUCION SALINA 0.9% SLN INY BO X 100 MLBIN     3
CC0000008486413U202100000555011400000555011427/10/20211550    31903175239421964320000E1AB0200000199290000000000000                                                            SOLUCION SALINA 0.9% SLN INY BO X 100 MLBIN     1
CC0000008486413U202100000555011400000555011427/10/20210555    31902337239421964320000E1AB0200000199290000000000000                                                            SOLUCION SALINA 0.9% SLN INY BO X 100 MLBIN     2
CC0000008486413U202100000555011400000555011427/10/20212258    31901806239421964320000E1AB0500003888400000000000000                                                              SOLUCION SALINA 0.9% SLN INY X 1000 MLBOL     1
CC0000008486413U202100000555011400000555011427/10/20211918    31500294239421964320000E1AD0300000199490000000000000                                         LACTATO RINGER USP (HARTMANN)  SOL INY  BOL X 1000ML BAXTERBIN     3
CC0000008486413U202100000555011400000555011427/10/20211550    31903175239421964320000E1AD0300000199490000000000000                                         LACTATO RINGER USP (HARTMANN)  SOL INY  BOL X 1000ML BAXTERBIN     1
CC0000008486413U202100000555011400000555011427/10/20210555    31902337239421964320000E1AD0300000199490000000000000                                         LACTATO RINGER USP (HARTMANN)  SOL INY  BOL X 1000ML BAXTERBIN     2
CC0000008486413U202100000555011400000555011427/10/20211808     3300004239421964320000M03A1000000553280000000000000                                                                     VECURONIO BROMURO SLN INY 10 MGVAL     1
CC0000008486413U202100000555011400000555011427/10/20212245     3300004239421964320000N1AH0200003906560000000000000                                                                     FENTANIL Iny 0.05 mg/ml x 10 mlAMP     2
CC0000008486413U202100000555011400000555011427/10/20211450     3300004239421964320000N1AH0200003906560000000000000                                                                     FENTANIL Iny 0.05 mg/ml x 10 mlAMP     2
CC0000008486413U202100000555011400000555011427/10/20210558     3300004239421964320000N1AH0200003906560000000000000                                                                     FENTANIL Iny 0.05 mg/ml x 10 mlAMP     3
CC0000008486413U202100000555011400000555011427/10/20211808     3300004239421964320000N5CD0300000218170000000000000                                                                          DORMICUM Sln Iny 5 mg/5 mlAMP     1
CC0000008486413U202100000555011400000555011427/10/20211128     3300004239421964320000N5CD0300000218170000000000000                                                                          DORMICUM Sln Iny 5 mg/5 mlAMP     1
CC0000008486413U202100000555011400000555011427/10/20210558     3300004239421964320000N5CD0300000218170000000000000                                                                          DORMICUM Sln Iny 5 mg/5 mlAMP     2
CC0000008486413U202100000555011400000555011427/10/20210320     3300004239421964320000A03BB100003889180000000000000                                      HIOSCINA BUTIL BROMURO 20MG/ML SOL INY CAJ X 100AMP X 1ML RYANAMP     1
CC0000008486413U202100000555011400000555011427/10/20211313     3300004239421964320000A10AE300000199150000000000000                                                                 NOVOLIN R SUSP INY 100UI/ML X 10 MLVAL     1
CC0000008486413U202100000555011400000555011427/10/20210559     3300004239421964320000M03A0900001467590000000000000                                                                        ROCURONIO SLN INY 50 MG/5 MLVAL     1
CC0000008486413U202100000555011400000555011427/10/20210320     3300004239421964320000N2BB0100000787510000000000000                                                                    DIPIRONA SODICA Sln Iny 1 g/2 mlAMP     1
CC0000008486413U202100000555011400000555011427/10/20210320     3300004239421964320000A02BC700001684270000000000000                                                            OMEPRAZOL 40MG POLVO LIOFILIZADO AMPOLLAVAL     1
