CC0001096198001U202100050131399100050131399127/10/20212237    3150045723942196432000024673600000222980000000000000                                                                     JERINGA DESECHABLE 5 ml 27*11/2SIN     1
CC0001096198001U202100050131399100050131399127/10/20212237    3150045723942196432000022426800001140510000000000000                                                                    EQUIPO MACROGOTEO BAXTER MRC0001SOB     1
CC0001096198001U202100050131399100050131399127/10/20212237    31500457239421964320000E1AB0200000199290000000000000                                                            SOLUCION SALINA 0.9% SLN INY BO X 100 MLBIN     1
