CC0000003893524H202100015112647600015112647627/10/20210247    31500555237421964250000V07A1300000502600000000000000                                                                                AGUA ESTERIL x 10 mlAMP     5
CC0000003893524H202100015112647600015112647627/10/20210247    3150055523742196425000035356500003919000000000000000                                                                                        LLAVE 3 VIASSOB     1
CC0000003893524H202100015112647600015112647627/10/20210247    3150055523742196425000045136100001419300000000000000                                                                            LANCETA DEXTROMETER X UNPZA     3
CC0000003893524H202100015112647600015112647627/10/20210247    3150055523742196425000024674000000220660000000000000                             JERINGA A 3 PARTES CON AGUJA  SOB X 1 RYMCO  10ML BN EXENTO-DC.417/2020SIN    10
CC0000003893524H202100015112647600015112647627/10/20210247    3150055523742196425000022426800001140510000000000000                                                                    EQUIPO MACROGOTEO BAXTER MRC0001SOB     1
CC0000003893524H202100015112647600015112647627/10/20210247    3150055523742196425000011082700001620070000000000000                                                               EQUIPO SET PRIMARIO C/CLAVE REF 14001BOL     1
CC0000003893524H202100015112647600015112647627/10/20210247    31500555237421964250000E1AA0100003888590000000000000                                                                        DEXTROSA 5% Sln Iny X 500 mlBOL     2
CC0000003893524H202100015112647600015112647627/10/20210247    3150055523742196425000011137100001419310000000000000                                                               TIRA GLUCOMETRIA FREESTYLE H OPTIUM .PZA     3
