CC0000077185534H202100000555016100000555016127/10/20210912     3300010237421964250000B1AB0100001227270000000000000                                             HEPAMAX 25000UI/5ML(5000UI/ML) SOL INY  CAJ X 25AMPX5MLAMP     4
CC0000077185534H202100000555016100000555016127/10/20210629     3300010237421964250000B1AB0100001227270000000000000                                             HEPAMAX 25000UI/5ML(5000UI/ML) SOL INY  CAJ X 25AMPX5MLAMP     3
CC0000077185534H202100000555016100000555016127/10/20210912     3300010237421964250000C09CA400001277130000000000000                                                                                  LOSARTAN TAB 50 MGTAB     1
CC0000077185534H202100000555016100000555016127/10/20210912     3300010237421964250000A02B0800001276960000000000000                                                                                 OMEPRAZOL CAP 20 MGCAP     1
CC0000077185534H202100000555016100000555016127/10/20210912     3300010237421964250000C7AB0100001276990000000000000                                                                            BETOPROLOL TAB 50 MG /R/TAB     1
CC0000077185534H202100000555016100000555016127/10/20210912     3300010237421964250000C08CA300001313930000000000000                                                                                AMLODIPINO TAB 10 MGTAB     1
