TI0001043967964U202100000555030700000555030727/10/20211457    31901003239421964320000E1AD0300000199490000000000000                                         LACTATO RINGER USP (HARTMANN)  SOL INY  BOL X 1000ML BAXTERBIN     1
TI0001043967964U202100000555030700000555030727/10/20211413     3300004239421964320000M1AB0900001019600000000000000                                                                              VOLTAREN Sln Iny 75 mgAMP     1
TI0001043967964U202100000555030700000555030727/10/20211438     3300004239421964320000N2AX0500001204110000000000000                                                                          TRAMAL SLN INY 100 MG / MLAMP     1
