CC0000032882199A202100000027633900000027633927/10/20211447    3190333624042196419000011082700001620070000000000000                                                               EQUIPO SET PRIMARIO C/CLAVE REF 14001BOL     1
CC0000032882199A202100000027633900000027633927/10/20211447    3190333624042196419000042743200003929860000000000000                   GASA ADHESIVA STRETCH REF 02038-00 ROL X 10MT FIXOMULL 15CM BN EXENTO-DC.417/2020CMT    40
CC0000032882199A202100000027633900000027633927/10/20211447    31903336240421964190000C03C0100001672000000000000000                                                                       FUROSEMIDA SLN INY 20 MG/2 MLAMP     1
CC0000032882199A202100000027633900000027633927/10/20211447    31903336240421964190000N01A0400003939010000000000000                                               MAYOPROFOL 200MG/20ML(1%) EMUL INY CAJ X 1VIAL X 20MLVAL     1
CC0000032882199A202100000027633900000027633927/10/20211447    3190333624042196419000015638600000221740000000000000                                                                          MAQUINA DESECHABLE AFEITARPZA     1
CC0000032882199A202100000027633900000027633927/10/20211447    31903336240421964190000B02AA100001407470000000000000                                                                    CLINTRANEX SLN INY 500 MG / 5 MLAMP     2
CC0000032882199A202100000027633900000027633927/10/20211447    3190333624042196419000038569900001124970000000000000                                                                              SONDA FOLEY #14 2 VIASSOB     1
CC0000032882199A202100000027633900000027633927/10/20211447    3190333624042196419000031188000000236790000000000000                                                                                     CISTOFLO ADULTOSIN     1
CC0000032882199A202100000027633900000027633927/10/20211447    3190333624042196419000033485000001049200000000000000                                                                           GUANTE QUIRURGICO TALLA 6SOB     2
CC0000032882199A202100000027633900000027633927/10/20211447    3190333624042196419000000504400000232770000000000000                                                                 SUTURA SEDA NEGRA 0 10 X 75CM SA86TSIN     1
CC0000032882199A202100000027633900000027633927/10/20211447    3190333624042196419000086220000000232640000000000000                                                              PROLENE 3/0 KS RECTA 8622H CIERRE PIELSIN     1
CC0000032882199A202100000027633900000027633927/10/20211447    3190333624042196419000000016100000314040000000000000                                                                ESPONJA HEMOSTATICA  GELFOAM ESPONJABOL     1
CC0000032882199A202100000027633900000027633927/10/20211447    3190333624042196419000045138000001413890000000000000                                                                       LAPIZ ELECTROBISTURI  SOB X 1SOB     1
CC0000032882199A202100000027633900000027633927/10/20211447    3190333624042196419000030161400001459220000000000000                                                                       MANGUERA SUCCION 6 MM*3.1 MTSSOB     1
CC0000032882199A202100000027633900000027633927/10/20211447    3190333624042196419000011016600000231820000000000000                                                               SUTURA CATGUT CROMADO 1 CT1 90CM 925TSIN     1
CC0000032882199A202100000027633900000027633927/10/20211447    3190333624042196419000011017400000231840000000000000                                                                         CATGUT CROMADO 2-0 CT1 923TSIN     1
CC0000032882199A202100000027633900000027633927/10/20211447    3190333624042196419000019487800001585180000000000000                                                                    VICRYL 1 PLUS 70 CM CT-1 VCP341HSOB     4
CC0000032882199A202100000027633900000027633927/10/20211447    3190333624042196419000043879500001138210000000000000                                                                                    HOJA BISTURI #20SOB     1
CC0000032882199A202100000027633900000027633927/10/20211447    3190333624042196419000043879400001138170000000000000                                                                  HOJA BISTURI # 10 CSSB 10 01002000SOB     1
CC0000032882199A202100000027633900000027633927/10/20211447    31903336240421964190000E1AB0300003888390000000000000                                                            SOLUCION SALINA 0.9% SLN INY BO X 500 MLBOL     2
CC0000032882199A202100000027633900000027633927/10/20211447    3190333624042196419000022425200000548240000000000000                       EXTENSION DE ANESTESIA REF 1139 SOB X 1 SHERLEG  ADULTO BN EXENTO-DC.417/2020SIN     1
CC0000032882199A202100000027633900000027633927/10/20211447    3190333624042196419000035356500003919000000000000000                                                                                        LLAVE 3 VIASSOB     1
CC0000032882199A202100000027633900000027633927/10/20211447    31903336240421964190000Q1AA7100000610620000000000000                                                            CATETER PERIFE INTROCAN # 18G 4251687-04SIN     2
CC0000032882199A202100000027633900000027633927/10/20211447    3190333624042196419000022426800001140510000000000000                                                                    EQUIPO MACROGOTEO BAXTER MRC0001SOB     1
CC0000032882199A202100000027633900000027633927/10/20211447    31903336240421964190000J01DA300001239950000000000000                                                            CEFAZOLINA SODICA POLVO LIOF SLN INY 1 GVAL     2
CC0000032882199A202100000027633900000027633927/10/20211447    3190333624042196419000020750600000296780000000000000                                                                PLACA ELECTRO RETORNO PACIENTE E7506SIN     1
CC0000032882199A202100000027633900000027633927/10/20211447    3190333624042196419000011073300001096420000000000000                                                                BOLSA DE SUCCION DE FLUIDOS x 2500mLBOL     1
CC0000032882199A202100000027633900000027633927/10/20211447    3190333624042196419000053074400000607910000000000000                                                               GASA ESTERIL 10*10 SOBRE X 3 UNIDADESSOB     6
CC0000032882199A202100000027633900000027633927/10/20211447    3190333624042196419000011047900000223010000000000000                                                                            JERINGA X 1ML REF 302579SIN     1
CC0000032882199A202100000027633900000027633927/10/20211447    3190333624042196419000024673000001411210000000000000                                                                  JERINGA DESECHABLE 3 ML 21 X 1 1/2SOB     1
CC0000032882199A202100000027633900000027633927/10/20211447    3190333624042196419000024674000000220660000000000000                             JERINGA A 3 PARTES CON AGUJA  SOB X 1 RYMCO  10ML BN EXENTO-DC.417/2020SIN     2
CC0000032882199A202100000027633900000027633927/10/20211447    3190333624042196419000011085200001585390000000000000                                                                       GUANTE QUIRURGICO TALLA 7 1/2SOB     1
CC0000032882199A202100000027633900000027633927/10/20211447    3190333624042196419000011085100001082120000000000000                                                                           GUANTE QUIRURGICO TALLA 7SOB     4
CC0000032882199A202100000027633900000027633927/10/20211447    3190333624042196419000043485100001618510000000000000                GUANTE QUIRURGICO DE LATEX REF 2D72N65X CAJ X 50 PROTEXIS  6.5 BN EXENTO-DC.417/2020SOB     5
CC0000032882199A202100000027633900000027633927/10/20211447    3190333624042196419000020060000000225230000000000000                                                               AGUJA SPINOCAN 27G X 3 1/2 PU 4503902SIN     1
CC0000032882199A202100000027633900000027633927/10/20211447    3190333624042196419000038568100000258050000000000000                                                                         CANULA OXIGENO NASAL ADULTOSIN     1
CC0000032882199A202100000027633900000027633927/10/20211447    31903336240421964190000E1AD0200003888320000000000000                                                                              HARTMAN SLN INY 500 MLBOL     3
CC0000032882199A202100000027633900000027633927/10/20211447    31903336240421964190000E1AB0500003888400000000000000                                                              SOLUCION SALINA 0.9% SLN INY X 1000 MLBOL     1
CC0000032882199A202100000027633900000027633927/10/20211447    31903336240421964190000N1BA0500000647360000000000000                                                                  BUPIROP 0.5% PESADO SLN INY X 4 MLAPC     1
CC0000032882199A202100000027633900000027633927/10/20211447    31903336240421964190000H02A0100001664960000000000000                                                                        DEXAMETASONA SLN INY 4 MG/MLAMP     2
CC0000032882199A202100000027633900000027633927/10/20211447    31903336240421964190000M01A2000001664970000000000000                                                               DICLOFENACO SODICO SLN INY 75 MG/3 MLAMP     1
CC0000032882199A202100000027633900000027633927/10/20211447    31903336240421964190000N02BB100000777810000000000000                                                               DIPIRONA MAGNESICA SLN INY 2.5 G/5 MLAMP     1
CC0000032882199A202100000027633900000027633927/10/20211447    31903336240421964190000N1AH0200003906560000000000000                                                                     FENTANIL Iny 0.05 mg/ml x 10 mlAMP     1
