CC0000022515117H202100000555009800000555009827/10/20212049     3300009237421964250000A03F0300001626860000000000000                                                                   METOCLOPRAMIDA SLN INY 10 MG/2 MLAMP     1
CC0000022515117H202100000555009800000555009827/10/20210751     3300009237421964250000B1AB1200003939350000000000000                 ENOXAPARINA SODICA 80MG/0.8ML(100MG/ML) SOL INY INST CAJ X 2JERPREL X 0.8ML TECHDOWJRP     1
CC0000022515117H202100000555009800000555009827/10/20210312    31902491237421964250000E1AB0300003888390000000000000                                                            SOLUCION SALINA 0.9% SLN INY BO X 500 MLBOL     1
CC0000022515117H202100000555009800000555009827/10/20211508     3300009237421964250000N05A1400000630830000000000000                                                            HALOPERIDOL Gotas 2 mg/20 Got Fc x 20 mlFCO     1
CC0000022515117H202100000555009800000555009827/10/20210203     3300009237421964250000A02B0800001276960000000000000                                                                                 OMEPRAZOL CAP 20 MGCAP     2
CC0000022515117H202100000555009800000555009827/10/20212049     3300009237421964250000L04AX100001333070000000000000                                                                               AZATIOPRINA TAB 50 MGTAB     1
CC0000022515117H202100000555009800000555009827/10/20212048     3300009237421964250000N02BA100001276940000000000000                                                                  ACIDO ACETIL SALIC?LICO TAB 100 MGTAB     1
CC0000022515117H202100000555009800000555009827/10/20210750     3300009237421964250000P01BA200001357750000000000000                                                               HIDROXICLOROQUINA SULF TAB 200 MG /R/TAB     2
CC0000022515117H202100000555009800000555009827/10/20212051     3300009237421964250000A02BC700001684270000000000000                                                            OMEPRAZOL 40MG POLVO LIOFILIZADO AMPOLLAVAL     1
CC0000022515117H202100000555009800000555009827/10/20212050     3300009237421964250000A02BC700001684270000000000000                                                            OMEPRAZOL 40MG POLVO LIOFILIZADO AMPOLLAVAL     2
CC0000022515117H202100000555009800000555009827/10/20210751     3300009237421964250000A02BC700001684270000000000000                                                            OMEPRAZOL 40MG POLVO LIOFILIZADO AMPOLLAVAL     2
CC0000022515117H202100000555009800000555009827/10/20211411    31903301237421964250000V07A1300000502600000000000000                                                                                AGUA ESTERIL x 10 mlAMP     4
