CC0001143250996H202100914140102700914140102727/10/20210450    3190302323742196425000042753100003929850000000000000                   GASA ADHESIVA STRETCH REF 02037-00 ROL X 10MT FIXOMULL 10CM BN EXENTO-DC.417/2020CMT   120
CC0001143250996H202100914140102700914140102727/10/20210450    3190302323742196425000043485100001618510000000000000                GUANTE QUIRURGICO DE LATEX REF 2D72N65X CAJ X 50 PROTEXIS  6.5 BN EXENTO-DC.417/2020SOB     2
CC0001143250996H202100914140102700914140102727/10/20210814    3190325423742196425000024674000000220660000000000000                             JERINGA A 3 PARTES CON AGUJA  SOB X 1 RYMCO  10ML BN EXENTO-DC.417/2020SIN     6
CC0001143250996H202100914140102700914140102727/10/20210814    31903254237421964250000V07A1300000502600000000000000                                                                                AGUA ESTERIL x 10 mlAMP     4
CC0001143250996H202100914140102700914140102727/10/20211053    3150012023742196425000042753100003929850000000000000                   GASA ADHESIVA STRETCH REF 02037-00 ROL X 10MT FIXOMULL 10CM BN EXENTO-DC.417/2020CMT    60
CC0001143250996H202100914140102700914140102727/10/20211053    3150012023742196425000043485100001618510000000000000                GUANTE QUIRURGICO DE LATEX REF 2D72N65X CAJ X 50 PROTEXIS  6.5 BN EXENTO-DC.417/2020SOB     1
