CC0001044426730U202100000555042400000555042427/10/20211955     3300004239421964320000A03F0300001626860000000000000                                                                   METOCLOPRAMIDA SLN INY 10 MG/2 MLAMP     1
CC0001044426730U202100000555042400000555042427/10/20212022    31900982239421964320000E1AD0200003888320000000000000                                                                              HARTMAN SLN INY 500 MLBOL     1
CC0001044426730U202100000555042400000555042427/10/20212022    31900982239421964320000E1AD0300000199490000000000000                                         LACTATO RINGER USP (HARTMANN)  SOL INY  BOL X 1000ML BAXTERBIN     1
CC0001044426730U202100000555042400000555042427/10/20211955     3300004239421964320000N2BE2200001252930000000000000                                                                             ACETAMINOFEN Tab 500 MGTAB     2
