PA0000585264718H202100915498102700915498102727/10/20211025    3150007523742196425000030936900001431840000000000000                                                                                              BURETABOL     1
PA0000585264718H202100915498102700915498102727/10/20211025    31500075237421964250000E1AD0300000199490000000000000                                         LACTATO RINGER USP (HARTMANN)  SOL INY  BOL X 1000ML BAXTERBIN     4
PA0000585264718H202100915498102700915498102727/10/20211230    31500533237421964250000E1AD0300000199490000000000000                                         LACTATO RINGER USP (HARTMANN)  SOL INY  BOL X 1000ML BAXTERBIN     2
