CC0001140854465U202100000555032200000555032227/10/20211522     3300004239421964320000A4AD0200000202990000000000000                                                                     PLITICAN HCL Sln Iny 50 mg/2 mlAMP     1
CC0001140854465U202100000555032200000555032227/10/20211744    31901003239421964320000E1AB0200000199290000000000000                                                            SOLUCION SALINA 0.9% SLN INY BO X 100 MLBIN     1
CC0001140854465U202100000555032200000555032227/10/20211540    31500394239421964320000E1AB0700003888350000000000000                                                            SOLUCION SALINA 0.9% SLN INY BO X 250 MLBOL     1
CC0001140854465U202100000555032200000555032227/10/20211540    31500394239421964320000E1AD0300000199490000000000000                                         LACTATO RINGER USP (HARTMANN)  SOL INY  BOL X 1000ML BAXTERBIN     1
CC0001140854465U202100000555032200000555032227/10/20211733     3300004239421964320000H02AB500001664950000000000000                                                            DEXAMETASONA SLN INY 8 MG/2 ML AMP /CDS/AMP     1
CC0001140854465U202100000555032200000555032227/10/20211446     3300004239421964320000M1AE2500000191550000000000000                                                            PROFENID POLVO LIOF SLN INY 100MG/2ML/R/AMP     1
CC0001140854465U202100000555032200000555032227/10/20211523     3300004239421964320000N02C0200001358240000000000000                                                                               IMIGRAN FDT Tab 50 mgTAB     1
CC0001140854465U202100000555032200000555032227/10/20211446     3300004239421964320000N02B1100001169680000000000000                              PARACETAMOL 1000MG/100ML(10MG/ML) SOL INY  VIAL X 100ML FRESENIUS KABIVAL     1
