CC0001047034752H202100015042507800015042507827/10/20210900    3190302823742196425000024674000000220660000000000000                             JERINGA A 3 PARTES CON AGUJA  SOB X 1 RYMCO  10ML BN EXENTO-DC.417/2020SIN     5
CC0001129523937H202100015042507800015042507827/10/20210900    3190302823742196425000024674000000220660000000000000                             JERINGA A 3 PARTES CON AGUJA  SOB X 1 RYMCO  10ML BN EXENTO-DC.417/2020SIN     5
CC0001007795121H202100015042507800015042507827/10/20210900    3190302823742196425000024674000000220660000000000000                             JERINGA A 3 PARTES CON AGUJA  SOB X 1 RYMCO  10ML BN EXENTO-DC.417/2020SIN     5
RC0001146543342H202100015042507800015042507827/10/20210900    3190302823742196425000024674000000220660000000000000                             JERINGA A 3 PARTES CON AGUJA  SOB X 1 RYMCO  10ML BN EXENTO-DC.417/2020SIN     5
TI0001047048202H202100015042507800015042507827/10/20210900    3190302823742196425000024674000000220660000000000000                             JERINGA A 3 PARTES CON AGUJA  SOB X 1 RYMCO  10ML BN EXENTO-DC.417/2020SIN     5
CC0001045686959H202100015042507800015042507827/10/20210900    3190302823742196425000024674000000220660000000000000                             JERINGA A 3 PARTES CON AGUJA  SOB X 1 RYMCO  10ML BN EXENTO-DC.417/2020SIN     5
TI0001139430724H202100015042507800015042507827/10/20210900    3190302823742196425000024674000000220660000000000000                             JERINGA A 3 PARTES CON AGUJA  SOB X 1 RYMCO  10ML BN EXENTO-DC.417/2020SIN     5
RC0001044662561H202100015042507800015042507827/10/20210900    3190302823742196425000024674000000220660000000000000                             JERINGA A 3 PARTES CON AGUJA  SOB X 1 RYMCO  10ML BN EXENTO-DC.417/2020SIN     5
TI0001081819374H202100015042507800015042507827/10/20210900    3190302823742196425000024674000000220660000000000000                             JERINGA A 3 PARTES CON AGUJA  SOB X 1 RYMCO  10ML BN EXENTO-DC.417/2020SIN     5
RC0001043709109H202100015042507800015042507827/10/20210900    3190302823742196425000024674000000220660000000000000                             JERINGA A 3 PARTES CON AGUJA  SOB X 1 RYMCO  10ML BN EXENTO-DC.417/2020SIN     5
TI0001047047240H202100015042507800015042507827/10/20210900    3190302823742196425000024674000000220660000000000000                             JERINGA A 3 PARTES CON AGUJA  SOB X 1 RYMCO  10ML BN EXENTO-DC.417/2020SIN     5
TI0001042265795H202100015042507800015042507827/10/20210900    3190302823742196425000024674000000220660000000000000                             JERINGA A 3 PARTES CON AGUJA  SOB X 1 RYMCO  10ML BN EXENTO-DC.417/2020SIN     5
CC0001065132676H202100015042507800015042507827/10/20210900    3190302823742196425000024674000000220660000000000000                             JERINGA A 3 PARTES CON AGUJA  SOB X 1 RYMCO  10ML BN EXENTO-DC.417/2020SIN     5
RC0001043710353H202100015042507800015042507827/10/20210900    3190302823742196425000024674000000220660000000000000                             JERINGA A 3 PARTES CON AGUJA  SOB X 1 RYMCO  10ML BN EXENTO-DC.417/2020SIN     5
RC0001044662561H202100015042507800015042507827/10/20210900    3190302823742196425000043485100001618510000000000000                GUANTE QUIRURGICO DE LATEX REF 2D72N65X CAJ X 50 PROTEXIS  6.5 BN EXENTO-DC.417/2020SOB     1
TI0001047047240H202100015042507800015042507827/10/20210900    3190302823742196425000043485100001618510000000000000                GUANTE QUIRURGICO DE LATEX REF 2D72N65X CAJ X 50 PROTEXIS  6.5 BN EXENTO-DC.417/2020SOB     1
RC0001043710353H202100015042507800015042507827/10/20210900    3190302823742196425000043485100001618510000000000000                GUANTE QUIRURGICO DE LATEX REF 2D72N65X CAJ X 50 PROTEXIS  6.5 BN EXENTO-DC.417/2020SOB     1
RC0001044662561H202100015042507800015042507827/10/20210900    3190302823742196425000013077800000471960000000000000                                                             GASA NO TEJIDA EST 7.5 X 7.5 SOB X 3 UNSOB     3
TI0001047047240H202100015042507800015042507827/10/20210900    3190302823742196425000013077800000471960000000000000                                                             GASA NO TEJIDA EST 7.5 X 7.5 SOB X 3 UNSOB     3
RC0001043710353H202100015042507800015042507827/10/20210900    3190302823742196425000013077800000471960000000000000                                                             GASA NO TEJIDA EST 7.5 X 7.5 SOB X 3 UNSOB     3
RC0001044662561H202100015042507800015042507827/10/20210900    3190302823742196425000011082700001620070000000000000                                                               EQUIPO SET PRIMARIO C/CLAVE REF 14001BOL     1
TI0001047047240H202100015042507800015042507827/10/20210900    3190302823742196425000011082700001620070000000000000                                                               EQUIPO SET PRIMARIO C/CLAVE REF 14001BOL     1
RC0001043710353H202100015042507800015042507827/10/20210900    3190302823742196425000011082700001620070000000000000                                                               EQUIPO SET PRIMARIO C/CLAVE REF 14001BOL     1
TI0001139430724H202100015042507800015042507827/10/20210900    3190302823742196425000001956000001620610000000000000                                                                      CONECTOR MICRO CLAVE LAT-MC100SOB     1
RC0001044662561H202100015042507800015042507827/10/20210900    3190302823742196425000001956000001620610000000000000                                                                      CONECTOR MICRO CLAVE LAT-MC100SOB     1
TI0001047047240H202100015042507800015042507827/10/20210900    3190302823742196425000001956000001620610000000000000                                                                      CONECTOR MICRO CLAVE LAT-MC100SOB     1
RC0001043710353H202100015042507800015042507827/10/20210900    3190302823742196425000001956000001620610000000000000                                                                      CONECTOR MICRO CLAVE LAT-MC100SOB     1
TI0001139430724H202100015042507800015042507827/10/20210900    31903028237421964250000Q1AA7400003911720000000000000                                                            CATETER PERIFE INTROCAN # 24G 4251601-04SOB     2
RC0001044662561H202100015042507800015042507827/10/20210900    3190302823742196425000030936900001431840000000000000                                                                                              BURETABOL     1
TI0001047047240H202100015042507800015042507827/10/20210900    3190302823742196425000030936900001431840000000000000                                                                                              BURETABOL     1
RC0001043710353H202100015042507800015042507827/10/20210900    3190302823742196425000030936900001431840000000000000                                                                                              BURETABOL     1
TI0001139430724H202100015042507800015042507827/10/20210900    3190302823742196425000016830000000970620000000000000                                                             SIST FIJACION CAT PERIFERICO 6.5X7 1683SOB     1
TI0001081819374H202100015042507800015042507827/10/20210900    3190302823742196425000011070800000471170000000000000                                                                        SAF GEL TUBO X 85 G CONVATECTUB     1
CC0001129523937H202100015042507800015042507827/10/20210900    31903028237421964250000E1AB0600003839280000000000000                                                            SOLUCION SALINA 0.9% SLN INY FCO X 250 MBOL     2
CC0001065132676H202100015042507800015042507827/10/20210900    31903028237421964250000E1AB0600003839280000000000000                                                            SOLUCION SALINA 0.9% SLN INY FCO X 250 MBOL     2
CC0001047034752H202100015042507800015042507827/10/20210900    31903028237421964250000E1AB0300003888390000000000000                                                            SOLUCION SALINA 0.9% SLN INY BO X 500 MLBOL     1
CC0001129523937H202100015042507800015042507827/10/20210900    31903028237421964250000E1AB0300003888390000000000000                                                            SOLUCION SALINA 0.9% SLN INY BO X 500 MLBOL     2
CC0001045686959H202100015042507800015042507827/10/20210900    31903028237421964250000E1AB0300003888390000000000000                                                            SOLUCION SALINA 0.9% SLN INY BO X 500 MLBOL     3
CC0001065132676H202100015042507800015042507827/10/20210900    31903028237421964250000E1AB0300003888390000000000000                                                            SOLUCION SALINA 0.9% SLN INY BO X 500 MLBOL     3
CC0001129523937H202100015042507800015042507827/10/20210900    31903028237421964250000E1AB0200000199290000000000000                                                            SOLUCION SALINA 0.9% SLN INY BO X 100 MLBIN     3
CC0001007795121H202100015042507800015042507827/10/20210900    31903028237421964250000E1AB0200000199290000000000000                                                            SOLUCION SALINA 0.9% SLN INY BO X 100 MLBIN     4
RC0001146543342H202100015042507800015042507827/10/20210900    31903028237421964250000E1AB0200000199290000000000000                                                            SOLUCION SALINA 0.9% SLN INY BO X 100 MLBIN     2
RC0001043709109H202100015042507800015042507827/10/20210900    31903028237421964250000E1AB0200000199290000000000000                                                            SOLUCION SALINA 0.9% SLN INY BO X 100 MLBIN     3
TI0001042265795H202100015042507800015042507827/10/20210900    31903028237421964250000E1AB0200000199290000000000000                                                            SOLUCION SALINA 0.9% SLN INY BO X 100 MLBIN     3
RC0001043710353H202100015042507800015042507827/10/20210900    31903028237421964250000E1AB0200000199290000000000000                                                            SOLUCION SALINA 0.9% SLN INY BO X 100 MLBIN     2
TI0001042265795H202100015042507800015042507827/10/20210900    31903028237421964250000E1AA0800000322190000000000000                                                                          DEXTROSA 5% Sln Iny 250 mlBIN     4
RC0001146543342H202100015042507800015042507827/10/20210900    31903028237421964250000E1AC0100000199400000000000000                                                                          SUERO MIXTO Sln Iny 500 mlBIN     2
TI0001047048202H202100015042507800015042507827/10/20210900    31903028237421964250000E1AC0100000199400000000000000                                                                          SUERO MIXTO Sln Iny 500 mlBIN     2
TI0001139430724H202100015042507800015042507827/10/20210900    31903028237421964250000E1AC0100000199400000000000000                                                                          SUERO MIXTO Sln Iny 500 mlBIN     1
TI0001047047240H202100015042507800015042507827/10/20210900    31903028237421964250000E1AC0100000199400000000000000                                                                          SUERO MIXTO Sln Iny 500 mlBIN     4
RC0001043710353H202100015042507800015042507827/10/20210900    31903028237421964250000E1AC0100000199400000000000000                                                                          SUERO MIXTO Sln Iny 500 mlBIN     2
