RC0001048091952A202100000027629100000027629127/10/20211544    3190333624042196419000030936900001431840000000000000                                                                                              BURETABOL     1
RC0001048091952A202100000027629100000027629127/10/20211544    3190333624042196419000000602600001259280000000000000                                                             APOSITO TEGADERM IV PD 1610 5CM X 5.7CMSOB     1
RC0001048091952A202100000027629100000027629127/10/20211544    3190333624042196419000021017400000227520000000000000                                                            KIT CAT BILUMEN PED CS14402E  4FR X 13CMSIN     1
RC0001048091952A202100000027629100000027629127/10/20211544    31903336240421964190000K0901100001054280000000000000                                                            RECARGA ARTICULABLE PURPURA 45 EGIA45AMTPZA     1
RC0001048091952A202100000027629100000027629127/10/20211544    31903336240421964190000K0960000001052020000000000000                                                            RECARGA ARTICULABLE 60 PURPURA EGIA60AMTPZA     1
RC0001048091952A202100000027629100000027629127/10/20211544    3190333624042196419000038568200000257000000000000000                                                                                   SONDA NELATON #06SIN     1
RC0001048091952A202100000027629100000027629127/10/20211544    31903336240421964190000N1AH0200003906560000000000000                                                                     FENTANIL Iny 0.05 mg/ml x 10 mlAMP     1
RC0001048091952A202100000027629100000027629127/10/20211544    31903336240421964190000B05A0300003888230000000000000                                                        VOLUVEN (6+0.9)% SOL INY CAJ X 20BOL X 500MLBOL     1
RC0001048091952A202100000027629100000027629127/10/20211544    31903336240421964190000R3CA0400000777470000000000000                                                               ADRENALINA HCL SLN INY 1 MG / ML RYANAMP     1
RC0001048091952A202100000027629100000027629127/10/20211544    3190333624042196419000015994600000632480000000000000                                                                          MONOCRYL 4-0 PS-2 45 Y496GSIN     1
RC0001048091952A202100000027629100000027629127/10/20211544    31903336240421964190000Q1AA1000000256790000000000000                                                                         SONDA ASPIRACION CONTROL #8SIN     1
RC0001048091952A202100000027629100000027629127/10/20211544    3190333624042196419000011047900000223010000000000000                                                                            JERINGA X 1ML REF 302579SIN     1
RC0001048091952A202100000027629100000027629127/10/20211544    3190333624042196419000049419600001679900000000000000                                                                        VENDA ALGODON 4*5 NO ESTERILSOB     1
RC0001048091952A202100000027629100000027629127/10/20211544    3190333624042196419000000400300000661650000000000000                                                            TUBO ENDOTRAQUEAL 3.5MM S/BALON LIFECARESOB     1
RC0001048091952A202100000027629100000027629127/10/20211544    3190333624042196419000031011100003934700000000000000                              CANULA GUEDEL MAYO REF CGUE00 SOB X 1 MEDEX N. 0 BN EXENTO-DC.417/2020SOB     1
RC0001048091952A202100000027629100000027629127/10/20211544    3190333624042196419000047373400000228840000000000000                                                                             PINZA COLOSTOMIA 175635PZA     1
RC0001048091952A202100000027629100000027629127/10/20211544    3190333624042196419000040512700000228750000000000000                                                            BARRERA COLOSTOMIA CONVATEC 32 MM 125016PZA     1
RC0001048091952A202100000027629100000027629127/10/20211544    3190333624042196419000040516900000228620000000000000                                                                     BOLSA COLOSTOMIA CONVATEC 32 MMPZA     1
RC0001048091952A202100000027629100000027629127/10/20211544    3190333624042196419000011082600000265810000000000000                                                              EQUIPO IRRIGACION URINARIA REF MRC4002SOB     1
RC0001048091952A202100000027629100000027629127/10/20211544    3190333624042196419000043879200001138180000000000000                                                                                   HOJA BISTURI # 11SOB     2
RC0001048091952A202100000027629100000027629127/10/20211544    3190333624042196419000018352000000232900000000000000                                                                                   SEDA 3-0 SH K832HSIN     1
RC0001048091952A202100000027629100000027629127/10/20211544    3190333624042196419000019489000000599330000000000000                                                                           VICRYL 4-0 RB1 70 VCP304HSIN     3
RC0001048091952A202100000027629100000027629127/10/20211544    3190333624042196419000029958500000659240000000000000                                                                               PDS 5-0 2RB1 75 Z320HSOB     3
RC0001048091952A202100000027629100000027629127/10/20211544    3190333624042196419000045138000001413890000000000000                                                                       LAPIZ ELECTROBISTURI  SOB X 1SOB     1
RC0001048091952A202100000027629100000027629127/10/20211544    3190333624042196419000013077800000471960000000000000                                                             GASA NO TEJIDA EST 7.5 X 7.5 SOB X 3 UNSOB     2
RC0001048091952A202100000027629100000027629127/10/20211544    3190333624042196419000043879100001138200000000000000                                                                  HOJA BISTURI # 15 CSSB 15 01002003SOB     1
RC0001048091952A202100000027629100000027629127/10/20211544    3190333624042196419000030161400001459220000000000000                                                                       MANGUERA SUCCION 6 MM*3.1 MTSSOB     2
RC0001048091952A202100000027629100000027629127/10/20211544    3190333624042196419000011073300001096420000000000000                                                                BOLSA DE SUCCION DE FLUIDOS x 2500mLBOL     1
RC0001048091952A202100000027629100000027629127/10/20211544    3190333624042196419000020750700000576830000000000000                                                                 PLACA QUIRURGICA  NEONATO REF E7512SIN     1
RC0001048091952A202100000027629100000027629127/10/20211544    3190333624042196419000053074400000607910000000000000                                                               GASA ESTERIL 10*10 SOBRE X 3 UNIDADESSOB     2
RC0001048091952A202100000027629100000027629127/10/20211544    3190333624042196419000011085300001082140000000000000                                                                           GUANTE QUIRURGICO TALLA 8SOB     2
RC0001048091952A202100000027629100000027629127/10/20211544    3190333624042196419000011085200001585390000000000000                                                                       GUANTE QUIRURGICO TALLA 7 1/2SOB     3
RC0001048091952A202100000027629100000027629127/10/20211544    3190333624042196419000011085100001082120000000000000                                                                           GUANTE QUIRURGICO TALLA 7SOB     3
RC0001048091952A202100000027629100000027629127/10/20211544    3190333624042196419000043485100001618510000000000000                GUANTE QUIRURGICO DE LATEX REF 2D72N65X CAJ X 50 PROTEXIS  6.5 BN EXENTO-DC.417/2020SOB     3
RC0001048091952A202100000027629100000027629127/10/20211544    3190333624042196419000051515100000598120000000000000                                                                            MASCARILLA ANESTESIA # 1SIN     1
RC0001048091952A202100000027629100000027629127/10/20211544    3190333624042196419000020058100001101630000000000000                                                                     AGUJA HIPODERMICA DESECH 23 X 1SOB     1
RC0001048091952A202100000027629100000027629127/10/20211544    3190333624042196419000035356500003919000000000000000                                                                                        LLAVE 3 VIASSOB     2
RC0001048091952A202100000027629100000027629127/10/20211544    3190333624042196419000011099300000777780000000000000                                                                     FILTRO BACTERIANO VIRICO ADULTOBOL     1
RC0001048091952A202100000027629100000027629127/10/20211544    3190333624042196419000024673000001411210000000000000                                                                  JERINGA DESECHABLE 3 ML 21 X 1 1/2SOB     4
RC0001048091952A202100000027629100000027629127/10/20211544    3190333624042196419000024674000000220660000000000000                             JERINGA A 3 PARTES CON AGUJA  SOB X 1 RYMCO  10ML BN EXENTO-DC.417/2020SIN    14
RC0001048091952A202100000027629100000027629127/10/20211544    3190333624042196419000024674500000322810000000000000                                                                   JERINGA DESECHABLE 20 ml 21*1 1/2SIN     1
RC0001048091952A202100000027629100000027629127/10/20211544    31903336240421964190000E1AD0200003888320000000000000                                                                              HARTMAN SLN INY 500 MLBOL     1
RC0001048091952A202100000027629100000027629127/10/20211544    31903336240421964190000E1AB0300003888390000000000000                                                            SOLUCION SALINA 0.9% SLN INY BO X 500 MLBOL     1
RC0001048091952A202100000027629100000027629127/10/20211544    31903336240421964190000E1AB0200000199290000000000000                                                            SOLUCION SALINA 0.9% SLN INY BO X 100 MLBIN     1
RC0001048091952A202100000027629100000027629127/10/20211544    31903336240421964190000A3BA0100001109400000000000000                                                                          ATROPINA SLN INY 1 MG / MLAMP     2
RC0001048091952A202100000027629100000027629127/10/20211544    31903336240421964190000N2AA0100000301640000000000000                                                                            MORFINA Sln Iny 10 mg/mlAMP     1
