CC0000000162131H202100000555005400000555005427/10/20211050     3300010237421964250000S2BA0100000468160000000000000                                                                          SOLU-CORTEF SNL INY 100 MGVAL     3
CC0000000162131H202100000555005400000555005427/10/20211050     3300010237421964250000B1AB1200003939350000000000000                 ENOXAPARINA SODICA 80MG/0.8ML(100MG/ML) SOL INY INST CAJ X 2JERPREL X 0.8ML TECHDOWJRP     3
CC0000000162131H202100000555005400000555005427/10/20210024    31500460237421964250000E1AB0300003888390000000000000                                                            SOLUCION SALINA 0.9% SLN INY BO X 500 MLBOL     1
CC0000000162131H202100000555005400000555005427/10/20212132    31500566237421964250000E1AD0300000199490000000000000                                         LACTATO RINGER USP (HARTMANN)  SOL INY  BOL X 1000ML BAXTERBIN     1
CC0000000162131H202100000555005400000555005427/10/20210518     3300010237421964250000C07A0500001278660000000000000                                                                                NEBILET TAB 5 MG /R/TAB     1
CC0000000162131H202100000555005400000555005427/10/20211709     3300009237421964250000C3CA0200000195520000000000000                                                                           LASIX SLN INY 20 MG/ 2 MLAMP     2
CC0000000162131H202100000555005400000555005427/10/20210518     3300010237421964250000C3CA0200000195520000000000000                                                                           LASIX SLN INY 20 MG/ 2 MLAMP     1
CC0000000162131H202100000555005400000555005427/10/20210322     3300009237421964250000C3CA0200000195520000000000000                                                                           LASIX SLN INY 20 MG/ 2 MLAMP     1
CC0000000162131H202100000555005400000555005427/10/20212305     3300009237421964250000C3CA0100001278130000000000000                                                                                     LASIX TAB 40 MGTAB     1
CC0000000162131H202100000555005400000555005427/10/20211050     3300010237421964250000C7AB1500001277290000000000000                                                                        BETALOC ZOK TAB LM 50 MG /R/TAB     2
CC0000000162131H202100000555005400000555005427/10/20210518     3300010237421964250000C7FA0200001277980000000000000                                                                                    NORVAS TAB 10 MGTAB     1
CC0000000162131H202100000555005400000555005427/10/20212305     3300009237421964250000J1CB1800001134180000000000000                                                                             TAZOCIN Polvo Iny 4.5 gVAL     1
CC0000000162131H202100000555005400000555005427/10/20210517     3300010237421964250000J1FA1700001050270000000000000                                                            RPQ KLARICID 500MG TAB REC INST CAJ X 10TAB     1
CC0000000162131H202100000555005400000555005427/10/20211133    31903291237421964250000V07A1300000502600000000000000                                                                                AGUA ESTERIL x 10 mlAMP     5
