CC0000032893478H202100015022522500015022522527/10/20211256    3190328823742196425000024674000000220660000000000000                             JERINGA A 3 PARTES CON AGUJA  SOB X 1 RYMCO  10ML BN EXENTO-DC.417/2020SIN    10
CC0001091661611H202100015022522500015022522527/10/20211256    3190328823742196425000024674000000220660000000000000                             JERINGA A 3 PARTES CON AGUJA  SOB X 1 RYMCO  10ML BN EXENTO-DC.417/2020SIN    10
CC0001129532619H202100015022522500015022522527/10/20211256    3190328823742196425000024674000000220660000000000000                             JERINGA A 3 PARTES CON AGUJA  SOB X 1 RYMCO  10ML BN EXENTO-DC.417/2020SIN    10
CC0000032893478H202100015022522500015022522527/10/20211256    3190328823742196425000022426800001140510000000000000                                                                    EQUIPO MACROGOTEO BAXTER MRC0001SOB     1
CC0001091661611H202100015022522500015022522527/10/20211256    3190328823742196425000022426800001140510000000000000                                                                    EQUIPO MACROGOTEO BAXTER MRC0001SOB     1
CC0001129532619H202100015022522500015022522527/10/20211256    3190328823742196425000022426800001140510000000000000                                                                    EQUIPO MACROGOTEO BAXTER MRC0001SOB     1
CC0000032893478H202100015022522500015022522527/10/20211256    3190328823742196425000030936900001431840000000000000                                                                                              BURETABOL     1
CC0001091661611H202100015022522500015022522527/10/20211256    3190328823742196425000030936900001431840000000000000                                                                                              BURETABOL     1
CC0001129532619H202100015022522500015022522527/10/20211256    3190328823742196425000030936900001431840000000000000                                                                                              BURETABOL     1
CC0000032893478H202100015022522500015022522527/10/20211256    31903288237421964250000E1AD0300000199490000000000000                                         LACTATO RINGER USP (HARTMANN)  SOL INY  BOL X 1000ML BAXTERBIN     1
CC0001091661611H202100015022522500015022522527/10/20211256    31903288237421964250000E1AB0500003888400000000000000                                                              SOLUCION SALINA 0.9% SLN INY X 1000 MLBOL     1
CC0001129532619H202100015022522500015022522527/10/20211256    31903288237421964250000E1AB0500003888400000000000000                                                              SOLUCION SALINA 0.9% SLN INY X 1000 MLBOL     1
