CC0001129498209H202100015052699300015052699327/10/20212021    3190330323742196425000022426800001140510000000000000                                                                    EQUIPO MACROGOTEO BAXTER MRC0001SOB     1
CC0000072248781H202100015052699300015052699327/10/20212021    3190330323742196425000022426800001140510000000000000                                                                    EQUIPO MACROGOTEO BAXTER MRC0001SOB     1
CC0001129498209H202100015052699300015052699327/10/20212021    3190330323742196425000011082700001620070000000000000                                                               EQUIPO SET PRIMARIO C/CLAVE REF 14001BOL     1
CC0000032675307H202100015052699300015052699327/10/20212021    3190330323742196425000011082700001620070000000000000                                                               EQUIPO SET PRIMARIO C/CLAVE REF 14001BOL     1
CC0000072248781H202100015052699300015052699327/10/20212021    3190330323742196425000011082700001620070000000000000                                                               EQUIPO SET PRIMARIO C/CLAVE REF 14001BOL     1
CC0000055243081H202100015052699300015052699327/10/20212021    3190330323742196425000001956000001620610000000000000                                                                      CONECTOR MICRO CLAVE LAT-MC100SOB     1
CC0001129498209H202100015052699300015052699327/10/20212021    3190330323742196425000001956000001620610000000000000                                                                      CONECTOR MICRO CLAVE LAT-MC100SOB     1
CC0000032675307H202100015052699300015052699327/10/20212021    3190330323742196425000001956000001620610000000000000                                                                      CONECTOR MICRO CLAVE LAT-MC100SOB     1
CC0000008697210H202100015052699300015052699327/10/20212021    3190330323742196425000001956000001620610000000000000                                                                      CONECTOR MICRO CLAVE LAT-MC100SOB     1
CC0000008697210H202100015052699300015052699327/10/20212021    31903303237421964250000Q1AA7100000610620000000000000                                                            CATETER PERIFE INTROCAN # 18G 4251687-04SIN     1
CC0000055243081H202100015052699300015052699327/10/20212021    31903303237421964250000Q1AA7200000610630000000000000                                                            CATETER PERIFE INTROCAN # 20G 4251644-04SIN     2
CC0000032675307H202100015052699300015052699327/10/20212021    31903303237421964250000Q1AA7200000610630000000000000                                                            CATETER PERIFE INTROCAN # 20G 4251644-04SIN     1
CC0000055243081H202100015052699300015052699327/10/20212021    31903303237421964250000Q1AA7300000610640000000000000                                                            CATETER PERIFE INTROCAN # 22G 4251628-04SIN     2
CC0001129498209H202100015052699300015052699327/10/20212021    3190330323742196425000030936900001431840000000000000                                                                                              BURETABOL     1
CC0000032675307H202100015052699300015052699327/10/20212021    3190330323742196425000030936900001431840000000000000                                                                                              BURETABOL     1
CC0000055243081H202100015052699300015052699327/10/20212021    3190330323742196425000016830000000970620000000000000                                                             SIST FIJACION CAT PERIFERICO 6.5X7 1683SOB     1
CC0001129498209H202100015052699300015052699327/10/20212021    3190330323742196425000016830000000970620000000000000                                                             SIST FIJACION CAT PERIFERICO 6.5X7 1683SOB     1
CC0000032675307H202100015052699300015052699327/10/20212021    3190330323742196425000016830000000970620000000000000                                                             SIST FIJACION CAT PERIFERICO 6.5X7 1683SOB     1
CC0000008697210H202100015052699300015052699327/10/20212021    3190330323742196425000016830000000970620000000000000                                                             SIST FIJACION CAT PERIFERICO 6.5X7 1683SOB     1
TI0001046701779H202100015052699300015052699327/10/20212021    31903303237421964250000E1AD0300000199490000000000000                                         LACTATO RINGER USP (HARTMANN)  SOL INY  BOL X 1000ML BAXTERBIN     2
CC0000072248781H202100015052699300015052699327/10/20212021    31903303237421964250000E1AD0300000199490000000000000                                         LACTATO RINGER USP (HARTMANN)  SOL INY  BOL X 1000ML BAXTERBIN     2
CC0001143120182H202100015052699300015052699327/10/20212021    31903303237421964250000E1AB0300003888390000000000000                                                            SOLUCION SALINA 0.9% SLN INY BO X 500 MLBOL     1
CC0001005573354H202100015052699300015052699327/10/20212021    31903303237421964250000E1AB0300003888390000000000000                                                            SOLUCION SALINA 0.9% SLN INY BO X 500 MLBOL     1
CC0000072278313H202100015052699300015052699327/10/20212021    31903303237421964250000E1AB0300003888390000000000000                                                            SOLUCION SALINA 0.9% SLN INY BO X 500 MLBOL     2
CC0001143269433H202100015052699300015052699327/10/20212021    31903303237421964250000E1AB0300003888390000000000000                                                            SOLUCION SALINA 0.9% SLN INY BO X 500 MLBOL     2
CC0000022405998H202100015052699300015052699327/10/20212021    31903303237421964250000E1AB0300003888390000000000000                                                            SOLUCION SALINA 0.9% SLN INY BO X 500 MLBOL     2
CC0001045739587H202100015052699300015052699327/10/20212021    31903303237421964250000E1AB0300003888390000000000000                                                            SOLUCION SALINA 0.9% SLN INY BO X 500 MLBOL     2
