CC0000022328269H202100000555020700000555020727/10/20210911     3300010237421964250000A2BX0100001277280000000000000                                                                                ALSUCRAL TAB 1 G /R/TAB     3
CC0000022328269H202100000555020700000555020727/10/20211634     3300009237421964250000B1AB0200003939510000000000000                 ENOXAPARINA SODICA 40MG/0.4ML(100MG/ML) SOL INY INST CAJ X 2JERPREL X 0.4ML TECHDOWJRP     1
CC0000022328269H202100000555020700000555020727/10/20211824    31900998237421964250000E1AB0200000199290000000000000                                                            SOLUCION SALINA 0.9% SLN INY BO X 100 MLBIN     5
CC0000022328269H202100000555020700000555020727/10/20211824    31900998237421964250000E1AD0300000199490000000000000                                         LACTATO RINGER USP (HARTMANN)  SOL INY  BOL X 1000ML BAXTERBIN     1
CC0000022328269H202100000555020700000555020727/10/20211633     3300009237421964250000A12BA100000552980000000000000                                                            CLORURO POTASIO Sln Iny AMP 20 MEQ/10 MLAMP     2
CC0000022328269H202100000555020700000555020727/10/20210911     3300010237421964250000C7AB1000001382030000000000000                                                                   NOREPINEFRINA SLN INY 4 MG / 4 MLAMP    10
CC0000022328269H202100000555020700000555020727/10/20210910     3300010237421964250000C03DA100001334730000000000000                                                                      INSPRA TAB RECUBIERTA 25MG /R/TAB     1
CC0000022328269H202100000555020700000555020727/10/20210911     3300010237421964250000J01XA400001212420000000000000                                                               VANCOMICINA POLVO LIOF SLN INY 500 MGVAL     4
CC0000022328269H202100000555020700000555020727/10/20211633     3300009237421964250000A12CC100001690470000000000000                                                                  MAGNESIO SULFATO 20% SLN INY 10 MLAMP     1
CC0000022328269H202100000555020700000555020727/10/20210911     3300010237421964250000V06B1000001243520000000000000                                                                           NEPRO AP LIQUIDO X 237 MLFCO     1
CC0000022328269H202100000555020700000555020727/10/20210910     3300010237421964250000V06B1000001243520000000000000                                                                           NEPRO AP LIQUIDO X 237 MLFCO     1
CC0000022328269H202100000555020700000555020727/10/20211355     3300009237421964250000N1AH0200003906560000000000000                                                                     FENTANIL Iny 0.05 mg/ml x 10 mlAMP     1
CC0000022328269H202100000555020700000555020727/10/20210911     3300010237421964250000C03C0100001672000000000000000                                                                       FUROSEMIDA SLN INY 20 MG/2 MLAMP     2
CC0000022328269H202100000555020700000555020727/10/20210910     3300010237421964250000C10AA500001314010000000000000                                                                             ATORVASTATINA TAB 40 MGTAB     1
CC0000022328269H202100000555020700000555020727/10/20211631     3300009237421964250000J01DH400001317770000000000000                                                                MEROPENEM POLVO LIOF SLN INY 1 G /R/CAJ     1
CC0000022328269H202100000555020700000555020727/10/20210910     3300010237421964250000J01DH400001317770000000000000                                                                MEROPENEM POLVO LIOF SLN INY 1 G /R/CAJ     3
CC0000022328269H202100000555020700000555020727/10/20211824    31900998237421964250000V07A1300000502600000000000000                                                                                AGUA ESTERIL x 10 mlAMP    10
