CC0000079944819U202100050131395200050131395227/10/20211807    31902712239421964320000V07A1300000502600000000000000                                                                                AGUA ESTERIL x 10 mlAMP     2
RC0001048090506U202100050131395200050131395227/10/20211807    31902712239421964320000V07A1300000502600000000000000                                                                                AGUA ESTERIL x 10 mlAMP     3
RC0001048090506U202100050131395200050131395227/10/20211807    3190271223942196432000038568300000257010000000000000                                                                                   SONDA NELATON #08SIN     1
RC0001048090506U202100050131395200050131395227/10/20211807    3190271223942196432000011048600000223020000000000000                                                                 JERINGA VACUNACION 3ML C/AGU 302542SIN     1
CC0000079944819U202100050131395200050131395227/10/20211807    3190271223942196432000024674000000220660000000000000                             JERINGA A 3 PARTES CON AGUJA  SOB X 1 RYMCO  10ML BN EXENTO-DC.417/2020SIN     1
CC0000079944819U202100050131395200050131395227/10/20211807    3190271223942196432000024673600000222980000000000000                                                                     JERINGA DESECHABLE 5 ml 27*11/2SIN     1
CC0000079944819U202100050131395200050131395227/10/20211807    3190271223942196432000011047900000223010000000000000                                                                            JERINGA X 1ML REF 302579SIN     1
RC0001048090506U202100050131395200050131395227/10/20211807    3190271223942196432000011089300001083990000000000000                                                              GUANTE ESTERIL LATEX S/POLVO TALLA 7.5SOB     1
RC0001048090506U202100050131395200050131395227/10/20211807    3190271223942196432000013077800000471960000000000000                                                             GASA NO TEJIDA EST 7.5 X 7.5 SOB X 3 UNSOB     3
CC0000079944819U202100050131395200050131395227/10/20211807    31902712239421964320000E1AB0200000199290000000000000                                                            SOLUCION SALINA 0.9% SLN INY BO X 100 MLBIN     1
