CC0000040786622H202100015052699600015052699627/10/20212232    3190206423742196425000011082700001620070000000000000                                                               EQUIPO SET PRIMARIO C/CLAVE REF 14001BOL     1
CC0000008509195H202100015052699600015052699627/10/20212232    3190206423742196425000001956000001620610000000000000                                                                      CONECTOR MICRO CLAVE LAT-MC100SOB     1
CC0001046275671H202100015052699600015052699627/10/20212232    3190206423742196425000001956000001620610000000000000                                                                      CONECTOR MICRO CLAVE LAT-MC100SOB     1
CC0000007454802H202100015052699600015052699627/10/20212232    3190206423742196425000001956000001620610000000000000                                                                      CONECTOR MICRO CLAVE LAT-MC100SOB     1
CC0000022543387H202100015052699600015052699627/10/20212232    3190206423742196425000001956000001620610000000000000                                                                      CONECTOR MICRO CLAVE LAT-MC100SOB     1
CC0001143114979H202100015052699600015052699627/10/20212232    31902064237421964250000Q1AA7300000610640000000000000                                                            CATETER PERIFE INTROCAN # 22G 4251628-04SIN     2
CC0000007454802H202100015052699600015052699627/10/20212232    31902064237421964250000Q1AA7300000610640000000000000                                                            CATETER PERIFE INTROCAN # 22G 4251628-04SIN     2
CC0000022543387H202100015052699600015052699627/10/20212232    31902064237421964250000Q1AA7300000610640000000000000                                                            CATETER PERIFE INTROCAN # 22G 4251628-04SIN     2
CC0000040786622H202100015052699600015052699627/10/20212232    3190206423742196425000030936900001431840000000000000                                                                                              BURETABOL     1
CC0000007454802H202100015052699600015052699627/10/20212232    3190206423742196425000030936900001431840000000000000                                                                                              BURETABOL     1
CC0000008509195H202100015052699600015052699627/10/20212232    3190206423742196425000016830000000970620000000000000                                                             SIST FIJACION CAT PERIFERICO 6.5X7 1683SOB     1
CC0001143114979H202100015052699600015052699627/10/20212232    3190206423742196425000016830000000970620000000000000                                                             SIST FIJACION CAT PERIFERICO 6.5X7 1683SOB     1
CC0001046275671H202100015052699600015052699627/10/20212232    3190206423742196425000016830000000970620000000000000                                                             SIST FIJACION CAT PERIFERICO 6.5X7 1683SOB     1
CC0000007454802H202100015052699600015052699627/10/20212232    3190206423742196425000016830000000970620000000000000                                                             SIST FIJACION CAT PERIFERICO 6.5X7 1683SOB     1
CC0000022543387H202100015052699600015052699627/10/20212232    3190206423742196425000016830000000970620000000000000                                                             SIST FIJACION CAT PERIFERICO 6.5X7 1683SOB     1
CC0001143114979H202100015052699600015052699627/10/20212232    31902064237421964250000E1AD0200003888320000000000000                                                                              HARTMAN SLN INY 500 MLBOL     2
CC0001046275671H202100015052699600015052699627/10/20212232    31902064237421964250000E1AD0200003888320000000000000                                                                              HARTMAN SLN INY 500 MLBOL     2
CC0000040786622H202100015052699600015052699627/10/20212232    31902064237421964250000E1AD0200003888320000000000000                                                                              HARTMAN SLN INY 500 MLBOL     2
CC0001143227023H202100015052699600015052699627/10/20212232    31902064237421964250000E1AD0200003888320000000000000                                                                              HARTMAN SLN INY 500 MLBOL     2
CC0000008764419H202100015052699600015052699627/10/20212232    31902064237421964250000E1AD0200003888320000000000000                                                                              HARTMAN SLN INY 500 MLBOL     2
CC0000022543387H202100015052699600015052699627/10/20212232    31902064237421964250000E1AD0200003888320000000000000                                                                              HARTMAN SLN INY 500 MLBOL     2
CC0000032768038H202100015052699600015052699627/10/20212232    31902064237421964250000E1AA0100003888590000000000000                                                                        DEXTROSA 5% Sln Iny X 500 mlBOL     3
