CC0000003893524H202100015112648100015112648127/10/20211024    31500128237421964250000V07A1300000502600000000000000                                                                                AGUA ESTERIL x 10 mlAMP     5
CC0000008753953H202100015112648100015112648127/10/20211024    31500128237421964250000V07A1300000502600000000000000                                                                                AGUA ESTERIL x 10 mlAMP     5
CC0000022487429H202100015112648100015112648127/10/20211024    31500128237421964250000V07A1300000502600000000000000                                                                                AGUA ESTERIL x 10 mlAMP    10
CC0000022487429H202100015112648100015112648127/10/20211024    3150012823742196425000018351500000232840000000000000                                                                                    SEDA 2-0 KS 623HSIN     2
CC0000022487429H202100015112648100015112648127/10/20211024    3150012823742196425000038573100000256880000000000000                                                                                 SONDA NSG LEVIN #18SIN     1
CC0000022487429H202100015112648100015112648127/10/20211024    31500128237421964250000Q1AA9700000295860000000000000                                                                              SONDA FOLEY #18 3 VIASSIN     1
CC0000022487429H202100015112648100015112648127/10/20211024    3150012823742196425000035356500003919000000000000000                                                                                        LLAVE 3 VIASSOB     1
CC0000003893524H202100015112648100015112648127/10/20211024    3150012823742196425000045136100001419300000000000000                                                                            LANCETA DEXTROMETER X UNPZA     4
CC0000008753953H202100015112648100015112648127/10/20211024    3150012823742196425000045136100001419300000000000000                                                                            LANCETA DEXTROMETER X UNPZA     3
CC0000022487429H202100015112648100015112648127/10/20211024    3150012823742196425000045136100001419300000000000000                                                                            LANCETA DEXTROMETER X UNPZA     3
CC0000022487429H202100015112648100015112648127/10/20211024    3150012823742196425000011051900000226360000000000000                                                               KIT TRANSDUCTOR SENCILLO S/VAMP PX260SOB     1
CC0000003893524H202100015112648100015112648127/10/20211024    3150012823742196425000024674000000220660000000000000                             JERINGA A 3 PARTES CON AGUJA  SOB X 1 RYMCO  10ML BN EXENTO-DC.417/2020SIN    10
CC0000008753953H202100015112648100015112648127/10/20211024    3150012823742196425000024674000000220660000000000000                             JERINGA A 3 PARTES CON AGUJA  SOB X 1 RYMCO  10ML BN EXENTO-DC.417/2020SIN    15
CC0000022487429H202100015112648100015112648127/10/20211024    3150012823742196425000024674000000220660000000000000                             JERINGA A 3 PARTES CON AGUJA  SOB X 1 RYMCO  10ML BN EXENTO-DC.417/2020SIN    15
CC0000022487429H202100015112648100015112648127/10/20211024    3150012823742196425000043879200001138180000000000000                                                                                   HOJA BISTURI # 11SOB     1
CC0000022487429H202100015112648100015112648127/10/20211024    3150012823742196425000043485100001618510000000000000                GUANTE QUIRURGICO DE LATEX REF 2D72N65X CAJ X 50 PROTEXIS  6.5 BN EXENTO-DC.417/2020SOB     2
CC0000022487429H202100015112648100015112648127/10/20211024    3150012823742196425000011089000001318280000000000000                                                             GUANTE CIRUGIA NITRILO ALFASAFE TALLA 8SOB     2
CC0000022487429H202100015112648100015112648127/10/20211024    3150012823742196425000013077800000471960000000000000                                                             GASA NO TEJIDA EST 7.5 X 7.5 SOB X 3 UNSOB    20
CC0000022487429H202100015112648100015112648127/10/20211024    3150012823742196425000022426800001140510000000000000                                                                    EQUIPO MACROGOTEO BAXTER MRC0001SOB     2
CC0000022487429H202100015112648100015112648127/10/20211024    3150012823742196425000011082900001233450000000000000                                                               EQUIPO LC 5000 PRIMARIO FOTOPRO 0L218SOB     1
CC0000022487429H202100015112648100015112648127/10/20211024    3150012823742196425000011082700001620070000000000000                                                               EQUIPO SET PRIMARIO C/CLAVE REF 14001BOL     2
CC0000022487429H202100015112648100015112648127/10/20211024    3150012823742196425000031188000000236790000000000000                                                                                     CISTOFLO ADULTOSIN     1
CC0000022487429H202100015112648100015112648127/10/20211024    3150012823742196425000001956000001620610000000000000                                                                      CONECTOR MICRO CLAVE LAT-MC100SOB     3
CC0000022487429H202100015112648100015112648127/10/20211024    3150012823742196425000021016900000227720000000000000                                                               CATETER TRILUMEN AD CS15703E 7FR*20CMSIN     1
CC0000022487429H202100015112648100015112648127/10/20211024    31500128237421964250000Q1A11500000331560000000000000                                                                     CATETER RADIAL #20 REF. 115.090SIN     1
CC0000022487429H202100015112648100015112648127/10/20211024    3150012823742196425000000602700001197200000000000000                                                              APOSITO TRANSP  1655 IV 8.5CM X 11.5CMSOB     1
CC0000022487429H202100015112648100015112648127/10/20211024    3150012823742196425000016830000000970620000000000000                                                             SIST FIJACION CAT PERIFERICO 6.5X7 1683SOB     1
CC0000008753953H202100015112648100015112648127/10/20211024    31500128237421964250000E1AD0300000199490000000000000                                         LACTATO RINGER USP (HARTMANN)  SOL INY  BOL X 1000ML BAXTERBIN     1
CC0000022487429H202100015112648100015112648127/10/20211024    31500128237421964250000E1AD0300000199490000000000000                                         LACTATO RINGER USP (HARTMANN)  SOL INY  BOL X 1000ML BAXTERBIN     3
CC0000008753953H202100015112648100015112648127/10/20211024    31500128237421964250000E1AB0200000199290000000000000                                                            SOLUCION SALINA 0.9% SLN INY BO X 100 MLBIN     8
CC0000022487429H202100015112648100015112648127/10/20211024    31500128237421964250000E1AB0200000199290000000000000                                                            SOLUCION SALINA 0.9% SLN INY BO X 100 MLBIN    12
CC0000003893524H202100015112648100015112648127/10/20211024    31500128237421964250000E1AA0100003888590000000000000                                                                        DEXTROSA 5% Sln Iny X 500 mlBOL     2
CC0000003893524H202100015112648100015112648127/10/20211024    3150012823742196425000011137100001419310000000000000                                                               TIRA GLUCOMETRIA FREESTYLE H OPTIUM .PZA     4
CC0000008753953H202100015112648100015112648127/10/20211024    3150012823742196425000011137100001419310000000000000                                                               TIRA GLUCOMETRIA FREESTYLE H OPTIUM .PZA     3
CC0000022487429H202100015112648100015112648127/10/20211024    3150012823742196425000011137100001419310000000000000                                                               TIRA GLUCOMETRIA FREESTYLE H OPTIUM .PZA     3
CC0000008753953H202100015112648100015112648127/10/20211024    3150012823742196425000011127400001413910000000000000                                                            EQUIPO ADMINIST NUTR PUNZON REF 674669 BBOL     1
