CC0001129568902U202100000555037400000555037427/10/20211637     3300004239421964320000A2BC0900000200150000000000000                                                                               ORAZOLE Sln Iny 40 mgCIN     1
CC0001129568902U202100000555037400000555037427/10/20211814    31900930239421964320000E1AD0300000199490000000000000                                         LACTATO RINGER USP (HARTMANN)  SOL INY  BOL X 1000ML BAXTERBIN     1
CC0001129568902U202100000555037400000555037427/10/20211636     3300004239421964320000N07CA400001335820000000000000                                                                                   PASEDOL TAB 50 MGTAB     2
CC0001129568902U202100000555037400000555037427/10/20211636     3300004239421964320000A03F0500001692520000000000000                                                                   ALIZAPRIDA HCL SLN INY 50 MG/2 MLAMP     1
