CC0000008633435H202100015032578400015032578427/10/20212001    3150056623742196425000022426800001140510000000000000                                                                    EQUIPO MACROGOTEO BAXTER MRC0001SOB     1
CC0000073070310H202100015032578400015032578427/10/20212001    3150056623742196425000022426800001140510000000000000                                                                    EQUIPO MACROGOTEO BAXTER MRC0001SOB     1
CC0000032894571H202100015032578400015032578427/10/20212001    3150056623742196425000011082700001620070000000000000                                                               EQUIPO SET PRIMARIO C/CLAVE REF 14001BOL     1
CC0000073070310H202100015032578400015032578427/10/20212001    3150056623742196425000011082700001620070000000000000                                                               EQUIPO SET PRIMARIO C/CLAVE REF 14001BOL     1
CC0000064541334H202100015032578400015032578427/10/20212001    3150056623742196425000011082700001620070000000000000                                                               EQUIPO SET PRIMARIO C/CLAVE REF 14001BOL     1
CC0000032894571H202100015032578400015032578427/10/20212001    3150056623742196425000030936900001431840000000000000                                                                                              BURETABOL     1
CC0000073070310H202100015032578400015032578427/10/20212001    3150056623742196425000030936900001431840000000000000                                                                                              BURETABOL     1
CC0000064541334H202100015032578400015032578427/10/20212001    3150056623742196425000030936900001431840000000000000                                                                                              BURETABOL     1
