CC0001143250996H202100000555017400000555017427/10/20210747     3300009237421964250000A02BC100001677520000000000000                                                                ESOMEPRAZOL POLVO LIOF INY 40 MG /R/VAL     1
CC0001143250996H202100000555017400000555017427/10/20210747     3300009237421964250000A6AB0200001278260000000000000                                                                                  DULCOLAX Grag 5 mgGRA     1
CC0001143250996H202100000555017400000555017427/10/20210748     3300009237421964250000B1AB0200003939510000000000000                 ENOXAPARINA SODICA 40MG/0.4ML(100MG/ML) SOL INY INST CAJ X 2JERPREL X 0.4ML TECHDOWJRP     1
CC0001143250996H202100000555017400000555017427/10/20210747     3300009237421964250000J01DA300001239950000000000000                                                            CEFAZOLINA SODICA POLVO LIOF SLN INY 1 GVAL     4
CC0001143250996H202100000555017400000555017427/10/20210748     3300009237421964250000N2AX0400001204140000000000000                                                                             TRAMAL Sln Iny 50 mg/mlAMP     2
CC0001143250996H202100000555017400000555017427/10/20211056    31500120237421964250000V07A1300000502600000000000000                                                                                AGUA ESTERIL x 10 mlAMP     4
