CC0000072133553U202100000555035600000555035627/10/20212105     3300004239421964320000A6AC0200001467010000000000000                                                             LACTULAX JARABE 66.7G/100ML SOX15ML /R/SOB     1
CC0000072133553U202100000555035600000555035627/10/20212103     3300004239421964320000A6AC0200001467010000000000000                                                             LACTULAX JARABE 66.7G/100ML SOX15ML /R/SOB     1
CC0000072133553U202100000555035600000555035627/10/20211559    31902327239421964320000E1AB0200000199290000000000000                                                            SOLUCION SALINA 0.9% SLN INY BO X 100 MLBIN     1
CC0000072133553U202100000555035600000555035627/10/20212103     3300004239421964320000J3CB2100000547740000000000000                                                                      CIPRO IV SLN INY 400 Mg/200 MLFCO     1
CC0000072133553U202100000555035600000555035627/10/20212106     3300004239421964320000B01AB200000513350000000000000                                                                        CLENOX SLN INY 40 MG/ 0.4 MLJRP     1
CC0000072133553U202100000555035600000555035627/10/20212105     3300004239421964320000J01F0200001689390000000000000                                                                        CLINDAMICINA INY 600 MG/4 MLAMP     2
CC0000072133553U202100000555035600000555035627/10/20211535     3300004239421964320000N02BB100000777810000000000000                                                               DIPIRONA MAGNESICA SLN INY 2.5 G/5 MLAMP     1
