RC0001158467183H202100015052698700015052698727/10/20211557    3190296323742196425000038568200000257000000000000000                                                                                   SONDA NELATON #06SIN     1
RC0001158467183H202100015052698700015052698727/10/20211557    3190296323742196425000043485100001618510000000000000                GUANTE QUIRURGICO DE LATEX REF 2D72N65X CAJ X 50 PROTEXIS  6.5 BN EXENTO-DC.417/2020SOB     4
RC0001158467183H202100015052698700015052698727/10/20211557    3190296323742196425000013077800000471960000000000000                                                             GASA NO TEJIDA EST 7.5 X 7.5 SOB X 3 UNSOB     8
