RC0001043186124U202100050131388900050131388927/10/20211042    3150018823942196432000001956000001620610000000000000                                                                      CONECTOR MICRO CLAVE LAT-MC100SOB     1
RC0001043186124U202100050131388900050131388927/10/20211042    31500188239421964320000Q1AA7400003911720000000000000                                                            CATETER PERIFE INTROCAN # 24G 4251601-04SOB     1
RC0001043186124U202100050131388900050131388927/10/20211042    3150018823942196432000000602600001259280000000000000                                                             APOSITO TEGADERM IV PD 1610 5CM X 5.7CMSOB     1
