CC0001045686959H202100000555011700000555011727/10/20210848     3300009237421964250000B1AB1200003939350000000000000                 ENOXAPARINA SODICA 80MG/0.8ML(100MG/ML) SOL INY INST CAJ X 2JERPREL X 0.8ML TECHDOWJRP     1
CC0001045686959H202100000555011700000555011727/10/20211125    31500268237421964250000E1AB0200000199290000000000000                                                            SOLUCION SALINA 0.9% SLN INY BO X 100 MLBIN     3
CC0001045686959H202100000555011700000555011727/10/20211125    31500268237421964250000E1AB0300003888390000000000000                                                            SOLUCION SALINA 0.9% SLN INY BO X 500 MLBOL     2
CC0001045686959H202100000555011700000555011727/10/20210848     3300009237421964250000V6DF2000001629900000000000000                                                                     ENSURE PLUS HN LIQUIDO X 237 MLFCO     1
CC0001045686959H202100000555011700000555011727/10/20211731     3300009237421964250000L03AA100001067620000000000000                                                             ZARZIO SLN INY 30.000.000 UI/0.5 ML /R/JRP     1
CC0001045686959H202100000555011700000555011727/10/20210848     3300009237421964250000L03AA100001067620000000000000                                                             ZARZIO SLN INY 30.000.000 UI/0.5 ML /R/JRP     1
CC0001045686959H202100000555011700000555011727/10/20211731     3300009237421964250000J01D1200001239960000000000000                                                                              CEFEPIME POLVO INY 1 GVAL     2
CC0001045686959H202100000555011700000555011727/10/20210848     3300009237421964250000J01D1200001239960000000000000                                                                              CEFEPIME POLVO INY 1 GVAL     4
CC0001045686959H202100000555011700000555011727/10/20210341     3300009237421964250000J01D1200001239960000000000000                                                                              CEFEPIME POLVO INY 1 GVAL     2
CC0001045686959H202100000555011700000555011727/10/20211731     3300009237421964250000J05AB000001277780000000000000                                                                                ACICLOVIR TAB 200 MGTAB     1
CC0001045686959H202100000555011700000555011727/10/20210341     3300009237421964250000J05AB000001277780000000000000                                                                                ACICLOVIR TAB 200 MGTAB     2
CC0001045686959H202100000555011700000555011727/10/20210848     3300009237421964250000N2BE2200001252930000000000000                                                                             ACETAMINOFEN Tab 500 MGTAB     2
CC0001045686959H202100000555011700000555011727/10/20210848     3300009237421964250000A02BC700001684270000000000000                                                            OMEPRAZOL 40MG POLVO LIOFILIZADO AMPOLLAVAL     1
CC0001045686959H202100000555011700000555011727/10/20211851    31903313237421964250000V07A1300000502600000000000000                                                                                AGUA ESTERIL x 10 mlAMP     5
