CC0001042970504H202100000555020900000555020927/10/20211827    31900998237421964250000E1AB0200000199290000000000000                                                            SOLUCION SALINA 0.9% SLN INY BO X 100 MLBIN     5
CC0001042970504H202100000555020900000555020927/10/20211827    31900998237421964250000E1AD0300000199490000000000000                                         LACTATO RINGER USP (HARTMANN)  SOL INY  BOL X 1000ML BAXTERBIN     1
CC0001042970504H202100000555020900000555020927/10/20211635     3300009237421964250000A12BA100000552980000000000000                                                            CLORURO POTASIO Sln Iny AMP 20 MEQ/10 MLAMP     1
CC0001042970504H202100000555020900000555020927/10/20211714     3300009237421964250000V6DF5300000302770000000000000                                                                        ENSURE PLUS HN LCP X 1000 MLFCO     1
CC0001042970504H202100000555020900000555020927/10/20211355     3300009237421964250000N1AH0200003906560000000000000                                                                     FENTANIL Iny 0.05 mg/ml x 10 mlAMP    10
CC0001042970504H202100000555020900000555020927/10/20211635     3300009237421964250000J01CR200000947130000000000000                                                              AMPICILINA /SULBACTAN POLVO LIOF 1.5 GAMP     1
CC0001042970504H202100000555020900000555020927/10/20210914     3300010237421964250000J01CR200000947130000000000000                                                              AMPICILINA /SULBACTAN POLVO LIOF 1.5 GAMP     3
CC0001042970504H202100000555020900000555020927/10/20211635     3300009237421964250000N2BB0100000787510000000000000                                                                    DIPIRONA SODICA Sln Iny 1 g/2 mlAMP     2
CC0001042970504H202100000555020900000555020927/10/20210914     3300010237421964250000N2BB0100000787510000000000000                                                                    DIPIRONA SODICA Sln Iny 1 g/2 mlAMP     3
CC0001042970504H202100000555020900000555020927/10/20211636     3300009237421964250000N03AB200001168090000000000000                                                                       FENITOINA Sln Iny 250 mg/5 mlAMP     1
CC0001042970504H202100000555020900000555020927/10/20210914     3300010237421964250000N03AB200001168090000000000000                                                                       FENITOINA Sln Iny 250 mg/5 mlAMP     2
CC0001042970504H202100000555020900000555020927/10/20210914     3300010237421964250000A02BC700001684270000000000000                                                            OMEPRAZOL 40MG POLVO LIOFILIZADO AMPOLLAVAL     1
CC0001042970504H202100000555020900000555020927/10/20211827    31900998237421964250000V07A1300000502600000000000000                                                                                AGUA ESTERIL x 10 mlAMP    10
