CC0000032734764H202100015022522400015022522427/10/20211032    3190148423742196425000024674000000220660000000000000                             JERINGA A 3 PARTES CON AGUJA  SOB X 1 RYMCO  10ML BN EXENTO-DC.417/2020SIN     3
CC0000032734764H202100015022522400015022522427/10/20211032    3190148423742196425000043485100001618510000000000000                GUANTE QUIRURGICO DE LATEX REF 2D72N65X CAJ X 50 PROTEXIS  6.5 BN EXENTO-DC.417/2020SOB     3
CC0000032734764H202100015022522400015022522427/10/20211032    3190148423742196425000011082700001620070000000000000                                                               EQUIPO SET PRIMARIO C/CLAVE REF 14001BOL     1
CC0000032734764H202100015022522400015022522427/10/20211032    3190148423742196425000042743400003929880000000000000                                    CINTA ADHESIVA TRANSPARENT REF 72216-01 ROL X 10MT FIXOMULL 10CMCMT    50
CC0000032734764H202100015022522400015022522427/10/20211032    3190148423742196425000030936900001431840000000000000                                                                                              BURETABOL     1
CC0000032734764H202100015022522400015022522427/10/20211032    31901484237421964250000Q1A12700000659410000000000000                                                              AGUJA IMPLANT SURECAN 20*20MM 04448340SOB     1
CC0000032734764H202100015022522400015022522427/10/20211032    3190148423742196425000011133300001066480000000000000                                                            APOSITO TENDERSORB REF 9190A KENDALL 22.SOB     1
