CC0001002182810H202100015112647900015112647927/10/20210917    3190145023742196425000045136100001419300000000000000                                                                            LANCETA DEXTROMETER X UNPZA     3
CC0001045684571H202100015112647900015112647927/10/20210917    3190145023742196425000045136100001419300000000000000                                                                            LANCETA DEXTROMETER X UNPZA     3
CC0000077185534H202100015112647900015112647927/10/20210917    3190145023742196425000045136100001419300000000000000                                                                            LANCETA DEXTROMETER X UNPZA     3
CC0001002182810H202100015112647900015112647927/10/20210917    3190145023742196425000024674000000220660000000000000                             JERINGA A 3 PARTES CON AGUJA  SOB X 1 RYMCO  10ML BN EXENTO-DC.417/2020SIN    10
CC0001045684571H202100015112647900015112647927/10/20210917    3190145023742196425000024674000000220660000000000000                             JERINGA A 3 PARTES CON AGUJA  SOB X 1 RYMCO  10ML BN EXENTO-DC.417/2020SIN    20
CC0000077185534H202100015112647900015112647927/10/20210917    3190145023742196425000024674000000220660000000000000                             JERINGA A 3 PARTES CON AGUJA  SOB X 1 RYMCO  10ML BN EXENTO-DC.417/2020SIN    15
CC0001045684571H202100015112647900015112647927/10/20210917    31901450237421964250000Q1A13500001585200000000000000                        JERINGA PUNTA CAT SIN AGUJA REF 309620 CAJ X 40   50ML BN EXENTO-DC.417/2020SOB     1
CC0000077185534H202100015112647900015112647927/10/20210917    3190145023742196425000001956000001620610000000000000                                                                      CONECTOR MICRO CLAVE LAT-MC100SOB     1
CC0000077185534H202100015112647900015112647927/10/20210917    31901450237421964250000Q1AA7200000610630000000000000                                                            CATETER PERIFE INTROCAN # 20G 4251644-04SIN     2
CC0000077185534H202100015112647900015112647927/10/20210917    31901450237421964250000Q1AA7300000610640000000000000                                                            CATETER PERIFE INTROCAN # 22G 4251628-04SIN     1
CC0001045684571H202100015112647900015112647927/10/20210917    3190145023742196425000021221000000226640000000000000                                                                                 CARTUCHO ACT 402-03PZA    10
CC0000077185534H202100015112647900015112647927/10/20210917    3190145023742196425000021221000000226640000000000000                                                                                 CARTUCHO ACT 402-03PZA    10
CC0001002182810H202100015112647900015112647927/10/20210917    3190145023742196425000011137100001419310000000000000                                                               TIRA GLUCOMETRIA FREESTYLE H OPTIUM .PZA     3
CC0001045684571H202100015112647900015112647927/10/20210917    3190145023742196425000011137100001419310000000000000                                                               TIRA GLUCOMETRIA FREESTYLE H OPTIUM .PZA     3
CC0000077185534H202100015112647900015112647927/10/20210917    3190145023742196425000011137100001419310000000000000                                                               TIRA GLUCOMETRIA FREESTYLE H OPTIUM .PZA     3
