CC0000005029363H202100015032578700015032578727/10/20212130    3150006523742196425000022426800001140510000000000000                                                                    EQUIPO MACROGOTEO BAXTER MRC0001SOB     1
CC0000005029363H202100015032578700015032578727/10/20212130    3150006523742196425000011082700001620070000000000000                                                               EQUIPO SET PRIMARIO C/CLAVE REF 14001BOL     1
CC0000005029363H202100015032578700015032578727/10/20212130    31500065237421964250000E1AB0300003888390000000000000                                                            SOLUCION SALINA 0.9% SLN INY BO X 500 MLBOL     1
