CC0000008671218H202100000555040900000555040927/10/20211851     3300009237421964250000A2BC0900000200150000000000000                                                                               ORAZOLE Sln Iny 40 mgCIN     1
CC0000008671218H202100000555040900000555040927/10/20211851     3300009237421964250000J01DA300001239950000000000000                                                            CEFAZOLINA SODICA POLVO LIOF SLN INY 1 GVAL     2
CC0000008671218H202100000555040900000555040927/10/20211851     3300009237421964250000M1AE2500000191550000000000000                                                            PROFENID POLVO LIOF SLN INY 100MG/2ML/R/AMP     2
CC0000008671218H202100000555040900000555040927/10/20211851     3300009237421964250000N2AX0500001204110000000000000                                                                          TRAMAL SLN INY 100 MG / MLAMP     2
CC0000008671218H202100000555040900000555040927/10/20211851     3300009237421964250000N02B1100001169680000000000000                              PARACETAMOL 1000MG/100ML(10MG/ML) SOL INY  VIAL X 100ML FRESENIUS KABIVAL     2
