RC0001048091952H202100015132502700015132502727/10/20211839    3190305023742196425000063153700001294640000000000000                                                            CIRCUITO TERAPIA ALTO FLUJO PEDIAT RT330PZA     1
RC0001048091952H202100015132502700015132502727/10/20211839    3190305023742196425000000054700001287660000000000000                                                               OTIFLOW CANULA NASAL NEONATAL OPT 314PZA     1
RC0001048091952H202100015132502700015132502727/10/20211839    31903050237421964250000E1BA0100000198890000000000000                                                                   AGUA ESTERIL USP SLN INY X 500 MLBIN     2
