CC0000040786622H202100000555018300000555018327/10/20210812     3300009237421964250000A2BX0100001277280000000000000                                                                                ALSUCRAL TAB 1 G /R/TAB     2
CC0000040786622H202100000555018300000555018327/10/20210812     3300009237421964250000B1AB0200003939510000000000000                 ENOXAPARINA SODICA 40MG/0.4ML(100MG/ML) SOL INY INST CAJ X 2JERPREL X 0.4ML TECHDOWJRP     1
CC0000040786622H202100000555018300000555018327/10/20210813     3300009237421964250000A12BA100000552980000000000000                                                            CLORURO POTASIO Sln Iny AMP 20 MEQ/10 MLAMP     2
CC0000040786622H202100000555018300000555018327/10/20210812     3300009237421964250000L01XX500001336660000000000000                                                                              HYDROXYUREA CAP 500 MGCAP     1
CC0000040786622H202100000555018300000555018327/10/20210812     3300009237421964250000V6DF2000001629900000000000000                                                                     ENSURE PLUS HN LIQUIDO X 237 MLFCO     1
CC0000040786622H202100000555018300000555018327/10/20210808     3300009237421964250000B01AC200001333600000000000000                                                                               CLOPIDOGREL TAB 75 MGTAB     1
CC0000040786622H202100000555018300000555018327/10/20210812     3300009237421964250000C3CA0700001334510000000000000                                                                                FUROSEMIDA TAB 40 MGTAB     1
CC0000040786622H202100000555018300000555018327/10/20210812     3300009237421964250000C07A1400001333340000000000000                                                                          CARVEDILOL TAB 12.5 MG /R/TAB     1
CC0000040786622H202100000555018300000555018327/10/20210808     3300009237421964250000C09AA400001391450000000000000                                                                                 ENALAPRIL TAB 20 MGTAB     2
CC0000040786622H202100000555018300000555018327/10/20210808     3300009237421964250000C10AA500001314010000000000000                                                                             ATORVASTATINA TAB 40 MGTAB     1
CC0000040786622H202100000555018300000555018327/10/20210812     3300009237421964250000N2BE2200001252930000000000000                                                                             ACETAMINOFEN Tab 500 MGTAB     4
CC0000040786622H202100000555018300000555018327/10/20210808     3300009237421964250000N02BA100001276940000000000000                                                                  ACIDO ACETIL SALIC?LICO TAB 100 MGTAB     1
CC0000040786622H202100000555018300000555018327/10/20210812     3300009237421964250000N05A1700001278300000000000000                                                                            QUETIAPINA TAB 25 MG /R/TAB     1
CC0000040786622H202100000555018300000555018327/10/20211403    31903301237421964250000V07A1300000502600000000000000                                                                                AGUA ESTERIL x 10 mlAMP     4
