PA0000673754387H202100000555027000000555027027/10/20211206    31903310237421964250000A2BC0900000200150000000000000                                                                               ORAZOLE Sln Iny 40 mgCIN     1
PA0000673754387H202100000555027000000555027027/10/20211206    31903310237421964250000J01DA300001239950000000000000                                                            CEFAZOLINA SODICA POLVO LIOF SLN INY 1 GVAL     4
PA0000673754387H202100000555027000000555027027/10/20211206    31903310237421964250000M01A0400001341250000000000000                                                                              DYNASTAT AMP 40 MG /R/VAL     2
PA0000673754387H202100000555027000000555027027/10/20211206    31903310237421964250000N2BB1100000217160000000000000                                                                      NOVALGINA Sln Iny 2.5 g x 5 mlAMP     2
PA0000673754387H202100000555027000000555027027/10/20211206    31903310237421964250000N02B1100001169680000000000000                              PARACETAMOL 1000MG/100ML(10MG/ML) SOL INY  VIAL X 100ML FRESENIUS KABIVAL     3
