RC0001048089059U202100000555023200000555023227/10/20211404    31900930239421964320000E1AC0100000199400000000000000                                                                          SUERO MIXTO Sln Iny 500 mlBIN     1
RC0001048089059U202100000555023200000555023227/10/20211540    31500514239421964320000E1AB0200000199290000000000000                                                            SOLUCION SALINA 0.9% SLN INY BO X 100 MLBIN     1
RC0001048089059U202100000555023200000555023227/10/20211422     3300004239421964320000A12BA100000552980000000000000                                                            CLORURO POTASIO Sln Iny AMP 20 MEQ/10 MLAMP     1
RC0001048089059U202100000555023200000555023227/10/20211435     3300004239421964320000J1CB0600000468340000000000000                                                           UNASYN IM-IV (1+0.5)GR POLV INY INST VIALVAL     1
RC0001048089059U202100000555023200000555023227/10/20211022     3300004239421964320000N02B1100001169680000000000000                              PARACETAMOL 1000MG/100ML(10MG/ML) SOL INY  VIAL X 100ML FRESENIUS KABIVAL     1
RC0001048089059U202100000555023200000555023227/10/20211422     3300004239421964320000R03BA800001396350000000000000                                                             BECLOMETASONA DIPROP INH ORAL 50 MCG/DOFCO     1
