CC0000032842949H202100015112649500015112649527/10/20212103    3190265123742196425000001956000001620610000000000000                                                                      CONECTOR MICRO CLAVE LAT-MC100SOB     1
CC0000032842949H202100015112649500015112649527/10/20212103    31902651237421964250000Q1AA7200000610630000000000000                                                            CATETER PERIFE INTROCAN # 20G 4251644-04SIN     1
CC0000022328269H202100015112649500015112649527/10/20212103    3190265123742196425000000602700001197200000000000000                                                              APOSITO TRANSP  1655 IV 8.5CM X 11.5CMSOB     1
CC0001042970504H202100015112649500015112649527/10/20212103    3190265123742196425000000602700001197200000000000000                                                              APOSITO TRANSP  1655 IV 8.5CM X 11.5CMSOB     1
CC0000032678618H202100015112649500015112649527/10/20212103    3190265123742196425000000602700001197200000000000000                                                              APOSITO TRANSP  1655 IV 8.5CM X 11.5CMSOB     1
CC0000032842949H202100015112649500015112649527/10/20212103    3190265123742196425000016830000000970620000000000000                                                             SIST FIJACION CAT PERIFERICO 6.5X7 1683SOB     1
