CC0000064555972H202100000555006900000555006927/10/20210628    31902949237421964250000E1AB0300003888390000000000000                                                            SOLUCION SALINA 0.9% SLN INY BO X 500 MLBOL     1
CC0000064555972H202100000555006900000555006927/10/20210557     3300010237421964250000J01FF200003888100000000000000                                                                             EUROCLIN SLN INY 600 MGAMP     2
CC0000064555972H202100000555006900000555006927/10/20210557     3300010237421964250000N2BB1100000217160000000000000                                                                      NOVALGINA Sln Iny 2.5 g x 5 mlAMP     3
CC0000064555972H202100000555006900000555006927/10/20210558     3300010237421964250000N02B1100001169680000000000000                              PARACETAMOL 1000MG/100ML(10MG/ML) SOL INY  VIAL X 100ML FRESENIUS KABIVAL     3
CC0000064555972H202100000555006900000555006927/10/20210557     3300010237421964250000M1AX0200001569410000000000000                                                                         KETRON SLN INY 30 MG / 2 MLAMP     2
CC0000064555972H202100000555006900000555006927/10/20211125     3300010237421964250000N02A3100001227160000000000000                                                                    OXYRAPID SLN INY 10 MG/ML X 1 MLAMP     2
