CC0000072270118U202100050131399400050131399427/10/20212251    3150036223942196432000049428400000738560000000000000                                                                       VENDA ELASTICA 5*5 NO ESTERILSOB     3
CC0000072270118U202100050131399400050131399427/10/20212251    3150036223942196432000019429800000455490000000000000                                                                                      VENDA YESO 5*5BIN     3
CC0000072270118U202100050131399400050131399427/10/20212251    3150036223942196432000049419700001679920000000000000                                                                        VENDA ALGODON 5*5 NO ESTERILSOB     3
RC0001201286345U202100050131399400050131399427/10/20212251    3150036223942196432000024674000000220660000000000000                             JERINGA A 3 PARTES CON AGUJA  SOB X 1 RYMCO  10ML BN EXENTO-DC.417/2020SIN     1
CC0000037805304U202100050131399400050131399427/10/20212251    3150036223942196432000024674000000220660000000000000                             JERINGA A 3 PARTES CON AGUJA  SOB X 1 RYMCO  10ML BN EXENTO-DC.417/2020SIN     2
RC0001201286345U202100050131399400050131399427/10/20212251    3150036223942196432000011085100001082120000000000000                                                                           GUANTE QUIRURGICO TALLA 7SOB     2
RC0001201286345U202100050131399400050131399427/10/20212251    3150036223942196432000013077800000471960000000000000                                                             GASA NO TEJIDA EST 7.5 X 7.5 SOB X 3 UNSOB     3
RC0001201286345U202100050131399400050131399427/10/20212251    3150036223942196432000042743200003929860000000000000                   GASA ADHESIVA STRETCH REF 02038-00 ROL X 10MT FIXOMULL 15CM BN EXENTO-DC.417/2020CMT    15
RC0001201286345U202100050131399400050131399427/10/20212251    31500362239421964320000Q1AA5900000236800000000000000                                                                            CISTOFLO PEDIAT X 500 mlSIN     1
RC0001201286345U202100050131399400050131399427/10/20212251    3150036223942196432000001956000001620610000000000000                                                                      CONECTOR MICRO CLAVE LAT-MC100SOB     1
RC0001201286345U202100050131399400050131399427/10/20212251    31500362239421964320000Q1AA7400003911720000000000000                                                            CATETER PERIFE INTROCAN # 24G 4251601-04SOB     1
CC0000037805304U202100050131399400050131399427/10/20212251    31500362239421964320000E1AB0300003888390000000000000                                                            SOLUCION SALINA 0.9% SLN INY BO X 500 MLBOL     2
RC0001201286345U202100050131399400050131399427/10/20212251    31500362239421964320000E1AB0200000199290000000000000                                                            SOLUCION SALINA 0.9% SLN INY BO X 100 MLBIN     1
