CC0000008633435H202100000555008000000555008027/10/20210509     3300010237421964250000A2BC0900000200150000000000000                                                                               ORAZOLE Sln Iny 40 mgCIN     1
CC0000008633435H202100000555008000000555008027/10/20212255     3300009237421964250000A3BB0200000512940000000000000                                                                          BUSCAPINA SIMPLE Iny 20 mgAMP     1
CC0000008633435H202100000555008000000555008027/10/20210501     3300010237421964250000A3BB0200000512940000000000000                                                                          BUSCAPINA SIMPLE Iny 20 mgAMP     4
CC0000008633435H202100000555008000000555008027/10/20211523     3300009237421964250000A03A0800001177800000000000000                                                                      COLYPAN SLN INY 50 MG/5 ML /R/AMP     4
CC0000008633435H202100000555008000000555008027/10/20211523     3300009237421964250000A07F0300000547060000000000000                                                              ENTEROGERMINA SUSP ORAL AMP X 5 ML /R/VAL     1
CC0000008633435H202100000555008000000555008027/10/20210501     3300010237421964250000A07F0300000547060000000000000                                                              ENTEROGERMINA SUSP ORAL AMP X 5 ML /R/VAL     3
CC0000008633435H202100000555008000000555008027/10/20212121    31500566237421964250000E1AB0500003888400000000000000                                                              SOLUCION SALINA 0.9% SLN INY X 1000 MLBOL     1
CC0000008633435H202100000555008000000555008027/10/20211822     3300009237421964250000D7XA0600000219650000000000000                                                                                 XYLOPROCTO Ung 20 gTUB     1
CC0000008633435H202100000555008000000555008027/10/20212255     3300009237421964250000J1DA3100000187510000000000000                                                                           ROCEFIN Polvo SLN INY 1 GCIN     1
CC0000008633435H202100000555008000000555008027/10/20210508     3300010237421964250000J1DA3100000187510000000000000                                                                           ROCEFIN Polvo SLN INY 1 GCIN     1
CC0000008633435H202100000555008000000555008027/10/20210115     3300010237421964250000J1DA3100000187510000000000000                                                                           ROCEFIN Polvo SLN INY 1 GCIN     1
CC0000008633435H202100000555008000000555008027/10/20211523     3300009237421964250000N02B1100001169680000000000000                              PARACETAMOL 1000MG/100ML(10MG/ML) SOL INY  VIAL X 100ML FRESENIUS KABIVAL     1
CC0000008633435H202100000555008000000555008027/10/20210508     3300010237421964250000N02B1100001169680000000000000                              PARACETAMOL 1000MG/100ML(10MG/ML) SOL INY  VIAL X 100ML FRESENIUS KABIVAL     2
CC0000008633435H202100000555008000000555008027/10/20211302     3300009237421964250000N2AA0400003888080000000000000                                                                     DEMEROL HCL Sln Iny 100 mg/2 mlAMP     1
CC0000008633435H202100000555008000000555008027/10/20211130    31903291237421964250000V07A1300000502600000000000000                                                                                AGUA ESTERIL x 10 mlAMP     5
