CC0001001818499U202100050131386900050131386927/10/20210541    3150019423942196432000024673600000222980000000000000                                                                     JERINGA DESECHABLE 5 ml 27*11/2SIN     2
CC0001001818499U202100050131386900050131386927/10/20210541    3150019423942196432000011082700001620070000000000000                                                               EQUIPO SET PRIMARIO C/CLAVE REF 14001BOL     1
CC0001001818499U202100050131386900050131386927/10/20210541    31500194239421964320000Q1AA7100000610620000000000000                                                            CATETER PERIFE INTROCAN # 18G 4251687-04SIN     1
CC0001001818499U202100050131386900050131386927/10/20210541    3150019423942196432000030936900001431840000000000000                                                                                              BURETABOL     1
CC0001001818499U202100050131386900050131386927/10/20210541    3150019423942196432000016830000000970620000000000000                                                             SIST FIJACION CAT PERIFERICO 6.5X7 1683SOB     1
