CC0001002067121U202100050131396000050131396027/10/20211921    3150026323942196432000001956000001620610000000000000                                                                      CONECTOR MICRO CLAVE LAT-MC100SOB     1
CC0001002067121U202100050131396000050131396027/10/20211921    31500263239421964320000Q1AA7100000610620000000000000                                                            CATETER PERIFE INTROCAN # 18G 4251687-04SIN     1
CC0001002067121U202100050131396000050131396027/10/20211921    3150026323942196432000016830000000970620000000000000                                                             SIST FIJACION CAT PERIFERICO 6.5X7 1683SOB     1
