RC0001043317236H202100000555007000000555007027/10/20211348     3300009237421964250000A12AA300001416100000000000000                                                             CALCIO CARBONATO+ VIT D3 + ZINC SUSP/V/FCO     1
RC0001043317236H202100000555007000000555007027/10/20211348     3300009237421964250000A6AG0100001107060000000000000                                                            ENEMA RECTAL FOSTATO SODIO BO X 133ML /RBOL     1
RC0001043317236H202100000555007000000555007027/10/20210229     3300009237421964250000A6AG0100001107060000000000000                                                            ENEMA RECTAL FOSTATO SODIO BO X 133ML /RBOL     1
RC0001043317236H202100000555007000000555007027/10/20211132    31903271237421964250000E1AD0300000199490000000000000                                         LACTATO RINGER USP (HARTMANN)  SOL INY  BOL X 1000ML BAXTERBIN     2
RC0001043317236H202100000555007000000555007027/10/20210103    31902949237421964250000E1AD0300000199490000000000000                                         LACTATO RINGER USP (HARTMANN)  SOL INY  BOL X 1000ML BAXTERBIN     2
RC0001043317236H202100000555007000000555007027/10/20211348     3300009237421964250000P02C0600000792350000000000000                                                                    ALBENDAZOL SUSP 20 MG/ML X 20 MLSOB     1
