RC0001043198450H202100015132502500015132502527/10/20211517    3190205623742196425000024675000001585130000000000000                                                                    JERINGA DESECHABLE 50 ml S/AGUJASOB     6
RC0001048091909H202100015132502500015132502527/10/20211517    3190205623742196425000024675000001585130000000000000                                                                    JERINGA DESECHABLE 50 ml S/AGUJASOB     6
RC0001048091952H202100015132502500015132502527/10/20211517    3190205623742196425000024675000001585130000000000000                                                                    JERINGA DESECHABLE 50 ml S/AGUJASOB     6
RC0001043198450H202100015132502500015132502527/10/20211517    3190205623742196425000024674500000322810000000000000                                                                   JERINGA DESECHABLE 20 ml 21*1 1/2SIN     6
RC0001048091909H202100015132502500015132502527/10/20211517    3190205623742196425000024674500000322810000000000000                                                                   JERINGA DESECHABLE 20 ml 21*1 1/2SIN     6
RC0001048091952H202100015132502500015132502527/10/20211517    3190205623742196425000024674500000322810000000000000                                                                   JERINGA DESECHABLE 20 ml 21*1 1/2SIN     6
RC0001043198450H202100015132502500015132502527/10/20211517    3190205623742196425000024674000000220660000000000000                             JERINGA A 3 PARTES CON AGUJA  SOB X 1 RYMCO  10ML BN EXENTO-DC.417/2020SIN     6
RC0001048091909H202100015132502500015132502527/10/20211517    3190205623742196425000024674000000220660000000000000                             JERINGA A 3 PARTES CON AGUJA  SOB X 1 RYMCO  10ML BN EXENTO-DC.417/2020SIN     6
RC0001048091952H202100015132502500015132502527/10/20211517    3190205623742196425000024674000000220660000000000000                             JERINGA A 3 PARTES CON AGUJA  SOB X 1 RYMCO  10ML BN EXENTO-DC.417/2020SIN     6
RC0001043198450H202100015132502500015132502527/10/20211517    3190205623742196425000011085400001083360000000000000                                                                       GUANTE QUIRURGICO TALLA 8 1/2SOB     4
RC0001048091909H202100015132502500015132502527/10/20211517    3190205623742196425000011085400001083360000000000000                                                                       GUANTE QUIRURGICO TALLA 8 1/2SOB     4
RC0001048091952H202100015132502500015132502527/10/20211517    3190205623742196425000011085400001083360000000000000                                                                       GUANTE QUIRURGICO TALLA 8 1/2SOB     4
RC0001043198450H202100015132502500015132502527/10/20211517    3190205623742196425000013077800000471960000000000000                                                             GASA NO TEJIDA EST 7.5 X 7.5 SOB X 3 UNSOB     8
RC0001048091909H202100015132502500015132502527/10/20211517    3190205623742196425000013077800000471960000000000000                                                             GASA NO TEJIDA EST 7.5 X 7.5 SOB X 3 UNSOB     8
RC0001048091952H202100015132502500015132502527/10/20211517    3190205623742196425000013077800000471960000000000000                                                             GASA NO TEJIDA EST 7.5 X 7.5 SOB X 3 UNSOB     8
RC0001043198450H202100015132502500015132502527/10/20211517    3190205623742196425000011082900001233450000000000000                                                               EQUIPO LC 5000 PRIMARIO FOTOPRO 0L218SOB     6
RC0001048091909H202100015132502500015132502527/10/20211517    3190205623742196425000011082900001233450000000000000                                                               EQUIPO LC 5000 PRIMARIO FOTOPRO 0L218SOB     6
RC0001048091952H202100015132502500015132502527/10/20211517    3190205623742196425000011082900001233450000000000000                                                               EQUIPO LC 5000 PRIMARIO FOTOPRO 0L218SOB     6
RC0001048091909H202100015132502500015132502527/10/20211517    31902056237421964250000Q1AA7600000543420000000000000                                                             BOLSA VACIA EVA R HRB8102P BAXTER 150MLBIN     6
RC0001048091952H202100015132502500015132502527/10/20211517    31902056237421964250000Q1AA7600000543420000000000000                                                             BOLSA VACIA EVA R HRB8102P BAXTER 150MLBIN     8
RC0001043198450H202100015132502500015132502527/10/20211517    31902056237421964250000Q1BB0400001389080000000000000                                                             BOLSA EVA NPT PINNACLE X 250 ML 2112346BOL     2
RC0001048091952H202100015132502500015132502527/10/20211517    31902056237421964250000Q1BB0400001389080000000000000                                                             BOLSA EVA NPT PINNACLE X 250 ML 2112346BOL     2
RC0001043198450H202100015132502500015132502527/10/20211517    3190205623742196425000000100600000223090000000000000                                                                      AGUJA DESECHABLE 18G X 1 1/2 PSIN     8
RC0001048091909H202100015132502500015132502527/10/20211517    3190205623742196425000000100600000223090000000000000                                                                      AGUJA DESECHABLE 18G X 1 1/2 PSIN     8
RC0001048091952H202100015132502500015132502527/10/20211517    3190205623742196425000000100600000223090000000000000                                                                      AGUJA DESECHABLE 18G X 1 1/2 PSIN     8
