CE0000000373941U202100000555013600000555013627/10/20210621     3300004239421964320000B1AB1200003939350000000000000                 ENOXAPARINA SODICA 80MG/0.8ML(100MG/ML) SOL INY INST CAJ X 2JERPREL X 0.8ML TECHDOWJRP     1
CE0000000373941U202100000555013600000555013627/10/20210535    31500194239421964320000E1AB0300003888390000000000000                                                            SOLUCION SALINA 0.9% SLN INY BO X 500 MLBOL     1
CE0000000373941U202100000555013600000555013627/10/20210621     3300004239421964320000C03D0200001334290000000000000                                                                           ESPIRONOLACTONA TAB 25 MGTAB     1
CE0000000373941U202100000555013600000555013627/10/20212216     3300004239421964320000C03C0100001672000000000000000                                                                       FUROSEMIDA SLN INY 20 MG/2 MLAMP     1
CE0000000373941U202100000555013600000555013627/10/20211454     3300004239421964320000C03C0100001672000000000000000                                                                       FUROSEMIDA SLN INY 20 MG/2 MLAMP     1
CE0000000373941U202100000555013600000555013627/10/20211439     3300004239421964320000C03C0100001672000000000000000                                                                       FUROSEMIDA SLN INY 20 MG/2 MLAMP     1
CE0000000373941U202100000555013600000555013627/10/20210621     3300004239421964320000C03C0100001672000000000000000                                                                       FUROSEMIDA SLN INY 20 MG/2 MLAMP     1
CE0000000373941U202100000555013600000555013627/10/20210620     3300004239421964320000C09AA300001353220000000000000                                                                                   ENALAPRIL TAB 5MGTAB     1
CE0000000373941U202100000555013600000555013627/10/20210621     3300004239421964320000C10AA500001314010000000000000                                                                             ATORVASTATINA TAB 40 MGTAB     1
CE0000000373941U202100000555013600000555013627/10/20210620     3300004239421964320000N02BA100001276940000000000000                                                                  ACIDO ACETIL SALIC?LICO TAB 100 MGTAB     1
