CC0000009084021H202100000555005500000555005527/10/20210321     3300009237421964250000A02B0500001335110000000000000                                                                                LOSEC MUPS Tab 20 mgTAB     2
CC0000009084021H202100000555005500000555005527/10/20210321     3300009237421964250000B1AB0200003939510000000000000                 ENOXAPARINA SODICA 40MG/0.4ML(100MG/ML) SOL INY INST CAJ X 2JERPREL X 0.4ML TECHDOWJRP     2
CC0000009084021H202100000555005500000555005527/10/20212131    31500566237421964250000E1AB0300003888390000000000000                                                            SOLUCION SALINA 0.9% SLN INY BO X 500 MLBOL     1
CC0000009084021H202100000555005500000555005527/10/20210024    31500460237421964250000E1AB0300003888390000000000000                                                            SOLUCION SALINA 0.9% SLN INY BO X 500 MLBOL     1
CC0000009084021H202100000555005500000555005527/10/20210321     3300009237421964250000B4AD0500001335010000000000000                                                                                   LIPITOR TAB 10 MGTAB     1
CC0000009084021H202100000555005500000555005527/10/20210321     3300009237421964250000H03A0400001278890000000000000                                                                                  EUTIROX TAB 50 MCGTAB     2
CC0000009084021H202100000555005500000555005527/10/20211134    31903291237421964250000V07A1300000502600000000000000                                                                                AGUA ESTERIL x 10 mlAMP     5
