CC0001129508481H202100015052699100015052699127/10/20212000    3150051923742196425000011082700001620070000000000000                                                               EQUIPO SET PRIMARIO C/CLAVE REF 14001BOL     1
CC0000032700438H202100015052699100015052699127/10/20212000    3150051923742196425000011082700001620070000000000000                                                               EQUIPO SET PRIMARIO C/CLAVE REF 14001BOL     1
CC0001129508481H202100015052699100015052699127/10/20212000    3150051923742196425000030936900001431840000000000000                                                                                              BURETABOL     1
CC0000032700438H202100015052699100015052699127/10/20212000    3150051923742196425000030936900001431840000000000000                                                                                              BURETABOL     1
