CC0000008486413U202100050131398000050131398027/10/20212137    3190180623942196432000045136100001419300000000000000                                                                            LANCETA DEXTROMETER X UNPZA     2
CC0000008486413U202100050131398000050131398027/10/20212137    3190180623942196432000024674000000220660000000000000                             JERINGA A 3 PARTES CON AGUJA  SOB X 1 RYMCO  10ML BN EXENTO-DC.417/2020SIN     5
CC0000008486413U202100050131398000050131398027/10/20212137    31901806239421964320000E1AB0500003888400000000000000                                                              SOLUCION SALINA 0.9% SLN INY X 1000 MLBOL     1
CC0000008486413U202100050131398000050131398027/10/20212137    31901806239421964320000E1AB0200000199290000000000000                                                            SOLUCION SALINA 0.9% SLN INY BO X 100 MLBIN     2
CC0000008486413U202100050131398000050131398027/10/20212137    3190180623942196432000011137100001419310000000000000                                                               TIRA GLUCOMETRIA FREESTYLE H OPTIUM .PZA     2
