CC0001143120182H202100015052699700015052699727/10/20212258    3190330323742196425000001956000001620610000000000000                                                                      CONECTOR MICRO CLAVE LAT-MC100SOB     2
CC0001143120182H202100015052699700015052699727/10/20212258    31903303237421964250000Q1AA7200000610630000000000000                                                            CATETER PERIFE INTROCAN # 20G 4251644-04SIN     2
CC0001143120182H202100015052699700015052699727/10/20212258    3190330323742196425000016830000000970620000000000000                                                             SIST FIJACION CAT PERIFERICO 6.5X7 1683SOB     2
