CC0000032675307A202100000027629700000027629727/10/20210806    3190333624042196419000011158800000494990000000000000                                                            PAPILOTOMO ULTRATONE XL 3 LUMEN 30 / SHOSIN     1
CC0000032675307A202100000027629700000027629727/10/20210806    31903336240421964190000V4AF1000003850710000000000000                                                                    OMNIPAQUE Sln Iny 300 mg x 50 mlFCO     1
CC0000032675307A202100000027629700000027629727/10/20210806    31903336240421964190000E1AB0300003888390000000000000                                                            SOLUCION SALINA 0.9% SLN INY BO X 500 MLBOL     1
CC0000032675307A202100000027629700000027629727/10/20210806    3190333624042196419000022425200000548240000000000000                       EXTENSION DE ANESTESIA REF 1139 SOB X 1 SHERLEG  ADULTO BN EXENTO-DC.417/2020SIN     1
CC0000032675307A202100000027629700000027629727/10/20210806    3190333624042196419000035356500003919000000000000000                                                                                        LLAVE 3 VIASSOB     1
CC0000032675307A202100000027629700000027629727/10/20210806    3190333624042196419000022426800001140510000000000000                                                                    EQUIPO MACROGOTEO BAXTER MRC0001SOB     1
CC0000032675307A202100000027629700000027629727/10/20210806    3190333624042196419000030161400001459220000000000000                                                                       MANGUERA SUCCION 6 MM*3.1 MTSSOB     1
CC0000032675307A202100000027629700000027629727/10/20210806    3190333624042196419000011073300001096420000000000000                                                                BOLSA DE SUCCION DE FLUIDOS x 2500mLBOL     1
CC0000032675307A202100000027629700000027629727/10/20210806    3190333624042196419000020750600000296780000000000000                                                                PLACA ELECTRO RETORNO PACIENTE E7506SIN     1
CC0000032675307A202100000027629700000027629727/10/20210806    3190333624042196419000011082700001620070000000000000                                                               EQUIPO SET PRIMARIO C/CLAVE REF 14001BOL     1
CC0000032675307A202100000027629700000027629727/10/20210806    3190333624042196419000024673000001411210000000000000                                                                  JERINGA DESECHABLE 3 ML 21 X 1 1/2SOB     1
CC0000032675307A202100000027629700000027629727/10/20210806    3190333624042196419000024674000000220660000000000000                             JERINGA A 3 PARTES CON AGUJA  SOB X 1 RYMCO  10ML BN EXENTO-DC.417/2020SIN     6
CC0000032675307A202100000027629700000027629727/10/20210806    3190333624042196419000024674500000322810000000000000                                                                   JERINGA DESECHABLE 20 ml 21*1 1/2SIN     1
CC0000032675307A202100000027629700000027629727/10/20210806    3190333624042196419000038568100000258050000000000000                                                                         CANULA OXIGENO NASAL ADULTOSIN     1
CC0000032675307A202100000027629700000027629727/10/20210806    31903336240421964190000E1AD0200003888320000000000000                                                                              HARTMAN SLN INY 500 MLBOL     1
CC0000032675307A202100000027629700000027629727/10/20210806    31903336240421964190000N1BA2400001195280000000000000                                                                    LIDOCAINA 2% S/E Sln Iny x 10 mlAMP     1
CC0000032675307A202100000027629700000027629727/10/20210806    31903336240421964190000N01B1600003888910000000000000                                             BUPIROP SE S/P 50MG/10ML(5MG/ML) SOL INY CAJ X 24AMPACKAPC     1
CC0000032675307A202100000027629700000027629727/10/20210806    31903336240421964190000A03BB100003889180000000000000                                      HIOSCINA BUTIL BROMURO 20MG/ML SOL INY CAJ X 100AMP X 1ML RYANAMP     1
CC0000032675307A202100000027629700000027629727/10/20210806    31903336240421964190000H02A0100001664960000000000000                                                                        DEXAMETASONA SLN INY 4 MG/MLAMP     2
