CC0000072278313H202100915428102700915428102727/10/20210814    3190325423742196425000024674000000220660000000000000                             JERINGA A 3 PARTES CON AGUJA  SOB X 1 RYMCO  10ML BN EXENTO-DC.417/2020SIN     6
CC0000072278313H202100915428102700915428102727/10/20210814    31903254237421964250000V07A1300000502600000000000000                                                                                AGUA ESTERIL x 10 mlAMP     4
CC0000072278313H202100915428102700915428102727/10/20211055    31500120237421964250000V07A1300000502600000000000000                                                                                AGUA ESTERIL x 10 mlAMP     8
CC0000072278313H202100915428102700915428102727/10/20211055    3150012023742196425000024674000000220660000000000000                             JERINGA A 3 PARTES CON AGUJA  SOB X 1 RYMCO  10ML BN EXENTO-DC.417/2020SIN    12
CC0000072278313H202100915428102700915428102727/10/20211058    31902242237421964250000V07A1300000502600000000000000                                                                                AGUA ESTERIL x 10 mlAMP     4
CC0000072278313H202100915428102700915428102727/10/20211058    3190224223742196425000024674000000220660000000000000                             JERINGA A 3 PARTES CON AGUJA  SOB X 1 RYMCO  10ML BN EXENTO-DC.417/2020SIN     6
CC0000072278313H202100915428102700915428102727/10/20211749    3150036623742196425000016830000000970620000000000000                                                             SIST FIJACION CAT PERIFERICO 6.5X7 1683SOB     1
CC0000072278313H202100915428102700915428102727/10/20211749    31500366237421964250000Q1AA7300000610640000000000000                                                            CATETER PERIFE INTROCAN # 22G 4251628-04SIN     1
CC0000072278313H202100915428102700915428102727/10/20211749    3150036623742196425000001956000001620610000000000000                                                                      CONECTOR MICRO CLAVE LAT-MC100SOB     1
CC0000072278313H202100915428102700915428102727/10/20211749    31500366237421964250000E1AB0300003888390000000000000                                                            SOLUCION SALINA 0.9% SLN INY BO X 500 MLBOL     1
