CC0000003893524H202100000555010800000555010827/10/20210920     3300010237421964250000A3BA0100001109400000000000000                                                                          ATROPINA SLN INY 1 MG / MLAMP     2
CC0000003893524H202100000555010800000555010827/10/20211638     3300009237421964250000V3AB2200000614150000000000000                                                            GLUCONATO CALCIO SLN INY 10% AMP X 10 MLAPC     1
CC0000003893524H202100000555010800000555010827/10/20210920     3300010237421964250000V3AB2200000614150000000000000                                                            GLUCONATO CALCIO SLN INY 10% AMP X 10 MLAPC     3
CC0000003893524H202100000555010800000555010827/10/20210254     3300009237421964250000V3AB2200000614150000000000000                                                            GLUCONATO CALCIO SLN INY 10% AMP X 10 MLAPC     2
CC0000003893524H202100000555010800000555010827/10/20211303     3300010237421964250000B1AB0200003939510000000000000                 ENOXAPARINA SODICA 40MG/0.4ML(100MG/ML) SOL INY INST CAJ X 2JERPREL X 0.4ML TECHDOWJRP     1
CC0000003893524H202100000555010800000555010827/10/20211203    31500128237421964250000E1AA0100003888590000000000000                                                                        DEXTROSA 5% Sln Iny X 500 mlBOL     2
CC0000003893524H202100000555010800000555010827/10/20211303     3300010237421964250000C1CA0300000861740000000000000                                                                    DOPAMINA HCL SLN INY 200 MG/5 MLAMP     4
CC0000003893524H202100000555010800000555010827/10/20210254     3300009237421964250000A2BC0700001335700000000000000                                                                                 OMEPRAZOL CAP 40 MGCAP     2
CC0000003893524H202100000555010800000555010827/10/20210254     3300009237421964250000A10AE200000199280000000000000                                                                 NOVOLIN N SUSP INY 100UI/ML X 10 MLVAL     1
CC0000003893524H202100000555010800000555010827/10/20211203    31500128237421964250000V07A1300000502600000000000000                                                                                AGUA ESTERIL x 10 mlAMP     5
CC0000003893524H202100000555010800000555010827/10/20210623    31500555237421964250000V07A1300000502600000000000000                                                                                AGUA ESTERIL x 10 mlAMP     5
