CC0001091661611H202100915671102700915671102727/10/20211310    3190328823742196425000022426800001140510000000000000                                                                    EQUIPO MACROGOTEO BAXTER MRC0001SOB     1
CC0001091661611H202100915671102700915671102727/10/20211310    3190328823742196425000024674000000220660000000000000                             JERINGA A 3 PARTES CON AGUJA  SOB X 1 RYMCO  10ML BN EXENTO-DC.417/2020SIN    15
CC0001091661611H202100915671102700915671102727/10/20211310    3190328823742196425000030936900001431840000000000000                                                                                              BURETABOL     1
CC0001091661611H202100915671102700915671102727/10/20211310    31903288237421964250000E1AB0500003888400000000000000                                                              SOLUCION SALINA 0.9% SLN INY X 1000 MLBOL     1
