CC0001129508481H202100015052698100015052698127/10/20211107    3190294123742196425000038569400000256750000000000000                                                                        SONDA ASPIRACION CONTROL #14SIN     8
CC0001143227023H202100015052698100015052698127/10/20211107    3190294123742196425000038569400000256750000000000000                                                                        SONDA ASPIRACION CONTROL #14SIN     8
CC0001143269433H202100015052698100015052698127/10/20211107    3190294123742196425000038569400000256750000000000000                                                                        SONDA ASPIRACION CONTROL #14SIN     8
CC0001143227023H202100015052698100015052698127/10/20211107    3190294123742196425000036441300000236540000000000000                                                                    JERINGA 1 ML GASES ARTERIAL 9023SIN     4
CC0001129508481H202100015052698100015052698127/10/20211107    3190294123742196425000024674000000220660000000000000                             JERINGA A 3 PARTES CON AGUJA  SOB X 1 RYMCO  10ML BN EXENTO-DC.417/2020SIN     2
CC0001143227023H202100015052698100015052698127/10/20211107    3190294123742196425000024674000000220660000000000000                             JERINGA A 3 PARTES CON AGUJA  SOB X 1 RYMCO  10ML BN EXENTO-DC.417/2020SIN     2
CC0001143269433H202100015052698100015052698127/10/20211107    3190294123742196425000024674000000220660000000000000                             JERINGA A 3 PARTES CON AGUJA  SOB X 1 RYMCO  10ML BN EXENTO-DC.417/2020SIN     2
CC0001129508481H202100015052698100015052698127/10/20211107    3190294123742196425000023486400001318040000000000000                                                               GUANTE CIRUGIA NITRILO ALFASAFE 6 1/2SOB     6
CC0001143227023H202100015052698100015052698127/10/20211107    3190294123742196425000023486400001318040000000000000                                                               GUANTE CIRUGIA NITRILO ALFASAFE 6 1/2SOB     6
CC0001143269433H202100015052698100015052698127/10/20211107    3190294123742196425000023486400001318040000000000000                                                               GUANTE CIRUGIA NITRILO ALFASAFE 6 1/2SOB     6
CC0001129508481H202100015052698100015052698127/10/20211107    3190294123742196425000013077800000471960000000000000                                                             GASA NO TEJIDA EST 7.5 X 7.5 SOB X 3 UNSOB     6
CC0000040786622H202100015052698100015052698127/10/20211107    3190294123742196425000013077800000471960000000000000                                                             GASA NO TEJIDA EST 7.5 X 7.5 SOB X 3 UNSOB     6
CC0001143269433H202100015052698100015052698127/10/20211107    3190294123742196425000013077800000471960000000000000                                                             GASA NO TEJIDA EST 7.5 X 7.5 SOB X 3 UNSOB     6
CC0000007454802H202100015052698100015052698127/10/20211107    3190294123742196425000038568100000258050000000000000                                                                         CANULA OXIGENO NASAL ADULTOSIN     1
CC0001143227023H202100015052698100015052698127/10/20211107    3190294123742196425000020816000001096410000000000000                                                                          LINER PARED DELGADA 1500CCBOL     1
CC0001143269433H202100015052698100015052698127/10/20211107    3190294123742196425000020816000001096410000000000000                                                                          LINER PARED DELGADA 1500CCBOL     1
