RC0001043317236A202100000027631800000027631827/10/20211556    31903336240421964190000E1AB0700003888350000000000000                                                            SOLUCION SALINA 0.9% SLN INY BO X 250 MLBOL     1
RC0001043317236A202100000027631800000027631827/10/20211556    3190333624042196419000022425200000548240000000000000                       EXTENSION DE ANESTESIA REF 1139 SOB X 1 SHERLEG  ADULTO BN EXENTO-DC.417/2020SIN     1
RC0001043317236A202100000027631800000027631827/10/20211556    3190333624042196419000035356500003919000000000000000                                                                                        LLAVE 3 VIASSOB     1
RC0001043317236A202100000027631800000027631827/10/20211556    3190333624042196419000022425100001392880000000000000             EQUIPO MICROGOTEO SIN AGUJA REF 201000 PAQ X 100 SOB GOTHAPLAST   BN EXENTO-DC.417/2020BOL     1
RC0001043317236A202100000027631800000027631827/10/20211556    3190333624042196419000030161400001459220000000000000                                                                       MANGUERA SUCCION 6 MM*3.1 MTSSOB     1
RC0001043317236A202100000027631800000027631827/10/20211556    3190333624042196419000024674000000220660000000000000                             JERINGA A 3 PARTES CON AGUJA  SOB X 1 RYMCO  10ML BN EXENTO-DC.417/2020SIN     3
RC0001043317236A202100000027631800000027631827/10/20211556    3190333624042196419000024674500000322810000000000000                                                                   JERINGA DESECHABLE 20 ml 21*1 1/2SIN     1
RC0001043317236A202100000027631800000027631827/10/20211556    3190333624042196419000053074400000607910000000000000                                                               GASA ESTERIL 10*10 SOBRE X 3 UNIDADESSOB     1
RC0001043317236A202100000027631800000027631827/10/20211556    3190333624042196419000043485100001618510000000000000                GUANTE QUIRURGICO DE LATEX REF 2D72N65X CAJ X 50 PROTEXIS  6.5 BN EXENTO-DC.417/2020SOB     2
RC0001043317236A202100000027631800000027631827/10/20211556    3190333624042196419000039174600001072010000000000000                                                                           TUBO ENDOTRAQUEAL C/B 5.0SOB     1
RC0001043317236A202100000027631800000027631827/10/20211556    3190333624042196419000031011300000762710000000000000                                                                            CANULA GUEDEL #2 (80 MM)SOB     1
RC0001043317236A202100000027631800000027631827/10/20211556    3190333624042196419000035612500000331850000000000000                                                                          MASCARA OXIGENO PEDIATRICOBIN     1
RC0001043317236A202100000027631800000027631827/10/20211556    3190333624042196419000051515300000598140000000000000                                                                            MASCARILLA ANESTESIA # 3SIN     1
RC0001043317236A202100000027631800000027631827/10/20211556    3190333624042196419000011099300000777780000000000000                                                                     FILTRO BACTERIANO VIRICO ADULTOBOL     1
RC0001043317236A202100000027631800000027631827/10/20211556    31903336240421964190000E1AD0200003888320000000000000                                                                              HARTMAN SLN INY 500 MLBOL     1
RC0001043317236A202100000027631800000027631827/10/20211556    31903336240421964190000A3BA0100001109400000000000000                                                                          ATROPINA SLN INY 1 MG / MLAMP     1
