CC0000003893524U202100050131385600050131385627/10/20210008    3190233723942196432000024674000000220660000000000000                             JERINGA A 3 PARTES CON AGUJA  SOB X 1 RYMCO  10ML BN EXENTO-DC.417/2020SIN     1
CC0000003893524U202100050131385600050131385627/10/20210008    3190233723942196432000011082900001233450000000000000                                                               EQUIPO LC 5000 PRIMARIO FOTOPRO 0L218SOB     1
CC0000003893524U202100050131385600050131385627/10/20210008    31902337239421964320000E1AA0800000322190000000000000                                                                          DEXTROSA 5% Sln Iny 250 mlBIN     1
