RC0001048091446H202100915737102700915737102727/10/20211650    3150045323742196425000011060400001010330000000000000                                                            SENSOR PULSOX SPO2 LNCS NEONATAL MP00792PZA     1
RC0001048091446H202100915737102700915737102727/10/20211650    3150045323742196425000011082200001407940000000000000                                                              EQUIPO EXT MICROTUBO Y 2 VALVUL 2N8371SOB     1
RC0001048091446H202100915737102700915737102727/10/20211650    3150045323742196425000011082700001620070000000000000                                                               EQUIPO SET PRIMARIO C/CLAVE REF 14001BOL     1
RC0001048091446H202100915737102700915737102727/10/20211650    3150045323742196425000030936900001431840000000000000                                                                                              BURETABOL     1
RC0001048091446H202100915737102700915737102727/10/20211650    31500453237421964250000E1AC0100000199400000000000000                                                                          SUERO MIXTO Sln Iny 500 mlBIN     2
