CC0000072133553U202100050131397700050131397727/10/20212120    3150058923942196432000024674000000220660000000000000                             JERINGA A 3 PARTES CON AGUJA  SOB X 1 RYMCO  10ML BN EXENTO-DC.417/2020SIN     4
CC0000072133553U202100050131397700050131397727/10/20212120    3150058923942196432000011089300001083990000000000000                                                              GUANTE ESTERIL LATEX S/POLVO TALLA 7.5SOB     5
CC0000072133553U202100050131397700050131397727/10/20212120    3150058923942196432000053074400000607910000000000000                                                               GASA ESTERIL 10*10 SOBRE X 3 UNIDADESSOB     5
