CC0000052105659U202100050131399000050131399027/10/20212232    3150026323942196432000024674000000220660000000000000                             JERINGA A 3 PARTES CON AGUJA  SOB X 1 RYMCO  10ML BN EXENTO-DC.417/2020SIN     2
CC0000052105659U202100050131399000050131399027/10/20212232    3150026323942196432000011082700001620070000000000000                                                               EQUIPO SET PRIMARIO C/CLAVE REF 14001BOL     1
CC0000052105659U202100050131399000050131399027/10/20212232    31500263239421964320000Q1AA7100000610620000000000000                                                            CATETER PERIFE INTROCAN # 18G 4251687-04SIN     1
CC0000052105659U202100050131399000050131399027/10/20212232    3150026323942196432000030936900001431840000000000000                                                                                              BURETABOL     1
CC0000052105659U202100050131399000050131399027/10/20212232    3150026323942196432000000602600001259280000000000000                                                             APOSITO TEGADERM IV PD 1610 5CM X 5.7CMSOB     1
CC0000052105659U202100050131399000050131399027/10/20212232    31500263239421964320000E1AB0500003888400000000000000                                                              SOLUCION SALINA 0.9% SLN INY X 1000 MLBOL     1
