CC0001002371391U202100050131388800050131388827/10/20211021    3190317523942196432000017566600000232710000000000000                                                                       PROLENE 5-0 PS-2 45 CM P8686TSIN     1
CC0001002371391U202100050131388800050131388827/10/20211021    3190317523942196432000011048600000223020000000000000                                                                 JERINGA VACUNACION 3ML C/AGU 302542SIN     1
CC0001002371391U202100050131388800050131388827/10/20211021    3190317523942196432000043485100001618510000000000000                GUANTE QUIRURGICO DE LATEX REF 2D72N65X CAJ X 50 PROTEXIS  6.5 BN EXENTO-DC.417/2020SOB     1
CC0001002371391U202100050131388800050131388827/10/20211021    3190317523942196432000013077800000471960000000000000                                                             GASA NO TEJIDA EST 7.5 X 7.5 SOB X 3 UNSOB     3
CC0001002371391U202100050131388800050131388827/10/20211021    31903175239421964320000E1AB0200000199290000000000000                                                            SOLUCION SALINA 0.9% SLN INY BO X 100 MLBIN     1
