CC0001140889416U202100000555043200000555043227/10/20212045     3300004239421964320000A2BC0900000200150000000000000                                                                               ORAZOLE Sln Iny 40 mgCIN     1
CC0001140889416U202100000555043200000555043227/10/20212042     3300004239421964320000A3BB0200000512940000000000000                                                                          BUSCAPINA SIMPLE Iny 20 mgAMP     1
CC0001140889416U202100000555043200000555043227/10/20212115    31903180239421964320000E1AD0300000199490000000000000                                         LACTATO RINGER USP (HARTMANN)  SOL INY  BOL X 1000ML BAXTERBIN     1
CC0001140889416U202100000555043200000555043227/10/20212212     3300004239421964320000S1GA0800000858210000000000000                                                                       AFRIN 0.05% SLN NASAL X 15 MLFCO     1
