CC0001045685077H202100015052698500015052698527/10/20211541    3150039123742196425000001956000001620610000000000000                                                                      CONECTOR MICRO CLAVE LAT-MC100SOB     1
CC0001001856175H202100015052698500015052698527/10/20211541    3150039123742196425000001956000001620610000000000000                                                                      CONECTOR MICRO CLAVE LAT-MC100SOB     1
CC0001045685077H202100015052698500015052698527/10/20211541    31500391237421964250000Q1AA7200000610630000000000000                                                            CATETER PERIFE INTROCAN # 20G 4251644-04SIN     1
CC0000037916302H202100015052698500015052698527/10/20211541    3150039123742196425000030936900001431840000000000000                                                                                              BURETABOL     1
CC0001045685077H202100015052698500015052698527/10/20211541    3150039123742196425000016830000000970620000000000000                                                             SIST FIJACION CAT PERIFERICO 6.5X7 1683SOB     1
CC0000037916302H202100015052698500015052698527/10/20211541    31500391237421964250000E1AB0300003888390000000000000                                                            SOLUCION SALINA 0.9% SLN INY BO X 500 MLBOL     1
CC0000037916302H202100015052698500015052698527/10/20211541    31500391237421964250000E1AA0200000198980000000000000                                                                          DEXTROSA 5% Sln Iny 100 mlBIN     1
