CC0001128478097H202100000555020400000555020427/10/20210855    31903310237421964250000A02BC100001677520000000000000                                                                ESOMEPRAZOL POLVO LIOF INY 40 MG /R/VAL     1
CC0001128478097H202100000555020400000555020427/10/20210855    31903310237421964250000A4AD0200000202990000000000000                                                                     PLITICAN HCL Sln Iny 50 mg/2 mlAMP     2
CC0001128478097H202100000555020400000555020427/10/20210855    31903310237421964250000N02B1100001169680000000000000                              PARACETAMOL 1000MG/100ML(10MG/ML) SOL INY  VIAL X 100ML FRESENIUS KABIVAL     3
CC0001128478097H202100000555020400000555020427/10/20210855    31903310237421964250000A3BB0300000512950000000000000                                                             BUSCAPINA COMP Sln Iny 20 mg+2.5 g/5 mlAMP     2
