CC0001140828821A202100000027635800000027635827/10/20210743    3190333624042196419000011048700001134860000000000000                                                                JUEGO TUBO PRUEBA REF 8290286 DRAGERPZA     1
CC0001140828821A202100000027635800000027635827/10/20210743    3190333624042196419000038568100000258050000000000000                                                                         CANULA OXIGENO NASAL ADULTOSIN     1
CC0001140828821A202100000027635800000027635827/10/20210743    3190333624042196419000042743200003929860000000000000                   GASA ADHESIVA STRETCH REF 02038-00 ROL X 10MT FIXOMULL 15CM BN EXENTO-DC.417/2020CMT    30
CC0001140828821A202100000027635800000027635827/10/20210743    3190333624042196419000011078200001605710000000000000                                                                 CONECTOR FIBROBRONCOSCOPIO 9591 40CSOB     2
CC0001140828821A202100000027635800000027635827/10/20210743    3190333624042196419000020042600000633850000000000000                                                                                       ASEPTOJERINGASIN     1
CC0001140828821A202100000027635800000027635827/10/20210743    3190333624042196419000000100600000223090000000000000                                                                      AGUJA DESECHABLE 18G X 1 1/2 PSIN     1
CC0001140828821A202100000027635800000027635827/10/20210743    31903336240421964190000M3AC0600000720540000000000000                                                                         ESMERON SLN INY 50 MG /5 MLVAL     1
CC0001140828821A202100000027635800000027635827/10/20210743    31903336240421964190000C01C0300001261020000000000000                                                               ETILEFRINA HCL SLN INY 10 MG/1 ML /R/AMP     1
CC0001140828821A202100000027635800000027635827/10/20210743    31903336240421964190000M1AB0900001019600000000000000                                                                              VOLTAREN Sln Iny 75 mgAMP     1
CC0001140828821A202100000027635800000027635827/10/20210743    3190333624042196419000011099300000777780000000000000                                                                     FILTRO BACTERIANO VIRICO ADULTOBOL     1
CC0001140828821A202100000027635800000027635827/10/20210743    3190333624042196419000011063900000296020000000000000                                                            SIST DRENAJE TORACICO 888571299  AQ-SEALBOL     1
CC0001140828821A202100000027635800000027635827/10/20210743    3190333624042196419000045138000001413890000000000000                                                                       LAPIZ ELECTROBISTURI  SOB X 1SOB     1
CC0001140828821A202100000027635800000027635827/10/20210743    3190333624042196419000015944000000632490000000000000                                                                           MONOCRYL 3-0 PS2  MCP427HSIN     1
CC0001140828821A202100000027635800000027635827/10/20210743    3190333624042196419000019487600000599200000000000000                                                                                VICRYL 0 CT1 VCP346HSIN     1
CC0001140828821A202100000027635800000027635827/10/20210743    3190333624042196419000043879100001138200000000000000                                                                  HOJA BISTURI # 15 CSSB 15 01002003SOB     1
CC0001140828821A202100000027635800000027635827/10/20210743    3190333624042196419000022310200001001130000000000000                                                              DRENAJE SILICONA BLAKE 24 FR  S/CONECTPZA     1
CC0001140828821A202100000027635800000027635827/10/20210743    31903336240421964190000J01DA300001239950000000000000                                                            CEFAZOLINA SODICA POLVO LIOF SLN INY 1 GVAL     2
CC0001140828821A202100000027635800000027635827/10/20210743    3190333624042196419000035356500003919000000000000000                                                                                        LLAVE 3 VIASSOB     2
CC0001140828821A202100000027635800000027635827/10/20210743    3190333624042196419000022425200000548240000000000000                       EXTENSION DE ANESTESIA REF 1139 SOB X 1 SHERLEG  ADULTO BN EXENTO-DC.417/2020SIN     3
CC0001140828821A202100000027635800000027635827/10/20210743    3190333624042196419000022426800001140510000000000000                                                                    EQUIPO MACROGOTEO BAXTER MRC0001SOB     1
CC0001140828821A202100000027635800000027635827/10/20210743    31903336240421964190000Q1AA7100000610620000000000000                                                            CATETER PERIFE INTROCAN # 18G 4251687-04SIN     1
CC0001140828821A202100000027635800000027635827/10/20210743    3190333624042196419000024674500000322810000000000000                                                                   JERINGA DESECHABLE 20 ml 21*1 1/2SIN     3
CC0001140828821A202100000027635800000027635827/10/20210743    3190333624042196419000024674000000220660000000000000                             JERINGA A 3 PARTES CON AGUJA  SOB X 1 RYMCO  10ML BN EXENTO-DC.417/2020SIN     6
CC0001140828821A202100000027635800000027635827/10/20210743    3190333624042196419000011082700001620070000000000000                                                               EQUIPO SET PRIMARIO C/CLAVE REF 14001BOL     1
CC0001140828821A202100000027635800000027635827/10/20210743    3190333624042196419000053074400000607910000000000000                                                               GASA ESTERIL 10*10 SOBRE X 3 UNIDADESSOB     3
CC0001140828821A202100000027635800000027635827/10/20210743    3190333624042196419000011073300001096420000000000000                                                                BOLSA DE SUCCION DE FLUIDOS x 2500mLBOL     1
CC0001140828821A202100000027635800000027635827/10/20210743    3190333624042196419000020750600000296780000000000000                                                                PLACA ELECTRO RETORNO PACIENTE E7506SIN     1
CC0001140828821A202100000027635800000027635827/10/20210743    3190333624042196419000030161400001459220000000000000                                                                       MANGUERA SUCCION 6 MM*3.1 MTSSOB     3
CC0001140828821A202100000027635800000027635827/10/20210743    3190333624042196419000035639600001014740000000000000                                                                              MASCARA VENTURY ADULTOBOL     1
CC0001140828821A202100000027635800000027635827/10/20210743    3190333624042196419000039180300000270070000000000000                                                                           TUBO ENDOBRONQUIAL IZQ 39SOB     1
CC0001140828821A202100000027635800000027635827/10/20210743    3190333624042196419000051515500000598160000000000000                                                                            MASCARILLA ANESTESIA # 5SIN     1
CC0001140828821A202100000027635800000027635827/10/20210743    31903336240421964190000E1AB0700003888350000000000000                                                            SOLUCION SALINA 0.9% SLN INY BO X 250 MLBOL     1
CC0001140828821A202100000027635800000027635827/10/20210743    31903336240421964190000E1AB0200000199290000000000000                                                            SOLUCION SALINA 0.9% SLN INY BO X 100 MLBIN     1
CC0001140828821A202100000027635800000027635827/10/20210743    31903336240421964190000E1AB0300003888390000000000000                                                            SOLUCION SALINA 0.9% SLN INY BO X 500 MLBOL     2
CC0001140828821A202100000027635800000027635827/10/20210743    31903336240421964190000E1AB0500003888400000000000000                                                              SOLUCION SALINA 0.9% SLN INY X 1000 MLBOL     4
CC0001140828821A202100000027635800000027635827/10/20210743    31903336240421964190000N1BA0300000217900000000000000                                                                    BUPIROP 0.5% C/E Sln Iny x 20 mlVAL     2
CC0001140828821A202100000027635800000027635827/10/20210743    31903336240421964190000A3BA0100001109400000000000000                                                                          ATROPINA SLN INY 1 MG / MLAMP     1
CC0001140828821A202100000027635800000027635827/10/20210743    31903336240421964190000V3AB1900001177870000000000000                                                                      PROSTIGMINE Sln Iny 0.5 mg/ mlAMP     5
CC0001140828821A202100000027635800000027635827/10/20210743    31903336240421964190000N01A0400003939010000000000000                                               MAYOPROFOL 200MG/20ML(1%) EMUL INY CAJ X 1VIAL X 20MLVAL     1
CC0001140828821A202100000027635800000027635827/10/20210743    31903336240421964190000A03F0300001626860000000000000                                                                   METOCLOPRAMIDA SLN INY 10 MG/2 MLAMP     1
CC0001140828821A202100000027635800000027635827/10/20210743    31903336240421964190000N2AA0700001587170000000000000                                                                                 ULTIVA Sln Iny 2 mgVAL     1
