CC0000008710257H202100000555017600000555017627/10/20210803    31902978237421964250000A4AD0200000202990000000000000                                                                     PLITICAN HCL Sln Iny 50 mg/2 mlAMP     3
CC0000008710257H202100000555017600000555017627/10/20210749    31902978237421964250000A4AD0200000202990000000000000                                                                     PLITICAN HCL Sln Iny 50 mg/2 mlAMP     1
CC0000008710257H202100000555017600000555017627/10/20210803    31902978237421964250000C3DA0500001278910000000000000                                                                               GLUCOPHAGE TAB 850 MGTAB     3
CC0000008710257H202100000555017600000555017627/10/20210803    31902978237421964250000B4AD0700001277600000000000000                                                                                   LIPITOR TAB 20 MGTAB     1
CC0000008710257H202100000555017600000555017627/10/20210749    31902978237421964250000B4AD0700001277600000000000000                                                                                   LIPITOR TAB 20 MGTAB     1
CC0000008710257H202100000555017600000555017627/10/20210804    31902978237421964250000J1CB0600000468340000000000000                                                           UNASYN IM-IV (1+0.5)GR POLV INY INST VIALVAL     3
CC0000008710257H202100000555017600000555017627/10/20210749    31902978237421964250000J1CB0600000468340000000000000                                                           UNASYN IM-IV (1+0.5)GR POLV INY INST VIALVAL     1
CC0000008710257H202100000555017600000555017627/10/20210803    31902978237421964250000M01A0400001341250000000000000                                                                              DYNASTAT AMP 40 MG /R/VAL     3
CC0000008710257H202100000555017600000555017627/10/20210803    31902978237421964250000N02B1100001169680000000000000                              PARACETAMOL 1000MG/100ML(10MG/ML) SOL INY  VIAL X 100ML FRESENIUS KABIVAL     2
CC0000008710257H202100000555017600000555017627/10/20210749    31902978237421964250000N02B1100001169680000000000000                              PARACETAMOL 1000MG/100ML(10MG/ML) SOL INY  VIAL X 100ML FRESENIUS KABIVAL     2
