CC0000007398827A202100000027632000000027632027/10/20211525    3190333624042196419000011857700001096350000000000000                                                              AGUJA SONOPLEX BLOQUEO 21*100 01185-77BOL     2
CC0000007398827A202100000027632000000027632027/10/20211525    3190333624042196419000015638600000221740000000000000                                                                          MAQUINA DESECHABLE AFEITARPZA     1
CC0000007398827A202100000027632000000027632027/10/20211525    3190333624042196419000045136100001419300000000000000                                                                            LANCETA DEXTROMETER X UNPZA     1
CC0000007398827A202100000027632000000027632027/10/20211525    3190333624042196419000011137100001419310000000000000                                                               TIRA GLUCOMETRIA FREESTYLE H OPTIUM .PZA     1
CC0000007398827A202100000027632000000027632027/10/20211525    3190333624042196419000049059800000267410000000000000                                                                 MEDIA ANTIEMBOLICA TAL L 3634LF PARBOL     1
CC0000007398827A202100000027632000000027632027/10/20211525    3190333624042196419000019494500000458220000000000000                                                                                VICRYL RAPID INC 2-0SIN     1
CC0000007398827A202100000027632000000027632027/10/20211525    3190333624042196419000011082600000265810000000000000                                                              EQUIPO IRRIGACION URINARIA REF MRC4002SOB     1
CC0000007398827A202100000027632000000027632027/10/20211525    3190333624042196419000000501500001259410000000000000                                                              STRATAFIX 1 PDS CT-1 SXPD2B403 30*30CMSOB     1
CC0000007398827A202100000027632000000027632027/10/20211525    3190333624042196419000042462700003929830000000000000                                                STOQUINETA ORTOPEDICA TUBULAR ROL X 25MT WINER 6PULGCMT     1
CC0000007398827A202100000027632000000027632027/10/20211525    3190333624042196419000044370800000224140000000000000                                                                                IOBAN 2 90 X 45 6650SIN     1
CC0000007398827A202100000027632000000027632027/10/20211525    3190333624042196419000018630000000358130000000000000                                                                   DURAPREP Sln YODO APLICADOR 26 MLFCO     1
CC0000007398827A202100000027632000000027632027/10/20211525    3190333624042196419000042535000000222080000000000000                                                              SISTEMA SUCCION EXOVAC 1/8PULG (3.2MM)CAJ     1
CC0000007398827A202100000027632000000027632027/10/20211525    3190333624042196419000045138000001413890000000000000                                                                       LAPIZ ELECTROBISTURI  SOB X 1SOB     1
CC0000007398827A202100000027632000000027632027/10/20211525    3190333624042196419000030161400001459220000000000000                                                                       MANGUERA SUCCION 6 MM*3.1 MTSSOB     1
CC0000007398827A202100000027632000000027632027/10/20211525    3190333624042196419000020042600000633850000000000000                                                                                       ASEPTOJERINGASIN     1
CC0000007398827A202100000027632000000027632027/10/20211525    3190333624042196419000049428500000738570000000000000                                                                       VENDA ELASTICA 6*5 NO ESTERILSOB     7
CC0000007398827A202100000027632000000027632027/10/20211525    3190333624042196419000049419800001679910000000000000                                                                        VENDA ALGODON 6*5 NO ESTERILSOB     3
CC0000007398827A202100000027632000000027632027/10/20211525    3190333624042196419000019487800001585180000000000000                                                                    VICRYL 1 PLUS 70 CM CT-1 VCP341HSOB     1
CC0000007398827A202100000027632000000027632027/10/20211525    3190333624042196419000015994600000632480000000000000                                                                          MONOCRYL 4-0 PS-2 45 Y496GSIN     1
CC0000007398827A202100000027632000000027632027/10/20211525    3190333624042196419000043879400001138170000000000000                                                                  HOJA BISTURI # 10 CSSB 10 01002000SOB     1
CC0000007398827A202100000027632000000027632027/10/20211525    3190333624042196419000043879500001138210000000000000                                                                                    HOJA BISTURI #20SOB     1
CC0000007398827A202100000027632000000027632027/10/20211525    3190333624042196419000022425200000548240000000000000                       EXTENSION DE ANESTESIA REF 1139 SOB X 1 SHERLEG  ADULTO BN EXENTO-DC.417/2020SIN     1
CC0000007398827A202100000027632000000027632027/10/20211525    3190333624042196419000035356500003919000000000000000                                                                                        LLAVE 3 VIASSOB     2
CC0000007398827A202100000027632000000027632027/10/20211525    31903336240421964190000Q1AA7100000610620000000000000                                                            CATETER PERIFE INTROCAN # 18G 4251687-04SIN     1
CC0000007398827A202100000027632000000027632027/10/20211525    3190333624042196419000022426800001140510000000000000                                                                    EQUIPO MACROGOTEO BAXTER MRC0001SOB     1
CC0000007398827A202100000027632000000027632027/10/20211525    3190333624042196419000016830000000970620000000000000                                                             SIST FIJACION CAT PERIFERICO 6.5X7 1683SOB     1
CC0000007398827A202100000027632000000027632027/10/20211525    31903336240421964190000J01DA300001239950000000000000                                                            CEFAZOLINA SODICA POLVO LIOF SLN INY 1 GVAL     2
CC0000007398827A202100000027632000000027632027/10/20211525    3190333624042196419000011073300001096420000000000000                                                                BOLSA DE SUCCION DE FLUIDOS x 2500mLBOL     1
CC0000007398827A202100000027632000000027632027/10/20211525    3190333624042196419000020750600000296780000000000000                                                                PLACA ELECTRO RETORNO PACIENTE E7506SIN     1
CC0000007398827A202100000027632000000027632027/10/20211525    3190333624042196419000011082700001620070000000000000                                                               EQUIPO SET PRIMARIO C/CLAVE REF 14001BOL     2
CC0000007398827A202100000027632000000027632027/10/20211525    3190333624042196419000053074400000607910000000000000                                                               GASA ESTERIL 10*10 SOBRE X 3 UNIDADESSOB     4
CC0000007398827A202100000027632000000027632027/10/20211525    3190333624042196419000024673000001411210000000000000                                                                  JERINGA DESECHABLE 3 ML 21 X 1 1/2SOB     2
CC0000007398827A202100000027632000000027632027/10/20211525    3190333624042196419000024673600000222980000000000000                                                                     JERINGA DESECHABLE 5 ml 27*11/2SIN     5
CC0000007398827A202100000027632000000027632027/10/20211525    3190333624042196419000024674000000220660000000000000                             JERINGA A 3 PARTES CON AGUJA  SOB X 1 RYMCO  10ML BN EXENTO-DC.417/2020SIN     6
CC0000007398827A202100000027632000000027632027/10/20211525    3190333624042196419000024674500000322810000000000000                                                                   JERINGA DESECHABLE 20 ml 21*1 1/2SIN     2
CC0000007398827A202100000027632000000027632027/10/20211525    3190333624042196419000011085300001082140000000000000                                                                           GUANTE QUIRURGICO TALLA 8SOB     6
CC0000007398827A202100000027632000000027632027/10/20211525    3190333624042196419000011085200001585390000000000000                                                                       GUANTE QUIRURGICO TALLA 7 1/2SOB     9
CC0000007398827A202100000027632000000027632027/10/20211525    3190333624042196419000011085100001082120000000000000                                                                           GUANTE QUIRURGICO TALLA 7SOB     4
CC0000007398827A202100000027632000000027632027/10/20211525    3190333624042196419000043485100001618510000000000000                GUANTE QUIRURGICO DE LATEX REF 2D72N65X CAJ X 50 PROTEXIS  6.5 BN EXENTO-DC.417/2020SOB     3
CC0000007398827A202100000027632000000027632027/10/20211525    3190333624042196419000038568100000258050000000000000                                                                         CANULA OXIGENO NASAL ADULTOSIN     1
CC0000007398827A202100000027632000000027632027/10/20211525    3190333624042196419000021056700001212260000000000000                                                              CAT ANESTESIA EPIDURAL 19GA JC-05400-ESOB     1
CC0000007398827A202100000027632000000027632027/10/20211525    3190333624042196419000020060000000225230000000000000                                                               AGUJA SPINOCAN 27G X 3 1/2 PU 4503902SIN     1
CC0000007398827A202100000027632000000027632027/10/20211525    3190333624042196419000000100800000223140000000000000                                                                       AGUJA DESECHABLE 23G X 1 PULGSIN     1
CC0000007398827A202100000027632000000027632027/10/20211525    3190333624042196419000000100600000223090000000000000                                                                      AGUJA DESECHABLE 18G X 1 1/2 PSIN     2
CC0000007398827A202100000027632000000027632027/10/20211525    31903336240421964190000E1AD0200003888320000000000000                                                                              HARTMAN SLN INY 500 MLBOL     2
CC0000007398827A202100000027632000000027632027/10/20211525    31903336240421964190000E1AB0500003888400000000000000                                                              SOLUCION SALINA 0.9% SLN INY X 1000 MLBOL     1
CC0000007398827A202100000027632000000027632027/10/20211525    31903336240421964190000E1AB0300003888390000000000000                                                            SOLUCION SALINA 0.9% SLN INY BO X 500 MLBOL     2
CC0000007398827A202100000027632000000027632027/10/20211525    31903336240421964190000E1AB0200000199290000000000000                                                            SOLUCION SALINA 0.9% SLN INY BO X 100 MLBIN     2
CC0000007398827A202100000027632000000027632027/10/20211525    31903336240421964190000E1AB0700003888350000000000000                                                            SOLUCION SALINA 0.9% SLN INY BO X 250 MLBOL     1
CC0000007398827A202100000027632000000027632027/10/20211525    31903336240421964190000M01A0400001341250000000000000                                                                              DYNASTAT AMP 40 MG /R/VAL     1
CC0000007398827A202100000027632000000027632027/10/20211525    31903336240421964190000N02B1100001169680000000000000                              PARACETAMOL 1000MG/100ML(10MG/ML) SOL INY  VIAL X 100ML FRESENIUS KABIVAL     1
CC0000007398827A202100000027632000000027632027/10/20211525    31903336240421964190000A4AD0200000202990000000000000                                                                     PLITICAN HCL Sln Iny 50 mg/2 mlAMP     1
CC0000007398827A202100000027632000000027632027/10/20211525    31903336240421964190000A2BC0900000200150000000000000                                                                               ORAZOLE Sln Iny 40 mgCIN     1
CC0000007398827A202100000027632000000027632027/10/20211525    31903336240421964190000M1AX0200001569410000000000000                                                                         KETRON SLN INY 30 MG / 2 MLAMP     1
CC0000007398827A202100000027632000000027632027/10/20211525    31903336240421964190000H02AB500001664950000000000000                                                            DEXAMETASONA SLN INY 8 MG/2 ML AMP /CDS/AMP     1
CC0000007398827A202100000027632000000027632027/10/20211525    31903336240421964190000C01C0300001261020000000000000                                                               ETILEFRINA HCL SLN INY 10 MG/1 ML /R/AMP     1
CC0000007398827A202100000027632000000027632027/10/20211525    31903336240421964190000N1BA0500000647360000000000000                                                                  BUPIROP 0.5% PESADO SLN INY X 4 MLAPC     1
CC0000007398827A202100000027632000000027632027/10/20211525    31903336240421964190000N01B0600003888900000000000000                                                    BUPINEST 75MG/10ML(0.75%) SOL INY CAJ X 24AMPACKAPC     2
CC0000007398827A202100000027632000000027632027/10/20211525    31903336240421964190000N01B1600003888910000000000000                                             BUPIROP SE S/P 50MG/10ML(5MG/ML) SOL INY CAJ X 24AMPACKAPC     2
CC0000007398827A202100000027632000000027632027/10/20211525    31903336240421964190000N1BA1400000220050000000000000                                                                 ROXICAINA 2% C/EPIN Sln Iny x 50 mlFCO     1
CC0000007398827A202100000027632000000027632027/10/20211525    31903336240421964190000N01B1200000220020000000000000                                                                        ROXICAINA 1% C/E Iny x 20 mlFCO     1
CC0000007398827A202100000027632000000027632027/10/20211525    31903336240421964190000N5CD0300000218170000000000000                                                                          DORMICUM Sln Iny 5 mg/5 mlAMP     1
CC0000007398827A202100000027632000000027632027/10/20211525    3190333624042196419000000600800000258580000000000000                                                              APOSITO BACTIGRAS REF 7461 15CM X 20CMSIN     1
CC0000007398827A202100000027632000000027632027/10/20211525    3190333624042196419000000601900000258430000000000000                                                            APOSITO OPSIT POST -OP 0714  25CM X 10CMSIN     1
CC0000007398827A202100000027632000000027632027/10/20211525    3190333624042196419000020056600001101530000000000000                                                                AGUJA HIPODERMICA DESECH 18G X 1 1/2SOB     1
CC0000007398827A202100000027632000000027632027/10/20211525    3190333624042196419000024675000001585130000000000000                                                                    JERINGA DESECHABLE 50 ml S/AGUJASOB     1
CC0000007398827A202100000027632000000027632027/10/20211525    31903336240421964190000N01B1300001195250000000000000                                                                         BUPIROP 0.5% S/EPIN X 10 MLAMP     5
CC0000007398827A202100000027632000000027632027/10/20211525    3190333624042196419000042743200003929860000000000000                   GASA ADHESIVA STRETCH REF 02038-00 ROL X 10MT FIXOMULL 15CM BN EXENTO-DC.417/2020CMT    30
CC0000007398827A202100000027632000000027632027/10/20211525    31903336240421964190000B02AA100001407470000000000000                                                                    CLINTRANEX SLN INY 500 MG / 5 MLAMP     2
CC0000007398827A202100000027632000000027632027/10/20211525    31903336240421964190000N07X0300003913670000000000000                                    DEXMEDETOMIDINA 400MCG/100ML(4MCG/ML) SOL INY BOL X 100ML BAXTERBOL     1
CC0000007398827A202100000027632000000027632027/10/20211525    31903336240421964190000J01G0100000858000000000000000                                                                       GARAMICINA SLN INY 80 MG/2 MLAMP     2
