CC0000022543387H202100902967102700902967102727/10/20210450    3190302323742196425000013077800000471960000000000000                                                             GASA NO TEJIDA EST 7.5 X 7.5 SOB X 3 UNSOB    15
CC0000022543387H202100902967102700902967102727/10/20210450    3190302323742196425000042753100003929850000000000000                   GASA ADHESIVA STRETCH REF 02037-00 ROL X 10MT FIXOMULL 10CM BN EXENTO-DC.417/2020CMT   180
CC0000022543387H202100902967102700902967102727/10/20210450    3190302323742196425000043485100001618510000000000000                GUANTE QUIRURGICO DE LATEX REF 2D72N65X CAJ X 50 PROTEXIS  6.5 BN EXENTO-DC.417/2020SOB     3
CC0000022543387H202100902967102700902967102727/10/20210814    3190325423742196425000024674000000220660000000000000                             JERINGA A 3 PARTES CON AGUJA  SOB X 1 RYMCO  10ML BN EXENTO-DC.417/2020SIN     6
CC0000022543387H202100902967102700902967102727/10/20210814    31903254237421964250000V07A1300000502600000000000000                                                                                AGUA ESTERIL x 10 mlAMP     4
CC0000022543387H202100902967102700902967102727/10/20211053    3150012023742196425000013077800000471960000000000000                                                             GASA NO TEJIDA EST 7.5 X 7.5 SOB X 3 UNSOB     5
CC0000022543387H202100902967102700902967102727/10/20211053    3150012023742196425000042753100003929850000000000000                   GASA ADHESIVA STRETCH REF 02037-00 ROL X 10MT FIXOMULL 10CM BN EXENTO-DC.417/2020CMT    60
CC0000022543387H202100902967102700902967102727/10/20211053    3150012023742196425000043485100001618510000000000000                GUANTE QUIRURGICO DE LATEX REF 2D72N65X CAJ X 50 PROTEXIS  6.5 BN EXENTO-DC.417/2020SOB     1
CC0000022543387H202100902967102700902967102727/10/20211055    31500120237421964250000V07A1300000502600000000000000                                                                                AGUA ESTERIL x 10 mlAMP     8
CC0000022543387H202100902967102700902967102727/10/20211055    3150012023742196425000024674000000220660000000000000                             JERINGA A 3 PARTES CON AGUJA  SOB X 1 RYMCO  10ML BN EXENTO-DC.417/2020SIN    12
CC0000022543387H202100902967102700902967102727/10/20211058    31902242237421964250000V07A1300000502600000000000000                                                                                AGUA ESTERIL x 10 mlAMP     4
CC0000022543387H202100902967102700902967102727/10/20211058    3190224223742196425000024674000000220660000000000000                             JERINGA A 3 PARTES CON AGUJA  SOB X 1 RYMCO  10ML BN EXENTO-DC.417/2020SIN     6
CC0000022543387H202100902967102700902967102727/10/20211107    3190224223742196425000013077800000471960000000000000                                                             GASA NO TEJIDA EST 7.5 X 7.5 SOB X 3 UNSOB     5
CC0000022543387H202100902967102700902967102727/10/20211107    3190224223742196425000042753100003929850000000000000                   GASA ADHESIVA STRETCH REF 02037-00 ROL X 10MT FIXOMULL 10CM BN EXENTO-DC.417/2020CMT    60
CC0000022543387H202100902967102700902967102727/10/20211107    3190224223742196425000043485100001618510000000000000                GUANTE QUIRURGICO DE LATEX REF 2D72N65X CAJ X 50 PROTEXIS  6.5 BN EXENTO-DC.417/2020SOB     1
