CC0001045684571A202100000027636000000027636027/10/20211936    3190333624042196419000019487500000602970000000000000                                                                           VICRYL 2-0 CT1 90 VCP345HSIN     1
CC0001045684571A202100000027636000000027636027/10/20211936    3190333624042196419000018350800000232800000000000000                                                                                 SEDA 0 S.H 75 K834HSIN     1
CC0001045684571A202100000027636000000027636027/10/20211936    3190333624042196419000043879100001138200000000000000                                                                  HOJA BISTURI # 15 CSSB 15 01002003SOB     1
CC0001045684571A202100000027636000000027636027/10/20211936    3190333624042196419000011085300001082140000000000000                                                                           GUANTE QUIRURGICO TALLA 8SOB     3
CC0001045684571A202100000027636000000027636027/10/20211936    3190333624042196419000043485100001618510000000000000                GUANTE QUIRURGICO DE LATEX REF 2D72N65X CAJ X 50 PROTEXIS  6.5 BN EXENTO-DC.417/2020SOB     1
CC0001045684571A202100000027636000000027636027/10/20211936    3190333624042196419000053074400000607910000000000000                                                               GASA ESTERIL 10*10 SOBRE X 3 UNIDADESSOB     3
