CC0000008753953H202100000555015900000555015927/10/20211637     3300009237421964250000B1AB0100001227270000000000000                                             HEPAMAX 25000UI/5ML(5000UI/ML) SOL INY  CAJ X 25AMPX5MLAMP     1
CC0000008753953H202100000555015900000555015927/10/20211457    31903110237421964250000E1AB0200000199290000000000000                                                            SOLUCION SALINA 0.9% SLN INY BO X 100 MLBIN     3
CC0000008753953H202100000555015900000555015927/10/20211203    31500128237421964250000E1AB0200000199290000000000000                                                            SOLUCION SALINA 0.9% SLN INY BO X 100 MLBIN     8
CC0000008753953H202100000555015900000555015927/10/20211124    31500268237421964250000E1AB0300003888390000000000000                                                            SOLUCION SALINA 0.9% SLN INY BO X 500 MLBOL     1
CC0000008753953H202100000555015900000555015927/10/20211203    31500128237421964250000E1AD0300000199490000000000000                                         LACTATO RINGER USP (HARTMANN)  SOL INY  BOL X 1000ML BAXTERBIN     1
CC0000008753953H202100000555015900000555015927/10/20211638     3300009237421964250000V6DF5300000302770000000000000                                                                        ENSURE PLUS HN LCP X 1000 MLFCO     1
CC0000008753953H202100000555015900000555015927/10/20211356     3300009237421964250000N1AH0200003906560000000000000                                                                     FENTANIL Iny 0.05 mg/ml x 10 mlAMP     4
CC0000008753953H202100000555015900000555015927/10/20211637     3300009237421964250000H02AB700000585860000000000000                                                                HIDROCORTISONA SUCCI POL LIOF 100 MGVAL     1
CC0000008753953H202100000555015900000555015927/10/20210924     3300010237421964250000H02AB700000585860000000000000                                                                HIDROCORTISONA SUCCI POL LIOF 100 MGVAL     2
CC0000008753953H202100000555015900000555015927/10/20211638     3300009237421964250000B02BA100000561560000000000000                                                                           VITAMINA K1 SLN INY 10 MGAMP     1
CC0000008753953H202100000555015900000555015927/10/20211746     3300009237421964250000C03C0100001672000000000000000                                                                       FUROSEMIDA SLN INY 20 MG/2 MLAMP     1
CC0000008753953H202100000555015900000555015927/10/20210924     3300010237421964250000C03C0100001672000000000000000                                                                       FUROSEMIDA SLN INY 20 MG/2 MLAMP     2
CC0000008753953H202100000555015900000555015927/10/20210924     3300010237421964250000A02BC700001684270000000000000                                                            OMEPRAZOL 40MG POLVO LIOFILIZADO AMPOLLAVAL     1
CC0000008753953H202100000555015900000555015927/10/20211203    31500128237421964250000V07A1300000502600000000000000                                                                                AGUA ESTERIL x 10 mlAMP     5
