RC0001064805163A202100000027632500000027632527/10/20211143    31903336240421964190000B02AA100001407470000000000000                                                                    CLINTRANEX SLN INY 500 MG / 5 MLAMP     1
RC0001064805163A202100000027632500000027632527/10/20211143    3190333624042196419000039175300001077530000000000000                                                                           TUBO ENDOTRAQUEAL C/B 4.0SOB     1
RC0001064805163A202100000027632500000027632527/10/20211143    31903336240421964190000N1BA1300000220040000000000000                                                                 ROXICAINA 2% C/EPIN Sln Iny X 20 MLFCO     1
RC0001064805163A202100000027632500000027632527/10/20211143    3190333624042196419000051515200000598130000000000000                                                                            MASCARILLA ANESTESIA # 2SIN     1
RC0001064805163A202100000027632500000027632527/10/20211143    31903336240421964190000E1AB0700003888350000000000000                                                            SOLUCION SALINA 0.9% SLN INY BO X 250 MLBOL     1
RC0001064805163A202100000027632500000027632527/10/20211143    31903336240421964190000Q1AA7300000610640000000000000                                                            CATETER PERIFE INTROCAN # 22G 4251628-04SIN     1
RC0001064805163A202100000027632500000027632527/10/20211143    31903336240421964190000Q1AA7400003911720000000000000                                                            CATETER PERIFE INTROCAN # 24G 4251601-04SOB     2
RC0001064805163A202100000027632500000027632527/10/20211143    3190333624042196419000043879100001138200000000000000                                                                  HOJA BISTURI # 15 CSSB 15 01002003SOB     1
RC0001064805163A202100000027632500000027632527/10/20211143    3190333624042196419000019488700000753270000000000000                                                                              VICRYL 3-0 SH1 VCP311HSOB     2
RC0001064805163A202100000027632500000027632527/10/20211143    3190333624042196419000000101000001101640000000000000                                                                  AGUJA DESECHABLE  23G X 1 1/2 PULGSOB     1
RC0001064805163A202100000027632500000027632527/10/20211143    3190333624042196419000030161400001459220000000000000                                                                       MANGUERA SUCCION 6 MM*3.1 MTSSOB     1
RC0001064805163A202100000027632500000027632527/10/20211143    31903336240421964190000J01DA300001239950000000000000                                                            CEFAZOLINA SODICA POLVO LIOF SLN INY 1 GVAL     1
RC0001064805163A202100000027632500000027632527/10/20211143    3190333624042196419000035356500003919000000000000000                                                                                        LLAVE 3 VIASSOB     1
RC0001064805163A202100000027632500000027632527/10/20211143    3190333624042196419000022425200000548240000000000000                       EXTENSION DE ANESTESIA REF 1139 SOB X 1 SHERLEG  ADULTO BN EXENTO-DC.417/2020SIN     1
RC0001064805163A202100000027632500000027632527/10/20211143    3190333624042196419000022425100001392880000000000000             EQUIPO MICROGOTEO SIN AGUJA REF 201000 PAQ X 100 SOB GOTHAPLAST   BN EXENTO-DC.417/2020BOL     1
RC0001064805163A202100000027632500000027632527/10/20211143    3190333624042196419000024674000000220660000000000000                             JERINGA A 3 PARTES CON AGUJA  SOB X 1 RYMCO  10ML BN EXENTO-DC.417/2020SIN     3
RC0001064805163A202100000027632500000027632527/10/20211143    3190333624042196419000043485100001618510000000000000                GUANTE QUIRURGICO DE LATEX REF 2D72N65X CAJ X 50 PROTEXIS  6.5 BN EXENTO-DC.417/2020SOB     3
RC0001064805163A202100000027632500000027632527/10/20211143    3190333624042196419000011085200001585390000000000000                                                                       GUANTE QUIRURGICO TALLA 7 1/2SOB     1
RC0001064805163A202100000027632500000027632527/10/20211143    3190333624042196419000053074400000607910000000000000                                                               GASA ESTERIL 10*10 SOBRE X 3 UNIDADESSOB     2
RC0001064805163A202100000027632500000027632527/10/20211143    3190333624042196419000011073300001096420000000000000                                                                BOLSA DE SUCCION DE FLUIDOS x 2500mLBOL     1
RC0001064805163A202100000027632500000027632527/10/20211143    31903336240421964190000E1AB0300003888390000000000000                                                            SOLUCION SALINA 0.9% SLN INY BO X 500 MLBOL     1
RC0001064805163A202100000027632500000027632527/10/20211143    31903336240421964190000E1AB0200000199290000000000000                                                            SOLUCION SALINA 0.9% SLN INY BO X 100 MLBIN     2
RC0001064805163A202100000027632500000027632527/10/20211143    31903336240421964190000N1BA0300000217900000000000000                                                                    BUPIROP 0.5% C/E Sln Iny x 20 mlVAL     1
RC0001064805163A202100000027632500000027632527/10/20211143    31903336240421964190000N2BB0500000217140000000000000                                                                          NOVALGINA Sln Iny 1 g/2 mlAMP     1
RC0001064805163A202100000027632500000027632527/10/20211143    31903336240421964190000H02A0100001664960000000000000                                                                        DEXAMETASONA SLN INY 4 MG/MLAMP     1
RC0001064805163A202100000027632500000027632527/10/20211143    31903336240421964190000N01A0400003939010000000000000                                               MAYOPROFOL 200MG/20ML(1%) EMUL INY CAJ X 1VIAL X 20MLVAL     1
