TI0001042849714U202100000555045300000555045327/10/20212242     3300004239421964320000C08C0800001277870000000000000                                                                                NIFEDIPINO CAP 10 MGTAB     3
TI0001042849714U202100000555045300000555045327/10/20212242     3300004239421964320000H02AB900001434990000000000000                                                                      BETAMETASONA SLN INY 4 MG / MLAMP     3
TI0001042849714U202100000555045300000555045327/10/20212242     3300004239421964320000A03BB100003889180000000000000                                      HIOSCINA BUTIL BROMURO 20MG/ML SOL INY CAJ X 100AMP X 1ML RYANAMP     1
