TI0001047047240H202100000555012200000555012227/10/20211733     3300009237421964250000A6AC0200001467010000000000000                                                             LACTULAX JARABE 66.7G/100ML SOX15ML /R/SOB     2
TI0001047047240H202100000555012200000555012227/10/20211509    31903028237421964250000E1AC0100000199400000000000000                                                                          SUERO MIXTO Sln Iny 500 mlBIN     4
TI0001047047240H202100000555012200000555012227/10/20211735     3300009237421964250000A12BA100000552980000000000000                                                            CLORURO POTASIO Sln Iny AMP 20 MEQ/10 MLAMP     1
TI0001047047240H202100000555012200000555012227/10/20210855     3300009237421964250000A12BA100000552980000000000000                                                            CLORURO POTASIO Sln Iny AMP 20 MEQ/10 MLAMP     3
TI0001047047240H202100000555012200000555012227/10/20210349     3300009237421964250000A12BA100000552980000000000000                                                            CLORURO POTASIO Sln Iny AMP 20 MEQ/10 MLAMP     2
TI0001047047240H202100000555012200000555012227/10/20211735     3300009237421964250000H2AB0200001276910000000000000                                                                               PREDNISOLONA TAB 5 MGTAB     1
TI0001047047240H202100000555012200000555012227/10/20211734     3300009237421964250000H2AB0200001276910000000000000                                                                               PREDNISOLONA TAB 5 MGTAB     2
TI0001047047240H202100000555012200000555012227/10/20210855     3300009237421964250000H2AB0200001276910000000000000                                                                               PREDNISOLONA TAB 5 MGTAB     4
TI0001047047240H202100000555012200000555012227/10/20210854     3300009237421964250000H2AB0200001276910000000000000                                                                               PREDNISOLONA TAB 5 MGTAB     1
TI0001047047240H202100000555012200000555012227/10/20210349     3300009237421964250000H2AB0200001276910000000000000                                                                               PREDNISOLONA TAB 5 MGTAB     4
TI0001047047240H202100000555012200000555012227/10/20211849    31903313237421964250000V07A1300000502600000000000000                                                                                AGUA ESTERIL x 10 mlAMP     5
TI0001047047240H202100000555012200000555012227/10/20210858     3300009237421964250000A04AA200003932460000000000000                                                 ONDAX 4MG/2ML(2MG/ML) SOL INY INST CAJ X 1AMP X 2MLAMP     5
TI0001047047240H202100000555012200000555012227/10/20210855     3300009237421964250000A04AA200003932460000000000000                                                 ONDAX 4MG/2ML(2MG/ML) SOL INY INST CAJ X 1AMP X 2MLAMP     2
