RC0001046723141H202100000555010700000555010727/10/20211858    31500363237421964250000E1AC0100000199400000000000000                                                                          SUERO MIXTO Sln Iny 500 mlBIN     2
RC0001046723141H202100000555010700000555010727/10/20210755     3300009237421964250000A12BA100000552980000000000000                                                            CLORURO POTASIO Sln Iny AMP 20 MEQ/10 MLAMP     3
RC0001046723141H202100000555010700000555010727/10/20210755     3300009237421964250000J02A0200000191070000000000000                                                            CANCIDAS POLVO LIOF SLN INY AMP 50MG /R/VAL     1
RC0001046723141H202100000555010700000555010727/10/20212339     3300009237421964250000N2BE1100001156170000000000000                                                              ACETAMINOFEN JBE 150 MG / 5 ML X 60 MLFCO     1
RC0001046723141H202100000555010700000555010727/10/20211712     3300009237421964250000N03AG200001590870000000000000                                                            PROVALNOVA SLN INY 100MG/ML VIALX5ML /R/VAL     3
RC0001046723141H202100000555010700000555010727/10/20212339     3300009237421964250000N03AX200001063780000000000000                                                                      KEPPRA SLN INY 500 MG/5 ML /R/VAL     1
RC0001046723141H202100000555010700000555010727/10/20210755     3300009237421964250000N03AX200001063780000000000000                                                                      KEPPRA SLN INY 500 MG/5 ML /R/VAL     1
RC0001046723141H202100000555010700000555010727/10/20210221     3300009237421964250000N2BB0100000787510000000000000                                                                    DIPIRONA SODICA Sln Iny 1 g/2 mlAMP     1
RC0001046723141H202100000555010700000555010727/10/20210755     3300009237421964250000A02BC700001684270000000000000                                                            OMEPRAZOL 40MG POLVO LIOFILIZADO AMPOLLAVAL     1
RC0001046723141H202100000555010700000555010727/10/20211403    31903301237421964250000V07A1300000502600000000000000                                                                                AGUA ESTERIL x 10 mlAMP     4
