RC0001042865004H202100015032641900015032641901/12/20211501    3190310723742196425000001956000001620610000000000000                                                                      CONECTOR MICRO CLAVE LAT-MC100SOB     2
CC0000016663338H202100015032641900015032641901/12/20211501    3190310723742196425000001956000001620610000000000000                                                                      CONECTOR MICRO CLAVE LAT-MC100SOB     1
RC0001042865004H202100015032641900015032641901/12/20211501    31903107237421964250000E1AC0100000199400000000000000                                                                          SUERO MIXTO Sln Iny 500 mlBIN     2
