CC0000032753507H202100000556423900000556423901/12/20210902     3300009237421964250000A2BC0900000200150000000000000                                                                               ORAZOLE Sln Iny 40 mgCIN     1
CC0000032753507H202100000556423900000556423901/12/20211328    31500501237421964250000E1AB0200000199290000000000000                                                            SOLUCION SALINA 0.9% SLN INY BO X 100 MLBIN    10
CC0000032753507H202100000556423900000556423901/12/20211141    31500501237421964250000E1AB0200000199290000000000000                                                            SOLUCION SALINA 0.9% SLN INY BO X 100 MLBIN     6
CC0000032753507H202100000556423900000556423901/12/20210902     3300009237421964250000N07X0300003913670000000000000                                    DEXMEDETOMIDINA 400MCG/100ML(4MCG/ML) SOL INY BOL X 100ML BAXTERBOL     3
CC0000032753507H202100000556423900000556423901/12/20210901     3300009237421964250000V6DF5300000302770000000000000                                                                        ENSURE PLUS HN LCP X 1000 MLFCO     1
CC0000032753507H202100000556423900000556423901/12/20210901     3300009237421964250000B01AB200000513350000000000000                                                                        CLENOX SLN INY 40 MG/ 0.4 MLJRP     1
CC0000032753507H202100000556423900000556423901/12/20210902     3300009237421964250000N2BE2200001252930000000000000                                                                             ACETAMINOFEN Tab 500 MGTAB     6
CC0000032753507H202100000556423900000556423901/12/20210902     3300009237421964250000N2BB0100001672010000000000000                                  DIPIRONA 1GR/2ML(0.5GR/ML) SOL INY INST CAJ X 100AMP X 2ML VITALISAMP     3
CC0000032753507H202100000556423900000556423901/12/20210901     3300009237421964250000N2AX0900001672040000000000000                                                                              TRAMADOL SLN INY 50 MGAMP     2
CC0000032753507H202100000556423900000556423901/12/20211328    31500501237421964250000V07A1300000502600000000000000                                                                                AGUA ESTERIL x 10 mlAMP    10
CC0000032753507H202100000556423900000556423901/12/20212232     3300009237421964250000N05BA400001313880000000000000                                                                           ALPRAZOLAM 0.5 MG TABLETATAB     1
CC0000032753507H202100000556423900000556423901/12/20210903     3300009237421964250000N02BG100003889660000000000000                                                   ACUPAN 20MG/2ML(10MG/ML) SOL INY CAJ X 5AMP X 2MLAMP     3
