CC0000032776593H202100015052792300015052792301/12/20211801    3150038323742196425000001956000001620610000000000000                                                                      CONECTOR MICRO CLAVE LAT-MC100SOB     1
CC0000032776593H202100015052792300015052792301/12/20211801    31500383237421964250000Q1AA7200000610630000000000000                                                            CATETER PERIFE INTROCAN # 20G 4251644-04SIN     1
CC0000032776593H202100015052792300015052792301/12/20211801    3150038323742196425000016830000000970620000000000000                                                             SIST FIJACION CAT PERIFERICO 6.5X7 1683SOB     1
