CC0000008751694H202100000556418200000556418201/12/20210900     3300009237421964250000A2BC0900000200150000000000000                                                                               ORAZOLE Sln Iny 40 mgCIN     1
CC0000008751694H202100000556418200000556418201/12/20210125     3300010237421964250000A2BC0900000200150000000000000                                                                               ORAZOLE Sln Iny 40 mgCIN     1
CC0000008751694H202100000556418200000556418201/12/20210125     3300010237421964250000B1AB0200003939510000000000000                 ENOXAPARINA SODICA 40MG/0.4ML(100MG/ML) SOL INY INST CAJ X 2JERPREL X 0.4ML TECHDOWJRP     1
CC0000008751694H202100000556418200000556418201/12/20212213     3300009237421964250000B01A2000001316350000000000000                                                                               XARELTO TAB 20 MG /R/TAB     1
CC0000008751694H202100000556418200000556418201/12/20210900     3300009237421964250000B01A2000001316350000000000000                                                                               XARELTO TAB 20 MG /R/TAB     1
CC0000008751694H202100000556418200000556418201/12/20210900     3300009237421964250000B3BB0200001315040000000000000                                                                               ACIDO FOLICO Tab 5 mgTAB     1
CC0000008751694H202100000556418200000556418201/12/20210125     3300010237421964250000B3BB0200001315040000000000000                                                                               ACIDO FOLICO Tab 5 mgTAB     1
CC0000008751694H202100000556418200000556418201/12/20211141    31500501237421964250000E1AB0200000199290000000000000                                                            SOLUCION SALINA 0.9% SLN INY BO X 100 MLBIN     6
CC0000008751694H202100000556418200000556418201/12/20210125     3300010237421964250000C10AA400001301110000000000000                                                                                   LIPITOR TAB 40 MGTAB     1
