CC0001002025491A202100000027810500000027810501/12/20210835    3190333624042196419000049419800001679910000000000000                                                                        VENDA ALGODON 6*5 NO ESTERILSOB     1
CC0001002025491A202100000027810500000027810501/12/20210835    3190333624042196419000049428500000738570000000000000                                                                       VENDA ELASTICA 6*5 NO ESTERILSOB     2
CC0001002025491A202100000027810500000027810501/12/20210835    3190333624042196419000045138000001413890000000000000                                                                       LAPIZ ELECTROBISTURI  SOB X 1SOB     1
CC0001002025491A202100000027810500000027810501/12/20210835    3190333624042196419000018665700003929810000000000000                                                STOQUINETA ORTOPEDICA TUBULAR ROL X 25MT WINER 4PULGCMT     1
CC0001002025491A202100000027810500000027810501/12/20210835    3190333624042196419000049428300000860750000000000000                                                                       VENDA ELASTICA 4*5 NO ESTERILBOL     2
CC0001002025491A202100000027810500000027810501/12/20210835    3190333624042196419000049419500001679890000000000000                                                                        VENDA ALGODON 3*5 NO ESTERILSOB     1
CC0001002025491A202100000027810500000027810501/12/20210835    3190333624042196419000012472400000232190000000000000                                                                 SUTURA ETHILON 2-0 SC-26 45CM  164TSIN     1
CC0001002025491A202100000027810500000027810501/12/20210835    3190333624042196419000043879100001138200000000000000                                                                  HOJA BISTURI # 15 CSSB 15 01002003SOB     2
CC0001002025491A202100000027810500000027810501/12/20210835    3190333624042196419000022425200000548240000000000000                       EXTENSION DE ANESTESIA REF 1139 SOB X 1 SHERLEG  ADULTO BN EXENTO-DC.417/2020SIN     1
CC0001002025491A202100000027810500000027810501/12/20210835    3190333624042196419000035356500003919000000000000000                                                                                        LLAVE 3 VIASSOB     2
CC0001002025491A202100000027810500000027810501/12/20210835    31903336240421964190000Q1AA7100000610620000000000000                                                            CATETER PERIFE INTROCAN # 18G 4251687-04SIN     1
CC0001002025491A202100000027810500000027810501/12/20210835    3190333624042196419000022426800001140510000000000000                                                                    EQUIPO MACROGOTEO BAXTER MRC0001SOB     1
CC0001002025491A202100000027810500000027810501/12/20210835    3190333624042196419000016830000000970620000000000000                                                             SIST FIJACION CAT PERIFERICO 6.5X7 1683SOB     1
CC0001002025491A202100000027810500000027810501/12/20210835    31903336240421964190000J01DA300001239950000000000000                                                            CEFAZOLINA SODICA POLVO LIOF SLN INY 1 GVAL     2
CC0001002025491A202100000027810500000027810501/12/20210835    3190333624042196419000020750600000296780000000000000                                                                PLACA ELECTRO RETORNO PACIENTE E7506SIN     1
CC0001002025491A202100000027810500000027810501/12/20210835    3190333624042196419000053074400000607910000000000000                                                               GASA ESTERIL 10*10 SOBRE X 3 UNIDADESSOB     4
CC0001002025491A202100000027810500000027810501/12/20210835    3190333624042196419000024673600000222980000000000000                                                                     JERINGA DESECHABLE 5 ml 27*11/2SIN     4
CC0001002025491A202100000027810500000027810501/12/20210835    3190333624042196419000024674000001138340000000000000   JERINGA 3PARTES C/A 10ML REF JEHL005 CAJ X 100 ALFASAFE  21GX1 PULG 1/2 PULG BN EXENTO-DC.417/202PZA     6
CC0001002025491A202100000027810500000027810501/12/20210835    3190333624042196419000024674500000322810000000000000                                                                   JERINGA DESECHABLE 20 ml 21*1 1/2SIN     2
CC0001002025491A202100000027810500000027810501/12/20210835    3190333624042196419000011085300001082140000000000000                                                                           GUANTE QUIRURGICO TALLA 8SOB     3
CC0001002025491A202100000027810500000027810501/12/20210835    3190333624042196419000011085200001585390000000000000                                                                       GUANTE QUIRURGICO TALLA 7 1/2SOB     4
CC0001002025491A202100000027810500000027810501/12/20210835    3190333624042196419000011085100001082120000000000000                                                                           GUANTE QUIRURGICO TALLA 7SOB     1
CC0001002025491A202100000027810500000027810501/12/20210835    3190333624042196419000043485100001618510000000000000                GUANTE QUIRURGICO DE LATEX REF 2D72N65X CAJ X 50 PROTEXIS  6.5 BN EXENTO-DC.417/2020SOB     2
CC0001002025491A202100000027810500000027810501/12/20210835    3190333624042196419000038568100000258050000000000000                                                                         CANULA OXIGENO NASAL ADULTOSIN     1
CC0001002025491A202100000027810500000027810501/12/20210835    3190333624042196419000000100800000223140000000000000                                                                       AGUJA DESECHABLE 23G X 1 PULGSIN     1
CC0001002025491A202100000027810500000027810501/12/20210835    31903336240421964190000E1AD0200003888320000000000000                                                                              HARTMAN SLN INY 500 MLBOL     1
CC0001002025491A202100000027810500000027810501/12/20210835    31903336240421964190000E1AB0300003888390000000000000                                                            SOLUCION SALINA 0.9% SLN INY BO X 500 MLBOL     3
CC0001002025491A202100000027810500000027810501/12/20210835    31903336240421964190000E1AB0200000199290000000000000                                                            SOLUCION SALINA 0.9% SLN INY BO X 100 MLBIN     1
CC0001002025491A202100000027810500000027810501/12/20210835    31903336240421964190000E1AB0700003888350000000000000                                                            SOLUCION SALINA 0.9% SLN INY BO X 250 MLBOL     1
CC0001002025491A202100000027810500000027810501/12/20210835    31903336240421964190000A4AD0200000202990000000000000                                                                     PLITICAN HCL Sln Iny 50 mg/2 mlAMP     1
CC0001002025491A202100000027810500000027810501/12/20210835    31903336240421964190000A2BC0900000200150000000000000                                                                               ORAZOLE Sln Iny 40 mgCIN     1
CC0001002025491A202100000027810500000027810501/12/20210835    31903336240421964190000N2BB1100000217160000000000000                                                                      NOVALGINA Sln Iny 2.5 g x 5 mlAMP     1
CC0001002025491A202100000027810500000027810501/12/20210835    31903336240421964190000N01A0400003939010000000000000                                               MAYOPROFOL 200MG/20ML(1%) EMUL INY CAJ X 1VIAL X 20MLVAL     1
CC0001002025491A202100000027810500000027810501/12/20210835    31903336240421964190000N01B1600003888910000000000000                                             BUPIROP SE S/P 50MG/10ML(5MG/ML) SOL INY CAJ X 24AMPACKAPC     2
CC0001002025491A202100000027810500000027810501/12/20210835    31903336240421964190000N1BA2400001687720000000000000                                                    LIDOCAINA 2% SOL INY  CAJ X 50AMP X 10ML CORPAULAMP     2
CC0001002025491A202100000027810500000027810501/12/20210835    31903336240421964190000N01B0200003888110000000000000                                           ROXICAINA SE 100MG/10ML(1%) SOL INY CAJ X 24AMPACK X 10MLAPC     1
