TI0001046721349U202100050131872000050131872001/12/20211421    3190093923942196432000045136100001419300000000000000                                                                            LANCETA DEXTROMETER X UNPZA     1
TI0001046721349U202100050131872000050131872001/12/20211421    3190093923942196432000011048600000223020000000000000                                                                 JERINGA VACUNACION 3ML C/AGU 302542SIN     1
TI0001046721349U202100050131872000050131872001/12/20211421    3190093923942196432000011137100001419310000000000000                                                               TIRA GLUCOMETRIA FREESTYLE H OPTIUM .PZA     1
