CC0000022332856H202100015012619400015012619401/12/20212136    3190294923742196425000038568200000257000000000000000                                                                                   SONDA NELATON #06SIN     1
CC0000002930060H202100015012619400015012619401/12/20212136    3190294923742196425000001956000001620610000000000000                                                                      CONECTOR MICRO CLAVE LAT-MC100SOB     1
CC0000002930060H202100015012619400015012619401/12/20212136    31902949237421964250000Q1AA7300000610640000000000000                                                            CATETER PERIFE INTROCAN # 22G 4251628-04SIN     2
CC0000002930060H202100015012619400015012619401/12/20212136    3190294923742196425000016830000000970620000000000000                                                             SIST FIJACION CAT PERIFERICO 6.5X7 1683SOB     1
CC0000002930060H202100015012619400015012619401/12/20212136    31902949237421964250000B05B1400001012740000000000000                                                                SOLUCION SALINA 0.45% Sln Iny 500 mlBOL     2
