CC0000011312131H202100015022558600015022558601/12/20211452    3190330823742196425000022426800001140510000000000000                                                                    EQUIPO MACROGOTEO BAXTER MRC0001SOB     1
CC0000016200301H202100015022558600015022558601/12/20211452    3190330823742196425000022426800001140510000000000000                                                                    EQUIPO MACROGOTEO BAXTER MRC0001SOB     1
CC0000012576309H202100015022558600015022558601/12/20211452    3190330823742196425000022426800001140510000000000000                                                                    EQUIPO MACROGOTEO BAXTER MRC0001SOB     1
CC0001140850122H202100015022558600015022558601/12/20211452    3190330823742196425000022426800001140510000000000000                                                                    EQUIPO MACROGOTEO BAXTER MRC0001SOB     1
