TI0001047050967H202100015122543900015122543901/12/20211725    3190166823742196425000038569900001124970000000000000                                                                              SONDA FOLEY #14 2 VIASSOB     1
TI0001047050967H202100015122543900015122543901/12/20211725    3190166823742196425000011051700000226350000000000000                                                            KIT TRANSDUCTOR SENCILLO C/VAMP PXVMP260SOB     1
TI0001047050967H202100015122543900015122543901/12/20211725    3190166823742196425000024672100001609890000000000000                                                            JERINGA INSULINA 1ML TAPA NARANJA JEI013SOB     5
TI0001047050967H202100015122543900015122543901/12/20211725    3190166823742196425000011082700001620070000000000000                                                               EQUIPO SET PRIMARIO C/CLAVE REF 14001BOL     2
TI0001047050967H202100015122543900015122543901/12/20211725    3190166823742196425000011082200001407940000000000000                                                              EQUIPO EXT MICROTUBO Y 2 VALVUL 2N8371SOB     1
TI0001047050967H202100015122543900015122543901/12/20211725    3190166823742196425000031188000000236790000000000000                                                                                     CISTOFLO ADULTOSIN     1
TI0001047050967H202100015122543900015122543901/12/20211725    31901668237421964250000Q1AA7300000610640000000000000                                                            CATETER PERIFE INTROCAN # 22G 4251628-04SIN     2
TI0001047050967H202100015122543900015122543901/12/20211725    3190166823742196425000030936900001431840000000000000                                                                                              BURETABOL     1
TI0001047050967H202100015122543900015122543901/12/20211725    31901668237421964250000E1AB0200000199290000000000000                                                            SOLUCION SALINA 0.9% SLN INY BO X 100 MLBIN     1
