CC0000005561046H202100000556417900000556417901/12/20211039     3300009237421964250000A02B0600001277230000000000000                                                                                NEXIUM Tab 40 mg /R/TAB     2
CC0000005561046H202100000556417900000556417901/12/20212344     3300004237421964250000A6AC0200001467010000000000000                                                             LACTULAX JARABE 66.7G/100ML SOX15ML /R/SOB     1
CC0000005561046H202100000556417900000556417901/12/20211039     3300009237421964250000A6AC0200001467010000000000000                                                             LACTULAX JARABE 66.7G/100ML SOX15ML /R/SOB     1
CC0000005561046H202100000556417900000556417901/12/20211039     3300009237421964250000B1AB0200003939510000000000000                 ENOXAPARINA SODICA 40MG/0.4ML(100MG/ML) SOL INY INST CAJ X 2JERPREL X 0.4ML TECHDOWJRP     1
CC0000005561046H202100000556417900000556417901/12/20212347     3300004237421964250000C03DA100001334730000000000000                                                                      INSPRA TAB RECUBIERTA 25MG /R/TAB     1
CC0000005561046H202100000556417900000556417901/12/20212346     3300004237421964250000C7AB1500001277290000000000000                                                                        BETALOC ZOK TAB LM 50 MG /R/TAB     2
CC0000005561046H202100000556417900000556417901/12/20211039     3300009237421964250000N2BE0100001276930000000000000                                                                                    DOLEX TAB 500 MGTAB     5
