CC0001045685077H202100000556422700000556422701/12/20211254     3300009237421964250000J01D1300001469600000000000000                                                                               POZINEG POLVO INY 1 GVAL     2
CC0001045685077H202100000556422700000556422701/12/20210348     3300010237421964250000J01D1300001469600000000000000                                                                               POZINEG POLVO INY 1 GVAL     8
CC0001045685077H202100000556422700000556422701/12/20211253     3300009237421964250000J01FF200003888100000000000000                                                                             EUROCLIN SLN INY 600 MGAMP     1
CC0001045685077H202100000556422700000556422701/12/20210348     3300010237421964250000J01FF200003888100000000000000                                                                             EUROCLIN SLN INY 600 MGAMP     4
CC0001045685077H202100000556422700000556422701/12/20211821     3300009237421964250000N2AX0400001204140000000000000                                                                             TRAMAL Sln Iny 50 mg/mlAMP     1
CC0001045685077H202100000556422700000556422701/12/20211254     3300009237421964250000N2AX0400001204140000000000000                                                                             TRAMAL Sln Iny 50 mg/mlAMP     1
CC0001045685077H202100000556422700000556422701/12/20210349     3300010237421964250000N2AX0400001204140000000000000                                                                             TRAMAL Sln Iny 50 mg/mlAMP     4
CC0001045685077H202100000556422700000556422701/12/20211254     3300009237421964250000N2BB1100000217160000000000000                                                                      NOVALGINA Sln Iny 2.5 g x 5 mlAMP     1
CC0001045685077H202100000556422700000556422701/12/20210348     3300010237421964250000N2BB1100000217160000000000000                                                                      NOVALGINA Sln Iny 2.5 g x 5 mlAMP     6
CC0001045685077H202100000556422700000556422701/12/20211254     3300009237421964250000N02B1100001464120000000000000                                           PARACETAMOL EP 1000MG/100ML(10MG/ML) SOL INY  CAJ X 10FCOVAL     1
CC0001045685077H202100000556422700000556422701/12/20210349     3300010237421964250000N02B1100001464120000000000000                                           PARACETAMOL EP 1000MG/100ML(10MG/ML) SOL INY  CAJ X 10FCOVAL     6
CC0001045685077H202100000556422700000556422701/12/20210956    31903303237421964250000V07A1300000502600000000000000                                                                                AGUA ESTERIL x 10 mlAMP     5
