CC0000072122685H202100015052791800015052791801/12/20211218    3190318423742196425000011082700001620070000000000000                                                               EQUIPO SET PRIMARIO C/CLAVE REF 14001BOL     1
CC0001042353509H202100015052791800015052791801/12/20211218    3190318423742196425000011082700001620070000000000000                                                               EQUIPO SET PRIMARIO C/CLAVE REF 14001BOL     1
CC0000003719048H202100015052791800015052791801/12/20211218    3190318423742196425000001956000001620610000000000000                                                                      CONECTOR MICRO CLAVE LAT-MC100SOB     1
CC0000072122685H202100015052791800015052791801/12/20211218    3190318423742196425000001956000001620610000000000000                                                                      CONECTOR MICRO CLAVE LAT-MC100SOB     1
CC0000003719048H202100015052791800015052791801/12/20211218    31903184237421964250000Q1AA7200000610630000000000000                                                            CATETER PERIFE INTROCAN # 20G 4251644-04SIN     1
CC0000072122685H202100015052791800015052791801/12/20211218    31903184237421964250000Q1AA7200000610630000000000000                                                            CATETER PERIFE INTROCAN # 20G 4251644-04SIN     1
CC0000072122685H202100015052791800015052791801/12/20211218    3190318423742196425000030936900001431840000000000000                                                                                              BURETABOL     1
CC0001042353509H202100015052791800015052791801/12/20211218    3190318423742196425000030936900001431840000000000000                                                                                              BURETABOL     1
CC0000003719048H202100015052791800015052791801/12/20211218    3190318423742196425000016830000000970620000000000000                                                             SIST FIJACION CAT PERIFERICO 6.5X7 1683SOB     1
CC0000072122685H202100015052791800015052791801/12/20211218    3190318423742196425000016830000000970620000000000000                                                             SIST FIJACION CAT PERIFERICO 6.5X7 1683SOB     1
CC0001042353509H202100015052791800015052791801/12/20211218    31903184237421964250000E1AD0300000199490000000000000                                         LACTATO RINGER USP (HARTMANN)  SOL INY  BOL X 1000ML BAXTERBIN     1
