CC0001143115935H202100015112728200015112728201/12/20210422    3190289723742196425000001956000001620610000000000000                                                                      CONECTOR MICRO CLAVE LAT-MC100SOB     1
CC0001143115935H202100015112728200015112728201/12/20210422    31902897237421964250000Q1AA7100000610620000000000000                                                            CATETER PERIFE INTROCAN # 18G 4251687-04SIN     1
CC0001143115935H202100015112728200015112728201/12/20210422    31902897237421964250000Q1AA7200000610630000000000000                                                            CATETER PERIFE INTROCAN # 20G 4251644-04SIN     1
CC0001143115935H202100015112728200015112728201/12/20210422    31902897237421964250000Q1AA7300000610640000000000000                                                            CATETER PERIFE INTROCAN # 22G 4251628-04SIN     1
CC0001143115935H202100015112728200015112728201/12/20210422    3190289723742196425000016830000000970620000000000000                                                             SIST FIJACION CAT PERIFERICO 6.5X7 1683SOB     1
