TI0001044215348H202100000556425000000556425001/12/20210858     3300009237421964250000A2BX0100001277280000000000000                                                                                ALSUCRAL TAB 1 G /R/TAB     1
TI0001044215348H202100000556425000000556425001/12/20210613     3300010237421964250000A2BX0100001277280000000000000                                                                                ALSUCRAL TAB 1 G /R/TAB     1
TI0001044215348H202100000556425000000556425001/12/20210613     3300010237421964250000A2BC0900000200150000000000000                                                                               ORAZOLE Sln Iny 40 mgCIN     1
TI0001044215348H202100000556425000000556425001/12/20211123    31903307237421964250000E1AB0200000199290000000000000                                                            SOLUCION SALINA 0.9% SLN INY BO X 100 MLBIN     1
TI0001044215348H202100000556425000000556425001/12/20211123    31903307237421964250000E1AD0300000199490000000000000                                         LACTATO RINGER USP (HARTMANN)  SOL INY  BOL X 1000ML BAXTERBIN     5
TI0001044215348H202100000556425000000556425001/12/20210913    31903307237421964250000E1AD0300000199490000000000000                                         LACTATO RINGER USP (HARTMANN)  SOL INY  BOL X 1000ML BAXTERBIN     4
TI0001044215348H202100000556425000000556425001/12/20210720    31901668237421964250000E1AD0300000199490000000000000                                         LACTATO RINGER USP (HARTMANN)  SOL INY  BOL X 1000ML BAXTERBIN     5
TI0001044215348H202100000556425000000556425001/12/20211123    31903307237421964250000E1BA0100000198890000000000000                                                                   AGUA ESTERIL USP SLN INY X 500 MLBIN     2
TI0001044215348H202100000556425000000556425001/12/20210913    31903307237421964250000V07A1300000502600000000000000                                                                                AGUA ESTERIL x 10 mlAMP    10
