CC0000032667033U202100000556439400000556439401/12/20211156     3300010239421964320000A4AD0200000202990000000000000                                                                     PLITICAN HCL Sln Iny 50 mg/2 mlAMP     1
CC0000032667033U202100000556439400000556439401/12/20211252    31902336239421964320000E1AB0300003888390000000000000                                                            SOLUCION SALINA 0.9% SLN INY BO X 500 MLBOL     1
CC0000032667033U202100000556439400000556439401/12/20211156     3300010239421964320000M1AE2500000191550000000000000                                                            PROFENID POLVO LIOF SLN INY 100MG/2ML/R/AMP     1
CC0000032667033U202100000556439400000556439401/12/20211156     3300010239421964320000N07CA400001335820000000000000                                                                                   PASEDOL TAB 50 MGTAB     1
