CC0001118843398A202100000027815300000027815301/12/20210757    31903336240421964190000B02AA100001407470000000000000                                                                    CLINTRANEX SLN INY 500 MG / 5 MLAMP     2
CC0001118843398A202100000027815300000027815301/12/20210757    3190333624042196419000012475500000232250000000000000                                                                 SUTURA ETHILON 5-0 PS-2 45CM P1666TSIN     1
CC0001118843398A202100000027815300000027815301/12/20210757    3190333624042196419000019489000000599330000000000000                                                                           VICRYL 4-0 RB1 70 VCP304HSIN     1
CC0001118843398A202100000027815300000027815301/12/20210757    31903336240421964190000M03AB200001371510000000000000                                                             SUCCINILCOLINA SNL INY 100MG/ML X 10 MLVAL     1
CC0001118843398A202100000027815300000027815301/12/20210757    3190333624042196419000039176200000325450000000000000                                                             TUBO ENDOTRAQ 7.5 C/B Y ESPIRAL INTERNOSIN     1
CC0001118843398A202100000027815300000027815301/12/20210757    3190333624042196419000043879100001138200000000000000                                                                  HOJA BISTURI # 15 CSSB 15 01002003SOB     1
CC0001118843398A202100000027815300000027815301/12/20210757    31903336240421964190000N1BA0300000217900000000000000                                                                    BUPIROP 0.5% C/E Sln Iny x 20 mlVAL     1
CC0001118843398A202100000027815300000027815301/12/20210757    3190333624042196419000045138000001413890000000000000                                                                       LAPIZ ELECTROBISTURI  SOB X 1SOB     1
CC0001118843398A202100000027815300000027815301/12/20210757    31903336240421964190000N01BB200000663590000000000000                                                                 LIDOCAINA 2% C/Epin Sln Iny x 10 MLCPL     1
CC0001118843398A202100000027815300000027815301/12/20210757    3190333624042196419000022425200000548240000000000000                       EXTENSION DE ANESTESIA REF 1139 SOB X 1 SHERLEG  ADULTO BN EXENTO-DC.417/2020SIN     1
CC0001118843398A202100000027815300000027815301/12/20210757    3190333624042196419000035356500003919000000000000000                                                                                        LLAVE 3 VIASSOB     1
CC0001118843398A202100000027815300000027815301/12/20210757    3190333624042196419000022426800001140510000000000000                                                                    EQUIPO MACROGOTEO BAXTER MRC0001SOB     1
CC0001118843398A202100000027815300000027815301/12/20210757    31903336240421964190000J01DA300001239950000000000000                                                            CEFAZOLINA SODICA POLVO LIOF SLN INY 1 GVAL     2
CC0001118843398A202100000027815300000027815301/12/20210757    3190333624042196419000011073300001096420000000000000                                                                BOLSA DE SUCCION DE FLUIDOS x 2500mLBOL     1
CC0001118843398A202100000027815300000027815301/12/20210757    3190333624042196419000030161400001459220000000000000                                                                       MANGUERA SUCCION 6 MM*3.1 MTSSOB     2
CC0001118843398A202100000027815300000027815301/12/20210757    3190333624042196419000053074400000607910000000000000                                                               GASA ESTERIL 10*10 SOBRE X 3 UNIDADESSOB     3
CC0001118843398A202100000027815300000027815301/12/20210757    3190333624042196419000011085300001082140000000000000                                                                           GUANTE QUIRURGICO TALLA 8SOB     2
CC0001118843398A202100000027815300000027815301/12/20210757    3190333624042196419000011085200001585390000000000000                                                                       GUANTE QUIRURGICO TALLA 7 1/2SOB     2
CC0001118843398A202100000027815300000027815301/12/20210757    3190333624042196419000011085100001082120000000000000                                                                           GUANTE QUIRURGICO TALLA 7SOB     3
CC0001118843398A202100000027815300000027815301/12/20210757    3190333624042196419000043485100001618510000000000000                GUANTE QUIRURGICO DE LATEX REF 2D72N65X CAJ X 50 PROTEXIS  6.5 BN EXENTO-DC.417/2020SOB     3
CC0001118843398A202100000027815300000027815301/12/20210757    3190333624042196419000051515400000598150000000000000                                                                            MASCARILLA ANESTESIA # 4SIN     1
CC0001118843398A202100000027815300000027815301/12/20210757    3190333624042196419000011099300000777780000000000000                                                                     FILTRO BACTERIANO VIRICO ADULTOBOL     1
CC0001118843398A202100000027815300000027815301/12/20210757    3190333624042196419000024673000001411210000000000000                                                                  JERINGA DESECHABLE 3 ML 21 X 1 1/2SOB     1
CC0001118843398A202100000027815300000027815301/12/20210757    3190333624042196419000024673600000222980000000000000                                                                     JERINGA DESECHABLE 5 ml 27*11/2SIN     2
CC0001118843398A202100000027815300000027815301/12/20210757    3190333624042196419000024674000001138340000000000000   JERINGA 3PARTES C/A 10ML REF JEHL005 CAJ X 100 ALFASAFE  21GX1 PULG 1/2 PULG BN EXENTO-DC.417/202PZA     5
CC0001118843398A202100000027815300000027815301/12/20210757    3190333624042196419000024674500000322810000000000000                                                                   JERINGA DESECHABLE 20 ml 21*1 1/2SIN     1
CC0001118843398A202100000027815300000027815301/12/20210757    31903336240421964190000E1AB0300003888390000000000000                                                            SOLUCION SALINA 0.9% SLN INY BO X 500 MLBOL     4
CC0001118843398A202100000027815300000027815301/12/20210757    31903336240421964190000E1AB0700003888350000000000000                                                            SOLUCION SALINA 0.9% SLN INY BO X 250 MLBOL     2
CC0001118843398A202100000027815300000027815301/12/20210757    31903336240421964190000E1AB0200000199290000000000000                                                            SOLUCION SALINA 0.9% SLN INY BO X 100 MLBIN     2
CC0001118843398A202100000027815300000027815301/12/20210757    31903336240421964190000A2BC0900000200150000000000000                                                                               ORAZOLE Sln Iny 40 mgCIN     1
CC0001118843398A202100000027815300000027815301/12/20210757    31903336240421964190000N01A0400003939010000000000000                                               MAYOPROFOL 200MG/20ML(1%) EMUL INY CAJ X 1VIAL X 20MLVAL     1
CC0001118843398A202100000027815300000027815301/12/20210757    31903336240421964190000M01A0400001341250000000000000                                                                              DYNASTAT AMP 40 MG /R/VAL     1
CC0001118843398A202100000027815300000027815301/12/20210757    31903336240421964190000N2BB1100000217160000000000000                                                                      NOVALGINA Sln Iny 2.5 g x 5 mlAMP     1
CC0001118843398A202100000027815300000027815301/12/20210757    31903336240421964190000A4AD0200000202990000000000000                                                                     PLITICAN HCL Sln Iny 50 mg/2 mlAMP     1
CC0001118843398A202100000027815300000027815301/12/20210757    31903336240421964190000H02AB500001664950000000000000                                                            DEXAMETASONA SLN INY 8 MG/2 ML AMP /CDS/AMP     1
CC0001118843398A202100000027815300000027815301/12/20210757    31903336240421964190000N1BA2400001687720000000000000                                                    LIDOCAINA 2% SOL INY  CAJ X 50AMP X 10ML CORPAULAMP     1
CC0001118843398A202100000027815300000027815301/12/20210757    31903336240421964190000N01B1300001195250000000000000                                                                         BUPIROP 0.5% S/EPIN X 10 MLAMP     1
