CC0001140828368H202100000556421700000556421701/12/20210309    31500052237421964250000E1AB0300003888390000000000000                                                            SOLUCION SALINA 0.9% SLN INY BO X 500 MLBOL     1
CC0001140828368H202100000556421700000556421701/12/20210920     3300003237421964250000J01DA300001239950000000000000                                                            CEFAZOLINA SODICA POLVO LIOF SLN INY 1 GVAL     2
CC0001140828368H202100000556421700000556421701/12/20210920     3300003237421964250000N2BB1100000217160000000000000                                                                      NOVALGINA Sln Iny 2.5 g x 5 mlAMP     2
CC0001140828368H202100000556421700000556421701/12/20210920     3300003237421964250000N02B1100001464120000000000000                                           PARACETAMOL EP 1000MG/100ML(10MG/ML) SOL INY  CAJ X 10FCOVAL     3
CC0001140828368H202100000556421700000556421701/12/20210920     3300003237421964250000M1AX0200001569410000000000000                                                                         KETRON SLN INY 30 MG / 2 MLAMP     2
