TI0001103512693H202100000556425100000556425101/12/20211120    31903307237421964250000E1AB0200000199290000000000000                                                            SOLUCION SALINA 0.9% SLN INY BO X 100 MLBIN     1
TI0001103512693H202100000556425100000556425101/12/20211120    31903307237421964250000E1AB0700003888350000000000000                                                            SOLUCION SALINA 0.9% SLN INY BO X 250 MLBOL     1
TI0001103512693H202100000556425100000556425101/12/20210912    31903307237421964250000E1AB0300003888390000000000000                                                            SOLUCION SALINA 0.9% SLN INY BO X 500 MLBOL     1
TI0001103512693H202100000556425100000556425101/12/20211656    31903307237421964250000E1AD0300000199490000000000000                                         LACTATO RINGER USP (HARTMANN)  SOL INY  BOL X 1000ML BAXTERBIN     6
TI0001103512693H202100000556425100000556425101/12/20210614     3300010237421964250000A12BA100000552980000000000000                                                            CLORURO POTASIO Sln Iny AMP 20 MEQ/10 MLAMP     1
TI0001103512693H202100000556425100000556425101/12/20211546     3300009237421964250000H02AB500001664950000000000000                                                            DEXAMETASONA SLN INY 8 MG/2 ML AMP /CDS/AMP     1
TI0001103512693H202100000556425100000556425101/12/20210614     3300010237421964250000H02AB500001664950000000000000                                                            DEXAMETASONA SLN INY 8 MG/2 ML AMP /CDS/AMP     2
TI0001103512693H202100000556425100000556425101/12/20211811     3300009237421964250000V6DB0800001286840000000000000                                                                          PEDIASURE LIQUIDO X 237 MLFCO     2
TI0001103512693H202100000556425100000556425101/12/20211023     3300003237421964250000V6DB0800001286840000000000000                                                                          PEDIASURE LIQUIDO X 237 MLFCO     1
TI0001103512693H202100000556425100000556425101/12/20210614     3300010237421964250000J01DD500001239970000000000000                                                                  CEFTRIAXONA POLVO LIOF SLN INY 1 GVAL     2
TI0001103512693H202100000556425100000556425101/12/20212318     3300009237421964250000J01F0200001689390000000000000                                                                        CLINDAMICINA INY 600 MG/4 MLAMP     1
TI0001103512693H202100000556425100000556425101/12/20211811     3300009237421964250000J01F0200001689390000000000000                                                                        CLINDAMICINA INY 600 MG/4 MLAMP     1
TI0001103512693H202100000556425100000556425101/12/20211546     3300009237421964250000J01F0200001689390000000000000                                                                        CLINDAMICINA INY 600 MG/4 MLAMP     1
TI0001103512693H202100000556425100000556425101/12/20210614     3300010237421964250000J01F0200001689390000000000000                                                                        CLINDAMICINA INY 600 MG/4 MLAMP     1
TI0001103512693H202100000556425100000556425101/12/20211021     3300003237421964250000N2BB0100001672010000000000000                                  DIPIRONA 1GR/2ML(0.5GR/ML) SOL INY INST CAJ X 100AMP X 2ML VITALISAMP     1
TI0001103512693H202100000556425100000556425101/12/20210614     3300010237421964250000N2BB0100001672010000000000000                                  DIPIRONA 1GR/2ML(0.5GR/ML) SOL INY INST CAJ X 100AMP X 2ML VITALISAMP     3
TI0001103512693H202100000556425100000556425101/12/20210615     3300010237421964250000A02BC700001684270000000000000                                                            OMEPRAZOL 40MG POLVO LIOFILIZADO AMPOLLAVAL     1
TI0001103512693H202100000556425100000556425101/12/20210912    31903307237421964250000V07A1300000502600000000000000                                                                                AGUA ESTERIL x 10 mlAMP    10
