CC0000008538917U202100050131869100050131869101/12/20210946    3150036223942196432000011048600000223020000000000000                                                                 JERINGA VACUNACION 3ML C/AGU 302542SIN     1
TI0001146536450U202100050131869100050131869101/12/20210946    3150036223942196432000024674000001138340000000000000   JERINGA 3PARTES C/A 10ML REF JEHL005 CAJ X 100 ALFASAFE  21GX1 PULG 1/2 PULG BN EXENTO-DC.417/202PZA     2
CC0000008538917U202100050131869100050131869101/12/20210946    3150036223942196432000024674000001138340000000000000   JERINGA 3PARTES C/A 10ML REF JEHL005 CAJ X 100 ALFASAFE  21GX1 PULG 1/2 PULG BN EXENTO-DC.417/202PZA     2
TI0001146536450U202100050131869100050131869101/12/20210946    3150036223942196432000011082700001620070000000000000                                                               EQUIPO SET PRIMARIO C/CLAVE REF 14001BOL     1
CC0000008538917U202100050131869100050131869101/12/20210946    3150036223942196432000011082700001620070000000000000                                                               EQUIPO SET PRIMARIO C/CLAVE REF 14001BOL     1
CC0000008538917U202100050131869100050131869101/12/20210946    31500362239421964320000Q1AA7100000610620000000000000                                                            CATETER PERIFE INTROCAN # 18G 4251687-04SIN     1
TI0001146536450U202100050131869100050131869101/12/20210946    31500362239421964320000Q1AA7300000610640000000000000                                                            CATETER PERIFE INTROCAN # 22G 4251628-04SIN     1
TI0001146536450U202100050131869100050131869101/12/20210946    3150036223942196432000030936900001431840000000000000                                                                                              BURETABOL     1
CC0000008538917U202100050131869100050131869101/12/20210946    3150036223942196432000030936900001431840000000000000                                                                                              BURETABOL     1
TI0001146536450U202100050131869100050131869101/12/20210946    3150036223942196432000000602600001259280000000000000                                                             APOSITO TEGADERM IV PD 1610 5CM X 5.7CMSOB     1
CC0000008538917U202100050131869100050131869101/12/20210946    3150036223942196432000016830000000970620000000000000                                                             SIST FIJACION CAT PERIFERICO 6.5X7 1683SOB     1
CC0000008538917U202100050131869100050131869101/12/20210946    31500362239421964320000E1AD0300000199490000000000000                                         LACTATO RINGER USP (HARTMANN)  SOL INY  BOL X 1000ML BAXTERBIN     1
TI0001146536450U202100050131869100050131869101/12/20210946    31500362239421964320000E1AD0200003888320000000000000                                                                              HARTMAN SLN INY 500 MLBOL     1
