TI0001048067626U202100000556455100000556455101/12/20212258     3300010239421964320000A2BC0900000200150000000000000                                                                               ORAZOLE Sln Iny 40 mgCIN     1
TI0001048067626U202100000556455100000556455101/12/20212211     3300010239421964320000A2BC0600001335730000000000000                                                                                   ORAZOLE CAP 40 MGCAP     1
TI0001048067626U202100000556455100000556455101/12/20212056     3300010239421964320000A4AD0200000202990000000000000                                                                     PLITICAN HCL Sln Iny 50 mg/2 mlAMP     1
TI0001048067626U202100000556455100000556455101/12/20212348     3300010239421964320000A07C0400000953120000000000000                                                            ENTEROLYTE SUERO ORAL 75 MEQ X 400ML /R/FCO     1
TI0001048067626U202100000556455100000556455101/12/20212246    31901005239421964320000E1AD0200003888320000000000000                                                                              HARTMAN SLN INY 500 MLBOL     1
TI0001048067626U202100000556455100000556455101/12/20212246    31901005239421964320000E1AD0300000199490000000000000                                         LACTATO RINGER USP (HARTMANN)  SOL INY  BOL X 1000ML BAXTERBIN     1
TI0001048067626U202100000556455100000556455101/12/20212153    31500617239421964320000E1AD0300000199490000000000000                                         LACTATO RINGER USP (HARTMANN)  SOL INY  BOL X 1000ML BAXTERBIN     1
TI0001048067626U202100000556455100000556455101/12/20212211     3300010239421964320000A3BB0300000512950000000000000                                                             BUSCAPINA COMP Sln Iny 20 mg+2.5 g/5 mlAMP     1
TI0001048067626U202100000556455100000556455101/12/20212151     3300010239421964320000A04AA200003932460000000000000                                                 ONDAX 4MG/2ML(2MG/ML) SOL INY INST CAJ X 1AMP X 2MLAMP     1
