CC0000007411998H202100000556431500000556431501/12/20212340     3300004237421964250000A2BC0600001335730000000000000                                                                                   ORAZOLE CAP 40 MGCAP     1
CC0000007411998H202100000556431500000556431501/12/20210939     3300003237421964250000A2BC0600001335730000000000000                                                                                   ORAZOLE CAP 40 MGCAP     1
CC0000007411998H202100000556431500000556431501/12/20212341     3300004237421964250000B1AB0200003939510000000000000                 ENOXAPARINA SODICA 40MG/0.4ML(100MG/ML) SOL INY INST CAJ X 2JERPREL X 0.4ML TECHDOWJRP     1
CC0000007411998H202100000556431500000556431501/12/20210939     3300003237421964250000B1AB0200003939510000000000000                 ENOXAPARINA SODICA 40MG/0.4ML(100MG/ML) SOL INY INST CAJ X 2JERPREL X 0.4ML TECHDOWJRP     1
CC0000007411998H202100000556431500000556431501/12/20212340     3300004237421964250000C7AB1500001277290000000000000                                                                        BETALOC ZOK TAB LM 50 MG /R/TAB     3
CC0000007411998H202100000556431500000556431501/12/20210939     3300003237421964250000C7AB1500001277290000000000000                                                                        BETALOC ZOK TAB LM 50 MG /R/TAB     1
CC0000007411998H202100000556431500000556431501/12/20212341     3300004237421964250000C7FA0100001277270000000000000                                                                                     NORVAS TAB 5 MGTAB     1
CC0000007411998H202100000556431500000556431501/12/20210939     3300003237421964250000C7FA0100001277270000000000000                                                                                     NORVAS TAB 5 MGTAB     1
