RC0001194984572H202100015132526500015132526501/12/20212308    3190013223742196425000038568300000257010000000000000                                                                                   SONDA NELATON #08SIN     1
RC0001044236218H202100015132526500015132526501/12/20212308    3190013223742196425000038568300000257010000000000000                                                                                   SONDA NELATON #08SIN     1
RC0001048091952H202100015132526500015132526501/12/20212308    3190013223742196425000043879100001138200000000000000                                                                  HOJA BISTURI # 15 CSSB 15 01002003SOB     1
RC0001048091909H202100015132526500015132526501/12/20212308    3190013223742196425000011082900001233450000000000000                                                               EQUIPO LC 5000 PRIMARIO FOTOPRO 0L218SOB     1
RC0001048091909H202100015132526500015132526501/12/20212308    3190013223742196425000030936900001431840000000000000                                                                                              BURETABOL     1
RC0001048091952H202100015132526500015132526501/12/20212308    3190013223742196425000000602600001259280000000000000                                                             APOSITO TEGADERM IV PD 1610 5CM X 5.7CMSOB     1
