CC0001045719914U202100000556454000000556454001/12/20211923     3300010239421964320000A02BX300001378440000000000000                                                                    DIP SUSP ORAL 1 G /5 ML X 200 MLFCO     1
CC0001045719914U202100000556454000000556454001/12/20211923     3300010239421964320000A02BC100001677520000000000000                                                                ESOMEPRAZOL POLVO LIOF INY 40 MG /R/VAL     1
CC0001045719914U202100000556454000000556454001/12/20211923     3300010239421964320000A3BB0200000512940000000000000                                                                          BUSCAPINA SIMPLE Iny 20 mgAMP     1
CC0001045719914U202100000556454000000556454001/12/20211924    31900939239421964320000E1AD0300000199490000000000000                                         LACTATO RINGER USP (HARTMANN)  SOL INY  BOL X 1000ML BAXTERBIN     1
