CC0000032734764H202100000556419000000556419001/12/20210145     3300010237421964250000A6AC0200001467010000000000000                                                             LACTULAX JARABE 66.7G/100ML SOX15ML /R/SOB     1
CC0000032734764H202100000556419000000556419001/12/20210144     3300010237421964250000R06AB100000451610000000000000                                                              CLORFENIRAMINA SLN ORAL 0 05% X 120 MLFCO     1
CC0000032734764H202100000556419000000556419001/12/20210145     3300010237421964250000A02B0800001276960000000000000                                                                                 OMEPRAZOL CAP 20 MGCAP     1
CC0000032734764H202100000556419000000556419001/12/20210145     3300010237421964250000B01AB200000513350000000000000                                                                        CLENOX SLN INY 40 MG/ 0.4 MLJRP     1
CC0000032734764H202100000556419000000556419001/12/20210906    31903294237421964250000V07A1300000502600000000000000                                                                                AGUA ESTERIL x 10 mlAMP     5
