RC0001046723141H202100000556425400000556425401/12/20211120    31903307237421964250000E1AB0200000199290000000000000                                                            SOLUCION SALINA 0.9% SLN INY BO X 100 MLBIN     1
RC0001046723141H202100000556425400000556425401/12/20211552     3300009237421964250000H02A0100001664960000000000000                                                                        DEXAMETASONA SLN INY 4 MG/MLAMP     1
RC0001046723141H202100000556425400000556425401/12/20210618     3300010237421964250000H02A0100001664960000000000000                                                                        DEXAMETASONA SLN INY 4 MG/MLAMP     2
RC0001046723141H202100000556425400000556425401/12/20210736     3300010237421964250000M03A1000000553280000000000000                                                                     VECURONIO BROMURO SLN INY 10 MGVAL     3
RC0001046723141H202100000556425400000556425401/12/20210735     3300010237421964250000M03A1000000553280000000000000                                                                     VECURONIO BROMURO SLN INY 10 MGVAL     2
RC0001046723141H202100000556425400000556425401/12/20211551     3300009237421964250000N03AG200001590870000000000000                                                            PROVALNOVA SLN INY 100MG/ML VIALX5ML /R/VAL     1
RC0001046723141H202100000556425400000556425401/12/20210618     3300010237421964250000N03AG200001590870000000000000                                                            PROVALNOVA SLN INY 100MG/ML VIALX5ML /R/VAL     2
RC0001046723141H202100000556425400000556425401/12/20211552     3300009237421964250000N03AX200001063780000000000000                                                                      KEPPRA SLN INY 500 MG/5 ML /R/VAL     1
RC0001046723141H202100000556425400000556425401/12/20210618     3300010237421964250000N03AX200001063780000000000000                                                                      KEPPRA SLN INY 500 MG/5 ML /R/VAL     1
RC0001046723141H202100000556425400000556425401/12/20211806    31500528237421964250000E1BA0100000198890000000000000                                                                   AGUA ESTERIL USP SLN INY X 500 MLBIN     2
RC0001046723141H202100000556425400000556425401/12/20210746     3300010237421964250000N1AH0200003906560000000000000                                                                     FENTANIL Iny 0.05 mg/ml x 10 mlAMP     8
RC0001046723141H202100000556425400000556425401/12/20212320     3300009237421964250000R3CA0100001051880000000000000                                                               ADRENALINA HCL SLN INY 1 MG / ML ECARAMP     3
RC0001046723141H202100000556425400000556425401/12/20211814     3300009237421964250000R3CA0100001051880000000000000                                                               ADRENALINA HCL SLN INY 1 MG / ML ECARAMP     6
RC0001046723141H202100000556425400000556425401/12/20211553     3300009237421964250000R3CA0100001051880000000000000                                                               ADRENALINA HCL SLN INY 1 MG / ML ECARAMP     1
RC0001046723141H202100000556425400000556425401/12/20211552     3300009237421964250000R3CA0100001051880000000000000                                                               ADRENALINA HCL SLN INY 1 MG / ML ECARAMP     5
RC0001046723141H202100000556425400000556425401/12/20211024     3300003237421964250000R3CA0100001051880000000000000                                                               ADRENALINA HCL SLN INY 1 MG / ML ECARAMP     6
RC0001046723141H202100000556425400000556425401/12/20211814     3300009237421964250000J01CR300003913920000000000000                                                     AUROTAZ-P (4+0.5)GR POLV INY CAJ X 1VIAL X 50MLVAL     1
RC0001046723141H202100000556425400000556425401/12/20211551     3300009237421964250000J01CR300003913920000000000000                                                     AUROTAZ-P (4+0.5)GR POLV INY CAJ X 1VIAL X 50MLVAL     1
RC0001046723141H202100000556425400000556425401/12/20210617     3300010237421964250000J01CR300003913920000000000000                                                     AUROTAZ-P (4+0.5)GR POLV INY CAJ X 1VIAL X 50MLVAL     2
RC0001046723141H202100000556425400000556425401/12/20211814     3300009237421964250000N2BB0100001672010000000000000                                  DIPIRONA 1GR/2ML(0.5GR/ML) SOL INY INST CAJ X 100AMP X 2ML VITALISAMP     1
RC0001046723141H202100000556425400000556425401/12/20211552     3300009237421964250000N2BB0100001672010000000000000                                  DIPIRONA 1GR/2ML(0.5GR/ML) SOL INY INST CAJ X 100AMP X 2ML VITALISAMP     1
RC0001046723141H202100000556425400000556425401/12/20210618     3300010237421964250000N2BB0100001672010000000000000                                  DIPIRONA 1GR/2ML(0.5GR/ML) SOL INY INST CAJ X 100AMP X 2ML VITALISAMP     2
RC0001046723141H202100000556425400000556425401/12/20210912    31903307237421964250000V07A1300000502600000000000000                                                                                AGUA ESTERIL x 10 mlAMP    10
