CC0000072184370U202100050131869500050131869501/12/20211008    3190145323942196432000024674000001138340000000000000   JERINGA 3PARTES C/A 10ML REF JEHL005 CAJ X 100 ALFASAFE  21GX1 PULG 1/2 PULG BN EXENTO-DC.417/202PZA     2
CC0000045508638U202100050131869500050131869501/12/20211008    3190145323942196432000043879200001138180000000000000                                                                                   HOJA BISTURI # 11SOB     1
CC0000072264731U202100050131869500050131869501/12/20211008    3190145323942196432000043879200001138180000000000000                                                                                   HOJA BISTURI # 11SOB     1
