CC0001140838660H202100000556447500000556447501/12/20211625    31903290237421964250000A2BC0900000200150000000000000                                                                               ORAZOLE Sln Iny 40 mgCIN     1
CC0001140838660H202100000556447500000556447501/12/20211625    31903290237421964250000N2BB0500000217140000000000000                                                                          NOVALGINA Sln Iny 1 g/2 mlAMP     3
CC0001140838660H202100000556447500000556447501/12/20211546    31903290237421964250000N2BB0500000217140000000000000                                                                          NOVALGINA Sln Iny 1 g/2 mlAMP     3
CC0001140838660H202100000556447500000556447501/12/20211625    31903290237421964250000N02B1100001464120000000000000                                           PARACETAMOL EP 1000MG/100ML(10MG/ML) SOL INY  CAJ X 10FCOVAL     3
