CC0000022467890H202100015032642000015032642001/12/20211516    3190297723742196425000001956000001620610000000000000                                                                      CONECTOR MICRO CLAVE LAT-MC100SOB     1
CC0000022467890H202100015032642000015032642001/12/20211516    31902977237421964250000Q1AA7200000610630000000000000                                                            CATETER PERIFE INTROCAN # 20G 4251644-04SIN     1
CC0000022467890H202100015032642000015032642001/12/20211516    31902977237421964250000Q1AA7300000610640000000000000                                                            CATETER PERIFE INTROCAN # 22G 4251628-04SIN     1
CC0000022467890H202100015032642000015032642001/12/20211516    31902977237421964250000Q1AA3300001585140000000000000                                                                         APOSITO TEGADERM 10*12 1626SOB     1
