CC0000032734764H202100015042532700015042532701/12/20210904    3150008223742196425000043485100001618510000000000000                GUANTE QUIRURGICO DE LATEX REF 2D72N65X CAJ X 50 PROTEXIS  6.5 BN EXENTO-DC.417/2020SOB     3
TI0001066284726H202100015042532700015042532701/12/20210904    3150008223742196425000043485100001618510000000000000                GUANTE QUIRURGICO DE LATEX REF 2D72N65X CAJ X 50 PROTEXIS  6.5 BN EXENTO-DC.417/2020SOB     3
CC0000032734764H202100015042532700015042532701/12/20210904    3150008223742196425000053074400000607910000000000000                                                               GASA ESTERIL 10*10 SOBRE X 3 UNIDADESSOB    10
TI0001066284726H202100015042532700015042532701/12/20210904    3150008223742196425000053074400000607910000000000000                                                               GASA ESTERIL 10*10 SOBRE X 3 UNIDADESSOB    10
TI0001066284726H202100015042532700015042532701/12/20210904    3150008223742196425000022426800001140510000000000000                                                                    EQUIPO MACROGOTEO BAXTER MRC0001SOB     1
TI0001066284726H202100015042532700015042532701/12/20210904    3150008223742196425000011082700001620070000000000000                                                               EQUIPO SET PRIMARIO C/CLAVE REF 14001BOL     1
TI0001066284726H202100015042532700015042532701/12/20210904    3150008223742196425000011082200001407940000000000000                                                              EQUIPO EXT MICROTUBO Y 2 VALVUL 2N8371SOB     1
CC0000032734764H202100015042532700015042532701/12/20210904    3150008223742196425000001956000001620610000000000000                                                                      CONECTOR MICRO CLAVE LAT-MC100SOB     1
TI0001066284726H202100015042532700015042532701/12/20210904    3150008223742196425000001956000001620610000000000000                                                                      CONECTOR MICRO CLAVE LAT-MC100SOB     1
TI0001066284726H202100015042532700015042532701/12/20210904    3150008223742196425000030936900001431840000000000000                                                                                              BURETABOL     1
CC0000032734764H202100015042532700015042532701/12/20210904    3150008223742196425000000101900000225280000000000000                                                                   AGUJA SURECAN CON ALAS 20G X 25MMSOB     1
TI0001066284726H202100015042532700015042532701/12/20210904    31500082237421964250000Q1A19900004018600000000000000       AGUJA HIPODERMIC PUERTO ACCESO REF 04448383 CAJ X 15 SURECAN 22G X 15MM BN EXENTO-DC.417/2020SOB     1
TI0001066284726H202100015042532700015042532701/12/20210904    31500082237421964250000E1AB0200000199290000000000000                                                            SOLUCION SALINA 0.9% SLN INY BO X 100 MLBIN     4
