TI0001045251359U202100050131865500050131865501/12/20210030    3150024623942196432000024673600000222980000000000000                                                                     JERINGA DESECHABLE 5 ml 27*11/2SIN     1
TI0001045251359U202100050131865500050131865501/12/20210030    3150024623942196432000011082700001620070000000000000                                                               EQUIPO SET PRIMARIO C/CLAVE REF 14001BOL     1
TI0001045251359U202100050131865500050131865501/12/20210030    31500246239421964320000Q1AA7300000610640000000000000                                                            CATETER PERIFE INTROCAN # 22G 4251628-04SIN     1
TI0001045251359U202100050131865500050131865501/12/20210030    3150024623942196432000016830000000970620000000000000                                                             SIST FIJACION CAT PERIFERICO 6.5X7 1683SOB     1
TI0001045251359U202100050131865500050131865501/12/20210030    31500246239421964320000E1AB0500003888400000000000000                                                              SOLUCION SALINA 0.9% SLN INY X 1000 MLBOL     1
