RC0001011109659H202100015012619200015012619201/12/20212115    3150027623742196425000001956000001620610000000000000                                                                      CONECTOR MICRO CLAVE LAT-MC100SOB     1
RC0001011109659H202100015012619200015012619201/12/20212115    31500276237421964250000Q1AA7400003911720000000000000                                                            CATETER PERIFE INTROCAN # 24G 4251601-04SOB     1
RC0001011109659H202100015012619200015012619201/12/20212115    3150027623742196425000000602600001259280000000000000                                                             APOSITO TEGADERM IV PD 1610 5CM X 5.7CMSOB     1
CC0000043628162H202100015012619200015012619201/12/20212115    31500276237421964250000E1AB0300003888390000000000000                                                            SOLUCION SALINA 0.9% SLN INY BO X 500 MLBOL     1
CC0000022332856H202100015012619200015012619201/12/20212115    31500276237421964250000E1AB0300003888390000000000000                                                            SOLUCION SALINA 0.9% SLN INY BO X 500 MLBOL     1
