CC0000022530541H202100015052793200015052793201/12/20212247    3190093223742196425000011082700001620070000000000000                                                               EQUIPO SET PRIMARIO C/CLAVE REF 14001BOL     1
CC0000008530442H202100015052793200015052793201/12/20212247    3190093223742196425000001956000001620610000000000000                                                                      CONECTOR MICRO CLAVE LAT-MC100SOB     1
CC0001140875648H202100015052793200015052793201/12/20212247    3190093223742196425000001956000001620610000000000000                                                                      CONECTOR MICRO CLAVE LAT-MC100SOB     1
CC0000008530442H202100015052793200015052793201/12/20212247    31900932237421964250000Q1AA7100000610620000000000000                                                            CATETER PERIFE INTROCAN # 18G 4251687-04SIN     1
CC0001140875648H202100015052793200015052793201/12/20212247    31900932237421964250000Q1AA7200000610630000000000000                                                            CATETER PERIFE INTROCAN # 20G 4251644-04SIN     1
CC0000022530541H202100015052793200015052793201/12/20212247    3190093223742196425000030936900001431840000000000000                                                                                              BURETABOL     1
CC0000008530442H202100015052793200015052793201/12/20212247    3190093223742196425000016830000000970620000000000000                                                             SIST FIJACION CAT PERIFERICO 6.5X7 1683SOB     1
CC0001140875648H202100015052793200015052793201/12/20212247    3190093223742196425000016830000000970620000000000000                                                             SIST FIJACION CAT PERIFERICO 6.5X7 1683SOB     1
