RC0001216983396A202100000027807900000027807901/12/20211708    3190333624042196419000022425100001392880000000000000             EQUIPO MICROGOTEO SIN AGUJA REF 201000 PAQ X 100 SOB GOTHAPLAST   BN EXENTO-DC.417/2020BOL     1
RC0001216983396A202100000027807900000027807901/12/20211708    3190333624042196419000030936900001431840000000000000                                                                                              BURETABOL     1
RC0001216983396A202100000027807900000027807901/12/20211708    3190333624042196419000018354100000232880000000000000                                                                  SUTURA SEDA NEGRA 3-0 KS 75CM 622HSIN     1
RC0001216983396A202100000027807900000027807901/12/20211708    3190333624042196419000038569500000994340000000000000                                                             SONDA FOLEY 2 VIAS 6F MA-220603 UROTECHSOB     1
RC0001216983396A202100000027807900000027807901/12/20211708    31903336240421964190000N1BA1900000554750000000000000                                                                     ROXICAINA JALEA 2% TUBO X 30 MLTUB     1
RC0001216983396A202100000027807900000027807901/12/20211708    3190333624042196419000011059900000853370000000000000                                                            SENSOR PULSOX ADH LNCS PINE 462329 NEONASOB     1
RC0001216983396A202100000027807900000027807901/12/20211708    3190333624042196419000020750800000295830000000000000                                                                       PLACA RETORNO PEDIAT E7510-25SIN     1
RC0001216983396A202100000027807900000027807901/12/20211708    3190333624042196419000035356500003919000000000000000                                                                                        LLAVE 3 VIASSOB    21
RC0001216983396A202100000027807900000027807901/12/20211708    3190333624042196419000011051900000226360000000000000                                                               KIT TRANSDUCTOR SENCILLO S/VAMP PX260SOB     1
RC0001216983396A202100000027807900000027807901/12/20211708    3190333624042196419000070707000000516720000000000000                                                                JUEGO DESECHABLE CALENTAMIENTO L70NISIN     1
RC0001216983396A202100000027807900000027807901/12/20211708    3190333624042196419000038568300000257010000000000000                                                                                   SONDA NELATON #08SIN     3
RC0001216983396A202100000027807900000027807901/12/20211708    3190333624042196419000038568200000257000000000000000                                                                                   SONDA NELATON #06SIN     1
RC0001216983396A202100000027807900000027807901/12/20211708    3190333624042196419000036441300000236540000000000000                                                                    JERINGA 1 ML GASES ARTERIAL 9023SIN    11
RC0001216983396A202100000027807900000027807901/12/20211708    3190333624042196419000024675000001585130000000000000                                                                    JERINGA DESECHABLE 50 ml S/AGUJASOB     1
RC0001216983396A202100000027807900000027807901/12/20211708    3190333624042196419000024674500000322810000000000000                                                                   JERINGA DESECHABLE 20 ml 21*1 1/2SIN     6
RC0001216983396A202100000027807900000027807901/12/20211708    3190333624042196419000011047900000223010000000000000                                                                            JERINGA X 1ML REF 302579SIN     6
RC0001216983396A202100000027807900000027807901/12/20211708    3190333624042196419000024673000001411210000000000000                                                                  JERINGA DESECHABLE 3 ML 21 X 1 1/2SOB    12
RC0001216983396A202100000027807900000027807901/12/20211708    3190333624042196419000024673600000222980000000000000                                                                     JERINGA DESECHABLE 5 ml 27*11/2SIN     9
RC0001216983396A202100000027807900000027807901/12/20211708    3190333624042196419000024674000001138340000000000000   JERINGA 3PARTES C/A 10ML REF JEHL005 CAJ X 100 ALFASAFE  21GX1 PULG 1/2 PULG BN EXENTO-DC.417/202PZA     7
RC0001216983396A202100000027807900000027807901/12/20211708    3190333624042196419000043879500001138210000000000000                                                                                    HOJA BISTURI #20SOB     1
RC0001216983396A202100000027807900000027807901/12/20211708    3190333624042196419000043879200001138180000000000000                                                                                   HOJA BISTURI # 11SOB     2
RC0001216983396A202100000027807900000027807901/12/20211708    3190333624042196419000043485100001618510000000000000                GUANTE QUIRURGICO DE LATEX REF 2D72N65X CAJ X 50 PROTEXIS  6.5 BN EXENTO-DC.417/2020SOB    10
RC0001216983396A202100000027807900000027807901/12/20211708    3190333624042196419000011085300001082140000000000000                                                                           GUANTE QUIRURGICO TALLA 8SOB     1
RC0001216983396A202100000027807900000027807901/12/20211708    3190333624042196419000011085100001082120000000000000                                                                           GUANTE QUIRURGICO TALLA 7SOB     6
RC0001216983396A202100000027807900000027807901/12/20211708    3190333624042196419000053074400000607910000000000000                                                               GASA ESTERIL 10*10 SOBRE X 3 UNIDADESSOB     9
RC0001216983396A202100000027807900000027807901/12/20211708    3190333624042196419000011082700001620070000000000000                                                               EQUIPO SET PRIMARIO C/CLAVE REF 14001BOL     6
RC0001216983396A202100000027807900000027807901/12/20211708    3190333624042196419000022425200000548240000000000000                       EXTENSION DE ANESTESIA REF 1139 SOB X 1 SHERLEG  ADULTO BN EXENTO-DC.417/2020SIN     5
RC0001216983396A202100000027807900000027807901/12/20211708    3190333624042196419000051515100000598120000000000000                                                                            MASCARILLA ANESTESIA # 1SIN     1
RC0001216983396A202100000027807900000027807901/12/20211708    31903336240421964190000Q1AA7300000610640000000000000                                                            CATETER PERIFE INTROCAN # 22G 4251628-04SIN     3
RC0001216983396A202100000027807900000027807901/12/20211708    3190333624042196419000031011200001012590000000000000                                                                           CANULA GUEDEL # 1 (70 MM)SOB     1
RC0001216983396A202100000027807900000027807901/12/20211708    3190333624042196419000011073300001096420000000000000                                                                BOLSA DE SUCCION DE FLUIDOS x 2500mLBOL     1
RC0001216983396A202100000027807900000027807901/12/20211708    3190333624042196419000000602600001259280000000000000                                                             APOSITO TEGADERM IV PD 1610 5CM X 5.7CMSOB     7
RC0001216983396A202100000027807900000027807901/12/20211708    3190333624042196419000000101000001101640000000000000                                                                  AGUJA DESECHABLE  23G X 1 1/2 PULGSOB     2
RC0001216983396A202100000027807900000027807901/12/20211708    3190333624042196419000000100600000223090000000000000                                                                      AGUJA DESECHABLE 18G X 1 1/2 PSIN     4
RC0001216983396A202100000027807900000027807901/12/20211708    31903336240421964190000B05A0300003888230000000000000                                                        VOLUVEN (6+0.9)% SOL INY CAJ X 20BOL X 500MLBOL     1
RC0001216983396A202100000027807900000027807901/12/20211708    31903336240421964190000E1AA0800000322190000000000000                                                                          DEXTROSA 5% Sln Iny 250 mlBIN     1
RC0001216983396A202100000027807900000027807901/12/20211708    31903336240421964190000B5BC0100003889300000000000000                                                                        MANITOL SLN INY 20% X 500 MLBOL     1
RC0001216983396A202100000027807900000027807901/12/20211708    31903336240421964190000E1AD0200003888320000000000000                                                                              HARTMAN SLN INY 500 MLBOL     2
RC0001216983396A202100000027807900000027807901/12/20211708    31903336240421964190000E1AB0300003888390000000000000                                                            SOLUCION SALINA 0.9% SLN INY BO X 500 MLBOL     4
RC0001216983396A202100000027807900000027807901/12/20211708    31903336240421964190000E1AB0700003888350000000000000                                                            SOLUCION SALINA 0.9% SLN INY BO X 250 MLBOL     8
RC0001216983396A202100000027807900000027807901/12/20211708    31903336240421964190000E1AB0200000199290000000000000                                                            SOLUCION SALINA 0.9% SLN INY BO X 100 MLBIN     2
RC0001216983396A202100000027807900000027807901/12/20211708    31903336240421964190000E1AB1100003888280000000000000                                                                        SOLUCION SALINA 0.9% X 50 mlBOL     8
RC0001216983396A202100000027807900000027807901/12/20211708    3190333624042196419000021221000000226640000000000000                                                                                 CARTUCHO ACT 402-03PZA     6
RC0001216983396A202100000027807900000027807901/12/20211708    31903336240421964190000B02AA100001407470000000000000                                                                    CLINTRANEX SLN INY 500 MG / 5 MLAMP     4
RC0001216983396A202100000027807900000027807901/12/20211708    31903336240421964190000A12CC100001690470000000000000                                                                  MAGNESIO SULFATO 20% SLN INY 10 MLAMP     1
RC0001216983396A202100000027807900000027807901/12/20211708    31903336240421964190000B2BX0400001469550000000000000                                                                PROTAMINA Sln Iny 1000 UI/ ml x 5 mlAMP     1
RC0001216983396A202100000027807900000027807901/12/20211708    31903336240421964190000C02DD100000777420000000000000                                      NITROPRUSIATO DE SODIO 50MG SOLUCION INYECTABLE  AMPOLLA X 2MLAMP     1
RC0001216983396A202100000027807900000027807901/12/20211708    31903336240421964190000H02AB400001140460000000000000                                                              SUCCINA METILPREDNISOLONA 500MG VIA/R/VAL     1
RC0001216983396A202100000027807900000027807901/12/20211708    31903336240421964190000B1AB0100001227270000000000000                                             HEPAMAX 25000UI/5ML(5000UI/ML) SOL INY  CAJ X 25AMPX5MLAMP     1
RC0001216983396A202100000027807900000027807901/12/20211708    31903336240421964190000V3AB2200000614150000000000000                                                            GLUCONATO CALCIO SLN INY 10% AMP X 10 MLAPC     4
RC0001216983396A202100000027807900000027807901/12/20211708    31903336240421964190000C03C0100001672000000000000000                                                                       FUROSEMIDA SLN INY 20 MG/2 MLAMP     1
RC0001216983396A202100000027807900000027807901/12/20211708    31903336240421964190000B5AA0100000718790000000000000                                                                         FLEXBUMIN 20% Sln Iny 50 mlBOL     2
RC0001216983396A202100000027807900000027807901/12/20211708    31903336240421964190000C01CA100001395620000000000000                                                                    DOBUTAMINA SLN INY 250 MG / 5 MLVAL     1
RC0001216983396A202100000027807900000027807901/12/20211708    31903336240421964190000C1CE0200000202230000000000000                                                                       COROTROPE SLN INY 10 MG/10 MLCIN     1
RC0001216983396A202100000027807900000027807901/12/20211708    31903336240421964190000A12CA100001109460000000000000                                                              CLORURO SODIO SLN INY 2 MEQ/ML X 10 MLAMP     1
RC0001216983396A202100000027807900000027807901/12/20211708    31903336240421964190000A12BA100000552980000000000000                                                            CLORURO POTASIO Sln Iny AMP 20 MEQ/10 MLAMP     1
RC0001216983396A202100000027807900000027807901/12/20211708    31903336240421964190000A12CA200001239800000000000000                     BICARBONATO SODIO 10MEQ/10ML(1MEQ/ML) SOL INY  CAJ X 100AMPX10ML FRESENIUS KABIAMP     4
RC0001216983396A202100000027807900000027807901/12/20211708    31903336240421964190000A3BA0100001109400000000000000                                                                          ATROPINA SLN INY 1 MG / MLAMP     1
RC0001216983396A202100000027807900000027807901/12/20211708    31903336240421964190000R3CA0400000777470000000000000                                                               ADRENALINA HCL SLN INY 1 MG / ML RYANAMP     1
RC0001216983396A202100000027807900000027807901/12/20211708    31903336240421964190000N1AH0200003906560000000000000                                                                     FENTANIL Iny 0.05 mg/ml x 10 mlAMP     3
RC0001216983396A202100000027807900000027807901/12/20211708    31903336240421964190000N5CD0300000218170000000000000                                                              DORMICUM IV-IM 5MG/5ML(1MG/ML) SOL INYAMP     2
RC0001216983396A202100000027807900000027807901/12/20211708    3190333624042196419000011063900000296020000000000000                                                            SIST DRENAJE TORACICO 888571299  AQ-SEALBOL     1
RC0001216983396A202100000027807900000027807901/12/20211708    3190333624042196419000022426800001140510000000000000                                                                    EQUIPO MACROGOTEO BAXTER MRC0001SOB     1
RC0001216983396A202100000027807900000027807901/12/20211708    3190333624042196419000030161400001459220000000000000                                                                       MANGUERA SUCCION 6 MM*3.1 MTSSOB     1
RC0001216983396A202100000027807900000027807901/12/20211708    3190333624042196419000045138000001413890000000000000                                                                       LAPIZ ELECTROBISTURI  SOB X 1SOB     1
RC0001216983396A202100000027807900000027807901/12/20211708    31903336240421964190000Q1AA3300001585140000000000000                                                                         APOSITO TEGADERM 10*12 1626SOB     1
RC0001216983396A202100000027807900000027807901/12/20211708    3190333624042196419000043486000001353050000000000000                                                            HORIZON CLIP TITANI M AZUL X 6 REF002200CAR     1
RC0001216983396A202100000027807900000027807901/12/20211708    3190333624042196419000018351400000232860000000000000                                                                                   SEDA 2-0 SH K833HSIN     7
RC0001216983396A202100000027807900000027807901/12/20211708    3190333624042196419000012481000001630330000000000000                                                            FLEXON SUTURA MULTIFILAME 2-0 8886261753SOB     2
RC0001216983396A202100000027807900000027807901/12/20211708    3190333624042196419000000500600004008630000000000000         SUTURA ABSORBIBLE MONOFIL P-12 REF SM-5627 CAJ X 12 BIOSYN 45CM - 4-0 BN EXENTO-DC.417/2020SIN     1
RC0001216983396A202100000027807900000027807901/12/20211708    3190333624042196419000000503900000296270000000000000                                                                  SUTURA POLYSORB 3-0 75CM V20 GL122SIN     1
RC0001216983396A202100000027807900000027807901/12/20211708    3190333624042196419000017575900000367370000000000000                                                               SUTURA PROLENE 6-0 60CM BV1(2) M8805TSIN    17
RC0001216983396A202100000027807900000027807901/12/20211708    3190333624042196419000017576200000232750000000000000                                                                    PROLENE CARDIOV 6-0 60 2C-1 8726SIN     5
RC0001216983396A202100000027807900000027807901/12/20211708    3190333624042196419000017574600000232670000000000000                                                                               PROLENE 4-0 2RB1 9557SIN     1
RC0001216983396A202100000027807900000027807901/12/20211708    3190333624042196419000018349500000232810000000000000                                                                                      SEDA 1 SA 87 TSIN     1
RC0001216983396A202100000027807900000027807901/12/20211708    3190333624042196419000043879100001138200000000000000                                                                  HOJA BISTURI # 15 CSSB 15 01002003SOB     1
RC0001216983396A202100000027807900000027807901/12/20211708    3190333624042196419000021194000000227810000000000000                                                                   CATETER BILUMEN PEDIAT 4F CS12402SIN     1
RC0001216983396A202100000027807900000027807901/12/20211708    31903336240421964190000B02B2400000847430000000000000                                                               OCTAPLEX POLVO LIOFILIZADO 500 UI /R/CAJ     1
RC0001216983396A202100000027807900000027807901/12/20211708    31903336240421964190000B02B2700001024490000000000000                                                                  TISSEEL FROZEN JERINGA X 10 ML /R/PAQ     1
RC0001216983396A202100000027807900000027807901/12/20211708    3190333624042196419000030825800000270990000000000000                                                                  ALGODON ESTERIL SOBRE X 3 TORUNDASPZA     4
RC0001216983396A202100000027807900000027807901/12/20211708    3190333624042196419000022310000000376030000000000000                                                                      DRENA BLAKE 1/4 19 FR 2231 J&JPZA     2
RC0001216983396A202100000027807900000027807901/12/20211708    31903336240421964190000Q1AA7200000610630000000000000                                                            CATETER PERIFE INTROCAN # 20G 4251644-04SIN     1
RC0001216983396A202100000027807900000027807901/12/20211708    3190333624042196419000019489000000599330000000000000                                                                           VICRYL 4-0 RB1 70 VCP304HSIN     1
RC0001216983396A202100000027807900000027807901/12/20211708    3190333624042196419000000504300001189850000000000000                                                                SUTURA PROLENE HS-6 C1 4-0 5CM 9706HSOB     5
RC0001216983396A202100000027807900000027807901/12/20211708    3190333624042196419000010500700001414140000000000000                                                              CINTA VASOS MINI  1001-76 SCANLAN ROJOPZA     3
RC0001216983396A202100000027807900000027807901/12/20211708    3190333624042196419000020042600000633850000000000000                                                                                       ASEPTOJERINGASIN     1
RC0001216983396A202100000027807900000027807901/12/20211708    3190333624042196419000045303900000232380000000000000                                                                   LIGACLIP MED/LARG LT300 VERDE X 6SIN     1
RC0001216983396A202100000027807900000027807901/12/20211708    3190333624042196419000011045900001651860000000000000                                                              INJERTO 3.5M*10 PROPAT NEO 22HPT350010CAJ     2
RC0001216983396A202100000027807900000027807901/12/20211708    3190333624042196419000038568400000256940000000000000                                                                                   SONDA NELATON #10SIN     2
RC0001216983396A202100000027807900000027807901/12/20211708    31903336240421964190000A10AA900000199170000000000000                                                                         HUMULIN R Sln Iny 100 UI/mlVAL     1
RC0001216983396A202100000027807900000027807901/12/20211708    31903336240421964190000N01B0200003888110000000000000                                           ROXICAINA SE 100MG/10ML(1%) SOL INY CAJ X 24AMPACK X 10MLAPC     1
RC0001216983396A202100000027807900000027807901/12/20211708    31903336240421964190000B05BB100001414610000000000000                                                                        PLASMA LYTE SLN INY X 500 MLBOL     1
RC0001216983396A202100000027807900000027807901/12/20211708    3190333624042196419000049428200000860740000000000000                                                                       VENDA ELASTICA 3*5 NO ESTERILBOL     2
RC0001216983396A202100000027807900000027807901/12/20211708    31903336240421964190000Q1A11500000331560000000000000                                                                     CATETER RADIAL #20 REF. 115.090SIN     1
RC0001216983396A202100000027807900000027807901/12/20211708    3190333624042196419000039173900001619710000000000000                                                                           TUBO ENDOTRAQUEAL S/B 4.0SOB     1
RC0001216983396A202100000027807900000027807901/12/20211708    3190333624042196419000049419600001679900000000000000                                                                        VENDA ALGODON 4*5 NO ESTERILSOB     1
RC0001216983396A202100000027807900000027807901/12/20211708    31903336240421964190000J01XA400001212420000000000000                                                               VANCOMICINA POLVO LIOF SLN INY 500 MGVAL     1
RC0001216983396A202100000027807900000027807901/12/20211708    3190333624042196419000011059800001410750000000000000                                                            SENSOR CEREBRAL-SOMATIC NEOINFAN CNN/SNNBOL     2
RC0001216983396A202100000027807900000027807901/12/20211708    3190333624042196419000000301600001347800000000000000                                                             CAT DIALISIS PERITONEAL 31CM 8812329001CAJ     1
