CC0000002930060U202100050131874700050131874701/12/20211728    3150058923942196432000038573000000256870000000000000                                                                                 SONDA NSG LEVIN #16SIN     1
CC0000002930060U202100050131874700050131874701/12/20211728    3150058923942196432000038570100001124990000000000000                                                                              SONDA FOLEY #18 2 VIASSOB     1
CC0000002930060U202100050131874700050131874701/12/20211728    3150058923942196432000045136100001419300000000000000                                                                            LANCETA DEXTROMETER X UNPZA     2
CC0000002930060U202100050131874700050131874701/12/20211728    3150058923942196432000024674000001138340000000000000   JERINGA 3PARTES C/A 10ML REF JEHL005 CAJ X 100 ALFASAFE  21GX1 PULG 1/2 PULG BN EXENTO-DC.417/202PZA     4
CC0000002930060U202100050131874700050131874701/12/20211728    31500589239421964320000Q1A13500001585200000000000000                        JERINGA PUNTA CAT SIN AGUJA REF 309620 CAJ X 40   50ML BN EXENTO-DC.417/2020SOB     1
CC0000002930060U202100050131874700050131874701/12/20211728    3150058923942196432000011089300001083990000000000000                                                              GUANTE ESTERIL LATEX S/POLVO TALLA 7.5SOB     2
CC0000002930060U202100050131874700050131874701/12/20211728    3150058923942196432000013077800000471960000000000000                                                             GASA NO TEJIDA EST 7.5 X 7.5 SOB X 3 UNSOB     9
CC0000002930060U202100050131874700050131874701/12/20211728    3150058923942196432000042743200003929860000000000000                   GASA ADHESIVA STRETCH REF 02038-00 ROL X 10MT FIXOMULL 15CM BN EXENTO-DC.417/2020CMT    20
CC0000002930060U202100050131874700050131874701/12/20211728    3150058923942196432000011082700001620070000000000000                                                               EQUIPO SET PRIMARIO C/CLAVE REF 14001BOL     1
CC0000002930060U202100050131874700050131874701/12/20211728    3150058923942196432000031188000000236790000000000000                                                                                     CISTOFLO ADULTOSIN     1
CC0000002930060U202100050131874700050131874701/12/20211728    31500589239421964320000Q1AA7100000610620000000000000                                                            CATETER PERIFE INTROCAN # 18G 4251687-04SIN     2
CC0000002930060U202100050131874700050131874701/12/20211728    31500589239421964320000Q1AA7200000610630000000000000                                                            CATETER PERIFE INTROCAN # 20G 4251644-04SIN     1
CC0000002930060U202100050131874700050131874701/12/20211728    31500589239421964320000Q1AA7300000610640000000000000                                                            CATETER PERIFE INTROCAN # 22G 4251628-04SIN     1
CC0000002930060U202100050131874700050131874701/12/20211728    3150058923942196432000030936900001431840000000000000                                                                                              BURETABOL     1
CC0000002930060U202100050131874700050131874701/12/20211728    3150058923942196432000016830000000970620000000000000                                                             SIST FIJACION CAT PERIFERICO 6.5X7 1683SOB     1
CC0000002930060U202100050131874700050131874701/12/20211728    31500589239421964320000E1AD0300000199490000000000000                                         LACTATO RINGER USP (HARTMANN)  SOL INY  BOL X 1000ML BAXTERBIN     2
CC0000002930060U202100050131874700050131874701/12/20211728    31500589239421964320000E1AB0200000199290000000000000                                                            SOLUCION SALINA 0.9% SLN INY BO X 100 MLBIN     2
CC0000002930060U202100050131874700050131874701/12/20211728    3150058923942196432000011137100001419310000000000000                                                               TIRA GLUCOMETRIA FREESTYLE H OPTIUM .PZA     2
