CC0000032684712H202100000556422800000556422801/12/20210350     3300010237421964250000A10B1600001336910000000000000                                                                               TRAYENTA TAB 5 MG /R/TAB     2
CC0000032684712H202100000556422800000556422801/12/20211427     3300009237421964250000J01DA300001239950000000000000                                                            CEFAZOLINA SODICA POLVO LIOF SLN INY 1 GVAL     1
CC0000032684712H202100000556422800000556422801/12/20210350     3300010237421964250000J01DA300001239950000000000000                                                            CEFAZOLINA SODICA POLVO LIOF SLN INY 1 GVAL     1
CC0000032684712H202100000556422800000556422801/12/20210349     3300010237421964250000J01DA300001239950000000000000                                                            CEFAZOLINA SODICA POLVO LIOF SLN INY 1 GVAL     3
CC0000032684712H202100000556422800000556422801/12/20210350     3300010237421964250000A02B0800001276960000000000000                                                                                 OMEPRAZOL CAP 20 MGCAP     2
CC0000032684712H202100000556422800000556422801/12/20211428     3300009237421964250000A03BB100003889180000000000000                                      HIOSCINA BUTIL BROMURO 20MG/ML SOL INY CAJ X 100AMP X 1ML RYANAMP     1
CC0000032684712H202100000556422800000556422801/12/20210350     3300010237421964250000A03BB100003889180000000000000                                      HIOSCINA BUTIL BROMURO 20MG/ML SOL INY CAJ X 100AMP X 1ML RYANAMP     4
CC0000032684712H202100000556422800000556422801/12/20211433     3300009237421964250000N2BE2200001252930000000000000                                                                             ACETAMINOFEN Tab 500 MGTAB     2
CC0000032684712H202100000556422800000556422801/12/20210930     3300003237421964250000N2BE2200001252930000000000000                                                                             ACETAMINOFEN Tab 500 MGTAB     2
CC0000032684712H202100000556422800000556422801/12/20210350     3300010237421964250000N2BE2200001252930000000000000                                                                             ACETAMINOFEN Tab 500 MGTAB    10
CC0000032684712H202100000556422800000556422801/12/20210930     3300003237421964250000N2AX0900001672040000000000000                                                                              TRAMADOL SLN INY 50 MGAMP     1
CC0000032684712H202100000556422800000556422801/12/20210350     3300010237421964250000N2AX0900001672040000000000000                                                                              TRAMADOL SLN INY 50 MGAMP     4
