CC0001083046322U202100050131866800050131866801/12/20210523    31900925239421964320000V07A1300000502600000000000000                                                                                AGUA ESTERIL x 10 mlAMP     1
CC0001083046322U202100050131866800050131866801/12/20210523    3190092523942196432000024673600000222980000000000000                                                                     JERINGA DESECHABLE 5 ml 27*11/2SIN     1
CC0000032747661U202100050131866800050131866801/12/20210523    3190092523942196432000013077800000471960000000000000                                                             GASA NO TEJIDA EST 7.5 X 7.5 SOB X 3 UNSOB    10
CC0000032747661U202100050131866800050131866801/12/20210523    3190092523942196432000042743200003929860000000000000                   GASA ADHESIVA STRETCH REF 02038-00 ROL X 10MT FIXOMULL 15CM BN EXENTO-DC.417/2020CMT    50
CC0000032747661U202100050131866800050131866801/12/20210523    31900925239421964320000E1AB0700003888350000000000000                                                            SOLUCION SALINA 0.9% SLN INY BO X 250 MLBOL     1
