CC0000008301142H202100000556423300000556423301/12/20211805     3300009237421964250000B1AB1200003939350000000000000                 ENOXAPARINA SODICA 80MG/0.8ML(100MG/ML) SOL INY INST CAJ X 2JERPREL X 0.8ML TECHDOWJRP     1
CC0000008301142H202100000556423300000556423301/12/20211221     3300009237421964250000B1AB1200003939350000000000000                 ENOXAPARINA SODICA 80MG/0.8ML(100MG/ML) SOL INY INST CAJ X 2JERPREL X 0.8ML TECHDOWJRP     1
CC0000008301142H202100000556423300000556423301/12/20210410    31903152237421964250000E1AB0300003888390000000000000                                                            SOLUCION SALINA 0.9% SLN INY BO X 500 MLBOL     1
CC0000008301142H202100000556423300000556423301/12/20211805     3300009237421964250000C07A1400001333340000000000000                                                                          CARVEDILOL TAB 12.5 MG /R/TAB     3
CC0000008301142H202100000556423300000556423301/12/20211222     3300009237421964250000N2BE2200001252930000000000000                                                                             ACETAMINOFEN Tab 500 MGTAB     4
CC0000008301142H202100000556423300000556423301/12/20211221     3300009237421964250000N02BA100001276940000000000000                                                                  ACIDO ACETIL SALIC?LICO TAB 100 MGTAB     1
CC0000008301142H202100000556423300000556423301/12/20211222     3300009237421964250000A02BC700001684270000000000000                                                            OMEPRAZOL 40MG POLVO LIOFILIZADO AMPOLLAVAL     1
