CC0001082946637H202100015012618500015012618501/12/20211534    3150019223742196425000022426800001140510000000000000                                                                    EQUIPO MACROGOTEO BAXTER MRC0001SOB     1
CC0000042205934H202100015012618500015012618501/12/20211534    3150019223742196425000022426800001140510000000000000                                                                    EQUIPO MACROGOTEO BAXTER MRC0001SOB     1
CC0000043628162H202100015012618500015012618501/12/20211534    3150019223742196425000022426800001140510000000000000                                                                    EQUIPO MACROGOTEO BAXTER MRC0001SOB     1
CC0000022332856H202100015012618500015012618501/12/20211534    3150019223742196425000022426800001140510000000000000                                                                    EQUIPO MACROGOTEO BAXTER MRC0001SOB     1
CC0000073070310H202100015012618500015012618501/12/20211534    3150019223742196425000011082700001620070000000000000                                                               EQUIPO SET PRIMARIO C/CLAVE REF 14001BOL     1
CC0001082946637H202100015012618500015012618501/12/20211534    3150019223742196425000030936900001431840000000000000                                                                                              BURETABOL     1
CC0000042205934H202100015012618500015012618501/12/20211534    3150019223742196425000030936900001431840000000000000                                                                                              BURETABOL     1
CC0000043628162H202100015012618500015012618501/12/20211534    3150019223742196425000030936900001431840000000000000                                                                                              BURETABOL     1
CC0000022332856H202100015012618500015012618501/12/20211534    3150019223742196425000030936900001431840000000000000                                                                                              BURETABOL     1
CE0000000251843H202100015012618500015012618501/12/20211534    3150019223742196425000020056600001101530000000000000                                                                AGUJA HIPODERMICA DESECH 18G X 1 1/2SOB     6
CC0001140858021H202100015012618500015012618501/12/20211534    3150019223742196425000020056600001101530000000000000                                                                AGUJA HIPODERMICA DESECH 18G X 1 1/2SOB     6
CC0000018493432H202100015012618500015012618501/12/20211534    3150019223742196425000020056600001101530000000000000                                                                AGUJA HIPODERMICA DESECH 18G X 1 1/2SOB     6
