CC0000022530541H202100918515120100918515120101/12/20210820    3190330023742196425000024672100001609890000000000000                                                            JERINGA INSULINA 1ML TAPA NARANJA JEI013SOB    10
CC0000022530541H202100918515120100918515120101/12/20210926    3190224223742196425000024672100001609890000000000000                                                            JERINGA INSULINA 1ML TAPA NARANJA JEI013SOB    10
CC0000022530541H202100918515120100918515120101/12/20212256    3190093223742196425000011082700001620070000000000000                                                               EQUIPO SET PRIMARIO C/CLAVE REF 14001BOL     1
CC0000022530541H202100918515120100918515120101/12/20212256    3190093223742196425000030936900001431840000000000000                                                                                              BURETABOL     1
