CC0001143149865A202100000027816400000027816401/12/20211908    3190333624042196419000019429700000427120000000000000                                                                                      VENDA YESO 4*5BIN     1
CC0001143149865A202100000027816400000027816401/12/20211908    3190333624042196419000011082700001620070000000000000                                                               EQUIPO SET PRIMARIO C/CLAVE REF 14001BOL     1
CC0001143149865A202100000027816400000027816401/12/20211908    31903336240421964190000N07X0300003913670000000000000                                    DEXMEDETOMIDINA 400MCG/100ML(4MCG/ML) SOL INY BOL X 100ML BAXTERBOL     1
CC0001143149865A202100000027816400000027816401/12/20211908    3190333624042196419000011857700001096350000000000000                                                              AGUJA SONOPLEX BLOQUEO 21*100 01185-77BOL     1
CC0001143149865A202100000027816400000027816401/12/20211908    3190333624042196419000049419500001679890000000000000                                                                        VENDA ALGODON 3*5 NO ESTERILSOB     1
CC0001143149865A202100000027816400000027816401/12/20211908    3190333624042196419000049428200000860740000000000000                                                                       VENDA ELASTICA 3*5 NO ESTERILBOL     1
CC0001143149865A202100000027816400000027816401/12/20211908    3190333624042196419000045138000001413890000000000000                                                                       LAPIZ ELECTROBISTURI  SOB X 1SOB     1
CC0001143149865A202100000027816400000027816401/12/20211908    3190333624042196419000049419600001679900000000000000                                                                        VENDA ALGODON 4*5 NO ESTERILSOB     2
CC0001143149865A202100000027816400000027816401/12/20211908    3190333624042196419000049428300000860750000000000000                                                                       VENDA ELASTICA 4*5 NO ESTERILBOL     2
CC0001143149865A202100000027816400000027816401/12/20211908    3190333624042196419000019489000000599330000000000000                                                                           VICRYL 4-0 RB1 70 VCP304HSIN     1
CC0001143149865A202100000027816400000027816401/12/20211908    3190333624042196419000017566200001585160000000000000                                                                  PROLENE 4-0 AZ 45 PS2 PRIME P8682TSOB     1
CC0001143149865A202100000027816400000027816401/12/20211908    3190333624042196419000043879100001138200000000000000                                                                  HOJA BISTURI # 15 CSSB 15 01002003SOB     2
CC0001143149865A202100000027816400000027816401/12/20211908    3190333624042196419000022425200000548240000000000000                       EXTENSION DE ANESTESIA REF 1139 SOB X 1 SHERLEG  ADULTO BN EXENTO-DC.417/2020SIN     1
CC0001143149865A202100000027816400000027816401/12/20211908    3190333624042196419000035356500003919000000000000000                                                                                        LLAVE 3 VIASSOB     2
CC0001143149865A202100000027816400000027816401/12/20211908    31903336240421964190000Q1AA7100000610620000000000000                                                            CATETER PERIFE INTROCAN # 18G 4251687-04SIN     1
CC0001143149865A202100000027816400000027816401/12/20211908    3190333624042196419000022426800001140510000000000000                                                                    EQUIPO MACROGOTEO BAXTER MRC0001SOB     1
CC0001143149865A202100000027816400000027816401/12/20211908    3190333624042196419000016830000000970620000000000000                                                             SIST FIJACION CAT PERIFERICO 6.5X7 1683SOB     1
CC0001143149865A202100000027816400000027816401/12/20211908    31903336240421964190000J01DA300001239950000000000000                                                            CEFAZOLINA SODICA POLVO LIOF SLN INY 1 GVAL     2
CC0001143149865A202100000027816400000027816401/12/20211908    3190333624042196419000020750600000296780000000000000                                                                PLACA ELECTRO RETORNO PACIENTE E7506SIN     1
CC0001143149865A202100000027816400000027816401/12/20211908    3190333624042196419000053074400000607910000000000000                                                               GASA ESTERIL 10*10 SOBRE X 3 UNIDADESSOB     5
CC0001143149865A202100000027816400000027816401/12/20211908    3190333624042196419000011085300001082140000000000000                                                                           GUANTE QUIRURGICO TALLA 8SOB     1
CC0001143149865A202100000027816400000027816401/12/20211908    3190333624042196419000011085200001585390000000000000                                                                       GUANTE QUIRURGICO TALLA 7 1/2SOB     3
CC0001143149865A202100000027816400000027816401/12/20211908    3190333624042196419000011085100001082120000000000000                                                                           GUANTE QUIRURGICO TALLA 7SOB     2
CC0001143149865A202100000027816400000027816401/12/20211908    3190333624042196419000043485100001618510000000000000                GUANTE QUIRURGICO DE LATEX REF 2D72N65X CAJ X 50 PROTEXIS  6.5 BN EXENTO-DC.417/2020SOB     2
CC0001143149865A202100000027816400000027816401/12/20211908    3190333624042196419000038568100000258050000000000000                                                                         CANULA OXIGENO NASAL ADULTOSIN     1
CC0001143149865A202100000027816400000027816401/12/20211908    3190333624042196419000020058100001101630000000000000                                                                     AGUJA HIPODERMICA DESECH 23 X 1SOB     1
CC0001143149865A202100000027816400000027816401/12/20211908    3190333624042196419000024673600000222980000000000000                                                                     JERINGA DESECHABLE 5 ml 27*11/2SIN     2
CC0001143149865A202100000027816400000027816401/12/20211908    3190333624042196419000024674000001138340000000000000   JERINGA 3PARTES C/A 10ML REF JEHL005 CAJ X 100 ALFASAFE  21GX1 PULG 1/2 PULG BN EXENTO-DC.417/202PZA     2
CC0001143149865A202100000027816400000027816401/12/20211908    3190333624042196419000024674500000322810000000000000                                                                   JERINGA DESECHABLE 20 ml 21*1 1/2SIN     2
CC0001143149865A202100000027816400000027816401/12/20211908    31903336240421964190000E1AD0200003888320000000000000                                                                              HARTMAN SLN INY 500 MLBOL     1
CC0001143149865A202100000027816400000027816401/12/20211908    31903336240421964190000E1AB0300003888390000000000000                                                            SOLUCION SALINA 0.9% SLN INY BO X 500 MLBOL     3
CC0001143149865A202100000027816400000027816401/12/20211908    31903336240421964190000E1AB0700003888350000000000000                                                            SOLUCION SALINA 0.9% SLN INY BO X 250 MLBOL     1
CC0001143149865A202100000027816400000027816401/12/20211908    31903336240421964190000E1AB0200000199290000000000000                                                            SOLUCION SALINA 0.9% SLN INY BO X 100 MLBIN     1
CC0001143149865A202100000027816400000027816401/12/20211908    31903336240421964190000N02B1100001464120000000000000                                           PARACETAMOL EP 1000MG/100ML(10MG/ML) SOL INY  CAJ X 10FCOVAL     1
CC0001143149865A202100000027816400000027816401/12/20211908    31903336240421964190000A2BC0900000200150000000000000                                                                               ORAZOLE Sln Iny 40 mgCIN     1
CC0001143149865A202100000027816400000027816401/12/20211908    31903336240421964190000M01A0400001341250000000000000                                                                              DYNASTAT AMP 40 MG /R/VAL     1
CC0001143149865A202100000027816400000027816401/12/20211908    31903336240421964190000A4AD0200000202990000000000000                                                                     PLITICAN HCL Sln Iny 50 mg/2 mlAMP     1
CC0001143149865A202100000027816400000027816401/12/20211908    31903336240421964190000N01B1300001195250000000000000                                                                         BUPIROP 0.5% S/EPIN X 10 MLAMP     2
CC0001143149865A202100000027816400000027816401/12/20211908    31903336240421964190000N5CD0300000218170000000000000                                                              DORMICUM IV-IM 5MG/5ML(1MG/ML) SOL INYAMP     1
CC0001143149865A202100000027816400000027816401/12/20211908    31903336240421964190000N1AH0200003906560000000000000                                                                     FENTANIL Iny 0.05 mg/ml x 10 mlAMP     1
