CC0000032747661U202100000556420200000556420201/12/20210620    31900925239421964320000E1AB0700003888350000000000000                                                            SOLUCION SALINA 0.9% SLN INY BO X 250 MLBOL     1
CC0000032747661U202100000556420200000556420201/12/20211923    31500263239421964320000E1AB0300003888390000000000000                                                            SOLUCION SALINA 0.9% SLN INY BO X 500 MLBOL     1
CC0000032747661U202100000556420200000556420201/12/20211446    31500263239421964320000E1AB0500003888400000000000000                                                              SOLUCION SALINA 0.9% SLN INY X 1000 MLBOL     1
CC0000032747661U202100000556420200000556420201/12/20210523    31900925239421964320000E1AB0500003888400000000000000                                                              SOLUCION SALINA 0.9% SLN INY X 1000 MLBOL     2
CC0000032747661U202100000556420200000556420201/12/20211923    31500263239421964320000E1AD0200003888320000000000000                                                                              HARTMAN SLN INY 500 MLBOL     1
CC0000032747661U202100000556420200000556420201/12/20211923    31500263239421964320000E1AD0300000199490000000000000                                         LACTATO RINGER USP (HARTMANN)  SOL INY  BOL X 1000ML BAXTERBIN     1
CC0000032747661U202100000556420200000556420201/12/20211601     3300010239421964320000A12BA100000552980000000000000                                                            CLORURO POTASIO Sln Iny AMP 20 MEQ/10 MLAMP     1
CC0000032747661U202100000556420200000556420201/12/20212235     3300010239421964320000N2AA0200000301600000000000000                                                                        HIDROMORFONA Sln Iny 2 mg/mlAMP     1
CC0000032747661U202100000556420200000556420201/12/20211059     3300010239421964320000N2AA0200000301600000000000000                                                                        HIDROMORFONA Sln Iny 2 mg/mlAMP     1
CC0000032747661U202100000556420200000556420201/12/20211915     3300010239421964320000J01D1200001239960000000000000                                                                              CEFEPIME POLVO INY 1 GVAL     2
CC0000032747661U202100000556420200000556420201/12/20211059     3300010239421964320000J01D1200001239960000000000000                                                                              CEFEPIME POLVO INY 1 GVAL     2
CC0000032747661U202100000556420200000556420201/12/20211100     3300010239421964320000N2BE2200001252930000000000000                                                                             ACETAMINOFEN Tab 500 MGTAB     2
