RC0001063188076H202100000556424800000556424801/12/20210613    31902291237421964250000E1AC0100000199400000000000000                                                                          SUERO MIXTO Sln Iny 500 mlBIN     1
RC0001063188076H202100000556424800000556424801/12/20211123    31903307237421964250000E1AB0200000199290000000000000                                                            SOLUCION SALINA 0.9% SLN INY BO X 100 MLBIN     1
RC0001063188076H202100000556424800000556424801/12/20212320     3300009237421964250000C03C0100001672000000000000000                                                                       FUROSEMIDA SLN INY 20 MG/2 MLAMP     1
RC0001063188076H202100000556424800000556424801/12/20211025     3300003237421964250000C03C0100001672000000000000000                                                                       FUROSEMIDA SLN INY 20 MG/2 MLAMP     1
RC0001063188076H202100000556424800000556424801/12/20210633     3300010237421964250000C03C0100001672000000000000000                                                                       FUROSEMIDA SLN INY 20 MG/2 MLAMP     2
RC0001063188076H202100000556424800000556424801/12/20211025     3300003237421964250000C09AA300001353220000000000000                                                                                   ENALAPRIL TAB 5MGTAB     1
RC0001063188076H202100000556424800000556424801/12/20210633     3300010237421964250000C09AA300001353220000000000000                                                                                   ENALAPRIL TAB 5MGTAB     1
RC0001063188076H202100000556424800000556424801/12/20211815     3300009237421964250000N2BB0100001672010000000000000                                  DIPIRONA 1GR/2ML(0.5GR/ML) SOL INY INST CAJ X 100AMP X 2ML VITALISAMP     1
RC0001063188076H202100000556424800000556424801/12/20211025     3300003237421964250000N2BB0100001672010000000000000                                  DIPIRONA 1GR/2ML(0.5GR/ML) SOL INY INST CAJ X 100AMP X 2ML VITALISAMP     1
RC0001063188076H202100000556424800000556424801/12/20210633     3300010237421964250000N2BB0100001672010000000000000                                  DIPIRONA 1GR/2ML(0.5GR/ML) SOL INY INST CAJ X 100AMP X 2ML VITALISAMP     1
RC0001063188076H202100000556424800000556424801/12/20211025     3300003237421964250000A02BC700001684270000000000000                                                            OMEPRAZOL 40MG POLVO LIOFILIZADO AMPOLLAVAL     1
RC0001063188076H202100000556424800000556424801/12/20210634     3300010237421964250000A02BC700001684270000000000000                                                            OMEPRAZOL 40MG POLVO LIOFILIZADO AMPOLLAVAL     1
