CC0000022657866U202100050131872800050131872801/12/20211526    3190145323942196432000024674000001138340000000000000   JERINGA 3PARTES C/A 10ML REF JEHL005 CAJ X 100 ALFASAFE  21GX1 PULG 1/2 PULG BN EXENTO-DC.417/202PZA     2
CC0000022657866U202100050131872800050131872801/12/20211526    3190145323942196432000024673600000222980000000000000                                                                     JERINGA DESECHABLE 5 ml 27*11/2SIN     1
CC0000022657866U202100050131872800050131872801/12/20211526    3190145323942196432000011047900000223010000000000000                                                                            JERINGA X 1ML REF 302579SIN     1
CC0000022657866U202100050131872800050131872801/12/20211526    31901453239421964320000E1AB0200000199290000000000000                                                            SOLUCION SALINA 0.9% SLN INY BO X 100 MLBIN     1
