RC0001125232601U202100000556448000000556448001/12/20211929    31500647239421964320000E1AA0100003888590000000000000                                                                        DEXTROSA 5% Sln Iny X 500 mlBOL     1
RC0001125232601U202100000556448000000556448001/12/20211641    31901806239421964320000E1AD0200003888320000000000000                                                                              HARTMAN SLN INY 500 MLBOL     1
RC0001125232601U202100000556448000000556448001/12/20211827     3300010239421964320000A12CA100001109460000000000000                                                              CLORURO SODIO SLN INY 2 MEQ/ML X 10 MLAMP     2
RC0001125232601U202100000556448000000556448001/12/20211827     3300010239421964320000A12BA100000552980000000000000                                                            CLORURO POTASIO Sln Iny AMP 20 MEQ/10 MLAMP     1
RC0001125232601U202100000556448000000556448001/12/20211827     3300010239421964320000J01GB300001109550000000000000                                                                      AMIKACINA SLN INY 100 MG/ 2 MLAMP     1
RC0001125232601U202100000556448000000556448001/12/20211552     3300010239421964320000N2BB0100001672010000000000000                                  DIPIRONA 1GR/2ML(0.5GR/ML) SOL INY INST CAJ X 100AMP X 2ML VITALISAMP     1
