RC0001063188076H202100015122542600015122542601/12/20210031    3190100923742196425000011057100000525810000000000000                                                                  NIPLE CONECTOR REF 001840 CARDINALPZA     1
RC0001063188076H202100015122542600015122542601/12/20210031    31901009237421964250000Q0000200000473250000000000000                                                                             INHALOCAMARA PEDIATRICACIN     1
RC0001063188076H202100015122542600015122542601/12/20210031    3190100923742196425000043995200000229010000000000000                                                               HUMIDIFICADOR PARA OXIGENO REF. H001BBOL     1
RC0001063188076H202100015122542600015122542601/12/20210031    3190100923742196425000011077200001679930000000000000                                                                  CIRCUITO DESECHABLE AIRVO 900PT501BOL     1
RC0001063188076H202100015122542600015122542601/12/20210031    3190100923742196425000001200900001294660000000000000                                                                CANULA NASAL PED REF OPT318 OPTIFLOWPZA     1
RC0001063188076H202100015122542600015122542601/12/20210031    31901009237421964250000Q1A11800000258040000000000000                                                                         CANULA OXIGENO NASAL PEDIATSIN     1
