CC0000000800641H202100015032642100015032642101/12/20211638    3190305023742196425000030161400001459220000000000000                                                                       MANGUERA SUCCION 6 MM*3.1 MTSSOB     1
CC0000000800641H202100015032642100015032642101/12/20211638    3190305023742196425000038569400000256750000000000000                                                                        SONDA ASPIRACION CONTROL #14SIN    10
CC0000000800641H202100015032642100015032642101/12/20211638    3190305023742196425000024674000001138340000000000000   JERINGA 3PARTES C/A 10ML REF JEHL005 CAJ X 100 ALFASAFE  21GX1 PULG 1/2 PULG BN EXENTO-DC.417/202PZA     2
CC0000022467890H202100015032642100015032642101/12/20211638    3190305023742196425000013077800000471960000000000000                                                             GASA NO TEJIDA EST 7.5 X 7.5 SOB X 3 UNSOB    10
CC0000000800641H202100015032642100015032642101/12/20211638    3190305023742196425000013077800000471960000000000000                                                             GASA NO TEJIDA EST 7.5 X 7.5 SOB X 3 UNSOB    10
CC0000000800641H202100015032642100015032642101/12/20211638    3190305023742196425000020816000001096410000000000000                                                                          LINER PARED DELGADA 1500CCBOL     1
