CC0000032756709H202100000025036700000025036701/12/20211509    3190301623742196425000036441300000236540000000000000                                                                    JERINGA 1 ML GASES ARTERIAL 9023SIN     1
CC0000022390959H202100000025036700000025036701/12/20211509    3190301623742196425000036441300000236540000000000000                                                                    JERINGA 1 ML GASES ARTERIAL 9023SIN     1
CC0001048211112H202100000025036700000025036701/12/20211509    3190301623742196425000036441300000236540000000000000                                                                    JERINGA 1 ML GASES ARTERIAL 9023SIN     1
CC0001047496376H202100000025036700000025036701/12/20211509    3190301623742196425000036441300000236540000000000000                                                                    JERINGA 1 ML GASES ARTERIAL 9023SIN     1
CC0001082046014H202100000025036700000025036701/12/20211509    3190301623742196425000036441300000236540000000000000                                                                    JERINGA 1 ML GASES ARTERIAL 9023SIN     1
CC0000032756709H202100000025036700000025036701/12/20211509    3190301623742196425000024674000001138340000000000000   JERINGA 3PARTES C/A 10ML REF JEHL005 CAJ X 100 ALFASAFE  21GX1 PULG 1/2 PULG BN EXENTO-DC.417/202PZA     4
CC0000022390959H202100000025036700000025036701/12/20211509    3190301623742196425000024674000001138340000000000000   JERINGA 3PARTES C/A 10ML REF JEHL005 CAJ X 100 ALFASAFE  21GX1 PULG 1/2 PULG BN EXENTO-DC.417/202PZA     4
CC0001048211112H202100000025036700000025036701/12/20211509    3190301623742196425000024674000001138340000000000000   JERINGA 3PARTES C/A 10ML REF JEHL005 CAJ X 100 ALFASAFE  21GX1 PULG 1/2 PULG BN EXENTO-DC.417/202PZA     4
CC0001047496376H202100000025036700000025036701/12/20211509    3190301623742196425000024674000001138340000000000000   JERINGA 3PARTES C/A 10ML REF JEHL005 CAJ X 100 ALFASAFE  21GX1 PULG 1/2 PULG BN EXENTO-DC.417/202PZA     4
CC0001082046014H202100000025036700000025036701/12/20211509    3190301623742196425000024674000001138340000000000000   JERINGA 3PARTES C/A 10ML REF JEHL005 CAJ X 100 ALFASAFE  21GX1 PULG 1/2 PULG BN EXENTO-DC.417/202PZA     4
CC0000022458420H202100000025036700000025036701/12/20211509    3190301623742196425000024674000001138340000000000000   JERINGA 3PARTES C/A 10ML REF JEHL005 CAJ X 100 ALFASAFE  21GX1 PULG 1/2 PULG BN EXENTO-DC.417/202PZA     4
CC0000008660341H202100000025036700000025036701/12/20211509    3190301623742196425000024674000001138340000000000000   JERINGA 3PARTES C/A 10ML REF JEHL005 CAJ X 100 ALFASAFE  21GX1 PULG 1/2 PULG BN EXENTO-DC.417/202PZA     4
CC0000032672442H202100000025036700000025036701/12/20211509    3190301623742196425000024674000001138340000000000000   JERINGA 3PARTES C/A 10ML REF JEHL005 CAJ X 100 ALFASAFE  21GX1 PULG 1/2 PULG BN EXENTO-DC.417/202PZA     4
CC0000026837843H202100000025036700000025036701/12/20211509    3190301623742196425000024674000001138340000000000000   JERINGA 3PARTES C/A 10ML REF JEHL005 CAJ X 100 ALFASAFE  21GX1 PULG 1/2 PULG BN EXENTO-DC.417/202PZA     4
CC0000032756709H202100000025036700000025036701/12/20211509    3190301623742196425000024673600000222980000000000000                                                                     JERINGA DESECHABLE 5 ml 27*11/2SIN     1
CC0000022390959H202100000025036700000025036701/12/20211509    3190301623742196425000024673600000222980000000000000                                                                     JERINGA DESECHABLE 5 ml 27*11/2SIN     1
CC0001048211112H202100000025036700000025036701/12/20211509    3190301623742196425000024673600000222980000000000000                                                                     JERINGA DESECHABLE 5 ml 27*11/2SIN     1
CC0001047496376H202100000025036700000025036701/12/20211509    3190301623742196425000024673600000222980000000000000                                                                     JERINGA DESECHABLE 5 ml 27*11/2SIN     1
CC0001082046014H202100000025036700000025036701/12/20211509    3190301623742196425000024673600000222980000000000000                                                                     JERINGA DESECHABLE 5 ml 27*11/2SIN     1
CC0000022458420H202100000025036700000025036701/12/20211509    3190301623742196425000024673600000222980000000000000                                                                     JERINGA DESECHABLE 5 ml 27*11/2SIN     1
CC0000008660341H202100000025036700000025036701/12/20211509    3190301623742196425000024673600000222980000000000000                                                                     JERINGA DESECHABLE 5 ml 27*11/2SIN     1
CC0000032672442H202100000025036700000025036701/12/20211509    3190301623742196425000024673600000222980000000000000                                                                     JERINGA DESECHABLE 5 ml 27*11/2SIN     1
CC0000026837843H202100000025036700000025036701/12/20211509    3190301623742196425000024673600000222980000000000000                                                                     JERINGA DESECHABLE 5 ml 27*11/2SIN     1
CC0000032756709H202100000025036700000025036701/12/20211509    3190301623742196425000000102300000222960000000000000                                                                 JERINGA DESECHABLE SIN AGUJA X 20mLSIN     1
CC0000022390959H202100000025036700000025036701/12/20211509    3190301623742196425000000102300000222960000000000000                                                                 JERINGA DESECHABLE SIN AGUJA X 20mLSIN     1
CC0001048211112H202100000025036700000025036701/12/20211509    3190301623742196425000000102300000222960000000000000                                                                 JERINGA DESECHABLE SIN AGUJA X 20mLSIN     1
CC0001047496376H202100000025036700000025036701/12/20211509    3190301623742196425000000102300000222960000000000000                                                                 JERINGA DESECHABLE SIN AGUJA X 20mLSIN     1
CC0001082046014H202100000025036700000025036701/12/20211509    3190301623742196425000000102300000222960000000000000                                                                 JERINGA DESECHABLE SIN AGUJA X 20mLSIN     1
CC0000022458420H202100000025036700000025036701/12/20211509    3190301623742196425000000102300000222960000000000000                                                                 JERINGA DESECHABLE SIN AGUJA X 20mLSIN     1
CC0000008660341H202100000025036700000025036701/12/20211509    3190301623742196425000000102300000222960000000000000                                                                 JERINGA DESECHABLE SIN AGUJA X 20mLSIN     1
CC0000032672442H202100000025036700000025036701/12/20211509    3190301623742196425000000102300000222960000000000000                                                                 JERINGA DESECHABLE SIN AGUJA X 20mLSIN     1
CC0000032756709H202100000025036700000025036701/12/20211509    3190301623742196425000043879200001138180000000000000                                                                                   HOJA BISTURI # 11SOB     1
CC0000022390959H202100000025036700000025036701/12/20211509    3190301623742196425000043879200001138180000000000000                                                                                   HOJA BISTURI # 11SOB     1
CC0001048211112H202100000025036700000025036701/12/20211509    3190301623742196425000043879200001138180000000000000                                                                                   HOJA BISTURI # 11SOB     1
CC0001047496376H202100000025036700000025036701/12/20211509    3190301623742196425000043879200001138180000000000000                                                                                   HOJA BISTURI # 11SOB     1
CC0001082046014H202100000025036700000025036701/12/20211509    3190301623742196425000043879200001138180000000000000                                                                                   HOJA BISTURI # 11SOB     1
CC0000022458420H202100000025036700000025036701/12/20211509    3190301623742196425000043879200001138180000000000000                                                                                   HOJA BISTURI # 11SOB     1
CC0000008660341H202100000025036700000025036701/12/20211509    3190301623742196425000043879200001138180000000000000                                                                                   HOJA BISTURI # 11SOB     1
CC0000032672442H202100000025036700000025036701/12/20211509    3190301623742196425000043879200001138180000000000000                                                                                   HOJA BISTURI # 11SOB     1
CC0000026837843H202100000025036700000025036701/12/20211509    3190301623742196425000043879200001138180000000000000                                                                                   HOJA BISTURI # 11SOB     1
CC0000032756709H202100000025036700000025036701/12/20211509    3190301623742196425000043485100001618510000000000000                GUANTE QUIRURGICO DE LATEX REF 2D72N65X CAJ X 50 PROTEXIS  6.5 BN EXENTO-DC.417/2020SOB     2
CC0000022390959H202100000025036700000025036701/12/20211509    3190301623742196425000043485100001618510000000000000                GUANTE QUIRURGICO DE LATEX REF 2D72N65X CAJ X 50 PROTEXIS  6.5 BN EXENTO-DC.417/2020SOB     2
CC0001048211112H202100000025036700000025036701/12/20211509    3190301623742196425000043485100001618510000000000000                GUANTE QUIRURGICO DE LATEX REF 2D72N65X CAJ X 50 PROTEXIS  6.5 BN EXENTO-DC.417/2020SOB     2
CC0001047496376H202100000025036700000025036701/12/20211509    3190301623742196425000043485100001618510000000000000                GUANTE QUIRURGICO DE LATEX REF 2D72N65X CAJ X 50 PROTEXIS  6.5 BN EXENTO-DC.417/2020SOB     4
CC0001082046014H202100000025036700000025036701/12/20211509    3190301623742196425000043485100001618510000000000000                GUANTE QUIRURGICO DE LATEX REF 2D72N65X CAJ X 50 PROTEXIS  6.5 BN EXENTO-DC.417/2020SOB     4
CC0000022458420H202100000025036700000025036701/12/20211509    3190301623742196425000043485100001618510000000000000                GUANTE QUIRURGICO DE LATEX REF 2D72N65X CAJ X 50 PROTEXIS  6.5 BN EXENTO-DC.417/2020SOB     4
CC0000008660341H202100000025036700000025036701/12/20211509    3190301623742196425000043485100001618510000000000000                GUANTE QUIRURGICO DE LATEX REF 2D72N65X CAJ X 50 PROTEXIS  6.5 BN EXENTO-DC.417/2020SOB     4
CC0000032672442H202100000025036700000025036701/12/20211509    3190301623742196425000043485100001618510000000000000                GUANTE QUIRURGICO DE LATEX REF 2D72N65X CAJ X 50 PROTEXIS  6.5 BN EXENTO-DC.417/2020SOB     2
CC0000026837843H202100000025036700000025036701/12/20211509    3190301623742196425000043485100001618510000000000000                GUANTE QUIRURGICO DE LATEX REF 2D72N65X CAJ X 50 PROTEXIS  6.5 BN EXENTO-DC.417/2020SOB     2
CC0000032756709H202100000025036700000025036701/12/20211509    3190301623742196425000011089300001083990000000000000                                                              GUANTE ESTERIL LATEX S/POLVO TALLA 7.5SOB     3
CC0000022390959H202100000025036700000025036701/12/20211509    3190301623742196425000011089300001083990000000000000                                                              GUANTE ESTERIL LATEX S/POLVO TALLA 7.5SOB     3
CC0001048211112H202100000025036700000025036701/12/20211509    3190301623742196425000011089300001083990000000000000                                                              GUANTE ESTERIL LATEX S/POLVO TALLA 7.5SOB     3
CC0001047496376H202100000025036700000025036701/12/20211509    3190301623742196425000011089300001083990000000000000                                                              GUANTE ESTERIL LATEX S/POLVO TALLA 7.5SOB     3
CC0001082046014H202100000025036700000025036701/12/20211509    3190301623742196425000011089300001083990000000000000                                                              GUANTE ESTERIL LATEX S/POLVO TALLA 7.5SOB     3
CC0000022458420H202100000025036700000025036701/12/20211509    3190301623742196425000011089300001083990000000000000                                                              GUANTE ESTERIL LATEX S/POLVO TALLA 7.5SOB     3
CC0000008660341H202100000025036700000025036701/12/20211509    3190301623742196425000011089300001083990000000000000                                                              GUANTE ESTERIL LATEX S/POLVO TALLA 7.5SOB     3
CC0000032672442H202100000025036700000025036701/12/20211509    3190301623742196425000011089300001083990000000000000                                                              GUANTE ESTERIL LATEX S/POLVO TALLA 7.5SOB     3
CC0000026837843H202100000025036700000025036701/12/20211509    3190301623742196425000011089300001083990000000000000                                                              GUANTE ESTERIL LATEX S/POLVO TALLA 7.5SOB     3
CC0000032756709H202100000025036700000025036701/12/20211509    3190301623742196425000013077800000471960000000000000                                                             GASA NO TEJIDA EST 7.5 X 7.5 SOB X 3 UNSOB     5
CC0000022390959H202100000025036700000025036701/12/20211509    3190301623742196425000013077800000471960000000000000                                                             GASA NO TEJIDA EST 7.5 X 7.5 SOB X 3 UNSOB     5
CC0001048211112H202100000025036700000025036701/12/20211509    3190301623742196425000013077800000471960000000000000                                                             GASA NO TEJIDA EST 7.5 X 7.5 SOB X 3 UNSOB     5
CC0001047496376H202100000025036700000025036701/12/20211509    3190301623742196425000013077800000471960000000000000                                                             GASA NO TEJIDA EST 7.5 X 7.5 SOB X 3 UNSOB     5
CC0001082046014H202100000025036700000025036701/12/20211509    3190301623742196425000013077800000471960000000000000                                                             GASA NO TEJIDA EST 7.5 X 7.5 SOB X 3 UNSOB     5
CC0000022458420H202100000025036700000025036701/12/20211509    3190301623742196425000013077800000471960000000000000                                                             GASA NO TEJIDA EST 7.5 X 7.5 SOB X 3 UNSOB     5
CC0000008660341H202100000025036700000025036701/12/20211509    3190301623742196425000013077800000471960000000000000                                                             GASA NO TEJIDA EST 7.5 X 7.5 SOB X 3 UNSOB     5
CC0000032672442H202100000025036700000025036701/12/20211509    3190301623742196425000013077800000471960000000000000                                                             GASA NO TEJIDA EST 7.5 X 7.5 SOB X 3 UNSOB     5
CC0000026837843H202100000025036700000025036701/12/20211509    3190301623742196425000013077800000471960000000000000                                                             GASA NO TEJIDA EST 7.5 X 7.5 SOB X 3 UNSOB     5
CC0001082046014H202100000025036700000025036701/12/20211509    3190301623742196425000038568100000258050000000000000                                                                         CANULA OXIGENO NASAL ADULTOSIN     1
CC0000022458420H202100000025036700000025036701/12/20211509    3190301623742196425000038568100000258050000000000000                                                                         CANULA OXIGENO NASAL ADULTOSIN     1
CC0000008660341H202100000025036700000025036701/12/20211509    3190301623742196425000038568100000258050000000000000                                                                         CANULA OXIGENO NASAL ADULTOSIN     1
CC0000032756709H202100000025036700000025036701/12/20211509    3190301623742196425000000101000001101640000000000000                                                                  AGUJA DESECHABLE  23G X 1 1/2 PULGSOB     2
CC0000022390959H202100000025036700000025036701/12/20211509    3190301623742196425000000101000001101640000000000000                                                                  AGUJA DESECHABLE  23G X 1 1/2 PULGSOB     2
CC0001048211112H202100000025036700000025036701/12/20211509    3190301623742196425000000101000001101640000000000000                                                                  AGUJA DESECHABLE  23G X 1 1/2 PULGSOB     2
CC0001047496376H202100000025036700000025036701/12/20211509    3190301623742196425000000101000001101640000000000000                                                                  AGUJA DESECHABLE  23G X 1 1/2 PULGSOB     2
CC0001082046014H202100000025036700000025036701/12/20211509    3190301623742196425000000101000001101640000000000000                                                                  AGUJA DESECHABLE  23G X 1 1/2 PULGSOB     2
CC0000022458420H202100000025036700000025036701/12/20211509    3190301623742196425000000101000001101640000000000000                                                                  AGUJA DESECHABLE  23G X 1 1/2 PULGSOB     2
CC0000008660341H202100000025036700000025036701/12/20211509    3190301623742196425000000101000001101640000000000000                                                                  AGUJA DESECHABLE  23G X 1 1/2 PULGSOB     2
CC0000032672442H202100000025036700000025036701/12/20211509    3190301623742196425000000101000001101640000000000000                                                                  AGUJA DESECHABLE  23G X 1 1/2 PULGSOB     2
CC0000026837843H202100000025036700000025036701/12/20211509    3190301623742196425000000101000001101640000000000000                                                                  AGUJA DESECHABLE  23G X 1 1/2 PULGSOB     2
TI0001014883388H202100000025036700000025036701/12/20211509    3190301623742196425000000101000001101640000000000000                                                                  AGUJA DESECHABLE  23G X 1 1/2 PULGSOB     2
CC0000032658186H202100000025036700000025036701/12/20211509    3190301623742196425000000101000001101640000000000000                                                                  AGUJA DESECHABLE  23G X 1 1/2 PULGSOB     2
CC0000008660341H202100000025036700000025036701/12/20211509    31903016237421964250000V4AF1000003850710000000000000                                                                    OMNIPAQUE Sln Iny 300 mg x 50 mlFCO     4
