CC0000009240037A202100000027810800000027810801/12/20211445    3190333624042196419000045723200000438720000000000000                                                                                  MECHA GINECOLOGICABIN     1
CC0000009240037A202100000027810800000027810801/12/20211445    3190333624042196419000043879200001138180000000000000                                                                                   HOJA BISTURI # 11SOB     1
CC0000009240037A202100000027810800000027810801/12/20211445    31903336240421964190000N1BA0300000217900000000000000                                                                    BUPIROP 0.5% C/E Sln Iny x 20 mlVAL     1
CC0000009240037A202100000027810800000027810801/12/20211445    31903336240421964190000M03AB200001371510000000000000                                                             SUCCINILCOLINA SNL INY 100MG/ML X 10 MLVAL     1
CC0000009240037A202100000027810800000027810801/12/20211445    3190333624042196419000029988900000516610000000000000                                                             TUBO ENDOTRAQ 6.0 C/B Y ESPIRAL INTERNASIN     1
CC0000009240037A202100000027810800000027810801/12/20211445    31903336240421964190000N01A0400003939010000000000000                                               MAYOPROFOL 200MG/20ML(1%) EMUL INY CAJ X 1VIAL X 20MLVAL     1
CC0000009240037A202100000027810800000027810801/12/20211445    31903336240421964190000N01A0500003844190000000000000                                                                          REMIFENTANILO SLN INY 2 MGVAL     1
CC0000009240037A202100000027810800000027810801/12/20211445    3190333624042196419000019488700000753270000000000000                                                                              VICRYL 3-0 SH1 VCP311HSOB     1
CC0000009240037A202100000027810800000027810801/12/20211445    3190333624042196419000000101000001101640000000000000                                                                  AGUJA DESECHABLE  23G X 1 1/2 PULGSOB     1
CC0000009240037A202100000027810800000027810801/12/20211445    31903336240421964190000N01B1200000220020000000000000                                                                        ROXICAINA 1% C/E Iny x 20 mlFCO     1
CC0000009240037A202100000027810800000027810801/12/20211445    3190333624042196419000045138000001413890000000000000                                                                       LAPIZ ELECTROBISTURI  SOB X 1SOB     1
CC0000009240037A202100000027810800000027810801/12/20211445    3190333624042196419000043879100001138200000000000000                                                                  HOJA BISTURI # 15 CSSB 15 01002003SOB     1
CC0000009240037A202100000027810800000027810801/12/20211445    3190333624042196419000022425200000548240000000000000                       EXTENSION DE ANESTESIA REF 1139 SOB X 1 SHERLEG  ADULTO BN EXENTO-DC.417/2020SIN     1
CC0000009240037A202100000027810800000027810801/12/20211445    3190333624042196419000035356500003919000000000000000                                                                                        LLAVE 3 VIASSOB     1
CC0000009240037A202100000027810800000027810801/12/20211445    3190333624042196419000022426800001140510000000000000                                                                    EQUIPO MACROGOTEO BAXTER MRC0001SOB     1
CC0000009240037A202100000027810800000027810801/12/20211445    3190333624042196419000030161400001459220000000000000                                                                       MANGUERA SUCCION 6 MM*3.1 MTSSOB     1
CC0000009240037A202100000027810800000027810801/12/20211445    3190333624042196419000011073300001096420000000000000                                                                BOLSA DE SUCCION DE FLUIDOS x 2500mLBOL     1
CC0000009240037A202100000027810800000027810801/12/20211445    3190333624042196419000020750600000296780000000000000                                                                PLACA ELECTRO RETORNO PACIENTE E7506SIN     1
CC0000009240037A202100000027810800000027810801/12/20211445    3190333624042196419000051515500000598160000000000000                                                                            MASCARILLA ANESTESIA # 5SIN     1
CC0000009240037A202100000027810800000027810801/12/20211445    3190333624042196419000053074400000607910000000000000                                                               GASA ESTERIL 10*10 SOBRE X 3 UNIDADESSOB     2
CC0000009240037A202100000027810800000027810801/12/20211445    3190333624042196419000011085300001082140000000000000                                                                           GUANTE QUIRURGICO TALLA 8SOB     1
CC0000009240037A202100000027810800000027810801/12/20211445    3190333624042196419000011085200001585390000000000000                                                                       GUANTE QUIRURGICO TALLA 7 1/2SOB     1
CC0000009240037A202100000027810800000027810801/12/20211445    3190333624042196419000011085100001082120000000000000                                                                           GUANTE QUIRURGICO TALLA 7SOB     1
CC0000009240037A202100000027810800000027810801/12/20211445    3190333624042196419000043485100001618510000000000000                GUANTE QUIRURGICO DE LATEX REF 2D72N65X CAJ X 50 PROTEXIS  6.5 BN EXENTO-DC.417/2020SOB     3
CC0000009240037A202100000027810800000027810801/12/20211445    3190333624042196419000024673600000222980000000000000                                                                     JERINGA DESECHABLE 5 ml 27*11/2SIN     1
CC0000009240037A202100000027810800000027810801/12/20211445    3190333624042196419000024674000001138340000000000000   JERINGA 3PARTES C/A 10ML REF JEHL005 CAJ X 100 ALFASAFE  21GX1 PULG 1/2 PULG BN EXENTO-DC.417/202PZA     5
CC0000009240037A202100000027810800000027810801/12/20211445    3190333624042196419000024674500000322810000000000000                                                                   JERINGA DESECHABLE 20 ml 21*1 1/2SIN     2
CC0000009240037A202100000027810800000027810801/12/20211445    31903336240421964190000E1AB0700003888350000000000000                                                            SOLUCION SALINA 0.9% SLN INY BO X 250 MLBOL     2
CC0000009240037A202100000027810800000027810801/12/20211445    31903336240421964190000E1AB0300003888390000000000000                                                            SOLUCION SALINA 0.9% SLN INY BO X 500 MLBOL     3
CC0000009240037A202100000027810800000027810801/12/20211445    31903336240421964190000N1BA2400001687720000000000000                                                    LIDOCAINA 2% SOL INY  CAJ X 50AMP X 10ML CORPAULAMP     1
CC0000009240037A202100000027810800000027810801/12/20211445    31903336240421964190000A03F0300001626860000000000000                                                                   METOCLOPRAMIDA SLN INY 10 MG/2 MLAMP     1
CC0000009240037A202100000027810800000027810801/12/20211445    31903336240421964190000N2BB0100001672010000000000000                                  DIPIRONA 1GR/2ML(0.5GR/ML) SOL INY INST CAJ X 100AMP X 2ML VITALISAMP     2
CC0000009240037A202100000027810800000027810801/12/20211445    31903336240421964190000H02A0100001664960000000000000                                                                        DEXAMETASONA SLN INY 4 MG/MLAMP     2
