CE0000000251843H202100000556429400000556429401/12/20210859    31903331237421964250000E1AB0700003888350000000000000                                                            SOLUCION SALINA 0.9% SLN INY BO X 250 MLBOL     4
CE0000000251843H202100000556429400000556429401/12/20211855    31902961237421964250000E1AB0500003888400000000000000                                                              SOLUCION SALINA 0.9% SLN INY X 1000 MLBOL     1
CE0000000251843H202100000556429400000556429401/12/20210915     3300003237421964250000J1CB1800001134180000000000000                                                                             TAZOCIN Polvo Iny 4.5 gVAL     3
CE0000000251843H202100000556429400000556429401/12/20211644     3300009237421964250000J01XA400001212420000000000000                                                               VANCOMICINA POLVO LIOF SLN INY 500 MGVAL     6
CE0000000251843H202100000556429400000556429401/12/20211643     3300009237421964250000J01XA400001212420000000000000                                                               VANCOMICINA POLVO LIOF SLN INY 500 MGVAL     2
CE0000000251843H202100000556429400000556429401/12/20210915     3300003237421964250000N02B1100001464120000000000000                                           PARACETAMOL EP 1000MG/100ML(10MG/ML) SOL INY  CAJ X 10FCOVAL     3
