CC0001010146343H202100000556428900000556428901/12/20211921     3300009237421964250000J01FF200003888100000000000000                                                                             EUROCLIN SLN INY 600 MGAMP     4
CC0001010146343H202100000556428900000556428901/12/20210922     3300003237421964250000J01FF100001314420000000000000                                                                         CLINDAMICINA CAP 300 MG /R/CAP     5
CC0001010146343H202100000556428900000556428901/12/20212356     3300004237421964250000J1KD1200001361080000000000000                                                                     GENTAMICINA SLN INY 160 MG/2 MLAMP     1
CC0001010146343H202100000556428900000556428901/12/20210923     3300003237421964250000M01A1400001302580000000000000                                                                              ARCOXIA Tab 120 mg /R/TAB     1
CC0001010146343H202100000556428900000556428901/12/20211431     3300009237421964250000N02B1100001464120000000000000                                           PARACETAMOL EP 1000MG/100ML(10MG/ML) SOL INY  CAJ X 10FCOVAL     1
CC0001010146343H202100000556428900000556428901/12/20210924     3300003237421964250000N02B1100001464120000000000000                                           PARACETAMOL EP 1000MG/100ML(10MG/ML) SOL INY  CAJ X 10FCOVAL     2
