CC0000032703947U202100000556439800000556439801/12/20211214     3300010239421964320000A2BC0900000200150000000000000                                                                               ORAZOLE Sln Iny 40 mgCIN     1
CC0000032703947U202100000556439800000556439801/12/20211205    31500589239421964320000E1AD0200003888320000000000000                                                                              HARTMAN SLN INY 500 MLBOL     1
CC0000032703947U202100000556439800000556439801/12/20211205    31500589239421964320000E1AD0300000199490000000000000                                         LACTATO RINGER USP (HARTMANN)  SOL INY  BOL X 1000ML BAXTERBIN     1
