TI0001134183559H202100000556428200000556428201/12/20211842     3300009237421964250000N3AG0400001337010000000000000                                                                              VALCOTE TAB 500 MG /R/TAB     1
TI0001134183559H202100000556428200000556428201/12/20210808     3300010237421964250000N3AG0400001337010000000000000                                                                              VALCOTE TAB 500 MG /R/TAB     2
TI0001134183559H202100000556428200000556428201/12/20210957     3300009237421964250000N03AG200001590870000000000000                                                            PROVALNOVA SLN INY 100MG/ML VIALX5ML /R/VAL     1
TI0001134183559H202100000556428200000556428201/12/20210849     3300003237421964250000N03AG200001590870000000000000                                                            PROVALNOVA SLN INY 100MG/ML VIALX5ML /R/VAL     1
TI0001134183559H202100000556428200000556428201/12/20211843     3300009237421964250000N03A0600001336860000000000000                                                                               TOPAMAC TAB 50 MG /R/TAB     1
TI0001134183559H202100000556428200000556428201/12/20210808     3300010237421964250000N03A0600001336860000000000000                                                                               TOPAMAC TAB 50 MG /R/TAB     1
TI0001134183559H202100000556428200000556428201/12/20210808     3300010237421964250000N03AX900001336840000000000000                                                                              TOPAMAC TAB 100 MG /R/TAB     2
TI0001134183559H202100000556428200000556428201/12/20211843     3300009237421964250000N5CD0300000218170000000000000                                                              DORMICUM IV-IM 5MG/5ML(1MG/ML) SOL INYAMP     1
TI0001134183559H202100000556428200000556428201/12/20210807     3300010237421964250000N03AX600001334940000000000000                                                                        LEVETIRACETAM TAB 500 MG /R/TAB     8
