CC0000073070310H202100000556421800000556421801/12/20210917     3300003237421964250000A2BC0100001277990000000000000                                                                                   ORAZOLE CAP 20 MGCAP     1
CC0000073070310H202100000556421800000556421801/12/20211227     3300009237421964250000A12BA500003864190000000000000                                                   ION-K 1.56GR/5ML(31.2%) SOL ORAL INST FCO X 180MLFCO     1
CC0000073070310H202100000556421800000556421801/12/20210918     3300003237421964250000B1AB0200003939510000000000000                 ENOXAPARINA SODICA 40MG/0.4ML(100MG/ML) SOL INY INST CAJ X 2JERPREL X 0.4ML TECHDOWJRP     1
CC0000073070310H202100000556421800000556421801/12/20210310    31500052237421964250000E1AB0300003888390000000000000                                                            SOLUCION SALINA 0.9% SLN INY BO X 500 MLBOL     1
CC0000073070310H202100000556421800000556421801/12/20211227     3300009237421964250000A12BA100000552980000000000000                                                            CLORURO POTASIO Sln Iny AMP 20 MEQ/10 MLAMP     5
CC0000073070310H202100000556421800000556421801/12/20210918     3300003237421964250000C7FA0100001277270000000000000                                                                                     NORVAS TAB 5 MGTAB     2
CC0000073070310H202100000556421800000556421801/12/20210917     3300003237421964250000H03AA500001315460000000000000                                                                                SYNTHROID TAB 50 MCGTAB     1
CC0000073070310H202100000556421800000556421801/12/20210917     3300003237421964250000H03AA400001315380000000000000                                                                               SYNTHROID TAB 100 MCGTAB     1
CC0000073070310H202100000556421800000556421801/12/20211429     3300009237421964250000J1CB1800001134180000000000000                                                                             TAZOCIN Polvo Iny 4.5 gVAL     1
CC0000073070310H202100000556421800000556421801/12/20210917     3300003237421964250000J1CB1800001134180000000000000                                                                             TAZOCIN Polvo Iny 4.5 gVAL     3
CC0000073070310H202100000556421800000556421801/12/20210917     3300003237421964250000J01GB500000552920000000000000                                                                       AMIKACINA SLN INY 500 MG/2 MLAMP     2
CC0000073070310H202100000556421800000556421801/12/20211629     3300009237421964250000J3CB0200001333510000000000000                                                                                    CIPRO TAB 500 MGCOM     2
CC0000073070310H202100000556421800000556421801/12/20211628     3300009237421964250000J3CB0200001333510000000000000                                                                                    CIPRO TAB 500 MGCOM     3
CC0000073070310H202100000556421800000556421801/12/20210918     3300003237421964250000N02B1100001464120000000000000                                           PARACETAMOL EP 1000MG/100ML(10MG/ML) SOL INY  CAJ X 10FCOVAL     1
CC0000073070310H202100000556421800000556421801/12/20212306     3300009237421964250000A12CC100001690470000000000000                                                                  MAGNESIO SULFATO 20% SLN INY 10 MLAMP     1
CC0000073070310H202100000556421800000556421801/12/20211227     3300009237421964250000A12CC100001690470000000000000                                                                  MAGNESIO SULFATO 20% SLN INY 10 MLAMP     1
CC0000073070310H202100000556421800000556421801/12/20210918     3300003237421964250000V07A1100001219050000000000000                                                              RESINCALCIO Polvo 99.75 g/100 g x 15 gSOB     6
