CC0000032753507H202100015052792500015052792501/12/20211944    31902788237421964250000Q1A13500001585200000000000000                        JERINGA PUNTA CAT SIN AGUJA REF 309620 CAJ X 40   50ML BN EXENTO-DC.417/2020SOB     1
CC0000032753507H202100015052792500015052792501/12/20211944    3190278823742196425000022426800001140510000000000000                                                                    EQUIPO MACROGOTEO BAXTER MRC0001SOB     1
CC0000032753507H202100015052792500015052792501/12/20211944    3190278823742196425000011082700001620070000000000000                                                               EQUIPO SET PRIMARIO C/CLAVE REF 14001BOL     1
CC0000032753507H202100015052792500015052792501/12/20211944    3190278823742196425000030936900001431840000000000000                                                                                              BURETABOL     1
