TI0001083002908H202100000556455700000556455701/12/20212254    31500624237421964250000E1AB0300003888390000000000000                                                            SOLUCION SALINA 0.9% SLN INY BO X 500 MLBOL     1
TI0001083002908H202100000556455700000556455701/12/20212154     3300009237421964250000J01DA300001239950000000000000                                                            CEFAZOLINA SODICA POLVO LIOF SLN INY 1 GVAL     2
TI0001083002908H202100000556455700000556455701/12/20212154     3300009237421964250000N2BE1100000836430000000000000                                             ACETAMINOFEN 150MG/5ML(3%) JBE INST FCO X 60ML AMER GENCAJ     1
