CC0001140869518U202100050131867200050131867201/12/20210640    3150035423942196432000001956000001620610000000000000                                                                      CONECTOR MICRO CLAVE LAT-MC100SOB     1
CC0001140869518U202100050131867200050131867201/12/20210640    31500354239421964320000Q1AA7100000610620000000000000                                                            CATETER PERIFE INTROCAN # 18G 4251687-04SIN     1
CC0001140869518U202100050131867200050131867201/12/20210640    3150035423942196432000016830000000970620000000000000                                                             SIST FIJACION CAT PERIFERICO 6.5X7 1683SOB     1
