CC0000029051090H202100015032640800015032640801/12/20210730    3190115623742196425000001956000001620610000000000000                                                                      CONECTOR MICRO CLAVE LAT-MC100SOB     1
CC0000072125757H202100015032640800015032640801/12/20210730    3190115623742196425000001956000001620610000000000000                                                                      CONECTOR MICRO CLAVE LAT-MC100SOB     1
CC0000029051090H202100015032640800015032640801/12/20210730    31901156237421964250000Q1AA7200000610630000000000000                                                            CATETER PERIFE INTROCAN # 20G 4251644-04SIN     1
CC0000029051090H202100015032640800015032640801/12/20210730    3190115623742196425000016830000000970620000000000000                                                             SIST FIJACION CAT PERIFERICO 6.5X7 1683SOB     1
