CC0001143115935H202100015112728600015112728601/12/20210933    31500387237421964250000V07A1300000502600000000000000                                                                                AGUA ESTERIL x 10 mlAMP     8
PE0082549771210H202100015112728600015112728601/12/20210933    31500387237421964250000V07A1300000502600000000000000                                                                                AGUA ESTERIL x 10 mlAMP     8
CC0000019490174H202100015112728600015112728601/12/20210933    31500387237421964250000V07A1300000502600000000000000                                                                                AGUA ESTERIL x 10 mlAMP     8
CC0001143115935H202100015112728600015112728601/12/20210933    3150038723742196425000045136100001419300000000000000                                                                            LANCETA DEXTROMETER X UNPZA     2
PE0082549771210H202100015112728600015112728601/12/20210933    3150038723742196425000045136100001419300000000000000                                                                            LANCETA DEXTROMETER X UNPZA     2
CC0000019490174H202100015112728600015112728601/12/20210933    3150038723742196425000045136100001419300000000000000                                                                            LANCETA DEXTROMETER X UNPZA     8
PE0082549771210H202100015112728600015112728601/12/20210933    3150038723742196425000024675000001585130000000000000                                                                    JERINGA DESECHABLE 50 ml S/AGUJASOB     1
CC0001143115935H202100015112728600015112728601/12/20210933    3150038723742196425000024674000001138340000000000000   JERINGA 3PARTES C/A 10ML REF JEHL005 CAJ X 100 ALFASAFE  21GX1 PULG 1/2 PULG BN EXENTO-DC.417/202PZA     8
PE0082549771210H202100015112728600015112728601/12/20210933    3150038723742196425000024674000001138340000000000000   JERINGA 3PARTES C/A 10ML REF JEHL005 CAJ X 100 ALFASAFE  21GX1 PULG 1/2 PULG BN EXENTO-DC.417/202PZA     8
CC0000019490174H202100015112728600015112728601/12/20210933    3150038723742196425000024674000001138340000000000000   JERINGA 3PARTES C/A 10ML REF JEHL005 CAJ X 100 ALFASAFE  21GX1 PULG 1/2 PULG BN EXENTO-DC.417/202PZA    10
CC0000019490174H202100015112728600015112728601/12/20210933    31500387237421964250000Q1A13500001585200000000000000                        JERINGA PUNTA CAT SIN AGUJA REF 309620 CAJ X 40   50ML BN EXENTO-DC.417/2020SOB     1
CC0001143115935H202100015112728600015112728601/12/20210933    3150038723742196425000020056600001101530000000000000                                                                AGUJA HIPODERMICA DESECH 18G X 1 1/2SOB     8
PE0082549771210H202100015112728600015112728601/12/20210933    3150038723742196425000020056600001101530000000000000                                                                AGUJA HIPODERMICA DESECH 18G X 1 1/2SOB     8
CC0000019490174H202100015112728600015112728601/12/20210933    3150038723742196425000020056600001101530000000000000                                                                AGUJA HIPODERMICA DESECH 18G X 1 1/2SOB     8
CC0001143115935H202100015112728600015112728601/12/20210933    31500387237421964250000E1AD0300000199490000000000000                                         LACTATO RINGER USP (HARTMANN)  SOL INY  BOL X 1000ML BAXTERBIN     1
CC0000019490174H202100015112728600015112728601/12/20210933    31500387237421964250000E1AD0300000199490000000000000                                         LACTATO RINGER USP (HARTMANN)  SOL INY  BOL X 1000ML BAXTERBIN     1
PE0082549771210H202100015112728600015112728601/12/20210933    31500387237421964250000E1AB0500003888400000000000000                                                              SOLUCION SALINA 0.9% SLN INY X 1000 MLBOL     4
CC0001143115935H202100015112728600015112728601/12/20210933    3150038723742196425000011137100001419310000000000000                                                               TIRA GLUCOMETRIA FREESTYLE H OPTIUM .PZA     2
PE0082549771210H202100015112728600015112728601/12/20210933    3150038723742196425000011137100001419310000000000000                                                               TIRA GLUCOMETRIA FREESTYLE H OPTIUM .PZA     2
CC0000019490174H202100015112728600015112728601/12/20210933    3150038723742196425000011137100001419310000000000000                                                               TIRA GLUCOMETRIA FREESTYLE H OPTIUM .PZA     8
CC0000019490174H202100015112728600015112728601/12/20210933    3150038723742196425000011127400001413910000000000000                                                            EQUIPO ADMINIST NUTR PUNZON REF 674669 BBOL     1
