TI0001103512693H202100015122544300015122544301/12/20212253    3150024423742196425000043879100001138200000000000000                                                                  HOJA BISTURI # 15 CSSB 15 01002003SOB     1
TI0001047050967H202100015122544300015122544301/12/20212253    31500244237421964250000Q1AA7300000610640000000000000                                                            CATETER PERIFE INTROCAN # 22G 4251628-04SIN     1
TI0001047050967H202100015122544300015122544301/12/20212253    31500244237421964250000Q1AA7400003911720000000000000                                                            CATETER PERIFE INTROCAN # 24G 4251601-04SOB     1
RC0001146544136H202100015122544300015122544301/12/20212253    31500244237421964250000E1AD0300000199490000000000000                                         LACTATO RINGER USP (HARTMANN)  SOL INY  BOL X 1000ML BAXTERBIN     1
RC0001146544136H202100015122544300015122544301/12/20212253    31500244237421964250000E1AD0200003888320000000000000                                                                              HARTMAN SLN INY 500 MLBOL     2
TI0001047050967H202100015122544300015122544301/12/20212253    31500244237421964250000E1AA0600003888150000000000000                                                                 DEXTROSA 50% EN AGUA Sln Iny 500 mlBOL     1
