RC0001011109659H202100000556426300000556426301/12/20210653    31903219237421964250000E1AC0100000199400000000000000                                                                          SUERO MIXTO Sln Iny 500 mlBIN     2
RC0001011109659H202100000556426300000556426301/12/20210925     3300003237421964250000A12BA100000552980000000000000                                                            CLORURO POTASIO Sln Iny AMP 20 MEQ/10 MLAMP     1
RC0001011109659H202100000556426300000556426301/12/20211431     3300009237421964250000J01GB500000552920000000000000                                                                       AMIKACINA SLN INY 500 MG/2 MLAMP     1
RC0001011109659H202100000556426300000556426301/12/20210925     3300003237421964250000N2BB0500000217140000000000000                                                                          NOVALGINA Sln Iny 1 g/2 mlAMP     1
RC0001011109659H202100000556426300000556426301/12/20211634     3300009237421964250000N02B1100001464120000000000000                                           PARACETAMOL EP 1000MG/100ML(10MG/ML) SOL INY  CAJ X 10FCOVAL     2
