CC0000072277171H202100000556419100000556419101/12/20212012     330000923742196425000011808300000218190000000000000                                                   DORMICUM IV 50MG/10ML(5MG/ML) SOL INY  CAJ X 5AMPAMP     1
CC0000072277171H202100000556419100000556419101/12/20212009     330000923742196425000011808300000218190000000000000                                                   DORMICUM IV 50MG/10ML(5MG/ML) SOL INY  CAJ X 5AMPAMP     1
CC0000072277171H202100000556419100000556419101/12/20211146     3300009237421964250000A6AC0200001467010000000000000                                                             LACTULAX JARABE 66.7G/100ML SOX15ML /R/SOB     1
CC0000072277171H202100000556419100000556419101/12/20212342    31500107237421964250000E1AB1100003888280000000000000                                                                        SOLUCION SALINA 0.9% X 50 mlBOL     2
CC0000072277171H202100000556419100000556419101/12/20210904    31903294237421964250000E1AB0300003888390000000000000                                                            SOLUCION SALINA 0.9% SLN INY BO X 500 MLBOL     2
CC0000072277171H202100000556419100000556419101/12/20210243    31900630237421964250000E1AB0600003839280000000000000                                                            SOLUCION SALINA 0.9% SLN INY FCO X 250 MBOL     1
CC0000072277171H202100000556419100000556419101/12/20211146     3300009237421964250000H02AB500001664950000000000000                                                            DEXAMETASONA SLN INY 8 MG/2 ML AMP /CDS/AMP     3
CC0000072277171H202100000556419100000556419101/12/20211147     3300009237421964250000N01B0200003888110000000000000                                           ROXICAINA SE 100MG/10ML(1%) SOL INY CAJ X 24AMPACK X 10MLAPC     1
CC0000072277171H202100000556419100000556419101/12/20211148     3300009237421964250000N06A1100001278050000000000000                                                                              CYMBALTA Cap 30 mg /R/CAP     1
CC0000072277171H202100000556419100000556419101/12/20211739     3300009237421964250000N02A3100001227160000000000000                                                                    OXYRAPID SLN INY 10 MG/ML X 1 MLAMP     4
CC0000072277171H202100000556419100000556419101/12/20211144     3300009237421964250000B01AB400000513360000000000000                                                                        CLENOX SLN INY 60 MG/ 0.6 MLJRP     1
CC0000072277171H202100000556419100000556419101/12/20210145     3300010237421964250000B01AB400000513360000000000000                                                                        CLENOX SLN INY 60 MG/ 0.6 MLJRP     1
CC0000072277171H202100000556419100000556419101/12/20211146     3300009237421964250000N2BE2200001252930000000000000                                                                             ACETAMINOFEN Tab 500 MGTAB     2
CC0000072277171H202100000556419100000556419101/12/20211146     3300009237421964250000N03A2100001315050000000000000                                                                          GABAPENTINA CAP 300 MG /R/CAP     1
CC0000072277171H202100000556419100000556419101/12/20211739     3300009237421964250000N02A3200001270320000000000000                                                     OXICODONA 20MG TAB LIB PROL INST CAJ X 30 HUMAXTAB     6
CC0000072277171H202100000556419100000556419101/12/20211146     3300009237421964250000A02BC700001684270000000000000                                                            OMEPRAZOL 40MG POLVO LIOFILIZADO AMPOLLAVAL     1
CC0000072277171H202100000556419100000556419101/12/20210145     3300010237421964250000A02BC700001684270000000000000                                                            OMEPRAZOL 40MG POLVO LIOFILIZADO AMPOLLAVAL     1
CC0000072277171H202100000556419100000556419101/12/20210904    31903294237421964250000V07A1300000502600000000000000                                                                                AGUA ESTERIL x 10 mlAMP     5
