CC0000033113513U202100050131865900050131865901/12/20210142    3190135523942196432000022426800001140510000000000000                                                                    EQUIPO MACROGOTEO BAXTER MRC0001SOB     1
CC0000033113513U202100050131865900050131865901/12/20210142    3190135523942196432000001956000001620610000000000000                                                                      CONECTOR MICRO CLAVE LAT-MC100SOB     1
CC0000033113513U202100050131865900050131865901/12/20210142    31901355239421964320000Q1AA7200000610630000000000000                                                            CATETER PERIFE INTROCAN # 20G 4251644-04SIN     1
RC0001102897681U202100050131865900050131865901/12/20210142    31901355239421964320000Q1AA7400003911720000000000000                                                            CATETER PERIFE INTROCAN # 24G 4251601-04SOB     1
CC0000033113513U202100050131865900050131865901/12/20210142    3190135523942196432000030936900001431840000000000000                                                                                              BURETABOL     1
CC0000033113513U202100050131865900050131865901/12/20210142    3190135523942196432000016830000000970620000000000000                                                             SIST FIJACION CAT PERIFERICO 6.5X7 1683SOB     1
CC0000033113513U202100050131865900050131865901/12/20210142    31901355239421964320000E1AB0200000199290000000000000                                                            SOLUCION SALINA 0.9% SLN INY BO X 100 MLBIN     1
