CC0000073070310H202100907668120100907668120101/12/20210918    3190093123742196425000016830000000970620000000000000                                                             SIST FIJACION CAT PERIFERICO 6.5X7 1683SOB     1
CC0000073070310H202100907668120100907668120101/12/20210918    31900931237421964250000Q1AA7300000610640000000000000                                                            CATETER PERIFE INTROCAN # 22G 4251628-04SIN     2
CC0000073070310H202100907668120100907668120101/12/20211237    3150019223742196425000011082800001026070000000000000                                                             EQUIPO LC 5000 SANGRE (HOSPIRA) R.11235CAJ     1
CC0000073070310H202100907668120100907668120101/12/20212104    31901879237421964250000E1AD0300000199490000000000000                                         LACTATO RINGER USP (HARTMANN)  SOL INY  BOL X 1000ML BAXTERBIN     1
CC0000073070310H202100907668120100907668120101/12/20212104    31901879237421964250000E1AD0200003888320000000000000                                                                              HARTMAN SLN INY 500 MLBOL     1
