CC0001083046322U202100050131866600050131866601/12/20210458    3190217123942196432000024673600000222980000000000000                                                                     JERINGA DESECHABLE 5 ml 27*11/2SIN     1
CC0001083046322U202100050131866600050131866601/12/20210458    3190217123942196432000011047900000223010000000000000                                                                            JERINGA X 1ML REF 302579SIN     1
TI0001121302704U202100050131866600050131866601/12/20210458    3190217123942196432000022426800001140510000000000000                                                                    EQUIPO MACROGOTEO BAXTER MRC0001SOB     1
TI0001121302704U202100050131866600050131866601/12/20210458    3190217123942196432000030936900001431840000000000000                                                                                              BURETABOL     1
