CC0000002938638U202100050131872700050131872701/12/20211518    3190145323942196432000049428300000860750000000000000                                                                       VENDA ELASTICA 4*5 NO ESTERILBOL     1
CC0000002938638U202100050131872700050131872701/12/20211518    3190145323942196432000049419700001679920000000000000                                                                        VENDA ALGODON 5*5 NO ESTERILSOB     1
CC0000002938638U202100050131872700050131872701/12/20211518    3190145323942196432000043485100001618510000000000000                GUANTE QUIRURGICO DE LATEX REF 2D72N65X CAJ X 50 PROTEXIS  6.5 BN EXENTO-DC.417/2020SOB     2
CC0000002938638U202100050131872700050131872701/12/20211518    3190145323942196432000013077800000471960000000000000                                                             GASA NO TEJIDA EST 7.5 X 7.5 SOB X 3 UNSOB     6
CC0000002938638U202100050131872700050131872701/12/20211518    31901453239421964320000E1AB0300003888390000000000000                                                            SOLUCION SALINA 0.9% SLN INY BO X 500 MLBOL     1
