CC0000022467890H202100015032642500015032642501/12/20212041    3190093423742196425000011082700001620070000000000000                                                               EQUIPO SET PRIMARIO C/CLAVE REF 14001BOL     1
CC0000022467890H202100015032642500015032642501/12/20212041    3190093423742196425000030936900001431840000000000000                                                                                              BURETABOL     1
CC0000022492166H202100015032642500015032642501/12/20212041    31900934237421964250000E1AD0300000199490000000000000                                         LACTATO RINGER USP (HARTMANN)  SOL INY  BOL X 1000ML BAXTERBIN     1
CC0000022467890H202100015032642500015032642501/12/20212041    31900934237421964250000E1AD0300000199490000000000000                                         LACTATO RINGER USP (HARTMANN)  SOL INY  BOL X 1000ML BAXTERBIN     1
PA0000530962838H202100015032642500015032642501/12/20212041    31900934237421964250000E1AD0300000199490000000000000                                         LACTATO RINGER USP (HARTMANN)  SOL INY  BOL X 1000ML BAXTERBIN     1
TI0001134183559H202100015032642500015032642501/12/20212041    31900934237421964250000E1AD0200003888320000000000000                                                                              HARTMAN SLN INY 500 MLBOL     1
CC0001118843398H202100015032642500015032642501/12/20212041    31900934237421964250000E1AD0200003888320000000000000                                                                              HARTMAN SLN INY 500 MLBOL     1
CC0000005561046H202100015032642500015032642501/12/20212041    31900934237421964250000E1AD0200003888320000000000000                                                                              HARTMAN SLN INY 500 MLBOL     1
