CC0000080424776H202100918761120100918761120101/12/20210636    3190115323742196425000011089200001083340000000000000                                                              GUANTE ESTERIL LATEX S/POLVO TALLA 7.0SOB     1
CC0000080424776H202100918761120100918761120101/12/20210636    3190115323742196425000013077800000471960000000000000                                                             GASA NO TEJIDA EST 7.5 X 7.5 SOB X 3 UNSOB    10
CC0000080424776H202100918761120100918761120101/12/20210636    3190115323742196425000042743200003929860000000000000                   GASA ADHESIVA STRETCH REF 02038-00 ROL X 10MT FIXOMULL 15CM BN EXENTO-DC.417/2020CMT    30
CC0000080424776H202100918761120100918761120101/12/20212100    3190062723742196425000011082700001620070000000000000                                                               EQUIPO SET PRIMARIO C/CLAVE REF 14001BOL     1
CC0000080424776H202100918761120100918761120101/12/20212100    3190062723742196425000022426800001140510000000000000                                                                    EQUIPO MACROGOTEO BAXTER MRC0001SOB     1
CC0000080424776H202100918761120100918761120101/12/20212100    3190062723742196425000030936900001431840000000000000                                                                                              BURETABOL     1
CC0000080424776H202100918761120100918761120101/12/20212100    31900627237421964250000E1AD0300000199490000000000000                                         LACTATO RINGER USP (HARTMANN)  SOL INY  BOL X 1000ML BAXTERBIN     1
