PA00000AS617798H202100000556440000000556440001/12/20211210    31903308237421964250000A2BC0900000200150000000000000                                                                               ORAZOLE Sln Iny 40 mgCIN     1
PA00000AS617798H202100000556440000000556440001/12/20211210    31903308237421964250000A4AD0200000202990000000000000                                                                     PLITICAN HCL Sln Iny 50 mg/2 mlAMP     4
PA00000AS617798H202100000556440000000556440001/12/20211210    31903308237421964250000N02B1100001464120000000000000                                           PARACETAMOL EP 1000MG/100ML(10MG/ML) SOL INY  CAJ X 10FCOVAL     5
PA00000AS617798H202100000556440000000556440001/12/20211210    31903308237421964250000A3BB0300000512950000000000000                                                             BUSCAPINA COMP Sln Iny 20 mg+2.5 g/5 mlAMP     4
