CC0000013825497A202100000027816500000027816501/12/20211137    3190333624042196419000070120200000508270000000000000                                                             PUNTA PALA ELECTROBISTURI LARGA E1551-6SIN     1
CC0000013825497A202100000027816500000027816501/12/20211137    3190333624042196419000042743200003929860000000000000                   GASA ADHESIVA STRETCH REF 02038-00 ROL X 10MT FIXOMULL 15CM BN EXENTO-DC.417/2020CMT    25
CC0000013825497A202100000027816500000027816501/12/20211137    3190333624042196419000019487600000599200000000000000                                                                                VICRYL 0 CT1 VCP346HSIN     1
CC0000013825497A202100000027816500000027816501/12/20211137    3190333624042196419000036441300000236540000000000000                                                                    JERINGA 1 ML GASES ARTERIAL 9023SIN     2
CC0000013825497A202100000027816500000027816501/12/20211137    3190333624042196419000022310200001001130000000000000                                                              DRENAJE SILICONA BLAKE 24 FR  S/CONECTPZA     1
CC0000013825497A202100000027816500000027816501/12/20211137    3190333624042196419000018351500000232840000000000000                                                                                    SEDA 2-0 KS 623HSIN     1
CC0000013825497A202100000027816500000027816501/12/20211137    3190333624042196419000043879200001138180000000000000                                                                                   HOJA BISTURI # 11SOB     1
CC0000013825497A202100000027816500000027816501/12/20211137    3190333624042196419000021193900000227540000000000000                                                              CATETER BILUME GARD ADULT 7F*20 26702ESIN     1
CC0000013825497A202100000027816500000027816501/12/20211137    3190333624042196419000021052200000380370000000000000                                                                        RESERVORIO J-VAC 100 ml 2160PZA     1
CC0000013825497A202100000027816500000027816501/12/20211137    3190333624042196419000011051900000226360000000000000                                                               KIT TRANSDUCTOR SENCILLO S/VAMP PX260SOB     1
CC0000013825497A202100000027816500000027816501/12/20211137    3190333624042196419000039175200001072070000000000000                                                                           TUBO ENDOTRAQUEAL C/B 8.0SOB     1
CC0000013825497A202100000027816500000027816501/12/20211137    31903336240421964190000N1AX0100003889000000000000000                                                                       KETAMINA Iny 50 mg/ml x 10 mlVAL     1
CC0000013825497A202100000027816500000027816501/12/20211137    3190333624042196419000015944000000632490000000000000                                                                           MONOCRYL 3-0 PS2  MCP427HSIN     1
CC0000013825497A202100000027816500000027816501/12/20211137    3190333624042196419000011084100000314970000000000000                                                                  EXTRACTOR DE GRAPAS CODIGO JNJ PSXBOL     1
CC0000013825497A202100000027816500000027816501/12/20211137    3190333624042196419000000016100000314040000000000000                                                                ESPONJA HEMOSTATICA  GELFOAM ESPONJABOL     2
CC0000013825497A202100000027816500000027816501/12/20211137    3190333624042196419000061196200000495170000000000000                                                                   SURGICEL FIBRILAR 5.1*10.2 411962SOB     1
CC0000013825497A202100000027816500000027816501/12/20211137    3190333624042196419000000102300000222960000000000000                                                                 JERINGA DESECHABLE SIN AGUJA X 20mLSIN     1
CC0000013825497A202100000027816500000027816501/12/20211137    3190333624042196419000030825800000270990000000000000                                                                  ALGODON ESTERIL SOBRE X 3 TORUNDASPZA     4
CC0000013825497A202100000027816500000027816501/12/20211137    3190333624042196419000020042600000633850000000000000                                                                                       ASEPTOJERINGASIN     1
CC0000013825497A202100000027816500000027816501/12/20211137    3190333624042196419000012472400000232190000000000000                                                                 SUTURA ETHILON 2-0 SC-26 45CM  164TSIN     1
CC0000013825497A202100000027816500000027816501/12/20211137    3190333624042196419000019487500000602970000000000000                                                                           VICRYL 2-0 CT1 90 VCP345HSIN     1
CC0000013825497A202100000027816500000027816501/12/20211137    3190333624042196419000038568600000256960000000000000                                                                                   SONDA NELATON #14SIN     1
CC0000013825497A202100000027816500000027816501/12/20211137    3190333624042196419000015944100000233310000000000000                                                                              CAPROFYL 3/0 SH CF122TSIN     1
CC0000013825497A202100000027816500000027816501/12/20211137    3190333624042196419000045138000001413890000000000000                                                                       LAPIZ ELECTROBISTURI  SOB X 1SOB     1
CC0000013825497A202100000027816500000027816501/12/20211137    3190333624042196419000011020100000231860000000000000                                                                      CATGUT CROMADO 2-0 SH 70 G123TSIN     1
CC0000013825497A202100000027816500000027816501/12/20211137    3190333624042196419000043879400001138170000000000000                                                                  HOJA BISTURI # 10 CSSB 10 01002000SOB     1
CC0000013825497A202100000027816500000027816501/12/20211137    3190333624042196419000019488400000599300000000000000                                                                               VICRYL 2-0 SH VCP317HSIN     2
CC0000013825497A202100000027816500000027816501/12/20211137    31903336240421964190000N1BA1900000554750000000000000                                                                     ROXICAINA JALEA 2% TUBO X 30 MLTUB     1
CC0000013825497A202100000027816500000027816501/12/20211137    3190333624042196419000022425200000548240000000000000                       EXTENSION DE ANESTESIA REF 1139 SOB X 1 SHERLEG  ADULTO BN EXENTO-DC.417/2020SIN     1
CC0000013825497A202100000027816500000027816501/12/20211137    3190333624042196419000035356500003919000000000000000                                                                                        LLAVE 3 VIASSOB     2
CC0000013825497A202100000027816500000027816501/12/20211137    3190333624042196419000022426800001140510000000000000                                                                    EQUIPO MACROGOTEO BAXTER MRC0001SOB     1
CC0000013825497A202100000027816500000027816501/12/20211137    3190333624042196419000011073300001096420000000000000                                                                BOLSA DE SUCCION DE FLUIDOS x 2500mLBOL     2
CC0000013825497A202100000027816500000027816501/12/20211137    3190333624042196419000030161400001459220000000000000                                                                       MANGUERA SUCCION 6 MM*3.1 MTSSOB     2
CC0000013825497A202100000027816500000027816501/12/20211137    3190333624042196419000020750600000296780000000000000                                                                PLACA ELECTRO RETORNO PACIENTE E7506SIN     1
CC0000013825497A202100000027816500000027816501/12/20211137    3190333624042196419000011082700001620070000000000000                                                               EQUIPO SET PRIMARIO C/CLAVE REF 14001BOL     1
CC0000013825497A202100000027816500000027816501/12/20211137    3190333624042196419000053074400000607910000000000000                                                               GASA ESTERIL 10*10 SOBRE X 3 UNIDADESSOB     9
CC0000013825497A202100000027816500000027816501/12/20211137    3190333624042196419000024673000001411210000000000000                                                                  JERINGA DESECHABLE 3 ML 21 X 1 1/2SOB     2
CC0000013825497A202100000027816500000027816501/12/20211137    3190333624042196419000024673600000222980000000000000                                                                     JERINGA DESECHABLE 5 ml 27*11/2SIN     2
CC0000013825497A202100000027816500000027816501/12/20211137    3190333624042196419000024674000001138340000000000000   JERINGA 3PARTES C/A 10ML REF JEHL005 CAJ X 100 ALFASAFE  21GX1 PULG 1/2 PULG BN EXENTO-DC.417/202PZA     4
CC0000013825497A202100000027816500000027816501/12/20211137    3190333624042196419000024674500000322810000000000000                                                                   JERINGA DESECHABLE 20 ml 21*1 1/2SIN     1
CC0000013825497A202100000027816500000027816501/12/20211137    3190333624042196419000011085300001082140000000000000                                                                           GUANTE QUIRURGICO TALLA 8SOB     2
CC0000013825497A202100000027816500000027816501/12/20211137    3190333624042196419000011085200001585390000000000000                                                                       GUANTE QUIRURGICO TALLA 7 1/2SOB     2
CC0000013825497A202100000027816500000027816501/12/20211137    3190333624042196419000011085100001082120000000000000                                                                           GUANTE QUIRURGICO TALLA 7SOB     7
CC0000013825497A202100000027816500000027816501/12/20211137    3190333624042196419000043485100001618510000000000000                GUANTE QUIRURGICO DE LATEX REF 2D72N65X CAJ X 50 PROTEXIS  6.5 BN EXENTO-DC.417/2020SOB     4
CC0000013825497A202100000027816500000027816501/12/20211137    3190333624042196419000051515500000598160000000000000                                                                            MASCARILLA ANESTESIA # 5SIN     1
CC0000013825497A202100000027816500000027816501/12/20211137    3190333624042196419000000100800000223140000000000000                                                                       AGUJA DESECHABLE 23G X 1 PULGSIN     1
CC0000013825497A202100000027816500000027816501/12/20211137    3190333624042196419000000100600000223090000000000000                                                                      AGUJA DESECHABLE 18G X 1 1/2 PSIN     1
CC0000013825497A202100000027816500000027816501/12/20211137    31903336240421964190000E1AD0200003888320000000000000                                                                              HARTMAN SLN INY 500 MLBOL     6
CC0000013825497A202100000027816500000027816501/12/20211137    31903336240421964190000E1AB0500003888400000000000000                                                              SOLUCION SALINA 0.9% SLN INY X 1000 MLBOL     5
CC0000013825497A202100000027816500000027816501/12/20211137    31903336240421964190000E1AB0300003888390000000000000                                                            SOLUCION SALINA 0.9% SLN INY BO X 500 MLBOL     2
CC0000013825497A202100000027816500000027816501/12/20211137    31903336240421964190000E1AB0200000199290000000000000                                                            SOLUCION SALINA 0.9% SLN INY BO X 100 MLBIN     2
CC0000013825497A202100000027816500000027816501/12/20211137    31903336240421964190000E1AB0700003888350000000000000                                                            SOLUCION SALINA 0.9% SLN INY BO X 250 MLBOL     1
CC0000013825497A202100000027816500000027816501/12/20211137    31903336240421964190000N01A0400003939010000000000000                                               MAYOPROFOL 200MG/20ML(1%) EMUL INY CAJ X 1VIAL X 20MLVAL     1
CC0000013825497A202100000027816500000027816501/12/20211137    31903336240421964190000N1BA2400001687720000000000000                                                    LIDOCAINA 2% SOL INY  CAJ X 50AMP X 10ML CORPAULAMP     1
CC0000013825497A202100000027816500000027816501/12/20211137    31903336240421964190000N2AA0700001587170000000000000                                                                                 ULTIVA Sln Iny 2 mgVAL     1
CC0000013825497A202100000027816500000027816501/12/20211137    31903336240421964190000N2AA0100000301640000000000000                                                                            MORFINA Sln Iny 10 mg/mlAMP     1
CC0000013825497A202100000027816500000027816501/12/20211137    31903336240421964190000N1AH0200003906560000000000000                                                                     FENTANIL Iny 0.05 mg/ml x 10 mlAMP     1
