RC0001046723141H202100015122543300015122543301/12/20211423    3190307023742196425000011082900001233450000000000000                                                               EQUIPO LC 5000 PRIMARIO FOTOPRO 0L218SOB     1
RC0001146544136H202100015122543300015122543301/12/20211423    3190307023742196425000011082700001620070000000000000                                                               EQUIPO SET PRIMARIO C/CLAVE REF 14001BOL     1
RC0001044671776H202100015122543300015122543301/12/20211423    3190307023742196425000011082700001620070000000000000                                                               EQUIPO SET PRIMARIO C/CLAVE REF 14001BOL     1
RC0001046723141H202100015122543300015122543301/12/20211423    3190307023742196425000011082700001620070000000000000                                                               EQUIPO SET PRIMARIO C/CLAVE REF 14001BOL     1
RC0001034521434H202100015122543300015122543301/12/20211423    3190307023742196425000011082700001620070000000000000                                                               EQUIPO SET PRIMARIO C/CLAVE REF 14001BOL     1
RC0001063188076H202100015122543300015122543301/12/20211423    3190307023742196425000011082700001620070000000000000                                                               EQUIPO SET PRIMARIO C/CLAVE REF 14001BOL     1
RC0001034521434H202100015122543300015122543301/12/20211423    31903070237421964250000E1AC0100000199400000000000000                                                                          SUERO MIXTO Sln Iny 500 mlBIN     1
