RC0001048091952H202100000556436000000556436001/12/20211725    31903309237421964250000E1AB0200000199290000000000000                                                            SOLUCION SALINA 0.9% SLN INY BO X 100 MLBIN     1
RC0001048091952H202100000556436000000556436001/12/20211639     3300009237421964250000J01X0900001280300000000000000                                                         COLISTIMETHATE 150MG POLV INY  CAJ X 10VIALVAL     1
RC0001048091952H202100000556436000000556436001/12/20211614     3300009237421964250000J01X0900001280300000000000000                                                         COLISTIMETHATE 150MG POLV INY  CAJ X 10VIALVAL     1
RC0001048091952H202100000556436000000556436001/12/20211047     3300003237421964250000J01X0900001280300000000000000                                                         COLISTIMETHATE 150MG POLV INY  CAJ X 10VIALVAL     1
RC0001048091952H202100000556436000000556436001/12/20211639     3300009237421964250000N3AA0500003889340000000000000                                                                       FENOBARBITAL SLN INY 40 MG/MLAMP     1
RC0001048091952H202100000556436000000556436001/12/20211047     3300003237421964250000N3AA0500003889340000000000000                                                                       FENOBARBITAL SLN INY 40 MG/MLAMP     1
RC0001048091952H202100000556436000000556436001/12/20211614     3300009237421964250000J1KF0500001317760000000000000                                                                      MEROPENEM POLVO INY 500 MG /R/CAJ     1
RC0001048091952H202100000556436000000556436001/12/20211047     3300003237421964250000J1KF0500001317760000000000000                                                                      MEROPENEM POLVO INY 500 MG /R/CAJ     1
RC0001048091952H202100000556436000000556436001/12/20211725    31903309237421964250000V07A1300000502600000000000000                                                                                AGUA ESTERIL x 10 mlAMP     4
