RC0001047065603H202100015132526300015132526301/12/20211437    3190145223742196425000038568200000257000000000000000                                                                                   SONDA NELATON #06SIN     1
RC0001146846680H202100015132526300015132526301/12/20211437    3190145223742196425000011060400001010330000000000000                                                            SENSOR PULSOX SPO2 LNCS NEONATAL MP00792PZA     1
RC0001146546681H202100015132526300015132526301/12/20211437    3190145223742196425000011060400001010330000000000000                                                            SENSOR PULSOX SPO2 LNCS NEONATAL MP00792PZA     1
