CC0000042208823H202100000556426600000556426601/12/20210703    31500272237421964250000E1AB0300003888390000000000000                                                            SOLUCION SALINA 0.9% SLN INY BO X 500 MLBOL     2
CC0000042208823H202100000556426600000556426601/12/20211255     3300009237421964250000C09CA400001277130000000000000                                                                                  LOSARTAN TAB 50 MGTAB     4
CC0000042208823H202100000556426600000556426601/12/20211255     3300009237421964250000H02AB700000585860000000000000                                                                HIDROCORTISONA SUCCI POL LIOF 100 MGVAL     3
CC0000042208823H202100000556426600000556426601/12/20211255     3300009237421964250000C08CA300001313930000000000000                                                                                AMLODIPINO TAB 10 MGTAB     1
CC0000042208823H202100000556426600000556426601/12/20211255     3300009237421964250000J01DD500001239970000000000000                                                                  CEFTRIAXONA POLVO LIOF SLN INY 1 GVAL     3
CC0000042208823H202100000556426600000556426601/12/20211823     3300009237421964250000M01A2000001664970000000000000                                                               DICLOFENACO SODICO SLN INY 75 MG/3 MLAMP     4
CC0000042208823H202100000556426600000556426601/12/20211255     3300009237421964250000M01A2000001664970000000000000                                                               DICLOFENACO SODICO SLN INY 75 MG/3 MLAMP     2
CC0000042208823H202100000556426600000556426601/12/20211255     3300009237421964250000N2BB0100001672010000000000000                                  DIPIRONA 1GR/2ML(0.5GR/ML) SOL INY INST CAJ X 100AMP X 2ML VITALISAMP     6
CC0000042208823H202100000556426600000556426601/12/20211255     3300009237421964250000N06A1500001316440000000000000                                                                            SERTRALINA Tab 50 mg /R/TAB     1
CC0000042208823H202100000556426600000556426601/12/20210956    31903303237421964250000V07A1300000502600000000000000                                                                                AGUA ESTERIL x 10 mlAMP     5
