TI0001121302704U202100000556422200000556422201/12/20210934    31902336239421964320000E1AD0200003888320000000000000                                                                              HARTMAN SLN INY 500 MLBOL     1
TI0001121302704U202100000556422200000556422201/12/20210934    31902336239421964320000E1AD0300000199490000000000000                                         LACTATO RINGER USP (HARTMANN)  SOL INY  BOL X 1000ML BAXTERBIN     1
TI0001121302704U202100000556422200000556422201/12/20210649     3300004239421964320000L01XX500001336660000000000000                                                                              HYDROXYUREA CAP 500 MGCAP     1
TI0001121302704U202100000556422200000556422201/12/20210456     3300004239421964320000N02B1100001464120000000000000                                           PARACETAMOL EP 1000MG/100ML(10MG/ML) SOL INY  CAJ X 10FCOVAL     1
