CC0000032633562A202100000027812700000027812701/12/20211310    3190333624042196419000021056700001212260000000000000                                                              CAT ANESTESIA EPIDURAL 19GA JC-05400-ESOB     1
CC0000032633562A202100000027812700000027812701/12/20211310    31903336240421964190000A04A1400001467560000000000000                                                                      ONDANSETRON SLN INY 8 MG/ 4 MLVAL     2
CC0000032633562A202100000027812700000027812701/12/20211310    31903336240421964190000A4AD0200000202990000000000000                                                                     PLITICAN HCL Sln Iny 50 mg/2 mlAMP     1
CC0000032633562A202100000027812700000027812701/12/20211310    31903336240421964190000M01A0400001341250000000000000                                                                              DYNASTAT AMP 40 MG /R/VAL     1
CC0000032633562A202100000027812700000027812701/12/20211310    31903336240421964190000A2BC0900000200150000000000000                                                                               ORAZOLE Sln Iny 40 mgCIN     1
CC0000032633562A202100000027812700000027812701/12/20211310    31903336240421964190000H02AB500001664950000000000000                                                            DEXAMETASONA SLN INY 8 MG/2 ML AMP /CDS/AMP     2
CC0000032633562A202100000027812700000027812701/12/20211310    3190333624042196419000022425200000548240000000000000                       EXTENSION DE ANESTESIA REF 1139 SOB X 1 SHERLEG  ADULTO BN EXENTO-DC.417/2020SIN     1
CC0000032633562A202100000027812700000027812701/12/20211310    3190333624042196419000035356500003919000000000000000                                                                                        LLAVE 3 VIASSOB     2
CC0000032633562A202100000027812700000027812701/12/20211310    31903336240421964190000Q1AA7100000610620000000000000                                                            CATETER PERIFE INTROCAN # 18G 4251687-04SIN     1
CC0000032633562A202100000027812700000027812701/12/20211310    3190333624042196419000022426800001140510000000000000                                                                    EQUIPO MACROGOTEO BAXTER MRC0001SOB     1
CC0000032633562A202100000027812700000027812701/12/20211310    3190333624042196419000016830000000970620000000000000                                                             SIST FIJACION CAT PERIFERICO 6.5X7 1683SOB     1
CC0000032633562A202100000027812700000027812701/12/20211310    3190333624042196419000027292100000224750000000000000                                                                                  AGUJA PERICAN G-18SIN     1
CC0000032633562A202100000027812700000027812701/12/20211310    3190333624042196419000020056600001101530000000000000                                                                AGUJA HIPODERMICA DESECH 18G X 1 1/2SOB     1
CC0000032633562A202100000027812700000027812701/12/20211310    3190333624042196419000020058400001101660000000000000                                                                           AGUJA DESECHABLE # 25 X 1SOB     1
CC0000032633562A202100000027812700000027812701/12/20211310    3190333624042196419000053074400000607910000000000000                                                               GASA ESTERIL 10*10 SOBRE X 3 UNIDADESSOB     1
CC0000032633562A202100000027812700000027812701/12/20211310    3190333624042196419000011085300001082140000000000000                                                                           GUANTE QUIRURGICO TALLA 8SOB     2
CC0000032633562A202100000027812700000027812701/12/20211310    3190333624042196419000024673000001411210000000000000                                                                  JERINGA DESECHABLE 3 ML 21 X 1 1/2SOB     2
CC0000032633562A202100000027812700000027812701/12/20211310    3190333624042196419000024674000001138340000000000000   JERINGA 3PARTES C/A 10ML REF JEHL005 CAJ X 100 ALFASAFE  21GX1 PULG 1/2 PULG BN EXENTO-DC.417/202PZA     4
CC0000032633562A202100000027812700000027812701/12/20211310    31903336240421964190000E1AB0300003888390000000000000                                                            SOLUCION SALINA 0.9% SLN INY BO X 500 MLBOL     2
CC0000032633562A202100000027812700000027812701/12/20211310    31903336240421964190000E1AB0200000199290000000000000                                                            SOLUCION SALINA 0.9% SLN INY BO X 100 MLBIN     1
CC0000032633562A202100000027812700000027812701/12/20211310    31903336240421964190000N01A0400003939010000000000000                                               MAYOPROFOL 200MG/20ML(1%) EMUL INY CAJ X 1VIAL X 20MLVAL     1
CC0000032633562A202100000027812700000027812701/12/20211310    31903336240421964190000D7AB0100001127750000000000000                                                            KENACORT ACE SUSP INY 10 MG/ML X 5 ML /RVAL     1
CC0000032633562A202100000027812700000027812701/12/20211310    31903336240421964190000N01B1600003888910000000000000                                             BUPIROP SE S/P 50MG/10ML(5MG/ML) SOL INY CAJ X 24AMPACKAPC     2
CC0000032633562A202100000027812700000027812701/12/20211310    31903336240421964190000N1BA2400001687720000000000000                                                    LIDOCAINA 2% SOL INY  CAJ X 50AMP X 10ML CORPAULAMP     1
CC0000032633562A202100000027812700000027812701/12/20211310    31903336240421964190000N01B0200003888110000000000000                                           ROXICAINA SE 100MG/10ML(1%) SOL INY CAJ X 24AMPACK X 10MLAPC     1
