CC0000013825497H202100920588120100920588120101/12/20210557    3190092623742196425000013077800000471960000000000000                                                             GASA NO TEJIDA EST 7.5 X 7.5 SOB X 3 UNSOB     8
CC0000013825497H202100920588120100920588120101/12/20210557    3190092623742196425000016830000000970620000000000000                                                             SIST FIJACION CAT PERIFERICO 6.5X7 1683SOB     1
CC0000013825497H202100920588120100920588120101/12/20210557    3190092623742196425000042743200003929860000000000000                   GASA ADHESIVA STRETCH REF 02038-00 ROL X 10MT FIXOMULL 15CM BN EXENTO-DC.417/2020CMT    60
CC0000013825497H202100920588120100920588120101/12/20210557    3190092623742196425000001956000001620610000000000000                                                                      CONECTOR MICRO CLAVE LAT-MC100SOB     4
CC0000013825497H202100920588120100920588120101/12/20210557    3190092623742196425000000602700001197200000000000000                                                              APOSITO TRANSP  1655 IV 8.5CM X 11.5CMSOB     1
CC0000013825497H202100920588120100920588120101/12/20210557    31900926237421964250000Q1AA7200000610630000000000000                                                            CATETER PERIFE INTROCAN # 20G 4251644-04SIN     1
