CC0000072125757H202100000556419800000556419801/12/20210945     3300003237421964250000A10A1900000601020000000000000                                                                   APIDRA CARTU 100 UI/ML X 3 ML /R/CAR     1
CC0000072125757H202100000556419800000556419801/12/20210208    31901156237421964250000E1AD0300000199490000000000000                                         LACTATO RINGER USP (HARTMANN)  SOL INY  BOL X 1000ML BAXTERBIN     3
CC0000072125757H202100000556419800000556419801/12/20210942     3300003237421964250000C2AC0100001277460000000000000                                                                              CATAPRESAN TAB 150 MCGCOM     2
CC0000072125757H202100000556419800000556419801/12/20210942     3300003237421964250000C07A0100001277830000000000000                                                                           DILATREND TAB 12.5 MG /R/TAB     2
CC0000072125757H202100000556419800000556419801/12/20210944     3300003237421964250000C2EA0400001278030000000000000                                                                                   RENITEC TAB 20 MGTAB     2
CC0000072125757H202100000556419800000556419801/12/20210942     3300003237421964250000S2BA1400000947290000000000000                                                            SOLU MEDROL POLVO SLN INY 500 MG/4 ML/R/VAL     1
CC0000072125757H202100000556419800000556419801/12/20210859     3300003237421964250000L04AA300000460440000000000000                                                                        TIMOGLOBULINA VIAL 25 MG /R/VAL     5
CC0000072125757H202100000556419800000556419801/12/20210944     3300003237421964250000N2BE0100001276930000000000000                                                                                    DOLEX TAB 500 MGTAB     3
CC0000072125757H202100000556419800000556419801/12/20210942     3300003237421964250000N2BB1100000217160000000000000                                                                      NOVALGINA Sln Iny 2.5 g x 5 mlAMP     1
CC0000072125757H202100000556419800000556419801/12/20210942     3300003237421964250000P02CA100001408960000000000000                                                                                   ZENTEL TAB 400 MGCAJ     1
