RC0001048085516H202100015052792100015052792101/12/20211603    3150051923742196425000022426800001140510000000000000                                                                    EQUIPO MACROGOTEO BAXTER MRC0001SOB     1
RC0001048085516H202100015052792100015052792101/12/20211603    3150051923742196425000030936900001431840000000000000                                                                                              BURETABOL     1
CC0000003732648H202100015052792100015052792101/12/20211603    3150051923742196425000030936900001431840000000000000                                                                                              BURETABOL     1
CC0000022438763H202100015052792100015052792101/12/20211603    31500519237421964250000E1AD0300000199490000000000000                                         LACTATO RINGER USP (HARTMANN)  SOL INY  BOL X 1000ML BAXTERBIN     1
RC0001048085516H202100015052792100015052792101/12/20211603    31500519237421964250000E1AB0300003888390000000000000                                                            SOLUCION SALINA 0.9% SLN INY BO X 500 MLBOL     1
RC0001234892124H202100015052792100015052792101/12/20211603    31500519237421964250000E1AC0100000199400000000000000                                                                          SUERO MIXTO Sln Iny 500 mlBIN     2
