CC0000053000433H202100015022558300015022558301/12/20211253    3190330823742196425000022426800001140510000000000000                                                                    EQUIPO MACROGOTEO BAXTER MRC0001SOB     1
CC0000053000433H202100015022558300015022558301/12/20211253    3190330823742196425000030936900001431840000000000000                                                                                              BURETABOL     1
CC0000016200301H202100015022558300015022558301/12/20211253    31903308237421964250000E1AB0200000199290000000000000                                                            SOLUCION SALINA 0.9% SLN INY BO X 100 MLBIN     4
CC0000012576309H202100015022558300015022558301/12/20211253    31903308237421964250000E1AB0200000199290000000000000                                                            SOLUCION SALINA 0.9% SLN INY BO X 100 MLBIN     4
CC0000011312131H202100015022558300015022558301/12/20211253    31903308237421964250000E1AB1100003888280000000000000                                                                        SOLUCION SALINA 0.9% X 50 mlBOL     4
