TI0001043465362U202100050131874400050131874401/12/20211710    3190145323942196432000017567000000232740000000000000                                                                   PROLENE 6-0 AZ 45 P1 PRIME P8697TSIN     1
TI0001043465362U202100050131874400050131874401/12/20211710    3190145323942196432000024674000001138340000000000000   JERINGA 3PARTES C/A 10ML REF JEHL005 CAJ X 100 ALFASAFE  21GX1 PULG 1/2 PULG BN EXENTO-DC.417/202PZA     1
TI0001043465362U202100050131874400050131874401/12/20211710    3190145323942196432000024673600000222980000000000000                                                                     JERINGA DESECHABLE 5 ml 27*11/2SIN     1
TI0001043465362U202100050131874400050131874401/12/20211710    3190145323942196432000011047900000223010000000000000                                                                            JERINGA X 1ML REF 302579SIN     1
TI0001043465362U202100050131874400050131874401/12/20211710    3190145323942196432000011085100001082120000000000000                                                                           GUANTE QUIRURGICO TALLA 7SOB     1
TI0001043465362U202100050131874400050131874401/12/20211710    3190145323942196432000013077800000471960000000000000                                                             GASA NO TEJIDA EST 7.5 X 7.5 SOB X 3 UNSOB     5
