CC0001140869518U202100000556426200000556426201/12/20210737    31901453239421964320000E1AB0200000199290000000000000                                                            SOLUCION SALINA 0.9% SLN INY BO X 100 MLBIN     2
CC0001140869518U202100000556426200000556426201/12/20210640    31500354239421964320000E1AD0300000199490000000000000                                         LACTATO RINGER USP (HARTMANN)  SOL INY  BOL X 1000ML BAXTERBIN     1
CC0001140869518U202100000556426200000556426201/12/20212229     3300010239421964320000N5CD0300000218170000000000000                                                              DORMICUM IV-IM 5MG/5ML(1MG/ML) SOL INYAMP     1
CC0001140869518U202100000556426200000556426201/12/20210703     3300004239421964320000N5CD0300000218170000000000000                                                              DORMICUM IV-IM 5MG/5ML(1MG/ML) SOL INYAMP     1
CC0001140869518U202100000556426200000556426201/12/20212057     3300010239421964320000N03A0700001192940000000000000                                                             RIVOTRIL SLN Oral 2.5 MG/ML FCO x 2O MLFCO     1
CC0001140869518U202100000556426200000556426201/12/20211335     3300010239421964320000N05A1300000614370000000000000                                                                       HALOPERIDOL SLN INY 5 MG / MLAMP     1
