CC0000052863354U202100000556418300000556418301/12/20210132    31901355239421964320000E1AD0300000199490000000000000                                         LACTATO RINGER USP (HARTMANN)  SOL INY  BOL X 1000ML BAXTERBIN     1
CC0000052863354U202100000556418300000556418301/12/20212228     3300010239421964320000J01CR200000947130000000000000                                                              AMPICILINA /SULBACTAN POLVO LIOF 1.5 GAMP     2
CC0000052863354U202100000556418300000556418301/12/20211613     3300010239421964320000J01CR200000947130000000000000                                                              AMPICILINA /SULBACTAN POLVO LIOF 1.5 GAMP     1
CC0000052863354U202100000556418300000556418301/12/20210827     3300004239421964320000J01CR200000947130000000000000                                                              AMPICILINA /SULBACTAN POLVO LIOF 1.5 GAMP     1
