TI0001042248153H202100000556437500000556437501/12/20211107     3300003237421964250000A2BC0900000200150000000000000                                                                               ORAZOLE Sln Iny 40 mgCIN     1
TI0001042248153H202100000556437500000556437501/12/20211551     3300009237421964250000J01DB300000553200000000000000                                                                         CEFALOTINA SLN INY 1 G VIALVAL     1
TI0001042248153H202100000556437500000556437501/12/20211107     3300003237421964250000J01DB300000553200000000000000                                                                         CEFALOTINA SLN INY 1 G VIALVAL     2
TI0001042248153H202100000556437500000556437501/12/20211551     3300009237421964250000N2BB0500000217140000000000000                                                                          NOVALGINA Sln Iny 1 g/2 mlAMP     1
TI0001042248153H202100000556437500000556437501/12/20211107     3300003237421964250000N2BB0500000217140000000000000                                                                          NOVALGINA Sln Iny 1 g/2 mlAMP     2
TI0001042248153H202100000556437500000556437501/12/20211107     3300003237421964250000N02B1100001464120000000000000                                           PARACETAMOL EP 1000MG/100ML(10MG/ML) SOL INY  CAJ X 10FCOVAL     3
TI0001042248153H202100000556437500000556437501/12/20211249    31903308237421964250000V07A1300000502600000000000000                                                                                AGUA ESTERIL x 10 mlAMP     8
