CC0000019490174H202100000556425600000556425601/12/20211554     3300009237421964250000A7DA1400000203670000000000000                                                                          SMECTA POLVO SOBRE 3 G /R/SIN     1
CC0000019490174H202100000556425600000556425601/12/20210906     3300009237421964250000A7DA1400000203670000000000000                                                                          SMECTA POLVO SOBRE 3 G /R/SIN     2
CC0000019490174H202100000556425600000556425601/12/20211344     3300009237421964250000C3DA0500001278910000000000000                                                                               GLUCOPHAGE TAB 850 MGTAB     3
CC0000019490174H202100000556425600000556425601/12/20211554     3300009237421964250000B1AB0200003939510000000000000                 ENOXAPARINA SODICA 40MG/0.4ML(100MG/ML) SOL INY INST CAJ X 2JERPREL X 0.4ML TECHDOWJRP     1
CC0000019490174H202100000556425600000556425601/12/20212105    31500072237421964250000E1AD0300000199490000000000000                                         LACTATO RINGER USP (HARTMANN)  SOL INY  BOL X 1000ML BAXTERBIN     1
CC0000019490174H202100000556425600000556425601/12/20211344     3300009237421964250000C7FA0200001277980000000000000                                                                                    NORVAS TAB 10 MGTAB     1
CC0000019490174H202100000556425600000556425601/12/20210907     3300009237421964250000C2EA0400001278030000000000000                                                                                   RENITEC TAB 20 MGTAB     1
CC0000019490174H202100000556425600000556425601/12/20210907     3300009237421964250000N3AB1000001379310000000000000                                                                            NEURONTIN Cap 400 mg /R/CAP     1
CC0000019490174H202100000556425600000556425601/12/20211533     3300009237421964250000R03BB100000840150000000000000                                                            ATROVENT INH ORAL 20 MCG/DO X 200 DO /R/FCO     1
CC0000019490174H202100000556425600000556425601/12/20211714     3300009237421964250000A11A2200001050880000000000000                                                                 GLUCERNA LIQUIDO 1.5 KCAL X 1000 MLFCO     1
CC0000019490174H202100000556425600000556425601/12/20210906     3300009237421964250000A02BC700001684270000000000000                                                            OMEPRAZOL 40MG POLVO LIOFILIZADO AMPOLLAVAL     1
CC0000019490174H202100000556425600000556425601/12/20212103    31500072237421964250000V07A1300000502600000000000000                                                                                AGUA ESTERIL x 10 mlAMP     4
CC0000019490174H202100000556425600000556425601/12/20211443    31500387237421964250000V07A1300000502600000000000000                                                                                AGUA ESTERIL x 10 mlAMP     4
