RC0001044671776H202100015122542900015122542901/12/20210854    31500528237421964250000Q1AA1000000256790000000000000                                                                         SONDA ASPIRACION CONTROL #8SIN     8
RC0001046723141H202100015122542900015122542901/12/20210854    3150052823742196425000038576500000256730000000000000                                                                        SONDA ASPIRACION CONTROL #10SIN     8
RC0001146544136H202100015122542900015122542901/12/20210854    3150052823742196425000036441300000236540000000000000                                                                    JERINGA 1 ML GASES ARTERIAL 9023SIN     3
RC0001034521434H202100015122542900015122542901/12/20210854    3150052823742196425000036441300000236540000000000000                                                                    JERINGA 1 ML GASES ARTERIAL 9023SIN     3
RC0001146544136H202100015122542900015122542901/12/20210854    3150052823742196425000024674000001138340000000000000   JERINGA 3PARTES C/A 10ML REF JEHL005 CAJ X 100 ALFASAFE  21GX1 PULG 1/2 PULG BN EXENTO-DC.417/202PZA     5
RC0001044671776H202100015122542900015122542901/12/20210854    3150052823742196425000024674000001138340000000000000   JERINGA 3PARTES C/A 10ML REF JEHL005 CAJ X 100 ALFASAFE  21GX1 PULG 1/2 PULG BN EXENTO-DC.417/202PZA     6
RC0001046723141H202100015122542900015122542901/12/20210854    3150052823742196425000024674000001138340000000000000   JERINGA 3PARTES C/A 10ML REF JEHL005 CAJ X 100 ALFASAFE  21GX1 PULG 1/2 PULG BN EXENTO-DC.417/202PZA     5
RC0001146544136H202100015122542900015122542901/12/20210854    31500528237421964250000E1BA0100000198890000000000000                                                                   AGUA ESTERIL USP SLN INY X 500 MLBIN     2
RC0001034521434H202100015122542900015122542901/12/20210854    31500528237421964250000E1BA0100000198890000000000000                                                                   AGUA ESTERIL USP SLN INY X 500 MLBIN     2
