RC0001063188076H202100920901120100920901120101/12/20210622    3190229123742196425000038569500000994340000000000000                                                             SONDA FOLEY 2 VIAS 6F MA-220603 UROTECHSOB     1
RC0001063188076H202100920901120100920901120101/12/20210622    3190229123742196425000043485100001618510000000000000                GUANTE QUIRURGICO DE LATEX REF 2D72N65X CAJ X 50 PROTEXIS  6.5 BN EXENTO-DC.417/2020SOB     1
RC0001063188076H202100920901120100920901120101/12/20210622    31902291237421964250000Q1AA5900000236800000000000000                                                                            CISTOFLO PEDIAT X 500 mlSIN     1
