CC0000016663338H202100000556421100000556421101/12/20210806     3300010237421964250000A02B0600001277230000000000000                                                                                NEXIUM Tab 40 mg /R/TAB     1
CC0000016663338H202100000556421100000556421101/12/20210807     3300010237421964250000A6AC0200001467010000000000000                                                             LACTULAX JARABE 66.7G/100ML SOX15ML /R/SOB     2
CC0000016663338H202100000556421100000556421101/12/20210806     3300010237421964250000A6AC0200001467010000000000000                                                             LACTULAX JARABE 66.7G/100ML SOX15ML /R/SOB     1
CC0000016663338H202100000556421100000556421101/12/20211853     3300009237421964250000J1DA0200001277350000000000000                                                                                   KEFLEX TAB 500 MGTAB     1
CC0000016663338H202100000556421100000556421101/12/20210806     3300010237421964250000J1DA0200001277350000000000000                                                                                   KEFLEX TAB 500 MGTAB     5
CC0000016663338H202100000556421100000556421101/12/20210237    31901156237421964250000E1BA0700000198910000000000000                                                                   UROMATIC Sln IRRIGACION X 3000 MLBIN     7
CC0000016663338H202100000556421100000556421101/12/20211853     3300009237421964250000N2BE2200001252930000000000000                                                                             ACETAMINOFEN Tab 500 MGTAB     1
CC0000016663338H202100000556421100000556421101/12/20210807     3300010237421964250000N2BE2200001252930000000000000                                                                             ACETAMINOFEN Tab 500 MGTAB     5
