CC0000033113513U202100178535120100178535120101/12/20210144    3190135523942196432000030936900001431840000000000000                                                                                              BURETABOL     1
CC0000033113513U202100178535120100178535120101/12/20210144    3150025023942196432000016830000000970620000000000000                                                             SIST FIJACION CAT PERIFERICO 6.5X7 1683SOB     1
CC0000033113513U202100178535120100178535120101/12/20210144    3150025023942196432000022426800001140510000000000000                                                                    EQUIPO MACROGOTEO BAXTER MRC0001SOB     1
CC0000033113513U202100178535120100178535120101/12/20210144    3150025023942196432000024674000001138340000000000000   JERINGA 3PARTES C/A 10ML REF JEHL005 CAJ X 100 ALFASAFE  21GX1 PULG 1/2 PULG BN EXENTO-DC.417/202PZA     1
CC0000033113513U202100178535120100178535120101/12/20210144    31500250239421964320000Q1AA7300000610640000000000000                                                            CATETER PERIFE INTROCAN # 22G 4251628-04SIN     1
CC0000033113513U202100178535120100178535120101/12/20210144    31500250239421964320000E1AB0200000199290000000000000                                                            SOLUCION SALINA 0.9% SLN INY BO X 100 MLBIN     1
CC0000033113513U202100178535120100178535120101/12/20210144    3150025023942196432000001956000001620610000000000000                                                                      CONECTOR MICRO CLAVE LAT-MC100SOB     1
