CC0000022696914A202100000027794600000027794601/12/20210757    3190333624042196419000011082700001620070000000000000                                                               EQUIPO SET PRIMARIO C/CLAVE REF 14001BOL     1
CC0000022696914A202100000027794600000027794601/12/20210757    31903336240421964190000N2AX0900001672040000000000000                                                                              TRAMADOL SLN INY 50 MGAMP     1
CC0000022696914A202100000027794600000027794601/12/20210757    31903336240421964190000N01A0500003844190000000000000                                                                          REMIFENTANILO SLN INY 2 MGVAL     1
CC0000022696914A202100000027794600000027794601/12/20210757    31903336240421964190000M03AB100001371510000000000000                                                            ADECUAC SUCCINILCOLINA  100mg/mL SOL INYVAL     1
CC0000022696914A202100000027794600000027794601/12/20210757    31903336240421964190000B02AA100001407470000000000000                                                                    CLINTRANEX SLN INY 500 MG / 5 MLAMP     2
CC0000022696914A202100000027794600000027794601/12/20210757    31903336240421964190000C01C0300001261020000000000000                                                               ETILEFRINA HCL SLN INY 10 MG/1 ML /R/AMP     1
CC0000022696914A202100000027794600000027794601/12/20210757    31903336240421964190000N01A0400003939010000000000000                                               MAYOPROFOL 200MG/20ML(1%) EMUL INY CAJ X 1VIAL X 20MLVAL     1
CC0000022696914A202100000027794600000027794601/12/20210757    3190333624042196419000018351100000232850000000000000                                                                                 SEDA 2-0 SC-26 185TSIN     1
CC0000022696914A202100000027794600000027794601/12/20210757    3190333624042196419000000500600004008630000000000000         SUTURA ABSORBIBLE MONOFIL P-12 REF SM-5627 CAJ X 12 BIOSYN 45CM - 4-0 BN EXENTO-DC.417/2020SIN     1
CC0000022696914A202100000027794600000027794601/12/20210757    3190333624042196419000019489000000599330000000000000                                                                           VICRYL 4-0 RB1 70 VCP304HSIN     1
CC0000022696914A202100000027794600000027794601/12/20210757    3190333624042196419000045138000001413890000000000000                                                                       LAPIZ ELECTROBISTURI  SOB X 1SOB     1
CC0000022696914A202100000027794600000027794601/12/20210757    3190333624042196419000021052200000380370000000000000                                                                        RESERVORIO J-VAC 100 ml 2160PZA     1
CC0000022696914A202100000027794600000027794601/12/20210757    3190333624042196419000021052100000576790000000000000                                                                   DRENAJE BLAKE PLANO REF 2211  7MMSIN     1
CC0000022696914A202100000027794600000027794601/12/20210757    3190333624042196419000030825800000270990000000000000                                                                  ALGODON ESTERIL SOBRE X 3 TORUNDASPZA     4
CC0000022696914A202100000027794600000027794601/12/20210757    3190333624042196419000030161400001459220000000000000                                                                       MANGUERA SUCCION 6 MM*3.1 MTSSOB     1
CC0000022696914A202100000027794600000027794601/12/20210757    3190333624042196419000018352000000232900000000000000                                                                                   SEDA 3-0 SH K832HSIN     1
CC0000022696914A202100000027794600000027794601/12/20210757    3190333624042196419000018350200000232870000000000000                                                                                  SEDA 3-0 S.A SA84TSIN     1
CC0000022696914A202100000027794600000027794601/12/20210757    3190333624042196419000043879100001138200000000000000                                                                  HOJA BISTURI # 15 CSSB 15 01002003SOB     1
CC0000022696914A202100000027794600000027794601/12/20210757    3190333624042196419000022425200000548240000000000000                       EXTENSION DE ANESTESIA REF 1139 SOB X 1 SHERLEG  ADULTO BN EXENTO-DC.417/2020SIN     1
CC0000022696914A202100000027794600000027794601/12/20210757    3190333624042196419000035356500003919000000000000000                                                                                        LLAVE 3 VIASSOB     2
CC0000022696914A202100000027794600000027794601/12/20210757    31903336240421964190000Q1AA7100000610620000000000000                                                            CATETER PERIFE INTROCAN # 18G 4251687-04SIN     1
CC0000022696914A202100000027794600000027794601/12/20210757    3190333624042196419000022426800001140510000000000000                                                                    EQUIPO MACROGOTEO BAXTER MRC0001SOB     1
CC0000022696914A202100000027794600000027794601/12/20210757    31903336240421964190000J01DA300001239950000000000000                                                            CEFAZOLINA SODICA POLVO LIOF SLN INY 1 GVAL     2
CC0000022696914A202100000027794600000027794601/12/20210757    3190333624042196419000011073300001096420000000000000                                                                BOLSA DE SUCCION DE FLUIDOS x 2500mLBOL     1
CC0000022696914A202100000027794600000027794601/12/20210757    3190333624042196419000020750600000296780000000000000                                                                PLACA ELECTRO RETORNO PACIENTE E7506SIN     1
CC0000022696914A202100000027794600000027794601/12/20210757    3190333624042196419000053074400000607910000000000000                                                               GASA ESTERIL 10*10 SOBRE X 3 UNIDADESSOB     7
CC0000022696914A202100000027794600000027794601/12/20210757    3190333624042196419000024673000001411210000000000000                                                                  JERINGA DESECHABLE 3 ML 21 X 1 1/2SOB     2
CC0000022696914A202100000027794600000027794601/12/20210757    3190333624042196419000024673600000222980000000000000                                                                     JERINGA DESECHABLE 5 ml 27*11/2SIN     2
CC0000022696914A202100000027794600000027794601/12/20210757    3190333624042196419000024674000001138340000000000000   JERINGA 3PARTES C/A 10ML REF JEHL005 CAJ X 100 ALFASAFE  21GX1 PULG 1/2 PULG BN EXENTO-DC.417/202PZA     6
CC0000022696914A202100000027794600000027794601/12/20210757    3190333624042196419000024674500000322810000000000000                                                                   JERINGA DESECHABLE 20 ml 21*1 1/2SIN     1
CC0000022696914A202100000027794600000027794601/12/20210757    3190333624042196419000051515400000598150000000000000                                                                            MASCARILLA ANESTESIA # 4SIN     1
CC0000022696914A202100000027794600000027794601/12/20210757    3190333624042196419000038568100000258050000000000000                                                                         CANULA OXIGENO NASAL ADULTOSIN     1
CC0000022696914A202100000027794600000027794601/12/20210757    3190333624042196419000011085200001585390000000000000                                                                       GUANTE QUIRURGICO TALLA 7 1/2SOB     1
CC0000022696914A202100000027794600000027794601/12/20210757    3190333624042196419000011085100001082120000000000000                                                                           GUANTE QUIRURGICO TALLA 7SOB     2
CC0000022696914A202100000027794600000027794601/12/20210757    3190333624042196419000043485100001618510000000000000                GUANTE QUIRURGICO DE LATEX REF 2D72N65X CAJ X 50 PROTEXIS  6.5 BN EXENTO-DC.417/2020SOB     5
CC0000022696914A202100000027794600000027794601/12/20210757    3190333624042196419000020056600001101530000000000000                                                                AGUJA HIPODERMICA DESECH 18G X 1 1/2SOB     1
CC0000022696914A202100000027794600000027794601/12/20210757    3190333624042196419000020058100001101630000000000000                                                                     AGUJA HIPODERMICA DESECH 23 X 1SOB     1
CC0000022696914A202100000027794600000027794601/12/20210757    3190333624042196419000031010900000762730000000000000                                                                          CANULA GUEDEL # 4 (100 MM)SOB     1
CC0000022696914A202100000027794600000027794601/12/20210757    31903336240421964190000E1AD0200003888320000000000000                                                                              HARTMAN SLN INY 500 MLBOL     2
CC0000022696914A202100000027794600000027794601/12/20210757    31903336240421964190000E1AB0300003888390000000000000                                                            SOLUCION SALINA 0.9% SLN INY BO X 500 MLBOL     5
CC0000022696914A202100000027794600000027794601/12/20210757    31903336240421964190000E1AB0700003888350000000000000                                                            SOLUCION SALINA 0.9% SLN INY BO X 250 MLBOL     1
CC0000022696914A202100000027794600000027794601/12/20210757    31903336240421964190000N1BA2400001687720000000000000                                                    LIDOCAINA 2% SOL INY  CAJ X 50AMP X 10ML CORPAULAMP     1
CC0000022696914A202100000027794600000027794601/12/20210757    31903336240421964190000N01B1600003888910000000000000                                             BUPIROP SE S/P 50MG/10ML(5MG/ML) SOL INY CAJ X 24AMPACKAPC     1
CC0000022696914A202100000027794600000027794601/12/20210757    31903336240421964190000A2BC0900000200150000000000000                                                                               ORAZOLE Sln Iny 40 mgCIN     1
CC0000022696914A202100000027794600000027794601/12/20210757    31903336240421964190000A03F0300001626860000000000000                                                                   METOCLOPRAMIDA SLN INY 10 MG/2 MLAMP     1
CC0000022696914A202100000027794600000027794601/12/20210757    31903336240421964190000N2BB0100001672010000000000000                                  DIPIRONA 1GR/2ML(0.5GR/ML) SOL INY INST CAJ X 100AMP X 2ML VITALISAMP     2
CC0000022696914A202100000027794600000027794601/12/20210757    31903336240421964190000M01A2000001664970000000000000                                                               DICLOFENACO SODICO SLN INY 75 MG/3 MLAMP     1
CC0000022696914A202100000027794600000027794601/12/20210757    31903336240421964190000H02A0100001664960000000000000                                                                        DEXAMETASONA SLN INY 4 MG/MLAMP     2
CC0000022696914A202100000027794600000027794601/12/20210757    31903336240421964190000N1AH0200003906560000000000000                                                                     FENTANIL Iny 0.05 mg/ml x 10 mlAMP     1
