RC0001043493559U202100050131870500050131870501/12/20211121    3150040623942196432000038568200000257000000000000000                                                                                   SONDA NELATON #06SIN     1
CC0000008707101U202100050131870500050131870501/12/20211121    31500406239421964320000B05C0200001339660000000000000                                                                        SOLUCION SALINA 0.9% X 10 MLJRP     1
RC0001043493559U202100050131870500050131870501/12/20211121    31500406239421964320000B05C0200001339660000000000000                                                                        SOLUCION SALINA 0.9% X 10 MLJRP     1
CC0000008707101U202100050131870500050131870501/12/20211121    3150040623942196432000036441300000236540000000000000                                                                    JERINGA 1 ML GASES ARTERIAL 9023SIN     1
