CC0000072259725H202100000556426700000556426701/12/20210704    31500272237421964250000E1AD0200003888320000000000000                                                                              HARTMAN SLN INY 500 MLBOL     1
CC0000072259725H202100000556426700000556426701/12/20211257     3300009237421964250000B01AB200000513350000000000000                                                                        CLENOX SLN INY 40 MG/ 0.4 MLJRP     1
CC0000072259725H202100000556426700000556426701/12/20211257     3300009237421964250000N2BE2200001252930000000000000                                                                             ACETAMINOFEN Tab 500 MGTAB     6
CC0000072259725H202100000556426700000556426701/12/20211257     3300009237421964250000N2BB0100001672010000000000000                                  DIPIRONA 1GR/2ML(0.5GR/ML) SOL INY INST CAJ X 100AMP X 2ML VITALISAMP     3
CC0000072259725H202100000556426700000556426701/12/20211257     3300009237421964250000A02BC700001684270000000000000                                                            OMEPRAZOL 40MG POLVO LIOFILIZADO AMPOLLAVAL     1
CC0000072259725H202100000556426700000556426701/12/20210956    31903303237421964250000V07A1300000502600000000000000                                                                                AGUA ESTERIL x 10 mlAMP     5
CC0000072259725H202100000556426700000556426701/12/20211257     3300009237421964250000A04AA200003932460000000000000                                                 ONDAX 4MG/2ML(2MG/ML) SOL INY INST CAJ X 1AMP X 2MLAMP     2
