RC0001048084511U202100050131878800050131878801/12/20212300    3190296823942196432000017566200001585160000000000000                                                                  PROLENE 4-0 AZ 45 PS2 PRIME P8682TSOB     1
RC0001048084511U202100050131878800050131878801/12/20212300    3190296823942196432000011048600000223020000000000000                                                                 JERINGA VACUNACION 3ML C/AGU 302542SIN     1
RC0001048084511U202100050131878800050131878801/12/20212300    3190296823942196432000011047900000223010000000000000                                                                            JERINGA X 1ML REF 302579SIN     1
RC0001048084511U202100050131878800050131878801/12/20212300    3190296823942196432000043485100001618510000000000000                GUANTE QUIRURGICO DE LATEX REF 2D72N65X CAJ X 50 PROTEXIS  6.5 BN EXENTO-DC.417/2020SOB     1
RC0001048084511U202100050131878800050131878801/12/20212300    3190296823942196432000013077800000471960000000000000                                                             GASA NO TEJIDA EST 7.5 X 7.5 SOB X 3 UNSOB     6
RC0001048084511U202100050131878800050131878801/12/20212300    31902968239421964320000E1AB0200000199290000000000000                                                            SOLUCION SALINA 0.9% SLN INY BO X 100 MLBIN     1
