CC0000028005782H202100015022558800015022558801/12/20211651    31901151237421964250000V07A1300000502600000000000000                                                                                AGUA ESTERIL x 10 mlAMP     8
CC0000012558189H202100015022558800015022558801/12/20211651    31901151237421964250000V07A1300000502600000000000000                                                                                AGUA ESTERIL x 10 mlAMP     8
CC0000028005782H202100015022558800015022558801/12/20211651    3190115123742196425000024674000001138340000000000000   JERINGA 3PARTES C/A 10ML REF JEHL005 CAJ X 100 ALFASAFE  21GX1 PULG 1/2 PULG BN EXENTO-DC.417/202PZA     8
CC0000012558189H202100015022558800015022558801/12/20211651    3190115123742196425000024674000001138340000000000000   JERINGA 3PARTES C/A 10ML REF JEHL005 CAJ X 100 ALFASAFE  21GX1 PULG 1/2 PULG BN EXENTO-DC.417/202PZA     8
CC0000028005782H202100015022558800015022558801/12/20211651    3190115123742196425000030936900001431840000000000000                                                                                              BURETABOL     1
CC0000012558189H202100015022558800015022558801/12/20211651    3190115123742196425000030936900001431840000000000000                                                                                              BURETABOL     1
