CE0000000251843H202100920033120100920033120101/12/20212100    3190062723742196425000011082700001620070000000000000                                                               EQUIPO SET PRIMARIO C/CLAVE REF 14001BOL     1
CE0000000251843H202100920033120100920033120101/12/20212100    3190062723742196425000022426800001140510000000000000                                                                    EQUIPO MACROGOTEO BAXTER MRC0001SOB     1
CE0000000251843H202100920033120100920033120101/12/20212100    3190062723742196425000030936900001431840000000000000                                                                                              BURETABOL     1
CE0000000251843H202100920033120100920033120101/12/20212124    3190062723742196425000016830000000970620000000000000                                                             SIST FIJACION CAT PERIFERICO 6.5X7 1683SOB     1
CE0000000251843H202100920033120100920033120101/12/20212124    31900627237421964250000Q1AA7300000610640000000000000                                                            CATETER PERIFE INTROCAN # 22G 4251628-04SIN     2
CE0000000251843H202100920033120100920033120101/12/20212124    3190062723742196425000001956000001620610000000000000                                                                      CONECTOR MICRO CLAVE LAT-MC100SOB     1
