RC0001048086464U202100000556429500000556429501/12/20210859     3300010239421964320000A2BC0900000200150000000000000                                                                               ORAZOLE Sln Iny 40 mgCIN     1
RC0001048086464U202100000556429500000556429501/12/20210859     3300010239421964320000A4AD0200000202990000000000000                                                                     PLITICAN HCL Sln Iny 50 mg/2 mlAMP     1
RC0001048086464U202100000556429500000556429501/12/20210859     3300010239421964320000A06AD200001107080000000000000                                                            POLIETILENGLICOL 3350 POLVO ORAL X G /R/FCO     1
RC0001048086464U202100000556429500000556429501/12/20210912    31902327239421964320000E1AD0300000199490000000000000                                         LACTATO RINGER USP (HARTMANN)  SOL INY  BOL X 1000ML BAXTERBIN     1
