RC0001146544136H202100015122543700015122543701/12/20211655    3150052823742196425000063153700001294640000000000000                                                            CIRCUITO TERAPIA ALTO FLUJO PEDIAT RT330PZA     1
RC0001146544136H202100015122543700015122543701/12/20211655    3150052823742196425000001200900001294660000000000000                                                                CANULA NASAL PED REF OPT318 OPTIFLOWPZA     1
RC0001046723141H202100015122543700015122543701/12/20211655    3150052823742196425000001200900001294660000000000000                                                                CANULA NASAL PED REF OPT318 OPTIFLOWPZA     1
RC0001046723141H202100015122543700015122543701/12/20211655    31500528237421964250000E1BA0100000198890000000000000                                                                   AGUA ESTERIL USP SLN INY X 500 MLBIN     2
