CC0000019132127H202100000556426500000556426501/12/20210928     3300003237421964250000A2BC0100001277990000000000000                                                                                   ORAZOLE CAP 20 MGCAP     1
CC0000019132127H202100000556426500000556426501/12/20211634     3300009237421964250000A6AC0200001467010000000000000                                                             LACTULAX JARABE 66.7G/100ML SOX15ML /R/SOB     2
CC0000019132127H202100000556426500000556426501/12/20211426     3300009237421964250000B02AA100001407470000000000000                                                                    CLINTRANEX SLN INY 500 MG / 5 MLAMP     2
CC0000019132127H202100000556426500000556426501/12/20210928     3300003237421964250000B02AA100001407470000000000000                                                                    CLINTRANEX SLN INY 500 MG / 5 MLAMP     4
CC0000019132127H202100000556426500000556426501/12/20211625    31500534237421964250000E1AB0500003888400000000000000                                                              SOLUCION SALINA 0.9% SLN INY X 1000 MLBOL     1
CC0000019132127H202100000556426500000556426501/12/20210928     3300003237421964250000C09CA500001335670000000000000                                                                            OLMESARTAN 20 MG TABLETATAB     1
CC0000019132127H202100000556426500000556426501/12/20210928     3300003237421964250000J01DA300001239950000000000000                                                            CEFAZOLINA SODICA POLVO LIOF SLN INY 1 GVAL     4
CC0000019132127H202100000556426500000556426501/12/20210928     3300003237421964250000N1BA1900000554750000000000000                                                                     ROXICAINA JALEA 2% TUBO X 30 MLTUB     1
CC0000019132127H202100000556426500000556426501/12/20210929     3300003237421964250000N2BB0200000513030000000000000                                                                           LISALGIL Sln Iny 2 g/5 mlAMP     2
CC0000019132127H202100000556426500000556426501/12/20210929     3300003237421964250000N02B1100001464120000000000000                                           PARACETAMOL EP 1000MG/100ML(10MG/ML) SOL INY  CAJ X 10FCOVAL     3
CC0000019132127H202100000556426500000556426501/12/20211625    31500534237421964250000E1BA0700000198910000000000000                                                                   UROMATIC Sln IRRIGACION X 3000 MLBIN     6
CC0000019132127H202100000556426500000556426501/12/20210654    31903219237421964250000E1BA0700000198910000000000000                                                                   UROMATIC Sln IRRIGACION X 3000 MLBIN     6
