RC0001042865004H202100015032642400015032642401/12/20211956    3150046023742196425000011082700001620070000000000000                                                               EQUIPO SET PRIMARIO C/CLAVE REF 14001BOL     1
CC0000022324853H202100015032642400015032642401/12/20211956    3150046023742196425000011082700001620070000000000000                                                               EQUIPO SET PRIMARIO C/CLAVE REF 14001BOL     1
CC0000029051090H202100015032642400015032642401/12/20211956    31500460237421964250000B05B1500001012750000000000000                                                                   SOLUCION SALINA 3% Sln Iny 500 mlBOL     3
TI0001121302704H202100015032642400015032642401/12/20211956    31500460237421964250000E1AD0300000199490000000000000                                         LACTATO RINGER USP (HARTMANN)  SOL INY  BOL X 1000ML BAXTERBIN     2
CC0000022324853H202100015032642400015032642401/12/20211956    31500460237421964250000E1AD0200003888320000000000000                                                                              HARTMAN SLN INY 500 MLBOL     5
CC0000016663338H202100015032642400015032642401/12/20211956    31500460237421964250000E1AB0300003888390000000000000                                                            SOLUCION SALINA 0.9% SLN INY BO X 500 MLBOL     1
CC0000073136337H202100015032642400015032642401/12/20211956    31500460237421964250000E1AB0300003888390000000000000                                                            SOLUCION SALINA 0.9% SLN INY BO X 500 MLBOL     2
RC0001042865004H202100015032642400015032642401/12/20211956    31500460237421964250000E1AB1100003888280000000000000                                                                        SOLUCION SALINA 0.9% X 50 mlBOL     4
RC0001042865004H202100015032642400015032642401/12/20211956    31500460237421964250000E1AC0100000199400000000000000                                                                          SUERO MIXTO Sln Iny 500 mlBIN     3
