CC0000032734764H202100911892120100911892120101/12/20210919    3150008223742196425000043485100001618510000000000000                GUANTE QUIRURGICO DE LATEX REF 2D72N65X CAJ X 50 PROTEXIS  6.5 BN EXENTO-DC.417/2020SOB     3
CC0000032734764H202100911892120100911892120101/12/20210919    3150008223742196425000053074400000607910000000000000                                                               GASA ESTERIL 10*10 SOBRE X 3 UNIDADESSOB    10
CC0000032734764H202100911892120100911892120101/12/20210919    3150008223742196425000001956000001620610000000000000                                                                      CONECTOR MICRO CLAVE LAT-MC100SOB     1
CC0000032734764H202100911892120100911892120101/12/20210919    3150008223742196425000000101900000225280000000000000                                                                   AGUJA SURECAN CON ALAS 20G X 25MMSOB     1
