CC0000013887621H202100920499120100920499120101/12/20211708    3190235723742196425000011127400001413910000000000000                                                            EQUIPO ADMINIST NUTR PUNZON REF 674669 BBOL     1
CC0000013887621H202100920499120100920499120101/12/20211708    3190235723742196425000011137100001419310000000000000                                                               TIRA GLUCOMETRIA FREESTYLE H OPTIUM .PZA     4
CC0000013887621H202100920499120100920499120101/12/20211708    3190235723742196425000024674000001138340000000000000   JERINGA 3PARTES C/A 10ML REF JEHL005 CAJ X 100 ALFASAFE  21GX1 PULG 1/2 PULG BN EXENTO-DC.417/202PZA    20
CC0000013887621H202100920499120100920499120101/12/20211708    3190235723742196425000045136100001419300000000000000                                                                            LANCETA DEXTROMETER X UNPZA     2
CC0000013887621H202100920499120100920499120101/12/20211708    31902357237421964250000E1AB0200000199290000000000000                                                            SOLUCION SALINA 0.9% SLN INY BO X 100 MLBIN     5
CC0000013887621H202100920499120100920499120101/12/20211708    31902357237421964250000V07A1300000502600000000000000                                                                                AGUA ESTERIL x 10 mlAMP    10
CC0000013887621H202100920499120100920499120101/12/20211708    31902357237421964250000E1AD0300000199490000000000000                                         LACTATO RINGER USP (HARTMANN)  SOL INY  BOL X 1000ML BAXTERBIN     2
