CC0000023167428H202100000556429600000556429601/12/20210914     3300003237421964250000A02BC100001677520000000000000                                                                ESOMEPRAZOL POLVO LIOF INY 40 MG /R/VAL     1
CC0000023167428H202100000556429600000556429601/12/20210914     3300003237421964250000A6AC0200001467010000000000000                                                             LACTULAX JARABE 66.7G/100ML SOX15ML /R/SOB     1
CC0000023167428H202100000556429600000556429601/12/20210914     3300003237421964250000J3CB0200001333510000000000000                                                                                    CIPRO TAB 500 MGCOM     1
CC0000023167428H202100000556429600000556429601/12/20210914     3300003237421964250000N03AX700001335170000000000000                                                                                LYRICA CAP 50 MG /R/CAP     1
CC0000023167428H202100000556429600000556429601/12/20210914     3300003237421964250000N05A0500001336370000000000000                                                                              SEROQUEL TAB 25 MG /R/TAB     1
CC0000023167428H202100000556429600000556429601/12/20210914     3300003237421964250000N7XA0100001277900000000000000                                                                                     ZOLOF TAB 50 MGTAB     1
