CC0000013887621H202100015112728100015112728101/12/20210252    3190099923742196425000011051900000226360000000000000                                                               KIT TRANSDUCTOR SENCILLO S/VAMP PX260SOB     1
CC0000013887621H202100015112728100015112728101/12/20210252    3190099923742196425000011089400001083350000000000000                                                              GUANTE ESTERIL LATEX S/POLVO TALLA 8.0SOB     1
CC0000013887621H202100015112728100015112728101/12/20210252    3190099923742196425000000602700001197200000000000000                                                              APOSITO TRANSP  1655 IV 8.5CM X 11.5CMSOB     1
CC0000019490174H202100015112728100015112728101/12/20210252    3190099923742196425000000602700001197200000000000000                                                              APOSITO TRANSP  1655 IV 8.5CM X 11.5CMSOB     1
