CC0000022596813U202100050131874500050131874501/12/20211721    3190180623942196432000022426800001140510000000000000                                                                    EQUIPO MACROGOTEO BAXTER MRC0001SOB     1
CC0001051681679U202100050131874500050131874501/12/20211721    3190180623942196432000001956000001620610000000000000                                                                      CONECTOR MICRO CLAVE LAT-MC100SOB     1
CC0001100629898U202100050131874500050131874501/12/20211721    3190180623942196432000001956000001620610000000000000                                                                      CONECTOR MICRO CLAVE LAT-MC100SOB     1
CC0000022596813U202100050131874500050131874501/12/20211721    3190180623942196432000001956000001620610000000000000                                                                      CONECTOR MICRO CLAVE LAT-MC100SOB     1
CC0001051681679U202100050131874500050131874501/12/20211721    31901806239421964320000Q1AA7100000610620000000000000                                                            CATETER PERIFE INTROCAN # 18G 4251687-04SIN     1
CC0000022596813U202100050131874500050131874501/12/20211721    31901806239421964320000Q1AA7100000610620000000000000                                                            CATETER PERIFE INTROCAN # 18G 4251687-04SIN     1
CC0001051681679U202100050131874500050131874501/12/20211721    3190180623942196432000016830000000970620000000000000                                                             SIST FIJACION CAT PERIFERICO 6.5X7 1683SOB     1
CC0000022596813U202100050131874500050131874501/12/20211721    3190180623942196432000016830000000970620000000000000                                                             SIST FIJACION CAT PERIFERICO 6.5X7 1683SOB     1
CC0000022596813U202100050131874500050131874501/12/20211721    31901806239421964320000E1AB0300003888390000000000000                                                            SOLUCION SALINA 0.9% SLN INY BO X 500 MLBOL     1
