RC0001240292997U202100050131869300050131869301/12/20211006    3190093923942196432000011048600000223020000000000000                                                                 JERINGA VACUNACION 3ML C/AGU 302542SIN     1
CC0000008707101U202100050131869300050131869301/12/20211006    3190093923942196432000001956000001620610000000000000                                                                      CONECTOR MICRO CLAVE LAT-MC100SOB     1
CC0000008707101U202100050131869300050131869301/12/20211006    31900939239421964320000Q1AA7200000610630000000000000                                                            CATETER PERIFE INTROCAN # 20G 4251644-04SIN     1
CC0000008707101U202100050131869300050131869301/12/20211006    3190093923942196432000016830000000970620000000000000                                                             SIST FIJACION CAT PERIFERICO 6.5X7 1683SOB     1
