TI0001146534409U202100050131878700050131878701/12/20212250    3190118123942196432000049428400000738560000000000000                                                                       VENDA ELASTICA 5*5 NO ESTERILSOB     2
TI0001146534409U202100050131878700050131878701/12/20212250    3190118123942196432000019429800000455490000000000000                                                                                      VENDA YESO 5*5BIN     1
TI0001146534409U202100050131878700050131878701/12/20212250    3190118123942196432000049419700001679920000000000000                                                                        VENDA ALGODON 5*5 NO ESTERILSOB     2
RC0001048085119U202100050131878700050131878701/12/20212250    3190118123942196432000011048600000223020000000000000                                                                 JERINGA VACUNACION 3ML C/AGU 302542SIN     1
CC0000032747661U202100050131878700050131878701/12/20212250    3190118123942196432000024674000001138340000000000000   JERINGA 3PARTES C/A 10ML REF JEHL005 CAJ X 100 ALFASAFE  21GX1 PULG 1/2 PULG BN EXENTO-DC.417/202PZA     3
CC0000032747661U202100050131878700050131878701/12/20212250    3190118123942196432000020056600001101530000000000000                                                                AGUJA HIPODERMICA DESECH 18G X 1 1/2SOB     1
