RC0001046723141A202100000027811100000027811101/12/20211538    31903336240421964190000Q1AA5900000236800000000000000                                                                            CISTOFLO PEDIAT X 500 mlSIN     1
RC0001046723141A202100000027811100000027811101/12/20211538    3190333624042196419000038572700000256840000000000000                                                                                 SONDA NSG LEVIN #10SIN     1
RC0001046723141A202100000027811100000027811101/12/20211538    3190333624042196419000041997500001271900000000000000                                                              APOSITO DUODERM EXTRA THIN 15CM X 15CMSOB     3
RC0001046723141A202100000027811100000027811101/12/20211538    3190333624042196419000000600700001571630000000000000                                                            APOSITO AQUACEL AG 403711  19.5CM X 29.5SOB     1
RC0001046723141A202100000027811100000027811101/12/20211538    31903336240421964190000N1AH0200003906560000000000000                                                                     FENTANIL Iny 0.05 mg/ml x 10 mlAMP     1
RC0001046723141A202100000027811100000027811101/12/20211538    31903336240421964190000E1AB0500003888400000000000000                                                              SOLUCION SALINA 0.9% SLN INY X 1000 MLBOL     1
RC0001046723141A202100000027811100000027811101/12/20211538    3190333624042196419000030161400001459220000000000000                                                                       MANGUERA SUCCION 6 MM*3.1 MTSSOB     1
RC0001046723141A202100000027811100000027811101/12/20211538    3190333624042196419000043879100001138200000000000000                                                                  HOJA BISTURI # 15 CSSB 15 01002003SOB     2
RC0001046723141A202100000027811100000027811101/12/20211538    3190333624042196419000011073300001096420000000000000                                                                BOLSA DE SUCCION DE FLUIDOS x 2500mLBOL     1
RC0001046723141A202100000027811100000027811101/12/20211538    3190333624042196419000053074400000607910000000000000                                                               GASA ESTERIL 10*10 SOBRE X 3 UNIDADESSOB     2
RC0001046723141A202100000027811100000027811101/12/20211538    3190333624042196419000011085300001082140000000000000                                                                           GUANTE QUIRURGICO TALLA 8SOB     1
RC0001046723141A202100000027811100000027811101/12/20211538    3190333624042196419000011085200001585390000000000000                                                                       GUANTE QUIRURGICO TALLA 7 1/2SOB     3
RC0001046723141A202100000027811100000027811101/12/20211538    3190333624042196419000011085100001082120000000000000                                                                           GUANTE QUIRURGICO TALLA 7SOB     1
RC0001046723141A202100000027811100000027811101/12/20211538    3190333624042196419000011065700003914100000000000000                                                                 TAPON HEPARINIZADO 4238010  B BRAUNSOB     1
RC0001046723141A202100000027811100000027811101/12/20211538    31903336240421964190000Q1A11800000258040000000000000                                                                         CANULA OXIGENO NASAL PEDIATSIN     1
RC0001046723141A202100000027811100000027811101/12/20211538    3190333624042196419000035356500003919000000000000000                                                                                        LLAVE 3 VIASSOB     2
RC0001046723141A202100000027811100000027811101/12/20211538    3190333624042196419000011099300000777780000000000000                                                                     FILTRO BACTERIANO VIRICO ADULTOBOL     1
RC0001046723141A202100000027811100000027811101/12/20211538    3190333624042196419000031011400000762720000000000000                                                                           CANULA GUEDEL # 3 (90 MM)SOB     1
RC0001046723141A202100000027811100000027811101/12/20211538    3190333624042196419000024674000001138340000000000000   JERINGA 3PARTES C/A 10ML REF JEHL005 CAJ X 100 ALFASAFE  21GX1 PULG 1/2 PULG BN EXENTO-DC.417/202PZA     2
RC0001046723141A202100000027811100000027811101/12/20211538    31903336240421964190000N05CD300000218170000000000000                                           DORMICUM IV-IM 5MG/5ML(1MG/ML) SOL INY  CAJ X 10AMP X 5MLAMP     1
