CC0000072339909H202100015112728700015112728701/12/20211009    3150022123742196425000030161400001459220000000000000                                                                       MANGUERA SUCCION 6 MM*3.1 MTSSOB     1
CC0001066890191H202100015112728700015112728701/12/20211009    3150022123742196425000038569400000256750000000000000                                                                        SONDA ASPIRACION CONTROL #14SIN     7
CC0000028496269H202100015112728700015112728701/12/20211009    3150022123742196425000038569400000256750000000000000                                                                        SONDA ASPIRACION CONTROL #14SIN     6
CC0000072339909H202100015112728700015112728701/12/20211009    3150022123742196425000022108000003906060000000000000                                                            SIST CERRAD ASPIRAC TRACH  22108-5 14 FRSOB     1
CC0001066890191H202100015112728700015112728701/12/20211009    3150022123742196425000022108000003906060000000000000                                                            SIST CERRAD ASPIRAC TRACH  22108-5 14 FRSOB     1
CC0000022362807H202100015112728700015112728701/12/20211009    3150022123742196425000036441300000236540000000000000                                                                    JERINGA 1 ML GASES ARTERIAL 9023SIN     1
CC0000072339909H202100015112728700015112728701/12/20211009    3150022123742196425000036441300000236540000000000000                                                                    JERINGA 1 ML GASES ARTERIAL 9023SIN     3
CC0001066890191H202100015112728700015112728701/12/20211009    3150022123742196425000036441300000236540000000000000                                                                    JERINGA 1 ML GASES ARTERIAL 9023SIN     3
CC0000028496269H202100015112728700015112728701/12/20211009    3150022123742196425000036441300000236540000000000000                                                                    JERINGA 1 ML GASES ARTERIAL 9023SIN     2
CC0000028496269H202100015112728700015112728701/12/20211009    3150022123742196425000043485100001618510000000000000                GUANTE QUIRURGICO DE LATEX REF 2D72N65X CAJ X 50 PROTEXIS  6.5 BN EXENTO-DC.417/2020SOB     5
CC0000072339909H202100015112728700015112728701/12/20211009    3150022123742196425000011084700000516550000000000000                                                                FILTRO CALOR-HUMEDAD AD REF 352/5877SIN     1
CC0001066890191H202100015112728700015112728701/12/20211009    3150022123742196425000011084700000516550000000000000                                                                FILTRO CALOR-HUMEDAD AD REF 352/5877SIN     1
CC0001066890191H202100015112728700015112728701/12/20211009    3150022123742196425000011078200001605710000000000000                                                                 CONECTOR FIBROBRONCOSCOPIO 9591 40CSOB     1
