TI0001066284726H202100000556419200000556419201/12/20211149     3300009237421964250000S2BA0100000468160000000000000                                                                          SOLU-CORTEF SNL INY 100 MGVAL     5
TI0001066284726H202100000556419200000556419201/12/20211057     3300009237421964250000S2BA0100000468160000000000000                                                                          SOLU-CORTEF SNL INY 100 MGVAL     4
TI0001066284726H202100000556419200000556419201/12/20210147     3300010237421964250000S2BA0100000468160000000000000                                                                          SOLU-CORTEF SNL INY 100 MGVAL     1
TI0001066284726H202100000556419200000556419201/12/20210905    31903294237421964250000E1AC0100000199400000000000000                                                                          SUERO MIXTO Sln Iny 500 mlBIN     4
TI0001066284726H202100000556419200000556419201/12/20211231    31500082237421964250000E1AB0200000199290000000000000                                                            SOLUCION SALINA 0.9% SLN INY BO X 100 MLBIN     4
TI0001066284726H202100000556419200000556419201/12/20211149     3300009237421964250000A12BA100000552980000000000000                                                            CLORURO POTASIO Sln Iny AMP 20 MEQ/10 MLAMP     2
TI0001066284726H202100000556419200000556419201/12/20211056     3300009237421964250000A12BA100000552980000000000000                                                            CLORURO POTASIO Sln Iny AMP 20 MEQ/10 MLAMP     2
TI0001066284726H202100000556419200000556419201/12/20210147     3300010237421964250000R3CA0400000777470000000000000                                                               ADRENALINA HCL SLN INY 1 MG / ML RYANAMP     1
TI0001066284726H202100000556419200000556419201/12/20211316     3300009237421964250000H02A0100001664960000000000000                                                                        DEXAMETASONA SLN INY 4 MG/MLAMP     2
TI0001066284726H202100000556419200000556419201/12/20211149     3300009237421964250000H02A0100001664960000000000000                                                                        DEXAMETASONA SLN INY 4 MG/MLAMP     8
TI0001066284726H202100000556419200000556419201/12/20211056     3300009237421964250000H02A0100001664960000000000000                                                                        DEXAMETASONA SLN INY 4 MG/MLAMP     4
TI0001066284726H202100000556419200000556419201/12/20210148     3300010237421964250000H02A0100001664960000000000000                                                                        DEXAMETASONA SLN INY 4 MG/MLAMP     1
TI0001066284726H202100000556419200000556419201/12/20210147     3300010237421964250000H02A0100001664960000000000000                                                                        DEXAMETASONA SLN INY 4 MG/MLAMP     1
TI0001066284726H202100000556419200000556419201/12/20210835     3300010237421964250000L1BC8000003907750000000000000                                           CITARABINA 500MG/5ML(100MG/ML) SOL INY VIAL X 5ML ROPSOHNVAL     6
TI0001066284726H202100000556419200000556419201/12/20210834     3300010237421964250000L1BC8000003907750000000000000                                           CITARABINA 500MG/5ML(100MG/ML) SOL INY VIAL X 5ML ROPSOHNVAL     7
TI0001066284726H202100000556419200000556419201/12/20211057     3300009237421964250000N1BA3500000217940000000000000                                                                               ANESTECIN Crema x 5 gTUB     1
TI0001066284726H202100000556419200000556419201/12/20210307     3300010237421964250000N5BB0100001458430000000000000                                                                    HIDERAX Jbe 25 mg/10 ml x 120 mlFCO     1
TI0001066284726H202100000556419200000556419201/12/20211323     3300009237421964250000S1CA1000001127840000000000000                                                                      ISOPTO MAXIDEX SUSP OFT X 5 MLFCO     1
TI0001066284726H202100000556419200000556419201/12/20210905    31903294237421964250000V07A1300000502600000000000000                                                                                AGUA ESTERIL x 10 mlAMP     5
TI0001066284726H202100000556419200000556419201/12/20211149     3300009237421964250000A04AA200003932460000000000000                                                 ONDAX 4MG/2ML(2MG/ML) SOL INY INST CAJ X 1AMP X 2MLAMP     5
