RC0001146544136H202100000556425200000556425201/12/20211813     3300009237421964250000B02AA100001407470000000000000                                                                    CLINTRANEX SLN INY 500 MG / 5 MLAMP     1
RC0001146544136H202100000556425200000556425201/12/20211549     3300009237421964250000B02AA100001407470000000000000                                                                    CLINTRANEX SLN INY 500 MG / 5 MLAMP     1
RC0001146544136H202100000556425200000556425201/12/20210616     3300010237421964250000B02AA100001407470000000000000                                                                    CLINTRANEX SLN INY 500 MG / 5 MLAMP     1
RC0001146544136H202100000556425200000556425201/12/20210720    31901668237421964250000E1AC0100000199400000000000000                                                                          SUERO MIXTO Sln Iny 500 mlBIN     1
RC0001146544136H202100000556425200000556425201/12/20211121    31903307237421964250000E1AB0200000199290000000000000                                                            SOLUCION SALINA 0.9% SLN INY BO X 100 MLBIN     1
RC0001146544136H202100000556425200000556425201/12/20211121    31903307237421964250000E1AB0700003888350000000000000                                                            SOLUCION SALINA 0.9% SLN INY BO X 250 MLBOL     1
RC0001146544136H202100000556425200000556425201/12/20210913    31903307237421964250000E1AB0300003888390000000000000                                                            SOLUCION SALINA 0.9% SLN INY BO X 500 MLBOL     1
RC0001146544136H202100000556425200000556425201/12/20212319     3300009237421964250000J1FA1600001247370000000000000                                                                  KLARICID POLVO LIOF SLN INY 500 MGVAL     1
RC0001146544136H202100000556425200000556425201/12/20211549     3300009237421964250000J1FA1600001247370000000000000                                                                  KLARICID POLVO LIOF SLN INY 500 MGVAL     1
RC0001146544136H202100000556425200000556425201/12/20211101    31500528237421964250000E1BA0100000198890000000000000                                                                   AGUA ESTERIL USP SLN INY X 500 MLBIN     2
RC0001146544136H202100000556425200000556425201/12/20210616     3300010237421964250000B02BA100000561560000000000000                                                                           VITAMINA K1 SLN INY 10 MGAMP     1
RC0001146544136H202100000556425200000556425201/12/20211813     3300009237421964250000C03C0100001672000000000000000                                                                       FUROSEMIDA SLN INY 20 MG/2 MLAMP     1
RC0001146544136H202100000556425200000556425201/12/20210616     3300010237421964250000C03C0100001672000000000000000                                                                       FUROSEMIDA SLN INY 20 MG/2 MLAMP     1
RC0001146544136H202100000556425200000556425201/12/20211813     3300009237421964250000J01CR200000947130000000000000                                                              AMPICILINA /SULBACTAN POLVO LIOF 1.5 GAMP     1
RC0001146544136H202100000556425200000556425201/12/20211549     3300009237421964250000J01CR200000947130000000000000                                                              AMPICILINA /SULBACTAN POLVO LIOF 1.5 GAMP     1
RC0001146544136H202100000556425200000556425201/12/20210616     3300010237421964250000J01CR200000947130000000000000                                                              AMPICILINA /SULBACTAN POLVO LIOF 1.5 GAMP     2
RC0001146544136H202100000556425200000556425201/12/20211549     3300009237421964250000N2BB0100001672010000000000000                                  DIPIRONA 1GR/2ML(0.5GR/ML) SOL INY INST CAJ X 100AMP X 2ML VITALISAMP     1
RC0001146544136H202100000556425200000556425201/12/20210616     3300010237421964250000N2BB0100001672010000000000000                                  DIPIRONA 1GR/2ML(0.5GR/ML) SOL INY INST CAJ X 100AMP X 2ML VITALISAMP     1
RC0001146544136H202100000556425200000556425201/12/20211813     3300009237421964250000A02BC700001684270000000000000                                                            OMEPRAZOL 40MG POLVO LIOFILIZADO AMPOLLAVAL     1
RC0001146544136H202100000556425200000556425201/12/20210616     3300010237421964250000A02BC700001684270000000000000                                                            OMEPRAZOL 40MG POLVO LIOFILIZADO AMPOLLAVAL     1
RC0001146544136H202100000556425200000556425201/12/20210913    31903307237421964250000V07A1300000502600000000000000                                                                                AGUA ESTERIL x 10 mlAMP    10
