CC0001140828821H202100000556418800000556418801/12/20211143     3300009237421964250000A02B0600001277230000000000000                                                                                NEXIUM Tab 40 mg /R/TAB     1
CC0001140828821H202100000556418800000556418801/12/20211744     3300009237421964250000A3BB0200000512940000000000000                                                                          BUSCAPINA SIMPLE Iny 20 mgAMP     1
CC0001140828821H202100000556418800000556418801/12/20211144     3300009237421964250000A6AC0200001467010000000000000                                                             LACTULAX JARABE 66.7G/100ML SOX15ML /R/SOB     1
CC0001140828821H202100000556418800000556418801/12/20211144     3300009237421964250000A06AD100001193740000000000000                                                                      CONTUMAX 3350 SOBRE X 17 G /R/SOB     1
CC0001140828821H202100000556418800000556418801/12/20211143     3300009237421964250000A06AD100001193740000000000000                                                                      CONTUMAX 3350 SOBRE X 17 G /R/SOB     1
CC0001140828821H202100000556418800000556418801/12/20210143     3300010237421964250000A06AD100001193740000000000000                                                                      CONTUMAX 3350 SOBRE X 17 G /R/SOB     1
CC0001140828821H202100000556418800000556418801/12/20211144     3300009237421964250000B01A0600000216800000000000000                                                                   ARIXTRA SLN INY 2.5 MG/0.5 ML /R/SIN     2
CC0001140828821H202100000556418800000556418801/12/20210908    31903294237421964250000E1AB0700003888350000000000000                                                            SOLUCION SALINA 0.9% SLN INY BO X 250 MLBOL     3
CC0001140828821H202100000556418800000556418801/12/20210908    31903294237421964250000E1AB0300003888390000000000000                                                            SOLUCION SALINA 0.9% SLN INY BO X 500 MLBOL     1
CC0001140828821H202100000556418800000556418801/12/20210143     3300010237421964250000C3DA0100001278020000000000000                                                                                 ALDACTONE TAB 25 MGTAB     1
CC0001140828821H202100000556418800000556418801/12/20210143     3300010237421964250000C07A0100001277830000000000000                                                                           DILATREND TAB 12.5 MG /R/TAB     1
CC0001140828821H202100000556418800000556418801/12/20211144     3300009237421964250000H03A0900001278900000000000000                                                                                   EUTIROX TB 75 MCGTAB     1
CC0001140828821H202100000556418800000556418801/12/20211144     3300009237421964250000J1KF0200001677230000000000000                                                                      MERONEM POLVO SLN INY 1 G  /R/VAL     2
CC0001140828821H202100000556418800000556418801/12/20210143     3300010237421964250000J1KF0200001677230000000000000                                                                      MERONEM POLVO SLN INY 1 G  /R/VAL     1
CC0001140828821H202100000556418800000556418801/12/20211144     3300009237421964250000J01XA400001212420000000000000                                                               VANCOMICINA POLVO LIOF SLN INY 500 MGVAL     4
CC0001140828821H202100000556418800000556418801/12/20211139     3300009237421964250000N01B0200003888110000000000000                                           ROXICAINA SE 100MG/10ML(1%) SOL INY CAJ X 24AMPACK X 10MLAPC     1
CC0001140828821H202100000556418800000556418801/12/20210142     3300010237421964250000N01B0200003888110000000000000                                           ROXICAINA SE 100MG/10ML(1%) SOL INY CAJ X 24AMPACK X 10MLAPC     1
CC0001140828821H202100000556418800000556418801/12/20211144     3300009237421964250000N05A0500001336370000000000000                                                                              SEROQUEL TAB 25 MG /R/TAB     1
CC0001140828821H202100000556418800000556418801/12/20211744     3300009237421964250000N5BA0500001277630000000000000                                                                                   XANAX Tab 0.25 mgTAB     1
CC0001140828821H202100000556418800000556418801/12/20210908    31903294237421964250000V07A1300000502600000000000000                                                                                AGUA ESTERIL x 10 mlAMP     5
