CC0000032687713U202100000556434700000556434701/12/20211036     3300010239421964320000A03F0300001626860000000000000                                                                   METOCLOPRAMIDA SLN INY 10 MG/2 MLAMP     1
CC0000032687713U202100000556434700000556434701/12/20211418    31901806239421964320000E1AD0300000199490000000000000                                         LACTATO RINGER USP (HARTMANN)  SOL INY  BOL X 1000ML BAXTERBIN     2
CC0000032687713U202100000556434700000556434701/12/20211036     3300010239421964320000H02AB500001664950000000000000                                                            DEXAMETASONA SLN INY 8 MG/2 ML AMP /CDS/AMP     1
CC0000032687713U202100000556434700000556434701/12/20211036     3300010239421964320000A02BC700001684270000000000000                                                            OMEPRAZOL 40MG POLVO LIOFILIZADO AMPOLLAVAL     1
