TI0001047050967H202100000556447700000556447701/12/20211839    31901668237421964250000E1AB0200000199290000000000000                                                            SOLUCION SALINA 0.9% SLN INY BO X 100 MLBIN     1
TI0001047050967H202100000556447700000556447701/12/20211656    31903307237421964250000E1AD0300000199490000000000000                                         LACTATO RINGER USP (HARTMANN)  SOL INY  BOL X 1000ML BAXTERBIN     6
TI0001047050967H202100000556447700000556447701/12/20211812     3300009237421964250000A12BA100000552980000000000000                                                            CLORURO POTASIO Sln Iny AMP 20 MEQ/10 MLAMP     4
TI0001047050967H202100000556447700000556447701/12/20211656    31903307237421964250000B05B1400001012740000000000000                                                                SOLUCION SALINA 0.45% Sln Iny 500 mlBOL     2
TI0001047050967H202100000556447700000556447701/12/20211812     3300009237421964250000A10AE200000199280000000000000                                                                 NOVOLIN N SUSP INY 100UI/ML X 10 MLVAL     1
TI0001047050967H202100000556447700000556447701/12/20211549     3300009237421964250000A02BC700001684270000000000000                                                            OMEPRAZOL 40MG POLVO LIOFILIZADO AMPOLLAVAL     2
