CC0000032753507H202100015112729000015112729001/12/20211624    3150022123742196425000043995200000229010000000000000                                                               HUMIDIFICADOR PARA OXIGENO REF. H001BBOL     1
CC0000032753507H202100015112729000015112729001/12/20211624    3150022123742196425000038568100000258050000000000000                                                                         CANULA OXIGENO NASAL ADULTOSIN     1
CC0000072339909H202100015112729000015112729001/12/20211624    3150022123742196425000031010900000762730000000000000                                                                          CANULA GUEDEL # 4 (100 MM)SOB     1
