TI0001121302704U202100050131866300050131866301/12/20210327    3150025823942196432000001956000001620610000000000000                                                                      CONECTOR MICRO CLAVE LAT-MC100SOB     1
TI0001121302704U202100050131866300050131866301/12/20210327    31500258239421964320000Q1AA7400003911720000000000000                                                            CATETER PERIFE INTROCAN # 24G 4251601-04SOB     1
TI0001121302704U202100050131866300050131866301/12/20210327    3150025823942196432000016830000000970620000000000000                                                             SIST FIJACION CAT PERIFERICO 6.5X7 1683SOB     1
