RC0001194982455U202100050131873000050131873001/12/20211546    3190233623942196432000038568200000257000000000000000                                                                                   SONDA NELATON #06SIN     1
RC0001146546694U202100050131873000050131873001/12/20211546    3190233623942196432000000201400000256990000000000000                                                                          SONDA NELATON PLASTICA # 5SIN     1
RC0001146546694U202100050131873000050131873001/12/20211546    3190233623942196432000043485100001618510000000000000                GUANTE QUIRURGICO DE LATEX REF 2D72N65X CAJ X 50 PROTEXIS  6.5 BN EXENTO-DC.417/2020SOB     2
RC0001194982455U202100050131873000050131873001/12/20211546    3190233623942196432000011085100001082120000000000000                                                                           GUANTE QUIRURGICO TALLA 7SOB     2
RC0001146546694U202100050131873000050131873001/12/20211546    3190233623942196432000013077800000471960000000000000                                                             GASA NO TEJIDA EST 7.5 X 7.5 SOB X 3 UNSOB     3
RC0001194982455U202100050131873000050131873001/12/20211546    3190233623942196432000013077800000471960000000000000                                                             GASA NO TEJIDA EST 7.5 X 7.5 SOB X 3 UNSOB     4
RC0001146546694U202100050131873000050131873001/12/20211546    31902336239421964320000E1AB0200000199290000000000000                                                            SOLUCION SALINA 0.9% SLN INY BO X 100 MLBIN     1
RC0001194982455U202100050131873000050131873001/12/20211546    31902336239421964320000E1AB0200000199290000000000000                                                            SOLUCION SALINA 0.9% SLN INY BO X 100 MLBIN     1
