CC0000000800641H202100015032641700015032641701/12/20211353    3190297723742196425000045136100001419300000000000000                                                                            LANCETA DEXTROMETER X UNPZA     4
CC0000072125757H202100015032641700015032641701/12/20211353    3190297723742196425000011047900000223010000000000000                                                                            JERINGA X 1ML REF 302579SIN     3
CC0000000800641H202100015032641700015032641701/12/20211353    3190297723742196425000011137100001419310000000000000                                                               TIRA GLUCOMETRIA FREESTYLE H OPTIUM .PZA     4
