TI0001134183559H202100000556427800000556427801/12/20211035    31903290237421964250000N03AG200001590870000000000000                                                            PROVALNOVA SLN INY 100MG/ML VIALX5ML /R/VAL     1
TI0001134183559H202100000556427800000556427801/12/20211523    31903290237421964250000N03AX900001336840000000000000                                                                              TOPAMAC TAB 100 MG /R/TAB     1
TI0001134183559H202100000556427800000556427801/12/20210751    31903290237421964250000N03AX600001334940000000000000                                                                        LEVETIRACETAM TAB 500 MG /R/TAB     2
