CC0000022581383A202100000027812200000027812201/12/20211017    31903336240421964190000A02B1800001353400000000000000                                                                               CYTIL TAB 200 MCG /R/TAB     1
CC0000022581383A202100000027812200000027812201/12/20211017    3190333624042196419000000901800000598580000000000000                                                                     MASCARA LARINGEA REUSABLE No. 4SIN     1
CC0000022581383A202100000027812200000027812201/12/20211017    3190333624042196419000011088800001318260000000000000                                                             GUANTE CIRUGIA NITRILO ALFASAFE TALLA 7SOB     1
CC0000022581383A202100000027812200000027812201/12/20211017    3190333624042196419000038568600000256960000000000000                                                                                   SONDA NELATON #14SIN     1
CC0000022581383A202100000027812200000027812201/12/20211017    31903336240421964190000N1BA1900000554750000000000000                                                                     ROXICAINA JALEA 2% TUBO X 30 MLTUB     1
CC0000022581383A202100000027812200000027812201/12/20211017    3190333624042196419000022425200000548240000000000000                       EXTENSION DE ANESTESIA REF 1139 SOB X 1 SHERLEG  ADULTO BN EXENTO-DC.417/2020SIN     1
CC0000022581383A202100000027812200000027812201/12/20211017    3190333624042196419000035356500003919000000000000000                                                                                        LLAVE 3 VIASSOB     2
CC0000022581383A202100000027812200000027812201/12/20211017    31903336240421964190000Q1AA7100000610620000000000000                                                            CATETER PERIFE INTROCAN # 18G 4251687-04SIN     1
CC0000022581383A202100000027812200000027812201/12/20211017    3190333624042196419000022426800001140510000000000000                                                                    EQUIPO MACROGOTEO BAXTER MRC0001SOB     2
CC0000022581383A202100000027812200000027812201/12/20211017    3190333624042196419000016830000000970620000000000000                                                             SIST FIJACION CAT PERIFERICO 6.5X7 1683SOB     1
CC0000022581383A202100000027812200000027812201/12/20211017    31903336240421964190000J01DA300001239950000000000000                                                            CEFAZOLINA SODICA POLVO LIOF SLN INY 1 GVAL     2
CC0000022581383A202100000027812200000027812201/12/20211017    3190333624042196419000011082700001620070000000000000                                                               EQUIPO SET PRIMARIO C/CLAVE REF 14001BOL     1
CC0000022581383A202100000027812200000027812201/12/20211017    3190333624042196419000053074400000607910000000000000                                                               GASA ESTERIL 10*10 SOBRE X 3 UNIDADESSOB     2
CC0000022581383A202100000027812200000027812201/12/20211017    3190333624042196419000011085100001082120000000000000                                                                           GUANTE QUIRURGICO TALLA 7SOB     3
CC0000022581383A202100000027812200000027812201/12/20211017    3190333624042196419000043485100001618510000000000000                GUANTE QUIRURGICO DE LATEX REF 2D72N65X CAJ X 50 PROTEXIS  6.5 BN EXENTO-DC.417/2020SOB     2
CC0000022581383A202100000027812200000027812201/12/20211017    3190333624042196419000051515400000598150000000000000                                                                            MASCARILLA ANESTESIA # 4SIN     1
CC0000022581383A202100000027812200000027812201/12/20211017    3190333624042196419000038568100000258050000000000000                                                                         CANULA OXIGENO NASAL ADULTOSIN     1
CC0000022581383A202100000027812200000027812201/12/20211017    3190333624042196419000011099300000777780000000000000                                                                     FILTRO BACTERIANO VIRICO ADULTOBOL     1
CC0000022581383A202100000027812200000027812201/12/20211017    3190333624042196419000024673600000222980000000000000                                                                     JERINGA DESECHABLE 5 ml 27*11/2SIN     1
CC0000022581383A202100000027812200000027812201/12/20211017    3190333624042196419000024674000001138340000000000000   JERINGA 3PARTES C/A 10ML REF JEHL005 CAJ X 100 ALFASAFE  21GX1 PULG 1/2 PULG BN EXENTO-DC.417/202PZA     3
CC0000022581383A202100000027812200000027812201/12/20211017    31903336240421964190000E1AD0200003888320000000000000                                                                              HARTMAN SLN INY 500 MLBOL     1
CC0000022581383A202100000027812200000027812201/12/20211017    31903336240421964190000E1AB0500003888400000000000000                                                              SOLUCION SALINA 0.9% SLN INY X 1000 MLBOL     1
CC0000022581383A202100000027812200000027812201/12/20211017    31903336240421964190000E1AB0300003888390000000000000                                                            SOLUCION SALINA 0.9% SLN INY BO X 500 MLBOL     2
CC0000022581383A202100000027812200000027812201/12/20211017    31903336240421964190000E1AB0700003888350000000000000                                                            SOLUCION SALINA 0.9% SLN INY BO X 250 MLBOL     1
CC0000022581383A202100000027812200000027812201/12/20211017    31903336240421964190000N02B1100001464120000000000000                                           PARACETAMOL EP 1000MG/100ML(10MG/ML) SOL INY  CAJ X 10FCOVAL     1
CC0000022581383A202100000027812200000027812201/12/20211017    31903336240421964190000A2BC0900000200150000000000000                                                                               ORAZOLE Sln Iny 40 mgCIN     1
CC0000022581383A202100000027812200000027812201/12/20211017    31903336240421964190000M1AX0200001569410000000000000                                                                         KETRON SLN INY 30 MG / 2 MLAMP     1
CC0000022581383A202100000027812200000027812201/12/20211017    31903336240421964190000N01A0400003939010000000000000                                               MAYOPROFOL 200MG/20ML(1%) EMUL INY CAJ X 1VIAL X 20MLVAL     1
CC0000022581383A202100000027812200000027812201/12/20211017    31903336240421964190000S2BA0100000468160000000000000                                                                          SOLU-CORTEF SNL INY 100 MGVAL     1
CC0000022581383A202100000027812200000027812201/12/20211017    31903336240421964190000A4AD0200000202990000000000000                                                                     PLITICAN HCL Sln Iny 50 mg/2 mlAMP     1
CC0000022581383A202100000027812200000027812201/12/20211017    31903336240421964190000H02AB500001664950000000000000                                                            DEXAMETASONA SLN INY 8 MG/2 ML AMP /CDS/AMP     1
CC0000022581383A202100000027812200000027812201/12/20211017    31903336240421964190000N1BA2400001687720000000000000                                                    LIDOCAINA 2% SOL INY  CAJ X 50AMP X 10ML CORPAULAMP     1
CC0000022581383A202100000027812200000027812201/12/20211017    31903336240421964190000N01B1300001195250000000000000                                                                         BUPIROP 0.5% S/EPIN X 10 MLAMP     1
CC0000022581383A202100000027812200000027812201/12/20211017    31903336240421964190000N1AH0200003906560000000000000                                                                     FENTANIL Iny 0.05 mg/ml x 10 mlAMP     1
