TI0001043608129H202100000556442300000556442301/12/20211327    31903165237421964250000A12CA100001109460000000000000                                                              CLORURO SODIO SLN INY 2 MEQ/ML X 10 MLAMP     3
TI0001043608129H202100000556442300000556442301/12/20211328    31903165237421964250000A12BA100000552980000000000000                                                            CLORURO POTASIO Sln Iny AMP 20 MEQ/10 MLAMP     2
TI0001043608129H202100000556442300000556442301/12/20211327    31903165237421964250000J01F0200001689390000000000000                                                                        CLINDAMICINA INY 600 MG/4 MLAMP     1
TI0001043608129H202100000556442300000556442301/12/20211327    31903165237421964250000N2BB0100001672010000000000000                                  DIPIRONA 1GR/2ML(0.5GR/ML) SOL INY INST CAJ X 100AMP X 2ML VITALISAMP     1
