CC0000032672212A202100000027794500000027794501/12/20211544    3190333624042196419000011065700003914100000000000000                                                                 TAPON HEPARINIZADO 4238010  B BRAUNSOB     1
CC0000032672212A202100000027794500000027794501/12/20211544    31903336240421964190000N2AX1200001071490000000000000                                                                             TRAMADOL SLN INY 100 MGAMP     1
CC0000032672212A202100000027794500000027794501/12/20211544    31903336240421964190000M03AB100001371510000000000000                                                            ADECUAC SUCCINILCOLINA  100mg/mL SOL INYVAL     1
CC0000032672212A202100000027794500000027794501/12/20211544    31903336240421964190000B02AA100001407470000000000000                                                                    CLINTRANEX SLN INY 500 MG / 5 MLAMP     2
CC0000032672212A202100000027794500000027794501/12/20211544    31903336240421964190000N01A0400003939010000000000000                                               MAYOPROFOL 200MG/20ML(1%) EMUL INY CAJ X 1VIAL X 20MLVAL     1
CC0000032672212A202100000027794500000027794501/12/20211544    3190333624042196419000019489000000599330000000000000                                                                           VICRYL 4-0 RB1 70 VCP304HSIN     1
CC0000032672212A202100000027794500000027794501/12/20211544    3190333624042196419000000500600004008630000000000000         SUTURA ABSORBIBLE MONOFIL P-12 REF SM-5627 CAJ X 12 BIOSYN 45CM - 4-0 BN EXENTO-DC.417/2020SIN     1
CC0000032672212A202100000027794500000027794501/12/20211544    3190333624042196419000045138000001413890000000000000                                                                       LAPIZ ELECTROBISTURI  SOB X 1SOB     1
CC0000032672212A202100000027794500000027794501/12/20211544    3190333624042196419000030825800000270990000000000000                                                                  ALGODON ESTERIL SOBRE X 3 TORUNDASPZA     4
CC0000032672212A202100000027794500000027794501/12/20211544    3190333624042196419000030161400001459220000000000000                                                                       MANGUERA SUCCION 6 MM*3.1 MTSSOB     1
CC0000032672212A202100000027794500000027794501/12/20211544    3190333624042196419000018350200000232870000000000000                                                                                  SEDA 3-0 S.A SA84TSIN     1
CC0000032672212A202100000027794500000027794501/12/20211544    3190333624042196419000043879100001138200000000000000                                                                  HOJA BISTURI # 15 CSSB 15 01002003SOB     2
CC0000032672212A202100000027794500000027794501/12/20211544    3190333624042196419000022425200000548240000000000000                       EXTENSION DE ANESTESIA REF 1139 SOB X 1 SHERLEG  ADULTO BN EXENTO-DC.417/2020SIN     1
CC0000032672212A202100000027794500000027794501/12/20211544    3190333624042196419000035356500003919000000000000000                                                                                        LLAVE 3 VIASSOB     2
CC0000032672212A202100000027794500000027794501/12/20211544    31903336240421964190000Q1AA7100000610620000000000000                                                            CATETER PERIFE INTROCAN # 18G 4251687-04SIN     1
CC0000032672212A202100000027794500000027794501/12/20211544    3190333624042196419000022426800001140510000000000000                                                                    EQUIPO MACROGOTEO BAXTER MRC0001SOB     1
CC0000032672212A202100000027794500000027794501/12/20211544    31903336240421964190000J01DA300001239950000000000000                                                            CEFAZOLINA SODICA POLVO LIOF SLN INY 1 GVAL     2
CC0000032672212A202100000027794500000027794501/12/20211544    3190333624042196419000020750600000296780000000000000                                                                PLACA ELECTRO RETORNO PACIENTE E7506SIN     1
CC0000032672212A202100000027794500000027794501/12/20211544    3190333624042196419000053074400000607910000000000000                                                               GASA ESTERIL 10*10 SOBRE X 3 UNIDADESSOB     5
CC0000032672212A202100000027794500000027794501/12/20211544    3190333624042196419000011047900000223010000000000000                                                                            JERINGA X 1ML REF 302579SIN     1
CC0000032672212A202100000027794500000027794501/12/20211544    3190333624042196419000024673000001411210000000000000                                                                  JERINGA DESECHABLE 3 ML 21 X 1 1/2SOB     2
CC0000032672212A202100000027794500000027794501/12/20211544    3190333624042196419000024674000001138340000000000000   JERINGA 3PARTES C/A 10ML REF JEHL005 CAJ X 100 ALFASAFE  21GX1 PULG 1/2 PULG BN EXENTO-DC.417/202PZA     5
CC0000032672212A202100000027794500000027794501/12/20211544    3190333624042196419000024674500000322810000000000000                                                                   JERINGA DESECHABLE 20 ml 21*1 1/2SIN     1
CC0000032672212A202100000027794500000027794501/12/20211544    3190333624042196419000051515400000598150000000000000                                                                            MASCARILLA ANESTESIA # 4SIN     1
CC0000032672212A202100000027794500000027794501/12/20211544    3190333624042196419000011085400001083360000000000000                                                                       GUANTE QUIRURGICO TALLA 8 1/2SOB     1
CC0000032672212A202100000027794500000027794501/12/20211544    3190333624042196419000011085100001082120000000000000                                                                           GUANTE QUIRURGICO TALLA 7SOB     2
CC0000032672212A202100000027794500000027794501/12/20211544    3190333624042196419000043485100001618510000000000000                GUANTE QUIRURGICO DE LATEX REF 2D72N65X CAJ X 50 PROTEXIS  6.5 BN EXENTO-DC.417/2020SOB     3
CC0000032672212A202100000027794500000027794501/12/20211544    3190333624042196419000038569400000256750000000000000                                                                        SONDA ASPIRACION CONTROL #14SIN     2
CC0000032672212A202100000027794500000027794501/12/20211544    3190333624042196419000011099300000777780000000000000                                                                     FILTRO BACTERIANO VIRICO ADULTOBOL     1
CC0000032672212A202100000027794500000027794501/12/20211544    3190333624042196419000001200400000530690000000000000                                                                          CANULA DE MAYO # 5 (100MM)SIN     1
CC0000032672212A202100000027794500000027794501/12/20211544    31903336240421964190000E1AB0300003888390000000000000                                                            SOLUCION SALINA 0.9% SLN INY BO X 500 MLBOL     3
CC0000032672212A202100000027794500000027794501/12/20211544    31903336240421964190000E1AB0700003888350000000000000                                                            SOLUCION SALINA 0.9% SLN INY BO X 250 MLBOL     2
CC0000032672212A202100000027794500000027794501/12/20211544    31903336240421964190000N01B1600003888910000000000000                                             BUPIROP SE S/P 50MG/10ML(5MG/ML) SOL INY CAJ X 24AMPACKAPC     1
CC0000032672212A202100000027794500000027794501/12/20211544    31903336240421964190000M03A0900001467590000000000000                                                                        ROCURONIO SLN INY 50 MG/5 MLVAL     1
CC0000032672212A202100000027794500000027794501/12/20211544    31903336240421964190000A03F0300001626860000000000000                                                                   METOCLOPRAMIDA SLN INY 10 MG/2 MLAMP     1
CC0000032672212A202100000027794500000027794501/12/20211544    31903336240421964190000N2BB0100001672010000000000000                                  DIPIRONA 1GR/2ML(0.5GR/ML) SOL INY INST CAJ X 100AMP X 2ML VITALISAMP     3
CC0000032672212A202100000027794500000027794501/12/20211544    31903336240421964190000H02A0100001664960000000000000                                                                        DEXAMETASONA SLN INY 4 MG/MLAMP     2
CC0000032672212A202100000027794500000027794501/12/20211544    31903336240421964190000N1AH0200003906560000000000000                                                                     FENTANIL Iny 0.05 mg/ml x 10 mlAMP     1
CC0000032672212A202100000027794500000027794501/12/20211544    31903336240421964190000N5CD0300000218170000000000000                                                              DORMICUM IV-IM 5MG/5ML(1MG/ML) SOL INYAMP     1
