CC0001082896845H202100000556427600000556427601/12/20210747    31903290237421964250000A4AD0200000202990000000000000                                                                     PLITICAN HCL Sln Iny 50 mg/2 mlAMP     1
CC0001082896845H202100000556427600000556427601/12/20210747    31903290237421964250000M01A0400001341250000000000000                                                                              DYNASTAT AMP 40 MG /R/VAL     1
CC0001082896845H202100000556427600000556427601/12/20210747    31903290237421964250000N02B1100001464120000000000000                                           PARACETAMOL EP 1000MG/100ML(10MG/ML) SOL INY  CAJ X 10FCOVAL     1
