CC0000032734764H202100000556434200000556434201/12/20211024    31500082237421964250000A6AC0200001467010000000000000                                                             LACTULAX JARABE 66.7G/100ML SOX15ML /R/SOB     1
CC0000032734764H202100000556434200000556434201/12/20211024    31500082237421964250000N2AA0100000301640000000000000                                                                            MORFINA Sln Iny 10 mg/mlAMP     2
CC0000032734764H202100000556434200000556434201/12/20211024    31500082237421964250000N2BE2200001252930000000000000                                                                             ACETAMINOFEN Tab 500 MGTAB     1
