RC0001143474189H202100015132526100015132526101/12/20210838    31903309237421964250000V07A1300000502600000000000000                                                                                AGUA ESTERIL x 10 mlAMP     3
RC0001048091909H202100015132526100015132526101/12/20210838    31903309237421964250000V07A1300000502600000000000000                                                                                AGUA ESTERIL x 10 mlAMP     4
RC0001194984574H202100015132526100015132526101/12/20210838    31903309237421964250000V07A1300000502600000000000000                                                                                AGUA ESTERIL x 10 mlAMP     2
RC0001143474190H202100015132526100015132526101/12/20210838    31903309237421964250000V07A1300000502600000000000000                                                                                AGUA ESTERIL x 10 mlAMP     2
RC0001047065603H202100015132526100015132526101/12/20210838    31903309237421964250000V07A1300000502600000000000000                                                                                AGUA ESTERIL x 10 mlAMP     2
RC0001044236218H202100015132526100015132526101/12/20210838    31903309237421964250000V07A1300000502600000000000000                                                                                AGUA ESTERIL x 10 mlAMP     3
RC0001048092074H202100015132526100015132526101/12/20210838    31903309237421964250000V07A1300000502600000000000000                                                                                AGUA ESTERIL x 10 mlAMP     2
RC0001044436459H202100015132526100015132526101/12/20210838    31903309237421964250000V07A1300000502600000000000000                                                                                AGUA ESTERIL x 10 mlAMP     4
RC0001048091952H202100015132526100015132526101/12/20210838    31903309237421964250000V07A1300000502600000000000000                                                                                AGUA ESTERIL x 10 mlAMP     4
RC0001143474189H202100015132526100015132526101/12/20210838    3190330923742196425000035356500003919000000000000000                                                                                        LLAVE 3 VIASSOB     2
RC0001044236218H202100015132526100015132526101/12/20210838    3190330923742196425000035356500003919000000000000000                                                                                        LLAVE 3 VIASSOB     2
RC0001044436459H202100015132526100015132526101/12/20210838    3190330923742196425000035356500003919000000000000000                                                                                        LLAVE 3 VIASSOB     2
RC0001048091952H202100015132526100015132526101/12/20210838    3190330923742196425000035356500003919000000000000000                                                                                        LLAVE 3 VIASSOB     2
RC0001194984572H202100015132526100015132526101/12/20210838    3190330923742196425000045136100001419300000000000000                                                                            LANCETA DEXTROMETER X UNPZA     1
RC0001143474189H202100015132526100015132526101/12/20210838    3190330923742196425000045136100001419300000000000000                                                                            LANCETA DEXTROMETER X UNPZA     2
RC0001048091909H202100015132526100015132526101/12/20210838    3190330923742196425000045136100001419300000000000000                                                                            LANCETA DEXTROMETER X UNPZA     2
RC0001146846680H202100015132526100015132526101/12/20210838    3190330923742196425000045136100001419300000000000000                                                                            LANCETA DEXTROMETER X UNPZA     2
RC0001146546681H202100015132526100015132526101/12/20210838    3190330923742196425000045136100001419300000000000000                                                                            LANCETA DEXTROMETER X UNPZA     2
RC0001194984574H202100015132526100015132526101/12/20210838    3190330923742196425000045136100001419300000000000000                                                                            LANCETA DEXTROMETER X UNPZA     2
RC0001143474190H202100015132526100015132526101/12/20210838    3190330923742196425000045136100001419300000000000000                                                                            LANCETA DEXTROMETER X UNPZA     2
RC0001047065603H202100015132526100015132526101/12/20210838    3190330923742196425000045136100001419300000000000000                                                                            LANCETA DEXTROMETER X UNPZA     2
RC0001044236218H202100015132526100015132526101/12/20210838    3190330923742196425000045136100001419300000000000000                                                                            LANCETA DEXTROMETER X UNPZA     2
RC0001048092074H202100015132526100015132526101/12/20210838    3190330923742196425000045136100001419300000000000000                                                                            LANCETA DEXTROMETER X UNPZA     2
RC0001047065574H202100015132526100015132526101/12/20210838    3190330923742196425000045136100001419300000000000000                                                                            LANCETA DEXTROMETER X UNPZA     2
RC0001044436459H202100015132526100015132526101/12/20210838    3190330923742196425000045136100001419300000000000000                                                                            LANCETA DEXTROMETER X UNPZA     2
RC0001048091952H202100015132526100015132526101/12/20210838    3190330923742196425000045136100001419300000000000000                                                                            LANCETA DEXTROMETER X UNPZA     2
RC0001143474189H202100015132526100015132526101/12/20210838    3190330923742196425000024674000001138340000000000000   JERINGA 3PARTES C/A 10ML REF JEHL005 CAJ X 100 ALFASAFE  21GX1 PULG 1/2 PULG BN EXENTO-DC.417/202PZA     4
RC0001048091909H202100015132526100015132526101/12/20210838    3190330923742196425000024674000001138340000000000000   JERINGA 3PARTES C/A 10ML REF JEHL005 CAJ X 100 ALFASAFE  21GX1 PULG 1/2 PULG BN EXENTO-DC.417/202PZA     4
RC0001194984574H202100015132526100015132526101/12/20210838    3190330923742196425000024674000001138340000000000000   JERINGA 3PARTES C/A 10ML REF JEHL005 CAJ X 100 ALFASAFE  21GX1 PULG 1/2 PULG BN EXENTO-DC.417/202PZA     2
RC0001143474190H202100015132526100015132526101/12/20210838    3190330923742196425000024674000001138340000000000000   JERINGA 3PARTES C/A 10ML REF JEHL005 CAJ X 100 ALFASAFE  21GX1 PULG 1/2 PULG BN EXENTO-DC.417/202PZA     2
RC0001047065603H202100015132526100015132526101/12/20210838    3190330923742196425000024674000001138340000000000000   JERINGA 3PARTES C/A 10ML REF JEHL005 CAJ X 100 ALFASAFE  21GX1 PULG 1/2 PULG BN EXENTO-DC.417/202PZA     2
RC0001044236218H202100015132526100015132526101/12/20210838    3190330923742196425000024674000001138340000000000000   JERINGA 3PARTES C/A 10ML REF JEHL005 CAJ X 100 ALFASAFE  21GX1 PULG 1/2 PULG BN EXENTO-DC.417/202PZA     5
RC0001048092074H202100015132526100015132526101/12/20210838    3190330923742196425000024674000001138340000000000000   JERINGA 3PARTES C/A 10ML REF JEHL005 CAJ X 100 ALFASAFE  21GX1 PULG 1/2 PULG BN EXENTO-DC.417/202PZA     4
RC0001044436459H202100015132526100015132526101/12/20210838    3190330923742196425000024674000001138340000000000000   JERINGA 3PARTES C/A 10ML REF JEHL005 CAJ X 100 ALFASAFE  21GX1 PULG 1/2 PULG BN EXENTO-DC.417/202PZA     6
RC0001048091952H202100015132526100015132526101/12/20210838    3190330923742196425000024674000001138340000000000000   JERINGA 3PARTES C/A 10ML REF JEHL005 CAJ X 100 ALFASAFE  21GX1 PULG 1/2 PULG BN EXENTO-DC.417/202PZA     6
RC0001143474189H202100015132526100015132526101/12/20210838    3190330923742196425000024673600000222980000000000000                                                                     JERINGA DESECHABLE 5 ml 27*11/2SIN     2
RC0001048091909H202100015132526100015132526101/12/20210838    3190330923742196425000024673600000222980000000000000                                                                     JERINGA DESECHABLE 5 ml 27*11/2SIN     2
RC0001194984574H202100015132526100015132526101/12/20210838    3190330923742196425000024673600000222980000000000000                                                                     JERINGA DESECHABLE 5 ml 27*11/2SIN     2
RC0001143474190H202100015132526100015132526101/12/20210838    3190330923742196425000024673600000222980000000000000                                                                     JERINGA DESECHABLE 5 ml 27*11/2SIN     2
RC0001047065603H202100015132526100015132526101/12/20210838    3190330923742196425000024673600000222980000000000000                                                                     JERINGA DESECHABLE 5 ml 27*11/2SIN     2
RC0001044436459H202100015132526100015132526101/12/20210838    3190330923742196425000024673600000222980000000000000                                                                     JERINGA DESECHABLE 5 ml 27*11/2SIN     2
RC0001048091952H202100015132526100015132526101/12/20210838    3190330923742196425000024673600000222980000000000000                                                                     JERINGA DESECHABLE 5 ml 27*11/2SIN     2
RC0001143474189H202100015132526100015132526101/12/20210838    3190330923742196425000011047900000223010000000000000                                                                            JERINGA X 1ML REF 302579SIN     2
RC0001048091909H202100015132526100015132526101/12/20210838    3190330923742196425000011047900000223010000000000000                                                                            JERINGA X 1ML REF 302579SIN     2
RC0001194984574H202100015132526100015132526101/12/20210838    3190330923742196425000011047900000223010000000000000                                                                            JERINGA X 1ML REF 302579SIN     2
RC0001143474190H202100015132526100015132526101/12/20210838    3190330923742196425000011047900000223010000000000000                                                                            JERINGA X 1ML REF 302579SIN     2
RC0001047065603H202100015132526100015132526101/12/20210838    3190330923742196425000011047900000223010000000000000                                                                            JERINGA X 1ML REF 302579SIN     2
RC0001044236218H202100015132526100015132526101/12/20210838    3190330923742196425000011047900000223010000000000000                                                                            JERINGA X 1ML REF 302579SIN     2
RC0001048092074H202100015132526100015132526101/12/20210838    3190330923742196425000011047900000223010000000000000                                                                            JERINGA X 1ML REF 302579SIN     2
RC0001044436459H202100015132526100015132526101/12/20210838    3190330923742196425000011047900000223010000000000000                                                                            JERINGA X 1ML REF 302579SIN     2
RC0001048091952H202100015132526100015132526101/12/20210838    3190330923742196425000011047900000223010000000000000                                                                            JERINGA X 1ML REF 302579SIN     2
RC0001143474189H202100015132526100015132526101/12/20210838    3190330923742196425000043485100001618510000000000000                GUANTE QUIRURGICO DE LATEX REF 2D72N65X CAJ X 50 PROTEXIS  6.5 BN EXENTO-DC.417/2020SOB     1
RC0001044236218H202100015132526100015132526101/12/20210838    3190330923742196425000043485100001618510000000000000                GUANTE QUIRURGICO DE LATEX REF 2D72N65X CAJ X 50 PROTEXIS  6.5 BN EXENTO-DC.417/2020SOB     3
RC0001044436459H202100015132526100015132526101/12/20210838    3190330923742196425000043485100001618510000000000000                GUANTE QUIRURGICO DE LATEX REF 2D72N65X CAJ X 50 PROTEXIS  6.5 BN EXENTO-DC.417/2020SOB     1
RC0001048091952H202100015132526100015132526101/12/20210838    3190330923742196425000043485100001618510000000000000                GUANTE QUIRURGICO DE LATEX REF 2D72N65X CAJ X 50 PROTEXIS  6.5 BN EXENTO-DC.417/2020SOB     2
RC0001143474189H202100015132526100015132526101/12/20210838    3190330923742196425000011085100001082120000000000000                                                                           GUANTE QUIRURGICO TALLA 7SOB     1
RC0001044236218H202100015132526100015132526101/12/20210838    3190330923742196425000011085100001082120000000000000                                                                           GUANTE QUIRURGICO TALLA 7SOB     3
RC0001044436459H202100015132526100015132526101/12/20210838    3190330923742196425000011085100001082120000000000000                                                                           GUANTE QUIRURGICO TALLA 7SOB     1
RC0001048091952H202100015132526100015132526101/12/20210838    3190330923742196425000011085100001082120000000000000                                                                           GUANTE QUIRURGICO TALLA 7SOB     2
RC0001143474189H202100015132526100015132526101/12/20210838    3190330923742196425000013077800000471960000000000000                                                             GASA NO TEJIDA EST 7.5 X 7.5 SOB X 3 UNSOB     2
RC0001048091909H202100015132526100015132526101/12/20210838    3190330923742196425000013077800000471960000000000000                                                             GASA NO TEJIDA EST 7.5 X 7.5 SOB X 3 UNSOB     2
RC0001194984574H202100015132526100015132526101/12/20210838    3190330923742196425000013077800000471960000000000000                                                             GASA NO TEJIDA EST 7.5 X 7.5 SOB X 3 UNSOB     2
RC0001143474190H202100015132526100015132526101/12/20210838    3190330923742196425000013077800000471960000000000000                                                             GASA NO TEJIDA EST 7.5 X 7.5 SOB X 3 UNSOB     2
RC0001047065603H202100015132526100015132526101/12/20210838    3190330923742196425000013077800000471960000000000000                                                             GASA NO TEJIDA EST 7.5 X 7.5 SOB X 3 UNSOB     2
RC0001044236218H202100015132526100015132526101/12/20210838    3190330923742196425000013077800000471960000000000000                                                             GASA NO TEJIDA EST 7.5 X 7.5 SOB X 3 UNSOB     2
RC0001048092074H202100015132526100015132526101/12/20210838    3190330923742196425000013077800000471960000000000000                                                             GASA NO TEJIDA EST 7.5 X 7.5 SOB X 3 UNSOB     2
RC0001047065574H202100015132526100015132526101/12/20210838    3190330923742196425000013077800000471960000000000000                                                             GASA NO TEJIDA EST 7.5 X 7.5 SOB X 3 UNSOB     2
RC0001044436459H202100015132526100015132526101/12/20210838    3190330923742196425000013077800000471960000000000000                                                             GASA NO TEJIDA EST 7.5 X 7.5 SOB X 3 UNSOB     2
RC0001048091952H202100015132526100015132526101/12/20210838    3190330923742196425000013077800000471960000000000000                                                             GASA NO TEJIDA EST 7.5 X 7.5 SOB X 3 UNSOB     2
RC0001044436459H202100015132526100015132526101/12/20210838    3190330923742196425000042753100003929850000000000000                   GASA ADHESIVA STRETCH REF 02037-00 ROL X 10MT FIXOMULL 10CM BN EXENTO-DC.417/2020CMT    20
RC0001048091952H202100015132526100015132526101/12/20210838    3190330923742196425000042753100003929850000000000000                   GASA ADHESIVA STRETCH REF 02037-00 ROL X 10MT FIXOMULL 10CM BN EXENTO-DC.417/2020CMT    20
RC0001048091952H202100015132526100015132526101/12/20210838    3190330923742196425000000602600001259280000000000000                                                             APOSITO TEGADERM IV PD 1610 5CM X 5.7CMSOB     1
RC0001143474189H202100015132526100015132526101/12/20210838    31903309237421964250000E1AB0200000199290000000000000                                                            SOLUCION SALINA 0.9% SLN INY BO X 100 MLBIN     1
RC0001048091909H202100015132526100015132526101/12/20210838    31903309237421964250000E1AB0200000199290000000000000                                                            SOLUCION SALINA 0.9% SLN INY BO X 100 MLBIN     1
RC0001044236218H202100015132526100015132526101/12/20210838    31903309237421964250000E1AB0200000199290000000000000                                                            SOLUCION SALINA 0.9% SLN INY BO X 100 MLBIN     1
RC0001044436459H202100015132526100015132526101/12/20210838    31903309237421964250000E1AB0200000199290000000000000                                                            SOLUCION SALINA 0.9% SLN INY BO X 100 MLBIN     1
RC0001048091952H202100015132526100015132526101/12/20210838    31903309237421964250000E1AB0200000199290000000000000                                                            SOLUCION SALINA 0.9% SLN INY BO X 100 MLBIN     1
RC0001194984572H202100015132526100015132526101/12/20210838    3190330923742196425000011137100001419310000000000000                                                               TIRA GLUCOMETRIA FREESTYLE H OPTIUM .PZA     1
RC0001143474189H202100015132526100015132526101/12/20210838    3190330923742196425000011137100001419310000000000000                                                               TIRA GLUCOMETRIA FREESTYLE H OPTIUM .PZA     2
RC0001048091909H202100015132526100015132526101/12/20210838    3190330923742196425000011137100001419310000000000000                                                               TIRA GLUCOMETRIA FREESTYLE H OPTIUM .PZA     2
RC0001146846680H202100015132526100015132526101/12/20210838    3190330923742196425000011137100001419310000000000000                                                               TIRA GLUCOMETRIA FREESTYLE H OPTIUM .PZA     2
RC0001146546681H202100015132526100015132526101/12/20210838    3190330923742196425000011137100001419310000000000000                                                               TIRA GLUCOMETRIA FREESTYLE H OPTIUM .PZA     2
RC0001194984574H202100015132526100015132526101/12/20210838    3190330923742196425000011137100001419310000000000000                                                               TIRA GLUCOMETRIA FREESTYLE H OPTIUM .PZA     2
RC0001143474190H202100015132526100015132526101/12/20210838    3190330923742196425000011137100001419310000000000000                                                               TIRA GLUCOMETRIA FREESTYLE H OPTIUM .PZA     2
RC0001047065603H202100015132526100015132526101/12/20210838    3190330923742196425000011137100001419310000000000000                                                               TIRA GLUCOMETRIA FREESTYLE H OPTIUM .PZA     2
RC0001044236218H202100015132526100015132526101/12/20210838    3190330923742196425000011137100001419310000000000000                                                               TIRA GLUCOMETRIA FREESTYLE H OPTIUM .PZA     2
RC0001048092074H202100015132526100015132526101/12/20210838    3190330923742196425000011137100001419310000000000000                                                               TIRA GLUCOMETRIA FREESTYLE H OPTIUM .PZA     2
RC0001047065574H202100015132526100015132526101/12/20210838    3190330923742196425000011137100001419310000000000000                                                               TIRA GLUCOMETRIA FREESTYLE H OPTIUM .PZA     2
RC0001044436459H202100015132526100015132526101/12/20210838    3190330923742196425000011137100001419310000000000000                                                               TIRA GLUCOMETRIA FREESTYLE H OPTIUM .PZA     2
RC0001048091952H202100015132526100015132526101/12/20210838    3190330923742196425000011137100001419310000000000000                                                               TIRA GLUCOMETRIA FREESTYLE H OPTIUM .PZA     2
