CC0001122407930H202100919499120100919499120101/12/20212100    3190062723742196425000011082700001620070000000000000                                                               EQUIPO SET PRIMARIO C/CLAVE REF 14001BOL     1
CC0001122407930H202100919499120100919499120101/12/20212100    3190062723742196425000022426800001140510000000000000                                                                    EQUIPO MACROGOTEO BAXTER MRC0001SOB     1
CC0001122407930H202100919499120100919499120101/12/20212100    3190062723742196425000030936900001431840000000000000                                                                                              BURETABOL     1
CC0001122407930H202100919499120100919499120101/12/20212100    31900627237421964250000Q1AA7300000610640000000000000                                                            CATETER PERIFE INTROCAN # 22G 4251628-04SIN     2
CC0001122407930H202100919499120100919499120101/12/20212100    3190062723742196425000001956000001620610000000000000                                                                      CONECTOR MICRO CLAVE LAT-MC100SOB     1
CC0001122407930H202100919499120100919499120101/12/20212100    3190062723742196425000000602600001259280000000000000                                                             APOSITO TEGADERM IV PD 1610 5CM X 5.7CMSOB     1
