CC0000022696914H202100015052792800015052792801/12/20212104    3190265323742196425000022426800001140510000000000000                                                                    EQUIPO MACROGOTEO BAXTER MRC0001SOB     1
CC0000032756421H202100015052792800015052792801/12/20212104    3190265323742196425000022426800001140510000000000000                                                                    EQUIPO MACROGOTEO BAXTER MRC0001SOB     1
TI0001083002908H202100015052792800015052792801/12/20212104    3190265323742196425000022426800001140510000000000000                                                                    EQUIPO MACROGOTEO BAXTER MRC0001SOB     1
CC0000072018971H202100015052792800015052792801/12/20212104    3190265323742196425000022426800001140510000000000000                                                                    EQUIPO MACROGOTEO BAXTER MRC0001SOB     1
CC0000022696914H202100015052792800015052792801/12/20212104    3190265323742196425000030936900001431840000000000000                                                                                              BURETABOL     1
CC0000032756421H202100015052792800015052792801/12/20212104    3190265323742196425000030936900001431840000000000000                                                                                              BURETABOL     1
TI0001083002908H202100015052792800015052792801/12/20212104    3190265323742196425000030936900001431840000000000000                                                                                              BURETABOL     1
CC0000019068414H202100015052792800015052792801/12/20212104    3190265323742196425000030936900001431840000000000000                                                                                              BURETABOL     2
CC0000003724288H202100015052792800015052792801/12/20212104    3190265323742196425000030936900001431840000000000000                                                                                              BURETABOL     1
CC0000019068414H202100015052792800015052792801/12/20212104    31902653237421964250000E1BA0700000198910000000000000                                                                   UROMATIC Sln IRRIGACION X 3000 MLBIN     3
CC0000003724288H202100015052792800015052792801/12/20212104    31902653237421964250000E1BA0700000198910000000000000                                                                   UROMATIC Sln IRRIGACION X 3000 MLBIN     7
CC0000032861380H202100015052792800015052792801/12/20212104    3190265323742196425000011137100001419310000000000000                                                               TIRA GLUCOMETRIA FREESTYLE H OPTIUM .PZA     3
