CC0000016200301H202100015022558900015022558901/12/20211748    3190115123742196425000038570100001124990000000000000                                                                              SONDA FOLEY #18 2 VIASSOB     1
CC0000016200301H202100015022558900015022558901/12/20211748    3190115123742196425000043485100001618510000000000000                GUANTE QUIRURGICO DE LATEX REF 2D72N65X CAJ X 50 PROTEXIS  6.5 BN EXENTO-DC.417/2020SOB     1
CC0000016200301H202100015022558900015022558901/12/20211748    3190115123742196425000031188000000236790000000000000                                                                                     CISTOFLO ADULTOSIN     1
