CC0000013887621H202100000556425700000556425701/12/20210855     3300009237421964250000A2BC0900000200150000000000000                                                                               ORAZOLE Sln Iny 40 mgCIN     1
CC0000013887621H202100000556425700000556425701/12/20210855     3300009237421964250000A11DA300001278410000000000000                                                                                  TIAMINA TAB 300 MGTAB     1
CC0000013887621H202100000556425700000556425701/12/20210855     3300009237421964250000A11GA400001337200000000000000                                                                               VITAMINA C Tab 500 mgTAB     3
CC0000013887621H202100000556425700000556425701/12/20210854     3300009237421964250000A11GA400001337200000000000000                                                                               VITAMINA C Tab 500 mgTAB     3
CC0000013887621H202100000556425700000556425701/12/20210855     3300009237421964250000B1AB0100001227270000000000000                                             HEPAMAX 25000UI/5ML(5000UI/ML) SOL INY  CAJ X 25AMPX5MLAMP     2
CC0000013887621H202100000556425700000556425701/12/20212112    31500072237421964250000E1AB0200000199290000000000000                                                            SOLUCION SALINA 0.9% SLN INY BO X 100 MLBIN     5
CC0000013887621H202100000556425700000556425701/12/20212113    31500072237421964250000E1AD0300000199490000000000000                                         LACTATO RINGER USP (HARTMANN)  SOL INY  BOL X 1000ML BAXTERBIN     2
CC0000013887621H202100000556425700000556425701/12/20210854     3300009237421964250000C3CA0200000195520000000000000                                                                           LASIX SLN INY 20 MG/ 2 MLAMP     2
CC0000013887621H202100000556425700000556425701/12/20210854     3300009237421964250000H02AB500001664950000000000000                                                            DEXAMETASONA SLN INY 8 MG/2 ML AMP /CDS/AMP     1
CC0000013887621H202100000556425700000556425701/12/20210854     3300009237421964250000J01D1300001469600000000000000                                                                               POZINEG POLVO INY 1 GVAL     6
CC0000013887621H202100000556425700000556425701/12/20211534     3300009237421964250000N01A0400003939010000000000000                                               MAYOPROFOL 200MG/20ML(1%) EMUL INY CAJ X 1VIAL X 20MLVAL    10
CC0000013887621H202100000556425700000556425701/12/20210856     3300009237421964250000N01A0400003939010000000000000                                               MAYOPROFOL 200MG/20ML(1%) EMUL INY CAJ X 1VIAL X 20MLVAL     7
CC0000013887621H202100000556425700000556425701/12/20210855     3300009237421964250000N01A0400003939010000000000000                                               MAYOPROFOL 200MG/20ML(1%) EMUL INY CAJ X 1VIAL X 20MLVAL     3
CC0000013887621H202100000556425700000556425701/12/20211731     3300009237421964250000N5AD0500000217620000000000000                                                                         HALOPIDOL Sln Iny 5 mg/1 mlAMP     2
CC0000013887621H202100000556425700000556425701/12/20211732     3300009237421964250000N05A0500001336370000000000000                                                                              SEROQUEL TAB 25 MG /R/TAB     2
CC0000013887621H202100000556425700000556425701/12/20211731     3300009237421964250000N05A0500001336370000000000000                                                                              SEROQUEL TAB 25 MG /R/TAB     2
CC0000013887621H202100000556425700000556425701/12/20210855     3300009237421964250000A11A2200001050880000000000000                                                                 GLUCERNA LIQUIDO 1.5 KCAL X 1000 MLFCO     1
CC0000013887621H202100000556425700000556425701/12/20211731     3300009237421964250000N1AH0200003906560000000000000                                                                     FENTANIL Iny 0.05 mg/ml x 10 mlAMP     8
CC0000013887621H202100000556425700000556425701/12/20212111    31500072237421964250000V07A1300000502600000000000000                                                                                AGUA ESTERIL x 10 mlAMP    10
