CC0001042452897H202100000556447800000556447801/12/20211549    31902788237421964250000A2BC0100001277990000000000000                                                                                   ORAZOLE CAP 20 MGCAP     1
CC0001042452897H202100000556447800000556447801/12/20211549    31902788237421964250000J01DA300001239950000000000000                                                            CEFAZOLINA SODICA POLVO LIOF SLN INY 1 GVAL     4
CC0001042452897H202100000556447800000556447801/12/20211549    31902788237421964250000N2AX0500001204110000000000000                                                                          TRAMAL SLN INY 100 MG / MLAMP     3
CC0001042452897H202100000556447800000556447801/12/20211549    31902788237421964250000N02B1100001464120000000000000                                           PARACETAMOL EP 1000MG/100ML(10MG/ML) SOL INY  CAJ X 10FCOVAL     4
