TI0001046717475U202100050131873500050131873501/12/20211607    3190280023942196432000011048600000223020000000000000                                                                 JERINGA VACUNACION 3ML C/AGU 302542SIN     1
RC0001042272560U202100050131873500050131873501/12/20211607    3190280023942196432000001956000001620610000000000000                                                                      CONECTOR MICRO CLAVE LAT-MC100SOB     1
RC0001042272560U202100050131873500050131873501/12/20211607    31902800239421964320000Q1AA7400003911720000000000000                                                            CATETER PERIFE INTROCAN # 24G 4251601-04SOB     1
CC0000008783581U202100050131873500050131873501/12/20211607    3190280023942196432000030936900001431840000000000000                                                                                              BURETABOL     1
RC0001042272560U202100050131873500050131873501/12/20211607    3190280023942196432000030936900001431840000000000000                                                                                              BURETABOL     1
RC0001042272560U202100050131873500050131873501/12/20211607    31902800239421964320000E1AD0200003888320000000000000                                                                              HARTMAN SLN INY 500 MLBOL     1
