CC0000019068414A202100000027814000000027814001/12/20210757    31903336240421964190000E1AD0200003888320000000000000                                                                              HARTMAN SLN INY 500 MLBOL     1
CC0000019068414A202100000027814000000027814001/12/20210757    3190333624042196419000011082700001620070000000000000                                                               EQUIPO SET PRIMARIO C/CLAVE REF 14001BOL     1
CC0000019068414A202100000027814000000027814001/12/20210757    31903336240421964190000C01C0300001261020000000000000                                                               ETILEFRINA HCL SLN INY 10 MG/1 ML /R/AMP     1
CC0000019068414A202100000027814000000027814001/12/20210757    3190333624042196419000038568600000256960000000000000                                                                                   SONDA NELATON #14SIN     1
CC0000019068414A202100000027814000000027814001/12/20210757    3190333624042196419000038570200001123300000000000000                                                                              SONDA FOLEY #20 2 VIASSOB     1
CC0000019068414A202100000027814000000027814001/12/20210757    3190333624042196419000018351400000232860000000000000                                                                                   SEDA 2-0 SH K833HSIN     2
CC0000019068414A202100000027814000000027814001/12/20210757    3190333624042196419000011020100000231860000000000000                                                                      CATGUT CROMADO 2-0 SH 70 G123TSIN     1
CC0000019068414A202100000027814000000027814001/12/20210757    3190333624042196419000020059800000225160000000000000                                                              AGUJA SPINOCAN 25G X 3 1/2 PU  4505905SIN     3
CC0000019068414A202100000027814000000027814001/12/20210757    31903336240421964190000N1BA2400001687720000000000000                                                    LIDOCAINA 2% SOL INY  CAJ X 50AMP X 10ML CORPAULAMP     1
CC0000019068414A202100000027814000000027814001/12/20210757    3190333624042196419000049059900000267420000000000000                                                                 MEDIA ANTIEMBOLICA TAL M 3416LF PARBOL     1
CC0000019068414A202100000027814000000027814001/12/20210757    3190333624042196419000011017400000231840000000000000                                                                         CATGUT CROMADO 2-0 CT1 923TSIN     1
CC0000019068414A202100000027814000000027814001/12/20210757    3190333624042196419000011015800000231800000000000000                                                                          CATGUT CROMADO 0 CTI 924 TSIN     2
CC0000019068414A202100000027814000000027814001/12/20210757    3190333624042196419000012473200000232210000000000000                                                                 SUTURA ETHILON 3-0 SC-24 45CM  163TSIN     2
CC0000019068414A202100000027814000000027814001/12/20210757    3190333624042196419000019487800001585180000000000000                                                                    VICRYL 1 PLUS 70 CM CT-1 VCP341HSOB     1
CC0000019068414A202100000027814000000027814001/12/20210757    3190333624042196419000045723200000438720000000000000                                                                                  MECHA GINECOLOGICABIN     1
CC0000019068414A202100000027814000000027814001/12/20210757    3190333624042196419000053074400000607910000000000000                                                               GASA ESTERIL 10*10 SOBRE X 3 UNIDADESSOB     1
CC0000019068414A202100000027814000000027814001/12/20210757    3190333624042196419000030161400001459220000000000000                                                                       MANGUERA SUCCION 6 MM*3.1 MTSSOB     1
CC0000019068414A202100000027814000000027814001/12/20210757    3190333624042196419000030825800000270990000000000000                                                                  ALGODON ESTERIL SOBRE X 3 TORUNDASPZA     4
CC0000019068414A202100000027814000000027814001/12/20210757    31903336240421964190000N1BA1900000554750000000000000                                                                     ROXICAINA JALEA 2% TUBO X 30 MLTUB     1
CC0000019068414A202100000027814000000027814001/12/20210757    3190333624042196419000031188000000236790000000000000                                                                                     CISTOFLO ADULTOSIN     1
CC0000019068414A202100000027814000000027814001/12/20210757    3190333624042196419000038571900001123510000000000000                                                                              SONDA FOLEY #22 3 VIASSOB     1
CC0000019068414A202100000027814000000027814001/12/20210757    3190333624042196419000011082600000265810000000000000                                                              EQUIPO IRRIGACION URINARIA REF MRC4002SOB     1
CC0000019068414A202100000027814000000027814001/12/20210757    3190333624042196419000070120200000508270000000000000                                                             PUNTA PALA ELECTROBISTURI LARGA E1551-6SIN     1
CC0000019068414A202100000027814000000027814001/12/20210757    3190333624042196419000045138000001413890000000000000                                                                       LAPIZ ELECTROBISTURI  SOB X 1SOB     1
CC0000019068414A202100000027814000000027814001/12/20210757    31903336240421964190000E1BA0700000198910000000000000                                                                   UROMATIC Sln IRRIGACION X 3000 MLBIN     4
CC0000019068414A202100000027814000000027814001/12/20210757    3190333624042196419000043879400001138170000000000000                                                                  HOJA BISTURI # 10 CSSB 10 01002000SOB     1
CC0000019068414A202100000027814000000027814001/12/20210757    3190333624042196419000043879100001138200000000000000                                                                  HOJA BISTURI # 15 CSSB 15 01002003SOB     1
CC0000019068414A202100000027814000000027814001/12/20210757    31903336240421964190000J01DA300001239950000000000000                                                            CEFAZOLINA SODICA POLVO LIOF SLN INY 1 GVAL     2
CC0000019068414A202100000027814000000027814001/12/20210757    3190333624042196419000022425200000548240000000000000                       EXTENSION DE ANESTESIA REF 1139 SOB X 1 SHERLEG  ADULTO BN EXENTO-DC.417/2020SIN     1
CC0000019068414A202100000027814000000027814001/12/20210757    3190333624042196419000016830000000970620000000000000                                                             SIST FIJACION CAT PERIFERICO 6.5X7 1683SOB     1
CC0000019068414A202100000027814000000027814001/12/20210757    3190333624042196419000035356500003919000000000000000                                                                                        LLAVE 3 VIASSOB     2
CC0000019068414A202100000027814000000027814001/12/20210757    3190333624042196419000022426800001140510000000000000                                                                    EQUIPO MACROGOTEO BAXTER MRC0001SOB     1
CC0000019068414A202100000027814000000027814001/12/20210757    31903336240421964190000Q1AA7100000610620000000000000                                                            CATETER PERIFE INTROCAN # 18G 4251687-04SIN     1
CC0000019068414A202100000027814000000027814001/12/20210757    3190333624042196419000020750600000296780000000000000                                                                PLACA ELECTRO RETORNO PACIENTE E7506SIN     1
CC0000019068414A202100000027814000000027814001/12/20210757    3190333624042196419000024673600000222980000000000000                                                                     JERINGA DESECHABLE 5 ml 27*11/2SIN     2
CC0000019068414A202100000027814000000027814001/12/20210757    3190333624042196419000024674000001138340000000000000   JERINGA 3PARTES C/A 10ML REF JEHL005 CAJ X 100 ALFASAFE  21GX1 PULG 1/2 PULG BN EXENTO-DC.417/202PZA     3
CC0000019068414A202100000027814000000027814001/12/20210757    3190333624042196419000024674500000322810000000000000                                                                   JERINGA DESECHABLE 20 ml 21*1 1/2SIN     1
CC0000019068414A202100000027814000000027814001/12/20210757    3190333624042196419000043485100001618510000000000000                GUANTE QUIRURGICO DE LATEX REF 2D72N65X CAJ X 50 PROTEXIS  6.5 BN EXENTO-DC.417/2020SOB     4
CC0000019068414A202100000027814000000027814001/12/20210757    3190333624042196419000011085100001082120000000000000                                                                           GUANTE QUIRURGICO TALLA 7SOB     1
CC0000019068414A202100000027814000000027814001/12/20210757    3190333624042196419000011085200001585390000000000000                                                                       GUANTE QUIRURGICO TALLA 7 1/2SOB     4
CC0000019068414A202100000027814000000027814001/12/20210757    3190333624042196419000011085300001082140000000000000                                                                           GUANTE QUIRURGICO TALLA 8SOB     2
CC0000019068414A202100000027814000000027814001/12/20210757    3190333624042196419000011073300001096420000000000000                                                                BOLSA DE SUCCION DE FLUIDOS x 2500mLBOL     1
CC0000019068414A202100000027814000000027814001/12/20210757    3190333624042196419000020060000000225230000000000000                                                               AGUJA SPINOCAN 27G X 3 1/2 PU 4503902SIN     1
CC0000019068414A202100000027814000000027814001/12/20210757    31903336240421964190000E1AB0300003888390000000000000                                                            SOLUCION SALINA 0.9% SLN INY BO X 500 MLBOL     5
CC0000019068414A202100000027814000000027814001/12/20210757    31903336240421964190000N1BA0500000647360000000000000                                                                  BUPIROP 0.5% PESADO SLN INY X 4 MLAPC     1
CC0000019068414A202100000027814000000027814001/12/20210757    31903336240421964190000N2BB1100000217160000000000000                                                                      NOVALGINA Sln Iny 2.5 g x 5 mlAMP     1
CC0000019068414A202100000027814000000027814001/12/20210757    31903336240421964190000H02AB500001664950000000000000                                                            DEXAMETASONA SLN INY 8 MG/2 ML AMP /CDS/AMP     1
CC0000019068414A202100000027814000000027814001/12/20210757    31903336240421964190000A03F0300001626860000000000000                                                                   METOCLOPRAMIDA SLN INY 10 MG/2 MLAMP     1
CC0000019068414A202100000027814000000027814001/12/20210757    31903336240421964190000C3CA0200000195520000000000000                                                                           LASIX SLN INY 20 MG/ 2 MLAMP     1
CC0000019068414A202100000027814000000027814001/12/20210757    31903336240421964190000N1AH0200003906560000000000000                                                                     FENTANIL Iny 0.05 mg/ml x 10 mlAMP     1
