CC0000003718895A202100000027812500000027812501/12/20211206    3190333624042196419000020059800000225160000000000000                                                              AGUJA SPINOCAN 25G X 3 1/2 PU  4505905SIN     2
CC0000003718895A202100000027812500000027812501/12/20211206    31903336240421964190000H02AB500001664950000000000000                                                            DEXAMETASONA SLN INY 8 MG/2 ML AMP /CDS/AMP     1
CC0000003718895A202100000027812500000027812501/12/20211206    31903336240421964190000N01B1000001204180000000000000                                                             VERSATIS Parche 5% CAJA X 5 PARCHES /R/PAR     5
CC0000003718895A202100000027812500000027812501/12/20211206    31903336240421964190000A04A1400001467560000000000000                                                                      ONDANSETRON SLN INY 8 MG/ 4 MLVAL     1
CC0000003718895A202100000027812500000027812501/12/20211206    31903336240421964190000A2BC0900000200150000000000000                                                                               ORAZOLE Sln Iny 40 mgCIN     1
CC0000003718895A202100000027812500000027812501/12/20211206    31903336240421964190000M01A0400001341250000000000000                                                                              DYNASTAT AMP 40 MG /R/VAL     1
CC0000003718895A202100000027812500000027812501/12/20211206    31903336240421964190000A4AD0200000202990000000000000                                                                     PLITICAN HCL Sln Iny 50 mg/2 mlAMP     1
CC0000003718895A202100000027812500000027812501/12/20211206    31903336240421964190000V4AF1000003850710000000000000                                                                    OMNIPAQUE Sln Iny 300 mg x 50 mlFCO     1
CC0000003718895A202100000027812500000027812501/12/20211206    31903336240421964190000N1BA0300000217900000000000000                                                                    BUPIROP 0.5% C/E Sln Iny x 20 mlVAL     1
CC0000003718895A202100000027812500000027812501/12/20211206    31903336240421964190000N1BA0500000647360000000000000                                                                  BUPIROP 0.5% PESADO SLN INY X 4 MLAPC     1
CC0000003718895A202100000027812500000027812501/12/20211206    3190333624042196419000022425200000548240000000000000                       EXTENSION DE ANESTESIA REF 1139 SOB X 1 SHERLEG  ADULTO BN EXENTO-DC.417/2020SIN     1
CC0000003718895A202100000027812500000027812501/12/20211206    3190333624042196419000035356500003919000000000000000                                                                                        LLAVE 3 VIASSOB     3
CC0000003718895A202100000027812500000027812501/12/20211206    31903336240421964190000Q1AA7100000610620000000000000                                                            CATETER PERIFE INTROCAN # 18G 4251687-04SIN     1
CC0000003718895A202100000027812500000027812501/12/20211206    3190333624042196419000022426800001140510000000000000                                                                    EQUIPO MACROGOTEO BAXTER MRC0001SOB     1
CC0000003718895A202100000027812500000027812501/12/20211206    3190333624042196419000016830000000970620000000000000                                                             SIST FIJACION CAT PERIFERICO 6.5X7 1683SOB     1
CC0000003718895A202100000027812500000027812501/12/20211206    3190333624042196419000020059600000225150000000000000                                                              AGUJA RAQ SPINOC 22*3 1/2 LARG 4507908SIN     6
CC0000003718895A202100000027812500000027812501/12/20211206    3190333624042196419000027292100000224750000000000000                                                                                  AGUJA PERICAN G-18SIN     1
CC0000003718895A202100000027812500000027812501/12/20211206    3190333624042196419000020056600001101530000000000000                                                                AGUJA HIPODERMICA DESECH 18G X 1 1/2SOB     1
CC0000003718895A202100000027812500000027812501/12/20211206    3190333624042196419000020058400001101660000000000000                                                                           AGUJA DESECHABLE # 25 X 1SOB     1
CC0000003718895A202100000027812500000027812501/12/20211206    3190333624042196419000038568100000258050000000000000                                                                         CANULA OXIGENO NASAL ADULTOSIN     1
CC0000003718895A202100000027812500000027812501/12/20211206    3190333624042196419000053074400000607910000000000000                                                               GASA ESTERIL 10*10 SOBRE X 3 UNIDADESSOB     1
CC0000003718895A202100000027812500000027812501/12/20211206    3190333624042196419000011085300001082140000000000000                                                                           GUANTE QUIRURGICO TALLA 8SOB     2
CC0000003718895A202100000027812500000027812501/12/20211206    3190333624042196419000024673000001411210000000000000                                                                  JERINGA DESECHABLE 3 ML 21 X 1 1/2SOB     2
CC0000003718895A202100000027812500000027812501/12/20211206    3190333624042196419000024673600000222980000000000000                                                                     JERINGA DESECHABLE 5 ml 27*11/2SIN     2
CC0000003718895A202100000027812500000027812501/12/20211206    3190333624042196419000024674000001138340000000000000   JERINGA 3PARTES C/A 10ML REF JEHL005 CAJ X 100 ALFASAFE  21GX1 PULG 1/2 PULG BN EXENTO-DC.417/202PZA     2
CC0000003718895A202100000027812500000027812501/12/20211206    3190333624042196419000024674500000322810000000000000                                                                   JERINGA DESECHABLE 20 ml 21*1 1/2SIN     1
CC0000003718895A202100000027812500000027812501/12/20211206    31903336240421964190000E1AB0300003888390000000000000                                                            SOLUCION SALINA 0.9% SLN INY BO X 500 MLBOL     2
CC0000003718895A202100000027812500000027812501/12/20211206    31903336240421964190000E1AB0200000199290000000000000                                                            SOLUCION SALINA 0.9% SLN INY BO X 100 MLBIN     1
CC0000003718895A202100000027812500000027812501/12/20211206    31903336240421964190000D7AB0100001127750000000000000                                                            KENACORT ACE SUSP INY 10 MG/ML X 5 ML /RVAL     1
CC0000003718895A202100000027812500000027812501/12/20211206    31903336240421964190000N1BA2400001687720000000000000                                                    LIDOCAINA 2% SOL INY  CAJ X 50AMP X 10ML CORPAULAMP     2
CC0000003718895A202100000027812500000027812501/12/20211206    31903336240421964190000N01B0200003888110000000000000                                           ROXICAINA SE 100MG/10ML(1%) SOL INY CAJ X 24AMPACK X 10MLAPC     2
CC0000003718895A202100000027812500000027812501/12/20211206    31903336240421964190000N5CD0300000218170000000000000                                                              DORMICUM IV-IM 5MG/5ML(1MG/ML) SOL INYAMP     1
