CC0000012576309H202100000556437700000556437701/12/20211109     3300003237421964250000A02BC100001677520000000000000                                                                ESOMEPRAZOL POLVO LIOF INY 40 MG /R/VAL     1
CC0000012576309H202100000556437700000556437701/12/20211110     3300003237421964250000B1AB0200003939510000000000000                 ENOXAPARINA SODICA 40MG/0.4ML(100MG/ML) SOL INY INST CAJ X 2JERPREL X 0.4ML TECHDOWJRP     1
CC0000012576309H202100000556437700000556437701/12/20211451    31903308237421964250000E1AB0200000199290000000000000                                                            SOLUCION SALINA 0.9% SLN INY BO X 100 MLBIN     4
CC0000012576309H202100000556437700000556437701/12/20212222    31902796237421964250000E1AD0200003888320000000000000                                                                              HARTMAN SLN INY 500 MLBOL     1
CC0000012576309H202100000556437700000556437701/12/20211109     3300003237421964250000N03AG200001590870000000000000                                                            PROVALNOVA SLN INY 100MG/ML VIALX5ML /R/VAL     3
CC0000012576309H202100000556437700000556437701/12/20211551     3300009237421964250000N03AX200001063780000000000000                                                                      KEPPRA SLN INY 500 MG/5 ML /R/VAL     2
CC0000012576309H202100000556437700000556437701/12/20211110     3300003237421964250000N03AX200001063780000000000000                                                                      KEPPRA SLN INY 500 MG/5 ML /R/VAL     4
CC0000012576309H202100000556437700000556437701/12/20211110     3300003237421964250000N03A1800001024300000000000000                                                                 VIMPAT SLN INY 10 MG/ML AMP X 20 MLVAL     5
CC0000012576309H202100000556437700000556437701/12/20211109     3300003237421964250000V06D1400000968430000000000000                                                                              JEVITY iquido x 500 mlFCO     3
CC0000012576309H202100000556437700000556437701/12/20211250    31903308237421964250000V07A1300000502600000000000000                                                                                AGUA ESTERIL x 10 mlAMP     8
