CC0000013825497H202100000556424700000556424701/12/20210559     3300010237421964250000A02B0600001277230000000000000                                                                                NEXIUM Tab 40 mg /R/TAB     1
CC0000013825497H202100000556424700000556424701/12/20211214     3300009237421964250000B02AA100001407470000000000000                                                                    CLINTRANEX SLN INY 500 MG / 5 MLAMP     3
CC0000013825497H202100000556424700000556424701/12/20210559     3300010237421964250000J01DA300001239950000000000000                                                            CEFAZOLINA SODICA POLVO LIOF SLN INY 1 GVAL     2
CC0000013825497H202100000556424700000556424701/12/20211214     3300009237421964250000N02B1100001464120000000000000                                           PARACETAMOL EP 1000MG/100ML(10MG/ML) SOL INY  CAJ X 10FCOVAL     1
CC0000013825497H202100000556424700000556424701/12/20210559     3300010237421964250000N02B1100001464120000000000000                                           PARACETAMOL EP 1000MG/100ML(10MG/ML) SOL INY  CAJ X 10FCOVAL     4
CC0000013825497H202100000556424700000556424701/12/20210558     3300010237421964250000A04AA200003932460000000000000                                                 ONDAX 4MG/2ML(2MG/ML) SOL INY INST CAJ X 1AMP X 2MLAMP     3
