CC0000022461770A202100000027816200000027816201/12/20211452    3190333624042196419000000901900000229390000000000000                                                                  MASCARA PARA OXIGENO ADULTO (1041)BIN     1
CC0000022461770A202100000027816200000027816201/12/20211452    31903336240421964190000M03AB100001371510000000000000                                                            ADECUAC SUCCINILCOLINA  100mg/mL SOL INYVAL     1
CC0000022461770A202100000027816200000027816201/12/20211452    3190333624042196419000070120200000508270000000000000                                                             PUNTA PALA ELECTROBISTURI LARGA E1551-6SIN     1
CC0000022461770A202100000027816200000027816201/12/20211452    3190333624042196419000011018100000231890000000000000                                                                         CATGUT CROMADO 3-0 SH G122TSIN     1
CC0000022461770A202100000027816200000027816201/12/20211452    31903336240421964190000N2AX0900001672040000000000000                                                                              TRAMADOL SLN INY 50 MGAMP     1
CC0000022461770A202100000027816200000027816201/12/20211452    31903336240421964190000B02AA100001407470000000000000                                                                    CLINTRANEX SLN INY 500 MG / 5 MLAMP     2
CC0000022461770A202100000027816200000027816201/12/20211452    3190333624042196419000045138000001413890000000000000                                                                       LAPIZ ELECTROBISTURI  SOB X 1SOB     1
CC0000022461770A202100000027816200000027816201/12/20211452    31903336240421964190000Q1AA7000001097160000000000000                                                            CATETER PERIFE INTROCAN # 16G 4251709-04SOB     1
CC0000022461770A202100000027816200000027816201/12/20211452    3190333624042196419000024674500000322810000000000000                                                                   JERINGA DESECHABLE 20 ml 21*1 1/2SIN     1
CC0000022461770A202100000027816200000027816201/12/20211452    31903336240421964190000R3CA0400000777470000000000000                                                               ADRENALINA HCL SLN INY 1 MG / ML RYANAMP     1
CC0000022461770A202100000027816200000027816201/12/20211452    31903336240421964190000E1BA0100000198890000000000000                                                                   AGUA ESTERIL USP SLN INY X 500 MLBIN     1
CC0000022461770A202100000027816200000027816201/12/20211452    3190333624042196419000030161400001459220000000000000                                                                       MANGUERA SUCCION 6 MM*3.1 MTSSOB     1
CC0000022461770A202100000027816200000027816201/12/20211452    3190333624042196419000043879100001138200000000000000                                                                  HOJA BISTURI # 15 CSSB 15 01002003SOB     1
CC0000022461770A202100000027816200000027816201/12/20211452    3190333624042196419000000101000001101640000000000000                                                                  AGUJA DESECHABLE  23G X 1 1/2 PULGSOB     1
CC0000022461770A202100000027816200000027816201/12/20211452    31903336240421964190000S1GA0800000858210000000000000                                                                       AFRIN 0.05% SLN NASAL X 15 MLFCO     2
CC0000022461770A202100000027816200000027816201/12/20211452    3190333624042196419000022425200000548240000000000000                       EXTENSION DE ANESTESIA REF 1139 SOB X 1 SHERLEG  ADULTO BN EXENTO-DC.417/2020SIN     1
CC0000022461770A202100000027816200000027816201/12/20211452    3190333624042196419000035356500003919000000000000000                                                                                        LLAVE 3 VIASSOB     2
CC0000022461770A202100000027816200000027816201/12/20211452    31903336240421964190000Q1AA7100000610620000000000000                                                            CATETER PERIFE INTROCAN # 18G 4251687-04SIN     1
CC0000022461770A202100000027816200000027816201/12/20211452    3190333624042196419000022426800001140510000000000000                                                                    EQUIPO MACROGOTEO BAXTER MRC0001SOB     1
CC0000022461770A202100000027816200000027816201/12/20211452    31903336240421964190000J01DA300001239950000000000000                                                            CEFAZOLINA SODICA POLVO LIOF SLN INY 1 GVAL     2
CC0000022461770A202100000027816200000027816201/12/20211452    3190333624042196419000011073300001096420000000000000                                                                BOLSA DE SUCCION DE FLUIDOS x 2500mLBOL     1
CC0000022461770A202100000027816200000027816201/12/20211452    3190333624042196419000020750600000296780000000000000                                                                PLACA ELECTRO RETORNO PACIENTE E7506SIN     1
CC0000022461770A202100000027816200000027816201/12/20211452    3190333624042196419000011082700001620070000000000000                                                               EQUIPO SET PRIMARIO C/CLAVE REF 14001BOL     2
CC0000022461770A202100000027816200000027816201/12/20211452    3190333624042196419000053074400000607910000000000000                                                               GASA ESTERIL 10*10 SOBRE X 3 UNIDADESSOB     2
CC0000022461770A202100000027816200000027816201/12/20211452    3190333624042196419000024673600000222980000000000000                                                                     JERINGA DESECHABLE 5 ml 27*11/2SIN     2
CC0000022461770A202100000027816200000027816201/12/20211452    3190333624042196419000024674000001138340000000000000   JERINGA 3PARTES C/A 10ML REF JEHL005 CAJ X 100 ALFASAFE  21GX1 PULG 1/2 PULG BN EXENTO-DC.417/202PZA     3
CC0000022461770A202100000027816200000027816201/12/20211452    3190333624042196419000051515400000598150000000000000                                                                            MASCARILLA ANESTESIA # 4SIN     1
CC0000022461770A202100000027816200000027816201/12/20211452    3190333624042196419000011085100001082120000000000000                                                                           GUANTE QUIRURGICO TALLA 7SOB     1
CC0000022461770A202100000027816200000027816201/12/20211452    3190333624042196419000043485100001618510000000000000                GUANTE QUIRURGICO DE LATEX REF 2D72N65X CAJ X 50 PROTEXIS  6.5 BN EXENTO-DC.417/2020SOB     3
CC0000022461770A202100000027816200000027816201/12/20211452    3190333624042196419000039175000001072050000000000000                                                                           TUBO ENDOTRAQUEAL C/B 7.0SOB     1
CC0000022461770A202100000027816200000027816201/12/20211452    3190333624042196419000011099300000777780000000000000                                                                     FILTRO BACTERIANO VIRICO ADULTOBOL     1
CC0000022461770A202100000027816200000027816201/12/20211452    3190333624042196419000031010900000762730000000000000                                                                          CANULA GUEDEL # 4 (100 MM)SOB     1
CC0000022461770A202100000027816200000027816201/12/20211452    31903336240421964190000E1AB0300003888390000000000000                                                            SOLUCION SALINA 0.9% SLN INY BO X 500 MLBOL     2
CC0000022461770A202100000027816200000027816201/12/20211452    31903336240421964190000E1AB0700003888350000000000000                                                            SOLUCION SALINA 0.9% SLN INY BO X 250 MLBOL     1
CC0000022461770A202100000027816200000027816201/12/20211452    31903336240421964190000N1BA0300000217900000000000000                                                                    BUPIROP 0.5% C/E Sln Iny x 20 mlVAL     1
CC0000022461770A202100000027816200000027816201/12/20211452    31903336240421964190000A2BC0900000200150000000000000                                                                               ORAZOLE Sln Iny 40 mgCIN     1
CC0000022461770A202100000027816200000027816201/12/20211452    31903336240421964190000A03F0300001626860000000000000                                                                   METOCLOPRAMIDA SLN INY 10 MG/2 MLAMP     1
CC0000022461770A202100000027816200000027816201/12/20211452    31903336240421964190000N2BB0100001672010000000000000                                  DIPIRONA 1GR/2ML(0.5GR/ML) SOL INY INST CAJ X 100AMP X 2ML VITALISAMP     3
CC0000022461770A202100000027816200000027816201/12/20211452    31903336240421964190000M01A2000001664970000000000000                                                               DICLOFENACO SODICO SLN INY 75 MG/3 MLAMP     1
CC0000022461770A202100000027816200000027816201/12/20211452    31903336240421964190000H02A0100001664960000000000000                                                                        DEXAMETASONA SLN INY 4 MG/MLAMP     2
