CC0001140878606A202100000027812600000027812601/12/20211704    3190333624042196419000011019300000231920000000000000                                                                        CATGUT CROMADO 5-0 RB1 U202TSIN     2
CC0001140878606A202100000027812600000027812601/12/20211704    3190333624042196419000012473200000232210000000000000                                                                 SUTURA ETHILON 3-0 SC-24 45CM  163TSIN     2
CC0001140878606A202100000027812600000027812601/12/20211704    3190333624042196419000012474000000232230000000000000                                                                SUTURA ETHILON 4-0 SC-20 45CM 14502TSIN     3
CC0001140878606A202100000027812600000027812601/12/20211704    31903336240421964190000R3CA0400000777470000000000000                                                               ADRENALINA HCL SLN INY 1 MG / ML RYANAMP     1
CC0001140878606A202100000027812600000027812601/12/20211704    3190333624042196419000000101000001101640000000000000                                                                  AGUJA DESECHABLE  23G X 1 1/2 PULGSOB     1
CC0001140878606A202100000027812600000027812601/12/20211704    31903336240421964190000N1BA2400001687720000000000000                                                    LIDOCAINA 2% SOL INY  CAJ X 50AMP X 10ML CORPAULAMP     4
CC0001140878606A202100000027812600000027812601/12/20211704    3190333624042196419000012474600000232270000000000000                                                                  SUTURA ETHILON 6-0 SC-16 45CM 160TSIN     2
CC0001140878606A202100000027812600000027812601/12/20211704    3190333624042196419000012475500000232250000000000000                                                                 SUTURA ETHILON 5-0 PS-2 45CM P1666TSIN     1
CC0001140878606A202100000027812600000027812601/12/20211704    3190333624042196419000012472400000232190000000000000                                                                 SUTURA ETHILON 2-0 SC-26 45CM  164TSIN     3
CC0001140878606A202100000027812600000027812601/12/20211704    3190333624042196419000045138000001413890000000000000                                                                       LAPIZ ELECTROBISTURI  SOB X 1SOB     1
CC0001140878606A202100000027812600000027812601/12/20211704    3190333624042196419000043879100001138200000000000000                                                                  HOJA BISTURI # 15 CSSB 15 01002003SOB     2
CC0001140878606A202100000027812600000027812601/12/20211704    3190333624042196419000022425200000548240000000000000                       EXTENSION DE ANESTESIA REF 1139 SOB X 1 SHERLEG  ADULTO BN EXENTO-DC.417/2020SIN     1
CC0001140878606A202100000027812600000027812601/12/20211704    3190333624042196419000035356500003919000000000000000                                                                                        LLAVE 3 VIASSOB     2
CC0001140878606A202100000027812600000027812601/12/20211704    31903336240421964190000Q1AA7100000610620000000000000                                                            CATETER PERIFE INTROCAN # 18G 4251687-04SIN     1
CC0001140878606A202100000027812600000027812601/12/20211704    3190333624042196419000022426800001140510000000000000                                                                    EQUIPO MACROGOTEO BAXTER MRC0001SOB     1
CC0001140878606A202100000027812600000027812601/12/20211704    3190333624042196419000016830000000970620000000000000                                                             SIST FIJACION CAT PERIFERICO 6.5X7 1683SOB     1
CC0001140878606A202100000027812600000027812601/12/20211704    31903336240421964190000J01DA300001239950000000000000                                                            CEFAZOLINA SODICA POLVO LIOF SLN INY 1 GVAL     2
CC0001140878606A202100000027812600000027812601/12/20211704    3190333624042196419000020750600000296780000000000000                                                                PLACA ELECTRO RETORNO PACIENTE E7506SIN     1
CC0001140878606A202100000027812600000027812601/12/20211704    3190333624042196419000053074400000607910000000000000                                                               GASA ESTERIL 10*10 SOBRE X 3 UNIDADESSOB     7
CC0001140878606A202100000027812600000027812601/12/20211704    3190333624042196419000011085300001082140000000000000                                                                           GUANTE QUIRURGICO TALLA 8SOB     2
CC0001140878606A202100000027812600000027812601/12/20211704    3190333624042196419000011085200001585390000000000000                                                                       GUANTE QUIRURGICO TALLA 7 1/2SOB     2
CC0001140878606A202100000027812600000027812601/12/20211704    3190333624042196419000011085100001082120000000000000                                                                           GUANTE QUIRURGICO TALLA 7SOB     3
CC0001140878606A202100000027812600000027812601/12/20211704    3190333624042196419000043485100001618510000000000000                GUANTE QUIRURGICO DE LATEX REF 2D72N65X CAJ X 50 PROTEXIS  6.5 BN EXENTO-DC.417/2020SOB     3
CC0001140878606A202100000027812600000027812601/12/20211704    3190333624042196419000051515400000598150000000000000                                                                            MASCARILLA ANESTESIA # 4SIN     1
CC0001140878606A202100000027812600000027812601/12/20211704    3190333624042196419000011099300000777780000000000000                                                                     FILTRO BACTERIANO VIRICO ADULTOBOL     1
CC0001140878606A202100000027812600000027812601/12/20211704    3190333624042196419000001200400000530690000000000000                                                                          CANULA DE MAYO # 5 (100MM)SIN     1
CC0001140878606A202100000027812600000027812601/12/20211704    3190333624042196419000039175000001072050000000000000                                                                           TUBO ENDOTRAQUEAL C/B 7.0SOB     1
CC0001140878606A202100000027812600000027812601/12/20211704    3190333624042196419000024673600000222980000000000000                                                                     JERINGA DESECHABLE 5 ml 27*11/2SIN     1
CC0001140878606A202100000027812600000027812601/12/20211704    3190333624042196419000024674000001138340000000000000   JERINGA 3PARTES C/A 10ML REF JEHL005 CAJ X 100 ALFASAFE  21GX1 PULG 1/2 PULG BN EXENTO-DC.417/202PZA     5
CC0001140878606A202100000027812600000027812601/12/20211704    3190333624042196419000024674500000322810000000000000                                                                   JERINGA DESECHABLE 20 ml 21*1 1/2SIN     2
CC0001140878606A202100000027812600000027812601/12/20211704    31903336240421964190000E1AD0200003888320000000000000                                                                              HARTMAN SLN INY 500 MLBOL     2
CC0001140878606A202100000027812600000027812601/12/20211704    31903336240421964190000E1AB0300003888390000000000000                                                            SOLUCION SALINA 0.9% SLN INY BO X 500 MLBOL     2
CC0001140878606A202100000027812600000027812601/12/20211704    31903336240421964190000E1AB0700003888350000000000000                                                            SOLUCION SALINA 0.9% SLN INY BO X 250 MLBOL     1
CC0001140878606A202100000027812600000027812601/12/20211704    31903336240421964190000E1AB0200000199290000000000000                                                            SOLUCION SALINA 0.9% SLN INY BO X 100 MLBIN     1
CC0001140878606A202100000027812600000027812601/12/20211704    31903336240421964190000A04A1400001467560000000000000                                                                      ONDANSETRON SLN INY 8 MG/ 4 MLVAL     1
CC0001140878606A202100000027812600000027812601/12/20211704    31903336240421964190000N02B1100001464120000000000000                                           PARACETAMOL EP 1000MG/100ML(10MG/ML) SOL INY  CAJ X 10FCOVAL     1
CC0001140878606A202100000027812600000027812601/12/20211704    31903336240421964190000A2BC0900000200150000000000000                                                                               ORAZOLE Sln Iny 40 mgCIN     1
CC0001140878606A202100000027812600000027812601/12/20211704    31903336240421964190000N01A0400003939010000000000000                                               MAYOPROFOL 200MG/20ML(1%) EMUL INY CAJ X 1VIAL X 20MLVAL     1
CC0001140878606A202100000027812600000027812601/12/20211704    31903336240421964190000M01A0400001341250000000000000                                                                              DYNASTAT AMP 40 MG /R/VAL     1
CC0001140878606A202100000027812600000027812601/12/20211704    31903336240421964190000N2BB1100000217160000000000000                                                                      NOVALGINA Sln Iny 2.5 g x 5 mlAMP     1
CC0001140878606A202100000027812600000027812601/12/20211704    31903336240421964190000A4AD0200000202990000000000000                                                                     PLITICAN HCL Sln Iny 50 mg/2 mlAMP     1
CC0001140878606A202100000027812600000027812601/12/20211704    31903336240421964190000H02AB500001664950000000000000                                                            DEXAMETASONA SLN INY 8 MG/2 ML AMP /CDS/AMP     1
CC0001140878606A202100000027812600000027812601/12/20211704    31903336240421964190000C01C0300001261020000000000000                                                               ETILEFRINA HCL SLN INY 10 MG/1 ML /R/AMP     1
CC0001140878606A202100000027812600000027812601/12/20211704    31903336240421964190000N01B1300001195250000000000000                                                                         BUPIROP 0.5% S/EPIN X 10 MLAMP     1
CC0001140878606A202100000027812600000027812601/12/20211704    31903336240421964190000N01B0600003888900000000000000                                                    BUPINEST 75MG/10ML(0.75%) SOL INY CAJ X 24AMPACKAPC     1
CC0001140878606A202100000027812600000027812601/12/20211704    31903336240421964190000M3AC0600000720540000000000000                                                                         ESMERON SLN INY 50 MG /5 MLVAL     1
CC0001140878606A202100000027812600000027812601/12/20211704    31903336240421964190000N2AA0700001587170000000000000                                                                                 ULTIVA Sln Iny 2 mgVAL     1
