CC0000018493432H202100920572120100920572120101/12/20211512    31500088237421964250000E1AB0500003888400000000000000                                                              SOLUCION SALINA 0.9% SLN INY X 1000 MLBOL     1
CC0000018493432H202100920572120100920572120101/12/20212354    3150027623742196425000016830000000970620000000000000                                                             SIST FIJACION CAT PERIFERICO 6.5X7 1683SOB     1
CC0000018493432H202100920572120100920572120101/12/20212354    31500276237421964250000Q1AA7300000610640000000000000                                                            CATETER PERIFE INTROCAN # 22G 4251628-04SIN     1
CC0000018493432H202100920572120100920572120101/12/20212354    3150027623742196425000001956000001620610000000000000                                                                      CONECTOR MICRO CLAVE LAT-MC100SOB     1
