CC0000022438763H202100015052791500015052791501/12/20211008    3190224223742196425000045136100001419300000000000000                                                                            LANCETA DEXTROMETER X UNPZA     3
CC0000008530442H202100015052791500015052791501/12/20211008    3190224223742196425000045136100001419300000000000000                                                                            LANCETA DEXTROMETER X UNPZA     3
CC0000022530541H202100015052791500015052791501/12/20211008    3190224223742196425000045136100001419300000000000000                                                                            LANCETA DEXTROMETER X UNPZA     3
CC0000022438763H202100015052791500015052791501/12/20211008    3190224223742196425000022426800001140510000000000000                                                                    EQUIPO MACROGOTEO BAXTER MRC0001SOB     1
CC0000022438763H202100015052791500015052791501/12/20211008    31902242237421964250000E1AB0700003888350000000000000                                                            SOLUCION SALINA 0.9% SLN INY BO X 250 MLBOL     1
CC0000022438763H202100015052791500015052791501/12/20211008    3190224223742196425000011137100001419310000000000000                                                               TIRA GLUCOMETRIA FREESTYLE H OPTIUM .PZA     3
CC0000008530442H202100015052791500015052791501/12/20211008    3190224223742196425000011137100001419310000000000000                                                               TIRA GLUCOMETRIA FREESTYLE H OPTIUM .PZA     3
CC0000022530541H202100015052791500015052791501/12/20211008    3190224223742196425000011137100001419310000000000000                                                               TIRA GLUCOMETRIA FREESTYLE H OPTIUM .PZA     3
