PA0000PA0584975H202100000556430000000556430001/12/20210903    31903331237421964250000A4AD0200000202990000000000000                                                                     PLITICAN HCL Sln Iny 50 mg/2 mlAMP     1
PA0000PA0584975H202100000556430000000556430001/12/20210903    31903331237421964250000A3BB0300000512950000000000000                                                             BUSCAPINA COMP Sln Iny 20 mg+2.5 g/5 mlAMP     1
PA0000PA0584975H202100000556430000000556430001/12/20210903    31903331237421964250000M1AX0200001569410000000000000                                                                         KETRON SLN INY 30 MG / 2 MLAMP     1
