TI0001194965615U202100050131866400050131866401/12/20210451    3190016323942196432000024673600000222980000000000000                                                                     JERINGA DESECHABLE 5 ml 27*11/2SIN     2
TI0001194965615U202100050131866400050131866401/12/20210451    3190016323942196432000011082700001620070000000000000                                                               EQUIPO SET PRIMARIO C/CLAVE REF 14001BOL     1
TI0001194965615U202100050131866400050131866401/12/20210451    31900163239421964320000Q1AA7300000610640000000000000                                                            CATETER PERIFE INTROCAN # 22G 4251628-04SIN     1
TI0001194965615U202100050131866400050131866401/12/20210451    3190016323942196432000030936900001431840000000000000                                                                                              BURETABOL     1
TI0001194965615U202100050131866400050131866401/12/20210451    3190016323942196432000016830000000970620000000000000                                                             SIST FIJACION CAT PERIFERICO 6.5X7 1683SOB     1
TI0001194965615U202100050131866400050131866401/12/20210451    31900163239421964320000E1AD0200003888320000000000000                                                                              HARTMAN SLN INY 500 MLBOL     1
