RC0001044226939A202100000027816100000027816101/12/20211122    31903336240421964190000M01A2000001664970000000000000                                                               DICLOFENACO SODICO SLN INY 75 MG/3 MLAMP     1
RC0001044226939A202100000027816100000027816101/12/20211122    31903336240421964190000B02AA100001407470000000000000                                                                    CLINTRANEX SLN INY 500 MG / 5 MLAMP     1
RC0001044226939A202100000027816100000027816101/12/20211122    31903336240421964190000N2AX0900001672040000000000000                                                                              TRAMADOL SLN INY 50 MGAMP     1
RC0001044226939A202100000027816100000027816101/12/20211122    31903336240421964190000N01A0400003939010000000000000                                               MAYOPROFOL 200MG/20ML(1%) EMUL INY CAJ X 1VIAL X 20MLVAL     1
RC0001044226939A202100000027816100000027816101/12/20211122    31903336240421964190000R01AA100001071000000000000000                                                               OXIMETAZOLINA SLN NASAL 0.05% X 15 MLFCO     1
RC0001044226939A202100000027816100000027816101/12/20211122    3190333624042196419000043879100001138200000000000000                                                                  HOJA BISTURI # 15 CSSB 15 01002003SOB     1
RC0001044226939A202100000027816100000027816101/12/20211122    3190333624042196419000024674500000322810000000000000                                                                   JERINGA DESECHABLE 20 ml 21*1 1/2SIN     1
RC0001044226939A202100000027816100000027816101/12/20211122    31903336240421964190000E1BA0100000198890000000000000                                                                   AGUA ESTERIL USP SLN INY X 500 MLBIN     1
RC0001044226939A202100000027816100000027816101/12/20211122    3190333624042196419000030161400001459220000000000000                                                                       MANGUERA SUCCION 6 MM*3.1 MTSSOB     2
RC0001044226939A202100000027816100000027816101/12/20211122    31903336240421964190000Q1AA6900000531340000000000000                                                            CATETER PERIFE INTROCAN # 14G 4251890-04SIN     1
RC0001044226939A202100000027816100000027816101/12/20211122    3190333624042196419000000101000001101640000000000000                                                                  AGUJA DESECHABLE  23G X 1 1/2 PULGSOB     1
RC0001044226939A202100000027816100000027816101/12/20211122    31903336240421964190000R01AA200001070990000000000000                                                              OXIMETAZOLINA SLN NASAL 0.025% X 15 MLFCO     1
RC0001044226939A202100000027816100000027816101/12/20211122    3190333624042196419000022425200000548240000000000000                       EXTENSION DE ANESTESIA REF 1139 SOB X 1 SHERLEG  ADULTO BN EXENTO-DC.417/2020SIN     1
RC0001044226939A202100000027816100000027816101/12/20211122    3190333624042196419000022425100001392880000000000000             EQUIPO MICROGOTEO SIN AGUJA REF 201000 PAQ X 100 SOB GOTHAPLAST   BN EXENTO-DC.417/2020BOL     1
RC0001044226939A202100000027816100000027816101/12/20211122    3190333624042196419000035356500003919000000000000000                                                                                        LLAVE 3 VIASSOB     1
RC0001044226939A202100000027816100000027816101/12/20211122    31903336240421964190000Q1AA7300000610640000000000000                                                            CATETER PERIFE INTROCAN # 22G 4251628-04SIN     1
RC0001044226939A202100000027816100000027816101/12/20211122    3190333624042196419000011073300001096420000000000000                                                                BOLSA DE SUCCION DE FLUIDOS x 2500mLBOL     1
RC0001044226939A202100000027816100000027816101/12/20211122    3190333624042196419000020750800000295830000000000000                                                                       PLACA RETORNO PEDIAT E7510-25SIN     1
RC0001044226939A202100000027816100000027816101/12/20211122    3190333624042196419000053074400000607910000000000000                                                               GASA ESTERIL 10*10 SOBRE X 3 UNIDADESSOB     3
RC0001044226939A202100000027816100000027816101/12/20211122    3190333624042196419000011085100001082120000000000000                                                                           GUANTE QUIRURGICO TALLA 7SOB     3
RC0001044226939A202100000027816100000027816101/12/20211122    3190333624042196419000043485100001618510000000000000                GUANTE QUIRURGICO DE LATEX REF 2D72N65X CAJ X 50 PROTEXIS  6.5 BN EXENTO-DC.417/2020SOB     3
RC0001044226939A202100000027816100000027816101/12/20211122    3190333624042196419000039174500001679380000000000000                                                                           TUBO ENDOTRAQUEAL C/B 4.5SOB     1
RC0001044226939A202100000027816100000027816101/12/20211122    3190333624042196419000051515300000598140000000000000                                                                            MASCARILLA ANESTESIA # 3SIN     1
RC0001044226939A202100000027816100000027816101/12/20211122    3190333624042196419000035612500000331850000000000000                                                                          MASCARA OXIGENO PEDIATRICOBIN     1
RC0001044226939A202100000027816100000027816101/12/20211122    3190333624042196419000011099300000777780000000000000                                                                     FILTRO BACTERIANO VIRICO ADULTOBOL     1
RC0001044226939A202100000027816100000027816101/12/20211122    3190333624042196419000031011300000762710000000000000                                                                            CANULA GUEDEL #2 (80 MM)SOB     1
RC0001044226939A202100000027816100000027816101/12/20211122    3190333624042196419000024673600000222980000000000000                                                                     JERINGA DESECHABLE 5 ml 27*11/2SIN     1
RC0001044226939A202100000027816100000027816101/12/20211122    3190333624042196419000024674000001138340000000000000   JERINGA 3PARTES C/A 10ML REF JEHL005 CAJ X 100 ALFASAFE  21GX1 PULG 1/2 PULG BN EXENTO-DC.417/202PZA     4
RC0001044226939A202100000027816100000027816101/12/20211122    31903336240421964190000E1AB0700003888350000000000000                                                            SOLUCION SALINA 0.9% SLN INY BO X 250 MLBOL     2
RC0001044226939A202100000027816100000027816101/12/20211122    31903336240421964190000H02AB700000585860000000000000                                                                HIDROCORTISONA SUCCI POL LIOF 100 MGVAL     2
RC0001044226939A202100000027816100000027816101/12/20211122    31903336240421964190000N2BB0100001672010000000000000                                  DIPIRONA 1GR/2ML(0.5GR/ML) SOL INY INST CAJ X 100AMP X 2ML VITALISAMP     1
RC0001044226939A202100000027816100000027816101/12/20211122    31903336240421964190000A03F0300001626860000000000000                                                                   METOCLOPRAMIDA SLN INY 10 MG/2 MLAMP     1
RC0001044226939A202100000027816100000027816101/12/20211122    31903336240421964190000H02A0100001664960000000000000                                                                        DEXAMETASONA SLN INY 4 MG/MLAMP     1
RC0001044226939A202100000027816100000027816101/12/20211122    31903336240421964190000N5CD0300000218170000000000000                                                              DORMICUM IV-IM 5MG/5ML(1MG/ML) SOL INYAMP     1
