CC0000032637401H202100000556421600000556421601/12/20210921     3300003237421964250000A2BC0600001335730000000000000                                                                                   ORAZOLE CAP 40 MGCAP     1
CC0000032637401H202100000556421600000556421601/12/20210921     3300003237421964250000A6AC0200001467010000000000000                                                             LACTULAX JARABE 66.7G/100ML SOX15ML /R/SOB     2
CC0000032637401H202100000556421600000556421601/12/20210921     3300003237421964250000A06AD100001193740000000000000                                                                      CONTUMAX 3350 SOBRE X 17 G /R/SOB     2
CC0000032637401H202100000556421600000556421601/12/20210921     3300003237421964250000B1AB0200003939510000000000000                 ENOXAPARINA SODICA 40MG/0.4ML(100MG/ML) SOL INY INST CAJ X 2JERPREL X 0.4ML TECHDOWJRP     1
CC0000032637401H202100000556421600000556421601/12/20210309    31500052237421964250000E1AD0300000199490000000000000                                         LACTATO RINGER USP (HARTMANN)  SOL INY  BOL X 1000ML BAXTERBIN     1
CC0000032637401H202100000556421600000556421601/12/20210921     3300003237421964250000J01DA300001239950000000000000                                                            CEFAZOLINA SODICA POLVO LIOF SLN INY 1 GVAL     3
CC0000032637401H202100000556421600000556421601/12/20210921     3300003237421964250000N2BE0400001313790000000000000                                                                      WINADEINE TAB 325 MG /8 MG /R/TAB     3
CC0000032637401H202100000556421600000556421601/12/20210921     3300003237421964250000N03A0800001278440000000000000                                                                                LYRICA CAP 75 MG /R/CAP     1
