CC0000032851396H202100000556441700000556441701/12/20211259    31500065237421964250000A4AD0200000202990000000000000                                                                     PLITICAN HCL Sln Iny 50 mg/2 mlAMP     4
CC0000032851396H202100000556441700000556441701/12/20211259    31500065237421964250000A3BB0200000512940000000000000                                                                          BUSCAPINA SIMPLE Iny 20 mgAMP     3
CC0000032851396H202100000556441700000556441701/12/20211259    31500065237421964250000N2AX0400001204140000000000000                                                                             TRAMAL Sln Iny 50 mg/mlAMP     2
CC0000032851396H202100000556441700000556441701/12/20211259    31500065237421964250000N2BB0500000217140000000000000                                                                          NOVALGINA Sln Iny 1 g/2 mlAMP     4
CC0000032851396H202100000556441700000556441701/12/20211259    31500065237421964250000N02B1100001464120000000000000                                           PARACETAMOL EP 1000MG/100ML(10MG/ML) SOL INY  CAJ X 10FCOVAL     5
CC0000032851396H202100000556441700000556441701/12/20211259    31500065237421964250000A02BC700001684270000000000000                                                            OMEPRAZOL 40MG POLVO LIOFILIZADO AMPOLLAVAL     1
