CC0000064541334H202100015032640900015032640901/12/20210747    3190099523742196425000043879400001138170000000000000                                                                  HOJA BISTURI # 10 CSSB 10 01002000SOB     1
CC0000064541334H202100015032640900015032640901/12/20210747    3190099523742196425000043485100001618510000000000000                GUANTE QUIRURGICO DE LATEX REF 2D72N65X CAJ X 50 PROTEXIS  6.5 BN EXENTO-DC.417/2020SOB     4
CC0000064541334H202100015032640900015032640901/12/20210747    3190099523742196425000013077800000471960000000000000                                                             GASA NO TEJIDA EST 7.5 X 7.5 SOB X 3 UNSOB    20
CC0000064541334H202100015032640900015032640901/12/20210747    3190099523742196425000042743400003929880000000000000                                    CINTA ADHESIVA TRANSPARENT REF 72216-01 ROL X 10MT FIXOMULL 10CMCMT   100
CC0000064541334H202100015032640900015032640901/12/20210747    3190099523742196425000011072900000640590000000000000                                                               BOLSA COLOSTOMIA 57MM 18113 HOLLISTERPZA     1
CC0000064541334H202100015032640900015032640901/12/20210747    3190099523742196425000040185000001571620000000000000                                                                         APOSITO AQUACEL AG 15X15 CMSOB     2
CC0000064541334H202100015032640900015032640901/12/20210747    3190099523742196425000020056600001101530000000000000                                                                AGUJA HIPODERMICA DESECH 18G X 1 1/2SOB     1
CC0000064541334H202100015032640900015032640901/12/20210747    31900995237421964250000E1AB0300003888390000000000000                                                            SOLUCION SALINA 0.9% SLN INY BO X 500 MLBOL     1
CC0000064541334H202100015032640900015032640901/12/20210747    3190099523742196425000011141900000866680000000000000                                                            BARRERA PLANA HOLLISTER REF 14603 57MM .SOB     1
CC0000064541334H202100015032640900015032640901/12/20210747    3190099523742196425000011133600001272020000000000000                                                            BARRERA PIEL STOMAHESIVE REF 21715 CONVAPZA     1
