CC0000011312131H202100000556437400000556437401/12/20211550     3300009237421964250000A03F0300001626860000000000000                                                                   METOCLOPRAMIDA SLN INY 10 MG/2 MLAMP     1
CC0000011312131H202100000556437400000556437401/12/20211103     3300003237421964250000A03F0300001626860000000000000                                                                   METOCLOPRAMIDA SLN INY 10 MG/2 MLAMP     2
CC0000011312131H202100000556437400000556437401/12/20211246     3300009237421964250000A02AF100001566240000000000000                                                                    PEPSAMAR PLUS Susp Oral X 150 MLFCO     1
CC0000011312131H202100000556437400000556437401/12/20211102     3300003237421964250000A02AF100001566240000000000000                                                                    PEPSAMAR PLUS Susp Oral X 150 MLFCO     1
CC0000011312131H202100000556437400000556437401/12/20211451    31903308237421964250000E1AB1100003888280000000000000                                                                        SOLUCION SALINA 0.9% X 50 mlBOL     4
CC0000011312131H202100000556437400000556437401/12/20211102     3300003237421964250000A12CA200001239800000000000000                     BICARBONATO SODIO 10MEQ/10ML(1MEQ/ML) SOL INY  CAJ X 100AMPX10ML FRESENIUS KABIAMP     2
CC0000011312131H202100000556437400000556437401/12/20212222    31902796237421964250000E1AD0200003888320000000000000                                                                              HARTMAN SLN INY 500 MLBOL     1
CC0000011312131H202100000556437400000556437401/12/20211102     3300003237421964250000N01B0200003888110000000000000                                           ROXICAINA SE 100MG/10ML(1%) SOL INY CAJ X 24AMPACK X 10MLAPC     2
CC0000011312131H202100000556437400000556437401/12/20211550     3300009237421964250000N2BB0200000513030000000000000                                                                           LISALGIL Sln Iny 2 g/5 mlAMP     1
CC0000011312131H202100000556437400000556437401/12/20211550     3300009237421964250000J01CR200000947130000000000000                                                              AMPICILINA /SULBACTAN POLVO LIOF 1.5 GAMP     1
CC0000011312131H202100000556437400000556437401/12/20211102     3300003237421964250000J01CR200000947130000000000000                                                              AMPICILINA /SULBACTAN POLVO LIOF 1.5 GAMP     3
CC0000011312131H202100000556437400000556437401/12/20211103     3300003237421964250000A02BC700001684270000000000000                                                            OMEPRAZOL 40MG POLVO LIOFILIZADO AMPOLLAVAL     2
CC0000011312131H202100000556437400000556437401/12/20211249    31903308237421964250000V07A1300000502600000000000000                                                                                AGUA ESTERIL x 10 mlAMP     8
