CC0000032637401H202100015012618000015012618001/12/20210916    3190093123742196425000043879200001138180000000000000                                                                                   HOJA BISTURI # 11SOB     2
RC0001043471989H202100015012618000015012618001/12/20210916    3190093123742196425000042743200003929860000000000000                   GASA ADHESIVA STRETCH REF 02038-00 ROL X 10MT FIXOMULL 15CM BN EXENTO-DC.417/2020CMT    20
CC0000073070310H202100015012618000015012618001/12/20210916    31900931237421964250000Q1AA7300000610640000000000000                                                            CATETER PERIFE INTROCAN # 22G 4251628-04SIN     2
RC0001043471989H202100015012618000015012618001/12/20210916    31900931237421964250000Q1AA7300000610640000000000000                                                            CATETER PERIFE INTROCAN # 22G 4251628-04SIN     2
RC0001043471989H202100015012618000015012618001/12/20210916    31900931237421964250000Q1AA7400003911720000000000000                                                            CATETER PERIFE INTROCAN # 24G 4251601-04SOB     2
CC0000073070310H202100015012618000015012618001/12/20210916    3190093123742196425000016830000000970620000000000000                                                             SIST FIJACION CAT PERIFERICO 6.5X7 1683SOB     1
