CC0001129508133H202100015032642800015032642801/12/20212316    3190213823742196425000030936900001431840000000000000                                                                                              BURETABOL     1
PA0000548243681H202100015032642800015032642801/12/20212316    3190213823742196425000030936900001431840000000000000                                                                                              BURETABOL     1
PA0000548243681H202100015032642800015032642801/12/20212316    31902138237421964250000E1AD0300000199490000000000000                                         LACTATO RINGER USP (HARTMANN)  SOL INY  BOL X 1000ML BAXTERBIN     2
CC0001129508133H202100015032642800015032642801/12/20212316    31902138237421964250000E1AB0300003888390000000000000                                                            SOLUCION SALINA 0.9% SLN INY BO X 500 MLBOL     2
CC0001129508133H202100015032642800015032642801/12/20212316    31902138237421964250000E1AA0100003888590000000000000                                                                        DEXTROSA 5% Sln Iny X 500 mlBOL     1
