CC0000071451549U202100000556431600000556431601/12/20211336     3300010239421964320000B1AA0100001429900000000000000                                                                                   COUMADIN TAB 5 MGTAB     1
CC0000071451549U202100000556431600000556431601/12/20211336     3300010239421964320000B1AB1200003939350000000000000                 ENOXAPARINA SODICA 80MG/0.8ML(100MG/ML) SOL INY INST CAJ X 2JERPREL X 0.8ML TECHDOWJRP     1
CC0000071451549U202100000556431600000556431601/12/20210953    31903180239421964320000E1AB0300003888390000000000000                                                            SOLUCION SALINA 0.9% SLN INY BO X 500 MLBOL     1
CC0000071451549U202100000556431600000556431601/12/20210940     3300010239421964320000M1AE2500000191550000000000000                                                            PROFENID POLVO LIOF SLN INY 100MG/2ML/R/AMP     1
CC0000071451549U202100000556431600000556431601/12/20210940     3300010239421964320000N02B1100001464120000000000000                                           PARACETAMOL EP 1000MG/100ML(10MG/ML) SOL INY  CAJ X 10FCOVAL     1
