CC0000028005782A202100000027814500000027814501/12/20211608    3190333624042196419000018665700003929810000000000000                                                STOQUINETA ORTOPEDICA TUBULAR ROL X 25MT WINER 4PULGCMT     2
CC0000028005782A202100000027814500000027814501/12/20211608    31903336240421964190000J01FF200003888100000000000000                                                                             EUROCLIN SLN INY 600 MGAMP     1
CC0000028005782A202100000027814500000027814501/12/20211608    3190333624042196419000011857700001096350000000000000                                                              AGUJA SONOPLEX BLOQUEO 21*100 01185-77BOL     1
CC0000028005782A202100000027814500000027814501/12/20211608    31903336240421964190000B02AA100001407470000000000000                                                                    CLINTRANEX SLN INY 500 MG / 5 MLAMP     4
CC0000028005782A202100000027814500000027814501/12/20211608    31903336240421964190000J01G0100000858000000000000000                                                                       GARAMICINA SLN INY 80 MG/2 MLAMP     2
CC0000028005782A202100000027814500000027814501/12/20211608    3190333624042196419000019494500000458220000000000000                                                                                VICRYL RAPID INC 2-0SIN     1
CC0000028005782A202100000027814500000027814501/12/20211608    3190333624042196419000000600800000258580000000000000                                                              APOSITO BACTIGRAS REF 7461 15CM X 20CMSIN     1
CC0000028005782A202100000027814500000027814501/12/20211608    3190333624042196419000000501500001259410000000000000                                                              STRATAFIX 1 PDS CT-1 SXPD2B403 30*30CMSOB     1
CC0000028005782A202100000027814500000027814501/12/20211608    3190333624042196419000000601900000258430000000000000                                                            APOSITO OPSIT POST -OP 0714  25CM X 10CMSIN     1
CC0000028005782A202100000027814500000027814501/12/20211608    3190333624042196419000042473100003929820000000000000                                                STOQUINETA ORTOPEDICA TUBULAR ROL X 25MT WINER 5PULGCMT     1
CC0000028005782A202100000027814500000027814501/12/20211608    3190333624042196419000048657700000223550000000000000                                                                  CAMPO QUIRUR STERI  DRAPE REF 1015SIN     1
CC0000028005782A202100000027814500000027814501/12/20211608    3190333624042196419000044370800000224140000000000000                                                                                IOBAN 2 90 X 45 6650SIN     1
CC0000028005782A202100000027814500000027814501/12/20211608    3190333624042196419000018630000000358130000000000000                                                                   DURAPREP Sln YODO APLICADOR 26 MLFCO     2
CC0000028005782A202100000027814500000027814501/12/20211608    3190333624042196419000042535000000222080000000000000                                                              SISTEMA SUCCION EXOVAC 1/8PULG (3.2MM)CAJ     1
CC0000028005782A202100000027814500000027814501/12/20211608    3190333624042196419000045138000001413890000000000000                                                                       LAPIZ ELECTROBISTURI  SOB X 1SOB     1
CC0000028005782A202100000027814500000027814501/12/20211608    3190333624042196419000030161400001459220000000000000                                                                       MANGUERA SUCCION 6 MM*3.1 MTSSOB     1
CC0000028005782A202100000027814500000027814501/12/20211608    3190333624042196419000020042600000633850000000000000                                                                                       ASEPTOJERINGASIN     1
CC0000028005782A202100000027814500000027814501/12/20211608    3190333624042196419000049428500000738570000000000000                                                                       VENDA ELASTICA 6*5 NO ESTERILSOB     5
CC0000028005782A202100000027814500000027814501/12/20211608    3190333624042196419000049419800001679910000000000000                                                                        VENDA ALGODON 6*5 NO ESTERILSOB     2
CC0000028005782A202100000027814500000027814501/12/20211608    3190333624042196419000019487500000602970000000000000                                                                           VICRYL 2-0 CT1 90 VCP345HSIN     1
CC0000028005782A202100000027814500000027814501/12/20211608    3190333624042196419000019487800001585180000000000000                                                                    VICRYL 1 PLUS 70 CM CT-1 VCP341HSOB     1
CC0000028005782A202100000027814500000027814501/12/20211608    3190333624042196419000015994600000632480000000000000                                                                          MONOCRYL 4-0 PS-2 45 Y496GSIN     1
CC0000028005782A202100000027814500000027814501/12/20211608    3190333624042196419000043879400001138170000000000000                                                                  HOJA BISTURI # 10 CSSB 10 01002000SOB     1
CC0000028005782A202100000027814500000027814501/12/20211608    3190333624042196419000043879500001138210000000000000                                                                                    HOJA BISTURI #20SOB     1
CC0000028005782A202100000027814500000027814501/12/20211608    3190333624042196419000022425200000548240000000000000                       EXTENSION DE ANESTESIA REF 1139 SOB X 1 SHERLEG  ADULTO BN EXENTO-DC.417/2020SIN     1
CC0000028005782A202100000027814500000027814501/12/20211608    3190333624042196419000035356500003919000000000000000                                                                                        LLAVE 3 VIASSOB     2
CC0000028005782A202100000027814500000027814501/12/20211608    31903336240421964190000Q1AA7100000610620000000000000                                                            CATETER PERIFE INTROCAN # 18G 4251687-04SIN     1
CC0000028005782A202100000027814500000027814501/12/20211608    3190333624042196419000022426800001140510000000000000                                                                    EQUIPO MACROGOTEO BAXTER MRC0001SOB     1
CC0000028005782A202100000027814500000027814501/12/20211608    3190333624042196419000016830000000970620000000000000                                                             SIST FIJACION CAT PERIFERICO 6.5X7 1683SOB     1
CC0000028005782A202100000027814500000027814501/12/20211608    3190333624042196419000011073300001096420000000000000                                                                BOLSA DE SUCCION DE FLUIDOS x 2500mLBOL     1
CC0000028005782A202100000027814500000027814501/12/20211608    3190333624042196419000020750600000296780000000000000                                                                PLACA ELECTRO RETORNO PACIENTE E7506SIN     1
CC0000028005782A202100000027814500000027814501/12/20211608    3190333624042196419000053074400000607910000000000000                                                               GASA ESTERIL 10*10 SOBRE X 3 UNIDADESSOB     3
CC0000028005782A202100000027814500000027814501/12/20211608    3190333624042196419000011047900000223010000000000000                                                                            JERINGA X 1ML REF 302579SIN     1
CC0000028005782A202100000027814500000027814501/12/20211608    3190333624042196419000024673000001411210000000000000                                                                  JERINGA DESECHABLE 3 ML 21 X 1 1/2SOB     2
CC0000028005782A202100000027814500000027814501/12/20211608    3190333624042196419000024673600000222980000000000000                                                                     JERINGA DESECHABLE 5 ml 27*11/2SIN     3
CC0000028005782A202100000027814500000027814501/12/20211608    3190333624042196419000024674000001138340000000000000   JERINGA 3PARTES C/A 10ML REF JEHL005 CAJ X 100 ALFASAFE  21GX1 PULG 1/2 PULG BN EXENTO-DC.417/202PZA     4
CC0000028005782A202100000027814500000027814501/12/20211608    3190333624042196419000024674500000322810000000000000                                                                   JERINGA DESECHABLE 20 ml 21*1 1/2SIN     2
CC0000028005782A202100000027814500000027814501/12/20211608    3190333624042196419000011085300001082140000000000000                                                                           GUANTE QUIRURGICO TALLA 8SOB     5
CC0000028005782A202100000027814500000027814501/12/20211608    3190333624042196419000011085200001585390000000000000                                                                       GUANTE QUIRURGICO TALLA 7 1/2SOB     8
CC0000028005782A202100000027814500000027814501/12/20211608    3190333624042196419000011085100001082120000000000000                                                                           GUANTE QUIRURGICO TALLA 7SOB     3
CC0000028005782A202100000027814500000027814501/12/20211608    3190333624042196419000043485100001618510000000000000                GUANTE QUIRURGICO DE LATEX REF 2D72N65X CAJ X 50 PROTEXIS  6.5 BN EXENTO-DC.417/2020SOB     3
CC0000028005782A202100000027814500000027814501/12/20211608    3190333624042196419000038568100000258050000000000000                                                                         CANULA OXIGENO NASAL ADULTOSIN     1
CC0000028005782A202100000027814500000027814501/12/20211608    3190333624042196419000021056700001212260000000000000                                                              CAT ANESTESIA EPIDURAL 19GA JC-05400-ESOB     1
CC0000028005782A202100000027814500000027814501/12/20211608    31903336240421964190000Q1A15500001690750000000000000                                                            AGUJA ESPINAL WHITACRE 27*3 1/2  4502027SOB     1
CC0000028005782A202100000027814500000027814501/12/20211608    3190333624042196419000000100800000223140000000000000                                                                       AGUJA DESECHABLE 23G X 1 PULGSIN     1
CC0000028005782A202100000027814500000027814501/12/20211608    31903336240421964190000E1AD0200003888320000000000000                                                                              HARTMAN SLN INY 500 MLBOL     1
CC0000028005782A202100000027814500000027814501/12/20211608    31903336240421964190000E1AB0500003888400000000000000                                                              SOLUCION SALINA 0.9% SLN INY X 1000 MLBOL     1
CC0000028005782A202100000027814500000027814501/12/20211608    31903336240421964190000E1AB0300003888390000000000000                                                            SOLUCION SALINA 0.9% SLN INY BO X 500 MLBOL     2
CC0000028005782A202100000027814500000027814501/12/20211608    31903336240421964190000E1AB0200000199290000000000000                                                            SOLUCION SALINA 0.9% SLN INY BO X 100 MLBIN     2
CC0000028005782A202100000027814500000027814501/12/20211608    31903336240421964190000N02B1100001464120000000000000                                           PARACETAMOL EP 1000MG/100ML(10MG/ML) SOL INY  CAJ X 10FCOVAL     1
CC0000028005782A202100000027814500000027814501/12/20211608    31903336240421964190000A4AD0200000202990000000000000                                                                     PLITICAN HCL Sln Iny 50 mg/2 mlAMP     1
CC0000028005782A202100000027814500000027814501/12/20211608    31903336240421964190000A2BC0900000200150000000000000                                                                               ORAZOLE Sln Iny 40 mgCIN     1
CC0000028005782A202100000027814500000027814501/12/20211608    31903336240421964190000M1AX0200001569410000000000000                                                                         KETRON SLN INY 30 MG / 2 MLAMP     1
CC0000028005782A202100000027814500000027814501/12/20211608    31903336240421964190000H02AB500001664950000000000000                                                            DEXAMETASONA SLN INY 8 MG/2 ML AMP /CDS/AMP     1
CC0000028005782A202100000027814500000027814501/12/20211608    31903336240421964190000N1BA0500000647360000000000000                                                                  BUPIROP 0.5% PESADO SLN INY X 4 MLAPC     1
CC0000028005782A202100000027814500000027814501/12/20211608    31903336240421964190000N01B0600003888900000000000000                                                    BUPINEST 75MG/10ML(0.75%) SOL INY CAJ X 24AMPACKAPC     2
CC0000028005782A202100000027814500000027814501/12/20211608    31903336240421964190000N01B1200000220020000000000000                                                                        ROXICAINA 1% C/E Iny x 20 mlFCO     1
CC0000028005782A202100000027814500000027814501/12/20211608    31903336240421964190000N01B0200003888110000000000000                                           ROXICAINA SE 100MG/10ML(1%) SOL INY CAJ X 24AMPACK X 10MLAPC     1
CC0000028005782A202100000027814500000027814501/12/20211608    31903336240421964190000N2AA0100000301640000000000000                                                                            MORFINA Sln Iny 10 mg/mlAMP     1
CC0000028005782A202100000027814500000027814501/12/20211608    31903336240421964190000N1AH0200003906560000000000000                                                                     FENTANIL Iny 0.05 mg/ml x 10 mlAMP     1
