CC0000072297175U202100000556437100000556437101/12/20211150    31902800239421964320000E1AB0300003888390000000000000                                                            SOLUCION SALINA 0.9% SLN INY BO X 500 MLBOL     1
CC0000072297175U202100000556437100000556437101/12/20211058     3300010239421964320000H02AB500001664950000000000000                                                            DEXAMETASONA SLN INY 8 MG/2 ML AMP /CDS/AMP     1
CC0000072297175U202100000556437100000556437101/12/20211058     3300010239421964320000M01A0400001341250000000000000                                                                              DYNASTAT AMP 40 MG /R/VAL     1
CC0000072297175U202100000556437100000556437101/12/20212324     3300010239421964320000M03B0500001278430000000000000                                                                     DORIXINA RELAX Tab 125/5 MG /R/TAB     1
CC0000072297175U202100000556437100000556437101/12/20211059     3300010239421964320000M03B0500001278430000000000000                                                                     DORIXINA RELAX Tab 125/5 MG /R/TAB     1
CC0000072297175U202100000556437100000556437101/12/20211059     3300010239421964320000N02B1100001464120000000000000                                           PARACETAMOL EP 1000MG/100ML(10MG/ML) SOL INY  CAJ X 10FCOVAL     1
CC0000072297175U202100000556437100000556437101/12/20212105     3300010239421964320000N03A0800001278440000000000000                                                                                LYRICA CAP 75 MG /R/CAP     1
CC0000072297175U202100000556437100000556437101/12/20211304     3300010239421964320000N2AA0100000301640000000000000                                                                            MORFINA Sln Iny 10 mg/mlAMP     1
CC0000072297175U202100000556437100000556437101/12/20212105     3300010239421964320000N02A3100001227160000000000000                                                                    OXYRAPID SLN INY 10 MG/ML X 1 MLAMP     1
