CC0001127927145H202100015052792400015052792401/12/20211830    3190318423742196425000011082700001620070000000000000                                                               EQUIPO SET PRIMARIO C/CLAVE REF 14001BOL     1
CC0001127927145H202100015052792400015052792401/12/20211830    3190318423742196425000001956000001620610000000000000                                                                      CONECTOR MICRO CLAVE LAT-MC100SOB     1
CC0000019068414H202100015052792400015052792401/12/20211830    3190318423742196425000001956000001620610000000000000                                                                      CONECTOR MICRO CLAVE LAT-MC100SOB     1
CC0001127927145H202100015052792400015052792401/12/20211830    31903184237421964250000Q1AA7200000610630000000000000                                                            CATETER PERIFE INTROCAN # 20G 4251644-04SIN     1
CC0000019068414H202100015052792400015052792401/12/20211830    31903184237421964250000Q1AA7300000610640000000000000                                                            CATETER PERIFE INTROCAN # 22G 4251628-04SIN     1
CC0001127927145H202100015052792400015052792401/12/20211830    31903184237421964250000Q1AA7400003911720000000000000                                                            CATETER PERIFE INTROCAN # 24G 4251601-04SOB     1
CC0000019068414H202100015052792400015052792401/12/20211830    31903184237421964250000Q1AA7400003911720000000000000                                                            CATETER PERIFE INTROCAN # 24G 4251601-04SOB     2
CC0000019068414H202100015052792400015052792401/12/20211830    3190318423742196425000016830000000970620000000000000                                                             SIST FIJACION CAT PERIFERICO 6.5X7 1683SOB     1
CC0000019068414H202100015052792400015052792401/12/20211830    31903184237421964250000E1AD0300000199490000000000000                                         LACTATO RINGER USP (HARTMANN)  SOL INY  BOL X 1000ML BAXTERBIN     1
CC0000019068414H202100015052792400015052792401/12/20211830    31903184237421964250000E1AD0200003888320000000000000                                                                              HARTMAN SLN INY 500 MLBOL     1
