RC0001042267521U202100050131877100050131877101/12/20212046    3150035523942196432000024673600000222980000000000000                                                                     JERINGA DESECHABLE 5 ml 27*11/2SIN     1
RC0001042267521U202100050131877100050131877101/12/20212046    3150035523942196432000001956000001620610000000000000                                                                      CONECTOR MICRO CLAVE LAT-MC100SOB     1
RC0001042267521U202100050131877100050131877101/12/20212046    31500355239421964320000Q1AA7400003911720000000000000                                                            CATETER PERIFE INTROCAN # 24G 4251601-04SOB     1
RC0001042267521U202100050131877100050131877101/12/20212046    3150035523942196432000000602600001259280000000000000                                                             APOSITO TEGADERM IV PD 1610 5CM X 5.7CMSOB     1
RC0001042267521U202100050131877100050131877101/12/20212046    31500355239421964320000E1AB1100003888280000000000000                                                                        SOLUCION SALINA 0.9% X 50 mlBOL     1
