CC0000012558189H202100000556449900000556449901/12/20211658     3300009237421964250000A02B0600001277230000000000000                                                                                NEXIUM Tab 40 mg /R/TAB     1
CC0000012558189H202100000556449900000556449901/12/20211658     3300009237421964250000A6AC0200001467010000000000000                                                             LACTULAX JARABE 66.7G/100ML SOX15ML /R/SOB     1
CC0000012558189H202100000556449900000556449901/12/20212223    31902796237421964250000E1AD0200003888320000000000000                                                                              HARTMAN SLN INY 500 MLBOL     1
CC0000012558189H202100000556449900000556449901/12/20211658     3300009237421964250000J01DA300001239950000000000000                                                            CEFAZOLINA SODICA POLVO LIOF SLN INY 1 GVAL     3
CC0000012558189H202100000556449900000556449901/12/20212223    31902796237421964250000E1BA0700000198910000000000000                                                                   UROMATIC Sln IRRIGACION X 3000 MLBIN     3
CC0000012558189H202100000556449900000556449901/12/20211658     3300009237421964250000N2BE2200001252930000000000000                                                                             ACETAMINOFEN Tab 500 MGTAB     5
CC0000012558189H202100000556449900000556449901/12/20211747    31901151237421964250000V07A1300000502600000000000000                                                                                AGUA ESTERIL x 10 mlAMP     8
