CC0000072125757H202100015032641400015032641401/12/20211059    3190297723742196425000043879100001138200000000000000                                                                  HOJA BISTURI # 15 CSSB 15 01002003SOB     1
CC0000007411998H202100015032641400015032641401/12/20211059    3190297723742196425000043879400001138170000000000000                                                                  HOJA BISTURI # 10 CSSB 10 01002000SOB     1
CC0000072125757H202100015032641400015032641401/12/20211059    3190297723742196425000043879400001138170000000000000                                                                  HOJA BISTURI # 10 CSSB 10 01002000SOB     1
CC0000022324853H202100015032641400015032641401/12/20211059    3190297723742196425000001956000001620610000000000000                                                                      CONECTOR MICRO CLAVE LAT-MC100SOB     1
TI0001134183559H202100015032641400015032641401/12/20211059    3190297723742196425000001956000001620610000000000000                                                                      CONECTOR MICRO CLAVE LAT-MC100SOB     1
CC0000022324853H202100015032641400015032641401/12/20211059    31902977237421964250000Q1AA7200000610630000000000000                                                            CATETER PERIFE INTROCAN # 20G 4251644-04SIN     1
CC0000022324853H202100015032641400015032641401/12/20211059    31902977237421964250000Q1AA7300000610640000000000000                                                            CATETER PERIFE INTROCAN # 22G 4251628-04SIN     1
TI0001134183559H202100015032641400015032641401/12/20211059    31902977237421964250000Q1AA7300000610640000000000000                                                            CATETER PERIFE INTROCAN # 22G 4251628-04SIN     1
TI0001134183559H202100015032641400015032641401/12/20211059    31902977237421964250000Q1AA7400003911720000000000000                                                            CATETER PERIFE INTROCAN # 24G 4251601-04SOB     1
CC0000022324853H202100015032641400015032641401/12/20211059    3190297723742196425000016830000000970620000000000000                                                             SIST FIJACION CAT PERIFERICO 6.5X7 1683SOB     1
TI0001134183559H202100015032641400015032641401/12/20211059    3190297723742196425000016830000000970620000000000000                                                             SIST FIJACION CAT PERIFERICO 6.5X7 1683SOB     1
