TI0001047050967H202100015122543600015122543601/12/20211537    3190330723742196425000013077800000471960000000000000                                                             GASA NO TEJIDA EST 7.5 X 7.5 SOB X 3 UNSOB    20
TI0001103512693H202100015122543600015122543601/12/20211537    3190330723742196425000042743200003929860000000000000                   GASA ADHESIVA STRETCH REF 02038-00 ROL X 10MT FIXOMULL 15CM BN EXENTO-DC.417/2020CMT    40
TI0001047050967H202100015122543600015122543601/12/20211537    31903307237421964250000B05B1400001012740000000000000                                                                SOLUCION SALINA 0.45% Sln Iny 500 mlBOL     2
TI0001103512693H202100015122543600015122543601/12/20211537    31903307237421964250000E1AD0300000199490000000000000                                         LACTATO RINGER USP (HARTMANN)  SOL INY  BOL X 1000ML BAXTERBIN     6
TI0001047050967H202100015122543600015122543601/12/20211537    31903307237421964250000E1AD0300000199490000000000000                                         LACTATO RINGER USP (HARTMANN)  SOL INY  BOL X 1000ML BAXTERBIN     6
RC0001063188076H202100015122543600015122543601/12/20211537    3190330723742196425000011156900000855840000000000000                                                            SENSOR /SPO2 TIPO LENGUETA AD REF 1798 UPZA     1
