CC0000053000433H202100000556442600000556442601/12/20211351     3300009237421964250000A4AD0200000202990000000000000                                                                     PLITICAN HCL Sln Iny 50 mg/2 mlAMP     2
CC0000053000433H202100000556442600000556442601/12/20211351     3300009237421964250000B1AB0200003939510000000000000                 ENOXAPARINA SODICA 40MG/0.4ML(100MG/ML) SOL INY INST CAJ X 2JERPREL X 0.4ML TECHDOWJRP     1
CC0000053000433H202100000556442600000556442601/12/20212222    31902796237421964250000E1AD0200003888320000000000000                                                                              HARTMAN SLN INY 500 MLBOL     1
CC0000053000433H202100000556442600000556442601/12/20211351     3300009237421964250000N02B1100001464120000000000000                                           PARACETAMOL EP 1000MG/100ML(10MG/ML) SOL INY  CAJ X 10FCOVAL     5
CC0000053000433H202100000556442600000556442601/12/20211351     3300009237421964250000N5BB0300000554910000000000000                                                                         HIDERAX SLN INY 100 MG/2 MLAMP     1
