CC0000022467890H202100000556435200000556435201/12/20211040     3300009237421964250000N2BB0200000513030000000000000                                                                           LISALGIL Sln Iny 2 g/5 mlAMP     1
CC0000022467890H202100000556435200000556435201/12/20211847     3300009237421964250000N02B1100001464120000000000000                                           PARACETAMOL EP 1000MG/100ML(10MG/ML) SOL INY  CAJ X 10FCOVAL     1
CC0000022467890H202100000556435200000556435201/12/20211041     3300009237421964250000N02B1100001464120000000000000                                           PARACETAMOL EP 1000MG/100ML(10MG/ML) SOL INY  CAJ X 10FCOVAL     1
CC0000022467890H202100000556435200000556435201/12/20211041     3300009237421964250000R5CB0300003841380000000000000                                                                     FLUIMUCIL SLN INY 300 MG X 3 MLAMP     1
CC0000022467890H202100000556435200000556435201/12/20211041     3300009237421964250000A09A0500001221080000000000000                                                                            GLUTAPAK 10 Polvo x 15 gSOB     2
CC0000022467890H202100000556435200000556435201/12/20211847     3300009237421964250000N2AA0200000301600000000000000                                                                        HIDROMORFONA Sln Iny 2 mg/mlAMP     1
CC0000022467890H202100000556435200000556435201/12/20211040     3300009237421964250000B01AB300000513340000000000000                                                                        CLENOX SLN INY 20 MG/ 0.2 MLJRP     1
CC0000022467890H202100000556435200000556435201/12/20211040     3300009237421964250000J01DD500001239970000000000000                                                                  CEFTRIAXONA POLVO LIOF SLN INY 1 GVAL     1
CC0000022467890H202100000556435200000556435201/12/20211847     3300009237421964250000J1KF0500001317760000000000000                                                                      MEROPENEM POLVO INY 500 MG /R/CAJ     3
CC0000022467890H202100000556435200000556435201/12/20211041     3300009237421964250000J01G0500001109560000000000000                                                                       AMIKACINA SLN INY 500 MG/2 MLAMP     1
CC0000022467890H202100000556435200000556435201/12/20211040     3300009237421964250000J01G0500001109560000000000000                                                                       AMIKACINA SLN INY 500 MG/2 MLAMP     1
CC0000022467890H202100000556435200000556435201/12/20211040     3300009237421964250000A02BC700001684270000000000000                                                            OMEPRAZOL 40MG POLVO LIOFILIZADO AMPOLLAVAL     1
