CC0000023167428H202100000556440200000556440201/12/20211228    31500192237421964250000A02BC100001677520000000000000                                                                ESOMEPRAZOL POLVO LIOF INY 40 MG /R/VAL     1
CC0000023167428H202100000556440200000556440201/12/20211228    31500192237421964250000A6AC0200001467010000000000000                                                             LACTULAX JARABE 66.7G/100ML SOX15ML /R/SOB     3
CC0000023167428H202100000556440200000556440201/12/20211228    31500192237421964250000B1AB0200003939510000000000000                 ENOXAPARINA SODICA 40MG/0.4ML(100MG/ML) SOL INY INST CAJ X 2JERPREL X 0.4ML TECHDOWJRP     1
CC0000023167428H202100000556440200000556440201/12/20211228    31500192237421964250000A11AA300001332860000000000000                                                                    ANEMIDOX Cap 330 MG /1 mg/100 MGCAP     1
CC0000023167428H202100000556440200000556440201/12/20211228    31500192237421964250000J3CB0200001333510000000000000                                                                                    CIPRO TAB 500 MGCOM     2
CC0000023167428H202100000556440200000556440201/12/20211228    31500192237421964250000N02B1100001464120000000000000                                           PARACETAMOL EP 1000MG/100ML(10MG/ML) SOL INY  CAJ X 10FCOVAL     4
CC0000023167428H202100000556440200000556440201/12/20211228    31500192237421964250000N03AX700001335170000000000000                                                                                LYRICA CAP 50 MG /R/CAP     1
CC0000023167428H202100000556440200000556440201/12/20211228    31500192237421964250000N05A0500001336370000000000000                                                                              SEROQUEL TAB 25 MG /R/TAB     1
CC0000023167428H202100000556440200000556440201/12/20211228    31500192237421964250000N7XA0100001277900000000000000                                                                                     ZOLOF TAB 50 MGTAB     1
