CE0001010121550A202100000027628800000027628826/10/20211903    31903336240421964190000A04A1400001467560000000000000                                                                      ONDANSETRON SLN INY 8 MG/ 4 MLVAL     1
CE0001010121550A202100000027628800000027628826/10/20211903    3190333624042196419000000901800000598580000000000000                                                                     MASCARA LARINGEA REUSABLE No. 4SIN     1
CE0001010121550A202100000027628800000027628826/10/20211903    31903336240421964190000E1BA0700000198910000000000000                                                                   UROMATIC Sln IRRIGACION X 3000 MLBIN     1
CE0001010121550A202100000027628800000027628826/10/20211903    3190333624042196419000011065300001196560000000000000                                                            STENT URETERAL UNIVERSAL REF USH-624 UNDPZA     1
CE0001010121550A202100000027628800000027628826/10/20211903    3190333624042196419000011082600000265810000000000000                                                              EQUIPO IRRIGACION URINARIA REF MRC4002SOB     1
CE0001010121550A202100000027628800000027628826/10/20211903    31903336240421964190000N1BA1900000554750000000000000                                                                     ROXICAINA JALEA 2% TUBO X 30 MLTUB     1
CE0001010121550A202100000027628800000027628826/10/20211903    3190333624042196419000022425200000548240000000000000                       EXTENSION DE ANESTESIA REF 1139 SOB X 1 SHERLEG  ADULTO BN EXENTO-DC.417/2020SIN     1
CE0001010121550A202100000027628800000027628826/10/20211903    3190333624042196419000035356500003919000000000000000                                                                                        LLAVE 3 VIASSOB     1
CE0001010121550A202100000027628800000027628826/10/20211903    3190333624042196419000022426800001140510000000000000                                                                    EQUIPO MACROGOTEO BAXTER MRC0001SOB     1
CE0001010121550A202100000027628800000027628826/10/20211903    3190333624042196419000016830000000970620000000000000                                                             SIST FIJACION CAT PERIFERICO 6.5X7 1683SOB     1
CE0001010121550A202100000027628800000027628826/10/20211903    31903336240421964190000J01DA300001239950000000000000                                                            CEFAZOLINA SODICA POLVO LIOF SLN INY 1 GVAL     2
CE0001010121550A202100000027628800000027628826/10/20211903    3190333624042196419000053074400000607910000000000000                                                               GASA ESTERIL 10*10 SOBRE X 3 UNIDADESSOB     3
CE0001010121550A202100000027628800000027628826/10/20211903    3190333624042196419000024673000001411210000000000000                                                                  JERINGA DESECHABLE 3 ML 21 X 1 1/2SOB     1
CE0001010121550A202100000027628800000027628826/10/20211903    3190333624042196419000024674000000220660000000000000                             JERINGA A 3 PARTES CON AGUJA  SOB X 1 RYMCO  10ML BN EXENTO-DC.417/2020SIN     3
CE0001010121550A202100000027628800000027628826/10/20211903    3190333624042196419000024674500000322810000000000000                                                                   JERINGA DESECHABLE 20 ml 21*1 1/2SIN     2
CE0001010121550A202100000027628800000027628826/10/20211903    3190333624042196419000011085200001585390000000000000                                                                       GUANTE QUIRURGICO TALLA 7 1/2SOB     2
CE0001010121550A202100000027628800000027628826/10/20211903    3190333624042196419000011085100001082120000000000000                                                                           GUANTE QUIRURGICO TALLA 7SOB     1
CE0001010121550A202100000027628800000027628826/10/20211903    3190333624042196419000043485100001618510000000000000                GUANTE QUIRURGICO DE LATEX REF 2D72N65X CAJ X 50 PROTEXIS  6.5 BN EXENTO-DC.417/2020SOB     1
CE0001010121550A202100000027628800000027628826/10/20211903    3190333624042196419000051515500000598160000000000000                                                                            MASCARILLA ANESTESIA # 5SIN     1
CE0001010121550A202100000027628800000027628826/10/20211903    31903336240421964190000E1AB0300003888390000000000000                                                            SOLUCION SALINA 0.9% SLN INY BO X 500 MLBOL     3
CE0001010121550A202100000027628800000027628826/10/20211903    31903336240421964190000E1AB0200000199290000000000000                                                            SOLUCION SALINA 0.9% SLN INY BO X 100 MLBIN     1
CE0001010121550A202100000027628800000027628826/10/20211903    31903336240421964190000E1AB0700003888350000000000000                                                            SOLUCION SALINA 0.9% SLN INY BO X 250 MLBOL     1
CE0001010121550A202100000027628800000027628826/10/20211903    31903336240421964190000M01A0400001341250000000000000                                                                              DYNASTAT AMP 40 MG /R/VAL     1
CE0001010121550A202100000027628800000027628826/10/20211903    31903336240421964190000A4AD0200000202990000000000000                                                                     PLITICAN HCL Sln Iny 50 mg/2 mlAMP     1
CE0001010121550A202100000027628800000027628826/10/20211903    31903336240421964190000A2BC0900000200150000000000000                                                                               ORAZOLE Sln Iny 40 mgCIN     1
CE0001010121550A202100000027628800000027628826/10/20211903    31903336240421964190000N2BB1100000217160000000000000                                                                      NOVALGINA Sln Iny 2.5 g x 5 mlAMP     1
CE0001010121550A202100000027628800000027628826/10/20211903    31903336240421964190000H02AB500001664950000000000000                                                            DEXAMETASONA SLN INY 8 MG/2 ML AMP /CDS/AMP     1
CE0001010121550A202100000027628800000027628826/10/20211903    31903336240421964190000N01A0400003939010000000000000                                               MAYOPROFOL 200MG/20ML(1%) EMUL INY CAJ X 1VIAL X 20MLVAL     1
