CC0001045686959H202100000554973300000554973326/10/20210835     3300010237421964250000B1AB1200003939350000000000000                 ENOXAPARINA SODICA 80MG/0.8ML(100MG/ML) SOL INY INST CAJ X 2JERPREL X 0.8ML TECHDOWJRP     1
CC0001045686959H202100000554973300000554973326/10/20210541    31500213237421964250000E1AB0200000199290000000000000                                                            SOLUCION SALINA 0.9% SLN INY BO X 100 MLBIN     2
CC0001045686959H202100000554973300000554973326/10/20210541    31500213237421964250000E1AB0300003888390000000000000                                                            SOLUCION SALINA 0.9% SLN INY BO X 500 MLBOL     3
CC0001045686959H202100000554973300000554973326/10/20210835     3300010237421964250000V6DF2000001629900000000000000                                                                     ENSURE PLUS HN LIQUIDO X 237 MLFCO     1
CC0001045686959H202100000554973300000554973326/10/20211548     3300010237421964250000L03AA100001067620000000000000                                                             ZARZIO SLN INY 30.000.000 UI/0.5 ML /R/JRP     1
CC0001045686959H202100000554973300000554973326/10/20210836     3300010237421964250000L03AA100001067620000000000000                                                             ZARZIO SLN INY 30.000.000 UI/0.5 ML /R/JRP     1
CC0001045686959H202100000554973300000554973326/10/20210835     3300010237421964250000J01D1200001239960000000000000                                                                              CEFEPIME POLVO INY 1 GVAL     4
CC0001045686959H202100000554973300000554973326/10/20210835     3300010237421964250000J05AB000001277780000000000000                                                                                ACICLOVIR TAB 200 MGTAB     1
CC0001045686959H202100000554973300000554973326/10/20211547     3300010237421964250000S01BA300000970730000000000000                                                                    OPHTHASONA SLN OFT 0.10 % X 5 MLFCO     1
CC0001045686959H202100000554973300000554973326/10/20210836     3300010237421964250000A02BC700001684270000000000000                                                            OMEPRAZOL 40MG POLVO LIOFILIZADO AMPOLLAVAL     1
CC0001045686959H202100000554973300000554973326/10/20211717    31500082237421964250000V07A1300000502600000000000000                                                                                AGUA ESTERIL x 10 mlAMP     5
CC0001045686959H202100000554973300000554973326/10/20210541    31500213237421964250000V07A1300000502600000000000000                                                                                AGUA ESTERIL x 10 mlAMP     3
