CC0001046266612U202100000554986000000554986026/10/20211314    31902712239421964320000E1AB0200000199290000000000000                                                            SOLUCION SALINA 0.9% SLN INY BO X 100 MLBIN     1
CC0001046266612U202100000554986000000554986026/10/20211216     3300004239421964320000M1AB4000000829860000000000000                                                                          MOBIC SLN INY 15 MG/1.5 MLAMP     1
CC0001046266612U202100000554986000000554986026/10/20211245     3300004239421964320000N01B0200003888110000000000000                                           ROXICAINA SE 100MG/10ML(1%) SOL INY CAJ X 24AMPACK X 10MLAPC     1
