RC0001043198450H202100000554975100000554975126/10/20211833    31903309237421964250000E1AB0200000199290000000000000                                                            SOLUCION SALINA 0.9% SLN INY BO X 100 MLBIN     1
RC0001043198450H202100000554975100000554975126/10/20210634    31902139237421964250000E1AB0200000199290000000000000                                                            SOLUCION SALINA 0.9% SLN INY BO X 100 MLBIN     1
RC0001043198450H202100000554975100000554975126/10/20211741     3300009237421964250000J01XA400001212420000000000000                                                               VANCOMICINA POLVO LIOF SLN INY 500 MGVAL     1
RC0001043198450H202100000554975100000554975126/10/20211208     3300010237421964250000J01XA400001212420000000000000                                                               VANCOMICINA POLVO LIOF SLN INY 500 MGVAL     1
RC0001043198450H202100000554975100000554975126/10/20210932     3300009237421964250000J01XA400001212420000000000000                                                               VANCOMICINA POLVO LIOF SLN INY 500 MGVAL     1
RC0001043198450H202100000554975100000554975126/10/20212152     3300009237421964250000R03AK100000827400000000000000                                                            BERODUAL INH ORAL 20/50 MCG/DOX200DO /R/FCO     1
RC0001043198450H202100000554975100000554975126/10/20211741     3300009237421964250000N2AA0100000301640000000000000                                                                            MORFINA Sln Iny 10 mg/mlAMP     1
RC0001043198450H202100000554975100000554975126/10/20211741     3300009237421964250000N3AA0500003889340000000000000                                                                       FENOBARBITAL SLN INY 40 MG/MLAMP     1
RC0001043198450H202100000554975100000554975126/10/20210932     3300009237421964250000N3AA0500003889340000000000000                                                                       FENOBARBITAL SLN INY 40 MG/MLAMP     1
RC0001043198450H202100000554975100000554975126/10/20211741     3300009237421964250000J1KF0500001317760000000000000                                                                      MEROPENEM POLVO INY 500 MG /R/CAJ     1
RC0001043198450H202100000554975100000554975126/10/20211208     3300010237421964250000J1KF0500001317760000000000000                                                                      MEROPENEM POLVO INY 500 MG /R/CAJ     1
RC0001043198450H202100000554975100000554975126/10/20210930     3300009237421964250000J1KF0500001317760000000000000                                                                      MEROPENEM POLVO INY 500 MG /R/CAJ     1
RC0001043198450H202100000554975100000554975126/10/20211828    31903309237421964250000V07A1300000502600000000000000                                                                                AGUA ESTERIL x 10 mlAMP     7
RC0001043198450H202100000554975100000554975126/10/20210634    31902139237421964250000V07A1300000502600000000000000                                                                                AGUA ESTERIL x 10 mlAMP     2
