RC0001041699033H202100015032576600015032576626/10/20211439    3150056623742196425000001956000001620610000000000000                                                                      CONECTOR MICRO CLAVE LAT-MC100SOB     2
RC0001041699033H202100015032576600015032576626/10/20211439    31500566237421964250000Q1AA7300000610640000000000000                                                            CATETER PERIFE INTROCAN # 22G 4251628-04SIN     1
RC0001041699033H202100015032576600015032576626/10/20211439    31500566237421964250000Q1AA7400003911720000000000000                                                            CATETER PERIFE INTROCAN # 24G 4251601-04SOB     1
RC0001041699033H202100015032576600015032576626/10/20211439    3150056623742196425000000602600001259280000000000000                                                             APOSITO TEGADERM IV PD 1610 5CM X 5.7CMSOB     2
