TI0001044214728H202100015022521900015022521926/10/20211722    3190326023742196425000001956000001620610000000000000                                                                      CONECTOR MICRO CLAVE LAT-MC100SOB     1
TI0001044214728H202100015022521900015022521926/10/20211722    31903260237421964250000Q1AA7200000610630000000000000                                                            CATETER PERIFE INTROCAN # 20G 4251644-04SIN     1
TI0001044214728H202100015022521900015022521926/10/20211722    3190326023742196425000016830000000970620000000000000                                                             SIST FIJACION CAT PERIFERICO 6.5X7 1683SOB     1
