CC0000019602756H202100915435102600915435102626/10/20212041    3190260623742196425000013077800000471960000000000000                                                             GASA NO TEJIDA EST 7.5 X 7.5 SOB X 3 UNSOB    10
CC0000019602756H202100915435102600915435102626/10/20212041    3190260623742196425000024674000000220660000000000000                             JERINGA A 3 PARTES CON AGUJA  SOB X 1 RYMCO  10ML BN EXENTO-DC.417/2020SIN     2
CC0000019602756H202100915435102600915435102626/10/20212041    3190260623742196425000024674500000322810000000000000                                                                   JERINGA DESECHABLE 20 ml 21*1 1/2SIN     6
CC0000019602756H202100915435102600915435102626/10/20212041    3190260623742196425000043485100001618510000000000000                GUANTE QUIRURGICO DE LATEX REF 2D72N65X CAJ X 50 PROTEXIS  6.5 BN EXENTO-DC.417/2020SOB     3
CC0000019602756H202100915435102600915435102626/10/20212041    31902606237421964250000Q1AA3500001166520000000000000                                                            AGUJA ASPIRADO MEDULA 16 X 2.5 DBMNI1601PZA     1
CC0000019602756H202100915435102600915435102626/10/20212041    3190260623742196425000000100300000530750000000000000                                                            AGUJA BIOPSIA  OSEA  DBMNJ0804TL  8G X 4SIN     1
