CC0001047479947H202100000554980600000554980626/10/20210938    31901015237421964250000J01DA300001239950000000000000                                                            CEFAZOLINA SODICA POLVO LIOF SLN INY 1 GVAL     3
CC0001047479947H202100000554980600000554980626/10/20210938    31901015237421964250000J01GB500000552920000000000000                                                                       AMIKACINA SLN INY 500 MG/2 MLAMP     2
CC0001047479947H202100000554980600000554980626/10/20210938    31901015237421964250000A03BB100003889180000000000000                                      HIOSCINA BUTIL BROMURO 20MG/ML SOL INY CAJ X 100AMP X 1ML RYANAMP     3
CC0001047479947H202100000554980600000554980626/10/20210938    31901015237421964250000N2BB0100000787510000000000000                                                                    DIPIRONA SODICA Sln Iny 1 g/2 mlAMP     2
