CC0000032894571H202100015032577400015032577426/10/20212221    31500460237421964250000E1AD0300000199490000000000000                                         LACTATO RINGER USP (HARTMANN)  SOL INY  BOL X 1000ML BAXTERBIN     2
CC0000064541334H202100015032577400015032577426/10/20212221    31500460237421964250000E1AD0300000199490000000000000                                         LACTATO RINGER USP (HARTMANN)  SOL INY  BOL X 1000ML BAXTERBIN     2
RC0001146540735H202100015032577400015032577426/10/20212221    31500460237421964250000E1AD0200003888320000000000000                                                                              HARTMAN SLN INY 500 MLBOL     2
CC0001143446873H202100015032577400015032577426/10/20212221    31500460237421964250000E1AD0200003888320000000000000                                                                              HARTMAN SLN INY 500 MLBOL     2
CC0001124380286H202100015032577400015032577426/10/20212221    31500460237421964250000E1AB0300003888390000000000000                                                            SOLUCION SALINA 0.9% SLN INY BO X 500 MLBOL     1
CC0000000162131H202100015032577400015032577426/10/20212221    31500460237421964250000E1AB0300003888390000000000000                                                            SOLUCION SALINA 0.9% SLN INY BO X 500 MLBOL     1
CC0000009084021H202100015032577400015032577426/10/20212221    31500460237421964250000E1AB0300003888390000000000000                                                            SOLUCION SALINA 0.9% SLN INY BO X 500 MLBOL     1
