RC0001146543698H202100000554963100000554963126/10/20211511     3300010237421964250000A2BC0900000200150000000000000                                                                               ORAZOLE Sln Iny 40 mgCIN     1
RC0001146543698H202100000554963100000554963126/10/20211809     3300009237421964250000B02AA100001407470000000000000                                                                    CLINTRANEX SLN INY 500 MG / 5 MLAMP     2
RC0001146543698H202100000554963100000554963126/10/20211044    31903307237421964250000E1AB1100003888280000000000000                                                                        SOLUCION SALINA 0.9% X 50 mlBOL     2
RC0001146543698H202100000554963100000554963126/10/20212350    31900934237421964250000E1AD0300000199490000000000000                                         LACTATO RINGER USP (HARTMANN)  SOL INY  BOL X 1000ML BAXTERBIN     1
RC0001146543698H202100000554963100000554963126/10/20211044    31903307237421964250000E1AD0300000199490000000000000                                         LACTATO RINGER USP (HARTMANN)  SOL INY  BOL X 1000ML BAXTERBIN     2
RC0001146543698H202100000554963100000554963126/10/20211511     3300010237421964250000N2BB0500000217140000000000000                                                                          NOVALGINA Sln Iny 1 g/2 mlAMP     1
RC0001146543698H202100000554963100000554963126/10/20210631     3300010237421964250000N2BB0500000217140000000000000                                                                          NOVALGINA Sln Iny 1 g/2 mlAMP     1
RC0001146543698H202100000554963100000554963126/10/20210033     3300010237421964250000N2BB0500000217140000000000000                                                                          NOVALGINA Sln Iny 1 g/2 mlAMP     1
RC0001146543698H202100000554963100000554963126/10/20211511     3300010237421964250000N3AB0700000554770000000000000                                                                          EPAMIN Sln Iny 250 mg/5 mlAMP     1
RC0001146543698H202100000554963100000554963126/10/20210033     3300010237421964250000N3AB0700000554770000000000000                                                                          EPAMIN Sln Iny 250 mg/5 mlAMP     1
RC0001146543698H202100000554963100000554963126/10/20211535    31903307237421964250000B5BC0100003889300000000000000                                                                        MANITOL SLN INY 20% X 500 MLBOL     1
