CC0000008710257A202100000027624400000027624426/10/20211832    31903336240421964190000N1BA2400001195280000000000000                                                                    LIDOCAINA 2% S/E Sln Iny x 10 mlAMP     1
CC0000008710257A202100000027624400000027624426/10/20211832    3190333624042196419000074731700000314790000000000000                                                                               PDS 2-0 SH 70 PDP317HSOB     1
CC0000008710257A202100000027624400000027624426/10/20211832    31903336240421964190000J1CB0600000468340000000000000                                                           UNASYN IM-IV (1+0.5)GR POLV INY INST VIALVAL     1
CC0000008710257A202100000027624400000027624426/10/20211832    3190333624042196419000000016100000314040000000000000                                                                ESPONJA HEMOSTATICA  GELFOAM ESPONJABOL     1
CC0000008710257A202100000027624400000027624426/10/20211832    31903336240421964190000V03A2300000865410000000000000                                                                         BRIDION Sln Iny 200 mg/2 mlVAL     1
CC0000008710257A202100000027624400000027624426/10/20211832    3190333624042196419000045136100001419300000000000000                                                                            LANCETA DEXTROMETER X UNPZA     1
CC0000008710257A202100000027624400000027624426/10/20211832    3190333624042196419000011137100001419310000000000000                                                               TIRA GLUCOMETRIA FREESTYLE H OPTIUM .PZA     1
CC0000008710257A202100000027624400000027624426/10/20211832    3190333624042196419000049059800000267410000000000000                                                                 MEDIA ANTIEMBOLICA TAL L 3634LF PARBOL     1
CC0000008710257A202100000027624400000027624426/10/20211832    31903336240421964190000N01B1300001195250000000000000                                                                         BUPIROP 0.5% S/EPIN X 10 MLAMP     2
CC0000008710257A202100000027624400000027624426/10/20211832    3190333624042196419000001202200001460380000000000000                                                             CANULA UNIVERSA  5X100MM REF UNIVCA5STFSOB     1
CC0000008710257A202100000027624400000027624426/10/20211832    3190333624042196419000042598600000296640000000000000                                                              ENDO SHEARS/TIJERA LAPAROSCOPIA 176643PZA     1
CC0000008710257A202100000027624400000027624426/10/20211832    31903336240421964190000K0050500000577650000000000000                                                                                  LIGAMAX 5 MM EL5MLSIN     1
CC0000008710257A202100000027624400000027624426/10/20211832    3190333624042196419000011081500001119460000000000000                                                               ENDOBAG SPECIMEN RETRIEV RF 25040 5X8PZA     1
CC0000008710257A202100000027624400000027624426/10/20211832    3190333624042196419000000016500000223580000000000000                                                                    STERI-STRIP 12 X 100 REF 1547 3MSIN     1
CC0000008710257A202100000027624400000027624426/10/20211832    3190333624042196419000011082600000265810000000000000                                                              EQUIPO IRRIGACION URINARIA REF MRC4002SOB     1
CC0000008710257A202100000027624400000027624426/10/20211832    3190333624042196419000045138000001413890000000000000                                                                       LAPIZ ELECTROBISTURI  SOB X 1SOB     1
CC0000008710257A202100000027624400000027624426/10/20211832    31903336240421964190000N1BA0300000217900000000000000                                                                    BUPIROP 0.5% C/E Sln Iny x 20 mlVAL     1
CC0000008710257A202100000027624400000027624426/10/20211832    3190333624042196419000013077800000471960000000000000                                                             GASA NO TEJIDA EST 7.5 X 7.5 SOB X 3 UNSOB     1
CC0000008710257A202100000027624400000027624426/10/20211832    3190333624042196419000030161400001459220000000000000                                                                       MANGUERA SUCCION 6 MM*3.1 MTSSOB     1
CC0000008710257A202100000027624400000027624426/10/20211832    3190333624042196419000043879200001138180000000000000                                                                                   HOJA BISTURI # 11SOB     1
CC0000008710257A202100000027624400000027624426/10/20211832    3190333624042196419000022425200000548240000000000000                       EXTENSION DE ANESTESIA REF 1139 SOB X 1 SHERLEG  ADULTO BN EXENTO-DC.417/2020SIN     1
CC0000008710257A202100000027624400000027624426/10/20211832    3190333624042196419000035356500003919000000000000000                                                                                        LLAVE 3 VIASSOB     2
CC0000008710257A202100000027624400000027624426/10/20211832    31903336240421964190000Q1AA7100000610620000000000000                                                            CATETER PERIFE INTROCAN # 18G 4251687-04SIN     3
CC0000008710257A202100000027624400000027624426/10/20211832    3190333624042196419000022426800001140510000000000000                                                                    EQUIPO MACROGOTEO BAXTER MRC0001SOB     1
CC0000008710257A202100000027624400000027624426/10/20211832    3190333624042196419000016830000000970620000000000000                                                             SIST FIJACION CAT PERIFERICO 6.5X7 1683SOB     1
CC0000008710257A202100000027624400000027624426/10/20211832    31903336240421964190000J01DA300001239950000000000000                                                            CEFAZOLINA SODICA POLVO LIOF SLN INY 1 GVAL     2
CC0000008710257A202100000027624400000027624426/10/20211832    3190333624042196419000011073300001096420000000000000                                                                BOLSA DE SUCCION DE FLUIDOS x 2500mLBOL     1
CC0000008710257A202100000027624400000027624426/10/20211832    3190333624042196419000020750600000296780000000000000                                                                PLACA ELECTRO RETORNO PACIENTE E7506SIN     1
CC0000008710257A202100000027624400000027624426/10/20211832    3190333624042196419000011082700001620070000000000000                                                               EQUIPO SET PRIMARIO C/CLAVE REF 14001BOL     1
CC0000008710257A202100000027624400000027624426/10/20211832    3190333624042196419000053074400000607910000000000000                                                               GASA ESTERIL 10*10 SOBRE X 3 UNIDADESSOB     2
CC0000008710257A202100000027624400000027624426/10/20211832    3190333624042196419000011085400001083360000000000000                                                                       GUANTE QUIRURGICO TALLA 8 1/2SOB     1
CC0000008710257A202100000027624400000027624426/10/20211832    3190333624042196419000011085300001082140000000000000                                                                           GUANTE QUIRURGICO TALLA 8SOB     1
CC0000008710257A202100000027624400000027624426/10/20211832    3190333624042196419000011085200001585390000000000000                                                                       GUANTE QUIRURGICO TALLA 7 1/2SOB     1
CC0000008710257A202100000027624400000027624426/10/20211832    3190333624042196419000011085100001082120000000000000                                                                           GUANTE QUIRURGICO TALLA 7SOB     1
CC0000008710257A202100000027624400000027624426/10/20211832    3190333624042196419000043485100001618510000000000000                GUANTE QUIRURGICO DE LATEX REF 2D72N65X CAJ X 50 PROTEXIS  6.5 BN EXENTO-DC.417/2020SOB     5
CC0000008710257A202100000027624400000027624426/10/20211832    3190333624042196419000051515500000598160000000000000                                                                            MASCARILLA ANESTESIA # 5SIN     1
CC0000008710257A202100000027624400000027624426/10/20211832    3190333624042196419000038568100000258050000000000000                                                                         CANULA OXIGENO NASAL ADULTOSIN     1
CC0000008710257A202100000027624400000027624426/10/20211832    3190333624042196419000011099300000777780000000000000                                                                     FILTRO BACTERIANO VIRICO ADULTOBOL     2
CC0000008710257A202100000027624400000027624426/10/20211832    3190333624042196419000001200400000530690000000000000                                                                          CANULA DE MAYO # 5 (100MM)SIN     1
CC0000008710257A202100000027624400000027624426/10/20211832    3190333624042196419000039175100001072060000000000000                                                                           TUBO ENDOTRAQUEAL C/B 7.5SOB     1
CC0000008710257A202100000027624400000027624426/10/20211832    3190333624042196419000024673000001411210000000000000                                                                  JERINGA DESECHABLE 3 ML 21 X 1 1/2SOB     2
CC0000008710257A202100000027624400000027624426/10/20211832    3190333624042196419000024674000000220660000000000000                             JERINGA A 3 PARTES CON AGUJA  SOB X 1 RYMCO  10ML BN EXENTO-DC.417/2020SIN     5
CC0000008710257A202100000027624400000027624426/10/20211832    3190333624042196419000024674500000322810000000000000                                                                   JERINGA DESECHABLE 20 ml 21*1 1/2SIN     2
CC0000008710257A202100000027624400000027624426/10/20211832    31903336240421964190000E1AB0500003888400000000000000                                                              SOLUCION SALINA 0.9% SLN INY X 1000 MLBOL     1
CC0000008710257A202100000027624400000027624426/10/20211832    31903336240421964190000E1AB0300003888390000000000000                                                            SOLUCION SALINA 0.9% SLN INY BO X 500 MLBOL     6
CC0000008710257A202100000027624400000027624426/10/20211832    31903336240421964190000E1AB0700003888350000000000000                                                            SOLUCION SALINA 0.9% SLN INY BO X 250 MLBOL     1
CC0000008710257A202100000027624400000027624426/10/20211832    31903336240421964190000E1AB0200000199290000000000000                                                            SOLUCION SALINA 0.9% SLN INY BO X 100 MLBIN     1
CC0000008710257A202100000027624400000027624426/10/20211832    31903336240421964190000A04A1400001467560000000000000                                                                      ONDANSETRON SLN INY 8 MG/ 4 MLVAL     1
CC0000008710257A202100000027624400000027624426/10/20211832    31903336240421964190000N02B1100001169680000000000000                              PARACETAMOL 1000MG/100ML(10MG/ML) SOL INY  VIAL X 100ML FRESENIUS KABIVAL     1
CC0000008710257A202100000027624400000027624426/10/20211832    31903336240421964190000A3BB0200000512940000000000000                                                                          BUSCAPINA SIMPLE Iny 20 mgAMP     1
CC0000008710257A202100000027624400000027624426/10/20211832    31903336240421964190000M1AX0200001569410000000000000                                                                         KETRON SLN INY 30 MG / 2 MLAMP     1
CC0000008710257A202100000027624400000027624426/10/20211832    31903336240421964190000N01A0400003939010000000000000                                               MAYOPROFOL 200MG/20ML(1%) EMUL INY CAJ X 1VIAL X 20MLVAL     1
CC0000008710257A202100000027624400000027624426/10/20211832    31903336240421964190000S2BA0100000468160000000000000                                                                          SOLU-CORTEF SNL INY 100 MGVAL     1
CC0000008710257A202100000027624400000027624426/10/20211832    31903336240421964190000A03F0300001626860000000000000                                                                   METOCLOPRAMIDA SLN INY 10 MG/2 MLAMP     1
CC0000008710257A202100000027624400000027624426/10/20211832    31903336240421964190000N2BB1100000217160000000000000                                                                      NOVALGINA Sln Iny 2.5 g x 5 mlAMP     1
CC0000008710257A202100000027624400000027624426/10/20211832    31903336240421964190000C01C0300001261020000000000000                                                               ETILEFRINA HCL SLN INY 10 MG/1 ML /R/AMP     1
CC0000008710257A202100000027624400000027624426/10/20211832    31903336240421964190000M3AC0600000720540000000000000                                                                         ESMERON SLN INY 50 MG /5 MLVAL     1
CC0000008710257A202100000027624400000027624426/10/20211832    31903336240421964190000N2AA0700001587170000000000000                                                                                 ULTIVA Sln Iny 2 mgVAL     1
