NV0000169331975H202100015132502000015132502026/10/20211733    3190222523742196425000011059500001646260000000000000                                                              RESUCITADOR MANUAL NEONATAL LMI86-8086BOL     1
NV0000169331975H202100015132502000015132502026/10/20211733    3190222523742196425000043995200000229010000000000000                                                               HUMIDIFICADOR PARA OXIGENO REF. H001BBOL     1
NV0000169331975H202100015132502000015132502026/10/20211733    31902225237421964250000Q1A14600000258030000000000000                                                                     CANULA OXIGENO NEONATAL GAFITASSIN     1
NV0000169331975H202100015132502000015132502026/10/20211733    31902225237421964250000E1BA0100000198890000000000000                                                                   AGUA ESTERIL USP SLN INY X 500 MLBIN     1
