CC0000008565480H202100000554964900000554964926/10/20211920     3300009237421964250000B1AB0200003939510000000000000                 ENOXAPARINA SODICA 40MG/0.4ML(100MG/ML) SOL INY INST CAJ X 2JERPREL X 0.4ML TECHDOWJRP     1
CC0000008565480H202100000554964900000554964926/10/20210523     3300009237421964250000B1AB0200003939510000000000000                 ENOXAPARINA SODICA 40MG/0.4ML(100MG/ML) SOL INY INST CAJ X 2JERPREL X 0.4ML TECHDOWJRP     1
CC0000008565480H202100000554964900000554964926/10/20210915    31903239237421964250000E1AB0200000199290000000000000                                                            SOLUCION SALINA 0.9% SLN INY BO X 100 MLBIN     1
CC0000008565480H202100000554964900000554964926/10/20210108    31901177237421964250000E1AB0300003888390000000000000                                                            SOLUCION SALINA 0.9% SLN INY BO X 500 MLBOL     1
CC0000008565480H202100000554964900000554964926/10/20210523     3300009237421964250000A12BA100000552980000000000000                                                            CLORURO POTASIO Sln Iny AMP 20 MEQ/10 MLAMP     7
CC0000008565480H202100000554964900000554964926/10/20210522     3300009237421964250000A11A2600000303300000000000000                                                                 GLUCERNA LIQUIDO 1.0 KCAL X 1500 MLFCO     1
CC0000008565480H202100000554964900000554964926/10/20211354     3300009237421964250000C03C0100001672000000000000000                                                                       FUROSEMIDA SLN INY 20 MG/2 MLAMP     1
CC0000008565480H202100000554964900000554964926/10/20210524     3300009237421964250000C03C0100001672000000000000000                                                                       FUROSEMIDA SLN INY 20 MG/2 MLAMP     1
CC0000008565480H202100000554964900000554964926/10/20210523     3300009237421964250000C03C0100001672000000000000000                                                                       FUROSEMIDA SLN INY 20 MG/2 MLAMP     1
CC0000008565480H202100000554964900000554964926/10/20211744     3300009237421964250000N03AX600001334940000000000000                                                                        LEVETIRACETAM TAB 500 MG /R/TAB     1
CC0000008565480H202100000554964900000554964926/10/20210523     3300009237421964250000N03AX600001334940000000000000                                                                        LEVETIRACETAM TAB 500 MG /R/TAB     1
CC0000008565480H202100000554964900000554964926/10/20210524     3300009237421964250000A02BC700001684270000000000000                                                            OMEPRAZOL 40MG POLVO LIOFILIZADO AMPOLLAVAL     1
CC0000008565480H202100000554964900000554964926/10/20211821    31903331237421964250000V07A1300000502600000000000000                                                                                AGUA ESTERIL x 10 mlAMP     5
