CC0000022524504U202100050131377400050131377426/10/20211156    3190280023942196432000001956000001620610000000000000                                                                      CONECTOR MICRO CLAVE LAT-MC100SOB     1
CC0000022524504U202100050131377400050131377426/10/20211156    31902800239421964320000Q1AA7300000610640000000000000                                                            CATETER PERIFE INTROCAN # 22G 4251628-04SIN     1
CC0000022524504U202100050131377400050131377426/10/20211156    3190280023942196432000016830000000970620000000000000                                                             SIST FIJACION CAT PERIFERICO 6.5X7 1683SOB     1
