CC0001143114979H202100015052697000015052697026/10/20212102    3190318423742196425000001956000001620610000000000000                                                                      CONECTOR MICRO CLAVE LAT-MC100SOB     1
CC0001001856175H202100015052697000015052697026/10/20212102    3190318423742196425000001956000001620610000000000000                                                                      CONECTOR MICRO CLAVE LAT-MC100SOB     1
CC0001046275671H202100015052697000015052697026/10/20212102    3190318423742196425000001956000001620610000000000000                                                                      CONECTOR MICRO CLAVE LAT-MC100SOB     1
CC0001143114979H202100015052697000015052697026/10/20212102    3190318423742196425000030936900001431840000000000000                                                                                              BURETABOL     1
CC0001143114979H202100015052697000015052697026/10/20212102    31903184237421964250000E1AD0300000199490000000000000                                         LACTATO RINGER USP (HARTMANN)  SOL INY  BOL X 1000ML BAXTERBIN     1
