CC0000032632681H202100015042506700015042506726/10/20210321    3190100923742196425000039176200000325450000000000000                                                             TUBO ENDOTRAQ 7.5 C/B Y ESPIRAL INTERNOSIN     1
CC0000032632681H202100015042506700015042506726/10/20210321    3190100923742196425000039176700001029620000000000000                                                                    SUJETADOR TUBO ENDOTRAQUEAL 9799SOB     1
CC0000085450634H202100015042506700015042506726/10/20210321    3190100923742196425000039176700001029620000000000000                                                                    SUJETADOR TUBO ENDOTRAQUEAL 9799SOB     1
CC0000032632681H202100015042506700015042506726/10/20210321    3190100923742196425000010252000003981620000000000000                                                            RESUCITADOR MANUAL ADULTO BE - 2503 AMBUBOL     1
