CC0000072288220U202100000555003300000555003326/10/20212352     3300004239421964320000A7DA0100001303560000000000000                                                                                 LOPERAMIDA TAB 2 MGTAB     1
CC0000072288220U202100000555003300000555003326/10/20212352     3300004239421964320000A03F0500001692520000000000000                                                                   ALIZAPRIDA HCL SLN INY 50 MG/2 MLAMP     1
CC0000072288220U202100000555003300000555003326/10/20212352     3300004239421964320000A03BB100003889180000000000000                                      HIOSCINA BUTIL BROMURO 20MG/ML SOL INY CAJ X 100AMP X 1ML RYANAMP     1
CC0000072288220U202100000555003300000555003326/10/20212352     3300004239421964320000A02BC700001684270000000000000                                                            OMEPRAZOL 40MG POLVO LIOFILIZADO AMPOLLAVAL     1
