CC0000051622521H202100000554970800000554970826/10/20210525     3300010237421964250000A02B0500001335110000000000000                                                                                LOSEC MUPS Tab 20 mgTAB     1
CC0000051622521H202100000554970800000554970826/10/20210525     3300010237421964250000B1AB0200003939510000000000000                 ENOXAPARINA SODICA 40MG/0.4ML(100MG/ML) SOL INY INST CAJ X 2JERPREL X 0.4ML TECHDOWJRP     1
CC0000051622521H202100000554970800000554970826/10/20211717    31902335237421964250000E1AB0300003888390000000000000                                                            SOLUCION SALINA 0.9% SLN INY BO X 500 MLBOL     3
CC0000051622521H202100000554970800000554970826/10/20211832     3300009237421964250000H03AA400001315380000000000000                                                                               SYNTHROID TAB 100 MCGTAB     1
CC0000051622521H202100000554970800000554970826/10/20210525     3300010237421964250000H03AA400001315380000000000000                                                                               SYNTHROID TAB 100 MCGTAB     1
CC0000051622521H202100000554970800000554970826/10/20210525     3300010237421964250000J01FF200003888100000000000000                                                                             EUROCLIN SLN INY 600 MGAMP     2
CC0000051622521H202100000554970800000554970826/10/20210525     3300010237421964250000N05AH400001447710000000000000                                                                              PROLANZ FAST TAB 10 MGTAB     1
CC0000051622521H202100000554970800000554970826/10/20211832     3300009237421964250000N06A0300001304010000000000000                                                                               REMERON Tab 30 mg /R/TAB     1
CC0000051622521H202100000554970800000554970826/10/20210526     3300010237421964250000V06D1400000968430000000000000                                                                              JEVITY iquido x 500 mlFCO     1
