RC0001043196370U202100050131375000050131375026/10/20210944    3150058923942196432000011048600000223020000000000000                                                                 JERINGA VACUNACION 3ML C/AGU 302542SIN     2
TI0001042848386U202100050131375000050131375026/10/20210944    3150058923942196432000024674000000220660000000000000                             JERINGA A 3 PARTES CON AGUJA  SOB X 1 RYMCO  10ML BN EXENTO-DC.417/2020SIN     2
RC0001043196370U202100050131375000050131375026/10/20210944    3150058923942196432000024673600000222980000000000000                                                                     JERINGA DESECHABLE 5 ml 27*11/2SIN     3
RC0001043196370U202100050131375000050131375026/10/20210944    3150058923942196432000011088900001318270000000000000                                                               GUANTE CIRUGIA NITRILO ALFASAFE 7 1/2SOB     5
RC0001043196370U202100050131375000050131375026/10/20210944    3150058923942196432000053074400000607910000000000000                                                               GASA ESTERIL 10*10 SOBRE X 3 UNIDADESSOB     5
TI0001042848386U202100050131375000050131375026/10/20210944    31500589239421964320000E1AC0100000199400000000000000                                                                          SUERO MIXTO Sln Iny 500 mlBIN     1
