RC0001146542960H202100000554969900000554969926/10/20211759    31903308237421964250000E1AB0200000199290000000000000                                                            SOLUCION SALINA 0.9% SLN INY BO X 100 MLBIN     4
RC0001146542960H202100000554969900000554969926/10/20210506    31900630237421964250000E1AB0500003888400000000000000                                                              SOLUCION SALINA 0.9% SLN INY X 1000 MLBOL     1
RC0001146542960H202100000554969900000554969926/10/20211109    31903272237421964250000E1AD0300000199490000000000000                                         LACTATO RINGER USP (HARTMANN)  SOL INY  BOL X 1000ML BAXTERBIN     1
RC0001146542960H202100000554969900000554969926/10/20211821     3300009237421964250000D06AX100001192800000000000000                                                                    FUCIDIN CREMA 2% TUBO X 15 G /R/TUB     1
RC0001146542960H202100000554969900000554969926/10/20211821     3300009237421964250000J01D1300001469600000000000000                                                                               POZINEG POLVO INY 1 GVAL     1
RC0001146542960H202100000554969900000554969926/10/20211716     3300009237421964250000J01D1300001469600000000000000                                                                               POZINEG POLVO INY 1 GVAL     3
RC0001146542960H202100000554969900000554969926/10/20210721     3300009237421964250000L1BC1300000304160000000000000                                                                        NEUPOGEN Sln iny 300 mcg /R/JRP     1
RC0001146542960H202100000554969900000554969926/10/20211716     3300009237421964250000N02B1100001169680000000000000                              PARACETAMOL 1000MG/100ML(10MG/ML) SOL INY  VIAL X 100ML FRESENIUS KABIVAL     1
