RC0001046723141H202100000554976900000554976926/10/20212239     3300010237421964250000V06C1000000303870000000000000                                                                    PEPTAMEN JUNIOR Liquido x 250 MLLAT     1
RC0001046723141H202100000554976900000554976926/10/20211126    31500519237421964250000E1AC0100000199400000000000000                                                                          SUERO MIXTO Sln Iny 500 mlBIN     1
RC0001046723141H202100000554976900000554976926/10/20211126    31500519237421964250000E1AD0300000199490000000000000                                         LACTATO RINGER USP (HARTMANN)  SOL INY  BOL X 1000ML BAXTERBIN     1
RC0001046723141H202100000554976900000554976926/10/20210713     3300010237421964250000J02A0200000191070000000000000                                                            CANCIDAS POLVO LIOF SLN INY AMP 50MG /R/VAL     1
RC0001046723141H202100000554976900000554976926/10/20212239     3300010237421964250000N03AX200001063780000000000000                                                                      KEPPRA SLN INY 500 MG/5 ML /R/VAL     1
RC0001046723141H202100000554976900000554976926/10/20210713     3300010237421964250000N03AX200001063780000000000000                                                                      KEPPRA SLN INY 500 MG/5 ML /R/VAL     1
RC0001046723141H202100000554976900000554976926/10/20212239     3300010237421964250000N2BB0100000787510000000000000                                                                    DIPIRONA SODICA Sln Iny 1 g/2 mlAMP     2
RC0001046723141H202100000554976900000554976926/10/20210713     3300010237421964250000N2BB0100000787510000000000000                                                                    DIPIRONA SODICA Sln Iny 1 g/2 mlAMP     2
RC0001046723141H202100000554976900000554976926/10/20210713     3300010237421964250000A02BC700001684270000000000000                                                            OMEPRAZOL 40MG POLVO LIOFILIZADO AMPOLLAVAL     1
