RC0001041702796A202100000027627300000027627326/10/20210838    3190333624042196419000018351700000232890000000000000                                                                                SEDA 3-0 FS1 45 184TSIN     1
RC0001041702796A202100000027627300000027627326/10/20210838    3190333624042196419000020058100001101630000000000000                                                                     AGUJA HIPODERMICA DESECH 23 X 1SOB     2
RC0001041702796A202100000027627300000027627326/10/20210838    3190333624042196419000027292100000224750000000000000                                                                                  AGUJA PERICAN G-18SIN     1
RC0001041702796A202100000027627300000027627326/10/20210838    3190333624042196419000017575000000232660000000000000                                                                             PROLENE 3-0 SH/SH 8522TSIN     1
RC0001041702796A202100000027627300000027627326/10/20210838    3190333624042196419000017574600000232670000000000000                                                                               PROLENE 4-0 2RB1 9557SIN     1
RC0001041702796A202100000027627300000027627326/10/20210838    31903336240421964190000N02B1100001169680000000000000                              PARACETAMOL 1000MG/100ML(10MG/ML) SOL INY  VIAL X 100ML FRESENIUS KABIVAL     1
RC0001041702796A202100000027627300000027627326/10/20210838    3190333624042196419000011059900000853370000000000000                                                            SENSOR PULSOX ADH LNCS PINE 462329 NEONASOB     1
RC0001041702796A202100000027627300000027627326/10/20210838    3190333624042196419000039173700001618470000000000000                                                                           TUBO ENDOTRAQUEAL S/B 3.0SOB     1
RC0001041702796A202100000027627300000027627326/10/20210838    31903336240421964190000M03AB100001371510000000000000                                                            ADECUAC SUCCINILCOLINA  100mg/mL SOL INYVAL     1
RC0001041702796A202100000027627300000027627326/10/20210838    3190333624042196419000025007100001670720000000000000                                                                     DERMABOND AHESIVO ETHICON 0.5MLCAR     1
RC0001041702796A202100000027627300000027627326/10/20210838    3190333624042196419000000100800000223140000000000000                                                                       AGUJA DESECHABLE 23G X 1 PULGSIN     1
RC0001041702796A202100000027627300000027627326/10/20210838    3190333624042196419000024672100001609890000000000000                                                            JERINGA INSULINA 1ML TAPA NARANJA JEI013SOB     1
RC0001041702796A202100000027627300000027627326/10/20210838    31903336240421964190000D03A0300000213220000000000000                                                                        FITOSTIMOLINE CREMA 15% 32 GTUB     1
RC0001041702796A202100000027627300000027627326/10/20210838    3190333624042196419000045138000001413890000000000000                                                                       LAPIZ ELECTROBISTURI  SOB X 1SOB     1
RC0001041702796A202100000027627300000027627326/10/20210838    3190333624042196419000029958600000879890000000000000                                                                              PDS 6-0 2C1 75 PDP127HSOB     1
RC0001041702796A202100000027627300000027627326/10/20210838    3190333624042196419000019489000000599330000000000000                                                                           VICRYL 4-0 RB1 70 VCP304HSIN     2
RC0001041702796A202100000027627300000027627326/10/20210838    3190333624042196419000043879200001138180000000000000                                                                                   HOJA BISTURI # 11SOB     1
RC0001041702796A202100000027627300000027627326/10/20210838    3190333624042196419000043879100001138200000000000000                                                                  HOJA BISTURI # 15 CSSB 15 01002003SOB     1
RC0001041702796A202100000027627300000027627326/10/20210838    3190333624042196419000022425200000548240000000000000                       EXTENSION DE ANESTESIA REF 1139 SOB X 1 SHERLEG  ADULTO BN EXENTO-DC.417/2020SIN     1
RC0001041702796A202100000027627300000027627326/10/20210838    3190333624042196419000035356500003919000000000000000                                                                                        LLAVE 3 VIASSOB     1
RC0001041702796A202100000027627300000027627326/10/20210838    31903336240421964190000Q1AA7300000610640000000000000                                                            CATETER PERIFE INTROCAN # 22G 4251628-04SIN     1
RC0001041702796A202100000027627300000027627326/10/20210838    31903336240421964190000Q1AA7400003911720000000000000                                                            CATETER PERIFE INTROCAN # 24G 4251601-04SOB     1
RC0001041702796A202100000027627300000027627326/10/20210838    3190333624042196419000000602600001259280000000000000                                                             APOSITO TEGADERM IV PD 1610 5CM X 5.7CMSOB     1
RC0001041702796A202100000027627300000027627326/10/20210838    3190333624042196419000020750700000576830000000000000                                                                 PLACA QUIRURGICA  NEONATO REF E7512SIN     1
RC0001041702796A202100000027627300000027627326/10/20210838    3190333624042196419000030161400001459220000000000000                                                                       MANGUERA SUCCION 6 MM*3.1 MTSSOB     2
RC0001041702796A202100000027627300000027627326/10/20210838    3190333624042196419000011047900000223010000000000000                                                                            JERINGA X 1ML REF 302579SIN     1
RC0001041702796A202100000027627300000027627326/10/20210838    3190333624042196419000024673000001411210000000000000                                                                  JERINGA DESECHABLE 3 ML 21 X 1 1/2SOB     2
RC0001041702796A202100000027627300000027627326/10/20210838    3190333624042196419000024674000000220660000000000000                             JERINGA A 3 PARTES CON AGUJA  SOB X 1 RYMCO  10ML BN EXENTO-DC.417/2020SIN     3
RC0001041702796A202100000027627300000027627326/10/20210838    3190333624042196419000024674500000322810000000000000                                                                   JERINGA DESECHABLE 20 ml 21*1 1/2SIN     2
RC0001041702796A202100000027627300000027627326/10/20210838    3190333624042196419000053074400000607910000000000000                                                               GASA ESTERIL 10*10 SOBRE X 3 UNIDADESSOB     2
RC0001041702796A202100000027627300000027627326/10/20210838    3190333624042196419000011085200001585390000000000000                                                                       GUANTE QUIRURGICO TALLA 7 1/2SOB     3
RC0001041702796A202100000027627300000027627326/10/20210838    3190333624042196419000038576600000256740000000000000                                                                        SONDA ASPIRACION CONTROL #12SIN     1
RC0001041702796A202100000027627300000027627326/10/20210838    3190333624042196419000000400100000258110000000000000                                                              TUBO ENDOTRAQUEAL 3.5 Fr C/BALON 86443SOB     1
RC0001041702796A202100000027627300000027627326/10/20210838    3190333624042196419000035612500000331850000000000000                                                                          MASCARA OXIGENO PEDIATRICOBIN     1
RC0001041702796A202100000027627300000027627326/10/20210838    3190333624042196419000011099300000777780000000000000                                                                     FILTRO BACTERIANO VIRICO ADULTOBOL     1
RC0001041702796A202100000027627300000027627326/10/20210838    3190333624042196419000011065700003914100000000000000                                                                 TAPON HEPARINIZADO 4238010  B BRAUNSOB     1
RC0001041702796A202100000027627300000027627326/10/20210838    31903336240421964190000E1AB0200000199290000000000000                                                            SOLUCION SALINA 0.9% SLN INY BO X 100 MLBIN     2
RC0001041702796A202100000027627300000027627326/10/20210838    31903336240421964190000A3BA0100001109400000000000000                                                                          ATROPINA SLN INY 1 MG / MLAMP     1
