CC0000036724804H202100914043102600914043102626/10/20212057    3190220223742196425000011082700001620070000000000000                                                               EQUIPO SET PRIMARIO C/CLAVE REF 14001BOL     1
CC0000036724804H202100914043102600914043102626/10/20212057    3190220223742196425000030936900001431840000000000000                                                                                              BURETABOL     1
CC0000036724804H202100914043102600914043102626/10/20212057    31902202237421964250000E1AB0300003888390000000000000                                                            SOLUCION SALINA 0.9% SLN INY BO X 500 MLBOL     2
