TI0001139430724H202100015042506900015042506926/10/20210603    3150021323742196425000001956000001620610000000000000                                                                      CONECTOR MICRO CLAVE LAT-MC100SOB     1
TI0001139430724H202100015042506900015042506926/10/20210603    31500213237421964250000Q1AA7400003911720000000000000                                                            CATETER PERIFE INTROCAN # 24G 4251601-04SOB     2
CC0000032632681H202100015042506900015042506926/10/20210603    3150021323742196425000001200400000530690000000000000                                                                          CANULA DE MAYO # 5 (100MM)SIN     1
TI0001139430724H202100015042506900015042506926/10/20210603    3150021323742196425000016830000000970620000000000000                                                             SIST FIJACION CAT PERIFERICO 6.5X7 1683SOB     1
