RC0001046738847U202100050131382700050131382726/10/20212006    3190016323942196432000011048600000223020000000000000                                                                 JERINGA VACUNACION 3ML C/AGU 302542SIN     1
RC0001046738847U202100050131382700050131382726/10/20212006    3190016323942196432000024673600000222980000000000000                                                                     JERINGA DESECHABLE 5 ml 27*11/2SIN     1
RC0001046738847U202100050131382700050131382726/10/20212006    3190016323942196432000001956000001620610000000000000                                                                      CONECTOR MICRO CLAVE LAT-MC100SOB     1
RC0001046738847U202100050131382700050131382726/10/20212006    31900163239421964320000Q1AA7400003911720000000000000                                                            CATETER PERIFE INTROCAN # 24G 4251601-04SOB     1
RC0001046738847U202100050131382700050131382726/10/20212006    3190016323942196432000016830000000970620000000000000                                                             SIST FIJACION CAT PERIFERICO 6.5X7 1683SOB     1
