CC0000007469257H202100000554969200000554969226/10/20211533     3300010237421964250000B1AB1200003939350000000000000                 ENOXAPARINA SODICA 80MG/0.8ML(100MG/ML) SOL INY INST CAJ X 2JERPREL X 0.8ML TECHDOWJRP     2
CC0000007469257H202100000554969200000554969226/10/20211515    31500531237421964250000E1AB0200000199290000000000000                                                            SOLUCION SALINA 0.9% SLN INY BO X 100 MLBIN     3
CC0000007469257H202100000554969200000554969226/10/20212300    31900932237421964250000E1AB0300003888390000000000000                                                            SOLUCION SALINA 0.9% SLN INY BO X 500 MLBOL     1
CC0000007469257H202100000554969200000554969226/10/20211515    31500531237421964250000E1AB0300003888390000000000000                                                            SOLUCION SALINA 0.9% SLN INY BO X 500 MLBOL     2
CC0000007469257H202100000554969200000554969226/10/20210906     3300009237421964250000C7AB1400001278150000000000000                                                                       BETALOC ZOK TAB LM 100 MG /R/TAB     1
CC0000007469257H202100000554969200000554969226/10/20210906     3300009237421964250000C09CA400001277130000000000000                                                                                  LOSARTAN TAB 50 MGTAB     2
CC0000007469257H202100000554969200000554969226/10/20210906     3300009237421964250000A02B0800001276960000000000000                                                                                 OMEPRAZOL CAP 20 MGCAP     1
CC0000007469257H202100000554969200000554969226/10/20210906     3300009237421964250000B01AB400000513360000000000000                                                                        CLENOX SLN INY 60 MG/ 0.6 MLJRP     2
CC0000007469257H202100000554969200000554969226/10/20212235     3300010237421964250000C01BD200001332790000000000000                                                                               AMIODARONA TAB 200 MGTAB     1
CC0000007469257H202100000554969200000554969226/10/20210906     3300009237421964250000C01BD200001332790000000000000                                                                               AMIODARONA TAB 200 MGTAB     1
CC0000007469257H202100000554969200000554969226/10/20212235     3300010237421964250000C03C0100001672000000000000000                                                                       FUROSEMIDA SLN INY 20 MG/2 MLAMP     1
CC0000007469257H202100000554969200000554969226/10/20210906     3300009237421964250000C03C0100001672000000000000000                                                                       FUROSEMIDA SLN INY 20 MG/2 MLAMP     1
CC0000007469257H202100000554969200000554969226/10/20210906     3300009237421964250000C08CA300001313930000000000000                                                                                AMLODIPINO TAB 10 MGTAB     1
CC0000007469257H202100000554969200000554969226/10/20212235     3300010237421964250000N2BE2200001252930000000000000                                                                             ACETAMINOFEN Tab 500 MGTAB     2
CC0000007469257H202100000554969200000554969226/10/20211515    31500531237421964250000V07A1300000502600000000000000                                                                                AGUA ESTERIL x 10 mlAMP    10
