CC0001002182810H202100015112646100015112646126/10/20211016    3190145023742196425000045136100001419300000000000000                                                                            LANCETA DEXTROMETER X UNPZA     3
CC0001045684571H202100015112646100015112646126/10/20211016    3190145023742196425000045136100001419300000000000000                                                                            LANCETA DEXTROMETER X UNPZA     3
CC0000077185534H202100015112646100015112646126/10/20211016    3190145023742196425000045136100001419300000000000000                                                                            LANCETA DEXTROMETER X UNPZA     3
CC0001002182810H202100015112646100015112646126/10/20211016    3190145023742196425000024674000000220660000000000000                             JERINGA A 3 PARTES CON AGUJA  SOB X 1 RYMCO  10ML BN EXENTO-DC.417/2020SIN    10
CC0001045684571H202100015112646100015112646126/10/20211016    3190145023742196425000024674000000220660000000000000                             JERINGA A 3 PARTES CON AGUJA  SOB X 1 RYMCO  10ML BN EXENTO-DC.417/2020SIN    15
CC0000077185534H202100015112646100015112646126/10/20211016    3190145023742196425000024674000000220660000000000000                             JERINGA A 3 PARTES CON AGUJA  SOB X 1 RYMCO  10ML BN EXENTO-DC.417/2020SIN    10
CC0001045684571H202100015112646100015112646126/10/20211016    3190145023742196425000043485100001618510000000000000                GUANTE QUIRURGICO DE LATEX REF 2D72N65X CAJ X 50 PROTEXIS  6.5 BN EXENTO-DC.417/2020SOB     2
CC0001045684571H202100015112646100015112646126/10/20211016    3190145023742196425000011081700001413910000000000000                                                                EQUIPO ADM NUTRICIONES 673662 BAXTERBOL     1
CC0001002182810H202100015112646100015112646126/10/20211016    31901450237421964250000E1AB0500003888400000000000000                                                              SOLUCION SALINA 0.9% SLN INY X 1000 MLBOL     1
CC0001045684571H202100015112646100015112646126/10/20211016    31901450237421964250000E1AB0200000199290000000000000                                                            SOLUCION SALINA 0.9% SLN INY BO X 100 MLBIN    10
CC0001002182810H202100015112646100015112646126/10/20211016    3190145023742196425000011137100001419310000000000000                                                               TIRA GLUCOMETRIA FREESTYLE H OPTIUM .PZA     3
CC0001045684571H202100015112646100015112646126/10/20211016    3190145023742196425000011137100001419310000000000000                                                               TIRA GLUCOMETRIA FREESTYLE H OPTIUM .PZA     3
CC0000077185534H202100015112646100015112646126/10/20211016    3190145023742196425000011137100001419310000000000000                                                               TIRA GLUCOMETRIA FREESTYLE H OPTIUM .PZA     3
CC0001002182810H202100015112646100015112646126/10/20211016    3190145023742196425000011127400001413910000000000000                                                            EQUIPO ADMINIST NUTR PUNZON REF 674669 BBOL     1
