TI0001047048202H202100000554972900000554972926/10/20212240     3300009237421964250000R06A1100000804600000000000000                                                                  FENOXIFENADINA HCL  FCO X 150ML/V/FCO     1
TI0001047048202H202100000554972900000554972926/10/20211716    31500082237421964250000E1AC0100000199400000000000000                                                                          SUERO MIXTO Sln Iny 500 mlBIN     4
TI0001047048202H202100000554972900000554972926/10/20210539    31500213237421964250000E1AC0100000199400000000000000                                                                          SUERO MIXTO Sln Iny 500 mlBIN     3
TI0001047048202H202100000554972900000554972926/10/20211716    31500082237421964250000E1AB0200000199290000000000000                                                            SOLUCION SALINA 0.9% SLN INY BO X 100 MLBIN     8
TI0001047048202H202100000554972900000554972926/10/20210539    31500213237421964250000E1AB0200000199290000000000000                                                            SOLUCION SALINA 0.9% SLN INY BO X 100 MLBIN     5
TI0001047048202H202100000554972900000554972926/10/20211120    31903294237421964250000E1AB0700003888350000000000000                                                            SOLUCION SALINA 0.9% SLN INY BO X 250 MLBOL     3
TI0001047048202H202100000554972900000554972926/10/20210539    31500213237421964250000E1AB0700003888350000000000000                                                            SOLUCION SALINA 0.9% SLN INY BO X 250 MLBOL     2
TI0001047048202H202100000554972900000554972926/10/20210835     3300010237421964250000A12BA100000552980000000000000                                                            CLORURO POTASIO Sln Iny AMP 20 MEQ/10 MLAMP     5
TI0001047048202H202100000554972900000554972926/10/20210834     3300010237421964250000J01DA300001239950000000000000                                                            CEFAZOLINA SODICA POLVO LIOF SLN INY 1 GVAL     3
TI0001047048202H202100000554972900000554972926/10/20210834     3300010237421964250000J1KF0200001677230000000000000                                                                      MERONEM POLVO SLN INY 1 G  /R/VAL     2
TI0001047048202H202100000554972900000554972926/10/20210834     3300010237421964250000J3BA0700000187600000000000000                                                                      BACTRIM SLN INY 400/80 MG/5 MLAMP     2
TI0001047048202H202100000554972900000554972926/10/20210558     3300010237421964250000J3BA0700000187600000000000000                                                                      BACTRIM SLN INY 400/80 MG/5 MLAMP    10
TI0001047048202H202100000554972900000554972926/10/20210834     3300010237421964250000J1FA1600001247370000000000000                                                                  KLARICID POLVO LIOF SLN INY 500 MGVAL     2
TI0001047048202H202100000554972900000554972926/10/20211933     3300009237421964250000J02A0200000191070000000000000                                                            CANCIDAS POLVO LIOF SLN INY AMP 50MG /R/VAL     1
TI0001047048202H202100000554972900000554972926/10/20210835     3300010237421964250000J02A0200000191070000000000000                                                            CANCIDAS POLVO LIOF SLN INY AMP 50MG /R/VAL     1
TI0001047048202H202100000554972900000554972926/10/20211904     3300009237421964250000L1BC1300000304160000000000000                                                                        NEUPOGEN Sln iny 300 mcg /R/JRP     2
TI0001047048202H202100000554972900000554972926/10/20210835     3300010237421964250000N02B1100001169680000000000000                              PARACETAMOL 1000MG/100ML(10MG/ML) SOL INY  VIAL X 100ML FRESENIUS KABIVAL     3
TI0001047048202H202100000554972900000554972926/10/20210835     3300010237421964250000V6DB0800001286840000000000000                                                                          PEDIASURE LIQUIDO X 237 MLFCO     1
TI0001047048202H202100000554972900000554972926/10/20211716    31500082237421964250000V07A1300000502600000000000000                                                                                AGUA ESTERIL x 10 mlAMP    10
TI0001047048202H202100000554972900000554972926/10/20210539    31500213237421964250000V07A1300000502600000000000000                                                                                AGUA ESTERIL x 10 mlAMP     7
