CC0001042970504H202100000554963500000554963526/10/20212322     3300010237421964250000D06AX400001156100000000000000                                                               ACIDO FUSIDICO 2% CREM  TUB X 15GR/V/TUB     1
CC0001042970504H202100000554963500000554963526/10/20211501    31902651237421964250000E1AB0200000199290000000000000                                                            SOLUCION SALINA 0.9% SLN INY BO X 100 MLBIN     5
CC0001042970504H202100000554963500000554963526/10/20210507    31500305237421964250000E1AB0200000199290000000000000                                                            SOLUCION SALINA 0.9% SLN INY BO X 100 MLBIN     6
CC0001042970504H202100000554963500000554963526/10/20211501    31902651237421964250000E1AD0300000199490000000000000                                         LACTATO RINGER USP (HARTMANN)  SOL INY  BOL X 1000ML BAXTERBIN     2
CC0001042970504H202100000554963500000554963526/10/20210507    31500305237421964250000E1AD0300000199490000000000000                                         LACTATO RINGER USP (HARTMANN)  SOL INY  BOL X 1000ML BAXTERBIN     3
CC0001042970504H202100000554963500000554963526/10/20211532     3300010237421964250000N1AH0200003906560000000000000                                                                     FENTANIL Iny 0.05 mg/ml x 10 mlAMP     6
CC0001042970504H202100000554963500000554963526/10/20211532     3300010237421964250000N5CD0300000218170000000000000                                                                          DORMICUM Sln Iny 5 mg/5 mlAMP    40
CC0001042970504H202100000554963500000554963526/10/20210507    31500305237421964250000B5BC0100003889300000000000000                                                                        MANITOL SLN INY 20% X 500 MLBOL     2
CC0001042970504H202100000554963500000554963526/10/20211355     3300010237421964250000J01CR200000947130000000000000                                                              AMPICILINA /SULBACTAN POLVO LIOF 1.5 GAMP     3
CC0001042970504H202100000554963500000554963526/10/20211823     3300009237421964250000N2BB0100000787510000000000000                                                                    DIPIRONA SODICA Sln Iny 1 g/2 mlAMP     1
CC0001042970504H202100000554963500000554963526/10/20212125     3300009237421964250000N03AB200001168090000000000000                                                                       FENITOINA Sln Iny 250 mg/5 mlAMP     1
CC0001042970504H202100000554963500000554963526/10/20211355     3300010237421964250000N03AB200001168090000000000000                                                                       FENITOINA Sln Iny 250 mg/5 mlAMP     1
CC0001042970504H202100000554963500000554963526/10/20211355     3300010237421964250000A02BC700001684270000000000000                                                            OMEPRAZOL 40MG POLVO LIOFILIZADO AMPOLLAVAL     1
CC0001042970504H202100000554963500000554963526/10/20211501    31902651237421964250000V07A1300000502600000000000000                                                                                AGUA ESTERIL x 10 mlAMP    10
CC0001042970504H202100000554963500000554963526/10/20210507    31500305237421964250000V07A1300000502600000000000000                                                                                AGUA ESTERIL x 10 mlAMP    10
