RC0001187466818H202100015122507900015122507926/10/20211726    3150022123742196425000024161400000259870000000000000                                                                          SONDA TRACH CARE # 10 (MT)SIN     1
RC0001187466818H202100015122507900015122507926/10/20211726    31500221237421964250000Q1AA1000000256790000000000000                                                                         SONDA ASPIRACION CONTROL #8SIN     7
RC0001187466818H202100015122507900015122507926/10/20211726    3150022123742196425000036441300000236540000000000000                                                                    JERINGA 1 ML GASES ARTERIAL 9023SIN     3
RC0001187466818H202100015122507900015122507926/10/20211726    3150022123742196425000024674000000220660000000000000                             JERINGA A 3 PARTES CON AGUJA  SOB X 1 RYMCO  10ML BN EXENTO-DC.417/2020SIN     3
