RC0001048085750U202100050131380000050131380026/10/20211724    3190233623942196432000024674000000220660000000000000                             JERINGA A 3 PARTES CON AGUJA  SOB X 1 RYMCO  10ML BN EXENTO-DC.417/2020SIN     1
RC0001048085750U202100050131380000050131380026/10/20211724    3190233623942196432000011082900001233450000000000000                                                               EQUIPO LC 5000 PRIMARIO FOTOPRO 0L218SOB     1
RC0001043317236U202100050131380000050131380026/10/20211724    3190233623942196432000011082900001233450000000000000                                                               EQUIPO LC 5000 PRIMARIO FOTOPRO 0L218SOB     1
RC0001048085750U202100050131380000050131380026/10/20211724    3190233623942196432000001956000001620610000000000000                                                                      CONECTOR MICRO CLAVE LAT-MC100SOB     1
RC0001048085750U202100050131380000050131380026/10/20211724    31902336239421964320000Q1AA7400003911720000000000000                                                            CATETER PERIFE INTROCAN # 24G 4251601-04SOB     1
RC0001043317236U202100050131380000050131380026/10/20211724    31902336239421964320000Q1AA7400003911720000000000000                                                            CATETER PERIFE INTROCAN # 24G 4251601-04SOB     1
RC0001043317236U202100050131380000050131380026/10/20211724    3190233623942196432000030936900001431840000000000000                                                                                              BURETABOL     1
RC0001048085750U202100050131380000050131380026/10/20211724    3190233623942196432000016830000000970620000000000000                                                             SIST FIJACION CAT PERIFERICO 6.5X7 1683SOB     1
RC0001043317236U202100050131380000050131380026/10/20211724    3190233623942196432000016830000000970620000000000000                                                             SIST FIJACION CAT PERIFERICO 6.5X7 1683SOB     1
RC0001043317236U202100050131380000050131380026/10/20211724    31902336239421964320000E1AD0300000199490000000000000                                         LACTATO RINGER USP (HARTMANN)  SOL INY  BOL X 1000ML BAXTERBIN     1
RC0001048085750U202100050131380000050131380026/10/20211724    31902336239421964320000E1AB0200000199290000000000000                                                            SOLUCION SALINA 0.9% SLN INY BO X 100 MLBIN     1
