CC0001129515564U202100050131380400050131380426/10/20211734    3190280023942196432000024674000000220660000000000000                             JERINGA A 3 PARTES CON AGUJA  SOB X 1 RYMCO  10ML BN EXENTO-DC.417/2020SIN     1
CC0001129515564U202100050131380400050131380426/10/20211734    3190280023942196432000022426800001140510000000000000                                                                    EQUIPO MACROGOTEO BAXTER MRC0001SOB     1
CC0001129515564U202100050131380400050131380426/10/20211734    31902800239421964320000Q1AA7200000610630000000000000                                                            CATETER PERIFE INTROCAN # 20G 4251644-04SIN     3
CC0001129515564U202100050131380400050131380426/10/20211734    31902800239421964320000E1AB0700003888350000000000000                                                            SOLUCION SALINA 0.9% SLN INY BO X 250 MLBOL     1
