CC0001129528161H202100000025034100000025034126/10/20211547    3190301623742196425000024674000000220660000000000000                             JERINGA A 3 PARTES CON AGUJA  SOB X 1 RYMCO  10ML BN EXENTO-DC.417/2020SIN     6
CC0001047034752H202100000025034100000025034126/10/20211547    3190301623742196425000024674000000220660000000000000                             JERINGA A 3 PARTES CON AGUJA  SOB X 1 RYMCO  10ML BN EXENTO-DC.417/2020SIN     6
CC0000032686737H202100000025034100000025034126/10/20211547    3190301623742196425000024674000000220660000000000000                             JERINGA A 3 PARTES CON AGUJA  SOB X 1 RYMCO  10ML BN EXENTO-DC.417/2020SIN     6
CC0000032882480H202100000025034100000025034126/10/20211547    3190301623742196425000024674000000220660000000000000                             JERINGA A 3 PARTES CON AGUJA  SOB X 1 RYMCO  10ML BN EXENTO-DC.417/2020SIN     6
CC0000032754459H202100000025034100000025034126/10/20211547    3190301623742196425000024674000000220660000000000000                             JERINGA A 3 PARTES CON AGUJA  SOB X 1 RYMCO  10ML BN EXENTO-DC.417/2020SIN     6
CC0000032861936H202100000025034100000025034126/10/20211547    3190301623742196425000024674000000220660000000000000                             JERINGA A 3 PARTES CON AGUJA  SOB X 1 RYMCO  10ML BN EXENTO-DC.417/2020SIN     6
CC0001042432160H202100000025034100000025034126/10/20211547    3190301623742196425000024674000000220660000000000000                             JERINGA A 3 PARTES CON AGUJA  SOB X 1 RYMCO  10ML BN EXENTO-DC.417/2020SIN     6
CC0000032757672H202100000025034100000025034126/10/20211547    3190301623742196425000024674000000220660000000000000                             JERINGA A 3 PARTES CON AGUJA  SOB X 1 RYMCO  10ML BN EXENTO-DC.417/2020SIN     6
CC0001001998075H202100000025034100000025034126/10/20211547    3190301623742196425000024674000000220660000000000000                             JERINGA A 3 PARTES CON AGUJA  SOB X 1 RYMCO  10ML BN EXENTO-DC.417/2020SIN     6
CC0000044154519H202100000025034100000025034126/10/20211547    3190301623742196425000024674000000220660000000000000                             JERINGA A 3 PARTES CON AGUJA  SOB X 1 RYMCO  10ML BN EXENTO-DC.417/2020SIN     6
CC0000022420126H202100000025034100000025034126/10/20211547    3190301623742196425000024674000000220660000000000000                             JERINGA A 3 PARTES CON AGUJA  SOB X 1 RYMCO  10ML BN EXENTO-DC.417/2020SIN     6
CC0000022621899H202100000025034100000025034126/10/20211547    3190301623742196425000024674000000220660000000000000                             JERINGA A 3 PARTES CON AGUJA  SOB X 1 RYMCO  10ML BN EXENTO-DC.417/2020SIN     6
CC0000063517334H202100000025034100000025034126/10/20211547    3190301623742196425000024674000000220660000000000000                             JERINGA A 3 PARTES CON AGUJA  SOB X 1 RYMCO  10ML BN EXENTO-DC.417/2020SIN     6
CC0001129528161H202100000025034100000025034126/10/20211547    3190301623742196425000011047900000223010000000000000                                                                            JERINGA X 1ML REF 302579SIN     2
CC0001047034752H202100000025034100000025034126/10/20211547    3190301623742196425000011047900000223010000000000000                                                                            JERINGA X 1ML REF 302579SIN     2
CC0000032686737H202100000025034100000025034126/10/20211547    3190301623742196425000011047900000223010000000000000                                                                            JERINGA X 1ML REF 302579SIN     2
CC0000032882480H202100000025034100000025034126/10/20211547    3190301623742196425000011047900000223010000000000000                                                                            JERINGA X 1ML REF 302579SIN     2
CC0000032754459H202100000025034100000025034126/10/20211547    3190301623742196425000011047900000223010000000000000                                                                            JERINGA X 1ML REF 302579SIN     2
CC0000032861936H202100000025034100000025034126/10/20211547    3190301623742196425000011047900000223010000000000000                                                                            JERINGA X 1ML REF 302579SIN     2
CC0001042432160H202100000025034100000025034126/10/20211547    3190301623742196425000011047900000223010000000000000                                                                            JERINGA X 1ML REF 302579SIN     2
CC0000032757672H202100000025034100000025034126/10/20211547    3190301623742196425000011047900000223010000000000000                                                                            JERINGA X 1ML REF 302579SIN     2
CC0001001998075H202100000025034100000025034126/10/20211547    3190301623742196425000011047900000223010000000000000                                                                            JERINGA X 1ML REF 302579SIN     2
CC0000044154519H202100000025034100000025034126/10/20211547    3190301623742196425000011047900000223010000000000000                                                                            JERINGA X 1ML REF 302579SIN     2
CC0001129528161H202100000025034100000025034126/10/20211547    3190301623742196425000043485100001618510000000000000                GUANTE QUIRURGICO DE LATEX REF 2D72N65X CAJ X 50 PROTEXIS  6.5 BN EXENTO-DC.417/2020SOB     4
CC0001047034752H202100000025034100000025034126/10/20211547    3190301623742196425000043485100001618510000000000000                GUANTE QUIRURGICO DE LATEX REF 2D72N65X CAJ X 50 PROTEXIS  6.5 BN EXENTO-DC.417/2020SOB     4
CC0000032686737H202100000025034100000025034126/10/20211547    3190301623742196425000043485100001618510000000000000                GUANTE QUIRURGICO DE LATEX REF 2D72N65X CAJ X 50 PROTEXIS  6.5 BN EXENTO-DC.417/2020SOB     4
CC0000032882480H202100000025034100000025034126/10/20211547    3190301623742196425000043485100001618510000000000000                GUANTE QUIRURGICO DE LATEX REF 2D72N65X CAJ X 50 PROTEXIS  6.5 BN EXENTO-DC.417/2020SOB     4
CC0000032754459H202100000025034100000025034126/10/20211547    3190301623742196425000043485100001618510000000000000                GUANTE QUIRURGICO DE LATEX REF 2D72N65X CAJ X 50 PROTEXIS  6.5 BN EXENTO-DC.417/2020SOB     4
CC0000032861936H202100000025034100000025034126/10/20211547    3190301623742196425000043485100001618510000000000000                GUANTE QUIRURGICO DE LATEX REF 2D72N65X CAJ X 50 PROTEXIS  6.5 BN EXENTO-DC.417/2020SOB     4
CC0001042432160H202100000025034100000025034126/10/20211547    3190301623742196425000043485100001618510000000000000                GUANTE QUIRURGICO DE LATEX REF 2D72N65X CAJ X 50 PROTEXIS  6.5 BN EXENTO-DC.417/2020SOB     4
CC0000032757672H202100000025034100000025034126/10/20211547    3190301623742196425000043485100001618510000000000000                GUANTE QUIRURGICO DE LATEX REF 2D72N65X CAJ X 50 PROTEXIS  6.5 BN EXENTO-DC.417/2020SOB     4
CC0001001998075H202100000025034100000025034126/10/20211547    3190301623742196425000043485100001618510000000000000                GUANTE QUIRURGICO DE LATEX REF 2D72N65X CAJ X 50 PROTEXIS  6.5 BN EXENTO-DC.417/2020SOB     4
CC0000044154519H202100000025034100000025034126/10/20211547    3190301623742196425000043485100001618510000000000000                GUANTE QUIRURGICO DE LATEX REF 2D72N65X CAJ X 50 PROTEXIS  6.5 BN EXENTO-DC.417/2020SOB     4
CC0000022420126H202100000025034100000025034126/10/20211547    3190301623742196425000043485100001618510000000000000                GUANTE QUIRURGICO DE LATEX REF 2D72N65X CAJ X 50 PROTEXIS  6.5 BN EXENTO-DC.417/2020SOB     4
CC0000022621899H202100000025034100000025034126/10/20211547    3190301623742196425000043485100001618510000000000000                GUANTE QUIRURGICO DE LATEX REF 2D72N65X CAJ X 50 PROTEXIS  6.5 BN EXENTO-DC.417/2020SOB     4
CC0000063517334H202100000025034100000025034126/10/20211547    3190301623742196425000043485100001618510000000000000                GUANTE QUIRURGICO DE LATEX REF 2D72N65X CAJ X 50 PROTEXIS  6.5 BN EXENTO-DC.417/2020SOB     4
CC0001129528161H202100000025034100000025034126/10/20211547    3190301623742196425000013077800000471960000000000000                                                             GASA NO TEJIDA EST 7.5 X 7.5 SOB X 3 UNSOB     6
CC0001047034752H202100000025034100000025034126/10/20211547    3190301623742196425000013077800000471960000000000000                                                             GASA NO TEJIDA EST 7.5 X 7.5 SOB X 3 UNSOB     6
CC0000032686737H202100000025034100000025034126/10/20211547    3190301623742196425000013077800000471960000000000000                                                             GASA NO TEJIDA EST 7.5 X 7.5 SOB X 3 UNSOB     6
CC0000032882480H202100000025034100000025034126/10/20211547    3190301623742196425000013077800000471960000000000000                                                             GASA NO TEJIDA EST 7.5 X 7.5 SOB X 3 UNSOB     6
CC0000032754459H202100000025034100000025034126/10/20211547    3190301623742196425000013077800000471960000000000000                                                             GASA NO TEJIDA EST 7.5 X 7.5 SOB X 3 UNSOB     6
CC0000032861936H202100000025034100000025034126/10/20211547    3190301623742196425000013077800000471960000000000000                                                             GASA NO TEJIDA EST 7.5 X 7.5 SOB X 3 UNSOB     6
CC0001042432160H202100000025034100000025034126/10/20211547    3190301623742196425000013077800000471960000000000000                                                             GASA NO TEJIDA EST 7.5 X 7.5 SOB X 3 UNSOB     6
CC0000032757672H202100000025034100000025034126/10/20211547    3190301623742196425000013077800000471960000000000000                                                             GASA NO TEJIDA EST 7.5 X 7.5 SOB X 3 UNSOB     6
CC0001001998075H202100000025034100000025034126/10/20211547    3190301623742196425000013077800000471960000000000000                                                             GASA NO TEJIDA EST 7.5 X 7.5 SOB X 3 UNSOB     6
CC0000044154519H202100000025034100000025034126/10/20211547    3190301623742196425000013077800000471960000000000000                                                             GASA NO TEJIDA EST 7.5 X 7.5 SOB X 3 UNSOB     6
CC0000022420126H202100000025034100000025034126/10/20211547    3190301623742196425000013077800000471960000000000000                                                             GASA NO TEJIDA EST 7.5 X 7.5 SOB X 3 UNSOB     6
CC0000022621899H202100000025034100000025034126/10/20211547    3190301623742196425000013077800000471960000000000000                                                             GASA NO TEJIDA EST 7.5 X 7.5 SOB X 3 UNSOB     6
CC0000063517334H202100000025034100000025034126/10/20211547    3190301623742196425000013077800000471960000000000000                                                             GASA NO TEJIDA EST 7.5 X 7.5 SOB X 3 UNSOB     6
