CC0001042970504H202100015112646900015112646926/10/20212059    3190294023742196425000043485100001618510000000000000                GUANTE QUIRURGICO DE LATEX REF 2D72N65X CAJ X 50 PROTEXIS  6.5 BN EXENTO-DC.417/2020SOB     2
CC0001143151880H202100015112646900015112646926/10/20212059    3190294023742196425000043485100001618510000000000000                GUANTE QUIRURGICO DE LATEX REF 2D72N65X CAJ X 50 PROTEXIS  6.5 BN EXENTO-DC.417/2020SOB     1
CC0000093407512H202100015112646900015112646926/10/20212059    3190294023742196425000011089300001083990000000000000                                                              GUANTE ESTERIL LATEX S/POLVO TALLA 7.5SOB     1
CC0000032678618H202100015112646900015112646926/10/20212059    3190294023742196425000011089300001083990000000000000                                                              GUANTE ESTERIL LATEX S/POLVO TALLA 7.5SOB     1
CC0001042970504H202100015112646900015112646926/10/20212059    3190294023742196425000013077800000471960000000000000                                                             GASA NO TEJIDA EST 7.5 X 7.5 SOB X 3 UNSOB     8
CC0001143151880H202100015112646900015112646926/10/20212059    3190294023742196425000013077800000471960000000000000                                                             GASA NO TEJIDA EST 7.5 X 7.5 SOB X 3 UNSOB     1
CC0000032678618H202100015112646900015112646926/10/20212059    3190294023742196425000013077800000471960000000000000                                                             GASA NO TEJIDA EST 7.5 X 7.5 SOB X 3 UNSOB    10
CC0001042970504H202100015112646900015112646926/10/20212059    3190294023742196425000042753100003929850000000000000                   GASA ADHESIVA STRETCH REF 02037-00 ROL X 10MT FIXOMULL 10CM BN EXENTO-DC.417/2020CMT    20
CC0000032678618H202100015112646900015112646926/10/20212059    3190294023742196425000042753100003929850000000000000                   GASA ADHESIVA STRETCH REF 02037-00 ROL X 10MT FIXOMULL 10CM BN EXENTO-DC.417/2020CMT    60
CC0000093407512H202100015112646900015112646926/10/20212059    3190294023742196425000022426800001140510000000000000                                                                    EQUIPO MACROGOTEO BAXTER MRC0001SOB     1
CC0000093407512H202100015112646900015112646926/10/20212059    3190294023742196425000011082900001233450000000000000                                                               EQUIPO LC 5000 PRIMARIO FOTOPRO 0L218SOB     1
CC0000093407512H202100015112646900015112646926/10/20212059    3190294023742196425000011082700001620070000000000000                                                               EQUIPO SET PRIMARIO C/CLAVE REF 14001BOL     1
CC0000032678618H202100015112646900015112646926/10/20212059    3190294023742196425000011082700001620070000000000000                                                               EQUIPO SET PRIMARIO C/CLAVE REF 14001BOL     1
CC0000093407512H202100015112646900015112646926/10/20212059    3190294023742196425000011081700001413910000000000000                                                                EQUIPO ADM NUTRICIONES 673662 BAXTERBOL     1
CC0001042970504H202100015112646900015112646926/10/20212059    3190294023742196425000000799100001135000000000000000                                                                    LEUKOMED T PLUS 8X15CMT 72382-02SOB     1
CC0000032678618H202100015112646900015112646926/10/20212059    3190294023742196425000000799100001135000000000000000                                                                    LEUKOMED T PLUS 8X15CMT 72382-02SOB     1
