CC0000012549690H202100000554992900000554992926/10/20211739    31901015237421964250000B1AB0200003939510000000000000                 ENOXAPARINA SODICA 40MG/0.4ML(100MG/ML) SOL INY INST CAJ X 2JERPREL X 0.4ML TECHDOWJRP     1
CC0000012549690H202100000554992900000554992926/10/20211739    31901015237421964250000C09CA400001277130000000000000                                                                                  LOSARTAN TAB 50 MGTAB     2
CC0000012549690H202100000554992900000554992926/10/20211739    31901015237421964250000N2AX1200001071490000000000000                                                                             TRAMADOL SLN INY 100 MGAMP     2
CC0000012549690H202100000554992900000554992926/10/20211739    31901015237421964250000C08CA200001277660000000000000                                                                                 AMLODIPINO TAB 5 MGTAB     1
CC0000012549690H202100000554992900000554992926/10/20211739    31901015237421964250000J01F0200001689390000000000000                                                                        CLINDAMICINA INY 600 MG/4 MLAMP     4
CC0000012549690H202100000554992900000554992926/10/20211739    31901015237421964250000N2BB0100000787510000000000000                                                                    DIPIRONA SODICA Sln Iny 1 g/2 mlAMP     2
