CC0000000162131H202100000554972000000554972026/10/20211036     3300010237421964250000A10BH100001305230000000000000                                                                               JANUVIA TAB 50 MG /R/TAB     1
CC0000000162131H202100000554972000000554972026/10/20210533     3300010237421964250000C07A0500001278660000000000000                                                                                NEBILET TAB 5 MG /R/TAB     1
CC0000000162131H202100000554972000000554972026/10/20210532     3300010237421964250000C3CA0200000195520000000000000                                                                           LASIX SLN INY 20 MG/ 2 MLAMP     1
CC0000000162131H202100000554972000000554972026/10/20210533     3300010237421964250000C7FA0200001277980000000000000                                                                                    NORVAS TAB 10 MGTAB     1
CC0000000162131H202100000554972000000554972026/10/20210533     3300010237421964250000J1CB1800001134180000000000000                                                                             TAZOCIN Polvo Iny 4.5 gVAL     2
CC0000000162131H202100000554972000000554972026/10/20212133     3300009237421964250000J1FA1700001050270000000000000                                                            RPQ KLARICID 500MG TAB REC INST CAJ X 10TAB     2
