CC0000032832774H202100015012564800015012564826/10/20210858    3150053423742196425000001956000001620610000000000000                                                                      CONECTOR MICRO CLAVE LAT-MC100SOB     1
CC0000032832774H202100015012564800015012564826/10/20210858    31500534237421964250000Q1AA7200000610630000000000000                                                            CATETER PERIFE INTROCAN # 20G 4251644-04SIN     1
CC0000032832774H202100015012564800015012564826/10/20210858    31500534237421964250000Q1AA7300000610640000000000000                                                            CATETER PERIFE INTROCAN # 22G 4251628-04SIN     1
