CC0001046266612U202100050131378200050131378226/10/20211258    3190271223942196432000012473300000232200000000000000                                                            SUTURA ETHILON 3-0 PS1 45CM NEGRA P1663TSIN     1
CC0001046266612U202100050131378200050131378226/10/20211258    3190271223942196432000011048600000223020000000000000                                                                 JERINGA VACUNACION 3ML C/AGU 302542SIN     1
CC0001046266612U202100050131378200050131378226/10/20211258    3190271223942196432000024673600000222980000000000000                                                                     JERINGA DESECHABLE 5 ml 27*11/2SIN     1
CC0001046266612U202100050131378200050131378226/10/20211258    3190271223942196432000011089300001083990000000000000                                                              GUANTE ESTERIL LATEX S/POLVO TALLA 7.5SOB     2
CC0001046266612U202100050131378200050131378226/10/20211258    3190271223942196432000013077800000471960000000000000                                                             GASA NO TEJIDA EST 7.5 X 7.5 SOB X 3 UNSOB     6
CC0001046266612U202100050131378200050131378226/10/20211258    31902712239421964320000E1BA0100000198890000000000000                                                                   AGUA ESTERIL USP SLN INY X 500 MLBIN     1
CC0001046266612U202100050131378200050131378226/10/20211258    31902712239421964320000E1AB0200000199290000000000000                                                            SOLUCION SALINA 0.9% SLN INY BO X 100 MLBIN     1
