RC0001048089736U202100050131375800050131375826/10/20211024    3150026323942196432000024674000000220660000000000000                             JERINGA A 3 PARTES CON AGUJA  SOB X 1 RYMCO  10ML BN EXENTO-DC.417/2020SIN     1
RC0001048089736U202100050131375800050131375826/10/20211024    3150026323942196432000011082700001620070000000000000                                                               EQUIPO SET PRIMARIO C/CLAVE REF 14001BOL     1
RC0001048089736U202100050131375800050131375826/10/20211024    3150026323942196432000030936900001431840000000000000                                                                                              BURETABOL     1
RC0001048089736U202100050131375800050131375826/10/20211024    31500263239421964320000B05B1400001012740000000000000                                                                SOLUCION SALINA 0.45% Sln Iny 500 mlBOL     1
