CC0000022543387H202100015052696200015052696226/10/20211054    3150052623742196425000038570000001123500000000000000                                                                              SONDA FOLEY #16 2 VIASSOB     1
CC0000022543387H202100015052696200015052696226/10/20211054    3150052623742196425000024675000001585130000000000000                                                                    JERINGA DESECHABLE 50 ml S/AGUJASOB     1
CC0000022543387H202100015052696200015052696226/10/20211054    31500526237421964250000Q1A13500001585200000000000000                        JERINGA PUNTA CAT SIN AGUJA REF 309620 CAJ X 40   50ML BN EXENTO-DC.417/2020SOB     1
CC0001005573354H202100015052696200015052696226/10/20211054    31500526237421964250000E1AB1100003888280000000000000                                                                        SOLUCION SALINA 0.9% X 50 mlBOL     1
CC0001143250996H202100015052696200015052696226/10/20211054    31500526237421964250000E1AB1100003888280000000000000                                                                        SOLUCION SALINA 0.9% X 50 mlBOL     1
CC0001045685077H202100015052696200015052696226/10/20211054    31500526237421964250000E1AB1100003888280000000000000                                                                        SOLUCION SALINA 0.9% X 50 mlBOL     1
TI0001082997584H202100015052696200015052696226/10/20211054    31500526237421964250000E1AC0100000199400000000000000                                                                          SUERO MIXTO Sln Iny 500 mlBIN     2
