CC0000026926615H202100015022522100015022522126/10/20212239    31903053237421964250000V07A1300000502600000000000000                                                                                AGUA ESTERIL x 10 mlAMP     5
CC0000036724804H202100015022522100015022522126/10/20212239    31903053237421964250000V07A1300000502600000000000000                                                                                AGUA ESTERIL x 10 mlAMP    10
CC0000008710257H202100015022522100015022522126/10/20212239    31903053237421964250000V07A1300000502600000000000000                                                                                AGUA ESTERIL x 10 mlAMP     5
CC0000026926615H202100015022522100015022522126/10/20212239    3190305323742196425000024674000000220660000000000000                             JERINGA A 3 PARTES CON AGUJA  SOB X 1 RYMCO  10ML BN EXENTO-DC.417/2020SIN     5
CC0000036724804H202100015022522100015022522126/10/20212239    3190305323742196425000024674000000220660000000000000                             JERINGA A 3 PARTES CON AGUJA  SOB X 1 RYMCO  10ML BN EXENTO-DC.417/2020SIN    10
CC0000008710257H202100015022522100015022522126/10/20212239    3190305323742196425000024674000000220660000000000000                             JERINGA A 3 PARTES CON AGUJA  SOB X 1 RYMCO  10ML BN EXENTO-DC.417/2020SIN     5
CC0000032734764H202100015022522100015022522126/10/20212239    3190305323742196425000024674000000220660000000000000                             JERINGA A 3 PARTES CON AGUJA  SOB X 1 RYMCO  10ML BN EXENTO-DC.417/2020SIN     5
CC0000036724804H202100015022522100015022522126/10/20212239    3190305323742196425000024672100001609890000000000000                                                            JERINGA INSULINA 1ML TAPA NARANJA JEI013SOB     3
CC0000008710257H202100015022522100015022522126/10/20212239    3190305323742196425000024672100001609890000000000000                                                            JERINGA INSULINA 1ML TAPA NARANJA JEI013SOB     3
CC0000036724804H202100015022522100015022522126/10/20212239    3190305323742196425000011085100001082120000000000000                                                                           GUANTE QUIRURGICO TALLA 7SOB     4
CC0000036724804H202100015022522100015022522126/10/20212239    3190305323742196425000013077800000471960000000000000                                                             GASA NO TEJIDA EST 7.5 X 7.5 SOB X 3 UNSOB     8
CC0000036724804H202100015022522100015022522126/10/20212239    3190305323742196425000042753100003929850000000000000                   GASA ADHESIVA STRETCH REF 02037-00 ROL X 10MT FIXOMULL 10CM BN EXENTO-DC.417/2020CMT    30
CC0000036724804H202100015022522100015022522126/10/20212239    3190305323742196425000000100800000223140000000000000                                                                       AGUJA DESECHABLE 23G X 1 PULGSIN     6
