CC0000003730931U202100050131378400050131378426/10/20211331    3150036223942196432000012475800000232220000000000000                                                                SUTURA ETHILON 4-0 PS-2  45CM P1667TSIN     3
CC0000003730931U202100050131378400050131378426/10/20211331    3150036223942196432000012473300000232200000000000000                                                            SUTURA ETHILON 3-0 PS1 45CM NEGRA P1663TSIN     2
CC0000003730931U202100050131378400050131378426/10/20211331    3150036223942196432000011048600000223020000000000000                                                                 JERINGA VACUNACION 3ML C/AGU 302542SIN     1
CC0001143141989U202100050131378400050131378426/10/20211331    3150036223942196432000024674000000220660000000000000                             JERINGA A 3 PARTES CON AGUJA  SOB X 1 RYMCO  10ML BN EXENTO-DC.417/2020SIN     1
CC0000003730931U202100050131378400050131378426/10/20211331    3150036223942196432000024674000000220660000000000000                             JERINGA A 3 PARTES CON AGUJA  SOB X 1 RYMCO  10ML BN EXENTO-DC.417/2020SIN     1
CC0000003730931U202100050131378400050131378426/10/20211331    3150036223942196432000011047900000223010000000000000                                                                            JERINGA X 1ML REF 302579SIN     1
CC0000003730931U202100050131378400050131378426/10/20211331    3150036223942196432000011089400001083350000000000000                                                              GUANTE ESTERIL LATEX S/POLVO TALLA 8.0SOB     2
CC0000003730931U202100050131378400050131378426/10/20211331    3150036223942196432000013077800000471960000000000000                                                             GASA NO TEJIDA EST 7.5 X 7.5 SOB X 3 UNSOB     7
CC0001143141989U202100050131378400050131378426/10/20211331    3150036223942196432000011082700001620070000000000000                                                               EQUIPO SET PRIMARIO C/CLAVE REF 14001BOL     1
CC0001143141989U202100050131378400050131378426/10/20211331    3150036223942196432000001956000001620610000000000000                                                                      CONECTOR MICRO CLAVE LAT-MC100SOB     1
CC0001143141989U202100050131378400050131378426/10/20211331    31500362239421964320000Q1AA7100000610620000000000000                                                            CATETER PERIFE INTROCAN # 18G 4251687-04SIN     1
CC0001143141989U202100050131378400050131378426/10/20211331    3150036223942196432000016830000000970620000000000000                                                             SIST FIJACION CAT PERIFERICO 6.5X7 1683SOB     1
CC0000003730931U202100050131378400050131378426/10/20211331    31500362239421964320000E1AB0300003888390000000000000                                                            SOLUCION SALINA 0.9% SLN INY BO X 500 MLBOL     1
CC0001143141989U202100050131378400050131378426/10/20211331    31500362239421964320000E1AB0200000199290000000000000                                                            SOLUCION SALINA 0.9% SLN INY BO X 100 MLBIN     1
