CC0000008565480H202100015012564700015012564726/10/20210710    3190323923742196425000038569400000256750000000000000                                                                        SONDA ASPIRACION CONTROL #14SIN     7
CC0000008565480H202100015012564700015012564726/10/20210710    3190323923742196425000024674000000220660000000000000                             JERINGA A 3 PARTES CON AGUJA  SOB X 1 RYMCO  10ML BN EXENTO-DC.417/2020SIN     2
CC0000008565480H202100015012564700015012564726/10/20210710    3190323923742196425000011085100001082120000000000000                                                                           GUANTE QUIRURGICO TALLA 7SOB     7
CC0000008565480H202100015012564700015012564726/10/20210710    3190323923742196425000013077800000471960000000000000                                                             GASA NO TEJIDA EST 7.5 X 7.5 SOB X 3 UNSOB     5
CC0000008565480H202100015012564700015012564726/10/20210710    31903239237421964250000E1AB0200000199290000000000000                                                            SOLUCION SALINA 0.9% SLN INY BO X 100 MLBIN     1
