CC0001002182810H202100015112645200015112645226/10/20210238    3190270323742196425000038573100000256880000000000000                                                                                 SONDA NSG LEVIN #18SIN     1
CC0001002182810H202100015112645200015112645226/10/20210238    3190270323742196425000024674000000220660000000000000                             JERINGA A 3 PARTES CON AGUJA  SOB X 1 RYMCO  10ML BN EXENTO-DC.417/2020SIN    20
CC0001002182810H202100015112645200015112645226/10/20210238    3190270323742196425000022426900000236750000000000000                                                                EQUIPO MACROGOTEO CON AGUJA (MRC001)SOB     2
CC0001002182810H202100015112645200015112645226/10/20210238    3190270323742196425000011082700001620070000000000000                                                               EQUIPO SET PRIMARIO C/CLAVE REF 14001BOL     3
CC0001002182810H202100015112645200015112645226/10/20210238    3190270323742196425000001956000001620610000000000000                                                                      CONECTOR MICRO CLAVE LAT-MC100SOB     2
CC0001002182810H202100015112645200015112645226/10/20210238    31902703237421964250000B5BC0200003889280000000000000                                                                 OSMORIN MANITOL 20 % Bolsa X 500 mlBOL     1
CC0001002182810H202100015112645200015112645226/10/20210238    31902703237421964250000E1AB0500003888400000000000000                                                              SOLUCION SALINA 0.9% SLN INY X 1000 MLBOL     1
CC0001002182810H202100015112645200015112645226/10/20210238    31902703237421964250000E1AB0200000199290000000000000                                                            SOLUCION SALINA 0.9% SLN INY BO X 100 MLBIN    10
CC0001002182810H202100015112645200015112645226/10/20210238    3190270323742196425000011133500001585140000000000000                                                              APOSITO TEGADERM REF 9536HP SOB X 1 3MSOB     1
CC0001045684571H202100015112645200015112645226/10/20210238    3190270323742196425000011133500001585140000000000000                                                              APOSITO TEGADERM REF 9536HP SOB X 1 3MSOB     1
