CC0000026926615H202100015022522000015022522026/10/20211951    3190220223742196425000011082700001620070000000000000                                                               EQUIPO SET PRIMARIO C/CLAVE REF 14001BOL     1
CC0000036724804H202100015022522000015022522026/10/20211951    3190220223742196425000011082700001620070000000000000                                                               EQUIPO SET PRIMARIO C/CLAVE REF 14001BOL     1
CC0000026926615H202100015022522000015022522026/10/20211951    3190220223742196425000030936900001431840000000000000                                                                                              BURETABOL     1
CC0000036724804H202100015022522000015022522026/10/20211951    3190220223742196425000030936900001431840000000000000                                                                                              BURETABOL     1
TI0001044214728H202100015022522000015022522026/10/20211951    31902202237421964250000E1AD0300000199490000000000000                                         LACTATO RINGER USP (HARTMANN)  SOL INY  BOL X 1000ML BAXTERBIN     1
RC0001146542960H202100015022522000015022522026/10/20211951    31902202237421964250000E1AD0300000199490000000000000                                         LACTATO RINGER USP (HARTMANN)  SOL INY  BOL X 1000ML BAXTERBIN     1
CC0000032734764H202100015022522000015022522026/10/20211951    31902202237421964250000E1AD0300000199490000000000000                                         LACTATO RINGER USP (HARTMANN)  SOL INY  BOL X 1000ML BAXTERBIN     1
RC0001146542960H202100015022522000015022522026/10/20211951    31902202237421964250000E1AB0300003888390000000000000                                                            SOLUCION SALINA 0.9% SLN INY BO X 500 MLBOL     2
CC0000036724804H202100015022522000015022522026/10/20211951    31902202237421964250000E1AB0300003888390000000000000                                                            SOLUCION SALINA 0.9% SLN INY BO X 500 MLBOL     2
CC0000008710257H202100015022522000015022522026/10/20211951    31902202237421964250000E1AB0300003888390000000000000                                                            SOLUCION SALINA 0.9% SLN INY BO X 500 MLBOL     2
