CC0000008753953H202100000554969000000554969026/10/20211515    31500531237421964250000E1AB0200000199290000000000000                                                            SOLUCION SALINA 0.9% SLN INY BO X 100 MLBIN     3
CC0000008753953H202100000554969000000554969026/10/20211515    31500531237421964250000E1AD0300000199490000000000000                                         LACTATO RINGER USP (HARTMANN)  SOL INY  BOL X 1000ML BAXTERBIN     2
CC0000008753953H202100000554969000000554969026/10/20210906     3300009237421964250000C7AB1000001382030000000000000                                                                   NOREPINEFRINA SLN INY 4 MG / 4 MLAMP     1
CC0000008753953H202100000554969000000554969026/10/20210905     3300009237421964250000C7AB1000001382030000000000000                                                                   NOREPINEFRINA SLN INY 4 MG / 4 MLAMP     9
CC0000008753953H202100000554969000000554969026/10/20210905     3300009237421964250000J01XA400001212420000000000000                                                               VANCOMICINA POLVO LIOF SLN INY 500 MGVAL     2
CC0000008753953H202100000554969000000554969026/10/20210906     3300009237421964250000H01B0100001390610000000000000                                                                   VASOPRESINA SLN INY 20 UI/ ML /R/VAL     4
CC0000008753953H202100000554969000000554969026/10/20210905     3300009237421964250000V6DF2000001629900000000000000                                                                     ENSURE PLUS HN LIQUIDO X 237 MLFCO     2
CC0000008753953H202100000554969000000554969026/10/20210925     3300009237421964250000N1AH0200003906560000000000000                                                                     FENTANIL Iny 0.05 mg/ml x 10 mlAMP     2
CC0000008753953H202100000554969000000554969026/10/20212358     3300010237421964250000H02AB700000585860000000000000                                                                HIDROCORTISONA SUCCI POL LIOF 100 MGVAL     1
CC0000008753953H202100000554969000000554969026/10/20210905     3300009237421964250000H02AB700000585860000000000000                                                                HIDROCORTISONA SUCCI POL LIOF 100 MGVAL     1
CC0000008753953H202100000554969000000554969026/10/20210906     3300009237421964250000C03C0100001672000000000000000                                                                       FUROSEMIDA SLN INY 20 MG/2 MLAMP     2
CC0000008753953H202100000554969000000554969026/10/20210906     3300009237421964250000A02BC700001684270000000000000                                                            OMEPRAZOL 40MG POLVO LIOFILIZADO AMPOLLAVAL     1
CC0000008753953H202100000554969000000554969026/10/20211515    31500531237421964250000V07A1300000502600000000000000                                                                                AGUA ESTERIL x 10 mlAMP    10
CC0000008753953H202100000554969000000554969026/10/20210805    31500082237421964250000V07A1300000502600000000000000                                                                                AGUA ESTERIL x 10 mlAMP     5
