RC0001043709109A202100000027627400000027627426/10/20211242    31903336240421964190000A02BC700001684270000000000000                                                            OMEPRAZOL 40MG POLVO LIOFILIZADO AMPOLLAVAL     1
RC0001043709109A202100000027627400000027627426/10/20211242    3190333624042196419000000102300000222960000000000000                                                                 JERINGA DESECHABLE SIN AGUJA X 20mLSIN     1
RC0001043709109A202100000027627400000027627426/10/20211242    3190333624042196419000011099300000777780000000000000                                                                     FILTRO BACTERIANO VIRICO ADULTOBOL     1
RC0001043709109A202100000027627400000027627426/10/20211242    3190333624042196419000000100200000226080000000000000                                                              AGUJA ASPIRACION REF DIN 1515X SOB X 1SIN     1
RC0001043709109A202100000027627400000027627426/10/20211242    3190333624042196419000024674000000220660000000000000                             JERINGA A 3 PARTES CON AGUJA  SOB X 1 RYMCO  10ML BN EXENTO-DC.417/2020SIN     1
RC0001043709109A202100000027627400000027627426/10/20211242    3190333624042196419000043485100001618510000000000000                GUANTE QUIRURGICO DE LATEX REF 2D72N65X CAJ X 50 PROTEXIS  6.5 BN EXENTO-DC.417/2020SOB     3
RC0001043709109A202100000027627400000027627426/10/20211242    3190333624042196419000053074400000607910000000000000                                                               GASA ESTERIL 10*10 SOBRE X 3 UNIDADESSOB     3
RC0001043709109A202100000027627400000027627426/10/20211242    3190333624042196419000020059600000225150000000000000                                                              AGUJA RAQ SPINOC 22*3 1/2 LARG 4507908SIN     1
