CC0001129523937H202100000554966800000554966826/10/20210521     3300010237421964250000B01A0300000467730000000000000                                                                FRAGMIN SLN INY 5.000 UI /0.2 ML /R/SIN     1
CC0001129523937H202100000554966800000554966826/10/20210521     3300010237421964250000H02AB500001664950000000000000                                                            DEXAMETASONA SLN INY 8 MG/2 ML AMP /CDS/AMP     2
CC0001129523937H202100000554966800000554966826/10/20210521     3300010237421964250000J01XA400001212420000000000000                                                               VANCOMICINA POLVO LIOF SLN INY 500 MGVAL     2
CC0001129523937H202100000554966800000554966826/10/20211857     3300009237421964250000N2AA0100000301640000000000000                                                                            MORFINA Sln Iny 10 mg/mlAMP     3
CC0001129523937H202100000554966800000554966826/10/20210244     3300009237421964250000N2AA0100000301640000000000000                                                                            MORFINA Sln Iny 10 mg/mlAMP     2
CC0001129523937H202100000554966800000554966826/10/20210522     3300010237421964250000C03C0100001672000000000000000                                                                       FUROSEMIDA SLN INY 20 MG/2 MLAMP     1
CC0001129523937H202100000554966800000554966826/10/20210521     3300010237421964250000J01CR300001659480000000000000                                                                  DELBACTAM POLVO LIOF SLN INY 4.5 GVAL     2
CC0001129523937H202100000554966800000554966826/10/20210522     3300010237421964250000N2BE2200001252930000000000000                                                                             ACETAMINOFEN Tab 500 MGTAB     2
CC0001129523937H202100000554966800000554966826/10/20210522     3300010237421964250000A02BC700001684270000000000000                                                            OMEPRAZOL 40MG POLVO LIOFILIZADO AMPOLLAVAL     1
CC0001129523937H202100000554966800000554966826/10/20211549     3300010237421964250000M04AA100001332710000000000000                                                                            ALOPURINOL 100MG TABLETATAB     1
