CC0000022324853H202100000554971700000554971726/10/20211028     3300010237421964250000A6AG0100001107060000000000000                                                            ENEMA RECTAL FOSTATO SODIO BO X 133ML /RBOL     1
CC0000022324853H202100000554971700000554971726/10/20211027     3300010237421964250000A6AG0100001107060000000000000                                                            ENEMA RECTAL FOSTATO SODIO BO X 133ML /RBOL     1
CC0000022324853H202100000554971700000554971726/10/20211047     3300010237421964250000B01A0600000216800000000000000                                                                   ARIXTRA SLN INY 2.5 MG/0.5 ML /R/SIN     1
CC0000022324853H202100000554971700000554971726/10/20211342     3300009237421964250000B3BB0200001315040000000000000                                                                               ACIDO FOLICO Tab 5 mgTAB     1
CC0000022324853H202100000554971700000554971726/10/20210531     3300009237421964250000C09C0100001316940000000000000                                                                               DIOVAN TAB 160 MG /R/TAB     1
CC0000022324853H202100000554971700000554971726/10/20211751     3300009237421964250000A11A2600000303300000000000000                                                                 GLUCERNA LIQUIDO 1.0 KCAL X 1500 MLFCO     1
CC0000022324853H202100000554971700000554971726/10/20210531     3300009237421964250000A11A2600000303300000000000000                                                                 GLUCERNA LIQUIDO 1.0 KCAL X 1500 MLFCO     1
CC0000022324853H202100000554971700000554971726/10/20211046     3300010237421964250000A03F0500001692520000000000000                                                                   ALIZAPRIDA HCL SLN INY 50 MG/2 MLAMP     1
CC0000022324853H202100000554971700000554971726/10/20210531     3300009237421964250000A03F0500001692520000000000000                                                                   ALIZAPRIDA HCL SLN INY 50 MG/2 MLAMP     1
CC0000022324853H202100000554971700000554971726/10/20211046     3300010237421964250000C02AC200001559150000000000000                                                                              CLONIDINA TAB 0.150 MGTAB     1
CC0000022324853H202100000554971700000554971726/10/20210531     3300009237421964250000C02AC200001559150000000000000                                                                              CLONIDINA TAB 0.150 MGTAB     1
CC0000022324853H202100000554971700000554971726/10/20211046     3300010237421964250000C02C0100001316210000000000000                                                                                     PRATEN TAB 1 MGTAB     2
CC0000022324853H202100000554971700000554971726/10/20210531     3300009237421964250000C02C0100001316210000000000000                                                                                     PRATEN TAB 1 MGTAB     4
CC0000022324853H202100000554971700000554971726/10/20210531     3300009237421964250000C08CA300001313930000000000000                                                                                AMLODIPINO TAB 10 MGTAB     1
CC0000022324853H202100000554971700000554971726/10/20210531     3300009237421964250000N02BA100001276940000000000000                                                                  ACIDO ACETIL SALIC?LICO TAB 100 MGTAB     1
CC0000022324853H202100000554971700000554971726/10/20211046     3300010237421964250000N2AX0900001672040000000000000                                                                              TRAMADOL SLN INY 50 MGAMP     1
CC0000022324853H202100000554971700000554971726/10/20210532     3300009237421964250000N2AX0900001672040000000000000                                                                              TRAMADOL SLN INY 50 MGAMP     1
CC0000022324853H202100000554971700000554971726/10/20210533     3300009237421964250000A02BC700001684270000000000000                                                            OMEPRAZOL 40MG POLVO LIOFILIZADO AMPOLLAVAL     1
CC0000022324853H202100000554971700000554971726/10/20211822    31903331237421964250000V07A1300000502600000000000000                                                                                AGUA ESTERIL x 10 mlAMP     5
