CC0001002182810A202100000027628400000027628426/10/20210815    3190333624042196419000011083900000607700000000000000                                                               EXTENSION MONITOREO PRESION 1281  12"SIN     1
CC0001002182810A202100000027628400000027628426/10/20210815    3190333624042196419000036441300000236540000000000000                                                                    JERINGA 1 ML GASES ARTERIAL 9023SIN     2
CC0001002182810A202100000027628400000027628426/10/20210815    3190333624042196419000039176200000325450000000000000                                                             TUBO ENDOTRAQ 7.5 C/B Y ESPIRAL INTERNOSIN     1
CC0001002182810A202100000027628400000027628426/10/20210815    31903336240421964190000N01A0400003939010000000000000                                               MAYOPROFOL 200MG/20ML(1%) EMUL INY CAJ X 1VIAL X 20MLVAL     1
CC0001002182810A202100000027628400000027628426/10/20210815    3190333624042196419000038570000001123500000000000000                                                                              SONDA FOLEY #16 2 VIASSOB     1
CC0001002182810A202100000027628400000027628426/10/20210815    3190333624042196419000031188000000236790000000000000                                                                                     CISTOFLO ADULTOSIN     1
CC0001002182810A202100000027628400000027628426/10/20210815    3190333624042196419000016830000000970620000000000000                                                             SIST FIJACION CAT PERIFERICO 6.5X7 1683SOB     1
CC0001002182810A202100000027628400000027628426/10/20210815    31903336240421964190000Q1AA3300001585140000000000000                                                                         APOSITO TEGADERM 10*12 1626SOB     1
CC0001002182810A202100000027628400000027628426/10/20210815    31903336240421964190000Q1A11500000331560000000000000                                                                     CATETER RADIAL #20 REF. 115.090SIN     1
CC0001002182810A202100000027628400000027628426/10/20210815    3190333624042196419000011051900000226360000000000000                                                               KIT TRANSDUCTOR SENCILLO S/VAMP PX260SOB     1
CC0001002182810A202100000027628400000027628426/10/20210815    31903336240421964190000B1AB0100001227270000000000000                                             HEPAMAX 25000UI/5ML(5000UI/ML) SOL INY  CAJ X 25AMPX5MLAMP     1
CC0001002182810A202100000027628400000027628426/10/20210815    3190333624042196419000018351500000232840000000000000                                                                                    SEDA 2-0 KS 623HSIN     1
CC0001002182810A202100000027628400000027628426/10/20210815    3190333624042196419000043879200001138180000000000000                                                                                   HOJA BISTURI # 11SOB     1
CC0001002182810A202100000027628400000027628426/10/20210815    3190333624042196419000021193900000227540000000000000                                                              CATETER BILUME GARD ADULT 7F*20 26702ESIN     1
CC0001002182810A202100000027628400000027628426/10/20210815    3190333624042196419000011079100000231400000000000000                                                               COTONOIDE REF 801403 DE 2.5CM X 2.5CMPZA    20
CC0001002182810A202100000027628400000027628426/10/20210815    3190333624042196419000018351100000232850000000000000                                                                                 SEDA 2-0 SC-26 185TSIN     1
CC0001002182810A202100000027628400000027628426/10/20210815    3190333624042196419000019489000000599330000000000000                                                                           VICRYL 4-0 RB1 70 VCP304HSIN     2
CC0001002182810A202100000027628400000027628426/10/20210815    3190333624042196419000019487500000602970000000000000                                                                           VICRYL 2-0 CT1 90 VCP345HSIN     1
CC0001002182810A202100000027628400000027628426/10/20210815    3190333624042196419000012473200000232210000000000000                                                                 SUTURA ETHILON 3-0 SC-24 45CM  163TSIN     2
CC0001002182810A202100000027628400000027628426/10/20210815    3190333624042196419000011078700000231410000000000000                                                             COTONOIDE REF 801400 DE 1.27CM X 1.27CMSOB     1
CC0001002182810A202100000027628400000027628426/10/20210815    3190333624042196419000045138000001413890000000000000                                                                       LAPIZ ELECTROBISTURI  SOB X 1SOB     1
CC0001002182810A202100000027628400000027628426/10/20210815    3190333624042196419000000016100000314040000000000000                                                                ESPONJA HEMOSTATICA  GELFOAM ESPONJABOL     1
CC0001002182810A202100000027628400000027628426/10/20210815    3190333624042196419000011110600000231980000000000000                                                                       CERA HUESOS 25GM ESTERIL W31GSIN     1
CC0001002182810A202100000027628400000027628426/10/20210815    3190333624042196419000030161400001459220000000000000                                                                       MANGUERA SUCCION 6 MM*3.1 MTSSOB     1
CC0001002182810A202100000027628400000027628426/10/20210815    3190333624042196419000000102300000222960000000000000                                                                 JERINGA DESECHABLE SIN AGUJA X 20mLSIN     2
CC0001002182810A202100000027628400000027628426/10/20210815    31903336240421964190000Q1AA6900000531340000000000000                                                            CATETER PERIFE INTROCAN # 14G 4251890-04SIN     2
CC0001002182810A202100000027628400000027628426/10/20210815    3190333624042196419000043879400001138170000000000000                                                                  HOJA BISTURI # 10 CSSB 10 01002000SOB     1
CC0001002182810A202100000027628400000027628426/10/20210815    3190333624042196419000043879100001138200000000000000                                                                  HOJA BISTURI # 15 CSSB 15 01002003SOB     1
CC0001002182810A202100000027628400000027628426/10/20210815    3190333624042196419000022425200000548240000000000000                       EXTENSION DE ANESTESIA REF 1139 SOB X 1 SHERLEG  ADULTO BN EXENTO-DC.417/2020SIN     2
CC0001002182810A202100000027628400000027628426/10/20210815    3190333624042196419000035356500003919000000000000000                                                                                        LLAVE 3 VIASSOB     4
CC0001002182810A202100000027628400000027628426/10/20210815    3190333624042196419000022426800001140510000000000000                                                                    EQUIPO MACROGOTEO BAXTER MRC0001SOB     2
CC0001002182810A202100000027628400000027628426/10/20210815    31903336240421964190000J01DA300001239950000000000000                                                            CEFAZOLINA SODICA POLVO LIOF SLN INY 1 GVAL     2
CC0001002182810A202100000027628400000027628426/10/20210815    3190333624042196419000011073300001096420000000000000                                                                BOLSA DE SUCCION DE FLUIDOS x 2500mLBOL     1
CC0001002182810A202100000027628400000027628426/10/20210815    3190333624042196419000020750600000296780000000000000                                                                PLACA ELECTRO RETORNO PACIENTE E7506SIN     1
CC0001002182810A202100000027628400000027628426/10/20210815    3190333624042196419000011082700001620070000000000000                                                               EQUIPO SET PRIMARIO C/CLAVE REF 14001BOL     1
CC0001002182810A202100000027628400000027628426/10/20210815    3190333624042196419000053074400000607910000000000000                                                               GASA ESTERIL 10*10 SOBRE X 3 UNIDADESSOB     8
CC0001002182810A202100000027628400000027628426/10/20210815    3190333624042196419000024673000001411210000000000000                                                                  JERINGA DESECHABLE 3 ML 21 X 1 1/2SOB     2
CC0001002182810A202100000027628400000027628426/10/20210815    3190333624042196419000024674000000220660000000000000                             JERINGA A 3 PARTES CON AGUJA  SOB X 1 RYMCO  10ML BN EXENTO-DC.417/2020SIN     7
CC0001002182810A202100000027628400000027628426/10/20210815    3190333624042196419000024674500000322810000000000000                                                                   JERINGA DESECHABLE 20 ml 21*1 1/2SIN     1
CC0001002182810A202100000027628400000027628426/10/20210815    3190333624042196419000051515500000598160000000000000                                                                            MASCARILLA ANESTESIA # 5SIN     1
CC0001002182810A202100000027628400000027628426/10/20210815    3190333624042196419000011085400001083360000000000000                                                                       GUANTE QUIRURGICO TALLA 8 1/2SOB     1
CC0001002182810A202100000027628400000027628426/10/20210815    3190333624042196419000011085300001082140000000000000                                                                           GUANTE QUIRURGICO TALLA 8SOB     1
CC0001002182810A202100000027628400000027628426/10/20210815    3190333624042196419000011085200001585390000000000000                                                                       GUANTE QUIRURGICO TALLA 7 1/2SOB     1
CC0001002182810A202100000027628400000027628426/10/20210815    3190333624042196419000011085100001082120000000000000                                                                           GUANTE QUIRURGICO TALLA 7SOB     2
CC0001002182810A202100000027628400000027628426/10/20210815    3190333624042196419000043485100001618510000000000000                GUANTE QUIRURGICO DE LATEX REF 2D72N65X CAJ X 50 PROTEXIS  6.5 BN EXENTO-DC.417/2020SOB     3
CC0001002182810A202100000027628400000027628426/10/20210815    3190333624042196419000011099300000777780000000000000                                                                     FILTRO BACTERIANO VIRICO ADULTOBOL     1
CC0001002182810A202100000027628400000027628426/10/20210815    3190333624042196419000031010900000762730000000000000                                                                          CANULA GUEDEL # 4 (100 MM)SOB     1
CC0001002182810A202100000027628400000027628426/10/20210815    31903336240421964190000E1AD0200003888320000000000000                                                                              HARTMAN SLN INY 500 MLBOL     1
CC0001002182810A202100000027628400000027628426/10/20210815    31903336240421964190000E1AB0500003888400000000000000                                                              SOLUCION SALINA 0.9% SLN INY X 1000 MLBOL     6
CC0001002182810A202100000027628400000027628426/10/20210815    31903336240421964190000E1AB0300003888390000000000000                                                            SOLUCION SALINA 0.9% SLN INY BO X 500 MLBOL     6
CC0001002182810A202100000027628400000027628426/10/20210815    31903336240421964190000E1AB0700003888350000000000000                                                            SOLUCION SALINA 0.9% SLN INY BO X 250 MLBOL     1
CC0001002182810A202100000027628400000027628426/10/20210815    31903336240421964190000E1AB0200000199290000000000000                                                            SOLUCION SALINA 0.9% SLN INY BO X 100 MLBIN     2
CC0001002182810A202100000027628400000027628426/10/20210815    31903336240421964190000N1BA0300000217900000000000000                                                                    BUPIROP 0.5% C/E Sln Iny x 20 mlVAL     1
CC0001002182810A202100000027628400000027628426/10/20210815    31903336240421964190000M03A0900001467590000000000000                                                                        ROCURONIO SLN INY 50 MG/5 MLVAL     1
CC0001002182810A202100000027628400000027628426/10/20210815    31903336240421964190000A2BC0900000200150000000000000                                                                               ORAZOLE Sln Iny 40 mgCIN     1
CC0001002182810A202100000027628400000027628426/10/20210815    31903336240421964190000A03F0300001626860000000000000                                                                   METOCLOPRAMIDA SLN INY 10 MG/2 MLAMP     1
CC0001002182810A202100000027628400000027628426/10/20210815    31903336240421964190000N2BB0100000787510000000000000                                                                    DIPIRONA SODICA Sln Iny 1 g/2 mlAMP     1
CC0001002182810A202100000027628400000027628426/10/20210815    31903336240421964190000M01A2000001664970000000000000                                                               DICLOFENACO SODICO SLN INY 75 MG/3 MLAMP     1
CC0001002182810A202100000027628400000027628426/10/20210815    31903336240421964190000H02A0100001664960000000000000                                                                        DEXAMETASONA SLN INY 4 MG/MLAMP     3
CC0001002182810A202100000027628400000027628426/10/20210815    31903336240421964190000N2AA0100000301640000000000000                                                                            MORFINA Sln Iny 10 mg/mlAMP     1
CC0001002182810A202100000027628400000027628426/10/20210815    31903336240421964190000N1AH0200003906560000000000000                                                                     FENTANIL Iny 0.05 mg/ml x 10 mlAMP     2
