RC0001043714288H202100015122508400015122508426/10/20212054    3150056823742196425000011082200001407940000000000000                                                              EQUIPO EXT MICROTUBO Y 2 VALVUL 2N8371SOB     1
TI0001047229284H202100015122508400015122508426/10/20212054    31500568237421964250000Q1AA7300000610640000000000000                                                            CATETER PERIFE INTROCAN # 22G 4251628-04SIN     1
RC0001043714288H202100015122508400015122508426/10/20212054    31500568237421964250000Q1AA7400003911720000000000000                                                            CATETER PERIFE INTROCAN # 24G 4251601-04SOB     1
