RC0001043196370U202100050131376500050131376526/10/20211104    3190180623942196432000011048600000223020000000000000                                                                 JERINGA VACUNACION 3ML C/AGU 302542SIN     2
RC0001043196370U202100050131376500050131376526/10/20211104    3190180623942196432000011082700001620070000000000000                                                               EQUIPO SET PRIMARIO C/CLAVE REF 14001BOL     1
RC0001043196370U202100050131376500050131376526/10/20211104    3190180623942196432000030936900001431840000000000000                                                                                              BURETABOL     1
RC0001043196370U202100050131376500050131376526/10/20211104    31901806239421964320000E1AD0200003888320000000000000                                                                              HARTMAN SLN INY 500 MLBOL     1
