CC0000022328269H202100000554969600000554969626/10/20210913     3300009237421964250000A2BX0100001277280000000000000                                                                                ALSUCRAL TAB 1 G /R/TAB     3
CC0000022328269H202100000554969600000554969626/10/20212122     3300009237421964250000B1AB0200003939510000000000000                 ENOXAPARINA SODICA 40MG/0.4ML(100MG/ML) SOL INY INST CAJ X 2JERPREL X 0.4ML TECHDOWJRP     1
CC0000022328269H202100000554969600000554969626/10/20211549    31500221237421964250000E1AB0200000199290000000000000                                                            SOLUCION SALINA 0.9% SLN INY BO X 100 MLBIN     1
CC0000022328269H202100000554969600000554969626/10/20210913     3300009237421964250000C1BD0200000201790000000000000                                                                      CORDARONE SLN INY 150 MG/ 3 MLAMP     2
CC0000022328269H202100000554969600000554969626/10/20212122     3300009237421964250000C7AB1000001382030000000000000                                                                   NOREPINEFRINA SLN INY 4 MG / 4 MLAMP     8
CC0000022328269H202100000554969600000554969626/10/20210913     3300009237421964250000J01XA400001212420000000000000                                                               VANCOMICINA POLVO LIOF SLN INY 500 MGVAL     4
CC0000022328269H202100000554969600000554969626/10/20210913     3300009237421964250000V06B1000001243520000000000000                                                                           NEPRO AP LIQUIDO X 237 MLFCO     1
CC0000022328269H202100000554969600000554969626/10/20212122     3300009237421964250000C03C0100001672000000000000000                                                                       FUROSEMIDA SLN INY 20 MG/2 MLAMP     1
CC0000022328269H202100000554969600000554969626/10/20210914     3300009237421964250000C03C0100001672000000000000000                                                                       FUROSEMIDA SLN INY 20 MG/2 MLAMP     1
CC0000022328269H202100000554969600000554969626/10/20210512     3300010237421964250000C03C0100001672000000000000000                                                                       FUROSEMIDA SLN INY 20 MG/2 MLAMP     1
CC0000022328269H202100000554969600000554969626/10/20210913     3300009237421964250000C10AA500001314010000000000000                                                                             ATORVASTATINA TAB 40 MGTAB     1
CC0000022328269H202100000554969600000554969626/10/20210913     3300009237421964250000J01DH400001317770000000000000                                                                MEROPENEM POLVO LIOF SLN INY 1 G /R/CAJ     2
CC0000022328269H202100000554969600000554969626/10/20210913     3300009237421964250000N2BE2200001252930000000000000                                                                             ACETAMINOFEN Tab 500 MGTAB     4
CC0000022328269H202100000554969600000554969626/10/20211500    31902651237421964250000V07A1300000502600000000000000                                                                                AGUA ESTERIL x 10 mlAMP    10
