CC0001007795121H202100015042507100015042507126/10/20210827    31500082237421964250000V07A1300000502600000000000000                                                                                AGUA ESTERIL x 10 mlAMP     5
RC0001146543342H202100015042507100015042507126/10/20210827    31500082237421964250000V07A1300000502600000000000000                                                                                AGUA ESTERIL x 10 mlAMP     5
TI0001047048202H202100015042507100015042507126/10/20210827    31500082237421964250000V07A1300000502600000000000000                                                                                AGUA ESTERIL x 10 mlAMP    10
CC0001045686959H202100015042507100015042507126/10/20210827    31500082237421964250000V07A1300000502600000000000000                                                                                AGUA ESTERIL x 10 mlAMP     5
TI0001139430724H202100015042507100015042507126/10/20210827    31500082237421964250000V07A1300000502600000000000000                                                                                AGUA ESTERIL x 10 mlAMP     5
RC0001044662561H202100015042507100015042507126/10/20210827    31500082237421964250000V07A1300000502600000000000000                                                                                AGUA ESTERIL x 10 mlAMP     5
TI0001081819374H202100015042507100015042507126/10/20210827    31500082237421964250000V07A1300000502600000000000000                                                                                AGUA ESTERIL x 10 mlAMP     5
RC0001043709109H202100015042507100015042507126/10/20210827    31500082237421964250000V07A1300000502600000000000000                                                                                AGUA ESTERIL x 10 mlAMP     5
TI0001047047240H202100015042507100015042507126/10/20210827    31500082237421964250000V07A1300000502600000000000000                                                                                AGUA ESTERIL x 10 mlAMP     5
TI0001042265795H202100015042507100015042507126/10/20210827    31500082237421964250000V07A1300000502600000000000000                                                                                AGUA ESTERIL x 10 mlAMP     5
CC0001065132676H202100015042507100015042507126/10/20210827    31500082237421964250000V07A1300000502600000000000000                                                                                AGUA ESTERIL x 10 mlAMP    10
RC0001043710353H202100015042507100015042507126/10/20210827    31500082237421964250000V07A1300000502600000000000000                                                                                AGUA ESTERIL x 10 mlAMP     5
CC0001007795121H202100015042507100015042507126/10/20210827    3150008223742196425000024674000000220660000000000000                             JERINGA A 3 PARTES CON AGUJA  SOB X 1 RYMCO  10ML BN EXENTO-DC.417/2020SIN     5
RC0001146543342H202100015042507100015042507126/10/20210827    3150008223742196425000024674000000220660000000000000                             JERINGA A 3 PARTES CON AGUJA  SOB X 1 RYMCO  10ML BN EXENTO-DC.417/2020SIN     5
TI0001047048202H202100015042507100015042507126/10/20210827    3150008223742196425000024674000000220660000000000000                             JERINGA A 3 PARTES CON AGUJA  SOB X 1 RYMCO  10ML BN EXENTO-DC.417/2020SIN     5
CC0001045686959H202100015042507100015042507126/10/20210827    3150008223742196425000024674000000220660000000000000                             JERINGA A 3 PARTES CON AGUJA  SOB X 1 RYMCO  10ML BN EXENTO-DC.417/2020SIN    10
TI0001139430724H202100015042507100015042507126/10/20210827    3150008223742196425000024674000000220660000000000000                             JERINGA A 3 PARTES CON AGUJA  SOB X 1 RYMCO  10ML BN EXENTO-DC.417/2020SIN     5
RC0001044662561H202100015042507100015042507126/10/20210827    3150008223742196425000024674000000220660000000000000                             JERINGA A 3 PARTES CON AGUJA  SOB X 1 RYMCO  10ML BN EXENTO-DC.417/2020SIN     5
TI0001081819374H202100015042507100015042507126/10/20210827    3150008223742196425000024674000000220660000000000000                             JERINGA A 3 PARTES CON AGUJA  SOB X 1 RYMCO  10ML BN EXENTO-DC.417/2020SIN     5
RC0001043709109H202100015042507100015042507126/10/20210827    3150008223742196425000024674000000220660000000000000                             JERINGA A 3 PARTES CON AGUJA  SOB X 1 RYMCO  10ML BN EXENTO-DC.417/2020SIN     5
TI0001047047240H202100015042507100015042507126/10/20210827    3150008223742196425000024674000000220660000000000000                             JERINGA A 3 PARTES CON AGUJA  SOB X 1 RYMCO  10ML BN EXENTO-DC.417/2020SIN     5
TI0001042265795H202100015042507100015042507126/10/20210827    3150008223742196425000024674000000220660000000000000                             JERINGA A 3 PARTES CON AGUJA  SOB X 1 RYMCO  10ML BN EXENTO-DC.417/2020SIN     5
CC0001065132676H202100015042507100015042507126/10/20210827    3150008223742196425000024674000000220660000000000000                             JERINGA A 3 PARTES CON AGUJA  SOB X 1 RYMCO  10ML BN EXENTO-DC.417/2020SIN    10
RC0001043710353H202100015042507100015042507126/10/20210827    3150008223742196425000024674000000220660000000000000                             JERINGA A 3 PARTES CON AGUJA  SOB X 1 RYMCO  10ML BN EXENTO-DC.417/2020SIN     5
CC0001007795121H202100015042507100015042507126/10/20210827    3150008223742196425000043485100001618510000000000000                GUANTE QUIRURGICO DE LATEX REF 2D72N65X CAJ X 50 PROTEXIS  6.5 BN EXENTO-DC.417/2020SOB     3
RC0001146543342H202100015042507100015042507126/10/20210827    3150008223742196425000043485100001618510000000000000                GUANTE QUIRURGICO DE LATEX REF 2D72N65X CAJ X 50 PROTEXIS  6.5 BN EXENTO-DC.417/2020SOB     3
TI0001047048202H202100015042507100015042507126/10/20210827    3150008223742196425000043485100001618510000000000000                GUANTE QUIRURGICO DE LATEX REF 2D72N65X CAJ X 50 PROTEXIS  6.5 BN EXENTO-DC.417/2020SOB     3
RC0001043709109H202100015042507100015042507126/10/20210827    3150008223742196425000043485100001618510000000000000                GUANTE QUIRURGICO DE LATEX REF 2D72N65X CAJ X 50 PROTEXIS  6.5 BN EXENTO-DC.417/2020SOB     3
RC0001043710353H202100015042507100015042507126/10/20210827    3150008223742196425000043485100001618510000000000000                GUANTE QUIRURGICO DE LATEX REF 2D72N65X CAJ X 50 PROTEXIS  6.5 BN EXENTO-DC.417/2020SOB     2
CC0001007795121H202100015042507100015042507126/10/20210827    3150008223742196425000013077800000471960000000000000                                                             GASA NO TEJIDA EST 7.5 X 7.5 SOB X 3 UNSOB    20
RC0001146543342H202100015042507100015042507126/10/20210827    3150008223742196425000042753100003929850000000000000                   GASA ADHESIVA STRETCH REF 02037-00 ROL X 10MT FIXOMULL 10CM BN EXENTO-DC.417/2020CMT    10
TI0001047048202H202100015042507100015042507126/10/20210827    3150008223742196425000042753100003929850000000000000                   GASA ADHESIVA STRETCH REF 02037-00 ROL X 10MT FIXOMULL 10CM BN EXENTO-DC.417/2020CMT    10
RC0001043709109H202100015042507100015042507126/10/20210827    3150008223742196425000042753100003929850000000000000                   GASA ADHESIVA STRETCH REF 02037-00 ROL X 10MT FIXOMULL 10CM BN EXENTO-DC.417/2020CMT    10
RC0001043710353H202100015042507100015042507126/10/20210827    3150008223742196425000042753100003929850000000000000                   GASA ADHESIVA STRETCH REF 02037-00 ROL X 10MT FIXOMULL 10CM BN EXENTO-DC.417/2020CMT    10
CC0001007795121H202100015042507100015042507126/10/20210827    3150008223742196425000022426800001140510000000000000                                                                    EQUIPO MACROGOTEO BAXTER MRC0001SOB     1
CC0001007795121H202100015042507100015042507126/10/20210827    3150008223742196425000011082700001620070000000000000                                                               EQUIPO SET PRIMARIO C/CLAVE REF 14001BOL     1
RC0001146543342H202100015042507100015042507126/10/20210827    3150008223742196425000011082700001620070000000000000                                                               EQUIPO SET PRIMARIO C/CLAVE REF 14001BOL     2
TI0001047048202H202100015042507100015042507126/10/20210827    3150008223742196425000011082700001620070000000000000                                                               EQUIPO SET PRIMARIO C/CLAVE REF 14001BOL     2
TI0001139430724H202100015042507100015042507126/10/20210827    3150008223742196425000011082700001620070000000000000                                                               EQUIPO SET PRIMARIO C/CLAVE REF 14001BOL     1
TI0001081819374H202100015042507100015042507126/10/20210827    3150008223742196425000011082700001620070000000000000                                                               EQUIPO SET PRIMARIO C/CLAVE REF 14001BOL     1
RC0001043709109H202100015042507100015042507126/10/20210827    3150008223742196425000011082700001620070000000000000                                                               EQUIPO SET PRIMARIO C/CLAVE REF 14001BOL     2
CC0001007795121H202100015042507100015042507126/10/20210827    3150008223742196425000001956000001620610000000000000                                                                      CONECTOR MICRO CLAVE LAT-MC100SOB     1
RC0001146543342H202100015042507100015042507126/10/20210827    3150008223742196425000001956000001620610000000000000                                                                      CONECTOR MICRO CLAVE LAT-MC100SOB     2
TI0001047048202H202100015042507100015042507126/10/20210827    3150008223742196425000001956000001620610000000000000                                                                      CONECTOR MICRO CLAVE LAT-MC100SOB     2
RC0001043709109H202100015042507100015042507126/10/20210827    3150008223742196425000001956000001620610000000000000                                                                      CONECTOR MICRO CLAVE LAT-MC100SOB     2
CC0001007795121H202100015042507100015042507126/10/20210827    3150008223742196425000030936900001431840000000000000                                                                                              BURETABOL     1
RC0001146543342H202100015042507100015042507126/10/20210827    3150008223742196425000030936900001431840000000000000                                                                                              BURETABOL     1
TI0001047048202H202100015042507100015042507126/10/20210827    3150008223742196425000030936900001431840000000000000                                                                                              BURETABOL     1
TI0001139430724H202100015042507100015042507126/10/20210827    3150008223742196425000030936900001431840000000000000                                                                                              BURETABOL     1
TI0001081819374H202100015042507100015042507126/10/20210827    3150008223742196425000030936900001431840000000000000                                                                                              BURETABOL     1
RC0001043709109H202100015042507100015042507126/10/20210827    3150008223742196425000030936900001431840000000000000                                                                                              BURETABOL     1
CC0001007795121H202100015042507100015042507126/10/20210827    31500082237421964250000Q1A12700000659410000000000000                                                              AGUJA IMPLANT SURECAN 20*20MM 04448340SOB     1
TI0001081819374H202100015042507100015042507126/10/20210827    31500082237421964250000E1AD0200003888320000000000000                                                                              HARTMAN SLN INY 500 MLBOL     2
CC0001007795121H202100015042507100015042507126/10/20210827    31500082237421964250000E1AB0500003888400000000000000                                                              SOLUCION SALINA 0.9% SLN INY X 1000 MLBOL     4
CC0001007795121H202100015042507100015042507126/10/20210827    31500082237421964250000E1AB0300003888390000000000000                                                            SOLUCION SALINA 0.9% SLN INY BO X 500 MLBOL     4
CC0001065132676H202100015042507100015042507126/10/20210827    31500082237421964250000E1AB0300003888390000000000000                                                            SOLUCION SALINA 0.9% SLN INY BO X 500 MLBOL     4
CC0001007795121H202100015042507100015042507126/10/20210827    31500082237421964250000E1AB0700003888350000000000000                                                            SOLUCION SALINA 0.9% SLN INY BO X 250 MLBOL     1
CC0001007795121H202100015042507100015042507126/10/20210827    31500082237421964250000E1AB0200000199290000000000000                                                            SOLUCION SALINA 0.9% SLN INY BO X 100 MLBIN     6
RC0001146543342H202100015042507100015042507126/10/20210827    31500082237421964250000E1AB0200000199290000000000000                                                            SOLUCION SALINA 0.9% SLN INY BO X 100 MLBIN     2
TI0001047048202H202100015042507100015042507126/10/20210827    31500082237421964250000E1AB0200000199290000000000000                                                            SOLUCION SALINA 0.9% SLN INY BO X 100 MLBIN     8
RC0001043709109H202100015042507100015042507126/10/20210827    31500082237421964250000E1AB0200000199290000000000000                                                            SOLUCION SALINA 0.9% SLN INY BO X 100 MLBIN     2
CC0001065132676H202100015042507100015042507126/10/20210827    31500082237421964250000E1AB0200000199290000000000000                                                            SOLUCION SALINA 0.9% SLN INY BO X 100 MLBIN     4
TI0001042265795H202100015042507100015042507126/10/20210827    31500082237421964250000E1AA0100003888590000000000000                                                                        DEXTROSA 5% Sln Iny X 500 mlBOL     5
RC0001146543342H202100015042507100015042507126/10/20210827    31500082237421964250000E1AC0100000199400000000000000                                                                          SUERO MIXTO Sln Iny 500 mlBIN     3
TI0001047048202H202100015042507100015042507126/10/20210827    31500082237421964250000E1AC0100000199400000000000000                                                                          SUERO MIXTO Sln Iny 500 mlBIN     4
TI0001139430724H202100015042507100015042507126/10/20210827    31500082237421964250000E1AC0100000199400000000000000                                                                          SUERO MIXTO Sln Iny 500 mlBIN     4
RC0001044662561H202100015042507100015042507126/10/20210827    31500082237421964250000E1AC0100000199400000000000000                                                                          SUERO MIXTO Sln Iny 500 mlBIN     3
RC0001043709109H202100015042507100015042507126/10/20210827    31500082237421964250000E1AC0100000199400000000000000                                                                          SUERO MIXTO Sln Iny 500 mlBIN     3
TI0001047047240H202100015042507100015042507126/10/20210827    31500082237421964250000E1AC0100000199400000000000000                                                                          SUERO MIXTO Sln Iny 500 mlBIN     4
RC0001043710353H202100015042507100015042507126/10/20210827    31500082237421964250000E1AC0100000199400000000000000                                                                          SUERO MIXTO Sln Iny 500 mlBIN     2
