CC0000032651823H202100015012564500015012564526/10/20210126    3190115323742196425000022426800001140510000000000000                                                                    EQUIPO MACROGOTEO BAXTER MRC0001SOB     1
CC0000032651823H202100015012564500015012564526/10/20210126    31901153237421964250000B5BC0200003889280000000000000                                                                 OSMORIN MANITOL 20 % Bolsa X 500 mlBOL     1
CC0000032832774H202100015012564500015012564526/10/20210126    31901153237421964250000E1AB0300003888390000000000000                                                            SOLUCION SALINA 0.9% SLN INY BO X 500 MLBOL     2
CC0000022324853H202100015012564500015012564526/10/20210126    3190115323742196425000011127400001413910000000000000                                                            EQUIPO ADMINIST NUTR PUNZON REF 674669 BBOL     1
