CC0000055301433U202100050131379000050131379026/10/20211452    3150045723942196432000022426800001140510000000000000                                                                    EQUIPO MACROGOTEO BAXTER MRC0001SOB     1
CC0000055301433U202100050131379000050131379026/10/20211452    31500457239421964320000Q1AA7100000610620000000000000                                                            CATETER PERIFE INTROCAN # 18G 4251687-04SIN     1
CC0000055301433U202100050131379000050131379026/10/20211452    3150045723942196432000016830000000970620000000000000                                                             SIST FIJACION CAT PERIFERICO 6.5X7 1683SOB     1
CC0000055301433U202100050131379000050131379026/10/20211452    31500457239421964320000E1AD0200003888320000000000000                                                                              HARTMAN SLN INY 500 MLBOL     2
