CE0000244918093U202100050131384900050131384926/10/20212251    3190016523942196432000038568300000257010000000000000                                                                                   SONDA NELATON #08SIN     1
CE0000244920802U202100050131384900050131384926/10/20212251    3190016523942196432000038568300000257010000000000000                                                                                   SONDA NELATON #08SIN     1
RC0001044435833U202100050131384900050131384926/10/20212251    3190016523942196432000038568200000257000000000000000                                                                                   SONDA NELATON #06SIN     1
RC0001044435833U202100050131384900050131384926/10/20212251    31900165239421964320000B05C0200001339660000000000000                                                                        SOLUCION SALINA 0.9% X 10 MLJRP     1
CE0000244918093U202100050131384900050131384926/10/20212251    31900165239421964320000B05C0200001339660000000000000                                                                        SOLUCION SALINA 0.9% X 10 MLJRP     1
CE0000244920802U202100050131384900050131384926/10/20212251    31900165239421964320000B05C0200001339660000000000000                                                                        SOLUCION SALINA 0.9% X 10 MLJRP     1
RC0001044435833U202100050131384900050131384926/10/20212251    3190016523942196432000024674000000220660000000000000                             JERINGA A 3 PARTES CON AGUJA  SOB X 1 RYMCO  10ML BN EXENTO-DC.417/2020SIN     1
RC0001044435833U202100050131384900050131384926/10/20212251    31900165239421964320000Q0000200000473250000000000000                                                                             INHALOCAMARA PEDIATRICACIN     1
RC0001044435833U202100050131384900050131384926/10/20212251    31900165239421964320000E1AB0200000199290000000000000                                                            SOLUCION SALINA 0.9% SLN INY BO X 100 MLBIN     1
