CC0000085450634H202100015042506600015042506626/10/20210157    3190100923742196425000030161400001459220000000000000                                                                       MANGUERA SUCCION 6 MM*3.1 MTSSOB     1
CC0000085450634H202100015042506600015042506626/10/20210157    3190100923742196425000039176200000325450000000000000                                                             TUBO ENDOTRAQ 7.5 C/B Y ESPIRAL INTERNOSIN     1
CC0000085450634H202100015042506600015042506626/10/20210157    3190100923742196425000055816100001138270000000000000                                                            SET VENTILACI BASIC AD MP00349 180CM*22MBOL     1
CC0000085450634H202100015042506600015042506626/10/20210157    3190100923742196425000010252000003981620000000000000                                                            RESUCITADOR MANUAL ADULTO BE - 2503 AMBUBOL     1
CC0000085450634H202100015042506600015042506626/10/20210157    3190100923742196425000020816000001096410000000000000                                                                          LINER PARED DELGADA 1500CCBOL     1
