RC0001046723708U202100050131380800050131380826/10/20211748    3190180623942196432000024674000000220660000000000000                             JERINGA A 3 PARTES CON AGUJA  SOB X 1 RYMCO  10ML BN EXENTO-DC.417/2020SIN     2
RC0001046723708U202100050131380800050131380826/10/20211748    3190180623942196432000042743200003929860000000000000                   GASA ADHESIVA STRETCH REF 02038-00 ROL X 10MT FIXOMULL 15CM BN EXENTO-DC.417/2020CMT    15
RC0001046723708U202100050131380800050131380826/10/20211748    3190180623942196432000011082700001620070000000000000                                                               EQUIPO SET PRIMARIO C/CLAVE REF 14001BOL     1
RC0001046723708U202100050131380800050131380826/10/20211748    31901806239421964320000Q1AA7300000610640000000000000                                                            CATETER PERIFE INTROCAN # 22G 4251628-04SIN     1
RC0001046723708U202100050131380800050131380826/10/20211748    3190180623942196432000030936900001431840000000000000                                                                                              BURETABOL     1
RC0001046723708U202100050131380800050131380826/10/20211748    31901806239421964320000E1AD0200003888320000000000000                                                                              HARTMAN SLN INY 500 MLBOL     1
