CC0001047034752H202100015042507400015042507426/10/20211521    3190329423742196425000011082700001620070000000000000                                                               EQUIPO SET PRIMARIO C/CLAVE REF 14001BOL     1
CC0001047034752H202100015042507400015042507426/10/20211521    3190329423742196425000001956000001620610000000000000                                                                      CONECTOR MICRO CLAVE LAT-MC100SOB     1
CC0001047034752H202100015042507400015042507426/10/20211521    31903294237421964250000Q1AA7400003911720000000000000                                                            CATETER PERIFE INTROCAN # 24G 4251601-04SOB     2
CC0001047034752H202100015042507400015042507426/10/20211521    3190329423742196425000030936900001431840000000000000                                                                                              BURETABOL     1
CC0001047034752H202100015042507400015042507426/10/20211521    3190329423742196425000016830000000970620000000000000                                                             SIST FIJACION CAT PERIFERICO 6.5X7 1683SOB     1
RC0001043709109H202100015042507400015042507426/10/20211521    3190329423742196425000016830000000970620000000000000                                                             SIST FIJACION CAT PERIFERICO 6.5X7 1683SOB     1
