CC0001129498209H202100015052697100015052697126/10/20212138    3190278823742196425000024672100001609890000000000000                                                            JERINGA INSULINA 1ML TAPA NARANJA JEI013SOB     3
CC0000008764419H202100015052697100015052697126/10/20212138    31902788237421964250000E1AB0700003888350000000000000                                                            SOLUCION SALINA 0.9% SLN INY BO X 250 MLBOL     2
CC0001045739587H202100015052697100015052697126/10/20212138    31902788237421964250000E1AB0700003888350000000000000                                                            SOLUCION SALINA 0.9% SLN INY BO X 250 MLBOL     2
