CC0001140867779U202100050131372100050131372126/10/20210017    3150061723942196432000001956000001620610000000000000                                                                      CONECTOR MICRO CLAVE LAT-MC100SOB     1
CC0000072008590U202100050131372100050131372126/10/20210017    31500617239421964320000Q1AA7100000610620000000000000                                                            CATETER PERIFE INTROCAN # 18G 4251687-04SIN     1
CC0001140867779U202100050131372100050131372126/10/20210017    31500617239421964320000Q1AA7100000610620000000000000                                                            CATETER PERIFE INTROCAN # 18G 4251687-04SIN     1
CC0001140867779U202100050131372100050131372126/10/20210017    3150061723942196432000016830000000970620000000000000                                                             SIST FIJACION CAT PERIFERICO 6.5X7 1683SOB     1
