CC0000027001478U202100000554986700000554986726/10/20211808     3300004239421964320000A02BC100001677520000000000000                                                                ESOMEPRAZOL POLVO LIOF INY 40 MG /R/VAL     1
CC0000027001478U202100000554986700000554986726/10/20211239     3300004239421964320000A3BB0200000512940000000000000                                                                          BUSCAPINA SIMPLE Iny 20 mgAMP     1
CC0000027001478U202100000554986700000554986726/10/20211957     3300004239421964320000A03A0800001177800000000000000                                                                      COLYPAN SLN INY 50 MG/5 ML /R/AMP     1
CC0000027001478U202100000554986700000554986726/10/20211239     3300004239421964320000A03A0800001177800000000000000                                                                      COLYPAN SLN INY 50 MG/5 ML /R/AMP     2
CC0000027001478U202100000554986700000554986726/10/20211820    31902336239421964320000E1AC0100000199400000000000000                                                                          SUERO MIXTO Sln Iny 500 mlBIN     1
CC0000027001478U202100000554986700000554986726/10/20211303    31902336239421964320000E1AB0500003888400000000000000                                                              SOLUCION SALINA 0.9% SLN INY X 1000 MLBOL     1
CC0000027001478U202100000554986700000554986726/10/20211820    31902336239421964320000E1AD0300000199490000000000000                                         LACTATO RINGER USP (HARTMANN)  SOL INY  BOL X 1000ML BAXTERBIN     1
CC0000027001478U202100000554986700000554986726/10/20211807     3300004239421964320000J1CB0600000468340000000000000                                                           UNASYN IM-IV (1+0.5)GR POLV INY INST VIALVAL     2
CC0000027001478U202100000554986700000554986726/10/20211531     3300004239421964320000N2AX0400001204140000000000000                                                                             TRAMAL Sln Iny 50 mg/mlAMP     1
CC0000027001478U202100000554986700000554986726/10/20211751     3300004239421964320000N02B1100001169680000000000000                              PARACETAMOL 1000MG/100ML(10MG/ML) SOL INY  VIAL X 100ML FRESENIUS KABIVAL     3
