CC0000064549516H202100000554987000000554987026/10/20211248    31902977237421964250000J01DA300001239950000000000000                                                            CEFAZOLINA SODICA POLVO LIOF SLN INY 1 GVAL     3
CC0000064549516H202100000554987000000554987026/10/20211248    31902977237421964250000M1AE2500000191550000000000000                                                            PROFENID POLVO LIOF SLN INY 100MG/2ML/R/AMP     1
CC0000064549516H202100000554987000000554987026/10/20211248    31902977237421964250000N2AX0400001204140000000000000                                                                             TRAMAL Sln Iny 50 mg/mlAMP     2
CC0000064549516H202100000554987000000554987026/10/20211248    31902977237421964250000N02B1100001169680000000000000                              PARACETAMOL 1000MG/100ML(10MG/ML) SOL INY  VIAL X 100ML FRESENIUS KABIVAL     3
CC0000064549516H202100000554987000000554987026/10/20211248    31902977237421964250000N03A0800001278440000000000000                                                                                LYRICA CAP 75 MG /R/CAP     2
