CC0001143452132H202100000554977600000554977626/10/20210726     3300009237421964250000C2DE1400001277050000000000000                                                                         NIFEDIPINO CAPSULA LM 30 MGCAP     2
CC0001143452132H202100000554977600000554977626/10/20210726     3300009237421964250000H2AB0100000562660000000000000                                                                    BETAMETASONA SLN INY 8 MG / 2 MLAMP     2
CC0001143452132H202100000554977600000554977626/10/20210726     3300009237421964250000A03BB100003889180000000000000                                      HIOSCINA BUTIL BROMURO 20MG/ML SOL INY CAJ X 100AMP X 1ML RYANAMP     2
CC0001143452132H202100000554977600000554977626/10/20210726     3300009237421964250000N2BE2200001252930000000000000                                                                             ACETAMINOFEN Tab 500 MGTAB    16
