CC0000032678618H202100015112646200015112646226/10/20211144    3150022123742196425000038569400000256750000000000000                                                                        SONDA ASPIRACION CONTROL #14SIN     7
CC0000022328269H202100015112646200015112646226/10/20211144    3150022123742196425000022108000003906060000000000000                                                            SIST CERRAD ASPIRAC TRACH  22108-5 14 FRSOB     1
CC0000022328269H202100015112646200015112646226/10/20211144    3150022123742196425000036441300000236540000000000000                                                                    JERINGA 1 ML GASES ARTERIAL 9023SIN     2
CC0001042970504H202100015112646200015112646226/10/20211144    3150022123742196425000036441300000236540000000000000                                                                    JERINGA 1 ML GASES ARTERIAL 9023SIN     3
CC0000022328269H202100015112646200015112646226/10/20211144    3150022123742196425000024674000000220660000000000000                             JERINGA A 3 PARTES CON AGUJA  SOB X 1 RYMCO  10ML BN EXENTO-DC.417/2020SIN     3
CC0001042970504H202100015112646200015112646226/10/20211144    3150022123742196425000024674000000220660000000000000                             JERINGA A 3 PARTES CON AGUJA  SOB X 1 RYMCO  10ML BN EXENTO-DC.417/2020SIN     3
CC0000032678618H202100015112646200015112646226/10/20211144    3150022123742196425000043485100001618510000000000000                GUANTE QUIRURGICO DE LATEX REF 2D72N65X CAJ X 50 PROTEXIS  6.5 BN EXENTO-DC.417/2020SOB     6
CC0000022328269H202100015112646200015112646226/10/20211144    31500221237421964250000E1AB0200000199290000000000000                                                            SOLUCION SALINA 0.9% SLN INY BO X 100 MLBIN     1
