CC0000064555972H202100000554998000000554998026/10/20212215     3300009237421964250000A04A1400001467560000000000000                                                                      ONDANSETRON SLN INY 8 MG/ 4 MLVAL     1
CC0000064555972H202100000554998000000554998026/10/20212215     3300009237421964250000J01FF200003888100000000000000                                                                             EUROCLIN SLN INY 600 MGAMP     3
CC0000064555972H202100000554998000000554998026/10/20212215     3300009237421964250000N2BB1100000217160000000000000                                                                      NOVALGINA Sln Iny 2.5 g x 5 mlAMP     4
CC0000064555972H202100000554998000000554998026/10/20212215     3300009237421964250000N02B1100001169680000000000000                              PARACETAMOL 1000MG/100ML(10MG/ML) SOL INY  VIAL X 100ML FRESENIUS KABIVAL     4
CC0000064555972H202100000554998000000554998026/10/20212215     3300009237421964250000M1AX0200001569410000000000000                                                                         KETRON SLN INY 30 MG / 2 MLAMP     3
