CE0001010121550H202100000554971100000554971126/10/20210526     3300010237421964250000A3BB0200000512940000000000000                                                                          BUSCAPINA SIMPLE Iny 20 mgAMP     4
CE0001010121550H202100000554971100000554971126/10/20211718    31902335237421964250000E1AB0300003888390000000000000                                                            SOLUCION SALINA 0.9% SLN INY BO X 500 MLBOL     3
CE0001010121550H202100000554971100000554971126/10/20210527     3300010237421964250000N2AX0400001204140000000000000                                                                             TRAMAL Sln Iny 50 mg/mlAMP     2
CE0001010121550H202100000554971100000554971126/10/20210527     3300010237421964250000N02B1100001169680000000000000                              PARACETAMOL 1000MG/100ML(10MG/ML) SOL INY  VIAL X 100ML FRESENIUS KABIVAL     4
