CC0001026252011U202100000554998200000554998226/10/20212007    31500194239421964320000E1AD0300000199490000000000000                                         LACTATO RINGER USP (HARTMANN)  SOL INY  BOL X 1000ML BAXTERBIN     1
CC0001026252011U202100000554998200000554998226/10/20211933     3300004239421964320000H02AB500001664950000000000000                                                            DEXAMETASONA SLN INY 8 MG/2 ML AMP /CDS/AMP     1
CC0001026252011U202100000554998200000554998226/10/20211933     3300004239421964320000M1AB4700001314130000000000000                                                                                  VERUM TAB 8 MG /R/TAB     2
