CC0001140882221U202100050131376600050131376626/10/20211104    3190101223942196432000049419600001679900000000000000                                                                        VENDA ALGODON 4*5 NO ESTERILSOB     1
CC0001140882221U202100050131376600050131376626/10/20211104    3190101223942196432000011069000000212140000000000000                                                                      VASELINA QUIMIBEN POTE X 500 GTAR     1
CC0001140882221U202100050131376600050131376626/10/20211104    3190101223942196432000011048600000223020000000000000                                                                 JERINGA VACUNACION 3ML C/AGU 302542SIN     1
CC0001140882221U202100050131376600050131376626/10/20211104    3190101223942196432000013077800000471960000000000000                                                             GASA NO TEJIDA EST 7.5 X 7.5 SOB X 3 UNSOB    10
CC0001140882221U202100050131376600050131376626/10/20211104    31901012239421964320000E1AB0700003888350000000000000                                                            SOLUCION SALINA 0.9% SLN INY BO X 250 MLBOL     1
