CC0000036724804H202100015022521700015022521726/10/20211353    3190115123742196425000035356500003919000000000000000                                                                                        LLAVE 3 VIASSOB     2
RC0001146542960H202100015022521700015022521726/10/20211353    3190115123742196425000043485100001618510000000000000                GUANTE QUIRURGICO DE LATEX REF 2D72N65X CAJ X 50 PROTEXIS  6.5 BN EXENTO-DC.417/2020SOB     5
RC0001146542960H202100015022521700015022521726/10/20211353    3190115123742196425000053074400000607910000000000000                                                               GASA ESTERIL 10*10 SOBRE X 3 UNIDADESSOB     4
