CC0001045684571H202100000554968500000554968526/10/20211257    31901450237421964250000E1AB0200000199290000000000000                                                            SOLUCION SALINA 0.9% SLN INY BO X 100 MLBIN    10
CC0001045684571H202100000554968500000554968526/10/20210901     3300009237421964250000A12BA100000552980000000000000                                                            CLORURO POTASIO Sln Iny AMP 20 MEQ/10 MLAMP     2
CC0001045684571H202100000554968500000554968526/10/20212356     3300010237421964250000J02A0200000191070000000000000                                                            CANCIDAS POLVO LIOF SLN INY AMP 50MG /R/VAL     1
CC0001045684571H202100000554968500000554968526/10/20212356     3300010237421964250000N07X0300003913670000000000000                                    DEXMEDETOMIDINA 400MCG/100ML(4MCG/ML) SOL INY BOL X 100ML BAXTERBOL     2
CC0001045684571H202100000554968500000554968526/10/20210901     3300009237421964250000N07X0300003913670000000000000                                    DEXMEDETOMIDINA 400MCG/100ML(4MCG/ML) SOL INY BOL X 100ML BAXTERBOL     2
CC0001045684571H202100000554968500000554968526/10/20210901     3300009237421964250000V6DF2000001629900000000000000                                                                     ENSURE PLUS HN LIQUIDO X 237 MLFCO     3
CC0001045684571H202100000554968500000554968526/10/20211220     3300010237421964250000N1AH0200003906560000000000000                                                                     FENTANIL Iny 0.05 mg/ml x 10 mlAMP    10
CC0001045684571H202100000554968500000554968526/10/20212016     3300009237421964250000N5CD0300000218170000000000000                                                                          DORMICUM Sln Iny 5 mg/5 mlAMP     4
CC0001045684571H202100000554968500000554968526/10/20210342     3300010237421964250000N5CD0300000218170000000000000                                                                          DORMICUM Sln Iny 5 mg/5 mlAMP    40
CC0001045684571H202100000554968500000554968526/10/20210901     3300009237421964250000J01DH400001317770000000000000                                                                MEROPENEM POLVO LIOF SLN INY 1 G /R/CAJ     2
CC0001045684571H202100000554968500000554968526/10/20212357     3300010237421964250000N05A1700001278300000000000000                                                                            QUETIAPINA TAB 25 MG /R/TAB     2
CC0001045684571H202100000554968500000554968526/10/20210901     3300009237421964250000N05A1700001278300000000000000                                                                            QUETIAPINA TAB 25 MG /R/TAB     2
CC0001045684571H202100000554968500000554968526/10/20210901     3300009237421964250000A02BC700001684270000000000000                                                            OMEPRAZOL 40MG POLVO LIOFILIZADO AMPOLLAVAL     1
