CC0000022279276H202100015012565300015012565326/10/20211821    3150034723742196425000024674000000220660000000000000                             JERINGA A 3 PARTES CON AGUJA  SOB X 1 RYMCO  10ML BN EXENTO-DC.417/2020SIN     8
CC0000055163818H202100015012565300015012565326/10/20211821    3150034723742196425000024674000000220660000000000000                             JERINGA A 3 PARTES CON AGUJA  SOB X 1 RYMCO  10ML BN EXENTO-DC.417/2020SIN     8
CC0000064555972H202100015012565300015012565326/10/20211821    3150034723742196425000024674000000220660000000000000                             JERINGA A 3 PARTES CON AGUJA  SOB X 1 RYMCO  10ML BN EXENTO-DC.417/2020SIN     8
CC0000022279276H202100015012565300015012565326/10/20211821    3150034723742196425000022426800001140510000000000000                                                                    EQUIPO MACROGOTEO BAXTER MRC0001SOB     2
CC0000064555972H202100015012565300015012565326/10/20211821    3150034723742196425000022426800001140510000000000000                                                                    EQUIPO MACROGOTEO BAXTER MRC0001SOB     1
CC0000022279276H202100015012565300015012565326/10/20211821    3150034723742196425000030936900001431840000000000000                                                                                              BURETABOL     1
CC0000055163818H202100015012565300015012565326/10/20211821    3150034723742196425000030936900001431840000000000000                                                                                              BURETABOL     1
CC0000064555972H202100015012565300015012565326/10/20211821    3150034723742196425000030936900001431840000000000000                                                                                              BURETABOL     1
