TI0001044780621A202100000027624900000027624926/10/20211853    3190333624042196419000020057400001101600000000000000                                                                  AGUJA HIPODERMICA DESECH 21G X 1.5SOB     1
TI0001044780621A202100000027624900000027624926/10/20211853    3190333624042196419000020060000000225230000000000000                                                               AGUJA SPINOCAN 27G X 3 1/2 PU 4503902SIN     1
TI0001044780621A202100000027624900000027624926/10/20211853    3190333624042196419000036441300000236540000000000000                                                                    JERINGA 1 ML GASES ARTERIAL 9023SIN     2
TI0001044780621A202100000027624900000027624926/10/20211853    31903336240421964190000V3AB2200000614150000000000000                                                            GLUCONATO CALCIO SLN INY 10% AMP X 10 MLAPC     1
TI0001044780621A202100000027624900000027624926/10/20211853    31903336240421964190000E1AB0500003888400000000000000                                                              SOLUCION SALINA 0.9% SLN INY X 1000 MLBOL     4
TI0001044780621A202100000027624900000027624926/10/20211853    3190333624042196419000020042600000633850000000000000                                                                                       ASEPTOJERINGASIN     1
TI0001044780621A202100000027624900000027624926/10/20211853    3190333624042196419000011088800001318260000000000000                                                             GUANTE CIRUGIA NITRILO ALFASAFE TALLA 7SOB     2
TI0001044780621A202100000027624900000027624926/10/20211853    31903336240421964190000B02B0300000481440000000000000                                                                     OCTOSTIM SLN INY 15 MCG/ ML /R/AMP     1
TI0001044780621A202100000027624900000027624926/10/20211853    31903336240421964190000N01AF100001109600000000000000                                                               TIOPENTAL POLVO LIOFI SLN INY 1000 MGVAL     1
TI0001044780621A202100000027624900000027624926/10/20211853    3190333624042196419000038569800001124960000000000000                                                                              SONDA FOLEY #12 2 VIASSOB     1
TI0001044780621A202100000027624900000027624926/10/20211853    3190333624042196419000029988800000516620000000000000                                                             TUBO ENDOTRAQ 6.5 C/B Y ESPIRAL INTERNASIN     1
TI0001044780621A202100000027624900000027624926/10/20211853    31903336240421964190000J01F0200001689390000000000000                                                                        CLINDAMICINA INY 600 MG/4 MLAMP     2
TI0001044780621A202100000027624900000027624926/10/20211853    3190333624042196419000000602100000258610000000000000                                                                 APOSITO OPSITE REF 4986 15CM X 28CMSIN     2
TI0001044780621A202100000027624900000027624926/10/20211853    31903336240421964190000N01A0400003939010000000000000                                               MAYOPROFOL 200MG/20ML(1%) EMUL INY CAJ X 1VIAL X 20MLVAL     2
TI0001044780621A202100000027624900000027624926/10/20211853    31903336240421964190000N01A0500003844190000000000000                                                                          REMIFENTANILO SLN INY 2 MGVAL     1
TI0001044780621A202100000027624900000027624926/10/20211853    31903336240421964190000C01C0300001261020000000000000                                                               ETILEFRINA HCL SLN INY 10 MG/1 ML /R/AMP     1
TI0001044780621A202100000027624900000027624926/10/20211853    3190333624042196419000018610600000607940000000000000                                                               SENSOR ADULTO XP MONITOR 006-186-0106SIN     1
TI0001044780621A202100000027624900000027624926/10/20211853    31903336240421964190000B02AA100001407470000000000000                                                                    CLINTRANEX SLN INY 500 MG / 5 MLAMP     4
TI0001044780621A202100000027624900000027624926/10/20211853    3190333624042196419000030161400001459220000000000000                                                                       MANGUERA SUCCION 6 MM*3.1 MTSSOB     1
TI0001044780621A202100000027624900000027624926/10/20211853    3190333624042196419000019487500000602970000000000000                                                                           VICRYL 2-0 CT1 90 VCP345HSIN     1
TI0001044780621A202100000027624900000027624926/10/20211853    3190333624042196419000019487800001585180000000000000                                                                    VICRYL 1 PLUS 70 CM CT-1 VCP341HSOB     3
TI0001044780621A202100000027624900000027624926/10/20211853    3190333624042196419000015944000000632490000000000000                                                                           MONOCRYL 3-0 PS2  MCP427HSIN     2
TI0001044780621A202100000027624900000027624926/10/20211853    3190333624042196419000042535000000222080000000000000                                                              SISTEMA SUCCION EXOVAC 1/8PULG (3.2MM)CAJ     1
TI0001044780621A202100000027624900000027624926/10/20211853    3190333624042196419000045138000001413890000000000000                                                                       LAPIZ ELECTROBISTURI  SOB X 1SOB     2
TI0001044780621A202100000027624900000027624926/10/20211853    3190333624042196419000043879400001138170000000000000                                                                  HOJA BISTURI # 10 CSSB 10 01002000SOB     1
TI0001044780621A202100000027624900000027624926/10/20211853    3190333624042196419000043879100001138200000000000000                                                                  HOJA BISTURI # 15 CSSB 15 01002003SOB     1
TI0001044780621A202100000027624900000027624926/10/20211853    3190333624042196419000011110600000231980000000000000                                                                       CERA HUESOS 25GM ESTERIL W31GSIN     1
TI0001044780621A202100000027624900000027624926/10/20211853    3190333624042196419000044370800000224140000000000000                                                                                IOBAN 2 90 X 45 6650SIN     1
TI0001044780621A202100000027624900000027624926/10/20211853    3190333624042196419000031188000000236790000000000000                                                                                     CISTOFLO ADULTOSIN     1
TI0001044780621A202100000027624900000027624926/10/20211853    3190333624042196419000016830000000970620000000000000                                                             SIST FIJACION CAT PERIFERICO 6.5X7 1683SOB     1
TI0001044780621A202100000027624900000027624926/10/20211853    31903336240421964190000Q1A11500000331560000000000000                                                                     CATETER RADIAL #20 REF. 115.090SIN     1
TI0001044780621A202100000027624900000027624926/10/20211853    3190333624042196419000011051900000226360000000000000                                                               KIT TRANSDUCTOR SENCILLO S/VAMP PX260SOB     1
TI0001044780621A202100000027624900000027624926/10/20211853    31903336240421964190000B1AB0100001227270000000000000                                             HEPAMAX 25000UI/5ML(5000UI/ML) SOL INY  CAJ X 25AMPX5MLAMP     2
TI0001044780621A202100000027624900000027624926/10/20211853    31903336240421964190000Q1AA6900000531340000000000000                                                            CATETER PERIFE INTROCAN # 14G 4251890-04SIN     1
TI0001044780621A202100000027624900000027624926/10/20211853    31903336240421964190000Q1AA7000001097160000000000000                                                            CATETER PERIFE INTROCAN # 16G 4251709-04SOB     2
TI0001044780621A202100000027624900000027624926/10/20211853    3190333624042196419000022425200000548240000000000000                       EXTENSION DE ANESTESIA REF 1139 SOB X 1 SHERLEG  ADULTO BN EXENTO-DC.417/2020SIN     2
TI0001044780621A202100000027624900000027624926/10/20211853    3190333624042196419000035356500003919000000000000000                                                                                        LLAVE 3 VIASSOB     4
TI0001044780621A202100000027624900000027624926/10/20211853    31903336240421964190000Q1AA7100000610620000000000000                                                            CATETER PERIFE INTROCAN # 18G 4251687-04SIN     2
TI0001044780621A202100000027624900000027624926/10/20211853    3190333624042196419000022426800001140510000000000000                                                                    EQUIPO MACROGOTEO BAXTER MRC0001SOB     2
TI0001044780621A202100000027624900000027624926/10/20211853    3190333624042196419000011073300001096420000000000000                                                                BOLSA DE SUCCION DE FLUIDOS x 2500mLBOL     1
TI0001044780621A202100000027624900000027624926/10/20211853    3190333624042196419000020750600000296780000000000000                                                                PLACA ELECTRO RETORNO PACIENTE E7506SIN     2
TI0001044780621A202100000027624900000027624926/10/20211853    3190333624042196419000053074400000607910000000000000                                                               GASA ESTERIL 10*10 SOBRE X 3 UNIDADESSOB     9
TI0001044780621A202100000027624900000027624926/10/20211853    3190333624042196419000011047900000223010000000000000                                                                            JERINGA X 1ML REF 302579SIN     1
TI0001044780621A202100000027624900000027624926/10/20211853    3190333624042196419000024673000001411210000000000000                                                                  JERINGA DESECHABLE 3 ML 21 X 1 1/2SOB     1
TI0001044780621A202100000027624900000027624926/10/20211853    3190333624042196419000024674000000220660000000000000                             JERINGA A 3 PARTES CON AGUJA  SOB X 1 RYMCO  10ML BN EXENTO-DC.417/2020SIN     8
TI0001044780621A202100000027624900000027624926/10/20211853    3190333624042196419000024674500000322810000000000000                                                                   JERINGA DESECHABLE 20 ml 21*1 1/2SIN     2
TI0001044780621A202100000027624900000027624926/10/20211853    3190333624042196419000051515500000598160000000000000                                                                            MASCARILLA ANESTESIA # 5SIN     1
TI0001044780621A202100000027624900000027624926/10/20211853    3190333624042196419000038568100000258050000000000000                                                                         CANULA OXIGENO NASAL ADULTOSIN     1
TI0001044780621A202100000027624900000027624926/10/20211853    3190333624042196419000011085400001083360000000000000                                                                       GUANTE QUIRURGICO TALLA 8 1/2SOB     1
TI0001044780621A202100000027624900000027624926/10/20211853    3190333624042196419000011085300001082140000000000000                                                                           GUANTE QUIRURGICO TALLA 8SOB     1
TI0001044780621A202100000027624900000027624926/10/20211853    3190333624042196419000011085200001585390000000000000                                                                       GUANTE QUIRURGICO TALLA 7 1/2SOB     6
TI0001044780621A202100000027624900000027624926/10/20211853    3190333624042196419000011085100001082120000000000000                                                                           GUANTE QUIRURGICO TALLA 7SOB     1
TI0001044780621A202100000027624900000027624926/10/20211853    3190333624042196419000043485100001618510000000000000                GUANTE QUIRURGICO DE LATEX REF 2D72N65X CAJ X 50 PROTEXIS  6.5 BN EXENTO-DC.417/2020SOB     4
TI0001044780621A202100000027624900000027624926/10/20211853    3190333624042196419000039175000001072050000000000000                                                                           TUBO ENDOTRAQUEAL C/B 7.0SOB     1
TI0001044780621A202100000027624900000027624926/10/20211853    3190333624042196419000020056600001101530000000000000                                                                AGUJA HIPODERMICA DESECH 18G X 1 1/2SOB     1
TI0001044780621A202100000027624900000027624926/10/20211853    3190333624042196419000011099300000777780000000000000                                                                     FILTRO BACTERIANO VIRICO ADULTOBOL     1
TI0001044780621A202100000027624900000027624926/10/20211853    3190333624042196419000031010900000762730000000000000                                                                          CANULA GUEDEL # 4 (100 MM)SOB     1
TI0001044780621A202100000027624900000027624926/10/20211853    31903336240421964190000E1AD0200003888320000000000000                                                                              HARTMAN SLN INY 500 MLBOL     2
TI0001044780621A202100000027624900000027624926/10/20211853    31903336240421964190000E1AB0300003888390000000000000                                                            SOLUCION SALINA 0.9% SLN INY BO X 500 MLBOL     4
TI0001044780621A202100000027624900000027624926/10/20211853    31903336240421964190000E1AB0700003888350000000000000                                                            SOLUCION SALINA 0.9% SLN INY BO X 250 MLBOL     1
TI0001044780621A202100000027624900000027624926/10/20211853    31903336240421964190000E1AB0200000199290000000000000                                                            SOLUCION SALINA 0.9% SLN INY BO X 100 MLBIN     1
TI0001044780621A202100000027624900000027624926/10/20211853    31903336240421964190000M03A0900001467590000000000000                                                                        ROCURONIO SLN INY 50 MG/5 MLVAL     1
TI0001044780621A202100000027624900000027624926/10/20211853    31903336240421964190000A2BC0900000200150000000000000                                                                               ORAZOLE Sln Iny 40 mgCIN     1
TI0001044780621A202100000027624900000027624926/10/20211853    31903336240421964190000A03F0300001626860000000000000                                                                   METOCLOPRAMIDA SLN INY 10 MG/2 MLAMP     1
TI0001044780621A202100000027624900000027624926/10/20211853    31903336240421964190000N02BB100000777810000000000000                                                               DIPIRONA MAGNESICA SLN INY 2.5 G/5 MLAMP     1
TI0001044780621A202100000027624900000027624926/10/20211853    31903336240421964190000M01A2000001664970000000000000                                                               DICLOFENACO SODICO SLN INY 75 MG/3 MLAMP     1
TI0001044780621A202100000027624900000027624926/10/20211853    31903336240421964190000H02A0100001664960000000000000                                                                        DEXAMETASONA SLN INY 4 MG/MLAMP     2
TI0001044780621A202100000027624900000027624926/10/20211853    31903336240421964190000N2AA0100000301640000000000000                                                                            MORFINA Sln Iny 10 mg/mlAMP     2
