RC0001146542960H202100015022521800015022521826/10/20211437    3190330823742196425000024674000000220660000000000000                             JERINGA A 3 PARTES CON AGUJA  SOB X 1 RYMCO  10ML BN EXENTO-DC.417/2020SIN     8
RC0001146542960H202100015022521800015022521826/10/20211437    3190330823742196425000022426800001140510000000000000                                                                    EQUIPO MACROGOTEO BAXTER MRC0001SOB     1
RC0001146542960H202100015022521800015022521826/10/20211437    3190330823742196425000030936900001431840000000000000                                                                                              BURETABOL     1
CC0000008710257H202100015022521800015022521826/10/20211437    31903308237421964250000E1AB0500003888400000000000000                                                              SOLUCION SALINA 0.9% SLN INY X 1000 MLBOL     1
RC0001146542960H202100015022521800015022521826/10/20211437    31903308237421964250000E1AB0200000199290000000000000                                                            SOLUCION SALINA 0.9% SLN INY BO X 100 MLBIN     4
