CC0000072233154H202100000554978100000554978126/10/20210805    31500170237421964250000J01DA300001239950000000000000                                                            CEFAZOLINA SODICA POLVO LIOF SLN INY 1 GVAL     2
CC0000072233154H202100000554978100000554978126/10/20210756    31500170237421964250000J01DA300001239950000000000000                                                            CEFAZOLINA SODICA POLVO LIOF SLN INY 1 GVAL     2
CC0000072233154H202100000554978100000554978126/10/20210805    31500170237421964250000N2BB0200000513030000000000000                                                                           LISALGIL Sln Iny 2 g/5 mlAMP     1
CC0000072233154H202100000554978100000554978126/10/20210805    31500170237421964250000A03BB100003889180000000000000                                      HIOSCINA BUTIL BROMURO 20MG/ML SOL INY CAJ X 100AMP X 1ML RYANAMP     1
CC0000072233154H202100000554978100000554978126/10/20210756    31500170237421964250000A03BB100003889180000000000000                                      HIOSCINA BUTIL BROMURO 20MG/ML SOL INY CAJ X 100AMP X 1ML RYANAMP     2
CC0000072233154H202100000554978100000554978126/10/20210756    31500170237421964250000J01G0500001109560000000000000                                                                       AMIKACINA SLN INY 500 MG/2 MLAMP     2
CC0000072233154H202100000554978100000554978126/10/20210805    31500170237421964250000N2AX0900001672040000000000000                                                                              TRAMADOL SLN INY 50 MGAMP     2
CC0000072233154H202100000554978100000554978126/10/20210756    31500170237421964250000N2AX0900001672040000000000000                                                                              TRAMADOL SLN INY 50 MGAMP     2
