CC0000008509195H202100015052696900015052696926/10/20212025    3190163423742196425000011082700001620070000000000000                                                               EQUIPO SET PRIMARIO C/CLAVE REF 14001BOL     1
CC0001143157155H202100015052696900015052696926/10/20212025    3190163423742196425000011082700001620070000000000000                                                               EQUIPO SET PRIMARIO C/CLAVE REF 14001BOL     1
CC0001005573354H202100015052696900015052696926/10/20212025    3190163423742196425000011082700001620070000000000000                                                               EQUIPO SET PRIMARIO C/CLAVE REF 14001BOL     1
CC0001143157155H202100015052696900015052696926/10/20212025    3190163423742196425000001956000001620610000000000000                                                                      CONECTOR MICRO CLAVE LAT-MC100SOB     1
CC0001005573354H202100015052696900015052696926/10/20212025    3190163423742196425000001956000001620610000000000000                                                                      CONECTOR MICRO CLAVE LAT-MC100SOB     1
RC0001063188067H202100015052696900015052696926/10/20212025    3190163423742196425000001956000001620610000000000000                                                                      CONECTOR MICRO CLAVE LAT-MC100SOB     1
CC0001143157155H202100015052696900015052696926/10/20212025    31901634237421964250000Q1AA7300000610640000000000000                                                            CATETER PERIFE INTROCAN # 22G 4251628-04SIN     2
CC0001005573354H202100015052696900015052696926/10/20212025    31901634237421964250000Q1AA7300000610640000000000000                                                            CATETER PERIFE INTROCAN # 22G 4251628-04SIN     1
RC0001063188067H202100015052696900015052696926/10/20212025    31901634237421964250000Q1AA7400003911720000000000000                                                            CATETER PERIFE INTROCAN # 24G 4251601-04SOB     2
CC0000008509195H202100015052696900015052696926/10/20212025    3190163423742196425000030936900001431840000000000000                                                                                              BURETABOL     1
CC0001143157155H202100015052696900015052696926/10/20212025    3190163423742196425000030936900001431840000000000000                                                                                              BURETABOL     1
CC0001005573354H202100015052696900015052696926/10/20212025    3190163423742196425000030936900001431840000000000000                                                                                              BURETABOL     1
CC0000032683043H202100015052696900015052696926/10/20212025    3190163423742196425000030936900001431840000000000000                                                                                              BURETABOL     1
CC0001143157155H202100015052696900015052696926/10/20212025    3190163423742196425000016830000000970620000000000000                                                             SIST FIJACION CAT PERIFERICO 6.5X7 1683SOB     1
CC0001005573354H202100015052696900015052696926/10/20212025    3190163423742196425000016830000000970620000000000000                                                             SIST FIJACION CAT PERIFERICO 6.5X7 1683SOB     1
CC0000008509195H202100015052696900015052696926/10/20212025    31901634237421964250000E1AB0300003888390000000000000                                                            SOLUCION SALINA 0.9% SLN INY BO X 500 MLBOL     1
CC0001143157155H202100015052696900015052696926/10/20212025    31901634237421964250000E1AB0300003888390000000000000                                                            SOLUCION SALINA 0.9% SLN INY BO X 500 MLBOL     1
RC0001043711220H202100015052696900015052696926/10/20212025    31901634237421964250000E1AB0300003888390000000000000                                                            SOLUCION SALINA 0.9% SLN INY BO X 500 MLBOL     1
CC0001143120182H202100015052696900015052696926/10/20212025    31901634237421964250000E1AB0300003888390000000000000                                                            SOLUCION SALINA 0.9% SLN INY BO X 500 MLBOL     1
CC0001005573354H202100015052696900015052696926/10/20212025    31901634237421964250000E1AB0300003888390000000000000                                                            SOLUCION SALINA 0.9% SLN INY BO X 500 MLBOL     1
CC0001045685077H202100015052696900015052696926/10/20212025    31901634237421964250000E1AB0300003888390000000000000                                                            SOLUCION SALINA 0.9% SLN INY BO X 500 MLBOL     1
TI0001082997584H202100015052696900015052696926/10/20212025    31901634237421964250000E1AA0100003888590000000000000                                                                        DEXTROSA 5% Sln Iny X 500 mlBOL     1
RC0001063188067H202100015052696900015052696926/10/20212025    3190163423742196425000011133500001585140000000000000                                                              APOSITO TEGADERM REF 9536HP SOB X 1 3MSOB     1
