TI0001052089280H202100015052696500015052696526/10/20211459    3190101523742196425000011082700001620070000000000000                                                               EQUIPO SET PRIMARIO C/CLAVE REF 14001BOL     1
TI0001052089280H202100015052696500015052696526/10/20211459    3190101523742196425000030936900001431840000000000000                                                                                              BURETABOL     1
TI0001052089280H202100015052696500015052696526/10/20211459    31901015237421964250000E1AB0300003888390000000000000                                                            SOLUCION SALINA 0.9% SLN INY BO X 500 MLBOL     1
