CC0000072315066U202100000554985900000554985926/10/20211259    31902712239421964320000E1AB0200000199290000000000000                                                            SOLUCION SALINA 0.9% SLN INY BO X 100 MLBIN     1
CC0000072315066U202100000554985900000554985926/10/20211215     3300004239421964320000J7AA0600001602890000000000000                                                            VACUNA ANTITETANICA SUSP INY 40 UI/0.5MLVAL     1
CC0000072315066U202100000554985900000554985926/10/20211215     3300004239421964320000M1AB4000000829860000000000000                                                                          MOBIC SLN INY 15 MG/1.5 MLAMP     1
CC0000072315066U202100000554985900000554985926/10/20211215     3300004239421964320000N01B0200003888110000000000000                                           ROXICAINA SE 100MG/10ML(1%) SOL INY CAJ X 24AMPACK X 10MLAPC     1
