CC0001045681228U202100050131379400050131379426/10/20211522    3190101223942196432000012473300000232200000000000000                                                            SUTURA ETHILON 3-0 PS1 45CM NEGRA P1663TSIN     1
CC0001045681228U202100050131379400050131379426/10/20211522    3190101223942196432000011048600000223020000000000000                                                                 JERINGA VACUNACION 3ML C/AGU 302542SIN     1
CC0001045681228U202100050131379400050131379426/10/20211522    3190101223942196432000011047900000223010000000000000                                                                            JERINGA X 1ML REF 302579SIN     1
CC0001045681228U202100050131379400050131379426/10/20211522    3190101223942196432000011089300001083990000000000000                                                              GUANTE ESTERIL LATEX S/POLVO TALLA 7.5SOB     2
CC0001045681228U202100050131379400050131379426/10/20211522    3190101223942196432000013077800000471960000000000000                                                             GASA NO TEJIDA EST 7.5 X 7.5 SOB X 3 UNSOB     6
CC0001045681228U202100050131379400050131379426/10/20211522    31901012239421964320000E1AB0200000199290000000000000                                                            SOLUCION SALINA 0.9% SLN INY BO X 100 MLBIN     1
