TI0001073826213H202100015122507400015122507426/10/20210806    3190330723742196425000035356500003919000000000000000                                                                                        LLAVE 3 VIASSOB     2
RC0001187466818H202100015122507400015122507426/10/20210806    3190330723742196425000035356500003919000000000000000                                                                                        LLAVE 3 VIASSOB     2
RC0001158467183H202100015122507400015122507426/10/20210806    3190330723742196425000035356500003919000000000000000                                                                                        LLAVE 3 VIASSOB     2
RC0001146543698H202100015122507400015122507426/10/20210806    3190330723742196425000035356500003919000000000000000                                                                                        LLAVE 3 VIASSOB     2
TI0001080436271H202100015122507400015122507426/10/20210806    3190330723742196425000035356500003919000000000000000                                                                                        LLAVE 3 VIASSOB     2
TI0001046701779H202100015122507400015122507426/10/20210806    3190330723742196425000035356500003919000000000000000                                                                                        LLAVE 3 VIASSOB     2
RC0001043714288H202100015122507400015122507426/10/20210806    3190330723742196425000035356500003919000000000000000                                                                                        LLAVE 3 VIASSOB     2
TI0001047044339H202100015122507400015122507426/10/20210806    3190330723742196425000035356500003919000000000000000                                                                                        LLAVE 3 VIASSOB     2
TI0001073826213H202100015122507400015122507426/10/20210806    3190330723742196425000024674000000220660000000000000                             JERINGA A 3 PARTES CON AGUJA  SOB X 1 RYMCO  10ML BN EXENTO-DC.417/2020SIN    10
RC0001187466818H202100015122507400015122507426/10/20210806    3190330723742196425000024674000000220660000000000000                             JERINGA A 3 PARTES CON AGUJA  SOB X 1 RYMCO  10ML BN EXENTO-DC.417/2020SIN    10
RC0001158467183H202100015122507400015122507426/10/20210806    3190330723742196425000024674000000220660000000000000                             JERINGA A 3 PARTES CON AGUJA  SOB X 1 RYMCO  10ML BN EXENTO-DC.417/2020SIN    10
RC0001146543698H202100015122507400015122507426/10/20210806    3190330723742196425000024674000000220660000000000000                             JERINGA A 3 PARTES CON AGUJA  SOB X 1 RYMCO  10ML BN EXENTO-DC.417/2020SIN    10
TI0001080436271H202100015122507400015122507426/10/20210806    3190330723742196425000024674000000220660000000000000                             JERINGA A 3 PARTES CON AGUJA  SOB X 1 RYMCO  10ML BN EXENTO-DC.417/2020SIN    10
TI0001046701779H202100015122507400015122507426/10/20210806    3190330723742196425000024674000000220660000000000000                             JERINGA A 3 PARTES CON AGUJA  SOB X 1 RYMCO  10ML BN EXENTO-DC.417/2020SIN    10
RC0001043714288H202100015122507400015122507426/10/20210806    3190330723742196425000024674000000220660000000000000                             JERINGA A 3 PARTES CON AGUJA  SOB X 1 RYMCO  10ML BN EXENTO-DC.417/2020SIN    10
TI0001047044339H202100015122507400015122507426/10/20210806    3190330723742196425000024674000000220660000000000000                             JERINGA A 3 PARTES CON AGUJA  SOB X 1 RYMCO  10ML BN EXENTO-DC.417/2020SIN    10
TI0001073826213H202100015122507400015122507426/10/20210806    3190330723742196425000024673600000222980000000000000                                                                     JERINGA DESECHABLE 5 ml 27*11/2SIN    10
RC0001187466818H202100015122507400015122507426/10/20210806    3190330723742196425000024673600000222980000000000000                                                                     JERINGA DESECHABLE 5 ml 27*11/2SIN    10
RC0001158467183H202100015122507400015122507426/10/20210806    3190330723742196425000024673600000222980000000000000                                                                     JERINGA DESECHABLE 5 ml 27*11/2SIN    10
RC0001146543698H202100015122507400015122507426/10/20210806    3190330723742196425000024673600000222980000000000000                                                                     JERINGA DESECHABLE 5 ml 27*11/2SIN    10
TI0001080436271H202100015122507400015122507426/10/20210806    3190330723742196425000024673600000222980000000000000                                                                     JERINGA DESECHABLE 5 ml 27*11/2SIN    10
TI0001046701779H202100015122507400015122507426/10/20210806    3190330723742196425000024673600000222980000000000000                                                                     JERINGA DESECHABLE 5 ml 27*11/2SIN    10
RC0001043714288H202100015122507400015122507426/10/20210806    3190330723742196425000024673600000222980000000000000                                                                     JERINGA DESECHABLE 5 ml 27*11/2SIN    10
TI0001047044339H202100015122507400015122507426/10/20210806    3190330723742196425000024673600000222980000000000000                                                                     JERINGA DESECHABLE 5 ml 27*11/2SIN    10
RC0001158467183H202100015122507400015122507426/10/20210806    3190330723742196425000011082700001620070000000000000                                                               EQUIPO SET PRIMARIO C/CLAVE REF 14001BOL     1
TI0001080436271H202100015122507400015122507426/10/20210806    3190330723742196425000011082700001620070000000000000                                                               EQUIPO SET PRIMARIO C/CLAVE REF 14001BOL     1
TI0001073826213H202100015122507400015122507426/10/20210806    3190330723742196425000020056600001101530000000000000                                                                AGUJA HIPODERMICA DESECH 18G X 1 1/2SOB     2
RC0001187466818H202100015122507400015122507426/10/20210806    3190330723742196425000020056600001101530000000000000                                                                AGUJA HIPODERMICA DESECH 18G X 1 1/2SOB     2
RC0001158467183H202100015122507400015122507426/10/20210806    3190330723742196425000020056600001101530000000000000                                                                AGUJA HIPODERMICA DESECH 18G X 1 1/2SOB     2
RC0001146543698H202100015122507400015122507426/10/20210806    3190330723742196425000020056600001101530000000000000                                                                AGUJA HIPODERMICA DESECH 18G X 1 1/2SOB     2
TI0001080436271H202100015122507400015122507426/10/20210806    3190330723742196425000020056600001101530000000000000                                                                AGUJA HIPODERMICA DESECH 18G X 1 1/2SOB     2
TI0001046701779H202100015122507400015122507426/10/20210806    3190330723742196425000020056600001101530000000000000                                                                AGUJA HIPODERMICA DESECH 18G X 1 1/2SOB     2
RC0001043714288H202100015122507400015122507426/10/20210806    3190330723742196425000020056600001101530000000000000                                                                AGUJA HIPODERMICA DESECH 18G X 1 1/2SOB     2
TI0001047044339H202100015122507400015122507426/10/20210806    3190330723742196425000020056600001101530000000000000                                                                AGUJA HIPODERMICA DESECH 18G X 1 1/2SOB     2
RC0001146543698H202100015122507400015122507426/10/20210806    31903307237421964250000B5BC0100003889300000000000000                                                                        MANITOL SLN INY 20% X 500 MLBOL     1
TI0001073826213H202100015122507400015122507426/10/20210806    31903307237421964250000E1BA0100000198890000000000000                                                                   AGUA ESTERIL USP SLN INY X 500 MLBIN     2
RC0001187466818H202100015122507400015122507426/10/20210806    31903307237421964250000E1BA0100000198890000000000000                                                                   AGUA ESTERIL USP SLN INY X 500 MLBIN     2
RC0001158467183H202100015122507400015122507426/10/20210806    31903307237421964250000E1BA0100000198890000000000000                                                                   AGUA ESTERIL USP SLN INY X 500 MLBIN     2
TI0001073826213H202100015122507400015122507426/10/20210806    31903307237421964250000E1AD0300000199490000000000000                                         LACTATO RINGER USP (HARTMANN)  SOL INY  BOL X 1000ML BAXTERBIN     2
RC0001158467183H202100015122507400015122507426/10/20210806    31903307237421964250000E1AD0300000199490000000000000                                         LACTATO RINGER USP (HARTMANN)  SOL INY  BOL X 1000ML BAXTERBIN     1
RC0001146543698H202100015122507400015122507426/10/20210806    31903307237421964250000E1AD0300000199490000000000000                                         LACTATO RINGER USP (HARTMANN)  SOL INY  BOL X 1000ML BAXTERBIN     2
TI0001046701779H202100015122507400015122507426/10/20210806    31903307237421964250000E1AD0300000199490000000000000                                         LACTATO RINGER USP (HARTMANN)  SOL INY  BOL X 1000ML BAXTERBIN     5
TI0001047044339H202100015122507400015122507426/10/20210806    31903307237421964250000E1AD0300000199490000000000000                                         LACTATO RINGER USP (HARTMANN)  SOL INY  BOL X 1000ML BAXTERBIN     5
TI0001073826213H202100015122507400015122507426/10/20210806    31903307237421964250000E1AB0700003888350000000000000                                                            SOLUCION SALINA 0.9% SLN INY BO X 250 MLBOL     1
RC0001043714288H202100015122507400015122507426/10/20210806    31903307237421964250000E1AB0700003888350000000000000                                                            SOLUCION SALINA 0.9% SLN INY BO X 250 MLBOL     1
TI0001073826213H202100015122507400015122507426/10/20210806    31903307237421964250000E1AB1100003888280000000000000                                                                        SOLUCION SALINA 0.9% X 50 mlBOL     2
RC0001187466818H202100015122507400015122507426/10/20210806    31903307237421964250000E1AB1100003888280000000000000                                                                        SOLUCION SALINA 0.9% X 50 mlBOL     2
RC0001158467183H202100015122507400015122507426/10/20210806    31903307237421964250000E1AB1100003888280000000000000                                                                        SOLUCION SALINA 0.9% X 50 mlBOL     2
RC0001146543698H202100015122507400015122507426/10/20210806    31903307237421964250000E1AB1100003888280000000000000                                                                        SOLUCION SALINA 0.9% X 50 mlBOL     2
TI0001080436271H202100015122507400015122507426/10/20210806    31903307237421964250000E1AB1100003888280000000000000                                                                        SOLUCION SALINA 0.9% X 50 mlBOL     2
TI0001046701779H202100015122507400015122507426/10/20210806    31903307237421964250000E1AB1100003888280000000000000                                                                        SOLUCION SALINA 0.9% X 50 mlBOL     2
RC0001043714288H202100015122507400015122507426/10/20210806    31903307237421964250000E1AB1100003888280000000000000                                                                        SOLUCION SALINA 0.9% X 50 mlBOL     2
TI0001047044339H202100015122507400015122507426/10/20210806    31903307237421964250000E1AB1100003888280000000000000                                                                        SOLUCION SALINA 0.9% X 50 mlBOL     2
RC0001187466818H202100015122507400015122507426/10/20210806    31903307237421964250000E1AA0100003888590000000000000                                                                        DEXTROSA 5% Sln Iny X 500 mlBOL     1
