RC0001158467183H202100914826102600914826102626/10/20210827    3190330723742196425000011082700001620070000000000000                                                               EQUIPO SET PRIMARIO C/CLAVE REF 14001BOL     1
RC0001158467183H202100914826102600914826102626/10/20210827    31903307237421964250000E1AD0300000199490000000000000                                         LACTATO RINGER USP (HARTMANN)  SOL INY  BOL X 1000ML BAXTERBIN     1
RC0001158467183H202100914826102600914826102626/10/20211119    3150022123742196425000024161400000259870000000000000                                                                          SONDA TRACH CARE # 10 (MT)SIN     1
RC0001158467183H202100914826102600914826102626/10/20211119    3150022123742196425000024674000000220660000000000000                             JERINGA A 3 PARTES CON AGUJA  SOB X 1 RYMCO  10ML BN EXENTO-DC.417/2020SIN     3
RC0001158467183H202100914826102600914826102626/10/20211119    3150022123742196425000036441300000236540000000000000                                                                    JERINGA 1 ML GASES ARTERIAL 9023SIN     3
RC0001158467183H202100914826102600914826102626/10/20211119    31500221237421964250000Q1AA1000000256790000000000000                                                                         SONDA ASPIRACION CONTROL #8SIN     7
