PE0095070102201A202100000027626000000027626026/10/20210830    3190333624042196419000011075700000235270000000000000                                                                  CABESTRILLO SENC REF KM2000 ADULTOBOL     1
PE0095070102201A202100000027626000000027626026/10/20210830    3190333624042196419000042743200003929860000000000000                   GASA ADHESIVA STRETCH REF 02038-00 ROL X 10MT FIXOMULL 15CM BN EXENTO-DC.417/2020CMT    25
PE0095070102201A202100000027626000000027626026/10/20210830    3190333624042196419000040511700000258570000000000000                                                              APOSITO BACTIGRAS REF 7457 10CM X 10CMSIN     1
PE0095070102201A202100000027626000000027626026/10/20210830    3190333624042196419000019494500000458220000000000000                                                                                VICRYL RAPID INC 2-0SIN     1
PE0095070102201A202100000027626000000027626026/10/20210830    3190333624042196419000039176200000325450000000000000                                                             TUBO ENDOTRAQ 7.5 C/B Y ESPIRAL INTERNOSIN     1
PE0095070102201A202100000027626000000027626026/10/20210830    3190333624042196419000045138000001413890000000000000                                                                       LAPIZ ELECTROBISTURI  SOB X 1SOB     1
PE0095070102201A202100000027626000000027626026/10/20210830    3190333624042196419000018665700003929810000000000000                                                STOQUINETA ORTOPEDICA TUBULAR ROL X 25MT WINER 4PULGCMT     1
PE0095070102201A202100000027626000000027626026/10/20210830    3190333624042196419000049428300000860750000000000000                                                                       VENDA ELASTICA 4*5 NO ESTERILBOL     1
PE0095070102201A202100000027626000000027626026/10/20210830    3190333624042196419000019487500000602970000000000000                                                                           VICRYL 2-0 CT1 90 VCP345HSIN     1
PE0095070102201A202100000027626000000027626026/10/20210830    3190333624042196419000012473200000232210000000000000                                                                 SUTURA ETHILON 3-0 SC-24 45CM  163TSIN     1
PE0095070102201A202100000027626000000027626026/10/20210830    3190333624042196419000043879400001138170000000000000                                                                  HOJA BISTURI # 10 CSSB 10 01002000SOB     1
PE0095070102201A202100000027626000000027626026/10/20210830    3190333624042196419000043879100001138200000000000000                                                                  HOJA BISTURI # 15 CSSB 15 01002003SOB     1
PE0095070102201A202100000027626000000027626026/10/20210830    3190333624042196419000022425200000548240000000000000                       EXTENSION DE ANESTESIA REF 1139 SOB X 1 SHERLEG  ADULTO BN EXENTO-DC.417/2020SIN     1
PE0095070102201A202100000027626000000027626026/10/20210830    3190333624042196419000035356500003919000000000000000                                                                                        LLAVE 3 VIASSOB     2
PE0095070102201A202100000027626000000027626026/10/20210830    3190333624042196419000022426800001140510000000000000                                                                    EQUIPO MACROGOTEO BAXTER MRC0001SOB     1
PE0095070102201A202100000027626000000027626026/10/20210830    3190333624042196419000016830000000970620000000000000                                                             SIST FIJACION CAT PERIFERICO 6.5X7 1683SOB     1
PE0095070102201A202100000027626000000027626026/10/20210830    31903336240421964190000J01DA300001239950000000000000                                                            CEFAZOLINA SODICA POLVO LIOF SLN INY 1 GVAL     2
PE0095070102201A202100000027626000000027626026/10/20210830    3190333624042196419000011073300001096420000000000000                                                                BOLSA DE SUCCION DE FLUIDOS x 2500mLBOL     1
PE0095070102201A202100000027626000000027626026/10/20210830    3190333624042196419000030161400001459220000000000000                                                                       MANGUERA SUCCION 6 MM*3.1 MTSSOB     1
PE0095070102201A202100000027626000000027626026/10/20210830    3190333624042196419000020750600000296780000000000000                                                                PLACA ELECTRO RETORNO PACIENTE E7506SIN     1
PE0095070102201A202100000027626000000027626026/10/20210830    3190333624042196419000053074400000607910000000000000                                                               GASA ESTERIL 10*10 SOBRE X 3 UNIDADESSOB     2
PE0095070102201A202100000027626000000027626026/10/20210830    3190333624042196419000011085300001082140000000000000                                                                           GUANTE QUIRURGICO TALLA 8SOB     2
PE0095070102201A202100000027626000000027626026/10/20210830    3190333624042196419000011085100001082120000000000000                                                                           GUANTE QUIRURGICO TALLA 7SOB     2
PE0095070102201A202100000027626000000027626026/10/20210830    3190333624042196419000043485100001618510000000000000                GUANTE QUIRURGICO DE LATEX REF 2D72N65X CAJ X 50 PROTEXIS  6.5 BN EXENTO-DC.417/2020SOB     3
PE0095070102201A202100000027626000000027626026/10/20210830    3190333624042196419000038568100000258050000000000000                                                                         CANULA OXIGENO NASAL ADULTOSIN     1
PE0095070102201A202100000027626000000027626026/10/20210830    3190333624042196419000011099300000777780000000000000                                                                     FILTRO BACTERIANO VIRICO ADULTOBOL     1
PE0095070102201A202100000027626000000027626026/10/20210830    3190333624042196419000011047900000223010000000000000                                                                            JERINGA X 1ML REF 302579SIN     1
PE0095070102201A202100000027626000000027626026/10/20210830    3190333624042196419000024673000001411210000000000000                                                                  JERINGA DESECHABLE 3 ML 21 X 1 1/2SOB     1
PE0095070102201A202100000027626000000027626026/10/20210830    3190333624042196419000024674000000220660000000000000                             JERINGA A 3 PARTES CON AGUJA  SOB X 1 RYMCO  10ML BN EXENTO-DC.417/2020SIN     5
PE0095070102201A202100000027626000000027626026/10/20210830    31903336240421964190000E1AD0200003888320000000000000                                                                              HARTMAN SLN INY 500 MLBOL     2
PE0095070102201A202100000027626000000027626026/10/20210830    31903336240421964190000E1AB0500003888400000000000000                                                              SOLUCION SALINA 0.9% SLN INY X 1000 MLBOL     1
PE0095070102201A202100000027626000000027626026/10/20210830    31903336240421964190000E1AB0300003888390000000000000                                                            SOLUCION SALINA 0.9% SLN INY BO X 500 MLBOL     3
PE0095070102201A202100000027626000000027626026/10/20210830    31903336240421964190000E1AB0700003888350000000000000                                                            SOLUCION SALINA 0.9% SLN INY BO X 250 MLBOL     1
PE0095070102201A202100000027626000000027626026/10/20210830    31903336240421964190000N02B1100001169680000000000000                              PARACETAMOL 1000MG/100ML(10MG/ML) SOL INY  VIAL X 100ML FRESENIUS KABIVAL     1
PE0095070102201A202100000027626000000027626026/10/20210830    31903336240421964190000A2BC0900000200150000000000000                                                                               ORAZOLE Sln Iny 40 mgCIN     1
PE0095070102201A202100000027626000000027626026/10/20210830    31903336240421964190000M1AX0200001569410000000000000                                                                         KETRON SLN INY 30 MG / 2 MLAMP     1
PE0095070102201A202100000027626000000027626026/10/20210830    31903336240421964190000V3AB1900001177870000000000000                                                                      PROSTIGMINE Sln Iny 0.5 mg/ mlAMP     2
PE0095070102201A202100000027626000000027626026/10/20210830    31903336240421964190000S2BA0100000468160000000000000                                                                          SOLU-CORTEF SNL INY 100 MGVAL     1
PE0095070102201A202100000027626000000027626026/10/20210830    31903336240421964190000M01A0400001341250000000000000                                                                              DYNASTAT AMP 40 MG /R/VAL     1
PE0095070102201A202100000027626000000027626026/10/20210830    31903336240421964190000A4AD0200000202990000000000000                                                                     PLITICAN HCL Sln Iny 50 mg/2 mlAMP     1
PE0095070102201A202100000027626000000027626026/10/20210830    31903336240421964190000H02AB500001664950000000000000                                                            DEXAMETASONA SLN INY 8 MG/2 ML AMP /CDS/AMP     1
PE0095070102201A202100000027626000000027626026/10/20210830    31903336240421964190000A3BA0100001109400000000000000                                                                          ATROPINA SLN INY 1 MG / MLAMP     1
PE0095070102201A202100000027626000000027626026/10/20210830    31903336240421964190000N1BA1400000220050000000000000                                                                 ROXICAINA 2% C/EPIN Sln Iny x 50 mlFCO     1
PE0095070102201A202100000027626000000027626026/10/20210830    31903336240421964190000N01B0600003888900000000000000                                                    BUPINEST 75MG/10ML(0.75%) SOL INY CAJ X 24AMPACKAPC     1
PE0095070102201A202100000027626000000027626026/10/20210830    31903336240421964190000N5CD0300000218170000000000000                                                                          DORMICUM Sln Iny 5 mg/5 mlAMP     1
PE0095070102201A202100000027626000000027626026/10/20210830    31903336240421964190000N1AH0200003906560000000000000                                                                     FENTANIL Iny 0.05 mg/ml x 10 mlAMP     1
