CC0000019399557H202100000554971200000554971226/10/20211718    31902335237421964250000E1AB0300003888390000000000000                                                            SOLUCION SALINA 0.9% SLN INY BO X 500 MLBOL     3
CC0000019399557H202100000554971200000554971226/10/20210528     3300010237421964250000J3CB1300000547730000000000000                                                                         CIPRO SLN INY 200 MG/100 MLFCO     1
CC0000019399557H202100000554971200000554971226/10/20210527     3300010237421964250000N02B1100001169680000000000000                              PARACETAMOL 1000MG/100ML(10MG/ML) SOL INY  VIAL X 100ML FRESENIUS KABIVAL     2
