PA0000673754387H202100915473102600915473102626/10/20211945    3150034723742196425000022426800001140510000000000000                                                                    EQUIPO MACROGOTEO BAXTER MRC0001SOB     1
PA0000673754387H202100915473102600915473102626/10/20211945    3150034723742196425000024674000000220660000000000000                             JERINGA A 3 PARTES CON AGUJA  SOB X 1 RYMCO  10ML BN EXENTO-DC.417/2020SIN     8
PA0000673754387H202100915473102600915473102626/10/20211945    3150034723742196425000030936900001431840000000000000                                                                                              BURETABOL     1
PA0000673754387H202100915473102600915473102626/10/20212058    31900627237421964250000E1AD0200003888320000000000000                                                                              HARTMAN SLN INY 500 MLBOL     1
