CC0001143269433H202100015052696800015052696826/10/20211956    3190118923742196425000022426800001140510000000000000                                                                    EQUIPO MACROGOTEO BAXTER MRC0001SOB     1
CC0001045739587H202100015052696800015052696826/10/20211956    3190118923742196425000022426800001140510000000000000                                                                    EQUIPO MACROGOTEO BAXTER MRC0001SOB     1
CC0001143269433H202100015052696800015052696826/10/20211956    3190118923742196425000011082700001620070000000000000                                                               EQUIPO SET PRIMARIO C/CLAVE REF 14001BOL     2
CC0000022405998H202100015052696800015052696826/10/20211956    3190118923742196425000011082700001620070000000000000                                                               EQUIPO SET PRIMARIO C/CLAVE REF 14001BOL     1
CC0000008697210H202100015052696800015052696826/10/20211956    3190118923742196425000001956000001620610000000000000                                                                      CONECTOR MICRO CLAVE LAT-MC100SOB     1
CC0000008697210H202100015052696800015052696826/10/20211956    31901189237421964250000Q1AA7300000610640000000000000                                                            CATETER PERIFE INTROCAN # 22G 4251628-04SIN     2
CC0001143269433H202100015052696800015052696826/10/20211956    3190118923742196425000030936900001431840000000000000                                                                                              BURETABOL     2
CC0001045739587H202100015052696800015052696826/10/20211956    3190118923742196425000030936900001431840000000000000                                                                                              BURETABOL     1
CC0000008697210H202100015052696800015052696826/10/20211956    3190118923742196425000016830000000970620000000000000                                                             SIST FIJACION CAT PERIFERICO 6.5X7 1683SOB     1
CC0000072278313H202100015052696800015052696826/10/20211956    31901189237421964250000E1AB0300003888390000000000000                                                            SOLUCION SALINA 0.9% SLN INY BO X 500 MLBOL     1
CC0001129498209H202100015052696800015052696826/10/20211956    31901189237421964250000E1AB0300003888390000000000000                                                            SOLUCION SALINA 0.9% SLN INY BO X 500 MLBOL     2
