CC0000022549015H202100904426102600904426102626/10/20211851    3150056623742196425000016830000000970620000000000000                                                             SIST FIJACION CAT PERIFERICO 6.5X7 1683SOB     1
CC0000022549015H202100904426102600904426102626/10/20211851    31500566237421964250000Q1AA7300000610640000000000000                                                            CATETER PERIFE INTROCAN # 22G 4251628-04SIN     1
CC0000022549015H202100904426102600904426102626/10/20211851    3150056623742196425000001956000001620610000000000000                                                                      CONECTOR MICRO CLAVE LAT-MC100SOB     1
CC0000022549015H202100904426102600904426102626/10/20211900    31500065237421964250000Q1AA7300000610640000000000000                                                            CATETER PERIFE INTROCAN # 22G 4251628-04SIN     1
