CC0000022324853H202100000554989900000554989926/10/20211834    31500347237421964250000A6AG0100001107060000000000000                                                            ENEMA RECTAL FOSTATO SODIO BO X 133ML /RBOL     1
CC0000022324853H202100000554989900000554989926/10/20211856    31500347237421964250000A03F0500001692520000000000000                                                                   ALIZAPRIDA HCL SLN INY 50 MG/2 MLAMP     3
CC0000022324853H202100000554989900000554989926/10/20211456    31903331237421964250000C02AC200001559150000000000000                                                                              CLONIDINA TAB 0.150 MGTAB     1
CC0000022324853H202100000554989900000554989926/10/20211856    31500347237421964250000C02C0100001316210000000000000                                                                                     PRATEN TAB 1 MGTAB     4
CC0000022324853H202100000554989900000554989926/10/20211856    31500347237421964250000N2BE2200001252930000000000000                                                                             ACETAMINOFEN Tab 500 MGTAB     6
CC0000022324853H202100000554989900000554989926/10/20211456    31903331237421964250000N2AX0900001672040000000000000                                                                              TRAMADOL SLN INY 50 MGAMP     2
