RC0001146545026U202100050131382100050131382126/10/20211928    3190315823942196432000012475500000232250000000000000                                                                 SUTURA ETHILON 5-0 PS-2 45CM P1666TSIN     1
RC0001146545026U202100050131382100050131382126/10/20211928    3190315823942196432000011048600000223020000000000000                                                                 JERINGA VACUNACION 3ML C/AGU 302542SIN     1
RC0001146545026U202100050131382100050131382126/10/20211928    3190315823942196432000011047900000223010000000000000                                                                            JERINGA X 1ML REF 302579SIN     1
RC0001146545026U202100050131382100050131382126/10/20211928    3190315823942196432000011085200001585390000000000000                                                                       GUANTE QUIRURGICO TALLA 7 1/2SOB     2
RC0001146545026U202100050131382100050131382126/10/20211928    31903158239421964320000E1AB0200000199290000000000000                                                            SOLUCION SALINA 0.9% SLN INY BO X 100 MLBIN     1
