CC0000032678618H202100000554969500000554969526/10/20210920     3300009237421964250000B03BB200001351190000000000000                                                                            ACIDO FOLICO 1MG TABLETATAB     1
CC0000032678618H202100000554969500000554969526/10/20210921     3300009237421964250000B1AB0200003939510000000000000                 ENOXAPARINA SODICA 40MG/0.4ML(100MG/ML) SOL INY INST CAJ X 2JERPREL X 0.4ML TECHDOWJRP     1
CC0000032678618H202100000554969500000554969526/10/20210921     3300009237421964250000A11A2600000303300000000000000                                                                 GLUCERNA LIQUIDO 1.0 KCAL X 1500 MLFCO     1
CC0000032678618H202100000554969500000554969526/10/20211359     3300010237421964250000A02B0800001276960000000000000                                                                                 OMEPRAZOL CAP 20 MGCAP     1
CC0000032678618H202100000554969500000554969526/10/20212126     3300009237421964250000C02AC200001559150000000000000                                                                              CLONIDINA TAB 0.150 MGTAB     1
CC0000032678618H202100000554969500000554969526/10/20210920     3300009237421964250000C02AC200001559150000000000000                                                                              CLONIDINA TAB 0.150 MGTAB     1
CC0000032678618H202100000554969500000554969526/10/20212126     3300009237421964250000C02C0100001316210000000000000                                                                                     PRATEN TAB 1 MGTAB     1
CC0000032678618H202100000554969500000554969526/10/20210921     3300009237421964250000C02C0100001316210000000000000                                                                                     PRATEN TAB 1 MGTAB     1
CC0000032678618H202100000554969500000554969526/10/20212325     3300010237421964250000C7AB0100001276990000000000000                                                                            BETOPROLOL TAB 50 MG /R/TAB     1
CC0000032678618H202100000554969500000554969526/10/20210921     3300009237421964250000C7AB0100001276990000000000000                                                                            BETOPROLOL TAB 50 MG /R/TAB     1
CC0000032678618H202100000554969500000554969526/10/20210921     3300009237421964250000J01DH400001317770000000000000                                                                MEROPENEM POLVO LIOF SLN INY 1 G /R/CAJ     3
CC0000032678618H202100000554969500000554969526/10/20212126     3300009237421964250000N2BE2200001252930000000000000                                                                             ACETAMINOFEN Tab 500 MGTAB     2
CC0000032678618H202100000554969500000554969526/10/20210921     3300009237421964250000N2BE2200001252930000000000000                                                                             ACETAMINOFEN Tab 500 MGTAB     6
CC0000032678618H202100000554969500000554969526/10/20212126     3300009237421964250000N2AX0900001672040000000000000                                                                              TRAMADOL SLN INY 50 MGAMP     1
CC0000032678618H202100000554969500000554969526/10/20210921     3300009237421964250000N2AX0900001672040000000000000                                                                              TRAMADOL SLN INY 50 MGAMP     2
CC0000032678618H202100000554969500000554969526/10/20210921     3300009237421964250000A02BC700001684270000000000000                                                            OMEPRAZOL 40MG POLVO LIOFILIZADO AMPOLLAVAL     1
CC0000032678618H202100000554969500000554969526/10/20211500    31902651237421964250000V07A1300000502600000000000000                                                                                AGUA ESTERIL x 10 mlAMP    10
