CC0000003730931U202100050131378000050131378026/10/20211250    3150017723942196432000011048600000223020000000000000                                                                 JERINGA VACUNACION 3ML C/AGU 302542SIN     1
CC0000003730931U202100050131378000050131378026/10/20211250    3150017723942196432000024674000000220660000000000000                             JERINGA A 3 PARTES CON AGUJA  SOB X 1 RYMCO  10ML BN EXENTO-DC.417/2020SIN     1
CC0001129534117U202100050131378000050131378026/10/20211250    3150017723942196432000024673600000222980000000000000                                                                     JERINGA DESECHABLE 5 ml 27*11/2SIN     2
CC0001129534117U202100050131378000050131378026/10/20211250    3150017723942196432000011082700001620070000000000000                                                               EQUIPO SET PRIMARIO C/CLAVE REF 14001BOL     1
CC0000003730931U202100050131378000050131378026/10/20211250    3150017723942196432000011082700001620070000000000000                                                               EQUIPO SET PRIMARIO C/CLAVE REF 14001BOL     1
CC0000003730931U202100050131378000050131378026/10/20211250    3150017723942196432000001956000001620610000000000000                                                                      CONECTOR MICRO CLAVE LAT-MC100SOB     1
CC0001129534117U202100050131378000050131378026/10/20211250    31500177239421964320000Q1AA7100000610620000000000000                                                            CATETER PERIFE INTROCAN # 18G 4251687-04SIN     1
CC0001129534117U202100050131378000050131378026/10/20211250    3150017723942196432000030936900001431840000000000000                                                                                              BURETABOL     1
CC0000003730931U202100050131378000050131378026/10/20211250    3150017723942196432000030936900001431840000000000000                                                                                              BURETABOL     1
CC0001129534117U202100050131378000050131378026/10/20211250    3150017723942196432000016830000000970620000000000000                                                             SIST FIJACION CAT PERIFERICO 6.5X7 1683SOB     1
CC0000003730931U202100050131378000050131378026/10/20211250    3150017723942196432000016830000000970620000000000000                                                             SIST FIJACION CAT PERIFERICO 6.5X7 1683SOB     1
CC0001129534117U202100050131378000050131378026/10/20211250    31500177239421964320000E1AB0500003888400000000000000                                                              SOLUCION SALINA 0.9% SLN INY X 1000 MLBOL     1
CC0000003730931U202100050131378000050131378026/10/20211250    31500177239421964320000E1AB0500003888400000000000000                                                              SOLUCION SALINA 0.9% SLN INY X 1000 MLBOL     1
