CC0000022328269H202100015112645900015112645926/10/20210938    3150050123742196425000011089400001083350000000000000                                                              GUANTE ESTERIL LATEX S/POLVO TALLA 8.0SOB     1
CC0000032683043H202100015112645900015112645926/10/20210938    3150050123742196425000001956000001620610000000000000                                                                      CONECTOR MICRO CLAVE LAT-MC100SOB     1
CC0000032683043H202100015112645900015112645926/10/20210938    31500501237421964250000Q1AA7200000610630000000000000                                                            CATETER PERIFE INTROCAN # 20G 4251644-04SIN     2
CC0000032683043H202100015112645900015112645926/10/20210938    31500501237421964250000Q1AA7300000610640000000000000                                                            CATETER PERIFE INTROCAN # 22G 4251628-04SIN     1
CC0000032683043H202100015112645900015112645926/10/20210938    3150050123742196425000016830000000970620000000000000                                                             SIST FIJACION CAT PERIFERICO 6.5X7 1683SOB     1
