CC0000032683043H202100000554969800000554969826/10/20211413     3300010237421964250000B1AB1200003939350000000000000                 ENOXAPARINA SODICA 80MG/0.8ML(100MG/ML) SOL INY INST CAJ X 2JERPREL X 0.8ML TECHDOWJRP     2
CC0000032683043H202100000554969800000554969826/10/20211004    31902651237421964250000E1AD0300000199490000000000000                                         LACTATO RINGER USP (HARTMANN)  SOL INY  BOL X 1000ML BAXTERBIN     2
CC0000032683043H202100000554969800000554969826/10/20210912     3300009237421964250000C7AB1000001382030000000000000                                                                   NOREPINEFRINA SLN INY 4 MG / 4 MLAMP    10
CC0000032683043H202100000554969800000554969826/10/20210929     3300010237421964250000N1BA2400001195280000000000000                                                                    LIDOCAINA 2% S/E Sln Iny x 10 mlAMP     1
CC0000032683043H202100000554969800000554969826/10/20210928     3300010237421964250000N1BA2400001195280000000000000                                                                    LIDOCAINA 2% S/E Sln Iny x 10 mlAMP     1
CC0000032683043H202100000554969800000554969826/10/20211804     3300009237421964250000A02B0800001276960000000000000                                                                                 OMEPRAZOL CAP 20 MGCAP     1
CC0000032683043H202100000554969800000554969826/10/20210912     3300009237421964250000B01AB400000513360000000000000                                                                        CLENOX SLN INY 60 MG/ 0.6 MLJRP     2
CC0000032683043H202100000554969800000554969826/10/20211804     3300009237421964250000J01CR300001659480000000000000                                                                  DELBACTAM POLVO LIOF SLN INY 4.5 GVAL     1
CC0000032683043H202100000554969800000554969826/10/20210912     3300009237421964250000J01CR300001659480000000000000                                                                  DELBACTAM POLVO LIOF SLN INY 4.5 GVAL     3
CC0000032683043H202100000554969800000554969826/10/20211804     3300009237421964250000N2BE2200001252930000000000000                                                                             ACETAMINOFEN Tab 500 MGTAB     2
CC0000032683043H202100000554969800000554969826/10/20210912     3300009237421964250000N2BE2200001252930000000000000                                                                             ACETAMINOFEN Tab 500 MGTAB     4
CC0000032683043H202100000554969800000554969826/10/20210912     3300009237421964250000N2BB0100000787510000000000000                                                                    DIPIRONA SODICA Sln Iny 1 g/2 mlAMP     3
CC0000032683043H202100000554969800000554969826/10/20210511     3300010237421964250000N2BB0100000787510000000000000                                                                    DIPIRONA SODICA Sln Iny 1 g/2 mlAMP     1
CC0000032683043H202100000554969800000554969826/10/20210913     3300009237421964250000A02BC700001684270000000000000                                                            OMEPRAZOL 40MG POLVO LIOFILIZADO AMPOLLAVAL     1
CC0000032683043H202100000554969800000554969826/10/20211004    31902651237421964250000V07A1300000502600000000000000                                                                                AGUA ESTERIL x 10 mlAMP    10
