CC0000008761530H202100015112647300015112647326/10/20212315    3150007223742196425000013077800000471960000000000000                                                             GASA NO TEJIDA EST 7.5 X 7.5 SOB X 3 UNSOB     6
CC0000008761530H202100015112647300015112647326/10/20212315    3150007223742196425000042753100003929850000000000000                   GASA ADHESIVA STRETCH REF 02037-00 ROL X 10MT FIXOMULL 10CM BN EXENTO-DC.417/2020CMT    30
CC0000008761530H202100015112647300015112647326/10/20212315    3150007223742196425000011075700000235270000000000000                                                                  CABESTRILLO SENC REF KM2000 ADULTOBOL     1
CC0000022467890H202100015112647300015112647326/10/20212315    3150007223742196425000000602700001197200000000000000                                                              APOSITO TRANSP  1655 IV 8.5CM X 11.5CMSOB     1
CC0000008761530H202100015112647300015112647326/10/20212315    3150007223742196425000000602700001197200000000000000                                                              APOSITO TRANSP  1655 IV 8.5CM X 11.5CMSOB     2
CC0000072428894H202100015112647300015112647326/10/20212315    3150007223742196425000000602700001197200000000000000                                                              APOSITO TRANSP  1655 IV 8.5CM X 11.5CMSOB     1
