CC0000008761530H202100000554975800000554975826/10/20210904     3300009237421964250000A2BC0900000200150000000000000                                                                               ORAZOLE Sln Iny 40 mgCIN     1
CC0000008761530H202100000554975800000554975826/10/20210653     3300010237421964250000A10A1000000199230000000000000                                                                  HUMULIN N SLN Iny 100 UI/ ml 10 mlVAL     1
CC0000008761530H202100000554975800000554975826/10/20210904     3300009237421964250000B1AB0300003939210000000000000                 ENOXAPARINA SODICA 20MG/0.2ML(100MG/ML) SOL INY INST CAJ X 2JERPREL X 0.2ML TECHDOWJRP     1
CC0000008761530H202100000554975800000554975826/10/20211730    31500387237421964250000E1AB0200000199290000000000000                                                            SOLUCION SALINA 0.9% SLN INY BO X 100 MLBIN     6
CC0000008761530H202100000554975800000554975826/10/20211722    31500387237421964250000E1AB0200000199290000000000000                                                            SOLUCION SALINA 0.9% SLN INY BO X 100 MLBIN     4
CC0000008761530H202100000554975800000554975826/10/20212310    31500072237421964250000E1AB0300003888390000000000000                                                            SOLUCION SALINA 0.9% SLN INY BO X 500 MLBOL     3
CC0000008761530H202100000554975800000554975826/10/20210728    31900999237421964250000E1AA1400003888550000000000000                                                                         DEXTROSA 10% SLN INY 250 MLBOL     1
CC0000008761530H202100000554975800000554975826/10/20210904     3300009237421964250000J1CB0600000468340000000000000                                                           UNASYN IM-IV (1+0.5)GR POLV INY INST VIALVAL     3
CC0000008761530H202100000554975800000554975826/10/20210904     3300009237421964250000N07X0300003913670000000000000                                    DEXMEDETOMIDINA 400MCG/100ML(4MCG/ML) SOL INY BOL X 100ML BAXTERBOL     3
CC0000008761530H202100000554975800000554975826/10/20210653     3300010237421964250000N07X0300003913670000000000000                                    DEXMEDETOMIDINA 400MCG/100ML(4MCG/ML) SOL INY BOL X 100ML BAXTERBOL     1
CC0000008761530H202100000554975800000554975826/10/20211812     3300009237421964250000N05A0500001336370000000000000                                                                              SEROQUEL TAB 25 MG /R/TAB     2
CC0000008761530H202100000554975800000554975826/10/20211551     3300010237421964250000V06B1000001243520000000000000                                                                           NEPRO AP LIQUIDO X 237 MLFCO     6
CC0000008761530H202100000554975800000554975826/10/20211316     3300010237421964250000V06B1000001243520000000000000                                                                           NEPRO AP LIQUIDO X 237 MLFCO     4
CC0000008761530H202100000554975800000554975826/10/20211730    31500387237421964250000V07A1300000502600000000000000                                                                                AGUA ESTERIL x 10 mlAMP     6
CC0000008761530H202100000554975800000554975826/10/20211722    31500387237421964250000V07A1300000502600000000000000                                                                                AGUA ESTERIL x 10 mlAMP     4
