RC0001044652829H202100000554984700000554984726/10/20211132    31500065237421964250000J1CB0600000468340000000000000                                                           UNASYN IM-IV (1+0.5)GR POLV INY INST VIALVAL     3
RC0001044652829H202100000554984700000554984726/10/20211132    31500065237421964250000N2BB0500000217140000000000000                                                                          NOVALGINA Sln Iny 1 g/2 mlAMP     1
RC0001044652829H202100000554984700000554984726/10/20211134    31500065237421964250000N02B1100001169680000000000000                              PARACETAMOL 1000MG/100ML(10MG/ML) SOL INY  VIAL X 100ML FRESENIUS KABIVAL     2
