CE0001010121550H202100000554999200000554999226/10/20212008    31902606237421964250000A3BB0200000512940000000000000                                                                          BUSCAPINA SIMPLE Iny 20 mgAMP     2
CE0001010121550H202100000554999200000554999226/10/20212008    31902606237421964250000N2AX0400001204140000000000000                                                                             TRAMAL Sln Iny 50 mg/mlAMP     2
CE0001010121550H202100000554999200000554999226/10/20212008    31902606237421964250000N02B1100001169680000000000000                              PARACETAMOL 1000MG/100ML(10MG/ML) SOL INY  VIAL X 100ML FRESENIUS KABIVAL     2
