CC0000008710257H202100015022521600015022521626/10/20211334    31903308237421964250000V07A1300000502600000000000000                                                                                AGUA ESTERIL x 10 mlAMP     8
CC0000008710257H202100015022521600015022521626/10/20211334    3190330823742196425000024674000000220660000000000000                             JERINGA A 3 PARTES CON AGUJA  SOB X 1 RYMCO  10ML BN EXENTO-DC.417/2020SIN    12
CC0000008710257H202100015022521600015022521626/10/20211334    3190330823742196425000022426800001140510000000000000                                                                    EQUIPO MACROGOTEO BAXTER MRC0001SOB     1
CC0000008710257H202100015022521600015022521626/10/20211334    3190330823742196425000030936900001431840000000000000                                                                                              BURETABOL     1
