CC0001045686959H202100015042507200015042507226/10/20210900    3190329423742196425000043485100001618510000000000000                GUANTE QUIRURGICO DE LATEX REF 2D72N65X CAJ X 50 PROTEXIS  6.5 BN EXENTO-DC.417/2020SOB     3
CC0001045686959H202100015042507200015042507226/10/20210900    3190329423742196425000013077800000471960000000000000                                                             GASA NO TEJIDA EST 7.5 X 7.5 SOB X 3 UNSOB    10
CC0001045686959H202100015042507200015042507226/10/20210900    3190329423742196425000011082700001620070000000000000                                                               EQUIPO SET PRIMARIO C/CLAVE REF 14001BOL     2
CC0001045686959H202100015042507200015042507226/10/20210900    3190329423742196425000001956000001620610000000000000                                                                      CONECTOR MICRO CLAVE LAT-MC100SOB     2
CC0001045686959H202100015042507200015042507226/10/20210900    3190329423742196425000030936900001431840000000000000                                                                                              BURETABOL     1
TI0001047048202H202100015042507200015042507226/10/20210900    31903294237421964250000E1AB0700003888350000000000000                                                            SOLUCION SALINA 0.9% SLN INY BO X 250 MLBOL     3
CC0001065132676H202100015042507200015042507226/10/20210900    31903294237421964250000E1AB0700003888350000000000000                                                            SOLUCION SALINA 0.9% SLN INY BO X 250 MLBOL     3
