CC0000022416968H202100000554985800000554985826/10/20211206    31903300237421964250000A6AC0200001467010000000000000                                                             LACTULAX JARABE 66.7G/100ML SOX15ML /R/SOB     3
CC0000022416968H202100000554985800000554985826/10/20211206    31903300237421964250000B02AA100001407470000000000000                                                                    CLINTRANEX SLN INY 500 MG / 5 MLAMP     4
CC0000022416968H202100000554985800000554985826/10/20211206    31903300237421964250000C09CA400001277130000000000000                                                                                  LOSARTAN TAB 50 MGTAB     2
CC0000022416968H202100000554985800000554985826/10/20211206    31903300237421964250000N2AX0900001672040000000000000                                                                              TRAMADOL SLN INY 50 MGAMP     3
