TI0001047229284H202100015122508300015122508326/10/20212022    3150056823742196425000022426800001140510000000000000                                                                    EQUIPO MACROGOTEO BAXTER MRC0001SOB     1
TI0001047229284H202100015122508300015122508326/10/20212022    3150056823742196425000011082700001620070000000000000                                                               EQUIPO SET PRIMARIO C/CLAVE REF 14001BOL     1
TI0001047229284H202100015122508300015122508326/10/20212022    3150056823742196425000011082200001407940000000000000                                                              EQUIPO EXT MICROTUBO Y 2 VALVUL 2N8371SOB     1
TI0001047229284H202100015122508300015122508326/10/20212022    3150056823742196425000030936900001431840000000000000                                                                                              BURETABOL     1
