CC0001143227023H202100015052695500015052695526/10/20210719    3190323923742196425000038569400000256750000000000000                                                                        SONDA ASPIRACION CONTROL #14SIN     7
CC0001143269433H202100015052695500015052695526/10/20210719    3190323923742196425000038569400000256750000000000000                                                                        SONDA ASPIRACION CONTROL #14SIN     7
CC0001143227023H202100015052695500015052695526/10/20210719    3190323923742196425000036441300000236540000000000000                                                                    JERINGA 1 ML GASES ARTERIAL 9023SIN     4
CC0001143227023H202100015052695500015052695526/10/20210719    3190323923742196425000024674000000220660000000000000                             JERINGA A 3 PARTES CON AGUJA  SOB X 1 RYMCO  10ML BN EXENTO-DC.417/2020SIN     2
CC0001143269433H202100015052695500015052695526/10/20210719    3190323923742196425000024674000000220660000000000000                             JERINGA A 3 PARTES CON AGUJA  SOB X 1 RYMCO  10ML BN EXENTO-DC.417/2020SIN     2
CC0001143227023H202100015052695500015052695526/10/20210719    3190323923742196425000011085100001082120000000000000                                                                           GUANTE QUIRURGICO TALLA 7SOB     7
CC0001143269433H202100015052695500015052695526/10/20210719    3190323923742196425000011085100001082120000000000000                                                                           GUANTE QUIRURGICO TALLA 7SOB     7
CC0001143227023H202100015052695500015052695526/10/20210719    3190323923742196425000013077800000471960000000000000                                                             GASA NO TEJIDA EST 7.5 X 7.5 SOB X 3 UNSOB     4
CC0001143269433H202100015052695500015052695526/10/20210719    3190323923742196425000013077800000471960000000000000                                                             GASA NO TEJIDA EST 7.5 X 7.5 SOB X 3 UNSOB     4
CC0001143227023H202100015052695500015052695526/10/20210719    31903239237421964250000E1AB0200000199290000000000000                                                            SOLUCION SALINA 0.9% SLN INY BO X 100 MLBIN     1
CC0001143269433H202100015052695500015052695526/10/20210719    31903239237421964250000E1AB0200000199290000000000000                                                            SOLUCION SALINA 0.9% SLN INY BO X 100 MLBIN     2
