RC0001044662561H202100000554973700000554973726/10/20210836     3300010237421964250000A6AC0200001467010000000000000                                                             LACTULAX JARABE 66.7G/100ML SOX15ML /R/SOB     1
RC0001044662561H202100000554973700000554973726/10/20211719    31500082237421964250000E1AC0100000199400000000000000                                                                          SUERO MIXTO Sln Iny 500 mlBIN     3
RC0001044662561H202100000554973700000554973726/10/20210542    31500213237421964250000E1AC0100000199400000000000000                                                                          SUERO MIXTO Sln Iny 500 mlBIN     2
RC0001044662561H202100000554973700000554973726/10/20210848     3300010237421964250000H2AB0200001276910000000000000                                                                               PREDNISOLONA TAB 5 MGTAB     6
RC0001044662561H202100000554973700000554973726/10/20211719    31500082237421964250000V07A1300000502600000000000000                                                                                AGUA ESTERIL x 10 mlAMP     5
RC0001044662561H202100000554973700000554973726/10/20210542    31500213237421964250000V07A1300000502600000000000000                                                                                AGUA ESTERIL x 10 mlAMP     4
RC0001044662561H202100000554973700000554973726/10/20210848     3300010237421964250000A04AA200003932460000000000000                                                 ONDAX 4MG/2ML(2MG/ML) SOL INY INST CAJ X 1AMP X 2MLAMP     3
