CC0001001283069A202100000027626700000027626726/10/20211002    31903336240421964190000M1AB0900001019600000000000000                                                                              VOLTAREN Sln Iny 75 mgAMP     1
CC0001001283069A202100000027626700000027626726/10/20211002    31903336240421964190000N1BA1400000220050000000000000                                                                 ROXICAINA 2% C/EPIN Sln Iny x 50 mlFCO     1
CC0001001283069A202100000027626700000027626726/10/20211002    3190333624042196419000029988800000516620000000000000                                                             TUBO ENDOTRAQ 6.5 C/B Y ESPIRAL INTERNASIN     1
CC0001001283069A202100000027626700000027626726/10/20211002    31903336240421964190000M03AC100000197200000000000000                                                                   TRACURION SLN INY 10 MG /5 ML /R/AMP     1
CC0001001283069A202100000027626700000027626726/10/20211002    3190333624042196419000019488700000753270000000000000                                                                              VICRYL 3-0 SH1 VCP311HSOB     1
CC0001001283069A202100000027626700000027626726/10/20211002    3190333624042196419000043879100001138200000000000000                                                                  HOJA BISTURI # 15 CSSB 15 01002003SOB     1
CC0001001283069A202100000027626700000027626726/10/20211002    31903336240421964190000Q1AA6900000531340000000000000                                                            CATETER PERIFE INTROCAN # 14G 4251890-04SIN     1
CC0001001283069A202100000027626700000027626726/10/20211002    3190333624042196419000030161400001459220000000000000                                                                       MANGUERA SUCCION 6 MM*3.1 MTSSOB     1
CC0001001283069A202100000027626700000027626726/10/20211002    3190333624042196419000020816000001096410000000000000                                                                          LINER PARED DELGADA 1500CCBOL     1
CC0001001283069A202100000027626700000027626726/10/20211002    3190333624042196419000011099300000777780000000000000                                                                     FILTRO BACTERIANO VIRICO ADULTOBOL     1
CC0001001283069A202100000027626700000027626726/10/20211002    3190333624042196419000051515500000598160000000000000                                                                            MASCARILLA ANESTESIA # 5SIN     1
CC0001001283069A202100000027626700000027626726/10/20211002    3190333624042196419000053074400000607910000000000000                                                               GASA ESTERIL 10*10 SOBRE X 3 UNIDADESSOB     3
CC0001001283069A202100000027626700000027626726/10/20211002    3190333624042196419000024673000001411210000000000000                                                                  JERINGA DESECHABLE 3 ML 21 X 1 1/2SOB     1
CC0001001283069A202100000027626700000027626726/10/20211002    3190333624042196419000024674500000322810000000000000                                                                   JERINGA DESECHABLE 20 ml 21*1 1/2SIN     1
CC0001001283069A202100000027626700000027626726/10/20211002    3190333624042196419000024674000000220660000000000000                             JERINGA A 3 PARTES CON AGUJA  SOB X 1 RYMCO  10ML BN EXENTO-DC.417/2020SIN     4
CC0001001283069A202100000027626700000027626726/10/20211002    3190333624042196419000011085300001082140000000000000                                                                           GUANTE QUIRURGICO TALLA 8SOB     1
CC0001001283069A202100000027626700000027626726/10/20211002    3190333624042196419000011085200001585390000000000000                                                                       GUANTE QUIRURGICO TALLA 7 1/2SOB     1
CC0001001283069A202100000027626700000027626726/10/20211002    3190333624042196419000043485100001618510000000000000                GUANTE QUIRURGICO DE LATEX REF 2D72N65X CAJ X 50 PROTEXIS  6.5 BN EXENTO-DC.417/2020SOB     3
CC0001001283069A202100000027626700000027626726/10/20211002    3190333624042196419000011082700001620070000000000000                                                               EQUIPO SET PRIMARIO C/CLAVE REF 14001BOL     1
CC0001001283069A202100000027626700000027626726/10/20211002    3190333624042196419000016830000000970620000000000000                                                             SIST FIJACION CAT PERIFERICO 6.5X7 1683SOB     1
CC0001001283069A202100000027626700000027626726/10/20211002    31903336240421964190000Q1AA7100000610620000000000000                                                            CATETER PERIFE INTROCAN # 18G 4251687-04SIN     1
CC0001001283069A202100000027626700000027626726/10/20211002    3190333624042196419000035356500003919000000000000000                                                                                        LLAVE 3 VIASSOB     1
CC0001001283069A202100000027626700000027626726/10/20211002    3190333624042196419000022426800001140510000000000000                                                                    EQUIPO MACROGOTEO BAXTER MRC0001SOB     1
CC0001001283069A202100000027626700000027626726/10/20211002    3190333624042196419000022425200000548240000000000000                       EXTENSION DE ANESTESIA REF 1139 SOB X 1 SHERLEG  ADULTO BN EXENTO-DC.417/2020SIN     1
CC0001001283069A202100000027626700000027626726/10/20211002    31903336240421964190000E1AB0300003888390000000000000                                                            SOLUCION SALINA 0.9% SLN INY BO X 500 MLBOL     1
CC0001001283069A202100000027626700000027626726/10/20211002    31903336240421964190000E1AB0700003888350000000000000                                                            SOLUCION SALINA 0.9% SLN INY BO X 250 MLBOL     1
CC0001001283069A202100000027626700000027626726/10/20211002    31903336240421964190000E1AB0200000199290000000000000                                                            SOLUCION SALINA 0.9% SLN INY BO X 100 MLBIN     1
CC0001001283069A202100000027626700000027626726/10/20211002    31903336240421964190000J01DA300001239950000000000000                                                            CEFAZOLINA SODICA POLVO LIOF SLN INY 1 GVAL     2
CC0001001283069A202100000027626700000027626726/10/20211002    31903336240421964190000N02B1100001169680000000000000                              PARACETAMOL 1000MG/100ML(10MG/ML) SOL INY  VIAL X 100ML FRESENIUS KABIVAL     1
CC0001001283069A202100000027626700000027626726/10/20211002    31903336240421964190000N2BB1100000217160000000000000                                                                      NOVALGINA Sln Iny 2.5 g x 5 mlAMP     1
CC0001001283069A202100000027626700000027626726/10/20211002    31903336240421964190000H02AB500001664950000000000000                                                            DEXAMETASONA SLN INY 8 MG/2 ML AMP /CDS/AMP     1
CC0001001283069A202100000027626700000027626726/10/20211002    31903336240421964190000A2BC0900000200150000000000000                                                                               ORAZOLE Sln Iny 40 mgCIN     1
CC0001001283069A202100000027626700000027626726/10/20211002    31903336240421964190000A03F0300001626860000000000000                                                                   METOCLOPRAMIDA SLN INY 10 MG/2 MLAMP     1
CC0001001283069A202100000027626700000027626726/10/20211002    31903336240421964190000N01A0400003939010000000000000                                               MAYOPROFOL 200MG/20ML(1%) EMUL INY CAJ X 1VIAL X 20MLVAL     1
CC0001001283069A202100000027626700000027626726/10/20211002    31903336240421964190000N1AH0200003906560000000000000                                                                     FENTANIL Iny 0.05 mg/ml x 10 mlAMP     1
CC0001001283069A202100000027626700000027626726/10/20211002    31903336240421964190000N5CD0300000218170000000000000                                                                          DORMICUM Sln Iny 5 mg/5 mlAMP     1
