CC0000022844625H202100000554967000000554967026/10/20210708     3300010237421964250000A03F0300001626860000000000000                                                                   METOCLOPRAMIDA SLN INY 10 MG/2 MLAMP     1
CC0000022844625H202100000554967000000554967026/10/20211000    31903300237421964250000E1AB0200000199290000000000000                                                            SOLUCION SALINA 0.9% SLN INY BO X 100 MLBIN     2
CC0000022844625H202100000554967000000554967026/10/20210250    31903152237421964250000E1AB0500003888400000000000000                                                              SOLUCION SALINA 0.9% SLN INY X 1000 MLBOL     1
CC0000022844625H202100000554967000000554967026/10/20210708     3300010237421964250000J01DA300001239950000000000000                                                            CEFAZOLINA SODICA POLVO LIOF SLN INY 1 GVAL     2
CC0000022844625H202100000554967000000554967026/10/20210707     3300010237421964250000J01GB500000552920000000000000                                                                       AMIKACINA SLN INY 500 MG/2 MLAMP     2
CC0000022844625H202100000554967000000554967026/10/20210708     3300010237421964250000A03BB100003889180000000000000                                      HIOSCINA BUTIL BROMURO 20MG/ML SOL INY CAJ X 100AMP X 1ML RYANAMP     2
CC0000022844625H202100000554967000000554967026/10/20210708     3300010237421964250000N2BB0100000787510000000000000                                                                    DIPIRONA SODICA Sln Iny 1 g/2 mlAMP     1
CC0000022844625H202100000554967000000554967026/10/20210708     3300010237421964250000N2AX0900001672040000000000000                                                                              TRAMADOL SLN INY 50 MGAMP     2
