RC0001046723141H202100015052697200015052697226/10/20212148    3190093223742196425000011082700001620070000000000000                                                               EQUIPO SET PRIMARIO C/CLAVE REF 14001BOL     1
CC0000039522007H202100015052697200015052697226/10/20212148    3190093223742196425000001956000001620610000000000000                                                                      CONECTOR MICRO CLAVE LAT-MC100SOB     1
CC0000039522007H202100015052697200015052697226/10/20212148    31900932237421964250000Q1AA7300000610640000000000000                                                            CATETER PERIFE INTROCAN # 22G 4251628-04SIN     1
RC0001046723141H202100015052697200015052697226/10/20212148    3190093223742196425000030936900001431840000000000000                                                                                              BURETABOL     1
CC0000039522007H202100015052697200015052697226/10/20212148    3190093223742196425000016830000000970620000000000000                                                             SIST FIJACION CAT PERIFERICO 6.5X7 1683SOB     1
CC0001129508481H202100015052697200015052697226/10/20212148    31900932237421964250000E1AD0200003888320000000000000                                                                              HARTMAN SLN INY 500 MLBOL     2
CC0000007469257H202100015052697200015052697226/10/20212148    31900932237421964250000E1AB0300003888390000000000000                                                            SOLUCION SALINA 0.9% SLN INY BO X 500 MLBOL     1
CC0000032700438H202100015052697200015052697226/10/20212148    31900932237421964250000E1AB0300003888390000000000000                                                            SOLUCION SALINA 0.9% SLN INY BO X 500 MLBOL     1
TI0001052089280H202100015052697200015052697226/10/20212148    31900932237421964250000E1AB0300003888390000000000000                                                            SOLUCION SALINA 0.9% SLN INY BO X 500 MLBOL     1
