CE0000V28051252H202100000554984500000554984526/10/20212240     3300010237421964250000B1AB0200003939510000000000000                 ENOXAPARINA SODICA 40MG/0.4ML(100MG/ML) SOL INY INST CAJ X 2JERPREL X 0.4ML TECHDOWJRP     1
CE0000V28051252H202100000554984500000554984526/10/20211127    31500519237421964250000E1AB0300003888390000000000000                                                            SOLUCION SALINA 0.9% SLN INY BO X 500 MLBOL     1
CE0000V28051252H202100000554984500000554984526/10/20211746     3300009237421964250000J1CA0300001119820000000000000                                                                           AMPICILINA SLN INY 500 MGAMP     5
CE0000V28051252H202100000554984500000554984526/10/20211746     3300009237421964250000J01F1500001334230000000000000                                                                      ERITROMICINA TAB REC 500 MG mkTAB     5
