CC0000044150179H202100000554972600000554972626/10/20210721     3300009237421964250000V4AF0700001193810000000000000                                                                   NULYTELY 3350 SOBRE X 110.1 G /R/SOB     3
CC0000044150179H202100000554972600000554972626/10/20210544     3300010237421964250000V4AF0700001193810000000000000                                                                   NULYTELY 3350 SOBRE X 110.1 G /R/SOB     3
CC0000044150179H202100000554972600000554972626/10/20210601    31900630237421964250000E1AD0300000199490000000000000                                         LACTATO RINGER USP (HARTMANN)  SOL INY  BOL X 1000ML BAXTERBIN     1
CC0000044150179H202100000554972600000554972626/10/20210536     3300010237421964250000H03AA400001315380000000000000                                                                               SYNTHROID TAB 100 MCGTAB     1
