RC0001043196370U202100050131374200050131374226/10/20210808    3150036223942196432000038568200000257000000000000000                                                                                   SONDA NELATON #06SIN     1
RC0001043196370U202100050131374200050131374226/10/20210808    3150036223942196432000043485100001618510000000000000                GUANTE QUIRURGICO DE LATEX REF 2D72N65X CAJ X 50 PROTEXIS  6.5 BN EXENTO-DC.417/2020SOB     2
RC0001043196370U202100050131374200050131374226/10/20210808    3150036223942196432000013077800000471960000000000000                                                             GASA NO TEJIDA EST 7.5 X 7.5 SOB X 3 UNSOB     2
RC0001043196370U202100050131374200050131374226/10/20210808    3150036223942196432000042743200003929860000000000000                   GASA ADHESIVA STRETCH REF 02038-00 ROL X 10MT FIXOMULL 15CM BN EXENTO-DC.417/2020CMT    15
RC0001043196370U202100050131374200050131374226/10/20210808    3150036223942196432000001956000001620610000000000000                                                                      CONECTOR MICRO CLAVE LAT-MC100SOB     1
RC0001043196370U202100050131374200050131374226/10/20210808    31500362239421964320000Q1AA7400003911720000000000000                                                            CATETER PERIFE INTROCAN # 24G 4251601-04SOB     1
RC0001043196370U202100050131374200050131374226/10/20210808    31500362239421964320000E1AB0200000199290000000000000                                                            SOLUCION SALINA 0.9% SLN INY BO X 100 MLBIN     1
