TI0001042265795A202100000027627200000027627226/10/20211231    31903336240421964190000E1AB0700003888350000000000000                                                            SOLUCION SALINA 0.9% SLN INY BO X 250 MLBOL     1
TI0001042265795A202100000027627200000027627226/10/20211231    3190333624042196419000022425200000548240000000000000                       EXTENSION DE ANESTESIA REF 1139 SOB X 1 SHERLEG  ADULTO BN EXENTO-DC.417/2020SIN     1
TI0001042265795A202100000027627200000027627226/10/20211231    3190333624042196419000035356500003919000000000000000                                                                                        LLAVE 3 VIASSOB     1
TI0001042265795A202100000027627200000027627226/10/20211231    3190333624042196419000022425100001392880000000000000             EQUIPO MICROGOTEO SIN AGUJA REF 201000 PAQ X 100 SOB GOTHAPLAST   BN EXENTO-DC.417/2020BOL     1
TI0001042265795A202100000027627200000027627226/10/20211231    31903336240421964190000A02BC700001684270000000000000                                                            OMEPRAZOL 40MG POLVO LIOFILIZADO AMPOLLAVAL     1
TI0001042265795A202100000027627200000027627226/10/20211231    31903336240421964190000A3BA0100001109400000000000000                                                                          ATROPINA SLN INY 1 MG / MLAMP     1
TI0001042265795A202100000027627200000027627226/10/20211231    31903336240421964190000N5CD0300000218170000000000000                                                                          DORMICUM Sln Iny 5 mg/5 mlAMP     1
TI0001042265795A202100000027627200000027627226/10/20211231    31903336240421964190000N1AH0200003906560000000000000                                                                     FENTANIL Iny 0.05 mg/ml x 10 mlAMP     1
TI0001042265795A202100000027627200000027627226/10/20211231    3190333624042196419000011099300000777780000000000000                                                                     FILTRO BACTERIANO VIRICO ADULTOBOL     1
TI0001042265795A202100000027627200000027627226/10/20211231    31903336240421964190000N01A0400003939010000000000000                                               MAYOPROFOL 200MG/20ML(1%) EMUL INY CAJ X 1VIAL X 20MLVAL     1
TI0001042265795A202100000027627200000027627226/10/20211231    3190333624042196419000000902000001014680000000000000                                                              MASCARA PARA OXIGENO PEDIATRICA (1035)BOL     1
TI0001042265795A202100000027627200000027627226/10/20211231    3190333624042196419000051515300000598140000000000000                                                                            MASCARILLA ANESTESIA # 3SIN     1
TI0001042265795A202100000027627200000027627226/10/20211231    3190333624042196419000043485100001618510000000000000                GUANTE QUIRURGICO DE LATEX REF 2D72N65X CAJ X 50 PROTEXIS  6.5 BN EXENTO-DC.417/2020SOB     2
TI0001042265795A202100000027627200000027627226/10/20211231    3190333624042196419000053074400000607910000000000000                                                               GASA ESTERIL 10*10 SOBRE X 3 UNIDADESSOB     2
TI0001042265795A202100000027627200000027627226/10/20211231    3190333624042196419000020059600000225150000000000000                                                              AGUJA RAQ SPINOC 22*3 1/2 LARG 4507908SIN     1
