CC0000072254541H202100000554976600000554976626/10/20210707     3300010237421964250000B1AB1200003939350000000000000                 ENOXAPARINA SODICA 80MG/0.8ML(100MG/ML) SOL INY INST CAJ X 2JERPREL X 0.8ML TECHDOWJRP     2
CC0000072254541H202100000554976600000554976626/10/20211002    31903300237421964250000E1AB0200000199290000000000000                                                            SOLUCION SALINA 0.9% SLN INY BO X 100 MLBIN     2
CC0000072254541H202100000554976600000554976626/10/20210707     3300010237421964250000A02B0800001276960000000000000                                                                                 OMEPRAZOL CAP 20 MGCAP     1
CC0000072254541H202100000554976600000554976626/10/20210707     3300010237421964250000C3CA0700001334510000000000000                                                                                FUROSEMIDA TAB 40 MGTAB     1
