CC0001129523937H202100015042507300015042507326/10/20211025    3150034223742196425000022426800001140510000000000000                                                                    EQUIPO MACROGOTEO BAXTER MRC0001SOB     1
TI0001047048202H202100015042507300015042507326/10/20211025    3150034223742196425000022426800001140510000000000000                                                                    EQUIPO MACROGOTEO BAXTER MRC0001SOB     1
CC0001129523937H202100015042507300015042507326/10/20211025    31500342237421964250000E1AB0700003888350000000000000                                                            SOLUCION SALINA 0.9% SLN INY BO X 250 MLBOL     4
