CC0001045739587H202100015052696100015052696126/10/20211049    3150036623742196425000001956000001620610000000000000                                                                      CONECTOR MICRO CLAVE LAT-MC100SOB     1
CC0001045739587H202100015052696100015052696126/10/20211049    31500366237421964250000Q1AA7300000610640000000000000                                                            CATETER PERIFE INTROCAN # 22G 4251628-04SIN     1
CC0001045739587H202100015052696100015052696126/10/20211049    3150036623742196425000016830000000970620000000000000                                                             SIST FIJACION CAT PERIFERICO 6.5X7 1683SOB     1
CC0000032675307H202100015052696100015052696126/10/20211049    31500366237421964250000E1AD0300000199490000000000000                                         LACTATO RINGER USP (HARTMANN)  SOL INY  BOL X 1000ML BAXTERBIN     1
CC0001129498209H202100015052696100015052696126/10/20211049    31500366237421964250000E1AD0200003888320000000000000                                                                              HARTMAN SLN INY 500 MLBOL     1
CC0000072278313H202100015052696100015052696126/10/20211049    31500366237421964250000E1AB0300003888390000000000000                                                            SOLUCION SALINA 0.9% SLN INY BO X 500 MLBOL     1
