RC0001041702380U202100050131384100050131384126/10/20212210    3190217123942196432000042743200003929860000000000000                   GASA ADHESIVA STRETCH REF 02038-00 ROL X 10MT FIXOMULL 15CM BN EXENTO-DC.417/2020CMT    20
RC0001041702380U202100050131384100050131384126/10/20212210    3190217123942196432000011082700001620070000000000000                                                               EQUIPO SET PRIMARIO C/CLAVE REF 14001BOL     1
RC0001041702380U202100050131384100050131384126/10/20212210    31902171239421964320000Q1AA7400003911720000000000000                                                            CATETER PERIFE INTROCAN # 24G 4251601-04SOB     1
RC0001041702380U202100050131384100050131384126/10/20212210    31902171239421964320000E1AD0200003888320000000000000                                                                              HARTMAN SLN INY 500 MLBOL     1
