TI0001073826213H202100015122508200015122508226/10/20211941    3190315723742196425000043995200000229010000000000000                                                               HUMIDIFICADOR PARA OXIGENO REF. H001BBOL     1
TI0001044780621H202100015122508200015122508226/10/20211941    3190315723742196425000043995200000229010000000000000                                                               HUMIDIFICADOR PARA OXIGENO REF. H001BBOL     1
TI0001047229284H202100015122508200015122508226/10/20211941    3190315723742196425000043995200000229010000000000000                                                               HUMIDIFICADOR PARA OXIGENO REF. H001BBOL     1
TI0001044615199H202100015122508200015122508226/10/20211941    3190315723742196425000043995200000229010000000000000                                                               HUMIDIFICADOR PARA OXIGENO REF. H001BBOL     1
TI0001046701779H202100015122508200015122508226/10/20211941    3190315723742196425000043995200000229010000000000000                                                               HUMIDIFICADOR PARA OXIGENO REF. H001BBOL     1
RC0001187466818H202100015122508200015122508226/10/20211941    3190315723742196425000011078200001605710000000000000                                                                 CONECTOR FIBROBRONCOSCOPIO 9591 40CSOB     1
TI0001044780621H202100015122508200015122508226/10/20211941    31903157237421964250000Q1A11800000258040000000000000                                                                         CANULA OXIGENO NASAL PEDIATSIN     1
TI0001044615199H202100015122508200015122508226/10/20211941    31903157237421964250000Q1A11800000258040000000000000                                                                         CANULA OXIGENO NASAL PEDIATSIN     1
TI0001073826213H202100015122508200015122508226/10/20211941    3190315723742196425000038568100000258050000000000000                                                                         CANULA OXIGENO NASAL ADULTOSIN     1
TI0001047229284H202100015122508200015122508226/10/20211941    3190315723742196425000038568100000258050000000000000                                                                         CANULA OXIGENO NASAL ADULTOSIN     1
TI0001046701779H202100015122508200015122508226/10/20211941    3190315723742196425000038568100000258050000000000000                                                                         CANULA OXIGENO NASAL ADULTOSIN     1
RC0001043714288H202100015122508200015122508226/10/20211941    3190315723742196425000038568100000258050000000000000                                                                         CANULA OXIGENO NASAL ADULTOSIN     1
