NV0000169331975H202100015132502100015132502126/10/20211805    3190102423742196425000038568300000257010000000000000                                                                                   SONDA NELATON #08SIN     1
NV0000169331975H202100015132502100015132502126/10/20211805    3190102423742196425000011060400001010330000000000000                                                            SENSOR PULSOX SPO2 LNCS NEONATAL MP00792PZA     1
RC0001240294513H202100015132502100015132502126/10/20211805    3190102423742196425000011060400001010330000000000000                                                            SENSOR PULSOX SPO2 LNCS NEONATAL MP00792PZA     1
