RC0001048091909H202100015132501900015132501926/10/20211724    3190330923742196425000038568200000257000000000000000                                                                                   SONDA NELATON #06SIN     1
RC0001048091909H202100015132501900015132501926/10/20211724    3190330923742196425000043485100001618510000000000000                GUANTE QUIRURGICO DE LATEX REF 2D72N65X CAJ X 50 PROTEXIS  6.5 BN EXENTO-DC.417/2020SOB     2
RC0001048091909H202100015132501900015132501926/10/20211724    3190330923742196425000013077800000471960000000000000                                                             GASA NO TEJIDA EST 7.5 X 7.5 SOB X 3 UNSOB     8
RC0001240294513H202100015132501900015132501926/10/20211724    3190330923742196425000011082700001620070000000000000                                                               EQUIPO SET PRIMARIO C/CLAVE REF 14001BOL     1
RC0001048091909H202100015132501900015132501926/10/20211724    3190330923742196425000000301100000299670000000000000                                                            CAT EPICUTAN VENA CAVA 2F 24G*30 2184-00SIN     1
RC0001048091909H202100015132501900015132501926/10/20211724    3190330923742196425000000602600001259280000000000000                                                             APOSITO TEGADERM IV PD 1610 5CM X 5.7CMSOB     1
RC0001048091952H202100015132501900015132501926/10/20211724    31903309237421964250000E1AA1400003888550000000000000                                                                         DEXTROSA 10% SLN INY 250 MLBOL     1
RC0001240294513H202100015132501900015132501926/10/20211724    31903309237421964250000E1AB0200000199290000000000000                                                            SOLUCION SALINA 0.9% SLN INY BO X 100 MLBIN     1
