CC0000032768038H202100000554977400000554977426/10/20212103    31903184237421964250000E1AA0100003888590000000000000                                                                        DEXTROSA 5% Sln Iny X 500 mlBOL     1
CC0000032768038H202100000554977400000554977426/10/20211143     3300010237421964250000N2AA0200000301600000000000000                                                                        HIDROMORFONA Sln Iny 2 mg/mlAMP     3
CC0000032768038H202100000554977400000554977426/10/20212244     3300010237421964250000A03BB100003889180000000000000                                      HIOSCINA BUTIL BROMURO 20MG/ML SOL INY CAJ X 100AMP X 1ML RYANAMP     1
CC0000032768038H202100000554977400000554977426/10/20210717     3300010237421964250000A03BB100003889180000000000000                                      HIOSCINA BUTIL BROMURO 20MG/ML SOL INY CAJ X 100AMP X 1ML RYANAMP     2
CC0000032768038H202100000554977400000554977426/10/20210717     3300010237421964250000B01AB200000513350000000000000                                                                        CLENOX SLN INY 40 MG/ 0.4 MLJRP     2
CC0000032768038H202100000554977400000554977426/10/20211500     3300010237421964250000J01DD500001239970000000000000                                                                  CEFTRIAXONA POLVO LIOF SLN INY 1 GVAL     2
CC0000032768038H202100000554977400000554977426/10/20212244     3300010237421964250000N2BE2200001252930000000000000                                                                             ACETAMINOFEN Tab 500 MGTAB     1
CC0000032768038H202100000554977400000554977426/10/20212244     3300010237421964250000A02BC700001684270000000000000                                                            OMEPRAZOL 40MG POLVO LIOFILIZADO AMPOLLAVAL     1
CC0000032768038H202100000554977400000554977426/10/20210717     3300010237421964250000A02BC700001684270000000000000                                                            OMEPRAZOL 40MG POLVO LIOFILIZADO AMPOLLAVAL     1
