CC0001143227023H202100000554974100000554974126/10/20210719     3300010237421964250000B1AB0200003939510000000000000                 ENOXAPARINA SODICA 40MG/0.4ML(100MG/ML) SOL INY INST CAJ X 2JERPREL X 0.4ML TECHDOWJRP     1
CC0001143227023H202100000554974100000554974126/10/20210916    31903239237421964250000E1AB0200000199290000000000000                                                            SOLUCION SALINA 0.9% SLN INY BO X 100 MLBIN     1
CC0001143227023H202100000554974100000554974126/10/20212103    31903184237421964250000E1AD0300000199490000000000000                                         LACTATO RINGER USP (HARTMANN)  SOL INY  BOL X 1000ML BAXTERBIN     1
CC0001143227023H202100000554974100000554974126/10/20211752     3300009237421964250000N2BB0100000787510000000000000                                                                    DIPIRONA SODICA Sln Iny 1 g/2 mlAMP     3
CC0001143227023H202100000554974100000554974126/10/20210719     3300010237421964250000N2BB0100000787510000000000000                                                                    DIPIRONA SODICA Sln Iny 1 g/2 mlAMP     1
CC0001143227023H202100000554974100000554974126/10/20212246     3300010237421964250000N03AB200001168090000000000000                                                                       FENITOINA Sln Iny 250 mg/5 mlAMP     1
CC0001143227023H202100000554974100000554974126/10/20211752     3300009237421964250000N03AB200001168090000000000000                                                                       FENITOINA Sln Iny 250 mg/5 mlAMP     1
CC0001143227023H202100000554974100000554974126/10/20210719     3300010237421964250000N03AB200001168090000000000000                                                                       FENITOINA Sln Iny 250 mg/5 mlAMP     1
CC0001143227023H202100000554974100000554974126/10/20210718     3300010237421964250000N03AB200001168090000000000000                                                                       FENITOINA Sln Iny 250 mg/5 mlAMP     1
CC0001143227023H202100000554974100000554974126/10/20211752     3300009237421964250000N05A1300000614370000000000000                                                                       HALOPERIDOL SLN INY 5 MG / MLAMP     1
CC0001143227023H202100000554974100000554974126/10/20210719     3300010237421964250000N05A1300000614370000000000000                                                                       HALOPERIDOL SLN INY 5 MG / MLAMP     2
CC0001143227023H202100000554974100000554974126/10/20210719     3300010237421964250000A02BC700001684270000000000000                                                            OMEPRAZOL 40MG POLVO LIOFILIZADO AMPOLLAVAL     1
