RC0001146543707U202100050131373200050131373226/10/20210531    3150025023942196432000024674000000220660000000000000                             JERINGA A 3 PARTES CON AGUJA  SOB X 1 RYMCO  10ML BN EXENTO-DC.417/2020SIN     1
RC0001146543707U202100050131373200050131373226/10/20210531    3150025023942196432000011082700001620070000000000000                                                               EQUIPO SET PRIMARIO C/CLAVE REF 14001BOL     1
RC0001146543707U202100050131373200050131373226/10/20210531    31500250239421964320000Q1AA7400003911720000000000000                                                            CATETER PERIFE INTROCAN # 24G 4251601-04SOB     1
RC0001146543707U202100050131373200050131373226/10/20210531    3150025023942196432000030936900001431840000000000000                                                                                              BURETABOL     1
RC0001146543707U202100050131373200050131373226/10/20210531    3150025023942196432000000602600001259280000000000000                                                             APOSITO TEGADERM IV PD 1610 5CM X 5.7CMSOB     1
RC0001146543707U202100050131373200050131373226/10/20210531    31500250239421964320000E1AD0200003888320000000000000                                                                              HARTMAN SLN INY 500 MLBOL     1
