TI0001073826213H202100015122507800015122507826/10/20211238    3190330723742196425000038568400000256940000000000000                                                                                   SONDA NELATON #10SIN     1
TI0001044780621H202100015122507800015122507826/10/20211238    3190330723742196425000011082700001620070000000000000                                                               EQUIPO SET PRIMARIO C/CLAVE REF 14001BOL     2
TI0001044780621H202100015122507800015122507826/10/20211238    3190330723742196425000030936900001431840000000000000                                                                                              BURETABOL     1
TI0001044780621H202100015122507800015122507826/10/20211238    31903307237421964250000E1AD0300000199490000000000000                                         LACTATO RINGER USP (HARTMANN)  SOL INY  BOL X 1000ML BAXTERBIN     5
