RC0001041699033H202100015032576400015032576426/10/20210546    3150020623742196425000022426800001140510000000000000                                                                    EQUIPO MACROGOTEO BAXTER MRC0001SOB     1
CE0001010121550H202100015032576400015032576426/10/20210546    3150020623742196425000022426800001140510000000000000                                                                    EQUIPO MACROGOTEO BAXTER MRC0001SOB     1
CC0000072295366H202100015032576400015032576426/10/20210546    3150020623742196425000011082700001620070000000000000                                                               EQUIPO SET PRIMARIO C/CLAVE REF 14001BOL     1
RC0001041699033H202100015032576400015032576426/10/20210546    3150020623742196425000030936900001431840000000000000                                                                                              BURETABOL     1
