RC0001043317236H202100015012565800015012565826/10/20212131    3190294923742196425000022426800001140510000000000000                                                                    EQUIPO MACROGOTEO BAXTER MRC0001SOB     1
RC0001043317236H202100015012565800015012565826/10/20212131    3190294923742196425000030936900001431840000000000000                                                                                              BURETABOL     1
CC0000064555972H202100015012565800015012565826/10/20212131    3190294923742196425000030936900001431840000000000000                                                                                              BURETABOL     1
RC0001043317236H202100015012565800015012565826/10/20212131    31902949237421964250000E1AD0300000199490000000000000                                         LACTATO RINGER USP (HARTMANN)  SOL INY  BOL X 1000ML BAXTERBIN     2
CC0000027001478H202100015012565800015012565826/10/20212131    31902949237421964250000E1AD0300000199490000000000000                                         LACTATO RINGER USP (HARTMANN)  SOL INY  BOL X 1000ML BAXTERBIN     2
