CC0000027943777U202100050131376200050131376226/10/20211048    3150036223942196432000024674000000220660000000000000                             JERINGA A 3 PARTES CON AGUJA  SOB X 1 RYMCO  10ML BN EXENTO-DC.417/2020SIN     1
CC0000027943777U202100050131376200050131376226/10/20211048    3150036223942196432000011082700001620070000000000000                                                               EQUIPO SET PRIMARIO C/CLAVE REF 14001BOL     1
CC0000027943777U202100050131376200050131376226/10/20211048    31500362239421964320000Q1AA7300000610640000000000000                                                            CATETER PERIFE INTROCAN # 22G 4251628-04SIN     1
CC0000027943777U202100050131376200050131376226/10/20211048    3150036223942196432000016830000000970620000000000000                                                             SIST FIJACION CAT PERIFERICO 6.5X7 1683SOB     1
CC0000027943777U202100050131376200050131376226/10/20211048    31500362239421964320000E1AB0500003888400000000000000                                                              SOLUCION SALINA 0.9% SLN INY X 1000 MLBOL     1
