CC0000032768038H202100015052696700015052696726/10/20211950    3190318423742196425000045136100001419300000000000000                                                                            LANCETA DEXTROMETER X UNPZA     3
CC0000032768038H202100015052696700015052696726/10/20211950    3190318423742196425000011082700001620070000000000000                                                               EQUIPO SET PRIMARIO C/CLAVE REF 14001BOL     1
CC0000032768038H202100015052696700015052696726/10/20211950    3190318423742196425000030936900001431840000000000000                                                                                              BURETABOL     1
CC0001046275671H202100015052696700015052696726/10/20211950    3190318423742196425000030936900001431840000000000000                                                                                              BURETABOL     1
CC0000008764419H202100015052696700015052696726/10/20211950    3190318423742196425000030936900001431840000000000000                                                                                              BURETABOL     1
CC0000007454802H202100015052696700015052696726/10/20211950    3190318423742196425000030936900001431840000000000000                                                                                              BURETABOL     1
CC0001046275671H202100015052696700015052696726/10/20211950    31903184237421964250000E1AD0300000199490000000000000                                         LACTATO RINGER USP (HARTMANN)  SOL INY  BOL X 1000ML BAXTERBIN     1
CC0001143227023H202100015052696700015052696726/10/20211950    31903184237421964250000E1AD0300000199490000000000000                                         LACTATO RINGER USP (HARTMANN)  SOL INY  BOL X 1000ML BAXTERBIN     1
CC0000040786622H202100015052696700015052696726/10/20211950    31903184237421964250000E1AB0300003888390000000000000                                                            SOLUCION SALINA 0.9% SLN INY BO X 500 MLBOL     1
CC0000008764419H202100015052696700015052696726/10/20211950    31903184237421964250000E1AB0300003888390000000000000                                                            SOLUCION SALINA 0.9% SLN INY BO X 500 MLBOL     1
CC0000007454802H202100015052696700015052696726/10/20211950    31903184237421964250000E1AB0300003888390000000000000                                                            SOLUCION SALINA 0.9% SLN INY BO X 500 MLBOL     1
CC0000022543387H202100015052696700015052696726/10/20211950    31903184237421964250000E1AB0300003888390000000000000                                                            SOLUCION SALINA 0.9% SLN INY BO X 500 MLBOL     1
CC0000032768038H202100015052696700015052696726/10/20211950    31903184237421964250000E1AA0100003888590000000000000                                                                        DEXTROSA 5% Sln Iny X 500 mlBOL     1
CC0000032768038H202100015052696700015052696726/10/20211950    3190318423742196425000011137100001419310000000000000                                                               TIRA GLUCOMETRIA FREESTYLE H OPTIUM .PZA     3
