CC0001047388893U202100000554982500000554982526/10/20211028    31500362239421964320000E1AB0300003888390000000000000                                                            SOLUCION SALINA 0.9% SLN INY BO X 500 MLBOL     1
CC0001047388893U202100000554982500000554982526/10/20211025     3300004239421964320000M1AE2500000191550000000000000                                                            PROFENID POLVO LIOF SLN INY 100MG/2ML/R/AMP     1
CC0001047388893U202100000554982500000554982526/10/20211026     3300004239421964320000M3BA0300001278140000000000000                                                                               SIRDALUD Tab 2 mg /R/COM     2
CC0001047388893U202100000554982500000554982526/10/20211026     3300004239421964320000N02B1100001169680000000000000                              PARACETAMOL 1000MG/100ML(10MG/ML) SOL INY  VIAL X 100ML FRESENIUS KABIVAL     1
