NV0000169331975H202100015132502200015132502226/10/20212151    31900132237421964250000V07A1300000502600000000000000                                                                                AGUA ESTERIL x 10 mlAMP     6
NV0000169331975H202100015132502200015132502226/10/20212151    3190013223742196425000038568300000257010000000000000                                                                                   SONDA NELATON #08SIN     1
NV0000169331975H202100015132502200015132502226/10/20212151    3190013223742196425000036441300000236540000000000000                                                                    JERINGA 1 ML GASES ARTERIAL 9023SIN     1
NV0000169331975H202100015132502200015132502226/10/20212151    3190013223742196425000024673000001411210000000000000                                                                  JERINGA DESECHABLE 3 ML 21 X 1 1/2SOB     4
NV0000169331975H202100015132502200015132502226/10/20212151    3190013223742196425000024674000000220660000000000000                             JERINGA A 3 PARTES CON AGUJA  SOB X 1 RYMCO  10ML BN EXENTO-DC.417/2020SIN     5
NV0000169331975H202100015132502200015132502226/10/20212151    3190013223742196425000011085100001082120000000000000                                                                           GUANTE QUIRURGICO TALLA 7SOB     4
NV0000169331975H202100015132502200015132502226/10/20212151    3190013223742196425000011082700001620070000000000000                                                               EQUIPO SET PRIMARIO C/CLAVE REF 14001BOL     1
NV0000169331975H202100015132502200015132502226/10/20212151    31900132237421964250000Q1AA7400003911720000000000000                                                            CATETER PERIFE INTROCAN # 24G 4251601-04SOB     2
NV0000169331975H202100015132502200015132502226/10/20212151    31900132237421964250000E1AA1400003888550000000000000                                                                         DEXTROSA 10% SLN INY 250 MLBOL     1
