PA0000673754387H202100015012565500015012565526/10/20211944    3150034723742196425000024674000000220660000000000000                             JERINGA A 3 PARTES CON AGUJA  SOB X 1 RYMCO  10ML BN EXENTO-DC.417/2020SIN     8
CC0000008716890H202100015012565500015012565526/10/20211944    3150034723742196425000011047900000223010000000000000                                                                            JERINGA X 1ML REF 302579SIN     1
PA0000673754387H202100015012565500015012565526/10/20211944    3150034723742196425000022426800001140510000000000000                                                                    EQUIPO MACROGOTEO BAXTER MRC0001SOB     1
PA0000673754387H202100015012565500015012565526/10/20211944    3150034723742196425000030936900001431840000000000000                                                                                              BURETABOL     1
