CC0001002231280U202100050131381800050131381826/10/20211848    31500457239421964320000Q1AA7100000610620000000000000                                                            CATETER PERIFE INTROCAN # 18G 4251687-04SIN     1
CC0001002231280U202100050131381800050131381826/10/20211848    3150045723942196432000016830000000970620000000000000                                                             SIST FIJACION CAT PERIFERICO 6.5X7 1683SOB     1
CC0001002231280U202100050131381800050131381826/10/20211848    31500457239421964320000E1AB0300003888390000000000000                                                            SOLUCION SALINA 0.9% SLN INY BO X 500 MLBOL     1
