CC0000022467890H202100015112645600015112645626/10/20210824    31500387237421964250000V07A1300000502600000000000000                                                                                AGUA ESTERIL x 10 mlAMP    10
CC0000008761530H202100015112645600015112645626/10/20210824    31500387237421964250000V07A1300000502600000000000000                                                                                AGUA ESTERIL x 10 mlAMP    10
CC0000072428894H202100015112645600015112645626/10/20210824    31500387237421964250000V07A1300000502600000000000000                                                                                AGUA ESTERIL x 10 mlAMP    10
CC0000008761530H202100015112645600015112645626/10/20210824    3150038723742196425000018351500000232840000000000000                                                                                    SEDA 2-0 KS 623HSIN     1
CC0000022467890H202100015112645600015112645626/10/20210824    3150038723742196425000045136100001419300000000000000                                                                            LANCETA DEXTROMETER X UNPZA     2
CC0000008761530H202100015112645600015112645626/10/20210824    3150038723742196425000045136100001419300000000000000                                                                            LANCETA DEXTROMETER X UNPZA     4
CC0000072428894H202100015112645600015112645626/10/20210824    3150038723742196425000045136100001419300000000000000                                                                            LANCETA DEXTROMETER X UNPZA     2
CC0000022467890H202100015112645600015112645626/10/20210824    3150038723742196425000024674500000322810000000000000                                                                   JERINGA DESECHABLE 20 ml 21*1 1/2SIN     2
CC0000008761530H202100015112645600015112645626/10/20210824    3150038723742196425000024674500000322810000000000000                                                                   JERINGA DESECHABLE 20 ml 21*1 1/2SIN     2
CC0000022467890H202100015112645600015112645626/10/20210824    3150038723742196425000024674000000220660000000000000                             JERINGA A 3 PARTES CON AGUJA  SOB X 1 RYMCO  10ML BN EXENTO-DC.417/2020SIN    10
CC0000008761530H202100015112645600015112645626/10/20210824    3150038723742196425000024674000000220660000000000000                             JERINGA A 3 PARTES CON AGUJA  SOB X 1 RYMCO  10ML BN EXENTO-DC.417/2020SIN    10
CC0000072428894H202100015112645600015112645626/10/20210824    3150038723742196425000024674000000220660000000000000                             JERINGA A 3 PARTES CON AGUJA  SOB X 1 RYMCO  10ML BN EXENTO-DC.417/2020SIN    10
CC0000008761530H202100015112645600015112645626/10/20210824    3150038723742196425000043879100001138200000000000000                                                                  HOJA BISTURI # 15 CSSB 15 01002003SOB     1
CC0000008761530H202100015112645600015112645626/10/20210824    3150038723742196425000043485100001618510000000000000                GUANTE QUIRURGICO DE LATEX REF 2D72N65X CAJ X 50 PROTEXIS  6.5 BN EXENTO-DC.417/2020SOB     1
CC0000008761530H202100015112645600015112645626/10/20210824    3150038723742196425000011089300001083990000000000000                                                              GUANTE ESTERIL LATEX S/POLVO TALLA 7.5SOB     2
CC0000008761530H202100015112645600015112645626/10/20210824    3150038723742196425000013077800000471960000000000000                                                             GASA NO TEJIDA EST 7.5 X 7.5 SOB X 3 UNSOB     8
CC0000008761530H202100015112645600015112645626/10/20210824    3150038723742196425000000300100001244120000000000000                                                                 CAT RECTO 2LUMEN+KIT DFXL148MTE UNDPZA     1
CC0000022467890H202100015112645600015112645626/10/20210824    31500387237421964250000E1AD0300000199490000000000000                                         LACTATO RINGER USP (HARTMANN)  SOL INY  BOL X 1000ML BAXTERBIN     1
CC0000072428894H202100015112645600015112645626/10/20210824    31500387237421964250000E1AD0300000199490000000000000                                         LACTATO RINGER USP (HARTMANN)  SOL INY  BOL X 1000ML BAXTERBIN     1
CC0000022467890H202100015112645600015112645626/10/20210824    31500387237421964250000E1AB0500003888400000000000000                                                              SOLUCION SALINA 0.9% SLN INY X 1000 MLBOL     1
CC0000022467890H202100015112645600015112645626/10/20210824    31500387237421964250000E1AB0200000199290000000000000                                                            SOLUCION SALINA 0.9% SLN INY BO X 100 MLBIN    10
CC0000008761530H202100015112645600015112645626/10/20210824    31500387237421964250000E1AB0200000199290000000000000                                                            SOLUCION SALINA 0.9% SLN INY BO X 100 MLBIN    10
CC0000072428894H202100015112645600015112645626/10/20210824    31500387237421964250000E1AB0200000199290000000000000                                                            SOLUCION SALINA 0.9% SLN INY BO X 100 MLBIN    10
CC0000022467890H202100015112645600015112645626/10/20210824    3150038723742196425000011137100001419310000000000000                                                               TIRA GLUCOMETRIA FREESTYLE H OPTIUM .PZA     2
CC0000008761530H202100015112645600015112645626/10/20210824    3150038723742196425000011137100001419310000000000000                                                               TIRA GLUCOMETRIA FREESTYLE H OPTIUM .PZA     4
CC0000072428894H202100015112645600015112645626/10/20210824    3150038723742196425000011137100001419310000000000000                                                               TIRA GLUCOMETRIA FREESTYLE H OPTIUM .PZA     2
CC0000022467890H202100015112645600015112645626/10/20210824    3150038723742196425000011127400001413910000000000000                                                            EQUIPO ADMINIST NUTR PUNZON REF 674669 BBOL     1
CC0000008761530H202100015112645600015112645626/10/20210824    3150038723742196425000011127400001413910000000000000                                                            EQUIPO ADMINIST NUTR PUNZON REF 674669 BBOL     1
CC0000072428894H202100015112645600015112645626/10/20210824    3150038723742196425000011127400001413910000000000000                                                            EQUIPO ADMINIST NUTR PUNZON REF 674669 BBOL     1
