RC0001146542960H202100913386102600913386102626/10/20211422    3190115123742196425000053074400000607910000000000000                                                               GASA ESTERIL 10*10 SOBRE X 3 UNIDADESSOB     4
RC0001146542960H202100913386102600913386102626/10/20212057    31902202237421964250000E1AB0300003888390000000000000                                                            SOLUCION SALINA 0.9% SLN INY BO X 500 MLBOL     2
RC0001146542960H202100913386102600913386102626/10/20212057    31902202237421964250000E1AD0300000199490000000000000                                         LACTATO RINGER USP (HARTMANN)  SOL INY  BOL X 1000ML BAXTERBIN     1
