TI0001047048202A202100000027629300000027629326/10/20211833    3190333624042196419000022426800001140510000000000000                                                                    EQUIPO MACROGOTEO BAXTER MRC0001SOB     1
TI0001047048202A202100000027629300000027629326/10/20211833    31903336240421964190000N02B1100001169680000000000000                              PARACETAMOL 1000MG/100ML(10MG/ML) SOL INY  VIAL X 100ML FRESENIUS KABIVAL     1
TI0001047048202A202100000027629300000027629326/10/20211833    3190333624042196419000011069000000212140000000000000                                                                      VASELINA QUIMIBEN POTE X 500 GTAR     1
TI0001047048202A202100000027629300000027629326/10/20211833    3190333624042196419000051515500000598160000000000000                                                                            MASCARILLA ANESTESIA # 5SIN     1
TI0001047048202A202100000027629300000027629326/10/20211833    3190333624042196419000000602600001259280000000000000                                                             APOSITO TEGADERM IV PD 1610 5CM X 5.7CMSOB     1
TI0001047048202A202100000027629300000027629326/10/20211833    3190333624042196419000018351500000232840000000000000                                                                                    SEDA 2-0 KS 623HSIN     1
TI0001047048202A202100000027629300000027629326/10/20211833    3190333624042196419000043879100001138200000000000000                                                                  HOJA BISTURI # 15 CSSB 15 01002003SOB     1
TI0001047048202A202100000027629300000027629326/10/20211833    3190333624042196419000021017400000227520000000000000                                                            KIT CAT BILUMEN PED CS14402E  4FR X 13CMSIN     1
TI0001047048202A202100000027629300000027629326/10/20211833    3190333624042196419000024674000000220660000000000000                             JERINGA A 3 PARTES CON AGUJA  SOB X 1 RYMCO  10ML BN EXENTO-DC.417/2020SIN     2
TI0001047048202A202100000027629300000027629326/10/20211833    3190333624042196419000053074400000607910000000000000                                                               GASA ESTERIL 10*10 SOBRE X 3 UNIDADESSOB     3
TI0001047048202A202100000027629300000027629326/10/20211833    3190333624042196419000011085200001585390000000000000                                                                       GUANTE QUIRURGICO TALLA 7 1/2SOB     1
TI0001047048202A202100000027629300000027629326/10/20211833    3190333624042196419000011085100001082120000000000000                                                                           GUANTE QUIRURGICO TALLA 7SOB     1
TI0001047048202A202100000027629300000027629326/10/20211833    3190333624042196419000043485100001618510000000000000                GUANTE QUIRURGICO DE LATEX REF 2D72N65X CAJ X 50 PROTEXIS  6.5 BN EXENTO-DC.417/2020SOB     1
TI0001047048202A202100000027629300000027629326/10/20211833    3190333624042196419000011099300000777780000000000000                                                                     FILTRO BACTERIANO VIRICO ADULTOBOL     1
TI0001047048202A202100000027629300000027629326/10/20211833    31903336240421964190000E1AB0200000199290000000000000                                                            SOLUCION SALINA 0.9% SLN INY BO X 100 MLBIN     1
TI0001047048202A202100000027629300000027629326/10/20211833    31903336240421964190000N1BA2400001195280000000000000                                                                    LIDOCAINA 2% S/E Sln Iny x 10 mlAMP     1
