RC0001043198450H202100015132501700015132501726/10/20210901    31903309237421964250000V07A1300000502600000000000000                                                                                AGUA ESTERIL x 10 mlAMP     7
RC0001053013307H202100015132501700015132501726/10/20210901    31903309237421964250000V07A1300000502600000000000000                                                                                AGUA ESTERIL x 10 mlAMP     5
RC0001048091952H202100015132501700015132501726/10/20210901    31903309237421964250000V07A1300000502600000000000000                                                                                AGUA ESTERIL x 10 mlAMP     5
RC0001043198490H202100015132501700015132501726/10/20210901    3190330923742196425000011060400001010330000000000000                                                            SENSOR PULSOX SPO2 LNCS NEONATAL MP00792PZA     1
RC0001043198450H202100015132501700015132501726/10/20210901    3190330923742196425000035356500003919000000000000000                                                                                        LLAVE 3 VIASSOB     2
RC0001048091909H202100015132501700015132501726/10/20210901    3190330923742196425000035356500003919000000000000000                                                                                        LLAVE 3 VIASSOB     5
RC0001048091952H202100015132501700015132501726/10/20210901    3190330923742196425000035356500003919000000000000000                                                                                        LLAVE 3 VIASSOB     2
RC0001043198450H202100015132501700015132501726/10/20210901    3190330923742196425000045136100001419300000000000000                                                                            LANCETA DEXTROMETER X UNPZA     2
RC0001048091851H202100015132501700015132501726/10/20210901    3190330923742196425000045136100001419300000000000000                                                                            LANCETA DEXTROMETER X UNPZA     2
RC0001048091909H202100015132501700015132501726/10/20210901    3190330923742196425000045136100001419300000000000000                                                                            LANCETA DEXTROMETER X UNPZA     2
RC0001043198490H202100015132501700015132501726/10/20210901    3190330923742196425000045136100001419300000000000000                                                                            LANCETA DEXTROMETER X UNPZA     1
RC0001048091914H202100015132501700015132501726/10/20210901    3190330923742196425000045136100001419300000000000000                                                                            LANCETA DEXTROMETER X UNPZA     2
RC0001053013307H202100015132501700015132501726/10/20210901    3190330923742196425000045136100001419300000000000000                                                                            LANCETA DEXTROMETER X UNPZA     2
RC0001048091952H202100015132501700015132501726/10/20210901    3190330923742196425000045136100001419300000000000000                                                                            LANCETA DEXTROMETER X UNPZA     2
RC0001043198450H202100015132501700015132501726/10/20210901    3190330923742196425000011048600000223020000000000000                                                                 JERINGA VACUNACION 3ML C/AGU 302542SIN     3
RC0001053013307H202100015132501700015132501726/10/20210901    3190330923742196425000011048600000223020000000000000                                                                 JERINGA VACUNACION 3ML C/AGU 302542SIN     3
RC0001048091952H202100015132501700015132501726/10/20210901    3190330923742196425000011048600000223020000000000000                                                                 JERINGA VACUNACION 3ML C/AGU 302542SIN     3
RC0001043198450H202100015132501700015132501726/10/20210901    3190330923742196425000024674000000220660000000000000                             JERINGA A 3 PARTES CON AGUJA  SOB X 1 RYMCO  10ML BN EXENTO-DC.417/2020SIN     7
RC0001043198490H202100015132501700015132501726/10/20210901    3190330923742196425000024674000000220660000000000000                             JERINGA A 3 PARTES CON AGUJA  SOB X 1 RYMCO  10ML BN EXENTO-DC.417/2020SIN     4
RC0001053013307H202100015132501700015132501726/10/20210901    3190330923742196425000024674000000220660000000000000                             JERINGA A 3 PARTES CON AGUJA  SOB X 1 RYMCO  10ML BN EXENTO-DC.417/2020SIN     5
RC0001048091952H202100015132501700015132501726/10/20210901    3190330923742196425000024674000000220660000000000000                             JERINGA A 3 PARTES CON AGUJA  SOB X 1 RYMCO  10ML BN EXENTO-DC.417/2020SIN     5
RC0001043198450H202100015132501700015132501726/10/20210901    3190330923742196425000043485100001618510000000000000                GUANTE QUIRURGICO DE LATEX REF 2D72N65X CAJ X 50 PROTEXIS  6.5 BN EXENTO-DC.417/2020SOB     2
RC0001048091909H202100015132501700015132501726/10/20210901    3190330923742196425000043485100001618510000000000000                GUANTE QUIRURGICO DE LATEX REF 2D72N65X CAJ X 50 PROTEXIS  6.5 BN EXENTO-DC.417/2020SOB     2
RC0001048091952H202100015132501700015132501726/10/20210901    3190330923742196425000043485100001618510000000000000                GUANTE QUIRURGICO DE LATEX REF 2D72N65X CAJ X 50 PROTEXIS  6.5 BN EXENTO-DC.417/2020SOB     2
RC0001043198450H202100015132501700015132501726/10/20210901    3190330923742196425000011085100001082120000000000000                                                                           GUANTE QUIRURGICO TALLA 7SOB     2
RC0001048091909H202100015132501700015132501726/10/20210901    3190330923742196425000011085100001082120000000000000                                                                           GUANTE QUIRURGICO TALLA 7SOB     2
RC0001048091952H202100015132501700015132501726/10/20210901    3190330923742196425000011085100001082120000000000000                                                                           GUANTE QUIRURGICO TALLA 7SOB     2
RC0001043198450H202100015132501700015132501726/10/20210901    3190330923742196425000013077800000471960000000000000                                                             GASA NO TEJIDA EST 7.5 X 7.5 SOB X 3 UNSOB     5
RC0001048091851H202100015132501700015132501726/10/20210901    3190330923742196425000013077800000471960000000000000                                                             GASA NO TEJIDA EST 7.5 X 7.5 SOB X 3 UNSOB     4
RC0001048091909H202100015132501700015132501726/10/20210901    3190330923742196425000013077800000471960000000000000                                                             GASA NO TEJIDA EST 7.5 X 7.5 SOB X 3 UNSOB     4
RC0001043198490H202100015132501700015132501726/10/20210901    3190330923742196425000013077800000471960000000000000                                                             GASA NO TEJIDA EST 7.5 X 7.5 SOB X 3 UNSOB     4
RC0001053013307H202100015132501700015132501726/10/20210901    3190330923742196425000013077800000471960000000000000                                                             GASA NO TEJIDA EST 7.5 X 7.5 SOB X 3 UNSOB     4
RC0001048091952H202100015132501700015132501726/10/20210901    3190330923742196425000013077800000471960000000000000                                                             GASA NO TEJIDA EST 7.5 X 7.5 SOB X 3 UNSOB     4
RC0001043198450H202100015132501700015132501726/10/20210901    3190330923742196425000042753100003929850000000000000                   GASA ADHESIVA STRETCH REF 02037-00 ROL X 10MT FIXOMULL 10CM BN EXENTO-DC.417/2020CMT    20
RC0001048091851H202100015132501700015132501726/10/20210901    3190330923742196425000042753100003929850000000000000                   GASA ADHESIVA STRETCH REF 02037-00 ROL X 10MT FIXOMULL 10CM BN EXENTO-DC.417/2020CMT    20
RC0001048091952H202100015132501700015132501726/10/20210901    3190330923742196425000042753100003929850000000000000                   GASA ADHESIVA STRETCH REF 02037-00 ROL X 10MT FIXOMULL 10CM BN EXENTO-DC.417/2020CMT    20
RC0001043198450H202100015132501700015132501726/10/20210901    31903309237421964250000E1AB0200000199290000000000000                                                            SOLUCION SALINA 0.9% SLN INY BO X 100 MLBIN     1
RC0001048091952H202100015132501700015132501726/10/20210901    31903309237421964250000E1AB0200000199290000000000000                                                            SOLUCION SALINA 0.9% SLN INY BO X 100 MLBIN     1
RC0001043198450H202100015132501700015132501726/10/20210901    3190330923742196425000011137100001419310000000000000                                                               TIRA GLUCOMETRIA FREESTYLE H OPTIUM .PZA     2
RC0001048091851H202100015132501700015132501726/10/20210901    3190330923742196425000011137100001419310000000000000                                                               TIRA GLUCOMETRIA FREESTYLE H OPTIUM .PZA     2
RC0001048091909H202100015132501700015132501726/10/20210901    3190330923742196425000011137100001419310000000000000                                                               TIRA GLUCOMETRIA FREESTYLE H OPTIUM .PZA     2
RC0001043198490H202100015132501700015132501726/10/20210901    3190330923742196425000011137100001419310000000000000                                                               TIRA GLUCOMETRIA FREESTYLE H OPTIUM .PZA     1
RC0001048091914H202100015132501700015132501726/10/20210901    3190330923742196425000011137100001419310000000000000                                                               TIRA GLUCOMETRIA FREESTYLE H OPTIUM .PZA     2
RC0001053013307H202100015132501700015132501726/10/20210901    3190330923742196425000011137100001419310000000000000                                                               TIRA GLUCOMETRIA FREESTYLE H OPTIUM .PZA     2
RC0001048091952H202100015132501700015132501726/10/20210901    3190330923742196425000011137100001419310000000000000                                                               TIRA GLUCOMETRIA FREESTYLE H OPTIUM .PZA     2
