CC0001002182810H202100015112645400015112645426/10/20210652    3190189623742196425000030161400001459220000000000000                                                                       MANGUERA SUCCION 6 MM*3.1 MTSSOB     2
CC0001002182810H202100015112645400015112645426/10/20210652    3190189623742196425000039176700001029620000000000000                                                                    SUJETADOR TUBO ENDOTRAQUEAL 9799SOB     1
CC0001002182810H202100015112645400015112645426/10/20210652    3190189623742196425000038569400000256750000000000000                                                                        SONDA ASPIRACION CONTROL #14SIN     7
CC0001002182810H202100015112645400015112645426/10/20210652    3190189623742196425000055816100001138270000000000000                                                            SET VENTILACI BASIC AD MP00349 180CM*22MBOL     1
CC0001002182810H202100015112645400015112645426/10/20210652    3190189623742196425000010252000003981620000000000000                                                            RESUCITADOR MANUAL ADULTO BE - 2503 AMBUBOL     1
CC0001002182810H202100015112645400015112645426/10/20210652    3190189623742196425000036441300000236540000000000000                                                                    JERINGA 1 ML GASES ARTERIAL 9023SIN     5
CC0001002182810H202100015112645400015112645426/10/20210652    3190189623742196425000024674000000220660000000000000                             JERINGA A 3 PARTES CON AGUJA  SOB X 1 RYMCO  10ML BN EXENTO-DC.417/2020SIN     3
CC0001002182810H202100015112645400015112645426/10/20210652    3190189623742196425000020816000001096410000000000000                                                                          LINER PARED DELGADA 1500CCBOL     1
CC0001002182810H202100015112645400015112645426/10/20210652    31901896237421964250000E1AB0200000199290000000000000                                                            SOLUCION SALINA 0.9% SLN INY BO X 100 MLBIN     4
