RC0001041699033H202100000554974500000554974526/10/20211307     3300010237421964250000J01GB500000552920000000000000                                                                       AMIKACINA SLN INY 500 MG/2 MLAMP     1
RC0001041699033H202100000554974500000554974526/10/20211451     3300010237421964250000M01A2500001457560000000000000                                                             ADVIL CHILDREN 100 MG/5 ML X 100 ML /R/FCO     1
RC0001041699033H202100000554974500000554974526/10/20211307     3300010237421964250000N02B1100001169680000000000000                              PARACETAMOL 1000MG/100ML(10MG/ML) SOL INY  VIAL X 100ML FRESENIUS KABIVAL     2
