CC0000010776876H202100015032577300015032577326/10/20212100    3190240923742196425000011082700001620070000000000000                                                               EQUIPO SET PRIMARIO C/CLAVE REF 14001BOL     1
CC0000008633435H202100015032577300015032577326/10/20212100    3190240923742196425000011082700001620070000000000000                                                               EQUIPO SET PRIMARIO C/CLAVE REF 14001BOL     1
CC0000010776876H202100015032577300015032577326/10/20212100    3190240923742196425000001956000001620610000000000000                                                                      CONECTOR MICRO CLAVE LAT-MC100SOB     1
CC0001140828821H202100015032577300015032577326/10/20212100    3190240923742196425000001956000001620610000000000000                                                                      CONECTOR MICRO CLAVE LAT-MC100SOB     2
CC0000010776876H202100015032577300015032577326/10/20212100    31902409237421964250000Q1AA7300000610640000000000000                                                            CATETER PERIFE INTROCAN # 22G 4251628-04SIN     2
CC0001140828821H202100015032577300015032577326/10/20212100    31902409237421964250000Q1AA7300000610640000000000000                                                            CATETER PERIFE INTROCAN # 22G 4251628-04SIN     3
RC0001048085750H202100015032577300015032577326/10/20212100    3190240923742196425000030936900001431840000000000000                                                                                              BURETABOL     1
CC0000010776876H202100015032577300015032577326/10/20212100    3190240923742196425000030936900001431840000000000000                                                                                              BURETABOL     1
CC0000008633435H202100015032577300015032577326/10/20212100    3190240923742196425000030936900001431840000000000000                                                                                              BURETABOL     1
CC0000010776876H202100015032577300015032577326/10/20212100    3190240923742196425000016830000000970620000000000000                                                             SIST FIJACION CAT PERIFERICO 6.5X7 1683SOB     1
CC0001140828821H202100015032577300015032577326/10/20212100    3190240923742196425000016830000000970620000000000000                                                             SIST FIJACION CAT PERIFERICO 6.5X7 1683SOB     1
CC0000010776876H202100015032577300015032577326/10/20212100    31902409237421964250000E1AD0200003888320000000000000                                                                              HARTMAN SLN INY 500 MLBOL     1
RC0001048085750H202100015032577300015032577326/10/20212100    31902409237421964250000E1AB0300003888390000000000000                                                            SOLUCION SALINA 0.9% SLN INY BO X 500 MLBOL     1
