CC0000032842949H202100000554964500000554964526/10/20210139     3300009237421964250000V3AB2200000614150000000000000                                                            GLUCONATO CALCIO SLN INY 10% AMP X 10 MLAPC     3
CC0000032842949H202100000554964500000554964526/10/20210148    31901827237421964250000E1AB0700003888350000000000000                                                            SOLUCION SALINA 0.9% SLN INY BO X 250 MLBOL     1
CC0000032842949H202100000554964500000554964526/10/20211459    31902651237421964250000E1AB0300003888390000000000000                                                            SOLUCION SALINA 0.9% SLN INY BO X 500 MLBOL     3
CC0000032842949H202100000554964500000554964526/10/20210107    31901827237421964250000E1AB0300003888390000000000000                                                            SOLUCION SALINA 0.9% SLN INY BO X 500 MLBOL     2
CC0000032842949H202100000554964500000554964526/10/20210920     3300009237421964250000A02B0800001276960000000000000                                                                                 OMEPRAZOL CAP 20 MGCAP     1
CC0000032842949H202100000554964500000554964526/10/20211401     3300010237421964250000A06A1700001333140000000000000                                                                                 BISACODILO TAB 5 MGTAB     3
CC0000032842949H202100000554964500000554964526/10/20210139     3300009237421964250000A10AE300000199150000000000000                                                                 NOVOLIN R SUSP INY 100UI/ML X 10 MLVAL     1
CC0000032842949H202100000554964500000554964526/10/20212324     3300010237421964250000C07A1400001333340000000000000                                                                          CARVEDILOL TAB 12.5 MG /R/TAB     1
CC0000032842949H202100000554964500000554964526/10/20210920     3300009237421964250000C07A1400001333340000000000000                                                                          CARVEDILOL TAB 12.5 MG /R/TAB     1
CC0000032842949H202100000554964500000554964526/10/20210920     3300009237421964250000C10AA500001314010000000000000                                                                             ATORVASTATINA TAB 40 MGTAB     1
CC0000032842949H202100000554964500000554964526/10/20210920     3300009237421964250000N2BE2200001252930000000000000                                                                             ACETAMINOFEN Tab 500 MGTAB     6
CC0000032842949H202100000554964500000554964526/10/20210920     3300009237421964250000N03AX800001334920000000000000                                                                               LEGABIN CAP 75 MG /R/CAP     1
CC0000032842949H202100000554964500000554964526/10/20211459    31902651237421964250000V07A1300000502600000000000000                                                                                AGUA ESTERIL x 10 mlAMP    10
