CC0001143446873U202100050131374400050131374426/10/20210822    3190233623942196432000011082700001620070000000000000                                                               EQUIPO SET PRIMARIO C/CLAVE REF 14001BOL     1
CC0001143446873U202100050131374400050131374426/10/20210822    31902336239421964320000Q1AA7100000610620000000000000                                                            CATETER PERIFE INTROCAN # 18G 4251687-04SIN     1
CC0001143446873U202100050131374400050131374426/10/20210822    3190233623942196432000030936900001431840000000000000                                                                                              BURETABOL     1
CC0001143446873U202100050131374400050131374426/10/20210822    3190233623942196432000016830000000970620000000000000                                                             SIST FIJACION CAT PERIFERICO 6.5X7 1683SOB     1
CC0001143446873U202100050131374400050131374426/10/20210822    31902336239421964320000E1AD0300000199490000000000000                                         LACTATO RINGER USP (HARTMANN)  SOL INY  BOL X 1000ML BAXTERBIN     1
CC0001143446873U202100050131374400050131374426/10/20210822    31902336239421964320000E1AB0500003888400000000000000                                                              SOLUCION SALINA 0.9% SLN INY X 1000 MLBOL     1
