CC0000008761530H202100015112645300015112645326/10/20210649    3190099923742196425000024674000000220660000000000000                             JERINGA A 3 PARTES CON AGUJA  SOB X 1 RYMCO  10ML BN EXENTO-DC.417/2020SIN    10
CC0000008761530H202100015112645300015112645326/10/20210649    3190099923742196425000011082700001620070000000000000                                                               EQUIPO SET PRIMARIO C/CLAVE REF 14001BOL     1
CC0000008761530H202100015112645300015112645326/10/20210649    31900999237421964250000E1AA1400003888550000000000000                                                                         DEXTROSA 10% SLN INY 250 MLBOL     1
