CC0000084078895H202100000554965200000554965226/10/20210148     3300010237421964250000A2AH0200001128980000000000000                                                                           MILPAX SUSP ORAL X 360 MLFCO     1
CC0000084078895H202100000554965200000554965226/10/20210527     3300009237421964250000B1AB0200003939510000000000000                 ENOXAPARINA SODICA 40MG/0.4ML(100MG/ML) SOL INY INST CAJ X 2JERPREL X 0.4ML TECHDOWJRP     1
CC0000084078895H202100000554965200000554965226/10/20211822    31903331237421964250000V07A1300000502600000000000000                                                                                AGUA ESTERIL x 10 mlAMP     5
