RC0001044435833U202100050131383900050131383926/10/20212153    3190016323942196432000024674000000220660000000000000                             JERINGA A 3 PARTES CON AGUJA  SOB X 1 RYMCO  10ML BN EXENTO-DC.417/2020SIN     1
RC0001044435833U202100050131383900050131383926/10/20212153    3190016323942196432000024673600000222980000000000000                                                                     JERINGA DESECHABLE 5 ml 27*11/2SIN     2
RC0001044435833U202100050131383900050131383926/10/20212153    3190016323942196432000011082700001620070000000000000                                                               EQUIPO SET PRIMARIO C/CLAVE REF 14001BOL     1
RC0001044435833U202100050131383900050131383926/10/20212153    31900163239421964320000Q1AA7400003911720000000000000                                                            CATETER PERIFE INTROCAN # 24G 4251601-04SOB     1
RC0001044435833U202100050131383900050131383926/10/20212153    3190016323942196432000000602600001259280000000000000                                                             APOSITO TEGADERM IV PD 1610 5CM X 5.7CMSOB     1
RC0001044435833U202100050131383900050131383926/10/20212153    31900163239421964320000E1AB0200000199290000000000000                                                            SOLUCION SALINA 0.9% SLN INY BO X 100 MLBIN     1
