CC0001143405243U202100050131384700050131384726/10/20212244    3190135523942196432000024674000000220660000000000000                             JERINGA A 3 PARTES CON AGUJA  SOB X 1 RYMCO  10ML BN EXENTO-DC.417/2020SIN     3
CC0001143405243U202100050131384700050131384726/10/20212244    3190135523942196432000011082700001620070000000000000                                                               EQUIPO SET PRIMARIO C/CLAVE REF 14001BOL     1
CC0001143405243U202100050131384700050131384726/10/20212244    31901355239421964320000Q1AA7200000610630000000000000                                                            CATETER PERIFE INTROCAN # 20G 4251644-04SIN     1
CC0001143405243U202100050131384700050131384726/10/20212244    3190135523942196432000030936900001431840000000000000                                                                                              BURETABOL     1
CC0001143405243U202100050131384700050131384726/10/20212244    3190135523942196432000016830000000970620000000000000                                                             SIST FIJACION CAT PERIFERICO 6.5X7 1683SOB     1
