RC0001146540191U202100050131377800050131377826/10/20211232    3190101223942196432000024673600000222980000000000000                                                                     JERINGA DESECHABLE 5 ml 27*11/2SIN     2
RC0001146540191U202100050131377800050131377826/10/20211232    3190101223942196432000011082700001620070000000000000                                                               EQUIPO SET PRIMARIO C/CLAVE REF 14001BOL     1
RC0001146540191U202100050131377800050131377826/10/20211232    3190101223942196432000001956000001620610000000000000                                                                      CONECTOR MICRO CLAVE LAT-MC100SOB     1
RC0001146540191U202100050131377800050131377826/10/20211232    31901012239421964320000Q1AA7400003911720000000000000                                                            CATETER PERIFE INTROCAN # 24G 4251601-04SOB     1
RC0001146540191U202100050131377800050131377826/10/20211232    3190101223942196432000030936900001431840000000000000                                                                                              BURETABOL     1
RC0001146540191U202100050131377800050131377826/10/20211232    3190101223942196432000000602600001259280000000000000                                                             APOSITO TEGADERM IV PD 1610 5CM X 5.7CMSOB     1
RC0001146540191U202100050131377800050131377826/10/20211232    31901012239421964320000E1AB0300003888390000000000000                                                            SOLUCION SALINA 0.9% SLN INY BO X 500 MLBOL     1
