CC0001007795121H202100015042507500015042507526/10/20211722    3150008223742196425000042753100003929850000000000000                   GASA ADHESIVA STRETCH REF 02037-00 ROL X 10MT FIXOMULL 10CM BN EXENTO-DC.417/2020CMT    10
TI0001047048202H202100015042507500015042507526/10/20211722    3150008223742196425000042753100003929850000000000000                   GASA ADHESIVA STRETCH REF 02037-00 ROL X 10MT FIXOMULL 10CM BN EXENTO-DC.417/2020CMT    10
RC0001043710353H202100015042507500015042507526/10/20211722    3150008223742196425000042753100003929850000000000000                   GASA ADHESIVA STRETCH REF 02037-00 ROL X 10MT FIXOMULL 10CM BN EXENTO-DC.417/2020CMT    10
CC0001007795121H202100015042507500015042507526/10/20211722    3150008223742196425000000602700001197200000000000000                                                              APOSITO TRANSP  1655 IV 8.5CM X 11.5CMSOB     1
TI0001047048202H202100015042507500015042507526/10/20211722    3150008223742196425000016830000000970620000000000000                                                             SIST FIJACION CAT PERIFERICO 6.5X7 1683SOB     1
RC0001043710353H202100015042507500015042507526/10/20211722    3150008223742196425000016830000000970620000000000000                                                             SIST FIJACION CAT PERIFERICO 6.5X7 1683SOB     1
