CC0000008536017A202100000027863200000027863213/12/20211809    3190333624042196419000030936900001431840000000000000                                                                                              BURETABOL     1
CC0000008536017A202100000027863200000027863213/12/20211809    3190333624042196419000011082700001620070000000000000                                                               EQUIPO SET PRIMARIO C/CLAVE REF 14001BOL     1
CC0000008536017A202100000027863200000027863213/12/20211809    31903336240421964190000E1BA0700000198910000000000000                                                                   UROMATIC Sln IRRIGACION X 3000 MLBIN     5
CC0000008536017A202100000027863200000027863213/12/20211809    31903336240421964190000J01GB500000552920000000000000                                                                       AMIKACINA SLN INY 500 MG/2 MLAMP     2
CC0000008536017A202100000027863200000027863213/12/20211809    31903336240421964190000N1BA0500000647360000000000000                                                                  BUPIROP 0.5% PESADO SLN INY X 4 MLAPC     1
CC0000008536017A202100000027863200000027863213/12/20211809    3190333624042196419000020060000000225230000000000000                                                               AGUJA SPINOCAN 27G X 3 1/2 PU 4503902SIN     1
CC0000008536017A202100000027863200000027863213/12/20211809    3190333624042196419000049059800000267410000000000000                                                                 MEDIA ANTIEMBOLICA TAL L 3634LF PARBOL     1
CC0000008536017A202100000027863200000027863213/12/20211809    3190333624042196419000038572000001123520000000000000                                                                              SONDA FOLEY #24 3 VIASSOB     1
CC0000008536017A202100000027863200000027863213/12/20211809    3190333624042196419000053074400000607910000000000000                                                               GASA ESTERIL 10*10 SOBRE X 3 UNIDADESSOB     1
CC0000008536017A202100000027863200000027863213/12/20211809    3190333624042196419000022424500000236720000000000000                                                                     EQUIPO EN Y IRRIGA ARC4005 4006SOB     2
CC0000008536017A202100000027863200000027863213/12/20211809    31903336240421964190000N1BA1900000554750000000000000                                                                     ROXICAINA JALEA 2% TUBO X 30 MLTUB     2
CC0000008536017A202100000027863200000027863213/12/20211809    3190333624042196419000031188000000236790000000000000                                                                                     CISTOFLO ADULTOSIN     1
CC0000008536017A202100000027863200000027863213/12/20211809    31903336240421964190000J01DA300001239950000000000000                                                            CEFAZOLINA SODICA POLVO LIOF SLN INY 1 GVAL     2
CC0000008536017A202100000027863200000027863213/12/20211809    3190333624042196419000022425200000548240000000000000                       EXTENSION DE ANESTESIA REF 1139 SOB X 1 SHERLEG  ADULTO BN EXENTO-DC.417/2020SIN     1
CC0000008536017A202100000027863200000027863213/12/20211809    3190333624042196419000016830000000970620000000000000                                                             SIST FIJACION CAT PERIFERICO 6.5X7 1683SOB     1
CC0000008536017A202100000027863200000027863213/12/20211809    3190333624042196419000035356500003919000000000000000                                                                                        LLAVE 3 VIASSOB     2
CC0000008536017A202100000027863200000027863213/12/20211809    3190333624042196419000022426800001140510000000000000                                                                    EQUIPO MACROGOTEO BAXTER MRC0001SOB     1
CC0000008536017A202100000027863200000027863213/12/20211809    31903336240421964190000Q1AA7100000610620000000000000                                                            CATETER PERIFE INTROCAN # 18G 4251687-04SIN     1
CC0000008536017A202100000027863200000027863213/12/20211809    3190333624042196419000024673600000222980000000000000                                                                     JERINGA DESECHABLE 5 ml 27*11/2SIN     2
CC0000008536017A202100000027863200000027863213/12/20211809    3190333624042196419000024674000001138340000000000000   JERINGA 3PARTES C/A 10ML REF JEHL005 CAJ X 100 ALFASAFE  21GX1 PULG 1/2 PULG BN EXENTO-DC.417/202PZA     5
CC0000008536017A202100000027863200000027863213/12/20211809    3190333624042196419000024674500000322810000000000000                                                                   JERINGA DESECHABLE 20 ml 21*1 1/2SIN     1
CC0000008536017A202100000027863200000027863213/12/20211809    3190333624042196419000043485100001618510000000000000                GUANTE QUIRURGICO DE LATEX REF 2D72N65X CAJ X 50 PROTEXIS  6.5 BN EXENTO-DC.417/2020SOB     4
CC0000008536017A202100000027863200000027863213/12/20211809    3190333624042196419000011085100001082120000000000000                                                                           GUANTE QUIRURGICO TALLA 7SOB     3
CC0000008536017A202100000027863200000027863213/12/20211809    3190333624042196419000011085200001585390000000000000                                                                       GUANTE QUIRURGICO TALLA 7 1/2SOB     2
CC0000008536017A202100000027863200000027863213/12/20211809    3190333624042196419000020750600000296780000000000000                                                                PLACA ELECTRO RETORNO PACIENTE E7506SIN     1
CC0000008536017A202100000027863200000027863213/12/20211809    3190333624042196419000051515500000598160000000000000                                                                            MASCARILLA ANESTESIA # 5SIN     1
CC0000008536017A202100000027863200000027863213/12/20211809    3190333624042196419000030161400001459220000000000000                                                                       MANGUERA SUCCION 6 MM*3.1 MTSSOB     2
CC0000008536017A202100000027863200000027863213/12/20211809    3190333624042196419000011073300001096420000000000000                                                                BOLSA DE SUCCION DE FLUIDOS x 2500mLBOL     1
CC0000008536017A202100000027863200000027863213/12/20211809    31903336240421964190000E1AB0300003888390000000000000                                                            SOLUCION SALINA 0.9% SLN INY BO X 500 MLBOL     6
CC0000008536017A202100000027863200000027863213/12/20211809    31903336240421964190000N02B1100001464120000000000000                                           PARACETAMOL EP 1000MG/100ML(10MG/ML) SOL INY  CAJ X 10FCOVAL     1
CC0000008536017A202100000027863200000027863213/12/20211809    3190333624042196419000011082600000265810000000000000                                                              EQUIPO IRRIGACION URINARIA REF MRC4002SOB     1
