CC0000026376694U202100050132033000050132033013/12/20210019    3200080323942196432000030936900001431840000000000000                                                                                              BURETABOL     1
CC0000026376694U202100050132033000050132033013/12/20210019    32000803239421964320000E1AB0300003888390000000000000                                                            SOLUCION SALINA 0.9% SLN INY BO X 500 MLBOL     1
CC0000026376694U202100050132033000050132033013/12/20210019    3200080323942196432000011082700001620070000000000000                                                               EQUIPO SET PRIMARIO C/CLAVE REF 14001BOL     1
