CC0001129510914H202100000556559800000556559804/12/20211535     3300009237421964250000A3BB0200000512940000000000000                                                                          BUSCAPINA SIMPLE Iny 20 mgAMP     1
CC0001129510914H202100000556559800000556559804/12/20210955     3300009237421964250000A3BB0200000512940000000000000                                                                          BUSCAPINA SIMPLE Iny 20 mgAMP     2
CC0001129510914H202100000556559800000556559804/12/20211535     3300009237421964250000B1AB0200003939510000000000000                 ENOXAPARINA SODICA 40MG/0.4ML(100MG/ML) SOL INY INST CAJ X 2JERPREL X 0.4ML TECHDOWJRP     1
CC0001129510914H202100000556559800000556559804/12/20210955     3300009237421964250000G03D0200001335910000000000000                                                                      GESLUTIN CAP BLANCA 200 MG /R/CAP     3
CC0001129510914H202100000556559800000556559804/12/20211333    31903290237421964250000V07A1300000502600000000000000                                                                                AGUA ESTERIL x 10 mlAMP     3
