RC0001043934327U202100050132037600050132037613/12/20210957    31500657239421964320000E1AB0200000199290000000000000                                                            SOLUCION SALINA 0.9% SLN INY BO X 100 MLBIN     2
RC0001043934327U202100050132037600050132037613/12/20210957    3150065723942196432000024673600000222980000000000000                                                                     JERINGA DESECHABLE 5 ml 27*11/2SIN     1
RC0001043934327U202100050132037600050132037613/12/20210957    3150065723942196432000024674000001138340000000000000   JERINGA 3PARTES C/A 10ML REF JEHL005 CAJ X 100 ALFASAFE  21GX1 PULG 1/2 PULG BN EXENTO-DC.417/202PZA     1
RC0001043934327U202100050132037600050132037613/12/20210957    3150065723942196432000035356500003919000000000000000                                                                                        LLAVE 3 VIASSOB     1
RC0001043934327U202100050132037600050132037613/12/20210957    31500657239421964320000E1AB1100003888280000000000000                                                                        SOLUCION SALINA 0.9% X 50 mlBOL     1
RC0001043934327U202100050132037600050132037613/12/20210957    3150065723942196432000022425200000548240000000000000                       EXTENSION DE ANESTESIA REF 1139 SOB X 1 SHERLEG  ADULTO BN EXENTO-DC.417/2020SIN     1
RC0001043934327U202100050132037600050132037613/12/20210957    3150065723942196432000022426800001140510000000000000                                                                    EQUIPO MACROGOTEO BAXTER MRC0001SOB     1
RC0001043934327U202100050132037600050132037613/12/20210957    3150065723942196432000011048600000223020000000000000                                                                 JERINGA VACUNACION 3ML C/AGU 302542SIN     1
RC0001043934327U202100050132037600050132037613/12/20210957    3150065723942196432000045136100001419300000000000000                                                                            LANCETA DEXTROMETER X UNPZA     5
RC0001043934327U202100050132037600050132037613/12/20210957    3150065723942196432000011137100001419310000000000000                                                               TIRA GLUCOMETRIA FREESTYLE H OPTIUM .PZA     6
