CC0000008784844U202100914595120300914595120303/12/20211044    3150065723942196432000011082700001620070000000000000                                                               EQUIPO SET PRIMARIO C/CLAVE REF 14001BOL     1
CC0000008784844U202100914595120300914595120303/12/20211044    3150065723942196432000016830000000970620000000000000                                                             SIST FIJACION CAT PERIFERICO 6.5X7 1683SOB     1
CC0000008784844U202100914595120300914595120303/12/20211044    3150065723942196432000024673000001411210000000000000                                                                  JERINGA DESECHABLE 3 ML 21 X 1 1/2SOB     1
CC0000008784844U202100914595120300914595120303/12/20211044    3150065723942196432000030936900001431840000000000000                                                                                              BURETABOL     1
CC0000008784844U202100914595120300914595120303/12/20211044    3150065723942196432000001956000001620610000000000000                                                                      CONECTOR MICRO CLAVE LAT-MC100SOB     1
CC0000008784844U202100914595120300914595120303/12/20211044    31500657239421964320000Q1AA7200000610630000000000000                                                            CATETER PERIFE INTROCAN # 20G 4251644-04SIN     1
CC0000008784844U202100914595120300914595120303/12/20211044    31500657239421964320000E1AB0300003888390000000000000                                                            SOLUCION SALINA 0.9% SLN INY BO X 500 MLBOL     1
