CC0001143459858U202100913568122100913568122121/12/20212014    31901010239421964320000B05C0200001339660000000000000                                                                        SOLUCION SALINA 0.9% X 10 MLJRP     1
CC0001143459858U202100913568122100913568122121/12/20212014    31901010239421964320000Q1AA7000001097160000000000000                                                            CATETER PERIFE INTROCAN # 16G 4251709-04SOB     1
CC0001143459858U202100913568122100913568122121/12/20212014    3190101023942196432000000602600001259280000000000000                                                             APOSITO TEGADERM IV PD 1610 5CM X 5.7CMSOB     1
CC0001143459858U202100913568122100913568122121/12/20212014    3190101023942196432000001956000001620610000000000000                                                                      CONECTOR MICRO CLAVE LAT-MC100SOB     1
