RC0001048083428U202100050132049300050132049313/12/20212331    3190101023942196432000030936900001431840000000000000                                                                                              BURETABOL     1
RC0001046730962U202100050132049300050132049313/12/20212331    3190101023942196432000030936900001431840000000000000                                                                                              BURETABOL     1
RC0001046730962U202100050132049300050132049313/12/20212331    3190101023942196432000024673000001411210000000000000                                                                  JERINGA DESECHABLE 3 ML 21 X 1 1/2SOB     1
RC0001046730962U202100050132049300050132049313/12/20212331    3190101023942196432000000602600001259280000000000000                                                             APOSITO TEGADERM IV PD 1610 5CM X 5.7CMSOB     1
RC0001046730962U202100050132049300050132049313/12/20212331    31901010239421964320000Q1AA7400003911720000000000000                                                            CATETER PERIFE INTROCAN # 24G 4251601-04SOB     1
RC0001046730962U202100050132049300050132049313/12/20212331    3190101023942196432000011082700001620070000000000000                                                               EQUIPO SET PRIMARIO C/CLAVE REF 14001BOL     1
RC0001046730962U202100050132049300050132049313/12/20212331    3190101023942196432000011048600000223020000000000000                                                                 JERINGA VACUNACION 3ML C/AGU 302542SIN     1
RC0001046730962U202100050132049300050132049313/12/20212331    31901010239421964320000E1AD0300000199490000000000000                                         LACTATO RINGER USP (HARTMANN)  SOL INY  BOL X 1000ML BAXTERBIN     1
