CC0001129489867H202100000556550900000556550904/12/20211649     3300009237421964250000A2AA0200000552290000000000000                                                            HIDROXIDO MAGNESIO 8 5GR/100ML SUSP 120MFCO     1
CC0001129489867H202100000556550900000556550904/12/20211229     3300009237421964250000A07A0400001270530000000000000                                                            HONGISTINA SUSP ORA 100000 UI/ML X 60 MLFCO     1
CC0001129489867H202100000556550900000556550904/12/20211746    31500581237421964250000E1AB0300003888390000000000000                                                            SOLUCION SALINA 0.9% SLN INY BO X 500 MLBOL     1
CC0001129489867H202100000556550900000556550904/12/20211229     3300009237421964250000N1BA1900000554750000000000000                                                                     ROXICAINA JALEA 2% TUBO X 30 MLTUB     1
CC0001129489867H202100000556550900000556550904/12/20210831     3300009237421964250000B01AB200000513350000000000000                                                                        CLENOX SLN INY 40 MG/ 0.4 MLJRP     1
CC0001129489867H202100000556550900000556550904/12/20211837     3300010237421964250000G01AA300001389790000000000000                                                                           METRONIDAZOL OVULO 500 MGOVU     1
CC0001129489867H202100000556550900000556550904/12/20211649     3300009237421964250000N2BB0100001672010000000000000                                  DIPIRONA 1GR/2ML(0.5GR/ML) SOL INY INST CAJ X 100AMP X 2ML VITALISAMP     5
CC0001129489867H202100000556550900000556550904/12/20210831     3300009237421964250000A02BC700001684270000000000000                                                            OMEPRAZOL 40MG POLVO LIOFILIZADO AMPOLLAVAL     1
CC0001129489867H202100000556550900000556550904/12/20211243    31902788237421964250000V07A1300000502600000000000000                                                                                AGUA ESTERIL x 10 mlAMP     5
