CC0001140863047U202100000556891900000556891913/12/20211235    31500292239421964320000E1AD0300000199490000000000000                                         LACTATO RINGER USP (HARTMANN)  SOL INY  BOL X 1000ML BAXTERBIN     1
CC0001140863047U202100000556891900000556891913/12/20211109     3300010239421964320000A03F0500001692520000000000000                                                                   ALIZAPRIDA HCL SLN INY 50 MG/2 MLAMP     1
CC0001140863047U202100000556891900000556891913/12/20211109     3300010239421964320000A03BB100003889180000000000000                                      HIOSCINA BUTIL BROMURO 20MG/ML SOL INY CAJ X 100AMP X 1ML RYANAMP     2
CC0001140863047U202100000556891900000556891913/12/20211109     3300010239421964320000N02BB100000777810000000000000                                                               DIPIRONA MAGNESICA SLN INY 2.5 G/5 MLAMP     1
