CC0000003779763H202100000556889800000556889813/12/20211044     3300009237421964250000A10A1800000725300000000000000                                                             LANTUS SOLOSTAR JER 100 UI/ML X 3 ML /RCAJ     1
CC0000003779763H202100000556889800000556889813/12/20211836     3300009237421964250000B01A0900001333490000000000000                                                                             CILOSTAL TAB 100 MG /R/TAB     2
CC0000003779763H202100000556889800000556889813/12/20211737    31900995237421964250000E1AB0200000199290000000000000                                                            SOLUCION SALINA 0.9% SLN INY BO X 100 MLBIN     1
CC0000003779763H202100000556889800000556889813/12/20211038    31500519237421964250000E1AB0300003888390000000000000                                                            SOLUCION SALINA 0.9% SLN INY BO X 500 MLBOL     1
CC0000003779763H202100000556889800000556889813/12/20211043     3300009237421964250000C09C0100001316940000000000000                                                                               DIOVAN TAB 160 MG /R/TAB     2
CC0000003779763H202100000556889800000556889813/12/20211710    31903016237421964250000N1BA2400001687720000000000000                                                    LIDOCAINA 2% SOL INY  CAJ X 50AMP X 10ML CORPAULAMP     2
CC0000003779763H202100000556889800000556889813/12/20211712     3300009237421964250000N03A2300001337150000000000000                                                                               VIMPAT TAB 100 MG /R/TAB     1
CC0000003779763H202100000556889800000556889813/12/20211044     3300009237421964250000A10BA200001311800000000000000                                                                               METFORMINA TAB 500 MGTAB     1
CC0000003779763H202100000556889800000556889813/12/20211043     3300009237421964250000A10BA200001311800000000000000                                                                               METFORMINA TAB 500 MGTAB     1
CC0000003779763H202100000556889800000556889813/12/20211042     3300009237421964250000A10BA200001311800000000000000                                                                               METFORMINA TAB 500 MGTAB     3
CC0000003779763H202100000556889800000556889813/12/20211041     3300009237421964250000B01AC200001333600000000000000                                                                               CLOPIDOGREL TAB 75 MGTAB     1
CC0000003779763H202100000556889800000556889813/12/20211043     3300009237421964250000C03D0200001334290000000000000                                                                           ESPIRONOLACTONA TAB 25 MGTAB     1
CC0000003779763H202100000556889800000556889813/12/20211041     3300009237421964250000C3CA0700001334510000000000000                                                                                FUROSEMIDA TAB 40 MGTAB     1
CC0000003779763H202100000556889800000556889813/12/20211043     3300009237421964250000C07A1400001333340000000000000                                                                          CARVEDILOL TAB 12.5 MG /R/TAB     1
CC0000003779763H202100000556889800000556889813/12/20211041     3300009237421964250000C08CA300001313930000000000000                                                                                AMLODIPINO TAB 10 MGTAB     1
CC0000003779763H202100000556889800000556889813/12/20211043     3300009237421964250000J01F0200001689390000000000000                                                                        CLINDAMICINA INY 600 MG/4 MLAMP     3
CC0000003779763H202100000556889800000556889813/12/20211041     3300009237421964250000N02BA100001276940000000000000                                                                  ACIDO ACETIL SALIC?LICO TAB 100 MGTAB     1
CC0000003779763H202100000556889800000556889813/12/20211043     3300009237421964250000N2BB0100001672010000000000000                                  DIPIRONA 1GR/2ML(0.5GR/ML) SOL INY INST CAJ X 100AMP X 2ML VITALISAMP     3
CC0000003779763H202100000556889800000556889813/12/20211043     3300009237421964250000N03AF200001314280000000000000                                                                        CARBAMAZEPINA TAB 200 MG /R/TAB     2
CC0000003779763H202100000556889800000556889813/12/20212253     3300003237421964250000N03AE300001333590000000000000                                                                                 CLONAZEPAM TAB 2 MGTAB     2
CC0000003779763H202100000556889800000556889813/12/20211554     3300009237421964250000N03AE300001333590000000000000                                                                                 CLONAZEPAM TAB 2 MGTAB     2
