CC0000026664650H202100000556871800000556871813/12/20210920     3300009237421964250000C7AB1400001278150000000000000                                                                       BETALOC ZOK TAB LM 100 MG /R/TAB     1
CC0000026664650H202100000556871800000556871813/12/20210920     3300009237421964250000M1AB0800001359250000000000000                                                                         VOLTAREN SUPOSITORIO 100 MGSUP     1
CC0000026664650H202100000556871800000556871813/12/20210016     3300009237421964250000N02B1100001464120000000000000                                           PARACETAMOL EP 1000MG/100ML(10MG/ML) SOL INY  CAJ X 10FCOVAL     1
