CC0000022467890H202100000556607000000556607005/12/20212124    31902138237421964250000N02B1100001464120000000000000                                           PARACETAMOL EP 1000MG/100ML(10MG/ML) SOL INY  CAJ X 10FCOVAL     2
CC0000022467890H202100000556607000000556607005/12/20212124    31902138237421964250000R5CB0300003841380000000000000                                                                     FLUIMUCIL SLN INY 300 MG X 3 MLAMP     2
CC0000022467890H202100000556607000000556607005/12/20212124    31902138237421964250000V06D1400000968430000000000000                                                                              JEVITY iquido x 500 mlFCO     2
CC0000022467890H202100000556607000000556607005/12/20212124    31902138237421964250000N2AA0200000301600000000000000                                                                        HIDROMORFONA Sln Iny 2 mg/mlAMP     3
CC0000022467890H202100000556607000000556607005/12/20212124    31902138237421964250000B01AB300000513340000000000000                                                                        CLENOX SLN INY 20 MG/ 0.2 MLJRP     1
CC0000022467890H202100000556607000000556607005/12/20212124    31902138237421964250000J1KF0500001317760000000000000                                                                      MEROPENEM POLVO INY 500 MG /R/CAJ     2
CC0000022467890H202100000556607000000556607005/12/20212124    31902138237421964250000A02BC700001684270000000000000                                                            OMEPRAZOL 40MG POLVO LIOFILIZADO AMPOLLAVAL     1
