RC0001046739436H202100000556559100000556559104/12/20211754     3300009237421964250000D07CC300000201260000000000000                                                            BETAMETASONA + A FUSIDICO CREM x 15 g/V/TUB     1
RC0001046739436H202100000556559100000556559104/12/20211012     3300009237421964250000D07CC300000201260000000000000                                                            BETAMETASONA + A FUSIDICO CREM x 15 g/V/TUB     1
RC0001046739436H202100000556559100000556559104/12/20211046     3300010237421964250000A07F0600001089820000000000000                                                                     FLORATIL POLVO SOBRE 250 MG /R/SOB     1
RC0001046739436H202100000556559100000556559104/12/20212156    31500052237421964250000E1AD0200003888320000000000000                                                                              HARTMAN SLN INY 500 MLBOL     1
RC0001046739436H202100000556559100000556559104/12/20211025     3300009237421964250000D08AB100000200760000000000000                                                                     ACID MANTLE LOCION X 120 ML /R/FCO     1
RC0001046739436H202100000556559100000556559104/12/20211046     3300010237421964250000N2BE1100000836430000000000000                                             ACETAMINOFEN 150MG/5ML(3%) JBE INST FCO X 60ML AMER GENCAJ     1
RC0001046739436H202100000556559100000556559104/12/20210952    31903331237421964250000V07A1300000502600000000000000                                                                                AGUA ESTERIL x 10 mlAMP     5
