CC0000072051777A202100000027848300000027848313/12/20210911    3190333624042196419000035356500003919000000000000000                                                                                        LLAVE 3 VIASSOB     2
CC0000072051777A202100000027848300000027848313/12/20210911    31903336240421964190000Q1AA7100000610620000000000000                                                            CATETER PERIFE INTROCAN # 18G 4251687-04SIN     1
CC0000072051777A202100000027848300000027848313/12/20210911    3190333624042196419000022426800001140510000000000000                                                                    EQUIPO MACROGOTEO BAXTER MRC0001SOB     1
CC0000072051777A202100000027848300000027848313/12/20210911    3190333624042196419000016830000000970620000000000000                                                             SIST FIJACION CAT PERIFERICO 6.5X7 1683SOB     1
CC0000072051777A202100000027848300000027848313/12/20210911    31903336240421964190000J01DA300001239950000000000000                                                            CEFAZOLINA SODICA POLVO LIOF SLN INY 1 GVAL     3
CC0000072051777A202100000027848300000027848313/12/20210911    3190333624042196419000011073300001096420000000000000                                                                BOLSA DE SUCCION DE FLUIDOS x 2500mLBOL     1
CC0000072051777A202100000027848300000027848313/12/20210911    3190333624042196419000020750600000296780000000000000                                                                PLACA ELECTRO RETORNO PACIENTE E7506SIN     1
CC0000072051777A202100000027848300000027848313/12/20210911    3190333624042196419000011082700001620070000000000000                                                               EQUIPO SET PRIMARIO C/CLAVE REF 14001BOL     1
CC0000072051777A202100000027848300000027848313/12/20210911    3190333624042196419000053074400000607910000000000000                                                               GASA ESTERIL 10*10 SOBRE X 3 UNIDADESSOB    11
CC0000072051777A202100000027848300000027848313/12/20210911    3190333624042196419000011085300001082140000000000000                                                                           GUANTE QUIRURGICO TALLA 8SOB     4
CC0000072051777A202100000027848300000027848313/12/20210911    3190333624042196419000011085200001585390000000000000                                                                       GUANTE QUIRURGICO TALLA 7 1/2SOB     5
CC0000072051777A202100000027848300000027848313/12/20210911    3190333624042196419000011085100001082120000000000000                                                                           GUANTE QUIRURGICO TALLA 7SOB     3
CC0000072051777A202100000027848300000027848313/12/20210911    3190333624042196419000051515400000598150000000000000                                                                            MASCARILLA ANESTESIA # 4SIN     1
CC0000072051777A202100000027848300000027848313/12/20210911    3190333624042196419000038568100000258050000000000000                                                                         CANULA OXIGENO NASAL ADULTOSIN     1
CC0000072051777A202100000027848300000027848313/12/20210911    3190333624042196419000031010900000762730000000000000                                                                          CANULA GUEDEL # 4 (100 MM)SOB     1
CC0000072051777A202100000027848300000027848313/12/20210911    3190333624042196419000001200400000530690000000000000                                                                          CANULA DE MAYO # 5 (100MM)SIN     1
CC0000072051777A202100000027848300000027848313/12/20210911    3190333624042196419000024673600000222980000000000000                                                                     JERINGA DESECHABLE 5 ml 27*11/2SIN     1
CC0000072051777A202100000027848300000027848313/12/20210911    3190333624042196419000024674000001138340000000000000   JERINGA 3PARTES C/A 10ML REF JEHL005 CAJ X 100 ALFASAFE  21GX1 PULG 1/2 PULG BN EXENTO-DC.417/202PZA     4
CC0000072051777A202100000027848300000027848313/12/20210911    3190333624042196419000024674500000322810000000000000                                                                   JERINGA DESECHABLE 20 ml 21*1 1/2SIN     3
CC0000072051777A202100000027848300000027848313/12/20210911    31903336240421964190000E1AD0200003888320000000000000                                                                              HARTMAN SLN INY 500 MLBOL     2
CC0000072051777A202100000027848300000027848313/12/20210911    31903336240421964190000E1AB0500003888400000000000000                                                              SOLUCION SALINA 0.9% SLN INY X 1000 MLBOL     1
CC0000072051777A202100000027848300000027848313/12/20210911    31903336240421964190000E1AB0300003888390000000000000                                                            SOLUCION SALINA 0.9% SLN INY BO X 500 MLBOL     6
CC0000072051777A202100000027848300000027848313/12/20210911    31903336240421964190000E1AB0700003888350000000000000                                                            SOLUCION SALINA 0.9% SLN INY BO X 250 MLBOL     1
CC0000072051777A202100000027848300000027848313/12/20210911    31903336240421964190000E1AB0200000199290000000000000                                                            SOLUCION SALINA 0.9% SLN INY BO X 100 MLBIN     1
CC0000072051777A202100000027848300000027848313/12/20210911    31903336240421964190000N02B1100001464120000000000000                                           PARACETAMOL EP 1000MG/100ML(10MG/ML) SOL INY  CAJ X 10FCOVAL     1
CC0000072051777A202100000027848300000027848313/12/20210911    31903336240421964190000A2BC0900000200150000000000000                                                                               ORAZOLE Sln Iny 40 mgCIN     1
CC0000072051777A202100000027848300000027848313/12/20210911    31903336240421964190000N01A0400003939010000000000000                                               MAYOPROFOL 200MG/20ML(1%) EMUL INY CAJ X 1VIAL X 20MLVAL     2
CC0000072051777A202100000027848300000027848313/12/20210911    31903336240421964190000M01A0400001341250000000000000                                                                              DYNASTAT AMP 40 MG /R/VAL     1
CC0000072051777A202100000027848300000027848313/12/20210911    31903336240421964190000A4AD0200000202990000000000000                                                                     PLITICAN HCL Sln Iny 50 mg/2 mlAMP     1
CC0000072051777A202100000027848300000027848313/12/20210911    31903336240421964190000H02AB500001664950000000000000                                                            DEXAMETASONA SLN INY 8 MG/2 ML AMP /CDS/AMP     1
CC0000072051777A202100000027848300000027848313/12/20210911    31903336240421964190000N1BA2400001687720000000000000                                                    LIDOCAINA 2% SOL INY  CAJ X 50AMP X 10ML CORPAULAMP     1
CC0000072051777A202100000027848300000027848313/12/20210911    31903336240421964190000N1BA1400000220050000000000000                                                                 ROXICAINA 2% C/EPIN Sln Iny x 50 mlFCO     1
CC0000072051777A202100000027848300000027848313/12/20210911    31903336240421964190000N2AA0100000301640000000000000                                                                            MORFINA Sln Iny 10 mg/mlAMP     1
CC0000072051777A202100000027848300000027848313/12/20210911    31903336240421964190000N5CD0300000218170000000000000                                                              DORMICUM IV-IM 5MG/5ML(1MG/ML) SOL INYAMP     1
CC0000072051777A202100000027848300000027848313/12/20210911    31903336240421964190000N2AA0700001587170000000000000                                                                                 ULTIVA Sln Iny 2 mgVAL     1
CC0000072051777A202100000027848300000027848313/12/20210911    31903336240421964190000N1AH0200003906560000000000000                                                                     FENTANIL Iny 0.05 mg/ml x 10 mlAMP     1
CC0000072051777A202100000027848300000027848313/12/20210911    3190333624042196419000011047900000223010000000000000                                                                            JERINGA X 1ML REF 302579SIN     1
CC0000072051777A202100000027848300000027848313/12/20210911    3190333624042196419000049419800001679910000000000000                                                                        VENDA ALGODON 6*5 NO ESTERILSOB     4
CC0000072051777A202100000027848300000027848313/12/20210911    3190333624042196419000049428500000738570000000000000                                                                       VENDA ELASTICA 6*5 NO ESTERILSOB     4
CC0000072051777A202100000027848300000027848313/12/20210911    3190333624042196419000061196200000495170000000000000                                                                   SURGICEL FIBRILAR 5.1*10.2 411962SOB     1
CC0000072051777A202100000027848300000027848313/12/20210911    31903336240421964190000B02B0300000481440000000000000                                                                     OCTOSTIM SLN INY 15 MCG/ ML /R/AMP     2
CC0000072051777A202100000027848300000027848313/12/20210911    3190333624042196419000042743200003929860000000000000                   GASA ADHESIVA STRETCH REF 02038-00 ROL X 10MT FIXOMULL 15CM BN EXENTO-DC.417/2020CMT   150
CC0000072051777A202100000027848300000027848313/12/20210911    31903336240421964190000B2BX0400001469550000000000000                                                                PROTAMINA Sln Iny 1000 UI/ ml x 5 mlAMP     1
CC0000072051777A202100000027848300000027848313/12/20210911    3190333624042196419000017575900000367370000000000000                                                               SUTURA PROLENE 6-0 60CM BV1(2) M8805TSIN     2
CC0000072051777A202100000027848300000027848313/12/20210911    3190333624042196419000038569900001124970000000000000                                                                              SONDA FOLEY #14 2 VIASSOB     1
CC0000072051777A202100000027848300000027848313/12/20210911    31903336240421964190000N1BA1900000554750000000000000                                                                     ROXICAINA JALEA 2% TUBO X 30 MLTUB     1
CC0000072051777A202100000027848300000027848313/12/20210911    3190333624042196419000031188000000236790000000000000                                                                                     CISTOFLO ADULTOSIN     1
CC0000072051777A202100000027848300000027848313/12/20210911    31903336240421964190000N1BA0500000647360000000000000                                                                  BUPIROP 0.5% PESADO SLN INY X 4 MLAPC     1
CC0000072051777A202100000027848300000027848313/12/20210911    3190333624042196419000020060000000225230000000000000                                                               AGUJA SPINOCAN 27G X 3 1/2 PU 4503902SIN     1
CC0000072051777A202100000027848300000027848313/12/20210911    31903336240421964190000B1AB0100001227270000000000000                                             HEPAMAX 25000UI/5ML(5000UI/ML) SOL INY  CAJ X 25AMPX5MLAMP     1
CC0000072051777A202100000027848300000027848313/12/20210911    3190333624042196419000038568300000257010000000000000                                                                                   SONDA NELATON #08SIN     1
CC0000072051777A202100000027848300000027848313/12/20210911    31903336240421964190000Q1AA7200000610630000000000000                                                            CATETER PERIFE INTROCAN # 20G 4251644-04SIN     1
CC0000072051777A202100000027848300000027848313/12/20210911    31903336240421964190000Q1AA6900000531340000000000000                                                            CATETER PERIFE INTROCAN # 14G 4251890-04SIN     1
CC0000072051777A202100000027848300000027848313/12/20210911    3190333624042196419000011819700000233700000000000000                                                                                CINTA UMBILICAL U10TSIN     1
CC0000072051777A202100000027848300000027848313/12/20210911    3190333624042196419000045138000001413890000000000000                                                                       LAPIZ ELECTROBISTURI  SOB X 1SOB     1
CC0000072051777A202100000027848300000027848313/12/20210911    3190333624042196419000019488400000599300000000000000                                                                               VICRYL 2-0 SH VCP317HSIN     1
CC0000072051777A202100000027848300000027848313/12/20210911    3190333624042196419000019487500000602970000000000000                                                                           VICRYL 2-0 CT1 90 VCP345HSIN     4
CC0000072051777A202100000027848300000027848313/12/20210911    3190333624042196419000012473200000232210000000000000                                                                 SUTURA ETHILON 3-0 SC-24 45CM  163TSIN     7
CC0000072051777A202100000027848300000027848313/12/20210911    3190333624042196419000017576200000232750000000000000                                                                    PROLENE CARDIOV 6-0 60 2C-1 8726SIN     2
CC0000072051777A202100000027848300000027848313/12/20210911    3190333624042196419000000500800001353040000000000000                                                              HORIZON CLIP TITANI S AMARIL REF001200CAR     2
CC0000072051777A202100000027848300000027848313/12/20210911    3190333624042196419000043486000001353050000000000000                                                            HORIZON CLIP TITANI M AZUL X 6 REF002200CAR     5
CC0000072051777A202100000027848300000027848313/12/20210911    3190333624042196419000030161400001459220000000000000                                                                       MANGUERA SUCCION 6 MM*3.1 MTSSOB     1
CC0000072051777A202100000027848300000027848313/12/20210911    3190333624042196419000043879200001138180000000000000                                                                                   HOJA BISTURI # 11SOB     1
CC0000072051777A202100000027848300000027848313/12/20210911    3190333624042196419000043879400001138170000000000000                                                                  HOJA BISTURI # 10 CSSB 10 01002000SOB     1
CC0000072051777A202100000027848300000027848313/12/20210911    3190333624042196419000043879100001138200000000000000                                                                  HOJA BISTURI # 15 CSSB 15 01002003SOB     1
CC0000072051777A202100000027848300000027848313/12/20210911    3190333624042196419000022425200000548240000000000000                       EXTENSION DE ANESTESIA REF 1139 SOB X 1 SHERLEG  ADULTO BN EXENTO-DC.417/2020SIN     1
