RC0001043934327H202100015122554500015122554513/12/20211442    31500475237421964250000E1AB0200000199290000000000000                                                            SOLUCION SALINA 0.9% SLN INY BO X 100 MLBIN     2
RC0001043934327H202100015122554500015122554513/12/20211442    3150047523742196425000024674000001138340000000000000   JERINGA 3PARTES C/A 10ML REF JEHL005 CAJ X 100 ALFASAFE  21GX1 PULG 1/2 PULG BN EXENTO-DC.417/202PZA     1
RC0001043934327H202100015122554500015122554513/12/20211442    3150047523742196425000020816000001096410000000000000                                                                          LINER PARED DELGADA 1500CCBOL     1
RC0001043934327H202100015122554500015122554513/12/20211442    3150047523742196425000036441300000236540000000000000                                                                    JERINGA 1 ML GASES ARTERIAL 9023SIN     5
RC0001043934327H202100015122554500015122554513/12/20211442    3150047523742196425000030161400001459220000000000000                                                                       MANGUERA SUCCION 6 MM*3.1 MTSSOB     1
RC0001043934327H202100015122554500015122554513/12/20211442    3150047523742196425000038576500000256730000000000000                                                                        SONDA ASPIRACION CONTROL #10SIN     8
RC0001043934327H202100015122554500015122554513/12/20211442    3150047523742196425000024161400000259870000000000000                                                                          SONDA TRACH CARE # 10 (MT)SIN     1
