RC0001146543782U202100923055121500923055121515/12/20212230    3150018823942196432000011082700001620070000000000000                                                               EQUIPO SET PRIMARIO C/CLAVE REF 14001BOL     1
RC0001146543782U202100923055121500923055121515/12/20212230    3150018823942196432000024674000001138340000000000000   JERINGA 3PARTES C/A 10ML REF JEHL005 CAJ X 100 ALFASAFE  21GX1 PULG 1/2 PULG BN EXENTO-DC.417/202PZA     2
RC0001146543782U202100923055121500923055121515/12/20212230    3150018823942196432000030936900001431840000000000000                                                                                              BURETABOL     1
RC0001146543782U202100923055121500923055121515/12/20212230    3150018823942196432000042743200003929860000000000000                   GASA ADHESIVA STRETCH REF 02038-00 ROL X 10MT FIXOMULL 15CM BN EXENTO-DC.417/2020CMT    20
RC0001146543782U202100923055121500923055121515/12/20212230    31500188239421964320000Q1AA7400003911720000000000000                                                            CATETER PERIFE INTROCAN # 24G 4251601-04SOB     1
RC0001146543782U202100923055121500923055121515/12/20212230    31500188239421964320000E1AD0200003888320000000000000                                                                              HARTMAN SLN INY 500 MLBOL     1
