RC0001046723141A202100000027869800000027869813/12/20211808    3190333624042196419000021052200000380370000000000000                                                                        RESERVORIO J-VAC 100 ml 2160PZA     1
RC0001046723141A202100000027869800000027869813/12/20211808    3190333624042196419000022310000000376030000000000000                                                                      DRENA BLAKE 1/4 19 FR 2231 J&JPZA     1
RC0001046723141A202100000027869800000027869813/12/20211808    31903336240421964190000N1AH0200003906560000000000000                                                                     FENTANIL Iny 0.05 mg/ml x 10 mlAMP     1
RC0001046723141A202100000027869800000027869813/12/20211808    31903336240421964190000E1AB0500003888400000000000000                                                              SOLUCION SALINA 0.9% SLN INY X 1000 MLBOL     2
RC0001046723141A202100000027869800000027869813/12/20211808    3190333624042196419000030161400001459220000000000000                                                                       MANGUERA SUCCION 6 MM*3.1 MTSSOB     1
RC0001046723141A202100000027869800000027869813/12/20211808    3190333624042196419000043879100001138200000000000000                                                                  HOJA BISTURI # 15 CSSB 15 01002003SOB     1
RC0001046723141A202100000027869800000027869813/12/20211808    3190333624042196419000011073300001096420000000000000                                                                BOLSA DE SUCCION DE FLUIDOS x 2500mLBOL     1
RC0001046723141A202100000027869800000027869813/12/20211808    3190333624042196419000053074400000607910000000000000                                                               GASA ESTERIL 10*10 SOBRE X 3 UNIDADESSOB     4
RC0001046723141A202100000027869800000027869813/12/20211808    3190333624042196419000011085300001082140000000000000                                                                           GUANTE QUIRURGICO TALLA 8SOB     3
RC0001046723141A202100000027869800000027869813/12/20211808    3190333624042196419000011085200001585390000000000000                                                                       GUANTE QUIRURGICO TALLA 7 1/2SOB     1
RC0001046723141A202100000027869800000027869813/12/20211808    3190333624042196419000011085100001082120000000000000                                                                           GUANTE QUIRURGICO TALLA 7SOB     1
RC0001046723141A202100000027869800000027869813/12/20211808    3190333624042196419000039174600001072010000000000000                                                                           TUBO ENDOTRAQUEAL C/B 5.0SOB     1
RC0001046723141A202100000027869800000027869813/12/20211808    3190333624042196419000035612500000331850000000000000                                                                          MASCARA OXIGENO PEDIATRICOBIN     1
RC0001046723141A202100000027869800000027869813/12/20211808    31903336240421964190000Q1A11800000258040000000000000                                                                         CANULA OXIGENO NASAL PEDIATSIN     1
RC0001046723141A202100000027869800000027869813/12/20211808    3190333624042196419000011099300000777780000000000000                                                                     FILTRO BACTERIANO VIRICO ADULTOBOL     1
RC0001046723141A202100000027869800000027869813/12/20211808    3190333624042196419000024674000001138340000000000000   JERINGA 3PARTES C/A 10ML REF JEHL005 CAJ X 100 ALFASAFE  21GX1 PULG 1/2 PULG BN EXENTO-DC.417/202PZA     2
RC0001046723141A202100000027869800000027869813/12/20211808    31903336240421964190000E1AB0300003888390000000000000                                                            SOLUCION SALINA 0.9% SLN INY BO X 500 MLBOL     1
RC0001046723141A202100000027869800000027869813/12/20211808    31903336240421964190000N01B0200003888110000000000000                                           ROXICAINA SE 100MG/10ML(1%) SOL INY CAJ X 24AMPACK X 10MLAPC     1
RC0001046723141A202100000027869800000027869813/12/20211808    31903336240421964190000N1BA2400001687720000000000000                                                    LIDOCAINA 2% SOL INY  CAJ X 50AMP X 10ML CORPAULAMP     2
RC0001046723141A202100000027869800000027869813/12/20211808    31903336240421964190000N07AA100001233170000000000000                                               NEOSTIGMINA 0.5MG/ML SOL INY INST CAJ X 10AMP VITALISAMP     1
