CC0000000831099U202100050132038900050132038913/12/20211132    3190271223942196432000030936900001431840000000000000                                                                                              BURETABOL     1
CC0000000831099U202100050132038900050132038913/12/20211132    31902712239421964320000Q1AA7300000610640000000000000                                                            CATETER PERIFE INTROCAN # 22G 4251628-04SIN     1
CC0000000831099U202100050132038900050132038913/12/20211132    3190271223942196432000024673600000222980000000000000                                                                     JERINGA DESECHABLE 5 ml 27*11/2SIN     1
CC0000000831099U202100050132038900050132038913/12/20211132    3190271223942196432000016830000000970620000000000000                                                             SIST FIJACION CAT PERIFERICO 6.5X7 1683SOB     1
CC0000000831099U202100050132038900050132038913/12/20211132    3190271223942196432000011082700001620070000000000000                                                               EQUIPO SET PRIMARIO C/CLAVE REF 14001BOL     1
CC0000000831099U202100050132038900050132038913/12/20211132    31902712239421964320000E1AD0300000199490000000000000                                         LACTATO RINGER USP (HARTMANN)  SOL INY  BOL X 1000ML BAXTERBIN     1
