CC0000032864064H202100015012637900015012637913/12/20212328    3190294923742196425000030936900001431840000000000000                                                                                              BURETABOL     1
CC0000032864064H202100015012637900015012637913/12/20212328    3190294923742196425000022426800001140510000000000000                                                                    EQUIPO MACROGOTEO BAXTER MRC0001SOB     1
CC0000032864064H202100015012637900015012637913/12/20212328    3190294923742196425000011082700001620070000000000000                                                               EQUIPO SET PRIMARIO C/CLAVE REF 14001BOL     1
CC0001092343695H202100015012637900015012637913/12/20212328    3190294923742196425000042743200003929860000000000000                   GASA ADHESIVA STRETCH REF 02038-00 ROL X 10MT FIXOMULL 15CM BN EXENTO-DC.417/2020CMT    30
CC0001092343695H202100015012637900015012637913/12/20212328    3190294923742196425000013077800000471960000000000000                                                             GASA NO TEJIDA EST 7.5 X 7.5 SOB X 3 UNSOB     5
CC0000022265715H202100015012637900015012637913/12/20212328    3190294923742196425000013077800000471960000000000000                                                             GASA NO TEJIDA EST 7.5 X 7.5 SOB X 3 UNSOB     5
RC0001043470317H202100015012637900015012637913/12/20212328    31902949237421964250000E1AD0300000199490000000000000                                         LACTATO RINGER USP (HARTMANN)  SOL INY  BOL X 1000ML BAXTERBIN     1
TI0001130295594H202100015012637900015012637913/12/20212328    31902949237421964250000E1AD0300000199490000000000000                                         LACTATO RINGER USP (HARTMANN)  SOL INY  BOL X 1000ML BAXTERBIN     1
CC0000003732404H202100015012637900015012637913/12/20212328    31902949237421964250000E1AB0500003888400000000000000                                                              SOLUCION SALINA 0.9% SLN INY X 1000 MLBOL     1
CC0000032864064H202100015012637900015012637913/12/20212328    31902949237421964250000E1AB0500003888400000000000000                                                              SOLUCION SALINA 0.9% SLN INY X 1000 MLBOL     1
