CC0000013825497H202100000556563800000556563804/12/20211050     3300010237421964250000A02B0600001277230000000000000                                                                                NEXIUM Tab 40 mg /R/TAB     1
CC0000013825497H202100000556563800000556563804/12/20211050     3300010237421964250000A6AC0200001467010000000000000                                                             LACTULAX JARABE 66.7G/100ML SOX15ML /R/SOB     1
CC0000013825497H202100000556563800000556563804/12/20211050     3300010237421964250000A10A1800000725300000000000000                                                             LANTUS SOLOSTAR JER 100 UI/ML X 3 ML /RCAJ     1
CC0000013825497H202100000556563800000556563804/12/20211051     3300010237421964250000A10A1900000601020000000000000                                                                   APIDRA CARTU 100 UI/ML X 3 ML /R/CAR     1
CC0000013825497H202100000556563800000556563804/12/20211050     3300010237421964250000B1AB0300003939210000000000000                 ENOXAPARINA SODICA 20MG/0.2ML(100MG/ML) SOL INY INST CAJ X 2JERPREL X 0.2ML TECHDOWJRP     1
CC0000013825497H202100000556563800000556563804/12/20211050     3300010237421964250000A11AA300001332860000000000000                                                                    ANEMIDOX Cap 330 MG /1 mg/100 MGCAP     1
CC0000013825497H202100000556563800000556563804/12/20211050     3300010237421964250000C2EA2000001332890000000000000                                                                              APROVEL TAB 150 MG /R/TAB     4
CC0000013825497H202100000556563800000556563804/12/20211050     3300010237421964250000N02B1100001464120000000000000                                           PARACETAMOL EP 1000MG/100ML(10MG/ML) SOL INY  CAJ X 10FCOVAL     3
