RC0001042266915U202100050132041700050132041713/12/20211448    31900939239421964320000Q1AA7300000610640000000000000                                                            CATETER PERIFE INTROCAN # 22G 4251628-04SIN     1
RC0001042266915U202100050132041700050132041713/12/20211448    3190093923942196432000001956000001620610000000000000                                                                      CONECTOR MICRO CLAVE LAT-MC100SOB     1
CC0001014243295U202100050132041700050132041713/12/20211448    3190093923942196432000024674000001138340000000000000   JERINGA 3PARTES C/A 10ML REF JEHL005 CAJ X 100 ALFASAFE  21GX1 PULG 1/2 PULG BN EXENTO-DC.417/202PZA     1
CC0001140895828U202100050132041700050132041713/12/20211448    3190093923942196432000024674000001138340000000000000   JERINGA 3PARTES C/A 10ML REF JEHL005 CAJ X 100 ALFASAFE  21GX1 PULG 1/2 PULG BN EXENTO-DC.417/202PZA     1
RC0001042266915U202100050132041700050132041713/12/20211448    3190093923942196432000030936900001431840000000000000                                                                                              BURETABOL     1
CC0001140895828U202100050132041700050132041713/12/20211448    3190093923942196432000024673600000222980000000000000                                                                     JERINGA DESECHABLE 5 ml 27*11/2SIN     1
CC0001140895828U202100050132041700050132041713/12/20211448    31900939239421964320000E1AB0300003888390000000000000                                                            SOLUCION SALINA 0.9% SLN INY BO X 500 MLBOL     1
RC0001042266915U202100050132041700050132041713/12/20211448    3190093923942196432000011082700001620070000000000000                                                               EQUIPO SET PRIMARIO C/CLAVE REF 14001BOL     1
