RC0001033120935U202100050132040800050132040813/12/20211351    3150017723942196432000001956000001620610000000000000                                                                      CONECTOR MICRO CLAVE LAT-MC100SOB     1
RC0001033120935U202100050132040800050132040813/12/20211351    3150017723942196432000000602600001259280000000000000                                                             APOSITO TEGADERM IV PD 1610 5CM X 5.7CMSOB     1
RC0001033120935U202100050132040800050132040813/12/20211351    31500177239421964320000Q1AA7400003911720000000000000                                                            CATETER PERIFE INTROCAN # 24G 4251601-04SOB     1
