CC0000009240037H202100000556556800000556556804/12/20211831    31903184237421964250000E1AB0300003888390000000000000                                                            SOLUCION SALINA 0.9% SLN INY BO X 500 MLBOL     1
CC0000009240037H202100000556556800000556556804/12/20210822     3300009237421964250000N03AX700001335170000000000000                                                                                LYRICA CAP 50 MG /R/CAP     1
CC0000009240037H202100000556556800000556556804/12/20211112     3300009237421964250000V6DF2000001629900000000000000                                                                     ENSURE PLUS HN LIQUIDO X 237 MLFCO     1
CC0000009240037H202100000556556800000556556804/12/20210822     3300009237421964250000V6DF2000001629900000000000000                                                                     ENSURE PLUS HN LIQUIDO X 237 MLFCO     1
CC0000009240037H202100000556556800000556556804/12/20210822     3300009237421964250000N2BE2200001252930000000000000                                                                             ACETAMINOFEN Tab 500 MGTAB     4
CC0000009240037H202100000556556800000556556804/12/20211709     3300010237421964250000N2BB0100001672010000000000000                                  DIPIRONA 1GR/2ML(0.5GR/ML) SOL INY INST CAJ X 100AMP X 2ML VITALISAMP     4
CC0000009240037H202100000556556800000556556804/12/20211709     3300010237421964250000N2AX0900001672040000000000000                                                                              TRAMADOL SLN INY 50 MGAMP     4
CC0000009240037H202100000556556800000556556804/12/20210822     3300009237421964250000N2AX0900001672040000000000000                                                                              TRAMADOL SLN INY 50 MGAMP     2
CC0000009240037H202100000556556800000556556804/12/20211112     3300009237421964250000N2AX1100001127390000000000000                                                                    TRAMADOL Gotas 100 mg/ml x 10 mlFCO     3
