CC0000026376694U202100000556872200000556872213/12/20210021     3300004239421964320000B1AB0200003939510000000000000                 ENOXAPARINA SODICA 40MG/0.4ML(100MG/ML) SOL INY INST CAJ X 2JERPREL X 0.4ML TECHDOWJRP     1
CC0000026376694U202100000556872200000556872213/12/20210043    32000803239421964320000E1AB0300003888390000000000000                                                            SOLUCION SALINA 0.9% SLN INY BO X 500 MLBOL     1
CC0000026376694U202100000556872200000556872213/12/20210037     3300004239421964320000J1DA3100000187510000000000000                                                                           ROCEFIN Polvo SLN INY 1 GCIN     1
CC0000026376694U202100000556872200000556872213/12/20210021     3300004239421964320000J1DA3100000187510000000000000                                                                           ROCEFIN Polvo SLN INY 1 GCIN     1
