CC0000072233626H202100015022568800015022568813/12/20210906    31903308237421964250000E1AB0700003888350000000000000                                                            SOLUCION SALINA 0.9% SLN INY BO X 250 MLBOL     2
CC0000016200301H202100015022568800015022568813/12/20210906    31903308237421964250000Q1A13500001689460000000000000                                           JERINGA PUNTA CATETER REF JESC001 CAJ X 25 ALFASAFE  60MLSOB     1
CC0000012576309H202100015022568800015022568813/12/20210906    31903308237421964250000Q1A13500001689460000000000000                                           JERINGA PUNTA CATETER REF JESC001 CAJ X 25 ALFASAFE  60MLSOB     1
CC0001129577696H202100015022568800015022568813/12/20210906    3190330823742196425000024674000001138340000000000000   JERINGA 3PARTES C/A 10ML REF JEHL005 CAJ X 100 ALFASAFE  21GX1 PULG 1/2 PULG BN EXENTO-DC.417/202PZA     6
CC0000072233626H202100015022568800015022568813/12/20210906    3190330823742196425000024674000001138340000000000000   JERINGA 3PARTES C/A 10ML REF JEHL005 CAJ X 100 ALFASAFE  21GX1 PULG 1/2 PULG BN EXENTO-DC.417/202PZA     8
CC0000032700956H202100015022568800015022568813/12/20210906    3190330823742196425000024674000001138340000000000000   JERINGA 3PARTES C/A 10ML REF JEHL005 CAJ X 100 ALFASAFE  21GX1 PULG 1/2 PULG BN EXENTO-DC.417/202PZA     8
CC0000063298698H202100015022568800015022568813/12/20210906    3190330823742196425000024674000001138340000000000000   JERINGA 3PARTES C/A 10ML REF JEHL005 CAJ X 100 ALFASAFE  21GX1 PULG 1/2 PULG BN EXENTO-DC.417/202PZA     8
CC0001129577696H202100015022568800015022568813/12/20210906    31903308237421964250000V07A1300000502600000000000000                                                                                AGUA ESTERIL x 10 mlAMP     6
CC0000022543387H202100015022568800015022568813/12/20210906    31903308237421964250000V07A1300000502600000000000000                                                                                AGUA ESTERIL x 10 mlAMP     6
CC0000072233626H202100015022568800015022568813/12/20210906    31903308237421964250000V07A1300000502600000000000000                                                                                AGUA ESTERIL x 10 mlAMP     8
CC0000012576309H202100015022568800015022568813/12/20210906    31903308237421964250000V07A1300000502600000000000000                                                                                AGUA ESTERIL x 10 mlAMP     8
CC0000032700956H202100015022568800015022568813/12/20210906    31903308237421964250000V07A1300000502600000000000000                                                                                AGUA ESTERIL x 10 mlAMP     8
CC0000063298698H202100015022568800015022568813/12/20210906    31903308237421964250000V07A1300000502600000000000000                                                                                AGUA ESTERIL x 10 mlAMP     8
CC0000016200301H202100015022568800015022568813/12/20210906    3190330823742196425000045136100001419300000000000000                                                                            LANCETA DEXTROMETER X UNPZA     4
CC0000012576309H202100015022568800015022568813/12/20210906    3190330823742196425000045136100001419300000000000000                                                                            LANCETA DEXTROMETER X UNPZA     2
CC0000016200301H202100015022568800015022568813/12/20210906    3190330823742196425000011137100001419310000000000000                                                               TIRA GLUCOMETRIA FREESTYLE H OPTIUM .PZA     4
CC0000012576309H202100015022568800015022568813/12/20210906    3190330823742196425000011137100001419310000000000000                                                               TIRA GLUCOMETRIA FREESTYLE H OPTIUM .PZA     2
