CC0000022339370U202100910997122200910997122222/12/20211338    3190093023942196432000016830000000970620000000000000                                                             SIST FIJACION CAT PERIFERICO 6.5X7 1683SOB     1
CC0000022339370U202100910997122200910997122222/12/20211338    3190093023942196432000001956000001620610000000000000                                                                      CONECTOR MICRO CLAVE LAT-MC100SOB     1
CC0000022339370U202100910997122200910997122222/12/20211338    31900930239421964320000Q1AA7100000610620000000000000                                                            CATETER PERIFE INTROCAN # 18G 4251687-04SIN     1
