CC0000022358936U202100000556566000000556566004/12/20211213     3300010239421964320000A2BC0600001335730000000000000                                                                                   ORAZOLE CAP 40 MGCAP     1
CC0000022358936U202100000556566000000556566004/12/20211213     3300010239421964320000A4AD0200000202990000000000000                                                                     PLITICAN HCL Sln Iny 50 mg/2 mlAMP     1
CC0000022358936U202100000556566000000556566004/12/20211637     3300010239421964320000A3BB0200000512940000000000000                                                                          BUSCAPINA SIMPLE Iny 20 mgAMP     1
CC0000022358936U202100000556566000000556566004/12/20211747    31903190239421964320000E1AD0300000199490000000000000                                         LACTATO RINGER USP (HARTMANN)  SOL INY  BOL X 1000ML BAXTERBIN     1
CC0000022358936U202100000556566000000556566004/12/20211433    31903190239421964320000E1AD0300000199490000000000000                                         LACTATO RINGER USP (HARTMANN)  SOL INY  BOL X 1000ML BAXTERBIN     1
CC0000022358936U202100000556566000000556566004/12/20211830     3300010239421964320000J1CB0600000468340000000000000                                                           UNASYN IM-IV (1+0.5)GR POLV INY INST VIALVAL     2
CC0000022358936U202100000556566000000556566004/12/20211214     3300010239421964320000N02B1100001464120000000000000                                           PARACETAMOL EP 1000MG/100ML(10MG/ML) SOL INY  CAJ X 10FCOVAL     1
CC0000022358936U202100000556566000000556566004/12/20211213     3300010239421964320000A3BB0300000512950000000000000                                                             BUSCAPINA COMP Sln Iny 20 mg+2.5 g/5 mlAMP     1
