RC0001043476962H202100000556877900000556877913/12/20211517    31500065237421964250000E1AA0200000198980000000000000                                                                          DEXTROSA 5% Sln Iny 100 mlBIN     2
RC0001043476962H202100000556877900000556877913/12/20212142    31902409237421964250000E1AD0300000199490000000000000                                         LACTATO RINGER USP (HARTMANN)  SOL INY  BOL X 1000ML BAXTERBIN     2
RC0001043476962H202100000556877900000556877913/12/20211545     3300009237421964250000J1FA1600001247370000000000000                                                                  KLARICID POLVO LIOF SLN INY 500 MGVAL     1
RC0001043476962H202100000556877900000556877913/12/20211008     3300009237421964250000N2BE1100000836430000000000000                                             ACETAMINOFEN 150MG/5ML(3%) JBE INST FCO X 60ML AMER GENCAJ     1
