RC0001146543342H202100015042542200015042542213/12/20211749    3150008223742196425000043485100001618510000000000000                GUANTE QUIRURGICO DE LATEX REF 2D72N65X CAJ X 50 PROTEXIS  6.5 BN EXENTO-DC.417/2020SOB     2
RC0001146542960H202100015042542200015042542213/12/20211749    3150008223742196425000043485100001618510000000000000                GUANTE QUIRURGICO DE LATEX REF 2D72N65X CAJ X 50 PROTEXIS  6.5 BN EXENTO-DC.417/2020SOB     2
RC0001146543342H202100015042542200015042542213/12/20211749    31500082237421964250000E1AC0100000199400000000000000                                                                          SUERO MIXTO Sln Iny 500 mlBIN     1
RC0001146542960H202100015042542200015042542213/12/20211749    31500082237421964250000E1AC0100000199400000000000000                                                                          SUERO MIXTO Sln Iny 500 mlBIN     4
RC0001146543342H202100015042542200015042542213/12/20211749    3150008223742196425000013077800000471960000000000000                                                             GASA NO TEJIDA EST 7.5 X 7.5 SOB X 3 UNSOB    10
RC0001146542960H202100015042542200015042542213/12/20211749    3150008223742196425000013077800000471960000000000000                                                             GASA NO TEJIDA EST 7.5 X 7.5 SOB X 3 UNSOB    10
