CC0000032700956H202100000556886200000556886213/12/20210949     3300009237421964250000A2BC0900000200150000000000000                                                                               ORAZOLE Sln Iny 40 mgCIN     4
CC0000032700956H202100000556886200000556886213/12/20211525     3300009237421964250000A6AC0200001467010000000000000                                                             LACTULAX JARABE 66.7G/100ML SOX15ML /R/SOB     1
CC0000032700956H202100000556886200000556886213/12/20211515     3300009237421964250000A6AC0200001467010000000000000                                                             LACTULAX JARABE 66.7G/100ML SOX15ML /R/SOB     1
CC0000032700956H202100000556886200000556886213/12/20210950     3300009237421964250000H03AA500001315460000000000000                                                                                SYNTHROID TAB 50 MCGTAB     1
CC0000032700956H202100000556886200000556886213/12/20211639     3300009237421964250000J01DA300001239950000000000000                                                            CEFAZOLINA SODICA POLVO LIOF SLN INY 1 GVAL     1
CC0000032700956H202100000556886200000556886213/12/20210949     3300009237421964250000J01DA300001239950000000000000                                                            CEFAZOLINA SODICA POLVO LIOF SLN INY 1 GVAL     2
CC0000032700956H202100000556886200000556886213/12/20210950     3300009237421964250000N2AX0500001204110000000000000                                                                          TRAMAL SLN INY 100 MG / MLAMP     5
CC0000032700956H202100000556886200000556886213/12/20211640     3300009237421964250000M1AX0200001569410000000000000                                                                         KETRON SLN INY 30 MG / 2 MLAMP     1
CC0000032700956H202100000556886200000556886213/12/20210950     3300009237421964250000M1AX0200001569410000000000000                                                                         KETRON SLN INY 30 MG / 2 MLAMP     2
CC0000032700956H202100000556886200000556886213/12/20211515     3300009237421964250000N5BB0800001334610000000000000                                                                                 HIDERAX S TAB 50 MGTAB     1
CC0000032700956H202100000556886200000556886213/12/20210950     3300009237421964250000N06A1100001278050000000000000                                                                              CYMBALTA Cap 30 mg /R/CAP     1
CC0000032700956H202100000556886200000556886213/12/20211143     3300009237421964250000N2AA0200000301600000000000000                                                                        HIDROMORFONA Sln Iny 2 mg/mlAMP     1
CC0000032700956H202100000556886200000556886213/12/20211133    31903308237421964250000V07A1300000502600000000000000                                                                                AGUA ESTERIL x 10 mlAMP     8
