RC0001044236009U202100000557025500000557025516/12/20211224     3300004239421964320000N02BE100000000JP0000000000000                                                                ACETAMINOFEN 250MG/5ML JER PLLE JAB. JR     1
RC0001044236009U202100000557025500000557025516/12/20211212    31500561239421964320000E1AB0200000199290000000000000                                                            SOLUCION SALINA 0.9% SLN INY BO X 100 MLBIN     1
RC0001044236009U202100000557025500000557025516/12/20211507     3300004239421964320000R03AC200003848990000000000000                                                              SALBUTAMOL INH 100 MCG/DO FCO X 200 DOFCO     1
