CC0001014243295U202100000556886600000556886613/12/20211022    31900939239421964320000E1AB0500003888400000000000000                                                              SOLUCION SALINA 0.9% SLN INY X 1000 MLBOL     1
CC0001014243295U202100000556886600000556886613/12/20211457     3300010239421964320000N2BB0200000513030000000000000                                                                           LISALGIL Sln Iny 2 g/5 mlAMP     1
CC0001014243295U202100000556886600000556886613/12/20210957     3300010239421964320000N02B1100001464120000000000000                                           PARACETAMOL EP 1000MG/100ML(10MG/ML) SOL INY  CAJ X 10FCOVAL     1
