RC0001125232601H202100000556560600000556560604/12/20211534     3300009237421964250000J01GB300001109550000000000000                                                                      AMIKACINA SLN INY 100 MG/ 2 MLAMP     1
RC0001125232601H202100000556560600000556560604/12/20211001     3300009237421964250000J01GB300001109550000000000000                                                                      AMIKACINA SLN INY 100 MG/ 2 MLAMP     1
RC0001125232601H202100000556560600000556560604/12/20211001     3300009237421964250000N2BE1100000836430000000000000                                             ACETAMINOFEN 150MG/5ML(3%) JBE INST FCO X 60ML AMER GENCAJ     1
RC0001125232601H202100000556560600000556560604/12/20211334    31903290237421964250000V07A1300000502600000000000000                                                                                AGUA ESTERIL x 10 mlAMP     3
