CC0000008675817H202100000556884100000556884113/12/20210903    31903303237421964250000M1AE1400000191560000000000000                                                                    PROFENID SLN INY 100 MG/2 ML /R/AMP     3
CC0000008675817H202100000556884100000556884113/12/20210903    31903303237421964250000N2AX0500001204110000000000000                                                                          TRAMAL SLN INY 100 MG / MLAMP     2
CC0000008675817H202100000556884100000556884113/12/20210903    31903303237421964250000N02B1100001464120000000000000                                           PARACETAMOL EP 1000MG/100ML(10MG/ML) SOL INY  CAJ X 10FCOVAL     1
