RC0001041702817U202100923040121500923040121515/12/20211905    31500528239421964320000Q0000200000473250000000000000                                                                             INHALOCAMARA PEDIATRICACIN     1
RC0001041702817U202100923040121500923040121515/12/20211936    3150035423942196432000011048600000223020000000000000                                                                 JERINGA VACUNACION 3ML C/AGU 302542SIN     1
RC0001041702817U202100923040121500923040121515/12/20211936    3150035423942196432000042743200003929860000000000000                   GASA ADHESIVA STRETCH REF 02038-00 ROL X 10MT FIXOMULL 15CM BN EXENTO-DC.417/2020CMT    15
RC0001041702817U202100923040121500923040121515/12/20211936    3150035423942196432000001956000001620610000000000000                                                                      CONECTOR MICRO CLAVE LAT-MC100SOB     1
RC0001041702817U202100923040121500923040121515/12/20211936    31500354239421964320000Q1AA7400003911720000000000000                                                            CATETER PERIFE INTROCAN # 24G 4251601-04SOB     1
