CC0000013894470U202100000556883500000556883513/12/20210828     3300004239421964320000A4AD0200000202990000000000000                                                                     PLITICAN HCL Sln Iny 50 mg/2 mlAMP     1
CC0000013894470U202100000556883500000556883513/12/20211252    31500177239421964320000E1AD0300000199490000000000000                                         LACTATO RINGER USP (HARTMANN)  SOL INY  BOL X 1000ML BAXTERBIN     1
CC0000013894470U202100000556883500000556883513/12/20211207     3300010239421964320000M1AE2500000191550000000000000                                                            PROFENID POLVO LIOF SLN INY 100MG/2ML/R/AMP     1
CC0000013894470U202100000556883500000556883513/12/20210828     3300004239421964320000N07CA400001335820000000000000                                                                                   PASEDOL TAB 50 MGTAB     1
