CC0000064541334H202100000556901200000556901213/12/20211506    31903290237421964250000A4AD0200000202990000000000000                                                                     PLITICAN HCL Sln Iny 50 mg/2 mlAMP     2
CC0000064541334H202100000556901200000556901213/12/20211506    31903290237421964250000N2BB0500000217140000000000000                                                                          NOVALGINA Sln Iny 1 g/2 mlAMP     2
CC0000064541334H202100000556901200000556901213/12/20211506    31903290237421964250000N02B1100001464120000000000000                                           PARACETAMOL EP 1000MG/100ML(10MG/ML) SOL INY  CAJ X 10FCOVAL     1
