TI0001047039069U202100922138121000922138121010/12/20210431    3190100523942196432000024674000001138340000000000000   JERINGA 3PARTES C/A 10ML REF JEHL005 CAJ X 100 ALFASAFE  21GX1 PULG 1/2 PULG BN EXENTO-DC.417/202PZA     1
TI0001047039069U202100922138121000922138121010/12/20210440    3190100523942196432000011137100001419310000000000000                                                               TIRA GLUCOMETRIA FREESTYLE H OPTIUM .PZA     1
TI0001047039069U202100922138121000922138121010/12/20210440    3190100523942196432000045136100001419300000000000000                                                                            LANCETA DEXTROMETER X UNPZA     1
