RC0001158469243U202100050132034600050132034613/12/20210301    3190180623942196432000030936900001431840000000000000                                                                                              BURETABOL     1
CC0000003724288U202100050132034600050132034613/12/20210301    31901806239421964320000E1AB0200000199290000000000000                                                            SOLUCION SALINA 0.9% SLN INY BO X 100 MLBIN     1
RC0001158469243U202100050132034600050132034613/12/20210301    3190180623942196432000024673600000222980000000000000                                                                     JERINGA DESECHABLE 5 ml 27*11/2SIN     2
CC0001140846171U202100050132034600050132034613/12/20210301    3190180623942196432000024674000001138340000000000000   JERINGA 3PARTES C/A 10ML REF JEHL005 CAJ X 100 ALFASAFE  21GX1 PULG 1/2 PULG BN EXENTO-DC.417/202PZA     2
RC0001158469243U202100050132034600050132034613/12/20210301    31901806239421964320000E1AB0300003888390000000000000                                                            SOLUCION SALINA 0.9% SLN INY BO X 500 MLBOL     1
CC0000003724288U202100050132034600050132034613/12/20210301    3190180623942196432000013077800000471960000000000000                                                             GASA NO TEJIDA EST 7.5 X 7.5 SOB X 3 UNSOB     4
