CC0001143115935H202100920405121300920405121313/12/20210810    3150038723742196425000011137100001419310000000000000                                                               TIRA GLUCOMETRIA FREESTYLE H OPTIUM .PZA     1
CC0001143115935H202100920405121300920405121313/12/20210810    3150038723742196425000020056600001101530000000000000                                                                AGUJA HIPODERMICA DESECH 18G X 1 1/2SOB     3
CC0001143115935H202100920405121300920405121313/12/20210810    3150038723742196425000024674000001138340000000000000   JERINGA 3PARTES C/A 10ML REF JEHL005 CAJ X 100 ALFASAFE  21GX1 PULG 1/2 PULG BN EXENTO-DC.417/202PZA     5
CC0001143115935H202100920405121300920405121313/12/20210810    3150038723742196425000024674500000322810000000000000                                                                   JERINGA DESECHABLE 20 ml 21*1 1/2SIN     1
CC0001143115935H202100920405121300920405121313/12/20210810    3150038723742196425000045136100001419300000000000000                                                                            LANCETA DEXTROMETER X UNPZA     1
CC0001143115935H202100920405121300920405121313/12/20210810    31500387237421964250000V07A1300000502600000000000000                                                                                AGUA ESTERIL x 10 mlAMP     4
CC0001143115935H202100920405121300920405121313/12/20210810    31500387237421964250000E1AB0200000199290000000000000                                                            SOLUCION SALINA 0.9% SLN INY BO X 100 MLBIN     4
CC0001143115935H202100920405121300920405121313/12/20211327    31500387237421964250000B05B1400001012740000000000000                                                                SOLUCION SALINA 0.45% Sln Iny 500 mlBOL     4
CC0001143115935H202100920405121300920405121313/12/20211411    3150007223742196425000020056600001101530000000000000                                                                AGUJA HIPODERMICA DESECH 18G X 1 1/2SOB     3
CC0001143115935H202100920405121300920405121313/12/20211411    31500072237421964250000B05B1400001012740000000000000                                                                SOLUCION SALINA 0.45% Sln Iny 500 mlBOL     4
CC0001143115935H202100920405121300920405121313/12/20211411    31500072237421964250000E1AB0200000199290000000000000                                                            SOLUCION SALINA 0.9% SLN INY BO X 100 MLBIN     4
CC0001143115935H202100920405121300920405121313/12/20211411    31500072237421964250000V07A1300000502600000000000000                                                                                AGUA ESTERIL x 10 mlAMP     4
CC0001143115935H202100920405121300920405121313/12/20211411    3150007223742196425000045136100001419300000000000000                                                                            LANCETA DEXTROMETER X UNPZA     1
CC0001143115935H202100920405121300920405121313/12/20211411    3150007223742196425000024674500000322810000000000000                                                                   JERINGA DESECHABLE 20 ml 21*1 1/2SIN     1
CC0001143115935H202100920405121300920405121313/12/20211411    3150007223742196425000024674000001138340000000000000   JERINGA 3PARTES C/A 10ML REF JEHL005 CAJ X 100 ALFASAFE  21GX1 PULG 1/2 PULG BN EXENTO-DC.417/202PZA     5
CC0001143115935H202100920405121300920405121313/12/20211411    3150007223742196425000011137100001419310000000000000                                                               TIRA GLUCOMETRIA FREESTYLE H OPTIUM .PZA     1
CC0001143115935H202100920405121300920405121313/12/20211505    3150038723742196425000001956000001620610000000000000                                                                      CONECTOR MICRO CLAVE LAT-MC100SOB     1
CC0001143115935H202100920405121300920405121313/12/20211645    3150038723742196425000013077800000471960000000000000                                                             GASA NO TEJIDA EST 7.5 X 7.5 SOB X 3 UNSOB    10
CC0001143115935H202100920405121300920405121313/12/20211645    3150038723742196425000018362500000299530000000000000                                                               SET TRAQUEOSTOMIA REF C-PTIS-100 COOKPZA     1
CC0001143115935H202100920405121300920405121313/12/20211645    3150038723742196425000041013000001591660000000000000                                                                            CANULA TRAQUEOSTOMIA 8.0SOB     1
CC0001143115935H202100920405121300920405121313/12/20211848    3190235723742196425000020056600001101530000000000000                                                                AGUJA HIPODERMICA DESECH 18G X 1 1/2SOB     8
CC0001143115935H202100920405121300920405121313/12/20211848    3190235723742196425000011137100001419310000000000000                                                               TIRA GLUCOMETRIA FREESTYLE H OPTIUM .PZA     4
CC0001143115935H202100920405121300920405121313/12/20211848    3190235723742196425000024674000001138340000000000000   JERINGA 3PARTES C/A 10ML REF JEHL005 CAJ X 100 ALFASAFE  21GX1 PULG 1/2 PULG BN EXENTO-DC.417/202PZA    15
CC0001143115935H202100920405121300920405121313/12/20211848    3190235723742196425000045136100001419300000000000000                                                                            LANCETA DEXTROMETER X UNPZA     4
CC0001143115935H202100920405121300920405121313/12/20211848    31902357237421964250000E1AB0200000199290000000000000                                                            SOLUCION SALINA 0.9% SLN INY BO X 100 MLBIN    14
CC0001143115935H202100920405121300920405121313/12/20211848    31902357237421964250000B05B1400001012740000000000000                                                                SOLUCION SALINA 0.45% Sln Iny 500 mlBOL     4
CC0001143115935H202100920405121300920405121313/12/20211848    31902357237421964250000V07A1300000502600000000000000                                                                                AGUA ESTERIL x 10 mlAMP     4
CC0001143115935H202100920405121300920405121313/12/20211848    3190235723742196425000024674500000322810000000000000                                                                   JERINGA DESECHABLE 20 ml 21*1 1/2SIN     1
