CC0000017065366H202100000557354000000557354025/12/20211007     3300004237421964250000A2BC0900000200150000000000000                                                                               ORAZOLE Sln Iny 40 mgCIN     1
CC0000017065366H202100000557354000000557354025/12/20211006     3300004237421964250000A3BB0200000512940000000000000                                                                          BUSCAPINA SIMPLE Iny 20 mgAMP     3
CC0000017065366H202100000557354000000557354025/12/20211007     3300004237421964250000A6AB0200001278260000000000000                                                                                  DULCOLAX Grag 5 mgGRA     2
CC0000017065366H202100000557354000000557354025/12/20211007     3300004237421964250000C3DA0500001278910000000000000                                                                               GLUCOPHAGE TAB 850 MGTAB     2
CC0000017065366H202100000557354000000557354025/12/20211007     3300004237421964250000A16A0100001359040000000000000                                                                        THIOCTACID HR TAB 600 MG /R/TAB     1
CC0000017065366H202100000557354000000557354025/12/20211007     3300004237421964250000B1AB0200003939510000000000000                 ENOXAPARINA SODICA 40MG/0.4ML(100MG/ML) SOL INY INST CAJ X 2JERPREL X 0.4ML TECHDOWJRP     2
CC0000017065366H202100000557354000000557354025/12/20210230    31500213237421964250000E1AB0300003888390000000000000                                                            SOLUCION SALINA 0.9% SLN INY BO X 500 MLBOL     1
CC0000017065366H202100000557354000000557354025/12/20211007     3300004237421964250000C3CA0200000195520000000000000                                                                           LASIX SLN INY 20 MG/ 2 MLAMP     3
CC0000017065366H202100000557354000000557354025/12/20211236     3300009237421964250000J01X0400001458280000000000000                                                                            MONURIL GRANULOS 3 G /R/#N/A     1
CC0000017065366H202100000557354000000557354025/12/20211007     3300004237421964250000N2AX0400001204140000000000000                                                                             TRAMAL Sln Iny 50 mg/mlAMP     2
CC0000017065366H202100000557354000000557354025/12/20211008     3300004237421964250000N2BE0100001276930000000000000                                                                                    DOLEX TAB 500 MGTAB     4
CC0000017065366H202100000557354000000557354025/12/20211007     3300004237421964250000N03A0800001278440000000000000                                                                                LYRICA CAP 75 MG /R/CAP     2
CC0000017065366H202100000557354000000557354025/12/20210230    31500213237421964250000V07A1300000502600000000000000                                                                                AGUA ESTERIL x 10 mlAMP     6
