CC0000072134197U202100922494122700922494122727/12/20210656    3190201023942196432000011082700001620070000000000000                                                               EQUIPO SET PRIMARIO C/CLAVE REF 14001BOL     1
CC0000072134197U202100922494122700922494122727/12/20210656    3190201023942196432000016830000000970620000000000000                                                             SIST FIJACION CAT PERIFERICO 6.5X7 1683SOB     1
CC0000072134197U202100922494122700922494122727/12/20210656    3190201023942196432000030936900001431840000000000000                                                                                              BURETABOL     1
CC0000072134197U202100922494122700922494122727/12/20210656    3190201023942196432000001956000001620610000000000000                                                                      CONECTOR MICRO CLAVE LAT-MC100SOB     1
CC0000072134197U202100922494122700922494122727/12/20210656    31902010239421964320000Q1AA7200000610630000000000000                                                            CATETER PERIFE INTROCAN # 20G 4251644-04SIN     1
CC0000072134197U202100922494122700922494122727/12/20210656    31902010239421964320000E1AD0300000199490000000000000                                         LACTATO RINGER USP (HARTMANN)  SOL INY  BOL X 1000ML BAXTERBIN     1
