CC0000022738234U202100922438121400922438121414/12/20210250    3190145323942196432000016830000000970620000000000000                                                             SIST FIJACION CAT PERIFERICO 6.5X7 1683SOB     1
CC0000022738234U202100922438121400922438121414/12/20210250    3190145323942196432000022426800001140510000000000000                                                                    EQUIPO MACROGOTEO BAXTER MRC0001SOB     1
CC0000022738234U202100922438121400922438121414/12/20210250    3190145323942196432000024674000001138340000000000000   JERINGA 3PARTES C/A 10ML REF JEHL005 CAJ X 100 ALFASAFE  21GX1 PULG 1/2 PULG BN EXENTO-DC.417/202PZA     1
CC0000022738234U202100922438121400922438121414/12/20210250    3190145323942196432000001956000001620610000000000000                                                                      CONECTOR MICRO CLAVE LAT-MC100SOB     1
CC0000022738234U202100922438121400922438121414/12/20210250    31901453239421964320000Q1AA7200000610630000000000000                                                            CATETER PERIFE INTROCAN # 20G 4251644-04SIN     1
CC0000022738234U202100922438121400922438121414/12/20211239    3150051423942196432000011089200001083340000000000000                                                              GUANTE ESTERIL LATEX S/POLVO TALLA 7.0SOB     1
CC0000022738234U202100922438121400922438121414/12/20211239    3150051423942196432000038568300000257010000000000000                                                                                   SONDA NELATON #08SIN     1
CC0000022738234U202100922438121400922438121414/12/20211239    31500514239421964320000B05C0200001339660000000000000                                                                        SOLUCION SALINA 0.9% X 10 MLJRP     1
CC0000022738234H202100922438121400922438121414/12/20212330    31903060237421964250000E1AD0300000199490000000000000                                         LACTATO RINGER USP (HARTMANN)  SOL INY  BOL X 1000ML BAXTERBIN     2
