TI0001047048202U202100000556573100000556573104/12/20211729    31901181239421964320000E1AB0200000199290000000000000                                                            SOLUCION SALINA 0.9% SLN INY BO X 100 MLBIN     1
TI0001047048202U202100000556573100000556573104/12/20212112    31900982239421964320000E1AD0200003888320000000000000                                                                              HARTMAN SLN INY 500 MLBOL     1
TI0001047048202U202100000556573100000556573104/12/20212112    31900982239421964320000E1AD0300000199490000000000000                                         LACTATO RINGER USP (HARTMANN)  SOL INY  BOL X 1000ML BAXTERBIN     1
TI0001047048202U202100000556573100000556573104/12/20212036     3300004239421964320000J01D1300001469600000000000000                                                                               POZINEG POLVO INY 1 GVAL     4
TI0001047048202U202100000556573100000556573104/12/20211620     3300010239421964320000N2BE0100001276930000000000000                                                                                    DOLEX TAB 500 MGTAB     1
