CC0001129577696H202100000556551800000556551804/12/20212147     3300009237421964250000A04A0600001277030000000000000                                                                                      ONDAX TAB 8 MGTAB     1
CC0001129577696H202100000556551800000556551804/12/20210910     3300009237421964250000A04A0600001277030000000000000                                                                                      ONDAX TAB 8 MGTAB     2
CC0001129577696H202100000556551800000556551804/12/20210911     3300009237421964250000B1AB0200003939510000000000000                 ENOXAPARINA SODICA 40MG/0.4ML(100MG/ML) SOL INY INST CAJ X 2JERPREL X 0.4ML TECHDOWJRP     1
CC0001129577696H202100000556551800000556551804/12/20210941    31903294237421964250000E1AB0300003888390000000000000                                                            SOLUCION SALINA 0.9% SLN INY BO X 500 MLBOL     2
CC0001129577696H202100000556551800000556551804/12/20210911     3300009237421964250000A02B0800001276960000000000000                                                                                 OMEPRAZOL CAP 20 MGCAP     1
CC0001129577696H202100000556551800000556551804/12/20212301     3300009237421964250000C03C0100001672000000000000000                                                                       FUROSEMIDA SLN INY 20 MG/2 MLAMP     2
CC0001129577696H202100000556551800000556551804/12/20210910     3300009237421964250000J1KF0500001317760000000000000                                                                      MEROPENEM POLVO INY 500 MG /R/CAJ     1
CC0001129577696H202100000556551800000556551804/12/20210911     3300009237421964250000N2BE2200001252930000000000000                                                                             ACETAMINOFEN Tab 500 MGTAB     4
CC0001129577696H202100000556551800000556551804/12/20210910     3300009237421964250000N2AX0900001672040000000000000                                                                              TRAMADOL SLN INY 50 MGAMP     3
CC0001129577696H202100000556551800000556551804/12/20210941    31903294237421964250000V07A1300000502600000000000000                                                                                AGUA ESTERIL x 10 mlAMP     5
