CC0000032700956H202100000556898100000556898113/12/20211412    31903308237421964250000A2BC0900000200150000000000000                                                                               ORAZOLE Sln Iny 40 mgCIN     3
CC0000032700956H202100000556898100000556898113/12/20211522     3300009237421964250000A6AC0200001467010000000000000                                                             LACTULAX JARABE 66.7G/100ML SOX15ML /R/SOB     1
CC0000032700956H202100000556898100000556898113/12/20211412    31903308237421964250000N2AX0500001204110000000000000                                                                          TRAMAL SLN INY 100 MG / MLAMP     4
CC0000032700956H202100000556898100000556898113/12/20211522     3300009237421964250000N5BB0800001334610000000000000                                                                                 HIDERAX S TAB 50 MGTAB     1
