TI0001042265795U202100902508121500902508121515/12/20210233    3190333123942196432000024674000001138340000000000000   JERINGA 3PARTES C/A 10ML REF JEHL005 CAJ X 100 ALFASAFE  21GX1 PULG 1/2 PULG BN EXENTO-DC.417/202PZA     4
TI0001042265795U202100902508121500902508121515/12/20210233    3190333123942196432000024674500000322810000000000000                                                                   JERINGA DESECHABLE 20 ml 21*1 1/2SIN     1
TI0001042265795U202100902508121500902508121515/12/20210233    31903331239421964320000Q1AA3300001585140000000000000                                                                         APOSITO TEGADERM 10*12 1626SOB     1
TI0001042265795U202100902508121500902508121515/12/20210233    31903331239421964320000Q1AA7300000610640000000000000                                                            CATETER PERIFE INTROCAN # 22G 4251628-04SIN     1
TI0001042265795U202100902508121500902508121515/12/20210233    3190333123942196432000001956000001620610000000000000                                                                      CONECTOR MICRO CLAVE LAT-MC100SOB     1
