CC0000008729778H202100015112755200015112755213/12/20210022    3150002223742196425000043492400000516570000000000000                                                                   GUIA P/TUBO ENDOTRAQ ADULTO 85865SIN     1
CC0000008729778H202100015112755200015112755213/12/20210022    3150002223742196425000036441300000236540000000000000                                                                    JERINGA 1 ML GASES ARTERIAL 9023SIN     4
CC0000008729778H202100015112755200015112755213/12/20210022    3150002223742196425000038569400000256750000000000000                                                                        SONDA ASPIRACION CONTROL #14SIN     4
CC0000008729778H202100015112755200015112755213/12/20210022    3150002223742196425000039176700001029620000000000000                                                                    SUJETADOR TUBO ENDOTRAQUEAL 9799SOB     1
CC0000008729778H202100015112755200015112755213/12/20210022    3150002223742196425000039175000001072050000000000000                                                                           TUBO ENDOTRAQUEAL C/B 7.0SOB     1
