RC0001044436459H202100015132534300015132534313/12/20212347    3190013223742196425000011082700001620070000000000000                                                               EQUIPO SET PRIMARIO C/CLAVE REF 14001BOL     1
RC0001143474189H202100015132534300015132534313/12/20212347    3190013223742196425000011082700001620070000000000000                                                               EQUIPO SET PRIMARIO C/CLAVE REF 14001BOL     1
RC0001143474189H202100015132534300015132534313/12/20212347    3190013223742196425000022425700000225420000000000000                                                                   SIST PERFUSOR SECURA 50 ML 728889CAJ     2
RC0001047065603H202100015132534300015132534313/12/20212347    3190013223742196425000038568200000257000000000000000                                                                                   SONDA NELATON #06SIN     1
MS0000455470161H202100015132534300015132534313/12/20212347    3190013223742196425000038568200000257000000000000000                                                                                   SONDA NELATON #06SIN     1
