CC0000022476808U202100000556554600000556554604/12/20211034    31903190239421964320000E1AD0300000199490000000000000                                         LACTATO RINGER USP (HARTMANN)  SOL INY  BOL X 1000ML BAXTERBIN     1
CC0000022476808U202100000556554600000556554604/12/20210732    31903158239421964320000E1AD0300000199490000000000000                                         LACTATO RINGER USP (HARTMANN)  SOL INY  BOL X 1000ML BAXTERBIN     1
CC0000022476808U202100000556554600000556554604/12/20210723     3300010239421964320000M1AB4700001314130000000000000                                                                                  VERUM TAB 8 MG /R/TAB     3
