CC0000008686391H202100000556877100000556877113/12/20210206     3300009237421964250000B1AB0200003939510000000000000                 ENOXAPARINA SODICA 40MG/0.4ML(100MG/ML) SOL INY INST CAJ X 2JERPREL X 0.4ML TECHDOWJRP     2
CC0000008686391H202100000556877100000556877113/12/20210206     3300009237421964250000C09C0200001335330000000000000                                                                              MICARDIS TAB 80 MG /R/COM     1
CC0000008686391H202100000556877100000556877113/12/20211601     3300009237421964250000H02AB500001664950000000000000                                                            DEXAMETASONA SLN INY 8 MG/2 ML AMP /CDS/AMP     1
CC0000008686391H202100000556877100000556877113/12/20210204     3300009237421964250000N2AX0400001204140000000000000                                                                             TRAMAL Sln Iny 50 mg/mlAMP     4
CC0000008686391H202100000556877100000556877113/12/20211006     3300009237421964250000N2BE0100001276930000000000000                                                                                    DOLEX TAB 500 MGTAB     2
CC0000008686391H202100000556877100000556877113/12/20210206     3300009237421964250000N2BE0100001276930000000000000                                                                                    DOLEX TAB 500 MGTAB     8
