RC0001063188076H202100000556872500000556872513/12/20210628     3300009237421964250000V3AB2200000614150000000000000                                                            GLUCONATO CALCIO SLN INY 10% AMP X 10 MLAPC     1
RC0001063188076H202100000556872500000556872513/12/20211256    31903307237421964250000E1AA0100003888590000000000000                                                                        DEXTROSA 5% Sln Iny X 500 mlBOL     1
RC0001063188076H202100000556872500000556872513/12/20210628     3300009237421964250000A12BA100000552980000000000000                                                            CLORURO POTASIO Sln Iny AMP 20 MEQ/10 MLAMP     1
RC0001063188076H202100000556872500000556872513/12/20210628     3300009237421964250000J01XA400001212420000000000000                                                               VANCOMICINA POLVO LIOF SLN INY 500 MGVAL     1
RC0001063188076H202100000556872500000556872513/12/20210023     3300009237421964250000J01XA400001212420000000000000                                                               VANCOMICINA POLVO LIOF SLN INY 500 MGVAL     1
RC0001063188076H202100000556872500000556872513/12/20211256    31903307237421964250000E1BA0100000198890000000000000                                                                   AGUA ESTERIL USP SLN INY X 500 MLBIN     1
RC0001063188076H202100000556872500000556872513/12/20210628     3300009237421964250000R3CA0100001051880000000000000                                                               ADRENALINA HCL SLN INY 1 MG / ML ECARAMP     1
RC0001063188076H202100000556872500000556872513/12/20211452     3300009237421964250000C03D0200001334290000000000000                                                                           ESPIRONOLACTONA TAB 25 MGTAB     1
RC0001063188076H202100000556872500000556872513/12/20211131     3300009237421964250000C03C0100001672000000000000000                                                                       FUROSEMIDA SLN INY 20 MG/2 MLAMP     1
RC0001063188076H202100000556872500000556872513/12/20210023     3300009237421964250000C03C0100001672000000000000000                                                                       FUROSEMIDA SLN INY 20 MG/2 MLAMP     1
RC0001063188076H202100000556872500000556872513/12/20211452     3300009237421964250000C09AA300001353220000000000000                                                                                   ENALAPRIL TAB 5MGTAB     1
RC0001063188076H202100000556872500000556872513/12/20211810     3300009237421964250000N2BB0100001672010000000000000                                  DIPIRONA 1GR/2ML(0.5GR/ML) SOL INY INST CAJ X 100AMP X 2ML VITALISAMP     1
RC0001063188076H202100000556872500000556872513/12/20211131     3300009237421964250000N2BB0100001672010000000000000                                  DIPIRONA 1GR/2ML(0.5GR/ML) SOL INY INST CAJ X 100AMP X 2ML VITALISAMP     1
RC0001063188076H202100000556872500000556872513/12/20210628     3300009237421964250000N2BB0100001672010000000000000                                  DIPIRONA 1GR/2ML(0.5GR/ML) SOL INY INST CAJ X 100AMP X 2ML VITALISAMP     1
RC0001063188076H202100000556872500000556872513/12/20211747     3300009237421964250000R03AC200003848990000000000000                                                              SALBUTAMOL INH 100 MCG/DO FCO X 200 DOFCO     1
RC0001063188076H202100000556872500000556872513/12/20211131     3300009237421964250000A02BC700001684270000000000000                                                            OMEPRAZOL 40MG POLVO LIOFILIZADO AMPOLLAVAL     1
