RC0001130296418U202100000556887700000556887713/12/20211228    31500362239421964320000E1AB0300003888390000000000000                                                            SOLUCION SALINA 0.9% SLN INY BO X 500 MLBOL     1
RC0001130296418U202100000556887700000556887713/12/20211337     3300010239421964320000N2BE1100000836430000000000000                                             ACETAMINOFEN 150MG/5ML(3%) JBE INST FCO X 60ML AMER GENCAJ     1
RC0001130296418U202100000556887700000556887713/12/20211210     3300010239421964320000N2BE1100000836430000000000000                                             ACETAMINOFEN 150MG/5ML(3%) JBE INST FCO X 60ML AMER GENCAJ     1
RC0001130296418U202100000556887700000556887713/12/20212214     3300010239421964320000J01F0200001689390000000000000                                                                        CLINDAMICINA INY 600 MG/4 MLAMP     1
RC0001130296418U202100000556887700000556887713/12/20211412     3300010239421964320000J01F0200001689390000000000000                                                                        CLINDAMICINA INY 600 MG/4 MLAMP     1
RC0001130296418U202100000556887700000556887713/12/20211010     3300010239421964320000J01F0200001689390000000000000                                                                        CLINDAMICINA INY 600 MG/4 MLAMP     1
