RC0001043934327U202100050132033700050132033713/12/20210214    31500154239421964320000E1AB0200000199290000000000000                                                            SOLUCION SALINA 0.9% SLN INY BO X 100 MLBIN     1
RC0001043934327U202100050132033700050132033713/12/20210214    3150015423942196432000024674000001138340000000000000   JERINGA 3PARTES C/A 10ML REF JEHL005 CAJ X 100 ALFASAFE  21GX1 PULG 1/2 PULG BN EXENTO-DC.417/202PZA     2
RC0001043934327U202100050132033700050132033713/12/20210214    3150015423942196432000020816000001096410000000000000                                                                          LINER PARED DELGADA 1500CCBOL     1
RC0001043934327U202100050132033700050132033713/12/20210214    3150015423942196432000011077300001096490000000000000                                                             CIRCUITO PED VENSTAR DOBLE 1 5m MP00338BOL     1
RC0001043934327U202100050132033700050132033713/12/20210214    3150015423942196432000036441300000236540000000000000                                                                    JERINGA 1 ML GASES ARTERIAL 9023SIN     3
RC0001043934327U202100050132033700050132033713/12/20210214    3150015423942196432000030161400001459220000000000000                                                                       MANGUERA SUCCION 6 MM*3.1 MTSSOB     1
RC0001043934327U202100050132033700050132033713/12/20210214    31500154239421964320000Q1AA1000000256790000000000000                                                                         SONDA ASPIRACION CONTROL #8SIN     5
RC0001043934327U202100050132033700050132033713/12/20210214    3150015423942196432000039174500001679380000000000000                                                                           TUBO ENDOTRAQUEAL C/B 4.5SOB     1
