CC0000008729778H202100901663121100901663121111/12/20210958    3150002223742196425000036441300000236540000000000000                                                                    JERINGA 1 ML GASES ARTERIAL 9023SIN    12
CC0000008729778H202100901663121100901663121111/12/20212352    31500532237421964250000Q1AA3300001585140000000000000                                                                         APOSITO TEGADERM 10*12 1626SOB     1
CC0000008729778H202100901663121100901663121111/12/20212352    31500532237421964250000Q1AA7300000610640000000000000                                                            CATETER PERIFE INTROCAN # 22G 4251628-04SIN     1
CC0000008729778H202100901663121100901663121111/12/20212352    3150053223742196425000001956000001620610000000000000                                                                      CONECTOR MICRO CLAVE LAT-MC100SOB     1
CC0000008729778H202100901663121100901663121111/12/20212352    31500532237421964250000Q1AA7200000610630000000000000                                                            CATETER PERIFE INTROCAN # 20G 4251644-04SIN     1
