RC0001146542960H202100015042542100015042542113/12/20211522    3150008223742196425000030936900001431840000000000000                                                                                              BURETABOL     1
TI0001084454864H202100015042542100015042542113/12/20211522    3150008223742196425000030936900001431840000000000000                                                                                              BURETABOL     1
RC0001146542960H202100015042542100015042542113/12/20211522    3150008223742196425000001956000001620610000000000000                                                                      CONECTOR MICRO CLAVE LAT-MC100SOB     1
TI0001084454864H202100015042542100015042542113/12/20211522    3150008223742196425000001956000001620610000000000000                                                                      CONECTOR MICRO CLAVE LAT-MC100SOB     1
RC0001146542960H202100015042542100015042542113/12/20211522    3150008223742196425000043485100001618510000000000000                GUANTE QUIRURGICO DE LATEX REF 2D72N65X CAJ X 50 PROTEXIS  6.5 BN EXENTO-DC.417/2020SOB     3
TI0001084454864H202100015042542100015042542113/12/20211522    3150008223742196425000043485100001618510000000000000                GUANTE QUIRURGICO DE LATEX REF 2D72N65X CAJ X 50 PROTEXIS  6.5 BN EXENTO-DC.417/2020SOB     3
RC0001146542960H202100015042542100015042542113/12/20211522    3150008223742196425000000102000001090310000000000000                                                                 AGUJA SURECAN REF 04448332 20GX15MMSOB     1
TI0001084454864H202100015042542100015042542113/12/20211522    3150008223742196425000000102000001090310000000000000                                                                 AGUJA SURECAN REF 04448332 20GX15MMSOB     1
RC0001146542960H202100015042542100015042542113/12/20211522    3150008223742196425000000602700001197200000000000000                                                              APOSITO TRANSP  1655 IV 8.5CM X 11.5CMSOB     1
TI0001084454864H202100015042542100015042542113/12/20211522    3150008223742196425000000602700001197200000000000000                                                              APOSITO TRANSP  1655 IV 8.5CM X 11.5CMSOB     1
RC0001146542960H202100015042542100015042542113/12/20211522    31500082237421964250000E1AB0300003888390000000000000                                                            SOLUCION SALINA 0.9% SLN INY BO X 500 MLBOL     2
TI0001084454864H202100015042542100015042542113/12/20211522    31500082237421964250000E1AB0300003888390000000000000                                                            SOLUCION SALINA 0.9% SLN INY BO X 500 MLBOL     3
RC0001146542960H202100015042542100015042542113/12/20211522    3150008223742196425000022426800001140510000000000000                                                                    EQUIPO MACROGOTEO BAXTER MRC0001SOB     1
TI0001084454864H202100015042542100015042542113/12/20211522    3150008223742196425000022426800001140510000000000000                                                                    EQUIPO MACROGOTEO BAXTER MRC0001SOB     1
RC0001146542960H202100015042542100015042542113/12/20211522    3150008223742196425000011082700001620070000000000000                                                               EQUIPO SET PRIMARIO C/CLAVE REF 14001BOL     1
TI0001084454864H202100015042542100015042542113/12/20211522    3150008223742196425000011082700001620070000000000000                                                               EQUIPO SET PRIMARIO C/CLAVE REF 14001BOL     1
RC0001146542960H202100015042542100015042542113/12/20211522    3150008223742196425000013077800000471960000000000000                                                             GASA NO TEJIDA EST 7.5 X 7.5 SOB X 3 UNSOB    10
TI0001084454864H202100015042542100015042542113/12/20211522    3150008223742196425000013077800000471960000000000000                                                             GASA NO TEJIDA EST 7.5 X 7.5 SOB X 3 UNSOB    10
