CC0000079347209U202100923170121700923170121717/12/20210124    3150024623942196432000024674000001138340000000000000   JERINGA 3PARTES C/A 10ML REF JEHL005 CAJ X 100 ALFASAFE  21GX1 PULG 1/2 PULG BN EXENTO-DC.417/202PZA     2
CC0000079347209H202100923170121700923170121717/12/20212208    3190278823742196425000022426800001140510000000000000                                                                    EQUIPO MACROGOTEO BAXTER MRC0001SOB     1
CC0000079347209H202100923170121700923170121717/12/20212208    3190278823742196425000024674000001138340000000000000   JERINGA 3PARTES C/A 10ML REF JEHL005 CAJ X 100 ALFASAFE  21GX1 PULG 1/2 PULG BN EXENTO-DC.417/202PZA     5
CC0000079347209H202100923170121700923170121717/12/20212208    3190278823742196425000030936900001431840000000000000                                                                                              BURETABOL     1
