CC0001140838417U202100923079122500923079122525/12/20212101    3190145323942196432000020056600001101530000000000000                                                                AGUJA HIPODERMICA DESECH 18G X 1 1/2SOB     1
CC0001140838417U202100923079122500923079122525/12/20212101    3190145323942196432000022426800001140510000000000000                                                                    EQUIPO MACROGOTEO BAXTER MRC0001SOB     1
CC0001140838417U202100923079122500923079122525/12/20212101    3190145323942196432000024674500000322810000000000000                                                                   JERINGA DESECHABLE 20 ml 21*1 1/2SIN     1
CC0001140838417U202100923079122500923079122525/12/20212101    31901453239421964320000E1AB0300003888390000000000000                                                            SOLUCION SALINA 0.9% SLN INY BO X 500 MLBOL     1
