CC0000032864064H202100000556912300000556912313/12/20212305     3300003237421964250000A2BC0900000200150000000000000                                                                               ORAZOLE Sln Iny 40 mgCIN     1
CC0000032864064H202100000556912300000556912313/12/20212305     3300003237421964250000A03F0300001626860000000000000                                                                   METOCLOPRAMIDA SLN INY 10 MG/2 MLAMP     2
CC0000032864064H202100000556912300000556912313/12/20212338    31500347237421964250000E1AB0300003888390000000000000                                                            SOLUCION SALINA 0.9% SLN INY BO X 500 MLBOL     1
CC0000032864064H202100000556912300000556912313/12/20212304     3300003237421964250000J01DA300001239950000000000000                                                            CEFAZOLINA SODICA POLVO LIOF SLN INY 1 GVAL     3
CC0000032864064H202100000556912300000556912313/12/20212305     3300003237421964250000N2AX0400001204140000000000000                                                                             TRAMAL Sln Iny 50 mg/mlAMP     1
CC0000032864064H202100000556912300000556912313/12/20212304     3300003237421964250000N2AX0400001204140000000000000                                                                             TRAMAL Sln Iny 50 mg/mlAMP     1
CC0000032864064H202100000556912300000556912313/12/20212305     3300003237421964250000N02B1100001464120000000000000                                           PARACETAMOL EP 1000MG/100ML(10MG/ML) SOL INY  CAJ X 10FCOVAL     4
