CC0000079767241H202100000556553800000556553804/12/20210833     3300009237421964250000A2BC0100001277990000000000000                                                                                   ORAZOLE CAP 20 MGCAP     1
CC0000079767241H202100000556553800000556553804/12/20210833     3300009237421964250000A6AB0200001278260000000000000                                                                                  DULCOLAX Grag 5 mgGRA     1
CC0000079767241H202100000556553800000556553804/12/20210833     3300009237421964250000B1AB1400000718160000000000000                                                                  FRAXIPARINA SLN INY 3800 UI/0.4 MLJRP     1
CC0000079767241H202100000556553800000556553804/12/20210706    31500366237421964250000E1AD0300000199490000000000000                                         LACTATO RINGER USP (HARTMANN)  SOL INY  BOL X 1000ML BAXTERBIN     1
CC0000079767241H202100000556553800000556553804/12/20210833     3300009237421964250000C2AC0100001277460000000000000                                                                              CATAPRESAN TAB 150 MCGCOM     1
CC0000079767241H202100000556553800000556553804/12/20211222     3300009237421964250000J01DA300001239950000000000000                                                            CEFAZOLINA SODICA POLVO LIOF SLN INY 1 GVAL     6
CC0000079767241H202100000556553800000556553804/12/20211221     3300009237421964250000J01DA300001239950000000000000                                                            CEFAZOLINA SODICA POLVO LIOF SLN INY 1 GVAL     2
CC0000079767241H202100000556553800000556553804/12/20211222     3300009237421964250000N2BE0100001276930000000000000                                                                                    DOLEX TAB 500 MGTAB     1
CC0000079767241H202100000556553800000556553804/12/20210833     3300009237421964250000N2BE0100001276930000000000000                                                                                    DOLEX TAB 500 MGTAB     4
CC0000079767241H202100000556553800000556553804/12/20210833     3300009237421964250000N3AB0900001278210000000000000                                                                            NEURONTIN CAP 300 mg /R/CAP     1
CC0000079767241H202100000556553800000556553804/12/20211243    31902788237421964250000V07A1300000502600000000000000                                                                                AGUA ESTERIL x 10 mlAMP     5
