RC0001146543342H202100909398121300909398121313/12/20210125    3150021323742196425000011082700001620070000000000000                                                               EQUIPO SET PRIMARIO C/CLAVE REF 14001BOL     1
RC0001146543342H202100909398121300909398121313/12/20210125    3150021323742196425000016830000000970620000000000000                                                             SIST FIJACION CAT PERIFERICO 6.5X7 1683SOB     1
RC0001146543342H202100909398121300909398121313/12/20210125    3150021323742196425000030936900001431840000000000000                                                                                              BURETABOL     1
RC0001146543342H202100909398121300909398121313/12/20210125    3150021323742196425000001956000001620610000000000000                                                                      CONECTOR MICRO CLAVE LAT-MC100SOB     1
RC0001146543342H202100909398121300909398121313/12/20210125    31500213237421964250000Q1AA7400003911720000000000000                                                            CATETER PERIFE INTROCAN # 24G 4251601-04SOB     1
