CC0001143141864U202100922754121400922754121414/12/20211058    3150064323942196432000011048600000223020000000000000                                                                 JERINGA VACUNACION 3ML C/AGU 302542SIN     1
CC0001143141864U202100922754121400922754121414/12/20211058    3150064323942196432000012475800000232220000000000000                                                                SUTURA ETHILON 4-0 PS-2  45CM P1667TSIN     1
CC0001143141864U202100922754121400922754121414/12/20211058    3150064323942196432000013077800000471960000000000000                                                             GASA NO TEJIDA EST 7.5 X 7.5 SOB X 3 UNSOB     3
CC0001143141864U202100922754121400922754121414/12/20211124    3190271223942196432000011089300001083990000000000000                                                              GUANTE ESTERIL LATEX S/POLVO TALLA 7.5SOB     3
CC0001143141864U202100922754121400922754121414/12/20211124    3190271223942196432000012458700000222260000000000000                                                                           FERULA ZIMMER 1/2 DELGADABIN     1
CC0001143141864U202100922754121400922754121414/12/20211124    3190271223942196432000012475800000232220000000000000                                                                SUTURA ETHILON 4-0 PS-2  45CM P1667TSIN     1
CC0001143141864U202100922754121400922754121414/12/20211124    3190271223942196432000024674000001138340000000000000   JERINGA 3PARTES C/A 10ML REF JEHL005 CAJ X 100 ALFASAFE  21GX1 PULG 1/2 PULG BN EXENTO-DC.417/202PZA     2
CC0001143141864U202100922754121400922754121414/12/20211124    3190271223942196432000043879100001138200000000000000                                                                  HOJA BISTURI # 15 CSSB 15 01002003SOB     1
