CC0000073070310H202100000556559300000556559304/12/20211044     3300010237421964250000A2BC0100001277990000000000000                                                                                   ORAZOLE CAP 20 MGCAP     1
CC0000073070310H202100000556559300000556559304/12/20211043     3300010237421964250000A7DA0100001303560000000000000                                                                                 LOPERAMIDA TAB 2 MGTAB     3
CC0000073070310H202100000556559300000556559304/12/20211044     3300010237421964250000A7DA1400000203670000000000000                                                                          SMECTA POLVO SOBRE 3 G /R/SIN     3
CC0000073070310H202100000556559300000556559304/12/20211503     3300009237421964250000B1AB0200003939510000000000000                 ENOXAPARINA SODICA 40MG/0.4ML(100MG/ML) SOL INY INST CAJ X 2JERPREL X 0.4ML TECHDOWJRP     1
CC0000073070310H202100000556559300000556559304/12/20211548     3300009237421964250000C3DA0200001332680000000000000                                                                                ALDACTONE TAB 100 MGTAB     2
CC0000073070310H202100000556559300000556559304/12/20211044     3300010237421964250000C3DA0100001278020000000000000                                                                                 ALDACTONE TAB 25 MGTAB     4
CC0000073070310H202100000556559300000556559304/12/20211043     3300010237421964250000C7FA0100001277270000000000000                                                                                     NORVAS TAB 5 MGTAB     1
CC0000073070310H202100000556559300000556559304/12/20211044     3300010237421964250000C09C0100001316940000000000000                                                                               DIOVAN TAB 160 MG /R/TAB     1
CC0000073070310H202100000556559300000556559304/12/20211044     3300010237421964250000H03AA500001315460000000000000                                                                                SYNTHROID TAB 50 MCGTAB     1
CC0000073070310H202100000556559300000556559304/12/20211044     3300010237421964250000H03AA400001315380000000000000                                                                               SYNTHROID TAB 100 MCGTAB     1
CC0000073070310H202100000556559300000556559304/12/20211814     3300009237421964250000J3CB0200001333510000000000000                                                                                    CIPRO TAB 500 MGCOM     2
CC0000073070310H202100000556559300000556559304/12/20211044     3300010237421964250000J3CB0200001333510000000000000                                                                                    CIPRO TAB 500 MGCOM     2
CC0000073070310H202100000556559300000556559304/12/20211044     3300010237421964250000N02B1100001464120000000000000                                           PARACETAMOL EP 1000MG/100ML(10MG/ML) SOL INY  CAJ X 10FCOVAL     1
CC0000073070310H202100000556559300000556559304/12/20211123     3300009237421964250000V06B0800003860120000000000000                                                                           PROWHEY POLVO TARRO 275 GTAR     1
CC0000073070310H202100000556559300000556559304/12/20210952    31903331237421964250000V07A1300000502600000000000000                                                                                AGUA ESTERIL x 10 mlAMP     5
