CC0001140863047U202100050132038600050132038613/12/20211101    3150029223942196432000030936900001431840000000000000                                                                                              BURETABOL     1
CC0001140863047U202100050132038600050132038613/12/20211101    3150029223942196432000024674000001138340000000000000   JERINGA 3PARTES C/A 10ML REF JEHL005 CAJ X 100 ALFASAFE  21GX1 PULG 1/2 PULG BN EXENTO-DC.417/202PZA     3
CC0001140863047U202100050132038600050132038613/12/20211101    3150029223942196432000016830000000970620000000000000                                                             SIST FIJACION CAT PERIFERICO 6.5X7 1683SOB     1
CC0001140863047U202100050132038600050132038613/12/20211101    31500292239421964320000Q1AA7100000610620000000000000                                                            CATETER PERIFE INTROCAN # 18G 4251687-04SIN     1
CC0001140863047U202100050132038600050132038613/12/20211101    3150029223942196432000022426800001140510000000000000                                                                    EQUIPO MACROGOTEO BAXTER MRC0001SOB     1
CC0001140863047U202100050132038600050132038613/12/20211101    31500292239421964320000E1AD0300000199490000000000000                                         LACTATO RINGER USP (HARTMANN)  SOL INY  BOL X 1000ML BAXTERBIN     1
