RC0001046735560U202100000556908700000556908713/12/20211849     3300010239421964320000H02AB400001140460000000000000                                                              SUCCINA METILPREDNISOLONA 500MG VIA/R/VAL     1
RC0001046735560U202100000556908700000556908713/12/20212048    31901453239421964320000E1AD0300000199490000000000000                                         LACTATO RINGER USP (HARTMANN)  SOL INY  BOL X 1000ML BAXTERBIN     1
RC0001046735560U202100000556908700000556908713/12/20211859     3300010239421964320000R03BA800001396350000000000000                                                             BECLOMETASONA DIPROP INH ORAL 50 MCG/DOFCO     1
RC0001046735560U202100000556908700000556908713/12/20211859     3300010239421964320000R03A0400000555900000000000000                                                              SALBUTAN Inh 100 mcg/dosis x 200 DosisFCO     1
