RC0001044671776H202100000556552900000556552904/12/20211853     330001023742196425000011808300000218190000000000000                                                   DORMICUM IV 50MG/10ML(5MG/ML) SOL INY  CAJ X 5AMPAMP     1
RC0001044671776H202100000556552900000556552904/12/20211358    31500568237421964250000E1AC0100000199400000000000000                                                                          SUERO MIXTO Sln Iny 500 mlBIN     2
RC0001044671776H202100000556552900000556552904/12/20211444     3300010237421964250000N03AG200001590870000000000000                                                            PROVALNOVA SLN INY 100MG/ML VIALX5ML /R/VAL     1
RC0001044671776H202100000556552900000556552904/12/20210902     3300010237421964250000N03AG200001590870000000000000                                                            PROVALNOVA SLN INY 100MG/ML VIALX5ML /R/VAL     1
RC0001044671776H202100000556552900000556552904/12/20210620     3300009237421964250000N03AG200001590870000000000000                                                            PROVALNOVA SLN INY 100MG/ML VIALX5ML /R/VAL     1
RC0001044671776H202100000556552900000556552904/12/20211301     3300009237421964250000N03AX200001063780000000000000                                                                      KEPPRA SLN INY 500 MG/5 ML /R/VAL     1
RC0001044671776H202100000556552900000556552904/12/20210902     3300010237421964250000N03AX200001063780000000000000                                                                      KEPPRA SLN INY 500 MG/5 ML /R/VAL     1
RC0001044671776H202100000556552900000556552904/12/20211820     3300009237421964250000N02A0800001680530000000000000                                                                                 METHADOSE Tab 10 mgTAB     1
RC0001044671776H202100000556552900000556552904/12/20211301     3300009237421964250000C03C0100001672000000000000000                                                                       FUROSEMIDA SLN INY 20 MG/2 MLAMP     1
RC0001044671776H202100000556552900000556552904/12/20211444     3300010237421964250000J1KF0500001317760000000000000                                                                      MEROPENEM POLVO INY 500 MG /R/CAJ     1
RC0001044671776H202100000556552900000556552904/12/20210902     3300010237421964250000J1KF0500001317760000000000000                                                                      MEROPENEM POLVO INY 500 MG /R/CAJ     1
RC0001044671776H202100000556552900000556552904/12/20210620     3300009237421964250000J1KF0500001317760000000000000                                                                      MEROPENEM POLVO INY 500 MG /R/CAJ     1
RC0001044671776H202100000556552900000556552904/12/20211301     3300009237421964250000J02AC100000553180000000000000                                                                   FLUCONAZOL SLN INY 200 MG/ 100 MLFCO     1
RC0001044671776H202100000556552900000556552904/12/20211301     3300009237421964250000N2BB0100001672010000000000000                                  DIPIRONA 1GR/2ML(0.5GR/ML) SOL INY INST CAJ X 100AMP X 2ML VITALISAMP     1
RC0001044671776H202100000556552900000556552904/12/20210902     3300010237421964250000N2BB0100001672010000000000000                                  DIPIRONA 1GR/2ML(0.5GR/ML) SOL INY INST CAJ X 100AMP X 2ML VITALISAMP     1
RC0001044671776H202100000556552900000556552904/12/20210902     3300010237421964250000A02BC700001684270000000000000                                                            OMEPRAZOL 40MG POLVO LIOFILIZADO AMPOLLAVAL     1
RC0001044671776H202100000556552900000556552904/12/20211358    31500568237421964250000V07A1300000502600000000000000                                                                                AGUA ESTERIL x 10 mlAMP     3
