TI0001043694182H202100000556554000000556554004/12/20211648     3300009237421964250000A03F0300001626860000000000000                                                                   METOCLOPRAMIDA SLN INY 10 MG/2 MLAMP     1
TI0001043694182H202100000556554000000556554004/12/20210834     3300009237421964250000A03F0300001626860000000000000                                                                   METOCLOPRAMIDA SLN INY 10 MG/2 MLAMP     1
TI0001043694182H202100000556554000000556554004/12/20211244    31902788237421964250000E1AB0200000199290000000000000                                                            SOLUCION SALINA 0.9% SLN INY BO X 100 MLBIN     1
TI0001043694182H202100000556554000000556554004/12/20210707    31500366237421964250000E1AD0300000199490000000000000                                         LACTATO RINGER USP (HARTMANN)  SOL INY  BOL X 1000ML BAXTERBIN     1
TI0001043694182H202100000556554000000556554004/12/20211648     3300009237421964250000N2BB0500000217140000000000000                                                                          NOVALGINA Sln Iny 1 g/2 mlAMP     1
TI0001043694182H202100000556554000000556554004/12/20211420     3300010237421964250000N2BB0500000217140000000000000                                                                          NOVALGINA Sln Iny 1 g/2 mlAMP     1
TI0001043694182H202100000556554000000556554004/12/20210834     3300009237421964250000N2BB0500000217140000000000000                                                                          NOVALGINA Sln Iny 1 g/2 mlAMP     1
TI0001043694182H202100000556554000000556554004/12/20211420     3300010237421964250000N3AB0700000554770000000000000                                                                          EPAMIN Sln Iny 250 mg/5 mlAMP     1
TI0001043694182H202100000556554000000556554004/12/20210834     3300009237421964250000N3AB0700000554770000000000000                                                                          EPAMIN Sln Iny 250 mg/5 mlAMP     1
TI0001043694182H202100000556554000000556554004/12/20210716     3300009237421964250000N3AB0700000554770000000000000                                                                          EPAMIN Sln Iny 250 mg/5 mlAMP     1
TI0001043694182H202100000556554000000556554004/12/20211244    31902788237421964250000V07A1300000502600000000000000                                                                                AGUA ESTERIL x 10 mlAMP     5
