CC0001125799256H202100000556878100000556878113/12/20210932     3300009237421964250000B1AB0200003939510000000000000                 ENOXAPARINA SODICA 40MG/0.4ML(100MG/ML) SOL INY INST CAJ X 2JERPREL X 0.4ML TECHDOWJRP     1
CC0001125799256H202100000556878100000556878113/12/20212331    31500460237421964250000E1AB0300003888390000000000000                                                            SOLUCION SALINA 0.9% SLN INY BO X 500 MLBOL     1
CC0001125799256H202100000556878100000556878113/12/20211541     3300009237421964250000J1CB1800001134180000000000000                                                                             TAZOCIN Polvo Iny 4.5 gVAL     1
CC0001125799256H202100000556878100000556878113/12/20210932     3300009237421964250000J1CB1800001134180000000000000                                                                             TAZOCIN Polvo Iny 4.5 gVAL     3
CC0001125799256H202100000556878100000556878113/12/20210932     3300009237421964250000J01XA400001212420000000000000                                                               VANCOMICINA POLVO LIOF SLN INY 500 MGVAL     4
CC0001125799256H202100000556878100000556878113/12/20211835     3300009237421964250000N2BE0100001276930000000000000                                                                                    DOLEX TAB 500 MGTAB     4
CC0001125799256H202100000556878100000556878113/12/20210932     3300009237421964250000N2BE0100001276930000000000000                                                                                    DOLEX TAB 500 MGTAB     2
