RC0001194983165U202100050132048300050132048313/12/20212211    3190145323942196432000024673600000222980000000000000                                                                     JERINGA DESECHABLE 5 ml 27*11/2SIN     2
CC0001143430115U202100050132048300050132048313/12/20212211    3190145323942196432000011082700001620070000000000000                                                               EQUIPO SET PRIMARIO C/CLAVE REF 14001BOL     1
CC0001143430115U202100050132048300050132048313/12/20212211    31901453239421964320000E1AD0200003888320000000000000                                                                              HARTMAN SLN INY 500 MLBOL     1
