CC0000032864064H202100015012637800015012637813/12/20212305    3150034723742196425000030936900001431840000000000000                                                                                              BURETABOL     1
CC0000032864064H202100015012637800015012637813/12/20212305    3150034723742196425000024674000001138340000000000000   JERINGA 3PARTES C/A 10ML REF JEHL005 CAJ X 100 ALFASAFE  21GX1 PULG 1/2 PULG BN EXENTO-DC.417/202PZA     8
CC0000032864064H202100015012637800015012637813/12/20212305    31500347237421964250000E1AB0300003888390000000000000                                                            SOLUCION SALINA 0.9% SLN INY BO X 500 MLBOL     1
