CC0001143114184H202100000556565100000556565104/12/20211152    31500347237421964250000E1AB0300003888390000000000000                                                            SOLUCION SALINA 0.9% SLN INY BO X 500 MLBOL     2
CC0001143114184H202100000556565100000556565104/12/20211206     3300009237421964250000J01DB300000553200000000000000                                                                         CEFALOTINA SLN INY 1 G VIALVAL     8
CC0001143114184H202100000556565100000556565104/12/20211206     3300009237421964250000N2BB0100001672010000000000000                                  DIPIRONA 1GR/2ML(0.5GR/ML) SOL INY INST CAJ X 100AMP X 2ML VITALISAMP     5
CC0001143114184H202100000556565100000556565104/12/20211152    31500347237421964250000V07A1300000502600000000000000                                                                                AGUA ESTERIL x 10 mlAMP     4
