CC0000050876695H202100000556885100000556885113/12/20211517     3300009237421964250000A03F0300001626860000000000000                                                                   METOCLOPRAMIDA SLN INY 10 MG/2 MLAMP     1
CC0000050876695H202100000556885100000556885113/12/20210925     3300009237421964250000A03F0300001626860000000000000                                                                   METOCLOPRAMIDA SLN INY 10 MG/2 MLAMP     2
CC0000050876695H202100000556885100000556885113/12/20211411    31500387237421964250000E1AB0200000199290000000000000                                                            SOLUCION SALINA 0.9% SLN INY BO X 100 MLBIN     3
CC0000050876695H202100000556885100000556885113/12/20210926     3300009237421964250000C7AB1000001382030000000000000                                                                   NOREPINEFRINA SLN INY 4 MG / 4 MLAMP     2
CC0000050876695H202100000556885100000556885113/12/20210925     3300009237421964250000C7AB1000001382030000000000000                                                                   NOREPINEFRINA SLN INY 4 MG / 4 MLAMP     2
CC0000050876695H202100000556885100000556885113/12/20210925     3300009237421964250000B01AB200000513350000000000000                                                                        CLENOX SLN INY 40 MG/ 0.4 MLJRP     1
CC0000050876695H202100000556885100000556885113/12/20211517     3300009237421964250000N2BE2200001252930000000000000                                                                             ACETAMINOFEN Tab 500 MGTAB    12
CC0000050876695H202100000556885100000556885113/12/20211517     3300009237421964250000N2BB0100001672010000000000000                                  DIPIRONA 1GR/2ML(0.5GR/ML) SOL INY INST CAJ X 100AMP X 2ML VITALISAMP     5
CC0000050876695H202100000556885100000556885113/12/20211517     3300009237421964250000N2AX0900001672040000000000000                                                                              TRAMADOL SLN INY 50 MGAMP     1
CC0000050876695H202100000556885100000556885113/12/20210925     3300009237421964250000A02BC700001684270000000000000                                                            OMEPRAZOL 40MG POLVO LIOFILIZADO AMPOLLAVAL     1
CC0000050876695H202100000556885100000556885113/12/20211411    31500387237421964250000V07A1300000502600000000000000                                                                                AGUA ESTERIL x 10 mlAMP     4
