CC0000080424776U202100000556895800000556895813/12/20211601    31500292239421964320000E1AB0200000199290000000000000                                                            SOLUCION SALINA 0.9% SLN INY BO X 100 MLBIN     1
CC0000080424776U202100000556895800000556895813/12/20212228     3300010239421964320000J3CB1300000547730000000000000                                                                         CIPRO SLN INY 200 MG/100 MLFCO     1
CC0000080424776U202100000556895800000556895813/12/20211541     3300010239421964320000J3CB1300000547730000000000000                                                                         CIPRO SLN INY 200 MG/100 MLFCO     1
CC0000080424776U202100000556895800000556895813/12/20211250     3300010239421964320000N02B1100001464120000000000000                                           PARACETAMOL EP 1000MG/100ML(10MG/ML) SOL INY  CAJ X 10FCOVAL     1
CC0000080424776U202100000556895800000556895813/12/20212143     3300010239421964320000N2AA0200000301600000000000000                                                                        HIDROMORFONA Sln Iny 2 mg/mlAMP     1
