CC0000003724288H202100000556548600000556548604/12/20211211    31500120237421964250000E1AB0300003888390000000000000                                                            SOLUCION SALINA 0.9% SLN INY BO X 500 MLBOL     3
CC0000003724288H202100000556548600000556548604/12/20210641    31500148237421964250000E1AD0200003888320000000000000                                                                              HARTMAN SLN INY 500 MLBOL     1
CC0000003724288H202100000556548600000556548604/12/20212355    31902445237421964250000E1AD0300000199490000000000000                                         LACTATO RINGER USP (HARTMANN)  SOL INY  BOL X 1000ML BAXTERBIN     1
CC0000003724288H202100000556548600000556548604/12/20211432    31901634237421964250000E1AD0300000199490000000000000                                         LACTATO RINGER USP (HARTMANN)  SOL INY  BOL X 1000ML BAXTERBIN     1
CC0000003724288H202100000556548600000556548604/12/20212355    31902445237421964250000B05X0100000199670000000000000                                                                ARTHROMATIC Sln IRRIGACION X 3000 mlBIN     3
CC0000003724288H202100000556548600000556548604/12/20211417     3300010237421964250000J01DA300001239950000000000000                                                            CEFAZOLINA SODICA POLVO LIOF SLN INY 1 GVAL     1
CC0000003724288H202100000556548600000556548604/12/20210804     3300009237421964250000J01DA300001239950000000000000                                                            CEFAZOLINA SODICA POLVO LIOF SLN INY 1 GVAL     2
CC0000003724288H202100000556548600000556548604/12/20211432    31901634237421964250000E1BA0700000198910000000000000                                                                   UROMATIC Sln IRRIGACION X 3000 MLBIN     5
CC0000003724288H202100000556548600000556548604/12/20210641    31500148237421964250000E1BA0700000198910000000000000                                                                   UROMATIC Sln IRRIGACION X 3000 MLBIN     2
CC0000003724288H202100000556548600000556548604/12/20210804     3300009237421964250000A06A1700001333140000000000000                                                                                 BISACODILO TAB 5 MGTAB     1
CC0000003724288H202100000556548600000556548604/12/20210804     3300009237421964250000A03BB100003889180000000000000                                      HIOSCINA BUTIL BROMURO 20MG/ML SOL INY CAJ X 100AMP X 1ML RYANAMP     4
CC0000003724288H202100000556548600000556548604/12/20210714     3300009237421964250000A03BB100003889180000000000000                                      HIOSCINA BUTIL BROMURO 20MG/ML SOL INY CAJ X 100AMP X 1ML RYANAMP     1
CC0000003724288H202100000556548600000556548604/12/20210338     3300009237421964250000A03BB100003889180000000000000                                      HIOSCINA BUTIL BROMURO 20MG/ML SOL INY CAJ X 100AMP X 1ML RYANAMP     1
CC0000003724288H202100000556548600000556548604/12/20211417     3300010237421964250000N05BA100001303610000000000000                                                                                  LORAZEPAM TAB 2 MGTAB     1
CC0000003724288H202100000556548600000556548604/12/20211246    31902788237421964250000V07A1300000502600000000000000                                                                                AGUA ESTERIL x 10 mlAMP     5
