CC0000026807574U202100923821122100923821122121/12/20211146    3150029423942196432000011082700001620070000000000000                                                               EQUIPO SET PRIMARIO C/CLAVE REF 14001BOL     1
CC0000026807574U202100923821122100923821122121/12/20211146    3150029423942196432000011137100001419310000000000000                                                               TIRA GLUCOMETRIA FREESTYLE H OPTIUM .PZA     1
CC0000026807574U202100923821122100923821122121/12/20211146    3150029423942196432000045136100001419300000000000000                                                                            LANCETA DEXTROMETER X UNPZA     1
CC0000026807574U202100923821122100923821122121/12/20211146    3150029423942196432000001956000001620610000000000000                                                                      CONECTOR MICRO CLAVE LAT-MC100SOB     1
CC0000026807574U202100923821122100923821122121/12/20211146    3150029423942196432000000602600001259280000000000000                                                             APOSITO TEGADERM IV PD 1610 5CM X 5.7CMSOB     1
CC0000026807574U202100923821122100923821122121/12/20211146    31500294239421964320000Q1AA7200000610630000000000000                                                            CATETER PERIFE INTROCAN # 20G 4251644-04SIN     1
CC0000026807574U202100923821122100923821122121/12/20211146    31500294239421964320000E1AB0500003888400000000000000                                                              SOLUCION SALINA 0.9% SLN INY X 1000 MLBOL     1
