CC0001140872735U202100050132038100050132038113/12/20211030    3190093923942196432000030936900001431840000000000000                                                                                              BURETABOL     1
CC0001140872735U202100050132038100050132038113/12/20211030    3190093923942196432000016830000000970620000000000000                                                             SIST FIJACION CAT PERIFERICO 6.5X7 1683SOB     1
CC0001140872735U202100050132038100050132038113/12/20211030    31900939239421964320000Q1AA7200000610630000000000000                                                            CATETER PERIFE INTROCAN # 20G 4251644-04SIN     1
CC0001140872735U202100050132038100050132038113/12/20211030    3190093923942196432000011082700001620070000000000000                                                               EQUIPO SET PRIMARIO C/CLAVE REF 14001BOL     1
RC0001043189823U202100050132038100050132038113/12/20211030    3190093923942196432000011048600000223020000000000000                                                                 JERINGA VACUNACION 3ML C/AGU 302542SIN     1
RC0001033120935U202100050132038100050132038113/12/20211030    3190093923942196432000011048600000223020000000000000                                                                 JERINGA VACUNACION 3ML C/AGU 302542SIN     1
CC0001140872735U202100050132038100050132038113/12/20211030    31900939239421964320000E1AD0300000199490000000000000                                         LACTATO RINGER USP (HARTMANN)  SOL INY  BOL X 1000ML BAXTERBIN     2
