CC0001018430007A202100000027909400000027909421/12/20211623    3190333624042196419000000102300000222960000000000000                                                                 JERINGA DESECHABLE SIN AGUJA X 20mLSIN     1
CC0001018430007A202100000027909400000027909421/12/20211623    31903336240421964190000K0960000001052020000000000000                                                            RECARGA ARTICULABLE 60 PURPURA EGIA60AMTPZA     4
CC0001018430007A202100000027909400000027909421/12/20211623    31903336240421964190000K0990000001080220000000000000                                                               RECARGA ENDO GIA 60MM ARTIC EGIA60AXTPZA     1
CC0001018430007A202100000027909400000027909421/12/20211623    3190333624042196419000011067500001404570000000000000                                                              TROCAR FIJACION 5MM X 100 MM REF B5STFPZA     1
CC0001018430007A202100000027909400000027909421/12/20211623    3190333624042196419000000016500000223580000000000000                                                                    STERI-STRIP 12 X 100 REF 1547 3MSIN     1
CC0001018430007A202100000027909400000027909421/12/20211623    3190333624042196419000015994600000632480000000000000                                                                          MONOCRYL 4-0 PS-2 45 Y496GSIN     1
CC0001018430007A202100000027909400000027909421/12/20211623    3190333624042196419000000501000004008660000000000000  SUTURA ABSORB TRENZADA GU-46 REF UL-878 CAJ X 36 POLYSORB 75CM - 2-0 VIOLETA BN EXENTO-DC.417/2020SIN     1
CC0001018430007A202100000027909400000027909421/12/20211623    3190333624042196419000043879200001138180000000000000                                                                                   HOJA BISTURI # 11SOB     1
CC0001018430007A202100000027909400000027909421/12/20211623    3190333624042196419000045138000001413890000000000000                                                                       LAPIZ ELECTROBISTURI  SOB X 1SOB     1
CC0001018430007A202100000027909400000027909421/12/20211623    3190333624042196419000013077800000471960000000000000                                                             GASA NO TEJIDA EST 7.5 X 7.5 SOB X 3 UNSOB     1
CC0001018430007A202100000027909400000027909421/12/20211623    3190333624042196419000024674500000322810000000000000                                                                   JERINGA DESECHABLE 20 ml 21*1 1/2SIN     1
CC0001018430007A202100000027909400000027909421/12/20211623    31903336240421964190000N1BA0300000217900000000000000                                                                    BUPIROP 0.5% C/E Sln Iny x 20 mlVAL     1
CC0001018430007A202100000027909400000027909421/12/20211623    3190333624042196419000049059800000267410000000000000                                                                 MEDIA ANTIEMBOLICA TAL L 3634LF PARBOL     1
CC0001018430007A202100000027909400000027909421/12/20211623    31903336240421964190000J01DA300001239950000000000000                                                            CEFAZOLINA SODICA POLVO LIOF SLN INY 1 GVAL     2
CC0001018430007A202100000027909400000027909421/12/20211623    3190333624042196419000015638600001533360000000000000                                                           MAQUINA AFEITAR   MINORA PAQ X 24 II PLUSPZA     1
CC0001018430007A202100000027909400000027909421/12/20211623    3190333624042196419000016830000000970620000000000000                                                             SIST FIJACION CAT PERIFERICO 6.5X7 1683SOB     1
CC0001018430007A202100000027909400000027909421/12/20211623    31903336240421964190000Q1AA7100000610620000000000000                                                            CATETER PERIFE INTROCAN # 18G 4251687-04SIN     1
CC0001018430007A202100000027909400000027909421/12/20211623    3190333624042196419000035356500003919000000000000000                                                                                        LLAVE 3 VIASSOB     2
CC0001018430007A202100000027909400000027909421/12/20211623    3190333624042196419000022425200000548240000000000000                       EXTENSION DE ANESTESIA REF 1139 SOB X 1 SHERLEG  ADULTO BN EXENTO-DC.417/2020SIN     1
CC0001018430007A202100000027909400000027909421/12/20211623    3190333624042196419000022426800001140510000000000000                                                                    EQUIPO MACROGOTEO BAXTER MRC0001SOB     1
CC0001018430007A202100000027909400000027909421/12/20211623    3190333624042196419000053300000000583500000000000000                                                               BOTA EXPRESS COMPRESOR VASCUL M 73012SIN     1
CC0001018430007A202100000027909400000027909421/12/20211623    3190333624042196419000020750600000296780000000000000                                                                PLACA ELECTRO RETORNO PACIENTE E7506SIN     1
CC0001018430007A202100000027909400000027909421/12/20211623    3190333624042196419000024673600000222980000000000000                                                                     JERINGA DESECHABLE 5 ml 27*11/2SIN     1
CC0001018430007A202100000027909400000027909421/12/20211623    3190333624042196419000024674000001138340000000000000   JERINGA 3PARTES C/A 10ML REF JEHL005 CAJ X 100 ALFASAFE  21GX1 PULG 1/2 PULG BN EXENTO-DC.417/202PZA     3
CC0001018430007A202100000027909400000027909421/12/20211623    3190333624042196419000011085300001082140000000000000                                                                           GUANTE QUIRURGICO TALLA 8SOB     1
CC0001018430007A202100000027909400000027909421/12/20211623    3190333624042196419000011085100001082120000000000000                                                                           GUANTE QUIRURGICO TALLA 7SOB     1
CC0001018430007A202100000027909400000027909421/12/20211623    3190333624042196419000011085200001585390000000000000                                                                       GUANTE QUIRURGICO TALLA 7 1/2SOB     2
CC0001018430007A202100000027909400000027909421/12/20211623    3190333624042196419000043485100001618510000000000000                GUANTE QUIRURGICO DE LATEX REF 2D72N65X CAJ X 50 PROTEXIS  6.5 BN EXENTO-DC.417/2020SOB     2
CC0001018430007A202100000027909400000027909421/12/20211623    3190333624042196419000053074400000607910000000000000                                                               GASA ESTERIL 10*10 SOBRE X 3 UNIDADESSOB     2
CC0001018430007A202100000027909400000027909421/12/20211623    3190333624042196419000011073300001096420000000000000                                                                BOLSA DE SUCCION DE FLUIDOS x 2500mLBOL     1
CC0001018430007A202100000027909400000027909421/12/20211623    3190333624042196419000030161400001459220000000000000                                                                       MANGUERA SUCCION 6 MM*3.1 MTSSOB     2
CC0001018430007A202100000027909400000027909421/12/20211623    3190333624042196419000011099300000777780000000000000                                                                     FILTRO BACTERIANO VIRICO ADULTOBOL     2
CC0001018430007A202100000027909400000027909421/12/20211623    3190333624042196419000039175100001072060000000000000                                                                           TUBO ENDOTRAQUEAL C/B 7.5SOB     1
CC0001018430007A202100000027909400000027909421/12/20211623    3190333624042196419000051515500000598160000000000000                                                                            MASCARILLA ANESTESIA # 5SIN     1
CC0001018430007A202100000027909400000027909421/12/20211623    3190333624042196419000038568100000258050000000000000                                                                         CANULA OXIGENO NASAL ADULTOSIN     1
CC0001018430007A202100000027909400000027909421/12/20211623    3190333624042196419000011082700001620070000000000000                                                               EQUIPO SET PRIMARIO C/CLAVE REF 14001BOL     2
CC0001018430007A202100000027909400000027909421/12/20211623    3190333624042196419000020056600001101530000000000000                                                                AGUJA HIPODERMICA DESECH 18G X 1 1/2SOB     1
CC0001018430007A202100000027909400000027909421/12/20211623    31903336240421964190000E1AD0200003888320000000000000                                                                              HARTMAN SLN INY 500 MLBOL     4
CC0001018430007A202100000027909400000027909421/12/20211623    31903336240421964190000E1AB0300003888390000000000000                                                            SOLUCION SALINA 0.9% SLN INY BO X 500 MLBOL     1
CC0001018430007A202100000027909400000027909421/12/20211623    31903336240421964190000E1AB0700003888350000000000000                                                            SOLUCION SALINA 0.9% SLN INY BO X 250 MLBOL     1
CC0001018430007A202100000027909400000027909421/12/20211623    31903336240421964190000E1AB0200000199290000000000000                                                            SOLUCION SALINA 0.9% SLN INY BO X 100 MLBIN     2
CC0001018430007A202100000027909400000027909421/12/20211623    31903336240421964190000V3AB1900001177870000000000000                                                                      PROSTIGMINE Sln Iny 0.5 mg/ mlAMP     4
CC0001018430007A202100000027909400000027909421/12/20211623    31903336240421964190000N02B1100001464120000000000000                                           PARACETAMOL EP 1000MG/100ML(10MG/ML) SOL INY  CAJ X 10FCOVAL     1
CC0001018430007A202100000027909400000027909421/12/20211623    31903336240421964190000N01A0400003939010000000000000                                               MAYOPROFOL 200MG/20ML(1%) EMUL INY CAJ X 1VIAL X 20MLVAL     1
CC0001018430007A202100000027909400000027909421/12/20211623    31903336240421964190000A3BB0300000512950000000000000                                                             BUSCAPINA COMP Sln Iny 20 mg+2.5 g/5 mlAMP     1
CC0001018430007A202100000027909400000027909421/12/20211623    31903336240421964190000A3BA0100001109400000000000000                                                                          ATROPINA SLN INY 1 MG / MLAMP     1
CC0001018430007A202100000027909400000027909421/12/20211623    31903336240421964190000N01B1300001195250000000000000                                                                         BUPIROP 0.5% S/EPIN X 10 MLAMP     1
CC0001018430007A202100000027909400000027909421/12/20211623    31903336240421964190000N1BA2400001687720000000000000                                                    LIDOCAINA 2% SOL INY  CAJ X 50AMP X 10ML CORPAULAMP     1
CC0001018430007A202100000027909400000027909421/12/20211623    31903336240421964190000M3AC0600000720540000000000000                                                                         ESMERON SLN INY 50 MG /5 MLVAL     1
CC0001018430007A202100000027909400000027909421/12/20211623    31903336240421964190000N2AA0100000301640000000000000                                                                            MORFINA Sln Iny 10 mg/mlAMP     1
CC0001018430007A202100000027909400000027909421/12/20211623    31903336240421964190000N2AA0700001587170000000000000                                                                                 ULTIVA Sln Iny 2 mgVAL     1
CC0001018430007A202100000027909400000027909421/12/20211623    31903336240421964190000N5AD0500000217620000000000000                                                                         HALOPIDOL Sln Iny 5 mg/1 mlAMP     1
CC0001018430007A202100000027909400000027909421/12/20211623    3190333624042196419000034366500000269180000000000000                               INSPIROMETRO INCENTIVO RESPIRATORIO CAJ X 1 RSB BN EXENTO-DC.417/2020CAJ     1
CC0001018430007A202100000027909400000027909421/12/20211623    3190333624042196419000020042600000633850000000000000                                                                                       ASEPTOJERINGASIN     1
CC0001018430007A202100000027909400000027909421/12/20211623    31903336240421964190000A03F0300001626860000000000000                                                                   METOCLOPRAMIDA SLN INY 10 MG/2 MLAMP     1
CC0001018430007A202100000027909400000027909421/12/20211623    31903336240421964190000H02AB500001664950000000000000                                                            DEXAMETASONA SLN INY 8 MG/2 ML AMP /CDS/AMP     1
CC0001018430007A202100000027909400000027909421/12/20211623    31903336240421964190000A2BC0900000200150000000000000                                                                               ORAZOLE Sln Iny 40 mgCIN     1
CC0001018430007A202100000027909400000027909421/12/20211623    3190333624042196419000017575000000232660000000000000                                                                             PROLENE 3-0 SH/SH 8522TSIN     1
CC0001018430007A202100000027909400000027909421/12/20211623    31903336240421964190000M1AX0200001569410000000000000                                                                         KETRON SLN INY 30 MG / 2 MLAMP     2
