CE0000000233794H202100015042541700015042541713/12/20210111    3150021323742196425000030936900001431840000000000000                                                                                              BURETABOL     1
CC0000010494956H202100015042541700015042541713/12/20210111    3150021323742196425000030936900001431840000000000000                                                                                              BURETABOL     1
RC0001146543342H202100015042541700015042541713/12/20210111    3150021323742196425000030936900001431840000000000000                                                                                              BURETABOL     1
CC0001002134630H202100015042541700015042541713/12/20210111    3150021323742196425000030936900001431840000000000000                                                                                              BURETABOL     1
TI0001047048202H202100015042541700015042541713/12/20210111    3150021323742196425000030936900001431840000000000000                                                                                              BURETABOL     1
CC0001127949279H202100015042541700015042541713/12/20210111    31500213237421964250000Q1AA7300000610640000000000000                                                            CATETER PERIFE INTROCAN # 22G 4251628-04SIN     1
CE0000000233794H202100015042541700015042541713/12/20210111    3150021323742196425000001956000001620610000000000000                                                                      CONECTOR MICRO CLAVE LAT-MC100SOB     1
RC0001146543342H202100015042541700015042541713/12/20210111    3150021323742196425000001956000001620610000000000000                                                                      CONECTOR MICRO CLAVE LAT-MC100SOB     1
CC0001002134630H202100015042541700015042541713/12/20210111    3150021323742196425000001956000001620610000000000000                                                                      CONECTOR MICRO CLAVE LAT-MC100SOB     2
CC0001127949279H202100015042541700015042541713/12/20210111    3150021323742196425000001956000001620610000000000000                                                                      CONECTOR MICRO CLAVE LAT-MC100SOB     1
TI0001047048202H202100015042541700015042541713/12/20210111    3150021323742196425000001956000001620610000000000000                                                                      CONECTOR MICRO CLAVE LAT-MC100SOB     2
CC0000032632813H202100015042541700015042541713/12/20210111    3150021323742196425000001956000001620610000000000000                                                                      CONECTOR MICRO CLAVE LAT-MC100SOB     1
CC0001002134630H202100015042541700015042541713/12/20210111    3150021323742196425000043485100001618510000000000000                GUANTE QUIRURGICO DE LATEX REF 2D72N65X CAJ X 50 PROTEXIS  6.5 BN EXENTO-DC.417/2020SOB     4
TI0001047048202H202100015042541700015042541713/12/20210111    3150021323742196425000043485100001618510000000000000                GUANTE QUIRURGICO DE LATEX REF 2D72N65X CAJ X 50 PROTEXIS  6.5 BN EXENTO-DC.417/2020SOB     2
CC0000007411669H202100015042541700015042541713/12/20210111    3150021323742196425000043485100001618510000000000000                GUANTE QUIRURGICO DE LATEX REF 2D72N65X CAJ X 50 PROTEXIS  6.5 BN EXENTO-DC.417/2020SOB     2
CE0000000233794H202100015042541700015042541713/12/20210111    3150021323742196425000024674000001138340000000000000   JERINGA 3PARTES C/A 10ML REF JEHL005 CAJ X 100 ALFASAFE  21GX1 PULG 1/2 PULG BN EXENTO-DC.417/202PZA     2
CC0000010494956H202100015042541700015042541713/12/20210111    3150021323742196425000024674000001138340000000000000   JERINGA 3PARTES C/A 10ML REF JEHL005 CAJ X 100 ALFASAFE  21GX1 PULG 1/2 PULG BN EXENTO-DC.417/202PZA     3
RC0001146543342H202100015042541700015042541713/12/20210111    3150021323742196425000024674000001138340000000000000   JERINGA 3PARTES C/A 10ML REF JEHL005 CAJ X 100 ALFASAFE  21GX1 PULG 1/2 PULG BN EXENTO-DC.417/202PZA     7
CC0001002134630H202100015042541700015042541713/12/20210111    3150021323742196425000024674000001138340000000000000   JERINGA 3PARTES C/A 10ML REF JEHL005 CAJ X 100 ALFASAFE  21GX1 PULG 1/2 PULG BN EXENTO-DC.417/202PZA     5
CC0000022317998H202100015042541700015042541713/12/20210111    3150021323742196425000024674000001138340000000000000   JERINGA 3PARTES C/A 10ML REF JEHL005 CAJ X 100 ALFASAFE  21GX1 PULG 1/2 PULG BN EXENTO-DC.417/202PZA     2
RC0001043710353H202100015042541700015042541713/12/20210111    3150021323742196425000024674000001138340000000000000   JERINGA 3PARTES C/A 10ML REF JEHL005 CAJ X 100 ALFASAFE  21GX1 PULG 1/2 PULG BN EXENTO-DC.417/202PZA     4
TI0001047048202H202100015042541700015042541713/12/20210111    3150021323742196425000024674000001138340000000000000   JERINGA 3PARTES C/A 10ML REF JEHL005 CAJ X 100 ALFASAFE  21GX1 PULG 1/2 PULG BN EXENTO-DC.417/202PZA     4
CC0000032632813H202100015042541700015042541713/12/20210111    3150021323742196425000024674000001138340000000000000   JERINGA 3PARTES C/A 10ML REF JEHL005 CAJ X 100 ALFASAFE  21GX1 PULG 1/2 PULG BN EXENTO-DC.417/202PZA     1
TI0001081819374H202100015042541700015042541713/12/20210111    3150021323742196425000024674000001138340000000000000   JERINGA 3PARTES C/A 10ML REF JEHL005 CAJ X 100 ALFASAFE  21GX1 PULG 1/2 PULG BN EXENTO-DC.417/202PZA    10
CC0000007411669H202100015042541700015042541713/12/20210111    3150021323742196425000024674000001138340000000000000   JERINGA 3PARTES C/A 10ML REF JEHL005 CAJ X 100 ALFASAFE  21GX1 PULG 1/2 PULG BN EXENTO-DC.417/202PZA     4
CE0000000233794H202100015042541700015042541713/12/20210111    31500213237421964250000V07A1300000502600000000000000                                                                                AGUA ESTERIL x 10 mlAMP     2
CC0000010494956H202100015042541700015042541713/12/20210111    31500213237421964250000V07A1300000502600000000000000                                                                                AGUA ESTERIL x 10 mlAMP     3
RC0001146543342H202100015042541700015042541713/12/20210111    31500213237421964250000V07A1300000502600000000000000                                                                                AGUA ESTERIL x 10 mlAMP     7
CC0001002134630H202100015042541700015042541713/12/20210111    31500213237421964250000V07A1300000502600000000000000                                                                                AGUA ESTERIL x 10 mlAMP     5
CC0000022317998H202100015042541700015042541713/12/20210111    31500213237421964250000V07A1300000502600000000000000                                                                                AGUA ESTERIL x 10 mlAMP     2
RC0001043710353H202100015042541700015042541713/12/20210111    31500213237421964250000V07A1300000502600000000000000                                                                                AGUA ESTERIL x 10 mlAMP     4
TI0001047048202H202100015042541700015042541713/12/20210111    31500213237421964250000V07A1300000502600000000000000                                                                                AGUA ESTERIL x 10 mlAMP     4
CC0000032632813H202100015042541700015042541713/12/20210111    31500213237421964250000V07A1300000502600000000000000                                                                                AGUA ESTERIL x 10 mlAMP     1
TI0001081819374H202100015042541700015042541713/12/20210111    31500213237421964250000V07A1300000502600000000000000                                                                                AGUA ESTERIL x 10 mlAMP    10
CC0000007411669H202100015042541700015042541713/12/20210111    31500213237421964250000V07A1300000502600000000000000                                                                                AGUA ESTERIL x 10 mlAMP     4
CE0000000233794H202100015042541700015042541713/12/20210111    3150021323742196425000016830000000970620000000000000                                                             SIST FIJACION CAT PERIFERICO 6.5X7 1683SOB     1
RC0001146543342H202100015042541700015042541713/12/20210111    3150021323742196425000016830000000970620000000000000                                                             SIST FIJACION CAT PERIFERICO 6.5X7 1683SOB     1
CC0001127949279H202100015042541700015042541713/12/20210111    3150021323742196425000016830000000970620000000000000                                                             SIST FIJACION CAT PERIFERICO 6.5X7 1683SOB     1
CC0000032632813H202100015042541700015042541713/12/20210111    3150021323742196425000016830000000970620000000000000                                                             SIST FIJACION CAT PERIFERICO 6.5X7 1683SOB     1
CC0001002134630H202100015042541700015042541713/12/20210111    3150021323742196425000000602700001197200000000000000                                                              APOSITO TRANSP  1655 IV 8.5CM X 11.5CMSOB     1
RC0001146543342H202100015042541700015042541713/12/20210111    31500213237421964250000Q1AA7400003911720000000000000                                                            CATETER PERIFE INTROCAN # 24G 4251601-04SOB     1
CC0001127949279H202100015042541700015042541713/12/20210111    31500213237421964250000Q1AA7400003911720000000000000                                                            CATETER PERIFE INTROCAN # 24G 4251601-04SOB     1
CE0000000233794H202100015042541700015042541713/12/20210111    31500213237421964250000E1AB0300003888390000000000000                                                            SOLUCION SALINA 0.9% SLN INY BO X 500 MLBOL     2
CC0000010494956H202100015042541700015042541713/12/20210111    31500213237421964250000E1AB0300003888390000000000000                                                            SOLUCION SALINA 0.9% SLN INY BO X 500 MLBOL     2
CC0001002134630H202100015042541700015042541713/12/20210111    31500213237421964250000E1AB0300003888390000000000000                                                            SOLUCION SALINA 0.9% SLN INY BO X 500 MLBOL     1
CC0000022317998H202100015042541700015042541713/12/20210111    31500213237421964250000E1AB0300003888390000000000000                                                            SOLUCION SALINA 0.9% SLN INY BO X 500 MLBOL     1
CC0000032632813H202100015042541700015042541713/12/20210111    31500213237421964250000E1AB0300003888390000000000000                                                            SOLUCION SALINA 0.9% SLN INY BO X 500 MLBOL     2
TI0001081819374H202100015042541700015042541713/12/20210111    31500213237421964250000E1AB0300003888390000000000000                                                            SOLUCION SALINA 0.9% SLN INY BO X 500 MLBOL     2
CC0000007411669H202100015042541700015042541713/12/20210111    31500213237421964250000E1AB0300003888390000000000000                                                            SOLUCION SALINA 0.9% SLN INY BO X 500 MLBOL     2
CC0000010494956H202100015042541700015042541713/12/20210111    3150021323742196425000022426800001140510000000000000                                                                    EQUIPO MACROGOTEO BAXTER MRC0001SOB     1
TI0001081819374H202100015042541700015042541713/12/20210111    3150021323742196425000022426800001140510000000000000                                                                    EQUIPO MACROGOTEO BAXTER MRC0001SOB     1
CE0000000233794H202100015042541700015042541713/12/20210111    3150021323742196425000011082700001620070000000000000                                                               EQUIPO SET PRIMARIO C/CLAVE REF 14001BOL     1
CC0000010494956H202100015042541700015042541713/12/20210111    3150021323742196425000011082700001620070000000000000                                                               EQUIPO SET PRIMARIO C/CLAVE REF 14001BOL     1
RC0001146543342H202100015042541700015042541713/12/20210111    3150021323742196425000011082700001620070000000000000                                                               EQUIPO SET PRIMARIO C/CLAVE REF 14001BOL     1
CC0001002134630H202100015042541700015042541713/12/20210111    3150021323742196425000011082700001620070000000000000                                                               EQUIPO SET PRIMARIO C/CLAVE REF 14001BOL     2
TI0001047048202H202100015042541700015042541713/12/20210111    3150021323742196425000011082700001620070000000000000                                                               EQUIPO SET PRIMARIO C/CLAVE REF 14001BOL     2
CC0001002134630H202100015042541700015042541713/12/20210111    3150021323742196425000013077800000471960000000000000                                                             GASA NO TEJIDA EST 7.5 X 7.5 SOB X 3 UNSOB    14
TI0001047048202H202100015042541700015042541713/12/20210111    3150021323742196425000013077800000471960000000000000                                                             GASA NO TEJIDA EST 7.5 X 7.5 SOB X 3 UNSOB    10
CC0000007411669H202100015042541700015042541713/12/20210111    3150021323742196425000013077800000471960000000000000                                                             GASA NO TEJIDA EST 7.5 X 7.5 SOB X 3 UNSOB     4
CC0001127949279H202100015042541700015042541713/12/20210111    31500213237421964250000E1AD0200003888320000000000000                                                                              HARTMAN SLN INY 500 MLBOL     3
TI0001047048202H202100015042541700015042541713/12/20210111    31500213237421964250000E1AD0200003888320000000000000                                                                              HARTMAN SLN INY 500 MLBOL     2
