RC0001044671776H202100000556872600000556872613/12/20211453     330000923742196425000011808300000218190000000000000                                                   DORMICUM IV 50MG/10ML(5MG/ML) SOL INY  CAJ X 5AMPAMP     1
RC0001044671776H202100000556872600000556872613/12/20211255    31903307237421964250000E1AC0100000199400000000000000                                                                          SUERO MIXTO Sln Iny 500 mlBIN     1
RC0001044671776H202100000556872600000556872613/12/20211255    31903307237421964250000E1AB0700003888350000000000000                                                            SOLUCION SALINA 0.9% SLN INY BO X 250 MLBOL     1
RC0001044671776H202100000556872600000556872613/12/20211452     3300009237421964250000N03AG200001590870000000000000                                                            PROVALNOVA SLN INY 100MG/ML VIALX5ML /R/VAL     1
RC0001044671776H202100000556872600000556872613/12/20210628     3300009237421964250000N03AG200001590870000000000000                                                            PROVALNOVA SLN INY 100MG/ML VIALX5ML /R/VAL     1
RC0001044671776H202100000556872600000556872613/12/20210023     3300009237421964250000N03AG200001590870000000000000                                                            PROVALNOVA SLN INY 100MG/ML VIALX5ML /R/VAL     1
RC0001044671776H202100000556872600000556872613/12/20211453     3300009237421964250000N03AX200001063780000000000000                                                                      KEPPRA SLN INY 500 MG/5 ML /R/VAL     1
RC0001044671776H202100000556872600000556872613/12/20210023     3300009237421964250000N03AX200001063780000000000000                                                                      KEPPRA SLN INY 500 MG/5 ML /R/VAL     1
RC0001044671776H202100000556872600000556872613/12/20211131     3300009237421964250000C03C0100001672000000000000000                                                                       FUROSEMIDA SLN INY 20 MG/2 MLAMP     1
RC0001044671776H202100000556872600000556872613/12/20211453     3300009237421964250000N2BB0100001672010000000000000                                  DIPIRONA 1GR/2ML(0.5GR/ML) SOL INY INST CAJ X 100AMP X 2ML VITALISAMP     1
RC0001044671776H202100000556872600000556872613/12/20210629     3300009237421964250000N2BB0100001672010000000000000                                  DIPIRONA 1GR/2ML(0.5GR/ML) SOL INY INST CAJ X 100AMP X 2ML VITALISAMP     1
RC0001044671776H202100000556872600000556872613/12/20210023     3300009237421964250000N2BB0100001672010000000000000                                  DIPIRONA 1GR/2ML(0.5GR/ML) SOL INY INST CAJ X 100AMP X 2ML VITALISAMP     1
RC0001044671776H202100000556872600000556872613/12/20211131     3300009237421964250000A02BC700001684270000000000000                                                            OMEPRAZOL 40MG POLVO LIOFILIZADO AMPOLLAVAL     1
