RC0001240292997H202100000556552800000556552804/12/20211853     330001023742196425000011808300000218190000000000000                                                   DORMICUM IV 50MG/10ML(5MG/ML) SOL INY  CAJ X 5AMPAMP     1
RC0001240292997H202100000556552800000556552804/12/20211819     3300009237421964250000V3AB2200000614150000000000000                                                            GLUCONATO CALCIO SLN INY 10% AMP X 10 MLAPC     1
RC0001240292997H202100000556552800000556552804/12/20210618     3300009237421964250000V3AB2200000614150000000000000                                                            GLUCONATO CALCIO SLN INY 10% AMP X 10 MLAPC     1
RC0001240292997H202100000556552800000556552804/12/20211356    31500568237421964250000E1AC0100000199400000000000000                                                                          SUERO MIXTO Sln Iny 500 mlBIN     2
RC0001240292997H202100000556552800000556552804/12/20210618    31902960237421964250000E1AC0100000199400000000000000                                                                          SUERO MIXTO Sln Iny 500 mlBIN     1
RC0001240292997H202100000556552800000556552804/12/20211819     3300009237421964250000S2BA0200000468180000000000000                                                                   SOLU-MEDROL SLN INY 40 MG/ML  /R/VAL     1
RC0001240292997H202100000556552800000556552804/12/20211301     3300009237421964250000S2BA0200000468180000000000000                                                                   SOLU-MEDROL SLN INY 40 MG/ML  /R/VAL     1
RC0001240292997H202100000556552800000556552804/12/20210618     3300009237421964250000S2BA0200000468180000000000000                                                                   SOLU-MEDROL SLN INY 40 MG/ML  /R/VAL     1
RC0001240292997H202100000556552800000556552804/12/20210901     3300010237421964250000J1CA1100000954140000000000000                                                                    AMPICILINA AMP POLVO SLN INY 1 GVAL     4
RC0001240292997H202100000556552800000556552804/12/20210901     3300010237421964250000J01DB300000553200000000000000                                                                         CEFALOTINA SLN INY 1 G VIALVAL     1
RC0001240292997H202100000556552800000556552804/12/20210901     3300010237421964250000J1FA1600001247370000000000000                                                                  KLARICID POLVO LIOF SLN INY 500 MGVAL     1
RC0001240292997H202100000556552800000556552804/12/20210618     3300009237421964250000J1FA1600001247370000000000000                                                                  KLARICID POLVO LIOF SLN INY 500 MGVAL     1
RC0001240292997H202100000556552800000556552804/12/20211624    31903157237421964250000E1BA0100000198890000000000000                                                                   AGUA ESTERIL USP SLN INY X 500 MLBIN     1
RC0001240292997H202100000556552800000556552804/12/20211102     3300009237421964250000N1AH0200003906560000000000000                                                                     FENTANIL Iny 0.05 mg/ml x 10 mlAMP     1
RC0001240292997H202100000556552800000556552804/12/20210902     3300010237421964250000R3CA0100001051880000000000000                                                               ADRENALINA HCL SLN INY 1 MG / ML ECARAMP     5
RC0001240292997H202100000556552800000556552804/12/20210901     3300010237421964250000C03C0100001672000000000000000                                                                       FUROSEMIDA SLN INY 20 MG/2 MLAMP     1
RC0001240292997H202100000556552800000556552804/12/20210619     3300009237421964250000C03C0100001672000000000000000                                                                       FUROSEMIDA SLN INY 20 MG/2 MLAMP     1
RC0001240292997H202100000556552800000556552804/12/20211819     3300009237421964250000J01CR200000947130000000000000                                                              AMPICILINA /SULBACTAN POLVO LIOF 1.5 GAMP     1
RC0001240292997H202100000556552800000556552804/12/20211300     3300009237421964250000J01CR200000947130000000000000                                                              AMPICILINA /SULBACTAN POLVO LIOF 1.5 GAMP     1
RC0001240292997H202100000556552800000556552804/12/20210901     3300010237421964250000J01CR200000947130000000000000                                                              AMPICILINA /SULBACTAN POLVO LIOF 1.5 GAMP     1
RC0001240292997H202100000556552800000556552804/12/20210617     3300009237421964250000J01CR200000947130000000000000                                                              AMPICILINA /SULBACTAN POLVO LIOF 1.5 GAMP     1
RC0001240292997H202100000556552800000556552804/12/20211819     3300009237421964250000J01D1200001239960000000000000                                                                              CEFEPIME POLVO INY 1 GVAL     1
RC0001240292997H202100000556552800000556552804/12/20211444     3300010237421964250000J01D1200001239960000000000000                                                                              CEFEPIME POLVO INY 1 GVAL     2
RC0001240292997H202100000556552800000556552804/12/20211819     3300009237421964250000N2BB0100001672010000000000000                                  DIPIRONA 1GR/2ML(0.5GR/ML) SOL INY INST CAJ X 100AMP X 2ML VITALISAMP     1
RC0001240292997H202100000556552800000556552804/12/20210901     3300010237421964250000N2BB0100001672010000000000000                                  DIPIRONA 1GR/2ML(0.5GR/ML) SOL INY INST CAJ X 100AMP X 2ML VITALISAMP     1
RC0001240292997H202100000556552800000556552804/12/20210901     3300010237421964250000A02BC700001684270000000000000                                                            OMEPRAZOL 40MG POLVO LIOFILIZADO AMPOLLAVAL     1
RC0001240292997H202100000556552800000556552804/12/20211356    31500568237421964250000V07A1300000502600000000000000                                                                                AGUA ESTERIL x 10 mlAMP     3
