CC0000017065366H202100000556895700000556895713/12/20211250     3300009237421964250000A02B0600001277230000000000000                                                                                NEXIUM Tab 40 mg /R/TAB     1
CC0000017065366H202100000556895700000556895713/12/20211250     3300009237421964250000A3BB0200000512940000000000000                                                                          BUSCAPINA SIMPLE Iny 20 mgAMP     4
CC0000017065366H202100000556895700000556895713/12/20211431     3300009237421964250000A6AC0200001467010000000000000                                                             LACTULAX JARABE 66.7G/100ML SOX15ML /R/SOB     3
CC0000017065366H202100000556895700000556895713/12/20211250     3300009237421964250000C3DA0500001278910000000000000                                                                               GLUCOPHAGE TAB 850 MGTAB     3
CC0000017065366H202100000556895700000556895713/12/20211250     3300009237421964250000B1AB0200003939510000000000000                 ENOXAPARINA SODICA 40MG/0.4ML(100MG/ML) SOL INY INST CAJ X 2JERPREL X 0.4ML TECHDOWJRP     1
CC0000017065366H202100000556895700000556895713/12/20211353    31500566237421964250000E1AD0300000199490000000000000                                         LACTATO RINGER USP (HARTMANN)  SOL INY  BOL X 1000ML BAXTERBIN     2
CC0000017065366H202100000556895700000556895713/12/20211250     3300009237421964250000J01DA300001239950000000000000                                                            CEFAZOLINA SODICA POLVO LIOF SLN INY 1 GVAL     4
CC0000017065366H202100000556895700000556895713/12/20212204     3300003237421964250000M1AB0900001019600000000000000                                                                              VOLTAREN Sln Iny 75 mgAMP     1
CC0000017065366H202100000556895700000556895713/12/20211431     3300009237421964250000M01A0400001341250000000000000                                                                              DYNASTAT AMP 40 MG /R/VAL     1
CC0000017065366H202100000556895700000556895713/12/20211250     3300009237421964250000N2BE0100001276930000000000000                                                                                    DOLEX TAB 500 MGTAB     5
CC0000017065366H202100000556895700000556895713/12/20211353    31500566237421964250000E1BA0700000198910000000000000                                                                   UROMATIC Sln IRRIGACION X 3000 MLBIN     4
