CC0000003710447H202100000556547000000556547004/12/20212236     3300009237421964250000A4AD0200000202990000000000000                                                                     PLITICAN HCL Sln Iny 50 mg/2 mlAMP     1
CC0000003710447H202100000556547000000556547004/12/20210959     3300009237421964250000A6AG0100001107060000000000000                                                            ENEMA RECTAL FOSTATO SODIO BO X 133ML /RBOL     1
CC0000003710447H202100000556547000000556547004/12/20210151     3300009237421964250000A6AG0100001107060000000000000                                                            ENEMA RECTAL FOSTATO SODIO BO X 133ML /RBOL     1
CC0000003710447H202100000556547000000556547004/12/20210151     3300009237421964250000A06A1000001107070000000000000                                                                          TRAVAD SLN ORAL 133 ML /R/FCO     1
CC0000003710447H202100000556547000000556547004/12/20211333    31903290237421964250000V07A1300000502600000000000000                                                                                AGUA ESTERIL x 10 mlAMP     3
