CC0000007452098H202100000556548100000556548104/12/20210835     3300010237421964250000A02BC100001677520000000000000                                                                ESOMEPRAZOL POLVO LIOF INY 40 MG /R/VAL     1
CC0000007452098H202100000556548100000556548104/12/20210320     3300009237421964250000A02BC100001677520000000000000                                                                ESOMEPRAZOL POLVO LIOF INY 40 MG /R/VAL     1
CC0000007452098H202100000556548100000556548104/12/20210835     3300010237421964250000B1AB0200003939510000000000000                 ENOXAPARINA SODICA 40MG/0.4ML(100MG/ML) SOL INY INST CAJ X 2JERPREL X 0.4ML TECHDOWJRP     1
CC0000007452098H202100000556548100000556548104/12/20211247     3300009237421964250000S2BA1400000947290000000000000                                                            SOLU MEDROL POLVO SLN INY 500 MG/4 ML/R/VAL     1
CC0000007452098H202100000556548100000556548104/12/20210323     3300009237421964250000S2BA1400000947290000000000000                                                            SOLU MEDROL POLVO SLN INY 500 MG/4 ML/R/VAL     4
CC0000007452098H202100000556548100000556548104/12/20211247     3300009237421964250000H03AA500001315460000000000000                                                                                SYNTHROID TAB 50 MCGTAB     1
CC0000007452098H202100000556548100000556548104/12/20210320     3300009237421964250000H03AA500001315460000000000000                                                                                SYNTHROID TAB 50 MCGTAB     1
CC0000007452098H202100000556548100000556548104/12/20211114     3300009237421964250000N1BA1900000554750000000000000                                                                     ROXICAINA JALEA 2% TUBO X 30 MLTUB     1
CC0000007452098H202100000556548100000556548104/12/20210835     3300010237421964250000N02B1100001464120000000000000                                           PARACETAMOL EP 1000MG/100ML(10MG/ML) SOL INY  CAJ X 10FCOVAL     4
CC0000007452098H202100000556548100000556548104/12/20210320     3300009237421964250000N02B1100001464120000000000000                                           PARACETAMOL EP 1000MG/100ML(10MG/ML) SOL INY  CAJ X 10FCOVAL     1
CC0000007452098H202100000556548100000556548104/12/20210835     3300010237421964250000N03A0800001278440000000000000                                                                                LYRICA CAP 75 MG /R/CAP     1
CC0000007452098H202100000556548100000556548104/12/20212213     3300009237421964250000N03A1500001316220000000000000                                                                               LYRICA CAP 150 MG /R/CAP     1
