RC0001146546509H202100015012637000015012637013/12/20211209    3190327223742196425000001956000001620610000000000000                                                                      CONECTOR MICRO CLAVE LAT-MC100SOB     1
RC0001146546509H202100015012637000015012637013/12/20211209    3190327223742196425000000602600001259280000000000000                                                             APOSITO TEGADERM IV PD 1610 5CM X 5.7CMSOB     1
RC0001146546509H202100015012637000015012637013/12/20211209    31903272237421964250000Q1AA7400003911720000000000000                                                            CATETER PERIFE INTROCAN # 24G 4251601-04SOB     3
