CC0000022508934A202100000027861600000027861613/12/20210840    3190333624042196419000011085300001082140000000000000                                                                           GUANTE QUIRURGICO TALLA 8SOB     3
CC0000022508934A202100000027861600000027861613/12/20210840    31903336240421964190000A2BC0900000200150000000000000                                                                               ORAZOLE Sln Iny 40 mgCIN     1
CC0000022508934A202100000027861600000027861613/12/20210840    3190333624042196419000020059900000225180000000000000                                                              AGUJA SPINOCAN 26G X 3 1/2 PU  4502906SIN     1
CC0000022508934A202100000027861600000027861613/12/20210840    3190333624042196419000000601900000258430000000000000                                                            APOSITO OPSIT POST -OP 0714  25CM X 10CMSIN     1
CC0000022508934A202100000027861600000027861613/12/20210840    3190333624042196419000019487800001585180000000000000                                                                    VICRYL 1 PLUS 70 CM CT-1 VCP341HSOB     2
CC0000022508934A202100000027861600000027861613/12/20210840    3190333624042196419000015994600000632480000000000000                                                                          MONOCRYL 4-0 PS-2 45 Y496GSIN     1
CC0000022508934A202100000027861600000027861613/12/20210840    3190333624042196419000000502600000233300000000000000                                                            SUTURA CAPROFYL 2-0 90CM CON CT-1 CF923TSIN     1
CC0000022508934A202100000027861600000027861613/12/20210840    3190333624042196419000043879400001138170000000000000                                                                  HOJA BISTURI # 10 CSSB 10 01002000SOB     1
CC0000022508934A202100000027861600000027861613/12/20210840    3190333624042196419000030161400001459220000000000000                                                                       MANGUERA SUCCION 6 MM*3.1 MTSSOB     1
CC0000022508934A202100000027861600000027861613/12/20210840    3190333624042196419000045138000001413890000000000000                                                                       LAPIZ ELECTROBISTURI  SOB X 1SOB     1
CC0000022508934A202100000027861600000027861613/12/20210840    3190333624042196419000049059800000267410000000000000                                                                 MEDIA ANTIEMBOLICA TAL L 3634LF PARBOL     1
CC0000022508934A202100000027861600000027861613/12/20210840    31903336240421964190000J01DA300001239950000000000000                                                            CEFAZOLINA SODICA POLVO LIOF SLN INY 1 GVAL     2
CC0000022508934A202100000027861600000027861613/12/20210840    3190333624042196419000016830000000970620000000000000                                                             SIST FIJACION CAT PERIFERICO 6.5X7 1683SOB     1
CC0000022508934A202100000027861600000027861613/12/20210840    3190333624042196419000035356500003919000000000000000                                                                                        LLAVE 3 VIASSOB     1
CC0000022508934A202100000027861600000027861613/12/20210840    31903336240421964190000Q1AA7100000610620000000000000                                                            CATETER PERIFE INTROCAN # 18G 4251687-04SIN     1
CC0000022508934A202100000027861600000027861613/12/20210840    3190333624042196419000022425200000548240000000000000                       EXTENSION DE ANESTESIA REF 1139 SOB X 1 SHERLEG  ADULTO BN EXENTO-DC.417/2020SIN     1
CC0000022508934A202100000027861600000027861613/12/20210840    3190333624042196419000022426800001140510000000000000                                                                    EQUIPO MACROGOTEO BAXTER MRC0001SOB     1
CC0000022508934A202100000027861600000027861613/12/20210840    3190333624042196419000053300000000583500000000000000                                                               BOTA EXPRESS COMPRESOR VASCUL M 73012SIN     1
CC0000022508934A202100000027861600000027861613/12/20210840    3190333624042196419000000101000001101640000000000000                                                                  AGUJA DESECHABLE  23G X 1 1/2 PULGSOB     1
CC0000022508934A202100000027861600000027861613/12/20210840    3190333624042196419000011085200001585390000000000000                                                                       GUANTE QUIRURGICO TALLA 7 1/2SOB     1
CC0000022508934A202100000027861600000027861613/12/20210840    3190333624042196419000011085100001082120000000000000                                                                           GUANTE QUIRURGICO TALLA 7SOB     1
CC0000022508934A202100000027861600000027861613/12/20210840    3190333624042196419000043485100001618510000000000000                GUANTE QUIRURGICO DE LATEX REF 2D72N65X CAJ X 50 PROTEXIS  6.5 BN EXENTO-DC.417/2020SOB     6
CC0000022508934A202100000027861600000027861613/12/20210840    3190333624042196419000031188000000236790000000000000                                                                                     CISTOFLO ADULTOSIN     1
CC0000022508934A202100000027861600000027861613/12/20210840    3190333624042196419000038569900001124970000000000000                                                                              SONDA FOLEY #14 2 VIASSOB     1
CC0000022508934A202100000027861600000027861613/12/20210840    3190333624042196419000011073300001096420000000000000                                                                BOLSA DE SUCCION DE FLUIDOS x 2500mLBOL     1
CC0000022508934A202100000027861600000027861613/12/20210840    3190333624042196419000020750600000296780000000000000                                                                PLACA ELECTRO RETORNO PACIENTE E7506SIN     1
CC0000022508934A202100000027861600000027861613/12/20210840    3190333624042196419000038568100000258050000000000000                                                                         CANULA OXIGENO NASAL ADULTOSIN     1
CC0000022508934A202100000027861600000027861613/12/20210840    3190333624042196419000024673000001411210000000000000                                                                  JERINGA DESECHABLE 3 ML 21 X 1 1/2SOB     1
CC0000022508934A202100000027861600000027861613/12/20210840    3190333624042196419000024674000001138340000000000000   JERINGA 3PARTES C/A 10ML REF JEHL005 CAJ X 100 ALFASAFE  21GX1 PULG 1/2 PULG BN EXENTO-DC.417/202PZA     5
CC0000022508934A202100000027861600000027861613/12/20210840    3190333624042196419000024673600000222980000000000000                                                                     JERINGA DESECHABLE 5 ml 27*11/2SIN     2
CC0000022508934A202100000027861600000027861613/12/20210840    3190333624042196419000053074400000607910000000000000                                                               GASA ESTERIL 10*10 SOBRE X 3 UNIDADESSOB     4
CC0000022508934A202100000027861600000027861613/12/20210840    31903336240421964190000E1AB0300003888390000000000000                                                            SOLUCION SALINA 0.9% SLN INY BO X 500 MLBOL     5
CC0000022508934A202100000027861600000027861613/12/20210840    31903336240421964190000E1AB0200000199290000000000000                                                            SOLUCION SALINA 0.9% SLN INY BO X 100 MLBIN     1
CC0000022508934A202100000027861600000027861613/12/20210840    31903336240421964190000N1BA0500000647360000000000000                                                                  BUPIROP 0.5% PESADO SLN INY X 4 MLAPC     1
CC0000022508934A202100000027861600000027861613/12/20210840    31903336240421964190000N02B1100001464120000000000000                                           PARACETAMOL EP 1000MG/100ML(10MG/ML) SOL INY  CAJ X 10FCOVAL     1
CC0000022508934A202100000027861600000027861613/12/20210840    31903336240421964190000M01A0400001341250000000000000                                                                              DYNASTAT AMP 40 MG /R/VAL     1
CC0000022508934A202100000027861600000027861613/12/20210840    31903336240421964190000C01C0300001261020000000000000                                                               ETILEFRINA HCL SLN INY 10 MG/1 ML /R/AMP     1
CC0000022508934A202100000027861600000027861613/12/20210840    31903336240421964190000A4AD0200000202990000000000000                                                                     PLITICAN HCL Sln Iny 50 mg/2 mlAMP     1
CC0000022508934A202100000027861600000027861613/12/20210840    31903336240421964190000H02AB500001664950000000000000                                                            DEXAMETASONA SLN INY 8 MG/2 ML AMP /CDS/AMP     1
CC0000022508934A202100000027861600000027861613/12/20210840    31903336240421964190000N1BA2400001687720000000000000                                                    LIDOCAINA 2% SOL INY  CAJ X 50AMP X 10ML CORPAULAMP     1
CC0000022508934A202100000027861600000027861613/12/20210840    31903336240421964190000N2AA0100000301640000000000000                                                                            MORFINA Sln Iny 10 mg/mlAMP     1
CC0000022508934A202100000027861600000027861613/12/20210840    31903336240421964190000N1AH0200003906560000000000000                                                                     FENTANIL Iny 0.05 mg/ml x 10 mlAMP     1
