RC0001158469243U202100000556878800000556878813/12/20210553    31901806239421964320000E1AB0300003888390000000000000                                                            SOLUCION SALINA 0.9% SLN INY BO X 500 MLBOL     1
RC0001158469243U202100000556878800000556878813/12/20210304     3300004239421964320000N2BE1100000836430000000000000                                             ACETAMINOFEN 150MG/5ML(3%) JBE INST FCO X 60ML AMER GENCAJ     1
RC0001158469243U202100000556878800000556878813/12/20211209     3300010239421964320000J01CR200000947130000000000000                                                              AMPICILINA /SULBACTAN POLVO LIOF 1.5 GAMP     1
RC0001158469243U202100000556878800000556878813/12/20210304     3300004239421964320000J01CR200000947130000000000000                                                              AMPICILINA /SULBACTAN POLVO LIOF 1.5 GAMP     1
