RC0001048087093U202100050132038200050132038213/12/20211034    3190016323942196432000024673600000222980000000000000                                                                     JERINGA DESECHABLE 5 ml 27*11/2SIN     1
CC0000032623659U202100050132038200050132038213/12/20211034    3190016323942196432000024673600000222980000000000000                                                                     JERINGA DESECHABLE 5 ml 27*11/2SIN     1
RC0001046736516U202100050132038200050132038213/12/20211034    3190016323942196432000011048600000223020000000000000                                                                 JERINGA VACUNACION 3ML C/AGU 302542SIN     1
