CC0000007452098H202100000556888000000556888013/12/20211019     3300009237421964250000A02BC100001677520000000000000                                                                ESOMEPRAZOL POLVO LIOF INY 40 MG /R/VAL     1
CC0000007452098H202100000556888000000556888013/12/20211019     3300009237421964250000B1AB0200003939510000000000000                 ENOXAPARINA SODICA 40MG/0.4ML(100MG/ML) SOL INY INST CAJ X 2JERPREL X 0.4ML TECHDOWJRP     1
CC0000007452098H202100000556888000000556888013/12/20211454    31500526237421964250000E1AB0300003888390000000000000                                                            SOLUCION SALINA 0.9% SLN INY BO X 500 MLBOL     1
CC0000007452098H202100000556888000000556888013/12/20211019     3300009237421964250000H03AA500001315460000000000000                                                                                SYNTHROID TAB 50 MCGTAB     1
CC0000007452098H202100000556888000000556888013/12/20211635     3300009237421964250000J1CB1800001134180000000000000                                                                             TAZOCIN Polvo Iny 4.5 gVAL     1
CC0000007452098H202100000556888000000556888013/12/20211019     3300009237421964250000J1CB1800001134180000000000000                                                                             TAZOCIN Polvo Iny 4.5 gVAL     3
CC0000007452098H202100000556888000000556888013/12/20211018     3300009237421964250000N2BE0100001276930000000000000                                                                                    DOLEX TAB 500 MGTAB     8
CC0000007452098H202100000556888000000556888013/12/20211019     3300009237421964250000N03A1500001316220000000000000                                                                               LYRICA CAP 150 MG /R/CAP     2
