CC0001045720585U202100922280121000922280121010/12/20211846    3150039423942196432000011082700001620070000000000000                                                               EQUIPO SET PRIMARIO C/CLAVE REF 14001BOL     1
CC0001045720585U202100922280121000922280121010/12/20211846    3150039423942196432000024674000001138340000000000000   JERINGA 3PARTES C/A 10ML REF JEHL005 CAJ X 100 ALFASAFE  21GX1 PULG 1/2 PULG BN EXENTO-DC.417/202PZA     2
CC0001045720585U202100922280121000922280121010/12/20211846    3150039423942196432000030936900001431840000000000000                                                                                              BURETABOL     1
CC0001045720585U202100922280121000922280121010/12/20211846    3150039423942196432000001956000001620610000000000000                                                                      CONECTOR MICRO CLAVE LAT-MC100SOB     1
CC0001045720585U202100922280121000922280121010/12/20211846    31500394239421964320000Q1AA7100000610620000000000000                                                            CATETER PERIFE INTROCAN # 18G 4251687-04SIN     1
CC0001045720585U202100922280121000922280121010/12/20211846    31500394239421964320000E1AB0300003888390000000000000                                                            SOLUCION SALINA 0.9% SLN INY BO X 500 MLBOL     1
