TI0001066284726U202100050132041800050132041813/12/20211450    31901992239421964320000E1AB0200000199290000000000000                                                            SOLUCION SALINA 0.9% SLN INY BO X 100 MLBIN     1
CC0000079361035U202100050132041800050132041813/12/20211450    3190199223942196432000024673600000222980000000000000                                                                     JERINGA DESECHABLE 5 ml 27*11/2SIN     2
TI0001066284726U202100050132041800050132041813/12/20211450    3190199223942196432000016830000000970620000000000000                                                             SIST FIJACION CAT PERIFERICO 6.5X7 1683SOB     1
TI0001066284726U202100050132041800050132041813/12/20211450    3190199223942196432000011048600000223020000000000000                                                                 JERINGA VACUNACION 3ML C/AGU 302542SIN     1
