TI0001043003692H202100015052822400015052822413/12/20212125    3190249123742196425000030936900001431840000000000000                                                                                              BURETABOL     1
CC0001140873410H202100015052822400015052822413/12/20212125    3190249123742196425000030936900001431840000000000000                                                                                              BURETABOL     1
CC0000008880097H202100015052822400015052822413/12/20212125    3190249123742196425000030936900001431840000000000000                                                                                              BURETABOL     1
CC0000007460966H202100015052822400015052822413/12/20212125    3190249123742196425000030936900001431840000000000000                                                                                              BURETABOL     1
TI0001043003692H202100015052822400015052822413/12/20212125    3190249123742196425000011082700001620070000000000000                                                               EQUIPO SET PRIMARIO C/CLAVE REF 14001BOL     1
CC0001140873410H202100015052822400015052822413/12/20212125    3190249123742196425000011082700001620070000000000000                                                               EQUIPO SET PRIMARIO C/CLAVE REF 14001BOL     1
CC0000008880097H202100015052822400015052822413/12/20212125    3190249123742196425000011082700001620070000000000000                                                               EQUIPO SET PRIMARIO C/CLAVE REF 14001BOL     1
CC0000007460966H202100015052822400015052822413/12/20212125    3190249123742196425000011082700001620070000000000000                                                               EQUIPO SET PRIMARIO C/CLAVE REF 14001BOL     1
CC0000008880097H202100015052822400015052822413/12/20212125    31902491237421964250000B05X0100000199670000000000000                                                                ARTHROMATIC Sln IRRIGACION X 3000 mlBIN     3
TI0001043003692H202100015052822400015052822413/12/20212125    31902491237421964250000E1AD0300000199490000000000000                                         LACTATO RINGER USP (HARTMANN)  SOL INY  BOL X 1000ML BAXTERBIN     2
RC0001194715454H202100015052822400015052822413/12/20212125    31902491237421964250000E1AB0500003888400000000000000                                                              SOLUCION SALINA 0.9% SLN INY X 1000 MLBOL     1
CC0001140873410H202100015052822400015052822413/12/20212125    31902491237421964250000E1AB0500003888400000000000000                                                              SOLUCION SALINA 0.9% SLN INY X 1000 MLBOL     1
CC0000008880097H202100015052822400015052822413/12/20212125    31902491237421964250000E1AB0500003888400000000000000                                                              SOLUCION SALINA 0.9% SLN INY X 1000 MLBOL     2
CC0000007460966H202100015052822400015052822413/12/20212125    31902491237421964250000E1AB0500003888400000000000000                                                              SOLUCION SALINA 0.9% SLN INY X 1000 MLBOL     1
