TI0001139434005H202100000556552500000556552504/12/20212244    31903152237421964250000E1AD0300000199490000000000000                                         LACTATO RINGER USP (HARTMANN)  SOL INY  BOL X 1000ML BAXTERBIN     2
TI0001139434005H202100000556552500000556552504/12/20210615     3300009237421964250000A02BC700001684270000000000000                                                            OMEPRAZOL 40MG POLVO LIOFILIZADO AMPOLLAVAL     1
TI0001139434005H202100000556552500000556552504/12/20211359    31500568237421964250000V07A1300000502600000000000000                                                                                AGUA ESTERIL x 10 mlAMP     3
