PE0092982242303H202100015052822100015052822113/12/20211948    3190278823742196425000030936900001431840000000000000                                                                                              BURETABOL     1
CC0000032654127H202100015052822100015052822113/12/20211948    3190278823742196425000030936900001431840000000000000                                                                                              BURETABOL     1
CC0000032814946H202100015052822100015052822113/12/20211948    3190278823742196425000030936900001431840000000000000                                                                                              BURETABOL     1
CC0001129521229H202100015052822100015052822113/12/20211948    3190278823742196425000030936900001431840000000000000                                                                                              BURETABOL     1
PE0092982242303H202100015052822100015052822113/12/20211948    3190278823742196425000011082700001620070000000000000                                                               EQUIPO SET PRIMARIO C/CLAVE REF 14001BOL     1
CC0000032654127H202100015052822100015052822113/12/20211948    3190278823742196425000011082700001620070000000000000                                                               EQUIPO SET PRIMARIO C/CLAVE REF 14001BOL     1
