RC0001043494001U202100921277120300921277120303/12/20210652    3190201023942196432000011082700001620070000000000000                                                               EQUIPO SET PRIMARIO C/CLAVE REF 14001BOL     1
RC0001043494001U202100921277120300921277120303/12/20210652    3190201023942196432000024673000001411210000000000000                                                                  JERINGA DESECHABLE 3 ML 21 X 1 1/2SOB     2
RC0001043494001U202100921277120300921277120303/12/20210652    3190201023942196432000030936900001431840000000000000                                                                                              BURETABOL     1
RC0001043494001U202100921277120300921277120303/12/20210652    3190201023942196432000042743200003929860000000000000                   GASA ADHESIVA STRETCH REF 02038-00 ROL X 10MT FIXOMULL 15CM BN EXENTO-DC.417/2020CMT    15
RC0001043494001U202100921277120300921277120303/12/20210652    31902010239421964320000Q1AA7400003911720000000000000                                                            CATETER PERIFE INTROCAN # 24G 4251601-04SOB     1
RC0001043494001U202100921277120300921277120303/12/20210652    31902010239421964320000E1AD0200003888320000000000000                                                                              HARTMAN SLN INY 500 MLBOL     1
