CC0000011296908H202100000556911100000556911113/12/20212137     3300003237421964250000A3BA0100001109400000000000000                                                                          ATROPINA SLN INY 1 MG / MLAMP     1
CC0000011296908H202100000556911100000556911113/12/20212316    31903059237421964250000E1AB0200000199290000000000000                                                            SOLUCION SALINA 0.9% SLN INY BO X 100 MLBIN     5
CC0000011296908H202100000556911100000556911113/12/20212316    31903059237421964250000E1AB0500003888400000000000000                                                              SOLUCION SALINA 0.9% SLN INY X 1000 MLBOL     3
CC0000011296908H202100000556911100000556911113/12/20212136     3300003237421964250000C09CA400001277130000000000000                                                                                  LOSARTAN TAB 50 MGTAB     2
CC0000011296908H202100000556911100000556911113/12/20212136     3300003237421964250000J01DA300001239950000000000000                                                            CEFAZOLINA SODICA POLVO LIOF SLN INY 1 GVAL     3
CC0000011296908H202100000556911100000556911113/12/20212137     3300003237421964250000A03BB100003889180000000000000                                      HIOSCINA BUTIL BROMURO 20MG/ML SOL INY CAJ X 100AMP X 1ML RYANAMP     3
CC0000011296908H202100000556911100000556911113/12/20212136     3300003237421964250000H03AA200001391520000000000000                                                                            LEVOTIROXINA TAB 100 MCGTAB     1
