CC0000032776593H202100000556557800000556557804/12/20210842     330001023742196425000011808300000218190000000000000                                                   DORMICUM IV 50MG/10ML(5MG/ML) SOL INY  CAJ X 5AMPAMP    10
CC0000032776593H202100000556557800000556557804/12/20211439    31903059237421964250000E1AB0200000199290000000000000                                                            SOLUCION SALINA 0.9% SLN INY BO X 100 MLBIN     5
CC0000032776593H202100000556557800000556557804/12/20211114    31500561237421964250000E1AB0200000199290000000000000                                                            SOLUCION SALINA 0.9% SLN INY BO X 100 MLBIN     1
CC0000032776593H202100000556557800000556557804/12/20211439    31903059237421964250000E1AD0300000199490000000000000                                         LACTATO RINGER USP (HARTMANN)  SOL INY  BOL X 1000ML BAXTERBIN     3
CC0000032776593H202100000556557800000556557804/12/20211521     3300009237421964250000A12BA100000552980000000000000                                                            CLORURO POTASIO Sln Iny AMP 20 MEQ/10 MLAMP     2
CC0000032776593H202100000556557800000556557804/12/20211821    31903059237421964250000E1AA1400003888550000000000000                                                                         DEXTROSA 10% SLN INY 250 MLBOL     1
CC0000032776593H202100000556557800000556557804/12/20211821    31903059237421964250000E1AA0400003888560000000000000                                                                         DEXTROSA 10% SLN INY 500 MLBOL     1
CC0000032776593H202100000556557800000556557804/12/20210842     3300010237421964250000N1AH0200003906560000000000000                                                                     FENTANIL Iny 0.05 mg/ml x 10 mlAMP    10
CC0000032776593H202100000556557800000556557804/12/20210831     3300010237421964250000N2BE2200001252930000000000000                                                                             ACETAMINOFEN Tab 500 MGTAB     2
CC0000032776593H202100000556557800000556557804/12/20210831     3300010237421964250000N2BB0100001672010000000000000                                  DIPIRONA 1GR/2ML(0.5GR/ML) SOL INY INST CAJ X 100AMP X 2ML VITALISAMP     2
CC0000032776593H202100000556557800000556557804/12/20211521     3300009237421964250000N03AB200001168090000000000000                                                                       FENITOINA Sln Iny 250 mg/5 mlAMP     1
CC0000032776593H202100000556557800000556557804/12/20210830     3300010237421964250000N03AB200001168090000000000000                                                                       FENITOINA Sln Iny 250 mg/5 mlAMP     2
CC0000032776593H202100000556557800000556557804/12/20211439    31903059237421964250000V07A1300000502600000000000000                                                                                AGUA ESTERIL x 10 mlAMP     5
