TI0001047043249U202100050132048500050132048513/12/20212232    3150061723942196432000030936900001431840000000000000                                                                                              BURETABOL     1
TI0001047043249U202100050132048500050132048513/12/20212232    31500617239421964320000Q1AA7300000610640000000000000                                                            CATETER PERIFE INTROCAN # 22G 4251628-04SIN     1
TI0001047043249U202100050132048500050132048513/12/20212232    3150061723942196432000024673600000222980000000000000                                                                     JERINGA DESECHABLE 5 ml 27*11/2SIN     1
TI0001047043249U202100050132048500050132048513/12/20212232    3150061723942196432000016830000000970620000000000000                                                             SIST FIJACION CAT PERIFERICO 6.5X7 1683SOB     1
TI0001047043249U202100050132048500050132048513/12/20212232    3150061723942196432000011082700001620070000000000000                                                               EQUIPO SET PRIMARIO C/CLAVE REF 14001BOL     1
TI0001047043249U202100050132048500050132048513/12/20212232    31500617239421964320000E1AD0300000199490000000000000                                         LACTATO RINGER USP (HARTMANN)  SOL INY  BOL X 1000ML BAXTERBIN     1
