CC0000008530442H202100000556570100000556570104/12/20211451    31902940237421964250000N2AA0100000301640000000000000                                                                            MORFINA Sln Iny 10 mg/mlAMP     1
CC0000008530442H202100000556570100000556570104/12/20211451    31902940237421964250000N2BB0100001672010000000000000                                  DIPIRONA 1GR/2ML(0.5GR/ML) SOL INY INST CAJ X 100AMP X 2ML VITALISAMP     6
CC0000008530442H202100000556570100000556570104/12/20211451    31902940237421964250000N2AX0900001672040000000000000                                                                              TRAMADOL SLN INY 50 MGAMP     5
