RC0001044436459H202100015132533700015132533713/12/20211159    31902225237421964250000E1BA0100000198890000000000000                                                                   AGUA ESTERIL USP SLN INY X 500 MLBIN     1
RC0001044436459H202100015132533700015132533713/12/20211159    31902225237421964250000Q1A14600000258030000000000000                                                                     CANULA OXIGENO NEONATAL GAFITASSIN     1
RC0001044436459H202100015132533700015132533713/12/20211159    3190222523742196425000043995200000229010000000000000                                                               HUMIDIFICADOR PARA OXIGENO REF. H001BBOL     1
