CC0001082470270U202100921762120700921762120707/12/20210842    3190135523942196432000011048600000223020000000000000                                                                 JERINGA VACUNACION 3ML C/AGU 302542SIN     1
CC0001082470270U202100921762120700921762120707/12/20210842    3190135523942196432000024673600000222980000000000000                                                                     JERINGA DESECHABLE 5 ml 27*11/2SIN     1
CC0001082470270U202100921762120700921762120707/12/20211039    3150065723942196432000016830000000970620000000000000                                                             SIST FIJACION CAT PERIFERICO 6.5X7 1683SOB     1
CC0001082470270U202100921762120700921762120707/12/20211039    3150065723942196432000001956000001620610000000000000                                                                      CONECTOR MICRO CLAVE LAT-MC100SOB     1
CC0001082470270U202100921762120700921762120707/12/20211039    31500657239421964320000Q1AA7100000610620000000000000                                                            CATETER PERIFE INTROCAN # 18G 4251687-04SIN     1
CC0001082470270U202100921762120700921762120707/12/20211115    3150025823942196432000011048600000223020000000000000                                                                 JERINGA VACUNACION 3ML C/AGU 302542SIN     2
CC0001082470270U202100921762120700921762120707/12/20211115    3150025823942196432000011089300001083990000000000000                                                              GUANTE ESTERIL LATEX S/POLVO TALLA 7.5SOB     2
CC0001082470270U202100921762120700921762120707/12/20211115    3150025823942196432000013077800000471960000000000000                                                             GASA NO TEJIDA EST 7.5 X 7.5 SOB X 3 UNSOB     5
CC0001082470270U202100921762120700921762120707/12/20211115    3150025823942196432000017566200001585160000000000000                                                                  PROLENE 4-0 AZ 45 PS2 PRIME P8682TSOB     1
CC0001082470270U202100921762120700921762120707/12/20211115    31500258239421964320000E1AB0200000199290000000000000                                                            SOLUCION SALINA 0.9% SLN INY BO X 100 MLBIN     2
CC0001082470270U202100921762120700921762120707/12/20211136    3150025823942196432000022426800001140510000000000000                                                                    EQUIPO MACROGOTEO BAXTER MRC0001SOB     1
CC0001082470270U202100921762120700921762120707/12/20211136    3150025823942196432000024673600000222980000000000000                                                                     JERINGA DESECHABLE 5 ml 27*11/2SIN     1
