CC0000063298698H202100000556886400000556886413/12/20211901    31903260237421964250000E1AD0300000199490000000000000                                         LACTATO RINGER USP (HARTMANN)  SOL INY  BOL X 1000ML BAXTERBIN     1
CC0000063298698H202100000556886400000556886413/12/20210951     3300009237421964250000J01CR300003913920000000000000                                                     AUROTAZ-P (4+0.5)GR POLV INY CAJ X 1VIAL X 50MLVAL     3
CC0000063298698H202100000556886400000556886413/12/20211641     3300009237421964250000A03DH100001684240000000000000                                                            B HIOSCINA 20MG/DIPIRON 2.5G SLN INY 5MLAMP     1
CC0000063298698H202100000556886400000556886413/12/20210951     3300009237421964250000A03DH100001684240000000000000                                                            B HIOSCINA 20MG/DIPIRON 2.5G SLN INY 5MLAMP     2
CC0000063298698H202100000556886400000556886413/12/20210951     3300009237421964250000A02BC700001684270000000000000                                                            OMEPRAZOL 40MG POLVO LIOFILIZADO AMPOLLAVAL     1
CC0000063298698H202100000556886400000556886413/12/20211132    31903308237421964250000V07A1300000502600000000000000                                                                                AGUA ESTERIL x 10 mlAMP     8
