RC0001043934327H202100000556896300000556896313/12/20211816     330000923742196425000011808300000218190000000000000                                                   DORMICUM IV 50MG/10ML(5MG/ML) SOL INY  CAJ X 5AMPAMP     1
RC0001043934327H202100000556896300000556896313/12/20211814     330000923742196425000011808300000218190000000000000                                                   DORMICUM IV 50MG/10ML(5MG/ML) SOL INY  CAJ X 5AMPAMP     1
RC0001043934327H202100000556896300000556896313/12/20211816     3300009237421964250000A2BC0900000200150000000000000                                                                               ORAZOLE Sln Iny 40 mgCIN     1
RC0001043934327H202100000556896300000556896313/12/20211814     3300009237421964250000B02AA100001407470000000000000                                                                    CLINTRANEX SLN INY 500 MG / 5 MLAMP     2
RC0001043934327H202100000556896300000556896313/12/20211815     3300009237421964250000B2BA0400000215340000000000000                                                                    KONAKION ADULTO SLN INY 10 MG/MLAMP     4
RC0001043934327H202100000556896300000556896313/12/20211758    31903307237421964250000E1AC0100000199400000000000000                                                                          SUERO MIXTO Sln Iny 500 mlBIN     2
RC0001043934327H202100000556896300000556896313/12/20211803    31500475237421964250000E1AB0200000199290000000000000                                                            SOLUCION SALINA 0.9% SLN INY BO X 100 MLBIN     2
RC0001043934327H202100000556896300000556896313/12/20211924    31901668237421964250000E1AB0300003888390000000000000                                                            SOLUCION SALINA 0.9% SLN INY BO X 500 MLBOL     1
RC0001043934327H202100000556896300000556896313/12/20211758    31903307237421964250000E1AD0200003888320000000000000                                                                              HARTMAN SLN INY 500 MLBOL     1
RC0001043934327H202100000556896300000556896313/12/20211816     3300009237421964250000A12CA100001109460000000000000                                                              CLORURO SODIO SLN INY 2 MEQ/ML X 10 MLAMP     6
RC0001043934327H202100000556896300000556896313/12/20211815     3300009237421964250000A12BA100000552980000000000000                                                            CLORURO POTASIO Sln Iny AMP 20 MEQ/10 MLAMP     2
RC0001043934327H202100000556896300000556896313/12/20211758    31903307237421964250000B5BC0200003889280000000000000                                                                 OSMORIN MANITOL 20 % Bolsa X 500 mlBOL     2
RC0001043934327H202100000556896300000556896313/12/20211758    31903307237421964250000B05B1500001012750000000000000                                                                   SOLUCION SALINA 3% Sln Iny 500 mlBOL     2
RC0001043934327H202100000556896300000556896313/12/20211815     3300009237421964250000S2BA0200000468180000000000000                                                                   SOLU-MEDROL SLN INY 40 MG/ML  /R/VAL     2
RC0001043934327H202100000556896300000556896313/12/20211454     3300009237421964250000S2BA0200000468180000000000000                                                                   SOLU-MEDROL SLN INY 40 MG/ML  /R/VAL     2
RC0001043934327H202100000556896300000556896313/12/20211814     3300009237421964250000J1DA3100000187510000000000000                                                                           ROCEFIN Polvo SLN INY 1 GCIN     1
RC0001043934327H202100000556896300000556896313/12/20211454     3300009237421964250000J1DA3100000187510000000000000                                                                           ROCEFIN Polvo SLN INY 1 GCIN     2
RC0001043934327H202100000556896300000556896313/12/20211455     3300009237421964250000M03A1000000553280000000000000                                                                     VECURONIO BROMURO SLN INY 10 MGVAL     1
RC0001043934327H202100000556896300000556896313/12/20211454     3300009237421964250000M03A1000000553280000000000000                                                                     VECURONIO BROMURO SLN INY 10 MGVAL     2
RC0001043934327H202100000556896300000556896313/12/20211325     3300009237421964250000M03A1000000553280000000000000                                                                     VECURONIO BROMURO SLN INY 10 MGVAL     1
RC0001043934327H202100000556896300000556896313/12/20211814     3300009237421964250000N2BB0500000217140000000000000                                                                          NOVALGINA Sln Iny 1 g/2 mlAMP     2
RC0001043934327H202100000556896300000556896313/12/20211455     3300009237421964250000N02B1100001464120000000000000                                           PARACETAMOL EP 1000MG/100ML(10MG/ML) SOL INY  CAJ X 10FCOVAL     1
RC0001043934327H202100000556896300000556896313/12/20211454     3300009237421964250000N02B1100001464120000000000000                                           PARACETAMOL EP 1000MG/100ML(10MG/ML) SOL INY  CAJ X 10FCOVAL     1
RC0001043934327H202100000556896300000556896313/12/20211816     3300009237421964250000N3AB0700000554770000000000000                                                                          EPAMIN Sln Iny 250 mg/5 mlAMP     1
RC0001043934327H202100000556896300000556896313/12/20211456     3300009237421964250000N1AH0200003906560000000000000                                                                     FENTANIL Iny 0.05 mg/ml x 10 mlAMP     4
