CC0001063140117U202100000556894800000556894813/12/20211305     3300010239421964320000A04A0600001277030000000000000                                                                                      ONDAX TAB 8 MGTAB     1
CC0001063140117U202100000556894800000556894813/12/20211343    31500658239421964320000E1AB0300003888390000000000000                                                            SOLUCION SALINA 0.9% SLN INY BO X 500 MLBOL     1
CC0001063140117U202100000556894800000556894813/12/20211224     3300010239421964320000H02AB500001664950000000000000                                                            DEXAMETASONA SLN INY 8 MG/2 ML AMP /CDS/AMP     1
CC0001063140117U202100000556894800000556894813/12/20211229     3300010239421964320000N02B1100001464120000000000000                                           PARACETAMOL EP 1000MG/100ML(10MG/ML) SOL INY  CAJ X 10FCOVAL     1
