CC0000022265715H202100015012636700015012636713/12/20210937    3150019223742196425000024674500000322810000000000000                                                                   JERINGA DESECHABLE 20 ml 21*1 1/2SIN     3
CC0000022265715H202100015012636700015012636713/12/20210937    31500192237421964250000Q1A13500001689460000000000000                                           JERINGA PUNTA CATETER REF JESC001 CAJ X 25 ALFASAFE  60MLSOB     1
CC0000022675873H202100015012636700015012636713/12/20210937    3150019223742196425000024674000001138340000000000000   JERINGA 3PARTES C/A 10ML REF JEHL005 CAJ X 100 ALFASAFE  21GX1 PULG 1/2 PULG BN EXENTO-DC.417/202PZA     6
CC0001140898848H202100015012636700015012636713/12/20210937    3150019223742196425000024674000001138340000000000000   JERINGA 3PARTES C/A 10ML REF JEHL005 CAJ X 100 ALFASAFE  21GX1 PULG 1/2 PULG BN EXENTO-DC.417/202PZA     6
CC0000022265715H202100015012636700015012636713/12/20210937    3150019223742196425000024674000001138340000000000000   JERINGA 3PARTES C/A 10ML REF JEHL005 CAJ X 100 ALFASAFE  21GX1 PULG 1/2 PULG BN EXENTO-DC.417/202PZA     6
RC0001042865102H202100015012636700015012636713/12/20210937    3150019223742196425000024674000001138340000000000000   JERINGA 3PARTES C/A 10ML REF JEHL005 CAJ X 100 ALFASAFE  21GX1 PULG 1/2 PULG BN EXENTO-DC.417/202PZA     6
CC0001140898848H202100015012636700015012636713/12/20210937    3150019223742196425000011048600000223020000000000000                                                                 JERINGA VACUNACION 3ML C/AGU 302542SIN     6
RC0001042865102H202100015012636700015012636713/12/20210937    3150019223742196425000011048600000223020000000000000                                                                 JERINGA VACUNACION 3ML C/AGU 302542SIN     6
CC0000022265715H202100015012636700015012636713/12/20210937    3150019223742196425000011047900000223010000000000000                                                                            JERINGA X 1ML REF 302579SIN     6
