CC0001143122547H202100921100120400921100120404/12/20211159    3190062723742196425000016830000000970620000000000000                                                             SIST FIJACION CAT PERIFERICO 6.5X7 1683SOB     1
CC0001143122547H202100921100120400921100120404/12/20211159    31900627237421964250000Q1AA7300000610640000000000000                                                            CATETER PERIFE INTROCAN # 22G 4251628-04SIN     2
CC0001143122547H202100921100120400921100120404/12/20211159    3190062723742196425000001956000001620610000000000000                                                                      CONECTOR MICRO CLAVE LAT-MC100SOB     1
