CC0001032457058U202100923841122100923841122121/12/20211212    3190201023942196432000011082700001620070000000000000                                                               EQUIPO SET PRIMARIO C/CLAVE REF 14001BOL     1
CC0001032457058U202100923841122100923841122121/12/20211212    3190201023942196432000030936900001431840000000000000                                                                                              BURETABOL     1
CC0001032457058U202100923841122100923841122121/12/20211212    3190201023942196432000000602600001259280000000000000                                                             APOSITO TEGADERM IV PD 1610 5CM X 5.7CMSOB     1
CC0001032457058U202100923841122100923841122121/12/20211212    31902010239421964320000Q1AA7200000610630000000000000                                                            CATETER PERIFE INTROCAN # 20G 4251644-04SIN     1
CC0001032457058U202100923841122100923841122121/12/20211212    31902010239421964320000E1AB0300003888390000000000000                                                            SOLUCION SALINA 0.9% SLN INY BO X 500 MLBOL     2
