CC0000073575258A202100000027850600000027850609/12/20211816    3190333624042196419000015638600001533360000000000000                                                           MAQUINA AFEITAR   MINORA PAQ X 24 II PLUSPZA     1
CC0000073575258A202100000027850600000027850609/12/20211816    31903336240421964190000Q1AA3300001585140000000000000                                                                         APOSITO TEGADERM 10*12 1626SOB     1
CC0000073575258A202100000027850600000027850609/12/20211816    3190333624042196419000030825800000270990000000000000                                                                  ALGODON ESTERIL SOBRE X 3 TORUNDASPZA     4
CC0000073575258A202100000027850600000027850609/12/20211816    3190333624042196419000045138000001413890000000000000                                                                       LAPIZ ELECTROBISTURI  SOB X 1SOB     1
CC0000073575258A202100000027850600000027850609/12/20211816    3190333624042196419000017564700000232600000000000000                                                                               PROLENE 2-0 CT2 8411TSIN     1
CC0000073575258A202100000027850600000027850609/12/20211816    3190333624042196419000000504800004018100000000000000   SUTURA SINTETI ABSORBIBLE CT-2 REF J333H CAJ X 36 VICRYL 70CM - 2-0 VIOLETA BN EXENTO-DC.417/2020SOB     1
CC0000073575258A202100000027850600000027850609/12/20211816    3190333624042196419000015994600000632480000000000000                                                                          MONOCRYL 4-0 PS-2 45 Y496GSIN     1
CC0000073575258A202100000027850600000027850609/12/20211816    3190333624042196419000043879100001138200000000000000                                                                  HOJA BISTURI # 15 CSSB 15 01002003SOB     1
CC0000073575258A202100000027850600000027850609/12/20211816    3190333624042196419000022425200000548240000000000000                       EXTENSION DE ANESTESIA REF 1139 SOB X 1 SHERLEG  ADULTO BN EXENTO-DC.417/2020SIN     1
CC0000073575258A202100000027850600000027850609/12/20211816    3190333624042196419000035356500003919000000000000000                                                                                        LLAVE 3 VIASSOB     2
CC0000073575258A202100000027850600000027850609/12/20211816    31903336240421964190000Q1AA7100000610620000000000000                                                            CATETER PERIFE INTROCAN # 18G 4251687-04SIN     1
CC0000073575258A202100000027850600000027850609/12/20211816    3190333624042196419000022426800001140510000000000000                                                                    EQUIPO MACROGOTEO BAXTER MRC0001SOB     1
CC0000073575258A202100000027850600000027850609/12/20211816    3190333624042196419000016830000000970620000000000000                                                             SIST FIJACION CAT PERIFERICO 6.5X7 1683SOB     1
CC0000073575258A202100000027850600000027850609/12/20211816    31903336240421964190000J01DA300001239950000000000000                                                            CEFAZOLINA SODICA POLVO LIOF SLN INY 1 GVAL     2
CC0000073575258A202100000027850600000027850609/12/20211816    3190333624042196419000020750600000296780000000000000                                                                PLACA ELECTRO RETORNO PACIENTE E7506SIN     1
CC0000073575258A202100000027850600000027850609/12/20211816    3190333624042196419000053074400000607910000000000000                                                               GASA ESTERIL 10*10 SOBRE X 3 UNIDADESSOB     3
CC0000073575258A202100000027850600000027850609/12/20211816    3190333624042196419000011085300001082140000000000000                                                                           GUANTE QUIRURGICO TALLA 8SOB     2
CC0000073575258A202100000027850600000027850609/12/20211816    3190333624042196419000011085200001585390000000000000                                                                       GUANTE QUIRURGICO TALLA 7 1/2SOB     2
CC0000073575258A202100000027850600000027850609/12/20211816    3190333624042196419000011085100001082120000000000000                                                                           GUANTE QUIRURGICO TALLA 7SOB     2
CC0000073575258A202100000027850600000027850609/12/20211816    3190333624042196419000043485100001618510000000000000                GUANTE QUIRURGICO DE LATEX REF 2D72N65X CAJ X 50 PROTEXIS  6.5 BN EXENTO-DC.417/2020SOB     1
CC0000073575258A202100000027850600000027850609/12/20211816    3190333624042196419000051515500000598160000000000000                                                                            MASCARILLA ANESTESIA # 5SIN     1
CC0000073575258A202100000027850600000027850609/12/20211816    3190333624042196419000011099300000777780000000000000                                                                     FILTRO BACTERIANO VIRICO ADULTOBOL     1
CC0000073575258A202100000027850600000027850609/12/20211816    3190333624042196419000001200400000530690000000000000                                                                          CANULA DE MAYO # 5 (100MM)SIN     1
CC0000073575258A202100000027850600000027850609/12/20211816    3190333624042196419000020058100001101630000000000000                                                                     AGUJA HIPODERMICA DESECH 23 X 1SOB     1
CC0000073575258A202100000027850600000027850609/12/20211816    3190333624042196419000024674000001138340000000000000   JERINGA 3PARTES C/A 10ML REF JEHL005 CAJ X 100 ALFASAFE  21GX1 PULG 1/2 PULG BN EXENTO-DC.417/202PZA     3
CC0000073575258A202100000027850600000027850609/12/20211816    31903336240421964190000E1AD0200003888320000000000000                                                                              HARTMAN SLN INY 500 MLBOL     1
CC0000073575258A202100000027850600000027850609/12/20211816    31903336240421964190000E1AB0300003888390000000000000                                                            SOLUCION SALINA 0.9% SLN INY BO X 500 MLBOL     2
CC0000073575258A202100000027850600000027850609/12/20211816    31903336240421964190000E1AB0200000199290000000000000                                                            SOLUCION SALINA 0.9% SLN INY BO X 100 MLBIN     1
CC0000073575258A202100000027850600000027850609/12/20211816    31903336240421964190000N02B1100001464120000000000000                                           PARACETAMOL EP 1000MG/100ML(10MG/ML) SOL INY  CAJ X 10FCOVAL     1
CC0000073575258A202100000027850600000027850609/12/20211816    31903336240421964190000M1AX0200001569410000000000000                                                                         KETRON SLN INY 30 MG / 2 MLAMP     2
CC0000073575258A202100000027850600000027850609/12/20211816    31903336240421964190000N01A0400003939010000000000000                                               MAYOPROFOL 200MG/20ML(1%) EMUL INY CAJ X 1VIAL X 20MLVAL     1
CC0000073575258A202100000027850600000027850609/12/20211816    31903336240421964190000N01B0600003888900000000000000                                                    BUPINEST 75MG/10ML(0.75%) SOL INY CAJ X 24AMPACKAPC     1
