CC0001143162927U202100050132043500050132043513/12/20211641    3150036223942196432000030936900001431840000000000000                                                                                              BURETABOL     1
CC0001143162927U202100050132043500050132043513/12/20211641    3150036223942196432000024674000001138340000000000000   JERINGA 3PARTES C/A 10ML REF JEHL005 CAJ X 100 ALFASAFE  21GX1 PULG 1/2 PULG BN EXENTO-DC.417/202PZA     2
CC0001143162927U202100050132043500050132043513/12/20211641    31500362239421964320000Q1AA7100000610620000000000000                                                            CATETER PERIFE INTROCAN # 18G 4251687-04SIN     1
CC0001143162927U202100050132043500050132043513/12/20211641    3150036223942196432000011082700001620070000000000000                                                               EQUIPO SET PRIMARIO C/CLAVE REF 14001BOL     1
CC0001143162927U202100050132043500050132043513/12/20211641    31500362239421964320000E1AD0300000199490000000000000                                         LACTATO RINGER USP (HARTMANN)  SOL INY  BOL X 1000ML BAXTERBIN     1
