CC0001140839787H202100015112757900015112757913/12/20212219    31500672237421964250000Q1AA7300000610640000000000000                                                            CATETER PERIFE INTROCAN # 22G 4251628-04SIN     1
CC0001140839787H202100015112757900015112757913/12/20212219    3150067223742196425000001956000001620610000000000000                                                                      CONECTOR MICRO CLAVE LAT-MC100SOB     1
CC0001140839787H202100015112757900015112757913/12/20212219    31500672237421964250000Q1AA7200000610630000000000000                                                            CATETER PERIFE INTROCAN # 20G 4251644-04SIN     1
