RC0001240292997H202100178720121300178720121313/12/20210953    3190315723742196425000043995200000229010000000000000                                                               HUMIDIFICADOR PARA OXIGENO REF. H001BBOL     1
RC0001240292997H202100178720121300178720121313/12/20210953    31903157237421964250000Q1A11800000258040000000000000                                                                         CANULA OXIGENO NASAL PEDIATSIN     1
RC0001240292997H202100178720121300178720121313/12/20210956    3150047523742196425000043995200000229010000000000000                                                               HUMIDIFICADOR PARA OXIGENO REF. H001BBOL     1
RC0001240292997H202100178720121300178720121313/12/20210956    31500475237421964250000Q1A11800000258040000000000000                                                                         CANULA OXIGENO NASAL PEDIATSIN     1
RC0001240292997H202100178720121300178720121313/12/20211817    3150047523742196425000011042400001014710000000000000                                                                 MASCARA NO REINHALACION PEDIAT 1058BOL     1
