RC0001043934327U202100050132034200050132034213/12/20210244    31902171239421964320000E1BA0100000198890000000000000                                                                   AGUA ESTERIL USP SLN INY X 500 MLBIN     1
RC0001043934327U202100050132034200050132034213/12/20210244    3190217123942196432000030936900001431840000000000000                                                                                              BURETABOL     2
RC0001043934327U202100050132034200050132034213/12/20210244    31902171239421964320000E1AB0200000199290000000000000                                                            SOLUCION SALINA 0.9% SLN INY BO X 100 MLBIN     5
RC0001043934327U202100050132034200050132034213/12/20210244    3190217123942196432000001956000001620610000000000000                                                                      CONECTOR MICRO CLAVE LAT-MC100SOB     1
RC0001043934327U202100050132034200050132034213/12/20210244    3190217123942196432000024673600000222980000000000000                                                                     JERINGA DESECHABLE 5 ml 27*11/2SIN     2
RC0001043934327U202100050132034200050132034213/12/20210244    3190217123942196432000024674000001138340000000000000   JERINGA 3PARTES C/A 10ML REF JEHL005 CAJ X 100 ALFASAFE  21GX1 PULG 1/2 PULG BN EXENTO-DC.417/202PZA    10
RC0001043934327U202100050132034200050132034213/12/20210244    31902171239421964320000Q1AA5900000236800000000000000                                                                            CISTOFLO PEDIAT X 500 mlSIN     2
RC0001043934327U202100050132034200050132034213/12/20210244    31902171239421964320000Q1AA7400003911720000000000000                                                            CATETER PERIFE INTROCAN # 24G 4251601-04SOB     2
RC0001043934327U202100050132034200050132034213/12/20210244    31902171239421964320000E1AB0300003888390000000000000                                                            SOLUCION SALINA 0.9% SLN INY BO X 500 MLBOL     1
RC0001043934327U202100050132034200050132034213/12/20210244    31902171239421964320000E1AC0100000199400000000000000                                                                          SUERO MIXTO Sln Iny 500 mlBIN     1
RC0001043934327U202100050132034200050132034213/12/20210244    3190217123942196432000022426800001140510000000000000                                                                    EQUIPO MACROGOTEO BAXTER MRC0001SOB     2
RC0001043934327U202100050132034200050132034213/12/20210244    3190217123942196432000042743200003929860000000000000                   GASA ADHESIVA STRETCH REF 02038-00 ROL X 10MT FIXOMULL 15CM BN EXENTO-DC.417/2020CMT    15
RC0001043934327U202100050132034200050132034213/12/20210244    3190217123942196432000011047900000223010000000000000                                                                            JERINGA X 1ML REF 302579SIN     1
RC0001043934327U202100050132034200050132034213/12/20210244    3190217123942196432000038569700001124950000000000000                                                                              SONDA FOLEY #10 2 VIASSOB     1
RC0001043934327U202100050132034200050132034213/12/20210244    3190217123942196432000038572800000256850000000000000                                                                                 SONDA NSG LEVIN #12SIN     1
RC0001043934327U202100050132034200050132034213/12/20210244    3190217123942196432000011082700001620070000000000000                                                               EQUIPO SET PRIMARIO C/CLAVE REF 14001BOL     3
