TI0001043670391H202100015052822800015052822813/12/20212232    3150062423742196425000030936900001431840000000000000                                                                                              BURETABOL     1
RC0001187466818H202100015052822800015052822813/12/20212232    3150062423742196425000030936900001431840000000000000                                                                                              BURETABOL     1
CC0001193479674H202100015052822800015052822813/12/20212232    31500624237421964250000E1AB0300003888390000000000000                                                            SOLUCION SALINA 0.9% SLN INY BO X 500 MLBOL     1
CC0000003779763H202100015052822800015052822813/12/20212232    31500624237421964250000E1AB0300003888390000000000000                                                            SOLUCION SALINA 0.9% SLN INY BO X 500 MLBOL     1
CC0000008687030H202100015052822800015052822813/12/20212232    31500624237421964250000E1AB0300003888390000000000000                                                            SOLUCION SALINA 0.9% SLN INY BO X 500 MLBOL     1
TI0001103512693H202100015052822800015052822813/12/20212232    3150062423742196425000022426800001140510000000000000                                                                    EQUIPO MACROGOTEO BAXTER MRC0001SOB     1
TI0001043670391H202100015052822800015052822813/12/20212232    3150062423742196425000011082700001620070000000000000                                                               EQUIPO SET PRIMARIO C/CLAVE REF 14001BOL     1
RC0001187466818H202100015052822800015052822813/12/20212232    3150062423742196425000011082700001620070000000000000                                                               EQUIPO SET PRIMARIO C/CLAVE REF 14001BOL     1
TI0001043670391H202100015052822800015052822813/12/20212232    31500624237421964250000E1AD0300000199490000000000000                                         LACTATO RINGER USP (HARTMANN)  SOL INY  BOL X 1000ML BAXTERBIN     2
TI0001043117632H202100015052822800015052822813/12/20212232    31500624237421964250000E1AD0300000199490000000000000                                         LACTATO RINGER USP (HARTMANN)  SOL INY  BOL X 1000ML BAXTERBIN     1
