RC0001046737987U202100904655121600904655121616/12/20211216    3190319023942196432000011048600000223020000000000000                                                                 JERINGA VACUNACION 3ML C/AGU 302542SIN     2
RC0001046737987U202100904655121600904655121616/12/20211216    3190319023942196432000022426800001140510000000000000                                                                    EQUIPO MACROGOTEO BAXTER MRC0001SOB     1
RC0001046737987U202100904655121600904655121616/12/20211216    3190319023942196432000024674000001138340000000000000   JERINGA 3PARTES C/A 10ML REF JEHL005 CAJ X 100 ALFASAFE  21GX1 PULG 1/2 PULG BN EXENTO-DC.417/202PZA     2
RC0001046737987U202100904655121600904655121616/12/20211216    3190319023942196432000030936900001431840000000000000                                                                                              BURETABOL     1
RC0001046737987U202100904655121600904655121616/12/20211216    31903190239421964320000E1AC0100000199400000000000000                                                                          SUERO MIXTO Sln Iny 500 mlBIN     1
