RC0001043934327U202100050132035600050132035613/12/20210528    31902171239421964320000E1AB0200000199290000000000000                                                            SOLUCION SALINA 0.9% SLN INY BO X 100 MLBIN     1
RC0001043934327U202100050132035600050132035613/12/20210528    3190217123942196432000011085100001082120000000000000                                                                           GUANTE QUIRURGICO TALLA 7SOB     1
RC0001043934327U202100050132035600050132035613/12/20210528    3190217123942196432000024673600000222980000000000000                                                                     JERINGA DESECHABLE 5 ml 27*11/2SIN     2
RC0001043934327U202100050132035600050132035613/12/20210528    3190217123942196432000016830000000970620000000000000                                                             SIST FIJACION CAT PERIFERICO 6.5X7 1683SOB     1
RC0001043934327U202100050132035600050132035613/12/20210528    31902171239421964320000E1AB0300003888390000000000000                                                            SOLUCION SALINA 0.9% SLN INY BO X 500 MLBOL     1
RC0001043934327U202100050132035600050132035613/12/20210528    3190217123942196432000043879100001138200000000000000                                                                  HOJA BISTURI # 15 CSSB 15 01002003SOB     1
RC0001043934327U202100050132035600050132035613/12/20210528    3190217123942196432000022426800001140510000000000000                                                                    EQUIPO MACROGOTEO BAXTER MRC0001SOB     1
RC0001043934327U202100050132035600050132035613/12/20210528    3190217123942196432000013077800000471960000000000000                                                             GASA NO TEJIDA EST 7.5 X 7.5 SOB X 3 UNSOB     5
RC0001043934327U202100050132035600050132035613/12/20210528    3190217123942196432000011089300001083990000000000000                                                              GUANTE ESTERIL LATEX S/POLVO TALLA 7.5SOB     3
RC0001043934327U202100050132035600050132035613/12/20210528    3190217123942196432000021017400000227520000000000000                                                            KIT CAT BILUMEN PED CS14402E  4FR X 13CMSIN     1
RC0001043934327U202100050132035600050132035613/12/20210528    3190217123942196432000045136100001419300000000000000                                                                            LANCETA DEXTROMETER X UNPZA     1
RC0001043934327U202100050132035600050132035613/12/20210528    3190217123942196432000018351500000232840000000000000                                                                                    SEDA 2-0 KS 623HSIN     1
