CC0001044422249A202100000027869000000027869013/12/20210915    3190333624042196419000042743200003929860000000000000                   GASA ADHESIVA STRETCH REF 02038-00 ROL X 10MT FIXOMULL 15CM BN EXENTO-DC.417/2020CMT    30
CC0001044422249A202100000027869000000027869013/12/20210915    31903336240421964190000Q1A15500001690750000000000000                                                            AGUJA ESPINAL WHITACRE 27*3 1/2  4502027SOB     1
CC0001044422249A202100000027869000000027869013/12/20210915    31903336240421964190000N2AX0900001672040000000000000                                                                              TRAMADOL SLN INY 50 MGAMP     1
CC0001044422249A202100000027869000000027869013/12/20210915    31903336240421964190000H01B0400001680160000000000000                                                                       DURATOCIN AMP 100 MCG/ ML /R/VAL     1
CC0001044422249A202100000027869000000027869013/12/20210915    3190333624042196419000049059800000267410000000000000                                                                 MEDIA ANTIEMBOLICA TAL L 3634LF PARBOL     1
CC0001044422249A202100000027869000000027869013/12/20210915    3190333624042196419000045138000001413890000000000000                                                                       LAPIZ ELECTROBISTURI  SOB X 1SOB     1
CC0001044422249A202100000027869000000027869013/12/20210915    3190333624042196419000086220000000232640000000000000                                                              PROLENE 3/0 KS RECTA 8622H CIERRE PIELSIN     1
CC0001044422249A202100000027869000000027869013/12/20210915    3190333624042196419000011016600000231820000000000000                                                               SUTURA CATGUT CROMADO 1 CT1 90CM 925TSIN     1
CC0001044422249A202100000027869000000027869013/12/20210915    3190333624042196419000011017400000231840000000000000                                                                         CATGUT CROMADO 2-0 CT1 923TSIN     1
CC0001044422249A202100000027869000000027869013/12/20210915    3190333624042196419000000509900004005370000000000000         SUTURA ABSORBIBLE GS-21 REF CL-925 CAJ X 36 POLYSORB 90CM - 1 VIOLETA BN EXENTO-DC.417/2020SOB     1
CC0001044422249A202100000027869000000027869013/12/20210915    3190333624042196419000043879500001138210000000000000                                                                                    HOJA BISTURI #20SOB     1
CC0001044422249A202100000027869000000027869013/12/20210915    3190333624042196419000020816000001096410000000000000                                                                          LINER PARED DELGADA 1500CCBOL     1
CC0001044422249A202100000027869000000027869013/12/20210915    31903336240421964190000B2BA0300000215330000000000000                                                              KONAKION MM PEDIAT SLN INY 2 MG/0.2 MLAMP     1
CC0001044422249A202100000027869000000027869013/12/20210915    3190333624042196419000030161400001459220000000000000                                                                       MANGUERA SUCCION 6 MM*3.1 MTSSOB     2
CC0001044422249A202100000027869000000027869013/12/20210915    3190333624042196419000043879400001138170000000000000                                                                  HOJA BISTURI # 10 CSSB 10 01002000SOB     1
CC0001044422249A202100000027869000000027869013/12/20210915    31903336240421964190000Q1AA1000000256790000000000000                                                                         SONDA ASPIRACION CONTROL #8SIN     1
CC0001044422249A202100000027869000000027869013/12/20210915    3190333624042196419000072970000001147030000000000000                                                                                     CLAMP UMBILICALPZA     1
CC0001044422249A202100000027869000000027869013/12/20210915    3190333624042196419000013077800000471960000000000000                                                             GASA NO TEJIDA EST 7.5 X 7.5 SOB X 3 UNSOB     1
CC0001044422249A202100000027869000000027869013/12/20210915    3190333624042196419000022425200000548240000000000000                       EXTENSION DE ANESTESIA REF 1139 SOB X 1 SHERLEG  ADULTO BN EXENTO-DC.417/2020SIN     1
CC0001044422249A202100000027869000000027869013/12/20210915    3190333624042196419000035356500003919000000000000000                                                                                        LLAVE 3 VIASSOB     1
CC0001044422249A202100000027869000000027869013/12/20210915    3190333624042196419000022426800001140510000000000000                                                                    EQUIPO MACROGOTEO BAXTER MRC0001SOB     1
CC0001044422249A202100000027869000000027869013/12/20210915    3190333624042196419000038569900001124970000000000000                                                                              SONDA FOLEY #14 2 VIASSOB     1
CC0001044422249A202100000027869000000027869013/12/20210915    3190333624042196419000031188000000236790000000000000                                                                                     CISTOFLO ADULTOSIN     1
CC0001044422249A202100000027869000000027869013/12/20210915    3190333624042196419000020750600000296780000000000000                                                                PLACA ELECTRO RETORNO PACIENTE E7506SIN     1
CC0001044422249A202100000027869000000027869013/12/20210915    3190333624042196419000011047900000223010000000000000                                                                            JERINGA X 1ML REF 302579SIN     2
CC0001044422249A202100000027869000000027869013/12/20210915    3190333624042196419000024673600000222980000000000000                                                                     JERINGA DESECHABLE 5 ml 27*11/2SIN     3
CC0001044422249A202100000027869000000027869013/12/20210915    3190333624042196419000024674000001138340000000000000   JERINGA 3PARTES C/A 10ML REF JEHL005 CAJ X 100 ALFASAFE  21GX1 PULG 1/2 PULG BN EXENTO-DC.417/202PZA     4
CC0001044422249A202100000027869000000027869013/12/20210915    3190333624042196419000053074400000607910000000000000                                                               GASA ESTERIL 10*10 SOBRE X 3 UNIDADESSOB     4
CC0001044422249A202100000027869000000027869013/12/20210915    3190333624042196419000011085300001082140000000000000                                                                           GUANTE QUIRURGICO TALLA 8SOB     1
CC0001044422249A202100000027869000000027869013/12/20210915    3190333624042196419000011085200001585390000000000000                                                                       GUANTE QUIRURGICO TALLA 7 1/2SOB     1
CC0001044422249A202100000027869000000027869013/12/20210915    3190333624042196419000011085100001082120000000000000                                                                           GUANTE QUIRURGICO TALLA 7SOB     1
CC0001044422249A202100000027869000000027869013/12/20210915    3190333624042196419000043485100001618510000000000000                GUANTE QUIRURGICO DE LATEX REF 2D72N65X CAJ X 50 PROTEXIS  6.5 BN EXENTO-DC.417/2020SOB     5
CC0001044422249A202100000027869000000027869013/12/20210915    31903336240421964190000N1BA1900000554750000000000000                                                                     ROXICAINA JALEA 2% TUBO X 30 MLTUB     1
CC0001044422249A202100000027869000000027869013/12/20210915    3190333624042196419000011073300001096420000000000000                                                                BOLSA DE SUCCION DE FLUIDOS x 2500mLBOL     1
CC0001044422249A202100000027869000000027869013/12/20210915    31903336240421964190000E1AB0300003888390000000000000                                                            SOLUCION SALINA 0.9% SLN INY BO X 500 MLBOL     3
CC0001044422249A202100000027869000000027869013/12/20210915    31903336240421964190000E1AB0200000199290000000000000                                                            SOLUCION SALINA 0.9% SLN INY BO X 100 MLBIN     1
CC0001044422249A202100000027869000000027869013/12/20210915    31903336240421964190000N1BA0500000647360000000000000                                                                  BUPIROP 0.5% PESADO SLN INY X 4 MLAPC     1
CC0001044422249A202100000027869000000027869013/12/20210915    31903336240421964190000A03F0300001626860000000000000                                                                   METOCLOPRAMIDA SLN INY 10 MG/2 MLAMP     1
CC0001044422249A202100000027869000000027869013/12/20210915    31903336240421964190000M01A2000001664970000000000000                                                               DICLOFENACO SODICO SLN INY 75 MG/3 MLAMP     1
CC0001044422249A202100000027869000000027869013/12/20210915    31903336240421964190000H02A0100001664960000000000000                                                                        DEXAMETASONA SLN INY 4 MG/MLAMP     2
CC0001044422249A202100000027869000000027869013/12/20210915    31903336240421964190000N2BB0100001672010000000000000                                  DIPIRONA 1GR/2ML(0.5GR/ML) SOL INY INST CAJ X 100AMP X 2ML VITALISAMP     3
