TI0001043150321A202100000027863900000027863913/12/20211058    31903336240421964190000N1AX0100003889000000000000000                                                                       KETAMINA Iny 50 mg/ml x 10 mlVAL     1
TI0001043150321A202100000027863900000027863913/12/20211058    3190333624042196419000011082700001620070000000000000                                                               EQUIPO SET PRIMARIO C/CLAVE REF 14001BOL     1
TI0001043150321A202100000027863900000027863913/12/20211058    31903336240421964190000Q1AA7200000610630000000000000                                                            CATETER PERIFE INTROCAN # 20G 4251644-04SIN     2
TI0001043150321A202100000027863900000027863913/12/20211058    31903336240421964190000E1AD0200003888320000000000000                                                                              HARTMAN SLN INY 500 MLBOL     1
TI0001043150321A202100000027863900000027863913/12/20211058    3190333624042196419000022425200000548240000000000000                       EXTENSION DE ANESTESIA REF 1139 SOB X 1 SHERLEG  ADULTO BN EXENTO-DC.417/2020SIN     1
TI0001043150321A202100000027863900000027863913/12/20211058    3190333624042196419000035356500003919000000000000000                                                                                        LLAVE 3 VIASSOB     2
TI0001043150321A202100000027863900000027863913/12/20211058    3190333624042196419000016830000000970620000000000000                                                             SIST FIJACION CAT PERIFERICO 6.5X7 1683SOB     1
TI0001043150321A202100000027863900000027863913/12/20211058    31903336240421964190000J01DA300001239950000000000000                                                            CEFAZOLINA SODICA POLVO LIOF SLN INY 1 GVAL     1
TI0001043150321A202100000027863900000027863913/12/20211058    3190333624042196419000048657700000223550000000000000                                                                  CAMPO QUIRUR STERI  DRAPE REF 1015SIN     1
TI0001043150321A202100000027863900000027863913/12/20211058    3190333624042196419000012472400000232190000000000000                                                                 SUTURA ETHILON 2-0 SC-26 45CM  164TSIN     1
TI0001043150321A202100000027863900000027863913/12/20211058    31903336240421964190000B05X0100000199670000000000000                                                                ARTHROMATIC Sln IRRIGACION X 3000 mlBIN     2
TI0001043150321A202100000027863900000027863913/12/20211058    3190333624042196419000022424500000236720000000000000                                                                     EQUIPO EN Y IRRIGA ARC4005 4006SOB     1
TI0001043150321A202100000027863900000027863913/12/20211058    3190333624042196419000030161400001459220000000000000                                                                       MANGUERA SUCCION 6 MM*3.1 MTSSOB     1
TI0001043150321A202100000027863900000027863913/12/20211058    3190333624042196419000049419800001679910000000000000                                                                        VENDA ALGODON 6*5 NO ESTERILSOB     2
TI0001043150321A202100000027863900000027863913/12/20211058    3190333624042196419000049428500000738570000000000000                                                                       VENDA ELASTICA 6*5 NO ESTERILSOB     3
TI0001043150321A202100000027863900000027863913/12/20211058    3190333624042196419000043879200001138180000000000000                                                                                   HOJA BISTURI # 11SOB     1
TI0001043150321A202100000027863900000027863913/12/20211058    3190333624042196419000011073300001096420000000000000                                                                BOLSA DE SUCCION DE FLUIDOS x 2500mLBOL     1
TI0001043150321A202100000027863900000027863913/12/20211058    3190333624042196419000020750600000296780000000000000                                                                PLACA ELECTRO RETORNO PACIENTE E7506SIN     1
TI0001043150321A202100000027863900000027863913/12/20211058    3190333624042196419000053074400000607910000000000000                                                               GASA ESTERIL 10*10 SOBRE X 3 UNIDADESSOB     5
TI0001043150321A202100000027863900000027863913/12/20211058    3190333624042196419000024674000001138340000000000000   JERINGA 3PARTES C/A 10ML REF JEHL005 CAJ X 100 ALFASAFE  21GX1 PULG 1/2 PULG BN EXENTO-DC.417/202PZA     4
TI0001043150321A202100000027863900000027863913/12/20211058    3190333624042196419000024674500000322810000000000000                                                                   JERINGA DESECHABLE 20 ml 21*1 1/2SIN     1
TI0001043150321A202100000027863900000027863913/12/20211058    3190333624042196419000011085300001082140000000000000                                                                           GUANTE QUIRURGICO TALLA 8SOB     1
TI0001043150321A202100000027863900000027863913/12/20211058    3190333624042196419000011085200001585390000000000000                                                                       GUANTE QUIRURGICO TALLA 7 1/2SOB     1
TI0001043150321A202100000027863900000027863913/12/20211058    3190333624042196419000011085100001082120000000000000                                                                           GUANTE QUIRURGICO TALLA 7SOB     2
TI0001043150321A202100000027863900000027863913/12/20211058    3190333624042196419000043485100001618510000000000000                GUANTE QUIRURGICO DE LATEX REF 2D72N65X CAJ X 50 PROTEXIS  6.5 BN EXENTO-DC.417/2020SOB     4
TI0001043150321A202100000027863900000027863913/12/20211058    3190333624042196419000051515500000598160000000000000                                                                            MASCARILLA ANESTESIA # 5SIN     1
TI0001043150321A202100000027863900000027863913/12/20211058    31903336240421964190000E1AB0300003888390000000000000                                                            SOLUCION SALINA 0.9% SLN INY BO X 500 MLBOL     1
TI0001043150321A202100000027863900000027863913/12/20211058    31903336240421964190000E1AB0200000199290000000000000                                                            SOLUCION SALINA 0.9% SLN INY BO X 100 MLBIN     1
TI0001043150321A202100000027863900000027863913/12/20211058    31903336240421964190000E1AB0700003888350000000000000                                                            SOLUCION SALINA 0.9% SLN INY BO X 250 MLBOL     1
TI0001043150321A202100000027863900000027863913/12/20211058    31903336240421964190000N02B1100001464120000000000000                                           PARACETAMOL EP 1000MG/100ML(10MG/ML) SOL INY  CAJ X 10FCOVAL     1
TI0001043150321A202100000027863900000027863913/12/20211058    31903336240421964190000A2BC0900000200150000000000000                                                                               ORAZOLE Sln Iny 40 mgCIN     1
TI0001043150321A202100000027863900000027863913/12/20211058    31903336240421964190000N2BB1100000217160000000000000                                                                      NOVALGINA Sln Iny 2.5 g x 5 mlAMP     1
TI0001043150321A202100000027863900000027863913/12/20211058    31903336240421964190000H02AB500001664950000000000000                                                            DEXAMETASONA SLN INY 8 MG/2 ML AMP /CDS/AMP     1
TI0001043150321A202100000027863900000027863913/12/20211058    31903336240421964190000N01A0400003939010000000000000                                               MAYOPROFOL 200MG/20ML(1%) EMUL INY CAJ X 1VIAL X 20MLVAL     1
TI0001043150321A202100000027863900000027863913/12/20211058    31903336240421964190000A3BA0100001109400000000000000                                                                          ATROPINA SLN INY 1 MG / MLAMP     1
TI0001043150321A202100000027863900000027863913/12/20211058    31903336240421964190000N1BA2400001687720000000000000                                                    LIDOCAINA 2% SOL INY  CAJ X 50AMP X 10ML CORPAULAMP     1
TI0001043150321A202100000027863900000027863913/12/20211058    31903336240421964190000N01B1200000220020000000000000                                                                        ROXICAINA 1% C/E Iny x 20 mlFCO     1
TI0001043150321A202100000027863900000027863913/12/20211058    31903336240421964190000N2AA0700001587170000000000000                                                                                 ULTIVA Sln Iny 2 mgVAL     1
