RC0001054096835U202100050132034000050132034013/12/20210224    3190180623942196432000030936900001431840000000000000                                                                                              BURETABOL     1
RC0001054096835U202100050132034000050132034013/12/20210224    3190180623942196432000024673000001411210000000000000                                                                  JERINGA DESECHABLE 3 ML 21 X 1 1/2SOB     1
RC0001054096835U202100050132034000050132034013/12/20210224    31901806239421964320000Q1AA7400003911720000000000000                                                            CATETER PERIFE INTROCAN # 24G 4251601-04SOB     1
RC0001054096835U202100050132034000050132034013/12/20210224    31901806239421964320000E1AB0300003888390000000000000                                                            SOLUCION SALINA 0.9% SLN INY BO X 500 MLBOL     1
RC0001054096835U202100050132034000050132034013/12/20210224    3190180623942196432000011082700001620070000000000000                                                               EQUIPO SET PRIMARIO C/CLAVE REF 14001BOL     1
RC0001054096835U202100050132034000050132034013/12/20210224    3190180623942196432000042743200003929860000000000000                   GASA ADHESIVA STRETCH REF 02038-00 ROL X 10MT FIXOMULL 15CM BN EXENTO-DC.417/2020CMT    15
