CC0000017065366A202100000027862300000027862313/12/20211713    31903336240421964190000E1AB0300003888390000000000000                                                            SOLUCION SALINA 0.9% SLN INY BO X 500 MLBOL     1
CC0000017065366A202100000027862300000027862313/12/20211713    31903336240421964190000N02BG100003889660000000000000                                                   ACUPAN 20MG/2ML(10MG/ML) SOL INY CAJ X 5AMP X 2MLAMP     1
CC0000017065366A202100000027862300000027862313/12/20211713    3190333624042196419000039175100001072060000000000000                                                                           TUBO ENDOTRAQUEAL C/B 7.5SOB     1
CC0000017065366A202100000027862300000027862313/12/20211713    3190333624042196419000070707000000516720000000000000                                                                JUEGO DESECHABLE CALENTAMIENTO L70NISIN     1
CC0000017065366A202100000027862300000027862313/12/20211713    3190333624042196419000018610600000607940000000000000                                                               SENSOR ADULTO XP MONITOR 006-186-0106SIN     1
CC0000017065366A202100000027862300000027862313/12/20211713    31903336240421964190000M3AC0600000720540000000000000                                                                         ESMERON SLN INY 50 MG /5 MLVAL     1
CC0000017065366A202100000027862300000027862313/12/20211713    3190333624042196419000045136100001419300000000000000                                                                            LANCETA DEXTROMETER X UNPZA     1
CC0000017065366A202100000027862300000027862313/12/20211713    3190333624042196419000011137100001419310000000000000                                                               TIRA GLUCOMETRIA FREESTYLE H OPTIUM .PZA     1
CC0000017065366A202100000027862300000027862313/12/20211713    31903336240421964190000A03F0300001626860000000000000                                                                   METOCLOPRAMIDA SLN INY 10 MG/2 MLAMP     1
CC0000017065366A202100000027862300000027862313/12/20211713    31903336240421964190000A2BC0900000200150000000000000                                                                               ORAZOLE Sln Iny 40 mgCIN     1
CC0000017065366A202100000027862300000027862313/12/20211713    3190333624042196419000049059800000267410000000000000                                                                 MEDIA ANTIEMBOLICA TAL L 3634LF PARBOL     1
CC0000017065366A202100000027862300000027862313/12/20211713    3190333624042196419000011099300000777780000000000000                                                                     FILTRO BACTERIANO VIRICO ADULTOBOL     1
CC0000017065366A202100000027862300000027862313/12/20211713    3190333624042196419000000102300000222960000000000000                                                                 JERINGA DESECHABLE SIN AGUJA X 20mLSIN     1
CC0000017065366A202100000027862300000027862313/12/20211713    31903336240421964190000E1BA0700000198910000000000000                                                                   UROMATIC Sln IRRIGACION X 3000 MLBIN     3
CC0000017065366A202100000027862300000027862313/12/20211713    3190333624042196419000011082600000265810000000000000                                                              EQUIPO IRRIGACION URINARIA REF MRC4002SOB     1
CC0000017065366A202100000027862300000027862313/12/20211713    3190333624042196419000038572000001123520000000000000                                                                              SONDA FOLEY #24 3 VIASSOB     1
CC0000017065366A202100000027862300000027862313/12/20211713    31903336240421964190000B05X0100000199670000000000000                                                                ARTHROMATIC Sln IRRIGACION X 3000 mlBIN    14
CC0000017065366A202100000027862300000027862313/12/20211713    3190333624042196419000022424500000236720000000000000                                                                     EQUIPO EN Y IRRIGA ARC4005 4006SOB     2
CC0000017065366A202100000027862300000027862313/12/20211713    31903336240421964190000N1BA1900000554750000000000000                                                                     ROXICAINA JALEA 2% TUBO X 30 MLTUB     2
CC0000017065366A202100000027862300000027862313/12/20211713    3190333624042196419000031188000000236790000000000000                                                                                     CISTOFLO ADULTOSIN     1
CC0000017065366A202100000027862300000027862313/12/20211713    3190333624042196419000030161400001459220000000000000                                                                       MANGUERA SUCCION 6 MM*3.1 MTSSOB     1
CC0000017065366A202100000027862300000027862313/12/20211713    3190333624042196419000022425200000548240000000000000                       EXTENSION DE ANESTESIA REF 1139 SOB X 1 SHERLEG  ADULTO BN EXENTO-DC.417/2020SIN     1
CC0000017065366A202100000027862300000027862313/12/20211713    3190333624042196419000035356500003919000000000000000                                                                                        LLAVE 3 VIASSOB     2
CC0000017065366A202100000027862300000027862313/12/20211713    3190333624042196419000024674000001138340000000000000   JERINGA 3PARTES C/A 10ML REF JEHL005 CAJ X 100 ALFASAFE  21GX1 PULG 1/2 PULG BN EXENTO-DC.417/202PZA     1
CC0000017065366A202100000027862300000027862313/12/20211713    31903336240421964190000Q1AA7100000610620000000000000                                                            CATETER PERIFE INTROCAN # 18G 4251687-04SIN     1
CC0000017065366A202100000027862300000027862313/12/20211713    3190333624042196419000022426800001140510000000000000                                                                    EQUIPO MACROGOTEO BAXTER MRC0001SOB     1
CC0000017065366A202100000027862300000027862313/12/20211713    3190333624042196419000016830000000970620000000000000                                                             SIST FIJACION CAT PERIFERICO 6.5X7 1683SOB     1
CC0000017065366A202100000027862300000027862313/12/20211713    31903336240421964190000J01DA300001239950000000000000                                                            CEFAZOLINA SODICA POLVO LIOF SLN INY 1 GVAL     2
CC0000017065366A202100000027862300000027862313/12/20211713    3190333624042196419000011082700001620070000000000000                                                               EQUIPO SET PRIMARIO C/CLAVE REF 14001BOL     2
CC0000017065366A202100000027862300000027862313/12/20211713    3190333624042196419000053074400000607910000000000000                                                               GASA ESTERIL 10*10 SOBRE X 3 UNIDADESSOB     2
CC0000017065366A202100000027862300000027862313/12/20211713    3190333624042196419000024673000001411210000000000000                                                                  JERINGA DESECHABLE 3 ML 21 X 1 1/2SOB     1
CC0000017065366A202100000027862300000027862313/12/20211713    3190333624042196419000024674500000322810000000000000                                                                   JERINGA DESECHABLE 20 ml 21*1 1/2SIN     2
CC0000017065366A202100000027862300000027862313/12/20211713    3190333624042196419000011085200001585390000000000000                                                                       GUANTE QUIRURGICO TALLA 7 1/2SOB     2
CC0000017065366A202100000027862300000027862313/12/20211713    3190333624042196419000011085100001082120000000000000                                                                           GUANTE QUIRURGICO TALLA 7SOB     4
CC0000017065366A202100000027862300000027862313/12/20211713    3190333624042196419000043485100001618510000000000000                GUANTE QUIRURGICO DE LATEX REF 2D72N65X CAJ X 50 PROTEXIS  6.5 BN EXENTO-DC.417/2020SOB     1
CC0000017065366A202100000027862300000027862313/12/20211713    3190333624042196419000000100600000223090000000000000                                                                      AGUJA DESECHABLE 18G X 1 1/2 PSIN     1
CC0000017065366A202100000027862300000027862313/12/20211713    31903336240421964190000E1AD0200003888320000000000000                                                                              HARTMAN SLN INY 500 MLBOL     3
CC0000017065366A202100000027862300000027862313/12/20211713    31903336240421964190000E1AB0200000199290000000000000                                                            SOLUCION SALINA 0.9% SLN INY BO X 100 MLBIN     1
CC0000017065366A202100000027862300000027862313/12/20211713    31903336240421964190000E1AB0700003888350000000000000                                                            SOLUCION SALINA 0.9% SLN INY BO X 250 MLBOL     1
CC0000017065366A202100000027862300000027862313/12/20211713    31903336240421964190000M01A0400001341250000000000000                                                                              DYNASTAT AMP 40 MG /R/VAL     1
CC0000017065366A202100000027862300000027862313/12/20211713    31903336240421964190000N02B1100001464120000000000000                                           PARACETAMOL EP 1000MG/100ML(10MG/ML) SOL INY  CAJ X 10FCOVAL     1
CC0000017065366A202100000027862300000027862313/12/20211713    31903336240421964190000H02AB500001664950000000000000                                                            DEXAMETASONA SLN INY 8 MG/2 ML AMP /CDS/AMP     2
CC0000017065366A202100000027862300000027862313/12/20211713    31903336240421964190000N01A0400003939010000000000000                                               MAYOPROFOL 200MG/20ML(1%) EMUL INY CAJ X 1VIAL X 20MLVAL     1
CC0000017065366A202100000027862300000027862313/12/20211713    31903336240421964190000N1BA2400001687720000000000000                                                    LIDOCAINA 2% SOL INY  CAJ X 50AMP X 10ML CORPAULAMP     2
CC0000017065366A202100000027862300000027862313/12/20211713    31903336240421964190000N2AA0700001587170000000000000                                                                                 ULTIVA Sln Iny 2 mgVAL     1
