CC0000072155925H202100015112758000015112758013/12/20212227    3190305923742196425000042743200003929860000000000000                   GASA ADHESIVA STRETCH REF 02038-00 ROL X 10MT FIXOMULL 15CM BN EXENTO-DC.417/2020CMT    70
CC0000072155925H202100015112758000015112758013/12/20212227    3190305923742196425000042743400003929880000000000000                                    CINTA ADHESIVA TRANSPARENT REF 72216-01 ROL X 10MT FIXOMULL 10CMCMT     1
CC0000011296908H202100015112758000015112758013/12/20212227    31903059237421964250000E1AB0500003888400000000000000                                                              SOLUCION SALINA 0.9% SLN INY X 1000 MLBOL     3
