TI0001066284726U202100000556884200000556884213/12/20211612    31901992239421964320000E1AB0200000199290000000000000                                                            SOLUCION SALINA 0.9% SLN INY BO X 100 MLBIN     1
TI0001066284726U202100000556884200000556884213/12/20211333     3300010239421964320000J01FF200003888100000000000000                                                                             EUROCLIN SLN INY 600 MGAMP     1
TI0001066284726U202100000556884200000556884213/12/20210905     3300010239421964320000N02B1100001464120000000000000                                           PARACETAMOL EP 1000MG/100ML(10MG/ML) SOL INY  CAJ X 10FCOVAL     1
TI0001066284726U202100000556884200000556884213/12/20211825     3300010239421964320000S01A0500000503250000000000000                                                                   GENTAMICINA 0.3 % Sln Oft x 10 mlFCO     1
