CC0000013887621H202100015112756100015112756113/12/20211059    3190010323742196425000011085100001082120000000000000                                                                           GUANTE QUIRURGICO TALLA 7SOB     5
CC0001129564191H202100015112756100015112756113/12/20211059    3190010323742196425000011085100001082120000000000000                                                                           GUANTE QUIRURGICO TALLA 7SOB     5
CC0000007479382H202100015112756100015112756113/12/20211059    3190010323742196425000011085100001082120000000000000                                                                           GUANTE QUIRURGICO TALLA 7SOB     5
CC0001143115935H202100015112756100015112756113/12/20211059    3190010323742196425000011085100001082120000000000000                                                                           GUANTE QUIRURGICO TALLA 7SOB     5
CC0000013887621H202100015112756100015112756113/12/20211059    3190010323742196425000024674000001138340000000000000   JERINGA 3PARTES C/A 10ML REF JEHL005 CAJ X 100 ALFASAFE  21GX1 PULG 1/2 PULG BN EXENTO-DC.417/202PZA     6
CC0001129564191H202100015112756100015112756113/12/20211059    3190010323742196425000024674000001138340000000000000   JERINGA 3PARTES C/A 10ML REF JEHL005 CAJ X 100 ALFASAFE  21GX1 PULG 1/2 PULG BN EXENTO-DC.417/202PZA     6
CC0000007479382H202100015112756100015112756113/12/20211059    3190010323742196425000024674000001138340000000000000   JERINGA 3PARTES C/A 10ML REF JEHL005 CAJ X 100 ALFASAFE  21GX1 PULG 1/2 PULG BN EXENTO-DC.417/202PZA     6
CC0001143115935H202100015112756100015112756113/12/20211059    3190010323742196425000024674000001138340000000000000   JERINGA 3PARTES C/A 10ML REF JEHL005 CAJ X 100 ALFASAFE  21GX1 PULG 1/2 PULG BN EXENTO-DC.417/202PZA     6
CC0000013887621H202100015112756100015112756113/12/20211059    3190010323742196425000013077800000471960000000000000                                                             GASA NO TEJIDA EST 7.5 X 7.5 SOB X 3 UNSOB     6
CC0001129564191H202100015112756100015112756113/12/20211059    3190010323742196425000013077800000471960000000000000                                                             GASA NO TEJIDA EST 7.5 X 7.5 SOB X 3 UNSOB     6
CC0000007479382H202100015112756100015112756113/12/20211059    3190010323742196425000013077800000471960000000000000                                                             GASA NO TEJIDA EST 7.5 X 7.5 SOB X 3 UNSOB     6
CC0000019490174H202100015112756100015112756113/12/20211059    3190010323742196425000013077800000471960000000000000                                                             GASA NO TEJIDA EST 7.5 X 7.5 SOB X 3 UNSOB     6
CC0001143115935H202100015112756100015112756113/12/20211059    3190010323742196425000013077800000471960000000000000                                                             GASA NO TEJIDA EST 7.5 X 7.5 SOB X 3 UNSOB     6
CC0000013887621H202100015112756100015112756113/12/20211059    3190010323742196425000036441300000236540000000000000                                                                    JERINGA 1 ML GASES ARTERIAL 9023SIN     8
CC0001129564191H202100015112756100015112756113/12/20211059    3190010323742196425000036441300000236540000000000000                                                                    JERINGA 1 ML GASES ARTERIAL 9023SIN     8
CC0000007479382H202100015112756100015112756113/12/20211059    3190010323742196425000036441300000236540000000000000                                                                    JERINGA 1 ML GASES ARTERIAL 9023SIN     8
CC0000019490174H202100015112756100015112756113/12/20211059    3190010323742196425000036441300000236540000000000000                                                                    JERINGA 1 ML GASES ARTERIAL 9023SIN     8
CC0001143115935H202100015112756100015112756113/12/20211059    3190010323742196425000036441300000236540000000000000                                                                    JERINGA 1 ML GASES ARTERIAL 9023SIN     8
CC0000050876695H202100015112756100015112756113/12/20211059    3190010323742196425000036441300000236540000000000000                                                                    JERINGA 1 ML GASES ARTERIAL 9023SIN     8
CC0000013887621H202100015112756100015112756113/12/20211059    3190010323742196425000022108000003906060000000000000                                                            SIST CERRAD ASPIRAC TRACH  22108-5 14 FRSOB     1
CC0001129564191H202100015112756100015112756113/12/20211059    3190010323742196425000022108000003906060000000000000                                                            SIST CERRAD ASPIRAC TRACH  22108-5 14 FRSOB     1
CC0000019490174H202100015112756100015112756113/12/20211059    3190010323742196425000022108000003906060000000000000                                                            SIST CERRAD ASPIRAC TRACH  22108-5 14 FRSOB     1
CC0001143115935H202100015112756100015112756113/12/20211059    3190010323742196425000022108000003906060000000000000                                                            SIST CERRAD ASPIRAC TRACH  22108-5 14 FRSOB     1
