CC0000019068414H202100921017120400921017120404/12/20210446    3190302323742196425000053074400000607910000000000000                                                               GASA ESTERIL 10*10 SOBRE X 3 UNIDADESSOB     6
CC0000019068414H202100921017120400921017120404/12/20211030    3190330323742196425000022426800001140510000000000000                                                                    EQUIPO MACROGOTEO BAXTER MRC0001SOB     1
CC0000019068414H202100921017120400921017120404/12/20211030    3190330323742196425000024674000001138340000000000000   JERINGA 3PARTES C/A 10ML REF JEHL005 CAJ X 100 ALFASAFE  21GX1 PULG 1/2 PULG BN EXENTO-DC.417/202PZA     6
CC0000019068414H202100921017120400921017120404/12/20211030    31903303237421964250000V07A1300000502600000000000000                                                                                AGUA ESTERIL x 10 mlAMP     5
CC0000019068414H202100921017120400921017120404/12/20211030    31903303237421964250000E1AB0200000199290000000000000                                                            SOLUCION SALINA 0.9% SLN INY BO X 100 MLBIN     1
CC0000019068414H202100921017120400921017120404/12/20212103    3190278723742196425000011082700001620070000000000000                                                               EQUIPO SET PRIMARIO C/CLAVE REF 14001BOL     1
CC0000019068414H202100921017120400921017120404/12/20212103    3190278723742196425000030936900001431840000000000000                                                                                              BURETABOL     1
