CC0001081809316U202100000557189700000557189720/12/20211813    31500347239421964320000A3BB0200000512940000000000000                                                                          BUSCAPINA SIMPLE Iny 20 mgAMP     1
CC0001081809316U202100000557189700000557189720/12/20211813    31500347239421964320000J1CB0600000468340000000000000                                                           UNASYN IM-IV (1+0.5)GR POLV INY INST VIALVAL     1
CC0001081809316U202100000557189700000557189720/12/20211813    31500347239421964320000N02B1100001464120000000000000                                           PARACETAMOL EP 1000MG/100ML(10MG/ML) SOL INY  CAJ X 10FCOVAL     1
