TI0001047048202H202100901046121300901046121313/12/20210125    3150021323742196425000011082700001620070000000000000                                                               EQUIPO SET PRIMARIO C/CLAVE REF 14001BOL     2
TI0001047048202H202100901046121300901046121313/12/20210125    3150021323742196425000013077800000471960000000000000                                                             GASA NO TEJIDA EST 7.5 X 7.5 SOB X 3 UNSOB    10
TI0001047048202H202100901046121300901046121313/12/20210125    3150021323742196425000030936900001431840000000000000                                                                                              BURETABOL     1
TI0001047048202H202100901046121300901046121313/12/20210125    3150021323742196425000043485100001618510000000000000                GUANTE QUIRURGICO DE LATEX REF 2D72N65X CAJ X 50 PROTEXIS  6.5 BN EXENTO-DC.417/2020SOB     2
TI0001047048202H202100901046121300901046121313/12/20210125    3150021323742196425000001956000001620610000000000000                                                                      CONECTOR MICRO CLAVE LAT-MC100SOB     2
