TI0001066284726U202100050132036700050132036713/12/20210900    3190199223942196432000030936900001431840000000000000                                                                                              BURETABOL     1
TI0001066284726U202100050132036700050132036713/12/20210900    31901992239421964320000Q1AA7300000610640000000000000                                                            CATETER PERIFE INTROCAN # 22G 4251628-04SIN     1
TI0001066284726U202100050132036700050132036713/12/20210900    3190199223942196432000001956000001620610000000000000                                                                      CONECTOR MICRO CLAVE LAT-MC100SOB     1
TI0001066284726U202100050132036700050132036713/12/20210900    3190199223942196432000016830000000970620000000000000                                                             SIST FIJACION CAT PERIFERICO 6.5X7 1683SOB     1
TI0001066284726U202100050132036700050132036713/12/20210900    3190199223942196432000011082700001620070000000000000                                                               EQUIPO SET PRIMARIO C/CLAVE REF 14001BOL     1
