CC0000008729778H202100015112755100015112755113/12/20210014    31500305237421964250000Q1AA7300000610640000000000000                                                            CATETER PERIFE INTROCAN # 22G 4251628-04SIN     1
CC0000008729778H202100015112755100015112755113/12/20210014    3150030523742196425000001956000001620610000000000000                                                                      CONECTOR MICRO CLAVE LAT-MC100SOB     1
CC0000008729778H202100015112755100015112755113/12/20210014    31500305237421964250000Q1AA7200000610630000000000000                                                            CATETER PERIFE INTROCAN # 20G 4251644-04SIN     2
CC0000008729778H202100015112755100015112755113/12/20210014    3150030523742196425000031188000000236790000000000000                                                                                     CISTOFLO ADULTOSIN     1
CC0000008729778H202100015112755100015112755113/12/20210014    31500305237421964250000Q1AA7100000610620000000000000                                                            CATETER PERIFE INTROCAN # 18G 4251687-04SIN     1
CC0000008729778H202100015112755100015112755113/12/20210014    3150030523742196425000022425200000548240000000000000                       EXTENSION DE ANESTESIA REF 1139 SOB X 1 SHERLEG  ADULTO BN EXENTO-DC.417/2020SIN     1
