CC0000022439712H202100000556565500000556565504/12/20211202     3300009237421964250000A2BC0900000200150000000000000                                                                               ORAZOLE Sln Iny 40 mgCIN     1
CC0000022439712H202100000556565500000556565504/12/20211438    31903290237421964250000E1AB0500003888400000000000000                                                              SOLUCION SALINA 0.9% SLN INY X 1000 MLBOL     3
CC0000022439712H202100000556565500000556565504/12/20211201     3300009237421964250000J01DA300001239950000000000000                                                            CEFAZOLINA SODICA POLVO LIOF SLN INY 1 GVAL     2
CC0000022439712H202100000556565500000556565504/12/20211202     3300009237421964250000M1AE2500000191550000000000000                                                            PROFENID POLVO LIOF SLN INY 100MG/2ML/R/AMP     2
CC0000022439712H202100000556565500000556565504/12/20211202     3300009237421964250000N2AX0500001204110000000000000                                                                          TRAMAL SLN INY 100 MG / MLAMP     2
CC0000022439712H202100000556565500000556565504/12/20211202     3300009237421964250000N02B1100001464120000000000000                                           PARACETAMOL EP 1000MG/100ML(10MG/ML) SOL INY  CAJ X 10FCOVAL     2
CC0000022439712H202100000556565500000556565504/12/20211536     3300009237421964250000N3AF0200001277730000000000000                                                                      TEGRETOL RETARD TAB 200 MG /R/GRA     1
CC0000022439712H202100000556565500000556565504/12/20211202     3300009237421964250000N3AF0200001277730000000000000                                                                      TEGRETOL RETARD TAB 200 MG /R/GRA     2
CC0000022439712H202100000556565500000556565504/12/20211438    31903290237421964250000V07A1300000502600000000000000                                                                                AGUA ESTERIL x 10 mlAMP     5
