CC0000022265715H202100000556885300000556885313/12/20210927     3300009237421964250000A7DA0100001303560000000000000                                                                                 LOPERAMIDA TAB 2 MGTAB     1
CC0000022265715H202100000556885300000556885313/12/20210926     3300009237421964250000A11GA400001337200000000000000                                                                               VITAMINA C Tab 500 mgTAB     2
CC0000022265715H202100000556885300000556885313/12/20210927     3300009237421964250000B1AB0200003939510000000000000                 ENOXAPARINA SODICA 40MG/0.4ML(100MG/ML) SOL INY INST CAJ X 2JERPREL X 0.4ML TECHDOWJRP     1
CC0000022265715H202100000556885300000556885313/12/20211737    31900995237421964250000E1AB0200000199290000000000000                                                            SOLUCION SALINA 0.9% SLN INY BO X 100 MLBIN     1
CC0000022265715H202100000556885300000556885313/12/20211121    31500192237421964250000E1AD0300000199490000000000000                                         LACTATO RINGER USP (HARTMANN)  SOL INY  BOL X 1000ML BAXTERBIN     1
CC0000022265715H202100000556885300000556885313/12/20210927     3300009237421964250000N03A0100001315290000000000000                                                                              LAMICTAL TAB 50 MG /R/TAB     1
CC0000022265715H202100000556885300000556885313/12/20210926     3300009237421964250000J01CR200000947130000000000000                                                              AMPICILINA /SULBACTAN POLVO LIOF 1.5 GAMP     8
CC0000022265715H202100000556885300000556885313/12/20210927     3300009237421964250000N2BE2200001252930000000000000                                                                             ACETAMINOFEN Tab 500 MGTAB     2
CC0000022265715H202100000556885300000556885313/12/20210927     3300009237421964250000A02BC700001684270000000000000                                                            OMEPRAZOL 40MG POLVO LIOFILIZADO AMPOLLAVAL     1
