CC0000091178991H202100000556886900000556886913/12/20212037     3300003237421964250000A6AG0100001107060000000000000                                                            ENEMA RECTAL FOSTATO SODIO BO X 133ML /RBOL     1
CC0000091178991H202100000556886900000556886913/12/20211001     3300009237421964250000B1AB0200003939510000000000000                 ENOXAPARINA SODICA 40MG/0.4ML(100MG/ML) SOL INY INST CAJ X 2JERPREL X 0.4ML TECHDOWJRP     2
CC0000091178991H202100000556886900000556886913/12/20212330    31500460237421964250000E1AB0300003888390000000000000                                                            SOLUCION SALINA 0.9% SLN INY BO X 500 MLBOL     1
CC0000091178991H202100000556886900000556886913/12/20211000     3300009237421964250000A12CC200000787470000000000000                                                                       MAGNESIO SULFATO Sobre x 15 gSOB     3
CC0000091178991H202100000556886900000556886913/12/20211627     3300009237421964250000J01A0200000833400000000000000                                                            TYGACIL 50MG POLV INY INST CAJA X 10VIALVAL     2
CC0000091178991H202100000556886900000556886913/12/20211000     3300009237421964250000J01DA300001239950000000000000                                                            CEFAZOLINA SODICA POLVO LIOF SLN INY 1 GVAL     3
CC0000091178991H202100000556886900000556886913/12/20211001     3300009237421964250000N2BE2400001313800000000000000                                                                           SINALGEN TAB 5/325 MG /R/TAB     3
CC0000091178991H202100000556886900000556886913/12/20211001     3300009237421964250000N02B1100001464120000000000000                                           PARACETAMOL EP 1000MG/100ML(10MG/ML) SOL INY  CAJ X 10FCOVAL     2
CC0000091178991H202100000556886900000556886913/12/20211001     3300009237421964250000N03A0800001278440000000000000                                                                                LYRICA CAP 75 MG /R/CAP     2
CC0000091178991H202100000556886900000556886913/12/20211000     3300009237421964250000N03A0800001278440000000000000                                                                                LYRICA CAP 75 MG /R/CAP     1
