CC0000005392263U202100153692121400153692121414/12/20211046    3150065723942196432000011082700001620070000000000000                                                               EQUIPO SET PRIMARIO C/CLAVE REF 14001BOL     1
CC0000005392263U202100153692121400153692121414/12/20211046    3150065723942196432000011089300001083990000000000000                                                              GUANTE ESTERIL LATEX S/POLVO TALLA 7.5SOB     1
CC0000005392263U202100153692121400153692121414/12/20211046    3150065723942196432000013077800000471960000000000000                                                             GASA NO TEJIDA EST 7.5 X 7.5 SOB X 3 UNSOB     5
CC0000005392263U202100153692121400153692121414/12/20211046    3150065723942196432000016830000000970620000000000000                                                             SIST FIJACION CAT PERIFERICO 6.5X7 1683SOB     2
CC0000005392263U202100153692121400153692121414/12/20211046    3150065723942196432000024674000001138340000000000000   JERINGA 3PARTES C/A 10ML REF JEHL005 CAJ X 100 ALFASAFE  21GX1 PULG 1/2 PULG BN EXENTO-DC.417/202PZA     2
CC0000005392263U202100153692121400153692121414/12/20211046    3150065723942196432000030936900001431840000000000000                                                                                              BURETABOL     1
CC0000005392263U202100153692121400153692121414/12/20211046    3150065723942196432000038568600000256960000000000000                                                                                   SONDA NELATON #14SIN     1
CC0000005392263U202100153692121400153692121414/12/20211046    31500657239421964320000Q1AA7300000610640000000000000                                                            CATETER PERIFE INTROCAN # 22G 4251628-04SIN     1
CC0000005392263U202100153692121400153692121414/12/20211046    31500657239421964320000E1AB0200000199290000000000000                                                            SOLUCION SALINA 0.9% SLN INY BO X 100 MLBIN     1
CC0000005392263U202100153692121400153692121414/12/20211046    3150065723942196432000001956000001620610000000000000                                                                      CONECTOR MICRO CLAVE LAT-MC100SOB     1
CC0000005392263U202100153692121400153692121414/12/20211046    31500657239421964320000Q1AA7200000610630000000000000                                                            CATETER PERIFE INTROCAN # 20G 4251644-04SIN     1
CC0000005392263U202100153692121400153692121414/12/20211046    31500657239421964320000E1AB0300003888390000000000000                                                            SOLUCION SALINA 0.9% SLN INY BO X 500 MLBOL     1
CC0000005392263U202100153692121400153692121414/12/20211046    31500657239421964320000E1AB0500003888400000000000000                                                              SOLUCION SALINA 0.9% SLN INY X 1000 MLBOL     1
CC0000005392263U202100153692121400153692121414/12/20211205    3150065723942196432000038568400000256940000000000000                                                                                   SONDA NELATON #10SIN     1
CC0000005392263U202100153692121400153692121414/12/20211459    31500657239421964320000E1AD0300000199490000000000000                                         LACTATO RINGER USP (HARTMANN)  SOL INY  BOL X 1000ML BAXTERBIN     1
