CC0000008729778H202100901663121300901663121313/12/20210046    3190182723742196425000031188000000236790000000000000                                                                                     CISTOFLO ADULTOSIN     1
CC0000008729778H202100901663121300901663121313/12/20210046    3190182723742196425000038570200001123300000000000000                                                                              SONDA FOLEY #20 2 VIASSOB     1
CC0000008729778H202100901663121300901663121313/12/20210402    31500305237421964250000Q1AA3300001585140000000000000                                                                         APOSITO TEGADERM 10*12 1626SOB     1
CC0000008729778H202100901663121300901663121313/12/20210922    3150030523742196425000011082700001620070000000000000                                                               EQUIPO SET PRIMARIO C/CLAVE REF 14001BOL     2
