TI0001011214689H202100015122554100015122554113/12/20211319    31901668237421964250000Q1AA7300000610640000000000000                                                            CATETER PERIFE INTROCAN # 22G 4251628-04SIN     4
RC0001043934327H202100015122554100015122554113/12/20211319    31901668237421964250000Q1AA7400003911720000000000000                                                            CATETER PERIFE INTROCAN # 24G 4251601-04SOB     3
TI0001011214689H202100015122554100015122554113/12/20211319    31901668237421964250000B05B1400001012740000000000000                                                                SOLUCION SALINA 0.45% Sln Iny 500 mlBOL     1
RC0001043934327H202100015122554100015122554113/12/20211319    31901668237421964250000B05B1400001012740000000000000                                                                SOLUCION SALINA 0.45% Sln Iny 500 mlBOL     1
TI0001011214689H202100015122554100015122554113/12/20211319    3190166823742196425000011051900000226360000000000000                                                               KIT TRANSDUCTOR SENCILLO S/VAMP PX260SOB     1
RC0001043934327H202100015122554100015122554113/12/20211319    3190166823742196425000011051900000226360000000000000                                                               KIT TRANSDUCTOR SENCILLO S/VAMP PX260SOB     1
