PE0092982242303H202100000556909200000556909213/12/20212149    31901634237421964250000E1AD0300000199490000000000000                                         LACTATO RINGER USP (HARTMANN)  SOL INY  BOL X 1000ML BAXTERBIN     1
PE0092982242303H202100000556909200000556909213/12/20211904     3300009237421964250000N2BB0200000513030000000000000                                                                           LISALGIL Sln Iny 2 g/5 mlAMP     3
PE0092982242303H202100000556909200000556909213/12/20211904     3300009237421964250000A03BB100003889180000000000000                                      HIOSCINA BUTIL BROMURO 20MG/ML SOL INY CAJ X 100AMP X 1ML RYANAMP     3
PE0092982242303H202100000556909200000556909213/12/20211905     3300009237421964250000J1KD0400000335010000000000000                                                                      GENTAMICINA SLN INY 80 MG/2 MLAMP     3
