CC0000027015544U202100923348121700923348121717/12/20211727    3150036223942196432000042743200003929860000000000000                   GASA ADHESIVA STRETCH REF 02038-00 ROL X 10MT FIXOMULL 15CM BN EXENTO-DC.417/2020CMT    15
CC0000027015544U202100923348121700923348121717/12/20211727    3150036223942196432000000602600001259280000000000000                                                             APOSITO TEGADERM IV PD 1610 5CM X 5.7CMSOB     1
CC0000027015544U202100923348121700923348121717/12/20211727    31500362239421964320000Q1AA7200000610630000000000000                                                            CATETER PERIFE INTROCAN # 20G 4251644-04SIN     1
