RC0001130296418U202100050132037800050132037813/12/20211001    3150036223942196432000030936900001431840000000000000                                                                                              BURETABOL     1
RC0001130296418U202100050132037800050132037813/12/20211001    3150036223942196432000001956000001620610000000000000                                                                      CONECTOR MICRO CLAVE LAT-MC100SOB     1
RC0001130296418U202100050132037800050132037813/12/20211001    3150036223942196432000024674000001138340000000000000   JERINGA 3PARTES C/A 10ML REF JEHL005 CAJ X 100 ALFASAFE  21GX1 PULG 1/2 PULG BN EXENTO-DC.417/202PZA     3
RC0001130296418U202100050132037800050132037813/12/20211001    3150036223942196432000000602600001259280000000000000                                                             APOSITO TEGADERM IV PD 1610 5CM X 5.7CMSOB     1
RC0001130296418U202100050132037800050132037813/12/20211001    31500362239421964320000Q1AA7400003911720000000000000                                                            CATETER PERIFE INTROCAN # 24G 4251601-04SOB     1
RC0001130296418U202100050132037800050132037813/12/20211001    31500362239421964320000E1AB0300003888390000000000000                                                            SOLUCION SALINA 0.9% SLN INY BO X 500 MLBOL     1
RC0001130296418U202100050132037800050132037813/12/20211001    3150036223942196432000011082700001620070000000000000                                                               EQUIPO SET PRIMARIO C/CLAVE REF 14001BOL     1
TI0001044623047U202100050132037800050132037813/12/20211001    31500362239421964320000Q1AA7300000610640000000000000                                                            CATETER PERIFE INTROCAN # 22G 4251628-04SIN     1
TI0001044623047U202100050132037800050132037813/12/20211001    3150036223942196432000001956000001620610000000000000                                                                      CONECTOR MICRO CLAVE LAT-MC100SOB     1
TI0001044623047U202100050132037800050132037813/12/20211001    3150036223942196432000016830000000970620000000000000                                                             SIST FIJACION CAT PERIFERICO 6.5X7 1683SOB     1
