RC0001043710353H202100015042542000015042542013/12/20211030    31902056237421964250000E1AB0700003888350000000000000                                                            SOLUCION SALINA 0.9% SLN INY BO X 250 MLBOL     3
RC0001043710353H202100015042542000015042542013/12/20211030    3190205623742196425000024674000001138340000000000000   JERINGA 3PARTES C/A 10ML REF JEHL005 CAJ X 100 ALFASAFE  21GX1 PULG 1/2 PULG BN EXENTO-DC.417/202PZA     3
CE0000000233794H202100015042542000015042542013/12/20211030    3190205623742196425000024673000001411210000000000000                                                                  JERINGA DESECHABLE 3 ML 21 X 1 1/2SOB     6
CC0000032632813H202100015042542000015042542013/12/20211030    3190205623742196425000024673000001411210000000000000                                                                  JERINGA DESECHABLE 3 ML 21 X 1 1/2SOB     6
CE0000000233794H202100015042542000015042542013/12/20211030    31902056237421964250000V07A1300000502600000000000000                                                                                AGUA ESTERIL x 10 mlAMP     6
CC0000032632813H202100015042542000015042542013/12/20211030    31902056237421964250000V07A1300000502600000000000000                                                                                AGUA ESTERIL x 10 mlAMP     6
CE0000000233794H202100015042542000015042542013/12/20211030    3190205623742196425000000100600000223090000000000000                                                                      AGUJA DESECHABLE 18G X 1 1/2 PSIN     6
RC0001043710353H202100015042542000015042542013/12/20211030    3190205623742196425000000100600000223090000000000000                                                                      AGUJA DESECHABLE 18G X 1 1/2 PSIN     5
CC0000032632813H202100015042542000015042542013/12/20211030    3190205623742196425000000100600000223090000000000000                                                                      AGUJA DESECHABLE 18G X 1 1/2 PSIN     6
RC0001043710353H202100015042542000015042542013/12/20211030    31902056237421964250000E1AB1100003888280000000000000                                                                        SOLUCION SALINA 0.9% X 50 mlBOL     1
RC0001043710353H202100015042542000015042542013/12/20211030    31902056237421964250000E1AA0800000322190000000000000                                                                          DEXTROSA 5% Sln Iny 250 mlBIN     2
RC0001043710353H202100015042542000015042542013/12/20211030    3190205623742196425000011082700001620070000000000000                                                               EQUIPO SET PRIMARIO C/CLAVE REF 14001BOL     6
CE0000000233794H202100015042542000015042542013/12/20211030    3190205623742196425000013077800000471960000000000000                                                             GASA NO TEJIDA EST 7.5 X 7.5 SOB X 3 UNSOB    12
RC0001043710353H202100015042542000015042542013/12/20211030    3190205623742196425000013077800000471960000000000000                                                             GASA NO TEJIDA EST 7.5 X 7.5 SOB X 3 UNSOB    10
CC0000032632813H202100015042542000015042542013/12/20211030    3190205623742196425000013077800000471960000000000000                                                             GASA NO TEJIDA EST 7.5 X 7.5 SOB X 3 UNSOB    12
CE0000000233794H202100015042542000015042542013/12/20211030    3190205623742196425000011085400001083360000000000000                                                                       GUANTE QUIRURGICO TALLA 8 1/2SOB     3
RC0001043710353H202100015042542000015042542013/12/20211030    3190205623742196425000011085400001083360000000000000                                                                       GUANTE QUIRURGICO TALLA 8 1/2SOB     2
CC0000032632813H202100015042542000015042542013/12/20211030    3190205623742196425000011085400001083360000000000000                                                                       GUANTE QUIRURGICO TALLA 8 1/2SOB     3
RC0001043710353H202100015042542000015042542013/12/20211030    3190205623742196425000024675000001585130000000000000                                                                    JERINGA DESECHABLE 50 ml S/AGUJASOB     2
