CC0000085451240U202100050132035800050132035813/12/20210604    3150024623942196432000016830000000970620000000000000                                                             SIST FIJACION CAT PERIFERICO 6.5X7 1683SOB     1
CC0000085451240U202100050132035800050132035813/12/20210604    31500246239421964320000Q1AA7200000610630000000000000                                                            CATETER PERIFE INTROCAN # 20G 4251644-04SIN     1
CC0000085451240U202100050132035800050132035813/12/20210604    3150024623942196432000011082700001620070000000000000                                                               EQUIPO SET PRIMARIO C/CLAVE REF 14001BOL     1
CC0000085451240U202100050132035800050132035813/12/20210604    31500246239421964320000E1AD0200003888320000000000000                                                                              HARTMAN SLN INY 500 MLBOL     1
