CC0001140853753A202100000027903500000027903520/12/20210735    31903336240421964190000J01FF200003888100000000000000                                                                             EUROCLIN SLN INY 600 MGAMP     1
CC0001140853753A202100000027903500000027903520/12/20210735    31903336240421964190000A02B1800001353400000000000000                                                                               CYTIL TAB 200 MCG /R/TAB     1
CC0001140853753A202100000027903500000027903520/12/20210735    31903336240421964190000E1AB0300003888390000000000000                                                            SOLUCION SALINA 0.9% SLN INY BO X 500 MLBOL     2
CC0001140853753A202100000027903500000027903520/12/20210735    3190333624042196419000022425200000548240000000000000                       EXTENSION DE ANESTESIA REF 1139 SOB X 1 SHERLEG  ADULTO BN EXENTO-DC.417/2020SIN     1
CC0001140853753A202100000027903500000027903520/12/20210735    3190333624042196419000035356500003919000000000000000                                                                                        LLAVE 3 VIASSOB     2
CC0001140853753A202100000027903500000027903520/12/20210735    3190333624042196419000024674000001138340000000000000   JERINGA 3PARTES C/A 10ML REF JEHL005 CAJ X 100 ALFASAFE  21GX1 PULG 1/2 PULG BN EXENTO-DC.417/202PZA     1
CC0001140853753A202100000027903500000027903520/12/20210735    31903336240421964190000Q1AA7100000610620000000000000                                                            CATETER PERIFE INTROCAN # 18G 4251687-04SIN     1
CC0001140853753A202100000027903500000027903520/12/20210735    3190333624042196419000022426800001140510000000000000                                                                    EQUIPO MACROGOTEO BAXTER MRC0001SOB     1
CC0001140853753A202100000027903500000027903520/12/20210735    3190333624042196419000016830000000970620000000000000                                                             SIST FIJACION CAT PERIFERICO 6.5X7 1683SOB     1
CC0001140853753A202100000027903500000027903520/12/20210735    3190333624042196419000035612600000332090000000000000                                                                              MASCARA OXIGENO ADULTOSIN     1
CC0001140853753A202100000027903500000027903520/12/20210735    3190333624042196419000031010900000762730000000000000                                                                          CANULA GUEDEL # 4 (100 MM)SOB     1
CC0001140853753A202100000027903500000027903520/12/20210735    3190333624042196419000053074400000607910000000000000                                                               GASA ESTERIL 10*10 SOBRE X 3 UNIDADESSOB     1
CC0001140853753A202100000027903500000027903520/12/20210735    3190333624042196419000011085100001082120000000000000                                                                           GUANTE QUIRURGICO TALLA 7SOB     2
CC0001140853753A202100000027903500000027903520/12/20210735    3190333624042196419000043485100001618510000000000000                GUANTE QUIRURGICO DE LATEX REF 2D72N65X CAJ X 50 PROTEXIS  6.5 BN EXENTO-DC.417/2020SOB     1
CC0001140853753A202100000027903500000027903520/12/20210735    3190333624042196419000024673600000222980000000000000                                                                     JERINGA DESECHABLE 5 ml 27*11/2SIN     1
CC0001140853753A202100000027903500000027903520/12/20210735    31903336240421964190000E1AB0700003888350000000000000                                                            SOLUCION SALINA 0.9% SLN INY BO X 250 MLBOL     1
CC0001140853753A202100000027903500000027903520/12/20210735    31903336240421964190000N01A0400003939010000000000000                                               MAYOPROFOL 200MG/20ML(1%) EMUL INY CAJ X 1VIAL X 20MLVAL     1
CC0001140853753A202100000027903500000027903520/12/20210735    31903336240421964190000A2BA27000000#N/A0000000000000                                                                       RANITIDINA SLN INY 50 MG/2 ML AP     1
CC0001140853753A202100000027903500000027903520/12/20210735    31903336240421964190000A4AD0200000202990000000000000                                                                     PLITICAN HCL Sln Iny 50 mg/2 mlAMP     1
CC0001140853753A202100000027903500000027903520/12/20210735    31903336240421964190000N2BB1100000217160000000000000                                                                      NOVALGINA Sln Iny 2.5 g x 5 mlAMP     1
CC0001140853753A202100000027903500000027903520/12/20210735    31903336240421964190000H02AB500001664950000000000000                                                            DEXAMETASONA SLN INY 8 MG/2 ML AMP /CDS/AMP     1
CC0001140853753A202100000027903500000027903520/12/20210735    31903336240421964190000N01B0200003888110000000000000                                           ROXICAINA SE 100MG/10ML(1%) SOL INY CAJ X 24AMPACK X 10MLAPC     1
CC0001140853753A202100000027903500000027903520/12/20210735    31903336240421964190000N1AH0200003906560000000000000                                                                     FENTANIL Iny 0.05 mg/ml x 10 mlAMP     1
CC0001140853753A202100000027903500000027903520/12/20210735    31903336240421964190000N5CD0300000218170000000000000                                                              DORMICUM IV-IM 5MG/5ML(1MG/ML) SOL INYAMP     1
