CC0000007444684H202100000556923800000556923814/12/20210706     3300003237421964250000A6AC07000000#N/A0000000000000                                                                                 LACTULAX Jbe 240 ml FR     1
CC0000007444684H202100000556923800000556923814/12/20210706     3300003237421964250000A07A0500001278160000000000000                                                                               IFAXIM TAB 200 MG /R/TAB     3
CC0000007444684H202100000556923800000556923814/12/20210435    31902202237421964250000E1AB0300003888390000000000000                                                            SOLUCION SALINA 0.9% SLN INY BO X 500 MLBOL     1
CC0000007444684H202100000556923800000556923814/12/20211329    31901450237421964250000E1AD0300000199490000000000000                                         LACTATO RINGER USP (HARTMANN)  SOL INY  BOL X 1000ML BAXTERBIN     1
CC0000007444684H202100000556923800000556923814/12/20210814     3300004237421964250000H01B0300000727220000000000000                                                                   GLYPRESSIN POLVO SLN INY 1 MG /R/AMP     8
CC0000007444684H202100000556923800000556923814/12/20210706     3300003237421964250000H01B0300000727220000000000000                                                                   GLYPRESSIN POLVO SLN INY 1 MG /R/AMP     1
CC0000007444684H202100000556923800000556923814/12/20210526     3300003237421964250000H01B0300000727220000000000000                                                                   GLYPRESSIN POLVO SLN INY 1 MG /R/AMP     7
CC0000007444684H202100000556923800000556923814/12/20210706     3300003237421964250000B02BA100000561560000000000000                                                                           VITAMINA K1 SLN INY 10 MGAMP     2
CC0000007444684H202100000556923800000556923814/12/20210706     3300003237421964250000C07A1200001304880000000000000                                                                           PROPRANOLOL HCL TAB 40 MGTAB     2
CC0000007444684H202100000556923800000556923814/12/20210707     3300003237421964250000D01A0400000525580000000000000                                                                        CLOTRIMAZOL 1% CR TOP X 40 GCIN     1
CC0000007444684H202100000556923800000556923814/12/20212241     3300010237421964250000J01DD500001239970000000000000                                                                  CEFTRIAXONA POLVO LIOF SLN INY 1 GVAL     1
CC0000007444684H202100000556923800000556923814/12/20211820     3300010237421964250000J01DD500001239970000000000000                                                                  CEFTRIAXONA POLVO LIOF SLN INY 1 GVAL     1
CC0000007444684H202100000556923800000556923814/12/20210814     3300004237421964250000N2BE2200001252930000000000000                                                                             ACETAMINOFEN Tab 500 MGTAB     3
CC0000007444684H202100000556923800000556923814/12/20210813     3300004237421964250000N2BE2200001252930000000000000                                                                             ACETAMINOFEN Tab 500 MGTAB     2
CC0000007444684H202100000556923800000556923814/12/20211014     3300003237421964250000N02AA700000979510000000000000                                                            DIHIDROCODEINA SLN ORAL 2.42 MG/ML X 120FCO     1
CC0000007444684H202100000556923800000556923814/12/20211543     3300004237421964250000A02BC700001684270000000000000                                                            OMEPRAZOL 40MG POLVO LIOFILIZADO AMPOLLAVAL     2
CC0000007444684H202100000556923800000556923814/12/20210706     3300003237421964250000A02BC700001684270000000000000                                                            OMEPRAZOL 40MG POLVO LIOFILIZADO AMPOLLAVAL     1
CC0000007444684H202100000556923800000556923814/12/20210705     3300003237421964250000A02BC700001684270000000000000                                                            OMEPRAZOL 40MG POLVO LIOFILIZADO AMPOLLAVAL     1
CC0000007444684H202100000556923800000556923814/12/20211329    31901450237421964250000V07A1300000502600000000000000                                                                                AGUA ESTERIL x 10 mlAMP    10
