CC0001124012749H202100015032661900015032661913/12/20211523    3190297723742196425000030936900001431840000000000000                                                                                              BURETABOL     1
CC0001124012749H202100015032661900015032661913/12/20211523    3190297723742196425000022426800001140510000000000000                                                                    EQUIPO MACROGOTEO BAXTER MRC0001SOB     1
CC0001124012749H202100015032661900015032661913/12/20211523    31902977237421964250000E1AB0500003888400000000000000                                                              SOLUCION SALINA 0.9% SLN INY X 1000 MLBOL     3
