CC0000055312002U202100050132039600050132039613/12/20211225    31900163239421964320000E1AB0200000199290000000000000                                                            SOLUCION SALINA 0.9% SLN INY BO X 100 MLBIN     1
CC0000055312002U202100050132039600050132039613/12/20211225    3190016323942196432000024673600000222980000000000000                                                                     JERINGA DESECHABLE 5 ml 27*11/2SIN     1
CC0000055312002U202100050132039600050132039613/12/20211225    3190016323942196432000024674000001138340000000000000   JERINGA 3PARTES C/A 10ML REF JEHL005 CAJ X 100 ALFASAFE  21GX1 PULG 1/2 PULG BN EXENTO-DC.417/202PZA     1
CC0000055312002U202100050132039600050132039613/12/20211225    3190016323942196432000013077800000471960000000000000                                                             GASA NO TEJIDA EST 7.5 X 7.5 SOB X 3 UNSOB    10
CC0000055312002U202100050132039600050132039613/12/20211225    3190016323942196432000011089300001083990000000000000                                                              GUANTE ESTERIL LATEX S/POLVO TALLA 7.5SOB     1
CC0000055312002U202100050132039600050132039613/12/20211225    3190016323942196432000011056700000228920000000000000                                                                  MEROCEL TAPON NASAL 10CM REF400406SIN     1
