CC0000022265715H202100921536121300921536121313/12/20210004    31901177237421964250000E1AD0300000199490000000000000                                         LACTATO RINGER USP (HARTMANN)  SOL INY  BOL X 1000ML BAXTERBIN     1
CC0000022265715H202100921536121300921536121313/12/20211011    3150053423742196425000011133500001585140000000000000                                                              APOSITO TEGADERM REF 9536HP SOB X 1 3MSOB     1
CC0000022265715H202100921536121300921536121313/12/20211148    3190099523742196425000041996000000422750000000000000                                                                             DUODERM Gel Tubo x 30 gTUB     1
CC0000022265715H202100921536121300921536121313/12/20211711    3150053423742196425000011137100001419310000000000000                                                               TIRA GLUCOMETRIA FREESTYLE H OPTIUM .PZA     4
CC0000022265715H202100921536121300921536121313/12/20211711    3150053423742196425000045136100001419300000000000000                                                                            LANCETA DEXTROMETER X UNPZA     4
