CC0001030682177U202100000556574100000556574104/12/20211858    31901181239421964320000E1AB0200000199290000000000000                                                            SOLUCION SALINA 0.9% SLN INY BO X 100 MLBIN     1
CC0001030682177U202100000556574100000556574104/12/20211731    31901181239421964320000E1AB0300003888390000000000000                                                            SOLUCION SALINA 0.9% SLN INY BO X 500 MLBOL     1
CC0001030682177U202100000556574100000556574104/12/20211731    31901181239421964320000E1AD0300000199490000000000000                                         LACTATO RINGER USP (HARTMANN)  SOL INY  BOL X 1000ML BAXTERBIN     1
CC0001030682177U202100000556574100000556574104/12/20211739     3300010239421964320000J01DA300001239950000000000000                                                            CEFAZOLINA SODICA POLVO LIOF SLN INY 1 GVAL     2
CC0001030682177U202100000556574100000556574104/12/20211706     3300010239421964320000J7AA0600001602890000000000000                                                            VACUNA ANTITETANICA SUSP INY 40 UI/0.5MLVAL     1
CC0001030682177U202100000556574100000556574104/12/20211706     3300010239421964320000N2BB0100001672010000000000000                                  DIPIRONA 1GR/2ML(0.5GR/ML) SOL INY INST CAJ X 100AMP X 2ML VITALISAMP     2
