CC0000022479076H202100000556573000000556573004/12/20211618     3300009237421964250000A4AD0200000202990000000000000                                                                     PLITICAN HCL Sln Iny 50 mg/2 mlAMP     2
CC0000022479076H202100000556573000000556573004/12/20211618     3300009237421964250000M01A0400001341250000000000000                                                                              DYNASTAT AMP 40 MG /R/VAL     2
CC0000022479076H202100000556573000000556573004/12/20211618     3300009237421964250000N2BB0200000513030000000000000                                                                           LISALGIL Sln Iny 2 g/5 mlAMP     2
CC0000022479076H202100000556573000000556573004/12/20211618     3300009237421964250000N02B1100001464120000000000000                                           PARACETAMOL EP 1000MG/100ML(10MG/ML) SOL INY  CAJ X 10FCOVAL     4
CC0000022479076H202100000556573000000556573004/12/20211851     3300010237421964250000N2AA0400003888080000000000000                                                                     DEMEROL HCL Sln Iny 100 mg/2 mlAMP     1
