CC0000011296908H202100015112757800015112757813/12/20212125    31903059237421964250000E1AB0200000199290000000000000                                                            SOLUCION SALINA 0.9% SLN INY BO X 100 MLBIN     5
CC0000011296908H202100015112757800015112757813/12/20212125    3190305923742196425000024674000001138340000000000000   JERINGA 3PARTES C/A 10ML REF JEHL005 CAJ X 100 ALFASAFE  21GX1 PULG 1/2 PULG BN EXENTO-DC.417/202PZA     8
CC0000072155925H202100015112757800015112757813/12/20212125    3190305923742196425000011082900001233450000000000000                                                               EQUIPO LC 5000 PRIMARIO FOTOPRO 0L218SOB     1
CC0000011296908H202100015112757800015112757813/12/20212125    3190305923742196425000022426800001140510000000000000                                                                    EQUIPO MACROGOTEO BAXTER MRC0001SOB     1
CC0000072155925H202100015112757800015112757813/12/20212125    3190305923742196425000011082700001620070000000000000                                                               EQUIPO SET PRIMARIO C/CLAVE REF 14001BOL     1
CC0000011296908H202100015112757800015112757813/12/20212125    3190305923742196425000011082700001620070000000000000                                                               EQUIPO SET PRIMARIO C/CLAVE REF 14001BOL     1
CC0000022596813H202100015112757800015112757813/12/20212125    3190305923742196425000024672100001609890000000000000                                                            JERINGA INSULINA 1ML TAPA NARANJA JEI013SOB     4
