CC0000022467890H202100000556560500000556560504/12/20211000     3300009237421964250000N02B1100001464120000000000000                                           PARACETAMOL EP 1000MG/100ML(10MG/ML) SOL INY  CAJ X 10FCOVAL     2
CC0000022467890H202100000556560500000556560504/12/20212237     3300009237421964250000R5CB0300003841380000000000000                                                                     FLUIMUCIL SLN INY 300 MG X 3 MLAMP     1
CC0000022467890H202100000556560500000556560504/12/20211000     3300009237421964250000R5CB0300003841380000000000000                                                                     FLUIMUCIL SLN INY 300 MG X 3 MLAMP     1
CC0000022467890H202100000556560500000556560504/12/20211000     3300009237421964250000A09A0500001221080000000000000                                                                            GLUTAPAK 10 Polvo x 15 gSOB     1
CC0000022467890H202100000556560500000556560504/12/20211846     3300010237421964250000N2AA0200000301600000000000000                                                                        HIDROMORFONA Sln Iny 2 mg/mlAMP     4
CC0000022467890H202100000556560500000556560504/12/20211000     3300009237421964250000B01AB300000513340000000000000                                                                        CLENOX SLN INY 20 MG/ 0.2 MLJRP     1
CC0000022467890H202100000556560500000556560504/12/20211000     3300009237421964250000J1KF0500001317760000000000000                                                                      MEROPENEM POLVO INY 500 MG /R/CAJ     3
CC0000022467890H202100000556560500000556560504/12/20211000     3300009237421964250000A02BC700001684270000000000000                                                            OMEPRAZOL 40MG POLVO LIOFILIZADO AMPOLLAVAL     1
CC0000022467890H202100000556560500000556560504/12/20211333    31903290237421964250000V07A1300000502600000000000000                                                                                AGUA ESTERIL x 10 mlAMP     3
