RC0001042266915U202100000556900500000556900513/12/20212049    31901453239421964320000E1AC0100000199400000000000000                                                                          SUERO MIXTO Sln Iny 500 mlBIN     1
RC0001042266915U202100000556900500000556900513/12/20212030     3300010239421964320000A12BA100000552980000000000000                                                            CLORURO POTASIO Sln Iny AMP 20 MEQ/10 MLAMP     1
RC0001042266915U202100000556900500000556900513/12/20212015     3300010239421964320000R03A0400000555900000000000000                                                              SALBUTAN Inh 100 mcg/dosis x 200 DosisFCO     1
RC0001042266915U202100000556900500000556900513/12/20212030     3300010239421964320000A03F0500001692520000000000000                                                                   ALIZAPRIDA HCL SLN INY 50 MG/2 MLAMP     1
RC0001042266915U202100000556900500000556900513/12/20211456     3300010239421964320000A03BB100003889180000000000000                                      HIOSCINA BUTIL BROMURO 20MG/ML SOL INY CAJ X 100AMP X 1ML RYANAMP     1
RC0001042266915U202100000556900500000556900513/12/20212030     3300010239421964320000A02BC700001684270000000000000                                                            OMEPRAZOL 40MG POLVO LIOFILIZADO AMPOLLAVAL     1
