RC0001044654057A202100000027869700000027869713/12/20210831    31903336240421964190000E1AB0700003888350000000000000                                                            SOLUCION SALINA 0.9% SLN INY BO X 250 MLBOL     1
RC0001044654057A202100000027869700000027869713/12/20210831    3190333624042196419000022425200000548240000000000000                       EXTENSION DE ANESTESIA REF 1139 SOB X 1 SHERLEG  ADULTO BN EXENTO-DC.417/2020SIN     1
RC0001044654057A202100000027869700000027869713/12/20210831    3190333624042196419000022425100001392880000000000000             EQUIPO MICROGOTEO SIN AGUJA REF 201000 PAQ X 100 SOB GOTHAPLAST   BN EXENTO-DC.417/2020BOL     1
RC0001044654057A202100000027869700000027869713/12/20210831    3190333624042196419000035356500003919000000000000000                                                                                        LLAVE 3 VIASSOB     1
RC0001044654057A202100000027869700000027869713/12/20210831    31903336240421964190000Q1AA7300000610640000000000000                                                            CATETER PERIFE INTROCAN # 22G 4251628-04SIN     1
RC0001044654057A202100000027869700000027869713/12/20210831    31903336240421964190000Q1AA7400003911720000000000000                                                            CATETER PERIFE INTROCAN # 24G 4251601-04SOB     1
RC0001044654057A202100000027869700000027869713/12/20210831    31903336240421964190000J01DA300001239950000000000000                                                            CEFAZOLINA SODICA POLVO LIOF SLN INY 1 GVAL     1
RC0001044654057A202100000027869700000027869713/12/20210831    3190333624042196419000051515400000598150000000000000                                                                            MASCARILLA ANESTESIA # 4SIN     1
RC0001044654057A202100000027869700000027869713/12/20210831    31903336240421964190000N01A0400003939010000000000000                                               MAYOPROFOL 200MG/20ML(1%) EMUL INY CAJ X 1VIAL X 20MLVAL     1
RC0001044654057A202100000027869700000027869713/12/20210831    3190333624042196419000030161400001459220000000000000                                                                       MANGUERA SUCCION 6 MM*3.1 MTSSOB     1
RC0001044654057A202100000027869700000027869713/12/20210831    3190333624042196419000011073300001096420000000000000                                                                BOLSA DE SUCCION DE FLUIDOS x 2500mLBOL     1
RC0001044654057A202100000027869700000027869713/12/20210831    3190333624042196419000011065700003914100000000000000                                                                 TAPON HEPARINIZADO 4238010  B BRAUNSOB     1
RC0001044654057A202100000027869700000027869713/12/20210831    31903336240421964190000Q1A11800000258040000000000000                                                                         CANULA OXIGENO NASAL PEDIATSIN     1
RC0001044654057A202100000027869700000027869713/12/20210831    3190333624042196419000020058100001101630000000000000                                                                     AGUJA HIPODERMICA DESECH 23 X 1SOB     1
RC0001044654057A202100000027869700000027869713/12/20210831    3190333624042196419000024674000001138340000000000000   JERINGA 3PARTES C/A 10ML REF JEHL005 CAJ X 100 ALFASAFE  21GX1 PULG 1/2 PULG BN EXENTO-DC.417/202PZA     4
RC0001044654057A202100000027869700000027869713/12/20210831    31903336240421964190000E1AB0200000199290000000000000                                                            SOLUCION SALINA 0.9% SLN INY BO X 100 MLBIN     1
RC0001044654057A202100000027869700000027869713/12/20210831    31903336240421964190000N01B0200003888110000000000000                                           ROXICAINA SE 100MG/10ML(1%) SOL INY CAJ X 24AMPACK X 10MLAPC     1
RC0001044654057A202100000027869700000027869713/12/20210831    31903336240421964190000A03F0300001626860000000000000                                                                   METOCLOPRAMIDA SLN INY 10 MG/2 MLAMP     1
RC0001044654057A202100000027869700000027869713/12/20210831    31903336240421964190000N1AX0100003889000000000000000                                                                       KETAMINA Iny 50 mg/ml x 10 mlVAL     1
