CC0001045674439U202100923212121700923212121717/12/20210224    3150025823942196432000011082700001620070000000000000                                                               EQUIPO SET PRIMARIO C/CLAVE REF 14001BOL     1
CC0001045674439U202100923212121700923212121717/12/20210224    3150025823942196432000016830000000970620000000000000                                                             SIST FIJACION CAT PERIFERICO 6.5X7 1683SOB     1
CC0001045674439U202100923212121700923212121717/12/20210224    3150025823942196432000024673600000222980000000000000                                                                     JERINGA DESECHABLE 5 ml 27*11/2SIN     4
CC0001045674439U202100923212121700923212121717/12/20210224    3150025823942196432000030936900001431840000000000000                                                                                              BURETABOL     1
CC0001045674439U202100923212121700923212121717/12/20210224    31500258239421964320000Q1AA7100000610620000000000000                                                            CATETER PERIFE INTROCAN # 18G 4251687-04SIN     1
CC0001045674439U202100923212121700923212121717/12/20210224    31500258239421964320000E1AD0300000199490000000000000                                         LACTATO RINGER USP (HARTMANN)  SOL INY  BOL X 1000ML BAXTERBIN     1
