TI0001066284726U202100050132040400050132040413/12/20211326    3190199223942196432000011085100001082120000000000000                                                                           GUANTE QUIRURGICO TALLA 7SOB     6
TI0001066284726U202100050132040400050132040413/12/20211326    3190199223942196432000024673600000222980000000000000                                                                     JERINGA DESECHABLE 5 ml 27*11/2SIN     2
TI0001066284726U202100050132040400050132040413/12/20211326    3190199223942196432000024674000001138340000000000000   JERINGA 3PARTES C/A 10ML REF JEHL005 CAJ X 100 ALFASAFE  21GX1 PULG 1/2 PULG BN EXENTO-DC.417/202PZA     2
CC0001002154565U202100050132040400050132040413/12/20211326    3190199223942196432000024674000001138340000000000000   JERINGA 3PARTES C/A 10ML REF JEHL005 CAJ X 100 ALFASAFE  21GX1 PULG 1/2 PULG BN EXENTO-DC.417/202PZA     1
TI0001066284726U202100050132040400050132040413/12/20211326    3190199223942196432000013077800000471960000000000000                                                             GASA NO TEJIDA EST 7.5 X 7.5 SOB X 3 UNSOB     5
