CC0001045686959H202100000557013600000557013616/12/20211855     3300004237421964250000H02AB400001140460000000000000                                                              SUCCINA METILPREDNISOLONA 500MG VIA/R/VAL     1
CC0001045686959H202100000557013600000557013616/12/20210930     3300009237421964250000A03F0300001626860000000000000                                                                   METOCLOPRAMIDA SLN INY 10 MG/2 MLAMP     4
CC0001045686959H202100000557013600000557013616/12/20210841     3300009237421964250000A03F0300001626860000000000000                                                                   METOCLOPRAMIDA SLN INY 10 MG/2 MLAMP     3
CC0001045686959H202100000557013600000557013616/12/20211019    31902796237421964250000E1AA0100003888590000000000000                                                                        DEXTROSA 5% Sln Iny X 500 mlBOL     2
CC0001045686959H202100000557013600000557013616/12/20210801    31903016237421964250000E1AB0200000199290000000000000                                                            SOLUCION SALINA 0.9% SLN INY BO X 100 MLBIN     1
CC0001045686959H202100000557013600000557013616/12/20211019    31902796237421964250000E1AB0500003888400000000000000                                                              SOLUCION SALINA 0.9% SLN INY X 1000 MLBOL     1
CC0001045686959H202100000557013600000557013616/12/20211855     3300004237421964250000A12CA200001239800000000000000                     BICARBONATO SODIO 10MEQ/10ML(1MEQ/ML) SOL INY  CAJ X 100AMPX10ML FRESENIUS KABIAMP    11
CC0001045686959H202100000557013600000557013616/12/20210931     3300009237421964250000A12CA200001239800000000000000                     BICARBONATO SODIO 10MEQ/10ML(1MEQ/ML) SOL INY  CAJ X 100AMPX10ML FRESENIUS KABIAMP     5
CC0001045686959H202100000557013600000557013616/12/20210840     3300009237421964250000A12CA200001239800000000000000                     BICARBONATO SODIO 10MEQ/10ML(1MEQ/ML) SOL INY  CAJ X 100AMPX10ML FRESENIUS KABIAMP     2
CC0001045686959H202100000557013600000557013616/12/20211855     3300004237421964250000A12BA100000552980000000000000                                                            CLORURO POTASIO Sln Iny AMP 20 MEQ/10 MLAMP    11
CC0001045686959H202100000557013600000557013616/12/20210931     3300009237421964250000A12BA100000552980000000000000                                                            CLORURO POTASIO Sln Iny AMP 20 MEQ/10 MLAMP     3
CC0001045686959H202100000557013600000557013616/12/20210841     3300009237421964250000A12BA100000552980000000000000                                                            CLORURO POTASIO Sln Iny AMP 20 MEQ/10 MLAMP     3
CC0001045686959H202100000557013600000557013616/12/20210840     3300009237421964250000J5AB1300001300700000000000000                                                                                    VIREX TAB 400 MGTAB     2
CC0001045686959H202100000557013600000557013616/12/20211700     3300009237421964250000L04AX20PENDIENTE0000000000000                                                              METOTREXATO SLN INY 500 MG X 20 ML /R/VAL     3
CC0001045686959H202100000557013600000557013616/12/20211533     3300004237421964250000L04AX20PENDIENTE0000000000000                                                              METOTREXATO SLN INY 500 MG X 20 ML /R/VAL     1
CC0001045686959H202100000557013600000557013616/12/20210801    31903016237421964250000N1BA2400001687720000000000000                                                    LIDOCAINA 2% SOL INY  CAJ X 50AMP X 10ML CORPAULAMP     2
CC0001045686959H202100000557013600000557013616/12/20211856     3300004237421964250000A02B0800001276960000000000000                                                                                 OMEPRAZOL CAP 20 MGCAP     2
CC0001045686959H202100000557013600000557013616/12/20210839     3300009237421964250000B01AB200000513350000000000000                                                                        CLENOX SLN INY 40 MG/ 0.4 MLJRP     1
CC0001045686959H202100000557013600000557013616/12/20211856     3300004237421964250000S01BA300000970730000000000000                                                                    OPHTHASONA SLN OFT 0.10 % X 5 MLFCO     1
