MS0011408397871H202100015132534000015132534013/12/20211646    3190330923742196425000011048600000223020000000000000                                                                 JERINGA VACUNACION 3ML C/AGU 302542SIN     2
RC0001044436459H202100015132534000015132534013/12/20211646    3190330923742196425000011048600000223020000000000000                                                                 JERINGA VACUNACION 3ML C/AGU 302542SIN     2
RC0001048091909H202100015132534000015132534013/12/20211646    3190330923742196425000011048600000223020000000000000                                                                 JERINGA VACUNACION 3ML C/AGU 302542SIN     2
RC0001044018894H202100015132534000015132534013/12/20211646    3190330923742196425000011048600000223020000000000000                                                                 JERINGA VACUNACION 3ML C/AGU 302542SIN     2
RC0001143474190H202100015132534000015132534013/12/20211646    3190330923742196425000011048600000223020000000000000                                                                 JERINGA VACUNACION 3ML C/AGU 302542SIN     2
RC0001044236218H202100015132534000015132534013/12/20211646    3190330923742196425000011048600000223020000000000000                                                                 JERINGA VACUNACION 3ML C/AGU 302542SIN     2
RC0001047065603H202100015132534000015132534013/12/20211646    3190330923742196425000011048600000223020000000000000                                                                 JERINGA VACUNACION 3ML C/AGU 302542SIN     2
RC0001143474189H202100015132534000015132534013/12/20211646    3190330923742196425000011048600000223020000000000000                                                                 JERINGA VACUNACION 3ML C/AGU 302542SIN     2
RC0001048091952H202100015132534000015132534013/12/20211646    3190330923742196425000011048600000223020000000000000                                                                 JERINGA VACUNACION 3ML C/AGU 302542SIN     2
