CC0000032644106U202100050132035400050132035413/12/20210431    32000803239421964320000Q1AA7300000610640000000000000                                                            CATETER PERIFE INTROCAN # 22G 4251628-04SIN     1
CC0001129498209U202100050132035400050132035413/12/20210431    3200080323942196432000024674000001138340000000000000   JERINGA 3PARTES C/A 10ML REF JEHL005 CAJ X 100 ALFASAFE  21GX1 PULG 1/2 PULG BN EXENTO-DC.417/202PZA     2
CC0001129498209U202100050132035400050132035413/12/20210431    32000803239421964320000Q1AA7000001097160000000000000                                                            CATETER PERIFE INTROCAN # 16G 4251709-04SOB     2
CC0001129498209U202100050132035400050132035413/12/20210431    32000803239421964320000E1AB0300003888390000000000000                                                            SOLUCION SALINA 0.9% SLN INY BO X 500 MLBOL     1
CC0001129498209U202100050132035400050132035413/12/20210431    3200080323942196432000024672100001609890000000000000                                                            JERINGA INSULINA 1ML TAPA NARANJA JEI013SOB     1
