CC0001140839787H202100000556882000000556882013/12/20210919     3300009237421964250000A2BC0900000200150000000000000                                                                               ORAZOLE Sln Iny 40 mgCIN     1
CC0001140839787H202100000556882000000556882013/12/20211513     3300009237421964250000B1AB0300003939210000000000000                 ENOXAPARINA SODICA 20MG/0.2ML(100MG/ML) SOL INY INST CAJ X 2JERPREL X 0.2ML TECHDOWJRP     1
CC0001140839787H202100000556882000000556882013/12/20212316    31500072237421964250000E1AB0200000199290000000000000                                                            SOLUCION SALINA 0.9% SLN INY BO X 100 MLBIN     9
CC0001140839787H202100000556882000000556882013/12/20211410    31500387237421964250000E1AB0200000199290000000000000                                                            SOLUCION SALINA 0.9% SLN INY BO X 100 MLBIN     4
CC0001140839787H202100000556882000000556882013/12/20211410    31500387237421964250000E1AD0300000199490000000000000                                         LACTATO RINGER USP (HARTMANN)  SOL INY  BOL X 1000ML BAXTERBIN     1
CC0001140839787H202100000556882000000556882013/12/20211514     3300009237421964250000C2AC0100001277460000000000000                                                                              CATAPRESAN TAB 150 MCGCOM     5
CC0001140839787H202100000556882000000556882013/12/20211513     3300009237421964250000C2AC0100001277460000000000000                                                                              CATAPRESAN TAB 150 MCGCOM     2
CC0001140839787H202100000556882000000556882013/12/20210923     3300009237421964250000C2AC0100001277460000000000000                                                                              CATAPRESAN TAB 150 MCGCOM     1
CC0001140839787H202100000556882000000556882013/12/20211512     3300009237421964250000C02C0300001277330000000000000                                                                                  PRAZOSINA TAB 1 MGTAB     7
CC0001140839787H202100000556882000000556882013/12/20210920     3300009237421964250000C02C0300001277330000000000000                                                                                  PRAZOSINA TAB 1 MGTAB     6
CC0001140839787H202100000556882000000556882013/12/20211513     3300009237421964250000C2AB0200001300760000000000000                                                                                  ALDOMET Tab 500 mgTAB     3
CC0001140839787H202100000556882000000556882013/12/20210923     3300009237421964250000C2AB0200001300760000000000000                                                                                  ALDOMET Tab 500 mgTAB     1
CC0001140839787H202100000556882000000556882013/12/20211516     3300009237421964250000C02DC100001304000000000000000                                                                                VAXDIL TAB 10 MG /R/TAB     1
CC0001140839787H202100000556882000000556882013/12/20211515     3300009237421964250000C02DC100001304000000000000000                                                                                VAXDIL TAB 10 MG /R/TAB     1
CC0001140839787H202100000556882000000556882013/12/20210641     3300009237421964250000C02DC100001304000000000000000                                                                                VAXDIL TAB 10 MG /R/TAB     1
CC0001140839787H202100000556882000000556882013/12/20210919     3300009237421964250000C09CA100001303630000000000000                                                                                   COZAAR TAB 100 MGTAB     2
CC0001140839787H202100000556882000000556882013/12/20211513     3300009237421964250000C3AA0100001315100000000000000                                                                         HIDROCLOROTIAZIDA TAB 25 MGTAB     1
CC0001140839787H202100000556882000000556882013/12/20210923     3300009237421964250000C07A1100001015770000000000000                                                                   TRANDATE SLN INY 100 MG/20 ML /R/AMP     3
CC0001140839787H202100000556882000000556882013/12/20210923     3300009237421964250000C7FA0200001277980000000000000                                                                                    NORVAS TAB 10 MGTAB     1
CC0001140839787H202100000556882000000556882013/12/20210920     3300009237421964250000H03A0400001278890000000000000                                                                                  EUTIROX TAB 50 MCGTAB     1
CC0001140839787H202100000556882000000556882013/12/20211512     3300009237421964250000J01DA300001239950000000000000                                                            CEFAZOLINA SODICA POLVO LIOF SLN INY 1 GVAL     1
CC0001140839787H202100000556882000000556882013/12/20210919     3300009237421964250000J01DA300001239950000000000000                                                            CEFAZOLINA SODICA POLVO LIOF SLN INY 1 GVAL     3
CC0001140839787H202100000556882000000556882013/12/20211514     3300009237421964250000N02B1100001464120000000000000                                           PARACETAMOL EP 1000MG/100ML(10MG/ML) SOL INY  CAJ X 10FCOVAL     1
CC0001140839787H202100000556882000000556882013/12/20210920     3300009237421964250000N02B1100001464120000000000000                                           PARACETAMOL EP 1000MG/100ML(10MG/ML) SOL INY  CAJ X 10FCOVAL     2
CC0001140839787H202100000556882000000556882013/12/20210919     3300009237421964250000N02B1100001464120000000000000                                           PARACETAMOL EP 1000MG/100ML(10MG/ML) SOL INY  CAJ X 10FCOVAL     1
CC0001140839787H202100000556882000000556882013/12/20212316    31500072237421964250000V07A1300000502600000000000000                                                                                AGUA ESTERIL x 10 mlAMP     4
CC0001140839787H202100000556882000000556882013/12/20211410    31500387237421964250000V07A1300000502600000000000000                                                                                AGUA ESTERIL x 10 mlAMP     4
