CC0000080424776U202100050132047600050132047613/12/20212141    3190100523942196432000030936900001431840000000000000                                                                                              BURETABOL     1
CC0000080424776U202100050132047600050132047613/12/20212141    3190100523942196432000024674000001138340000000000000   JERINGA 3PARTES C/A 10ML REF JEHL005 CAJ X 100 ALFASAFE  21GX1 PULG 1/2 PULG BN EXENTO-DC.417/202PZA     1
CC0000080424776U202100050132047600050132047613/12/20212141    31901005239421964320000E1AB0300003888390000000000000                                                            SOLUCION SALINA 0.9% SLN INY BO X 500 MLBOL     1
