RC0001102895413H202100000556889600000556889613/12/20211037    31500519237421964250000E1AC0100000199400000000000000                                                                          SUERO MIXTO Sln Iny 500 mlBIN     1
RC0001102895413H202100000556889600000556889613/12/20211040     3300009237421964250000A12BA100000552980000000000000                                                            CLORURO POTASIO Sln Iny AMP 20 MEQ/10 MLAMP     1
RC0001102895413H202100000556889600000556889613/12/20211040     3300009237421964250000A12CC200000787470000000000000                                                                       MAGNESIO SULFATO Sobre x 15 gSOB     1
RC0001102895413H202100000556889600000556889613/12/20211040     3300009237421964250000H02A0100001664960000000000000                                                                        DEXAMETASONA SLN INY 4 MG/MLAMP     1
RC0001102895413H202100000556889600000556889613/12/20211039     3300009237421964250000J01DA300001239950000000000000                                                            CEFAZOLINA SODICA POLVO LIOF SLN INY 1 GVAL     2
RC0001102895413H202100000556889600000556889613/12/20211040     3300009237421964250000N2BE1100000836430000000000000                                             ACETAMINOFEN 150MG/5ML(3%) JBE INST FCO X 60ML AMER GENCAJ     1
RC0001102895413H202100000556889600000556889613/12/20211040     3300009237421964250000R3CA0100001051880000000000000                                                               ADRENALINA HCL SLN INY 1 MG / ML ECARAMP     5
RC0001102895413H202100000556889600000556889613/12/20211711     3300009237421964250000N2BB0100001672010000000000000                                  DIPIRONA 1GR/2ML(0.5GR/ML) SOL INY INST CAJ X 100AMP X 2ML VITALISAMP     1
RC0001102895413H202100000556889600000556889613/12/20211040     3300009237421964250000N2BB0100001672010000000000000                                  DIPIRONA 1GR/2ML(0.5GR/ML) SOL INY INST CAJ X 100AMP X 2ML VITALISAMP     1
RC0001102895413H202100000556889600000556889613/12/20211424    31903300237421964250000V07A1300000502600000000000000                                                                                AGUA ESTERIL x 10 mlAMP    10
