TI0001121302704H202100000556560100000556560104/12/20210958     3300009237421964250000A2BC0900000200150000000000000                                                                               ORAZOLE Sln Iny 40 mgCIN     1
TI0001121302704H202100000556560100000556560104/12/20212305     3300009237421964250000A3BB0200000512940000000000000                                                                          BUSCAPINA SIMPLE Iny 20 mgAMP     1
TI0001121302704H202100000556560100000556560104/12/20212102     3300009237421964250000A3BB0200000512940000000000000                                                                          BUSCAPINA SIMPLE Iny 20 mgAMP     1
TI0001121302704H202100000556560100000556560104/12/20210957     3300009237421964250000A3BB0200000512940000000000000                                                                          BUSCAPINA SIMPLE Iny 20 mgAMP     1
TI0001121302704H202100000556560100000556560104/12/20210957     3300009237421964250000A07F0600001089820000000000000                                                                     FLORATIL POLVO SOBRE 250 MG /R/SOB     2
TI0001121302704H202100000556560100000556560104/12/20211727    31500460237421964250000E1AD0300000199490000000000000                                         LACTATO RINGER USP (HARTMANN)  SOL INY  BOL X 1000ML BAXTERBIN     2
TI0001121302704H202100000556560100000556560104/12/20212102     3300009237421964250000J1DA3100000187510000000000000                                                                           ROCEFIN Polvo SLN INY 1 GCIN     1
TI0001121302704H202100000556560100000556560104/12/20211354     3300009237421964250000J1DA3100000187510000000000000                                                                           ROCEFIN Polvo SLN INY 1 GCIN     4
TI0001121302704H202100000556560100000556560104/12/20210957     3300009237421964250000L01XX500001336660000000000000                                                                              HYDROXYUREA CAP 500 MGCAP     1
TI0001121302704H202100000556560100000556560104/12/20210958     3300009237421964250000N02B1100001464120000000000000                                           PARACETAMOL EP 1000MG/100ML(10MG/ML) SOL INY  CAJ X 10FCOVAL     3
TI0001121302704H202100000556560100000556560104/12/20210957     3300009237421964250000V6DB0800001286840000000000000                                                                          PEDIASURE LIQUIDO X 237 MLFCO     2
TI0001121302704H202100000556560100000556560104/12/20211847     3300010237421964250000A07C0500001628790000000000000                                                                          PEDIALYTE 45 C/ZINC 500 mlFCO     1
TI0001121302704H202100000556560100000556560104/12/20211335    31903290237421964250000V07A1300000502600000000000000                                                                                AGUA ESTERIL x 10 mlAMP     3
