CC0000007452098H202100015052821400015052821413/12/20211129    3190099523742196425000011070800000471170000000000000                                                                        SAF GEL TUBO X 85 G CONVATECTUB     1
CC0000003779763H202100015052821400015052821413/12/20211129    3190099523742196425000020056600001101530000000000000                                                                AGUJA HIPODERMICA DESECH 18G X 1 1/2SOB     1
CC0000072259725H202100015052821400015052821413/12/20211129    3190099523742196425000020056600001101530000000000000                                                                AGUJA HIPODERMICA DESECH 18G X 1 1/2SOB     1
CC0000003779763H202100015052821400015052821413/12/20211129    31900995237421964250000E1AB0200000199290000000000000                                                            SOLUCION SALINA 0.9% SLN INY BO X 100 MLBIN     1
CC0000072259725H202100015052821400015052821413/12/20211129    31900995237421964250000E1AB0700003888350000000000000                                                            SOLUCION SALINA 0.9% SLN INY BO X 250 MLBOL     1
CC0000003779763H202100015052821400015052821413/12/20211129    3190099523742196425000021593100001571610000000000000                                                                    AQUACEL AG+ EXTRA 10*10CM 413567SOB     2
CC0000003779763H202100015052821400015052821413/12/20211129    3190099523742196425000043879400001138170000000000000                                                                  HOJA BISTURI # 10 CSSB 10 01002000SOB     1
CC0000072259725H202100015052821400015052821413/12/20211129    3190099523742196425000043879400001138170000000000000                                                                  HOJA BISTURI # 10 CSSB 10 01002000SOB     1
CC0000003779763H202100015052821400015052821413/12/20211129    3190099523742196425000042743200003929860000000000000                   GASA ADHESIVA STRETCH REF 02038-00 ROL X 10MT FIXOMULL 15CM BN EXENTO-DC.417/2020CMT   100
CC0000072259725H202100015052821400015052821413/12/20211129    3190099523742196425000042743200003929860000000000000                   GASA ADHESIVA STRETCH REF 02038-00 ROL X 10MT FIXOMULL 15CM BN EXENTO-DC.417/2020CMT   120
CC0000003779763H202100015052821400015052821413/12/20211129    3190099523742196425000013077800000471960000000000000                                                             GASA NO TEJIDA EST 7.5 X 7.5 SOB X 3 UNSOB    20
CC0000072259725H202100015052821400015052821413/12/20211129    3190099523742196425000013077800000471960000000000000                                                             GASA NO TEJIDA EST 7.5 X 7.5 SOB X 3 UNSOB    15
CC0000032776593H202100015052821400015052821413/12/20211129    3190099523742196425000011069000000212140000000000000                                                                      VASELINA QUIMIBEN POTE X 500 GTAR     1
CC0000003779763H202100015052821400015052821413/12/20211129    3190099523742196425000011069000000212140000000000000                                                                      VASELINA QUIMIBEN POTE X 500 GTAR     1
CC0000072259725H202100015052821400015052821413/12/20211129    3190099523742196425000011069000000212140000000000000                                                                      VASELINA QUIMIBEN POTE X 500 GTAR     1
CC0000003779763H202100015052821400015052821413/12/20211129    3190099523742196425000049419700001679920000000000000                                                                        VENDA ALGODON 5*5 NO ESTERILSOB     2
CC0000072259725H202100015052821400015052821413/12/20211129    3190099523742196425000049419800001679910000000000000                                                                        VENDA ALGODON 6*5 NO ESTERILSOB     2
CC0000003779763H202100015052821400015052821413/12/20211129    3190099523742196425000049428400000738560000000000000                                                                       VENDA ELASTICA 5*5 NO ESTERILSOB     2
CC0000072259725H202100015052821400015052821413/12/20211129    3190099523742196425000000800300000859980000000000000                                                                     VENDA ELASTICA 6 X 5 YARDAS ANTBOL     2
