RC0001063188441H202100015122554000015122554013/12/20211107    31500475237421964250000E1BA0100000198890000000000000                                                                   AGUA ESTERIL USP SLN INY X 500 MLBIN     2
TI0001011214689H202100015122554000015122554013/12/20211107    3150047523742196425000036441300000236540000000000000                                                                    JERINGA 1 ML GASES ARTERIAL 9023SIN     3
RC0001043033404H202100015122554000015122554013/12/20211107    3150047523742196425000036441300000236540000000000000                                                                    JERINGA 1 ML GASES ARTERIAL 9023SIN     3
RC0001240292997H202100015122554000015122554013/12/20211107    3150047523742196425000036441300000236540000000000000                                                                    JERINGA 1 ML GASES ARTERIAL 9023SIN     3
