CC0000077008270A202100000027867700000027867713/12/20211217    31903336240421964190000N1BA0500000647360000000000000                                                                  BUPIROP 0.5% PESADO SLN INY X 4 MLAPC     1
CC0000077008270A202100000027867700000027867713/12/20211217    31903336240421964190000M1AX0200001569410000000000000                                                                         KETRON SLN INY 30 MG / 2 MLAMP     1
CC0000077008270A202100000027867700000027867713/12/20211217    31903336240421964190000H02AB500001664950000000000000                                                            DEXAMETASONA SLN INY 8 MG/2 ML AMP /CDS/AMP     1
CC0000077008270A202100000027867700000027867713/12/20211217    3190333624042196419000011083900000607700000000000000                                                               EXTENSION MONITOREO PRESION 1281  12"SIN     1
CC0000077008270A202100000027867700000027867713/12/20211217    3190333624042196419000000102300000222960000000000000                                                                 JERINGA DESECHABLE SIN AGUJA X 20mLSIN     1
CC0000077008270A202100000027867700000027867713/12/20211217    3190333624042196419000020059800000225160000000000000                                                              AGUJA SPINOCAN 25G X 3 1/2 PU  4505905SIN     1
CC0000077008270A202100000027867700000027867713/12/20211217    31903336240421964190000H02A1400000642360000000000000                                                                  INFLACOR RETARD SUSP INY 3/3 MG/MLAMP     1
CC0000077008270A202100000027867700000027867713/12/20211217    31903336240421964190000N1BA1900000554750000000000000                                                                     ROXICAINA JALEA 2% TUBO X 30 MLTUB     1
CC0000077008270A202100000027867700000027867713/12/20211217    31903336240421964190000E1AB0300003888390000000000000                                                            SOLUCION SALINA 0.9% SLN INY BO X 500 MLBOL     1
CC0000077008270A202100000027867700000027867713/12/20211217    3190333624042196419000022425200000548240000000000000                       EXTENSION DE ANESTESIA REF 1139 SOB X 1 SHERLEG  ADULTO BN EXENTO-DC.417/2020SIN     1
CC0000077008270A202100000027867700000027867713/12/20211217    3190333624042196419000035356500003919000000000000000                                                                                        LLAVE 3 VIASSOB     2
CC0000077008270A202100000027867700000027867713/12/20211217    31903336240421964190000Q1AA7100000610620000000000000                                                            CATETER PERIFE INTROCAN # 18G 4251687-04SIN     1
CC0000077008270A202100000027867700000027867713/12/20211217    3190333624042196419000022426800001140510000000000000                                                                    EQUIPO MACROGOTEO BAXTER MRC0001SOB     1
CC0000077008270A202100000027867700000027867713/12/20211217    3190333624042196419000016830000000970620000000000000                                                             SIST FIJACION CAT PERIFERICO 6.5X7 1683SOB     1
CC0000077008270A202100000027867700000027867713/12/20211217    3190333624042196419000020058400001101660000000000000                                                                           AGUJA DESECHABLE # 25 X 1SOB     1
CC0000077008270A202100000027867700000027867713/12/20211217    3190333624042196419000038568100000258050000000000000                                                                         CANULA OXIGENO NASAL ADULTOSIN     1
CC0000077008270A202100000027867700000027867713/12/20211217    3190333624042196419000053074400000607910000000000000                                                               GASA ESTERIL 10*10 SOBRE X 3 UNIDADESSOB     2
CC0000077008270A202100000027867700000027867713/12/20211217    3190333624042196419000011085300001082140000000000000                                                                           GUANTE QUIRURGICO TALLA 8SOB     1
CC0000077008270A202100000027867700000027867713/12/20211217    3190333624042196419000011085200001585390000000000000                                                                       GUANTE QUIRURGICO TALLA 7 1/2SOB     1
CC0000077008270A202100000027867700000027867713/12/20211217    3190333624042196419000011085100001082120000000000000                                                                           GUANTE QUIRURGICO TALLA 7SOB     1
CC0000077008270A202100000027867700000027867713/12/20211217    3190333624042196419000024673600000222980000000000000                                                                     JERINGA DESECHABLE 5 ml 27*11/2SIN     1
CC0000077008270A202100000027867700000027867713/12/20211217    3190333624042196419000024674000001138340000000000000   JERINGA 3PARTES C/A 10ML REF JEHL005 CAJ X 100 ALFASAFE  21GX1 PULG 1/2 PULG BN EXENTO-DC.417/202PZA     3
CC0000077008270A202100000027867700000027867713/12/20211217    31903336240421964190000E1AB0200000199290000000000000                                                            SOLUCION SALINA 0.9% SLN INY BO X 100 MLBIN     1
CC0000077008270A202100000027867700000027867713/12/20211217    31903336240421964190000N01A0400003939010000000000000                                               MAYOPROFOL 200MG/20ML(1%) EMUL INY CAJ X 1VIAL X 20MLVAL     1
CC0000077008270A202100000027867700000027867713/12/20211217    31903336240421964190000A12CA200001239800000000000000                     BICARBONATO SODIO 10MEQ/10ML(1MEQ/ML) SOL INY  CAJ X 100AMPX10ML FRESENIUS KABIAMP     1
CC0000077008270A202100000027867700000027867713/12/20211217    31903336240421964190000N01B1600003888910000000000000                                             BUPIROP SE S/P 50MG/10ML(5MG/ML) SOL INY CAJ X 24AMPACKAPC     1
CC0000077008270A202100000027867700000027867713/12/20211217    31903336240421964190000N01B0200003888110000000000000                                           ROXICAINA SE 100MG/10ML(1%) SOL INY CAJ X 24AMPACK X 10MLAPC     2
