CC0000022571224U202100050132041900050132041913/12/20211451    3150058923942196432000030936900001431840000000000000                                                                                              BURETABOL     1
CC0000022571224U202100050132041900050132041913/12/20211451    3150058923942196432000035356500003919000000000000000                                                                                        LLAVE 3 VIASSOB     1
CC0000022571224U202100050132041900050132041913/12/20211451    3150058923942196432000011082700001620070000000000000                                                               EQUIPO SET PRIMARIO C/CLAVE REF 14001BOL     1
