CC0000008734035U202100923174121800923174121818/12/20210839    3190093023942196432000024674000001138340000000000000   JERINGA 3PARTES C/A 10ML REF JEHL005 CAJ X 100 ALFASAFE  21GX1 PULG 1/2 PULG BN EXENTO-DC.417/202PZA     5
CC0000008734035U202100923174121800923174121818/12/20211433    31900930239421964320000E1AB0500003888400000000000000                                                              SOLUCION SALINA 0.9% SLN INY X 1000 MLBOL     1
CC0000008734035U202100923174121800923174121818/12/20212253    3190280023942196432000011137100001419310000000000000                                                               TIRA GLUCOMETRIA FREESTYLE H OPTIUM .PZA     1
CC0000008734035U202100923174121800923174121818/12/20212253    3190280023942196432000045136100001419300000000000000                                                                            LANCETA DEXTROMETER X UNPZA     2
