RC0001043033404H202100000556872100000556872113/12/20211129     330000923742196425000011808300000218190000000000000                                                   DORMICUM IV 50MG/10ML(5MG/ML) SOL INY  CAJ X 5AMPAMP     1
RC0001043033404H202100000556872100000556872113/12/20211448     3300009237421964250000B03BB200001351190000000000000                                                                            ACIDO FOLICO 1MG TABLETATAB     1
RC0001043033404H202100000556872100000556872113/12/20211257    31903307237421964250000E1AC0100000199400000000000000                                                                          SUERO MIXTO Sln Iny 500 mlBIN     1
RC0001043033404H202100000556872100000556872113/12/20212007    31903157237421964250000E1AB0200000199290000000000000                                                            SOLUCION SALINA 0.9% SLN INY BO X 100 MLBIN     3
RC0001043033404H202100000556872100000556872113/12/20211257    31903307237421964250000E1AB0300003888390000000000000                                                            SOLUCION SALINA 0.9% SLN INY BO X 500 MLBOL     1
RC0001043033404H202100000556872100000556872113/12/20211448     3300009237421964250000H02A0100001664960000000000000                                                                        DEXAMETASONA SLN INY 4 MG/MLAMP     1
RC0001043033404H202100000556872100000556872113/12/20210625     3300009237421964250000H02A0100001664960000000000000                                                                        DEXAMETASONA SLN INY 4 MG/MLAMP     1
RC0001043033404H202100000556872100000556872113/12/20210021     3300009237421964250000H02A0100001664960000000000000                                                                        DEXAMETASONA SLN INY 4 MG/MLAMP     1
RC0001043033404H202100000556872100000556872113/12/20211129     3300009237421964250000N07X0300003913670000000000000                                    DEXMEDETOMIDINA 400MCG/100ML(4MCG/ML) SOL INY BOL X 100ML BAXTERBOL     1
RC0001043033404H202100000556872100000556872113/12/20211130     3300009237421964250000N1AH0200003906560000000000000                                                                     FENTANIL Iny 0.05 mg/ml x 10 mlAMP     3
RC0001043033404H202100000556872100000556872113/12/20211129     3300009237421964250000N1AH0200003906560000000000000                                                                     FENTANIL Iny 0.05 mg/ml x 10 mlAMP     1
RC0001043033404H202100000556872100000556872113/12/20211808     3300009237421964250000N02A0800001680530000000000000                                                                                 METHADOSE Tab 10 mgTAB     1
RC0001043033404H202100000556872100000556872113/12/20210736     3300009237421964250000N02A0800001680530000000000000                                                                                 METHADOSE Tab 10 mgTAB     1
RC0001043033404H202100000556872100000556872113/12/20211448     3300009237421964250000J01CR200000947130000000000000                                                              AMPICILINA /SULBACTAN POLVO LIOF 1.5 GAMP     1
RC0001043033404H202100000556872100000556872113/12/20210625     3300009237421964250000J01CR200000947130000000000000                                                              AMPICILINA /SULBACTAN POLVO LIOF 1.5 GAMP     1
RC0001043033404H202100000556872100000556872113/12/20210021     3300009237421964250000J01CR200000947130000000000000                                                              AMPICILINA /SULBACTAN POLVO LIOF 1.5 GAMP     1
RC0001043033404H202100000556872100000556872113/12/20211129     3300009237421964250000N03AB200001168090000000000000                                                                       FENITOINA Sln Iny 250 mg/5 mlAMP     1
RC0001043033404H202100000556872100000556872113/12/20210625     3300009237421964250000N03AB200001168090000000000000                                                                       FENITOINA Sln Iny 250 mg/5 mlAMP     1
RC0001043033404H202100000556872100000556872113/12/20210021     3300009237421964250000N03AB200001168090000000000000                                                                       FENITOINA Sln Iny 250 mg/5 mlAMP     1
RC0001043033404H202100000556872100000556872113/12/20211129     3300009237421964250000A02BC700001684270000000000000                                                            OMEPRAZOL 40MG POLVO LIOFILIZADO AMPOLLAVAL     1
