CC0001045682190U202100050132035100050132035113/12/20210329    3190286523942196432000013077800000471960000000000000                                                             GASA NO TEJIDA EST 7.5 X 7.5 SOB X 3 UNSOB     5
CC0001045682190U202100050132035100050132035113/12/20210329    3190286523942196432000011089400001083350000000000000                                                              GUANTE ESTERIL LATEX S/POLVO TALLA 8.0SOB     1
CC0001045682190U202100050132035100050132035113/12/20210329    3190286523942196432000011048600000223020000000000000                                                                 JERINGA VACUNACION 3ML C/AGU 302542SIN     1
CC0001045682190U202100050132035100050132035113/12/20210329    3190286523942196432000011047900000223010000000000000                                                                            JERINGA X 1ML REF 302579SIN     1
CC0001045682190U202100050132035100050132035113/12/20210329    3190286523942196432000012475800000232220000000000000                                                                SUTURA ETHILON 4-0 PS-2  45CM P1667TSIN     1
