RC0001044436459H202100015132533500015132533513/12/20210837    31903309237421964250000E1AB0200000199290000000000000                                                            SOLUCION SALINA 0.9% SLN INY BO X 100 MLBIN     1
RC0001048091909H202100015132533500015132533513/12/20210837    31903309237421964250000E1AB0200000199290000000000000                                                            SOLUCION SALINA 0.9% SLN INY BO X 100 MLBIN     1
RC0001048091952H202100015132533500015132533513/12/20210837    31903309237421964250000E1AB0200000199290000000000000                                                            SOLUCION SALINA 0.9% SLN INY BO X 100 MLBIN     1
MS0011408397871H202100015132533500015132533513/12/20210837    3190330923742196425000043485100001618510000000000000                GUANTE QUIRURGICO DE LATEX REF 2D72N65X CAJ X 50 PROTEXIS  6.5 BN EXENTO-DC.417/2020SOB     1
RC0001044018894H202100015132533500015132533513/12/20210837    3190330923742196425000043485100001618510000000000000                GUANTE QUIRURGICO DE LATEX REF 2D72N65X CAJ X 50 PROTEXIS  6.5 BN EXENTO-DC.417/2020SOB     2
RC0001048091952H202100015132533500015132533513/12/20210837    3190330923742196425000043485100001618510000000000000                GUANTE QUIRURGICO DE LATEX REF 2D72N65X CAJ X 50 PROTEXIS  6.5 BN EXENTO-DC.417/2020SOB     3
MS0011408397871H202100015132533500015132533513/12/20210837    3190330923742196425000011085100001082120000000000000                                                                           GUANTE QUIRURGICO TALLA 7SOB     1
RC0001044018894H202100015132533500015132533513/12/20210837    3190330923742196425000011085100001082120000000000000                                                                           GUANTE QUIRURGICO TALLA 7SOB     2
MS0011408397871H202100015132533500015132533513/12/20210837    3190330923742196425000024674000001138340000000000000   JERINGA 3PARTES C/A 10ML REF JEHL005 CAJ X 100 ALFASAFE  21GX1 PULG 1/2 PULG BN EXENTO-DC.417/202PZA     2
RC0001044436459H202100015132533500015132533513/12/20210837    3190330923742196425000024674000001138340000000000000   JERINGA 3PARTES C/A 10ML REF JEHL005 CAJ X 100 ALFASAFE  21GX1 PULG 1/2 PULG BN EXENTO-DC.417/202PZA     4
RC0001048091909H202100015132533500015132533513/12/20210837    3190330923742196425000024674000001138340000000000000   JERINGA 3PARTES C/A 10ML REF JEHL005 CAJ X 100 ALFASAFE  21GX1 PULG 1/2 PULG BN EXENTO-DC.417/202PZA     5
RC0001143474190H202100015132533500015132533513/12/20210837    3190330923742196425000024674000001138340000000000000   JERINGA 3PARTES C/A 10ML REF JEHL005 CAJ X 100 ALFASAFE  21GX1 PULG 1/2 PULG BN EXENTO-DC.417/202PZA     3
RC0001044236218H202100015132533500015132533513/12/20210837    3190330923742196425000024674000001138340000000000000   JERINGA 3PARTES C/A 10ML REF JEHL005 CAJ X 100 ALFASAFE  21GX1 PULG 1/2 PULG BN EXENTO-DC.417/202PZA     3
RC0001143474189H202100015132533500015132533513/12/20210837    3190330923742196425000024674000001138340000000000000   JERINGA 3PARTES C/A 10ML REF JEHL005 CAJ X 100 ALFASAFE  21GX1 PULG 1/2 PULG BN EXENTO-DC.417/202PZA     4
RC0001048091952H202100015132533500015132533513/12/20210837    3190330923742196425000024674000001138340000000000000   JERINGA 3PARTES C/A 10ML REF JEHL005 CAJ X 100 ALFASAFE  21GX1 PULG 1/2 PULG BN EXENTO-DC.417/202PZA     5
MS0011408397871H202100015132533500015132533513/12/20210837    3190330923742196425000035356500003919000000000000000                                                                                        LLAVE 3 VIASSOB     2
RC0001044018894H202100015132533500015132533513/12/20210837    3190330923742196425000035356500003919000000000000000                                                                                        LLAVE 3 VIASSOB     2
RC0001048091952H202100015132533500015132533513/12/20210837    3190330923742196425000035356500003919000000000000000                                                                                        LLAVE 3 VIASSOB     2
MS0011408397871H202100015132533500015132533513/12/20210837    31903309237421964250000V07A1300000502600000000000000                                                                                AGUA ESTERIL x 10 mlAMP     2
RC0001044436459H202100015132533500015132533513/12/20210837    31903309237421964250000V07A1300000502600000000000000                                                                                AGUA ESTERIL x 10 mlAMP     3
RC0001048091909H202100015132533500015132533513/12/20210837    31903309237421964250000V07A1300000502600000000000000                                                                                AGUA ESTERIL x 10 mlAMP     4
RC0001143474190H202100015132533500015132533513/12/20210837    31903309237421964250000V07A1300000502600000000000000                                                                                AGUA ESTERIL x 10 mlAMP     2
RC0001044236218H202100015132533500015132533513/12/20210837    31903309237421964250000V07A1300000502600000000000000                                                                                AGUA ESTERIL x 10 mlAMP     2
RC0001143474189H202100015132533500015132533513/12/20210837    31903309237421964250000V07A1300000502600000000000000                                                                                AGUA ESTERIL x 10 mlAMP     3
RC0001048091952H202100015132533500015132533513/12/20210837    31903309237421964250000V07A1300000502600000000000000                                                                                AGUA ESTERIL x 10 mlAMP     4
RC0001048091952H202100015132533500015132533513/12/20210837    31903309237421964250000Q1AA7400003911720000000000000                                                            CATETER PERIFE INTROCAN # 24G 4251601-04SOB     1
RC0001044436459H202100015132533500015132533513/12/20210837    31903309237421964250000E1AA0200000198980000000000000                                                                          DEXTROSA 5% Sln Iny 100 mlBIN     1
RC0001048091909H202100015132533500015132533513/12/20210837    31903309237421964250000E1AA0200000198980000000000000                                                                          DEXTROSA 5% Sln Iny 100 mlBIN     1
RC0001044018894H202100015132533500015132533513/12/20210837    3190330923742196425000011082700001620070000000000000                                                               EQUIPO SET PRIMARIO C/CLAVE REF 14001BOL     1
RC0001048091952H202100015132533500015132533513/12/20210837    3190330923742196425000011082700001620070000000000000                                                               EQUIPO SET PRIMARIO C/CLAVE REF 14001BOL     1
MS0011408397871H202100015132533500015132533513/12/20210837    3190330923742196425000042743200003929860000000000000                   GASA ADHESIVA STRETCH REF 02038-00 ROL X 10MT FIXOMULL 15CM BN EXENTO-DC.417/2020CMT    20
RC0001044018894H202100015132533500015132533513/12/20210837    3190330923742196425000042743200003929860000000000000                   GASA ADHESIVA STRETCH REF 02038-00 ROL X 10MT FIXOMULL 15CM BN EXENTO-DC.417/2020CMT    20
RC0001044018894H202100015132533500015132533513/12/20210837    3190330923742196425000036441300000236540000000000000                                                                    JERINGA 1 ML GASES ARTERIAL 9023SIN     1
MS0011408397871H202100015132533500015132533513/12/20210837    3190330923742196425000045136100001419300000000000000                                                                            LANCETA DEXTROMETER X UNPZA     2
RC0001044436459H202100015132533500015132533513/12/20210837    3190330923742196425000045136100001419300000000000000                                                                            LANCETA DEXTROMETER X UNPZA     2
RC0001048091909H202100015132533500015132533513/12/20210837    3190330923742196425000045136100001419300000000000000                                                                            LANCETA DEXTROMETER X UNPZA     2
RC0001044018894H202100015132533500015132533513/12/20210837    3190330923742196425000045136100001419300000000000000                                                                            LANCETA DEXTROMETER X UNPZA     2
NV0000170258862H202100015132533500015132533513/12/20210837    3190330923742196425000045136100001419300000000000000                                                                            LANCETA DEXTROMETER X UNPZA     1
RC0001143474190H202100015132533500015132533513/12/20210837    3190330923742196425000045136100001419300000000000000                                                                            LANCETA DEXTROMETER X UNPZA     1
RC0001044236218H202100015132533500015132533513/12/20210837    3190330923742196425000045136100001419300000000000000                                                                            LANCETA DEXTROMETER X UNPZA     2
RC0001047065603H202100015132533500015132533513/12/20210837    3190330923742196425000045136100001419300000000000000                                                                            LANCETA DEXTROMETER X UNPZA     2
RC0001143474189H202100015132533500015132533513/12/20210837    3190330923742196425000045136100001419300000000000000                                                                            LANCETA DEXTROMETER X UNPZA     1
RC0001048091952H202100015132533500015132533513/12/20210837    3190330923742196425000045136100001419300000000000000                                                                            LANCETA DEXTROMETER X UNPZA     2
RC0001048091952H202100015132533500015132533513/12/20210837    31903309237421964250000E1AD0200003888320000000000000                                                                              HARTMAN SLN INY 500 MLBOL     2
RC0001044018894H202100015132533500015132533513/12/20210837    3190330923742196425000011060400001010330000000000000                                                            SENSOR PULSOX SPO2 LNCS NEONATAL MP00792PZA     1
RC0001044018894H202100015132533500015132533513/12/20210837    3190330923742196425000038568300000257010000000000000                                                                                   SONDA NELATON #08SIN     1
MS0011408397871H202100015132533500015132533513/12/20210837    3190330923742196425000011137100001419310000000000000                                                               TIRA GLUCOMETRIA FREESTYLE H OPTIUM .PZA     2
RC0001044436459H202100015132533500015132533513/12/20210837    3190330923742196425000011137100001419310000000000000                                                               TIRA GLUCOMETRIA FREESTYLE H OPTIUM .PZA     2
RC0001048091909H202100015132533500015132533513/12/20210837    3190330923742196425000011137100001419310000000000000                                                               TIRA GLUCOMETRIA FREESTYLE H OPTIUM .PZA     2
RC0001044018894H202100015132533500015132533513/12/20210837    3190330923742196425000011137100001419310000000000000                                                               TIRA GLUCOMETRIA FREESTYLE H OPTIUM .PZA     2
NV0000170258862H202100015132533500015132533513/12/20210837    3190330923742196425000011137100001419310000000000000                                                               TIRA GLUCOMETRIA FREESTYLE H OPTIUM .PZA     1
RC0001143474190H202100015132533500015132533513/12/20210837    3190330923742196425000011137100001419310000000000000                                                               TIRA GLUCOMETRIA FREESTYLE H OPTIUM .PZA     1
RC0001044236218H202100015132533500015132533513/12/20210837    3190330923742196425000011137100001419310000000000000                                                               TIRA GLUCOMETRIA FREESTYLE H OPTIUM .PZA     2
RC0001047065603H202100015132533500015132533513/12/20210837    3190330923742196425000011137100001419310000000000000                                                               TIRA GLUCOMETRIA FREESTYLE H OPTIUM .PZA     2
RC0001143474189H202100015132533500015132533513/12/20210837    3190330923742196425000011137100001419310000000000000                                                               TIRA GLUCOMETRIA FREESTYLE H OPTIUM .PZA     1
RC0001048091952H202100015132533500015132533513/12/20210837    3190330923742196425000011137100001419310000000000000                                                               TIRA GLUCOMETRIA FREESTYLE H OPTIUM .PZA     2
RC0001044436459H202100015132533500015132533513/12/20210837    3190330923742196425000043879200001138180000000000000                                                                                   HOJA BISTURI # 11SOB     1
RC0001048091909H202100015132533500015132533513/12/20210837    3190330923742196425000011070800000471170000000000000                                                                        SAF GEL TUBO X 85 G CONVATECTUB     1
