CC0000022362807H202100015112755800015112755813/12/20210928    3150022123742196425000038568100000258050000000000000                                                                         CANULA OXIGENO NASAL ADULTOSIN     1
CC0000072155925H202100015112755800015112755813/12/20210928    3150022123742196425000011078200001605710000000000000                                                                 CONECTOR FIBROBRONCOSCOPIO 9591 40CSOB     1
CC0000022362807H202100015112755800015112755813/12/20210928    3150022123742196425000043995200000229010000000000000                                                               HUMIDIFICADOR PARA OXIGENO REF. H001BBOL     1
CC0000072155925H202100015112755800015112755813/12/20210928    3150022123742196425000036441300000236540000000000000                                                                    JERINGA 1 ML GASES ARTERIAL 9023SIN     3
CC0000008729778H202100015112755800015112755813/12/20210928    3150022123742196425000036441300000236540000000000000                                                                    JERINGA 1 ML GASES ARTERIAL 9023SIN     3
CC0000072155925H202100015112755800015112755813/12/20210928    3150022123742196425000038569400000256750000000000000                                                                        SONDA ASPIRACION CONTROL #14SIN     6
CC0000008729778H202100015112755800015112755813/12/20210928    3150022123742196425000038569400000256750000000000000                                                                        SONDA ASPIRACION CONTROL #14SIN     6
