CC0001125799256H202100015032662300015032662313/12/20212035    3190260623742196425000042743200003929860000000000000                   GASA ADHESIVA STRETCH REF 02038-00 ROL X 10MT FIXOMULL 15CM BN EXENTO-DC.417/2020CMT    90
CC0000013883322H202100015032662300015032662313/12/20212035    3190260623742196425000042743200003929860000000000000                   GASA ADHESIVA STRETCH REF 02038-00 ROL X 10MT FIXOMULL 15CM BN EXENTO-DC.417/2020CMT    30
CC0001125799256H202100015032662300015032662313/12/20212035    3190260623742196425000013077800000471960000000000000                                                             GASA NO TEJIDA EST 7.5 X 7.5 SOB X 3 UNSOB    10
CC0000013883322H202100015032662300015032662313/12/20212035    3190260623742196425000013077800000471960000000000000                                                             GASA NO TEJIDA EST 7.5 X 7.5 SOB X 3 UNSOB     5
CC0000017065366H202100015032662300015032662313/12/20212035    3190260623742196425000045136100001419300000000000000                                                                            LANCETA DEXTROMETER X UNPZA     2
CC0000022310952H202100015032662300015032662313/12/20212035    3190260623742196425000045136100001419300000000000000                                                                            LANCETA DEXTROMETER X UNPZA     1
CC0000017065366H202100015032662300015032662313/12/20212035    3190260623742196425000011137100001419310000000000000                                                               TIRA GLUCOMETRIA FREESTYLE H OPTIUM .PZA     2
CC0000022310952H202100015032662300015032662313/12/20212035    3190260623742196425000011137100001419310000000000000                                                               TIRA GLUCOMETRIA FREESTYLE H OPTIUM .PZA     1
