CC0000055222931U202100924501122700924501122727/12/20211518    3150051423942196432000024674000001138340000000000000   JERINGA 3PARTES C/A 10ML REF JEHL005 CAJ X 100 ALFASAFE  21GX1 PULG 1/2 PULG BN EXENTO-DC.417/202PZA     1
CC0000055222931U202100924501122700924501122727/12/20211518    3150051423942196432000038568300000257010000000000000                                                                                   SONDA NELATON #08SIN     1
CC0000055222931U202100924501122700924501122727/12/20211518    31500514239421964320000E1AB1100003888280000000000000                                                                        SOLUCION SALINA 0.9% X 50 mlBOL     1
