CC0000028496269H202100000556873600000556873613/12/20211049     3300009237421964250000A7DA0100001303560000000000000                                                                                 LOPERAMIDA TAB 2 MGTAB     2
CC0000028496269H202100000556873600000556873613/12/20210032    31902787237421964250000E1AD0300000199490000000000000                                         LACTATO RINGER USP (HARTMANN)  SOL INY  BOL X 1000ML BAXTERBIN     1
CC0000028496269H202100000556873600000556873613/12/20212234    31902963237421964250000E1BA0700000198910000000000000                                                                   UROMATIC Sln IRRIGACION X 3000 MLBIN     6
CC0000028496269H202100000556873600000556873613/12/20211049     3300009237421964250000B01AB400000513360000000000000                                                                        CLENOX SLN INY 60 MG/ 0.6 MLJRP     1
CC0000028496269H202100000556873600000556873613/12/20211049     3300009237421964250000C02AC200001559150000000000000                                                                              CLONIDINA TAB 0.150 MGTAB     1
CC0000028496269H202100000556873600000556873613/12/20211049     3300009237421964250000C08CA300001313930000000000000                                                                                AMLODIPINO TAB 10 MGTAB     1
CC0000028496269H202100000556873600000556873613/12/20211049     3300009237421964250000N2BB0100001672010000000000000                                  DIPIRONA 1GR/2ML(0.5GR/ML) SOL INY INST CAJ X 100AMP X 2ML VITALISAMP     2
CC0000028496269H202100000556873600000556873613/12/20211049     3300009237421964250000N2AX0900001672040000000000000                                                                              TRAMADOL SLN INY 50 MGAMP     1
