RC0001046723141H202100000556553000000556553004/12/20211445     3300010237421964250000B02AA100001407470000000000000                                                                    CLINTRANEX SLN INY 500 MG / 5 MLAMP     3
RC0001046723141H202100000556553000000556553004/12/20211357    31500568237421964250000E1AB0700003888350000000000000                                                            SOLUCION SALINA 0.9% SLN INY BO X 250 MLBOL     2
RC0001046723141H202100000556553000000556553004/12/20210745    31500568237421964250000E1AB0300003888390000000000000                                                            SOLUCION SALINA 0.9% SLN INY BO X 500 MLBOL     1
RC0001046723141H202100000556553000000556553004/12/20211445     3300010237421964250000H02A0100001664960000000000000                                                                        DEXAMETASONA SLN INY 4 MG/MLAMP     1
RC0001046723141H202100000556553000000556553004/12/20210903     3300010237421964250000H02A0100001664960000000000000                                                                        DEXAMETASONA SLN INY 4 MG/MLAMP     1
RC0001046723141H202100000556553000000556553004/12/20210621     3300009237421964250000H02A0100001664960000000000000                                                                        DEXAMETASONA SLN INY 4 MG/MLAMP     1
RC0001046723141H202100000556553000000556553004/12/20211445     3300010237421964250000N03AG200001590870000000000000                                                            PROVALNOVA SLN INY 100MG/ML VIALX5ML /R/VAL     1
RC0001046723141H202100000556553000000556553004/12/20210903     3300010237421964250000N03AG200001590870000000000000                                                            PROVALNOVA SLN INY 100MG/ML VIALX5ML /R/VAL     1
RC0001046723141H202100000556553000000556553004/12/20210620     3300009237421964250000N03AG200001590870000000000000                                                            PROVALNOVA SLN INY 100MG/ML VIALX5ML /R/VAL     1
RC0001046723141H202100000556553000000556553004/12/20211445     3300010237421964250000N03AX200001063780000000000000                                                                      KEPPRA SLN INY 500 MG/5 ML /R/VAL     1
RC0001046723141H202100000556553000000556553004/12/20210620     3300009237421964250000N03AX200001063780000000000000                                                                      KEPPRA SLN INY 500 MG/5 ML /R/VAL     1
RC0001046723141H202100000556553000000556553004/12/20211445     3300010237421964250000B02BA100000561560000000000000                                                                           VITAMINA K1 SLN INY 10 MGAMP     2
RC0001046723141H202100000556553000000556553004/12/20210903     3300010237421964250000J01CR300003913920000000000000                                                     AUROTAZ-P (4+0.5)GR POLV INY CAJ X 1VIAL X 50MLVAL     1
RC0001046723141H202100000556553000000556553004/12/20211133     3300010237421964250000J1KF0500001317760000000000000                                                                      MEROPENEM POLVO INY 500 MG /R/CAJ     3
RC0001046723141H202100000556553000000556553004/12/20211820     3300009237421964250000N2BB0100001672010000000000000                                  DIPIRONA 1GR/2ML(0.5GR/ML) SOL INY INST CAJ X 100AMP X 2ML VITALISAMP     1
RC0001046723141H202100000556553000000556553004/12/20211445     3300010237421964250000N2BB0100001672010000000000000                                  DIPIRONA 1GR/2ML(0.5GR/ML) SOL INY INST CAJ X 100AMP X 2ML VITALISAMP     1
RC0001046723141H202100000556553000000556553004/12/20210903     3300010237421964250000N2BB0100001672010000000000000                                  DIPIRONA 1GR/2ML(0.5GR/ML) SOL INY INST CAJ X 100AMP X 2ML VITALISAMP     1
RC0001046723141H202100000556553000000556553004/12/20210621     3300009237421964250000N2BB0100001672010000000000000                                  DIPIRONA 1GR/2ML(0.5GR/ML) SOL INY INST CAJ X 100AMP X 2ML VITALISAMP     1
RC0001046723141H202100000556553000000556553004/12/20211357    31500568237421964250000V07A1300000502600000000000000                                                                                AGUA ESTERIL x 10 mlAMP     3
