CC0000009240037H202100015052822300015052822313/12/20212012    3190318423742196425000030936900001431840000000000000                                                                                              BURETABOL     1
CC0001066890191H202100015052822300015052822313/12/20212012    3190318423742196425000030936900001431840000000000000                                                                                              BURETABOL     1
CC0000072259725H202100015052822300015052822313/12/20212012    3190318423742196425000030936900001431840000000000000                                                                                              BURETABOL     1
CC0001045685077H202100015052822300015052822313/12/20212012    3190318423742196425000030936900001431840000000000000                                                                                              BURETABOL     1
CC0000092187007H202100015052822300015052822313/12/20212012    31903184237421964250000Q1AA7300000610640000000000000                                                            CATETER PERIFE INTROCAN # 22G 4251628-04SIN     2
CC0000022633628H202100015052822300015052822313/12/20212012    31903184237421964250000Q1AA7300000610640000000000000                                                            CATETER PERIFE INTROCAN # 22G 4251628-04SIN     2
CC0000092187007H202100015052822300015052822313/12/20212012    3190318423742196425000001956000001620610000000000000                                                                      CONECTOR MICRO CLAVE LAT-MC100SOB     1
CC0000022633628H202100015052822300015052822313/12/20212012    3190318423742196425000001956000001620610000000000000                                                                      CONECTOR MICRO CLAVE LAT-MC100SOB     1
CC0000092187007H202100015052822300015052822313/12/20212012    3190318423742196425000016830000000970620000000000000                                                             SIST FIJACION CAT PERIFERICO 6.5X7 1683SOB     1
CC0000022633628H202100015052822300015052822313/12/20212012    3190318423742196425000016830000000970620000000000000                                                             SIST FIJACION CAT PERIFERICO 6.5X7 1683SOB     1
CC0000009240037H202100015052822300015052822313/12/20212012    31903184237421964250000E1AB0300003888390000000000000                                                            SOLUCION SALINA 0.9% SLN INY BO X 500 MLBOL     1
CC0000072259725H202100015052822300015052822313/12/20212012    31903184237421964250000E1AB0300003888390000000000000                                                            SOLUCION SALINA 0.9% SLN INY BO X 500 MLBOL     1
CC0001045685077H202100015052822300015052822313/12/20212012    31903184237421964250000E1AB0300003888390000000000000                                                            SOLUCION SALINA 0.9% SLN INY BO X 500 MLBOL     2
CC0000022633628H202100015052822300015052822313/12/20212012    31903184237421964250000E1AB0300003888390000000000000                                                            SOLUCION SALINA 0.9% SLN INY BO X 500 MLBOL     1
CC0000028496269H202100015052822300015052822313/12/20212012    3190318423742196425000011127400001413910000000000000                                                            EQUIPO ADMINIST NUTR PUNZON REF 674669 BBOL     1
CC0000009240037H202100015052822300015052822313/12/20212012    3190318423742196425000011082700001620070000000000000                                                               EQUIPO SET PRIMARIO C/CLAVE REF 14001BOL     1
CC0001066890191H202100015052822300015052822313/12/20212012    3190318423742196425000011082700001620070000000000000                                                               EQUIPO SET PRIMARIO C/CLAVE REF 14001BOL     1
CC0000072259725H202100015052822300015052822313/12/20212012    3190318423742196425000011082700001620070000000000000                                                               EQUIPO SET PRIMARIO C/CLAVE REF 14001BOL     1
CC0001045685077H202100015052822300015052822313/12/20212012    3190318423742196425000011082700001620070000000000000                                                               EQUIPO SET PRIMARIO C/CLAVE REF 14001BOL     1
CC0001066890191H202100015052822300015052822313/12/20212012    31903184237421964250000E1AD0300000199490000000000000                                         LACTATO RINGER USP (HARTMANN)  SOL INY  BOL X 1000ML BAXTERBIN     2
CC0000028496269H202100015052822300015052822313/12/20212012    31903184237421964250000E1AD0300000199490000000000000                                         LACTATO RINGER USP (HARTMANN)  SOL INY  BOL X 1000ML BAXTERBIN     2
CC0000092187007H202100015052822300015052822313/12/20212012    31903184237421964250000E1AD0300000199490000000000000                                         LACTATO RINGER USP (HARTMANN)  SOL INY  BOL X 1000ML BAXTERBIN     2
