RC0001034521434H202100000556894000000556894013/12/20211444    31500065237421964250000A02BC100001677520000000000000                                                                ESOMEPRAZOL POLVO LIOF INY 40 MG /R/VAL     2
RC0001034521434H202100000556894000000556894013/12/20211444    31500065237421964250000B3BB0200001315040000000000000                                                                               ACIDO FOLICO Tab 5 mgTAB     1
RC0001034521434H202100000556894000000556894013/12/20211444    31500065237421964250000R3CA0400000777470000000000000                                                               ADRENALINA HCL SLN INY 1 MG / ML RYANAMP     6
RC0001034521434H202100000556894000000556894013/12/20211444    31500065237421964250000N2BB0500000217140000000000000                                                                          NOVALGINA Sln Iny 1 g/2 mlAMP     1
RC0001034521434H202100000556894000000556894013/12/20211444    31500065237421964250000N02B1100001464120000000000000                                           PARACETAMOL EP 1000MG/100ML(10MG/ML) SOL INY  CAJ X 10FCOVAL     1
RC0001034521434H202100000556894000000556894013/12/20211444    31500065237421964250000N03AX200001063780000000000000                                                                      KEPPRA SLN INY 500 MG/5 ML /R/VAL     3
RC0001034521434H202100000556894000000556894013/12/20211444    31500065237421964250000N03A1800001024300000000000000                                                                 VIMPAT SLN INY 10 MG/ML AMP X 20 MLVAL     1
RC0001034521434H202100000556894000000556894013/12/20211153     3300009237421964250000R3AC4400000213780000000000000                                                            PULMICORT SLN NEB ORAL 0.5MG/ML X 2ML /RAPC     2
