CC0000022406887H202100000556575300000556575304/12/20212244    31903152237421964250000E1AB0300003888390000000000000                                                            SOLUCION SALINA 0.9% SLN INY BO X 500 MLBOL     1
CC0000022406887H202100000556575300000556575304/12/20211837     3300009237421964250000C09CA400001277130000000000000                                                                                  LOSARTAN TAB 50 MGTAB     2
CC0000022406887H202100000556575300000556575304/12/20211837     3300009237421964250000C3DA0800001315680000000000000                                                                               METFORMINA TAB 850 MGTAB     1
CC0000022406887H202100000556575300000556575304/12/20211837     3300009237421964250000N2BE2200001252930000000000000                                                                             ACETAMINOFEN Tab 500 MGTAB     8
CC0000022406887H202100000556575300000556575304/12/20211837     3300009237421964250000N2BB0100001672010000000000000                                  DIPIRONA 1GR/2ML(0.5GR/ML) SOL INY INST CAJ X 100AMP X 2ML VITALISAMP     6
