CC0001192780544U202100000556879300000556879313/12/20210342     3300004239421964320000A2BC0900000200150000000000000                                                                               ORAZOLE Sln Iny 40 mgCIN     1
CC0001192780544U202100000556879300000556879313/12/20210342     3300004239421964320000A03F0300001626860000000000000                                                                   METOCLOPRAMIDA SLN INY 10 MG/2 MLAMP     1
CC0001192780544U202100000556879300000556879313/12/20210642     3300004239421964320000A03AX200001391380000000000000                                                                              ALEVIAN CAP 100/300 MGCAP     1
CC0001192780544U202100000556879300000556879313/12/20210342     3300004239421964320000A03AX200001391380000000000000                                                                              ALEVIAN CAP 100/300 MGCAP     1
CC0001192780544U202100000556879300000556879313/12/20210648    31902327239421964320000E1AD0200003888320000000000000                                                                              HARTMAN SLN INY 500 MLBOL     1
CC0001192780544U202100000556879300000556879313/12/20210450    31902327239421964320000E1AD0300000199490000000000000                                         LACTATO RINGER USP (HARTMANN)  SOL INY  BOL X 1000ML BAXTERBIN     1
CC0001192780544U202100000556879300000556879313/12/20210439     3300004239421964320000M1AB0900001019600000000000000                                                                              VOLTAREN Sln Iny 75 mgAMP     1
CC0001192780544U202100000556879300000556879313/12/20210342     3300004239421964320000A3BB0300000512950000000000000                                                             BUSCAPINA COMP Sln Iny 20 mg+2.5 g/5 mlAMP     1
