CC0000051666392U202100000556572100000556572104/12/20211551     3300010239421964320000A3BB0200000512940000000000000                                                                          BUSCAPINA SIMPLE Iny 20 mgAMP     1
CC0000051666392U202100000556572100000556572104/12/20211715     3300010239421964320000B02AA100001407470000000000000                                                                    CLINTRANEX SLN INY 500 MG / 5 MLAMP     2
CC0000051666392U202100000556572100000556572104/12/20211847    31500658239421964320000E1AD0200003888320000000000000                                                                              HARTMAN SLN INY 500 MLBOL     1
CC0000051666392U202100000556572100000556572104/12/20211829    31903158239421964320000E1AD0300000199490000000000000                                         LACTATO RINGER USP (HARTMANN)  SOL INY  BOL X 1000ML BAXTERBIN     1
