CC0000022675873H202100000556883700000556883713/12/20211320     3300009237421964250000V4AF0700001193810000000000000                                                                   NULYTELY 3350 SOBRE X 110.1 G /R/SOB     4
CC0000022675873H202100000556883700000556883713/12/20210839     3300009237421964250000B3BB0200001315040000000000000                                                                               ACIDO FOLICO Tab 5 mgTAB     2
CC0000022675873H202100000556883700000556883713/12/20211723    31500192237421964250000E1AB0500003888400000000000000                                                              SOLUCION SALINA 0.9% SLN INY X 1000 MLBOL     1
CC0000022675873H202100000556883700000556883713/12/20211120    31500192237421964250000E1AD0300000199490000000000000                                         LACTATO RINGER USP (HARTMANN)  SOL INY  BOL X 1000ML BAXTERBIN     2
CC0000022675873H202100000556883700000556883713/12/20210924     3300009237421964250000A02BC700001684270000000000000                                                            OMEPRAZOL 40MG POLVO LIOFILIZADO AMPOLLAVAL     1
