CC0000032658186H202100000025036800000025036802/12/20211432    31903016237421964250000E1AB0200000199290000000000000                                                            SOLUCION SALINA 0.9% SLN INY BO X 100 MLBIN     1
CC0000032446800H202100000025036800000025036802/12/20211432    31903016237421964250000E1AB0200000199290000000000000                                                            SOLUCION SALINA 0.9% SLN INY BO X 100 MLBIN     1
PE939624620081980H202100000025036800000025036802/12/20211432    31903016237421964250000E1AB0200000199290000000000000                                                            SOLUCION SALINA 0.9% SLN INY BO X 100 MLBIN     1
CC0000032687318H202100000025036800000025036802/12/20211432    31903016237421964250000E1AB0200000199290000000000000                                                            SOLUCION SALINA 0.9% SLN INY BO X 100 MLBIN     1
CC0000036541807H202100000025036800000025036802/12/20211432    31903016237421964250000E1AB0200000199290000000000000                                                            SOLUCION SALINA 0.9% SLN INY BO X 100 MLBIN     1
CC0000022704913H202100000025036800000025036802/12/20211432    31903016237421964250000E1AB0200000199290000000000000                                                            SOLUCION SALINA 0.9% SLN INY BO X 100 MLBIN     1
CC0001129571538H202100000025036800000025036802/12/20211432    31903016237421964250000E1AB0200000199290000000000000                                                            SOLUCION SALINA 0.9% SLN INY BO X 100 MLBIN     1
CC0000032636772H202100000025036800000025036802/12/20211432    31903016237421964250000E1AB0200000199290000000000000                                                            SOLUCION SALINA 0.9% SLN INY BO X 100 MLBIN     1
CC0000022544113H202100000025036800000025036802/12/20211432    31903016237421964250000E1AB0200000199290000000000000                                                            SOLUCION SALINA 0.9% SLN INY BO X 100 MLBIN     1
CC0000022623327H202100000025036800000025036802/12/20211432    31903016237421964250000E1AB0200000199290000000000000                                                            SOLUCION SALINA 0.9% SLN INY BO X 100 MLBIN     1
CC0000033221374H202100000025036800000025036802/12/20211432    31903016237421964250000E1AB0200000199290000000000000                                                            SOLUCION SALINA 0.9% SLN INY BO X 100 MLBIN     1
CC0000072096145H202100000025036800000025036802/12/20211432    31903016237421964250000E1AB0200000199290000000000000                                                            SOLUCION SALINA 0.9% SLN INY BO X 100 MLBIN     1
CC0001002158880H202100000025036800000025036802/12/20211432    31903016237421964250000E1AB0200000199290000000000000                                                            SOLUCION SALINA 0.9% SLN INY BO X 100 MLBIN     1
CC0000032745329H202100000025036800000025036802/12/20211432    31903016237421964250000E1AB0200000199290000000000000                                                            SOLUCION SALINA 0.9% SLN INY BO X 100 MLBIN     1
CC0000022416315H202100000025036800000025036802/12/20211432    31903016237421964250000E1AB0200000199290000000000000                                                            SOLUCION SALINA 0.9% SLN INY BO X 100 MLBIN     1
CC0000003770430H202100000025036800000025036802/12/20211432    31903016237421964250000E1AB0200000199290000000000000                                                            SOLUCION SALINA 0.9% SLN INY BO X 100 MLBIN     1
CC0000032658186H202100000025036800000025036802/12/20211432    3190301623742196425000024673600000222980000000000000                                                                     JERINGA DESECHABLE 5 ml 27*11/2SIN     2
CC0000032446800H202100000025036800000025036802/12/20211432    3190301623742196425000024673600000222980000000000000                                                                     JERINGA DESECHABLE 5 ml 27*11/2SIN     2
PE939624620081980H202100000025036800000025036802/12/20211432    3190301623742196425000024673600000222980000000000000                                                                     JERINGA DESECHABLE 5 ml 27*11/2SIN     2
CC0000032687318H202100000025036800000025036802/12/20211432    3190301623742196425000024673600000222980000000000000                                                                     JERINGA DESECHABLE 5 ml 27*11/2SIN     2
CC0000036541807H202100000025036800000025036802/12/20211432    3190301623742196425000024673600000222980000000000000                                                                     JERINGA DESECHABLE 5 ml 27*11/2SIN     2
CC0000022704913H202100000025036800000025036802/12/20211432    3190301623742196425000024673600000222980000000000000                                                                     JERINGA DESECHABLE 5 ml 27*11/2SIN     2
CC0001129571538H202100000025036800000025036802/12/20211432    3190301623742196425000024673600000222980000000000000                                                                     JERINGA DESECHABLE 5 ml 27*11/2SIN     2
CC0000032636772H202100000025036800000025036802/12/20211432    3190301623742196425000024673600000222980000000000000                                                                     JERINGA DESECHABLE 5 ml 27*11/2SIN     2
CC0000022544113H202100000025036800000025036802/12/20211432    3190301623742196425000024673600000222980000000000000                                                                     JERINGA DESECHABLE 5 ml 27*11/2SIN     2
CC0000022623327H202100000025036800000025036802/12/20211432    3190301623742196425000024673600000222980000000000000                                                                     JERINGA DESECHABLE 5 ml 27*11/2SIN     2
CC0000033221374H202100000025036800000025036802/12/20211432    3190301623742196425000024673600000222980000000000000                                                                     JERINGA DESECHABLE 5 ml 27*11/2SIN     2
CC0000072096145H202100000025036800000025036802/12/20211432    3190301623742196425000024673600000222980000000000000                                                                     JERINGA DESECHABLE 5 ml 27*11/2SIN     2
CC0001002158880H202100000025036800000025036802/12/20211432    3190301623742196425000024673600000222980000000000000                                                                     JERINGA DESECHABLE 5 ml 27*11/2SIN     2
CC0000032745329H202100000025036800000025036802/12/20211432    3190301623742196425000024673600000222980000000000000                                                                     JERINGA DESECHABLE 5 ml 27*11/2SIN     2
CC0000022416315H202100000025036800000025036802/12/20211432    3190301623742196425000024673600000222980000000000000                                                                     JERINGA DESECHABLE 5 ml 27*11/2SIN     2
CC0000003770430H202100000025036800000025036802/12/20211432    3190301623742196425000024673600000222980000000000000                                                                     JERINGA DESECHABLE 5 ml 27*11/2SIN     2
CC0000032658186H202100000025036800000025036802/12/20211432    3190301623742196425000024674000001138340000000000000   JERINGA 3PARTES C/A 10ML REF JEHL005 CAJ X 100 ALFASAFE  21GX1 PULG 1/2 PULG BN EXENTO-DC.417/202PZA     2
CC0000032446800H202100000025036800000025036802/12/20211432    3190301623742196425000024674000001138340000000000000   JERINGA 3PARTES C/A 10ML REF JEHL005 CAJ X 100 ALFASAFE  21GX1 PULG 1/2 PULG BN EXENTO-DC.417/202PZA    23
PE939624620081980H202100000025036800000025036802/12/20211432    3190301623742196425000024674000001138340000000000000   JERINGA 3PARTES C/A 10ML REF JEHL005 CAJ X 100 ALFASAFE  21GX1 PULG 1/2 PULG BN EXENTO-DC.417/202PZA     3
CC0000032687318H202100000025036800000025036802/12/20211432    3190301623742196425000024674000001138340000000000000   JERINGA 3PARTES C/A 10ML REF JEHL005 CAJ X 100 ALFASAFE  21GX1 PULG 1/2 PULG BN EXENTO-DC.417/202PZA     3
CC0000036541807H202100000025036800000025036802/12/20211432    3190301623742196425000024674000001138340000000000000   JERINGA 3PARTES C/A 10ML REF JEHL005 CAJ X 100 ALFASAFE  21GX1 PULG 1/2 PULG BN EXENTO-DC.417/202PZA     3
CC0000022704913H202100000025036800000025036802/12/20211432    3190301623742196425000024674000001138340000000000000   JERINGA 3PARTES C/A 10ML REF JEHL005 CAJ X 100 ALFASAFE  21GX1 PULG 1/2 PULG BN EXENTO-DC.417/202PZA     3
CC0001129571538H202100000025036800000025036802/12/20211432    3190301623742196425000024674000001138340000000000000   JERINGA 3PARTES C/A 10ML REF JEHL005 CAJ X 100 ALFASAFE  21GX1 PULG 1/2 PULG BN EXENTO-DC.417/202PZA     3
CC0000032636772H202100000025036800000025036802/12/20211432    3190301623742196425000024674000001138340000000000000   JERINGA 3PARTES C/A 10ML REF JEHL005 CAJ X 100 ALFASAFE  21GX1 PULG 1/2 PULG BN EXENTO-DC.417/202PZA     3
CC0000022544113H202100000025036800000025036802/12/20211432    3190301623742196425000024674000001138340000000000000   JERINGA 3PARTES C/A 10ML REF JEHL005 CAJ X 100 ALFASAFE  21GX1 PULG 1/2 PULG BN EXENTO-DC.417/202PZA     3
CC0000022623327H202100000025036800000025036802/12/20211432    3190301623742196425000024674000001138340000000000000   JERINGA 3PARTES C/A 10ML REF JEHL005 CAJ X 100 ALFASAFE  21GX1 PULG 1/2 PULG BN EXENTO-DC.417/202PZA     3
CC0000033221374H202100000025036800000025036802/12/20211432    3190301623742196425000024674000001138340000000000000   JERINGA 3PARTES C/A 10ML REF JEHL005 CAJ X 100 ALFASAFE  21GX1 PULG 1/2 PULG BN EXENTO-DC.417/202PZA     3
CC0000072096145H202100000025036800000025036802/12/20211432    3190301623742196425000024674000001138340000000000000   JERINGA 3PARTES C/A 10ML REF JEHL005 CAJ X 100 ALFASAFE  21GX1 PULG 1/2 PULG BN EXENTO-DC.417/202PZA     3
CC0001002158880H202100000025036800000025036802/12/20211432    3190301623742196425000024674000001138340000000000000   JERINGA 3PARTES C/A 10ML REF JEHL005 CAJ X 100 ALFASAFE  21GX1 PULG 1/2 PULG BN EXENTO-DC.417/202PZA     3
CC0000032745329H202100000025036800000025036802/12/20211432    3190301623742196425000024674000001138340000000000000   JERINGA 3PARTES C/A 10ML REF JEHL005 CAJ X 100 ALFASAFE  21GX1 PULG 1/2 PULG BN EXENTO-DC.417/202PZA     3
CC0000022416315H202100000025036800000025036802/12/20211432    3190301623742196425000024674000001138340000000000000   JERINGA 3PARTES C/A 10ML REF JEHL005 CAJ X 100 ALFASAFE  21GX1 PULG 1/2 PULG BN EXENTO-DC.417/202PZA     3
CC0000003770430H202100000025036800000025036802/12/20211432    3190301623742196425000024674000001138340000000000000   JERINGA 3PARTES C/A 10ML REF JEHL005 CAJ X 100 ALFASAFE  21GX1 PULG 1/2 PULG BN EXENTO-DC.417/202PZA     3
CC0000032658186H202100000025036800000025036802/12/20211432    3190301623742196425000043879200001138180000000000000                                                                                   HOJA BISTURI # 11SOB     1
CC0000032446800H202100000025036800000025036802/12/20211432    3190301623742196425000043879200001138180000000000000                                                                                   HOJA BISTURI # 11SOB     1
PE939624620081980H202100000025036800000025036802/12/20211432    3190301623742196425000043879200001138180000000000000                                                                                   HOJA BISTURI # 11SOB     1
CC0000032687318H202100000025036800000025036802/12/20211432    3190301623742196425000043879200001138180000000000000                                                                                   HOJA BISTURI # 11SOB     1
CC0000036541807H202100000025036800000025036802/12/20211432    3190301623742196425000043879200001138180000000000000                                                                                   HOJA BISTURI # 11SOB     1
CC0000022704913H202100000025036800000025036802/12/20211432    3190301623742196425000043879200001138180000000000000                                                                                   HOJA BISTURI # 11SOB     1
CC0001129571538H202100000025036800000025036802/12/20211432    3190301623742196425000043879200001138180000000000000                                                                                   HOJA BISTURI # 11SOB     1
CC0000032636772H202100000025036800000025036802/12/20211432    3190301623742196425000043879200001138180000000000000                                                                                   HOJA BISTURI # 11SOB     1
CC0000022544113H202100000025036800000025036802/12/20211432    3190301623742196425000043879200001138180000000000000                                                                                   HOJA BISTURI # 11SOB     1
CC0000022623327H202100000025036800000025036802/12/20211432    3190301623742196425000043879200001138180000000000000                                                                                   HOJA BISTURI # 11SOB     1
CC0000033221374H202100000025036800000025036802/12/20211432    3190301623742196425000043879200001138180000000000000                                                                                   HOJA BISTURI # 11SOB     1
CC0000072096145H202100000025036800000025036802/12/20211432    3190301623742196425000043879200001138180000000000000                                                                                   HOJA BISTURI # 11SOB     1
CC0000032658186H202100000025036800000025036802/12/20211432    3190301623742196425000013077800000471960000000000000                                                             GASA NO TEJIDA EST 7.5 X 7.5 SOB X 3 UNSOB     4
CC0000032446800H202100000025036800000025036802/12/20211432    3190301623742196425000013077800000471960000000000000                                                             GASA NO TEJIDA EST 7.5 X 7.5 SOB X 3 UNSOB     4
PE939624620081980H202100000025036800000025036802/12/20211432    3190301623742196425000013077800000471960000000000000                                                             GASA NO TEJIDA EST 7.5 X 7.5 SOB X 3 UNSOB     4
CC0000032687318H202100000025036800000025036802/12/20211432    3190301623742196425000013077800000471960000000000000                                                             GASA NO TEJIDA EST 7.5 X 7.5 SOB X 3 UNSOB     4
CC0000036541807H202100000025036800000025036802/12/20211432    3190301623742196425000013077800000471960000000000000                                                             GASA NO TEJIDA EST 7.5 X 7.5 SOB X 3 UNSOB     4
CC0000022704913H202100000025036800000025036802/12/20211432    3190301623742196425000013077800000471960000000000000                                                             GASA NO TEJIDA EST 7.5 X 7.5 SOB X 3 UNSOB     4
CC0001129571538H202100000025036800000025036802/12/20211432    3190301623742196425000013077800000471960000000000000                                                             GASA NO TEJIDA EST 7.5 X 7.5 SOB X 3 UNSOB     4
CC0000032636772H202100000025036800000025036802/12/20211432    3190301623742196425000013077800000471960000000000000                                                             GASA NO TEJIDA EST 7.5 X 7.5 SOB X 3 UNSOB     4
CC0000022544113H202100000025036800000025036802/12/20211432    3190301623742196425000013077800000471960000000000000                                                             GASA NO TEJIDA EST 7.5 X 7.5 SOB X 3 UNSOB     4
CC0000022623327H202100000025036800000025036802/12/20211432    3190301623742196425000013077800000471960000000000000                                                             GASA NO TEJIDA EST 7.5 X 7.5 SOB X 3 UNSOB     4
CC0000033221374H202100000025036800000025036802/12/20211432    3190301623742196425000013077800000471960000000000000                                                             GASA NO TEJIDA EST 7.5 X 7.5 SOB X 3 UNSOB     4
CC0000072096145H202100000025036800000025036802/12/20211432    3190301623742196425000013077800000471960000000000000                                                             GASA NO TEJIDA EST 7.5 X 7.5 SOB X 3 UNSOB     4
CC0000032658186H202100000025036800000025036802/12/20211432    31903016237421964250000N1BA2400001687720000000000000                                                    LIDOCAINA 2% SOL INY  CAJ X 50AMP X 10ML CORPAULAMP     2
CC0000032446800H202100000025036800000025036802/12/20211432    31903016237421964250000N1BA2400001687720000000000000                                                    LIDOCAINA 2% SOL INY  CAJ X 50AMP X 10ML CORPAULAMP     2
PE939624620081980H202100000025036800000025036802/12/20211432    31903016237421964250000N1BA2400001687720000000000000                                                    LIDOCAINA 2% SOL INY  CAJ X 50AMP X 10ML CORPAULAMP     2
CC0000032687318H202100000025036800000025036802/12/20211432    31903016237421964250000N1BA2400001687720000000000000                                                    LIDOCAINA 2% SOL INY  CAJ X 50AMP X 10ML CORPAULAMP     2
CC0000036541807H202100000025036800000025036802/12/20211432    31903016237421964250000N1BA2400001687720000000000000                                                    LIDOCAINA 2% SOL INY  CAJ X 50AMP X 10ML CORPAULAMP     2
CC0000022704913H202100000025036800000025036802/12/20211432    31903016237421964250000N1BA2400001687720000000000000                                                    LIDOCAINA 2% SOL INY  CAJ X 50AMP X 10ML CORPAULAMP     2
CC0001129571538H202100000025036800000025036802/12/20211432    31903016237421964250000N1BA2400001687720000000000000                                                    LIDOCAINA 2% SOL INY  CAJ X 50AMP X 10ML CORPAULAMP     2
CC0000032636772H202100000025036800000025036802/12/20211432    31903016237421964250000N1BA2400001687720000000000000                                                    LIDOCAINA 2% SOL INY  CAJ X 50AMP X 10ML CORPAULAMP     2
CC0000022544113H202100000025036800000025036802/12/20211432    31903016237421964250000N1BA2400001687720000000000000                                                    LIDOCAINA 2% SOL INY  CAJ X 50AMP X 10ML CORPAULAMP     2
CC0000022623327H202100000025036800000025036802/12/20211432    31903016237421964250000N1BA2400001687720000000000000                                                    LIDOCAINA 2% SOL INY  CAJ X 50AMP X 10ML CORPAULAMP     2
CC0000033221374H202100000025036800000025036802/12/20211432    31903016237421964250000N1BA2400001687720000000000000                                                    LIDOCAINA 2% SOL INY  CAJ X 50AMP X 10ML CORPAULAMP     2
CC0000072096145H202100000025036800000025036802/12/20211432    31903016237421964250000N1BA2400001687720000000000000                                                    LIDOCAINA 2% SOL INY  CAJ X 50AMP X 10ML CORPAULAMP     2
CC0001002158880H202100000025036800000025036802/12/20211432    31903016237421964250000N1BA2400001687720000000000000                                                    LIDOCAINA 2% SOL INY  CAJ X 50AMP X 10ML CORPAULAMP     2
CC0000032745329H202100000025036800000025036802/12/20211432    31903016237421964250000N1BA2400001687720000000000000                                                    LIDOCAINA 2% SOL INY  CAJ X 50AMP X 10ML CORPAULAMP     2
CC0000022416315H202100000025036800000025036802/12/20211432    31903016237421964250000N1BA2400001687720000000000000                                                    LIDOCAINA 2% SOL INY  CAJ X 50AMP X 10ML CORPAULAMP     2
CC0000003770430H202100000025036800000025036802/12/20211432    31903016237421964250000N1BA2400001687720000000000000                                                    LIDOCAINA 2% SOL INY  CAJ X 50AMP X 10ML CORPAULAMP     2
