RC0001043033404H202100921507121300921507121313/12/20210953    3190315723742196425000011077300001096490000000000000                                                             CIRCUITO PED VENSTAR DOBLE 1 5m MP00338BOL     1
RC0001043033404H202100921507121300921507121313/12/20210953    3190315723742196425000019819800000259860000000000000                                                                           SONDA TRACH CARE 8F 198-5SIN     1
RC0001043033404H202100921507121300921507121313/12/20210953    3190315723742196425000024674000001138340000000000000   JERINGA 3PARTES C/A 10ML REF JEHL005 CAJ X 100 ALFASAFE  21GX1 PULG 1/2 PULG BN EXENTO-DC.417/202PZA     3
RC0001043033404H202100921507121300921507121313/12/20210953    31903157237421964250000E1AB0200000199290000000000000                                                            SOLUCION SALINA 0.9% SLN INY BO X 100 MLBIN     3
RC0001043033404H202100921507121300921507121313/12/20210953    31903157237421964250000Q1AA1000000256790000000000000                                                                         SONDA ASPIRACION CONTROL #8SIN    10
RC0001043033404H202100921507121300921507121313/12/20210953    3190315723742196425000000400100000258110000000000000                                                              TUBO ENDOTRAQUEAL 3.5 Fr C/BALON 86443SOB     1
RC0001043033404H202100921507121300921507121313/12/20210956    3150047523742196425000000400100000258110000000000000                                                              TUBO ENDOTRAQUEAL 3.5 Fr C/BALON 86443SOB     1
RC0001043033404H202100921507121300921507121313/12/20210956    3150047523742196425000011077300001096490000000000000                                                             CIRCUITO PED VENSTAR DOBLE 1 5m MP00338BOL     1
RC0001043033404H202100921507121300921507121313/12/20210956    3150047523742196425000019819800000259860000000000000                                                                           SONDA TRACH CARE 8F 198-5SIN     1
RC0001043033404H202100921507121300921507121313/12/20210956    3150047523742196425000024674000001138340000000000000   JERINGA 3PARTES C/A 10ML REF JEHL005 CAJ X 100 ALFASAFE  21GX1 PULG 1/2 PULG BN EXENTO-DC.417/202PZA     3
RC0001043033404H202100921507121300921507121313/12/20210956    31500475237421964250000E1AB0200000199290000000000000                                                            SOLUCION SALINA 0.9% SLN INY BO X 100 MLBIN     3
RC0001043033404H202100921507121300921507121313/12/20210956    31500475237421964250000Q1AA1000000256790000000000000                                                                         SONDA ASPIRACION CONTROL #8SIN    10
