CC0000032872867U202100911963122000911963122020/12/20211209    3190100523942196432000011082700001620070000000000000                                                               EQUIPO SET PRIMARIO C/CLAVE REF 14001BOL     1
CC0000032872867U202100911963122000911963122020/12/20211209    3190100523942196432000024674000001138340000000000000   JERINGA 3PARTES C/A 10ML REF JEHL005 CAJ X 100 ALFASAFE  21GX1 PULG 1/2 PULG BN EXENTO-DC.417/202PZA     2
CC0000032872867U202100911963122000911963122020/12/20211209    3190100523942196432000030936900001431840000000000000                                                                                              BURETABOL     1
CC0000032872867U202100911963122000911963122020/12/20211209    3190100523942196432000001956000001620610000000000000                                                                      CONECTOR MICRO CLAVE LAT-MC100SOB     1
CC0000032872867U202100911963122000911963122020/12/20211209    3190100523942196432000000602600001259280000000000000                                                             APOSITO TEGADERM IV PD 1610 5CM X 5.7CMSOB     1
CC0000032872867U202100911963122000911963122020/12/20211209    31901005239421964320000Q1AA7200000610630000000000000                                                            CATETER PERIFE INTROCAN # 20G 4251644-04SIN     1
