CC0001127243206H202100000556562100000556562104/12/20211023    31903290237421964250000A2BC0900000200150000000000000                                                                               ORAZOLE Sln Iny 40 mgCIN     3
CC0001127243206H202100000556562100000556562104/12/20211023    31903290237421964250000A4AD0200000202990000000000000                                                                     PLITICAN HCL Sln Iny 50 mg/2 mlAMP     2
CC0001127243206H202100000556562100000556562104/12/20211023    31903290237421964250000B1AB0300003939210000000000000                 ENOXAPARINA SODICA 20MG/0.2ML(100MG/ML) SOL INY INST CAJ X 2JERPREL X 0.2ML TECHDOWJRP     1
CC0001127243206H202100000556562100000556562104/12/20211023    31903290237421964250000A3BB0300000512950000000000000                                                             BUSCAPINA COMP Sln Iny 20 mg+2.5 g/5 mlAMP     2
