RC0001048084791U202100920913120100920913120101/12/20210504    3190271223942196432000011082700001620070000000000000                                                               EQUIPO SET PRIMARIO C/CLAVE REF 14001BOL     1
RC0001048084791U202100920913120100920913120101/12/20210504    3190271223942196432000024674000001138340000000000000   JERINGA 3PARTES C/A 10ML REF JEHL005 CAJ X 100 ALFASAFE  21GX1 PULG 1/2 PULG BN EXENTO-DC.417/202PZA     1
RC0001048084791U202100920913120100920913120101/12/20210504    3190271223942196432000030936900001431840000000000000                                                                                              BURETABOL     1
RC0001048084791U202100920913120100920913120101/12/20210504    3190271223942196432000001956000001620610000000000000                                                                      CONECTOR MICRO CLAVE LAT-MC100SOB     1
RC0001048084791U202100920913120100920913120101/12/20210504    31902712239421964320000Q1AA7400003911720000000000000                                                            CATETER PERIFE INTROCAN # 24G 4251601-04SOB     1
RC0001048084791U202100920913120100920913120101/12/20210504    31902712239421964320000E1AD0200003888320000000000000                                                                              HARTMAN SLN INY 500 MLBOL     1
RC0001048084791U202100920913120100920913120101/12/20210633    3190016323942196432000024673600000222980000000000000                                                                     JERINGA DESECHABLE 5 ml 27*11/2SIN     1
RC0001048084791U202100920913120100920913120101/12/20210633    31900163239421964320000E1AD0200003888320000000000000                                                                              HARTMAN SLN INY 500 MLBOL     1
