CC0000032776593H202100000556887800000556887813/12/20211016     3300009237421964250000B1AB1400000718160000000000000                                                                  FRAXIPARINA SLN INY 3800 UI/0.4 MLJRP     1
CC0000032776593H202100000556887800000556887813/12/20211453    31500526237421964250000E1AD0200003888320000000000000                                                                              HARTMAN SLN INY 500 MLBOL     2
CC0000032776593H202100000556887800000556887813/12/20212149    31901634237421964250000E1AD0300000199490000000000000                                         LACTATO RINGER USP (HARTMANN)  SOL INY  BOL X 1000ML BAXTERBIN     1
CC0000032776593H202100000556887800000556887813/12/20211016     3300009237421964250000A12BA100000552980000000000000                                                            CLORURO POTASIO Sln Iny AMP 20 MEQ/10 MLAMP     2
CC0000032776593H202100000556887800000556887813/12/20211015     3300009237421964250000V6DF5300000302770000000000000                                                                        ENSURE PLUS HN LCP X 1000 MLFCO     1
CC0000032776593H202100000556887800000556887813/12/20211015     3300009237421964250000J01DD500001239970000000000000                                                                  CEFTRIAXONA POLVO LIOF SLN INY 1 GVAL     2
CC0000032776593H202100000556887800000556887813/12/20211015     3300009237421964250000J01F0500001314830000000000000                                                                             ERITROMICINA Tab 500 mgTAB     3
CC0000032776593H202100000556887800000556887813/12/20211015     3300009237421964250000N2BE2200001252930000000000000                                                                             ACETAMINOFEN Tab 500 MGTAB     4
CC0000032776593H202100000556887800000556887813/12/20211016     3300009237421964250000N2AX0900001672040000000000000                                                                              TRAMADOL SLN INY 50 MGAMP     2
CC0000032776593H202100000556887800000556887813/12/20211015     3300009237421964250000A02BC700001684270000000000000                                                            OMEPRAZOL 40MG POLVO LIOFILIZADO AMPOLLAVAL     1
