CC0000073430959U202100921562120500921562120505/12/20211559    3190180623942196432000011082700001620070000000000000                                                               EQUIPO SET PRIMARIO C/CLAVE REF 14001BOL     1
CC0000073430959U202100921562120500921562120505/12/20211559    3190180623942196432000016830000000970620000000000000                                                             SIST FIJACION CAT PERIFERICO 6.5X7 1683SOB     1
CC0000073430959U202100921562120500921562120505/12/20211559    3190180623942196432000030936900001431840000000000000                                                                                              BURETABOL     1
CC0000073430959U202100921562120500921562120505/12/20211559    31901806239421964320000Q1AA7100000610620000000000000                                                            CATETER PERIFE INTROCAN # 18G 4251687-04SIN     1
CC0000073430959U202100921562120500921562120505/12/20211559    31901806239421964320000E1AD0300000199490000000000000                                         LACTATO RINGER USP (HARTMANN)  SOL INY  BOL X 1000ML BAXTERBIN     2
