CC0000080424776H202100015022569700015022569713/12/20212343    3190279623742196425000030936900001431840000000000000                                                                                              BURETABOL     1
CC0000080424776H202100015022569700015022569713/12/20212343    3190279623742196425000022426800001140510000000000000                                                                    EQUIPO MACROGOTEO BAXTER MRC0001SOB     1
CC0000080424776H202100015022569700015022569713/12/20212343    31902796237421964250000E1AB0500003888400000000000000                                                              SOLUCION SALINA 0.9% SLN INY X 1000 MLBOL     1
