CC0000028496269H202100000556548400000556548404/12/20210957    31500624237421964250000E1AD0300000199490000000000000                                         LACTATO RINGER USP (HARTMANN)  SOL INY  BOL X 1000ML BAXTERBIN     2
CC0000028496269H202100000556548400000556548404/12/20210813     3300009237421964250000C09C0100001316940000000000000                                                                               DIOVAN TAB 160 MG /R/TAB     1
CC0000028496269H202100000556548400000556548404/12/20210335     3300009237421964250000V6DF5300000302770000000000000                                                                        ENSURE PLUS HN LCP X 1000 MLFCO     2
CC0000028496269H202100000556548400000556548404/12/20210813     3300009237421964250000B01AB400000513360000000000000                                                                        CLENOX SLN INY 60 MG/ 0.6 MLJRP     1
CC0000028496269H202100000556548400000556548404/12/20210813     3300009237421964250000C02AC200001559150000000000000                                                                              CLONIDINA TAB 0.150 MGTAB     2
CC0000028496269H202100000556548400000556548404/12/20210814     3300009237421964250000C03D0200001334290000000000000                                                                           ESPIRONOLACTONA TAB 25 MGTAB     2
CC0000028496269H202100000556548400000556548404/12/20210813     3300009237421964250000C08CA300001313930000000000000                                                                                AMLODIPINO TAB 10 MGTAB     1
CC0000028496269H202100000556548400000556548404/12/20211325     3300009237421964250000J01CR200000947130000000000000                                                              AMPICILINA /SULBACTAN POLVO LIOF 1.5 GAMP     2
CC0000028496269H202100000556548400000556548404/12/20210813     3300009237421964250000J01CR200000947130000000000000                                                              AMPICILINA /SULBACTAN POLVO LIOF 1.5 GAMP     2
CC0000028496269H202100000556548400000556548404/12/20211112     3300009237421964250000N2BE2200001252930000000000000                                                                             ACETAMINOFEN Tab 500 MGTAB     8
CC0000028496269H202100000556548400000556548404/12/20211325     3300009237421964250000N2BB0100001672010000000000000                                  DIPIRONA 1GR/2ML(0.5GR/ML) SOL INY INST CAJ X 100AMP X 2ML VITALISAMP     1
CC0000028496269H202100000556548400000556548404/12/20210814     3300009237421964250000N2BB0100001672010000000000000                                  DIPIRONA 1GR/2ML(0.5GR/ML) SOL INY INST CAJ X 100AMP X 2ML VITALISAMP     2
CC0000028496269H202100000556548400000556548404/12/20210814     3300009237421964250000N2AX0900001672040000000000000                                                                              TRAMADOL SLN INY 50 MGAMP     2
CC0000028496269H202100000556548400000556548404/12/20210814     3300009237421964250000A02BC700001684270000000000000                                                            OMEPRAZOL 40MG POLVO LIOFILIZADO AMPOLLAVAL     1
CC0000028496269H202100000556548400000556548404/12/20211017    31903300237421964250000V07A1300000502600000000000000                                                                                AGUA ESTERIL x 10 mlAMP    10
