RC0001044231757U202100000556886100000556886113/12/20210949     3300010239421964320000A2BC0900000200150000000000000                                                                               ORAZOLE Sln Iny 40 mgCIN     1
RC0001044231757U202100000556886100000556886113/12/20210949     3300010239421964320000A3BB0200000512940000000000000                                                                          BUSCAPINA SIMPLE Iny 20 mgAMP     1
RC0001044231757U202100000556886100000556886113/12/20211554     3300010239421964320000A07C0400000953120000000000000                                                            ENTEROLYTE SUERO ORAL 75 MEQ X 400ML /R/FCO     1
RC0001044231757U202100000556886100000556886113/12/20211925    31500177239421964320000E1AD0200003888320000000000000                                                                              HARTMAN SLN INY 500 MLBOL     1
RC0001044231757U202100000556886100000556886113/12/20211252    31500177239421964320000E1AD0200003888320000000000000                                                                              HARTMAN SLN INY 500 MLBOL     1
