CC0000008880097H202100015052823000015052823013/12/20212236    3190265323742196425000030936900001431840000000000000                                                                                              BURETABOL     1
CC0000008536017H202100015052823000015052823013/12/20212236    3190265323742196425000030936900001431840000000000000                                                                                              BURETABOL     1
CC0001045170547H202100015052823000015052823013/12/20212236    3190265323742196425000022426800001140510000000000000                                                                    EQUIPO MACROGOTEO BAXTER MRC0001SOB     1
CC0000003779763H202100015052823000015052823013/12/20212236    3190265323742196425000045136100001419300000000000000                                                                            LANCETA DEXTROMETER X UNPZA     5
CC0000003779763H202100015052823000015052823013/12/20212236    3190265323742196425000011137100001419310000000000000                                                               TIRA GLUCOMETRIA FREESTYLE H OPTIUM .PZA     5
