CC0000051776557U202100000556908000000556908013/12/20211849    31500292239421964320000E1AB0700003888350000000000000                                                            SOLUCION SALINA 0.9% SLN INY BO X 250 MLBOL     1
CC0000051776557U202100000556908000000556908013/12/20211823     3300010239421964320000H02AB500001664950000000000000                                                            DEXAMETASONA SLN INY 8 MG/2 ML AMP /CDS/AMP     1
CC0000051776557U202100000556908000000556908013/12/20211823     3300010239421964320000N02B1100001464120000000000000                                           PARACETAMOL EP 1000MG/100ML(10MG/ML) SOL INY  CAJ X 10FCOVAL     1
