RC0001046729855U202100922275121000922275121010/12/20211805    3150029423942196432000011082700001620070000000000000                                                               EQUIPO SET PRIMARIO C/CLAVE REF 14001BOL     1
RC0001046729855U202100922275121000922275121010/12/20211805    3150029423942196432000024673600000222980000000000000                                                                     JERINGA DESECHABLE 5 ml 27*11/2SIN     2
RC0001046729855U202100922275121000922275121010/12/20211805    3150029423942196432000030936900001431840000000000000                                                                                              BURETABOL     1
RC0001046729855U202100922275121000922275121010/12/20211805    31500294239421964320000Q1AA7300000610640000000000000                                                            CATETER PERIFE INTROCAN # 22G 4251628-04SIN     1
RC0001046729855U202100922275121000922275121010/12/20211805    3150029423942196432000001956000001620610000000000000                                                                      CONECTOR MICRO CLAVE LAT-MC100SOB     1
RC0001046729855U202100922275121000922275121010/12/20211805    3150029423942196432000000602600001259280000000000000                                                             APOSITO TEGADERM IV PD 1610 5CM X 5.7CMSOB     1
RC0001046729855U202100922275121000922275121010/12/20211805    31500294239421964320000E1AD0300000199490000000000000                                         LACTATO RINGER USP (HARTMANN)  SOL INY  BOL X 1000ML BAXTERBIN     1
