RC0001048090490U202100000557228200000557228221/12/20212015     3300004239421964320000A12C0500000947840000000000000                                                               SULZINC SLN ORAL 2 MG/ML X 120 ML /R/FCO     1
RC0001048090490U202100000557228200000557228221/12/20212333    31901453239421964320000E1AC0100000199400000000000000                                                                          SUERO MIXTO Sln Iny 500 mlBIN     1
RC0001048090490U202100000557228200000557228221/12/20211616    31900939239421964320000E1AD0200003888320000000000000                                                                              HARTMAN SLN INY 500 MLBOL     1
RC0001048090490U202100000557228200000557228221/12/20212015     3300004239421964320000A12BA100000552980000000000000                                                            CLORURO POTASIO Sln Iny AMP 20 MEQ/10 MLAMP     1
RC0001048090490U202100000557228200000557228221/12/20212015     3300004239421964320000J1DA3100000187510000000000000                                                                           ROCEFIN Polvo SLN INY 1 GCIN     1
RC0001048090490U202100000557228200000557228221/12/20212015     3300004239421964320000N02B1100001464120000000000000                                           PARACETAMOL EP 1000MG/100ML(10MG/ML) SOL INY  CAJ X 10FCOVAL     1
