RC0001046726799U202100923482121800923482121818/12/20211759    3150065723942196432000011082700001620070000000000000                                                               EQUIPO SET PRIMARIO C/CLAVE REF 14001BOL     1
RC0001046726799U202100923482121800923482121818/12/20211759    3150065723942196432000016830000000970620000000000000                                                             SIST FIJACION CAT PERIFERICO 6.5X7 1683SOB     1
RC0001046726799U202100923482121800923482121818/12/20211759    3150065723942196432000024674000001138340000000000000   JERINGA 3PARTES C/A 10ML REF JEHL005 CAJ X 100 ALFASAFE  21GX1 PULG 1/2 PULG BN EXENTO-DC.417/202PZA     2
RC0001046726799U202100923482121800923482121818/12/20211759    3150065723942196432000030936900001431840000000000000                                                                                              BURETABOL     1
RC0001046726799U202100923482121800923482121818/12/20211759    31500657239421964320000Q1AA7300000610640000000000000                                                            CATETER PERIFE INTROCAN # 22G 4251628-04SIN     1
RC0001046726799U202100923482121800923482121818/12/20211759    3150065723942196432000001956000001620610000000000000                                                                      CONECTOR MICRO CLAVE LAT-MC100SOB     1
RC0001046726799U202100923482121800923482121818/12/20211759    31500657239421964320000E1AD0300000199490000000000000                                         LACTATO RINGER USP (HARTMANN)  SOL INY  BOL X 1000ML BAXTERBIN     1
