CC0001042420338U202100922880121400922880121414/12/20212159    3190180623942196432000011082700001620070000000000000                                                               EQUIPO SET PRIMARIO C/CLAVE REF 14001BOL     1
CC0001042420338U202100922880121400922880121414/12/20212159    3190180623942196432000030936900001431840000000000000                                                                                              BURETABOL     1
CC0001042420338U202100922880121400922880121414/12/20212333    3190180623942196432000024673600000222980000000000000                                                                     JERINGA DESECHABLE 5 ml 27*11/2SIN     1
CC0001042420338U202100922880121400922880121414/12/20212333    31901806239421964320000Q1AA7300000610640000000000000                                                            CATETER PERIFE INTROCAN # 22G 4251628-04SIN     1
CC0001042420338U202100922880121400922880121414/12/20212333    3190180623942196432000000602600001259280000000000000                                                             APOSITO TEGADERM IV PD 1610 5CM X 5.7CMSOB     1
CC0001042420338U202100922880121400922880121414/12/20212333    31901806239421964320000E1AD0200003888320000000000000                                                                              HARTMAN SLN INY 500 MLBOL     1
