TI0001011214689H202100000556872000000556872013/12/20212156     3300003237421964250000A10A1800000725300000000000000                                                             LANTUS SOLOSTAR JER 100 UI/ML X 3 ML /RCAJ     1
TI0001011214689H202100000556872000000556872013/12/20212156     3300003237421964250000A10A1900000601020000000000000                                                                   APIDRA CARTU 100 UI/ML X 3 ML /R/CAR     1
TI0001011214689H202100000556872000000556872013/12/20211924    31901668237421964250000E1AB0300003888390000000000000                                                            SOLUCION SALINA 0.9% SLN INY BO X 500 MLBOL     1
TI0001011214689H202100000556872000000556872013/12/20211254    31903307237421964250000E1AB0300003888390000000000000                                                            SOLUCION SALINA 0.9% SLN INY BO X 500 MLBOL     1
TI0001011214689H202100000556872000000556872013/12/20211254    31903307237421964250000E1AB0500003888400000000000000                                                              SOLUCION SALINA 0.9% SLN INY X 1000 MLBOL     2
TI0001011214689H202100000556872000000556872013/12/20211802     3300009237421964250000A12BA100000552980000000000000                                                            CLORURO POTASIO Sln Iny AMP 20 MEQ/10 MLAMP     3
TI0001011214689H202100000556872000000556872013/12/20211801     3300009237421964250000A12BA100000552980000000000000                                                            CLORURO POTASIO Sln Iny AMP 20 MEQ/10 MLAMP     1
TI0001011214689H202100000556872000000556872013/12/20211447     3300009237421964250000A12BA100000552980000000000000                                                            CLORURO POTASIO Sln Iny AMP 20 MEQ/10 MLAMP     3
TI0001011214689H202100000556872000000556872013/12/20210020     3300009237421964250000A12BA100000552980000000000000                                                            CLORURO POTASIO Sln Iny AMP 20 MEQ/10 MLAMP     1
TI0001011214689H202100000556872000000556872013/12/20211447     3300009237421964250000N2BE1100000836430000000000000                                             ACETAMINOFEN 150MG/5ML(3%) JBE INST FCO X 60ML AMER GENCAJ     1
TI0001011214689H202100000556872000000556872013/12/20211128     3300009237421964250000J01DD500001239970000000000000                                                                  CEFTRIAXONA POLVO LIOF SLN INY 1 GVAL     1
TI0001011214689H202100000556872000000556872013/12/20210020     3300009237421964250000J01DD500001239970000000000000                                                                  CEFTRIAXONA POLVO LIOF SLN INY 1 GVAL     1
