CC0000000831099U202100050132042000050132042013/12/20211454    3190016323942196432000001956000001620610000000000000                                                                      CONECTOR MICRO CLAVE LAT-MC100SOB     1
TI0001042266711U202100050132042000050132042013/12/20211454    3190016323942196432000011048600000223020000000000000                                                                 JERINGA VACUNACION 3ML C/AGU 302542SIN     1
RC0001046737987U202100050132042000050132042013/12/20211454    3190016323942196432000011048600000223020000000000000                                                                 JERINGA VACUNACION 3ML C/AGU 302542SIN     1
