TI0001063956066H202100000556555800000556555804/12/20210801     3300010237421964250000A2BC0900000200150000000000000                                                                               ORAZOLE Sln Iny 40 mgCIN     2
TI0001063956066H202100000556555800000556555804/12/20210802     3300010237421964250000A02BX300001378440000000000000                                                                    DIP SUSP ORAL 1 G /5 ML X 200 MLFCO     1
TI0001063956066H202100000556555800000556555804/12/20211302     3300009237421964250000B02AA100001407470000000000000                                                                    CLINTRANEX SLN INY 500 MG / 5 MLAMP     4
TI0001063956066H202100000556555800000556555804/12/20211400    31500568237421964250000E1AD0300000199490000000000000                                         LACTATO RINGER USP (HARTMANN)  SOL INY  BOL X 1000ML BAXTERBIN     4
TI0001063956066H202100000556555800000556555804/12/20211400    31500568237421964250000V07A1300000502600000000000000                                                                                AGUA ESTERIL x 10 mlAMP     3
