CC0000022675440A202100000027864000000027864013/12/20211028    3190333624042196419000011099300000777780000000000000                                                                     FILTRO BACTERIANO VIRICO ADULTOBOL     1
CC0000022675440A202100000027864000000027864013/12/20211028    3190333624042196419000011065700003914100000000000000                                                                 TAPON HEPARINIZADO 4238010  B BRAUNSOB     1
CC0000022675440A202100000027864000000027864013/12/20211028    31903336240421964190000Q1AA7200000610630000000000000                                                            CATETER PERIFE INTROCAN # 20G 4251644-04SIN     1
CC0000022675440A202100000027864000000027864013/12/20211028    3190333624042196419000038568100000258050000000000000                                                                         CANULA OXIGENO NASAL ADULTOSIN     1
CC0000022675440A202100000027864000000027864013/12/20211028    3190333624042196419000011085200001585390000000000000                                                                       GUANTE QUIRURGICO TALLA 7 1/2SOB     1
CC0000022675440A202100000027864000000027864013/12/20211028    3190333624042196419000024674000001138340000000000000   JERINGA 3PARTES C/A 10ML REF JEHL005 CAJ X 100 ALFASAFE  21GX1 PULG 1/2 PULG BN EXENTO-DC.417/202PZA     3
CC0000022675440A202100000027864000000027864013/12/20211028    31903336240421964190000D7AB0100001127750000000000000                                                            KENACORT ACE SUSP INY 10 MG/ML X 5 ML /RVAL     1
CC0000022675440A202100000027864000000027864013/12/20211028    31903336240421964190000N01B1300001195250000000000000                                                                         BUPIROP 0.5% S/EPIN X 10 MLAMP     1
