CC0000003779763H202100000025037900000025037921/12/20211641    3190301623742196425000001956000001620610000000000000                                                                      CONECTOR MICRO CLAVE LAT-MC100SOB     1
CC0000007473802H202100000025037900000025037921/12/20211641    3190301623742196425000001956000001620610000000000000                                                                      CONECTOR MICRO CLAVE LAT-MC100SOB     1
CE0000000742690H202100000025037900000025037921/12/20211641    3190301623742196425000001956000001620610000000000000                                                                      CONECTOR MICRO CLAVE LAT-MC100SOB     1
PE960660711021973H202100000025037900000025037921/12/20211641    3190301623742196425000001956000001620610000000000000                                                                      CONECTOR MICRO CLAVE LAT-MC100SOB     1
CC0000057429861H202100000025037900000025037921/12/20211641    3190301623742196425000001956000001620610000000000000                                                                      CONECTOR MICRO CLAVE LAT-MC100SOB     1
CC0000003779763H202100000025037900000025037921/12/20211641    3190301623742196425000043485100001618510000000000000                GUANTE QUIRURGICO DE LATEX REF 2D72N65X CAJ X 50 PROTEXIS  6.5 BN EXENTO-DC.417/2020SOB     4
CC0000007473802H202100000025037900000025037921/12/20211641    3190301623742196425000043485100001618510000000000000                GUANTE QUIRURGICO DE LATEX REF 2D72N65X CAJ X 50 PROTEXIS  6.5 BN EXENTO-DC.417/2020SOB     4
CE0000000742690H202100000025037900000025037921/12/20211641    3190301623742196425000043485100001618510000000000000                GUANTE QUIRURGICO DE LATEX REF 2D72N65X CAJ X 50 PROTEXIS  6.5 BN EXENTO-DC.417/2020SOB     4
PE960660711021973H202100000025037900000025037921/12/20211641    3190301623742196425000043485100001618510000000000000                GUANTE QUIRURGICO DE LATEX REF 2D72N65X CAJ X 50 PROTEXIS  6.5 BN EXENTO-DC.417/2020SOB     4
CC0000057429861H202100000025037900000025037921/12/20211641    3190301623742196425000043485100001618510000000000000                GUANTE QUIRURGICO DE LATEX REF 2D72N65X CAJ X 50 PROTEXIS  6.5 BN EXENTO-DC.417/2020SOB     4
CC0001002072715H202100000025037900000025037921/12/20211641    3190301623742196425000043485100001618510000000000000                GUANTE QUIRURGICO DE LATEX REF 2D72N65X CAJ X 50 PROTEXIS  6.5 BN EXENTO-DC.417/2020SOB     4
CC0000072130025H202100000025037900000025037921/12/20211641    3190301623742196425000043485100001618510000000000000                GUANTE QUIRURGICO DE LATEX REF 2D72N65X CAJ X 50 PROTEXIS  6.5 BN EXENTO-DC.417/2020SOB     4
CC0001043019036H202100000025037900000025037921/12/20211641    3190301623742196425000043485100001618510000000000000                GUANTE QUIRURGICO DE LATEX REF 2D72N65X CAJ X 50 PROTEXIS  6.5 BN EXENTO-DC.417/2020SOB     4
CC0000022746618H202100000025037900000025037921/12/20211641    3190301623742196425000043485100001618510000000000000                GUANTE QUIRURGICO DE LATEX REF 2D72N65X CAJ X 50 PROTEXIS  6.5 BN EXENTO-DC.417/2020SOB     4
CC0000032756603H202100000025037900000025037921/12/20211641    3190301623742196425000043485100001618510000000000000                GUANTE QUIRURGICO DE LATEX REF 2D72N65X CAJ X 50 PROTEXIS  6.5 BN EXENTO-DC.417/2020SOB     4
CC0000026880556H202100000025037900000025037921/12/20211641    3190301623742196425000043485100001618510000000000000                GUANTE QUIRURGICO DE LATEX REF 2D72N65X CAJ X 50 PROTEXIS  6.5 BN EXENTO-DC.417/2020SOB     4
PE960660711021973H202100000025037900000025037921/12/20211641    3190301623742196425000024673600000222980000000000000                                                                     JERINGA DESECHABLE 5 ml 27*11/2SIN     4
CC0000057429861H202100000025037900000025037921/12/20211641    3190301623742196425000024673600000222980000000000000                                                                     JERINGA DESECHABLE 5 ml 27*11/2SIN     4
CC0001002072715H202100000025037900000025037921/12/20211641    3190301623742196425000024673600000222980000000000000                                                                     JERINGA DESECHABLE 5 ml 27*11/2SIN     4
CC0000072130025H202100000025037900000025037921/12/20211641    3190301623742196425000024673600000222980000000000000                                                                     JERINGA DESECHABLE 5 ml 27*11/2SIN     4
CC0000003779763H202100000025037900000025037921/12/20211641    3190301623742196425000024674000001138340000000000000   JERINGA 3PARTES C/A 10ML REF JEHL005 CAJ X 100 ALFASAFE  21GX1 PULG 1/2 PULG BN EXENTO-DC.417/202PZA     6
CC0000007473802H202100000025037900000025037921/12/20211641    3190301623742196425000024674000001138340000000000000   JERINGA 3PARTES C/A 10ML REF JEHL005 CAJ X 100 ALFASAFE  21GX1 PULG 1/2 PULG BN EXENTO-DC.417/202PZA     6
CE0000000742690H202100000025037900000025037921/12/20211641    3190301623742196425000024674000001138340000000000000   JERINGA 3PARTES C/A 10ML REF JEHL005 CAJ X 100 ALFASAFE  21GX1 PULG 1/2 PULG BN EXENTO-DC.417/202PZA     6
PE960660711021973H202100000025037900000025037921/12/20211641    3190301623742196425000024674000001138340000000000000   JERINGA 3PARTES C/A 10ML REF JEHL005 CAJ X 100 ALFASAFE  21GX1 PULG 1/2 PULG BN EXENTO-DC.417/202PZA     3
CC0000057429861H202100000025037900000025037921/12/20211641    3190301623742196425000024674000001138340000000000000   JERINGA 3PARTES C/A 10ML REF JEHL005 CAJ X 100 ALFASAFE  21GX1 PULG 1/2 PULG BN EXENTO-DC.417/202PZA     3
CC0001002072715H202100000025037900000025037921/12/20211641    3190301623742196425000024674000001138340000000000000   JERINGA 3PARTES C/A 10ML REF JEHL005 CAJ X 100 ALFASAFE  21GX1 PULG 1/2 PULG BN EXENTO-DC.417/202PZA     3
CC0000072130025H202100000025037900000025037921/12/20211641    3190301623742196425000024674000001138340000000000000   JERINGA 3PARTES C/A 10ML REF JEHL005 CAJ X 100 ALFASAFE  21GX1 PULG 1/2 PULG BN EXENTO-DC.417/202PZA     3
CC0001043019036H202100000025037900000025037921/12/20211641    3190301623742196425000024674000001138340000000000000   JERINGA 3PARTES C/A 10ML REF JEHL005 CAJ X 100 ALFASAFE  21GX1 PULG 1/2 PULG BN EXENTO-DC.417/202PZA     3
CC0000022746618H202100000025037900000025037921/12/20211641    3190301623742196425000024674000001138340000000000000   JERINGA 3PARTES C/A 10ML REF JEHL005 CAJ X 100 ALFASAFE  21GX1 PULG 1/2 PULG BN EXENTO-DC.417/202PZA     3
CC0000032756603H202100000025037900000025037921/12/20211641    3190301623742196425000024674000001138340000000000000   JERINGA 3PARTES C/A 10ML REF JEHL005 CAJ X 100 ALFASAFE  21GX1 PULG 1/2 PULG BN EXENTO-DC.417/202PZA     3
CC0000026880556H202100000025037900000025037921/12/20211641    3190301623742196425000024674000001138340000000000000   JERINGA 3PARTES C/A 10ML REF JEHL005 CAJ X 100 ALFASAFE  21GX1 PULG 1/2 PULG BN EXENTO-DC.417/202PZA     3
CC0000032865370H202100000025037900000025037921/12/20211641    3190301623742196425000024674000001138340000000000000   JERINGA 3PARTES C/A 10ML REF JEHL005 CAJ X 100 ALFASAFE  21GX1 PULG 1/2 PULG BN EXENTO-DC.417/202PZA     2
CC0001042471353H202100000025037900000025037921/12/20211641    3190301623742196425000024674000001138340000000000000   JERINGA 3PARTES C/A 10ML REF JEHL005 CAJ X 100 ALFASAFE  21GX1 PULG 1/2 PULG BN EXENTO-DC.417/202PZA     2
CC0000003779763H202100000025037900000025037921/12/20211641    3190301623742196425000038568100000258050000000000000                                                                         CANULA OXIGENO NASAL ADULTOSIN     1
CC0000007473802H202100000025037900000025037921/12/20211641    3190301623742196425000038568100000258050000000000000                                                                         CANULA OXIGENO NASAL ADULTOSIN     1
CE0000000742690H202100000025037900000025037921/12/20211641    3190301623742196425000038568100000258050000000000000                                                                         CANULA OXIGENO NASAL ADULTOSIN     1
PE960660711021973H202100000025037900000025037921/12/20211641    3190301623742196425000038568100000258050000000000000                                                                         CANULA OXIGENO NASAL ADULTOSIN     1
CC0000003779763H202100000025037900000025037921/12/20211641    3190301623742196425000043879200001138180000000000000                                                                                   HOJA BISTURI # 11SOB     1
CC0000007473802H202100000025037900000025037921/12/20211641    3190301623742196425000043879200001138180000000000000                                                                                   HOJA BISTURI # 11SOB     1
CE0000000742690H202100000025037900000025037921/12/20211641    3190301623742196425000043879200001138180000000000000                                                                                   HOJA BISTURI # 11SOB     1
PE960660711021973H202100000025037900000025037921/12/20211641    3190301623742196425000043879200001138180000000000000                                                                                   HOJA BISTURI # 11SOB     1
CC0000057429861H202100000025037900000025037921/12/20211641    3190301623742196425000043879200001138180000000000000                                                                                   HOJA BISTURI # 11SOB     1
CC0001002072715H202100000025037900000025037921/12/20211641    3190301623742196425000043879200001138180000000000000                                                                                   HOJA BISTURI # 11SOB     1
CC0000072130025H202100000025037900000025037921/12/20211641    3190301623742196425000043879200001138180000000000000                                                                                   HOJA BISTURI # 11SOB     1
CC0001043019036H202100000025037900000025037921/12/20211641    3190301623742196425000043879200001138180000000000000                                                                                   HOJA BISTURI # 11SOB     1
CC0000022746618H202100000025037900000025037921/12/20211641    3190301623742196425000043879200001138180000000000000                                                                                   HOJA BISTURI # 11SOB     1
CC0000032756603H202100000025037900000025037921/12/20211641    3190301623742196425000043879200001138180000000000000                                                                                   HOJA BISTURI # 11SOB     1
CC0000026880556H202100000025037900000025037921/12/20211641    3190301623742196425000043879200001138180000000000000                                                                                   HOJA BISTURI # 11SOB     1
CC0000032865370H202100000025037900000025037921/12/20211641    3190301623742196425000043879200001138180000000000000                                                                                   HOJA BISTURI # 11SOB     1
CC0001042471353H202100000025037900000025037921/12/20211641    3190301623742196425000043879200001138180000000000000                                                                                   HOJA BISTURI # 11SOB     1
CC0000007473802H202100000025037900000025037921/12/20211641    3190301623742196425000011127100001047500000000000000                                                            EQUIPO DE INFUSION B-BRAUN INFUSOMAT STABOL     1
CC0000003779763H202100000025037900000025037921/12/20211641    3190301623742196425000022425200000548240000000000000                       EXTENSION DE ANESTESIA REF 1139 SOB X 1 SHERLEG  ADULTO BN EXENTO-DC.417/2020SIN     3
CC0000007473802H202100000025037900000025037921/12/20211641    3190301623742196425000022425200000548240000000000000                       EXTENSION DE ANESTESIA REF 1139 SOB X 1 SHERLEG  ADULTO BN EXENTO-DC.417/2020SIN     3
CE0000000742690H202100000025037900000025037921/12/20211641    3190301623742196425000022425200000548240000000000000                       EXTENSION DE ANESTESIA REF 1139 SOB X 1 SHERLEG  ADULTO BN EXENTO-DC.417/2020SIN     3
CC0000003779763H202100000025037900000025037921/12/20211641    3190301623742196425000013077800000471960000000000000                                                             GASA NO TEJIDA EST 7.5 X 7.5 SOB X 3 UNSOB     6
CC0000007473802H202100000025037900000025037921/12/20211641    3190301623742196425000013077800000471960000000000000                                                             GASA NO TEJIDA EST 7.5 X 7.5 SOB X 3 UNSOB     6
CE0000000742690H202100000025037900000025037921/12/20211641    3190301623742196425000013077800000471960000000000000                                                             GASA NO TEJIDA EST 7.5 X 7.5 SOB X 3 UNSOB     6
PE960660711021973H202100000025037900000025037921/12/20211641    3190301623742196425000013077800000471960000000000000                                                             GASA NO TEJIDA EST 7.5 X 7.5 SOB X 3 UNSOB     6
CC0000057429861H202100000025037900000025037921/12/20211641    3190301623742196425000013077800000471960000000000000                                                             GASA NO TEJIDA EST 7.5 X 7.5 SOB X 3 UNSOB     6
CC0001002072715H202100000025037900000025037921/12/20211641    3190301623742196425000013077800000471960000000000000                                                             GASA NO TEJIDA EST 7.5 X 7.5 SOB X 3 UNSOB     6
CC0000072130025H202100000025037900000025037921/12/20211641    3190301623742196425000013077800000471960000000000000                                                             GASA NO TEJIDA EST 7.5 X 7.5 SOB X 3 UNSOB     6
CC0001043019036H202100000025037900000025037921/12/20211641    3190301623742196425000013077800000471960000000000000                                                             GASA NO TEJIDA EST 7.5 X 7.5 SOB X 3 UNSOB     6
CC0000022746618H202100000025037900000025037921/12/20211641    3190301623742196425000013077800000471960000000000000                                                             GASA NO TEJIDA EST 7.5 X 7.5 SOB X 3 UNSOB     6
CC0000032756603H202100000025037900000025037921/12/20211641    3190301623742196425000013077800000471960000000000000                                                             GASA NO TEJIDA EST 7.5 X 7.5 SOB X 3 UNSOB     6
CC0000026880556H202100000025037900000025037921/12/20211641    3190301623742196425000013077800000471960000000000000                                                             GASA NO TEJIDA EST 7.5 X 7.5 SOB X 3 UNSOB     6
CC0000032865370H202100000025037900000025037921/12/20211641    3190301623742196425000013077800000471960000000000000                                                             GASA NO TEJIDA EST 7.5 X 7.5 SOB X 3 UNSOB     6
CC0001042471353H202100000025037900000025037921/12/20211641    3190301623742196425000013077800000471960000000000000                                                             GASA NO TEJIDA EST 7.5 X 7.5 SOB X 3 UNSOB     6
CC0000003779763H202100000025037900000025037921/12/20211641    3190301623742196425000011089300001083990000000000000                                                              GUANTE ESTERIL LATEX S/POLVO TALLA 7.5SOB     3
CC0000007473802H202100000025037900000025037921/12/20211641    3190301623742196425000011089300001083990000000000000                                                              GUANTE ESTERIL LATEX S/POLVO TALLA 7.5SOB     3
CE0000000742690H202100000025037900000025037921/12/20211641    3190301623742196425000011089300001083990000000000000                                                              GUANTE ESTERIL LATEX S/POLVO TALLA 7.5SOB     3
PE960660711021973H202100000025037900000025037921/12/20211641    3190301623742196425000011089300001083990000000000000                                                              GUANTE ESTERIL LATEX S/POLVO TALLA 7.5SOB     3
CC0000057429861H202100000025037900000025037921/12/20211641    3190301623742196425000011089300001083990000000000000                                                              GUANTE ESTERIL LATEX S/POLVO TALLA 7.5SOB     3
CC0001002072715H202100000025037900000025037921/12/20211641    3190301623742196425000011089300001083990000000000000                                                              GUANTE ESTERIL LATEX S/POLVO TALLA 7.5SOB     3
CC0000072130025H202100000025037900000025037921/12/20211641    3190301623742196425000011089300001083990000000000000                                                              GUANTE ESTERIL LATEX S/POLVO TALLA 7.5SOB     3
CC0001043019036H202100000025037900000025037921/12/20211641    3190301623742196425000011089300001083990000000000000                                                              GUANTE ESTERIL LATEX S/POLVO TALLA 7.5SOB     3
CC0000022746618H202100000025037900000025037921/12/20211641    3190301623742196425000011089300001083990000000000000                                                              GUANTE ESTERIL LATEX S/POLVO TALLA 7.5SOB     3
CC0000032756603H202100000025037900000025037921/12/20211641    3190301623742196425000011089300001083990000000000000                                                              GUANTE ESTERIL LATEX S/POLVO TALLA 7.5SOB     3
CC0000026880556H202100000025037900000025037921/12/20211641    3190301623742196425000011089300001083990000000000000                                                              GUANTE ESTERIL LATEX S/POLVO TALLA 7.5SOB     3
CC0000003779763H202100000025037900000025037921/12/20211641    31903016237421964250000V4AF1000003850710000000000000                                                                    OMNIPAQUE Sln Iny 300 mg x 50 mlFCO     4
CC0000007473802H202100000025037900000025037921/12/20211641    31903016237421964250000V4AF1000003850710000000000000                                                                    OMNIPAQUE Sln Iny 300 mg x 50 mlFCO     4
CE0000000742690H202100000025037900000025037921/12/20211641    31903016237421964250000V4AF1000003850710000000000000                                                                    OMNIPAQUE Sln Iny 300 mg x 50 mlFCO     4
CC0000003779763H202100000025037900000025037921/12/20211641    3190301623742196425000000102300000222960000000000000                                                                 JERINGA DESECHABLE SIN AGUJA X 20mLSIN     1
CC0000003779763H202100000025037900000025037921/12/20211641    31903016237421964250000N1BA2400001687720000000000000                                                    LIDOCAINA 2% SOL INY  CAJ X 50AMP X 10ML CORPAULAMP     1
CC0000007473802H202100000025037900000025037921/12/20211641    31903016237421964250000N1BA2400001687720000000000000                                                    LIDOCAINA 2% SOL INY  CAJ X 50AMP X 10ML CORPAULAMP     1
CE0000000742690H202100000025037900000025037921/12/20211641    31903016237421964250000N1BA2400001687720000000000000                                                    LIDOCAINA 2% SOL INY  CAJ X 50AMP X 10ML CORPAULAMP     1
PE960660711021973H202100000025037900000025037921/12/20211641    31903016237421964250000N1BA2400001687720000000000000                                                    LIDOCAINA 2% SOL INY  CAJ X 50AMP X 10ML CORPAULAMP     1
CC0000057429861H202100000025037900000025037921/12/20211641    31903016237421964250000N1BA2400001687720000000000000                                                    LIDOCAINA 2% SOL INY  CAJ X 50AMP X 10ML CORPAULAMP     1
CC0001002072715H202100000025037900000025037921/12/20211641    31903016237421964250000N1BA2400001687720000000000000                                                    LIDOCAINA 2% SOL INY  CAJ X 50AMP X 10ML CORPAULAMP     1
CC0000072130025H202100000025037900000025037921/12/20211641    31903016237421964250000N1BA2400001687720000000000000                                                    LIDOCAINA 2% SOL INY  CAJ X 50AMP X 10ML CORPAULAMP     1
CC0001043019036H202100000025037900000025037921/12/20211641    31903016237421964250000N1BA2400001687720000000000000                                                    LIDOCAINA 2% SOL INY  CAJ X 50AMP X 10ML CORPAULAMP     1
CC0000022746618H202100000025037900000025037921/12/20211641    31903016237421964250000N1BA2400001687720000000000000                                                    LIDOCAINA 2% SOL INY  CAJ X 50AMP X 10ML CORPAULAMP     1
CC0000032756603H202100000025037900000025037921/12/20211641    31903016237421964250000N1BA2400001687720000000000000                                                    LIDOCAINA 2% SOL INY  CAJ X 50AMP X 10ML CORPAULAMP     1
CC0000026880556H202100000025037900000025037921/12/20211641    31903016237421964250000N1BA2400001687720000000000000                                                    LIDOCAINA 2% SOL INY  CAJ X 50AMP X 10ML CORPAULAMP     1
CC0000032865370H202100000025037900000025037921/12/20211641    31903016237421964250000N1BA2400001687720000000000000                                                    LIDOCAINA 2% SOL INY  CAJ X 50AMP X 10ML CORPAULAMP     1
CC0001042471353H202100000025037900000025037921/12/20211641    31903016237421964250000N1BA2400001687720000000000000                                                    LIDOCAINA 2% SOL INY  CAJ X 50AMP X 10ML CORPAULAMP     1
CC0000003779763H202100000025037900000025037921/12/20211641    31903016237421964250000E1AB0500003888400000000000000                                                              SOLUCION SALINA 0.9% SLN INY X 1000 MLBOL     3
CC0000007473802H202100000025037900000025037921/12/20211641    31903016237421964250000E1AB0500003888400000000000000                                                              SOLUCION SALINA 0.9% SLN INY X 1000 MLBOL     3
CE0000000742690H202100000025037900000025037921/12/20211641    31903016237421964250000E1AB0500003888400000000000000                                                              SOLUCION SALINA 0.9% SLN INY X 1000 MLBOL     3
