TI0001082953489H202100000556885500000556885513/12/20210930     3300009237421964250000A2BC0900000200150000000000000                                                                               ORAZOLE Sln Iny 40 mgCIN     1
TI0001082953489H202100000556885500000556885513/12/20211839    31500276237421964250000E1AD0300000199490000000000000                                         LACTATO RINGER USP (HARTMANN)  SOL INY  BOL X 1000ML BAXTERBIN     1
TI0001082953489H202100000556885500000556885513/12/20211117    31500192237421964250000E1AD0300000199490000000000000                                         LACTATO RINGER USP (HARTMANN)  SOL INY  BOL X 1000ML BAXTERBIN     1
TI0001082953489H202100000556885500000556885513/12/20212314     3300003237421964250000D04A0200000211100000000000000                                                                         CALADRYL CLEAR X 100 ML /R/FCO     1
TI0001082953489H202100000556885500000556885513/12/20210930     3300009237421964250000N02B1100001464120000000000000                                           PARACETAMOL EP 1000MG/100ML(10MG/ML) SOL INY  CAJ X 10FCOVAL     2
