RC0001194975875U202100050132037000050132037013/12/20210911    3150036223942196432000030936900001431840000000000000                                                                                              BURETABOL     1
RC0001194975875U202100050132037000050132037013/12/20210911    3150036223942196432000000602600001259280000000000000                                                             APOSITO TEGADERM IV PD 1610 5CM X 5.7CMSOB     1
RC0001194975875U202100050132037000050132037013/12/20210911    31500362239421964320000Q1AA7400003911720000000000000                                                            CATETER PERIFE INTROCAN # 24G 4251601-04SOB     1
RC0001194975875U202100050132037000050132037013/12/20210911    3150036223942196432000011082700001620070000000000000                                                               EQUIPO SET PRIMARIO C/CLAVE REF 14001BOL     1
RC0001194975875U202100050132037000050132037013/12/20210911    31500362239421964320000E1AD0300000199490000000000000                                         LACTATO RINGER USP (HARTMANN)  SOL INY  BOL X 1000ML BAXTERBIN     1
