CC0000032782422A202100000027870300000027870313/12/20210757    3190333624042196419000053074400000607910000000000000                                                               GASA ESTERIL 10*10 SOBRE X 3 UNIDADESSOB     4
CC0000032782422A202100000027870300000027870313/12/20210757    3190333624042196419000024673600000222980000000000000                                                                     JERINGA DESECHABLE 5 ml 27*11/2SIN     2
CC0000032782422A202100000027870300000027870313/12/20210757    3190333624042196419000024674000001138340000000000000   JERINGA 3PARTES C/A 10ML REF JEHL005 CAJ X 100 ALFASAFE  21GX1 PULG 1/2 PULG BN EXENTO-DC.417/202PZA     4
CC0000032782422A202100000027870300000027870313/12/20210757    3190333624042196419000024674500000322810000000000000                                                                   JERINGA DESECHABLE 20 ml 21*1 1/2SIN     2
CC0000032782422A202100000027870300000027870313/12/20210757    3190333624042196419000051515400000598150000000000000                                                                            MASCARILLA ANESTESIA # 4SIN     1
CC0000032782422A202100000027870300000027870313/12/20210757    3190333624042196419000011085100001082120000000000000                                                                           GUANTE QUIRURGICO TALLA 7SOB     2
CC0000032782422A202100000027870300000027870313/12/20210757    3190333624042196419000043485100001618510000000000000                GUANTE QUIRURGICO DE LATEX REF 2D72N65X CAJ X 50 PROTEXIS  6.5 BN EXENTO-DC.417/2020SOB     2
CC0000032782422A202100000027870300000027870313/12/20210757    3190333624042196419000039175100001072060000000000000                                                                           TUBO ENDOTRAQUEAL C/B 7.5SOB     1
CC0000032782422A202100000027870300000027870313/12/20210757    3190333624042196419000011099300000777780000000000000                                                                     FILTRO BACTERIANO VIRICO ADULTOBOL     1
CC0000032782422A202100000027870300000027870313/12/20210757    31903336240421964190000E1AD0200003888320000000000000                                                                              HARTMAN SLN INY 500 MLBOL     2
CC0000032782422A202100000027870300000027870313/12/20210757    31903336240421964190000E1AB0300003888390000000000000                                                            SOLUCION SALINA 0.9% SLN INY BO X 500 MLBOL     4
CC0000032782422A202100000027870300000027870313/12/20210757    31903336240421964190000E1AB0700003888350000000000000                                                            SOLUCION SALINA 0.9% SLN INY BO X 250 MLBOL     1
CC0000032782422A202100000027870300000027870313/12/20210757    31903336240421964190000E1AB0200000199290000000000000                                                            SOLUCION SALINA 0.9% SLN INY BO X 100 MLBIN     1
CC0000032782422A202100000027870300000027870313/12/20210757    31903336240421964190000N1BA2400001687720000000000000                                                    LIDOCAINA 2% SOL INY  CAJ X 50AMP X 10ML CORPAULAMP     1
CC0000032782422A202100000027870300000027870313/12/20210757    31903336240421964190000A2BC0900000200150000000000000                                                                               ORAZOLE Sln Iny 40 mgCIN     1
CC0000032782422A202100000027870300000027870313/12/20210757    31903336240421964190000A03F0300001626860000000000000                                                                   METOCLOPRAMIDA SLN INY 10 MG/2 MLAMP     1
CC0000032782422A202100000027870300000027870313/12/20210757    31903336240421964190000N2BB0100001672010000000000000                                  DIPIRONA 1GR/2ML(0.5GR/ML) SOL INY INST CAJ X 100AMP X 2ML VITALISAMP     3
CC0000032782422A202100000027870300000027870313/12/20210757    31903336240421964190000M01A2000001664970000000000000                                                               DICLOFENACO SODICO SLN INY 75 MG/3 MLAMP     1
CC0000032782422A202100000027870300000027870313/12/20210757    31903336240421964190000H02A0100001664960000000000000                                                                        DEXAMETASONA SLN INY 4 MG/MLAMP     2
CC0000032782422A202100000027870300000027870313/12/20210757    31903336240421964190000N2AA0100000301640000000000000                                                                            MORFINA Sln Iny 10 mg/mlAMP     1
CC0000032782422A202100000027870300000027870313/12/20210757    31903336240421964190000N1AH0200003906560000000000000                                                                     FENTANIL Iny 0.05 mg/ml x 10 mlAMP     1
CC0000032782422A202100000027870300000027870313/12/20210757    31903336240421964190000N05CD300000218170000000000000                                           DORMICUM IV-IM 5MG/5ML(1MG/ML) SOL INY  CAJ X 10AMP X 5MLAMP     1
CC0000032782422A202100000027870300000027870313/12/20210757    3190333624042196419000012474000000232230000000000000                                                                SUTURA ETHILON 4-0 SC-20 45CM 14502TSIN     1
CC0000032782422A202100000027870300000027870313/12/20210757    3190333624042196419000022424500000236720000000000000                                                                     EQUIPO EN Y IRRIGA ARC4005 4006SOB     1
CC0000032782422A202100000027870300000027870313/12/20210757    3190333624042196419000011081500001119460000000000000                                                               ENDOBAG SPECIMEN RETRIEV RF 25040 5X8PZA     1
CC0000032782422A202100000027870300000027870313/12/20210757    3190333624042196419000010900900001612200000000000000                                                             PINZA LIGASURE MARYLAND 5MM 23CM LF1923CAJ     1
CC0000032782422A202100000027870300000027870313/12/20210757    31903336240421964190000H02AB500001664950000000000000                                                            DEXAMETASONA SLN INY 8 MG/2 ML AMP /CDS/AMP     1
CC0000032782422A202100000027870300000027870313/12/20210757    31903336240421964190000N01A0500003844190000000000000                                                                          REMIFENTANILO SLN INY 2 MGVAL     1
CC0000032782422A202100000027870300000027870313/12/20210757    3190333624042196419000011078200001605710000000000000                                                                 CONECTOR FIBROBRONCOSCOPIO 9591 40CSOB     1
CC0000032782422A202100000027870300000027870313/12/20210757    3190333624042196419000011069100001318210000000000000                                                            TROCAR VERSAPORT BLA OPTICAL 5MM ONB5STFPZA     2
CC0000032782422A202100000027870300000027870313/12/20210757    31903336240421964190000N1BA0300000217900000000000000                                                                    BUPIROP 0.5% C/E Sln Iny x 20 mlVAL     1
CC0000032782422A202100000027870300000027870313/12/20210757    3190333624042196419000038569900001124970000000000000                                                                              SONDA FOLEY #14 2 VIASSOB     1
CC0000032782422A202100000027870300000027870313/12/20210757    3190333624042196419000031188000000236790000000000000                                                                                     CISTOFLO ADULTOSIN     1
CC0000032782422A202100000027870300000027870313/12/20210757    3190333624042196419000038568600000256960000000000000                                                                                   SONDA NELATON #14SIN     1
CC0000032782422A202100000027870300000027870313/12/20210757    3190333624042196419000013077800000471960000000000000                                                             GASA NO TEJIDA EST 7.5 X 7.5 SOB X 3 UNSOB     1
CC0000032782422A202100000027870300000027870313/12/20210757    3190333624042196419000030161400001459220000000000000                                                                       MANGUERA SUCCION 6 MM*3.1 MTSSOB     1
CC0000032782422A202100000027870300000027870313/12/20210757    3190333624042196419000000501000004008660000000000000  SUTURA ABSORB TRENZADA GU-46 REF UL-878 CAJ X 36 POLYSORB 75CM - 2-0 VIOLETA BN EXENTO-DC.417/2020SIN     1
CC0000032782422A202100000027870300000027870313/12/20210757    3190333624042196419000043879200001138180000000000000                                                                                   HOJA BISTURI # 11SOB     1
CC0000032782422A202100000027870300000027870313/12/20210757    3190333624042196419000022425200000548240000000000000                       EXTENSION DE ANESTESIA REF 1139 SOB X 1 SHERLEG  ADULTO BN EXENTO-DC.417/2020SIN     1
CC0000032782422A202100000027870300000027870313/12/20210757    3190333624042196419000035356500003919000000000000000                                                                                        LLAVE 3 VIASSOB     2
CC0000032782422A202100000027870300000027870313/12/20210757    31903336240421964190000Q1AA7100000610620000000000000                                                            CATETER PERIFE INTROCAN # 18G 4251687-04SIN     1
CC0000032782422A202100000027870300000027870313/12/20210757    3190333624042196419000022426800001140510000000000000                                                                    EQUIPO MACROGOTEO BAXTER MRC0001SOB     1
CC0000032782422A202100000027870300000027870313/12/20210757    3190333624042196419000011073300001096420000000000000                                                                BOLSA DE SUCCION DE FLUIDOS x 2500mLBOL     1
CC0000032782422A202100000027870300000027870313/12/20210757    3190333624042196419000020750600000296780000000000000                                                                PLACA ELECTRO RETORNO PACIENTE E7506SIN     1
CC0000032782422A202100000027870300000027870313/12/20210757    3190333624042196419000011082700001620070000000000000                                                               EQUIPO SET PRIMARIO C/CLAVE REF 14001BOL     1
