CC0000036176848U202100000556907200000556907213/12/20211925    31500177239421964320000E1AB0700003888350000000000000                                                            SOLUCION SALINA 0.9% SLN INY BO X 250 MLBOL     1
CC0000036176848U202100000556907200000556907213/12/20211806     3300010239421964320000M1AE2500000191550000000000000                                                            PROFENID POLVO LIOF SLN INY 100MG/2ML/R/AMP     1
CC0000036176848U202100000556907200000556907213/12/20211806     3300010239421964320000M03BX100001333480000000000000                                                                                CICLORELAX TAB 10 MGTAB     1
