CC0000010494956H202100904699121300904699121313/12/20210125    3150021323742196425000011082700001620070000000000000                                                               EQUIPO SET PRIMARIO C/CLAVE REF 14001BOL     1
CC0000010494956H202100904699121300904699121313/12/20210125    3150021323742196425000022426800001140510000000000000                                                                    EQUIPO MACROGOTEO BAXTER MRC0001SOB     1
CC0000010494956H202100904699121300904699121313/12/20210125    3150021323742196425000030936900001431840000000000000                                                                                              BURETABOL     1
