CC0000022508934H202100000556888800000556888813/12/20211026    31500192237421964250000B1AB0200003939510000000000000                 ENOXAPARINA SODICA 40MG/0.4ML(100MG/ML) SOL INY INST CAJ X 2JERPREL X 0.4ML TECHDOWJRP     1
CC0000022508934H202100000556888800000556888813/12/20211026    31500192237421964250000M01A0400001341250000000000000                                                                              DYNASTAT AMP 40 MG /R/VAL     1
CC0000022508934H202100000556888800000556888813/12/20211027    31500192237421964250000N2BB0200000513030000000000000                                                                           LISALGIL Sln Iny 2 g/5 mlAMP     1
