RC0001048087702U202100923552121900923552121919/12/20211813    3150052823942196432000024674000001138340000000000000   JERINGA 3PARTES C/A 10ML REF JEHL005 CAJ X 100 ALFASAFE  21GX1 PULG 1/2 PULG BN EXENTO-DC.417/202PZA     2
RC0001048087702U202100923552121900923552121919/12/20211813    3150052823942196432000035801900001101780000000000000                                                                    NEBULIZADOR C/MASCARA PEDIATRICOSOB     1
RC0001048087702U202100923552121900923552121919/12/20211813    31500528239421964320000E1AB1100003888280000000000000                                                                        SOLUCION SALINA 0.9% X 50 mlBOL     1
