TI0001082953489H202100015012637700015012637713/12/20211715    3150027623742196425000030936900001431840000000000000                                                                                              BURETABOL     1
TI0001082953489H202100015012637700015012637713/12/20211715    31500276237421964250000Q1AA7300000610640000000000000                                                            CATETER PERIFE INTROCAN # 22G 4251628-04SIN     1
RC0001146546509H202100015012637700015012637713/12/20211715    3150027623742196425000001956000001620610000000000000                                                                      CONECTOR MICRO CLAVE LAT-MC100SOB     1
TI0001082953489H202100015012637700015012637713/12/20211715    3150027623742196425000001956000001620610000000000000                                                                      CONECTOR MICRO CLAVE LAT-MC100SOB     1
RC0001146546509H202100015012637700015012637713/12/20211715    31500276237421964250000Q1AA7400003911720000000000000                                                            CATETER PERIFE INTROCAN # 24G 4251601-04SOB     1
RC0001146546509H202100015012637700015012637713/12/20211715    31500276237421964250000E1AC0100000199400000000000000                                                                          SUERO MIXTO Sln Iny 500 mlBIN     1
TI0001082953489H202100015012637700015012637713/12/20211715    3150027623742196425000022426800001140510000000000000                                                                    EQUIPO MACROGOTEO BAXTER MRC0001SOB     1
TI0001082953489H202100015012637700015012637713/12/20211715    3150027623742196425000011082700001620070000000000000                                                               EQUIPO SET PRIMARIO C/CLAVE REF 14001BOL     1
TI0001082953489H202100015012637700015012637713/12/20211715    31500276237421964250000E1AD0300000199490000000000000                                         LACTATO RINGER USP (HARTMANN)  SOL INY  BOL X 1000ML BAXTERBIN     1
