CC0000008880097A202100000027863300000027863313/12/20210756    31903336240421964190000N1BA1900000554750000000000000                                                                     ROXICAINA JALEA 2% TUBO X 30 MLTUB     1
CC0000008880097A202100000027863300000027863313/12/20210756    31903336240421964190000E1BA0700000198910000000000000                                                                   UROMATIC Sln IRRIGACION X 3000 MLBIN     3
CC0000008880097A202100000027863300000027863313/12/20210756    31903336240421964190000E1AB0500003888400000000000000                                                              SOLUCION SALINA 0.9% SLN INY X 1000 MLBOL     1
CC0000008880097A202100000027863300000027863313/12/20210756    31903336240421964190000A3BB0200000512940000000000000                                                                          BUSCAPINA SIMPLE Iny 20 mgAMP     1
CC0000008880097A202100000027863300000027863313/12/20210756    3190333624042196419000000503900000296270000000000000                                                                  SUTURA POLYSORB 3-0 75CM V20 GL122SIN     3
CC0000008880097A202100000027863300000027863313/12/20210756    3190333624042196419000011018100000231890000000000000                                                                         CATGUT CROMADO 3-0 SH G122TSIN     1
CC0000008880097A202100000027863300000027863313/12/20210756    3190333624042196419000018351100000232850000000000000                                                                                 SEDA 2-0 SC-26 185TSIN     2
CC0000008880097A202100000027863300000027863313/12/20210756    3190333624042196419000038572000001123520000000000000                                                                              SONDA FOLEY #24 3 VIASSOB     1
CC0000008880097A202100000027863300000027863313/12/20210756    3190333624042196419000038568700000256970000000000000                                                                                   SONDA NELATON #16SIN     1
CC0000008880097A202100000027863300000027863313/12/20210756    3190333624042196419000011082700001620070000000000000                                                               EQUIPO SET PRIMARIO C/CLAVE REF 14001BOL     2
CC0000008880097A202100000027863300000027863313/12/20210756    3190333624042196419000011017400000231840000000000000                                                                         CATGUT CROMADO 2-0 CT1 923TSIN     1
CC0000008880097A202100000027863300000027863313/12/20210756    3190333624042196419000012473200000232210000000000000                                                                 SUTURA ETHILON 3-0 SC-24 45CM  163TSIN     1
CC0000008880097A202100000027863300000027863313/12/20210756    3190333624042196419000092492400000296330000000000000                                                                   SUTURA POLYSORB 0 90CM GS21 CL924SIN     3
CC0000008880097A202100000027863300000027863313/12/20210756    3190333624042196419000019487800001585180000000000000                                                                    VICRYL 1 PLUS 70 CM CT-1 VCP341HSOB     1
CC0000008880097A202100000027863300000027863313/12/20210756    3190333624042196419000030161400001459220000000000000                                                                       MANGUERA SUCCION 6 MM*3.1 MTSSOB     1
CC0000008880097A202100000027863300000027863313/12/20210756    3190333624042196419000031188000000236790000000000000                                                                                     CISTOFLO ADULTOSIN     1
CC0000008880097A202100000027863300000027863313/12/20210756    3190333624042196419000070120200000508270000000000000                                                             PUNTA PALA ELECTROBISTURI LARGA E1551-6SIN     1
CC0000008880097A202100000027863300000027863313/12/20210756    3190333624042196419000045138000001413890000000000000                                                                       LAPIZ ELECTROBISTURI  SOB X 1SOB     1
CC0000008880097A202100000027863300000027863313/12/20210756    3190333624042196419000043879400001138170000000000000                                                                  HOJA BISTURI # 10 CSSB 10 01002000SOB     1
CC0000008880097A202100000027863300000027863313/12/20210756    31903336240421964190000J01DA300001239950000000000000                                                            CEFAZOLINA SODICA POLVO LIOF SLN INY 1 GVAL     2
CC0000008880097A202100000027863300000027863313/12/20210756    3190333624042196419000022425200000548240000000000000                       EXTENSION DE ANESTESIA REF 1139 SOB X 1 SHERLEG  ADULTO BN EXENTO-DC.417/2020SIN     1
CC0000008880097A202100000027863300000027863313/12/20210756    3190333624042196419000016830000000970620000000000000                                                             SIST FIJACION CAT PERIFERICO 6.5X7 1683SOB     1
CC0000008880097A202100000027863300000027863313/12/20210756    3190333624042196419000035356500003919000000000000000                                                                                        LLAVE 3 VIASSOB     1
CC0000008880097A202100000027863300000027863313/12/20210756    3190333624042196419000022426800001140510000000000000                                                                    EQUIPO MACROGOTEO BAXTER MRC0001SOB     2
CC0000008880097A202100000027863300000027863313/12/20210756    31903336240421964190000Q1AA7100000610620000000000000                                                            CATETER PERIFE INTROCAN # 18G 4251687-04SIN     1
CC0000008880097A202100000027863300000027863313/12/20210756    3190333624042196419000020750600000296780000000000000                                                                PLACA ELECTRO RETORNO PACIENTE E7506SIN     1
CC0000008880097A202100000027863300000027863313/12/20210756    3190333624042196419000024673000001411210000000000000                                                                  JERINGA DESECHABLE 3 ML 21 X 1 1/2SOB     1
CC0000008880097A202100000027863300000027863313/12/20210756    3190333624042196419000024673600000222980000000000000                                                                     JERINGA DESECHABLE 5 ml 27*11/2SIN     2
CC0000008880097A202100000027863300000027863313/12/20210756    3190333624042196419000024674000001138340000000000000   JERINGA 3PARTES C/A 10ML REF JEHL005 CAJ X 100 ALFASAFE  21GX1 PULG 1/2 PULG BN EXENTO-DC.417/202PZA     3
CC0000008880097A202100000027863300000027863313/12/20210756    3190333624042196419000024674500000322810000000000000                                                                   JERINGA DESECHABLE 20 ml 21*1 1/2SIN     1
CC0000008880097A202100000027863300000027863313/12/20210756    3190333624042196419000043485100001618510000000000000                GUANTE QUIRURGICO DE LATEX REF 2D72N65X CAJ X 50 PROTEXIS  6.5 BN EXENTO-DC.417/2020SOB     2
CC0000008880097A202100000027863300000027863313/12/20210756    3190333624042196419000011085100001082120000000000000                                                                           GUANTE QUIRURGICO TALLA 7SOB     3
CC0000008880097A202100000027863300000027863313/12/20210756    3190333624042196419000011085200001585390000000000000                                                                       GUANTE QUIRURGICO TALLA 7 1/2SOB     3
CC0000008880097A202100000027863300000027863313/12/20210756    3190333624042196419000011085300001082140000000000000                                                                           GUANTE QUIRURGICO TALLA 8SOB     4
CC0000008880097A202100000027863300000027863313/12/20210756    3190333624042196419000053074400000607910000000000000                                                               GASA ESTERIL 10*10 SOBRE X 3 UNIDADESSOB     4
CC0000008880097A202100000027863300000027863313/12/20210756    3190333624042196419000011073300001096420000000000000                                                                BOLSA DE SUCCION DE FLUIDOS x 2500mLBOL     1
CC0000008880097A202100000027863300000027863313/12/20210756    3190333624042196419000038568100000258050000000000000                                                                         CANULA OXIGENO NASAL ADULTOSIN     1
CC0000008880097A202100000027863300000027863313/12/20210756    3190333624042196419000020060000000225230000000000000                                                               AGUJA SPINOCAN 27G X 3 1/2 PU 4503902SIN     1
CC0000008880097A202100000027863300000027863313/12/20210756    31903336240421964190000E1AB0300003888390000000000000                                                            SOLUCION SALINA 0.9% SLN INY BO X 500 MLBOL     5
CC0000008880097A202100000027863300000027863313/12/20210756    31903336240421964190000N1BA2400001687720000000000000                                                    LIDOCAINA 2% SOL INY  CAJ X 50AMP X 10ML CORPAULAMP     1
CC0000008880097A202100000027863300000027863313/12/20210756    31903336240421964190000N1BA0500000647360000000000000                                                                  BUPIROP 0.5% PESADO SLN INY X 4 MLAPC     1
