TI0001066284726H202100000556551200000556551204/12/20210906     3300009237421964250000A04A1300001335720000000000000                                                                                      ONDAX TAB 4 MGTAB     4
TI0001066284726H202100000556551200000556551204/12/20212138    31500107237421964250000E1AC0100000199400000000000000                                                                          SUERO MIXTO Sln Iny 500 mlBIN     3
TI0001066284726H202100000556551200000556551204/12/20210938    31903294237421964250000E1AC0100000199400000000000000                                                                          SUERO MIXTO Sln Iny 500 mlBIN     5
TI0001066284726H202100000556551200000556551204/12/20211701    31903153237421964250000E1AB0300003888390000000000000                                                            SOLUCION SALINA 0.9% SLN INY BO X 500 MLBOL     3
TI0001066284726H202100000556551200000556551204/12/20210906     3300009237421964250000A12BA100000552980000000000000                                                            CLORURO POTASIO Sln Iny AMP 20 MEQ/10 MLAMP     1
TI0001066284726H202100000556551200000556551204/12/20210906     3300009237421964250000H02A0100001664960000000000000                                                                        DEXAMETASONA SLN INY 4 MG/MLAMP     4
TI0001066284726H202100000556551200000556551204/12/20211017     3300009237421964250000L1BC4100001249730000000000000                                                    ETOPOSIDO 100MG/5ML(20MG/ML) SOL INY  VIAL X 5MLVAL     3
TI0001066284726H202100000556551200000556551204/12/20211016     3300009237421964250000L1BC4100001249730000000000000                                                    ETOPOSIDO 100MG/5ML(20MG/ML) SOL INY  VIAL X 5MLVAL     3
TI0001066284726H202100000556551200000556551204/12/20210938    31903294237421964250000V07A1300000502600000000000000                                                                                AGUA ESTERIL x 10 mlAMP     5
