CC0001129521229A202100000027862400000027862413/12/20211822    31903336240421964190000A03F0300001626860000000000000                                                                   METOCLOPRAMIDA SLN INY 10 MG/2 MLAMP     1
CC0001129521229A202100000027862400000027862413/12/20211822    31903336240421964190000H02AB500001664950000000000000                                                            DEXAMETASONA SLN INY 8 MG/2 ML AMP /CDS/AMP     1
CC0001129521229A202100000027862400000027862413/12/20211822    31903336240421964190000A2BC0900000200150000000000000                                                                               ORAZOLE Sln Iny 40 mgCIN     1
CC0001129521229A202100000027862400000027862413/12/20211822    31903336240421964190000S2BA1200000467480000000000000                                                             DEPO MEDROL SUSP INY 40mg/ml X 1 ML /R/CIN     1
CC0001129521229A202100000027862400000027862413/12/20211822    3190333624042196419000000102300000222960000000000000                                                                 JERINGA DESECHABLE SIN AGUJA X 20mLSIN     1
CC0001129521229A202100000027862400000027862413/12/20211822    3190333624042196419000039176200000325450000000000000                                                             TUBO ENDOTRAQ 7.5 C/B Y ESPIRAL INTERNOSIN     1
CC0001129521229A202100000027862400000027862413/12/20211822    3190333624042196419000045138000001413890000000000000                                                                       LAPIZ ELECTROBISTURI  SOB X 1SOB     1
CC0001129521229A202100000027862400000027862413/12/20211822    3190333624042196419000030161400001459220000000000000                                                                       MANGUERA SUCCION 6 MM*3.1 MTSSOB     1
CC0001129521229A202100000027862400000027862413/12/20211822    3190333624042196419000011079100000231400000000000000                                                               COTONOIDE REF 801403 DE 2.5CM X 2.5CMPZA    39
CC0001129521229A202100000027862400000027862413/12/20211822    31903336240421964190000Q1AA7000001097160000000000000                                                            CATETER PERIFE INTROCAN # 16G 4251709-04SOB     2
CC0001129521229A202100000027862400000027862413/12/20211822    3190333624042196419000018630000000358130000000000000                                                                   DURAPREP Sln YODO APLICADOR 26 MLFCO     1
CC0001129521229A202100000027862400000027862413/12/20211822    3190333624042196419000011110600000231980000000000000                                                                       CERA HUESOS 25GM ESTERIL W31GSIN     1
CC0001129521229A202100000027862400000027862413/12/20211822    3190333624042196419000044370800000224140000000000000                                                                                IOBAN 2 90 X 45 6650SIN     1
CC0001129521229A202100000027862400000027862413/12/20211822    3190333624042196419000000601800000258500000000000000                                                            APOSITO OPSITE POST - OP0712  15CM X 8CMSIN     2
CC0001129521229A202100000027862400000027862413/12/20211822    3190333624042196419000019487500000602970000000000000                                                                           VICRYL 2-0 CT1 90 VCP345HSIN     1
CC0001129521229A202100000027862400000027862413/12/20211822    3190333624042196419000019487800001585180000000000000                                                                    VICRYL 1 PLUS 70 CM CT-1 VCP341HSOB     1
CC0001129521229A202100000027862400000027862413/12/20211822    3190333624042196419000015944000000632490000000000000                                                                           MONOCRYL 3-0 PS2  MCP427HSIN     1
CC0001129521229A202100000027862400000027862413/12/20211822    3190333624042196419000043879400001138170000000000000                                                                  HOJA BISTURI # 10 CSSB 10 01002000SOB     1
CC0001129521229A202100000027862400000027862413/12/20211822    3190333624042196419000043879100001138200000000000000                                                                  HOJA BISTURI # 15 CSSB 15 01002003SOB     1
CC0001129521229A202100000027862400000027862413/12/20211822    3190333624042196419000022425200000548240000000000000                       EXTENSION DE ANESTESIA REF 1139 SOB X 1 SHERLEG  ADULTO BN EXENTO-DC.417/2020SIN     1
CC0001129521229A202100000027862400000027862413/12/20211822    3190333624042196419000035356500003919000000000000000                                                                                        LLAVE 3 VIASSOB     2
CC0001129521229A202100000027862400000027862413/12/20211822    31903336240421964190000Q1AA7100000610620000000000000                                                            CATETER PERIFE INTROCAN # 18G 4251687-04SIN     1
CC0001129521229A202100000027862400000027862413/12/20211822    3190333624042196419000022426800001140510000000000000                                                                    EQUIPO MACROGOTEO BAXTER MRC0001SOB     1
CC0001129521229A202100000027862400000027862413/12/20211822    3190333624042196419000016830000000970620000000000000                                                             SIST FIJACION CAT PERIFERICO 6.5X7 1683SOB     1
CC0001129521229A202100000027862400000027862413/12/20211822    31903336240421964190000J01DA300001239950000000000000                                                            CEFAZOLINA SODICA POLVO LIOF SLN INY 1 GVAL     2
CC0001129521229A202100000027862400000027862413/12/20211822    3190333624042196419000011073300001096420000000000000                                                                BOLSA DE SUCCION DE FLUIDOS x 2500mLBOL     1
CC0001129521229A202100000027862400000027862413/12/20211822    3190333624042196419000020750600000296780000000000000                                                                PLACA ELECTRO RETORNO PACIENTE E7506SIN     1
CC0001129521229A202100000027862400000027862413/12/20211822    3190333624042196419000011082700001620070000000000000                                                               EQUIPO SET PRIMARIO C/CLAVE REF 14001BOL     2
CC0001129521229A202100000027862400000027862413/12/20211822    3190333624042196419000053074400000607910000000000000                                                               GASA ESTERIL 10*10 SOBRE X 3 UNIDADESSOB     4
CC0001129521229A202100000027862400000027862413/12/20211822    3190333624042196419000011085300001082140000000000000                                                                           GUANTE QUIRURGICO TALLA 8SOB     1
CC0001129521229A202100000027862400000027862413/12/20211822    3190333624042196419000011085100001082120000000000000                                                                           GUANTE QUIRURGICO TALLA 7SOB     1
CC0001129521229A202100000027862400000027862413/12/20211822    3190333624042196419000043485100001618510000000000000                GUANTE QUIRURGICO DE LATEX REF 2D72N65X CAJ X 50 PROTEXIS  6.5 BN EXENTO-DC.417/2020SOB     3
CC0001129521229A202100000027862400000027862413/12/20211822    3190333624042196419000038568100000258050000000000000                                                                         CANULA OXIGENO NASAL ADULTOSIN     1
CC0001129521229A202100000027862400000027862413/12/20211822    3190333624042196419000011099300000777780000000000000                                                                     FILTRO BACTERIANO VIRICO ADULTOBOL     1
CC0001129521229A202100000027862400000027862413/12/20211822    3190333624042196419000038569400000256750000000000000                                                                        SONDA ASPIRACION CONTROL #14SIN     1
CC0001129521229A202100000027862400000027862413/12/20211822    3190333624042196419000024673000001411210000000000000                                                                  JERINGA DESECHABLE 3 ML 21 X 1 1/2SOB     1
CC0001129521229A202100000027862400000027862413/12/20211822    3190333624042196419000024674000001138340000000000000   JERINGA 3PARTES C/A 10ML REF JEHL005 CAJ X 100 ALFASAFE  21GX1 PULG 1/2 PULG BN EXENTO-DC.417/202PZA     5
CC0001129521229A202100000027862400000027862413/12/20211822    3190333624042196419000024674500000322810000000000000                                                                   JERINGA DESECHABLE 20 ml 21*1 1/2SIN     4
CC0001129521229A202100000027862400000027862413/12/20211822    31903336240421964190000E1AD0200003888320000000000000                                                                              HARTMAN SLN INY 500 MLBOL     3
CC0001129521229A202100000027862400000027862413/12/20211822    31903336240421964190000E1AB0500003888400000000000000                                                              SOLUCION SALINA 0.9% SLN INY X 1000 MLBOL     1
CC0001129521229A202100000027862400000027862413/12/20211822    31903336240421964190000E1AB0300003888390000000000000                                                            SOLUCION SALINA 0.9% SLN INY BO X 500 MLBOL     2
CC0001129521229A202100000027862400000027862413/12/20211822    31903336240421964190000E1AB0200000199290000000000000                                                            SOLUCION SALINA 0.9% SLN INY BO X 100 MLBIN     1
CC0001129521229A202100000027862400000027862413/12/20211822    31903336240421964190000N02B1100001464120000000000000                                           PARACETAMOL EP 1000MG/100ML(10MG/ML) SOL INY  CAJ X 10FCOVAL     1
CC0001129521229A202100000027862400000027862413/12/20211822    31903336240421964190000M1AX0200001569410000000000000                                                                         KETRON SLN INY 30 MG / 2 MLAMP     2
CC0001129521229A202100000027862400000027862413/12/20211822    31903336240421964190000N01A0400003939010000000000000                                               MAYOPROFOL 200MG/20ML(1%) EMUL INY CAJ X 1VIAL X 20MLVAL     1
CC0001129521229A202100000027862400000027862413/12/20211822    31903336240421964190000M3AC0600000720540000000000000                                                                         ESMERON SLN INY 50 MG /5 MLVAL     1
CC0001129521229A202100000027862400000027862413/12/20211822    31903336240421964190000N2AA0100000301640000000000000                                                                            MORFINA Sln Iny 10 mg/mlAMP     1
CC0001129521229A202100000027862400000027862413/12/20211822    31903336240421964190000N2AA0700001587170000000000000                                                                                 ULTIVA Sln Iny 2 mgVAL     1
