CC0000032799225H202100015012636600015012636613/12/20210904    31901826237421964250000E1AB0700003888350000000000000                                                            SOLUCION SALINA 0.9% SLN INY BO X 250 MLBOL     1
CC0000084006612H202100015012636600015012636613/12/20210904    31901826237421964250000Q1A13500001689460000000000000                                           JERINGA PUNTA CATETER REF JESC001 CAJ X 25 ALFASAFE  60MLSOB     1
CC0001092343695H202100015012636600015012636613/12/20210904    3190182623742196425000024674000001138340000000000000   JERINGA 3PARTES C/A 10ML REF JEHL005 CAJ X 100 ALFASAFE  21GX1 PULG 1/2 PULG BN EXENTO-DC.417/202PZA     5
CC0000026664650H202100015012636600015012636613/12/20210904    3190182623742196425000024674000001138340000000000000   JERINGA 3PARTES C/A 10ML REF JEHL005 CAJ X 100 ALFASAFE  21GX1 PULG 1/2 PULG BN EXENTO-DC.417/202PZA     2
CC0000084006612H202100015012636600015012636613/12/20210904    3190182623742196425000024674000001138340000000000000   JERINGA 3PARTES C/A 10ML REF JEHL005 CAJ X 100 ALFASAFE  21GX1 PULG 1/2 PULG BN EXENTO-DC.417/202PZA     6
RC0001146546509H202100015012636600015012636613/12/20210904    3190182623742196425000024674000001138340000000000000   JERINGA 3PARTES C/A 10ML REF JEHL005 CAJ X 100 ALFASAFE  21GX1 PULG 1/2 PULG BN EXENTO-DC.417/202PZA     2
TI0001082953489H202100015012636600015012636613/12/20210904    3190182623742196425000024674000001138340000000000000   JERINGA 3PARTES C/A 10ML REF JEHL005 CAJ X 100 ALFASAFE  21GX1 PULG 1/2 PULG BN EXENTO-DC.417/202PZA     2
CC0000026664650H202100015012636600015012636613/12/20210904    3190182623742196425000024673000001411210000000000000                                                                  JERINGA DESECHABLE 3 ML 21 X 1 1/2SOB     2
CC0000084006612H202100015012636600015012636613/12/20210904    3190182623742196425000082508500000968690000000000000                                                                 EQUIPO INFUSOMAT C/PUNZON 8250857SPBOL     1
