RC0001220474116U202100923220121700923220121717/12/20210218    3150025823942196432000011082700001620070000000000000                                                               EQUIPO SET PRIMARIO C/CLAVE REF 14001BOL     1
RC0001220474116U202100923220121700923220121717/12/20210218    3150025823942196432000011137100001419310000000000000                                                               TIRA GLUCOMETRIA FREESTYLE H OPTIUM .PZA     1
RC0001220474116U202100923220121700923220121717/12/20210218    3150025823942196432000016830000000970620000000000000                                                             SIST FIJACION CAT PERIFERICO 6.5X7 1683SOB     1
RC0001220474116U202100923220121700923220121717/12/20210218    3150025823942196432000030936900001431840000000000000                                                                                              BURETABOL     1
RC0001220474116U202100923220121700923220121717/12/20210218    3150025823942196432000001956000001620610000000000000                                                                      CONECTOR MICRO CLAVE LAT-MC100SOB     1
RC0001220474116U202100923220121700923220121717/12/20210218    31500258239421964320000Q1AA7400003911720000000000000                                                            CATETER PERIFE INTROCAN # 24G 4251601-04SOB     1
RC0001220474116U202100923220121700923220121717/12/20210218    31500258239421964320000B05B1400001012740000000000000                                                                SOLUCION SALINA 0.45% Sln Iny 500 mlBOL     1
RC0001220474116U202100923220121700923220121717/12/20210229    31500258239421964320000E1AB0300003888390000000000000                                                            SOLUCION SALINA 0.9% SLN INY BO X 500 MLBOL     1
