CC0000019082872U202100050132034400050132034413/12/20210252    3150024623942196432000030936900001431840000000000000                                                                                              BURETABOL     1
CC0000019082872U202100050132034400050132034413/12/20210252    3150024623942196432000024673600000222980000000000000                                                                     JERINGA DESECHABLE 5 ml 27*11/2SIN     1
CC0000019082872U202100050132034400050132034413/12/20210252    3150024623942196432000016830000000970620000000000000                                                             SIST FIJACION CAT PERIFERICO 6.5X7 1683SOB     1
CC0000019082872U202100050132034400050132034413/12/20210252    31500246239421964320000Q1AA7100000610620000000000000                                                            CATETER PERIFE INTROCAN # 18G 4251687-04SIN     1
CC0000019082872U202100050132034400050132034413/12/20210252    3150024623942196432000011082700001620070000000000000                                                               EQUIPO SET PRIMARIO C/CLAVE REF 14001BOL     1
