RC0001140900476U202100000557078100000557078117/12/20211830     3300004239421964320000N02BE100000000JP0000000000000                                                                ACETAMINOFEN 250MG/5ML JER PLLE JAB. JR     1
RC0001140900476U202100000557078100000557078117/12/20211646     3300004239421964320000A02BC100001677520000000000000                                                                ESOMEPRAZOL POLVO LIOF INY 40 MG /R/VAL     1
RC0001140900476U202100000557078100000557078117/12/20211646     3300004239421964320000A04A1300001335720000000000000                                                                                      ONDAX TAB 4 MGTAB     1
RC0001140900476U202100000557078100000557078117/12/20211814    31500263239421964320000E1AC0100000199400000000000000                                                                          SUERO MIXTO Sln Iny 500 mlBIN     1
RC0001140900476U202100000557078100000557078117/12/20211646     3300004239421964320000A12BA100000552980000000000000                                                            CLORURO POTASIO Sln Iny AMP 20 MEQ/10 MLAMP     1
