CC0001192812216U202100921501120500921501120505/12/20211131    3190092523942196432000011047900000223010000000000000                                                                            JERINGA X 1ML REF 302579SIN     1
CC0001192812216U202100921501120500921501120505/12/20211131    3190092523942196432000011048600000223020000000000000                                                                 JERINGA VACUNACION 3ML C/AGU 302542SIN     2
CC0001192812216U202100921501120500921501120505/12/20211131    3190092523942196432000024672100001609890000000000000                                                            JERINGA INSULINA 1ML TAPA NARANJA JEI013SOB     1
