CC0000006629901U202100924421122700924421122727/12/20210036    3190280023942196432000011082700001620070000000000000                                                               EQUIPO SET PRIMARIO C/CLAVE REF 14001BOL     1
CC0000006629901U202100924421122700924421122727/12/20210036    3190280023942196432000016830000000970620000000000000                                                             SIST FIJACION CAT PERIFERICO 6.5X7 1683SOB     1
CC0000006629901U202100924421122700924421122727/12/20210036    3190280023942196432000030936900001431840000000000000                                                                                              BURETABOL     1
CC0000006629901U202100924421122700924421122727/12/20210036    3190280023942196432000001956000001620610000000000000                                                                      CONECTOR MICRO CLAVE LAT-MC100SOB     1
CC0000006629901U202100924421122700924421122727/12/20210036    31902800239421964320000Q1AA7200000610630000000000000                                                            CATETER PERIFE INTROCAN # 20G 4251644-04SIN     1
CC0000006629901U202100924421122700924421122727/12/20210036    31902800239421964320000E1AB0300003888390000000000000                                                            SOLUCION SALINA 0.9% SLN INY BO X 500 MLBOL     1
