CC0000008686391H202100000556905100000556905113/12/20211647    31500065237421964250000B1AB0200003939510000000000000                 ENOXAPARINA SODICA 40MG/0.4ML(100MG/ML) SOL INY INST CAJ X 2JERPREL X 0.4ML TECHDOWJRP     1
CC0000008686391H202100000556905100000556905113/12/20211647    31500065237421964250000C09C0200001335330000000000000                                                                              MICARDIS TAB 80 MG /R/COM     1
CC0000008686391H202100000556905100000556905113/12/20211647    31500065237421964250000N2AX0400001204140000000000000                                                                             TRAMAL Sln Iny 50 mg/mlAMP     2
CC0000008686391H202100000556905100000556905113/12/20211647    31500065237421964250000N2BE0100001276930000000000000                                                                                    DOLEX TAB 500 MGTAB     6
