CC0001045685077H202100000556873500000556873513/12/20211051     3300009237421964250000A2BC0900000200150000000000000                                                                               ORAZOLE Sln Iny 40 mgCIN     1
CC0001045685077H202100000556873500000556873513/12/20211638     3300009237421964250000A11AA300001332860000000000000                                                                    ANEMIDOX Cap 330 MG /1 mg/100 MGCAP     1
CC0001045685077H202100000556873500000556873513/12/20210032    31902787237421964250000E1AB0300003888390000000000000                                                            SOLUCION SALINA 0.9% SLN INY BO X 500 MLBOL     1
CC0001045685077H202100000556873500000556873513/12/20210032    31902787237421964250000E1AD0300000199490000000000000                                         LACTATO RINGER USP (HARTMANN)  SOL INY  BOL X 1000ML BAXTERBIN     2
CC0001045685077H202100000556873500000556873513/12/20211638     3300009237421964250000J01D1300001469600000000000000                                                                               POZINEG POLVO INY 1 GVAL     4
CC0001045685077H202100000556873500000556873513/12/20211051     3300009237421964250000J01D1300001469600000000000000                                                                               POZINEG POLVO INY 1 GVAL     2
CC0001045685077H202100000556873500000556873513/12/20211638     3300009237421964250000J01FF200003888100000000000000                                                                             EUROCLIN SLN INY 600 MGAMP     1
CC0001045685077H202100000556873500000556873513/12/20211051     3300009237421964250000J01FF200003888100000000000000                                                                             EUROCLIN SLN INY 600 MGAMP     2
CC0001045685077H202100000556873500000556873513/12/20211638     3300009237421964250000N2BB1100000217160000000000000                                                                      NOVALGINA Sln Iny 2.5 g x 5 mlAMP     1
CC0001045685077H202100000556873500000556873513/12/20211051     3300009237421964250000N2BB1100000217160000000000000                                                                      NOVALGINA Sln Iny 2.5 g x 5 mlAMP     3
