CC0000032776593H202100015052821900015052821913/12/20211725    3190118923742196425000011127400001413910000000000000                                                            EQUIPO ADMINIST NUTR PUNZON REF 674669 BBOL     1
CC0001044620763H202100015052821900015052821913/12/20211725    3190118923742196425000022426800001140510000000000000                                                                    EQUIPO MACROGOTEO BAXTER MRC0001SOB     1
CC0000072339909H202100015052821900015052821913/12/20211725    3190118923742196425000045136100001419300000000000000                                                                            LANCETA DEXTROMETER X UNPZA     2
CC0001044620763H202100015052821900015052821913/12/20211725    31901189237421964250000E1AD0300000199490000000000000                                         LACTATO RINGER USP (HARTMANN)  SOL INY  BOL X 1000ML BAXTERBIN     2
TI0001047220728H202100015052821900015052821913/12/20211725    31901189237421964250000E1AB0500003888400000000000000                                                              SOLUCION SALINA 0.9% SLN INY X 1000 MLBOL     2
CC0001038410747H202100015052821900015052821913/12/20211725    31901189237421964250000E1AB0500003888400000000000000                                                              SOLUCION SALINA 0.9% SLN INY X 1000 MLBOL     2
CC0000072339909H202100015052821900015052821913/12/20211725    3190118923742196425000011137100001419310000000000000                                                               TIRA GLUCOMETRIA FREESTYLE H OPTIUM .PZA     2
