TI0001103512693H202100000556880100000556880113/12/20211549     3300009237421964250000A6AC0200001467010000000000000                                                             LACTULAX JARABE 66.7G/100ML SOX15ML /R/SOB     1
TI0001103512693H202100000556880100000556880113/12/20211037    31500519237421964250000E1AC0100000199400000000000000                                                                          SUERO MIXTO Sln Iny 500 mlBIN     1
TI0001103512693H202100000556880100000556880113/12/20211708     3300009237421964250000J01X0900001280300000000000000                                                         COLISTIMETHATE 150MG POLV INY  CAJ X 10VIALVAL     1
TI0001103512693H202100000556880100000556880113/12/20211037     3300009237421964250000J01X0900001280300000000000000                                                         COLISTIMETHATE 150MG POLV INY  CAJ X 10VIALVAL     2
TI0001103512693H202100000556880100000556880113/12/20211037     3300009237421964250000V6DB0800001286840000000000000                                                                          PEDIASURE LIQUIDO X 237 MLFCO     3
TI0001103512693H202100000556880100000556880113/12/20211037     3300009237421964250000J01DH400001317770000000000000                                                                MEROPENEM POLVO LIOF SLN INY 1 G /R/CAJ     3
TI0001103512693H202100000556880100000556880113/12/20211037     3300009237421964250000J02AC100000553180000000000000                                                                   FLUCONAZOL SLN INY 200 MG/ 100 MLFCO     2
TI0001103512693H202100000556880100000556880113/12/20211707     3300009237421964250000N2BB0100001672010000000000000                                  DIPIRONA 1GR/2ML(0.5GR/ML) SOL INY INST CAJ X 100AMP X 2ML VITALISAMP     4
TI0001103512693H202100000556880100000556880113/12/20211037     3300009237421964250000A02BC700001684270000000000000                                                            OMEPRAZOL 40MG POLVO LIOFILIZADO AMPOLLAVAL     1
TI0001103512693H202100000556880100000556880113/12/20211424    31903300237421964250000V07A1300000502600000000000000                                                                                AGUA ESTERIL x 10 mlAMP    10
