CC0000055312002U202100050132042100050132042113/12/20211456    3150026323942196432000011056000000228900000000000000                                                                   MEROCEL TAPON NASAL 8CM REF400402SIN     1
CC0000008731538U202100050132042100050132042113/12/20211456    3150026323942196432000043485100001618510000000000000                GUANTE QUIRURGICO DE LATEX REF 2D72N65X CAJ X 50 PROTEXIS  6.5 BN EXENTO-DC.417/2020SOB     2
CC0000008731538U202100050132042100050132042113/12/20211456    3150026323942196432000024673600000222980000000000000                                                                     JERINGA DESECHABLE 5 ml 27*11/2SIN     1
CC0000008731538U202100050132042100050132042113/12/20211456    3150026323942196432000024674000001138340000000000000   JERINGA 3PARTES C/A 10ML REF JEHL005 CAJ X 100 ALFASAFE  21GX1 PULG 1/2 PULG BN EXENTO-DC.417/202PZA     1
CC0000008731538U202100050132042100050132042113/12/20211456    3150026323942196432000013077800000471960000000000000                                                             GASA NO TEJIDA EST 7.5 X 7.5 SOB X 3 UNSOB     5
CC0000008731538U202100050132042100050132042113/12/20211456    3150026323942196432000011048600000223020000000000000                                                                 JERINGA VACUNACION 3ML C/AGU 302542SIN     2
CC0000008731538U202100050132042100050132042113/12/20211456    3150026323942196432000011047900000223010000000000000                                                                            JERINGA X 1ML REF 302579SIN     1
CC0000008731538U202100050132042100050132042113/12/20211456    3150026323942196432000017565800001585150000000000000                                                             SUTURA PROLENE 3-0 45CM PS1 PRIME 8663TSOB     1
CC0000060351271U202100050132042100050132042113/12/20211456    3150026323942196432000001956000001620610000000000000                                                                      CONECTOR MICRO CLAVE LAT-MC100SOB     1
CC0000060351271U202100050132042100050132042113/12/20211456    3150026323942196432000024673600000222980000000000000                                                                     JERINGA DESECHABLE 5 ml 27*11/2SIN     1
CC0000060351271U202100050132042100050132042113/12/20211456    3150026323942196432000016830000000970620000000000000                                                             SIST FIJACION CAT PERIFERICO 6.5X7 1683SOB     1
CC0000060351271U202100050132042100050132042113/12/20211456    31500263239421964320000Q1AA7200000610630000000000000                                                            CATETER PERIFE INTROCAN # 20G 4251644-04SIN     1
CC0000060351271U202100050132042100050132042113/12/20211456    3150026323942196432000011082700001620070000000000000                                                               EQUIPO SET PRIMARIO C/CLAVE REF 14001BOL     1
CC0000060351271U202100050132042100050132042113/12/20211456    31500263239421964320000E1AD0200003888320000000000000                                                                              HARTMAN SLN INY 500 MLBOL     1
