CC0000072180783U202100921497120400921497120404/12/20212131    3190135523942196432000012472400000232190000000000000                                                                 SUTURA ETHILON 2-0 SC-26 45CM  164TSIN     1
CC0000072180783U202100921497120400921497120404/12/20212131    3190135523942196432000013077800000471960000000000000                                                             GASA NO TEJIDA EST 7.5 X 7.5 SOB X 3 UNSOB     3
CC0000072180783U202100921497120400921497120404/12/20212131    3190135523942196432000024673600000222980000000000000                                                                     JERINGA DESECHABLE 5 ml 27*11/2SIN     1
CC0000072180783U202100921497120400921497120404/12/20212131    31901355239421964320000E1AB0200000199290000000000000                                                            SOLUCION SALINA 0.9% SLN INY BO X 100 MLBIN     1
