CC0000012576309H202100000556883000000556883013/12/20210949     3300009237421964250000A2BC0600001335730000000000000                                                                                   ORAZOLE CAP 40 MGCAP     1
CC0000012576309H202100000556883000000556883013/12/20210948     3300009237421964250000B1AB0200003939510000000000000                 ENOXAPARINA SODICA 40MG/0.4ML(100MG/ML) SOL INY INST CAJ X 2JERPREL X 0.4ML TECHDOWJRP     1
CC0000012576309H202100000556883000000556883013/12/20210949     3300009237421964250000N3AG0400001337010000000000000                                                                              VALCOTE TAB 500 MG /R/TAB     3
CC0000012576309H202100000556883000000556883013/12/20210948     3300009237421964250000N3AG0400001337010000000000000                                                                              VALCOTE TAB 500 MG /R/TAB     1
CC0000012576309H202100000556883000000556883013/12/20211406     3300009237421964250000N03A1200001277430000000000000                                                                               KEPPRA TAB 500 MG /R/TAB     2
CC0000012576309H202100000556883000000556883013/12/20210949     3300009237421964250000N03A1200001277430000000000000                                                                               KEPPRA TAB 500 MG /R/TAB     4
CC0000012576309H202100000556883000000556883013/12/20211515     3300009237421964250000N03A2300001337150000000000000                                                                               VIMPAT TAB 100 MG /R/TAB     4
CC0000012576309H202100000556883000000556883013/12/20210949     3300009237421964250000N03A2300001337150000000000000                                                                               VIMPAT TAB 100 MG /R/TAB     2
CC0000012576309H202100000556883000000556883013/12/20210948     3300009237421964250000V06D1400000968430000000000000                                                                              JEVITY iquido x 500 mlFCO     2
CC0000012576309H202100000556883000000556883013/12/20211134    31903308237421964250000V07A1300000502600000000000000                                                                                AGUA ESTERIL x 10 mlAMP     8
