CC0001045685077H202100000556557400000556557404/12/20211831    31903184237421964250000E1AB0300003888390000000000000                                                            SOLUCION SALINA 0.9% SLN INY BO X 500 MLBOL     1
CC0001045685077H202100000556557400000556557404/12/20210826     3300009237421964250000J01D1300001469600000000000000                                                                               POZINEG POLVO INY 1 GVAL     6
CC0001045685077H202100000556557400000556557404/12/20210826     3300009237421964250000J01FF200003888100000000000000                                                                             EUROCLIN SLN INY 600 MGAMP     3
CC0001045685077H202100000556557400000556557404/12/20210826     3300009237421964250000N2AX0400001204140000000000000                                                                             TRAMAL Sln Iny 50 mg/mlAMP     3
CC0001045685077H202100000556557400000556557404/12/20211418     3300010237421964250000N2BB1100000217160000000000000                                                                      NOVALGINA Sln Iny 2.5 g x 5 mlAMP     1
CC0001045685077H202100000556557400000556557404/12/20210826     3300009237421964250000N2BB1100000217160000000000000                                                                      NOVALGINA Sln Iny 2.5 g x 5 mlAMP     4
CC0001045685077H202100000556557400000556557404/12/20211418     3300010237421964250000N02B1100001464120000000000000                                           PARACETAMOL EP 1000MG/100ML(10MG/ML) SOL INY  CAJ X 10FCOVAL     1
CC0001045685077H202100000556557400000556557404/12/20210827     3300009237421964250000N02B1100001464120000000000000                                           PARACETAMOL EP 1000MG/100ML(10MG/ML) SOL INY  CAJ X 10FCOVAL     4
CC0001045685077H202100000556557400000556557404/12/20211242    31902788237421964250000V07A1300000502600000000000000                                                                                AGUA ESTERIL x 10 mlAMP     5
