CC0000026376694H202100000556877200000556877213/12/20210210     3300009237421964250000A02B0500001335110000000000000                                                                                LOSEC MUPS Tab 20 mgTAB     2
CC0000026376694H202100000556877200000556877213/12/20211000     3300009237421964250000A10B0600001334820000000000000                                                                              JANUVIA TAB 100 MG /R/TAB     1
CC0000026376694H202100000556877200000556877213/12/20210211     3300009237421964250000A10B0600001334820000000000000                                                                              JANUVIA TAB 100 MG /R/TAB     1
CC0000026376694H202100000556877200000556877213/12/20210211     3300009237421964250000A11C0600001389430000000000000                                                                             CALCITRIOL CAP 0.25 MCGCAP     1
CC0000026376694H202100000556877200000556877213/12/20210211     3300009237421964250000B1AB0200003939510000000000000                 ENOXAPARINA SODICA 40MG/0.4ML(100MG/ML) SOL INY INST CAJ X 2JERPREL X 0.4ML TECHDOWJRP     1
CC0000026376694H202100000556877200000556877213/12/20211544     3300009237421964250000N02B0300001277700000000000000                                                                           CARDIOASPIRINA TAB 100 MGTAB     1
CC0000026376694H202100000556877200000556877213/12/20210210     3300009237421964250000N02B0300001277700000000000000                                                                           CARDIOASPIRINA TAB 100 MGTAB     1
CC0000026376694H202100000556877200000556877213/12/20212330    31500460237421964250000E1AB0300003888390000000000000                                                            SOLUCION SALINA 0.9% SLN INY BO X 500 MLBOL     1
CC0000026376694H202100000556877200000556877213/12/20211000     3300009237421964250000C7FA0100001277270000000000000                                                                                     NORVAS TAB 5 MGTAB     1
CC0000026376694H202100000556877200000556877213/12/20210211     3300009237421964250000C7FA0100001277270000000000000                                                                                     NORVAS TAB 5 MGTAB     1
CC0000026376694H202100000556877200000556877213/12/20210211     3300009237421964250000B04A0500001316390000000000000                                                                                   CRESTOR TAB 20 MGTAB     1
CC0000026376694H202100000556877200000556877213/12/20210211     3300009237421964250000J1DA3100000187510000000000000                                                                           ROCEFIN Polvo SLN INY 1 GCIN     2
