CC0001129498209U202100000556877500000556877513/12/20210434     3300004239421964320000B1AB0100001227270000000000000                                             HEPAMAX 25000UI/5ML(5000UI/ML) SOL INY  CAJ X 25AMPX5MLAMP     1
CC0001129498209U202100000556877500000556877513/12/20210434     3300004239421964320000A12BA100000552980000000000000                                                            CLORURO POTASIO Sln Iny AMP 20 MEQ/10 MLAMP     1
CC0001129498209U202100000556877500000556877513/12/20210434     3300004239421964320000C09CA400001277130000000000000                                                                                  LOSARTAN TAB 50 MGTAB     1
CC0001129498209U202100000556877500000556877513/12/20210435     3300004239421964320000A02B0800001276960000000000000                                                                                 OMEPRAZOL CAP 20 MGCAP     1
CC0001129498209U202100000556877500000556877513/12/20210434     3300004239421964320000C02C0100001316210000000000000                                                                                     PRATEN TAB 1 MGTAB     1
CC0001129498209U202100000556877500000556877513/12/20210434     3300004239421964320000C08CA300001313930000000000000                                                                                AMLODIPINO TAB 10 MGTAB     1
