CC0001140853753U202100154967122400154967122424/12/20210129    3150065723942196432000011082700001620070000000000000                                                               EQUIPO SET PRIMARIO C/CLAVE REF 14001BOL     1
CC0001140853753U202100154967122400154967122424/12/20210129    3150065723942196432000016830000000970620000000000000                                                             SIST FIJACION CAT PERIFERICO 6.5X7 1683SOB     1
CC0001140853753U202100154967122400154967122424/12/20210129    3150065723942196432000024674000001138340000000000000   JERINGA 3PARTES C/A 10ML REF JEHL005 CAJ X 100 ALFASAFE  21GX1 PULG 1/2 PULG BN EXENTO-DC.417/202PZA     1
CC0001140853753U202100154967122400154967122424/12/20210129    31500657239421964320000E1AB0700003888350000000000000                                                            SOLUCION SALINA 0.9% SLN INY BO X 250 MLBOL     1
CC0001140853753U202100154967122400154967122424/12/20210129    31500657239421964320000Q1AA7200000610630000000000000                                                            CATETER PERIFE INTROCAN # 20G 4251644-04SIN     1
CC0001140853753U202100154967122400154967122424/12/20210601    3190199223942196432000011137100001419310000000000000                                                               TIRA GLUCOMETRIA FREESTYLE H OPTIUM .PZA     1
CC0001140853753U202100154967122400154967122424/12/20210601    3190199223942196432000045136100001419300000000000000                                                                            LANCETA DEXTROMETER X UNPZA     1
CC0001140853753U202100154967122400154967122424/12/20210601    31901992239421964320000E1AD0300000199490000000000000                                         LACTATO RINGER USP (HARTMANN)  SOL INY  BOL X 1000ML BAXTERBIN     1
