RC0001044671880U202100904099122200904099122222/12/20211536    3150039423942196432000011048600000223020000000000000                                                                 JERINGA VACUNACION 3ML C/AGU 302542SIN     3
RC0001044671880U202100904099122200904099122222/12/20211536    3150039423942196432000013077800000471960000000000000                                                             GASA NO TEJIDA EST 7.5 X 7.5 SOB X 3 UNSOB     4
RC0001044671880U202100904099122200904099122222/12/20211536    3150039423942196432000043485100001618510000000000000                GUANTE QUIRURGICO DE LATEX REF 2D72N65X CAJ X 50 PROTEXIS  6.5 BN EXENTO-DC.417/2020SOB     2
