CC0000008485910U202100000556565600000556565604/12/20211205     3300010239421964320000B02AA100001407470000000000000                                                                    CLINTRANEX SLN INY 500 MG / 5 MLAMP     2
CC0000008485910U202100000556565600000556565604/12/20211543    31500658239421964320000E1AD0300000199490000000000000                                         LACTATO RINGER USP (HARTMANN)  SOL INY  BOL X 1000ML BAXTERBIN     1
CC0000008485910U202100000556565600000556565604/12/20211225     3300010239421964320000J7AA0600001602890000000000000                                                            VACUNA ANTITETANICA SUSP INY 40 UI/0.5MLVAL     1
