CC0000022467419U202100913005122100913005122121/12/20211446    3190201023942196432000011082700001620070000000000000                                                               EQUIPO SET PRIMARIO C/CLAVE REF 14001BOL     1
CC0000022467419U202100913005122100913005122121/12/20211446    3190201023942196432000024674000001138340000000000000   JERINGA 3PARTES C/A 10ML REF JEHL005 CAJ X 100 ALFASAFE  21GX1 PULG 1/2 PULG BN EXENTO-DC.417/202PZA     3
CC0000022467419U202100913005122100913005122121/12/20211446    3190201023942196432000030936900001431840000000000000                                                                                              BURETABOL     1
CC0000022467419U202100913005122100913005122121/12/20211446    3190201023942196432000001956000001620610000000000000                                                                      CONECTOR MICRO CLAVE LAT-MC100SOB     1
CC0000022467419U202100913005122100913005122121/12/20211446    3190201023942196432000000602600001259280000000000000                                                             APOSITO TEGADERM IV PD 1610 5CM X 5.7CMSOB     1
CC0000022467419U202100913005122100913005122121/12/20211446    31902010239421964320000Q1AA7100000610620000000000000                                                            CATETER PERIFE INTROCAN # 18G 4251687-04SIN     1
CC0000022467419U202100913005122100913005122121/12/20211446    31902010239421964320000E1AD0300000199490000000000000                                         LACTATO RINGER USP (HARTMANN)  SOL INY  BOL X 1000ML BAXTERBIN     1
CC0000022467419H202100913005122100913005122121/12/20212230    31901879237421964250000E1AB0500003888400000000000000                                                              SOLUCION SALINA 0.9% SLN INY X 1000 MLBOL     1
