CC0000007460966H202100000556882500000556882513/12/20211032     3300009237421964250000A03F0300001626860000000000000                                                                   METOCLOPRAMIDA SLN INY 10 MG/2 MLAMP     2
CC0000007460966H202100000556882500000556882513/12/20210649    31903152237421964250000E1AB0300003888390000000000000                                                            SOLUCION SALINA 0.9% SLN INY BO X 500 MLBOL     1
CC0000007460966H202100000556882500000556882513/12/20212208    31902491237421964250000E1AB0500003888400000000000000                                                              SOLUCION SALINA 0.9% SLN INY X 1000 MLBOL     1
CC0000007460966H202100000556882500000556882513/12/20211032     3300009237421964250000A03BB100003889180000000000000                                      HIOSCINA BUTIL BROMURO 20MG/ML SOL INY CAJ X 100AMP X 1ML RYANAMP     3
CC0000007460966H202100000556882500000556882513/12/20211422    31903300237421964250000V07A1300000502600000000000000                                                                                AGUA ESTERIL x 10 mlAMP    10
