CC0000008257979H202100000556548500000556548504/12/20210815     3300009237421964250000V6DB5200000303900000000000000                                                                    PULMOCARE Liquido Tarro x 237 mlLAT     4
CC0000008257979H202100000556548500000556548504/12/20210814     3300009237421964250000H02AB700000585860000000000000                                                                HIDROCORTISONA SUCCI POL LIOF 100 MGVAL     2
CC0000008257979H202100000556548500000556548504/12/20211324     3300009237421964250000J01DH400001317770000000000000                                                                MEROPENEM POLVO LIOF SLN INY 1 G /R/CAJ     1
CC0000008257979H202100000556548500000556548504/12/20210815     3300009237421964250000J01DH400001317770000000000000                                                                MEROPENEM POLVO LIOF SLN INY 1 G /R/CAJ     2
CC0000008257979H202100000556548500000556548504/12/20210337     3300009237421964250000N02AA700000979510000000000000                                                            DIHIDROCODEINA SLN ORAL 2.42 MG/ML X 120FCO     1
CC0000008257979H202100000556548500000556548504/12/20210815     3300009237421964250000A02BC700001684270000000000000                                                            OMEPRAZOL 40MG POLVO LIOFILIZADO AMPOLLAVAL     1
CC0000008257979H202100000556548500000556548504/12/20211015    31903300237421964250000V07A1300000502600000000000000                                                                                AGUA ESTERIL x 10 mlAMP    10
