CC0000079468750U202100924097122300924097122323/12/20211145    3150068823942196432000011082700001620070000000000000                                                               EQUIPO SET PRIMARIO C/CLAVE REF 14001BOL     1
CC0000079468750U202100924097122300924097122323/12/20211145    3150068823942196432000024673600000222980000000000000                                                                     JERINGA DESECHABLE 5 ml 27*11/2SIN     3
CC0000079468750U202100924097122300924097122323/12/20211145    3150068823942196432000030936900001431840000000000000                                                                                              BURETABOL     1
CC0000079468750U202100924097122300924097122323/12/20211145    31500688239421964320000E1AB0200000199290000000000000                                                            SOLUCION SALINA 0.9% SLN INY BO X 100 MLBIN     1
CC0000079468750U202100924097122300924097122323/12/20211145    31500688239421964320000Q1AA7200000610630000000000000                                                            CATETER PERIFE INTROCAN # 20G 4251644-04SIN     1
