MS0000009060998U202100050132037200050132037213/12/20210941    3150065723942196432000030936900001431840000000000000                                                                                              BURETABOL     1
MS0000009060998U202100050132037200050132037213/12/20210941    31500657239421964320000E1AB0200000199290000000000000                                                            SOLUCION SALINA 0.9% SLN INY BO X 100 MLBIN     1
MS0000009060998U202100050132037200050132037213/12/20210941    3150065723942196432000001956000001620610000000000000                                                                      CONECTOR MICRO CLAVE LAT-MC100SOB     1
MS0000009060998U202100050132037200050132037213/12/20210941    3150065723942196432000024674000001138340000000000000   JERINGA 3PARTES C/A 10ML REF JEHL005 CAJ X 100 ALFASAFE  21GX1 PULG 1/2 PULG BN EXENTO-DC.417/202PZA     5
MS0000009060998U202100050132037200050132037213/12/20210941    3150065723942196432000016830000000970620000000000000                                                             SIST FIJACION CAT PERIFERICO 6.5X7 1683SOB     1
MS0000009060998U202100050132037200050132037213/12/20210941    31500657239421964320000Q1AA7400003911720000000000000                                                            CATETER PERIFE INTROCAN # 24G 4251601-04SOB     1
MS0000009060998U202100050132037200050132037213/12/20210941    3150065723942196432000022426800001140510000000000000                                                                    EQUIPO MACROGOTEO BAXTER MRC0001SOB     1
MS0000009060998U202100050132037200050132037213/12/20210941    3150065723942196432000011082700001620070000000000000                                                               EQUIPO SET PRIMARIO C/CLAVE REF 14001BOL     1
MS0000009060998U202100050132037200050132037213/12/20210941    31500657239421964320000E1AD0300000199490000000000000                                         LACTATO RINGER USP (HARTMANN)  SOL INY  BOL X 1000ML BAXTERBIN     1
