CC0000007479382H202100015112756700015112756713/12/20211446    3150053123742196425000043485100001618510000000000000                GUANTE QUIRURGICO DE LATEX REF 2D72N65X CAJ X 50 PROTEXIS  6.5 BN EXENTO-DC.417/2020SOB     1
CC0001129564191H202100015112756700015112756713/12/20211446    3150053123742196425000000602700001197200000000000000                                                              APOSITO TRANSP  1655 IV 8.5CM X 11.5CMSOB     2
CC0000007479382H202100015112756700015112756713/12/20211446    3150053123742196425000000602700001197200000000000000                                                              APOSITO TRANSP  1655 IV 8.5CM X 11.5CMSOB     1
CC0000007479382H202100015112756700015112756713/12/20211446    3150053123742196425000013077800000471960000000000000                                                             GASA NO TEJIDA EST 7.5 X 7.5 SOB X 3 UNSOB     5
