RC0001048091909A202100000027870500000027870513/12/20211815    31903336240421964190000N01A0500003844190000000000000                                                                          REMIFENTANILO SLN INY 2 MGVAL     1
RC0001048091909A202100000027870500000027870513/12/20211815    3190333624042196419000000602600001259280000000000000                                                             APOSITO TEGADERM IV PD 1610 5CM X 5.7CMSOB     2
RC0001048091909A202100000027870500000027870513/12/20211815    3190333624042196419000030161400001459220000000000000                                                                       MANGUERA SUCCION 6 MM*3.1 MTSSOB     2
RC0001048091909A202100000027870500000027870513/12/20211815    3190333624042196419000011073300001096420000000000000                                                                BOLSA DE SUCCION DE FLUIDOS x 2500mLBOL     1
RC0001048091909A202100000027870500000027870513/12/20211815    3190333624042196419000020750800000295830000000000000                                                                       PLACA RETORNO PEDIAT E7510-25SIN     1
RC0001048091909A202100000027870500000027870513/12/20211815    3190333624042196419000053074400000607910000000000000                                                               GASA ESTERIL 10*10 SOBRE X 3 UNIDADESSOB     4
RC0001048091909A202100000027870500000027870513/12/20211815    3190333624042196419000011085300001082140000000000000                                                                           GUANTE QUIRURGICO TALLA 8SOB     2
RC0001048091909A202100000027870500000027870513/12/20211815    3190333624042196419000011085200001585390000000000000                                                                       GUANTE QUIRURGICO TALLA 7 1/2SOB     5
RC0001048091909A202100000027870500000027870513/12/20211815    3190333624042196419000011085100001082120000000000000                                                                           GUANTE QUIRURGICO TALLA 7SOB     2
RC0001048091909A202100000027870500000027870513/12/20211815    3190333624042196419000043485100001618510000000000000                GUANTE QUIRURGICO DE LATEX REF 2D72N65X CAJ X 50 PROTEXIS  6.5 BN EXENTO-DC.417/2020SOB     1
RC0001048091909A202100000027870500000027870513/12/20211815    3190333624042196419000011082700001620070000000000000                                                               EQUIPO SET PRIMARIO C/CLAVE REF 14001BOL     1
RC0001048091909A202100000027870500000027870513/12/20211815    3190333624042196419000038576600000256740000000000000                                                                        SONDA ASPIRACION CONTROL #12SIN     1
RC0001048091909A202100000027870500000027870513/12/20211815    3190333624042196419000000400100000258110000000000000                                                              TUBO ENDOTRAQUEAL 3.5 Fr C/BALON 86443SOB     1
RC0001048091909A202100000027870500000027870513/12/20211815    31903336240421964190000Q1A11800000258040000000000000                                                                         CANULA OXIGENO NASAL PEDIATSIN     1
RC0001048091909A202100000027870500000027870513/12/20211815    3190333624042196419000035356500003919000000000000000                                                                                        LLAVE 3 VIASSOB     1
RC0001048091909A202100000027870500000027870513/12/20211815    3190333624042196419000024673600000222980000000000000                                                                     JERINGA DESECHABLE 5 ml 27*11/2SIN     1
RC0001048091909A202100000027870500000027870513/12/20211815    31903336240421964190000E1AB0300003888390000000000000                                                            SOLUCION SALINA 0.9% SLN INY BO X 500 MLBOL     2
RC0001048091909A202100000027870500000027870513/12/20211815    31903336240421964190000E1AB0700003888350000000000000                                                            SOLUCION SALINA 0.9% SLN INY BO X 250 MLBOL     2
RC0001048091909A202100000027870500000027870513/12/20211815    31903336240421964190000N01B0200003888110000000000000                                           ROXICAINA SE 100MG/10ML(1%) SOL INY CAJ X 24AMPACK X 10MLAPC     2
RC0001048091909A202100000027870500000027870513/12/20211815    31903336240421964190000A3BA0100001109400000000000000                                                                          ATROPINA SLN INY 1 MG / MLAMP     1
RC0001048091909A202100000027870500000027870513/12/20211815    3190333624042196419000047373400000228840000000000000                                                                             PINZA COLOSTOMIA 175635PZA     1
RC0001048091909A202100000027870500000027870513/12/20211815    3190333624042196419000040512700000228750000000000000                                                            BARRERA COLOSTOMIA CONVATEC 32 MM 125016PZA     1
RC0001048091909A202100000027870500000027870513/12/20211815    3190333624042196419000040516900000228620000000000000                                                                     BOLSA COLOSTOMIA CONVATEC 32 MMPZA     1
RC0001048091909A202100000027870500000027870513/12/20211815    31903336240421964190000K0950000001081340000000000000                                                              ENDOGIA ART VASC CURV EGIA45CTAVM 45MMPZA     1
RC0001048091909A202100000027870500000027870513/12/20211815    3190333624042196419000019489300000599360000000000000                                                                              VICRYL 5-0 RB1 70 J303SIN     2
RC0001048091909A202100000027870500000027870513/12/20211815    3190333624042196419000000504200000232730000000000000                                                                   SUTURA PROLENE 5-0 RB1 75CM 9956TSIN     1
RC0001048091909A202100000027870500000027870513/12/20211815    3190333624042196419000042473100003929820000000000000                                                STOQUINETA ORTOPEDICA TUBULAR ROL X 25MT WINER 5PULGCMT     2
RC0001048091909A202100000027870500000027870513/12/20211815    3190333624042196419000000102300000222960000000000000                                                                 JERINGA DESECHABLE SIN AGUJA X 20mLSIN     1
RC0001048091909A202100000027870500000027870513/12/20211815    3190333624042196419000022426800001140510000000000000                                                                    EQUIPO MACROGOTEO BAXTER MRC0001SOB     1
RC0001048091909A202100000027870500000027870513/12/20211815    3190333624042196419000017565100000232570000000000000                                                                         PROLENE 0 ORT 75 CT-1 8424TSIN     2
RC0001048091909A202100000027870500000027870513/12/20211815    3190333624042196419000024672100001609890000000000000                                                            JERINGA INSULINA 1ML TAPA NARANJA JEI013SOB     5
RC0001048091909A202100000027870500000027870513/12/20211815    3190333624042196419000018352000000232900000000000000                                                                                   SEDA 3-0 SH K832HSIN     1
RC0001048091909A202100000027870500000027870513/12/20211815    3190333624042196419000000503900000296270000000000000                                                                  SUTURA POLYSORB 3-0 75CM V20 GL122SIN     1
RC0001048091909A202100000027870500000027870513/12/20211815    3190333624042196419000045138000001413890000000000000                                                                       LAPIZ ELECTROBISTURI  SOB X 1SOB     1
RC0001048091909A202100000027870500000027870513/12/20211815    3190333624042196419000043879100001138200000000000000                                                                  HOJA BISTURI # 15 CSSB 15 01002003SOB     1
