CC0000072346165U202100050132041300050132041313/12/20211419    3190271223942196432000030936900001431840000000000000                                                                                              BURETABOL     1
CC0000072346165U202100050132041300050132041313/12/20211419    3190271223942196432000024673600000222980000000000000                                                                     JERINGA DESECHABLE 5 ml 27*11/2SIN     1
CC0000072346165U202100050132041300050132041313/12/20211419    3190271223942196432000016830000000970620000000000000                                                             SIST FIJACION CAT PERIFERICO 6.5X7 1683SOB     1
CC0000072346165U202100050132041300050132041313/12/20211419    31902712239421964320000Q1AA7200000610630000000000000                                                            CATETER PERIFE INTROCAN # 20G 4251644-04SIN     1
CC0000072346165U202100050132041300050132041313/12/20211419    31902712239421964320000E1AB0300003888390000000000000                                                            SOLUCION SALINA 0.9% SLN INY BO X 500 MLBOL     1
CC0000072346165U202100050132041300050132041313/12/20211419    3190271223942196432000011082700001620070000000000000                                                               EQUIPO SET PRIMARIO C/CLAVE REF 14001BOL     1
