TI0001084453898U202100000556570400000556570404/12/20211458     3300010239421964320000A2BC0900000200150000000000000                                                                               ORAZOLE Sln Iny 40 mgCIN     1
TI0001084453898U202100000556570400000556570404/12/20211514    31903190239421964320000E1AD0300000199490000000000000                                         LACTATO RINGER USP (HARTMANN)  SOL INY  BOL X 1000ML BAXTERBIN     1
TI0001084453898U202100000556570400000556570404/12/20211657     3300010239421964320000A3BB0300000512950000000000000                                                             BUSCAPINA COMP Sln Iny 20 mg+2.5 g/5 mlAMP     1
