RC0001046734821U202100919246120900919246120909/12/20211146    3150036223942196432000011137100001419310000000000000                                                               TIRA GLUCOMETRIA FREESTYLE H OPTIUM .PZA     2
RC0001046734821U202100919246120900919246120909/12/20211212    3150036223942196432000011082700001620070000000000000                                                               EQUIPO SET PRIMARIO C/CLAVE REF 14001BOL     1
RC0001046734821U202100919246120900919246120909/12/20211212    3150036223942196432000024674000001138340000000000000   JERINGA 3PARTES C/A 10ML REF JEHL005 CAJ X 100 ALFASAFE  21GX1 PULG 1/2 PULG BN EXENTO-DC.417/202PZA     1
RC0001046734821U202100919246120900919246120909/12/20211212    3150036223942196432000030936900001431840000000000000                                                                                              BURETABOL     1
RC0001046734821U202100919246120900919246120909/12/20211212    31500362239421964320000Q1AA7400003911720000000000000                                                            CATETER PERIFE INTROCAN # 24G 4251601-04SOB     1
RC0001046734821U202100919246120900919246120909/12/20211212    31500362239421964320000E1AD0300000199490000000000000                                         LACTATO RINGER USP (HARTMANN)  SOL INY  BOL X 1000ML BAXTERBIN     1
