RC0001194983165U202100175866121100175866121111/12/20210708    3150035423942196432000024674000001138340000000000000   JERINGA 3PARTES C/A 10ML REF JEHL005 CAJ X 100 ALFASAFE  21GX1 PULG 1/2 PULG BN EXENTO-DC.417/202PZA     1
RC0001194983165U202100175866121100175866121111/12/20211858    3150035423942196432000011082700001620070000000000000                                                               EQUIPO SET PRIMARIO C/CLAVE REF 14001BOL     1
RC0001194983165U202100175866121100175866121111/12/20211858    31500354239421964320000E1AC0100000199400000000000000                                                                          SUERO MIXTO Sln Iny 500 mlBIN     1
