CC0000084006612H202100015012637100015012637113/12/20211213    3150053723742196425000038568100000258050000000000000                                                                         CANULA OXIGENO NASAL ADULTOSIN     1
CC0001129500418H202100015012637100015012637113/12/20211213    3150053723742196425000034366500000269180000000000000                               INSPIROMETRO INCENTIVO RESPIRATORIO CAJ X 1 RSB BN EXENTO-DC.417/2020CAJ     1
CC0000084006612H202100015012637100015012637113/12/20211213    3150053723742196425000036441300000236540000000000000                                                                    JERINGA 1 ML GASES ARTERIAL 9023SIN     4
