CC0000055301698U202100050132040200050132040213/12/20211319    3150029223942196432000001956000001620610000000000000                                                                      CONECTOR MICRO CLAVE LAT-MC100SOB     1
CC0000055301698U202100050132040200050132040213/12/20211319    31500292239421964320000Q1AA7100000610620000000000000                                                            CATETER PERIFE INTROCAN # 18G 4251687-04SIN     1
CC0000055301698U202100050132040200050132040213/12/20211319    31500292239421964320000E1AB0300003888390000000000000                                                            SOLUCION SALINA 0.9% SLN INY BO X 500 MLBOL     1
CC0000055301698U202100050132040200050132040213/12/20211319    3150029223942196432000022426800001140510000000000000                                                                    EQUIPO MACROGOTEO BAXTER MRC0001SOB     1
