CC0000022310952H202100000556887200000556887213/12/20211004     3300009237421964250000A02B0700001277010000000000000                                                                                NEXIUM Tab 20 mg /R/TAB     1
CC0000022310952H202100000556887200000556887213/12/20211004     3300009237421964250000A10B1600001336910000000000000                                                                               TRAYENTA TAB 5 MG /R/TAB     1
CC0000022310952H202100000556887200000556887213/12/20211004     3300009237421964250000A11DA300001278410000000000000                                                                                  TIAMINA TAB 300 MGTAB     1
CC0000022310952H202100000556887200000556887213/12/20211540     3300009237421964250000A11C0600001389430000000000000                                                                             CALCITRIOL CAP 0.25 MCGCAP     1
CC0000022310952H202100000556887200000556887213/12/20211004     3300009237421964250000B1AB0200003939510000000000000                 ENOXAPARINA SODICA 40MG/0.4ML(100MG/ML) SOL INY INST CAJ X 2JERPREL X 0.4ML TECHDOWJRP     1
CC0000022310952H202100000556887200000556887213/12/20211004     3300009237421964250000N02B0300001277700000000000000                                                                           CARDIOASPIRINA TAB 100 MGTAB     1
CC0000022310952H202100000556887200000556887213/12/20211004     3300009237421964250000V7AA5200000215370000000000000                                                                          EPOYET SLN INY 2000 UI /R/VAL     1
CC0000022310952H202100000556887200000556887213/12/20211540     3300009237421964250000B3BB0100001351190000000000000                                                                               ACIDO FOLICO Tab 1 mgTAB     1
CC0000022310952H202100000556887200000556887213/12/20211517    31500065237421964250000E1AA0800000322190000000000000                                                                          DEXTROSA 5% Sln Iny 250 mlBIN     2
CC0000022310952H202100000556887200000556887213/12/20211004     3300009237421964250000C7AB1500001277290000000000000                                                                        BETALOC ZOK TAB LM 50 MG /R/TAB     1
CC0000022310952H202100000556887200000556887213/12/20211835     3300009237421964250000C7FA0200001277980000000000000                                                                                    NORVAS TAB 10 MGTAB     2
CC0000022310952H202100000556887200000556887213/12/20211004     3300009237421964250000C10AA600001333790000000000000                                                                                   CRESTOR TAB 10 MGTAB     1
CC0000022310952H202100000556887200000556887213/12/20211926     3300010237421964250000J1CA1100000954140000000000000                                                                    AMPICILINA AMP POLVO SLN INY 1 GVAL     4
CC0000022310952H202100000556887200000556887213/12/20211004     3300009237421964250000J01XA400001212420000000000000                                                               VANCOMICINA POLVO LIOF SLN INY 500 MGVAL     4
CC0000022310952H202100000556887200000556887213/12/20211926     3300010237421964250000N02B1100001464120000000000000                                           PARACETAMOL EP 1000MG/100ML(10MG/ML) SOL INY  CAJ X 10FCOVAL     2
CC0000022310952H202100000556887200000556887213/12/20211004     3300009237421964250000N2BE0400001313790000000000000                                                                      WINADEINE TAB 325 MG /8 MG /R/TAB     3
CC0000022310952H202100000556887200000556887213/12/20211004     3300009237421964250000N06A0300001304010000000000000                                                                               REMERON Tab 30 mg /R/TAB     1
CC0000022310952H202100000556887200000556887213/12/20211922     3300010237421964250000N02A3100001227160000000000000                                                                    OXYRAPID SLN INY 10 MG/ML X 1 MLAMP     1
