CC0000012576309H202100000556547300000556547304/12/20210911     3300010237421964250000A2BC0600001335730000000000000                                                                                   ORAZOLE CAP 40 MGCAP     1
CC0000012576309H202100000556547300000556547304/12/20210911     3300010237421964250000B1AB0200003939510000000000000                 ENOXAPARINA SODICA 40MG/0.4ML(100MG/ML) SOL INY INST CAJ X 2JERPREL X 0.4ML TECHDOWJRP     1
CC0000012576309H202100000556547300000556547304/12/20211748    31903308237421964250000E1AB0200000199290000000000000                                                            SOLUCION SALINA 0.9% SLN INY BO X 100 MLBIN     2
CC0000012576309H202100000556547300000556547304/12/20211618    31900135237421964250000E1AD0300000199490000000000000                                         LACTATO RINGER USP (HARTMANN)  SOL INY  BOL X 1000ML BAXTERBIN     2
CC0000012576309H202100000556547300000556547304/12/20210212     3300009237421964250000D04AX800000211800000000000000                                                                       PROCICAR NF CREMA TUBO X 60 GCIN     1
CC0000012576309H202100000556547300000556547304/12/20211419     3300009237421964250000N3AG0400001337010000000000000                                                                              VALCOTE TAB 500 MG /R/TAB     2
CC0000012576309H202100000556547300000556547304/12/20210912     3300010237421964250000N3AG0400001337010000000000000                                                                              VALCOTE TAB 500 MG /R/TAB     4
CC0000012576309H202100000556547300000556547304/12/20211420     3300009237421964250000N03A1200001277430000000000000                                                                               KEPPRA TAB 500 MG /R/TAB     2
CC0000012576309H202100000556547300000556547304/12/20210911     3300010237421964250000N03A1200001277430000000000000                                                                               KEPPRA TAB 500 MG /R/TAB     4
CC0000012576309H202100000556547300000556547304/12/20211420     3300009237421964250000N03A2300001337150000000000000                                                                               VIMPAT TAB 100 MG /R/TAB     2
CC0000012576309H202100000556547300000556547304/12/20210911     3300010237421964250000N03A2300001337150000000000000                                                                               VIMPAT TAB 100 MG /R/TAB     4
CC0000012576309H202100000556547300000556547304/12/20211742     3300009237421964250000V06D1400000968430000000000000                                                                              JEVITY iquido x 500 mlFCO     3
CC0000012576309H202100000556547300000556547304/12/20211519    31903308237421964250000V07A1300000502600000000000000                                                                                AGUA ESTERIL x 10 mlAMP     8
