CC0001129510914H202100000556573500000556573504/12/20211641    31902138237421964250000A3BB0200000512940000000000000                                                                          BUSCAPINA SIMPLE Iny 20 mgAMP     4
CC0001129510914H202100000556573500000556573504/12/20211858    31902138237421964250000B1AB0200003939510000000000000                 ENOXAPARINA SODICA 40MG/0.4ML(100MG/ML) SOL INY INST CAJ X 2JERPREL X 0.4ML TECHDOWJRP     1
CC0001129510914H202100000556573500000556573504/12/20211641    31902138237421964250000G03D0200001335910000000000000                                                                      GESLUTIN CAP BLANCA 200 MG /R/CAP     3
