CC0000013887621H202100015112756000015112756013/12/20211035    3150053123742196425000020056600001101530000000000000                                                                AGUJA HIPODERMICA DESECH 18G X 1 1/2SOB     5
CC0001129564191H202100015112756000015112756013/12/20211035    3150053123742196425000020056600001101530000000000000                                                                AGUJA HIPODERMICA DESECH 18G X 1 1/2SOB     5
CC0000007479382H202100015112756000015112756013/12/20211035    3150053123742196425000020056600001101530000000000000                                                                AGUJA HIPODERMICA DESECH 18G X 1 1/2SOB     5
CC0000013887621H202100015112756000015112756013/12/20211035    31500531237421964250000E1AB0200000199290000000000000                                                            SOLUCION SALINA 0.9% SLN INY BO X 100 MLBIN    15
CC0001129564191H202100015112756000015112756013/12/20211035    31500531237421964250000E1AB0200000199290000000000000                                                            SOLUCION SALINA 0.9% SLN INY BO X 100 MLBIN    15
CC0000007479382H202100015112756000015112756013/12/20211035    31500531237421964250000E1AB0200000199290000000000000                                                            SOLUCION SALINA 0.9% SLN INY BO X 100 MLBIN    15
CC0000013887621H202100015112756000015112756013/12/20211035    3150053123742196425000043485100001618510000000000000                GUANTE QUIRURGICO DE LATEX REF 2D72N65X CAJ X 50 PROTEXIS  6.5 BN EXENTO-DC.417/2020SOB     1
CC0001129564191H202100015112756000015112756013/12/20211035    3150053123742196425000043485100001618510000000000000                GUANTE QUIRURGICO DE LATEX REF 2D72N65X CAJ X 50 PROTEXIS  6.5 BN EXENTO-DC.417/2020SOB     1
CC0000007479382H202100015112756000015112756013/12/20211035    3150053123742196425000043485100001618510000000000000                GUANTE QUIRURGICO DE LATEX REF 2D72N65X CAJ X 50 PROTEXIS  6.5 BN EXENTO-DC.417/2020SOB     1
CC0000013887621H202100015112756000015112756013/12/20211035    3150053123742196425000024674000001138340000000000000   JERINGA 3PARTES C/A 10ML REF JEHL005 CAJ X 100 ALFASAFE  21GX1 PULG 1/2 PULG BN EXENTO-DC.417/202PZA    20
CC0001129564191H202100015112756000015112756013/12/20211035    3150053123742196425000024674000001138340000000000000   JERINGA 3PARTES C/A 10ML REF JEHL005 CAJ X 100 ALFASAFE  21GX1 PULG 1/2 PULG BN EXENTO-DC.417/202PZA    20
CC0000007479382H202100015112756000015112756013/12/20211035    3150053123742196425000024674000001138340000000000000   JERINGA 3PARTES C/A 10ML REF JEHL005 CAJ X 100 ALFASAFE  21GX1 PULG 1/2 PULG BN EXENTO-DC.417/202PZA    20
CC0000013887621H202100015112756000015112756013/12/20211035    31500531237421964250000V07A1300000502600000000000000                                                                                AGUA ESTERIL x 10 mlAMP    10
CC0001129564191H202100015112756000015112756013/12/20211035    31500531237421964250000V07A1300000502600000000000000                                                                                AGUA ESTERIL x 10 mlAMP    10
CC0000007479382H202100015112756000015112756013/12/20211035    31500531237421964250000V07A1300000502600000000000000                                                                                AGUA ESTERIL x 10 mlAMP    10
CC0000013887621H202100015112756000015112756013/12/20211035    3150053123742196425000011127400001413910000000000000                                                            EQUIPO ADMINIST NUTR PUNZON REF 674669 BBOL     1
CC0001129564191H202100015112756000015112756013/12/20211035    3150053123742196425000011127400001413910000000000000                                                            EQUIPO ADMINIST NUTR PUNZON REF 674669 BBOL     1
CC0000007479382H202100015112756000015112756013/12/20211035    3150053123742196425000011127400001413910000000000000                                                            EQUIPO ADMINIST NUTR PUNZON REF 674669 BBOL     1
CC0000013887621H202100015112756000015112756013/12/20211035    3150053123742196425000013077800000471960000000000000                                                             GASA NO TEJIDA EST 7.5 X 7.5 SOB X 3 UNSOB     5
CC0001129564191H202100015112756000015112756013/12/20211035    3150053123742196425000013077800000471960000000000000                                                             GASA NO TEJIDA EST 7.5 X 7.5 SOB X 3 UNSOB     5
CC0000007479382H202100015112756000015112756013/12/20211035    3150053123742196425000013077800000471960000000000000                                                             GASA NO TEJIDA EST 7.5 X 7.5 SOB X 3 UNSOB     5
CC0000013887621H202100015112756000015112756013/12/20211035    3150053123742196425000045136100001419300000000000000                                                                            LANCETA DEXTROMETER X UNPZA     5
CC0001129564191H202100015112756000015112756013/12/20211035    3150053123742196425000045136100001419300000000000000                                                                            LANCETA DEXTROMETER X UNPZA     5
CC0000007479382H202100015112756000015112756013/12/20211035    3150053123742196425000045136100001419300000000000000                                                                            LANCETA DEXTROMETER X UNPZA     5
CC0000013887621H202100015112756000015112756013/12/20211035    3150053123742196425000011137100001419310000000000000                                                               TIRA GLUCOMETRIA FREESTYLE H OPTIUM .PZA     5
CC0001129564191H202100015112756000015112756013/12/20211035    3150053123742196425000011137100001419310000000000000                                                               TIRA GLUCOMETRIA FREESTYLE H OPTIUM .PZA     5
CC0000007479382H202100015112756000015112756013/12/20211035    3150053123742196425000011137100001419310000000000000                                                               TIRA GLUCOMETRIA FREESTYLE H OPTIUM .PZA     5
