CC0000019773143H202100920192120400920192120404/12/20211031    31903059237421964250000E1AB0200000199290000000000000                                                            SOLUCION SALINA 0.9% SLN INY BO X 100 MLBIN     6
CC0000019773143H202100920192120400920192120404/12/20211616    3190305923742196425000013077800000471960000000000000                                                             GASA NO TEJIDA EST 7.5 X 7.5 SOB X 3 UNSOB    10
CC0000019773143H202100920192120400920192120404/12/20211616    3190305923742196425000011082700001620070000000000000                                                               EQUIPO SET PRIMARIO C/CLAVE REF 14001BOL     1
CC0000019773143H202100920192120400920192120404/12/20211616    3190305923742196425000016830000000970620000000000000                                                             SIST FIJACION CAT PERIFERICO 6.5X7 1683SOB     1
CC0000019773143H202100920192120400920192120404/12/20211616    3190305923742196425000022426800001140510000000000000                                                                    EQUIPO MACROGOTEO BAXTER MRC0001SOB     1
CC0000019773143H202100920192120400920192120404/12/20211616    3190305923742196425000035356500003919000000000000000                                                                                        LLAVE 3 VIASSOB     1
CC0000019773143H202100920192120400920192120404/12/20211616    3190305923742196425000042743200003929860000000000000                   GASA ADHESIVA STRETCH REF 02038-00 ROL X 10MT FIXOMULL 15CM BN EXENTO-DC.417/2020CMT    80
CC0000019773143H202100920192120400920192120404/12/20211616    3190305923742196425000001956000001620610000000000000                                                                      CONECTOR MICRO CLAVE LAT-MC100SOB     3
CC0000019773143H202100920192120400920192120404/12/20211616    3190305923742196425000000602700001197200000000000000                                                              APOSITO TRANSP  1655 IV 8.5CM X 11.5CMSOB     1
CC0000019773143H202100920192120400920192120404/12/20211616    31903059237421964250000E1AD0300000199490000000000000                                         LACTATO RINGER USP (HARTMANN)  SOL INY  BOL X 1000ML BAXTERBIN     2
CC0000019773143H202100920192120400920192120404/12/20211616    3190305923742196425000011089200001083340000000000000                                                              GUANTE ESTERIL LATEX S/POLVO TALLA 7.0SOB     2
CC0000019773143H202100920192120400920192120404/12/20211618    3190099823742196425000000602700001197200000000000000                                                              APOSITO TRANSP  1655 IV 8.5CM X 11.5CMSOB     1
CC0000019773143H202100920192120400920192120404/12/20211618    31900998237421964250000E1AD0300000199490000000000000                                         LACTATO RINGER USP (HARTMANN)  SOL INY  BOL X 1000ML BAXTERBIN     2
CC0000019773143H202100920192120400920192120404/12/20211618    31900998237421964250000E1AB0200000199290000000000000                                                            SOLUCION SALINA 0.9% SLN INY BO X 100 MLBIN     6
CC0000019773143H202100920192120400920192120404/12/20211618    3190099823742196425000042743200003929860000000000000                   GASA ADHESIVA STRETCH REF 02038-00 ROL X 10MT FIXOMULL 15CM BN EXENTO-DC.417/2020CMT    80
CC0000019773143H202100920192120400920192120404/12/20211618    3190099823742196425000035356500003919000000000000000                                                                                        LLAVE 3 VIASSOB     1
CC0000019773143H202100920192120400920192120404/12/20211618    3190099823742196425000022426800001140510000000000000                                                                    EQUIPO MACROGOTEO BAXTER MRC0001SOB     1
CC0000019773143H202100920192120400920192120404/12/20211618    3190099823742196425000016830000000970620000000000000                                                             SIST FIJACION CAT PERIFERICO 6.5X7 1683SOB     1
CC0000019773143H202100920192120400920192120404/12/20211618    3190099823742196425000013077800000471960000000000000                                                             GASA NO TEJIDA EST 7.5 X 7.5 SOB X 3 UNSOB    10
CC0000019773143H202100920192120400920192120404/12/20211618    3190099823742196425000011089200001083340000000000000                                                              GUANTE ESTERIL LATEX S/POLVO TALLA 7.0SOB     2
CC0000019773143H202100920192120400920192120404/12/20211618    3190099823742196425000001956000001620610000000000000                                                                      CONECTOR MICRO CLAVE LAT-MC100SOB     3
CC0000019773143H202100920192120400920192120404/12/20211618    3190099823742196425000011082700001620070000000000000                                                               EQUIPO SET PRIMARIO C/CLAVE REF 14001BOL     1
