PA0000000791469H202100000556552400000556552404/12/20211049     3300010237421964250000A2BC0900000200150000000000000                                                                               ORAZOLE Sln Iny 40 mgCIN     1
PA0000000791469H202100000556552400000556552404/12/20211501     3300009237421964250000A4AD0200000202990000000000000                                                                     PLITICAN HCL Sln Iny 50 mg/2 mlAMP     1
PA0000000791469H202100000556552400000556552404/12/20211048     3300010237421964250000A4AD0200000202990000000000000                                                                     PLITICAN HCL Sln Iny 50 mg/2 mlAMP     2
PA0000000791469H202100000556552400000556552404/12/20212157    31500052237421964250000E1AB0500003888400000000000000                                                              SOLUCION SALINA 0.9% SLN INY X 1000 MLBOL     1
PA0000000791469H202100000556552400000556552404/12/20211048     3300010237421964250000J1CB0600000468340000000000000                                                           UNASYN IM-IV (1+0.5)GR POLV INY INST VIALVAL     4
PA0000000791469H202100000556552400000556552404/12/20211501     3300009237421964250000J1CB1800001134180000000000000                                                                             TAZOCIN Polvo Iny 4.5 gVAL     4
PA0000000791469H202100000556552400000556552404/12/20211048     3300010237421964250000N02B1100001464120000000000000                                           PARACETAMOL EP 1000MG/100ML(10MG/ML) SOL INY  CAJ X 10FCOVAL     4
PA0000000791469H202100000556552400000556552404/12/20211516     3300009237421964250000A3BB0300000512950000000000000                                                             BUSCAPINA COMP Sln Iny 20 mg+2.5 g/5 mlAMP     3
PA0000000791469H202100000556552400000556552404/12/20211501     3300009237421964250000A3BB0300000512950000000000000                                                             BUSCAPINA COMP Sln Iny 20 mg+2.5 g/5 mlAMP     1
PA0000000791469H202100000556552400000556552404/12/20211048     3300010237421964250000A3BB0300000512950000000000000                                                             BUSCAPINA COMP Sln Iny 20 mg+2.5 g/5 mlAMP     1
PA0000000791469H202100000556552400000556552404/12/20210954    31903331237421964250000V07A1300000502600000000000000                                                                                AGUA ESTERIL x 10 mlAMP     5
