RC0001046739733H202100015052821200015052821213/12/20210857    3150038323742196425000000602600001259280000000000000                                                             APOSITO TEGADERM IV PD 1610 5CM X 5.7CMSOB     1
RC0001046739733H202100015052821200015052821213/12/20210857    31500383237421964250000Q1AA7400003911720000000000000                                                            CATETER PERIFE INTROCAN # 24G 4251601-04SOB     2
RC0001046739733H202100015052821200015052821213/12/20210857    3150038323742196425000011082200001407940000000000000                                                              EQUIPO EXT MICROTUBO Y 2 VALVUL 2N8371SOB     1
