CC0000091178991A202100000027867800000027867813/12/20211713    3190333624042196419000022425200000548240000000000000                       EXTENSION DE ANESTESIA REF 1139 SOB X 1 SHERLEG  ADULTO BN EXENTO-DC.417/2020SIN     1
CC0000091178991A202100000027867800000027867813/12/20211713    3190333624042196419000035356500003919000000000000000                                                                                        LLAVE 3 VIASSOB     2
CC0000091178991A202100000027867800000027867813/12/20211713    31903336240421964190000Q1AA7100000610620000000000000                                                            CATETER PERIFE INTROCAN # 18G 4251687-04SIN     1
CC0000091178991A202100000027867800000027867813/12/20211713    3190333624042196419000016830000000970620000000000000                                                             SIST FIJACION CAT PERIFERICO 6.5X7 1683SOB     1
CC0000091178991A202100000027867800000027867813/12/20211713    3190333624042196419000022426800001140510000000000000                                                                    EQUIPO MACROGOTEO BAXTER MRC0001SOB     1
CC0000091178991A202100000027867800000027867813/12/20211713    3190333624042196419000011073300001096420000000000000                                                                BOLSA DE SUCCION DE FLUIDOS x 2500mLBOL     1
CC0000091178991A202100000027867800000027867813/12/20211713    3190333624042196419000030161400001459220000000000000                                                                       MANGUERA SUCCION 6 MM*3.1 MTSSOB     2
CC0000091178991A202100000027867800000027867813/12/20211713    3190333624042196419000020750600000296780000000000000                                                                PLACA ELECTRO RETORNO PACIENTE E7506SIN     1
CC0000091178991A202100000027867800000027867813/12/20211713    3190333624042196419000053074400000607910000000000000                                                               GASA ESTERIL 10*10 SOBRE X 3 UNIDADESSOB     5
CC0000091178991A202100000027867800000027867813/12/20211713    3190333624042196419000011085300001082140000000000000                                                                           GUANTE QUIRURGICO TALLA 8SOB     3
CC0000091178991A202100000027867800000027867813/12/20211713    3190333624042196419000011085200001585390000000000000                                                                       GUANTE QUIRURGICO TALLA 7 1/2SOB     2
CC0000091178991A202100000027867800000027867813/12/20211713    3190333624042196419000011085100001082120000000000000                                                                           GUANTE QUIRURGICO TALLA 7SOB     1
CC0000091178991A202100000027867800000027867813/12/20211713    3190333624042196419000043485100001618510000000000000                GUANTE QUIRURGICO DE LATEX REF 2D72N65X CAJ X 50 PROTEXIS  6.5 BN EXENTO-DC.417/2020SOB     3
CC0000091178991A202100000027867800000027867813/12/20211713    3190333624042196419000011047900000223010000000000000                                                                            JERINGA X 1ML REF 302579SIN     1
CC0000091178991A202100000027867800000027867813/12/20211713    3190333624042196419000024673600000222980000000000000                                                                     JERINGA DESECHABLE 5 ml 27*11/2SIN     2
CC0000091178991A202100000027867800000027867813/12/20211713    3190333624042196419000024674000001138340000000000000   JERINGA 3PARTES C/A 10ML REF JEHL005 CAJ X 100 ALFASAFE  21GX1 PULG 1/2 PULG BN EXENTO-DC.417/202PZA     2
CC0000091178991A202100000027867800000027867813/12/20211713    3190333624042196419000024674500000322810000000000000                                                                   JERINGA DESECHABLE 20 ml 21*1 1/2SIN     1
CC0000091178991A202100000027867800000027867813/12/20211713    31903336240421964190000E1AD0200003888320000000000000                                                                              HARTMAN SLN INY 500 MLBOL     2
CC0000091178991A202100000027867800000027867813/12/20211713    31903336240421964190000E1AB0500003888400000000000000                                                              SOLUCION SALINA 0.9% SLN INY X 1000 MLBOL     4
CC0000091178991A202100000027867800000027867813/12/20211713    31903336240421964190000E1AB0300003888390000000000000                                                            SOLUCION SALINA 0.9% SLN INY BO X 500 MLBOL     2
CC0000091178991A202100000027867800000027867813/12/20211713    31903336240421964190000E1AB0200000199290000000000000                                                            SOLUCION SALINA 0.9% SLN INY BO X 100 MLBIN     1
CC0000091178991A202100000027867800000027867813/12/20211713    31903336240421964190000N02B1100001464120000000000000                                           PARACETAMOL EP 1000MG/100ML(10MG/ML) SOL INY  CAJ X 10FCOVAL     1
CC0000091178991A202100000027867800000027867813/12/20211713    31903336240421964190000C01C0300001261020000000000000                                                               ETILEFRINA HCL SLN INY 10 MG/1 ML /R/AMP     1
CC0000091178991A202100000027867800000027867813/12/20211713    31903336240421964190000N2AA0100000301640000000000000                                                                            MORFINA Sln Iny 10 mg/mlAMP     1
CC0000091178991A202100000027867800000027867813/12/20211713    3190333624042196419000042743200003929860000000000000                   GASA ADHESIVA STRETCH REF 02038-00 ROL X 10MT FIXOMULL 15CM BN EXENTO-DC.417/2020CMT    55
CC0000091178991A202100000027867800000027867813/12/20211713    3190333624042196419000020059900000225180000000000000                                                              AGUJA SPINOCAN 26G X 3 1/2 PU  4502906SIN     1
CC0000091178991A202100000027867800000027867813/12/20211713    3190333624042196419000020060000000225230000000000000                                                               AGUJA SPINOCAN 27G X 3 1/2 PU 4503902SIN     1
CC0000091178991A202100000027867800000027867813/12/20211713    31903336240421964190000N1BA0500000647360000000000000                                                                  BUPIROP 0.5% PESADO SLN INY X 4 MLAPC     2
CC0000091178991A202100000027867800000027867813/12/20211713    31903336240421964190000N02BG100003889660000000000000                                                   ACUPAN 20MG/2ML(10MG/ML) SOL INY CAJ X 5AMP X 2MLAMP     1
CC0000091178991A202100000027867800000027867813/12/20211713    3190333624042196419000048657700000223550000000000000                                                                  CAMPO QUIRUR STERI  DRAPE REF 1015SIN     1
CC0000091178991A202100000027867800000027867813/12/20211713    3190333624042196419000045138000001413890000000000000                                                                       LAPIZ ELECTROBISTURI  SOB X 1SOB     1
CC0000091178991A202100000027867800000027867813/12/20211713    3190333624042196419000000601100000221340000000000000                                                                          APOSITO DE CURACION GRANDEPAQ     1
CC0000091178991A202100000027867800000027867813/12/20211713    3190333624042196419000042473100003929820000000000000                                                STOQUINETA ORTOPEDICA TUBULAR ROL X 25MT WINER 5PULGCMT     1
CC0000091178991A202100000027867800000027867813/12/20211713    3190333624042196419000019487800001585180000000000000                                                                    VICRYL 1 PLUS 70 CM CT-1 VCP341HSOB     1
CC0000091178991A202100000027867800000027867813/12/20211713    3190333624042196419000012472400000232190000000000000                                                                 SUTURA ETHILON 2-0 SC-26 45CM  164TSIN     1
CC0000091178991A202100000027867800000027867813/12/20211713    3190333624042196419000043879400001138170000000000000                                                                  HOJA BISTURI # 10 CSSB 10 01002000SOB     1
CC0000091178991A202100000027867800000027867813/12/20211713    3190333624042196419000043879500001138210000000000000                                                                                    HOJA BISTURI #20SOB     1
