RC0001043491237U202100904131122000904131122020/12/20211821    3190271223942196432000011082700001620070000000000000                                                               EQUIPO SET PRIMARIO C/CLAVE REF 14001BOL     1
RC0001043491237U202100904131122000904131122020/12/20211821    3190271223942196432000011085100001082120000000000000                                                                           GUANTE QUIRURGICO TALLA 7SOB     4
RC0001043491237U202100904131122000904131122020/12/20211821    3190271223942196432000013077800000471960000000000000                                                             GASA NO TEJIDA EST 7.5 X 7.5 SOB X 3 UNSOB     5
RC0001043491237U202100904131122000904131122020/12/20211821    3190271223942196432000016830000000970620000000000000                                                             SIST FIJACION CAT PERIFERICO 6.5X7 1683SOB     1
RC0001043491237U202100904131122000904131122020/12/20211821    3190271223942196432000030936900001431840000000000000                                                                                              BURETABOL     1
RC0001043491237U202100904131122000904131122020/12/20211821    3190271223942196432000001956000001620610000000000000                                                                      CONECTOR MICRO CLAVE LAT-MC100SOB     1
RC0001043491237U202100904131122000904131122020/12/20211821    31902712239421964320000V07A1300000502600000000000000                                                                                AGUA ESTERIL x 10 mlAMP     6
RC0001043491237U202100904131122000904131122020/12/20211821    31902712239421964320000Q1AA7400003911720000000000000                                                            CATETER PERIFE INTROCAN # 24G 4251601-04SOB     1
RC0001043491237U202100904131122000904131122020/12/20211821    31902712239421964320000E1AC0100000199400000000000000                                                                          SUERO MIXTO Sln Iny 500 mlBIN     1
