CC0000019490174H202100000556884300000556884313/12/20210912     3300009237421964250000B1AB0200003939510000000000000                 ENOXAPARINA SODICA 40MG/0.4ML(100MG/ML) SOL INY INST CAJ X 2JERPREL X 0.4ML TECHDOWJRP     1
CC0000019490174H202100000556884300000556884313/12/20210911     3300009237421964250000C7FA0200001277980000000000000                                                                                    NORVAS TAB 10 MGTAB     1
CC0000019490174H202100000556884300000556884313/12/20210912     3300009237421964250000C2EA0400001278030000000000000                                                                                   RENITEC TAB 20 MGTAB     1
CC0000019490174H202100000556884300000556884313/12/20211826     3300009237421964250000J01D1300001469600000000000000                                                                               POZINEG POLVO INY 1 GVAL     2
CC0000019490174H202100000556884300000556884313/12/20210912     3300009237421964250000N3AB1000001379310000000000000                                                                            NEURONTIN Cap 400 mg /R/CAP     1
CC0000019490174H202100000556884300000556884313/12/20210911     3300009237421964250000A11A2200001050880000000000000                                                                 GLUCERNA LIQUIDO 1.5 KCAL X 1000 MLFCO     1
CC0000019490174H202100000556884300000556884313/12/20210911     3300009237421964250000A02BC700001684270000000000000                                                            OMEPRAZOL 40MG POLVO LIOFILIZADO AMPOLLAVAL     1
CC0000019490174H202100000556884300000556884313/12/20211825    31902357237421964250000V07A1300000502600000000000000                                                                                AGUA ESTERIL x 10 mlAMP    10
