TI0001041973931U202100923526121900923526121919/12/20211222    3190201023942196432000011082700001620070000000000000                                                               EQUIPO SET PRIMARIO C/CLAVE REF 14001BOL     1
TI0001041973931U202100923526121900923526121919/12/20211222    3190201023942196432000024673600000222980000000000000                                                                     JERINGA DESECHABLE 5 ml 27*11/2SIN     1
TI0001041973931U202100923526121900923526121919/12/20211222    3190201023942196432000024674000001138340000000000000   JERINGA 3PARTES C/A 10ML REF JEHL005 CAJ X 100 ALFASAFE  21GX1 PULG 1/2 PULG BN EXENTO-DC.417/202PZA     1
TI0001041973931U202100923526121900923526121919/12/20211222    3190201023942196432000030936900001431840000000000000                                                                                              BURETABOL     1
TI0001041973931U202100923526121900923526121919/12/20211222    3190201023942196432000001956000001620610000000000000                                                                      CONECTOR MICRO CLAVE LAT-MC100SOB     1
TI0001041973931U202100923526121900923526121919/12/20211222    3190201023942196432000000602600001259280000000000000                                                             APOSITO TEGADERM IV PD 1610 5CM X 5.7CMSOB     1
TI0001041973931U202100923526121900923526121919/12/20211222    31902010239421964320000Q1AA7100000610620000000000000                                                            CATETER PERIFE INTROCAN # 18G 4251687-04SIN     1
TI0001041973931U202100923526121900923526121919/12/20211222    31902010239421964320000E1AB0500003888400000000000000                                                              SOLUCION SALINA 0.9% SLN INY X 1000 MLBOL     1
