CC0000022596813H202100000556556700000556556704/12/20211243     3300009237421964250000A02BX300001378440000000000000                                                                    DIP SUSP ORAL 1 G /5 ML X 200 MLFCO     1
CC0000022596813H202100000556556700000556556704/12/20210822     3300010237421964250000A03F0300001626860000000000000                                                                   METOCLOPRAMIDA SLN INY 10 MG/2 MLAMP     3
CC0000022596813H202100000556556700000556556704/12/20211443    31903059237421964250000E1AB0200000199290000000000000                                                            SOLUCION SALINA 0.9% SLN INY BO X 100 MLBIN     5
CC0000022596813H202100000556556700000556556704/12/20211432    31903059237421964250000E1AD0300000199490000000000000                                         LACTATO RINGER USP (HARTMANN)  SOL INY  BOL X 1000ML BAXTERBIN     2
CC0000022596813H202100000556556700000556556704/12/20211243     3300009237421964250000A12BA100000552980000000000000                                                            CLORURO POTASIO Sln Iny AMP 20 MEQ/10 MLAMP     2
CC0000022596813H202100000556556700000556556704/12/20210822     3300010237421964250000A12BA100000552980000000000000                                                            CLORURO POTASIO Sln Iny AMP 20 MEQ/10 MLAMP     5
CC0000022596813H202100000556556700000556556704/12/20211243     3300009237421964250000J01CR200000947130000000000000                                                              AMPICILINA /SULBACTAN POLVO LIOF 1.5 GAMP     1
CC0000022596813H202100000556556700000556556704/12/20210822     3300010237421964250000J01CR200000947130000000000000                                                              AMPICILINA /SULBACTAN POLVO LIOF 1.5 GAMP     3
CC0000022596813H202100000556556700000556556704/12/20210822     3300010237421964250000N2BB0100001672010000000000000                                  DIPIRONA 1GR/2ML(0.5GR/ML) SOL INY INST CAJ X 100AMP X 2ML VITALISAMP     2
CC0000022596813H202100000556556700000556556704/12/20210822     3300010237421964250000A02BC700001684270000000000000                                                            OMEPRAZOL 40MG POLVO LIOFILIZADO AMPOLLAVAL     1
CC0000022596813H202100000556556700000556556704/12/20211432    31903059237421964250000V07A1300000502600000000000000                                                                                AGUA ESTERIL x 10 mlAMP     5
