CE0000000155719A202100000027864700000027864713/12/20211809    31903336240421964190000E1AD0200003888320000000000000                                                                              HARTMAN SLN INY 500 MLBOL     1
CE0000000155719A202100000027864700000027864713/12/20211809    3190333624042196419000011082700001620070000000000000                                                               EQUIPO SET PRIMARIO C/CLAVE REF 14001BOL     1
CE0000000155719A202100000027864700000027864713/12/20211809    3190333624042196419000035639600001014740000000000000                                                                              MASCARA VENTURY ADULTOBOL     1
CE0000000155719A202100000027864700000027864713/12/20211809    3190333624042196419000039175000001072050000000000000                                                                           TUBO ENDOTRAQUEAL C/B 7.0SOB     1
CE0000000155719A202100000027864700000027864713/12/20211809    3190333624042196419000045136100001419300000000000000                                                                            LANCETA DEXTROMETER X UNPZA     1
CE0000000155719A202100000027864700000027864713/12/20211809    3190333624042196419000011137100001419310000000000000                                                               TIRA GLUCOMETRIA FREESTYLE H OPTIUM .PZA     1
CE0000000155719A202100000027864700000027864713/12/20211809    3190333624042196419000049059800000267410000000000000                                                                 MEDIA ANTIEMBOLICA TAL L 3634LF PARBOL     1
CE0000000155719A202100000027864700000027864713/12/20211809    3190333624042196419000024674500000322810000000000000                                                                   JERINGA DESECHABLE 20 ml 21*1 1/2SIN     2
CE0000000155719A202100000027864700000027864713/12/20211809    31903336240421964190000C01C0300001261020000000000000                                                               ETILEFRINA HCL SLN INY 10 MG/1 ML /R/AMP     1
CE0000000155719A202100000027864700000027864713/12/20211809    3190333624042196419000038569400000256750000000000000                                                                        SONDA ASPIRACION CONTROL #14SIN     1
CE0000000155719A202100000027864700000027864713/12/20211809    3190333624042196419000011099300000777780000000000000                                                                     FILTRO BACTERIANO VIRICO ADULTOBOL     1
CE0000000155719A202100000027864700000027864713/12/20211809    3190333624042196419000001200400000530690000000000000                                                                          CANULA DE MAYO # 5 (100MM)SIN     1
CE0000000155719A202100000027864700000027864713/12/20211809    3190333624042196419000035356500003919000000000000000                                                                                        LLAVE 3 VIASSOB     2
CE0000000155719A202100000027864700000027864713/12/20211809    3190333624042196419000022426800001140510000000000000                                                                    EQUIPO MACROGOTEO BAXTER MRC0001SOB     1
CE0000000155719A202100000027864700000027864713/12/20211809    31903336240421964190000J01DA300001239950000000000000                                                            CEFAZOLINA SODICA POLVO LIOF SLN INY 1 GVAL     2
CE0000000155719A202100000027864700000027864713/12/20211809    31903336240421964190000Q1AA7100000610620000000000000                                                            CATETER PERIFE INTROCAN # 18G 4251687-04SIN     1
CE0000000155719A202100000027864700000027864713/12/20211809    3190333624042196419000022425200000548240000000000000                       EXTENSION DE ANESTESIA REF 1139 SOB X 1 SHERLEG  ADULTO BN EXENTO-DC.417/2020SIN     1
CE0000000155719A202100000027864700000027864713/12/20211809    3190333624042196419000015944000000632490000000000000                                                                           MONOCRYL 3-0 PS2  MCP427HSIN     1
CE0000000155719A202100000027864700000027864713/12/20211809    3190333624042196419000038568800000256980000000000000                                                                                   SONDA NELATON #18SIN     1
CE0000000155719A202100000027864700000027864713/12/20211809    3190333624042196419000030825800000270990000000000000                                                                  ALGODON ESTERIL SOBRE X 3 TORUNDASPZA     4
CE0000000155719A202100000027864700000027864713/12/20211809    3190333624042196419000000504800004018100000000000000   SUTURA SINTETI ABSORBIBLE CT-2 REF J333H CAJ X 36 VICRYL 70CM - 2-0 VIOLETA BN EXENTO-DC.417/2020SOB     1
CE0000000155719A202100000027864700000027864713/12/20211809    3190333624042196419000000016100000314040000000000000                                                                ESPONJA HEMOSTATICA  GELFOAM ESPONJABOL     1
CE0000000155719A202100000027864700000027864713/12/20211809    3190333624042196419000043879100001138200000000000000                                                                  HOJA BISTURI # 15 CSSB 15 01002003SOB     1
CE0000000155719A202100000027864700000027864713/12/20211809    3190333624042196419000045138000001413890000000000000                                                                       LAPIZ ELECTROBISTURI  SOB X 1SOB     1
CE0000000155719A202100000027864700000027864713/12/20211809    3190333624042196419000043485100001618510000000000000                GUANTE QUIRURGICO DE LATEX REF 2D72N65X CAJ X 50 PROTEXIS  6.5 BN EXENTO-DC.417/2020SOB     2
CE0000000155719A202100000027864700000027864713/12/20211809    3190333624042196419000011085100001082120000000000000                                                                           GUANTE QUIRURGICO TALLA 7SOB     2
CE0000000155719A202100000027864700000027864713/12/20211809    3190333624042196419000011085200001585390000000000000                                                                       GUANTE QUIRURGICO TALLA 7 1/2SOB     1
CE0000000155719A202100000027864700000027864713/12/20211809    3190333624042196419000053074400000607910000000000000                                                               GASA ESTERIL 10*10 SOBRE X 3 UNIDADESSOB     2
CE0000000155719A202100000027864700000027864713/12/20211809    3190333624042196419000011073300001096420000000000000                                                                BOLSA DE SUCCION DE FLUIDOS x 2500mLBOL     1
CE0000000155719A202100000027864700000027864713/12/20211809    3190333624042196419000020750600000296780000000000000                                                                PLACA ELECTRO RETORNO PACIENTE E7506SIN     1
CE0000000155719A202100000027864700000027864713/12/20211809    3190333624042196419000030161400001459220000000000000                                                                       MANGUERA SUCCION 6 MM*3.1 MTSSOB     2
CE0000000155719A202100000027864700000027864713/12/20211809    3190333624042196419000051515500000598160000000000000                                                                            MASCARILLA ANESTESIA # 5SIN     1
CE0000000155719A202100000027864700000027864713/12/20211809    3190333624042196419000024673600000222980000000000000                                                                     JERINGA DESECHABLE 5 ml 27*11/2SIN     2
CE0000000155719A202100000027864700000027864713/12/20211809    3190333624042196419000024674000001138340000000000000   JERINGA 3PARTES C/A 10ML REF JEHL005 CAJ X 100 ALFASAFE  21GX1 PULG 1/2 PULG BN EXENTO-DC.417/202PZA     3
CE0000000155719A202100000027864700000027864713/12/20211809    31903336240421964190000E1AB0300003888390000000000000                                                            SOLUCION SALINA 0.9% SLN INY BO X 500 MLBOL     3
CE0000000155719A202100000027864700000027864713/12/20211809    31903336240421964190000A3BA0100001109400000000000000                                                                          ATROPINA SLN INY 1 MG / MLAMP     1
CE0000000155719A202100000027864700000027864713/12/20211809    31903336240421964190000V3AB1900001177870000000000000                                                                      PROSTIGMINE Sln Iny 0.5 mg/ mlAMP     4
CE0000000155719A202100000027864700000027864713/12/20211809    31903336240421964190000N01A0400003939010000000000000                                               MAYOPROFOL 200MG/20ML(1%) EMUL INY CAJ X 1VIAL X 20MLVAL     1
CE0000000155719A202100000027864700000027864713/12/20211809    31903336240421964190000M3AC0600000720540000000000000                                                                         ESMERON SLN INY 50 MG /5 MLVAL     1
CE0000000155719A202100000027864700000027864713/12/20211809    31903336240421964190000A03F0300001626860000000000000                                                                   METOCLOPRAMIDA SLN INY 10 MG/2 MLAMP     1
CE0000000155719A202100000027864700000027864713/12/20211809    31903336240421964190000N2BB1100000217160000000000000                                                                      NOVALGINA Sln Iny 2.5 g x 5 mlAMP     2
CE0000000155719A202100000027864700000027864713/12/20211809    31903336240421964190000H02AB500001664950000000000000                                                            DEXAMETASONA SLN INY 8 MG/2 ML AMP /CDS/AMP     1
CE0000000155719A202100000027864700000027864713/12/20211809    31903336240421964190000E1AB0700003888350000000000000                                                            SOLUCION SALINA 0.9% SLN INY BO X 250 MLBOL     2
