RC0001043483812A202100000027868700000027868713/12/20210757    3190333624042196419000011099300000777780000000000000                                                                     FILTRO BACTERIANO VIRICO ADULTOBOL     1
RC0001043483812A202100000027868700000027868713/12/20210757    3190333624042196419000021017400000227520000000000000                                                            KIT CAT BILUMEN PED CS14402E  4FR X 13CMSIN     1
RC0001043483812A202100000027868700000027868713/12/20210757    3190333624042196419000043879200001138180000000000000                                                                                   HOJA BISTURI # 11SOB     1
RC0001043483812A202100000027868700000027868713/12/20210757    3190333624042196419000018354100000232880000000000000                                                                  SUTURA SEDA NEGRA 3-0 KS 75CM 622HSIN     1
RC0001043483812A202100000027868700000027868713/12/20210757    3190333624042196419000000602600001259280000000000000                                                             APOSITO TEGADERM IV PD 1610 5CM X 5.7CMSOB     1
RC0001043483812A202100000027868700000027868713/12/20210757    3190333624042196419000053074400000607910000000000000                                                               GASA ESTERIL 10*10 SOBRE X 3 UNIDADESSOB     2
RC0001043483812A202100000027868700000027868713/12/20210757    3190333624042196419000011085200001585390000000000000                                                                       GUANTE QUIRURGICO TALLA 7 1/2SOB     1
RC0001043483812A202100000027868700000027868713/12/20210757    3190333624042196419000043485100001618510000000000000                GUANTE QUIRURGICO DE LATEX REF 2D72N65X CAJ X 50 PROTEXIS  6.5 BN EXENTO-DC.417/2020SOB     2
RC0001043483812A202100000027868700000027868713/12/20210757    3190333624042196419000051515200000598130000000000000                                                                            MASCARILLA ANESTESIA # 2SIN     1
RC0001043483812A202100000027868700000027868713/12/20210757    31903336240421964190000Q1A11800000258040000000000000                                                                         CANULA OXIGENO NASAL PEDIATSIN     1
RC0001043483812A202100000027868700000027868713/12/20210757    3190333624042196419000024673600000222980000000000000                                                                     JERINGA DESECHABLE 5 ml 27*11/2SIN     1
RC0001043483812A202100000027868700000027868713/12/20210757    3190333624042196419000024674000001138340000000000000   JERINGA 3PARTES C/A 10ML REF JEHL005 CAJ X 100 ALFASAFE  21GX1 PULG 1/2 PULG BN EXENTO-DC.417/202PZA     1
RC0001043483812A202100000027868700000027868713/12/20210757    31903336240421964190000E1AD0200003888320000000000000                                                                              HARTMAN SLN INY 500 MLBOL     1
RC0001043483812A202100000027868700000027868713/12/20210757    31903336240421964190000E1AB0700003888350000000000000                                                            SOLUCION SALINA 0.9% SLN INY BO X 250 MLBOL     1
RC0001043483812A202100000027868700000027868713/12/20210757    31903336240421964190000E1AB0200000199290000000000000                                                            SOLUCION SALINA 0.9% SLN INY BO X 100 MLBIN     1
RC0001043483812A202100000027868700000027868713/12/20210757    31903336240421964190000N01A0200000517300000000000000                                                             ETOMIDATO/LIPURO EMULSI Iny 20 mg/10 mlAMP     2
RC0001043483812A202100000027868700000027868713/12/20210757    31903336240421964190000N5CD0300000218170000000000000                                                              DORMICUM IV-IM 5MG/5ML(1MG/ML) SOL INYAMP     1
