RC0001048091952H202100015132533800015132533813/12/20211429    31903309237421964250000Q1AA7300000610640000000000000                                                            CATETER PERIFE INTROCAN # 22G 4251628-04SIN     2
MS0000455470161H202100015132533800015132533813/12/20211429    3190330923742196425000001956000001620610000000000000                                                                      CONECTOR MICRO CLAVE LAT-MC100SOB     1
MS0000455470161H202100015132533800015132533813/12/20211429    3190330923742196425000000602600001259280000000000000                                                             APOSITO TEGADERM IV PD 1610 5CM X 5.7CMSOB     1
MS0000455470161H202100015132533800015132533813/12/20211429    31903309237421964250000Q1AA7400003911720000000000000                                                            CATETER PERIFE INTROCAN # 24G 4251601-04SOB     2
RC0001048091952H202100015132533800015132533813/12/20211429    31903309237421964250000Q1AA7400003911720000000000000                                                            CATETER PERIFE INTROCAN # 24G 4251601-04SOB     1
MS0000455470161H202100015132533800015132533813/12/20211429    31903309237421964250000E1AA1400003888550000000000000                                                                         DEXTROSA 10% SLN INY 250 MLBOL     1
MS0000455470161H202100015132533800015132533813/12/20211429    3190330923742196425000011082700001620070000000000000                                                               EQUIPO SET PRIMARIO C/CLAVE REF 14001BOL     1
MS0000455470161H202100015132533800015132533813/12/20211429    3190330923742196425000036441300000236540000000000000                                                                    JERINGA 1 ML GASES ARTERIAL 9023SIN     1
MS0000455470161H202100015132533800015132533813/12/20211429    3190330923742196425000011060400001010330000000000000                                                            SENSOR PULSOX SPO2 LNCS NEONATAL MP00792PZA     1
RC0001044236218H202100015132533800015132533813/12/20211429    3190330923742196425000022425700000225420000000000000                                                                   SIST PERFUSOR SECURA 50 ML 728889CAJ     1
MS0000455470161H202100015132533800015132533813/12/20211429    3190330923742196425000038568300000257010000000000000                                                                                   SONDA NELATON #08SIN     1
