CC0000008530442H202100000556550200000556550204/12/20211244     3300009237421964250000A2BX0100001277280000000000000                                                                                ALSUCRAL TAB 1 G /R/TAB     4
CC0000008530442H202100000556550200000556550204/12/20211244     3300009237421964250000A03F0300001626860000000000000                                                                   METOCLOPRAMIDA SLN INY 10 MG/2 MLAMP     3
CC0000008530442H202100000556550200000556550204/12/20210827     3300010237421964250000A03F0300001626860000000000000                                                                   METOCLOPRAMIDA SLN INY 10 MG/2 MLAMP     1
CC0000008530442H202100000556550200000556550204/12/20211448    31903059237421964250000E1AB0200000199290000000000000                                                            SOLUCION SALINA 0.9% SLN INY BO X 100 MLBIN     5
CC0000008530442H202100000556550200000556550204/12/20210712    31500555237421964250000N1BA2400001687720000000000000                                                    LIDOCAINA 2% SOL INY  CAJ X 50AMP X 10ML CORPAULAMP     1
CC0000008530442H202100000556550200000556550204/12/20210527    31903102237421964250000E1BA0100000198890000000000000                                                                   AGUA ESTERIL USP SLN INY X 500 MLBIN     2
CC0000008530442H202100000556550200000556550204/12/20210827     3300010237421964250000A02B0800001276960000000000000                                                                                 OMEPRAZOL CAP 20 MGCAP     1
CC0000008530442H202100000556550200000556550204/12/20211243     3300009237421964250000B01AC200001333600000000000000                                                                               CLOPIDOGREL TAB 75 MGTAB     2
CC0000008530442H202100000556550200000556550204/12/20211244     3300009237421964250000C07A1400001333340000000000000                                                                          CARVEDILOL TAB 12.5 MG /R/TAB     2
CC0000008530442H202100000556550200000556550204/12/20210827     3300010237421964250000C07A1400001333340000000000000                                                                          CARVEDILOL TAB 12.5 MG /R/TAB     1
CC0000008530442H202100000556550200000556550204/12/20210826     3300010237421964250000C10AA500001314010000000000000                                                                             ATORVASTATINA TAB 40 MGTAB     2
CC0000008530442H202100000556550200000556550204/12/20211244     3300009237421964250000N2BE2200001252930000000000000                                                                             ACETAMINOFEN Tab 500 MGTAB     2
CC0000008530442H202100000556550200000556550204/12/20210827     3300010237421964250000N2BE2200001252930000000000000                                                                             ACETAMINOFEN Tab 500 MGTAB     6
CC0000008530442H202100000556550200000556550204/12/20211243     3300009237421964250000N02BA100001276940000000000000                                                                  ACIDO ACETIL SALIC?LICO TAB 100 MGTAB     1
CC0000008530442H202100000556550200000556550204/12/20210827     3300010237421964250000N2BB0100001672010000000000000                                  DIPIRONA 1GR/2ML(0.5GR/ML) SOL INY INST CAJ X 100AMP X 2ML VITALISAMP     3
CC0000008530442H202100000556550200000556550204/12/20210827     3300010237421964250000N2AX0900001672040000000000000                                                                              TRAMADOL SLN INY 50 MGAMP     2
CC0000008530442H202100000556550200000556550204/12/20210826     3300010237421964250000N2AX0900001672040000000000000                                                                              TRAMADOL SLN INY 50 MGAMP     1
CC0000008530442H202100000556550200000556550204/12/20211448    31903059237421964250000V07A1300000502600000000000000                                                                                AGUA ESTERIL x 10 mlAMP     5
