CC0000032799225H202100015012637400015012637413/12/20211609    3150019223742196425000030936900001431840000000000000                                                                                              BURETABOL     1
CC0001129500418H202100015012637400015012637413/12/20211609    3150019223742196425000030936900001431840000000000000                                                                                              BURETABOL     1
CC0001129500418H202100015012637400015012637413/12/20211609    3150019223742196425000024674000001138340000000000000   JERINGA 3PARTES C/A 10ML REF JEHL005 CAJ X 100 ALFASAFE  21GX1 PULG 1/2 PULG BN EXENTO-DC.417/202PZA     8
CC0000032799225H202100015012637400015012637413/12/20211609    3150019223742196425000022426800001140510000000000000                                                                    EQUIPO MACROGOTEO BAXTER MRC0001SOB     1
