CC0000008792032U202100924230122400924230122424/12/20210317    31902864239421964320000E1AD0300000199490000000000000                                         LACTATO RINGER USP (HARTMANN)  SOL INY  BOL X 1000ML BAXTERBIN     3
CC0000008792032H202100924230122400924230122424/12/20212357    3190182723742196425000011047900000223010000000000000                                                                            JERINGA X 1ML REF 302579SIN     6
CC0000008792032H202100924230122400924230122424/12/20212357    3190182723742196425000024674000001138340000000000000   JERINGA 3PARTES C/A 10ML REF JEHL005 CAJ X 100 ALFASAFE  21GX1 PULG 1/2 PULG BN EXENTO-DC.417/202PZA    10
