CC0001047230087H202100015112756300015112756313/12/20211248    3190235723742196425000024674000001138340000000000000   JERINGA 3PARTES C/A 10ML REF JEHL005 CAJ X 100 ALFASAFE  21GX1 PULG 1/2 PULG BN EXENTO-DC.417/202PZA    12
CC0000019490174H202100015112756300015112756313/12/20211248    3190235723742196425000024674000001138340000000000000   JERINGA 3PARTES C/A 10ML REF JEHL005 CAJ X 100 ALFASAFE  21GX1 PULG 1/2 PULG BN EXENTO-DC.417/202PZA    10
CC0001047230087H202100015112756300015112756313/12/20211248    31902357237421964250000V07A1300000502600000000000000                                                                                AGUA ESTERIL x 10 mlAMP    10
CC0000019490174H202100015112756300015112756313/12/20211248    31902357237421964250000V07A1300000502600000000000000                                                                                AGUA ESTERIL x 10 mlAMP    10
CC0000019490174H202100015112756300015112756313/12/20211248    3190235723742196425000021593100001571610000000000000                                                                    AQUACEL AG+ EXTRA 10*10CM 413567SOB     1
CC0000019490174H202100015112756300015112756313/12/20211248    3190235723742196425000042743200003929860000000000000                   GASA ADHESIVA STRETCH REF 02038-00 ROL X 10MT FIXOMULL 15CM BN EXENTO-DC.417/2020CMT    30
CC0000019490174H202100015112756300015112756313/12/20211248    3190235723742196425000024672100001609890000000000000                                                            JERINGA INSULINA 1ML TAPA NARANJA JEI013SOB     6
CC0000019490174H202100015112756300015112756313/12/20211248    3190235723742196425000011047900000223010000000000000                                                                            JERINGA X 1ML REF 302579SIN     4
CC0001047230087H202100015112756300015112756313/12/20211248    3190235723742196425000045136100001419300000000000000                                                                            LANCETA DEXTROMETER X UNPZA     3
CC0000019490174H202100015112756300015112756313/12/20211248    3190235723742196425000045136100001419300000000000000                                                                            LANCETA DEXTROMETER X UNPZA     6
CC0001047230087H202100015112756300015112756313/12/20211248    3190235723742196425000011137100001419310000000000000                                                               TIRA GLUCOMETRIA FREESTYLE H OPTIUM .PZA     3
CC0000019490174H202100015112756300015112756313/12/20211248    3190235723742196425000011137100001419310000000000000                                                               TIRA GLUCOMETRIA FREESTYLE H OPTIUM .PZA     6
CC0000019490174H202100015112756300015112756313/12/20211248    3190235723742196425000011127400001413910000000000000                                                            EQUIPO ADMINIST NUTR PUNZON REF 674669 BBOL     1
