CC0000013887621H202100015112757400015112757413/12/20211948    3150009423742196425000035356500003919000000000000000                                                                                        LLAVE 3 VIASSOB     2
CC0001129564191H202100015112757400015112757413/12/20211948    3150009423742196425000035356500003919000000000000000                                                                                        LLAVE 3 VIASSOB     2
CC0001129564191H202100015112757400015112757413/12/20211948    3150009423742196425000011082900001233450000000000000                                                               EQUIPO LC 5000 PRIMARIO FOTOPRO 0L218SOB     1
CC0000013887621H202100015112757400015112757413/12/20211948    3150009423742196425000022426800001140510000000000000                                                                    EQUIPO MACROGOTEO BAXTER MRC0001SOB     1
CC0001129564191H202100015112757400015112757413/12/20211948    3150009423742196425000022426800001140510000000000000                                                                    EQUIPO MACROGOTEO BAXTER MRC0001SOB     2
