CC0000073070310H202100000556554200000556554204/12/20211148    31500347237421964250000A7DA0100001303560000000000000                                                                                 LOPERAMIDA TAB 2 MGTAB     3
CC0000073070310H202100000556554200000556554204/12/20211148    31500347237421964250000C3DA0100001278020000000000000                                                                                 ALDACTONE TAB 25 MGTAB     4
CC0000073070310H202100000556554200000556554204/12/20210708    31500347237421964250000C3DA0100001278020000000000000                                                                                 ALDACTONE TAB 25 MGTAB     4
CC0000073070310H202100000556554200000556554204/12/20211148    31500347237421964250000C7FA0100001277270000000000000                                                                                     NORVAS TAB 5 MGTAB     1
CC0000073070310H202100000556554200000556554204/12/20210708    31500347237421964250000C7FA0100001277270000000000000                                                                                     NORVAS TAB 5 MGTAB     2
CC0000073070310H202100000556554200000556554204/12/20211148    31500347237421964250000C09C0100001316940000000000000                                                                               DIOVAN TAB 160 MG /R/TAB     1
CC0000073070310H202100000556554200000556554204/12/20210708    31500347237421964250000C09C0100001316940000000000000                                                                               DIOVAN TAB 160 MG /R/TAB     2
CC0000073070310H202100000556554200000556554204/12/20210708    31500347237421964250000N02B1100001464120000000000000                                           PARACETAMOL EP 1000MG/100ML(10MG/ML) SOL INY  CAJ X 10FCOVAL     3
