MS0000009060998U202100000556885800000556885813/12/20210944     330001023942196432000011808300000218190000000000000                                                   DORMICUM IV 50MG/10ML(5MG/ML) SOL INY  CAJ X 5AMPAMP     1
MS0000009060998U202100000556885800000556885813/12/20211134    31500657239421964320000E1AB0200000199290000000000000                                                            SOLUCION SALINA 0.9% SLN INY BO X 100 MLBIN     1
MS0000009060998U202100000556885800000556885813/12/20211133    31500657239421964320000E1AD0300000199490000000000000                                         LACTATO RINGER USP (HARTMANN)  SOL INY  BOL X 1000ML BAXTERBIN     1
MS0000009060998U202100000556885800000556885813/12/20211905     3300010239421964320000N2BE1100000836430000000000000                                             ACETAMINOFEN 150MG/5ML(3%) JBE INST FCO X 60ML AMER GENCAJ     1
MS0000009060998U202100000556885800000556885813/12/20212350     3300010239421964320000N3AB0700000554770000000000000                                                                          EPAMIN Sln Iny 250 mg/5 mlAMP     1
MS0000009060998U202100000556885800000556885813/12/20210944     3300010239421964320000N3AB0700000554770000000000000                                                                          EPAMIN Sln Iny 250 mg/5 mlAMP     1
MS0000009060998U202100000556885800000556885813/12/20210945     3300010239421964320000N05B0600001444540000000000000                                                                         DIAZEPAM SLN INY 10 MG/2 MLAMP     1
