CC0001129577696H202100000556885900000556885913/12/20210945     3300009237421964250000A04A0600001277030000000000000                                                                                      ONDAX TAB 8 MGTAB     3
CC0001129577696H202100000556885900000556885913/12/20210945     3300009237421964250000B1AB0200003939510000000000000                 ENOXAPARINA SODICA 40MG/0.4ML(100MG/ML) SOL INY INST CAJ X 2JERPREL X 0.4ML TECHDOWJRP     1
CC0001129577696H202100000556885900000556885913/12/20210945     3300009237421964250000V6DF1800001629910000000000000                                                                             ENSURE LIQUIDO X 237 MLFCO     1
CC0001129577696H202100000556885900000556885913/12/20210945     3300009237421964250000A02B0800001276960000000000000                                                                                 OMEPRAZOL CAP 20 MGCAP     1
CC0001129577696H202100000556885900000556885913/12/20210945     3300009237421964250000C03C0100001672000000000000000                                                                       FUROSEMIDA SLN INY 20 MG/2 MLAMP     2
CC0001129577696H202100000556885900000556885913/12/20210945     3300009237421964250000N2BE2200001252930000000000000                                                                             ACETAMINOFEN Tab 500 MGTAB     6
CC0001129577696H202100000556885900000556885913/12/20211133    31903308237421964250000V07A1300000502600000000000000                                                                                AGUA ESTERIL x 10 mlAMP     6
