CC0001140829131U202100923221121700923221121717/12/20210229    3150025823942196432000011082700001620070000000000000                                                               EQUIPO SET PRIMARIO C/CLAVE REF 14001BOL     1
CC0001140829131U202100923221121700923221121717/12/20210229    3150025823942196432000024673600000222980000000000000                                                                     JERINGA DESECHABLE 5 ml 27*11/2SIN     4
CC0001140829131U202100923221121700923221121717/12/20210229    3150025823942196432000030936900001431840000000000000                                                                                              BURETABOL     1
CC0001140829131U202100923221121700923221121717/12/20210229    31500258239421964320000Q1AA7100000610620000000000000                                                            CATETER PERIFE INTROCAN # 18G 4251687-04SIN     1
CC0001140829131U202100923221121700923221121717/12/20210229    31500258239421964320000E1AD0300000199490000000000000                                         LACTATO RINGER USP (HARTMANN)  SOL INY  BOL X 1000ML BAXTERBIN     1
CC0001140829131U202100923221121700923221121717/12/20210544    31900939239421964320000E1AB0300003888390000000000000                                                            SOLUCION SALINA 0.9% SLN INY BO X 500 MLBOL     1
