TI0001046711196U202100923451121800923451121818/12/20211618    3150065723942196432000011082700001620070000000000000                                                               EQUIPO SET PRIMARIO C/CLAVE REF 14001BOL     1
TI0001046711196U202100923451121800923451121818/12/20211618    3150065723942196432000016830000000970620000000000000                                                             SIST FIJACION CAT PERIFERICO 6.5X7 1683SOB     1
TI0001046711196U202100923451121800923451121818/12/20211618    3150065723942196432000024673600000222980000000000000                                                                     JERINGA DESECHABLE 5 ml 27*11/2SIN     1
TI0001046711196U202100923451121800923451121818/12/20211618    31500657239421964320000Q1AA7300000610640000000000000                                                            CATETER PERIFE INTROCAN # 22G 4251628-04SIN     1
TI0001046711196U202100923451121800923451121818/12/20211618    3150065723942196432000001956000001620610000000000000                                                                      CONECTOR MICRO CLAVE LAT-MC100SOB     1
