CC0001129579679H202100000556888600000556888613/12/20211025    31500192237421964250000A2BC0900000200150000000000000                                                                               ORAZOLE Sln Iny 40 mgCIN     1
CC0001129579679H202100000556888600000556888613/12/20211025    31500192237421964250000A4AD0200000202990000000000000                                                                     PLITICAN HCL Sln Iny 50 mg/2 mlAMP     1
CC0001129579679H202100000556888600000556888613/12/20211025    31500192237421964250000B1AB0200003939510000000000000                 ENOXAPARINA SODICA 40MG/0.4ML(100MG/ML) SOL INY INST CAJ X 2JERPREL X 0.4ML TECHDOWJRP     1
CC0001129579679H202100000556888600000556888613/12/20211025    31500192237421964250000H02AB500001664950000000000000                                                            DEXAMETASONA SLN INY 8 MG/2 ML AMP /CDS/AMP     1
CC0001129579679H202100000556888600000556888613/12/20211025    31500192237421964250000J01DA300001239950000000000000                                                            CEFAZOLINA SODICA POLVO LIOF SLN INY 1 GVAL     1
CC0001129579679H202100000556888600000556888613/12/20211025    31500192237421964250000N2BE0100001276930000000000000                                                                                    DOLEX TAB 500 MGTAB     6
