RC0001063188076H202100015122553900015122553913/12/20210812    31903307237421964250000E1BA0100000198890000000000000                                                                   AGUA ESTERIL USP SLN INY X 500 MLBIN     1
TI0001011214689H202100015122553900015122553913/12/20210812    3190330723742196425000030936900001431840000000000000                                                                                              BURETABOL     1
RC0001043033404H202100015122553900015122553913/12/20210812    3190330723742196425000030936900001431840000000000000                                                                                              BURETABOL     1
RC0001044671776H202100015122553900015122553913/12/20210812    3190330723742196425000030936900001431840000000000000                                                                                              BURETABOL     1
RC0001063188441H202100015122553900015122553913/12/20210812    3190330723742196425000030936900001431840000000000000                                                                                              BURETABOL     1
RC0001044671776H202100015122553900015122553913/12/20210812    31903307237421964250000E1AB0700003888350000000000000                                                            SOLUCION SALINA 0.9% SLN INY BO X 250 MLBOL     1
RC0001046723141H202100015122553900015122553913/12/20210812    31903307237421964250000E1AB0700003888350000000000000                                                            SOLUCION SALINA 0.9% SLN INY BO X 250 MLBOL     1
TI0001011214689H202100015122553900015122553913/12/20210812    3190330723742196425000024674500000322810000000000000                                                                   JERINGA DESECHABLE 20 ml 21*1 1/2SIN     5
RC0001043033404H202100015122553900015122553913/12/20210812    3190330723742196425000024674500000322810000000000000                                                                   JERINGA DESECHABLE 20 ml 21*1 1/2SIN     5
RC0001240292997H202100015122553900015122553913/12/20210812    3190330723742196425000024674500000322810000000000000                                                                   JERINGA DESECHABLE 20 ml 21*1 1/2SIN     5
RC0001063188076H202100015122553900015122553913/12/20210812    3190330723742196425000024674500000322810000000000000                                                                   JERINGA DESECHABLE 20 ml 21*1 1/2SIN     5
RC0001044671776H202100015122553900015122553913/12/20210812    3190330723742196425000024674500000322810000000000000                                                                   JERINGA DESECHABLE 20 ml 21*1 1/2SIN     5
RC0001046723141H202100015122553900015122553913/12/20210812    3190330723742196425000024674500000322810000000000000                                                                   JERINGA DESECHABLE 20 ml 21*1 1/2SIN     5
RC0001063188441H202100015122553900015122553913/12/20210812    3190330723742196425000024674500000322810000000000000                                                                   JERINGA DESECHABLE 20 ml 21*1 1/2SIN     5
TI0001044220362H202100015122553900015122553913/12/20210812    3190330723742196425000024674500000322810000000000000                                                                   JERINGA DESECHABLE 20 ml 21*1 1/2SIN     5
TI0001011214689H202100015122553900015122553913/12/20210812    3190330723742196425000024674000001138340000000000000   JERINGA 3PARTES C/A 10ML REF JEHL005 CAJ X 100 ALFASAFE  21GX1 PULG 1/2 PULG BN EXENTO-DC.417/202PZA    10
RC0001043033404H202100015122553900015122553913/12/20210812    3190330723742196425000024674000001138340000000000000   JERINGA 3PARTES C/A 10ML REF JEHL005 CAJ X 100 ALFASAFE  21GX1 PULG 1/2 PULG BN EXENTO-DC.417/202PZA    10
RC0001240292997H202100015122553900015122553913/12/20210812    3190330723742196425000024674000001138340000000000000   JERINGA 3PARTES C/A 10ML REF JEHL005 CAJ X 100 ALFASAFE  21GX1 PULG 1/2 PULG BN EXENTO-DC.417/202PZA    10
RC0001063188076H202100015122553900015122553913/12/20210812    3190330723742196425000024674000001138340000000000000   JERINGA 3PARTES C/A 10ML REF JEHL005 CAJ X 100 ALFASAFE  21GX1 PULG 1/2 PULG BN EXENTO-DC.417/202PZA    10
RC0001044671776H202100015122553900015122553913/12/20210812    3190330723742196425000024674000001138340000000000000   JERINGA 3PARTES C/A 10ML REF JEHL005 CAJ X 100 ALFASAFE  21GX1 PULG 1/2 PULG BN EXENTO-DC.417/202PZA    10
RC0001046723141H202100015122553900015122553913/12/20210812    3190330723742196425000024674000001138340000000000000   JERINGA 3PARTES C/A 10ML REF JEHL005 CAJ X 100 ALFASAFE  21GX1 PULG 1/2 PULG BN EXENTO-DC.417/202PZA    10
RC0001063188441H202100015122553900015122553913/12/20210812    3190330723742196425000024674000001138340000000000000   JERINGA 3PARTES C/A 10ML REF JEHL005 CAJ X 100 ALFASAFE  21GX1 PULG 1/2 PULG BN EXENTO-DC.417/202PZA    10
TI0001044220362H202100015122553900015122553913/12/20210812    3190330723742196425000024674000001138340000000000000   JERINGA 3PARTES C/A 10ML REF JEHL005 CAJ X 100 ALFASAFE  21GX1 PULG 1/2 PULG BN EXENTO-DC.417/202PZA    10
TI0001011214689H202100015122553900015122553913/12/20210812    3190330723742196425000000602600001259280000000000000                                                             APOSITO TEGADERM IV PD 1610 5CM X 5.7CMSOB     1
RC0001043033404H202100015122553900015122553913/12/20210812    3190330723742196425000000602600001259280000000000000                                                             APOSITO TEGADERM IV PD 1610 5CM X 5.7CMSOB     1
RC0001240292997H202100015122553900015122553913/12/20210812    3190330723742196425000000602600001259280000000000000                                                             APOSITO TEGADERM IV PD 1610 5CM X 5.7CMSOB     1
RC0001063188076H202100015122553900015122553913/12/20210812    3190330723742196425000000602600001259280000000000000                                                             APOSITO TEGADERM IV PD 1610 5CM X 5.7CMSOB     1
RC0001044671776H202100015122553900015122553913/12/20210812    3190330723742196425000000602600001259280000000000000                                                             APOSITO TEGADERM IV PD 1610 5CM X 5.7CMSOB     1
RC0001046723141H202100015122553900015122553913/12/20210812    3190330723742196425000000602600001259280000000000000                                                             APOSITO TEGADERM IV PD 1610 5CM X 5.7CMSOB     1
RC0001063188441H202100015122553900015122553913/12/20210812    3190330723742196425000000602600001259280000000000000                                                             APOSITO TEGADERM IV PD 1610 5CM X 5.7CMSOB     1
TI0001044220362H202100015122553900015122553913/12/20210812    3190330723742196425000000602600001259280000000000000                                                             APOSITO TEGADERM IV PD 1610 5CM X 5.7CMSOB     1
TI0001011214689H202100015122553900015122553913/12/20210812    31903307237421964250000E1AB0300003888390000000000000                                                            SOLUCION SALINA 0.9% SLN INY BO X 500 MLBOL     1
RC0001043033404H202100015122553900015122553913/12/20210812    31903307237421964250000E1AB0300003888390000000000000                                                            SOLUCION SALINA 0.9% SLN INY BO X 500 MLBOL     1
RC0001240292997H202100015122553900015122553913/12/20210812    31903307237421964250000E1AB0300003888390000000000000                                                            SOLUCION SALINA 0.9% SLN INY BO X 500 MLBOL     1
RC0001043033404H202100015122553900015122553913/12/20210812    31903307237421964250000E1AC0100000199400000000000000                                                                          SUERO MIXTO Sln Iny 500 mlBIN     1
RC0001044671776H202100015122553900015122553913/12/20210812    31903307237421964250000E1AC0100000199400000000000000                                                                          SUERO MIXTO Sln Iny 500 mlBIN     1
RC0001063188441H202100015122553900015122553913/12/20210812    31903307237421964250000E1AC0100000199400000000000000                                                                          SUERO MIXTO Sln Iny 500 mlBIN     1
RC0001240292997H202100015122553900015122553913/12/20210812    31903307237421964250000E1AA0100003888590000000000000                                                                        DEXTROSA 5% Sln Iny X 500 mlBOL     1
RC0001063188076H202100015122553900015122553913/12/20210812    31903307237421964250000E1AA0100003888590000000000000                                                                        DEXTROSA 5% Sln Iny X 500 mlBOL     1
TI0001011214689H202100015122553900015122553913/12/20210812    3190330723742196425000011082700001620070000000000000                                                               EQUIPO SET PRIMARIO C/CLAVE REF 14001BOL     2
RC0001043033404H202100015122553900015122553913/12/20210812    3190330723742196425000011082700001620070000000000000                                                               EQUIPO SET PRIMARIO C/CLAVE REF 14001BOL     1
RC0001044671776H202100015122553900015122553913/12/20210812    3190330723742196425000011082700001620070000000000000                                                               EQUIPO SET PRIMARIO C/CLAVE REF 14001BOL     2
RC0001063188441H202100015122553900015122553913/12/20210812    3190330723742196425000011082700001620070000000000000                                                               EQUIPO SET PRIMARIO C/CLAVE REF 14001BOL     1
TI0001011214689H202100015122553900015122553913/12/20210812    3190330723742196425000013077800000471960000000000000                                                             GASA NO TEJIDA EST 7.5 X 7.5 SOB X 3 UNSOB     3
RC0001043033404H202100015122553900015122553913/12/20210812    3190330723742196425000013077800000471960000000000000                                                             GASA NO TEJIDA EST 7.5 X 7.5 SOB X 3 UNSOB     3
RC0001240292997H202100015122553900015122553913/12/20210812    3190330723742196425000013077800000471960000000000000                                                             GASA NO TEJIDA EST 7.5 X 7.5 SOB X 3 UNSOB     3
RC0001063188076H202100015122553900015122553913/12/20210812    3190330723742196425000013077800000471960000000000000                                                             GASA NO TEJIDA EST 7.5 X 7.5 SOB X 3 UNSOB     3
RC0001044671776H202100015122553900015122553913/12/20210812    3190330723742196425000013077800000471960000000000000                                                             GASA NO TEJIDA EST 7.5 X 7.5 SOB X 3 UNSOB     3
RC0001046723141H202100015122553900015122553913/12/20210812    3190330723742196425000013077800000471960000000000000                                                             GASA NO TEJIDA EST 7.5 X 7.5 SOB X 3 UNSOB     3
RC0001063188441H202100015122553900015122553913/12/20210812    3190330723742196425000013077800000471960000000000000                                                             GASA NO TEJIDA EST 7.5 X 7.5 SOB X 3 UNSOB     3
TI0001044220362H202100015122553900015122553913/12/20210812    3190330723742196425000013077800000471960000000000000                                                             GASA NO TEJIDA EST 7.5 X 7.5 SOB X 3 UNSOB     3
TI0001011214689H202100015122553900015122553913/12/20210812    3190330723742196425000045136100001419300000000000000                                                                            LANCETA DEXTROMETER X UNPZA    10
TI0001044220362H202100015122553900015122553913/12/20210812    31903307237421964250000E1AD0300000199490000000000000                                         LACTATO RINGER USP (HARTMANN)  SOL INY  BOL X 1000ML BAXTERBIN     2
TI0001011214689H202100015122553900015122553913/12/20210812    31903307237421964250000E1AB0500003888400000000000000                                                              SOLUCION SALINA 0.9% SLN INY X 1000 MLBOL     2
