RC0001047363241H202100000025037500000025037513/12/20211108    31903016237421964250000Q1AA7300000610640000000000000                                                            CATETER PERIFE INTROCAN # 22G 4251628-04SIN     2
CC0001001856780H202100000025037500000025037513/12/20211108    31903016237421964250000Q1AA7300000610640000000000000                                                            CATETER PERIFE INTROCAN # 22G 4251628-04SIN     1
CC0001098706826H202100000025037500000025037513/12/20211108    31903016237421964250000Q1AA7300000610640000000000000                                                            CATETER PERIFE INTROCAN # 22G 4251628-04SIN     1
CC0000032640848H202100000025037500000025037513/12/20211108    31903016237421964250000Q1AA7300000610640000000000000                                                            CATETER PERIFE INTROCAN # 22G 4251628-04SIN     2
RC0001047363241H202100000025037500000025037513/12/20211108    31903016237421964250000E1AB0200000199290000000000000                                                            SOLUCION SALINA 0.9% SLN INY BO X 100 MLBIN     1
CC0000057401926H202100000025037500000025037513/12/20211108    31903016237421964250000E1AB0200000199290000000000000                                                            SOLUCION SALINA 0.9% SLN INY BO X 100 MLBIN     2
CC0000032640848H202100000025037500000025037513/12/20211108    31903016237421964250000E1AB0200000199290000000000000                                                            SOLUCION SALINA 0.9% SLN INY BO X 100 MLBIN     2
RC0001047363241H202100000025037500000025037513/12/20211108    31903016237421964250000E1AB0700003888350000000000000                                                            SOLUCION SALINA 0.9% SLN INY BO X 250 MLBOL     1
RC0001047363241H202100000025037500000025037513/12/20211108    3190301623742196425000043485100001618510000000000000                GUANTE QUIRURGICO DE LATEX REF 2D72N65X CAJ X 50 PROTEXIS  6.5 BN EXENTO-DC.417/2020SOB     6
CC0001001856780H202100000025037500000025037513/12/20211108    3190301623742196425000043485100001618510000000000000                GUANTE QUIRURGICO DE LATEX REF 2D72N65X CAJ X 50 PROTEXIS  6.5 BN EXENTO-DC.417/2020SOB     6
CC0000057401926H202100000025037500000025037513/12/20211108    3190301623742196425000043485100001618510000000000000                GUANTE QUIRURGICO DE LATEX REF 2D72N65X CAJ X 50 PROTEXIS  6.5 BN EXENTO-DC.417/2020SOB     6
CC0001098706826H202100000025037500000025037513/12/20211108    3190301623742196425000043485100001618510000000000000                GUANTE QUIRURGICO DE LATEX REF 2D72N65X CAJ X 50 PROTEXIS  6.5 BN EXENTO-DC.417/2020SOB     6
CC0000032640848H202100000025037500000025037513/12/20211108    3190301623742196425000043485100001618510000000000000                GUANTE QUIRURGICO DE LATEX REF 2D72N65X CAJ X 50 PROTEXIS  6.5 BN EXENTO-DC.417/2020SOB     6
RC0001047363241H202100000025037500000025037513/12/20211108    3190301623742196425000024674000001138340000000000000   JERINGA 3PARTES C/A 10ML REF JEHL005 CAJ X 100 ALFASAFE  21GX1 PULG 1/2 PULG BN EXENTO-DC.417/202PZA     4
CC0001001856780H202100000025037500000025037513/12/20211108    3190301623742196425000024674000001138340000000000000   JERINGA 3PARTES C/A 10ML REF JEHL005 CAJ X 100 ALFASAFE  21GX1 PULG 1/2 PULG BN EXENTO-DC.417/202PZA     4
CC0000057401926H202100000025037500000025037513/12/20211108    3190301623742196425000024674000001138340000000000000   JERINGA 3PARTES C/A 10ML REF JEHL005 CAJ X 100 ALFASAFE  21GX1 PULG 1/2 PULG BN EXENTO-DC.417/202PZA     4
CC0001098706826H202100000025037500000025037513/12/20211108    3190301623742196425000024674000001138340000000000000   JERINGA 3PARTES C/A 10ML REF JEHL005 CAJ X 100 ALFASAFE  21GX1 PULG 1/2 PULG BN EXENTO-DC.417/202PZA     6
CC0000032640848H202100000025037500000025037513/12/20211108    3190301623742196425000024674000001138340000000000000   JERINGA 3PARTES C/A 10ML REF JEHL005 CAJ X 100 ALFASAFE  21GX1 PULG 1/2 PULG BN EXENTO-DC.417/202PZA     4
CC0000022317998H202100000025037500000025037513/12/20211108    3190301623742196425000031188000000236790000000000000                                                                                     CISTOFLO ADULTOSIN     1
CC0000022317998H202100000025037500000025037513/12/20211108    3190301623742196425000000054400001676240000000000000                                                                 OPTIFLOW CANULA NASAL MEDIUM OPT844SOB     1
CC0001001856780H202100000025037500000025037513/12/20211108    3190301623742196425000000054400001676240000000000000                                                                 OPTIFLOW CANULA NASAL MEDIUM OPT844SOB     1
CC0001098706826H202100000025037500000025037513/12/20211108    3190301623742196425000000054400001676240000000000000                                                                 OPTIFLOW CANULA NASAL MEDIUM OPT844SOB     1
CC0000032640848H202100000025037500000025037513/12/20211108    3190301623742196425000000054400001676240000000000000                                                                 OPTIFLOW CANULA NASAL MEDIUM OPT844SOB     1
CC0000022317998H202100000025037500000025037513/12/20211108    3190301623742196425000038568100000258050000000000000                                                                         CANULA OXIGENO NASAL ADULTOSIN     1
CC0000057401926H202100000025037500000025037513/12/20211108    3190301623742196425000038568100000258050000000000000                                                                         CANULA OXIGENO NASAL ADULTOSIN     1
RC0001047363241H202100000025037500000025037513/12/20211108    31903016237421964250000Q1A11800000258040000000000000                                                                         CANULA OXIGENO NASAL PEDIATSIN     1
CC0000057401926H202100000025037500000025037513/12/20211108    31903016237421964250000Q1AA7100000610620000000000000                                                            CATETER PERIFE INTROCAN # 18G 4251687-04SIN     1
CC0000057401926H202100000025037500000025037513/12/20211108    31903016237421964250000Q1AA7200000610630000000000000                                                            CATETER PERIFE INTROCAN # 20G 4251644-04SIN     1
CC0001098706826H202100000025037500000025037513/12/20211108    31903016237421964250000Q1AA7200000610630000000000000                                                            CATETER PERIFE INTROCAN # 20G 4251644-04SIN     1
RC0001047363241H202100000025037500000025037513/12/20211108    31903016237421964250000E1AB0300003888390000000000000                                                            SOLUCION SALINA 0.9% SLN INY BO X 500 MLBOL     1
CC0000057401926H202100000025037500000025037513/12/20211108    3190301623742196425000043879400001138170000000000000                                                                  HOJA BISTURI # 10 CSSB 10 01002000SOB     1
RC0001047363241H202100000025037500000025037513/12/20211108    3190301623742196425000043879200001138180000000000000                                                                                   HOJA BISTURI # 11SOB     1
CC0001001856780H202100000025037500000025037513/12/20211108    3190301623742196425000043879200001138180000000000000                                                                                   HOJA BISTURI # 11SOB     1
CC0000057401926H202100000025037500000025037513/12/20211108    3190301623742196425000043879200001138180000000000000                                                                                   HOJA BISTURI # 11SOB     1
CC0001098706826H202100000025037500000025037513/12/20211108    3190301623742196425000043879200001138180000000000000                                                                                   HOJA BISTURI # 11SOB     1
CC0000032640848H202100000025037500000025037513/12/20211108    3190301623742196425000043879200001138180000000000000                                                                                   HOJA BISTURI # 11SOB     1
RC0001047363241H202100000025037500000025037513/12/20211108    3190301623742196425000022425200000548240000000000000                       EXTENSION DE ANESTESIA REF 1139 SOB X 1 SHERLEG  ADULTO BN EXENTO-DC.417/2020SIN     2
CC0001001856780H202100000025037500000025037513/12/20211108    3190301623742196425000022425200000548240000000000000                       EXTENSION DE ANESTESIA REF 1139 SOB X 1 SHERLEG  ADULTO BN EXENTO-DC.417/2020SIN     2
CC0000057401926H202100000025037500000025037513/12/20211108    3190301623742196425000022425200000548240000000000000                       EXTENSION DE ANESTESIA REF 1139 SOB X 1 SHERLEG  ADULTO BN EXENTO-DC.417/2020SIN     2
CC0001098706826H202100000025037500000025037513/12/20211108    3190301623742196425000022425200000548240000000000000                       EXTENSION DE ANESTESIA REF 1139 SOB X 1 SHERLEG  ADULTO BN EXENTO-DC.417/2020SIN     2
CC0000032640848H202100000025037500000025037513/12/20211108    3190301623742196425000022425200000548240000000000000                       EXTENSION DE ANESTESIA REF 1139 SOB X 1 SHERLEG  ADULTO BN EXENTO-DC.417/2020SIN     2
RC0001047363241H202100000025037500000025037513/12/20211108    3190301623742196425000011089300001083990000000000000                                                              GUANTE ESTERIL LATEX S/POLVO TALLA 7.5SOB     3
CC0001001856780H202100000025037500000025037513/12/20211108    3190301623742196425000011089300001083990000000000000                                                              GUANTE ESTERIL LATEX S/POLVO TALLA 7.5SOB     3
CC0000057401926H202100000025037500000025037513/12/20211108    3190301623742196425000011089300001083990000000000000                                                              GUANTE ESTERIL LATEX S/POLVO TALLA 7.5SOB     3
CC0001098706826H202100000025037500000025037513/12/20211108    3190301623742196425000011089300001083990000000000000                                                              GUANTE ESTERIL LATEX S/POLVO TALLA 7.5SOB     3
CC0000032640848H202100000025037500000025037513/12/20211108    3190301623742196425000011089300001083990000000000000                                                              GUANTE ESTERIL LATEX S/POLVO TALLA 7.5SOB     3
RC0001047363241H202100000025037500000025037513/12/20211108    31903016237421964250000V4AF1000003850710000000000000                                                                    OMNIPAQUE Sln Iny 300 mg x 50 mlFCO     2
CC0001001856780H202100000025037500000025037513/12/20211108    31903016237421964250000V4AF1000003850710000000000000                                                                    OMNIPAQUE Sln Iny 300 mg x 50 mlFCO     4
CC0001098706826H202100000025037500000025037513/12/20211108    31903016237421964250000V4AF1000003850710000000000000                                                                    OMNIPAQUE Sln Iny 300 mg x 50 mlFCO     4
CC0000032640848H202100000025037500000025037513/12/20211108    3190301623742196425000000102300000222960000000000000                                                                 JERINGA DESECHABLE SIN AGUJA X 20mLSIN     1
RC0001047363241H202100000025037500000025037513/12/20211108    3190301623742196425000011047900000223010000000000000                                                                            JERINGA X 1ML REF 302579SIN     2
CC0001098706826H202100000025037500000025037513/12/20211108    3190301623742196425000011047900000223010000000000000                                                                            JERINGA X 1ML REF 302579SIN     2
CC0000032640848H202100000025037500000025037513/12/20211108    3190301623742196425000011047900000223010000000000000                                                                            JERINGA X 1ML REF 302579SIN     2
RC0001047363241H202100000025037500000025037513/12/20211108    31903016237421964250000N1BA2400001687720000000000000                                                    LIDOCAINA 2% SOL INY  CAJ X 50AMP X 10ML CORPAULAMP     2
CC0001001856780H202100000025037500000025037513/12/20211108    31903016237421964250000N1BA2400001687720000000000000                                                    LIDOCAINA 2% SOL INY  CAJ X 50AMP X 10ML CORPAULAMP     2
CC0000057401926H202100000025037500000025037513/12/20211108    31903016237421964250000N1BA2400001687720000000000000                                                    LIDOCAINA 2% SOL INY  CAJ X 50AMP X 10ML CORPAULAMP     2
CC0000032618588H202100000025037500000025037513/12/20211108    31903016237421964250000N1BA2400001687720000000000000                                                    LIDOCAINA 2% SOL INY  CAJ X 50AMP X 10ML CORPAULAMP     2
CC0000032640848H202100000025037500000025037513/12/20211108    31903016237421964250000N1BA2400001687720000000000000                                                    LIDOCAINA 2% SOL INY  CAJ X 50AMP X 10ML CORPAULAMP     2
CC0001001856780H202100000025037500000025037513/12/20211108    31903016237421964250000E1AB0500003888400000000000000                                                              SOLUCION SALINA 0.9% SLN INY X 1000 MLBOL     1
CC0001098706826H202100000025037500000025037513/12/20211108    31903016237421964250000E1AB0500003888400000000000000                                                              SOLUCION SALINA 0.9% SLN INY X 1000 MLBOL     1
CC0000032640848H202100000025037500000025037513/12/20211108    31903016237421964250000E1AB0500003888400000000000000                                                              SOLUCION SALINA 0.9% SLN INY X 1000 MLBOL     1
RC0001047363241H202100000025037500000025037513/12/20211108    3190301623742196425000039175300001077530000000000000                                                                           TUBO ENDOTRAQUEAL C/B 4.0SOB     1
RC0001047363241H202100000025037500000025037513/12/20211108    3190301623742196425000039174500001679380000000000000                                                                           TUBO ENDOTRAQUEAL C/B 4.5SOB     1
RC0001047363241H202100000025037500000025037513/12/20211108    3190301623742196425000039174600001072010000000000000                                                                           TUBO ENDOTRAQUEAL C/B 5.0SOB     1
