CC0000072277171H202100000556551300000556551304/12/20211117     330000923742196425000011808300000218190000000000000                                                   DORMICUM IV 50MG/10ML(5MG/ML) SOL INY  CAJ X 5AMPAMP     1
CC0000072277171H202100000556551300000556551304/12/20210905     3300009237421964250000A6AC0200001467010000000000000                                                             LACTULAX JARABE 66.7G/100ML SOX15ML /R/SOB     5
CC0000072277171H202100000556551300000556551304/12/20210905     3300009237421964250000V7AZ1800001442160000000000000                                                                              GLICERINA Supos AdultoSUP     1
CC0000072277171H202100000556551300000556551304/12/20211912    31903294237421964250000E1AB1100003888280000000000000                                                                        SOLUCION SALINA 0.9% X 50 mlBOL     3
CC0000072277171H202100000556551300000556551304/12/20210939    31903294237421964250000E1AB0300003888390000000000000                                                            SOLUCION SALINA 0.9% SLN INY BO X 500 MLBOL     2
CC0000072277171H202100000556551300000556551304/12/20211617     3300009237421964250000H02AB500001664950000000000000                                                            DEXAMETASONA SLN INY 8 MG/2 ML AMP /CDS/AMP     1
CC0000072277171H202100000556551300000556551304/12/20210905     3300009237421964250000H02AB500001664950000000000000                                                            DEXAMETASONA SLN INY 8 MG/2 ML AMP /CDS/AMP     2
CC0000072277171H202100000556551300000556551304/12/20210905     3300009237421964250000N06A1100001278050000000000000                                                                              CYMBALTA Cap 30 mg /R/CAP     1
CC0000072277171H202100000556551300000556551304/12/20211617     3300009237421964250000N02A3100001227160000000000000                                                                    OXYRAPID SLN INY 10 MG/ML X 1 MLAMP    10
CC0000072277171H202100000556551300000556551304/12/20211118     3300009237421964250000N02A3100001227160000000000000                                                                    OXYRAPID SLN INY 10 MG/ML X 1 MLAMP     9
CC0000072277171H202100000556551300000556551304/12/20211117     3300009237421964250000N02A3100001227160000000000000                                                                    OXYRAPID SLN INY 10 MG/ML X 1 MLAMP     1
CC0000072277171H202100000556551300000556551304/12/20210904     3300009237421964250000B01AB400000513360000000000000                                                                        CLENOX SLN INY 60 MG/ 0.6 MLJRP     2
CC0000072277171H202100000556551300000556551304/12/20210905     3300009237421964250000A02BC700001684270000000000000                                                            OMEPRAZOL 40MG POLVO LIOFILIZADO AMPOLLAVAL     1
CC0000072277171H202100000556551300000556551304/12/20210939    31903294237421964250000V07A1300000502600000000000000                                                                                AGUA ESTERIL x 10 mlAMP     5
