TI0001130295594U202100000556903900000556903913/12/20211953    31902968239421964320000E1AD0300000199490000000000000                                         LACTATO RINGER USP (HARTMANN)  SOL INY  BOL X 1000ML BAXTERBIN     1
TI0001130295594U202100000556903900000556903913/12/20211818     3300010239421964320000M1AB0900001019600000000000000                                                                              VOLTAREN Sln Iny 75 mgAMP     1
TI0001130295594U202100000556903900000556903913/12/20211913     3300010239421964320000N2BB0500000217140000000000000                                                                          NOVALGINA Sln Iny 1 g/2 mlAMP     2
