CC0000010494956H202100000556876300000556876313/12/20210935     3300009237421964250000V4AF0700001193810000000000000                                                                   NULYTELY 3350 SOBRE X 110.1 G /R/SOB     3
CC0000010494956H202100000556876300000556876313/12/20210156    31500213237421964250000E1AB0300003888390000000000000                                                            SOLUCION SALINA 0.9% SLN INY BO X 500 MLBOL     2
CC0000010494956H202100000556876300000556876313/12/20211727     3300009237421964250000B01AB200000513350000000000000                                                                        CLENOX SLN INY 40 MG/ 0.4 MLJRP     1
CC0000010494956H202100000556876300000556876313/12/20210935     3300009237421964250000J01D1200001239960000000000000                                                                              CEFEPIME POLVO INY 1 GVAL     4
CC0000010494956H202100000556876300000556876313/12/20211846     3300009237421964250000J3CA0300001673190000000000000                               METRONIDAZOL 500MG/100ML(5MG/ML) SOL INY  CAJ X 84BOL X 100ML CORPAULBOL     3
CC0000010494956H202100000556876300000556876313/12/20211727     3300009237421964250000J3CA0300001673190000000000000                               METRONIDAZOL 500MG/100ML(5MG/ML) SOL INY  CAJ X 84BOL X 100ML CORPAULBOL     1
CC0000010494956H202100000556876300000556876313/12/20212100     3300003237421964250000A03DH100001684240000000000000                                                            B HIOSCINA 20MG/DIPIRON 2.5G SLN INY 5MLAMP     1
CC0000010494956H202100000556876300000556876313/12/20210934     3300009237421964250000A03DH100001684240000000000000                                                            B HIOSCINA 20MG/DIPIRON 2.5G SLN INY 5MLAMP     2
CC0000010494956H202100000556876300000556876313/12/20211115    31903294237421964250000V07A1300000502600000000000000                                                                                AGUA ESTERIL x 10 mlAMP     5
CC0000010494956H202100000556876300000556876313/12/20210156    31500213237421964250000V07A1300000502600000000000000                                                                                AGUA ESTERIL x 10 mlAMP     3
