CC0001140892481U202100000556910100000556910113/12/20211946     3300010239421964320000H02AB500001664950000000000000                                                            DEXAMETASONA SLN INY 8 MG/2 ML AMP /CDS/AMP     1
CC0001140892481U202100000556910100000556910113/12/20211946     3300010239421964320000N02AA700000979510000000000000                                                            DIHIDROCODEINA SLN ORAL 2.42 MG/ML X 120FCO     1
CC0001140892481U202100000556910100000556910113/12/20211941     3300010239421964320000R03AC200003848990000000000000                                                              SALBUTAMOL INH 100 MCG/DO FCO X 200 DOFCO     1
