CC0001124012749A202100000027865700000027865713/12/20211808    31903336240421964190000M1AX0200001569410000000000000                                                                         KETRON SLN INY 30 MG / 2 MLAMP     1
CC0001124012749A202100000027865700000027865713/12/20211808    3190333624042196419000034366500000269180000000000000                               INSPIROMETRO INCENTIVO RESPIRATORIO CAJ X 1 RSB BN EXENTO-DC.417/2020CAJ     1
CC0001124012749A202100000027865700000027865713/12/20211808    3190333624042196419000011082700001620070000000000000                                                               EQUIPO SET PRIMARIO C/CLAVE REF 14001BOL     1
CC0001124012749A202100000027865700000027865713/12/20211808    31903336240421964190000E1AB0200000199290000000000000                                                            SOLUCION SALINA 0.9% SLN INY BO X 100 MLBIN     2
CC0001124012749A202100000027865700000027865713/12/20211808    31903336240421964190000A2BC0900000200150000000000000                                                                               ORAZOLE Sln Iny 40 mgCIN     1
CC0001124012749A202100000027865700000027865713/12/20211808    31903336240421964190000M1AB0900001019600000000000000                                                                              VOLTAREN Sln Iny 75 mgAMP     1
CC0001124012749A202100000027865700000027865713/12/20211808    3190333624042196419000011069100001318210000000000000                                                            TROCAR VERSAPORT BLA OPTICAL 5MM ONB5STFPZA     1
CC0001124012749A202100000027865700000027865713/12/20211808    31903336240421964190000K0960000001052020000000000000                                                            RECARGA ARTICULABLE 60 PURPURA EGIA60AMTPZA     5
CC0001124012749A202100000027865700000027865713/12/20211808    3190333624042196419000000016500000223580000000000000                                                                    STERI-STRIP 12 X 100 REF 1547 3MSIN     1
CC0001124012749A202100000027865700000027865713/12/20211808    3190333624042196419000015994600000632480000000000000                                                                          MONOCRYL 4-0 PS-2 45 Y496GSIN     1
CC0001124012749A202100000027865700000027865713/12/20211808    3190333624042196419000000501000004008660000000000000  SUTURA ABSORB TRENZADA GU-46 REF UL-878 CAJ X 36 POLYSORB 75CM - 2-0 VIOLETA BN EXENTO-DC.417/2020SIN     1
CC0001124012749A202100000027865700000027865713/12/20211808    3190333624042196419000017575000000232660000000000000                                                                             PROLENE 3-0 SH/SH 8522TSIN     1
CC0001124012749A202100000027865700000027865713/12/20211808    3190333624042196419000043879200001138180000000000000                                                                                   HOJA BISTURI # 11SOB     1
CC0001124012749A202100000027865700000027865713/12/20211808    3190333624042196419000045138000001413890000000000000                                                                       LAPIZ ELECTROBISTURI  SOB X 1SOB     1
CC0001124012749A202100000027865700000027865713/12/20211808    3190333624042196419000013077800000471960000000000000                                                             GASA NO TEJIDA EST 7.5 X 7.5 SOB X 3 UNSOB     2
CC0001124012749A202100000027865700000027865713/12/20211808    3190333624042196419000030161400001459220000000000000                                                                       MANGUERA SUCCION 6 MM*3.1 MTSSOB     1
CC0001124012749A202100000027865700000027865713/12/20211808    3190333624042196419000024674500000322810000000000000                                                                   JERINGA DESECHABLE 20 ml 21*1 1/2SIN     1
CC0001124012749A202100000027865700000027865713/12/20211808    31903336240421964190000N1BA0300000217900000000000000                                                                    BUPIROP 0.5% C/E Sln Iny x 20 mlVAL     1
CC0001124012749A202100000027865700000027865713/12/20211808    3190333624042196419000049059800000267410000000000000                                                                 MEDIA ANTIEMBOLICA TAL L 3634LF PARBOL     1
CC0001124012749A202100000027865700000027865713/12/20211808    31903336240421964190000J01DA300001239950000000000000                                                            CEFAZOLINA SODICA POLVO LIOF SLN INY 1 GVAL     2
CC0001124012749A202100000027865700000027865713/12/20211808    3190333624042196419000035356500003919000000000000000                                                                                        LLAVE 3 VIASSOB     1
CC0001124012749A202100000027865700000027865713/12/20211808    3190333624042196419000011085300001082140000000000000                                                                           GUANTE QUIRURGICO TALLA 8SOB     1
CC0001124012749A202100000027865700000027865713/12/20211808    3190333624042196419000011085200001585390000000000000                                                                       GUANTE QUIRURGICO TALLA 7 1/2SOB     2
CC0001124012749A202100000027865700000027865713/12/20211808    3190333624042196419000043485100001618510000000000000                GUANTE QUIRURGICO DE LATEX REF 2D72N65X CAJ X 50 PROTEXIS  6.5 BN EXENTO-DC.417/2020SOB     5
CC0001124012749A202100000027865700000027865713/12/20211808    3190333624042196419000053074400000607910000000000000                                                               GASA ESTERIL 10*10 SOBRE X 3 UNIDADESSOB     2
CC0001124012749A202100000027865700000027865713/12/20211808    3190333624042196419000020038600000256760000000000000                                                                SONDA SUCCION NELATON C/CONTROL # 16SIN     1
CC0001124012749A202100000027865700000027865713/12/20211808    3190333624042196419000011073300001096420000000000000                                                                BOLSA DE SUCCION DE FLUIDOS x 2500mLBOL     1
CC0001124012749A202100000027865700000027865713/12/20211808    3190333624042196419000011099300000777780000000000000                                                                     FILTRO BACTERIANO VIRICO ADULTOBOL     2
CC0001124012749A202100000027865700000027865713/12/20211808    3190333624042196419000039175000001072050000000000000                                                                           TUBO ENDOTRAQUEAL C/B 7.0SOB     1
CC0001124012749A202100000027865700000027865713/12/20211808    3190333624042196419000051515400000598150000000000000                                                                            MASCARILLA ANESTESIA # 4SIN     1
CC0001124012749A202100000027865700000027865713/12/20211808    3190333624042196419000038568100000258050000000000000                                                                         CANULA OXIGENO NASAL ADULTOSIN     1
CC0001124012749A202100000027865700000027865713/12/20211808    31903336240421964190000E1AB0300003888390000000000000                                                            SOLUCION SALINA 0.9% SLN INY BO X 500 MLBOL     5
CC0001124012749A202100000027865700000027865713/12/20211808    31903336240421964190000E1AB0700003888350000000000000                                                            SOLUCION SALINA 0.9% SLN INY BO X 250 MLBOL     2
CC0001124012749A202100000027865700000027865713/12/20211808    31903336240421964190000V3AB1900001177870000000000000                                                                      PROSTIGMINE Sln Iny 0.5 mg/ mlAMP     3
CC0001124012749A202100000027865700000027865713/12/20211808    31903336240421964190000N2AA0100000301640000000000000                                                                            MORFINA Sln Iny 10 mg/mlAMP     1
CC0001124012749A202100000027865700000027865713/12/20211808    31903336240421964190000N02B1100001464120000000000000                                           PARACETAMOL EP 1000MG/100ML(10MG/ML) SOL INY  CAJ X 10FCOVAL     1
CC0001124012749A202100000027865700000027865713/12/20211808    31903336240421964190000N2BB1100000217160000000000000                                                                      NOVALGINA Sln Iny 2.5 g x 5 mlAMP     1
CC0001124012749A202100000027865700000027865713/12/20211808    31903336240421964190000H02AB500001664950000000000000                                                            DEXAMETASONA SLN INY 8 MG/2 ML AMP /CDS/AMP     1
CC0001124012749A202100000027865700000027865713/12/20211808    31903336240421964190000A4AD0200000202990000000000000                                                                     PLITICAN HCL Sln Iny 50 mg/2 mlAMP     1
CC0001124012749A202100000027865700000027865713/12/20211808    31903336240421964190000A3BA0100001109400000000000000                                                                          ATROPINA SLN INY 1 MG / MLAMP     1
CC0001124012749A202100000027865700000027865713/12/20211808    31903336240421964190000N01A0400003939010000000000000                                               MAYOPROFOL 200MG/20ML(1%) EMUL INY CAJ X 1VIAL X 20MLVAL     1
CC0001124012749A202100000027865700000027865713/12/20211808    31903336240421964190000M3AC0600000720540000000000000                                                                         ESMERON SLN INY 50 MG /5 MLVAL     1
CC0001124012749A202100000027865700000027865713/12/20211808    31903336240421964190000N2AA0700001587170000000000000                                                                                 ULTIVA Sln Iny 2 mgVAL     2
CC0001124012749A202100000027865700000027865713/12/20211808    31903336240421964190000N1AH0200003906560000000000000                                                                     FENTANIL Iny 0.05 mg/ml x 10 mlAMP     1
