CC0000072018971U202100916100121700916100121717/12/20210124    3150024623942196432000024674000001138340000000000000   JERINGA 3PARTES C/A 10ML REF JEHL005 CAJ X 100 ALFASAFE  21GX1 PULG 1/2 PULG BN EXENTO-DC.417/202PZA     2
CC0000072018971U202100916100121700916100121717/12/20210136    3150024623942196432000011082700001620070000000000000                                                               EQUIPO SET PRIMARIO C/CLAVE REF 14001BOL     1
CC0000072018971U202100916100121700916100121717/12/20210136    3150024623942196432000030936900001431840000000000000                                                                                              BURETABOL     1
