CC0000000800641H202100000556684600000556684608/12/20210039    31900933237421964250000A6AC0200001467010000000000000                                                             LACTULAX JARABE 66.7G/100ML SOX15ML /R/SOB     1
CC0000000800641H202100000556684600000556684608/12/20210039    31900933237421964250000C3CA0200000195520000000000000                                                                           LASIX SLN INY 20 MG/ 2 MLAMP     3
CC0000000800641H202100000556684600000556684608/12/20210039    31900933237421964250000H03A0900001278900000000000000                                                                                   EUTIROX TB 75 MCGTAB     2
CC0000000800641H202100000556684600000556684608/12/20210039    31900933237421964250000N03AX200001063780000000000000                                                                      KEPPRA SLN INY 500 MG/5 ML /R/VAL     2
CC0000000800641H202100000556684600000556684608/12/20210039    31900933237421964250000A11A2200001050880000000000000                                                                 GLUCERNA LIQUIDO 1.5 KCAL X 1000 MLFCO     1
