PA000021AC87773U202100050131966500050131966508/12/20211440    3190016523942196432000038568200000257000000000000000                                                                                   SONDA NELATON #06SIN     1
PA000021AC87773U202100050131966500050131966508/12/20211440    31900165239421964320000B05C0200001339660000000000000                                                                        SOLUCION SALINA 0.9% X 10 MLJRP     1
RC0001130297017U202100050131966500050131966508/12/20211440    31900165239421964320000Q0000200000473250000000000000                                                                             INHALOCAMARA PEDIATRICACIN     1
