CC0001143115935H202100000556685900000556685908/12/20211637    31500072237421964250000E1AD0200003888320000000000000                                                                              HARTMAN SLN INY 500 MLBOL     5
CC0001143115935H202100000556685900000556685908/12/20210146    31901360237421964250000E1AD0300000199490000000000000                                         LACTATO RINGER USP (HARTMANN)  SOL INY  BOL X 1000ML BAXTERBIN     2
CC0001143115935H202100000556685900000556685908/12/20211710     3300004237421964250000A12BA100000552980000000000000                                                            CLORURO POTASIO Sln Iny AMP 20 MEQ/10 MLAMP     1
CC0001143115935H202100000556685900000556685908/12/20211813     3300004237421964250000B02B0300000481440000000000000                                                                     OCTOSTIM SLN INY 15 MCG/ ML /R/AMP     2
CC0001143115935H202100000556685900000556685908/12/20210113     3300009237421964250000N03AX200001063780000000000000                                                                      KEPPRA SLN INY 500 MG/5 ML /R/VAL     2
CC0001143115935H202100000556685900000556685908/12/20210913     3300004237421964250000V6DB4300000326520000000000000                                                                               OSMOLITE HN x 1500 mlFCO     1
CC0001143115935H202100000556685900000556685908/12/20211710     3300004237421964250000H02AB700000585860000000000000                                                                HIDROCORTISONA SUCCI POL LIOF 100 MGVAL     1
CC0001143115935H202100000556685900000556685908/12/20210113     3300009237421964250000H02AB700000585860000000000000                                                                HIDROCORTISONA SUCCI POL LIOF 100 MGVAL     2
CC0001143115935H202100000556685900000556685908/12/20210914     3300004237421964250000A06A1700001333140000000000000                                                                                 BISACODILO TAB 5 MGTAB     1
CC0001143115935H202100000556685900000556685908/12/20210113     3300009237421964250000B01AB200000513350000000000000                                                                        CLENOX SLN INY 40 MG/ 0.4 MLJRP     1
CC0001143115935H202100000556685900000556685908/12/20211719     3300004237421964250000H03AA200001391520000000000000                                                                            LEVOTIROXINA TAB 100 MCGTAB     1
CC0001143115935H202100000556685900000556685908/12/20210913     3300004237421964250000H03AA200001391520000000000000                                                                            LEVOTIROXINA TAB 100 MCGTAB     1
CC0001143115935H202100000556685900000556685908/12/20211813     3300004237421964250000H03AA300001315510000000000000                                                                             LEVOTIROXINA TAB 25 MCGTAB     1
CC0001143115935H202100000556685900000556685908/12/20210914     3300004237421964250000J01CR300003913920000000000000                                                     AUROTAZ-P (4+0.5)GR POLV INY CAJ X 1VIAL X 50MLVAL     4
CC0001143115935H202100000556685900000556685908/12/20210914     3300004237421964250000A02BC700001684270000000000000                                                            OMEPRAZOL 40MG POLVO LIOFILIZADO AMPOLLAVAL     1
