RC0001048091972U202100050131970900050131970908/12/20212012    31500154239421964320000B05C0200001339660000000000000                                                                        SOLUCION SALINA 0.9% X 10 MLJRP     3
RC0001048091972U202100050131970900050131970908/12/20212012    3150015423942196432000024674000001138340000000000000   JERINGA 3PARTES C/A 10ML REF JEHL005 CAJ X 100 ALFASAFE  21GX1 PULG 1/2 PULG BN EXENTO-DC.417/202PZA     2
RC0001048091972U202100050131970900050131970908/12/20212012    31500154239421964320000Q0000200000473250000000000000                                                                             INHALOCAMARA PEDIATRICACIN     1
RC0001048091972U202100050131970900050131970908/12/20212012    31500154239421964320000E1AB0200000199290000000000000                                                            SOLUCION SALINA 0.9% SLN INY BO X 100 MLBIN     1
