TI0001139433905H202100015122549500015122549508/12/20211433    3190315723742196425000030161400001459220000000000000                                                                       MANGUERA SUCCION 6 MM*3.1 MTSSOB     1
TI0001103512693H202100015122549500015122549508/12/20211433    3190315723742196425000030161400001459220000000000000                                                                       MANGUERA SUCCION 6 MM*3.1 MTSSOB     1
RC0001063188076H202100015122549500015122549508/12/20211433    3190315723742196425000030161400001459220000000000000                                                                       MANGUERA SUCCION 6 MM*3.1 MTSSOB     1
RC0001044671776H202100015122549500015122549508/12/20211433    3190315723742196425000030161400001459220000000000000                                                                       MANGUERA SUCCION 6 MM*3.1 MTSSOB     1
RC0001046723141H202100015122549500015122549508/12/20211433    3190315723742196425000030161400001459220000000000000                                                                       MANGUERA SUCCION 6 MM*3.1 MTSSOB     1
RC0001102897681H202100015122549500015122549508/12/20211433    3190315723742196425000030161400001459220000000000000                                                                       MANGUERA SUCCION 6 MM*3.1 MTSSOB     1
RC0001063188441H202100015122549500015122549508/12/20211433    3190315723742196425000030161400001459220000000000000                                                                       MANGUERA SUCCION 6 MM*3.1 MTSSOB     1
RC0001043033404H202100015122549500015122549508/12/20211433    3190315723742196425000030161400001459220000000000000                                                                       MANGUERA SUCCION 6 MM*3.1 MTSSOB     1
RC0001043033404H202100015122549500015122549508/12/20211433    3190315723742196425000039173800001618480000000000000                                                                           TUBO ENDOTRAQUEAL S/B 3.5SOB     1
RC0001043033404H202100015122549500015122549508/12/20211433    3190315723742196425000039173700001618470000000000000                                                                           TUBO ENDOTRAQUEAL S/B 3.0SOB     1
RC0001043033404H202100015122549500015122549508/12/20211433    3190315723742196425000019619600000259850000000000000                                                                           SONDA TRACH CARE 6F 196-5SIN     1
RC0001043033404H202100015122549500015122549508/12/20211433    3190315723742196425000036441300000236540000000000000                                                                    JERINGA 1 ML GASES ARTERIAL 9023SIN     5
RC0001043033404H202100015122549500015122549508/12/20211433    3190315723742196425000011077300001096490000000000000                                                             CIRCUITO PED VENSTAR DOBLE 1 5m MP00338BOL     1
RC0001043033404H202100015122549500015122549508/12/20211433    3190315723742196425000020816000001096410000000000000                                                                          LINER PARED DELGADA 1500CCBOL     1
