RC0001046723141H202100000556692800000556692808/12/20211827     330000423742196425000011808300000218190000000000000                                                   DORMICUM IV 50MG/10ML(5MG/ML) SOL INY  CAJ X 5AMPAMP     2
RC0001046723141H202100000556692800000556692808/12/20210708    31902960237421964250000E1AA0600003888150000000000000                                                                 DEXTROSA 50% EN AGUA Sln Iny 500 mlBOL     1
RC0001046723141H202100000556692800000556692808/12/20211655    31903307237421964250000E1AB1100003888280000000000000                                                                        SOLUCION SALINA 0.9% X 50 mlBOL     1
RC0001046723141H202100000556692800000556692808/12/20211126    31903157237421964250000E1AB0200000199290000000000000                                                            SOLUCION SALINA 0.9% SLN INY BO X 100 MLBIN     3
RC0001046723141H202100000556692800000556692808/12/20211655    31903307237421964250000E1AB0700003888350000000000000                                                            SOLUCION SALINA 0.9% SLN INY BO X 250 MLBOL     2
RC0001046723141H202100000556692800000556692808/12/20210708    31902960237421964250000E1AD0200003888320000000000000                                                                              HARTMAN SLN INY 500 MLBOL     2
RC0001046723141H202100000556692800000556692808/12/20210629     3300009237421964250000J02A0200000191070000000000000                                                            CANCIDAS POLVO LIOF SLN INY AMP 50MG /R/VAL     1
RC0001046723141H202100000556692800000556692808/12/20211626     3300004237421964250000N03AG200001590870000000000000                                                            PROVALNOVA SLN INY 100MG/ML VIALX5ML /R/VAL     1
RC0001046723141H202100000556692800000556692808/12/20210629     3300009237421964250000N03AG200001590870000000000000                                                            PROVALNOVA SLN INY 100MG/ML VIALX5ML /R/VAL     1
RC0001046723141H202100000556692800000556692808/12/20211626     3300004237421964250000N03AX200001063780000000000000                                                                      KEPPRA SLN INY 500 MG/5 ML /R/VAL     1
RC0001046723141H202100000556692800000556692808/12/20210629     3300009237421964250000N03AX200001063780000000000000                                                                      KEPPRA SLN INY 500 MG/5 ML /R/VAL     1
RC0001046723141H202100000556692800000556692808/12/20211126    31903157237421964250000E1BA0100000198890000000000000                                                                   AGUA ESTERIL USP SLN INY X 500 MLBIN     1
RC0001046723141H202100000556692800000556692808/12/20211827     3300004237421964250000N1AH0200003906560000000000000                                                                     FENTANIL Iny 0.05 mg/ml x 10 mlAMP     4
RC0001046723141H202100000556692800000556692808/12/20210911     3300004237421964250000B02BA100000561560000000000000                                                                           VITAMINA K1 SLN INY 10 MGAMP     1
RC0001046723141H202100000556692800000556692808/12/20210911     3300004237421964250000J1KF0500001317760000000000000                                                                      MEROPENEM POLVO INY 500 MG /R/CAJ     1
RC0001046723141H202100000556692800000556692808/12/20210629     3300009237421964250000J1KF0500001317760000000000000                                                                      MEROPENEM POLVO INY 500 MG /R/CAJ     1
RC0001046723141H202100000556692800000556692808/12/20211811     3300004237421964250000N2BB0100001672010000000000000                                  DIPIRONA 1GR/2ML(0.5GR/ML) SOL INY INST CAJ X 100AMP X 2ML VITALISAMP     1
RC0001046723141H202100000556692800000556692808/12/20211053     3300004237421964250000N2BB0100001672010000000000000                                  DIPIRONA 1GR/2ML(0.5GR/ML) SOL INY INST CAJ X 100AMP X 2ML VITALISAMP     1
RC0001046723141H202100000556692800000556692808/12/20210629     3300009237421964250000N2BB0100001672010000000000000                                  DIPIRONA 1GR/2ML(0.5GR/ML) SOL INY INST CAJ X 100AMP X 2ML VITALISAMP     2
RC0001046723141H202100000556692800000556692808/12/20210629     3300009237421964250000A02BC700001684270000000000000                                                            OMEPRAZOL 40MG POLVO LIOFILIZADO AMPOLLAVAL     1
