CC0001125799256U202100000556712800000556712808/12/20212124     3300010239421964320000B1AB0200003939510000000000000                 ENOXAPARINA SODICA 40MG/0.4ML(100MG/ML) SOL INY INST CAJ X 2JERPREL X 0.4ML TECHDOWJRP     1
CC0001125799256U202100000556712800000556712808/12/20212207    31900925239421964320000E1AB0700003888350000000000000                                                            SOLUCION SALINA 0.9% SLN INY BO X 250 MLBOL     1
CC0001125799256U202100000556712800000556712808/12/20211822    31901005239421964320000E1AB0700003888350000000000000                                                            SOLUCION SALINA 0.9% SLN INY BO X 250 MLBOL     1
CC0001125799256U202100000556712800000556712808/12/20211822    31901005239421964320000E1AB0300003888390000000000000                                                            SOLUCION SALINA 0.9% SLN INY BO X 500 MLBOL     1
CC0001125799256U202100000556712800000556712808/12/20212124     3300010239421964320000J1CB1800001134180000000000000                                                                             TAZOCIN Polvo Iny 4.5 gVAL     2
CC0001125799256U202100000556712800000556712808/12/20212124     3300010239421964320000J01XA400001212420000000000000                                                               VANCOMICINA POLVO LIOF SLN INY 500 MGVAL     2
CC0001125799256U202100000556712800000556712808/12/20211747     3300010239421964320000J01XA400001212420000000000000                                                               VANCOMICINA POLVO LIOF SLN INY 500 MGVAL     2
CC0001125799256U202100000556712800000556712808/12/20211747     3300010239421964320000N2BB0200000513030000000000000                                                                           LISALGIL Sln Iny 2 g/5 mlAMP     1
CC0001125799256U202100000556712800000556712808/12/20212124     3300010239421964320000N2BE0100001276930000000000000                                                                                    DOLEX TAB 500 MGTAB     2
