TI0001043460575H202100000556709400000556709408/12/20211518    31902949237421964250000A2BC0900000200150000000000000                                                                               ORAZOLE Sln Iny 40 mgCIN     1
TI0001043460575H202100000556709400000556709408/12/20211518    31902949237421964250000A4AD0200000202990000000000000                                                                     PLITICAN HCL Sln Iny 50 mg/2 mlAMP     2
TI0001043460575H202100000556709400000556709408/12/20211518    31902949237421964250000A07F0300000547060000000000000                                                              ENTEROGERMINA SUSP ORAL AMP X 5 ML /R/VAL     2
TI0001043460575H202100000556709400000556709408/12/20211518    31902949237421964250000A12BA100000552980000000000000                                                            CLORURO POTASIO Sln Iny AMP 20 MEQ/10 MLAMP     2
TI0001043460575H202100000556709400000556709408/12/20211518    31902949237421964250000N02B1100001464120000000000000                                           PARACETAMOL EP 1000MG/100ML(10MG/ML) SOL INY  CAJ X 10FCOVAL     2
