PA00000HD888001A202100000027851900000027851908/12/20210930    31903336240421964190000H02AB500001664950000000000000                                                            DEXAMETASONA SLN INY 8 MG/2 ML AMP /CDS/AMP     1
PA00000HD888001A202100000027851900000027851908/12/20210930    3190333624042196419000038568200000257000000000000000                                                                                   SONDA NELATON #06SIN     1
PA00000HD888001A202100000027851900000027851908/12/20210930    3190333624042196419000012473200000232210000000000000                                                                 SUTURA ETHILON 3-0 SC-24 45CM  163TSIN     1
PA00000HD888001A202100000027851900000027851908/12/20210930    3190333624042196419000045138000001413890000000000000                                                                       LAPIZ ELECTROBISTURI  SOB X 1SOB     1
PA00000HD888001A202100000027851900000027851908/12/20210930    3190333624042196419000049419500001679890000000000000                                                                        VENDA ALGODON 3*5 NO ESTERILSOB     1
PA00000HD888001A202100000027851900000027851908/12/20210930    3190333624042196419000049428200000860740000000000000                                                                       VENDA ELASTICA 3*5 NO ESTERILBOL     1
PA00000HD888001A202100000027851900000027851908/12/20210930    3190333624042196419000040511500000258400000000000000                                                               APOSITO BACTIGRAS REF 7456  5CM X 5CMSIN     1
PA00000HD888001A202100000027851900000027851908/12/20210930    3190333624042196419000043879100001138200000000000000                                                                  HOJA BISTURI # 15 CSSB 15 01002003SOB     1
PA00000HD888001A202100000027851900000027851908/12/20210930    3190333624042196419000022425200000548240000000000000                       EXTENSION DE ANESTESIA REF 1139 SOB X 1 SHERLEG  ADULTO BN EXENTO-DC.417/2020SIN     1
PA00000HD888001A202100000027851900000027851908/12/20210930    3190333624042196419000035356500003919000000000000000                                                                                        LLAVE 3 VIASSOB     1
PA00000HD888001A202100000027851900000027851908/12/20210930    3190333624042196419000022426800001140510000000000000                                                                    EQUIPO MACROGOTEO BAXTER MRC0001SOB     1
PA00000HD888001A202100000027851900000027851908/12/20210930    3190333624042196419000011073300001096420000000000000                                                                BOLSA DE SUCCION DE FLUIDOS x 2500mLBOL     1
PA00000HD888001A202100000027851900000027851908/12/20210930    3190333624042196419000011082700001620070000000000000                                                               EQUIPO SET PRIMARIO C/CLAVE REF 14001BOL     1
PA00000HD888001A202100000027851900000027851908/12/20210930    3190333624042196419000053074400000607910000000000000                                                               GASA ESTERIL 10*10 SOBRE X 3 UNIDADESSOB     3
PA00000HD888001A202100000027851900000027851908/12/20210930    3190333624042196419000024673600000222980000000000000                                                                     JERINGA DESECHABLE 5 ml 27*11/2SIN     1
PA00000HD888001A202100000027851900000027851908/12/20210930    3190333624042196419000024674000001138340000000000000   JERINGA 3PARTES C/A 10ML REF JEHL005 CAJ X 100 ALFASAFE  21GX1 PULG 1/2 PULG BN EXENTO-DC.417/202PZA     1
PA00000HD888001A202100000027851900000027851908/12/20210930    3190333624042196419000024674500000322810000000000000                                                                   JERINGA DESECHABLE 20 ml 21*1 1/2SIN     1
PA00000HD888001A202100000027851900000027851908/12/20210930    3190333624042196419000011085300001082140000000000000                                                                           GUANTE QUIRURGICO TALLA 8SOB     1
PA00000HD888001A202100000027851900000027851908/12/20210930    3190333624042196419000011085200001585390000000000000                                                                       GUANTE QUIRURGICO TALLA 7 1/2SOB     2
PA00000HD888001A202100000027851900000027851908/12/20210930    3190333624042196419000011085100001082120000000000000                                                                           GUANTE QUIRURGICO TALLA 7SOB     1
PA00000HD888001A202100000027851900000027851908/12/20210930    3190333624042196419000043485100001618510000000000000                GUANTE QUIRURGICO DE LATEX REF 2D72N65X CAJ X 50 PROTEXIS  6.5 BN EXENTO-DC.417/2020SOB     1
PA00000HD888001A202100000027851900000027851908/12/20210930    3190333624042196419000038568100000258050000000000000                                                                         CANULA OXIGENO NASAL ADULTOSIN     1
PA00000HD888001A202100000027851900000027851908/12/20210930    3190333624042196419000000100800000223140000000000000                                                                       AGUJA DESECHABLE 23G X 1 PULGSIN     1
PA00000HD888001A202100000027851900000027851908/12/20210930    31903336240421964190000E1AB0500003888400000000000000                                                              SOLUCION SALINA 0.9% SLN INY X 1000 MLBOL     1
PA00000HD888001A202100000027851900000027851908/12/20210930    31903336240421964190000E1AB0300003888390000000000000                                                            SOLUCION SALINA 0.9% SLN INY BO X 500 MLBOL     2
PA00000HD888001A202100000027851900000027851908/12/20210930    31903336240421964190000A4AD0200000202990000000000000                                                                     PLITICAN HCL Sln Iny 50 mg/2 mlAMP     1
PA00000HD888001A202100000027851900000027851908/12/20210930    31903336240421964190000M1AX0200001569410000000000000                                                                         KETRON SLN INY 30 MG / 2 MLAMP     1
PA00000HD888001A202100000027851900000027851908/12/20210930    31903336240421964190000N01A0400003939010000000000000                                               MAYOPROFOL 200MG/20ML(1%) EMUL INY CAJ X 1VIAL X 20MLVAL     1
PA00000HD888001A202100000027851900000027851908/12/20210930    31903336240421964190000N01B1600003888910000000000000                                             BUPIROP SE S/P 50MG/10ML(5MG/ML) SOL INY CAJ X 24AMPACKAPC     1
PA00000HD888001A202100000027851900000027851908/12/20210930    31903336240421964190000N1BA2400001687720000000000000                                                    LIDOCAINA 2% SOL INY  CAJ X 50AMP X 10ML CORPAULAMP     2
PA00000HD888001A202100000027851900000027851908/12/20210930    31903336240421964190000N1AH0200003906560000000000000                                                                     FENTANIL Iny 0.05 mg/ml x 10 mlAMP     1
PA00000HD888001A202100000027851900000027851908/12/20210930    31903336240421964190000N5CD0300000218170000000000000                                                              DORMICUM IV-IM 5MG/5ML(1MG/ML) SOL INYAMP     1
