CC0001129564191H202100000556687000000556687008/12/20211708     330000423742196425000011808300000218190000000000000                                                   DORMICUM IV 50MG/10ML(5MG/ML) SOL INY  CAJ X 5AMPAMP     8
CC0001129564191H202100000556687000000556687008/12/20211707     330000423742196425000011808300000218190000000000000                                                   DORMICUM IV 50MG/10ML(5MG/ML) SOL INY  CAJ X 5AMPAMP     2
CC0001129564191H202100000556687000000556687008/12/20211814     3300004237421964250000B05AA100000179170000000000000                                                                   ALB?MINA HUMANA 20% SOL INY 50 MLCIN     2
CC0001129564191H202100000556687000000556687008/12/20210240     3300009237421964250000B1AB0100001227270000000000000                                             HEPAMAX 25000UI/5ML(5000UI/ML) SOL INY  CAJ X 25AMPX5MLAMP     3
CC0001129564191H202100000556687000000556687008/12/20212253    31901360237421964250000E1AB0200000199290000000000000                                                            SOLUCION SALINA 0.9% SLN INY BO X 100 MLBIN    10
CC0001129564191H202100000556687000000556687008/12/20211804    31500555237421964250000E1AB0200000199290000000000000                                                            SOLUCION SALINA 0.9% SLN INY BO X 100 MLBIN    20
CC0001129564191H202100000556687000000556687008/12/20211600    31500555237421964250000E1AB0500003888400000000000000                                                              SOLUCION SALINA 0.9% SLN INY X 1000 MLBOL     2
CC0001129564191H202100000556687000000556687008/12/20211713     3300004237421964250000C7AB1000001382030000000000000                                                                   NOREPINEFRINA SLN INY 4 MG / 4 MLAMP    10
CC0001129564191H202100000556687000000556687008/12/20210831     3300004237421964250000C7AB1000001382030000000000000                                                                   NOREPINEFRINA SLN INY 4 MG / 4 MLAMP     5
CC0001129564191H202100000556687000000556687008/12/20210831     3300004237421964250000J01XA400001212420000000000000                                                               VANCOMICINA POLVO LIOF SLN INY 500 MGVAL     4
CC0001129564191H202100000556687000000556687008/12/20211852     3300004237421964250000N01A0400003939010000000000000                                               MAYOPROFOL 200MG/20ML(1%) EMUL INY CAJ X 1VIAL X 20MLVAL     7
CC0001129564191H202100000556687000000556687008/12/20211851     3300004237421964250000N01A0400003939010000000000000                                               MAYOPROFOL 200MG/20ML(1%) EMUL INY CAJ X 1VIAL X 20MLVAL     1
CC0001129564191H202100000556687000000556687008/12/20210831     3300004237421964250000N01A0400003939010000000000000                                               MAYOPROFOL 200MG/20ML(1%) EMUL INY CAJ X 1VIAL X 20MLVAL     4
CC0001129564191H202100000556687000000556687008/12/20212355     3300004237421964250000N07X0300003913670000000000000                                    DEXMEDETOMIDINA 400MCG/100ML(4MCG/ML) SOL INY BOL X 100ML BAXTERBOL     6
CC0001129564191H202100000556687000000556687008/12/20210832     3300004237421964250000N07X0300003913670000000000000                                    DEXMEDETOMIDINA 400MCG/100ML(4MCG/ML) SOL INY BOL X 100ML BAXTERBOL     3
CC0001129564191H202100000556687000000556687008/12/20210240     3300009237421964250000N07X0300003913670000000000000                                    DEXMEDETOMIDINA 400MCG/100ML(4MCG/ML) SOL INY BOL X 100ML BAXTERBOL     5
CC0001129564191H202100000556687000000556687008/12/20210831     3300004237421964250000V6DF5300000302770000000000000                                                                        ENSURE PLUS HN LCP X 1000 MLFCO     1
CC0001129564191H202100000556687000000556687008/12/20211708     3300004237421964250000N1AH0200003906560000000000000                                                                     FENTANIL Iny 0.05 mg/ml x 10 mlAMP    12
CC0001129564191H202100000556687000000556687008/12/20211713     3300004237421964250000J01DH400001317770000000000000                                                                MEROPENEM POLVO LIOF SLN INY 1 G /R/CAJ     1
CC0001129564191H202100000556687000000556687008/12/20210830     3300004237421964250000J01DH400001317770000000000000                                                                MEROPENEM POLVO LIOF SLN INY 1 G /R/CAJ     3
CC0001129564191H202100000556687000000556687008/12/20210831     3300004237421964250000N05A1700001278300000000000000                                                                            QUETIAPINA TAB 25 MG /R/TAB     2
CC0001129564191H202100000556687000000556687008/12/20210831     3300004237421964250000A02BC700001684270000000000000                                                            OMEPRAZOL 40MG POLVO LIOFILIZADO AMPOLLAVAL     1
CC0001129564191H202100000556687000000556687008/12/20211804    31500555237421964250000V07A1300000502600000000000000                                                                                AGUA ESTERIL x 10 mlAMP     5
