CC0000013887621H202100015112745700015112745708/12/20210911    3150055523742196425000045136100001419300000000000000                                                                            LANCETA DEXTROMETER X UNPZA     4
CC0001129564191H202100015112745700015112745708/12/20210911    3150055523742196425000045136100001419300000000000000                                                                            LANCETA DEXTROMETER X UNPZA     4
CC0000007479382H202100015112745700015112745708/12/20210911    3150055523742196425000045136100001419300000000000000                                                                            LANCETA DEXTROMETER X UNPZA     4
CC0000022448180H202100015112745700015112745708/12/20210911    3150055523742196425000045136100001419300000000000000                                                                            LANCETA DEXTROMETER X UNPZA     3
CC0000013887621H202100015112745700015112745708/12/20210911    3150055523742196425000024674500000322810000000000000                                                                   JERINGA DESECHABLE 20 ml 21*1 1/2SIN     6
CC0001129564191H202100015112745700015112745708/12/20210911    3150055523742196425000024674500000322810000000000000                                                                   JERINGA DESECHABLE 20 ml 21*1 1/2SIN     6
CC0000007479382H202100015112745700015112745708/12/20210911    3150055523742196425000024674500000322810000000000000                                                                   JERINGA DESECHABLE 20 ml 21*1 1/2SIN     6
CC0000013887621H202100015112745700015112745708/12/20210911    3150055523742196425000024674000001138340000000000000   JERINGA 3PARTES C/A 10ML REF JEHL005 CAJ X 100 ALFASAFE  21GX1 PULG 1/2 PULG BN EXENTO-DC.417/202PZA    15
CC0001129564191H202100015112745700015112745708/12/20210911    3150055523742196425000024674000001138340000000000000   JERINGA 3PARTES C/A 10ML REF JEHL005 CAJ X 100 ALFASAFE  21GX1 PULG 1/2 PULG BN EXENTO-DC.417/202PZA    15
CC0000007479382H202100015112745700015112745708/12/20210911    3150055523742196425000024674000001138340000000000000   JERINGA 3PARTES C/A 10ML REF JEHL005 CAJ X 100 ALFASAFE  21GX1 PULG 1/2 PULG BN EXENTO-DC.417/202PZA    15
CC0000022448180H202100015112745700015112745708/12/20210911    3150055523742196425000024674000001138340000000000000   JERINGA 3PARTES C/A 10ML REF JEHL005 CAJ X 100 ALFASAFE  21GX1 PULG 1/2 PULG BN EXENTO-DC.417/202PZA     6
CC0000013887621H202100015112745700015112745708/12/20210911    3150055523742196425000021221000000226640000000000000                                                                                 CARTUCHO ACT 402-03PZA    10
CC0001129564191H202100015112745700015112745708/12/20210911    3150055523742196425000021221000000226640000000000000                                                                                 CARTUCHO ACT 402-03PZA    10
CC0000007479382H202100015112745700015112745708/12/20210911    3150055523742196425000021221000000226640000000000000                                                                                 CARTUCHO ACT 402-03PZA    10
CC0001129564191H202100015112745700015112745708/12/20210911    3150055523742196425000030936900001431840000000000000                                                                                              BURETABOL     1
CC0000013887621H202100015112745700015112745708/12/20210911    31500555237421964250000E1BA0100000198890000000000000                                                                   AGUA ESTERIL USP SLN INY X 500 MLBIN     5
CC0001129564191H202100015112745700015112745708/12/20210911    31500555237421964250000E1BA0100000198890000000000000                                                                   AGUA ESTERIL USP SLN INY X 500 MLBIN     5
CC0000007479382H202100015112745700015112745708/12/20210911    31500555237421964250000E1BA0100000198890000000000000                                                                   AGUA ESTERIL USP SLN INY X 500 MLBIN     5
CC0000022448180H202100015112745700015112745708/12/20210911    31500555237421964250000E1BA0100000198890000000000000                                                                   AGUA ESTERIL USP SLN INY X 500 MLBIN     5
CC0000007479382H202100015112745700015112745708/12/20210911    31500555237421964250000E1AD0300000199490000000000000                                         LACTATO RINGER USP (HARTMANN)  SOL INY  BOL X 1000ML BAXTERBIN     4
CC0000013887621H202100015112745700015112745708/12/20210911    31500555237421964250000E1AB0500003888400000000000000                                                              SOLUCION SALINA 0.9% SLN INY X 1000 MLBOL     2
CC0001129564191H202100015112745700015112745708/12/20210911    31500555237421964250000E1AB0500003888400000000000000                                                              SOLUCION SALINA 0.9% SLN INY X 1000 MLBOL     2
CC0000013887621H202100015112745700015112745708/12/20210911    31500555237421964250000E1AB0200000199290000000000000                                                            SOLUCION SALINA 0.9% SLN INY BO X 100 MLBIN    20
CC0001129564191H202100015112745700015112745708/12/20210911    31500555237421964250000E1AB0200000199290000000000000                                                            SOLUCION SALINA 0.9% SLN INY BO X 100 MLBIN    20
CC0000007479382H202100015112745700015112745708/12/20210911    31500555237421964250000E1AB0200000199290000000000000                                                            SOLUCION SALINA 0.9% SLN INY BO X 100 MLBIN    20
CC0000013887621H202100015112745700015112745708/12/20210911    3150055523742196425000011137100001419310000000000000                                                               TIRA GLUCOMETRIA FREESTYLE H OPTIUM .PZA     4
CC0001129564191H202100015112745700015112745708/12/20210911    3150055523742196425000011137100001419310000000000000                                                               TIRA GLUCOMETRIA FREESTYLE H OPTIUM .PZA     4
CC0000007479382H202100015112745700015112745708/12/20210911    3150055523742196425000011137100001419310000000000000                                                               TIRA GLUCOMETRIA FREESTYLE H OPTIUM .PZA     4
CC0000022448180H202100015112745700015112745708/12/20210911    3150055523742196425000011137100001419310000000000000                                                               TIRA GLUCOMETRIA FREESTYLE H OPTIUM .PZA     3
CC0000013887621H202100015112745700015112745708/12/20210911    3150055523742196425000011127400001413910000000000000                                                            EQUIPO ADMINIST NUTR PUNZON REF 674669 BBOL     1
CC0001129564191H202100015112745700015112745708/12/20210911    3150055523742196425000011127400001413910000000000000                                                            EQUIPO ADMINIST NUTR PUNZON REF 674669 BBOL     1
CC0000007479382H202100015112745700015112745708/12/20210911    3150055523742196425000011127400001413910000000000000                                                            EQUIPO ADMINIST NUTR PUNZON REF 674669 BBOL     1
