RC0001146543342H202100909398120800909398120808/12/20210848    3190329423742196425000024674000001138340000000000000   JERINGA 3PARTES C/A 10ML REF JEHL005 CAJ X 100 ALFASAFE  21GX1 PULG 1/2 PULG BN EXENTO-DC.417/202PZA     5
RC0001146543342H202100909398120800909398120808/12/20210848    31903294237421964250000E1AC0100000199400000000000000                                                                          SUERO MIXTO Sln Iny 500 mlBIN     2
RC0001146543342H202100909398120800909398120808/12/20210848    31903294237421964250000V07A1300000502600000000000000                                                                                AGUA ESTERIL x 10 mlAMP     5
RC0001146543342H202100909398120800909398120808/12/20211600    3150010723742196425000024674000001138340000000000000   JERINGA 3PARTES C/A 10ML REF JEHL005 CAJ X 100 ALFASAFE  21GX1 PULG 1/2 PULG BN EXENTO-DC.417/202PZA     5
RC0001146543342H202100909398120800909398120808/12/20211600    31500107237421964250000V07A1300000502600000000000000                                                                                AGUA ESTERIL x 10 mlAMP     5
RC0001146543342H202100909398120800909398120808/12/20211600    31500107237421964250000E1AC0100000199400000000000000                                                                          SUERO MIXTO Sln Iny 500 mlBIN     2
