RC0001048091296U202100050131965900050131965908/12/20211355    3150065723942196432000011048600000223020000000000000                                                                 JERINGA VACUNACION 3ML C/AGU 302542SIN     2
RC0001048091296U202100050131965900050131965908/12/20211355    3150065723942196432000011089300001083990000000000000                                                              GUANTE ESTERIL LATEX S/POLVO TALLA 7.5SOB     1
TI0001140879783U202100050131965900050131965908/12/20211355    3150065723942196432000013077800000471960000000000000                                                             GASA NO TEJIDA EST 7.5 X 7.5 SOB X 3 UNSOB     3
RC0001048091296U202100050131965900050131965908/12/20211355    31500657239421964320000E1AB0200000199290000000000000                                                            SOLUCION SALINA 0.9% SLN INY BO X 100 MLBIN     1
