CC0001129498209U202100000556691400000556691408/12/20212057     3300010239421964320000A03F0300001626860000000000000                                                                   METOCLOPRAMIDA SLN INY 10 MG/2 MLAMP     1
CC0001129498209U202100000556691400000556691408/12/20211234     3300010239421964320000A03F0300001626860000000000000                                                                   METOCLOPRAMIDA SLN INY 10 MG/2 MLAMP     1
CC0001129498209U202100000556691400000556691408/12/20210508     3300004239421964320000A03F0300001626860000000000000                                                                   METOCLOPRAMIDA SLN INY 10 MG/2 MLAMP     1
CC0001129498209U202100000556691400000556691408/12/20210923     3300010239421964320000B1AB0100001227270000000000000                                             HEPAMAX 25000UI/5ML(5000UI/ML) SOL INY  CAJ X 25AMPX5MLAMP     1
CC0001129498209U202100000556691400000556691408/12/20210512    31500643239421964320000E1AB0500003888400000000000000                                                              SOLUCION SALINA 0.9% SLN INY X 1000 MLBOL     1
CC0001129498209U202100000556691400000556691408/12/20211903    31500617239421964320000E1AD0200003888320000000000000                                                                              HARTMAN SLN INY 500 MLBOL     1
CC0001129498209U202100000556691400000556691408/12/20211302    31500617239421964320000E1AD0200003888320000000000000                                                                              HARTMAN SLN INY 500 MLBOL     1
CC0001129498209U202100000556691400000556691408/12/20211130    31500617239421964320000E1AD0300000199490000000000000                                         LACTATO RINGER USP (HARTMANN)  SOL INY  BOL X 1000ML BAXTERBIN     1
CC0001129498209U202100000556691400000556691408/12/20210923     3300010239421964320000A12BA100000552980000000000000                                                            CLORURO POTASIO Sln Iny AMP 20 MEQ/10 MLAMP     2
CC0001129498209U202100000556691400000556691408/12/20210726     3300004239421964320000C01DA100000176460000000000000                                                            NITROGLICERINA EN DEXTROSA VIAL X 250 MLFCO     1
CC0001129498209U202100000556691400000556691408/12/20212233     3300010239421964320000C09CA400001277130000000000000                                                                                  LOSARTAN TAB 50 MGTAB     1
CC0001129498209U202100000556691400000556691408/12/20210923     3300010239421964320000C09CA400001277130000000000000                                                                                  LOSARTAN TAB 50 MGTAB     1
CC0001129498209U202100000556691400000556691408/12/20210508     3300004239421964320000N2AA0200000301600000000000000                                                                        HIDROMORFONA Sln Iny 2 mg/mlAMP     1
CC0001129498209U202100000556691400000556691408/12/20211540     3300010239421964320000C02AC200001559150000000000000                                                                              CLONIDINA TAB 0.150 MGTAB     1
CC0001129498209U202100000556691400000556691408/12/20210923     3300010239421964320000C02AC200001559150000000000000                                                                              CLONIDINA TAB 0.150 MGTAB     1
CC0001129498209U202100000556691400000556691408/12/20212057     3300010239421964320000C02C0100001316210000000000000                                                                                     PRATEN TAB 1 MGTAB     2
CC0001129498209U202100000556691400000556691408/12/20210923     3300010239421964320000C08CA300001313930000000000000                                                                                AMLODIPINO TAB 10 MGTAB     1
CC0001129498209U202100000556691400000556691408/12/20210508     3300004239421964320000A02BC700001684270000000000000                                                            OMEPRAZOL 40MG POLVO LIOFILIZADO AMPOLLAVAL     1
