CC0000013887621H202100000556686900000556686908/12/20211709     330000423742196425000011808300000218190000000000000                                                   DORMICUM IV 50MG/10ML(5MG/ML) SOL INY  CAJ X 5AMPAMP     1
CC0000013887621H202100000556686900000556686908/12/20211704     330000423742196425000011808300000218190000000000000                                                   DORMICUM IV 50MG/10ML(5MG/ML) SOL INY  CAJ X 5AMPAMP     5
CC0000013887621H202100000556686900000556686908/12/20211703     330000423742196425000011808300000218190000000000000                                                   DORMICUM IV 50MG/10ML(5MG/ML) SOL INY  CAJ X 5AMPAMP    14
CC0000013887621H202100000556686900000556686908/12/20210840     3300004237421964250000A2BC0900000200150000000000000                                                                               ORAZOLE Sln Iny 40 mgCIN     1
CC0000013887621H202100000556686900000556686908/12/20210832     3300004237421964250000A11DA300001278410000000000000                                                                                  TIAMINA TAB 300 MGTAB     1
CC0000013887621H202100000556686900000556686908/12/20211712     3300004237421964250000A11GA400001337200000000000000                                                                               VITAMINA C Tab 500 mgTAB     2
CC0000013887621H202100000556686900000556686908/12/20210833     3300004237421964250000A11GA400001337200000000000000                                                                               VITAMINA C Tab 500 mgTAB     7
CC0000013887621H202100000556686900000556686908/12/20210832     3300004237421964250000A11GA400001337200000000000000                                                                               VITAMINA C Tab 500 mgTAB     1
CC0000013887621H202100000556686900000556686908/12/20210834     3300004237421964250000B1AB0100001227270000000000000                                             HEPAMAX 25000UI/5ML(5000UI/ML) SOL INY  CAJ X 25AMPX5MLAMP     8
CC0000013887621H202100000556686900000556686908/12/20212253    31901360237421964250000E1AB0200000199290000000000000                                                            SOLUCION SALINA 0.9% SLN INY BO X 100 MLBIN    10
CC0000013887621H202100000556686900000556686908/12/20211559    31500555237421964250000E1AB0200000199290000000000000                                                            SOLUCION SALINA 0.9% SLN INY BO X 100 MLBIN    20
CC0000013887621H202100000556686900000556686908/12/20211559    31500555237421964250000E1AB0500003888400000000000000                                                              SOLUCION SALINA 0.9% SLN INY X 1000 MLBOL     2
CC0000013887621H202100000556686900000556686908/12/20210834     3300004237421964250000C7AB1000001382030000000000000                                                                   NOREPINEFRINA SLN INY 4 MG / 4 MLAMP    10
CC0000013887621H202100000556686900000556686908/12/20210833     3300004237421964250000C7AB1000001382030000000000000                                                                   NOREPINEFRINA SLN INY 4 MG / 4 MLAMP     2
CC0000013887621H202100000556686900000556686908/12/20210832     3300004237421964250000J01D1300001469600000000000000                                                                               POZINEG POLVO INY 1 GVAL     6
CC0000013887621H202100000556686900000556686908/12/20210840     3300004237421964250000J02A0500000467570000000000000                                                                      DIFLUCAN SLN INY 200 MG/100 MLFCO     2
CC0000013887621H202100000556686900000556686908/12/20210239     3300009237421964250000J02A0500000467570000000000000                                                                      DIFLUCAN SLN INY 200 MG/100 MLFCO     1
CC0000013887621H202100000556686900000556686908/12/20210840     3300004237421964250000N07X0300003913670000000000000                                    DEXMEDETOMIDINA 400MCG/100ML(4MCG/ML) SOL INY BOL X 100ML BAXTERBOL     7
CC0000013887621H202100000556686900000556686908/12/20212150     3300004237421964250000N5AD0500000217620000000000000                                                                         HALOPIDOL Sln Iny 5 mg/1 mlAMP     4
CC0000013887621H202100000556686900000556686908/12/20210832     3300004237421964250000N5AD0500000217620000000000000                                                                         HALOPIDOL Sln Iny 5 mg/1 mlAMP     2
CC0000013887621H202100000556686900000556686908/12/20211712     3300004237421964250000N05A0500001336370000000000000                                                                              SEROQUEL TAB 25 MG /R/TAB     1
CC0000013887621H202100000556686900000556686908/12/20210834     3300004237421964250000N05A0500001336370000000000000                                                                              SEROQUEL TAB 25 MG /R/TAB     3
CC0000013887621H202100000556686900000556686908/12/20210840     3300004237421964250000A11A2200001050880000000000000                                                                 GLUCERNA LIQUIDO 1.5 KCAL X 1000 MLFCO     2
CC0000013887621H202100000556686900000556686908/12/20211709     3300004237421964250000N1AH0200003906560000000000000                                                                     FENTANIL Iny 0.05 mg/ml x 10 mlAMP    20
CC0000013887621H202100000556686900000556686908/12/20211803    31500555237421964250000V07A1300000502600000000000000                                                                                AGUA ESTERIL x 10 mlAMP     5
