PA00000HD888001H202100000556703700000556703708/12/20211200    31902138237421964250000H02AB500001664950000000000000                                                            DEXAMETASONA SLN INY 8 MG/2 ML AMP /CDS/AMP     1
PA00000HD888001H202100000556703700000556703708/12/20211200    31902138237421964250000J01FF200003888100000000000000                                                                             EUROCLIN SLN INY 600 MGAMP     3
PA00000HD888001H202100000556703700000556703708/12/20211200    31902138237421964250000J3CB2100000547740000000000000                                                                      CIPRO IV SLN INY 400 Mg/200 MLFCO     2
PA00000HD888001H202100000556703700000556703708/12/20211200    31902138237421964250000M1AB0900001019600000000000000                                                                              VOLTAREN Sln Iny 75 mgAMP     2
PA00000HD888001H202100000556703700000556703708/12/20211200    31902138237421964250000N02B1100001464120000000000000                                           PARACETAMOL EP 1000MG/100ML(10MG/ML) SOL INY  CAJ X 10FCOVAL     3
