PA0000YB8610818U202100050131968700050131968708/12/20211717    3190319023942196432000045136100001419300000000000000                                                                            LANCETA DEXTROMETER X UNPZA     1
PA0000YB8610818U202100050131968700050131968708/12/20211717    3190319023942196432000011048600000223020000000000000                                                                 JERINGA VACUNACION 3ML C/AGU 302542SIN     1
PA0000YB8610818U202100050131968700050131968708/12/20211717    3190319023942196432000042743200003929860000000000000                   GASA ADHESIVA STRETCH REF 02038-00 ROL X 10MT FIXOMULL 15CM BN EXENTO-DC.417/2020CMT    20
PA0000YB8610818U202100050131968700050131968708/12/20211717    3190319023942196432000011082700001620070000000000000                                                               EQUIPO SET PRIMARIO C/CLAVE REF 14001BOL     1
PA0000YB8610818U202100050131968700050131968708/12/20211717    3190319023942196432000001956000001620610000000000000                                                                      CONECTOR MICRO CLAVE LAT-MC100SOB     1
PA0000YB8610818U202100050131968700050131968708/12/20211717    31903190239421964320000Q1AA7400003911720000000000000                                                            CATETER PERIFE INTROCAN # 24G 4251601-04SOB     1
PA0000YB8610818U202100050131968700050131968708/12/20211717    3190319023942196432000030936900001431840000000000000                                                                                              BURETABOL     1
PA0000YB8610818U202100050131968700050131968708/12/20211717    31903190239421964320000E1AD0200003888320000000000000                                                                              HARTMAN SLN INY 500 MLBOL     1
PA0000YB8610818U202100050131968700050131968708/12/20211717    3190319023942196432000011137100001419310000000000000                                                               TIRA GLUCOMETRIA FREESTYLE H OPTIUM .PZA     1
