TI0001043672493U202100050131971800050131971808/12/20212111    3150035423942196432000024674000001138340000000000000   JERINGA 3PARTES C/A 10ML REF JEHL005 CAJ X 100 ALFASAFE  21GX1 PULG 1/2 PULG BN EXENTO-DC.417/202PZA     1
CC0001140820966U202100050131971800050131971808/12/20212111    3150035423942196432000024674000001138340000000000000   JERINGA 3PARTES C/A 10ML REF JEHL005 CAJ X 100 ALFASAFE  21GX1 PULG 1/2 PULG BN EXENTO-DC.417/202PZA     1
TI0001043672493U202100050131971800050131971808/12/20212111    3150035423942196432000024673600000222980000000000000                                                                     JERINGA DESECHABLE 5 ml 27*11/2SIN     1
RC0001048085790U202100050131971800050131971808/12/20212111    3150035423942196432000012460100001656630000000000000                                                                ESPECULO OTOSCOPIO REF 52432  2.75MMPZA     1
TI0001043672493U202100050131971800050131971808/12/20212111    3150035423942196432000012460100001656630000000000000                                                                ESPECULO OTOSCOPIO REF 52432  2.75MMPZA     1
