CC0000080424776H202100015012629300015012629308/12/20211008    3190294923742196425000023486400001318040000000000000                                                               GUANTE CIRUGIA NITRILO ALFASAFE 6 1/2SOB     2
CC0000080424776H202100015012629300015012629308/12/20211008    3190294923742196425000013077800000471960000000000000                                                             GASA NO TEJIDA EST 7.5 X 7.5 SOB X 3 UNSOB    10
CC0000080424776H202100015012629300015012629308/12/20211008    3190294923742196425000042743200003929860000000000000                   GASA ADHESIVA STRETCH REF 02038-00 ROL X 10MT FIXOMULL 15CM BN EXENTO-DC.417/2020CMT    50
