TI0001052072484H202100015122549600015122549608/12/20211901    3150045323742196425000011060400001010330000000000000                                                            SENSOR PULSOX SPO2 LNCS NEONATAL MP00792PZA     1
TI0001052072484H202100015122549600015122549608/12/20211901    3150045323742196425000024674000001138340000000000000   JERINGA 3PARTES C/A 10ML REF JEHL005 CAJ X 100 ALFASAFE  21GX1 PULG 1/2 PULG BN EXENTO-DC.417/202PZA    10
TI0001052072484H202100015122549600015122549608/12/20211901    3150045323742196425000011082700001620070000000000000                                                               EQUIPO SET PRIMARIO C/CLAVE REF 14001BOL     1
RC0001046723141H202100015122549600015122549608/12/20211901    3150045323742196425000011082700001620070000000000000                                                               EQUIPO SET PRIMARIO C/CLAVE REF 14001BOL     1
TI0001052072484H202100015122549600015122549608/12/20211901    3150045323742196425000030936900001431840000000000000                                                                                              BURETABOL     1
RC0001046723141H202100015122549600015122549608/12/20211901    3150045323742196425000030936900001431840000000000000                                                                                              BURETABOL     1
TI0001052072484H202100015122549600015122549608/12/20211901    31500453237421964250000E1AD0300000199490000000000000                                         LACTATO RINGER USP (HARTMANN)  SOL INY  BOL X 1000ML BAXTERBIN     6
