TI0001043460575H202100000556688200000556688208/12/20210228     3300009237421964250000A2BC0900000200150000000000000                                                                               ORAZOLE Sln Iny 40 mgCIN     2
TI0001043460575H202100000556688200000556688208/12/20211307     3300004237421964250000A4AD0200000202990000000000000                                                                     PLITICAN HCL Sln Iny 50 mg/2 mlAMP     1
TI0001043460575H202100000556688200000556688208/12/20210916     3300004237421964250000A4AD0200000202990000000000000                                                                     PLITICAN HCL Sln Iny 50 mg/2 mlAMP     1
TI0001043460575H202100000556688200000556688208/12/20210228     3300009237421964250000A4AD0200000202990000000000000                                                                     PLITICAN HCL Sln Iny 50 mg/2 mlAMP     2
TI0001043460575H202100000556688200000556688208/12/20211308     3300004237421964250000A07F0300000547060000000000000                                                              ENTEROGERMINA SUSP ORAL AMP X 5 ML /R/VAL     3
TI0001043460575H202100000556688200000556688208/12/20211520    31902949237421964250000E1AC0100000199400000000000000                                                                          SUERO MIXTO Sln Iny 500 mlBIN     2
TI0001043460575H202100000556688200000556688208/12/20210955    31903331237421964250000E1AA0100003888590000000000000                                                                        DEXTROSA 5% Sln Iny X 500 mlBOL     3
TI0001043460575H202100000556688200000556688208/12/20211308     3300004237421964250000A12BA100000552980000000000000                                                            CLORURO POTASIO Sln Iny AMP 20 MEQ/10 MLAMP     1
TI0001043460575H202100000556688200000556688208/12/20210917     3300004237421964250000A12BA100000552980000000000000                                                            CLORURO POTASIO Sln Iny AMP 20 MEQ/10 MLAMP     1
TI0001043460575H202100000556688200000556688208/12/20210228     3300009237421964250000A12BA100000552980000000000000                                                            CLORURO POTASIO Sln Iny AMP 20 MEQ/10 MLAMP     2
TI0001043460575H202100000556688200000556688208/12/20210917     3300004237421964250000N02B1100001464120000000000000                                           PARACETAMOL EP 1000MG/100ML(10MG/ML) SOL INY  CAJ X 10FCOVAL     2
TI0001043460575H202100000556688200000556688208/12/20210228     3300009237421964250000N02B1100001464120000000000000                                           PARACETAMOL EP 1000MG/100ML(10MG/ML) SOL INY  CAJ X 10FCOVAL     1
TI0001043460575H202100000556688200000556688208/12/20211020    31903331237421964250000V07A1300000502600000000000000                                                                                AGUA ESTERIL x 10 mlAMP     5
