CC0000022467890H202100000556687900000556687908/12/20210222    31902978237421964250000J01XA400001212420000000000000                                                               VANCOMICINA POLVO LIOF SLN INY 500 MGVAL     6
CC0000022467890H202100000556687900000556687908/12/20210223    31902978237421964250000N02B1100001464120000000000000                                           PARACETAMOL EP 1000MG/100ML(10MG/ML) SOL INY  CAJ X 10FCOVAL     2
CC0000022467890H202100000556687900000556687908/12/20210222    31902978237421964250000V06D1400000968430000000000000                                                                              JEVITY iquido x 500 mlFCO     2
CC0000022467890H202100000556687900000556687908/12/20210222    31902978237421964250000A09A0500001221080000000000000                                                                            GLUTAPAK 10 Polvo x 15 gSOB     1
CC0000022467890H202100000556687900000556687908/12/20210222    31902978237421964250000B01AB300000513340000000000000                                                                        CLENOX SLN INY 20 MG/ 0.2 MLJRP     1
CC0000022467890H202100000556687900000556687908/12/20210222    31902978237421964250000J1KF0500001317760000000000000                                                                      MEROPENEM POLVO INY 500 MG /R/CAJ     4
CC0000022467890H202100000556687900000556687908/12/20210222    31902978237421964250000A02BC700001684270000000000000                                                            OMEPRAZOL 40MG POLVO LIOFILIZADO AMPOLLAVAL     1
