CC0000041782192H202100000556708300000556708308/12/20211433    31903294237421964250000A10A1900000601020000000000000                                                                   APIDRA CARTU 100 UI/ML X 3 ML /R/CAR     1
CC0000041782192H202100000556708300000556708308/12/20211431    31903294237421964250000N2BE2200001252930000000000000                                                                             ACETAMINOFEN Tab 500 MGTAB     8
CC0000041782192H202100000556708300000556708308/12/20211431    31903294237421964250000N2BB0100001672010000000000000                                  DIPIRONA 1GR/2ML(0.5GR/ML) SOL INY INST CAJ X 100AMP X 2ML VITALISAMP     5
