PA00000AS606150H202100000556690500000556690508/12/20210903     3300004237421964250000A2BC0900000200150000000000000                                                                               ORAZOLE Sln Iny 40 mgCIN     1
PA00000AS606150H202100000556690500000556690508/12/20210903     3300004237421964250000A4AD0200000202990000000000000                                                                     PLITICAN HCL Sln Iny 50 mg/2 mlAMP     1
PA00000AS606150H202100000556690500000556690508/12/20210902     3300004237421964250000A4AD0200000202990000000000000                                                                     PLITICAN HCL Sln Iny 50 mg/2 mlAMP     1
PA00000AS606150H202100000556690500000556690508/12/20210422    31902978237421964250000E1AB0500003888400000000000000                                                              SOLUCION SALINA 0.9% SLN INY X 1000 MLBOL     2
PA00000AS606150H202100000556690500000556690508/12/20210902     3300004237421964250000A3BB0300000512950000000000000                                                             BUSCAPINA COMP Sln Iny 20 mg+2.5 g/5 mlAMP     2
PA00000AS606150H202100000556690500000556690508/12/20210902     3300004237421964250000M1AX0200001569410000000000000                                                                         KETRON SLN INY 30 MG / 2 MLAMP     1
