TI0001014858027U202100050131961500050131961508/12/20210347    3190217123942196432000024674000001138340000000000000   JERINGA 3PARTES C/A 10ML REF JEHL005 CAJ X 100 ALFASAFE  21GX1 PULG 1/2 PULG BN EXENTO-DC.417/202PZA     1
TI0001014858027U202100050131961500050131961508/12/20210347    3190217123942196432000011082700001620070000000000000                                                               EQUIPO SET PRIMARIO C/CLAVE REF 14001BOL     1
TI0001014858027U202100050131961500050131961508/12/20210347    31902171239421964320000Q1AA7300000610640000000000000                                                            CATETER PERIFE INTROCAN # 22G 4251628-04SIN     1
TI0001014858027U202100050131961500050131961508/12/20210347    3190217123942196432000030936900001431840000000000000                                                                                              BURETABOL     1
TI0001014858027U202100050131961500050131961508/12/20210347    3190217123942196432000016830000000970620000000000000                                                             SIST FIJACION CAT PERIFERICO 6.5X7 1683SOB     1
TI0001014858027U202100050131961500050131961508/12/20210347    31902171239421964320000E1AD0200003888320000000000000                                                                              HARTMAN SLN INY 500 MLBOL     1
