RC0001043033404A202100000027851200000027851208/12/20211051    3190333624042196419000010252100001646270000000000000                                                                         AMBU PEDIATRICO RESUCITADORBOL     1
RC0001043033404A202100000027851200000027851208/12/20211051    31903336240421964190000M03A0900001467590000000000000                                                                        ROCURONIO SLN INY 50 MG/5 MLVAL     1
RC0001043033404A202100000027851200000027851208/12/20211051    31903336240421964190000M03AB100001371510000000000000                                                            ADECUAC SUCCINILCOLINA  100mg/mL SOL INYVAL     1
RC0001043033404A202100000027851200000027851208/12/20211051    3190333624042196419000030161400001459220000000000000                                                                       MANGUERA SUCCION 6 MM*3.1 MTSSOB     1
RC0001043033404A202100000027851200000027851208/12/20211051    31903336240421964190000N01A0400003939010000000000000                                               MAYOPROFOL 200MG/20ML(1%) EMUL INY CAJ X 1VIAL X 20MLVAL     1
RC0001043033404A202100000027851200000027851208/12/20211051    3190333624042196419000011073300001096420000000000000                                                                BOLSA DE SUCCION DE FLUIDOS x 2500mLBOL     1
RC0001043033404A202100000027851200000027851208/12/20211051    3190333624042196419000011085200001585390000000000000                                                                       GUANTE QUIRURGICO TALLA 7 1/2SOB     1
RC0001043033404A202100000027851200000027851208/12/20211051    3190333624042196419000011085100001082120000000000000                                                                           GUANTE QUIRURGICO TALLA 7SOB     2
RC0001043033404A202100000027851200000027851208/12/20211051    3190333624042196419000043485100001618510000000000000                GUANTE QUIRURGICO DE LATEX REF 2D72N65X CAJ X 50 PROTEXIS  6.5 BN EXENTO-DC.417/2020SOB     2
RC0001043033404A202100000027851200000027851208/12/20211051    3190333624042196419000039175300001077530000000000000                                                                           TUBO ENDOTRAQUEAL C/B 4.0SOB     1
RC0001043033404A202100000027851200000027851208/12/20211051    3190333624042196419000000400100000258110000000000000                                                              TUBO ENDOTRAQUEAL 3.5 Fr C/BALON 86443SOB     2
RC0001043033404A202100000027851200000027851208/12/20211051    3190333624042196419000051515300000598140000000000000                                                                            MASCARILLA ANESTESIA # 3SIN     1
RC0001043033404A202100000027851200000027851208/12/20211051    3190333624042196419000011099300000777780000000000000                                                                     FILTRO BACTERIANO VIRICO ADULTOBOL     1
RC0001043033404A202100000027851200000027851208/12/20211051    3190333624042196419000011047900000223010000000000000                                                                            JERINGA X 1ML REF 302579SIN     1
RC0001043033404A202100000027851200000027851208/12/20211051    3190333624042196419000024673000001411210000000000000                                                                  JERINGA DESECHABLE 3 ML 21 X 1 1/2SOB     1
RC0001043033404A202100000027851200000027851208/12/20211051    31903336240421964190000E1AB0300003888390000000000000                                                            SOLUCION SALINA 0.9% SLN INY BO X 500 MLBOL     1
RC0001043033404A202100000027851200000027851208/12/20211051    31903336240421964190000E1AB0700003888350000000000000                                                            SOLUCION SALINA 0.9% SLN INY BO X 250 MLBOL     1
RC0001043033404A202100000027851200000027851208/12/20211051    31903336240421964190000E1AB0200000199290000000000000                                                            SOLUCION SALINA 0.9% SLN INY BO X 100 MLBIN     1
RC0001043033404A202100000027851200000027851208/12/20211051    31903336240421964190000N01B0200003888110000000000000                                           ROXICAINA SE 100MG/10ML(1%) SOL INY CAJ X 24AMPACK X 10MLAPC     1
RC0001043033404A202100000027851200000027851208/12/20211051    31903336240421964190000H02A0100001664960000000000000                                                                        DEXAMETASONA SLN INY 4 MG/MLAMP     1
RC0001043033404A202100000027851200000027851208/12/20211051    31903336240421964190000B02AA100001407470000000000000                                                                    CLINTRANEX SLN INY 500 MG / 5 MLAMP     1
RC0001043033404A202100000027851200000027851208/12/20211051    3190333624042196419000035356500003919000000000000000                                                                                        LLAVE 3 VIASSOB     1
