CC0000072164260H202100000556706500000556706508/12/20211257    31903308237421964250000N2BB0200000513030000000000000                                                                           LISALGIL Sln Iny 2 g/5 mlAMP     4
CC0000072164260H202100000556706500000556706508/12/20211257    31903308237421964250000N02B1100001464120000000000000                                           PARACETAMOL EP 1000MG/100ML(10MG/ML) SOL INY  CAJ X 10FCOVAL     4
CC0000072164260H202100000556706500000556706508/12/20211257    31903308237421964250000A02B0800001276960000000000000                                                                                 OMEPRAZOL CAP 20 MGCAP     1
CC0000072164260H202100000556706500000556706508/12/20211257    31903308237421964250000N2AX0900001672040000000000000                                                                              TRAMADOL SLN INY 50 MGAMP     3
