CC0001066890191H202100000556706700000556706708/12/20211328    3190294023742196425000011808300000218190000000000000                                                   DORMICUM IV 50MG/10ML(5MG/ML) SOL INY  CAJ X 5AMPAMP     2
CC0001066890191H202100000556706700000556706708/12/20211259    31903059237421964250000A03F0300001626860000000000000                                                                   METOCLOPRAMIDA SLN INY 10 MG/2 MLAMP     6
CC0001066890191H202100000556706700000556706708/12/20211259    31903059237421964250000V3AB2200000614150000000000000                                                            GLUCONATO CALCIO SLN INY 10% AMP X 10 MLAPC     4
CC0001066890191H202100000556706700000556706708/12/20211259    31903059237421964250000N07X0300003913670000000000000                                    DEXMEDETOMIDINA 400MCG/100ML(4MCG/ML) SOL INY BOL X 100ML BAXTERBOL     9
CC0001066890191H202100000556706700000556706708/12/20211259    31903059237421964250000C03C0100001672000000000000000                                                                       FUROSEMIDA SLN INY 20 MG/2 MLAMP     3
