RC0001102895413H202100000556699400000556699408/12/20211349    31903303237421964250000E1AB0200000199290000000000000                                                            SOLUCION SALINA 0.9% SLN INY BO X 100 MLBIN     1
RC0001102895413H202100000556699400000556699408/12/20211035     3300004237421964250000N3AF0100001075830000000000000                                                            CARBAMAZEPINA SUSP 100MG/5ML X 100ML /R/FCO     1
RC0001102895413H202100000556699400000556699408/12/20211349    31903303237421964250000V07A1300000502600000000000000                                                                                AGUA ESTERIL x 10 mlAMP     5
