CC0000039088478H202100015052810200015052810208/12/20210924    3190318423742196425000045136100001419300000000000000                                                                            LANCETA DEXTROMETER X UNPZA     5
CC0001045685077H202100015052810200015052810208/12/20210924    3190318423742196425000001956000001620610000000000000                                                                      CONECTOR MICRO CLAVE LAT-MC100SOB     1
CC0001045685077H202100015052810200015052810208/12/20210924    31903184237421964250000Q1AA7200000610630000000000000                                                            CATETER PERIFE INTROCAN # 20G 4251644-04SIN     1
CC0001045685077H202100015052810200015052810208/12/20210924    31903184237421964250000Q1AA7300000610640000000000000                                                            CATETER PERIFE INTROCAN # 22G 4251628-04SIN     2
CC0001045685077H202100015052810200015052810208/12/20210924    3190318423742196425000016830000000970620000000000000                                                             SIST FIJACION CAT PERIFERICO 6.5X7 1683SOB     1
TI0001043457740H202100015052810200015052810208/12/20210924    31903184237421964250000E1AD0300000199490000000000000                                         LACTATO RINGER USP (HARTMANN)  SOL INY  BOL X 1000ML BAXTERBIN     3
TI0001145926178H202100015052810200015052810208/12/20210924    31903184237421964250000E1AD0300000199490000000000000                                         LACTATO RINGER USP (HARTMANN)  SOL INY  BOL X 1000ML BAXTERBIN     4
CC0000028496269H202100015052810200015052810208/12/20210924    31903184237421964250000E1AD0300000199490000000000000                                         LACTATO RINGER USP (HARTMANN)  SOL INY  BOL X 1000ML BAXTERBIN     2
CC0001104008600H202100015052810200015052810208/12/20210924    31903184237421964250000E1AD0300000199490000000000000                                         LACTATO RINGER USP (HARTMANN)  SOL INY  BOL X 1000ML BAXTERBIN     1
CC0000032753507H202100015052810200015052810208/12/20210924    31903184237421964250000E1AB0300003888390000000000000                                                            SOLUCION SALINA 0.9% SLN INY BO X 500 MLBOL     1
CC0000009240037H202100015052810200015052810208/12/20210924    31903184237421964250000E1AB0300003888390000000000000                                                            SOLUCION SALINA 0.9% SLN INY BO X 500 MLBOL     1
CC0001045685077H202100015052810200015052810208/12/20210924    31903184237421964250000E1AB0300003888390000000000000                                                            SOLUCION SALINA 0.9% SLN INY BO X 500 MLBOL     2
CC0000039088478H202100015052810200015052810208/12/20210924    31903184237421964250000E1AB0300003888390000000000000                                                            SOLUCION SALINA 0.9% SLN INY BO X 500 MLBOL     1
CC0000039088478H202100015052810200015052810208/12/20210924    3190318423742196425000011137100001419310000000000000                                                               TIRA GLUCOMETRIA FREESTYLE H OPTIUM .PZA     5
CC0000028496269H202100015052810200015052810208/12/20210924    3190318423742196425000011127400001413910000000000000                                                            EQUIPO ADMINIST NUTR PUNZON REF 674669 BBOL     1
CC0001104008600H202100015052810200015052810208/12/20210924    3190318423742196425000011127400001413910000000000000                                                            EQUIPO ADMINIST NUTR PUNZON REF 674669 BBOL     1
