CC0000041782192H202100903121120800903121120808/12/20210848    3190329423742196425000024674000001138340000000000000   JERINGA 3PARTES C/A 10ML REF JEHL005 CAJ X 100 ALFASAFE  21GX1 PULG 1/2 PULG BN EXENTO-DC.417/202PZA     5
CC0000041782192H202100903121120800903121120808/12/20210848    31903294237421964250000V07A1300000502600000000000000                                                                                AGUA ESTERIL x 10 mlAMP     5
CC0000041782192H202100903121120800903121120808/12/20210848    31903294237421964250000B05B1400001012740000000000000                                                                SOLUCION SALINA 0.45% Sln Iny 500 mlBOL     1
