CC0001129498209U202100050131961900050131961908/12/20210515    3150051423942196432000036441300000236540000000000000                                                                    JERINGA 1 ML GASES ARTERIAL 9023SIN     1
RC0001236888595U202100050131961900050131961908/12/20210515    3150051423942196432000024674000001138340000000000000   JERINGA 3PARTES C/A 10ML REF JEHL005 CAJ X 100 ALFASAFE  21GX1 PULG 1/2 PULG BN EXENTO-DC.417/202PZA     2
RC0001236888595U202100050131961900050131961908/12/20210515    31500514239421964320000E1AB1100003888280000000000000                                                                        SOLUCION SALINA 0.9% X 50 mlBOL     1
