RC0001042274308U202100000556709500000556709508/12/20211559    31902968239421964320000E1AB0200000199290000000000000                                                            SOLUCION SALINA 0.9% SLN INY BO X 100 MLBIN     1
RC0001042274308U202100000556709500000556709508/12/20211525     3300010239421964320000D03A0300000213220000000000000                                                                        FITOSTIMOLINE CREMA 15% 32 GTUB     1
RC0001042274308U202100000556709500000556709508/12/20211525     3300010239421964320000N01B0200003888110000000000000                                           ROXICAINA SE 100MG/10ML(1%) SOL INY CAJ X 24AMPACK X 10MLAPC     1
RC0001042274308U202100000556709500000556709508/12/20211525     3300010239421964320000N1BA0600000218020000000000000                                                            ROXICAINA 10% SLN TOPICA ATOMIZA X 83 MLCIN     1
RC0001042274308U202100000556709500000556709508/12/20211543     3300010239421964320000N2BE1100000836430000000000000                                             ACETAMINOFEN 150MG/5ML(3%) JBE INST FCO X 60ML AMER GENCAJ     1
RC0001042274308U202100000556709500000556709508/12/20211525     3300010239421964320000N2BE1100000836430000000000000                                             ACETAMINOFEN 150MG/5ML(3%) JBE INST FCO X 60ML AMER GENCAJ     1
