RC0001043476962H202100015032653100015032653108/12/20210951    3190260623742196425000038572800000256850000000000000                                                                                 SONDA NSG LEVIN #12SIN     2
RC0001043476962H202100015032653100015032653108/12/20210951    3190260623742196425000013077800000471960000000000000                                                             GASA NO TEJIDA EST 7.5 X 7.5 SOB X 3 UNSOB     5
RC0001043476962H202100015032653100015032653108/12/20210951    3190260623742196425000042743200003929860000000000000                   GASA ADHESIVA STRETCH REF 02038-00 ROL X 10MT FIXOMULL 15CM BN EXENTO-DC.417/2020CMT    20
RC0001043476962H202100015032653100015032653108/12/20210951    3190260623742196425000011127400001413910000000000000                                                            EQUIPO ADMINIST NUTR PUNZON REF 674669 BBOL     1
