CC0000072218236H202100015052809600015052809608/12/20210011    3150036623742196425000011082700001620070000000000000                                                               EQUIPO SET PRIMARIO C/CLAVE REF 14001BOL     1
CC0001042417933H202100015052809600015052809608/12/20210011    3150036623742196425000030936900001431840000000000000                                                                                              BURETABOL     1
CC0000072218236H202100015052809600015052809608/12/20210011    31500366237421964250000E1AD0300000199490000000000000                                         LACTATO RINGER USP (HARTMANN)  SOL INY  BOL X 1000ML BAXTERBIN     1
CC0001042417933H202100015052809600015052809608/12/20210011    31500366237421964250000E1AB0500003888400000000000000                                                              SOLUCION SALINA 0.9% SLN INY X 1000 MLBOL     1
RC0001240292997H202100015052809600015052809608/12/20210011    31500366237421964250000E1AC0100000199400000000000000                                                                          SUERO MIXTO Sln Iny 500 mlBIN     1
CC0000008757431H202100015052809600015052809608/12/20210011    31500366237421964250000E1AC0100000199400000000000000                                                                          SUERO MIXTO Sln Iny 500 mlBIN     1
