CC0001124025940U202100000556684500000556684508/12/20211725    31901005239421964320000E1AB0300003888390000000000000                                                            SOLUCION SALINA 0.9% SLN INY BO X 500 MLBOL     1
CC0001124025940U202100000556684500000556684508/12/20210054    31500188239421964320000E1AB0300003888390000000000000                                                            SOLUCION SALINA 0.9% SLN INY BO X 500 MLBOL     1
CC0001124025940U202100000556684500000556684508/12/20210826     3300004239421964320000C4AX2400001315870000000000000                                                                                NIMODIPINO TAB 30 MGTAB     1
CC0001124025940U202100000556684500000556684508/12/20210047     3300004239421964320000C4AX2400001315870000000000000                                                                                NIMODIPINO TAB 30 MGTAB     2
CC0001124025940U202100000556684500000556684508/12/20212143     3300010239421964320000N2BB0100001672010000000000000                                  DIPIRONA 1GR/2ML(0.5GR/ML) SOL INY INST CAJ X 100AMP X 2ML VITALISAMP     2
CC0001124025940U202100000556684500000556684508/12/20211425     3300010239421964320000N2BB0100001672010000000000000                                  DIPIRONA 1GR/2ML(0.5GR/ML) SOL INY INST CAJ X 100AMP X 2ML VITALISAMP     1
CC0001124025940U202100000556684500000556684508/12/20210826     3300004239421964320000N2AX0900001672040000000000000                                                                              TRAMADOL SLN INY 50 MGAMP     1
CC0001124025940U202100000556684500000556684508/12/20210030     3300004239421964320000N2AX0900001672040000000000000                                                                              TRAMADOL SLN INY 50 MGAMP     1
CC0001124025940U202100000556684500000556684508/12/20212143     3300010239421964320000N03AB200001168090000000000000                                                                       FENITOINA Sln Iny 250 mg/5 mlAMP     1
CC0001124025940U202100000556684500000556684508/12/20211608     3300010239421964320000N03AB200001168090000000000000                                                                       FENITOINA Sln Iny 250 mg/5 mlAMP     1
CC0001124025940U202100000556684500000556684508/12/20210826     3300004239421964320000N03AB200001168090000000000000                                                                       FENITOINA Sln Iny 250 mg/5 mlAMP     1
CC0001124025940U202100000556684500000556684508/12/20210047     3300004239421964320000N03AB200001168090000000000000                                                                       FENITOINA Sln Iny 250 mg/5 mlAMP     1
