CC0001192925687H202100908430120800908430120808/12/20210848    31903294237421964250000V07A1300000502600000000000000                                                                                AGUA ESTERIL x 10 mlAMP     5
CC0001192925687H202100908430120800908430120808/12/20210848    31903294237421964250000E1AB0300003888390000000000000                                                            SOLUCION SALINA 0.9% SLN INY BO X 500 MLBOL     2
CC0001192925687H202100908430120800908430120808/12/20211559    3150010723742196425000042753100003929850000000000000                   GASA ADHESIVA STRETCH REF 02037-00 ROL X 10MT FIXOMULL 10CM BN EXENTO-DC.417/2020CMT    10
CC0001192925687H202100908430120800908430120808/12/20211559    3150010723742196425000043485100001618510000000000000                GUANTE QUIRURGICO DE LATEX REF 2D72N65X CAJ X 50 PROTEXIS  6.5 BN EXENTO-DC.417/2020SOB     3
CC0001192925687H202100908430120800908430120808/12/20211600    31500107237421964250000E1AB0300003888390000000000000                                                            SOLUCION SALINA 0.9% SLN INY BO X 500 MLBOL     2
CC0001192925687H202100908430120800908430120808/12/20211600    31500107237421964250000V07A1300000502600000000000000                                                                                AGUA ESTERIL x 10 mlAMP     5
CC0001192925687H202100908430120800908430120808/12/20212358    3150021323742196425000011082700001620070000000000000                                                               EQUIPO SET PRIMARIO C/CLAVE REF 14001BOL     1
CC0001192925687H202100908430120800908430120808/12/20212358    3150021323742196425000022426800001140510000000000000                                                                    EQUIPO MACROGOTEO BAXTER MRC0001SOB     1
CC0001192925687H202100908430120800908430120808/12/20212358    3150021323742196425000030936900001431840000000000000                                                                                              BURETABOL     1
