CC0000073267652U202100050131969700050131969708/12/20211844    3190233123942196432000001956000001620610000000000000                                                                      CONECTOR MICRO CLAVE LAT-MC100SOB     1
CC0000073267652U202100050131969700050131969708/12/20211844    31902331239421964320000Q1AA7100000610620000000000000                                                            CATETER PERIFE INTROCAN # 18G 4251687-04SIN     1
CC0000073267652U202100050131969700050131969708/12/20211844    3190233123942196432000016830000000970620000000000000                                                             SIST FIJACION CAT PERIFERICO 6.5X7 1683SOB     1
