CC0000011312131H202100000556690100000556690108/12/20211502     3300004237421964250000A03F0300001626860000000000000                                                                   METOCLOPRAMIDA SLN INY 10 MG/2 MLAMP     1
CC0000011312131H202100000556690100000556690108/12/20210859     3300004237421964250000A03F0300001626860000000000000                                                                   METOCLOPRAMIDA SLN INY 10 MG/2 MLAMP     2
CC0000011312131H202100000556690100000556690108/12/20210900     3300004237421964250000B01A0300000467730000000000000                                                                FRAGMIN SLN INY 5.000 UI /0.2 ML /R/SIN     1
CC0000011312131H202100000556690100000556690108/12/20210900     3300004237421964250000A12CA200001239800000000000000                     BICARBONATO SODIO 10MEQ/10ML(1MEQ/ML) SOL INY  CAJ X 100AMPX10ML FRESENIUS KABIAMP     2
CC0000011312131H202100000556690100000556690108/12/20210420    31902978237421964250000E1AD0300000199490000000000000                                         LACTATO RINGER USP (HARTMANN)  SOL INY  BOL X 1000ML BAXTERBIN     1
CC0000011312131H202100000556690100000556690108/12/20210900     3300004237421964250000H02A0100001664960000000000000                                                                        DEXAMETASONA SLN INY 4 MG/MLAMP     1
CC0000011312131H202100000556690100000556690108/12/20212304     3300004237421964250000N2BB0200000513030000000000000                                                                           LISALGIL Sln Iny 2 g/5 mlAMP     2
CC0000011312131H202100000556690100000556690108/12/20211800     3300004237421964250000N2BB0200000513030000000000000                                                                           LISALGIL Sln Iny 2 g/5 mlAMP     1
CC0000011312131H202100000556690100000556690108/12/20210900     3300004237421964250000V6DF5300000302770000000000000                                                                        ENSURE PLUS HN LCP X 1000 MLFCO     1
CC0000011312131H202100000556690100000556690108/12/20211502     3300004237421964250000J01CR200000947130000000000000                                                              AMPICILINA /SULBACTAN POLVO LIOF 1.5 GAMP     1
CC0000011312131H202100000556690100000556690108/12/20210859     3300004237421964250000J01CR200000947130000000000000                                                              AMPICILINA /SULBACTAN POLVO LIOF 1.5 GAMP     4
CC0000011312131H202100000556690100000556690108/12/20210859     3300004237421964250000A02BC700001684270000000000000                                                            OMEPRAZOL 40MG POLVO LIOFILIZADO AMPOLLAVAL     1
