CE0000000425917U202100050131962800050131962808/12/20210805    3190319023942196432000045136100001419300000000000000                                                                            LANCETA DEXTROMETER X UNPZA     2
CE0000000425917U202100050131962800050131962808/12/20210805    3190319023942196432000011082700001620070000000000000                                                               EQUIPO SET PRIMARIO C/CLAVE REF 14001BOL     1
CE0000000425917U202100050131962800050131962808/12/20210805    31903190239421964320000Q1AA7200000610630000000000000                                                            CATETER PERIFE INTROCAN # 20G 4251644-04SIN     1
CE0000000425917U202100050131962800050131962808/12/20210805    3190319023942196432000016830000000970620000000000000                                                             SIST FIJACION CAT PERIFERICO 6.5X7 1683SOB     1
CE0000000425917U202100050131962800050131962808/12/20210805    31903190239421964320000E1AD0300000199490000000000000                                         LACTATO RINGER USP (HARTMANN)  SOL INY  BOL X 1000ML BAXTERBIN     1
CE0000000425917U202100050131962800050131962808/12/20210805    3190319023942196432000011137100001419310000000000000                                                               TIRA GLUCOMETRIA FREESTYLE H OPTIUM .PZA     2
