CC0001129577696H202100000556691900000556691908/12/20211124     3300004237421964250000A04A0600001277030000000000000                                                                                      ONDAX TAB 8 MGTAB     2
CC0001129577696H202100000556691900000556691908/12/20211124     3300004237421964250000B1AB0200003939510000000000000                 ENOXAPARINA SODICA 40MG/0.4ML(100MG/ML) SOL INY INST CAJ X 2JERPREL X 0.4ML TECHDOWJRP     1
CC0001129577696H202100000556691900000556691908/12/20211604    31903294237421964250000E1AD0200003888320000000000000                                                                              HARTMAN SLN INY 500 MLBOL     2
CC0001129577696H202100000556691900000556691908/12/20211549    31500107237421964250000E1AD0200003888320000000000000                                                                              HARTMAN SLN INY 500 MLBOL     1
CC0001129577696H202100000556691900000556691908/12/20210633    31903062237421964250000E1AD0300000199490000000000000                                         LACTATO RINGER USP (HARTMANN)  SOL INY  BOL X 1000ML BAXTERBIN     2
CC0001129577696H202100000556691900000556691908/12/20211124     3300004237421964250000V6DF1800001629910000000000000                                                                             ENSURE LIQUIDO X 237 MLFCO     1
CC0001129577696H202100000556691900000556691908/12/20211125     3300004237421964250000A02B0800001276960000000000000                                                                                 OMEPRAZOL CAP 20 MGCAP     1
CC0001129577696H202100000556691900000556691908/12/20211125     3300004237421964250000C03C0100001672000000000000000                                                                       FUROSEMIDA SLN INY 20 MG/2 MLAMP     3
CC0001129577696H202100000556691900000556691908/12/20211124     3300004237421964250000N2BE2200001252930000000000000                                                                             ACETAMINOFEN Tab 500 MGTAB     2
CC0001129577696H202100000556691900000556691908/12/20211604    31903294237421964250000V07A1300000502600000000000000                                                                                AGUA ESTERIL x 10 mlAMP     5
