CC0000008757431H202100000556686500000556686508/12/20211708    31902653237421964250000E1AC0100000199400000000000000                                                                          SUERO MIXTO Sln Iny 500 mlBIN     3
CC0000008757431H202100000556686500000556686508/12/20211344    31903303237421964250000E1AB0300003888390000000000000                                                            SOLUCION SALINA 0.9% SLN INY BO X 500 MLBOL     2
CC0000008757431H202100000556686500000556686508/12/20212217     3300004237421964250000J01FF200003888100000000000000                                                                             EUROCLIN SLN INY 600 MGAMP     2
CC0000008757431H202100000556686500000556686508/12/20211225     3300004237421964250000M1AE2500000191550000000000000                                                            PROFENID POLVO LIOF SLN INY 100MG/2ML/R/AMP     2
CC0000008757431H202100000556686500000556686508/12/20211525     3300004237421964250000N2AX0400001204140000000000000                                                                             TRAMAL Sln Iny 50 mg/mlAMP     1
CC0000008757431H202100000556686500000556686508/12/20211225     3300004237421964250000N2AX0400001204140000000000000                                                                             TRAMAL Sln Iny 50 mg/mlAMP     2
CC0000008757431H202100000556686500000556686508/12/20211525     3300004237421964250000N2AA0100000301640000000000000                                                                            MORFINA Sln Iny 10 mg/mlAMP     1
CC0000008757431H202100000556686500000556686508/12/20210129     3300009237421964250000N2AA0100000301640000000000000                                                                            MORFINA Sln Iny 10 mg/mlAMP     2
CC0000008757431H202100000556686500000556686508/12/20211344    31903303237421964250000V07A1300000502600000000000000                                                                                AGUA ESTERIL x 10 mlAMP     1
