RC0001044234520H202100015052810800015052810808/12/20211559    3150058123742196425000001956000001620610000000000000                                                                      CONECTOR MICRO CLAVE LAT-MC100SOB     1
RC0001044234520H202100015052810800015052810808/12/20211559    31500581237421964250000Q1AA7400003911720000000000000                                                            CATETER PERIFE INTROCAN # 24G 4251601-04SOB     1
RC0001044234520H202100015052810800015052810808/12/20211559    3150058123742196425000016830000000970620000000000000                                                             SIST FIJACION CAT PERIFERICO 6.5X7 1683SOB     1
