CC0001129498209U202100050131962300050131962308/12/20210708    3150064323942196432000011082900001233450000000000000                                                               EQUIPO LC 5000 PRIMARIO FOTOPRO 0L218SOB     1
CC0001129498209U202100050131962300050131962308/12/20210708    3150064323942196432000001956000001620610000000000000                                                                      CONECTOR MICRO CLAVE LAT-MC100SOB     1
CC0001129498209U202100050131962300050131962308/12/20210708    31500643239421964320000Q1AA7100000610620000000000000                                                            CATETER PERIFE INTROCAN # 18G 4251687-04SIN     1
CC0001129498209U202100050131962300050131962308/12/20210708    3150064323942196432000016830000000970620000000000000                                                             SIST FIJACION CAT PERIFERICO 6.5X7 1683SOB     1
