CC0000080424776H202100000556688400000556688408/12/20210916     3300004237421964250000A02B0600001277230000000000000                                                                                NEXIUM Tab 40 mg /R/TAB     1
CC0000080424776H202100000556688400000556688408/12/20210916     3300004237421964250000B1AB0200003939510000000000000                 ENOXAPARINA SODICA 40MG/0.4ML(100MG/ML) SOL INY INST CAJ X 2JERPREL X 0.4ML TECHDOWJRP     1
CC0000080424776H202100000556688400000556688408/12/20211018    31903331237421964250000E1AB0200000199290000000000000                                                            SOLUCION SALINA 0.9% SLN INY BO X 100 MLBIN     2
CC0000080424776H202100000556688400000556688408/12/20210954    31903331237421964250000E1AD0300000199490000000000000                                         LACTATO RINGER USP (HARTMANN)  SOL INY  BOL X 1000ML BAXTERBIN     1
CC0000080424776H202100000556688400000556688408/12/20210916     3300004237421964250000J3CB2100000547740000000000000                                                                      CIPRO IV SLN INY 400 Mg/200 MLFCO     2
CC0000080424776H202100000556688400000556688408/12/20211446     3300004237421964250000N2BE0100001276930000000000000                                                                                    DOLEX TAB 500 MGTAB     4
CC0000080424776H202100000556688400000556688408/12/20211446     3300004237421964250000N2BE2400001313800000000000000                                                                           SINALGEN TAB 5/325 MG /R/TAB     1
CC0000080424776H202100000556688400000556688408/12/20210916     3300004237421964250000N2BE2400001313800000000000000                                                                           SINALGEN TAB 5/325 MG /R/TAB     3
CC0000080424776H202100000556688400000556688408/12/20210916     3300004237421964250000N02B1100001464120000000000000                                           PARACETAMOL EP 1000MG/100ML(10MG/ML) SOL INY  CAJ X 10FCOVAL     1
CC0000080424776H202100000556688400000556688408/12/20210916     3300004237421964250000N3AB0900001278210000000000000                                                                            NEURONTIN CAP 300 mg /R/CAP     1
CC0000080424776H202100000556688400000556688408/12/20210916     3300004237421964250000N03A0800001278440000000000000                                                                                LYRICA CAP 75 MG /R/CAP     1
CC0000080424776H202100000556688400000556688408/12/20211446     3300004237421964250000N2AA0200000301600000000000000                                                                        HIDROMORFONA Sln Iny 2 mg/mlAMP     1
CC0000080424776H202100000556688400000556688408/12/20211352     3300004237421964250000N2AA0200000301600000000000000                                                                        HIDROMORFONA Sln Iny 2 mg/mlAMP     1
CC0000080424776H202100000556688400000556688408/12/20210230     3300009237421964250000N2AA0200000301600000000000000                                                                        HIDROMORFONA Sln Iny 2 mg/mlAMP     1
CC0000080424776H202100000556688400000556688408/12/20211017    31903331237421964250000V07A1300000502600000000000000                                                                                AGUA ESTERIL x 10 mlAMP     5
