CC0000032704866H202100000556696900000556696908/12/20210954    31903331237421964250000E1AD0300000199490000000000000                                         LACTATO RINGER USP (HARTMANN)  SOL INY  BOL X 1000ML BAXTERBIN     1
CC0000032704866H202100000556696900000556696908/12/20210918     3300004237421964250000J3CB1300000547730000000000000                                                                         CIPRO SLN INY 200 MG/100 MLFCO     2
CC0000032704866H202100000556696900000556696908/12/20210918     3300004237421964250000N02B1100001464120000000000000                                           PARACETAMOL EP 1000MG/100ML(10MG/ML) SOL INY  CAJ X 10FCOVAL     3
CC0000032704866H202100000556696900000556696908/12/20211016    31903331237421964250000V07A1300000502600000000000000                                                                                AGUA ESTERIL x 10 mlAMP     5
