RC0001240292997H202100015052810400015052810408/12/20211006    3190330323742196425000011082700001620070000000000000                                                               EQUIPO SET PRIMARIO C/CLAVE REF 14001BOL     1
TI0001043450576H202100015052810400015052810408/12/20211006    3190330323742196425000030936900001431840000000000000                                                                                              BURETABOL     1
CC0000007460966H202100015052810400015052810408/12/20211006    31903303237421964250000E1AD0300000199490000000000000                                         LACTATO RINGER USP (HARTMANN)  SOL INY  BOL X 1000ML BAXTERBIN     1
CC0000072218236H202100015052810400015052810408/12/20211006    31903303237421964250000E1AD0300000199490000000000000                                         LACTATO RINGER USP (HARTMANN)  SOL INY  BOL X 1000ML BAXTERBIN     1
CC0000079767241H202100015052810400015052810408/12/20211006    31903303237421964250000E1AD0300000199490000000000000                                         LACTATO RINGER USP (HARTMANN)  SOL INY  BOL X 1000ML BAXTERBIN     2
RC0001044234520H202100015052810400015052810408/12/20211006    31903303237421964250000E1AB0300003888390000000000000                                                            SOLUCION SALINA 0.9% SLN INY BO X 500 MLBOL     2
RC0001043483812H202100015052810400015052810408/12/20211006    31903303237421964250000E1AB0300003888390000000000000                                                            SOLUCION SALINA 0.9% SLN INY BO X 500 MLBOL     2
CC0001045685077H202100015052810400015052810408/12/20211006    31903303237421964250000E1AB0300003888390000000000000                                                            SOLUCION SALINA 0.9% SLN INY BO X 500 MLBOL     2
TI0001043450576H202100015052810400015052810408/12/20211006    31903303237421964250000E1AB0300003888390000000000000                                                            SOLUCION SALINA 0.9% SLN INY BO X 500 MLBOL     2
RC0001240292997H202100015052810400015052810408/12/20211006    31903303237421964250000E1AB0300003888390000000000000                                                            SOLUCION SALINA 0.9% SLN INY BO X 500 MLBOL     2
CC0000008757431H202100015052810400015052810408/12/20211006    31903303237421964250000E1AB0300003888390000000000000                                                            SOLUCION SALINA 0.9% SLN INY BO X 500 MLBOL     2
RC0001240292997H202100015052810400015052810408/12/20211006    31903303237421964250000E1AC0100000199400000000000000                                                                          SUERO MIXTO Sln Iny 500 mlBIN     2
