CC0000007411669H202100904565120800904565120808/12/20212358    3150021323742196425000011082700001620070000000000000                                                               EQUIPO SET PRIMARIO C/CLAVE REF 14001BOL     1
CC0000007411669H202100904565120800904565120808/12/20212358    3150021323742196425000013077800000471960000000000000                                                             GASA NO TEJIDA EST 7.5 X 7.5 SOB X 3 UNSOB    10
CC0000007411669H202100904565120800904565120808/12/20212358    3150021323742196425000030936900001431840000000000000                                                                                              BURETABOL     1
CC0000007411669H202100904565120800904565120808/12/20212358    3150021323742196425000043485100001618510000000000000                GUANTE QUIRURGICO DE LATEX REF 2D72N65X CAJ X 50 PROTEXIS  6.5 BN EXENTO-DC.417/2020SOB     4
