CC0000013887621H202100015112746200015112746208/12/20211624    31500555237421964250000V07A1300000502600000000000000                                                                                AGUA ESTERIL x 10 mlAMP     5
CC0001129564191H202100015112746200015112746208/12/20211624    31500555237421964250000V07A1300000502600000000000000                                                                                AGUA ESTERIL x 10 mlAMP     5
CC0000007479382H202100015112746200015112746208/12/20211624    31500555237421964250000V07A1300000502600000000000000                                                                                AGUA ESTERIL x 10 mlAMP     5
CC0000007479382H202100015112746200015112746208/12/20211624    3150055523742196425000038573100000256880000000000000                                                                                 SONDA NSG LEVIN #18SIN     1
CC0000013887621H202100015112746200015112746208/12/20211624    3150055523742196425000013077800000471960000000000000                                                             GASA NO TEJIDA EST 7.5 X 7.5 SOB X 3 UNSOB    10
CC0001129564191H202100015112746200015112746208/12/20211624    3150055523742196425000013077800000471960000000000000                                                             GASA NO TEJIDA EST 7.5 X 7.5 SOB X 3 UNSOB    10
CC0000007479382H202100015112746200015112746208/12/20211624    3150055523742196425000013077800000471960000000000000                                                             GASA NO TEJIDA EST 7.5 X 7.5 SOB X 3 UNSOB    10
CC0001129564191H202100015112746200015112746208/12/20211624    3150055523742196425000022426800001140510000000000000                                                                    EQUIPO MACROGOTEO BAXTER MRC0001SOB     1
CC0001129564191H202100015112746200015112746208/12/20211624    3150055523742196425000011082700001620070000000000000                                                               EQUIPO SET PRIMARIO C/CLAVE REF 14001BOL     1
CC0000013887621H202100015112746200015112746208/12/20211624    3150055523742196425000044370800000224140000000000000                                                                                IOBAN 2 90 X 45 6650SIN     1
CC0001129564191H202100015112746200015112746208/12/20211624    3150055523742196425000044370800000224140000000000000                                                                                IOBAN 2 90 X 45 6650SIN     1
CC0000007479382H202100015112746200015112746208/12/20211624    3150055523742196425000044370800000224140000000000000                                                                                IOBAN 2 90 X 45 6650SIN     1
