RC0001048091952H202100015132531100015132531108/12/20211518    3190330923742196425000022425700000225420000000000000                                                                   SIST PERFUSOR SECURA 50 ML 728889CAJ     1
RC0001048091952H202100015132531100015132531108/12/20211518    3190330923742196425000001956000001620610000000000000                                                                      CONECTOR MICRO CLAVE LAT-MC100SOB     1
RC0001048091952H202100015132531100015132531108/12/20211518    31903309237421964250000Q1AA7400003911720000000000000                                                            CATETER PERIFE INTROCAN # 24G 4251601-04SOB     2
RC0001048091952H202100015132531100015132531108/12/20211518    3190330923742196425000000602600001259280000000000000                                                             APOSITO TEGADERM IV PD 1610 5CM X 5.7CMSOB     1
