RC0001042274308U202100050131967000050131967008/12/20211508    3190296823942196432000019490800000233140000000000000                                                                        VICRYL 4-0 INC 70 SC20 J122HSIN     1
RC0001042274308U202100050131967000050131967008/12/20211508    3190296823942196432000012475500000232250000000000000                                                                 SUTURA ETHILON 5-0 PS-2 45CM P1666TSIN     1
RC0001042274308U202100050131967000050131967008/12/20211508    3190296823942196432000011048600000223020000000000000                                                                 JERINGA VACUNACION 3ML C/AGU 302542SIN     1
RC0001042274308U202100050131967000050131967008/12/20211508    3190296823942196432000011047900000223010000000000000                                                                            JERINGA X 1ML REF 302579SIN     1
RC0001042274308U202100050131967000050131967008/12/20211508    3190296823942196432000011089300001083990000000000000                                                              GUANTE ESTERIL LATEX S/POLVO TALLA 7.5SOB     2
RC0001042274308U202100050131967000050131967008/12/20211508    3190296823942196432000013077800000471960000000000000                                                             GASA NO TEJIDA EST 7.5 X 7.5 SOB X 3 UNSOB     6
RC0001042274308U202100050131967000050131967008/12/20211508    3190296823942196432000000101000001101640000000000000                                                                  AGUJA DESECHABLE  23G X 1 1/2 PULGSOB     1
RC0001042274308U202100050131967000050131967008/12/20211508    31902968239421964320000E1AB0200000199290000000000000                                                            SOLUCION SALINA 0.9% SLN INY BO X 100 MLBIN     1
