CC0000022438763H202100000556707000000556707008/12/20211325    31902653237421964250000A11A2200001050880000000000000                                                                 GLUCERNA LIQUIDO 1.5 KCAL X 1000 MLFCO     1
CC0000022438763H202100000556707000000556707008/12/20211325    31902653237421964250000J01D1200001239960000000000000                                                                              CEFEPIME POLVO INY 1 GVAL     2
CC0000022438763H202100000556707000000556707008/12/20211325    31902653237421964250000N2BB0100001672010000000000000                                  DIPIRONA 1GR/2ML(0.5GR/ML) SOL INY INST CAJ X 100AMP X 2ML VITALISAMP     1
CC0000022438763H202100000556707000000556707008/12/20211325    31902653237421964250000N2AX0900001672040000000000000                                                                              TRAMADOL SLN INY 50 MGAMP     3
