RC0001048091352U202100050131963700050131963708/12/20211030    3190016523942196432000038568200000257000000000000000                                                                                   SONDA NELATON #06SIN     1
RC0001130297017U202100050131963700050131963708/12/20211030    3190016523942196432000038568200000257000000000000000                                                                                   SONDA NELATON #06SIN     1
RC0001048091352U202100050131963700050131963708/12/20211030    3190016523942196432000024674000001138340000000000000   JERINGA 3PARTES C/A 10ML REF JEHL005 CAJ X 100 ALFASAFE  21GX1 PULG 1/2 PULG BN EXENTO-DC.417/202PZA     2
RC0001130297017U202100050131963700050131963708/12/20211030    3190016523942196432000024674000001138340000000000000   JERINGA 3PARTES C/A 10ML REF JEHL005 CAJ X 100 ALFASAFE  21GX1 PULG 1/2 PULG BN EXENTO-DC.417/202PZA     2
RC0001048091352U202100050131963700050131963708/12/20211030    31900165239421964320000E1AB0200000199290000000000000                                                            SOLUCION SALINA 0.9% SLN INY BO X 100 MLBIN     1
RC0001130297017U202100050131963700050131963708/12/20211030    31900165239421964320000E1AB0200000199290000000000000                                                            SOLUCION SALINA 0.9% SLN INY BO X 100 MLBIN     1
