CC0001104008600H202100000556700900000556700908/12/20211220     3300004237421964250000A03F0300001626860000000000000                                                                   METOCLOPRAMIDA SLN INY 10 MG/2 MLAMP     2
CC0001104008600H202100000556700900000556700908/12/20211642    31903184237421964250000E1AD0300000199490000000000000                                         LACTATO RINGER USP (HARTMANN)  SOL INY  BOL X 1000ML BAXTERBIN     1
CC0001104008600H202100000556700900000556700908/12/20211220     3300004237421964250000V6DB4300000326520000000000000                                                                               OSMOLITE HN x 1500 mlFCO     1
CC0001104008600H202100000556700900000556700908/12/20211220     3300004237421964250000C08CA300001313930000000000000                                                                                AMLODIPINO TAB 10 MGTAB     1
CC0001104008600H202100000556700900000556700908/12/20211220     3300004237421964250000N2BB0100001672010000000000000                                  DIPIRONA 1GR/2ML(0.5GR/ML) SOL INY INST CAJ X 100AMP X 2ML VITALISAMP     2
CC0001104008600H202100000556700900000556700908/12/20211433     3300004237421964250000N05A1700001278300000000000000                                                                            QUETIAPINA TAB 25 MG /R/TAB     3
CC0001104008600H202100000556700900000556700908/12/20211220     3300004237421964250000N05A1700001278300000000000000                                                                            QUETIAPINA TAB 25 MG /R/TAB     3
CC0001104008600H202100000556700900000556700908/12/20211110     3300004237421964250000N05BA100001303610000000000000                                                                                  LORAZEPAM TAB 2 MGTAB     1
