RC0001084457432H202100000556700100000556700108/12/20211044    31900997237421964250000E1AC0100000199400000000000000                                                                          SUERO MIXTO Sln Iny 500 mlBIN     1
RC0001084457432H202100000556700100000556700108/12/20211530     3300004237421964250000A12BA100000552980000000000000                                                            CLORURO POTASIO Sln Iny AMP 20 MEQ/10 MLAMP     1
RC0001084457432H202100000556700100000556700108/12/20211205     3300004237421964250000N2BB0100001672010000000000000                                  DIPIRONA 1GR/2ML(0.5GR/ML) SOL INY INST CAJ X 100AMP X 2ML VITALISAMP     2
RC0001084457432H202100000556700100000556700108/12/20211205     3300004237421964250000A02BC700001684270000000000000                                                            OMEPRAZOL 40MG POLVO LIOFILIZADO AMPOLLAVAL     1
