CC0000072000487U202100050131965400050131965408/12/20211249    3190118123942196432000049428300000860750000000000000                                                                       VENDA ELASTICA 4*5 NO ESTERILBOL     2
CC0000072000487U202100050131965400050131965408/12/20211249    3190118123942196432000049428200000860740000000000000                                                                       VENDA ELASTICA 3*5 NO ESTERILBOL     2
CC0000072000487U202100050131965400050131965408/12/20211249    3190118123942196432000049419500001679890000000000000                                                                        VENDA ALGODON 3*5 NO ESTERILSOB     2
CC0000072000487U202100050131965400050131965408/12/20211249    3190118123942196432000011048600000223020000000000000                                                                 JERINGA VACUNACION 3ML C/AGU 302542SIN     1
