CC0000022352292H202100015112747000015112747008/12/20212246    3190182723742196425000011089400001083350000000000000                                                              GUANTE ESTERIL LATEX S/POLVO TALLA 8.0SOB     1
CC0001066890191H202100015112747000015112747008/12/20212246    3190182723742196425000011089400001083350000000000000                                                              GUANTE ESTERIL LATEX S/POLVO TALLA 8.0SOB     1
CC0000007444684H202100015112747000015112747008/12/20212246    3190182723742196425000011089400001083350000000000000                                                              GUANTE ESTERIL LATEX S/POLVO TALLA 8.0SOB     1
CC0000072339909H202100015112747000015112747008/12/20212246    3190182723742196425000011089300001083990000000000000                                                              GUANTE ESTERIL LATEX S/POLVO TALLA 7.5SOB     2
CC0000032776593H202100015112747000015112747008/12/20212246    3190182723742196425000011089300001083990000000000000                                                              GUANTE ESTERIL LATEX S/POLVO TALLA 7.5SOB     2
CC0000022362807H202100015112747000015112747008/12/20212246    3190182723742196425000001956000001620610000000000000                                                                      CONECTOR MICRO CLAVE LAT-MC100SOB     1
