CC0000007452098H202100000556686000000556686008/12/20210914     3300004237421964250000A02BC100001677520000000000000                                                                ESOMEPRAZOL POLVO LIOF INY 40 MG /R/VAL     1
CC0000007452098H202100000556686000000556686008/12/20210114     3300009237421964250000B1AB0200003939510000000000000                 ENOXAPARINA SODICA 40MG/0.4ML(100MG/ML) SOL INY INST CAJ X 2JERPREL X 0.4ML TECHDOWJRP     1
CC0000007452098H202100000556686000000556686008/12/20210147    31901360237421964250000E1AD0300000199490000000000000                                         LACTATO RINGER USP (HARTMANN)  SOL INY  BOL X 1000ML BAXTERBIN     1
CC0000007452098H202100000556686000000556686008/12/20210914     3300004237421964250000H03AA500001315460000000000000                                                                                SYNTHROID TAB 50 MCGTAB     1
CC0000007452098H202100000556686000000556686008/12/20212150     3300004237421964250000J01DA300001239950000000000000                                                            CEFAZOLINA SODICA POLVO LIOF SLN INY 1 GVAL     4
CC0000007452098H202100000556686000000556686008/12/20210914     3300004237421964250000N02B1100001464120000000000000                                           PARACETAMOL EP 1000MG/100ML(10MG/ML) SOL INY  CAJ X 10FCOVAL     1
CC0000007452098H202100000556686000000556686008/12/20210914     3300004237421964250000N03A1500001316220000000000000                                                                               LYRICA CAP 150 MG /R/CAP     1
CC0000007452098H202100000556686000000556686008/12/20210114     3300009237421964250000N03A1500001316220000000000000                                                                               LYRICA CAP 150 MG /R/CAP     1
