TI0001107068221H202100000556697200000556697208/12/20211410    31902949237421964250000E1AD0300000199490000000000000                                         LACTATO RINGER USP (HARTMANN)  SOL INY  BOL X 1000ML BAXTERBIN     1
TI0001107068221H202100000556697200000556697208/12/20210924     3300004237421964250000L04AA300000460440000000000000                                                                        TIMOGLOBULINA VIAL 25 MG /R/VAL     2
TI0001107068221H202100000556697200000556697208/12/20211058     3300004237421964250000N2BB0500000217140000000000000                                                                          NOVALGINA Sln Iny 1 g/2 mlAMP     3
TI0001107068221H202100000556697200000556697208/12/20210921     3300004237421964250000N2BB0500000217140000000000000                                                                          NOVALGINA Sln Iny 1 g/2 mlAMP     1
TI0001107068221H202100000556697200000556697208/12/20211058     3300004237421964250000N2BE0100001276930000000000000                                                                                    DOLEX TAB 500 MGTAB     1
TI0001107068221H202100000556697200000556697208/12/20211019    31903331237421964250000V07A1300000502600000000000000                                                                                AGUA ESTERIL x 10 mlAMP     5
