RC0001048089614U202100050131964000050131964008/12/20211109    3190016523942196432000038568200000257000000000000000                                                                                   SONDA NELATON #06SIN     1
RC0001048089614U202100050131964000050131964008/12/20211109    31900165239421964320000B05C0200001339660000000000000                                                                        SOLUCION SALINA 0.9% X 10 MLJRP     1
RC0001146546693U202100050131964000050131964008/12/20211109    3190016523942196432000024674000001138340000000000000   JERINGA 3PARTES C/A 10ML REF JEHL005 CAJ X 100 ALFASAFE  21GX1 PULG 1/2 PULG BN EXENTO-DC.417/202PZA     2
RC0001146546693U202100050131964000050131964008/12/20211109    31900165239421964320000E1AB0200000199290000000000000                                                            SOLUCION SALINA 0.9% SLN INY BO X 100 MLBIN     1
