TI0001103512693H202100015122549700015122549708/12/20212142    3150045323742196425000011082700001620070000000000000                                                               EQUIPO SET PRIMARIO C/CLAVE REF 14001BOL     1
RC0001102897681H202100015122549700015122549708/12/20212142    3150045323742196425000011082700001620070000000000000                                                               EQUIPO SET PRIMARIO C/CLAVE REF 14001BOL     1
TI0001103512693H202100015122549700015122549708/12/20212142    3150045323742196425000030936900001431840000000000000                                                                                              BURETABOL     1
RC0001102897681H202100015122549700015122549708/12/20212142    3150045323742196425000030936900001431840000000000000                                                                                              BURETABOL     1
