CC0000022265715H202100015012629900015012629908/12/20212154    3150062423742196425000022426800001140510000000000000                                                                    EQUIPO MACROGOTEO BAXTER MRC0001SOB     1
TI0001141320302H202100015012629900015012629908/12/20212154    3150062423742196425000022426800001140510000000000000                                                                    EQUIPO MACROGOTEO BAXTER MRC0001SOB     1
CC0000022265715H202100015012629900015012629908/12/20212154    3150062423742196425000011082700001620070000000000000                                                               EQUIPO SET PRIMARIO C/CLAVE REF 14001BOL     1
TI0001141320302H202100015012629900015012629908/12/20212154    3150062423742196425000011082700001620070000000000000                                                               EQUIPO SET PRIMARIO C/CLAVE REF 14001BOL     1
CC0000041482521H202100015012629900015012629908/12/20212154    3150062423742196425000001956000001620610000000000000                                                                      CONECTOR MICRO CLAVE LAT-MC100SOB     1
CC0000041482521H202100015012629900015012629908/12/20212154    31500624237421964250000E1AB0300003888390000000000000                                                            SOLUCION SALINA 0.9% SLN INY BO X 500 MLBOL     2
RC0001043712604H202100015012629900015012629908/12/20212154    31500624237421964250000E1AC0100000199400000000000000                                                                          SUERO MIXTO Sln Iny 500 mlBIN     2
