CC0000080041956H202100015012629400015012629408/12/20211158    3150034723742196425000011082700001620070000000000000                                                               EQUIPO SET PRIMARIO C/CLAVE REF 14001BOL     1
CC0000080041956H202100015012629400015012629408/12/20211158    3150034723742196425000001956000001620610000000000000                                                                      CONECTOR MICRO CLAVE LAT-MC100SOB     1
CC0000080041956H202100015012629400015012629408/12/20211158    31500347237421964250000Q1AA7200000610630000000000000                                                            CATETER PERIFE INTROCAN # 20G 4251644-04SIN     1
CC0000080041956H202100015012629400015012629408/12/20211158    3150034723742196425000016830000000970620000000000000                                                             SIST FIJACION CAT PERIFERICO 6.5X7 1683SOB     1
CC0000022265715H202100015012629400015012629408/12/20211158    3150034723742196425000011127400001413910000000000000                                                            EQUIPO ADMINIST NUTR PUNZON REF 674669 BBOL     1
