CC0000012614608H202100000556706600000556706608/12/20211257    31903331237421964250000A02B0500001335110000000000000                                                                                LOSEC MUPS Tab 20 mgTAB     1
CC0000012614608H202100000556706600000556706608/12/20211257    31903331237421964250000J01DB300000553200000000000000                                                                         CEFALOTINA SLN INY 1 G VIALVAL     3
CC0000012614608H202100000556706600000556706608/12/20211257    31903331237421964250000N2AX0500001204110000000000000                                                                          TRAMAL SLN INY 100 MG / MLAMP     1
CC0000012614608H202100000556706600000556706608/12/20211257    31903331237421964250000N02B1100001464120000000000000                                           PARACETAMOL EP 1000MG/100ML(10MG/ML) SOL INY  CAJ X 10FCOVAL     3
