CC0000084006612H202100000556696700000556696708/12/20210917     3300004237421964250000A2BC0900000200150000000000000                                                                               ORAZOLE Sln Iny 40 mgCIN     1
CC0000084006612H202100000556696700000556696708/12/20211448     3300004237421964250000B1AB1200003939350000000000000                 ENOXAPARINA SODICA 80MG/0.8ML(100MG/ML) SOL INY INST CAJ X 2JERPREL X 0.8ML TECHDOWJRP     1
CC0000084006612H202100000556696700000556696708/12/20210917     3300004237421964250000B1AB1200003939350000000000000                 ENOXAPARINA SODICA 80MG/0.8ML(100MG/ML) SOL INY INST CAJ X 2JERPREL X 0.8ML TECHDOWJRP     1
CC0000084006612H202100000556696700000556696708/12/20210954    31903331237421964250000E1AB0500003888400000000000000                                                              SOLUCION SALINA 0.9% SLN INY X 1000 MLBOL     1
CC0000084006612H202100000556696700000556696708/12/20210917     3300004237421964250000N2AX0400001204140000000000000                                                                             TRAMAL Sln Iny 50 mg/mlAMP     1
CC0000084006612H202100000556696700000556696708/12/20210917     3300004237421964250000N2BB0500000217140000000000000                                                                          NOVALGINA Sln Iny 1 g/2 mlAMP     1
CC0000084006612H202100000556696700000556696708/12/20211017    31903331237421964250000V07A1300000502600000000000000                                                                                AGUA ESTERIL x 10 mlAMP     5
