CC0000022310952H202100000556684700000556684708/12/20211210     3300004237421964250000N05AD100001334580000000000000                                                                           HALOPERIDOL TAB.10mg TAB.TAB     2
CC0000022310952H202100000556684700000556684708/12/20211152     3300004237421964250000N05AD100001334580000000000000                                                                           HALOPERIDOL TAB.10mg TAB.TAB     1
CC0000022310952H202100000556684700000556684708/12/20211151     3300004237421964250000N05AD100001334580000000000000                                                                           HALOPERIDOL TAB.10mg TAB.TAB     1
CC0000022310952H202100000556684700000556684708/12/20211152     3300004237421964250000A02B0700001277010000000000000                                                                                NEXIUM Tab 20 mg /R/TAB     1
CC0000022310952H202100000556684700000556684708/12/20211547     3300004237421964250000A10A1900000601020000000000000                                                                   APIDRA CARTU 100 UI/ML X 3 ML /R/CAR     1
CC0000022310952H202100000556684700000556684708/12/20211210     3300004237421964250000A10B1600001336910000000000000                                                                               TRAYENTA TAB 5 MG /R/TAB     2
CC0000022310952H202100000556684700000556684708/12/20211210     3300004237421964250000A11DA300001278410000000000000                                                                                  TIAMINA TAB 300 MGTAB     2
CC0000022310952H202100000556684700000556684708/12/20211546     3300004237421964250000A11C0600001389430000000000000                                                                             CALCITRIOL CAP 0.25 MCGCAP     1
CC0000022310952H202100000556684700000556684708/12/20211545     3300004237421964250000B1AB0200003939510000000000000                 ENOXAPARINA SODICA 40MG/0.4ML(100MG/ML) SOL INY INST CAJ X 2JERPREL X 0.4ML TECHDOWJRP     1
CC0000022310952H202100000556684700000556684708/12/20212316     3300004237421964250000N02B0300001277700000000000000                                                                           CARDIOASPIRINA TAB 100 MGTAB     1
CC0000022310952H202100000556684700000556684708/12/20211152     3300004237421964250000V7AA5200000215370000000000000                                                                          EPOYET SLN INY 2000 UI /R/VAL     1
CC0000022310952H202100000556684700000556684708/12/20211152     3300004237421964250000B3BB0100001351190000000000000                                                                               ACIDO FOLICO Tab 1 mgTAB     1
CC0000022310952H202100000556684700000556684708/12/20211151     3300004237421964250000B3BB0100001351190000000000000                                                                               ACIDO FOLICO Tab 1 mgTAB     1
CC0000022310952H202100000556684700000556684708/12/20210041    31900933237421964250000E1AB0700003888350000000000000                                                            SOLUCION SALINA 0.9% SLN INY BO X 250 MLBOL     2
CC0000022310952H202100000556684700000556684708/12/20211545     3300004237421964250000C09CA400001277130000000000000                                                                                  LOSARTAN TAB 50 MGTAB     1
CC0000022310952H202100000556684700000556684708/12/20212316     3300004237421964250000C10AA600001333790000000000000                                                                                   CRESTOR TAB 10 MGTAB     1
CC0000022310952H202100000556684700000556684708/12/20211545     3300004237421964250000J1CB1800001134180000000000000                                                                             TAZOCIN Polvo Iny 4.5 gVAL     4
CC0000022310952H202100000556684700000556684708/12/20211545     3300004237421964250000J01XA400001212420000000000000                                                               VANCOMICINA POLVO LIOF SLN INY 500 MGVAL     4
CC0000022310952H202100000556684700000556684708/12/20211546     3300004237421964250000N2BE0100001276930000000000000                                                                                    DOLEX TAB 500 MGTAB     6
CC0000022310952H202100000556684700000556684708/12/20211846     3300004237421964250000N06A0300001304010000000000000                                                                               REMERON Tab 30 mg /R/TAB     1
CC0000022310952H202100000556684700000556684708/12/20211719    31903290237421964250000V07A1300000502600000000000000                                                                                AGUA ESTERIL x 10 mlAMP     5
