CC0000072277171H202100000556691500000556691508/12/20210958     3300004237421964250000V7AZ1800001442160000000000000                                                                              GLICERINA Supos AdultoSUP     1
CC0000072277171H202100000556691500000556691508/12/20211504    31903294237421964250000E1AB1100003888280000000000000                                                                        SOLUCION SALINA 0.9% X 50 mlBOL     3
CC0000072277171H202100000556691500000556691508/12/20211504    31903294237421964250000E1AB0200000199290000000000000                                                            SOLUCION SALINA 0.9% SLN INY BO X 100 MLBIN     3
CC0000072277171H202100000556691500000556691508/12/20211504    31903294237421964250000E1AB0300003888390000000000000                                                            SOLUCION SALINA 0.9% SLN INY BO X 500 MLBOL     2
CC0000072277171H202100000556691500000556691508/12/20211825     3300004237421964250000A12CA200001239800000000000000                     BICARBONATO SODIO 10MEQ/10ML(1MEQ/ML) SOL INY  CAJ X 100AMPX10ML FRESENIUS KABIAMP     4
CC0000072277171H202100000556691500000556691508/12/20210943     3300004237421964250000H02AB500001664950000000000000                                                            DEXAMETASONA SLN INY 8 MG/2 ML AMP /CDS/AMP     5
CC0000072277171H202100000556691500000556691508/12/20211825     3300004237421964250000N01B0200003888110000000000000                                           ROXICAINA SE 100MG/10ML(1%) SOL INY CAJ X 24AMPACK X 10MLAPC     1
CC0000072277171H202100000556691500000556691508/12/20210942     3300004237421964250000N06A1100001278050000000000000                                                                              CYMBALTA Cap 30 mg /R/CAP     1
CC0000072277171H202100000556691500000556691508/12/20211556     3300004237421964250000N02A3100001227160000000000000                                                                    OXYRAPID SLN INY 10 MG/ML X 1 MLAMP     3
CC0000072277171H202100000556691500000556691508/12/20211555     3300004237421964250000N02A3100001227160000000000000                                                                    OXYRAPID SLN INY 10 MG/ML X 1 MLAMP    10
CC0000072277171H202100000556691500000556691508/12/20211554     3300004237421964250000N02A3100001227160000000000000                                                                    OXYRAPID SLN INY 10 MG/ML X 1 MLAMP     7
CC0000072277171H202100000556691500000556691508/12/20210942     3300004237421964250000B01AB400000513360000000000000                                                                        CLENOX SLN INY 60 MG/ 0.6 MLJRP     2
CC0000072277171H202100000556691500000556691508/12/20210943     3300004237421964250000A02BC700001684270000000000000                                                            OMEPRAZOL 40MG POLVO LIOFILIZADO AMPOLLAVAL     1
CC0000072277171H202100000556691500000556691508/12/20211504    31903294237421964250000V07A1300000502600000000000000                                                                                AGUA ESTERIL x 10 mlAMP     5
