CC0000022467890H202100905341120800905341120808/12/20210023    3190244523742196425000022426800001140510000000000000                                                                    EQUIPO MACROGOTEO BAXTER MRC0001SOB     1
CC0000022467890H202100905341120800905341120808/12/20210032    3150029523742196425000011082700001620070000000000000                                                               EQUIPO SET PRIMARIO C/CLAVE REF 14001BOL     1
CC0000022467890H202100905341120800905341120808/12/20210032    3150029523742196425000030936900001431840000000000000                                                                                              BURETABOL     1
