CC0001085041540H202100015052811700015052811708/12/20212157    3150033123742196425000011082700001620070000000000000                                                               EQUIPO SET PRIMARIO C/CLAVE REF 14001BOL     1
CC0001143259393H202100015052811700015052811708/12/20212157    3150033123742196425000011082700001620070000000000000                                                               EQUIPO SET PRIMARIO C/CLAVE REF 14001BOL     1
CC0001140828909H202100015052811700015052811708/12/20212157    3150033123742196425000011082700001620070000000000000                                                               EQUIPO SET PRIMARIO C/CLAVE REF 14001BOL     1
CC0001047230087H202100015052811700015052811708/12/20212157    3150033123742196425000011082700001620070000000000000                                                               EQUIPO SET PRIMARIO C/CLAVE REF 14001BOL     1
