CC0001001872342A202100000027852100000027852108/12/20211304    3190333624042196419000040511500000258400000000000000                                                               APOSITO BACTIGRAS REF 7456  5CM X 5CMSIN     1
CC0001001872342A202100000027852100000027852108/12/20211304    3190333624042196419000019489600000233200000000000000                                                                   VICRYL 6-0 DOBLE AGUJA S-14 J570GSIN     1
CC0001001872342A202100000027852100000027852108/12/20211304    3190333624042196419000017566200001585160000000000000                                                                  PROLENE 4-0 AZ 45 PS2 PRIME P8682TSOB     1
CC0001001872342A202100000027852100000027852108/12/20211304    3190333624042196419000043879100001138200000000000000                                                                  HOJA BISTURI # 15 CSSB 15 01002003SOB     1
CC0001001872342A202100000027852100000027852108/12/20211304    3190333624042196419000022425200000548240000000000000                       EXTENSION DE ANESTESIA REF 1139 SOB X 1 SHERLEG  ADULTO BN EXENTO-DC.417/2020SIN     1
CC0001001872342A202100000027852100000027852108/12/20211304    3190333624042196419000035356500003919000000000000000                                                                                        LLAVE 3 VIASSOB     1
CC0001001872342A202100000027852100000027852108/12/20211304    3190333624042196419000022426800001140510000000000000                                                                    EQUIPO MACROGOTEO BAXTER MRC0001SOB     1
CC0001001872342A202100000027852100000027852108/12/20211304    3190333624042196419000024674000001138340000000000000   JERINGA 3PARTES C/A 10ML REF JEHL005 CAJ X 100 ALFASAFE  21GX1 PULG 1/2 PULG BN EXENTO-DC.417/202PZA     2
CC0001001872342A202100000027852100000027852108/12/20211304    3190333624042196419000053074400000607910000000000000                                                               GASA ESTERIL 10*10 SOBRE X 3 UNIDADESSOB     4
CC0001001872342A202100000027852100000027852108/12/20211304    3190333624042196419000011085200001585390000000000000                                                                       GUANTE QUIRURGICO TALLA 7 1/2SOB     2
CC0001001872342A202100000027852100000027852108/12/20211304    3190333624042196419000011085100001082120000000000000                                                                           GUANTE QUIRURGICO TALLA 7SOB     2
CC0001001872342A202100000027852100000027852108/12/20211304    3190333624042196419000043485100001618510000000000000                GUANTE QUIRURGICO DE LATEX REF 2D72N65X CAJ X 50 PROTEXIS  6.5 BN EXENTO-DC.417/2020SOB     2
CC0001001872342A202100000027852100000027852108/12/20211304    3190333624042196419000000101000001101640000000000000                                                                  AGUJA DESECHABLE  23G X 1 1/2 PULGSOB     1
CC0001001872342A202100000027852100000027852108/12/20211304    31903336240421964190000E1AB0300003888390000000000000                                                            SOLUCION SALINA 0.9% SLN INY BO X 500 MLBOL     4
CC0001001872342A202100000027852100000027852108/12/20211304    31903336240421964190000A2BC0900000200150000000000000                                                                               ORAZOLE Sln Iny 40 mgCIN     1
CC0001001872342A202100000027852100000027852108/12/20211304    31903336240421964190000M01A0400001341250000000000000                                                                              DYNASTAT AMP 40 MG /R/VAL     1
CC0001001872342A202100000027852100000027852108/12/20211304    31903336240421964190000N01B0600003888900000000000000                                                    BUPINEST 75MG/10ML(0.75%) SOL INY CAJ X 24AMPACKAPC     1
CC0001001872342A202100000027852100000027852108/12/20211304    31903336240421964190000N02BB100000777810000000000000                                                               DIPIRONA MAGNESICA SLN INY 2.5 G/5 MLAMP     1
CC0001001872342A202100000027852100000027852108/12/20211304    31903336240421964190000N1BA2400001687720000000000000                                                    LIDOCAINA 2% SOL INY  CAJ X 50AMP X 10ML CORPAULAMP     1
CC0001001872342A202100000027852100000027852108/12/20211304    31903336240421964190000A03F0500001692520000000000000                                                                   ALIZAPRIDA HCL SLN INY 50 MG/2 MLAMP     1
CC0001001872342A202100000027852100000027852108/12/20211304    31903336240421964190000M03AB100001371510000000000000                                                            ADECUAC SUCCINILCOLINA  100mg/mL SOL INYVAL     1
CC0001001872342A202100000027852100000027852108/12/20211304    3190333624042196419000043879200001138180000000000000                                                                                   HOJA BISTURI # 11SOB     1
