TI0001139433905H202100015122549200015122549208/12/20210859    3190330723742196425000024674500000322810000000000000                                                                   JERINGA DESECHABLE 20 ml 21*1 1/2SIN     5
TI0001103512693H202100015122549200015122549208/12/20210859    3190330723742196425000024674500000322810000000000000                                                                   JERINGA DESECHABLE 20 ml 21*1 1/2SIN     5
RC0001063188076H202100015122549200015122549208/12/20210859    3190330723742196425000024674500000322810000000000000                                                                   JERINGA DESECHABLE 20 ml 21*1 1/2SIN     5
RC0001044671776H202100015122549200015122549208/12/20210859    3190330723742196425000024674500000322810000000000000                                                                   JERINGA DESECHABLE 20 ml 21*1 1/2SIN     5
RC0001046723141H202100015122549200015122549208/12/20210859    3190330723742196425000024674500000322810000000000000                                                                   JERINGA DESECHABLE 20 ml 21*1 1/2SIN     5
RC0001102897681H202100015122549200015122549208/12/20210859    3190330723742196425000024674500000322810000000000000                                                                   JERINGA DESECHABLE 20 ml 21*1 1/2SIN     5
TI0001139433905H202100015122549200015122549208/12/20210859    3190330723742196425000024674000001138340000000000000   JERINGA 3PARTES C/A 10ML REF JEHL005 CAJ X 100 ALFASAFE  21GX1 PULG 1/2 PULG BN EXENTO-DC.417/202PZA    10
TI0001103512693H202100015122549200015122549208/12/20210859    3190330723742196425000024674000001138340000000000000   JERINGA 3PARTES C/A 10ML REF JEHL005 CAJ X 100 ALFASAFE  21GX1 PULG 1/2 PULG BN EXENTO-DC.417/202PZA    10
RC0001063188076H202100015122549200015122549208/12/20210859    3190330723742196425000024674000001138340000000000000   JERINGA 3PARTES C/A 10ML REF JEHL005 CAJ X 100 ALFASAFE  21GX1 PULG 1/2 PULG BN EXENTO-DC.417/202PZA    10
RC0001044671776H202100015122549200015122549208/12/20210859    3190330723742196425000024674000001138340000000000000   JERINGA 3PARTES C/A 10ML REF JEHL005 CAJ X 100 ALFASAFE  21GX1 PULG 1/2 PULG BN EXENTO-DC.417/202PZA    10
RC0001046723141H202100015122549200015122549208/12/20210859    3190330723742196425000024674000001138340000000000000   JERINGA 3PARTES C/A 10ML REF JEHL005 CAJ X 100 ALFASAFE  21GX1 PULG 1/2 PULG BN EXENTO-DC.417/202PZA    10
RC0001102897681H202100015122549200015122549208/12/20210859    3190330723742196425000024674000001138340000000000000   JERINGA 3PARTES C/A 10ML REF JEHL005 CAJ X 100 ALFASAFE  21GX1 PULG 1/2 PULG BN EXENTO-DC.417/202PZA    10
RC0001063188441H202100015122549200015122549208/12/20210859    3190330723742196425000024674000001138340000000000000   JERINGA 3PARTES C/A 10ML REF JEHL005 CAJ X 100 ALFASAFE  21GX1 PULG 1/2 PULG BN EXENTO-DC.417/202PZA    10
RC0001043033404H202100015122549200015122549208/12/20210859    3190330723742196425000024674000001138340000000000000   JERINGA 3PARTES C/A 10ML REF JEHL005 CAJ X 100 ALFASAFE  21GX1 PULG 1/2 PULG BN EXENTO-DC.417/202PZA    10
TI0001139433905H202100015122549200015122549208/12/20210859    3190330723742196425000043485100001618510000000000000                GUANTE QUIRURGICO DE LATEX REF 2D72N65X CAJ X 50 PROTEXIS  6.5 BN EXENTO-DC.417/2020SOB     1
TI0001103512693H202100015122549200015122549208/12/20210859    3190330723742196425000043485100001618510000000000000                GUANTE QUIRURGICO DE LATEX REF 2D72N65X CAJ X 50 PROTEXIS  6.5 BN EXENTO-DC.417/2020SOB     2
RC0001063188076H202100015122549200015122549208/12/20210859    3190330723742196425000043485100001618510000000000000                GUANTE QUIRURGICO DE LATEX REF 2D72N65X CAJ X 50 PROTEXIS  6.5 BN EXENTO-DC.417/2020SOB     2
RC0001044671776H202100015122549200015122549208/12/20210859    3190330723742196425000043485100001618510000000000000                GUANTE QUIRURGICO DE LATEX REF 2D72N65X CAJ X 50 PROTEXIS  6.5 BN EXENTO-DC.417/2020SOB     2
RC0001046723141H202100015122549200015122549208/12/20210859    3190330723742196425000043485100001618510000000000000                GUANTE QUIRURGICO DE LATEX REF 2D72N65X CAJ X 50 PROTEXIS  6.5 BN EXENTO-DC.417/2020SOB     2
TI0001139433905H202100015122549200015122549208/12/20210859    3190330723742196425000013077800000471960000000000000                                                             GASA NO TEJIDA EST 7.5 X 7.5 SOB X 3 UNSOB     2
TI0001103512693H202100015122549200015122549208/12/20210859    3190330723742196425000013077800000471960000000000000                                                             GASA NO TEJIDA EST 7.5 X 7.5 SOB X 3 UNSOB     2
RC0001063188076H202100015122549200015122549208/12/20210859    3190330723742196425000013077800000471960000000000000                                                             GASA NO TEJIDA EST 7.5 X 7.5 SOB X 3 UNSOB     2
RC0001044671776H202100015122549200015122549208/12/20210859    3190330723742196425000013077800000471960000000000000                                                             GASA NO TEJIDA EST 7.5 X 7.5 SOB X 3 UNSOB     2
RC0001046723141H202100015122549200015122549208/12/20210859    3190330723742196425000013077800000471960000000000000                                                             GASA NO TEJIDA EST 7.5 X 7.5 SOB X 3 UNSOB     2
RC0001102897681H202100015122549200015122549208/12/20210859    3190330723742196425000013077800000471960000000000000                                                             GASA NO TEJIDA EST 7.5 X 7.5 SOB X 3 UNSOB     2
RC0001063188441H202100015122549200015122549208/12/20210859    3190330723742196425000013077800000471960000000000000                                                             GASA NO TEJIDA EST 7.5 X 7.5 SOB X 3 UNSOB     2
RC0001043033404H202100015122549200015122549208/12/20210859    3190330723742196425000013077800000471960000000000000                                                             GASA NO TEJIDA EST 7.5 X 7.5 SOB X 3 UNSOB     2
TI0001139433905H202100015122549200015122549208/12/20210859    31903307237421964250000E1AD0300000199490000000000000                                         LACTATO RINGER USP (HARTMANN)  SOL INY  BOL X 1000ML BAXTERBIN     2
RC0001044671776H202100015122549200015122549208/12/20210859    31903307237421964250000E1AB0700003888350000000000000                                                            SOLUCION SALINA 0.9% SLN INY BO X 250 MLBOL     1
RC0001046723141H202100015122549200015122549208/12/20210859    31903307237421964250000E1AB0700003888350000000000000                                                            SOLUCION SALINA 0.9% SLN INY BO X 250 MLBOL     2
TI0001139433905H202100015122549200015122549208/12/20210859    31903307237421964250000E1AB1100003888280000000000000                                                                        SOLUCION SALINA 0.9% X 50 mlBOL     1
TI0001103512693H202100015122549200015122549208/12/20210859    31903307237421964250000E1AB1100003888280000000000000                                                                        SOLUCION SALINA 0.9% X 50 mlBOL     1
RC0001063188076H202100015122549200015122549208/12/20210859    31903307237421964250000E1AB1100003888280000000000000                                                                        SOLUCION SALINA 0.9% X 50 mlBOL     1
RC0001044671776H202100015122549200015122549208/12/20210859    31903307237421964250000E1AB1100003888280000000000000                                                                        SOLUCION SALINA 0.9% X 50 mlBOL     1
RC0001046723141H202100015122549200015122549208/12/20210859    31903307237421964250000E1AB1100003888280000000000000                                                                        SOLUCION SALINA 0.9% X 50 mlBOL     1
RC0001102897681H202100015122549200015122549208/12/20210859    31903307237421964250000E1AB1100003888280000000000000                                                                        SOLUCION SALINA 0.9% X 50 mlBOL     1
RC0001063188441H202100015122549200015122549208/12/20210859    31903307237421964250000E1AB1100003888280000000000000                                                                        SOLUCION SALINA 0.9% X 50 mlBOL     1
RC0001043033404H202100015122549200015122549208/12/20210859    31903307237421964250000E1AB1100003888280000000000000                                                                        SOLUCION SALINA 0.9% X 50 mlBOL     1
TI0001103512693H202100015122549200015122549208/12/20210859    31903307237421964250000E1AC0100000199400000000000000                                                                          SUERO MIXTO Sln Iny 500 mlBIN     2
RC0001063188076H202100015122549200015122549208/12/20210859    31903307237421964250000E1AC0100000199400000000000000                                                                          SUERO MIXTO Sln Iny 500 mlBIN     2
RC0001044671776H202100015122549200015122549208/12/20210859    31903307237421964250000E1AC0100000199400000000000000                                                                          SUERO MIXTO Sln Iny 500 mlBIN     2
RC0001102897681H202100015122549200015122549208/12/20210859    31903307237421964250000E1AC0100000199400000000000000                                                                          SUERO MIXTO Sln Iny 500 mlBIN     1
RC0001063188441H202100015122549200015122549208/12/20210859    31903307237421964250000E1AC0100000199400000000000000                                                                          SUERO MIXTO Sln Iny 500 mlBIN     1
