CC0000022596813H202100000556682700000556682708/12/20211204     3300004237421964250000A03F0300001626860000000000000                                                                   METOCLOPRAMIDA SLN INY 10 MG/2 MLAMP     1
CC0000022596813H202100000556682700000556682708/12/20211106     3300004237421964250000A03F0300001626860000000000000                                                                   METOCLOPRAMIDA SLN INY 10 MG/2 MLAMP     1
CC0000022596813H202100000556682700000556682708/12/20211428     3300004237421964250000B1AB1400000718160000000000000                                                                  FRAXIPARINA SLN INY 3800 UI/0.4 MLJRP     2
CC0000022596813H202100000556682700000556682708/12/20211106     3300004237421964250000C3AA0100001315100000000000000                                                                         HIDROCLOROTIAZIDA TAB 25 MGTAB     1
CC0000022596813H202100000556682700000556682708/12/20211428     3300004237421964250000A03BB100003889180000000000000                                      HIOSCINA BUTIL BROMURO 20MG/ML SOL INY CAJ X 100AMP X 1ML RYANAMP     1
CC0000022596813H202100000556682700000556682708/12/20211106     3300004237421964250000A03BB100003889180000000000000                                      HIOSCINA BUTIL BROMURO 20MG/ML SOL INY CAJ X 100AMP X 1ML RYANAMP     3
CC0000022596813H202100000556682700000556682708/12/20211106     3300004237421964250000C08CA200001277660000000000000                                                                                 AMLODIPINO TAB 5 MGTAB     1
CC0000022596813H202100000556682700000556682708/12/20211204     3300004237421964250000J01CR200000947130000000000000                                                              AMPICILINA /SULBACTAN POLVO LIOF 1.5 GAMP     4
CC0000022596813H202100000556682700000556682708/12/20211443     3300004237421964250000N2BB0100001672010000000000000                                  DIPIRONA 1GR/2ML(0.5GR/ML) SOL INY INST CAJ X 100AMP X 2ML VITALISAMP     4
CC0000022596813H202100000556682700000556682708/12/20210505     3300009237421964250000A02BC700001684270000000000000                                                            OMEPRAZOL 40MG POLVO LIOFILIZADO AMPOLLAVAL     2
