CC0000022394093H202100920758120800920758120808/12/20211033    3150045223742196425000011048600000223020000000000000                                                                 JERINGA VACUNACION 3ML C/AGU 302542SIN     1
CC0000022394093H202100920758120800920758120808/12/20211033    3150045223742196425000016830000000970620000000000000                                                             SIST FIJACION CAT PERIFERICO 6.5X7 1683SOB     1
CC0000022394093H202100920758120800920758120808/12/20211033    31500452237421964250000Q1AA7300000610640000000000000                                                            CATETER PERIFE INTROCAN # 22G 4251628-04SIN     1
CC0000022394093H202100920758120800920758120808/12/20211033    3150045223742196425000001956000001620610000000000000                                                                      CONECTOR MICRO CLAVE LAT-MC100SOB     1
