RC0001063188076H202100000556694500000556694508/12/20211623     3300004237421964250000V3AB2200000614150000000000000                                                            GLUCONATO CALCIO SLN INY 10% AMP X 10 MLAPC     1
RC0001063188076H202100000556694500000556694508/12/20211340     3300004237421964250000V3AB2200000614150000000000000                                                            GLUCONATO CALCIO SLN INY 10% AMP X 10 MLAPC     1
RC0001063188076H202100000556694500000556694508/12/20210850     3300004237421964250000V3AB2200000614150000000000000                                                            GLUCONATO CALCIO SLN INY 10% AMP X 10 MLAPC     4
RC0001063188076H202100000556694500000556694508/12/20211658    31903307237421964250000E1AC0100000199400000000000000                                                                          SUERO MIXTO Sln Iny 500 mlBIN     2
RC0001063188076H202100000556694500000556694508/12/20212220    31901009237421964250000E1AB1100003888280000000000000                                                                        SOLUCION SALINA 0.9% X 50 mlBOL     1
RC0001063188076H202100000556694500000556694508/12/20211658    31903307237421964250000E1AB1100003888280000000000000                                                                        SOLUCION SALINA 0.9% X 50 mlBOL     1
RC0001063188076H202100000556694500000556694508/12/20211129    31903157237421964250000E1AB0200000199290000000000000                                                            SOLUCION SALINA 0.9% SLN INY BO X 100 MLBIN     3
RC0001063188076H202100000556694500000556694508/12/20211624     3300004237421964250000A12BA100000552980000000000000                                                            CLORURO POTASIO Sln Iny AMP 20 MEQ/10 MLAMP     1
RC0001063188076H202100000556694500000556694508/12/20210850     3300004237421964250000A12BA100000552980000000000000                                                            CLORURO POTASIO Sln Iny AMP 20 MEQ/10 MLAMP     4
RC0001063188076H202100000556694500000556694508/12/20210708    31902960237421964250000E1AA1400003888550000000000000                                                                         DEXTROSA 10% SLN INY 250 MLBOL     1
RC0001063188076H202100000556694500000556694508/12/20210910     3300004237421964250000C1CE0200000202230000000000000                                                                       COROTROPE SLN INY 10 MG/10 MLCIN     3
RC0001063188076H202100000556694500000556694508/12/20210851     3300004237421964250000C1CE0200000202230000000000000                                                                       COROTROPE SLN INY 10 MG/10 MLCIN    11
RC0001063188076H202100000556694500000556694508/12/20211057     3300004237421964250000C1CA0300000861740000000000000                                                                    DOPAMINA HCL SLN INY 200 MG/5 MLAMP     1
RC0001063188076H202100000556694500000556694508/12/20210851     3300004237421964250000C1CA0300000861740000000000000                                                                    DOPAMINA HCL SLN INY 200 MG/5 MLAMP     5
RC0001063188076H202100000556694500000556694508/12/20211808     3300004237421964250000H02A0100001664960000000000000                                                                        DEXAMETASONA SLN INY 4 MG/MLAMP     1
RC0001063188076H202100000556694500000556694508/12/20211057     3300004237421964250000H02A0100001664960000000000000                                                                        DEXAMETASONA SLN INY 4 MG/MLAMP     1
RC0001063188076H202100000556694500000556694508/12/20210845     3300004237421964250000H02A0100001664960000000000000                                                                        DEXAMETASONA SLN INY 4 MG/MLAMP     1
RC0001063188076H202100000556694500000556694508/12/20211808     3300004237421964250000J01XA400001212420000000000000                                                               VANCOMICINA POLVO LIOF SLN INY 500 MGVAL     1
RC0001063188076H202100000556694500000556694508/12/20211623     3300004237421964250000J01XA400001212420000000000000                                                               VANCOMICINA POLVO LIOF SLN INY 500 MGVAL     1
RC0001063188076H202100000556694500000556694508/12/20210850     3300004237421964250000J01XA400001212420000000000000                                                               VANCOMICINA POLVO LIOF SLN INY 500 MGVAL     1
RC0001063188076H202100000556694500000556694508/12/20211129    31903157237421964250000E1BA0100000198890000000000000                                                                   AGUA ESTERIL USP SLN INY X 500 MLBIN     1
RC0001063188076H202100000556694500000556694508/12/20211808     3300004237421964250000N1AH0200003906560000000000000                                                                     FENTANIL Iny 0.05 mg/ml x 10 mlAMP     1
RC0001063188076H202100000556694500000556694508/12/20211808     3300004237421964250000N2AA0100000301640000000000000                                                                            MORFINA Sln Iny 10 mg/mlAMP     1
RC0001063188076H202100000556694500000556694508/12/20211339     3300004237421964250000N2AA0100000301640000000000000                                                                            MORFINA Sln Iny 10 mg/mlAMP     1
RC0001063188076H202100000556694500000556694508/12/20211808     3300004237421964250000B02BA100000561560000000000000                                                                           VITAMINA K1 SLN INY 10 MGAMP     1
RC0001063188076H202100000556694500000556694508/12/20211057     3300004237421964250000B02BA100000561560000000000000                                                                           VITAMINA K1 SLN INY 10 MGAMP     1
RC0001063188076H202100000556694500000556694508/12/20210850     3300004237421964250000B02BA100000561560000000000000                                                                           VITAMINA K1 SLN INY 10 MGAMP     1
RC0001063188076H202100000556694500000556694508/12/20210851     3300004237421964250000R3CA0100001051880000000000000                                                               ADRENALINA HCL SLN INY 1 MG / ML ECARAMP     4
RC0001063188076H202100000556694500000556694508/12/20210845     3300004237421964250000R3CA0100001051880000000000000                                                               ADRENALINA HCL SLN INY 1 MG / ML ECARAMP     1
RC0001063188076H202100000556694500000556694508/12/20211057     3300004237421964250000C03C0100001672000000000000000                                                                       FUROSEMIDA SLN INY 20 MG/2 MLAMP     1
RC0001063188076H202100000556694500000556694508/12/20210852     3300004237421964250000C03C0100001672000000000000000                                                                       FUROSEMIDA SLN INY 20 MG/2 MLAMP     1
RC0001063188076H202100000556694500000556694508/12/20211808     3300004237421964250000N2BB0100001672010000000000000                                  DIPIRONA 1GR/2ML(0.5GR/ML) SOL INY INST CAJ X 100AMP X 2ML VITALISAMP     1
RC0001063188076H202100000556694500000556694508/12/20211057     3300004237421964250000N2BB0100001672010000000000000                                  DIPIRONA 1GR/2ML(0.5GR/ML) SOL INY INST CAJ X 100AMP X 2ML VITALISAMP     1
RC0001063188076H202100000556694500000556694508/12/20210852     3300004237421964250000N2BB0100001672010000000000000                                  DIPIRONA 1GR/2ML(0.5GR/ML) SOL INY INST CAJ X 100AMP X 2ML VITALISAMP     1
RC0001063188076H202100000556694500000556694508/12/20210852     3300004237421964250000A02BC700001684270000000000000                                                            OMEPRAZOL 40MG POLVO LIOFILIZADO AMPOLLAVAL     1
