CC0001082907687H202100000556701700000556701708/12/20211448    31902138237421964250000C08C0800001277870000000000000                                                                                NIFEDIPINO CAP 10 MGTAB     5
CC0001082907687H202100000556701700000556701708/12/20211518    31903290237421964250000H02A1900000189030000000000000                                                                          INFLACOR SLN INY 4 MG / MLAMP     1
CC0001082907687H202100000556701700000556701708/12/20211448    31902138237421964250000J01DB300000553200000000000000                                                                         CEFALOTINA SLN INY 1 G VIALVAL     1
CC0001082907687H202100000556701700000556701708/12/20211713    31903290237421964250000N02B1100001464120000000000000                                           PARACETAMOL EP 1000MG/100ML(10MG/ML) SOL INY  CAJ X 10FCOVAL     1
CC0001082907687H202100000556701700000556701708/12/20211448    31902138237421964250000N02B1100001464120000000000000                                           PARACETAMOL EP 1000MG/100ML(10MG/ML) SOL INY  CAJ X 10FCOVAL     1
CC0001082907687H202100000556701700000556701708/12/20211122    31903290237421964250000N5BB0300000554910000000000000                                                                         HIDERAX SLN INY 100 MG/2 MLAMP     1
