TI0001140879783U202100050131966900050131966908/12/20211457    3190296823942196432000012474600000232270000000000000                                                                  SUTURA ETHILON 6-0 SC-16 45CM 160TSIN     1
TI0001140879783U202100050131966900050131966908/12/20211457    3190296823942196432000011048600000223020000000000000                                                                 JERINGA VACUNACION 3ML C/AGU 302542SIN     1
TI0001140879783U202100050131966900050131966908/12/20211457    3190296823942196432000011047900000223010000000000000                                                                            JERINGA X 1ML REF 302579SIN     1
TI0001140879783U202100050131966900050131966908/12/20211457    3190296823942196432000011089300001083990000000000000                                                              GUANTE ESTERIL LATEX S/POLVO TALLA 7.5SOB     1
TI0001140879783U202100050131966900050131966908/12/20211457    3190296823942196432000013077800000471960000000000000                                                             GASA NO TEJIDA EST 7.5 X 7.5 SOB X 3 UNSOB     6
TI0001140879783U202100050131966900050131966908/12/20211457    31902968239421964320000E1AB0200000199290000000000000                                                            SOLUCION SALINA 0.9% SLN INY BO X 100 MLBIN     1
