RC0001187466818A202100000027850800000027850808/12/20211209    31903336240421964190000N01A0400003939010000000000000                                               MAYOPROFOL 200MG/20ML(1%) EMUL INY CAJ X 1VIAL X 20MLVAL     1
RC0001187466818A202100000027850800000027850808/12/20211209    31903336240421964190000N01A0500003844190000000000000                                                                          REMIFENTANILO SLN INY 2 MGVAL     1
RC0001187466818A202100000027850800000027850808/12/20211209    3190333624042196419000035643000000269260000000000000                                                                               MASCARA TRAQUEOSTOMIABOL     1
RC0001187466818A202100000027850800000027850808/12/20211209    3190333624042196419000035639600001014740000000000000                                                                              MASCARA VENTURY ADULTOBOL     1
RC0001187466818A202100000027850800000027850808/12/20211209    3190333624042196419000030161400001459220000000000000                                                                       MANGUERA SUCCION 6 MM*3.1 MTSSOB     2
RC0001187466818A202100000027850800000027850808/12/20211209    3190333624042196419000053074400000607910000000000000                                                               GASA ESTERIL 10*10 SOBRE X 3 UNIDADESSOB     3
RC0001187466818A202100000027850800000027850808/12/20211209    3190333624042196419000011073300001096420000000000000                                                                BOLSA DE SUCCION DE FLUIDOS x 2500mLBOL     1
RC0001187466818A202100000027850800000027850808/12/20211209    3190333624042196419000011085200001585390000000000000                                                                       GUANTE QUIRURGICO TALLA 7 1/2SOB     1
RC0001187466818A202100000027850800000027850808/12/20211209    3190333624042196419000011085100001082120000000000000                                                                           GUANTE QUIRURGICO TALLA 7SOB     1
RC0001187466818A202100000027850800000027850808/12/20211209    3190333624042196419000043485100001618510000000000000                GUANTE QUIRURGICO DE LATEX REF 2D72N65X CAJ X 50 PROTEXIS  6.5 BN EXENTO-DC.417/2020SOB     1
RC0001187466818A202100000027850800000027850808/12/20211209    3190333624042196419000038576600000256740000000000000                                                                        SONDA ASPIRACION CONTROL #12SIN     1
RC0001187466818A202100000027850800000027850808/12/20211209    3190333624042196419000000400100000258110000000000000                                                              TUBO ENDOTRAQUEAL 3.5 Fr C/BALON 86443SOB     1
RC0001187466818A202100000027850800000027850808/12/20211209    3190333624042196419000011099300000777780000000000000                                                                     FILTRO BACTERIANO VIRICO ADULTOBOL     1
RC0001187466818A202100000027850800000027850808/12/20211209    3190333624042196419000024673600000222980000000000000                                                                     JERINGA DESECHABLE 5 ml 27*11/2SIN     1
RC0001187466818A202100000027850800000027850808/12/20211209    31903336240421964190000E1AB0700003888350000000000000                                                            SOLUCION SALINA 0.9% SLN INY BO X 250 MLBOL     1
RC0001187466818A202100000027850800000027850808/12/20211209    31903336240421964190000N1AX0100003889000000000000000                                                                       KETAMINA Iny 50 mg/ml x 10 mlVAL     1
RC0001187466818A202100000027850800000027850808/12/20211209    3190333624042196419000011005100001591590000000000000                                                                  CANULA TRAQUEOSTOMIA SIN BALON 4.5SOB     1
