RC0001236888595U202100000556707300000556707308/12/20211453    31902968239421964320000E1AD0300000199490000000000000                                         LACTATO RINGER USP (HARTMANN)  SOL INY  BOL X 1000ML BAXTERBIN     1
RC0001236888595U202100000556707300000556707308/12/20211336     3300010239421964320000J1CB0600000468340000000000000                                                           UNASYN IM-IV (1+0.5)GR POLV INY INST VIALVAL     1
RC0001236888595U202100000556707300000556707308/12/20211632     3300010239421964320000N02B1100001464120000000000000                                           PARACETAMOL EP 1000MG/100ML(10MG/ML) SOL INY  CAJ X 10FCOVAL     1
RC0001236888595U202100000556707300000556707308/12/20211336     3300010239421964320000R03A0400000555900000000000000                                                              SALBUTAN Inh 100 mcg/dosis x 200 DosisFCO     1
