CC0001048208465U202100050131960200050131960208/12/20210032    3190093023942196432000012475500000232250000000000000                                                                 SUTURA ETHILON 5-0 PS-2 45CM P1666TSIN     1
CC0001048208465U202100050131960200050131960208/12/20210032    3190093023942196432000011048600000223020000000000000                                                                 JERINGA VACUNACION 3ML C/AGU 302542SIN     3
CC0001048208465U202100050131960200050131960208/12/20210032    3190093023942196432000024673600000222980000000000000                                                                     JERINGA DESECHABLE 5 ml 27*11/2SIN     1
CC0001048208465U202100050131960200050131960208/12/20210032    3190093023942196432000011089100001083330000000000000                                                              GUANTE ESTERIL LATEX S/POLVO TALLA 6.5SOB     1
CC0001048208465U202100050131960200050131960208/12/20210032    3190093023942196432000013077800000471960000000000000                                                             GASA NO TEJIDA EST 7.5 X 7.5 SOB X 3 UNSOB     8
CC0001048208465U202100050131960200050131960208/12/20210032    31900930239421964320000E1AB0700003888350000000000000                                                            SOLUCION SALINA 0.9% SLN INY BO X 250 MLBOL     1
