CC0000030649196U202100050131965300050131965308/12/20211249    3190319023942196432000024673600000222980000000000000                                                                     JERINGA DESECHABLE 5 ml 27*11/2SIN     1
CC0000030649196U202100050131965300050131965308/12/20211249    3190319023942196432000022426800001140510000000000000                                                                    EQUIPO MACROGOTEO BAXTER MRC0001SOB     1
CC0000030649196U202100050131965300050131965308/12/20211249    3190319023942196432000001956000001620610000000000000                                                                      CONECTOR MICRO CLAVE LAT-MC100SOB     1
CC0000030649196U202100050131965300050131965308/12/20211249    31903190239421964320000Q1AA7200000610630000000000000                                                            CATETER PERIFE INTROCAN # 20G 4251644-04SIN     1
CC0000030649196U202100050131965300050131965308/12/20211249    3190319023942196432000016830000000970620000000000000                                                             SIST FIJACION CAT PERIFERICO 6.5X7 1683SOB     1
CC0000030649196U202100050131965300050131965308/12/20211249    31903190239421964320000E1AB0200000199290000000000000                                                            SOLUCION SALINA 0.9% SLN INY BO X 100 MLBIN     1
