CC0000022310952H202100921843120800921843120808/12/20211925    3190115623742196425000016830000000970620000000000000                                                             SIST FIJACION CAT PERIFERICO 6.5X7 1683SOB     1
CC0000022310952H202100921843120800921843120808/12/20211925    31901156237421964250000Q1AA7300000610640000000000000                                                            CATETER PERIFE INTROCAN # 22G 4251628-04SIN     1
CC0000022310952H202100921843120800921843120808/12/20211925    3190115623742196425000001956000001620610000000000000                                                                      CONECTOR MICRO CLAVE LAT-MC100SOB     1
CC0000022310952H202100921843120800921843120808/12/20211925    31901156237421964250000Q1AA7400003911720000000000000                                                            CATETER PERIFE INTROCAN # 24G 4251601-04SOB     1
CC0000022310952H202100921843120800921843120808/12/20212102    3150047823742196425000024672100001609890000000000000                                                            JERINGA INSULINA 1ML TAPA NARANJA JEI013SOB    10
CC0000022310952H202100921843120800921843120808/12/20212102    31500478237421964250000E1AA0800000322190000000000000                                                                          DEXTROSA 5% Sln Iny 250 mlBIN     3
