CC0001045670902H202100015032654100015032654108/12/20211923    3190115623742196425000011082700001620070000000000000                                                               EQUIPO SET PRIMARIO C/CLAVE REF 14001BOL     1
RC0001043476962H202100015032654100015032654108/12/20211923    3190115623742196425000011082700001620070000000000000                                                               EQUIPO SET PRIMARIO C/CLAVE REF 14001BOL     1
CC0000064541334H202100015032654100015032654108/12/20211923    3190115623742196425000011082700001620070000000000000                                                               EQUIPO SET PRIMARIO C/CLAVE REF 14001BOL     1
CC0000022310952H202100015032654100015032654108/12/20211923    3190115623742196425000001956000001620610000000000000                                                                      CONECTOR MICRO CLAVE LAT-MC100SOB     1
CC0000022310952H202100015032654100015032654108/12/20211923    31901156237421964250000Q1AA7300000610640000000000000                                                            CATETER PERIFE INTROCAN # 22G 4251628-04SIN     1
CC0000022310952H202100015032654100015032654108/12/20211923    31901156237421964250000Q1AA7400003911720000000000000                                                            CATETER PERIFE INTROCAN # 24G 4251601-04SOB     1
CC0001045670902H202100015032654100015032654108/12/20211923    3190115623742196425000030936900001431840000000000000                                                                                              BURETABOL     1
RC0001043476962H202100015032654100015032654108/12/20211923    3190115623742196425000030936900001431840000000000000                                                                                              BURETABOL     1
CC0000064541334H202100015032654100015032654108/12/20211923    3190115623742196425000030936900001431840000000000000                                                                                              BURETABOL     1
CC0000022310952H202100015032654100015032654108/12/20211923    3190115623742196425000016830000000970620000000000000                                                             SIST FIJACION CAT PERIFERICO 6.5X7 1683SOB     1
TI0001044221346H202100015032654100015032654108/12/20211923    31901156237421964250000E1AD0300000199490000000000000                                         LACTATO RINGER USP (HARTMANN)  SOL INY  BOL X 1000ML BAXTERBIN     3
