TI0001139433905H202100000556711200000556711208/12/20211806     3300004237421964250000A2BX0100001277280000000000000                                                                                ALSUCRAL TAB 1 G /R/TAB     1
TI0001139433905H202100000556711200000556711208/12/20211805     3300004237421964250000A2BX0100001277280000000000000                                                                                ALSUCRAL TAB 1 G /R/TAB     4
TI0001139433905H202100000556711200000556711208/12/20211700    31903307237421964250000E1AB1100003888280000000000000                                                                        SOLUCION SALINA 0.9% X 50 mlBOL     1
TI0001139433905H202100000556711200000556711208/12/20211700    31903307237421964250000E1AD0300000199490000000000000                                         LACTATO RINGER USP (HARTMANN)  SOL INY  BOL X 1000ML BAXTERBIN     2
