TI0001141320302H202100000556690900000556690908/12/20211059     3300004237421964250000A02B0500001335110000000000000                                                                                LOSEC MUPS Tab 20 mgTAB     2
TI0001141320302H202100000556690900000556690908/12/20211827    31902949237421964250000E1AB0200000199290000000000000                                                            SOLUCION SALINA 0.9% SLN INY BO X 100 MLBIN     2
TI0001141320302H202100000556690900000556690908/12/20211411    31902949237421964250000E1AD0300000199490000000000000                                         LACTATO RINGER USP (HARTMANN)  SOL INY  BOL X 1000ML BAXTERBIN     1
TI0001141320302H202100000556690900000556690908/12/20210955    31903331237421964250000E1AD0300000199490000000000000                                         LACTATO RINGER USP (HARTMANN)  SOL INY  BOL X 1000ML BAXTERBIN     1
TI0001141320302H202100000556690900000556690908/12/20211059     3300004237421964250000C7AB1500001277290000000000000                                                                        BETALOC ZOK TAB LM 50 MG /R/TAB     3
TI0001141320302H202100000556690900000556690908/12/20211059     3300004237421964250000C7FA0100001277270000000000000                                                                                     NORVAS TAB 5 MGTAB     3
TI0001141320302H202100000556690900000556690908/12/20211450     3300004237421964250000S2BA1400000947290000000000000                                                            SOLU MEDROL POLVO SLN INY 500 MG/4 ML/R/VAL     1
TI0001141320302H202100000556690900000556690908/12/20210926     3300004237421964250000S2BA1400000947290000000000000                                                            SOLU MEDROL POLVO SLN INY 500 MG/4 ML/R/VAL     1
TI0001141320302H202100000556690900000556690908/12/20211451     3300004237421964250000N2BE0100001276930000000000000                                                                                    DOLEX TAB 500 MGTAB     1
TI0001141320302H202100000556690900000556690908/12/20211059     3300004237421964250000N2BE0100001276930000000000000                                                                                    DOLEX TAB 500 MGTAB     5
TI0001141320302H202100000556690900000556690908/12/20210925     3300004237421964250000N2BB1100000217160000000000000                                                                      NOVALGINA Sln Iny 2.5 g x 5 mlAMP     1
TI0001141320302H202100000556690900000556690908/12/20210451     3300009237421964250000N2BB1100000217160000000000000                                                                      NOVALGINA Sln Iny 2.5 g x 5 mlAMP     1
TI0001141320302H202100000556690900000556690908/12/20211059     3300004237421964250000P02CA100001408960000000000000                                                                                   ZENTEL TAB 400 MGCAJ     2
TI0001141320302H202100000556690900000556690908/12/20211019    31903331237421964250000V07A1300000502600000000000000                                                                                AGUA ESTERIL x 10 mlAMP     5
