PA00000HB600782A202100000027842600000027842608/12/20210920    31903336240421964190000A4AD0200000202990000000000000                                                                     PLITICAN HCL Sln Iny 50 mg/2 mlAMP     1
PA00000HB600782A202100000027842600000027842608/12/20210920    3190333624042196419000017565400000232590000000000000                                                                             PROLENE 1 75 CT-1 8425HSIN     2
PA00000HB600782A202100000027842600000027842608/12/20210920    31903336240421964190000E1AB0200000199290000000000000                                                            SOLUCION SALINA 0.9% SLN INY BO X 100 MLBIN     3
PA00000HB600782A202100000027842600000027842608/12/20210920    3190333624042196419000033485000001049200000000000000                                                                           GUANTE QUIRURGICO TALLA 6SOB     2
PA00000HB600782A202100000027842600000027842608/12/20210920    3190333624042196419000015994600000632480000000000000                                                                          MONOCRYL 4-0 PS-2 45 Y496GSIN     4
PA00000HB600782A202100000027842600000027842608/12/20210920    3190333624042196419000015944000000632490000000000000                                                                           MONOCRYL 3-0 PS2  MCP427HSIN     5
PA00000HB600782A202100000027842600000027842608/12/20210920    3190333624042196419000019487500000602970000000000000                                                                           VICRYL 2-0 CT1 90 VCP345HSIN     4
PA00000HB600782A202100000027842600000027842608/12/20210920    3190333624042196419000017280100004015080000000000000 SUTURA MONOFIL ABSORBIBLE SH REF PDP316H CAJ X 36 PDS PLUS 70CM - 3-0 VIOLETA BN EXENTO-DC.417/2020SOB     1
PA00000HB600782A202100000027842600000027842608/12/20210920    3190333624042196419000000503600004015180000000000000         SUTURA MONOFIL ABSORBIBLE CT-1 REF PDP340H CAJ X 36 PDS PLUS 70CM - 0 BN EXENTO-DC.417/2020SOB     2
PA00000HB600782A202100000027842600000027842608/12/20210920    3190333624042196419000018351100000232850000000000000                                                                                 SEDA 2-0 SC-26 185TSIN     3
PA00000HB600782A202100000027842600000027842608/12/20210920    3190333624042196419000012474000000232230000000000000                                                                SUTURA ETHILON 4-0 SC-20 45CM 14502TSIN     2
PA00000HB600782A202100000027842600000027842608/12/20210920    3190333624042196419000012473200000232210000000000000                                                                 SUTURA ETHILON 3-0 SC-24 45CM  163TSIN     1
PA00000HB600782A202100000027842600000027842608/12/20210920    3190333624042196419000043879100001138200000000000000                                                                  HOJA BISTURI # 15 CSSB 15 01002003SOB     2
PA00000HB600782A202100000027842600000027842608/12/20210920    3190333624042196419000043879200001138180000000000000                                                                                   HOJA BISTURI # 11SOB     1
PA00000HB600782A202100000027842600000027842608/12/20210920    3190333624042196419000043879400001138170000000000000                                                                  HOJA BISTURI # 10 CSSB 10 01002000SOB     2
PA00000HB600782A202100000027842600000027842608/12/20210920    3190333624042196419000045138000001413890000000000000                                                                       LAPIZ ELECTROBISTURI  SOB X 1SOB     2
PA00000HB600782A202100000027842600000027842608/12/20210920    31903336240421964190000R3CA0400000777470000000000000                                                               ADRENALINA HCL SLN INY 1 MG / ML RYANAMP     6
PA00000HB600782A202100000027842600000027842608/12/20210920    31903336240421964190000N01B1300001195250000000000000                                                                         BUPIROP 0.5% S/EPIN X 10 MLAMP     1
PA00000HB600782A202100000027842600000027842608/12/20210920    31903336240421964190000E1AB0300003888390000000000000                                                            SOLUCION SALINA 0.9% SLN INY BO X 500 MLBOL     2
PA00000HB600782A202100000027842600000027842608/12/20210920    31903336240421964190000E1AD0300000199490000000000000                                         LACTATO RINGER USP (HARTMANN)  SOL INY  BOL X 1000ML BAXTERBIN     4
PA00000HB600782A202100000027842600000027842608/12/20210920    31903336240421964190000J01DA300001239950000000000000                                                            CEFAZOLINA SODICA POLVO LIOF SLN INY 1 GVAL     2
PA00000HB600782A202100000027842600000027842608/12/20210920    3190333624042196419000016830000000970620000000000000                                                             SIST FIJACION CAT PERIFERICO 6.5X7 1683SOB     1
PA00000HB600782A202100000027842600000027842608/12/20210920    31903336240421964190000Q1AA7100000610620000000000000                                                            CATETER PERIFE INTROCAN # 18G 4251687-04SIN     1
PA00000HB600782A202100000027842600000027842608/12/20210920    3190333624042196419000035356500003919000000000000000                                                                                        LLAVE 3 VIASSOB     1
PA00000HB600782A202100000027842600000027842608/12/20210920    3190333624042196419000022425200000548240000000000000                       EXTENSION DE ANESTESIA REF 1139 SOB X 1 SHERLEG  ADULTO BN EXENTO-DC.417/2020SIN     1
PA00000HB600782A202100000027842600000027842608/12/20210920    3190333624042196419000022426800001140510000000000000                                                                    EQUIPO MACROGOTEO BAXTER MRC0001SOB     2
PA00000HB600782A202100000027842600000027842608/12/20210920    3190333624042196419000020750600000296780000000000000                                                                PLACA ELECTRO RETORNO PACIENTE E7506SIN     2
PA00000HB600782A202100000027842600000027842608/12/20210920    3190333624042196419000038569900001124970000000000000                                                                              SONDA FOLEY #14 2 VIASSOB     1
PA00000HB600782A202100000027842600000027842608/12/20210920    3190333624042196419000031188000000236790000000000000                                                                                     CISTOFLO ADULTOSIN     1
PA00000HB600782A202100000027842600000027842608/12/20210920    3190333624042196419000011082600000265810000000000000                                                              EQUIPO IRRIGACION URINARIA REF MRC4002SOB     1
PA00000HB600782A202100000027842600000027842608/12/20210920    3190333624042196419000024674500000322810000000000000                                                                   JERINGA DESECHABLE 20 ml 21*1 1/2SIN     2
PA00000HB600782A202100000027842600000027842608/12/20210920    3190333624042196419000024674000001138340000000000000   JERINGA 3PARTES C/A 10ML REF JEHL005 CAJ X 100 ALFASAFE  21GX1 PULG 1/2 PULG BN EXENTO-DC.417/202PZA     6
PA00000HB600782A202100000027842600000027842608/12/20210920    3190333624042196419000024673600000222980000000000000                                                                     JERINGA DESECHABLE 5 ml 27*11/2SIN     7
PA00000HB600782A202100000027842600000027842608/12/20210920    3190333624042196419000024673000001411210000000000000                                                                  JERINGA DESECHABLE 3 ML 21 X 1 1/2SOB     3
PA00000HB600782A202100000027842600000027842608/12/20210920    3190333624042196419000053074400000607910000000000000                                                               GASA ESTERIL 10*10 SOBRE X 3 UNIDADESSOB     7
PA00000HB600782A202100000027842600000027842608/12/20210920    3190333624042196419000039175000001072050000000000000                                                                           TUBO ENDOTRAQUEAL C/B 7.0SOB     1
PA00000HB600782A202100000027842600000027842608/12/20210920    3190333624042196419000051515500000598160000000000000                                                                            MASCARILLA ANESTESIA # 5SIN     1
PA00000HB600782A202100000027842600000027842608/12/20210920    3190333624042196419000038568100000258050000000000000                                                                         CANULA OXIGENO NASAL ADULTOSIN     1
PA00000HB600782A202100000027842600000027842608/12/20210920    3190333624042196419000031010900000762730000000000000                                                                          CANULA GUEDEL # 4 (100 MM)SOB     1
PA00000HB600782A202100000027842600000027842608/12/20210920    3190333624042196419000011099300000777780000000000000                                                                     FILTRO BACTERIANO VIRICO ADULTOBOL     1
PA00000HB600782A202100000027842600000027842608/12/20210920    3190333624042196419000011085200001585390000000000000                                                                       GUANTE QUIRURGICO TALLA 7 1/2SOB     2
PA00000HB600782A202100000027842600000027842608/12/20210920    3190333624042196419000011085100001082120000000000000                                                                           GUANTE QUIRURGICO TALLA 7SOB     4
PA00000HB600782A202100000027842600000027842608/12/20210920    3190333624042196419000043485100001618510000000000000                GUANTE QUIRURGICO DE LATEX REF 2D72N65X CAJ X 50 PROTEXIS  6.5 BN EXENTO-DC.417/2020SOB    12
PA00000HB600782A202100000027842600000027842608/12/20210920    31903336240421964190000E1AD0200003888320000000000000                                                                              HARTMAN SLN INY 500 MLBOL     6
PA00000HB600782A202100000027842600000027842608/12/20210920    31903336240421964190000E1AB0700003888350000000000000                                                            SOLUCION SALINA 0.9% SLN INY BO X 250 MLBOL     3
PA00000HB600782A202100000027842600000027842608/12/20210920    31903336240421964190000E1AB0500003888400000000000000                                                              SOLUCION SALINA 0.9% SLN INY X 1000 MLBOL     6
PA00000HB600782A202100000027842600000027842608/12/20210920    31903336240421964190000N02B1100001464120000000000000                                           PARACETAMOL EP 1000MG/100ML(10MG/ML) SOL INY  CAJ X 10FCOVAL     1
PA00000HB600782A202100000027842600000027842608/12/20210920    31903336240421964190000M1AX0200001569410000000000000                                                                         KETRON SLN INY 30 MG / 2 MLAMP     1
PA00000HB600782A202100000027842600000027842608/12/20210920    31903336240421964190000N2BB1100000217160000000000000                                                                      NOVALGINA Sln Iny 2.5 g x 5 mlAMP     1
PA00000HB600782A202100000027842600000027842608/12/20210920    31903336240421964190000N2AA0400003888080000000000000                                                                     DEMEROL HCL Sln Iny 100 mg/2 mlAMP     1
PA00000HB600782A202100000027842600000027842608/12/20210920    31903336240421964190000N1BA2400001687720000000000000                                                    LIDOCAINA 2% SOL INY  CAJ X 50AMP X 10ML CORPAULAMP     1
PA00000HB600782A202100000027842600000027842608/12/20210920    31903336240421964190000C01C0300001261020000000000000                                                               ETILEFRINA HCL SLN INY 10 MG/1 ML /R/AMP     2
PA00000HB600782A202100000027842600000027842608/12/20210920    31903336240421964190000H02AB500001664950000000000000                                                            DEXAMETASONA SLN INY 8 MG/2 ML AMP /CDS/AMP     2
PA00000HB600782A202100000027842600000027842608/12/20210920    31903336240421964190000A2BC0900000200150000000000000                                                                               ORAZOLE Sln Iny 40 mgCIN     1
PA00000HB600782A202100000027842600000027842608/12/20210920    31903336240421964190000A03F0300001626860000000000000                                                                   METOCLOPRAMIDA SLN INY 10 MG/2 MLAMP     1
PA00000HB600782A202100000027842600000027842608/12/20210920    31903336240421964190000N01A0400003939010000000000000                                               MAYOPROFOL 200MG/20ML(1%) EMUL INY CAJ X 1VIAL X 20MLVAL     1
PA00000HB600782A202100000027842600000027842608/12/20210920    31903336240421964190000M3AC0600000720540000000000000                                                                         ESMERON SLN INY 50 MG /5 MLVAL     1
PA00000HB600782A202100000027842600000027842608/12/20210920    31903336240421964190000N2AA0700001587170000000000000                                                                                 ULTIVA Sln Iny 2 mgVAL     4
PA00000HB600782A202100000027842600000027842608/12/20210920    31903336240421964190000N1AH0200003906560000000000000                                                                     FENTANIL Iny 0.05 mg/ml x 10 mlAMP     1
