CC0001004298695U202100050131964900050131964908/12/20211202    31500658239421964320000Q1AA7000001097160000000000000                                                            CATETER PERIFE INTROCAN # 16G 4251709-04SOB     1
CC0001004298695U202100050131964900050131964908/12/20211202    3150065823942196432000011082700001620070000000000000                                                               EQUIPO SET PRIMARIO C/CLAVE REF 14001BOL     1
CC0001004298695U202100050131964900050131964908/12/20211202    3150065823942196432000016830000000970620000000000000                                                             SIST FIJACION CAT PERIFERICO 6.5X7 1683SOB     1
CC0001004298695U202100050131964900050131964908/12/20211202    31500658239421964320000E1AD0300000199490000000000000                                         LACTATO RINGER USP (HARTMANN)  SOL INY  BOL X 1000ML BAXTERBIN     1
