PA0000YB8610818U202100000556712600000556712608/12/20211723     3300010239421964320000A4AD0200000202990000000000000                                                                     PLITICAN HCL Sln Iny 50 mg/2 mlAMP     1
PA0000YB8610818U202100000556712600000556712608/12/20211729    31903190239421964320000E1AD0200003888320000000000000                                                                              HARTMAN SLN INY 500 MLBOL     1
PA0000YB8610818U202100000556712600000556712608/12/20211923     3300010239421964320000A07C0500001628790000000000000                                                                          PEDIALYTE 45 C/ZINC 500 mlFCO     1
PA0000YB8610818U202100000556712600000556712608/12/20211949     3300010239421964320000A04AA200003932460000000000000                                                 ONDAX 4MG/2ML(2MG/ML) SOL INY INST CAJ X 1AMP X 2MLAMP     1
