CC0000007413293H202100000556683900000556683908/12/20210901     3300004237421964250000B1AB0200003939510000000000000                 ENOXAPARINA SODICA 40MG/0.4ML(100MG/ML) SOL INY INST CAJ X 2JERPREL X 0.4ML TECHDOWJRP     1
CC0000007413293H202100000556683900000556683908/12/20210901     3300004237421964250000N02B0300001277700000000000000                                                                           CARDIOASPIRINA TAB 100 MGTAB     1
CC0000007413293H202100000556683900000556683908/12/20212304     3300004237421964250000C3CA0200000195520000000000000                                                                           LASIX SLN INY 20 MG/ 2 MLAMP     1
CC0000007413293H202100000556683900000556683908/12/20210901     3300004237421964250000C3CA0200000195520000000000000                                                                           LASIX SLN INY 20 MG/ 2 MLAMP     1
CC0000007413293H202100000556683900000556683908/12/20210025     3300009237421964250000C3CA0200000195520000000000000                                                                           LASIX SLN INY 20 MG/ 2 MLAMP     1
CC0000007413293H202100000556683900000556683908/12/20210901     3300004237421964250000C07A0100001277830000000000000                                                                           DILATREND TAB 12.5 MG /R/TAB     2
CC0000007413293H202100000556683900000556683908/12/20210901     3300004237421964250000B4AD0700001277600000000000000                                                                                   LIPITOR TAB 20 MGTAB     1
CC0000007413293H202100000556683900000556683908/12/20212305     3300004237421964250000J05A3200001313890000000000000                                                                                ZINTERGIA CAP 100 MGTAB     1
CC0000007413293H202100000556683900000556683908/12/20211710     3300004237421964250000N04B0500001315340000000000000                                                                    STALEVO Grag 100 MG/25 MG/200 MGCOM     4
