CC0000022438763H202100015052810100015052810108/12/20210914    3190099723742196425000045136100001419300000000000000                                                                            LANCETA DEXTROMETER X UNPZA     3
CC0000022530541H202100015052810100015052810108/12/20210914    3190099723742196425000045136100001419300000000000000                                                                            LANCETA DEXTROMETER X UNPZA     3
RC0001187466818H202100015052810100015052810108/12/20210914    3190099723742196425000011082700001620070000000000000                                                               EQUIPO SET PRIMARIO C/CLAVE REF 14001BOL     1
RC0001201287147H202100015052810100015052810108/12/20210914    3190099723742196425000011082700001620070000000000000                                                               EQUIPO SET PRIMARIO C/CLAVE REF 14001BOL     1
CC0000022530541H202100015052810100015052810108/12/20210914    3190099723742196425000001956000001620610000000000000                                                                      CONECTOR MICRO CLAVE LAT-MC100SOB     1
CC0000022530541H202100015052810100015052810108/12/20210914    31900997237421964250000Q1AA7300000610640000000000000                                                            CATETER PERIFE INTROCAN # 22G 4251628-04SIN     1
RC0001187466818H202100015052810100015052810108/12/20210914    3190099723742196425000030936900001431840000000000000                                                                                              BURETABOL     1
RC0001201287147H202100015052810100015052810108/12/20210914    3190099723742196425000030936900001431840000000000000                                                                                              BURETABOL     1
CC0000022530541H202100015052810100015052810108/12/20210914    3190099723742196425000016830000000970620000000000000                                                             SIST FIJACION CAT PERIFERICO 6.5X7 1683SOB     1
RC0001187466818H202100015052810100015052810108/12/20210914    31900997237421964250000E1AC0100000199400000000000000                                                                          SUERO MIXTO Sln Iny 500 mlBIN     1
RC0001084457432H202100015052810100015052810108/12/20210914    31900997237421964250000E1AC0100000199400000000000000                                                                          SUERO MIXTO Sln Iny 500 mlBIN     1
CC0000022438763H202100015052810100015052810108/12/20210914    3190099723742196425000011137100001419310000000000000                                                               TIRA GLUCOMETRIA FREESTYLE H OPTIUM .PZA     3
CC0000022530541H202100015052810100015052810108/12/20210914    3190099723742196425000011137100001419310000000000000                                                               TIRA GLUCOMETRIA FREESTYLE H OPTIUM .PZA     3
CC0000022438763H202100015052810100015052810108/12/20210914    3190099723742196425000011127400001413910000000000000                                                            EQUIPO ADMINIST NUTR PUNZON REF 674669 BBOL     1
