CC0000072052898U202100050131971900050131971908/12/20212126    3150054723942196432000011082700001620070000000000000                                                               EQUIPO SET PRIMARIO C/CLAVE REF 14001BOL     1
CC0000072052898U202100050131971900050131971908/12/20212126    3150054723942196432000030936900001431840000000000000                                                                                              BURETABOL     1
CC0000072052898U202100050131971900050131971908/12/20212126    31500547239421964320000E1AD0300000199490000000000000                                         LACTATO RINGER USP (HARTMANN)  SOL INY  BOL X 1000ML BAXTERBIN     1
