CC0000022265715H202100000556698300000556698308/12/20211031     3300004237421964250000B1AB0200003939510000000000000                 ENOXAPARINA SODICA 40MG/0.4ML(100MG/ML) SOL INY INST CAJ X 2JERPREL X 0.4ML TECHDOWJRP     1
CC0000022265715H202100000556698300000556698308/12/20210955    31903331237421964250000E1AB0500003888400000000000000                                                              SOLUCION SALINA 0.9% SLN INY X 1000 MLBOL     2
CC0000022265715H202100000556698300000556698308/12/20211030     3300004237421964250000A12BA100000552980000000000000                                                            CLORURO POTASIO Sln Iny AMP 20 MEQ/10 MLAMP     4
CC0000022265715H202100000556698300000556698308/12/20211135     3300004237421964250000V6DB4800000563080000000000000                                                                            OSMOLITE HN PLUS x 8 OnzLAT     1
CC0000022265715H202100000556698300000556698308/12/20211031     3300004237421964250000V6DB4800000563080000000000000                                                                            OSMOLITE HN PLUS x 8 OnzLAT     3
CC0000022265715H202100000556698300000556698308/12/20211031     3300004237421964250000C03C0100001672000000000000000                                                                       FUROSEMIDA SLN INY 20 MG/2 MLAMP     1
CC0000022265715H202100000556698300000556698308/12/20211031     3300004237421964250000N2BE2200001252930000000000000                                                                             ACETAMINOFEN Tab 500 MGTAB     4
CC0000022265715H202100000556698300000556698308/12/20211031     3300004237421964250000A02BC700001684270000000000000                                                            OMEPRAZOL 40MG POLVO LIOFILIZADO AMPOLLAVAL     1
CC0000022265715H202100000556698300000556698308/12/20211018    31903331237421964250000V07A1300000502600000000000000                                                                                AGUA ESTERIL x 10 mlAMP     5
