CC0000022352292H202100015112745900015112745908/12/20211038    3190294023742196425000045136100001419300000000000000                                                                            LANCETA DEXTROMETER X UNPZA     3
CC0000003745864H202100015112745900015112745908/12/20211038    3190294023742196425000045136100001419300000000000000                                                                            LANCETA DEXTROMETER X UNPZA     3
CC0000022362807H202100015112745900015112745908/12/20211038    3190294023742196425000045136100001419300000000000000                                                                            LANCETA DEXTROMETER X UNPZA     3
CC0000072339909H202100015112745900015112745908/12/20211038    3190294023742196425000045136100001419300000000000000                                                                            LANCETA DEXTROMETER X UNPZA     3
CC0000032776593H202100015112745900015112745908/12/20211038    3190294023742196425000045136100001419300000000000000                                                                            LANCETA DEXTROMETER X UNPZA     3
CC0001066890191H202100015112745900015112745908/12/20211038    3190294023742196425000045136100001419300000000000000                                                                            LANCETA DEXTROMETER X UNPZA     3
CC0000007444684H202100015112745900015112745908/12/20211038    3190294023742196425000045136100001419300000000000000                                                                            LANCETA DEXTROMETER X UNPZA     3
CC0000022352292H202100015112745900015112745908/12/20211038    3190294023742196425000024674000001138340000000000000   JERINGA 3PARTES C/A 10ML REF JEHL005 CAJ X 100 ALFASAFE  21GX1 PULG 1/2 PULG BN EXENTO-DC.417/202PZA    10
CC0000003745864H202100015112745900015112745908/12/20211038    3190294023742196425000024674000001138340000000000000   JERINGA 3PARTES C/A 10ML REF JEHL005 CAJ X 100 ALFASAFE  21GX1 PULG 1/2 PULG BN EXENTO-DC.417/202PZA    10
CC0000022362807H202100015112745900015112745908/12/20211038    3190294023742196425000024674000001138340000000000000   JERINGA 3PARTES C/A 10ML REF JEHL005 CAJ X 100 ALFASAFE  21GX1 PULG 1/2 PULG BN EXENTO-DC.417/202PZA    10
CC0000072339909H202100015112745900015112745908/12/20211038    3190294023742196425000024674000001138340000000000000   JERINGA 3PARTES C/A 10ML REF JEHL005 CAJ X 100 ALFASAFE  21GX1 PULG 1/2 PULG BN EXENTO-DC.417/202PZA    10
CC0000032776593H202100015112745900015112745908/12/20211038    3190294023742196425000024674000001138340000000000000   JERINGA 3PARTES C/A 10ML REF JEHL005 CAJ X 100 ALFASAFE  21GX1 PULG 1/2 PULG BN EXENTO-DC.417/202PZA    10
CC0001066890191H202100015112745900015112745908/12/20211038    3190294023742196425000024674000001138340000000000000   JERINGA 3PARTES C/A 10ML REF JEHL005 CAJ X 100 ALFASAFE  21GX1 PULG 1/2 PULG BN EXENTO-DC.417/202PZA    10
CC0000007444684H202100015112745900015112745908/12/20211038    3190294023742196425000024674000001138340000000000000   JERINGA 3PARTES C/A 10ML REF JEHL005 CAJ X 100 ALFASAFE  21GX1 PULG 1/2 PULG BN EXENTO-DC.417/202PZA    10
CC0000032776593H202100015112745900015112745908/12/20211038    3190294023742196425000013077800000471960000000000000                                                             GASA NO TEJIDA EST 7.5 X 7.5 SOB X 3 UNSOB     3
CC0000032776593H202100015112745900015112745908/12/20211038    3190294023742196425000041996000000422750000000000000                                                                             DUODERM Gel Tubo x 30 gTUB     1
CC0000032776593H202100015112745900015112745908/12/20211038    3190294023742196425000021593100001571610000000000000                                                                    AQUACEL AG+ EXTRA 10*10CM 413567SOB     1
CC0000022362807H202100015112745900015112745908/12/20211038    31902940237421964250000E1AD0300000199490000000000000                                         LACTATO RINGER USP (HARTMANN)  SOL INY  BOL X 1000ML BAXTERBIN     3
CC0000032776593H202100015112745900015112745908/12/20211038    31902940237421964250000E1AD0300000199490000000000000                                         LACTATO RINGER USP (HARTMANN)  SOL INY  BOL X 1000ML BAXTERBIN     3
CC0000022352292H202100015112745900015112745908/12/20211038    31902940237421964250000E1AB0500003888400000000000000                                                              SOLUCION SALINA 0.9% SLN INY X 1000 MLBOL     3
CC0000072339909H202100015112745900015112745908/12/20211038    31902940237421964250000E1AB0500003888400000000000000                                                              SOLUCION SALINA 0.9% SLN INY X 1000 MLBOL     3
CC0000007444684H202100015112745900015112745908/12/20211038    31902940237421964250000E1AB0500003888400000000000000                                                              SOLUCION SALINA 0.9% SLN INY X 1000 MLBOL     4
CC0000022352292H202100015112745900015112745908/12/20211038    31902940237421964250000E1AB0200000199290000000000000                                                            SOLUCION SALINA 0.9% SLN INY BO X 100 MLBIN    10
CC0000003745864H202100015112745900015112745908/12/20211038    31902940237421964250000E1AB0200000199290000000000000                                                            SOLUCION SALINA 0.9% SLN INY BO X 100 MLBIN    10
CC0000022362807H202100015112745900015112745908/12/20211038    31902940237421964250000E1AB0200000199290000000000000                                                            SOLUCION SALINA 0.9% SLN INY BO X 100 MLBIN    10
CC0000072339909H202100015112745900015112745908/12/20211038    31902940237421964250000E1AB0200000199290000000000000                                                            SOLUCION SALINA 0.9% SLN INY BO X 100 MLBIN    15
CC0000032776593H202100015112745900015112745908/12/20211038    31902940237421964250000E1AB0200000199290000000000000                                                            SOLUCION SALINA 0.9% SLN INY BO X 100 MLBIN    10
CC0001066890191H202100015112745900015112745908/12/20211038    31902940237421964250000E1AB0200000199290000000000000                                                            SOLUCION SALINA 0.9% SLN INY BO X 100 MLBIN    15
CC0000007444684H202100015112745900015112745908/12/20211038    31902940237421964250000E1AB0200000199290000000000000                                                            SOLUCION SALINA 0.9% SLN INY BO X 100 MLBIN    10
CC0000022352292H202100015112745900015112745908/12/20211038    3190294023742196425000011137100001419310000000000000                                                               TIRA GLUCOMETRIA FREESTYLE H OPTIUM .PZA     3
CC0000003745864H202100015112745900015112745908/12/20211038    3190294023742196425000011137100001419310000000000000                                                               TIRA GLUCOMETRIA FREESTYLE H OPTIUM .PZA     3
CC0000022362807H202100015112745900015112745908/12/20211038    3190294023742196425000011137100001419310000000000000                                                               TIRA GLUCOMETRIA FREESTYLE H OPTIUM .PZA     3
CC0000072339909H202100015112745900015112745908/12/20211038    3190294023742196425000011137100001419310000000000000                                                               TIRA GLUCOMETRIA FREESTYLE H OPTIUM .PZA     3
CC0000032776593H202100015112745900015112745908/12/20211038    3190294023742196425000011137100001419310000000000000                                                               TIRA GLUCOMETRIA FREESTYLE H OPTIUM .PZA     3
CC0001066890191H202100015112745900015112745908/12/20211038    3190294023742196425000011137100001419310000000000000                                                               TIRA GLUCOMETRIA FREESTYLE H OPTIUM .PZA     3
CC0000007444684H202100015112745900015112745908/12/20211038    3190294023742196425000011137100001419310000000000000                                                               TIRA GLUCOMETRIA FREESTYLE H OPTIUM .PZA     3
CC0000022362807H202100015112745900015112745908/12/20211038    3190294023742196425000011127400001413910000000000000                                                            EQUIPO ADMINIST NUTR PUNZON REF 674669 BBOL     1
CC0000072339909H202100015112745900015112745908/12/20211038    3190294023742196425000011127400001413910000000000000                                                            EQUIPO ADMINIST NUTR PUNZON REF 674669 BBOL     1
CC0000032776593H202100015112745900015112745908/12/20211038    3190294023742196425000011127400001413910000000000000                                                            EQUIPO ADMINIST NUTR PUNZON REF 674669 BBOL     1
CC0001066890191H202100015112745900015112745908/12/20211038    3190294023742196425000011127400001413910000000000000                                                            EQUIPO ADMINIST NUTR PUNZON REF 674669 BBOL     1
