RC0001236888595U202100050131961400050131961408/12/20210247    3190217123942196432000024673600000222980000000000000                                                                     JERINGA DESECHABLE 5 ml 27*11/2SIN     2
RC0001236888595U202100050131961400050131961408/12/20210247    3190217123942196432000011082700001620070000000000000                                                               EQUIPO SET PRIMARIO C/CLAVE REF 14001BOL     1
RC0001236888595U202100050131961400050131961408/12/20210247    31902171239421964320000Q1AA7400003911720000000000000                                                            CATETER PERIFE INTROCAN # 24G 4251601-04SOB     1
RC0001236888595U202100050131961400050131961408/12/20210247    3190217123942196432000030936900001431840000000000000                                                                                              BURETABOL     1
RC0001236888595U202100050131961400050131961408/12/20210247    31902171239421964320000E1AD0200003888320000000000000                                                                              HARTMAN SLN INY 500 MLBOL     1
