CC0000041782192H202100015042538700015042538708/12/20210921    3150010723742196425000045136100001419300000000000000                                                                            LANCETA DEXTROMETER X UNPZA     3
CC0000032632813H202100015042538700015042538708/12/20210921    3150010723742196425000045136100001419300000000000000                                                                            LANCETA DEXTROMETER X UNPZA     3
CC0001129577696H202100015042538700015042538708/12/20210921    3150010723742196425000043485100001618510000000000000                GUANTE QUIRURGICO DE LATEX REF 2D72N65X CAJ X 50 PROTEXIS  6.5 BN EXENTO-DC.417/2020SOB     1
CC0001129577696H202100015042538700015042538708/12/20210921    3150010723742196425000013077800000471960000000000000                                                             GASA NO TEJIDA EST 7.5 X 7.5 SOB X 3 UNSOB     2
CC0001129577696H202100015042538700015042538708/12/20210921    3150010723742196425000011082700001620070000000000000                                                               EQUIPO SET PRIMARIO C/CLAVE REF 14001BOL     1
CC0001129577696H202100015042538700015042538708/12/20210921    3150010723742196425000001956000001620610000000000000                                                                      CONECTOR MICRO CLAVE LAT-MC100SOB     1
CC0001129577696H202100015042538700015042538708/12/20210921    3150010723742196425000030936900001431840000000000000                                                                                              BURETABOL     1
CC0001129577696H202100015042538700015042538708/12/20210921    31500107237421964250000E1AD0200003888320000000000000                                                                              HARTMAN SLN INY 500 MLBOL     1
CC0000041782192H202100015042538700015042538708/12/20210921    3150010723742196425000011137100001419310000000000000                                                               TIRA GLUCOMETRIA FREESTYLE H OPTIUM .PZA     3
CC0000032632813H202100015042538700015042538708/12/20210921    3150010723742196425000011137100001419310000000000000                                                               TIRA GLUCOMETRIA FREESTYLE H OPTIUM .PZA     3
