CC0000007414345H202100000556696200000556696208/12/20210855     3300004237421964250000C1DA2600001277390000000000000                                                                                PLAVIX TAB 75 MG /R/TAB     1
CC0000007414345H202100000556696200000556696208/12/20212317     3300004237421964250000N6AA1700001278670000000000000                                                                                DIOVAN TAB 80 MG /R/TAB     1
CC0000007414345H202100000556696200000556696208/12/20210855     3300004237421964250000C10AA400001301110000000000000                                                                                   LIPITOR TAB 40 MGTAB     1
CC0000007414345H202100000556696200000556696208/12/20210855     3300004237421964250000N02B1100001464120000000000000                                           PARACETAMOL EP 1000MG/100ML(10MG/ML) SOL INY  CAJ X 10FCOVAL     2
CC0000007414345H202100000556696200000556696208/12/20211718    31903290237421964250000V07A1300000502600000000000000                                                                                AGUA ESTERIL x 10 mlAMP     5
