PA00000HD888001H202100015032653000015032653008/12/20210433    3190093323742196425000022426800001140510000000000000                                                                    EQUIPO MACROGOTEO BAXTER MRC0001SOB     1
CC0001082907687H202100015032653000015032653008/12/20210433    3190093323742196425000030936900001431840000000000000                                                                                              BURETABOL     1
PA00000HD888001H202100015032653000015032653008/12/20210433    3190093323742196425000030936900001431840000000000000                                                                                              BURETABOL     1
