CC0001045728301U202100000556687700000556687708/12/20210209     3300004239421964320000A2BC0900000200150000000000000                                                                               ORAZOLE Sln Iny 40 mgCIN     1
CC0001045728301U202100000556687700000556687708/12/20210342    31500188239421964320000E1AB0300003888390000000000000                                                            SOLUCION SALINA 0.9% SLN INY BO X 500 MLBOL     1
CC0001045728301U202100000556687700000556687708/12/20210209     3300004239421964320000M1AB0900001019600000000000000                                                                              VOLTAREN Sln Iny 75 mgAMP     1
CC0001045728301U202100000556687700000556687708/12/20210208     3300004239421964320000M3BA0300001278140000000000000                                                                               SIRDALUD Tab 2 mg /R/COM     2
CC0001045728301U202100000556687700000556687708/12/20210209     3300004239421964320000N02B1100001464120000000000000                                           PARACETAMOL EP 1000MG/100ML(10MG/ML) SOL INY  CAJ X 10FCOVAL     1
