RC0001048089524U202100000556711100000556711108/12/20211651     3300010239421964320000A4AD0200000202990000000000000                                                                     PLITICAN HCL Sln Iny 50 mg/2 mlAMP     1
RC0001048089524U202100000556711100000556711108/12/20212120     3300010239421964320000A07C0400000953120000000000000                                                            ENTEROLYTE SUERO ORAL 75 MEQ X 400ML /R/FCO     1
RC0001048089524U202100000556711100000556711108/12/20211726    31901005239421964320000E1AD0200003888320000000000000                                                                              HARTMAN SLN INY 500 MLBOL     1
