CC0001140839787H202100000556685800000556685808/12/20210912     3300004237421964250000A2BC0900000200150000000000000                                                                               ORAZOLE Sln Iny 40 mgCIN     1
CC0001140839787H202100000556685800000556685808/12/20211711     3300004237421964250000B1AB0300003939210000000000000                 ENOXAPARINA SODICA 20MG/0.2ML(100MG/ML) SOL INY INST CAJ X 2JERPREL X 0.2ML TECHDOWJRP     1
CC0001140839787H202100000556685800000556685808/12/20210147    31901360237421964250000E1AD0300000199490000000000000                                         LACTATO RINGER USP (HARTMANN)  SOL INY  BOL X 1000ML BAXTERBIN     2
CC0001140839787H202100000556685800000556685808/12/20210912     3300004237421964250000C2AC0100001277460000000000000                                                                              CATAPRESAN TAB 150 MCGCOM     1
CC0001140839787H202100000556685800000556685808/12/20210112     3300009237421964250000C2AC0100001277460000000000000                                                                              CATAPRESAN TAB 150 MCGCOM     2
CC0001140839787H202100000556685800000556685808/12/20210911     3300004237421964250000C02C0300001277330000000000000                                                                                  PRAZOSINA TAB 1 MGTAB     2
CC0001140839787H202100000556685800000556685808/12/20210911     3300004237421964250000C2AB0200001300760000000000000                                                                                  ALDOMET Tab 500 mgTAB     2
CC0001140839787H202100000556685800000556685808/12/20210112     3300009237421964250000C2AB0200001300760000000000000                                                                                  ALDOMET Tab 500 mgTAB     3
CC0001140839787H202100000556685800000556685808/12/20210911     3300004237421964250000C09CA100001303630000000000000                                                                                   COZAAR TAB 100 MGTAB     3
CC0001140839787H202100000556685800000556685808/12/20210912     3300004237421964250000C07A1100001015770000000000000                                                                   TRANDATE SLN INY 100 MG/20 ML /R/AMP     4
CC0001140839787H202100000556685800000556685808/12/20210911     3300004237421964250000C07A1100001015770000000000000                                                                   TRANDATE SLN INY 100 MG/20 ML /R/AMP     1
CC0001140839787H202100000556685800000556685808/12/20210911     3300004237421964250000C2DE1400001277050000000000000                                                                         NIFEDIPINO CAPSULA LM 30 MGCAP     2
CC0001140839787H202100000556685800000556685808/12/20210112     3300009237421964250000C2DE1400001277050000000000000                                                                         NIFEDIPINO CAPSULA LM 30 MGCAP     3
CC0001140839787H202100000556685800000556685808/12/20210112     3300009237421964250000C09CA400001277130000000000000                                                                                  LOSARTAN TAB 50 MGTAB     1
CC0001140839787H202100000556685800000556685808/12/20212149     3300004237421964250000A12CC200000787470000000000000                                                                       MAGNESIO SULFATO Sobre x 15 gSOB     1
CC0001140839787H202100000556685800000556685808/12/20210911     3300004237421964250000J01DA300001239950000000000000                                                            CEFAZOLINA SODICA POLVO LIOF SLN INY 1 GVAL     3
CC0001140839787H202100000556685800000556685808/12/20210912     3300004237421964250000N02B1100001464120000000000000                                           PARACETAMOL EP 1000MG/100ML(10MG/ML) SOL INY  CAJ X 10FCOVAL     4
