CC0000008718141U202100000556696500000556696508/12/20211132     3300010239421964320000A2BC0900000200150000000000000                                                                               ORAZOLE Sln Iny 40 mgCIN     1
CC0000008718141U202100000556696500000556696508/12/20211136    31903190239421964320000E1AB0300003888390000000000000                                                            SOLUCION SALINA 0.9% SLN INY BO X 500 MLBOL     1
CC0000008718141U202100000556696500000556696508/12/20210905     3300004239421964320000H02AB500001664950000000000000                                                            DEXAMETASONA SLN INY 8 MG/2 ML AMP /CDS/AMP     1
CC0000008718141U202100000556696500000556696508/12/20210905     3300004239421964320000M1AE2500000191550000000000000                                                            PROFENID POLVO LIOF SLN INY 100MG/2ML/R/AMP     1
CC0000008718141U202100000556696500000556696508/12/20210905     3300004239421964320000M03B0500001278430000000000000                                                                     DORIXINA RELAX Tab 125/5 MG /R/TAB     1
