RC0001236888595U202100050131965800050131965808/12/20211331    3150065723942196432000024674000001138340000000000000   JERINGA 3PARTES C/A 10ML REF JEHL005 CAJ X 100 ALFASAFE  21GX1 PULG 1/2 PULG BN EXENTO-DC.417/202PZA     3
RC0001236888595U202100050131965800050131965808/12/20211331    3150065723942196432000011082700001620070000000000000                                                               EQUIPO SET PRIMARIO C/CLAVE REF 14001BOL     1
RC0001236888595U202100050131965800050131965808/12/20211331    3150065723942196432000001956000001620610000000000000                                                                      CONECTOR MICRO CLAVE LAT-MC100SOB     1
RC0001236888595U202100050131965800050131965808/12/20211331    31500657239421964320000Q1AA7400003911720000000000000                                                            CATETER PERIFE INTROCAN # 24G 4251601-04SOB     2
RC0001236888595U202100050131965800050131965808/12/20211331    3150065723942196432000030936900001431840000000000000                                                                                              BURETABOL     1
RC0001236888595U202100050131965800050131965808/12/20211331    3150065723942196432000016830000000970620000000000000                                                             SIST FIJACION CAT PERIFERICO 6.5X7 1683SOB     1
RC0001236888595U202100050131965800050131965808/12/20211331    31500657239421964320000E1AD0300000199490000000000000                                         LACTATO RINGER USP (HARTMANN)  SOL INY  BOL X 1000ML BAXTERBIN     1
