RC0001048085790U202100000556714400000556714408/12/20212102     3300010239421964320000N02B1100001464120000000000000                                           PARACETAMOL EP 1000MG/100ML(10MG/ML) SOL INY  CAJ X 10FCOVAL     1
RC0001048085790U202100000556714400000556714408/12/20212334     3300010239421964320000R03AC100001340440000000000000                                                            VENTILAN OSP INH ORAL 100 MCG /DO 200 DOFCO     1
RC0001048085790U202100000556714400000556714408/12/20212121     3300010239421964320000R03AC100001340440000000000000                                                            VENTILAN OSP INH ORAL 100 MCG /DO 200 DOFCO     1
RC0001048085790U202100000556714400000556714408/12/20212105     3300010239421964320000R03AC100001340440000000000000                                                            VENTILAN OSP INH ORAL 100 MCG /DO 200 DOFCO     1
