CC0000072339909H202100000556688500000556688508/12/20211547    31902940237421964250000E1AB0200000199290000000000000                                                            SOLUCION SALINA 0.9% SLN INY BO X 100 MLBIN    15
CC0000072339909H202100000556688500000556688508/12/20211507    31500561237421964250000E1AB0200000199290000000000000                                                            SOLUCION SALINA 0.9% SLN INY BO X 100 MLBIN     1
CC0000072339909H202100000556688500000556688508/12/20210231    31900998237421964250000E1AB0700003888350000000000000                                                            SOLUCION SALINA 0.9% SLN INY BO X 250 MLBOL     2
CC0000072339909H202100000556688500000556688508/12/20211547    31902940237421964250000E1AB0500003888400000000000000                                                              SOLUCION SALINA 0.9% SLN INY X 1000 MLBOL     3
CC0000072339909H202100000556688500000556688508/12/20211356     3300004237421964250000A12BA100000552980000000000000                                                            CLORURO POTASIO Sln Iny AMP 20 MEQ/10 MLAMP     4
CC0000072339909H202100000556688500000556688508/12/20210907     3300004237421964250000C01DA100000176460000000000000                                                            NITROGLICERINA EN DEXTROSA VIAL X 250 MLFCO     8
CC0000072339909H202100000556688500000556688508/12/20210906     3300004237421964250000C01DA100000176460000000000000                                                            NITROGLICERINA EN DEXTROSA VIAL X 250 MLFCO     1
CC0000072339909H202100000556688500000556688508/12/20210906     3300004237421964250000C09CA400001277130000000000000                                                                                  LOSARTAN TAB 50 MGTAB     2
CC0000072339909H202100000556688500000556688508/12/20211521     3300004237421964250000N07X0300003913670000000000000                                    DEXMEDETOMIDINA 400MCG/100ML(4MCG/ML) SOL INY BOL X 100ML BAXTERBOL     2
CC0000072339909H202100000556688500000556688508/12/20211520     3300004237421964250000N07X0300003913670000000000000                                    DEXMEDETOMIDINA 400MCG/100ML(4MCG/ML) SOL INY BOL X 100ML BAXTERBOL    14
CC0000072339909H202100000556688500000556688508/12/20211356     3300004237421964250000A12CC100001690470000000000000                                                                  MAGNESIO SULFATO 20% SLN INY 10 MLAMP     4
CC0000072339909H202100000556688500000556688508/12/20211302     3300004237421964250000N1AH0200003906560000000000000                                                                     FENTANIL Iny 0.05 mg/ml x 10 mlAMP    10
CC0000072339909H202100000556688500000556688508/12/20210906     3300004237421964250000C02AC200001559150000000000000                                                                              CLONIDINA TAB 0.150 MGTAB     4
CC0000072339909H202100000556688500000556688508/12/20211521     3300004237421964250000C02C0100001316210000000000000                                                                                     PRATEN TAB 1 MGTAB     2
CC0000072339909H202100000556688500000556688508/12/20210907     3300004237421964250000C02C0100001316210000000000000                                                                                     PRATEN TAB 1 MGTAB     4
CC0000072339909H202100000556688500000556688508/12/20211521     3300004237421964250000C09CA700001315590000000000000                                                                                 LOSARTAN TAB 100 MGTAB     2
CC0000072339909H202100000556688500000556688508/12/20211521     3300004237421964250000C7AB0100001276990000000000000                                                                            BETOPROLOL TAB 50 MG /R/TAB     1
CC0000072339909H202100000556688500000556688508/12/20210907     3300004237421964250000C7AB0100001276990000000000000                                                                            BETOPROLOL TAB 50 MG /R/TAB     2
CC0000072339909H202100000556688500000556688508/12/20211521     3300004237421964250000C08CA300001313930000000000000                                                                                AMLODIPINO TAB 10 MGTAB     1
CC0000072339909H202100000556688500000556688508/12/20210906     3300004237421964250000C10AA500001314010000000000000                                                                             ATORVASTATINA TAB 40 MGTAB     2
CC0000072339909H202100000556688500000556688508/12/20210907     3300004237421964250000N05A1700001278300000000000000                                                                            QUETIAPINA TAB 25 MG /R/TAB     4
CC0000072339909H202100000556688500000556688508/12/20210907     3300004237421964250000A02BC700001684270000000000000                                                            OMEPRAZOL 40MG POLVO LIOFILIZADO AMPOLLAVAL     1
