RC0001043474701U202100050131967800050131967808/12/20211613    3190233123942196432000011082700001620070000000000000                                                               EQUIPO SET PRIMARIO C/CLAVE REF 14001BOL     1
RC0001043474701U202100050131967800050131967808/12/20211613    31902331239421964320000Q1AA7300000610640000000000000                                                            CATETER PERIFE INTROCAN # 22G 4251628-04SIN     1
RC0001043474701U202100050131967800050131967808/12/20211613    3190233123942196432000030936900001431840000000000000                                                                                              BURETABOL     1
RC0001043474701U202100050131967800050131967808/12/20211613    3190233123942196432000000602600001259280000000000000                                                             APOSITO TEGADERM IV PD 1610 5CM X 5.7CMSOB     1
RC0001043474701U202100050131967800050131967808/12/20211613    31902331239421964320000E1AD0300000199490000000000000                                         LACTATO RINGER USP (HARTMANN)  SOL INY  BOL X 1000ML BAXTERBIN     1
