RC0001048090211U202100050131968300050131968308/12/20211642    3190296823942196432000011048600000223020000000000000                                                                 JERINGA VACUNACION 3ML C/AGU 302542SIN     1
CC0001143464018U202100050131968300050131968308/12/20211642    3190296823942196432000011048600000223020000000000000                                                                 JERINGA VACUNACION 3ML C/AGU 302542SIN     1
TI0001044426470U202100050131968300050131968308/12/20211642    3190296823942196432000024673600000222980000000000000                                                                     JERINGA DESECHABLE 5 ml 27*11/2SIN     1
CC0001143464018U202100050131968300050131968308/12/20211642    3190296823942196432000024673600000222980000000000000                                                                     JERINGA DESECHABLE 5 ml 27*11/2SIN     1
