TI0001044426470U202100050131968100050131968108/12/20211630    3190296823942196432000049428300000860750000000000000                                                                       VENDA ELASTICA 4*5 NO ESTERILBOL     2
TI0001044426470U202100050131968100050131968108/12/20211630    3190296823942196432000049419600001679900000000000000                                                                        VENDA ALGODON 4*5 NO ESTERILSOB     1
CE0001143464010U202100050131968100050131968108/12/20211630    3190296823942196432000011048600000223020000000000000                                                                 JERINGA VACUNACION 3ML C/AGU 302542SIN     1
