CC0000007479382H202100000556687100000556687108/12/20211706     330000423742196425000011808300000218190000000000000                                                   DORMICUM IV 50MG/10ML(5MG/ML) SOL INY  CAJ X 5AMPAMP     3
CC0000007479382H202100000556687100000556687108/12/20211705     330000423742196425000011808300000218190000000000000                                                   DORMICUM IV 50MG/10ML(5MG/ML) SOL INY  CAJ X 5AMPAMP     7
CC0000007479382H202100000556687100000556687108/12/20210903     3300004237421964250000A2BC0900000200150000000000000                                                                               ORAZOLE Sln Iny 40 mgCIN     1
CC0000007479382H202100000556687100000556687108/12/20210241     3300009237421964250000A2BC0900000200150000000000000                                                                               ORAZOLE Sln Iny 40 mgCIN     1
CC0000007479382H202100000556687100000556687108/12/20210903     3300004237421964250000B1AB0100001227270000000000000                                             HEPAMAX 25000UI/5ML(5000UI/ML) SOL INY  CAJ X 25AMPX5MLAMP     1
CC0000007479382H202100000556687100000556687108/12/20210240     3300009237421964250000B1AB0100001227270000000000000                                             HEPAMAX 25000UI/5ML(5000UI/ML) SOL INY  CAJ X 25AMPX5MLAMP     3
CC0000007479382H202100000556687100000556687108/12/20212254    31901360237421964250000E1AB0200000199290000000000000                                                            SOLUCION SALINA 0.9% SLN INY BO X 100 MLBIN    10
CC0000007479382H202100000556687100000556687108/12/20211601    31500555237421964250000E1AB0200000199290000000000000                                                            SOLUCION SALINA 0.9% SLN INY BO X 100 MLBIN    20
CC0000007479382H202100000556687100000556687108/12/20211601    31500555237421964250000E1AD0300000199490000000000000                                         LACTATO RINGER USP (HARTMANN)  SOL INY  BOL X 1000ML BAXTERBIN     4
CC0000007479382H202100000556687100000556687108/12/20210902     3300004237421964250000C01DA100000176460000000000000                                                            NITROGLICERINA EN DEXTROSA VIAL X 250 MLFCO     1
CC0000007479382H202100000556687100000556687108/12/20210903     3300004237421964250000C07A1100001015770000000000000                                                                   TRANDATE SLN INY 100 MG/20 ML /R/AMP     1
CC0000007479382H202100000556687100000556687108/12/20210241     3300009237421964250000C07A1100001015770000000000000                                                                   TRANDATE SLN INY 100 MG/20 ML /R/AMP     1
CC0000007479382H202100000556687100000556687108/12/20211715     3300004237421964250000J1KF0200001677230000000000000                                                                      MERONEM POLVO SLN INY 1 G  /R/VAL     1
CC0000007479382H202100000556687100000556687108/12/20210903     3300004237421964250000J1KF0200001677230000000000000                                                                      MERONEM POLVO SLN INY 1 G  /R/VAL     2
CC0000007479382H202100000556687100000556687108/12/20210902     3300004237421964250000J01XA400001212420000000000000                                                               VANCOMICINA POLVO LIOF SLN INY 500 MGVAL     4
CC0000007479382H202100000556687100000556687108/12/20211715     3300004237421964250000M3AC0600000720540000000000000                                                                         ESMERON SLN INY 50 MG /5 MLVAL    10
CC0000007479382H202100000556687100000556687108/12/20210904     3300004237421964250000M3AC0600000720540000000000000                                                                         ESMERON SLN INY 50 MG /5 MLVAL     1
CC0000007479382H202100000556687100000556687108/12/20210903     3300004237421964250000M3AC0600000720540000000000000                                                                         ESMERON SLN INY 50 MG /5 MLVAL     9
CC0000007479382H202100000556687100000556687108/12/20211707     3300004237421964250000N1AH0200003906560000000000000                                                                     FENTANIL Iny 0.05 mg/ml x 10 mlAMP    20
CC0000007479382H202100000556687100000556687108/12/20211804    31500555237421964250000V07A1300000502600000000000000                                                                                AGUA ESTERIL x 10 mlAMP     5
