CC0000041482521H202100000556697500000556697508/12/20211448     3300004237421964250000A4AD0200000202990000000000000                                                                     PLITICAN HCL Sln Iny 50 mg/2 mlAMP     1
CC0000041482521H202100000556697500000556697508/12/20210925     3300004237421964250000A4AD0200000202990000000000000                                                                     PLITICAN HCL Sln Iny 50 mg/2 mlAMP     1
CC0000041482521H202100000556697500000556697508/12/20211411    31902949237421964250000E1AB0300003888390000000000000                                                            SOLUCION SALINA 0.9% SLN INY BO X 500 MLBOL     1
CC0000041482521H202100000556697500000556697508/12/20211448     3300004237421964250000J01DA300001239950000000000000                                                            CEFAZOLINA SODICA POLVO LIOF SLN INY 1 GVAL     1
CC0000041482521H202100000556697500000556697508/12/20210924     3300004237421964250000J01DA300001239950000000000000                                                            CEFAZOLINA SODICA POLVO LIOF SLN INY 1 GVAL     3
CC0000041482521H202100000556697500000556697508/12/20211310     3300004237421964250000M01A0400001341250000000000000                                                                              DYNASTAT AMP 40 MG /R/VAL     2
CC0000041482521H202100000556697500000556697508/12/20210924     3300004237421964250000N02B1100001464120000000000000                                           PARACETAMOL EP 1000MG/100ML(10MG/ML) SOL INY  CAJ X 10FCOVAL     3
CC0000041482521H202100000556697500000556697508/12/20211310     3300004237421964250000N07CA400001335820000000000000                                                                                   PASEDOL TAB 50 MGTAB     2
CC0000041482521H202100000556697500000556697508/12/20211016    31903331237421964250000V07A1300000502600000000000000                                                                                AGUA ESTERIL x 10 mlAMP     5
