CC0001085041540H202100015052811300015052811308/12/20211949    3150033123742196425000072887600001096730000000000000                                                               SET EQUIPO PERFUSOR SPACE 10mL 728876PAQ     1
CC0001143259393H202100015052811300015052811308/12/20211949    3150033123742196425000072887600001096730000000000000                                                               SET EQUIPO PERFUSOR SPACE 10mL 728876PAQ     1
CC0000032856400H202100015052811300015052811308/12/20211949    3150033123742196425000072887600001096730000000000000                                                               SET EQUIPO PERFUSOR SPACE 10mL 728876PAQ     1
CC0001047230087H202100015052811300015052811308/12/20211949    3150033123742196425000072887600001096730000000000000                                                               SET EQUIPO PERFUSOR SPACE 10mL 728876PAQ     1
CC0001143259393H202100015052811300015052811308/12/20211949    3150033123742196425000001956000001620610000000000000                                                                      CONECTOR MICRO CLAVE LAT-MC100SOB     1
CC0001140828909H202100015052811300015052811308/12/20211949    3150033123742196425000001956000001620610000000000000                                                                      CONECTOR MICRO CLAVE LAT-MC100SOB     1
CC0001143259393H202100015052811300015052811308/12/20211949    31500331237421964250000Q1AA7300000610640000000000000                                                            CATETER PERIFE INTROCAN # 22G 4251628-04SIN     2
CC0001140828909H202100015052811300015052811308/12/20211949    31500331237421964250000Q1AA7300000610640000000000000                                                            CATETER PERIFE INTROCAN # 22G 4251628-04SIN     2
CC0001085041540H202100015052811300015052811308/12/20211949    3150033123742196425000030936900001431840000000000000                                                                                              BURETABOL     1
CC0001143259393H202100015052811300015052811308/12/20211949    3150033123742196425000030936900001431840000000000000                                                                                              BURETABOL     1
CC0001140828909H202100015052811300015052811308/12/20211949    3150033123742196425000030936900001431840000000000000                                                                                              BURETABOL     1
CC0001047230087H202100015052811300015052811308/12/20211949    3150033123742196425000030936900001431840000000000000                                                                                              BURETABOL     1
CC0001143259393H202100015052811300015052811308/12/20211949    3150033123742196425000016830000000970620000000000000                                                             SIST FIJACION CAT PERIFERICO 6.5X7 1683SOB     1
CC0001140828909H202100015052811300015052811308/12/20211949    3150033123742196425000016830000000970620000000000000                                                             SIST FIJACION CAT PERIFERICO 6.5X7 1683SOB     1
