PA00000HD888001H202100015032653200015032653208/12/20211042    3190260623742196425000043485100001618510000000000000                GUANTE QUIRURGICO DE LATEX REF 2D72N65X CAJ X 50 PROTEXIS  6.5 BN EXENTO-DC.417/2020SOB     1
PA00000HD888001H202100015032653200015032653208/12/20211042    3190260623742196425000011085100001082120000000000000                                                                           GUANTE QUIRURGICO TALLA 7SOB     1
PA00000HD888001H202100015032653200015032653208/12/20211042    3190260623742196425000013077800000471960000000000000                                                             GASA NO TEJIDA EST 7.5 X 7.5 SOB X 3 UNSOB    10
