CC0000079767241H202100000556705400000556705408/12/20211226     3300004237421964250000A2BC0100001277990000000000000                                                                                   ORAZOLE CAP 20 MGCAP     1
CC0000079767241H202100000556705400000556705408/12/20211226     3300004237421964250000A6AB0200001278260000000000000                                                                                  DULCOLAX Grag 5 mgGRA     1
CC0000079767241H202100000556705400000556705408/12/20211350    31903303237421964250000E1AD0300000199490000000000000                                         LACTATO RINGER USP (HARTMANN)  SOL INY  BOL X 1000ML BAXTERBIN     2
CC0000079767241H202100000556705400000556705408/12/20212217     3300004237421964250000C2AC0100001277460000000000000                                                                              CATAPRESAN TAB 150 MCGCOM     1
CC0000079767241H202100000556705400000556705408/12/20211226     3300004237421964250000H02A0100001664960000000000000                                                                        DEXAMETASONA SLN INY 4 MG/MLAMP     2
CC0000079767241H202100000556705400000556705408/12/20211226     3300004237421964250000J01DA300001239950000000000000                                                            CEFAZOLINA SODICA POLVO LIOF SLN INY 1 GVAL     6
CC0000079767241H202100000556705400000556705408/12/20211226     3300004237421964250000N2BE0100001276930000000000000                                                                                    DOLEX TAB 500 MGTAB     3
CC0000079767241H202100000556705400000556705408/12/20211526     3300004237421964250000N3AB0900001278210000000000000                                                                            NEURONTIN CAP 300 mg /R/CAP     1
CC0000079767241H202100000556705400000556705408/12/20211227     3300004237421964250000N3AB0900001278210000000000000                                                                            NEURONTIN CAP 300 mg /R/CAP     2
