RC0001063188076H202100920901120800920901120808/12/20210033    3150034323742196425000011082700001620070000000000000                                                               EQUIPO SET PRIMARIO C/CLAVE REF 14001BOL     2
RC0001063188076H202100920901120800920901120808/12/20210033    3150034323742196425000011089200001083340000000000000                                                              GUANTE ESTERIL LATEX S/POLVO TALLA 7.0SOB     1
RC0001063188076H202100920901120800920901120808/12/20210033    3150034323742196425000011089300001083990000000000000                                                              GUANTE ESTERIL LATEX S/POLVO TALLA 7.5SOB     2
RC0001063188076H202100920901120800920901120808/12/20210033    3150034323742196425000022426800001140510000000000000                                                                    EQUIPO MACROGOTEO BAXTER MRC0001SOB     3
RC0001063188076H202100920901120800920901120808/12/20210033    3150034323742196425000030936900001431840000000000000                                                                                              BURETABOL     2
RC0001063188076H202100920901120800920901120808/12/20210033    3150034323742196425000038572600000256930000000000000                                                                                 SONDA NSG LEVIN #08SIN     1
RC0001063188076H202100920901120800920901120808/12/20210033    3150034323742196425000038572700000256840000000000000                                                                                 SONDA NSG LEVIN #10SIN     1
RC0001063188076H202100920901120800920901120808/12/20210033    31500343237421964250000Q1AA5900000236800000000000000                                                                            CISTOFLO PEDIAT X 500 mlSIN     1
RC0001063188076H202100920901120800920901120808/12/20210033    31500343237421964250000E1AA1400003888550000000000000                                                                         DEXTROSA 10% SLN INY 250 MLBOL     1
