CC0000007479382H202100015112746100015112746108/12/20211452    3190310223742196425000030161400001459220000000000000                                                                       MANGUERA SUCCION 6 MM*3.1 MTSSOB     2
CC0000007479382H202100015112746100015112746108/12/20211452    3190310223742196425000039175200001072070000000000000                                                                           TUBO ENDOTRAQUEAL C/B 8.0SOB     2
CC0000007479382H202100015112746100015112746108/12/20211452    3190310223742196425000039176700001029620000000000000                                                                    SUJETADOR TUBO ENDOTRAQUEAL 9799SOB     1
CC0000007479382H202100015112746100015112746108/12/20211452    3190310223742196425000011004400000259880000000000000                                                                 SONDA TRACH CARE 14F CORTA 221036-5SOB     1
CC0000007479382H202100015112746100015112746108/12/20211452    3190310223742196425000043492400000516570000000000000                                                                   GUIA P/TUBO ENDOTRAQ ADULTO 85865SIN     2
CC0000007479382H202100015112746100015112746108/12/20211452    3190310223742196425000020816000001096410000000000000                                                                          LINER PARED DELGADA 1500CCBOL     1
