CC0000072164260H202100015022564700015022564708/12/20211035    3190115123742196425000043879100001138200000000000000                                                                  HOJA BISTURI # 15 CSSB 15 01002003SOB     1
CC0000072164260H202100015022564700015022564708/12/20211035    3190115123742196425000011085100001082120000000000000                                                                           GUANTE QUIRURGICO TALLA 7SOB     1
CC0000072164260H202100015022564700015022564708/12/20211035    3190115123742196425000013077800000471960000000000000                                                             GASA NO TEJIDA EST 7.5 X 7.5 SOB X 3 UNSOB     8
CC0000072164260H202100015022564700015022564708/12/20211035    3190115123742196425000042743200003929860000000000000                   GASA ADHESIVA STRETCH REF 02038-00 ROL X 10MT FIXOMULL 15CM BN EXENTO-DC.417/2020CMT    30
