CC0000032834065U202100050131970700050131970708/12/20212004    3190315823942196432000024674000001138340000000000000   JERINGA 3PARTES C/A 10ML REF JEHL005 CAJ X 100 ALFASAFE  21GX1 PULG 1/2 PULG BN EXENTO-DC.417/202PZA     1
CC0001140898848U202100050131970700050131970708/12/20212004    3190315823942196432000024674000001138340000000000000   JERINGA 3PARTES C/A 10ML REF JEHL005 CAJ X 100 ALFASAFE  21GX1 PULG 1/2 PULG BN EXENTO-DC.417/202PZA     1
RC0001048091972U202100050131970700050131970708/12/20212004    3190315823942196432000042743200003929860000000000000                   GASA ADHESIVA STRETCH REF 02038-00 ROL X 10MT FIXOMULL 15CM BN EXENTO-DC.417/2020CMT    30
RC0001048091972U202100050131970700050131970708/12/20212004    3190315823942196432000012460100001656630000000000000                                                                ESPECULO OTOSCOPIO REF 52432  2.75MMPZA     1
RC0001048091972U202100050131970700050131970708/12/20212004    3190315823942196432000001956000001620610000000000000                                                                      CONECTOR MICRO CLAVE LAT-MC100SOB     1
RC0001048091972U202100050131970700050131970708/12/20212004    31903158239421964320000Q1AA7400003911720000000000000                                                            CATETER PERIFE INTROCAN # 24G 4251601-04SOB     1
