CC0000022362807H202100015112746400015112746408/12/20211752    3150056123742196425000036441300000236540000000000000                                                                    JERINGA 1 ML GASES ARTERIAL 9023SIN     4
CC0000072339909H202100015112746400015112746408/12/20211752    3150056123742196425000036441300000236540000000000000                                                                    JERINGA 1 ML GASES ARTERIAL 9023SIN     4
CC0000032776593H202100015112746400015112746408/12/20211752    3150056123742196425000036441300000236540000000000000                                                                    JERINGA 1 ML GASES ARTERIAL 9023SIN     4
CC0001066890191H202100015112746400015112746408/12/20211752    3150056123742196425000036441300000236540000000000000                                                                    JERINGA 1 ML GASES ARTERIAL 9023SIN     4
