RC0001044236218H202100015132531500015132531508/12/20212154    3190213923742196425000016830000000970620000000000000                                                             SIST FIJACION CAT PERIFERICO 6.5X7 1683SOB     1
RC0001044236218H202100015132531500015132531508/12/20212154    31902139237421964250000E1AB0200000199290000000000000                                                            SOLUCION SALINA 0.9% SLN INY BO X 100 MLBIN     1
RC0001044236218H202100015132531500015132531508/12/20212154    31902139237421964250000Q1A11700000523210000000000000                                                            CATETER PREMICAHT REF 1261-20 SOB X 1 VYPZA     1
