RC0001043033404H202100015122549300015122549308/12/20211035    3150056823742196425000038572500000256920000000000000                                                                                 SONDA NSG LEVIN #06SIN     1
RC0001102897681H202100015122549300015122549308/12/20211035    3150056823742196425000011060400001010330000000000000                                                            SENSOR PULSOX SPO2 LNCS NEONATAL MP00792PZA     1
RC0001043033404H202100015122549300015122549308/12/20211035    31500568237421964250000Q1AA5900000236800000000000000                                                                            CISTOFLO PEDIAT X 500 mlSIN     1
RC0001043033404H202100015122549300015122549308/12/20211035    3150056823742196425000038569600000778200000000000000                                                                        SONDA FOLEY #8 2 VIAS C/GUIABOL     1
