CC0001066890191H202100000556688600000556688608/12/20210910     3300004237421964250000V3AB2200000614150000000000000                                                            GLUCONATO CALCIO SLN INY 10% AMP X 10 MLAPC     3
CC0001066890191H202100000556688600000556688608/12/20210910     3300004237421964250000B1AB1400000718160000000000000                                                                  FRAXIPARINA SLN INY 3800 UI/0.4 MLJRP     1
CC0001066890191H202100000556688600000556688608/12/20211548    31902940237421964250000E1AB0200000199290000000000000                                                            SOLUCION SALINA 0.9% SLN INY BO X 100 MLBIN    15
CC0001066890191H202100000556688600000556688608/12/20211507    31500561237421964250000E1AB0200000199290000000000000                                                            SOLUCION SALINA 0.9% SLN INY BO X 100 MLBIN     1
CC0001066890191H202100000556688600000556688608/12/20210910     3300004237421964250000N07X0300003913670000000000000                                    DEXMEDETOMIDINA 400MCG/100ML(4MCG/ML) SOL INY BOL X 100ML BAXTERBOL     9
CC0001066890191H202100000556688600000556688608/12/20211303     3300004237421964250000N1AH0200003906560000000000000                                                                     FENTANIL Iny 0.05 mg/ml x 10 mlAMP    10
CC0001066890191H202100000556688600000556688608/12/20211646     3300004237421964250000C02AC200001559150000000000000                                                                              CLONIDINA TAB 0.150 MGTAB     1
CC0001066890191H202100000556688600000556688608/12/20210909     3300004237421964250000C02AC200001559150000000000000                                                                              CLONIDINA TAB 0.150 MGTAB     2
CC0001066890191H202100000556688600000556688608/12/20210910     3300004237421964250000C03C0100001672000000000000000                                                                       FUROSEMIDA SLN INY 20 MG/2 MLAMP     1
CC0001066890191H202100000556688600000556688608/12/20211647     3300004237421964250000J01DH400001317770000000000000                                                                MEROPENEM POLVO LIOF SLN INY 1 G /R/CAJ     1
CC0001066890191H202100000556688600000556688608/12/20210910     3300004237421964250000J01DH400001317770000000000000                                                                MEROPENEM POLVO LIOF SLN INY 1 G /R/CAJ     2
CC0001066890191H202100000556688600000556688608/12/20210910     3300004237421964250000N05A1700001278300000000000000                                                                            QUETIAPINA TAB 25 MG /R/TAB     4
CC0001066890191H202100000556688600000556688608/12/20210911     3300004237421964250000A02BC700001684270000000000000                                                            OMEPRAZOL 40MG POLVO LIOFILIZADO AMPOLLAVAL     1
CC0001066890191H202100000556688600000556688608/12/20211404     3300004237421964250000N05BA400001313880000000000000                                                                           ALPRAZOLAM 0.5 MG TABLETATAB     3
