TI0001081819374H202100911985120800911985120808/12/20210848    3190329423742196425000024674000001138340000000000000   JERINGA 3PARTES C/A 10ML REF JEHL005 CAJ X 100 ALFASAFE  21GX1 PULG 1/2 PULG BN EXENTO-DC.417/202PZA     5
TI0001081819374H202100911985120800911985120808/12/20210848    31903294237421964250000V07A1300000502600000000000000                                                                                AGUA ESTERIL x 10 mlAMP     5
TI0001081819374H202100911985120800911985120808/12/20210848    31903294237421964250000E1AB0300003888390000000000000                                                            SOLUCION SALINA 0.9% SLN INY BO X 500 MLBOL     2
TI0001081819374H202100911985120800911985120808/12/20211600    31500107237421964250000E1AB0300003888390000000000000                                                            SOLUCION SALINA 0.9% SLN INY BO X 500 MLBOL     2
TI0001081819374H202100911985120800911985120808/12/20211600    3150010723742196425000024674000001138340000000000000   JERINGA 3PARTES C/A 10ML REF JEHL005 CAJ X 100 ALFASAFE  21GX1 PULG 1/2 PULG BN EXENTO-DC.417/202PZA     5
TI0001081819374H202100911985120800911985120808/12/20211600    31500107237421964250000V07A1300000502600000000000000                                                                                AGUA ESTERIL x 10 mlAMP     5
TI0001081819374H202100911985120800911985120808/12/20212358    3150021323742196425000011082700001620070000000000000                                                               EQUIPO SET PRIMARIO C/CLAVE REF 14001BOL     1
TI0001081819374H202100911985120800911985120808/12/20212358    3150021323742196425000022426800001140510000000000000                                                                    EQUIPO MACROGOTEO BAXTER MRC0001SOB     1
TI0001081819374H202100911985120800911985120808/12/20212358    3150021323742196425000030936900001431840000000000000                                                                                              BURETABOL     1
