RC0001146543342H202100015042538800015042538808/12/20211114    3190315323742196425000011047900000223010000000000000                                                                            JERINGA X 1ML REF 302579SIN     1
RC0001146543342H202100015042538800015042538808/12/20211114    3190315323742196425000011085400001083360000000000000                                                                       GUANTE QUIRURGICO TALLA 8 1/2SOB     1
RC0001146543342H202100015042538800015042538808/12/20211114    3190315323742196425000013077800000471960000000000000                                                             GASA NO TEJIDA EST 7.5 X 7.5 SOB X 3 UNSOB     2
RC0001146543342H202100015042538800015042538808/12/20211114    3190315323742196425000011082700001620070000000000000                                                               EQUIPO SET PRIMARIO C/CLAVE REF 14001BOL     1
RC0001146543342H202100015042538800015042538808/12/20211114    3190315323742196425000000100600000223090000000000000                                                                      AGUJA DESECHABLE 18G X 1 1/2 PSIN     1
RC0001146543342H202100015042538800015042538808/12/20211114    31903153237421964250000E1AB0200000199290000000000000                                                            SOLUCION SALINA 0.9% SLN INY BO X 100 MLBIN     1
