RC0001044436459H202100015132531200015132531208/12/20211545    3190229623742196425000030161400001459220000000000000                                                                       MANGUERA SUCCION 6 MM*3.1 MTSSOB     1
RC0001048091909H202100015132531200015132531208/12/20211545    3190229623742196425000030161400001459220000000000000                                                                       MANGUERA SUCCION 6 MM*3.1 MTSSOB     1
RC0001044236218H202100015132531200015132531208/12/20211545    3190229623742196425000030161400001459220000000000000                                                                       MANGUERA SUCCION 6 MM*3.1 MTSSOB     1
RC0001048091952H202100015132531200015132531208/12/20211545    3190229623742196425000030161400001459220000000000000                                                                       MANGUERA SUCCION 6 MM*3.1 MTSSOB     1
RC0001048091909H202100015132531200015132531208/12/20211545    3190229623742196425000039173600001072110000000000000                                                                           TUBO ENDOTRAQUEAL S/B 2.5SOB     1
RC0001048091909H202100015132531200015132531208/12/20211545    3190229623742196425000019619600000259850000000000000                                                                           SONDA TRACH CARE 6F 196-5SIN     1
RC0001048091952H202100015132531200015132531208/12/20211545    3190229623742196425000019619600000259850000000000000                                                                           SONDA TRACH CARE 6F 196-5SIN     1
RC0001044436459H202100015132531200015132531208/12/20211545    3190229623742196425000024674000001138340000000000000   JERINGA 3PARTES C/A 10ML REF JEHL005 CAJ X 100 ALFASAFE  21GX1 PULG 1/2 PULG BN EXENTO-DC.417/202PZA     1
RC0001048091909H202100015132531200015132531208/12/20211545    3190229623742196425000024674000001138340000000000000   JERINGA 3PARTES C/A 10ML REF JEHL005 CAJ X 100 ALFASAFE  21GX1 PULG 1/2 PULG BN EXENTO-DC.417/202PZA     1
RC0001048091952H202100015132531200015132531208/12/20211545    3190229623742196425000024674000001138340000000000000   JERINGA 3PARTES C/A 10ML REF JEHL005 CAJ X 100 ALFASAFE  21GX1 PULG 1/2 PULG BN EXENTO-DC.417/202PZA     1
RC0001044436459H202100015132531200015132531208/12/20211545    3190229623742196425000063153700001294640000000000000                                                            CIRCUITO TERAPIA ALTO FLUJO PEDIAT RT330PZA     1
RC0001048091909H202100015132531200015132531208/12/20211545    3190229623742196425000025830800004020870000000000000CIRCUITO RESPIRATORIO NEONATAL REF AMVC1774-171 CAJ X 10 AQUAVENT NEO 1.6MT X 15MM - 22MM BN EXENTO-BOL     1
RC0001048091952H202100015132531200015132531208/12/20211545    3190229623742196425000025830800004020870000000000000CIRCUITO RESPIRATORIO NEONATAL REF AMVC1774-171 CAJ X 10 AQUAVENT NEO 1.6MT X 15MM - 22MM BN EXENTO-BOL     1
RC0001048091909H202100015132531200015132531208/12/20211545    3190229623742196425000020816000001096410000000000000                                                                          LINER PARED DELGADA 1500CCBOL     1
RC0001048091952H202100015132531200015132531208/12/20211545    3190229623742196425000020816000001096410000000000000                                                                          LINER PARED DELGADA 1500CCBOL     1
RC0001044436459H202100015132531200015132531208/12/20211545    31902296237421964250000E1BA0100000198890000000000000                                                                   AGUA ESTERIL USP SLN INY X 500 MLBIN     1
RC0001048091909H202100015132531200015132531208/12/20211545    31902296237421964250000E1BA0100000198890000000000000                                                                   AGUA ESTERIL USP SLN INY X 500 MLBIN     1
RC0001044236218H202100015132531200015132531208/12/20211545    31902296237421964250000E1BA0100000198890000000000000                                                                   AGUA ESTERIL USP SLN INY X 500 MLBIN     1
RC0001048091952H202100015132531200015132531208/12/20211545    31902296237421964250000E1BA0100000198890000000000000                                                                   AGUA ESTERIL USP SLN INY X 500 MLBIN     1
RC0001044436459H202100015132531200015132531208/12/20211545    31902296237421964250000E1AB0200000199290000000000000                                                            SOLUCION SALINA 0.9% SLN INY BO X 100 MLBIN     1
RC0001048091909H202100015132531200015132531208/12/20211545    31902296237421964250000E1AB0200000199290000000000000                                                            SOLUCION SALINA 0.9% SLN INY BO X 100 MLBIN     1
RC0001044236218H202100015132531200015132531208/12/20211545    31902296237421964250000E1AB0200000199290000000000000                                                            SOLUCION SALINA 0.9% SLN INY BO X 100 MLBIN     1
RC0001048091952H202100015132531200015132531208/12/20211545    31902296237421964250000E1AB0200000199290000000000000                                                            SOLUCION SALINA 0.9% SLN INY BO X 100 MLBIN     1
