CC0000028496269H202100015052811200015052811208/12/20211939    3190278723742196425000082508500000968690000000000000                                                                 EQUIPO INFUSOMAT C/PUNZON 8250857SPBOL     1
CC0001104008600H202100015052811200015052811208/12/20211939    3190278723742196425000082508500000968690000000000000                                                                 EQUIPO INFUSOMAT C/PUNZON 8250857SPBOL     1
CC0001043116562H202100015052811200015052811208/12/20211939    3190278723742196425000011082700001620070000000000000                                                               EQUIPO SET PRIMARIO C/CLAVE REF 14001BOL     1
CC0001043116562H202100015052811200015052811208/12/20211939    3190278723742196425000001956000001620610000000000000                                                                      CONECTOR MICRO CLAVE LAT-MC100SOB     1
CC0001043116562H202100015052811200015052811208/12/20211939    31902787237421964250000Q1AA7100000610620000000000000                                                            CATETER PERIFE INTROCAN # 18G 4251687-04SIN     1
CC0001043116562H202100015052811200015052811208/12/20211939    31902787237421964250000Q1AA7200000610630000000000000                                                            CATETER PERIFE INTROCAN # 20G 4251644-04SIN     1
CC0001043116562H202100015052811200015052811208/12/20211939    3190278723742196425000030936900001431840000000000000                                                                                              BURETABOL     1
CC0001043116562H202100015052811200015052811208/12/20211939    3190278723742196425000016830000000970620000000000000                                                             SIST FIJACION CAT PERIFERICO 6.5X7 1683SOB     1
CC0000028496269H202100015052811200015052811208/12/20211939    31902787237421964250000E1AD0200003888320000000000000                                                                              HARTMAN SLN INY 500 MLBOL     1
CC0001104008600H202100015052811200015052811208/12/20211939    31902787237421964250000E1AD0200003888320000000000000                                                                              HARTMAN SLN INY 500 MLBOL     1
