CC0000013887621H202100015112745600015112745608/12/20210911    3190310223742196425000038569400000256750000000000000                                                                        SONDA ASPIRACION CONTROL #14SIN     4
CC0001129564191H202100015112745600015112745608/12/20210911    3190310223742196425000038569400000256750000000000000                                                                        SONDA ASPIRACION CONTROL #14SIN     4
CC0000007479382H202100015112745600015112745608/12/20210911    3190310223742196425000038569400000256750000000000000                                                                        SONDA ASPIRACION CONTROL #14SIN     4
CC0000019490174H202100015112745600015112745608/12/20210911    3190310223742196425000038569400000256750000000000000                                                                        SONDA ASPIRACION CONTROL #14SIN     4
CC0001143115935H202100015112745600015112745608/12/20210911    3190310223742196425000038569400000256750000000000000                                                                        SONDA ASPIRACION CONTROL #14SIN     4
CC0000019490174H202100015112745600015112745608/12/20210911    3190310223742196425000035643000000269260000000000000                                                                               MASCARA TRAQUEOSTOMIABOL     1
CC0000019490174H202100015112745600015112745608/12/20210911    3190310223742196425000035639600001014740000000000000                                                                              MASCARA VENTURY ADULTOBOL     1
CC0000013887621H202100015112745600015112745608/12/20210911    3190310223742196425000036441300000236540000000000000                                                                    JERINGA 1 ML GASES ARTERIAL 9023SIN     4
CC0001129564191H202100015112745600015112745608/12/20210911    3190310223742196425000036441300000236540000000000000                                                                    JERINGA 1 ML GASES ARTERIAL 9023SIN     4
CC0000007479382H202100015112745600015112745608/12/20210911    3190310223742196425000036441300000236540000000000000                                                                    JERINGA 1 ML GASES ARTERIAL 9023SIN     4
CC0000019490174H202100015112745600015112745608/12/20210911    3190310223742196425000036441300000236540000000000000                                                                    JERINGA 1 ML GASES ARTERIAL 9023SIN     4
CC0001143115935H202100015112745600015112745608/12/20210911    3190310223742196425000036441300000236540000000000000                                                                    JERINGA 1 ML GASES ARTERIAL 9023SIN     4
CC0000013887621H202100015112745600015112745608/12/20210911    3190310223742196425000043485100001618510000000000000                GUANTE QUIRURGICO DE LATEX REF 2D72N65X CAJ X 50 PROTEXIS  6.5 BN EXENTO-DC.417/2020SOB     4
CC0001129564191H202100015112745600015112745608/12/20210911    3190310223742196425000043485100001618510000000000000                GUANTE QUIRURGICO DE LATEX REF 2D72N65X CAJ X 50 PROTEXIS  6.5 BN EXENTO-DC.417/2020SOB     4
CC0000007479382H202100015112745600015112745608/12/20210911    3190310223742196425000043485100001618510000000000000                GUANTE QUIRURGICO DE LATEX REF 2D72N65X CAJ X 50 PROTEXIS  6.5 BN EXENTO-DC.417/2020SOB     4
CC0000019490174H202100015112745600015112745608/12/20210911    3190310223742196425000043485100001618510000000000000                GUANTE QUIRURGICO DE LATEX REF 2D72N65X CAJ X 50 PROTEXIS  6.5 BN EXENTO-DC.417/2020SOB     4
CC0001143115935H202100015112745600015112745608/12/20210911    3190310223742196425000043485100001618510000000000000                GUANTE QUIRURGICO DE LATEX REF 2D72N65X CAJ X 50 PROTEXIS  6.5 BN EXENTO-DC.417/2020SOB     4
CC0000013887621H202100015112745600015112745608/12/20210911    3190310223742196425000013077800000471960000000000000                                                             GASA NO TEJIDA EST 7.5 X 7.5 SOB X 3 UNSOB     3
CC0001129564191H202100015112745600015112745608/12/20210911    3190310223742196425000013077800000471960000000000000                                                             GASA NO TEJIDA EST 7.5 X 7.5 SOB X 3 UNSOB     3
CC0000007479382H202100015112745600015112745608/12/20210911    3190310223742196425000013077800000471960000000000000                                                             GASA NO TEJIDA EST 7.5 X 7.5 SOB X 3 UNSOB     3
CC0000019490174H202100015112745600015112745608/12/20210911    3190310223742196425000013077800000471960000000000000                                                             GASA NO TEJIDA EST 7.5 X 7.5 SOB X 3 UNSOB     3
CC0001143115935H202100015112745600015112745608/12/20210911    3190310223742196425000013077800000471960000000000000                                                             GASA NO TEJIDA EST 7.5 X 7.5 SOB X 3 UNSOB     3
CC0000013887621H202100015112745600015112745608/12/20210911    3190310223742196425000011078200001605710000000000000                                                                 CONECTOR FIBROBRONCOSCOPIO 9591 40CSOB     1
