CC0000022310952H202100015032653400015032653408/12/20211140    3190240923742196425000001956000001620610000000000000                                                                      CONECTOR MICRO CLAVE LAT-MC100SOB     1
RC0001043476962H202100015032653400015032653408/12/20211140    3190240923742196425000001956000001620610000000000000                                                                      CONECTOR MICRO CLAVE LAT-MC100SOB     1
CC0000022310952H202100015032653400015032653408/12/20211140    31902409237421964250000Q1AA7300000610640000000000000                                                            CATETER PERIFE INTROCAN # 22G 4251628-04SIN     1
RC0001043476962H202100015032653400015032653408/12/20211140    31902409237421964250000Q1AA7400003911720000000000000                                                            CATETER PERIFE INTROCAN # 24G 4251601-04SOB     1
RC0001043476962H202100015032653400015032653408/12/20211140    3190240923742196425000016830000000970620000000000000                                                             SIST FIJACION CAT PERIFERICO 6.5X7 1683SOB     1
