CC0000007444684H202100000556688100000556688108/12/20210227    31900998237421964250000E1AA0600003888150000000000000                                                                 DEXTROSA 50% EN AGUA Sln Iny 500 mlBOL     1
CC0000007444684H202100000556688100000556688108/12/20211551    31902940237421964250000E1AB0200000199290000000000000                                                            SOLUCION SALINA 0.9% SLN INY BO X 100 MLBIN    10
CC0000007444684H202100000556688100000556688108/12/20211550    31902940237421964250000E1AB0500003888400000000000000                                                              SOLUCION SALINA 0.9% SLN INY X 1000 MLBOL     4
CC0000007444684H202100000556688100000556688108/12/20210913     3300004237421964250000C7AB1000001382030000000000000                                                                   NOREPINEFRINA SLN INY 4 MG / 4 MLAMP    18
CC0000007444684H202100000556688100000556688108/12/20210912     3300004237421964250000H01B0300000727220000000000000                                                                   GLYPRESSIN POLVO SLN INY 1 MG /R/AMP     3
CC0000007444684H202100000556688100000556688108/12/20210912     3300004237421964250000J01DD500001239970000000000000                                                                  CEFTRIAXONA POLVO LIOF SLN INY 1 GVAL     2
CC0000007444684H202100000556688100000556688108/12/20211648     3300004237421964250000N2BE2200001252930000000000000                                                                             ACETAMINOFEN Tab 500 MGTAB     2
CC0000007444684H202100000556688100000556688108/12/20211534     3300004237421964250000N2BB0100001672010000000000000                                  DIPIRONA 1GR/2ML(0.5GR/ML) SOL INY INST CAJ X 100AMP X 2ML VITALISAMP     2
CC0000007444684H202100000556688100000556688108/12/20211522     3300004237421964250000A02BC700001684270000000000000                                                            OMEPRAZOL 40MG POLVO LIOFILIZADO AMPOLLAVAL     1
CC0000007444684H202100000556688100000556688108/12/20210913     3300004237421964250000A02BC700001684270000000000000                                                            OMEPRAZOL 40MG POLVO LIOFILIZADO AMPOLLAVAL     1
