CC0000091178991H202100000556707400000556707408/12/20211454    31500460237421964250000E1AB0300003888390000000000000                                                            SOLUCION SALINA 0.9% SLN INY BO X 500 MLBOL     2
CC0000091178991H202100000556707400000556707408/12/20211600     3300004237421964250000M1AB0900001019600000000000000                                                                              VOLTAREN Sln Iny 75 mgAMP     1
CC0000091178991H202100000556707400000556707408/12/20211338     3300004237421964250000M1AB0900001019600000000000000                                                                              VOLTAREN Sln Iny 75 mgAMP     3
CC0000091178991H202100000556707400000556707408/12/20211559     3300004237421964250000N2BB0500000217140000000000000                                                                          NOVALGINA Sln Iny 1 g/2 mlAMP     3
CC0000091178991H202100000556707400000556707408/12/20211339     3300004237421964250000N2BB0500000217140000000000000                                                                          NOVALGINA Sln Iny 1 g/2 mlAMP     5
CC0000091178991H202100000556707400000556707408/12/20211600     3300004237421964250000N02B1100001464120000000000000                                           PARACETAMOL EP 1000MG/100ML(10MG/ML) SOL INY  CAJ X 10FCOVAL     1
CC0000091178991H202100000556707400000556707408/12/20211338     3300004237421964250000N02B1100001464120000000000000                                           PARACETAMOL EP 1000MG/100ML(10MG/ML) SOL INY  CAJ X 10FCOVAL     5
CC0000091178991H202100000556707400000556707408/12/20211338     3300004237421964250000N03A0800001278440000000000000                                                                                LYRICA CAP 75 MG /R/CAP     3
CC0000091178991H202100000556707400000556707408/12/20211716    31903290237421964250000V07A1300000502600000000000000                                                                                AGUA ESTERIL x 10 mlAMP     5
