TI0001047048202H202100000556687800000556687808/12/20211558     3300004237421964250000A12CA200001239800000000000000                     BICARBONATO SODIO 10MEQ/10ML(1MEQ/ML) SOL INY  CAJ X 100AMPX10ML FRESENIUS KABIAMP     4
TI0001047048202H202100000556687800000556687808/12/20211503    31903294237421964250000E1AD0200003888320000000000000                                                                              HARTMAN SLN INY 500 MLBOL     3
TI0001047048202H202100000556687800000556687808/12/20210632    31903062237421964250000E1AD0300000199490000000000000                                         LACTATO RINGER USP (HARTMANN)  SOL INY  BOL X 1000ML BAXTERBIN     2
TI0001047048202H202100000556687800000556687808/12/20211828     3300004237421964250000J01DD100000456230000000000000                                                                        AXTAR POLVO LIOF SLN INY 1 GVAL     2
TI0001047048202H202100000556687800000556687808/12/20211558     3300004237421964250000J01DD100000456230000000000000                                                                        AXTAR POLVO LIOF SLN INY 1 GVAL     2
TI0001047048202H202100000556687800000556687808/12/20211124     3300004237421964250000J1KF0200001677230000000000000                                                                      MERONEM POLVO SLN INY 1 G  /R/VAL     1
TI0001047048202H202100000556687800000556687808/12/20210213     3300009237421964250000J1KF0200001677230000000000000                                                                      MERONEM POLVO SLN INY 1 G  /R/VAL     2
TI0001047048202H202100000556687800000556687808/12/20211124     3300004237421964250000J01XA400001212420000000000000                                                               VANCOMICINA POLVO LIOF SLN INY 500 MGVAL     1
TI0001047048202H202100000556687800000556687808/12/20210213     3300009237421964250000J01XA400001212420000000000000                                                               VANCOMICINA POLVO LIOF SLN INY 500 MGVAL     2
TI0001047048202H202100000556687800000556687808/12/20211417     3300004237421964250000L1BC1300000304160000000000000                                                                        NEUPOGEN Sln iny 300 mcg /R/JRP     1
TI0001047048202H202100000556687800000556687808/12/20210839     3300004237421964250000L1BC1300000304160000000000000                                                                        NEUPOGEN Sln iny 300 mcg /R/JRP     2
TI0001047048202H202100000556687800000556687808/12/20210213     3300009237421964250000L1BC1300000304160000000000000                                                                        NEUPOGEN Sln iny 300 mcg /R/JRP     1
TI0001047048202H202100000556687800000556687808/12/20211503    31903294237421964250000V07A1300000502600000000000000                                                                                AGUA ESTERIL x 10 mlAMP     5
