CC0000072339909H202100919896120800919896120808/12/20212219    3150030523742196425000011085100001082120000000000000                                                                           GUANTE QUIRURGICO TALLA 7SOB     1
CC0000072339909H202100919896120800919896120808/12/20212219    3150030523742196425000013077800000471960000000000000                                                             GASA NO TEJIDA EST 7.5 X 7.5 SOB X 3 UNSOB     6
CC0000072339909H202100919896120800919896120808/12/20212219    3150030523742196425000016830000000970620000000000000                                                             SIST FIJACION CAT PERIFERICO 6.5X7 1683SOB     1
CC0000072339909H202100919896120800919896120808/12/20212219    3150030523742196425000000602700001197200000000000000                                                              APOSITO TRANSP  1655 IV 8.5CM X 11.5CMSOB     1
