CC0001125799256U202100050131974200050131974208/12/20212358    3190315823942196432000022426800001140510000000000000                                                                    EQUIPO MACROGOTEO BAXTER MRC0001SOB     1
CC0001125799256U202100050131974200050131974208/12/20212358    3190315823942196432000011082700001620070000000000000                                                               EQUIPO SET PRIMARIO C/CLAVE REF 14001BOL     1
CC0001128280424U202100050131974200050131974208/12/20212358    3190315823942196432000001956000001620610000000000000                                                                      CONECTOR MICRO CLAVE LAT-MC100SOB     1
CC0001128280424U202100050131974200050131974208/12/20212358    31903158239421964320000Q1AA7300000610640000000000000                                                            CATETER PERIFE INTROCAN # 22G 4251628-04SIN     1
CC0001128280424U202100050131974200050131974208/12/20212358    3190315823942196432000016830000000970620000000000000                                                             SIST FIJACION CAT PERIFERICO 6.5X7 1683SOB     1
CC0001125799256U202100050131974200050131974208/12/20212358    31903158239421964320000E1AB0500003888400000000000000                                                              SOLUCION SALINA 0.9% SLN INY X 1000 MLBOL     1
CC0001125799256U202100050131974200050131974208/12/20212358    31903158239421964320000E1AB0700003888350000000000000                                                            SOLUCION SALINA 0.9% SLN INY BO X 250 MLBOL     1
